{"abi":[{"type":"function","name":"sendMessageBatch","inputs":[{"name":"calls","type":"tuple[]","internalType":"struct BatchMulticall.MessageCall[]","components":[{"name":"mirror","type":"address","internalType":"address"},{"name":"payload","type":"bytes","internalType":"bytes"},{"name":"value","type":"uint128","internalType":"uint128"}]}],"outputs":[{"name":"success","type":"bool[]","internalType":"bool[]"},{"name":"messageIds","type":"bytes32[]","internalType":"bytes32[]"}],"stateMutability":"payable"},{"type":"error","name":"InsufficientValue","inputs":[{"name":"expected","type":"uint256","internalType":"uint256"},{"name":"actual","type":"uint256","internalType":"uint256"}]}],"bytecode":{"object":"0x6080806040523460155761040e908161001a8239f35b5f80fdfe60806040526004361015610011575f80fd5b5f3560e01c63564abd5f14610024575f80fd5b60203660031901126102385760043567ffffffffffffffff811161023857366023820112156102385780600401359067ffffffffffffffff8211610238573660248360051b83010111610238579061007b816103ba565b6100886040519182610398565b818152610094826103ba565b602082019390601f19013685376100aa836103ba565b936100b86040519586610398565b8385526100c4846103ba565b602086019290601f19013684375f92368290036082190192845b8781101561026e5760248160051b850101358581121561023857840190606482016001600160801b03610110826103d2565b16880180981161025a5787348111610244575060248301356001600160a01b03811691908290036102385761014c6001600160801b03916103d2565b16926044810135604219368390030181121561023857016024018035939067ffffffffffffffff85116102385760200191843603831361023857602092859260646040518098819682956242129d60e81b845260406004850152816044850152848401375f82820184018190526024830152601f01601f191681010301925af1805f9161020c575b600193506101f057505f6101e8828a6103e6565b525b016100de565b826101fb838b6103e6565b52610206828c6103e6565b526101ea565b90506020833d821161023c575b8161022660209383610398565b810103126102385760019251906101d4565b5f80fd5b3d9150610219565b631c102d6360e21b5f526004523460245260445ffd5b634e487b7160e01b5f52601160045260245ffd5b8683838b893481106102f6575b506040805181815294519085018190528493926060850192915f5b8181106102db575050506020908483038286015251918281520191905f5b8181106102c2575050500390f35b82518452859450602093840193909201916001016102b4565b82511515855287965060209485019490920191600101610296565b340334811161025a575f80808093335af13d15610393573d67ffffffffffffffff811161037f5760405190610335601f8201601f191660200183610398565b81525f60203d92013e5b1561034a578461027b565b60405162461bcd60e51b815260206004820152600d60248201526c1499599d5b990819985a5b1959609a1b6044820152606490fd5b634e487b7160e01b5f52604160045260245ffd5b61033f565b90601f8019910116810190811067ffffffffffffffff82111761037f57604052565b67ffffffffffffffff811161037f5760051b60200190565b356001600160801b03811681036102385790565b80518210156103fa5760209160051b010190565b634e487b7160e01b5f52603260045260245ffd","linkReferences":{}},"methodIdentifiers":{"sendMessageBatch((address,bytes,uint128)[])":"564abd5f"},"storageLayout":{"storage":[],"types":{}},"id":15}