{"abi":[{"type":"function","name":"createProgramApproveTopUpAndInit","inputs":[{"name":"router","type":"address","internalType":"address"},{"name":"wrappedVara","type":"address","internalType":"address"},{"name":"call","type":"tuple","internalType":"struct BatchMulticall.ProgramInitCall","components":[{"name":"codeId","type":"bytes32","internalType":"bytes32"},{"name":"salt","type":"bytes32","internalType":"bytes32"},{"name":"payload","type":"bytes","internalType":"bytes"},{"name":"topUpValue","type":"uint128","internalType":"uint128"},{"name":"initValue","type":"uint128","internalType":"uint128"}]}],"outputs":[{"name":"programId","type":"address","internalType":"address"},{"name":"messageId","type":"bytes32","internalType":"bytes32"}],"stateMutability":"payable"},{"type":"function","name":"createProgramApproveTopUpAndInitBatch","inputs":[{"name":"router","type":"address","internalType":"address"},{"name":"wrappedVara","type":"address","internalType":"address"},{"name":"calls","type":"tuple[]","internalType":"struct BatchMulticall.ProgramInitCall[]","components":[{"name":"codeId","type":"bytes32","internalType":"bytes32"},{"name":"salt","type":"bytes32","internalType":"bytes32"},{"name":"payload","type":"bytes","internalType":"bytes"},{"name":"topUpValue","type":"uint128","internalType":"uint128"},{"name":"initValue","type":"uint128","internalType":"uint128"}]}],"outputs":[{"name":"success","type":"bool[]","internalType":"bool[]"},{"name":"programIds","type":"address[]","internalType":"address[]"},{"name":"messageIds","type":"bytes32[]","internalType":"bytes32[]"}],"stateMutability":"payable"},{"type":"function","name":"sendMessageBatch","inputs":[{"name":"calls","type":"tuple[]","internalType":"struct BatchMulticall.MessageCall[]","components":[{"name":"mirror","type":"address","internalType":"address"},{"name":"payload","type":"bytes","internalType":"bytes"},{"name":"value","type":"uint128","internalType":"uint128"}]}],"outputs":[{"name":"success","type":"bool[]","internalType":"bool[]"},{"name":"messageIds","type":"bytes32[]","internalType":"bytes32[]"}],"stateMutability":"payable"},{"type":"event","name":"ProgramCreateAndInitFailed","inputs":[{"name":"callId","type":"uint256","indexed":true,"internalType":"uint256"},{"name":"reason","type":"bytes","indexed":false,"internalType":"bytes"}],"anonymous":false},{"type":"event","name":"ProgramCreatedAndInitialized","inputs":[{"name":"callId","type":"uint256","indexed":true,"internalType":"uint256"},{"name":"programId","type":"address","indexed":true,"internalType":"address"},{"name":"messageId","type":"bytes32","indexed":false,"internalType":"bytes32"}],"anonymous":false},{"type":"error","name":"ApproveFailed","inputs":[]},{"type":"error","name":"Forbidden","inputs":[]},{"type":"error","name":"InsufficientValue","inputs":[{"name":"expected","type":"uint256","internalType":"uint256"},{"name":"actual","type":"uint256","internalType":"uint256"}]}],"bytecode":{"object":"0x60808060405234601557610af9908161001a8239f35b5f80fdfe60806040526004361015610011575f80fd5b5f5f3560e01c8063564abd5f1461068e578063cb7c0f32146102e95763f70a17ce1461003b575f80fd5b60603660031901126102185761004f6108ed565b610057610903565b6044359267ffffffffffffffff841161021857836004019160a06003198636030112610218573033036102da57604051631b41e26960e11b815283356004820152602486810135908201525f604482018190529094602091869160649183916001600160a01b03165af1938415610249575f9461029e575b50606485019060206001600160801b0360446100ea85610999565b60405163095ea7b360e01b81526001600160a01b03998a1660048201819052919093166024840152979193849283915f91165af1908115610249575f91610263575b50156102545761013b90610999565b93833b15610218576001600160801b03604051956338276aa160e11b87521660048601525f8560248183885af1948515610249576101c595610230575b5061019f6020929360446001600160801b0361019660848601610999565b169301906109ce565b6040929192518097819482936242129d60e81b8452604060048501526044840191610a01565b8660248301520391865af190811561022457906101ed575b6040809350519182526020820152f35b506020823d60201161021c575b8161020760209383610919565b8101031261021857604091516101dd565b5f80fd5b3d91506101fa565b604051903d90823e3d90fd5b602092505f61023e91610919565b61019f5f9250610178565b6040513d5f823e3d90fd5b633e3f8f7360e01b5f5260045ffd5b90506020813d602011610296575b8161027e60209383610919565b8101031261021857518015158103610218575f61012c565b3d9150610271565b9093506020813d6020116102d2575b816102ba60209383610919565b81010312610218576102cb90610ad1565b925f6100cf565b3d91506102ad565b631dd2188d60e31b5f5260045ffd5b6060366003190112610218576102fd6108ed565b610305610903565b9060443567ffffffffffffffff811161021857610326903690600401610854565b9161033083610967565b9161033a8461094f565b906103486040519283610919565b8482526103548561094f565b6020830190601f190136823761036986610967565b965f91825b888410156105f2578360051b85013590609e1986360301821215610218576103ad906001600160801b036103a66080858a0101610999565b16906109ad565b933485116105db576001600160801b036103cb608084890101610999565b60408051637b850be760e11b81526001600160a01b038c811660048301528816602482015260606044820152898601803560648301526020810135608483015290939092169190810135903603601e19018112156102185784890101936020850167ffffffffffffffff8635116102185785353603811361021857838f9693818f948d8f976104976080859461047a6001600160801b039460409b60a060a48a01526101048901913590610a01565b948461048a606084840101610ae5565b1660c48801520101610ae5565b1660e48301520391305af180955f945f9261058d575b509085939291600197155f14610531575050829350602091506040905f6104fd7fd7d0623664e177dc805a881e33acdfd96e733c759675c622957a5e16a4b6b1c2956104f7610a56565b93610a21565b52815192839181835280519182918282860152018484015e5f828201840152601f01601f19168101030190a25b019261036e565b610580858392610570827fe03620c178bbf33e51b6802d5d08064124d7bf30be1a6f0a2427b982faeeab4a988d61056a8360209b610a21565b52610a21565b988b8060a01b0316809952610a21565b52604051908152a361052a565b9450505050506040813d82116105d3575b816105ab60409383610919565b810103126102185781888b6001958f60206105c587610ad1565b9601519293945090966104ad565b3d915061059e565b84631c102d6360e21b5f526004523460245260445ffd5b89868992348110610666575b50602061061660405194606086526060860190610885565b918483038286015251918281520193905f5b818110610647578480610643888783820360408501526108ba565b0390f35b82516001600160a01b0316865260209586019590920191600101610628565b5f8080806106776106889534610a49565b335af1610682610a56565b50610a95565b846105fe565b60203660031901126102185760043567ffffffffffffffff8111610218576106ba903690600401610854565b6106c381610967565b6106cc82610967565b925f9036819003605e190190825b85811015610809578060051b820135838112156102185782019061070d60408301956001600160801b036103a688610999565b943486116107f25782356001600160a01b0381169390849003610218576107749361074f6001600160801b03610744602095610999565b1692848101906109ce565b90926040518097819582946242129d60e81b8452604060048501526044840191610a01565b5f602483015203925af1805f916107be575b600193506107a257505f61079a8288610a21565b525b016106da565b826107ad8389610a21565b526107b8828a610a21565b5261079c565b90506020833d82116107ea575b816107d860209383610919565b81010312610218576001925190610786565b3d91506107cb565b85631c102d6360e21b5f526004523460245260445ffd5b61082f85610643898734811061083d575b50604051938493604085526040850190610885565b9083820360208501526108ba565b5f80808061067761084e9534610a49565b8461081a565b9181601f840112156102185782359167ffffffffffffffff8311610218576020808501948460051b01011161021857565b90602080835192838152019201905f5b8181106108a25750505090565b82511515845260209384019390920191600101610895565b90602080835192838152019201905f5b8181106108d75750505090565b82518452602093840193909201916001016108ca565b600435906001600160a01b038216820361021857565b602435906001600160a01b038216820361021857565b90601f8019910116810190811067ffffffffffffffff82111761093b57604052565b634e487b7160e01b5f52604160045260245ffd5b67ffffffffffffffff811161093b5760051b60200190565b906109718261094f565b61097e6040519182610919565b828152809261098f601f199161094f565b0190602036910137565b356001600160801b03811681036102185790565b919082018092116109ba57565b634e487b7160e01b5f52601160045260245ffd5b903590601e1981360301821215610218570180359067ffffffffffffffff82116102185760200191813603831361021857565b908060209392818452848401375f828201840152601f01601f1916010190565b8051821015610a355760209160051b010190565b634e487b7160e01b5f52603260045260245ffd5b919082039182116109ba57565b3d15610a90573d9067ffffffffffffffff821161093b5760405191610a85601f8201601f191660200184610919565b82523d5f602084013e565b606090565b15610a9c57565b60405162461bcd60e51b815260206004820152600d60248201526c1499599d5b990819985a5b1959609a1b6044820152606490fd5b51906001600160a01b038216820361021857565b35906001600160801b03821682036102185756","linkReferences":{}},"methodIdentifiers":{"createProgramApproveTopUpAndInit(address,address,(bytes32,bytes32,bytes,uint128,uint128))":"f70a17ce","createProgramApproveTopUpAndInitBatch(address,address,(bytes32,bytes32,bytes,uint128,uint128)[])":"cb7c0f32","sendMessageBatch((address,bytes,uint128)[])":"564abd5f"},"storageLayout":{"storage":[],"types":{}},"id":17}