{"abi":[{"type":"receive","stateMutability":"payable"},{"type":"function","name":"createProgramBatch","inputs":[{"name":"router","type":"address","internalType":"contract IRouter"},{"name":"calls","type":"tuple[]","internalType":"struct BatchMulticall.CreateProgramCall[]","components":[{"name":"codeId","type":"bytes32","internalType":"bytes32"},{"name":"salt","type":"bytes32","internalType":"bytes32"},{"name":"initPayload","type":"bytes","internalType":"bytes"},{"name":"initValue","type":"uint128","internalType":"uint128"},{"name":"topUpValue","type":"uint128","internalType":"uint128"}]}],"outputs":[{"name":"programIds","type":"address[]","internalType":"address[]"},{"name":"messageIds","type":"bytes32[]","internalType":"bytes32[]"}],"stateMutability":"payable"},{"type":"function","name":"sendMessageBatch","inputs":[{"name":"calls","type":"tuple[]","internalType":"struct BatchMulticall.MessageCall[]","components":[{"name":"mirror","type":"address","internalType":"address"},{"name":"payload","type":"bytes","internalType":"bytes"},{"name":"value","type":"uint128","internalType":"uint128"}]}],"outputs":[],"stateMutability":"payable"},{"type":"event","name":"SendMessageBatchResult","inputs":[{"name":"messageIds","type":"bytes32[]","indexed":false,"internalType":"bytes32[]"},{"name":"success","type":"bool[]","indexed":false,"internalType":"bool[]"}],"anonymous":false},{"type":"error","name":"InsufficientValue","inputs":[{"name":"expected","type":"uint256","internalType":"uint256"},{"name":"actual","type":"uint256","internalType":"uint256"}]}],"bytecode":{"object":"0x608080604052346015576109da908161001a8239f35b5f80fdfe6080604052600436101561001a575b3615610018575f80fd5b005b5f3560e01c80633cb1083b146102855763564abd5f0361000e57602036600319011261022f5760043567ffffffffffffffff811161022f57610060903690600401610757565b9061006a826107f1565b61007760405191826107bb565b828152610083836107f1565b602082019390601f190136853761009981610809565b925f915f5b818110610252575034831161023b575f5b81811061015a57505050348110610132575b5060206100d960405193604085526040850190610788565b918383038285015251918281520192905f5b81811061011a577f960b70481f8599cc26289c0969b45c9e669819823bb0449cb9a763d126e3334184860385a1005b825115158552602094850194909201916001016100eb565b5f8080806101436101549534610930565b335af161014e61093d565b5061097c565b5f6100c1565b6101658183856109b8565b9081356001600160a01b0381169081900361022f57826020916101a36001600160801b0361019860406101bf980161085a565b1692848101906108b7565b926040518097819582946242129d60e81b8452600484016108ea565b03925af1805f91610203575b600193506101e757505f6101df828861088f565b525b016100af565b826101f2838961088f565b526101fd828961088f565b526101e1565b90506020833d8211610233575b8161021d602093836107bb565b8101031261022f5760019251906101cb565b5f80fd5b3d9150610210565b82631c102d6360e21b5f526004523460245260445ffd5b9261027e6001916001600160801b03610277604061027189888a6109b8565b0161085a565b169061086e565b930161009e565b604036600319011261022f576004356001600160a01b0381169081900361022f5760243567ffffffffffffffff811161022f576102c6903690600401610757565b6102cf816107f1565b6102dc60405191826107bb565b8181526102e8826107f1565b602082019390601f19013685376102fe83610809565b9060405163088f50cf60e41b81526020816004818a5afa90811561054e575f91610738575b5093946001600160a01b03909416935f91609e19368290030191835b888110156106bc578060051b8301358481121561022f57830161037160608201966001600160801b036102778961085a565b953487116106a557905f929160208d606460405180978193631b41e26960e11b8352873560048401528588013560248401523060448401525af193841561054e578a905f95610658575b506001600160801b036103ec61041894936103d88760209561088f565b6001600160a01b039098169788905261085a565b166103fa60408401846108b7565b6040516242129d60e81b8152958693928492839291600484016108ea565b0391885af1801561054e575f90610626575b60809250610438848b61088f565b52016001600160801b0361044b8261085a565b1661045c575b50600191500161033f565b8960206001600160801b0360646104728561085a565b5f60405195869485936323b872dd60e01b85523360048601523060248601521660448401525af190811561054e575f91610608575b50156105c3578960206001600160801b0360446104c38561085a565b5f604051958694859363095ea7b360e01b85528b60048601521660248401525af190811561054e575f91610595575b5015610559576105019061085a565b823b1561022f576001600160801b0360245f928360405196879485936338276aa160e11b85521660048401525af191821561054e5760019215610451575f610548916107bb565b8b610451565b6040513d5f823e3d90fd5b60405162461bcd60e51b81526020600482015260146024820152731dd590549048185c1c1c9bdd994819985a5b195960621b6044820152606490fd5b6105b6915060203d81116105bc575b6105ae81836107bb565b810190610918565b8d6104f2565b503d6105a4565b60405162461bcd60e51b815260206004820152601960248201527f7756415241207472616e7366657246726f6d206661696c6564000000000000006044820152606490fd5b610620915060203d81116105bc576105ae81836107bb565b8d6104a7565b506020823d8211610650575b8161063f602093836107bb565b8101031261022f576080915161042a565b3d9150610632565b60209195506103ec61041894936103d8876106906001600160801b0395873d811161069e575b61068881836107bb565b81019061083b565b9995505050939450506103bb565b503d61067e565b86631c102d6360e21b5f526004523460245260445ffd5b5095505050348110610721575b5060405191604083019060408452518091526060830193905f5b8181106107025784806106fe88878382036020850152610788565b0390f35b82516001600160a01b03168652602095860195909201916001016106e3565b5f8080806101436107329534610930565b836106c9565b610751915060203d60201161069e5761068881836107bb565b87610323565b9181601f8401121561022f5782359167ffffffffffffffff831161022f576020808501948460051b01011161022f57565b90602080835192838152019201905f5b8181106107a55750505090565b8251845260209384019390920191600101610798565b90601f8019910116810190811067ffffffffffffffff8211176107dd57604052565b634e487b7160e01b5f52604160045260245ffd5b67ffffffffffffffff81116107dd5760051b60200190565b90610813826107f1565b61082060405191826107bb565b8281528092610831601f19916107f1565b0190602036910137565b9081602091031261022f57516001600160a01b038116810361022f5790565b356001600160801b038116810361022f5790565b9190820180921161087b57565b634e487b7160e01b5f52601160045260245ffd5b80518210156108a35760209160051b010190565b634e487b7160e01b5f52603260045260245ffd5b903590601e198136030182121561022f570180359067ffffffffffffffff821161022f5760200191813603831361022f57565b92916060816020925f94604088528160408901528388013783828288010152601f8019910116850101930152565b9081602091031261022f5751801515810361022f5790565b9190820391821161087b57565b3d15610977573d9067ffffffffffffffff82116107dd576040519161096c601f8201601f1916602001846107bb565b82523d5f602084013e565b606090565b1561098357565b60405162461bcd60e51b815260206004820152600d60248201526c1499599d5b990819985a5b1959609a1b6044820152606490fd5b91908110156108a35760051b81013590605e198136030182121561022f57019056","linkReferences":{}},"methodIdentifiers":{"createProgramBatch(address,(bytes32,bytes32,bytes,uint128,uint128)[])":"3cb1083b","sendMessageBatch((address,bytes,uint128)[])":"564abd5f"},"storageLayout":{"storage":[],"types":{}},"id":99}