{"abi":[{"type":"receive","stateMutability":"payable"},{"type":"function","name":"createProgramBatch","inputs":[{"name":"router","type":"address","internalType":"contract IRouter"},{"name":"calls","type":"tuple[]","internalType":"struct BatchMulticall.CreateProgramCall[]","components":[{"name":"codeId","type":"bytes32","internalType":"bytes32"},{"name":"salt","type":"bytes32","internalType":"bytes32"},{"name":"initPayload","type":"bytes","internalType":"bytes"},{"name":"initValue","type":"uint128","internalType":"uint128"},{"name":"topUpValue","type":"uint128","internalType":"uint128"}]}],"outputs":[{"name":"","type":"address[]","internalType":"address[]"},{"name":"","type":"bytes32[]","internalType":"bytes32[]"}],"stateMutability":"payable"},{"type":"function","name":"sendMessageBatch","inputs":[{"name":"calls","type":"tuple[]","internalType":"struct BatchMulticall.MessageCall[]","components":[{"name":"mirror","type":"address","internalType":"address"},{"name":"payload","type":"bytes","internalType":"bytes"},{"name":"value","type":"uint128","internalType":"uint128"}]}],"outputs":[],"stateMutability":"payable"},{"type":"event","name":"SendMessageBatchResult","inputs":[{"name":"messageIds","type":"bytes32[]","indexed":false,"internalType":"bytes32[]"}],"anonymous":false},{"type":"error","name":"InsufficientValue","inputs":[{"name":"expected","type":"uint256","internalType":"uint256"},{"name":"actual","type":"uint256","internalType":"uint256"}]}],"bytecode":{"object":"0x6080806040523460155761093a908161001a8239f35b5f80fdfe6080604052600436101561001a575b3615610018575f80fd5b005b5f3560e01c80633cb1083b1461020c5763564abd5f0361000e5760203660031901126101ab5760043567ffffffffffffffff81116101ab576100609036906004016106b7565b61006981610769565b915f915f5b8181106101d957503483116101c2575f5b8181106100f6577fbf5656409246fcf8590b3724124bfed7999e445c6e39ab2b4ad848f29915ecd06100c986863481106100ce575b506040519182916020835260208301906106e8565b0390a1005b5f8080806100df6100f09534610890565b335af16100ea61089d565b506108dc565b836100b4565b610101818385610918565b9081356001600160a01b038116908190036101ab578260209161013f6001600160801b03610134604061015b98016107ba565b16928481019061082f565b926040518097819582946242129d60e81b845260048401610862565b03925af180156101b7575f90610181575b6001925061017a82886107ef565b520161007f565b506020823d82116101af575b8161019a6020938361071b565b810103126101ab576001915161016c565b5f80fd5b3d915061018d565b6040513d5f823e3d90fd5b82631c102d6360e21b5f526004523460245260445ffd5b926102056001916001600160801b036101fe60406101f889888a610918565b016107ba565b16906107ce565b930161006e565b60403660031901126101ab576004356001600160a01b038116908190036101ab5760243567ffffffffffffffff81116101ab5761024d9036906004016106b7565b61025681610751565b610263604051918261071b565b81815261026f82610751565b602082019390601f190136853761028583610769565b9260405163088f50cf60e41b81526020816004818a5afa9081156101b7575f91610698575b5090945f926001600160a01b0390921691609e19368290030191845b8881101561061d578060051b830135848112156101ab5783016102f860608201976001600160801b036101fe8a6107ba565b9634881161060657905f929160208d606460405180978193631b41e26960e11b8352873560048401528588013560248401523060448401525af19384156101b7575f946105d6575b5061034b838b6107ef565b6001600160a01b0390941693849052608082016001600160801b0361036f826107ba565b166103f5575b509061039d9361013f6001600160801b036103916020956107ba565b1692604081019061082f565b03925af180156101b7575f906103c3575b600192506103bc828b6107ef565b52016102c6565b506020823d82116103ed575b816103dc6020938361071b565b810103126101ab57600191516103ae565b3d91506103cf565b8860206001600160801b03606461040e859796976107ba565b5f60405195869485936323b872dd60e01b85523360048601523060248601521660448401525af19081156101b7575f916105b8575b5015610573578860206001600160801b03604461045f856107ba565b5f604051958694859363095ea7b360e01b85528d60048601521660248401525af19081156101b7575f91610545575b50156105095761049d906107ba565b93803b156101ab576001600160801b03604051956338276aa160e11b87521660048601525f8560248183855af19283156101b7576001600160801b0361039161013f9261039d986020976104f9575b5094955050505093610375565b5f6105039161071b565b5f6104ec565b60405162461bcd60e51b81526020600482015260146024820152731dd590549048185c1c1c9bdd994819985a5b195960621b6044820152606490fd5b610566915060203d811161056c575b61055e818361071b565b810190610817565b8f61048e565b503d610554565b60405162461bcd60e51b815260206004820152601960248201527f7756415241207472616e7366657246726f6d206661696c6564000000000000006044820152606490fd5b6105d0915060203d811161056c5761055e818361071b565b8f610443565b6105f891945060203d81116105ff575b6105f0818361071b565b81019061079b565b928d610340565b503d6105e6565b87631c102d6360e21b5f526004523460245260445ffd5b50858786348110610681575b5060405191604083019060408452518091526060830193905f5b81811061066257848061065e888783820360208501526106e8565b0390f35b82516001600160a01b0316865260209586019590920191600101610643565b5f8080806100df6106929534610890565b83610629565b6106b1915060203d6020116105ff576105f0818361071b565b876102aa565b9181601f840112156101ab5782359167ffffffffffffffff83116101ab576020808501948460051b0101116101ab57565b90602080835192838152019201905f5b8181106107055750505090565b82518452602093840193909201916001016106f8565b90601f8019910116810190811067ffffffffffffffff82111761073d57604052565b634e487b7160e01b5f52604160045260245ffd5b67ffffffffffffffff811161073d5760051b60200190565b9061077382610751565b610780604051918261071b565b8281528092610791601f1991610751565b0190602036910137565b908160209103126101ab57516001600160a01b03811681036101ab5790565b356001600160801b03811681036101ab5790565b919082018092116107db57565b634e487b7160e01b5f52601160045260245ffd5b80518210156108035760209160051b010190565b634e487b7160e01b5f52603260045260245ffd5b908160209103126101ab575180151581036101ab5790565b903590601e19813603018212156101ab570180359067ffffffffffffffff82116101ab576020019181360383136101ab57565b92916060816020925f94604088528160408901528388013783828288010152601f8019910116850101930152565b919082039182116107db57565b3d156108d7573d9067ffffffffffffffff821161073d57604051916108cc601f8201601f19166020018461071b565b82523d5f602084013e565b606090565b156108e357565b60405162461bcd60e51b815260206004820152600d60248201526c1499599d5b990819985a5b1959609a1b6044820152606490fd5b91908110156108035760051b81013590605e19813603018212156101ab57019056","linkReferences":{}},"methodIdentifiers":{"createProgramBatch(address,(bytes32,bytes32,bytes,uint128,uint128)[])":"3cb1083b","sendMessageBatch((address,bytes,uint128)[])":"564abd5f"},"storageLayout":{"storage":[],"types":{}},"id":148}