{"abi":[{"type":"constructor","inputs":[{"name":"stakerRewardsImplementation","type":"address","internalType":"address"}],"stateMutability":"nonpayable"},{"type":"function","name":"create","inputs":[{"name":"params","type":"tuple","internalType":"struct IDefaultStakerRewards.InitParams","components":[{"name":"vault","type":"address","internalType":"address"},{"name":"adminFee","type":"uint256","internalType":"uint256"},{"name":"defaultAdminRoleHolder","type":"address","internalType":"address"},{"name":"adminFeeClaimRoleHolder","type":"address","internalType":"address"},{"name":"adminFeeSetRoleHolder","type":"address","internalType":"address"}]}],"outputs":[{"name":"","type":"address","internalType":"address"}],"stateMutability":"nonpayable"},{"type":"function","name":"entity","inputs":[{"name":"index","type":"uint256","internalType":"uint256"}],"outputs":[{"name":"","type":"address","internalType":"address"}],"stateMutability":"view"},{"type":"function","name":"isEntity","inputs":[{"name":"entity_","type":"address","internalType":"address"}],"outputs":[{"name":"","type":"bool","internalType":"bool"}],"stateMutability":"view"},{"type":"function","name":"totalEntities","inputs":[],"outputs":[{"name":"","type":"uint256","internalType":"uint256"}],"stateMutability":"view"},{"type":"event","name":"AddEntity","inputs":[{"name":"entity","type":"address","indexed":true,"internalType":"address"}],"anonymous":false},{"type":"error","name":"ERC1167FailedCreateClone","inputs":[]},{"type":"error","name":"EntityNotExist","inputs":[]}],"bytecode":{"object":"0x60a034606557601f61046938819003918201601f19168301916001600160401b03831184841017606957808492602094604052833981010312606557516001600160a01b03811681036065576080526040516103eb908161007e82396080518160d00152f35b5f80fd5b634e487b7160e01b5f52604160045260245ffdfe6080604081815260049182361015610015575f80fd5b5f905f3560e01c90816314887c5814610288575080635cd8b15e1461026b57806361ca1df2146100bb5763b42ba2a21461004d575f80fd5b346100b85760203660031901126100b8575081355f548110156100a5575f80527f290decd9548b62a8d60345a988386fc84ba6bc95484008f6362f93160ef3e563015490516001600160a01b03909116815260209150f35b603283634e487b7160e01b5f525260245ffd5b80fd5b5082346102465760a0366003190112610246577f0000000000000000000000000000000000000000000000000000000000000000905f5491845190602082019384526101088683016102c2565b60c0825260e082019367ffffffffffffffff928086108487111761025857906e5af43d82803e903d91602b57fd5bf39186895251902091763d602d80600a3d3981f3363d3d373d3d3d363d7300000062ffffff8260881c16175f5260781b1760205260018060a01b0390603760095ff51692831561024a5750823b15610246578451639df4021d60e01b8152906101a08383016102c2565b5f8260a48183885af1801561023c576101ee575b505050807fb919910dcefbf753bfd926ab3b1d3f85d877190c3d01ba1bd585047b99b99f0b6020946101e58361031a565b50519380a28152f35b9080929594501161022957602093508252807fb919910dcefbf753bfd926ab3b1d3f85d877190c3d01ba1bd585047b99b99f0b5f93946101b4565b604184634e487b7160e01b5f525260245ffd5b86513d5f823e3d90fd5b5f80fd5b6330be1a3d60e21b81529050fd5b604185634e487b7160e01b5f525260245ffd5b8234610246575f366003190112610246576020905f549051908152f35b8390853461024657602036600319011261024657356001600160a01b0381169290839003610246576020925f52600183525f205415158152f35b6001600160a01b03906004358281169081900361024657815260243560208201526044358281168091036102465760408201526064358281168091036102465760608201526084359182168092036102465760800152565b805f52600160205260405f2054155f146103b0575f546801000000000000000081101561039c5760018101805f558110156103885781907f290decd9548b62a8d60345a988386fc84ba6bc95484008f6362f93160ef3e56301555f54905f52600160205260405f2055600190565b634e487b7160e01b5f52603260045260245ffd5b634e487b7160e01b5f52604160045260245ffd5b505f9056fea2646970667358221220e3090ab78a289a4bb16d87e7aa2b14bd7b6b3499b28ee50d4c35d6defded947364736f6c63430008190033","linkReferences":{}},"methodIdentifiers":{"create((address,uint256,address,address,address))":"61ca1df2","entity(uint256)":"b42ba2a2","isEntity(address)":"14887c58","totalEntities()":"5cd8b15e"},"id":133}