{"abi":[{"type":"constructor","inputs":[{"name":"stakerRewardsImplementation","type":"address","internalType":"address"}],"stateMutability":"nonpayable"},{"type":"function","name":"create","inputs":[{"name":"params","type":"tuple","internalType":"struct IDefaultStakerRewards.InitParams","components":[{"name":"vault","type":"address","internalType":"address"},{"name":"adminFee","type":"uint256","internalType":"uint256"},{"name":"defaultAdminRoleHolder","type":"address","internalType":"address"},{"name":"adminFeeClaimRoleHolder","type":"address","internalType":"address"},{"name":"adminFeeSetRoleHolder","type":"address","internalType":"address"}]}],"outputs":[{"name":"","type":"address","internalType":"address"}],"stateMutability":"nonpayable"},{"type":"function","name":"entity","inputs":[{"name":"index","type":"uint256","internalType":"uint256"}],"outputs":[{"name":"","type":"address","internalType":"address"}],"stateMutability":"view"},{"type":"function","name":"isEntity","inputs":[{"name":"entity_","type":"address","internalType":"address"}],"outputs":[{"name":"","type":"bool","internalType":"bool"}],"stateMutability":"view"},{"type":"function","name":"totalEntities","inputs":[],"outputs":[{"name":"","type":"uint256","internalType":"uint256"}],"stateMutability":"view"},{"type":"event","name":"AddEntity","inputs":[{"name":"entity","type":"address","indexed":true,"internalType":"address"}],"anonymous":false},{"type":"error","name":"EntityNotExist","inputs":[]},{"type":"error","name":"FailedDeployment","inputs":[]},{"type":"error","name":"InsufficientBalance","inputs":[{"name":"balance","type":"uint256","internalType":"uint256"},{"name":"needed","type":"uint256","internalType":"uint256"}]}],"bytecode":{"object":"0x60a034606557601f61041138819003918201601f19168301916001600160401b03831184841017606957808492602094604052833981010312606557516001600160a01b0381168103606557608052604051610393908161007e82396080518160b20152f35b5f80fd5b634e487b7160e01b5f52604160045260245ffdfe60806040526004361015610011575f80fd5b5f5f3560e01c806314887c581461020c5780635cd8b15e146101f057806361ca1df21461009e5763b42ba2a214610046575f80fd5b3461009b57602036600319011261009b576004359080548210156100875780805260208082209092015460405160039290921b1c6001600160a01b03168152f35b634e487b7160e01b81526032600452602490fd5b80fd5b50346101dd5760a03660031901126101dd577f00000000000000000000000000000000000000000000000000000000000000006e5af43d82803e903d91602b57fd5bf35f54604051602081019182526100f96040820161024a565b60c0815261010860e0826102b9565b51902091763d602d80600a3d3981f3363d3d373d3d3d363d7300000062ffffff8260881c16175f5260781b1760205260018060a01b0390603760095ff5169081156101e157813b156101dd57604051639df4021d60e01b81529161016e6004840161024a565b5f8360a48183855af19283156101d2576020936101bd575b50610190816102ef565b50807fb919910dcefbf753bfd926ab3b1d3f85d877190c3d01ba1bd585047b99b99f0b6040519380a28152f35b6101ca9192505f906102b9565b5f905f610186565b6040513d5f823e3d90fd5b5f80fd5b63b06ebf3d60e01b5f5260045ffd5b346101dd575f3660031901126101dd5760205f54604051908152f35b346101dd5760203660031901126101dd576004356001600160a01b038116908190036101dd575f526001602052602060405f20541515604051908152f35b6004356001600160a01b038116908190036101dd57815260243560208201526044356001600160a01b038116908190036101dd5760408201526064356001600160a01b038116908190036101dd5760608201526084356001600160a01b03811691908290036101dd5760800152565b90601f8019910116810190811067ffffffffffffffff8211176102db57604052565b634e487b7160e01b5f52604160045260245ffd5b805f52600160205260405f2054155f14610358575f54680100000000000000008110156102db57600181015f555f548110156103445781905f805260205f2001555f54905f52600160205260405f2055600190565b634e487b7160e01b5f52603260045260245ffd5b505f9056fea2646970667358221220fc6a7a05b98b3e9c5bb0140e713d3cc90c85e6f5a1ccc5ab6641f61fbda3a7e464736f6c63430008230033","linkReferences":{}},"methodIdentifiers":{"create((address,uint256,address,address,address))":"61ca1df2","entity(uint256)":"b42ba2a2","isEntity(address)":"14887c58","totalEntities()":"5cd8b15e"},"id":155}