{"abi":[{"type":"constructor","inputs":[{"name":"vaultFactory","type":"address","internalType":"address"},{"name":"networkMiddlewareService","type":"address","internalType":"address"}],"stateMutability":"nonpayable"},{"type":"function","name":"ADMIN_FEE_BASE","inputs":[],"outputs":[{"name":"","type":"uint256","internalType":"uint256"}],"stateMutability":"view"},{"type":"function","name":"ADMIN_FEE_CLAIM_ROLE","inputs":[],"outputs":[{"name":"","type":"bytes32","internalType":"bytes32"}],"stateMutability":"view"},{"type":"function","name":"ADMIN_FEE_SET_ROLE","inputs":[],"outputs":[{"name":"","type":"bytes32","internalType":"bytes32"}],"stateMutability":"view"},{"type":"function","name":"DEFAULT_ADMIN_ROLE","inputs":[],"outputs":[{"name":"","type":"bytes32","internalType":"bytes32"}],"stateMutability":"view"},{"type":"function","name":"NETWORK_MIDDLEWARE_SERVICE","inputs":[],"outputs":[{"name":"","type":"address","internalType":"address"}],"stateMutability":"view"},{"type":"function","name":"VAULT","inputs":[],"outputs":[{"name":"","type":"address","internalType":"address"}],"stateMutability":"view"},{"type":"function","name":"VAULT_FACTORY","inputs":[],"outputs":[{"name":"","type":"address","internalType":"address"}],"stateMutability":"view"},{"type":"function","name":"adminFee","inputs":[],"outputs":[{"name":"","type":"uint256","internalType":"uint256"}],"stateMutability":"view"},{"type":"function","name":"claimAdminFee","inputs":[{"name":"recipient","type":"address","internalType":"address"},{"name":"token","type":"address","internalType":"address"}],"outputs":[],"stateMutability":"nonpayable"},{"type":"function","name":"claimRewards","inputs":[{"name":"recipient","type":"address","internalType":"address"},{"name":"token","type":"address","internalType":"address"},{"name":"data","type":"bytes","internalType":"bytes"}],"outputs":[],"stateMutability":"nonpayable"},{"type":"function","name":"claimable","inputs":[{"name":"token","type":"address","internalType":"address"},{"name":"account","type":"address","internalType":"address"},{"name":"data","type":"bytes","internalType":"bytes"}],"outputs":[{"name":"amount","type":"uint256","internalType":"uint256"}],"stateMutability":"view"},{"type":"function","name":"claimableAdminFee","inputs":[{"name":"token","type":"address","internalType":"address"}],"outputs":[{"name":"amount","type":"uint256","internalType":"uint256"}],"stateMutability":"view"},{"type":"function","name":"distributeRewards","inputs":[{"name":"network","type":"address","internalType":"address"},{"name":"token","type":"address","internalType":"address"},{"name":"amount","type":"uint256","internalType":"uint256"},{"name":"data","type":"bytes","internalType":"bytes"}],"outputs":[],"stateMutability":"nonpayable"},{"type":"function","name":"getRoleAdmin","inputs":[{"name":"role","type":"bytes32","internalType":"bytes32"}],"outputs":[{"name":"","type":"bytes32","internalType":"bytes32"}],"stateMutability":"view"},{"type":"function","name":"grantRole","inputs":[{"name":"role","type":"bytes32","internalType":"bytes32"},{"name":"account","type":"address","internalType":"address"}],"outputs":[],"stateMutability":"nonpayable"},{"type":"function","name":"hasRole","inputs":[{"name":"role","type":"bytes32","internalType":"bytes32"},{"name":"account","type":"address","internalType":"address"}],"outputs":[{"name":"","type":"bool","internalType":"bool"}],"stateMutability":"view"},{"type":"function","name":"initialize","inputs":[{"name":"params","type":"tuple","internalType":"struct IDefaultStakerRewards.InitParams","components":[{"name":"vault","type":"address","internalType":"address"},{"name":"adminFee","type":"uint256","internalType":"uint256"},{"name":"defaultAdminRoleHolder","type":"address","internalType":"address"},{"name":"adminFeeClaimRoleHolder","type":"address","internalType":"address"},{"name":"adminFeeSetRoleHolder","type":"address","internalType":"address"}]}],"outputs":[],"stateMutability":"nonpayable"},{"type":"function","name":"lastUnclaimedReward","inputs":[{"name":"account","type":"address","internalType":"address"},{"name":"token","type":"address","internalType":"address"},{"name":"network","type":"address","internalType":"address"}],"outputs":[{"name":"rewardIndex","type":"uint256","internalType":"uint256"}],"stateMutability":"view"},{"type":"function","name":"multicall","inputs":[{"name":"data","type":"bytes[]","internalType":"bytes[]"}],"outputs":[{"name":"results","type":"bytes[]","internalType":"bytes[]"}],"stateMutability":"nonpayable"},{"type":"function","name":"renounceRole","inputs":[{"name":"role","type":"bytes32","internalType":"bytes32"},{"name":"callerConfirmation","type":"address","internalType":"address"}],"outputs":[],"stateMutability":"nonpayable"},{"type":"function","name":"revokeRole","inputs":[{"name":"role","type":"bytes32","internalType":"bytes32"},{"name":"account","type":"address","internalType":"address"}],"outputs":[],"stateMutability":"nonpayable"},{"type":"function","name":"rewards","inputs":[{"name":"token","type":"address","internalType":"address"},{"name":"network","type":"address","internalType":"address"},{"name":"","type":"uint256","internalType":"uint256"}],"outputs":[{"name":"amount","type":"uint256","internalType":"uint256"},{"name":"timestamp","type":"uint48","internalType":"uint48"}],"stateMutability":"view"},{"type":"function","name":"rewardsLength","inputs":[{"name":"token","type":"address","internalType":"address"},{"name":"network","type":"address","internalType":"address"}],"outputs":[{"name":"","type":"uint256","internalType":"uint256"}],"stateMutability":"view"},{"type":"function","name":"setAdminFee","inputs":[{"name":"adminFee_","type":"uint256","internalType":"uint256"}],"outputs":[],"stateMutability":"nonpayable"},{"type":"function","name":"supportsInterface","inputs":[{"name":"interfaceId","type":"bytes4","internalType":"bytes4"}],"outputs":[{"name":"","type":"bool","internalType":"bool"}],"stateMutability":"view"},{"type":"function","name":"version","inputs":[],"outputs":[{"name":"","type":"uint64","internalType":"uint64"}],"stateMutability":"view"},{"type":"event","name":"ClaimAdminFee","inputs":[{"name":"recipient","type":"address","indexed":true,"internalType":"address"},{"name":"amount","type":"uint256","indexed":false,"internalType":"uint256"}],"anonymous":false},{"type":"event","name":"ClaimRewards","inputs":[{"name":"network","type":"address","indexed":true,"internalType":"address"},{"name":"token","type":"address","indexed":true,"internalType":"address"},{"name":"claimer","type":"address","indexed":true,"internalType":"address"},{"name":"amount","type":"uint256","indexed":false,"internalType":"uint256"},{"name":"recipient","type":"address","indexed":false,"internalType":"address"}],"anonymous":false},{"type":"event","name":"ClaimRewardsExtra","inputs":[{"name":"network","type":"address","indexed":true,"internalType":"address"},{"name":"token","type":"address","indexed":true,"internalType":"address"},{"name":"claimer","type":"address","indexed":true,"internalType":"address"},{"name":"firstClaimedRewardIndex","type":"uint256","indexed":false,"internalType":"uint256"},{"name":"rewardsClaimed","type":"uint256","indexed":false,"internalType":"uint256"}],"anonymous":false},{"type":"event","name":"DistributeRewards","inputs":[{"name":"network","type":"address","indexed":true,"internalType":"address"},{"name":"token","type":"address","indexed":true,"internalType":"address"},{"name":"distributeAmount","type":"uint256","indexed":false,"internalType":"uint256"},{"name":"adminFeeAmount","type":"uint256","indexed":false,"internalType":"uint256"},{"name":"timestamp","type":"uint48","indexed":false,"internalType":"uint48"}],"anonymous":false},{"type":"event","name":"InitVault","inputs":[{"name":"vault","type":"address","indexed":false,"internalType":"address"}],"anonymous":false},{"type":"event","name":"Initialized","inputs":[{"name":"version","type":"uint64","indexed":false,"internalType":"uint64"}],"anonymous":false},{"type":"event","name":"RoleAdminChanged","inputs":[{"name":"role","type":"bytes32","indexed":true,"internalType":"bytes32"},{"name":"previousAdminRole","type":"bytes32","indexed":true,"internalType":"bytes32"},{"name":"newAdminRole","type":"bytes32","indexed":true,"internalType":"bytes32"}],"anonymous":false},{"type":"event","name":"RoleGranted","inputs":[{"name":"role","type":"bytes32","indexed":true,"internalType":"bytes32"},{"name":"account","type":"address","indexed":true,"internalType":"address"},{"name":"sender","type":"address","indexed":true,"internalType":"address"}],"anonymous":false},{"type":"event","name":"RoleRevoked","inputs":[{"name":"role","type":"bytes32","indexed":true,"internalType":"bytes32"},{"name":"account","type":"address","indexed":true,"internalType":"address"},{"name":"sender","type":"address","indexed":true,"internalType":"address"}],"anonymous":false},{"type":"event","name":"SetAdminFee","inputs":[{"name":"adminFee","type":"uint256","indexed":false,"internalType":"uint256"}],"anonymous":false},{"type":"error","name":"AccessControlBadConfirmation","inputs":[]},{"type":"error","name":"AccessControlUnauthorizedAccount","inputs":[{"name":"account","type":"address","internalType":"address"},{"name":"neededRole","type":"bytes32","internalType":"bytes32"}]},{"type":"error","name":"AddressEmptyCode","inputs":[{"name":"target","type":"address","internalType":"address"}]},{"type":"error","name":"AddressInsufficientBalance","inputs":[{"name":"account","type":"address","internalType":"address"}]},{"type":"error","name":"AlreadySet","inputs":[]},{"type":"error","name":"FailedInnerCall","inputs":[]},{"type":"error","name":"HighAdminFee","inputs":[]},{"type":"error","name":"InsufficientAdminFee","inputs":[]},{"type":"error","name":"InsufficientReward","inputs":[]},{"type":"error","name":"InvalidAdminFee","inputs":[]},{"type":"error","name":"InvalidHintsLength","inputs":[]},{"type":"error","name":"InvalidInitialization","inputs":[]},{"type":"error","name":"InvalidRecipient","inputs":[]},{"type":"error","name":"InvalidRewardTimestamp","inputs":[]},{"type":"error","name":"MathOverflowedMulDiv","inputs":[]},{"type":"error","name":"MissingRoles","inputs":[]},{"type":"error","name":"NoRewardsToClaim","inputs":[]},{"type":"error","name":"NotInitializing","inputs":[]},{"type":"error","name":"NotNetwork","inputs":[]},{"type":"error","name":"NotNetworkMiddleware","inputs":[]},{"type":"error","name":"NotVault","inputs":[]},{"type":"error","name":"ReentrancyGuardReentrantCall","inputs":[]},{"type":"error","name":"SafeCastOverflowedUintDowncast","inputs":[{"name":"bits","type":"uint8","internalType":"uint8"},{"name":"value","type":"uint256","internalType":"uint256"}]},{"type":"error","name":"SafeERC20FailedOperation","inputs":[{"name":"token","type":"address","internalType":"address"}]}],"bytecode":{"object":"0x60c03461011c5761212c906001600160401b0390601f38849003908101601f191682019083821183831017610120578083916040968794855283398101031261011c57610057602061005083610134565b9201610134565b917ff0c57e16840df040f15088dc2f81fe391c3923bec73e23a9662efc9c229c6a009081549060ff82871c1661010b5780808316036100c7575b50505060805260a05251611fe39081610149823960805181818161047a0152611539015260a051818181610f5101526110820152f35b6001600160401b0319909116811790915583519081527fc7f505b2f371ae2175ee4913f4499e1f2633a7b5936321eed1cdaeb6115181d290602090a15f8080610091565b855163f92ee8a960e01b8152600490fd5b5f80fd5b634e487b7160e01b5f52604160045260245ffd5b51906001600160a01b038216820361011c5756fe6080604081815260049182361015610015575f80fd5b5f3560e01c90816301ffc9a71461159d5750806304fe474814611568578063103f290714611525578063239723ed14610fb6578063248a9ca314610f805780632c9d45b314610f3d5780632f2ff15d14610f1557806336568abe14610ed15780633f3be07214610e70578063411557d114610e4957806354fd4d5014610e2e5780635d0b520514610b1957806363497dc714610aa657806376ee5656146109215780637d1b56e5146108115780638beb60b6146107725780639162aaa01461072957806391d14854146106d95780639df4021d146103cb578063a01fe38e14610391578063a0be06f914610373578063a217fddf14610359578063ac9650d8146101de578063c00460ea146101c2578063cb6ba75d146101885763d547741f1461013d575f80fd5b34610184578060031936011261018457610182913561017d600161015f611605565b93835f525f80516020611f6e8339815191526020525f200154611a53565b611cec565b005b5f80fd5b5034610184575f36600319011261018457602090517f723d93d9e2749ff76c3a02ca5d48d83735b6f451b126d0ba0683caa16e04c6fa8152f35b5034610184575f36600319011261018457602090516127108152f35b50903461018457602090816003193601126101845780359067ffffffffffffffff90818311610184573660238401121561018457820135908082116101845760246005913660248560051b870101116101845786939293519161024083611700565b5f8352868301946102508561181c565b963681900360421901915f5b8781106102bf578b8b8b825191808301818452825180915281858501958260051b8601019301915f955b8287106102935785850386f35b9091929382806102af600193603f198a820301865288516116dc565b9601920196019592919092610286565b8481831b840101358481121561018457830190858201359187831161018457604401918036038313610184575f808f948f6103298f9161033d968f9360019a519482869385850198893783019084820190898252519283915e018683820152038084520182611730565b5190305af4610336611e09565b9030611eea565b610347828d611865565b52610352818c611865565b500161025c565b5034610184575f36600319011261018457602090515f8152f35b5034610184575f366003190112610184576020906001549051908152f35b5034610184575f36600319011261018457602090517fa2e85c2f0b3a0317b9c4b4185c12b4e23dd961a7645fcbc9bb8efb8eb70e0d038152f35b5090346101845760a0366003190112610184577ff0c57e16840df040f15088dc2f81fe391c3923bec73e23a9662efc9c229c6a009081549060ff82851c16159167ffffffffffffffff8116801590816106d1575b60011490816106c7575b1590816106be575b506106af5767ffffffffffffffff198116600117845582610690575b506001600160a01b039061045f6118a5565b85516302910f8b60e31b8152908316828201526020816024817f000000000000000000000000000000000000000000000000000000000000000087165afa908115610686575f91610657575b501561064957816104ba6118bb565b16156105f2575b506104ca611ea9565b6104d2611ea9565b60015f80516020611f8e83398151915255806104ec6118a5565b166bffffffffffffffffffffffff60a01b5f5416175f557f108cccaed2dfffe466544dfa3900b2fa5e707bb00ded59de6a950479b923216f602061052e6118a5565b83875191168152a1610541602435611dbd565b8061054a6118bb565b166105dc575b806105596118d1565b166105c6575b6105676118e7565b166105b0575b61057357005b805468ff00000000000000001916905551600181527fc7f505b2f371ae2175ee4913f4499e1f2633a7b5936321eed1cdaeb6115181d290602090a1005b6105c06105bb6118e7565b611bd6565b5061056d565b6105d66105d16118d1565b611b29565b5061055f565b6105ec6105e76118bb565b611a9f565b50610550565b60243561064057816106026118d1565b1661062b57816106106118e7565b1661061d57505b5f6104c1565b845163183c854560e21b8152fd5b816106346118e7565b161561061d5750610617565b816106346118d1565b84516362df054560e01b8152fd5b610679915060203d60201161067f575b6106718183611730565b8101906118fd565b5f6104ab565b503d610667565b86513d5f823e3d90fd5b68ffffffffffffffffff1916680100000000000000011783555f61044d565b50835163f92ee8a960e01b8152fd5b9050155f610431565b303b159150610429565b84915061041f565b50346101845780600319360112610184576020916106f5611605565b90355f525f80516020611f6e8339815191528352815f209060018060a01b03165f52825260ff815f20541690519015158152f35b50346101845780600319360112610184576020906107456115ef565b61074d611605565b9060018060a01b038091165f5260028452825f2091165f528252805f20549051908152f35b5034610184576020366003190112610184578135907fa2e85c2f0b3a0317b9c4b4185c12b4e23dd961a7645fcbc9bb8efb8eb70e0d03805f525f80516020611f6e833981519152602052815f20335f5260205260ff825f205416156107f3575081600154146107e45761018282611dbd565b5163a741a04560e01b81529050fd5b905163e2517d3f60e01b815233818501526024810191909152604490fd5b50903461018457816003193601126101845761082b6115ef565b91610834611605565b61083c611915565b7f723d93d9e2749ff76c3a02ca5d48d83735b6f451b126d0ba0683caa16e04c6fa805f525f80516020611f6e833981519152602052825f20335f5260205260ff835f20541615610903575060018060a01b031692835f5282602052815f20549283156108f557916108dd847f6059a38198b1dc42b3791087d1ff0fbd72b3179553c25f678cd246f52ffaaf599593602095885f5286525f8481205587611d6b565b51908152a260015f80516020611f8e83398151915255005b82516319128aeb60e21b8152fd5b825163e2517d3f60e01b815233818601526024810191909152604490fd5b5034610184576109303661165d565b939291909483865f96810103126101845761094a8661161b565b906020809701359260018060a01b0380809416951694855f5260028952865f20815f528952865f20958483165f5260038a52875f20905f528952865f20905f528852855f20549361099c8587546117d6565b80821015610a9a575092949391905b5f955f5416945b8487106109c25789898951908152f35b909192939495976109d385836116af565b506001918965ffffffffffff84840154168d818c898b610a148751976109f889611700565b5f895251630b5cf1a760e21b8152978895869485948501611879565b03915afa918215610a9057908e869493925f93610a5d575b50906005610a499392610a4f969754925f52528d5f2054916119be565b906117f7565b9901969594019291906109b2565b925090935081813d8311610a89575b610a768183611730565b81010312610184575184928e6005610a2c565b503d610a6c565b8c513d5f823e3d90fd5b905092949391906109ab565b503461018457606036600319011261018457610ac06115ef565b610ac8611605565b6044359160018060a01b038091165f526002602052835f2091165f52602052815f2090815481101561018457610afd916116af565b5065ffffffffffff600182549201541682519182526020820152f35b503461018457610b283661165d565b610b36959395949194611915565b84019360608186031261018457610b4c8161161b565b60209081830135968484013567ffffffffffffffff94858211610184570181601f82011215610184578035610b8081611804565b95610b8d88519788611730565b818752858088019260051b8401019380851161018457868401925b858410610e095750505050505060018060a01b03809116948398828116918215610df957831697885f5260028552865f20885f528552865f209a8b9a335f5260038752885f208b5f528752885f208a5f528752610c0a895f2054809d546117d6565b80821015610df15750965b8715610de15751879080610dc55750610c2e915061181c565b9a90935b5f948b9c5f925f54165b898410610cf05750505050507facd14cc0b0a59979040123e9ce2601bfc1ec40c1360bcc405e1ca188f17b7fc696979899335f5260038552865f208a5f528552865f20895f528552865f20558280610cdf575b505084519182528282015286867f88744b3615a11586336358f196290c37189c924b0ce7f612d07789041af7cde4863394a482519687528601523394a460015f80516020611f8e83398151915255005b610ce9918a611d6b565b5f82610c8f565b909296610d00859f8094966116af565b506001918c610d238c8c8a610d3e65ffffffffffff89890154169485938d611865565b519551630b5cf1a760e21b8152958693849333908501611879565b0381895afa918215610dbb57908f8e879594935f94610d85575b50906005610a49949392610d75979854935f52525f2054916119be565b98019201939192909d939d610c3c565b9350809295508391503d8311610db4575b610da08183611730565b81010312610184575184928f8e6005610d58565b503d610d96565b8f513d5f823e3d90fd5b03610dd2579a9093610c32565b50865163fe8faedf60e01b8152fd5b88516373380d9960e01b81528390fd5b905096610c15565b8651634e46966960e11b81528990fd5b8335838111610184578891610e23848480948a010161176e565b815201930192610ba8565b5034610184575f366003190112610184576020905160028152f35b5034610184575f366003190112610184575f5490516001600160a01b039091168152602090f35b503461018457606036600319011261018457610e8a6115ef565b90610e93611605565b6044356001600160a01b0381811692918390036101845780602095165f5260038552835f2091165f528352815f20905f528252805f20549051908152f35b5034610184578060031936011261018457610eea611605565b90336001600160a01b03831603610f0657506101829135611cec565b5163334bd91960e11b81529050fd5b50346101845780600319360112610184576101829135610f38600161015f611605565b611c7c565b5034610184575f36600319011261018457517f00000000000000000000000000000000000000000000000000000000000000006001600160a01b03168152602090f35b503461018457602036600319011261018457602091355f525f80516020611f6e83398151915282526001815f2001549051908152f35b503461018457608036600319011261018457610fd06115ef565b610fd8611605565b9067ffffffffffffffff9060643582811161018457610ffa903690870161162f565b611005959195611915565b8501936080868603126101845785359265ffffffffffff8085169485810361018457602093858a01358881116101845789611041918c0161176e565b60608b0135898111610184578c9a61105a918d0161176e565b8751635daf681960e11b81526001600160a01b039687169b81018c90526024969490888189817f00000000000000000000000000000000000000000000000000000000000000008a165afa90811561151b575f916114e5575b5085339116036114d5578542116114b8578d8642168b10156114aa5788999a9b9c9d6001549a8b9101351061149c5790888b928d5f5260058252835f205415611377575b505050505050169885518a858286816370a0823160e01b9485825230888301525afa91821561132c575f92611348575b5087516323b872dd60e01b87820152338682015230604482015260443560648201526064815260a081018181108c821117611336579161116d88928f95948c5285611e38565b868a5180958193825230888301525afa801561132c575f906112fd575b61119492506117d6565b9485156112ee576111a86111af9187611944565b80966117d6565b978a5f52818552865f206111c48782546117f7565b905588611215575b8a8a7f52c39ebed294659631d22a2341c526a86ab683888dccb1429ac42c6e413d4b7b60608c8c8c8c8c8251948552840152820152a360015f80516020611f8e83398151915255005b8a5f5260028552865f208a5f528552865f209387519188830190838210908211176112db57885289825285820194898652805490680100000000000000008210156112c9579061126a916001820181556116af565b9390936112b957505051815591516001909201805465ffffffffffff191691909216179055817f52c39ebed294659631d22a2341c526a86ab683888dccb1429ac42c6e413d4b7b60605f6111cc565b5f90634e487b7160e01b8252525ffd5b82604186634e487b7160e01b5f52525ffd5b50634e487b7160e01b5f90815260418452fd5b508551636bbdb6db60e11b8152fd5b508582813d8311611325575b6113138183611730565b8101031261018457611194915161118a565b503d611309565b88513d5f823e3d90fd5b86604186634e487b7160e01b5f52525ffd5b9091508581813d8311611370575b6113608183611730565b810103126101845751905f611127565b503d611356565b8290611398895f541695519788938493630a1e440d60e31b855284016117b4565b0381855afa93841561149257918f9493918a935f9561145a575b506113d294958d519586948593849363810da75d60e01b855284016117b4565b03915afa908115611450575f91611423575b50811590811561141a575b5061140a57885f5260058652875f20555f808881888f6110f7565b8751636a4d842960e11b81528c90fd5b9050155f6113ef565b90508681813d8311611449575b61143a8183611730565b8101031261018457515f6113e4565b503d611430565b89513d5f823e3d90fd5b91955093509182813d811161148b575b6114748183611730565b81010312610184578e936113d2938a9351946113b2565b503d61146a565b8b513d5f823e3d90fd5b8a516318c8358160e21b8152fd5b8951636a4d842960e11b8152fd5b60448e8860308c51926306dfcc6560e41b84528301524290820152fd5b885163227bf64d60e01b81528e90fd5b90508881813d8311611514575b6114fc8183611730565b8101031261018457518581168103610184575f6110b3565b503d6114f2565b8a513d5f823e3d90fd5b5034610184575f36600319011261018457517f00000000000000000000000000000000000000000000000000000000000000006001600160a01b03168152602090f35b5034610184576020366003190112610184576020916001600160a01b0361158d6115ef565b165f528252805f20549051908152f35b833461018457602036600319011261018457359063ffffffff60e01b821680920361018457602091637965db0b60e01b81149081156115de575b5015158152f35b6301ffc9a760e01b149050836115d7565b600435906001600160a01b038216820361018457565b602435906001600160a01b038216820361018457565b35906001600160a01b038216820361018457565b9181601f840112156101845782359167ffffffffffffffff8311610184576020838186019501011161018457565b6060600319820112610184576001600160a01b039160043583811681036101845792602435908116810361018457916044359067ffffffffffffffff8211610184576116ab9160040161162f565b9091565b80548210156116c8575f5260205f209060011b01905f90565b634e487b7160e01b5f52603260045260245ffd5b805180835260209291819084018484015e5f828201840152601f01601f1916010190565b6020810190811067ffffffffffffffff82111761171c57604052565b634e487b7160e01b5f52604160045260245ffd5b90601f8019910116810190811067ffffffffffffffff82111761171c57604052565b67ffffffffffffffff811161171c57601f01601f191660200190565b81601f820112156101845780359061178582611752565b926117936040519485611730565b8284526020838301011161018457815f926020809301838601378301015290565b60409065ffffffffffff6117d3949316815281602082015201906116dc565b90565b919082039182116117e357565b634e487b7160e01b5f52601160045260245ffd5b919082018092116117e357565b67ffffffffffffffff811161171c5760051b60200190565b9061182682611804565b6118336040519182611730565b8281528092611844601f1991611804565b01905f5b82811061185457505050565b806060602080938501015201611848565b80518210156116c85760209160051b010190565b65ffffffffffff6117d3949360609360018060a01b0316835216602082015281604082015201906116dc565b6004356001600160a01b03811681036101845790565b6044356001600160a01b03811681036101845790565b6064356001600160a01b03811681036101845790565b6084356001600160a01b03811681036101845790565b90816020910312610184575180151581036101845790565b5f80516020611f8e83398151915260028154146119325760029055565b604051633ee5aeb560e01b8152600490fd5b90808202905f19818409908280831092039180830392146119b35761271090828211156119a1577fbc01a36e2eb1c432ca57a786c226809d495182a9930be0ded288ce703afb7e91940990828211900360fc1b910360041c170290565b60405163227bc15360e01b8152600490fd5b505061271091500490565b9091828202915f1984820993838086109503948086039514611a3157848311156119a157829109815f038216809204600280826003021880830282030280830282030280830282030280830282030280830282030280920290030293600183805f03040190848311900302920304170290565b505080925015611a3f570490565b634e487b7160e01b5f52601260045260245ffd5b805f525f80516020611f6e83398151915260205260405f20335f5260205260ff60405f20541615611a815750565b6044906040519063e2517d3f60e01b82523360048301526024820152fd5b6001600160a01b03165f8181527fb7db2dd08fcb62d0c9e08c51941cae53c267786a0b75803fb7960902fc8ef97d60205260409020545f80516020611f6e8339815191529060ff16611b23575f805260205260405f20815f5260205260405f20600160ff1982541617905533905f5f80516020611f4e8339815191528180a4600190565b50505f90565b6001600160a01b03165f8181527fe9574111c3d75c2a60e71ea1e3f5bad97bc853dcd8d24e02cb5480dfbf98e44860205260409020547f723d93d9e2749ff76c3a02ca5d48d83735b6f451b126d0ba0683caa16e04c6fa91905f80516020611f6e8339815191529060ff16611bcf57825f5260205260405f20815f5260205260405f20600160ff1982541617905533915f80516020611f4e8339815191525f80a4600190565b5050505f90565b6001600160a01b03165f8181527fd8487f5b11ecc8876444ee4ba0be76a299a89e56407bc0c4ef745e8722e35cb060205260409020547fa2e85c2f0b3a0317b9c4b4185c12b4e23dd961a7645fcbc9bb8efb8eb70e0d0391905f80516020611f6e8339815191529060ff16611bcf57825f5260205260405f20815f5260205260405f20600160ff1982541617905533915f80516020611f4e8339815191525f80a4600190565b90815f525f80516020611f6e8339815191528060205260405f209160018060a01b031691825f5260205260ff60405f205416155f14611bcf57825f5260205260405f20815f5260205260405f20600160ff1982541617905533915f80516020611f4e8339815191525f80a4600190565b90815f525f80516020611f6e8339815191528060205260405f209160018060a01b031691825f5260205260ff60405f2054165f14611bcf57825f5260205260405f20815f5260205260405f2060ff19815416905533917ff6391f5c32d9c69d2a47ea670b442974b53935d1edc7fd64eb21e047a839171b5f80a4600190565b60405163a9059cbb60e01b60208201526001600160a01b039092166024830152604480830193909352918152608081019167ffffffffffffffff83118284101761171c57611dbb92604052611e38565b565b6127108111611df7576020817f2f0d0ace1d699b471d7b39522b5c8aae053bce1b422b7a4fe8f09bd6562a4b7492600155604051908152a1565b604051630fb9dd3960e11b8152600490fd5b3d15611e33573d90611e1a82611752565b91611e286040519384611730565b82523d5f602084013e565b606090565b5f80611e609260018060a01b03169360208151910182865af1611e59611e09565b9083611eea565b8051908115159182611e8e575b5050611e765750565b60249060405190635274afe760e01b82526004820152fd5b611ea192506020809183010191016118fd565b155f80611e6d565b60ff7ff0c57e16840df040f15088dc2f81fe391c3923bec73e23a9662efc9c229c6a005460401c1615611ed857565b604051631afcd79f60e31b8152600490fd5b90611f115750805115611eff57805190602001fd5b604051630a12f52160e11b8152600490fd5b81511580611f44575b611f22575090565b604051639996b31560e01b81526001600160a01b039091166004820152602490fd5b50803b15611f1a56fe2f8788117e7eff1d82e926ec794901d17c78024a50270940304540a733656f0d02dd7bc7dec4dceedda775e58dd541e08a116c6c53815c0bd028192f7b6268009b779b17422d0df92223018b32b4d1fa46e071723d6817e2486d003becc55f00a2646970667358221220f80edad234d85aeaf6f280133eab5728fe7c22698c075c0fdc379bc8e8c6f03c64736f6c63430008190033","linkReferences":{}},"methodIdentifiers":{"ADMIN_FEE_BASE()":"c00460ea","ADMIN_FEE_CLAIM_ROLE()":"cb6ba75d","ADMIN_FEE_SET_ROLE()":"a01fe38e","DEFAULT_ADMIN_ROLE()":"a217fddf","NETWORK_MIDDLEWARE_SERVICE()":"2c9d45b3","VAULT()":"411557d1","VAULT_FACTORY()":"103f2907","adminFee()":"a0be06f9","claimAdminFee(address,address)":"7d1b56e5","claimRewards(address,address,bytes)":"5d0b5205","claimable(address,address,bytes)":"76ee5656","claimableAdminFee(address)":"04fe4748","distributeRewards(address,address,uint256,bytes)":"239723ed","getRoleAdmin(bytes32)":"248a9ca3","grantRole(bytes32,address)":"2f2ff15d","hasRole(bytes32,address)":"91d14854","initialize((address,uint256,address,address,address))":"9df4021d","lastUnclaimedReward(address,address,address)":"3f3be072","multicall(bytes[])":"ac9650d8","renounceRole(bytes32,address)":"36568abe","revokeRole(bytes32,address)":"d547741f","rewards(address,address,uint256)":"63497dc7","rewardsLength(address,address)":"9162aaa0","setAdminFee(uint256)":"8beb60b6","supportsInterface(bytes4)":"01ffc9a7","version()":"54fd4d50"},"id":132}