{"abi":[{"type":"constructor","inputs":[{"name":"networkMiddlewareService","type":"address","internalType":"address"}],"stateMutability":"nonpayable"},{"type":"function","name":"NETWORK_MIDDLEWARE_SERVICE","inputs":[],"outputs":[{"name":"","type":"address","internalType":"address"}],"stateMutability":"view"},{"type":"function","name":"balance","inputs":[{"name":"network","type":"address","internalType":"address"},{"name":"token","type":"address","internalType":"address"}],"outputs":[{"name":"amount","type":"uint256","internalType":"uint256"}],"stateMutability":"view"},{"type":"function","name":"claimRewards","inputs":[{"name":"recipient","type":"address","internalType":"address"},{"name":"network","type":"address","internalType":"address"},{"name":"token","type":"address","internalType":"address"},{"name":"totalClaimable","type":"uint256","internalType":"uint256"},{"name":"proof","type":"bytes32[]","internalType":"bytes32[]"}],"outputs":[{"name":"amount","type":"uint256","internalType":"uint256"}],"stateMutability":"nonpayable"},{"type":"function","name":"claimed","inputs":[{"name":"network","type":"address","internalType":"address"},{"name":"token","type":"address","internalType":"address"},{"name":"account","type":"address","internalType":"address"}],"outputs":[{"name":"amount","type":"uint256","internalType":"uint256"}],"stateMutability":"view"},{"type":"function","name":"distributeRewards","inputs":[{"name":"network","type":"address","internalType":"address"},{"name":"token","type":"address","internalType":"address"},{"name":"amount","type":"uint256","internalType":"uint256"},{"name":"root_","type":"bytes32","internalType":"bytes32"}],"outputs":[],"stateMutability":"nonpayable"},{"type":"function","name":"root","inputs":[{"name":"network","type":"address","internalType":"address"},{"name":"token","type":"address","internalType":"address"}],"outputs":[{"name":"value","type":"bytes32","internalType":"bytes32"}],"stateMutability":"view"},{"type":"event","name":"ClaimRewards","inputs":[{"name":"recipient","type":"address","indexed":false,"internalType":"address"},{"name":"network","type":"address","indexed":true,"internalType":"address"},{"name":"token","type":"address","indexed":true,"internalType":"address"},{"name":"claimer","type":"address","indexed":true,"internalType":"address"},{"name":"amount","type":"uint256","indexed":false,"internalType":"uint256"}],"anonymous":false},{"type":"event","name":"DistributeRewards","inputs":[{"name":"network","type":"address","indexed":true,"internalType":"address"},{"name":"token","type":"address","indexed":true,"internalType":"address"},{"name":"amount","type":"uint256","indexed":false,"internalType":"uint256"},{"name":"root","type":"bytes32","indexed":false,"internalType":"bytes32"}],"anonymous":false},{"type":"error","name":"InsufficientBalance","inputs":[]},{"type":"error","name":"InsufficientTotalClaimable","inputs":[]},{"type":"error","name":"InsufficientTransfer","inputs":[]},{"type":"error","name":"InvalidProof","inputs":[]},{"type":"error","name":"NotNetworkMiddleware","inputs":[]},{"type":"error","name":"ReentrancyGuardReentrantCall","inputs":[]},{"type":"error","name":"RootNotSet","inputs":[]},{"type":"error","name":"SafeERC20FailedOperation","inputs":[{"name":"token","type":"address","internalType":"address"}]}],"bytecode":{"object":"0x60a034609157601f61096938819003918201601f19168301916001600160401b03831184841017609557808492602094604052833981010312609157516001600160a01b038116810360915760017f9b779b17422d0df92223018b32b4d1fa46e071723d6817e2486d003becc55f00556080526040516108bf90816100aa823960805181818161015d015261071a0152f35b5f80fd5b634e487b7160e01b5f52604160045260245ffdfe60806040526004361015610011575f80fd5b5f3560e01c80631a5289a9146107495780632c9d45b314610705578063315447db1461042357806348a78da7146100fd578063aadf2afe146100af5763b203bb991461005b575f80fd5b346100ab5760403660031901126100ab576100746107ac565b61007c6107c2565b6001600160a01b039182165f908152600160209081526040808320949093168252928352819020549051908152f35b5f80fd5b346100ab5760403660031901126100ab576100c86107ac565b6100d06107c2565b6001600160a01b039182165f90815260208181526040808320949093168252928352819020549051908152f35b346100ab5760803660031901126100ab576101166107ac565b61011e6107c2565b906044359160643561012e610831565b604051635daf681960e11b81526001600160a01b039384166004820181905293859190602090829060249082907f0000000000000000000000000000000000000000000000000000000000000000165afa908115610363575f916103e1575b50336001600160a01b03909116036103d2578061020f575b507f127e3b1db6c7a82e6a23205f7391ec1ebdef05836c0bbb2bdef8f60ba792022791604091845f525f602052825f2060018060a01b0383165f5260205280835f20558251958652602086015260018060a01b031693a360015f51602061086a5f395f51905f5255005b6040516370a0823160e01b81523060048201526001600160a01b0384169550919291602081602481895afa908115610363575f916103a0575b50604051916323b872dd60e01b5f52336004523060245260445260205f606481808a5af160015f5114811615610381575b826040525f6060521561036e576370a0823160e01b8252306004830152602082602481895afa8015610363575f9061032f575b6102b69250610824565b93841561032057835f52600160205260405f20905f5260205260405f209081549285840180941161030c5792909155907f127e3b1db6c7a82e6a23205f7391ec1ebdef05836c0bbb2bdef8f60ba79202276101a5565b634e487b7160e01b5f52601160045260245ffd5b63fa942acb60e01b5f5260045ffd5b506020823d60201161035b575b81610349602093836107ee565b810103126100ab576102b691516102ac565b3d915061033c565b6040513d5f823e3d90fd5b85635274afe760e01b5f5260045260245ffd5b600181151661039757863b15153d151616610279565b823d5f823e3d90fd5b90506020813d6020116103ca575b816103bb602093836107ee565b810103126100ab575186610248565b3d91506103ae565b63227bf64d60e01b5f5260045ffd5b90506020813d60201161041b575b816103fc602093836107ee565b810103126100ab57516001600160a01b03811681036100ab578661018d565b3d91506103ef565b346100ab5760a03660031901126100ab5761043c6107ac565b6104446107c2565b61044c6107d8565b6084359260643567ffffffffffffffff85116100ab57366023860112156100ab5784600401359367ffffffffffffffff85116100ab573660248660051b880101116100ab57610499610831565b60018060a01b031691825f525f60205260405f2060018060a01b0385165f5260205260405f20549384156106f6576040805133602082019081528183018690529181526104e76060826107ee565b51902060405160208101918252602081526105036040826107ee565b519020945f955b8787101561054b5760248760051b8a010135908181105f1461053a575f52602052600160405f205b96019561050a565b905f52602052600160405f20610532565b036106e7575f8481526002602090815260408083206001600160a01b03851684528252808320338452909152902054808411156106d85761058c9084610824565b92845f52600160205260405f2060018060a01b0383165f5260205260405f20548085116106c957846105bd91610824565b5f8681526001602090815260408083206001600160a01b0396871680855290835281842094909455888352600282528083208484528252808320338452825280832094909455925163a9059cbb60e01b825293851660045260248690529295909290919060448180865af160015f51148116156106aa575b8560405215610697576001600160a01b039290921684526020808501849052933392907f28047ce71e7b959f6fc3946a1bdc43b003cd0b685630fe93725eb9eafee2582690604090a460015f51602061086a5f395f51905f5255604051908152f35b50635274afe760e01b5f5260045260245ffd5b60018115166106c057823b15153d151616610635565b853d5f823e3d90fd5b631e9acf1760e31b5f5260045ffd5b631d2d8d9760e31b5f5260045ffd5b6309bde33960e01b5f5260045ffd5b631c8b625960e01b5f5260045ffd5b346100ab575f3660031901126100ab576040517f00000000000000000000000000000000000000000000000000000000000000006001600160a01b03168152602090f35b346100ab5760603660031901126100ab576107626107ac565b61076a6107c2565b6107726107d8565b6001600160a01b039283165f9081526002602090815260408083209486168352938152838220929094168152908352819020549051908152f35b600435906001600160a01b03821682036100ab57565b602435906001600160a01b03821682036100ab57565b604435906001600160a01b03821682036100ab57565b90601f8019910116810190811067ffffffffffffffff82111761081057604052565b634e487b7160e01b5f52604160045260245ffd5b9190820391821161030c57565b60025f51602061086a5f395f51905f52541461085a5760025f51602061086a5f395f51905f5255565b633ee5aeb560e01b5f5260045ffdfe9b779b17422d0df92223018b32b4d1fa46e071723d6817e2486d003becc55f00a2646970667358221220bf13b36e0a1200a690c63b6635ada1961dbfbb8a3c540e40edbe2f42ce170a6064736f6c63430008230033","linkReferences":{}},"methodIdentifiers":{"NETWORK_MIDDLEWARE_SERVICE()":"2c9d45b3","balance(address,address)":"b203bb99","claimRewards(address,address,address,uint256,bytes32[])":"315447db","claimed(address,address,address)":"1a5289a9","distributeRewards(address,address,uint256,bytes32)":"48a78da7","root(address,address)":"aadf2afe"},"id":152}