{"abi":[{"type":"constructor","inputs":[{"name":"networkMiddlewareService","type":"address","internalType":"address"}],"stateMutability":"nonpayable"},{"type":"function","name":"NETWORK_MIDDLEWARE_SERVICE","inputs":[],"outputs":[{"name":"","type":"address","internalType":"address"}],"stateMutability":"view"},{"type":"function","name":"balance","inputs":[{"name":"network","type":"address","internalType":"address"},{"name":"token","type":"address","internalType":"address"}],"outputs":[{"name":"amount","type":"uint256","internalType":"uint256"}],"stateMutability":"view"},{"type":"function","name":"claimRewards","inputs":[{"name":"recipient","type":"address","internalType":"address"},{"name":"network","type":"address","internalType":"address"},{"name":"token","type":"address","internalType":"address"},{"name":"totalClaimable","type":"uint256","internalType":"uint256"},{"name":"proof","type":"bytes32[]","internalType":"bytes32[]"}],"outputs":[{"name":"amount","type":"uint256","internalType":"uint256"}],"stateMutability":"nonpayable"},{"type":"function","name":"claimed","inputs":[{"name":"network","type":"address","internalType":"address"},{"name":"token","type":"address","internalType":"address"},{"name":"account","type":"address","internalType":"address"}],"outputs":[{"name":"amount","type":"uint256","internalType":"uint256"}],"stateMutability":"view"},{"type":"function","name":"distributeRewards","inputs":[{"name":"network","type":"address","internalType":"address"},{"name":"token","type":"address","internalType":"address"},{"name":"amount","type":"uint256","internalType":"uint256"},{"name":"root_","type":"bytes32","internalType":"bytes32"}],"outputs":[],"stateMutability":"nonpayable"},{"type":"function","name":"initialize","inputs":[],"outputs":[],"stateMutability":"nonpayable"},{"type":"function","name":"root","inputs":[{"name":"network","type":"address","internalType":"address"},{"name":"token","type":"address","internalType":"address"}],"outputs":[{"name":"value","type":"bytes32","internalType":"bytes32"}],"stateMutability":"view"},{"type":"event","name":"ClaimRewards","inputs":[{"name":"recipient","type":"address","indexed":false,"internalType":"address"},{"name":"network","type":"address","indexed":true,"internalType":"address"},{"name":"token","type":"address","indexed":true,"internalType":"address"},{"name":"claimer","type":"address","indexed":true,"internalType":"address"},{"name":"amount","type":"uint256","indexed":false,"internalType":"uint256"}],"anonymous":false},{"type":"event","name":"DistributeRewards","inputs":[{"name":"network","type":"address","indexed":true,"internalType":"address"},{"name":"token","type":"address","indexed":true,"internalType":"address"},{"name":"amount","type":"uint256","indexed":false,"internalType":"uint256"},{"name":"root","type":"bytes32","indexed":false,"internalType":"bytes32"}],"anonymous":false},{"type":"event","name":"Initialized","inputs":[{"name":"version","type":"uint64","indexed":false,"internalType":"uint64"}],"anonymous":false},{"type":"error","name":"AddressEmptyCode","inputs":[{"name":"target","type":"address","internalType":"address"}]},{"type":"error","name":"AddressInsufficientBalance","inputs":[{"name":"account","type":"address","internalType":"address"}]},{"type":"error","name":"FailedInnerCall","inputs":[]},{"type":"error","name":"InsufficientBalance","inputs":[]},{"type":"error","name":"InsufficientTotalClaimable","inputs":[]},{"type":"error","name":"InsufficientTransfer","inputs":[]},{"type":"error","name":"InvalidInitialization","inputs":[]},{"type":"error","name":"InvalidProof","inputs":[]},{"type":"error","name":"NotInitializing","inputs":[]},{"type":"error","name":"NotNetworkMiddleware","inputs":[]},{"type":"error","name":"ReentrancyGuardReentrantCall","inputs":[]},{"type":"error","name":"RootNotSet","inputs":[]},{"type":"error","name":"SafeERC20FailedOperation","inputs":[{"name":"token","type":"address","internalType":"address"}]}],"bytecode":{"object":"0x60a034610106576001600160401b0390601f610bf238819003918201601f19168301918483118484101761010a578084926020946040528339810103126101065751906001600160a01b0382168203610106577ff0c57e16840df040f15088dc2f81fe391c3923bec73e23a9662efc9c229c6a009081549060ff8260401c166100f45780808316036100af575b83608052604051610ad3908161011f823960805181818161029101526107cd0152f35b6001600160401b031990911681179091556040519081527fc7f505b2f371ae2175ee4913f4499e1f2633a7b5936321eed1cdaeb6115181d290602090a15f808061008c565b60405163f92ee8a960e01b8152600490fd5b5f80fd5b634e487b7160e01b5f52604160045260245ffdfe6080604090808252600480361015610015575f80fd5b5f3560e01c9182631a5289a9146107fc575081632c9d45b3146107b9578163315447db1461050557816348a78da71461022f5781638129fc1c1461010157508063aadf2afe146100b95763b203bb991461006d575f80fd5b346100b557806003193601126100b557602090610088610858565b61009061086e565b9060018060a01b038091165f5260018452825f2091165f528252805f20549051908152f35b5f80fd5b50346100b557806003193601126100b5576020906100d5610858565b6100dd61086e565b9060018060a01b038091165f525f8452825f2091165f528252805f20549051908152f35b9050346100b5575f3660031901126100b5577ff0c57e16840df040f15088dc2f81fe391c3923bec73e23a9662efc9c229c6a0090815460ff81851c16159167ffffffffffffffff821680159081610227575b600114908161021d575b159081610214575b50610206575067ffffffffffffffff1981166001178355816101e7575b5061018b6109d9565b6101936109d9565b60015f80516020610a7e833981519152556101aa57005b805468ff00000000000000001916905551600181527fc7f505b2f371ae2175ee4913f4499e1f2633a7b5936321eed1cdaeb6115181d290602090a1005b68ffffffffffffffffff1916680100000000000000011782555f610182565b845163f92ee8a960e01b8152fd5b9050155f610165565b303b15915061015d565b849150610153565b82346100b55760803660031901126100b557610249610858565b9161025261086e565b91604435916064356102626108f1565b8251635daf681960e11b81526001600160a01b0396871681840181905260249790959360209285919084818c817f000000000000000000000000000000000000000000000000000000000000000088165afa90811561046c575f916104cf575b5083339116036104c1578161032b575b5050857f127e3b1db6c7a82e6a23205f7391ec1ebdef05836c0bbb2bdef8f60ba7920227969798505f525f8252845f20971696875f52815281845f20558351928352820152a360015f80516020610a7e83398151915255005b86516370a0823160e01b80825230828401528a85169750919285828d818b5afa9182156104b7575f92610488575b508851906323b872dd60e01b87830152338d83015230604483015260648201526064815260a0810181811067ffffffffffffffff8211176104765789526103a09088610920565b8751918252308383015284828c818a5afa801561046c575f9061043d575b6103c892506108d0565b94851561042e57875f5260018452865f20905f528352855f2080549186830180931161041c57505595965086957f127e3b1db6c7a82e6a23205f7391ec1ebdef05836c0bbb2bdef8f60ba7920227896102d2565b60118b91634e487b7160e01b5f52525ffd5b50855163fa942acb60e01b8152fd5b508482813d8311610465575b610453818361089a565b810103126100b5576103c891516103be565b503d610449565b88513d5f823e3d90fd5b8c604186634e487b7160e01b5f52525ffd5b9091508581813d83116104b0575b6104a0818361089a565b810103126100b55751908c610359565b503d610496565b89513d5f823e3d90fd5b865163227bf64d60e01b8152fd5b90508481813d83116104fe575b6104e6818361089a565b810103126100b5575183811681036100b5578b6102c2565b503d6104dc565b9050346100b55760a03660031901126100b557610520610858565b9161052961086e565b92610532610884565b60843567ffffffffffffffff6064358183116100b557366023840112156100b55782870135928284116100b5576024936005903660248260051b850101116100b55761057c6108f1565b60018060a01b03809b1695865f5260209b5f8d528a5f20981697885f528c52895f20549384156107a9578a51338e8201908152602081018890529097908e90896040820103996105d4601f199b8c810183528261089a565b5190208d5182810191825291825291818e0190811182821017610796578d52519020935f939291908e5b84861061075b575050505050500361074b57825f5260028852855f20845f528852855f20335f528852855f20548082111561073b5761063d90826108d0565b96835f5260018952865f20855f528952865f20549081891161072d575090610669886106d794936108d0565b5f85815260018b528881208782528b528881209190915584815260028a528781208682528a528781203382528a5287902055855163a9059cbb60e01b818a01526001600160a01b03861660248201526044810188905260649182018152906106d1908261089a565b83610920565b83516001600160a01b039390931683526020830185905233927f28047ce71e7b959f6fc3946a1bdc43b003cd0b685630fe93725eb9eafee2582690604090a460015f80516020610a7e8339815191525551908152f35b8751631e9acf1760e31b8152fd5b8651631d2d8d9760e31b81528890fd5b85516309bde33960e01b81528790fd5b8386839495969798931b85010135918281105f14610788575f525260018c5f205b9501939291908e6105fe565b915f525260018c5f2061077c565b60418f634e487b7160e01b5f525260245ffd5b8a51631c8b625960e01b81528c90fd5b82346100b5575f3660031901126100b557517f00000000000000000000000000000000000000000000000000000000000000006001600160a01b03168152602090f35b8390346100b55760603660031901126100b55760209161081a610858565b61082261086e565b9061082b610884565b6001600160a01b039182165f90815260028752848120938316815292865283832091168252845220548152f35b600435906001600160a01b03821682036100b557565b602435906001600160a01b03821682036100b557565b604435906001600160a01b03821682036100b557565b90601f8019910116810190811067ffffffffffffffff8211176108bc57604052565b634e487b7160e01b5f52604160045260245ffd5b919082039182116108dd57565b634e487b7160e01b5f52601160045260245ffd5b5f80516020610a7e833981519152600281541461090e5760029055565b604051633ee5aeb560e01b8152600490fd5b81516001600160a01b03909116915f91829160200182855af13d156109cd573d67ffffffffffffffff81116108bc5761097b916040519161096b6020601f19601f840116018461089a565b82523d5f602084013e5b83610a1a565b80519081151591826109a9575b50506109915750565b60249060405190635274afe760e01b82526004820152fd5b81925090602091810103126100b557602001518015908115036100b5575f80610988565b61097b90606090610975565b60ff7ff0c57e16840df040f15088dc2f81fe391c3923bec73e23a9662efc9c229c6a005460401c1615610a0857565b604051631afcd79f60e31b8152600490fd5b90610a415750805115610a2f57805190602001fd5b604051630a12f52160e11b8152600490fd5b81511580610a74575b610a52575090565b604051639996b31560e01b81526001600160a01b039091166004820152602490fd5b50803b15610a4a56fe9b779b17422d0df92223018b32b4d1fa46e071723d6817e2486d003becc55f00a26469706673582212201d72053c0f855cbb88e42d0436b634d40e300b25fb9ebcfc3cc7439a7424dc8664736f6c63430008190033","linkReferences":{}},"methodIdentifiers":{"NETWORK_MIDDLEWARE_SERVICE()":"2c9d45b3","balance(address,address)":"b203bb99","claimRewards(address,address,address,uint256,bytes32[])":"315447db","claimed(address,address,address)":"1a5289a9","distributeRewards(address,address,uint256,bytes32)":"48a78da7","initialize()":"8129fc1c","root(address,address)":"aadf2afe"},"id":139}