{"abi":[{"type":"constructor","inputs":[{"name":"vaultFactory","type":"address","internalType":"address"},{"name":"networkMiddlewareService","type":"address","internalType":"address"}],"stateMutability":"nonpayable"},{"type":"function","name":"ADMIN_FEE_BASE","inputs":[],"outputs":[{"name":"","type":"uint256","internalType":"uint256"}],"stateMutability":"view"},{"type":"function","name":"ADMIN_FEE_CLAIM_ROLE","inputs":[],"outputs":[{"name":"","type":"bytes32","internalType":"bytes32"}],"stateMutability":"view"},{"type":"function","name":"ADMIN_FEE_SET_ROLE","inputs":[],"outputs":[{"name":"","type":"bytes32","internalType":"bytes32"}],"stateMutability":"view"},{"type":"function","name":"DEFAULT_ADMIN_ROLE","inputs":[],"outputs":[{"name":"","type":"bytes32","internalType":"bytes32"}],"stateMutability":"view"},{"type":"function","name":"NETWORK_MIDDLEWARE_SERVICE","inputs":[],"outputs":[{"name":"","type":"address","internalType":"address"}],"stateMutability":"view"},{"type":"function","name":"VAULT","inputs":[],"outputs":[{"name":"","type":"address","internalType":"address"}],"stateMutability":"view"},{"type":"function","name":"VAULT_FACTORY","inputs":[],"outputs":[{"name":"","type":"address","internalType":"address"}],"stateMutability":"view"},{"type":"function","name":"adminFee","inputs":[],"outputs":[{"name":"","type":"uint256","internalType":"uint256"}],"stateMutability":"view"},{"type":"function","name":"claimAdminFee","inputs":[{"name":"recipient","type":"address","internalType":"address"},{"name":"token","type":"address","internalType":"address"}],"outputs":[],"stateMutability":"nonpayable"},{"type":"function","name":"claimRewards","inputs":[{"name":"recipient","type":"address","internalType":"address"},{"name":"token","type":"address","internalType":"address"},{"name":"data","type":"bytes","internalType":"bytes"}],"outputs":[],"stateMutability":"nonpayable"},{"type":"function","name":"claimable","inputs":[{"name":"token","type":"address","internalType":"address"},{"name":"account","type":"address","internalType":"address"},{"name":"data","type":"bytes","internalType":"bytes"}],"outputs":[{"name":"amount","type":"uint256","internalType":"uint256"}],"stateMutability":"view"},{"type":"function","name":"claimableAdminFee","inputs":[{"name":"token","type":"address","internalType":"address"}],"outputs":[{"name":"amount","type":"uint256","internalType":"uint256"}],"stateMutability":"view"},{"type":"function","name":"distributeRewards","inputs":[{"name":"network","type":"address","internalType":"address"},{"name":"token","type":"address","internalType":"address"},{"name":"amount","type":"uint256","internalType":"uint256"},{"name":"data","type":"bytes","internalType":"bytes"}],"outputs":[],"stateMutability":"nonpayable"},{"type":"function","name":"getRoleAdmin","inputs":[{"name":"role","type":"bytes32","internalType":"bytes32"}],"outputs":[{"name":"","type":"bytes32","internalType":"bytes32"}],"stateMutability":"view"},{"type":"function","name":"grantRole","inputs":[{"name":"role","type":"bytes32","internalType":"bytes32"},{"name":"account","type":"address","internalType":"address"}],"outputs":[],"stateMutability":"nonpayable"},{"type":"function","name":"hasRole","inputs":[{"name":"role","type":"bytes32","internalType":"bytes32"},{"name":"account","type":"address","internalType":"address"}],"outputs":[{"name":"","type":"bool","internalType":"bool"}],"stateMutability":"view"},{"type":"function","name":"initialize","inputs":[{"name":"params","type":"tuple","internalType":"struct IDefaultStakerRewards.InitParams","components":[{"name":"vault","type":"address","internalType":"address"},{"name":"adminFee","type":"uint256","internalType":"uint256"},{"name":"defaultAdminRoleHolder","type":"address","internalType":"address"},{"name":"adminFeeClaimRoleHolder","type":"address","internalType":"address"},{"name":"adminFeeSetRoleHolder","type":"address","internalType":"address"}]}],"outputs":[],"stateMutability":"nonpayable"},{"type":"function","name":"lastUnclaimedReward","inputs":[{"name":"account","type":"address","internalType":"address"},{"name":"token","type":"address","internalType":"address"},{"name":"network","type":"address","internalType":"address"}],"outputs":[{"name":"rewardIndex","type":"uint256","internalType":"uint256"}],"stateMutability":"view"},{"type":"function","name":"multicall","inputs":[{"name":"data","type":"bytes[]","internalType":"bytes[]"}],"outputs":[{"name":"results","type":"bytes[]","internalType":"bytes[]"}],"stateMutability":"nonpayable"},{"type":"function","name":"renounceRole","inputs":[{"name":"role","type":"bytes32","internalType":"bytes32"},{"name":"callerConfirmation","type":"address","internalType":"address"}],"outputs":[],"stateMutability":"nonpayable"},{"type":"function","name":"revokeRole","inputs":[{"name":"role","type":"bytes32","internalType":"bytes32"},{"name":"account","type":"address","internalType":"address"}],"outputs":[],"stateMutability":"nonpayable"},{"type":"function","name":"rewards","inputs":[{"name":"token","type":"address","internalType":"address"},{"name":"network","type":"address","internalType":"address"},{"name":"","type":"uint256","internalType":"uint256"}],"outputs":[{"name":"amount","type":"uint256","internalType":"uint256"},{"name":"timestamp","type":"uint48","internalType":"uint48"}],"stateMutability":"view"},{"type":"function","name":"rewardsLength","inputs":[{"name":"token","type":"address","internalType":"address"},{"name":"network","type":"address","internalType":"address"}],"outputs":[{"name":"","type":"uint256","internalType":"uint256"}],"stateMutability":"view"},{"type":"function","name":"setAdminFee","inputs":[{"name":"adminFee_","type":"uint256","internalType":"uint256"}],"outputs":[],"stateMutability":"nonpayable"},{"type":"function","name":"supportsInterface","inputs":[{"name":"interfaceId","type":"bytes4","internalType":"bytes4"}],"outputs":[{"name":"","type":"bool","internalType":"bool"}],"stateMutability":"view"},{"type":"function","name":"version","inputs":[],"outputs":[{"name":"","type":"uint64","internalType":"uint64"}],"stateMutability":"view"},{"type":"event","name":"ClaimAdminFee","inputs":[{"name":"recipient","type":"address","indexed":true,"internalType":"address"},{"name":"amount","type":"uint256","indexed":false,"internalType":"uint256"}],"anonymous":false},{"type":"event","name":"ClaimRewards","inputs":[{"name":"network","type":"address","indexed":true,"internalType":"address"},{"name":"token","type":"address","indexed":true,"internalType":"address"},{"name":"claimer","type":"address","indexed":true,"internalType":"address"},{"name":"amount","type":"uint256","indexed":false,"internalType":"uint256"},{"name":"recipient","type":"address","indexed":false,"internalType":"address"}],"anonymous":false},{"type":"event","name":"ClaimRewardsExtra","inputs":[{"name":"network","type":"address","indexed":true,"internalType":"address"},{"name":"token","type":"address","indexed":true,"internalType":"address"},{"name":"claimer","type":"address","indexed":true,"internalType":"address"},{"name":"firstClaimedRewardIndex","type":"uint256","indexed":false,"internalType":"uint256"},{"name":"rewardsClaimed","type":"uint256","indexed":false,"internalType":"uint256"}],"anonymous":false},{"type":"event","name":"DistributeRewards","inputs":[{"name":"network","type":"address","indexed":true,"internalType":"address"},{"name":"token","type":"address","indexed":true,"internalType":"address"},{"name":"distributeAmount","type":"uint256","indexed":false,"internalType":"uint256"},{"name":"adminFeeAmount","type":"uint256","indexed":false,"internalType":"uint256"},{"name":"timestamp","type":"uint48","indexed":false,"internalType":"uint48"}],"anonymous":false},{"type":"event","name":"InitVault","inputs":[{"name":"vault","type":"address","indexed":false,"internalType":"address"}],"anonymous":false},{"type":"event","name":"Initialized","inputs":[{"name":"version","type":"uint64","indexed":false,"internalType":"uint64"}],"anonymous":false},{"type":"event","name":"RoleAdminChanged","inputs":[{"name":"role","type":"bytes32","indexed":true,"internalType":"bytes32"},{"name":"previousAdminRole","type":"bytes32","indexed":true,"internalType":"bytes32"},{"name":"newAdminRole","type":"bytes32","indexed":true,"internalType":"bytes32"}],"anonymous":false},{"type":"event","name":"RoleGranted","inputs":[{"name":"role","type":"bytes32","indexed":true,"internalType":"bytes32"},{"name":"account","type":"address","indexed":true,"internalType":"address"},{"name":"sender","type":"address","indexed":true,"internalType":"address"}],"anonymous":false},{"type":"event","name":"RoleRevoked","inputs":[{"name":"role","type":"bytes32","indexed":true,"internalType":"bytes32"},{"name":"account","type":"address","indexed":true,"internalType":"address"},{"name":"sender","type":"address","indexed":true,"internalType":"address"}],"anonymous":false},{"type":"event","name":"SetAdminFee","inputs":[{"name":"adminFee","type":"uint256","indexed":false,"internalType":"uint256"}],"anonymous":false},{"type":"error","name":"AccessControlBadConfirmation","inputs":[]},{"type":"error","name":"AccessControlUnauthorizedAccount","inputs":[{"name":"account","type":"address","internalType":"address"},{"name":"neededRole","type":"bytes32","internalType":"bytes32"}]},{"type":"error","name":"AddressEmptyCode","inputs":[{"name":"target","type":"address","internalType":"address"}]},{"type":"error","name":"AlreadySet","inputs":[]},{"type":"error","name":"FailedCall","inputs":[]},{"type":"error","name":"HighAdminFee","inputs":[]},{"type":"error","name":"InsufficientAdminFee","inputs":[]},{"type":"error","name":"InsufficientReward","inputs":[]},{"type":"error","name":"InvalidAdminFee","inputs":[]},{"type":"error","name":"InvalidHintsLength","inputs":[]},{"type":"error","name":"InvalidInitialization","inputs":[]},{"type":"error","name":"InvalidRecipient","inputs":[]},{"type":"error","name":"InvalidRewardTimestamp","inputs":[]},{"type":"error","name":"MissingRoles","inputs":[]},{"type":"error","name":"NoRewardsToClaim","inputs":[]},{"type":"error","name":"NotInitializing","inputs":[]},{"type":"error","name":"NotNetwork","inputs":[]},{"type":"error","name":"NotNetworkMiddleware","inputs":[]},{"type":"error","name":"NotVault","inputs":[]},{"type":"error","name":"ReentrancyGuardReentrantCall","inputs":[]},{"type":"error","name":"SafeCastOverflowedUintDowncast","inputs":[{"name":"bits","type":"uint8","internalType":"uint8"},{"name":"value","type":"uint256","internalType":"uint256"}]},{"type":"error","name":"SafeERC20FailedOperation","inputs":[{"name":"token","type":"address","internalType":"address"}]}],"bytecode":{"object":"0x60c03461014557601f61228c38819003918201601f19168301916001600160401b0383118484101761014957808492604094855283398101031261014557610052602061004b8361015d565b920161015d565b9060017f9b779b17422d0df92223018b32b4d1fa46e071723d6817e2486d003becc55f00555f51602061226c5f395f51905f525460ff8160401c16610136576002600160401b03196001600160401b038216016100e0575b5060805260a0526040516120fa9081610172823960805181818161047f0152611672015260a051818181611042015261118a0152f35b6001600160401b0319166001600160401b039081175f51602061226c5f395f51905f52556040519081527fc7f505b2f371ae2175ee4913f4499e1f2633a7b5936321eed1cdaeb6115181d290602090a15f6100aa565b63f92ee8a960e01b5f5260045ffd5b5f80fd5b634e487b7160e01b5f52604160045260245ffd5b51906001600160a01b03821682036101455756fe6080806040526004361015610012575f80fd5b5f3560e01c90816301ffc9a7146116d95750806304fe4748146116a1578063103f29071461165d578063239723ed146110b0578063248a9ca3146110715780632c9d45b31461102d5780632f2ff15d14610fe357806336568abe14610f9f5780633f3be07214610f2f578063411557d114610f0857806354fd4d5014610eed5780635d0b520514610bbb57806363497dc714610b4057806376ee5656146109b65780637d1b56e51461089c5780638beb60b6146107f95780639162aaa0146107a957806391d14854146107545780639df4021d146103d5578063a01fe38e1461039b578063a0be06f91461037e578063a217fddf14610364578063ac9650d8146101e5578063c00460ea146101c9578063cb6ba75d1461018f5763d547741f1461013a575f80fd5b3461018b57604036600319011261018b57610189600435610159611742565b9061018461017f825f525f5160206120655f395f51905f52602052600160405f20015490565b611b6d565b611e52565b005b5f80fd5b3461018b575f36600319011261018b5760206040517f723d93d9e2749ff76c3a02ca5d48d83735b6f451b126d0ba0683caa16e04c6fa8152f35b3461018b575f36600319011261018b5760206040516127108152f35b3461018b57602036600319011261018b576004356001600160401b03811161018b573660238201121561018b578060040135906001600160401b03821161018b573660248360051b8301011161018b57604051919060206102468185611840565b5f845280840191601f19820136843761025e8461191d565b903681900360421901905f5b868110156103035760248160051b830101358381121561018b578201906024820135916001600160401b03831161018b57604401823603811361018b57826102e16102e792898b8e60019860405196879585870137840190838201905f8252519283915e01015f815203601f198101835282611840565b30611fb8565b6102f18287611966565b526102fc8186611966565b500161026a565b5050506040519082820192808352815180945260408301938160408260051b8601019301915f955b8287106103385785850386f35b909192938280610354600193603f198a8203018652885161181c565b960192019601959291909261032b565b3461018b575f36600319011261018b5760206040515f8152f35b3461018b575f36600319011261018b576020600154604051908152f35b3461018b575f36600319011261018b5760206040517fa2e85c2f0b3a0317b9c4b4185c12b4e23dd961a7645fcbc9bb8efb8eb70e0d038152f35b3461018b5760a036600319011261018b575f5160206120a55f395f51905f525460ff8160401c1615906001600160401b0381168015908161074c575b6001149081610742575b159081610739575b5061072a5767ffffffffffffffff1981166001175f5160206120a55f395f51905f5255816106fe575b506104556119a6565b6040516302910f8b60e31b81526001600160a01b03918216600482015290602090829060249082907f0000000000000000000000000000000000000000000000000000000000000000165afa9081156106f3575f916106b8575b50156106a9576001600160a01b036104c56119bc565b161561061b575b6001600160a01b036104dc6119a6565b166bffffffffffffffffffffffff60a01b5f5416175f557f108cccaed2dfffe466544dfa3900b2fa5e707bb00ded59de6a950479b923216f602061051e6119a6565b6040516001600160a01b039091168152a161053a602435611f6f565b6001600160a01b0361054a6119bc565b16610605575b6001600160a01b036105606119d2565b166105ef575b6001600160a01b036105766119e8565b166105d9575b61058257005b68ff0000000000000000195f5160206120a55f395f51905f5254165f5160206120a55f395f51905f52557fc7f505b2f371ae2175ee4913f4499e1f2633a7b5936321eed1cdaeb6115181d2602060405160018152a1005b6105e96105e46119e8565b611d08565b5061057c565b6105ff6105fa6119d2565b611c4f565b50610566565b6106156106106119bc565b611bb3565b50610550565b602435610685576001600160a01b036106326119d2565b16610661576001600160a01b036106476119e8565b16610652575b6104cc565b63183c854560e21b5f5260045ffd5b6001600160a01b036106716119e8565b1661064d5763183c854560e21b5f5260045ffd5b6001600160a01b036106956119d2565b166104cc5763183c854560e21b5f5260045ffd5b6362df054560e01b5f5260045ffd5b90506020813d6020116106eb575b816106d360209383611840565b8101031261018b5751801515810361018b57826104af565b3d91506106c6565b6040513d5f823e3d90fd5b68ffffffffffffffffff191668010000000000000001175f5160206120a55f395f51905f52558161044c565b63f92ee8a960e01b5f5260045ffd5b90501583610423565b303b15915061041b565b839150610411565b3461018b57604036600319011261018b5761076d611742565b6004355f525f5160206120655f395f51905f5260205260405f209060018060a01b03165f52602052602060ff60405f2054166040519015158152f35b3461018b57604036600319011261018b576107c261172c565b6107ca611742565b6001600160a01b039182165f908152600260209081526040808320949093168252928352819020549051908152f35b3461018b57602036600319011261018b57335f9081527fd8487f5b11ecc8876444ee4ba0be76a299a89e56407bc0c4ef745e8722e35cb060205260409020546004359060ff16156108655780600154146108565761018990611f6f565b63a741a04560e01b5f5260045ffd5b63e2517d3f60e01b5f52336004527fa2e85c2f0b3a0317b9c4b4185c12b4e23dd961a7645fcbc9bb8efb8eb70e0d0360245260445ffd5b3461018b57604036600319011261018b576108b561172c565b6108bd611742565b6108c56119fe565b335f9081527fe9574111c3d75c2a60e71ea1e3f5bad97bc853dcd8d24e02cb5480dfbf98e448602052604090205460ff161561097f576001600160a01b03165f818152600460205260409020549091811561097057816109567f6059a38198b1dc42b3791087d1ff0fbd72b3179553c25f678cd246f52ffaaf5993602093865f52600485525f604081205586611eee565b604051908152a260015f5160206120855f395f51905f5255005b6319128aeb60e21b5f5260045ffd5b63e2517d3f60e01b5f52336004527f723d93d9e2749ff76c3a02ca5d48d83735b6f451b126d0ba0683caa16e04c6fa60245260445ffd5b3461018b576109c436611799565b91906040815f948101031261018b579060206109df83611758565b6001600160a01b039586165f818152600260209081526040808320948a168084529482528083209987168352600382528083209383529281528282209382529290925290205485549093919091013590610a3a9084906118d8565b9081808210911802185f9260018060a01b035f5416602096601f198801905b848710610a6a578888604051908152f35b90919293949596610a7b85836117ef565b509065ffffffffffff600183015416604051610a978c82611840565b5f815285368d8301378b828b610ac16040519485938493630b5cf1a760e21b85526004850161197a565b03818a5afa9384156106f3578c915f95610b0b575b50600194610afd936005879694610af79454925f525260405f205491611aba565b906118f9565b980196959401929190610a59565b9450929084813d8111610b39575b610b238183611840565b8101031261018b57925192918b90610af7610ad6565b503d610b19565b3461018b57606036600319011261018b57610b5961172c565b610b61611742565b6044359160018060a01b03165f52600260205260405f209060018060a01b03165f5260205260405f20805482101561018b57604091610b9f916117ef565b5065ffffffffffff600182549201541682519182526020820152f35b3461018b57610bc936611799565b610bd5939291936119fe565b83019260608185031261018b57610beb81611758565b6020820135916040810135906001600160401b03821161018b57019480601f8701121561018b578535610c1d81611906565b96610c2b6040519889611840565b81885260208089019260051b8201019183831161018b5760208201905b838210610ec0575050506001600160a01b039283169487938716925090508115610eb15760018060a01b031694855f52600260205260405f2060018060a01b0386165f5260205260405f2092335f52600360205260405f20875f5260205260405f2060018060a01b0387165f5260205260405f205497610cc98986546118d8565b95868082109118028087189614610ea25751859080610e885750610ced915061191d565b925b5f9388915f9160018060a01b035f54165b888410610dc55750505050335f52600360205260405f20875f5260205260405f2060018060a01b0387165f5260205260405f20558280610db4575b5050604051918252602082015283837f88744b3615a11586336358f196290c37189c924b0ce7f612d07789041af7cde460403394a460405193845260208401527facd14cc0b0a59979040123e9ce2601bfc1ec40c1360bcc405e1ca188f17b7fc660403394a460015f5160206120855f395f51905f5255005b610dbe9187611eee565b8682610d3b565b9091939296610e1090610dd885876117ef565b5065ffffffffffff600182015416906020610df38c88611966565b5160405180968192630b5cf1a760e21b835286336004850161197a565b0381885afa9384156106f3575f94610e51575b5091610af7600194610e4593869554905f52600560205260405f205491611aba565b98019301939190610d00565b9350916020843d8211610e80575b81610e6c60209383611840565b8101031261018b5792519291610af7610e23565b3d9150610e5f565b03610e935792610cef565b63fe8faedf60e01b5f5260045ffd5b6373380d9960e01b5f5260045ffd5b634e46966960e11b5f5260045ffd5b81356001600160401b03811161018b57602091610ee287848094880101611861565b815201910190610c48565b3461018b575f36600319011261018b57602060405160028152f35b3461018b575f36600319011261018b575f546040516001600160a01b039091168152602090f35b3461018b57606036600319011261018b57610f4861172c565b610f50611742565b604435916001600160a01b038316830361018b576001600160a01b039081165f908152600360209081526040808320948416835293815283822094909216815292815291819020549051908152f35b3461018b57604036600319011261018b57610fb8611742565b336001600160a01b03821603610fd45761018990600435611e52565b63334bd91960e11b5f5260045ffd5b3461018b57604036600319011261018b57610189600435611002611742565b9061102861017f825f525f5160206120655f395f51905f52602052600160405f20015490565b611dc1565b3461018b575f36600319011261018b576040517f00000000000000000000000000000000000000000000000000000000000000006001600160a01b03168152602090f35b3461018b57602036600319011261018b5760206110a86004355f525f5160206120655f395f51905f52602052600160405f20015490565b604051908152f35b3461018b57608036600319011261018b576110c961172c565b6110d1611742565b906064356001600160401b03811161018b576110f190369060040161176c565b6110fc9391936119fe565b83019060808483031261018b57833565ffffffffffff81169283820361018b5760408601356001600160401b03811161018b578161113b918801611861565b906060870135906001600160401b03821161018b5761115b918801611861565b604051635daf681960e11b81526001600160a01b039687166004820181905296919291602090829060249082907f0000000000000000000000000000000000000000000000000000000000000000165afa9081156106f3575f9161161b575b50336001600160a01b039091160361160c5765ffffffffffff42116115f45765ffffffffffff421685101561156057600154966020013587116115e557845f52600560205260405f2054156114c0575b50506040516370a0823160e01b81523060048201526001600160a01b039290921694919050602081602481885afa9081156106f3575f9161148e575b50604051906323b872dd60e01b5f52336004523060245260443560445260205f606481808a5af160015f511481161561146f575b826040525f6060521561145c576370a0823160e01b8252306004830152602082602481895afa80156106f3575f90611428575b6112b792506118d8565b908115611419576112cb6112d29183611a36565b80926118d8565b90845f52600460205260405f206112ea8282546118f9565b90558161133c575b907f52c39ebed294659631d22a2341c526a86ab683888dccb1429ac42c6e413d4b7b9260609260405192835260208301526040820152a360015f5160206120855f395f51905f5255005b90845f52600260205260405f20845f5260205260405f209260405192604084018481106001600160401b038211176114055760405282845260208401948286528054680100000000000000008110156114055761139e916001820181556117ef565b9590956113f25765ffffffffffff60017f52c39ebed294659631d22a2341c526a86ab683888dccb1429ac42c6e413d4b7b976060975181550191511665ffffffffffff1982541617905591925092506112f2565b634e487b7160e01b5f525f60045260245ffd5b634e487b7160e01b5f52604160045260245ffd5b636bbdb6db60e11b5f5260045ffd5b506020823d602011611454575b8161144260209383611840565b8101031261018b576112b791516112ad565b3d9150611435565b85635274afe760e01b5f5260045260245ffd5b600181151661148557863b15153d15161661127a565b823d5f823e3d90fd5b90506020813d6020116114b8575b816114a960209383611840565b8101031261018b575185611246565b3d915061149c565b5f54604051630a1e440d60e31b8152936001600160a01b0390911691602090859081906114f19085600484016118b6565b0381855afa9384156106f3575f946115aa575b50916020916115299360405180958194829363810da75d60e01b8452600484016118b6565b03915afa9081156106f3575f91611578575b50811590811561156f575b5061156057825f52600560205260405f205584808061120a565b636a4d842960e11b5f5260045ffd5b90501586611546565b90506020813d6020116115a2575b8161159360209383611840565b8101031261018b57518661153b565b3d9150611586565b91929093506020823d6020116115dd575b816115c860209383611840565b8101031261018b579051929091906020611504565b3d91506115bb565b6318c8358160e21b5f5260045ffd5b6306dfcc6560e41b5f5260306004524260245260445ffd5b63227bf64d60e01b5f5260045ffd5b90506020813d602011611655575b8161163660209383611840565b8101031261018b57516001600160a01b038116810361018b57886111ba565b3d9150611629565b3461018b575f36600319011261018b576040517f00000000000000000000000000000000000000000000000000000000000000006001600160a01b03168152602090f35b3461018b57602036600319011261018b576001600160a01b036116c261172c565b165f526004602052602060405f2054604051908152f35b3461018b57602036600319011261018b576004359063ffffffff60e01b821680920361018b57602091637965db0b60e01b811490811561171b575b5015158152f35b6301ffc9a760e01b14905083611714565b600435906001600160a01b038216820361018b57565b602435906001600160a01b038216820361018b57565b35906001600160a01b038216820361018b57565b9181601f8401121561018b578235916001600160401b03831161018b576020838186019501011161018b57565b606060031982011261018b576004356001600160a01b038116810361018b57916024356001600160a01b038116810361018b5791604435906001600160401b03821161018b576117eb9160040161176c565b9091565b8054821015611808575f5260205f209060011b01905f90565b634e487b7160e01b5f52603260045260245ffd5b805180835260209291819084018484015e5f828201840152601f01601f1916010190565b90601f801991011681019081106001600160401b0382111761140557604052565b81601f8201121561018b578035906001600160401b0382116114055760405192611895601f8401601f191660200185611840565b8284526020838301011161018b57815f926020809301838601378301015290565b60409065ffffffffffff6118d59493168152816020820152019061181c565b90565b919082039182116118e557565b634e487b7160e01b5f52601160045260245ffd5b919082018092116118e557565b6001600160401b0381116114055760051b60200190565b9061192782611906565b6119346040519182611840565b8281528092611945601f1991611906565b01905f5b82811061195557505050565b806060602080938501015201611949565b80518210156118085760209160051b010190565b65ffffffffffff6118d5949360609360018060a01b03168352166020820152816040820152019061181c565b6004356001600160a01b038116810361018b5790565b6044356001600160a01b038116810361018b5790565b6064356001600160a01b038116810361018b5790565b6084356001600160a01b038116810361018b5790565b60025f5160206120855f395f51905f525414611a275760025f5160206120855f395f51905f5255565b633ee5aeb560e01b5f5260045ffd5b9091905f905f198482099084810292838084109303928084039314611aad57826127101115611a9b57507fbc01a36e2eb1c432ca57a786c226809d495182a9930be0ded288ce703afb7e919394612710910990828211900360fc1b910360041c170290565b634e487b71905260116020526024601cfd5b5050506127109192500490565b90915f198383099280830292838086109503948086039514611b4b5784831115611b335790829109815f0382168092046002816003021880820260020302808202600203028082026002030280820260020302808202600203028091026002030293600183805f03040190848311900302920304170290565b82634e487b715f52156003026011186020526024601cfd5b505080925015611b59570490565b634e487b7160e01b5f52601260045260245ffd5b5f8181525f5160206120655f395f51905f526020908152604080832033845290915290205460ff1615611b9d5750565b63e2517d3f60e01b5f523360045260245260445ffd5b6001600160a01b0381165f9081527fb7db2dd08fcb62d0c9e08c51941cae53c267786a0b75803fb7960902fc8ef97d602052604090205460ff16611c4a576001600160a01b03165f8181527fb7db2dd08fcb62d0c9e08c51941cae53c267786a0b75803fb7960902fc8ef97d60205260408120805460ff191660011790553391905f5160206120455f395f51905f528180a4600190565b505f90565b6001600160a01b0381165f9081527fe9574111c3d75c2a60e71ea1e3f5bad97bc853dcd8d24e02cb5480dfbf98e448602052604090205460ff16611c4a576001600160a01b03165f8181527fe9574111c3d75c2a60e71ea1e3f5bad97bc853dcd8d24e02cb5480dfbf98e44860205260408120805460ff191660011790553391907f723d93d9e2749ff76c3a02ca5d48d83735b6f451b126d0ba0683caa16e04c6fa905f5160206120455f395f51905f529080a4600190565b6001600160a01b0381165f9081527fd8487f5b11ecc8876444ee4ba0be76a299a89e56407bc0c4ef745e8722e35cb0602052604090205460ff16611c4a576001600160a01b03165f8181527fd8487f5b11ecc8876444ee4ba0be76a299a89e56407bc0c4ef745e8722e35cb060205260408120805460ff191660011790553391907fa2e85c2f0b3a0317b9c4b4185c12b4e23dd961a7645fcbc9bb8efb8eb70e0d03905f5160206120455f395f51905f529080a4600190565b5f8181525f5160206120655f395f51905f52602090815260408083206001600160a01b038616845290915290205460ff16611e4c575f8181525f5160206120655f395f51905f52602090815260408083206001600160a01b0395909516808452949091528120805460ff19166001179055339291905f5160206120455f395f51905f529080a4600190565b50505f90565b5f8181525f5160206120655f395f51905f52602090815260408083206001600160a01b038616845290915290205460ff1615611e4c575f8181525f5160206120655f395f51905f52602090815260408083206001600160a01b0395909516808452949091528120805460ff19169055339291907ff6391f5c32d9c69d2a47ea670b442974b53935d1edc7fd64eb21e047a839171b9080a4600190565b916040519163a9059cbb60e01b5f5260018060a01b031660045260245260205f60448180865af19060015f5114821615611f4e575b60405215611f2e5750565b635274afe760e01b5f9081526001600160a01b0391909116600452602490fd5b906001811516611f6657823b15153d15161690611f23565b503d5f823e3d90fd5b6127108111611fa9576020817f2f0d0ace1d699b471d7b39522b5c8aae053bce1b422b7a4fe8f09bd6562a4b7492600155604051908152a1565b630fb9dd3960e11b5f5260045ffd5b905f8091602081519101845af48080612031575b15611fec5750506040513d81523d5f602083013e60203d82010160405290565b1561201157639996b31560e01b5f9081526001600160a01b0391909116600452602490fd5b3d15612022576040513d5f823e3d90fd5b63d6bda27560e01b5f5260045ffd5b503d151580611fcc5750813b1515611fcc56fe2f8788117e7eff1d82e926ec794901d17c78024a50270940304540a733656f0d02dd7bc7dec4dceedda775e58dd541e08a116c6c53815c0bd028192f7b6268009b779b17422d0df92223018b32b4d1fa46e071723d6817e2486d003becc55f00f0c57e16840df040f15088dc2f81fe391c3923bec73e23a9662efc9c229c6a00a26469706673582212208044073537faab0d8dd28959df54d63d49b304cb78a0f88a0e222d532d3d376a64736f6c63430008230033f0c57e16840df040f15088dc2f81fe391c3923bec73e23a9662efc9c229c6a00","linkReferences":{}},"methodIdentifiers":{"ADMIN_FEE_BASE()":"c00460ea","ADMIN_FEE_CLAIM_ROLE()":"cb6ba75d","ADMIN_FEE_SET_ROLE()":"a01fe38e","DEFAULT_ADMIN_ROLE()":"a217fddf","NETWORK_MIDDLEWARE_SERVICE()":"2c9d45b3","VAULT()":"411557d1","VAULT_FACTORY()":"103f2907","adminFee()":"a0be06f9","claimAdminFee(address,address)":"7d1b56e5","claimRewards(address,address,bytes)":"5d0b5205","claimable(address,address,bytes)":"76ee5656","claimableAdminFee(address)":"04fe4748","distributeRewards(address,address,uint256,bytes)":"239723ed","getRoleAdmin(bytes32)":"248a9ca3","grantRole(bytes32,address)":"2f2ff15d","hasRole(bytes32,address)":"91d14854","initialize((address,uint256,address,address,address))":"9df4021d","lastUnclaimedReward(address,address,address)":"3f3be072","multicall(bytes[])":"ac9650d8","renounceRole(bytes32,address)":"36568abe","revokeRole(bytes32,address)":"d547741f","rewards(address,address,uint256)":"63497dc7","rewardsLength(address,address)":"9162aaa0","setAdminFee(uint256)":"8beb60b6","supportsInterface(bytes4)":"01ffc9a7","version()":"54fd4d50"},"id":154}