{"abi":[{"type":"constructor","inputs":[{"name":"owner_","type":"address","internalType":"address"}],"stateMutability":"nonpayable"},{"type":"function","name":"blacklist","inputs":[{"name":"type_","type":"uint64","internalType":"uint64"}],"outputs":[],"stateMutability":"nonpayable"},{"type":"function","name":"blacklisted","inputs":[{"name":"type_","type":"uint64","internalType":"uint64"}],"outputs":[{"name":"value","type":"bool","internalType":"bool"}],"stateMutability":"view"},{"type":"function","name":"create","inputs":[{"name":"type_","type":"uint64","internalType":"uint64"},{"name":"data","type":"bytes","internalType":"bytes"}],"outputs":[{"name":"entity_","type":"address","internalType":"address"}],"stateMutability":"nonpayable"},{"type":"function","name":"entity","inputs":[{"name":"index","type":"uint256","internalType":"uint256"}],"outputs":[{"name":"","type":"address","internalType":"address"}],"stateMutability":"view"},{"type":"function","name":"implementation","inputs":[{"name":"type_","type":"uint64","internalType":"uint64"}],"outputs":[{"name":"","type":"address","internalType":"address"}],"stateMutability":"view"},{"type":"function","name":"isEntity","inputs":[{"name":"entity_","type":"address","internalType":"address"}],"outputs":[{"name":"","type":"bool","internalType":"bool"}],"stateMutability":"view"},{"type":"function","name":"owner","inputs":[],"outputs":[{"name":"","type":"address","internalType":"address"}],"stateMutability":"view"},{"type":"function","name":"renounceOwnership","inputs":[],"outputs":[],"stateMutability":"nonpayable"},{"type":"function","name":"totalEntities","inputs":[],"outputs":[{"name":"","type":"uint256","internalType":"uint256"}],"stateMutability":"view"},{"type":"function","name":"totalTypes","inputs":[],"outputs":[{"name":"","type":"uint64","internalType":"uint64"}],"stateMutability":"view"},{"type":"function","name":"transferOwnership","inputs":[{"name":"newOwner","type":"address","internalType":"address"}],"outputs":[],"stateMutability":"nonpayable"},{"type":"function","name":"whitelist","inputs":[{"name":"implementation_","type":"address","internalType":"address"}],"outputs":[],"stateMutability":"nonpayable"},{"type":"event","name":"AddEntity","inputs":[{"name":"entity","type":"address","indexed":true,"internalType":"address"}],"anonymous":false},{"type":"event","name":"Blacklist","inputs":[{"name":"type_","type":"uint64","indexed":true,"internalType":"uint64"}],"anonymous":false},{"type":"event","name":"OwnershipTransferred","inputs":[{"name":"previousOwner","type":"address","indexed":true,"internalType":"address"},{"name":"newOwner","type":"address","indexed":true,"internalType":"address"}],"anonymous":false},{"type":"event","name":"Whitelist","inputs":[{"name":"implementation","type":"address","indexed":true,"internalType":"address"}],"anonymous":false},{"type":"error","name":"AlreadyBlacklisted","inputs":[]},{"type":"error","name":"AlreadyWhitelisted","inputs":[]},{"type":"error","name":"EntityNotExist","inputs":[]},{"type":"error","name":"FailedDeployment","inputs":[]},{"type":"error","name":"InsufficientBalance","inputs":[{"name":"balance","type":"uint256","internalType":"uint256"},{"name":"needed","type":"uint256","internalType":"uint256"}]},{"type":"error","name":"InvalidImplementation","inputs":[]},{"type":"error","name":"InvalidType","inputs":[]},{"type":"error","name":"OwnableInvalidOwner","inputs":[{"name":"owner","type":"address","internalType":"address"}]},{"type":"error","name":"OwnableUnauthorizedAccount","inputs":[{"name":"account","type":"address","internalType":"address"}]}],"bytecode":{"object":"0x60803460b757601f61099538819003918201601f19168301916001600160401b0383118484101760bb5780849260209460405283398101031260b757516001600160a01b0381169081900360b757801560a457600280546001600160a01b03198116831790915560405191906001600160a01b03167f8be0079c531659141344cd1fd0a4f28419497f9722a3daafe3b4186f6b6457e05f80a36108c590816100d08239f35b631e4fbdf760e01b5f525f60045260245ffd5b5f80fd5b634e487b7160e01b5f52604160045260245ffdfe60806040526004361015610011575f80fd5b5f5f3560e01c806314887c58146106a45780635cd8b15e14610688578063715018a61461062d5780638da5cb5b146106055780639b19251a14610488578063b42ba2a21461041c578063b572a96614610374578063b6caa11914610336578063cd108ef81461018f578063f15df2e514610167578063f2fde38b146100d65763f96616021461009e575f80fd5b346100d35760203660031901126100d35760206100c16100bc6106e2565b61074f565b6040516001600160a01b039091168152f35b80fd5b50346100d35760203660031901126100d3576004356001600160a01b0381169081900361016357610105610796565b801561014f57600280546001600160a01b0319811683179091556001600160a01b03167f8be0079c531659141344cd1fd0a4f28419497f9722a3daafe3b4186f6b6457e08380a380f35b631e4fbdf760e01b82526004829052602482fd5b5080fd5b50346100d357806003193601126100d357602067ffffffffffffffff60045416604051908152f35b34610323576040366003190112610323576101a86106e2565b60243567ffffffffffffffff811161032357366023820112156103235780600401359167ffffffffffffffff83116103235760248201916024843692010111610323576e5af43d82803e903d91602b57fd5bf36102048261074f565b915f549067ffffffffffffffff60405191602083019384521660408201526060808201526102488161023a60808201898961072f565b03601f1981018352826106f9565b51902091763d602d80600a3d3981f3363d3d373d3d3d363d7300000062ffffff8260881c16175f5260781b1760205260018060a01b0390603760095ff5169081156103275761029682610835565b5060405192827fb919910dcefbf753bfd926ab3b1d3f85d877190c3d01ba1bd585047b99b99f0b5f80a2823b1561032357836102ea5f93829363439fab9160e01b845260206004850152602484019161072f565b038183855af191821561031857602092610308575b50604051908152f35b5f610312916106f9565b5f6102ff565b6040513d5f823e3d90fd5b5f80fd5b63b06ebf3d60e01b5f5260045ffd5b346103235760203660031901126103235767ffffffffffffffff6103586106e2565b165f526003602052602060ff60405f2054166040519015158152f35b346103235760203660031901126103235761038d6106e2565b610395610796565b67ffffffffffffffff806004541691169081101561040d57805f52600360205260ff60405f2054166103fe57805f52600360205260405f20600160ff198254161790557ffc8245c2838846b295ae66fbe0d08e20c799b737c93b56f7b209df2e5fa2d4585f80a2005b63f53de75f60e01b5f5260045ffd5b63b968846160e01b5f5260045ffd5b34610323576020366003190112610323576004355f54811015610474575f80527f290decd9548b62a8d60345a988386fc84ba6bc95484008f6362f93160ef3e56301546040516001600160a01b039091168152602090f35b634e487b7160e01b5f52603260045260245ffd5b34610323576020366003190112610323576004356001600160a01b03811690819003610323576104b6610796565b6040516202dd3160ec1b8152602081600481855afa908115610318575f916105c3575b506001600160a01b03163014801590610543575b610534576104fa816107d2565b15610525577feb73900b98b6a3e2b8b01708fe544760cf570d21e7fbe5225f24e48b5b2b432e5f80a2005b63b73e95e160e01b5f5260045ffd5b63340aafcd60e11b5f5260045ffd5b50604051635d927f4560e11b8152602081600481855afa908115610318575f91610580575b5067ffffffffffffffff8060045416911614156104ed565b90506020813d6020116105bb575b8161059b602093836106f9565b81010312610323575167ffffffffffffffff811681036103235782610568565b3d915061058e565b90506020813d6020116105fd575b816105de602093836106f9565b8101031261032357516001600160a01b038116810361032357826104d9565b3d91506105d1565b34610323575f366003190112610323576002546040516001600160a01b039091168152602090f35b34610323575f36600319011261032357610645610796565b600280546001600160a01b031981169091555f906001600160a01b03167f8be0079c531659141344cd1fd0a4f28419497f9722a3daafe3b4186f6b6457e08280a3005b34610323575f3660031901126103235760205f54604051908152f35b34610323576020366003190112610323576004356001600160a01b03811690819003610323575f526001602052602060405f20541515604051908152f35b6004359067ffffffffffffffff8216820361032357565b90601f8019910116810190811067ffffffffffffffff82111761071b57604052565b634e487b7160e01b5f52604160045260245ffd5b908060209392818452848401375f828201840152601f01601f1916010190565b67ffffffffffffffff166004548110156104745760045f527f8a35acfbc15ff81a39ae7d344fd709f28e8600b4aa8c65c6b64bfe7fe36bd19b01546001600160a01b031690565b6002546001600160a01b031633036107aa57565b63118cdaa760e01b5f523360045260245ffd5b8054821015610474575f5260205f2001905f90565b805f52600560205260405f2054155f1461083057600454600160401b81101561071b57806001610807920160045560046107bd565b81549060031b9083821b915f19901b1916179055600454905f52600560205260405f2055600190565b505f90565b805f52600160205260405f2054155f14610830575f54600160401b81101561071b5780600161086792015f555f6107bd565b81549060031b9083821b915f19901b19161790555f54905f52600160205260405f205560019056fea264697066735822122005452b1fb8e231e2393cd396ec69455d8aa91db56f02c2338aa8efcd38ec59d064736f6c63430008230033","linkReferences":{}},"methodIdentifiers":{"blacklist(uint64)":"b572a966","blacklisted(uint64)":"b6caa119","create(uint64,bytes)":"cd108ef8","entity(uint256)":"b42ba2a2","implementation(uint64)":"f9661602","isEntity(address)":"14887c58","owner()":"8da5cb5b","renounceOwnership()":"715018a6","totalEntities()":"5cd8b15e","totalTypes()":"f15df2e5","transferOwnership(address)":"f2fde38b","whitelist(address)":"9b19251a"},"id":117}