{"abi":[{"type":"constructor","inputs":[{"name":"owner_","type":"address","internalType":"address"}],"stateMutability":"nonpayable"},{"type":"function","name":"blacklist","inputs":[{"name":"type_","type":"uint64","internalType":"uint64"}],"outputs":[],"stateMutability":"nonpayable"},{"type":"function","name":"blacklisted","inputs":[{"name":"type_","type":"uint64","internalType":"uint64"}],"outputs":[{"name":"value","type":"bool","internalType":"bool"}],"stateMutability":"view"},{"type":"function","name":"create","inputs":[{"name":"type_","type":"uint64","internalType":"uint64"},{"name":"data","type":"bytes","internalType":"bytes"}],"outputs":[{"name":"entity_","type":"address","internalType":"address"}],"stateMutability":"nonpayable"},{"type":"function","name":"entity","inputs":[{"name":"index","type":"uint256","internalType":"uint256"}],"outputs":[{"name":"","type":"address","internalType":"address"}],"stateMutability":"view"},{"type":"function","name":"implementation","inputs":[{"name":"type_","type":"uint64","internalType":"uint64"}],"outputs":[{"name":"","type":"address","internalType":"address"}],"stateMutability":"view"},{"type":"function","name":"isEntity","inputs":[{"name":"entity_","type":"address","internalType":"address"}],"outputs":[{"name":"","type":"bool","internalType":"bool"}],"stateMutability":"view"},{"type":"function","name":"owner","inputs":[],"outputs":[{"name":"","type":"address","internalType":"address"}],"stateMutability":"view"},{"type":"function","name":"renounceOwnership","inputs":[],"outputs":[],"stateMutability":"nonpayable"},{"type":"function","name":"totalEntities","inputs":[],"outputs":[{"name":"","type":"uint256","internalType":"uint256"}],"stateMutability":"view"},{"type":"function","name":"totalTypes","inputs":[],"outputs":[{"name":"","type":"uint64","internalType":"uint64"}],"stateMutability":"view"},{"type":"function","name":"transferOwnership","inputs":[{"name":"newOwner","type":"address","internalType":"address"}],"outputs":[],"stateMutability":"nonpayable"},{"type":"function","name":"whitelist","inputs":[{"name":"implementation_","type":"address","internalType":"address"}],"outputs":[],"stateMutability":"nonpayable"},{"type":"event","name":"AddEntity","inputs":[{"name":"entity","type":"address","indexed":true,"internalType":"address"}],"anonymous":false},{"type":"event","name":"Blacklist","inputs":[{"name":"type_","type":"uint64","indexed":true,"internalType":"uint64"}],"anonymous":false},{"type":"event","name":"OwnershipTransferred","inputs":[{"name":"previousOwner","type":"address","indexed":true,"internalType":"address"},{"name":"newOwner","type":"address","indexed":true,"internalType":"address"}],"anonymous":false},{"type":"event","name":"Whitelist","inputs":[{"name":"implementation","type":"address","indexed":true,"internalType":"address"}],"anonymous":false},{"type":"error","name":"AlreadyBlacklisted","inputs":[]},{"type":"error","name":"AlreadyWhitelisted","inputs":[]},{"type":"error","name":"ERC1167FailedCreateClone","inputs":[]},{"type":"error","name":"EntityNotExist","inputs":[]},{"type":"error","name":"InvalidImplementation","inputs":[]},{"type":"error","name":"InvalidType","inputs":[]},{"type":"error","name":"OwnableInvalidOwner","inputs":[{"name":"owner","type":"address","internalType":"address"}]},{"type":"error","name":"OwnableUnauthorizedAccount","inputs":[{"name":"account","type":"address","internalType":"address"}]}],"bytecode":{"object":"0x60803460b557601f6109a338819003918201601f19168301916001600160401b0383118484101760b95780849260209460405283398101031260b557516001600160a01b03908181169081900360b5578015609d57600280546001600160a01b03198116831790915560405192167f8be0079c531659141344cd1fd0a4f28419497f9722a3daafe3b4186f6b6457e05f80a36108d590816100ce8239f35b604051631e4fbdf760e01b81525f6004820152602490fd5b5f80fd5b634e487b7160e01b5f52604160045260245ffdfe6080604090808252600480361015610015575f80fd5b5f3560e01c91826314887c5814610698575081635cd8b15e1461067b578163715018a6146106205781638da5cb5b146105f85781639b19251a14610485578163b42ba2a21461041a578163b572a96614610375578163b6caa11914610338578163cd108ef814610194578163f15df2e51461016e578163f2fde38b146100dd575063f9661602146100a4575f80fd5b346100d95760203660031901126100d9576020906100c86100c36106d1565b61073e565b90516001600160a01b039091168152f35b5f80fd5b82346100d95760203660031901126100d9576001600160a01b038235818116939192908490036100d95761010f610799565b8315610158575050600254826bffffffffffffffffffffffff60a01b821617600255167f8be0079c531659141344cd1fd0a4f28419497f9722a3daafe3b4186f6b6457e05f80a3005b905f6024925191631e4fbdf760e01b8352820152fd5b82346100d9575f3660031901126100d95767ffffffffffffffff60209254169051908152f35b82346100d957806003193601126100d9576101ad6106d1565b906024359167ffffffffffffffff8084116100d957366023850112156100d95783850135918183116100d957602485019460248436920101116100d9576e5af43d82803e903d91602b57fd5bf36102038261073e565b915f54908487519160208301938452168782015260608082015261023d8161022f60808201898c61071e565b03601f1981018352826106e8565b51902091763d602d80600a3d3981f3363d3d373d3d3d363d7300000062ffffff8260881c16175f5260781b1760205260018060a01b0390603760095ff5169384156103285761028b85610836565b50835192857fb919910dcefbf753bfd926ab3b1d3f85d877190c3d01ba1bd585047b99b99f0b5f80a2853b156100d957836102dd5f93829363439fab9160e01b845260208b850152602484019161071e565b038183885af1801561031e576102f8575b6020848451908152f35b811161030b5760209350815283806102ee565b604184634e487b7160e01b5f525260245ffd5b83513d5f823e3d90fd5b83516330be1a3d60e21b81528690fd5b82346100d95760203660031901126100d95760209067ffffffffffffffff61035e6106d1565b165f526003825260ff815f20541690519015158152f35b82346100d95760203660031901126100d95761038f6106d1565b91610398610799565b67ffffffffffffffff8082541693169283101561040c57825f52600360205260ff825f2054166103fe5750815f5260036020525f20600160ff198254161790557ffc8245c2838846b295ae66fbe0d08e20c799b737c93b56f7b209df2e5fa2d4585f80a2005b905163f53de75f60e01b8152fd5b905163b968846160e01b8152fd5b82346100d95760203660031901126100d95781355f54811015610472575f80527f290decd9548b62a8d60345a988386fc84ba6bc95484008f6362f93160ef3e563015490516001600160a01b03909116815260209150f35b603283634e487b7160e01b5f525260245ffd5b9050346100d957602091826003193601126100d95781356001600160a01b0381811694918590036100d9576104b8610799565b82516202dd3160ec1b81529082828681895afa9182156105ee575f926105b6575b501630148015919061053a575b5061052d576104f4836107c5565b1561052057827feb73900b98b6a3e2b8b01708fe544760cf570d21e7fbe5225f24e48b5b2b432e5f80a2005b5163b73e95e160e01b8152fd5b5163340aafcd60e11b8152fd5b8251635d927f4560e11b815290915081818581885afa91821561031e575f92610577575b505067ffffffffffffffff80845416911614155f6104e6565b90809250813d83116105af575b61058e81836106e8565b810103126100d9575167ffffffffffffffff811681036100d9575f8061055e565b503d610584565b9091508281813d83116105e7575b6105ce81836106e8565b810103126100d9575181811681036100d957905f6104d9565b503d6105c4565b84513d5f823e3d90fd5b82346100d9575f3660031901126100d95760025490516001600160a01b039091168152602090f35b346100d9575f3660031901126100d957610638610799565b600280546001600160a01b031981169091555f906001600160a01b03167f8be0079c531659141344cd1fd0a4f28419497f9722a3daafe3b4186f6b6457e08280a3005b82346100d9575f3660031901126100d9576020905f549051908152f35b9150346100d95760203660031901126100d957356001600160a01b03811692908390036100d9576020925f52600183525f205415158152f35b6004359067ffffffffffffffff821682036100d957565b90601f8019910116810190811067ffffffffffffffff82111761070a57604052565b634e487b7160e01b5f52604160045260245ffd5b908060209392818452848401375f828201840152601f01601f1916010190565b67ffffffffffffffff166004548110156107855760045f527f8a35acfbc15ff81a39ae7d344fd709f28e8600b4aa8c65c6b64bfe7fe36bd19b01546001600160a01b031690565b634e487b7160e01b5f52603260045260245ffd5b6002546001600160a01b031633036107ad57565b60405163118cdaa760e01b8152336004820152602490fd5b805f52600560205260405f2054155f1461083157600454600160401b81101561070a5760018101806004558110156107855781907f8a35acfbc15ff81a39ae7d344fd709f28e8600b4aa8c65c6b64bfe7fe36bd19b0155600454905f52600560205260405f2055600190565b505f90565b805f52600160205260405f2054155f14610831575f54600160401b81101561070a5760018101805f558110156107855781907f290decd9548b62a8d60345a988386fc84ba6bc95484008f6362f93160ef3e56301555f54905f52600160205260405f205560019056fea2646970667358221220377c7c8f4b9c9b6585fa533deadc519659538dd3b8b8fd22fffd3bbad02b228064736f6c63430008190033","linkReferences":{}},"methodIdentifiers":{"blacklist(uint64)":"b572a966","blacklisted(uint64)":"b6caa119","create(uint64,bytes)":"cd108ef8","entity(uint256)":"b42ba2a2","implementation(uint64)":"f9661602","isEntity(address)":"14887c58","owner()":"8da5cb5b","renounceOwnership()":"715018a6","totalEntities()":"5cd8b15e","totalTypes()":"f15df2e5","transferOwnership(address)":"f2fde38b","whitelist(address)":"9b19251a"},"id":63}