{"abi":[{"type":"constructor","inputs":[{"name":"_varaEthProgram","type":"address","internalType":"contract IMirror"}],"stateMutability":"nonpayable"},{"type":"function","name":"VARA_ETH_PROGRAM","inputs":[],"outputs":[{"name":"","type":"address","internalType":"contract IMirror"}],"stateMutability":"view"},{"type":"function","name":"methodName","inputs":[{"name":"isPanic","type":"bool","internalType":"bool"}],"outputs":[{"name":"","type":"bytes32","internalType":"bytes32"}],"stateMutability":"nonpayable"},{"type":"function","name":"onErrorReply","inputs":[{"name":"messageId","type":"bytes32","internalType":"bytes32"},{"name":"payload","type":"bytes","internalType":"bytes"},{"name":"replyCode","type":"bytes4","internalType":"bytes4"}],"outputs":[],"stateMutability":"payable"},{"type":"function","name":"onErrorReplyCalled","inputs":[],"outputs":[{"name":"","type":"bool","internalType":"bool"}],"stateMutability":"view"},{"type":"function","name":"replyOnMethodNameCalled","inputs":[],"outputs":[{"name":"","type":"bool","internalType":"bool"}],"stateMutability":"view"},{"type":"function","name":"replyOn_methodName","inputs":[{"name":"messageId","type":"bytes32","internalType":"bytes32"}],"outputs":[],"stateMutability":"nonpayable"},{"type":"event","name":"ErrorReplied","inputs":[{"name":"messageId","type":"bytes32","indexed":false,"internalType":"bytes32"},{"name":"payload","type":"bytes","indexed":false,"internalType":"bytes"},{"name":"replyCode","type":"bytes4","indexed":false,"internalType":"bytes4"}],"anonymous":false},{"type":"event","name":"MethodNameReplied","inputs":[{"name":"messageId","type":"bytes32","indexed":false,"internalType":"bytes32"}],"anonymous":false},{"type":"error","name":"UnauthorizedCaller","inputs":[]}],"bytecode":{"object":"0x60a034607357601f61040d38819003918201601f19168301916001600160401b03831184841017607757808492602094604052833981010312607357516001600160a01b0381168103607357608052604051610381908161008c823960805181818160700152818161019b01526103420152f35b5f80fd5b634e487b7160e01b5f52604160045260245ffdfe60806040526004361015610011575f80fd5b5f3560e01c80634a646c7f146102375780638ed2570c1461021357806396b3d5a914610116578063b52ab555146100c4578063d24012f8146100a35763dab506b21461005b575f80fd5b3461009f575f36600319011261009f576040517f00000000000000000000000000000000000000000000000000000000000000006001600160a01b03168152602090f35b5f80fd5b3461009f575f36600319011261009f57602060ff5f54166040519015158152f35b3461009f57602036600319011261009f576100dd610340565b600160ff195f5416175f557fe84f069632bb62380c2db01d855c4a504e087d71add44c3639386496f56fcfd260206040516004358152a1005b3461009f57602036600319011261009f5760043580151580910361009f5760206040518181019260f81b83526001815261015160218261030a565b6064604051809481936242129d60e81b8352604060048401525180918160448501528484015e5f83828401015260016024830152601f801991011681010301815f60018060a01b037f0000000000000000000000000000000000000000000000000000000000000000165af18015610208575f906101d5575b602090604051908152f35b506020813d602011610200575b816101ef6020938361030a565b8101031261009f57602090516101ca565b3d91506101e2565b6040513d5f823e3d90fd5b3461009f575f36600319011261009f57602060ff5f5460081c166040519015158152f35b606036600319011261009f5760243567ffffffffffffffff811161009f573660238201121561009f57806004013567ffffffffffffffff811161009f57366024828401011161009f5760443563ffffffff60e01b811680910361009f577f71e1710f6581d7e128cb38d25b5ea07b760f138a9073096c50be9c23d0f2b45e926024926080926102c4610340565b61010061ff00195f5416175f558160405195869460043586526060602087015282606087015201858501375f8383018501526040830152601f01601f19168101030190a1005b90601f8019910116810190811067ffffffffffffffff82111761032c57604052565b634e487b7160e01b5f52604160045260245ffd5b7f00000000000000000000000000000000000000000000000000000000000000006001600160a01b0316330361037257565b635c427cd960e01b5f5260045ffd","linkReferences":{}},"methodIdentifiers":{"VARA_ETH_PROGRAM()":"dab506b2","methodName(bool)":"96b3d5a9","onErrorReply(bytes32,bytes,bytes4)":"4a646c7f","onErrorReplyCalled()":"8ed2570c","replyOnMethodNameCalled()":"d24012f8","replyOn_methodName(bytes32)":"b52ab555"},"storageLayout":{"storage":[{"astId":84396,"contract":"test/DemoCaller.sol:DemoCaller","label":"replyOnMethodNameCalled","offset":0,"slot":"0","type":"t_bool"},{"astId":84398,"contract":"test/DemoCaller.sol:DemoCaller","label":"onErrorReplyCalled","offset":1,"slot":"0","type":"t_bool"}],"types":{"t_bool":{"encoding":"inplace","label":"bool","numberOfBytes":"1"}}},"id":173}