{"abi":[{"type":"function","name":"COMPUTATION_THRESHOLD","inputs":[],"outputs":[{"name":"","type":"uint64","internalType":"uint64"}],"stateMutability":"view"},{"type":"function","name":"VALIDATORS_THRESHOLD_DENOMINATOR","inputs":[],"outputs":[{"name":"","type":"uint128","internalType":"uint128"}],"stateMutability":"view"},{"type":"function","name":"VALIDATORS_THRESHOLD_NUMERATOR","inputs":[],"outputs":[{"name":"","type":"uint128","internalType":"uint128"}],"stateMutability":"view"},{"type":"function","name":"WVARA_PER_SECOND","inputs":[],"outputs":[{"name":"","type":"uint128","internalType":"uint128"}],"stateMutability":"view"},{"type":"error","name":"ErasTimestampMustNotBeEqual","inputs":[]},{"type":"error","name":"InvalidFrostSignatureCount","inputs":[]},{"type":"error","name":"InvalidFrostSignatureLength","inputs":[]},{"type":"error","name":"TimestampInFuture","inputs":[]},{"type":"error","name":"TimestampOlderThanPreviousEra","inputs":[]},{"type":"error","name":"ValidationBeforeGenesis","inputs":[]},{"type":"error","name":"ValidatorsNotFoundForTimestamp","inputs":[]}],"bytecode":{"object":"0x6080806040523460175760a19081601c823930815050f35b5f80fdfe60808060405260043610156011575f80fd5b5f3560e01c9081630279472c14608e575080632c184e1c1460745780637841919a14605c5763db3fe3f1146043575f80fd5b5f366003190112605857602060405160028152f35b5f80fd5b5f3660031901126058576020604051639502f9008152f35b5f36600319011260585760206040516509184e72a0008152f35b5f36600319011260585780600360209252f3","linkReferences":{}},"methodIdentifiers":{"COMPUTATION_THRESHOLD()":"7841919a","VALIDATORS_THRESHOLD_DENOMINATOR()":"0279472c","VALIDATORS_THRESHOLD_NUMERATOR()":"db3fe3f1","WVARA_PER_SECOND()":"2c184e1c"},"storageLayout":{"storage":[],"types":{}},"id":168}