{"abi":[{"type":"constructor","inputs":[],"stateMutability":"nonpayable"},{"type":"function","name":"UPGRADE_INTERFACE_VERSION","inputs":[],"outputs":[{"name":"","type":"string","internalType":"string"}],"stateMutability":"view"},{"type":"function","name":"allowedVaultImplVersion","inputs":[],"outputs":[{"name":"","type":"uint64","internalType":"uint64"}],"stateMutability":"view"},{"type":"function","name":"changeSlashExecutor","inputs":[{"name":"newRole","type":"address","internalType":"address"}],"outputs":[],"stateMutability":"nonpayable"},{"type":"function","name":"changeSlashRequester","inputs":[{"name":"newRole","type":"address","internalType":"address"}],"outputs":[],"stateMutability":"nonpayable"},{"type":"function","name":"collateral","inputs":[],"outputs":[{"name":"","type":"address","internalType":"address"}],"stateMutability":"view"},{"type":"function","name":"disableOperator","inputs":[],"outputs":[],"stateMutability":"nonpayable"},{"type":"function","name":"disableVault","inputs":[{"name":"vault","type":"address","internalType":"address"}],"outputs":[],"stateMutability":"nonpayable"},{"type":"function","name":"distributeOperatorRewards","inputs":[{"name":"token","type":"address","internalType":"address"},{"name":"amount","type":"uint256","internalType":"uint256"},{"name":"root","type":"bytes32","internalType":"bytes32"}],"outputs":[{"name":"","type":"bytes32","internalType":"bytes32"}],"stateMutability":"nonpayable"},{"type":"function","name":"distributeStakerRewards","inputs":[{"name":"_commitment","type":"tuple","internalType":"struct Gear.StakerRewardsCommitment","components":[{"name":"distribution","type":"tuple[]","internalType":"struct Gear.StakerRewards[]","components":[{"name":"vault","type":"address","internalType":"address"},{"name":"amount","type":"uint256","internalType":"uint256"}]},{"name":"totalAmount","type":"uint256","internalType":"uint256"},{"name":"token","type":"address","internalType":"address"}]},{"name":"timestamp","type":"uint48","internalType":"uint48"}],"outputs":[{"name":"","type":"bytes32","internalType":"bytes32"}],"stateMutability":"nonpayable"},{"type":"function","name":"enableOperator","inputs":[],"outputs":[],"stateMutability":"nonpayable"},{"type":"function","name":"enableVault","inputs":[{"name":"vault","type":"address","internalType":"address"}],"outputs":[],"stateMutability":"nonpayable"},{"type":"function","name":"eraDuration","inputs":[],"outputs":[{"name":"","type":"uint48","internalType":"uint48"}],"stateMutability":"view"},{"type":"function","name":"executeSlash","inputs":[{"name":"slashes","type":"tuple[]","internalType":"struct IMiddleware.SlashIdentifier[]","components":[{"name":"vault","type":"address","internalType":"address"},{"name":"index","type":"uint256","internalType":"uint256"}]}],"outputs":[],"stateMutability":"nonpayable"},{"type":"function","name":"getActiveOperatorsStakeAt","inputs":[{"name":"ts","type":"uint48","internalType":"uint48"}],"outputs":[{"name":"activeOperators","type":"address[]","internalType":"address[]"},{"name":"stakes","type":"uint256[]","internalType":"uint256[]"}],"stateMutability":"view"},{"type":"function","name":"getOperatorStakeAt","inputs":[{"name":"operator","type":"address","internalType":"address"},{"name":"ts","type":"uint48","internalType":"uint48"}],"outputs":[{"name":"stake","type":"uint256","internalType":"uint256"}],"stateMutability":"view"},{"type":"function","name":"initialize","inputs":[{"name":"_params","type":"tuple","internalType":"struct IMiddleware.InitParams","components":[{"name":"owner","type":"address","internalType":"address"},{"name":"eraDuration","type":"uint48","internalType":"uint48"},{"name":"minVaultEpochDuration","type":"uint48","internalType":"uint48"},{"name":"operatorGracePeriod","type":"uint48","internalType":"uint48"},{"name":"vaultGracePeriod","type":"uint48","internalType":"uint48"},{"name":"minVetoDuration","type":"uint48","internalType":"uint48"},{"name":"minSlashExecutionDelay","type":"uint48","internalType":"uint48"},{"name":"allowedVaultImplVersion","type":"uint64","internalType":"uint64"},{"name":"vetoSlasherImplType","type":"uint64","internalType":"uint64"},{"name":"maxResolverSetEpochsDelay","type":"uint256","internalType":"uint256"},{"name":"maxAdminFee","type":"uint256","internalType":"uint256"},{"name":"collateral","type":"address","internalType":"address"},{"name":"router","type":"address","internalType":"address"},{"name":"symbiotic","type":"tuple","internalType":"struct Gear.SymbioticContracts","components":[{"name":"vaultRegistry","type":"address","internalType":"address"},{"name":"operatorRegistry","type":"address","internalType":"address"},{"name":"networkRegistry","type":"address","internalType":"address"},{"name":"middlewareService","type":"address","internalType":"address"},{"name":"networkOptIn","type":"address","internalType":"address"},{"name":"stakerRewardsFactory","type":"address","internalType":"address"},{"name":"operatorRewards","type":"address","internalType":"address"},{"name":"roleSlashRequester","type":"address","internalType":"address"},{"name":"roleSlashExecutor","type":"address","internalType":"address"},{"name":"vetoResolver","type":"address","internalType":"address"}]}]}],"outputs":[],"stateMutability":"nonpayable"},{"type":"function","name":"makeElectionAt","inputs":[{"name":"ts","type":"uint48","internalType":"uint48"},{"name":"maxValidators","type":"uint256","internalType":"uint256"}],"outputs":[{"name":"","type":"address[]","internalType":"address[]"}],"stateMutability":"view"},{"type":"function","name":"maxAdminFee","inputs":[],"outputs":[{"name":"","type":"uint256","internalType":"uint256"}],"stateMutability":"view"},{"type":"function","name":"maxResolverSetEpochsDelay","inputs":[],"outputs":[{"name":"","type":"uint256","internalType":"uint256"}],"stateMutability":"view"},{"type":"function","name":"minSlashExecutionDelay","inputs":[],"outputs":[{"name":"","type":"uint48","internalType":"uint48"}],"stateMutability":"view"},{"type":"function","name":"minVaultEpochDuration","inputs":[],"outputs":[{"name":"","type":"uint48","internalType":"uint48"}],"stateMutability":"view"},{"type":"function","name":"minVetoDuration","inputs":[],"outputs":[{"name":"","type":"uint48","internalType":"uint48"}],"stateMutability":"view"},{"type":"function","name":"operatorGracePeriod","inputs":[],"outputs":[{"name":"","type":"uint48","internalType":"uint48"}],"stateMutability":"view"},{"type":"function","name":"owner","inputs":[],"outputs":[{"name":"","type":"address","internalType":"address"}],"stateMutability":"view"},{"type":"function","name":"proxiableUUID","inputs":[],"outputs":[{"name":"","type":"bytes32","internalType":"bytes32"}],"stateMutability":"view"},{"type":"function","name":"registerOperator","inputs":[],"outputs":[],"stateMutability":"nonpayable"},{"type":"function","name":"registerVault","inputs":[{"name":"_vault","type":"address","internalType":"address"},{"name":"_rewards","type":"address","internalType":"address"}],"outputs":[],"stateMutability":"nonpayable"},{"type":"function","name":"reinitialize","inputs":[],"outputs":[],"stateMutability":"nonpayable"},{"type":"function","name":"renounceOwnership","inputs":[],"outputs":[],"stateMutability":"nonpayable"},{"type":"function","name":"requestSlash","inputs":[{"name":"data","type":"tuple[]","internalType":"struct IMiddleware.SlashData[]","components":[{"name":"operator","type":"address","internalType":"address"},{"name":"ts","type":"uint48","internalType":"uint48"},{"name":"vaults","type":"tuple[]","internalType":"struct IMiddleware.VaultSlashData[]","components":[{"name":"vault","type":"address","internalType":"address"},{"name":"amount","type":"uint256","internalType":"uint256"}]}]}],"outputs":[],"stateMutability":"nonpayable"},{"type":"function","name":"router","inputs":[],"outputs":[{"name":"","type":"address","internalType":"address"}],"stateMutability":"view"},{"type":"function","name":"subnetwork","inputs":[],"outputs":[{"name":"","type":"bytes32","internalType":"bytes32"}],"stateMutability":"view"},{"type":"function","name":"symbioticContracts","inputs":[],"outputs":[{"name":"","type":"tuple","internalType":"struct Gear.SymbioticContracts","components":[{"name":"vaultRegistry","type":"address","internalType":"address"},{"name":"operatorRegistry","type":"address","internalType":"address"},{"name":"networkRegistry","type":"address","internalType":"address"},{"name":"middlewareService","type":"address","internalType":"address"},{"name":"networkOptIn","type":"address","internalType":"address"},{"name":"stakerRewardsFactory","type":"address","internalType":"address"},{"name":"operatorRewards","type":"address","internalType":"address"},{"name":"roleSlashRequester","type":"address","internalType":"address"},{"name":"roleSlashExecutor","type":"address","internalType":"address"},{"name":"vetoResolver","type":"address","internalType":"address"}]}],"stateMutability":"view"},{"type":"function","name":"transferOwnership","inputs":[{"name":"newOwner","type":"address","internalType":"address"}],"outputs":[],"stateMutability":"nonpayable"},{"type":"function","name":"unregisterOperator","inputs":[{"name":"operator","type":"address","internalType":"address"}],"outputs":[],"stateMutability":"nonpayable"},{"type":"function","name":"unregisterVault","inputs":[{"name":"vault","type":"address","internalType":"address"}],"outputs":[],"stateMutability":"nonpayable"},{"type":"function","name":"upgradeToAndCall","inputs":[{"name":"newImplementation","type":"address","internalType":"address"},{"name":"data","type":"bytes","internalType":"bytes"}],"outputs":[],"stateMutability":"payable"},{"type":"function","name":"vaultGracePeriod","inputs":[],"outputs":[{"name":"","type":"uint48","internalType":"uint48"}],"stateMutability":"view"},{"type":"function","name":"vetoSlasherImplType","inputs":[],"outputs":[{"name":"","type":"uint64","internalType":"uint64"}],"stateMutability":"view"},{"type":"event","name":"Initialized","inputs":[{"name":"version","type":"uint64","indexed":false,"internalType":"uint64"}],"anonymous":false},{"type":"event","name":"OwnershipTransferred","inputs":[{"name":"previousOwner","type":"address","indexed":true,"internalType":"address"},{"name":"newOwner","type":"address","indexed":true,"internalType":"address"}],"anonymous":false},{"type":"event","name":"Upgraded","inputs":[{"name":"implementation","type":"address","indexed":true,"internalType":"address"}],"anonymous":false},{"type":"error","name":"AddressEmptyCode","inputs":[{"name":"target","type":"address","internalType":"address"}]},{"type":"error","name":"AlreadyAdded","inputs":[]},{"type":"error","name":"AlreadyEnabled","inputs":[]},{"type":"error","name":"BurnerHookNotSupported","inputs":[]},{"type":"error","name":"DelegatorNotInitialized","inputs":[]},{"type":"error","name":"ERC1967InvalidImplementation","inputs":[{"name":"implementation","type":"address","internalType":"address"}]},{"type":"error","name":"ERC1967NonPayable","inputs":[]},{"type":"error","name":"EnumerableMapNonexistentKey","inputs":[{"name":"key","type":"bytes32","internalType":"bytes32"}]},{"type":"error","name":"EraDurationMustBeGreaterThanZero","inputs":[]},{"type":"error","name":"FailedCall","inputs":[]},{"type":"error","name":"IncompatibleSlasherType","inputs":[]},{"type":"error","name":"IncompatibleStakerRewardsVersion","inputs":[]},{"type":"error","name":"IncompatibleVaultVersion","inputs":[]},{"type":"error","name":"IncorrectTimestamp","inputs":[]},{"type":"error","name":"InvalidInitialization","inputs":[]},{"type":"error","name":"InvalidStakerRewardsVault","inputs":[]},{"type":"error","name":"MaxValidatorsMustBeGreaterThanZero","inputs":[]},{"type":"error","name":"MinSlashExecutionDelayMustBeGreaterThanZero","inputs":[]},{"type":"error","name":"MinVaultEpochDurationLessThanTwoEras","inputs":[]},{"type":"error","name":"MinVetoAndSlashDelayTooLongForVaultEpoch","inputs":[]},{"type":"error","name":"MinVetoDurationMustBeGreaterThanZero","inputs":[]},{"type":"error","name":"NonFactoryStakerRewards","inputs":[]},{"type":"error","name":"NonFactoryVault","inputs":[]},{"type":"error","name":"NotEnabled","inputs":[]},{"type":"error","name":"NotInitializing","inputs":[]},{"type":"error","name":"NotRegisteredOperator","inputs":[]},{"type":"error","name":"NotRegisteredVault","inputs":[]},{"type":"error","name":"NotRouter","inputs":[]},{"type":"error","name":"NotSlashExecutor","inputs":[]},{"type":"error","name":"NotSlashRequester","inputs":[]},{"type":"error","name":"NotVaultOwner","inputs":[]},{"type":"error","name":"OperatorDoesNotExist","inputs":[]},{"type":"error","name":"OperatorDoesNotOptIn","inputs":[]},{"type":"error","name":"OperatorGracePeriodLessThanMinVaultEpochDuration","inputs":[]},{"type":"error","name":"OperatorGracePeriodNotPassed","inputs":[]},{"type":"error","name":"OwnableInvalidOwner","inputs":[{"name":"owner","type":"address","internalType":"address"}]},{"type":"error","name":"OwnableUnauthorizedAccount","inputs":[{"name":"account","type":"address","internalType":"address"}]},{"type":"error","name":"ReentrancyGuardReentrantCall","inputs":[]},{"type":"error","name":"ResolverMismatch","inputs":[]},{"type":"error","name":"ResolverSetDelayMustBeAtLeastThree","inputs":[]},{"type":"error","name":"ResolverSetDelayTooLong","inputs":[]},{"type":"error","name":"SafeCastOverflowedUintDowncast","inputs":[{"name":"bits","type":"uint8","internalType":"uint8"},{"name":"value","type":"uint256","internalType":"uint256"}]},{"type":"error","name":"SlasherNotInitialized","inputs":[]},{"type":"error","name":"UUPSUnauthorizedCallContext","inputs":[]},{"type":"error","name":"UUPSUnsupportedProxiableUUID","inputs":[{"name":"slot","type":"bytes32","internalType":"bytes32"}]},{"type":"error","name":"UnknownCollateral","inputs":[]},{"type":"error","name":"UnsupportedBurner","inputs":[]},{"type":"error","name":"UnsupportedDelegatorHook","inputs":[]},{"type":"error","name":"VaultGracePeriodLessThanMinVaultEpochDuration","inputs":[]},{"type":"error","name":"VaultGracePeriodNotPassed","inputs":[]},{"type":"error","name":"VaultWrongEpochDuration","inputs":[]},{"type":"error","name":"VetoDurationTooLong","inputs":[]},{"type":"error","name":"VetoDurationTooShort","inputs":[]}],"bytecode":{"object":"0x60a080604052346100c257306080525f516020613d285f395f51905f525460ff8160401c166100b3576002600160401b03196001600160401b03821601610060575b604051613c6190816100c78239608051818181611c610152611d3d0152f35b6001600160401b0319166001600160401b039081175f516020613d285f395f51905f525581527fc7f505b2f371ae2175ee4913f4499e1f2633a7b5936321eed1cdaeb6115181d290602090a15f80610041565b63f92ee8a960e01b5f5260045ffd5b5f80fdfe60806040526004361015610011575f80fd5b5f5f3560e01c806305c4fdf91461249e5780630a71094c146121f65780632633b70f146121425780632acde09814611fea578063373bba1f14611fb45780633ccce78914611f775780633d15e74e14611f4a5780634455a38f14611f17578063461e7a8e14611ee15780634f1ef28614611cb557806352d1902d14611c4e5780636c2eb350146118115780636d1064eb146117a45780636e5c793214611767578063709d06ae14611731578063715018a6146116c8578063729e2f36146115aa57806379a8b245146115745780637fbe95b5146111b157806386c241a1146111535780638da5cb5b1461111e578063936f4330146110e1578063945cf2dd146110ab57806396115bc214610fdf5780639e03231114610fb1578063ab12275314610849578063ad3cb1cc146107fc578063af962995146105e9578063b5e5ad1214610570578063bcf33934146103a0578063c639e2d614610372578063c9b0b1e91461033b578063ceebb69a1461030d578063d55a5bdf146102d3578063d8dfeb451461029a578063d99ddfc71461025c578063d99fcd661461022f578063f2fde38b146102025763f887ea40146101c7575f80fd5b346101ff57806003193601126101ff575f516020613c215f395f51905f5254600701546040516001600160a01b039091168152602090f35b80fd5b50346101ff5760203660031901126101ff5761022c61021f612e34565b61022761366b565b613444565b80f35b50346101ff57806003193601126101ff5761022c60125f516020613c215f395f51905f5254013390613565565b50346101ff5760403660031901126101ff57602061029261027b612e34565b610283612ec4565b9061028d826136ef565b613401565b604051908152f35b50346101ff57806003193601126101ff575f516020613c215f395f51905f5254600601546040516001600160a01b039091168152602090f35b50346101ff57806003193601126101ff5760206001600160401b0360035f516020613c215f395f51905f5254015460401c16604051908152f35b50346101ff57806003193601126101ff57602060045f516020613c215f395f51905f52540154604051908152f35b50346101ff57806003193601126101ff5760206001600160401b0360035f516020613c215f395f51905f5254015416604051908152f35b50346101ff57806003193601126101ff57602060055f516020613c215f395f51905f52540154604051908152f35b50346101ff57806003193601126101ff576101206040516103c081612e5e565b8281528260208201528260408201528260608201528260808201528260a08201528260c08201528260e08201528261010082015201526101405f516020613c215f395f51905f525460405161041481612e5e565b60018060a01b036008830154169182825260018060a01b036009820154166020830190815260018060a01b03600a830154166040840190815260018060a01b03600b840154166060850190815260018060a01b03600c850154166080860190815260018060a01b03600d860154169160a0870192835260018060a01b03600e870154169360c0880194855260018060a01b03600f880154169560e0890196875261012060018060a01b0360108a015416986101008b01998a52601160018060a01b03910154169901988952604051998a5260018060a01b0390511660208a015260018060a01b03905116604089015260018060a01b03905116606088015260018060a01b03905116608087015260018060a01b0390511660a086015260018060a01b0390511660c085015260018060a01b0390511660e084015260018060a01b0390511661010083015260018060a01b03905116610120820152f35b50346101ff5760203660031901126101ff576105ac90610596610591612eaf565b6132e0565b9091604051938493604085526040850190612ed9565b8381036020850152602080845192838152019301915b8181106105d0575050500390f35b82518452859450602093840193909201916001016105c2565b50346101ff5760203660031901126101ff576004356001600160401b0381116107f857366023820112156107f85780600401356001600160401b0381116107f4576024820191602436918360061b0101116107f4575f516020613c215f395f51905f5254601001546001600160a01b031633036107e5576020905f90845b818110610672578580f35b61067d818387612fc7565b5f516020613c215f395f51905f52549091906106bc906015016001600160a01b036106a785612f7e565b16906001915f520160205260405f2054151590565b156107d6576004856001600160a01b036106d585612f7e565b166040519283809263b134427160e01b82525afa9283156107cb576107439387928a9161079e575b50828a6040519361070e8386612e8e565b81855289368487013760405197889586948593635ca61c3760e11b855201356004840152604060248401526044830190612f2c565b03926001600160a01b03165af191821561079357600192610766575b5001610667565b61078590863d881161078c575b61077d8183612e8e565b81019061300a565b505f61075f565b503d610773565b6040513d89823e3d90fd5b6107be9150833d85116107c4575b6107b68183612e8e565b810190612feb565b5f6106fd565b503d6107ac565b6040513d8a823e3d90fd5b633b2fc1c360e21b8752600487fd5b632249f71f60e21b8352600483fd5b8280fd5b5080fd5b50346101ff57806003193601126101ff575061084560405161081f604082612e8e565b60058152640352e302e360dc1b6020820152604051918291602083526020830190612f2c565b0390f35b50346101ff576102e03660031901126101ff575f516020613c415f395f51905f52546001600160401b0360ff8260401c1615911680159081610fa9575b6001149081610f9f575b159081610f96575b50610f87578060016001600160401b03195f516020613c415f395f51905f525416175f516020613c415f395f51905f5255610f57575b6004356001600160a01b03811681036107f4576108f5906108ed613995565b610227613995565b60409081516109048382612e8e565b601f8152602081017f6d6964646c65776172652e73746f726167652e4d6964646c6577617265563100815261093761366b565b905190205f190183526020832060ff19165f516020613c215f395f51905f5281905560243565ffffffffffff81168103610f5357815465ffffffffffff191665ffffffffffff9182161782556044359081168103610f535781546bffffffffffff000000000000191660309190911b65ffffffffffff60301b1617815560643565ffffffffffff81168103610f5357815465ffffffffffff60601b191660609190911b65ffffffffffff60601b1617815560843565ffffffffffff81168103610f5357815465ffffffffffff60901b191660909190911b65ffffffffffff60901b1617815560a43565ffffffffffff81168103610f5357815465ffffffffffff60c01b191660c09190911b65ffffffffffff60c01b1617815560c43565ffffffffffff81168103610f535765ffffffffffff60018301911665ffffffffffff19825416178155600282019161012435835560e4356001600160401b0381168103610f4b576001600160401b036003830191166001600160401b0319825416178155610104356001600160401b0381168103610f4f5781546fffffffffffffffff0000000000000000191660409190911b67ffffffffffffffff60401b16179055610164356001600160a01b0381168103610f4b576006820180546001600160a01b0319166001600160a01b039283161790553060601b6004830155610144356005830155610184359081168103610f4b576007820180546001600160a01b0319166001600160a01b039283161790556101a4359081168103610f4b576008820180546001600160a01b0319166001600160a01b039283161790556101c4359081168103610f4b576009820180546001600160a01b0319166001600160a01b03909216919091179055610bc7612f50565b600a820180546001600160a01b0319166001600160a01b03909216919091179055610bf0612f67565b600b820180546001600160a01b0319166001600160a01b03928316179055610224359081168103610f4b57600c820180546001600160a01b0319166001600160a01b03928316179055610244359081168103610f4b57600d820180546001600160a01b0319166001600160a01b03928316179055610264359081168103610f4b57600e820180546001600160a01b0319166001600160a01b03928316179055610284359081168103610f4b57600f820180546001600160a01b0319166001600160a01b039283161790556102a4359081168103610f4b576010820180546001600160a01b0319166001600160a01b039283161790556102c4359081168103610f4b576011820180546001600160a01b0319166001600160a01b039283161790558690610d1a612f50565b16803b156107f85781809160048951809481936387140b5b60e01b83525af18015610f2c57610f36575b506001600160a01b03610d55612f67565b16803b156107f857818091602489518094819363b7d8e1a960e01b83523060048401525af18015610f2c57610f13575b5050549065ffffffffffff821615610f045765ffffffffffff8260301c16918060011b6601fffffffffffe65fffffffffffe821691168103610ef0578310610ee1578265ffffffffffff8260601c1610610ed2578265ffffffffffff8260901c1610610ec35760c01c65ffffffffffff16908115610eb4575465ffffffffffff16908115610ea55765ffffffffffff91610e1e91613019565b1611610e96576003905410610e8757610e35575080f35b60207fc7f505b2f371ae2175ee4913f4499e1f2633a7b5936321eed1cdaeb6115181d29160ff60401b195f516020613c415f395f51905f5254165f516020613c415f395f51905f52555160018152a180f35b634bd1214b60e11b8352600483fd5b63681d91d760e01b8452600484fd5b634c57479b60e11b8752600487fd5b63a46498b960e01b8752600487fd5b630ff9ae5960e11b8752600487fd5b630314153160e21b8752600487fd5b63395b39b960e21b8752600487fd5b634e487b7160e01b88526011600452602488fd5b6330e28a3960e11b8652600486fd5b81610f1d91612e8e565b610f2857855f610d85565b8580fd5b87513d84823e3d90fd5b81610f4091612e8e565b610f2857855f610d44565b8680fd5b8780fd5b8480fd5b600160401b60ff60401b195f516020613c415f395f51905f525416175f516020613c415f395f51905f52556108ce565b63f92ee8a960e01b8252600482fd5b9050155f610898565b303b159150610890565b829150610886565b50346101ff57806003193601126101ff57602060025f516020613c215f395f51905f52540154604051908152f35b50346101ff5760203660031901126101ff57610ff9612e34565b5f516020613c215f395f51905f52546001600160a01b0390911690601281019061104361102684846139c0565b65ffffffffffff81169165ffffffffffff8260301c169160601c90565b5065ffffffffffff811615929150821561107b575b505061106c57906110689161397b565b5080f35b63f1c9810160e01b8352600483fd5b65ffffffffffff9192506110a08291826110944261394c565b955460601c1690613019565b169116105f80611058565b50346101ff57806003193601126101ff57602065ffffffffffff5f516020613c215f395f51905f52545460301c16604051908152f35b50346101ff5760203660031901126101ff5761022c6110fe612e34565b611107816134b5565b60155f516020613c215f395f51905f5254016135ef565b50346101ff57806003193601126101ff575f516020613be15f395f51905f52546040516001600160a01b039091168152602090f35b50346101ff5760203660031901126101ff5761116d612e34565b5f516020613c215f395f51905f525460100180549091906001600160a01b031633036107e55781546001600160a01b0319166001600160a01b039190911617905580f35b50346101ff5760403660031901126101ff576004356001600160401b0381116107f857606060031982360301126107f857604051606081018181106001600160401b038211176115605760405281600401356001600160401b03811161155c5782013660238201121561155c57600481013561122c81612f15565b9161123a6040519384612e8e565b818352602060048185019360061b8301010190368211610f4b57602401915b8183106114fe57505050815261127c604460208301936024810135855201612e4a565b906040810191825261128c612ec4565b935f516020613c215f395f51905f525490600782019460018060a01b0386541633036114ef57845160068401546001600160a01b039182169116036114e057819594939550606093829565ffffffffffff60056015870196019916926020965b895180518a1015611499578961130191613063565b5180516001600160a01b03165f908152600189016020526040902054156107d657908b91866113ba8b6113ac8b61139a6113498f6110269060018060a01b038a5116906139c0565b9a546040516001600160a01b03909c169b925090506113688683612e8e565b838252604051936113798786612e8e565b845260405197889687015260408601526080606086015260a0850190612f2c565b838103601f1901608085015290612f2c565b03601f198101835282612e8e565b85548751838d0180519096909290916001600160a01b039081169116823b1561149557908c8094939261141a6040519788968795869463239723ed60e01b8652600486015260248501526044840152608060648401526084830190612f2c565b03925af1801561148a57908991611475575b50509161146d91600193519151604051926bffffffffffffffffffffffff199060601b168c840152603483015260348252611468605483612e8e565b6132a0565b9801976112ec565b8161147f91612e8e565b610f4f57875f61142c565b6040513d8b823e3d90fd5b8c80fd5b886114d286848651915160405192858401526bffffffffffffffffffffffff199060601b16604083015260348252611468605483612e8e565b818151910120604051908152f35b63039a1fd760e21b8252600482fd5b639165520160e01b8252600482fd5b604083360312610f4b57604051604081018181106001600160401b038211176115485791602091604093845261153386612e4a565b81528286013583820152815201920191611259565b634e487b7160e01b89526041600452602489fd5b8380fd5b634e487b7160e01b84526041600452602484fd5b50346101ff57806003193601126101ff57602065ffffffffffff5f516020613c215f395f51905f52545460901c16604051908152f35b50346101ff5760603660031901126101ff576115c4612e34565b5f516020613c215f395f51905f5254600781015460243592604435926001600160a01b0390921691338390036116b95760068101546001600160a01b03928316921682036116aa57600e01546001600160a01b031691859190833b156107f4576084908360405195869485936348a78da760e01b8552600485015260248401528860448401528760648401525af1801561169f5761168a575b602083836040519083820192835260408201526040815261167f606082612e8e565b519020604051908152f35b611695848092612e8e565b6107f4578261165d565b6040513d86823e3d90fd5b63039a1fd760e21b8652600486fd5b639165520160e01b8652600486fd5b50346101ff57806003193601126101ff576116e161366b565b5f516020613be15f395f51905f5280546001600160a01b0319811690915581906001600160a01b03167f8be0079c531659141344cd1fd0a4f28419497f9722a3daafe3b4186f6b6457e08280a380f35b50346101ff57806003193601126101ff57602065ffffffffffff5f516020613c215f395f51905f52545460601c16604051908152f35b50346101ff5760403660031901126101ff57610845611790611787612eaf565b60243590613084565b604051918291602083526020830190612ed9565b50346101ff5760203660031901126101ff576117be612e34565b5f516020613c215f395f51905f5254600f0180549091906001600160a01b031633036118025781546001600160a01b0319166001600160a01b039190911617905580f35b633fdc220360e01b8352600483fd5b50346101ff57806003193601126101ff5761182a61366b565b5f516020613c415f395f51905f525460ff8160401c16908115611c39575b50611c2a575f516020613c415f395f51905f52805468ffffffffffffffffff1916680100000000000000021790555f516020613be15f395f51905f525461189a906001600160a01b03166108ed613995565b5f516020613c215f395f51905f5254906040516118b8604082612e8e565b601f8152602081017f6d6964646c65776172652e73746f726167652e4d6964646c657761726556320081526118eb61366b565b905190205f190181526020812060ff19165f516020613c215f395f51905f528190558254815465ffffffffffff90911665ffffffffffff19821681178355845465ffffffffffff60301b166001600160601b031990921617178155918054835465ffffffffffff60601b191665ffffffffffff60601b9091161783558054835465ffffffffffff60901b191665ffffffffffff60901b9091161783558054835465ffffffffffff60c01b191665ffffffffffff60c01b90911617835565ffffffffffff60018201541665ffffffffffff60018501911665ffffffffffff1982541617905560028101546002840155611a28600382016001600160401b0380825416918160038801931682198454161783555460401c1667ffffffffffffffff60401b82549160401b169067ffffffffffffffff60401b1916179055565b60068181015490840180546001600160a01b039283166001600160a01b031991821617909155600480840154908601556005808401549086015560078084015490860180549190931691161790556008808401908201828503611b42575b50506012808401939290820191815b8354811015611abc5780611ab5611aae6001938761369e565b90896136cd565b5001611a95565b506015808501929101815b8154811015611aee5780611ae7611ae06001938561369e565b90876136cd565b5001611ac7565b8260ff60401b195f516020613c415f395f51905f5254165f516020613c415f395f51905f52557fc7f505b2f371ae2175ee4913f4499e1f2633a7b5936321eed1cdaeb6115181d2602060405160028152a180f35b5481546001600160a01b03199081166001600160a01b039283161790925560098381015490860180548416918316919091179055600a8084015490860180548416918316919091179055600b8084015490860180548416918316919091179055600c8084015490860180548416918316919091179055600d8084015490860180548416918316919091179055600e8084015490860180548416918316919091179055600f808401549086018054841691831691909117905560108084015490860180548416918316919091179055601180840154908601805490931691161790555f80611a86565b63f92ee8a960e01b8152600490fd5b600291506001600160401b031610155f611848565b50346101ff57806003193601126101ff577f00000000000000000000000000000000000000000000000000000000000000006001600160a01b03163003611ca65760206040515f516020613c015f395f51905f528152f35b63703e46dd60e11b8152600490fd5b5060403660031901126101ff57611cca612e34565b90602435916001600160401b0383116107f857366023840112156107f85782600401356001600160401b038111611ecd5760405193611d13601f8301601f191660200186612e8e565b818552366024838301011161155c5781849260246020930183880137850101526001600160a01b037f000000000000000000000000000000000000000000000000000000000000000016308114908115611eab575b50611e9c57611d7561366b565b6040516352d1902d60e01b8152926001600160a01b0382169190602085600481865afa80958596611e68575b50611dba57634c9c8ce360e01b84526004839052602484fd5b9091845f516020613c015f395f51905f528103611e565750823b15611e44575f516020613c015f395f51905f5280546001600160a01b031916821790557fbc7cd75a20ee27fd9adebab32041f755214dbc6bffa90cc0225b39da2e5c2d3b8480a2805115611e2b5761106891613a17565b505034611e355780f35b63b398979f60e01b8152600490fd5b634c9c8ce360e01b8452600452602483fd5b632a87526960e21b8552600452602484fd5b9095506020813d602011611e94575b81611e8460209383612e8e565b81010312610f535751945f611da1565b3d9150611e77565b63703e46dd60e11b8252600482fd5b5f516020613c015f395f51905f52546001600160a01b0316141590505f611d68565b634e487b7160e01b83526041600452602483fd5b50346101ff57806003193601126101ff57602065ffffffffffff5f516020613c215f395f51905f52545460c01c16604051908152f35b50346101ff57806003193601126101ff57602065ffffffffffff5f516020613c215f395f51905f52545416604051908152f35b50346101ff57806003193601126101ff5761022c60125f516020613c215f395f51905f52540133906135ef565b50346101ff5760203660031901126101ff5761022c611f94612e34565b611f9d816134b5565b60155f516020613c215f395f51905f525401613565565b50346101ff57806003193601126101ff57602065ffffffffffff60015f516020613c215f395f51905f5254015416604051908152f35b50346101ff57806003193601126101ff575f516020613c215f395f51905f525460098101546040516302910f8b60e31b815233600482015290602090829060249082906001600160a01b03165afa908115612109578391612123575b501561211457600c8101546040516308834cb560e21b815233600482015230602482015290602090829060449082906001600160a01b03165afa9081156121095783916120da575b50156120cb576120b49065ffffffffffff6120a84261394c565b169060123391016136cd565b156120bc5780f35b63f411c32760e01b8152600490fd5b6396cc2bc360e01b8252600482fd5b6120fc915060203d602011612102575b6120f48183612e8e565b81019061304b565b5f61208e565b503d6120ea565b6040513d85823e3d90fd5b6325878fa360e21b8252600482fd5b61213c915060203d602011612102576120f48183612e8e565b5f612046565b50346101ff5760203660031901126101ff5761215c612e34565b612165816134b5565b5f516020613c215f395f51905f52546001600160a01b0390911690601581019061219261102684846139c0565b5065ffffffffffff81161592915082156121c6575b50506121b757906110689161397b565b6347a11ef760e11b8352600483fd5b65ffffffffffff9192506121eb8291826121df4261394c565b955460901c1690613019565b169116105f806121a7565b50346101ff5760203660031901126101ff576001600160401b03600435116101ff573660236004350112156101ff576001600160401b0360043560040135116101ff573660246004356004013560051b6004350101116101ff575f516020613c215f395f51905f5254600f8101546001600160a01b0316330361248f5781906020905b6004356004013583101561248b5760248360051b600435010135608219600435360301811215610f535760043501906122d56001600160a01b036122bf60248501612f7e565b165f908152601383016020526040902054151590565b1561247c57845b6122ec6064840160248501612f92565b905081101561246f5761230f816123096064860160248701612f92565b90612fc7565b6123396001600160a01b0361232383612f7e565b165f908152601685016020526040902054151590565b156107d657869190600490866001600160a01b0361235683612f7e565b166040519384809263b134427160e01b82525afa91821561169f578492612450575b5060048501549161238b60248801612f7e565b604488013565ffffffffffff81169003610f2857889586946124106040516123b38882612e8e565b838152601f1988013689830137604051998a978896879563545ce38960e01b8752600487015260018060a01b031660248601520135604484015265ffffffffffff60448d013516606484015260a0608484015260a4830190612f2c565b03926001600160a01b03165af191821561079357600192612433575b50016122dc565b61244990863d881161078c5761077d8183612e8e565b505f61242c565b612468919250873d89116107c4576107b68183612e8e565b905f612378565b5092600191500191612279565b6303fa1eaf60e41b8552600485fd5b8380f35b633fdc220360e01b8252600482fd5b5034612b60576040366003190112612b60576124b8612e34565b6024356001600160a01b038116929190839003612b60576124d8816134b5565b5f516020613c215f395f51905f525460088101546040516302910f8b60e31b81526001600160a01b038085166004830181905294939260209183916024918391165afa908115612cf2575f91612e15575b5015612e065760405163054fd4d560e41b8152602081600481875afa908115612cf2575f91612de7575b5060038201906001600160401b0380835416911603612dd85760405163d8dfeb4560e01b8152602081600481885afa908115612cf2575f91612db9575b5060068301546001600160a01b03908116911603612daa576040516327f843b560e11b8152602081600481885afa908115612cf2575f91612d8b575b5065ffffffffffff80845460301c169116908110612d7c5760405163142186b760e21b8152602081600481895afa908115612cf2575f91612d5d575b5015612d4e57604051630ce9b79360e41b8152602081600481895afa908115612cf2575f91612d2f575b50600484810180546040516368adba0760e11b81529283015292916001600160a01b031690602081602481855afa908115612cf2575f91612cfd575b5019612ca0575b602060049160405192838092637f5a7c7b60e01b82525afa9081156107cb578891612c81575b506001600160a01b0316612c6f57604051630dd83c7f60e31b81526020816004818a5afa9081156107cb578891612c50575b5015612c415760405163b134427160e01b81526020816004818a5afa9081156107cb578891612c22575b50604051635d927f4560e11b81526001600160a01b039190911693602082600481885afa91821561148a578992612bf6575b506001600160401b0380915460401c16911603612be757604051631a684c7560e11b8152602081600481875afa9081156107cb578891612bc8575b50612bb95760405163e054e08b60e01b8152602081600481875afa9081156107cb578891612b8a575b5065ffffffffffff855460c01c1665ffffffffffff821610612b7b576127c165ffffffffffff918260018801541690613019565b1611612b6c5760405163bc6eac5b60e01b8152602081600481865afa908115610793578791612b36575b50600284015410612b275754906020926128438460405161280c8282612e8e565b898152601f19820195863684840137604051938492839263cd05b8a160e01b84526004840152604060248401526044830190612f2c565b0381865afa9081156107cb578891612b0a575b506001600160a01b031680612ae3575060110154604051926001600160a01b03909116906128848585612e8e565b8784523685850137813b15610f4b579186916128ca93836040518096819582946348b47ce960e11b84528460048501526024840152606060448401526064830190612f2c565b03925af18015612a3457908591612ace575b50505b6040516313c085b760e11b81528181600481875afa908115612a34578591612ab1575b506001600160a01b031615612aa2575f516020613c215f395f51905f52549260248260018060a01b03600d87015416604051928380926302910f8b60e31b82528b60048301525afa908115612a6b578691612a85575b5015612a765760405163411557d160e01b815282816004818a5afa908115612a6b578691612a4e575b506001600160a01b031603612a3f5760405163054fd4d560e41b81528181600481895afa918215612a3457916001600160401b03916002938792612a07575b505016036129f85760156120b4939465ffffffffffff6129df4261394c565b1660609190911b6001600160601b0319161792016136cd565b63ded51c0b60e01b8352600483fd5b612a269250803d10612a2d575b612a1e8183612e8e565b810190613528565b5f806129c0565b503d612a14565b6040513d87823e3d90fd5b630a724f6160e01b8452600484fd5b612a659150833d85116107c4576107b68183612e8e565b5f612981565b6040513d88823e3d90fd5b6346e01c4360e11b8552600485fd5b612a9c9150833d8511612102576120f48183612e8e565b5f612958565b630c6b5ff760e31b8452600484fd5b612ac89150823d84116107c4576107b68183612e8e565b5f612902565b81612ad891612e8e565b61155c57835f6128dc565b6011909101546001600160a01b03161491506128df905057633cc6586560e21b8452600484fd5b612b219150853d87116107c4576107b68183612e8e565b5f612856565b633a2662c360e11b8652600486fd5b90506020813d602011612b64575b81612b5160209383612e8e565b81010312612b6057515f6127eb565b5f80fd5b3d9150612b44565b6307cfe49360e51b8652600486fd5b633062eb1960e21b8852600488fd5b612bac915060203d602011612bb2575b612ba48183612e8e565b810190613547565b5f61278d565b503d612b9a565b63447984b360e11b8752600487fd5b612be1915060203d602011612102576120f48183612e8e565b5f612764565b63f8c618c760e01b8752600487fd5b6001600160401b03919250612c1a829160203d602011612a2d57612a1e8183612e8e565b929150612729565b612c3b915060203d6020116107c4576107b68183612e8e565b5f6126f7565b631501f36360e21b8752600487fd5b612c69915060203d602011612102576120f48183612e8e565b5f6126cd565b60016221bb1360e11b03198752600487fd5b612c9a915060203d6020116107c4576107b68183612e8e565b5f61269b565b803b15612b60576040516323f752d560e01b81525f600482018190525f1960248301528160448183865af18015612cf257612cdc575b50612675565b612ce99198505f90612e8e565b5f966020612cd6565b6040513d5f823e3d90fd5b90506020813d602011612d27575b81612d1860209383612e8e565b81010312612b6057515f61266e565b3d9150612d0b565b612d48915060203d6020116107c4576107b68183612e8e565b5f612632565b636e549c1760e11b5f5260045ffd5b612d76915060203d602011612102576120f48183612e8e565b5f612608565b634934476760e01b5f5260045ffd5b612da4915060203d602011612bb257612ba48183612e8e565b5f6125cc565b63039a1fd760e21b5f5260045ffd5b612dd2915060203d6020116107c4576107b68183612e8e565b5f612590565b63bfcdc45f60e01b5f5260045ffd5b612e00915060203d602011612a2d57612a1e8183612e8e565b5f612553565b635b19e4bb60e01b5f5260045ffd5b612e2e915060203d602011612102576120f48183612e8e565b5f612529565b600435906001600160a01b0382168203612b6057565b35906001600160a01b0382168203612b6057565b61014081019081106001600160401b03821117612e7a57604052565b634e487b7160e01b5f52604160045260245ffd5b90601f801991011681019081106001600160401b03821117612e7a57604052565b6004359065ffffffffffff82168203612b6057565b6024359065ffffffffffff82168203612b6057565b90602080835192838152019201905f5b818110612ef65750505090565b82516001600160a01b0316845260209384019390920191600101612ee9565b6001600160401b038111612e7a5760051b60200190565b805180835260209291819084018484015e5f828201840152601f01601f1916010190565b6101e4356001600160a01b0381168103612b605790565b610204356001600160a01b0381168103612b605790565b356001600160a01b0381168103612b605790565b903590601e1981360301821215612b6057018035906001600160401b038211612b6057602001918160061b36038313612b6057565b9190811015612fd75760061b0190565b634e487b7160e01b5f52603260045260245ffd5b90816020910312612b6057516001600160a01b0381168103612b605790565b90816020910312612b60575190565b9065ffffffffffff8091169116019065ffffffffffff821161303757565b634e487b7160e01b5f52601160045260245ffd5b90816020910312612b6057518015158103612b605790565b8051821015612fd75760209160051b010190565b9190820180921161303757565b91811561329157613094836132e0565b92815181811115613288575f5f198201828111925b8083106131af57505050506001945f19820190828211613037576130cd8287613063565b5183975b85518910156131a157816130e58a8a613063565b51036131015760018101809111613037576001909801976130d1565b9395975050909294505b6001821161311c575b505050815290565b604051602081019165ffffffffffff60d01b9060d01b16825260068152613144602682612e8e565b51902090801561318d57613159910683613077565b5f19810190811161303757613184906001600160a01b039061317b9086613063565b51169184613063565b525f8080613114565b634e487b7160e01b5f52601260045260245ffd5b93959750509092945061310b565b9296958792959891945f935b613037578685035f190186811161303757841015613275576131dd8489613063565b51600185019485811161303757858c826001946131fb8f9a8f613063565b511161320c575b50505001936131bb565b61326c918d61323c8361321f8784613063565b519261322b8282613063565b516132368983613063565b52613063565b52858060a01b0361324d8583613063565b511693613236878060a01b036132638585613063565b51169183613063565b525f8c82613202565b94919895600191979894935001916130a9565b50509150915090565b6314f867c760e21b5f5260045ffd5b6132de906020808095946040519684889551918291018487015e8401908282015f8152815193849201905e01015f815203601f198101845283612e8e565b565b906132ea826136ef565b60125f516020613c215f395f51905f52540180549261330884612f15565b916133166040519384612e8e565b848352601f1961332586612f15565b0136602085013761333585612f15565b946133436040519687612e8e565b808652601f1961335282612f15565b013660208801375f925f925b828410613372575050505080825283529190565b909192936133a76133ae84613387888661369e565b93909365ffffffffffff81169165ffffffffffff8260301c169160601c90565b5090613779565b156133f757836133d3916133c2848a613063565b6001600160a01b03821690526137d2565b6133dd828a613063565b526001810180911161303757600190945b0192919061335e565b50936001906133ee565b9061342d816133a761102660125f516020613c215f395f51905f52540160018060a01b038716906139c0565b1561343e5761343b916137d2565b90565b50505f90565b6001600160a01b031680156134a2575f516020613be15f395f51905f5280546001600160a01b0319811683179091556001600160a01b03167f8be0079c531659141344cd1fd0a4f28419497f9722a3daafe3b4186f6b6457e05f80a3565b631e4fbdf760e01b5f525f60045260245ffd5b604051632474521560e21b81525f600482015233602482015290602090829060449082906001600160a01b03165afa908115612cf2575f91613509575b50156134fa57565b630e7fea9d60e01b5f5260045ffd5b613522915060203d602011612102576120f48183612e8e565b5f6134f2565b90816020910312612b6057516001600160401b0381168103612b605790565b90816020910312612b60575165ffffffffffff81168103612b605790565b65ffffffffffff916135836110266001600160a01b038316846139c0565b91949094169384159081156135dd575b506135ce576135cb9365ffffffffffff60301b6135af4261394c565b60301b161760609190911b6001600160601b03191617916136cd565b50565b633f54562b60e11b5f5260045ffd5b65ffffffffffff91501615155f613593565b65ffffffffffff9161360d6110266001600160a01b038316846139c0565b949091161515908161365a575b5061364b576135cb9265ffffffffffff6136334261394c565b1660609190911b6001600160601b03191617916136cd565b637952fbad60e11b5f5260045ffd5b65ffffffffffff915016155f61361a565b5f516020613be15f395f51905f52546001600160a01b0316330361368b57565b63118cdaa760e01b5f523360045260245ffd5b91906136ac60029184613aa3565b90549060031b1c92835f520160205260405f20549160018060a01b03169190565b61343b929160018060a01b031691825f526002820160205260405f2055613b93565b5f516020613c215f395f51905f52549065ffffffffffff61370f4261394c565b1665ffffffffffff8216101561376257613746915465ffffffffffff808260601c169160901c168082105f14613771575090613019565b65ffffffffffff806137574261394c565b169116111561376257565b63686c69fd60e01b5f5260045ffd5b905090613019565b65ffffffffffff16801515929190836137bf575b508261379857505090565b65ffffffffffff16801592509082156137b057505090565b65ffffffffffff161115905090565b65ffffffffffff8316101592505f61378d565b5f516020613c215f395f51905f52546015810180546004909201545f95948694602093869391905b86881061380b575050505050505050565b90919293949596986133a7613824866133878d8661369e565b1561394257604051630ce9b79360e41b8152908890829060049082906001600160a01b03165afa908115612cf2576138c09189915f91613925575b506040519061386e8383612e8e565b5f825289368484013760405163e02f693760e01b8152600481018990526001600160a01b038816602482015265ffffffffffff8a16604482015260806064820152938492839182916084830190612f2c565b03916001600160a01b03165afa908115612cf2575f916138f7575b506138e890600192613077565b995b01969594939291906137fa565b90508781813d831161391e575b61390e8183612e8e565b81010312612b60575160016138db565b503d613904565b61393c9150823d84116107c4576107b68183612e8e565b5f61385f565b50986001906138ea565b65ffffffffffff81116139645765ffffffffffff1690565b6306dfcc6560e41b5f52603060045260245260445ffd5b9061343b91815f52600281016020525f6040812055613ab8565b60ff5f516020613c415f395f51905f525460401c16156139b157565b631afcd79f60e31b5f5260045ffd5b90805f526002820160205260405f20549181831591826139f7575b50506139e5575090565b63015ab34360e11b5f5260045260245ffd5b613a0f92506001915f520160205260405f2054151590565b15815f6139db565b905f8091602081519101845af48080613a90575b15613a4b5750506040513d81523d5f602083013e60203d82010160405290565b15613a7057639996b31560e01b5f9081526001600160a01b0391909116600452602490fd5b3d15613a81576040513d5f823e3d90fd5b63d6bda27560e01b5f5260045ffd5b503d151580613a2b5750813b1515613a2b565b8054821015612fd7575f5260205f2001905f90565b906001820191815f528260205260405f20548015155f14613b8b575f1981018181116130375782545f1981019190821161303757818103613b40575b50505080548015613b2c575f190190613b0d8282613aa3565b8154905f199060031b1b19169055555f526020525f6040812055600190565b634e487b7160e01b5f52603160045260245ffd5b613b76613b50613b609386613aa3565b90549060031b1c92839286613aa3565b819391549060031b91821b915f19901b19161790565b90555f528360205260405f20555f8080613af4565b505050505f90565b5f82815260018201602052604090205461343e57805490600160401b821015612e7a5782613bcb613b60846001809601855584613aa3565b90558054925f520160205260405f205560019056fe9016d09d72d40fdae2fd8ceac6b6234c7706214fd39c1cd1e609a0528c199300360894a13ba1a3210667c828492db98dca3e2076cc3735a920a3ca505d382bbc0b8c56af6cc9ad401ad225bfe96df77f3049ba17eadac1cb95ee89df1e69d100f0c57e16840df040f15088dc2f81fe391c3923bec73e23a9662efc9c229c6a00f0c57e16840df040f15088dc2f81fe391c3923bec73e23a9662efc9c229c6a00","linkReferences":{}},"methodIdentifiers":{"UPGRADE_INTERFACE_VERSION()":"ad3cb1cc","allowedVaultImplVersion()":"c9b0b1e9","changeSlashExecutor(address)":"86c241a1","changeSlashRequester(address)":"6d1064eb","collateral()":"d8dfeb45","disableOperator()":"d99fcd66","disableVault(address)":"3ccce789","distributeOperatorRewards(address,uint256,bytes32)":"729e2f36","distributeStakerRewards(((address,uint256)[],uint256,address),uint48)":"7fbe95b5","enableOperator()":"3d15e74e","enableVault(address)":"936f4330","eraDuration()":"4455a38f","executeSlash((address,uint256)[])":"af962995","getActiveOperatorsStakeAt(uint48)":"b5e5ad12","getOperatorStakeAt(address,uint48)":"d99ddfc7","initialize((address,uint48,uint48,uint48,uint48,uint48,uint48,uint64,uint64,uint256,uint256,address,address,(address,address,address,address,address,address,address,address,address,address)))":"ab122753","makeElectionAt(uint48,uint256)":"6e5c7932","maxAdminFee()":"c639e2d6","maxResolverSetEpochsDelay()":"9e032311","minSlashExecutionDelay()":"373bba1f","minVaultEpochDuration()":"945cf2dd","minVetoDuration()":"461e7a8e","operatorGracePeriod()":"709d06ae","owner()":"8da5cb5b","proxiableUUID()":"52d1902d","registerOperator()":"2acde098","registerVault(address,address)":"05c4fdf9","reinitialize()":"6c2eb350","renounceOwnership()":"715018a6","requestSlash((address,uint48,(address,uint256)[])[])":"0a71094c","router()":"f887ea40","subnetwork()":"ceebb69a","symbioticContracts()":"bcf33934","transferOwnership(address)":"f2fde38b","unregisterOperator(address)":"96115bc2","unregisterVault(address)":"2633b70f","upgradeToAndCall(address,bytes)":"4f1ef286","vaultGracePeriod()":"79a8b245","vetoSlasherImplType()":"d55a5bdf"},"storageLayout":{"storage":[],"types":{}},"id":159}