{"abi":[{"type":"constructor","inputs":[],"stateMutability":"nonpayable"},{"type":"function","name":"UPGRADE_INTERFACE_VERSION","inputs":[],"outputs":[{"name":"","type":"string","internalType":"string"}],"stateMutability":"view"},{"type":"function","name":"allowedVaultImplVersion","inputs":[],"outputs":[{"name":"","type":"uint64","internalType":"uint64"}],"stateMutability":"view"},{"type":"function","name":"changeSlashExecutor","inputs":[{"name":"newRole","type":"address","internalType":"address"}],"outputs":[],"stateMutability":"nonpayable"},{"type":"function","name":"changeSlashRequester","inputs":[{"name":"newRole","type":"address","internalType":"address"}],"outputs":[],"stateMutability":"nonpayable"},{"type":"function","name":"collateral","inputs":[],"outputs":[{"name":"","type":"address","internalType":"address"}],"stateMutability":"view"},{"type":"function","name":"disableOperator","inputs":[],"outputs":[],"stateMutability":"nonpayable"},{"type":"function","name":"disableVault","inputs":[{"name":"vault","type":"address","internalType":"address"}],"outputs":[],"stateMutability":"nonpayable"},{"type":"function","name":"distributeOperatorRewards","inputs":[{"name":"token","type":"address","internalType":"address"},{"name":"amount","type":"uint256","internalType":"uint256"},{"name":"root","type":"bytes32","internalType":"bytes32"}],"outputs":[{"name":"","type":"bytes32","internalType":"bytes32"}],"stateMutability":"nonpayable"},{"type":"function","name":"distributeStakerRewards","inputs":[{"name":"_commitment","type":"tuple","internalType":"struct Gear.StakerRewardsCommitment","components":[{"name":"distribution","type":"tuple[]","internalType":"struct Gear.StakerRewards[]","components":[{"name":"vault","type":"address","internalType":"address"},{"name":"amount","type":"uint256","internalType":"uint256"}]},{"name":"totalAmount","type":"uint256","internalType":"uint256"},{"name":"token","type":"address","internalType":"address"}]},{"name":"timestamp","type":"uint48","internalType":"uint48"}],"outputs":[{"name":"","type":"bytes32","internalType":"bytes32"}],"stateMutability":"nonpayable"},{"type":"function","name":"enableOperator","inputs":[],"outputs":[],"stateMutability":"nonpayable"},{"type":"function","name":"enableVault","inputs":[{"name":"vault","type":"address","internalType":"address"}],"outputs":[],"stateMutability":"nonpayable"},{"type":"function","name":"eraDuration","inputs":[],"outputs":[{"name":"","type":"uint48","internalType":"uint48"}],"stateMutability":"view"},{"type":"function","name":"executeSlash","inputs":[{"name":"slashes","type":"tuple[]","internalType":"struct IMiddleware.SlashIdentifier[]","components":[{"name":"vault","type":"address","internalType":"address"},{"name":"index","type":"uint256","internalType":"uint256"}]}],"outputs":[],"stateMutability":"nonpayable"},{"type":"function","name":"getActiveOperatorsStakeAt","inputs":[{"name":"ts","type":"uint48","internalType":"uint48"}],"outputs":[{"name":"activeOperators","type":"address[]","internalType":"address[]"},{"name":"stakes","type":"uint256[]","internalType":"uint256[]"}],"stateMutability":"view"},{"type":"function","name":"getOperatorStakeAt","inputs":[{"name":"operator","type":"address","internalType":"address"},{"name":"ts","type":"uint48","internalType":"uint48"}],"outputs":[{"name":"stake","type":"uint256","internalType":"uint256"}],"stateMutability":"view"},{"type":"function","name":"initialize","inputs":[{"name":"_params","type":"tuple","internalType":"struct IMiddleware.InitParams","components":[{"name":"owner","type":"address","internalType":"address"},{"name":"eraDuration","type":"uint48","internalType":"uint48"},{"name":"minVaultEpochDuration","type":"uint48","internalType":"uint48"},{"name":"operatorGracePeriod","type":"uint48","internalType":"uint48"},{"name":"vaultGracePeriod","type":"uint48","internalType":"uint48"},{"name":"minVetoDuration","type":"uint48","internalType":"uint48"},{"name":"minSlashExecutionDelay","type":"uint48","internalType":"uint48"},{"name":"allowedVaultImplVersion","type":"uint64","internalType":"uint64"},{"name":"vetoSlasherImplType","type":"uint64","internalType":"uint64"},{"name":"maxResolverSetEpochsDelay","type":"uint256","internalType":"uint256"},{"name":"maxAdminFee","type":"uint256","internalType":"uint256"},{"name":"collateral","type":"address","internalType":"address"},{"name":"router","type":"address","internalType":"address"},{"name":"symbiotic","type":"tuple","internalType":"struct Gear.SymbioticContracts","components":[{"name":"vaultRegistry","type":"address","internalType":"address"},{"name":"operatorRegistry","type":"address","internalType":"address"},{"name":"networkRegistry","type":"address","internalType":"address"},{"name":"middlewareService","type":"address","internalType":"address"},{"name":"networkOptIn","type":"address","internalType":"address"},{"name":"stakerRewardsFactory","type":"address","internalType":"address"},{"name":"operatorRewards","type":"address","internalType":"address"},{"name":"roleSlashRequester","type":"address","internalType":"address"},{"name":"roleSlashExecutor","type":"address","internalType":"address"},{"name":"vetoResolver","type":"address","internalType":"address"}]}]}],"outputs":[],"stateMutability":"nonpayable"},{"type":"function","name":"makeElectionAt","inputs":[{"name":"ts","type":"uint48","internalType":"uint48"},{"name":"maxValidators","type":"uint256","internalType":"uint256"}],"outputs":[{"name":"","type":"address[]","internalType":"address[]"}],"stateMutability":"view"},{"type":"function","name":"maxAdminFee","inputs":[],"outputs":[{"name":"","type":"uint256","internalType":"uint256"}],"stateMutability":"view"},{"type":"function","name":"maxResolverSetEpochsDelay","inputs":[],"outputs":[{"name":"","type":"uint256","internalType":"uint256"}],"stateMutability":"view"},{"type":"function","name":"minSlashExecutionDelay","inputs":[],"outputs":[{"name":"","type":"uint48","internalType":"uint48"}],"stateMutability":"view"},{"type":"function","name":"minVaultEpochDuration","inputs":[],"outputs":[{"name":"","type":"uint48","internalType":"uint48"}],"stateMutability":"view"},{"type":"function","name":"minVetoDuration","inputs":[],"outputs":[{"name":"","type":"uint48","internalType":"uint48"}],"stateMutability":"view"},{"type":"function","name":"operatorGracePeriod","inputs":[],"outputs":[{"name":"","type":"uint48","internalType":"uint48"}],"stateMutability":"view"},{"type":"function","name":"owner","inputs":[],"outputs":[{"name":"","type":"address","internalType":"address"}],"stateMutability":"view"},{"type":"function","name":"proxiableUUID","inputs":[],"outputs":[{"name":"","type":"bytes32","internalType":"bytes32"}],"stateMutability":"view"},{"type":"function","name":"registerOperator","inputs":[],"outputs":[],"stateMutability":"nonpayable"},{"type":"function","name":"registerVault","inputs":[{"name":"_vault","type":"address","internalType":"address"},{"name":"_rewards","type":"address","internalType":"address"}],"outputs":[],"stateMutability":"nonpayable"},{"type":"function","name":"reinitialize","inputs":[],"outputs":[],"stateMutability":"nonpayable"},{"type":"function","name":"renounceOwnership","inputs":[],"outputs":[],"stateMutability":"nonpayable"},{"type":"function","name":"requestSlash","inputs":[{"name":"data","type":"tuple[]","internalType":"struct IMiddleware.SlashData[]","components":[{"name":"operator","type":"address","internalType":"address"},{"name":"ts","type":"uint48","internalType":"uint48"},{"name":"vaults","type":"tuple[]","internalType":"struct IMiddleware.VaultSlashData[]","components":[{"name":"vault","type":"address","internalType":"address"},{"name":"amount","type":"uint256","internalType":"uint256"}]}]}],"outputs":[],"stateMutability":"nonpayable"},{"type":"function","name":"router","inputs":[],"outputs":[{"name":"","type":"address","internalType":"address"}],"stateMutability":"view"},{"type":"function","name":"subnetwork","inputs":[],"outputs":[{"name":"","type":"bytes32","internalType":"bytes32"}],"stateMutability":"view"},{"type":"function","name":"symbioticContracts","inputs":[],"outputs":[{"name":"","type":"tuple","internalType":"struct Gear.SymbioticContracts","components":[{"name":"vaultRegistry","type":"address","internalType":"address"},{"name":"operatorRegistry","type":"address","internalType":"address"},{"name":"networkRegistry","type":"address","internalType":"address"},{"name":"middlewareService","type":"address","internalType":"address"},{"name":"networkOptIn","type":"address","internalType":"address"},{"name":"stakerRewardsFactory","type":"address","internalType":"address"},{"name":"operatorRewards","type":"address","internalType":"address"},{"name":"roleSlashRequester","type":"address","internalType":"address"},{"name":"roleSlashExecutor","type":"address","internalType":"address"},{"name":"vetoResolver","type":"address","internalType":"address"}]}],"stateMutability":"view"},{"type":"function","name":"transferOwnership","inputs":[{"name":"newOwner","type":"address","internalType":"address"}],"outputs":[],"stateMutability":"nonpayable"},{"type":"function","name":"unregisterOperator","inputs":[{"name":"operator","type":"address","internalType":"address"}],"outputs":[],"stateMutability":"nonpayable"},{"type":"function","name":"unregisterVault","inputs":[{"name":"vault","type":"address","internalType":"address"}],"outputs":[],"stateMutability":"nonpayable"},{"type":"function","name":"upgradeToAndCall","inputs":[{"name":"newImplementation","type":"address","internalType":"address"},{"name":"data","type":"bytes","internalType":"bytes"}],"outputs":[],"stateMutability":"payable"},{"type":"function","name":"vaultGracePeriod","inputs":[],"outputs":[{"name":"","type":"uint48","internalType":"uint48"}],"stateMutability":"view"},{"type":"function","name":"vetoSlasherImplType","inputs":[],"outputs":[{"name":"","type":"uint64","internalType":"uint64"}],"stateMutability":"view"},{"type":"event","name":"Initialized","inputs":[{"name":"version","type":"uint64","indexed":false,"internalType":"uint64"}],"anonymous":false},{"type":"event","name":"OwnershipTransferred","inputs":[{"name":"previousOwner","type":"address","indexed":true,"internalType":"address"},{"name":"newOwner","type":"address","indexed":true,"internalType":"address"}],"anonymous":false},{"type":"event","name":"Upgraded","inputs":[{"name":"implementation","type":"address","indexed":true,"internalType":"address"}],"anonymous":false},{"type":"error","name":"AddressEmptyCode","inputs":[{"name":"target","type":"address","internalType":"address"}]},{"type":"error","name":"AlreadyAdded","inputs":[]},{"type":"error","name":"AlreadyEnabled","inputs":[]},{"type":"error","name":"BurnerHookNotSupported","inputs":[]},{"type":"error","name":"DelegatorNotInitialized","inputs":[]},{"type":"error","name":"ERC1967InvalidImplementation","inputs":[{"name":"implementation","type":"address","internalType":"address"}]},{"type":"error","name":"ERC1967NonPayable","inputs":[]},{"type":"error","name":"EnumerableMapNonexistentKey","inputs":[{"name":"key","type":"bytes32","internalType":"bytes32"}]},{"type":"error","name":"EraDurationMustBeGreaterThanZero","inputs":[]},{"type":"error","name":"FailedCall","inputs":[]},{"type":"error","name":"IncompatibleSlasherType","inputs":[]},{"type":"error","name":"IncompatibleStakerRewardsVersion","inputs":[]},{"type":"error","name":"IncompatibleVaultVersion","inputs":[]},{"type":"error","name":"IncorrectTimestamp","inputs":[]},{"type":"error","name":"InvalidInitialization","inputs":[]},{"type":"error","name":"InvalidStakerRewardsVault","inputs":[]},{"type":"error","name":"MaxValidatorsMustBeGreaterThanZero","inputs":[]},{"type":"error","name":"MinSlashExecutionDelayMustBeGreaterThanZero","inputs":[]},{"type":"error","name":"MinVaultEpochDurationLessThanTwoEras","inputs":[]},{"type":"error","name":"MinVetoAndSlashDelayTooLongForVaultEpoch","inputs":[]},{"type":"error","name":"MinVetoDurationMustBeGreaterThanZero","inputs":[]},{"type":"error","name":"NonFactoryStakerRewards","inputs":[]},{"type":"error","name":"NonFactoryVault","inputs":[]},{"type":"error","name":"NotEnabled","inputs":[]},{"type":"error","name":"NotInitializing","inputs":[]},{"type":"error","name":"NotRegisteredOperator","inputs":[]},{"type":"error","name":"NotRegisteredVault","inputs":[]},{"type":"error","name":"NotRouter","inputs":[]},{"type":"error","name":"NotSlashExecutor","inputs":[]},{"type":"error","name":"NotSlashRequester","inputs":[]},{"type":"error","name":"NotVaultOwner","inputs":[]},{"type":"error","name":"OperatorDoesNotExist","inputs":[]},{"type":"error","name":"OperatorDoesNotOptIn","inputs":[]},{"type":"error","name":"OperatorGracePeriodLessThanMinVaultEpochDuration","inputs":[]},{"type":"error","name":"OperatorGracePeriodNotPassed","inputs":[]},{"type":"error","name":"OwnableInvalidOwner","inputs":[{"name":"owner","type":"address","internalType":"address"}]},{"type":"error","name":"OwnableUnauthorizedAccount","inputs":[{"name":"account","type":"address","internalType":"address"}]},{"type":"error","name":"ReentrancyGuardReentrantCall","inputs":[]},{"type":"error","name":"ResolverMismatch","inputs":[]},{"type":"error","name":"ResolverSetDelayMustBeAtLeastThree","inputs":[]},{"type":"error","name":"ResolverSetDelayTooLong","inputs":[]},{"type":"error","name":"SafeCastOverflowedUintDowncast","inputs":[{"name":"bits","type":"uint8","internalType":"uint8"},{"name":"value","type":"uint256","internalType":"uint256"}]},{"type":"error","name":"SlasherNotInitialized","inputs":[]},{"type":"error","name":"UUPSUnauthorizedCallContext","inputs":[]},{"type":"error","name":"UUPSUnsupportedProxiableUUID","inputs":[{"name":"slot","type":"bytes32","internalType":"bytes32"}]},{"type":"error","name":"UnknownCollateral","inputs":[]},{"type":"error","name":"UnsupportedBurner","inputs":[]},{"type":"error","name":"UnsupportedDelegatorHook","inputs":[]},{"type":"error","name":"VaultGracePeriodLessThanMinVaultEpochDuration","inputs":[]},{"type":"error","name":"VaultGracePeriodNotPassed","inputs":[]},{"type":"error","name":"VaultWrongEpochDuration","inputs":[]},{"type":"error","name":"VetoDurationTooLong","inputs":[]},{"type":"error","name":"VetoDurationTooShort","inputs":[]}],"bytecode":{"object":"0x60a080604052346100c257306080525f516020613d365f395f51905f525460ff8160401c166100b3576002600160401b03196001600160401b03821601610060575b604051613c6f90816100c78239608051818181611c690152611d380152f35b6001600160401b0319166001600160401b039081175f516020613d365f395f51905f525581527fc7f505b2f371ae2175ee4913f4499e1f2633a7b5936321eed1cdaeb6115181d290602090a15f80610041565b63f92ee8a960e01b5f5260045ffd5b5f80fdfe60806040526004361015610011575f80fd5b5f5f3560e01c806305c4fdf9146124bf5780630a71094c146122175780632633b70f146121635780632acde0981461200b578063373bba1f14611fd55780633ccce78914611f985780633d15e74e14611f6b5780634455a38f14611f38578063461e7a8e14611f025780634f1ef28614611cbd57806352d1902d14611c565780636c2eb350146118195780636d1064eb146117ac5780636e5c79321461176f578063709d06ae14611739578063715018a6146116d0578063729e2f36146115b257806379a8b2451461157c5780637fbe95b5146111b957806386c241a11461115b5780638da5cb5b14611126578063936f4330146110e9578063945cf2dd146110b357806396115bc214610fe75780639e03231114610fb9578063ab12275314610849578063ad3cb1cc146107fc578063af962995146105e9578063b5e5ad1214610570578063bcf33934146103a0578063c639e2d614610372578063c9b0b1e91461033b578063ceebb69a1461030d578063d55a5bdf146102d3578063d8dfeb451461029a578063d99ddfc71461025c578063d99fcd661461022f578063f2fde38b146102025763f887ea40146101c7575f80fd5b346101ff57806003193601126101ff575f516020613c2f5f395f51905f5254600701546040516001600160a01b039091168152602090f35b80fd5b50346101ff5760203660031901126101ff5761022c61021f612e55565b6102276136a7565b613480565b80f35b50346101ff57806003193601126101ff5761022c60125f516020613c2f5f395f51905f52540133906135a1565b50346101ff5760403660031901126101ff57602061029261027b612e55565b610283612f00565b9061028d8261372b565b61343d565b604051908152f35b50346101ff57806003193601126101ff575f516020613c2f5f395f51905f5254600601546040516001600160a01b039091168152602090f35b50346101ff57806003193601126101ff5760206001600160401b0360035f516020613c2f5f395f51905f5254015460401c16604051908152f35b50346101ff57806003193601126101ff57602060045f516020613c2f5f395f51905f52540154604051908152f35b50346101ff57806003193601126101ff5760206001600160401b0360035f516020613c2f5f395f51905f5254015416604051908152f35b50346101ff57806003193601126101ff57602060055f516020613c2f5f395f51905f52540154604051908152f35b50346101ff57806003193601126101ff576101206040516103c081612e7f565b8281528260208201528260408201528260608201528260808201528260a08201528260c08201528260e08201528261010082015201526101405f516020613c2f5f395f51905f525460405161041481612e7f565b60018060a01b036008830154169182825260018060a01b036009820154166020830190815260018060a01b03600a830154166040840190815260018060a01b03600b840154166060850190815260018060a01b03600c850154166080860190815260018060a01b03600d860154169160a0870192835260018060a01b03600e870154169360c0880194855260018060a01b03600f880154169560e0890196875261012060018060a01b0360108a015416986101008b01998a52601160018060a01b03910154169901988952604051998a5260018060a01b0390511660208a015260018060a01b03905116604089015260018060a01b03905116606088015260018060a01b03905116608087015260018060a01b0390511660a086015260018060a01b0390511660c085015260018060a01b0390511660e084015260018060a01b0390511661010083015260018060a01b03905116610120820152f35b50346101ff5760203660031901126101ff576105ac90610596610591612eeb565b61331c565b9091604051938493604085526040850190612f15565b8381036020850152602080845192838152019301915b8181106105d0575050500390f35b82518452859450602093840193909201916001016105c2565b50346101ff5760203660031901126101ff576004356001600160401b0381116107f857366023820112156107f85780600401356001600160401b0381116107f4576024820191602436918360061b0101116107f4575f516020613c2f5f395f51905f5254601001546001600160a01b031633036107e5576020905f90845b818110610672578580f35b61067d818387613003565b5f516020613c2f5f395f51905f52549091906106bc906015016001600160a01b036106a785612fba565b16906001915f520160205260405f2054151590565b156107d6576004856001600160a01b036106d585612fba565b166040519283809263b134427160e01b82525afa9283156107cb576107439387928a9161079e575b50828a6040519361070e8386612eaf565b81855289368487013760405197889586948593635ca61c3760e11b855201356004840152604060248401526044830190612f68565b03926001600160a01b03165af191821561079357600192610766575b5001610667565b61078590863d881161078c575b61077d8183612eaf565b810190613046565b505f61075f565b503d610773565b6040513d89823e3d90fd5b6107be9150833d85116107c4575b6107b68183612eaf565b810190613027565b5f6106fd565b503d6107ac565b6040513d8a823e3d90fd5b633b2fc1c360e21b8752600487fd5b632249f71f60e21b8352600483fd5b8280fd5b5080fd5b50346101ff57806003193601126101ff575061084560405161081f604082612eaf565b60058152640352e302e360dc1b6020820152604051918291602083526020830190612f68565b0390f35b50346101ff576102e03660031901126101ff575f516020613c4f5f395f51905f52546001600160401b0360ff8260401c1615911680159081610fb1575b6001149081610fa7575b159081610f9e575b50610f8f578060016001600160401b03195f516020613c4f5f395f51905f525416175f516020613c4f5f395f51905f5255610f5f575b6004356001600160a01b03811681036107f4576108f5906108ed6139d1565b6102276139d1565b6108fd6139d1565b604090815161090c8382612eaf565b601f8152602081017f6d6964646c65776172652e73746f726167652e4d6964646c6577617265563100815261093f6136a7565b905190205f190183526020832060ff19165f516020613c2f5f395f51905f5281905560243565ffffffffffff81168103610f5b57815465ffffffffffff191665ffffffffffff9182161782556044359081168103610f5b5781546bffffffffffff000000000000191660309190911b65ffffffffffff60301b1617815560643565ffffffffffff81168103610f5b57815465ffffffffffff60601b191660609190911b65ffffffffffff60601b1617815560843565ffffffffffff81168103610f5b57815465ffffffffffff60901b191660909190911b65ffffffffffff60901b1617815560a43565ffffffffffff81168103610f5b57815465ffffffffffff60c01b191660c09190911b65ffffffffffff60c01b1617815560c43565ffffffffffff81168103610f5b5765ffffffffffff60018301911665ffffffffffff19825416178155600282019161012435835560e4356001600160401b0381168103610f53576001600160401b036003830191166001600160401b0319825416178155610104356001600160401b0381168103610f575781546fffffffffffffffff0000000000000000191660409190911b67ffffffffffffffff60401b16179055610164356001600160a01b0381168103610f53576006820180546001600160a01b0319166001600160a01b039283161790553060601b6004830155610144356005830155610184359081168103610f53576007820180546001600160a01b0319166001600160a01b039283161790556101a4359081168103610f53576008820180546001600160a01b0319166001600160a01b039283161790556101c4359081168103610f53576009820180546001600160a01b0319166001600160a01b03909216919091179055610bcf612f8c565b600a820180546001600160a01b0319166001600160a01b03909216919091179055610bf8612fa3565b600b820180546001600160a01b0319166001600160a01b03928316179055610224359081168103610f5357600c820180546001600160a01b0319166001600160a01b03928316179055610244359081168103610f5357600d820180546001600160a01b0319166001600160a01b03928316179055610264359081168103610f5357600e820180546001600160a01b0319166001600160a01b03928316179055610284359081168103610f5357600f820180546001600160a01b0319166001600160a01b039283161790556102a4359081168103610f53576010820180546001600160a01b0319166001600160a01b039283161790556102c4359081168103610f53576011820180546001600160a01b0319166001600160a01b039283161790558690610d22612f8c565b16803b156107f85781809160048951809481936387140b5b60e01b83525af18015610f3457610f3e575b506001600160a01b03610d5d612fa3565b16803b156107f857818091602489518094819363b7d8e1a960e01b83523060048401525af18015610f3457610f1b575b5050549065ffffffffffff821615610f0c5765ffffffffffff8260301c16918060011b6601fffffffffffe65fffffffffffe821691168103610ef8578310610ee9578265ffffffffffff8260601c1610610eda578265ffffffffffff8260901c1610610ecb5760c01c65ffffffffffff16908115610ebc575465ffffffffffff16908115610ead5765ffffffffffff91610e2691613055565b1611610e9e576003905410610e8f57610e3d575080f35b60207fc7f505b2f371ae2175ee4913f4499e1f2633a7b5936321eed1cdaeb6115181d29160ff60401b195f516020613c4f5f395f51905f5254165f516020613c4f5f395f51905f52555160018152a180f35b634bd1214b60e11b8352600483fd5b63681d91d760e01b8452600484fd5b634c57479b60e11b8752600487fd5b63a46498b960e01b8752600487fd5b630ff9ae5960e11b8752600487fd5b630314153160e21b8752600487fd5b63395b39b960e21b8752600487fd5b634e487b7160e01b88526011600452602488fd5b6330e28a3960e11b8652600486fd5b81610f2591612eaf565b610f3057855f610d8d565b8580fd5b87513d84823e3d90fd5b81610f4891612eaf565b610f3057855f610d4c565b8680fd5b8780fd5b8480fd5b600160401b60ff60401b195f516020613c4f5f395f51905f525416175f516020613c4f5f395f51905f52556108ce565b63f92ee8a960e01b8252600482fd5b9050155f610898565b303b159150610890565b829150610886565b50346101ff57806003193601126101ff57602060025f516020613c2f5f395f51905f52540154604051908152f35b50346101ff5760203660031901126101ff57611001612e55565b5f516020613c2f5f395f51905f52546001600160a01b0390911690601281019061104b61102e84846139fc565b65ffffffffffff81169165ffffffffffff8260301c169160601c90565b5065ffffffffffff8116159291508215611083575b50506110745790611070916139b7565b5080f35b63f1c9810160e01b8352600483fd5b65ffffffffffff9192506110a882918261109c42613988565b955460601c1690613055565b169116105f80611060565b50346101ff57806003193601126101ff57602065ffffffffffff5f516020613c2f5f395f51905f52545460301c16604051908152f35b50346101ff5760203660031901126101ff5761022c611106612e55565b61110f816134f1565b60155f516020613c2f5f395f51905f52540161362b565b50346101ff57806003193601126101ff575f516020613bef5f395f51905f52546040516001600160a01b039091168152602090f35b50346101ff5760203660031901126101ff57611175612e55565b5f516020613c2f5f395f51905f525460100180549091906001600160a01b031633036107e55781546001600160a01b0319166001600160a01b039190911617905580f35b50346101ff5760403660031901126101ff576004356001600160401b0381116107f857606060031982360301126107f857604051606081018181106001600160401b038211176115685760405281600401356001600160401b0381116115645782013660238201121561156457600481013561123481612f51565b916112426040519384612eaf565b818352602060048185019360061b8301010190368211610f5357602401915b818310611506575050508152611284604460208301936024810135855201612e6b565b9060408101918252611294612f00565b935f516020613c2f5f395f51905f525490600782019460018060a01b0386541633036114f757845160068401546001600160a01b039182169116036114e857819594939550606093829565ffffffffffff60056015870196019916926020965b895180518a10156114a157896113099161309f565b5180516001600160a01b03165f908152600189016020526040902054156107d657908b91866113c28b6113b48b6113a26113518f61102e9060018060a01b038a5116906139fc565b9a546040516001600160a01b03909c169b925090506113708683612eaf565b838252604051936113818786612eaf565b845260405197889687015260408601526080606086015260a0850190612f68565b838103601f1901608085015290612f68565b03601f198101835282612eaf565b85548751838d0180519096909290916001600160a01b039081169116823b1561149d57908c809493926114226040519788968795869463239723ed60e01b8652600486015260248501526044840152608060648401526084830190612f68565b03925af180156114925790899161147d575b50509161147591600193519151604051926bffffffffffffffffffffffff199060601b168c840152603483015260348252611470605483612eaf565b6132dc565b9801976112f4565b8161148791612eaf565b610f5757875f611434565b6040513d8b823e3d90fd5b8c80fd5b886114da86848651915160405192858401526bffffffffffffffffffffffff199060601b16604083015260348252611470605483612eaf565b818151910120604051908152f35b63039a1fd760e21b8252600482fd5b639165520160e01b8252600482fd5b604083360312610f5357604051604081018181106001600160401b038211176115505791602091604093845261153b86612e6b565b81528286013583820152815201920191611261565b634e487b7160e01b89526041600452602489fd5b8380fd5b634e487b7160e01b84526041600452602484fd5b50346101ff57806003193601126101ff57602065ffffffffffff5f516020613c2f5f395f51905f52545460901c16604051908152f35b50346101ff5760603660031901126101ff576115cc612e55565b5f516020613c2f5f395f51905f5254600781015460243592604435926001600160a01b0390921691338390036116c15760068101546001600160a01b03928316921682036116b257600e01546001600160a01b031691859190833b156107f4576084908360405195869485936348a78da760e01b8552600485015260248401528860448401528760648401525af180156116a757611692575b6020838360405190838201928352604082015260408152611687606082612eaf565b519020604051908152f35b61169d848092612eaf565b6107f45782611665565b6040513d86823e3d90fd5b63039a1fd760e21b8652600486fd5b639165520160e01b8652600486fd5b50346101ff57806003193601126101ff576116e96136a7565b5f516020613bef5f395f51905f5280546001600160a01b0319811690915581906001600160a01b03167f8be0079c531659141344cd1fd0a4f28419497f9722a3daafe3b4186f6b6457e08280a380f35b50346101ff57806003193601126101ff57602065ffffffffffff5f516020613c2f5f395f51905f52545460601c16604051908152f35b50346101ff5760403660031901126101ff5761084561179861178f612eeb565b602435906130c0565b604051918291602083526020830190612f15565b50346101ff5760203660031901126101ff576117c6612e55565b5f516020613c2f5f395f51905f5254600f0180549091906001600160a01b0316330361180a5781546001600160a01b0319166001600160a01b039190911617905580f35b633fdc220360e01b8352600483fd5b50346101ff57806003193601126101ff576118326136a7565b5f516020613c4f5f395f51905f525460ff8160401c16908115611c41575b50611c32575f516020613c4f5f395f51905f52805468ffffffffffffffffff1916680100000000000000021790555f516020613bef5f395f51905f52546118a2906001600160a01b03166108ed6139d1565b5f516020613c2f5f395f51905f5254906040516118c0604082612eaf565b601f8152602081017f6d6964646c65776172652e73746f726167652e4d6964646c657761726556320081526118f36136a7565b905190205f190181526020812060ff19165f516020613c2f5f395f51905f528190558254815465ffffffffffff90911665ffffffffffff19821681178355845465ffffffffffff60301b166001600160601b031990921617178155918054835465ffffffffffff60601b191665ffffffffffff60601b9091161783558054835465ffffffffffff60901b191665ffffffffffff60901b9091161783558054835465ffffffffffff60c01b191665ffffffffffff60c01b90911617835565ffffffffffff60018201541665ffffffffffff60018501911665ffffffffffff1982541617905560028101546002840155611a30600382016001600160401b0380825416918160038801931682198454161783555460401c1667ffffffffffffffff60401b82549160401b169067ffffffffffffffff60401b1916179055565b60068181015490840180546001600160a01b039283166001600160a01b031991821617909155600480840154908601556005808401549086015560078084015490860180549190931691161790556008808401908201828503611b4a575b50506012808401939290820191815b8354811015611ac45780611abd611ab6600193876136da565b9089613709565b5001611a9d565b506015808501929101815b8154811015611af65780611aef611ae8600193856136da565b9087613709565b5001611acf565b8260ff60401b195f516020613c4f5f395f51905f5254165f516020613c4f5f395f51905f52557fc7f505b2f371ae2175ee4913f4499e1f2633a7b5936321eed1cdaeb6115181d2602060405160028152a180f35b5481546001600160a01b03199081166001600160a01b039283161790925560098381015490860180548416918316919091179055600a8084015490860180548416918316919091179055600b8084015490860180548416918316919091179055600c8084015490860180548416918316919091179055600d8084015490860180548416918316919091179055600e8084015490860180548416918316919091179055600f808401549086018054841691831691909117905560108084015490860180548416918316919091179055601180840154908601805490931691161790555f80611a8e565b63f92ee8a960e01b8152600490fd5b600291506001600160401b031610155f611850565b50346101ff57806003193601126101ff577f00000000000000000000000000000000000000000000000000000000000000006001600160a01b03163003611cae5760206040515f516020613c0f5f395f51905f528152f35b63703e46dd60e11b8152600490fd5b5060403660031901126101ff57611cd2612e55565b602435906001600160401b0382116107f457366023830112156107f45781600401359083611cff83612ed0565b93611d0d6040519586612eaf565b838552602085019336602482840101116107f457806024602093018637850101526001600160a01b037f000000000000000000000000000000000000000000000000000000000000000016308114908115611ee0575b50611ed157611d706136a7565b6040516352d1902d60e01b81526001600160a01b0382169390602081600481885afa869181611e9d575b50611db357634c9c8ce360e01b86526004859052602486fd5b93845f516020613c0f5f395f51905f52879603611e8b5750823b15611e79575f516020613c0f5f395f51905f5280546001600160a01b031916821790558491907fbc7cd75a20ee27fd9adebab32041f755214dbc6bffa90cc0225b39da2e5c2d3b8380a2805115611e5e576110709382915190845af43d15611e56573d91611e3a83612ed0565b92611e486040519485612eaf565b83523d85602085013e613b43565b606091613b43565b5050505034611e6a5780f35b63b398979f60e01b8152600490fd5b634c9c8ce360e01b8552600452602484fd5b632a87526960e21b8652600452602485fd5b9091506020813d602011611ec9575b81611eb960209383612eaf565b81010312610f535751905f611d9a565b3d9150611eac565b63703e46dd60e11b8452600484fd5b5f516020613c0f5f395f51905f52546001600160a01b0316141590505f611d63565b50346101ff57806003193601126101ff57602065ffffffffffff5f516020613c2f5f395f51905f52545460c01c16604051908152f35b50346101ff57806003193601126101ff57602065ffffffffffff5f516020613c2f5f395f51905f52545416604051908152f35b50346101ff57806003193601126101ff5761022c60125f516020613c2f5f395f51905f525401339061362b565b50346101ff5760203660031901126101ff5761022c611fb5612e55565b611fbe816134f1565b60155f516020613c2f5f395f51905f5254016135a1565b50346101ff57806003193601126101ff57602065ffffffffffff60015f516020613c2f5f395f51905f5254015416604051908152f35b50346101ff57806003193601126101ff575f516020613c2f5f395f51905f525460098101546040516302910f8b60e31b815233600482015290602090829060249082906001600160a01b03165afa90811561212a578391612144575b501561213557600c8101546040516308834cb560e21b815233600482015230602482015290602090829060449082906001600160a01b03165afa90811561212a5783916120fb575b50156120ec576120d59065ffffffffffff6120c942613988565b16906012339101613709565b156120dd5780f35b63f411c32760e01b8152600490fd5b6396cc2bc360e01b8252600482fd5b61211d915060203d602011612123575b6121158183612eaf565b810190613087565b5f6120af565b503d61210b565b6040513d85823e3d90fd5b6325878fa360e21b8252600482fd5b61215d915060203d602011612123576121158183612eaf565b5f612067565b50346101ff5760203660031901126101ff5761217d612e55565b612186816134f1565b5f516020613c2f5f395f51905f52546001600160a01b039091169060158101906121b361102e84846139fc565b5065ffffffffffff81161592915082156121e7575b50506121d85790611070916139b7565b6347a11ef760e11b8352600483fd5b65ffffffffffff91925061220c82918261220042613988565b955460901c1690613055565b169116105f806121c8565b50346101ff5760203660031901126101ff576001600160401b03600435116101ff573660236004350112156101ff576001600160401b0360043560040135116101ff573660246004356004013560051b6004350101116101ff575f516020613c2f5f395f51905f5254600f8101546001600160a01b031633036124b05781906020905b600435600401358310156124ac5760248360051b600435010135608219600435360301811215610f5b5760043501906122f66001600160a01b036122e060248501612fba565b165f908152601383016020526040902054151590565b1561249d57845b61230d6064840160248501612fce565b9050811015612490576123308161232a6064860160248701612fce565b90613003565b61235a6001600160a01b0361234483612fba565b165f908152601685016020526040902054151590565b156107d657869190600490866001600160a01b0361237783612fba565b166040519384809263b134427160e01b82525afa9182156116a7578492612471575b506004850154916123ac60248801612fba565b604488013565ffffffffffff81169003610f3057889586946124316040516123d48882612eaf565b838152601f1988013689830137604051998a978896879563545ce38960e01b8752600487015260018060a01b031660248601520135604484015265ffffffffffff60448d013516606484015260a0608484015260a4830190612f68565b03926001600160a01b03165af191821561079357600192612454575b50016122fd565b61246a90863d881161078c5761077d8183612eaf565b505f61244d565b612489919250873d89116107c4576107b68183612eaf565b905f612399565b509260019150019161229a565b6303fa1eaf60e41b8552600485fd5b8380f35b633fdc220360e01b8252600482fd5b5034612b81576040366003190112612b81576124d9612e55565b6024356001600160a01b038116929190839003612b81576124f9816134f1565b5f516020613c2f5f395f51905f525460088101546040516302910f8b60e31b81526001600160a01b038085166004830181905294939260209183916024918391165afa908115612d13575f91612e36575b5015612e275760405163054fd4d560e41b8152602081600481875afa908115612d13575f91612e08575b5060038201906001600160401b0380835416911603612df95760405163d8dfeb4560e01b8152602081600481885afa908115612d13575f91612dda575b5060068301546001600160a01b03908116911603612dcb576040516327f843b560e11b8152602081600481885afa908115612d13575f91612dac575b5065ffffffffffff80845460301c169116908110612d9d5760405163142186b760e21b8152602081600481895afa908115612d13575f91612d7e575b5015612d6f57604051630ce9b79360e41b8152602081600481895afa908115612d13575f91612d50575b50600484810180546040516368adba0760e11b81529283015292916001600160a01b031690602081602481855afa908115612d13575f91612d1e575b5019612cc1575b602060049160405192838092637f5a7c7b60e01b82525afa9081156107cb578891612ca2575b506001600160a01b0316612c9057604051630dd83c7f60e31b81526020816004818a5afa9081156107cb578891612c71575b5015612c625760405163b134427160e01b81526020816004818a5afa9081156107cb578891612c43575b50604051635d927f4560e11b81526001600160a01b039190911693602082600481885afa918215611492578992612c17575b506001600160401b0380915460401c16911603612c0857604051631a684c7560e11b8152602081600481875afa9081156107cb578891612be9575b50612bda5760405163e054e08b60e01b8152602081600481875afa9081156107cb578891612bab575b5065ffffffffffff855460c01c1665ffffffffffff821610612b9c576127e265ffffffffffff918260018801541690613055565b1611612b8d5760405163bc6eac5b60e01b8152602081600481865afa908115610793578791612b57575b50600284015410612b485754906020926128648460405161282d8282612eaf565b898152601f19820195863684840137604051938492839263cd05b8a160e01b84526004840152604060248401526044830190612f68565b0381865afa9081156107cb578891612b2b575b506001600160a01b031680612b04575060110154604051926001600160a01b03909116906128a58585612eaf565b8784523685850137813b15610f53579186916128eb93836040518096819582946348b47ce960e11b84528460048501526024840152606060448401526064830190612f68565b03925af18015612a5557908591612aef575b50505b6040516313c085b760e11b81528181600481875afa908115612a55578591612ad2575b506001600160a01b031615612ac3575f516020613c2f5f395f51905f52549260248260018060a01b03600d87015416604051928380926302910f8b60e31b82528b60048301525afa908115612a8c578691612aa6575b5015612a975760405163411557d160e01b815282816004818a5afa908115612a8c578691612a6f575b506001600160a01b031603612a605760405163054fd4d560e41b81528181600481895afa918215612a5557916001600160401b03916002938792612a28575b50501603612a195760156120d5939465ffffffffffff612a0042613988565b1660609190911b6001600160601b031916179201613709565b63ded51c0b60e01b8352600483fd5b612a479250803d10612a4e575b612a3f8183612eaf565b810190613564565b5f806129e1565b503d612a35565b6040513d87823e3d90fd5b630a724f6160e01b8452600484fd5b612a869150833d85116107c4576107b68183612eaf565b5f6129a2565b6040513d88823e3d90fd5b6346e01c4360e11b8552600485fd5b612abd9150833d8511612123576121158183612eaf565b5f612979565b630c6b5ff760e31b8452600484fd5b612ae99150823d84116107c4576107b68183612eaf565b5f612923565b81612af991612eaf565b61156457835f6128fd565b6011909101546001600160a01b0316149150612900905057633cc6586560e21b8452600484fd5b612b429150853d87116107c4576107b68183612eaf565b5f612877565b633a2662c360e11b8652600486fd5b90506020813d602011612b85575b81612b7260209383612eaf565b81010312612b8157515f61280c565b5f80fd5b3d9150612b65565b6307cfe49360e51b8652600486fd5b633062eb1960e21b8852600488fd5b612bcd915060203d602011612bd3575b612bc58183612eaf565b810190613583565b5f6127ae565b503d612bbb565b63447984b360e11b8752600487fd5b612c02915060203d602011612123576121158183612eaf565b5f612785565b63f8c618c760e01b8752600487fd5b6001600160401b03919250612c3b829160203d602011612a4e57612a3f8183612eaf565b92915061274a565b612c5c915060203d6020116107c4576107b68183612eaf565b5f612718565b631501f36360e21b8752600487fd5b612c8a915060203d602011612123576121158183612eaf565b5f6126ee565b60016221bb1360e11b03198752600487fd5b612cbb915060203d6020116107c4576107b68183612eaf565b5f6126bc565b803b15612b81576040516323f752d560e01b81525f600482018190525f1960248301528160448183865af18015612d1357612cfd575b50612696565b612d0a9198505f90612eaf565b5f966020612cf7565b6040513d5f823e3d90fd5b90506020813d602011612d48575b81612d3960209383612eaf565b81010312612b8157515f61268f565b3d9150612d2c565b612d69915060203d6020116107c4576107b68183612eaf565b5f612653565b636e549c1760e11b5f5260045ffd5b612d97915060203d602011612123576121158183612eaf565b5f612629565b634934476760e01b5f5260045ffd5b612dc5915060203d602011612bd357612bc58183612eaf565b5f6125ed565b63039a1fd760e21b5f5260045ffd5b612df3915060203d6020116107c4576107b68183612eaf565b5f6125b1565b63bfcdc45f60e01b5f5260045ffd5b612e21915060203d602011612a4e57612a3f8183612eaf565b5f612574565b635b19e4bb60e01b5f5260045ffd5b612e4f915060203d602011612123576121158183612eaf565b5f61254a565b600435906001600160a01b0382168203612b8157565b35906001600160a01b0382168203612b8157565b61014081019081106001600160401b03821117612e9b57604052565b634e487b7160e01b5f52604160045260245ffd5b90601f801991011681019081106001600160401b03821117612e9b57604052565b6001600160401b038111612e9b57601f01601f191660200190565b6004359065ffffffffffff82168203612b8157565b6024359065ffffffffffff82168203612b8157565b90602080835192838152019201905f5b818110612f325750505090565b82516001600160a01b0316845260209384019390920191600101612f25565b6001600160401b038111612e9b5760051b60200190565b805180835260209291819084018484015e5f828201840152601f01601f1916010190565b6101e4356001600160a01b0381168103612b815790565b610204356001600160a01b0381168103612b815790565b356001600160a01b0381168103612b815790565b903590601e1981360301821215612b8157018035906001600160401b038211612b8157602001918160061b36038313612b8157565b91908110156130135760061b0190565b634e487b7160e01b5f52603260045260245ffd5b90816020910312612b8157516001600160a01b0381168103612b815790565b90816020910312612b81575190565b9065ffffffffffff8091169116019065ffffffffffff821161307357565b634e487b7160e01b5f52601160045260245ffd5b90816020910312612b8157518015158103612b815790565b80518210156130135760209160051b010190565b9190820180921161307357565b9181156132cd576130d08361331c565b928151818111156132c4575f5f198201828111925b8083106131eb57505050506001945f1982019082821161307357613109828761309f565b5183975b85518910156131dd57816131218a8a61309f565b510361313d57600181018091116130735760019098019761310d565b9395975050909294505b60018211613158575b505050815290565b604051602081019165ffffffffffff60d01b9060d01b16825260068152613180602682612eaf565b5190209080156131c9576131959106836130b3565b5f198101908111613073576131c0906001600160a01b03906131b7908661309f565b5116918461309f565b525f8080613150565b634e487b7160e01b5f52601260045260245ffd5b939597505090929450613147565b9296958792959891945f935b613073578685035f1901868111613073578410156132b157613219848961309f565b51600185019485811161307357858c826001946132378f9a8f61309f565b5111613248575b50505001936131f7565b6132a8918d6132788361325b878461309f565b5192613267828261309f565b51613272898361309f565b5261309f565b52858060a01b03613289858361309f565b511693613272878060a01b0361329f858561309f565b5116918361309f565b525f8c8261323e565b94919895600191979894935001916130e5565b50509150915090565b6314f867c760e21b5f5260045ffd5b61331a906020808095946040519684889551918291018487015e8401908282015f8152815193849201905e01015f815203601f198101845283612eaf565b565b906133268261372b565b60125f516020613c2f5f395f51905f52540180549261334484612f51565b916133526040519384612eaf565b848352601f1961336186612f51565b0136602085013761337185612f51565b9461337f6040519687612eaf565b808652601f1961338e82612f51565b013660208801375f925f925b8284106133ae575050505080825283529190565b909192936133e36133ea846133c388866136da565b93909365ffffffffffff81169165ffffffffffff8260301c169160601c90565b50906137b5565b15613433578361340f916133fe848a61309f565b6001600160a01b038216905261380e565b613419828a61309f565b526001810180911161307357600190945b0192919061339a565b509360019061342a565b90613469816133e361102e60125f516020613c2f5f395f51905f52540160018060a01b038716906139fc565b1561347a576134779161380e565b90565b50505f90565b6001600160a01b031680156134de575f516020613bef5f395f51905f5280546001600160a01b0319811683179091556001600160a01b03167f8be0079c531659141344cd1fd0a4f28419497f9722a3daafe3b4186f6b6457e05f80a3565b631e4fbdf760e01b5f525f60045260245ffd5b604051632474521560e21b81525f600482015233602482015290602090829060449082906001600160a01b03165afa908115612d13575f91613545575b501561353657565b630e7fea9d60e01b5f5260045ffd5b61355e915060203d602011612123576121158183612eaf565b5f61352e565b90816020910312612b8157516001600160401b0381168103612b815790565b90816020910312612b81575165ffffffffffff81168103612b815790565b65ffffffffffff916135bf61102e6001600160a01b038316846139fc565b9194909416938415908115613619575b5061360a576136079365ffffffffffff60301b6135eb42613988565b60301b161760609190911b6001600160601b0319161791613709565b50565b633f54562b60e11b5f5260045ffd5b65ffffffffffff91501615155f6135cf565b65ffffffffffff9161364961102e6001600160a01b038316846139fc565b9490911615159081613696575b50613687576136079265ffffffffffff61366f42613988565b1660609190911b6001600160601b0319161791613709565b637952fbad60e11b5f5260045ffd5b65ffffffffffff915016155f613656565b5f516020613bef5f395f51905f52546001600160a01b031633036136c757565b63118cdaa760e01b5f523360045260245ffd5b91906136e860029184613a53565b90549060031b1c92835f520160205260405f20549160018060a01b03169190565b613477929160018060a01b031691825f526002820160205260405f2055613ba1565b5f516020613c2f5f395f51905f52549065ffffffffffff61374b42613988565b1665ffffffffffff8216101561379e57613782915465ffffffffffff808260601c169160901c168082105f146137ad575090613055565b65ffffffffffff8061379342613988565b169116111561379e57565b63686c69fd60e01b5f5260045ffd5b905090613055565b65ffffffffffff16801515929190836137fb575b50826137d457505090565b65ffffffffffff16801592509082156137ec57505090565b65ffffffffffff161115905090565b65ffffffffffff8316101592505f6137c9565b5f516020613c2f5f395f51905f52546015810180546004909201545f95948694602093869391905b868810613847575050505050505050565b90919293949596986133e3613860866133c38d866136da565b1561397e57604051630ce9b79360e41b8152908890829060049082906001600160a01b03165afa908115612d13576138fc9189915f91613961575b50604051906138aa8383612eaf565b5f825289368484013760405163e02f693760e01b8152600481018990526001600160a01b038816602482015265ffffffffffff8a16604482015260806064820152938492839182916084830190612f68565b03916001600160a01b03165afa908115612d13575f91613933575b50613924906001926130b3565b995b0196959493929190613836565b90508781813d831161395a575b61394a8183612eaf565b81010312612b8157516001613917565b503d613940565b6139789150823d84116107c4576107b68183612eaf565b5f61389b565b5098600190613926565b65ffffffffffff81116139a05765ffffffffffff1690565b6306dfcc6560e41b5f52603060045260245260445ffd5b9061347791815f52600281016020525f6040812055613a68565b60ff5f516020613c4f5f395f51905f525460401c16156139ed57565b631afcd79f60e31b5f5260045ffd5b90805f526002820160205260405f2054918183159182613a33575b5050613a21575090565b63015ab34360e11b5f5260045260245ffd5b613a4b92506001915f520160205260405f2054151590565b15815f613a17565b8054821015613013575f5260205f2001905f90565b906001820191815f528260205260405f20548015155f14613b3b575f1981018181116130735782545f1981019190821161307357818103613af0575b50505080548015613adc575f190190613abd8282613a53565b8154905f199060031b1b19169055555f526020525f6040812055600190565b634e487b7160e01b5f52603160045260245ffd5b613b26613b00613b109386613a53565b90549060031b1c92839286613a53565b819391549060031b91821b915f19901b19161790565b90555f528360205260405f20555f8080613aa4565b505050505f90565b90613b675750805115613b5857602081519101fd5b63d6bda27560e01b5f5260045ffd5b81511580613b98575b613b78575090565b639996b31560e01b5f9081526001600160a01b0391909116600452602490fd5b50803b15613b70565b5f82815260018201602052604090205461347a57805490600160401b821015612e9b5782613bd9613b10846001809601855584613a53565b90558054925f520160205260405f205560019056fe9016d09d72d40fdae2fd8ceac6b6234c7706214fd39c1cd1e609a0528c199300360894a13ba1a3210667c828492db98dca3e2076cc3735a920a3ca505d382bbc0b8c56af6cc9ad401ad225bfe96df77f3049ba17eadac1cb95ee89df1e69d100f0c57e16840df040f15088dc2f81fe391c3923bec73e23a9662efc9c229c6a00f0c57e16840df040f15088dc2f81fe391c3923bec73e23a9662efc9c229c6a00","linkReferences":{}},"methodIdentifiers":{"UPGRADE_INTERFACE_VERSION()":"ad3cb1cc","allowedVaultImplVersion()":"c9b0b1e9","changeSlashExecutor(address)":"86c241a1","changeSlashRequester(address)":"6d1064eb","collateral()":"d8dfeb45","disableOperator()":"d99fcd66","disableVault(address)":"3ccce789","distributeOperatorRewards(address,uint256,bytes32)":"729e2f36","distributeStakerRewards(((address,uint256)[],uint256,address),uint48)":"7fbe95b5","enableOperator()":"3d15e74e","enableVault(address)":"936f4330","eraDuration()":"4455a38f","executeSlash((address,uint256)[])":"af962995","getActiveOperatorsStakeAt(uint48)":"b5e5ad12","getOperatorStakeAt(address,uint48)":"d99ddfc7","initialize((address,uint48,uint48,uint48,uint48,uint48,uint48,uint64,uint64,uint256,uint256,address,address,(address,address,address,address,address,address,address,address,address,address)))":"ab122753","makeElectionAt(uint48,uint256)":"6e5c7932","maxAdminFee()":"c639e2d6","maxResolverSetEpochsDelay()":"9e032311","minSlashExecutionDelay()":"373bba1f","minVaultEpochDuration()":"945cf2dd","minVetoDuration()":"461e7a8e","operatorGracePeriod()":"709d06ae","owner()":"8da5cb5b","proxiableUUID()":"52d1902d","registerOperator()":"2acde098","registerVault(address,address)":"05c4fdf9","reinitialize()":"6c2eb350","renounceOwnership()":"715018a6","requestSlash((address,uint48,(address,uint256)[])[])":"0a71094c","router()":"f887ea40","subnetwork()":"ceebb69a","symbioticContracts()":"bcf33934","transferOwnership(address)":"f2fde38b","unregisterOperator(address)":"96115bc2","unregisterVault(address)":"2633b70f","upgradeToAndCall(address,bytes)":"4f1ef286","vaultGracePeriod()":"79a8b245","vetoSlasherImplType()":"d55a5bdf"},"storageLayout":{"storage":[],"types":{}},"id":158}