{"abi":[{"type":"constructor","inputs":[{"name":"_router","type":"address","internalType":"address"}],"stateMutability":"nonpayable"},{"type":"fallback","stateMutability":"payable"},{"type":"function","name":"claimValue","inputs":[{"name":"_claimedId","type":"bytes32","internalType":"bytes32"}],"outputs":[],"stateMutability":"nonpayable"},{"type":"function","name":"executableBalanceTopUp","inputs":[{"name":"_value","type":"uint128","internalType":"uint128"}],"outputs":[],"stateMutability":"nonpayable"},{"type":"function","name":"exited","inputs":[],"outputs":[{"name":"","type":"bool","internalType":"bool"}],"stateMutability":"view"},{"type":"function","name":"inheritor","inputs":[],"outputs":[{"name":"","type":"address","internalType":"address"}],"stateMutability":"view"},{"type":"function","name":"initialize","inputs":[{"name":"_initializer","type":"address","internalType":"address"},{"name":"_abiInterface","type":"address","internalType":"address"},{"name":"_isSmall","type":"bool","internalType":"bool"}],"outputs":[],"stateMutability":"nonpayable"},{"type":"function","name":"initializer","inputs":[],"outputs":[{"name":"","type":"address","internalType":"address"}],"stateMutability":"view"},{"type":"function","name":"nonce","inputs":[],"outputs":[{"name":"","type":"uint256","internalType":"uint256"}],"stateMutability":"view"},{"type":"function","name":"performStateTransition","inputs":[{"name":"_transition","type":"tuple","internalType":"struct Gear.StateTransition","components":[{"name":"actorId","type":"address","internalType":"address"},{"name":"newStateHash","type":"bytes32","internalType":"bytes32"},{"name":"exited","type":"bool","internalType":"bool"},{"name":"inheritor","type":"address","internalType":"address"},{"name":"valueToReceive","type":"uint128","internalType":"uint128"},{"name":"valueToReceiveNegativeSign","type":"bool","internalType":"bool"},{"name":"valueClaims","type":"tuple[]","internalType":"struct Gear.ValueClaim[]","components":[{"name":"messageId","type":"bytes32","internalType":"bytes32"},{"name":"destination","type":"address","internalType":"address"},{"name":"value","type":"uint128","internalType":"uint128"}]},{"name":"messages","type":"tuple[]","internalType":"struct Gear.Message[]","components":[{"name":"id","type":"bytes32","internalType":"bytes32"},{"name":"destination","type":"address","internalType":"address"},{"name":"payload","type":"bytes","internalType":"bytes"},{"name":"value","type":"uint128","internalType":"uint128"},{"name":"replyDetails","type":"tuple","internalType":"struct Gear.ReplyDetails","components":[{"name":"to","type":"bytes32","internalType":"bytes32"},{"name":"code","type":"bytes4","internalType":"bytes4"}]},{"name":"call","type":"bool","internalType":"bool"}]}]}],"outputs":[{"name":"","type":"bytes32","internalType":"bytes32"}],"stateMutability":"payable"},{"type":"function","name":"router","inputs":[],"outputs":[{"name":"","type":"address","internalType":"address"}],"stateMutability":"view"},{"type":"function","name":"sendMessage","inputs":[{"name":"_payload","type":"bytes","internalType":"bytes"},{"name":"_callReply","type":"bool","internalType":"bool"}],"outputs":[{"name":"","type":"bytes32","internalType":"bytes32"}],"stateMutability":"payable"},{"type":"function","name":"sendReply","inputs":[{"name":"_repliedTo","type":"bytes32","internalType":"bytes32"},{"name":"_payload","type":"bytes","internalType":"bytes"}],"outputs":[],"stateMutability":"payable"},{"type":"function","name":"stateHash","inputs":[],"outputs":[{"name":"","type":"bytes32","internalType":"bytes32"}],"stateMutability":"view"},{"type":"function","name":"transferLockedValueToInheritor","inputs":[],"outputs":[],"stateMutability":"nonpayable"},{"type":"event","name":"ExecutableBalanceTopUpRequested","inputs":[{"name":"value","type":"uint128","indexed":false,"internalType":"uint128"}],"anonymous":false},{"type":"event","name":"Message","inputs":[{"name":"id","type":"bytes32","indexed":false,"internalType":"bytes32"},{"name":"destination","type":"address","indexed":true,"internalType":"address"},{"name":"payload","type":"bytes","indexed":false,"internalType":"bytes"},{"name":"value","type":"uint128","indexed":false,"internalType":"uint128"}],"anonymous":false},{"type":"event","name":"MessageCallFailed","inputs":[{"name":"id","type":"bytes32","indexed":false,"internalType":"bytes32"},{"name":"destination","type":"address","indexed":true,"internalType":"address"},{"name":"value","type":"uint128","indexed":false,"internalType":"uint128"}],"anonymous":false},{"type":"event","name":"MessageQueueingRequested","inputs":[{"name":"id","type":"bytes32","indexed":false,"internalType":"bytes32"},{"name":"source","type":"address","indexed":true,"internalType":"address"},{"name":"payload","type":"bytes","indexed":false,"internalType":"bytes"},{"name":"value","type":"uint128","indexed":false,"internalType":"uint128"},{"name":"callReply","type":"bool","indexed":false,"internalType":"bool"}],"anonymous":false},{"type":"event","name":"OwnedBalanceTopUpRequested","inputs":[{"name":"value","type":"uint128","indexed":false,"internalType":"uint128"}],"anonymous":false},{"type":"event","name":"Reply","inputs":[{"name":"payload","type":"bytes","indexed":false,"internalType":"bytes"},{"name":"value","type":"uint128","indexed":false,"internalType":"uint128"},{"name":"replyTo","type":"bytes32","indexed":false,"internalType":"bytes32"},{"name":"replyCode","type":"bytes4","indexed":true,"internalType":"bytes4"}],"anonymous":false},{"type":"event","name":"ReplyCallFailed","inputs":[{"name":"value","type":"uint128","indexed":false,"internalType":"uint128"},{"name":"replyTo","type":"bytes32","indexed":false,"internalType":"bytes32"},{"name":"replyCode","type":"bytes4","indexed":true,"internalType":"bytes4"}],"anonymous":false},{"type":"event","name":"ReplyQueueingRequested","inputs":[{"name":"repliedTo","type":"bytes32","indexed":false,"internalType":"bytes32"},{"name":"source","type":"address","indexed":true,"internalType":"address"},{"name":"payload","type":"bytes","indexed":false,"internalType":"bytes"},{"name":"value","type":"uint128","indexed":false,"internalType":"uint128"}],"anonymous":false},{"type":"event","name":"ReplyTransferFailed","inputs":[{"name":"destination","type":"address","indexed":false,"internalType":"address"},{"name":"value","type":"uint128","indexed":false,"internalType":"uint128"}],"anonymous":false},{"type":"event","name":"StateChanged","inputs":[{"name":"stateHash","type":"bytes32","indexed":false,"internalType":"bytes32"}],"anonymous":false},{"type":"event","name":"TransferLockedValueToInheritorFailed","inputs":[{"name":"inheritor","type":"address","indexed":false,"internalType":"address"},{"name":"value","type":"uint128","indexed":false,"internalType":"uint128"}],"anonymous":false},{"type":"event","name":"ValueClaimFailed","inputs":[{"name":"claimedId","type":"bytes32","indexed":false,"internalType":"bytes32"},{"name":"value","type":"uint128","indexed":false,"internalType":"uint128"}],"anonymous":false},{"type":"event","name":"ValueClaimed","inputs":[{"name":"claimedId","type":"bytes32","indexed":false,"internalType":"bytes32"},{"name":"value","type":"uint128","indexed":false,"internalType":"uint128"}],"anonymous":false},{"type":"event","name":"ValueClaimingRequested","inputs":[{"name":"claimedId","type":"bytes32","indexed":false,"internalType":"bytes32"},{"name":"source","type":"address","indexed":true,"internalType":"address"}],"anonymous":false},{"type":"error","name":"AbiInterfaceAlreadySet","inputs":[]},{"type":"error","name":"CallerNotRouter","inputs":[]},{"type":"error","name":"EnforcedPause","inputs":[]},{"type":"error","name":"EtherTransferToRouterFailed","inputs":[]},{"type":"error","name":"InheritorMustBeZero","inputs":[]},{"type":"error","name":"InitMessageNotCreated","inputs":[]},{"type":"error","name":"InitMessageNotCreatedAndCallerNotInitializer","inputs":[]},{"type":"error","name":"InitializerAlreadySet","inputs":[]},{"type":"error","name":"InvalidActorId","inputs":[]},{"type":"error","name":"InvalidFallbackCall","inputs":[]},{"type":"error","name":"IsSmallAlreadySet","inputs":[]},{"type":"error","name":"ProgramExited","inputs":[]},{"type":"error","name":"ProgramNotExited","inputs":[]},{"type":"error","name":"TransferLockedValueToInheritorExternalFailed","inputs":[]},{"type":"error","name":"WVaraTransferFailed","inputs":[]}],"bytecode":{"object":"0x60a03461008657601f611b8138819003918201601f19168301916001600160401b0383118484101761008a5780849260209460405283398101031261008657516001600160a01b038116810361008657608052604051611ae2908161009f823960805181818161022e015281816105a5015281816113900152818161145201526114f50152f35b5f80fd5b634e487b7160e01b5f52604160045260245ffdfe6080604052600436101561017f575b6100166114e0565b34151580610177575b15610059577f134041dec9803c024e94a2479679395a15b6ae0034c4d424ab47712aa182620660206040516001600160801b0334168152a1005b60ff60035460a01c16158061016c575b1561015d5761007661156d565b60015415801590610149575b1561013a576001600160801b03341661009a8161143a565b600154903060601b5f528160145260345f20915f198114610126576001016001557f9d835932f9695ed8acd7290fb99476799c321b20b15a597a99b597bdfb907c5460405183815260806020820152602060808201368152365f838301375f823683010152601f19601f3601160101926040820152600435151560608201528033930390a25f5260205ff35b634e487b7160e01b5f52601160045260245ffd5b634bfa3a2d60e01b5f5260045ffd5b506003546001600160a01b03163314610082565b6399dd405f60e01b5f5260045ffd5b506024361015610069565b50361561001f565b5f5f3560e01c8063084f443a1461084857806336a52a181461081b57806342129d00146106f95780635ce6c327146106d6578063701da98e146106b9578063704ed5421461052a5780637a8e0cdd1461049457806391d5a64c146104395780639ce110d714610410578063affed0e0146103f2578063e43f343314610387578063e4bbb5a8146102605763f887ea4014610219575061000e565b3461025d578060031936011261025d576040517f00000000000000000000000000000000000000000000000000000000000000006001600160a01b03168152602090f35b80fd5b503461025d57606036600319011261025d576004356001600160a01b03811690819003610383576024356001600160a01b038116919082900361037f576044359081151580920361037b576102b361138e565b600354906001600160a01b03821661036c5760ff8260a01c1661035d577f360894a13ba1a3210667c828492db98dca3e2076cc3735a920a3ca505d382bbc54926001600160a01b03841661034e576001600160a81b03199092161760a09190911b60ff60a01b16176003556001600160a01b031916177f360894a13ba1a3210667c828492db98dca3e2076cc3735a920a3ca505d382bbc5580f35b638778dcd360e01b8652600486fd5b6325f368db60e11b8552600485fd5b63f20d240560e01b8552600485fd5b8380fd5b8280fd5b5080fd5b503461025d578060031936011261025d576103a06114e0565b60025460ff8116156103e3576103cc90476001600160801b03169060081c6001600160a01b0316611743565b156103d45780f35b63085fbdef60e21b8152600490fd5b63463a5c5f60e01b8252600482fd5b503461025d578060031936011261025d576020600154604051908152f35b503461025d578060031936011261025d576003546040516001600160a01b039091168152602090f35b503461025d57602036600319011261025d576104536114e0565b61045b61156d565b610463611588565b60405160043581527f0354817698da67944179457b89e15c1c57ca7b8cfd9d80eab1d09c258f6c497860203392a280f35b50604036600319011261025d576024356001600160401b038111610383576104e17fb64dad8a89028819d048f9c75ec4c516341da68972bb68a8e1262b5443c61e7f9136906004016112de565b6104ec9291926114e0565b6104f461156d565b6104fc611588565b6001600160801b033416906105108261143a565b610524604051928392339660043585611360565b0390a280f35b503461025d57602036600319011261025d576004356001600160801b038116809103610383576105586114e0565b61056061156d565b80610594575b60207f85ba4ebb0990fc588bfbb287e2e810a77c858e0a69485d6a938c52c05423666791604051908152a180f35b60405163088f50cf60e41b815282907f00000000000000000000000000000000000000000000000000000000000000006001600160a01b031690602081600481855afa908115610669578391610674575b50606460209260405194859384926323b872dd60e01b8452336004850152602484015287604484015260018060a01b03165af190811561066957839161063a575b50610566576303a25d1960e31b8252600482fd5b61065c915060203d602011610662575b61065481836113cf565b8101906114c8565b5f610626565b503d61064a565b6040513d85823e3d90fd5b90506020813d6020116106b1575b8161068f602093836113cf565b8101031261037f5751906001600160a01b038216820361037f579060646105e5565b3d9150610682565b503461025d578060031936011261025d5760209054604051908152f35b503461025d578060031936011261025d57602060ff600254166040519015158152f35b50604036600319011261025d576004356001600160401b038111610383576107259036906004016112de565b919060243580151580910361037f5761073c6114e0565b61074461156d565b60015415801590610807575b156107f8576001600160801b033416916107698361143a565b6001543060601b85528060145260348520945f1982146107e45750916107cb6020969260017f9d835932f9695ed8acd7290fb99476799c321b20b15a597a99b597bdfb907c549501600155604051938785526080898601526080850191611340565b93604083015260608201528033930390a2604051908152f35b634e487b7160e01b81526011600452602490fd5b634bfa3a2d60e01b8352600483fd5b506003546001600160a01b03163314610750565b503461025d578060031936011261025d5760025460405160089190911c6001600160a01b03168152602090f35b506020366003190112610ee6576001600160401b0360043511610ee6576004353603610100600319820112610ee65761087f61138e565b61088d60043560040161130b565b306001600160a01b03909116036112cf576108ac60a46004350161131f565b6112b4575b60043560e401356022198201811215610ee6576001600160401b03600482813501013511610ee657600481813501013560051b3603602482600435010113610ee6576004803582010135600581901b8190046020149015171561012657610921600482813501013560051b6115a1565b5f93845b6004848135010135861015610efe57600586901b600435850190810160240135969036036101021901871215610ee65760e06023196004358701890136030112610ee6576040519160c083018381106001600160401b03821117610eea57604052600435860188016024810135845260440135906001600160a01b0382168203610ee65760208401918252606460043588018a0101356001600160401b038111610ee65760209060048b8a8235010101010136601f82011215610ee6576109f3903690602081359101611492565b6040850190815291608460043589018b0101356001600160801b0381168103610ee65760608601908152604060a3196004358b018d0136030112610ee65760405195604087018781106001600160401b03821117610eea576040526004358a018c0160a4810135885260c40135906001600160e01b031982168203610ee657602088019182526080810188905260e46004358c018e01013580151596878203610ee657600199602098610b21958560549560a060359801525198519351975192519063ffffffff60e01b905116908b604051998a968288019c8d526001600160601b03199060601b1660408801528051918291018888015e8501936001600160801b03199060801b16868501526064840152608483015260f81b6088820152030160158101845201826113cf565b51902086820152019660a4600435870182010135610b545760206004610b4d928882350101010161160d565b0194610925565b610b6660e4600435880183010161131f565b15610db7576001600160f81b0319610b8660c460043589018401016115f8565b5f1a60f81b161586826060925f14610d2f575f9250610bbf60606004610bc693869582350101010160206004878d8235010101016115c6565b3691611492565b886001600160801b03610bf46080600488610be860448335880183010161130b565b9582350101010161132c565b16602083519301916207a120f1610c0961140b565b5015610c16575b50610b4d565b610c43610c2b6044600435890184010161130b565b610c3d60846004358a0185010161132c565b90611743565b15610cc0575b7f5136ea80de584762b9532903198dfdd1125167a8685e943b1bc5d16b777151c36040610c7e60846004358a0185010161132c565b60a060046001600160e01b0319610c9c60c483358e018901016115f8565b16956001600160801b038551941684528b823501010101356020820152a25f610c10565b7f305c463d916e500e09d8c2b51f3ceea288d92833ffec0144992c3f3a80af158a610cf36044600435890184010161130b565b610d0560846004358a0185010161132c565b604080516001600160a01b039390931683526001600160801b0391909116602083015290a1610c49565b5f928392610db291610d95610d516004358401860160648101906024016115c6565b610d6360c460043587018901016115f8565b9360206004604051998a98634a646c7f60e01b848b015282350101010135602487015260448601526084850191611340565b9063ffffffff60e01b16606483015203601f1981018352826113cf565b610bc6565b610dcc610c2b6044600435890184010161130b565b15610e77575b7fe240a19e4a4ef8e5861c0eea48f9ab2cdb47bfe98347c94ccabb9c45f7d8d1c6610e0a6004358801830160648101906024016115c6565b610e1c60846004358b0186010161132c565b60a060046001600160e01b0319610e3a60c483358f018a01016115f8565b16966001600160801b03610e5b604051978897606089526060890191611340565b941660208601528c8235010101013560408301520390a2610b4d565b7f305c463d916e500e09d8c2b51f3ceea288d92833ffec0144992c3f3a80af158a610eaa6044600435890184010161130b565b610ebc60846004358a0185010161132c565b604080516001600160a01b039390931683526001600160801b0391909116602083015290a1610dd2565b5f80fd5b634e487b7160e01b5f52604160045260245ffd5b509291600490813501013560051b90209060c460043501359060221901811215610ee65760043501916004830135916001600160401b038311610ee6576060830236036024850113610ee6578260051b908382046020148415171561012657610f6a82959493926115a1565b915f955f965b858810156110a757610fa8949596976001916004606083028b01019061100a611001602080850135938c816060604089019e8f61130b565b980197610fb48961132c565b60405190868201928a84526001600160601b03199060601b1660408301526001600160801b03199060801b16605482015260448152610ff46064826113cf565b519020910152019961130b565b610c3d8461132c565b1561105e576110397fa217f2987a7942c2966f1fd16d39097862308325249e8b9fb4c00a430fd657839261132c565b604080519283526001600160801b0391909116602083015290a15b0196959493610f70565b6110887f74e4a0c671b40d8f56604cce496a32bad5ff6f039513935b7cc837dc9ba970ed9261132c565b604080519283526001600160801b0391909116602083015290a1611054565b50832091604460043501916110bb8361131f565b156112815750916020926110d360646004350161130b565b916110dc61156d565b600280546001600160a81b031916600885811b610100600160a81b031691909117600117918290555f9491476001600160801b0316916111279183911c6001600160a01b0316611743565b15611234575b50505b8254602460043501359384809203611203575b505061115c61115660043560040161130b565b9461131f565b61116a60646004350161130b565b61117860846004350161132c565b9061118760a46004350161131f565b9260405196898801986001600160601b03199060601b1689526034880152151560f81b60548701526001600160601b03199060601b1660558601526001600160801b03199060801b166069850152151560f81b6079840152607a830152609a820152609a81526111f860ba826113cf565b519020604051908152f35b557f5c601f20d27885120b6fed87a4c313849b86eaddc9d28e7685e2e66a9c08093085604051858152a18286611143565b604080516001600160a01b039390931683526001600160801b039190911660208301527f69c554fdd8abe771a12e37e5d229102c9e7bc0041a7cd4b726d0debd837556f391a1858061112d565b906001600160a01b0361129860043560640161130b565b166112a557602093611130565b6304c3c7a160e41b5f5260045ffd5b6112ca6112c560846004350161132c565b61143a565b6108b1565b63ed488aa360e01b5f5260045ffd5b9181601f84011215610ee6578235916001600160401b038311610ee65760208381860195010111610ee657565b356001600160a01b0381168103610ee65790565b358015158103610ee65790565b356001600160801b0381168103610ee65790565b908060209392818452848401375f828201840152601f01601f1916010190565b92604092611387916001600160801b03939796978652606060208701526060860191611340565b9416910152565b7f00000000000000000000000000000000000000000000000000000000000000006001600160a01b031633036113c057565b6375f48d7160e11b5f5260045ffd5b90601f801991011681019081106001600160401b03821117610eea57604052565b6001600160401b038111610eea57601f01601f191660200190565b3d15611435573d9061141c826113f0565b9161142a60405193846113cf565b82523d5f602084013e565b606090565b6001600160801b03168061144b5750565b5f808080937f00000000000000000000000000000000000000000000000000000000000000005af161147b61140b565b501561148357565b6308eb200360e41b5f5260045ffd5b92919261149e826113f0565b916114ac60405193846113cf565b829481845281830111610ee6578281602093845f960137010152565b90816020910312610ee657518015158103610ee65790565b604051635c975abb60e01b81526020816004817f00000000000000000000000000000000000000000000000000000000000000006001600160a01b03165afa908115611562575f91611543575b5061153457565b63d93c066560e01b5f5260045ffd5b61155c915060203d6020116106625761065481836113cf565b5f61152d565b6040513d5f823e3d90fd5b60ff6002541661157957565b630d304b8160e31b5f5260045ffd5b6001541561159257565b631a2efd3560e31b5f5260045ffd5b6040519190601f01601f191682016001600160401b03811183821017610ee657604052565b903590601e1981360301821215610ee657018035906001600160401b038211610ee657602001918136038313610ee657565b356001600160e01b031981168103610ee65790565b6116168161176e565b1561161e5750565b61162a60c0820161131f565b611697575b7f9c4ffe7286aed9eb205c8adb12b51219122c7e56c67017f312af0e15f801177361169261165f6020840161130b565b61166c60408501856115c6565b61167b6060879593950161132c565b9060405194859460018060a01b0316973585611360565b0390a2565b602081015f806116a68361130b565b816116b460408701876115c6565b9190826040519384928337810182815203926207a120f16116d361140b565b50156116df575061162f565b6117097f76c87872723521658a1c429bc5e355c5ad7b30719dae90158fe2b591f9ea56f89161130b565b6117156060840161132c565b60408051943585526001600160801b0390911660208501526001600160a01b03909116929081908101611692565b906001600160801b0316908161175a575050600190565b5f80809381935af161176a61140b565b5090565b61177b60408201826115c6565b90916001600160a01b03806117926020840161130b565b16149081611ac4575b5080611abb575b15611ab55781358060f81c90600182101580611aaa575b15611aa25760f31c611fe016600181018310611aa2576001840135927f5c601f20d27885120b6fed87a4c313849b86eaddc9d28e7685e2e66a9c08093084141580611a78575b80611a4e575b80611a24575b806119fa575b806119d0575b806119a6575b8061197c575b80611952575b80611928575b806118fe575b806118d4575b156118cb578190035f190191826001611853826115a1565b9387010183376021850135946041810135916001810361187a5750505090919250a1600190565b6002810361188b57505050a2600190565b600381979593969497145f146118a757505090919293a3600190565b6004146118ba575b505050505050600190565b6061013594a45f80808080806118af565b50505050505f90565b507f74e4a0c671b40d8f56604cce496a32bad5ff6f039513935b7cc837dc9ba970ed84141561183b565b507f305c463d916e500e09d8c2b51f3ceea288d92833ffec0144992c3f3a80af158a841415611835565b507f69c554fdd8abe771a12e37e5d229102c9e7bc0041a7cd4b726d0debd837556f384141561182f565b507fa217f2987a7942c2966f1fd16d39097862308325249e8b9fb4c00a430fd65783841415611829565b507fe240a19e4a4ef8e5861c0eea48f9ab2cdb47bfe98347c94ccabb9c45f7d8d1c6841415611823565b507f9c4ffe7286aed9eb205c8adb12b51219122c7e56c67017f312af0e15f801177384141561181d565b507f85ba4ebb0990fc588bfbb287e2e810a77c858e0a69485d6a938c52c054236667841415611817565b507f134041dec9803c024e94a2479679395a15b6ae0034c4d424ab47712aa1826206841415611811565b507f0354817698da67944179457b89e15c1c57ca7b8cfd9d80eab1d09c258f6c497884141561180b565b507fb64dad8a89028819d048f9c75ec4c516341da68972bb68a8e1262b5443c61e7f841415611805565b507f9d835932f9695ed8acd7290fb99476799c321b20b15a597a99b597bdfb907c548414156117ff565b505050505f90565b5060048211156117b9565b50505f90565b508015156117a2565b6001600160801b0391506060611ada910161132c565b16155f61179b56","linkReferences":{}},"methodIdentifiers":{"claimValue(bytes32)":"91d5a64c","executableBalanceTopUp(uint128)":"704ed542","exited()":"5ce6c327","inheritor()":"36a52a18","initialize(address,address,bool)":"e4bbb5a8","initializer()":"9ce110d7","nonce()":"affed0e0","performStateTransition((address,bytes32,bool,address,uint128,bool,(bytes32,address,uint128)[],(bytes32,address,bytes,uint128,(bytes32,bytes4),bool)[]))":"084f443a","router()":"f887ea40","sendMessage(bytes,bool)":"42129d00","sendReply(bytes32,bytes)":"7a8e0cdd","stateHash()":"701da98e","transferLockedValueToInheritor()":"e43f3433"},"storageLayout":{"storage":[{"astId":76011,"contract":"src/Mirror.sol:Mirror","label":"stateHash","offset":0,"slot":"0","type":"t_bytes32"},{"astId":76014,"contract":"src/Mirror.sol:Mirror","label":"nonce","offset":0,"slot":"1","type":"t_uint256"},{"astId":76017,"contract":"src/Mirror.sol:Mirror","label":"exited","offset":0,"slot":"2","type":"t_bool"},{"astId":76020,"contract":"src/Mirror.sol:Mirror","label":"inheritor","offset":1,"slot":"2","type":"t_address"},{"astId":76023,"contract":"src/Mirror.sol:Mirror","label":"initializer","offset":0,"slot":"3","type":"t_address"},{"astId":76026,"contract":"src/Mirror.sol:Mirror","label":"isSmall","offset":20,"slot":"3","type":"t_bool"}],"types":{"t_address":{"encoding":"inplace","label":"address","numberOfBytes":"20"},"t_bool":{"encoding":"inplace","label":"bool","numberOfBytes":"1"},"t_bytes32":{"encoding":"inplace","label":"bytes32","numberOfBytes":"32"},"t_uint256":{"encoding":"inplace","label":"uint256","numberOfBytes":"32"}}},"id":156}