{"abi":[{"type":"constructor","inputs":[{"name":"_router","type":"address","internalType":"address"}],"stateMutability":"nonpayable"},{"type":"fallback","stateMutability":"payable"},{"type":"function","name":"claimValue","inputs":[{"name":"_claimedId","type":"bytes32","internalType":"bytes32"}],"outputs":[],"stateMutability":"nonpayable"},{"type":"function","name":"executableBalanceTopUp","inputs":[{"name":"_value","type":"uint128","internalType":"uint128"}],"outputs":[],"stateMutability":"nonpayable"},{"type":"function","name":"executableBalanceTopUpWithPermit","inputs":[{"name":"_value","type":"uint128","internalType":"uint128"},{"name":"_deadline","type":"uint256","internalType":"uint256"},{"name":"_v","type":"uint8","internalType":"uint8"},{"name":"_r","type":"bytes32","internalType":"bytes32"},{"name":"_s","type":"bytes32","internalType":"bytes32"}],"outputs":[],"stateMutability":"nonpayable"},{"type":"function","name":"exited","inputs":[],"outputs":[{"name":"","type":"bool","internalType":"bool"}],"stateMutability":"view"},{"type":"function","name":"inheritor","inputs":[],"outputs":[{"name":"","type":"address","internalType":"address"}],"stateMutability":"view"},{"type":"function","name":"initialize","inputs":[{"name":"_initializer","type":"address","internalType":"address"},{"name":"_abiInterface","type":"address","internalType":"address"},{"name":"_isSmall","type":"bool","internalType":"bool"},{"name":"_initialExecutableBalance","type":"uint128","internalType":"uint128"}],"outputs":[],"stateMutability":"nonpayable"},{"type":"function","name":"initializer","inputs":[],"outputs":[{"name":"","type":"address","internalType":"address"}],"stateMutability":"view"},{"type":"function","name":"nonce","inputs":[],"outputs":[{"name":"","type":"uint256","internalType":"uint256"}],"stateMutability":"view"},{"type":"function","name":"performStateTransition","inputs":[{"name":"_transition","type":"tuple","internalType":"struct Gear.StateTransition","components":[{"name":"actorId","type":"address","internalType":"address"},{"name":"newStateHash","type":"bytes32","internalType":"bytes32"},{"name":"exited","type":"bool","internalType":"bool"},{"name":"inheritor","type":"address","internalType":"address"},{"name":"valueToReceive","type":"uint128","internalType":"uint128"},{"name":"valueToReceiveNegativeSign","type":"bool","internalType":"bool"},{"name":"valueClaims","type":"tuple[]","internalType":"struct Gear.ValueClaim[]","components":[{"name":"messageId","type":"bytes32","internalType":"bytes32"},{"name":"destination","type":"address","internalType":"address"},{"name":"value","type":"uint128","internalType":"uint128"}]},{"name":"messages","type":"tuple[]","internalType":"struct Gear.Message[]","components":[{"name":"id","type":"bytes32","internalType":"bytes32"},{"name":"destination","type":"address","internalType":"address"},{"name":"payload","type":"bytes","internalType":"bytes"},{"name":"value","type":"uint128","internalType":"uint128"},{"name":"replyDetails","type":"tuple","internalType":"struct Gear.ReplyDetails","components":[{"name":"to","type":"bytes32","internalType":"bytes32"},{"name":"code","type":"bytes4","internalType":"bytes4"}]},{"name":"call","type":"bool","internalType":"bool"}]}]}],"outputs":[{"name":"transitionHash","type":"bytes32","internalType":"bytes32"}],"stateMutability":"payable"},{"type":"function","name":"router","inputs":[],"outputs":[{"name":"","type":"address","internalType":"address"}],"stateMutability":"view"},{"type":"function","name":"sendMessage","inputs":[{"name":"_payload","type":"bytes","internalType":"bytes"},{"name":"_callReply","type":"bool","internalType":"bool"}],"outputs":[{"name":"messageId","type":"bytes32","internalType":"bytes32"}],"stateMutability":"payable"},{"type":"function","name":"sendReply","inputs":[{"name":"_repliedTo","type":"bytes32","internalType":"bytes32"},{"name":"_payload","type":"bytes","internalType":"bytes"}],"outputs":[],"stateMutability":"payable"},{"type":"function","name":"stateHash","inputs":[],"outputs":[{"name":"","type":"bytes32","internalType":"bytes32"}],"stateMutability":"view"},{"type":"function","name":"transferLockedValueToInheritor","inputs":[],"outputs":[],"stateMutability":"nonpayable"},{"type":"event","name":"ExecutableBalanceTopUpRequested","inputs":[{"name":"value","type":"uint128","indexed":false,"internalType":"uint128"}],"anonymous":false},{"type":"event","name":"Message","inputs":[{"name":"id","type":"bytes32","indexed":false,"internalType":"bytes32"},{"name":"destination","type":"address","indexed":true,"internalType":"address"},{"name":"payload","type":"bytes","indexed":false,"internalType":"bytes"},{"name":"value","type":"uint128","indexed":false,"internalType":"uint128"}],"anonymous":false},{"type":"event","name":"MessageCallFailed","inputs":[{"name":"id","type":"bytes32","indexed":false,"internalType":"bytes32"},{"name":"destination","type":"address","indexed":true,"internalType":"address"},{"name":"value","type":"uint128","indexed":false,"internalType":"uint128"}],"anonymous":false},{"type":"event","name":"MessageQueueingRequested","inputs":[{"name":"id","type":"bytes32","indexed":false,"internalType":"bytes32"},{"name":"source","type":"address","indexed":true,"internalType":"address"},{"name":"payload","type":"bytes","indexed":false,"internalType":"bytes"},{"name":"value","type":"uint128","indexed":false,"internalType":"uint128"},{"name":"callReply","type":"bool","indexed":false,"internalType":"bool"}],"anonymous":false},{"type":"event","name":"OwnedBalanceTopUpRequested","inputs":[{"name":"value","type":"uint128","indexed":false,"internalType":"uint128"}],"anonymous":false},{"type":"event","name":"Reply","inputs":[{"name":"payload","type":"bytes","indexed":false,"internalType":"bytes"},{"name":"value","type":"uint128","indexed":false,"internalType":"uint128"},{"name":"replyTo","type":"bytes32","indexed":false,"internalType":"bytes32"},{"name":"replyCode","type":"bytes4","indexed":true,"internalType":"bytes4"}],"anonymous":false},{"type":"event","name":"ReplyCallFailed","inputs":[{"name":"value","type":"uint128","indexed":false,"internalType":"uint128"},{"name":"replyTo","type":"bytes32","indexed":false,"internalType":"bytes32"},{"name":"replyCode","type":"bytes4","indexed":true,"internalType":"bytes4"}],"anonymous":false},{"type":"event","name":"ReplyQueueingRequested","inputs":[{"name":"repliedTo","type":"bytes32","indexed":false,"internalType":"bytes32"},{"name":"source","type":"address","indexed":true,"internalType":"address"},{"name":"payload","type":"bytes","indexed":false,"internalType":"bytes"},{"name":"value","type":"uint128","indexed":false,"internalType":"uint128"}],"anonymous":false},{"type":"event","name":"ReplyTransferFailed","inputs":[{"name":"destination","type":"address","indexed":false,"internalType":"address"},{"name":"value","type":"uint128","indexed":false,"internalType":"uint128"}],"anonymous":false},{"type":"event","name":"StateChanged","inputs":[{"name":"stateHash","type":"bytes32","indexed":false,"internalType":"bytes32"}],"anonymous":false},{"type":"event","name":"TransferLockedValueToInheritorFailed","inputs":[{"name":"inheritor","type":"address","indexed":false,"internalType":"address"},{"name":"value","type":"uint128","indexed":false,"internalType":"uint128"}],"anonymous":false},{"type":"event","name":"ValueClaimFailed","inputs":[{"name":"claimedId","type":"bytes32","indexed":false,"internalType":"bytes32"},{"name":"value","type":"uint128","indexed":false,"internalType":"uint128"}],"anonymous":false},{"type":"event","name":"ValueClaimed","inputs":[{"name":"claimedId","type":"bytes32","indexed":false,"internalType":"bytes32"},{"name":"value","type":"uint128","indexed":false,"internalType":"uint128"}],"anonymous":false},{"type":"event","name":"ValueClaimingRequested","inputs":[{"name":"claimedId","type":"bytes32","indexed":false,"internalType":"bytes32"},{"name":"source","type":"address","indexed":true,"internalType":"address"}],"anonymous":false},{"type":"error","name":"AbiInterfaceAlreadySet","inputs":[]},{"type":"error","name":"CallerNotRouter","inputs":[]},{"type":"error","name":"EnforcedPause","inputs":[]},{"type":"error","name":"EtherTransferToRouterFailed","inputs":[]},{"type":"error","name":"InheritorMustBeZero","inputs":[]},{"type":"error","name":"InitMessageNotCreated","inputs":[]},{"type":"error","name":"InitMessageNotCreatedAndCallerNotInitializer","inputs":[]},{"type":"error","name":"InitializerAlreadySet","inputs":[]},{"type":"error","name":"InvalidActorId","inputs":[]},{"type":"error","name":"InvalidFallbackCall","inputs":[]},{"type":"error","name":"IsSmallAlreadySet","inputs":[]},{"type":"error","name":"ProgramExited","inputs":[]},{"type":"error","name":"ProgramNotExited","inputs":[]},{"type":"error","name":"TransferLockedValueToInheritorExternalFailed","inputs":[]},{"type":"error","name":"WVaraTransferFailed","inputs":[]}],"bytecode":{"object":"0x60a03461008d57601f611d8138819003918201601f19168301916001600160401b038311848410176100915780849260209460405283398101031261008d57516001600160a01b038116810361008d57608052604051611cdb90816100a682396080518181816102390152818161031d015281816113e90152818161148a0152818161152d01526115e30152f35b5f80fd5b634e487b7160e01b5f52604160045260245ffdfe6080604052600436101561017f575b610016611518565b34151580610177575b15610059577f134041dec9803c024e94a2479679395a15b6ae0034c4d424ab47712aa182620660206040516001600160801b0334168152a1005b60ff60035460a01c16158061016c575b1561015d576100766115b5565b60015415801590610149575b1561013a576001600160801b03341661009a81611472565b600154903060601b5f528160145260345f20915f198114610126576001016001557f9d835932f9695ed8acd7290fb99476799c321b20b15a597a99b597bdfb907c5460405183815260806020820152602060808201368152365f838301375f823683010152601f19601f3601160101926040820152600435151560608201528033930390a25f5260205ff35b634e487b7160e01b5f52601160045260245ffd5b634bfa3a2d60e01b5f5260045ffd5b506003546001600160a01b03163314610082565b6399dd405f60e01b5f5260045ffd5b506024361015610069565b50361561001f565b5f5f3560e01c8063084f443a1461086a57806336a52a181461083d57806342129d001461071b5780635ce6c327146106f8578063701da98e146106db578063704ed542146106855780637a8e0cdd146105ef57806391d5a64c146105945780639ce110d71461056b578063affed0e01461054d578063bfa28576146103f6578063c6049692146102d6578063e43f34331461026b5763f887ea4014610224575061000e565b346102685780600319360112610268576040517f00000000000000000000000000000000000000000000000000000000000000006001600160a01b03168152602090f35b80fd5b5034610268578060031936011261026857610284611518565b60025460ff8116156102c7576102b090476001600160801b03169060081c6001600160a01b03166118cc565b156102b85780f35b63085fbdef60e21b8152600490fd5b63463a5c5f60e01b8252600482fd5b50346102685760a0366003190112610268576102f061132d565b6044359060ff82168092036103f257610307611518565b61030f6115b5565b826001600160a01b036103417f00000000000000000000000000000000000000000000000000000000000000006116aa565b16803b156103ee57819060e46040518094819363d505accf60e01b83523360048401523060248401526001600160801b038816988960448501526024356064850152608484015260643560a484015260843560c48401525af16103c4575b505f516020611cbb5f395f51905f52916103ba6020926115d0565b604051908152a180f35b916103ba846103e4602094965f516020611cbb5f395f51905f52966113c6565b949250509161039f565b5080fd5b8280fd5b5034610268576080366003190112610268576004356001600160a01b038116908190036103ee576024356001600160a01b038116908190036103f25760443580151580910361054957606435926001600160801b0384168094036105455761045c6113e7565b600354906001600160a01b0382166105365760ff8260a01c16610527577f360894a13ba1a3210667c828492db98dca3e2076cc3735a920a3ca505d382bbc54926001600160a01b038416610518576001600160a81b03199092161760a09190911b60ff60a01b16176003556001600160a01b031916177f360894a13ba1a3210667c828492db98dca3e2076cc3735a920a3ca505d382bbc55806104fd575080f35b60205f516020611cbb5f395f51905f5291604051908152a180f35b638778dcd360e01b8752600487fd5b6325f368db60e11b8652600486fd5b63f20d240560e01b8652600486fd5b8480fd5b8380fd5b50346102685780600319360112610268576020600154604051908152f35b50346102685780600319360112610268576003546040516001600160a01b039091168152602090f35b5034610268576020366003190112610268576105ae611518565b6105b66115b5565b6105be611691565b60405160043581527f0354817698da67944179457b89e15c1c57ca7b8cfd9d80eab1d09c258f6c497860203392a280f35b506040366003190112610268576024356001600160401b0381116103ee5761063c7fb64dad8a89028819d048f9c75ec4c516341da68972bb68a8e1262b5443c61e7f913690600401611300565b610647929192611518565b61064f6115b5565b610657611691565b6001600160801b0334169061066b82611472565b61067f604051928392339660043585611398565b0390a280f35b5034610268576020366003190112610268575f516020611cbb5f395f51905f5260206106af61132d565b6106b7611518565b6106bf6115b5565b6106c8816115d0565b6001600160801b0360405191168152a180f35b503461026857806003193601126102685760209054604051908152f35b5034610268578060031936011261026857602060ff600254166040519015158152f35b506040366003190112610268576004356001600160401b0381116103ee57610747903690600401611300565b91906024358015158091036103f25761075e611518565b6107666115b5565b60015415801590610829575b1561081a576001600160801b0334169161078b83611472565b6001543060601b85528060145260348520945f1982146108065750916107ed6020969260017f9d835932f9695ed8acd7290fb99476799c321b20b15a597a99b597bdfb907c549501600155604051938785526080898601526080850191611378565b93604083015260608201528033930390a2604051908152f35b634e487b7160e01b81526011600452602490fd5b634bfa3a2d60e01b8352600483fd5b506003546001600160a01b03163314610772565b503461026857806003193601126102685760025460405160089190911c6001600160a01b03168152602090f35b506020366003190112610f08576001600160401b0360043511610f08576004353603610100600319820112610f08576108a16113e7565b6108af600435600401611343565b306001600160a01b03909116036112f1576108ce60a460043501611357565b6112d6575b60043560e401356022198201811215610f08576001600160401b03600482813501013511610f0857600481813501013560051b3603602482600435010113610f08576004803582010135600581901b8190046020149015171561012657610943600482813501013560051b61172a565b5f93845b6004848135010135861015610f2057600586901b600435850190810160240135969036036101021901871215610f085760e06023196004358701890136030112610f08576040519160c083018381106001600160401b03821117610f0c57604052600435860188016024810135845260440135906001600160a01b0382168203610f085760208401918252606460043588018a0101356001600160401b038111610f085760209060048b8a8235010101010136601f82011215610f0857610a159036906020813591016114ca565b6040850190815291608460043589018b0101356001600160801b0381168103610f085760608601908152604060a3196004358b018d0136030112610f085760405195604087018781106001600160401b03821117610f0c576040526004358a018c0160a4810135885260c40135906001600160e01b031982168203610f0857602088019182526080810188905260e46004358c018e01013580151596878203610f0857600199602098610b43958560549560a060359801525198519351975192519063ffffffff60e01b905116908b604051998a968288019c8d526001600160601b03199060601b1660408801528051918291018888015e8501936001600160801b03199060801b16868501526064840152608483015260f81b6088820152030160158101845201826113c6565b51902086820152019660a4600435870182010135610b765760206004610b6f9288823501010101611796565b0194610947565b610b8860e46004358801830101611357565b15610dd9576001600160f81b0319610ba860c46004358901840101611781565b5f1a60f81b161586826060925f14610d51575f9250610be160606004610be893869582350101010160206004878d82350101010161174f565b36916114ca565b886001600160801b03610c166080600488610c0a604483358801830101611343565b95823501010101611364565b16602083519301916207a120f1610c2b611443565b5015610c38575b50610b6f565b610c65610c4d60446004358901840101611343565b610c5f60846004358a01850101611364565b906118cc565b15610ce2575b7f5136ea80de584762b9532903198dfdd1125167a8685e943b1bc5d16b777151c36040610ca060846004358a01850101611364565b60a060046001600160e01b0319610cbe60c483358e01890101611781565b16956001600160801b038551941684528b823501010101356020820152a25f610c32565b7f305c463d916e500e09d8c2b51f3ceea288d92833ffec0144992c3f3a80af158a610d1560446004358901840101611343565b610d2760846004358a01850101611364565b604080516001600160a01b039390931683526001600160801b0391909116602083015290a1610c6b565b5f928392610dd491610db7610d7360043584018601606481019060240161174f565b610d8560c46004358701890101611781565b9360206004604051998a98634a646c7f60e01b848b015282350101010135602487015260448601526084850191611378565b9063ffffffff60e01b16606483015203601f1981018352826113c6565b610be8565b610dee610c4d60446004358901840101611343565b15610e99575b7fe240a19e4a4ef8e5861c0eea48f9ab2cdb47bfe98347c94ccabb9c45f7d8d1c6610e2c60043588018301606481019060240161174f565b610e3e60846004358b01860101611364565b60a060046001600160e01b0319610e5c60c483358f018a0101611781565b16966001600160801b03610e7d604051978897606089526060890191611378565b941660208601528c8235010101013560408301520390a2610b6f565b7f305c463d916e500e09d8c2b51f3ceea288d92833ffec0144992c3f3a80af158a610ecc60446004358901840101611343565b610ede60846004358a01850101611364565b604080516001600160a01b039390931683526001600160801b0391909116602083015290a1610df4565b5f80fd5b634e487b7160e01b5f52604160045260245ffd5b509291600490813501013560051b90209060c460043501359060221901811215610f085760043501916004830135916001600160401b038311610f08576060830236036024850113610f08578260051b908382046020148415171561012657610f8c829594939261172a565b915f955f965b858810156110c957610fca949596976001916004606083028b01019061102c611023602080850135938c816060604089019e8f611343565b980197610fd689611364565b60405190868201928a84526001600160601b03199060601b1660408301526001600160801b03199060801b166054820152604481526110166064826113c6565b5190209101520199611343565b610c5f84611364565b156110805761105b7fa217f2987a7942c2966f1fd16d39097862308325249e8b9fb4c00a430fd6578392611364565b604080519283526001600160801b0391909116602083015290a15b0196959493610f92565b6110aa7f74e4a0c671b40d8f56604cce496a32bad5ff6f039513935b7cc837dc9ba970ed92611364565b604080519283526001600160801b0391909116602083015290a1611076565b50832091604460043501916110dd83611357565b156112a35750916020926110f5606460043501611343565b916110fe6115b5565b600280546001600160a81b031916600885811b610100600160a81b031691909117600117918290555f9491476001600160801b0316916111499183911c6001600160a01b03166118cc565b15611256575b50505b8254602460043501359384809203611225575b505061117e611178600435600401611343565b94611357565b61118c606460043501611343565b61119a608460043501611364565b906111a960a460043501611357565b9260405196898801986001600160601b03199060601b1689526034880152151560f81b60548701526001600160601b03199060601b1660558601526001600160801b03199060801b166069850152151560f81b6079840152607a830152609a820152609a815261121a60ba826113c6565b519020604051908152f35b557f5c601f20d27885120b6fed87a4c313849b86eaddc9d28e7685e2e66a9c08093085604051858152a18286611165565b604080516001600160a01b039390931683526001600160801b039190911660208301527f69c554fdd8abe771a12e37e5d229102c9e7bc0041a7cd4b726d0debd837556f391a1858061114f565b906001600160a01b036112ba600435606401611343565b166112c757602093611152565b6304c3c7a160e41b5f5260045ffd5b6112ec6112e7608460043501611364565b611472565b6108d3565b63ed488aa360e01b5f5260045ffd5b9181601f84011215610f08578235916001600160401b038311610f085760208381860195010111610f0857565b600435906001600160801b0382168203610f0857565b356001600160a01b0381168103610f085790565b358015158103610f085790565b356001600160801b0381168103610f085790565b908060209392818452848401375f828201840152601f01601f1916010190565b926040926113bf916001600160801b03939796978652606060208701526060860191611378565b9416910152565b90601f801991011681019081106001600160401b03821117610f0c57604052565b7f00000000000000000000000000000000000000000000000000000000000000006001600160a01b0316330361141957565b6375f48d7160e11b5f5260045ffd5b6001600160401b038111610f0c57601f01601f191660200190565b3d1561146d573d9061145482611428565b9161146260405193846113c6565b82523d5f602084013e565b606090565b6001600160801b0316806114835750565b5f808080937f00000000000000000000000000000000000000000000000000000000000000005af16114b3611443565b50156114bb57565b6308eb200360e41b5f5260045ffd5b9291926114d682611428565b916114e460405193846113c6565b829481845281830111610f08578281602093845f960137010152565b90816020910312610f0857518015158103610f085790565b604051635c975abb60e01b81526020816004817f00000000000000000000000000000000000000000000000000000000000000006001600160a01b03165afa9081156115aa575f9161157b575b5061156c57565b63d93c066560e01b5f5260045ffd5b61159d915060203d6020116115a3575b61159581836113c6565b810190611500565b5f611565565b503d61158b565b6040513d5f823e3d90fd5b60ff600254166115c157565b630d304b8160e31b5f5260045ffd5b6001600160801b0316806115e15750565b7f00000000000000000000000000000000000000000000000000000000000000009060209060646001600160a01b03611619856116aa565b6040516323b872dd60e01b81523360048201526001600160a01b0390961660248701526044860193909352849283915f91165af19081156115aa575f91611672575b501561166357565b6303a25d1960e31b5f5260045ffd5b61168b915060203d6020116115a35761159581836113c6565b5f61165b565b6001541561169b57565b631a2efd3560e31b5f5260045ffd5b60405163088f50cf60e41b815290602090829060049082906001600160a01b03165afa9081156115aa575f916116e8575b506001600160a01b031690565b90506020813d602011611722575b81611703602093836113c6565b81010312610f0857516001600160a01b0381168103610f08575f6116db565b3d91506116f6565b6040519190601f01601f191682016001600160401b03811183821017610f0857604052565b903590601e1981360301821215610f0857018035906001600160401b038211610f0857602001918136038313610f0857565b356001600160e01b031981168103610f085790565b61179f816118f9565b156117a75750565b6117b360c08201611357565b611820575b7f9c4ffe7286aed9eb205c8adb12b51219122c7e56c67017f312af0e15f801177361181b6117e860208401611343565b6117f5604085018561174f565b61180460608795939501611364565b9060405194859460018060a01b0316973585611398565b0390a2565b602081015f8061182f83611343565b8161183d604087018761174f565b9190826040519384928337810182815203926207a120f161185c611443565b501561186857506117b8565b6118927f76c87872723521658a1c429bc5e355c5ad7b30719dae90158fe2b591f9ea56f891611343565b61189e60608401611364565b60408051943585526001600160801b0390911660208501526001600160a01b0390911692908190810161181b565b906001600160801b031690816118e3575050600190565b5f8080938193611388f16118f5611443565b5090565b611906604082018261174f565b90916001600160a01b038061191d60208401611343565b16149081611c9c575b5080611c93575b15611c8d5781358060f81c90600182101580611c82575b15611c7a5760f31c611fe016600181018310611c7a576001840135927f5c601f20d27885120b6fed87a4c313849b86eaddc9d28e7685e2e66a9c08093084141580611c50575b80611c26575b80611bfc575b80611bd2575b80611bbb575b80611b91575b80611b67575b80611b3d575b80611b13575b80611ae9575b80611abf575b80611a95575b80611a6b575b15611a62578190035f1901918260016119ea8261172a565b93870101833760218501359460418101359160018103611a115750505090919250a1600190565b60028103611a2257505050a2600190565b600381979593969497145f14611a3e57505090919293a3600190565b600414611a51575b505050505050600190565b6061013594a45f8080808080611a46565b50505050505f90565b507f74e4a0c671b40d8f56604cce496a32bad5ff6f039513935b7cc837dc9ba970ed8414156119d2565b507f305c463d916e500e09d8c2b51f3ceea288d92833ffec0144992c3f3a80af158a8414156119cc565b507f69c554fdd8abe771a12e37e5d229102c9e7bc0041a7cd4b726d0debd837556f38414156119c6565b507fa217f2987a7942c2966f1fd16d39097862308325249e8b9fb4c00a430fd657838414156119c0565b507f5136ea80de584762b9532903198dfdd1125167a8685e943b1bc5d16b777151c38414156119ba565b507fe240a19e4a4ef8e5861c0eea48f9ab2cdb47bfe98347c94ccabb9c45f7d8d1c68414156119b4565b507f76c87872723521658a1c429bc5e355c5ad7b30719dae90158fe2b591f9ea56f88414156119ae565b507f9c4ffe7286aed9eb205c8adb12b51219122c7e56c67017f312af0e15f80117738414156119a8565b505f516020611cbb5f395f51905f528414156119a2565b507f134041dec9803c024e94a2479679395a15b6ae0034c4d424ab47712aa182620684141561199c565b507f0354817698da67944179457b89e15c1c57ca7b8cfd9d80eab1d09c258f6c4978841415611996565b507fb64dad8a89028819d048f9c75ec4c516341da68972bb68a8e1262b5443c61e7f841415611990565b507f9d835932f9695ed8acd7290fb99476799c321b20b15a597a99b597bdfb907c5484141561198a565b505050505f90565b506004821115611944565b50505f90565b5080151561192d565b6001600160801b0391506060611cb29101611364565b16155f61192656fe85ba4ebb0990fc588bfbb287e2e810a77c858e0a69485d6a938c52c054236667","linkReferences":{}},"methodIdentifiers":{"claimValue(bytes32)":"91d5a64c","executableBalanceTopUp(uint128)":"704ed542","executableBalanceTopUpWithPermit(uint128,uint256,uint8,bytes32,bytes32)":"c6049692","exited()":"5ce6c327","inheritor()":"36a52a18","initialize(address,address,bool,uint128)":"bfa28576","initializer()":"9ce110d7","nonce()":"affed0e0","performStateTransition((address,bytes32,bool,address,uint128,bool,(bytes32,address,uint128)[],(bytes32,address,bytes,uint128,(bytes32,bytes4),bool)[]))":"084f443a","router()":"f887ea40","sendMessage(bytes,bool)":"42129d00","sendReply(bytes32,bytes)":"7a8e0cdd","stateHash()":"701da98e","transferLockedValueToInheritor()":"e43f3433"},"storageLayout":{"storage":[{"astId":76630,"contract":"src/Mirror.sol:Mirror","label":"stateHash","offset":0,"slot":"0","type":"t_bytes32"},{"astId":76633,"contract":"src/Mirror.sol:Mirror","label":"nonce","offset":0,"slot":"1","type":"t_uint256"},{"astId":76636,"contract":"src/Mirror.sol:Mirror","label":"exited","offset":0,"slot":"2","type":"t_bool"},{"astId":76639,"contract":"src/Mirror.sol:Mirror","label":"inheritor","offset":1,"slot":"2","type":"t_address"},{"astId":76642,"contract":"src/Mirror.sol:Mirror","label":"initializer","offset":0,"slot":"3","type":"t_address"},{"astId":76645,"contract":"src/Mirror.sol:Mirror","label":"isSmall","offset":20,"slot":"3","type":"t_bool"}],"types":{"t_address":{"encoding":"inplace","label":"address","numberOfBytes":"20"},"t_bool":{"encoding":"inplace","label":"bool","numberOfBytes":"1"},"t_bytes32":{"encoding":"inplace","label":"bytes32","numberOfBytes":"32"},"t_uint256":{"encoding":"inplace","label":"uint256","numberOfBytes":"32"}}},"id":161}