{"abi":[{"type":"constructor","inputs":[{"name":"_router","type":"address","internalType":"address"}],"stateMutability":"nonpayable"},{"type":"fallback","stateMutability":"payable"},{"type":"function","name":"claimValue","inputs":[{"name":"_claimedId","type":"bytes32","internalType":"bytes32"}],"outputs":[],"stateMutability":"nonpayable"},{"type":"function","name":"executableBalanceTopUp","inputs":[{"name":"_value","type":"uint128","internalType":"uint128"}],"outputs":[],"stateMutability":"nonpayable"},{"type":"function","name":"executableBalanceTopUpWithPermit","inputs":[{"name":"_value","type":"uint128","internalType":"uint128"},{"name":"_deadline","type":"uint256","internalType":"uint256"},{"name":"_v","type":"uint8","internalType":"uint8"},{"name":"_r","type":"bytes32","internalType":"bytes32"},{"name":"_s","type":"bytes32","internalType":"bytes32"}],"outputs":[],"stateMutability":"nonpayable"},{"type":"function","name":"exited","inputs":[],"outputs":[{"name":"","type":"bool","internalType":"bool"}],"stateMutability":"view"},{"type":"function","name":"inheritor","inputs":[],"outputs":[{"name":"","type":"address","internalType":"address"}],"stateMutability":"view"},{"type":"function","name":"initialize","inputs":[{"name":"_initializer","type":"address","internalType":"address"},{"name":"_abiInterface","type":"address","internalType":"address"},{"name":"_isSmall","type":"bool","internalType":"bool"},{"name":"_initialExecutableBalance","type":"uint128","internalType":"uint128"}],"outputs":[],"stateMutability":"nonpayable"},{"type":"function","name":"initializer","inputs":[],"outputs":[{"name":"","type":"address","internalType":"address"}],"stateMutability":"view"},{"type":"function","name":"nonce","inputs":[],"outputs":[{"name":"","type":"uint256","internalType":"uint256"}],"stateMutability":"view"},{"type":"function","name":"performStateTransition","inputs":[{"name":"_transition","type":"tuple","internalType":"struct Gear.StateTransition","components":[{"name":"actorId","type":"address","internalType":"address"},{"name":"newStateHash","type":"bytes32","internalType":"bytes32"},{"name":"exited","type":"bool","internalType":"bool"},{"name":"inheritor","type":"address","internalType":"address"},{"name":"valueToReceive","type":"uint128","internalType":"uint128"},{"name":"valueToReceiveNegativeSign","type":"bool","internalType":"bool"},{"name":"valueClaims","type":"tuple[]","internalType":"struct Gear.ValueClaim[]","components":[{"name":"messageId","type":"bytes32","internalType":"bytes32"},{"name":"destination","type":"address","internalType":"address"},{"name":"value","type":"uint128","internalType":"uint128"}]},{"name":"messages","type":"tuple[]","internalType":"struct Gear.Message[]","components":[{"name":"id","type":"bytes32","internalType":"bytes32"},{"name":"destination","type":"address","internalType":"address"},{"name":"payload","type":"bytes","internalType":"bytes"},{"name":"value","type":"uint128","internalType":"uint128"},{"name":"replyDetails","type":"tuple","internalType":"struct Gear.ReplyDetails","components":[{"name":"to","type":"bytes32","internalType":"bytes32"},{"name":"code","type":"bytes4","internalType":"bytes4"}]},{"name":"call","type":"bool","internalType":"bool"}]},{"name":"events","type":"bytes[]","internalType":"bytes[]"},{"name":"ethEvents","type":"bytes[]","internalType":"bytes[]"}]}],"outputs":[{"name":"transitionHash","type":"bytes32","internalType":"bytes32"}],"stateMutability":"payable"},{"type":"function","name":"router","inputs":[],"outputs":[{"name":"","type":"address","internalType":"address"}],"stateMutability":"view"},{"type":"function","name":"sendMessage","inputs":[{"name":"_payload","type":"bytes","internalType":"bytes"},{"name":"_callReply","type":"bool","internalType":"bool"}],"outputs":[{"name":"messageId","type":"bytes32","internalType":"bytes32"}],"stateMutability":"payable"},{"type":"function","name":"sendReply","inputs":[{"name":"_repliedTo","type":"bytes32","internalType":"bytes32"},{"name":"_payload","type":"bytes","internalType":"bytes"}],"outputs":[],"stateMutability":"payable"},{"type":"function","name":"stateHash","inputs":[],"outputs":[{"name":"","type":"bytes32","internalType":"bytes32"}],"stateMutability":"view"},{"type":"function","name":"transferLockedValueToInheritor","inputs":[],"outputs":[],"stateMutability":"nonpayable"},{"type":"event","name":"ExecutableBalanceTopUpRequested","inputs":[{"name":"value","type":"uint128","indexed":false,"internalType":"uint128"}],"anonymous":false},{"type":"event","name":"GearEvent","inputs":[{"name":"payload","type":"bytes","indexed":false,"internalType":"bytes"}],"anonymous":false},{"type":"event","name":"Message","inputs":[{"name":"id","type":"bytes32","indexed":false,"internalType":"bytes32"},{"name":"destination","type":"address","indexed":true,"internalType":"address"},{"name":"payload","type":"bytes","indexed":false,"internalType":"bytes"},{"name":"value","type":"uint128","indexed":false,"internalType":"uint128"}],"anonymous":false},{"type":"event","name":"MessageCallFailed","inputs":[{"name":"id","type":"bytes32","indexed":false,"internalType":"bytes32"},{"name":"destination","type":"address","indexed":true,"internalType":"address"},{"name":"value","type":"uint128","indexed":false,"internalType":"uint128"}],"anonymous":false},{"type":"event","name":"MessageQueueingRequested","inputs":[{"name":"id","type":"bytes32","indexed":false,"internalType":"bytes32"},{"name":"source","type":"address","indexed":true,"internalType":"address"},{"name":"payload","type":"bytes","indexed":false,"internalType":"bytes"},{"name":"value","type":"uint128","indexed":false,"internalType":"uint128"},{"name":"callReply","type":"bool","indexed":false,"internalType":"bool"}],"anonymous":false},{"type":"event","name":"OwnedBalanceTopUpRequested","inputs":[{"name":"value","type":"uint128","indexed":false,"internalType":"uint128"}],"anonymous":false},{"type":"event","name":"Reply","inputs":[{"name":"payload","type":"bytes","indexed":false,"internalType":"bytes"},{"name":"value","type":"uint128","indexed":false,"internalType":"uint128"},{"name":"replyTo","type":"bytes32","indexed":false,"internalType":"bytes32"},{"name":"replyCode","type":"bytes4","indexed":true,"internalType":"bytes4"}],"anonymous":false},{"type":"event","name":"ReplyCallFailed","inputs":[{"name":"value","type":"uint128","indexed":false,"internalType":"uint128"},{"name":"replyTo","type":"bytes32","indexed":false,"internalType":"bytes32"},{"name":"replyCode","type":"bytes4","indexed":true,"internalType":"bytes4"}],"anonymous":false},{"type":"event","name":"ReplyQueueingRequested","inputs":[{"name":"repliedTo","type":"bytes32","indexed":false,"internalType":"bytes32"},{"name":"source","type":"address","indexed":true,"internalType":"address"},{"name":"payload","type":"bytes","indexed":false,"internalType":"bytes"},{"name":"value","type":"uint128","indexed":false,"internalType":"uint128"}],"anonymous":false},{"type":"event","name":"ReplyTransferFailed","inputs":[{"name":"destination","type":"address","indexed":false,"internalType":"address"},{"name":"value","type":"uint128","indexed":false,"internalType":"uint128"}],"anonymous":false},{"type":"event","name":"StateChanged","inputs":[{"name":"stateHash","type":"bytes32","indexed":false,"internalType":"bytes32"}],"anonymous":false},{"type":"event","name":"TransferLockedValueToInheritorFailed","inputs":[{"name":"inheritor","type":"address","indexed":false,"internalType":"address"},{"name":"value","type":"uint128","indexed":false,"internalType":"uint128"}],"anonymous":false},{"type":"event","name":"ValueClaimFailed","inputs":[{"name":"claimedId","type":"bytes32","indexed":false,"internalType":"bytes32"},{"name":"value","type":"uint128","indexed":false,"internalType":"uint128"}],"anonymous":false},{"type":"event","name":"ValueClaimed","inputs":[{"name":"claimedId","type":"bytes32","indexed":false,"internalType":"bytes32"},{"name":"value","type":"uint128","indexed":false,"internalType":"uint128"}],"anonymous":false},{"type":"event","name":"ValueClaimingRequested","inputs":[{"name":"claimedId","type":"bytes32","indexed":false,"internalType":"bytes32"},{"name":"source","type":"address","indexed":true,"internalType":"address"}],"anonymous":false},{"type":"error","name":"AbiInterfaceAlreadySet","inputs":[]},{"type":"error","name":"CallerNotRouter","inputs":[]},{"type":"error","name":"EnforcedPause","inputs":[]},{"type":"error","name":"EtherTransferToRouterFailed","inputs":[]},{"type":"error","name":"InheritorMustBeZero","inputs":[]},{"type":"error","name":"InitMessageNotCreated","inputs":[]},{"type":"error","name":"InitMessageNotCreatedAndCallerNotInitializer","inputs":[]},{"type":"error","name":"InitializerAlreadySet","inputs":[]},{"type":"error","name":"InvalidActorId","inputs":[]},{"type":"error","name":"InvalidFallbackCall","inputs":[]},{"type":"error","name":"IsSmallAlreadySet","inputs":[]},{"type":"error","name":"ProgramExited","inputs":[]},{"type":"error","name":"ProgramNotExited","inputs":[]},{"type":"error","name":"TransferLockedValueToInheritorExternalFailed","inputs":[]},{"type":"error","name":"WVaraTransferFailed","inputs":[]}],"bytecode":{"object":"0x60a03461008d57601f611e0438819003918201601f19168301916001600160401b038311848410176100915780849260209460405283398101031261008d57516001600160a01b038116810361008d57608052604051611d5e90816100a6823960805181818161023801528181610e4e015281816114b40152818161156a0152818161169301526116d50152f35b5f80fd5b634e487b7160e01b5f52604160045260245ffdfe6080806040526004361015610181575b5061001861149f565b34151580610179575b1561005b577f134041dec9803c024e94a2479679395a15b6ae0034c4d424ab47712aa182620660206040516001600160801b0334168152a1005b60ff60035460a01c16158061016e575b1561015f5761007861153c565b6001541580159061014b575b1561013c576001600160801b03341661009c8161167b565b600154903060601b5f528160145260345f20915f198114610128576001016001557f9d835932f9695ed8acd7290fb99476799c321b20b15a597a99b597bdfb907c5460405183815260806020820152602060808201368152365f838301375f823683010152601f19601f3601160101926040820152600435151560608201528033930390a25f5260205ff35b634e487b7160e01b5f52601160045260245ffd5b634bfa3a2d60e01b5f5260045ffd5b506003546001600160a01b03163314610084565b6399dd405f60e01b5f5260045ffd5b50602436101561006b565b503615610021565b5f905f3560e01c90816336a52a18146113315750806342129d00146112355780635ce6c32714611213578063701da98e146111f7578063704ed542146111a35780637a8e0cdd1461110f57806391d5a64c146110b65780639ce110d71461108e578063affed0e014611071578063bfa2857614610f26578063c604969214610e08578063e43f343314610d9d578063f76207bb1461026a5763f887ea400361000f57346102675780600319360112610267576040517f00000000000000000000000000000000000000000000000000000000000000006001600160a01b03168152602090f35b80fd5b506020366003190112610267576001600160401b03600435116102675761014060043536036003190112610267576102a06116d3565b6102ae60043560040161141d565b306001600160a01b0390911603610d8e576102cd60a460043501611431565b610d73575b6102e660e460043501600435600401611452565b90818060051b0460201482151715610d5f576103048260051b611858565b83805b84821015610836578160051b8401359160de19853603018312156108325782850136039160e0831261082e576040519260c084018481106001600160401b0382111761081a5760405286850180358552602001356001600160a01b0381168103610812576020850152604085880101356001600160401b0381116108125736601f82888b0101011215610812576103a990369089880101803590602001611794565b604085015260608588010135906001600160801b0382168203610812576040916060860152607f19011261082e5760405190604082018281106001600160401b0382111761081a576040528685016080810135835260a001356001600160e01b0319811690036108165786850160a081013560208401526080850183905260c0013591821515830361081257846104ce603560548660209760a060019b0152845195888601519160606040880151970151918051908b63ffffffff60e01b91015116908b604051998a968288019c8d526001600160601b03199060601b1660408801528051918291018888015e8501936001600160801b03199060801b168685015260648401526084830152151560f81b6088820152030160158101845201826113e8565b519020868201520192858101608001356104f4576104ed908601611892565b0190610307565b61050260c082880101611431565b15610703578786826001600160f81b031961052182840160a00161187d565b841a60f81b16156060905f146106905750610547604061054e9285940101858b016117ca565b3691611794565b61055c6020858b010161141d565b6001600160801b036105726060878d010161143e565b16602083519301916207a120f161058761164c565b5015610594575b506104ed565b6105b96105a560208389010161141d565b6105b36060848a010161143e565b9061182b565b15610629575b7f5136ea80de584762b9532903198dfdd1125167a8685e943b1bc5d16b777151c360406105f06060848a010161143e565b60806001600160e01b03196106098b870160a00161187d565b16946001600160801b038451931683528a0101356020820152a25f61058e565b7f305c463d916e500e09d8c2b51f3ceea288d92833ffec0144992c3f3a80af158a61065860208389010161141d565b6106666060848a010161143e565b604080516001600160a01b039390931683526001600160801b0391909116602083015290a16105bf565b83926106fe916106e16106a985840160408101906117ca565b6106b760a08887010161187d565b93604051978896634a646c7f60e01b6020890152013560248701526044860152608485019161139a565b9063ffffffff60e01b16606483015203601f1981018352826113e8565b61054e565b6107146105a560208389010161141d565b156107ab575b7fe240a19e4a4ef8e5861c0eea48f9ab2cdb47bfe98347c94ccabb9c45f7d8d1c661074b87830160408101906117ca565b6107596060858b010161143e565b60806001600160e01b0319610772878d0160a00161187d565b16956001600160801b0361079360405196879660608852606088019161139a565b931660208501528b01013560408301520390a26104ed565b7f305c463d916e500e09d8c2b51f3ceea288d92833ffec0144992c3f3a80af158a6107da60208389010161141d565b6107e86060848a010161143e565b604080516001600160a01b039390931683526001600160801b0391909116602083015290a161071a565b8980fd5b8880fd5b634e487b7160e01b8a52604160045260248afd5b8780fd5b8680fd5b85838660051b902060c46004350135602219600435360301811215610d5b5760043501906004820135916001600160401b038311610d57576060830236036024820113610d57578260051b9083820460201484151715610cc35761089c82949392611858565b91859486955b858710156109d7576108d99495966001916004606083028701019061093b610932602080850135938c816060604089019e8f61141d565b9801976108e58961143e565b60405190868201928a84526001600160601b03199060601b1660408301526001600160801b03199060801b166054820152604481526109256064826113e8565b519020910152019961141d565b6105b38461143e565b1561098e5761096a7fa217f2987a7942c2966f1fd16d39097862308325249e8b9fb4c00a430fd657839261143e565b604080519283526001600160801b0391909116602083015290a15b019594936108a2565b6109b87f74e4a0c671b40d8f56604cce496a32bad5ff6f039513935b7cc837dc9ba970ed9261143e565b604080519283526001600160801b0391909116602083015290a1610985565b81852083896109ef6004803561010481019101611452565b8060051b9181830460201482151715610d4357610a0b83611858565b918491825b828410610cd7575050505020610a3161012460043501600435600401611452565b8060051b9181830460201482151715610cc357610a4d83611858565b918591825b828410610c895750505050209060446004350193610a6f85611431565b15610c5757610a8260646004350161141d565b95610a8b61153c565b60025496600186816101008160a81b038460081b166affffffffffffffffffffff60a81b8c161717998a600255161715610c4857602097476001600160801b031690610ae490829060081c6001600160a01b031661182b565b15610bfb575b50505b8454602460043501359586809203610bca575b5050610b19610b1360043560040161141d565b96611431565b610b2760646004350161141d565b610b3560846004350161143e565b90610b4460a460043501611431565b92604051988b8a019a6001600160601b03199060601b168b5260348a0152151560f81b60548901526001600160601b03199060601b1660558801526001600160801b03199060801b166069870152151560f81b6079860152607a850152609a84015260ba83015260da82015260da8152610bbf60fa826113e8565b519020604051908152f35b557f5c601f20d27885120b6fed87a4c313849b86eaddc9d28e7685e2e66a9c08093087604051878152a18488610b00565b604080516001600160a01b039390931683526001600160801b039190911660208301527f69c554fdd8abe771a12e37e5d229102c9e7bc0041a7cd4b726d0debd837556f391a18780610aea565b63463a5c5f60e01b8652600486fd5b6001600160a01b03610c6d60043560640161141d565b16610c7a57602095610aed565b6304c3c7a160e41b8452600484fd5b6020600191610c9c6105478787876117fc565b828151910120818801520193610cbc610cb68286866117fc565b906119b7565b0192610a52565b634e487b7160e01b85526011600452602485fd5b6020600191610cea6105478787876117fc565b8281519101208188015201937f7663a1334632838f3d8ba885a6276c6f369bc435577c9e82d80e887dee236925610d228286866117fc565b610d3960405192839260208452602084019161139a565b0390a10192610a10565b634e487b7160e01b84526011600452602484fd5b8380fd5b8280fd5b634e487b7160e01b83526011600452602483fd5b610d89610d8460846004350161143e565b61167b565b6102d2565b63ed488aa360e01b8152600490fd5b5034610267578060031936011261026757610db661149f565b60025460ff811615610df957610de290476001600160801b03169060081c6001600160a01b031661182b565b15610dea5780f35b63085fbdef60e21b8152600490fd5b63463a5c5f60e01b8252600482fd5b5034610f225760a0366003190112610f2257610e22611384565b6044359060ff8216809203610f2257610e3961149f565b610e4161153c565b6001600160a01b03610e727f0000000000000000000000000000000000000000000000000000000000000000611714565b16803b15610f22575f809160e46040518094819363d505accf60e01b83523360048401523060248401526001600160801b038816988960448501526024356064850152608484015260643560a484015260843560c48401525af1610ef6575b505f516020611d3e5f395f51905f5291610eec602092611557565b604051908152a180f35b602091935091610f145f5f516020611d3e5f395f51905f52946113e8565b610eec5f9492505091610ed1565b5f80fd5b34610f22576080366003190112610f22576004356001600160a01b03811690819003610f22576024356001600160a01b03811690819003610f2257604435801515809103610f2257606435926001600160801b038416809403610f2257610f8b6116d3565b600354906001600160a01b0382166110625760ff8260a01c16611053577f360894a13ba1a3210667c828492db98dca3e2076cc3735a920a3ca505d382bbc54926001600160a01b038416611044576001600160a81b03199092161760a09190911b60ff60a01b16176003556001600160a01b031916177f360894a13ba1a3210667c828492db98dca3e2076cc3735a920a3ca505d382bbc558061102a57005b60205f516020611d3e5f395f51905f5291604051908152a1005b638778dcd360e01b5f5260045ffd5b6325f368db60e11b5f5260045ffd5b63f20d240560e01b5f5260045ffd5b34610f22575f366003190112610f22576020600154604051908152f35b34610f22575f366003190112610f22576003546040516001600160a01b039091168152602090f35b34610f22576020366003190112610f22576110cf61149f565b6110d761153c565b6110df611618565b60405160043581527f0354817698da67944179457b89e15c1c57ca7b8cfd9d80eab1d09c258f6c497860203392a2005b6040366003190112610f22576024356001600160401b038111610f225761115b7fb64dad8a89028819d048f9c75ec4c516341da68972bb68a8e1262b5443c61e7f913690600401611357565b61116692919261149f565b61116e61153c565b611176611618565b6001600160801b0334169061118a8261167b565b61119e6040519283923396600435856113ba565b0390a2005b34610f22576020366003190112610f22575f516020611d3e5f395f51905f5260206111cc611384565b6111d461149f565b6111dc61153c565b6111e581611557565b6001600160801b0360405191168152a1005b34610f22575f366003190112610f225760205f54604051908152f35b34610f22575f366003190112610f2257602060ff600254166040519015158152f35b6040366003190112610f22576004356001600160401b038111610f2257611260903690600401611357565b9060243590811515809203610f225761127761149f565b61127f61153c565b6001541580159061131d575b1561013c576001600160801b033416906112a48261167b565b600154933060601b5f528460145260345f20935f198614610128576113047f9d835932f9695ed8acd7290fb99476799c321b20b15a597a99b597bdfb907c549360016020980160015560405193878552608089860152608085019161139a565b93604083015260608201528033930390a2604051908152f35b506003546001600160a01b0316331461128b565b34610f22575f366003190112610f225760025460081c6001600160a01b03168152602090f35b9181601f84011215610f22578235916001600160401b038311610f225760208381860195010111610f2257565b600435906001600160801b0382168203610f2257565b908060209392818452848401375f828201840152601f01601f1916010190565b926040926113e1916001600160801b0393979697865260606020870152606086019161139a565b9416910152565b90601f801991011681019081106001600160401b0382111761140957604052565b634e487b7160e01b5f52604160045260245ffd5b356001600160a01b0381168103610f225790565b358015158103610f225790565b356001600160801b0381168103610f225790565b903590601e1981360301821215610f2257018035906001600160401b038211610f2257602001918160051b36038313610f2257565b90816020910312610f2257518015158103610f225790565b604051635c975abb60e01b81526020816004817f00000000000000000000000000000000000000000000000000000000000000006001600160a01b03165afa908115611531575f91611502575b506114f357565b63d93c066560e01b5f5260045ffd5b611524915060203d60201161152a575b61151c81836113e8565b810190611487565b5f6114ec565b503d611512565b6040513d5f823e3d90fd5b60ff6002541661154857565b630d304b8160e31b5f5260045ffd5b6001600160801b0316806115685750565b7f00000000000000000000000000000000000000000000000000000000000000009060209060646001600160a01b036115a085611714565b6040516323b872dd60e01b81523360048201526001600160a01b0390961660248701526044860193909352849283915f91165af1908115611531575f916115f9575b50156115ea57565b6303a25d1960e31b5f5260045ffd5b611612915060203d60201161152a5761151c81836113e8565b5f6115e2565b6001541561162257565b631a2efd3560e31b5f5260045ffd5b6001600160401b03811161140957601f01601f191660200190565b3d15611676573d9061165d82611631565b9161166b60405193846113e8565b82523d5f602084013e565b606090565b6001600160801b03168061168c5750565b5f808080937f00000000000000000000000000000000000000000000000000000000000000005af16116bc61164c565b50156116c457565b6308eb200360e41b5f5260045ffd5b7f00000000000000000000000000000000000000000000000000000000000000006001600160a01b0316330361170557565b6375f48d7160e11b5f5260045ffd5b60405163088f50cf60e41b815290602090829060049082906001600160a01b03165afa908115611531575f91611752575b506001600160a01b031690565b90506020813d60201161178c575b8161176d602093836113e8565b81010312610f2257516001600160a01b0381168103610f22575f611745565b3d9150611760565b9291926117a082611631565b916117ae60405193846113e8565b829481845281830111610f22578281602093845f960137010152565b903590601e1981360301821215610f2257018035906001600160401b038211610f2257602001918136038313610f2257565b90821015611817576118139160051b8101906117ca565b9091565b634e487b7160e01b5f52603260045260245ffd5b906001600160801b03169081611842575050600190565b5f8080938193611388f161185461164c565b5090565b6040519190601f01601f191682016001600160401b03811183821017610f2257604052565b356001600160e01b031981168103610f225790565b61189e60c08201611431565b61190b575b7f9c4ffe7286aed9eb205c8adb12b51219122c7e56c67017f312af0e15f80117736119066118d36020840161141d565b6118e060408501856117ca565b6118ef6060879593950161143e565b9060405194859460018060a01b03169735856113ba565b0390a2565b602081015f8061191a8361141d565b8161192860408701876117ca565b9190826040519384928337810182815203926207a120f161194761164c565b501561195357506118a3565b61197d7f76c87872723521658a1c429bc5e355c5ad7b30719dae90158fe2b591f9ea56f89161141d565b6119896060840161143e565b60408051943585526001600160801b0390911660208501526001600160a01b03909116929081908101611906565b908015611d395781358060f81c90600182101580611d2e575b15611d285760f31c611fe016600181018310611d28576001840135927f5c601f20d27885120b6fed87a4c313849b86eaddc9d28e7685e2e66a9c08093084141580611cfe575b80611cd4575b80611caa575b80611c80575b80611c69575b80611c3f575b80611c15575b80611beb575b80611bc1575b80611b97575b80611b6d575b80611b43575b80611b19575b80611aef575b15611ae8578190035f190191826001611a7c82611858565b93870101833760218501359460418101359160018103611aa05750505090919250a1565b60028103611aae57505050a2565b600381979593969497145f14611ac757505090919293a3565b600414611ad7575b505050505050565b6061013594a45f8080808080611acf565b5050505050565b507f74e4a0c671b40d8f56604cce496a32bad5ff6f039513935b7cc837dc9ba970ed841415611a64565b507f305c463d916e500e09d8c2b51f3ceea288d92833ffec0144992c3f3a80af158a841415611a5e565b507f69c554fdd8abe771a12e37e5d229102c9e7bc0041a7cd4b726d0debd837556f3841415611a58565b507f7663a1334632838f3d8ba885a6276c6f369bc435577c9e82d80e887dee236925841415611a52565b507fa217f2987a7942c2966f1fd16d39097862308325249e8b9fb4c00a430fd65783841415611a4c565b507f5136ea80de584762b9532903198dfdd1125167a8685e943b1bc5d16b777151c3841415611a46565b507fe240a19e4a4ef8e5861c0eea48f9ab2cdb47bfe98347c94ccabb9c45f7d8d1c6841415611a40565b507f76c87872723521658a1c429bc5e355c5ad7b30719dae90158fe2b591f9ea56f8841415611a3a565b507f9c4ffe7286aed9eb205c8adb12b51219122c7e56c67017f312af0e15f8011773841415611a34565b505f516020611d3e5f395f51905f52841415611a2e565b507f134041dec9803c024e94a2479679395a15b6ae0034c4d424ab47712aa1826206841415611a28565b507f0354817698da67944179457b89e15c1c57ca7b8cfd9d80eab1d09c258f6c4978841415611a22565b507fb64dad8a89028819d048f9c75ec4c516341da68972bb68a8e1262b5443c61e7f841415611a1c565b507f9d835932f9695ed8acd7290fb99476799c321b20b15a597a99b597bdfb907c54841415611a16565b50505050565b5060048211156119d0565b505056fe85ba4ebb0990fc588bfbb287e2e810a77c858e0a69485d6a938c52c054236667","linkReferences":{}},"methodIdentifiers":{"claimValue(bytes32)":"91d5a64c","executableBalanceTopUp(uint128)":"704ed542","executableBalanceTopUpWithPermit(uint128,uint256,uint8,bytes32,bytes32)":"c6049692","exited()":"5ce6c327","inheritor()":"36a52a18","initialize(address,address,bool,uint128)":"bfa28576","initializer()":"9ce110d7","nonce()":"affed0e0","performStateTransition((address,bytes32,bool,address,uint128,bool,(bytes32,address,uint128)[],(bytes32,address,bytes,uint128,(bytes32,bytes4),bool)[],bytes[],bytes[]))":"f76207bb","router()":"f887ea40","sendMessage(bytes,bool)":"42129d00","sendReply(bytes32,bytes)":"7a8e0cdd","stateHash()":"701da98e","transferLockedValueToInheritor()":"e43f3433"},"storageLayout":{"storage":[{"astId":80114,"contract":"src/Mirror.sol:Mirror","label":"stateHash","offset":0,"slot":"0","type":"t_bytes32"},{"astId":80117,"contract":"src/Mirror.sol:Mirror","label":"nonce","offset":0,"slot":"1","type":"t_uint256"},{"astId":80120,"contract":"src/Mirror.sol:Mirror","label":"exited","offset":0,"slot":"2","type":"t_bool"},{"astId":80123,"contract":"src/Mirror.sol:Mirror","label":"inheritor","offset":1,"slot":"2","type":"t_address"},{"astId":80126,"contract":"src/Mirror.sol:Mirror","label":"initializer","offset":0,"slot":"3","type":"t_address"},{"astId":80129,"contract":"src/Mirror.sol:Mirror","label":"isSmall","offset":20,"slot":"3","type":"t_bool"}],"types":{"t_address":{"encoding":"inplace","label":"address","numberOfBytes":"20"},"t_bool":{"encoding":"inplace","label":"bool","numberOfBytes":"1"},"t_bytes32":{"encoding":"inplace","label":"bytes32","numberOfBytes":"32"},"t_uint256":{"encoding":"inplace","label":"uint256","numberOfBytes":"32"}}},"id":160}