{"abi":[{"type":"constructor","inputs":[{"name":"_router","type":"address","internalType":"address"}],"stateMutability":"nonpayable"},{"type":"fallback","stateMutability":"payable"},{"type":"function","name":"claimValue","inputs":[{"name":"_claimedId","type":"bytes32","internalType":"bytes32"}],"outputs":[],"stateMutability":"nonpayable"},{"type":"function","name":"executableBalanceTopUp","inputs":[{"name":"_value","type":"uint128","internalType":"uint128"}],"outputs":[],"stateMutability":"nonpayable"},{"type":"function","name":"executableBalanceTopUpWithPermit","inputs":[{"name":"_value","type":"uint128","internalType":"uint128"},{"name":"_deadline","type":"uint256","internalType":"uint256"},{"name":"_v","type":"uint8","internalType":"uint8"},{"name":"_r","type":"bytes32","internalType":"bytes32"},{"name":"_s","type":"bytes32","internalType":"bytes32"}],"outputs":[],"stateMutability":"nonpayable"},{"type":"function","name":"exited","inputs":[],"outputs":[{"name":"","type":"bool","internalType":"bool"}],"stateMutability":"view"},{"type":"function","name":"getOutgoingActionsMerkleRoot","inputs":[{"name":"_stateHash","type":"bytes32","internalType":"bytes32"}],"outputs":[{"name":"","type":"bytes32","internalType":"bytes32"}],"stateMutability":"view"},{"type":"function","name":"inheritor","inputs":[],"outputs":[{"name":"","type":"address","internalType":"address"}],"stateMutability":"view"},{"type":"function","name":"initialize","inputs":[{"name":"_initializer","type":"address","internalType":"address"},{"name":"_abiInterface","type":"address","internalType":"address"},{"name":"_isSmall","type":"bool","internalType":"bool"},{"name":"_initialExecutableBalance","type":"uint128","internalType":"uint128"}],"outputs":[],"stateMutability":"nonpayable"},{"type":"function","name":"initializer","inputs":[],"outputs":[{"name":"","type":"address","internalType":"address"}],"stateMutability":"view"},{"type":"function","name":"isOutgoingActionsProcessed","inputs":[{"name":"_messageId","type":"bytes32","internalType":"bytes32"}],"outputs":[{"name":"","type":"bool","internalType":"bool"}],"stateMutability":"view"},{"type":"function","name":"nonce","inputs":[],"outputs":[{"name":"","type":"uint256","internalType":"uint256"}],"stateMutability":"view"},{"type":"function","name":"performStateTransition","inputs":[{"name":"_transition","type":"tuple","internalType":"struct Gear.StateTransition","components":[{"name":"actorId","type":"address","internalType":"address"},{"name":"newStateHash","type":"bytes32","internalType":"bytes32"},{"name":"exited","type":"bool","internalType":"bool"},{"name":"inheritor","type":"address","internalType":"address"},{"name":"valueToReceive","type":"uint128","internalType":"uint128"},{"name":"valueToReceiveNegativeSign","type":"bool","internalType":"bool"},{"name":"merkleRoot","type":"bytes32","internalType":"bytes32"},{"name":"messages","type":"tuple[]","internalType":"struct Gear.Message[]","components":[{"name":"id","type":"bytes32","internalType":"bytes32"},{"name":"destination","type":"address","internalType":"address"},{"name":"payload","type":"bytes","internalType":"bytes"},{"name":"value","type":"uint128","internalType":"uint128"},{"name":"replyDetails","type":"tuple","internalType":"struct Gear.ReplyDetails","components":[{"name":"to","type":"bytes32","internalType":"bytes32"},{"name":"code","type":"bytes4","internalType":"bytes4"}]},{"name":"call","type":"bool","internalType":"bool"}]}]}],"outputs":[{"name":"transitionHash","type":"bytes32","internalType":"bytes32"}],"stateMutability":"payable"},{"type":"function","name":"processOutgoingAction","inputs":[{"name":"_stateHash","type":"bytes32","internalType":"bytes32"},{"name":"_totalLeaves","type":"uint256","internalType":"uint256"},{"name":"_leafIndex","type":"uint256","internalType":"uint256"},{"name":"_payload","type":"bytes","internalType":"bytes"},{"name":"_proof","type":"bytes32[]","internalType":"bytes32[]"}],"outputs":[],"stateMutability":"nonpayable"},{"type":"function","name":"router","inputs":[],"outputs":[{"name":"","type":"address","internalType":"address"}],"stateMutability":"view"},{"type":"function","name":"sendMessage","inputs":[{"name":"_payload","type":"bytes","internalType":"bytes"},{"name":"_callReply","type":"bool","internalType":"bool"}],"outputs":[{"name":"messageId","type":"bytes32","internalType":"bytes32"}],"stateMutability":"payable"},{"type":"function","name":"sendReply","inputs":[{"name":"_repliedTo","type":"bytes32","internalType":"bytes32"},{"name":"_payload","type":"bytes","internalType":"bytes"}],"outputs":[],"stateMutability":"payable"},{"type":"function","name":"stateHash","inputs":[],"outputs":[{"name":"","type":"bytes32","internalType":"bytes32"}],"stateMutability":"view"},{"type":"function","name":"transferLockedValueToInheritor","inputs":[],"outputs":[],"stateMutability":"nonpayable"},{"type":"event","name":"ExecutableBalanceTopUpRequested","inputs":[{"name":"value","type":"uint128","indexed":false,"internalType":"uint128"}],"anonymous":false},{"type":"event","name":"Message","inputs":[{"name":"id","type":"bytes32","indexed":false,"internalType":"bytes32"},{"name":"destination","type":"address","indexed":true,"internalType":"address"},{"name":"payload","type":"bytes","indexed":false,"internalType":"bytes"},{"name":"value","type":"uint128","indexed":false,"internalType":"uint128"}],"anonymous":false},{"type":"event","name":"MessageCallFailed","inputs":[{"name":"id","type":"bytes32","indexed":false,"internalType":"bytes32"},{"name":"destination","type":"address","indexed":true,"internalType":"address"},{"name":"value","type":"uint128","indexed":false,"internalType":"uint128"}],"anonymous":false},{"type":"event","name":"MessageQueueingRequested","inputs":[{"name":"id","type":"bytes32","indexed":false,"internalType":"bytes32"},{"name":"source","type":"address","indexed":true,"internalType":"address"},{"name":"payload","type":"bytes","indexed":false,"internalType":"bytes"},{"name":"value","type":"uint128","indexed":false,"internalType":"uint128"},{"name":"callReply","type":"bool","indexed":false,"internalType":"bool"}],"anonymous":false},{"type":"event","name":"OwnedBalanceTopUpRequested","inputs":[{"name":"value","type":"uint128","indexed":false,"internalType":"uint128"}],"anonymous":false},{"type":"event","name":"Reply","inputs":[{"name":"payload","type":"bytes","indexed":false,"internalType":"bytes"},{"name":"value","type":"uint128","indexed":false,"internalType":"uint128"},{"name":"replyTo","type":"bytes32","indexed":false,"internalType":"bytes32"},{"name":"replyCode","type":"bytes4","indexed":true,"internalType":"bytes4"}],"anonymous":false},{"type":"event","name":"ReplyCallFailed","inputs":[{"name":"value","type":"uint128","indexed":false,"internalType":"uint128"},{"name":"replyTo","type":"bytes32","indexed":false,"internalType":"bytes32"},{"name":"replyCode","type":"bytes4","indexed":true,"internalType":"bytes4"}],"anonymous":false},{"type":"event","name":"ReplyQueueingRequested","inputs":[{"name":"repliedTo","type":"bytes32","indexed":false,"internalType":"bytes32"},{"name":"source","type":"address","indexed":true,"internalType":"address"},{"name":"payload","type":"bytes","indexed":false,"internalType":"bytes"},{"name":"value","type":"uint128","indexed":false,"internalType":"uint128"}],"anonymous":false},{"type":"event","name":"ReplyTransferFailed","inputs":[{"name":"destination","type":"address","indexed":false,"internalType":"address"},{"name":"value","type":"uint128","indexed":false,"internalType":"uint128"}],"anonymous":false},{"type":"event","name":"StateChanged","inputs":[{"name":"stateHash","type":"bytes32","indexed":false,"internalType":"bytes32"}],"anonymous":false},{"type":"event","name":"TransferLockedValueToInheritorFailed","inputs":[{"name":"inheritor","type":"address","indexed":false,"internalType":"address"},{"name":"value","type":"uint128","indexed":false,"internalType":"uint128"}],"anonymous":false},{"type":"event","name":"ValueClaimed","inputs":[{"name":"claimedId","type":"bytes32","indexed":false,"internalType":"bytes32"},{"name":"value","type":"uint128","indexed":false,"internalType":"uint128"}],"anonymous":false},{"type":"event","name":"ValueClaimingRequested","inputs":[{"name":"claimedId","type":"bytes32","indexed":false,"internalType":"bytes32"},{"name":"source","type":"address","indexed":true,"internalType":"address"}],"anonymous":false},{"type":"error","name":"AbiInterfaceAlreadySet","inputs":[]},{"type":"error","name":"CallerNotRouter","inputs":[]},{"type":"error","name":"EnforcedPause","inputs":[]},{"type":"error","name":"EtherTransferToRouterFailed","inputs":[]},{"type":"error","name":"InheritorMustBeZero","inputs":[]},{"type":"error","name":"InitMessageNotCreated","inputs":[]},{"type":"error","name":"InitMessageNotCreatedAndCallerNotInitializer","inputs":[]},{"type":"error","name":"InitializerAlreadySet","inputs":[]},{"type":"error","name":"InvalidActorId","inputs":[]},{"type":"error","name":"InvalidFallbackCall","inputs":[]},{"type":"error","name":"IsSmallAlreadySet","inputs":[]},{"type":"error","name":"OutgoingActionAlreadyProcessed","inputs":[{"name":"messageId","type":"bytes32","internalType":"bytes32"}]},{"type":"error","name":"OutgoingActionInvalidMerkleProof","inputs":[]},{"type":"error","name":"OutgoingActionInvalidPayload","inputs":[]},{"type":"error","name":"OutgoingActionMerkleRootNotFound","inputs":[{"name":"stateHash","type":"bytes32","internalType":"bytes32"}]},{"type":"error","name":"ProgramExited","inputs":[]},{"type":"error","name":"ProgramNotExited","inputs":[]},{"type":"error","name":"TransferLockedValueToInheritorExternalFailed","inputs":[]},{"type":"error","name":"ValueClaimFailed","inputs":[{"name":"claimedId","type":"bytes32","internalType":"bytes32"},{"name":"value","type":"uint128","internalType":"uint128"}]},{"type":"error","name":"WVaraTransferFailed","inputs":[]}],"bytecode":{"object":"0x60a03461008d57601f611ebb38819003918201601f19168301916001600160401b038311848410176100915780849260209460405283398101031261008d57516001600160a01b038116810361008d57608052604051611e1590816100a68239608051818181610259015281816103e7015281816112a40152818161132e015281816113cf01526114730152f35b5f80fd5b634e487b7160e01b5f52604160045260245ffdfe6080806040526004361015610181575b5061001861128f565b34151580610179575b1561005b577f134041dec9803c024e94a2479679395a15b6ae0034c4d424ab47712aa182620660206040516001600160801b0334168152a1005b60ff60035460a01c16158061016e575b1561015f57610078611445565b6001541580159061014b575b1561013c576001600160801b03341661009c816113b7565b600154903060601b5f528160145260345f20915f198114610128576001016001557f9d835932f9695ed8acd7290fb99476799c321b20b15a597a99b597bdfb907c5460405183815260806020820152602060808201368152365f838301375f823683010152601f19601f3601160101926040820152600435151560608201528033930390a25f5260205ff35b634e487b7160e01b5f52601160045260245ffd5b634bfa3a2d60e01b5f5260045ffd5b506003546001600160a01b03163314610084565b6399dd405f60e01b5f5260045ffd5b50602436101561006b565b503615610021565b5f905f3560e01c9081630403e33a14611165575080630d408e191461113b57806336a52a181461110f57806342129d00146110135780634b885b9a146107d95780635ce6c327146107b6578063701da98e14610799578063704ed542146107435780637a8e0cdd146106ad57806391d5a64c146106525780639ce110d714610629578063affed0e01461060b578063bfa28576146104bc578063c6049692146103a0578063e43f343314610335578063ed3513fc1461028b5763f887ea400361000f57346102885780600319360112610288576040517f00000000000000000000000000000000000000000000000000000000000000006001600160a01b03168152602090f35b80fd5b50346102885760a0366003190112610288576064356001600160401b038111610331576102bc903690600401611190565b608435916001600160401b03831161032d573660238401121561032d578260040135916001600160401b038311610329573660248460051b860101116103295760246103129401916044356024356004356115ba565b1561031a5780f35b63564dcfad60e01b8152600490fd5b8480fd5b8380fd5b5080fd5b503461028857806003193601126102885761034e61128f565b60025460ff8116156103915761037a90476001600160801b03169060081c6001600160a01b03166119a7565b156103825780f35b63085fbdef60e21b8152600490fd5b63463a5c5f60e01b8252600482fd5b50346102885760a0366003190112610288576103ba6111bd565b6044359060ff82168092036104b8576103d161128f565b6103d9611445565b826001600160a01b0361040b7f000000000000000000000000000000000000000000000000000000000000000061153a565b16803b1561033157819060e46040518094819363d505accf60e01b83523360048401523060248401526001600160801b038816988960448501526024356064850152608484015260643560a484015260843560c48401525af161048e575b505f516020611df55f395f51905f5291610484602092611460565b604051908152a180f35b91610484846104ae602094965f516020611df55f395f51905f5296611256565b9492505091610469565b8280fd5b5034610288576080366003190112610288576004356001600160a01b03811690819003610331576024356001600160a01b038116908190036104b85760443580151580910361032d57606435926001600160801b0384168094036103295761052261132c565b600354906001600160a01b0382166105fc5760ff8260a01c166105ed577f360894a13ba1a3210667c828492db98dca3e2076cc3735a920a3ca505d382bbc54926001600160a01b0384166105de576001600160a81b03199092161760a09190911b60ff60a01b16176003556001600160a01b031916177f360894a13ba1a3210667c828492db98dca3e2076cc3735a920a3ca505d382bbc55806105c3575080f35b60205f516020611df55f395f51905f5291604051908152a180f35b638778dcd360e01b8752600487fd5b6325f368db60e11b8652600486fd5b63f20d240560e01b8652600486fd5b50346102885780600319360112610288576020600154604051908152f35b50346102885780600319360112610288576003546040516001600160a01b039091168152602090f35b50346102885760203660031901126102885761066c61128f565b610674611445565b61067c611521565b60405160043581527f0354817698da67944179457b89e15c1c57ca7b8cfd9d80eab1d09c258f6c497860203392a280f35b506040366003190112610288576024356001600160401b038111610331576106fa7fb64dad8a89028819d048f9c75ec4c516341da68972bb68a8e1262b5443c61e7f913690600401611190565b61070592919261128f565b61070d611445565b610715611521565b6001600160801b03341690610729826113b7565b61073d604051928392339660043585611228565b0390a280f35b5034610288576020366003190112610288575f516020611df55f395f51905f52602061076d6111bd565b61077561128f565b61077d611445565b61078681611460565b6001600160801b0360405191168152a180f35b503461028857806003193601126102885760209054604051908152f35b5034610288578060031936011261028857602060ff600254166040519015158152f35b506020366003190112610dab576001600160401b0360043511610dab576004353603610100600319820112610dab5761081061132c565b61081e6004356004016111d3565b306001600160a01b03909116036110045760a4600435019061083f826111e7565b610fe9575b60043560e401359060221901811215610dab576001600160401b03600482813501013511610dab57600481813501013560051b3603602482600435010113610dab576004803582010135600581901b81900460201490151715610128576108b4600482813501013560051b611805565b905f935f5b6004838135010135811015610dc357600581901b6004358401908101602401359036036101021901811215610dab5760049084823501010190601f19823603019160e08312610dab576040519760c089018981106001600160401b03821117610daf57604090815260208301358a52820135906001600160a01b0382168203610dab5760208a0191825260608301356001600160401b038111610dab5760209084010136601f82011215610dab5761097890369060208135910161140f565b9160408b019283526080840135956001600160801b0387168703610dab5760409060608d01978852607f190112610dab5760405195604087018781106001600160401b03821117610daf5760405260a0850135875260c08501356001600160e01b031981168103610dab578760808e60208301938452015260e086019c8d3580151596878203610dab5760019a602098610a8d958560549560a060359801525198519351975192519063ffffffff60e01b905116908b604051998a968288019c8d526001600160601b03199060601b1660408801528051918291018888015e8501936001600160801b03199060801b16868501526064840152608483015260f81b608882015203016015810184520182611256565b51902088820152019760a0820135610ab257506020610aac9101611871565b016108b9565b610abb906111e7565b15610ca8576001600160f81b0319610ad560c0830161185c565b5f1a60f81b16156060905f14610c3257505f80610b02610afb606085016020860161182a565b369161140f565b610b0e604085016111d3565b6001600160801b03610b22608087016111f4565b16602083519301916207a120f1610b37611388565b5015610b44575b50610aac565b610b65610b53604083016111d3565b610b5f608084016111f4565b906119a7565b15610bcf575b7f5136ea80de584762b9532903198dfdd1125167a8685e943b1bc5d16b777151c36040610b9a608084016111f4565b60a06001600160e01b0319610bb160c0870161185c565b16946001600160801b0384519316835201356020820152a25f610b3e565b7f305c463d916e500e09d8c2b51f3ceea288d92833ffec0144992c3f3a80af158a610bfc604083016111d3565b610c08608084016111f4565b604080516001600160a01b039390931683526001600160801b0391909116602083015290a1610b6b565b5f8091610ca3610c48606086016020870161182a565b9290610c86610c5960c0890161185c565b91604051958694634a646c7f60e01b602087015260208b0135602487015260448601526084850191611208565b9063ffffffff60e01b16606483015203601f198101835282611256565b610b02565b610cb7610b53604083016111d3565b15610d48575b7fe240a19e4a4ef8e5861c0eea48f9ab2cdb47bfe98347c94ccabb9c45f7d8d1c6610cee606083016020840161182a565b610cfa608085016111f4565b60a06001600160e01b0319610d1160c0880161185c565b16956001600160801b03610d32604051968796606088526060880191611208565b93166020850152013560408301520390a2610aac565b7f305c463d916e500e09d8c2b51f3ceea288d92833ffec0144992c3f3a80af158a610d75604083016111d3565b610d81608084016111f4565b604080516001600160a01b039390931683526001600160801b0391909116602083015290a1610cbd565b5f80fd5b634e487b7160e01b5f52604160045260245ffd5b509350600490813501013560051b9020602460043501359060c46004350135825f5260046020528060405f205560446004350193610e00856111e7565b15610fb6576020955083610e186064600435016111d3565b610e20611445565b600280546001600160a81b031916600883811b610100600160a81b031691909117600117918290555f9291476001600160801b031691610e6b9183911c6001600160a01b03166119a7565b15610f69575b50505b81815403610f38575b5050610e96610e906004356004016111d3565b956111e7565b90610ea56064600435016111d3565b610ebc610eb66084600435016111f4565b926111e7565b9260405196898801986001600160601b03199060601b1689526034880152151560f81b60548701526001600160601b03199060601b1660558601526001600160801b03199060801b166069850152151560f81b6079840152607a830152609a820152609a8152610f2d60ba82611256565b519020604051908152f35b557f5c601f20d27885120b6fed87a4c313849b86eaddc9d28e7685e2e66a9c08093086604051868152a1835f610e7d565b604080516001600160a01b039390931683526001600160801b039190911660208301527f69c554fdd8abe771a12e37e5d229102c9e7bc0041a7cd4b726d0debd837556f391a15f80610e71565b6001600160a01b03610fcc6004356064016111d3565b16610fda5783602096610e74565b6304c3c7a160e41b5f5260045ffd5b610fff610ffa6084600435016111f4565b6113b7565b610844565b63ed488aa360e01b5f5260045ffd5b6040366003190112610dab576004356001600160401b038111610dab5761103e903690600401611190565b9060243590811515809203610dab5761105561128f565b61105d611445565b600154158015906110fb575b1561013c576001600160801b03341690611082826113b7565b600154933060601b5f528460145260345f20935f198614610128576110e27f9d835932f9695ed8acd7290fb99476799c321b20b15a597a99b597bdfb907c5493600160209801600155604051938785526080898601526080850191611208565b93604083015260608201528033930390a2604051908152f35b506003546001600160a01b03163314611069565b34610dab575f366003190112610dab5760025460405160089190911c6001600160a01b03168152602090f35b34610dab576020366003190112610dab576004355f526004602052602060405f2054604051908152f35b34610dab576020366003190112610dab576020906004355f526005825260ff60405f20541615158152f35b9181601f84011215610dab578235916001600160401b038311610dab5760208381860195010111610dab57565b600435906001600160801b0382168203610dab57565b356001600160a01b0381168103610dab5790565b358015158103610dab5790565b356001600160801b0381168103610dab5790565b908060209392818452848401375f828201840152601f01601f1916010190565b9260409261124f916001600160801b03939796978652606060208701526060860191611208565b9416910152565b90601f801991011681019081106001600160401b03821117610daf57604052565b90816020910312610dab57518015158103610dab5790565b604051635c975abb60e01b81526020816004817f00000000000000000000000000000000000000000000000000000000000000006001600160a01b03165afa908115611321575f916112f2575b506112e357565b63d93c066560e01b5f5260045ffd5b611314915060203d60201161131a575b61130c8183611256565b810190611277565b5f6112dc565b503d611302565b6040513d5f823e3d90fd5b7f00000000000000000000000000000000000000000000000000000000000000006001600160a01b0316330361135e57565b6375f48d7160e11b5f5260045ffd5b6001600160401b038111610daf57601f01601f191660200190565b3d156113b2573d906113998261136d565b916113a76040519384611256565b82523d5f602084013e565b606090565b6001600160801b0316806113c85750565b5f808080937f00000000000000000000000000000000000000000000000000000000000000005af16113f8611388565b501561140057565b6308eb200360e41b5f5260045ffd5b92919261141b8261136d565b916114296040519384611256565b829481845281830111610dab578281602093845f960137010152565b60ff6002541661145157565b630d304b8160e31b5f5260045ffd5b6001600160801b0316806114715750565b7f00000000000000000000000000000000000000000000000000000000000000009060209060646001600160a01b036114a98561153a565b6040516323b872dd60e01b81523360048201526001600160a01b0390961660248701526044860193909352849283915f91165af1908115611321575f91611502575b50156114f357565b6303a25d1960e31b5f5260045ffd5b61151b915060203d60201161131a5761130c8183611256565b5f6114eb565b6001541561152b57565b631a2efd3560e31b5f5260045ffd5b60405163088f50cf60e41b815290602090829060049082906001600160a01b03165afa908115611321575f91611578575b506001600160a01b031690565b90506020813d6020116115b2575b8161159360209383611256565b81010312610dab57516001600160a01b0381168103610dab575f61156b565b3d9150611586565b909496959380156117fa57833560f81c92600284149687156117ed5760448311156117ed57600186013596875f52600560205260ff60405f2054166117da5788999a60356021899a9b990135990135958660801c9b6117c1575b871595861561179d576046811061178c57604611610dab575b805f52600460205260405f205490811561177a57509061165b95949392915f95159788611719575b506119d4565b1561170a57845f52600560205260405f20600160ff19825416179055611686575b5050505050600190565b600103611694575b8061167c565b61169f575b8061168e565b826116ac9160601c6119a7565b156116f557604080519182526001600160801b039290921660208201527fa217f2987a7942c2966f1fd16d39097862308325249e8b9fb4c00a430fd657839190a15f8080611699565b633a72506360e11b5f5260045260245260445ffd5b639adc849f60e01b5f5260045ffd5b8a60018b03611729575b50611655565b611734575b8a611723565b90955060405160208101918d83526001600160601b03198d1660408301526001600160801b031916605482015260448152611770606482611256565b519020945f61172e565b6307e63dbd60e51b5f5260045260245ffd5b505050505050505050505050505f90565b600189146117ac575b5061162d565b606a811061178c57606a11610dab575f6117a6565b6045860315611614575050505050505050505050505f90565b87631bce979960e11b5f5260045260245ffd5b505f985050505050505050565b505f96505050505050565b6040519190601f01601f191682016001600160401b03811183821017610dab57604052565b903590601e1981360301821215610dab57018035906001600160401b038211610dab57602001918136038313610dab57565b356001600160e01b031981168103610dab5790565b61187a81611a63565b156118825750565b61188e60c082016111e7565b6118fb575b7f9c4ffe7286aed9eb205c8adb12b51219122c7e56c67017f312af0e15f80117736118f66118c3602084016111d3565b6118d0604085018561182a565b6118df606087959395016111f4565b9060405194859460018060a01b0316973585611228565b0390a2565b602081015f8061190a836111d3565b81611918604087018761182a565b9190826040519384928337810182815203926207a120f1611937611388565b50156119435750611893565b61196d7f76c87872723521658a1c429bc5e355c5ad7b30719dae90158fe2b591f9ea56f8916111d3565b611979606084016111f4565b60408051943585526001600160801b0390911660208501526001600160a01b039091169290819081016118f6565b906001600160801b031690816119be575050600190565b5f8080938193611388f16119d0611388565b5090565b91949590929384811015611a58575f969092905b86881015611a4e57808860051b860135906001808716148015611a42575b15611a2d57505f5260205260018060405f20945b811c965f1901811c0197019694926119e8565b9091505f5260205260018060405f2094611a1a565b50876001870114611a06565b1495509350505050565b509450505050505f90565b611a70604082018261182a565b90916001600160a01b0380611a87602084016111d3565b16149081611dd6575b5080611dcd575b15611dc75781358060f81c90600182101580611dbc575b15611db45760f31c611fe016600181018310611db4576001840135927f5c601f20d27885120b6fed87a4c313849b86eaddc9d28e7685e2e66a9c08093084141580611d8a575b80611d60575b80611d36575b80611d0c575b80611cf5575b80611ccb575b80611ca1575b80611c77575b80611c4d575b80611c23575b80611bf9575b80611bcf575b15611bc6578190035f190191826001611b4e82611805565b93870101833760218501359460418101359160018103611b755750505090919250a1600190565b60028103611b8657505050a2600190565b600381979593969497145f14611ba257505090919293a3600190565b600414611bb5575b505050505050600190565b6061013594a45f8080808080611baa565b50505050505f90565b507f305c463d916e500e09d8c2b51f3ceea288d92833ffec0144992c3f3a80af158a841415611b36565b507f69c554fdd8abe771a12e37e5d229102c9e7bc0041a7cd4b726d0debd837556f3841415611b30565b507fa217f2987a7942c2966f1fd16d39097862308325249e8b9fb4c00a430fd65783841415611b2a565b507f5136ea80de584762b9532903198dfdd1125167a8685e943b1bc5d16b777151c3841415611b24565b507fe240a19e4a4ef8e5861c0eea48f9ab2cdb47bfe98347c94ccabb9c45f7d8d1c6841415611b1e565b507f76c87872723521658a1c429bc5e355c5ad7b30719dae90158fe2b591f9ea56f8841415611b18565b507f9c4ffe7286aed9eb205c8adb12b51219122c7e56c67017f312af0e15f8011773841415611b12565b505f516020611df55f395f51905f52841415611b0c565b507f134041dec9803c024e94a2479679395a15b6ae0034c4d424ab47712aa1826206841415611b06565b507f0354817698da67944179457b89e15c1c57ca7b8cfd9d80eab1d09c258f6c4978841415611b00565b507fb64dad8a89028819d048f9c75ec4c516341da68972bb68a8e1262b5443c61e7f841415611afa565b507f9d835932f9695ed8acd7290fb99476799c321b20b15a597a99b597bdfb907c54841415611af4565b505050505f90565b506004821115611aae565b50505f90565b50801515611a97565b6001600160801b0391506060611dec91016111f4565b16155f611a9056fe85ba4ebb0990fc588bfbb287e2e810a77c858e0a69485d6a938c52c054236667","linkReferences":{}},"methodIdentifiers":{"claimValue(bytes32)":"91d5a64c","executableBalanceTopUp(uint128)":"704ed542","executableBalanceTopUpWithPermit(uint128,uint256,uint8,bytes32,bytes32)":"c6049692","exited()":"5ce6c327","getOutgoingActionsMerkleRoot(bytes32)":"0d408e19","inheritor()":"36a52a18","initialize(address,address,bool,uint128)":"bfa28576","initializer()":"9ce110d7","isOutgoingActionsProcessed(bytes32)":"0403e33a","nonce()":"affed0e0","performStateTransition((address,bytes32,bool,address,uint128,bool,bytes32,(bytes32,address,bytes,uint128,(bytes32,bytes4),bool)[]))":"4b885b9a","processOutgoingAction(bytes32,uint256,uint256,bytes,bytes32[])":"ed3513fc","router()":"f887ea40","sendMessage(bytes,bool)":"42129d00","sendReply(bytes32,bytes)":"7a8e0cdd","stateHash()":"701da98e","transferLockedValueToInheritor()":"e43f3433"},"storageLayout":{"storage":[{"astId":80248,"contract":"src/Mirror.sol:Mirror","label":"stateHash","offset":0,"slot":"0","type":"t_bytes32"},{"astId":80251,"contract":"src/Mirror.sol:Mirror","label":"nonce","offset":0,"slot":"1","type":"t_uint256"},{"astId":80254,"contract":"src/Mirror.sol:Mirror","label":"exited","offset":0,"slot":"2","type":"t_bool"},{"astId":80257,"contract":"src/Mirror.sol:Mirror","label":"inheritor","offset":1,"slot":"2","type":"t_address"},{"astId":80260,"contract":"src/Mirror.sol:Mirror","label":"initializer","offset":0,"slot":"3","type":"t_address"},{"astId":80263,"contract":"src/Mirror.sol:Mirror","label":"isSmall","offset":20,"slot":"3","type":"t_bool"},{"astId":80267,"contract":"src/Mirror.sol:Mirror","label":"_merkleRoots","offset":0,"slot":"4","type":"t_mapping(t_bytes32,t_bytes32)"},{"astId":80271,"contract":"src/Mirror.sol:Mirror","label":"_processedMessages","offset":0,"slot":"5","type":"t_mapping(t_bytes32,t_bool)"}],"types":{"t_address":{"encoding":"inplace","label":"address","numberOfBytes":"20"},"t_bool":{"encoding":"inplace","label":"bool","numberOfBytes":"1"},"t_bytes32":{"encoding":"inplace","label":"bytes32","numberOfBytes":"32"},"t_mapping(t_bytes32,t_bool)":{"encoding":"mapping","key":"t_bytes32","label":"mapping(bytes32 => bool)","numberOfBytes":"32","value":"t_bool"},"t_mapping(t_bytes32,t_bytes32)":{"encoding":"mapping","key":"t_bytes32","label":"mapping(bytes32 => bytes32)","numberOfBytes":"32","value":"t_bytes32"},"t_uint256":{"encoding":"inplace","label":"uint256","numberOfBytes":"32"}}},"id":160}