{"abi":[{"type":"constructor","inputs":[{"name":"networkRegistry","type":"address","internalType":"address"}],"stateMutability":"nonpayable"},{"type":"function","name":"NETWORK_REGISTRY","inputs":[],"outputs":[{"name":"","type":"address","internalType":"address"}],"stateMutability":"view"},{"type":"function","name":"middleware","inputs":[{"name":"network","type":"address","internalType":"address"}],"outputs":[{"name":"value","type":"address","internalType":"address"}],"stateMutability":"view"},{"type":"function","name":"setMiddleware","inputs":[{"name":"middleware_","type":"address","internalType":"address"}],"outputs":[],"stateMutability":"nonpayable"},{"type":"event","name":"SetMiddleware","inputs":[{"name":"network","type":"address","indexed":true,"internalType":"address"},{"name":"middleware","type":"address","indexed":false,"internalType":"address"}],"anonymous":false},{"type":"error","name":"AlreadySet","inputs":[]},{"type":"error","name":"NotNetwork","inputs":[]}],"bytecode":{"object":"0x60a034606c57601f6102fc38819003918201601f19168301916001600160401b03831184841017607057808492602094604052833981010312606c57516001600160a01b0381168103606c5760805260405161027790816100858239608051818181605201526101070152f35b5f80fd5b634e487b7160e01b5f52604160045260245ffdfe6080806040526004361015610012575f80fd5b5f3560e01c908163b7d8e1a9146100c857508063bb5ed032146100855763c0cd7c3e1461003d575f80fd5b34610081575f366003190112610081576040517f00000000000000000000000000000000000000000000000000000000000000006001600160a01b03168152602090f35b5f80fd5b34610081576020366003190112610081576004356001600160a01b03811690819003610081575f525f602052602060018060a01b0360405f205416604051908152f35b34610081576020366003190112610081576004356001600160a01b0381169190829003610081576302910f8b60e31b81523360048201526020816024817f00000000000000000000000000000000000000000000000000000000000000006001600160a01b03165afa908115610236575f916101d1575b50156101c257335f908152602081905260409020546001600160a01b031681146101b357335f525f60205260405f20816bffffffffffffffffffffffff60a01b8254161790556040519081527ff64e2a8734392e221de13f5e56deb22d308e292cad394052affa97dbaf41ec9860203392a2005b63a741a04560e01b5f5260045ffd5b6323d53b9760e21b5f5260045ffd5b905060203d60201161022f575b601f8101601f1916820167ffffffffffffffff81118382101761021b5760209183916040528101031261008157518015158103610081578261013f565b634e487b7160e01b5f52604160045260245ffd5b503d6101de565b6040513d5f823e3d90fdfea264697066735822122052ca43b1329a1b92521610e9080ee2231550c42473d236596de54d319443b8cb64736f6c63430008230033","linkReferences":{}},"methodIdentifiers":{"NETWORK_REGISTRY()":"c0cd7c3e","middleware(address)":"bb5ed032","setMiddleware(address)":"b7d8e1a9"},"id":144}