{"abi":[{"type":"constructor","inputs":[{"name":"networkRegistry","type":"address","internalType":"address"}],"stateMutability":"nonpayable"},{"type":"function","name":"NETWORK_REGISTRY","inputs":[],"outputs":[{"name":"","type":"address","internalType":"address"}],"stateMutability":"view"},{"type":"function","name":"middleware","inputs":[{"name":"network","type":"address","internalType":"address"}],"outputs":[{"name":"value","type":"address","internalType":"address"}],"stateMutability":"view"},{"type":"function","name":"setMiddleware","inputs":[{"name":"middleware_","type":"address","internalType":"address"}],"outputs":[],"stateMutability":"nonpayable"},{"type":"event","name":"SetMiddleware","inputs":[{"name":"network","type":"address","indexed":true,"internalType":"address"},{"name":"middleware","type":"address","indexed":false,"internalType":"address"}],"anonymous":false},{"type":"error","name":"AlreadySet","inputs":[]},{"type":"error","name":"NotNetwork","inputs":[]}],"bytecode":{"object":"0x60a034606c57601f6102dc38819003918201601f19168301916001600160401b03831184841017607057808492602094604052833981010312606c57516001600160a01b0381168103606c5760805260405161025790816100858239608051818181605401526101030152f35b5f80fd5b634e487b7160e01b5f52604160045260245ffdfe6080604090808252600480361015610015575f80fd5b5f3560e01c918263b7d8e1a9146100c357508163bb5ed03214610087575063c0cd7c3e14610041575f80fd5b34610083575f36600319011261008357517f00000000000000000000000000000000000000000000000000000000000000006001600160a01b03168152602090f35b5f80fd5b90503461008357602036600319011261008357356001600160a01b038181169291839003610083576020925f525f8352815f2054169051908152f35b83346100835760209081600319360112610083576001600160a01b0384358181169490859003610083576302910f8b60e31b8152338682015283816024817f000000000000000000000000000000000000000000000000000000000000000086165afa908115610217575f916101b7575b50156101a7578390335f525f8452825f2054161461019857907ff64e2a8734392e221de13f5e56deb22d308e292cad394052affa97dbaf41ec9891335f525f8252805f20846bffffffffffffffffffffffff60a01b825416179055519283523392a2005b5163a741a04560e01b81528390fd5b81516323d53b9760e21b81528590fd5b9050833d8511610210575b601f8101601f1916820167ffffffffffffffff8111838210176101fd5785918391865281010312610083575180151581036100835786610134565b604188634e487b7160e01b5f525260245ffd5b503d6101c2565b83513d5f823e3d90fdfea26469706673582212204f9d8e7d56920d88e2358268d67aed11c7bec9fb5cfaaed34c7210bbd86b22e464736f6c63430008190033","linkReferences":{}},"methodIdentifiers":{"NETWORK_REGISTRY()":"c0cd7c3e","middleware(address)":"bb5ed032","setMiddleware(address)":"b7d8e1a9"},"id":90}