{"abi":[{"type":"function","name":"entity","inputs":[{"name":"index","type":"uint256","internalType":"uint256"}],"outputs":[{"name":"","type":"address","internalType":"address"}],"stateMutability":"view"},{"type":"function","name":"isEntity","inputs":[{"name":"entity_","type":"address","internalType":"address"}],"outputs":[{"name":"","type":"bool","internalType":"bool"}],"stateMutability":"view"},{"type":"function","name":"registerOperator","inputs":[],"outputs":[],"stateMutability":"nonpayable"},{"type":"function","name":"totalEntities","inputs":[],"outputs":[{"name":"","type":"uint256","internalType":"uint256"}],"stateMutability":"view"},{"type":"event","name":"AddEntity","inputs":[{"name":"entity","type":"address","indexed":true,"internalType":"address"}],"anonymous":false},{"type":"error","name":"EntityNotExist","inputs":[]},{"type":"error","name":"OperatorAlreadyRegistered","inputs":[]}],"bytecode":{"object":"0x60808060405234601557610241908161001a8239f35b5f80fdfe60806040526004361015610011575f80fd5b5f3560e01c806314887c581461013d5780632acde098146100d15780635cd8b15e146100b55763b42ba2a214610045575f80fd5b346100b15760203660031901126100b1576004355f5481101561009d575f80527f290decd9548b62a8d60345a988386fc84ba6bc95484008f6362f93160ef3e56301546040516001600160a01b039091168152602090f35b634e487b7160e01b5f52603260045260245ffd5b5f80fd5b346100b1575f3660031901126100b15760205f54604051908152f35b346100b1575f3660031901126100b1576100f6335f52600160205260405f2054151590565b61012b5761010333610184565b50337fb919910dcefbf753bfd926ab3b1d3f85d877190c3d01ba1bd585047b99b99f0b5f80a2005b6040516342ee68b560e01b8152600490fd5b346100b15760203660031901126100b1576004356001600160a01b038116908190036100b15761017a6020915f52600160205260405f2054151590565b6040519015158152f35b805f52600160205260405f2054155f14610206575f54680100000000000000008110156101f25760018101805f5581101561009d5781907f290decd9548b62a8d60345a988386fc84ba6bc95484008f6362f93160ef3e56301555f54905f52600160205260405f2055600190565b634e487b7160e01b5f52604160045260245ffd5b505f9056fea264697066735822122077e93113fb982ae02c0a41b82d2748dbea47776eb9ecfa1fc44d11a0333ed06864736f6c63430008190033","linkReferences":{}},"methodIdentifiers":{"entity(uint256)":"b42ba2a2","isEntity(address)":"14887c58","registerOperator()":"2acde098","totalEntities()":"5cd8b15e"},"id":65}