{"abi":[{"type":"constructor","inputs":[{"name":"whoRegistry","type":"address","internalType":"address"},{"name":"whereRegistry","type":"address","internalType":"address"},{"name":"name","type":"string","internalType":"string"}],"stateMutability":"nonpayable"},{"type":"function","name":"WHERE_REGISTRY","inputs":[],"outputs":[{"name":"","type":"address","internalType":"address"}],"stateMutability":"view"},{"type":"function","name":"WHO_REGISTRY","inputs":[],"outputs":[{"name":"","type":"address","internalType":"address"}],"stateMutability":"view"},{"type":"function","name":"eip712Domain","inputs":[],"outputs":[{"name":"fields","type":"bytes1","internalType":"bytes1"},{"name":"name","type":"string","internalType":"string"},{"name":"version","type":"string","internalType":"string"},{"name":"chainId","type":"uint256","internalType":"uint256"},{"name":"verifyingContract","type":"address","internalType":"address"},{"name":"salt","type":"bytes32","internalType":"bytes32"},{"name":"extensions","type":"uint256[]","internalType":"uint256[]"}],"stateMutability":"view"},{"type":"function","name":"increaseNonce","inputs":[{"name":"where","type":"address","internalType":"address"}],"outputs":[],"stateMutability":"nonpayable"},{"type":"function","name":"isOptedIn","inputs":[{"name":"who","type":"address","internalType":"address"},{"name":"where","type":"address","internalType":"address"}],"outputs":[{"name":"","type":"bool","internalType":"bool"}],"stateMutability":"view"},{"type":"function","name":"isOptedInAt","inputs":[{"name":"who","type":"address","internalType":"address"},{"name":"where","type":"address","internalType":"address"},{"name":"timestamp","type":"uint48","internalType":"uint48"},{"name":"hint","type":"bytes","internalType":"bytes"}],"outputs":[{"name":"","type":"bool","internalType":"bool"}],"stateMutability":"view"},{"type":"function","name":"nonces","inputs":[{"name":"who","type":"address","internalType":"address"},{"name":"where","type":"address","internalType":"address"}],"outputs":[{"name":"nonce","type":"uint256","internalType":"uint256"}],"stateMutability":"view"},{"type":"function","name":"optIn","inputs":[{"name":"where","type":"address","internalType":"address"}],"outputs":[],"stateMutability":"nonpayable"},{"type":"function","name":"optIn","inputs":[{"name":"who","type":"address","internalType":"address"},{"name":"where","type":"address","internalType":"address"},{"name":"deadline","type":"uint48","internalType":"uint48"},{"name":"signature","type":"bytes","internalType":"bytes"}],"outputs":[],"stateMutability":"nonpayable"},{"type":"function","name":"optOut","inputs":[{"name":"who","type":"address","internalType":"address"},{"name":"where","type":"address","internalType":"address"},{"name":"deadline","type":"uint48","internalType":"uint48"},{"name":"signature","type":"bytes","internalType":"bytes"}],"outputs":[],"stateMutability":"nonpayable"},{"type":"function","name":"optOut","inputs":[{"name":"where","type":"address","internalType":"address"}],"outputs":[],"stateMutability":"nonpayable"},{"type":"function","name":"staticDelegateCall","inputs":[{"name":"target","type":"address","internalType":"address"},{"name":"data","type":"bytes","internalType":"bytes"}],"outputs":[],"stateMutability":"nonpayable"},{"type":"event","name":"EIP712DomainChanged","inputs":[],"anonymous":false},{"type":"event","name":"IncreaseNonce","inputs":[{"name":"who","type":"address","indexed":true,"internalType":"address"},{"name":"where","type":"address","indexed":true,"internalType":"address"}],"anonymous":false},{"type":"event","name":"OptIn","inputs":[{"name":"who","type":"address","indexed":true,"internalType":"address"},{"name":"where","type":"address","indexed":true,"internalType":"address"}],"anonymous":false},{"type":"event","name":"OptOut","inputs":[{"name":"who","type":"address","indexed":true,"internalType":"address"},{"name":"where","type":"address","indexed":true,"internalType":"address"}],"anonymous":false},{"type":"error","name":"AlreadyOptedIn","inputs":[]},{"type":"error","name":"CheckpointUnorderedInsertion","inputs":[]},{"type":"error","name":"ExpiredSignature","inputs":[]},{"type":"error","name":"InvalidShortString","inputs":[]},{"type":"error","name":"InvalidSignature","inputs":[]},{"type":"error","name":"NotOptedIn","inputs":[]},{"type":"error","name":"NotWhereEntity","inputs":[]},{"type":"error","name":"NotWho","inputs":[]},{"type":"error","name":"OptOutCooldown","inputs":[]},{"type":"error","name":"SafeCastOverflowedUintDowncast","inputs":[{"name":"bits","type":"uint8","internalType":"uint8"},{"name":"value","type":"uint256","internalType":"uint256"}]},{"type":"error","name":"StringTooLong","inputs":[{"name":"str","type":"string","internalType":"string"}]}],"bytecode":{"object":"0x6101a080604052346101cc57611bac803803809161001d82856101e4565b83398101906060818303126101cc5761003581610207565b61004160208301610207565b604083015190926001600160401b0382116101cc57019280601f850112156101cc5783516001600160401b0381116101d0576040519461008b601f8301601f1916602001876101e4565b8186526020860192602083830101116101cc57815f926020809301855e860101526040938451916100bc86846101e4565b600183526020830191603160f81b83526100d58161021b565b610120526100e2846103bd565b61014052519020918260e05251902080610100524660a05284519060208201927f8b73c3c69bb8fe3d512ecc4cf759cc79239f7b179b0ffacaa9a75d522b39400f84528683015260608201524660808201523060a082015260a0815261014960c0826101e4565b5190206080523060c0526101605261018052516116aa90816105028239608051816111a3015260a05181611260015260c0518161116d015260e051816111f201526101005181611218015261012051816102e20152610140518161030b0152610160518181816106130152610bcb0152610180518181816102530152610c310152f35b5f80fd5b634e487b7160e01b5f52604160045260245ffd5b601f909101601f19168101906001600160401b038211908210176101d057604052565b51906001600160a01b03821682036101cc57565b908151602081105f14610295575090601f815111610255576020815191015160208210610246571790565b5f198260200360031b1b161790565b604460209160405192839163305a27a960e01b83528160048401528051918291826024860152018484015e5f828201840152601f01601f19168101030190fd5b6001600160401b0381116101d0575f54600181811c911680156103b3575b602082101461039f57601f8111610361575b50602092601f821160011461030257928192935f926102f7575b50508160011b915f199060031b1c1916175f5560ff90565b015190505f806102df565b601f198216935f8052805f20915f5b8681106103495750836001959610610331575b505050811b015f5560ff90565b01515f1960f88460031b161c191690555f8080610324565b91926020600181928685015181550194019201610311565b818111156102c5575f805260205f20601f80840160051c809201920160051c03905f5b8281106103925750506102c5565b5f82820155600101610384565b634e487b7160e01b5f52602260045260245ffd5b90607f16906102b3565b908151602081105f146103e8575090601f815111610255576020815191015160208210610246571790565b6001600160401b0381116101d057600154600181811c911680156104f7575b602082101461039f57601f81116104b8575b50602092601f821160011461045757928192935f9261044c575b50508160011b915f199060031b1c19161760015560ff90565b015190505f80610433565b601f1982169360015f52805f20915f5b8681106104a05750836001959610610488575b505050811b0160015560ff90565b01515f1960f88460031b161c191690555f808061047a565b91926020600181928685015181550194019201610467565b818111156104195760015f5260205f20601f80840160051c809201920160051c03905f5b8281106104ea575050610419565b5f828201556001016104dc565b90607f169061040756fe60806040526004361015610011575f80fd5b5f3560e01c8063220d32d4146100d4578063530e1d43146100cf5780636d0fae4a146100ca5780638247a97c146100c557806384b0196e146100c05780639333fbda146100bb57806393f79bc3146100b65780639f86fd85146100b1578063b1138ad1146100ac578063c4b5d62c146100a7578063ced44ba7146100a25763d46104831461009d575f80fd5b6106d7565b610642565b6105fe565b6105dc565b610520565b61041e565b6103c7565b6102ca565b610282565b61023e565b6101d8565b610109565b600435906001600160a01b03821682036100ef57565b5f80fd5b602435906001600160a01b03821682036100ef57565b346100ef5760403660031901126100ef5760206101356101276100d9565b61012f6100f3565b906106f9565b6040519015158152f35b9181601f840112156100ef5782359167ffffffffffffffff83116100ef57602083818601950101116100ef57565b9060806003198301126100ef576004356001600160a01b03811681036100ef57916024356001600160a01b03811681036100ef579160443565ffffffffffff811681036100ef57916064359067ffffffffffffffff82116100ef576101d49160040161013f565b9091565b346100ef576020600161022e61023461021f6101f33661016d565b969290949193888060a01b03165f526003895260405f209060018060a01b03165f5260205260405f2090565b92868060d01b039536916107e1565b9161086d565b1614604051908152f35b346100ef575f3660031901126100ef576040517f00000000000000000000000000000000000000000000000000000000000000006001600160a01b03168152602090f35b346100ef5760203660031901126100ef576102a461029e6100d9565b33610978565b005b805180835260209291819084018484015e5f828201840152601f01601f1916010190565b346100ef575f3660031901126100ef5761036e6103067f0000000000000000000000000000000000000000000000000000000000000000610dde565b61032f7f0000000000000000000000000000000000000000000000000000000000000000610ec1565b602060405161033e8282610792565b5f81528161037c81830194601f198301368737604051978897600f60f81b895260e0858a015260e08901906102a6565b9087820360408901526102a6565b914660608701523060808701525f60a087015285830360c087015251918281520192915f5b8281106103b057505050500390f35b8351855286955093810193928101926001016103a1565b346100ef5760403660031901126100ef5760206104156103e56100d9565b6103ed6100f3565b6001600160a01b039182165f9081526002855260408082209290931681526020919091522090565b54604051908152f35b346100ef5761042c3661016d565b909165ffffffffffff8061043f42610f79565b169116908110610511576104f4926104e56104ed927f7830334d17a05ab8aeca8f1778e27182208fc2d454ac7b38a4edc2069ee3a4a69060018060a01b03891690815f5260026020526104a58960405f209060018060a01b03165f5260205260405f2090565b546040519260208401948552604084015260018060a01b038a166060840152608083015260a082015260a081526104dd60c082610792565b519020610fa8565b9236916107e1565b90846109fb565b15610502576102a491610a7c565b638baa579f60e01b5f5260045ffd5b63df4cc36d60e01b5f5260045ffd5b346100ef5760403660031901126100ef576105396100d9565b60243567ffffffffffffffff81116100ef575f9161055c8392369060040161013f565b90816040519283928337810184815203915af43d156105d1576105c93d91610583836107c5565b926105916040519485610792565b83523d5f602085013e5b6105bb6040519384921515602084015260408084015260608301906102a6565b03601f198101835282610792565b805190602001fd5b6105c960609161059b565b346100ef5760203660031901126100ef576102a46105f86100d9565b33610ba0565b346100ef575f3660031901126100ef576040517f00000000000000000000000000000000000000000000000000000000000000006001600160a01b03168152602090f35b346100ef576106503661016d565b909165ffffffffffff8061066342610f79565b169116908110610511576106c9926104e56104ed927f6ab5200f1123a8d51d1695a9e5e757267926b53c6359f90b8873cc7dcc30ea2c9060018060a01b03891690815f5260026020526104a58960405f209060018060a01b03165f5260205260405f2090565b15610502576102a491610ba0565b346100ef5760203660031901126100ef576102a46106f36100d9565b33610a7c565b6001600160a01b039081165f908152600360209081526040808320939094168252919091522080548061073757505060015f5b818060d01b03161490565b805f19810111610758576001915f525f199060205f2001015460301c61072c565b610833565b634e487b7160e01b5f52604160045260245ffd5b6040810190811067ffffffffffffffff82111761078d57604052565b61075d565b90601f8019910116810190811067ffffffffffffffff82111761078d57604052565b604051906107c3604083610792565b565b67ffffffffffffffff811161078d57601f01601f191660200190565b9291926107ed826107c5565b916107fb6040519384610792565b8294818452818301116100ef578281602093845f960137010152565b908160209103126100ef575163ffffffff811681036100ef5790565b634e487b7160e01b5f52601160045260245ffd5b5f1981019190821161075857565b63ffffffff60019116019063ffffffff821161075857565b9180511561096e578060208061088893518301019101610817565b916108938382610d84565b926108a4845165ffffffffffff1690565b9065ffffffffffff8416918265ffffffffffff82161461095557829065ffffffffffff161091826108f5575b50506108e3576108e09250611016565b90565b5050602001516001600160d01b031690565b9091506109028354610847565b63ffffffff83161491821561091b575b50505f806108d0565b61094d91925061093661093061094292610855565b85610d84565b5165ffffffffffff1690565b65ffffffffffff1690565b115f80610912565b50505050602091909101516001600160d01b0316905090565b506108e091611016565b60018060a01b031690815f5260026020526109a68160405f209060018060a01b03165f5260205260405f2090565b805460010190556001600160a01b0316907f8ed32926585579e6191b145240df788165f4957e1135f30a00e08ee8feb9d6805f80a3565b600411156109e757565b634e487b7160e01b5f52602160045260245ffd5b9190823b610a365790610a0d91610fce565b50610a17816109dd565b159182610a2357505090565b6001600160a01b03918216911614919050565b916020926064835f94519060405193630b135d3f60e11b855260048501526040602485015286820190604485015e01915afa630b135d3f60e11b5f5114601f3d11161690565b9060018060a01b03821691825f526003602052610ab4610aaf8360405f209060018060a01b03165f5260205260405f2090565b611308565b9091506001600160d01b031615610b6e5765ffffffffffff80610ad642610f79565b16911614610b5f578181610b28610b1983610b04610b2f9660018060a01b03165f52600360205260405f2090565b9060018060a01b03165f5260205260405f2090565b610b2242610f79565b9061151a565b5050610978565b6001600160a01b0316907f1629cd9ad365627cf8408d19c50224af8f3213c1a18ae48062d92e22bddf7de55f80a3565b63291bf4b760e21b5f5260045ffd5b6334b09b3960e11b5f5260045ffd5b908160209103126100ef575180151581036100ef5790565b6040513d5f823e3d90fd5b6040516302910f8b60e31b81526001600160a01b0382166004820152909190602081806024810103817f00000000000000000000000000000000000000000000000000000000000000006001600160a01b03165afa908115610d39575f91610d4d575b5015610d3e576040516302910f8b60e31b81526001600160a01b0382166004820152602081806024810103817f00000000000000000000000000000000000000000000000000000000000000006001600160a01b03165afa908115610d39575f91610d0a575b5015610cfb57610c7981836106f9565b610cec57610cad610c9e82610b048560018060a01b03165f52600360205260405f2090565b610ca742610f79565b906115d8565b5050610cb98183610978565b6001600160a01b0390811691167f9b730d5b907ee509de729817a2bb37e404418ba569b3a50f36192372f973cb415f80a3565b63dcdeaba360e01b5f5260045ffd5b6321f5408d60e01b5f5260045ffd5b610d2c915060203d602011610d32575b610d248183610792565b810190610b7d565b5f610c69565b503d610d1a565b610b95565b630fb9ff9560e41b5f5260045ffd5b610d66915060203d602011610d3257610d248183610792565b5f610c03565b60405190610d7982610771565b5f6020838281520152565b90610da091610d91610d6c565b50610d9a610d6c565b50611103565b50602060405191610db083610771565b549165ffffffffffff83169283825260301c918291015260405191610dd483610771565b8252602082015290565b60ff8114610def576108e09061112c565b506040515f5f548060011c91600182168015610eb7575b602084108114610ea35783855284926020840191908115610e8a5750600114610e37575b506108e092500382610792565b5f80805291507f290decd9548b62a8d60345a988386fc84ba6bc95484008f6362f93160ef3e5635b848310610e7357506108e09350015f610e2a565b805482840152859350602090920191600101610e5f565b60ff19168252506108e093151560051b0190505f610e2a565b634e487b7160e01b5f52602260045260245ffd5b92607f1692610e06565b60ff8114610ed2576108e09061112c565b506040515f6001548060011c91600182168015610f6f575b602084108114610ea35783855284926020840191908115610e8a5750600114610f1a57506108e092500382610792565b60015f90815291507fb10e2d527612073b26eecdfd717e6a320cf44b4afac2b0732d9fcbe2b7fa0cf65b848310610f5857506108e09350015f610e2a565b805482840152859350602090920191600101610f44565b92607f1692610eea565b65ffffffffffff8111610f915765ffffffffffff1690565b6306dfcc6560e41b5f52603060045260245260445ffd5b604290610fb361116a565b906040519161190160f01b8352600283015260228201522090565b8151919060418303610ffe57610ff79250602082015190606060408401519301515f1a90611286565b9192909190565b50505f9160029190565b906001820180921161075857565b908154905f9180600582116110a9575b65ffffffffffff91509291165b828210611069575050806110475750505f90565b6108e09161105761106292610847565b905f5260205f200190565b5460301c90565b909180831860011c8184160190845f528265ffffffffffff8360205f20015416115f146110995750915b90611033565b92506110a490611008565b611093565b6110b282611361565b820391821161075857845f5265ffffffffffff8260205f2001541665ffffffffffff8416105f146110eb575065ffffffffffff90611026565b92506110fd65ffffffffffff91611008565b92611026565b8054821015611118575f5260205f2001905f90565b634e487b7160e01b5f52603260045260245ffd5b60ff811690601f821161115b5760405191611148604084610792565b6020808452838101919036833783525290565b632cd44ac360e21b5f5260045ffd5b307f00000000000000000000000000000000000000000000000000000000000000006001600160a01b0316148061125d575b156111c5577f000000000000000000000000000000000000000000000000000000000000000090565b60405160208101907f8b73c3c69bb8fe3d512ecc4cf759cc79239f7b179b0ffacaa9a75d522b39400f82527f000000000000000000000000000000000000000000000000000000000000000060408201527f000000000000000000000000000000000000000000000000000000000000000060608201524660808201523060a082015260a0815261125760c082610792565b51902090565b507f0000000000000000000000000000000000000000000000000000000000000000461461119c565b91907f7fffffffffffffffffffffffffffffff5d576e7357a4501ddfe92f46681b20a084116112fd579160209360809260ff5f9560405194855216868401526040830152606082015282805260015afa15610d39575f516001600160a01b038116156112f357905f905f90565b505f906001905f90565b5050505f9160039190565b8054908161131a5750505f905f905f90565b815f19810111610758575f525f199060205f2001015460019165ffffffffffff82169160301c90565b811561134d570490565b634e487b7160e01b5f52601260045260245ffd5b60018111156108e057806001600160801b821015611482575b61142861141e61141461140a6114006113f66113e561142f9760048a600160401b6114349c1015611475575b640100000000811015611468575b6201000081101561145b575b61010081101561144e575b6010811015611441575b1015611439575b60030260011c90565b6113ef818b611343565b0160011c90565b6113ef818a611343565b6113ef8189611343565b6113ef8188611343565b6113ef8187611343565b6113ef8186611343565b8093611343565b821190565b900390565b60011b6113dc565b60041c9160021b916113d5565b60081c9160041b916113cb565b60101c9160081b916113c0565b60201c9160101b916113b4565b60401c9160201b916113a6565b505061143461142f61142861141e61141461140a6114006113f66113e56114a98a60801c90565b9850600160401b975061137a9650505050505050565b8054600160401b81101561078d576114dc91600182018155611103565b61150757815160209092015160301b65ffffffffffff191665ffffffffffff92909216919091179055565b634e487b7160e01b5f525f60045260245ffd5b805490919080156115c25761153161153c91610847565b835f5260205f200190565b908154926115596115528565ffffffffffff1690565b9460301c90565b9365ffffffffffff80841691168181116115b3570361158a575050805465ffffffffffff169055905f90565b905f90565b61158592506115a861159a6107b4565b65ffffffffffff9093168352565b5f60208301526114bf565b632520601d60e01b5f5260045ffd5b506115d2916115a861159a6107b4565b5f905f90565b8054909190801561165d576115316115ef91610847565b908154926116056115528565ffffffffffff1690565b9365ffffffffffff80841691168181116115b3570361163c575050805465ffffffffffff1666010000000000001790555b90600190565b611658925061164c61159a6107b4565b600160208301526114bf565b611636565b5061166d9161164c61159a6107b4565b5f9060019056fea26469706673582212204ceaef5ed2734206d4af647d8a1dd2d9ef0a13e6d248161ee84ed553fdd45da064736f6c63430008230033","linkReferences":{}},"methodIdentifiers":{"WHERE_REGISTRY()":"6d0fae4a","WHO_REGISTRY()":"c4b5d62c","eip712Domain()":"84b0196e","increaseNonce(address)":"8247a97c","isOptedIn(address,address)":"220d32d4","isOptedInAt(address,address,uint48,bytes)":"530e1d43","nonces(address,address)":"9333fbda","optIn(address)":"b1138ad1","optIn(address,address,uint48,bytes)":"ced44ba7","optOut(address)":"d4610483","optOut(address,address,uint48,bytes)":"93f79bc3","staticDelegateCall(address,bytes)":"9f86fd85"},"id":145}