{"abi":[{"type":"constructor","inputs":[],"stateMutability":"nonpayable"},{"type":"function","name":"UPGRADE_INTERFACE_VERSION","inputs":[],"outputs":[{"name":"","type":"string","internalType":"string"}],"stateMutability":"view"},{"type":"function","name":"allowedVaultImplVersion","inputs":[],"outputs":[{"name":"","type":"uint64","internalType":"uint64"}],"stateMutability":"pure"},{"type":"function","name":"changeSlashExecutor","inputs":[{"name":"","type":"address","internalType":"address"}],"outputs":[],"stateMutability":"pure"},{"type":"function","name":"changeSlashRequester","inputs":[{"name":"","type":"address","internalType":"address"}],"outputs":[],"stateMutability":"pure"},{"type":"function","name":"collateral","inputs":[],"outputs":[{"name":"","type":"address","internalType":"address"}],"stateMutability":"pure"},{"type":"function","name":"disableOperator","inputs":[],"outputs":[],"stateMutability":"pure"},{"type":"function","name":"disableVault","inputs":[{"name":"","type":"address","internalType":"address"}],"outputs":[],"stateMutability":"pure"},{"type":"function","name":"distributeOperatorRewards","inputs":[{"name":"","type":"address","internalType":"address"},{"name":"","type":"uint256","internalType":"uint256"},{"name":"","type":"bytes32","internalType":"bytes32"}],"outputs":[{"name":"","type":"bytes32","internalType":"bytes32"}],"stateMutability":"pure"},{"type":"function","name":"distributeStakerRewards","inputs":[{"name":"","type":"tuple","internalType":"struct Gear.StakerRewardsCommitment","components":[{"name":"distribution","type":"tuple[]","internalType":"struct Gear.StakerRewards[]","components":[{"name":"vault","type":"address","internalType":"address"},{"name":"amount","type":"uint256","internalType":"uint256"}]},{"name":"totalAmount","type":"uint256","internalType":"uint256"},{"name":"token","type":"address","internalType":"address"}]},{"name":"","type":"uint48","internalType":"uint48"}],"outputs":[{"name":"","type":"bytes32","internalType":"bytes32"}],"stateMutability":"pure"},{"type":"function","name":"enableOperator","inputs":[],"outputs":[],"stateMutability":"pure"},{"type":"function","name":"enableVault","inputs":[{"name":"","type":"address","internalType":"address"}],"outputs":[],"stateMutability":"pure"},{"type":"function","name":"eraDuration","inputs":[],"outputs":[{"name":"","type":"uint48","internalType":"uint48"}],"stateMutability":"pure"},{"type":"function","name":"executeSlash","inputs":[{"name":"","type":"tuple[]","internalType":"struct IMiddleware.SlashIdentifier[]","components":[{"name":"vault","type":"address","internalType":"address"},{"name":"index","type":"uint256","internalType":"uint256"}]}],"outputs":[],"stateMutability":"pure"},{"type":"function","name":"getActiveOperatorsStakeAt","inputs":[{"name":"","type":"uint48","internalType":"uint48"}],"outputs":[{"name":"","type":"address[]","internalType":"address[]"},{"name":"","type":"uint256[]","internalType":"uint256[]"}],"stateMutability":"pure"},{"type":"function","name":"getOperatorStakeAt","inputs":[{"name":"","type":"address","internalType":"address"},{"name":"","type":"uint48","internalType":"uint48"}],"outputs":[{"name":"","type":"uint256","internalType":"uint256"}],"stateMutability":"pure"},{"type":"function","name":"initialize","inputs":[{"name":"_params","type":"tuple","internalType":"struct IMiddleware.InitParams","components":[{"name":"owner","type":"address","internalType":"address"},{"name":"eraDuration","type":"uint48","internalType":"uint48"},{"name":"minVaultEpochDuration","type":"uint48","internalType":"uint48"},{"name":"operatorGracePeriod","type":"uint48","internalType":"uint48"},{"name":"vaultGracePeriod","type":"uint48","internalType":"uint48"},{"name":"minVetoDuration","type":"uint48","internalType":"uint48"},{"name":"minSlashExecutionDelay","type":"uint48","internalType":"uint48"},{"name":"allowedVaultImplVersion","type":"uint64","internalType":"uint64"},{"name":"vetoSlasherImplType","type":"uint64","internalType":"uint64"},{"name":"maxResolverSetEpochsDelay","type":"uint256","internalType":"uint256"},{"name":"maxAdminFee","type":"uint256","internalType":"uint256"},{"name":"collateral","type":"address","internalType":"address"},{"name":"router","type":"address","internalType":"address"},{"name":"symbiotic","type":"tuple","internalType":"struct Gear.SymbioticContracts","components":[{"name":"vaultRegistry","type":"address","internalType":"address"},{"name":"operatorRegistry","type":"address","internalType":"address"},{"name":"networkRegistry","type":"address","internalType":"address"},{"name":"middlewareService","type":"address","internalType":"address"},{"name":"networkOptIn","type":"address","internalType":"address"},{"name":"stakerRewardsFactory","type":"address","internalType":"address"},{"name":"operatorRewards","type":"address","internalType":"address"},{"name":"roleSlashRequester","type":"address","internalType":"address"},{"name":"roleSlashExecutor","type":"address","internalType":"address"},{"name":"vetoResolver","type":"address","internalType":"address"}]}]}],"outputs":[],"stateMutability":"nonpayable"},{"type":"function","name":"makeElectionAt","inputs":[{"name":"","type":"uint48","internalType":"uint48"},{"name":"","type":"uint256","internalType":"uint256"}],"outputs":[{"name":"","type":"address[]","internalType":"address[]"}],"stateMutability":"view"},{"type":"function","name":"maxAdminFee","inputs":[],"outputs":[{"name":"","type":"uint256","internalType":"uint256"}],"stateMutability":"pure"},{"type":"function","name":"maxResolverSetEpochsDelay","inputs":[],"outputs":[{"name":"","type":"uint256","internalType":"uint256"}],"stateMutability":"pure"},{"type":"function","name":"minSlashExecutionDelay","inputs":[],"outputs":[{"name":"","type":"uint48","internalType":"uint48"}],"stateMutability":"pure"},{"type":"function","name":"minVaultEpochDuration","inputs":[],"outputs":[{"name":"","type":"uint48","internalType":"uint48"}],"stateMutability":"pure"},{"type":"function","name":"minVetoDuration","inputs":[],"outputs":[{"name":"","type":"uint48","internalType":"uint48"}],"stateMutability":"pure"},{"type":"function","name":"operatorGracePeriod","inputs":[],"outputs":[{"name":"","type":"uint48","internalType":"uint48"}],"stateMutability":"pure"},{"type":"function","name":"owner","inputs":[],"outputs":[{"name":"","type":"address","internalType":"address"}],"stateMutability":"view"},{"type":"function","name":"proxiableUUID","inputs":[],"outputs":[{"name":"","type":"bytes32","internalType":"bytes32"}],"stateMutability":"view"},{"type":"function","name":"registerOperator","inputs":[],"outputs":[],"stateMutability":"pure"},{"type":"function","name":"registerVault","inputs":[{"name":"","type":"address","internalType":"address"},{"name":"","type":"address","internalType":"address"}],"outputs":[],"stateMutability":"pure"},{"type":"function","name":"reinitialize","inputs":[],"outputs":[],"stateMutability":"nonpayable"},{"type":"function","name":"renounceOwnership","inputs":[],"outputs":[],"stateMutability":"nonpayable"},{"type":"function","name":"requestSlash","inputs":[{"name":"","type":"tuple[]","internalType":"struct IMiddleware.SlashData[]","components":[{"name":"operator","type":"address","internalType":"address"},{"name":"ts","type":"uint48","internalType":"uint48"},{"name":"vaults","type":"tuple[]","internalType":"struct IMiddleware.VaultSlashData[]","components":[{"name":"vault","type":"address","internalType":"address"},{"name":"amount","type":"uint256","internalType":"uint256"}]}]}],"outputs":[],"stateMutability":"pure"},{"type":"function","name":"router","inputs":[],"outputs":[{"name":"","type":"address","internalType":"address"}],"stateMutability":"view"},{"type":"function","name":"setValidators","inputs":[{"name":"validators","type":"address[]","internalType":"address[]"}],"outputs":[],"stateMutability":"nonpayable"},{"type":"function","name":"subnetwork","inputs":[],"outputs":[{"name":"","type":"bytes32","internalType":"bytes32"}],"stateMutability":"pure"},{"type":"function","name":"symbioticContracts","inputs":[],"outputs":[{"name":"","type":"tuple","internalType":"struct Gear.SymbioticContracts","components":[{"name":"vaultRegistry","type":"address","internalType":"address"},{"name":"operatorRegistry","type":"address","internalType":"address"},{"name":"networkRegistry","type":"address","internalType":"address"},{"name":"middlewareService","type":"address","internalType":"address"},{"name":"networkOptIn","type":"address","internalType":"address"},{"name":"stakerRewardsFactory","type":"address","internalType":"address"},{"name":"operatorRewards","type":"address","internalType":"address"},{"name":"roleSlashRequester","type":"address","internalType":"address"},{"name":"roleSlashExecutor","type":"address","internalType":"address"},{"name":"vetoResolver","type":"address","internalType":"address"}]}],"stateMutability":"pure"},{"type":"function","name":"transferOwnership","inputs":[{"name":"newOwner","type":"address","internalType":"address"}],"outputs":[],"stateMutability":"nonpayable"},{"type":"function","name":"unregisterOperator","inputs":[{"name":"","type":"address","internalType":"address"}],"outputs":[],"stateMutability":"pure"},{"type":"function","name":"unregisterVault","inputs":[{"name":"","type":"address","internalType":"address"}],"outputs":[],"stateMutability":"pure"},{"type":"function","name":"upgradeToAndCall","inputs":[{"name":"newImplementation","type":"address","internalType":"address"},{"name":"data","type":"bytes","internalType":"bytes"}],"outputs":[],"stateMutability":"payable"},{"type":"function","name":"vaultGracePeriod","inputs":[],"outputs":[{"name":"","type":"uint48","internalType":"uint48"}],"stateMutability":"pure"},{"type":"function","name":"vetoSlasherImplType","inputs":[],"outputs":[{"name":"","type":"uint64","internalType":"uint64"}],"stateMutability":"pure"},{"type":"event","name":"Initialized","inputs":[{"name":"version","type":"uint64","indexed":false,"internalType":"uint64"}],"anonymous":false},{"type":"event","name":"OwnershipTransferred","inputs":[{"name":"previousOwner","type":"address","indexed":true,"internalType":"address"},{"name":"newOwner","type":"address","indexed":true,"internalType":"address"}],"anonymous":false},{"type":"event","name":"Upgraded","inputs":[{"name":"implementation","type":"address","indexed":true,"internalType":"address"}],"anonymous":false},{"type":"error","name":"AddressEmptyCode","inputs":[{"name":"target","type":"address","internalType":"address"}]},{"type":"error","name":"BurnerHookNotSupported","inputs":[]},{"type":"error","name":"DelegatorNotInitialized","inputs":[]},{"type":"error","name":"ERC1967InvalidImplementation","inputs":[{"name":"implementation","type":"address","internalType":"address"}]},{"type":"error","name":"ERC1967NonPayable","inputs":[]},{"type":"error","name":"EraDurationMustBeGreaterThanZero","inputs":[]},{"type":"error","name":"FailedCall","inputs":[]},{"type":"error","name":"IncompatibleSlasherType","inputs":[]},{"type":"error","name":"IncompatibleStakerRewardsVersion","inputs":[]},{"type":"error","name":"IncompatibleVaultVersion","inputs":[]},{"type":"error","name":"IncorrectTimestamp","inputs":[]},{"type":"error","name":"InvalidInitialization","inputs":[]},{"type":"error","name":"InvalidStakerRewardsVault","inputs":[]},{"type":"error","name":"MaxValidatorsMustBeGreaterThanZero","inputs":[]},{"type":"error","name":"MinSlashExecutionDelayMustBeGreaterThanZero","inputs":[]},{"type":"error","name":"MinVaultEpochDurationLessThanTwoEras","inputs":[]},{"type":"error","name":"MinVetoAndSlashDelayTooLongForVaultEpoch","inputs":[]},{"type":"error","name":"MinVetoDurationMustBeGreaterThanZero","inputs":[]},{"type":"error","name":"NonFactoryStakerRewards","inputs":[]},{"type":"error","name":"NonFactoryVault","inputs":[]},{"type":"error","name":"NotInitializing","inputs":[]},{"type":"error","name":"NotRegisteredOperator","inputs":[]},{"type":"error","name":"NotRegisteredVault","inputs":[]},{"type":"error","name":"NotRouter","inputs":[]},{"type":"error","name":"NotSlashExecutor","inputs":[]},{"type":"error","name":"NotSlashRequester","inputs":[]},{"type":"error","name":"NotVaultOwner","inputs":[]},{"type":"error","name":"OperatorDoesNotExist","inputs":[]},{"type":"error","name":"OperatorDoesNotOptIn","inputs":[]},{"type":"error","name":"OperatorGracePeriodLessThanMinVaultEpochDuration","inputs":[]},{"type":"error","name":"OperatorGracePeriodNotPassed","inputs":[]},{"type":"error","name":"OwnableInvalidOwner","inputs":[{"name":"owner","type":"address","internalType":"address"}]},{"type":"error","name":"OwnableUnauthorizedAccount","inputs":[{"name":"account","type":"address","internalType":"address"}]},{"type":"error","name":"ReentrancyGuardReentrantCall","inputs":[]},{"type":"error","name":"ResolverMismatch","inputs":[]},{"type":"error","name":"ResolverSetDelayMustBeAtLeastThree","inputs":[]},{"type":"error","name":"ResolverSetDelayTooLong","inputs":[]},{"type":"error","name":"SlasherNotInitialized","inputs":[]},{"type":"error","name":"UUPSUnauthorizedCallContext","inputs":[]},{"type":"error","name":"UUPSUnsupportedProxiableUUID","inputs":[{"name":"slot","type":"bytes32","internalType":"bytes32"}]},{"type":"error","name":"UnknownCollateral","inputs":[]},{"type":"error","name":"UnsupportedBurner","inputs":[]},{"type":"error","name":"UnsupportedDelegatorHook","inputs":[]},{"type":"error","name":"VaultGracePeriodLessThanMinVaultEpochDuration","inputs":[]},{"type":"error","name":"VaultGracePeriodNotPassed","inputs":[]},{"type":"error","name":"VaultWrongEpochDuration","inputs":[]},{"type":"error","name":"VetoDurationTooLong","inputs":[]},{"type":"error","name":"VetoDurationTooShort","inputs":[]}],"bytecode":{"object":"0x60a080604052346100c257306080525f5160206112375f395f51905f525460ff8160401c166100b3576002600160401b03196001600160401b03821601610060575b60405161117090816100c78239608051818181610bd50152610caf0152f35b6001600160401b0319166001600160401b039081175f5160206112375f395f51905f525581527fc7f505b2f371ae2175ee4913f4499e1f2633a7b5936321eed1cdaeb6115181d290602090a15f80610041565b63f92ee8a960e01b5f5260045ffd5b5f80fdfe60806040526004361015610011575f80fd5b5f3560e01c806305c4fdf914610e805780630a71094c14610e2b5780632633b70f146106025780632acde09814610238578063373bba1f146102385780633ccce789146106025780633d15e74e146102385780634455a38f14610238578063461e7a8e146102385780634f1ef28614610c2957806352d1902d14610bc35780636c2eb350146109e85780636d1064eb146106025780636e5c793214610913578063709d06ae14610238578063715018a6146108ac578063729e2f361461089357806379a8b245146102385780637fbe95b51461077257806386c241a1146106025780638da5cb5b1461073e5780639300c92614610607578063936f433014610602578063945cf2dd1461023857806396115bc2146106025780639e03231114610238578063ab12275314610405578063ad3cb1cc146103a7578063af96299514610352578063b5e5ad1214610339578063bcf339341461027a578063c639e2d614610238578063c9b0b1e914610238578063ceebb69a14610265578063d55a5bdf14610238578063d8dfeb4514610265578063d99ddfc71461023d578063d99fcd6614610238578063f2fde38b1461020d5763f887ea40146101d1575f80fd5b34610209575f366003190112610209575f5160206111305f395f51905f5254600701546040516001600160a01b039091168152602090f35b5f80fd5b3461020957602036600319011261020957610236610229610ea2565b610231611005565b610f94565b005b610265565b3461020957604036600319011261020957610256610ea2565b5061025f610f31565b50610f5d565b34610209575f36600319011215610f5d575f80fd5b34610209575f3660031901126102095760405161014081018181106001600160401b03821117610325575f91610120916040528281528260208201528260408201528260608201528260808201528260a08201528260c08201528260e082015282610100820152015260405162461bcd60e51b8152806103216004820160609060208152600f60208201526e1b9bdd081a5b5c1b195b595b9d1959608a1b60408201520190565b0390fd5b634e487b7160e01b5f52604160045260245ffd5b346102095760203660031901126102095761025f610f1c565b34610209576020366003190112610209576004356001600160401b0381116102095736602382011215610209578060040135906001600160401b03821161020957602490369260061b01011115610f5d575f80fd5b34610209575f3660031901126102095760408051906103c68183610efb565b600582526020820191640352e302e360dc1b83528151928391602083525180918160208501528484015e5f828201840152601f01601f19168101030190f35b34610209576102e0366003190112610209575f5160206111505f395f51905f52546001600160401b0360ff8260401c16159116801590816105fa575b60011490816105f0575b1590816105e7575b506105d8578060016001600160401b03195f5160206111505f395f51905f525416175f5160206111505f395f51905f52556105a8575b6004356001600160a01b0381168103610209576104b0906104a8611038565b610231611038565b61050a6040516104c1604082610efb565b601f81527f6d6964646c65776172652e73746f726167652e4d6964646c657761726556310060208201526104f3611005565b80516020918201205f19015f9081522060ff191690565b5f5160206111305f395f51905f5281905561018435906001600160a01b03821682036102095760070180546001600160a01b0319166001600160a01b0390921691909117905561055657005b60ff60401b195f5160206111505f395f51905f5254165f5160206111505f395f51905f52557fc7f505b2f371ae2175ee4913f4499e1f2633a7b5936321eed1cdaeb6115181d2602060405160018152a1005b600160401b60ff60401b195f5160206111505f395f51905f525416175f5160206111505f395f51905f5255610489565b63f92ee8a960e01b5f5260045ffd5b90501582610453565b303b15915061044b565b829150610441565b610ee2565b34610209576020366003190112610209576004356001600160401b038111610209573660238201121561020957806004013561064281610f46565b916106506040519384610efb565b818352602083016024819360051b8301019136831161020957602401905b82821061072657505050610680611005565b7f8499392b3fbaf2916a419b541ace4def77aa70073e569284ec9a96534994f700549151906001600160401b03821161032557600160401b82116103255782548284558083106106fc575b50915f5260205f20915f5b8281106106df57005b81516001600160a01b0316818501556020909101906001016106d6565b835f52828060205f20019103905f5b8281106107195750506106cb565b5f8282015560010161070b565b6020809161073384610ece565b81520191019061066e565b34610209575f366003190112610209575f5160206110f05f395f51905f52546040516001600160a01b039091168152602090f35b34610209576040366003190112610209576004356001600160401b03811161020957606060031982360301126102095760405190606082018281106001600160401b038211176103255760405280600401356001600160401b038111610209578101366023820112156102095760048101356107ed81610f46565b916107fb6040519384610efb565b818352602060048185019360061b830101019036821161020957602401915b8183106108485785604061083d6044888885526024810135602086015201610ece565b91015261025f610f31565b604083360312610209576040519060408201908282106001600160401b0383111761032557604092602092845261087e86610ece565b8152828601358382015281520192019161081a565b346102095760603660031901126102095761025f610ea2565b34610209575f366003190112610209576108c4611005565b5f5160206110f05f395f51905f5280546001600160a01b031981169091555f906001600160a01b03167f8be0079c531659141344cd1fd0a4f28419497f9722a3daafe3b4186f6b6457e08280a3005b346102095760403660031901126102095761092c610f1c565b507f8499392b3fbaf2916a419b541ace4def77aa70073e569284ec9a96534994f70054604051806020835491828152019081935f5260205f20905f5b8181106109c9575050508161097e910382610efb565b604051918291602083019060208452518091526040830191905f5b8181106109a7575050500390f35b82516001600160a01b0316845285945060209384019390920191600101610999565b82546001600160a01b0316845260209093019260019283019201610968565b34610209575f36600319011261020957610a00611005565b5f5160206111505f395f51905f525460ff8160401c16908115610bae575b506105d8575f5160206111505f395f51905f52805468ffffffffffffffffff1916680100000000000000021790555f5160206110f05f395f51905f5254610a70906001600160a01b03166104a8611038565b7fc7f505b2f371ae2175ee4913f4499e1f2633a7b5936321eed1cdaeb6115181d260205f5160206111305f395f51905f52546040906007610ae78351610ab68582610efb565b601f81527f6d6964646c65776172652e73746f726167652e4d6964646c6577617265563200868201526104f3611005565b91825f5160206111305f395f51905f5255610b438451610b08606082610efb565b602281527f6d6964646c65776172652e73746f726167652e504f414d6964646c657761726587820152612b1960f11b868201526104f3611005565b7f8499392b3fbaf2916a419b541ace4def77aa70073e569284ec9a96534994f70055810154910180546001600160a01b0319166001600160a01b03929092169190911790555f5160206111505f395f51905f52805468ff0000000000000000191690555160028152a1005b600291506001600160401b0316101581610a1e565b34610209575f366003190112610209577f00000000000000000000000000000000000000000000000000000000000000006001600160a01b03163003610c1a5760206040515f5160206111105f395f51905f528152f35b63703e46dd60e11b5f5260045ffd5b604036600319011261020957610c3d610ea2565b602435906001600160401b03821161020957366023830112156102095781600401356001600160401b0381116103255760405192610c85601f8301601f191660200185610efb565b818452366024838301011161020957815f9260246020930183870137840101526001600160a01b037f000000000000000000000000000000000000000000000000000000000000000016308114908115610e09575b50610c1a57610ce7611005565b6040516352d1902d60e01b81526001600160a01b0382169290602081600481875afa5f9181610dd5575b50610d295783634c9c8ce360e01b5f5260045260245ffd5b805f5160206111105f395f51905f52859203610dc35750823b15610db1575f5160206111105f395f51905f5280546001600160a01b031916821790557fbc7cd75a20ee27fd9adebab32041f755214dbc6bffa90cc0225b39da2e5c2d3b5f80a2805115610d995761023691611063565b505034610da257005b63b398979f60e01b5f5260045ffd5b634c9c8ce360e01b5f5260045260245ffd5b632a87526960e21b5f5260045260245ffd5b9091506020813d602011610e01575b81610df160209383610efb565b8101031261020957519085610d11565b3d9150610de4565b5f5160206111105f395f51905f52546001600160a01b03161415905083610cda565b34610209576020366003190112610209576004356001600160401b0381116102095736602382011215610209578060040135906001600160401b03821161020957602490369260051b01011115610f5d575f80fd5b3461020957604036600319011261020957610e99610ea2565b5061025f610eb8565b600435906001600160a01b038216820361020957565b602435906001600160a01b038216820361020957565b35906001600160a01b038216820361020957565b346102095760203660031901126102095761025f610ea2565b90601f801991011681019081106001600160401b0382111761032557604052565b6004359065ffffffffffff8216820361020957565b6024359065ffffffffffff8216820361020957565b6001600160401b0381116103255760051b60200190565b60405162461bcd60e51b815260206004820152600f60248201526e1b9bdd081a5b5c1b195b595b9d1959608a1b6044820152606490fd5b6001600160a01b03168015610ff2575f5160206110f05f395f51905f5280546001600160a01b0319811683179091556001600160a01b03167f8be0079c531659141344cd1fd0a4f28419497f9722a3daafe3b4186f6b6457e05f80a3565b631e4fbdf760e01b5f525f60045260245ffd5b5f5160206110f05f395f51905f52546001600160a01b0316330361102557565b63118cdaa760e01b5f523360045260245ffd5b60ff5f5160206111505f395f51905f525460401c161561105457565b631afcd79f60e31b5f5260045ffd5b905f8091602081519101845af480806110dc575b156110975750506040513d81523d5f602083013e60203d82010160405290565b156110bc57639996b31560e01b5f9081526001600160a01b0391909116600452602490fd5b3d156110cd576040513d5f823e3d90fd5b63d6bda27560e01b5f5260045ffd5b503d1515806110775750813b151561107756fe9016d09d72d40fdae2fd8ceac6b6234c7706214fd39c1cd1e609a0528c199300360894a13ba1a3210667c828492db98dca3e2076cc3735a920a3ca505d382bbc0b8c56af6cc9ad401ad225bfe96df77f3049ba17eadac1cb95ee89df1e69d100f0c57e16840df040f15088dc2f81fe391c3923bec73e23a9662efc9c229c6a00f0c57e16840df040f15088dc2f81fe391c3923bec73e23a9662efc9c229c6a00","linkReferences":{}},"methodIdentifiers":{"UPGRADE_INTERFACE_VERSION()":"ad3cb1cc","allowedVaultImplVersion()":"c9b0b1e9","changeSlashExecutor(address)":"86c241a1","changeSlashRequester(address)":"6d1064eb","collateral()":"d8dfeb45","disableOperator()":"d99fcd66","disableVault(address)":"3ccce789","distributeOperatorRewards(address,uint256,bytes32)":"729e2f36","distributeStakerRewards(((address,uint256)[],uint256,address),uint48)":"7fbe95b5","enableOperator()":"3d15e74e","enableVault(address)":"936f4330","eraDuration()":"4455a38f","executeSlash((address,uint256)[])":"af962995","getActiveOperatorsStakeAt(uint48)":"b5e5ad12","getOperatorStakeAt(address,uint48)":"d99ddfc7","initialize((address,uint48,uint48,uint48,uint48,uint48,uint48,uint64,uint64,uint256,uint256,address,address,(address,address,address,address,address,address,address,address,address,address)))":"ab122753","makeElectionAt(uint48,uint256)":"6e5c7932","maxAdminFee()":"c639e2d6","maxResolverSetEpochsDelay()":"9e032311","minSlashExecutionDelay()":"373bba1f","minVaultEpochDuration()":"945cf2dd","minVetoDuration()":"461e7a8e","operatorGracePeriod()":"709d06ae","owner()":"8da5cb5b","proxiableUUID()":"52d1902d","registerOperator()":"2acde098","registerVault(address,address)":"05c4fdf9","reinitialize()":"6c2eb350","renounceOwnership()":"715018a6","requestSlash((address,uint48,(address,uint256)[])[])":"0a71094c","router()":"f887ea40","setValidators(address[])":"9300c926","subnetwork()":"ceebb69a","symbioticContracts()":"bcf33934","transferOwnership(address)":"f2fde38b","unregisterOperator(address)":"96115bc2","unregisterVault(address)":"2633b70f","upgradeToAndCall(address,bytes)":"4f1ef286","vaultGracePeriod()":"79a8b245","vetoSlasherImplType()":"d55a5bdf"},"storageLayout":{"storage":[],"types":{}},"id":163}