{"abi":[{"type":"constructor","inputs":[],"stateMutability":"nonpayable"},{"type":"function","name":"allowedVaultImplVersion","inputs":[],"outputs":[{"name":"","type":"uint64","internalType":"uint64"}],"stateMutability":"pure"},{"type":"function","name":"changeSlashExecutor","inputs":[{"name":"","type":"address","internalType":"address"}],"outputs":[],"stateMutability":"pure"},{"type":"function","name":"changeSlashRequester","inputs":[{"name":"","type":"address","internalType":"address"}],"outputs":[],"stateMutability":"pure"},{"type":"function","name":"collateral","inputs":[],"outputs":[{"name":"","type":"address","internalType":"address"}],"stateMutability":"pure"},{"type":"function","name":"disableOperator","inputs":[],"outputs":[],"stateMutability":"pure"},{"type":"function","name":"disableVault","inputs":[{"name":"","type":"address","internalType":"address"}],"outputs":[],"stateMutability":"pure"},{"type":"function","name":"distributeOperatorRewards","inputs":[{"name":"","type":"address","internalType":"address"},{"name":"","type":"uint256","internalType":"uint256"},{"name":"","type":"bytes32","internalType":"bytes32"}],"outputs":[{"name":"","type":"bytes32","internalType":"bytes32"}],"stateMutability":"pure"},{"type":"function","name":"distributeStakerRewards","inputs":[{"name":"","type":"tuple","internalType":"struct Gear.StakerRewardsCommitment","components":[{"name":"distribution","type":"tuple[]","internalType":"struct Gear.StakerRewards[]","components":[{"name":"vault","type":"address","internalType":"address"},{"name":"amount","type":"uint256","internalType":"uint256"}]},{"name":"totalAmount","type":"uint256","internalType":"uint256"},{"name":"token","type":"address","internalType":"address"}]},{"name":"","type":"uint48","internalType":"uint48"}],"outputs":[{"name":"","type":"bytes32","internalType":"bytes32"}],"stateMutability":"pure"},{"type":"function","name":"enableOperator","inputs":[],"outputs":[],"stateMutability":"pure"},{"type":"function","name":"enableVault","inputs":[{"name":"","type":"address","internalType":"address"}],"outputs":[],"stateMutability":"pure"},{"type":"function","name":"eraDuration","inputs":[],"outputs":[{"name":"","type":"uint48","internalType":"uint48"}],"stateMutability":"pure"},{"type":"function","name":"executeSlash","inputs":[{"name":"","type":"tuple[]","internalType":"struct IMiddleware.SlashIdentifier[]","components":[{"name":"vault","type":"address","internalType":"address"},{"name":"index","type":"uint256","internalType":"uint256"}]}],"outputs":[],"stateMutability":"pure"},{"type":"function","name":"getActiveOperatorsStakeAt","inputs":[{"name":"","type":"uint48","internalType":"uint48"}],"outputs":[{"name":"","type":"address[]","internalType":"address[]"},{"name":"","type":"uint256[]","internalType":"uint256[]"}],"stateMutability":"pure"},{"type":"function","name":"getOperatorStakeAt","inputs":[{"name":"","type":"address","internalType":"address"},{"name":"","type":"uint48","internalType":"uint48"}],"outputs":[{"name":"","type":"uint256","internalType":"uint256"}],"stateMutability":"pure"},{"type":"function","name":"initialize","inputs":[{"name":"_params","type":"tuple","internalType":"struct IMiddleware.InitParams","components":[{"name":"owner","type":"address","internalType":"address"},{"name":"eraDuration","type":"uint48","internalType":"uint48"},{"name":"minVaultEpochDuration","type":"uint48","internalType":"uint48"},{"name":"operatorGracePeriod","type":"uint48","internalType":"uint48"},{"name":"vaultGracePeriod","type":"uint48","internalType":"uint48"},{"name":"minVetoDuration","type":"uint48","internalType":"uint48"},{"name":"minSlashExecutionDelay","type":"uint48","internalType":"uint48"},{"name":"allowedVaultImplVersion","type":"uint64","internalType":"uint64"},{"name":"vetoSlasherImplType","type":"uint64","internalType":"uint64"},{"name":"maxResolverSetEpochsDelay","type":"uint256","internalType":"uint256"},{"name":"maxAdminFee","type":"uint256","internalType":"uint256"},{"name":"collateral","type":"address","internalType":"address"},{"name":"router","type":"address","internalType":"address"},{"name":"symbiotic","type":"tuple","internalType":"struct Gear.SymbioticContracts","components":[{"name":"vaultRegistry","type":"address","internalType":"address"},{"name":"operatorRegistry","type":"address","internalType":"address"},{"name":"networkRegistry","type":"address","internalType":"address"},{"name":"middlewareService","type":"address","internalType":"address"},{"name":"networkOptIn","type":"address","internalType":"address"},{"name":"stakerRewardsFactory","type":"address","internalType":"address"},{"name":"operatorRewards","type":"address","internalType":"address"},{"name":"roleSlashRequester","type":"address","internalType":"address"},{"name":"roleSlashExecutor","type":"address","internalType":"address"},{"name":"vetoResolver","type":"address","internalType":"address"}]}]}],"outputs":[],"stateMutability":"nonpayable"},{"type":"function","name":"makeElectionAt","inputs":[{"name":"","type":"uint48","internalType":"uint48"},{"name":"","type":"uint256","internalType":"uint256"}],"outputs":[{"name":"","type":"address[]","internalType":"address[]"}],"stateMutability":"view"},{"type":"function","name":"maxAdminFee","inputs":[],"outputs":[{"name":"","type":"uint256","internalType":"uint256"}],"stateMutability":"pure"},{"type":"function","name":"maxResolverSetEpochsDelay","inputs":[],"outputs":[{"name":"","type":"uint256","internalType":"uint256"}],"stateMutability":"pure"},{"type":"function","name":"minSlashExecutionDelay","inputs":[],"outputs":[{"name":"","type":"uint48","internalType":"uint48"}],"stateMutability":"pure"},{"type":"function","name":"minVaultEpochDuration","inputs":[],"outputs":[{"name":"","type":"uint48","internalType":"uint48"}],"stateMutability":"pure"},{"type":"function","name":"minVetoDuration","inputs":[],"outputs":[{"name":"","type":"uint48","internalType":"uint48"}],"stateMutability":"pure"},{"type":"function","name":"operatorGracePeriod","inputs":[],"outputs":[{"name":"","type":"uint48","internalType":"uint48"}],"stateMutability":"pure"},{"type":"function","name":"owner","inputs":[],"outputs":[{"name":"","type":"address","internalType":"address"}],"stateMutability":"view"},{"type":"function","name":"registerOperator","inputs":[],"outputs":[],"stateMutability":"pure"},{"type":"function","name":"registerVault","inputs":[{"name":"","type":"address","internalType":"address"},{"name":"","type":"address","internalType":"address"}],"outputs":[],"stateMutability":"pure"},{"type":"function","name":"reinitialize","inputs":[],"outputs":[],"stateMutability":"nonpayable"},{"type":"function","name":"renounceOwnership","inputs":[],"outputs":[],"stateMutability":"nonpayable"},{"type":"function","name":"requestSlash","inputs":[{"name":"","type":"tuple[]","internalType":"struct IMiddleware.SlashData[]","components":[{"name":"operator","type":"address","internalType":"address"},{"name":"ts","type":"uint48","internalType":"uint48"},{"name":"vaults","type":"tuple[]","internalType":"struct IMiddleware.VaultSlashData[]","components":[{"name":"vault","type":"address","internalType":"address"},{"name":"amount","type":"uint256","internalType":"uint256"}]}]}],"outputs":[],"stateMutability":"pure"},{"type":"function","name":"router","inputs":[],"outputs":[{"name":"","type":"address","internalType":"address"}],"stateMutability":"view"},{"type":"function","name":"setValidators","inputs":[{"name":"validators","type":"address[]","internalType":"address[]"}],"outputs":[],"stateMutability":"nonpayable"},{"type":"function","name":"subnetwork","inputs":[],"outputs":[{"name":"","type":"bytes32","internalType":"bytes32"}],"stateMutability":"pure"},{"type":"function","name":"symbioticContracts","inputs":[],"outputs":[{"name":"","type":"tuple","internalType":"struct Gear.SymbioticContracts","components":[{"name":"vaultRegistry","type":"address","internalType":"address"},{"name":"operatorRegistry","type":"address","internalType":"address"},{"name":"networkRegistry","type":"address","internalType":"address"},{"name":"middlewareService","type":"address","internalType":"address"},{"name":"networkOptIn","type":"address","internalType":"address"},{"name":"stakerRewardsFactory","type":"address","internalType":"address"},{"name":"operatorRewards","type":"address","internalType":"address"},{"name":"roleSlashRequester","type":"address","internalType":"address"},{"name":"roleSlashExecutor","type":"address","internalType":"address"},{"name":"vetoResolver","type":"address","internalType":"address"}]}],"stateMutability":"pure"},{"type":"function","name":"transferOwnership","inputs":[{"name":"newOwner","type":"address","internalType":"address"}],"outputs":[],"stateMutability":"nonpayable"},{"type":"function","name":"unregisterOperator","inputs":[{"name":"","type":"address","internalType":"address"}],"outputs":[],"stateMutability":"pure"},{"type":"function","name":"unregisterVault","inputs":[{"name":"","type":"address","internalType":"address"}],"outputs":[],"stateMutability":"pure"},{"type":"function","name":"vaultGracePeriod","inputs":[],"outputs":[{"name":"","type":"uint48","internalType":"uint48"}],"stateMutability":"pure"},{"type":"function","name":"vetoSlasherImplType","inputs":[],"outputs":[{"name":"","type":"uint64","internalType":"uint64"}],"stateMutability":"pure"},{"type":"event","name":"Initialized","inputs":[{"name":"version","type":"uint64","indexed":false,"internalType":"uint64"}],"anonymous":false},{"type":"event","name":"OwnershipTransferred","inputs":[{"name":"previousOwner","type":"address","indexed":true,"internalType":"address"},{"name":"newOwner","type":"address","indexed":true,"internalType":"address"}],"anonymous":false},{"type":"error","name":"BurnerHookNotSupported","inputs":[]},{"type":"error","name":"DelegatorNotInitialized","inputs":[]},{"type":"error","name":"EraDurationMustBeGreaterThanZero","inputs":[]},{"type":"error","name":"IncompatibleSlasherType","inputs":[]},{"type":"error","name":"IncompatibleStakerRewardsVersion","inputs":[]},{"type":"error","name":"IncompatibleVaultVersion","inputs":[]},{"type":"error","name":"IncorrectTimestamp","inputs":[]},{"type":"error","name":"InvalidInitialization","inputs":[]},{"type":"error","name":"InvalidStakerRewardsVault","inputs":[]},{"type":"error","name":"MaxValidatorsMustBeGreaterThanZero","inputs":[]},{"type":"error","name":"MinSlashExecutionDelayMustBeGreaterThanZero","inputs":[]},{"type":"error","name":"MinVaultEpochDurationLessThanTwoEras","inputs":[]},{"type":"error","name":"MinVetoAndSlashDelayTooLongForVaultEpoch","inputs":[]},{"type":"error","name":"MinVetoDurationMustBeGreaterThanZero","inputs":[]},{"type":"error","name":"NonFactoryStakerRewards","inputs":[]},{"type":"error","name":"NonFactoryVault","inputs":[]},{"type":"error","name":"NotInitializing","inputs":[]},{"type":"error","name":"NotRegisteredOperator","inputs":[]},{"type":"error","name":"NotRegisteredVault","inputs":[]},{"type":"error","name":"NotRouter","inputs":[]},{"type":"error","name":"NotSlashExecutor","inputs":[]},{"type":"error","name":"NotSlashRequester","inputs":[]},{"type":"error","name":"NotVaultOwner","inputs":[]},{"type":"error","name":"OperatorDoesNotExist","inputs":[]},{"type":"error","name":"OperatorDoesNotOptIn","inputs":[]},{"type":"error","name":"OperatorGracePeriodLessThanMinVaultEpochDuration","inputs":[]},{"type":"error","name":"OperatorGracePeriodNotPassed","inputs":[]},{"type":"error","name":"OwnableInvalidOwner","inputs":[{"name":"owner","type":"address","internalType":"address"}]},{"type":"error","name":"OwnableUnauthorizedAccount","inputs":[{"name":"account","type":"address","internalType":"address"}]},{"type":"error","name":"ReentrancyGuardReentrantCall","inputs":[]},{"type":"error","name":"ResolverMismatch","inputs":[]},{"type":"error","name":"ResolverSetDelayMustBeAtLeastThree","inputs":[]},{"type":"error","name":"ResolverSetDelayTooLong","inputs":[]},{"type":"error","name":"SlasherNotInitialized","inputs":[]},{"type":"error","name":"UnknownCollateral","inputs":[]},{"type":"error","name":"UnsupportedBurner","inputs":[]},{"type":"error","name":"UnsupportedDelegatorHook","inputs":[]},{"type":"error","name":"VaultGracePeriodLessThanMinVaultEpochDuration","inputs":[]},{"type":"error","name":"VaultGracePeriodNotPassed","inputs":[]},{"type":"error","name":"VaultWrongEpochDuration","inputs":[]},{"type":"error","name":"VetoDurationTooLong","inputs":[]},{"type":"error","name":"VetoDurationTooShort","inputs":[]}],"bytecode":{"object":"0x6080806040523460aa575f516020610e9b5f395f51905f525460ff8160401c16609b576002600160401b03196001600160401b038216016049575b604051610dec90816100af8239f35b6001600160401b0319166001600160401b039081175f516020610e9b5f395f51905f525581527fc7f505b2f371ae2175ee4913f4499e1f2633a7b5936321eed1cdaeb6115181d290602090a15f80603a565b63f92ee8a960e01b5f5260045ffd5b5f80fdfe60806040526004361015610011575f80fd5b5f3560e01c806305c4fdf914610ba85780630a71094c14610b535780632633b70f1461058b5780632acde09814610217578063373bba1f146102175780633ccce7891461058b5780633d15e74e146102175780634455a38f14610217578063461e7a8e146102175780636c2eb350146109715780636d1064eb1461058b5780636e5c79321461089c578063709d06ae14610217578063715018a614610835578063729e2f361461081c57806379a8b245146102175780637fbe95b5146106fb57806386c241a11461058b5780638da5cb5b146106c75780639300c92614610590578063936f43301461058b578063945cf2dd1461021757806396115bc21461058b5780639e03231114610217578063ab12275314610386578063af96299514610331578063b5e5ad1214610318578063bcf3393414610259578063c639e2d614610217578063c9b0b1e914610217578063ceebb69a14610244578063d55a5bdf14610217578063d8dfeb4514610244578063d99ddfc71461021c578063d99fcd6614610217578063f2fde38b146101ec5763f887ea40146101b0575f80fd5b346101e8575f3660031901126101e8575f516020610dac5f395f51905f5254600701546040516001600160a01b039091168152602090f35b5f80fd5b346101e85760203660031901126101e857610215610208610bca565b610210610d2d565b610cbc565b005b610244565b346101e85760403660031901126101e857610235610bca565b5061023e610c38565b50610c85565b346101e8575f36600319011215610c85575f80fd5b346101e8575f3660031901126101e85760405161014081018181106001600160401b03821117610304575f91610120916040528281528260208201528260408201528260608201528260808201528260a08201528260c08201528260e082015282610100820152015260405162461bcd60e51b8152806103006004820160609060208152600f60208201526e1b9bdd081a5b5c1b195b595b9d1959608a1b60408201520190565b0390fd5b634e487b7160e01b5f52604160045260245ffd5b346101e85760203660031901126101e85761023e610c23565b346101e85760203660031901126101e8576004356001600160401b0381116101e857366023820112156101e8578060040135906001600160401b0382116101e857602490369260061b01011115610c85575f80fd5b346101e8576102e03660031901126101e8575f516020610dcc5f395f51905f52546001600160401b0360ff8260401c1615911680159081610583575b6001149081610579575b159081610570575b50610561578060016001600160401b03195f516020610dcc5f395f51905f525416175f516020610dcc5f395f51905f5255610531575b6004356001600160a01b03811681036101e85761043190610429610d60565b610210610d60565b610439610d60565b61049360405161044a604082610c4d565b601f81527f6d6964646c65776172652e73746f726167652e4d6964646c6577617265563100602082015261047c610d2d565b80516020918201205f19015f9081522060ff191690565b5f516020610dac5f395f51905f5281905561018435906001600160a01b03821682036101e85760070180546001600160a01b0319166001600160a01b039092169190911790556104df57005b60ff60401b195f516020610dcc5f395f51905f5254165f516020610dcc5f395f51905f52557fc7f505b2f371ae2175ee4913f4499e1f2633a7b5936321eed1cdaeb6115181d2602060405160018152a1005b600160401b60ff60401b195f516020610dcc5f395f51905f525416175f516020610dcc5f395f51905f525561040a565b63f92ee8a960e01b5f5260045ffd5b905015826103d4565b303b1591506103cc565b8291506103c2565b610c0a565b346101e85760203660031901126101e8576004356001600160401b0381116101e857366023820112156101e85780600401356105cb81610c6e565b916105d96040519384610c4d565b818352602083016024819360051b830101913683116101e857602401905b8282106106af57505050610609610d2d565b7f8499392b3fbaf2916a419b541ace4def77aa70073e569284ec9a96534994f700549151906001600160401b03821161030457600160401b8211610304578254828455808310610685575b50915f5260205f20915f5b82811061066857005b81516001600160a01b03168185015560209091019060010161065f565b835f52828060205f20019103905f5b8281106106a2575050610654565b5f82820155600101610694565b602080916106bc84610bf6565b8152019101906105f7565b346101e8575f3660031901126101e8575f516020610d8c5f395f51905f52546040516001600160a01b039091168152602090f35b346101e85760403660031901126101e8576004356001600160401b0381116101e857606060031982360301126101e85760405190606082018281106001600160401b038211176103045760405280600401356001600160401b0381116101e8578101366023820112156101e857600481013561077681610c6e565b916107846040519384610c4d565b818352602060048185019360061b83010101903682116101e857602401915b8183106107d1578560406107c66044888885526024810135602086015201610bf6565b91015261023e610c38565b6040833603126101e8576040519060408201908282106001600160401b0383111761030457604092602092845261080786610bf6565b815282860135838201528152019201916107a3565b346101e85760603660031901126101e85761023e610bca565b346101e8575f3660031901126101e85761084d610d2d565b5f516020610d8c5f395f51905f5280546001600160a01b031981169091555f906001600160a01b03167f8be0079c531659141344cd1fd0a4f28419497f9722a3daafe3b4186f6b6457e08280a3005b346101e85760403660031901126101e8576108b5610c23565b507f8499392b3fbaf2916a419b541ace4def77aa70073e569284ec9a96534994f70054604051806020835491828152019081935f5260205f20905f5b8181106109525750505081610907910382610c4d565b604051918291602083019060208452518091526040830191905f5b818110610930575050500390f35b82516001600160a01b0316845285945060209384019390920191600101610922565b82546001600160a01b03168452602090930192600192830192016108f1565b346101e8575f3660031901126101e857610989610d2d565b5f516020610dcc5f395f51905f525460ff8160401c16908115610b3e575b50610561575f516020610dcc5f395f51905f52805468ffffffffffffffffff1916680100000000000000021790555f516020610d8c5f395f51905f52546109f9906001600160a01b0316610429610d60565b5f516020610dac5f395f51905f52546007610a4d604051610a1b604082610c4d565b601f81527f6d6964646c65776172652e73746f726167652e4d6964646c6577617265563200602082015261047c610d2d565b91825f516020610dac5f395f51905f5255610aac604051610a6f606082610c4d565b602281527f6d6964646c65776172652e73746f726167652e504f414d6964646c65776172656020820152612b1960f11b604082015261047c610d2d565b7f8499392b3fbaf2916a419b541ace4def77aa70073e569284ec9a96534994f70055810154910180546001600160a01b0319166001600160a01b03929092169190911790555f516020610dcc5f395f51905f52805468ff000000000000000019169055604051600281527fc7f505b2f371ae2175ee4913f4499e1f2633a7b5936321eed1cdaeb6115181d290602090a1005b600291506001600160401b03161015816109a7565b346101e85760203660031901126101e8576004356001600160401b0381116101e857366023820112156101e8578060040135906001600160401b0382116101e857602490369260051b01011115610c85575f80fd5b346101e85760403660031901126101e857610bc1610bca565b5061023e610be0565b600435906001600160a01b03821682036101e857565b602435906001600160a01b03821682036101e857565b35906001600160a01b03821682036101e857565b346101e85760203660031901126101e85761023e610bca565b6004359065ffffffffffff821682036101e857565b6024359065ffffffffffff821682036101e857565b90601f801991011681019081106001600160401b0382111761030457604052565b6001600160401b0381116103045760051b60200190565b60405162461bcd60e51b815260206004820152600f60248201526e1b9bdd081a5b5c1b195b595b9d1959608a1b6044820152606490fd5b6001600160a01b03168015610d1a575f516020610d8c5f395f51905f5280546001600160a01b0319811683179091556001600160a01b03167f8be0079c531659141344cd1fd0a4f28419497f9722a3daafe3b4186f6b6457e05f80a3565b631e4fbdf760e01b5f525f60045260245ffd5b5f516020610d8c5f395f51905f52546001600160a01b03163303610d4d57565b63118cdaa760e01b5f523360045260245ffd5b60ff5f516020610dcc5f395f51905f525460401c1615610d7c57565b631afcd79f60e31b5f5260045ffdfe9016d09d72d40fdae2fd8ceac6b6234c7706214fd39c1cd1e609a0528c1993000b8c56af6cc9ad401ad225bfe96df77f3049ba17eadac1cb95ee89df1e69d100f0c57e16840df040f15088dc2f81fe391c3923bec73e23a9662efc9c229c6a00f0c57e16840df040f15088dc2f81fe391c3923bec73e23a9662efc9c229c6a00","linkReferences":{}},"methodIdentifiers":{"allowedVaultImplVersion()":"c9b0b1e9","changeSlashExecutor(address)":"86c241a1","changeSlashRequester(address)":"6d1064eb","collateral()":"d8dfeb45","disableOperator()":"d99fcd66","disableVault(address)":"3ccce789","distributeOperatorRewards(address,uint256,bytes32)":"729e2f36","distributeStakerRewards(((address,uint256)[],uint256,address),uint48)":"7fbe95b5","enableOperator()":"3d15e74e","enableVault(address)":"936f4330","eraDuration()":"4455a38f","executeSlash((address,uint256)[])":"af962995","getActiveOperatorsStakeAt(uint48)":"b5e5ad12","getOperatorStakeAt(address,uint48)":"d99ddfc7","initialize((address,uint48,uint48,uint48,uint48,uint48,uint48,uint64,uint64,uint256,uint256,address,address,(address,address,address,address,address,address,address,address,address,address)))":"ab122753","makeElectionAt(uint48,uint256)":"6e5c7932","maxAdminFee()":"c639e2d6","maxResolverSetEpochsDelay()":"9e032311","minSlashExecutionDelay()":"373bba1f","minVaultEpochDuration()":"945cf2dd","minVetoDuration()":"461e7a8e","operatorGracePeriod()":"709d06ae","owner()":"8da5cb5b","registerOperator()":"2acde098","registerVault(address,address)":"05c4fdf9","reinitialize()":"6c2eb350","renounceOwnership()":"715018a6","requestSlash((address,uint48,(address,uint256)[])[])":"0a71094c","router()":"f887ea40","setValidators(address[])":"9300c926","subnetwork()":"ceebb69a","symbioticContracts()":"bcf33934","transferOwnership(address)":"f2fde38b","unregisterOperator(address)":"96115bc2","unregisterVault(address)":"2633b70f","vaultGracePeriod()":"79a8b245","vetoSlasherImplType()":"d55a5bdf"},"storageLayout":{"storage":[],"types":{}},"id":158}