{"abi":[{"type":"constructor","inputs":[],"stateMutability":"nonpayable"},{"type":"receive","stateMutability":"payable"},{"type":"function","name":"areValidators","inputs":[{"name":"_validators","type":"address[]","internalType":"address[]"}],"outputs":[{"name":"","type":"bool","internalType":"bool"}],"stateMutability":"view"},{"type":"function","name":"codeState","inputs":[{"name":"_codeId","type":"bytes32","internalType":"bytes32"}],"outputs":[{"name":"","type":"uint8","internalType":"enum Gear.CodeState"}],"stateMutability":"view"},{"type":"function","name":"codesStates","inputs":[{"name":"_codesIds","type":"bytes32[]","internalType":"bytes32[]"}],"outputs":[{"name":"","type":"uint8[]","internalType":"enum Gear.CodeState[]"}],"stateMutability":"view"},{"type":"function","name":"commitBatch","inputs":[{"name":"_batch","type":"tuple","internalType":"struct Gear.BatchCommitment","components":[{"name":"blockHash","type":"bytes32","internalType":"bytes32"},{"name":"blockTimestamp","type":"uint48","internalType":"uint48"},{"name":"previousCommittedBatchHash","type":"bytes32","internalType":"bytes32"},{"name":"expiry","type":"uint8","internalType":"uint8"},{"name":"chainCommitment","type":"tuple[]","internalType":"struct Gear.ChainCommitment[]","components":[{"name":"transitions","type":"tuple[]","internalType":"struct Gear.StateTransition[]","components":[{"name":"actorId","type":"address","internalType":"address"},{"name":"newStateHash","type":"bytes32","internalType":"bytes32"},{"name":"exited","type":"bool","internalType":"bool"},{"name":"inheritor","type":"address","internalType":"address"},{"name":"valueToReceive","type":"uint128","internalType":"uint128"},{"name":"valueToReceiveNegativeSign","type":"bool","internalType":"bool"},{"name":"valueClaims","type":"tuple[]","internalType":"struct Gear.ValueClaim[]","components":[{"name":"messageId","type":"bytes32","internalType":"bytes32"},{"name":"destination","type":"address","internalType":"address"},{"name":"value","type":"uint128","internalType":"uint128"}]},{"name":"messages","type":"tuple[]","internalType":"struct Gear.Message[]","components":[{"name":"id","type":"bytes32","internalType":"bytes32"},{"name":"destination","type":"address","internalType":"address"},{"name":"payload","type":"bytes","internalType":"bytes"},{"name":"value","type":"uint128","internalType":"uint128"},{"name":"replyDetails","type":"tuple","internalType":"struct Gear.ReplyDetails","components":[{"name":"to","type":"bytes32","internalType":"bytes32"},{"name":"code","type":"bytes4","internalType":"bytes4"}]},{"name":"call","type":"bool","internalType":"bool"}]}]},{"name":"head","type":"bytes32","internalType":"bytes32"}]},{"name":"codeCommitments","type":"tuple[]","internalType":"struct Gear.CodeCommitment[]","components":[{"name":"id","type":"bytes32","internalType":"bytes32"},{"name":"valid","type":"bool","internalType":"bool"}]},{"name":"rewardsCommitment","type":"tuple[]","internalType":"struct Gear.RewardsCommitment[]","components":[{"name":"operators","type":"tuple","internalType":"struct Gear.OperatorRewardsCommitment","components":[{"name":"amount","type":"uint256","internalType":"uint256"},{"name":"root","type":"bytes32","internalType":"bytes32"}]},{"name":"stakers","type":"tuple","internalType":"struct Gear.StakerRewardsCommitment","components":[{"name":"distribution","type":"tuple[]","internalType":"struct Gear.StakerRewards[]","components":[{"name":"vault","type":"address","internalType":"address"},{"name":"amount","type":"uint256","internalType":"uint256"}]},{"name":"totalAmount","type":"uint256","internalType":"uint256"},{"name":"token","type":"address","internalType":"address"}]},{"name":"timestamp","type":"uint48","internalType":"uint48"}]},{"name":"validatorsCommitment","type":"tuple[]","internalType":"struct Gear.ValidatorsCommitment[]","components":[{"name":"aggregatedPublicKey","type":"tuple","internalType":"struct Gear.AggregatedPublicKey","components":[{"name":"x","type":"uint256","internalType":"uint256"},{"name":"y","type":"uint256","internalType":"uint256"}]},{"name":"verifiableSecretSharingCommitment","type":"bytes","internalType":"bytes"},{"name":"validators","type":"address[]","internalType":"address[]"},{"name":"eraIndex","type":"uint256","internalType":"uint256"}]}]},{"name":"_signatureType","type":"uint8","internalType":"enum Gear.SignatureType"},{"name":"_signatures","type":"bytes[]","internalType":"bytes[]"}],"outputs":[],"stateMutability":"nonpayable"},{"type":"function","name":"computeSettings","inputs":[],"outputs":[{"name":"","type":"tuple","internalType":"struct Gear.ComputationSettings","components":[{"name":"threshold","type":"uint64","internalType":"uint64"},{"name":"wvaraPerSecond","type":"uint128","internalType":"uint128"}]}],"stateMutability":"view"},{"type":"function","name":"createProgram","inputs":[{"name":"_codeId","type":"bytes32","internalType":"bytes32"},{"name":"_salt","type":"bytes32","internalType":"bytes32"},{"name":"_overrideInitializer","type":"address","internalType":"address"}],"outputs":[{"name":"","type":"address","internalType":"address"}],"stateMutability":"nonpayable"},{"type":"function","name":"createProgramWithAbiInterface","inputs":[{"name":"_codeId","type":"bytes32","internalType":"bytes32"},{"name":"_salt","type":"bytes32","internalType":"bytes32"},{"name":"_overrideInitializer","type":"address","internalType":"address"},{"name":"_abiInterface","type":"address","internalType":"address"}],"outputs":[{"name":"","type":"address","internalType":"address"}],"stateMutability":"nonpayable"},{"type":"function","name":"genesisBlockHash","inputs":[],"outputs":[{"name":"","type":"bytes32","internalType":"bytes32"}],"stateMutability":"view"},{"type":"function","name":"genesisTimestamp","inputs":[],"outputs":[{"name":"","type":"uint48","internalType":"uint48"}],"stateMutability":"view"},{"type":"function","name":"initialize","inputs":[{"name":"_owner","type":"address","internalType":"address"},{"name":"_mirror","type":"address","internalType":"address"},{"name":"_wrappedVara","type":"address","internalType":"address"},{"name":"_middleware","type":"address","internalType":"address"},{"name":"_eraDuration","type":"uint256","internalType":"uint256"},{"name":"_electionDuration","type":"uint256","internalType":"uint256"},{"name":"_validationDelay","type":"uint256","internalType":"uint256"},{"name":"_aggregatedPublicKey","type":"tuple","internalType":"struct Gear.AggregatedPublicKey","components":[{"name":"x","type":"uint256","internalType":"uint256"},{"name":"y","type":"uint256","internalType":"uint256"}]},{"name":"_verifiableSecretSharingCommitment","type":"bytes","internalType":"bytes"},{"name":"_validators","type":"address[]","internalType":"address[]"}],"outputs":[],"stateMutability":"nonpayable"},{"type":"function","name":"isValidator","inputs":[{"name":"_validator","type":"address","internalType":"address"}],"outputs":[{"name":"","type":"bool","internalType":"bool"}],"stateMutability":"view"},{"type":"function","name":"latestCommittedBatchHash","inputs":[],"outputs":[{"name":"","type":"bytes32","internalType":"bytes32"}],"stateMutability":"view"},{"type":"function","name":"latestCommittedBatchTimestamp","inputs":[],"outputs":[{"name":"","type":"uint48","internalType":"uint48"}],"stateMutability":"view"},{"type":"function","name":"lookupGenesisHash","inputs":[],"outputs":[],"stateMutability":"nonpayable"},{"type":"function","name":"middleware","inputs":[],"outputs":[{"name":"","type":"address","internalType":"address"}],"stateMutability":"view"},{"type":"function","name":"mirrorImpl","inputs":[],"outputs":[{"name":"","type":"address","internalType":"address"}],"stateMutability":"view"},{"type":"function","name":"owner","inputs":[],"outputs":[{"name":"","type":"address","internalType":"address"}],"stateMutability":"view"},{"type":"function","name":"pause","inputs":[],"outputs":[],"stateMutability":"nonpayable"},{"type":"function","name":"paused","inputs":[],"outputs":[{"name":"","type":"bool","internalType":"bool"}],"stateMutability":"view"},{"type":"function","name":"programCodeId","inputs":[{"name":"_programId","type":"address","internalType":"address"}],"outputs":[{"name":"","type":"bytes32","internalType":"bytes32"}],"stateMutability":"view"},{"type":"function","name":"programsCodeIds","inputs":[{"name":"_programsIds","type":"address[]","internalType":"address[]"}],"outputs":[{"name":"","type":"bytes32[]","internalType":"bytes32[]"}],"stateMutability":"view"},{"type":"function","name":"programsCount","inputs":[],"outputs":[{"name":"","type":"uint256","internalType":"uint256"}],"stateMutability":"view"},{"type":"function","name":"reinitialize","inputs":[],"outputs":[],"stateMutability":"nonpayable"},{"type":"function","name":"renounceOwnership","inputs":[],"outputs":[],"stateMutability":"nonpayable"},{"type":"function","name":"requestCodeValidation","inputs":[{"name":"_codeId","type":"bytes32","internalType":"bytes32"}],"outputs":[],"stateMutability":"nonpayable"},{"type":"function","name":"setMirror","inputs":[{"name":"newMirror","type":"address","internalType":"address"}],"outputs":[],"stateMutability":"nonpayable"},{"type":"function","name":"signingThresholdFraction","inputs":[],"outputs":[{"name":"","type":"uint128","internalType":"uint128"},{"name":"","type":"uint128","internalType":"uint128"}],"stateMutability":"view"},{"type":"function","name":"storageView","inputs":[],"outputs":[{"name":"","type":"tuple","internalType":"struct IRouter.StorageView","components":[{"name":"genesisBlock","type":"tuple","internalType":"struct Gear.GenesisBlockInfo","components":[{"name":"hash","type":"bytes32","internalType":"bytes32"},{"name":"number","type":"uint32","internalType":"uint32"},{"name":"timestamp","type":"uint48","internalType":"uint48"}]},{"name":"latestCommittedBatch","type":"tuple","internalType":"struct Gear.CommittedBatchInfo","components":[{"name":"hash","type":"bytes32","internalType":"bytes32"},{"name":"timestamp","type":"uint48","internalType":"uint48"}]},{"name":"implAddresses","type":"tuple","internalType":"struct Gear.AddressBook","components":[{"name":"mirror","type":"address","internalType":"address"},{"name":"wrappedVara","type":"address","internalType":"address"},{"name":"middleware","type":"address","internalType":"address"}]},{"name":"validationSettings","type":"tuple","internalType":"struct Gear.ValidationSettingsView","components":[{"name":"thresholdNumerator","type":"uint128","internalType":"uint128"},{"name":"thresholdDenominator","type":"uint128","internalType":"uint128"},{"name":"validators0","type":"tuple","internalType":"struct Gear.ValidatorsView","components":[{"name":"aggregatedPublicKey","type":"tuple","internalType":"struct Gear.AggregatedPublicKey","components":[{"name":"x","type":"uint256","internalType":"uint256"},{"name":"y","type":"uint256","internalType":"uint256"}]},{"name":"verifiableSecretSharingCommitmentPointer","type":"address","internalType":"address"},{"name":"list","type":"address[]","internalType":"address[]"},{"name":"useFromTimestamp","type":"uint256","internalType":"uint256"}]},{"name":"validators1","type":"tuple","internalType":"struct Gear.ValidatorsView","components":[{"name":"aggregatedPublicKey","type":"tuple","internalType":"struct Gear.AggregatedPublicKey","components":[{"name":"x","type":"uint256","internalType":"uint256"},{"name":"y","type":"uint256","internalType":"uint256"}]},{"name":"verifiableSecretSharingCommitmentPointer","type":"address","internalType":"address"},{"name":"list","type":"address[]","internalType":"address[]"},{"name":"useFromTimestamp","type":"uint256","internalType":"uint256"}]}]},{"name":"computeSettings","type":"tuple","internalType":"struct Gear.ComputationSettings","components":[{"name":"threshold","type":"uint64","internalType":"uint64"},{"name":"wvaraPerSecond","type":"uint128","internalType":"uint128"}]},{"name":"timelines","type":"tuple","internalType":"struct Gear.Timelines","components":[{"name":"era","type":"uint256","internalType":"uint256"},{"name":"election","type":"uint256","internalType":"uint256"},{"name":"validationDelay","type":"uint256","internalType":"uint256"}]},{"name":"programsCount","type":"uint256","internalType":"uint256"},{"name":"validatedCodesCount","type":"uint256","internalType":"uint256"}]}],"stateMutability":"view"},{"type":"function","name":"timelines","inputs":[],"outputs":[{"name":"","type":"tuple","internalType":"struct Gear.Timelines","components":[{"name":"era","type":"uint256","internalType":"uint256"},{"name":"election","type":"uint256","internalType":"uint256"},{"name":"validationDelay","type":"uint256","internalType":"uint256"}]}],"stateMutability":"view"},{"type":"function","name":"transferOwnership","inputs":[{"name":"newOwner","type":"address","internalType":"address"}],"outputs":[],"stateMutability":"nonpayable"},{"type":"function","name":"unpause","inputs":[],"outputs":[],"stateMutability":"nonpayable"},{"type":"function","name":"validatedCodesCount","inputs":[],"outputs":[{"name":"","type":"uint256","internalType":"uint256"}],"stateMutability":"view"},{"type":"function","name":"validators","inputs":[],"outputs":[{"name":"","type":"address[]","internalType":"address[]"}],"stateMutability":"view"},{"type":"function","name":"validatorsAggregatedPublicKey","inputs":[],"outputs":[{"name":"","type":"tuple","internalType":"struct Gear.AggregatedPublicKey","components":[{"name":"x","type":"uint256","internalType":"uint256"},{"name":"y","type":"uint256","internalType":"uint256"}]}],"stateMutability":"view"},{"type":"function","name":"validatorsCount","inputs":[],"outputs":[{"name":"","type":"uint256","internalType":"uint256"}],"stateMutability":"view"},{"type":"function","name":"validatorsThreshold","inputs":[],"outputs":[{"name":"","type":"uint256","internalType":"uint256"}],"stateMutability":"view"},{"type":"function","name":"validatorsVerifiableSecretSharingCommitment","inputs":[],"outputs":[{"name":"","type":"bytes","internalType":"bytes"}],"stateMutability":"view"},{"type":"function","name":"wrappedVara","inputs":[],"outputs":[{"name":"","type":"address","internalType":"address"}],"stateMutability":"view"},{"type":"event","name":"AnnouncesCommitted","inputs":[{"name":"head","type":"bytes32","indexed":false,"internalType":"bytes32"}],"anonymous":false},{"type":"event","name":"BatchCommitted","inputs":[{"name":"hash","type":"bytes32","indexed":false,"internalType":"bytes32"}],"anonymous":false},{"type":"event","name":"CodeGotValidated","inputs":[{"name":"codeId","type":"bytes32","indexed":false,"internalType":"bytes32"},{"name":"valid","type":"bool","indexed":true,"internalType":"bool"}],"anonymous":false},{"type":"event","name":"CodeValidationRequested","inputs":[{"name":"codeId","type":"bytes32","indexed":false,"internalType":"bytes32"}],"anonymous":false},{"type":"event","name":"ComputationSettingsChanged","inputs":[{"name":"threshold","type":"uint64","indexed":false,"internalType":"uint64"},{"name":"wvaraPerSecond","type":"uint128","indexed":false,"internalType":"uint128"}],"anonymous":false},{"type":"event","name":"Initialized","inputs":[{"name":"version","type":"uint64","indexed":false,"internalType":"uint64"}],"anonymous":false},{"type":"event","name":"OwnershipTransferred","inputs":[{"name":"previousOwner","type":"address","indexed":true,"internalType":"address"},{"name":"newOwner","type":"address","indexed":true,"internalType":"address"}],"anonymous":false},{"type":"event","name":"Paused","inputs":[{"name":"account","type":"address","indexed":false,"internalType":"address"}],"anonymous":false},{"type":"event","name":"ProgramCreated","inputs":[{"name":"actorId","type":"address","indexed":false,"internalType":"address"},{"name":"codeId","type":"bytes32","indexed":true,"internalType":"bytes32"}],"anonymous":false},{"type":"event","name":"StorageSlotChanged","inputs":[{"name":"slot","type":"bytes32","indexed":false,"internalType":"bytes32"}],"anonymous":false},{"type":"event","name":"Unpaused","inputs":[{"name":"account","type":"address","indexed":false,"internalType":"address"}],"anonymous":false},{"type":"event","name":"ValidatorsCommittedForEra","inputs":[{"name":"eraIndex","type":"uint256","indexed":false,"internalType":"uint256"}],"anonymous":false},{"type":"error","name":"ApproveERC20Failed","inputs":[]},{"type":"error","name":"BatchTimestampNotInPast","inputs":[]},{"type":"error","name":"BatchTimestampTooEarly","inputs":[]},{"type":"error","name":"BlobNotFound","inputs":[]},{"type":"error","name":"CodeAlreadyOnValidationOrValidated","inputs":[]},{"type":"error","name":"CodeNotValidated","inputs":[]},{"type":"error","name":"CodeValidationNotRequested","inputs":[]},{"type":"error","name":"CommitmentEraNotNext","inputs":[]},{"type":"error","name":"DeploymentFailed","inputs":[]},{"type":"error","name":"ECDSAInvalidSignature","inputs":[]},{"type":"error","name":"ECDSAInvalidSignatureLength","inputs":[{"name":"length","type":"uint256","internalType":"uint256"}]},{"type":"error","name":"ECDSAInvalidSignatureS","inputs":[{"name":"s","type":"bytes32","internalType":"bytes32"}]},{"type":"error","name":"ElectionNotStarted","inputs":[]},{"type":"error","name":"EmptyValidatorsList","inputs":[]},{"type":"error","name":"EnforcedPause","inputs":[]},{"type":"error","name":"EraDurationTooShort","inputs":[]},{"type":"error","name":"ErasTimestampMustNotBeEqual","inputs":[]},{"type":"error","name":"ExpectedPause","inputs":[]},{"type":"error","name":"GenesisHashAlreadySet","inputs":[]},{"type":"error","name":"GenesisHashNotFound","inputs":[]},{"type":"error","name":"InvalidElectionDuration","inputs":[]},{"type":"error","name":"InvalidFROSTAggregatedPublicKey","inputs":[]},{"type":"error","name":"InvalidFrostSignatureCount","inputs":[]},{"type":"error","name":"InvalidFrostSignatureLength","inputs":[]},{"type":"error","name":"InvalidInitialization","inputs":[]},{"type":"error","name":"InvalidPreviousCommittedBatchHash","inputs":[]},{"type":"error","name":"InvalidTimestamp","inputs":[]},{"type":"error","name":"NotInitializing","inputs":[]},{"type":"error","name":"OwnableInvalidOwner","inputs":[{"name":"owner","type":"address","internalType":"address"}]},{"type":"error","name":"OwnableUnauthorizedAccount","inputs":[{"name":"account","type":"address","internalType":"address"}]},{"type":"error","name":"PredecessorBlockNotFound","inputs":[]},{"type":"error","name":"ReentrancyGuardReentrantCall","inputs":[]},{"type":"error","name":"RewardsCommitmentEraNotPrevious","inputs":[]},{"type":"error","name":"RewardsCommitmentPredatesGenesis","inputs":[]},{"type":"error","name":"RewardsCommitmentTimestampNotInPast","inputs":[]},{"type":"error","name":"RouterGenesisHashNotInitialized","inputs":[]},{"type":"error","name":"SignatureVerificationFailed","inputs":[]},{"type":"error","name":"TimestampInFuture","inputs":[]},{"type":"error","name":"TimestampOlderThanPreviousEra","inputs":[]},{"type":"error","name":"TooManyChainCommitments","inputs":[]},{"type":"error","name":"TooManyRewardsCommitments","inputs":[]},{"type":"error","name":"TooManyValidatorsCommitments","inputs":[]},{"type":"error","name":"UnknownProgram","inputs":[]},{"type":"error","name":"ValidationBeforeGenesis","inputs":[]},{"type":"error","name":"ValidationDelayTooBig","inputs":[]},{"type":"error","name":"ValidatorsAlreadyScheduled","inputs":[]},{"type":"error","name":"ValidatorsNotFoundForTimestamp","inputs":[]},{"type":"error","name":"ZeroValueTransfer","inputs":[]}],"bytecode":{"object":"0x6080806040523460aa575f5160206141635f395f51905f525460ff8160401c16609b576002600160401b03196001600160401b038216016049575b6040516140b490816100af8239f35b6001600160401b0319166001600160401b039081175f5160206141635f395f51905f525581527fc7f505b2f371ae2175ee4913f4499e1f2633a7b5936321eed1cdaeb6115181d290602090a15f80603a565b63f92ee8a960e01b5f5260045ffd5b5f80fdfe6080806040526004361015610089575b50361561001a575f80fd5b5f5160206140545f395f51905f525460018101541561007a576001600160801b0334161561006b57335f908152601a9190910160205260409020541561005c57005b63821a62f560e01b5f5260045ffd5b63a1a7c6eb60e01b5f5260045ffd5b63580683f360e01b5f5260045ffd5b5f905f3560e01c9081627a32e7146123ff575080630c18d27714611f0d578063120e3f1e14611e2e57806328e24b3d14611e005780633683c4d214611bd55780633bd109fa14611b865780633d43b41814611b325780633f4ba83a14611aba57806353f7fd481461163b5780635c975abb1461160c5780636c2eb350146112af578063715018a61461124657806371a8cf2d1461121857806382bdeaad146111005780638456cb591461108557806384d22a4f1461102757806388f50cf014610fee5780638b1edf1e14610f875780638da5cb5b14610f525780638f381dbe14610f0c5780639067088e14610ec357806396a2ddfa14610e955780639eb939a814610e3e578063a5d53a4414610dd0578063b24fcac014610926578063baaf020114610825578063c13911e8146107e1578063c2eb812f146104b5578063ca1e781914610465578063cacf66ab1461042d578063d456fd51146103f7578063e3a6684f146103b8578063e6fabc091461037f578063ed612f8c14610347578063edc87225146102f2578063f2fde38b146102c5578063f4f20ac01461028c5763facd743b0361000f57346102895760203660031901126102895761024b612455565b60036102665f5160206140545f395f51905f52544290613baf565b019060018060a01b03165f52602052602060ff60405f2054166040519015158152f35b80fd5b50346102895780600319360112610289575f5160206140545f395f51905f5254600701546040516001600160a01b039091168152602090f35b5034610289576020366003190112610289576102ef6102e2612455565b6102ea6129df565b612939565b80f35b5034610289578060031936011261028957602061033f5f5160206140545f395f51905f5254600860046103254284613baf565b0154910154906001600160801b038260801c921690613b84565b604051908152f35b5034610289578060031936011261028957602060046103755f5160206140545f395f51905f52544290613baf565b0154604051908152f35b50346102895780600319360112610289575f5160206140545f395f51905f5254600501546040516001600160a01b039091168152602090f35b5034610289578060031936011261028957604060085f5160206140545f395f51905f525401548151906001600160801b038116825260801c6020820152f35b5034610289578060031936011261028957602065ffffffffffff60045f5160206140545f395f51905f5254015416604051908152f35b5034610289578060031936011261028957602065ffffffffffff60025f5160206140545f395f51905f52540154821c16604051908152f35b50346102895780600319360112610289576104b161049d60046104975f5160206140545f395f51905f52544290613baf565b0161272e565b6040519182916020835260208301906124bc565b0390f35b50346102895780600319360112610289576040516104d281612589565b6104da612867565b81526040516104e88161256e565b5f8152602081015f905260208201526104ff612867565b604082015261050c612906565b606082015260405161051d8161256e565b5f80825260208201526080820152610533612867565b60a08201528160c082015260e001525f5160206140545f395f51905f5254610559612906565b5061056660098201613e3f565b90610573600f8201613e3f565b60088201549260405193610586856125a5565b6001600160801b038116855260801c602085015260408401526060830152601b81015490601c810154604051926105bc84612589565b6040516105c88161253f565b60018401548152600284015463ffffffff8116602083015260201c65ffffffffffff1660408201528452604051946105ff8661256e565b60038401548652600484015465ffffffffffff166020870152602085019586526040519061062c8261253f565b60058501546001600160a01b039081168352600686015481166020840152600786015416604080840191909152860191825260608601908152610671601586016127b9565b946080870195865260160161068590612885565b9160a0870192835260c0870193845260e087019485526040519788976020895251805160208a0152602081015163ffffffff1660408a01526040015165ffffffffffff16606089015251805160808901526020015165ffffffffffff1660a088015251600160a01b6001900381511660c0880152600160a01b6001900360208201511660e0880152600160a01b60019003906040015116610100870152516101208601610200905280516001600160801b031661022087015260208101516001600160801b031661024087015260408101516102608701608090526102a0870161076e916124f8565b90606001519061021f198782030161028088015261078b916124f8565b935180516001600160401b0316610140870152602001516001600160801b031661016086015251805161018086015260208101516101a0860152604001516101c0850152516101e0840152516102008301520390f35b50346102895760203660031901126102895760ff604060209260195f5160206140545f395f51905f5254016004358252845220541661082360405180926124af565bf35b5034610289576020366003190112610289576004356001600160401b0381116109225761085690369060040161247f565b905f5160206140545f395f51905f525490610870836126c3565b9161087e60405193846125c0565b83835261088a846126c3565b602084019490601f1901368637601a869201915b8181106108e957868587604051928392602084019060208552518091526040840192915b8181106108d0575050500390f35b82518452859450602093840193909201916001016108c2565b806108ff6108fa6001938588612781565b6127e7565b828060a01b03165f528360205260405f205461091b82886127a5565b520161089e565b5080fd5b5034610289576060366003190112610289576001600160401b036004351161028957610100600435360360031901126102895760026024351015610289576044356001600160401b0381116109225761098390369060040161247f565b7f9b779b17422d0df92223018b32b4d1fa46e071723d6817e2486d003becc55f005c610dc15760017f9b779b17422d0df92223018b32b4d1fa46e071723d6817e2486d003becc55f005d5f5160206140545f395f51905f525490600182015415610db257815415610d56575b60038201546044600435013503610d475765ffffffffffff60048301541665ffffffffffff610a226024600435016128bb565b1610610d3957610a3760043560040183612d6f565b92610a4c60a460043501600435600401613224565b808096925060051b0460201485151715610d2557610a6c8560051b613c2b565b8695865b818810610bdc5750610ba2965060051b902090610a9260043560040186613288565b610aa16004356004018761367b565b90610ab06024600435016128bb565b93610abf6064600435016128ad565b9360405194602086019660043560040135885265ffffffffffff60d01b9060d01b16604087015260446004350135604687015260ff60f81b9060f81b1660668601526067850152608784015260a783015260c782015260c78152610b2460e7826125c0565b5190209283600382015565ffffffffffff610b436024600435016128bb565b1665ffffffffffff196004830154161760048201557f7ebe42360bcb182fe0a88148b081e4557c89d09aa6af8307635ac2f83e2aaa656020604051868152a165ffffffffffff610b976024600435016128bb565b16936024359161390f565b15610bcd57807f9b779b17422d0df92223018b32b4d1fa46e071723d6817e2486d003becc55f005d80f35b63729d0f6b60e01b8152600490fd5b610bf060a460043501600435600401613224565b891015610d11578860061b8101358a526019880160205260ff60408b2054166003811015610cfd57600103610cee57600191602091610cb38b8b8e868360061b86010192610c3d84613259565b15610ccf5760061b85013590525060198c01855260408e20805460ff19166002179055601c8c018054610c6f906129d1565b90555b8c7f460119a8f69a33ed127de517d5ea464e958ce23ef19e4420a8b92bf780bbc2c986610c9e84613259565b1515926040519060061b8701358152a2613259565b908b60061b01358c52825360218b208186015201970196610a70565b60409260199160061b87013583520187522060ff198154169055610c72565b636e83084760e11b8a5260048afd5b634e487b7160e01b8b52602160045260248bfd5b634e487b7160e01b8a52603260045260248afd5b634e487b7160e01b86526011600452602486fd5b620725b160ea1b8452600484fd5b63164b6fc360e01b8452600484fd5b610d73610d676064600435016128ad565b60043560040135612cda565b15610da35765ffffffffffff610d8d6024600435016128bb565b1642116109ef57631ad8809560e31b8452600484fd5b637b8cb35960e01b8452600484fd5b63580683f360e01b8452600484fd5b633ee5aeb560e01b8352600483fd5b50346102895780600319360112610289576040610e115f5160206140545f395f51905f52546002610e0960018060a01b03924290613baf565b015416612cab565b6020825193849282845280519283918282870152018585015e828201840152601f01601f19168101030190f35b5034610289578060031936011261028957610e57612867565b506060610e7460165f5160206140545f395f51905f525401612885565b61082360405180926040809180518452602081015160208501520151910152565b50346102895780600319360112610289576020601b5f5160206140545f395f51905f52540154604051908152f35b503461028957602036600319011261028957610edd612455565b601a5f5160206140545f395f51905f5254019060018060a01b03165f52602052602060405f2054604051908152f35b503461028957602036600319011261028957600435906001600160401b038211610289576020610f48610f42366004860161247f565b906127fb565b6040519015158152f35b50346102895780600319360112610289575f5160206140345f395f51905f52546040516001600160a01b039091168152602090f35b5034610289578060031936011261028957610fa06129aa565b5f5160206140545f395f51905f525460018101908154610fdf576002015463ffffffff1640908115610fd0575580f35b63f7bac7b560e01b8352600483fd5b6309476b0360e41b8352600483fd5b50346102895780600319360112610289575f5160206140545f395f51905f5254600601546040516001600160a01b039091168152602090f35b50346102895780600319360112610289576110406125e1565b50604061105d60155f5160206140545f395f51905f5254016127b9565b610823825180926001600160801b03602080926001600160401b038151168552015116910152565b503461028957806003193601126102895761109e6129df565b6110a66129aa565b6110ae6129aa565b600160ff195f5160206140745f395f51905f525416175f5160206140745f395f51905f52557f62e78cea01bee320cd4e420270b5ea74000d11b0c9f74754ebdbfc544b05a2586020604051338152a180f35b5034610289576020366003190112610289576004356001600160401b0381116109225761113190369060040161247f565b905f5160206140545f395f51905f52549061114b836126c3565b9161115960405193846125c0565b838352611165846126c3565b602084019490601f19013686376019869201915b8181106111ce57868587604051928392602084019060208552518091526040840192915b8181106111ab575050500390f35b91935091602080826111c060019488516124af565b01940191019184939261119d565b6111d9818386612781565b3587528260205260ff6040882054166111f282876127a5565b60038210156112045752600101611179565b634e487b7160e01b89526021600452602489fd5b5034610289578060031936011261028957602060035f5160206140545f395f51905f52540154604051908152f35b503461028957806003193601126102895761125f6129df565b5f5160206140345f395f51905f5280546001600160a01b0319811690915581906001600160a01b03167f8be0079c531659141344cd1fd0a4f28419497f9722a3daafe3b4186f6b6457e08280a380f35b50346102895780600319360112610289575f5160206140945f395f51905f525460ff8160401c169081156115f7575b506115e8575f5160206140945f395f51905f52805468ffffffffffffffffff1916680100000000000000021790555f5160206140345f395f51905f5254611338906001600160a01b0316611330613bcb565b6102ea613bcb565b7fc7f505b2f371ae2175ee4913f4499e1f2633a7b5936321eed1cdaeb6115181d260205f5160206140545f395f51905f5254604090815161137983826125c0565b601781528381017f726f757465722e73746f726167652e526f75746572563200000000000000000081526113ab6129df565b5f199151902001855260ff198386201690815f5160206140545f395f51905f52557f059eb9adf6e95b839d818142ed5bd5e498b6d95138e65c91525e93cc0f0339fc848451848152a16113fc612a3a565b80516001840155600283019063ffffffff868201511669ffffffffffff00000000868454930151881b169169ffffffffffffffffffff19161717905560058101600583019080820361159a575b5050600881016001600160801b038154169060088401916001600160801b0319835416178255546001600160801b0382549181191691161790556114d26114904283613baf565b6114a76001600160a01b036002610e094287613baf565b6114bd60046114b64287613baf565b01926125f9565b906114c8429361272e565b9160098701612a82565b601581016015830190808203611548575b5050601681016016830191818303611528575b5050505060ff60401b195f5160206140945f395f51905f5254165f5160206140945f395f51905f52555160028152a180f35b60189283925490556017810154601785015501549101555f8080806114f6565b806001600160401b03806001600160801b03935416166001600160401b031984541617835554851c16600160401b600160c01b03825491861b1690600160401b600160c01b0319161790555f806114e3565b5481546001600160a01b03199081166001600160a01b039283161790925560068381015490850180548416918316919091179055600780840154908501805490931691161790555f80611449565b63f92ee8a960e01b8152600490fd5b600291506001600160401b031610155f6112de565b5034610289578060031936011261028957602060ff5f5160206140745f395f51905f5254166040519015158152f35b50346102895761016036600319011261028957611656612455565b6024356001600160a01b0381169190829003611ab657611674612429565b9161167d61243f565b9260c43591608435919060a43560403660e3190112611ab25761012435946001600160401b038611611aae5736602387011215611aae578560040135916001600160401b038311611aaa573660248489010111611aaa57610144356001600160401b038111611aa6576116f490369060040161247f565b9690945f5160206140945f395f51905f5254996001600160401b0360ff8c60401c16159b1680159081611a9e575b6001149081611a94575b159081611a8b575b50611a7c57611776908b60016001600160401b03195f5160206140945f395f51905f525416175f5160206140945f395f51905f5255611a4c575b611330613bcb565b61177e613bcb565b611786613bcb565b4215611a3d578215611a2e5782821115611a1f57600a6117a68484612617565b04841015611a105760409a8b918d83516117c085826125c0565b60178152602081017f726f757465722e73746f726167652e526f75746572563100000000000000000081526117f36129df565b905190205f190190526020808f2060ff19165f5160206140545f395f51905f528190558451818152909a917f059eb9adf6e95b839d818142ed5bd5e498b6d95138e65c91525e93cc0f0339fc91a1611849612a3a565b805160018c015560028b0190602081015163ffffffff1686835492015160201b69ffffffffffff00000000169169ffffffffffffffffffff1916171790558351906118938261253f565b8282526001600160a01b03908116602083018190529381169490910184905260058a018054919092166001600160a01b0319918216179091556006890180548216909217909155600788018054909116909117905570030000000000000000000000000000000260088701556119076125e1565b5089516119138161256e565b639502f90081526509184e72a0006020909101526015860180546001600160c01b0319166d09184e72a000000000009502f900179055895183908b906119588161253f565b838152846020820152015260168601556017850155601884015586519461197e8661256e565b60e435865261010435602087015261199a91369160240161267e565b90429336906119a8926126da565b91600901936119b694612a82565b6119be575080f35b60207fc7f505b2f371ae2175ee4913f4499e1f2633a7b5936321eed1cdaeb6115181d29160ff60401b195f5160206140945f395f51905f5254165f5160206140945f395f51905f52555160018152a180f35b63145e348f60e01b8c5260048cfd5b6353b2bbed60e01b8c5260048cfd5b63f7ba6bdb60e01b8c5260048cfd5b63b7d0949760e01b8c5260048cfd5b600160401b60ff60401b195f5160206140945f395f51905f525416175f5160206140945f395f51905f525561176e565b63f92ee8a960e01b8d5260048dfd5b9050155f611734565b303b15915061172c565b8c9150611722565b8a80fd5b8980fd5b8880fd5b8780fd5b8280fd5b5034610289578060031936011261028957611ad36129df565b611adb612a12565b611ae3612a12565b60ff195f5160206140745f395f51905f5254165f5160206140745f395f51905f52557f5db9ee0a495bf2e6ff9c91a7834c1ba4fdd244a5e8aa4e537bd38aeae4b073aa6020604051338152a180f35b503461028957602036600319011261028957611b4c612455565b611b546129df565b5f5160206140545f395f51905f525460050180546001600160a01b0319166001600160a01b0390921691909117905580f35b5034610289578060031936011261028957611b9f6125e1565b506040611bc3611bbe5f5160206140545f395f51905f52544290613baf565b6125f9565b60208251918051835201516020820152f35b503461028957606036600319011261028957600435611bf2612429565b611bfa6129aa565b5f5160206140545f395f51905f5254600181015415610db2578284526019810160205260ff6040852054166003811015611dec57600203611ddd578284526024356020526040842060405160608101908082106001600160401b03831117611dd957605a916040527f3d605080600a3d3981f3608060405263e6fabc0960e01b5f5260205f6004817381523060601b6b5afa15604c575f80805136821760208201527f80378136915af43d5f803e156048573d5ff35b3d5ffd5b5f80fd000000000000604082015286f5908115611dd5576001600160a01b0382165f908152601a820160205260409020849055601b018054611cf5906129d1565b90556040516001600160a01b03821680825293907f8008ec1d8798725ebfa0f2d128d52e8e717dcba6e0f786557eeee70614b02bf190602090a2506001600160a01b038116611dd05750335b5f5160206140545f395f51905f5254600501546001600160a01b0316823b15611dcc57604051631c9776b560e31b81526001600160a01b039092166004830152602482015260016044820152828160648183865af18015611dc157611dac575b602082604051908152f35b611db78380926125c0565b6109225781611da1565b6040513d85823e3d90fd5b8380fd5b611d41565b8480fd5b8680fd5b630e2637d160e01b8452600484fd5b634e487b7160e01b85526021600452602485fd5b5034610289578060031936011261028957602060015f5160206140545f395f51905f52540154604051908152f35b503461028957602036600319011261028957600435611e4b6129aa565b814915611efe575f5160206140545f395f51905f5254600181015415611eef576019018183528060205260ff6040842054166003811015611edb57611ecc5781835260209081526040808420805460ff19166001179055519182527f5c261a095dd5720475295dc06379921c003c22164ee6cae5cf83e76ce0a1b98591a180f35b6304c51a3360e31b8352600483fd5b634e487b7160e01b84526021600452602484fd5b63580683f360e01b8352600483fd5b637bb2fa2f60e11b8252600482fd5b346123d25760803660031901126123d257600435611f29612429565b90611f3261243f565b91611f3b6129aa565b5f5160206140545f395f51905f525460018101541561007a57825f526019810160205260ff60405f20541660038110156123eb576002036123dc57825f5260243560205260405f206040516102c08101908082106001600160401b038311176123d2576102b0916040527f60808060405261029e90816100128239f3fe608060405260043610610254575f81527f3560e01c806336a52a18146100ab57806342129d00146100a65780635ce6c32760208201527f146100a1578063701da98e1461009c578063704ed542146100975780637a8e0c60408201527fdd1461009257806391d5a64c1461008d5780639ce110d714610088578063affe60608201527fd0e0146100835763e43f3433036102545761023f565b610222565b6101fa565b60808201527f6101e4565b6101b1565b610181565b610165565b610143565b610106565b346160a08201527ed4575f3660031901126100d45760025460081c6001600160a01b031660809060c08201527f8152602090f35b5f80fd5b9181601f840112156100d45782359167ffffffffff60e08201527fffffff83116100d457602083818601950101116100d457565b604036600319016101008201527f126100d45760043567ffffffffffffffff81116100d4576101329036906004016101208201527f6100d8565b505060243580151514610254575f80fd5b346100d4575f366003196101408201527f01126100d457602060ff600254166040519015158152f35b346100d4575f36606101608201527f031901126100d45760205f54604051908152f35b346100d457602036600319016101808201527f126100d4576004356fffffffffffffffffffffffffffffffff811614610254576101a08201527f5f80fd5b60403660031901126100d45760243567ffffffffffffffff811161006101c08201527fd4576101dd9036906004016100d8565b5050610254565b346100d457602036606101e08201527f0319011215610254575f80fd5b346100d4575f3660031901126100d4576003546102008201527f6040516001600160a01b039091168152602090f35b346100d4575f36600319016102208201527f126100d4576020600154604051908152f35b346100d4575f36600319011215616102408201523060601c7f0254575f80fd5b63e6fabc0960e01b5f5260205f60048173000000000000000017610260820152735afa156100d4575f808051368280378136915af43060a01b176102808201526f3d5f803e1561029a573d5ff35b3d5ffd60801b6102a08201525ff59081156123d2576001600160a01b0382165f908152601a820160205260409020849055601b018054612317906129d1565b90556040516001600160a01b03821680825293907f8008ec1d8798725ebfa0f2d128d52e8e717dcba6e0f786557eeee70614b02bf190602090a2506001600160a01b0381166123d6575033915b813b156123d257604051631c9776b560e31b81526001600160a01b039384166004820152921660248301525f604483018190528260648183855af19182156123c7576020926123b7575b50604051908152f35b5f6123c1916125c0565b5f6123ae565b6040513d5f823e3d90fd5b5f80fd5b91612364565b630e2637d160e01b5f5260045ffd5b634e487b7160e01b5f52602160045260245ffd5b346123d2575f3660031901126123d257602090601c5f5160206140545f395f51905f525401548152f35b604435906001600160a01b03821682036123d257565b606435906001600160a01b03821682036123d257565b600435906001600160a01b03821682036123d257565b35906001600160a01b03821682036123d257565b9181601f840112156123d2578235916001600160401b0383116123d2576020808501948460051b0101116123d257565b9060038210156123eb5752565b90602080835192838152019201905f5b8181106124d95750505090565b82516001600160a01b03168452602093840193909201916001016124cc565b9060208251805183520151602082015260018060a01b03602083015116604082015260806060612536604085015160a08386015260a08501906124bc565b93015191015290565b606081019081106001600160401b0382111761255a57604052565b634e487b7160e01b5f52604160045260245ffd5b604081019081106001600160401b0382111761255a57604052565b61010081019081106001600160401b0382111761255a57604052565b608081019081106001600160401b0382111761255a57604052565b90601f801991011681019081106001600160401b0382111761255a57604052565b604051906125ee8261256e565b5f6020838281520152565b906040516126068161256e565b602060018294805484520154910152565b9190820391821161262457565b634e487b7160e01b5f52601160045260245ffd5b8115612642570490565b634e487b7160e01b5f52601260045260245ffd5b91908260409103126123d25760405161266e8161256e565b6020808294803584520135910152565b9291926001600160401b03821161255a57604051916126a7601f8201601f1916602001846125c0565b8294818452818301116123d2578281602093845f960137010152565b6001600160401b03811161255a5760051b60200190565b9291906126e6816126c3565b936126f460405195866125c0565b602085838152019160051b81019283116123d257905b82821061271657505050565b602080916127238461246b565b81520191019061270a565b90604051918281549182825260208201905f5260205f20925f5b81811061275f57505061275d925003836125c0565b565b84546001600160a01b0316835260019485019487945060209093019201612748565b91908110156127915760051b0190565b634e487b7160e01b5f52603260045260245ffd5b80518210156127915760209160051b010190565b906040516127c68161256e565b91546001600160401b038116835260401c6001600160801b03166020830152565b356001600160a01b03811681036123d25790565b6128145f5160206140545f395f51905f52544290613baf565b600301905f5b83811061282a5750505050600190565b6128386108fa828685612781565b6001600160a01b03165f9081526020849052604090205460ff161561285f5760010161281a565b505050505f90565b604051906128748261253f565b5f6040838281528260208201520152565b906040516128928161253f565b60406002829480548452600181015460208501520154910152565b3560ff811681036123d25790565b3565ffffffffffff811681036123d25790565b604051906128db826125a5565b5f6060836040516128eb8161256e565b83815283602082015281528260208201528160408201520152565b60405190612913826125a5565b815f81525f60208201526129256128ce565b604082015260606129346128ce565b910152565b6001600160a01b03168015612997575f5160206140345f395f51905f5280546001600160a01b0319811683179091556001600160a01b03167f8be0079c531659141344cd1fd0a4f28419497f9722a3daafe3b4186f6b6457e05f80a3565b631e4fbdf760e01b5f525f60045260245ffd5b60ff5f5160206140745f395f51905f5254166129c257565b63d93c066560e01b5f5260045ffd5b5f1981146126245760010190565b5f5160206140345f395f51905f52546001600160a01b031633036129ff57565b63118cdaa760e01b5f523360045260245ffd5b60ff5f5160206140745f395f51905f52541615612a2b57565b638dfc202b60e01b5f5260045ffd5b612a42612867565b50604051612a4f8161253f565b5f815263ffffffff4316602082015265ffffffffffff4216604082015290565b8181029291811591840414171561262457565b9291908051906020810191825170014551231950b75fc4402da1732fc9bebe1982109182612c9a575b505015612c8b5751845551600184015560405190612aee6021836020808201945f86528051918291018484015e81015f838201520301601f1981018452836125c0565b612b2b602b604051809360208201956a600b5981380380925939f360a81b87525180918484015e81015f838201520301601f1981018352826125c0565b51905ff06001600160a01b03811615612c7c576002830180546001600160a01b0319166001600160a01b039092169190911790555f5b600483018054821015612b9f575f90815260208082208301546001600160a01b0316825260038501905260409020805460ff19169055600101612b61565b5050925f5b8451811015612be8576001906001600160a01b03612bc282886127a5565b5116828060a01b03165f526003840160205260405f208260ff1982541617905501612ba4565b5092600482018151916001600160401b03831161255a57600160401b831161255a578154838355808410612c52575b50602001905f5260205f205f5b838110612c35575050505060050155565b82516001600160a01b031681830155602090920191600101612c24565b825f52838060205f20019103905f5b828110612c6f575050612c17565b5f82820155600101612c61565b633011642560e01b5f5260045ffd5b63375f0aab60e11b5f5260045ffd5b612ca49250613f8e565b5f80612aab565b803b905f198201908282116126245760019060405193603e601f19910116840160405282845260208401903c90565b435f19810193929084116126245760ff16438110612d2a57505f925b83811015612d06575b505f925050565b8040828103612d185750600193505050565b15612d25575f1901612cf6565b612cff565b612d349043612617565b92612cf6565b903590601e19813603018212156123d257018035906001600160401b0382116123d257602001918160051b360383136123d257565b90608081016001612d808284612d3a565b90501161321557612d918183612d3a565b9050156131ee57612da191612d3a565b1561279157803590603e19813603018212156123d2570191612dc38380612d3a565b9190928260051b938385046020148415171561262457612de585969495613c2b565b925f945f97601a60fe19853603019501965b888a10156131a6578960051b850135868112156123d2578501612e19816127e7565b6001600160a01b03165f90815260208a905260409020541561005c575f608082016001600160801b03612e4b82613bf6565b16151580613193575b613182575b6001600160a01b03612e6a846127e7565b604051630427a21d60e11b81526020600482015294911691610124850191906001600160801b0390612ee9906001600160a01b03612ea78561246b565b16602489015260208401356044890152612ec360408501613c0a565b151560648901526001600160a01b03612ede6060860161246b565b166084890152613c17565b1660a4860152612efb60a08201613c0a565b151560c486015236819003601e190160c0820135818112156123d2578201602081359101936001600160401b0382116123d25760608202360385136123d257819061010060e48a015252610144870193905f905b8082106131385750505060e0820135908112156123d25701803560208201926001600160401b0382116123d2578160051b9081360385136123d25791879594936023198785030161010488015281845260208085019385010194935f9160fe19813603015b84841061302b5750505050505050602093916001600160801b03848093039316905af19081156123c7575f91612ff9575b50816020916001938a015201990198612df7565b90506020813d8211613023575b81613013602093836125c0565b810103126123d257516001612fe5565b3d9150613006565b919395979850919395601f198482030187528735828112156123d2578301602081013582526001600160a01b036130646040830161246b565b1660208301526060810135603e1936839003018112156123d2578101602081013591906040016001600160401b0383116123d25782360381136123d257829060e060408601528160e08601526101008501375f61010083850101526001600160801b036130d360808301613c17565b16606084015260a0810135608084015260c081013563ffffffff60e01b81168091036123d2578360209361311560e086956101009560a060019a015201613c0a565b151560c0830152601f80199101160101990197019401918a989796959391612fb4565b90919460608060019288358152838060a01b0361315760208b0161246b565b1660208201526001600160801b0361317160408b01613c17565b166040820152019601920190612f4f565b905061318d81613bf6565b90612e59565b506131a060a08401613259565b15612e54565b5094935095509550506020925020910135907fd04cd9af813f6f0b56e9411a6ee6a84eb5ac35a96f0c33d2e3a07d65baa8f4186020604051848152a15f5260205260405f2090565b5050507fc5d2460186f7233c927e7db2dcc703c0e500b653ca82273b7bfad8045d85a47090565b6306d6c38360e01b5f5260045ffd5b903590601e19813603018212156123d257018035906001600160401b0382116123d257602001918160061b360383136123d257565b3580151581036123d25790565b903590605e19813603018212156123d2570190565b9190820180921161262457565b60c0820160016132988285612d3a565b90501161363a576132a98184612d3a565b9050156131ee576132ba9083612d3a565b1561279157803590607e19813603018212156123d2570191606083019060206132e2836128bb565b91019065ffffffffffff806132f6846128bb565b169116101561362b57613308826128bb565b65ffffffffffff80600286015460201c1691161061361c5761334e65ffffffffffff6133476133418261333a876128bb565b1687613c50565b936128bb565b1684613c50565b111561360d576007820154600690920180548435946001600160a01b0394851694604082019391925f916020911660446133948361338c8989613266565b01358b61327b565b604051948593849263095ea7b360e01b84528c600485015260248401525af19081156123c7575f916135d2575b50156135c3575460405163394f179b60e11b81526001600160a01b03909116600482015260248101959095526020818101356044870152856064815f885af19485156123c7575f9561358b575b509061341991613266565b91613423826128bb565b9260405193637fbe95b560e01b85526040600486015260a48501918035601e19823603018112156123d2578101602081359101936001600160401b0382116123d2578160061b360385136123d25760606044890152819052869360c485019392915f5b81811061355357505050836020959365ffffffffffff829484895f96013560648601526134bc604060018060a01b03920161246b565b16608485015216602483015203925af19182156123c7575f9261351d575b506134e4906128bb565b6040519160208301938452604083015265ffffffffffff60d01b9060d01b166060820152604681526135176066826125c0565b51902090565b9091506020813d60201161354b575b81613539602093836125c0565b810103126123d25751906134e46134da565b3d915061352c565b919550919293604080600192838060a01b0361356e8a61246b565b168152602089013560208201520196019101918895949392613486565b919094506020823d6020116135bb575b816135a8602093836125c0565b810103126123d25790519361341961340e565b3d915061359b565b6367b9145160e01b5f5260045ffd5b90506020813d602011613605575b816135ed602093836125c0565b810103126123d2575180151581036123d2575f6133c1565b3d91506135e0565b6308027f7760e31b5f5260045ffd5b637bde91e760e11b5f5260045ffd5b63087a19ab60e41b5f5260045ffd5b633249ceed60e11b5f5260045ffd5b903590601e19813603018212156123d257018035906001600160401b0382116123d2576020019181360383136123d257565b9060e08101600161368c8284612d3a565b9050116139005761369d8183612d3a565b9050156131ee576136ad91612d3a565b1561279157803590609e19813603018212156123d2570160608101906136d38282612d3a565b9050156138f15765ffffffffffff600284015460201c16916136f58342612617565b61370460168601548092612638565b93608084013594600181018091116126245785036138e2576137298561372f93612a6f565b9061327b565b9361373e601782015486612617565b42106138d35761374d90613c78565b9342600586015410156138c4576137a290604084019561379461379c6137738988613649565b919061377f888a612d3a565b94909161378c368c612656565b94369161267e565b9336916126da565b92612a82565b7fa1a3b42179ad30022438a1ea333b38eaf4a7329beee5e2b8111c0dcd4e08821c6020604051858152a160a0823603126123d257604051936137e3856125a5565b6137ed3684612656565b8552356001600160401b0381116123d257820136601f820112156123d25761381c90369060208135910161267e565b602085015235906001600160401b0382116123d2570136601f820112156123d25761384e9036906020813591016126da565b91826040820152816060820152519160208351930151906040519283926020840195865260408401526060830160208351919301905f5b8181106138a25750505081520380825261351790602001826125c0565b82516001600160a01b0316855286955060209485019490920191600101613885565b6333fc8f5160e21b5f5260045ffd5b6372a84ce560e11b5f5260045ffd5b6343d3f5bf60e01b5f5260045ffd5b636c2bf3db60e01b5f5260045ffd5b631d3fc6bf60e21b5f5260045ffd5b909493919365ffffffffffff600283015460201c1661392e4284613c50565b61394661394060168601548093612a6f565b8361327b565b918284108080613b6e575b15613b3c57508310613b2e57613967908361327b565b10613b1f57613977905b82613baf565b94601960f81b5f523060601b60025260165260365f209360028110156123eb5780613a0b575050600181036139fc5715612791576139b8816139bf92613649565b369161267e565b9160608351036139ed578260206139ea94015160606040830151920151926001815491015490613c93565b90565b632ce466bf60e01b5f5260045ffd5b6360a1ea7760e01b5f5260045ffd5b919391600114613a1e5750505050505f90565b613a4390600860048796970154910154906001600160801b038260801c921690613b84565b925f9260035f9201915b86811015613b1457613a7c613a73613a6d6139b88460051b860186613649565b86613ef4565b90929192613f2e565b6001600160a01b0381165f9081526020859052604090205460ff16613aa7575b506001905b01613a4d565b6001600160a01b03165f9081527ff02b465737fa6045c2ff53fb2df43c66916ac2166fa303264668fb2f6a1d8c0060205260409020805c15613aec5750600190613aa1565b946001613afa92965d6129d1565b93858514613b08575f613a9c565b50505050505050600190565b505050505050505f90565b63046bb1e560e51b5f5260045ffd5b62f4462b60e01b5f5260045ffd5b9392915050428211613b5f5761397792613b57575b50613971565b90505f613b51565b6347860b9760e01b5f5260045ffd5b50613b7d60188701548561327b565b4210613951565b6001600160801b03809216029116613b9c8183612638565b9181156126425706156139ea5760010190565b90613bba9082613e94565b15613bc557600f0190565b60090190565b60ff5f5160206140945f395f51905f525460401c1615613be757565b631afcd79f60e31b5f5260045ffd5b356001600160801b03811681036123d25790565b359081151582036123d257565b35906001600160801b03821682036123d257565b6040519190601f01601f191682016001600160401b038111838210176123d257604052565b6016613c6f6139ea9365ffffffffffff600285015460201c1690612617565b91015490612638565b613c824282613e94565b15613c8d5760090190565b600f0190565b9293919490613ca28587613f8e565b15613e35578215613e355770014551231950b75fc4402da1732fc9bebe19831015613e35576001169061010e613cd781613c2b565b9160883684376002600188160160888401538760898401526002840160a984015360aa830186905260ca8301527e300046524f53542d736563703235366b312d4b454343414b3235362d76316360ea8301526303430b6160e51b61010a830152812060cc820181815290600260ec84016001815360428420809318845253604270014551231950b75fc4402da1732fc9bebe19922060801c6001600160401b0360801b8260801b16179070014551231950b75fc4402da1732fc9bebe1990600160c01b9060401c09088015613b145784601b6080945f9660209870014551231950b75fc4402da1732fc9bebe19910970014551231950b75fc4402da1732fc9bebe19038552018684015280604084015270014551231950b75fc4402da1732fc9bebe19910970014551231950b75fc4402da1732fc9bebe1903606082015282805260015afa505f51915f5260205260018060a01b0360405f20161490565b5050505050505f90565b613e476128ce565b5060028101546005820154604051929091613e87916004916001600160a01b0316613e71866125a5565b613e7a826125f9565b865260208601520161272e565b6040830152606082015290565b906014600e830154920154808314613ee557818184109311918215911115918190613ede575b15613ecf5782613ec957505090565b14919050565b634c38ae9560e11b5f5260045ffd5b5081613eba565b63f26224af60e01b5f5260045ffd5b8151919060418303613f2457613f1d9250602082015190606060408401519301515f1a90613fb1565b9192909190565b50505f9160029190565b60048110156123eb5780613f40575050565b60018103613f575763f645eedf60e01b5f5260045ffd5b60028103613f72575063fce698f760e01b5f5260045260245ffd5b600314613f7c5750565b6335e2f38360e21b5f5260045260245ffd5b6401000003d01990600790829081818009900908906401000003d0199080091490565b91907f7fffffffffffffffffffffffffffffff5d576e7357a4501ddfe92f46681b20a08411614028579160209360809260ff5f9560405194855216868401526040830152606082015282805260015afa156123c7575f516001600160a01b0381161561401e57905f905f90565b505f906001905f90565b5050505f916003919056fe9016d09d72d40fdae2fd8ceac6b6234c7706214fd39c1cd1e609a0528c1993005c09ca1b9b8127a4fd9f3c384aac59b661441e820e17733753ff5f2e86e1e000cd5ed15c6e187e77e9aee88184c21f4f2182ab5827cb3b7e07fbedcd63f03300f0c57e16840df040f15088dc2f81fe391c3923bec73e23a9662efc9c229c6a00f0c57e16840df040f15088dc2f81fe391c3923bec73e23a9662efc9c229c6a00","linkReferences":{}},"methodIdentifiers":{"areValidators(address[])":"8f381dbe","codeState(bytes32)":"c13911e8","codesStates(bytes32[])":"82bdeaad","commitBatch((bytes32,uint48,bytes32,uint8,((address,bytes32,bool,address,uint128,bool,(bytes32,address,uint128)[],(bytes32,address,bytes,uint128,(bytes32,bytes4),bool)[])[],bytes32)[],(bytes32,bool)[],((uint256,bytes32),((address,uint256)[],uint256,address),uint48)[],((uint256,uint256),bytes,address[],uint256)[]),uint8,bytes[])":"b24fcac0","computeSettings()":"84d22a4f","createProgram(bytes32,bytes32,address)":"3683c4d2","createProgramWithAbiInterface(bytes32,bytes32,address,address)":"0c18d277","genesisBlockHash()":"28e24b3d","genesisTimestamp()":"cacf66ab","initialize(address,address,address,address,uint256,uint256,uint256,(uint256,uint256),bytes,address[])":"53f7fd48","isValidator(address)":"facd743b","latestCommittedBatchHash()":"71a8cf2d","latestCommittedBatchTimestamp()":"d456fd51","lookupGenesisHash()":"8b1edf1e","middleware()":"f4f20ac0","mirrorImpl()":"e6fabc09","owner()":"8da5cb5b","pause()":"8456cb59","paused()":"5c975abb","programCodeId(address)":"9067088e","programsCodeIds(address[])":"baaf0201","programsCount()":"96a2ddfa","reinitialize()":"6c2eb350","renounceOwnership()":"715018a6","requestCodeValidation(bytes32)":"120e3f1e","setMirror(address)":"3d43b418","signingThresholdFraction()":"e3a6684f","storageView()":"c2eb812f","timelines()":"9eb939a8","transferOwnership(address)":"f2fde38b","unpause()":"3f4ba83a","validatedCodesCount()":"007a32e7","validators()":"ca1e7819","validatorsAggregatedPublicKey()":"3bd109fa","validatorsCount()":"ed612f8c","validatorsThreshold()":"edc87225","validatorsVerifiableSecretSharingCommitment()":"a5d53a44","wrappedVara()":"88f50cf0"},"storageLayout":{"storage":[],"types":{}},"id":160}