{"abi":[{"type":"constructor","inputs":[],"stateMutability":"nonpayable"},{"type":"receive","stateMutability":"payable"},{"type":"function","name":"DOMAIN_SEPARATOR","inputs":[],"outputs":[{"name":"","type":"bytes32","internalType":"bytes32"}],"stateMutability":"view"},{"type":"function","name":"UPGRADE_INTERFACE_VERSION","inputs":[],"outputs":[{"name":"","type":"string","internalType":"string"}],"stateMutability":"view"},{"type":"function","name":"areValidators","inputs":[{"name":"_validators","type":"address[]","internalType":"address[]"}],"outputs":[{"name":"","type":"bool","internalType":"bool"}],"stateMutability":"view"},{"type":"function","name":"bumpProtocolVersion","inputs":[{"name":"_versionType","type":"uint8","internalType":"enum Gear.VersionType"}],"outputs":[],"stateMutability":"nonpayable"},{"type":"function","name":"codeState","inputs":[{"name":"_codeId","type":"bytes32","internalType":"bytes32"}],"outputs":[{"name":"","type":"uint8","internalType":"enum Gear.CodeState"}],"stateMutability":"view"},{"type":"function","name":"codesStates","inputs":[{"name":"_codesIds","type":"bytes32[]","internalType":"bytes32[]"}],"outputs":[{"name":"","type":"uint8[]","internalType":"enum Gear.CodeState[]"}],"stateMutability":"view"},{"type":"function","name":"commitBatch","inputs":[{"name":"_batch","type":"tuple","internalType":"struct Gear.BatchCommitment","components":[{"name":"blockHash","type":"bytes32","internalType":"bytes32"},{"name":"blockTimestamp","type":"uint48","internalType":"uint48"},{"name":"previousCommittedBatchHash","type":"bytes32","internalType":"bytes32"},{"name":"expiry","type":"uint8","internalType":"uint8"},{"name":"chainCommitment","type":"tuple[]","internalType":"struct Gear.ChainCommitment[]","components":[{"name":"transitions","type":"tuple[]","internalType":"struct Gear.StateTransition[]","components":[{"name":"actorId","type":"address","internalType":"address"},{"name":"newStateHash","type":"bytes32","internalType":"bytes32"},{"name":"exited","type":"bool","internalType":"bool"},{"name":"inheritor","type":"address","internalType":"address"},{"name":"valueToReceive","type":"uint128","internalType":"uint128"},{"name":"valueToReceiveNegativeSign","type":"bool","internalType":"bool"},{"name":"valueClaims","type":"tuple[]","internalType":"struct Gear.ValueClaim[]","components":[{"name":"messageId","type":"bytes32","internalType":"bytes32"},{"name":"destination","type":"address","internalType":"address"},{"name":"value","type":"uint128","internalType":"uint128"}]},{"name":"messages","type":"tuple[]","internalType":"struct Gear.Message[]","components":[{"name":"id","type":"bytes32","internalType":"bytes32"},{"name":"destination","type":"address","internalType":"address"},{"name":"payload","type":"bytes","internalType":"bytes"},{"name":"value","type":"uint128","internalType":"uint128"},{"name":"replyDetails","type":"tuple","internalType":"struct Gear.ReplyDetails","components":[{"name":"to","type":"bytes32","internalType":"bytes32"},{"name":"code","type":"bytes4","internalType":"bytes4"}]},{"name":"call","type":"bool","internalType":"bool"}]},{"name":"events","type":"bytes[]","internalType":"bytes[]"},{"name":"ethEvents","type":"bytes[]","internalType":"bytes[]"}]},{"name":"head","type":"bytes32","internalType":"bytes32"},{"name":"lastAdvancedEthBlock","type":"bytes32","internalType":"bytes32"}]},{"name":"codeCommitments","type":"tuple[]","internalType":"struct Gear.CodeCommitment[]","components":[{"name":"id","type":"bytes32","internalType":"bytes32"},{"name":"valid","type":"bool","internalType":"bool"}]},{"name":"rewardsCommitment","type":"tuple[]","internalType":"struct Gear.RewardsCommitment[]","components":[{"name":"operators","type":"tuple","internalType":"struct Gear.OperatorRewardsCommitment","components":[{"name":"amount","type":"uint256","internalType":"uint256"},{"name":"root","type":"bytes32","internalType":"bytes32"}]},{"name":"stakers","type":"tuple","internalType":"struct Gear.StakerRewardsCommitment","components":[{"name":"distribution","type":"tuple[]","internalType":"struct Gear.StakerRewards[]","components":[{"name":"vault","type":"address","internalType":"address"},{"name":"amount","type":"uint256","internalType":"uint256"}]},{"name":"totalAmount","type":"uint256","internalType":"uint256"},{"name":"token","type":"address","internalType":"address"}]},{"name":"timestamp","type":"uint48","internalType":"uint48"}]},{"name":"validatorsCommitment","type":"tuple[]","internalType":"struct Gear.ValidatorsCommitment[]","components":[{"name":"hasAggregatedPublicKey","type":"bool","internalType":"bool"},{"name":"aggregatedPublicKey","type":"tuple","internalType":"struct Gear.AggregatedPublicKey","components":[{"name":"x","type":"uint256","internalType":"uint256"},{"name":"y","type":"uint256","internalType":"uint256"}]},{"name":"verifiableSecretSharingCommitment","type":"bytes","internalType":"bytes"},{"name":"validators","type":"address[]","internalType":"address[]"},{"name":"eraIndex","type":"uint256","internalType":"uint256"}]}]},{"name":"_signatureType","type":"uint8","internalType":"enum Gear.SignatureType"},{"name":"_signatures","type":"bytes[]","internalType":"bytes[]"}],"outputs":[],"stateMutability":"nonpayable"},{"type":"function","name":"computeSettings","inputs":[],"outputs":[{"name":"","type":"tuple","internalType":"struct Gear.ComputationSettings","components":[{"name":"threshold","type":"uint64","internalType":"uint64"},{"name":"wvaraPerSecond","type":"uint128","internalType":"uint128"}]}],"stateMutability":"view"},{"type":"function","name":"createProgram","inputs":[{"name":"_codeId","type":"bytes32","internalType":"bytes32"},{"name":"_salt","type":"bytes32","internalType":"bytes32"},{"name":"_overrideInitializer","type":"address","internalType":"address"}],"outputs":[{"name":"","type":"address","internalType":"address"}],"stateMutability":"nonpayable"},{"type":"function","name":"createProgramWithAbiInterface","inputs":[{"name":"_codeId","type":"bytes32","internalType":"bytes32"},{"name":"_salt","type":"bytes32","internalType":"bytes32"},{"name":"_overrideInitializer","type":"address","internalType":"address"},{"name":"_abiInterface","type":"address","internalType":"address"}],"outputs":[{"name":"","type":"address","internalType":"address"}],"stateMutability":"nonpayable"},{"type":"function","name":"createProgramWithAbiInterfaceAndExecutableBalance","inputs":[{"name":"_codeId","type":"bytes32","internalType":"bytes32"},{"name":"_salt","type":"bytes32","internalType":"bytes32"},{"name":"_overrideInitializer","type":"address","internalType":"address"},{"name":"_abiInterface","type":"address","internalType":"address"},{"name":"_initialExecutableBalance","type":"uint128","internalType":"uint128"},{"name":"_deadline","type":"uint256","internalType":"uint256"},{"name":"_v","type":"uint8","internalType":"uint8"},{"name":"_r","type":"bytes32","internalType":"bytes32"},{"name":"_s","type":"bytes32","internalType":"bytes32"}],"outputs":[{"name":"","type":"address","internalType":"address"}],"stateMutability":"nonpayable"},{"type":"function","name":"createProgramWithExecutableBalance","inputs":[{"name":"_codeId","type":"bytes32","internalType":"bytes32"},{"name":"_salt","type":"bytes32","internalType":"bytes32"},{"name":"_overrideInitializer","type":"address","internalType":"address"},{"name":"_initialExecutableBalance","type":"uint128","internalType":"uint128"},{"name":"_deadline","type":"uint256","internalType":"uint256"},{"name":"_v","type":"uint8","internalType":"uint8"},{"name":"_r","type":"bytes32","internalType":"bytes32"},{"name":"_s","type":"bytes32","internalType":"bytes32"}],"outputs":[{"name":"","type":"address","internalType":"address"}],"stateMutability":"nonpayable"},{"type":"function","name":"eip712Domain","inputs":[],"outputs":[{"name":"fields","type":"bytes1","internalType":"bytes1"},{"name":"name","type":"string","internalType":"string"},{"name":"version","type":"string","internalType":"string"},{"name":"chainId","type":"uint256","internalType":"uint256"},{"name":"verifyingContract","type":"address","internalType":"address"},{"name":"salt","type":"bytes32","internalType":"bytes32"},{"name":"extensions","type":"uint256[]","internalType":"uint256[]"}],"stateMutability":"view"},{"type":"function","name":"genesisBlockHash","inputs":[],"outputs":[{"name":"","type":"bytes32","internalType":"bytes32"}],"stateMutability":"view"},{"type":"function","name":"genesisTimestamp","inputs":[],"outputs":[{"name":"","type":"uint48","internalType":"uint48"}],"stateMutability":"view"},{"type":"function","name":"initialize","inputs":[{"name":"_owner","type":"address","internalType":"address"},{"name":"_mirror","type":"address","internalType":"address"},{"name":"_wrappedVara","type":"address","internalType":"address"},{"name":"_middleware","type":"address","internalType":"address"},{"name":"_eraDuration","type":"uint256","internalType":"uint256"},{"name":"_electionDuration","type":"uint256","internalType":"uint256"},{"name":"_validationDelay","type":"uint256","internalType":"uint256"},{"name":"_aggregatedPublicKey","type":"tuple","internalType":"struct Gear.AggregatedPublicKey","components":[{"name":"x","type":"uint256","internalType":"uint256"},{"name":"y","type":"uint256","internalType":"uint256"}]},{"name":"_verifiableSecretSharingCommitment","type":"bytes","internalType":"bytes"},{"name":"_validators","type":"address[]","internalType":"address[]"}],"outputs":[],"stateMutability":"nonpayable"},{"type":"function","name":"isValidator","inputs":[{"name":"_validator","type":"address","internalType":"address"}],"outputs":[{"name":"","type":"bool","internalType":"bool"}],"stateMutability":"view"},{"type":"function","name":"latestCommittedBatchHash","inputs":[],"outputs":[{"name":"","type":"bytes32","internalType":"bytes32"}],"stateMutability":"view"},{"type":"function","name":"latestCommittedBatchTimestamp","inputs":[],"outputs":[{"name":"","type":"uint48","internalType":"uint48"}],"stateMutability":"view"},{"type":"function","name":"lookupGenesisHash","inputs":[],"outputs":[],"stateMutability":"nonpayable"},{"type":"function","name":"middleware","inputs":[],"outputs":[{"name":"","type":"address","internalType":"address"}],"stateMutability":"view"},{"type":"function","name":"mirrorImpl","inputs":[],"outputs":[{"name":"","type":"address","internalType":"address"}],"stateMutability":"view"},{"type":"function","name":"nonces","inputs":[{"name":"owner","type":"address","internalType":"address"}],"outputs":[{"name":"","type":"uint256","internalType":"uint256"}],"stateMutability":"view"},{"type":"function","name":"owner","inputs":[],"outputs":[{"name":"","type":"address","internalType":"address"}],"stateMutability":"view"},{"type":"function","name":"pause","inputs":[],"outputs":[],"stateMutability":"nonpayable"},{"type":"function","name":"paused","inputs":[],"outputs":[{"name":"","type":"bool","internalType":"bool"}],"stateMutability":"view"},{"type":"function","name":"programCodeId","inputs":[{"name":"_programId","type":"address","internalType":"address"}],"outputs":[{"name":"","type":"bytes32","internalType":"bytes32"}],"stateMutability":"view"},{"type":"function","name":"programsCodeIds","inputs":[{"name":"_programsIds","type":"address[]","internalType":"address[]"}],"outputs":[{"name":"","type":"bytes32[]","internalType":"bytes32[]"}],"stateMutability":"view"},{"type":"function","name":"programsCount","inputs":[],"outputs":[{"name":"","type":"uint256","internalType":"uint256"}],"stateMutability":"view"},{"type":"function","name":"protocolVersion","inputs":[],"outputs":[{"name":"","type":"uint256","internalType":"uint256"}],"stateMutability":"view"},{"type":"function","name":"proxiableUUID","inputs":[],"outputs":[{"name":"","type":"bytes32","internalType":"bytes32"}],"stateMutability":"view"},{"type":"function","name":"reinitialize","inputs":[],"outputs":[],"stateMutability":"nonpayable"},{"type":"function","name":"renounceOwnership","inputs":[],"outputs":[],"stateMutability":"nonpayable"},{"type":"function","name":"requestCodeValidation","inputs":[{"name":"_codeId","type":"bytes32","internalType":"bytes32"},{"name":"_deadline","type":"uint256","internalType":"uint256"},{"name":"_v","type":"uint8","internalType":"uint8"},{"name":"_r","type":"bytes32","internalType":"bytes32"},{"name":"_s","type":"bytes32","internalType":"bytes32"}],"outputs":[],"stateMutability":"nonpayable"},{"type":"function","name":"requestCodeValidationBaseFee","inputs":[],"outputs":[{"name":"","type":"uint256","internalType":"uint256"}],"stateMutability":"view"},{"type":"function","name":"requestCodeValidationExtraFee","inputs":[],"outputs":[{"name":"","type":"uint256","internalType":"uint256"}],"stateMutability":"view"},{"type":"function","name":"requestCodeValidationOnBehalf","inputs":[{"name":"_requester","type":"address","internalType":"address"},{"name":"_codeId","type":"bytes32","internalType":"bytes32"},{"name":"_blobHashes","type":"bytes32[]","internalType":"bytes32[]"},{"name":"_deadline","type":"uint256","internalType":"uint256"},{"name":"_v1","type":"uint8","internalType":"uint8"},{"name":"_r1","type":"bytes32","internalType":"bytes32"},{"name":"_s1","type":"bytes32","internalType":"bytes32"},{"name":"_v2","type":"uint8","internalType":"uint8"},{"name":"_r2","type":"bytes32","internalType":"bytes32"},{"name":"_s2","type":"bytes32","internalType":"bytes32"}],"outputs":[],"stateMutability":"nonpayable"},{"type":"function","name":"setMirror","inputs":[{"name":"newMirror","type":"address","internalType":"address"}],"outputs":[],"stateMutability":"nonpayable"},{"type":"function","name":"setRequestCodeValidationBaseFee","inputs":[{"name":"newBaseFee","type":"uint256","internalType":"uint256"}],"outputs":[],"stateMutability":"nonpayable"},{"type":"function","name":"setRequestCodeValidationExtraFee","inputs":[{"name":"newExtraFee","type":"uint256","internalType":"uint256"}],"outputs":[],"stateMutability":"nonpayable"},{"type":"function","name":"signingThresholdFraction","inputs":[],"outputs":[{"name":"thresholdNumerator","type":"uint128","internalType":"uint128"},{"name":"thresholdDenominator","type":"uint128","internalType":"uint128"}],"stateMutability":"view"},{"type":"function","name":"storageView","inputs":[],"outputs":[{"name":"","type":"tuple","internalType":"struct IRouter.StorageView","components":[{"name":"genesisBlock","type":"tuple","internalType":"struct Gear.GenesisBlockInfo","components":[{"name":"hash","type":"bytes32","internalType":"bytes32"},{"name":"number","type":"uint32","internalType":"uint32"},{"name":"timestamp","type":"uint48","internalType":"uint48"}]},{"name":"latestCommittedBatch","type":"tuple","internalType":"struct Gear.CommittedBatchInfo","components":[{"name":"hash","type":"bytes32","internalType":"bytes32"},{"name":"timestamp","type":"uint48","internalType":"uint48"}]},{"name":"implAddresses","type":"tuple","internalType":"struct Gear.AddressBook","components":[{"name":"mirror","type":"address","internalType":"address"},{"name":"wrappedVara","type":"address","internalType":"address"},{"name":"middleware","type":"address","internalType":"address"}]},{"name":"validationSettings","type":"tuple","internalType":"struct Gear.ValidationSettingsView","components":[{"name":"thresholdNumerator","type":"uint128","internalType":"uint128"},{"name":"thresholdDenominator","type":"uint128","internalType":"uint128"},{"name":"validators0","type":"tuple","internalType":"struct Gear.ValidatorsView","components":[{"name":"aggregatedPublicKey","type":"tuple","internalType":"struct Gear.AggregatedPublicKey","components":[{"name":"x","type":"uint256","internalType":"uint256"},{"name":"y","type":"uint256","internalType":"uint256"}]},{"name":"verifiableSecretSharingCommitmentPointer","type":"address","internalType":"address"},{"name":"list","type":"address[]","internalType":"address[]"},{"name":"useFromTimestamp","type":"uint256","internalType":"uint256"}]},{"name":"validators1","type":"tuple","internalType":"struct Gear.ValidatorsView","components":[{"name":"aggregatedPublicKey","type":"tuple","internalType":"struct Gear.AggregatedPublicKey","components":[{"name":"x","type":"uint256","internalType":"uint256"},{"name":"y","type":"uint256","internalType":"uint256"}]},{"name":"verifiableSecretSharingCommitmentPointer","type":"address","internalType":"address"},{"name":"list","type":"address[]","internalType":"address[]"},{"name":"useFromTimestamp","type":"uint256","internalType":"uint256"}]}]},{"name":"computeSettings","type":"tuple","internalType":"struct Gear.ComputationSettings","components":[{"name":"threshold","type":"uint64","internalType":"uint64"},{"name":"wvaraPerSecond","type":"uint128","internalType":"uint128"}]},{"name":"timelines","type":"tuple","internalType":"struct Gear.Timelines","components":[{"name":"era","type":"uint256","internalType":"uint256"},{"name":"election","type":"uint256","internalType":"uint256"},{"name":"validationDelay","type":"uint256","internalType":"uint256"}]},{"name":"programsCount","type":"uint256","internalType":"uint256"},{"name":"validatedCodesCount","type":"uint256","internalType":"uint256"},{"name":"maxValidators","type":"uint16","internalType":"uint16"},{"name":"requestCodeValidationBaseFee","type":"uint256","internalType":"uint256"},{"name":"requestCodeValidationExtraFee","type":"uint256","internalType":"uint256"},{"name":"protocolVersion","type":"uint256","internalType":"uint256"}]}],"stateMutability":"view"},{"type":"function","name":"subProtocolVersion","inputs":[{"name":"versionType","type":"uint8","internalType":"enum Gear.VersionType"}],"outputs":[{"name":"","type":"uint256","internalType":"uint256"}],"stateMutability":"view"},{"type":"function","name":"timelines","inputs":[],"outputs":[{"name":"","type":"tuple","internalType":"struct Gear.Timelines","components":[{"name":"era","type":"uint256","internalType":"uint256"},{"name":"election","type":"uint256","internalType":"uint256"},{"name":"validationDelay","type":"uint256","internalType":"uint256"}]}],"stateMutability":"view"},{"type":"function","name":"transferOwnership","inputs":[{"name":"newOwner","type":"address","internalType":"address"}],"outputs":[],"stateMutability":"nonpayable"},{"type":"function","name":"unpause","inputs":[],"outputs":[],"stateMutability":"nonpayable"},{"type":"function","name":"upgradeToAndCall","inputs":[{"name":"newImplementation","type":"address","internalType":"address"},{"name":"data","type":"bytes","internalType":"bytes"}],"outputs":[],"stateMutability":"payable"},{"type":"function","name":"validatedCodesCount","inputs":[],"outputs":[{"name":"","type":"uint256","internalType":"uint256"}],"stateMutability":"view"},{"type":"function","name":"validators","inputs":[],"outputs":[{"name":"","type":"address[]","internalType":"address[]"}],"stateMutability":"view"},{"type":"function","name":"validatorsAggregatedPublicKey","inputs":[],"outputs":[{"name":"","type":"tuple","internalType":"struct Gear.AggregatedPublicKey","components":[{"name":"x","type":"uint256","internalType":"uint256"},{"name":"y","type":"uint256","internalType":"uint256"}]}],"stateMutability":"view"},{"type":"function","name":"validatorsCount","inputs":[],"outputs":[{"name":"","type":"uint256","internalType":"uint256"}],"stateMutability":"view"},{"type":"function","name":"validatorsThreshold","inputs":[],"outputs":[{"name":"","type":"uint256","internalType":"uint256"}],"stateMutability":"view"},{"type":"function","name":"validatorsVerifiableSecretSharingCommitment","inputs":[],"outputs":[{"name":"","type":"bytes","internalType":"bytes"}],"stateMutability":"view"},{"type":"function","name":"wrappedVara","inputs":[],"outputs":[{"name":"","type":"address","internalType":"address"}],"stateMutability":"view"},{"type":"event","name":"BatchCommitted","inputs":[{"name":"hash","type":"bytes32","indexed":false,"internalType":"bytes32"}],"anonymous":false},{"type":"event","name":"CodeGotValidated","inputs":[{"name":"codeId","type":"bytes32","indexed":false,"internalType":"bytes32"},{"name":"valid","type":"bool","indexed":true,"internalType":"bool"}],"anonymous":false},{"type":"event","name":"CodeValidationRequested","inputs":[{"name":"codeId","type":"bytes32","indexed":false,"internalType":"bytes32"}],"anonymous":false},{"type":"event","name":"ComputationSettingsChanged","inputs":[{"name":"threshold","type":"uint64","indexed":false,"internalType":"uint64"},{"name":"wvaraPerSecond","type":"uint128","indexed":false,"internalType":"uint128"}],"anonymous":false},{"type":"event","name":"EBCommitted","inputs":[{"name":"ethBlockHash","type":"bytes32","indexed":false,"internalType":"bytes32"}],"anonymous":false},{"type":"event","name":"EIP712DomainChanged","inputs":[],"anonymous":false},{"type":"event","name":"Initialized","inputs":[{"name":"version","type":"uint64","indexed":false,"internalType":"uint64"}],"anonymous":false},{"type":"event","name":"MBCommitted","inputs":[{"name":"head","type":"bytes32","indexed":false,"internalType":"bytes32"}],"anonymous":false},{"type":"event","name":"OwnershipTransferred","inputs":[{"name":"previousOwner","type":"address","indexed":true,"internalType":"address"},{"name":"newOwner","type":"address","indexed":true,"internalType":"address"}],"anonymous":false},{"type":"event","name":"Paused","inputs":[{"name":"account","type":"address","indexed":false,"internalType":"address"}],"anonymous":false},{"type":"event","name":"ProgramCreated","inputs":[{"name":"actorId","type":"address","indexed":false,"internalType":"address"},{"name":"codeId","type":"bytes32","indexed":true,"internalType":"bytes32"}],"anonymous":false},{"type":"event","name":"ProtocolVersionChanged","inputs":[{"name":"newProtocolVersion","type":"uint256","indexed":false,"internalType":"uint256"}],"anonymous":false},{"type":"event","name":"StorageSlotChanged","inputs":[{"name":"slot","type":"bytes32","indexed":false,"internalType":"bytes32"}],"anonymous":false},{"type":"event","name":"Unpaused","inputs":[{"name":"account","type":"address","indexed":false,"internalType":"address"}],"anonymous":false},{"type":"event","name":"Upgraded","inputs":[{"name":"implementation","type":"address","indexed":true,"internalType":"address"}],"anonymous":false},{"type":"event","name":"ValidatorsCommittedForEra","inputs":[{"name":"eraIndex","type":"uint256","indexed":false,"internalType":"uint256"}],"anonymous":false},{"type":"error","name":"AddressEmptyCode","inputs":[{"name":"target","type":"address","internalType":"address"}]},{"type":"error","name":"ApproveERC20Failed","inputs":[]},{"type":"error","name":"BatchTimestampNotInPast","inputs":[]},{"type":"error","name":"BatchTimestampTooEarly","inputs":[]},{"type":"error","name":"BlobNotFound","inputs":[]},{"type":"error","name":"CodeAlreadyOnValidationOrValidated","inputs":[]},{"type":"error","name":"CodeNotValidated","inputs":[]},{"type":"error","name":"CodeValidationNotRequested","inputs":[]},{"type":"error","name":"CommitmentEraNotNext","inputs":[]},{"type":"error","name":"ECDSAInvalidSignature","inputs":[]},{"type":"error","name":"ECDSAInvalidSignatureLength","inputs":[{"name":"length","type":"uint256","internalType":"uint256"}]},{"type":"error","name":"ECDSAInvalidSignatureS","inputs":[{"name":"s","type":"bytes32","internalType":"bytes32"}]},{"type":"error","name":"ERC1967InvalidImplementation","inputs":[{"name":"implementation","type":"address","internalType":"address"}]},{"type":"error","name":"ERC1967NonPayable","inputs":[]},{"type":"error","name":"ElectionNotStarted","inputs":[]},{"type":"error","name":"EmptyValidatorsList","inputs":[]},{"type":"error","name":"EnforcedPause","inputs":[]},{"type":"error","name":"EraDurationTooShort","inputs":[]},{"type":"error","name":"ErasTimestampMustNotBeEqual","inputs":[]},{"type":"error","name":"ExpectedPause","inputs":[]},{"type":"error","name":"ExpiredSignature","inputs":[{"name":"deadline","type":"uint256","internalType":"uint256"}]},{"type":"error","name":"FailedCall","inputs":[]},{"type":"error","name":"GenesisHashAlreadySet","inputs":[]},{"type":"error","name":"GenesisHashNotFound","inputs":[]},{"type":"error","name":"InvalidAccountNonce","inputs":[{"name":"account","type":"address","internalType":"address"},{"name":"currentNonce","type":"uint256","internalType":"uint256"}]},{"type":"error","name":"InvalidBlobHash","inputs":[{"name":"index","type":"uint256","internalType":"uint256"},{"name":"providedBlobHash","type":"bytes32","internalType":"bytes32"},{"name":"expectedBlobHash","type":"bytes32","internalType":"bytes32"}]},{"type":"error","name":"InvalidBlobHashesLength","inputs":[{"name":"providedLength","type":"uint256","internalType":"uint256"},{"name":"expectedLength","type":"uint256","internalType":"uint256"}]},{"type":"error","name":"InvalidElectionDuration","inputs":[]},{"type":"error","name":"InvalidFROSTAggregatedPublicKey","inputs":[]},{"type":"error","name":"InvalidFrostSignatureCount","inputs":[]},{"type":"error","name":"InvalidFrostSignatureLength","inputs":[]},{"type":"error","name":"InvalidInitialization","inputs":[]},{"type":"error","name":"InvalidPreviousCommittedBatchHash","inputs":[]},{"type":"error","name":"InvalidSigner","inputs":[{"name":"signer","type":"address","internalType":"address"},{"name":"requester","type":"address","internalType":"address"}]},{"type":"error","name":"InvalidTimestamp","inputs":[]},{"type":"error","name":"NotInitializing","inputs":[]},{"type":"error","name":"OwnableInvalidOwner","inputs":[{"name":"owner","type":"address","internalType":"address"}]},{"type":"error","name":"OwnableUnauthorizedAccount","inputs":[{"name":"account","type":"address","internalType":"address"}]},{"type":"error","name":"PredecessorBlockNotFound","inputs":[]},{"type":"error","name":"ReentrancyGuardReentrantCall","inputs":[]},{"type":"error","name":"RewardsCommitmentEraNotPrevious","inputs":[]},{"type":"error","name":"RewardsCommitmentPredatesGenesis","inputs":[]},{"type":"error","name":"RewardsCommitmentTimestampNotInPast","inputs":[]},{"type":"error","name":"RouterGenesisHashNotInitialized","inputs":[]},{"type":"error","name":"SafeCastOverflowedUintDowncast","inputs":[{"name":"bits","type":"uint8","internalType":"uint8"},{"name":"value","type":"uint256","internalType":"uint256"}]},{"type":"error","name":"SignatureVerificationFailed","inputs":[]},{"type":"error","name":"TimestampInFuture","inputs":[]},{"type":"error","name":"TimestampOlderThanPreviousEra","inputs":[]},{"type":"error","name":"TooManyChainCommitments","inputs":[]},{"type":"error","name":"TooManyRewardsCommitments","inputs":[]},{"type":"error","name":"TooManyValidatorsCommitments","inputs":[]},{"type":"error","name":"TransferFromFailed","inputs":[]},{"type":"error","name":"UUPSUnauthorizedCallContext","inputs":[]},{"type":"error","name":"UUPSUnsupportedProxiableUUID","inputs":[{"name":"slot","type":"bytes32","internalType":"bytes32"}]},{"type":"error","name":"UnknownProgram","inputs":[]},{"type":"error","name":"ValidationBeforeGenesis","inputs":[]},{"type":"error","name":"ValidationDelayTooBig","inputs":[]},{"type":"error","name":"ValidatorsAlreadyScheduled","inputs":[]},{"type":"error","name":"ValidatorsNotFoundForTimestamp","inputs":[]},{"type":"error","name":"ZeroValueTransfer","inputs":[]}],"bytecode":{"object":"0x60a080604052346100c257306080525f516020615d565f395f51905f525460ff8160401c166100b3576002600160401b03196001600160401b03821601610060575b604051615c8f90816100c78239608051818181612d6e0152612e020152f35b6001600160401b0319166001600160401b039081175f516020615d565f395f51905f525581527fc7f505b2f371ae2175ee4913f4499e1f2633a7b5936321eed1cdaeb6115181d290602090a15f80610041565b63f92ee8a960e01b5f5260045ffd5b5f80fdfe6080806040526004361015610091575b50361561001a575f80fd5b610022613cb0565b5f516020615c2f5f395f51905f5254600181015415610082576001600160801b0334161561007357335f908152601a9190910160205260409020541561006457005b63821a62f560e01b5f5260045ffd5b63a1a7c6eb60e01b5f5260045ffd5b63580683f360e01b5f5260045ffd5b5f905f3560e01c9081627a32e71461351d575080630b9737ce146134ea5780630c18d2771461341f5780630d91bf2a1461325157806311bec80d1461321e578063188509e9146131f057806328e24b3d146131c25780632ae9c600146131955780633644e5151461317a5780633683c4d2146130bd5780633bd109fa1461306e5780633d43b4181461301a5780633f4ba83a14612f9a5780634f1ef28614612dc257806352d1902d14612d5b57806353f7fd48146123aa5780635734c0e11461226a5780635c975abb1461223b5780636c2eb35014611ce4578063715018a614611c7b57806371a8cf2d14611c4d5780637ecebe0014611bf557806382bdeaad14611aee5780638456cb5914611a7b57806384b0196e146119c157806384d22a4f1461196357806388f50cf01461192a5780638b1edf1e146118cb5780638c4ace6a1461177f5780638da5cb5b1461174a5780638f381dbe146117045780639067088e146116bb57806396a2ddfa1461168d5780639eb939a814611634578063a5d53a44146115b4578063ad3cb1cc1461156b578063baaf02011461146e578063c13911e814611428578063c2eb812f14611084578063ca1e781914611034578063cacf66ab14610ffc578063d456fd5114610fc6578063e3a6684f14610f87578063e6fabc0914610f4e578063e9a28a6014610ab9578063ed01826214610a8f578063ed612f8c14610a57578063edc8722514610a02578063ee32004f1461081c578063f0fd702a146103d8578063f1ef31ec146103aa578063f2fde38b1461037d578063f4f20ac0146103445763facd743b0361000f573461034157602036600319011261034157610303613573565b600361031e5f516020615c2f5f395f51905f525442906155db565b019060018060a01b03165f52602052602060ff60405f2054166040519015158152f35b80fd5b50346103415780600319360112610341575f516020615c2f5f395f51905f5254600701546040516001600160a01b039091168152602090f35b5034610341576020366003190112610341576103a761039a613573565b6103a2613c7d565b613c0c565b80f35b50346103415780600319360112610341576020601f5f516020615c2f5f395f51905f52540154604051908152f35b503461034157610140366003190112610341576103f3613573565b602435906044356001600160401b038111610818576104169036906004016136b6565b90916064359060843560ff811681036108145760e4359060ff821682036108105761043f613cb0565b874915610801575f516020615c2f5f395f51905f5254946001860154156107f2576019860196888a528760205260ff60408b20541661047d816136e6565b6107e357895b80496107d5578083036107be5750895b82811061077757508542116107635760405160208101906001600160fb1b03841161075f576104de6020826105a9956105b29760051b8091873781010301601f198101835282613632565b5190209260018060a01b03861693848c527f5ab42ced628888259c08ac98db1eb0cf702fc1501344311d8b100cd1bfe4bb0060205260408c208054906001820190556040519060208201927f375d2ef9b9e33c640a295f53873dc74833c3d019f349464ce2fe8899962b809784528760408401528d6060840152608083015260a08201528860c082015260c0815261057760e082613632565b51902061058261556c565b906040519161190160f01b83526002830152602282015260c43591604260a4359220615983565b90929192615a05565b6001600160a01b031681810361074a57505086906105e760018060a01b0360068701541695601f601e8201549101549061399e565b93853b156107465760405163d505accf60e01b81526001600160a01b038516600482015230602482015260448101869052606481019190915260ff9190911660848201526101043560a48201526101243560c4820152818160e48183895af1610729575b506040516323b872dd60e01b81526001600160a01b039092166004830152306024830152604482019290925291602091839190829081606481015b03925af190811561071e5784916106ef575b50156106e05781835260209081526040808420805460ff19166001179055519182527f5c261a095dd5720475295dc06379921c003c22164ee6cae5cf83e76ce0a1b98591a180f35b631e4e7d0960e21b8352600483fd5b610711915060203d602011610717575b6107098183613632565b8101906137f5565b5f610698565b503d6106ff565b6040513d86823e3d90fd5b8161073691949394613632565b6107425790855f61064b565b8580fd5b8280fd5b637ba5ffb560e01b8952600452602452604487fd5b8b80fd5b632f4aa44f60e21b8a52600486905260248afd5b8049806107858386866139ab565b35146107928386866139ab565b3590156107a3575050600101610493565b606493508c926306f2f0e760e21b8452600452602452604452fd5b635cfa404d60e11b8b52600483905260245260448afd5b6107de90613bfe565b610483565b6304c51a3360e31b8a5260048afd5b63580683f360e01b8952600489fd5b637bb2fa2f60e11b8852600488fd5b8780fd5b8680fd5b8380fd5b50346103415761012036600319011261034157610837613547565b61083f61355d565b6084356001600160801b038116908181036109aa578460c43560ff8116810361099b5761086a613cb0565b610878602435600435613cd7565b6006015490936001600160a01b0390911691823b15610818576108c08480926040518093819263d505accf60e01b8352610104359060e4359060a4358a3033600489016137ab565b038183885af16109ed575b50506040516323b872dd60e01b81523360048201523060248201526001600160801b039190911660448201529160209183916064918391905af19081156109e25786916109c3575b50156109b4576001600160a01b03908116939081166109ae575033915b833b156109aa57604051635fd142bb60e11b81526001600160a01b03938416600482015292166024830152604482018490526064820152828160848183865af1801561099f57610986575b602082604051908152f35b610991838092613632565b61099b578161097b565b5080fd5b6040513d85823e3d90fd5b8480fd5b91610930565b631e4e7d0960e21b8552600485fd5b6109dc915060203d602011610717576107098183613632565b5f610913565b6040513d88823e3d90fd5b816109f791613632565b61074657825f6108cb565b50346103415780600319360112610341576020610a4f5f516020615c2f5f395f51905f525460086004610a3542846155db565b0154910154906001600160801b038260801c921690615541565b604051908152f35b503461034157806003193601126103415760206004610a855f516020615c2f5f395f51905f525442906155db565b0154604051908152f35b503461034157602036600319011261034157600435906003821015610341576020610a4f83613bb6565b5034610341576060366003190112610341576001600160401b036004351161034157610100600435360360031901126103415760026024351015610341576044356001600160401b03811161099b57610b169036906004016136b6565b7f9b779b17422d0df92223018b32b4d1fa46e071723d6817e2486d003becc55f005c610f3f5760017f9b779b17422d0df92223018b32b4d1fa46e071723d6817e2486d003becc55f005d5f516020615c2f5f395f51905f525490600182015415610f3057815415610ed4575b60038201546044600435013503610ec55765ffffffffffff60048301541665ffffffffffff610bb5602460043501613ba3565b1610610eb757610bca60043560040183614539565b92610bdf60a460043501600435600401614a2f565b808096925060051b0460201485151715610ea357610bff8560051b61576f565b8695865b818810610d6f5750610d35965060051b902090610c2560043560040186614a71565b610c3460043560040187614e4f565b90610c43602460043501613ba3565b93610c52606460043501613b95565b9360405194602086019660043560040135885265ffffffffffff60d01b9060d01b16604087015260446004350135604687015260ff60f81b9060f81b1660668601526067850152608784015260a783015260c782015260c78152610cb760e782613632565b5190209283600382015565ffffffffffff610cd6602460043501613ba3565b1665ffffffffffff196004830154161760048201557f7ebe42360bcb182fe0a88148b081e4557c89d09aa6af8307635ac2f83e2aaa656020604051868152a165ffffffffffff610d2a602460043501613ba3565b1693602435916152d8565b15610d6057807f9b779b17422d0df92223018b32b4d1fa46e071723d6817e2486d003becc55f005d80f35b63729d0f6b60e01b8152600490fd5b610d8360a460043501600435600401614a2f565b891015610e8f578860061b8101358a5260198801602052600160ff60408c205416610dad816136e6565b03610e8057600191602091610e43838c60061b830101610dcc81614a64565b15610e5f5760068d901b8301358e5260198c01855260408e20805460ff19166002179055601c8c018054610dff90613bfe565b90555b8c7f460119a8f69a33ed127de517d5ea464e958ce23ef19e4420a8b92bf780bbc2c986610e2e84614a64565b1515926040519060061b8701358152a2614a64565b908b60061b01358c52825360218b208186015201970196610c03565b60068d901b8301358e5260198c01855260408e20805460ff19169055610e02565b636e83084760e11b8a5260048afd5b634e487b7160e01b8a52603260045260248afd5b634e487b7160e01b86526011600452602486fd5b620725b160ea1b8452600484fd5b63164b6fc360e01b8452600484fd5b610ef1610ee5606460043501613b95565b6004356004013561448f565b15610f215765ffffffffffff610f0b602460043501613ba3565b164211610b8257631ad8809560e31b8452600484fd5b637b8cb35960e01b8452600484fd5b63580683f360e01b8452600484fd5b633ee5aeb560e01b8352600483fd5b50346103415780600319360112610341575f516020615c2f5f395f51905f5254600501546040516001600160a01b039091168152602090f35b5034610341578060031936011261034157604060085f516020615c2f5f395f51905f525401548151906001600160801b038116825260801c6020820152f35b5034610341578060031936011261034157602065ffffffffffff60045f516020615c2f5f395f51905f5254015416604051908152f35b5034610341578060031936011261034157602065ffffffffffff60025f516020615c2f5f395f51905f52540154821c16604051908152f35b503461034157806003193601126103415761108061106c60046110665f516020615c2f5f395f51905f525442906155db565b01613b42565b604051918291602083526020830190613728565b0390f35b50346103415780600319360112610341576040516110a1816135fb565b6110a9613a91565b81526040516110b7816135e0565b5f8152602081015f905260208201526110ce613a91565b60408201526110db613b0f565b60608201526040516110ec816135e0565b5f80825260208201526080820152611102613a91565b60a08201528160c08201528160e082015281610100820152816101208201528161014082015261016001525f516020615c2f5f395f51905f5254611144613b0f565b5061115160098201615622565b9061115e600f8201615622565b6008820154926040519361117185613617565b6001600160801b038116855260801c602085015260408401526060830152601b81015490601c810154601d82015461ffff16601e830154601f84015491602085015493604051966111c1886135fb565b6040516111cd816135b1565b60018801548152600288015463ffffffff8116602083015260201c65ffffffffffff1660408201528852604051986112048a6135e0565b60038801548a52600488015465ffffffffffff1660208b015260208901998a5260405190611231826135b1565b60058901546001600160a01b03908116835260068a01548116602084015260078a0154166040808401919091528a0191825260608a0190815261127660158a016139e3565b9860808b01998a5260160161128a90613aaf565b9160a08b0192835260c08b0193845260e08b019485526101008b019586526101208b019687526101408b019788526101608b019889526040519b8c9b60208d52518c815190602001528c602082015163ffffffff1690604001526040015165ffffffffffff1660608d015251805160808d01526020015165ffffffffffff1660a08c015251600160a01b6001900381511660c08c0152600160a01b6001900360208201511660e08c0152600160a01b600190039060400151166101008b0152516101208a01610280905280516001600160801b03166102a08b015260208101516001600160801b03166102c08b015260408101516102e08b01608090526103208b0161139591613764565b90606001519061029f198b8203016103008c01526113b291613764565b975180516001600160401b03166101408b0152602001516001600160801b03166101608a01525180516101808a015260208101516101a08a0152604001516101c0890152516101e0880152516102008701525161ffff166102208601525161024085015251610260840152516102808301520390f35b50346103415760203660031901126103415760ff604060209260195f516020615c2f5f395f51905f525401600435825284522054166040519061146a816136e6565b8152f35b5034610341576020366003190112610341576004356001600160401b03811161099b5761149f9036906004016136b6565b905f516020615c2f5f395f51905f5254906114b983613933565b916114c76040519384613632565b8383526114d384613933565b602084019490601f1901368637601a869201915b81811061153257868587604051928392602084019060208552518091526040840192915b818110611519575050500390f35b825184528594506020938401939092019160010161150b565b8061154861154360019385886139ab565b613a11565b828060a01b03165f528360205260405f205461156482886139cf565b52016114e7565b50346103415780600319360112610341575061108060405161158e604082613632565b60058152640352e302e360dc1b6020820152604051918291602083526020830190613704565b50346103415780600319360112610341575f516020615c2f5f395f51905f52546001600160a01b03906002906115eb9042906155db565b0154166040519182915f19813b0164ffffffffff16916021830191601f8501903c80825201906040820191826040526020835261162f603f19926060830190613704565b030190f35b503461034157806003193601126103415761164d613a91565b50606061166a60165f516020615c2f5f395f51905f525401613aaf565b61168b60405180926040809180518452602081015160208501520151910152565bf35b50346103415780600319360112610341576020601b5f516020615c2f5f395f51905f52540154604051908152f35b5034610341576020366003190112610341576116d5613573565b601a5f516020615c2f5f395f51905f5254019060018060a01b03165f52602052602060405f2054604051908152f35b503461034157602036600319011261034157600435906001600160401b03821161034157602061174061173a36600486016136b6565b90613a25565b6040519015158152f35b50346103415780600319360112610341575f516020615bcf5f395f51905f52546040516001600160a01b039091168152602090f35b50346103415760a03660031901126103415760043560443560ff81168103610746576117a9613cb0565b8249156118bc575f516020615c2f5f395f51905f5254600181015415610f305760198101918385528260205260ff6040862054166117e6816136e6565b6118ad576006820154601e9092015485926001600160a01b031691823b156108185760405163d505accf60e01b815233600482015230602480830191909152604482018490523560648083019190915260ff92909216608480830191909152913560a4820152903560c48201528390818160e48183885af1611898575b50506040516323b872dd60e01b8152336004820152306024820152604481019190915291602091839182908160648101610686565b816118a291613632565b61074657825f611863565b6304c51a3360e31b8552600485fd5b637bb2fa2f60e11b8352600483fd5b50346103415780600319360112610341575f516020615c2f5f395f51905f52546001810190815461191b576002015463ffffffff164090811561190c575580f35b63f7bac7b560e01b8352600483fd5b6309476b0360e41b8352600483fd5b50346103415780600319360112610341575f516020615c2f5f395f51905f5254600601546040516001600160a01b039091168152602090f35b503461034157806003193601126103415761197c61380d565b50604061199960155f516020615c2f5f395f51905f5254016139e3565b61168b825180926001600160801b03602080926001600160401b038151168552015116910152565b5034610341578060031936011261034157611a1f906119de614315565b906119e76143e2565b906020611a2d604051936119fb8386613632565b8385525f368137604051968796600f60f81b885260e08589015260e0880190613704565b908682036040880152613704565b904660608601523060808601528260a086015284820360c08601528080855193848152019401925b828110611a6457505050500390f35b835185528695509381019392810192600101611a55565b5034610341578060031936011261034157611a94613c7d565b611a9c613cb0565b600160ff195f516020615c4f5f395f51905f525416175f516020615c4f5f395f51905f52557f62e78cea01bee320cd4e420270b5ea74000d11b0c9f74754ebdbfc544b05a2586020604051338152a180f35b5034610341576020366003190112610341576004356001600160401b03811161099b57611b1f9036906004016136b6565b905f516020615c2f5f395f51905f525490611b3983613933565b91611b476040519384613632565b838352611b5384613933565b602084019490601f19013686376019869201915b818110611bbe57868587604051928392602084019060208552518091526040840192915b818110611b99575050500390f35b919350916020806001928651611bae816136e6565b8152019401910191849392611b8b565b80611bcc60019284876139ab565b3588528360205260ff604089205416611be582886139cf565b611bee826136e6565b5201611b67565b5034610341576020366003190112610341576020906040906001600160a01b03611c1d613573565b1681527f5ab42ced628888259c08ac98db1eb0cf702fc1501344311d8b100cd1bfe4bb0083522054604051908152f35b5034610341578060031936011261034157602060035f516020615c2f5f395f51905f52540154604051908152f35b5034610341578060031936011261034157611c94613c7d565b5f516020615bcf5f395f51905f5280546001600160a01b0319811690915581906001600160a01b03167f8be0079c531659141344cd1fd0a4f28419497f9722a3daafe3b4186f6b6457e08280a380f35b5034610341578060031936011261034157611cfd613c7d565b5f516020615c6f5f395f51905f525460ff8160401c16908115612226575b50612217575f516020615c6f5f395f51905f52805468ffffffffffffffffff1916680100000000000000051790555f516020615bcf5f395f51905f5254611d75906001600160a01b0316611d6d6155f7565b6103a26155f7565b611d7d613843565b90611d86613870565b90611d8f6155f7565b611d976155f7565b82516001600160401b03811161211a57611dbe5f516020615baf5f395f51905f52546142dd565b601f81116121b3575b506020601f82116001146121395782939482939261212e575b50508160011b915f199060031b1c1916175f516020615baf5f395f51905f52555b81516001600160401b03811161211a57611e285f516020615bef5f395f51905f52546142dd565b601f81116120ad575b50602092601f821160011461203457928293829392612029575b50508160011b915f199060031b1c1916175f516020615bef5f395f51905f52555b5f516020615c2f5f395f51905f5254611e83614245565b80516001830155600282019063ffffffff60208201511669ffffffffffff000000006040845493015160201b169169ffffffffffffffffffff191617179055816020604051611ed1816135e0565b82815201528160038201556004810165ffffffffffff19815416905561ffff6004611efc42846155db565b01541661ffff601d8301911661ffff198254161790556004602060018060a01b036006840154166040519283809263313ce56760e01b82525afa801561099f57611f4d918491611ffa575b506138e7565b806103e8026103e881048203611fe657601e830155806101f402906101f4820403611fd257601f820155602061010091015560ff60401b195f516020615c6f5f395f51905f5254165f516020615c6f5f395f51905f52557fc7f505b2f371ae2175ee4913f4499e1f2633a7b5936321eed1cdaeb6115181d2602060405160058152a180f35b634e487b7160e01b83526011600452602483fd5b634e487b7160e01b84526011600452602484fd5b61201c915060203d602011612022575b6120148183613632565b8101906138ce565b5f611f47565b503d61200a565b015190505f80611e4b565b601f198216935f516020615bef5f395f51905f52845280842091845b868110612095575083600195961061207d575b505050811b015f516020615bef5f395f51905f5255611e6c565b01515f1960f88460031b161c191690555f8080612063565b91926020600181928685015181550194019201612050565b81811115611e31575f516020615bef5f395f51905f52835261210c907f5f9ce34815f8e11431c7bb75a8e6886a91478f7ffc1dbb0a98dc240fddd76b7590601f840160051c9060208510612112575b601f82910160051c0391016142c2565b5f611e31565b8591506120fc565b634e487b7160e01b82526041600452602482fd5b015190505f80611de0565b5f516020615baf5f395f51905f52835280832090601f198316845b81811061219b57509583600195969710612183575b505050811b015f516020615baf5f395f51905f5255611e01565b01515f1960f88460031b161c191690555f8080612169565b9192602060018192868b015181550194019201612154565b81811115611dc7575f516020615baf5f395f51905f528352612211907f42ad5d3e1f2e6e70edcf6d991b8a3023d3fca8047a131592f9edb9fd9b89d57d90601f840160051c906020851061211257601f82910160051c0391016142c2565b5f611dc7565b63f92ee8a960e01b8152600490fd5b600591506001600160401b031610155f611d1b565b5034610341578060031936011261034157602060ff5f516020615c4f5f395f51905f5254166040519015158152f35b503461034157602036600319011261034157600435600381101561099b57612290613c7d565b60205f516020615c2f5f395f51905f5254019081548060101c9160ff8260081c169060ff8316906122c0816136e6565b8061230a575050505060018101809111611fd2577f60e5a0cd4e467d80fbdaaf85873a02b09330ec141877522528ce5ae2bd8825ec9160209160101b80915b55604051908152a180f35b6001919293945061231a816136e6565b03612362575060018101809111611fe657916020917f60e5a0cd4e467d80fbdaaf85873a02b09330ec141877522528ce5ae2bd8825ec9360081b9061ffff19161780916122ff565b91905060018201809211611fe657916020918361ff007f60e5a0cd4e467d80fbdaaf85873a02b09330ec141877522528ce5ae2bd8825ec95169061ffff1916171780916122ff565b503461034157610160366003190112610341576123c5613573565b906024356001600160a01b0381169081900361099b576123e3613547565b926123ec61355d565b9260a43560c43560843560403660e31901126108185761012435966001600160401b0388116109aa57366023890112156109aa578760040135926001600160401b03841161074257366024858b01011161074257610144356001600160401b038111610814576124609036906004016136b6565b9590935f516020615c6f5f395f51905f5254986001600160401b0360ff8b60401c16159a1680159081612d53575b6001149081612d49575b159081612d40575b50612d31576124e2908a60016001600160401b03195f516020615c6f5f395f51905f525416175f516020615c6f5f395f51905f5255612d01575b611d6d6155f7565b6124ea6155f7565b6124f2613843565b6124fa613870565b906125036155f7565b61250b6155f7565b8051906001600160401b038211612ced5781908b6125365f516020615baf5f395f51905f52546142dd565b601f8111612c9c575b5050602090601f8311600114612c20578c92612c15575b50508160011b915f199060031b1c1916175f516020615baf5f395f51905f52555b8051906001600160401b038211612c015781906125a15f516020615bef5f395f51905f52546142dd565b601f8111612b92575b50602090601f8311600114612b16578b92612b0b575b50508160011b915f199060031b1c1916175f516020615bef5f395f51905f52555b6125e96155f7565b4215612afc578115612aed5781811115612ade57600a612609838361388f565b04831015612acf576040809a81516126218382613632565b60178152602081017f726f757465722e73746f726167652e526f7574657256310000000000000000008152612654613c7d565b5f1991519020018a5260ff1960208b2016809e815f516020615c2f5f395f51905f5255835182815260207f059eb9adf6e95b839d818142ed5bd5e498b6d95138e65c91525e93cc0f0339fc91a16126a9614245565b805160018401556002830190602081015163ffffffff1686835492015160201b69ffffffffffff00000000169169ffffffffffffffffffff1916171790558351906126f3826135b1565b8382526001600160a01b0390811660208301819052988116949091018490526005919091018054919092166001600160a01b03199182161790915560068e01805482168717905560078e018054909116909117905570030000000000000000000000000000000260088d015561276761380d565b508951612773816135e0565b639502f90081526509184e72a00060209091015260158c0180546001600160c01b0319166d09184e72a000000000009502f900179055895183908b906127b8816135b1565b83815260208101859052015260168c015560178b015560188a0155601d8901805461ffff191661ffff8616179055865163313ce56760e01b815290819081905a92600491602094fa908115612ac55790612818918691611ffa57506138e7565b806103e8026103e881048203610ea357601e8a0155806101f402906101f4820403612ab1579061287891601f8a01556128708751986128568a6135e0565b60e4358a5260208a01946101043586526024369201613653565b93369161394a565b958051825170014551231950b75fc4402da1732fc9bebe1982109182612aa0575b505015612a915751600988015551600a870155805180851b6bfe61000180600a3d393df3000161fffe8211830152600b81016015830184f0918215612a845752600b860180546001600160a01b0319166001600160a01b039092169190911790559092600c85019190600d860190825b82548110156129415782845260208085208201546001600160a01b03165f90815290869052869020805460ff19169055600101612909565b509195949094865b8351811015612989576001906001600160a01b0361296782876139cf565b5116828060a01b03165f5285602052865f208260ff1982541617905501612949565b50925092938151916001600160401b038311612a7057600160401b8311612a70576020908254848455808510612a55575b500190865260208620865b838110612a38575050505042600e82015560206101009101556129e6575080f35b60207fc7f505b2f371ae2175ee4913f4499e1f2633a7b5936321eed1cdaeb6115181d29160ff60401b195f516020615c6f5f395f51905f5254165f516020615c6f5f395f51905f52555160018152a180f35b82516001600160a01b0316818301556020909201916001016129c5565b612a6a90848a528580858c20019103906142c2565b5f6129ba565b634e487b7160e01b87526041600452602487fd5b633011642584526004601cfd5b63375f0aab60e11b8452600484fd5b612aaa9250615b8b565b5f80612899565b634e487b7160e01b85526011600452602485fd5b87513d87823e3d90fd5b63145e348f60e01b8852600488fd5b6353b2bbed60e01b8852600488fd5b63f7ba6bdb60e01b8852600488fd5b63b7d0949760e01b8852600488fd5b015190505f806125c0565b5f516020615bef5f395f51905f528c52818c209250601f1984168c5b818110612b7a5750908460019594939210612b62575b505050811b015f516020615bef5f395f51905f52556125e1565b01515f1960f88460031b161c191690555f8080612b48565b92936020600181928786015181550195019301612b32565b828111156125aa575f516020615bef5f395f51905f528c52612bf3907f5f9ce34815f8e11431c7bb75a8e6886a91478f7ffc1dbb0a98dc240fddd76b7590601f850160051c908e60208710612bf9575b50601f82910160051c0391016142c2565b5f6125aa565b91508e612be2565b634e487b7160e01b8a52604160045260248afd5b015190505f80612556565b5f516020615baf5f395f51905f528d52818d209250601f1984168d5b818110612c845750908460019594939210612c6c575b505050811b015f516020615baf5f395f51905f5255612577565b01515f1960f88460031b161c191690555f8080612c52565b92936020600181928786015181550195019301612c3c565b8381111561253f575f516020615baf5f395f51905f52612cde92528d6020812091601f860160051c9160208710612ce55750601f82910160051c0391016142c2565b8b5f61253f565b91508f612be2565b634e487b7160e01b8b52604160045260248bfd5b600160401b60ff60401b195f516020615c6f5f395f51905f525416175f516020615c6f5f395f51905f52556124da565b63f92ee8a960e01b8952600489fd5b9050155f6124a0565b303b159150612498565b8b915061248e565b50346103415780600319360112610341577f00000000000000000000000000000000000000000000000000000000000000006001600160a01b03163003612db35760206040515f516020615c0f5f395f51905f528152f35b63703e46dd60e11b8152600490fd5b50604036600319011261034157612dd7613573565b906024356001600160401b03811161099b57612df7903690600401613698565b916001600160a01b037f000000000000000000000000000000000000000000000000000000000000000016308114908115612f78575b50612f6957612e3a613c7d565b6040516352d1902d60e01b8152926001600160a01b0382169190602085600481865afa80958596612f31575b50612e7f57634c9c8ce360e01b84526004839052602484fd5b9091845f516020615c0f5f395f51905f528103612f1f5750823b15612f0d575f516020615c0f5f395f51905f5280546001600160a01b031916821790557fbc7cd75a20ee27fd9adebab32041f755214dbc6bffa90cc0225b39da2e5c2d3b8480a2805115612ef457612ef091615ac5565b5080f35b505034612efe5780f35b63b398979f60e01b8152600490fd5b634c9c8ce360e01b8452600452602483fd5b632a87526960e21b8552600452602484fd5b9095506020813d602011612f61575b81612f4d60209383613632565b81010312612f5d5751945f612e66565b5f80fd5b3d9150612f40565b63703e46dd60e11b8252600482fd5b5f516020615c0f5f395f51905f52546001600160a01b0316141590505f612e2d565b5034610341578060031936011261034157612fb3613c7d565b5f516020615c4f5f395f51905f525460ff81161561300b5760ff19165f516020615c4f5f395f51905f52557f5db9ee0a495bf2e6ff9c91a7834c1ba4fdd244a5e8aa4e537bd38aeae4b073aa6020604051338152a180f35b638dfc202b60e01b8252600482fd5b503461034157602036600319011261034157613034613573565b61303c613c7d565b5f516020615c2f5f395f51905f525460050180546001600160a01b0319166001600160a01b0390921691909117905580f35b503461034157806003193601126103415761308761380d565b5060406130ab6130a65f516020615c2f5f395f51905f525442906155db565b613825565b60208251918051835201516020820152f35b5034610341576060366003190112610341576130d7613547565b6130df613cb0565b6130ed60243560043561414d565b506001600160a01b03908116919081166131755750335b5f516020615c2f5f395f51905f5254600501546001600160a01b0316823b1561081857604051635fd142bb60e11b81526001600160a01b03909216600483015260248201526001604482015260648101839052828160848183865af1801561099f5761098657602082604051908152f35b613104565b50346103415780600319360112610341576020610a4f61556c565b50346103415780600319360112610341576020805f516020615c2f5f395f51905f52540154604051908152f35b5034610341578060031936011261034157602060015f516020615c2f5f395f51905f52540154604051908152f35b50346103415780600319360112610341576020601e5f516020615c2f5f395f51905f52540154604051908152f35b503461034157602036600319011261034157613238613c7d565b600435601e5f516020615c2f5f395f51905f5254015580f35b5034610341576101003660031901126103415761326c613547565b6064356001600160801b03811690818103610818578360a43560ff8116810361099b57613297613cb0565b6132a560243560043561414d565b6006015490936001600160a01b0390911691823b15610818576132ec8480926040518093819263d505accf60e01b835260e4359060c435906084358a3033600489016137ab565b038183885af161340a575b50506040516323b872dd60e01b81523360048201523060248201526001600160801b039190911660448201529160209183916064918391905af19081156133ff5785916133e0575b50156133d1576001600160a01b03908116929081166133cb575033905b5f516020615c2f5f395f51905f5254600501546001600160a01b0316833b156109aa57604051635fd142bb60e11b81526001600160a01b0390931660048401526024830152600160448301526064820152828160848183865af1801561099f5761098657602082604051908152f35b9061335c565b631e4e7d0960e21b8452600484fd5b6133f9915060203d602011610717576107098183613632565b5f61333f565b6040513d87823e3d90fd5b8161341491613632565b61074657825f6132f7565b34612f5d576080366003190112612f5d57613438613547565b61344061355d565b90613449613cb0565b613457602435600435613cd7565b506001600160a01b03908116919081166134e4575033915b813b15612f5d57604051635fd142bb60e11b81526001600160a01b039384166004820152921660248301525f60448301819052606483018190528260848183855af19182156134d9576020926134c9575b50604051908152f35b5f6134d391613632565b5f6134c0565b6040513d5f823e3d90fd5b9161346f565b34612f5d576020366003190112612f5d57613503613c7d565b600435601f5f516020615c2f5f395f51905f525401555f80f35b34612f5d575f366003190112612f5d57602090601c5f516020615c2f5f395f51905f525401548152f35b604435906001600160a01b0382168203612f5d57565b606435906001600160a01b0382168203612f5d57565b600435906001600160a01b0382168203612f5d57565b35906001600160a01b0382168203612f5d57565b35906001600160801b0382168203612f5d57565b606081019081106001600160401b038211176135cc57604052565b634e487b7160e01b5f52604160045260245ffd5b604081019081106001600160401b038211176135cc57604052565b61018081019081106001600160401b038211176135cc57604052565b608081019081106001600160401b038211176135cc57604052565b90601f801991011681019081106001600160401b038211176135cc57604052565b9291926001600160401b0382116135cc576040519161367c601f8201601f191660200184613632565b829481845281830111612f5d578281602093845f960137010152565b9080601f83011215612f5d578160206136b393359101613653565b90565b9181601f84011215612f5d578235916001600160401b038311612f5d576020808501948460051b010111612f5d57565b600311156136f057565b634e487b7160e01b5f52602160045260245ffd5b805180835260209291819084018484015e5f828201840152601f01601f1916010190565b90602080835192838152019201905f5b8181106137455750505090565b82516001600160a01b0316845260209384019390920191600101613738565b9060208251805183520151602082015260018060a01b036020830151166040820152608060606137a2604085015160a08386015260a0850190613728565b93015191015290565b936001600160801b0360c096929998979460ff9460e088019b60018060a01b0316885260018060a01b03166020880152166040860152606085015216608083015260a08201520152565b90816020910312612f5d57518015158103612f5d5790565b6040519061381a826135e0565b5f6020838281520152565b90604051613832816135e0565b602060018294805484520154910152565b60405190613852604083613632565b600f82526e2b30b9309722aa24102937baba32b960891b6020830152565b6040519061387f604083613632565b60018252603160f81b6020830152565b9190820391821161389c57565b634e487b7160e01b5f52601160045260245ffd5b81156138ba570490565b634e487b7160e01b5f52601260045260245ffd5b90816020910312612f5d575160ff81168103612f5d5790565b60ff16604d811161389c57600a0a90565b8181029291811591840414171561389c57565b9190826040910312612f5d57604051613923816135e0565b6020808294803584520135910152565b6001600160401b0381116135cc5760051b60200190565b92919061395681613933565b936139646040519586613632565b602085838152019160051b8101928311612f5d57905b82821061398657505050565b6020809161399384613589565b81520191019061397a565b9190820180921161389c57565b91908110156139bb5760051b0190565b634e487b7160e01b5f52603260045260245ffd5b80518210156139bb5760209160051b010190565b906040516139f0816135e0565b91546001600160401b038116835260401c6001600160801b03166020830152565b356001600160a01b0381168103612f5d5790565b613a3e5f516020615c2f5f395f51905f525442906155db565b600301905f5b838110613a545750505050600190565b613a626115438286856139ab565b6001600160a01b03165f9081526020849052604090205460ff1615613a8957600101613a44565b505050505f90565b60405190613a9e826135b1565b5f6040838281528260208201520152565b90604051613abc816135b1565b60406002829480548452600181015460208501520154910152565b60405190613ae482613617565b5f606083604051613af4816135e0565b83815283602082015281528260208201528160408201520152565b60405190613b1c82613617565b815f81525f6020820152613b2e613ad7565b60408201526060613b3d613ad7565b910152565b90604051918281549182825260208201905f5260205f20925f5b818110613b73575050613b7192500383613632565b565b84546001600160a01b0316835260019485019487945060209093019201613b5c565b3560ff81168103612f5d5790565b3565ffffffffffff81168103612f5d5790565b60205f516020615c2f5f395f51905f5254015490613bd3816136e6565b80613bdf575060101c90565b90600160ff92613bee816136e6565b03613bfa5760081c1690565b1690565b5f19811461389c5760010190565b6001600160a01b03168015613c6a575f516020615bcf5f395f51905f5280546001600160a01b0319811683179091556001600160a01b03167f8be0079c531659141344cd1fd0a4f28419497f9722a3daafe3b4186f6b6457e05f80a3565b631e4fbdf760e01b5f525f60045260245ffd5b5f516020615bcf5f395f51905f52546001600160a01b03163303613c9d57565b63118cdaa760e01b5f523360045260245ffd5b60ff5f516020615c4f5f395f51905f525416613cc857565b63d93c066560e01b5f5260045ffd5b9190915f516020615c2f5f395f51905f52549260018401541561008257815f5260198401602052600260ff60405f205416613d11816136e6565b0361413e57815f5260205260405f206040516103008101908082106001600160401b03831117612f5d576102fb916040527f6080806040526102e990816100128239f3fe60806040526004361061029f575f81527f3560e01c806336a52a18146100bb57806342129d00146100b65780635ce6c32760208201527f146100b1578063701da98e146100ac578063704ed542146100a75780637a8e0c60408201527fdd146100a257806391d5a64c1461009d5780639ce110d714610098578063affe60608201527fd0e014610093578063c60496921461008e5763e43f34330361029f5761028a5660808201527f5b610260565b610243565b61021b565b610205565b6101d2565b6101b3565b6160a08201527f0178565b610156565b610119565b346100e7575f3660031901126100e757600260c08201527f5460405160089190911c6001600160a01b03168152602090f35b5f80fd5b918160e08201527f601f840112156100e75782359167ffffffffffffffff83116100e757602083816101008201527f8601950101116100e757565b60403660031901126100e75760043567ffffffff6101208201527fffffffff81116100e7576101459036906004016100eb565b50506024358015156101408201527f1461029f575f80fd5b346100e7575f3660031901126100e757602060ff6002546101608201527f166040519015158152f35b346100e7575f3660031901126100e75760205f54606101808201527f4051908152f35b600435906fffffffffffffffffffffffffffffffff821682036101a08201527f6100e757565b346100e75760203660031901126100e7576101cc610194565b506101c08201527f61029f565b60403660031901126100e75760243567ffffffffffffffff8111616101e08201527ee7576101fe9036906004016100eb565b505061029f565b346100e7576020366102008201527f60031901121561029f575f80fd5b346100e7575f3660031901126100e75760036102208201527f546040516001600160a01b039091168152602090f35b346100e7575f366003196102408201527f01126100e7576020600154604051908152f35b346100e75760a03660031901126102608201527f6100e757610279610194565b5060443560ff81161461029f575f80fd5b3461006102808201527fe7575f3660031901121561029f575f80fd5b63e6fabc0960e01b5f5260205f606102a08201523060481b685afa156100e7575f806204817360e81b01176102c08201527f8051368280378136915af43d5f803e156102e5573d5ff35b3d5ffd00000000006102e08201525ff5908115612f5d5760018060a01b0382165f52601a84016020528060405f2055601b84016141038154613bfe565b90556040516001600160a01b03831681527f8008ec1d8798725ebfa0f2d128d52e8e717dcba6e0f786557eeee70614b02bf190602090a29190565b630e2637d160e01b5f5260045ffd5b9190915f516020615c2f5f395f51905f52549260018401541561008257815f5260198401602052600260ff60405f205416614187816136e6565b0361413e57815f5260205260405f2060405160608101908082106001600160401b03831117612f5d57605a916040527f3d605080600a3d3981f3608060405263e6fabc0960e01b5f5260205f6004817381523060601b6b5afa15604c575f80805136821760208201527f80378136915af43d5f803e156048573d5ff35b3d5ffd5b5f80fd00000000000060408201525ff5908115612f5d5760018060a01b0382165f52601a84016020528060405f2055601b84016141038154613bfe565b61424d613a91565b5063ffffffff43116142aa5765ffffffffffff421161429257604051614272816135b1565b5f815263ffffffff4316602082015265ffffffffffff4216604082015290565b6306dfcc6560e41b5f5260306004524260245260445ffd5b6306dfcc6560e41b5f5260206004524360245260445ffd5b5f5b8281106142d057505050565b5f828201556001016142c4565b90600182811c9216801561430b575b60208310146142f757565b634e487b7160e01b5f52602260045260245ffd5b91607f16916142ec565b604051905f825f516020615baf5f395f51905f525491614334836142dd565b80835292600181169081156143c35750600114614358575b613b7192500383613632565b505f516020615baf5f395f51905f525f90815290917f42ad5d3e1f2e6e70edcf6d991b8a3023d3fca8047a131592f9edb9fd9b89d57d5b8183106143a7575050906020613b719282010161434c565b602091935080600191548385890101520191019091849261438f565b60209250613b7194915060ff191682840152151560051b82010161434c565b604051905f825f516020615bef5f395f51905f525491614401836142dd565b80835292600181169081156143c3575060011461442457613b7192500383613632565b505f516020615bef5f395f51905f525f90815290917f5f9ce34815f8e11431c7bb75a8e6886a91478f7ffc1dbb0a98dc240fddd76b755b818310614473575050906020613b719282010161434c565b602091935080600191548385890101520191019091849261445b565b435f198101939290841161389c5760ff164381106144df57505f925b838110156144bb575b505f925050565b80408281036144cd5750600193505050565b156144da575f19016144ab565b6144b4565b6144e9904361388f565b926144ab565b903590601e1981360301821215612f5d57018035906001600160401b038211612f5d57602001918160051b36038313612f5d57565b903590605e1981360301821215612f5d570190565b9060808101600161454a82846144ef565b905011614a205761455b81836144ef565b9050156149f95761456b916144ef565b156139bb578061457a91614524565b9161458583806144ef565b9190928260051b938385046020148415171561389c576145a78596949561576f565b925f945f97601a61013e19853603019501965b888a101561495c578960051b85013586811215612f5d5785016145dc81613a11565b6001600160a01b03165f90815260208a9052604090205415610064575f60808201916001600160801b0361460f84615677565b16151580614949575b614938575b6001600160a01b0361462e82613a11565b60405163f76207bb60e01b81526020600482015294911691906101648501906001600160801b03906146ad906001600160a01b0361466b86613589565b1660248901526020850135604489015261468760408601614e42565b151560648901526001600160a01b036146a260608701613589565b16608489015261359d565b1660a48601526146bf60a08301614e42565b151560c486015260c0820135601e1983360301811215612f5d578201602081359101916001600160401b038211612f5d576060820236038313612f5d5761014060e4880152819052859392916101848501915f905b8082106148e65750505061472b60e083018361568b565b602319868403016101048701528083526020600582901b840181019390810191905f908460de1936829003015b8484106148195750505050505050916001600160801b03846147bf846147ac6147a060209a9861478d610100879a018561568b565b8783036023190161012489015290615710565b9161012081019061568b565b8483036023190161014486015290615710565b039316905af19081156134d9575f916147e7575b50816020916001938a0152019901986145ba565b90506020813d8211614811575b8161480160209383613632565b81010312612f5d575160016147d3565b3d91506147f4565b91939597989950919395601f19848203018752873582811215612f5d578301803582526001600160a01b0361485060208301613589565b16602083015261487761486660408301836156bf565b60e0604086015260e08501916156f0565b906001600160801b0361488c6060830161359d565b1660608401526080810135608084015260a08101359163ffffffff60e01b8316809303612f5d578360c06148cd8160209695879660a060019a015201614e42565b1515910152990197019401918b99989796959391614758565b91939495509160608060019286358152838060a01b0361490860208901613589565b1660208201526001600160801b036149226040890161359d565b1660408201520194019201879594939291614714565b905061494382615677565b9061461d565b5061495660a08201614a64565b15614618565b509550955095505050209060406020820135917fc630ddcf92c1a2e0d08b0e482dafa1312a9be3f7374d504c1e418a13fa84424160208351858152a10135806149ca575b604051916020830193845260408301526060820152606081526149c4608082613632565b51902090565b7f694c1e8c673a4782b065120b25b67f4198a5f2086b6edbe3c5093a9a64cc83316020604051838152a16149a0565b5050507fc5d2460186f7233c927e7db2dcc703c0e500b653ca82273b7bfad8045d85a47090565b6306d6c38360e01b5f5260045ffd5b903590601e1981360301821215612f5d57018035906001600160401b038211612f5d57602001918160061b36038313612f5d57565b358015158103612f5d5790565b60c082016001614a8182856144ef565b905011614e0157614a9281846144ef565b9050156149f957614aa390836144ef565b156139bb57803590607e1981360301821215612f5d57019160608301906020614acb83613ba3565b91019065ffffffffffff80614adf84613ba3565b1691161015614df257614af182613ba3565b65ffffffffffff80600286015460201c16911610614de357614b3765ffffffffffff614b30614b2a82614b2387613ba3565b1687615794565b93613ba3565b1684615794565b1115614dd4576007820154600690920180548435946001600160a01b0394851694604082019391925f91602091166044614b7d83614b758989614524565b01358b61399e565b604051948593849263095ea7b360e01b84528c600485015260248401525af19081156134d9575f91614db5575b5015614da6575460405163394f179b60e11b81526001600160a01b03909116600482015260248101959095526020818101356044870152856064815f885af19485156134d9575f95614d6e575b5090614c0291614524565b91614c0c82613ba3565b9260405193637fbe95b560e01b85526040600486015260a48501918035601e1982360301811215612f5d578101602081359101936001600160401b038211612f5d578160061b36038513612f5d5760606044890152819052869360c485019392915f5b818110614d3657505050836020959365ffffffffffff829484895f9601356064860152614ca5604060018060a01b039201613589565b16608485015216602483015203925af19182156134d9575f92614d00575b50614ccd90613ba3565b6040519160208301938452604083015265ffffffffffff60d01b9060d01b166060820152604681526149c4606682613632565b9091506020813d602011614d2e575b81614d1c60209383613632565b81010312612f5d575190614ccd614cc3565b3d9150614d0f565b919550919293604080600192838060a01b03614d518a613589565b168152602089013560208201520196019101918895949392614c6f565b919094506020823d602011614d9e575b81614d8b60209383613632565b81010312612f5d57905193614c02614bf7565b3d9150614d7e565b6367b9145160e01b5f5260045ffd5b614dce915060203d602011610717576107098183613632565b5f614baa565b6308027f7760e31b5f5260045ffd5b637bde91e760e11b5f5260045ffd5b63087a19ab60e41b5f5260045ffd5b633249ceed60e11b5f5260045ffd5b903590601e1981360301821215612f5d57018035906001600160401b038211612f5d57602001918136038313612f5d57565b35908115158203612f5d57565b9060e081016001614e6082846144ef565b9050116152c957614e7181836144ef565b9050156149f957614e81916144ef565b156139bb5780359060be1981360301821215612f5d570160808101614ea681836144ef565b9050156152ba5765ffffffffffff600284015460201c1691614ec8834261388f565b614ed7601686015480926138b0565b9360a0830135946001810180911161389c5785036152ab57614efc85614f02936138f8565b9061399e565b93614f1160178201548661388f565b421061529c57614f20906157bc565b916005830193428554101561528d57614f3883614a64565b9260208101906060810193612870614f74614f538785614e10565b9190614f5f85876144ef565b949091614f6c368a61390b565b943691613653565b976151d4575b50505f989798976003600489019801985b8854811015614fc2575f89815260208082208301546001600160a01b031682528b905260409020805460ff19169055600101614f8b565b5090919293949596985f5b885181101561500e576001906001600160a01b03614feb828c6139cf565b5116828060a01b03165f528a60205260405f208260ff1982541617905501614fcd565b50929598909396919497508151916001600160401b0383116135cc57600160401b83116135cc5760209082548484558085106151b9575b5001905f5260205f205f5b83811061519c5750505050557fa1a3b42179ad30022438a1ea333b38eaf4a7329beee5e2b8111c0dcd4e08821c6020604051868152a160c082360312612f5d576040519260a08401908482106001600160401b038311176135cc576150c4916040526150bb84614e42565b8552369061390b565b9460208401958652356001600160401b038111612f5d576150e89036908401613698565b604084015235906001600160401b038211612f5d570136601f82011215612f5d5761511a90369060208135910161394a565b908160608201528260808201525115159251906020825192015192604051938493602085019660f81b8752602185015260418401526061830160208351919301905f5b81811061517a575050508152038082526149c49060200182613632565b82516001600160a01b031685528695506020948501949092019160010161515d565b82516001600160a01b031681830155602090920191600101615050565b6151ce90845f528580855f20019103906142c2565b5f615045565b8051906020810191825170014551231950b75fc4402da1732fc9bebe198210918261527c575b50501561526d5751895551600189015580518060401b6bfe61000180600a3d393df3000161fffe8211830152600b8101601583015ff091821561526057526002880180546001600160a01b0319166001600160a01b039092169190911790555f80614f7a565b63301164255f526004601cfd5b63375f0aab60e11b5f5260045ffd5b6152869250615b8b565b5f806151fa565b6333fc8f5160e21b5f5260045ffd5b6372a84ce560e11b5f5260045ffd5b6343d3f5bf60e01b5f5260045ffd5b636c2bf3db60e01b5f5260045ffd5b631d3fc6bf60e21b5f5260045ffd5b909493919365ffffffffffff600283015460201c166152f74284615794565b61530f615309601686015480936138f8565b8361399e565b91828410808061552b575b156154f9575083106154eb57615330908361399e565b106154dc57615340905b826155db565b94601960f81b5f523060601b60025260165260365f209360028110156136f057806153d1575050600181036153c257156139bb576153818161538892614e10565b3691613653565b9160608351036153b3578260206136b3940151606060408301519201519260018154910154906157d7565b632ce466bf60e01b5f5260045ffd5b6360a1ea7760e01b5f5260045ffd5b9193916001146153e45750505050505f90565b61540990600860048796970154910154906001600160801b038260801c921690615541565b925f9260035f9201915b868110156154d1576154396105a96154336153818460051b860186614e10565b86615b51565b6001600160a01b0381165f9081526020859052604090205460ff16615464575b506001905b01615413565b6001600160a01b03165f9081527ff02b465737fa6045c2ff53fb2df43c66916ac2166fa303264668fb2f6a1d8c0060205260409020805c156154a9575060019061545e565b9460016154b792965d613bfe565b938585146154c5575f615459565b50505050505050600190565b505050505050505f90565b63046bb1e560e51b5f5260045ffd5b62f4462b60e01b5f5260045ffd5b939291505042821161551c5761534092615514575b5061533a565b90505f61550e565b6347860b9760e01b5f5260045ffd5b5061553a60188701548561399e565b421061531a565b6001600160801b0380921602911661555981836138b0565b9181156138ba5706156136b35760010190565b615574614315565b602081519101206155836143e2565b602081519101206040519060208201927f8b73c3c69bb8fe3d512ecc4cf759cc79239f7b179b0ffacaa9a75d522b39400f8452604083015260608201524660808201523060a082015260a081526149c460c082613632565b906155e69082615a65565b156155f157600f0190565b60090190565b60ff5f516020615c6f5f395f51905f525460401c161561561357565b631afcd79f60e31b5f5260045ffd5b61562a613ad7565b506002810154600582015460405192909161566a916004916001600160a01b031661565486613617565b61565d82613825565b8652602086015201613b42565b6040830152606082015290565b356001600160801b0381168103612f5d5790565b9035601e1982360301811215612f5d5701602081359101916001600160401b038211612f5d578160051b36038313612f5d57565b9035601e1982360301811215612f5d5701602081359101916001600160401b038211612f5d578136038313612f5d57565b908060209392818452848401375f828201840152601f01601f1916010190565b90602083828152019260208260051b82010193835f925b8484106157375750505050505090565b90919293949560208061575f600193601f198682030188526157598b886156bf565b906156f0565b9801940194019294939190615727565b6040519190601f01601f191682016001600160401b03811183821017612f5d57604052565b60166157b36136b39365ffffffffffff600285015460201c169061388f565b910154906138b0565b6157c64282615a65565b156157d15760090190565b600f0190565b92939194906157e68587615b8b565b156159795782156159795770014551231950b75fc4402da1732fc9bebe19831015615979576001169061010e61581b8161576f565b9160883684376002600188160160888401538760898401526002840160a984015360aa830186905260ca8301527e300046524f53542d736563703235366b312d4b454343414b3235362d76316360ea8301526303430b6160e51b61010a830152812060cc820181815290600260ec84016001815360428420809318845253604270014551231950b75fc4402da1732fc9bebe19922060801c6001600160401b0360801b8260801b16179070014551231950b75fc4402da1732fc9bebe1990600160c01b9060401c090880156154d15784601b6080945f9660209870014551231950b75fc4402da1732fc9bebe19910970014551231950b75fc4402da1732fc9bebe19038552018684015280604084015270014551231950b75fc4402da1732fc9bebe19910970014551231950b75fc4402da1732fc9bebe1903606082015282805260015afa505f51915f5260205260018060a01b0360405f20161490565b5050505050505f90565b91907f7fffffffffffffffffffffffffffffff5d576e7357a4501ddfe92f46681b20a084116159fa579160209360809260ff5f9560405194855216868401526040830152606082015282805260015afa156134d9575f516001600160a01b038116156159f057905f905f90565b505f906001905f90565b5050505f9160039190565b60048110156136f05780615a17575050565b60018103615a2e5763f645eedf60e01b5f5260045ffd5b60028103615a49575063fce698f760e01b5f5260045260245ffd5b600314615a535750565b6335e2f38360e21b5f5260045260245ffd5b906014600e830154920154808314615ab657818184109311918215911115918190615aaf575b15615aa05782615a9a57505090565b14919050565b634c38ae9560e11b5f5260045ffd5b5081615a8b565b63f26224af60e01b5f5260045ffd5b905f8091602081519101845af48080615b3e575b15615af95750506040513d81523d5f602083013e60203d82010160405290565b15615b1e57639996b31560e01b5f9081526001600160a01b0391909116600452602490fd5b3d15615b2f576040513d5f823e3d90fd5b63d6bda27560e01b5f5260045ffd5b503d151580615ad95750813b1515615ad9565b8151919060418303615b8157615b7a9250602082015190606060408401519301515f1a90615983565b9192909190565b50505f9160029190565b6401000003d01990600790829081818009900908906401000003d019908009149056fea16a46d94261c7517cc8ff89f61c0ce93598e3c849801011dee649a6a557d1029016d09d72d40fdae2fd8ceac6b6234c7706214fd39c1cd1e609a0528c199300a16a46d94261c7517cc8ff89f61c0ce93598e3c849801011dee649a6a557d103360894a13ba1a3210667c828492db98dca3e2076cc3735a920a3ca505d382bbc5c09ca1b9b8127a4fd9f3c384aac59b661441e820e17733753ff5f2e86e1e000cd5ed15c6e187e77e9aee88184c21f4f2182ab5827cb3b7e07fbedcd63f03300f0c57e16840df040f15088dc2f81fe391c3923bec73e23a9662efc9c229c6a00f0c57e16840df040f15088dc2f81fe391c3923bec73e23a9662efc9c229c6a00","linkReferences":{}},"methodIdentifiers":{"DOMAIN_SEPARATOR()":"3644e515","UPGRADE_INTERFACE_VERSION()":"ad3cb1cc","areValidators(address[])":"8f381dbe","bumpProtocolVersion(uint8)":"5734c0e1","codeState(bytes32)":"c13911e8","codesStates(bytes32[])":"82bdeaad","commitBatch((bytes32,uint48,bytes32,uint8,((address,bytes32,bool,address,uint128,bool,(bytes32,address,uint128)[],(bytes32,address,bytes,uint128,(bytes32,bytes4),bool)[],bytes[],bytes[])[],bytes32,bytes32)[],(bytes32,bool)[],((uint256,bytes32),((address,uint256)[],uint256,address),uint48)[],(bool,(uint256,uint256),bytes,address[],uint256)[]),uint8,bytes[])":"e9a28a60","computeSettings()":"84d22a4f","createProgram(bytes32,bytes32,address)":"3683c4d2","createProgramWithAbiInterface(bytes32,bytes32,address,address)":"0c18d277","createProgramWithAbiInterfaceAndExecutableBalance(bytes32,bytes32,address,address,uint128,uint256,uint8,bytes32,bytes32)":"ee32004f","createProgramWithExecutableBalance(bytes32,bytes32,address,uint128,uint256,uint8,bytes32,bytes32)":"0d91bf2a","eip712Domain()":"84b0196e","genesisBlockHash()":"28e24b3d","genesisTimestamp()":"cacf66ab","initialize(address,address,address,address,uint256,uint256,uint256,(uint256,uint256),bytes,address[])":"53f7fd48","isValidator(address)":"facd743b","latestCommittedBatchHash()":"71a8cf2d","latestCommittedBatchTimestamp()":"d456fd51","lookupGenesisHash()":"8b1edf1e","middleware()":"f4f20ac0","mirrorImpl()":"e6fabc09","nonces(address)":"7ecebe00","owner()":"8da5cb5b","pause()":"8456cb59","paused()":"5c975abb","programCodeId(address)":"9067088e","programsCodeIds(address[])":"baaf0201","programsCount()":"96a2ddfa","protocolVersion()":"2ae9c600","proxiableUUID()":"52d1902d","reinitialize()":"6c2eb350","renounceOwnership()":"715018a6","requestCodeValidation(bytes32,uint256,uint8,bytes32,bytes32)":"8c4ace6a","requestCodeValidationBaseFee()":"188509e9","requestCodeValidationExtraFee()":"f1ef31ec","requestCodeValidationOnBehalf(address,bytes32,bytes32[],uint256,uint8,bytes32,bytes32,uint8,bytes32,bytes32)":"f0fd702a","setMirror(address)":"3d43b418","setRequestCodeValidationBaseFee(uint256)":"11bec80d","setRequestCodeValidationExtraFee(uint256)":"0b9737ce","signingThresholdFraction()":"e3a6684f","storageView()":"c2eb812f","subProtocolVersion(uint8)":"ed018262","timelines()":"9eb939a8","transferOwnership(address)":"f2fde38b","unpause()":"3f4ba83a","upgradeToAndCall(address,bytes)":"4f1ef286","validatedCodesCount()":"007a32e7","validators()":"ca1e7819","validatorsAggregatedPublicKey()":"3bd109fa","validatorsCount()":"ed612f8c","validatorsThreshold()":"edc87225","validatorsVerifiableSecretSharingCommitment()":"a5d53a44","wrappedVara()":"88f50cf0"},"storageLayout":{"storage":[],"types":{}},"id":164}