{"abi":[{"type":"constructor","inputs":[],"stateMutability":"nonpayable"},{"type":"receive","stateMutability":"payable"},{"type":"function","name":"DOMAIN_SEPARATOR","inputs":[],"outputs":[{"name":"","type":"bytes32","internalType":"bytes32"}],"stateMutability":"view"},{"type":"function","name":"UPGRADE_INTERFACE_VERSION","inputs":[],"outputs":[{"name":"","type":"string","internalType":"string"}],"stateMutability":"view"},{"type":"function","name":"areValidators","inputs":[{"name":"_validators","type":"address[]","internalType":"address[]"}],"outputs":[{"name":"","type":"bool","internalType":"bool"}],"stateMutability":"view"},{"type":"function","name":"codeState","inputs":[{"name":"_codeId","type":"bytes32","internalType":"bytes32"}],"outputs":[{"name":"","type":"uint8","internalType":"enum Gear.CodeState"}],"stateMutability":"view"},{"type":"function","name":"codesStates","inputs":[{"name":"_codesIds","type":"bytes32[]","internalType":"bytes32[]"}],"outputs":[{"name":"","type":"uint8[]","internalType":"enum Gear.CodeState[]"}],"stateMutability":"view"},{"type":"function","name":"commitBatch","inputs":[{"name":"_batch","type":"tuple","internalType":"struct Gear.BatchCommitment","components":[{"name":"blockHash","type":"bytes32","internalType":"bytes32"},{"name":"blockTimestamp","type":"uint48","internalType":"uint48"},{"name":"previousCommittedBatchHash","type":"bytes32","internalType":"bytes32"},{"name":"expiry","type":"uint8","internalType":"uint8"},{"name":"chainCommitment","type":"tuple[]","internalType":"struct Gear.ChainCommitment[]","components":[{"name":"transitions","type":"tuple[]","internalType":"struct Gear.StateTransition[]","components":[{"name":"actorId","type":"address","internalType":"address"},{"name":"newStateHash","type":"bytes32","internalType":"bytes32"},{"name":"exited","type":"bool","internalType":"bool"},{"name":"inheritor","type":"address","internalType":"address"},{"name":"valueToReceive","type":"uint128","internalType":"uint128"},{"name":"valueToReceiveNegativeSign","type":"bool","internalType":"bool"},{"name":"valueClaims","type":"tuple[]","internalType":"struct Gear.ValueClaim[]","components":[{"name":"messageId","type":"bytes32","internalType":"bytes32"},{"name":"destination","type":"address","internalType":"address"},{"name":"value","type":"uint128","internalType":"uint128"}]},{"name":"messages","type":"tuple[]","internalType":"struct Gear.Message[]","components":[{"name":"id","type":"bytes32","internalType":"bytes32"},{"name":"destination","type":"address","internalType":"address"},{"name":"payload","type":"bytes","internalType":"bytes"},{"name":"value","type":"uint128","internalType":"uint128"},{"name":"replyDetails","type":"tuple","internalType":"struct Gear.ReplyDetails","components":[{"name":"to","type":"bytes32","internalType":"bytes32"},{"name":"code","type":"bytes4","internalType":"bytes4"}]},{"name":"call","type":"bool","internalType":"bool"}]}]},{"name":"head","type":"bytes32","internalType":"bytes32"}]},{"name":"codeCommitments","type":"tuple[]","internalType":"struct Gear.CodeCommitment[]","components":[{"name":"id","type":"bytes32","internalType":"bytes32"},{"name":"valid","type":"bool","internalType":"bool"}]},{"name":"rewardsCommitment","type":"tuple[]","internalType":"struct Gear.RewardsCommitment[]","components":[{"name":"operators","type":"tuple","internalType":"struct Gear.OperatorRewardsCommitment","components":[{"name":"amount","type":"uint256","internalType":"uint256"},{"name":"root","type":"bytes32","internalType":"bytes32"}]},{"name":"stakers","type":"tuple","internalType":"struct Gear.StakerRewardsCommitment","components":[{"name":"distribution","type":"tuple[]","internalType":"struct Gear.StakerRewards[]","components":[{"name":"vault","type":"address","internalType":"address"},{"name":"amount","type":"uint256","internalType":"uint256"}]},{"name":"totalAmount","type":"uint256","internalType":"uint256"},{"name":"token","type":"address","internalType":"address"}]},{"name":"timestamp","type":"uint48","internalType":"uint48"}]},{"name":"validatorsCommitment","type":"tuple[]","internalType":"struct Gear.ValidatorsCommitment[]","components":[{"name":"aggregatedPublicKey","type":"tuple","internalType":"struct Gear.AggregatedPublicKey","components":[{"name":"x","type":"uint256","internalType":"uint256"},{"name":"y","type":"uint256","internalType":"uint256"}]},{"name":"verifiableSecretSharingCommitment","type":"bytes","internalType":"bytes"},{"name":"validators","type":"address[]","internalType":"address[]"},{"name":"eraIndex","type":"uint256","internalType":"uint256"}]}]},{"name":"_signatureType","type":"uint8","internalType":"enum Gear.SignatureType"},{"name":"_signatures","type":"bytes[]","internalType":"bytes[]"}],"outputs":[],"stateMutability":"nonpayable"},{"type":"function","name":"computeSettings","inputs":[],"outputs":[{"name":"","type":"tuple","internalType":"struct Gear.ComputationSettings","components":[{"name":"threshold","type":"uint64","internalType":"uint64"},{"name":"wvaraPerSecond","type":"uint128","internalType":"uint128"}]}],"stateMutability":"view"},{"type":"function","name":"createProgram","inputs":[{"name":"_codeId","type":"bytes32","internalType":"bytes32"},{"name":"_salt","type":"bytes32","internalType":"bytes32"},{"name":"_overrideInitializer","type":"address","internalType":"address"}],"outputs":[{"name":"","type":"address","internalType":"address"}],"stateMutability":"nonpayable"},{"type":"function","name":"createProgramWithAbiInterface","inputs":[{"name":"_codeId","type":"bytes32","internalType":"bytes32"},{"name":"_salt","type":"bytes32","internalType":"bytes32"},{"name":"_overrideInitializer","type":"address","internalType":"address"},{"name":"_abiInterface","type":"address","internalType":"address"}],"outputs":[{"name":"","type":"address","internalType":"address"}],"stateMutability":"nonpayable"},{"type":"function","name":"createProgramWithAbiInterfaceAndValue","inputs":[{"name":"_codeId","type":"bytes32","internalType":"bytes32"},{"name":"_salt","type":"bytes32","internalType":"bytes32"},{"name":"_overrideInitializer","type":"address","internalType":"address"},{"name":"_abiInterface","type":"address","internalType":"address"},{"name":"_value","type":"uint128","internalType":"uint128"},{"name":"_deadline","type":"uint256","internalType":"uint256"},{"name":"_v","type":"uint8","internalType":"uint8"},{"name":"_r","type":"bytes32","internalType":"bytes32"},{"name":"_s","type":"bytes32","internalType":"bytes32"}],"outputs":[{"name":"","type":"address","internalType":"address"}],"stateMutability":"nonpayable"},{"type":"function","name":"createProgramWithValue","inputs":[{"name":"_codeId","type":"bytes32","internalType":"bytes32"},{"name":"_salt","type":"bytes32","internalType":"bytes32"},{"name":"_overrideInitializer","type":"address","internalType":"address"},{"name":"_value","type":"uint128","internalType":"uint128"},{"name":"_deadline","type":"uint256","internalType":"uint256"},{"name":"_v","type":"uint8","internalType":"uint8"},{"name":"_r","type":"bytes32","internalType":"bytes32"},{"name":"_s","type":"bytes32","internalType":"bytes32"}],"outputs":[{"name":"","type":"address","internalType":"address"}],"stateMutability":"nonpayable"},{"type":"function","name":"eip712Domain","inputs":[],"outputs":[{"name":"fields","type":"bytes1","internalType":"bytes1"},{"name":"name","type":"string","internalType":"string"},{"name":"version","type":"string","internalType":"string"},{"name":"chainId","type":"uint256","internalType":"uint256"},{"name":"verifyingContract","type":"address","internalType":"address"},{"name":"salt","type":"bytes32","internalType":"bytes32"},{"name":"extensions","type":"uint256[]","internalType":"uint256[]"}],"stateMutability":"view"},{"type":"function","name":"genesisBlockHash","inputs":[],"outputs":[{"name":"","type":"bytes32","internalType":"bytes32"}],"stateMutability":"view"},{"type":"function","name":"genesisTimestamp","inputs":[],"outputs":[{"name":"","type":"uint48","internalType":"uint48"}],"stateMutability":"view"},{"type":"function","name":"initialize","inputs":[{"name":"_owner","type":"address","internalType":"address"},{"name":"_mirror","type":"address","internalType":"address"},{"name":"_wrappedVara","type":"address","internalType":"address"},{"name":"_middleware","type":"address","internalType":"address"},{"name":"_eraDuration","type":"uint256","internalType":"uint256"},{"name":"_electionDuration","type":"uint256","internalType":"uint256"},{"name":"_validationDelay","type":"uint256","internalType":"uint256"},{"name":"_aggregatedPublicKey","type":"tuple","internalType":"struct Gear.AggregatedPublicKey","components":[{"name":"x","type":"uint256","internalType":"uint256"},{"name":"y","type":"uint256","internalType":"uint256"}]},{"name":"_verifiableSecretSharingCommitment","type":"bytes","internalType":"bytes"},{"name":"_validators","type":"address[]","internalType":"address[]"}],"outputs":[],"stateMutability":"nonpayable"},{"type":"function","name":"isValidator","inputs":[{"name":"_validator","type":"address","internalType":"address"}],"outputs":[{"name":"","type":"bool","internalType":"bool"}],"stateMutability":"view"},{"type":"function","name":"latestCommittedBatchHash","inputs":[],"outputs":[{"name":"","type":"bytes32","internalType":"bytes32"}],"stateMutability":"view"},{"type":"function","name":"latestCommittedBatchTimestamp","inputs":[],"outputs":[{"name":"","type":"uint48","internalType":"uint48"}],"stateMutability":"view"},{"type":"function","name":"lookupGenesisHash","inputs":[],"outputs":[],"stateMutability":"nonpayable"},{"type":"function","name":"middleware","inputs":[],"outputs":[{"name":"","type":"address","internalType":"address"}],"stateMutability":"view"},{"type":"function","name":"mirrorImpl","inputs":[],"outputs":[{"name":"","type":"address","internalType":"address"}],"stateMutability":"view"},{"type":"function","name":"nonces","inputs":[{"name":"owner","type":"address","internalType":"address"}],"outputs":[{"name":"","type":"uint256","internalType":"uint256"}],"stateMutability":"view"},{"type":"function","name":"owner","inputs":[],"outputs":[{"name":"","type":"address","internalType":"address"}],"stateMutability":"view"},{"type":"function","name":"pause","inputs":[],"outputs":[],"stateMutability":"nonpayable"},{"type":"function","name":"paused","inputs":[],"outputs":[{"name":"","type":"bool","internalType":"bool"}],"stateMutability":"view"},{"type":"function","name":"programCodeId","inputs":[{"name":"_programId","type":"address","internalType":"address"}],"outputs":[{"name":"","type":"bytes32","internalType":"bytes32"}],"stateMutability":"view"},{"type":"function","name":"programsCodeIds","inputs":[{"name":"_programsIds","type":"address[]","internalType":"address[]"}],"outputs":[{"name":"","type":"bytes32[]","internalType":"bytes32[]"}],"stateMutability":"view"},{"type":"function","name":"programsCount","inputs":[],"outputs":[{"name":"","type":"uint256","internalType":"uint256"}],"stateMutability":"view"},{"type":"function","name":"proxiableUUID","inputs":[],"outputs":[{"name":"","type":"bytes32","internalType":"bytes32"}],"stateMutability":"view"},{"type":"function","name":"reinitialize","inputs":[],"outputs":[],"stateMutability":"nonpayable"},{"type":"function","name":"renounceOwnership","inputs":[],"outputs":[],"stateMutability":"nonpayable"},{"type":"function","name":"requestCodeValidation","inputs":[{"name":"_codeId","type":"bytes32","internalType":"bytes32"},{"name":"_deadline","type":"uint256","internalType":"uint256"},{"name":"_v","type":"uint8","internalType":"uint8"},{"name":"_r","type":"bytes32","internalType":"bytes32"},{"name":"_s","type":"bytes32","internalType":"bytes32"}],"outputs":[],"stateMutability":"nonpayable"},{"type":"function","name":"requestCodeValidationBaseFee","inputs":[],"outputs":[{"name":"","type":"uint256","internalType":"uint256"}],"stateMutability":"view"},{"type":"function","name":"requestCodeValidationExtraFee","inputs":[],"outputs":[{"name":"","type":"uint256","internalType":"uint256"}],"stateMutability":"view"},{"type":"function","name":"requestCodeValidationOnBehalf","inputs":[{"name":"_requester","type":"address","internalType":"address"},{"name":"_codeId","type":"bytes32","internalType":"bytes32"},{"name":"_blobHashes","type":"bytes32[]","internalType":"bytes32[]"},{"name":"_deadline","type":"uint256","internalType":"uint256"},{"name":"_v1","type":"uint8","internalType":"uint8"},{"name":"_r1","type":"bytes32","internalType":"bytes32"},{"name":"_s1","type":"bytes32","internalType":"bytes32"},{"name":"_v2","type":"uint8","internalType":"uint8"},{"name":"_r2","type":"bytes32","internalType":"bytes32"},{"name":"_s2","type":"bytes32","internalType":"bytes32"}],"outputs":[],"stateMutability":"nonpayable"},{"type":"function","name":"setMirror","inputs":[{"name":"newMirror","type":"address","internalType":"address"}],"outputs":[],"stateMutability":"nonpayable"},{"type":"function","name":"setRequestCodeValidationBaseFee","inputs":[{"name":"newBaseFee","type":"uint256","internalType":"uint256"}],"outputs":[],"stateMutability":"nonpayable"},{"type":"function","name":"setRequestCodeValidationExtraFee","inputs":[{"name":"newExtraFee","type":"uint256","internalType":"uint256"}],"outputs":[],"stateMutability":"nonpayable"},{"type":"function","name":"signingThresholdFraction","inputs":[],"outputs":[{"name":"thresholdNumerator","type":"uint128","internalType":"uint128"},{"name":"thresholdDenominator","type":"uint128","internalType":"uint128"}],"stateMutability":"view"},{"type":"function","name":"storageView","inputs":[],"outputs":[{"name":"","type":"tuple","internalType":"struct IRouter.StorageView","components":[{"name":"genesisBlock","type":"tuple","internalType":"struct Gear.GenesisBlockInfo","components":[{"name":"hash","type":"bytes32","internalType":"bytes32"},{"name":"number","type":"uint32","internalType":"uint32"},{"name":"timestamp","type":"uint48","internalType":"uint48"}]},{"name":"latestCommittedBatch","type":"tuple","internalType":"struct Gear.CommittedBatchInfo","components":[{"name":"hash","type":"bytes32","internalType":"bytes32"},{"name":"timestamp","type":"uint48","internalType":"uint48"}]},{"name":"implAddresses","type":"tuple","internalType":"struct Gear.AddressBook","components":[{"name":"mirror","type":"address","internalType":"address"},{"name":"wrappedVara","type":"address","internalType":"address"},{"name":"middleware","type":"address","internalType":"address"}]},{"name":"validationSettings","type":"tuple","internalType":"struct Gear.ValidationSettingsView","components":[{"name":"thresholdNumerator","type":"uint128","internalType":"uint128"},{"name":"thresholdDenominator","type":"uint128","internalType":"uint128"},{"name":"validators0","type":"tuple","internalType":"struct Gear.ValidatorsView","components":[{"name":"aggregatedPublicKey","type":"tuple","internalType":"struct Gear.AggregatedPublicKey","components":[{"name":"x","type":"uint256","internalType":"uint256"},{"name":"y","type":"uint256","internalType":"uint256"}]},{"name":"verifiableSecretSharingCommitmentPointer","type":"address","internalType":"address"},{"name":"list","type":"address[]","internalType":"address[]"},{"name":"useFromTimestamp","type":"uint256","internalType":"uint256"}]},{"name":"validators1","type":"tuple","internalType":"struct Gear.ValidatorsView","components":[{"name":"aggregatedPublicKey","type":"tuple","internalType":"struct Gear.AggregatedPublicKey","components":[{"name":"x","type":"uint256","internalType":"uint256"},{"name":"y","type":"uint256","internalType":"uint256"}]},{"name":"verifiableSecretSharingCommitmentPointer","type":"address","internalType":"address"},{"name":"list","type":"address[]","internalType":"address[]"},{"name":"useFromTimestamp","type":"uint256","internalType":"uint256"}]}]},{"name":"computeSettings","type":"tuple","internalType":"struct Gear.ComputationSettings","components":[{"name":"threshold","type":"uint64","internalType":"uint64"},{"name":"wvaraPerSecond","type":"uint128","internalType":"uint128"}]},{"name":"timelines","type":"tuple","internalType":"struct Gear.Timelines","components":[{"name":"era","type":"uint256","internalType":"uint256"},{"name":"election","type":"uint256","internalType":"uint256"},{"name":"validationDelay","type":"uint256","internalType":"uint256"}]},{"name":"programsCount","type":"uint256","internalType":"uint256"},{"name":"validatedCodesCount","type":"uint256","internalType":"uint256"},{"name":"requestCodeValidationBaseFee","type":"uint256","internalType":"uint256"},{"name":"requestCodeValidationExtraFee","type":"uint256","internalType":"uint256"}]}],"stateMutability":"view"},{"type":"function","name":"timelines","inputs":[],"outputs":[{"name":"","type":"tuple","internalType":"struct Gear.Timelines","components":[{"name":"era","type":"uint256","internalType":"uint256"},{"name":"election","type":"uint256","internalType":"uint256"},{"name":"validationDelay","type":"uint256","internalType":"uint256"}]}],"stateMutability":"view"},{"type":"function","name":"transferOwnership","inputs":[{"name":"newOwner","type":"address","internalType":"address"}],"outputs":[],"stateMutability":"nonpayable"},{"type":"function","name":"unpause","inputs":[],"outputs":[],"stateMutability":"nonpayable"},{"type":"function","name":"upgradeToAndCall","inputs":[{"name":"newImplementation","type":"address","internalType":"address"},{"name":"data","type":"bytes","internalType":"bytes"}],"outputs":[],"stateMutability":"payable"},{"type":"function","name":"validatedCodesCount","inputs":[],"outputs":[{"name":"","type":"uint256","internalType":"uint256"}],"stateMutability":"view"},{"type":"function","name":"validators","inputs":[],"outputs":[{"name":"","type":"address[]","internalType":"address[]"}],"stateMutability":"view"},{"type":"function","name":"validatorsAggregatedPublicKey","inputs":[],"outputs":[{"name":"","type":"tuple","internalType":"struct Gear.AggregatedPublicKey","components":[{"name":"x","type":"uint256","internalType":"uint256"},{"name":"y","type":"uint256","internalType":"uint256"}]}],"stateMutability":"view"},{"type":"function","name":"validatorsCount","inputs":[],"outputs":[{"name":"","type":"uint256","internalType":"uint256"}],"stateMutability":"view"},{"type":"function","name":"validatorsThreshold","inputs":[],"outputs":[{"name":"","type":"uint256","internalType":"uint256"}],"stateMutability":"view"},{"type":"function","name":"validatorsVerifiableSecretSharingCommitment","inputs":[],"outputs":[{"name":"","type":"bytes","internalType":"bytes"}],"stateMutability":"view"},{"type":"function","name":"wrappedVara","inputs":[],"outputs":[{"name":"","type":"address","internalType":"address"}],"stateMutability":"view"},{"type":"event","name":"AnnouncesCommitted","inputs":[{"name":"head","type":"bytes32","indexed":false,"internalType":"bytes32"}],"anonymous":false},{"type":"event","name":"BatchCommitted","inputs":[{"name":"hash","type":"bytes32","indexed":false,"internalType":"bytes32"}],"anonymous":false},{"type":"event","name":"CodeGotValidated","inputs":[{"name":"codeId","type":"bytes32","indexed":false,"internalType":"bytes32"},{"name":"valid","type":"bool","indexed":true,"internalType":"bool"}],"anonymous":false},{"type":"event","name":"CodeValidationRequested","inputs":[{"name":"codeId","type":"bytes32","indexed":false,"internalType":"bytes32"}],"anonymous":false},{"type":"event","name":"ComputationSettingsChanged","inputs":[{"name":"threshold","type":"uint64","indexed":false,"internalType":"uint64"},{"name":"wvaraPerSecond","type":"uint128","indexed":false,"internalType":"uint128"}],"anonymous":false},{"type":"event","name":"EIP712DomainChanged","inputs":[],"anonymous":false},{"type":"event","name":"Initialized","inputs":[{"name":"version","type":"uint64","indexed":false,"internalType":"uint64"}],"anonymous":false},{"type":"event","name":"OwnershipTransferred","inputs":[{"name":"previousOwner","type":"address","indexed":true,"internalType":"address"},{"name":"newOwner","type":"address","indexed":true,"internalType":"address"}],"anonymous":false},{"type":"event","name":"Paused","inputs":[{"name":"account","type":"address","indexed":false,"internalType":"address"}],"anonymous":false},{"type":"event","name":"ProgramCreated","inputs":[{"name":"actorId","type":"address","indexed":false,"internalType":"address"},{"name":"codeId","type":"bytes32","indexed":true,"internalType":"bytes32"}],"anonymous":false},{"type":"event","name":"StorageSlotChanged","inputs":[{"name":"slot","type":"bytes32","indexed":false,"internalType":"bytes32"}],"anonymous":false},{"type":"event","name":"Unpaused","inputs":[{"name":"account","type":"address","indexed":false,"internalType":"address"}],"anonymous":false},{"type":"event","name":"Upgraded","inputs":[{"name":"implementation","type":"address","indexed":true,"internalType":"address"}],"anonymous":false},{"type":"event","name":"ValidatorsCommittedForEra","inputs":[{"name":"eraIndex","type":"uint256","indexed":false,"internalType":"uint256"}],"anonymous":false},{"type":"error","name":"AddressEmptyCode","inputs":[{"name":"target","type":"address","internalType":"address"}]},{"type":"error","name":"ApproveERC20Failed","inputs":[]},{"type":"error","name":"BatchTimestampNotInPast","inputs":[]},{"type":"error","name":"BatchTimestampTooEarly","inputs":[]},{"type":"error","name":"BlobNotFound","inputs":[]},{"type":"error","name":"CodeAlreadyOnValidationOrValidated","inputs":[]},{"type":"error","name":"CodeNotValidated","inputs":[]},{"type":"error","name":"CodeValidationNotRequested","inputs":[]},{"type":"error","name":"CommitmentEraNotNext","inputs":[]},{"type":"error","name":"ECDSAInvalidSignature","inputs":[]},{"type":"error","name":"ECDSAInvalidSignatureLength","inputs":[{"name":"length","type":"uint256","internalType":"uint256"}]},{"type":"error","name":"ECDSAInvalidSignatureS","inputs":[{"name":"s","type":"bytes32","internalType":"bytes32"}]},{"type":"error","name":"ERC1967InvalidImplementation","inputs":[{"name":"implementation","type":"address","internalType":"address"}]},{"type":"error","name":"ERC1967NonPayable","inputs":[]},{"type":"error","name":"ElectionNotStarted","inputs":[]},{"type":"error","name":"EmptyValidatorsList","inputs":[]},{"type":"error","name":"EnforcedPause","inputs":[]},{"type":"error","name":"EraDurationTooShort","inputs":[]},{"type":"error","name":"ErasTimestampMustNotBeEqual","inputs":[]},{"type":"error","name":"ExpectedPause","inputs":[]},{"type":"error","name":"ExpiredSignature","inputs":[{"name":"deadline","type":"uint256","internalType":"uint256"}]},{"type":"error","name":"FailedCall","inputs":[]},{"type":"error","name":"GenesisHashAlreadySet","inputs":[]},{"type":"error","name":"GenesisHashNotFound","inputs":[]},{"type":"error","name":"InvalidAccountNonce","inputs":[{"name":"account","type":"address","internalType":"address"},{"name":"currentNonce","type":"uint256","internalType":"uint256"}]},{"type":"error","name":"InvalidBlobHash","inputs":[{"name":"index","type":"uint256","internalType":"uint256"},{"name":"providedBlobHash","type":"bytes32","internalType":"bytes32"},{"name":"expectedBlobHash","type":"bytes32","internalType":"bytes32"}]},{"type":"error","name":"InvalidBlobHashesLength","inputs":[{"name":"providedLength","type":"uint256","internalType":"uint256"},{"name":"expectedLength","type":"uint256","internalType":"uint256"}]},{"type":"error","name":"InvalidElectionDuration","inputs":[]},{"type":"error","name":"InvalidFROSTAggregatedPublicKey","inputs":[]},{"type":"error","name":"InvalidFrostSignatureCount","inputs":[]},{"type":"error","name":"InvalidFrostSignatureLength","inputs":[]},{"type":"error","name":"InvalidInitialization","inputs":[]},{"type":"error","name":"InvalidPreviousCommittedBatchHash","inputs":[]},{"type":"error","name":"InvalidSigner","inputs":[{"name":"signer","type":"address","internalType":"address"},{"name":"requester","type":"address","internalType":"address"}]},{"type":"error","name":"InvalidTimestamp","inputs":[]},{"type":"error","name":"NotInitializing","inputs":[]},{"type":"error","name":"OwnableInvalidOwner","inputs":[{"name":"owner","type":"address","internalType":"address"}]},{"type":"error","name":"OwnableUnauthorizedAccount","inputs":[{"name":"account","type":"address","internalType":"address"}]},{"type":"error","name":"PredecessorBlockNotFound","inputs":[]},{"type":"error","name":"ReentrancyGuardReentrantCall","inputs":[]},{"type":"error","name":"RewardsCommitmentEraNotPrevious","inputs":[]},{"type":"error","name":"RewardsCommitmentPredatesGenesis","inputs":[]},{"type":"error","name":"RewardsCommitmentTimestampNotInPast","inputs":[]},{"type":"error","name":"RouterGenesisHashNotInitialized","inputs":[]},{"type":"error","name":"SafeCastOverflowedUintDowncast","inputs":[{"name":"bits","type":"uint8","internalType":"uint8"},{"name":"value","type":"uint256","internalType":"uint256"}]},{"type":"error","name":"SignatureVerificationFailed","inputs":[]},{"type":"error","name":"TimestampInFuture","inputs":[]},{"type":"error","name":"TimestampOlderThanPreviousEra","inputs":[]},{"type":"error","name":"TooManyChainCommitments","inputs":[]},{"type":"error","name":"TooManyRewardsCommitments","inputs":[]},{"type":"error","name":"TooManyValidatorsCommitments","inputs":[]},{"type":"error","name":"TransferFromFailed","inputs":[]},{"type":"error","name":"UUPSUnauthorizedCallContext","inputs":[]},{"type":"error","name":"UUPSUnsupportedProxiableUUID","inputs":[{"name":"slot","type":"bytes32","internalType":"bytes32"}]},{"type":"error","name":"UnknownProgram","inputs":[]},{"type":"error","name":"ValidationBeforeGenesis","inputs":[]},{"type":"error","name":"ValidationDelayTooBig","inputs":[]},{"type":"error","name":"ValidatorsAlreadyScheduled","inputs":[]},{"type":"error","name":"ValidatorsNotFoundForTimestamp","inputs":[]},{"type":"error","name":"ZeroValueTransfer","inputs":[]}],"bytecode":{"object":"0x60a080604052346100c257306080525f5160206159845f395f51905f525460ff8160401c166100b3576002600160401b03196001600160401b03821601610060575b6040516158bd90816100c78239608051818181612a9a0152612b2d0152f35b6001600160401b0319166001600160401b039081175f5160206159845f395f51905f525581527fc7f505b2f371ae2175ee4913f4499e1f2633a7b5936321eed1cdaeb6115181d290602090a15f80610041565b63f92ee8a960e01b5f5260045ffd5b5f80fdfe6080806040526004361015610091575b50361561001a575f80fd5b6100226139b2565b5f51602061583d5f395f51905f5254600181015415610082576001600160801b0334161561007357335f908152601a9190910160205260409020541561006457005b63821a62f560e01b5f5260045ffd5b63a1a7c6eb60e01b5f5260045ffd5b63580683f360e01b5f5260045ffd5b5f905f3560e01c9081627a32e714613258575080630b9737ce146132255780630c18d2771461315a57806311bec80d14613127578063188509e9146130f957806328e24b3d146130cb57806333e0d48e14612efd5780633644e51514612ee25780633683c4d214612e255780633bd109fa14612dd65780633d43b41814612d825780633f4ba83a14612d025780634f1ef28614612aee57806352d1902d14612a8757806353f7fd48146122795780635c975abb1461224a5780636c2eb35014611cfc5780636e55012a14611b1a578063715018a614611ab157806371a8cf2d14611a835780637ecebe0014611a2b57806382bdeaad146119135780638456cb59146118a057806384b0196e1461177857806384d22a4f1461171a57806388f50cf0146116e15780638b1edf1e146116825780638c4ace6a146115225780638da5cb5b146114ed5780638f381dbe146114a75780639067088e1461145e57806396a2ddfa146114305780639eb939a8146113d9578063a5d53a4414611359578063ad3cb1cc14611310578063b24fcac014610e7a578063baaf020114610d79578063c13911e814610d35578063c2eb812f146109d2578063ca1e781914610982578063cacf66ab1461094a578063d456fd5114610914578063e3a6684f146108d5578063e6fabc091461089c578063ed612f8c14610864578063edc872251461080f578063f0fd702a146103b7578063f1ef31ec14610389578063f2fde38b1461035c578063f4f20ac0146103235763facd743b0361000f5734610320576020366003190112610320576102e26132ae565b60036102fd5f51602061583d5f395f51905f52544290615245565b019060018060a01b03165f52602052602060ff60405f2054166040519015158152f35b80fd5b50346103205780600319360112610320575f51602061583d5f395f51905f5254600701546040516001600160a01b039091168152602090f35b5034610320576020366003190112610320576103866103796132ae565b61038161397f565b61390e565b80f35b50346103205780600319360112610320576020601e5f51602061583d5f395f51905f52540154604051908152f35b503461032057610140366003190112610320576103d26132ae565b602435906044356001600160401b03811161080b576103f59036906004016133fd565b90916064359060843560ff811681036108075760e4359060ff821682036108035761041e6139b2565b8749156107f4575f51602061583d5f395f51905f5254946001860154156107e5576019860196888a528760205260ff60408b20541660038110156107d1576107c257895b80496107b45780830361079d5750895b82811061075657508542116107425760405160208101906001600160fb1b03841161073e576104bd602082610588956105919760051b8091873781010301601f19810183528261336d565b5190209260018060a01b03861693848c527f5ab42ced628888259c08ac98db1eb0cf702fc1501344311d8b100cd1bfe4bb0060205260408c208054906001820190556040519060208201927f375d2ef9b9e33c640a295f53873dc74833c3d019f349464ce2fe8899962b809784528760408401528d6060840152608083015260a08201528860c082015260c0815261055660e08261336d565b5190206105616151e4565b906040519161190160f01b83526002830152602282015260c43591604260a4359220615516565b90929192615598565b6001600160a01b031681810361072957505086906105c660018060a01b0360068701541695601e601d82015491015490613901565b93853b156107255760405163d505accf60e01b81526001600160a01b038516600482015230602482015260448101869052606481019190915260ff9190911660848201526101043560a48201526101243560c4820152818160e48183895af1610708575b506040516323b872dd60e01b81526001600160a01b039092166004830152306024830152604482019290925291602091839190829081606481015b03925af19081156106fd5784916106ce575b50156106bf5781835260209081526040808420805460ff19166001179055519182527f5c261a095dd5720475295dc06379921c003c22164ee6cae5cf83e76ce0a1b98591a180f35b631e4e7d0960e21b8352600483fd5b6106f0915060203d6020116106f6575b6106e8818361336d565b81019061353f565b5f610677565b503d6106de565b6040513d86823e3d90fd5b816107159194939461336d565b6107215790855f61062a565b8580fd5b8280fd5b637ba5ffb560e01b8952600452602452604487fd5b8b80fd5b632f4aa44f60e21b8a52600486905260248afd5b8049806107648386866136e8565b35146107718386866136e8565b359015610782575050600101610472565b606493508c926306f2f0e760e21b8452600452602452604452fd5b635cfa404d60e11b8b52600483905260245260448afd5b6107bd906138f3565b610462565b6304c51a3360e31b8a5260048afd5b634e487b7160e01b8b52602160045260248bfd5b63580683f360e01b8952600489fd5b637bb2fa2f60e11b8852600488fd5b8780fd5b8680fd5b8380fd5b5034610320578060031936011261032057602061085c5f51602061583d5f395f51905f5254600860046108424284615245565b0154910154906001600160801b038260801c9216906151b9565b604051908152f35b5034610320578060031936011261032057602060046108925f51602061583d5f395f51905f52544290615245565b0154604051908152f35b50346103205780600319360112610320575f51602061583d5f395f51905f5254600501546040516001600160a01b039091168152602090f35b5034610320578060031936011261032057604060085f51602061583d5f395f51905f525401548151906001600160801b038116825260801c6020820152f35b5034610320578060031936011261032057602065ffffffffffff60045f51602061583d5f395f51905f5254015416604051908152f35b5034610320578060031936011261032057602065ffffffffffff60025f51602061583d5f395f51905f52540154821c16604051908152f35b50346103205780600319360112610320576109ce6109ba60046109b45f51602061583d5f395f51905f52544290615245565b016138a0565b604051918291602083526020830190613472565b0390f35b50346103205780600319360112610320576040516109ef81613336565b6109f76137ce565b8152604051610a058161331b565b5f8152602081015f90526020820152610a1c6137ce565b6040820152610a2961386d565b6060820152604051610a3a8161331b565b5f80825260208201526080820152610a506137ce565b60a08201528160c08201528160e08201528161010082015261012001525f51602061583d5f395f51905f5254610a8461386d565b50610a91600982016154c1565b90610a9e600f82016154c1565b60088201549260405193610ab185613352565b6001600160801b038116855260801c602085015260408401526060830152601b81015490601c810154601d820154601e8301549160405194610af286613336565b604051610afe816132ec565b60018601548152600286015463ffffffff8116602083015260201c65ffffffffffff166040820152865260405196610b358861331b565b60038601548852600486015465ffffffffffff1660208901526020870197885260405190610b62826132ec565b60058701546001600160a01b039081168352600688015481166020840152600788015416604080840191909152880191825260608801908152610ba760158801613720565b9660808901978852601601610bbb906137ec565b9160a0890192835260c0890193845260e0890194855261010089019586526101208901968752604051998a9960208b5251805160208c0152602081015163ffffffff1660408c01526040015165ffffffffffff1660608b015251805160808b01526020015165ffffffffffff1660a08a015251600160a01b6001900381511660c08a0152600160a01b6001900360208201511660e08a0152600160a01b60019003906040015116610100890152516101208801610240905280516001600160801b031661026089015260208101516001600160801b031661028089015260408101516102a08901608090526102e08901610cb4916134ae565b90606001519061025f19898203016102c08a0152610cd1916134ae565b955180516001600160401b0316610140890152602001516001600160801b031661016088015251805161018088015260208101516101a0880152604001516101c0870152516101e08601525161020085015251610220840152516102408301520390f35b50346103205760203660031901126103205760ff604060209260195f51602061583d5f395f51905f52540160043582528452205416610d77604051809261342d565bf35b5034610320576020366003190112610320576004356001600160401b038111610e7657610daa9036906004016133fd565b905f51602061583d5f395f51905f525490610dc48361367d565b91610dd2604051938461336d565b838352610dde8461367d565b602084019490601f1901368637601a869201915b818110610e3d57868587604051928392602084019060208552518091526040840192915b818110610e24575050500390f35b8251845285945060209384019390920191600101610e16565b80610e53610e4e60019385886136e8565b61374e565b828060a01b03165f528360205260405f2054610e6f828861370c565b5201610df2565b5080fd5b5034610320576060366003190112610320576001600160401b036004351161032057610100600435360360031901126103205760026024351015610320576044356001600160401b038111610e7657610ed79036906004016133fd565b7f9b779b17422d0df92223018b32b4d1fa46e071723d6817e2486d003becc55f005c6113015760017f9b779b17422d0df92223018b32b4d1fa46e071723d6817e2486d003becc55f005d5f51602061583d5f395f51905f5254906001820154156112f257815415611296575b600382015460446004350135036112875765ffffffffffff60048301541665ffffffffffff610f76602460043501613822565b161061127957610f8b600435600401836143ea565b92610fa060a46004350160043560040161489f565b808096925060051b046020148515171561126557610fc08560051b6152ad565b8695865b81881061113057506110f6965060051b902090610fe6600435600401866148f6565b610ff560043560040187614ccd565b90611004602460043501613822565b93611013606460043501613814565b9360405194602086019660043560040135885265ffffffffffff60d01b9060d01b16604087015260446004350135604687015260ff60f81b9060f81b1660668601526067850152608784015260a783015260c782015260c7815261107860e78261336d565b5190209283600382015565ffffffffffff611097602460043501613822565b1665ffffffffffff196004830154161760048201557f7ebe42360bcb182fe0a88148b081e4557c89d09aa6af8307635ac2f83e2aaa656020604051868152a165ffffffffffff6110eb602460043501613822565b169360243591614f50565b1561112157807f9b779b17422d0df92223018b32b4d1fa46e071723d6817e2486d003becc55f005d80f35b63729d0f6b60e01b8152600490fd5b61114460a46004350160043560040161489f565b891015611251578860061b8101358a526019880160205260ff60408b20541660038110156107d157600103611242576001916020916112078b8b8e868360061b86010192611191846148d4565b156112235760061b85013590525060198c01855260408e20805460ff19166002179055601c8c0180546111c3906138f3565b90555b8c7f460119a8f69a33ed127de517d5ea464e958ce23ef19e4420a8b92bf780bbc2c9866111f2846148d4565b1515926040519060061b8701358152a26148d4565b908b60061b01358c52825360218b208186015201970196610fc4565b60409260199160061b87013583520187522060ff1981541690556111c6565b636e83084760e11b8a5260048afd5b634e487b7160e01b8a52603260045260248afd5b634e487b7160e01b86526011600452602486fd5b620725b160ea1b8452600484fd5b63164b6fc360e01b8452600484fd5b6112b36112a7606460043501613814565b60043560040135614355565b156112e35765ffffffffffff6112cd602460043501613822565b164211610f4357631ad8809560e31b8452600484fd5b637b8cb35960e01b8452600484fd5b63580683f360e01b8452600484fd5b633ee5aeb560e01b8352600483fd5b5034610320578060031936011261032057506109ce60405161133360408261336d565b60058152640352e302e360dc1b602082015260405191829160208352602083019061344e565b50346103205780600319360112610320575f51602061583d5f395f51905f52546001600160a01b0390600290611390904290615245565b0154166040519182915f19813b0164ffffffffff16916021830191601f8501903c8082520190604082019182604052602083526113d4603f1992606083019061344e565b030190f35b50346103205780600319360112610320576113f26137ce565b50606061140f60165f51602061583d5f395f51905f5254016137ec565b610d7760405180926040809180518452602081015160208501520151910152565b50346103205780600319360112610320576020601b5f51602061583d5f395f51905f52540154604051908152f35b5034610320576020366003190112610320576114786132ae565b601a5f51602061583d5f395f51905f5254019060018060a01b03165f52602052602060405f2054604051908152f35b503461032057602036600319011261032057600435906001600160401b0382116103205760206114e36114dd36600486016133fd565b90613762565b6040519015158152f35b50346103205780600319360112610320575f5160206157bd5f395f51905f52546040516001600160a01b039091168152602090f35b50346103205760a03660031901126103205760043560443560ff811681036107255761154c6139b2565b824915611673575f51602061583d5f395f51905f52546001810154156112f25760198101918385528260205260ff604086205416600381101561165f57611650576006820154601d9092015485926001600160a01b031691823b1561080b5760405163d505accf60e01b815233600482015230602480830191909152604482018490523560648083019190915260ff92909216608480830191909152913560a4820152903560c48201528390818160e48183885af161163b575b50506040516323b872dd60e01b8152336004820152306024820152604481019190915291602091839182908160648101610665565b816116459161336d565b61072557825f611606565b6304c51a3360e31b8552600485fd5b634e487b7160e01b86526021600452602486fd5b637bb2fa2f60e11b8352600483fd5b50346103205780600319360112610320575f51602061583d5f395f51905f5254600181019081546116d2576002015463ffffffff16409081156116c3575580f35b63f7bac7b560e01b8352600483fd5b6309476b0360e41b8352600483fd5b50346103205780600319360112610320575f51602061583d5f395f51905f5254600601546040516001600160a01b039091168152602090f35b5034610320578060031936011261032057611733613557565b50604061175060155f51602061583d5f395f51905f525401613720565b610d77825180926001600160801b03602080926001600160401b038151168552015116910152565b50346103205780600319360112610320575f5160206157fd5f395f51905f5254158061188a575b1561184d576117f1906117b06141db565b906117b96142a8565b9060206117ff604051936117cd838661336d565b8385525f368137604051968796600f60f81b885260e08589015260e088019061344e565b90868203604088015261344e565b904660608601523060808601528260a086015284820360c08601528080855193848152019401925b82811061183657505050500390f35b835185528695509381019392810192600101611827565b60405162461bcd60e51b81526020600482015260156024820152741152540dcc4c8e88155b9a5b9a5d1a585b1a5e9959605a1b6044820152606490fd5b505f51602061589d5f395f51905f52541561179f565b50346103205780600319360112610320576118b961397f565b6118c16139b2565b600160ff195f51602061585d5f395f51905f525416175f51602061585d5f395f51905f52557f62e78cea01bee320cd4e420270b5ea74000d11b0c9f74754ebdbfc544b05a2586020604051338152a180f35b5034610320576020366003190112610320576004356001600160401b038111610e76576119449036906004016133fd565b905f51602061583d5f395f51905f52549061195e8361367d565b9161196c604051938461336d565b8383526119788461367d565b602084019490601f19013686376019869201915b8181106119e157868587604051928392602084019060208552518091526040840192915b8181106119be575050500390f35b91935091602080826119d3600194885161342d565b0194019101918493926119b0565b6119ec8183866136e8565b3587528260205260ff604088205416611a05828761370c565b6003821015611a17575260010161198c565b634e487b7160e01b89526021600452602489fd5b5034610320576020366003190112610320576020906040906001600160a01b03611a536132ae565b1681527f5ab42ced628888259c08ac98db1eb0cf702fc1501344311d8b100cd1bfe4bb0083522054604051908152f35b5034610320578060031936011261032057602060035f51602061583d5f395f51905f52540154604051908152f35b5034610320578060031936011261032057611aca61397f565b5f5160206157bd5f395f51905f5280546001600160a01b0319811690915581906001600160a01b03167f8be0079c531659141344cd1fd0a4f28419497f9722a3daafe3b4186f6b6457e08280a380f35b50346103205761012036600319011261032057611b35613282565b611b3d613298565b6084356001600160801b03811690818103611ca4578460c43560ff81168103610e7657611b686139b2565b611b766024356004356139d9565b6006015490936001600160a01b0390911691823b1561080b57611bbe8480926040518093819263d505accf60e01b8352610104359060e4359060a4358a3033600489016134f5565b038183885af1611ce7575b50506040516323b872dd60e01b81523360048201523060248201526001600160801b039190911660448201529160209183916064918391905af1908115611cdc578691611cbd575b5015611cae576001600160a01b0390811693908116611ca8575033915b833b15611ca457604051635fd142bb60e11b81526001600160a01b03938416600482015292166024830152604482018490526064820152828160848183865af18015611c9957611c84575b602082604051908152f35b611c8f83809261336d565b610e765781611c79565b6040513d85823e3d90fd5b8480fd5b91611c2e565b631e4e7d0960e21b8552600485fd5b611cd6915060203d6020116106f6576106e8818361336d565b5f611c11565b6040513d88823e3d90fd5b81611cf19161336d565b61072557825f611bc9565b5034610320578060031936011261032057611d1561397f565b5f51602061587d5f395f51905f525460ff8160401c16908115612235575b50612226575f51602061587d5f395f51905f52805468ffffffffffffffffff1916680100000000000000051790555f5160206157bd5f395f51905f5254611d8d906001600160a01b0316611d85615261565b610381615261565b611d9561358d565b90611d9e6135ba565b90611da7615261565b611daf615261565b82516001600160401b03811161212957611dd65f51602061579d5f395f51905f52546141a3565b601f81116121c2575b506020601f82116001146121485782939482939261213d575b50508160011b915f199060031b1c1916175f51602061579d5f395f51905f52555b81516001600160401b03811161212957611e405f5160206157dd5f395f51905f52546141a3565b601f81116120bc575b50602092601f821160011461204357928293829392612038575b50508160011b915f199060031b1c1916175f5160206157dd5f395f51905f52555b805f5160206157fd5f395f51905f5255805f51602061589d5f395f51905f52555f51602061583d5f395f51905f5254611ebb613f47565b80516001830155600282019063ffffffff60208201511669ffffffffffff000000006040845493015160201b169169ffffffffffffffffffff191617179055816020604051611f098161331b565b8281520152600381018290556004808201805465ffffffffffff19169055600682015460405163313ce56760e01b81529160209183919082906001600160a01b03165afa8015611c9957611f64918491612009575b50613631565b90816103e8026103e881048303611ff557601d820155816101f402916101f4830403611fe157601e015560ff60401b195f51602061587d5f395f51905f5254165f51602061587d5f395f51905f52557fc7f505b2f371ae2175ee4913f4499e1f2633a7b5936321eed1cdaeb6115181d2602060405160058152a180f35b634e487b7160e01b83526011600452602483fd5b634e487b7160e01b84526011600452602484fd5b61202b915060203d602011612031575b612023818361336d565b810190613618565b5f611f5e565b503d612019565b015190505f80611e63565b601f198216935f5160206157dd5f395f51905f52845280842091845b8681106120a4575083600195961061208c575b505050811b015f5160206157dd5f395f51905f5255611e84565b01515f1960f88460031b161c191690555f8080612072565b9192602060018192868501518155019401920161205f565b81811115611e49575f5160206157dd5f395f51905f52835261211b907f5f9ce34815f8e11431c7bb75a8e6886a91478f7ffc1dbb0a98dc240fddd76b7590601f840160051c9060208510612121575b601f82910160051c039101613fc4565b5f611e49565b85915061210b565b634e487b7160e01b82526041600452602482fd5b015190505f80611df8565b5f51602061579d5f395f51905f52835280832090601f198316845b8181106121aa57509583600195969710612192575b505050811b015f51602061579d5f395f51905f5255611e19565b01515f1960f88460031b161c191690555f8080612178565b9192602060018192868b015181550194019201612163565b81811115611ddf575f51602061579d5f395f51905f528352612220907f42ad5d3e1f2e6e70edcf6d991b8a3023d3fca8047a131592f9edb9fd9b89d57d90601f840160051c906020851061212157601f82910160051c039101613fc4565b5f611ddf565b63f92ee8a960e01b8152600490fd5b600591506001600160401b031610155f611d33565b5034610320578060031936011261032057602060ff5f51602061585d5f395f51905f5254166040519015158152f35b503461032057610160366003190112610320576122946132ae565b906024356001600160a01b03811690819003610e76576122b2613282565b926122bb613298565b9360a4359060843560c43560403660e31901126108075761012435976001600160401b038911610803573660238a011215610803578860040135916001600160401b038311612a8357366024848c010111612a8357610144356001600160401b038111612a7f576123309036906004016133fd565b9690945f51602061587d5f395f51905f5254986001600160401b0360ff8b60401c16159a1680159081612a77575b6001149081612a6d575b159081612a64575b50612a55576123b2908a60016001600160401b03195f51602061587d5f395f51905f525416175f51602061587d5f395f51905f5255612a25575b611d85615261565b6123ba615261565b6123c261358d565b6123ca6135ba565b906123d3615261565b6123db615261565b8051906001600160401b038211612a11578d82916124065f51602061579d5f395f51905f52546141a3565b601f81116129ad575b50602091601f84116001146129315792612926575b50508160011b915f199060031b1c1916175f51602061579d5f395f51905f52555b8051906001600160401b038211612912578c82916124705f5160206157dd5f395f51905f52546141a3565b601f81116128ae575b50602091601f84116001146128325792612827575b50508160011b915f199060031b1c1916175f5160206157dd5f395f51905f52555b8a5f5160206157fd5f395f51905f52558a5f51602061589d5f395f51905f52556124d7615261565b6124df615261565b421561281857811561280957818111156127fa57600a6124ff83836135d9565b048310156127eb5791600493916020938c60409c8d918251612521848261336d565b601781528881017f726f757465722e73746f726167652e526f757465725631000000000000000000815261255361397f565b5f19915190200181528760ff199120169a8b5f51602061583d5f395f51905f52557f059eb9adf6e95b839d818142ed5bd5e498b6d95138e65c91525e93cc0f0339fc888d8551908152a16125a5613f47565b8c6001825191015560028d019063ffffffff8a8201511669ffffffffffff000000008684549301518c1b169169ffffffffffffffffffff1916171790558251906125ee826132ec565b8282526001600160a01b039081168983018190529781169390910183905260058c018054919092166001600160a01b03199182161790915560068b01805482168717905560078b018054909116909117905570030000000000000000000000000000000260088a015561265f613557565b506509184e72a000858d516126738161331b565b639502f900815201526015890180546001600160c01b0319166d09184e72a000000000009502f9001790558b5183908d906126ad816132ec565b8381528488820152015260168901556017880155601887015588519283809263313ce56760e01b82525afa9081156127e157906126f09189916120095750613631565b806103e8026103e8810482036127cd57601d850155806101f402906101f48204036127b95761275861274e61275f9798999a600993601e8801558a51946127368661331b565b60e435865261010435602087015260243692016133a9565b9342963691613694565b9301613fdf565b612767575080f35b60207fc7f505b2f371ae2175ee4913f4499e1f2633a7b5936321eed1cdaeb6115181d29160ff60401b195f51602061587d5f395f51905f5254165f51602061587d5f395f51905f52555160018152a180f35b634e487b7160e01b88526011600452602488fd5b634e487b7160e01b89526011600452602489fd5b87513d8a823e3d90fd5b63145e348f60e01b8b5260048bfd5b6353b2bbed60e01b8b5260048bfd5b63f7ba6bdb60e01b8b5260048bfd5b63b7d0949760e01b8b5260048bfd5b015190505f8061248e565b5f5160206157dd5f395f51905f5281528281209350601f198516905b818110612896575090846001959493921061287e575b505050811b015f5160206157dd5f395f51905f52556124af565b01515f1960f88460031b161c191690555f8080612864565b9293602060018192878601518155019501930161284e565b83811115612479575f5160206157dd5f395f51905f52835261290c907f5f9ce34815f8e11431c7bb75a8e6886a91478f7ffc1dbb0a98dc240fddd76b7590601f860160051c906020871061212157601f82910160051c039101613fc4565b5f612479565b634e487b7160e01b8d52604160045260248dfd5b015190505f80612424565b5f51602061579d5f395f51905f5281528281209350601f198516905b818110612995575090846001959493921061297d575b505050811b015f51602061579d5f395f51905f5255612445565b01515f1960f88460031b161c191690555f8080612963565b9293602060018192878601518155019501930161294d565b8381111561240f575f51602061579d5f395f51905f528352612a0b907f42ad5d3e1f2e6e70edcf6d991b8a3023d3fca8047a131592f9edb9fd9b89d57d90601f860160051c906020871061212157601f82910160051c039101613fc4565b5f61240f565b634e487b7160e01b8e52604160045260248efd5b600160401b60ff60401b195f51602061587d5f395f51905f525416175f51602061587d5f395f51905f52556123aa565b63f92ee8a960e01b8c5260048cfd5b9050155f612370565b303b159150612368565b8b915061235e565b8980fd5b8880fd5b50346103205780600319360112610320577f00000000000000000000000000000000000000000000000000000000000000006001600160a01b03163003612adf5760206040515f51602061581d5f395f51905f528152f35b63703e46dd60e11b8152600490fd5b50604036600319011261032057612b036132ae565b906024356001600160401b038111610e7657612b239036906004016133df565b6001600160a01b037f000000000000000000000000000000000000000000000000000000000000000016308114908115612ce0575b50612cd157612b6561397f565b6040516352d1902d60e01b8152926001600160a01b0381169190602085600481865afa80958596612c99575b50612baa57634c9c8ce360e01b84526004839052602484fd5b9091845f51602061581d5f395f51905f528103612c875750813b15612c75575f51602061581d5f395f51905f5280546001600160a01b031916821790557fbc7cd75a20ee27fd9adebab32041f755214dbc6bffa90cc0225b39da2e5c2d3b8480a28151839015612c5b5780836020612c4f95519101845af43d15612c53573d91612c338361338e565b92612c41604051948561336d565b83523d85602085013e61573e565b5080f35b60609161573e565b50505034612c665780f35b63b398979f60e01b8152600490fd5b634c9c8ce360e01b8452600452602483fd5b632a87526960e21b8552600452602484fd5b9095506020813d602011612cc9575b81612cb56020938361336d565b81010312612cc55751945f612b91565b5f80fd5b3d9150612ca8565b63703e46dd60e11b8252600482fd5b5f51602061581d5f395f51905f52546001600160a01b0316141590505f612b58565b5034610320578060031936011261032057612d1b61397f565b5f51602061585d5f395f51905f525460ff811615612d735760ff19165f51602061585d5f395f51905f52557f5db9ee0a495bf2e6ff9c91a7834c1ba4fdd244a5e8aa4e537bd38aeae4b073aa6020604051338152a180f35b638dfc202b60e01b8252600482fd5b503461032057602036600319011261032057612d9c6132ae565b612da461397f565b5f51602061583d5f395f51905f525460050180546001600160a01b0319166001600160a01b0390921691909117905580f35b5034610320578060031936011261032057612def613557565b506040612e13612e0e5f51602061583d5f395f51905f52544290615245565b61356f565b60208251918051835201516020820152f35b503461032057606036600319011261032057612e3f613282565b612e476139b2565b612e55602435600435613e4f565b506001600160a01b0390811691908116612edd5750335b5f51602061583d5f395f51905f5254600501546001600160a01b0316823b1561080b57604051635fd142bb60e11b81526001600160a01b03909216600483015260248201526001604482015260648101839052828160848183865af18015611c9957611c8457602082604051908152f35b612e6c565b5034610320578060031936011261032057602061085c6151e4565b50346103205761010036600319011261032057612f18613282565b6064356001600160801b0381169081810361080b578360a43560ff81168103610e7657612f436139b2565b612f51602435600435613e4f565b6006015490936001600160a01b0390911691823b1561080b57612f988480926040518093819263d505accf60e01b835260e4359060c435906084358a3033600489016134f5565b038183885af16130b6575b50506040516323b872dd60e01b81523360048201523060248201526001600160801b039190911660448201529160209183916064918391905af19081156130ab57859161308c575b501561307d576001600160a01b0390811692908116613077575033905b5f51602061583d5f395f51905f5254600501546001600160a01b0316833b15611ca457604051635fd142bb60e11b81526001600160a01b0390931660048401526024830152600160448301526064820152828160848183865af18015611c9957611c8457602082604051908152f35b90613008565b631e4e7d0960e21b8452600484fd5b6130a5915060203d6020116106f6576106e8818361336d565b5f612feb565b6040513d87823e3d90fd5b816130c09161336d565b61072557825f612fa3565b5034610320578060031936011261032057602060015f51602061583d5f395f51905f52540154604051908152f35b50346103205780600319360112610320576020601d5f51602061583d5f395f51905f52540154604051908152f35b50346103205760203660031901126103205761314161397f565b600435601d5f51602061583d5f395f51905f5254015580f35b34612cc5576080366003190112612cc557613173613282565b61317b613298565b906131846139b2565b6131926024356004356139d9565b506001600160a01b039081169190811661321f575033915b813b15612cc557604051635fd142bb60e11b81526001600160a01b039384166004820152921660248301525f60448301819052606483018190528260848183855af191821561321457602092613204575b50604051908152f35b5f61320e9161336d565b5f6131fb565b6040513d5f823e3d90fd5b916131aa565b34612cc5576020366003190112612cc55761323e61397f565b600435601e5f51602061583d5f395f51905f525401555f80f35b34612cc5575f366003190112612cc557602090601c5f51602061583d5f395f51905f525401548152f35b604435906001600160a01b0382168203612cc557565b606435906001600160a01b0382168203612cc557565b600435906001600160a01b0382168203612cc557565b35906001600160a01b0382168203612cc557565b35906001600160801b0382168203612cc557565b606081019081106001600160401b0382111761330757604052565b634e487b7160e01b5f52604160045260245ffd5b604081019081106001600160401b0382111761330757604052565b61014081019081106001600160401b0382111761330757604052565b608081019081106001600160401b0382111761330757604052565b90601f801991011681019081106001600160401b0382111761330757604052565b6001600160401b03811161330757601f01601f191660200190565b9291926133b58261338e565b916133c3604051938461336d565b829481845281830111612cc5578281602093845f960137010152565b9080601f83011215612cc5578160206133fa933591016133a9565b90565b9181601f84011215612cc5578235916001600160401b038311612cc5576020808501948460051b010111612cc557565b90600382101561343a5752565b634e487b7160e01b5f52602160045260245ffd5b805180835260209291819084018484015e5f828201840152601f01601f1916010190565b90602080835192838152019201905f5b81811061348f5750505090565b82516001600160a01b0316845260209384019390920191600101613482565b9060208251805183520151602082015260018060a01b036020830151166040820152608060606134ec604085015160a08386015260a0850190613472565b93015191015290565b936001600160801b0360c096929998979460ff9460e088019b60018060a01b0316885260018060a01b03166020880152166040860152606085015216608083015260a08201520152565b90816020910312612cc557518015158103612cc55790565b604051906135648261331b565b5f6020838281520152565b9060405161357c8161331b565b602060018294805484520154910152565b6040519061359c60408361336d565b600f82526e2b30b9309722aa24102937baba32b960891b6020830152565b604051906135c960408361336d565b60018252603160f81b6020830152565b919082039182116135e657565b634e487b7160e01b5f52601160045260245ffd5b8115613604570490565b634e487b7160e01b5f52601260045260245ffd5b90816020910312612cc5575160ff81168103612cc55790565b60ff16604d81116135e657600a0a90565b818102929181159184041417156135e657565b9190826040910312612cc55760405161366d8161331b565b6020808294803584520135910152565b6001600160401b0381116133075760051b60200190565b9291906136a08161367d565b936136ae604051958661336d565b602085838152019160051b8101928311612cc557905b8282106136d057505050565b602080916136dd846132c4565b8152019101906136c4565b91908110156136f85760051b0190565b634e487b7160e01b5f52603260045260245ffd5b80518210156136f85760209160051b010190565b9060405161372d8161331b565b91546001600160401b038116835260401c6001600160801b03166020830152565b356001600160a01b0381168103612cc55790565b61377b5f51602061583d5f395f51905f52544290615245565b600301905f5b8381106137915750505050600190565b61379f610e4e8286856136e8565b6001600160a01b03165f9081526020849052604090205460ff16156137c657600101613781565b505050505f90565b604051906137db826132ec565b5f6040838281528260208201520152565b906040516137f9816132ec565b60406002829480548452600181015460208501520154910152565b3560ff81168103612cc55790565b3565ffffffffffff81168103612cc55790565b6040519061384282613352565b5f6060836040516138528161331b565b83815283602082015281528260208201528160408201520152565b6040519061387a82613352565b815f81525f602082015261388c613835565b6040820152606061389b613835565b910152565b90604051918281549182825260208201905f5260205f20925f5b8181106138d15750506138cf9250038361336d565b565b84546001600160a01b03168352600194850194879450602090930192016138ba565b5f1981146135e65760010190565b919082018092116135e657565b6001600160a01b0316801561396c575f5160206157bd5f395f51905f5280546001600160a01b0319811683179091556001600160a01b03167f8be0079c531659141344cd1fd0a4f28419497f9722a3daafe3b4186f6b6457e05f80a3565b631e4fbdf760e01b5f525f60045260245ffd5b5f5160206157bd5f395f51905f52546001600160a01b0316330361399f57565b63118cdaa760e01b5f523360045260245ffd5b60ff5f51602061585d5f395f51905f5254166139ca57565b63d93c066560e01b5f5260045ffd5b9190915f51602061583d5f395f51905f52549260018401541561008257815f526019840160205260ff60405f205416600381101561343a57600203613e4057815f5260205260405f206040516103008101908082106001600160401b03831117612cc5576102fb916040527f6080806040526102e990816100128239f3fe60806040526004361061029f575f81527f3560e01c806336a52a18146100bb57806342129d00146100b65780635ce6c32760208201527f146100b1578063701da98e146100ac578063704ed542146100a75780637a8e0c60408201527fdd146100a257806391d5a64c1461009d5780639ce110d714610098578063affe60608201527fd0e014610093578063c60496921461008e5763e43f34330361029f5761028a5660808201527f5b610260565b610243565b61021b565b610205565b6101d2565b6101b3565b6160a08201527f0178565b610156565b610119565b346100e7575f3660031901126100e757600260c08201527f5460405160089190911c6001600160a01b03168152602090f35b5f80fd5b918160e08201527f601f840112156100e75782359167ffffffffffffffff83116100e757602083816101008201527f8601950101116100e757565b60403660031901126100e75760043567ffffffff6101208201527fffffffff81116100e7576101459036906004016100eb565b50506024358015156101408201527f1461029f575f80fd5b346100e7575f3660031901126100e757602060ff6002546101608201527f166040519015158152f35b346100e7575f3660031901126100e75760205f54606101808201527f4051908152f35b600435906fffffffffffffffffffffffffffffffff821682036101a08201527f6100e757565b346100e75760203660031901126100e7576101cc610194565b506101c08201527f61029f565b60403660031901126100e75760243567ffffffffffffffff8111616101e08201527ee7576101fe9036906004016100eb565b505061029f565b346100e7576020366102008201527f60031901121561029f575f80fd5b346100e7575f3660031901126100e75760036102208201527f546040516001600160a01b039091168152602090f35b346100e7575f366003196102408201527f01126100e7576020600154604051908152f35b346100e75760a03660031901126102608201527f6100e757610279610194565b5060443560ff81161461029f575f80fd5b3461006102808201527fe7575f3660031901121561029f575f80fd5b63e6fabc0960e01b5f5260205f606102a08201523060481b685afa156100e7575f806204817360e81b01176102c08201527f8051368280378136915af43d5f803e156102e5573d5ff35b3d5ffd00000000006102e08201525ff5908115612cc55760018060a01b0382165f52601a84016020528060405f2055601b8401613e0581546138f3565b90556040516001600160a01b03831681527f8008ec1d8798725ebfa0f2d128d52e8e717dcba6e0f786557eeee70614b02bf190602090a29190565b630e2637d160e01b5f5260045ffd5b9190915f51602061583d5f395f51905f52549260018401541561008257815f526019840160205260ff60405f205416600381101561343a57600203613e4057815f5260205260405f2060405160608101908082106001600160401b03831117612cc557605a916040527f3d605080600a3d3981f3608060405263e6fabc0960e01b5f5260205f6004817381523060601b6b5afa15604c575f80805136821760208201527f80378136915af43d5f803e156048573d5ff35b3d5ffd5b5f80fd00000000000060408201525ff5908115612cc55760018060a01b0382165f52601a84016020528060405f2055601b8401613e0581546138f3565b613f4f6137ce565b5063ffffffff4311613fac5765ffffffffffff4211613f9457604051613f74816132ec565b5f815263ffffffff4316602082015265ffffffffffff4216604082015290565b6306dfcc6560e41b5f5260306004524260245260445ffd5b6306dfcc6560e41b5f5260206004524360245260445ffd5b5f5b828110613fd257505050565b5f82820155600101613fc6565b9291908051906020810191825170014551231950b75fc4402da1732fc9bebe1982109182614192575b5050156141835751845551600184015580518060401b6bfe61000180600a3d393df3000161fffe8211830152600b8101601583015ff091821561417657526002830180546001600160a01b0319166001600160a01b039092169190911790555f5b6004830180548210156140a7575f90815260208082208301546001600160a01b0316825260038501905260409020805460ff19169055600101614069565b5050925f5b84518110156140f0576001906001600160a01b036140ca828861370c565b5116828060a01b03165f526003840160205260405f208260ff19825416179055016140ac565b5092600482018151916001600160401b03831161330757600160401b831161330757602090825484845580851061415b575b5001905f5260205f205f5b83811061413e575050505060050155565b82516001600160a01b03168183015560209092019160010161412d565b61417090845f528580855f2001910390613fc4565b5f614122565b63301164255f526004601cfd5b63375f0aab60e11b5f5260045ffd5b61419c925061571b565b5f80614008565b90600182811c921680156141d1575b60208310146141bd57565b634e487b7160e01b5f52602260045260245ffd5b91607f16916141b2565b604051905f825f51602061579d5f395f51905f5254916141fa836141a3565b8083529260018116908115614289575060011461421e575b6138cf9250038361336d565b505f51602061579d5f395f51905f525f90815290917f42ad5d3e1f2e6e70edcf6d991b8a3023d3fca8047a131592f9edb9fd9b89d57d5b81831061426d5750509060206138cf92820101614212565b6020919350806001915483858901015201910190918492614255565b602092506138cf94915060ff191682840152151560051b820101614212565b604051905f825f5160206157dd5f395f51905f5254916142c7836141a3565b808352926001811690811561428957506001146142ea576138cf9250038361336d565b505f5160206157dd5f395f51905f525f90815290917f5f9ce34815f8e11431c7bb75a8e6886a91478f7ffc1dbb0a98dc240fddd76b755b8183106143395750509060206138cf92820101614212565b6020919350806001915483858901015201910190918492614321565b435f19810193929084116135e65760ff164381106143a557505f925b83811015614381575b505f925050565b80408281036143935750600193505050565b156143a0575f1901614371565b61437a565b6143af90436135d9565b92614371565b903590601e1981360301821215612cc557018035906001600160401b038211612cc557602001918160051b36038313612cc557565b906080810160016143fb82846143b5565b9050116148905761440c81836143b5565b9050156148695761441c916143b5565b156136f857803590603e1981360301821215612cc557019161443e83806143b5565b9190928260051b93838504602014841517156135e657614460859694956152ad565b925f945f97601a60fe19853603019501965b888a1015614821578960051b85013586811215612cc55785016144948161374e565b6001600160a01b03165f90815260208a9052604090205415610064575f608082016001600160801b036144c68261528c565b1615158061480e575b6147fd575b6001600160a01b036144e58461374e565b604051630427a21d60e11b81526020600482015294911691610124850191906001600160801b0390614564906001600160a01b03614522856132c4565b1660248901526020840135604489015261453e604085016152a0565b151560648901526001600160a01b03614559606086016132c4565b1660848901526132d8565b1660a486015261457660a082016152a0565b151560c486015236819003601e190160c082013581811215612cc5578201602081359101936001600160401b038211612cc5576060820236038513612cc557819061010060e48a015252610144870193905f905b8082106147b35750505060e082013590811215612cc55701803560208201926001600160401b038211612cc5578160051b908136038513612cc55791879594936023198785030161010488015281845260208085019385010194935f9160fe19813603015b8484106146a65750505050505050602093916001600160801b03848093039316905af1908115613214575f91614674575b50816020916001938a015201990198614472565b90506020813d821161469e575b8161468e6020938361336d565b81010312612cc557516001614660565b3d9150614681565b919395979850919395601f19848203018752873582811215612cc5578301602081013582526001600160a01b036146df604083016132c4565b1660208301526060810135603e193683900301811215612cc5578101602081013591906040016001600160401b038311612cc5578236038113612cc557829060e060408601528160e08601526101008501375f61010083850101526001600160801b0361474e608083016132d8565b16606084015260a0810135608084015260c081013563ffffffff60e01b8116809103612cc5578360209361479060e086956101009560a060019a0152016152a0565b151560c0830152601f80199101160101990197019401918a98979695939161462f565b90919460608060019288358152838060a01b036147d260208b016132c4565b1660208201526001600160801b036147ec60408b016132d8565b1660408201520196019201906145ca565b90506148088161528c565b906144d4565b5061481b60a084016148d4565b156144cf565b5094935095509550506020925020910135907fd04cd9af813f6f0b56e9411a6ee6a84eb5ac35a96f0c33d2e3a07d65baa8f4186020604051848152a15f5260205260405f2090565b5050507fc5d2460186f7233c927e7db2dcc703c0e500b653ca82273b7bfad8045d85a47090565b6306d6c38360e01b5f5260045ffd5b903590601e1981360301821215612cc557018035906001600160401b038211612cc557602001918160061b36038313612cc557565b358015158103612cc55790565b903590605e1981360301821215612cc5570190565b60c08201600161490682856143b5565b905011614c8c5761491781846143b5565b9050156148695761492890836143b5565b156136f857803590607e1981360301821215612cc55701916060830190602061495083613822565b91019065ffffffffffff8061496484613822565b1691161015614c7d5761497682613822565b65ffffffffffff80600286015460201c16911610614c6e576149bc65ffffffffffff6149b56149af826149a887613822565b16876152d2565b93613822565b16846152d2565b1115614c5f576007820154600690920180548435946001600160a01b0394851694604082019391925f91602091166044614a02836149fa89896148e1565b01358b613901565b604051948593849263095ea7b360e01b84528c600485015260248401525af1908115613214575f91614c40575b5015614c31575460405163394f179b60e11b81526001600160a01b03909116600482015260248101959095526020818101356044870152856064815f885af1948515613214575f95614bf9575b5090614a87916148e1565b91614a9182613822565b9260405193637fbe95b560e01b85526040600486015260a48501918035601e1982360301811215612cc5578101602081359101936001600160401b038211612cc5578160061b36038513612cc55760606044890152819052869360c485019392915f5b818110614bc157505050836020959365ffffffffffff829484895f9601356064860152614b2a604060018060a01b0392016132c4565b16608485015216602483015203925af1918215613214575f92614b8b575b50614b5290613822565b6040519160208301938452604083015265ffffffffffff60d01b9060d01b16606082015260468152614b8560668261336d565b51902090565b9091506020813d602011614bb9575b81614ba76020938361336d565b81010312612cc5575190614b52614b48565b3d9150614b9a565b919550919293604080600192838060a01b03614bdc8a6132c4565b168152602089013560208201520196019101918895949392614af4565b919094506020823d602011614c29575b81614c166020938361336d565b81010312612cc557905193614a87614a7c565b3d9150614c09565b6367b9145160e01b5f5260045ffd5b614c59915060203d6020116106f6576106e8818361336d565b5f614a2f565b6308027f7760e31b5f5260045ffd5b637bde91e760e11b5f5260045ffd5b63087a19ab60e41b5f5260045ffd5b633249ceed60e11b5f5260045ffd5b903590601e1981360301821215612cc557018035906001600160401b038211612cc557602001918136038313612cc557565b9060e081016001614cde82846143b5565b905011614f4157614cef81836143b5565b90501561486957614cff916143b5565b156136f857803590609e1981360301821215612cc557016060810190614d2582826143b5565b905015614f325765ffffffffffff600284015460201c1691614d4783426135d9565b614d56601686015480926135fa565b93608084013594600181018091116135e6578503614f2357614d7b85614d8193613642565b90613901565b93614d906017820154866135d9565b4210614f1457614d9f906152fa565b934260058601541015614f0557614df4906040840195614de6614dee614dc58988614c9b565b9190614dd1888a6143b5565b949091614dde368c613655565b9436916133a9565b933691613694565b92613fdf565b7fa1a3b42179ad30022438a1ea333b38eaf4a7329beee5e2b8111c0dcd4e08821c6020604051858152a160a082360312612cc55760405193614e3585613352565b614e3f3684613655565b8552356001600160401b038111612cc557614e5d90369084016133df565b602085015235906001600160401b038211612cc5570136601f82011215612cc557614e8f903690602081359101613694565b91826040820152816060820152519160208351930151906040519283926020840195865260408401526060830160208351919301905f5b818110614ee357505050815203808252614b85906020018261336d565b82516001600160a01b0316855286955060209485019490920191600101614ec6565b6333fc8f5160e21b5f5260045ffd5b6372a84ce560e11b5f5260045ffd5b6343d3f5bf60e01b5f5260045ffd5b636c2bf3db60e01b5f5260045ffd5b631d3fc6bf60e21b5f5260045ffd5b909493919365ffffffffffff600283015460201c16614f6f42846152d2565b614f87614f8160168601548093613642565b83613901565b9182841080806151a3575b156151715750831061516357614fa89083613901565b1061515457614fb8905b82615245565b94601960f81b5f523060601b60025260165260365f2093600281101561343a57806150495750506001810361503a57156136f857614ff98161500092614c9b565b36916133a9565b91606083510361502b578260206133fa94015160606040830151920151926001815491015490615315565b632ce466bf60e01b5f5260045ffd5b6360a1ea7760e01b5f5260045ffd5b91939160011461505c5750505050505f90565b61508190600860048796970154910154906001600160801b038260801c9216906151b9565b925f9260035f9201915b86811015615149576150b16105886150ab614ff98460051b860186614c9b565b866156e1565b6001600160a01b0381165f9081526020859052604090205460ff166150dc575b506001905b0161508b565b6001600160a01b03165f9081527ff02b465737fa6045c2ff53fb2df43c66916ac2166fa303264668fb2f6a1d8c0060205260409020805c1561512157506001906150d6565b94600161512f92965d6138f3565b9385851461513d575f6150d1565b50505050505050600190565b505050505050505f90565b63046bb1e560e51b5f5260045ffd5b62f4462b60e01b5f5260045ffd5b939291505042821161519457614fb89261518c575b50614fb2565b90505f615186565b6347860b9760e01b5f5260045ffd5b506151b2601887015485613901565b4210614f92565b6001600160801b038092160291166151d181836135fa565b9181156136045706156133fa5760010190565b6151ec6155f8565b6151f461564f565b6040519060208201927f8b73c3c69bb8fe3d512ecc4cf759cc79239f7b179b0ffacaa9a75d522b39400f8452604083015260608201524660808201523060a082015260a08152614b8560c08261336d565b906152509082615681565b1561525b57600f0190565b60090190565b60ff5f51602061587d5f395f51905f525460401c161561527d57565b631afcd79f60e31b5f5260045ffd5b356001600160801b0381168103612cc55790565b35908115158203612cc557565b6040519190601f01601f191682016001600160401b03811183821017612cc557604052565b60166152f16133fa9365ffffffffffff600285015460201c16906135d9565b910154906135fa565b6153044282615681565b1561530f5760090190565b600f0190565b9293919490615324858761571b565b156154b75782156154b75770014551231950b75fc4402da1732fc9bebe198310156154b7576001169061010e615359816152ad565b9160883684376002600188160160888401538760898401526002840160a984015360aa830186905260ca8301527e300046524f53542d736563703235366b312d4b454343414b3235362d76316360ea8301526303430b6160e51b61010a830152812060cc820181815290600260ec84016001815360428420809318845253604270014551231950b75fc4402da1732fc9bebe19922060801c6001600160401b0360801b8260801b16179070014551231950b75fc4402da1732fc9bebe1990600160c01b9060401c090880156151495784601b6080945f9660209870014551231950b75fc4402da1732fc9bebe19910970014551231950b75fc4402da1732fc9bebe19038552018684015280604084015270014551231950b75fc4402da1732fc9bebe19910970014551231950b75fc4402da1732fc9bebe1903606082015282805260015afa505f51915f5260205260018060a01b0360405f20161490565b5050505050505f90565b6154c9613835565b5060028101546005820154604051929091615509916004916001600160a01b03166154f386613352565b6154fc8261356f565b86526020860152016138a0565b6040830152606082015290565b91907f7fffffffffffffffffffffffffffffff5d576e7357a4501ddfe92f46681b20a0841161558d579160209360809260ff5f9560405194855216868401526040830152606082015282805260015afa15613214575f516001600160a01b0381161561558357905f905f90565b505f906001905f90565b5050505f9160039190565b600481101561343a57806155aa575050565b600181036155c15763f645eedf60e01b5f5260045ffd5b600281036155dc575063fce698f760e01b5f5260045260245ffd5b6003146155e65750565b6335e2f38360e21b5f5260045260245ffd5b6156006141db565b8051908115615610576020012090565b50505f5160206157fd5f395f51905f5254801561562a5790565b507fc5d2460186f7233c927e7db2dcc703c0e500b653ca82273b7bfad8045d85a47090565b6156576142a8565b8051908115615667576020012090565b50505f51602061589d5f395f51905f5254801561562a5790565b906014600e8301549201548083146156d2578181841093119182159111159181906156cb575b156156bc57826156b657505090565b14919050565b634c38ae9560e11b5f5260045ffd5b50816156a7565b63f26224af60e01b5f5260045ffd5b81519190604183036157115761570a9250602082015190606060408401519301515f1a90615516565b9192909190565b50505f9160029190565b6401000003d01990600790829081818009900908906401000003d0199080091490565b90615762575080511561575357602081519101fd5b63d6bda27560e01b5f5260045ffd5b81511580615793575b615773575090565b639996b31560e01b5f9081526001600160a01b0391909116600452602490fd5b50803b1561576b56fea16a46d94261c7517cc8ff89f61c0ce93598e3c849801011dee649a6a557d1029016d09d72d40fdae2fd8ceac6b6234c7706214fd39c1cd1e609a0528c199300a16a46d94261c7517cc8ff89f61c0ce93598e3c849801011dee649a6a557d103a16a46d94261c7517cc8ff89f61c0ce93598e3c849801011dee649a6a557d100360894a13ba1a3210667c828492db98dca3e2076cc3735a920a3ca505d382bbc5c09ca1b9b8127a4fd9f3c384aac59b661441e820e17733753ff5f2e86e1e000cd5ed15c6e187e77e9aee88184c21f4f2182ab5827cb3b7e07fbedcd63f03300f0c57e16840df040f15088dc2f81fe391c3923bec73e23a9662efc9c229c6a00a16a46d94261c7517cc8ff89f61c0ce93598e3c849801011dee649a6a557d101f0c57e16840df040f15088dc2f81fe391c3923bec73e23a9662efc9c229c6a00","linkReferences":{}},"methodIdentifiers":{"DOMAIN_SEPARATOR()":"3644e515","UPGRADE_INTERFACE_VERSION()":"ad3cb1cc","areValidators(address[])":"8f381dbe","codeState(bytes32)":"c13911e8","codesStates(bytes32[])":"82bdeaad","commitBatch((bytes32,uint48,bytes32,uint8,((address,bytes32,bool,address,uint128,bool,(bytes32,address,uint128)[],(bytes32,address,bytes,uint128,(bytes32,bytes4),bool)[])[],bytes32)[],(bytes32,bool)[],((uint256,bytes32),((address,uint256)[],uint256,address),uint48)[],((uint256,uint256),bytes,address[],uint256)[]),uint8,bytes[])":"b24fcac0","computeSettings()":"84d22a4f","createProgram(bytes32,bytes32,address)":"3683c4d2","createProgramWithAbiInterface(bytes32,bytes32,address,address)":"0c18d277","createProgramWithAbiInterfaceAndValue(bytes32,bytes32,address,address,uint128,uint256,uint8,bytes32,bytes32)":"6e55012a","createProgramWithValue(bytes32,bytes32,address,uint128,uint256,uint8,bytes32,bytes32)":"33e0d48e","eip712Domain()":"84b0196e","genesisBlockHash()":"28e24b3d","genesisTimestamp()":"cacf66ab","initialize(address,address,address,address,uint256,uint256,uint256,(uint256,uint256),bytes,address[])":"53f7fd48","isValidator(address)":"facd743b","latestCommittedBatchHash()":"71a8cf2d","latestCommittedBatchTimestamp()":"d456fd51","lookupGenesisHash()":"8b1edf1e","middleware()":"f4f20ac0","mirrorImpl()":"e6fabc09","nonces(address)":"7ecebe00","owner()":"8da5cb5b","pause()":"8456cb59","paused()":"5c975abb","programCodeId(address)":"9067088e","programsCodeIds(address[])":"baaf0201","programsCount()":"96a2ddfa","proxiableUUID()":"52d1902d","reinitialize()":"6c2eb350","renounceOwnership()":"715018a6","requestCodeValidation(bytes32,uint256,uint8,bytes32,bytes32)":"8c4ace6a","requestCodeValidationBaseFee()":"188509e9","requestCodeValidationExtraFee()":"f1ef31ec","requestCodeValidationOnBehalf(address,bytes32,bytes32[],uint256,uint8,bytes32,bytes32,uint8,bytes32,bytes32)":"f0fd702a","setMirror(address)":"3d43b418","setRequestCodeValidationBaseFee(uint256)":"11bec80d","setRequestCodeValidationExtraFee(uint256)":"0b9737ce","signingThresholdFraction()":"e3a6684f","storageView()":"c2eb812f","timelines()":"9eb939a8","transferOwnership(address)":"f2fde38b","unpause()":"3f4ba83a","upgradeToAndCall(address,bytes)":"4f1ef286","validatedCodesCount()":"007a32e7","validators()":"ca1e7819","validatorsAggregatedPublicKey()":"3bd109fa","validatorsCount()":"ed612f8c","validatorsThreshold()":"edc87225","validatorsVerifiableSecretSharingCommitment()":"a5d53a44","wrappedVara()":"88f50cf0"},"storageLayout":{"storage":[],"types":{}},"id":165}