{"abi":[{"type":"constructor","inputs":[],"stateMutability":"nonpayable"},{"type":"receive","stateMutability":"payable"},{"type":"function","name":"UPGRADE_INTERFACE_VERSION","inputs":[],"outputs":[{"name":"","type":"string","internalType":"string"}],"stateMutability":"view"},{"type":"function","name":"areValidators","inputs":[{"name":"_validators","type":"address[]","internalType":"address[]"}],"outputs":[{"name":"","type":"bool","internalType":"bool"}],"stateMutability":"view"},{"type":"function","name":"codeState","inputs":[{"name":"_codeId","type":"bytes32","internalType":"bytes32"}],"outputs":[{"name":"","type":"uint8","internalType":"enum Gear.CodeState"}],"stateMutability":"view"},{"type":"function","name":"codesStates","inputs":[{"name":"_codesIds","type":"bytes32[]","internalType":"bytes32[]"}],"outputs":[{"name":"","type":"uint8[]","internalType":"enum Gear.CodeState[]"}],"stateMutability":"view"},{"type":"function","name":"commitBatch","inputs":[{"name":"_batch","type":"tuple","internalType":"struct Gear.BatchCommitment","components":[{"name":"blockHash","type":"bytes32","internalType":"bytes32"},{"name":"blockTimestamp","type":"uint48","internalType":"uint48"},{"name":"previousCommittedBatchHash","type":"bytes32","internalType":"bytes32"},{"name":"expiry","type":"uint8","internalType":"uint8"},{"name":"chainCommitment","type":"tuple[]","internalType":"struct Gear.ChainCommitment[]","components":[{"name":"transitions","type":"tuple[]","internalType":"struct Gear.StateTransition[]","components":[{"name":"actorId","type":"address","internalType":"address"},{"name":"newStateHash","type":"bytes32","internalType":"bytes32"},{"name":"exited","type":"bool","internalType":"bool"},{"name":"inheritor","type":"address","internalType":"address"},{"name":"valueToReceive","type":"uint128","internalType":"uint128"},{"name":"valueToReceiveNegativeSign","type":"bool","internalType":"bool"},{"name":"valueClaims","type":"tuple[]","internalType":"struct Gear.ValueClaim[]","components":[{"name":"messageId","type":"bytes32","internalType":"bytes32"},{"name":"destination","type":"address","internalType":"address"},{"name":"value","type":"uint128","internalType":"uint128"}]},{"name":"messages","type":"tuple[]","internalType":"struct Gear.Message[]","components":[{"name":"id","type":"bytes32","internalType":"bytes32"},{"name":"destination","type":"address","internalType":"address"},{"name":"payload","type":"bytes","internalType":"bytes"},{"name":"value","type":"uint128","internalType":"uint128"},{"name":"replyDetails","type":"tuple","internalType":"struct Gear.ReplyDetails","components":[{"name":"to","type":"bytes32","internalType":"bytes32"},{"name":"code","type":"bytes4","internalType":"bytes4"}]},{"name":"call","type":"bool","internalType":"bool"}]}]},{"name":"head","type":"bytes32","internalType":"bytes32"}]},{"name":"codeCommitments","type":"tuple[]","internalType":"struct Gear.CodeCommitment[]","components":[{"name":"id","type":"bytes32","internalType":"bytes32"},{"name":"valid","type":"bool","internalType":"bool"}]},{"name":"rewardsCommitment","type":"tuple[]","internalType":"struct Gear.RewardsCommitment[]","components":[{"name":"operators","type":"tuple","internalType":"struct Gear.OperatorRewardsCommitment","components":[{"name":"amount","type":"uint256","internalType":"uint256"},{"name":"root","type":"bytes32","internalType":"bytes32"}]},{"name":"stakers","type":"tuple","internalType":"struct Gear.StakerRewardsCommitment","components":[{"name":"distribution","type":"tuple[]","internalType":"struct Gear.StakerRewards[]","components":[{"name":"vault","type":"address","internalType":"address"},{"name":"amount","type":"uint256","internalType":"uint256"}]},{"name":"totalAmount","type":"uint256","internalType":"uint256"},{"name":"token","type":"address","internalType":"address"}]},{"name":"timestamp","type":"uint48","internalType":"uint48"}]},{"name":"validatorsCommitment","type":"tuple[]","internalType":"struct Gear.ValidatorsCommitment[]","components":[{"name":"aggregatedPublicKey","type":"tuple","internalType":"struct Gear.AggregatedPublicKey","components":[{"name":"x","type":"uint256","internalType":"uint256"},{"name":"y","type":"uint256","internalType":"uint256"}]},{"name":"verifiableSecretSharingCommitment","type":"bytes","internalType":"bytes"},{"name":"validators","type":"address[]","internalType":"address[]"},{"name":"eraIndex","type":"uint256","internalType":"uint256"}]}]},{"name":"_signatureType","type":"uint8","internalType":"enum Gear.SignatureType"},{"name":"_signatures","type":"bytes[]","internalType":"bytes[]"}],"outputs":[],"stateMutability":"nonpayable"},{"type":"function","name":"computeSettings","inputs":[],"outputs":[{"name":"","type":"tuple","internalType":"struct Gear.ComputationSettings","components":[{"name":"threshold","type":"uint64","internalType":"uint64"},{"name":"wvaraPerSecond","type":"uint128","internalType":"uint128"}]}],"stateMutability":"view"},{"type":"function","name":"createProgram","inputs":[{"name":"_codeId","type":"bytes32","internalType":"bytes32"},{"name":"_salt","type":"bytes32","internalType":"bytes32"},{"name":"_overrideInitializer","type":"address","internalType":"address"}],"outputs":[{"name":"","type":"address","internalType":"address"}],"stateMutability":"nonpayable"},{"type":"function","name":"createProgramWithAbiInterface","inputs":[{"name":"_codeId","type":"bytes32","internalType":"bytes32"},{"name":"_salt","type":"bytes32","internalType":"bytes32"},{"name":"_overrideInitializer","type":"address","internalType":"address"},{"name":"_abiInterface","type":"address","internalType":"address"}],"outputs":[{"name":"","type":"address","internalType":"address"}],"stateMutability":"nonpayable"},{"type":"function","name":"genesisBlockHash","inputs":[],"outputs":[{"name":"","type":"bytes32","internalType":"bytes32"}],"stateMutability":"view"},{"type":"function","name":"genesisTimestamp","inputs":[],"outputs":[{"name":"","type":"uint48","internalType":"uint48"}],"stateMutability":"view"},{"type":"function","name":"initialize","inputs":[{"name":"_owner","type":"address","internalType":"address"},{"name":"_mirror","type":"address","internalType":"address"},{"name":"_wrappedVara","type":"address","internalType":"address"},{"name":"_middleware","type":"address","internalType":"address"},{"name":"_eraDuration","type":"uint256","internalType":"uint256"},{"name":"_electionDuration","type":"uint256","internalType":"uint256"},{"name":"_validationDelay","type":"uint256","internalType":"uint256"},{"name":"_aggregatedPublicKey","type":"tuple","internalType":"struct Gear.AggregatedPublicKey","components":[{"name":"x","type":"uint256","internalType":"uint256"},{"name":"y","type":"uint256","internalType":"uint256"}]},{"name":"_verifiableSecretSharingCommitment","type":"bytes","internalType":"bytes"},{"name":"_validators","type":"address[]","internalType":"address[]"}],"outputs":[],"stateMutability":"nonpayable"},{"type":"function","name":"isValidator","inputs":[{"name":"_validator","type":"address","internalType":"address"}],"outputs":[{"name":"","type":"bool","internalType":"bool"}],"stateMutability":"view"},{"type":"function","name":"latestCommittedBatchHash","inputs":[],"outputs":[{"name":"","type":"bytes32","internalType":"bytes32"}],"stateMutability":"view"},{"type":"function","name":"latestCommittedBatchTimestamp","inputs":[],"outputs":[{"name":"","type":"uint48","internalType":"uint48"}],"stateMutability":"view"},{"type":"function","name":"lookupGenesisHash","inputs":[],"outputs":[],"stateMutability":"nonpayable"},{"type":"function","name":"middleware","inputs":[],"outputs":[{"name":"","type":"address","internalType":"address"}],"stateMutability":"view"},{"type":"function","name":"mirrorImpl","inputs":[],"outputs":[{"name":"","type":"address","internalType":"address"}],"stateMutability":"view"},{"type":"function","name":"owner","inputs":[],"outputs":[{"name":"","type":"address","internalType":"address"}],"stateMutability":"view"},{"type":"function","name":"pause","inputs":[],"outputs":[],"stateMutability":"nonpayable"},{"type":"function","name":"paused","inputs":[],"outputs":[{"name":"","type":"bool","internalType":"bool"}],"stateMutability":"view"},{"type":"function","name":"programCodeId","inputs":[{"name":"_programId","type":"address","internalType":"address"}],"outputs":[{"name":"","type":"bytes32","internalType":"bytes32"}],"stateMutability":"view"},{"type":"function","name":"programsCodeIds","inputs":[{"name":"_programsIds","type":"address[]","internalType":"address[]"}],"outputs":[{"name":"","type":"bytes32[]","internalType":"bytes32[]"}],"stateMutability":"view"},{"type":"function","name":"programsCount","inputs":[],"outputs":[{"name":"","type":"uint256","internalType":"uint256"}],"stateMutability":"view"},{"type":"function","name":"proxiableUUID","inputs":[],"outputs":[{"name":"","type":"bytes32","internalType":"bytes32"}],"stateMutability":"view"},{"type":"function","name":"reGenesis","inputs":[{"name":"newGenesis","type":"tuple","internalType":"struct Gear.GenesisBlockInfo","components":[{"name":"hash","type":"bytes32","internalType":"bytes32"},{"name":"number","type":"uint32","internalType":"uint32"},{"name":"timestamp","type":"uint48","internalType":"uint48"}]}],"outputs":[],"stateMutability":"nonpayable"},{"type":"function","name":"reinitialize","inputs":[],"outputs":[],"stateMutability":"nonpayable"},{"type":"function","name":"renounceOwnership","inputs":[],"outputs":[],"stateMutability":"nonpayable"},{"type":"function","name":"requestCodeValidation","inputs":[{"name":"_codeId","type":"bytes32","internalType":"bytes32"}],"outputs":[],"stateMutability":"nonpayable"},{"type":"function","name":"setMirror","inputs":[{"name":"newMirror","type":"address","internalType":"address"}],"outputs":[],"stateMutability":"nonpayable"},{"type":"function","name":"signingThresholdFraction","inputs":[],"outputs":[{"name":"","type":"uint128","internalType":"uint128"},{"name":"","type":"uint128","internalType":"uint128"}],"stateMutability":"view"},{"type":"function","name":"storageView","inputs":[],"outputs":[{"name":"","type":"tuple","internalType":"struct IRouter.StorageView","components":[{"name":"genesisBlock","type":"tuple","internalType":"struct Gear.GenesisBlockInfo","components":[{"name":"hash","type":"bytes32","internalType":"bytes32"},{"name":"number","type":"uint32","internalType":"uint32"},{"name":"timestamp","type":"uint48","internalType":"uint48"}]},{"name":"latestCommittedBatch","type":"tuple","internalType":"struct Gear.CommittedBatchInfo","components":[{"name":"hash","type":"bytes32","internalType":"bytes32"},{"name":"timestamp","type":"uint48","internalType":"uint48"}]},{"name":"implAddresses","type":"tuple","internalType":"struct Gear.AddressBook","components":[{"name":"mirror","type":"address","internalType":"address"},{"name":"wrappedVara","type":"address","internalType":"address"},{"name":"middleware","type":"address","internalType":"address"}]},{"name":"validationSettings","type":"tuple","internalType":"struct Gear.ValidationSettingsView","components":[{"name":"thresholdNumerator","type":"uint128","internalType":"uint128"},{"name":"thresholdDenominator","type":"uint128","internalType":"uint128"},{"name":"validators0","type":"tuple","internalType":"struct Gear.ValidatorsView","components":[{"name":"aggregatedPublicKey","type":"tuple","internalType":"struct Gear.AggregatedPublicKey","components":[{"name":"x","type":"uint256","internalType":"uint256"},{"name":"y","type":"uint256","internalType":"uint256"}]},{"name":"verifiableSecretSharingCommitmentPointer","type":"address","internalType":"address"},{"name":"list","type":"address[]","internalType":"address[]"},{"name":"useFromTimestamp","type":"uint256","internalType":"uint256"}]},{"name":"validators1","type":"tuple","internalType":"struct Gear.ValidatorsView","components":[{"name":"aggregatedPublicKey","type":"tuple","internalType":"struct Gear.AggregatedPublicKey","components":[{"name":"x","type":"uint256","internalType":"uint256"},{"name":"y","type":"uint256","internalType":"uint256"}]},{"name":"verifiableSecretSharingCommitmentPointer","type":"address","internalType":"address"},{"name":"list","type":"address[]","internalType":"address[]"},{"name":"useFromTimestamp","type":"uint256","internalType":"uint256"}]}]},{"name":"computeSettings","type":"tuple","internalType":"struct Gear.ComputationSettings","components":[{"name":"threshold","type":"uint64","internalType":"uint64"},{"name":"wvaraPerSecond","type":"uint128","internalType":"uint128"}]},{"name":"timelines","type":"tuple","internalType":"struct Gear.Timelines","components":[{"name":"era","type":"uint256","internalType":"uint256"},{"name":"election","type":"uint256","internalType":"uint256"},{"name":"validationDelay","type":"uint256","internalType":"uint256"}]},{"name":"programsCount","type":"uint256","internalType":"uint256"},{"name":"validatedCodesCount","type":"uint256","internalType":"uint256"}]}],"stateMutability":"view"},{"type":"function","name":"timelines","inputs":[],"outputs":[{"name":"","type":"tuple","internalType":"struct Gear.Timelines","components":[{"name":"era","type":"uint256","internalType":"uint256"},{"name":"election","type":"uint256","internalType":"uint256"},{"name":"validationDelay","type":"uint256","internalType":"uint256"}]}],"stateMutability":"view"},{"type":"function","name":"transferOwnership","inputs":[{"name":"newOwner","type":"address","internalType":"address"}],"outputs":[],"stateMutability":"nonpayable"},{"type":"function","name":"unpause","inputs":[],"outputs":[],"stateMutability":"nonpayable"},{"type":"function","name":"upgradeToAndCall","inputs":[{"name":"newImplementation","type":"address","internalType":"address"},{"name":"data","type":"bytes","internalType":"bytes"}],"outputs":[],"stateMutability":"payable"},{"type":"function","name":"validatedCodesCount","inputs":[],"outputs":[{"name":"","type":"uint256","internalType":"uint256"}],"stateMutability":"view"},{"type":"function","name":"validators","inputs":[],"outputs":[{"name":"","type":"address[]","internalType":"address[]"}],"stateMutability":"view"},{"type":"function","name":"validatorsAggregatedPublicKey","inputs":[],"outputs":[{"name":"","type":"tuple","internalType":"struct Gear.AggregatedPublicKey","components":[{"name":"x","type":"uint256","internalType":"uint256"},{"name":"y","type":"uint256","internalType":"uint256"}]}],"stateMutability":"view"},{"type":"function","name":"validatorsCount","inputs":[],"outputs":[{"name":"","type":"uint256","internalType":"uint256"}],"stateMutability":"view"},{"type":"function","name":"validatorsThreshold","inputs":[],"outputs":[{"name":"","type":"uint256","internalType":"uint256"}],"stateMutability":"view"},{"type":"function","name":"validatorsVerifiableSecretSharingCommitment","inputs":[],"outputs":[{"name":"","type":"bytes","internalType":"bytes"}],"stateMutability":"view"},{"type":"function","name":"wrappedVara","inputs":[],"outputs":[{"name":"","type":"address","internalType":"address"}],"stateMutability":"view"},{"type":"event","name":"AnnouncesCommitted","inputs":[{"name":"head","type":"bytes32","indexed":false,"internalType":"bytes32"}],"anonymous":false},{"type":"event","name":"BatchCommitted","inputs":[{"name":"hash","type":"bytes32","indexed":false,"internalType":"bytes32"}],"anonymous":false},{"type":"event","name":"CodeGotValidated","inputs":[{"name":"codeId","type":"bytes32","indexed":false,"internalType":"bytes32"},{"name":"valid","type":"bool","indexed":true,"internalType":"bool"}],"anonymous":false},{"type":"event","name":"CodeValidationRequested","inputs":[{"name":"codeId","type":"bytes32","indexed":false,"internalType":"bytes32"}],"anonymous":false},{"type":"event","name":"ComputationSettingsChanged","inputs":[{"name":"threshold","type":"uint64","indexed":false,"internalType":"uint64"},{"name":"wvaraPerSecond","type":"uint128","indexed":false,"internalType":"uint128"}],"anonymous":false},{"type":"event","name":"Initialized","inputs":[{"name":"version","type":"uint64","indexed":false,"internalType":"uint64"}],"anonymous":false},{"type":"event","name":"OwnershipTransferred","inputs":[{"name":"previousOwner","type":"address","indexed":true,"internalType":"address"},{"name":"newOwner","type":"address","indexed":true,"internalType":"address"}],"anonymous":false},{"type":"event","name":"Paused","inputs":[{"name":"account","type":"address","indexed":false,"internalType":"address"}],"anonymous":false},{"type":"event","name":"ProgramCreated","inputs":[{"name":"actorId","type":"address","indexed":false,"internalType":"address"},{"name":"codeId","type":"bytes32","indexed":true,"internalType":"bytes32"}],"anonymous":false},{"type":"event","name":"StorageSlotChanged","inputs":[{"name":"slot","type":"bytes32","indexed":false,"internalType":"bytes32"}],"anonymous":false},{"type":"event","name":"Unpaused","inputs":[{"name":"account","type":"address","indexed":false,"internalType":"address"}],"anonymous":false},{"type":"event","name":"Upgraded","inputs":[{"name":"implementation","type":"address","indexed":true,"internalType":"address"}],"anonymous":false},{"type":"event","name":"ValidatorsCommittedForEra","inputs":[{"name":"eraIndex","type":"uint256","indexed":false,"internalType":"uint256"}],"anonymous":false},{"type":"error","name":"AddressEmptyCode","inputs":[{"name":"target","type":"address","internalType":"address"}]},{"type":"error","name":"ApproveERC20Failed","inputs":[]},{"type":"error","name":"BatchTimestampNotInPast","inputs":[]},{"type":"error","name":"BatchTimestampTooEarly","inputs":[]},{"type":"error","name":"BlobNotFound","inputs":[]},{"type":"error","name":"CodeAlreadyOnValidationOrValidated","inputs":[]},{"type":"error","name":"CodeNotValidated","inputs":[]},{"type":"error","name":"CodeValidationNotRequested","inputs":[]},{"type":"error","name":"CommitmentEraNotNext","inputs":[]},{"type":"error","name":"DeploymentFailed","inputs":[]},{"type":"error","name":"ECDSAInvalidSignature","inputs":[]},{"type":"error","name":"ECDSAInvalidSignatureLength","inputs":[{"name":"length","type":"uint256","internalType":"uint256"}]},{"type":"error","name":"ECDSAInvalidSignatureS","inputs":[{"name":"s","type":"bytes32","internalType":"bytes32"}]},{"type":"error","name":"ERC1967InvalidImplementation","inputs":[{"name":"implementation","type":"address","internalType":"address"}]},{"type":"error","name":"ERC1967NonPayable","inputs":[]},{"type":"error","name":"ElectionNotStarted","inputs":[]},{"type":"error","name":"EmptyValidatorsList","inputs":[]},{"type":"error","name":"EnforcedPause","inputs":[]},{"type":"error","name":"EraDurationTooShort","inputs":[]},{"type":"error","name":"ErasTimestampMustNotBeEqual","inputs":[]},{"type":"error","name":"ExpectedPause","inputs":[]},{"type":"error","name":"FailedCall","inputs":[]},{"type":"error","name":"GenesisHashAlreadySet","inputs":[]},{"type":"error","name":"GenesisHashNotFound","inputs":[]},{"type":"error","name":"InvalidElectionDuration","inputs":[]},{"type":"error","name":"InvalidFROSTAggregatedPublicKey","inputs":[]},{"type":"error","name":"InvalidFrostSignatureCount","inputs":[]},{"type":"error","name":"InvalidFrostSignatureLength","inputs":[]},{"type":"error","name":"InvalidInitialization","inputs":[]},{"type":"error","name":"InvalidPreviousCommittedBatchHash","inputs":[]},{"type":"error","name":"InvalidTimestamp","inputs":[]},{"type":"error","name":"NotInitializing","inputs":[]},{"type":"error","name":"OwnableInvalidOwner","inputs":[{"name":"owner","type":"address","internalType":"address"}]},{"type":"error","name":"OwnableUnauthorizedAccount","inputs":[{"name":"account","type":"address","internalType":"address"}]},{"type":"error","name":"PredecessorBlockNotFound","inputs":[]},{"type":"error","name":"ReentrancyGuardReentrantCall","inputs":[]},{"type":"error","name":"RewardsCommitmentEraNotPrevious","inputs":[]},{"type":"error","name":"RewardsCommitmentPredatesGenesis","inputs":[]},{"type":"error","name":"RewardsCommitmentTimestampNotInPast","inputs":[]},{"type":"error","name":"RouterGenesisHashNotInitialized","inputs":[]},{"type":"error","name":"SignatureVerificationFailed","inputs":[]},{"type":"error","name":"TimestampInFuture","inputs":[]},{"type":"error","name":"TimestampOlderThanPreviousEra","inputs":[]},{"type":"error","name":"TooManyChainCommitments","inputs":[]},{"type":"error","name":"TooManyRewardsCommitments","inputs":[]},{"type":"error","name":"TooManyValidatorsCommitments","inputs":[]},{"type":"error","name":"UUPSUnauthorizedCallContext","inputs":[]},{"type":"error","name":"UUPSUnsupportedProxiableUUID","inputs":[{"name":"slot","type":"bytes32","internalType":"bytes32"}]},{"type":"error","name":"UnknownProgram","inputs":[]},{"type":"error","name":"ValidationBeforeGenesis","inputs":[]},{"type":"error","name":"ValidationDelayTooBig","inputs":[]},{"type":"error","name":"ValidatorsAlreadyScheduled","inputs":[]},{"type":"error","name":"ValidatorsNotFoundForTimestamp","inputs":[]},{"type":"error","name":"ZeroValueTransfer","inputs":[]}],"bytecode":{"object":"0x60a080604052346100c257306080525f5160206145c15f395f51905f525460ff8160401c166100b3576002600160401b03196001600160401b03821601610060575b6040516144fa90816100c78239608051818181611c080152611c9b0152f35b6001600160401b0319166001600160401b039081175f5160206145c15f395f51905f525581527fc7f505b2f371ae2175ee4913f4499e1f2633a7b5936321eed1cdaeb6115181d290602090a15f80610041565b63f92ee8a960e01b5f5260045ffd5b5f80fdfe6080806040526004361015610091575b50361561001a575f80fd5b610022612dae565b5f51602061449a5f395f51905f5254600181015415610082576001600160801b0334161561007357335f908152601a9190910160205260409020541561006457005b63821a62f560e01b5f5260045ffd5b63a1a7c6eb60e01b5f5260045ffd5b63580683f360e01b5f5260045ffd5b5f905f3560e01c9081627a32e7146127b5575080630c18d277146122c7578063120e3f1e146121e857806328e24b3d146121ba5780633683c4d214611f935780633bd109fa14611f445780633d43b41814611ef05780633f4ba83a14611e705780634f1ef28614611c5c57806352d1902d14611bf557806353f7fd481461177a5780635c975abb1461174b5780636c2eb350146113e6578063715018a61461137d57806371a8cf2d1461134f57806382bdeaad146112375780638456cb59146111c457806384d22a4f1461116657806388f50cf01461112d5780638b1edf1e146110c65780638da5cb5b146110915780638f381dbe1461104b5780639067088e1461100257806396a2ddfa14610fd45780639eb939a814610f7d578063a5d53a4414610f27578063a9d70f7614610e4d578063ad3cb1cc14610e04578063b24fcac01461095a578063baaf020114610859578063c13911e814610815578063c2eb812f146104e9578063ca1e781914610499578063cacf66ab14610461578063d456fd511461042b578063e3a6684f146103ec578063e6fabc09146103b3578063ed612f8c1461037b578063edc8722514610326578063f2fde38b146102f9578063f4f20ac0146102c05763facd743b0361000f57346102bd5760203660031901126102bd5761027f61280b565b600361029a5f51602061449a5f395f51905f52544290613f77565b019060018060a01b03165f52602052602060ff60405f2054166040519015158152f35b80fd5b50346102bd57806003193601126102bd575f51602061449a5f395f51905f5254600701546040516001600160a01b039091168152602090f35b50346102bd5760203660031901126102bd5761032361031661280b565b61031e612de3565b612d3d565b80f35b50346102bd57806003193601126102bd5760206103735f51602061449a5f395f51905f5254600860046103594284613f77565b0154910154906001600160801b038260801c921690613f4c565b604051908152f35b50346102bd57806003193601126102bd57602060046103a95f51602061449a5f395f51905f52544290613f77565b0154604051908152f35b50346102bd57806003193601126102bd575f51602061449a5f395f51905f5254600501546040516001600160a01b039091168152602090f35b50346102bd57806003193601126102bd57604060085f51602061449a5f395f51905f525401548151906001600160801b038116825260801c6020820152f35b50346102bd57806003193601126102bd57602065ffffffffffff60045f51602061449a5f395f51905f5254015416604051908152f35b50346102bd57806003193601126102bd57602065ffffffffffff60025f51602061449a5f395f51905f52540154821c16604051908152f35b50346102bd57806003193601126102bd576104e56104d160046104cb5f51602061449a5f395f51905f52544290613f77565b01612b32565b6040519182916020835260208301906129a7565b0390f35b50346102bd57806003193601126102bd576040516105068161287f565b61050e612c6b565b815260405161051c81612864565b5f8152602081015f90526020820152610533612c6b565b6040820152610540612d0a565b606082015260405161055181612864565b5f80825260208201526080820152610567612c6b565b60a08201528160c082015260e001525f51602061449a5f395f51905f525461058d612d0a565b5061059a60098201614207565b906105a7600f8201614207565b600882015492604051936105ba8561289b565b6001600160801b038116855260801c602085015260408401526060830152601b81015490601c810154604051926105f08461287f565b6040516105fc81612835565b60018401548152600284015463ffffffff8116602083015260201c65ffffffffffff16604082015284526040519461063386612864565b60038401548652600484015465ffffffffffff166020870152602085019586526040519061066082612835565b60058501546001600160a01b0390811683526006860154811660208401526007860154166040808401919091528601918252606086019081526106a560158601612bbd565b94608087019586526016016106b990612c89565b9160a0870192835260c0870193845260e087019485526040519788976020895251805160208a0152602081015163ffffffff1660408a01526040015165ffffffffffff16606089015251805160808901526020015165ffffffffffff1660a088015251600160a01b6001900381511660c0880152600160a01b6001900360208201511660e0880152600160a01b60019003906040015116610100870152516101208601610200905280516001600160801b031661022087015260208101516001600160801b031661024087015260408101516102608701608090526102a087016107a2916129e3565b90606001519061021f19878203016102808801526107bf916129e3565b935180516001600160401b0316610140870152602001516001600160801b031661016086015251805161018086015260208101516101a0860152604001516101c0850152516101e0840152516102008301520390f35b50346102bd5760203660031901126102bd5760ff604060209260195f51602061449a5f395f51905f525401600435825284522054166108576040518092612976565bf35b50346102bd5760203660031901126102bd576004356001600160401b0381116109565761088a903690600401612946565b905f51602061449a5f395f51905f5254906108a483612ac7565b916108b260405193846128b6565b8383526108be84612ac7565b602084019490601f1901368637601a869201915b81811061091d57868587604051928392602084019060208552518091526040840192915b818110610904575050500390f35b82518452859450602093840193909201916001016108f6565b8061093361092e6001938588612b85565b612beb565b828060a01b03165f528360205260405f205461094f8288612ba9565b52016108d2565b5080fd5b50346102bd5760603660031901126102bd576001600160401b03600435116102bd57610100600435360360031901126102bd57600260243510156102bd576044356001600160401b038111610956576109b7903690600401612946565b7f9b779b17422d0df92223018b32b4d1fa46e071723d6817e2486d003becc55f005c610df55760017f9b779b17422d0df92223018b32b4d1fa46e071723d6817e2486d003becc55f005d5f51602061449a5f395f51905f525490600182015415610de657815415610d8a575b60038201546044600435013503610d7b5765ffffffffffff60048301541665ffffffffffff610a56602460043501612cbf565b1610610d6d57610a6b6004356004018361314b565b92610a8060a460043501600435600401613600565b808096925060051b0460201485151715610d5957610aa08560051b613ff3565b8695865b818810610c105750610bd6965060051b902090610ac660043560040186613664565b610ad560043560040187613a57565b90610ae4602460043501612cbf565b93610af3606460043501612cb1565b9360405194602086019660043560040135885265ffffffffffff60d01b9060d01b16604087015260446004350135604687015260ff60f81b9060f81b1660668601526067850152608784015260a783015260c782015260c78152610b5860e7826128b6565b5190209283600382015565ffffffffffff610b77602460043501612cbf565b1665ffffffffffff196004830154161760048201557f7ebe42360bcb182fe0a88148b081e4557c89d09aa6af8307635ac2f83e2aaa656020604051868152a165ffffffffffff610bcb602460043501612cbf565b169360243591613cda565b15610c0157807f9b779b17422d0df92223018b32b4d1fa46e071723d6817e2486d003becc55f005d80f35b63729d0f6b60e01b8152600490fd5b610c2460a460043501600435600401613600565b891015610d45578860061b8101358a526019880160205260ff60408b2054166003811015610d3157600103610d2257600191602091610ce78b8b8e868360061b86010192610c7184613635565b15610d035760061b85013590525060198c01855260408e20805460ff19166002179055601c8c018054610ca390612dd5565b90555b8c7f460119a8f69a33ed127de517d5ea464e958ce23ef19e4420a8b92bf780bbc2c986610cd284613635565b1515926040519060061b8701358152a2613635565b908b60061b01358c52825360218b208186015201970196610aa4565b60409260199160061b87013583520187522060ff198154169055610ca6565b636e83084760e11b8a5260048afd5b634e487b7160e01b8b52602160045260248bfd5b634e487b7160e01b8a52603260045260248afd5b634e487b7160e01b86526011600452602486fd5b620725b160ea1b8452600484fd5b63164b6fc360e01b8452600484fd5b610da7610d9b606460043501612cb1565b600435600401356130b6565b15610dd75765ffffffffffff610dc1602460043501612cbf565b164211610a2357631ad8809560e31b8452600484fd5b637b8cb35960e01b8452600484fd5b63580683f360e01b8452600484fd5b633ee5aeb560e01b8352600483fd5b50346102bd57806003193601126102bd57506104e5604051610e276040826128b6565b60058152640352e302e360dc1b6020820152604051918291602083526020830190612983565b50346102bd5760603660031901126102bd57604051610e6b81612835565b60043581526024359063ffffffff82168203610f2357602081019182526044359165ffffffffffff83168303610f1f5760049260408301908152610ead612de3565b5f51602061449a5f395f51905f52549251600184015563ffffffff6002840192511669ffffffffffff000000008354925160201b169169ffffffffffffffffffff191617179055826020604051610f0381612864565b82815201528260038201550165ffffffffffff19815416905580f35b8380fd5b8280fd5b50346102bd57806003193601126102bd576104e5610f695f51602061449a5f395f51905f52546002610f6160018060a01b03924290613f77565b015416613087565b604051918291602083526020830190612983565b50346102bd57806003193601126102bd57610f96612c6b565b506060610fb360165f51602061449a5f395f51905f525401612c89565b61085760405180926040809180518452602081015160208501520151910152565b50346102bd57806003193601126102bd576020601b5f51602061449a5f395f51905f52540154604051908152f35b50346102bd5760203660031901126102bd5761101c61280b565b601a5f51602061449a5f395f51905f5254019060018060a01b03165f52602052602060405f2054604051908152f35b50346102bd5760203660031901126102bd57600435906001600160401b0382116102bd5760206110876110813660048601612946565b90612bff565b6040519015158152f35b50346102bd57806003193601126102bd575f51602061445a5f395f51905f52546040516001600160a01b039091168152602090f35b50346102bd57806003193601126102bd576110df612dae565b5f51602061449a5f395f51905f52546001810190815461111e576002015463ffffffff164090811561110f575580f35b63f7bac7b560e01b8352600483fd5b6309476b0360e41b8352600483fd5b50346102bd57806003193601126102bd575f51602061449a5f395f51905f5254600601546040516001600160a01b039091168152602090f35b50346102bd57806003193601126102bd5761117f612a2a565b50604061119c60155f51602061449a5f395f51905f525401612bbd565b610857825180926001600160801b03602080926001600160401b038151168552015116910152565b50346102bd57806003193601126102bd576111dd612de3565b6111e5612dae565b600160ff195f5160206144ba5f395f51905f525416175f5160206144ba5f395f51905f52557f62e78cea01bee320cd4e420270b5ea74000d11b0c9f74754ebdbfc544b05a2586020604051338152a180f35b50346102bd5760203660031901126102bd576004356001600160401b03811161095657611268903690600401612946565b905f51602061449a5f395f51905f52549061128283612ac7565b9161129060405193846128b6565b83835261129c84612ac7565b602084019490601f19013686376019869201915b81811061130557868587604051928392602084019060208552518091526040840192915b8181106112e2575050500390f35b91935091602080826112f76001948851612976565b0194019101918493926112d4565b611310818386612b85565b3587528260205260ff6040882054166113298287612ba9565b600382101561133b57526001016112b0565b634e487b7160e01b89526021600452602489fd5b50346102bd57806003193601126102bd57602060035f51602061449a5f395f51905f52540154604051908152f35b50346102bd57806003193601126102bd57611396612de3565b5f51602061445a5f395f51905f5280546001600160a01b0319811690915581906001600160a01b03167f8be0079c531659141344cd1fd0a4f28419497f9722a3daafe3b4186f6b6457e08280a380f35b50346102bd57806003193601126102bd576113ff612de3565b5f5160206144da5f395f51905f525460ff8160401c16908115611736575b50611727575f5160206144da5f395f51905f52805468ffffffffffffffffff1916680100000000000000021790555f51602061445a5f395f51905f5254611477906001600160a01b031661146f613f93565b61031e613f93565b7fc7f505b2f371ae2175ee4913f4499e1f2633a7b5936321eed1cdaeb6115181d260205f51602061449a5f395f51905f525460409081516114b883826128b6565b601781528381017f726f757465722e73746f726167652e526f75746572563200000000000000000081526114ea612de3565b5f199151902001855260ff198386201690815f51602061449a5f395f51905f52557f059eb9adf6e95b839d818142ed5bd5e498b6d95138e65c91525e93cc0f0339fc848451848152a161153b612e16565b80516001840155600283019063ffffffff868201511669ffffffffffff00000000868454930151881b169169ffffffffffffffffffff1916171790556005810160058301908082036116d9575b5050600881016001600160801b038154169060088401916001600160801b0319835416178255546001600160801b0382549181191691161790556116116115cf4283613f77565b6115e66001600160a01b036002610f614287613f77565b6115fc60046115f54287613f77565b0192612a42565b906116074293612b32565b9160098701612e5e565b601581016015830190808203611687575b5050601681016016830191818303611667575b5050505060ff60401b195f5160206144da5f395f51905f5254165f5160206144da5f395f51905f52555160028152a180f35b60189283925490556017810154601785015501549101555f808080611635565b806001600160401b03806001600160801b03935416166001600160401b031984541617835554851c16600160401b600160c01b03825491861b1690600160401b600160c01b0319161790555f80611622565b5481546001600160a01b03199081166001600160a01b039283161790925560068381015490850180548416918316919091179055600780840154908501805490931691161790555f80611588565b63f92ee8a960e01b8152600490fd5b600291506001600160401b031610155f61141d565b50346102bd57806003193601126102bd57602060ff5f5160206144ba5f395f51905f5254166040519015158152f35b50346102bd576101603660031901126102bd5761179561280b565b6024356001600160a01b0381169190829003610f23576117b36127df565b916117bc6127f5565b9260c43591608435919060a43560403660e3190112611bf15761012435946001600160401b038611611bed5736602387011215611bed578560040135916001600160401b038311611be9573660248489010111611be957610144356001600160401b038111611be557611833903690600401612946565b9690945f5160206144da5f395f51905f5254996001600160401b0360ff8c60401c16159b1680159081611bdd575b6001149081611bd3575b159081611bca575b50611bbb576118b5908b60016001600160401b03195f5160206144da5f395f51905f525416175f5160206144da5f395f51905f5255611b8b575b61146f613f93565b6118bd613f93565b6118c5613f93565b4215611b7c578215611b6d5782821115611b5e57600a6118e58484612a60565b04841015611b4f5760409a8b918d83516118ff85826128b6565b60178152602081017f726f757465722e73746f726167652e526f7574657256310000000000000000008152611932612de3565b905190205f190190526020808f2060ff19165f51602061449a5f395f51905f528190558451818152909a917f059eb9adf6e95b839d818142ed5bd5e498b6d95138e65c91525e93cc0f0339fc91a1611988612e16565b805160018c015560028b0190602081015163ffffffff1686835492015160201b69ffffffffffff00000000169169ffffffffffffffffffff1916171790558351906119d282612835565b8282526001600160a01b03908116602083018190529381169490910184905260058a018054919092166001600160a01b031991821617909155600689018054821690921790915560078801805490911690911790557003000000000000000000000000000000026008870155611a46612a2a565b508951611a5281612864565b639502f90081526509184e72a0006020909101526015860180546001600160c01b0319166d09184e72a000000000009502f900179055895183908b90611a9781612835565b8381528460208201520152601686015560178501556018840155865194611abd86612864565b60e4358652610104356020870152611ad99136916024016128f2565b9042933690611ae792612ade565b9160090193611af594612e5e565b611afd575080f35b60207fc7f505b2f371ae2175ee4913f4499e1f2633a7b5936321eed1cdaeb6115181d29160ff60401b195f5160206144da5f395f51905f5254165f5160206144da5f395f51905f52555160018152a180f35b63145e348f60e01b8c5260048cfd5b6353b2bbed60e01b8c5260048cfd5b63f7ba6bdb60e01b8c5260048cfd5b63b7d0949760e01b8c5260048cfd5b600160401b60ff60401b195f5160206144da5f395f51905f525416175f5160206144da5f395f51905f52556118ad565b63f92ee8a960e01b8d5260048dfd5b9050155f611873565b303b15915061186b565b8c9150611861565b8a80fd5b8980fd5b8880fd5b8780fd5b50346102bd57806003193601126102bd577f00000000000000000000000000000000000000000000000000000000000000006001600160a01b03163003611c4d5760206040515f51602061447a5f395f51905f528152f35b63703e46dd60e11b8152600490fd5b5060403660031901126102bd57611c7161280b565b906024356001600160401b03811161095657611c91903690600401612928565b6001600160a01b037f000000000000000000000000000000000000000000000000000000000000000016308114908115611e4e575b50611e3f57611cd3612de3565b6040516352d1902d60e01b8152926001600160a01b0381169190602085600481865afa80958596611e07575b50611d1857634c9c8ce360e01b84526004839052602484fd5b9091845f51602061447a5f395f51905f528103611df55750813b15611de3575f51602061447a5f395f51905f5280546001600160a01b031916821790557fbc7cd75a20ee27fd9adebab32041f755214dbc6bffa90cc0225b39da2e5c2d3b8480a28151839015611dc95780836020611dbd95519101845af43d15611dc1573d91611da1836128d7565b92611daf60405194856128b6565b83523d85602085013e614379565b5080f35b606091614379565b50505034611dd45780f35b63b398979f60e01b8152600490fd5b634c9c8ce360e01b8452600452602483fd5b632a87526960e21b8552600452602484fd5b9095506020813d602011611e37575b81611e23602093836128b6565b81010312611e335751945f611cff565b5f80fd5b3d9150611e16565b63703e46dd60e11b8252600482fd5b5f51602061447a5f395f51905f52546001600160a01b0316141590505f611cc6565b50346102bd57806003193601126102bd57611e89612de3565b5f5160206144ba5f395f51905f525460ff811615611ee15760ff19165f5160206144ba5f395f51905f52557f5db9ee0a495bf2e6ff9c91a7834c1ba4fdd244a5e8aa4e537bd38aeae4b073aa6020604051338152a180f35b638dfc202b60e01b8252600482fd5b50346102bd5760203660031901126102bd57611f0a61280b565b611f12612de3565b5f51602061449a5f395f51905f525460050180546001600160a01b0319166001600160a01b0390921691909117905580f35b50346102bd57806003193601126102bd57611f5d612a2a565b506040611f81611f7c5f51602061449a5f395f51905f52544290613f77565b612a42565b60208251918051835201516020820152f35b50346102bd5760603660031901126102bd57600435611fb06127df565b611fb8612dae565b5f51602061449a5f395f51905f5254600181015415610de6578284526019810160205260ff60408520541660038110156121a657600203612197578284526024356020526040842060405160608101908082106001600160401b0383111761219357605a916040527f3d605080600a3d3981f3608060405263e6fabc0960e01b5f5260205f6004817381523060601b6b5afa15604c575f80805136821760208201527f80378136915af43d5f803e156048573d5ff35b3d5ffd5b5f80fd000000000000604082015286f590811561218f576001600160a01b0382165f908152601a820160205260409020849055601b0180546120b390612dd5565b90556040516001600160a01b03821680825293907f8008ec1d8798725ebfa0f2d128d52e8e717dcba6e0f786557eeee70614b02bf190602090a2506001600160a01b03811661218a5750335b5f51602061449a5f395f51905f5254600501546001600160a01b0316823b15610f1f57604051631c9776b560e31b81526001600160a01b039092166004830152602482015260016044820152828160648183865af1801561217f5761216a575b602082604051908152f35b6121758380926128b6565b610956578161215f565b6040513d85823e3d90fd5b6120ff565b8480fd5b8680fd5b630e2637d160e01b8452600484fd5b634e487b7160e01b85526021600452602485fd5b50346102bd57806003193601126102bd57602060015f51602061449a5f395f51905f52540154604051908152f35b50346102bd5760203660031901126102bd57600435612205612dae565b8149156122b8575f51602061449a5f395f51905f52546001810154156122a9576019018183528060205260ff6040842054166003811015612295576122865781835260209081526040808420805460ff19166001179055519182527f5c261a095dd5720475295dc06379921c003c22164ee6cae5cf83e76ce0a1b98591a180f35b6304c51a3360e31b8352600483fd5b634e487b7160e01b84526021600452602484fd5b63580683f360e01b8352600483fd5b637bb2fa2f60e11b8252600482fd5b34611e33576080366003190112611e33576004356122e36127df565b906122ec6127f5565b916122f5612dae565b5f51602061449a5f395f51905f525460018101541561008257825f526019810160205260ff60405f20541660038110156127a15760020361279257825f5260243560205260405f206040516102c08101908082106001600160401b03831117611e33576102b0916040527f60808060405261029e90816100128239f3fe608060405260043610610254575f81527f3560e01c806336a52a18146100ab57806342129d00146100a65780635ce6c32760208201527f146100a1578063701da98e1461009c578063704ed542146100975780637a8e0c60408201527fdd1461009257806391d5a64c1461008d5780639ce110d714610088578063affe60608201527fd0e0146100835763e43f3433036102545761023f565b610222565b6101fa565b60808201527f6101e4565b6101b1565b610181565b610165565b610143565b610106565b346160a08201527ed4575f3660031901126100d45760025460081c6001600160a01b031660809060c08201527f8152602090f35b5f80fd5b9181601f840112156100d45782359167ffffffffff60e08201527fffffff83116100d457602083818601950101116100d457565b604036600319016101008201527f126100d45760043567ffffffffffffffff81116100d4576101329036906004016101208201527f6100d8565b505060243580151514610254575f80fd5b346100d4575f366003196101408201527f01126100d457602060ff600254166040519015158152f35b346100d4575f36606101608201527f031901126100d45760205f54604051908152f35b346100d457602036600319016101808201527f126100d4576004356fffffffffffffffffffffffffffffffff811614610254576101a08201527f5f80fd5b60403660031901126100d45760243567ffffffffffffffff811161006101c08201527fd4576101dd9036906004016100d8565b5050610254565b346100d457602036606101e08201527f0319011215610254575f80fd5b346100d4575f3660031901126100d4576003546102008201527f6040516001600160a01b039091168152602090f35b346100d4575f36600319016102208201527f126100d4576020600154604051908152f35b346100d4575f36600319011215616102408201523060601c7f0254575f80fd5b63e6fabc0960e01b5f5260205f60048173000000000000000017610260820152735afa156100d4575f808051368280378136915af43060a01b176102808201526f3d5f803e1561029a573d5ff35b3d5ffd60801b6102a08201525ff5908115611e33576001600160a01b0382165f908152601a820160205260409020849055601b0180546126d190612dd5565b90556040516001600160a01b03821680825293907f8008ec1d8798725ebfa0f2d128d52e8e717dcba6e0f786557eeee70614b02bf190602090a2506001600160a01b03811661278c575033915b813b15611e3357604051631c9776b560e31b81526001600160a01b039384166004820152921660248301525f604483018190528260648183855af191821561278157602092612771575b50604051908152f35b5f61277b916128b6565b5f612768565b6040513d5f823e3d90fd5b9161271e565b630e2637d160e01b5f5260045ffd5b634e487b7160e01b5f52602160045260245ffd5b34611e33575f366003190112611e3357602090601c5f51602061449a5f395f51905f525401548152f35b604435906001600160a01b0382168203611e3357565b606435906001600160a01b0382168203611e3357565b600435906001600160a01b0382168203611e3357565b35906001600160a01b0382168203611e3357565b606081019081106001600160401b0382111761285057604052565b634e487b7160e01b5f52604160045260245ffd5b604081019081106001600160401b0382111761285057604052565b61010081019081106001600160401b0382111761285057604052565b608081019081106001600160401b0382111761285057604052565b90601f801991011681019081106001600160401b0382111761285057604052565b6001600160401b03811161285057601f01601f191660200190565b9291926128fe826128d7565b9161290c60405193846128b6565b829481845281830111611e33578281602093845f960137010152565b9080601f83011215611e3357816020612943933591016128f2565b90565b9181601f84011215611e33578235916001600160401b038311611e33576020808501948460051b010111611e3357565b9060038210156127a15752565b805180835260209291819084018484015e5f828201840152601f01601f1916010190565b90602080835192838152019201905f5b8181106129c45750505090565b82516001600160a01b03168452602093840193909201916001016129b7565b9060208251805183520151602082015260018060a01b03602083015116604082015260806060612a21604085015160a08386015260a08501906129a7565b93015191015290565b60405190612a3782612864565b5f6020838281520152565b90604051612a4f81612864565b602060018294805484520154910152565b91908203918211612a6d57565b634e487b7160e01b5f52601160045260245ffd5b8115612a8b570490565b634e487b7160e01b5f52601260045260245ffd5b9190826040910312611e3357604051612ab781612864565b6020808294803584520135910152565b6001600160401b0381116128505760051b60200190565b929190612aea81612ac7565b93612af860405195866128b6565b602085838152019160051b8101928311611e3357905b828210612b1a57505050565b60208091612b2784612821565b815201910190612b0e565b90604051918281549182825260208201905f5260205f20925f5b818110612b63575050612b61925003836128b6565b565b84546001600160a01b0316835260019485019487945060209093019201612b4c565b9190811015612b955760051b0190565b634e487b7160e01b5f52603260045260245ffd5b8051821015612b955760209160051b010190565b90604051612bca81612864565b91546001600160401b038116835260401c6001600160801b03166020830152565b356001600160a01b0381168103611e335790565b612c185f51602061449a5f395f51905f52544290613f77565b600301905f5b838110612c2e5750505050600190565b612c3c61092e828685612b85565b6001600160a01b03165f9081526020849052604090205460ff1615612c6357600101612c1e565b505050505f90565b60405190612c7882612835565b5f6040838281528260208201520152565b90604051612c9681612835565b60406002829480548452600181015460208501520154910152565b3560ff81168103611e335790565b3565ffffffffffff81168103611e335790565b60405190612cdf8261289b565b5f606083604051612cef81612864565b83815283602082015281528260208201528160408201520152565b60405190612d178261289b565b815f81525f6020820152612d29612cd2565b60408201526060612d38612cd2565b910152565b6001600160a01b03168015612d9b575f51602061445a5f395f51905f5280546001600160a01b0319811683179091556001600160a01b03167f8be0079c531659141344cd1fd0a4f28419497f9722a3daafe3b4186f6b6457e05f80a3565b631e4fbdf760e01b5f525f60045260245ffd5b60ff5f5160206144ba5f395f51905f525416612dc657565b63d93c066560e01b5f5260045ffd5b5f198114612a6d5760010190565b5f51602061445a5f395f51905f52546001600160a01b03163303612e0357565b63118cdaa760e01b5f523360045260245ffd5b612e1e612c6b565b50604051612e2b81612835565b5f815263ffffffff4316602082015265ffffffffffff4216604082015290565b81810292918115918404141715612a6d57565b9291908051906020810191825170014551231950b75fc4402da1732fc9bebe1982109182613076575b5050156130675751845551600184015560405190612eca6021836020808201945f86528051918291018484015e81015f838201520301601f1981018452836128b6565b612f07602b604051809360208201956a600b5981380380925939f360a81b87525180918484015e81015f838201520301601f1981018352826128b6565b51905ff06001600160a01b03811615613058576002830180546001600160a01b0319166001600160a01b039092169190911790555f5b600483018054821015612f7b575f90815260208082208301546001600160a01b0316825260038501905260409020805460ff19169055600101612f3d565b5050925f5b8451811015612fc4576001906001600160a01b03612f9e8288612ba9565b5116828060a01b03165f526003840160205260405f208260ff1982541617905501612f80565b5092600482018151916001600160401b03831161285057600160401b831161285057815483835580841061302e575b50602001905f5260205f205f5b838110613011575050505060050155565b82516001600160a01b031681830155602090920191600101613000565b825f52838060205f20019103905f5b82811061304b575050612ff3565b5f8282015560010161303d565b633011642560e01b5f5260045ffd5b63375f0aab60e11b5f5260045ffd5b6130809250614356565b5f80612e87565b803b905f19820190828211612a6d5760019060405193603e601f19910116840160405282845260208401903c90565b435f1981019392908411612a6d5760ff1643811061310657505f925b838110156130e2575b505f925050565b80408281036130f45750600193505050565b15613101575f19016130d2565b6130db565b6131109043612a60565b926130d2565b903590601e1981360301821215611e3357018035906001600160401b038211611e3357602001918160051b36038313611e3357565b9060808101600161315c8284613116565b9050116135f15761316d8183613116565b9050156135ca5761317d91613116565b15612b9557803590603e1981360301821215611e3357019161319f8380613116565b9190928260051b9383850460201484151715612a6d576131c185969495613ff3565b925f945f97601a60fe19853603019501965b888a1015613582578960051b85013586811215611e335785016131f581612beb565b6001600160a01b03165f90815260208a9052604090205415610064575f608082016001600160801b0361322782613fbe565b1615158061356f575b61355e575b6001600160a01b0361324684612beb565b604051630427a21d60e11b81526020600482015294911691610124850191906001600160801b03906132c5906001600160a01b0361328385612821565b1660248901526020840135604489015261329f60408501613fd2565b151560648901526001600160a01b036132ba60608601612821565b166084890152613fdf565b1660a48601526132d760a08201613fd2565b151560c486015236819003601e190160c082013581811215611e33578201602081359101936001600160401b038211611e33576060820236038513611e3357819061010060e48a015252610144870193905f905b8082106135145750505060e082013590811215611e335701803560208201926001600160401b038211611e33578160051b908136038513611e335791879594936023198785030161010488015281845260208085019385010194935f9160fe19813603015b8484106134075750505050505050602093916001600160801b03848093039316905af1908115612781575f916133d5575b50816020916001938a0152019901986131d3565b90506020813d82116133ff575b816133ef602093836128b6565b81010312611e33575160016133c1565b3d91506133e2565b919395979850919395601f19848203018752873582811215611e33578301602081013582526001600160a01b0361344060408301612821565b1660208301526060810135603e193683900301811215611e33578101602081013591906040016001600160401b038311611e33578236038113611e3357829060e060408601528160e08601526101008501375f61010083850101526001600160801b036134af60808301613fdf565b16606084015260a0810135608084015260c081013563ffffffff60e01b8116809103611e3357836020936134f160e086956101009560a060019a015201613fd2565b151560c0830152601f80199101160101990197019401918a989796959391613390565b90919460608060019288358152838060a01b0361353360208b01612821565b1660208201526001600160801b0361354d60408b01613fdf565b16604082015201960192019061332b565b905061356981613fbe565b90613235565b5061357c60a08401613635565b15613230565b5094935095509550506020925020910135907fd04cd9af813f6f0b56e9411a6ee6a84eb5ac35a96f0c33d2e3a07d65baa8f4186020604051848152a15f5260205260405f2090565b5050507fc5d2460186f7233c927e7db2dcc703c0e500b653ca82273b7bfad8045d85a47090565b6306d6c38360e01b5f5260045ffd5b903590601e1981360301821215611e3357018035906001600160401b038211611e3357602001918160061b36038313611e3357565b358015158103611e335790565b903590605e1981360301821215611e33570190565b91908201809211612a6d57565b60c0820160016136748285613116565b905011613a16576136858184613116565b9050156135ca576136969083613116565b15612b9557803590607e1981360301821215611e33570191606083019060206136be83612cbf565b91019065ffffffffffff806136d284612cbf565b1691161015613a07576136e482612cbf565b65ffffffffffff80600286015460201c169116106139f85761372a65ffffffffffff61372361371d8261371687612cbf565b1687614018565b93612cbf565b1684614018565b11156139e9576007820154600690920180548435946001600160a01b0394851694604082019391925f91602091166044613770836137688989613642565b01358b613657565b604051948593849263095ea7b360e01b84528c600485015260248401525af1908115612781575f916139ae575b501561399f575460405163394f179b60e11b81526001600160a01b03909116600482015260248101959095526020818101356044870152856064815f885af1948515612781575f95613967575b50906137f591613642565b916137ff82612cbf565b9260405193637fbe95b560e01b85526040600486015260a48501918035601e1982360301811215611e33578101602081359101936001600160401b038211611e33578160061b36038513611e335760606044890152819052869360c485019392915f5b81811061392f57505050836020959365ffffffffffff829484895f9601356064860152613898604060018060a01b039201612821565b16608485015216602483015203925af1918215612781575f926138f9575b506138c090612cbf565b6040519160208301938452604083015265ffffffffffff60d01b9060d01b166060820152604681526138f36066826128b6565b51902090565b9091506020813d602011613927575b81613915602093836128b6565b81010312611e335751906138c06138b6565b3d9150613908565b919550919293604080600192838060a01b0361394a8a612821565b168152602089013560208201520196019101918895949392613862565b919094506020823d602011613997575b81613984602093836128b6565b81010312611e33579051936137f56137ea565b3d9150613977565b6367b9145160e01b5f5260045ffd5b90506020813d6020116139e1575b816139c9602093836128b6565b81010312611e3357518015158103611e33575f61379d565b3d91506139bc565b6308027f7760e31b5f5260045ffd5b637bde91e760e11b5f5260045ffd5b63087a19ab60e41b5f5260045ffd5b633249ceed60e11b5f5260045ffd5b903590601e1981360301821215611e3357018035906001600160401b038211611e3357602001918136038313611e3357565b9060e081016001613a688284613116565b905011613ccb57613a798183613116565b9050156135ca57613a8991613116565b15612b9557803590609e1981360301821215611e3357016060810190613aaf8282613116565b905015613cbc5765ffffffffffff600284015460201c1691613ad18342612a60565b613ae060168601548092612a81565b9360808401359460018101809111612a6d578503613cad57613b0585613b0b93612e4b565b90613657565b93613b1a601782015486612a60565b4210613c9e57613b2990614040565b934260058601541015613c8f57613b7e906040840195613b70613b78613b4f8988613a25565b9190613b5b888a613116565b949091613b68368c612a9f565b9436916128f2565b933691612ade565b92612e5e565b7fa1a3b42179ad30022438a1ea333b38eaf4a7329beee5e2b8111c0dcd4e08821c6020604051858152a160a082360312611e335760405193613bbf8561289b565b613bc93684612a9f565b8552356001600160401b038111611e3357613be79036908401612928565b602085015235906001600160401b038211611e33570136601f82011215611e3357613c19903690602081359101612ade565b91826040820152816060820152519160208351930151906040519283926020840195865260408401526060830160208351919301905f5b818110613c6d575050508152038082526138f390602001826128b6565b82516001600160a01b0316855286955060209485019490920191600101613c50565b6333fc8f5160e21b5f5260045ffd5b6372a84ce560e11b5f5260045ffd5b6343d3f5bf60e01b5f5260045ffd5b636c2bf3db60e01b5f5260045ffd5b631d3fc6bf60e21b5f5260045ffd5b909493919365ffffffffffff600283015460201c16613cf94284614018565b613d11613d0b60168601548093612e4b565b83613657565b918284108080613f36575b15613f0457508310613ef657613d329083613657565b10613ee757613d42905b82613f77565b94601960f81b5f523060601b60025260165260365f209360028110156127a15780613dd357505060018103613dc45715612b9557613d8381613d8a92613a25565b36916128f2565b916060835103613db5578260206129439401516060604083015192015192600181549101549061405b565b632ce466bf60e01b5f5260045ffd5b6360a1ea7760e01b5f5260045ffd5b919391600114613de65750505050505f90565b613e0b90600860048796970154910154906001600160801b038260801c921690613f4c565b925f9260035f9201915b86811015613edc57613e44613e3b613e35613d838460051b860186613a25565b866142bc565b909291926142f6565b6001600160a01b0381165f9081526020859052604090205460ff16613e6f575b506001905b01613e15565b6001600160a01b03165f9081527ff02b465737fa6045c2ff53fb2df43c66916ac2166fa303264668fb2f6a1d8c0060205260409020805c15613eb45750600190613e69565b946001613ec292965d612dd5565b93858514613ed0575f613e64565b50505050505050600190565b505050505050505f90565b63046bb1e560e51b5f5260045ffd5b62f4462b60e01b5f5260045ffd5b9392915050428211613f2757613d4292613f1f575b50613d3c565b90505f613f19565b6347860b9760e01b5f5260045ffd5b50613f45601887015485613657565b4210613d1c565b6001600160801b03809216029116613f648183612a81565b918115612a8b5706156129435760010190565b90613f82908261425c565b15613f8d57600f0190565b60090190565b60ff5f5160206144da5f395f51905f525460401c1615613faf57565b631afcd79f60e31b5f5260045ffd5b356001600160801b0381168103611e335790565b35908115158203611e3357565b35906001600160801b0382168203611e3357565b6040519190601f01601f191682016001600160401b03811183821017611e3357604052565b60166140376129439365ffffffffffff600285015460201c1690612a60565b91015490612a81565b61404a428261425c565b156140555760090190565b600f0190565b929391949061406a8587614356565b156141fd5782156141fd5770014551231950b75fc4402da1732fc9bebe198310156141fd576001169061010e61409f81613ff3565b9160883684376002600188160160888401538760898401526002840160a984015360aa830186905260ca8301527e300046524f53542d736563703235366b312d4b454343414b3235362d76316360ea8301526303430b6160e51b61010a830152812060cc820181815290600260ec84016001815360428420809318845253604270014551231950b75fc4402da1732fc9bebe19922060801c6001600160401b0360801b8260801b16179070014551231950b75fc4402da1732fc9bebe1990600160c01b9060401c09088015613edc5784601b6080945f9660209870014551231950b75fc4402da1732fc9bebe19910970014551231950b75fc4402da1732fc9bebe19038552018684015280604084015270014551231950b75fc4402da1732fc9bebe19910970014551231950b75fc4402da1732fc9bebe1903606082015282805260015afa505f51915f5260205260018060a01b0360405f20161490565b5050505050505f90565b61420f612cd2565b506002810154600582015460405192909161424f916004916001600160a01b03166142398661289b565b61424282612a42565b8652602086015201612b32565b6040830152606082015290565b906014600e8301549201548083146142ad578181841093119182159111159181906142a6575b15614297578261429157505090565b14919050565b634c38ae9560e11b5f5260045ffd5b5081614282565b63f26224af60e01b5f5260045ffd5b81519190604183036142ec576142e59250602082015190606060408401519301515f1a906143d7565b9192909190565b50505f9160029190565b60048110156127a15780614308575050565b6001810361431f5763f645eedf60e01b5f5260045ffd5b6002810361433a575063fce698f760e01b5f5260045260245ffd5b6003146143445750565b6335e2f38360e21b5f5260045260245ffd5b6401000003d01990600790829081818009900908906401000003d0199080091490565b9061439d575080511561438e57602081519101fd5b63d6bda27560e01b5f5260045ffd5b815115806143ce575b6143ae575090565b639996b31560e01b5f9081526001600160a01b0391909116600452602490fd5b50803b156143a6565b91907f7fffffffffffffffffffffffffffffff5d576e7357a4501ddfe92f46681b20a0841161444e579160209360809260ff5f9560405194855216868401526040830152606082015282805260015afa15612781575f516001600160a01b0381161561444457905f905f90565b505f906001905f90565b5050505f916003919056fe9016d09d72d40fdae2fd8ceac6b6234c7706214fd39c1cd1e609a0528c199300360894a13ba1a3210667c828492db98dca3e2076cc3735a920a3ca505d382bbc5c09ca1b9b8127a4fd9f3c384aac59b661441e820e17733753ff5f2e86e1e000cd5ed15c6e187e77e9aee88184c21f4f2182ab5827cb3b7e07fbedcd63f03300f0c57e16840df040f15088dc2f81fe391c3923bec73e23a9662efc9c229c6a00f0c57e16840df040f15088dc2f81fe391c3923bec73e23a9662efc9c229c6a00","linkReferences":{}},"methodIdentifiers":{"UPGRADE_INTERFACE_VERSION()":"ad3cb1cc","areValidators(address[])":"8f381dbe","codeState(bytes32)":"c13911e8","codesStates(bytes32[])":"82bdeaad","commitBatch((bytes32,uint48,bytes32,uint8,((address,bytes32,bool,address,uint128,bool,(bytes32,address,uint128)[],(bytes32,address,bytes,uint128,(bytes32,bytes4),bool)[])[],bytes32)[],(bytes32,bool)[],((uint256,bytes32),((address,uint256)[],uint256,address),uint48)[],((uint256,uint256),bytes,address[],uint256)[]),uint8,bytes[])":"b24fcac0","computeSettings()":"84d22a4f","createProgram(bytes32,bytes32,address)":"3683c4d2","createProgramWithAbiInterface(bytes32,bytes32,address,address)":"0c18d277","genesisBlockHash()":"28e24b3d","genesisTimestamp()":"cacf66ab","initialize(address,address,address,address,uint256,uint256,uint256,(uint256,uint256),bytes,address[])":"53f7fd48","isValidator(address)":"facd743b","latestCommittedBatchHash()":"71a8cf2d","latestCommittedBatchTimestamp()":"d456fd51","lookupGenesisHash()":"8b1edf1e","middleware()":"f4f20ac0","mirrorImpl()":"e6fabc09","owner()":"8da5cb5b","pause()":"8456cb59","paused()":"5c975abb","programCodeId(address)":"9067088e","programsCodeIds(address[])":"baaf0201","programsCount()":"96a2ddfa","proxiableUUID()":"52d1902d","reGenesis((bytes32,uint32,uint48))":"a9d70f76","reinitialize()":"6c2eb350","renounceOwnership()":"715018a6","requestCodeValidation(bytes32)":"120e3f1e","setMirror(address)":"3d43b418","signingThresholdFraction()":"e3a6684f","storageView()":"c2eb812f","timelines()":"9eb939a8","transferOwnership(address)":"f2fde38b","unpause()":"3f4ba83a","upgradeToAndCall(address,bytes)":"4f1ef286","validatedCodesCount()":"007a32e7","validators()":"ca1e7819","validatorsAggregatedPublicKey()":"3bd109fa","validatorsCount()":"ed612f8c","validatorsThreshold()":"edc87225","validatorsVerifiableSecretSharingCommitment()":"a5d53a44","wrappedVara()":"88f50cf0"},"storageLayout":{"storage":[],"types":{}},"id":165}