{"abi":[{"type":"constructor","inputs":[],"stateMutability":"nonpayable"},{"type":"receive","stateMutability":"payable"},{"type":"function","name":"DOMAIN_SEPARATOR","inputs":[],"outputs":[{"name":"","type":"bytes32","internalType":"bytes32"}],"stateMutability":"view"},{"type":"function","name":"UPGRADE_INTERFACE_VERSION","inputs":[],"outputs":[{"name":"","type":"string","internalType":"string"}],"stateMutability":"view"},{"type":"function","name":"areValidators","inputs":[{"name":"_validators","type":"address[]","internalType":"address[]"}],"outputs":[{"name":"","type":"bool","internalType":"bool"}],"stateMutability":"view"},{"type":"function","name":"codeState","inputs":[{"name":"_codeId","type":"bytes32","internalType":"bytes32"}],"outputs":[{"name":"","type":"uint8","internalType":"enum Gear.CodeState"}],"stateMutability":"view"},{"type":"function","name":"codesStates","inputs":[{"name":"_codesIds","type":"bytes32[]","internalType":"bytes32[]"}],"outputs":[{"name":"","type":"uint8[]","internalType":"enum Gear.CodeState[]"}],"stateMutability":"view"},{"type":"function","name":"commitBatch","inputs":[{"name":"_batch","type":"tuple","internalType":"struct Gear.BatchCommitment","components":[{"name":"blockHash","type":"bytes32","internalType":"bytes32"},{"name":"blockTimestamp","type":"uint48","internalType":"uint48"},{"name":"previousCommittedBatchHash","type":"bytes32","internalType":"bytes32"},{"name":"expiry","type":"uint8","internalType":"uint8"},{"name":"hasAggregatedPublicKey","type":"bool","internalType":"bool"},{"name":"chainCommitment","type":"tuple[]","internalType":"struct Gear.ChainCommitment[]","components":[{"name":"transitions","type":"tuple[]","internalType":"struct Gear.StateTransition[]","components":[{"name":"actorId","type":"address","internalType":"address"},{"name":"newStateHash","type":"bytes32","internalType":"bytes32"},{"name":"exited","type":"bool","internalType":"bool"},{"name":"inheritor","type":"address","internalType":"address"},{"name":"valueToReceive","type":"uint128","internalType":"uint128"},{"name":"valueToReceiveNegativeSign","type":"bool","internalType":"bool"},{"name":"valueClaims","type":"tuple[]","internalType":"struct Gear.ValueClaim[]","components":[{"name":"messageId","type":"bytes32","internalType":"bytes32"},{"name":"destination","type":"address","internalType":"address"},{"name":"value","type":"uint128","internalType":"uint128"}]},{"name":"messages","type":"tuple[]","internalType":"struct Gear.Message[]","components":[{"name":"id","type":"bytes32","internalType":"bytes32"},{"name":"destination","type":"address","internalType":"address"},{"name":"payload","type":"bytes","internalType":"bytes"},{"name":"value","type":"uint128","internalType":"uint128"},{"name":"replyDetails","type":"tuple","internalType":"struct Gear.ReplyDetails","components":[{"name":"to","type":"bytes32","internalType":"bytes32"},{"name":"code","type":"bytes4","internalType":"bytes4"}]},{"name":"call","type":"bool","internalType":"bool"}]}]},{"name":"head","type":"bytes32","internalType":"bytes32"}]},{"name":"codeCommitments","type":"tuple[]","internalType":"struct Gear.CodeCommitment[]","components":[{"name":"id","type":"bytes32","internalType":"bytes32"},{"name":"valid","type":"bool","internalType":"bool"}]},{"name":"rewardsCommitment","type":"tuple[]","internalType":"struct Gear.RewardsCommitment[]","components":[{"name":"operators","type":"tuple","internalType":"struct Gear.OperatorRewardsCommitment","components":[{"name":"amount","type":"uint256","internalType":"uint256"},{"name":"root","type":"bytes32","internalType":"bytes32"}]},{"name":"stakers","type":"tuple","internalType":"struct Gear.StakerRewardsCommitment","components":[{"name":"distribution","type":"tuple[]","internalType":"struct Gear.StakerRewards[]","components":[{"name":"vault","type":"address","internalType":"address"},{"name":"amount","type":"uint256","internalType":"uint256"}]},{"name":"totalAmount","type":"uint256","internalType":"uint256"},{"name":"token","type":"address","internalType":"address"}]},{"name":"timestamp","type":"uint48","internalType":"uint48"}]},{"name":"validatorsCommitment","type":"tuple[]","internalType":"struct Gear.ValidatorsCommitment[]","components":[{"name":"aggregatedPublicKey","type":"tuple","internalType":"struct Gear.AggregatedPublicKey","components":[{"name":"x","type":"uint256","internalType":"uint256"},{"name":"y","type":"uint256","internalType":"uint256"}]},{"name":"verifiableSecretSharingCommitment","type":"bytes","internalType":"bytes"},{"name":"validators","type":"address[]","internalType":"address[]"},{"name":"eraIndex","type":"uint256","internalType":"uint256"}]}]},{"name":"_signatureType","type":"uint8","internalType":"enum Gear.SignatureType"},{"name":"_signatures","type":"bytes[]","internalType":"bytes[]"}],"outputs":[],"stateMutability":"nonpayable"},{"type":"function","name":"computeSettings","inputs":[],"outputs":[{"name":"","type":"tuple","internalType":"struct Gear.ComputationSettings","components":[{"name":"threshold","type":"uint64","internalType":"uint64"},{"name":"wvaraPerSecond","type":"uint128","internalType":"uint128"}]}],"stateMutability":"view"},{"type":"function","name":"createProgram","inputs":[{"name":"_codeId","type":"bytes32","internalType":"bytes32"},{"name":"_salt","type":"bytes32","internalType":"bytes32"},{"name":"_overrideInitializer","type":"address","internalType":"address"}],"outputs":[{"name":"","type":"address","internalType":"address"}],"stateMutability":"nonpayable"},{"type":"function","name":"createProgramWithAbiInterface","inputs":[{"name":"_codeId","type":"bytes32","internalType":"bytes32"},{"name":"_salt","type":"bytes32","internalType":"bytes32"},{"name":"_overrideInitializer","type":"address","internalType":"address"},{"name":"_abiInterface","type":"address","internalType":"address"}],"outputs":[{"name":"","type":"address","internalType":"address"}],"stateMutability":"nonpayable"},{"type":"function","name":"createProgramWithAbiInterfaceAndExecutableBalance","inputs":[{"name":"_codeId","type":"bytes32","internalType":"bytes32"},{"name":"_salt","type":"bytes32","internalType":"bytes32"},{"name":"_overrideInitializer","type":"address","internalType":"address"},{"name":"_abiInterface","type":"address","internalType":"address"},{"name":"_initialExecutableBalance","type":"uint128","internalType":"uint128"},{"name":"_deadline","type":"uint256","internalType":"uint256"},{"name":"_v","type":"uint8","internalType":"uint8"},{"name":"_r","type":"bytes32","internalType":"bytes32"},{"name":"_s","type":"bytes32","internalType":"bytes32"}],"outputs":[{"name":"","type":"address","internalType":"address"}],"stateMutability":"nonpayable"},{"type":"function","name":"createProgramWithExecutableBalance","inputs":[{"name":"_codeId","type":"bytes32","internalType":"bytes32"},{"name":"_salt","type":"bytes32","internalType":"bytes32"},{"name":"_overrideInitializer","type":"address","internalType":"address"},{"name":"_initialExecutableBalance","type":"uint128","internalType":"uint128"},{"name":"_deadline","type":"uint256","internalType":"uint256"},{"name":"_v","type":"uint8","internalType":"uint8"},{"name":"_r","type":"bytes32","internalType":"bytes32"},{"name":"_s","type":"bytes32","internalType":"bytes32"}],"outputs":[{"name":"","type":"address","internalType":"address"}],"stateMutability":"nonpayable"},{"type":"function","name":"eip712Domain","inputs":[],"outputs":[{"name":"fields","type":"bytes1","internalType":"bytes1"},{"name":"name","type":"string","internalType":"string"},{"name":"version","type":"string","internalType":"string"},{"name":"chainId","type":"uint256","internalType":"uint256"},{"name":"verifyingContract","type":"address","internalType":"address"},{"name":"salt","type":"bytes32","internalType":"bytes32"},{"name":"extensions","type":"uint256[]","internalType":"uint256[]"}],"stateMutability":"view"},{"type":"function","name":"genesisBlockHash","inputs":[],"outputs":[{"name":"","type":"bytes32","internalType":"bytes32"}],"stateMutability":"view"},{"type":"function","name":"genesisTimestamp","inputs":[],"outputs":[{"name":"","type":"uint48","internalType":"uint48"}],"stateMutability":"view"},{"type":"function","name":"initialize","inputs":[{"name":"_owner","type":"address","internalType":"address"},{"name":"_mirror","type":"address","internalType":"address"},{"name":"_wrappedVara","type":"address","internalType":"address"},{"name":"_middleware","type":"address","internalType":"address"},{"name":"_eraDuration","type":"uint256","internalType":"uint256"},{"name":"_electionDuration","type":"uint256","internalType":"uint256"},{"name":"_validationDelay","type":"uint256","internalType":"uint256"},{"name":"_aggregatedPublicKey","type":"tuple","internalType":"struct Gear.AggregatedPublicKey","components":[{"name":"x","type":"uint256","internalType":"uint256"},{"name":"y","type":"uint256","internalType":"uint256"}]},{"name":"_verifiableSecretSharingCommitment","type":"bytes","internalType":"bytes"},{"name":"_validators","type":"address[]","internalType":"address[]"}],"outputs":[],"stateMutability":"nonpayable"},{"type":"function","name":"isValidator","inputs":[{"name":"_validator","type":"address","internalType":"address"}],"outputs":[{"name":"","type":"bool","internalType":"bool"}],"stateMutability":"view"},{"type":"function","name":"latestCommittedBatchHash","inputs":[],"outputs":[{"name":"","type":"bytes32","internalType":"bytes32"}],"stateMutability":"view"},{"type":"function","name":"latestCommittedBatchTimestamp","inputs":[],"outputs":[{"name":"","type":"uint48","internalType":"uint48"}],"stateMutability":"view"},{"type":"function","name":"lookupGenesisHash","inputs":[],"outputs":[],"stateMutability":"nonpayable"},{"type":"function","name":"middleware","inputs":[],"outputs":[{"name":"","type":"address","internalType":"address"}],"stateMutability":"view"},{"type":"function","name":"mirrorImpl","inputs":[],"outputs":[{"name":"","type":"address","internalType":"address"}],"stateMutability":"view"},{"type":"function","name":"nonces","inputs":[{"name":"owner","type":"address","internalType":"address"}],"outputs":[{"name":"","type":"uint256","internalType":"uint256"}],"stateMutability":"view"},{"type":"function","name":"owner","inputs":[],"outputs":[{"name":"","type":"address","internalType":"address"}],"stateMutability":"view"},{"type":"function","name":"pause","inputs":[],"outputs":[],"stateMutability":"nonpayable"},{"type":"function","name":"paused","inputs":[],"outputs":[{"name":"","type":"bool","internalType":"bool"}],"stateMutability":"view"},{"type":"function","name":"programCodeId","inputs":[{"name":"_programId","type":"address","internalType":"address"}],"outputs":[{"name":"","type":"bytes32","internalType":"bytes32"}],"stateMutability":"view"},{"type":"function","name":"programsCodeIds","inputs":[{"name":"_programsIds","type":"address[]","internalType":"address[]"}],"outputs":[{"name":"","type":"bytes32[]","internalType":"bytes32[]"}],"stateMutability":"view"},{"type":"function","name":"programsCount","inputs":[],"outputs":[{"name":"","type":"uint256","internalType":"uint256"}],"stateMutability":"view"},{"type":"function","name":"proxiableUUID","inputs":[],"outputs":[{"name":"","type":"bytes32","internalType":"bytes32"}],"stateMutability":"view"},{"type":"function","name":"reinitialize","inputs":[],"outputs":[],"stateMutability":"nonpayable"},{"type":"function","name":"renounceOwnership","inputs":[],"outputs":[],"stateMutability":"nonpayable"},{"type":"function","name":"requestCodeValidation","inputs":[{"name":"_codeId","type":"bytes32","internalType":"bytes32"},{"name":"_deadline","type":"uint256","internalType":"uint256"},{"name":"_v","type":"uint8","internalType":"uint8"},{"name":"_r","type":"bytes32","internalType":"bytes32"},{"name":"_s","type":"bytes32","internalType":"bytes32"}],"outputs":[],"stateMutability":"nonpayable"},{"type":"function","name":"requestCodeValidationBaseFee","inputs":[],"outputs":[{"name":"","type":"uint256","internalType":"uint256"}],"stateMutability":"view"},{"type":"function","name":"requestCodeValidationExtraFee","inputs":[],"outputs":[{"name":"","type":"uint256","internalType":"uint256"}],"stateMutability":"view"},{"type":"function","name":"requestCodeValidationOnBehalf","inputs":[{"name":"_requester","type":"address","internalType":"address"},{"name":"_codeId","type":"bytes32","internalType":"bytes32"},{"name":"_blobHashes","type":"bytes32[]","internalType":"bytes32[]"},{"name":"_deadline","type":"uint256","internalType":"uint256"},{"name":"_v1","type":"uint8","internalType":"uint8"},{"name":"_r1","type":"bytes32","internalType":"bytes32"},{"name":"_s1","type":"bytes32","internalType":"bytes32"},{"name":"_v2","type":"uint8","internalType":"uint8"},{"name":"_r2","type":"bytes32","internalType":"bytes32"},{"name":"_s2","type":"bytes32","internalType":"bytes32"}],"outputs":[],"stateMutability":"nonpayable"},{"type":"function","name":"setMirror","inputs":[{"name":"newMirror","type":"address","internalType":"address"}],"outputs":[],"stateMutability":"nonpayable"},{"type":"function","name":"setRequestCodeValidationBaseFee","inputs":[{"name":"newBaseFee","type":"uint256","internalType":"uint256"}],"outputs":[],"stateMutability":"nonpayable"},{"type":"function","name":"setRequestCodeValidationExtraFee","inputs":[{"name":"newExtraFee","type":"uint256","internalType":"uint256"}],"outputs":[],"stateMutability":"nonpayable"},{"type":"function","name":"signingThresholdFraction","inputs":[],"outputs":[{"name":"thresholdNumerator","type":"uint128","internalType":"uint128"},{"name":"thresholdDenominator","type":"uint128","internalType":"uint128"}],"stateMutability":"view"},{"type":"function","name":"storageView","inputs":[],"outputs":[{"name":"","type":"tuple","internalType":"struct IRouter.StorageView","components":[{"name":"genesisBlock","type":"tuple","internalType":"struct Gear.GenesisBlockInfo","components":[{"name":"hash","type":"bytes32","internalType":"bytes32"},{"name":"number","type":"uint32","internalType":"uint32"},{"name":"timestamp","type":"uint48","internalType":"uint48"}]},{"name":"latestCommittedBatch","type":"tuple","internalType":"struct Gear.CommittedBatchInfo","components":[{"name":"hash","type":"bytes32","internalType":"bytes32"},{"name":"timestamp","type":"uint48","internalType":"uint48"}]},{"name":"implAddresses","type":"tuple","internalType":"struct Gear.AddressBook","components":[{"name":"mirror","type":"address","internalType":"address"},{"name":"wrappedVara","type":"address","internalType":"address"},{"name":"middleware","type":"address","internalType":"address"}]},{"name":"validationSettings","type":"tuple","internalType":"struct Gear.ValidationSettingsView","components":[{"name":"thresholdNumerator","type":"uint128","internalType":"uint128"},{"name":"thresholdDenominator","type":"uint128","internalType":"uint128"},{"name":"validators0","type":"tuple","internalType":"struct Gear.ValidatorsView","components":[{"name":"aggregatedPublicKey","type":"tuple","internalType":"struct Gear.AggregatedPublicKey","components":[{"name":"x","type":"uint256","internalType":"uint256"},{"name":"y","type":"uint256","internalType":"uint256"}]},{"name":"verifiableSecretSharingCommitmentPointer","type":"address","internalType":"address"},{"name":"list","type":"address[]","internalType":"address[]"},{"name":"useFromTimestamp","type":"uint256","internalType":"uint256"}]},{"name":"validators1","type":"tuple","internalType":"struct Gear.ValidatorsView","components":[{"name":"aggregatedPublicKey","type":"tuple","internalType":"struct Gear.AggregatedPublicKey","components":[{"name":"x","type":"uint256","internalType":"uint256"},{"name":"y","type":"uint256","internalType":"uint256"}]},{"name":"verifiableSecretSharingCommitmentPointer","type":"address","internalType":"address"},{"name":"list","type":"address[]","internalType":"address[]"},{"name":"useFromTimestamp","type":"uint256","internalType":"uint256"}]}]},{"name":"computeSettings","type":"tuple","internalType":"struct Gear.ComputationSettings","components":[{"name":"threshold","type":"uint64","internalType":"uint64"},{"name":"wvaraPerSecond","type":"uint128","internalType":"uint128"}]},{"name":"timelines","type":"tuple","internalType":"struct Gear.Timelines","components":[{"name":"era","type":"uint256","internalType":"uint256"},{"name":"election","type":"uint256","internalType":"uint256"},{"name":"validationDelay","type":"uint256","internalType":"uint256"}]},{"name":"programsCount","type":"uint256","internalType":"uint256"},{"name":"validatedCodesCount","type":"uint256","internalType":"uint256"},{"name":"maxValidators","type":"uint16","internalType":"uint16"},{"name":"requestCodeValidationBaseFee","type":"uint256","internalType":"uint256"},{"name":"requestCodeValidationExtraFee","type":"uint256","internalType":"uint256"}]}],"stateMutability":"view"},{"type":"function","name":"timelines","inputs":[],"outputs":[{"name":"","type":"tuple","internalType":"struct Gear.Timelines","components":[{"name":"era","type":"uint256","internalType":"uint256"},{"name":"election","type":"uint256","internalType":"uint256"},{"name":"validationDelay","type":"uint256","internalType":"uint256"}]}],"stateMutability":"view"},{"type":"function","name":"transferOwnership","inputs":[{"name":"newOwner","type":"address","internalType":"address"}],"outputs":[],"stateMutability":"nonpayable"},{"type":"function","name":"unpause","inputs":[],"outputs":[],"stateMutability":"nonpayable"},{"type":"function","name":"upgradeToAndCall","inputs":[{"name":"newImplementation","type":"address","internalType":"address"},{"name":"data","type":"bytes","internalType":"bytes"}],"outputs":[],"stateMutability":"payable"},{"type":"function","name":"validatedCodesCount","inputs":[],"outputs":[{"name":"","type":"uint256","internalType":"uint256"}],"stateMutability":"view"},{"type":"function","name":"validators","inputs":[],"outputs":[{"name":"","type":"address[]","internalType":"address[]"}],"stateMutability":"view"},{"type":"function","name":"validatorsAggregatedPublicKey","inputs":[],"outputs":[{"name":"","type":"tuple","internalType":"struct Gear.AggregatedPublicKey","components":[{"name":"x","type":"uint256","internalType":"uint256"},{"name":"y","type":"uint256","internalType":"uint256"}]}],"stateMutability":"view"},{"type":"function","name":"validatorsCount","inputs":[],"outputs":[{"name":"","type":"uint256","internalType":"uint256"}],"stateMutability":"view"},{"type":"function","name":"validatorsThreshold","inputs":[],"outputs":[{"name":"","type":"uint256","internalType":"uint256"}],"stateMutability":"view"},{"type":"function","name":"validatorsVerifiableSecretSharingCommitment","inputs":[],"outputs":[{"name":"","type":"bytes","internalType":"bytes"}],"stateMutability":"view"},{"type":"function","name":"wrappedVara","inputs":[],"outputs":[{"name":"","type":"address","internalType":"address"}],"stateMutability":"view"},{"type":"event","name":"AnnouncesCommitted","inputs":[{"name":"head","type":"bytes32","indexed":false,"internalType":"bytes32"}],"anonymous":false},{"type":"event","name":"BatchCommitted","inputs":[{"name":"hash","type":"bytes32","indexed":false,"internalType":"bytes32"}],"anonymous":false},{"type":"event","name":"CodeGotValidated","inputs":[{"name":"codeId","type":"bytes32","indexed":false,"internalType":"bytes32"},{"name":"valid","type":"bool","indexed":true,"internalType":"bool"}],"anonymous":false},{"type":"event","name":"CodeValidationRequested","inputs":[{"name":"codeId","type":"bytes32","indexed":false,"internalType":"bytes32"}],"anonymous":false},{"type":"event","name":"ComputationSettingsChanged","inputs":[{"name":"threshold","type":"uint64","indexed":false,"internalType":"uint64"},{"name":"wvaraPerSecond","type":"uint128","indexed":false,"internalType":"uint128"}],"anonymous":false},{"type":"event","name":"EIP712DomainChanged","inputs":[],"anonymous":false},{"type":"event","name":"Initialized","inputs":[{"name":"version","type":"uint64","indexed":false,"internalType":"uint64"}],"anonymous":false},{"type":"event","name":"OwnershipTransferred","inputs":[{"name":"previousOwner","type":"address","indexed":true,"internalType":"address"},{"name":"newOwner","type":"address","indexed":true,"internalType":"address"}],"anonymous":false},{"type":"event","name":"Paused","inputs":[{"name":"account","type":"address","indexed":false,"internalType":"address"}],"anonymous":false},{"type":"event","name":"ProgramCreated","inputs":[{"name":"actorId","type":"address","indexed":false,"internalType":"address"},{"name":"codeId","type":"bytes32","indexed":true,"internalType":"bytes32"}],"anonymous":false},{"type":"event","name":"StorageSlotChanged","inputs":[{"name":"slot","type":"bytes32","indexed":false,"internalType":"bytes32"}],"anonymous":false},{"type":"event","name":"Unpaused","inputs":[{"name":"account","type":"address","indexed":false,"internalType":"address"}],"anonymous":false},{"type":"event","name":"Upgraded","inputs":[{"name":"implementation","type":"address","indexed":true,"internalType":"address"}],"anonymous":false},{"type":"event","name":"ValidatorsCommittedForEra","inputs":[{"name":"eraIndex","type":"uint256","indexed":false,"internalType":"uint256"}],"anonymous":false},{"type":"error","name":"AddressEmptyCode","inputs":[{"name":"target","type":"address","internalType":"address"}]},{"type":"error","name":"ApproveERC20Failed","inputs":[]},{"type":"error","name":"BatchTimestampNotInPast","inputs":[]},{"type":"error","name":"BatchTimestampTooEarly","inputs":[]},{"type":"error","name":"BlobNotFound","inputs":[]},{"type":"error","name":"CodeAlreadyOnValidationOrValidated","inputs":[]},{"type":"error","name":"CodeNotValidated","inputs":[]},{"type":"error","name":"CodeValidationNotRequested","inputs":[]},{"type":"error","name":"CommitmentEraNotNext","inputs":[]},{"type":"error","name":"ECDSAInvalidSignature","inputs":[]},{"type":"error","name":"ECDSAInvalidSignatureLength","inputs":[{"name":"length","type":"uint256","internalType":"uint256"}]},{"type":"error","name":"ECDSAInvalidSignatureS","inputs":[{"name":"s","type":"bytes32","internalType":"bytes32"}]},{"type":"error","name":"ERC1967InvalidImplementation","inputs":[{"name":"implementation","type":"address","internalType":"address"}]},{"type":"error","name":"ERC1967NonPayable","inputs":[]},{"type":"error","name":"ElectionNotStarted","inputs":[]},{"type":"error","name":"EmptyValidatorsList","inputs":[]},{"type":"error","name":"EnforcedPause","inputs":[]},{"type":"error","name":"EraDurationTooShort","inputs":[]},{"type":"error","name":"ErasTimestampMustNotBeEqual","inputs":[]},{"type":"error","name":"ExpectedPause","inputs":[]},{"type":"error","name":"ExpiredSignature","inputs":[{"name":"deadline","type":"uint256","internalType":"uint256"}]},{"type":"error","name":"FailedCall","inputs":[]},{"type":"error","name":"GenesisHashAlreadySet","inputs":[]},{"type":"error","name":"GenesisHashNotFound","inputs":[]},{"type":"error","name":"InvalidAccountNonce","inputs":[{"name":"account","type":"address","internalType":"address"},{"name":"currentNonce","type":"uint256","internalType":"uint256"}]},{"type":"error","name":"InvalidBlobHash","inputs":[{"name":"index","type":"uint256","internalType":"uint256"},{"name":"providedBlobHash","type":"bytes32","internalType":"bytes32"},{"name":"expectedBlobHash","type":"bytes32","internalType":"bytes32"}]},{"type":"error","name":"InvalidBlobHashesLength","inputs":[{"name":"providedLength","type":"uint256","internalType":"uint256"},{"name":"expectedLength","type":"uint256","internalType":"uint256"}]},{"type":"error","name":"InvalidElectionDuration","inputs":[]},{"type":"error","name":"InvalidFROSTAggregatedPublicKey","inputs":[]},{"type":"error","name":"InvalidFrostSignatureCount","inputs":[]},{"type":"error","name":"InvalidFrostSignatureLength","inputs":[]},{"type":"error","name":"InvalidInitialization","inputs":[]},{"type":"error","name":"InvalidPreviousCommittedBatchHash","inputs":[]},{"type":"error","name":"InvalidSigner","inputs":[{"name":"signer","type":"address","internalType":"address"},{"name":"requester","type":"address","internalType":"address"}]},{"type":"error","name":"InvalidTimestamp","inputs":[]},{"type":"error","name":"NotInitializing","inputs":[]},{"type":"error","name":"OwnableInvalidOwner","inputs":[{"name":"owner","type":"address","internalType":"address"}]},{"type":"error","name":"OwnableUnauthorizedAccount","inputs":[{"name":"account","type":"address","internalType":"address"}]},{"type":"error","name":"PredecessorBlockNotFound","inputs":[]},{"type":"error","name":"ReentrancyGuardReentrantCall","inputs":[]},{"type":"error","name":"RewardsCommitmentEraNotPrevious","inputs":[]},{"type":"error","name":"RewardsCommitmentPredatesGenesis","inputs":[]},{"type":"error","name":"RewardsCommitmentTimestampNotInPast","inputs":[]},{"type":"error","name":"RouterGenesisHashNotInitialized","inputs":[]},{"type":"error","name":"SafeCastOverflowedUintDowncast","inputs":[{"name":"bits","type":"uint8","internalType":"uint8"},{"name":"value","type":"uint256","internalType":"uint256"}]},{"type":"error","name":"SignatureVerificationFailed","inputs":[]},{"type":"error","name":"TimestampInFuture","inputs":[]},{"type":"error","name":"TimestampOlderThanPreviousEra","inputs":[]},{"type":"error","name":"TooManyChainCommitments","inputs":[]},{"type":"error","name":"TooManyRewardsCommitments","inputs":[]},{"type":"error","name":"TooManyValidatorsCommitments","inputs":[]},{"type":"error","name":"TransferFromFailed","inputs":[]},{"type":"error","name":"UUPSUnauthorizedCallContext","inputs":[]},{"type":"error","name":"UUPSUnsupportedProxiableUUID","inputs":[{"name":"slot","type":"bytes32","internalType":"bytes32"}]},{"type":"error","name":"UnknownProgram","inputs":[]},{"type":"error","name":"ValidationBeforeGenesis","inputs":[]},{"type":"error","name":"ValidationDelayTooBig","inputs":[]},{"type":"error","name":"ValidatorsAlreadyScheduled","inputs":[]},{"type":"error","name":"ValidatorsNotFoundForTimestamp","inputs":[]},{"type":"error","name":"ZeroValueTransfer","inputs":[]}],"bytecode":{"object":"0x60a080604052346100c257306080525f516020615bbc5f395f51905f525460ff8160401c166100b3576002600160401b03196001600160401b03821601610060575b604051615af590816100c78239608051818181612ca20152612d350152f35b6001600160401b0319166001600160401b039081175f516020615bbc5f395f51905f525581527fc7f505b2f371ae2175ee4913f4499e1f2633a7b5936321eed1cdaeb6115181d290602090a15f80610041565b63f92ee8a960e01b5f5260045ffd5b5f80fdfe6080806040526004361015610091575b50361561001a575f80fd5b610022613bba565b5f516020615a755f395f51905f5254600181015415610082576001600160801b0334161561007357335f908152601a9190910160205260409020541561006457005b63821a62f560e01b5f5260045ffd5b63a1a7c6eb60e01b5f5260045ffd5b63580683f360e01b5f5260045ffd5b5f905f3560e01c9081627a32e714613460575080630b9737ce1461342d5780630c18d277146133625780630d91bf2a1461319457806311bec80d14613161578063188509e91461313357806328e24b3d146131055780633644e515146130ea5780633683c4d21461302d5780633bd109fa14612fde5780633d43b41814612f8a5780633f4ba83a14612f0a5780634f1ef28614612cf657806352d1902d14612c8f57806353f7fd48146122be5780635c975abb1461228f57806364f4711e14611e085780636c2eb35014611899578063715018a61461183057806371a8cf2d146118025780637ecebe00146117aa57806382bdeaad146116925780638456cb591461161f57806384b0196e146114f757806384d22a4f1461149957806388f50cf0146114605780638b1edf1e146114015780638c4ace6a146112925780638da5cb5b1461125d5780638f381dbe146112175780639067088e146111ce57806396a2ddfa146111a05780639eb939a814611149578063a5d53a44146110c9578063ad3cb1cc14611080578063baaf020114610f83578063c13911e814610f3f578063c2eb812f14610bb8578063ca1e781914610b68578063cacf66ab14610b30578063d456fd5114610afa578063e3a6684f14610abb578063e6fabc0914610a82578063ed612f8c14610a4a578063edc87225146109f5578063ee32004f1461080f578063f0fd702a146103b7578063f1ef31ec14610389578063f2fde38b1461035c578063f4f20ac0146103235763facd743b0361000f5734610320576020366003190112610320576102e26134b6565b60036102fd5f516020615a755f395f51905f5254429061547d565b019060018060a01b03165f52602052602060ff60405f2054166040519015158152f35b80fd5b50346103205780600319360112610320575f516020615a755f395f51905f5254600701546040516001600160a01b039091168152602090f35b5034610320576020366003190112610320576103866103796134b6565b610381613b87565b613b16565b80f35b50346103205780600319360112610320576020601f5f516020615a755f395f51905f52540154604051908152f35b503461032057610140366003190112610320576103d26134b6565b602435906044356001600160401b03811161080b576103f5903690600401613605565b90916064359060843560ff811681036108075760e4359060ff821682036108035761041e613bba565b8749156107f4575f516020615a755f395f51905f5254946001860154156107e5576019860196888a528760205260ff60408b20541660038110156107d1576107c257895b80496107b45780830361079d5750895b82811061075657508542116107425760405160208101906001600160fb1b03841161073e576104bd602082610588956105919760051b8091873781010301601f198101835282613575565b5190209260018060a01b03861693848c527f5ab42ced628888259c08ac98db1eb0cf702fc1501344311d8b100cd1bfe4bb0060205260408c208054906001820190556040519060208201927f375d2ef9b9e33c640a295f53873dc74833c3d019f349464ce2fe8899962b809784528760408401528d6060840152608083015260a08201528860c082015260c0815261055660e082613575565b51902061056161541c565b906040519161190160f01b83526002830152602282015260c43591604260a435922061574e565b909291926157d0565b6001600160a01b031681810361072957505086906105c660018060a01b0360068701541695601f601e82015491015490613b09565b93853b156107255760405163d505accf60e01b81526001600160a01b038516600482015230602482015260448101869052606481019190915260ff9190911660848201526101043560a48201526101243560c4820152818160e48183895af1610708575b506040516323b872dd60e01b81526001600160a01b039092166004830152306024830152604482019290925291602091839190829081606481015b03925af19081156106fd5784916106ce575b50156106bf5781835260209081526040808420805460ff19166001179055519182527f5c261a095dd5720475295dc06379921c003c22164ee6cae5cf83e76ce0a1b98591a180f35b631e4e7d0960e21b8352600483fd5b6106f0915060203d6020116106f6575b6106e88183613575565b810190613747565b5f610677565b503d6106de565b6040513d86823e3d90fd5b8161071591949394613575565b6107215790855f61062a565b8580fd5b8280fd5b637ba5ffb560e01b8952600452602452604487fd5b8b80fd5b632f4aa44f60e21b8a52600486905260248afd5b804980610764838686613911565b3514610771838686613911565b359015610782575050600101610472565b606493508c926306f2f0e760e21b8452600452602452604452fd5b635cfa404d60e11b8b52600483905260245260448afd5b6107bd90613afb565b610462565b6304c51a3360e31b8a5260048afd5b634e487b7160e01b8b52602160045260248bfd5b63580683f360e01b8952600489fd5b637bb2fa2f60e11b8852600488fd5b8780fd5b8680fd5b8380fd5b5034610320576101203660031901126103205761082a61348a565b6108326134a0565b6084356001600160801b0381169081810361099d578460c43560ff8116810361098e5761085d613bba565b61086b602435600435613be1565b6006015490936001600160a01b0390911691823b1561080b576108b38480926040518093819263d505accf60e01b8352610104359060e4359060a4358a3033600489016136fd565b038183885af16109e0575b50506040516323b872dd60e01b81523360048201523060248201526001600160801b039190911660448201529160209183916064918391905af19081156109d55786916109b6575b50156109a7576001600160a01b03908116939081166109a1575033915b833b1561099d57604051635fd142bb60e11b81526001600160a01b03938416600482015292166024830152604482018490526064820152828160848183865af1801561099257610979575b602082604051908152f35b610984838092613575565b61098e578161096e565b5080fd5b6040513d85823e3d90fd5b8480fd5b91610923565b631e4e7d0960e21b8552600485fd5b6109cf915060203d6020116106f6576106e88183613575565b5f610906565b6040513d88823e3d90fd5b816109ea91613575565b61072557825f6108be565b50346103205780600319360112610320576020610a425f516020615a755f395f51905f525460086004610a28428461547d565b0154910154906001600160801b038260801c9216906153f1565b604051908152f35b503461032057806003193601126103205760206004610a785f516020615a755f395f51905f5254429061547d565b0154604051908152f35b50346103205780600319360112610320575f516020615a755f395f51905f5254600501546040516001600160a01b039091168152602090f35b5034610320578060031936011261032057604060085f516020615a755f395f51905f525401548151906001600160801b038116825260801c6020820152f35b5034610320578060031936011261032057602065ffffffffffff60045f516020615a755f395f51905f5254015416604051908152f35b5034610320578060031936011261032057602065ffffffffffff60025f516020615a755f395f51905f52540154821c16604051908152f35b5034610320578060031936011261032057610bb4610ba06004610b9a5f516020615a755f395f51905f5254429061547d565b01613aa8565b60405191829160208352602083019061367a565b0390f35b5034610320578060031936011261032057604051610bd58161353e565b610bdd6139f7565b8152604051610beb81613523565b5f8152602081015f90526020820152610c026139f7565b6040820152610c0f613a75565b6060820152604051610c2081613523565b5f80825260208201526080820152610c366139f7565b60a08201528160c08201528160e0820152816101008201528161012082015261014001525f516020615a755f395f51905f5254610c71613a75565b50610c7e600982016156f9565b90610c8b600f82016156f9565b60088201549260405193610c9e8561355a565b6001600160801b038116855260801c602085015260408401526060830152601b81015490601c810154601d82015461ffff16601e83015490601f8401549260405195610ce98761353e565b604051610cf5816134f4565b60018701548152600287015463ffffffff8116602083015260201c65ffffffffffff166040820152875260405197610d2c89613523565b60038701548952600487015465ffffffffffff1660208a01526020880198895260405190610d59826134f4565b60058801546001600160a01b039081168352600689015481166020840152600789015416604080840191909152890191825260608901908152610d9e60158901613949565b9760808a01988952601601610db290613a15565b9160a08a0192835260c08a0193845260e08a019485526101008a019586526101208a019687526101408a019788526040519a8b9a60208c5251805160208d0152602081015163ffffffff1660408d01526040015165ffffffffffff1660608c015251805160808c01526020015165ffffffffffff1660a08b015251600160a01b6001900381511660c08b0152600160a01b6001900360208201511660e08b0152600160a01b600190039060400151166101008a0152516101208901610260905280516001600160801b03166102808a015260208101516001600160801b03166102a08a015260408101516102c08a01608090526103008a01610eb3916136b6565b90606001519061027f198a8203016102e08b0152610ed0916136b6565b965180516001600160401b03166101408a0152602001516001600160801b031661016089015251805161018089015260208101516101a0890152604001516101c0880152516101e0870152516102008601525161ffff1661022085015251610240840152516102608301520390f35b50346103205760203660031901126103205760ff604060209260195f516020615a755f395f51905f52540160043582528452205416610f816040518092613635565bf35b5034610320576020366003190112610320576004356001600160401b03811161098e57610fb4903690600401613605565b905f516020615a755f395f51905f525490610fce83613885565b91610fdc6040519384613575565b838352610fe884613885565b602084019490601f1901368637601a869201915b81811061104757868587604051928392602084019060208552518091526040840192915b81811061102e575050500390f35b8251845285945060209384019390920191600101611020565b8061105d6110586001938588613911565b613977565b828060a01b03165f528360205260405f20546110798288613935565b5201610ffc565b503461032057806003193601126103205750610bb46040516110a3604082613575565b60058152640352e302e360dc1b6020820152604051918291602083526020830190613656565b50346103205780600319360112610320575f516020615a755f395f51905f52546001600160a01b039060029061110090429061547d565b0154166040519182915f19813b0164ffffffffff16916021830191601f8501903c808252019060408201918260405260208352611144603f19926060830190613656565b030190f35b50346103205780600319360112610320576111626139f7565b50606061117f60165f516020615a755f395f51905f525401613a15565b610f8160405180926040809180518452602081015160208501520151910152565b50346103205780600319360112610320576020601b5f516020615a755f395f51905f52540154604051908152f35b5034610320576020366003190112610320576111e86134b6565b601a5f516020615a755f395f51905f5254019060018060a01b03165f52602052602060405f2054604051908152f35b503461032057602036600319011261032057600435906001600160401b03821161032057602061125361124d3660048601613605565b9061398b565b6040519015158152f35b50346103205780600319360112610320575f5160206159f55f395f51905f52546040516001600160a01b039091168152602090f35b50346103205760a03660031901126103205760043560443560ff81168103610725576112bc613bba565b8249156113f2575f516020615a755f395f51905f52546001810154156113e35760198101918385528260205260ff60408620541660038110156113cf576113c0576006820154601e9092015485926001600160a01b031691823b1561080b5760405163d505accf60e01b815233600482015230602480830191909152604482018490523560648083019190915260ff92909216608480830191909152913560a4820152903560c48201528390818160e48183885af16113ab575b50506040516323b872dd60e01b8152336004820152306024820152604481019190915291602091839182908160648101610665565b816113b591613575565b61072557825f611376565b6304c51a3360e31b8552600485fd5b634e487b7160e01b86526021600452602486fd5b63580683f360e01b8452600484fd5b637bb2fa2f60e11b8352600483fd5b50346103205780600319360112610320575f516020615a755f395f51905f525460018101908154611451576002015463ffffffff1640908115611442575580f35b63f7bac7b560e01b8352600483fd5b6309476b0360e41b8352600483fd5b50346103205780600319360112610320575f516020615a755f395f51905f5254600601546040516001600160a01b039091168152602090f35b50346103205780600319360112610320576114b261375f565b5060406114cf60155f516020615a755f395f51905f525401613949565b610f81825180926001600160801b03602080926001600160401b038151168552015116910152565b50346103205780600319360112610320575f516020615a355f395f51905f52541580611609575b156115cc576115709061152f615277565b90611538615344565b90602061157e6040519361154c8386613575565b8385525f368137604051968796600f60f81b885260e08589015260e0880190613656565b908682036040880152613656565b904660608601523060808601528260a086015284820360c08601528080855193848152019401925b8281106115b557505050500390f35b8351855286955093810193928101926001016115a6565b60405162461bcd60e51b81526020600482015260156024820152741152540dcc4c8e88155b9a5b9a5d1a585b1a5e9959605a1b6044820152606490fd5b505f516020615ad55f395f51905f52541561151e565b5034610320578060031936011261032057611638613b87565b611640613bba565b600160ff195f516020615a955f395f51905f525416175f516020615a955f395f51905f52557f62e78cea01bee320cd4e420270b5ea74000d11b0c9f74754ebdbfc544b05a2586020604051338152a180f35b5034610320576020366003190112610320576004356001600160401b03811161098e576116c3903690600401613605565b905f516020615a755f395f51905f5254906116dd83613885565b916116eb6040519384613575565b8383526116f784613885565b602084019490601f19013686376019869201915b81811061176057868587604051928392602084019060208552518091526040840192915b81811061173d575050500390f35b91935091602080826117526001948851613635565b01940191019184939261172f565b61176b818386613911565b3587528260205260ff6040882054166117848287613935565b6003821015611796575260010161170b565b634e487b7160e01b89526021600452602489fd5b5034610320576020366003190112610320576020906040906001600160a01b036117d26134b6565b1681527f5ab42ced628888259c08ac98db1eb0cf702fc1501344311d8b100cd1bfe4bb0083522054604051908152f35b5034610320578060031936011261032057602060035f516020615a755f395f51905f52540154604051908152f35b5034610320578060031936011261032057611849613b87565b5f5160206159f55f395f51905f5280546001600160a01b0319811690915581906001600160a01b03167f8be0079c531659141344cd1fd0a4f28419497f9722a3daafe3b4186f6b6457e08280a380f35b50346103205780600319360112610320576118b2613b87565b5f516020615ab55f395f51905f525460ff8160401c16908115611df3575b50611de4575f516020615ab55f395f51905f52805468ffffffffffffffffff1916680100000000000000051790555f5160206159f55f395f51905f525461192a906001600160a01b0316611922615499565b610381615499565b611932613795565b9061193b6137c2565b90611944615499565b61194c615499565b82516001600160401b038111611ce7576119735f5160206159d55f395f51905f525461523f565b601f8111611d80575b506020601f8211600114611d0657829394829392611cfb575b50508160011b915f199060031b1c1916175f5160206159d55f395f51905f52555b81516001600160401b038111611ce7576119dd5f516020615a155f395f51905f525461523f565b601f8111611c7a575b50602092601f8211600114611c0157928293829392611bf6575b50508160011b915f199060031b1c1916175f516020615a155f395f51905f52555b805f516020615a355f395f51905f5255805f516020615ad55f395f51905f52555f516020615a755f395f51905f5254611a5861414f565b80516001830155600282019063ffffffff60208201511669ffffffffffff000000006040845493015160201b169169ffffffffffffffffffff191617179055816020604051611aa681613523565b82815201528160038201556004810165ffffffffffff19815416905561ffff6004611ad1428461547d565b01541661ffff601d8301911661ffff198254161790556004602060018060a01b036006840154166040519283809263313ce56760e01b82525afa801561099257611b22918491611bc7575b50613839565b90816103e8026103e881048303611bb357601e820155816101f402916101f4830403611b9f57601f015560ff60401b195f516020615ab55f395f51905f5254165f516020615ab55f395f51905f52557fc7f505b2f371ae2175ee4913f4499e1f2633a7b5936321eed1cdaeb6115181d2602060405160058152a180f35b634e487b7160e01b83526011600452602483fd5b634e487b7160e01b84526011600452602484fd5b611be9915060203d602011611bef575b611be18183613575565b810190613820565b5f611b1c565b503d611bd7565b015190505f80611a00565b601f198216935f516020615a155f395f51905f52845280842091845b868110611c625750836001959610611c4a575b505050811b015f516020615a155f395f51905f5255611a21565b01515f1960f88460031b161c191690555f8080611c30565b91926020600181928685015181550194019201611c1d565b818111156119e6575f516020615a155f395f51905f528352611cd9907f5f9ce34815f8e11431c7bb75a8e6886a91478f7ffc1dbb0a98dc240fddd76b7590601f840160051c9060208510611cdf575b601f82910160051c0391016141cc565b5f6119e6565b859150611cc9565b634e487b7160e01b82526041600452602482fd5b015190505f80611995565b5f5160206159d55f395f51905f52835280832090601f198316845b818110611d6857509583600195969710611d50575b505050811b015f5160206159d55f395f51905f52556119b6565b01515f1960f88460031b161c191690555f8080611d36565b9192602060018192868b015181550194019201611d21565b8181111561197c575f5160206159d55f395f51905f528352611dde907f42ad5d3e1f2e6e70edcf6d991b8a3023d3fca8047a131592f9edb9fd9b89d57d90601f840160051c9060208510611cdf57601f82910160051c0391016141cc565b5f61197c565b63f92ee8a960e01b8152600490fd5b600591506001600160401b031610155f6118d0565b5034610320576060366003190112610320576001600160401b036004351161032057610120600435360360031901126103205760026024351015610320576044356001600160401b03811161098e57611e65903690600401613605565b7f9b779b17422d0df92223018b32b4d1fa46e071723d6817e2486d003becc55f005c6122805760017f9b779b17422d0df92223018b32b4d1fa46e071723d6817e2486d003becc55f005d5f516020615a755f395f51905f5254906001820154156113e357815415612224575b600382015460446004350135036122155765ffffffffffff60048301541665ffffffffffff611f046024600435016138fe565b161061220757611f196004356004018361427c565b92611f2e60c460043501600435600401614731565b808096925060051b04602014851517156121f357611f4e8560051b6154e5565b8695865b8188106120be5750612084965060051b902090611f7460043560040186614788565b611f8360043560040187614b5f565b90611f926024600435016138fe565b93611fa16064600435016138f0565b9360405194602086019660043560040135885265ffffffffffff60d01b9060d01b16604087015260446004350135604687015260ff60f81b9060f81b1660668601526067850152608784015260a783015260c782015260c7815261200660e782613575565b5190209283600382015565ffffffffffff6120256024600435016138fe565b1665ffffffffffff196004830154161760048201557f7ebe42360bcb182fe0a88148b081e4557c89d09aa6af8307635ac2f83e2aaa656020604051868152a165ffffffffffff6120796024600435016138fe565b169360243591614fb8565b156120af57807f9b779b17422d0df92223018b32b4d1fa46e071723d6817e2486d003becc55f005d80f35b63729d0f6b60e01b8152600490fd5b6120d260c460043501600435600401614731565b8910156121df578860061b8101358a526019880160205260ff60408b20541660038110156107d1576001036121d0576001916020916121958b8b8e868360061b8601019261211f84614766565b156121b15760061b85013590525060198c01855260408e20805460ff19166002179055601c8c01805461215190613afb565b90555b8c7f460119a8f69a33ed127de517d5ea464e958ce23ef19e4420a8b92bf780bbc2c98661218084614766565b1515926040519060061b8701358152a2614766565b908b60061b01358c52825360218b208186015201970196611f52565b60409260199160061b87013583520187522060ff198154169055612154565b636e83084760e11b8a5260048afd5b634e487b7160e01b8a52603260045260248afd5b634e487b7160e01b86526011600452602486fd5b620725b160ea1b8452600484fd5b63164b6fc360e01b8452600484fd5b6122416122356064600435016138f0565b600435600401356141e7565b156122715765ffffffffffff61225b6024600435016138fe565b164211611ed157631ad8809560e31b8452600484fd5b637b8cb35960e01b8452600484fd5b633ee5aeb560e01b8352600483fd5b5034610320578060031936011261032057602060ff5f516020615a955f395f51905f5254166040519015158152f35b503461032057610160366003190112610320576122d96134b6565b906024356001600160a01b0381169081900361098e576122f761348a565b926123006134a0565b9260a43560c43560843560403660e319011261080b5761012435966001600160401b03881161099d573660238901121561099d578760040135926001600160401b03841161072157366024858b01011161072157610144356001600160401b03811161080757612374903690600401613605565b9590935f516020615ab55f395f51905f5254986001600160401b0360ff8b60401c16159a1680159081612c87575b6001149081612c7d575b159081612c74575b50612c65576123f6908a60016001600160401b03195f516020615ab55f395f51905f525416175f516020615ab55f395f51905f5255612c35575b611922615499565b6123fe615499565b612406613795565b61240e6137c2565b90612417615499565b61241f615499565b8051906001600160401b038211612c215781908b61244a5f5160206159d55f395f51905f525461523f565b601f8111612bd0575b5050602090601f8311600114612b54578c92612b49575b50508160011b915f199060031b1c1916175f5160206159d55f395f51905f52555b8051906001600160401b038211612b355781906124b55f516020615a155f395f51905f525461523f565b601f8111612ac6575b50602090601f8311600114612a4a578b92612a3f575b50508160011b915f199060031b1c1916175f516020615a155f395f51905f52555b875f516020615a355f395f51905f5255875f516020615ad55f395f51905f525561251d615499565b612525615499565b4215612a30578115612a215781811115612a1257600a61254583836137e1565b04831015612a03576040809a815161255d8382613575565b60178152602081017f726f757465722e73746f726167652e526f7574657256310000000000000000008152612590613b87565b5f1991519020018a5260ff1960208b2016809e815f516020615a755f395f51905f5255835182815260207f059eb9adf6e95b839d818142ed5bd5e498b6d95138e65c91525e93cc0f0339fc91a16125e561414f565b805160018401556002830190602081015163ffffffff1686835492015160201b69ffffffffffff00000000169169ffffffffffffffffffff19161717905583519061262f826134f4565b8382526001600160a01b0390811660208301819052988116949091018490526005919091018054919092166001600160a01b03199182161790915560068e01805482168717905560078e018054909116909117905570030000000000000000000000000000000260088d01556126a361375f565b5089516126af81613523565b639502f90081526509184e72a00060209091015260158c0180546001600160c01b0319166d09184e72a000000000009502f900179055895183908b906126f4816134f4565b83815260208101859052015260168c015560178b015560188a0155601d8901805461ffff191661ffff8616179055865163313ce56760e01b815290819081905a92600491602094fa9081156129f95790612754918691611bc75750613839565b806103e8026103e8810482036121f357601e8a0155806101f402906101f48204036129e557906127b491601f8a01556127ac8751986127928a613523565b60e4358a5260208a019461010435865260243692016135b1565b93369161389c565b958051825170014551231950b75fc4402da1732fc9bebe19821091826129d4575b5050156129c55751600988015551600a870155805180851b6bfe61000180600a3d393df3000161fffe8211830152600b81016015830184f09182156129b85752600b860180546001600160a01b0319166001600160a01b039092169190911790559092600c85019190600d860190825b825481101561287d5782845260208085208201546001600160a01b03165f90815290869052869020805460ff19169055600101612845565b509195949094865b83518110156128c5576001906001600160a01b036128a38287613935565b5116828060a01b03165f5285602052865f208260ff1982541617905501612885565b50925092938151916001600160401b0383116129a457600160401b83116129a4576020908254848455808510612989575b500190865260208620865b83811061296c5750505050600e4291015561291a575080f35b60207fc7f505b2f371ae2175ee4913f4499e1f2633a7b5936321eed1cdaeb6115181d29160ff60401b195f516020615ab55f395f51905f5254165f516020615ab55f395f51905f52555160018152a180f35b82516001600160a01b031681830155602090920191600101612901565b61299e90848a528580858c20019103906141cc565b5f6128f6565b634e487b7160e01b87526041600452602487fd5b633011642584526004601cfd5b63375f0aab60e11b8452600484fd5b6129de9250615953565b5f806127d5565b634e487b7160e01b85526011600452602485fd5b87513d87823e3d90fd5b63145e348f60e01b8852600488fd5b6353b2bbed60e01b8852600488fd5b63f7ba6bdb60e01b8852600488fd5b63b7d0949760e01b8852600488fd5b015190505f806124d4565b5f516020615a155f395f51905f528c52818c209250601f1984168c5b818110612aae5750908460019594939210612a96575b505050811b015f516020615a155f395f51905f52556124f5565b01515f1960f88460031b161c191690555f8080612a7c565b92936020600181928786015181550195019301612a66565b828111156124be575f516020615a155f395f51905f528c52612b27907f5f9ce34815f8e11431c7bb75a8e6886a91478f7ffc1dbb0a98dc240fddd76b7590601f850160051c908e60208710612b2d575b50601f82910160051c0391016141cc565b5f6124be565b91508e612b16565b634e487b7160e01b8a52604160045260248afd5b015190505f8061246a565b5f5160206159d55f395f51905f528d52818d209250601f1984168d5b818110612bb85750908460019594939210612ba0575b505050811b015f5160206159d55f395f51905f525561248b565b01515f1960f88460031b161c191690555f8080612b86565b92936020600181928786015181550195019301612b70565b83811115612453575f5160206159d55f395f51905f52612c1292528d6020812091601f860160051c9160208710612c195750601f82910160051c0391016141cc565b8b5f612453565b91508f612b16565b634e487b7160e01b8b52604160045260248bfd5b600160401b60ff60401b195f516020615ab55f395f51905f525416175f516020615ab55f395f51905f52556123ee565b63f92ee8a960e01b8952600489fd5b9050155f6123b4565b303b1591506123ac565b8b91506123a2565b50346103205780600319360112610320577f00000000000000000000000000000000000000000000000000000000000000006001600160a01b03163003612ce75760206040515f516020615a555f395f51905f528152f35b63703e46dd60e11b8152600490fd5b50604036600319011261032057612d0b6134b6565b906024356001600160401b03811161098e57612d2b9036906004016135e7565b6001600160a01b037f000000000000000000000000000000000000000000000000000000000000000016308114908115612ee8575b50612ed957612d6d613b87565b6040516352d1902d60e01b8152926001600160a01b0381169190602085600481865afa80958596612ea1575b50612db257634c9c8ce360e01b84526004839052602484fd5b9091845f516020615a555f395f51905f528103612e8f5750813b15612e7d575f516020615a555f395f51905f5280546001600160a01b031916821790557fbc7cd75a20ee27fd9adebab32041f755214dbc6bffa90cc0225b39da2e5c2d3b8480a28151839015612e635780836020612e5795519101845af43d15612e5b573d91612e3b83613596565b92612e496040519485613575565b83523d85602085013e615976565b5080f35b606091615976565b50505034612e6e5780f35b63b398979f60e01b8152600490fd5b634c9c8ce360e01b8452600452602483fd5b632a87526960e21b8552600452602484fd5b9095506020813d602011612ed1575b81612ebd60209383613575565b81010312612ecd5751945f612d99565b5f80fd5b3d9150612eb0565b63703e46dd60e11b8252600482fd5b5f516020615a555f395f51905f52546001600160a01b0316141590505f612d60565b5034610320578060031936011261032057612f23613b87565b5f516020615a955f395f51905f525460ff811615612f7b5760ff19165f516020615a955f395f51905f52557f5db9ee0a495bf2e6ff9c91a7834c1ba4fdd244a5e8aa4e537bd38aeae4b073aa6020604051338152a180f35b638dfc202b60e01b8252600482fd5b503461032057602036600319011261032057612fa46134b6565b612fac613b87565b5f516020615a755f395f51905f525460050180546001600160a01b0319166001600160a01b0390921691909117905580f35b5034610320578060031936011261032057612ff761375f565b50604061301b6130165f516020615a755f395f51905f5254429061547d565b613777565b60208251918051835201516020820152f35b50346103205760603660031901126103205761304761348a565b61304f613bba565b61305d602435600435614057565b506001600160a01b03908116919081166130e55750335b5f516020615a755f395f51905f5254600501546001600160a01b0316823b1561080b57604051635fd142bb60e11b81526001600160a01b03909216600483015260248201526001604482015260648101839052828160848183865af180156109925761097957602082604051908152f35b613074565b50346103205780600319360112610320576020610a4261541c565b5034610320578060031936011261032057602060015f516020615a755f395f51905f52540154604051908152f35b50346103205780600319360112610320576020601e5f516020615a755f395f51905f52540154604051908152f35b50346103205760203660031901126103205761317b613b87565b600435601e5f516020615a755f395f51905f5254015580f35b503461032057610100366003190112610320576131af61348a565b6064356001600160801b0381169081810361080b578360a43560ff8116810361098e576131da613bba565b6131e8602435600435614057565b6006015490936001600160a01b0390911691823b1561080b5761322f8480926040518093819263d505accf60e01b835260e4359060c435906084358a3033600489016136fd565b038183885af161334d575b50506040516323b872dd60e01b81523360048201523060248201526001600160801b039190911660448201529160209183916064918391905af1908115613342578591613323575b5015613314576001600160a01b039081169290811661330e575033905b5f516020615a755f395f51905f5254600501546001600160a01b0316833b1561099d57604051635fd142bb60e11b81526001600160a01b0390931660048401526024830152600160448301526064820152828160848183865af180156109925761097957602082604051908152f35b9061329f565b631e4e7d0960e21b8452600484fd5b61333c915060203d6020116106f6576106e88183613575565b5f613282565b6040513d87823e3d90fd5b8161335791613575565b61072557825f61323a565b34612ecd576080366003190112612ecd5761337b61348a565b6133836134a0565b9061338c613bba565b61339a602435600435613be1565b506001600160a01b0390811691908116613427575033915b813b15612ecd57604051635fd142bb60e11b81526001600160a01b039384166004820152921660248301525f60448301819052606483018190528260848183855af191821561341c5760209261340c575b50604051908152f35b5f61341691613575565b5f613403565b6040513d5f823e3d90fd5b916133b2565b34612ecd576020366003190112612ecd57613446613b87565b600435601f5f516020615a755f395f51905f525401555f80f35b34612ecd575f366003190112612ecd57602090601c5f516020615a755f395f51905f525401548152f35b604435906001600160a01b0382168203612ecd57565b606435906001600160a01b0382168203612ecd57565b600435906001600160a01b0382168203612ecd57565b35906001600160a01b0382168203612ecd57565b35906001600160801b0382168203612ecd57565b606081019081106001600160401b0382111761350f57604052565b634e487b7160e01b5f52604160045260245ffd5b604081019081106001600160401b0382111761350f57604052565b61016081019081106001600160401b0382111761350f57604052565b608081019081106001600160401b0382111761350f57604052565b90601f801991011681019081106001600160401b0382111761350f57604052565b6001600160401b03811161350f57601f01601f191660200190565b9291926135bd82613596565b916135cb6040519384613575565b829481845281830111612ecd578281602093845f960137010152565b9080601f83011215612ecd57816020613602933591016135b1565b90565b9181601f84011215612ecd578235916001600160401b038311612ecd576020808501948460051b010111612ecd57565b9060038210156136425752565b634e487b7160e01b5f52602160045260245ffd5b805180835260209291819084018484015e5f828201840152601f01601f1916010190565b90602080835192838152019201905f5b8181106136975750505090565b82516001600160a01b031684526020938401939092019160010161368a565b9060208251805183520151602082015260018060a01b036020830151166040820152608060606136f4604085015160a08386015260a085019061367a565b93015191015290565b936001600160801b0360c096929998979460ff9460e088019b60018060a01b0316885260018060a01b03166020880152166040860152606085015216608083015260a08201520152565b90816020910312612ecd57518015158103612ecd5790565b6040519061376c82613523565b5f6020838281520152565b9060405161378481613523565b602060018294805484520154910152565b604051906137a4604083613575565b600f82526e2b30b9309722aa24102937baba32b960891b6020830152565b604051906137d1604083613575565b60018252603160f81b6020830152565b919082039182116137ee57565b634e487b7160e01b5f52601160045260245ffd5b811561380c570490565b634e487b7160e01b5f52601260045260245ffd5b90816020910312612ecd575160ff81168103612ecd5790565b60ff16604d81116137ee57600a0a90565b818102929181159184041417156137ee57565b9190826040910312612ecd5760405161387581613523565b6020808294803584520135910152565b6001600160401b03811161350f5760051b60200190565b9291906138a881613885565b936138b66040519586613575565b602085838152019160051b8101928311612ecd57905b8282106138d857505050565b602080916138e5846134cc565b8152019101906138cc565b3560ff81168103612ecd5790565b3565ffffffffffff81168103612ecd5790565b91908110156139215760051b0190565b634e487b7160e01b5f52603260045260245ffd5b80518210156139215760209160051b010190565b9060405161395681613523565b91546001600160401b038116835260401c6001600160801b03166020830152565b356001600160a01b0381168103612ecd5790565b6139a45f516020615a755f395f51905f5254429061547d565b600301905f5b8381106139ba5750505050600190565b6139c8611058828685613911565b6001600160a01b03165f9081526020849052604090205460ff16156139ef576001016139aa565b505050505f90565b60405190613a04826134f4565b5f6040838281528260208201520152565b90604051613a22816134f4565b60406002829480548452600181015460208501520154910152565b60405190613a4a8261355a565b5f606083604051613a5a81613523565b83815283602082015281528260208201528160408201520152565b60405190613a828261355a565b815f81525f6020820152613a94613a3d565b60408201526060613aa3613a3d565b910152565b90604051918281549182825260208201905f5260205f20925f5b818110613ad9575050613ad792500383613575565b565b84546001600160a01b0316835260019485019487945060209093019201613ac2565b5f1981146137ee5760010190565b919082018092116137ee57565b6001600160a01b03168015613b74575f5160206159f55f395f51905f5280546001600160a01b0319811683179091556001600160a01b03167f8be0079c531659141344cd1fd0a4f28419497f9722a3daafe3b4186f6b6457e05f80a3565b631e4fbdf760e01b5f525f60045260245ffd5b5f5160206159f55f395f51905f52546001600160a01b03163303613ba757565b63118cdaa760e01b5f523360045260245ffd5b60ff5f516020615a955f395f51905f525416613bd257565b63d93c066560e01b5f5260045ffd5b9190915f516020615a755f395f51905f52549260018401541561008257815f526019840160205260ff60405f20541660038110156136425760020361404857815f5260205260405f206040516103008101908082106001600160401b03831117612ecd576102fb916040527f6080806040526102e990816100128239f3fe60806040526004361061029f575f81527f3560e01c806336a52a18146100bb57806342129d00146100b65780635ce6c32760208201527f146100b1578063701da98e146100ac578063704ed542146100a75780637a8e0c60408201527fdd146100a257806391d5a64c1461009d5780639ce110d714610098578063affe60608201527fd0e014610093578063c60496921461008e5763e43f34330361029f5761028a5660808201527f5b610260565b610243565b61021b565b610205565b6101d2565b6101b3565b6160a08201527f0178565b610156565b610119565b346100e7575f3660031901126100e757600260c08201527f5460405160089190911c6001600160a01b03168152602090f35b5f80fd5b918160e08201527f601f840112156100e75782359167ffffffffffffffff83116100e757602083816101008201527f8601950101116100e757565b60403660031901126100e75760043567ffffffff6101208201527fffffffff81116100e7576101459036906004016100eb565b50506024358015156101408201527f1461029f575f80fd5b346100e7575f3660031901126100e757602060ff6002546101608201527f166040519015158152f35b346100e7575f3660031901126100e75760205f54606101808201527f4051908152f35b600435906fffffffffffffffffffffffffffffffff821682036101a08201527f6100e757565b346100e75760203660031901126100e7576101cc610194565b506101c08201527f61029f565b60403660031901126100e75760243567ffffffffffffffff8111616101e08201527ee7576101fe9036906004016100eb565b505061029f565b346100e7576020366102008201527f60031901121561029f575f80fd5b346100e7575f3660031901126100e75760036102208201527f546040516001600160a01b039091168152602090f35b346100e7575f366003196102408201527f01126100e7576020600154604051908152f35b346100e75760a03660031901126102608201527f6100e757610279610194565b5060443560ff81161461029f575f80fd5b3461006102808201527fe7575f3660031901121561029f575f80fd5b63e6fabc0960e01b5f5260205f606102a08201523060481b685afa156100e7575f806204817360e81b01176102c08201527f8051368280378136915af43d5f803e156102e5573d5ff35b3d5ffd00000000006102e08201525ff5908115612ecd5760018060a01b0382165f52601a84016020528060405f2055601b840161400d8154613afb565b90556040516001600160a01b03831681527f8008ec1d8798725ebfa0f2d128d52e8e717dcba6e0f786557eeee70614b02bf190602090a29190565b630e2637d160e01b5f5260045ffd5b9190915f516020615a755f395f51905f52549260018401541561008257815f526019840160205260ff60405f20541660038110156136425760020361404857815f5260205260405f2060405160608101908082106001600160401b03831117612ecd57605a916040527f3d605080600a3d3981f3608060405263e6fabc0960e01b5f5260205f6004817381523060601b6b5afa15604c575f80805136821760208201527f80378136915af43d5f803e156048573d5ff35b3d5ffd5b5f80fd00000000000060408201525ff5908115612ecd5760018060a01b0382165f52601a84016020528060405f2055601b840161400d8154613afb565b6141576139f7565b5063ffffffff43116141b45765ffffffffffff421161419c5760405161417c816134f4565b5f815263ffffffff4316602082015265ffffffffffff4216604082015290565b6306dfcc6560e41b5f5260306004524260245260445ffd5b6306dfcc6560e41b5f5260206004524360245260445ffd5b5f5b8281106141da57505050565b5f828201556001016141ce565b435f19810193929084116137ee5760ff1643811061423757505f925b83811015614213575b505f925050565b80408281036142255750600193505050565b15614232575f1901614203565b61420c565b61424190436137e1565b92614203565b903590601e1981360301821215612ecd57018035906001600160401b038211612ecd57602001918160051b36038313612ecd57565b9060a08101600161428d8284614247565b9050116147225761429e8183614247565b9050156146fb576142ae91614247565b1561392157803590603e1981360301821215612ecd5701916142d08380614247565b9190928260051b93838504602014841517156137ee576142f2859694956154e5565b925f945f97601a60fe19853603019501965b888a10156146b3578960051b85013586811215612ecd57850161432681613977565b6001600160a01b03165f90815260208a9052604090205415610064575f608082016001600160801b03614358826154c4565b161515806146a0575b61468f575b6001600160a01b0361437784613977565b604051630427a21d60e11b81526020600482015294911691610124850191906001600160801b03906143f6906001600160a01b036143b4856134cc565b166024890152602084013560448901526143d0604085016154d8565b151560648901526001600160a01b036143eb606086016134cc565b1660848901526134e0565b1660a486015261440860a082016154d8565b151560c486015236819003601e190160c082013581811215612ecd578201602081359101936001600160401b038211612ecd576060820236038513612ecd57819061010060e48a015252610144870193905f905b8082106146455750505060e082013590811215612ecd5701803560208201926001600160401b038211612ecd578160051b908136038513612ecd5791879594936023198785030161010488015281845260208085019385010194935f9160fe19813603015b8484106145385750505050505050602093916001600160801b03848093039316905af190811561341c575f91614506575b50816020916001938a015201990198614304565b90506020813d8211614530575b8161452060209383613575565b81010312612ecd575160016144f2565b3d9150614513565b919395979850919395601f19848203018752873582811215612ecd578301602081013582526001600160a01b03614571604083016134cc565b1660208301526060810135603e193683900301811215612ecd578101602081013591906040016001600160401b038311612ecd578236038113612ecd57829060e060408601528160e08601526101008501375f61010083850101526001600160801b036145e0608083016134e0565b16606084015260a0810135608084015260c081013563ffffffff60e01b8116809103612ecd578360209361462260e086956101009560a060019a0152016154d8565b151560c0830152601f80199101160101990197019401918a9897969593916144c1565b90919460608060019288358152838060a01b0361466460208b016134cc565b1660208201526001600160801b0361467e60408b016134e0565b16604082015201960192019061445c565b905061469a816154c4565b90614366565b506146ad60a08401614766565b15614361565b5094935095509550506020925020910135907fd04cd9af813f6f0b56e9411a6ee6a84eb5ac35a96f0c33d2e3a07d65baa8f4186020604051848152a15f5260205260405f2090565b5050507fc5d2460186f7233c927e7db2dcc703c0e500b653ca82273b7bfad8045d85a47090565b6306d6c38360e01b5f5260045ffd5b903590601e1981360301821215612ecd57018035906001600160401b038211612ecd57602001918160061b36038313612ecd57565b358015158103612ecd5790565b903590605e1981360301821215612ecd570190565b60e0820160016147988285614247565b905011614b1e576147a98184614247565b9050156146fb576147ba9083614247565b1561392157803590607e1981360301821215612ecd570191606083019060206147e2836138fe565b91019065ffffffffffff806147f6846138fe565b1691161015614b0f57614808826138fe565b65ffffffffffff80600286015460201c16911610614b005761484e65ffffffffffff6148476148418261483a876138fe565b168761550a565b936138fe565b168461550a565b1115614af1576007820154600690920180548435946001600160a01b0394851694604082019391925f916020911660446148948361488c8989614773565b01358b613b09565b604051948593849263095ea7b360e01b84528c600485015260248401525af190811561341c575f91614ad2575b5015614ac3575460405163394f179b60e11b81526001600160a01b03909116600482015260248101959095526020818101356044870152856064815f885af194851561341c575f95614a8b575b509061491991614773565b91614923826138fe565b9260405193637fbe95b560e01b85526040600486015260a48501918035601e1982360301811215612ecd578101602081359101936001600160401b038211612ecd578160061b36038513612ecd5760606044890152819052869360c485019392915f5b818110614a5357505050836020959365ffffffffffff829484895f96013560648601526149bc604060018060a01b0392016134cc565b16608485015216602483015203925af191821561341c575f92614a1d575b506149e4906138fe565b6040519160208301938452604083015265ffffffffffff60d01b9060d01b16606082015260468152614a17606682613575565b51902090565b9091506020813d602011614a4b575b81614a3960209383613575565b81010312612ecd5751906149e46149da565b3d9150614a2c565b919550919293604080600192838060a01b03614a6e8a6134cc565b168152602089013560208201520196019101918895949392614986565b919094506020823d602011614abb575b81614aa860209383613575565b81010312612ecd5790519361491961490e565b3d9150614a9b565b6367b9145160e01b5f5260045ffd5b614aeb915060203d6020116106f6576106e88183613575565b5f6148c1565b6308027f7760e31b5f5260045ffd5b637bde91e760e11b5f5260045ffd5b63087a19ab60e41b5f5260045ffd5b633249ceed60e11b5f5260045ffd5b903590601e1981360301821215612ecd57018035906001600160401b038211612ecd57602001918136038313612ecd57565b9061010081016001614b718284614247565b905011614fa957614b828183614247565b9050156146fb57614b939082614247565b1561392157803590609e1981360301821215612ecd57016060810190614bb98282614247565b905015614f9a5765ffffffffffff600285015460201c1691614bdb83426137e1565b614bea60168701548092613802565b93608084013594600181018091116137ee578503614f8b57614c0f85614c159361384a565b90613b09565b94614c246017820154876137e1565b4210614f7c57614c3390615532565b9260058401944286541015614f6d576080614c4e9101614766565b9260408101926127ac614c85614c648685614b2d565b9190614c708587614247565b949091614c7d368961385d565b9436916135b1565b96614eb4575b50505f979697966003600488019701975b8754811015614cd3575f88815260208082208301546001600160a01b031682528a905260409020805460ff19169055600101614c9c565b50909192939495975f5b8751811015614d1e576001906001600160a01b03614cfb828b613935565b5116828060a01b03165f528960205260405f208260ff1982541617905501614cdd565b509295919497909396508151916001600160401b03831161350f57600160401b831161350f576020908254848455808510614e99575b5001905f5260205f205f5b838110614e7c5750505050557fa1a3b42179ad30022438a1ea333b38eaf4a7329beee5e2b8111c0dcd4e08821c6020604051858152a160a082360312612ecd5760405193614dac8561355a565b614db6368461385d565b8552356001600160401b038111612ecd57614dd490369084016135e7565b602085015235906001600160401b038211612ecd570136601f82011215612ecd57614e0690369060208135910161389c565b91826040820152816060820152519160208351930151906040519283926020840195865260408401526060830160208351919301905f5b818110614e5a57505050815203808252614a179060200182613575565b82516001600160a01b0316855286955060209485019490920191600101614e3d565b82516001600160a01b031681830155602090920191600101614d5f565b614eae90845f528580855f20019103906141cc565b5f614d54565b8051906020810191825170014551231950b75fc4402da1732fc9bebe1982109182614f5c575b505015614f4d5751885551600188015580518060401b6bfe61000180600a3d393df3000161fffe8211830152600b8101601583015ff0918215614f4057526002870180546001600160a01b0319166001600160a01b039092169190911790555f80614c8b565b63301164255f526004601cfd5b63375f0aab60e11b5f5260045ffd5b614f669250615953565b5f80614eda565b6333fc8f5160e21b5f5260045ffd5b6372a84ce560e11b5f5260045ffd5b6343d3f5bf60e01b5f5260045ffd5b636c2bf3db60e01b5f5260045ffd5b631d3fc6bf60e21b5f5260045ffd5b909291939465ffffffffffff600283015460201c16614fd7428461550a565b614fef614fe96016860154809361384a565b83613b09565b918284108080615229575b156151f7575083106151e9576150109083613b09565b106151da57615020905b8261547d565b92601960f81b5f523060601b60025260165260365f2093600281101561364257806150cd575050600184036150be5781549384158015906150b1575b15614f4d5715613921576150738161507a92614b2d565b36916135b1565b60608151036150a257613602936020820151906001606060408501519401519401549061554d565b632ce466bf60e01b5f5260045ffd5b506001830154151561505c565b6360a1ea7760e01b5f5260045ffd5b92949391926001146150e25750505050505f90565b61510790600860048796970154910154906001600160801b038260801c9216906153f1565b925f9260035f9201915b868110156151cf576151376105886151316150738460051b860186614b2d565b86615919565b6001600160a01b0381165f9081526020859052604090205460ff16615162575b506001905b01615111565b6001600160a01b03165f9081527ff02b465737fa6045c2ff53fb2df43c66916ac2166fa303264668fb2f6a1d8c0060205260409020805c156151a7575060019061515c565b9460016151b592965d613afb565b938585146151c3575f615157565b50505050505050600190565b505050505050505f90565b63046bb1e560e51b5f5260045ffd5b62f4462b60e01b5f5260045ffd5b939291505042821161521a5761502092615212575b5061501a565b90505f61520c565b6347860b9760e01b5f5260045ffd5b50615238601887015485613b09565b4210614ffa565b90600182811c9216801561526d575b602083101461525957565b634e487b7160e01b5f52602260045260245ffd5b91607f169161524e565b604051905f825f5160206159d55f395f51905f5254916152968361523f565b808352926001811690811561532557506001146152ba575b613ad792500383613575565b505f5160206159d55f395f51905f525f90815290917f42ad5d3e1f2e6e70edcf6d991b8a3023d3fca8047a131592f9edb9fd9b89d57d5b818310615309575050906020613ad7928201016152ae565b60209193508060019154838589010152019101909184926152f1565b60209250613ad794915060ff191682840152151560051b8201016152ae565b604051905f825f516020615a155f395f51905f5254916153638361523f565b8083529260018116908115615325575060011461538657613ad792500383613575565b505f516020615a155f395f51905f525f90815290917f5f9ce34815f8e11431c7bb75a8e6886a91478f7ffc1dbb0a98dc240fddd76b755b8183106153d5575050906020613ad7928201016152ae565b60209193508060019154838589010152019101909184926153bd565b6001600160801b038092160291166154098183613802565b91811561380c5706156136025760010190565b615424615830565b61542c615887565b6040519060208201927f8b73c3c69bb8fe3d512ecc4cf759cc79239f7b179b0ffacaa9a75d522b39400f8452604083015260608201524660808201523060a082015260a08152614a1760c082613575565b9061548890826158b9565b1561549357600f0190565b60090190565b60ff5f516020615ab55f395f51905f525460401c16156154b557565b631afcd79f60e31b5f5260045ffd5b356001600160801b0381168103612ecd5790565b35908115158203612ecd57565b6040519190601f01601f191682016001600160401b03811183821017612ecd57604052565b60166155296136029365ffffffffffff600285015460201c16906137e1565b91015490613802565b61553c42826158b9565b156155475760090190565b600f0190565b929391949061555c8587615953565b156156ef5782156156ef5770014551231950b75fc4402da1732fc9bebe198310156156ef576001169061010e615591816154e5565b9160883684376002600188160160888401538760898401526002840160a984015360aa830186905260ca8301527e300046524f53542d736563703235366b312d4b454343414b3235362d76316360ea8301526303430b6160e51b61010a830152812060cc820181815290600260ec84016001815360428420809318845253604270014551231950b75fc4402da1732fc9bebe19922060801c6001600160401b0360801b8260801b16179070014551231950b75fc4402da1732fc9bebe1990600160c01b9060401c090880156151cf5784601b6080945f9660209870014551231950b75fc4402da1732fc9bebe19910970014551231950b75fc4402da1732fc9bebe19038552018684015280604084015270014551231950b75fc4402da1732fc9bebe19910970014551231950b75fc4402da1732fc9bebe1903606082015282805260015afa505f51915f5260205260018060a01b0360405f20161490565b5050505050505f90565b615701613a3d565b5060028101546005820154604051929091615741916004916001600160a01b031661572b8661355a565b61573482613777565b8652602086015201613aa8565b6040830152606082015290565b91907f7fffffffffffffffffffffffffffffff5d576e7357a4501ddfe92f46681b20a084116157c5579160209360809260ff5f9560405194855216868401526040830152606082015282805260015afa1561341c575f516001600160a01b038116156157bb57905f905f90565b505f906001905f90565b5050505f9160039190565b600481101561364257806157e2575050565b600181036157f95763f645eedf60e01b5f5260045ffd5b60028103615814575063fce698f760e01b5f5260045260245ffd5b60031461581e5750565b6335e2f38360e21b5f5260045260245ffd5b615838615277565b8051908115615848576020012090565b50505f516020615a355f395f51905f525480156158625790565b507fc5d2460186f7233c927e7db2dcc703c0e500b653ca82273b7bfad8045d85a47090565b61588f615344565b805190811561589f576020012090565b50505f516020615ad55f395f51905f525480156158625790565b906014600e83015492015480831461590a57818184109311918215911115918190615903575b156158f457826158ee57505090565b14919050565b634c38ae9560e11b5f5260045ffd5b50816158df565b63f26224af60e01b5f5260045ffd5b8151919060418303615949576159429250602082015190606060408401519301515f1a9061574e565b9192909190565b50505f9160029190565b6401000003d01990600790829081818009900908906401000003d0199080091490565b9061599a575080511561598b57602081519101fd5b63d6bda27560e01b5f5260045ffd5b815115806159cb575b6159ab575090565b639996b31560e01b5f9081526001600160a01b0391909116600452602490fd5b50803b156159a356fea16a46d94261c7517cc8ff89f61c0ce93598e3c849801011dee649a6a557d1029016d09d72d40fdae2fd8ceac6b6234c7706214fd39c1cd1e609a0528c199300a16a46d94261c7517cc8ff89f61c0ce93598e3c849801011dee649a6a557d103a16a46d94261c7517cc8ff89f61c0ce93598e3c849801011dee649a6a557d100360894a13ba1a3210667c828492db98dca3e2076cc3735a920a3ca505d382bbc5c09ca1b9b8127a4fd9f3c384aac59b661441e820e17733753ff5f2e86e1e000cd5ed15c6e187e77e9aee88184c21f4f2182ab5827cb3b7e07fbedcd63f03300f0c57e16840df040f15088dc2f81fe391c3923bec73e23a9662efc9c229c6a00a16a46d94261c7517cc8ff89f61c0ce93598e3c849801011dee649a6a557d101f0c57e16840df040f15088dc2f81fe391c3923bec73e23a9662efc9c229c6a00","linkReferences":{}},"methodIdentifiers":{"DOMAIN_SEPARATOR()":"3644e515","UPGRADE_INTERFACE_VERSION()":"ad3cb1cc","areValidators(address[])":"8f381dbe","codeState(bytes32)":"c13911e8","codesStates(bytes32[])":"82bdeaad","commitBatch((bytes32,uint48,bytes32,uint8,bool,((address,bytes32,bool,address,uint128,bool,(bytes32,address,uint128)[],(bytes32,address,bytes,uint128,(bytes32,bytes4),bool)[])[],bytes32)[],(bytes32,bool)[],((uint256,bytes32),((address,uint256)[],uint256,address),uint48)[],((uint256,uint256),bytes,address[],uint256)[]),uint8,bytes[])":"64f4711e","computeSettings()":"84d22a4f","createProgram(bytes32,bytes32,address)":"3683c4d2","createProgramWithAbiInterface(bytes32,bytes32,address,address)":"0c18d277","createProgramWithAbiInterfaceAndExecutableBalance(bytes32,bytes32,address,address,uint128,uint256,uint8,bytes32,bytes32)":"ee32004f","createProgramWithExecutableBalance(bytes32,bytes32,address,uint128,uint256,uint8,bytes32,bytes32)":"0d91bf2a","eip712Domain()":"84b0196e","genesisBlockHash()":"28e24b3d","genesisTimestamp()":"cacf66ab","initialize(address,address,address,address,uint256,uint256,uint256,(uint256,uint256),bytes,address[])":"53f7fd48","isValidator(address)":"facd743b","latestCommittedBatchHash()":"71a8cf2d","latestCommittedBatchTimestamp()":"d456fd51","lookupGenesisHash()":"8b1edf1e","middleware()":"f4f20ac0","mirrorImpl()":"e6fabc09","nonces(address)":"7ecebe00","owner()":"8da5cb5b","pause()":"8456cb59","paused()":"5c975abb","programCodeId(address)":"9067088e","programsCodeIds(address[])":"baaf0201","programsCount()":"96a2ddfa","proxiableUUID()":"52d1902d","reinitialize()":"6c2eb350","renounceOwnership()":"715018a6","requestCodeValidation(bytes32,uint256,uint8,bytes32,bytes32)":"8c4ace6a","requestCodeValidationBaseFee()":"188509e9","requestCodeValidationExtraFee()":"f1ef31ec","requestCodeValidationOnBehalf(address,bytes32,bytes32[],uint256,uint8,bytes32,bytes32,uint8,bytes32,bytes32)":"f0fd702a","setMirror(address)":"3d43b418","setRequestCodeValidationBaseFee(uint256)":"11bec80d","setRequestCodeValidationExtraFee(uint256)":"0b9737ce","signingThresholdFraction()":"e3a6684f","storageView()":"c2eb812f","timelines()":"9eb939a8","transferOwnership(address)":"f2fde38b","unpause()":"3f4ba83a","upgradeToAndCall(address,bytes)":"4f1ef286","validatedCodesCount()":"007a32e7","validators()":"ca1e7819","validatorsAggregatedPublicKey()":"3bd109fa","validatorsCount()":"ed612f8c","validatorsThreshold()":"edc87225","validatorsVerifiableSecretSharingCommitment()":"a5d53a44","wrappedVara()":"88f50cf0"},"storageLayout":{"storage":[],"types":{}},"id":165}