{"abi":[{"type":"constructor","inputs":[],"stateMutability":"nonpayable"},{"type":"receive","stateMutability":"payable"},{"type":"function","name":"UPGRADE_INTERFACE_VERSION","inputs":[],"outputs":[{"name":"","type":"string","internalType":"string"}],"stateMutability":"view"},{"type":"function","name":"areValidators","inputs":[{"name":"_validators","type":"address[]","internalType":"address[]"}],"outputs":[{"name":"","type":"bool","internalType":"bool"}],"stateMutability":"view"},{"type":"function","name":"codeState","inputs":[{"name":"_codeId","type":"bytes32","internalType":"bytes32"}],"outputs":[{"name":"","type":"uint8","internalType":"enum Gear.CodeState"}],"stateMutability":"view"},{"type":"function","name":"codesStates","inputs":[{"name":"_codesIds","type":"bytes32[]","internalType":"bytes32[]"}],"outputs":[{"name":"","type":"uint8[]","internalType":"enum Gear.CodeState[]"}],"stateMutability":"view"},{"type":"function","name":"commitBatch","inputs":[{"name":"_batch","type":"tuple","internalType":"struct Gear.BatchCommitment","components":[{"name":"blockHash","type":"bytes32","internalType":"bytes32"},{"name":"blockTimestamp","type":"uint48","internalType":"uint48"},{"name":"previousCommittedBatchHash","type":"bytes32","internalType":"bytes32"},{"name":"expiry","type":"uint8","internalType":"uint8"},{"name":"chainCommitment","type":"tuple[]","internalType":"struct Gear.ChainCommitment[]","components":[{"name":"transitions","type":"tuple[]","internalType":"struct Gear.StateTransition[]","components":[{"name":"actorId","type":"address","internalType":"address"},{"name":"newStateHash","type":"bytes32","internalType":"bytes32"},{"name":"exited","type":"bool","internalType":"bool"},{"name":"inheritor","type":"address","internalType":"address"},{"name":"valueToReceive","type":"uint128","internalType":"uint128"},{"name":"valueToReceiveNegativeSign","type":"bool","internalType":"bool"},{"name":"valueClaims","type":"tuple[]","internalType":"struct Gear.ValueClaim[]","components":[{"name":"messageId","type":"bytes32","internalType":"bytes32"},{"name":"destination","type":"address","internalType":"address"},{"name":"value","type":"uint128","internalType":"uint128"}]},{"name":"messages","type":"tuple[]","internalType":"struct Gear.Message[]","components":[{"name":"id","type":"bytes32","internalType":"bytes32"},{"name":"destination","type":"address","internalType":"address"},{"name":"payload","type":"bytes","internalType":"bytes"},{"name":"value","type":"uint128","internalType":"uint128"},{"name":"replyDetails","type":"tuple","internalType":"struct Gear.ReplyDetails","components":[{"name":"to","type":"bytes32","internalType":"bytes32"},{"name":"code","type":"bytes4","internalType":"bytes4"}]},{"name":"call","type":"bool","internalType":"bool"}]}]},{"name":"head","type":"bytes32","internalType":"bytes32"}]},{"name":"codeCommitments","type":"tuple[]","internalType":"struct Gear.CodeCommitment[]","components":[{"name":"id","type":"bytes32","internalType":"bytes32"},{"name":"valid","type":"bool","internalType":"bool"}]},{"name":"rewardsCommitment","type":"tuple[]","internalType":"struct Gear.RewardsCommitment[]","components":[{"name":"operators","type":"tuple","internalType":"struct Gear.OperatorRewardsCommitment","components":[{"name":"amount","type":"uint256","internalType":"uint256"},{"name":"root","type":"bytes32","internalType":"bytes32"}]},{"name":"stakers","type":"tuple","internalType":"struct Gear.StakerRewardsCommitment","components":[{"name":"distribution","type":"tuple[]","internalType":"struct Gear.StakerRewards[]","components":[{"name":"vault","type":"address","internalType":"address"},{"name":"amount","type":"uint256","internalType":"uint256"}]},{"name":"totalAmount","type":"uint256","internalType":"uint256"},{"name":"token","type":"address","internalType":"address"}]},{"name":"timestamp","type":"uint48","internalType":"uint48"}]},{"name":"validatorsCommitment","type":"tuple[]","internalType":"struct Gear.ValidatorsCommitment[]","components":[{"name":"aggregatedPublicKey","type":"tuple","internalType":"struct Gear.AggregatedPublicKey","components":[{"name":"x","type":"uint256","internalType":"uint256"},{"name":"y","type":"uint256","internalType":"uint256"}]},{"name":"verifiableSecretSharingCommitment","type":"bytes","internalType":"bytes"},{"name":"validators","type":"address[]","internalType":"address[]"},{"name":"eraIndex","type":"uint256","internalType":"uint256"}]}]},{"name":"_signatureType","type":"uint8","internalType":"enum Gear.SignatureType"},{"name":"_signatures","type":"bytes[]","internalType":"bytes[]"}],"outputs":[],"stateMutability":"nonpayable"},{"type":"function","name":"computeSettings","inputs":[],"outputs":[{"name":"","type":"tuple","internalType":"struct Gear.ComputationSettings","components":[{"name":"threshold","type":"uint64","internalType":"uint64"},{"name":"wvaraPerSecond","type":"uint128","internalType":"uint128"}]}],"stateMutability":"view"},{"type":"function","name":"createProgram","inputs":[{"name":"_codeId","type":"bytes32","internalType":"bytes32"},{"name":"_salt","type":"bytes32","internalType":"bytes32"},{"name":"_overrideInitializer","type":"address","internalType":"address"}],"outputs":[{"name":"","type":"address","internalType":"address"}],"stateMutability":"nonpayable"},{"type":"function","name":"createProgramWithAbiInterface","inputs":[{"name":"_codeId","type":"bytes32","internalType":"bytes32"},{"name":"_salt","type":"bytes32","internalType":"bytes32"},{"name":"_overrideInitializer","type":"address","internalType":"address"},{"name":"_abiInterface","type":"address","internalType":"address"}],"outputs":[{"name":"","type":"address","internalType":"address"}],"stateMutability":"nonpayable"},{"type":"function","name":"genesisBlockHash","inputs":[],"outputs":[{"name":"","type":"bytes32","internalType":"bytes32"}],"stateMutability":"view"},{"type":"function","name":"genesisTimestamp","inputs":[],"outputs":[{"name":"","type":"uint48","internalType":"uint48"}],"stateMutability":"view"},{"type":"function","name":"initialize","inputs":[{"name":"_owner","type":"address","internalType":"address"},{"name":"_mirror","type":"address","internalType":"address"},{"name":"_wrappedVara","type":"address","internalType":"address"},{"name":"_middleware","type":"address","internalType":"address"},{"name":"_eraDuration","type":"uint256","internalType":"uint256"},{"name":"_electionDuration","type":"uint256","internalType":"uint256"},{"name":"_validationDelay","type":"uint256","internalType":"uint256"},{"name":"_aggregatedPublicKey","type":"tuple","internalType":"struct Gear.AggregatedPublicKey","components":[{"name":"x","type":"uint256","internalType":"uint256"},{"name":"y","type":"uint256","internalType":"uint256"}]},{"name":"_verifiableSecretSharingCommitment","type":"bytes","internalType":"bytes"},{"name":"_validators","type":"address[]","internalType":"address[]"}],"outputs":[],"stateMutability":"nonpayable"},{"type":"function","name":"isValidator","inputs":[{"name":"_validator","type":"address","internalType":"address"}],"outputs":[{"name":"","type":"bool","internalType":"bool"}],"stateMutability":"view"},{"type":"function","name":"latestCommittedBatchHash","inputs":[],"outputs":[{"name":"","type":"bytes32","internalType":"bytes32"}],"stateMutability":"view"},{"type":"function","name":"latestCommittedBatchTimestamp","inputs":[],"outputs":[{"name":"","type":"uint48","internalType":"uint48"}],"stateMutability":"view"},{"type":"function","name":"lookupGenesisHash","inputs":[],"outputs":[],"stateMutability":"nonpayable"},{"type":"function","name":"middleware","inputs":[],"outputs":[{"name":"","type":"address","internalType":"address"}],"stateMutability":"view"},{"type":"function","name":"mirrorImpl","inputs":[],"outputs":[{"name":"","type":"address","internalType":"address"}],"stateMutability":"view"},{"type":"function","name":"owner","inputs":[],"outputs":[{"name":"","type":"address","internalType":"address"}],"stateMutability":"view"},{"type":"function","name":"pause","inputs":[],"outputs":[],"stateMutability":"nonpayable"},{"type":"function","name":"paused","inputs":[],"outputs":[{"name":"","type":"bool","internalType":"bool"}],"stateMutability":"view"},{"type":"function","name":"programCodeId","inputs":[{"name":"_programId","type":"address","internalType":"address"}],"outputs":[{"name":"","type":"bytes32","internalType":"bytes32"}],"stateMutability":"view"},{"type":"function","name":"programsCodeIds","inputs":[{"name":"_programsIds","type":"address[]","internalType":"address[]"}],"outputs":[{"name":"","type":"bytes32[]","internalType":"bytes32[]"}],"stateMutability":"view"},{"type":"function","name":"programsCount","inputs":[],"outputs":[{"name":"","type":"uint256","internalType":"uint256"}],"stateMutability":"view"},{"type":"function","name":"proxiableUUID","inputs":[],"outputs":[{"name":"","type":"bytes32","internalType":"bytes32"}],"stateMutability":"view"},{"type":"function","name":"reinitialize","inputs":[],"outputs":[],"stateMutability":"nonpayable"},{"type":"function","name":"renounceOwnership","inputs":[],"outputs":[],"stateMutability":"nonpayable"},{"type":"function","name":"requestCodeValidation","inputs":[{"name":"_codeId","type":"bytes32","internalType":"bytes32"}],"outputs":[],"stateMutability":"nonpayable"},{"type":"function","name":"setMirror","inputs":[{"name":"newMirror","type":"address","internalType":"address"}],"outputs":[],"stateMutability":"nonpayable"},{"type":"function","name":"signingThresholdFraction","inputs":[],"outputs":[{"name":"","type":"uint128","internalType":"uint128"},{"name":"","type":"uint128","internalType":"uint128"}],"stateMutability":"view"},{"type":"function","name":"storageView","inputs":[],"outputs":[{"name":"","type":"tuple","internalType":"struct IRouter.StorageView","components":[{"name":"genesisBlock","type":"tuple","internalType":"struct Gear.GenesisBlockInfo","components":[{"name":"hash","type":"bytes32","internalType":"bytes32"},{"name":"number","type":"uint32","internalType":"uint32"},{"name":"timestamp","type":"uint48","internalType":"uint48"}]},{"name":"latestCommittedBatch","type":"tuple","internalType":"struct Gear.CommittedBatchInfo","components":[{"name":"hash","type":"bytes32","internalType":"bytes32"},{"name":"timestamp","type":"uint48","internalType":"uint48"}]},{"name":"implAddresses","type":"tuple","internalType":"struct Gear.AddressBook","components":[{"name":"mirror","type":"address","internalType":"address"},{"name":"wrappedVara","type":"address","internalType":"address"},{"name":"middleware","type":"address","internalType":"address"}]},{"name":"validationSettings","type":"tuple","internalType":"struct Gear.ValidationSettingsView","components":[{"name":"thresholdNumerator","type":"uint128","internalType":"uint128"},{"name":"thresholdDenominator","type":"uint128","internalType":"uint128"},{"name":"validators0","type":"tuple","internalType":"struct Gear.ValidatorsView","components":[{"name":"aggregatedPublicKey","type":"tuple","internalType":"struct Gear.AggregatedPublicKey","components":[{"name":"x","type":"uint256","internalType":"uint256"},{"name":"y","type":"uint256","internalType":"uint256"}]},{"name":"verifiableSecretSharingCommitmentPointer","type":"address","internalType":"address"},{"name":"list","type":"address[]","internalType":"address[]"},{"name":"useFromTimestamp","type":"uint256","internalType":"uint256"}]},{"name":"validators1","type":"tuple","internalType":"struct Gear.ValidatorsView","components":[{"name":"aggregatedPublicKey","type":"tuple","internalType":"struct Gear.AggregatedPublicKey","components":[{"name":"x","type":"uint256","internalType":"uint256"},{"name":"y","type":"uint256","internalType":"uint256"}]},{"name":"verifiableSecretSharingCommitmentPointer","type":"address","internalType":"address"},{"name":"list","type":"address[]","internalType":"address[]"},{"name":"useFromTimestamp","type":"uint256","internalType":"uint256"}]}]},{"name":"computeSettings","type":"tuple","internalType":"struct Gear.ComputationSettings","components":[{"name":"threshold","type":"uint64","internalType":"uint64"},{"name":"wvaraPerSecond","type":"uint128","internalType":"uint128"}]},{"name":"timelines","type":"tuple","internalType":"struct Gear.Timelines","components":[{"name":"era","type":"uint256","internalType":"uint256"},{"name":"election","type":"uint256","internalType":"uint256"},{"name":"validationDelay","type":"uint256","internalType":"uint256"}]},{"name":"programsCount","type":"uint256","internalType":"uint256"},{"name":"validatedCodesCount","type":"uint256","internalType":"uint256"}]}],"stateMutability":"view"},{"type":"function","name":"timelines","inputs":[],"outputs":[{"name":"","type":"tuple","internalType":"struct Gear.Timelines","components":[{"name":"era","type":"uint256","internalType":"uint256"},{"name":"election","type":"uint256","internalType":"uint256"},{"name":"validationDelay","type":"uint256","internalType":"uint256"}]}],"stateMutability":"view"},{"type":"function","name":"transferOwnership","inputs":[{"name":"newOwner","type":"address","internalType":"address"}],"outputs":[],"stateMutability":"nonpayable"},{"type":"function","name":"unpause","inputs":[],"outputs":[],"stateMutability":"nonpayable"},{"type":"function","name":"upgradeToAndCall","inputs":[{"name":"newImplementation","type":"address","internalType":"address"},{"name":"data","type":"bytes","internalType":"bytes"}],"outputs":[],"stateMutability":"payable"},{"type":"function","name":"validatedCodesCount","inputs":[],"outputs":[{"name":"","type":"uint256","internalType":"uint256"}],"stateMutability":"view"},{"type":"function","name":"validators","inputs":[],"outputs":[{"name":"","type":"address[]","internalType":"address[]"}],"stateMutability":"view"},{"type":"function","name":"validatorsAggregatedPublicKey","inputs":[],"outputs":[{"name":"","type":"tuple","internalType":"struct Gear.AggregatedPublicKey","components":[{"name":"x","type":"uint256","internalType":"uint256"},{"name":"y","type":"uint256","internalType":"uint256"}]}],"stateMutability":"view"},{"type":"function","name":"validatorsCount","inputs":[],"outputs":[{"name":"","type":"uint256","internalType":"uint256"}],"stateMutability":"view"},{"type":"function","name":"validatorsThreshold","inputs":[],"outputs":[{"name":"","type":"uint256","internalType":"uint256"}],"stateMutability":"view"},{"type":"function","name":"validatorsVerifiableSecretSharingCommitment","inputs":[],"outputs":[{"name":"","type":"bytes","internalType":"bytes"}],"stateMutability":"view"},{"type":"function","name":"wrappedVara","inputs":[],"outputs":[{"name":"","type":"address","internalType":"address"}],"stateMutability":"view"},{"type":"event","name":"AnnouncesCommitted","inputs":[{"name":"head","type":"bytes32","indexed":false,"internalType":"bytes32"}],"anonymous":false},{"type":"event","name":"BatchCommitted","inputs":[{"name":"hash","type":"bytes32","indexed":false,"internalType":"bytes32"}],"anonymous":false},{"type":"event","name":"CodeGotValidated","inputs":[{"name":"codeId","type":"bytes32","indexed":false,"internalType":"bytes32"},{"name":"valid","type":"bool","indexed":true,"internalType":"bool"}],"anonymous":false},{"type":"event","name":"CodeValidationRequested","inputs":[{"name":"codeId","type":"bytes32","indexed":false,"internalType":"bytes32"}],"anonymous":false},{"type":"event","name":"ComputationSettingsChanged","inputs":[{"name":"threshold","type":"uint64","indexed":false,"internalType":"uint64"},{"name":"wvaraPerSecond","type":"uint128","indexed":false,"internalType":"uint128"}],"anonymous":false},{"type":"event","name":"Initialized","inputs":[{"name":"version","type":"uint64","indexed":false,"internalType":"uint64"}],"anonymous":false},{"type":"event","name":"OwnershipTransferred","inputs":[{"name":"previousOwner","type":"address","indexed":true,"internalType":"address"},{"name":"newOwner","type":"address","indexed":true,"internalType":"address"}],"anonymous":false},{"type":"event","name":"Paused","inputs":[{"name":"account","type":"address","indexed":false,"internalType":"address"}],"anonymous":false},{"type":"event","name":"ProgramCreated","inputs":[{"name":"actorId","type":"address","indexed":false,"internalType":"address"},{"name":"codeId","type":"bytes32","indexed":true,"internalType":"bytes32"}],"anonymous":false},{"type":"event","name":"StorageSlotChanged","inputs":[{"name":"slot","type":"bytes32","indexed":false,"internalType":"bytes32"}],"anonymous":false},{"type":"event","name":"Unpaused","inputs":[{"name":"account","type":"address","indexed":false,"internalType":"address"}],"anonymous":false},{"type":"event","name":"Upgraded","inputs":[{"name":"implementation","type":"address","indexed":true,"internalType":"address"}],"anonymous":false},{"type":"event","name":"ValidatorsCommittedForEra","inputs":[{"name":"eraIndex","type":"uint256","indexed":false,"internalType":"uint256"}],"anonymous":false},{"type":"error","name":"AddressEmptyCode","inputs":[{"name":"target","type":"address","internalType":"address"}]},{"type":"error","name":"ApproveERC20Failed","inputs":[]},{"type":"error","name":"BatchTimestampNotInPast","inputs":[]},{"type":"error","name":"BatchTimestampTooEarly","inputs":[]},{"type":"error","name":"BlobNotFound","inputs":[]},{"type":"error","name":"CodeAlreadyOnValidationOrValidated","inputs":[]},{"type":"error","name":"CodeNotValidated","inputs":[]},{"type":"error","name":"CodeValidationNotRequested","inputs":[]},{"type":"error","name":"CommitmentEraNotNext","inputs":[]},{"type":"error","name":"DeploymentFailed","inputs":[]},{"type":"error","name":"ECDSAInvalidSignature","inputs":[]},{"type":"error","name":"ECDSAInvalidSignatureLength","inputs":[{"name":"length","type":"uint256","internalType":"uint256"}]},{"type":"error","name":"ECDSAInvalidSignatureS","inputs":[{"name":"s","type":"bytes32","internalType":"bytes32"}]},{"type":"error","name":"ERC1967InvalidImplementation","inputs":[{"name":"implementation","type":"address","internalType":"address"}]},{"type":"error","name":"ERC1967NonPayable","inputs":[]},{"type":"error","name":"ElectionNotStarted","inputs":[]},{"type":"error","name":"EmptyValidatorsList","inputs":[]},{"type":"error","name":"EnforcedPause","inputs":[]},{"type":"error","name":"EraDurationTooShort","inputs":[]},{"type":"error","name":"ErasTimestampMustNotBeEqual","inputs":[]},{"type":"error","name":"ExpectedPause","inputs":[]},{"type":"error","name":"FailedCall","inputs":[]},{"type":"error","name":"GenesisHashAlreadySet","inputs":[]},{"type":"error","name":"GenesisHashNotFound","inputs":[]},{"type":"error","name":"InvalidElectionDuration","inputs":[]},{"type":"error","name":"InvalidFROSTAggregatedPublicKey","inputs":[]},{"type":"error","name":"InvalidFrostSignatureCount","inputs":[]},{"type":"error","name":"InvalidFrostSignatureLength","inputs":[]},{"type":"error","name":"InvalidInitialization","inputs":[]},{"type":"error","name":"InvalidPreviousCommittedBatchHash","inputs":[]},{"type":"error","name":"InvalidTimestamp","inputs":[]},{"type":"error","name":"NotInitializing","inputs":[]},{"type":"error","name":"OwnableInvalidOwner","inputs":[{"name":"owner","type":"address","internalType":"address"}]},{"type":"error","name":"OwnableUnauthorizedAccount","inputs":[{"name":"account","type":"address","internalType":"address"}]},{"type":"error","name":"PredecessorBlockNotFound","inputs":[]},{"type":"error","name":"ReentrancyGuardReentrantCall","inputs":[]},{"type":"error","name":"RewardsCommitmentEraNotPrevious","inputs":[]},{"type":"error","name":"RewardsCommitmentPredatesGenesis","inputs":[]},{"type":"error","name":"RewardsCommitmentTimestampNotInPast","inputs":[]},{"type":"error","name":"RouterGenesisHashNotInitialized","inputs":[]},{"type":"error","name":"SignatureVerificationFailed","inputs":[]},{"type":"error","name":"TimestampInFuture","inputs":[]},{"type":"error","name":"TimestampOlderThanPreviousEra","inputs":[]},{"type":"error","name":"TooManyChainCommitments","inputs":[]},{"type":"error","name":"TooManyRewardsCommitments","inputs":[]},{"type":"error","name":"TooManyValidatorsCommitments","inputs":[]},{"type":"error","name":"UUPSUnauthorizedCallContext","inputs":[]},{"type":"error","name":"UUPSUnsupportedProxiableUUID","inputs":[{"name":"slot","type":"bytes32","internalType":"bytes32"}]},{"type":"error","name":"UnknownProgram","inputs":[]},{"type":"error","name":"ValidationBeforeGenesis","inputs":[]},{"type":"error","name":"ValidationDelayTooBig","inputs":[]},{"type":"error","name":"ValidatorsAlreadyScheduled","inputs":[]},{"type":"error","name":"ValidatorsNotFoundForTimestamp","inputs":[]},{"type":"error","name":"ZeroValueTransfer","inputs":[]}],"bytecode":{"object":"0x60a080604052346100c257306080525f5160206145045f395f51905f525460ff8160401c166100b3576002600160401b03196001600160401b03821601610060575b60405161443d90816100c78239608051818181611b270152611bba0152f35b6001600160401b0319166001600160401b039081175f5160206145045f395f51905f525581527fc7f505b2f371ae2175ee4913f4499e1f2633a7b5936321eed1cdaeb6115181d290602090a15f80610041565b63f92ee8a960e01b5f5260045ffd5b5f80fdfe6080806040526004361015610089575b50361561001a575f80fd5b5f5160206143dd5f395f51905f525460018101541561007a576001600160801b0334161561006b57335f908152601a9190910160205260409020541561005c57005b63821a62f560e01b5f5260045ffd5b63a1a7c6eb60e01b5f5260045ffd5b63580683f360e01b5f5260045ffd5b5f905f3560e01c9081627a32e7146126d0575080630c18d277146121e2578063120e3f1e1461210357806328e24b3d146120d55780633683c4d214611eaa5780633bd109fa14611e5b5780633d43b41814611e075780633f4ba83a14611d8f5780634f1ef28614611b7b57806352d1902d14611b1457806353f7fd48146116955780635c975abb146116665780636c2eb35014611301578063715018a61461129857806371a8cf2d1461126a57806382bdeaad146111525780638456cb59146110d757806384d22a4f1461107957806388f50cf0146110405780638b1edf1e14610fd95780638da5cb5b14610fa45780638f381dbe14610f5e5780639067088e14610f1557806396a2ddfa14610ee75780639eb939a814610e90578063a5d53a4414610e3a578063ad3cb1cc14610df1578063b24fcac014610947578063baaf020114610846578063c13911e814610802578063c2eb812f146104d6578063ca1e781914610486578063cacf66ab1461044e578063d456fd5114610418578063e3a6684f146103d9578063e6fabc09146103a0578063ed612f8c14610368578063edc8722514610313578063f2fde38b146102e6578063f4f20ac0146102ad5763facd743b0361000f57346102aa5760203660031901126102aa5761026c612726565b60036102875f5160206143dd5f395f51905f52544290613eba565b019060018060a01b03165f52602052602060ff60405f2054166040519015158152f35b80fd5b50346102aa57806003193601126102aa575f5160206143dd5f395f51905f5254600701546040516001600160a01b039091168152602090f35b50346102aa5760203660031901126102aa57610310610303612726565b61030b612cfe565b612c58565b80f35b50346102aa57806003193601126102aa5760206103605f5160206143dd5f395f51905f5254600860046103464284613eba565b0154910154906001600160801b038260801c921690613e8f565b604051908152f35b50346102aa57806003193601126102aa57602060046103965f5160206143dd5f395f51905f52544290613eba565b0154604051908152f35b50346102aa57806003193601126102aa575f5160206143dd5f395f51905f5254600501546040516001600160a01b039091168152602090f35b50346102aa57806003193601126102aa57604060085f5160206143dd5f395f51905f525401548151906001600160801b038116825260801c6020820152f35b50346102aa57806003193601126102aa57602065ffffffffffff60045f5160206143dd5f395f51905f5254015416604051908152f35b50346102aa57806003193601126102aa57602065ffffffffffff60025f5160206143dd5f395f51905f52540154821c16604051908152f35b50346102aa57806003193601126102aa576104d26104be60046104b85f5160206143dd5f395f51905f52544290613eba565b01612a4d565b6040519182916020835260208301906128c2565b0390f35b50346102aa57806003193601126102aa576040516104f38161279a565b6104fb612b86565b81526040516105098161277f565b5f8152602081015f90526020820152610520612b86565b604082015261052d612c25565b606082015260405161053e8161277f565b5f80825260208201526080820152610554612b86565b60a08201528160c082015260e001525f5160206143dd5f395f51905f525461057a612c25565b506105876009820161414a565b90610594600f820161414a565b600882015492604051936105a7856127b6565b6001600160801b038116855260801c602085015260408401526060830152601b81015490601c810154604051926105dd8461279a565b6040516105e981612750565b60018401548152600284015463ffffffff8116602083015260201c65ffffffffffff1660408201528452604051946106208661277f565b60038401548652600484015465ffffffffffff166020870152602085019586526040519061064d82612750565b60058501546001600160a01b03908116835260068601548116602084015260078601541660408084019190915286019182526060860190815261069260158601612ad8565b94608087019586526016016106a690612ba4565b9160a0870192835260c0870193845260e087019485526040519788976020895251805160208a0152602081015163ffffffff1660408a01526040015165ffffffffffff16606089015251805160808901526020015165ffffffffffff1660a088015251600160a01b6001900381511660c0880152600160a01b6001900360208201511660e0880152600160a01b60019003906040015116610100870152516101208601610200905280516001600160801b031661022087015260208101516001600160801b031661024087015260408101516102608701608090526102a0870161078f916128fe565b90606001519061021f19878203016102808801526107ac916128fe565b935180516001600160401b0316610140870152602001516001600160801b031661016086015251805161018086015260208101516101a0860152604001516101c0850152516101e0840152516102008301520390f35b50346102aa5760203660031901126102aa5760ff604060209260195f5160206143dd5f395f51905f525401600435825284522054166108446040518092612891565bf35b50346102aa5760203660031901126102aa576004356001600160401b03811161094357610877903690600401612861565b905f5160206143dd5f395f51905f525490610891836129e2565b9161089f60405193846127d1565b8383526108ab846129e2565b602084019490601f1901368637601a869201915b81811061090a57868587604051928392602084019060208552518091526040840192915b8181106108f1575050500390f35b82518452859450602093840193909201916001016108e3565b8061092061091b6001938588612aa0565b612b06565b828060a01b03165f528360205260405f205461093c8288612ac4565b52016108bf565b5080fd5b50346102aa5760603660031901126102aa576001600160401b03600435116102aa57610100600435360360031901126102aa57600260243510156102aa576044356001600160401b038111610943576109a4903690600401612861565b7f9b779b17422d0df92223018b32b4d1fa46e071723d6817e2486d003becc55f005c610de25760017f9b779b17422d0df92223018b32b4d1fa46e071723d6817e2486d003becc55f005d5f5160206143dd5f395f51905f525490600182015415610dd357815415610d77575b60038201546044600435013503610d685765ffffffffffff60048301541665ffffffffffff610a43602460043501612bda565b1610610d5a57610a586004356004018361308e565b92610a6d60a460043501600435600401613543565b808096925060051b0460201485151715610d4657610a8d8560051b613f36565b8695865b818810610bfd5750610bc3965060051b902090610ab3600435600401866135a7565b610ac26004356004018761399a565b90610ad1602460043501612bda565b93610ae0606460043501612bcc565b9360405194602086019660043560040135885265ffffffffffff60d01b9060d01b16604087015260446004350135604687015260ff60f81b9060f81b1660668601526067850152608784015260a783015260c782015260c78152610b4560e7826127d1565b5190209283600382015565ffffffffffff610b64602460043501612bda565b1665ffffffffffff196004830154161760048201557f7ebe42360bcb182fe0a88148b081e4557c89d09aa6af8307635ac2f83e2aaa656020604051868152a165ffffffffffff610bb8602460043501612bda565b169360243591613c1d565b15610bee57807f9b779b17422d0df92223018b32b4d1fa46e071723d6817e2486d003becc55f005d80f35b63729d0f6b60e01b8152600490fd5b610c1160a460043501600435600401613543565b891015610d32578860061b8101358a526019880160205260ff60408b2054166003811015610d1e57600103610d0f57600191602091610cd48b8b8e868360061b86010192610c5e84613578565b15610cf05760061b85013590525060198c01855260408e20805460ff19166002179055601c8c018054610c9090612cf0565b90555b8c7f460119a8f69a33ed127de517d5ea464e958ce23ef19e4420a8b92bf780bbc2c986610cbf84613578565b1515926040519060061b8701358152a2613578565b908b60061b01358c52825360218b208186015201970196610a91565b60409260199160061b87013583520187522060ff198154169055610c93565b636e83084760e11b8a5260048afd5b634e487b7160e01b8b52602160045260248bfd5b634e487b7160e01b8a52603260045260248afd5b634e487b7160e01b86526011600452602486fd5b620725b160ea1b8452600484fd5b63164b6fc360e01b8452600484fd5b610d94610d88606460043501612bcc565b60043560040135612ff9565b15610dc45765ffffffffffff610dae602460043501612bda565b164211610a1057631ad8809560e31b8452600484fd5b637b8cb35960e01b8452600484fd5b63580683f360e01b8452600484fd5b633ee5aeb560e01b8352600483fd5b50346102aa57806003193601126102aa57506104d2604051610e146040826127d1565b60058152640352e302e360dc1b602082015260405191829160208352602083019061289e565b50346102aa57806003193601126102aa576104d2610e7c5f5160206143dd5f395f51905f52546002610e7460018060a01b03924290613eba565b015416612fca565b60405191829160208352602083019061289e565b50346102aa57806003193601126102aa57610ea9612b86565b506060610ec660165f5160206143dd5f395f51905f525401612ba4565b61084460405180926040809180518452602081015160208501520151910152565b50346102aa57806003193601126102aa576020601b5f5160206143dd5f395f51905f52540154604051908152f35b50346102aa5760203660031901126102aa57610f2f612726565b601a5f5160206143dd5f395f51905f5254019060018060a01b03165f52602052602060405f2054604051908152f35b50346102aa5760203660031901126102aa57600435906001600160401b0382116102aa576020610f9a610f943660048601612861565b90612b1a565b6040519015158152f35b50346102aa57806003193601126102aa575f51602061439d5f395f51905f52546040516001600160a01b039091168152602090f35b50346102aa57806003193601126102aa57610ff2612cc9565b5f5160206143dd5f395f51905f525460018101908154611031576002015463ffffffff1640908115611022575580f35b63f7bac7b560e01b8352600483fd5b6309476b0360e41b8352600483fd5b50346102aa57806003193601126102aa575f5160206143dd5f395f51905f5254600601546040516001600160a01b039091168152602090f35b50346102aa57806003193601126102aa57611092612945565b5060406110af60155f5160206143dd5f395f51905f525401612ad8565b610844825180926001600160801b03602080926001600160401b038151168552015116910152565b50346102aa57806003193601126102aa576110f0612cfe565b6110f8612cc9565b611100612cc9565b600160ff195f5160206143fd5f395f51905f525416175f5160206143fd5f395f51905f52557f62e78cea01bee320cd4e420270b5ea74000d11b0c9f74754ebdbfc544b05a2586020604051338152a180f35b50346102aa5760203660031901126102aa576004356001600160401b03811161094357611183903690600401612861565b905f5160206143dd5f395f51905f52549061119d836129e2565b916111ab60405193846127d1565b8383526111b7846129e2565b602084019490601f19013686376019869201915b81811061122057868587604051928392602084019060208552518091526040840192915b8181106111fd575050500390f35b91935091602080826112126001948851612891565b0194019101918493926111ef565b61122b818386612aa0565b3587528260205260ff6040882054166112448287612ac4565b600382101561125657526001016111cb565b634e487b7160e01b89526021600452602489fd5b50346102aa57806003193601126102aa57602060035f5160206143dd5f395f51905f52540154604051908152f35b50346102aa57806003193601126102aa576112b1612cfe565b5f51602061439d5f395f51905f5280546001600160a01b0319811690915581906001600160a01b03167f8be0079c531659141344cd1fd0a4f28419497f9722a3daafe3b4186f6b6457e08280a380f35b50346102aa57806003193601126102aa5761131a612cfe565b5f51602061441d5f395f51905f525460ff8160401c16908115611651575b50611642575f51602061441d5f395f51905f52805468ffffffffffffffffff1916680100000000000000021790555f51602061439d5f395f51905f5254611392906001600160a01b031661138a613ed6565b61030b613ed6565b7fc7f505b2f371ae2175ee4913f4499e1f2633a7b5936321eed1cdaeb6115181d260205f5160206143dd5f395f51905f525460409081516113d383826127d1565b601781528381017f726f757465722e73746f726167652e526f7574657256320000000000000000008152611405612cfe565b5f199151902001855260ff198386201690815f5160206143dd5f395f51905f52557f059eb9adf6e95b839d818142ed5bd5e498b6d95138e65c91525e93cc0f0339fc848451848152a1611456612d59565b80516001840155600283019063ffffffff868201511669ffffffffffff00000000868454930151881b169169ffffffffffffffffffff1916171790556005810160058301908082036115f4575b5050600881016001600160801b038154169060088401916001600160801b0319835416178255546001600160801b03825491811916911617905561152c6114ea4283613eba565b6115016001600160a01b036002610e744287613eba565b61151760046115104287613eba565b019261295d565b906115224293612a4d565b9160098701612da1565b6015810160158301908082036115a2575b5050601681016016830191818303611582575b5050505060ff60401b195f51602061441d5f395f51905f5254165f51602061441d5f395f51905f52555160028152a180f35b60189283925490556017810154601785015501549101555f808080611550565b806001600160401b03806001600160801b03935416166001600160401b031984541617835554851c16600160401b600160c01b03825491861b1690600160401b600160c01b0319161790555f8061153d565b5481546001600160a01b03199081166001600160a01b039283161790925560068381015490850180548416918316919091179055600780840154908501805490931691161790555f806114a3565b63f92ee8a960e01b8152600490fd5b600291506001600160401b031610155f611338565b50346102aa57806003193601126102aa57602060ff5f5160206143fd5f395f51905f5254166040519015158152f35b50346102aa576101603660031901126102aa576116b0612726565b6024356001600160a01b0381169190829003611b10576116ce6126fa565b916116d7612710565b9260c43591608435919060a43560403660e3190112611b0c5761012435946001600160401b038611611b085736602387011215611b08578560040135916001600160401b038311611b04573660248489010111611b0457610144356001600160401b038111611b005761174e903690600401612861565b9690945f51602061441d5f395f51905f5254996001600160401b0360ff8c60401c16159b1680159081611af8575b6001149081611aee575b159081611ae5575b50611ad6576117d0908b60016001600160401b03195f51602061441d5f395f51905f525416175f51602061441d5f395f51905f5255611aa6575b61138a613ed6565b6117d8613ed6565b6117e0613ed6565b4215611a97578215611a885782821115611a7957600a611800848461297b565b04841015611a6a5760409a8b918d835161181a85826127d1565b60178152602081017f726f757465722e73746f726167652e526f757465725631000000000000000000815261184d612cfe565b905190205f190190526020808f2060ff19165f5160206143dd5f395f51905f528190558451818152909a917f059eb9adf6e95b839d818142ed5bd5e498b6d95138e65c91525e93cc0f0339fc91a16118a3612d59565b805160018c015560028b0190602081015163ffffffff1686835492015160201b69ffffffffffff00000000169169ffffffffffffffffffff1916171790558351906118ed82612750565b8282526001600160a01b03908116602083018190529381169490910184905260058a018054919092166001600160a01b031991821617909155600689018054821690921790915560078801805490911690911790557003000000000000000000000000000000026008870155611961612945565b50895161196d8161277f565b639502f90081526509184e72a0006020909101526015860180546001600160c01b0319166d09184e72a000000000009502f900179055895183908b906119b281612750565b83815284602082015201526016860155601785015560188401558651946119d88661277f565b60e43586526101043560208701526119f491369160240161280d565b9042933690611a02926129f9565b9160090193611a1094612da1565b611a18575080f35b60207fc7f505b2f371ae2175ee4913f4499e1f2633a7b5936321eed1cdaeb6115181d29160ff60401b195f51602061441d5f395f51905f5254165f51602061441d5f395f51905f52555160018152a180f35b63145e348f60e01b8c5260048cfd5b6353b2bbed60e01b8c5260048cfd5b63f7ba6bdb60e01b8c5260048cfd5b63b7d0949760e01b8c5260048cfd5b600160401b60ff60401b195f51602061441d5f395f51905f525416175f51602061441d5f395f51905f52556117c8565b63f92ee8a960e01b8d5260048dfd5b9050155f61178e565b303b159150611786565b8c915061177c565b8a80fd5b8980fd5b8880fd5b8780fd5b8280fd5b50346102aa57806003193601126102aa577f00000000000000000000000000000000000000000000000000000000000000006001600160a01b03163003611b6c5760206040515f5160206143bd5f395f51905f528152f35b63703e46dd60e11b8152600490fd5b5060403660031901126102aa57611b90612726565b906024356001600160401b03811161094357611bb0903690600401612843565b6001600160a01b037f000000000000000000000000000000000000000000000000000000000000000016308114908115611d6d575b50611d5e57611bf2612cfe565b6040516352d1902d60e01b8152926001600160a01b0381169190602085600481865afa80958596611d26575b50611c3757634c9c8ce360e01b84526004839052602484fd5b9091845f5160206143bd5f395f51905f528103611d145750813b15611d02575f5160206143bd5f395f51905f5280546001600160a01b031916821790557fbc7cd75a20ee27fd9adebab32041f755214dbc6bffa90cc0225b39da2e5c2d3b8480a28151839015611ce85780836020611cdc95519101845af43d15611ce0573d91611cc0836127f2565b92611cce60405194856127d1565b83523d85602085013e6142bc565b5080f35b6060916142bc565b50505034611cf35780f35b63b398979f60e01b8152600490fd5b634c9c8ce360e01b8452600452602483fd5b632a87526960e21b8552600452602484fd5b9095506020813d602011611d56575b81611d42602093836127d1565b81010312611d525751945f611c1e565b5f80fd5b3d9150611d35565b63703e46dd60e11b8252600482fd5b5f5160206143bd5f395f51905f52546001600160a01b0316141590505f611be5565b50346102aa57806003193601126102aa57611da8612cfe565b611db0612d31565b611db8612d31565b60ff195f5160206143fd5f395f51905f5254165f5160206143fd5f395f51905f52557f5db9ee0a495bf2e6ff9c91a7834c1ba4fdd244a5e8aa4e537bd38aeae4b073aa6020604051338152a180f35b50346102aa5760203660031901126102aa57611e21612726565b611e29612cfe565b5f5160206143dd5f395f51905f525460050180546001600160a01b0319166001600160a01b0390921691909117905580f35b50346102aa57806003193601126102aa57611e74612945565b506040611e98611e935f5160206143dd5f395f51905f52544290613eba565b61295d565b60208251918051835201516020820152f35b50346102aa5760603660031901126102aa57600435611ec76126fa565b611ecf612cc9565b5f5160206143dd5f395f51905f5254600181015415610dd3578284526019810160205260ff60408520541660038110156120c1576002036120b2578284526024356020526040842060405160608101908082106001600160401b038311176120ae57605a916040527f3d605080600a3d3981f3608060405263e6fabc0960e01b5f5260205f6004817381523060601b6b5afa15604c575f80805136821760208201527f80378136915af43d5f803e156048573d5ff35b3d5ffd5b5f80fd000000000000604082015286f59081156120aa576001600160a01b0382165f908152601a820160205260409020849055601b018054611fca90612cf0565b90556040516001600160a01b03821680825293907f8008ec1d8798725ebfa0f2d128d52e8e717dcba6e0f786557eeee70614b02bf190602090a2506001600160a01b0381166120a55750335b5f5160206143dd5f395f51905f5254600501546001600160a01b0316823b156120a157604051631c9776b560e31b81526001600160a01b039092166004830152602482015260016044820152828160648183865af1801561209657612081575b602082604051908152f35b61208c8380926127d1565b6109435781612076565b6040513d85823e3d90fd5b8380fd5b612016565b8480fd5b8680fd5b630e2637d160e01b8452600484fd5b634e487b7160e01b85526021600452602485fd5b50346102aa57806003193601126102aa57602060015f5160206143dd5f395f51905f52540154604051908152f35b50346102aa5760203660031901126102aa57600435612120612cc9565b8149156121d3575f5160206143dd5f395f51905f52546001810154156121c4576019018183528060205260ff60408420541660038110156121b0576121a15781835260209081526040808420805460ff19166001179055519182527f5c261a095dd5720475295dc06379921c003c22164ee6cae5cf83e76ce0a1b98591a180f35b6304c51a3360e31b8352600483fd5b634e487b7160e01b84526021600452602484fd5b63580683f360e01b8352600483fd5b637bb2fa2f60e11b8252600482fd5b34611d52576080366003190112611d52576004356121fe6126fa565b90612207612710565b91612210612cc9565b5f5160206143dd5f395f51905f525460018101541561007a57825f526019810160205260ff60405f20541660038110156126bc576002036126ad57825f5260243560205260405f206040516102c08101908082106001600160401b03831117611d52576102b0916040527f60808060405261029e90816100128239f3fe608060405260043610610254575f81527f3560e01c806336a52a18146100ab57806342129d00146100a65780635ce6c32760208201527f146100a1578063701da98e1461009c578063704ed542146100975780637a8e0c60408201527fdd1461009257806391d5a64c1461008d5780639ce110d714610088578063affe60608201527fd0e0146100835763e43f3433036102545761023f565b610222565b6101fa565b60808201527f6101e4565b6101b1565b610181565b610165565b610143565b610106565b346160a08201527ed4575f3660031901126100d45760025460081c6001600160a01b031660809060c08201527f8152602090f35b5f80fd5b9181601f840112156100d45782359167ffffffffff60e08201527fffffff83116100d457602083818601950101116100d457565b604036600319016101008201527f126100d45760043567ffffffffffffffff81116100d4576101329036906004016101208201527f6100d8565b505060243580151514610254575f80fd5b346100d4575f366003196101408201527f01126100d457602060ff600254166040519015158152f35b346100d4575f36606101608201527f031901126100d45760205f54604051908152f35b346100d457602036600319016101808201527f126100d4576004356fffffffffffffffffffffffffffffffff811614610254576101a08201527f5f80fd5b60403660031901126100d45760243567ffffffffffffffff811161006101c08201527fd4576101dd9036906004016100d8565b5050610254565b346100d457602036606101e08201527f0319011215610254575f80fd5b346100d4575f3660031901126100d4576003546102008201527f6040516001600160a01b039091168152602090f35b346100d4575f36600319016102208201527f126100d4576020600154604051908152f35b346100d4575f36600319011215616102408201523060601c7f0254575f80fd5b63e6fabc0960e01b5f5260205f60048173000000000000000017610260820152735afa156100d4575f808051368280378136915af43060a01b176102808201526f3d5f803e1561029a573d5ff35b3d5ffd60801b6102a08201525ff5908115611d52576001600160a01b0382165f908152601a820160205260409020849055601b0180546125ec90612cf0565b90556040516001600160a01b03821680825293907f8008ec1d8798725ebfa0f2d128d52e8e717dcba6e0f786557eeee70614b02bf190602090a2506001600160a01b0381166126a7575033915b813b15611d5257604051631c9776b560e31b81526001600160a01b039384166004820152921660248301525f604483018190528260648183855af191821561269c5760209261268c575b50604051908152f35b5f612696916127d1565b5f612683565b6040513d5f823e3d90fd5b91612639565b630e2637d160e01b5f5260045ffd5b634e487b7160e01b5f52602160045260245ffd5b34611d52575f366003190112611d5257602090601c5f5160206143dd5f395f51905f525401548152f35b604435906001600160a01b0382168203611d5257565b606435906001600160a01b0382168203611d5257565b600435906001600160a01b0382168203611d5257565b35906001600160a01b0382168203611d5257565b606081019081106001600160401b0382111761276b57604052565b634e487b7160e01b5f52604160045260245ffd5b604081019081106001600160401b0382111761276b57604052565b61010081019081106001600160401b0382111761276b57604052565b608081019081106001600160401b0382111761276b57604052565b90601f801991011681019081106001600160401b0382111761276b57604052565b6001600160401b03811161276b57601f01601f191660200190565b929192612819826127f2565b9161282760405193846127d1565b829481845281830111611d52578281602093845f960137010152565b9080601f83011215611d525781602061285e9335910161280d565b90565b9181601f84011215611d52578235916001600160401b038311611d52576020808501948460051b010111611d5257565b9060038210156126bc5752565b805180835260209291819084018484015e5f828201840152601f01601f1916010190565b90602080835192838152019201905f5b8181106128df5750505090565b82516001600160a01b03168452602093840193909201916001016128d2565b9060208251805183520151602082015260018060a01b0360208301511660408201526080606061293c604085015160a08386015260a08501906128c2565b93015191015290565b604051906129528261277f565b5f6020838281520152565b9060405161296a8161277f565b602060018294805484520154910152565b9190820391821161298857565b634e487b7160e01b5f52601160045260245ffd5b81156129a6570490565b634e487b7160e01b5f52601260045260245ffd5b9190826040910312611d52576040516129d28161277f565b6020808294803584520135910152565b6001600160401b03811161276b5760051b60200190565b929190612a05816129e2565b93612a1360405195866127d1565b602085838152019160051b8101928311611d5257905b828210612a3557505050565b60208091612a428461273c565b815201910190612a29565b90604051918281549182825260208201905f5260205f20925f5b818110612a7e575050612a7c925003836127d1565b565b84546001600160a01b0316835260019485019487945060209093019201612a67565b9190811015612ab05760051b0190565b634e487b7160e01b5f52603260045260245ffd5b8051821015612ab05760209160051b010190565b90604051612ae58161277f565b91546001600160401b038116835260401c6001600160801b03166020830152565b356001600160a01b0381168103611d525790565b612b335f5160206143dd5f395f51905f52544290613eba565b600301905f5b838110612b495750505050600190565b612b5761091b828685612aa0565b6001600160a01b03165f9081526020849052604090205460ff1615612b7e57600101612b39565b505050505f90565b60405190612b9382612750565b5f6040838281528260208201520152565b90604051612bb181612750565b60406002829480548452600181015460208501520154910152565b3560ff81168103611d525790565b3565ffffffffffff81168103611d525790565b60405190612bfa826127b6565b5f606083604051612c0a8161277f565b83815283602082015281528260208201528160408201520152565b60405190612c32826127b6565b815f81525f6020820152612c44612bed565b60408201526060612c53612bed565b910152565b6001600160a01b03168015612cb6575f51602061439d5f395f51905f5280546001600160a01b0319811683179091556001600160a01b03167f8be0079c531659141344cd1fd0a4f28419497f9722a3daafe3b4186f6b6457e05f80a3565b631e4fbdf760e01b5f525f60045260245ffd5b60ff5f5160206143fd5f395f51905f525416612ce157565b63d93c066560e01b5f5260045ffd5b5f1981146129885760010190565b5f51602061439d5f395f51905f52546001600160a01b03163303612d1e57565b63118cdaa760e01b5f523360045260245ffd5b60ff5f5160206143fd5f395f51905f52541615612d4a57565b638dfc202b60e01b5f5260045ffd5b612d61612b86565b50604051612d6e81612750565b5f815263ffffffff4316602082015265ffffffffffff4216604082015290565b8181029291811591840414171561298857565b9291908051906020810191825170014551231950b75fc4402da1732fc9bebe1982109182612fb9575b505015612faa5751845551600184015560405190612e0d6021836020808201945f86528051918291018484015e81015f838201520301601f1981018452836127d1565b612e4a602b604051809360208201956a600b5981380380925939f360a81b87525180918484015e81015f838201520301601f1981018352826127d1565b51905ff06001600160a01b03811615612f9b576002830180546001600160a01b0319166001600160a01b039092169190911790555f5b600483018054821015612ebe575f90815260208082208301546001600160a01b0316825260038501905260409020805460ff19169055600101612e80565b5050925f5b8451811015612f07576001906001600160a01b03612ee18288612ac4565b5116828060a01b03165f526003840160205260405f208260ff1982541617905501612ec3565b5092600482018151916001600160401b03831161276b57600160401b831161276b578154838355808410612f71575b50602001905f5260205f205f5b838110612f54575050505060050155565b82516001600160a01b031681830155602090920191600101612f43565b825f52838060205f20019103905f5b828110612f8e575050612f36565b5f82820155600101612f80565b633011642560e01b5f5260045ffd5b63375f0aab60e11b5f5260045ffd5b612fc39250614299565b5f80612dca565b803b905f198201908282116129885760019060405193603e601f19910116840160405282845260208401903c90565b435f19810193929084116129885760ff1643811061304957505f925b83811015613025575b505f925050565b80408281036130375750600193505050565b15613044575f1901613015565b61301e565b613053904361297b565b92613015565b903590601e1981360301821215611d5257018035906001600160401b038211611d5257602001918160051b36038313611d5257565b9060808101600161309f8284613059565b905011613534576130b08183613059565b90501561350d576130c091613059565b15612ab057803590603e1981360301821215611d525701916130e28380613059565b9190928260051b93838504602014841517156129885761310485969495613f36565b925f945f97601a60fe19853603019501965b888a10156134c5578960051b85013586811215611d5257850161313881612b06565b6001600160a01b03165f90815260208a905260409020541561005c575f608082016001600160801b0361316a82613f01565b161515806134b2575b6134a1575b6001600160a01b0361318984612b06565b604051630427a21d60e11b81526020600482015294911691610124850191906001600160801b0390613208906001600160a01b036131c68561273c565b166024890152602084013560448901526131e260408501613f15565b151560648901526001600160a01b036131fd6060860161273c565b166084890152613f22565b1660a486015261321a60a08201613f15565b151560c486015236819003601e190160c082013581811215611d52578201602081359101936001600160401b038211611d52576060820236038513611d5257819061010060e48a015252610144870193905f905b8082106134575750505060e082013590811215611d525701803560208201926001600160401b038211611d52578160051b908136038513611d525791879594936023198785030161010488015281845260208085019385010194935f9160fe19813603015b84841061334a5750505050505050602093916001600160801b03848093039316905af190811561269c575f91613318575b50816020916001938a015201990198613116565b90506020813d8211613342575b81613332602093836127d1565b81010312611d5257516001613304565b3d9150613325565b919395979850919395601f19848203018752873582811215611d52578301602081013582526001600160a01b036133836040830161273c565b1660208301526060810135603e193683900301811215611d52578101602081013591906040016001600160401b038311611d52578236038113611d5257829060e060408601528160e08601526101008501375f61010083850101526001600160801b036133f260808301613f22565b16606084015260a0810135608084015260c081013563ffffffff60e01b8116809103611d52578360209361343460e086956101009560a060019a015201613f15565b151560c0830152601f80199101160101990197019401918a9897969593916132d3565b90919460608060019288358152838060a01b0361347660208b0161273c565b1660208201526001600160801b0361349060408b01613f22565b16604082015201960192019061326e565b90506134ac81613f01565b90613178565b506134bf60a08401613578565b15613173565b5094935095509550506020925020910135907fd04cd9af813f6f0b56e9411a6ee6a84eb5ac35a96f0c33d2e3a07d65baa8f4186020604051848152a15f5260205260405f2090565b5050507fc5d2460186f7233c927e7db2dcc703c0e500b653ca82273b7bfad8045d85a47090565b6306d6c38360e01b5f5260045ffd5b903590601e1981360301821215611d5257018035906001600160401b038211611d5257602001918160061b36038313611d5257565b358015158103611d525790565b903590605e1981360301821215611d52570190565b9190820180921161298857565b60c0820160016135b78285613059565b905011613959576135c88184613059565b90501561350d576135d99083613059565b15612ab057803590607e1981360301821215611d525701916060830190602061360183612bda565b91019065ffffffffffff8061361584612bda565b169116101561394a5761362782612bda565b65ffffffffffff80600286015460201c1691161061393b5761366d65ffffffffffff6136666136608261365987612bda565b1687613f5b565b93612bda565b1684613f5b565b111561392c576007820154600690920180548435946001600160a01b0394851694604082019391925f916020911660446136b3836136ab8989613585565b01358b61359a565b604051948593849263095ea7b360e01b84528c600485015260248401525af190811561269c575f916138f1575b50156138e2575460405163394f179b60e11b81526001600160a01b03909116600482015260248101959095526020818101356044870152856064815f885af194851561269c575f956138aa575b509061373891613585565b9161374282612bda565b9260405193637fbe95b560e01b85526040600486015260a48501918035601e1982360301811215611d52578101602081359101936001600160401b038211611d52578160061b36038513611d525760606044890152819052869360c485019392915f5b81811061387257505050836020959365ffffffffffff829484895f96013560648601526137db604060018060a01b03920161273c565b16608485015216602483015203925af191821561269c575f9261383c575b5061380390612bda565b6040519160208301938452604083015265ffffffffffff60d01b9060d01b166060820152604681526138366066826127d1565b51902090565b9091506020813d60201161386a575b81613858602093836127d1565b81010312611d525751906138036137f9565b3d915061384b565b919550919293604080600192838060a01b0361388d8a61273c565b1681526020890135602082015201960191019188959493926137a5565b919094506020823d6020116138da575b816138c7602093836127d1565b81010312611d525790519361373861372d565b3d91506138ba565b6367b9145160e01b5f5260045ffd5b90506020813d602011613924575b8161390c602093836127d1565b81010312611d5257518015158103611d52575f6136e0565b3d91506138ff565b6308027f7760e31b5f5260045ffd5b637bde91e760e11b5f5260045ffd5b63087a19ab60e41b5f5260045ffd5b633249ceed60e11b5f5260045ffd5b903590601e1981360301821215611d5257018035906001600160401b038211611d5257602001918136038313611d5257565b9060e0810160016139ab8284613059565b905011613c0e576139bc8183613059565b90501561350d576139cc91613059565b15612ab057803590609e1981360301821215611d52570160608101906139f28282613059565b905015613bff5765ffffffffffff600284015460201c1691613a14834261297b565b613a236016860154809261299c565b9360808401359460018101809111612988578503613bf057613a4885613a4e93612d8e565b9061359a565b93613a5d60178201548661297b565b4210613be157613a6c90613f83565b934260058601541015613bd257613ac1906040840195613ab3613abb613a928988613968565b9190613a9e888a613059565b949091613aab368c6129ba565b94369161280d565b9336916129f9565b92612da1565b7fa1a3b42179ad30022438a1ea333b38eaf4a7329beee5e2b8111c0dcd4e08821c6020604051858152a160a082360312611d525760405193613b02856127b6565b613b0c36846129ba565b8552356001600160401b038111611d5257613b2a9036908401612843565b602085015235906001600160401b038211611d52570136601f82011215611d5257613b5c9036906020813591016129f9565b91826040820152816060820152519160208351930151906040519283926020840195865260408401526060830160208351919301905f5b818110613bb05750505081520380825261383690602001826127d1565b82516001600160a01b0316855286955060209485019490920191600101613b93565b6333fc8f5160e21b5f5260045ffd5b6372a84ce560e11b5f5260045ffd5b6343d3f5bf60e01b5f5260045ffd5b636c2bf3db60e01b5f5260045ffd5b631d3fc6bf60e21b5f5260045ffd5b909493919365ffffffffffff600283015460201c16613c3c4284613f5b565b613c54613c4e60168601548093612d8e565b8361359a565b918284108080613e79575b15613e4757508310613e3957613c75908361359a565b10613e2a57613c85905b82613eba565b94601960f81b5f523060601b60025260165260365f209360028110156126bc5780613d1657505060018103613d075715612ab057613cc681613ccd92613968565b369161280d565b916060835103613cf85782602061285e94015160606040830151920151926001815491015490613f9e565b632ce466bf60e01b5f5260045ffd5b6360a1ea7760e01b5f5260045ffd5b919391600114613d295750505050505f90565b613d4e90600860048796970154910154906001600160801b038260801c921690613e8f565b925f9260035f9201915b86811015613e1f57613d87613d7e613d78613cc68460051b860186613968565b866141ff565b90929192614239565b6001600160a01b0381165f9081526020859052604090205460ff16613db2575b506001905b01613d58565b6001600160a01b03165f9081527ff02b465737fa6045c2ff53fb2df43c66916ac2166fa303264668fb2f6a1d8c0060205260409020805c15613df75750600190613dac565b946001613e0592965d612cf0565b93858514613e13575f613da7565b50505050505050600190565b505050505050505f90565b63046bb1e560e51b5f5260045ffd5b62f4462b60e01b5f5260045ffd5b9392915050428211613e6a57613c8592613e62575b50613c7f565b90505f613e5c565b6347860b9760e01b5f5260045ffd5b50613e8860188701548561359a565b4210613c5f565b6001600160801b03809216029116613ea7818361299c565b9181156129a657061561285e5760010190565b90613ec5908261419f565b15613ed057600f0190565b60090190565b60ff5f51602061441d5f395f51905f525460401c1615613ef257565b631afcd79f60e31b5f5260045ffd5b356001600160801b0381168103611d525790565b35908115158203611d5257565b35906001600160801b0382168203611d5257565b6040519190601f01601f191682016001600160401b03811183821017611d5257604052565b6016613f7a61285e9365ffffffffffff600285015460201c169061297b565b9101549061299c565b613f8d428261419f565b15613f985760090190565b600f0190565b9293919490613fad8587614299565b156141405782156141405770014551231950b75fc4402da1732fc9bebe19831015614140576001169061010e613fe281613f36565b9160883684376002600188160160888401538760898401526002840160a984015360aa830186905260ca8301527e300046524f53542d736563703235366b312d4b454343414b3235362d76316360ea8301526303430b6160e51b61010a830152812060cc820181815290600260ec84016001815360428420809318845253604270014551231950b75fc4402da1732fc9bebe19922060801c6001600160401b0360801b8260801b16179070014551231950b75fc4402da1732fc9bebe1990600160c01b9060401c09088015613e1f5784601b6080945f9660209870014551231950b75fc4402da1732fc9bebe19910970014551231950b75fc4402da1732fc9bebe19038552018684015280604084015270014551231950b75fc4402da1732fc9bebe19910970014551231950b75fc4402da1732fc9bebe1903606082015282805260015afa505f51915f5260205260018060a01b0360405f20161490565b5050505050505f90565b614152612bed565b5060028101546005820154604051929091614192916004916001600160a01b031661417c866127b6565b6141858261295d565b8652602086015201612a4d565b6040830152606082015290565b906014600e8301549201548083146141f0578181841093119182159111159181906141e9575b156141da57826141d457505090565b14919050565b634c38ae9560e11b5f5260045ffd5b50816141c5565b63f26224af60e01b5f5260045ffd5b815191906041830361422f576142289250602082015190606060408401519301515f1a9061431a565b9192909190565b50505f9160029190565b60048110156126bc578061424b575050565b600181036142625763f645eedf60e01b5f5260045ffd5b6002810361427d575063fce698f760e01b5f5260045260245ffd5b6003146142875750565b6335e2f38360e21b5f5260045260245ffd5b6401000003d01990600790829081818009900908906401000003d0199080091490565b906142e057508051156142d157602081519101fd5b63d6bda27560e01b5f5260045ffd5b81511580614311575b6142f1575090565b639996b31560e01b5f9081526001600160a01b0391909116600452602490fd5b50803b156142e9565b91907f7fffffffffffffffffffffffffffffff5d576e7357a4501ddfe92f46681b20a08411614391579160209360809260ff5f9560405194855216868401526040830152606082015282805260015afa1561269c575f516001600160a01b0381161561438757905f905f90565b505f906001905f90565b5050505f916003919056fe9016d09d72d40fdae2fd8ceac6b6234c7706214fd39c1cd1e609a0528c199300360894a13ba1a3210667c828492db98dca3e2076cc3735a920a3ca505d382bbc5c09ca1b9b8127a4fd9f3c384aac59b661441e820e17733753ff5f2e86e1e000cd5ed15c6e187e77e9aee88184c21f4f2182ab5827cb3b7e07fbedcd63f03300f0c57e16840df040f15088dc2f81fe391c3923bec73e23a9662efc9c229c6a00f0c57e16840df040f15088dc2f81fe391c3923bec73e23a9662efc9c229c6a00","linkReferences":{}},"methodIdentifiers":{"UPGRADE_INTERFACE_VERSION()":"ad3cb1cc","areValidators(address[])":"8f381dbe","codeState(bytes32)":"c13911e8","codesStates(bytes32[])":"82bdeaad","commitBatch((bytes32,uint48,bytes32,uint8,((address,bytes32,bool,address,uint128,bool,(bytes32,address,uint128)[],(bytes32,address,bytes,uint128,(bytes32,bytes4),bool)[])[],bytes32)[],(bytes32,bool)[],((uint256,bytes32),((address,uint256)[],uint256,address),uint48)[],((uint256,uint256),bytes,address[],uint256)[]),uint8,bytes[])":"b24fcac0","computeSettings()":"84d22a4f","createProgram(bytes32,bytes32,address)":"3683c4d2","createProgramWithAbiInterface(bytes32,bytes32,address,address)":"0c18d277","genesisBlockHash()":"28e24b3d","genesisTimestamp()":"cacf66ab","initialize(address,address,address,address,uint256,uint256,uint256,(uint256,uint256),bytes,address[])":"53f7fd48","isValidator(address)":"facd743b","latestCommittedBatchHash()":"71a8cf2d","latestCommittedBatchTimestamp()":"d456fd51","lookupGenesisHash()":"8b1edf1e","middleware()":"f4f20ac0","mirrorImpl()":"e6fabc09","owner()":"8da5cb5b","pause()":"8456cb59","paused()":"5c975abb","programCodeId(address)":"9067088e","programsCodeIds(address[])":"baaf0201","programsCount()":"96a2ddfa","proxiableUUID()":"52d1902d","reinitialize()":"6c2eb350","renounceOwnership()":"715018a6","requestCodeValidation(bytes32)":"120e3f1e","setMirror(address)":"3d43b418","signingThresholdFraction()":"e3a6684f","storageView()":"c2eb812f","timelines()":"9eb939a8","transferOwnership(address)":"f2fde38b","unpause()":"3f4ba83a","upgradeToAndCall(address,bytes)":"4f1ef286","validatedCodesCount()":"007a32e7","validators()":"ca1e7819","validatorsAggregatedPublicKey()":"3bd109fa","validatorsCount()":"ed612f8c","validatorsThreshold()":"edc87225","validatorsVerifiableSecretSharingCommitment()":"a5d53a44","wrappedVara()":"88f50cf0"},"storageLayout":{"storage":[],"types":{}},"id":163}