{"abi":[{"type":"constructor","inputs":[],"stateMutability":"nonpayable"},{"type":"receive","stateMutability":"payable"},{"type":"function","name":"DOMAIN_SEPARATOR","inputs":[],"outputs":[{"name":"","type":"bytes32","internalType":"bytes32"}],"stateMutability":"view"},{"type":"function","name":"UPGRADE_INTERFACE_VERSION","inputs":[],"outputs":[{"name":"","type":"string","internalType":"string"}],"stateMutability":"view"},{"type":"function","name":"areValidators","inputs":[{"name":"_validators","type":"address[]","internalType":"address[]"}],"outputs":[{"name":"","type":"bool","internalType":"bool"}],"stateMutability":"view"},{"type":"function","name":"codeState","inputs":[{"name":"_codeId","type":"bytes32","internalType":"bytes32"}],"outputs":[{"name":"","type":"uint8","internalType":"enum Gear.CodeState"}],"stateMutability":"view"},{"type":"function","name":"codesStates","inputs":[{"name":"_codesIds","type":"bytes32[]","internalType":"bytes32[]"}],"outputs":[{"name":"","type":"uint8[]","internalType":"enum Gear.CodeState[]"}],"stateMutability":"view"},{"type":"function","name":"commitBatch","inputs":[{"name":"_batch","type":"tuple","internalType":"struct Gear.BatchCommitment","components":[{"name":"blockHash","type":"bytes32","internalType":"bytes32"},{"name":"blockTimestamp","type":"uint48","internalType":"uint48"},{"name":"previousCommittedBatchHash","type":"bytes32","internalType":"bytes32"},{"name":"expiry","type":"uint8","internalType":"uint8"},{"name":"chainCommitment","type":"tuple[]","internalType":"struct Gear.ChainCommitment[]","components":[{"name":"transitions","type":"tuple[]","internalType":"struct Gear.StateTransition[]","components":[{"name":"actorId","type":"address","internalType":"address"},{"name":"newStateHash","type":"bytes32","internalType":"bytes32"},{"name":"exited","type":"bool","internalType":"bool"},{"name":"inheritor","type":"address","internalType":"address"},{"name":"valueToReceive","type":"uint128","internalType":"uint128"},{"name":"valueToReceiveNegativeSign","type":"bool","internalType":"bool"},{"name":"valueClaims","type":"tuple[]","internalType":"struct Gear.ValueClaim[]","components":[{"name":"messageId","type":"bytes32","internalType":"bytes32"},{"name":"destination","type":"address","internalType":"address"},{"name":"value","type":"uint128","internalType":"uint128"}]},{"name":"messages","type":"tuple[]","internalType":"struct Gear.Message[]","components":[{"name":"id","type":"bytes32","internalType":"bytes32"},{"name":"destination","type":"address","internalType":"address"},{"name":"payload","type":"bytes","internalType":"bytes"},{"name":"value","type":"uint128","internalType":"uint128"},{"name":"replyDetails","type":"tuple","internalType":"struct Gear.ReplyDetails","components":[{"name":"to","type":"bytes32","internalType":"bytes32"},{"name":"code","type":"bytes4","internalType":"bytes4"}]},{"name":"call","type":"bool","internalType":"bool"}]}]},{"name":"head","type":"bytes32","internalType":"bytes32"}]},{"name":"codeCommitments","type":"tuple[]","internalType":"struct Gear.CodeCommitment[]","components":[{"name":"id","type":"bytes32","internalType":"bytes32"},{"name":"valid","type":"bool","internalType":"bool"}]},{"name":"rewardsCommitment","type":"tuple[]","internalType":"struct Gear.RewardsCommitment[]","components":[{"name":"operators","type":"tuple","internalType":"struct Gear.OperatorRewardsCommitment","components":[{"name":"amount","type":"uint256","internalType":"uint256"},{"name":"root","type":"bytes32","internalType":"bytes32"}]},{"name":"stakers","type":"tuple","internalType":"struct Gear.StakerRewardsCommitment","components":[{"name":"distribution","type":"tuple[]","internalType":"struct Gear.StakerRewards[]","components":[{"name":"vault","type":"address","internalType":"address"},{"name":"amount","type":"uint256","internalType":"uint256"}]},{"name":"totalAmount","type":"uint256","internalType":"uint256"},{"name":"token","type":"address","internalType":"address"}]},{"name":"timestamp","type":"uint48","internalType":"uint48"}]},{"name":"validatorsCommitment","type":"tuple[]","internalType":"struct Gear.ValidatorsCommitment[]","components":[{"name":"aggregatedPublicKey","type":"tuple","internalType":"struct Gear.AggregatedPublicKey","components":[{"name":"x","type":"uint256","internalType":"uint256"},{"name":"y","type":"uint256","internalType":"uint256"}]},{"name":"verifiableSecretSharingCommitment","type":"bytes","internalType":"bytes"},{"name":"validators","type":"address[]","internalType":"address[]"},{"name":"eraIndex","type":"uint256","internalType":"uint256"}]}]},{"name":"_signatureType","type":"uint8","internalType":"enum Gear.SignatureType"},{"name":"_signatures","type":"bytes[]","internalType":"bytes[]"}],"outputs":[],"stateMutability":"nonpayable"},{"type":"function","name":"computeSettings","inputs":[],"outputs":[{"name":"","type":"tuple","internalType":"struct Gear.ComputationSettings","components":[{"name":"threshold","type":"uint64","internalType":"uint64"},{"name":"wvaraPerSecond","type":"uint128","internalType":"uint128"}]}],"stateMutability":"view"},{"type":"function","name":"createProgram","inputs":[{"name":"_codeId","type":"bytes32","internalType":"bytes32"},{"name":"_salt","type":"bytes32","internalType":"bytes32"},{"name":"_overrideInitializer","type":"address","internalType":"address"}],"outputs":[{"name":"","type":"address","internalType":"address"}],"stateMutability":"nonpayable"},{"type":"function","name":"createProgramWithAbiInterface","inputs":[{"name":"_codeId","type":"bytes32","internalType":"bytes32"},{"name":"_salt","type":"bytes32","internalType":"bytes32"},{"name":"_overrideInitializer","type":"address","internalType":"address"},{"name":"_abiInterface","type":"address","internalType":"address"}],"outputs":[{"name":"","type":"address","internalType":"address"}],"stateMutability":"nonpayable"},{"type":"function","name":"createProgramWithAbiInterfaceAndValue","inputs":[{"name":"_codeId","type":"bytes32","internalType":"bytes32"},{"name":"_salt","type":"bytes32","internalType":"bytes32"},{"name":"_overrideInitializer","type":"address","internalType":"address"},{"name":"_abiInterface","type":"address","internalType":"address"},{"name":"_value","type":"uint128","internalType":"uint128"},{"name":"_deadline","type":"uint256","internalType":"uint256"},{"name":"_v","type":"uint8","internalType":"uint8"},{"name":"_r","type":"bytes32","internalType":"bytes32"},{"name":"_s","type":"bytes32","internalType":"bytes32"}],"outputs":[{"name":"","type":"address","internalType":"address"}],"stateMutability":"nonpayable"},{"type":"function","name":"createProgramWithValue","inputs":[{"name":"_codeId","type":"bytes32","internalType":"bytes32"},{"name":"_salt","type":"bytes32","internalType":"bytes32"},{"name":"_overrideInitializer","type":"address","internalType":"address"},{"name":"_value","type":"uint128","internalType":"uint128"},{"name":"_deadline","type":"uint256","internalType":"uint256"},{"name":"_v","type":"uint8","internalType":"uint8"},{"name":"_r","type":"bytes32","internalType":"bytes32"},{"name":"_s","type":"bytes32","internalType":"bytes32"}],"outputs":[{"name":"","type":"address","internalType":"address"}],"stateMutability":"nonpayable"},{"type":"function","name":"eip712Domain","inputs":[],"outputs":[{"name":"fields","type":"bytes1","internalType":"bytes1"},{"name":"name","type":"string","internalType":"string"},{"name":"version","type":"string","internalType":"string"},{"name":"chainId","type":"uint256","internalType":"uint256"},{"name":"verifyingContract","type":"address","internalType":"address"},{"name":"salt","type":"bytes32","internalType":"bytes32"},{"name":"extensions","type":"uint256[]","internalType":"uint256[]"}],"stateMutability":"view"},{"type":"function","name":"genesisBlockHash","inputs":[],"outputs":[{"name":"","type":"bytes32","internalType":"bytes32"}],"stateMutability":"view"},{"type":"function","name":"genesisTimestamp","inputs":[],"outputs":[{"name":"","type":"uint48","internalType":"uint48"}],"stateMutability":"view"},{"type":"function","name":"initialize","inputs":[{"name":"_owner","type":"address","internalType":"address"},{"name":"_mirror","type":"address","internalType":"address"},{"name":"_wrappedVara","type":"address","internalType":"address"},{"name":"_middleware","type":"address","internalType":"address"},{"name":"_eraDuration","type":"uint256","internalType":"uint256"},{"name":"_electionDuration","type":"uint256","internalType":"uint256"},{"name":"_validationDelay","type":"uint256","internalType":"uint256"},{"name":"_aggregatedPublicKey","type":"tuple","internalType":"struct Gear.AggregatedPublicKey","components":[{"name":"x","type":"uint256","internalType":"uint256"},{"name":"y","type":"uint256","internalType":"uint256"}]},{"name":"_verifiableSecretSharingCommitment","type":"bytes","internalType":"bytes"},{"name":"_validators","type":"address[]","internalType":"address[]"}],"outputs":[],"stateMutability":"nonpayable"},{"type":"function","name":"isValidator","inputs":[{"name":"_validator","type":"address","internalType":"address"}],"outputs":[{"name":"","type":"bool","internalType":"bool"}],"stateMutability":"view"},{"type":"function","name":"latestCommittedBatchHash","inputs":[],"outputs":[{"name":"","type":"bytes32","internalType":"bytes32"}],"stateMutability":"view"},{"type":"function","name":"latestCommittedBatchTimestamp","inputs":[],"outputs":[{"name":"","type":"uint48","internalType":"uint48"}],"stateMutability":"view"},{"type":"function","name":"lookupGenesisHash","inputs":[],"outputs":[],"stateMutability":"nonpayable"},{"type":"function","name":"middleware","inputs":[],"outputs":[{"name":"","type":"address","internalType":"address"}],"stateMutability":"view"},{"type":"function","name":"mirrorImpl","inputs":[],"outputs":[{"name":"","type":"address","internalType":"address"}],"stateMutability":"view"},{"type":"function","name":"owner","inputs":[],"outputs":[{"name":"","type":"address","internalType":"address"}],"stateMutability":"view"},{"type":"function","name":"pause","inputs":[],"outputs":[],"stateMutability":"nonpayable"},{"type":"function","name":"paused","inputs":[],"outputs":[{"name":"","type":"bool","internalType":"bool"}],"stateMutability":"view"},{"type":"function","name":"programCodeId","inputs":[{"name":"_programId","type":"address","internalType":"address"}],"outputs":[{"name":"","type":"bytes32","internalType":"bytes32"}],"stateMutability":"view"},{"type":"function","name":"programsCodeIds","inputs":[{"name":"_programsIds","type":"address[]","internalType":"address[]"}],"outputs":[{"name":"","type":"bytes32[]","internalType":"bytes32[]"}],"stateMutability":"view"},{"type":"function","name":"programsCount","inputs":[],"outputs":[{"name":"","type":"uint256","internalType":"uint256"}],"stateMutability":"view"},{"type":"function","name":"proxiableUUID","inputs":[],"outputs":[{"name":"","type":"bytes32","internalType":"bytes32"}],"stateMutability":"view"},{"type":"function","name":"reinitialize","inputs":[],"outputs":[],"stateMutability":"nonpayable"},{"type":"function","name":"renounceOwnership","inputs":[],"outputs":[],"stateMutability":"nonpayable"},{"type":"function","name":"requestCodeValidation","inputs":[{"name":"_codeId","type":"bytes32","internalType":"bytes32"},{"name":"_deadline","type":"uint256","internalType":"uint256"},{"name":"_v","type":"uint8","internalType":"uint8"},{"name":"_r","type":"bytes32","internalType":"bytes32"},{"name":"_s","type":"bytes32","internalType":"bytes32"}],"outputs":[],"stateMutability":"nonpayable"},{"type":"function","name":"requestCodeValidationBaseFee","inputs":[],"outputs":[{"name":"","type":"uint256","internalType":"uint256"}],"stateMutability":"view"},{"type":"function","name":"requestCodeValidationExtraFee","inputs":[],"outputs":[{"name":"","type":"uint256","internalType":"uint256"}],"stateMutability":"view"},{"type":"function","name":"requestCodeValidationOnBehalf","inputs":[{"name":"_requester","type":"address","internalType":"address"},{"name":"_codeId","type":"bytes32","internalType":"bytes32"},{"name":"_blobHashes","type":"bytes32[]","internalType":"bytes32[]"},{"name":"_deadline","type":"uint256","internalType":"uint256"},{"name":"_v1","type":"uint8","internalType":"uint8"},{"name":"_r1","type":"bytes32","internalType":"bytes32"},{"name":"_s1","type":"bytes32","internalType":"bytes32"},{"name":"_v2","type":"uint8","internalType":"uint8"},{"name":"_r2","type":"bytes32","internalType":"bytes32"},{"name":"_s2","type":"bytes32","internalType":"bytes32"}],"outputs":[],"stateMutability":"nonpayable"},{"type":"function","name":"setMirror","inputs":[{"name":"newMirror","type":"address","internalType":"address"}],"outputs":[],"stateMutability":"nonpayable"},{"type":"function","name":"signingThresholdFraction","inputs":[],"outputs":[{"name":"thresholdNumerator","type":"uint128","internalType":"uint128"},{"name":"thresholdDenominator","type":"uint128","internalType":"uint128"}],"stateMutability":"view"},{"type":"function","name":"storageView","inputs":[],"outputs":[{"name":"","type":"tuple","internalType":"struct IRouter.StorageView","components":[{"name":"genesisBlock","type":"tuple","internalType":"struct Gear.GenesisBlockInfo","components":[{"name":"hash","type":"bytes32","internalType":"bytes32"},{"name":"number","type":"uint32","internalType":"uint32"},{"name":"timestamp","type":"uint48","internalType":"uint48"}]},{"name":"latestCommittedBatch","type":"tuple","internalType":"struct Gear.CommittedBatchInfo","components":[{"name":"hash","type":"bytes32","internalType":"bytes32"},{"name":"timestamp","type":"uint48","internalType":"uint48"}]},{"name":"implAddresses","type":"tuple","internalType":"struct Gear.AddressBook","components":[{"name":"mirror","type":"address","internalType":"address"},{"name":"wrappedVara","type":"address","internalType":"address"},{"name":"middleware","type":"address","internalType":"address"}]},{"name":"validationSettings","type":"tuple","internalType":"struct Gear.ValidationSettingsView","components":[{"name":"thresholdNumerator","type":"uint128","internalType":"uint128"},{"name":"thresholdDenominator","type":"uint128","internalType":"uint128"},{"name":"validators0","type":"tuple","internalType":"struct Gear.ValidatorsView","components":[{"name":"aggregatedPublicKey","type":"tuple","internalType":"struct Gear.AggregatedPublicKey","components":[{"name":"x","type":"uint256","internalType":"uint256"},{"name":"y","type":"uint256","internalType":"uint256"}]},{"name":"verifiableSecretSharingCommitmentPointer","type":"address","internalType":"address"},{"name":"list","type":"address[]","internalType":"address[]"},{"name":"useFromTimestamp","type":"uint256","internalType":"uint256"}]},{"name":"validators1","type":"tuple","internalType":"struct Gear.ValidatorsView","components":[{"name":"aggregatedPublicKey","type":"tuple","internalType":"struct Gear.AggregatedPublicKey","components":[{"name":"x","type":"uint256","internalType":"uint256"},{"name":"y","type":"uint256","internalType":"uint256"}]},{"name":"verifiableSecretSharingCommitmentPointer","type":"address","internalType":"address"},{"name":"list","type":"address[]","internalType":"address[]"},{"name":"useFromTimestamp","type":"uint256","internalType":"uint256"}]}]},{"name":"computeSettings","type":"tuple","internalType":"struct Gear.ComputationSettings","components":[{"name":"threshold","type":"uint64","internalType":"uint64"},{"name":"wvaraPerSecond","type":"uint128","internalType":"uint128"}]},{"name":"timelines","type":"tuple","internalType":"struct Gear.Timelines","components":[{"name":"era","type":"uint256","internalType":"uint256"},{"name":"election","type":"uint256","internalType":"uint256"},{"name":"validationDelay","type":"uint256","internalType":"uint256"}]},{"name":"programsCount","type":"uint256","internalType":"uint256"},{"name":"validatedCodesCount","type":"uint256","internalType":"uint256"},{"name":"requestCodeValidationBaseFee","type":"uint256","internalType":"uint256"},{"name":"requestCodeValidationExtraFee","type":"uint256","internalType":"uint256"}]}],"stateMutability":"view"},{"type":"function","name":"timelines","inputs":[],"outputs":[{"name":"","type":"tuple","internalType":"struct Gear.Timelines","components":[{"name":"era","type":"uint256","internalType":"uint256"},{"name":"election","type":"uint256","internalType":"uint256"},{"name":"validationDelay","type":"uint256","internalType":"uint256"}]}],"stateMutability":"view"},{"type":"function","name":"transferOwnership","inputs":[{"name":"newOwner","type":"address","internalType":"address"}],"outputs":[],"stateMutability":"nonpayable"},{"type":"function","name":"unpause","inputs":[],"outputs":[],"stateMutability":"nonpayable"},{"type":"function","name":"upgradeToAndCall","inputs":[{"name":"newImplementation","type":"address","internalType":"address"},{"name":"data","type":"bytes","internalType":"bytes"}],"outputs":[],"stateMutability":"payable"},{"type":"function","name":"validatedCodesCount","inputs":[],"outputs":[{"name":"","type":"uint256","internalType":"uint256"}],"stateMutability":"view"},{"type":"function","name":"validators","inputs":[],"outputs":[{"name":"","type":"address[]","internalType":"address[]"}],"stateMutability":"view"},{"type":"function","name":"validatorsAggregatedPublicKey","inputs":[],"outputs":[{"name":"","type":"tuple","internalType":"struct Gear.AggregatedPublicKey","components":[{"name":"x","type":"uint256","internalType":"uint256"},{"name":"y","type":"uint256","internalType":"uint256"}]}],"stateMutability":"view"},{"type":"function","name":"validatorsCount","inputs":[],"outputs":[{"name":"","type":"uint256","internalType":"uint256"}],"stateMutability":"view"},{"type":"function","name":"validatorsThreshold","inputs":[],"outputs":[{"name":"","type":"uint256","internalType":"uint256"}],"stateMutability":"view"},{"type":"function","name":"validatorsVerifiableSecretSharingCommitment","inputs":[],"outputs":[{"name":"","type":"bytes","internalType":"bytes"}],"stateMutability":"view"},{"type":"function","name":"wrappedVara","inputs":[],"outputs":[{"name":"","type":"address","internalType":"address"}],"stateMutability":"view"},{"type":"event","name":"AnnouncesCommitted","inputs":[{"name":"head","type":"bytes32","indexed":false,"internalType":"bytes32"}],"anonymous":false},{"type":"event","name":"BatchCommitted","inputs":[{"name":"hash","type":"bytes32","indexed":false,"internalType":"bytes32"}],"anonymous":false},{"type":"event","name":"CodeGotValidated","inputs":[{"name":"codeId","type":"bytes32","indexed":false,"internalType":"bytes32"},{"name":"valid","type":"bool","indexed":true,"internalType":"bool"}],"anonymous":false},{"type":"event","name":"CodeValidationRequested","inputs":[{"name":"codeId","type":"bytes32","indexed":false,"internalType":"bytes32"}],"anonymous":false},{"type":"event","name":"ComputationSettingsChanged","inputs":[{"name":"threshold","type":"uint64","indexed":false,"internalType":"uint64"},{"name":"wvaraPerSecond","type":"uint128","indexed":false,"internalType":"uint128"}],"anonymous":false},{"type":"event","name":"EIP712DomainChanged","inputs":[],"anonymous":false},{"type":"event","name":"Initialized","inputs":[{"name":"version","type":"uint64","indexed":false,"internalType":"uint64"}],"anonymous":false},{"type":"event","name":"OwnershipTransferred","inputs":[{"name":"previousOwner","type":"address","indexed":true,"internalType":"address"},{"name":"newOwner","type":"address","indexed":true,"internalType":"address"}],"anonymous":false},{"type":"event","name":"Paused","inputs":[{"name":"account","type":"address","indexed":false,"internalType":"address"}],"anonymous":false},{"type":"event","name":"ProgramCreated","inputs":[{"name":"actorId","type":"address","indexed":false,"internalType":"address"},{"name":"codeId","type":"bytes32","indexed":true,"internalType":"bytes32"}],"anonymous":false},{"type":"event","name":"StorageSlotChanged","inputs":[{"name":"slot","type":"bytes32","indexed":false,"internalType":"bytes32"}],"anonymous":false},{"type":"event","name":"Unpaused","inputs":[{"name":"account","type":"address","indexed":false,"internalType":"address"}],"anonymous":false},{"type":"event","name":"Upgraded","inputs":[{"name":"implementation","type":"address","indexed":true,"internalType":"address"}],"anonymous":false},{"type":"event","name":"ValidatorsCommittedForEra","inputs":[{"name":"eraIndex","type":"uint256","indexed":false,"internalType":"uint256"}],"anonymous":false},{"type":"error","name":"AddressEmptyCode","inputs":[{"name":"target","type":"address","internalType":"address"}]},{"type":"error","name":"ApproveERC20Failed","inputs":[]},{"type":"error","name":"BatchTimestampNotInPast","inputs":[]},{"type":"error","name":"BatchTimestampTooEarly","inputs":[]},{"type":"error","name":"BlobNotFound","inputs":[]},{"type":"error","name":"CodeAlreadyOnValidationOrValidated","inputs":[]},{"type":"error","name":"CodeNotValidated","inputs":[]},{"type":"error","name":"CodeValidationNotRequested","inputs":[]},{"type":"error","name":"CommitmentEraNotNext","inputs":[]},{"type":"error","name":"ECDSAInvalidSignature","inputs":[]},{"type":"error","name":"ECDSAInvalidSignatureLength","inputs":[{"name":"length","type":"uint256","internalType":"uint256"}]},{"type":"error","name":"ECDSAInvalidSignatureS","inputs":[{"name":"s","type":"bytes32","internalType":"bytes32"}]},{"type":"error","name":"ERC1967InvalidImplementation","inputs":[{"name":"implementation","type":"address","internalType":"address"}]},{"type":"error","name":"ERC1967NonPayable","inputs":[]},{"type":"error","name":"ElectionNotStarted","inputs":[]},{"type":"error","name":"EmptyValidatorsList","inputs":[]},{"type":"error","name":"EnforcedPause","inputs":[]},{"type":"error","name":"EraDurationTooShort","inputs":[]},{"type":"error","name":"ErasTimestampMustNotBeEqual","inputs":[]},{"type":"error","name":"ExpectedPause","inputs":[]},{"type":"error","name":"ExpiredSignature","inputs":[{"name":"deadline","type":"uint256","internalType":"uint256"}]},{"type":"error","name":"FailedCall","inputs":[]},{"type":"error","name":"GenesisHashAlreadySet","inputs":[]},{"type":"error","name":"GenesisHashNotFound","inputs":[]},{"type":"error","name":"InvalidBlobHash","inputs":[{"name":"index","type":"uint256","internalType":"uint256"},{"name":"providedBlobHash","type":"bytes32","internalType":"bytes32"},{"name":"expectedBlobHash","type":"bytes32","internalType":"bytes32"}]},{"type":"error","name":"InvalidElectionDuration","inputs":[]},{"type":"error","name":"InvalidFROSTAggregatedPublicKey","inputs":[]},{"type":"error","name":"InvalidFrostSignatureCount","inputs":[]},{"type":"error","name":"InvalidFrostSignatureLength","inputs":[]},{"type":"error","name":"InvalidInitialization","inputs":[]},{"type":"error","name":"InvalidPreviousCommittedBatchHash","inputs":[]},{"type":"error","name":"InvalidSigner","inputs":[{"name":"signer","type":"address","internalType":"address"},{"name":"requester","type":"address","internalType":"address"}]},{"type":"error","name":"InvalidTimestamp","inputs":[]},{"type":"error","name":"NotInitializing","inputs":[]},{"type":"error","name":"OwnableInvalidOwner","inputs":[{"name":"owner","type":"address","internalType":"address"}]},{"type":"error","name":"OwnableUnauthorizedAccount","inputs":[{"name":"account","type":"address","internalType":"address"}]},{"type":"error","name":"PredecessorBlockNotFound","inputs":[]},{"type":"error","name":"ReentrancyGuardReentrantCall","inputs":[]},{"type":"error","name":"RewardsCommitmentEraNotPrevious","inputs":[]},{"type":"error","name":"RewardsCommitmentPredatesGenesis","inputs":[]},{"type":"error","name":"RewardsCommitmentTimestampNotInPast","inputs":[]},{"type":"error","name":"RouterGenesisHashNotInitialized","inputs":[]},{"type":"error","name":"SafeCastOverflowedUintDowncast","inputs":[{"name":"bits","type":"uint8","internalType":"uint8"},{"name":"value","type":"uint256","internalType":"uint256"}]},{"type":"error","name":"SignatureVerificationFailed","inputs":[]},{"type":"error","name":"TimestampInFuture","inputs":[]},{"type":"error","name":"TimestampOlderThanPreviousEra","inputs":[]},{"type":"error","name":"TooManyChainCommitments","inputs":[]},{"type":"error","name":"TooManyRewardsCommitments","inputs":[]},{"type":"error","name":"TooManyValidatorsCommitments","inputs":[]},{"type":"error","name":"TransferFromFailed","inputs":[]},{"type":"error","name":"UUPSUnauthorizedCallContext","inputs":[]},{"type":"error","name":"UUPSUnsupportedProxiableUUID","inputs":[{"name":"slot","type":"bytes32","internalType":"bytes32"}]},{"type":"error","name":"UnknownProgram","inputs":[]},{"type":"error","name":"ValidationBeforeGenesis","inputs":[]},{"type":"error","name":"ValidationDelayTooBig","inputs":[]},{"type":"error","name":"ValidatorsAlreadyScheduled","inputs":[]},{"type":"error","name":"ValidatorsNotFoundForTimestamp","inputs":[]},{"type":"error","name":"ZeroValueTransfer","inputs":[]}],"bytecode":{"object":"0x60a080604052346100c257306080525f5160206158245f395f51905f525460ff8160401c166100b3576002600160401b03196001600160401b03821601610060575b60405161575d90816100c782396080518181816129a00152612a330152f35b6001600160401b0319166001600160401b039081175f5160206158245f395f51905f525581527fc7f505b2f371ae2175ee4913f4499e1f2633a7b5936321eed1cdaeb6115181d290602090a15f80610041565b63f92ee8a960e01b5f5260045ffd5b5f80fdfe6080806040526004361015610091575b50361561001a575f80fd5b610022613811565b5f5160206156dd5f395f51905f5254600181015415610082576001600160801b0334161561007357335f908152601a9190910160205260409020541561006457005b63821a62f560e01b5f5260045ffd5b63a1a7c6eb60e01b5f5260045ffd5b63580683f360e01b5f5260045ffd5b5f905f3560e01c9081627a32e7146130f8575080630c18d2771461302d578063188509e914612fff57806328e24b3d14612fd157806333e0d48e14612e035780633644e51514612de85780633683c4d214612d2b5780633bd109fa14612cdc5780633d43b41814612c885780633f4ba83a14612c085780634f1ef286146129f457806352d1902d1461298d57806353f7fd48146121875780635c975abb146121585780636c2eb35014611c0a5780636e55012a14611a28578063715018a6146119bf57806371a8cf2d1461199157806382bdeaad146118795780638456cb591461180657806384b0196e146116de57806384d22a4f1461168057806388f50cf0146116475780638b1edf1e146115e85780638c4ace6a146114885780638da5cb5b146114535780638f381dbe1461140d5780639067088e146113c457806396a2ddfa146113965780639eb939a81461133f578063a5d53a44146112bf578063ad3cb1cc14611276578063b24fcac014610de0578063baaf020114610cdf578063c13911e814610c9b578063c2eb812f14610938578063ca1e7819146108e8578063cacf66ab146108b0578063d456fd511461087a578063e3a6684f1461083b578063e6fabc0914610802578063ed612f8c146107ca578063edc8722514610775578063f0fd702a14610396578063f1ef31ec14610368578063f2fde38b1461033b578063f4f20ac0146103025763facd743b0361000f57346102ff5760203660031901126102ff576102c161314e565b60036102dc5f5160206156dd5f395f51905f525442906150e5565b019060018060a01b03165f52602052602060ff60405f2054166040519015158152f35b80fd5b50346102ff57806003193601126102ff575f5160206156dd5f395f51905f5254600701546040516001600160a01b039091168152602090f35b50346102ff5760203660031901126102ff5761036561035861314e565b610360613db4565b6137a0565b80f35b50346102ff57806003193601126102ff576020601e5f5160206156dd5f395f51905f52540154604051908152f35b50346102ff576101403660031901126102ff576103b161314e565b602435906044356001600160401b038111610771576103d490369060040161329d565b90916064359060843560ff8116810361076d5760e4359060ff82168203610769576103fd613811565b87491561075a575f5160206156dd5f395f51905f52549460018601541561074b576019860196888a528760205260ff60408b20541660038110156107375761072857895b8281106106e157508542116106cd57604080517f21d22dbb6ca3344a7f7c1dfcbe01d1b3a6aad6920ebeb232f72cc411c4436b17602082019081526001600160a01b038816928201839052606082018c905260a0608083015260c08201859052919491906001600160fb1b0385116106c9576104e160e0826105139661051c9860051b8091848401378c60a083015281010301601f19810183528261320d565b5190206104ec615084565b906040519161190160f01b83526002830152602282015260c43591604260a43592206153b6565b90929192615438565b6001600160a01b03168181036106b4575050869061055160018060a01b0360068701541695601e601d82015491015490613793565b93853b156106b05760405163d505accf60e01b81526001600160a01b038516600482015230602482015260448101869052606481019190915260ff9190911660848201526101043560a48201526101243560c4820152818160e48183895af1610693575b506040516323b872dd60e01b81526001600160a01b039092166004830152306024830152604482019290925291602091839190829081606481015b03925af1908115610688578491610659575b501561064a5781835260209081526040808420805460ff19166001179055519182527f5c261a095dd5720475295dc06379921c003c22164ee6cae5cf83e76ce0a1b98591a180f35b631e4e7d0960e21b8352600483fd5b61067b915060203d602011610681575b610673818361320d565b8101906133df565b5f610602565b503d610669565b6040513d86823e3d90fd5b816106a09194939461320d565b6106ac5790855f6105b5565b8580fd5b8280fd5b637ba5ffb560e01b8952600452602452604487fd5b8c80fd5b632f4aa44f60e21b8a52600486905260248afd5b8049806106ef838686613588565b35146106fc838686613588565b35901561070d575050600101610441565b606493508c926306f2f0e760e21b8452600452602452604452fd5b6304c51a3360e31b8a5260048afd5b634e487b7160e01b8b52602160045260248bfd5b63580683f360e01b8952600489fd5b637bb2fa2f60e11b8852600488fd5b8780fd5b8680fd5b8380fd5b50346102ff57806003193601126102ff5760206107c25f5160206156dd5f395f51905f5254600860046107a842846150e5565b0154910154906001600160801b038260801c921690615059565b604051908152f35b50346102ff57806003193601126102ff57602060046107f85f5160206156dd5f395f51905f525442906150e5565b0154604051908152f35b50346102ff57806003193601126102ff575f5160206156dd5f395f51905f5254600501546040516001600160a01b039091168152602090f35b50346102ff57806003193601126102ff57604060085f5160206156dd5f395f51905f525401548151906001600160801b038116825260801c6020820152f35b50346102ff57806003193601126102ff57602065ffffffffffff60045f5160206156dd5f395f51905f5254015416604051908152f35b50346102ff57806003193601126102ff57602065ffffffffffff60025f5160206156dd5f395f51905f52540154821c16604051908152f35b50346102ff57806003193601126102ff57610934610920600461091a5f5160206156dd5f395f51905f525442906150e5565b01613740565b604051918291602083526020830190613312565b0390f35b50346102ff57806003193601126102ff57604051610955816131d6565b61095d61366e565b815260405161096b816131bb565b5f8152602081015f9052602082015261098261366e565b604082015261098f61370d565b60608201526040516109a0816131bb565b5f808252602082015260808201526109b661366e565b60a08201528160c08201528160e08201528161010082015261012001525f5160206156dd5f395f51905f52546109ea61370d565b506109f760098201615361565b90610a04600f8201615361565b60088201549260405193610a17856131f2565b6001600160801b038116855260801c602085015260408401526060830152601b81015490601c810154601d820154601e8301549160405194610a58866131d6565b604051610a648161318c565b60018601548152600286015463ffffffff8116602083015260201c65ffffffffffff166040820152865260405196610a9b886131bb565b60038601548852600486015465ffffffffffff1660208901526020870197885260405190610ac88261318c565b60058701546001600160a01b039081168352600688015481166020840152600788015416604080840191909152880191825260608801908152610b0d601588016135c0565b9660808901978852601601610b219061368c565b9160a0890192835260c0890193845260e0890194855261010089019586526101208901968752604051998a9960208b5251805160208c0152602081015163ffffffff1660408c01526040015165ffffffffffff1660608b015251805160808b01526020015165ffffffffffff1660a08a015251600160a01b6001900381511660c08a0152600160a01b6001900360208201511660e08a0152600160a01b60019003906040015116610100890152516101208801610240905280516001600160801b031661026089015260208101516001600160801b031661028089015260408101516102a08901608090526102e08901610c1a9161334e565b90606001519061025f19898203016102c08a0152610c379161334e565b955180516001600160401b0316610140890152602001516001600160801b031661016088015251805161018088015260208101516101a0880152604001516101c0870152516101e08601525161020085015251610220840152516102408301520390f35b50346102ff5760203660031901126102ff5760ff604060209260195f5160206156dd5f395f51905f52540160043582528452205416610cdd60405180926132cd565bf35b50346102ff5760203660031901126102ff576004356001600160401b038111610ddc57610d1090369060040161329d565b905f5160206156dd5f395f51905f525490610d2a8361351d565b91610d38604051938461320d565b838352610d448461351d565b602084019490601f1901368637601a869201915b818110610da357868587604051928392602084019060208552518091526040840192915b818110610d8a575050500390f35b8251845285945060209384019390920191600101610d7c565b80610db9610db46001938588613588565b6135ee565b828060a01b03165f528360205260405f2054610dd582886135ac565b5201610d58565b5080fd5b50346102ff5760603660031901126102ff576001600160401b03600435116102ff57610100600435360360031901126102ff57600260243510156102ff576044356001600160401b038111610ddc57610e3d90369060040161329d565b7f9b779b17422d0df92223018b32b4d1fa46e071723d6817e2486d003becc55f005c6112675760017f9b779b17422d0df92223018b32b4d1fa46e071723d6817e2486d003becc55f005d5f5160206156dd5f395f51905f525490600182015415611258578154156111fc575b600382015460446004350135036111ed5765ffffffffffff60048301541665ffffffffffff610edc6024600435016136c2565b16106111df57610ef16004356004018361428a565b92610f0660a46004350160043560040161473f565b808096925060051b04602014851517156111cb57610f268560051b61514d565b8695865b818810611096575061105c965060051b902090610f4c60043560040186614796565b610f5b60043560040187614b6d565b90610f6a6024600435016136c2565b93610f796064600435016136b4565b9360405194602086019660043560040135885265ffffffffffff60d01b9060d01b16604087015260446004350135604687015260ff60f81b9060f81b1660668601526067850152608784015260a783015260c782015260c78152610fde60e78261320d565b5190209283600382015565ffffffffffff610ffd6024600435016136c2565b1665ffffffffffff196004830154161760048201557f7ebe42360bcb182fe0a88148b081e4557c89d09aa6af8307635ac2f83e2aaa656020604051868152a165ffffffffffff6110516024600435016136c2565b169360243591614df0565b1561108757807f9b779b17422d0df92223018b32b4d1fa46e071723d6817e2486d003becc55f005d80f35b63729d0f6b60e01b8152600490fd5b6110aa60a46004350160043560040161473f565b8910156111b7578860061b8101358a526019880160205260ff60408b2054166003811015610737576001036111a85760019160209161116d8b8b8e868360061b860101926110f784614774565b156111895760061b85013590525060198c01855260408e20805460ff19166002179055601c8c01805461112990613838565b90555b8c7f460119a8f69a33ed127de517d5ea464e958ce23ef19e4420a8b92bf780bbc2c98661115884614774565b1515926040519060061b8701358152a2614774565b908b60061b01358c52825360218b208186015201970196610f2a565b60409260199160061b87013583520187522060ff19815416905561112c565b636e83084760e11b8a5260048afd5b634e487b7160e01b8a52603260045260248afd5b634e487b7160e01b86526011600452602486fd5b620725b160ea1b8452600484fd5b63164b6fc360e01b8452600484fd5b61121961120d6064600435016136b4565b600435600401356141f5565b156112495765ffffffffffff6112336024600435016136c2565b164211610ea957631ad8809560e31b8452600484fd5b637b8cb35960e01b8452600484fd5b63580683f360e01b8452600484fd5b633ee5aeb560e01b8352600483fd5b50346102ff57806003193601126102ff575061093460405161129960408261320d565b60058152640352e302e360dc1b60208201526040519182916020835260208301906132ee565b50346102ff57806003193601126102ff575f5160206156dd5f395f51905f52546001600160a01b03906002906112f69042906150e5565b0154166040519182915f19813b0164ffffffffff16916021830191601f8501903c80825201906040820191826040526020835261133a603f199260608301906132ee565b030190f35b50346102ff57806003193601126102ff5761135861366e565b50606061137560165f5160206156dd5f395f51905f52540161368c565b610cdd60405180926040809180518452602081015160208501520151910152565b50346102ff57806003193601126102ff576020601b5f5160206156dd5f395f51905f52540154604051908152f35b50346102ff5760203660031901126102ff576113de61314e565b601a5f5160206156dd5f395f51905f5254019060018060a01b03165f52602052602060405f2054604051908152f35b50346102ff5760203660031901126102ff57600435906001600160401b0382116102ff576020611449611443366004860161329d565b90613602565b6040519015158152f35b50346102ff57806003193601126102ff575f51602061565d5f395f51905f52546040516001600160a01b039091168152602090f35b50346102ff5760a03660031901126102ff5760043560443560ff811681036106b0576114b2613811565b8249156115d9575f5160206156dd5f395f51905f52546001810154156112585760198101918385528260205260ff60408620541660038110156115c5576115b6576006820154601d9092015485926001600160a01b031691823b156107715760405163d505accf60e01b815233600482015230602480830191909152604482018490523560648083019190915260ff92909216608480830191909152913560a4820152903560c48201528390818160e48183885af16115a1575b50506040516323b872dd60e01b81523360048201523060248201526044810191909152916020918391829081606481016105f0565b816115ab9161320d565b6106b057825f61156c565b6304c51a3360e31b8552600485fd5b634e487b7160e01b86526021600452602486fd5b637bb2fa2f60e11b8352600483fd5b50346102ff57806003193601126102ff575f5160206156dd5f395f51905f525460018101908154611638576002015463ffffffff1640908115611629575580f35b63f7bac7b560e01b8352600483fd5b6309476b0360e41b8352600483fd5b50346102ff57806003193601126102ff575f5160206156dd5f395f51905f5254600601546040516001600160a01b039091168152602090f35b50346102ff57806003193601126102ff576116996133f7565b5060406116b660155f5160206156dd5f395f51905f5254016135c0565b610cdd825180926001600160801b03602080926001600160401b038151168552015116910152565b50346102ff57806003193601126102ff575f51602061569d5f395f51905f525415806117f0575b156117b3576117579061171661407b565b9061171f614148565b90602061176560405193611733838661320d565b8385525f368137604051968796600f60f81b885260e08589015260e08801906132ee565b9086820360408801526132ee565b904660608601523060808601528260a086015284820360c08601528080855193848152019401925b82811061179c57505050500390f35b83518552869550938101939281019260010161178d565b60405162461bcd60e51b81526020600482015260156024820152741152540dcc4c8e88155b9a5b9a5d1a585b1a5e9959605a1b6044820152606490fd5b505f51602061573d5f395f51905f525415611705565b50346102ff57806003193601126102ff5761181f613db4565b611827613811565b600160ff195f5160206156fd5f395f51905f525416175f5160206156fd5f395f51905f52557f62e78cea01bee320cd4e420270b5ea74000d11b0c9f74754ebdbfc544b05a2586020604051338152a180f35b50346102ff5760203660031901126102ff576004356001600160401b038111610ddc576118aa90369060040161329d565b905f5160206156dd5f395f51905f5254906118c48361351d565b916118d2604051938461320d565b8383526118de8461351d565b602084019490601f19013686376019869201915b81811061194757868587604051928392602084019060208552518091526040840192915b818110611924575050500390f35b919350916020808261193960019488516132cd565b019401910191849392611916565b611952818386613588565b3587528260205260ff60408820541661196b82876135ac565b600382101561197d57526001016118f2565b634e487b7160e01b89526021600452602489fd5b50346102ff57806003193601126102ff57602060035f5160206156dd5f395f51905f52540154604051908152f35b50346102ff57806003193601126102ff576119d8613db4565b5f51602061565d5f395f51905f5280546001600160a01b0319811690915581906001600160a01b03167f8be0079c531659141344cd1fd0a4f28419497f9722a3daafe3b4186f6b6457e08280a380f35b50346102ff576101203660031901126102ff57611a43613122565b611a4b613138565b6084356001600160801b03811690818103611bb2578460c43560ff81168103610ddc57611a76613811565b611a84602435600435613846565b6006015490936001600160a01b0390911691823b1561077157611acc8480926040518093819263d505accf60e01b8352610104359060e4359060a4358a303360048901613395565b038183885af1611bf5575b50506040516323b872dd60e01b81523360048201523060248201526001600160801b039190911660448201529160209183916064918391905af1908115611bea578691611bcb575b5015611bbc576001600160a01b0390811693908116611bb6575033915b833b15611bb257604051635fd142bb60e11b81526001600160a01b03938416600482015292166024830152604482018490526064820152828160848183865af18015611ba757611b92575b602082604051908152f35b611b9d83809261320d565b610ddc5781611b87565b6040513d85823e3d90fd5b8480fd5b91611b3c565b631e4e7d0960e21b8552600485fd5b611be4915060203d60201161068157610673818361320d565b5f611b1f565b6040513d88823e3d90fd5b81611bff9161320d565b6106b057825f611ad7565b50346102ff57806003193601126102ff57611c23613db4565b5f51602061571d5f395f51905f525460ff8160401c16908115612143575b50612134575f51602061571d5f395f51905f52805468ffffffffffffffffff1916680100000000000000051790555f51602061565d5f395f51905f5254611c9b906001600160a01b0316611c93615101565b610360615101565b611ca361342d565b90611cac61345a565b90611cb5615101565b611cbd615101565b82516001600160401b03811161203757611ce45f51602061563d5f395f51905f5254614043565b601f81116120d0575b506020601f82116001146120565782939482939261204b575b50508160011b915f199060031b1c1916175f51602061563d5f395f51905f52555b81516001600160401b03811161203757611d4e5f51602061567d5f395f51905f5254614043565b601f8111611fca575b50602092601f8211600114611f5157928293829392611f46575b50508160011b915f199060031b1c1916175f51602061567d5f395f51905f52555b805f51602061569d5f395f51905f5255805f51602061573d5f395f51905f52555f5160206156dd5f395f51905f5254611dc9613de7565b80516001830155600282019063ffffffff60208201511669ffffffffffff000000006040845493015160201b169169ffffffffffffffffffff191617179055816020604051611e17816131bb565b8281520152600381018290556004808201805465ffffffffffff19169055600682015460405163313ce56760e01b81529160209183919082906001600160a01b03165afa8015611ba757611e72918491611f17575b506134d1565b90816103e8026103e881048303611f0357601d820155816101f402916101f4830403611eef57601e015560ff60401b195f51602061571d5f395f51905f5254165f51602061571d5f395f51905f52557fc7f505b2f371ae2175ee4913f4499e1f2633a7b5936321eed1cdaeb6115181d2602060405160058152a180f35b634e487b7160e01b83526011600452602483fd5b634e487b7160e01b84526011600452602484fd5b611f39915060203d602011611f3f575b611f31818361320d565b8101906134b8565b5f611e6c565b503d611f27565b015190505f80611d71565b601f198216935f51602061567d5f395f51905f52845280842091845b868110611fb25750836001959610611f9a575b505050811b015f51602061567d5f395f51905f5255611d92565b01515f1960f88460031b161c191690555f8080611f80565b91926020600181928685015181550194019201611f6d565b81811115611d57575f51602061567d5f395f51905f528352612029907f5f9ce34815f8e11431c7bb75a8e6886a91478f7ffc1dbb0a98dc240fddd76b7590601f840160051c906020851061202f575b601f82910160051c039101613e64565b5f611d57565b859150612019565b634e487b7160e01b82526041600452602482fd5b015190505f80611d06565b5f51602061563d5f395f51905f52835280832090601f198316845b8181106120b8575095836001959697106120a0575b505050811b015f51602061563d5f395f51905f5255611d27565b01515f1960f88460031b161c191690555f8080612086565b9192602060018192868b015181550194019201612071565b81811115611ced575f51602061563d5f395f51905f52835261212e907f42ad5d3e1f2e6e70edcf6d991b8a3023d3fca8047a131592f9edb9fd9b89d57d90601f840160051c906020851061202f57601f82910160051c039101613e64565b5f611ced565b63f92ee8a960e01b8152600490fd5b600591506001600160401b031610155f611c41565b50346102ff57806003193601126102ff57602060ff5f5160206156fd5f395f51905f5254166040519015158152f35b50346102ff576101603660031901126102ff576121a261314e565b906024356001600160a01b03811690819003610ddc576121c0613122565b926121c9613138565b9360a4359060843560c43560403660e319011261076d5761012435976001600160401b038911610769573660238a011215610769578860040135916001600160401b03831161298957366024848c01011161298957610144356001600160401b0381116129855761223e90369060040161329d565b9690945f51602061571d5f395f51905f5254986001600160401b0360ff8b60401c16159a168015908161297d575b6001149081612973575b15908161296a575b5061295b576122c0908a60016001600160401b03195f51602061571d5f395f51905f525416175f51602061571d5f395f51905f525561292b575b611c93615101565b6122c8615101565b6122d061342d565b6122d861345a565b906122e1615101565b6122e9615101565b8051906001600160401b038211612917578d82916123145f51602061563d5f395f51905f5254614043565b601f81116128b3575b50602091601f8411600114612837579261282c575b50508160011b915f199060031b1c1916175f51602061563d5f395f51905f52555b8051906001600160401b038211612818578c829161237e5f51602061567d5f395f51905f5254614043565b601f81116127b4575b50602091601f8411600114612738579261272d575b50508160011b915f199060031b1c1916175f51602061567d5f395f51905f52555b8a5f51602061569d5f395f51905f52558a5f51602061573d5f395f51905f52556123e5615101565b421561271e57811561270f578181111561270057600a6124058383613479565b048310156126f15791600493916020938c60409c8d918251612427848261320d565b601781528881017f726f757465722e73746f726167652e526f7574657256310000000000000000008152612459613db4565b5f19915190200181528760ff199120169a8b5f5160206156dd5f395f51905f52557f059eb9adf6e95b839d818142ed5bd5e498b6d95138e65c91525e93cc0f0339fc888d8551908152a16124ab613de7565b8c6001825191015560028d019063ffffffff8a8201511669ffffffffffff000000008684549301518c1b169169ffffffffffffffffffff1916171790558251906124f48261318c565b8282526001600160a01b039081168983018190529781169390910183905260058c018054919092166001600160a01b03199182161790915560068b01805482168717905560078b018054909116909117905570030000000000000000000000000000000260088a01556125656133f7565b506509184e72a000858d51612579816131bb565b639502f900815201526015890180546001600160c01b0319166d09184e72a000000000009502f9001790558b5183908d906125b38161318c565b8381528488820152015260168901556017880155601887015588519283809263313ce56760e01b82525afa9081156126e757906125f6918991611f1757506134d1565b806103e8026103e8810482036126d357601d850155806101f402906101f48204036126bf5761265e6126546126659798999a600993601e8801558a519461263c866131bb565b60e43586526101043560208701526024369201613249565b9342963691613534565b9301613e7f565b61266d575080f35b60207fc7f505b2f371ae2175ee4913f4499e1f2633a7b5936321eed1cdaeb6115181d29160ff60401b195f51602061571d5f395f51905f5254165f51602061571d5f395f51905f52555160018152a180f35b634e487b7160e01b88526011600452602488fd5b634e487b7160e01b89526011600452602489fd5b87513d8a823e3d90fd5b63145e348f60e01b8b5260048bfd5b6353b2bbed60e01b8b5260048bfd5b63f7ba6bdb60e01b8b5260048bfd5b63b7d0949760e01b8b5260048bfd5b015190505f8061239c565b5f51602061567d5f395f51905f5281528281209350601f198516905b81811061279c5750908460019594939210612784575b505050811b015f51602061567d5f395f51905f52556123bd565b01515f1960f88460031b161c191690555f808061276a565b92936020600181928786015181550195019301612754565b83811115612387575f51602061567d5f395f51905f528352612812907f5f9ce34815f8e11431c7bb75a8e6886a91478f7ffc1dbb0a98dc240fddd76b7590601f860160051c906020871061202f57601f82910160051c039101613e64565b5f612387565b634e487b7160e01b8d52604160045260248dfd5b015190505f80612332565b5f51602061563d5f395f51905f5281528281209350601f198516905b81811061289b5750908460019594939210612883575b505050811b015f51602061563d5f395f51905f5255612353565b01515f1960f88460031b161c191690555f8080612869565b92936020600181928786015181550195019301612853565b8381111561231d575f51602061563d5f395f51905f528352612911907f42ad5d3e1f2e6e70edcf6d991b8a3023d3fca8047a131592f9edb9fd9b89d57d90601f860160051c906020871061202f57601f82910160051c039101613e64565b5f61231d565b634e487b7160e01b8e52604160045260248efd5b600160401b60ff60401b195f51602061571d5f395f51905f525416175f51602061571d5f395f51905f52556122b8565b63f92ee8a960e01b8c5260048cfd5b9050155f61227e565b303b159150612276565b8b915061226c565b8980fd5b8880fd5b50346102ff57806003193601126102ff577f00000000000000000000000000000000000000000000000000000000000000006001600160a01b031630036129e55760206040515f5160206156bd5f395f51905f528152f35b63703e46dd60e11b8152600490fd5b5060403660031901126102ff57612a0961314e565b906024356001600160401b038111610ddc57612a2990369060040161327f565b6001600160a01b037f000000000000000000000000000000000000000000000000000000000000000016308114908115612be6575b50612bd757612a6b613db4565b6040516352d1902d60e01b8152926001600160a01b0381169190602085600481865afa80958596612b9f575b50612ab057634c9c8ce360e01b84526004839052602484fd5b9091845f5160206156bd5f395f51905f528103612b8d5750813b15612b7b575f5160206156bd5f395f51905f5280546001600160a01b031916821790557fbc7cd75a20ee27fd9adebab32041f755214dbc6bffa90cc0225b39da2e5c2d3b8480a28151839015612b615780836020612b5595519101845af43d15612b59573d91612b398361322e565b92612b47604051948561320d565b83523d85602085013e6155de565b5080f35b6060916155de565b50505034612b6c5780f35b63b398979f60e01b8152600490fd5b634c9c8ce360e01b8452600452602483fd5b632a87526960e21b8552600452602484fd5b9095506020813d602011612bcf575b81612bbb6020938361320d565b81010312612bcb5751945f612a97565b5f80fd5b3d9150612bae565b63703e46dd60e11b8252600482fd5b5f5160206156bd5f395f51905f52546001600160a01b0316141590505f612a5e565b50346102ff57806003193601126102ff57612c21613db4565b5f5160206156fd5f395f51905f525460ff811615612c795760ff19165f5160206156fd5f395f51905f52557f5db9ee0a495bf2e6ff9c91a7834c1ba4fdd244a5e8aa4e537bd38aeae4b073aa6020604051338152a180f35b638dfc202b60e01b8252600482fd5b50346102ff5760203660031901126102ff57612ca261314e565b612caa613db4565b5f5160206156dd5f395f51905f525460050180546001600160a01b0319166001600160a01b0390921691909117905580f35b50346102ff57806003193601126102ff57612cf56133f7565b506040612d19612d145f5160206156dd5f395f51905f525442906150e5565b61340f565b60208251918051835201516020820152f35b50346102ff5760603660031901126102ff57612d45613122565b612d4d613811565b612d5b602435600435613cbc565b506001600160a01b0390811691908116612de35750335b5f5160206156dd5f395f51905f5254600501546001600160a01b0316823b1561077157604051635fd142bb60e11b81526001600160a01b03909216600483015260248201526001604482015260648101839052828160848183865af18015611ba757611b9257602082604051908152f35b612d72565b50346102ff57806003193601126102ff5760206107c2615084565b50346102ff576101003660031901126102ff57612e1e613122565b6064356001600160801b03811690818103610771578360a43560ff81168103610ddc57612e49613811565b612e57602435600435613cbc565b6006015490936001600160a01b0390911691823b1561077157612e9e8480926040518093819263d505accf60e01b835260e4359060c435906084358a303360048901613395565b038183885af1612fbc575b50506040516323b872dd60e01b81523360048201523060248201526001600160801b039190911660448201529160209183916064918391905af1908115612fb1578591612f92575b5015612f83576001600160a01b0390811692908116612f7d575033905b5f5160206156dd5f395f51905f5254600501546001600160a01b0316833b15611bb257604051635fd142bb60e11b81526001600160a01b0390931660048401526024830152600160448301526064820152828160848183865af18015611ba757611b9257602082604051908152f35b90612f0e565b631e4e7d0960e21b8452600484fd5b612fab915060203d60201161068157610673818361320d565b5f612ef1565b6040513d87823e3d90fd5b81612fc69161320d565b6106b057825f612ea9565b50346102ff57806003193601126102ff57602060015f5160206156dd5f395f51905f52540154604051908152f35b50346102ff57806003193601126102ff576020601d5f5160206156dd5f395f51905f52540154604051908152f35b34612bcb576080366003190112612bcb57613046613122565b61304e613138565b90613057613811565b613065602435600435613846565b506001600160a01b03908116919081166130f2575033915b813b15612bcb57604051635fd142bb60e11b81526001600160a01b039384166004820152921660248301525f60448301819052606483018190528260848183855af19182156130e7576020926130d7575b50604051908152f35b5f6130e19161320d565b5f6130ce565b6040513d5f823e3d90fd5b9161307d565b34612bcb575f366003190112612bcb57602090601c5f5160206156dd5f395f51905f525401548152f35b604435906001600160a01b0382168203612bcb57565b606435906001600160a01b0382168203612bcb57565b600435906001600160a01b0382168203612bcb57565b35906001600160a01b0382168203612bcb57565b35906001600160801b0382168203612bcb57565b606081019081106001600160401b038211176131a757604052565b634e487b7160e01b5f52604160045260245ffd5b604081019081106001600160401b038211176131a757604052565b61014081019081106001600160401b038211176131a757604052565b608081019081106001600160401b038211176131a757604052565b90601f801991011681019081106001600160401b038211176131a757604052565b6001600160401b0381116131a757601f01601f191660200190565b9291926132558261322e565b91613263604051938461320d565b829481845281830111612bcb578281602093845f960137010152565b9080601f83011215612bcb5781602061329a93359101613249565b90565b9181601f84011215612bcb578235916001600160401b038311612bcb576020808501948460051b010111612bcb57565b9060038210156132da5752565b634e487b7160e01b5f52602160045260245ffd5b805180835260209291819084018484015e5f828201840152601f01601f1916010190565b90602080835192838152019201905f5b81811061332f5750505090565b82516001600160a01b0316845260209384019390920191600101613322565b9060208251805183520151602082015260018060a01b0360208301511660408201526080606061338c604085015160a08386015260a0850190613312565b93015191015290565b936001600160801b0360c096929998979460ff9460e088019b60018060a01b0316885260018060a01b03166020880152166040860152606085015216608083015260a08201520152565b90816020910312612bcb57518015158103612bcb5790565b60405190613404826131bb565b5f6020838281520152565b9060405161341c816131bb565b602060018294805484520154910152565b6040519061343c60408361320d565b600f82526e2b30b9309722aa24102937baba32b960891b6020830152565b6040519061346960408361320d565b60018252603160f81b6020830152565b9190820391821161348657565b634e487b7160e01b5f52601160045260245ffd5b81156134a4570490565b634e487b7160e01b5f52601260045260245ffd5b90816020910312612bcb575160ff81168103612bcb5790565b60ff16604d811161348657600a0a90565b8181029291811591840414171561348657565b9190826040910312612bcb5760405161350d816131bb565b6020808294803584520135910152565b6001600160401b0381116131a75760051b60200190565b9291906135408161351d565b9361354e604051958661320d565b602085838152019160051b8101928311612bcb57905b82821061357057505050565b6020809161357d84613164565b815201910190613564565b91908110156135985760051b0190565b634e487b7160e01b5f52603260045260245ffd5b80518210156135985760209160051b010190565b906040516135cd816131bb565b91546001600160401b038116835260401c6001600160801b03166020830152565b356001600160a01b0381168103612bcb5790565b61361b5f5160206156dd5f395f51905f525442906150e5565b600301905f5b8381106136315750505050600190565b61363f610db4828685613588565b6001600160a01b03165f9081526020849052604090205460ff161561366657600101613621565b505050505f90565b6040519061367b8261318c565b5f6040838281528260208201520152565b906040516136998161318c565b60406002829480548452600181015460208501520154910152565b3560ff81168103612bcb5790565b3565ffffffffffff81168103612bcb5790565b604051906136e2826131f2565b5f6060836040516136f2816131bb565b83815283602082015281528260208201528160408201520152565b6040519061371a826131f2565b815f81525f602082015261372c6136d5565b6040820152606061373b6136d5565b910152565b90604051918281549182825260208201905f5260205f20925f5b81811061377157505061376f9250038361320d565b565b84546001600160a01b031683526001948501948794506020909301920161375a565b9190820180921161348657565b6001600160a01b031680156137fe575f51602061565d5f395f51905f5280546001600160a01b0319811683179091556001600160a01b03167f8be0079c531659141344cd1fd0a4f28419497f9722a3daafe3b4186f6b6457e05f80a3565b631e4fbdf760e01b5f525f60045260245ffd5b60ff5f5160206156fd5f395f51905f52541661382957565b63d93c066560e01b5f5260045ffd5b5f1981146134865760010190565b9190915f5160206156dd5f395f51905f52549260018401541561008257815f526019840160205260ff60405f20541660038110156132da57600203613cad57815f5260205260405f206040516103008101908082106001600160401b03831117612bcb576102fb916040527f6080806040526102e990816100128239f3fe60806040526004361061029f575f81527f3560e01c806336a52a18146100bb57806342129d00146100b65780635ce6c32760208201527f146100b1578063701da98e146100ac578063704ed542146100a75780637a8e0c60408201527fdd146100a257806391d5a64c1461009d5780639ce110d714610098578063affe60608201527fd0e014610093578063c60496921461008e5763e43f34330361029f5761028a5660808201527f5b610260565b610243565b61021b565b610205565b6101d2565b6101b3565b6160a08201527f0178565b610156565b610119565b346100e7575f3660031901126100e757600260c08201527f5460405160089190911c6001600160a01b03168152602090f35b5f80fd5b918160e08201527f601f840112156100e75782359167ffffffffffffffff83116100e757602083816101008201527f8601950101116100e757565b60403660031901126100e75760043567ffffffff6101208201527fffffffff81116100e7576101459036906004016100eb565b50506024358015156101408201527f1461029f575f80fd5b346100e7575f3660031901126100e757602060ff6002546101608201527f166040519015158152f35b346100e7575f3660031901126100e75760205f54606101808201527f4051908152f35b600435906fffffffffffffffffffffffffffffffff821682036101a08201527f6100e757565b346100e75760203660031901126100e7576101cc610194565b506101c08201527f61029f565b60403660031901126100e75760243567ffffffffffffffff8111616101e08201527ee7576101fe9036906004016100eb565b505061029f565b346100e7576020366102008201527f60031901121561029f575f80fd5b346100e7575f3660031901126100e75760036102208201527f546040516001600160a01b039091168152602090f35b346100e7575f366003196102408201527f01126100e7576020600154604051908152f35b346100e75760a03660031901126102608201527f6100e757610279610194565b5060443560ff81161461029f575f80fd5b3461006102808201527fe7575f3660031901121561029f575f80fd5b63e6fabc0960e01b5f5260205f606102a08201523060481b685afa156100e7575f806204817360e81b01176102c08201527f8051368280378136915af43d5f803e156102e5573d5ff35b3d5ffd00000000006102e08201525ff5908115612bcb5760018060a01b0382165f52601a84016020528060405f2055601b8401613c728154613838565b90556040516001600160a01b03831681527f8008ec1d8798725ebfa0f2d128d52e8e717dcba6e0f786557eeee70614b02bf190602090a29190565b630e2637d160e01b5f5260045ffd5b9190915f5160206156dd5f395f51905f52549260018401541561008257815f526019840160205260ff60405f20541660038110156132da57600203613cad57815f5260205260405f2060405160608101908082106001600160401b03831117612bcb57605a916040527f3d605080600a3d3981f3608060405263e6fabc0960e01b5f5260205f6004817381523060601b6b5afa15604c575f80805136821760208201527f80378136915af43d5f803e156048573d5ff35b3d5ffd5b5f80fd00000000000060408201525ff5908115612bcb5760018060a01b0382165f52601a84016020528060405f2055601b8401613c728154613838565b5f51602061565d5f395f51905f52546001600160a01b03163303613dd457565b63118cdaa760e01b5f523360045260245ffd5b613def61366e565b5063ffffffff4311613e4c5765ffffffffffff4211613e3457604051613e148161318c565b5f815263ffffffff4316602082015265ffffffffffff4216604082015290565b6306dfcc6560e41b5f5260306004524260245260445ffd5b6306dfcc6560e41b5f5260206004524360245260445ffd5b5f5b828110613e7257505050565b5f82820155600101613e66565b9291908051906020810191825170014551231950b75fc4402da1732fc9bebe1982109182614032575b5050156140235751845551600184015580518060401b6bfe61000180600a3d393df3000161fffe8211830152600b8101601583015ff091821561401657526002830180546001600160a01b0319166001600160a01b039092169190911790555f5b600483018054821015613f47575f90815260208082208301546001600160a01b0316825260038501905260409020805460ff19169055600101613f09565b5050925f5b8451811015613f90576001906001600160a01b03613f6a82886135ac565b5116828060a01b03165f526003840160205260405f208260ff1982541617905501613f4c565b5092600482018151916001600160401b0383116131a757600160401b83116131a7576020908254848455808510613ffb575b5001905f5260205f205f5b838110613fde575050505060050155565b82516001600160a01b031681830155602090920191600101613fcd565b61401090845f528580855f2001910390613e64565b5f613fc2565b63301164255f526004601cfd5b63375f0aab60e11b5f5260045ffd5b61403c92506155bb565b5f80613ea8565b90600182811c92168015614071575b602083101461405d57565b634e487b7160e01b5f52602260045260245ffd5b91607f1691614052565b604051905f825f51602061563d5f395f51905f52549161409a83614043565b808352926001811690811561412957506001146140be575b61376f9250038361320d565b505f51602061563d5f395f51905f525f90815290917f42ad5d3e1f2e6e70edcf6d991b8a3023d3fca8047a131592f9edb9fd9b89d57d5b81831061410d57505090602061376f928201016140b2565b60209193508060019154838589010152019101909184926140f5565b6020925061376f94915060ff191682840152151560051b8201016140b2565b604051905f825f51602061567d5f395f51905f52549161416783614043565b8083529260018116908115614129575060011461418a5761376f9250038361320d565b505f51602061567d5f395f51905f525f90815290917f5f9ce34815f8e11431c7bb75a8e6886a91478f7ffc1dbb0a98dc240fddd76b755b8183106141d957505090602061376f928201016140b2565b60209193508060019154838589010152019101909184926141c1565b435f19810193929084116134865760ff1643811061424557505f925b83811015614221575b505f925050565b80408281036142335750600193505050565b15614240575f1901614211565b61421a565b61424f9043613479565b92614211565b903590601e1981360301821215612bcb57018035906001600160401b038211612bcb57602001918160051b36038313612bcb57565b9060808101600161429b8284614255565b905011614730576142ac8183614255565b905015614709576142bc91614255565b1561359857803590603e1981360301821215612bcb5701916142de8380614255565b9190928260051b9383850460201484151715613486576143008596949561514d565b925f945f97601a60fe19853603019501965b888a10156146c1578960051b85013586811215612bcb578501614334816135ee565b6001600160a01b03165f90815260208a9052604090205415610064575f608082016001600160801b036143668261512c565b161515806146ae575b61469d575b6001600160a01b03614385846135ee565b604051630427a21d60e11b81526020600482015294911691610124850191906001600160801b0390614404906001600160a01b036143c285613164565b166024890152602084013560448901526143de60408501615140565b151560648901526001600160a01b036143f960608601613164565b166084890152613178565b1660a486015261441660a08201615140565b151560c486015236819003601e190160c082013581811215612bcb578201602081359101936001600160401b038211612bcb576060820236038513612bcb57819061010060e48a015252610144870193905f905b8082106146535750505060e082013590811215612bcb5701803560208201926001600160401b038211612bcb578160051b908136038513612bcb5791879594936023198785030161010488015281845260208085019385010194935f9160fe19813603015b8484106145465750505050505050602093916001600160801b03848093039316905af19081156130e7575f91614514575b50816020916001938a015201990198614312565b90506020813d821161453e575b8161452e6020938361320d565b81010312612bcb57516001614500565b3d9150614521565b919395979850919395601f19848203018752873582811215612bcb578301602081013582526001600160a01b0361457f60408301613164565b1660208301526060810135603e193683900301811215612bcb578101602081013591906040016001600160401b038311612bcb578236038113612bcb57829060e060408601528160e08601526101008501375f61010083850101526001600160801b036145ee60808301613178565b16606084015260a0810135608084015260c081013563ffffffff60e01b8116809103612bcb578360209361463060e086956101009560a060019a015201615140565b151560c0830152601f80199101160101990197019401918a9897969593916144cf565b90919460608060019288358152838060a01b0361467260208b01613164565b1660208201526001600160801b0361468c60408b01613178565b16604082015201960192019061446a565b90506146a88161512c565b90614374565b506146bb60a08401614774565b1561436f565b5094935095509550506020925020910135907fd04cd9af813f6f0b56e9411a6ee6a84eb5ac35a96f0c33d2e3a07d65baa8f4186020604051848152a15f5260205260405f2090565b5050507fc5d2460186f7233c927e7db2dcc703c0e500b653ca82273b7bfad8045d85a47090565b6306d6c38360e01b5f5260045ffd5b903590601e1981360301821215612bcb57018035906001600160401b038211612bcb57602001918160061b36038313612bcb57565b358015158103612bcb5790565b903590605e1981360301821215612bcb570190565b60c0820160016147a68285614255565b905011614b2c576147b78184614255565b905015614709576147c89083614255565b1561359857803590607e1981360301821215612bcb570191606083019060206147f0836136c2565b91019065ffffffffffff80614804846136c2565b1691161015614b1d57614816826136c2565b65ffffffffffff80600286015460201c16911610614b0e5761485c65ffffffffffff61485561484f82614848876136c2565b1687615172565b936136c2565b1684615172565b1115614aff576007820154600690920180548435946001600160a01b0394851694604082019391925f916020911660446148a28361489a8989614781565b01358b613793565b604051948593849263095ea7b360e01b84528c600485015260248401525af19081156130e7575f91614ae0575b5015614ad1575460405163394f179b60e11b81526001600160a01b03909116600482015260248101959095526020818101356044870152856064815f885af19485156130e7575f95614a99575b509061492791614781565b91614931826136c2565b9260405193637fbe95b560e01b85526040600486015260a48501918035601e1982360301811215612bcb578101602081359101936001600160401b038211612bcb578160061b36038513612bcb5760606044890152819052869360c485019392915f5b818110614a6157505050836020959365ffffffffffff829484895f96013560648601526149ca604060018060a01b039201613164565b16608485015216602483015203925af19182156130e7575f92614a2b575b506149f2906136c2565b6040519160208301938452604083015265ffffffffffff60d01b9060d01b16606082015260468152614a2560668261320d565b51902090565b9091506020813d602011614a59575b81614a476020938361320d565b81010312612bcb5751906149f26149e8565b3d9150614a3a565b919550919293604080600192838060a01b03614a7c8a613164565b168152602089013560208201520196019101918895949392614994565b919094506020823d602011614ac9575b81614ab66020938361320d565b81010312612bcb5790519361492761491c565b3d9150614aa9565b6367b9145160e01b5f5260045ffd5b614af9915060203d60201161068157610673818361320d565b5f6148cf565b6308027f7760e31b5f5260045ffd5b637bde91e760e11b5f5260045ffd5b63087a19ab60e41b5f5260045ffd5b633249ceed60e11b5f5260045ffd5b903590601e1981360301821215612bcb57018035906001600160401b038211612bcb57602001918136038313612bcb57565b9060e081016001614b7e8284614255565b905011614de157614b8f8183614255565b90501561470957614b9f91614255565b1561359857803590609e1981360301821215612bcb57016060810190614bc58282614255565b905015614dd25765ffffffffffff600284015460201c1691614be78342613479565b614bf66016860154809261349a565b9360808401359460018101809111613486578503614dc357614c1b85614c21936134e2565b90613793565b93614c30601782015486613479565b4210614db457614c3f9061519a565b934260058601541015614da557614c94906040840195614c86614c8e614c658988614b3b565b9190614c71888a614255565b949091614c7e368c6134f5565b943691613249565b933691613534565b92613e7f565b7fa1a3b42179ad30022438a1ea333b38eaf4a7329beee5e2b8111c0dcd4e08821c6020604051858152a160a082360312612bcb5760405193614cd5856131f2565b614cdf36846134f5565b8552356001600160401b038111612bcb57614cfd903690840161327f565b602085015235906001600160401b038211612bcb570136601f82011215612bcb57614d2f903690602081359101613534565b91826040820152816060820152519160208351930151906040519283926020840195865260408401526060830160208351919301905f5b818110614d8357505050815203808252614a25906020018261320d565b82516001600160a01b0316855286955060209485019490920191600101614d66565b6333fc8f5160e21b5f5260045ffd5b6372a84ce560e11b5f5260045ffd5b6343d3f5bf60e01b5f5260045ffd5b636c2bf3db60e01b5f5260045ffd5b631d3fc6bf60e21b5f5260045ffd5b909493919365ffffffffffff600283015460201c16614e0f4284615172565b614e27614e21601686015480936134e2565b83613793565b918284108080615043575b156150115750831061500357614e489083613793565b10614ff457614e58905b826150e5565b94601960f81b5f523060601b60025260165260365f209360028110156132da5780614ee957505060018103614eda571561359857614e9981614ea092614b3b565b3691613249565b916060835103614ecb5782602061329a940151606060408301519201519260018154910154906151b5565b632ce466bf60e01b5f5260045ffd5b6360a1ea7760e01b5f5260045ffd5b919391600114614efc5750505050505f90565b614f2190600860048796970154910154906001600160801b038260801c921690615059565b925f9260035f9201915b86811015614fe957614f51610513614f4b614e998460051b860186614b3b565b86615581565b6001600160a01b0381165f9081526020859052604090205460ff16614f7c575b506001905b01614f2b565b6001600160a01b03165f9081527ff02b465737fa6045c2ff53fb2df43c66916ac2166fa303264668fb2f6a1d8c0060205260409020805c15614fc15750600190614f76565b946001614fcf92965d613838565b93858514614fdd575f614f71565b50505050505050600190565b505050505050505f90565b63046bb1e560e51b5f5260045ffd5b62f4462b60e01b5f5260045ffd5b939291505042821161503457614e589261502c575b50614e52565b90505f615026565b6347860b9760e01b5f5260045ffd5b50615052601887015485613793565b4210614e32565b6001600160801b03809216029116615071818361349a565b9181156134a457061561329a5760010190565b61508c615498565b6150946154ef565b6040519060208201927f8b73c3c69bb8fe3d512ecc4cf759cc79239f7b179b0ffacaa9a75d522b39400f8452604083015260608201524660808201523060a082015260a08152614a2560c08261320d565b906150f09082615521565b156150fb57600f0190565b60090190565b60ff5f51602061571d5f395f51905f525460401c161561511d57565b631afcd79f60e31b5f5260045ffd5b356001600160801b0381168103612bcb5790565b35908115158203612bcb57565b6040519190601f01601f191682016001600160401b03811183821017612bcb57604052565b601661519161329a9365ffffffffffff600285015460201c1690613479565b9101549061349a565b6151a44282615521565b156151af5760090190565b600f0190565b92939194906151c485876155bb565b156153575782156153575770014551231950b75fc4402da1732fc9bebe19831015615357576001169061010e6151f98161514d565b9160883684376002600188160160888401538760898401526002840160a984015360aa830186905260ca8301527e300046524f53542d736563703235366b312d4b454343414b3235362d76316360ea8301526303430b6160e51b61010a830152812060cc820181815290600260ec84016001815360428420809318845253604270014551231950b75fc4402da1732fc9bebe19922060801c6001600160401b0360801b8260801b16179070014551231950b75fc4402da1732fc9bebe1990600160c01b9060401c09088015614fe95784601b6080945f9660209870014551231950b75fc4402da1732fc9bebe19910970014551231950b75fc4402da1732fc9bebe19038552018684015280604084015270014551231950b75fc4402da1732fc9bebe19910970014551231950b75fc4402da1732fc9bebe1903606082015282805260015afa505f51915f5260205260018060a01b0360405f20161490565b5050505050505f90565b6153696136d5565b50600281015460058201546040519290916153a9916004916001600160a01b0316615393866131f2565b61539c8261340f565b8652602086015201613740565b6040830152606082015290565b91907f7fffffffffffffffffffffffffffffff5d576e7357a4501ddfe92f46681b20a0841161542d579160209360809260ff5f9560405194855216868401526040830152606082015282805260015afa156130e7575f516001600160a01b0381161561542357905f905f90565b505f906001905f90565b5050505f9160039190565b60048110156132da578061544a575050565b600181036154615763f645eedf60e01b5f5260045ffd5b6002810361547c575063fce698f760e01b5f5260045260245ffd5b6003146154865750565b6335e2f38360e21b5f5260045260245ffd5b6154a061407b565b80519081156154b0576020012090565b50505f51602061569d5f395f51905f525480156154ca5790565b507fc5d2460186f7233c927e7db2dcc703c0e500b653ca82273b7bfad8045d85a47090565b6154f7614148565b8051908115615507576020012090565b50505f51602061573d5f395f51905f525480156154ca5790565b906014600e8301549201548083146155725781818410931191821591111591819061556b575b1561555c578261555657505090565b14919050565b634c38ae9560e11b5f5260045ffd5b5081615547565b63f26224af60e01b5f5260045ffd5b81519190604183036155b1576155aa9250602082015190606060408401519301515f1a906153b6565b9192909190565b50505f9160029190565b6401000003d01990600790829081818009900908906401000003d0199080091490565b9061560257508051156155f357602081519101fd5b63d6bda27560e01b5f5260045ffd5b81511580615633575b615613575090565b639996b31560e01b5f9081526001600160a01b0391909116600452602490fd5b50803b1561560b56fea16a46d94261c7517cc8ff89f61c0ce93598e3c849801011dee649a6a557d1029016d09d72d40fdae2fd8ceac6b6234c7706214fd39c1cd1e609a0528c199300a16a46d94261c7517cc8ff89f61c0ce93598e3c849801011dee649a6a557d103a16a46d94261c7517cc8ff89f61c0ce93598e3c849801011dee649a6a557d100360894a13ba1a3210667c828492db98dca3e2076cc3735a920a3ca505d382bbc5c09ca1b9b8127a4fd9f3c384aac59b661441e820e17733753ff5f2e86e1e000cd5ed15c6e187e77e9aee88184c21f4f2182ab5827cb3b7e07fbedcd63f03300f0c57e16840df040f15088dc2f81fe391c3923bec73e23a9662efc9c229c6a00a16a46d94261c7517cc8ff89f61c0ce93598e3c849801011dee649a6a557d101f0c57e16840df040f15088dc2f81fe391c3923bec73e23a9662efc9c229c6a00","linkReferences":{}},"methodIdentifiers":{"DOMAIN_SEPARATOR()":"3644e515","UPGRADE_INTERFACE_VERSION()":"ad3cb1cc","areValidators(address[])":"8f381dbe","codeState(bytes32)":"c13911e8","codesStates(bytes32[])":"82bdeaad","commitBatch((bytes32,uint48,bytes32,uint8,((address,bytes32,bool,address,uint128,bool,(bytes32,address,uint128)[],(bytes32,address,bytes,uint128,(bytes32,bytes4),bool)[])[],bytes32)[],(bytes32,bool)[],((uint256,bytes32),((address,uint256)[],uint256,address),uint48)[],((uint256,uint256),bytes,address[],uint256)[]),uint8,bytes[])":"b24fcac0","computeSettings()":"84d22a4f","createProgram(bytes32,bytes32,address)":"3683c4d2","createProgramWithAbiInterface(bytes32,bytes32,address,address)":"0c18d277","createProgramWithAbiInterfaceAndValue(bytes32,bytes32,address,address,uint128,uint256,uint8,bytes32,bytes32)":"6e55012a","createProgramWithValue(bytes32,bytes32,address,uint128,uint256,uint8,bytes32,bytes32)":"33e0d48e","eip712Domain()":"84b0196e","genesisBlockHash()":"28e24b3d","genesisTimestamp()":"cacf66ab","initialize(address,address,address,address,uint256,uint256,uint256,(uint256,uint256),bytes,address[])":"53f7fd48","isValidator(address)":"facd743b","latestCommittedBatchHash()":"71a8cf2d","latestCommittedBatchTimestamp()":"d456fd51","lookupGenesisHash()":"8b1edf1e","middleware()":"f4f20ac0","mirrorImpl()":"e6fabc09","owner()":"8da5cb5b","pause()":"8456cb59","paused()":"5c975abb","programCodeId(address)":"9067088e","programsCodeIds(address[])":"baaf0201","programsCount()":"96a2ddfa","proxiableUUID()":"52d1902d","reinitialize()":"6c2eb350","renounceOwnership()":"715018a6","requestCodeValidation(bytes32,uint256,uint8,bytes32,bytes32)":"8c4ace6a","requestCodeValidationBaseFee()":"188509e9","requestCodeValidationExtraFee()":"f1ef31ec","requestCodeValidationOnBehalf(address,bytes32,bytes32[],uint256,uint8,bytes32,bytes32,uint8,bytes32,bytes32)":"f0fd702a","setMirror(address)":"3d43b418","signingThresholdFraction()":"e3a6684f","storageView()":"c2eb812f","timelines()":"9eb939a8","transferOwnership(address)":"f2fde38b","unpause()":"3f4ba83a","upgradeToAndCall(address,bytes)":"4f1ef286","validatedCodesCount()":"007a32e7","validators()":"ca1e7819","validatorsAggregatedPublicKey()":"3bd109fa","validatorsCount()":"ed612f8c","validatorsThreshold()":"edc87225","validatorsVerifiableSecretSharingCommitment()":"a5d53a44","wrappedVara()":"88f50cf0"},"storageLayout":{"storage":[],"types":{}},"id":165}