{"abi":[{"type":"constructor","inputs":[],"stateMutability":"nonpayable"},{"type":"receive","stateMutability":"payable"},{"type":"function","name":"DOMAIN_SEPARATOR","inputs":[],"outputs":[{"name":"","type":"bytes32","internalType":"bytes32"}],"stateMutability":"view"},{"type":"function","name":"UPGRADE_INTERFACE_VERSION","inputs":[],"outputs":[{"name":"","type":"string","internalType":"string"}],"stateMutability":"view"},{"type":"function","name":"areValidators","inputs":[{"name":"_validators","type":"address[]","internalType":"address[]"}],"outputs":[{"name":"","type":"bool","internalType":"bool"}],"stateMutability":"view"},{"type":"function","name":"codeState","inputs":[{"name":"_codeId","type":"bytes32","internalType":"bytes32"}],"outputs":[{"name":"","type":"uint8","internalType":"enum Gear.CodeState"}],"stateMutability":"view"},{"type":"function","name":"codesStates","inputs":[{"name":"_codesIds","type":"bytes32[]","internalType":"bytes32[]"}],"outputs":[{"name":"","type":"uint8[]","internalType":"enum Gear.CodeState[]"}],"stateMutability":"view"},{"type":"function","name":"commitBatch","inputs":[{"name":"_batch","type":"tuple","internalType":"struct Gear.BatchCommitment","components":[{"name":"blockHash","type":"bytes32","internalType":"bytes32"},{"name":"blockTimestamp","type":"uint48","internalType":"uint48"},{"name":"previousCommittedBatchHash","type":"bytes32","internalType":"bytes32"},{"name":"expiry","type":"uint8","internalType":"uint8"},{"name":"chainCommitment","type":"tuple[]","internalType":"struct Gear.ChainCommitment[]","components":[{"name":"transitions","type":"tuple[]","internalType":"struct Gear.StateTransition[]","components":[{"name":"actorId","type":"address","internalType":"address"},{"name":"newStateHash","type":"bytes32","internalType":"bytes32"},{"name":"exited","type":"bool","internalType":"bool"},{"name":"inheritor","type":"address","internalType":"address"},{"name":"valueToReceive","type":"uint128","internalType":"uint128"},{"name":"valueToReceiveNegativeSign","type":"bool","internalType":"bool"},{"name":"valueClaims","type":"tuple[]","internalType":"struct Gear.ValueClaim[]","components":[{"name":"messageId","type":"bytes32","internalType":"bytes32"},{"name":"destination","type":"address","internalType":"address"},{"name":"value","type":"uint128","internalType":"uint128"}]},{"name":"messages","type":"tuple[]","internalType":"struct Gear.Message[]","components":[{"name":"id","type":"bytes32","internalType":"bytes32"},{"name":"destination","type":"address","internalType":"address"},{"name":"payload","type":"bytes","internalType":"bytes"},{"name":"value","type":"uint128","internalType":"uint128"},{"name":"replyDetails","type":"tuple","internalType":"struct Gear.ReplyDetails","components":[{"name":"to","type":"bytes32","internalType":"bytes32"},{"name":"code","type":"bytes4","internalType":"bytes4"}]},{"name":"call","type":"bool","internalType":"bool"}]}]},{"name":"head","type":"bytes32","internalType":"bytes32"},{"name":"lastAdvancedEthBlock","type":"bytes32","internalType":"bytes32"}]},{"name":"codeCommitments","type":"tuple[]","internalType":"struct Gear.CodeCommitment[]","components":[{"name":"id","type":"bytes32","internalType":"bytes32"},{"name":"valid","type":"bool","internalType":"bool"}]},{"name":"rewardsCommitment","type":"tuple[]","internalType":"struct Gear.RewardsCommitment[]","components":[{"name":"operators","type":"tuple","internalType":"struct Gear.OperatorRewardsCommitment","components":[{"name":"amount","type":"uint256","internalType":"uint256"},{"name":"root","type":"bytes32","internalType":"bytes32"}]},{"name":"stakers","type":"tuple","internalType":"struct Gear.StakerRewardsCommitment","components":[{"name":"distribution","type":"tuple[]","internalType":"struct Gear.StakerRewards[]","components":[{"name":"vault","type":"address","internalType":"address"},{"name":"amount","type":"uint256","internalType":"uint256"}]},{"name":"totalAmount","type":"uint256","internalType":"uint256"},{"name":"token","type":"address","internalType":"address"}]},{"name":"timestamp","type":"uint48","internalType":"uint48"}]},{"name":"validatorsCommitment","type":"tuple[]","internalType":"struct Gear.ValidatorsCommitment[]","components":[{"name":"hasAggregatedPublicKey","type":"bool","internalType":"bool"},{"name":"aggregatedPublicKey","type":"tuple","internalType":"struct Gear.AggregatedPublicKey","components":[{"name":"x","type":"uint256","internalType":"uint256"},{"name":"y","type":"uint256","internalType":"uint256"}]},{"name":"verifiableSecretSharingCommitment","type":"bytes","internalType":"bytes"},{"name":"validators","type":"address[]","internalType":"address[]"},{"name":"eraIndex","type":"uint256","internalType":"uint256"}]}]},{"name":"_signatureType","type":"uint8","internalType":"enum Gear.SignatureType"},{"name":"_signatures","type":"bytes[]","internalType":"bytes[]"}],"outputs":[],"stateMutability":"nonpayable"},{"type":"function","name":"computeSettings","inputs":[],"outputs":[{"name":"","type":"tuple","internalType":"struct Gear.ComputationSettings","components":[{"name":"threshold","type":"uint64","internalType":"uint64"},{"name":"wvaraPerSecond","type":"uint128","internalType":"uint128"}]}],"stateMutability":"view"},{"type":"function","name":"createProgram","inputs":[{"name":"_codeId","type":"bytes32","internalType":"bytes32"},{"name":"_salt","type":"bytes32","internalType":"bytes32"},{"name":"_overrideInitializer","type":"address","internalType":"address"}],"outputs":[{"name":"","type":"address","internalType":"address"}],"stateMutability":"nonpayable"},{"type":"function","name":"createProgramWithAbiInterface","inputs":[{"name":"_codeId","type":"bytes32","internalType":"bytes32"},{"name":"_salt","type":"bytes32","internalType":"bytes32"},{"name":"_overrideInitializer","type":"address","internalType":"address"},{"name":"_abiInterface","type":"address","internalType":"address"}],"outputs":[{"name":"","type":"address","internalType":"address"}],"stateMutability":"nonpayable"},{"type":"function","name":"createProgramWithAbiInterfaceAndExecutableBalance","inputs":[{"name":"_codeId","type":"bytes32","internalType":"bytes32"},{"name":"_salt","type":"bytes32","internalType":"bytes32"},{"name":"_overrideInitializer","type":"address","internalType":"address"},{"name":"_abiInterface","type":"address","internalType":"address"},{"name":"_initialExecutableBalance","type":"uint128","internalType":"uint128"},{"name":"_deadline","type":"uint256","internalType":"uint256"},{"name":"_v","type":"uint8","internalType":"uint8"},{"name":"_r","type":"bytes32","internalType":"bytes32"},{"name":"_s","type":"bytes32","internalType":"bytes32"}],"outputs":[{"name":"","type":"address","internalType":"address"}],"stateMutability":"nonpayable"},{"type":"function","name":"createProgramWithExecutableBalance","inputs":[{"name":"_codeId","type":"bytes32","internalType":"bytes32"},{"name":"_salt","type":"bytes32","internalType":"bytes32"},{"name":"_overrideInitializer","type":"address","internalType":"address"},{"name":"_initialExecutableBalance","type":"uint128","internalType":"uint128"},{"name":"_deadline","type":"uint256","internalType":"uint256"},{"name":"_v","type":"uint8","internalType":"uint8"},{"name":"_r","type":"bytes32","internalType":"bytes32"},{"name":"_s","type":"bytes32","internalType":"bytes32"}],"outputs":[{"name":"","type":"address","internalType":"address"}],"stateMutability":"nonpayable"},{"type":"function","name":"eip712Domain","inputs":[],"outputs":[{"name":"fields","type":"bytes1","internalType":"bytes1"},{"name":"name","type":"string","internalType":"string"},{"name":"version","type":"string","internalType":"string"},{"name":"chainId","type":"uint256","internalType":"uint256"},{"name":"verifyingContract","type":"address","internalType":"address"},{"name":"salt","type":"bytes32","internalType":"bytes32"},{"name":"extensions","type":"uint256[]","internalType":"uint256[]"}],"stateMutability":"view"},{"type":"function","name":"genesisBlockHash","inputs":[],"outputs":[{"name":"","type":"bytes32","internalType":"bytes32"}],"stateMutability":"view"},{"type":"function","name":"genesisTimestamp","inputs":[],"outputs":[{"name":"","type":"uint48","internalType":"uint48"}],"stateMutability":"view"},{"type":"function","name":"initialize","inputs":[{"name":"_owner","type":"address","internalType":"address"},{"name":"_mirror","type":"address","internalType":"address"},{"name":"_wrappedVara","type":"address","internalType":"address"},{"name":"_middleware","type":"address","internalType":"address"},{"name":"_eraDuration","type":"uint256","internalType":"uint256"},{"name":"_electionDuration","type":"uint256","internalType":"uint256"},{"name":"_validationDelay","type":"uint256","internalType":"uint256"},{"name":"_aggregatedPublicKey","type":"tuple","internalType":"struct Gear.AggregatedPublicKey","components":[{"name":"x","type":"uint256","internalType":"uint256"},{"name":"y","type":"uint256","internalType":"uint256"}]},{"name":"_verifiableSecretSharingCommitment","type":"bytes","internalType":"bytes"},{"name":"_validators","type":"address[]","internalType":"address[]"}],"outputs":[],"stateMutability":"nonpayable"},{"type":"function","name":"isValidator","inputs":[{"name":"_validator","type":"address","internalType":"address"}],"outputs":[{"name":"","type":"bool","internalType":"bool"}],"stateMutability":"view"},{"type":"function","name":"latestCommittedBatchHash","inputs":[],"outputs":[{"name":"","type":"bytes32","internalType":"bytes32"}],"stateMutability":"view"},{"type":"function","name":"latestCommittedBatchTimestamp","inputs":[],"outputs":[{"name":"","type":"uint48","internalType":"uint48"}],"stateMutability":"view"},{"type":"function","name":"lookupGenesisHash","inputs":[],"outputs":[],"stateMutability":"nonpayable"},{"type":"function","name":"middleware","inputs":[],"outputs":[{"name":"","type":"address","internalType":"address"}],"stateMutability":"view"},{"type":"function","name":"mirrorImpl","inputs":[],"outputs":[{"name":"","type":"address","internalType":"address"}],"stateMutability":"view"},{"type":"function","name":"nonces","inputs":[{"name":"owner","type":"address","internalType":"address"}],"outputs":[{"name":"","type":"uint256","internalType":"uint256"}],"stateMutability":"view"},{"type":"function","name":"owner","inputs":[],"outputs":[{"name":"","type":"address","internalType":"address"}],"stateMutability":"view"},{"type":"function","name":"pause","inputs":[],"outputs":[],"stateMutability":"nonpayable"},{"type":"function","name":"paused","inputs":[],"outputs":[{"name":"","type":"bool","internalType":"bool"}],"stateMutability":"view"},{"type":"function","name":"programCodeId","inputs":[{"name":"_programId","type":"address","internalType":"address"}],"outputs":[{"name":"","type":"bytes32","internalType":"bytes32"}],"stateMutability":"view"},{"type":"function","name":"programsCodeIds","inputs":[{"name":"_programsIds","type":"address[]","internalType":"address[]"}],"outputs":[{"name":"","type":"bytes32[]","internalType":"bytes32[]"}],"stateMutability":"view"},{"type":"function","name":"programsCount","inputs":[],"outputs":[{"name":"","type":"uint256","internalType":"uint256"}],"stateMutability":"view"},{"type":"function","name":"protocolVersion","inputs":[],"outputs":[{"name":"","type":"uint256","internalType":"uint256"}],"stateMutability":"view"},{"type":"function","name":"proxiableUUID","inputs":[],"outputs":[{"name":"","type":"bytes32","internalType":"bytes32"}],"stateMutability":"view"},{"type":"function","name":"reinitialize","inputs":[],"outputs":[],"stateMutability":"nonpayable"},{"type":"function","name":"renounceOwnership","inputs":[],"outputs":[],"stateMutability":"nonpayable"},{"type":"function","name":"requestCodeValidation","inputs":[{"name":"_codeId","type":"bytes32","internalType":"bytes32"},{"name":"_deadline","type":"uint256","internalType":"uint256"},{"name":"_v","type":"uint8","internalType":"uint8"},{"name":"_r","type":"bytes32","internalType":"bytes32"},{"name":"_s","type":"bytes32","internalType":"bytes32"}],"outputs":[],"stateMutability":"nonpayable"},{"type":"function","name":"requestCodeValidationBaseFee","inputs":[],"outputs":[{"name":"","type":"uint256","internalType":"uint256"}],"stateMutability":"view"},{"type":"function","name":"requestCodeValidationExtraFee","inputs":[],"outputs":[{"name":"","type":"uint256","internalType":"uint256"}],"stateMutability":"view"},{"type":"function","name":"requestCodeValidationOnBehalf","inputs":[{"name":"_requester","type":"address","internalType":"address"},{"name":"_codeId","type":"bytes32","internalType":"bytes32"},{"name":"_blobHashes","type":"bytes32[]","internalType":"bytes32[]"},{"name":"_deadline","type":"uint256","internalType":"uint256"},{"name":"_v1","type":"uint8","internalType":"uint8"},{"name":"_r1","type":"bytes32","internalType":"bytes32"},{"name":"_s1","type":"bytes32","internalType":"bytes32"},{"name":"_v2","type":"uint8","internalType":"uint8"},{"name":"_r2","type":"bytes32","internalType":"bytes32"},{"name":"_s2","type":"bytes32","internalType":"bytes32"}],"outputs":[],"stateMutability":"nonpayable"},{"type":"function","name":"setMirror","inputs":[{"name":"newMirror","type":"address","internalType":"address"}],"outputs":[],"stateMutability":"nonpayable"},{"type":"function","name":"setProtocolVersion","inputs":[{"name":"newProtocolVersion","type":"uint256","internalType":"uint256"}],"outputs":[],"stateMutability":"nonpayable"},{"type":"function","name":"setRequestCodeValidationBaseFee","inputs":[{"name":"newBaseFee","type":"uint256","internalType":"uint256"}],"outputs":[],"stateMutability":"nonpayable"},{"type":"function","name":"setRequestCodeValidationExtraFee","inputs":[{"name":"newExtraFee","type":"uint256","internalType":"uint256"}],"outputs":[],"stateMutability":"nonpayable"},{"type":"function","name":"signingThresholdFraction","inputs":[],"outputs":[{"name":"thresholdNumerator","type":"uint128","internalType":"uint128"},{"name":"thresholdDenominator","type":"uint128","internalType":"uint128"}],"stateMutability":"view"},{"type":"function","name":"storageView","inputs":[],"outputs":[{"name":"","type":"tuple","internalType":"struct IRouter.StorageView","components":[{"name":"genesisBlock","type":"tuple","internalType":"struct Gear.GenesisBlockInfo","components":[{"name":"hash","type":"bytes32","internalType":"bytes32"},{"name":"number","type":"uint32","internalType":"uint32"},{"name":"timestamp","type":"uint48","internalType":"uint48"}]},{"name":"latestCommittedBatch","type":"tuple","internalType":"struct Gear.CommittedBatchInfo","components":[{"name":"hash","type":"bytes32","internalType":"bytes32"},{"name":"timestamp","type":"uint48","internalType":"uint48"}]},{"name":"implAddresses","type":"tuple","internalType":"struct Gear.AddressBook","components":[{"name":"mirror","type":"address","internalType":"address"},{"name":"wrappedVara","type":"address","internalType":"address"},{"name":"middleware","type":"address","internalType":"address"}]},{"name":"validationSettings","type":"tuple","internalType":"struct Gear.ValidationSettingsView","components":[{"name":"thresholdNumerator","type":"uint128","internalType":"uint128"},{"name":"thresholdDenominator","type":"uint128","internalType":"uint128"},{"name":"validators0","type":"tuple","internalType":"struct Gear.ValidatorsView","components":[{"name":"aggregatedPublicKey","type":"tuple","internalType":"struct Gear.AggregatedPublicKey","components":[{"name":"x","type":"uint256","internalType":"uint256"},{"name":"y","type":"uint256","internalType":"uint256"}]},{"name":"verifiableSecretSharingCommitmentPointer","type":"address","internalType":"address"},{"name":"list","type":"address[]","internalType":"address[]"},{"name":"useFromTimestamp","type":"uint256","internalType":"uint256"}]},{"name":"validators1","type":"tuple","internalType":"struct Gear.ValidatorsView","components":[{"name":"aggregatedPublicKey","type":"tuple","internalType":"struct Gear.AggregatedPublicKey","components":[{"name":"x","type":"uint256","internalType":"uint256"},{"name":"y","type":"uint256","internalType":"uint256"}]},{"name":"verifiableSecretSharingCommitmentPointer","type":"address","internalType":"address"},{"name":"list","type":"address[]","internalType":"address[]"},{"name":"useFromTimestamp","type":"uint256","internalType":"uint256"}]}]},{"name":"computeSettings","type":"tuple","internalType":"struct Gear.ComputationSettings","components":[{"name":"threshold","type":"uint64","internalType":"uint64"},{"name":"wvaraPerSecond","type":"uint128","internalType":"uint128"}]},{"name":"timelines","type":"tuple","internalType":"struct Gear.Timelines","components":[{"name":"era","type":"uint256","internalType":"uint256"},{"name":"election","type":"uint256","internalType":"uint256"},{"name":"validationDelay","type":"uint256","internalType":"uint256"}]},{"name":"programsCount","type":"uint256","internalType":"uint256"},{"name":"validatedCodesCount","type":"uint256","internalType":"uint256"},{"name":"maxValidators","type":"uint16","internalType":"uint16"},{"name":"requestCodeValidationBaseFee","type":"uint256","internalType":"uint256"},{"name":"requestCodeValidationExtraFee","type":"uint256","internalType":"uint256"},{"name":"protocolVersion","type":"uint256","internalType":"uint256"}]}],"stateMutability":"view"},{"type":"function","name":"timelines","inputs":[],"outputs":[{"name":"","type":"tuple","internalType":"struct Gear.Timelines","components":[{"name":"era","type":"uint256","internalType":"uint256"},{"name":"election","type":"uint256","internalType":"uint256"},{"name":"validationDelay","type":"uint256","internalType":"uint256"}]}],"stateMutability":"view"},{"type":"function","name":"transferOwnership","inputs":[{"name":"newOwner","type":"address","internalType":"address"}],"outputs":[],"stateMutability":"nonpayable"},{"type":"function","name":"unpause","inputs":[],"outputs":[],"stateMutability":"nonpayable"},{"type":"function","name":"upgradeToAndCall","inputs":[{"name":"newImplementation","type":"address","internalType":"address"},{"name":"data","type":"bytes","internalType":"bytes"}],"outputs":[],"stateMutability":"payable"},{"type":"function","name":"validatedCodesCount","inputs":[],"outputs":[{"name":"","type":"uint256","internalType":"uint256"}],"stateMutability":"view"},{"type":"function","name":"validators","inputs":[],"outputs":[{"name":"","type":"address[]","internalType":"address[]"}],"stateMutability":"view"},{"type":"function","name":"validatorsAggregatedPublicKey","inputs":[],"outputs":[{"name":"","type":"tuple","internalType":"struct Gear.AggregatedPublicKey","components":[{"name":"x","type":"uint256","internalType":"uint256"},{"name":"y","type":"uint256","internalType":"uint256"}]}],"stateMutability":"view"},{"type":"function","name":"validatorsCount","inputs":[],"outputs":[{"name":"","type":"uint256","internalType":"uint256"}],"stateMutability":"view"},{"type":"function","name":"validatorsThreshold","inputs":[],"outputs":[{"name":"","type":"uint256","internalType":"uint256"}],"stateMutability":"view"},{"type":"function","name":"validatorsVerifiableSecretSharingCommitment","inputs":[],"outputs":[{"name":"","type":"bytes","internalType":"bytes"}],"stateMutability":"view"},{"type":"function","name":"wrappedVara","inputs":[],"outputs":[{"name":"","type":"address","internalType":"address"}],"stateMutability":"view"},{"type":"event","name":"BatchCommitted","inputs":[{"name":"hash","type":"bytes32","indexed":false,"internalType":"bytes32"}],"anonymous":false},{"type":"event","name":"CodeGotValidated","inputs":[{"name":"codeId","type":"bytes32","indexed":false,"internalType":"bytes32"},{"name":"valid","type":"bool","indexed":true,"internalType":"bool"}],"anonymous":false},{"type":"event","name":"CodeValidationRequested","inputs":[{"name":"codeId","type":"bytes32","indexed":false,"internalType":"bytes32"}],"anonymous":false},{"type":"event","name":"ComputationSettingsChanged","inputs":[{"name":"threshold","type":"uint64","indexed":false,"internalType":"uint64"},{"name":"wvaraPerSecond","type":"uint128","indexed":false,"internalType":"uint128"}],"anonymous":false},{"type":"event","name":"EBCommitted","inputs":[{"name":"ethBlockHash","type":"bytes32","indexed":false,"internalType":"bytes32"}],"anonymous":false},{"type":"event","name":"EIP712DomainChanged","inputs":[],"anonymous":false},{"type":"event","name":"Initialized","inputs":[{"name":"version","type":"uint64","indexed":false,"internalType":"uint64"}],"anonymous":false},{"type":"event","name":"MBCommitted","inputs":[{"name":"head","type":"bytes32","indexed":false,"internalType":"bytes32"}],"anonymous":false},{"type":"event","name":"OwnershipTransferred","inputs":[{"name":"previousOwner","type":"address","indexed":true,"internalType":"address"},{"name":"newOwner","type":"address","indexed":true,"internalType":"address"}],"anonymous":false},{"type":"event","name":"Paused","inputs":[{"name":"account","type":"address","indexed":false,"internalType":"address"}],"anonymous":false},{"type":"event","name":"ProgramCreated","inputs":[{"name":"actorId","type":"address","indexed":false,"internalType":"address"},{"name":"codeId","type":"bytes32","indexed":true,"internalType":"bytes32"}],"anonymous":false},{"type":"event","name":"ProtocolVersionChanged","inputs":[{"name":"newProtocolVersion","type":"uint256","indexed":false,"internalType":"uint256"}],"anonymous":false},{"type":"event","name":"StorageSlotChanged","inputs":[{"name":"slot","type":"bytes32","indexed":false,"internalType":"bytes32"}],"anonymous":false},{"type":"event","name":"Unpaused","inputs":[{"name":"account","type":"address","indexed":false,"internalType":"address"}],"anonymous":false},{"type":"event","name":"Upgraded","inputs":[{"name":"implementation","type":"address","indexed":true,"internalType":"address"}],"anonymous":false},{"type":"event","name":"ValidatorsCommittedForEra","inputs":[{"name":"eraIndex","type":"uint256","indexed":false,"internalType":"uint256"}],"anonymous":false},{"type":"error","name":"AddressEmptyCode","inputs":[{"name":"target","type":"address","internalType":"address"}]},{"type":"error","name":"ApproveERC20Failed","inputs":[]},{"type":"error","name":"BatchTimestampNotInPast","inputs":[]},{"type":"error","name":"BatchTimestampTooEarly","inputs":[]},{"type":"error","name":"BlobNotFound","inputs":[]},{"type":"error","name":"CodeAlreadyOnValidationOrValidated","inputs":[]},{"type":"error","name":"CodeNotValidated","inputs":[]},{"type":"error","name":"CodeValidationNotRequested","inputs":[]},{"type":"error","name":"CommitmentEraNotNext","inputs":[]},{"type":"error","name":"ECDSAInvalidSignature","inputs":[]},{"type":"error","name":"ECDSAInvalidSignatureLength","inputs":[{"name":"length","type":"uint256","internalType":"uint256"}]},{"type":"error","name":"ECDSAInvalidSignatureS","inputs":[{"name":"s","type":"bytes32","internalType":"bytes32"}]},{"type":"error","name":"ERC1967InvalidImplementation","inputs":[{"name":"implementation","type":"address","internalType":"address"}]},{"type":"error","name":"ERC1967NonPayable","inputs":[]},{"type":"error","name":"ElectionNotStarted","inputs":[]},{"type":"error","name":"EmptyValidatorsList","inputs":[]},{"type":"error","name":"EnforcedPause","inputs":[]},{"type":"error","name":"EraDurationTooShort","inputs":[]},{"type":"error","name":"ErasTimestampMustNotBeEqual","inputs":[]},{"type":"error","name":"ExpectedPause","inputs":[]},{"type":"error","name":"ExpiredSignature","inputs":[{"name":"deadline","type":"uint256","internalType":"uint256"}]},{"type":"error","name":"FailedCall","inputs":[]},{"type":"error","name":"GenesisHashAlreadySet","inputs":[]},{"type":"error","name":"GenesisHashNotFound","inputs":[]},{"type":"error","name":"InvalidAccountNonce","inputs":[{"name":"account","type":"address","internalType":"address"},{"name":"currentNonce","type":"uint256","internalType":"uint256"}]},{"type":"error","name":"InvalidBlobHash","inputs":[{"name":"index","type":"uint256","internalType":"uint256"},{"name":"providedBlobHash","type":"bytes32","internalType":"bytes32"},{"name":"expectedBlobHash","type":"bytes32","internalType":"bytes32"}]},{"type":"error","name":"InvalidBlobHashesLength","inputs":[{"name":"providedLength","type":"uint256","internalType":"uint256"},{"name":"expectedLength","type":"uint256","internalType":"uint256"}]},{"type":"error","name":"InvalidElectionDuration","inputs":[]},{"type":"error","name":"InvalidFROSTAggregatedPublicKey","inputs":[]},{"type":"error","name":"InvalidFrostSignatureCount","inputs":[]},{"type":"error","name":"InvalidFrostSignatureLength","inputs":[]},{"type":"error","name":"InvalidInitialization","inputs":[]},{"type":"error","name":"InvalidPreviousCommittedBatchHash","inputs":[]},{"type":"error","name":"InvalidSigner","inputs":[{"name":"signer","type":"address","internalType":"address"},{"name":"requester","type":"address","internalType":"address"}]},{"type":"error","name":"InvalidTimestamp","inputs":[]},{"type":"error","name":"NotInitializing","inputs":[]},{"type":"error","name":"OwnableInvalidOwner","inputs":[{"name":"owner","type":"address","internalType":"address"}]},{"type":"error","name":"OwnableUnauthorizedAccount","inputs":[{"name":"account","type":"address","internalType":"address"}]},{"type":"error","name":"PredecessorBlockNotFound","inputs":[]},{"type":"error","name":"ReentrancyGuardReentrantCall","inputs":[]},{"type":"error","name":"RewardsCommitmentEraNotPrevious","inputs":[]},{"type":"error","name":"RewardsCommitmentPredatesGenesis","inputs":[]},{"type":"error","name":"RewardsCommitmentTimestampNotInPast","inputs":[]},{"type":"error","name":"RouterGenesisHashNotInitialized","inputs":[]},{"type":"error","name":"SafeCastOverflowedUintDowncast","inputs":[{"name":"bits","type":"uint8","internalType":"uint8"},{"name":"value","type":"uint256","internalType":"uint256"}]},{"type":"error","name":"SignatureVerificationFailed","inputs":[]},{"type":"error","name":"TimestampInFuture","inputs":[]},{"type":"error","name":"TimestampOlderThanPreviousEra","inputs":[]},{"type":"error","name":"TooManyChainCommitments","inputs":[]},{"type":"error","name":"TooManyRewardsCommitments","inputs":[]},{"type":"error","name":"TooManyValidatorsCommitments","inputs":[]},{"type":"error","name":"TransferFromFailed","inputs":[]},{"type":"error","name":"UUPSUnauthorizedCallContext","inputs":[]},{"type":"error","name":"UUPSUnsupportedProxiableUUID","inputs":[{"name":"slot","type":"bytes32","internalType":"bytes32"}]},{"type":"error","name":"UnknownProgram","inputs":[]},{"type":"error","name":"ValidationBeforeGenesis","inputs":[]},{"type":"error","name":"ValidationDelayTooBig","inputs":[]},{"type":"error","name":"ValidatorsAlreadyScheduled","inputs":[]},{"type":"error","name":"ValidatorsNotFoundForTimestamp","inputs":[]},{"type":"error","name":"ZeroValueTransfer","inputs":[]}],"bytecode":{"object":"0x60a080604052346100c257306080525f516020615d615f395f51905f525460ff8160401c166100b3576002600160401b03196001600160401b03821601610060575b604051615c9a90816100c7823960805181818161294e01526129e10152f35b6001600160401b0319166001600160401b039081175f516020615d615f395f51905f525581527fc7f505b2f371ae2175ee4913f4499e1f2633a7b5936321eed1cdaeb6115181d290602090a15f80610041565b63f92ee8a960e01b5f5260045ffd5b5f80fdfe6080806040526004361015610091575b50361561001a575f80fd5b610022613d06565b5f516020615c1a5f395f51905f5254600181015415610082576001600160801b0334161561007357335f908152601a9190910160205260409020541561006457005b63821a62f560e01b5f5260045ffd5b63a1a7c6eb60e01b5f5260045ffd5b63580683f360e01b5f5260045ffd5b5f905f3560e01c9081627a32e7146135ac575080630b9737ce146135795780630c18d277146134ae5780630d91bf2a146132e057806311bec80d146132ad5780631622441d14612e3a578063188509e914612e0c57806328e24b3d14612dde5780632ae9c60014612db15780633644e51514612d965780633683c4d214612cd95780633bd109fa14612c8a5780633d43b41814612c365780633f4ba83a14612bb65780634f1ef286146129a257806352d1902d1461293b57806353f7fd4814611f0f5780635c975abb14611ee05780636c2eb35014611929578063715018a6146118c057806371a8cf2d146118925780637ecebe001461183a57806382bdeaad146117225780638456cb59146116af57806384b0196e1461158757806384d22a4f1461152957806388f50cf0146114f05780638b1edf1e146114915780638c4ace6a146113225780638da5cb5b146112ed5780638f381dbe146112a75780639067088e1461125e57806396a2ddfa146112305780639eb939a8146111d9578063a5d53a4414611159578063ad3cb1cc14611110578063baaf020114611013578063c13911e814610fcf578063c2eb812f14610c2b578063ca1e781914610bdb578063cacf66ab14610ba3578063ceba559814610b46578063d456fd5114610b10578063e3a6684f14610ad1578063e6fabc0914610a98578063ed612f8c14610a60578063edc8722514610a0b578063ee32004f14610825578063f0fd702a146103cd578063f1ef31ec1461039f578063f2fde38b14610372578063f4f20ac0146103395763facd743b0361000f5734610336576020366003190112610336576102f8613602565b60036103135f516020615c1a5f395f51905f5254429061564a565b019060018060a01b03165f52602052602060ff60405f2054166040519015158152f35b80fd5b50346103365780600319360112610336575f516020615c1a5f395f51905f5254600701546040516001600160a01b039091168152602090f35b50346103365760203660031901126103365761039c61038f613602565b610397613cd3565b613c62565b80f35b50346103365780600319360112610336576020601f5f516020615c1a5f395f51905f52540154604051908152f35b503461033657610140366003190112610336576103e8613602565b602435906044356001600160401b0381116108215761040b903690600401613640565b90916064359060843560ff8116810361081d5760e4359060ff8216820361081957610434613d06565b87491561080a575f516020615c1a5f395f51905f5254946001860154156107fb576019860196888a528760205260ff60408b20541660038110156107e7576107d857895b80496107ca578083036107b35750895b82811061076c57508542116107585760405160208101906001600160fb1b038411610754576104d360208261059e956105a79760051b8091873781010301601f1981018352826136f1565b5190209260018060a01b03861693848c527f5ab42ced628888259c08ac98db1eb0cf702fc1501344311d8b100cd1bfe4bb0060205260408c208054906001820190556040519060208201927f375d2ef9b9e33c640a295f53873dc74833c3d019f349464ce2fe8899962b809784528760408401528d6060840152608083015260a08201528860c082015260c0815261056c60e0826136f1565b519020610577615812565b906040519161190160f01b83526002830152602282015260c43591604260a43592206158f3565b90929192615975565b6001600160a01b031681810361073f57505086906105dc60018060a01b0360068701541695601f601e82015491015490613c55565b93853b1561073b5760405163d505accf60e01b81526001600160a01b038516600482015230602482015260448101869052606481019190915260ff9190911660848201526101043560a48201526101243560c4820152818160e48183895af161071e575b506040516323b872dd60e01b81526001600160a01b039092166004830152306024830152604482019290925291602091839190829081606481015b03925af19081156107135784916106e4575b50156106d55781835260209081526040808420805460ff19166001179055519182527f5c261a095dd5720475295dc06379921c003c22164ee6cae5cf83e76ce0a1b98591a180f35b631e4e7d0960e21b8352600483fd5b610706915060203d60201161070c575b6106fe81836136f1565b810190613893565b5f61068d565b503d6106f4565b6040513d86823e3d90fd5b8161072b919493946136f1565b6107375790855f610640565b8580fd5b8280fd5b637ba5ffb560e01b8952600452602452604487fd5b8b80fd5b632f4aa44f60e21b8a52600486905260248afd5b80498061077a838686613a5d565b3514610787838686613a5d565b359015610798575050600101610488565b606493508c926306f2f0e760e21b8452600452602452604452fd5b635cfa404d60e11b8b52600483905260245260448afd5b6107d390613c47565b610478565b6304c51a3360e31b8a5260048afd5b634e487b7160e01b8b52602160045260248bfd5b63580683f360e01b8952600489fd5b637bb2fa2f60e11b8852600488fd5b8780fd5b8680fd5b8380fd5b503461033657610120366003190112610336576108406135d6565b6108486135ec565b6084356001600160801b038116908181036109b3578460c43560ff811681036109a457610873613d06565b610881602435600435613d2d565b6006015490936001600160a01b0390911691823b15610821576108c98480926040518093819263d505accf60e01b8352610104359060e4359060a4358a303360048901613849565b038183885af16109f6575b50506040516323b872dd60e01b81523360048201523060248201526001600160801b039190911660448201529160209183916064918391905af19081156109eb5786916109cc575b50156109bd576001600160a01b03908116939081166109b7575033915b833b156109b357604051635fd142bb60e11b81526001600160a01b03938416600482015292166024830152604482018490526064820152828160848183865af180156109a85761098f575b602082604051908152f35b61099a8380926136f1565b6109a45781610984565b5080fd5b6040513d85823e3d90fd5b8480fd5b91610939565b631e4e7d0960e21b8552600485fd5b6109e5915060203d60201161070c576106fe81836136f1565b5f61091c565b6040513d88823e3d90fd5b81610a00916136f1565b61073b57825f6108d4565b50346103365780600319360112610336576020610a585f516020615c1a5f395f51905f525460086004610a3e428461564a565b0154910154906001600160801b038260801c9216906155a3565b604051908152f35b503461033657806003193601126103365760206004610a8e5f516020615c1a5f395f51905f5254429061564a565b0154604051908152f35b50346103365780600319360112610336575f516020615c1a5f395f51905f5254600501546040516001600160a01b039091168152602090f35b5034610336578060031936011261033657604060085f516020615c1a5f395f51905f525401548151906001600160801b038116825260801c6020820152f35b5034610336578060031936011261033657602065ffffffffffff60045f516020615c1a5f395f51905f5254015416604051908152f35b5034610336576020366003190112610336577f60e5a0cd4e467d80fbdaaf85873a02b09330ec141877522528ce5ae2bd8825ec6020600435610b86613cd3565b80825f516020615c1a5f395f51905f52540155604051908152a180f35b5034610336578060031936011261033657602065ffffffffffff60025f516020615c1a5f395f51905f52540154821c16604051908152f35b5034610336578060031936011261033657610c27610c136004610c0d5f516020615c1a5f395f51905f5254429061564a565b01613bf4565b6040519182916020835260208301906137c6565b0390f35b5034610336578060031936011261033657604051610c48816136ba565b610c50613b43565b8152604051610c5e8161369f565b5f8152602081015f90526020820152610c75613b43565b6040820152610c82613bc1565b6060820152604051610c938161369f565b5f80825260208201526080820152610ca9613b43565b60a08201528160c08201528160e082015281610100820152816101208201528161014082015261016001525f516020615c1a5f395f51905f5254610ceb613bc1565b50610cf86009820161589e565b90610d05600f820161589e565b60088201549260405193610d18856136d6565b6001600160801b038116855260801c602085015260408401526060830152601b81015490601c810154601d82015461ffff16601e830154601f8401549160208501549360405196610d68886136ba565b604051610d7481613670565b60018801548152600288015463ffffffff8116602083015260201c65ffffffffffff166040820152885260405198610dab8a61369f565b60038801548a52600488015465ffffffffffff1660208b015260208901998a5260405190610dd882613670565b60058901546001600160a01b03908116835260068a01548116602084015260078a0154166040808401919091528a0191825260608a01908152610e1d60158a01613a95565b9860808b01998a52601601610e3190613b61565b9160a08b0192835260c08b0193845260e08b019485526101008b019586526101208b019687526101408b019788526101608b019889526040519b8c9b60208d52518c815190602001528c602082015163ffffffff1690604001526040015165ffffffffffff1660608d015251805160808d01526020015165ffffffffffff1660a08c015251600160a01b6001900381511660c08c0152600160a01b6001900360208201511660e08c0152600160a01b600190039060400151166101008b0152516101208a01610280905280516001600160801b03166102a08b015260208101516001600160801b03166102c08b015260408101516102e08b01608090526103208b01610f3c91613802565b90606001519061029f198b8203016103008c0152610f5991613802565b975180516001600160401b03166101408b0152602001516001600160801b03166101608a01525180516101808a015260208101516101a08a0152604001516101c0890152516101e0880152516102008701525161ffff166102208601525161024085015251610260840152516102808301520390f35b50346103365760203660031901126103365760ff604060209260195f516020615c1a5f395f51905f525401600435825284522054166110116040518092613781565bf35b5034610336576020366003190112610336576004356001600160401b0381116109a457611044903690600401613640565b905f516020615c1a5f395f51905f52549061105e836139f2565b9161106c60405193846136f1565b838352611078846139f2565b602084019490601f1901368637601a869201915b8181106110d757868587604051928392602084019060208552518091526040840192915b8181106110be575050500390f35b82518452859450602093840193909201916001016110b0565b806110ed6110e86001938588613a5d565b613ac3565b828060a01b03165f528360205260405f20546111098288613a81565b520161108c565b503461033657806003193601126103365750610c276040516111336040826136f1565b60058152640352e302e360dc1b60208201526040519182916020835260208301906137a2565b50346103365780600319360112610336575f516020615c1a5f395f51905f52546001600160a01b039060029061119090429061564a565b0154166040519182915f19813b0164ffffffffff16916021830191601f8501903c8082520190604082019182604052602083526111d4603f199260608301906137a2565b030190f35b50346103365780600319360112610336576111f2613b43565b50606061120f60165f516020615c1a5f395f51905f525401613b61565b61101160405180926040809180518452602081015160208501520151910152565b50346103365780600319360112610336576020601b5f516020615c1a5f395f51905f52540154604051908152f35b503461033657602036600319011261033657611278613602565b601a5f516020615c1a5f395f51905f5254019060018060a01b03165f52602052602060405f2054604051908152f35b503461033657602036600319011261033657600435906001600160401b0382116103365760206112e36112dd3660048601613640565b90613ad7565b6040519015158152f35b50346103365780600319360112610336575f516020615b9a5f395f51905f52546040516001600160a01b039091168152602090f35b50346103365760a03660031901126103365760043560443560ff8116810361073b5761134c613d06565b824915611482575f516020615c1a5f395f51905f52546001810154156114735760198101918385528260205260ff604086205416600381101561145f57611450576006820154601e9092015485926001600160a01b031691823b156108215760405163d505accf60e01b815233600482015230602480830191909152604482018490523560648083019190915260ff92909216608480830191909152913560a4820152903560c48201528390818160e48183885af161143b575b50506040516323b872dd60e01b815233600482015230602482015260448101919091529160209183918290816064810161067b565b81611445916136f1565b61073b57825f611406565b6304c51a3360e31b8552600485fd5b634e487b7160e01b86526021600452602486fd5b63580683f360e01b8452600484fd5b637bb2fa2f60e11b8352600483fd5b50346103365780600319360112610336575f516020615c1a5f395f51905f5254600181019081546114e1576002015463ffffffff16409081156114d2575580f35b63f7bac7b560e01b8352600483fd5b6309476b0360e41b8352600483fd5b50346103365780600319360112610336575f516020615c1a5f395f51905f5254600601546040516001600160a01b039091168152602090f35b50346103365780600319360112610336576115426138cc565b50604061155f60155f516020615c1a5f395f51905f525401613a95565b611011825180926001600160801b03602080926001600160401b038151168552015116910152565b50346103365780600319360112610336575f516020615bda5f395f51905f52541580611699575b1561165c57611600906115bf615429565b906115c86154f6565b90602061160e604051936115dc83866136f1565b8385525f368137604051968796600f60f81b885260e08589015260e08801906137a2565b9086820360408801526137a2565b904660608601523060808601528260a086015284820360c08601528080855193848152019401925b82811061164557505050500390f35b835185528695509381019392810192600101611636565b60405162461bcd60e51b81526020600482015260156024820152741152540dcc4c8e88155b9a5b9a5d1a585b1a5e9959605a1b6044820152606490fd5b505f516020615c7a5f395f51905f5254156115ae565b50346103365780600319360112610336576116c8613cd3565b6116d0613d06565b600160ff195f516020615c3a5f395f51905f525416175f516020615c3a5f395f51905f52557f62e78cea01bee320cd4e420270b5ea74000d11b0c9f74754ebdbfc544b05a2586020604051338152a180f35b5034610336576020366003190112610336576004356001600160401b0381116109a457611753903690600401613640565b905f516020615c1a5f395f51905f52549061176d836139f2565b9161177b60405193846136f1565b838352611787846139f2565b602084019490601f19013686376019869201915b8181106117f057868587604051928392602084019060208552518091526040840192915b8181106117cd575050500390f35b91935091602080826117e26001948851613781565b0194019101918493926117bf565b6117fb818386613a5d565b3587528260205260ff6040882054166118148287613a81565b6003821015611826575260010161179b565b634e487b7160e01b89526021600452602489fd5b5034610336576020366003190112610336576020906040906001600160a01b03611862613602565b1681527f5ab42ced628888259c08ac98db1eb0cf702fc1501344311d8b100cd1bfe4bb0083522054604051908152f35b5034610336578060031936011261033657602060035f516020615c1a5f395f51905f52540154604051908152f35b50346103365780600319360112610336576118d9613cd3565b5f516020615b9a5f395f51905f5280546001600160a01b0319811690915581906001600160a01b03167f8be0079c531659141344cd1fd0a4f28419497f9722a3daafe3b4186f6b6457e08280a380f35b5034610336578060031936011261033657611942613cd3565b5f516020615c5a5f395f51905f525460ff8160401c16908115611ecb575b50611ebc575f516020615c5a5f395f51905f52805468ffffffffffffffffff1916680100000000000000051790555f516020615b9a5f395f51905f52546119ba906001600160a01b03166119b2615873565b610397615873565b6119c2613902565b906119cb61392f565b906119d4615873565b6119dc615873565b82516001600160401b038111611dbf57611a035f516020615b7a5f395f51905f52546153f1565b601f8111611e58575b506020601f8211600114611dde57829394829392611dd3575b50508160011b915f199060031b1c1916175f516020615b7a5f395f51905f52555b81516001600160401b038111611dbf57611a6d5f516020615bba5f395f51905f52546153f1565b601f8111611d52575b50602092601f8211600114611cd957928293829392611cce575b50508160011b915f199060031b1c1916175f516020615bba5f395f51905f52555b805f516020615bda5f395f51905f5255805f516020615c7a5f395f51905f52555f516020615c1a5f395f51905f5254611ae8615359565b80516001830155600282019063ffffffff60208201511669ffffffffffff000000006040845493015160201b169169ffffffffffffffffffff191617179055816020604051611b368161369f565b82815201528160038201556004810165ffffffffffff19815416905561ffff6004611b61428461564a565b01541661ffff601d8301911661ffff198254161790556004602060018060a01b036006840154166040519283809263313ce56760e01b82525afa80156109a857611bb2918491611c9f575b506139a6565b90816103e8026103e881048303611c8b57601e820155816101f402916101f4830403611c7757601f0155611be4613cd3565b600160205f516020615c1a5f395f51905f525401557f60e5a0cd4e467d80fbdaaf85873a02b09330ec141877522528ce5ae2bd8825ec602060405160018152a160ff60401b195f516020615c5a5f395f51905f5254165f516020615c5a5f395f51905f52557fc7f505b2f371ae2175ee4913f4499e1f2633a7b5936321eed1cdaeb6115181d2602060405160058152a180f35b634e487b7160e01b83526011600452602483fd5b634e487b7160e01b84526011600452602484fd5b611cc1915060203d602011611cc7575b611cb981836136f1565b81019061398d565b5f611bac565b503d611caf565b015190505f80611a90565b601f198216935f516020615bba5f395f51905f52845280842091845b868110611d3a5750836001959610611d22575b505050811b015f516020615bba5f395f51905f5255611ab1565b01515f1960f88460031b161c191690555f8080611d08565b91926020600181928685015181550194019201611cf5565b81811115611a76575f516020615bba5f395f51905f528352611db1907f5f9ce34815f8e11431c7bb75a8e6886a91478f7ffc1dbb0a98dc240fddd76b7590601f840160051c9060208510611db7575b601f82910160051c0391016153d6565b5f611a76565b859150611da1565b634e487b7160e01b82526041600452602482fd5b015190505f80611a25565b5f516020615b7a5f395f51905f52835280832090601f198316845b818110611e4057509583600195969710611e28575b505050811b015f516020615b7a5f395f51905f5255611a46565b01515f1960f88460031b161c191690555f8080611e0e565b9192602060018192868b015181550194019201611df9565b81811115611a0c575f516020615b7a5f395f51905f528352611eb6907f42ad5d3e1f2e6e70edcf6d991b8a3023d3fca8047a131592f9edb9fd9b89d57d90601f840160051c9060208510611db757601f82910160051c0391016153d6565b5f611a0c565b63f92ee8a960e01b8152600490fd5b600591506001600160401b031610155f611960565b5034610336578060031936011261033657602060ff5f516020615c3a5f395f51905f5254166040519015158152f35b50346103365761016036600319011261033657611f2a613602565b906024356001600160a01b038116908190036109a457611f486135d6565b92611f516135ec565b9260a43560c43560843560403660e31901126108215761012435966001600160401b0388116109b357366023890112156109b3578760040135926001600160401b03841161073757366024858b01011161073757610144356001600160401b03811161081d57611fc5903690600401613640565b9590935f516020615c5a5f395f51905f5254986001600160401b0360ff8b60401c16159a1680159081612933575b6001149081612929575b159081612920575b5061291157612047908a60016001600160401b03195f516020615c5a5f395f51905f525416175f516020615c5a5f395f51905f52556128e1575b6119b2615873565b61204f615873565b612057613902565b61205f61392f565b90612068615873565b612070615873565b8051906001600160401b0382116128cd5781908b61209b5f516020615b7a5f395f51905f52546153f1565b601f811161287c575b5050602090601f8311600114612800578c926127f5575b50508160011b915f199060031b1c1916175f516020615b7a5f395f51905f52555b8051906001600160401b0382116127e15781906121065f516020615bba5f395f51905f52546153f1565b601f8111612772575b50602090601f83116001146126f6578b926126eb575b50508160011b915f199060031b1c1916175f516020615bba5f395f51905f52555b875f516020615bda5f395f51905f5255875f516020615c7a5f395f51905f525561216e615873565b612176615873565b42156126dc5781156126cd57818111156126be57600a612196838361394e565b048310156126af576040809a81516121ae83826136f1565b60178152602081017f726f757465722e73746f726167652e526f75746572563100000000000000000081526121e1613cd3565b5f1991519020018a5260ff1960208b2016809e815f516020615c1a5f395f51905f5255835182815260207f059eb9adf6e95b839d818142ed5bd5e498b6d95138e65c91525e93cc0f0339fc91a1612236615359565b805160018401556002830190602081015163ffffffff1686835492015160201b69ffffffffffff00000000169169ffffffffffffffffffff19161717905583519061228082613670565b8382526001600160a01b0390811660208301819052988116949091018490526005919091018054919092166001600160a01b03199182161790915560068e01805482168717905560078e018054909116909117905570030000000000000000000000000000000260088d01556122f46138cc565b5089516123008161369f565b639502f90081526509184e72a00060209091015260158c0180546001600160c01b0319166d09184e72a000000000009502f900179055895183908b9061234581613670565b83815260208101859052015260168c015560178b015560188a0155601d8901805461ffff191661ffff8616179055865163313ce56760e01b815290819081905a92600491602094fa9081156126a557906123a5918691611c9f57506139a6565b806103e8026103e88104820361269157601e8a0155806101f402906101f482040361267d579061240591601f8a01556123fd8751986123e38a61369f565b60e4358a5260208a0194610104358652602436920161372d565b933691613a09565b958051825170014551231950b75fc4402da1732fc9bebe198210918261266c575b50501561265d5751600988015551600a870155805180851b6bfe61000180600a3d393df3000161fffe8211830152600b81016015830184f09182156126505752600b860180546001600160a01b0319166001600160a01b039092169190911790559092600c85019190600d860190825b82548110156124ce5782845260208085208201546001600160a01b03165f90815290869052869020805460ff19169055600101612496565b509195949094865b8351811015612516576001906001600160a01b036124f48287613a81565b5116828060a01b03165f5285602052865f208260ff19825416179055016124d6565b50925092938151916001600160401b03831161263c57600160401b831161263c576020908254848455808510612621575b500190865260208620865b8381106126045750505050600e4291015561256b613cd3565b600160205f516020615c1a5f395f51905f525401557f60e5a0cd4e467d80fbdaaf85873a02b09330ec141877522528ce5ae2bd8825ec6020835160018152a16125b2575080f35b60207fc7f505b2f371ae2175ee4913f4499e1f2633a7b5936321eed1cdaeb6115181d29160ff60401b195f516020615c5a5f395f51905f5254165f516020615c5a5f395f51905f52555160018152a180f35b82516001600160a01b031681830155602090920191600101612552565b61263690848a528580858c20019103906153d6565b5f612547565b634e487b7160e01b87526041600452602487fd5b633011642584526004601cfd5b63375f0aab60e11b8452600484fd5b6126769250615a6f565b5f80612426565b634e487b7160e01b85526011600452602485fd5b634e487b7160e01b86526011600452602486fd5b87513d87823e3d90fd5b63145e348f60e01b8852600488fd5b6353b2bbed60e01b8852600488fd5b63f7ba6bdb60e01b8852600488fd5b63b7d0949760e01b8852600488fd5b015190505f80612125565b5f516020615bba5f395f51905f528c52818c209250601f1984168c5b81811061275a5750908460019594939210612742575b505050811b015f516020615bba5f395f51905f5255612146565b01515f1960f88460031b161c191690555f8080612728565b92936020600181928786015181550195019301612712565b8281111561210f575f516020615bba5f395f51905f528c526127d3907f5f9ce34815f8e11431c7bb75a8e6886a91478f7ffc1dbb0a98dc240fddd76b7590601f850160051c908e602087106127d9575b50601f82910160051c0391016153d6565b5f61210f565b91508e6127c2565b634e487b7160e01b8a52604160045260248afd5b015190505f806120bb565b5f516020615b7a5f395f51905f528d52818d209250601f1984168d5b818110612864575090846001959493921061284c575b505050811b015f516020615b7a5f395f51905f52556120dc565b01515f1960f88460031b161c191690555f8080612832565b9293602060018192878601518155019501930161281c565b838111156120a4575f516020615b7a5f395f51905f526128be92528d6020812091601f860160051c91602087106128c55750601f82910160051c0391016153d6565b8b5f6120a4565b91508f6127c2565b634e487b7160e01b8b52604160045260248bfd5b600160401b60ff60401b195f516020615c5a5f395f51905f525416175f516020615c5a5f395f51905f525561203f565b63f92ee8a960e01b8952600489fd5b9050155f612005565b303b159150611ffd565b8b9150611ff3565b50346103365780600319360112610336577f00000000000000000000000000000000000000000000000000000000000000006001600160a01b031630036129935760206040515f516020615bfa5f395f51905f528152f35b63703e46dd60e11b8152600490fd5b506040366003190112610336576129b7613602565b906024356001600160401b0381116109a4576129d7903690600401613763565b6001600160a01b037f000000000000000000000000000000000000000000000000000000000000000016308114908115612b94575b50612b8557612a19613cd3565b6040516352d1902d60e01b8152926001600160a01b0381169190602085600481865afa80958596612b4d575b50612a5e57634c9c8ce360e01b84526004839052602484fd5b9091845f516020615bfa5f395f51905f528103612b3b5750813b15612b29575f516020615bfa5f395f51905f5280546001600160a01b031916821790557fbc7cd75a20ee27fd9adebab32041f755214dbc6bffa90cc0225b39da2e5c2d3b8480a28151839015612b0f5780836020612b0395519101845af43d15612b07573d91612ae783613712565b92612af560405194856136f1565b83523d85602085013e615b1b565b5080f35b606091615b1b565b50505034612b1a5780f35b63b398979f60e01b8152600490fd5b634c9c8ce360e01b8452600452602483fd5b632a87526960e21b8552600452602484fd5b9095506020813d602011612b7d575b81612b69602093836136f1565b81010312612b795751945f612a45565b5f80fd5b3d9150612b5c565b63703e46dd60e11b8252600482fd5b5f516020615bfa5f395f51905f52546001600160a01b0316141590505f612a0c565b5034610336578060031936011261033657612bcf613cd3565b5f516020615c3a5f395f51905f525460ff811615612c275760ff19165f516020615c3a5f395f51905f52557f5db9ee0a495bf2e6ff9c91a7834c1ba4fdd244a5e8aa4e537bd38aeae4b073aa6020604051338152a180f35b638dfc202b60e01b8252600482fd5b503461033657602036600319011261033657612c50613602565b612c58613cd3565b5f516020615c1a5f395f51905f525460050180546001600160a01b0319166001600160a01b0390921691909117905580f35b5034610336578060031936011261033657612ca36138cc565b506040612cc7612cc25f516020615c1a5f395f51905f5254429061564a565b6138e4565b60208251918051835201516020820152f35b503461033657606036600319011261033657612cf36135d6565b612cfb613d06565b612d096024356004356141a3565b506001600160a01b0390811691908116612d915750335b5f516020615c1a5f395f51905f5254600501546001600160a01b0316823b1561082157604051635fd142bb60e11b81526001600160a01b03909216600483015260248201526001604482015260648101839052828160848183865af180156109a85761098f57602082604051908152f35b612d20565b50346103365780600319360112610336576020610a58615812565b50346103365780600319360112610336576020805f516020615c1a5f395f51905f52540154604051908152f35b5034610336578060031936011261033657602060015f516020615c1a5f395f51905f52540154604051908152f35b50346103365780600319360112610336576020601e5f516020615c1a5f395f51905f52540154604051908152f35b5034610336576060366003190112610336576001600160401b036004351161033657610100600435360360031901126103365760026024351015610336576044356001600160401b0381116109a457612e97903690600401613640565b7f9b779b17422d0df92223018b32b4d1fa46e071723d6817e2486d003becc55f005c61329e5760017f9b779b17422d0df92223018b32b4d1fa46e071723d6817e2486d003becc55f005d5f516020615c1a5f395f51905f52549060018201541561147357815415613242575b600382015460446004350135036132335765ffffffffffff60048301541665ffffffffffff612f366024600435016138b9565b161061322557612f4b60043560040183614345565b92612f6060a460043501600435600401614847565b808096925060051b046020148515171561269157612f808560051b6155e2565b8695865b8188106130f057506130b6965060051b902090612fa660043560040186614889565b612fb560043560040187614c67565b90612fc46024600435016138b9565b93612fd36064600435016138ab565b9360405194602086019660043560040135885265ffffffffffff60d01b9060d01b16604087015260446004350135604687015260ff60f81b9060f81b1660668601526067850152608784015260a783015260c782015260c7815261303860e7826136f1565b5190209283600382015565ffffffffffff6130576024600435016138b9565b1665ffffffffffff196004830154161760048201557f7ebe42360bcb182fe0a88148b081e4557c89d09aa6af8307635ac2f83e2aaa656020604051868152a165ffffffffffff6130ab6024600435016138b9565b1693602435916150f0565b156130e157807f9b779b17422d0df92223018b32b4d1fa46e071723d6817e2486d003becc55f005d80f35b63729d0f6b60e01b8152600490fd5b61310460a460043501600435600401614847565b891015613211578860061b8101358a526019880160205260ff60408b20541660038110156107e757600103613202576001916020916131c78b8b8e868360061b860101926131518461487c565b156131e35760061b85013590525060198c01855260408e20805460ff19166002179055601c8c01805461318390613c47565b90555b8c7f460119a8f69a33ed127de517d5ea464e958ce23ef19e4420a8b92bf780bbc2c9866131b28461487c565b1515926040519060061b8701358152a261487c565b908b60061b01358c52825360218b208186015201970196612f84565b60409260199160061b87013583520187522060ff198154169055613186565b636e83084760e11b8a5260048afd5b634e487b7160e01b8a52603260045260248afd5b620725b160ea1b8452600484fd5b63164b6fc360e01b8452600484fd5b61325f6132536064600435016138ab565b6004356004013561429b565b1561328f5765ffffffffffff6132796024600435016138b9565b164211612f0357631ad8809560e31b8452600484fd5b637b8cb35960e01b8452600484fd5b633ee5aeb560e01b8352600483fd5b5034610336576020366003190112610336576132c7613cd3565b600435601e5f516020615c1a5f395f51905f5254015580f35b503461033657610100366003190112610336576132fb6135d6565b6064356001600160801b03811690818103610821578360a43560ff811681036109a457613326613d06565b6133346024356004356141a3565b6006015490936001600160a01b0390911691823b156108215761337b8480926040518093819263d505accf60e01b835260e4359060c435906084358a303360048901613849565b038183885af1613499575b50506040516323b872dd60e01b81523360048201523060248201526001600160801b039190911660448201529160209183916064918391905af190811561348e57859161346f575b5015613460576001600160a01b039081169290811661345a575033905b5f516020615c1a5f395f51905f5254600501546001600160a01b0316833b156109b357604051635fd142bb60e11b81526001600160a01b0390931660048401526024830152600160448301526064820152828160848183865af180156109a85761098f57602082604051908152f35b906133eb565b631e4e7d0960e21b8452600484fd5b613488915060203d60201161070c576106fe81836136f1565b5f6133ce565b6040513d87823e3d90fd5b816134a3916136f1565b61073b57825f613386565b34612b79576080366003190112612b79576134c76135d6565b6134cf6135ec565b906134d8613d06565b6134e6602435600435613d2d565b506001600160a01b0390811691908116613573575033915b813b15612b7957604051635fd142bb60e11b81526001600160a01b039384166004820152921660248301525f60448301819052606483018190528260848183855af191821561356857602092613558575b50604051908152f35b5f613562916136f1565b5f61354f565b6040513d5f823e3d90fd5b916134fe565b34612b79576020366003190112612b7957613592613cd3565b600435601f5f516020615c1a5f395f51905f525401555f80f35b34612b79575f366003190112612b7957602090601c5f516020615c1a5f395f51905f525401548152f35b604435906001600160a01b0382168203612b7957565b606435906001600160a01b0382168203612b7957565b600435906001600160a01b0382168203612b7957565b35906001600160a01b0382168203612b7957565b35906001600160801b0382168203612b7957565b9181601f84011215612b79578235916001600160401b038311612b79576020808501948460051b010111612b7957565b606081019081106001600160401b0382111761368b57604052565b634e487b7160e01b5f52604160045260245ffd5b604081019081106001600160401b0382111761368b57604052565b61018081019081106001600160401b0382111761368b57604052565b608081019081106001600160401b0382111761368b57604052565b90601f801991011681019081106001600160401b0382111761368b57604052565b6001600160401b03811161368b57601f01601f191660200190565b92919261373982613712565b9161374760405193846136f1565b829481845281830111612b79578281602093845f960137010152565b9080601f83011215612b795781602061377e9335910161372d565b90565b90600382101561378e5752565b634e487b7160e01b5f52602160045260245ffd5b805180835260209291819084018484015e5f828201840152601f01601f1916010190565b90602080835192838152019201905f5b8181106137e35750505090565b82516001600160a01b03168452602093840193909201916001016137d6565b9060208251805183520151602082015260018060a01b03602083015116604082015260806060613840604085015160a08386015260a08501906137c6565b93015191015290565b936001600160801b0360c096929998979460ff9460e088019b60018060a01b0316885260018060a01b03166020880152166040860152606085015216608083015260a08201520152565b90816020910312612b7957518015158103612b795790565b3560ff81168103612b795790565b3565ffffffffffff81168103612b795790565b604051906138d98261369f565b5f6020838281520152565b906040516138f18161369f565b602060018294805484520154910152565b604051906139116040836136f1565b600f82526e2b30b9309722aa24102937baba32b960891b6020830152565b6040519061393e6040836136f1565b60018252603160f81b6020830152565b9190820391821161395b57565b634e487b7160e01b5f52601160045260245ffd5b8115613979570490565b634e487b7160e01b5f52601260045260245ffd5b90816020910312612b79575160ff81168103612b795790565b60ff16604d811161395b57600a0a90565b8181029291811591840414171561395b57565b9190826040910312612b79576040516139e28161369f565b6020808294803584520135910152565b6001600160401b03811161368b5760051b60200190565b929190613a15816139f2565b93613a2360405195866136f1565b602085838152019160051b8101928311612b7957905b828210613a4557505050565b60208091613a5284613618565b815201910190613a39565b9190811015613a6d5760051b0190565b634e487b7160e01b5f52603260045260245ffd5b8051821015613a6d5760209160051b010190565b90604051613aa28161369f565b91546001600160401b038116835260401c6001600160801b03166020830152565b356001600160a01b0381168103612b795790565b613af05f516020615c1a5f395f51905f5254429061564a565b600301905f5b838110613b065750505050600190565b613b146110e8828685613a5d565b6001600160a01b03165f9081526020849052604090205460ff1615613b3b57600101613af6565b505050505f90565b60405190613b5082613670565b5f6040838281528260208201520152565b90604051613b6e81613670565b60406002829480548452600181015460208501520154910152565b60405190613b96826136d6565b5f606083604051613ba68161369f565b83815283602082015281528260208201528160408201520152565b60405190613bce826136d6565b815f81525f6020820152613be0613b89565b60408201526060613bef613b89565b910152565b90604051918281549182825260208201905f5260205f20925f5b818110613c25575050613c23925003836136f1565b565b84546001600160a01b0316835260019485019487945060209093019201613c0e565b5f19811461395b5760010190565b9190820180921161395b57565b6001600160a01b03168015613cc0575f516020615b9a5f395f51905f5280546001600160a01b0319811683179091556001600160a01b03167f8be0079c531659141344cd1fd0a4f28419497f9722a3daafe3b4186f6b6457e05f80a3565b631e4fbdf760e01b5f525f60045260245ffd5b5f516020615b9a5f395f51905f52546001600160a01b03163303613cf357565b63118cdaa760e01b5f523360045260245ffd5b60ff5f516020615c3a5f395f51905f525416613d1e57565b63d93c066560e01b5f5260045ffd5b9190915f516020615c1a5f395f51905f52549260018401541561008257815f526019840160205260ff60405f205416600381101561378e5760020361419457815f5260205260405f206040516103008101908082106001600160401b03831117612b79576102fb916040527f6080806040526102e990816100128239f3fe60806040526004361061029f575f81527f3560e01c806336a52a18146100bb57806342129d00146100b65780635ce6c32760208201527f146100b1578063701da98e146100ac578063704ed542146100a75780637a8e0c60408201527fdd146100a257806391d5a64c1461009d5780639ce110d714610098578063affe60608201527fd0e014610093578063c60496921461008e5763e43f34330361029f5761028a5660808201527f5b610260565b610243565b61021b565b610205565b6101d2565b6101b3565b6160a08201527f0178565b610156565b610119565b346100e7575f3660031901126100e757600260c08201527f5460405160089190911c6001600160a01b03168152602090f35b5f80fd5b918160e08201527f601f840112156100e75782359167ffffffffffffffff83116100e757602083816101008201527f8601950101116100e757565b60403660031901126100e75760043567ffffffff6101208201527fffffffff81116100e7576101459036906004016100eb565b50506024358015156101408201527f1461029f575f80fd5b346100e7575f3660031901126100e757602060ff6002546101608201527f166040519015158152f35b346100e7575f3660031901126100e75760205f54606101808201527f4051908152f35b600435906fffffffffffffffffffffffffffffffff821682036101a08201527f6100e757565b346100e75760203660031901126100e7576101cc610194565b506101c08201527f61029f565b60403660031901126100e75760243567ffffffffffffffff8111616101e08201527ee7576101fe9036906004016100eb565b505061029f565b346100e7576020366102008201527f60031901121561029f575f80fd5b346100e7575f3660031901126100e75760036102208201527f546040516001600160a01b039091168152602090f35b346100e7575f366003196102408201527f01126100e7576020600154604051908152f35b346100e75760a03660031901126102608201527f6100e757610279610194565b5060443560ff81161461029f575f80fd5b3461006102808201527fe7575f3660031901121561029f575f80fd5b63e6fabc0960e01b5f5260205f606102a08201523060481b685afa156100e7575f806204817360e81b01176102c08201527f8051368280378136915af43d5f803e156102e5573d5ff35b3d5ffd00000000006102e08201525ff5908115612b795760018060a01b0382165f52601a84016020528060405f2055601b84016141598154613c47565b90556040516001600160a01b03831681527f8008ec1d8798725ebfa0f2d128d52e8e717dcba6e0f786557eeee70614b02bf190602090a29190565b630e2637d160e01b5f5260045ffd5b9190915f516020615c1a5f395f51905f52549260018401541561008257815f526019840160205260ff60405f205416600381101561378e5760020361419457815f5260205260405f2060405160608101908082106001600160401b03831117612b7957605a916040527f3d605080600a3d3981f3608060405263e6fabc0960e01b5f5260205f6004817381523060601b6b5afa15604c575f80805136821760208201527f80378136915af43d5f803e156048573d5ff35b3d5ffd5b5f80fd00000000000060408201525ff5908115612b795760018060a01b0382165f52601a84016020528060405f2055601b84016141598154613c47565b435f198101939290841161395b5760ff164381106142eb57505f925b838110156142c7575b505f925050565b80408281036142d95750600193505050565b156142e6575f19016142b7565b6142c0565b6142f5904361394e565b926142b7565b903590601e1981360301821215612b7957018035906001600160401b038211612b7957602001918160051b36038313612b7957565b903590605e1981360301821215612b79570190565b9060808101600161435682846142fb565b9050116148385761436781836142fb565b90501561481157614377916142fb565b15613a6d578061438691614330565b9161439183806142fb565b9190928260051b938385046020148415171561395b576143b3859694956155e2565b925f945f97601a60fe19853603019501965b888a1015614774578960051b85013586811215612b795785016143e781613ac3565b6001600160a01b03165f90815260208a9052604090205415610064575f608082016001600160801b03614419826155ce565b16151580614761575b614750575b6001600160a01b0361443884613ac3565b604051630427a21d60e11b81526020600482015294911691610124850191906001600160801b03906144b7906001600160a01b0361447585613618565b1660248901526020840135604489015261449160408501614c5a565b151560648901526001600160a01b036144ac60608601613618565b16608489015261362c565b1660a48601526144c960a08201614c5a565b151560c486015236819003601e190160c082013581811215612b79578201602081359101936001600160401b038211612b79576060820236038513612b7957819061010060e48a015252610144870193905f905b8082106147065750505060e082013590811215612b795701803560208201926001600160401b038211612b79578160051b908136038513612b795791879594936023198785030161010488015281845260208085019385010194935f9160fe19813603015b8484106145f95750505050505050602093916001600160801b03848093039316905af1908115613568575f916145c7575b50816020916001938a0152019901986143c5565b90506020813d82116145f1575b816145e1602093836136f1565b81010312612b79575160016145b3565b3d91506145d4565b919395979850919395601f19848203018752873582811215612b79578301602081013582526001600160a01b0361463260408301613618565b1660208301526060810135603e193683900301811215612b79578101602081013591906040016001600160401b038311612b79578236038113612b7957829060e060408601528160e08601526101008501375f61010083850101526001600160801b036146a16080830161362c565b16606084015260a0810135608084015260c081013563ffffffff60e01b8116809103612b7957836020936146e360e086956101009560a060019a015201614c5a565b151560c0830152601f80199101160101990197019401918a989796959391614582565b90919460608060019288358152838060a01b0361472560208b01613618565b1660208201526001600160801b0361473f60408b0161362c565b16604082015201960192019061451d565b905061475b816155ce565b90614427565b5061476e60a0840161487c565b15614422565b509550955095505050209060406020820135917fc630ddcf92c1a2e0d08b0e482dafa1312a9be3f7374d504c1e418a13fa84424160208351858152a10135806147e2575b604051916020830193845260408301526060820152606081526147dc6080826136f1565b51902090565b7f694c1e8c673a4782b065120b25b67f4198a5f2086b6edbe3c5093a9a64cc83316020604051838152a16147b8565b5050507fc5d2460186f7233c927e7db2dcc703c0e500b653ca82273b7bfad8045d85a47090565b6306d6c38360e01b5f5260045ffd5b903590601e1981360301821215612b7957018035906001600160401b038211612b7957602001918160061b36038313612b7957565b358015158103612b795790565b60c08201600161489982856142fb565b905011614c19576148aa81846142fb565b905015614811576148bb90836142fb565b15613a6d57803590607e1981360301821215612b79570191606083019060206148e3836138b9565b91019065ffffffffffff806148f7846138b9565b1691161015614c0a57614909826138b9565b65ffffffffffff80600286015460201c16911610614bfb5761494f65ffffffffffff6149486149428261493b876138b9565b1687615607565b936138b9565b1684615607565b1115614bec576007820154600690920180548435946001600160a01b0394851694604082019391925f916020911660446149958361498d8989614330565b01358b613c55565b604051948593849263095ea7b360e01b84528c600485015260248401525af1908115613568575f91614bcd575b5015614bbe575460405163394f179b60e11b81526001600160a01b03909116600482015260248101959095526020818101356044870152856064815f885af1948515613568575f95614b86575b5090614a1a91614330565b91614a24826138b9565b9260405193637fbe95b560e01b85526040600486015260a48501918035601e1982360301811215612b79578101602081359101936001600160401b038211612b79578160061b36038513612b795760606044890152819052869360c485019392915f5b818110614b4e57505050836020959365ffffffffffff829484895f9601356064860152614abd604060018060a01b039201613618565b16608485015216602483015203925af1918215613568575f92614b18575b50614ae5906138b9565b6040519160208301938452604083015265ffffffffffff60d01b9060d01b166060820152604681526147dc6066826136f1565b9091506020813d602011614b46575b81614b34602093836136f1565b81010312612b79575190614ae5614adb565b3d9150614b27565b919550919293604080600192838060a01b03614b698a613618565b168152602089013560208201520196019101918895949392614a87565b919094506020823d602011614bb6575b81614ba3602093836136f1565b81010312612b7957905193614a1a614a0f565b3d9150614b96565b6367b9145160e01b5f5260045ffd5b614be6915060203d60201161070c576106fe81836136f1565b5f6149c2565b6308027f7760e31b5f5260045ffd5b637bde91e760e11b5f5260045ffd5b63087a19ab60e41b5f5260045ffd5b633249ceed60e11b5f5260045ffd5b903590601e1981360301821215612b7957018035906001600160401b038211612b7957602001918136038313612b7957565b35908115158203612b7957565b9060e081016001614c7882846142fb565b9050116150e157614c8981836142fb565b90501561481157614c99916142fb565b15613a6d5780359060be1981360301821215612b79570160808101614cbe81836142fb565b9050156150d25765ffffffffffff600284015460201c1691614ce0834261394e565b614cef6016860154809261396f565b9360a0830135946001810180911161395b5785036150c357614d1485614d1a936139b7565b90613c55565b93614d2960178201548661394e565b42106150b457614d389061562f565b91600583019342855410156150a557614d508361487c565b92602081019060608101936123fd614d8c614d6b8785614c28565b9190614d7785876142fb565b949091614d84368a6139ca565b94369161372d565b97614fec575b50505f989798976003600489019801985b8854811015614dda575f89815260208082208301546001600160a01b031682528b905260409020805460ff19169055600101614da3565b5090919293949596985f5b8851811015614e26576001906001600160a01b03614e03828c613a81565b5116828060a01b03165f528a60205260405f208260ff1982541617905501614de5565b50929598909396919497508151916001600160401b03831161368b57600160401b831161368b576020908254848455808510614fd1575b5001905f5260205f205f5b838110614fb45750505050557fa1a3b42179ad30022438a1ea333b38eaf4a7329beee5e2b8111c0dcd4e08821c6020604051868152a160c082360312612b79576040519260a08401908482106001600160401b0383111761368b57614edc91604052614ed384614c5a565b855236906139ca565b9460208401958652356001600160401b038111612b7957614f009036908401613763565b604084015235906001600160401b038211612b79570136601f82011215612b7957614f32903690602081359101613a09565b908160608201528260808201525115159251906020825192015192604051938493602085019660f81b8752602185015260418401526061830160208351919301905f5b818110614f92575050508152038082526147dc90602001826136f1565b82516001600160a01b0316855286955060209485019490920191600101614f75565b82516001600160a01b031681830155602090920191600101614e68565b614fe690845f528580855f20019103906153d6565b5f614e5d565b8051906020810191825170014551231950b75fc4402da1732fc9bebe1982109182615094575b5050156150855751895551600189015580518060401b6bfe61000180600a3d393df3000161fffe8211830152600b8101601583015ff091821561507857526002880180546001600160a01b0319166001600160a01b039092169190911790555f80614d92565b63301164255f526004601cfd5b63375f0aab60e11b5f5260045ffd5b61509e9250615a6f565b5f80615012565b6333fc8f5160e21b5f5260045ffd5b6372a84ce560e11b5f5260045ffd5b6343d3f5bf60e01b5f5260045ffd5b636c2bf3db60e01b5f5260045ffd5b631d3fc6bf60e21b5f5260045ffd5b909493919365ffffffffffff600283015460201c1661510f4284615607565b615127615121601686015480936139b7565b83613c55565b918284108080615343575b1561531157508310615303576151489083613c55565b106152f457615158905b8261564a565b94601960f81b5f523060601b60025260165260365f2093600281101561378e57806151e9575050600181036151da5715613a6d57615199816151a092614c28565b369161372d565b9160608351036151cb5782602061377e94015160606040830151920151926001815491015490615666565b632ce466bf60e01b5f5260045ffd5b6360a1ea7760e01b5f5260045ffd5b9193916001146151fc5750505050505f90565b61522190600860048796970154910154906001600160801b038260801c9216906155a3565b925f9260035f9201915b868110156152e95761525161059e61524b6151998460051b860186614c28565b86615a35565b6001600160a01b0381165f9081526020859052604090205460ff1661527c575b506001905b0161522b565b6001600160a01b03165f9081527ff02b465737fa6045c2ff53fb2df43c66916ac2166fa303264668fb2f6a1d8c0060205260409020805c156152c15750600190615276565b9460016152cf92965d613c47565b938585146152dd575f615271565b50505050505050600190565b505050505050505f90565b63046bb1e560e51b5f5260045ffd5b62f4462b60e01b5f5260045ffd5b9392915050428211615334576151589261532c575b50615152565b90505f615326565b6347860b9760e01b5f5260045ffd5b50615352601887015485613c55565b4210615132565b615361613b43565b5063ffffffff43116153be5765ffffffffffff42116153a65760405161538681613670565b5f815263ffffffff4316602082015265ffffffffffff4216604082015290565b6306dfcc6560e41b5f5260306004524260245260445ffd5b6306dfcc6560e41b5f5260206004524360245260445ffd5b5f5b8281106153e457505050565b5f828201556001016153d8565b90600182811c9216801561541f575b602083101461540b57565b634e487b7160e01b5f52602260045260245ffd5b91607f1691615400565b604051905f825f516020615b7a5f395f51905f525491615448836153f1565b80835292600181169081156154d7575060011461546c575b613c23925003836136f1565b505f516020615b7a5f395f51905f525f90815290917f42ad5d3e1f2e6e70edcf6d991b8a3023d3fca8047a131592f9edb9fd9b89d57d5b8183106154bb575050906020613c2392820101615460565b60209193508060019154838589010152019101909184926154a3565b60209250613c2394915060ff191682840152151560051b820101615460565b604051905f825f516020615bba5f395f51905f525491615515836153f1565b80835292600181169081156154d7575060011461553857613c23925003836136f1565b505f516020615bba5f395f51905f525f90815290917f5f9ce34815f8e11431c7bb75a8e6886a91478f7ffc1dbb0a98dc240fddd76b755b818310615587575050906020613c2392820101615460565b602091935080600191548385890101520191019091849261556f565b6001600160801b038092160291166155bb818361396f565b91811561397957061561377e5760010190565b356001600160801b0381168103612b795790565b6040519190601f01601f191682016001600160401b03811183821017612b7957604052565b601661562661377e9365ffffffffffff600285015460201c169061394e565b9101549061396f565b61563942826159d5565b156156445760090190565b600f0190565b9061565590826159d5565b1561566057600f0190565b60090190565b92939194906156758587615a6f565b156158085782156158085770014551231950b75fc4402da1732fc9bebe19831015615808576001169061010e6156aa816155e2565b9160883684376002600188160160888401538760898401526002840160a984015360aa830186905260ca8301527e300046524f53542d736563703235366b312d4b454343414b3235362d76316360ea8301526303430b6160e51b61010a830152812060cc820181815290600260ec84016001815360428420809318845253604270014551231950b75fc4402da1732fc9bebe19922060801c6001600160401b0360801b8260801b16179070014551231950b75fc4402da1732fc9bebe1990600160c01b9060401c090880156152e95784601b6080945f9660209870014551231950b75fc4402da1732fc9bebe19910970014551231950b75fc4402da1732fc9bebe19038552018684015280604084015270014551231950b75fc4402da1732fc9bebe19910970014551231950b75fc4402da1732fc9bebe1903606082015282805260015afa505f51915f5260205260018060a01b0360405f20161490565b5050505050505f90565b61581a615a92565b615822615ae9565b6040519060208201927f8b73c3c69bb8fe3d512ecc4cf759cc79239f7b179b0ffacaa9a75d522b39400f8452604083015260608201524660808201523060a082015260a081526147dc60c0826136f1565b60ff5f516020615c5a5f395f51905f525460401c161561588f57565b631afcd79f60e31b5f5260045ffd5b6158a6613b89565b50600281015460058201546040519290916158e6916004916001600160a01b03166158d0866136d6565b6158d9826138e4565b8652602086015201613bf4565b6040830152606082015290565b91907f7fffffffffffffffffffffffffffffff5d576e7357a4501ddfe92f46681b20a0841161596a579160209360809260ff5f9560405194855216868401526040830152606082015282805260015afa15613568575f516001600160a01b0381161561596057905f905f90565b505f906001905f90565b5050505f9160039190565b600481101561378e5780615987575050565b6001810361599e5763f645eedf60e01b5f5260045ffd5b600281036159b9575063fce698f760e01b5f5260045260245ffd5b6003146159c35750565b6335e2f38360e21b5f5260045260245ffd5b906014600e830154920154808314615a2657818184109311918215911115918190615a1f575b15615a105782615a0a57505090565b14919050565b634c38ae9560e11b5f5260045ffd5b50816159fb565b63f26224af60e01b5f5260045ffd5b8151919060418303615a6557615a5e9250602082015190606060408401519301515f1a906158f3565b9192909190565b50505f9160029190565b6401000003d01990600790829081818009900908906401000003d0199080091490565b615a9a615429565b8051908115615aaa576020012090565b50505f516020615bda5f395f51905f52548015615ac45790565b507fc5d2460186f7233c927e7db2dcc703c0e500b653ca82273b7bfad8045d85a47090565b615af16154f6565b8051908115615b01576020012090565b50505f516020615c7a5f395f51905f52548015615ac45790565b90615b3f5750805115615b3057602081519101fd5b63d6bda27560e01b5f5260045ffd5b81511580615b70575b615b50575090565b639996b31560e01b5f9081526001600160a01b0391909116600452602490fd5b50803b15615b4856fea16a46d94261c7517cc8ff89f61c0ce93598e3c849801011dee649a6a557d1029016d09d72d40fdae2fd8ceac6b6234c7706214fd39c1cd1e609a0528c199300a16a46d94261c7517cc8ff89f61c0ce93598e3c849801011dee649a6a557d103a16a46d94261c7517cc8ff89f61c0ce93598e3c849801011dee649a6a557d100360894a13ba1a3210667c828492db98dca3e2076cc3735a920a3ca505d382bbc5c09ca1b9b8127a4fd9f3c384aac59b661441e820e17733753ff5f2e86e1e000cd5ed15c6e187e77e9aee88184c21f4f2182ab5827cb3b7e07fbedcd63f03300f0c57e16840df040f15088dc2f81fe391c3923bec73e23a9662efc9c229c6a00a16a46d94261c7517cc8ff89f61c0ce93598e3c849801011dee649a6a557d101f0c57e16840df040f15088dc2f81fe391c3923bec73e23a9662efc9c229c6a00","linkReferences":{}},"methodIdentifiers":{"DOMAIN_SEPARATOR()":"3644e515","UPGRADE_INTERFACE_VERSION()":"ad3cb1cc","areValidators(address[])":"8f381dbe","codeState(bytes32)":"c13911e8","codesStates(bytes32[])":"82bdeaad","commitBatch((bytes32,uint48,bytes32,uint8,((address,bytes32,bool,address,uint128,bool,(bytes32,address,uint128)[],(bytes32,address,bytes,uint128,(bytes32,bytes4),bool)[])[],bytes32,bytes32)[],(bytes32,bool)[],((uint256,bytes32),((address,uint256)[],uint256,address),uint48)[],(bool,(uint256,uint256),bytes,address[],uint256)[]),uint8,bytes[])":"1622441d","computeSettings()":"84d22a4f","createProgram(bytes32,bytes32,address)":"3683c4d2","createProgramWithAbiInterface(bytes32,bytes32,address,address)":"0c18d277","createProgramWithAbiInterfaceAndExecutableBalance(bytes32,bytes32,address,address,uint128,uint256,uint8,bytes32,bytes32)":"ee32004f","createProgramWithExecutableBalance(bytes32,bytes32,address,uint128,uint256,uint8,bytes32,bytes32)":"0d91bf2a","eip712Domain()":"84b0196e","genesisBlockHash()":"28e24b3d","genesisTimestamp()":"cacf66ab","initialize(address,address,address,address,uint256,uint256,uint256,(uint256,uint256),bytes,address[])":"53f7fd48","isValidator(address)":"facd743b","latestCommittedBatchHash()":"71a8cf2d","latestCommittedBatchTimestamp()":"d456fd51","lookupGenesisHash()":"8b1edf1e","middleware()":"f4f20ac0","mirrorImpl()":"e6fabc09","nonces(address)":"7ecebe00","owner()":"8da5cb5b","pause()":"8456cb59","paused()":"5c975abb","programCodeId(address)":"9067088e","programsCodeIds(address[])":"baaf0201","programsCount()":"96a2ddfa","protocolVersion()":"2ae9c600","proxiableUUID()":"52d1902d","reinitialize()":"6c2eb350","renounceOwnership()":"715018a6","requestCodeValidation(bytes32,uint256,uint8,bytes32,bytes32)":"8c4ace6a","requestCodeValidationBaseFee()":"188509e9","requestCodeValidationExtraFee()":"f1ef31ec","requestCodeValidationOnBehalf(address,bytes32,bytes32[],uint256,uint8,bytes32,bytes32,uint8,bytes32,bytes32)":"f0fd702a","setMirror(address)":"3d43b418","setProtocolVersion(uint256)":"ceba5598","setRequestCodeValidationBaseFee(uint256)":"11bec80d","setRequestCodeValidationExtraFee(uint256)":"0b9737ce","signingThresholdFraction()":"e3a6684f","storageView()":"c2eb812f","timelines()":"9eb939a8","transferOwnership(address)":"f2fde38b","unpause()":"3f4ba83a","upgradeToAndCall(address,bytes)":"4f1ef286","validatedCodesCount()":"007a32e7","validators()":"ca1e7819","validatorsAggregatedPublicKey()":"3bd109fa","validatorsCount()":"ed612f8c","validatorsThreshold()":"edc87225","validatorsVerifiableSecretSharingCommitment()":"a5d53a44","wrappedVara()":"88f50cf0"},"storageLayout":{"storage":[],"types":{}},"id":165}