{"abi":[{"type":"constructor","inputs":[],"stateMutability":"nonpayable"},{"type":"receive","stateMutability":"payable"},{"type":"function","name":"COMMIT_BATCH_AFTER_COMMIT_CODES","inputs":[],"outputs":[{"name":"","type":"uint256","internalType":"uint256"}],"stateMutability":"view"},{"type":"function","name":"COMMIT_BATCH_BEFORE_COMMIT_CODES","inputs":[],"outputs":[{"name":"","type":"uint256","internalType":"uint256"}],"stateMutability":"view"},{"type":"function","name":"areValidators","inputs":[{"name":"_validators","type":"address[]","internalType":"address[]"}],"outputs":[{"name":"","type":"bool","internalType":"bool"}],"stateMutability":"view"},{"type":"function","name":"codeState","inputs":[{"name":"_codeId","type":"bytes32","internalType":"bytes32"}],"outputs":[{"name":"","type":"uint8","internalType":"enum Gear.CodeState"}],"stateMutability":"view"},{"type":"function","name":"codesStates","inputs":[{"name":"_codesIds","type":"bytes32[]","internalType":"bytes32[]"}],"outputs":[{"name":"","type":"uint8[]","internalType":"enum Gear.CodeState[]"}],"stateMutability":"view"},{"type":"function","name":"commitBatch","inputs":[{"name":"_batch","type":"tuple","internalType":"struct Gear.BatchCommitment","components":[{"name":"blockHash","type":"bytes32","internalType":"bytes32"},{"name":"blockTimestamp","type":"uint48","internalType":"uint48"},{"name":"previousCommittedBatchHash","type":"bytes32","internalType":"bytes32"},{"name":"expiry","type":"uint8","internalType":"uint8"},{"name":"chainCommitment","type":"tuple[]","internalType":"struct Gear.ChainCommitment[]","components":[{"name":"transitions","type":"tuple[]","internalType":"struct Gear.StateTransition[]","components":[{"name":"actorId","type":"address","internalType":"address"},{"name":"newStateHash","type":"bytes32","internalType":"bytes32"},{"name":"exited","type":"bool","internalType":"bool"},{"name":"inheritor","type":"address","internalType":"address"},{"name":"valueToReceive","type":"uint128","internalType":"uint128"},{"name":"valueToReceiveNegativeSign","type":"bool","internalType":"bool"},{"name":"valueClaims","type":"tuple[]","internalType":"struct Gear.ValueClaim[]","components":[{"name":"messageId","type":"bytes32","internalType":"bytes32"},{"name":"destination","type":"address","internalType":"address"},{"name":"value","type":"uint128","internalType":"uint128"}]},{"name":"messages","type":"tuple[]","internalType":"struct Gear.Message[]","components":[{"name":"id","type":"bytes32","internalType":"bytes32"},{"name":"destination","type":"address","internalType":"address"},{"name":"payload","type":"bytes","internalType":"bytes"},{"name":"value","type":"uint128","internalType":"uint128"},{"name":"replyDetails","type":"tuple","internalType":"struct Gear.ReplyDetails","components":[{"name":"to","type":"bytes32","internalType":"bytes32"},{"name":"code","type":"bytes4","internalType":"bytes4"}]},{"name":"call","type":"bool","internalType":"bool"}]}]},{"name":"head","type":"bytes32","internalType":"bytes32"}]},{"name":"codeCommitments","type":"tuple[]","internalType":"struct Gear.CodeCommitment[]","components":[{"name":"id","type":"bytes32","internalType":"bytes32"},{"name":"valid","type":"bool","internalType":"bool"}]},{"name":"rewardsCommitment","type":"tuple[]","internalType":"struct Gear.RewardsCommitment[]","components":[{"name":"operators","type":"tuple","internalType":"struct Gear.OperatorRewardsCommitment","components":[{"name":"amount","type":"uint256","internalType":"uint256"},{"name":"root","type":"bytes32","internalType":"bytes32"}]},{"name":"stakers","type":"tuple","internalType":"struct Gear.StakerRewardsCommitment","components":[{"name":"distribution","type":"tuple[]","internalType":"struct Gear.StakerRewards[]","components":[{"name":"vault","type":"address","internalType":"address"},{"name":"amount","type":"uint256","internalType":"uint256"}]},{"name":"totalAmount","type":"uint256","internalType":"uint256"},{"name":"token","type":"address","internalType":"address"}]},{"name":"timestamp","type":"uint48","internalType":"uint48"}]},{"name":"validatorsCommitment","type":"tuple[]","internalType":"struct Gear.ValidatorsCommitment[]","components":[{"name":"aggregatedPublicKey","type":"tuple","internalType":"struct Gear.AggregatedPublicKey","components":[{"name":"x","type":"uint256","internalType":"uint256"},{"name":"y","type":"uint256","internalType":"uint256"}]},{"name":"verifiableSecretSharingCommitment","type":"bytes","internalType":"bytes"},{"name":"validators","type":"address[]","internalType":"address[]"},{"name":"eraIndex","type":"uint256","internalType":"uint256"}]}]},{"name":"_signatureType","type":"uint8","internalType":"enum Gear.SignatureType"},{"name":"_signatures","type":"bytes[]","internalType":"bytes[]"}],"outputs":[],"stateMutability":"nonpayable"},{"type":"function","name":"computeSettings","inputs":[],"outputs":[{"name":"","type":"tuple","internalType":"struct Gear.ComputationSettings","components":[{"name":"threshold","type":"uint64","internalType":"uint64"},{"name":"wvaraPerSecond","type":"uint128","internalType":"uint128"}]}],"stateMutability":"view"},{"type":"function","name":"createProgram","inputs":[{"name":"_codeId","type":"bytes32","internalType":"bytes32"},{"name":"_salt","type":"bytes32","internalType":"bytes32"},{"name":"_overrideInitializer","type":"address","internalType":"address"}],"outputs":[{"name":"","type":"address","internalType":"address"}],"stateMutability":"nonpayable"},{"type":"function","name":"createProgramWithAbiInterface","inputs":[{"name":"_codeId","type":"bytes32","internalType":"bytes32"},{"name":"_salt","type":"bytes32","internalType":"bytes32"},{"name":"_overrideInitializer","type":"address","internalType":"address"},{"name":"_abiInterface","type":"address","internalType":"address"}],"outputs":[{"name":"","type":"address","internalType":"address"}],"stateMutability":"nonpayable"},{"type":"function","name":"genesisBlockHash","inputs":[],"outputs":[{"name":"","type":"bytes32","internalType":"bytes32"}],"stateMutability":"view"},{"type":"function","name":"genesisTimestamp","inputs":[],"outputs":[{"name":"","type":"uint48","internalType":"uint48"}],"stateMutability":"view"},{"type":"function","name":"initialize","inputs":[{"name":"_owner","type":"address","internalType":"address"},{"name":"_mirror","type":"address","internalType":"address"},{"name":"_wrappedVara","type":"address","internalType":"address"},{"name":"_middleware","type":"address","internalType":"address"},{"name":"_eraDuration","type":"uint256","internalType":"uint256"},{"name":"_electionDuration","type":"uint256","internalType":"uint256"},{"name":"_validationDelay","type":"uint256","internalType":"uint256"},{"name":"_aggregatedPublicKey","type":"tuple","internalType":"struct Gear.AggregatedPublicKey","components":[{"name":"x","type":"uint256","internalType":"uint256"},{"name":"y","type":"uint256","internalType":"uint256"}]},{"name":"_verifiableSecretSharingCommitment","type":"bytes","internalType":"bytes"},{"name":"_validators","type":"address[]","internalType":"address[]"}],"outputs":[],"stateMutability":"nonpayable"},{"type":"function","name":"isValidator","inputs":[{"name":"_validator","type":"address","internalType":"address"}],"outputs":[{"name":"","type":"bool","internalType":"bool"}],"stateMutability":"view"},{"type":"function","name":"latestCommittedBatchHash","inputs":[],"outputs":[{"name":"","type":"bytes32","internalType":"bytes32"}],"stateMutability":"view"},{"type":"function","name":"latestCommittedBatchTimestamp","inputs":[],"outputs":[{"name":"","type":"uint48","internalType":"uint48"}],"stateMutability":"view"},{"type":"function","name":"lookupGenesisHash","inputs":[],"outputs":[],"stateMutability":"nonpayable"},{"type":"function","name":"middleware","inputs":[],"outputs":[{"name":"","type":"address","internalType":"address"}],"stateMutability":"view"},{"type":"function","name":"mirrorImpl","inputs":[],"outputs":[{"name":"","type":"address","internalType":"address"}],"stateMutability":"view"},{"type":"function","name":"owner","inputs":[],"outputs":[{"name":"","type":"address","internalType":"address"}],"stateMutability":"view"},{"type":"function","name":"programCodeId","inputs":[{"name":"_programId","type":"address","internalType":"address"}],"outputs":[{"name":"","type":"bytes32","internalType":"bytes32"}],"stateMutability":"view"},{"type":"function","name":"programsCodeIds","inputs":[{"name":"_programsIds","type":"address[]","internalType":"address[]"}],"outputs":[{"name":"","type":"bytes32[]","internalType":"bytes32[]"}],"stateMutability":"view"},{"type":"function","name":"programsCount","inputs":[],"outputs":[{"name":"","type":"uint256","internalType":"uint256"}],"stateMutability":"view"},{"type":"function","name":"reinitialize","inputs":[],"outputs":[],"stateMutability":"nonpayable"},{"type":"function","name":"renounceOwnership","inputs":[],"outputs":[],"stateMutability":"nonpayable"},{"type":"function","name":"requestCodeValidation","inputs":[{"name":"_codeId","type":"bytes32","internalType":"bytes32"}],"outputs":[],"stateMutability":"nonpayable"},{"type":"function","name":"setMirror","inputs":[{"name":"newMirror","type":"address","internalType":"address"}],"outputs":[],"stateMutability":"nonpayable"},{"type":"function","name":"signingThresholdFraction","inputs":[],"outputs":[{"name":"","type":"uint128","internalType":"uint128"},{"name":"","type":"uint128","internalType":"uint128"}],"stateMutability":"view"},{"type":"function","name":"storageView","inputs":[],"outputs":[{"name":"","type":"tuple","internalType":"struct IRouter.StorageView","components":[{"name":"genesisBlock","type":"tuple","internalType":"struct Gear.GenesisBlockInfo","components":[{"name":"hash","type":"bytes32","internalType":"bytes32"},{"name":"number","type":"uint32","internalType":"uint32"},{"name":"timestamp","type":"uint48","internalType":"uint48"}]},{"name":"latestCommittedBatch","type":"tuple","internalType":"struct Gear.CommittedBatchInfo","components":[{"name":"hash","type":"bytes32","internalType":"bytes32"},{"name":"timestamp","type":"uint48","internalType":"uint48"}]},{"name":"implAddresses","type":"tuple","internalType":"struct Gear.AddressBook","components":[{"name":"mirror","type":"address","internalType":"address"},{"name":"wrappedVara","type":"address","internalType":"address"},{"name":"middleware","type":"address","internalType":"address"}]},{"name":"validationSettings","type":"tuple","internalType":"struct Gear.ValidationSettingsView","components":[{"name":"thresholdNumerator","type":"uint128","internalType":"uint128"},{"name":"thresholdDenominator","type":"uint128","internalType":"uint128"},{"name":"validators0","type":"tuple","internalType":"struct Gear.ValidatorsView","components":[{"name":"aggregatedPublicKey","type":"tuple","internalType":"struct Gear.AggregatedPublicKey","components":[{"name":"x","type":"uint256","internalType":"uint256"},{"name":"y","type":"uint256","internalType":"uint256"}]},{"name":"verifiableSecretSharingCommitmentPointer","type":"address","internalType":"address"},{"name":"list","type":"address[]","internalType":"address[]"},{"name":"useFromTimestamp","type":"uint256","internalType":"uint256"}]},{"name":"validators1","type":"tuple","internalType":"struct Gear.ValidatorsView","components":[{"name":"aggregatedPublicKey","type":"tuple","internalType":"struct Gear.AggregatedPublicKey","components":[{"name":"x","type":"uint256","internalType":"uint256"},{"name":"y","type":"uint256","internalType":"uint256"}]},{"name":"verifiableSecretSharingCommitmentPointer","type":"address","internalType":"address"},{"name":"list","type":"address[]","internalType":"address[]"},{"name":"useFromTimestamp","type":"uint256","internalType":"uint256"}]}]},{"name":"computeSettings","type":"tuple","internalType":"struct Gear.ComputationSettings","components":[{"name":"threshold","type":"uint64","internalType":"uint64"},{"name":"wvaraPerSecond","type":"uint128","internalType":"uint128"}]},{"name":"timelines","type":"tuple","internalType":"struct Gear.Timelines","components":[{"name":"era","type":"uint256","internalType":"uint256"},{"name":"election","type":"uint256","internalType":"uint256"},{"name":"validationDelay","type":"uint256","internalType":"uint256"}]},{"name":"programsCount","type":"uint256","internalType":"uint256"},{"name":"validatedCodesCount","type":"uint256","internalType":"uint256"}]}],"stateMutability":"view"},{"type":"function","name":"timelines","inputs":[],"outputs":[{"name":"","type":"tuple","internalType":"struct Gear.Timelines","components":[{"name":"era","type":"uint256","internalType":"uint256"},{"name":"election","type":"uint256","internalType":"uint256"},{"name":"validationDelay","type":"uint256","internalType":"uint256"}]}],"stateMutability":"view"},{"type":"function","name":"transferOwnership","inputs":[{"name":"newOwner","type":"address","internalType":"address"}],"outputs":[],"stateMutability":"nonpayable"},{"type":"function","name":"validatedCodesCount","inputs":[],"outputs":[{"name":"","type":"uint256","internalType":"uint256"}],"stateMutability":"view"},{"type":"function","name":"validators","inputs":[],"outputs":[{"name":"","type":"address[]","internalType":"address[]"}],"stateMutability":"view"},{"type":"function","name":"validatorsAggregatedPublicKey","inputs":[],"outputs":[{"name":"","type":"tuple","internalType":"struct Gear.AggregatedPublicKey","components":[{"name":"x","type":"uint256","internalType":"uint256"},{"name":"y","type":"uint256","internalType":"uint256"}]}],"stateMutability":"view"},{"type":"function","name":"validatorsCount","inputs":[],"outputs":[{"name":"","type":"uint256","internalType":"uint256"}],"stateMutability":"view"},{"type":"function","name":"validatorsThreshold","inputs":[],"outputs":[{"name":"","type":"uint256","internalType":"uint256"}],"stateMutability":"view"},{"type":"function","name":"validatorsVerifiableSecretSharingCommitment","inputs":[],"outputs":[{"name":"","type":"bytes","internalType":"bytes"}],"stateMutability":"view"},{"type":"function","name":"wrappedVara","inputs":[],"outputs":[{"name":"","type":"address","internalType":"address"}],"stateMutability":"view"},{"type":"event","name":"AnnouncesCommitted","inputs":[{"name":"head","type":"bytes32","indexed":false,"internalType":"bytes32"}],"anonymous":false},{"type":"event","name":"BatchCommitted","inputs":[{"name":"hash","type":"bytes32","indexed":false,"internalType":"bytes32"}],"anonymous":false},{"type":"event","name":"CodeGotValidated","inputs":[{"name":"codeId","type":"bytes32","indexed":false,"internalType":"bytes32"},{"name":"valid","type":"bool","indexed":true,"internalType":"bool"}],"anonymous":false},{"type":"event","name":"CodeValidationRequested","inputs":[{"name":"codeId","type":"bytes32","indexed":false,"internalType":"bytes32"}],"anonymous":false},{"type":"event","name":"ComputationSettingsChanged","inputs":[{"name":"threshold","type":"uint64","indexed":false,"internalType":"uint64"},{"name":"wvaraPerSecond","type":"uint128","indexed":false,"internalType":"uint128"}],"anonymous":false},{"type":"event","name":"DebugEvent","inputs":[{"name":"topic0","type":"uint256","indexed":true,"internalType":"uint256"}],"anonymous":true},{"type":"event","name":"Initialized","inputs":[{"name":"version","type":"uint64","indexed":false,"internalType":"uint64"}],"anonymous":false},{"type":"event","name":"OwnershipTransferred","inputs":[{"name":"previousOwner","type":"address","indexed":true,"internalType":"address"},{"name":"newOwner","type":"address","indexed":true,"internalType":"address"}],"anonymous":false},{"type":"event","name":"ProgramCreated","inputs":[{"name":"actorId","type":"address","indexed":false,"internalType":"address"},{"name":"codeId","type":"bytes32","indexed":true,"internalType":"bytes32"}],"anonymous":false},{"type":"event","name":"StorageSlotChanged","inputs":[{"name":"slot","type":"bytes32","indexed":false,"internalType":"bytes32"}],"anonymous":false},{"type":"event","name":"ValidatorsCommittedForEra","inputs":[{"name":"eraIndex","type":"uint256","indexed":false,"internalType":"uint256"}],"anonymous":false},{"type":"error","name":"ApproveERC20Failed","inputs":[]},{"type":"error","name":"BatchTimestampNotInPast","inputs":[]},{"type":"error","name":"BatchTimestampTooEarly","inputs":[]},{"type":"error","name":"BlobNotFound","inputs":[]},{"type":"error","name":"CodeAlreadyOnValidationOrValidated","inputs":[]},{"type":"error","name":"CodeNotValidated","inputs":[]},{"type":"error","name":"CodeValidationNotRequested","inputs":[]},{"type":"error","name":"CommitmentEraNotNext","inputs":[]},{"type":"error","name":"DeploymentFailed","inputs":[]},{"type":"error","name":"ECDSAInvalidSignature","inputs":[]},{"type":"error","name":"ECDSAInvalidSignatureLength","inputs":[{"name":"length","type":"uint256","internalType":"uint256"}]},{"type":"error","name":"ECDSAInvalidSignatureS","inputs":[{"name":"s","type":"bytes32","internalType":"bytes32"}]},{"type":"error","name":"ElectionNotStarted","inputs":[]},{"type":"error","name":"EmptyValidatorsList","inputs":[]},{"type":"error","name":"EraDurationTooShort","inputs":[]},{"type":"error","name":"ErasTimestampMustNotBeEqual","inputs":[]},{"type":"error","name":"GenesisHashAlreadySet","inputs":[]},{"type":"error","name":"GenesisHashNotFound","inputs":[]},{"type":"error","name":"InvalidElectionDuration","inputs":[]},{"type":"error","name":"InvalidFROSTAggregatedPublicKey","inputs":[]},{"type":"error","name":"InvalidFrostSignatureCount","inputs":[]},{"type":"error","name":"InvalidFrostSignatureLength","inputs":[]},{"type":"error","name":"InvalidInitialization","inputs":[]},{"type":"error","name":"InvalidPreviousCommittedBatchHash","inputs":[]},{"type":"error","name":"InvalidTimestamp","inputs":[]},{"type":"error","name":"NotInitializing","inputs":[]},{"type":"error","name":"OwnableInvalidOwner","inputs":[{"name":"owner","type":"address","internalType":"address"}]},{"type":"error","name":"OwnableUnauthorizedAccount","inputs":[{"name":"account","type":"address","internalType":"address"}]},{"type":"error","name":"PredecessorBlockNotFound","inputs":[]},{"type":"error","name":"ReentrancyGuardReentrantCall","inputs":[]},{"type":"error","name":"RewardsCommitmentEraNotPrevious","inputs":[]},{"type":"error","name":"RewardsCommitmentPredatesGenesis","inputs":[]},{"type":"error","name":"RewardsCommitmentTimestampNotInPast","inputs":[]},{"type":"error","name":"RouterGenesisHashNotInitialized","inputs":[]},{"type":"error","name":"SignatureVerificationFailed","inputs":[]},{"type":"error","name":"TimestampInFuture","inputs":[]},{"type":"error","name":"TimestampOlderThanPreviousEra","inputs":[]},{"type":"error","name":"TooManyChainCommitments","inputs":[]},{"type":"error","name":"TooManyRewardsCommitments","inputs":[]},{"type":"error","name":"TooManyValidatorsCommitments","inputs":[]},{"type":"error","name":"UnknownProgram","inputs":[]},{"type":"error","name":"ValidationBeforeGenesis","inputs":[]},{"type":"error","name":"ValidationDelayTooBig","inputs":[]},{"type":"error","name":"ValidatorsAlreadyScheduled","inputs":[]},{"type":"error","name":"ValidatorsNotFoundForTimestamp","inputs":[]},{"type":"error","name":"ZeroValueTransfer","inputs":[]}],"bytecode":{"object":"0x6080806040523460aa575f516020613fe15f395f51905f525460ff8160401c16609b576002600160401b03196001600160401b038216016049575b604051613f3290816100af8239f35b6001600160401b0319166001600160401b039081175f516020613fe15f395f51905f525581527fc7f505b2f371ae2175ee4913f4499e1f2633a7b5936321eed1cdaeb6115181d290602090a15f80603a565b63f92ee8a960e01b5f5260045ffd5b5f80fdfe6080806040526004361015610089575b50361561001a575f80fd5b5f516020613ef25f395f51905f525460018101541561007a576001600160801b0334161561006b57335f908152601a9190910160205260409020541561005c57005b63821a62f560e01b5f5260045ffd5b63a1a7c6eb60e01b5f5260045ffd5b63580683f360e01b5f5260045ffd5b5f905f3560e01c9081627a32e7146122ec575080630c18d27714611e02578063120e3f1e14611d2b57806328e24b3d14611cfd5780633683c4d214611ada5780633bd109fa14611a8b5780633d43b41814611a375780634429e24b14611a1b57806353f7fd48146115a45780636c2eb35014611247578063715018a6146111de57806371a8cf2d146111b057806382bdeaad1461109857806384d22a4f1461103a57806388f50cf0146110015780638b1edf1e14610fa25780638da5cb5b14610f6d5780638f381dbe14610f275780639067088e14610ede57806396a2ddfa14610eb05780639eb939a814610e59578063a5d53a4414610deb578063ad2b3d9a14610dcf578063b24fcac01461091b578063baaf02011461081a578063c13911e8146107d6578063c2eb812f146104aa578063ca1e78191461045a578063cacf66ab14610422578063d456fd51146103ec578063e3a6684f146103ad578063e6fabc0914610374578063ed612f8c1461033c578063edc87225146102e7578063f2fde38b146102ba578063f4f20ac0146102815763facd743b0361000f573461027e57602036600319011261027e57610240612342565b600361025b5f516020613ef25f395f51905f52544290613a4d565b019060018060a01b03165f52602052602060ff60405f2054166040519015158152f35b80fd5b503461027e578060031936011261027e575f516020613ef25f395f51905f5254600701546040516001600160a01b039091168152602090f35b503461027e57602036600319011261027e576102e46102d7612342565b6102df6128a5565b612826565b80f35b503461027e578060031936011261027e5760206103345f516020613ef25f395f51905f52546008600461031a4284613a4d565b0154910154906001600160801b038260801c921690613a22565b604051908152f35b503461027e578060031936011261027e576020600461036a5f516020613ef25f395f51905f52544290613a4d565b0154604051908152f35b503461027e578060031936011261027e575f516020613ef25f395f51905f5254600501546040516001600160a01b039091168152602090f35b503461027e578060031936011261027e57604060085f516020613ef25f395f51905f525401548151906001600160801b038116825260801c6020820152f35b503461027e578060031936011261027e57602065ffffffffffff60045f516020613ef25f395f51905f5254015416604051908152f35b503461027e578060031936011261027e57602065ffffffffffff60025f516020613ef25f395f51905f52540154821c16604051908152f35b503461027e578060031936011261027e576104a6610492600461048c5f516020613ef25f395f51905f52544290613a4d565b0161261b565b6040519182916020835260208301906123a9565b0390f35b503461027e578060031936011261027e576040516104c781612476565b6104cf612754565b81526040516104dd8161245b565b5f8152602081015f905260208201526104f4612754565b60408201526105016127f3565b60608201526040516105128161245b565b5f80825260208201526080820152610528612754565b60a08201528160c082015260e001525f516020613ef25f395f51905f525461054e6127f3565b5061055b60098201613cdd565b90610568600f8201613cdd565b6008820154926040519361057b85612492565b6001600160801b038116855260801c602085015260408401526060830152601b81015490601c810154604051926105b184612476565b6040516105bd8161242c565b60018401548152600284015463ffffffff8116602083015260201c65ffffffffffff1660408201528452604051946105f48661245b565b60038401548652600484015465ffffffffffff16602087015260208501958652604051906106218261242c565b60058501546001600160a01b039081168352600686015481166020840152600786015416604080840191909152860191825260608601908152610666601586016126a6565b946080870195865260160161067a90612772565b9160a0870192835260c0870193845260e087019485526040519788976020895251805160208a0152602081015163ffffffff1660408a01526040015165ffffffffffff16606089015251805160808901526020015165ffffffffffff1660a088015251600160a01b6001900381511660c0880152600160a01b6001900360208201511660e0880152600160a01b60019003906040015116610100870152516101208601610200905280516001600160801b031661022087015260208101516001600160801b031661024087015260408101516102608701608090526102a08701610763916123e5565b90606001519061021f1987820301610280880152610780916123e5565b935180516001600160401b0316610140870152602001516001600160801b031661016086015251805161018086015260208101516101a0860152604001516101c0850152516101e0840152516102008301520390f35b503461027e57602036600319011261027e5760ff604060209260195f516020613ef25f395f51905f52540160043582528452205416610818604051809261239c565bf35b503461027e57602036600319011261027e576004356001600160401b0381116109175761084b90369060040161236c565b905f516020613ef25f395f51905f525490610865836125b0565b9161087360405193846124ad565b83835261087f846125b0565b602084019490601f1901368637601a869201915b8181106108de57868587604051928392602084019060208552518091526040840192915b8181106108c5575050500390f35b82518452859450602093840193909201916001016108b7565b806108f46108ef600193858861266e565b6126d4565b828060a01b03165f528360205260405f20546109108288612692565b5201610893565b5080fd5b503461027e57606036600319011261027e576001600160401b036004351161027e576101006004353603600319011261027e576002602435101561027e576044356001600160401b0381116109175761097890369060040161236c565b7f9b779b17422d0df92223018b32b4d1fa46e071723d6817e2486d003becc55f005c610dc05760017f9b779b17422d0df92223018b32b4d1fa46e071723d6817e2486d003becc55f005d5f516020613ef25f395f51905f525490600182015415610db157815415610d55575b60038201546044600435013503610d465765ffffffffffff60048301541665ffffffffffff610a176024600435016127a8565b1610610d3857610a2c60043560040183612c0d565b9260018580a1610a4660a4600435016004356004016130c2565b808096925060051b0460201485151715610d2457610a668560051b613ac9565b8695865b818810610bdb5750610ba1965060051b90209060028780a1610a9160043560040186613126565b610aa060043560040187613519565b90610aaf6024600435016127a8565b93610abe60646004350161279a565b9360405194602086019660043560040135885265ffffffffffff60d01b9060d01b16604087015260446004350135604687015260ff60f81b9060f81b1660668601526067850152608784015260a783015260c782015260c78152610b2360e7826124ad565b5190209283600382015565ffffffffffff610b426024600435016127a8565b1665ffffffffffff196004830154161760048201557f7ebe42360bcb182fe0a88148b081e4557c89d09aa6af8307635ac2f83e2aaa656020604051868152a165ffffffffffff610b966024600435016127a8565b1693602435916137ad565b15610bcc57807f9b779b17422d0df92223018b32b4d1fa46e071723d6817e2486d003becc55f005d80f35b63729d0f6b60e01b8152600490fd5b610bef60a4600435016004356004016130c2565b891015610d10578860061b8101358a526019880160205260ff60408b2054166003811015610cfc57600103610ced57600191602091610cb28b8b8e868360061b86010192610c3c846130f7565b15610cce5760061b85013590525060198c01855260408e20805460ff19166002179055601c8c018054610c6e90612897565b90555b8c7f460119a8f69a33ed127de517d5ea464e958ce23ef19e4420a8b92bf780bbc2c986610c9d846130f7565b1515926040519060061b8701358152a26130f7565b908b60061b01358c52825360218b208186015201970196610a6a565b60409260199160061b87013583520187522060ff198154169055610c71565b636e83084760e11b8a5260048afd5b634e487b7160e01b8b52602160045260248bfd5b634e487b7160e01b8a52603260045260248afd5b634e487b7160e01b86526011600452602486fd5b620725b160ea1b8452600484fd5b63164b6fc360e01b8452600484fd5b610d72610d6660646004350161279a565b60043560040135612b78565b15610da25765ffffffffffff610d8c6024600435016127a8565b1642116109e457631ad8809560e31b8452600484fd5b637b8cb35960e01b8452600484fd5b63580683f360e01b8452600484fd5b633ee5aeb560e01b8352600483fd5b503461027e578060031936011261027e57602060405160018152f35b503461027e578060031936011261027e576040610e2c5f516020613ef25f395f51905f52546002610e2460018060a01b03924290613a4d565b015416612b49565b6020825193849282845280519283918282870152018585015e828201840152601f01601f19168101030190f35b503461027e578060031936011261027e57610e72612754565b506060610e8f60165f516020613ef25f395f51905f525401612772565b61081860405180926040809180518452602081015160208501520151910152565b503461027e578060031936011261027e576020601b5f516020613ef25f395f51905f52540154604051908152f35b503461027e57602036600319011261027e57610ef8612342565b601a5f516020613ef25f395f51905f5254019060018060a01b03165f52602052602060405f2054604051908152f35b503461027e57602036600319011261027e57600435906001600160401b03821161027e576020610f63610f5d366004860161236c565b906126e8565b6040519015158152f35b503461027e578060031936011261027e575f516020613ed25f395f51905f52546040516001600160a01b039091168152602090f35b503461027e578060031936011261027e575f516020613ef25f395f51905f525460018101908154610ff2576002015463ffffffff1640908115610fe3575580f35b63f7bac7b560e01b8352600483fd5b6309476b0360e41b8352600483fd5b503461027e578060031936011261027e575f516020613ef25f395f51905f5254600601546040516001600160a01b039091168152602090f35b503461027e578060031936011261027e576110536124ce565b50604061107060155f516020613ef25f395f51905f5254016126a6565b610818825180926001600160801b03602080926001600160401b038151168552015116910152565b503461027e57602036600319011261027e576004356001600160401b038111610917576110c990369060040161236c565b905f516020613ef25f395f51905f5254906110e3836125b0565b916110f160405193846124ad565b8383526110fd846125b0565b602084019490601f19013686376019869201915b81811061116657868587604051928392602084019060208552518091526040840192915b818110611143575050500390f35b9193509160208082611158600194885161239c565b019401910191849392611135565b61117181838661266e565b3587528260205260ff60408820541661118a8287612692565b600382101561119c5752600101611111565b634e487b7160e01b89526021600452602489fd5b503461027e578060031936011261027e57602060035f516020613ef25f395f51905f52540154604051908152f35b503461027e578060031936011261027e576111f76128a5565b5f516020613ed25f395f51905f5280546001600160a01b0319811690915581906001600160a01b03167f8be0079c531659141344cd1fd0a4f28419497f9722a3daafe3b4186f6b6457e08280a380f35b503461027e578060031936011261027e575f516020613f125f395f51905f525460ff8160401c1690811561158f575b50611580575f516020613f125f395f51905f52805468ffffffffffffffffff1916680100000000000000021790555f516020613ed25f395f51905f52546112d0906001600160a01b03166112c8613a69565b6102df613a69565b7fc7f505b2f371ae2175ee4913f4499e1f2633a7b5936321eed1cdaeb6115181d260205f516020613ef25f395f51905f5254604090815161131183826124ad565b601781528381017f726f757465722e73746f726167652e526f75746572563200000000000000000081526113436128a5565b5f199151902001855260ff198386201690815f516020613ef25f395f51905f52557f059eb9adf6e95b839d818142ed5bd5e498b6d95138e65c91525e93cc0f0339fc848451848152a16113946128d8565b80516001840155600283019063ffffffff868201511669ffffffffffff00000000868454930151881b169169ffffffffffffffffffff191617179055600581016005830190808203611532575b5050600881016001600160801b038154169060088401916001600160801b0319835416178255546001600160801b03825491811916911617905561146a6114284283613a4d565b61143f6001600160a01b036002610e244287613a4d565b611455600461144e4287613a4d565b01926124e6565b90611460429361261b565b9160098701612920565b6015810160158301908082036114e0575b50506016810160168301918183036114c0575b5050505060ff60401b195f516020613f125f395f51905f5254165f516020613f125f395f51905f52555160028152a180f35b60189283925490556017810154601785015501549101555f80808061148e565b806001600160401b03806001600160801b03935416166001600160401b031984541617835554851c16600160401b600160c01b03825491861b1690600160401b600160c01b0319161790555f8061147b565b5481546001600160a01b03199081166001600160a01b039283161790925560068381015490850180548416918316919091179055600780840154908501805490931691161790555f806113e1565b63f92ee8a960e01b8152600490fd5b600291506001600160401b031610155f611276565b503461027e5761016036600319011261027e576115bf612342565b6024356001600160a01b0381169190829003611a17576115dd612316565b916115e661232c565b9260c43591608435919060a43560403660e3190112611a135761012435946001600160401b038611611a0f5736602387011215611a0f578560040135916001600160401b038311611a0b573660248489010111611a0b57610144356001600160401b038111611a075761165d90369060040161236c565b9690945f516020613f125f395f51905f5254996001600160401b0360ff8c60401c16159b16801590816119ff575b60011490816119f5575b1590816119ec575b506119dd576116df908b60016001600160401b03195f516020613f125f395f51905f525416175f516020613f125f395f51905f52556119ad575b6112c8613a69565b6116e7613a69565b421561199e57821561198f578282111561198057600a6117078484612504565b048410156119715760409a8b918d835161172185826124ad565b60178152602081017f726f757465722e73746f726167652e526f75746572563100000000000000000081526117546128a5565b905190205f190190526020808f2060ff19165f516020613ef25f395f51905f528190558451818152909a917f059eb9adf6e95b839d818142ed5bd5e498b6d95138e65c91525e93cc0f0339fc91a16117aa6128d8565b805160018c015560028b0190602081015163ffffffff1686835492015160201b69ffffffffffff00000000169169ffffffffffffffffffff1916171790558351906117f48261242c565b8282526001600160a01b03908116602083018190529381169490910184905260058a018054919092166001600160a01b0319918216179091556006890180548216909217909155600788018054909116909117905570030000000000000000000000000000000260088701556118686124ce565b5089516118748161245b565b639502f90081526509184e72a0006020909101526015860180546001600160c01b0319166d09184e72a000000000009502f900179055895183908b906118b98161242c565b83815284602082015201526016860155601785015560188401558651946118df8661245b565b60e43586526101043560208701526118fb91369160240161256b565b9042933690611909926125c7565b916009019361191794612920565b61191f575080f35b60207fc7f505b2f371ae2175ee4913f4499e1f2633a7b5936321eed1cdaeb6115181d29160ff60401b195f516020613f125f395f51905f5254165f516020613f125f395f51905f52555160018152a180f35b63145e348f60e01b8c5260048cfd5b6353b2bbed60e01b8c5260048cfd5b63f7ba6bdb60e01b8c5260048cfd5b63b7d0949760e01b8c5260048cfd5b600160401b60ff60401b195f516020613f125f395f51905f525416175f516020613f125f395f51905f52556116d7565b63f92ee8a960e01b8d5260048dfd5b9050155f61169d565b303b159150611695565b8c915061168b565b8a80fd5b8980fd5b8880fd5b8780fd5b8280fd5b503461027e578060031936011261027e57602060405160028152f35b503461027e57602036600319011261027e57611a51612342565b611a596128a5565b5f516020613ef25f395f51905f525460050180546001600160a01b0319166001600160a01b0390921691909117905580f35b503461027e578060031936011261027e57611aa46124ce565b506040611ac8611ac35f516020613ef25f395f51905f52544290613a4d565b6124e6565b60208251918051835201516020820152f35b503461027e57606036600319011261027e57600435611af7612316565b5f516020613ef25f395f51905f5254600181015415610db1578284526019810160205260ff6040852054166003811015611ce957600203611cda578284526024356020526040842060405160608101908082106001600160401b03831117611cd657605a916040527f3d605080600a3d3981f3608060405263e6fabc0960e01b5f5260205f6004817381523060601b6b5afa15604c575f80805136821760208201527f80378136915af43d5f803e156048573d5ff35b3d5ffd5b5f80fd000000000000604082015286f5908115611cd2576001600160a01b0382165f908152601a820160205260409020849055601b018054611bf290612897565b90556040516001600160a01b03821680825293907f8008ec1d8798725ebfa0f2d128d52e8e717dcba6e0f786557eeee70614b02bf190602090a2506001600160a01b038116611ccd5750335b5f516020613ef25f395f51905f5254600501546001600160a01b0316823b15611cc957604051631c9776b560e31b81526001600160a01b039092166004830152602482015260016044820152828160648183865af18015611cbe57611ca9575b602082604051908152f35b611cb48380926124ad565b6109175781611c9e565b6040513d85823e3d90fd5b8380fd5b611c3e565b8480fd5b8680fd5b630e2637d160e01b8452600484fd5b634e487b7160e01b85526021600452602485fd5b503461027e578060031936011261027e57602060015f516020613ef25f395f51905f52540154604051908152f35b503461027e57602036600319011261027e57600435814915611df3575f516020613ef25f395f51905f5254600181015415611de4576019018183528060205260ff6040842054166003811015611dd057611dc15781835260209081526040808420805460ff19166001179055519182527f5c261a095dd5720475295dc06379921c003c22164ee6cae5cf83e76ce0a1b98591a180f35b6304c51a3360e31b8352600483fd5b634e487b7160e01b84526021600452602484fd5b63580683f360e01b8352600483fd5b637bb2fa2f60e11b8252600482fd5b346122bf5760803660031901126122bf57600435611e1e612316565b90611e2761232c565b915f516020613ef25f395f51905f525460018101541561007a57825f526019810160205260ff60405f20541660038110156122d8576002036122c957825f5260243560205260405f206040516102c08101908082106001600160401b038311176122bf576102b0916040527f60808060405261029e90816100128239f3fe608060405260043610610254575f81527f3560e01c806336a52a18146100ab57806342129d00146100a65780635ce6c32760208201527f146100a1578063701da98e1461009c578063704ed542146100975780637a8e0c60408201527fdd1461009257806391d5a64c1461008d5780639ce110d714610088578063affe60608201527fd0e0146100835763e43f3433036102545761023f565b610222565b6101fa565b60808201527f6101e4565b6101b1565b610181565b610165565b610143565b610106565b346160a08201527ed4575f3660031901126100d45760025460081c6001600160a01b031660809060c08201527f8152602090f35b5f80fd5b9181601f840112156100d45782359167ffffffffff60e08201527fffffff83116100d457602083818601950101116100d457565b604036600319016101008201527f126100d45760043567ffffffffffffffff81116100d4576101329036906004016101208201527f6100d8565b505060243580151514610254575f80fd5b346100d4575f366003196101408201527f01126100d457602060ff600254166040519015158152f35b346100d4575f36606101608201527f031901126100d45760205f54604051908152f35b346100d457602036600319016101808201527f126100d4576004356fffffffffffffffffffffffffffffffff811614610254576101a08201527f5f80fd5b60403660031901126100d45760243567ffffffffffffffff811161006101c08201527fd4576101dd9036906004016100d8565b5050610254565b346100d457602036606101e08201527f0319011215610254575f80fd5b346100d4575f3660031901126100d4576003546102008201527f6040516001600160a01b039091168152602090f35b346100d4575f36600319016102208201527f126100d4576020600154604051908152f35b346100d4575f36600319011215616102408201523060601c7f0254575f80fd5b63e6fabc0960e01b5f5260205f60048173000000000000000017610260820152735afa156100d4575f808051368280378136915af43060a01b176102808201526f3d5f803e1561029a573d5ff35b3d5ffd60801b6102a08201525ff59081156122bf576001600160a01b0382165f908152601a820160205260409020849055601b01805461220490612897565b90556040516001600160a01b03821680825293907f8008ec1d8798725ebfa0f2d128d52e8e717dcba6e0f786557eeee70614b02bf190602090a2506001600160a01b0381166122c3575033915b813b156122bf57604051631c9776b560e31b81526001600160a01b039384166004820152921660248301525f604483018190528260648183855af19182156122b4576020926122a4575b50604051908152f35b5f6122ae916124ad565b5f61229b565b6040513d5f823e3d90fd5b5f80fd5b91612251565b630e2637d160e01b5f5260045ffd5b634e487b7160e01b5f52602160045260245ffd5b346122bf575f3660031901126122bf57602090601c5f516020613ef25f395f51905f525401548152f35b604435906001600160a01b03821682036122bf57565b606435906001600160a01b03821682036122bf57565b600435906001600160a01b03821682036122bf57565b35906001600160a01b03821682036122bf57565b9181601f840112156122bf578235916001600160401b0383116122bf576020808501948460051b0101116122bf57565b9060038210156122d85752565b90602080835192838152019201905f5b8181106123c65750505090565b82516001600160a01b03168452602093840193909201916001016123b9565b9060208251805183520151602082015260018060a01b03602083015116604082015260806060612423604085015160a08386015260a08501906123a9565b93015191015290565b606081019081106001600160401b0382111761244757604052565b634e487b7160e01b5f52604160045260245ffd5b604081019081106001600160401b0382111761244757604052565b61010081019081106001600160401b0382111761244757604052565b608081019081106001600160401b0382111761244757604052565b90601f801991011681019081106001600160401b0382111761244757604052565b604051906124db8261245b565b5f6020838281520152565b906040516124f38161245b565b602060018294805484520154910152565b9190820391821161251157565b634e487b7160e01b5f52601160045260245ffd5b811561252f570490565b634e487b7160e01b5f52601260045260245ffd5b91908260409103126122bf5760405161255b8161245b565b6020808294803584520135910152565b9291926001600160401b0382116124475760405191612594601f8201601f1916602001846124ad565b8294818452818301116122bf578281602093845f960137010152565b6001600160401b0381116124475760051b60200190565b9291906125d3816125b0565b936125e160405195866124ad565b602085838152019160051b81019283116122bf57905b82821061260357505050565b6020809161261084612358565b8152019101906125f7565b90604051918281549182825260208201905f5260205f20925f5b81811061264c57505061264a925003836124ad565b565b84546001600160a01b0316835260019485019487945060209093019201612635565b919081101561267e5760051b0190565b634e487b7160e01b5f52603260045260245ffd5b805182101561267e5760209160051b010190565b906040516126b38161245b565b91546001600160401b038116835260401c6001600160801b03166020830152565b356001600160a01b03811681036122bf5790565b6127015f516020613ef25f395f51905f52544290613a4d565b600301905f5b8381106127175750505050600190565b6127256108ef82868561266e565b6001600160a01b03165f9081526020849052604090205460ff161561274c57600101612707565b505050505f90565b604051906127618261242c565b5f6040838281528260208201520152565b9060405161277f8161242c565b60406002829480548452600181015460208501520154910152565b3560ff811681036122bf5790565b3565ffffffffffff811681036122bf5790565b604051906127c882612492565b5f6060836040516127d88161245b565b83815283602082015281528260208201528160408201520152565b6040519061280082612492565b815f81525f60208201526128126127bb565b604082015260606128216127bb565b910152565b6001600160a01b03168015612884575f516020613ed25f395f51905f5280546001600160a01b0319811683179091556001600160a01b03167f8be0079c531659141344cd1fd0a4f28419497f9722a3daafe3b4186f6b6457e05f80a3565b631e4fbdf760e01b5f525f60045260245ffd5b5f1981146125115760010190565b5f516020613ed25f395f51905f52546001600160a01b031633036128c557565b63118cdaa760e01b5f523360045260245ffd5b6128e0612754565b506040516128ed8161242c565b5f815263ffffffff4316602082015265ffffffffffff4216604082015290565b8181029291811591840414171561251157565b9291908051906020810191825170014551231950b75fc4402da1732fc9bebe1982109182612b38575b505015612b29575184555160018401556040519061298c6021836020808201945f86528051918291018484015e81015f838201520301601f1981018452836124ad565b6129c9602b604051809360208201956a600b5981380380925939f360a81b87525180918484015e81015f838201520301601f1981018352826124ad565b51905ff06001600160a01b03811615612b1a576002830180546001600160a01b0319166001600160a01b039092169190911790555f5b600483018054821015612a3d575f90815260208082208301546001600160a01b0316825260038501905260409020805460ff191690556001016129ff565b5050925f5b8451811015612a86576001906001600160a01b03612a608288612692565b5116828060a01b03165f526003840160205260405f208260ff1982541617905501612a42565b5092600482018151916001600160401b03831161244757600160401b8311612447578154838355808410612af0575b50602001905f5260205f205f5b838110612ad3575050505060050155565b82516001600160a01b031681830155602090920191600101612ac2565b825f52838060205f20019103905f5b828110612b0d575050612ab5565b5f82820155600101612aff565b633011642560e01b5f5260045ffd5b63375f0aab60e11b5f5260045ffd5b612b429250613e2c565b5f80612949565b803b905f198201908282116125115760019060405193603e601f19910116840160405282845260208401903c90565b435f19810193929084116125115760ff16438110612bc857505f925b83811015612ba4575b505f925050565b8040828103612bb65750600193505050565b15612bc3575f1901612b94565b612b9d565b612bd29043612504565b92612b94565b903590601e19813603018212156122bf57018035906001600160401b0382116122bf57602001918160051b360383136122bf57565b90608081016001612c1e8284612bd8565b9050116130b357612c2f8183612bd8565b90501561308c57612c3f91612bd8565b1561267e57803590603e19813603018212156122bf570191612c618380612bd8565b9190928260051b938385046020148415171561251157612c8385969495613ac9565b925f945f97601a60fe19853603019501965b888a1015613044578960051b850135868112156122bf578501612cb7816126d4565b6001600160a01b03165f90815260208a905260409020541561005c575f608082016001600160801b03612ce982613a94565b16151580613031575b613020575b6001600160a01b03612d08846126d4565b604051630427a21d60e11b81526020600482015294911691610124850191906001600160801b0390612d87906001600160a01b03612d4585612358565b16602489015260208401356044890152612d6160408501613aa8565b151560648901526001600160a01b03612d7c60608601612358565b166084890152613ab5565b1660a4860152612d9960a08201613aa8565b151560c486015236819003601e190160c0820135818112156122bf578201602081359101936001600160401b0382116122bf5760608202360385136122bf57819061010060e48a015252610144870193905f905b808210612fd65750505060e0820135908112156122bf5701803560208201926001600160401b0382116122bf578160051b9081360385136122bf5791879594936023198785030161010488015281845260208085019385010194935f9160fe19813603015b848410612ec95750505050505050602093916001600160801b03848093039316905af19081156122b4575f91612e97575b50816020916001938a015201990198612c95565b90506020813d8211612ec1575b81612eb1602093836124ad565b810103126122bf57516001612e83565b3d9150612ea4565b919395979850919395601f198482030187528735828112156122bf578301602081013582526001600160a01b03612f0260408301612358565b1660208301526060810135603e1936839003018112156122bf578101602081013591906040016001600160401b0383116122bf5782360381136122bf57829060e060408601528160e08601526101008501375f61010083850101526001600160801b03612f7160808301613ab5565b16606084015260a0810135608084015260c081013563ffffffff60e01b81168091036122bf5783602093612fb360e086956101009560a060019a015201613aa8565b151560c0830152601f80199101160101990197019401918a989796959391612e52565b90919460608060019288358152838060a01b03612ff560208b01612358565b1660208201526001600160801b0361300f60408b01613ab5565b166040820152019601920190612ded565b905061302b81613a94565b90612cf7565b5061303e60a084016130f7565b15612cf2565b5094935095509550506020925020910135907fd04cd9af813f6f0b56e9411a6ee6a84eb5ac35a96f0c33d2e3a07d65baa8f4186020604051848152a15f5260205260405f2090565b5050507fc5d2460186f7233c927e7db2dcc703c0e500b653ca82273b7bfad8045d85a47090565b6306d6c38360e01b5f5260045ffd5b903590601e19813603018212156122bf57018035906001600160401b0382116122bf57602001918160061b360383136122bf57565b3580151581036122bf5790565b903590605e19813603018212156122bf570190565b9190820180921161251157565b60c0820160016131368285612bd8565b9050116134d8576131478184612bd8565b90501561308c576131589083612bd8565b1561267e57803590607e19813603018212156122bf57019160608301906020613180836127a8565b91019065ffffffffffff80613194846127a8565b16911610156134c9576131a6826127a8565b65ffffffffffff80600286015460201c169116106134ba576131ec65ffffffffffff6131e56131df826131d8876127a8565b1687613aee565b936127a8565b1684613aee565b11156134ab576007820154600690920180548435946001600160a01b0394851694604082019391925f916020911660446132328361322a8989613104565b01358b613119565b604051948593849263095ea7b360e01b84528c600485015260248401525af19081156122b4575f91613470575b5015613461575460405163394f179b60e11b81526001600160a01b03909116600482015260248101959095526020818101356044870152856064815f885af19485156122b4575f95613429575b50906132b791613104565b916132c1826127a8565b9260405193637fbe95b560e01b85526040600486015260a48501918035601e19823603018112156122bf578101602081359101936001600160401b0382116122bf578160061b360385136122bf5760606044890152819052869360c485019392915f5b8181106133f157505050836020959365ffffffffffff829484895f960135606486015261335a604060018060a01b039201612358565b16608485015216602483015203925af19182156122b4575f926133bb575b50613382906127a8565b6040519160208301938452604083015265ffffffffffff60d01b9060d01b166060820152604681526133b56066826124ad565b51902090565b9091506020813d6020116133e9575b816133d7602093836124ad565b810103126122bf575190613382613378565b3d91506133ca565b919550919293604080600192838060a01b0361340c8a612358565b168152602089013560208201520196019101918895949392613324565b919094506020823d602011613459575b81613446602093836124ad565b810103126122bf579051936132b76132ac565b3d9150613439565b6367b9145160e01b5f5260045ffd5b90506020813d6020116134a3575b8161348b602093836124ad565b810103126122bf575180151581036122bf575f61325f565b3d915061347e565b6308027f7760e31b5f5260045ffd5b637bde91e760e11b5f5260045ffd5b63087a19ab60e41b5f5260045ffd5b633249ceed60e11b5f5260045ffd5b903590601e19813603018212156122bf57018035906001600160401b0382116122bf576020019181360383136122bf57565b9060e08101600161352a8284612bd8565b90501161379e5761353b8183612bd8565b90501561308c5761354b91612bd8565b1561267e57803590609e19813603018212156122bf570160608101906135718282612bd8565b90501561378f5765ffffffffffff600284015460201c16916135938342612504565b6135a260168601548092612525565b9360808401359460018101809111612511578503613780576135c7856135cd9361290d565b90613119565b936135dc601782015486612504565b4210613771576135eb90613b16565b9342600586015410156137625761364090604084019561363261363a61361189886134e7565b919061361d888a612bd8565b94909161362a368c612543565b94369161256b565b9336916125c7565b92612920565b7fa1a3b42179ad30022438a1ea333b38eaf4a7329beee5e2b8111c0dcd4e08821c6020604051858152a160a0823603126122bf576040519361368185612492565b61368b3684612543565b8552356001600160401b0381116122bf57820136601f820112156122bf576136ba90369060208135910161256b565b602085015235906001600160401b0382116122bf570136601f820112156122bf576136ec9036906020813591016125c7565b91826040820152816060820152519160208351930151906040519283926020840195865260408401526060830160208351919301905f5b818110613740575050508152038082526133b590602001826124ad565b82516001600160a01b0316855286955060209485019490920191600101613723565b6333fc8f5160e21b5f5260045ffd5b6372a84ce560e11b5f5260045ffd5b6343d3f5bf60e01b5f5260045ffd5b636c2bf3db60e01b5f5260045ffd5b631d3fc6bf60e21b5f5260045ffd5b909493919365ffffffffffff600283015460201c166137cc4284613aee565b6137e46137de6016860154809361290d565b83613119565b918284108080613a0c575b156139da575083106139cc576138059083613119565b106139bd57613815905b82613a4d565b94601960f81b5f523060601b60025260165260365f209360028110156122d857806138a95750506001810361389a571561267e576138568161385d926134e7565b369161256b565b91606083510361388b5782602061388894015160606040830151920151926001815491015490613b31565b90565b632ce466bf60e01b5f5260045ffd5b6360a1ea7760e01b5f5260045ffd5b9193916001146138bc5750505050505f90565b6138e190600860048796970154910154906001600160801b038260801c921690613a22565b925f9260035f9201915b868110156139b25761391a61391161390b6138568460051b8601866134e7565b86613d92565b90929192613dcc565b6001600160a01b0381165f9081526020859052604090205460ff16613945575b506001905b016138eb565b6001600160a01b03165f9081527ff02b465737fa6045c2ff53fb2df43c66916ac2166fa303264668fb2f6a1d8c0060205260409020805c1561398a575060019061393f565b94600161399892965d612897565b938585146139a6575f61393a565b50505050505050600190565b505050505050505f90565b63046bb1e560e51b5f5260045ffd5b62f4462b60e01b5f5260045ffd5b93929150504282116139fd57613815926139f5575b5061380f565b90505f6139ef565b6347860b9760e01b5f5260045ffd5b50613a1b601887015485613119565b42106137ef565b6001600160801b03809216029116613a3a8183612525565b91811561252f5706156138885760010190565b90613a589082613d32565b15613a6357600f0190565b60090190565b60ff5f516020613f125f395f51905f525460401c1615613a8557565b631afcd79f60e31b5f5260045ffd5b356001600160801b03811681036122bf5790565b359081151582036122bf57565b35906001600160801b03821682036122bf57565b6040519190601f01601f191682016001600160401b038111838210176122bf57604052565b6016613b0d6138889365ffffffffffff600285015460201c1690612504565b91015490612525565b613b204282613d32565b15613b2b5760090190565b600f0190565b9293919490613b408587613e2c565b15613cd3578215613cd35770014551231950b75fc4402da1732fc9bebe19831015613cd3576001169061010e613b7581613ac9565b9160883684376002600188160160888401538760898401526002840160a984015360aa830186905260ca8301527e300046524f53542d736563703235366b312d4b454343414b3235362d76316360ea8301526303430b6160e51b61010a830152812060cc820181815290600260ec84016001815360428420809318845253604270014551231950b75fc4402da1732fc9bebe19922060801c6001600160401b0360801b8260801b16179070014551231950b75fc4402da1732fc9bebe1990600160c01b9060401c090880156139b25784601b6080945f9660209870014551231950b75fc4402da1732fc9bebe19910970014551231950b75fc4402da1732fc9bebe19038552018684015280604084015270014551231950b75fc4402da1732fc9bebe19910970014551231950b75fc4402da1732fc9bebe1903606082015282805260015afa505f51915f5260205260018060a01b0360405f20161490565b5050505050505f90565b613ce56127bb565b5060028101546005820154604051929091613d25916004916001600160a01b0316613d0f86612492565b613d18826124e6565b865260208601520161261b565b6040830152606082015290565b906014600e830154920154808314613d8357818184109311918215911115918190613d7c575b15613d6d5782613d6757505090565b14919050565b634c38ae9560e11b5f5260045ffd5b5081613d58565b63f26224af60e01b5f5260045ffd5b8151919060418303613dc257613dbb9250602082015190606060408401519301515f1a90613e4f565b9192909190565b50505f9160029190565b60048110156122d85780613dde575050565b60018103613df55763f645eedf60e01b5f5260045ffd5b60028103613e10575063fce698f760e01b5f5260045260245ffd5b600314613e1a5750565b6335e2f38360e21b5f5260045260245ffd5b6401000003d01990600790829081818009900908906401000003d0199080091490565b91907f7fffffffffffffffffffffffffffffff5d576e7357a4501ddfe92f46681b20a08411613ec6579160209360809260ff5f9560405194855216868401526040830152606082015282805260015afa156122b4575f516001600160a01b03811615613ebc57905f905f90565b505f906001905f90565b5050505f916003919056fe9016d09d72d40fdae2fd8ceac6b6234c7706214fd39c1cd1e609a0528c1993005c09ca1b9b8127a4fd9f3c384aac59b661441e820e17733753ff5f2e86e1e000f0c57e16840df040f15088dc2f81fe391c3923bec73e23a9662efc9c229c6a00f0c57e16840df040f15088dc2f81fe391c3923bec73e23a9662efc9c229c6a00","linkReferences":{}},"methodIdentifiers":{"COMMIT_BATCH_AFTER_COMMIT_CODES()":"4429e24b","COMMIT_BATCH_BEFORE_COMMIT_CODES()":"ad2b3d9a","areValidators(address[])":"8f381dbe","codeState(bytes32)":"c13911e8","codesStates(bytes32[])":"82bdeaad","commitBatch((bytes32,uint48,bytes32,uint8,((address,bytes32,bool,address,uint128,bool,(bytes32,address,uint128)[],(bytes32,address,bytes,uint128,(bytes32,bytes4),bool)[])[],bytes32)[],(bytes32,bool)[],((uint256,bytes32),((address,uint256)[],uint256,address),uint48)[],((uint256,uint256),bytes,address[],uint256)[]),uint8,bytes[])":"b24fcac0","computeSettings()":"84d22a4f","createProgram(bytes32,bytes32,address)":"3683c4d2","createProgramWithAbiInterface(bytes32,bytes32,address,address)":"0c18d277","genesisBlockHash()":"28e24b3d","genesisTimestamp()":"cacf66ab","initialize(address,address,address,address,uint256,uint256,uint256,(uint256,uint256),bytes,address[])":"53f7fd48","isValidator(address)":"facd743b","latestCommittedBatchHash()":"71a8cf2d","latestCommittedBatchTimestamp()":"d456fd51","lookupGenesisHash()":"8b1edf1e","middleware()":"f4f20ac0","mirrorImpl()":"e6fabc09","owner()":"8da5cb5b","programCodeId(address)":"9067088e","programsCodeIds(address[])":"baaf0201","programsCount()":"96a2ddfa","reinitialize()":"6c2eb350","renounceOwnership()":"715018a6","requestCodeValidation(bytes32)":"120e3f1e","setMirror(address)":"3d43b418","signingThresholdFraction()":"e3a6684f","storageView()":"c2eb812f","timelines()":"9eb939a8","transferOwnership(address)":"f2fde38b","validatedCodesCount()":"007a32e7","validators()":"ca1e7819","validatorsAggregatedPublicKey()":"3bd109fa","validatorsCount()":"ed612f8c","validatorsThreshold()":"edc87225","validatorsVerifiableSecretSharingCommitment()":"a5d53a44","wrappedVara()":"88f50cf0"},"storageLayout":{"storage":[],"types":{}},"id":160}