{"abi":[{"type":"constructor","inputs":[],"stateMutability":"nonpayable"},{"type":"receive","stateMutability":"payable"},{"type":"function","name":"COMMIT_BATCH_AFTER_COMMIT_CODES","inputs":[],"outputs":[{"name":"","type":"uint256","internalType":"uint256"}],"stateMutability":"view"},{"type":"function","name":"COMMIT_BATCH_BEFORE_COMMIT_CODES","inputs":[],"outputs":[{"name":"","type":"uint256","internalType":"uint256"}],"stateMutability":"view"},{"type":"function","name":"DOMAIN_SEPARATOR","inputs":[],"outputs":[{"name":"","type":"bytes32","internalType":"bytes32"}],"stateMutability":"view"},{"type":"function","name":"UPGRADE_INTERFACE_VERSION","inputs":[],"outputs":[{"name":"","type":"string","internalType":"string"}],"stateMutability":"view"},{"type":"function","name":"areValidators","inputs":[{"name":"_validators","type":"address[]","internalType":"address[]"}],"outputs":[{"name":"","type":"bool","internalType":"bool"}],"stateMutability":"view"},{"type":"function","name":"codeState","inputs":[{"name":"_codeId","type":"bytes32","internalType":"bytes32"}],"outputs":[{"name":"","type":"uint8","internalType":"enum Gear.CodeState"}],"stateMutability":"view"},{"type":"function","name":"codesStates","inputs":[{"name":"_codesIds","type":"bytes32[]","internalType":"bytes32[]"}],"outputs":[{"name":"","type":"uint8[]","internalType":"enum Gear.CodeState[]"}],"stateMutability":"view"},{"type":"function","name":"commitBatch","inputs":[{"name":"_batch","type":"tuple","internalType":"struct Gear.BatchCommitment","components":[{"name":"blockHash","type":"bytes32","internalType":"bytes32"},{"name":"blockTimestamp","type":"uint48","internalType":"uint48"},{"name":"previousCommittedBatchHash","type":"bytes32","internalType":"bytes32"},{"name":"expiry","type":"uint8","internalType":"uint8"},{"name":"chainCommitment","type":"tuple[]","internalType":"struct Gear.ChainCommitment[]","components":[{"name":"transitions","type":"tuple[]","internalType":"struct Gear.StateTransition[]","components":[{"name":"actorId","type":"address","internalType":"address"},{"name":"newStateHash","type":"bytes32","internalType":"bytes32"},{"name":"exited","type":"bool","internalType":"bool"},{"name":"inheritor","type":"address","internalType":"address"},{"name":"valueToReceive","type":"uint128","internalType":"uint128"},{"name":"valueToReceiveNegativeSign","type":"bool","internalType":"bool"},{"name":"valueClaims","type":"tuple[]","internalType":"struct Gear.ValueClaim[]","components":[{"name":"messageId","type":"bytes32","internalType":"bytes32"},{"name":"destination","type":"address","internalType":"address"},{"name":"value","type":"uint128","internalType":"uint128"}]},{"name":"messages","type":"tuple[]","internalType":"struct Gear.Message[]","components":[{"name":"id","type":"bytes32","internalType":"bytes32"},{"name":"destination","type":"address","internalType":"address"},{"name":"payload","type":"bytes","internalType":"bytes"},{"name":"value","type":"uint128","internalType":"uint128"},{"name":"replyDetails","type":"tuple","internalType":"struct Gear.ReplyDetails","components":[{"name":"to","type":"bytes32","internalType":"bytes32"},{"name":"code","type":"bytes4","internalType":"bytes4"}]},{"name":"call","type":"bool","internalType":"bool"}]}]},{"name":"head","type":"bytes32","internalType":"bytes32"}]},{"name":"codeCommitments","type":"tuple[]","internalType":"struct Gear.CodeCommitment[]","components":[{"name":"id","type":"bytes32","internalType":"bytes32"},{"name":"valid","type":"bool","internalType":"bool"}]},{"name":"rewardsCommitment","type":"tuple[]","internalType":"struct Gear.RewardsCommitment[]","components":[{"name":"operators","type":"tuple","internalType":"struct Gear.OperatorRewardsCommitment","components":[{"name":"amount","type":"uint256","internalType":"uint256"},{"name":"root","type":"bytes32","internalType":"bytes32"}]},{"name":"stakers","type":"tuple","internalType":"struct Gear.StakerRewardsCommitment","components":[{"name":"distribution","type":"tuple[]","internalType":"struct Gear.StakerRewards[]","components":[{"name":"vault","type":"address","internalType":"address"},{"name":"amount","type":"uint256","internalType":"uint256"}]},{"name":"totalAmount","type":"uint256","internalType":"uint256"},{"name":"token","type":"address","internalType":"address"}]},{"name":"timestamp","type":"uint48","internalType":"uint48"}]},{"name":"validatorsCommitment","type":"tuple[]","internalType":"struct Gear.ValidatorsCommitment[]","components":[{"name":"aggregatedPublicKey","type":"tuple","internalType":"struct Gear.AggregatedPublicKey","components":[{"name":"x","type":"uint256","internalType":"uint256"},{"name":"y","type":"uint256","internalType":"uint256"}]},{"name":"verifiableSecretSharingCommitment","type":"bytes","internalType":"bytes"},{"name":"validators","type":"address[]","internalType":"address[]"},{"name":"eraIndex","type":"uint256","internalType":"uint256"}]}]},{"name":"_signatureType","type":"uint8","internalType":"enum Gear.SignatureType"},{"name":"_signatures","type":"bytes[]","internalType":"bytes[]"}],"outputs":[],"stateMutability":"nonpayable"},{"type":"function","name":"computeSettings","inputs":[],"outputs":[{"name":"","type":"tuple","internalType":"struct Gear.ComputationSettings","components":[{"name":"threshold","type":"uint64","internalType":"uint64"},{"name":"wvaraPerSecond","type":"uint128","internalType":"uint128"}]}],"stateMutability":"view"},{"type":"function","name":"createProgram","inputs":[{"name":"_codeId","type":"bytes32","internalType":"bytes32"},{"name":"_salt","type":"bytes32","internalType":"bytes32"},{"name":"_overrideInitializer","type":"address","internalType":"address"}],"outputs":[{"name":"","type":"address","internalType":"address"}],"stateMutability":"nonpayable"},{"type":"function","name":"createProgramWithAbiInterface","inputs":[{"name":"_codeId","type":"bytes32","internalType":"bytes32"},{"name":"_salt","type":"bytes32","internalType":"bytes32"},{"name":"_overrideInitializer","type":"address","internalType":"address"},{"name":"_abiInterface","type":"address","internalType":"address"}],"outputs":[{"name":"","type":"address","internalType":"address"}],"stateMutability":"nonpayable"},{"type":"function","name":"createProgramWithAbiInterfaceAndExecutableBalance","inputs":[{"name":"_codeId","type":"bytes32","internalType":"bytes32"},{"name":"_salt","type":"bytes32","internalType":"bytes32"},{"name":"_overrideInitializer","type":"address","internalType":"address"},{"name":"_abiInterface","type":"address","internalType":"address"},{"name":"_initialExecutableBalance","type":"uint128","internalType":"uint128"},{"name":"_deadline","type":"uint256","internalType":"uint256"},{"name":"_v","type":"uint8","internalType":"uint8"},{"name":"_r","type":"bytes32","internalType":"bytes32"},{"name":"_s","type":"bytes32","internalType":"bytes32"}],"outputs":[{"name":"","type":"address","internalType":"address"}],"stateMutability":"nonpayable"},{"type":"function","name":"createProgramWithExecutableBalance","inputs":[{"name":"_codeId","type":"bytes32","internalType":"bytes32"},{"name":"_salt","type":"bytes32","internalType":"bytes32"},{"name":"_overrideInitializer","type":"address","internalType":"address"},{"name":"_initialExecutableBalance","type":"uint128","internalType":"uint128"},{"name":"_deadline","type":"uint256","internalType":"uint256"},{"name":"_v","type":"uint8","internalType":"uint8"},{"name":"_r","type":"bytes32","internalType":"bytes32"},{"name":"_s","type":"bytes32","internalType":"bytes32"}],"outputs":[{"name":"","type":"address","internalType":"address"}],"stateMutability":"nonpayable"},{"type":"function","name":"eip712Domain","inputs":[],"outputs":[{"name":"fields","type":"bytes1","internalType":"bytes1"},{"name":"name","type":"string","internalType":"string"},{"name":"version","type":"string","internalType":"string"},{"name":"chainId","type":"uint256","internalType":"uint256"},{"name":"verifyingContract","type":"address","internalType":"address"},{"name":"salt","type":"bytes32","internalType":"bytes32"},{"name":"extensions","type":"uint256[]","internalType":"uint256[]"}],"stateMutability":"view"},{"type":"function","name":"genesisBlockHash","inputs":[],"outputs":[{"name":"","type":"bytes32","internalType":"bytes32"}],"stateMutability":"view"},{"type":"function","name":"genesisTimestamp","inputs":[],"outputs":[{"name":"","type":"uint48","internalType":"uint48"}],"stateMutability":"view"},{"type":"function","name":"initialize","inputs":[{"name":"_owner","type":"address","internalType":"address"},{"name":"_mirror","type":"address","internalType":"address"},{"name":"_wrappedVara","type":"address","internalType":"address"},{"name":"_middleware","type":"address","internalType":"address"},{"name":"_eraDuration","type":"uint256","internalType":"uint256"},{"name":"_electionDuration","type":"uint256","internalType":"uint256"},{"name":"_validationDelay","type":"uint256","internalType":"uint256"},{"name":"_aggregatedPublicKey","type":"tuple","internalType":"struct Gear.AggregatedPublicKey","components":[{"name":"x","type":"uint256","internalType":"uint256"},{"name":"y","type":"uint256","internalType":"uint256"}]},{"name":"_verifiableSecretSharingCommitment","type":"bytes","internalType":"bytes"},{"name":"_validators","type":"address[]","internalType":"address[]"}],"outputs":[],"stateMutability":"nonpayable"},{"type":"function","name":"isValidator","inputs":[{"name":"_validator","type":"address","internalType":"address"}],"outputs":[{"name":"","type":"bool","internalType":"bool"}],"stateMutability":"view"},{"type":"function","name":"latestCommittedBatchHash","inputs":[],"outputs":[{"name":"","type":"bytes32","internalType":"bytes32"}],"stateMutability":"view"},{"type":"function","name":"latestCommittedBatchTimestamp","inputs":[],"outputs":[{"name":"","type":"uint48","internalType":"uint48"}],"stateMutability":"view"},{"type":"function","name":"lookupGenesisHash","inputs":[],"outputs":[],"stateMutability":"nonpayable"},{"type":"function","name":"middleware","inputs":[],"outputs":[{"name":"","type":"address","internalType":"address"}],"stateMutability":"view"},{"type":"function","name":"mirrorImpl","inputs":[],"outputs":[{"name":"","type":"address","internalType":"address"}],"stateMutability":"view"},{"type":"function","name":"nonces","inputs":[{"name":"owner","type":"address","internalType":"address"}],"outputs":[{"name":"","type":"uint256","internalType":"uint256"}],"stateMutability":"view"},{"type":"function","name":"owner","inputs":[],"outputs":[{"name":"","type":"address","internalType":"address"}],"stateMutability":"view"},{"type":"function","name":"pause","inputs":[],"outputs":[],"stateMutability":"nonpayable"},{"type":"function","name":"paused","inputs":[],"outputs":[{"name":"","type":"bool","internalType":"bool"}],"stateMutability":"view"},{"type":"function","name":"programCodeId","inputs":[{"name":"_programId","type":"address","internalType":"address"}],"outputs":[{"name":"","type":"bytes32","internalType":"bytes32"}],"stateMutability":"view"},{"type":"function","name":"programsCodeIds","inputs":[{"name":"_programsIds","type":"address[]","internalType":"address[]"}],"outputs":[{"name":"","type":"bytes32[]","internalType":"bytes32[]"}],"stateMutability":"view"},{"type":"function","name":"programsCount","inputs":[],"outputs":[{"name":"","type":"uint256","internalType":"uint256"}],"stateMutability":"view"},{"type":"function","name":"proxiableUUID","inputs":[],"outputs":[{"name":"","type":"bytes32","internalType":"bytes32"}],"stateMutability":"view"},{"type":"function","name":"reinitialize","inputs":[],"outputs":[],"stateMutability":"nonpayable"},{"type":"function","name":"renounceOwnership","inputs":[],"outputs":[],"stateMutability":"nonpayable"},{"type":"function","name":"requestCodeValidation","inputs":[{"name":"_codeId","type":"bytes32","internalType":"bytes32"},{"name":"_deadline","type":"uint256","internalType":"uint256"},{"name":"_v","type":"uint8","internalType":"uint8"},{"name":"_r","type":"bytes32","internalType":"bytes32"},{"name":"_s","type":"bytes32","internalType":"bytes32"}],"outputs":[],"stateMutability":"nonpayable"},{"type":"function","name":"requestCodeValidationBaseFee","inputs":[],"outputs":[{"name":"","type":"uint256","internalType":"uint256"}],"stateMutability":"view"},{"type":"function","name":"requestCodeValidationExtraFee","inputs":[],"outputs":[{"name":"","type":"uint256","internalType":"uint256"}],"stateMutability":"view"},{"type":"function","name":"requestCodeValidationOnBehalf","inputs":[{"name":"_requester","type":"address","internalType":"address"},{"name":"_codeId","type":"bytes32","internalType":"bytes32"},{"name":"_blobHashes","type":"bytes32[]","internalType":"bytes32[]"},{"name":"_deadline","type":"uint256","internalType":"uint256"},{"name":"_v1","type":"uint8","internalType":"uint8"},{"name":"_r1","type":"bytes32","internalType":"bytes32"},{"name":"_s1","type":"bytes32","internalType":"bytes32"},{"name":"_v2","type":"uint8","internalType":"uint8"},{"name":"_r2","type":"bytes32","internalType":"bytes32"},{"name":"_s2","type":"bytes32","internalType":"bytes32"}],"outputs":[],"stateMutability":"nonpayable"},{"type":"function","name":"setMirror","inputs":[{"name":"newMirror","type":"address","internalType":"address"}],"outputs":[],"stateMutability":"nonpayable"},{"type":"function","name":"setRequestCodeValidationBaseFee","inputs":[{"name":"newBaseFee","type":"uint256","internalType":"uint256"}],"outputs":[],"stateMutability":"nonpayable"},{"type":"function","name":"setRequestCodeValidationExtraFee","inputs":[{"name":"newExtraFee","type":"uint256","internalType":"uint256"}],"outputs":[],"stateMutability":"nonpayable"},{"type":"function","name":"signingThresholdFraction","inputs":[],"outputs":[{"name":"thresholdNumerator","type":"uint128","internalType":"uint128"},{"name":"thresholdDenominator","type":"uint128","internalType":"uint128"}],"stateMutability":"view"},{"type":"function","name":"storageView","inputs":[],"outputs":[{"name":"","type":"tuple","internalType":"struct IRouter.StorageView","components":[{"name":"genesisBlock","type":"tuple","internalType":"struct Gear.GenesisBlockInfo","components":[{"name":"hash","type":"bytes32","internalType":"bytes32"},{"name":"number","type":"uint32","internalType":"uint32"},{"name":"timestamp","type":"uint48","internalType":"uint48"}]},{"name":"latestCommittedBatch","type":"tuple","internalType":"struct Gear.CommittedBatchInfo","components":[{"name":"hash","type":"bytes32","internalType":"bytes32"},{"name":"timestamp","type":"uint48","internalType":"uint48"}]},{"name":"implAddresses","type":"tuple","internalType":"struct Gear.AddressBook","components":[{"name":"mirror","type":"address","internalType":"address"},{"name":"wrappedVara","type":"address","internalType":"address"},{"name":"middleware","type":"address","internalType":"address"}]},{"name":"validationSettings","type":"tuple","internalType":"struct Gear.ValidationSettingsView","components":[{"name":"thresholdNumerator","type":"uint128","internalType":"uint128"},{"name":"thresholdDenominator","type":"uint128","internalType":"uint128"},{"name":"validators0","type":"tuple","internalType":"struct Gear.ValidatorsView","components":[{"name":"aggregatedPublicKey","type":"tuple","internalType":"struct Gear.AggregatedPublicKey","components":[{"name":"x","type":"uint256","internalType":"uint256"},{"name":"y","type":"uint256","internalType":"uint256"}]},{"name":"verifiableSecretSharingCommitmentPointer","type":"address","internalType":"address"},{"name":"list","type":"address[]","internalType":"address[]"},{"name":"useFromTimestamp","type":"uint256","internalType":"uint256"}]},{"name":"validators1","type":"tuple","internalType":"struct Gear.ValidatorsView","components":[{"name":"aggregatedPublicKey","type":"tuple","internalType":"struct Gear.AggregatedPublicKey","components":[{"name":"x","type":"uint256","internalType":"uint256"},{"name":"y","type":"uint256","internalType":"uint256"}]},{"name":"verifiableSecretSharingCommitmentPointer","type":"address","internalType":"address"},{"name":"list","type":"address[]","internalType":"address[]"},{"name":"useFromTimestamp","type":"uint256","internalType":"uint256"}]}]},{"name":"computeSettings","type":"tuple","internalType":"struct Gear.ComputationSettings","components":[{"name":"threshold","type":"uint64","internalType":"uint64"},{"name":"wvaraPerSecond","type":"uint128","internalType":"uint128"}]},{"name":"timelines","type":"tuple","internalType":"struct Gear.Timelines","components":[{"name":"era","type":"uint256","internalType":"uint256"},{"name":"election","type":"uint256","internalType":"uint256"},{"name":"validationDelay","type":"uint256","internalType":"uint256"}]},{"name":"programsCount","type":"uint256","internalType":"uint256"},{"name":"validatedCodesCount","type":"uint256","internalType":"uint256"},{"name":"maxValidators","type":"uint16","internalType":"uint16"},{"name":"requestCodeValidationBaseFee","type":"uint256","internalType":"uint256"},{"name":"requestCodeValidationExtraFee","type":"uint256","internalType":"uint256"}]}],"stateMutability":"view"},{"type":"function","name":"timelines","inputs":[],"outputs":[{"name":"","type":"tuple","internalType":"struct Gear.Timelines","components":[{"name":"era","type":"uint256","internalType":"uint256"},{"name":"election","type":"uint256","internalType":"uint256"},{"name":"validationDelay","type":"uint256","internalType":"uint256"}]}],"stateMutability":"view"},{"type":"function","name":"transferOwnership","inputs":[{"name":"newOwner","type":"address","internalType":"address"}],"outputs":[],"stateMutability":"nonpayable"},{"type":"function","name":"unpause","inputs":[],"outputs":[],"stateMutability":"nonpayable"},{"type":"function","name":"upgradeToAndCall","inputs":[{"name":"newImplementation","type":"address","internalType":"address"},{"name":"data","type":"bytes","internalType":"bytes"}],"outputs":[],"stateMutability":"payable"},{"type":"function","name":"validatedCodesCount","inputs":[],"outputs":[{"name":"","type":"uint256","internalType":"uint256"}],"stateMutability":"view"},{"type":"function","name":"validators","inputs":[],"outputs":[{"name":"","type":"address[]","internalType":"address[]"}],"stateMutability":"view"},{"type":"function","name":"validatorsAggregatedPublicKey","inputs":[],"outputs":[{"name":"","type":"tuple","internalType":"struct Gear.AggregatedPublicKey","components":[{"name":"x","type":"uint256","internalType":"uint256"},{"name":"y","type":"uint256","internalType":"uint256"}]}],"stateMutability":"view"},{"type":"function","name":"validatorsCount","inputs":[],"outputs":[{"name":"","type":"uint256","internalType":"uint256"}],"stateMutability":"view"},{"type":"function","name":"validatorsThreshold","inputs":[],"outputs":[{"name":"","type":"uint256","internalType":"uint256"}],"stateMutability":"view"},{"type":"function","name":"validatorsVerifiableSecretSharingCommitment","inputs":[],"outputs":[{"name":"","type":"bytes","internalType":"bytes"}],"stateMutability":"view"},{"type":"function","name":"wrappedVara","inputs":[],"outputs":[{"name":"","type":"address","internalType":"address"}],"stateMutability":"view"},{"type":"event","name":"AnnouncesCommitted","inputs":[{"name":"head","type":"bytes32","indexed":false,"internalType":"bytes32"}],"anonymous":false},{"type":"event","name":"BatchCommitted","inputs":[{"name":"hash","type":"bytes32","indexed":false,"internalType":"bytes32"}],"anonymous":false},{"type":"event","name":"CodeGotValidated","inputs":[{"name":"codeId","type":"bytes32","indexed":false,"internalType":"bytes32"},{"name":"valid","type":"bool","indexed":true,"internalType":"bool"}],"anonymous":false},{"type":"event","name":"CodeValidationRequested","inputs":[{"name":"codeId","type":"bytes32","indexed":false,"internalType":"bytes32"}],"anonymous":false},{"type":"event","name":"ComputationSettingsChanged","inputs":[{"name":"threshold","type":"uint64","indexed":false,"internalType":"uint64"},{"name":"wvaraPerSecond","type":"uint128","indexed":false,"internalType":"uint128"}],"anonymous":false},{"type":"event","name":"DebugEvent","inputs":[{"name":"topic0","type":"uint256","indexed":true,"internalType":"uint256"}],"anonymous":true},{"type":"event","name":"EIP712DomainChanged","inputs":[],"anonymous":false},{"type":"event","name":"Initialized","inputs":[{"name":"version","type":"uint64","indexed":false,"internalType":"uint64"}],"anonymous":false},{"type":"event","name":"OwnershipTransferred","inputs":[{"name":"previousOwner","type":"address","indexed":true,"internalType":"address"},{"name":"newOwner","type":"address","indexed":true,"internalType":"address"}],"anonymous":false},{"type":"event","name":"Paused","inputs":[{"name":"account","type":"address","indexed":false,"internalType":"address"}],"anonymous":false},{"type":"event","name":"ProgramCreated","inputs":[{"name":"actorId","type":"address","indexed":false,"internalType":"address"},{"name":"codeId","type":"bytes32","indexed":true,"internalType":"bytes32"}],"anonymous":false},{"type":"event","name":"StorageSlotChanged","inputs":[{"name":"slot","type":"bytes32","indexed":false,"internalType":"bytes32"}],"anonymous":false},{"type":"event","name":"Unpaused","inputs":[{"name":"account","type":"address","indexed":false,"internalType":"address"}],"anonymous":false},{"type":"event","name":"Upgraded","inputs":[{"name":"implementation","type":"address","indexed":true,"internalType":"address"}],"anonymous":false},{"type":"event","name":"ValidatorsCommittedForEra","inputs":[{"name":"eraIndex","type":"uint256","indexed":false,"internalType":"uint256"}],"anonymous":false},{"type":"error","name":"AddressEmptyCode","inputs":[{"name":"target","type":"address","internalType":"address"}]},{"type":"error","name":"ApproveERC20Failed","inputs":[]},{"type":"error","name":"BatchTimestampNotInPast","inputs":[]},{"type":"error","name":"BatchTimestampTooEarly","inputs":[]},{"type":"error","name":"BlobNotFound","inputs":[]},{"type":"error","name":"CodeAlreadyOnValidationOrValidated","inputs":[]},{"type":"error","name":"CodeNotValidated","inputs":[]},{"type":"error","name":"CodeValidationNotRequested","inputs":[]},{"type":"error","name":"CommitmentEraNotNext","inputs":[]},{"type":"error","name":"ECDSAInvalidSignature","inputs":[]},{"type":"error","name":"ECDSAInvalidSignatureLength","inputs":[{"name":"length","type":"uint256","internalType":"uint256"}]},{"type":"error","name":"ECDSAInvalidSignatureS","inputs":[{"name":"s","type":"bytes32","internalType":"bytes32"}]},{"type":"error","name":"ERC1967InvalidImplementation","inputs":[{"name":"implementation","type":"address","internalType":"address"}]},{"type":"error","name":"ERC1967NonPayable","inputs":[]},{"type":"error","name":"ElectionNotStarted","inputs":[]},{"type":"error","name":"EmptyValidatorsList","inputs":[]},{"type":"error","name":"EnforcedPause","inputs":[]},{"type":"error","name":"EraDurationTooShort","inputs":[]},{"type":"error","name":"ErasTimestampMustNotBeEqual","inputs":[]},{"type":"error","name":"ExpectedPause","inputs":[]},{"type":"error","name":"ExpiredSignature","inputs":[{"name":"deadline","type":"uint256","internalType":"uint256"}]},{"type":"error","name":"FailedCall","inputs":[]},{"type":"error","name":"GenesisHashAlreadySet","inputs":[]},{"type":"error","name":"GenesisHashNotFound","inputs":[]},{"type":"error","name":"InvalidAccountNonce","inputs":[{"name":"account","type":"address","internalType":"address"},{"name":"currentNonce","type":"uint256","internalType":"uint256"}]},{"type":"error","name":"InvalidBlobHash","inputs":[{"name":"index","type":"uint256","internalType":"uint256"},{"name":"providedBlobHash","type":"bytes32","internalType":"bytes32"},{"name":"expectedBlobHash","type":"bytes32","internalType":"bytes32"}]},{"type":"error","name":"InvalidBlobHashesLength","inputs":[{"name":"providedLength","type":"uint256","internalType":"uint256"},{"name":"expectedLength","type":"uint256","internalType":"uint256"}]},{"type":"error","name":"InvalidElectionDuration","inputs":[]},{"type":"error","name":"InvalidFROSTAggregatedPublicKey","inputs":[]},{"type":"error","name":"InvalidFrostSignatureCount","inputs":[]},{"type":"error","name":"InvalidFrostSignatureLength","inputs":[]},{"type":"error","name":"InvalidInitialization","inputs":[]},{"type":"error","name":"InvalidPreviousCommittedBatchHash","inputs":[]},{"type":"error","name":"InvalidSigner","inputs":[{"name":"signer","type":"address","internalType":"address"},{"name":"requester","type":"address","internalType":"address"}]},{"type":"error","name":"InvalidTimestamp","inputs":[]},{"type":"error","name":"NotInitializing","inputs":[]},{"type":"error","name":"OwnableInvalidOwner","inputs":[{"name":"owner","type":"address","internalType":"address"}]},{"type":"error","name":"OwnableUnauthorizedAccount","inputs":[{"name":"account","type":"address","internalType":"address"}]},{"type":"error","name":"PredecessorBlockNotFound","inputs":[]},{"type":"error","name":"ReentrancyGuardReentrantCall","inputs":[]},{"type":"error","name":"RewardsCommitmentEraNotPrevious","inputs":[]},{"type":"error","name":"RewardsCommitmentPredatesGenesis","inputs":[]},{"type":"error","name":"RewardsCommitmentTimestampNotInPast","inputs":[]},{"type":"error","name":"RouterGenesisHashNotInitialized","inputs":[]},{"type":"error","name":"SafeCastOverflowedUintDowncast","inputs":[{"name":"bits","type":"uint8","internalType":"uint8"},{"name":"value","type":"uint256","internalType":"uint256"}]},{"type":"error","name":"SignatureVerificationFailed","inputs":[]},{"type":"error","name":"TimestampInFuture","inputs":[]},{"type":"error","name":"TimestampOlderThanPreviousEra","inputs":[]},{"type":"error","name":"TooManyChainCommitments","inputs":[]},{"type":"error","name":"TooManyRewardsCommitments","inputs":[]},{"type":"error","name":"TooManyValidatorsCommitments","inputs":[]},{"type":"error","name":"TransferFromFailed","inputs":[]},{"type":"error","name":"UUPSUnauthorizedCallContext","inputs":[]},{"type":"error","name":"UUPSUnsupportedProxiableUUID","inputs":[{"name":"slot","type":"bytes32","internalType":"bytes32"}]},{"type":"error","name":"UnknownProgram","inputs":[]},{"type":"error","name":"ValidationBeforeGenesis","inputs":[]},{"type":"error","name":"ValidationDelayTooBig","inputs":[]},{"type":"error","name":"ValidatorsAlreadyScheduled","inputs":[]},{"type":"error","name":"ValidatorsNotFoundForTimestamp","inputs":[]},{"type":"error","name":"ZeroValueTransfer","inputs":[]}],"bytecode":{"object":"0x60a080604052346100c257306080525f516020615a365f395f51905f525460ff8160401c166100b3576002600160401b03196001600160401b03821601610060575b60405161596f90816100c78239608051818181612b300152612bc30152f35b6001600160401b0319166001600160401b039081175f516020615a365f395f51905f525581527fc7f505b2f371ae2175ee4913f4499e1f2633a7b5936321eed1cdaeb6115181d290602090a15f80610041565b63f92ee8a960e01b5f5260045ffd5b5f80fdfe6080806040526004361015610091575b50361561001a575f80fd5b610022613a64565b5f5160206158ef5f395f51905f5254600181015415610082576001600160801b0334161561007357335f908152601a9190910160205260409020541561006457005b63821a62f560e01b5f5260045ffd5b63a1a7c6eb60e01b5f5260045ffd5b63580683f360e01b5f5260045ffd5b5f905f3560e01c9081627a32e71461330a575080630b9737ce146132d75780630c18d2771461320c5780630d91bf2a1461303e57806311bec80d1461300b578063188509e914612fdd57806328e24b3d14612faf5780633644e51514612f945780633683c4d214612ed75780633bd109fa14612e885780633d43b41814612e345780633f4ba83a14612db45780634429e24b14612d985780634f1ef28614612b8457806352d1902d14612b1d57806353f7fd48146122fa5780635c975abb146122cb5780636c2eb35014611d5c578063715018a614611cf357806371a8cf2d14611cc55780637ecebe0014611c6d57806382bdeaad14611b555780638456cb5914611ae257806384b0196e146119ba57806384d22a4f1461195c57806388f50cf0146119235780638b1edf1e146118c45780638c4ace6a146117645780638da5cb5b1461172f5780638f381dbe146116e95780639067088e146116a057806396a2ddfa146116725780639eb939a81461161b578063a5d53a441461159b578063ad2b3d9a1461157f578063ad3cb1cc14611536578063b24fcac014611096578063baaf020114610f99578063c13911e814610f55578063c2eb812f14610bce578063ca1e781914610b7e578063cacf66ab14610b46578063d456fd5114610b10578063e3a6684f14610ad1578063e6fabc0914610a98578063ed612f8c14610a60578063edc8722514610a0b578063ee32004f14610825578063f0fd702a146103cd578063f1ef31ec1461039f578063f2fde38b14610372578063f4f20ac0146103395763facd743b0361000f5734610336576020366003190112610336576102f8613360565b60036103135f5160206158ef5f395f51905f525442906152f7565b019060018060a01b03165f52602052602060ff60405f2054166040519015158152f35b80fd5b50346103365780600319360112610336575f5160206158ef5f395f51905f5254600701546040516001600160a01b039091168152602090f35b50346103365760203660031901126103365761039c61038f613360565b610397613a31565b6139c0565b80f35b50346103365780600319360112610336576020601f5f5160206158ef5f395f51905f52540154604051908152f35b503461033657610140366003190112610336576103e8613360565b602435906044356001600160401b0381116108215761040b9036906004016134af565b90916064359060843560ff8116810361081d5760e4359060ff8216820361081957610434613a64565b87491561080a575f5160206158ef5f395f51905f5254946001860154156107fb576019860196888a528760205260ff60408b20541660038110156107e7576107d857895b80496107ca578083036107b35750895b82811061076c57508542116107585760405160208101906001600160fb1b038411610754576104d360208261059e956105a79760051b8091873781010301601f19810183528261341f565b5190209260018060a01b03861693848c527f5ab42ced628888259c08ac98db1eb0cf702fc1501344311d8b100cd1bfe4bb0060205260408c208054906001820190556040519060208201927f375d2ef9b9e33c640a295f53873dc74833c3d019f349464ce2fe8899962b809784528760408401528d6060840152608083015260a08201528860c082015260c0815261056c60e08261341f565b519020610577615296565b906040519161190160f01b83526002830152602282015260c43591604260a43592206155c8565b9092919261564a565b6001600160a01b031681810361073f57505086906105dc60018060a01b0360068701541695601f601e820154910154906139b3565b93853b1561073b5760405163d505accf60e01b81526001600160a01b038516600482015230602482015260448101869052606481019190915260ff9190911660848201526101043560a48201526101243560c4820152818160e48183895af161071e575b506040516323b872dd60e01b81526001600160a01b039092166004830152306024830152604482019290925291602091839190829081606481015b03925af19081156107135784916106e4575b50156106d55781835260209081526040808420805460ff19166001179055519182527f5c261a095dd5720475295dc06379921c003c22164ee6cae5cf83e76ce0a1b98591a180f35b631e4e7d0960e21b8352600483fd5b610706915060203d60201161070c575b6106fe818361341f565b8101906135f1565b5f61068d565b503d6106f4565b6040513d86823e3d90fd5b8161072b9194939461341f565b6107375790855f610640565b8580fd5b8280fd5b637ba5ffb560e01b8952600452602452604487fd5b8b80fd5b632f4aa44f60e21b8a52600486905260248afd5b80498061077a83868661379a565b351461078783868661379a565b359015610798575050600101610488565b606493508c926306f2f0e760e21b8452600452602452604452fd5b635cfa404d60e11b8b52600483905260245260448afd5b6107d3906139a5565b610478565b6304c51a3360e31b8a5260048afd5b634e487b7160e01b8b52602160045260248bfd5b63580683f360e01b8952600489fd5b637bb2fa2f60e11b8852600488fd5b8780fd5b8680fd5b8380fd5b50346103365761012036600319011261033657610840613334565b61084861334a565b6084356001600160801b038116908181036109b3578460c43560ff811681036109a457610873613a64565b610881602435600435613a8b565b6006015490936001600160a01b0390911691823b15610821576108c98480926040518093819263d505accf60e01b8352610104359060e4359060a4358a3033600489016135a7565b038183885af16109f6575b50506040516323b872dd60e01b81523360048201523060248201526001600160801b039190911660448201529160209183916064918391905af19081156109eb5786916109cc575b50156109bd576001600160a01b03908116939081166109b7575033915b833b156109b357604051635fd142bb60e11b81526001600160a01b03938416600482015292166024830152604482018490526064820152828160848183865af180156109a85761098f575b602082604051908152f35b61099a83809261341f565b6109a45781610984565b5080fd5b6040513d85823e3d90fd5b8480fd5b91610939565b631e4e7d0960e21b8552600485fd5b6109e5915060203d60201161070c576106fe818361341f565b5f61091c565b6040513d88823e3d90fd5b81610a009161341f565b61073b57825f6108d4565b50346103365780600319360112610336576020610a585f5160206158ef5f395f51905f525460086004610a3e42846152f7565b0154910154906001600160801b038260801c92169061526b565b604051908152f35b503461033657806003193601126103365760206004610a8e5f5160206158ef5f395f51905f525442906152f7565b0154604051908152f35b50346103365780600319360112610336575f5160206158ef5f395f51905f5254600501546040516001600160a01b039091168152602090f35b5034610336578060031936011261033657604060085f5160206158ef5f395f51905f525401548151906001600160801b038116825260801c6020820152f35b5034610336578060031936011261033657602065ffffffffffff60045f5160206158ef5f395f51905f5254015416604051908152f35b5034610336578060031936011261033657602065ffffffffffff60025f5160206158ef5f395f51905f52540154821c16604051908152f35b5034610336578060031936011261033657610bca610bb66004610bb05f5160206158ef5f395f51905f525442906152f7565b01613952565b604051918291602083526020830190613524565b0390f35b5034610336578060031936011261033657604051610beb816133e8565b610bf3613880565b8152604051610c01816133cd565b5f8152602081015f90526020820152610c18613880565b6040820152610c2561391f565b6060820152604051610c36816133cd565b5f80825260208201526080820152610c4c613880565b60a08201528160c08201528160e0820152816101008201528161012082015261014001525f5160206158ef5f395f51905f5254610c8761391f565b50610c9460098201615573565b90610ca1600f8201615573565b60088201549260405193610cb485613404565b6001600160801b038116855260801c602085015260408401526060830152601b81015490601c810154601d82015461ffff16601e83015490601f8401549260405195610cff876133e8565b604051610d0b8161339e565b60018701548152600287015463ffffffff8116602083015260201c65ffffffffffff166040820152875260405197610d42896133cd565b60038701548952600487015465ffffffffffff1660208a01526020880198895260405190610d6f8261339e565b60058801546001600160a01b039081168352600689015481166020840152600789015416604080840191909152890191825260608901908152610db4601589016137d2565b9760808a01988952601601610dc89061389e565b9160a08a0192835260c08a0193845260e08a019485526101008a019586526101208a019687526101408a019788526040519a8b9a60208c5251805160208d0152602081015163ffffffff1660408d01526040015165ffffffffffff1660608c015251805160808c01526020015165ffffffffffff1660a08b015251600160a01b6001900381511660c08b0152600160a01b6001900360208201511660e08b0152600160a01b600190039060400151166101008a0152516101208901610260905280516001600160801b03166102808a015260208101516001600160801b03166102a08a015260408101516102c08a01608090526103008a01610ec991613560565b90606001519061027f198a8203016102e08b0152610ee691613560565b965180516001600160401b03166101408a0152602001516001600160801b031661016089015251805161018089015260208101516101a0890152604001516101c0880152516101e0870152516102008601525161ffff1661022085015251610240840152516102608301520390f35b50346103365760203660031901126103365760ff604060209260195f5160206158ef5f395f51905f52540160043582528452205416610f9760405180926134df565bf35b5034610336576020366003190112610336576004356001600160401b0381116109a457610fca9036906004016134af565b905f5160206158ef5f395f51905f525490610fe48361372f565b91610ff2604051938461341f565b838352610ffe8461372f565b602084019490601f1901368637601a869201915b81811061105d57868587604051928392602084019060208552518091526040840192915b818110611044575050500390f35b8251845285945060209384019390920191600101611036565b8061107361106e600193858861379a565b613800565b828060a01b03165f528360205260405f205461108f82886137be565b5201611012565b5034610336576060366003190112610336576001600160401b036004351161033657610100600435360360031901126103365760026024351015610336576044356001600160401b0381116109a4576110f39036906004016134af565b7f9b779b17422d0df92223018b32b4d1fa46e071723d6817e2486d003becc55f005c6115275760017f9b779b17422d0df92223018b32b4d1fa46e071723d6817e2486d003becc55f005d5f5160206158ef5f395f51905f525490600182015415611518578154156114bc575b600382015460446004350135036114ad5765ffffffffffff60048301541665ffffffffffff6111926024600435016138d4565b161061149f576111a76004356004018361449c565b9260018580a16111c160a460043501600435600401614951565b808096925060051b046020148515171561148b576111e18560051b61535f565b8695865b818810611356575061131c965060051b90209060028780a161120c600435600401866149a8565b61121b60043560040187614d7f565b9061122a6024600435016138d4565b936112396064600435016138c6565b9360405194602086019660043560040135885265ffffffffffff60d01b9060d01b16604087015260446004350135604687015260ff60f81b9060f81b1660668601526067850152608784015260a783015260c782015260c7815261129e60e78261341f565b5190209283600382015565ffffffffffff6112bd6024600435016138d4565b1665ffffffffffff196004830154161760048201557f7ebe42360bcb182fe0a88148b081e4557c89d09aa6af8307635ac2f83e2aaa656020604051868152a165ffffffffffff6113116024600435016138d4565b169360243591615002565b1561134757807f9b779b17422d0df92223018b32b4d1fa46e071723d6817e2486d003becc55f005d80f35b63729d0f6b60e01b8152600490fd5b61136a60a460043501600435600401614951565b891015611477578860061b8101358a526019880160205260ff60408b20541660038110156107e7576001036114685760019160209161142d8b8b8e868360061b860101926113b784614986565b156114495760061b85013590525060198c01855260408e20805460ff19166002179055601c8c0180546113e9906139a5565b90555b8c7f460119a8f69a33ed127de517d5ea464e958ce23ef19e4420a8b92bf780bbc2c98661141884614986565b1515926040519060061b8701358152a2614986565b908b60061b01358c52825360218b2081860152019701966111e5565b60409260199160061b87013583520187522060ff1981541690556113ec565b636e83084760e11b8a5260048afd5b634e487b7160e01b8a52603260045260248afd5b634e487b7160e01b86526011600452602486fd5b620725b160ea1b8452600484fd5b63164b6fc360e01b8452600484fd5b6114d96114cd6064600435016138c6565b60043560040135614407565b156115095765ffffffffffff6114f36024600435016138d4565b16421161115f57631ad8809560e31b8452600484fd5b637b8cb35960e01b8452600484fd5b63580683f360e01b8452600484fd5b633ee5aeb560e01b8352600483fd5b503461033657806003193601126103365750610bca60405161155960408261341f565b60058152640352e302e360dc1b6020820152604051918291602083526020830190613500565b5034610336578060031936011261033657602060405160018152f35b50346103365780600319360112610336575f5160206158ef5f395f51905f52546001600160a01b03906002906115d29042906152f7565b0154166040519182915f19813b0164ffffffffff16916021830191601f8501903c808252019060408201918260405260208352611616603f19926060830190613500565b030190f35b5034610336578060031936011261033657611634613880565b50606061165160165f5160206158ef5f395f51905f52540161389e565b610f9760405180926040809180518452602081015160208501520151910152565b50346103365780600319360112610336576020601b5f5160206158ef5f395f51905f52540154604051908152f35b5034610336576020366003190112610336576116ba613360565b601a5f5160206158ef5f395f51905f5254019060018060a01b03165f52602052602060405f2054604051908152f35b503461033657602036600319011261033657600435906001600160401b03821161033657602061172561171f36600486016134af565b90613814565b6040519015158152f35b50346103365780600319360112610336575f51602061586f5f395f51905f52546040516001600160a01b039091168152602090f35b50346103365760a03660031901126103365760043560443560ff8116810361073b5761178e613a64565b8249156118b5575f5160206158ef5f395f51905f52546001810154156115185760198101918385528260205260ff60408620541660038110156118a157611892576006820154601e9092015485926001600160a01b031691823b156108215760405163d505accf60e01b815233600482015230602480830191909152604482018490523560648083019190915260ff92909216608480830191909152913560a4820152903560c48201528390818160e48183885af161187d575b50506040516323b872dd60e01b815233600482015230602482015260448101919091529160209183918290816064810161067b565b816118879161341f565b61073b57825f611848565b6304c51a3360e31b8552600485fd5b634e487b7160e01b86526021600452602486fd5b637bb2fa2f60e11b8352600483fd5b50346103365780600319360112610336575f5160206158ef5f395f51905f525460018101908154611914576002015463ffffffff1640908115611905575580f35b63f7bac7b560e01b8352600483fd5b6309476b0360e41b8352600483fd5b50346103365780600319360112610336575f5160206158ef5f395f51905f5254600601546040516001600160a01b039091168152602090f35b5034610336578060031936011261033657611975613609565b50604061199260155f5160206158ef5f395f51905f5254016137d2565b610f97825180926001600160801b03602080926001600160401b038151168552015116910152565b50346103365780600319360112610336575f5160206158af5f395f51905f52541580611acc575b15611a8f57611a33906119f261428d565b906119fb61435a565b906020611a4160405193611a0f838661341f565b8385525f368137604051968796600f60f81b885260e08589015260e0880190613500565b908682036040880152613500565b904660608601523060808601528260a086015284820360c08601528080855193848152019401925b828110611a7857505050500390f35b835185528695509381019392810192600101611a69565b60405162461bcd60e51b81526020600482015260156024820152741152540dcc4c8e88155b9a5b9a5d1a585b1a5e9959605a1b6044820152606490fd5b505f51602061594f5f395f51905f5254156119e1565b5034610336578060031936011261033657611afb613a31565b611b03613a64565b600160ff195f51602061590f5f395f51905f525416175f51602061590f5f395f51905f52557f62e78cea01bee320cd4e420270b5ea74000d11b0c9f74754ebdbfc544b05a2586020604051338152a180f35b5034610336576020366003190112610336576004356001600160401b0381116109a457611b869036906004016134af565b905f5160206158ef5f395f51905f525490611ba08361372f565b91611bae604051938461341f565b838352611bba8461372f565b602084019490601f19013686376019869201915b818110611c2357868587604051928392602084019060208552518091526040840192915b818110611c00575050500390f35b9193509160208082611c1560019488516134df565b019401910191849392611bf2565b611c2e81838661379a565b3587528260205260ff604088205416611c4782876137be565b6003821015611c595752600101611bce565b634e487b7160e01b89526021600452602489fd5b5034610336576020366003190112610336576020906040906001600160a01b03611c95613360565b1681527f5ab42ced628888259c08ac98db1eb0cf702fc1501344311d8b100cd1bfe4bb0083522054604051908152f35b5034610336578060031936011261033657602060035f5160206158ef5f395f51905f52540154604051908152f35b5034610336578060031936011261033657611d0c613a31565b5f51602061586f5f395f51905f5280546001600160a01b0319811690915581906001600160a01b03167f8be0079c531659141344cd1fd0a4f28419497f9722a3daafe3b4186f6b6457e08280a380f35b5034610336578060031936011261033657611d75613a31565b5f51602061592f5f395f51905f525460ff8160401c169081156122b6575b506122a7575f51602061592f5f395f51905f52805468ffffffffffffffffff1916680100000000000000051790555f51602061586f5f395f51905f5254611ded906001600160a01b0316611de5615313565b610397615313565b611df561363f565b90611dfe61366c565b90611e07615313565b611e0f615313565b82516001600160401b0381116121aa57611e365f51602061584f5f395f51905f5254614255565b601f8111612243575b506020601f82116001146121c9578293948293926121be575b50508160011b915f199060031b1c1916175f51602061584f5f395f51905f52555b81516001600160401b0381116121aa57611ea05f51602061588f5f395f51905f5254614255565b601f811161213d575b50602092601f82116001146120c4579282938293926120b9575b50508160011b915f199060031b1c1916175f51602061588f5f395f51905f52555b805f5160206158af5f395f51905f5255805f51602061594f5f395f51905f52555f5160206158ef5f395f51905f5254611f1b613ff9565b80516001830155600282019063ffffffff60208201511669ffffffffffff000000006040845493015160201b169169ffffffffffffffffffff191617179055816020604051611f69816133cd565b82815201528160038201556004810165ffffffffffff19815416905561ffff6004611f9442846152f7565b01541661ffff601d8301911661ffff198254161790556004602060018060a01b036006840154166040519283809263313ce56760e01b82525afa80156109a857611fe591849161208a575b506136e3565b90816103e8026103e88104830361207657601e820155816101f402916101f483040361206257601f015560ff60401b195f51602061592f5f395f51905f5254165f51602061592f5f395f51905f52557fc7f505b2f371ae2175ee4913f4499e1f2633a7b5936321eed1cdaeb6115181d2602060405160058152a180f35b634e487b7160e01b83526011600452602483fd5b634e487b7160e01b84526011600452602484fd5b6120ac915060203d6020116120b2575b6120a4818361341f565b8101906136ca565b5f611fdf565b503d61209a565b015190505f80611ec3565b601f198216935f51602061588f5f395f51905f52845280842091845b868110612125575083600195961061210d575b505050811b015f51602061588f5f395f51905f5255611ee4565b01515f1960f88460031b161c191690555f80806120f3565b919260206001819286850151815501940192016120e0565b81811115611ea9575f51602061588f5f395f51905f52835261219c907f5f9ce34815f8e11431c7bb75a8e6886a91478f7ffc1dbb0a98dc240fddd76b7590601f840160051c90602085106121a2575b601f82910160051c039101614076565b5f611ea9565b85915061218c565b634e487b7160e01b82526041600452602482fd5b015190505f80611e58565b5f51602061584f5f395f51905f52835280832090601f198316845b81811061222b57509583600195969710612213575b505050811b015f51602061584f5f395f51905f5255611e79565b01515f1960f88460031b161c191690555f80806121f9565b9192602060018192868b0151815501940192016121e4565b81811115611e3f575f51602061584f5f395f51905f5283526122a1907f42ad5d3e1f2e6e70edcf6d991b8a3023d3fca8047a131592f9edb9fd9b89d57d90601f840160051c90602085106121a257601f82910160051c039101614076565b5f611e3f565b63f92ee8a960e01b8152600490fd5b600591506001600160401b031610155f611d93565b5034610336578060031936011261033657602060ff5f51602061590f5f395f51905f5254166040519015158152f35b50346103365761016036600319011261033657612315613360565b906024356001600160a01b038116908190036109a457612333613334565b9261233c61334a565b9360a4359060843560c43560403660e319011261081d5761012435976001600160401b038911610819573660238a011215610819578860040135916001600160401b038311612b1957366024848c010111612b1957610144356001600160401b038111612b15576123b19036906004016134af565b9690945f51602061592f5f395f51905f5254986001600160401b0360ff8b60401c16159a1680159081612b0d575b6001149081612b03575b159081612afa575b50612aeb57612433908a60016001600160401b03195f51602061592f5f395f51905f525416175f51602061592f5f395f51905f5255612abb575b611de5615313565b61243b615313565b61244361363f565b61244b61366c565b90612454615313565b61245c615313565b8051906001600160401b038211612aa7578d82916124875f51602061584f5f395f51905f5254614255565b601f8111612a43575b50602091601f84116001146129c757926129bc575b50508160011b915f199060031b1c1916175f51602061584f5f395f51905f52555b8051906001600160401b0382116129a8578c82916124f15f51602061588f5f395f51905f5254614255565b601f8111612944575b50602091601f84116001146128c857926128bd575b50508160011b915f199060031b1c1916175f51602061588f5f395f51905f52555b8a5f5160206158af5f395f51905f52558a5f51602061594f5f395f51905f5255612558615313565b612560615313565b42156128ae57811561289f578181111561289057600a612580838361368b565b048310156128815791600493916020938c60409c8d9182516125a2848261341f565b601781528881017f726f757465722e73746f726167652e526f75746572563100000000000000000081526125d4613a31565b5f19915190200181528760ff199120169a8b5f5160206158ef5f395f51905f52557f059eb9adf6e95b839d818142ed5bd5e498b6d95138e65c91525e93cc0f0339fc888d8551908152a1612626613ff9565b8c6001825191015560028d019063ffffffff8a8201511669ffffffffffff000000008684549301518c1b169169ffffffffffffffffffff19161717905582519061266f8261339e565b8282526001600160a01b039081168983018190529781169390910183905260058c018054919092166001600160a01b03199182161790915560068b01805482168717905560078b018054909116909117905570030000000000000000000000000000000260088a01556126e0613609565b506509184e72a000858d516126f4816133cd565b639502f900815201526015890180546001600160c01b0319166d09184e72a000000000009502f9001790558b5183908d9061272e8161339e565b8381528781018590520152601689015560178801556018870155601d8601805461ffff191661ffff8916179055885163313ce56760e01b815292839182905afa908115612877579061278691899161208a57506136e3565b806103e8026103e88104820361286357601e850155806101f402906101f482040361284f576127ee6127e46127f59798999a600993601f8801558a51946127cc866133cd565b60e4358652610104356020870152602436920161345b565b9342963691613746565b9301614091565b6127fd575080f35b60207fc7f505b2f371ae2175ee4913f4499e1f2633a7b5936321eed1cdaeb6115181d29160ff60401b195f51602061592f5f395f51905f5254165f51602061592f5f395f51905f52555160018152a180f35b634e487b7160e01b88526011600452602488fd5b634e487b7160e01b89526011600452602489fd5b87513d8a823e3d90fd5b63145e348f60e01b8b5260048bfd5b6353b2bbed60e01b8b5260048bfd5b63f7ba6bdb60e01b8b5260048bfd5b63b7d0949760e01b8b5260048bfd5b015190505f8061250f565b5f51602061588f5f395f51905f5281528281209350601f198516905b81811061292c5750908460019594939210612914575b505050811b015f51602061588f5f395f51905f5255612530565b01515f1960f88460031b161c191690555f80806128fa565b929360206001819287860151815501950193016128e4565b838111156124fa575f51602061588f5f395f51905f5283526129a2907f5f9ce34815f8e11431c7bb75a8e6886a91478f7ffc1dbb0a98dc240fddd76b7590601f860160051c90602087106121a257601f82910160051c039101614076565b5f6124fa565b634e487b7160e01b8d52604160045260248dfd5b015190505f806124a5565b5f51602061584f5f395f51905f5281528281209350601f198516905b818110612a2b5750908460019594939210612a13575b505050811b015f51602061584f5f395f51905f52556124c6565b01515f1960f88460031b161c191690555f80806129f9565b929360206001819287860151815501950193016129e3565b83811115612490575f51602061584f5f395f51905f528352612aa1907f42ad5d3e1f2e6e70edcf6d991b8a3023d3fca8047a131592f9edb9fd9b89d57d90601f860160051c90602087106121a257601f82910160051c039101614076565b5f612490565b634e487b7160e01b8e52604160045260248efd5b600160401b60ff60401b195f51602061592f5f395f51905f525416175f51602061592f5f395f51905f525561242b565b63f92ee8a960e01b8c5260048cfd5b9050155f6123f1565b303b1591506123e9565b8b91506123df565b8980fd5b8880fd5b50346103365780600319360112610336577f00000000000000000000000000000000000000000000000000000000000000006001600160a01b03163003612b755760206040515f5160206158cf5f395f51905f528152f35b63703e46dd60e11b8152600490fd5b50604036600319011261033657612b99613360565b906024356001600160401b0381116109a457612bb9903690600401613491565b6001600160a01b037f000000000000000000000000000000000000000000000000000000000000000016308114908115612d76575b50612d6757612bfb613a31565b6040516352d1902d60e01b8152926001600160a01b0381169190602085600481865afa80958596612d2f575b50612c4057634c9c8ce360e01b84526004839052602484fd5b9091845f5160206158cf5f395f51905f528103612d1d5750813b15612d0b575f5160206158cf5f395f51905f5280546001600160a01b031916821790557fbc7cd75a20ee27fd9adebab32041f755214dbc6bffa90cc0225b39da2e5c2d3b8480a28151839015612cf15780836020612ce595519101845af43d15612ce9573d91612cc983613440565b92612cd7604051948561341f565b83523d85602085013e6157f0565b5080f35b6060916157f0565b50505034612cfc5780f35b63b398979f60e01b8152600490fd5b634c9c8ce360e01b8452600452602483fd5b632a87526960e21b8552600452602484fd5b9095506020813d602011612d5f575b81612d4b6020938361341f565b81010312612d5b5751945f612c27565b5f80fd5b3d9150612d3e565b63703e46dd60e11b8252600482fd5b5f5160206158cf5f395f51905f52546001600160a01b0316141590505f612bee565b5034610336578060031936011261033657602060405160028152f35b5034610336578060031936011261033657612dcd613a31565b5f51602061590f5f395f51905f525460ff811615612e255760ff19165f51602061590f5f395f51905f52557f5db9ee0a495bf2e6ff9c91a7834c1ba4fdd244a5e8aa4e537bd38aeae4b073aa6020604051338152a180f35b638dfc202b60e01b8252600482fd5b503461033657602036600319011261033657612e4e613360565b612e56613a31565b5f5160206158ef5f395f51905f525460050180546001600160a01b0319166001600160a01b0390921691909117905580f35b5034610336578060031936011261033657612ea1613609565b506040612ec5612ec05f5160206158ef5f395f51905f525442906152f7565b613621565b60208251918051835201516020820152f35b503461033657606036600319011261033657612ef1613334565b612ef9613a64565b612f07602435600435613f01565b506001600160a01b0390811691908116612f8f5750335b5f5160206158ef5f395f51905f5254600501546001600160a01b0316823b1561082157604051635fd142bb60e11b81526001600160a01b03909216600483015260248201526001604482015260648101839052828160848183865af180156109a85761098f57602082604051908152f35b612f1e565b50346103365780600319360112610336576020610a58615296565b5034610336578060031936011261033657602060015f5160206158ef5f395f51905f52540154604051908152f35b50346103365780600319360112610336576020601e5f5160206158ef5f395f51905f52540154604051908152f35b503461033657602036600319011261033657613025613a31565b600435601e5f5160206158ef5f395f51905f5254015580f35b50346103365761010036600319011261033657613059613334565b6064356001600160801b03811690818103610821578360a43560ff811681036109a457613084613a64565b613092602435600435613f01565b6006015490936001600160a01b0390911691823b15610821576130d98480926040518093819263d505accf60e01b835260e4359060c435906084358a3033600489016135a7565b038183885af16131f7575b50506040516323b872dd60e01b81523360048201523060248201526001600160801b039190911660448201529160209183916064918391905af19081156131ec5785916131cd575b50156131be576001600160a01b03908116929081166131b8575033905b5f5160206158ef5f395f51905f5254600501546001600160a01b0316833b156109b357604051635fd142bb60e11b81526001600160a01b0390931660048401526024830152600160448301526064820152828160848183865af180156109a85761098f57602082604051908152f35b90613149565b631e4e7d0960e21b8452600484fd5b6131e6915060203d60201161070c576106fe818361341f565b5f61312c565b6040513d87823e3d90fd5b816132019161341f565b61073b57825f6130e4565b34612d5b576080366003190112612d5b57613225613334565b61322d61334a565b90613236613a64565b613244602435600435613a8b565b506001600160a01b03908116919081166132d1575033915b813b15612d5b57604051635fd142bb60e11b81526001600160a01b039384166004820152921660248301525f60448301819052606483018190528260848183855af19182156132c6576020926132b6575b50604051908152f35b5f6132c09161341f565b5f6132ad565b6040513d5f823e3d90fd5b9161325c565b34612d5b576020366003190112612d5b576132f0613a31565b600435601f5f5160206158ef5f395f51905f525401555f80f35b34612d5b575f366003190112612d5b57602090601c5f5160206158ef5f395f51905f525401548152f35b604435906001600160a01b0382168203612d5b57565b606435906001600160a01b0382168203612d5b57565b600435906001600160a01b0382168203612d5b57565b35906001600160a01b0382168203612d5b57565b35906001600160801b0382168203612d5b57565b606081019081106001600160401b038211176133b957604052565b634e487b7160e01b5f52604160045260245ffd5b604081019081106001600160401b038211176133b957604052565b61016081019081106001600160401b038211176133b957604052565b608081019081106001600160401b038211176133b957604052565b90601f801991011681019081106001600160401b038211176133b957604052565b6001600160401b0381116133b957601f01601f191660200190565b92919261346782613440565b91613475604051938461341f565b829481845281830111612d5b578281602093845f960137010152565b9080601f83011215612d5b578160206134ac9335910161345b565b90565b9181601f84011215612d5b578235916001600160401b038311612d5b576020808501948460051b010111612d5b57565b9060038210156134ec5752565b634e487b7160e01b5f52602160045260245ffd5b805180835260209291819084018484015e5f828201840152601f01601f1916010190565b90602080835192838152019201905f5b8181106135415750505090565b82516001600160a01b0316845260209384019390920191600101613534565b9060208251805183520151602082015260018060a01b0360208301511660408201526080606061359e604085015160a08386015260a0850190613524565b93015191015290565b936001600160801b0360c096929998979460ff9460e088019b60018060a01b0316885260018060a01b03166020880152166040860152606085015216608083015260a08201520152565b90816020910312612d5b57518015158103612d5b5790565b60405190613616826133cd565b5f6020838281520152565b9060405161362e816133cd565b602060018294805484520154910152565b6040519061364e60408361341f565b600f82526e2b30b9309722aa24102937baba32b960891b6020830152565b6040519061367b60408361341f565b60018252603160f81b6020830152565b9190820391821161369857565b634e487b7160e01b5f52601160045260245ffd5b81156136b6570490565b634e487b7160e01b5f52601260045260245ffd5b90816020910312612d5b575160ff81168103612d5b5790565b60ff16604d811161369857600a0a90565b8181029291811591840414171561369857565b9190826040910312612d5b5760405161371f816133cd565b6020808294803584520135910152565b6001600160401b0381116133b95760051b60200190565b9291906137528161372f565b93613760604051958661341f565b602085838152019160051b8101928311612d5b57905b82821061378257505050565b6020809161378f84613376565b815201910190613776565b91908110156137aa5760051b0190565b634e487b7160e01b5f52603260045260245ffd5b80518210156137aa5760209160051b010190565b906040516137df816133cd565b91546001600160401b038116835260401c6001600160801b03166020830152565b356001600160a01b0381168103612d5b5790565b61382d5f5160206158ef5f395f51905f525442906152f7565b600301905f5b8381106138435750505050600190565b61385161106e82868561379a565b6001600160a01b03165f9081526020849052604090205460ff161561387857600101613833565b505050505f90565b6040519061388d8261339e565b5f6040838281528260208201520152565b906040516138ab8161339e565b60406002829480548452600181015460208501520154910152565b3560ff81168103612d5b5790565b3565ffffffffffff81168103612d5b5790565b604051906138f482613404565b5f606083604051613904816133cd565b83815283602082015281528260208201528160408201520152565b6040519061392c82613404565b815f81525f602082015261393e6138e7565b6040820152606061394d6138e7565b910152565b90604051918281549182825260208201905f5260205f20925f5b8181106139835750506139819250038361341f565b565b84546001600160a01b031683526001948501948794506020909301920161396c565b5f1981146136985760010190565b9190820180921161369857565b6001600160a01b03168015613a1e575f51602061586f5f395f51905f5280546001600160a01b0319811683179091556001600160a01b03167f8be0079c531659141344cd1fd0a4f28419497f9722a3daafe3b4186f6b6457e05f80a3565b631e4fbdf760e01b5f525f60045260245ffd5b5f51602061586f5f395f51905f52546001600160a01b03163303613a5157565b63118cdaa760e01b5f523360045260245ffd5b60ff5f51602061590f5f395f51905f525416613a7c57565b63d93c066560e01b5f5260045ffd5b9190915f5160206158ef5f395f51905f52549260018401541561008257815f526019840160205260ff60405f20541660038110156134ec57600203613ef257815f5260205260405f206040516103008101908082106001600160401b03831117612d5b576102fb916040527f6080806040526102e990816100128239f3fe60806040526004361061029f575f81527f3560e01c806336a52a18146100bb57806342129d00146100b65780635ce6c32760208201527f146100b1578063701da98e146100ac578063704ed542146100a75780637a8e0c60408201527fdd146100a257806391d5a64c1461009d5780639ce110d714610098578063affe60608201527fd0e014610093578063c60496921461008e5763e43f34330361029f5761028a5660808201527f5b610260565b610243565b61021b565b610205565b6101d2565b6101b3565b6160a08201527f0178565b610156565b610119565b346100e7575f3660031901126100e757600260c08201527f5460405160089190911c6001600160a01b03168152602090f35b5f80fd5b918160e08201527f601f840112156100e75782359167ffffffffffffffff83116100e757602083816101008201527f8601950101116100e757565b60403660031901126100e75760043567ffffffff6101208201527fffffffff81116100e7576101459036906004016100eb565b50506024358015156101408201527f1461029f575f80fd5b346100e7575f3660031901126100e757602060ff6002546101608201527f166040519015158152f35b346100e7575f3660031901126100e75760205f54606101808201527f4051908152f35b600435906fffffffffffffffffffffffffffffffff821682036101a08201527f6100e757565b346100e75760203660031901126100e7576101cc610194565b506101c08201527f61029f565b60403660031901126100e75760243567ffffffffffffffff8111616101e08201527ee7576101fe9036906004016100eb565b505061029f565b346100e7576020366102008201527f60031901121561029f575f80fd5b346100e7575f3660031901126100e75760036102208201527f546040516001600160a01b039091168152602090f35b346100e7575f366003196102408201527f01126100e7576020600154604051908152f35b346100e75760a03660031901126102608201527f6100e757610279610194565b5060443560ff81161461029f575f80fd5b3461006102808201527fe7575f3660031901121561029f575f80fd5b63e6fabc0960e01b5f5260205f606102a08201523060481b685afa156100e7575f806204817360e81b01176102c08201527f8051368280378136915af43d5f803e156102e5573d5ff35b3d5ffd00000000006102e08201525ff5908115612d5b5760018060a01b0382165f52601a84016020528060405f2055601b8401613eb781546139a5565b90556040516001600160a01b03831681527f8008ec1d8798725ebfa0f2d128d52e8e717dcba6e0f786557eeee70614b02bf190602090a29190565b630e2637d160e01b5f5260045ffd5b9190915f5160206158ef5f395f51905f52549260018401541561008257815f526019840160205260ff60405f20541660038110156134ec57600203613ef257815f5260205260405f2060405160608101908082106001600160401b03831117612d5b57605a916040527f3d605080600a3d3981f3608060405263e6fabc0960e01b5f5260205f6004817381523060601b6b5afa15604c575f80805136821760208201527f80378136915af43d5f803e156048573d5ff35b3d5ffd5b5f80fd00000000000060408201525ff5908115612d5b5760018060a01b0382165f52601a84016020528060405f2055601b8401613eb781546139a5565b614001613880565b5063ffffffff431161405e5765ffffffffffff4211614046576040516140268161339e565b5f815263ffffffff4316602082015265ffffffffffff4216604082015290565b6306dfcc6560e41b5f5260306004524260245260445ffd5b6306dfcc6560e41b5f5260206004524360245260445ffd5b5f5b82811061408457505050565b5f82820155600101614078565b9291908051906020810191825170014551231950b75fc4402da1732fc9bebe1982109182614244575b5050156142355751845551600184015580518060401b6bfe61000180600a3d393df3000161fffe8211830152600b8101601583015ff091821561422857526002830180546001600160a01b0319166001600160a01b039092169190911790555f5b600483018054821015614159575f90815260208082208301546001600160a01b0316825260038501905260409020805460ff1916905560010161411b565b5050925f5b84518110156141a2576001906001600160a01b0361417c82886137be565b5116828060a01b03165f526003840160205260405f208260ff198254161790550161415e565b5092600482018151916001600160401b0383116133b957600160401b83116133b957602090825484845580851061420d575b5001905f5260205f205f5b8381106141f0575050505060050155565b82516001600160a01b0316818301556020909201916001016141df565b61422290845f528580855f2001910390614076565b5f6141d4565b63301164255f526004601cfd5b63375f0aab60e11b5f5260045ffd5b61424e92506157cd565b5f806140ba565b90600182811c92168015614283575b602083101461426f57565b634e487b7160e01b5f52602260045260245ffd5b91607f1691614264565b604051905f825f51602061584f5f395f51905f5254916142ac83614255565b808352926001811690811561433b57506001146142d0575b6139819250038361341f565b505f51602061584f5f395f51905f525f90815290917f42ad5d3e1f2e6e70edcf6d991b8a3023d3fca8047a131592f9edb9fd9b89d57d5b81831061431f575050906020613981928201016142c4565b6020919350806001915483858901015201910190918492614307565b6020925061398194915060ff191682840152151560051b8201016142c4565b604051905f825f51602061588f5f395f51905f52549161437983614255565b808352926001811690811561433b575060011461439c576139819250038361341f565b505f51602061588f5f395f51905f525f90815290917f5f9ce34815f8e11431c7bb75a8e6886a91478f7ffc1dbb0a98dc240fddd76b755b8183106143eb575050906020613981928201016142c4565b60209193508060019154838589010152019101909184926143d3565b435f19810193929084116136985760ff1643811061445757505f925b83811015614433575b505f925050565b80408281036144455750600193505050565b15614452575f1901614423565b61442c565b614461904361368b565b92614423565b903590601e1981360301821215612d5b57018035906001600160401b038211612d5b57602001918160051b36038313612d5b57565b906080810160016144ad8284614467565b905011614942576144be8183614467565b90501561491b576144ce91614467565b156137aa57803590603e1981360301821215612d5b5701916144f08380614467565b9190928260051b9383850460201484151715613698576145128596949561535f565b925f945f97601a60fe19853603019501965b888a10156148d3578960051b85013586811215612d5b57850161454681613800565b6001600160a01b03165f90815260208a9052604090205415610064575f608082016001600160801b036145788261533e565b161515806148c0575b6148af575b6001600160a01b0361459784613800565b604051630427a21d60e11b81526020600482015294911691610124850191906001600160801b0390614616906001600160a01b036145d485613376565b166024890152602084013560448901526145f060408501615352565b151560648901526001600160a01b0361460b60608601613376565b16608489015261338a565b1660a486015261462860a08201615352565b151560c486015236819003601e190160c082013581811215612d5b578201602081359101936001600160401b038211612d5b576060820236038513612d5b57819061010060e48a015252610144870193905f905b8082106148655750505060e082013590811215612d5b5701803560208201926001600160401b038211612d5b578160051b908136038513612d5b5791879594936023198785030161010488015281845260208085019385010194935f9160fe19813603015b8484106147585750505050505050602093916001600160801b03848093039316905af19081156132c6575f91614726575b50816020916001938a015201990198614524565b90506020813d8211614750575b816147406020938361341f565b81010312612d5b57516001614712565b3d9150614733565b919395979850919395601f19848203018752873582811215612d5b578301602081013582526001600160a01b0361479160408301613376565b1660208301526060810135603e193683900301811215612d5b578101602081013591906040016001600160401b038311612d5b578236038113612d5b57829060e060408601528160e08601526101008501375f61010083850101526001600160801b036148006080830161338a565b16606084015260a0810135608084015260c081013563ffffffff60e01b8116809103612d5b578360209361484260e086956101009560a060019a015201615352565b151560c0830152601f80199101160101990197019401918a9897969593916146e1565b90919460608060019288358152838060a01b0361488460208b01613376565b1660208201526001600160801b0361489e60408b0161338a565b16604082015201960192019061467c565b90506148ba8161533e565b90614586565b506148cd60a08401614986565b15614581565b5094935095509550506020925020910135907fd04cd9af813f6f0b56e9411a6ee6a84eb5ac35a96f0c33d2e3a07d65baa8f4186020604051848152a15f5260205260405f2090565b5050507fc5d2460186f7233c927e7db2dcc703c0e500b653ca82273b7bfad8045d85a47090565b6306d6c38360e01b5f5260045ffd5b903590601e1981360301821215612d5b57018035906001600160401b038211612d5b57602001918160061b36038313612d5b57565b358015158103612d5b5790565b903590605e1981360301821215612d5b570190565b60c0820160016149b88285614467565b905011614d3e576149c98184614467565b90501561491b576149da9083614467565b156137aa57803590607e1981360301821215612d5b57019160608301906020614a02836138d4565b91019065ffffffffffff80614a16846138d4565b1691161015614d2f57614a28826138d4565b65ffffffffffff80600286015460201c16911610614d2057614a6e65ffffffffffff614a67614a6182614a5a876138d4565b1687615384565b936138d4565b1684615384565b1115614d11576007820154600690920180548435946001600160a01b0394851694604082019391925f91602091166044614ab483614aac8989614993565b01358b6139b3565b604051948593849263095ea7b360e01b84528c600485015260248401525af19081156132c6575f91614cf2575b5015614ce3575460405163394f179b60e11b81526001600160a01b03909116600482015260248101959095526020818101356044870152856064815f885af19485156132c6575f95614cab575b5090614b3991614993565b91614b43826138d4565b9260405193637fbe95b560e01b85526040600486015260a48501918035601e1982360301811215612d5b578101602081359101936001600160401b038211612d5b578160061b36038513612d5b5760606044890152819052869360c485019392915f5b818110614c7357505050836020959365ffffffffffff829484895f9601356064860152614bdc604060018060a01b039201613376565b16608485015216602483015203925af19182156132c6575f92614c3d575b50614c04906138d4565b6040519160208301938452604083015265ffffffffffff60d01b9060d01b16606082015260468152614c3760668261341f565b51902090565b9091506020813d602011614c6b575b81614c596020938361341f565b81010312612d5b575190614c04614bfa565b3d9150614c4c565b919550919293604080600192838060a01b03614c8e8a613376565b168152602089013560208201520196019101918895949392614ba6565b919094506020823d602011614cdb575b81614cc86020938361341f565b81010312612d5b57905193614b39614b2e565b3d9150614cbb565b6367b9145160e01b5f5260045ffd5b614d0b915060203d60201161070c576106fe818361341f565b5f614ae1565b6308027f7760e31b5f5260045ffd5b637bde91e760e11b5f5260045ffd5b63087a19ab60e41b5f5260045ffd5b633249ceed60e11b5f5260045ffd5b903590601e1981360301821215612d5b57018035906001600160401b038211612d5b57602001918136038313612d5b57565b9060e081016001614d908284614467565b905011614ff357614da18183614467565b90501561491b57614db191614467565b156137aa57803590609e1981360301821215612d5b57016060810190614dd78282614467565b905015614fe45765ffffffffffff600284015460201c1691614df9834261368b565b614e08601686015480926136ac565b9360808401359460018101809111613698578503614fd557614e2d85614e33936136f4565b906139b3565b93614e4260178201548661368b565b4210614fc657614e51906153ac565b934260058601541015614fb757614ea6906040840195614e98614ea0614e778988614d4d565b9190614e83888a614467565b949091614e90368c613707565b94369161345b565b933691613746565b92614091565b7fa1a3b42179ad30022438a1ea333b38eaf4a7329beee5e2b8111c0dcd4e08821c6020604051858152a160a082360312612d5b5760405193614ee785613404565b614ef13684613707565b8552356001600160401b038111612d5b57614f0f9036908401613491565b602085015235906001600160401b038211612d5b570136601f82011215612d5b57614f41903690602081359101613746565b91826040820152816060820152519160208351930151906040519283926020840195865260408401526060830160208351919301905f5b818110614f9557505050815203808252614c37906020018261341f565b82516001600160a01b0316855286955060209485019490920191600101614f78565b6333fc8f5160e21b5f5260045ffd5b6372a84ce560e11b5f5260045ffd5b6343d3f5bf60e01b5f5260045ffd5b636c2bf3db60e01b5f5260045ffd5b631d3fc6bf60e21b5f5260045ffd5b909493919365ffffffffffff600283015460201c166150214284615384565b615039615033601686015480936136f4565b836139b3565b918284108080615255575b15615223575083106152155761505a90836139b3565b106152065761506a905b826152f7565b94601960f81b5f523060601b60025260165260365f209360028110156134ec57806150fb575050600181036150ec57156137aa576150ab816150b292614d4d565b369161345b565b9160608351036150dd578260206134ac940151606060408301519201519260018154910154906153c7565b632ce466bf60e01b5f5260045ffd5b6360a1ea7760e01b5f5260045ffd5b91939160011461510e5750505050505f90565b61513390600860048796970154910154906001600160801b038260801c92169061526b565b925f9260035f9201915b868110156151fb5761516361059e61515d6150ab8460051b860186614d4d565b86615793565b6001600160a01b0381165f9081526020859052604090205460ff1661518e575b506001905b0161513d565b6001600160a01b03165f9081527ff02b465737fa6045c2ff53fb2df43c66916ac2166fa303264668fb2f6a1d8c0060205260409020805c156151d35750600190615188565b9460016151e192965d6139a5565b938585146151ef575f615183565b50505050505050600190565b505050505050505f90565b63046bb1e560e51b5f5260045ffd5b62f4462b60e01b5f5260045ffd5b93929150504282116152465761506a9261523e575b50615064565b90505f615238565b6347860b9760e01b5f5260045ffd5b506152646018870154856139b3565b4210615044565b6001600160801b0380921602911661528381836136ac565b9181156136b65706156134ac5760010190565b61529e6156aa565b6152a6615701565b6040519060208201927f8b73c3c69bb8fe3d512ecc4cf759cc79239f7b179b0ffacaa9a75d522b39400f8452604083015260608201524660808201523060a082015260a08152614c3760c08261341f565b906153029082615733565b1561530d57600f0190565b60090190565b60ff5f51602061592f5f395f51905f525460401c161561532f57565b631afcd79f60e31b5f5260045ffd5b356001600160801b0381168103612d5b5790565b35908115158203612d5b57565b6040519190601f01601f191682016001600160401b03811183821017612d5b57604052565b60166153a36134ac9365ffffffffffff600285015460201c169061368b565b910154906136ac565b6153b64282615733565b156153c15760090190565b600f0190565b92939194906153d685876157cd565b156155695782156155695770014551231950b75fc4402da1732fc9bebe19831015615569576001169061010e61540b8161535f565b9160883684376002600188160160888401538760898401526002840160a984015360aa830186905260ca8301527e300046524f53542d736563703235366b312d4b454343414b3235362d76316360ea8301526303430b6160e51b61010a830152812060cc820181815290600260ec84016001815360428420809318845253604270014551231950b75fc4402da1732fc9bebe19922060801c6001600160401b0360801b8260801b16179070014551231950b75fc4402da1732fc9bebe1990600160c01b9060401c090880156151fb5784601b6080945f9660209870014551231950b75fc4402da1732fc9bebe19910970014551231950b75fc4402da1732fc9bebe19038552018684015280604084015270014551231950b75fc4402da1732fc9bebe19910970014551231950b75fc4402da1732fc9bebe1903606082015282805260015afa505f51915f5260205260018060a01b0360405f20161490565b5050505050505f90565b61557b6138e7565b50600281015460058201546040519290916155bb916004916001600160a01b03166155a586613404565b6155ae82613621565b8652602086015201613952565b6040830152606082015290565b91907f7fffffffffffffffffffffffffffffff5d576e7357a4501ddfe92f46681b20a0841161563f579160209360809260ff5f9560405194855216868401526040830152606082015282805260015afa156132c6575f516001600160a01b0381161561563557905f905f90565b505f906001905f90565b5050505f9160039190565b60048110156134ec578061565c575050565b600181036156735763f645eedf60e01b5f5260045ffd5b6002810361568e575063fce698f760e01b5f5260045260245ffd5b6003146156985750565b6335e2f38360e21b5f5260045260245ffd5b6156b261428d565b80519081156156c2576020012090565b50505f5160206158af5f395f51905f525480156156dc5790565b507fc5d2460186f7233c927e7db2dcc703c0e500b653ca82273b7bfad8045d85a47090565b61570961435a565b8051908115615719576020012090565b50505f51602061594f5f395f51905f525480156156dc5790565b906014600e8301549201548083146157845781818410931191821591111591819061577d575b1561576e578261576857505090565b14919050565b634c38ae9560e11b5f5260045ffd5b5081615759565b63f26224af60e01b5f5260045ffd5b81519190604183036157c3576157bc9250602082015190606060408401519301515f1a906155c8565b9192909190565b50505f9160029190565b6401000003d01990600790829081818009900908906401000003d0199080091490565b90615814575080511561580557602081519101fd5b63d6bda27560e01b5f5260045ffd5b81511580615845575b615825575090565b639996b31560e01b5f9081526001600160a01b0391909116600452602490fd5b50803b1561581d56fea16a46d94261c7517cc8ff89f61c0ce93598e3c849801011dee649a6a557d1029016d09d72d40fdae2fd8ceac6b6234c7706214fd39c1cd1e609a0528c199300a16a46d94261c7517cc8ff89f61c0ce93598e3c849801011dee649a6a557d103a16a46d94261c7517cc8ff89f61c0ce93598e3c849801011dee649a6a557d100360894a13ba1a3210667c828492db98dca3e2076cc3735a920a3ca505d382bbc5c09ca1b9b8127a4fd9f3c384aac59b661441e820e17733753ff5f2e86e1e000cd5ed15c6e187e77e9aee88184c21f4f2182ab5827cb3b7e07fbedcd63f03300f0c57e16840df040f15088dc2f81fe391c3923bec73e23a9662efc9c229c6a00a16a46d94261c7517cc8ff89f61c0ce93598e3c849801011dee649a6a557d101f0c57e16840df040f15088dc2f81fe391c3923bec73e23a9662efc9c229c6a00","linkReferences":{}},"methodIdentifiers":{"COMMIT_BATCH_AFTER_COMMIT_CODES()":"4429e24b","COMMIT_BATCH_BEFORE_COMMIT_CODES()":"ad2b3d9a","DOMAIN_SEPARATOR()":"3644e515","UPGRADE_INTERFACE_VERSION()":"ad3cb1cc","areValidators(address[])":"8f381dbe","codeState(bytes32)":"c13911e8","codesStates(bytes32[])":"82bdeaad","commitBatch((bytes32,uint48,bytes32,uint8,((address,bytes32,bool,address,uint128,bool,(bytes32,address,uint128)[],(bytes32,address,bytes,uint128,(bytes32,bytes4),bool)[])[],bytes32)[],(bytes32,bool)[],((uint256,bytes32),((address,uint256)[],uint256,address),uint48)[],((uint256,uint256),bytes,address[],uint256)[]),uint8,bytes[])":"b24fcac0","computeSettings()":"84d22a4f","createProgram(bytes32,bytes32,address)":"3683c4d2","createProgramWithAbiInterface(bytes32,bytes32,address,address)":"0c18d277","createProgramWithAbiInterfaceAndExecutableBalance(bytes32,bytes32,address,address,uint128,uint256,uint8,bytes32,bytes32)":"ee32004f","createProgramWithExecutableBalance(bytes32,bytes32,address,uint128,uint256,uint8,bytes32,bytes32)":"0d91bf2a","eip712Domain()":"84b0196e","genesisBlockHash()":"28e24b3d","genesisTimestamp()":"cacf66ab","initialize(address,address,address,address,uint256,uint256,uint256,(uint256,uint256),bytes,address[])":"53f7fd48","isValidator(address)":"facd743b","latestCommittedBatchHash()":"71a8cf2d","latestCommittedBatchTimestamp()":"d456fd51","lookupGenesisHash()":"8b1edf1e","middleware()":"f4f20ac0","mirrorImpl()":"e6fabc09","nonces(address)":"7ecebe00","owner()":"8da5cb5b","pause()":"8456cb59","paused()":"5c975abb","programCodeId(address)":"9067088e","programsCodeIds(address[])":"baaf0201","programsCount()":"96a2ddfa","proxiableUUID()":"52d1902d","reinitialize()":"6c2eb350","renounceOwnership()":"715018a6","requestCodeValidation(bytes32,uint256,uint8,bytes32,bytes32)":"8c4ace6a","requestCodeValidationBaseFee()":"188509e9","requestCodeValidationExtraFee()":"f1ef31ec","requestCodeValidationOnBehalf(address,bytes32,bytes32[],uint256,uint8,bytes32,bytes32,uint8,bytes32,bytes32)":"f0fd702a","setMirror(address)":"3d43b418","setRequestCodeValidationBaseFee(uint256)":"11bec80d","setRequestCodeValidationExtraFee(uint256)":"0b9737ce","signingThresholdFraction()":"e3a6684f","storageView()":"c2eb812f","timelines()":"9eb939a8","transferOwnership(address)":"f2fde38b","unpause()":"3f4ba83a","upgradeToAndCall(address,bytes)":"4f1ef286","validatedCodesCount()":"007a32e7","validators()":"ca1e7819","validatorsAggregatedPublicKey()":"3bd109fa","validatorsCount()":"ed612f8c","validatorsThreshold()":"edc87225","validatorsVerifiableSecretSharingCommitment()":"a5d53a44","wrappedVara()":"88f50cf0"},"storageLayout":{"storage":[],"types":{}},"id":168}