{"abi":[{"type":"constructor","inputs":[],"stateMutability":"nonpayable"},{"type":"receive","stateMutability":"payable"},{"type":"function","name":"CODE_COMMITMENT_GAS","inputs":[],"outputs":[{"name":"","type":"uint256","internalType":"uint256"}],"stateMutability":"view"},{"type":"function","name":"UPGRADE_INTERFACE_VERSION","inputs":[],"outputs":[{"name":"","type":"string","internalType":"string"}],"stateMutability":"view"},{"type":"function","name":"areValidators","inputs":[{"name":"_validators","type":"address[]","internalType":"address[]"}],"outputs":[{"name":"","type":"bool","internalType":"bool"}],"stateMutability":"view"},{"type":"function","name":"codeState","inputs":[{"name":"_codeId","type":"bytes32","internalType":"bytes32"}],"outputs":[{"name":"","type":"uint8","internalType":"enum Gear.CodeState"}],"stateMutability":"view"},{"type":"function","name":"codesStates","inputs":[{"name":"_codesIds","type":"bytes32[]","internalType":"bytes32[]"}],"outputs":[{"name":"","type":"uint8[]","internalType":"enum Gear.CodeState[]"}],"stateMutability":"view"},{"type":"function","name":"commitBatch","inputs":[{"name":"_batch","type":"tuple","internalType":"struct Gear.BatchCommitment","components":[{"name":"blockHash","type":"bytes32","internalType":"bytes32"},{"name":"blockTimestamp","type":"uint48","internalType":"uint48"},{"name":"previousCommittedBatchHash","type":"bytes32","internalType":"bytes32"},{"name":"expiry","type":"uint8","internalType":"uint8"},{"name":"chainCommitment","type":"tuple[]","internalType":"struct Gear.ChainCommitment[]","components":[{"name":"transitions","type":"tuple[]","internalType":"struct Gear.StateTransition[]","components":[{"name":"actorId","type":"address","internalType":"address"},{"name":"newStateHash","type":"bytes32","internalType":"bytes32"},{"name":"exited","type":"bool","internalType":"bool"},{"name":"inheritor","type":"address","internalType":"address"},{"name":"valueToReceive","type":"uint128","internalType":"uint128"},{"name":"valueToReceiveNegativeSign","type":"bool","internalType":"bool"},{"name":"valueClaims","type":"tuple[]","internalType":"struct Gear.ValueClaim[]","components":[{"name":"messageId","type":"bytes32","internalType":"bytes32"},{"name":"destination","type":"address","internalType":"address"},{"name":"value","type":"uint128","internalType":"uint128"}]},{"name":"messages","type":"tuple[]","internalType":"struct Gear.Message[]","components":[{"name":"id","type":"bytes32","internalType":"bytes32"},{"name":"destination","type":"address","internalType":"address"},{"name":"payload","type":"bytes","internalType":"bytes"},{"name":"value","type":"uint128","internalType":"uint128"},{"name":"replyDetails","type":"tuple","internalType":"struct Gear.ReplyDetails","components":[{"name":"to","type":"bytes32","internalType":"bytes32"},{"name":"code","type":"bytes4","internalType":"bytes4"}]},{"name":"call","type":"bool","internalType":"bool"}]}]},{"name":"head","type":"bytes32","internalType":"bytes32"}]},{"name":"codeCommitments","type":"tuple[]","internalType":"struct Gear.CodeCommitment[]","components":[{"name":"id","type":"bytes32","internalType":"bytes32"},{"name":"valid","type":"bool","internalType":"bool"}]},{"name":"rewardsCommitment","type":"tuple[]","internalType":"struct Gear.RewardsCommitment[]","components":[{"name":"operators","type":"tuple","internalType":"struct Gear.OperatorRewardsCommitment","components":[{"name":"amount","type":"uint256","internalType":"uint256"},{"name":"root","type":"bytes32","internalType":"bytes32"}]},{"name":"stakers","type":"tuple","internalType":"struct Gear.StakerRewardsCommitment","components":[{"name":"distribution","type":"tuple[]","internalType":"struct Gear.StakerRewards[]","components":[{"name":"vault","type":"address","internalType":"address"},{"name":"amount","type":"uint256","internalType":"uint256"}]},{"name":"totalAmount","type":"uint256","internalType":"uint256"},{"name":"token","type":"address","internalType":"address"}]},{"name":"timestamp","type":"uint48","internalType":"uint48"}]},{"name":"validatorsCommitment","type":"tuple[]","internalType":"struct Gear.ValidatorsCommitment[]","components":[{"name":"aggregatedPublicKey","type":"tuple","internalType":"struct Gear.AggregatedPublicKey","components":[{"name":"x","type":"uint256","internalType":"uint256"},{"name":"y","type":"uint256","internalType":"uint256"}]},{"name":"verifiableSecretSharingCommitment","type":"bytes","internalType":"bytes"},{"name":"validators","type":"address[]","internalType":"address[]"},{"name":"eraIndex","type":"uint256","internalType":"uint256"}]}]},{"name":"_signatureType","type":"uint8","internalType":"enum Gear.SignatureType"},{"name":"_signatures","type":"bytes[]","internalType":"bytes[]"}],"outputs":[],"stateMutability":"nonpayable"},{"type":"function","name":"computeSettings","inputs":[],"outputs":[{"name":"","type":"tuple","internalType":"struct Gear.ComputationSettings","components":[{"name":"threshold","type":"uint64","internalType":"uint64"},{"name":"wvaraPerSecond","type":"uint128","internalType":"uint128"}]}],"stateMutability":"view"},{"type":"function","name":"createProgram","inputs":[{"name":"_codeId","type":"bytes32","internalType":"bytes32"},{"name":"_salt","type":"bytes32","internalType":"bytes32"},{"name":"_overrideInitializer","type":"address","internalType":"address"}],"outputs":[{"name":"","type":"address","internalType":"address"}],"stateMutability":"nonpayable"},{"type":"function","name":"createProgramWithAbiInterface","inputs":[{"name":"_codeId","type":"bytes32","internalType":"bytes32"},{"name":"_salt","type":"bytes32","internalType":"bytes32"},{"name":"_overrideInitializer","type":"address","internalType":"address"},{"name":"_abiInterface","type":"address","internalType":"address"}],"outputs":[{"name":"","type":"address","internalType":"address"}],"stateMutability":"nonpayable"},{"type":"function","name":"genesisBlockHash","inputs":[],"outputs":[{"name":"","type":"bytes32","internalType":"bytes32"}],"stateMutability":"view"},{"type":"function","name":"genesisTimestamp","inputs":[],"outputs":[{"name":"","type":"uint48","internalType":"uint48"}],"stateMutability":"view"},{"type":"function","name":"initialize","inputs":[{"name":"_owner","type":"address","internalType":"address"},{"name":"_mirror","type":"address","internalType":"address"},{"name":"_wrappedVara","type":"address","internalType":"address"},{"name":"_middleware","type":"address","internalType":"address"},{"name":"_eraDuration","type":"uint256","internalType":"uint256"},{"name":"_electionDuration","type":"uint256","internalType":"uint256"},{"name":"_validationDelay","type":"uint256","internalType":"uint256"},{"name":"_aggregatedPublicKey","type":"tuple","internalType":"struct Gear.AggregatedPublicKey","components":[{"name":"x","type":"uint256","internalType":"uint256"},{"name":"y","type":"uint256","internalType":"uint256"}]},{"name":"_verifiableSecretSharingCommitment","type":"bytes","internalType":"bytes"},{"name":"_validators","type":"address[]","internalType":"address[]"}],"outputs":[],"stateMutability":"nonpayable"},{"type":"function","name":"isValidator","inputs":[{"name":"_validator","type":"address","internalType":"address"}],"outputs":[{"name":"","type":"bool","internalType":"bool"}],"stateMutability":"view"},{"type":"function","name":"latestCommittedBatchHash","inputs":[],"outputs":[{"name":"","type":"bytes32","internalType":"bytes32"}],"stateMutability":"view"},{"type":"function","name":"latestCommittedBatchTimestamp","inputs":[],"outputs":[{"name":"","type":"uint48","internalType":"uint48"}],"stateMutability":"view"},{"type":"function","name":"latestGasPrice","inputs":[],"outputs":[{"name":"","type":"uint256","internalType":"uint256"}],"stateMutability":"view"},{"type":"function","name":"lookupGenesisHash","inputs":[],"outputs":[],"stateMutability":"nonpayable"},{"type":"function","name":"middleware","inputs":[],"outputs":[{"name":"","type":"address","internalType":"address"}],"stateMutability":"view"},{"type":"function","name":"mirrorImpl","inputs":[],"outputs":[{"name":"","type":"address","internalType":"address"}],"stateMutability":"view"},{"type":"function","name":"owner","inputs":[],"outputs":[{"name":"","type":"address","internalType":"address"}],"stateMutability":"view"},{"type":"function","name":"pause","inputs":[],"outputs":[],"stateMutability":"nonpayable"},{"type":"function","name":"paused","inputs":[],"outputs":[{"name":"","type":"bool","internalType":"bool"}],"stateMutability":"view"},{"type":"function","name":"programCodeId","inputs":[{"name":"_programId","type":"address","internalType":"address"}],"outputs":[{"name":"","type":"bytes32","internalType":"bytes32"}],"stateMutability":"view"},{"type":"function","name":"programsCodeIds","inputs":[{"name":"_programsIds","type":"address[]","internalType":"address[]"}],"outputs":[{"name":"","type":"bytes32[]","internalType":"bytes32[]"}],"stateMutability":"view"},{"type":"function","name":"programsCount","inputs":[],"outputs":[{"name":"","type":"uint256","internalType":"uint256"}],"stateMutability":"view"},{"type":"function","name":"proxiableUUID","inputs":[],"outputs":[{"name":"","type":"bytes32","internalType":"bytes32"}],"stateMutability":"view"},{"type":"function","name":"reinitialize","inputs":[],"outputs":[],"stateMutability":"nonpayable"},{"type":"function","name":"renounceOwnership","inputs":[],"outputs":[],"stateMutability":"nonpayable"},{"type":"function","name":"requestCodeValidation","inputs":[{"name":"_codeId","type":"bytes32","internalType":"bytes32"}],"outputs":[],"stateMutability":"payable"},{"type":"function","name":"setMirror","inputs":[{"name":"newMirror","type":"address","internalType":"address"}],"outputs":[],"stateMutability":"nonpayable"},{"type":"function","name":"signingThresholdFraction","inputs":[],"outputs":[{"name":"thresholdNumerator","type":"uint128","internalType":"uint128"},{"name":"thresholdDenominator","type":"uint128","internalType":"uint128"}],"stateMutability":"view"},{"type":"function","name":"storageView","inputs":[],"outputs":[{"name":"","type":"tuple","internalType":"struct IRouter.StorageView","components":[{"name":"genesisBlock","type":"tuple","internalType":"struct Gear.GenesisBlockInfo","components":[{"name":"hash","type":"bytes32","internalType":"bytes32"},{"name":"number","type":"uint32","internalType":"uint32"},{"name":"timestamp","type":"uint48","internalType":"uint48"}]},{"name":"latestCommittedBatch","type":"tuple","internalType":"struct Gear.CommittedBatchInfo","components":[{"name":"hash","type":"bytes32","internalType":"bytes32"},{"name":"timestamp","type":"uint48","internalType":"uint48"}]},{"name":"implAddresses","type":"tuple","internalType":"struct Gear.AddressBook","components":[{"name":"mirror","type":"address","internalType":"address"},{"name":"wrappedVara","type":"address","internalType":"address"},{"name":"middleware","type":"address","internalType":"address"}]},{"name":"validationSettings","type":"tuple","internalType":"struct Gear.ValidationSettingsView","components":[{"name":"thresholdNumerator","type":"uint128","internalType":"uint128"},{"name":"thresholdDenominator","type":"uint128","internalType":"uint128"},{"name":"validators0","type":"tuple","internalType":"struct Gear.ValidatorsView","components":[{"name":"aggregatedPublicKey","type":"tuple","internalType":"struct Gear.AggregatedPublicKey","components":[{"name":"x","type":"uint256","internalType":"uint256"},{"name":"y","type":"uint256","internalType":"uint256"}]},{"name":"verifiableSecretSharingCommitmentPointer","type":"address","internalType":"address"},{"name":"list","type":"address[]","internalType":"address[]"},{"name":"useFromTimestamp","type":"uint256","internalType":"uint256"}]},{"name":"validators1","type":"tuple","internalType":"struct Gear.ValidatorsView","components":[{"name":"aggregatedPublicKey","type":"tuple","internalType":"struct Gear.AggregatedPublicKey","components":[{"name":"x","type":"uint256","internalType":"uint256"},{"name":"y","type":"uint256","internalType":"uint256"}]},{"name":"verifiableSecretSharingCommitmentPointer","type":"address","internalType":"address"},{"name":"list","type":"address[]","internalType":"address[]"},{"name":"useFromTimestamp","type":"uint256","internalType":"uint256"}]}]},{"name":"computeSettings","type":"tuple","internalType":"struct Gear.ComputationSettings","components":[{"name":"threshold","type":"uint64","internalType":"uint64"},{"name":"wvaraPerSecond","type":"uint128","internalType":"uint128"}]},{"name":"timelines","type":"tuple","internalType":"struct Gear.Timelines","components":[{"name":"era","type":"uint256","internalType":"uint256"},{"name":"election","type":"uint256","internalType":"uint256"},{"name":"validationDelay","type":"uint256","internalType":"uint256"}]},{"name":"programsCount","type":"uint256","internalType":"uint256"},{"name":"validatedCodesCount","type":"uint256","internalType":"uint256"},{"name":"latestGasPrice","type":"uint256","internalType":"uint256"}]}],"stateMutability":"view"},{"type":"function","name":"timelines","inputs":[],"outputs":[{"name":"","type":"tuple","internalType":"struct Gear.Timelines","components":[{"name":"era","type":"uint256","internalType":"uint256"},{"name":"election","type":"uint256","internalType":"uint256"},{"name":"validationDelay","type":"uint256","internalType":"uint256"}]}],"stateMutability":"view"},{"type":"function","name":"transferOwnership","inputs":[{"name":"newOwner","type":"address","internalType":"address"}],"outputs":[],"stateMutability":"nonpayable"},{"type":"function","name":"unpause","inputs":[],"outputs":[],"stateMutability":"nonpayable"},{"type":"function","name":"upgradeToAndCall","inputs":[{"name":"newImplementation","type":"address","internalType":"address"},{"name":"data","type":"bytes","internalType":"bytes"}],"outputs":[],"stateMutability":"payable"},{"type":"function","name":"validatedCodesCount","inputs":[],"outputs":[{"name":"","type":"uint256","internalType":"uint256"}],"stateMutability":"view"},{"type":"function","name":"validators","inputs":[],"outputs":[{"name":"","type":"address[]","internalType":"address[]"}],"stateMutability":"view"},{"type":"function","name":"validatorsAggregatedPublicKey","inputs":[],"outputs":[{"name":"","type":"tuple","internalType":"struct Gear.AggregatedPublicKey","components":[{"name":"x","type":"uint256","internalType":"uint256"},{"name":"y","type":"uint256","internalType":"uint256"}]}],"stateMutability":"view"},{"type":"function","name":"validatorsCount","inputs":[],"outputs":[{"name":"","type":"uint256","internalType":"uint256"}],"stateMutability":"view"},{"type":"function","name":"validatorsThreshold","inputs":[],"outputs":[{"name":"","type":"uint256","internalType":"uint256"}],"stateMutability":"view"},{"type":"function","name":"validatorsVerifiableSecretSharingCommitment","inputs":[],"outputs":[{"name":"","type":"bytes","internalType":"bytes"}],"stateMutability":"view"},{"type":"function","name":"withdrawExecutableBalance","inputs":[],"outputs":[],"stateMutability":"nonpayable"},{"type":"function","name":"wrappedVara","inputs":[],"outputs":[{"name":"","type":"address","internalType":"address"}],"stateMutability":"view"},{"type":"event","name":"AnnouncesCommitted","inputs":[{"name":"head","type":"bytes32","indexed":false,"internalType":"bytes32"}],"anonymous":false},{"type":"event","name":"BatchCommitted","inputs":[{"name":"hash","type":"bytes32","indexed":false,"internalType":"bytes32"}],"anonymous":false},{"type":"event","name":"CodeGotValidated","inputs":[{"name":"codeId","type":"bytes32","indexed":false,"internalType":"bytes32"},{"name":"valid","type":"bool","indexed":true,"internalType":"bool"}],"anonymous":false},{"type":"event","name":"CodeValidationRequested","inputs":[{"name":"codeId","type":"bytes32","indexed":false,"internalType":"bytes32"}],"anonymous":false},{"type":"event","name":"ComputationSettingsChanged","inputs":[{"name":"threshold","type":"uint64","indexed":false,"internalType":"uint64"},{"name":"wvaraPerSecond","type":"uint128","indexed":false,"internalType":"uint128"}],"anonymous":false},{"type":"event","name":"Initialized","inputs":[{"name":"version","type":"uint64","indexed":false,"internalType":"uint64"}],"anonymous":false},{"type":"event","name":"OwnershipTransferred","inputs":[{"name":"previousOwner","type":"address","indexed":true,"internalType":"address"},{"name":"newOwner","type":"address","indexed":true,"internalType":"address"}],"anonymous":false},{"type":"event","name":"Paused","inputs":[{"name":"account","type":"address","indexed":false,"internalType":"address"}],"anonymous":false},{"type":"event","name":"ProgramCreated","inputs":[{"name":"actorId","type":"address","indexed":false,"internalType":"address"},{"name":"codeId","type":"bytes32","indexed":true,"internalType":"bytes32"}],"anonymous":false},{"type":"event","name":"StorageSlotChanged","inputs":[{"name":"slot","type":"bytes32","indexed":false,"internalType":"bytes32"}],"anonymous":false},{"type":"event","name":"Unpaused","inputs":[{"name":"account","type":"address","indexed":false,"internalType":"address"}],"anonymous":false},{"type":"event","name":"Upgraded","inputs":[{"name":"implementation","type":"address","indexed":true,"internalType":"address"}],"anonymous":false},{"type":"event","name":"ValidatorsCommittedForEra","inputs":[{"name":"eraIndex","type":"uint256","indexed":false,"internalType":"uint256"}],"anonymous":false},{"type":"error","name":"AddressEmptyCode","inputs":[{"name":"target","type":"address","internalType":"address"}]},{"type":"error","name":"ApproveERC20Failed","inputs":[]},{"type":"error","name":"BatchTimestampNotInPast","inputs":[]},{"type":"error","name":"BatchTimestampTooEarly","inputs":[]},{"type":"error","name":"BlobNotFound","inputs":[]},{"type":"error","name":"CodeAlreadyOnValidationOrValidated","inputs":[]},{"type":"error","name":"CodeNotValidated","inputs":[]},{"type":"error","name":"CodeValidationNotRequested","inputs":[]},{"type":"error","name":"CommitmentEraNotNext","inputs":[]},{"type":"error","name":"ECDSAInvalidSignature","inputs":[]},{"type":"error","name":"ECDSAInvalidSignatureLength","inputs":[{"name":"length","type":"uint256","internalType":"uint256"}]},{"type":"error","name":"ECDSAInvalidSignatureS","inputs":[{"name":"s","type":"bytes32","internalType":"bytes32"}]},{"type":"error","name":"ERC1967InvalidImplementation","inputs":[{"name":"implementation","type":"address","internalType":"address"}]},{"type":"error","name":"ERC1967NonPayable","inputs":[]},{"type":"error","name":"ElectionNotStarted","inputs":[]},{"type":"error","name":"EmptyValidatorsList","inputs":[]},{"type":"error","name":"EnforcedPause","inputs":[]},{"type":"error","name":"EraDurationTooShort","inputs":[]},{"type":"error","name":"ErasTimestampMustNotBeEqual","inputs":[]},{"type":"error","name":"ExpectedPause","inputs":[]},{"type":"error","name":"FailedCall","inputs":[]},{"type":"error","name":"GenesisHashAlreadySet","inputs":[]},{"type":"error","name":"GenesisHashNotFound","inputs":[]},{"type":"error","name":"InvalidElectionDuration","inputs":[]},{"type":"error","name":"InvalidFROSTAggregatedPublicKey","inputs":[]},{"type":"error","name":"InvalidFrostSignatureCount","inputs":[]},{"type":"error","name":"InvalidFrostSignatureLength","inputs":[]},{"type":"error","name":"InvalidInitialization","inputs":[]},{"type":"error","name":"InvalidPreviousCommittedBatchHash","inputs":[]},{"type":"error","name":"InvalidTimestamp","inputs":[]},{"type":"error","name":"InvalidValidationFee","inputs":[]},{"type":"error","name":"NotInitializing","inputs":[]},{"type":"error","name":"OwnableInvalidOwner","inputs":[{"name":"owner","type":"address","internalType":"address"}]},{"type":"error","name":"OwnableUnauthorizedAccount","inputs":[{"name":"account","type":"address","internalType":"address"}]},{"type":"error","name":"PayValidationFeeFailed","inputs":[]},{"type":"error","name":"PredecessorBlockNotFound","inputs":[]},{"type":"error","name":"ReentrancyGuardReentrantCall","inputs":[]},{"type":"error","name":"RewardsCommitmentEraNotPrevious","inputs":[]},{"type":"error","name":"RewardsCommitmentPredatesGenesis","inputs":[]},{"type":"error","name":"RewardsCommitmentTimestampNotInPast","inputs":[]},{"type":"error","name":"RouterGenesisHashNotInitialized","inputs":[]},{"type":"error","name":"SafeCastOverflowedUintDowncast","inputs":[{"name":"bits","type":"uint8","internalType":"uint8"},{"name":"value","type":"uint256","internalType":"uint256"}]},{"type":"error","name":"SignatureVerificationFailed","inputs":[]},{"type":"error","name":"TimestampInFuture","inputs":[]},{"type":"error","name":"TimestampOlderThanPreviousEra","inputs":[]},{"type":"error","name":"TooManyChainCommitments","inputs":[]},{"type":"error","name":"TooManyRewardsCommitments","inputs":[]},{"type":"error","name":"TooManyValidatorsCommitments","inputs":[]},{"type":"error","name":"UUPSUnauthorizedCallContext","inputs":[]},{"type":"error","name":"UUPSUnsupportedProxiableUUID","inputs":[{"name":"slot","type":"bytes32","internalType":"bytes32"}]},{"type":"error","name":"UnknownProgram","inputs":[]},{"type":"error","name":"ValidationBeforeGenesis","inputs":[]},{"type":"error","name":"ValidationDelayTooBig","inputs":[]},{"type":"error","name":"ValidatorsAlreadyScheduled","inputs":[]},{"type":"error","name":"ValidatorsNotFoundForTimestamp","inputs":[]},{"type":"error","name":"WithdrawExecutableBalanceFailed","inputs":[]},{"type":"error","name":"ZeroValueTransfer","inputs":[]}],"bytecode":{"object":"0x60a080604052346100c257306080525f5160206145475f395f51905f525460ff8160401c166100b3576002600160401b03196001600160401b03821601610060575b60405161448090816100c78239608051818181611af40152611b870152f35b6001600160401b0319166001600160401b039081175f5160206145475f395f51905f525581527fc7f505b2f371ae2175ee4913f4499e1f2633a7b5936321eed1cdaeb6115181d290602090a15f80610041565b63f92ee8a960e01b5f5260045ffd5b5f80fdfe6080806040526004361015610091575b50361561001a575f80fd5b610022612d87565b5f5160206144205f395f51905f5254600181015415610082576001600160801b0334161561007357335f908152601a9190910160205260409020541561006457005b63821a62f560e01b5f5260045ffd5b63a1a7c6eb60e01b5f5260045ffd5b63580683f360e01b5f5260045ffd5b5f905f3560e01c9081627a32e714612734575080630c18d27714612246578063120e3f1e146120f157806322f86f0b146120c357806328e24b3d1461209557806331228ab6146120785780633683c4d214611e585780633bd109fa14611e095780633d43b41814611db55780633f4ba83a14611d355780634f1ef28614611b4857806352d1902d14611ae157806353f7fd48146116665780635c975abb146116375780636c2eb350146114af578063715018a61461144657806371a8cf2d14611418578063734a29a9146112d557806382bdeaad146111bd5780638456cb591461114a57806384d22a4f146110ec57806388f50cf0146110b35780638b1edf1e1461104e5780638da5cb5b146110195780638f381dbe14610fd35780639067088e14610f8a57806396a2ddfa14610f5c5780639eb939a814610f05578063a5d53a4414610e85578063ad3cb1cc14610e3c578063b24fcac01461098c578063baaf02011461088b578063c13911e814610847578063c2eb812f146104ff578063ca1e7819146104af578063cacf66ab14610477578063d456fd5114610441578063e3a6684f14610402578063e6fabc09146103c9578063ed612f8c14610391578063edc872251461033c578063f2fde38b1461030f578063f4f20ac0146102d65763facd743b0361000f57346102d35760203660031901126102d35761029561278a565b60036102b05f5160206144205f395f51905f52544290613efd565b019060018060a01b03165f52602052602060ff60405f2054166040519015158152f35b80fd5b50346102d357806003193601126102d3575f5160206144205f395f51905f5254600701546040516001600160a01b039091168152602090f35b50346102d35760203660031901126102d35761033961032c61278a565b610334612dbc565b612d16565b80f35b50346102d357806003193601126102d35760206103895f5160206144205f395f51905f52546008600461036f4284613efd565b0154910154906001600160801b038260801c921690613ed2565b604051908152f35b50346102d357806003193601126102d357602060046103bf5f5160206144205f395f51905f52544290613efd565b0154604051908152f35b50346102d357806003193601126102d3575f5160206144205f395f51905f5254600501546040516001600160a01b039091168152602090f35b50346102d357806003193601126102d357604060085f5160206144205f395f51905f525401548151906001600160801b038116825260801c6020820152f35b50346102d357806003193601126102d357602065ffffffffffff60045f5160206144205f395f51905f5254015416604051908152f35b50346102d357806003193601126102d357602065ffffffffffff60025f5160206144205f395f51905f52540154821c16604051908152f35b50346102d357806003193601126102d3576104fb6104e760046104e15f5160206144205f395f51905f52544290613efd565b01612cc3565b604051918291602083526020830190612926565b0390f35b50346102d357806003193601126102d35760405161051c816127fe565b610524612bf1565b8152604051610532816127e3565b5f8152602081015f90526020820152610549612bf1565b6040820152610556612c90565b6060820152604051610567816127e3565b5f8082526020820152608082015261057d612bf1565b60a08201528160c08201528160e082015261010001525f5160206144205f395f51905f52546105aa612c90565b506105b76009820161418d565b906105c4600f820161418d565b600882015492604051936105d78561281a565b6001600160801b038116855260801c602085015260408401526060830152601b81015490601c810154601d8201549060405193610613856127fe565b60405161061f816127b4565b60018501548152600285015463ffffffff8116602083015260201c65ffffffffffff166040820152855260405195610656876127e3565b60038501548752600485015465ffffffffffff1660208801526020860196875260405190610683826127b4565b60058601546001600160a01b0390811683526006870154811660208401526007870154166040808401919091528701918252606087019081526106c860158701612b43565b95608088019687526016016106dc90612c0f565b9160a0880192835260c0880193845260e08801948552610100880195865260405198899860208a5251805160208b0152602081015163ffffffff1660408b01526040015165ffffffffffff1660608a015251805160808a01526020015165ffffffffffff1660a089015251600160a01b6001900381511660c0890152600160a01b6001900360208201511660e0890152600160a01b60019003906040015116610100880152516101208701610220905280516001600160801b031661024088015260208101516001600160801b031661026088015260408101516102808801608090526102c088016107cd91612962565b90606001519061023f19888203016102a08901526107ea91612962565b945180516001600160401b0316610140880152602001516001600160801b031661016087015251805161018087015260208101516101a0870152604001516101c0860152516101e085015251610200840152516102208301520390f35b50346102d35760203660031901126102d35760ff604060209260195f5160206144205f395f51905f5254016004358252845220541661088960405180926128f5565bf35b50346102d35760203660031901126102d3576004356001600160401b038111610988576108bc9036906004016128c5565b905f5160206144205f395f51905f5254906108d683612a88565b916108e46040519384612835565b8383526108f084612a88565b602084019490601f1901368637601a869201915b81811061094f57868587604051928392602084019060208552518091526040840192915b818110610936575050500390f35b8251845285945060209384019390920191600101610928565b806109656109606001938588612b0b565b612b71565b828060a01b03165f528360205260405f20546109818288612b2f565b5201610904565b5080fd5b50346102d35760603660031901126102d3576001600160401b03600435116102d357610100600435360360031901126102d357600260243510156102d3576044356001600160401b038111610988576109e99036906004016128c5565b7f9b779b17422d0df92223018b32b4d1fa46e071723d6817e2486d003becc55f005c610e2d5760017f9b779b17422d0df92223018b32b4d1fa46e071723d6817e2486d003becc55f005d5f5160206144205f395f51905f525490600182015415610e1e57815415610dc2575b60038201546044600435013503610db35765ffffffffffff60048301541665ffffffffffff610a88602460043501612c45565b1610610da557610a9d600435600401836130d3565b92610ab260a460043501600435600401613588565b808096925060051b0460201485151715610d9157610ad28560051b613f79565b8695865b818810610c485750610c0e965060051b902090610af8600435600401866135ec565b610b07600435600401876139dd565b90610b16602460043501612c45565b93610b25606460043501612c37565b9360405194602086019660043560040135885265ffffffffffff60d01b9060d01b16604087015260446004350135604687015260ff60f81b9060f81b1660668601526067850152608784015260a783015260c782015260c78152610b8a60e782612835565b5190209283600382015565ffffffffffff610ba9602460043501612c45565b1665ffffffffffff196004830154161760048201553a601d8201557f7ebe42360bcb182fe0a88148b081e4557c89d09aa6af8307635ac2f83e2aaa656020604051868152a165ffffffffffff610c03602460043501612c45565b169360243591613c60565b15610c3957807f9b779b17422d0df92223018b32b4d1fa46e071723d6817e2486d003becc55f005d80f35b63729d0f6b60e01b8152600490fd5b610c5c60a460043501600435600401613588565b891015610d7d578860061b8101358a526019880160205260ff60408b2054166003811015610d6957600103610d5a57600191602091610d1f8b8b8e868360061b86010192610ca9846135bd565b15610d3b5760061b85013590525060198c01855260408e20805460ff19166002179055601c8c018054610cdb90612dae565b90555b8c7f460119a8f69a33ed127de517d5ea464e958ce23ef19e4420a8b92bf780bbc2c986610d0a846135bd565b1515926040519060061b8701358152a26135bd565b908b60061b01358c52825360218b208186015201970196610ad6565b60409260199160061b87013583520187522060ff198154169055610cde565b636e83084760e11b8a5260048afd5b634e487b7160e01b8b52602160045260248bfd5b634e487b7160e01b8a52603260045260248afd5b634e487b7160e01b86526011600452602486fd5b620725b160ea1b8452600484fd5b63164b6fc360e01b8452600484fd5b610ddf610dd3606460043501612c37565b6004356004013561303e565b15610e0f5765ffffffffffff610df9602460043501612c45565b164211610a5557631ad8809560e31b8452600484fd5b637b8cb35960e01b8452600484fd5b63580683f360e01b8452600484fd5b633ee5aeb560e01b8352600483fd5b50346102d357806003193601126102d357506104fb604051610e5f604082612835565b60058152640352e302e360dc1b6020820152604051918291602083526020830190612902565b50346102d357806003193601126102d3575f5160206144205f395f51905f52546001600160a01b0390600290610ebc904290613efd565b0154166040519182915f19813b0164ffffffffff16916021830191601f8501903c808252019060408201918260405260208352610f00603f19926060830190612902565b030190f35b50346102d357806003193601126102d357610f1e612bf1565b506060610f3b60165f5160206144205f395f51905f525401612c0f565b61088960405180926040809180518452602081015160208501520151910152565b50346102d357806003193601126102d3576020601b5f5160206144205f395f51905f52540154604051908152f35b50346102d35760203660031901126102d357610fa461278a565b601a5f5160206144205f395f51905f5254019060018060a01b03165f52602052602060405f2054604051908152f35b50346102d35760203660031901126102d357600435906001600160401b0382116102d357602061100f61100936600486016128c5565b90612b85565b6040519015158152f35b50346102d357806003193601126102d3575f5160206143e05f395f51905f52546040516001600160a01b039091168152602090f35b50346102d357806003193601126102d3575f5160206144205f395f51905f52546001810180546110a45763ffffffff600283015416409081156110955755601d3a91015580f35b63f7bac7b560e01b8452600484fd5b6309476b0360e41b8352600483fd5b50346102d357806003193601126102d3575f5160206144205f395f51905f5254600601546040516001600160a01b039091168152602090f35b50346102d357806003193601126102d3576111056129ff565b50604061112260155f5160206144205f395f51905f525401612b43565b610889825180926001600160801b03602080926001600160401b038151168552015116910152565b50346102d357806003193601126102d357611163612dbc565b61116b612d87565b600160ff195f5160206144405f395f51905f525416175f5160206144405f395f51905f52557f62e78cea01bee320cd4e420270b5ea74000d11b0c9f74754ebdbfc544b05a2586020604051338152a180f35b50346102d35760203660031901126102d3576004356001600160401b038111610988576111ee9036906004016128c5565b905f5160206144205f395f51905f52549061120883612a88565b916112166040519384612835565b83835261122284612a88565b602084019490601f19013686376019869201915b81811061128b57868587604051928392602084019060208552518091526040840192915b818110611268575050500390f35b919350916020808261127d60019488516128f5565b01940191019184939261125a565b611296818386612b0b565b3587528260205260ff6040882054166112af8287612b2f565b60038210156112c15752600101611236565b634e487b7160e01b89526021600452602489fd5b50346102d357806003193601126102d3576112ee612dbc565b5f5160206144205f395f51905f5254600601546040516370a0823160e01b81523060048201526001600160a01b0390911690602081602481855afa90811561140d5783916113d7575b5080156113c85760405163a9059cbb60e01b81523360048201526024810191909152906020908290604490829086905af19081156113bd57829161138e575b501561137f5780f35b63f4d1631560e01b8152600490fd5b6113b0915060203d6020116113b6575b6113a88183612835565b810190612af3565b5f611376565b503d61139e565b6040513d84823e3d90fd5b63a1a7c6eb60e01b8352600483fd5b90506020813d602011611405575b816113f260209383612835565b8101031261140157515f611337565b8280fd5b3d91506113e5565b6040513d85823e3d90fd5b50346102d357806003193601126102d357602060035f5160206144205f395f51905f52540154604051908152f35b50346102d357806003193601126102d35761145f612dbc565b5f5160206143e05f395f51905f5280546001600160a01b0319811690915581906001600160a01b03167f8be0079c531659141344cd1fd0a4f28419497f9722a3daafe3b4186f6b6457e08280a380f35b50346102d357806003193601126102d3576114c8612dbc565b5f5160206144605f395f51905f525460ff8160401c16908115611622575b50611613575f5160206144605f395f51905f52805468ffffffffffffffffff1916680100000000000000051790555f5160206143e05f395f51905f5254611540906001600160a01b0316611538613f19565b610334613f19565b60045f5160206144205f395f51905f5254611559612def565b80516001830155600282019063ffffffff60208201511669ffffffffffff000000006040845493015160201b169169ffffffffffffffffffff1916171790558260206040516115a7816127e3565b82815201528260038201550165ffffffffffff19815416905560ff60401b195f5160206144605f395f51905f5254165f5160206144605f395f51905f52557fc7f505b2f371ae2175ee4913f4499e1f2633a7b5936321eed1cdaeb6115181d2602060405160058152a180f35b63f92ee8a960e01b8152600490fd5b600591506001600160401b031610155f6114e6565b50346102d357806003193601126102d357602060ff5f5160206144405f395f51905f5254166040519015158152f35b50346102d3576101603660031901126102d35761168161278a565b6024356001600160a01b03811691908290036114015761169f61275e565b916116a8612774565b9260c43591608435919060a43560403660e3190112611add5761012435946001600160401b038611611ad95736602387011215611ad9578560040135916001600160401b038311611ad5573660248489010111611ad557610144356001600160401b038111611ad15761171f9036906004016128c5565b9690945f5160206144605f395f51905f5254996001600160401b0360ff8c60401c16159b1680159081611ac9575b6001149081611abf575b159081611ab6575b50611aa7576117a1908b60016001600160401b03195f5160206144605f395f51905f525416175f5160206144605f395f51905f5255611a77575b611538613f19565b6117a9613f19565b6117b1613f19565b4215611a68578215611a595782821115611a4a57600a6117d18484612a35565b04841015611a3b5760409a8b918d83516117eb8582612835565b60178152602081017f726f757465722e73746f726167652e526f757465725631000000000000000000815261181e612dbc565b905190205f190190526020808f2060ff19165f5160206144205f395f51905f528190558451818152909a917f059eb9adf6e95b839d818142ed5bd5e498b6d95138e65c91525e93cc0f0339fc91a1611874612def565b805160018c015560028b0190602081015163ffffffff1686835492015160201b69ffffffffffff00000000169169ffffffffffffffffffff1916171790558351906118be826127b4565b8282526001600160a01b03908116602083018190529381169490910184905260058a018054919092166001600160a01b0319918216179091556006890180548216909217909155600788018054909116909117905570030000000000000000000000000000000260088701556119326129ff565b50895161193e816127e3565b639502f90081526509184e72a0006020909101526015860180546001600160c01b0319166d09184e72a000000000009502f900179055895183908b90611983816127b4565b83815284602082015201526016860155601785015560188401558651946119a9866127e3565b60e43586526101043560208701526119c5913691602401612871565b90429336906119d392612a9f565b91600901936119e194612e6c565b6119e9575080f35b60207fc7f505b2f371ae2175ee4913f4499e1f2633a7b5936321eed1cdaeb6115181d29160ff60401b195f5160206144605f395f51905f5254165f5160206144605f395f51905f52555160018152a180f35b63145e348f60e01b8c5260048cfd5b6353b2bbed60e01b8c5260048cfd5b63f7ba6bdb60e01b8c5260048cfd5b63b7d0949760e01b8c5260048cfd5b600160401b60ff60401b195f5160206144605f395f51905f525416175f5160206144605f395f51905f5255611799565b63f92ee8a960e01b8d5260048dfd5b9050155f61175f565b303b159150611757565b8c915061174d565b8a80fd5b8980fd5b8880fd5b8780fd5b50346102d357806003193601126102d3577f00000000000000000000000000000000000000000000000000000000000000006001600160a01b03163003611b395760206040515f5160206144005f395f51905f528152f35b63703e46dd60e11b8152600490fd5b5060403660031901126102d357611b5d61278a565b906024356001600160401b03811161098857611b7d9036906004016128a7565b6001600160a01b037f000000000000000000000000000000000000000000000000000000000000000016308114908115611d13575b50611d0457611bbf612dbc565b6040516352d1902d60e01b8152926001600160a01b0381169190602085600481865afa80958596611ccc575b50611c0457634c9c8ce360e01b84526004839052602484fd5b9091845f5160206144005f395f51905f528103611cba5750813b15611ca8575f5160206144005f395f51905f5280546001600160a01b031916821790557fbc7cd75a20ee27fd9adebab32041f755214dbc6bffa90cc0225b39da2e5c2d3b8480a28151839015611c8e5780836020611c8a95519101845af4611c846129d0565b916142ff565b5080f35b50505034611c995780f35b63b398979f60e01b8152600490fd5b634c9c8ce360e01b8452600452602483fd5b632a87526960e21b8552600452602484fd5b9095506020813d602011611cfc575b81611ce860209383612835565b81010312611cf85751945f611beb565b5f80fd5b3d9150611cdb565b63703e46dd60e11b8252600482fd5b5f5160206144005f395f51905f52546001600160a01b0316141590505f611bb2565b50346102d357806003193601126102d357611d4e612dbc565b5f5160206144405f395f51905f525460ff811615611da65760ff19165f5160206144405f395f51905f52557f5db9ee0a495bf2e6ff9c91a7834c1ba4fdd244a5e8aa4e537bd38aeae4b073aa6020604051338152a180f35b638dfc202b60e01b8252600482fd5b50346102d35760203660031901126102d357611dcf61278a565b611dd7612dbc565b5f5160206144205f395f51905f525460050180546001600160a01b0319166001600160a01b0390921691909117905580f35b50346102d357806003193601126102d357611e226129ff565b506040611e46611e415f5160206144205f395f51905f52544290613efd565b612a17565b60208251918051835201516020820152f35b50346102d35760603660031901126102d357600435611e7561275e565b611e7d612d87565b5f5160206144205f395f51905f5254600181015415610e1e578284526019810160205260ff604085205416600381101561206457600203612055578284526024356020526040842060405160608101908082106001600160401b0383111761205157605a916040527f3d605080600a3d3981f3608060405263e6fabc0960e01b5f5260205f6004817381523060601b6b5afa15604c575f80805136821760208201527f80378136915af43d5f803e156048573d5ff35b3d5ffd5b5f80fd000000000000604082015286f590811561204d576001600160a01b0382165f908152601a820160205260409020849055601b018054611f7890612dae565b90556040516001600160a01b03821680825293907f8008ec1d8798725ebfa0f2d128d52e8e717dcba6e0f786557eeee70614b02bf190602090a2506001600160a01b0381166120485750335b5f5160206144205f395f51905f5254600501546001600160a01b0316823b1561204457604051631c9776b560e31b81526001600160a01b039092166004830152602482015260016044820152828160648183865af1801561140d5761202f575b602082604051908152f35b61203a838092612835565b6109885781612024565b8380fd5b611fc4565b8480fd5b8680fd5b630e2637d160e01b8452600484fd5b634e487b7160e01b85526021600452602485fd5b50346102d357806003193601126102d35760206040516134ef8152f35b50346102d357806003193601126102d357602060015f5160206144205f395f51905f52540154604051908152f35b50346102d357806003193601126102d3576020601d5f5160206144205f395f51905f52540154604051908152f35b5060203660031901126102d357600435612109612d87565b814915612237575f5160206144205f395f51905f525460018101541561222857601d60198201910154806134ef02906134ef820403612214573410612205578183528060205260ff60408420541660038110156121f1576121e25781835260205260408220600160ff19825416179055818080803460018060a01b035f5160206143e05f395f51905f5254165af161219f6129d0565b50156121d35760207f5c261a095dd5720475295dc06379921c003c22164ee6cae5cf83e76ce0a1b98591604051908152a180f35b630f24574b60e21b8252600482fd5b6304c51a3360e31b8352600483fd5b634e487b7160e01b84526021600452602484fd5b63513ed23160e01b8352600483fd5b634e487b7160e01b84526011600452602484fd5b63580683f360e01b8352600483fd5b637bb2fa2f60e11b8252600482fd5b34611cf8576080366003190112611cf85760043561226261275e565b9061226b612774565b91612274612d87565b5f5160206144205f395f51905f525460018101541561008257825f526019810160205260ff60405f20541660038110156127205760020361271157825f5260243560205260405f206040516102c08101908082106001600160401b03831117611cf8576102b0916040527f60808060405261029e90816100128239f3fe608060405260043610610254575f81527f3560e01c806336a52a18146100ab57806342129d00146100a65780635ce6c32760208201527f146100a1578063701da98e1461009c578063704ed542146100975780637a8e0c60408201527fdd1461009257806391d5a64c1461008d5780639ce110d714610088578063affe60608201527fd0e0146100835763e43f3433036102545761023f565b610222565b6101fa565b60808201527f6101e4565b6101b1565b610181565b610165565b610143565b610106565b346160a08201527ed4575f3660031901126100d45760025460081c6001600160a01b031660809060c08201527f8152602090f35b5f80fd5b9181601f840112156100d45782359167ffffffffff60e08201527fffffff83116100d457602083818601950101116100d457565b604036600319016101008201527f126100d45760043567ffffffffffffffff81116100d4576101329036906004016101208201527f6100d8565b505060243580151514610254575f80fd5b346100d4575f366003196101408201527f01126100d457602060ff600254166040519015158152f35b346100d4575f36606101608201527f031901126100d45760205f54604051908152f35b346100d457602036600319016101808201527f126100d4576004356fffffffffffffffffffffffffffffffff811614610254576101a08201527f5f80fd5b60403660031901126100d45760243567ffffffffffffffff811161006101c08201527fd4576101dd9036906004016100d8565b5050610254565b346100d457602036606101e08201527f0319011215610254575f80fd5b346100d4575f3660031901126100d4576003546102008201527f6040516001600160a01b039091168152602090f35b346100d4575f36600319016102208201527f126100d4576020600154604051908152f35b346100d4575f36600319011215616102408201523060601c7f0254575f80fd5b63e6fabc0960e01b5f5260205f60048173000000000000000017610260820152735afa156100d4575f808051368280378136915af43060a01b176102808201526f3d5f803e1561029a573d5ff35b3d5ffd60801b6102a08201525ff5908115611cf8576001600160a01b0382165f908152601a820160205260409020849055601b01805461265090612dae565b90556040516001600160a01b03821680825293907f8008ec1d8798725ebfa0f2d128d52e8e717dcba6e0f786557eeee70614b02bf190602090a2506001600160a01b03811661270b575033915b813b15611cf857604051631c9776b560e31b81526001600160a01b039384166004820152921660248301525f604483018190528260648183855af1918215612700576020926126f0575b50604051908152f35b5f6126fa91612835565b5f6126e7565b6040513d5f823e3d90fd5b9161269d565b630e2637d160e01b5f5260045ffd5b634e487b7160e01b5f52602160045260245ffd5b34611cf8575f366003190112611cf857602090601c5f5160206144205f395f51905f525401548152f35b604435906001600160a01b0382168203611cf857565b606435906001600160a01b0382168203611cf857565b600435906001600160a01b0382168203611cf857565b35906001600160a01b0382168203611cf857565b606081019081106001600160401b038211176127cf57604052565b634e487b7160e01b5f52604160045260245ffd5b604081019081106001600160401b038211176127cf57604052565b61012081019081106001600160401b038211176127cf57604052565b608081019081106001600160401b038211176127cf57604052565b90601f801991011681019081106001600160401b038211176127cf57604052565b6001600160401b0381116127cf57601f01601f191660200190565b92919261287d82612856565b9161288b6040519384612835565b829481845281830111611cf8578281602093845f960137010152565b9080601f83011215611cf8578160206128c293359101612871565b90565b9181601f84011215611cf8578235916001600160401b038311611cf8576020808501948460051b010111611cf857565b9060038210156127205752565b805180835260209291819084018484015e5f828201840152601f01601f1916010190565b90602080835192838152019201905f5b8181106129435750505090565b82516001600160a01b0316845260209384019390920191600101612936565b9060208251805183520151602082015260018060a01b036020830151166040820152608060606129a0604085015160a08386015260a0850190612926565b93015191015290565b818102929181159184041417156129bc57565b634e487b7160e01b5f52601160045260245ffd5b3d156129fa573d906129e182612856565b916129ef6040519384612835565b82523d5f602084013e565b606090565b60405190612a0c826127e3565b5f6020838281520152565b90604051612a24816127e3565b602060018294805484520154910152565b919082039182116129bc57565b8115612a4c570490565b634e487b7160e01b5f52601260045260245ffd5b9190826040910312611cf857604051612a78816127e3565b6020808294803584520135910152565b6001600160401b0381116127cf5760051b60200190565b929190612aab81612a88565b93612ab96040519586612835565b602085838152019160051b8101928311611cf857905b828210612adb57505050565b60208091612ae8846127a0565b815201910190612acf565b90816020910312611cf857518015158103611cf85790565b9190811015612b1b5760051b0190565b634e487b7160e01b5f52603260045260245ffd5b8051821015612b1b5760209160051b010190565b90604051612b50816127e3565b91546001600160401b038116835260401c6001600160801b03166020830152565b356001600160a01b0381168103611cf85790565b612b9e5f5160206144205f395f51905f52544290613efd565b600301905f5b838110612bb45750505050600190565b612bc2610960828685612b0b565b6001600160a01b03165f9081526020849052604090205460ff1615612be957600101612ba4565b505050505f90565b60405190612bfe826127b4565b5f6040838281528260208201520152565b90604051612c1c816127b4565b60406002829480548452600181015460208501520154910152565b3560ff81168103611cf85790565b3565ffffffffffff81168103611cf85790565b60405190612c658261281a565b5f606083604051612c75816127e3565b83815283602082015281528260208201528160408201520152565b60405190612c9d8261281a565b815f81525f6020820152612caf612c58565b60408201526060612cbe612c58565b910152565b90604051918281549182825260208201905f5260205f20925f5b818110612cf4575050612cf292500383612835565b565b84546001600160a01b0316835260019485019487945060209093019201612cdd565b6001600160a01b03168015612d74575f5160206143e05f395f51905f5280546001600160a01b0319811683179091556001600160a01b03167f8be0079c531659141344cd1fd0a4f28419497f9722a3daafe3b4186f6b6457e05f80a3565b631e4fbdf760e01b5f525f60045260245ffd5b60ff5f5160206144405f395f51905f525416612d9f57565b63d93c066560e01b5f5260045ffd5b5f1981146129bc5760010190565b5f5160206143e05f395f51905f52546001600160a01b03163303612ddc57565b63118cdaa760e01b5f523360045260245ffd5b612df7612bf1565b5063ffffffff4311612e545765ffffffffffff4211612e3c57604051612e1c816127b4565b5f815263ffffffff4316602082015265ffffffffffff4216604082015290565b6306dfcc6560e41b5f5260306004524260245260445ffd5b6306dfcc6560e41b5f5260206004524360245260445ffd5b9291908051906020810191825170014551231950b75fc4402da1732fc9bebe198210918261302d575b50501561301e5751845551600184015580518060401b6bfe61000180600a3d393df3000161fffe8211830152600b8101601583015ff091821561301157526002830180546001600160a01b0319166001600160a01b039092169190911790555f5b600483018054821015612f34575f90815260208082208301546001600160a01b0316825260038501905260409020805460ff19169055600101612ef6565b5050925f5b8451811015612f7d576001906001600160a01b03612f578288612b2f565b5116828060a01b03165f526003840160205260405f208260ff1982541617905501612f39565b5092600482018151916001600160401b0383116127cf57600160401b83116127cf578154838355808410612fe7575b50602001905f5260205f205f5b838110612fca575050505060050155565b82516001600160a01b031681830155602090920191600101612fb9565b825f52838060205f20019103905f5b828110613004575050612fac565b5f82820155600101612ff6565b63301164255f526004601cfd5b63375f0aab60e11b5f5260045ffd5b61303792506142dc565b5f80612e95565b435f19810193929084116129bc5760ff1643811061308e57505f925b8381101561306a575b505f925050565b804082810361307c5750600193505050565b15613089575f190161305a565b613063565b6130989043612a35565b9261305a565b903590601e1981360301821215611cf857018035906001600160401b038211611cf857602001918160051b36038313611cf857565b906080810160016130e4828461309e565b905011613579576130f5818361309e565b905015613552576131059161309e565b15612b1b57803590603e1981360301821215611cf8570191613127838061309e565b9190928260051b93838504602014841517156129bc5761314985969495613f79565b925f945f97601a60fe19853603019501965b888a101561350a578960051b85013586811215611cf857850161317d81612b71565b6001600160a01b03165f90815260208a9052604090205415610064575f608082016001600160801b036131af82613f44565b161515806134f7575b6134e6575b6001600160a01b036131ce84612b71565b604051630427a21d60e11b81526020600482015294911691610124850191906001600160801b039061324d906001600160a01b0361320b856127a0565b1660248901526020840135604489015261322760408501613f58565b151560648901526001600160a01b03613242606086016127a0565b166084890152613f65565b1660a486015261325f60a08201613f58565b151560c486015236819003601e190160c082013581811215611cf8578201602081359101936001600160401b038211611cf8576060820236038513611cf857819061010060e48a015252610144870193905f905b80821061349c5750505060e082013590811215611cf85701803560208201926001600160401b038211611cf8578160051b908136038513611cf85791879594936023198785030161010488015281845260208085019385010194935f9160fe19813603015b84841061338f5750505050505050602093916001600160801b03848093039316905af1908115612700575f9161335d575b50816020916001938a01520199019861315b565b90506020813d8211613387575b8161337760209383612835565b81010312611cf857516001613349565b3d915061336a565b919395979850919395601f19848203018752873582811215611cf8578301602081013582526001600160a01b036133c8604083016127a0565b1660208301526060810135603e193683900301811215611cf8578101602081013591906040016001600160401b038311611cf8578236038113611cf857829060e060408601528160e08601526101008501375f61010083850101526001600160801b0361343760808301613f65565b16606084015260a0810135608084015260c081013563ffffffff60e01b8116809103611cf8578360209361347960e086956101009560a060019a015201613f58565b151560c0830152601f80199101160101990197019401918a989796959391613318565b90919460608060019288358152838060a01b036134bb60208b016127a0565b1660208201526001600160801b036134d560408b01613f65565b1660408201520196019201906132b3565b90506134f181613f44565b906131bd565b5061350460a084016135bd565b156131b8565b5094935095509550506020925020910135907fd04cd9af813f6f0b56e9411a6ee6a84eb5ac35a96f0c33d2e3a07d65baa8f4186020604051848152a15f5260205260405f2090565b5050507fc5d2460186f7233c927e7db2dcc703c0e500b653ca82273b7bfad8045d85a47090565b6306d6c38360e01b5f5260045ffd5b903590601e1981360301821215611cf857018035906001600160401b038211611cf857602001918160061b36038313611cf857565b358015158103611cf85790565b903590605e1981360301821215611cf8570190565b919082018092116129bc57565b60c0820160016135fc828561309e565b90501161399c5761360d818461309e565b9050156135525761361e908361309e565b15612b1b57803590607e1981360301821215611cf85701916060830190602061364683612c45565b91019065ffffffffffff8061365a84612c45565b169116101561398d5761366c82612c45565b65ffffffffffff80600286015460201c1691161061397e576136b265ffffffffffff6136ab6136a58261369e87612c45565b1687613f9e565b93612c45565b1684613f9e565b111561396f576007820154600690920180548435946001600160a01b0394851694604082019391925f9160209161372d91166136fa836136f289896135ca565b01358b6135df565b60405163095ea7b360e01b81526001600160a01b038b166004820152602481019190915293849283919082906044820190565b03925af1908115612700575f91613950575b5015613941575460405163394f179b60e11b81526001600160a01b03909116600482015260248101959095526020818101356044870152856064815f885af1948515612700575f95613909575b5090613797916135ca565b916137a182612c45565b9260405193637fbe95b560e01b85526040600486015260a48501918035601e1982360301811215611cf8578101602081359101936001600160401b038211611cf8578160061b36038513611cf85760606044890152819052869360c485019392915f5b8181106138d157505050836020959365ffffffffffff829484895f960135606486015261383a604060018060a01b0392016127a0565b16608485015216602483015203925af1918215612700575f9261389b575b5061386290612c45565b6040519160208301938452604083015265ffffffffffff60d01b9060d01b16606082015260468152613895606682612835565b51902090565b9091506020813d6020116138c9575b816138b760209383612835565b81010312611cf8575190613862613858565b3d91506138aa565b919550919293604080600192838060a01b036138ec8a6127a0565b168152602089013560208201520196019101918895949392613804565b919094506020823d602011613939575b8161392660209383612835565b81010312611cf85790519361379761378c565b3d9150613919565b6367b9145160e01b5f5260045ffd5b613969915060203d6020116113b6576113a88183612835565b5f61373f565b6308027f7760e31b5f5260045ffd5b637bde91e760e11b5f5260045ffd5b63087a19ab60e41b5f5260045ffd5b633249ceed60e11b5f5260045ffd5b903590601e1981360301821215611cf857018035906001600160401b038211611cf857602001918136038313611cf857565b9060e0810160016139ee828461309e565b905011613c51576139ff818361309e565b90501561355257613a0f9161309e565b15612b1b57803590609e1981360301821215611cf857016060810190613a35828261309e565b905015613c425765ffffffffffff600284015460201c1691613a578342612a35565b613a6660168601548092612a42565b93608084013594600181018091116129bc578503613c3357613a8b85613a91936129a9565b906135df565b93613aa0601782015486612a35565b4210613c2457613aaf90613fc6565b934260058601541015613c1557613b04906040840195613af6613afe613ad589886139ab565b9190613ae1888a61309e565b949091613aee368c612a60565b943691612871565b933691612a9f565b92612e6c565b7fa1a3b42179ad30022438a1ea333b38eaf4a7329beee5e2b8111c0dcd4e08821c6020604051858152a160a082360312611cf85760405193613b458561281a565b613b4f3684612a60565b8552356001600160401b038111611cf857613b6d90369084016128a7565b602085015235906001600160401b038211611cf8570136601f82011215611cf857613b9f903690602081359101612a9f565b91826040820152816060820152519160208351930151906040519283926020840195865260408401526060830160208351919301905f5b818110613bf3575050508152038082526138959060200182612835565b82516001600160a01b0316855286955060209485019490920191600101613bd6565b6333fc8f5160e21b5f5260045ffd5b6372a84ce560e11b5f5260045ffd5b6343d3f5bf60e01b5f5260045ffd5b636c2bf3db60e01b5f5260045ffd5b631d3fc6bf60e21b5f5260045ffd5b909493919365ffffffffffff600283015460201c16613c7f4284613f9e565b613c97613c91601686015480936129a9565b836135df565b918284108080613ebc575b15613e8a57508310613e7c57613cb890836135df565b10613e6d57613cc8905b82613efd565b94601960f81b5f523060601b60025260165260365f209360028110156127205780613d5957505060018103613d4a5715612b1b57613d0981613d10926139ab565b3691612871565b916060835103613d3b578260206128c294015160606040830151920151926001815491015490613fe1565b632ce466bf60e01b5f5260045ffd5b6360a1ea7760e01b5f5260045ffd5b919391600114613d6c5750505050505f90565b613d9190600860048796970154910154906001600160801b038260801c921690613ed2565b925f9260035f9201915b86811015613e6257613dca613dc1613dbb613d098460051b8601866139ab565b86614242565b9092919261427c565b6001600160a01b0381165f9081526020859052604090205460ff16613df5575b506001905b01613d9b565b6001600160a01b03165f9081527ff02b465737fa6045c2ff53fb2df43c66916ac2166fa303264668fb2f6a1d8c0060205260409020805c15613e3a5750600190613def565b946001613e4892965d612dae565b93858514613e56575f613dea565b50505050505050600190565b505050505050505f90565b63046bb1e560e51b5f5260045ffd5b62f4462b60e01b5f5260045ffd5b9392915050428211613ead57613cc892613ea5575b50613cc2565b90505f613e9f565b6347860b9760e01b5f5260045ffd5b50613ecb6018870154856135df565b4210613ca2565b6001600160801b03809216029116613eea8183612a42565b918115612a4c5706156128c25760010190565b90613f0890826141e2565b15613f1357600f0190565b60090190565b60ff5f5160206144605f395f51905f525460401c1615613f3557565b631afcd79f60e31b5f5260045ffd5b356001600160801b0381168103611cf85790565b35908115158203611cf857565b35906001600160801b0382168203611cf857565b6040519190601f01601f191682016001600160401b03811183821017611cf857604052565b6016613fbd6128c29365ffffffffffff600285015460201c1690612a35565b91015490612a42565b613fd042826141e2565b15613fdb5760090190565b600f0190565b9293919490613ff085876142dc565b156141835782156141835770014551231950b75fc4402da1732fc9bebe19831015614183576001169061010e61402581613f79565b9160883684376002600188160160888401538760898401526002840160a984015360aa830186905260ca8301527e300046524f53542d736563703235366b312d4b454343414b3235362d76316360ea8301526303430b6160e51b61010a830152812060cc820181815290600260ec84016001815360428420809318845253604270014551231950b75fc4402da1732fc9bebe19922060801c6001600160401b0360801b8260801b16179070014551231950b75fc4402da1732fc9bebe1990600160c01b9060401c09088015613e625784601b6080945f9660209870014551231950b75fc4402da1732fc9bebe19910970014551231950b75fc4402da1732fc9bebe19038552018684015280604084015270014551231950b75fc4402da1732fc9bebe19910970014551231950b75fc4402da1732fc9bebe1903606082015282805260015afa505f51915f5260205260018060a01b0360405f20161490565b5050505050505f90565b614195612c58565b50600281015460058201546040519290916141d5916004916001600160a01b03166141bf8661281a565b6141c882612a17565b8652602086015201612cc3565b6040830152606082015290565b906014600e8301549201548083146142335781818410931191821591111591819061422c575b1561421d578261421757505090565b14919050565b634c38ae9560e11b5f5260045ffd5b5081614208565b63f26224af60e01b5f5260045ffd5b81519190604183036142725761426b9250602082015190606060408401519301515f1a9061435d565b9192909190565b50505f9160029190565b6004811015612720578061428e575050565b600181036142a55763f645eedf60e01b5f5260045ffd5b600281036142c0575063fce698f760e01b5f5260045260245ffd5b6003146142ca5750565b6335e2f38360e21b5f5260045260245ffd5b6401000003d01990600790829081818009900908906401000003d0199080091490565b90614323575080511561431457602081519101fd5b63d6bda27560e01b5f5260045ffd5b81511580614354575b614334575090565b639996b31560e01b5f9081526001600160a01b0391909116600452602490fd5b50803b1561432c565b91907f7fffffffffffffffffffffffffffffff5d576e7357a4501ddfe92f46681b20a084116143d4579160209360809260ff5f9560405194855216868401526040830152606082015282805260015afa15612700575f516001600160a01b038116156143ca57905f905f90565b505f906001905f90565b5050505f916003919056fe9016d09d72d40fdae2fd8ceac6b6234c7706214fd39c1cd1e609a0528c199300360894a13ba1a3210667c828492db98dca3e2076cc3735a920a3ca505d382bbc5c09ca1b9b8127a4fd9f3c384aac59b661441e820e17733753ff5f2e86e1e000cd5ed15c6e187e77e9aee88184c21f4f2182ab5827cb3b7e07fbedcd63f03300f0c57e16840df040f15088dc2f81fe391c3923bec73e23a9662efc9c229c6a00f0c57e16840df040f15088dc2f81fe391c3923bec73e23a9662efc9c229c6a00","linkReferences":{}},"methodIdentifiers":{"CODE_COMMITMENT_GAS()":"31228ab6","UPGRADE_INTERFACE_VERSION()":"ad3cb1cc","areValidators(address[])":"8f381dbe","codeState(bytes32)":"c13911e8","codesStates(bytes32[])":"82bdeaad","commitBatch((bytes32,uint48,bytes32,uint8,((address,bytes32,bool,address,uint128,bool,(bytes32,address,uint128)[],(bytes32,address,bytes,uint128,(bytes32,bytes4),bool)[])[],bytes32)[],(bytes32,bool)[],((uint256,bytes32),((address,uint256)[],uint256,address),uint48)[],((uint256,uint256),bytes,address[],uint256)[]),uint8,bytes[])":"b24fcac0","computeSettings()":"84d22a4f","createProgram(bytes32,bytes32,address)":"3683c4d2","createProgramWithAbiInterface(bytes32,bytes32,address,address)":"0c18d277","genesisBlockHash()":"28e24b3d","genesisTimestamp()":"cacf66ab","initialize(address,address,address,address,uint256,uint256,uint256,(uint256,uint256),bytes,address[])":"53f7fd48","isValidator(address)":"facd743b","latestCommittedBatchHash()":"71a8cf2d","latestCommittedBatchTimestamp()":"d456fd51","latestGasPrice()":"22f86f0b","lookupGenesisHash()":"8b1edf1e","middleware()":"f4f20ac0","mirrorImpl()":"e6fabc09","owner()":"8da5cb5b","pause()":"8456cb59","paused()":"5c975abb","programCodeId(address)":"9067088e","programsCodeIds(address[])":"baaf0201","programsCount()":"96a2ddfa","proxiableUUID()":"52d1902d","reinitialize()":"6c2eb350","renounceOwnership()":"715018a6","requestCodeValidation(bytes32)":"120e3f1e","setMirror(address)":"3d43b418","signingThresholdFraction()":"e3a6684f","storageView()":"c2eb812f","timelines()":"9eb939a8","transferOwnership(address)":"f2fde38b","unpause()":"3f4ba83a","upgradeToAndCall(address,bytes)":"4f1ef286","validatedCodesCount()":"007a32e7","validators()":"ca1e7819","validatorsAggregatedPublicKey()":"3bd109fa","validatorsCount()":"ed612f8c","validatorsThreshold()":"edc87225","validatorsVerifiableSecretSharingCommitment()":"a5d53a44","withdrawExecutableBalance()":"734a29a9","wrappedVara()":"88f50cf0"},"storageLayout":{"storage":[],"types":{}},"id":165}