{"abi":[{"type":"constructor","inputs":[],"stateMutability":"nonpayable"},{"type":"receive","stateMutability":"payable"},{"type":"function","name":"DOMAIN_SEPARATOR","inputs":[],"outputs":[{"name":"","type":"bytes32","internalType":"bytes32"}],"stateMutability":"view"},{"type":"function","name":"UPGRADE_INTERFACE_VERSION","inputs":[],"outputs":[{"name":"","type":"string","internalType":"string"}],"stateMutability":"view"},{"type":"function","name":"areValidators","inputs":[{"name":"_validators","type":"address[]","internalType":"address[]"}],"outputs":[{"name":"","type":"bool","internalType":"bool"}],"stateMutability":"view"},{"type":"function","name":"codeState","inputs":[{"name":"_codeId","type":"bytes32","internalType":"bytes32"}],"outputs":[{"name":"","type":"uint8","internalType":"enum Gear.CodeState"}],"stateMutability":"view"},{"type":"function","name":"codesStates","inputs":[{"name":"_codesIds","type":"bytes32[]","internalType":"bytes32[]"}],"outputs":[{"name":"","type":"uint8[]","internalType":"enum Gear.CodeState[]"}],"stateMutability":"view"},{"type":"function","name":"commitBatch","inputs":[{"name":"_hasAggregatedPublicKey","type":"bool","internalType":"bool"},{"name":"_batch","type":"tuple","internalType":"struct Gear.BatchCommitment","components":[{"name":"blockHash","type":"bytes32","internalType":"bytes32"},{"name":"blockTimestamp","type":"uint48","internalType":"uint48"},{"name":"previousCommittedBatchHash","type":"bytes32","internalType":"bytes32"},{"name":"expiry","type":"uint8","internalType":"uint8"},{"name":"chainCommitment","type":"tuple[]","internalType":"struct Gear.ChainCommitment[]","components":[{"name":"transitions","type":"tuple[]","internalType":"struct Gear.StateTransition[]","components":[{"name":"actorId","type":"address","internalType":"address"},{"name":"newStateHash","type":"bytes32","internalType":"bytes32"},{"name":"exited","type":"bool","internalType":"bool"},{"name":"inheritor","type":"address","internalType":"address"},{"name":"valueToReceive","type":"uint128","internalType":"uint128"},{"name":"valueToReceiveNegativeSign","type":"bool","internalType":"bool"},{"name":"valueClaims","type":"tuple[]","internalType":"struct Gear.ValueClaim[]","components":[{"name":"messageId","type":"bytes32","internalType":"bytes32"},{"name":"destination","type":"address","internalType":"address"},{"name":"value","type":"uint128","internalType":"uint128"}]},{"name":"messages","type":"tuple[]","internalType":"struct Gear.Message[]","components":[{"name":"id","type":"bytes32","internalType":"bytes32"},{"name":"destination","type":"address","internalType":"address"},{"name":"payload","type":"bytes","internalType":"bytes"},{"name":"value","type":"uint128","internalType":"uint128"},{"name":"replyDetails","type":"tuple","internalType":"struct Gear.ReplyDetails","components":[{"name":"to","type":"bytes32","internalType":"bytes32"},{"name":"code","type":"bytes4","internalType":"bytes4"}]},{"name":"call","type":"bool","internalType":"bool"}]}]},{"name":"head","type":"bytes32","internalType":"bytes32"}]},{"name":"codeCommitments","type":"tuple[]","internalType":"struct Gear.CodeCommitment[]","components":[{"name":"id","type":"bytes32","internalType":"bytes32"},{"name":"valid","type":"bool","internalType":"bool"}]},{"name":"rewardsCommitment","type":"tuple[]","internalType":"struct Gear.RewardsCommitment[]","components":[{"name":"operators","type":"tuple","internalType":"struct Gear.OperatorRewardsCommitment","components":[{"name":"amount","type":"uint256","internalType":"uint256"},{"name":"root","type":"bytes32","internalType":"bytes32"}]},{"name":"stakers","type":"tuple","internalType":"struct Gear.StakerRewardsCommitment","components":[{"name":"distribution","type":"tuple[]","internalType":"struct Gear.StakerRewards[]","components":[{"name":"vault","type":"address","internalType":"address"},{"name":"amount","type":"uint256","internalType":"uint256"}]},{"name":"totalAmount","type":"uint256","internalType":"uint256"},{"name":"token","type":"address","internalType":"address"}]},{"name":"timestamp","type":"uint48","internalType":"uint48"}]},{"name":"validatorsCommitment","type":"tuple[]","internalType":"struct Gear.ValidatorsCommitment[]","components":[{"name":"aggregatedPublicKey","type":"tuple","internalType":"struct Gear.AggregatedPublicKey","components":[{"name":"x","type":"uint256","internalType":"uint256"},{"name":"y","type":"uint256","internalType":"uint256"}]},{"name":"verifiableSecretSharingCommitment","type":"bytes","internalType":"bytes"},{"name":"validators","type":"address[]","internalType":"address[]"},{"name":"eraIndex","type":"uint256","internalType":"uint256"}]}]},{"name":"_signatureType","type":"uint8","internalType":"enum Gear.SignatureType"},{"name":"_signatures","type":"bytes[]","internalType":"bytes[]"}],"outputs":[],"stateMutability":"nonpayable"},{"type":"function","name":"computeSettings","inputs":[],"outputs":[{"name":"","type":"tuple","internalType":"struct Gear.ComputationSettings","components":[{"name":"threshold","type":"uint64","internalType":"uint64"},{"name":"wvaraPerSecond","type":"uint128","internalType":"uint128"}]}],"stateMutability":"view"},{"type":"function","name":"createProgram","inputs":[{"name":"_codeId","type":"bytes32","internalType":"bytes32"},{"name":"_salt","type":"bytes32","internalType":"bytes32"},{"name":"_overrideInitializer","type":"address","internalType":"address"}],"outputs":[{"name":"","type":"address","internalType":"address"}],"stateMutability":"nonpayable"},{"type":"function","name":"createProgramWithAbiInterface","inputs":[{"name":"_codeId","type":"bytes32","internalType":"bytes32"},{"name":"_salt","type":"bytes32","internalType":"bytes32"},{"name":"_overrideInitializer","type":"address","internalType":"address"},{"name":"_abiInterface","type":"address","internalType":"address"}],"outputs":[{"name":"","type":"address","internalType":"address"}],"stateMutability":"nonpayable"},{"type":"function","name":"createProgramWithAbiInterfaceAndExecutableBalance","inputs":[{"name":"_codeId","type":"bytes32","internalType":"bytes32"},{"name":"_salt","type":"bytes32","internalType":"bytes32"},{"name":"_overrideInitializer","type":"address","internalType":"address"},{"name":"_abiInterface","type":"address","internalType":"address"},{"name":"_initialExecutableBalance","type":"uint128","internalType":"uint128"},{"name":"_deadline","type":"uint256","internalType":"uint256"},{"name":"_v","type":"uint8","internalType":"uint8"},{"name":"_r","type":"bytes32","internalType":"bytes32"},{"name":"_s","type":"bytes32","internalType":"bytes32"}],"outputs":[{"name":"","type":"address","internalType":"address"}],"stateMutability":"nonpayable"},{"type":"function","name":"createProgramWithExecutableBalance","inputs":[{"name":"_codeId","type":"bytes32","internalType":"bytes32"},{"name":"_salt","type":"bytes32","internalType":"bytes32"},{"name":"_overrideInitializer","type":"address","internalType":"address"},{"name":"_initialExecutableBalance","type":"uint128","internalType":"uint128"},{"name":"_deadline","type":"uint256","internalType":"uint256"},{"name":"_v","type":"uint8","internalType":"uint8"},{"name":"_r","type":"bytes32","internalType":"bytes32"},{"name":"_s","type":"bytes32","internalType":"bytes32"}],"outputs":[{"name":"","type":"address","internalType":"address"}],"stateMutability":"nonpayable"},{"type":"function","name":"eip712Domain","inputs":[],"outputs":[{"name":"fields","type":"bytes1","internalType":"bytes1"},{"name":"name","type":"string","internalType":"string"},{"name":"version","type":"string","internalType":"string"},{"name":"chainId","type":"uint256","internalType":"uint256"},{"name":"verifyingContract","type":"address","internalType":"address"},{"name":"salt","type":"bytes32","internalType":"bytes32"},{"name":"extensions","type":"uint256[]","internalType":"uint256[]"}],"stateMutability":"view"},{"type":"function","name":"genesisBlockHash","inputs":[],"outputs":[{"name":"","type":"bytes32","internalType":"bytes32"}],"stateMutability":"view"},{"type":"function","name":"genesisTimestamp","inputs":[],"outputs":[{"name":"","type":"uint48","internalType":"uint48"}],"stateMutability":"view"},{"type":"function","name":"initialize","inputs":[{"name":"_owner","type":"address","internalType":"address"},{"name":"_mirror","type":"address","internalType":"address"},{"name":"_wrappedVara","type":"address","internalType":"address"},{"name":"_middleware","type":"address","internalType":"address"},{"name":"_eraDuration","type":"uint256","internalType":"uint256"},{"name":"_electionDuration","type":"uint256","internalType":"uint256"},{"name":"_validationDelay","type":"uint256","internalType":"uint256"},{"name":"_aggregatedPublicKey","type":"tuple","internalType":"struct Gear.AggregatedPublicKey","components":[{"name":"x","type":"uint256","internalType":"uint256"},{"name":"y","type":"uint256","internalType":"uint256"}]},{"name":"_verifiableSecretSharingCommitment","type":"bytes","internalType":"bytes"},{"name":"_validators","type":"address[]","internalType":"address[]"}],"outputs":[],"stateMutability":"nonpayable"},{"type":"function","name":"isValidator","inputs":[{"name":"_validator","type":"address","internalType":"address"}],"outputs":[{"name":"","type":"bool","internalType":"bool"}],"stateMutability":"view"},{"type":"function","name":"latestCommittedBatchHash","inputs":[],"outputs":[{"name":"","type":"bytes32","internalType":"bytes32"}],"stateMutability":"view"},{"type":"function","name":"latestCommittedBatchTimestamp","inputs":[],"outputs":[{"name":"","type":"uint48","internalType":"uint48"}],"stateMutability":"view"},{"type":"function","name":"lookupGenesisHash","inputs":[],"outputs":[],"stateMutability":"nonpayable"},{"type":"function","name":"middleware","inputs":[],"outputs":[{"name":"","type":"address","internalType":"address"}],"stateMutability":"view"},{"type":"function","name":"mirrorImpl","inputs":[],"outputs":[{"name":"","type":"address","internalType":"address"}],"stateMutability":"view"},{"type":"function","name":"nonces","inputs":[{"name":"owner","type":"address","internalType":"address"}],"outputs":[{"name":"","type":"uint256","internalType":"uint256"}],"stateMutability":"view"},{"type":"function","name":"owner","inputs":[],"outputs":[{"name":"","type":"address","internalType":"address"}],"stateMutability":"view"},{"type":"function","name":"pause","inputs":[],"outputs":[],"stateMutability":"nonpayable"},{"type":"function","name":"paused","inputs":[],"outputs":[{"name":"","type":"bool","internalType":"bool"}],"stateMutability":"view"},{"type":"function","name":"programCodeId","inputs":[{"name":"_programId","type":"address","internalType":"address"}],"outputs":[{"name":"","type":"bytes32","internalType":"bytes32"}],"stateMutability":"view"},{"type":"function","name":"programsCodeIds","inputs":[{"name":"_programsIds","type":"address[]","internalType":"address[]"}],"outputs":[{"name":"","type":"bytes32[]","internalType":"bytes32[]"}],"stateMutability":"view"},{"type":"function","name":"programsCount","inputs":[],"outputs":[{"name":"","type":"uint256","internalType":"uint256"}],"stateMutability":"view"},{"type":"function","name":"proxiableUUID","inputs":[],"outputs":[{"name":"","type":"bytes32","internalType":"bytes32"}],"stateMutability":"view"},{"type":"function","name":"reinitialize","inputs":[],"outputs":[],"stateMutability":"nonpayable"},{"type":"function","name":"renounceOwnership","inputs":[],"outputs":[],"stateMutability":"nonpayable"},{"type":"function","name":"requestCodeValidation","inputs":[{"name":"_codeId","type":"bytes32","internalType":"bytes32"},{"name":"_deadline","type":"uint256","internalType":"uint256"},{"name":"_v","type":"uint8","internalType":"uint8"},{"name":"_r","type":"bytes32","internalType":"bytes32"},{"name":"_s","type":"bytes32","internalType":"bytes32"}],"outputs":[],"stateMutability":"nonpayable"},{"type":"function","name":"requestCodeValidationBaseFee","inputs":[],"outputs":[{"name":"","type":"uint256","internalType":"uint256"}],"stateMutability":"view"},{"type":"function","name":"requestCodeValidationExtraFee","inputs":[],"outputs":[{"name":"","type":"uint256","internalType":"uint256"}],"stateMutability":"view"},{"type":"function","name":"requestCodeValidationOnBehalf","inputs":[{"name":"_requester","type":"address","internalType":"address"},{"name":"_codeId","type":"bytes32","internalType":"bytes32"},{"name":"_blobHashes","type":"bytes32[]","internalType":"bytes32[]"},{"name":"_deadline","type":"uint256","internalType":"uint256"},{"name":"_v1","type":"uint8","internalType":"uint8"},{"name":"_r1","type":"bytes32","internalType":"bytes32"},{"name":"_s1","type":"bytes32","internalType":"bytes32"},{"name":"_v2","type":"uint8","internalType":"uint8"},{"name":"_r2","type":"bytes32","internalType":"bytes32"},{"name":"_s2","type":"bytes32","internalType":"bytes32"}],"outputs":[],"stateMutability":"nonpayable"},{"type":"function","name":"setMirror","inputs":[{"name":"newMirror","type":"address","internalType":"address"}],"outputs":[],"stateMutability":"nonpayable"},{"type":"function","name":"setRequestCodeValidationBaseFee","inputs":[{"name":"newBaseFee","type":"uint256","internalType":"uint256"}],"outputs":[],"stateMutability":"nonpayable"},{"type":"function","name":"setRequestCodeValidationExtraFee","inputs":[{"name":"newExtraFee","type":"uint256","internalType":"uint256"}],"outputs":[],"stateMutability":"nonpayable"},{"type":"function","name":"signingThresholdFraction","inputs":[],"outputs":[{"name":"thresholdNumerator","type":"uint128","internalType":"uint128"},{"name":"thresholdDenominator","type":"uint128","internalType":"uint128"}],"stateMutability":"view"},{"type":"function","name":"storageView","inputs":[],"outputs":[{"name":"","type":"tuple","internalType":"struct IRouter.StorageView","components":[{"name":"genesisBlock","type":"tuple","internalType":"struct Gear.GenesisBlockInfo","components":[{"name":"hash","type":"bytes32","internalType":"bytes32"},{"name":"number","type":"uint32","internalType":"uint32"},{"name":"timestamp","type":"uint48","internalType":"uint48"}]},{"name":"latestCommittedBatch","type":"tuple","internalType":"struct Gear.CommittedBatchInfo","components":[{"name":"hash","type":"bytes32","internalType":"bytes32"},{"name":"timestamp","type":"uint48","internalType":"uint48"}]},{"name":"implAddresses","type":"tuple","internalType":"struct Gear.AddressBook","components":[{"name":"mirror","type":"address","internalType":"address"},{"name":"wrappedVara","type":"address","internalType":"address"},{"name":"middleware","type":"address","internalType":"address"}]},{"name":"validationSettings","type":"tuple","internalType":"struct Gear.ValidationSettingsView","components":[{"name":"thresholdNumerator","type":"uint128","internalType":"uint128"},{"name":"thresholdDenominator","type":"uint128","internalType":"uint128"},{"name":"validators0","type":"tuple","internalType":"struct Gear.ValidatorsView","components":[{"name":"aggregatedPublicKey","type":"tuple","internalType":"struct Gear.AggregatedPublicKey","components":[{"name":"x","type":"uint256","internalType":"uint256"},{"name":"y","type":"uint256","internalType":"uint256"}]},{"name":"verifiableSecretSharingCommitmentPointer","type":"address","internalType":"address"},{"name":"list","type":"address[]","internalType":"address[]"},{"name":"useFromTimestamp","type":"uint256","internalType":"uint256"}]},{"name":"validators1","type":"tuple","internalType":"struct Gear.ValidatorsView","components":[{"name":"aggregatedPublicKey","type":"tuple","internalType":"struct Gear.AggregatedPublicKey","components":[{"name":"x","type":"uint256","internalType":"uint256"},{"name":"y","type":"uint256","internalType":"uint256"}]},{"name":"verifiableSecretSharingCommitmentPointer","type":"address","internalType":"address"},{"name":"list","type":"address[]","internalType":"address[]"},{"name":"useFromTimestamp","type":"uint256","internalType":"uint256"}]}]},{"name":"computeSettings","type":"tuple","internalType":"struct Gear.ComputationSettings","components":[{"name":"threshold","type":"uint64","internalType":"uint64"},{"name":"wvaraPerSecond","type":"uint128","internalType":"uint128"}]},{"name":"timelines","type":"tuple","internalType":"struct Gear.Timelines","components":[{"name":"era","type":"uint256","internalType":"uint256"},{"name":"election","type":"uint256","internalType":"uint256"},{"name":"validationDelay","type":"uint256","internalType":"uint256"}]},{"name":"programsCount","type":"uint256","internalType":"uint256"},{"name":"validatedCodesCount","type":"uint256","internalType":"uint256"},{"name":"maxValidators","type":"uint16","internalType":"uint16"},{"name":"requestCodeValidationBaseFee","type":"uint256","internalType":"uint256"},{"name":"requestCodeValidationExtraFee","type":"uint256","internalType":"uint256"}]}],"stateMutability":"view"},{"type":"function","name":"timelines","inputs":[],"outputs":[{"name":"","type":"tuple","internalType":"struct Gear.Timelines","components":[{"name":"era","type":"uint256","internalType":"uint256"},{"name":"election","type":"uint256","internalType":"uint256"},{"name":"validationDelay","type":"uint256","internalType":"uint256"}]}],"stateMutability":"view"},{"type":"function","name":"transferOwnership","inputs":[{"name":"newOwner","type":"address","internalType":"address"}],"outputs":[],"stateMutability":"nonpayable"},{"type":"function","name":"unpause","inputs":[],"outputs":[],"stateMutability":"nonpayable"},{"type":"function","name":"upgradeToAndCall","inputs":[{"name":"newImplementation","type":"address","internalType":"address"},{"name":"data","type":"bytes","internalType":"bytes"}],"outputs":[],"stateMutability":"payable"},{"type":"function","name":"validatedCodesCount","inputs":[],"outputs":[{"name":"","type":"uint256","internalType":"uint256"}],"stateMutability":"view"},{"type":"function","name":"validators","inputs":[],"outputs":[{"name":"","type":"address[]","internalType":"address[]"}],"stateMutability":"view"},{"type":"function","name":"validatorsAggregatedPublicKey","inputs":[],"outputs":[{"name":"","type":"tuple","internalType":"struct Gear.AggregatedPublicKey","components":[{"name":"x","type":"uint256","internalType":"uint256"},{"name":"y","type":"uint256","internalType":"uint256"}]}],"stateMutability":"view"},{"type":"function","name":"validatorsCount","inputs":[],"outputs":[{"name":"","type":"uint256","internalType":"uint256"}],"stateMutability":"view"},{"type":"function","name":"validatorsThreshold","inputs":[],"outputs":[{"name":"","type":"uint256","internalType":"uint256"}],"stateMutability":"view"},{"type":"function","name":"validatorsVerifiableSecretSharingCommitment","inputs":[],"outputs":[{"name":"","type":"bytes","internalType":"bytes"}],"stateMutability":"view"},{"type":"function","name":"wrappedVara","inputs":[],"outputs":[{"name":"","type":"address","internalType":"address"}],"stateMutability":"view"},{"type":"event","name":"AnnouncesCommitted","inputs":[{"name":"head","type":"bytes32","indexed":false,"internalType":"bytes32"}],"anonymous":false},{"type":"event","name":"BatchCommitted","inputs":[{"name":"hash","type":"bytes32","indexed":false,"internalType":"bytes32"}],"anonymous":false},{"type":"event","name":"CodeGotValidated","inputs":[{"name":"codeId","type":"bytes32","indexed":false,"internalType":"bytes32"},{"name":"valid","type":"bool","indexed":true,"internalType":"bool"}],"anonymous":false},{"type":"event","name":"CodeValidationRequested","inputs":[{"name":"codeId","type":"bytes32","indexed":false,"internalType":"bytes32"}],"anonymous":false},{"type":"event","name":"ComputationSettingsChanged","inputs":[{"name":"threshold","type":"uint64","indexed":false,"internalType":"uint64"},{"name":"wvaraPerSecond","type":"uint128","indexed":false,"internalType":"uint128"}],"anonymous":false},{"type":"event","name":"EIP712DomainChanged","inputs":[],"anonymous":false},{"type":"event","name":"Initialized","inputs":[{"name":"version","type":"uint64","indexed":false,"internalType":"uint64"}],"anonymous":false},{"type":"event","name":"OwnershipTransferred","inputs":[{"name":"previousOwner","type":"address","indexed":true,"internalType":"address"},{"name":"newOwner","type":"address","indexed":true,"internalType":"address"}],"anonymous":false},{"type":"event","name":"Paused","inputs":[{"name":"account","type":"address","indexed":false,"internalType":"address"}],"anonymous":false},{"type":"event","name":"ProgramCreated","inputs":[{"name":"actorId","type":"address","indexed":false,"internalType":"address"},{"name":"codeId","type":"bytes32","indexed":true,"internalType":"bytes32"}],"anonymous":false},{"type":"event","name":"StorageSlotChanged","inputs":[{"name":"slot","type":"bytes32","indexed":false,"internalType":"bytes32"}],"anonymous":false},{"type":"event","name":"Unpaused","inputs":[{"name":"account","type":"address","indexed":false,"internalType":"address"}],"anonymous":false},{"type":"event","name":"Upgraded","inputs":[{"name":"implementation","type":"address","indexed":true,"internalType":"address"}],"anonymous":false},{"type":"event","name":"ValidatorsCommittedForEra","inputs":[{"name":"eraIndex","type":"uint256","indexed":false,"internalType":"uint256"}],"anonymous":false},{"type":"error","name":"AddressEmptyCode","inputs":[{"name":"target","type":"address","internalType":"address"}]},{"type":"error","name":"ApproveERC20Failed","inputs":[]},{"type":"error","name":"BatchTimestampNotInPast","inputs":[]},{"type":"error","name":"BatchTimestampTooEarly","inputs":[]},{"type":"error","name":"BlobNotFound","inputs":[]},{"type":"error","name":"CodeAlreadyOnValidationOrValidated","inputs":[]},{"type":"error","name":"CodeNotValidated","inputs":[]},{"type":"error","name":"CodeValidationNotRequested","inputs":[]},{"type":"error","name":"CommitmentEraNotNext","inputs":[]},{"type":"error","name":"ECDSAInvalidSignature","inputs":[]},{"type":"error","name":"ECDSAInvalidSignatureLength","inputs":[{"name":"length","type":"uint256","internalType":"uint256"}]},{"type":"error","name":"ECDSAInvalidSignatureS","inputs":[{"name":"s","type":"bytes32","internalType":"bytes32"}]},{"type":"error","name":"ERC1967InvalidImplementation","inputs":[{"name":"implementation","type":"address","internalType":"address"}]},{"type":"error","name":"ERC1967NonPayable","inputs":[]},{"type":"error","name":"ElectionNotStarted","inputs":[]},{"type":"error","name":"EmptyValidatorsList","inputs":[]},{"type":"error","name":"EnforcedPause","inputs":[]},{"type":"error","name":"EraDurationTooShort","inputs":[]},{"type":"error","name":"ErasTimestampMustNotBeEqual","inputs":[]},{"type":"error","name":"ExpectedPause","inputs":[]},{"type":"error","name":"ExpiredSignature","inputs":[{"name":"deadline","type":"uint256","internalType":"uint256"}]},{"type":"error","name":"FailedCall","inputs":[]},{"type":"error","name":"GenesisHashAlreadySet","inputs":[]},{"type":"error","name":"GenesisHashNotFound","inputs":[]},{"type":"error","name":"InvalidAccountNonce","inputs":[{"name":"account","type":"address","internalType":"address"},{"name":"currentNonce","type":"uint256","internalType":"uint256"}]},{"type":"error","name":"InvalidBlobHash","inputs":[{"name":"index","type":"uint256","internalType":"uint256"},{"name":"providedBlobHash","type":"bytes32","internalType":"bytes32"},{"name":"expectedBlobHash","type":"bytes32","internalType":"bytes32"}]},{"type":"error","name":"InvalidBlobHashesLength","inputs":[{"name":"providedLength","type":"uint256","internalType":"uint256"},{"name":"expectedLength","type":"uint256","internalType":"uint256"}]},{"type":"error","name":"InvalidElectionDuration","inputs":[]},{"type":"error","name":"InvalidFROSTAggregatedPublicKey","inputs":[]},{"type":"error","name":"InvalidFrostSignatureCount","inputs":[]},{"type":"error","name":"InvalidFrostSignatureLength","inputs":[]},{"type":"error","name":"InvalidInitialization","inputs":[]},{"type":"error","name":"InvalidPreviousCommittedBatchHash","inputs":[]},{"type":"error","name":"InvalidSigner","inputs":[{"name":"signer","type":"address","internalType":"address"},{"name":"requester","type":"address","internalType":"address"}]},{"type":"error","name":"InvalidTimestamp","inputs":[]},{"type":"error","name":"NotInitializing","inputs":[]},{"type":"error","name":"OwnableInvalidOwner","inputs":[{"name":"owner","type":"address","internalType":"address"}]},{"type":"error","name":"OwnableUnauthorizedAccount","inputs":[{"name":"account","type":"address","internalType":"address"}]},{"type":"error","name":"PredecessorBlockNotFound","inputs":[]},{"type":"error","name":"ReentrancyGuardReentrantCall","inputs":[]},{"type":"error","name":"RewardsCommitmentEraNotPrevious","inputs":[]},{"type":"error","name":"RewardsCommitmentPredatesGenesis","inputs":[]},{"type":"error","name":"RewardsCommitmentTimestampNotInPast","inputs":[]},{"type":"error","name":"RouterGenesisHashNotInitialized","inputs":[]},{"type":"error","name":"SafeCastOverflowedUintDowncast","inputs":[{"name":"bits","type":"uint8","internalType":"uint8"},{"name":"value","type":"uint256","internalType":"uint256"}]},{"type":"error","name":"SignatureVerificationFailed","inputs":[]},{"type":"error","name":"TimestampInFuture","inputs":[]},{"type":"error","name":"TimestampOlderThanPreviousEra","inputs":[]},{"type":"error","name":"TooManyChainCommitments","inputs":[]},{"type":"error","name":"TooManyRewardsCommitments","inputs":[]},{"type":"error","name":"TooManyValidatorsCommitments","inputs":[]},{"type":"error","name":"TransferFromFailed","inputs":[]},{"type":"error","name":"UUPSUnauthorizedCallContext","inputs":[]},{"type":"error","name":"UUPSUnsupportedProxiableUUID","inputs":[{"name":"slot","type":"bytes32","internalType":"bytes32"}]},{"type":"error","name":"UnknownProgram","inputs":[]},{"type":"error","name":"ValidationBeforeGenesis","inputs":[]},{"type":"error","name":"ValidationDelayTooBig","inputs":[]},{"type":"error","name":"ValidatorsAlreadyScheduled","inputs":[]},{"type":"error","name":"ValidatorsNotFoundForTimestamp","inputs":[]},{"type":"error","name":"ZeroValueTransfer","inputs":[]}],"bytecode":{"object":"0x60a080604052346100c257306080525f516020615c485f395f51905f525460ff8160401c166100b3576002600160401b03196001600160401b03821601610060575b604051615b8190816100c78239608051818181612cfd0152612d900152f35b6001600160401b0319166001600160401b039081175f516020615c485f395f51905f525581527fc7f505b2f371ae2175ee4913f4499e1f2633a7b5936321eed1cdaeb6115181d290602090a15f80610041565b63f92ee8a960e01b5f5260045ffd5b5f80fdfe6080806040526004361015610091575b50361561001a575f80fd5b610022613c22565b5f516020615b015f395f51905f5254600181015415610082576001600160801b0334161561007357335f908152601a9190910160205260409020541561006457005b63821a62f560e01b5f5260045ffd5b63a1a7c6eb60e01b5f5260045ffd5b63580683f360e01b5f5260045ffd5b5f905f3560e01c9081627a32e7146134bb575080630b9737ce146134885780630c18d277146133bd5780630d91bf2a146131ef57806311bec80d146131bc578063188509e91461318e57806328e24b3d146131605780633644e515146131455780633683c4d2146130885780633bd109fa146130395780633d43b41814612fe55780633f4ba83a14612f655780634f1ef28614612d5157806352d1902d14612cea57806353f7fd48146123055780635c975abb146122d65780636c2eb35014611d67578063715018a614611cfe57806371a8cf2d14611cd05780637ecebe0014611c7857806382bdeaad14611b605780638456cb5914611aed57806384b0196e146119c557806384d22a4f1461196757806388f50cf01461192e5780638b1edf1e146118cf5780638c4ace6a146117605780638da5cb5b1461172b5780638f381dbe146116e55780639067088e1461169c57806396a2ddfa1461166e5780639eb939a814611617578063a5d53a441461157f578063ad3cb1cc14611536578063b3624cbd14611080578063baaf020114610f83578063c13911e814610f3f578063c2eb812f14610bb8578063ca1e781914610b68578063cacf66ab14610b30578063d456fd5114610afa578063e3a6684f14610abb578063e6fabc0914610a82578063ed612f8c14610a4a578063edc87225146109f5578063ee32004f1461080f578063f0fd702a146103b7578063f1ef31ec14610389578063f2fde38b1461035c578063f4f20ac0146103235763facd743b0361000f5734610320576020366003190112610320576102e2613511565b60036102fd5f516020615b015f395f51905f52544290615516565b019060018060a01b03165f52602052602060ff60405f2054166040519015158152f35b80fd5b50346103205780600319360112610320575f516020615b015f395f51905f5254600701546040516001600160a01b039091168152602090f35b503461032057602036600319011261032057610386610379613511565b610381613bef565b613b7e565b80f35b50346103205780600319360112610320576020601f5f516020615b015f395f51905f52540154604051908152f35b503461032057610140366003190112610320576103d2613511565b602435906044356001600160401b03811161080b576103f5903690600401613660565b90916064359060843560ff811681036108075760e4359060ff821682036108035761041e613c22565b8749156107f4575f516020615b015f395f51905f5254946001860154156107e5576019860196888a528760205260ff60408b20541660038110156107d1576107c257895b80496107b45780830361079d5750895b82811061075657508542116107425760405160208101906001600160fb1b03841161073e576104bd602082610588956105919760051b8091873781010301601f1981018352826135d0565b5190209260018060a01b03861693848c527f5ab42ced628888259c08ac98db1eb0cf702fc1501344311d8b100cd1bfe4bb0060205260408c208054906001820190556040519060208201927f375d2ef9b9e33c640a295f53873dc74833c3d019f349464ce2fe8899962b809784528760408401528d6060840152608083015260a08201528860c082015260c0815261055660e0826135d0565b5190206105616154b5565b906040519161190160f01b83526002830152602282015260c43591604260a43592206157da565b9092919261585c565b6001600160a01b031681810361072957505086906105c660018060a01b0360068701541695601f601e82015491015490613b71565b93853b156107255760405163d505accf60e01b81526001600160a01b038516600482015230602482015260448101869052606481019190915260ff9190911660848201526101043560a48201526101243560c4820152818160e48183895af1610708575b506040516323b872dd60e01b81526001600160a01b039092166004830152306024830152604482019290925291602091839190829081606481015b03925af19081156106fd5784916106ce575b50156106bf5781835260209081526040808420805460ff19166001179055519182527f5c261a095dd5720475295dc06379921c003c22164ee6cae5cf83e76ce0a1b98591a180f35b631e4e7d0960e21b8352600483fd5b6106f0915060203d6020116106f6575b6106e881836135d0565b8101906137af565b5f610677565b503d6106de565b6040513d86823e3d90fd5b81610715919493946135d0565b6107215790855f61062a565b8580fd5b8280fd5b637ba5ffb560e01b8952600452602452604487fd5b8b80fd5b632f4aa44f60e21b8a52600486905260248afd5b804980610764838686613958565b3514610771838686613958565b359015610782575050600101610472565b606493508c926306f2f0e760e21b8452600452602452604452fd5b635cfa404d60e11b8b52600483905260245260448afd5b6107bd90613b63565b610462565b6304c51a3360e31b8a5260048afd5b634e487b7160e01b8b52602160045260248bfd5b63580683f360e01b8952600489fd5b637bb2fa2f60e11b8852600488fd5b8780fd5b8680fd5b8380fd5b5034610320576101203660031901126103205761082a6134e5565b6108326134fb565b6084356001600160801b0381169081810361099d578460c43560ff8116810361098e5761085d613c22565b61086b602435600435613c49565b6006015490936001600160a01b0390911691823b1561080b576108b38480926040518093819263d505accf60e01b8352610104359060e4359060a4358a303360048901613765565b038183885af16109e0575b50506040516323b872dd60e01b81523360048201523060248201526001600160801b039190911660448201529160209183916064918391905af19081156109d55786916109b6575b50156109a7576001600160a01b03908116939081166109a1575033915b833b1561099d57604051635fd142bb60e11b81526001600160a01b03938416600482015292166024830152604482018490526064820152828160848183865af1801561099257610979575b602082604051908152f35b6109848380926135d0565b61098e578161096e565b5080fd5b6040513d85823e3d90fd5b8480fd5b91610923565b631e4e7d0960e21b8552600485fd5b6109cf915060203d6020116106f6576106e881836135d0565b5f610906565b6040513d88823e3d90fd5b816109ea916135d0565b61072557825f6108be565b50346103205780600319360112610320576020610a425f516020615b015f395f51905f525460086004610a284284615516565b0154910154906001600160801b038260801c92169061548a565b604051908152f35b503461032057806003193601126103205760206004610a785f516020615b015f395f51905f52544290615516565b0154604051908152f35b50346103205780600319360112610320575f516020615b015f395f51905f5254600501546040516001600160a01b039091168152602090f35b5034610320578060031936011261032057604060085f516020615b015f395f51905f525401548151906001600160801b038116825260801c6020820152f35b5034610320578060031936011261032057602065ffffffffffff60045f516020615b015f395f51905f5254015416604051908152f35b5034610320578060031936011261032057602065ffffffffffff60025f516020615b015f395f51905f52540154821c16604051908152f35b5034610320578060031936011261032057610bb4610ba06004610b9a5f516020615b015f395f51905f52544290615516565b01613b10565b6040519182916020835260208301906136e2565b0390f35b5034610320578060031936011261032057604051610bd581613599565b610bdd613a3e565b8152604051610beb8161357e565b5f8152602081015f90526020820152610c02613a3e565b6040820152610c0f613add565b6060820152604051610c208161357e565b5f80825260208201526080820152610c36613a3e565b60a08201528160c08201528160e0820152816101008201528161012082015261014001525f516020615b015f395f51905f5254610c71613add565b50610c7e60098201615785565b90610c8b600f8201615785565b60088201549260405193610c9e856135b5565b6001600160801b038116855260801c602085015260408401526060830152601b81015490601c810154601d82015461ffff16601e83015490601f8401549260405195610ce987613599565b604051610cf58161354f565b60018701548152600287015463ffffffff8116602083015260201c65ffffffffffff166040820152875260405197610d2c8961357e565b60038701548952600487015465ffffffffffff1660208a01526020880198895260405190610d598261354f565b60058801546001600160a01b039081168352600689015481166020840152600789015416604080840191909152890191825260608901908152610d9e60158901613990565b9760808a01988952601601610db290613a5c565b9160a08a0192835260c08a0193845260e08a019485526101008a019586526101208a019687526101408a019788526040519a8b9a60208c5251805160208d0152602081015163ffffffff1660408d01526040015165ffffffffffff1660608c015251805160808c01526020015165ffffffffffff1660a08b015251600160a01b6001900381511660c08b0152600160a01b6001900360208201511660e08b0152600160a01b600190039060400151166101008a0152516101208901610260905280516001600160801b03166102808a015260208101516001600160801b03166102a08a015260408101516102c08a01608090526103008a01610eb39161371e565b90606001519061027f198a8203016102e08b0152610ed09161371e565b965180516001600160401b03166101408a0152602001516001600160801b031661016089015251805161018089015260208101516101a0890152604001516101c0880152516101e0870152516102008601525161ffff1661022085015251610240840152516102608301520390f35b50346103205760203660031901126103205760ff604060209260195f516020615b015f395f51905f52540160043582528452205416610f816040518092613690565bf35b5034610320576020366003190112610320576004356001600160401b03811161098e57610fb4903690600401613660565b905f516020615b015f395f51905f525490610fce836138ed565b91610fdc60405193846135d0565b838352610fe8846138ed565b602084019490601f1901368637601a869201915b81811061104757868587604051928392602084019060208552518091526040840192915b81811061102e575050500390f35b8251845285945060209384019390920191600101611020565b8061105d6110586001938588613958565b6139be565b828060a01b03165f528360205260405f2054611079828861397c565b5201610ffc565b503461032057608036600319011261032057600435801515810361098e576001600160401b036024351161098e576101006024353603600319011261098e576002604435101561098e576064356001600160401b038111610725576110e9903690600401613660565b7f9b779b17422d0df92223018b32b4d1fa46e071723d6817e2486d003becc55f009291925c6115275760017f9b779b17422d0df92223018b32b4d1fa46e071723d6817e2486d003becc55f005d5f516020615b015f395f51905f525490600182015415611518578154156114bd575b600382015460446024350135036114ae5765ffffffffffff60048301541665ffffffffffff61118a6024803501613a92565b16106114a05761119f60243560040183614496565b936111b460a46024350160243560040161494b565b808097925060051b046020148615171561148c576111d48660051b615571565b8796875b8189106113425750611308975060051b9020906111fa602435600401866149a2565b61120a6024356004018888614d79565b906112186024803501613a92565b93611227606460243501613a84565b9360405194602086019660243560040135885265ffffffffffff60d01b9060d01b16604087015260446024350135604687015260ff60f81b9060f81b1660668601526067850152608784015260a783015260c782015260c7815261128c60e7826135d0565b5190209283600382015565ffffffffffff6112aa6024803501613a92565b1665ffffffffffff196004830154161760048201557f7ebe42360bcb182fe0a88148b081e4557c89d09aa6af8307635ac2f83e2aaa656020604051868152a165ffffffffffff6112fd6024803501613a92565b1693604435916151ec565b1561133357807f9b779b17422d0df92223018b32b4d1fa46e071723d6817e2486d003becc55f005d80f35b63729d0f6b60e01b8152600490fd5b61135660a46024350160243560040161494b565b8a1015611478578960061b8101358b526019880160205260ff60408c205416600381101561146457600103611455576001916020916114198c8e858260061b850101918d6113a384614980565b15611435575060061b840135815260198d01865260409020805460ff19166002179055601c8c0180546113d590613b63565b90555b8d7f460119a8f69a33ed127de517d5ea464e958ce23ef19e4420a8b92bf780bbc2c98661140484614980565b1515926040519060061b8701358152a2614980565b908c60061b01358d52825360218c2081860152019801976111d8565b6019906040939260061b87013583520187522060ff1981541690556113d8565b636e83084760e11b8b5260048bfd5b634e487b7160e01b8c52602160045260248cfd5b634e487b7160e01b8b52603260045260248bfd5b634e487b7160e01b87526011600452602487fd5b620725b160ea1b8552600485fd5b63164b6fc360e01b8552600485fd5b6114da6114ce606460243501613a84565b60243560040135614401565b156115095765ffffffffffff6114f36024803501613a92565b16421161115857631ad8809560e31b8552600485fd5b637b8cb35960e01b8552600485fd5b63580683f360e01b8552600485fd5b633ee5aeb560e01b8452600484fd5b503461032057806003193601126103205750610bb46040516115596040826135d0565b60058152640352e302e360dc1b60208201526040519182916020835260208301906136b1565b50346103205780600319360112610320575f516020615b015f395f51905f5254610bb491906001600160a01b03906002906115bb904290615516565b015416806115ea5750604051906115d36020836135d0565b81525b6040519182916020835260208301906136b1565b60409081519283915f19813b0164ffffffffff16916021830191601f8501903c80825201016040526115d6565b5034610320578060031936011261032057611630613a3e565b50606061164d60165f516020615b015f395f51905f525401613a5c565b610f8160405180926040809180518452602081015160208501520151910152565b50346103205780600319360112610320576020601b5f516020615b015f395f51905f52540154604051908152f35b5034610320576020366003190112610320576116b6613511565b601a5f516020615b015f395f51905f5254019060018060a01b03165f52602052602060405f2054604051908152f35b503461032057602036600319011261032057600435906001600160401b03821161032057602061172161171b3660048601613660565b906139d2565b6040519015158152f35b50346103205780600319360112610320575f516020615a815f395f51905f52546040516001600160a01b039091168152602090f35b50346103205760a03660031901126103205760043560443560ff811681036107255761178a613c22565b8249156118c0575f516020615b015f395f51905f52546001810154156118b15760198101918385528260205260ff604086205416600381101561189d5761188e576006820154601e9092015485926001600160a01b031691823b1561080b5760405163d505accf60e01b815233600482015230602480830191909152604482018490523560648083019190915260ff92909216608480830191909152913560a4820152903560c48201528390818160e48183885af1611879575b50506040516323b872dd60e01b8152336004820152306024820152604481019190915291602091839182908160648101610665565b81611883916135d0565b61072557825f611844565b6304c51a3360e31b8552600485fd5b634e487b7160e01b86526021600452602486fd5b63580683f360e01b8452600484fd5b637bb2fa2f60e11b8352600483fd5b50346103205780600319360112610320575f516020615b015f395f51905f52546001810190815461191f576002015463ffffffff1640908115611910575580f35b63f7bac7b560e01b8352600483fd5b6309476b0360e41b8352600483fd5b50346103205780600319360112610320575f516020615b015f395f51905f5254600601546040516001600160a01b039091168152602090f35b50346103205780600319360112610320576119806137c7565b50604061199d60155f516020615b015f395f51905f525401613990565b610f81825180926001600160801b03602080926001600160401b038151168552015116910152565b50346103205780600319360112610320575f516020615ac15f395f51905f52541580611ad7575b15611a9a57611a3e906119fd614287565b90611a06614354565b906020611a4c60405193611a1a83866135d0565b8385525f368137604051968796600f60f81b885260e08589015260e08801906136b1565b9086820360408801526136b1565b904660608601523060808601528260a086015284820360c08601528080855193848152019401925b828110611a8357505050500390f35b835185528695509381019392810192600101611a74565b60405162461bcd60e51b81526020600482015260156024820152741152540dcc4c8e88155b9a5b9a5d1a585b1a5e9959605a1b6044820152606490fd5b505f516020615b615f395f51905f5254156119ec565b5034610320578060031936011261032057611b06613bef565b611b0e613c22565b600160ff195f516020615b215f395f51905f525416175f516020615b215f395f51905f52557f62e78cea01bee320cd4e420270b5ea74000d11b0c9f74754ebdbfc544b05a2586020604051338152a180f35b5034610320576020366003190112610320576004356001600160401b03811161098e57611b91903690600401613660565b905f516020615b015f395f51905f525490611bab836138ed565b91611bb960405193846135d0565b838352611bc5846138ed565b602084019490601f19013686376019869201915b818110611c2e57868587604051928392602084019060208552518091526040840192915b818110611c0b575050500390f35b9193509160208082611c206001948851613690565b019401910191849392611bfd565b611c39818386613958565b3587528260205260ff604088205416611c52828761397c565b6003821015611c645752600101611bd9565b634e487b7160e01b89526021600452602489fd5b5034610320576020366003190112610320576020906040906001600160a01b03611ca0613511565b1681527f5ab42ced628888259c08ac98db1eb0cf702fc1501344311d8b100cd1bfe4bb0083522054604051908152f35b5034610320578060031936011261032057602060035f516020615b015f395f51905f52540154604051908152f35b5034610320578060031936011261032057611d17613bef565b5f516020615a815f395f51905f5280546001600160a01b0319811690915581906001600160a01b03167f8be0079c531659141344cd1fd0a4f28419497f9722a3daafe3b4186f6b6457e08280a380f35b5034610320578060031936011261032057611d80613bef565b5f516020615b415f395f51905f525460ff8160401c169081156122c1575b506122b2575f516020615b415f395f51905f52805468ffffffffffffffffff1916680100000000000000051790555f516020615a815f395f51905f5254611df8906001600160a01b0316611df0615532565b610381615532565b611e006137fd565b90611e0961382a565b90611e12615532565b611e1a615532565b82516001600160401b0381116121b557611e415f516020615a615f395f51905f525461424f565b601f811161224e575b506020601f82116001146121d4578293948293926121c9575b50508160011b915f199060031b1c1916175f516020615a615f395f51905f52555b81516001600160401b0381116121b557611eab5f516020615aa15f395f51905f525461424f565b601f8111612148575b50602092601f82116001146120cf579282938293926120c4575b50508160011b915f199060031b1c1916175f516020615aa15f395f51905f52555b805f516020615ac15f395f51905f5255805f516020615b615f395f51905f52555f516020615b015f395f51905f5254611f266141b7565b80516001830155600282019063ffffffff60208201511669ffffffffffff000000006040845493015160201b169169ffffffffffffffffffff191617179055816020604051611f748161357e565b82815201528160038201556004810165ffffffffffff19815416905561ffff6004611f9f4284615516565b01541661ffff601d8301911661ffff198254161790556004602060018060a01b036006840154166040519283809263313ce56760e01b82525afa801561099257611ff0918491612095575b506138a1565b90816103e8026103e88104830361208157601e820155816101f402916101f483040361206d57601f015560ff60401b195f516020615b415f395f51905f5254165f516020615b415f395f51905f52557fc7f505b2f371ae2175ee4913f4499e1f2633a7b5936321eed1cdaeb6115181d2602060405160058152a180f35b634e487b7160e01b83526011600452602483fd5b634e487b7160e01b84526011600452602484fd5b6120b7915060203d6020116120bd575b6120af81836135d0565b810190613888565b5f611fea565b503d6120a5565b015190505f80611ece565b601f198216935f516020615aa15f395f51905f52845280842091845b8681106121305750836001959610612118575b505050811b015f516020615aa15f395f51905f5255611eef565b01515f1960f88460031b161c191690555f80806120fe565b919260206001819286850151815501940192016120eb565b81811115611eb4575f516020615aa15f395f51905f5283526121a7907f5f9ce34815f8e11431c7bb75a8e6886a91478f7ffc1dbb0a98dc240fddd76b7590601f840160051c90602085106121ad575b601f82910160051c039101614234565b5f611eb4565b859150612197565b634e487b7160e01b82526041600452602482fd5b015190505f80611e63565b5f516020615a615f395f51905f52835280832090601f198316845b8181106122365750958360019596971061221e575b505050811b015f516020615a615f395f51905f5255611e84565b01515f1960f88460031b161c191690555f8080612204565b9192602060018192868b0151815501940192016121ef565b81811115611e4a575f516020615a615f395f51905f5283526122ac907f42ad5d3e1f2e6e70edcf6d991b8a3023d3fca8047a131592f9edb9fd9b89d57d90601f840160051c90602085106121ad57601f82910160051c039101614234565b5f611e4a565b63f92ee8a960e01b8152600490fd5b600591506001600160401b031610155f611d9e565b5034610320578060031936011261032057602060ff5f516020615b215f395f51905f5254166040519015158152f35b50346103205761016036600319011261032057612320613511565b906024356001600160a01b0381169081900361098e5761233e6134e5565b926123476134fb565b9260a43560c43560843560403660e319011261080b5761012435966001600160401b03881161099d573660238901121561099d578760040135926001600160401b03841161072157366024858b01011161072157610144356001600160401b038111610807576123bb903690600401613660565b9590935f516020615b415f395f51905f5254986001600160401b0360ff8b60401c16159a1680159081612ce2575b6001149081612cd8575b159081612ccf575b50612cc05761243d908a60016001600160401b03195f516020615b415f395f51905f525416175f516020615b415f395f51905f5255612c90575b611df0615532565b612445615532565b61244d6137fd565b61245561382a565b9061245e615532565b612466615532565b8051906001600160401b038211612c7c5781908b6124915f516020615a615f395f51905f525461424f565b601f8111612c2b575b5050602090601f8311600114612baf578c92612ba4575b50508160011b915f199060031b1c1916175f516020615a615f395f51905f52555b8051906001600160401b038211612b905781906124fc5f516020615aa15f395f51905f525461424f565b601f8111612b21575b50602090601f8311600114612aa5578b92612a9a575b50508160011b915f199060031b1c1916175f516020615aa15f395f51905f52555b875f516020615ac15f395f51905f5255875f516020615b615f395f51905f5255612564615532565b61256c615532565b4215612a8b578115612a7c5781811115612a6d57600a61258c8383613849565b04831015612a5e576040809a81516125a483826135d0565b60178152602081017f726f757465722e73746f726167652e526f75746572563100000000000000000081526125d7613bef565b5f1991519020018a5260ff1960208b2016809e815f516020615b015f395f51905f5255835182815260207f059eb9adf6e95b839d818142ed5bd5e498b6d95138e65c91525e93cc0f0339fc91a161262c6141b7565b805160018401556002830190602081015163ffffffff1686835492015160201b69ffffffffffff00000000169169ffffffffffffffffffff1916171790558351906126768261354f565b8382526001600160a01b0390811660208301819052988116949091018490526005919091018054919092166001600160a01b03199182161790915560068e01805482168717905560078e018054909116909117905570030000000000000000000000000000000260088d01556126ea6137c7565b5089516126f68161357e565b639502f90081526509184e72a00060209091015260158c0180546001600160c01b0319166d09184e72a000000000009502f900179055895183908b9061273b8161354f565b83815260208101859052015260168c015560178b015560188a0155601d8901805461ffff191661ffff8616179055865163313ce56760e01b815290819081905a92600491602094fa908115612a54579061279b91869161209557506138a1565b806103e8026103e881048203612a4057601e8a0155806101f402906101f4820403612a2c57906127fb91601f8a01556127f38751986127d98a61357e565b60e4358a5260208a0194610104358652602436920161360c565b933691613904565b958051825170014551231950b75fc4402da1732fc9bebe1982109182612a1b575b505015612a0c5751600988015551600a870155805180851b6bfe61000180600a3d393df3000161fffe8211830152600b81016015830184f09182156129ff5752600b860180546001600160a01b0319166001600160a01b039092169190911790559092600c85019190600d860190825b82548110156128c45782845260208085208201546001600160a01b03165f90815290869052869020805460ff1916905560010161288c565b509195949094865b835181101561290c576001906001600160a01b036128ea828761397c565b5116828060a01b03165f5285602052865f208260ff19825416179055016128cc565b50925092938151916001600160401b0383116129eb57600160401b83116129eb5760209082548484558085106129d0575b500190865260208620865b8381106129b35750505050600e42910155612961575080f35b60207fc7f505b2f371ae2175ee4913f4499e1f2633a7b5936321eed1cdaeb6115181d29160ff60401b195f516020615b415f395f51905f5254165f516020615b415f395f51905f52555160018152a180f35b82516001600160a01b031681830155602090920191600101612948565b6129e590848a528580858c2001910390614234565b5f61293d565b634e487b7160e01b87526041600452602487fd5b633011642584526004601cfd5b63375f0aab60e11b8452600484fd5b612a2592506159df565b5f8061281c565b634e487b7160e01b85526011600452602485fd5b634e487b7160e01b86526011600452602486fd5b87513d87823e3d90fd5b63145e348f60e01b8852600488fd5b6353b2bbed60e01b8852600488fd5b63f7ba6bdb60e01b8852600488fd5b63b7d0949760e01b8852600488fd5b015190505f8061251b565b5f516020615aa15f395f51905f528c52818c209250601f1984168c5b818110612b095750908460019594939210612af1575b505050811b015f516020615aa15f395f51905f525561253c565b01515f1960f88460031b161c191690555f8080612ad7565b92936020600181928786015181550195019301612ac1565b82811115612505575f516020615aa15f395f51905f528c52612b82907f5f9ce34815f8e11431c7bb75a8e6886a91478f7ffc1dbb0a98dc240fddd76b7590601f850160051c908e60208710612b88575b50601f82910160051c039101614234565b5f612505565b91508e612b71565b634e487b7160e01b8a52604160045260248afd5b015190505f806124b1565b5f516020615a615f395f51905f528d52818d209250601f1984168d5b818110612c135750908460019594939210612bfb575b505050811b015f516020615a615f395f51905f52556124d2565b01515f1960f88460031b161c191690555f8080612be1565b92936020600181928786015181550195019301612bcb565b8381111561249a575f516020615a615f395f51905f52612c6d92528d6020812091601f860160051c9160208710612c745750601f82910160051c039101614234565b8b5f61249a565b91508f612b71565b634e487b7160e01b8b52604160045260248bfd5b600160401b60ff60401b195f516020615b415f395f51905f525416175f516020615b415f395f51905f5255612435565b63f92ee8a960e01b8952600489fd5b9050155f6123fb565b303b1591506123f3565b8b91506123e9565b50346103205780600319360112610320577f00000000000000000000000000000000000000000000000000000000000000006001600160a01b03163003612d425760206040515f516020615ae15f395f51905f528152f35b63703e46dd60e11b8152600490fd5b50604036600319011261032057612d66613511565b906024356001600160401b03811161098e57612d86903690600401613642565b6001600160a01b037f000000000000000000000000000000000000000000000000000000000000000016308114908115612f43575b50612f3457612dc8613bef565b6040516352d1902d60e01b8152926001600160a01b0381169190602085600481865afa80958596612efc575b50612e0d57634c9c8ce360e01b84526004839052602484fd5b9091845f516020615ae15f395f51905f528103612eea5750813b15612ed8575f516020615ae15f395f51905f5280546001600160a01b031916821790557fbc7cd75a20ee27fd9adebab32041f755214dbc6bffa90cc0225b39da2e5c2d3b8480a28151839015612ebe5780836020612eb295519101845af43d15612eb6573d91612e96836135f1565b92612ea460405194856135d0565b83523d85602085013e615a02565b5080f35b606091615a02565b50505034612ec95780f35b63b398979f60e01b8152600490fd5b634c9c8ce360e01b8452600452602483fd5b632a87526960e21b8552600452602484fd5b9095506020813d602011612f2c575b81612f18602093836135d0565b81010312612f285751945f612df4565b5f80fd5b3d9150612f0b565b63703e46dd60e11b8252600482fd5b5f516020615ae15f395f51905f52546001600160a01b0316141590505f612dbb565b5034610320578060031936011261032057612f7e613bef565b5f516020615b215f395f51905f525460ff811615612fd65760ff19165f516020615b215f395f51905f52557f5db9ee0a495bf2e6ff9c91a7834c1ba4fdd244a5e8aa4e537bd38aeae4b073aa6020604051338152a180f35b638dfc202b60e01b8252600482fd5b503461032057602036600319011261032057612fff613511565b613007613bef565b5f516020615b015f395f51905f525460050180546001600160a01b0319166001600160a01b0390921691909117905580f35b50346103205780600319360112610320576130526137c7565b5060406130766130715f516020615b015f395f51905f52544290615516565b6137df565b60208251918051835201516020820152f35b5034610320576060366003190112610320576130a26134e5565b6130aa613c22565b6130b86024356004356140bf565b506001600160a01b03908116919081166131405750335b5f516020615b015f395f51905f5254600501546001600160a01b0316823b1561080b57604051635fd142bb60e11b81526001600160a01b03909216600483015260248201526001604482015260648101839052828160848183865af180156109925761097957602082604051908152f35b6130cf565b50346103205780600319360112610320576020610a426154b5565b5034610320578060031936011261032057602060015f516020615b015f395f51905f52540154604051908152f35b50346103205780600319360112610320576020601e5f516020615b015f395f51905f52540154604051908152f35b5034610320576020366003190112610320576131d6613bef565b600435601e5f516020615b015f395f51905f5254015580f35b5034610320576101003660031901126103205761320a6134e5565b6064356001600160801b0381169081810361080b578360a43560ff8116810361098e57613235613c22565b6132436024356004356140bf565b6006015490936001600160a01b0390911691823b1561080b5761328a8480926040518093819263d505accf60e01b835260e4359060c435906084358a303360048901613765565b038183885af16133a8575b50506040516323b872dd60e01b81523360048201523060248201526001600160801b039190911660448201529160209183916064918391905af190811561339d57859161337e575b501561336f576001600160a01b0390811692908116613369575033905b5f516020615b015f395f51905f5254600501546001600160a01b0316833b1561099d57604051635fd142bb60e11b81526001600160a01b0390931660048401526024830152600160448301526064820152828160848183865af180156109925761097957602082604051908152f35b906132fa565b631e4e7d0960e21b8452600484fd5b613397915060203d6020116106f6576106e881836135d0565b5f6132dd565b6040513d87823e3d90fd5b816133b2916135d0565b61072557825f613295565b34612f28576080366003190112612f28576133d66134e5565b6133de6134fb565b906133e7613c22565b6133f5602435600435613c49565b506001600160a01b0390811691908116613482575033915b813b15612f2857604051635fd142bb60e11b81526001600160a01b039384166004820152921660248301525f60448301819052606483018190528260848183855af191821561347757602092613467575b50604051908152f35b5f613471916135d0565b5f61345e565b6040513d5f823e3d90fd5b9161340d565b34612f28576020366003190112612f28576134a1613bef565b600435601f5f516020615b015f395f51905f525401555f80f35b34612f28575f366003190112612f2857602090601c5f516020615b015f395f51905f525401548152f35b604435906001600160a01b0382168203612f2857565b606435906001600160a01b0382168203612f2857565b600435906001600160a01b0382168203612f2857565b35906001600160a01b0382168203612f2857565b35906001600160801b0382168203612f2857565b606081019081106001600160401b0382111761356a57604052565b634e487b7160e01b5f52604160045260245ffd5b604081019081106001600160401b0382111761356a57604052565b61016081019081106001600160401b0382111761356a57604052565b608081019081106001600160401b0382111761356a57604052565b90601f801991011681019081106001600160401b0382111761356a57604052565b6001600160401b03811161356a57601f01601f191660200190565b929192613618826135f1565b9161362660405193846135d0565b829481845281830111612f28578281602093845f960137010152565b9080601f83011215612f285781602061365d9335910161360c565b90565b9181601f84011215612f28578235916001600160401b038311612f28576020808501948460051b010111612f2857565b90600382101561369d5752565b634e487b7160e01b5f52602160045260245ffd5b805180835260209291819084018484015e5f828201840152601f01601f1916010190565b35908115158203612f2857565b90602080835192838152019201905f5b8181106136ff5750505090565b82516001600160a01b03168452602093840193909201916001016136f2565b9060208251805183520151602082015260018060a01b0360208301511660408201526080606061375c604085015160a08386015260a08501906136e2565b93015191015290565b936001600160801b0360c096929998979460ff9460e088019b60018060a01b0316885260018060a01b03166020880152166040860152606085015216608083015260a08201520152565b90816020910312612f2857518015158103612f285790565b604051906137d48261357e565b5f6020838281520152565b906040516137ec8161357e565b602060018294805484520154910152565b6040519061380c6040836135d0565b600f82526e2b30b9309722aa24102937baba32b960891b6020830152565b604051906138396040836135d0565b60018252603160f81b6020830152565b9190820391821161385657565b634e487b7160e01b5f52601160045260245ffd5b8115613874570490565b634e487b7160e01b5f52601260045260245ffd5b90816020910312612f28575160ff81168103612f285790565b60ff16604d811161385657600a0a90565b8181029291811591840414171561385657565b9190826040910312612f28576040516138dd8161357e565b6020808294803584520135910152565b6001600160401b03811161356a5760051b60200190565b929190613910816138ed565b9361391e60405195866135d0565b602085838152019160051b8101928311612f2857905b82821061394057505050565b6020809161394d84613527565b815201910190613934565b91908110156139685760051b0190565b634e487b7160e01b5f52603260045260245ffd5b80518210156139685760209160051b010190565b9060405161399d8161357e565b91546001600160401b038116835260401c6001600160801b03166020830152565b356001600160a01b0381168103612f285790565b6139eb5f516020615b015f395f51905f52544290615516565b600301905f5b838110613a015750505050600190565b613a0f611058828685613958565b6001600160a01b03165f9081526020849052604090205460ff1615613a36576001016139f1565b505050505f90565b60405190613a4b8261354f565b5f6040838281528260208201520152565b90604051613a698161354f565b60406002829480548452600181015460208501520154910152565b3560ff81168103612f285790565b3565ffffffffffff81168103612f285790565b60405190613ab2826135b5565b5f606083604051613ac28161357e565b83815283602082015281528260208201528160408201520152565b60405190613aea826135b5565b815f81525f6020820152613afc613aa5565b60408201526060613b0b613aa5565b910152565b90604051918281549182825260208201905f5260205f20925f5b818110613b41575050613b3f925003836135d0565b565b84546001600160a01b0316835260019485019487945060209093019201613b2a565b5f1981146138565760010190565b9190820180921161385657565b6001600160a01b03168015613bdc575f516020615a815f395f51905f5280546001600160a01b0319811683179091556001600160a01b03167f8be0079c531659141344cd1fd0a4f28419497f9722a3daafe3b4186f6b6457e05f80a3565b631e4fbdf760e01b5f525f60045260245ffd5b5f516020615a815f395f51905f52546001600160a01b03163303613c0f57565b63118cdaa760e01b5f523360045260245ffd5b60ff5f516020615b215f395f51905f525416613c3a57565b63d93c066560e01b5f5260045ffd5b9190915f516020615b015f395f51905f52549260018401541561008257815f526019840160205260ff60405f205416600381101561369d576002036140b057815f5260205260405f206040516103008101908082106001600160401b03831117612f28576102fb916040527f6080806040526102e990816100128239f3fe60806040526004361061029f575f81527f3560e01c806336a52a18146100bb57806342129d00146100b65780635ce6c32760208201527f146100b1578063701da98e146100ac578063704ed542146100a75780637a8e0c60408201527fdd146100a257806391d5a64c1461009d5780639ce110d714610098578063affe60608201527fd0e014610093578063c60496921461008e5763e43f34330361029f5761028a5660808201527f5b610260565b610243565b61021b565b610205565b6101d2565b6101b3565b6160a08201527f0178565b610156565b610119565b346100e7575f3660031901126100e757600260c08201527f5460405160089190911c6001600160a01b03168152602090f35b5f80fd5b918160e08201527f601f840112156100e75782359167ffffffffffffffff83116100e757602083816101008201527f8601950101116100e757565b60403660031901126100e75760043567ffffffff6101208201527fffffffff81116100e7576101459036906004016100eb565b50506024358015156101408201527f1461029f575f80fd5b346100e7575f3660031901126100e757602060ff6002546101608201527f166040519015158152f35b346100e7575f3660031901126100e75760205f54606101808201527f4051908152f35b600435906fffffffffffffffffffffffffffffffff821682036101a08201527f6100e757565b346100e75760203660031901126100e7576101cc610194565b506101c08201527f61029f565b60403660031901126100e75760243567ffffffffffffffff8111616101e08201527ee7576101fe9036906004016100eb565b505061029f565b346100e7576020366102008201527f60031901121561029f575f80fd5b346100e7575f3660031901126100e75760036102208201527f546040516001600160a01b039091168152602090f35b346100e7575f366003196102408201527f01126100e7576020600154604051908152f35b346100e75760a03660031901126102608201527f6100e757610279610194565b5060443560ff81161461029f575f80fd5b3461006102808201527fe7575f3660031901121561029f575f80fd5b63e6fabc0960e01b5f5260205f606102a08201523060481b685afa156100e7575f806204817360e81b01176102c08201527f8051368280378136915af43d5f803e156102e5573d5ff35b3d5ffd00000000006102e08201525ff5908115612f285760018060a01b0382165f52601a84016020528060405f2055601b84016140758154613b63565b90556040516001600160a01b03831681527f8008ec1d8798725ebfa0f2d128d52e8e717dcba6e0f786557eeee70614b02bf190602090a29190565b630e2637d160e01b5f5260045ffd5b9190915f516020615b015f395f51905f52549260018401541561008257815f526019840160205260ff60405f205416600381101561369d576002036140b057815f5260205260405f2060405160608101908082106001600160401b03831117612f2857605a916040527f3d605080600a3d3981f3608060405263e6fabc0960e01b5f5260205f6004817381523060601b6b5afa15604c575f80805136821760208201527f80378136915af43d5f803e156048573d5ff35b3d5ffd5b5f80fd00000000000060408201525ff5908115612f285760018060a01b0382165f52601a84016020528060405f2055601b84016140758154613b63565b6141bf613a3e565b5063ffffffff431161421c5765ffffffffffff4211614204576040516141e48161354f565b5f815263ffffffff4316602082015265ffffffffffff4216604082015290565b6306dfcc6560e41b5f5260306004524260245260445ffd5b6306dfcc6560e41b5f5260206004524360245260445ffd5b5f5b82811061424257505050565b5f82820155600101614236565b90600182811c9216801561427d575b602083101461426957565b634e487b7160e01b5f52602260045260245ffd5b91607f169161425e565b604051905f825f516020615a615f395f51905f5254916142a68361424f565b808352926001811690811561433557506001146142ca575b613b3f925003836135d0565b505f516020615a615f395f51905f525f90815290917f42ad5d3e1f2e6e70edcf6d991b8a3023d3fca8047a131592f9edb9fd9b89d57d5b818310614319575050906020613b3f928201016142be565b6020919350806001915483858901015201910190918492614301565b60209250613b3f94915060ff191682840152151560051b8201016142be565b604051905f825f516020615aa15f395f51905f5254916143738361424f565b8083529260018116908115614335575060011461439657613b3f925003836135d0565b505f516020615aa15f395f51905f525f90815290917f5f9ce34815f8e11431c7bb75a8e6886a91478f7ffc1dbb0a98dc240fddd76b755b8183106143e5575050906020613b3f928201016142be565b60209193508060019154838589010152019101909184926143cd565b435f19810193929084116138565760ff1643811061445157505f925b8381101561442d575b505f925050565b804082810361443f5750600193505050565b1561444c575f190161441d565b614426565b61445b9043613849565b9261441d565b903590601e1981360301821215612f2857018035906001600160401b038211612f2857602001918160051b36038313612f2857565b906080810160016144a78284614461565b90501161493c576144b88183614461565b905015614915576144c891614461565b1561396857803590603e1981360301821215612f285701916144ea8380614461565b9190928260051b93838504602014841517156138565761450c85969495615571565b925f945f97601a60fe19853603019501965b888a10156148cd578960051b85013586811215612f28578501614540816139be565b6001600160a01b03165f90815260208a9052604090205415610064575f608082016001600160801b036145728261555d565b161515806148ba575b6148a9575b6001600160a01b03614591846139be565b604051630427a21d60e11b81526020600482015294911691610124850191906001600160801b0390614610906001600160a01b036145ce85613527565b166024890152602084013560448901526145ea604085016136d5565b151560648901526001600160a01b0361460560608601613527565b16608489015261353b565b1660a486015261462260a082016136d5565b151560c486015236819003601e190160c082013581811215612f28578201602081359101936001600160401b038211612f28576060820236038513612f2857819061010060e48a015252610144870193905f905b80821061485f5750505060e082013590811215612f285701803560208201926001600160401b038211612f28578160051b908136038513612f285791879594936023198785030161010488015281845260208085019385010194935f9160fe19813603015b8484106147525750505050505050602093916001600160801b03848093039316905af1908115613477575f91614720575b50816020916001938a01520199019861451e565b90506020813d821161474a575b8161473a602093836135d0565b81010312612f285751600161470c565b3d915061472d565b919395979850919395601f19848203018752873582811215612f28578301602081013582526001600160a01b0361478b60408301613527565b1660208301526060810135603e193683900301811215612f28578101602081013591906040016001600160401b038311612f28578236038113612f2857829060e060408601528160e08601526101008501375f61010083850101526001600160801b036147fa6080830161353b565b16606084015260a0810135608084015260c081013563ffffffff60e01b8116809103612f28578360209361483c60e086956101009560a060019a0152016136d5565b151560c0830152601f80199101160101990197019401918a9897969593916146db565b90919460608060019288358152838060a01b0361487e60208b01613527565b1660208201526001600160801b0361489860408b0161353b565b166040820152019601920190614676565b90506148b48161555d565b90614580565b506148c760a08401614980565b1561457b565b5094935095509550506020925020910135907fd04cd9af813f6f0b56e9411a6ee6a84eb5ac35a96f0c33d2e3a07d65baa8f4186020604051848152a15f5260205260405f2090565b5050507fc5d2460186f7233c927e7db2dcc703c0e500b653ca82273b7bfad8045d85a47090565b6306d6c38360e01b5f5260045ffd5b903590601e1981360301821215612f2857018035906001600160401b038211612f2857602001918160061b36038313612f2857565b358015158103612f285790565b903590605e1981360301821215612f28570190565b60c0820160016149b28285614461565b905011614d38576149c38184614461565b905015614915576149d49083614461565b1561396857803590607e1981360301821215612f28570191606083019060206149fc83613a92565b91019065ffffffffffff80614a1084613a92565b1691161015614d2957614a2282613a92565b65ffffffffffff80600286015460201c16911610614d1a57614a6865ffffffffffff614a61614a5b82614a5487613a92565b1687615596565b93613a92565b1684615596565b1115614d0b576007820154600690920180548435946001600160a01b0394851694604082019391925f91602091166044614aae83614aa6898961498d565b01358b613b71565b604051948593849263095ea7b360e01b84528c600485015260248401525af1908115613477575f91614cec575b5015614cdd575460405163394f179b60e11b81526001600160a01b03909116600482015260248101959095526020818101356044870152856064815f885af1948515613477575f95614ca5575b5090614b339161498d565b91614b3d82613a92565b9260405193637fbe95b560e01b85526040600486015260a48501918035601e1982360301811215612f28578101602081359101936001600160401b038211612f28578160061b36038513612f285760606044890152819052869360c485019392915f5b818110614c6d57505050836020959365ffffffffffff829484895f9601356064860152614bd6604060018060a01b039201613527565b16608485015216602483015203925af1918215613477575f92614c37575b50614bfe90613a92565b6040519160208301938452604083015265ffffffffffff60d01b9060d01b16606082015260468152614c316066826135d0565b51902090565b9091506020813d602011614c65575b81614c53602093836135d0565b81010312612f28575190614bfe614bf4565b3d9150614c46565b919550919293604080600192838060a01b03614c888a613527565b168152602089013560208201520196019101918895949392614ba0565b919094506020823d602011614cd5575b81614cc2602093836135d0565b81010312612f2857905193614b33614b28565b3d9150614cb5565b6367b9145160e01b5f5260045ffd5b614d05915060203d6020116106f6576106e881836135d0565b5f614adb565b6308027f7760e31b5f5260045ffd5b637bde91e760e11b5f5260045ffd5b63087a19ab60e41b5f5260045ffd5b633249ceed60e11b5f5260045ffd5b903590601e1981360301821215612f2857018035906001600160401b038211612f2857602001918136038313612f2857565b9160e081016001614d8a8284614461565b9050116151dd57614d9b8183614461565b9050156151b557614dab91614461565b1561396857803590609e1981360301821215612f285701906060820190614dd28284614461565b9050156151a65765ffffffffffff600285015460201c1691614df48342613849565b614e036016870154809261386a565b936080860135946001810180911161385657850361519757614e2885614e2e936138b2565b90613b71565b94614e3d601782015487613849565b421061518857614e4c906155be565b92600584019442865410156151795760408101926127f3614e91614e708685614d47565b9190614e7c8587614461565b949091614e8936896138c5565b94369161360c565b966150c0575b50505f979697966003600488019701975b8754811015614edf575f88815260208082208301546001600160a01b031682528a905260409020805460ff19169055600101614ea8565b50909192939495975f5b8751811015614f2a576001906001600160a01b03614f07828b61397c565b5116828060a01b03165f528960205260405f208260ff1982541617905501614ee9565b509295919497909396508151916001600160401b03831161356a57600160401b831161356a5760209082548484558085106150a5575b5001905f5260205f205f5b8381106150885750505050557fa1a3b42179ad30022438a1ea333b38eaf4a7329beee5e2b8111c0dcd4e08821c6020604051858152a160a082360312612f285760405193614fb8856135b5565b614fc236846138c5565b8552356001600160401b038111612f2857614fe09036908401613642565b602085015235906001600160401b038211612f28570136601f82011215612f2857615012903690602081359101613904565b91826040820152816060820152519160208351930151906040519283926020840195865260408401526060830160208351919301905f5b81811061506657505050815203808252614c3190602001826135d0565b82516001600160a01b0316855286955060209485019490920191600101615049565b82516001600160a01b031681830155602090920191600101614f6b565b6150ba90845f528580855f2001910390614234565b5f614f60565b8051906020810191825170014551231950b75fc4402da1732fc9bebe1982109182615168575b5050156151595751885551600188015580518060401b6bfe61000180600a3d393df3000161fffe8211830152600b8101601583015ff091821561514c57526002870180546001600160a01b0319166001600160a01b039092169190911790555f80614e97565b63301164255f526004601cfd5b63375f0aab60e11b5f5260045ffd5b61517292506159df565b5f806150e6565b6333fc8f5160e21b5f5260045ffd5b6372a84ce560e11b5f5260045ffd5b6343d3f5bf60e01b5f5260045ffd5b636c2bf3db60e01b5f5260045ffd5b505050507fc5d2460186f7233c927e7db2dcc703c0e500b653ca82273b7bfad8045d85a47090565b631d3fc6bf60e21b5f5260045ffd5b9095919493929365ffffffffffff600283015460201c1661520d4284615596565b61522561521f601686015480936138b2565b83613b71565b918284108080615474575b1561544257508310615434576152469083613b71565b1061542557615256905b82615516565b95601960f81b5f523060601b60025260165260365f2094600281101561369d578061531757505060018203615308576152dd575b156139685761529c816152a392614d47565b369161360c565b9160608351036152ce5782602061365d940151606060408301519201519260018154910154906155d9565b632ce466bf60e01b5f5260045ffd5b8354158015906152fb575b61528a5763375f0aab60e11b5f5260045ffd5b50600184015415156152e8565b6360a1ea7760e01b5f5260045ffd5b92949290915060011461532d5750505050505f90565b61535290600860048796970154910154906001600160801b038260801c92169061548a565b925f9260035f9201915b8681101561541a5761538261058861537c61529c8460051b860186614d47565b866159a5565b6001600160a01b0381165f9081526020859052604090205460ff166153ad575b506001905b0161535c565b6001600160a01b03165f9081527ff02b465737fa6045c2ff53fb2df43c66916ac2166fa303264668fb2f6a1d8c0060205260409020805c156153f257506001906153a7565b94600161540092965d613b63565b9385851461540e575f6153a2565b50505050505050600190565b505050505050505f90565b63046bb1e560e51b5f5260045ffd5b62f4462b60e01b5f5260045ffd5b9392915050428211615465576152569261545d575b50615250565b90505f615457565b6347860b9760e01b5f5260045ffd5b50615483601887015485613b71565b4210615230565b6001600160801b038092160291166154a2818361386a565b91811561387457061561365d5760010190565b6154bd6158bc565b6154c5615913565b6040519060208201927f8b73c3c69bb8fe3d512ecc4cf759cc79239f7b179b0ffacaa9a75d522b39400f8452604083015260608201524660808201523060a082015260a08152614c3160c0826135d0565b906155219082615945565b1561552c57600f0190565b60090190565b60ff5f516020615b415f395f51905f525460401c161561554e57565b631afcd79f60e31b5f5260045ffd5b356001600160801b0381168103612f285790565b6040519190601f01601f191682016001600160401b03811183821017612f2857604052565b60166155b561365d9365ffffffffffff600285015460201c1690613849565b9101549061386a565b6155c84282615945565b156155d35760090190565b600f0190565b92939194906155e885876159df565b1561577b57821561577b5770014551231950b75fc4402da1732fc9bebe1983101561577b576001169061010e61561d81615571565b9160883684376002600188160160888401538760898401526002840160a984015360aa830186905260ca8301527e300046524f53542d736563703235366b312d4b454343414b3235362d76316360ea8301526303430b6160e51b61010a830152812060cc820181815290600260ec84016001815360428420809318845253604270014551231950b75fc4402da1732fc9bebe19922060801c6001600160401b0360801b8260801b16179070014551231950b75fc4402da1732fc9bebe1990600160c01b9060401c0908801561541a5784601b6080945f9660209870014551231950b75fc4402da1732fc9bebe19910970014551231950b75fc4402da1732fc9bebe19038552018684015280604084015270014551231950b75fc4402da1732fc9bebe19910970014551231950b75fc4402da1732fc9bebe1903606082015282805260015afa505f51915f5260205260018060a01b0360405f20161490565b5050505050505f90565b61578d613aa5565b50600281015460058201546040519290916157cd916004916001600160a01b03166157b7866135b5565b6157c0826137df565b8652602086015201613b10565b6040830152606082015290565b91907f7fffffffffffffffffffffffffffffff5d576e7357a4501ddfe92f46681b20a08411615851579160209360809260ff5f9560405194855216868401526040830152606082015282805260015afa15613477575f516001600160a01b0381161561584757905f905f90565b505f906001905f90565b5050505f9160039190565b600481101561369d578061586e575050565b600181036158855763f645eedf60e01b5f5260045ffd5b600281036158a0575063fce698f760e01b5f5260045260245ffd5b6003146158aa5750565b6335e2f38360e21b5f5260045260245ffd5b6158c4614287565b80519081156158d4576020012090565b50505f516020615ac15f395f51905f525480156158ee5790565b507fc5d2460186f7233c927e7db2dcc703c0e500b653ca82273b7bfad8045d85a47090565b61591b614354565b805190811561592b576020012090565b50505f516020615b615f395f51905f525480156158ee5790565b906014600e8301549201548083146159965781818410931191821591111591819061598f575b15615980578261597a57505090565b14919050565b634c38ae9560e11b5f5260045ffd5b508161596b565b63f26224af60e01b5f5260045ffd5b81519190604183036159d5576159ce9250602082015190606060408401519301515f1a906157da565b9192909190565b50505f9160029190565b6401000003d01990600790829081818009900908906401000003d0199080091490565b90615a265750805115615a1757602081519101fd5b63d6bda27560e01b5f5260045ffd5b81511580615a57575b615a37575090565b639996b31560e01b5f9081526001600160a01b0391909116600452602490fd5b50803b15615a2f56fea16a46d94261c7517cc8ff89f61c0ce93598e3c849801011dee649a6a557d1029016d09d72d40fdae2fd8ceac6b6234c7706214fd39c1cd1e609a0528c199300a16a46d94261c7517cc8ff89f61c0ce93598e3c849801011dee649a6a557d103a16a46d94261c7517cc8ff89f61c0ce93598e3c849801011dee649a6a557d100360894a13ba1a3210667c828492db98dca3e2076cc3735a920a3ca505d382bbc5c09ca1b9b8127a4fd9f3c384aac59b661441e820e17733753ff5f2e86e1e000cd5ed15c6e187e77e9aee88184c21f4f2182ab5827cb3b7e07fbedcd63f03300f0c57e16840df040f15088dc2f81fe391c3923bec73e23a9662efc9c229c6a00a16a46d94261c7517cc8ff89f61c0ce93598e3c849801011dee649a6a557d101f0c57e16840df040f15088dc2f81fe391c3923bec73e23a9662efc9c229c6a00","linkReferences":{}},"methodIdentifiers":{"DOMAIN_SEPARATOR()":"3644e515","UPGRADE_INTERFACE_VERSION()":"ad3cb1cc","areValidators(address[])":"8f381dbe","codeState(bytes32)":"c13911e8","codesStates(bytes32[])":"82bdeaad","commitBatch(bool,(bytes32,uint48,bytes32,uint8,((address,bytes32,bool,address,uint128,bool,(bytes32,address,uint128)[],(bytes32,address,bytes,uint128,(bytes32,bytes4),bool)[])[],bytes32)[],(bytes32,bool)[],((uint256,bytes32),((address,uint256)[],uint256,address),uint48)[],((uint256,uint256),bytes,address[],uint256)[]),uint8,bytes[])":"b3624cbd","computeSettings()":"84d22a4f","createProgram(bytes32,bytes32,address)":"3683c4d2","createProgramWithAbiInterface(bytes32,bytes32,address,address)":"0c18d277","createProgramWithAbiInterfaceAndExecutableBalance(bytes32,bytes32,address,address,uint128,uint256,uint8,bytes32,bytes32)":"ee32004f","createProgramWithExecutableBalance(bytes32,bytes32,address,uint128,uint256,uint8,bytes32,bytes32)":"0d91bf2a","eip712Domain()":"84b0196e","genesisBlockHash()":"28e24b3d","genesisTimestamp()":"cacf66ab","initialize(address,address,address,address,uint256,uint256,uint256,(uint256,uint256),bytes,address[])":"53f7fd48","isValidator(address)":"facd743b","latestCommittedBatchHash()":"71a8cf2d","latestCommittedBatchTimestamp()":"d456fd51","lookupGenesisHash()":"8b1edf1e","middleware()":"f4f20ac0","mirrorImpl()":"e6fabc09","nonces(address)":"7ecebe00","owner()":"8da5cb5b","pause()":"8456cb59","paused()":"5c975abb","programCodeId(address)":"9067088e","programsCodeIds(address[])":"baaf0201","programsCount()":"96a2ddfa","proxiableUUID()":"52d1902d","reinitialize()":"6c2eb350","renounceOwnership()":"715018a6","requestCodeValidation(bytes32,uint256,uint8,bytes32,bytes32)":"8c4ace6a","requestCodeValidationBaseFee()":"188509e9","requestCodeValidationExtraFee()":"f1ef31ec","requestCodeValidationOnBehalf(address,bytes32,bytes32[],uint256,uint8,bytes32,bytes32,uint8,bytes32,bytes32)":"f0fd702a","setMirror(address)":"3d43b418","setRequestCodeValidationBaseFee(uint256)":"11bec80d","setRequestCodeValidationExtraFee(uint256)":"0b9737ce","signingThresholdFraction()":"e3a6684f","storageView()":"c2eb812f","timelines()":"9eb939a8","transferOwnership(address)":"f2fde38b","unpause()":"3f4ba83a","upgradeToAndCall(address,bytes)":"4f1ef286","validatedCodesCount()":"007a32e7","validators()":"ca1e7819","validatorsAggregatedPublicKey()":"3bd109fa","validatorsCount()":"ed612f8c","validatorsThreshold()":"edc87225","validatorsVerifiableSecretSharingCommitment()":"a5d53a44","wrappedVara()":"88f50cf0"},"storageLayout":{"storage":[],"types":{}},"id":165}