{"abi":[{"type":"constructor","inputs":[],"stateMutability":"nonpayable"},{"type":"receive","stateMutability":"payable"},{"type":"function","name":"COMMIT_BATCH_AFTER_COMMIT_CODES","inputs":[],"outputs":[{"name":"","type":"uint256","internalType":"uint256"}],"stateMutability":"view"},{"type":"function","name":"COMMIT_BATCH_BEFORE_COMMIT_CODES","inputs":[],"outputs":[{"name":"","type":"uint256","internalType":"uint256"}],"stateMutability":"view"},{"type":"function","name":"UPGRADE_INTERFACE_VERSION","inputs":[],"outputs":[{"name":"","type":"string","internalType":"string"}],"stateMutability":"view"},{"type":"function","name":"areValidators","inputs":[{"name":"_validators","type":"address[]","internalType":"address[]"}],"outputs":[{"name":"","type":"bool","internalType":"bool"}],"stateMutability":"view"},{"type":"function","name":"codeState","inputs":[{"name":"_codeId","type":"bytes32","internalType":"bytes32"}],"outputs":[{"name":"","type":"uint8","internalType":"enum Gear.CodeState"}],"stateMutability":"view"},{"type":"function","name":"codesStates","inputs":[{"name":"_codesIds","type":"bytes32[]","internalType":"bytes32[]"}],"outputs":[{"name":"","type":"uint8[]","internalType":"enum Gear.CodeState[]"}],"stateMutability":"view"},{"type":"function","name":"commitBatch","inputs":[{"name":"_batch","type":"tuple","internalType":"struct Gear.BatchCommitment","components":[{"name":"blockHash","type":"bytes32","internalType":"bytes32"},{"name":"blockTimestamp","type":"uint48","internalType":"uint48"},{"name":"previousCommittedBatchHash","type":"bytes32","internalType":"bytes32"},{"name":"expiry","type":"uint8","internalType":"uint8"},{"name":"chainCommitment","type":"tuple[]","internalType":"struct Gear.ChainCommitment[]","components":[{"name":"transitions","type":"tuple[]","internalType":"struct Gear.StateTransition[]","components":[{"name":"actorId","type":"address","internalType":"address"},{"name":"newStateHash","type":"bytes32","internalType":"bytes32"},{"name":"exited","type":"bool","internalType":"bool"},{"name":"inheritor","type":"address","internalType":"address"},{"name":"valueToReceive","type":"uint128","internalType":"uint128"},{"name":"valueToReceiveNegativeSign","type":"bool","internalType":"bool"},{"name":"valueClaims","type":"tuple[]","internalType":"struct Gear.ValueClaim[]","components":[{"name":"messageId","type":"bytes32","internalType":"bytes32"},{"name":"destination","type":"address","internalType":"address"},{"name":"value","type":"uint128","internalType":"uint128"}]},{"name":"messages","type":"tuple[]","internalType":"struct Gear.Message[]","components":[{"name":"id","type":"bytes32","internalType":"bytes32"},{"name":"destination","type":"address","internalType":"address"},{"name":"payload","type":"bytes","internalType":"bytes"},{"name":"value","type":"uint128","internalType":"uint128"},{"name":"replyDetails","type":"tuple","internalType":"struct Gear.ReplyDetails","components":[{"name":"to","type":"bytes32","internalType":"bytes32"},{"name":"code","type":"bytes4","internalType":"bytes4"}]},{"name":"call","type":"bool","internalType":"bool"}]}]},{"name":"head","type":"bytes32","internalType":"bytes32"}]},{"name":"codeCommitments","type":"tuple[]","internalType":"struct Gear.CodeCommitment[]","components":[{"name":"id","type":"bytes32","internalType":"bytes32"},{"name":"valid","type":"bool","internalType":"bool"}]},{"name":"rewardsCommitment","type":"tuple[]","internalType":"struct Gear.RewardsCommitment[]","components":[{"name":"operators","type":"tuple","internalType":"struct Gear.OperatorRewardsCommitment","components":[{"name":"amount","type":"uint256","internalType":"uint256"},{"name":"root","type":"bytes32","internalType":"bytes32"}]},{"name":"stakers","type":"tuple","internalType":"struct Gear.StakerRewardsCommitment","components":[{"name":"distribution","type":"tuple[]","internalType":"struct Gear.StakerRewards[]","components":[{"name":"vault","type":"address","internalType":"address"},{"name":"amount","type":"uint256","internalType":"uint256"}]},{"name":"totalAmount","type":"uint256","internalType":"uint256"},{"name":"token","type":"address","internalType":"address"}]},{"name":"timestamp","type":"uint48","internalType":"uint48"}]},{"name":"validatorsCommitment","type":"tuple[]","internalType":"struct Gear.ValidatorsCommitment[]","components":[{"name":"aggregatedPublicKey","type":"tuple","internalType":"struct Gear.AggregatedPublicKey","components":[{"name":"x","type":"uint256","internalType":"uint256"},{"name":"y","type":"uint256","internalType":"uint256"}]},{"name":"verifiableSecretSharingCommitment","type":"bytes","internalType":"bytes"},{"name":"validators","type":"address[]","internalType":"address[]"},{"name":"eraIndex","type":"uint256","internalType":"uint256"}]}]},{"name":"_signatureType","type":"uint8","internalType":"enum Gear.SignatureType"},{"name":"_signatures","type":"bytes[]","internalType":"bytes[]"}],"outputs":[],"stateMutability":"nonpayable"},{"type":"function","name":"computeSettings","inputs":[],"outputs":[{"name":"","type":"tuple","internalType":"struct Gear.ComputationSettings","components":[{"name":"threshold","type":"uint64","internalType":"uint64"},{"name":"wvaraPerSecond","type":"uint128","internalType":"uint128"}]}],"stateMutability":"view"},{"type":"function","name":"createProgram","inputs":[{"name":"_codeId","type":"bytes32","internalType":"bytes32"},{"name":"_salt","type":"bytes32","internalType":"bytes32"},{"name":"_overrideInitializer","type":"address","internalType":"address"}],"outputs":[{"name":"","type":"address","internalType":"address"}],"stateMutability":"nonpayable"},{"type":"function","name":"createProgramWithAbiInterface","inputs":[{"name":"_codeId","type":"bytes32","internalType":"bytes32"},{"name":"_salt","type":"bytes32","internalType":"bytes32"},{"name":"_overrideInitializer","type":"address","internalType":"address"},{"name":"_abiInterface","type":"address","internalType":"address"}],"outputs":[{"name":"","type":"address","internalType":"address"}],"stateMutability":"nonpayable"},{"type":"function","name":"genesisBlockHash","inputs":[],"outputs":[{"name":"","type":"bytes32","internalType":"bytes32"}],"stateMutability":"view"},{"type":"function","name":"genesisTimestamp","inputs":[],"outputs":[{"name":"","type":"uint48","internalType":"uint48"}],"stateMutability":"view"},{"type":"function","name":"initialize","inputs":[{"name":"_owner","type":"address","internalType":"address"},{"name":"_mirror","type":"address","internalType":"address"},{"name":"_wrappedVara","type":"address","internalType":"address"},{"name":"_middleware","type":"address","internalType":"address"},{"name":"_eraDuration","type":"uint256","internalType":"uint256"},{"name":"_electionDuration","type":"uint256","internalType":"uint256"},{"name":"_validationDelay","type":"uint256","internalType":"uint256"},{"name":"_aggregatedPublicKey","type":"tuple","internalType":"struct Gear.AggregatedPublicKey","components":[{"name":"x","type":"uint256","internalType":"uint256"},{"name":"y","type":"uint256","internalType":"uint256"}]},{"name":"_verifiableSecretSharingCommitment","type":"bytes","internalType":"bytes"},{"name":"_validators","type":"address[]","internalType":"address[]"}],"outputs":[],"stateMutability":"nonpayable"},{"type":"function","name":"isValidator","inputs":[{"name":"_validator","type":"address","internalType":"address"}],"outputs":[{"name":"","type":"bool","internalType":"bool"}],"stateMutability":"view"},{"type":"function","name":"latestCommittedBatchHash","inputs":[],"outputs":[{"name":"","type":"bytes32","internalType":"bytes32"}],"stateMutability":"view"},{"type":"function","name":"latestCommittedBatchTimestamp","inputs":[],"outputs":[{"name":"","type":"uint48","internalType":"uint48"}],"stateMutability":"view"},{"type":"function","name":"lookupGenesisHash","inputs":[],"outputs":[],"stateMutability":"nonpayable"},{"type":"function","name":"middleware","inputs":[],"outputs":[{"name":"","type":"address","internalType":"address"}],"stateMutability":"view"},{"type":"function","name":"mirrorImpl","inputs":[],"outputs":[{"name":"","type":"address","internalType":"address"}],"stateMutability":"view"},{"type":"function","name":"owner","inputs":[],"outputs":[{"name":"","type":"address","internalType":"address"}],"stateMutability":"view"},{"type":"function","name":"pause","inputs":[],"outputs":[],"stateMutability":"nonpayable"},{"type":"function","name":"paused","inputs":[],"outputs":[{"name":"","type":"bool","internalType":"bool"}],"stateMutability":"view"},{"type":"function","name":"programCodeId","inputs":[{"name":"_programId","type":"address","internalType":"address"}],"outputs":[{"name":"","type":"bytes32","internalType":"bytes32"}],"stateMutability":"view"},{"type":"function","name":"programsCodeIds","inputs":[{"name":"_programsIds","type":"address[]","internalType":"address[]"}],"outputs":[{"name":"","type":"bytes32[]","internalType":"bytes32[]"}],"stateMutability":"view"},{"type":"function","name":"programsCount","inputs":[],"outputs":[{"name":"","type":"uint256","internalType":"uint256"}],"stateMutability":"view"},{"type":"function","name":"proxiableUUID","inputs":[],"outputs":[{"name":"","type":"bytes32","internalType":"bytes32"}],"stateMutability":"view"},{"type":"function","name":"reinitialize","inputs":[],"outputs":[],"stateMutability":"nonpayable"},{"type":"function","name":"renounceOwnership","inputs":[],"outputs":[],"stateMutability":"nonpayable"},{"type":"function","name":"requestCodeValidation","inputs":[{"name":"_codeId","type":"bytes32","internalType":"bytes32"}],"outputs":[],"stateMutability":"nonpayable"},{"type":"function","name":"setMirror","inputs":[{"name":"newMirror","type":"address","internalType":"address"}],"outputs":[],"stateMutability":"nonpayable"},{"type":"function","name":"signingThresholdFraction","inputs":[],"outputs":[{"name":"","type":"uint128","internalType":"uint128"},{"name":"","type":"uint128","internalType":"uint128"}],"stateMutability":"view"},{"type":"function","name":"storageView","inputs":[],"outputs":[{"name":"","type":"tuple","internalType":"struct IRouter.StorageView","components":[{"name":"genesisBlock","type":"tuple","internalType":"struct Gear.GenesisBlockInfo","components":[{"name":"hash","type":"bytes32","internalType":"bytes32"},{"name":"number","type":"uint32","internalType":"uint32"},{"name":"timestamp","type":"uint48","internalType":"uint48"}]},{"name":"latestCommittedBatch","type":"tuple","internalType":"struct Gear.CommittedBatchInfo","components":[{"name":"hash","type":"bytes32","internalType":"bytes32"},{"name":"timestamp","type":"uint48","internalType":"uint48"}]},{"name":"implAddresses","type":"tuple","internalType":"struct Gear.AddressBook","components":[{"name":"mirror","type":"address","internalType":"address"},{"name":"wrappedVara","type":"address","internalType":"address"},{"name":"middleware","type":"address","internalType":"address"}]},{"name":"validationSettings","type":"tuple","internalType":"struct Gear.ValidationSettingsView","components":[{"name":"thresholdNumerator","type":"uint128","internalType":"uint128"},{"name":"thresholdDenominator","type":"uint128","internalType":"uint128"},{"name":"validators0","type":"tuple","internalType":"struct Gear.ValidatorsView","components":[{"name":"aggregatedPublicKey","type":"tuple","internalType":"struct Gear.AggregatedPublicKey","components":[{"name":"x","type":"uint256","internalType":"uint256"},{"name":"y","type":"uint256","internalType":"uint256"}]},{"name":"verifiableSecretSharingCommitmentPointer","type":"address","internalType":"address"},{"name":"list","type":"address[]","internalType":"address[]"},{"name":"useFromTimestamp","type":"uint256","internalType":"uint256"}]},{"name":"validators1","type":"tuple","internalType":"struct Gear.ValidatorsView","components":[{"name":"aggregatedPublicKey","type":"tuple","internalType":"struct Gear.AggregatedPublicKey","components":[{"name":"x","type":"uint256","internalType":"uint256"},{"name":"y","type":"uint256","internalType":"uint256"}]},{"name":"verifiableSecretSharingCommitmentPointer","type":"address","internalType":"address"},{"name":"list","type":"address[]","internalType":"address[]"},{"name":"useFromTimestamp","type":"uint256","internalType":"uint256"}]}]},{"name":"computeSettings","type":"tuple","internalType":"struct Gear.ComputationSettings","components":[{"name":"threshold","type":"uint64","internalType":"uint64"},{"name":"wvaraPerSecond","type":"uint128","internalType":"uint128"}]},{"name":"timelines","type":"tuple","internalType":"struct Gear.Timelines","components":[{"name":"era","type":"uint256","internalType":"uint256"},{"name":"election","type":"uint256","internalType":"uint256"},{"name":"validationDelay","type":"uint256","internalType":"uint256"}]},{"name":"programsCount","type":"uint256","internalType":"uint256"},{"name":"validatedCodesCount","type":"uint256","internalType":"uint256"}]}],"stateMutability":"view"},{"type":"function","name":"timelines","inputs":[],"outputs":[{"name":"","type":"tuple","internalType":"struct Gear.Timelines","components":[{"name":"era","type":"uint256","internalType":"uint256"},{"name":"election","type":"uint256","internalType":"uint256"},{"name":"validationDelay","type":"uint256","internalType":"uint256"}]}],"stateMutability":"view"},{"type":"function","name":"transferOwnership","inputs":[{"name":"newOwner","type":"address","internalType":"address"}],"outputs":[],"stateMutability":"nonpayable"},{"type":"function","name":"unpause","inputs":[],"outputs":[],"stateMutability":"nonpayable"},{"type":"function","name":"upgradeToAndCall","inputs":[{"name":"newImplementation","type":"address","internalType":"address"},{"name":"data","type":"bytes","internalType":"bytes"}],"outputs":[],"stateMutability":"payable"},{"type":"function","name":"validatedCodesCount","inputs":[],"outputs":[{"name":"","type":"uint256","internalType":"uint256"}],"stateMutability":"view"},{"type":"function","name":"validators","inputs":[],"outputs":[{"name":"","type":"address[]","internalType":"address[]"}],"stateMutability":"view"},{"type":"function","name":"validatorsAggregatedPublicKey","inputs":[],"outputs":[{"name":"","type":"tuple","internalType":"struct Gear.AggregatedPublicKey","components":[{"name":"x","type":"uint256","internalType":"uint256"},{"name":"y","type":"uint256","internalType":"uint256"}]}],"stateMutability":"view"},{"type":"function","name":"validatorsCount","inputs":[],"outputs":[{"name":"","type":"uint256","internalType":"uint256"}],"stateMutability":"view"},{"type":"function","name":"validatorsThreshold","inputs":[],"outputs":[{"name":"","type":"uint256","internalType":"uint256"}],"stateMutability":"view"},{"type":"function","name":"validatorsVerifiableSecretSharingCommitment","inputs":[],"outputs":[{"name":"","type":"bytes","internalType":"bytes"}],"stateMutability":"view"},{"type":"function","name":"wrappedVara","inputs":[],"outputs":[{"name":"","type":"address","internalType":"address"}],"stateMutability":"view"},{"type":"event","name":"AnnouncesCommitted","inputs":[{"name":"head","type":"bytes32","indexed":false,"internalType":"bytes32"}],"anonymous":false},{"type":"event","name":"BatchCommitted","inputs":[{"name":"hash","type":"bytes32","indexed":false,"internalType":"bytes32"}],"anonymous":false},{"type":"event","name":"CodeGotValidated","inputs":[{"name":"codeId","type":"bytes32","indexed":false,"internalType":"bytes32"},{"name":"valid","type":"bool","indexed":true,"internalType":"bool"}],"anonymous":false},{"type":"event","name":"CodeValidationRequested","inputs":[{"name":"codeId","type":"bytes32","indexed":false,"internalType":"bytes32"}],"anonymous":false},{"type":"event","name":"ComputationSettingsChanged","inputs":[{"name":"threshold","type":"uint64","indexed":false,"internalType":"uint64"},{"name":"wvaraPerSecond","type":"uint128","indexed":false,"internalType":"uint128"}],"anonymous":false},{"type":"event","name":"DebugEvent","inputs":[{"name":"topic0","type":"uint256","indexed":true,"internalType":"uint256"}],"anonymous":true},{"type":"event","name":"Initialized","inputs":[{"name":"version","type":"uint64","indexed":false,"internalType":"uint64"}],"anonymous":false},{"type":"event","name":"OwnershipTransferred","inputs":[{"name":"previousOwner","type":"address","indexed":true,"internalType":"address"},{"name":"newOwner","type":"address","indexed":true,"internalType":"address"}],"anonymous":false},{"type":"event","name":"Paused","inputs":[{"name":"account","type":"address","indexed":false,"internalType":"address"}],"anonymous":false},{"type":"event","name":"ProgramCreated","inputs":[{"name":"actorId","type":"address","indexed":false,"internalType":"address"},{"name":"codeId","type":"bytes32","indexed":true,"internalType":"bytes32"}],"anonymous":false},{"type":"event","name":"StorageSlotChanged","inputs":[{"name":"slot","type":"bytes32","indexed":false,"internalType":"bytes32"}],"anonymous":false},{"type":"event","name":"Unpaused","inputs":[{"name":"account","type":"address","indexed":false,"internalType":"address"}],"anonymous":false},{"type":"event","name":"Upgraded","inputs":[{"name":"implementation","type":"address","indexed":true,"internalType":"address"}],"anonymous":false},{"type":"event","name":"ValidatorsCommittedForEra","inputs":[{"name":"eraIndex","type":"uint256","indexed":false,"internalType":"uint256"}],"anonymous":false},{"type":"error","name":"AddressEmptyCode","inputs":[{"name":"target","type":"address","internalType":"address"}]},{"type":"error","name":"ApproveERC20Failed","inputs":[]},{"type":"error","name":"BatchTimestampNotInPast","inputs":[]},{"type":"error","name":"BatchTimestampTooEarly","inputs":[]},{"type":"error","name":"BlobNotFound","inputs":[]},{"type":"error","name":"CodeAlreadyOnValidationOrValidated","inputs":[]},{"type":"error","name":"CodeNotValidated","inputs":[]},{"type":"error","name":"CodeValidationNotRequested","inputs":[]},{"type":"error","name":"CommitmentEraNotNext","inputs":[]},{"type":"error","name":"DeploymentFailed","inputs":[]},{"type":"error","name":"ECDSAInvalidSignature","inputs":[]},{"type":"error","name":"ECDSAInvalidSignatureLength","inputs":[{"name":"length","type":"uint256","internalType":"uint256"}]},{"type":"error","name":"ECDSAInvalidSignatureS","inputs":[{"name":"s","type":"bytes32","internalType":"bytes32"}]},{"type":"error","name":"ERC1967InvalidImplementation","inputs":[{"name":"implementation","type":"address","internalType":"address"}]},{"type":"error","name":"ERC1967NonPayable","inputs":[]},{"type":"error","name":"ElectionNotStarted","inputs":[]},{"type":"error","name":"EmptyValidatorsList","inputs":[]},{"type":"error","name":"EnforcedPause","inputs":[]},{"type":"error","name":"EraDurationTooShort","inputs":[]},{"type":"error","name":"ErasTimestampMustNotBeEqual","inputs":[]},{"type":"error","name":"ExpectedPause","inputs":[]},{"type":"error","name":"FailedCall","inputs":[]},{"type":"error","name":"GenesisHashAlreadySet","inputs":[]},{"type":"error","name":"GenesisHashNotFound","inputs":[]},{"type":"error","name":"InvalidElectionDuration","inputs":[]},{"type":"error","name":"InvalidFROSTAggregatedPublicKey","inputs":[]},{"type":"error","name":"InvalidFrostSignatureCount","inputs":[]},{"type":"error","name":"InvalidFrostSignatureLength","inputs":[]},{"type":"error","name":"InvalidInitialization","inputs":[]},{"type":"error","name":"InvalidPreviousCommittedBatchHash","inputs":[]},{"type":"error","name":"InvalidTimestamp","inputs":[]},{"type":"error","name":"NotInitializing","inputs":[]},{"type":"error","name":"OwnableInvalidOwner","inputs":[{"name":"owner","type":"address","internalType":"address"}]},{"type":"error","name":"OwnableUnauthorizedAccount","inputs":[{"name":"account","type":"address","internalType":"address"}]},{"type":"error","name":"PredecessorBlockNotFound","inputs":[]},{"type":"error","name":"ReentrancyGuardReentrantCall","inputs":[]},{"type":"error","name":"RewardsCommitmentEraNotPrevious","inputs":[]},{"type":"error","name":"RewardsCommitmentPredatesGenesis","inputs":[]},{"type":"error","name":"RewardsCommitmentTimestampNotInPast","inputs":[]},{"type":"error","name":"RouterGenesisHashNotInitialized","inputs":[]},{"type":"error","name":"SignatureVerificationFailed","inputs":[]},{"type":"error","name":"TimestampInFuture","inputs":[]},{"type":"error","name":"TimestampOlderThanPreviousEra","inputs":[]},{"type":"error","name":"TooManyChainCommitments","inputs":[]},{"type":"error","name":"TooManyRewardsCommitments","inputs":[]},{"type":"error","name":"TooManyValidatorsCommitments","inputs":[]},{"type":"error","name":"UUPSUnauthorizedCallContext","inputs":[]},{"type":"error","name":"UUPSUnsupportedProxiableUUID","inputs":[{"name":"slot","type":"bytes32","internalType":"bytes32"}]},{"type":"error","name":"UnknownProgram","inputs":[]},{"type":"error","name":"ValidationBeforeGenesis","inputs":[]},{"type":"error","name":"ValidationDelayTooBig","inputs":[]},{"type":"error","name":"ValidatorsAlreadyScheduled","inputs":[]},{"type":"error","name":"ValidatorsNotFoundForTimestamp","inputs":[]},{"type":"error","name":"ZeroValueTransfer","inputs":[]}],"bytecode":{"object":"0x60a080604052346100c257306080525f5160206145325f395f51905f525460ff8160401c166100b3576002600160401b03196001600160401b03821601610060575b60405161446b90816100c78239608051818181611b590152611bec0152f35b6001600160401b0319166001600160401b039081175f5160206145325f395f51905f525581527fc7f505b2f371ae2175ee4913f4499e1f2633a7b5936321eed1cdaeb6115181d290602090a15f80610041565b63f92ee8a960e01b5f5260045ffd5b5f80fdfe6080806040526004361015610091575b50361561001a575f80fd5b610022612d1f565b5f51602061440b5f395f51905f5254600181015415610082576001600160801b0334161561007357335f908152601a9190910160205260409020541561006457005b63821a62f560e01b5f5260045ffd5b63a1a7c6eb60e01b5f5260045ffd5b63580683f360e01b5f5260045ffd5b5f905f3560e01c9081627a32e714612726575080630c18d27714612238578063120e3f1e1461215957806328e24b3d1461212b5780633683c4d214611f005780633bd109fa14611eb15780633d43b41814611e5d5780633f4ba83a14611ddd5780634429e24b14611dc15780634f1ef28614611bad57806352d1902d14611b4657806353f7fd48146116c75780635c975abb146116985780636c2eb35014611333578063715018a6146112ca57806371a8cf2d1461129c57806382bdeaad146111845780638456cb591461111157806384d22a4f146110b357806388f50cf01461107a5780638b1edf1e146110135780638da5cb5b14610fde5780638f381dbe14610f985780639067088e14610f4f57806396a2ddfa14610f215780639eb939a814610eca578063a5d53a4414610e74578063ad2b3d9a14610e58578063ad3cb1cc14610e0f578063b24fcac014610965578063baaf020114610864578063c13911e814610820578063c2eb812f146104f4578063ca1e7819146104a4578063cacf66ab1461046c578063d456fd5114610436578063e3a6684f146103f7578063e6fabc09146103be578063ed612f8c14610386578063edc8722514610331578063f2fde38b14610304578063f4f20ac0146102cb5763facd743b0361000f57346102c85760203660031901126102c85761028a61277c565b60036102a55f51602061440b5f395f51905f52544290613ee8565b019060018060a01b03165f52602052602060ff60405f2054166040519015158152f35b80fd5b50346102c857806003193601126102c8575f51602061440b5f395f51905f5254600701546040516001600160a01b039091168152602090f35b50346102c85760203660031901126102c85761032e61032161277c565b610329612d54565b612cae565b80f35b50346102c857806003193601126102c857602061037e5f51602061440b5f395f51905f5254600860046103644284613ee8565b0154910154906001600160801b038260801c921690613ebd565b604051908152f35b50346102c857806003193601126102c857602060046103b45f51602061440b5f395f51905f52544290613ee8565b0154604051908152f35b50346102c857806003193601126102c8575f51602061440b5f395f51905f5254600501546040516001600160a01b039091168152602090f35b50346102c857806003193601126102c857604060085f51602061440b5f395f51905f525401548151906001600160801b038116825260801c6020820152f35b50346102c857806003193601126102c857602065ffffffffffff60045f51602061440b5f395f51905f5254015416604051908152f35b50346102c857806003193601126102c857602065ffffffffffff60025f51602061440b5f395f51905f52540154821c16604051908152f35b50346102c857806003193601126102c8576104f06104dc60046104d65f51602061440b5f395f51905f52544290613ee8565b01612aa3565b604051918291602083526020830190612918565b0390f35b50346102c857806003193601126102c857604051610511816127f0565b610519612bdc565b8152604051610527816127d5565b5f8152602081015f9052602082015261053e612bdc565b604082015261054b612c7b565b606082015260405161055c816127d5565b5f80825260208201526080820152610572612bdc565b60a08201528160c082015260e001525f51602061440b5f395f51905f5254610598612c7b565b506105a560098201614178565b906105b2600f8201614178565b600882015492604051936105c58561280c565b6001600160801b038116855260801c602085015260408401526060830152601b81015490601c810154604051926105fb846127f0565b604051610607816127a6565b60018401548152600284015463ffffffff8116602083015260201c65ffffffffffff16604082015284526040519461063e866127d5565b60038401548652600484015465ffffffffffff166020870152602085019586526040519061066b826127a6565b60058501546001600160a01b0390811683526006860154811660208401526007860154166040808401919091528601918252606086019081526106b060158601612b2e565b94608087019586526016016106c490612bfa565b9160a0870192835260c0870193845260e087019485526040519788976020895251805160208a0152602081015163ffffffff1660408a01526040015165ffffffffffff16606089015251805160808901526020015165ffffffffffff1660a088015251600160a01b6001900381511660c0880152600160a01b6001900360208201511660e0880152600160a01b60019003906040015116610100870152516101208601610200905280516001600160801b031661022087015260208101516001600160801b031661024087015260408101516102608701608090526102a087016107ad91612954565b90606001519061021f19878203016102808801526107ca91612954565b935180516001600160401b0316610140870152602001516001600160801b031661016086015251805161018086015260208101516101a0860152604001516101c0850152516101e0840152516102008301520390f35b50346102c85760203660031901126102c85760ff604060209260195f51602061440b5f395f51905f5254016004358252845220541661086260405180926128e7565bf35b50346102c85760203660031901126102c8576004356001600160401b038111610961576108959036906004016128b7565b905f51602061440b5f395f51905f5254906108af83612a38565b916108bd6040519384612827565b8383526108c984612a38565b602084019490601f1901368637601a869201915b81811061092857868587604051928392602084019060208552518091526040840192915b81811061090f575050500390f35b8251845285945060209384019390920191600101610901565b8061093e6109396001938588612af6565b612b5c565b828060a01b03165f528360205260405f205461095a8288612b1a565b52016108dd565b5080fd5b50346102c85760603660031901126102c8576001600160401b03600435116102c857610100600435360360031901126102c857600260243510156102c8576044356001600160401b038111610961576109c29036906004016128b7565b7f9b779b17422d0df92223018b32b4d1fa46e071723d6817e2486d003becc55f005c610e005760017f9b779b17422d0df92223018b32b4d1fa46e071723d6817e2486d003becc55f005d5f51602061440b5f395f51905f525490600182015415610df157815415610d95575b60038201546044600435013503610d865765ffffffffffff60048301541665ffffffffffff610a61602460043501612c30565b1610610d7857610a76600435600401836130bc565b92610a8b60a460043501600435600401613571565b808096925060051b0460201485151715610d6457610aab8560051b613f64565b8695865b818810610c1b5750610be1965060051b902090610ad1600435600401866135d5565b610ae0600435600401876139c8565b90610aef602460043501612c30565b93610afe606460043501612c22565b9360405194602086019660043560040135885265ffffffffffff60d01b9060d01b16604087015260446004350135604687015260ff60f81b9060f81b1660668601526067850152608784015260a783015260c782015260c78152610b6360e782612827565b5190209283600382015565ffffffffffff610b82602460043501612c30565b1665ffffffffffff196004830154161760048201557f7ebe42360bcb182fe0a88148b081e4557c89d09aa6af8307635ac2f83e2aaa656020604051868152a165ffffffffffff610bd6602460043501612c30565b169360243591613c4b565b15610c0c57807f9b779b17422d0df92223018b32b4d1fa46e071723d6817e2486d003becc55f005d80f35b63729d0f6b60e01b8152600490fd5b610c2f60a460043501600435600401613571565b891015610d50578860061b8101358a526019880160205260ff60408b2054166003811015610d3c57600103610d2d57600191602091610cf28b8b8e868360061b86010192610c7c846135a6565b15610d0e5760061b85013590525060198c01855260408e20805460ff19166002179055601c8c018054610cae90612d46565b90555b8c7f460119a8f69a33ed127de517d5ea464e958ce23ef19e4420a8b92bf780bbc2c986610cdd846135a6565b1515926040519060061b8701358152a26135a6565b908b60061b01358c52825360218b208186015201970196610aaf565b60409260199160061b87013583520187522060ff198154169055610cb1565b636e83084760e11b8a5260048afd5b634e487b7160e01b8b52602160045260248bfd5b634e487b7160e01b8a52603260045260248afd5b634e487b7160e01b86526011600452602486fd5b620725b160ea1b8452600484fd5b63164b6fc360e01b8452600484fd5b610db2610da6606460043501612c22565b60043560040135613027565b15610de25765ffffffffffff610dcc602460043501612c30565b164211610a2e57631ad8809560e31b8452600484fd5b637b8cb35960e01b8452600484fd5b63580683f360e01b8452600484fd5b633ee5aeb560e01b8352600483fd5b50346102c857806003193601126102c857506104f0604051610e32604082612827565b60058152640352e302e360dc1b60208201526040519182916020835260208301906128f4565b50346102c857806003193601126102c857602060405160018152f35b50346102c857806003193601126102c8576104f0610eb65f51602061440b5f395f51905f52546002610eae60018060a01b03924290613ee8565b015416612ff8565b6040519182916020835260208301906128f4565b50346102c857806003193601126102c857610ee3612bdc565b506060610f0060165f51602061440b5f395f51905f525401612bfa565b61086260405180926040809180518452602081015160208501520151910152565b50346102c857806003193601126102c8576020601b5f51602061440b5f395f51905f52540154604051908152f35b50346102c85760203660031901126102c857610f6961277c565b601a5f51602061440b5f395f51905f5254019060018060a01b03165f52602052602060405f2054604051908152f35b50346102c85760203660031901126102c857600435906001600160401b0382116102c8576020610fd4610fce36600486016128b7565b90612b70565b6040519015158152f35b50346102c857806003193601126102c8575f5160206143cb5f395f51905f52546040516001600160a01b039091168152602090f35b50346102c857806003193601126102c85761102c612d1f565b5f51602061440b5f395f51905f52546001810190815461106b576002015463ffffffff164090811561105c575580f35b63f7bac7b560e01b8352600483fd5b6309476b0360e41b8352600483fd5b50346102c857806003193601126102c8575f51602061440b5f395f51905f5254600601546040516001600160a01b039091168152602090f35b50346102c857806003193601126102c8576110cc61299b565b5060406110e960155f51602061440b5f395f51905f525401612b2e565b610862825180926001600160801b03602080926001600160401b038151168552015116910152565b50346102c857806003193601126102c85761112a612d54565b611132612d1f565b600160ff195f51602061442b5f395f51905f525416175f51602061442b5f395f51905f52557f62e78cea01bee320cd4e420270b5ea74000d11b0c9f74754ebdbfc544b05a2586020604051338152a180f35b50346102c85760203660031901126102c8576004356001600160401b038111610961576111b59036906004016128b7565b905f51602061440b5f395f51905f5254906111cf83612a38565b916111dd6040519384612827565b8383526111e984612a38565b602084019490601f19013686376019869201915b81811061125257868587604051928392602084019060208552518091526040840192915b81811061122f575050500390f35b919350916020808261124460019488516128e7565b019401910191849392611221565b61125d818386612af6565b3587528260205260ff6040882054166112768287612b1a565b600382101561128857526001016111fd565b634e487b7160e01b89526021600452602489fd5b50346102c857806003193601126102c857602060035f51602061440b5f395f51905f52540154604051908152f35b50346102c857806003193601126102c8576112e3612d54565b5f5160206143cb5f395f51905f5280546001600160a01b0319811690915581906001600160a01b03167f8be0079c531659141344cd1fd0a4f28419497f9722a3daafe3b4186f6b6457e08280a380f35b50346102c857806003193601126102c85761134c612d54565b5f51602061444b5f395f51905f525460ff8160401c16908115611683575b50611674575f51602061444b5f395f51905f52805468ffffffffffffffffff1916680100000000000000021790555f5160206143cb5f395f51905f52546113c4906001600160a01b03166113bc613f04565b610329613f04565b7fc7f505b2f371ae2175ee4913f4499e1f2633a7b5936321eed1cdaeb6115181d260205f51602061440b5f395f51905f525460409081516114058382612827565b601781528381017f726f757465722e73746f726167652e526f7574657256320000000000000000008152611437612d54565b5f199151902001855260ff198386201690815f51602061440b5f395f51905f52557f059eb9adf6e95b839d818142ed5bd5e498b6d95138e65c91525e93cc0f0339fc848451848152a1611488612d87565b80516001840155600283019063ffffffff868201511669ffffffffffff00000000868454930151881b169169ffffffffffffffffffff191617179055600581016005830190808203611626575b5050600881016001600160801b038154169060088401916001600160801b0319835416178255546001600160801b03825491811916911617905561155e61151c4283613ee8565b6115336001600160a01b036002610eae4287613ee8565b61154960046115424287613ee8565b01926129b3565b906115544293612aa3565b9160098701612dcf565b6015810160158301908082036115d4575b50506016810160168301918183036115b4575b5050505060ff60401b195f51602061444b5f395f51905f5254165f51602061444b5f395f51905f52555160028152a180f35b60189283925490556017810154601785015501549101555f808080611582565b806001600160401b03806001600160801b03935416166001600160401b031984541617835554851c16600160401b600160c01b03825491861b1690600160401b600160c01b0319161790555f8061156f565b5481546001600160a01b03199081166001600160a01b039283161790925560068381015490850180548416918316919091179055600780840154908501805490931691161790555f806114d5565b63f92ee8a960e01b8152600490fd5b600291506001600160401b031610155f61136a565b50346102c857806003193601126102c857602060ff5f51602061442b5f395f51905f5254166040519015158152f35b50346102c8576101603660031901126102c8576116e261277c565b6024356001600160a01b0381169190829003611b4257611700612750565b91611709612766565b9260c43591608435919060a43560403660e3190112611b3e5761012435946001600160401b038611611b3a5736602387011215611b3a578560040135916001600160401b038311611b36573660248489010111611b3657610144356001600160401b038111611b32576117809036906004016128b7565b9690945f51602061444b5f395f51905f5254996001600160401b0360ff8c60401c16159b1680159081611b2a575b6001149081611b20575b159081611b17575b50611b0857611802908b60016001600160401b03195f51602061444b5f395f51905f525416175f51602061444b5f395f51905f5255611ad8575b6113bc613f04565b61180a613f04565b611812613f04565b4215611ac9578215611aba5782821115611aab57600a61183284846129d1565b04841015611a9c5760409a8b918d835161184c8582612827565b60178152602081017f726f757465722e73746f726167652e526f757465725631000000000000000000815261187f612d54565b905190205f190190526020808f2060ff19165f51602061440b5f395f51905f528190558451818152909a917f059eb9adf6e95b839d818142ed5bd5e498b6d95138e65c91525e93cc0f0339fc91a16118d5612d87565b805160018c015560028b0190602081015163ffffffff1686835492015160201b69ffffffffffff00000000169169ffffffffffffffffffff19161717905583519061191f826127a6565b8282526001600160a01b03908116602083018190529381169490910184905260058a018054919092166001600160a01b03199182161790915560068901805482169092179091556007880180549091169091179055700300000000000000000000000000000002600887015561199361299b565b50895161199f816127d5565b639502f90081526509184e72a0006020909101526015860180546001600160c01b0319166d09184e72a000000000009502f900179055895183908b906119e4816127a6565b8381528460208201520152601686015560178501556018840155865194611a0a866127d5565b60e4358652610104356020870152611a26913691602401612863565b9042933690611a3492612a4f565b9160090193611a4294612dcf565b611a4a575080f35b60207fc7f505b2f371ae2175ee4913f4499e1f2633a7b5936321eed1cdaeb6115181d29160ff60401b195f51602061444b5f395f51905f5254165f51602061444b5f395f51905f52555160018152a180f35b63145e348f60e01b8c5260048cfd5b6353b2bbed60e01b8c5260048cfd5b63f7ba6bdb60e01b8c5260048cfd5b63b7d0949760e01b8c5260048cfd5b600160401b60ff60401b195f51602061444b5f395f51905f525416175f51602061444b5f395f51905f52556117fa565b63f92ee8a960e01b8d5260048dfd5b9050155f6117c0565b303b1591506117b8565b8c91506117ae565b8a80fd5b8980fd5b8880fd5b8780fd5b8280fd5b50346102c857806003193601126102c8577f00000000000000000000000000000000000000000000000000000000000000006001600160a01b03163003611b9e5760206040515f5160206143eb5f395f51905f528152f35b63703e46dd60e11b8152600490fd5b5060403660031901126102c857611bc261277c565b906024356001600160401b03811161096157611be2903690600401612899565b6001600160a01b037f000000000000000000000000000000000000000000000000000000000000000016308114908115611d9f575b50611d9057611c24612d54565b6040516352d1902d60e01b8152926001600160a01b0381169190602085600481865afa80958596611d58575b50611c6957634c9c8ce360e01b84526004839052602484fd5b9091845f5160206143eb5f395f51905f528103611d465750813b15611d34575f5160206143eb5f395f51905f5280546001600160a01b031916821790557fbc7cd75a20ee27fd9adebab32041f755214dbc6bffa90cc0225b39da2e5c2d3b8480a28151839015611d1a5780836020611d0e95519101845af43d15611d12573d91611cf283612848565b92611d006040519485612827565b83523d85602085013e6142ea565b5080f35b6060916142ea565b50505034611d255780f35b63b398979f60e01b8152600490fd5b634c9c8ce360e01b8452600452602483fd5b632a87526960e21b8552600452602484fd5b9095506020813d602011611d88575b81611d7460209383612827565b81010312611d845751945f611c50565b5f80fd5b3d9150611d67565b63703e46dd60e11b8252600482fd5b5f5160206143eb5f395f51905f52546001600160a01b0316141590505f611c17565b50346102c857806003193601126102c857602060405160028152f35b50346102c857806003193601126102c857611df6612d54565b5f51602061442b5f395f51905f525460ff811615611e4e5760ff19165f51602061442b5f395f51905f52557f5db9ee0a495bf2e6ff9c91a7834c1ba4fdd244a5e8aa4e537bd38aeae4b073aa6020604051338152a180f35b638dfc202b60e01b8252600482fd5b50346102c85760203660031901126102c857611e7761277c565b611e7f612d54565b5f51602061440b5f395f51905f525460050180546001600160a01b0319166001600160a01b0390921691909117905580f35b50346102c857806003193601126102c857611eca61299b565b506040611eee611ee95f51602061440b5f395f51905f52544290613ee8565b6129b3565b60208251918051835201516020820152f35b50346102c85760603660031901126102c857600435611f1d612750565b611f25612d1f565b5f51602061440b5f395f51905f5254600181015415610df1578284526019810160205260ff604085205416600381101561211757600203612108578284526024356020526040842060405160608101908082106001600160401b0383111761210457605a916040527f3d605080600a3d3981f3608060405263e6fabc0960e01b5f5260205f6004817381523060601b6b5afa15604c575f80805136821760208201527f80378136915af43d5f803e156048573d5ff35b3d5ffd5b5f80fd000000000000604082015286f5908115612100576001600160a01b0382165f908152601a820160205260409020849055601b01805461202090612d46565b90556040516001600160a01b03821680825293907f8008ec1d8798725ebfa0f2d128d52e8e717dcba6e0f786557eeee70614b02bf190602090a2506001600160a01b0381166120fb5750335b5f51602061440b5f395f51905f5254600501546001600160a01b0316823b156120f757604051631c9776b560e31b81526001600160a01b039092166004830152602482015260016044820152828160648183865af180156120ec576120d7575b602082604051908152f35b6120e2838092612827565b61096157816120cc565b6040513d85823e3d90fd5b8380fd5b61206c565b8480fd5b8680fd5b630e2637d160e01b8452600484fd5b634e487b7160e01b85526021600452602485fd5b50346102c857806003193601126102c857602060015f51602061440b5f395f51905f52540154604051908152f35b50346102c85760203660031901126102c857600435612176612d1f565b814915612229575f51602061440b5f395f51905f525460018101541561221a576019018183528060205260ff6040842054166003811015612206576121f75781835260209081526040808420805460ff19166001179055519182527f5c261a095dd5720475295dc06379921c003c22164ee6cae5cf83e76ce0a1b98591a180f35b6304c51a3360e31b8352600483fd5b634e487b7160e01b84526021600452602484fd5b63580683f360e01b8352600483fd5b637bb2fa2f60e11b8252600482fd5b34611d84576080366003190112611d8457600435612254612750565b9061225d612766565b91612266612d1f565b5f51602061440b5f395f51905f525460018101541561008257825f526019810160205260ff60405f20541660038110156127125760020361270357825f5260243560205260405f206040516102c08101908082106001600160401b03831117611d84576102b0916040527f60808060405261029e90816100128239f3fe608060405260043610610254575f81527f3560e01c806336a52a18146100ab57806342129d00146100a65780635ce6c32760208201527f146100a1578063701da98e1461009c578063704ed542146100975780637a8e0c60408201527fdd1461009257806391d5a64c1461008d5780639ce110d714610088578063affe60608201527fd0e0146100835763e43f3433036102545761023f565b610222565b6101fa565b60808201527f6101e4565b6101b1565b610181565b610165565b610143565b610106565b346160a08201527ed4575f3660031901126100d45760025460081c6001600160a01b031660809060c08201527f8152602090f35b5f80fd5b9181601f840112156100d45782359167ffffffffff60e08201527fffffff83116100d457602083818601950101116100d457565b604036600319016101008201527f126100d45760043567ffffffffffffffff81116100d4576101329036906004016101208201527f6100d8565b505060243580151514610254575f80fd5b346100d4575f366003196101408201527f01126100d457602060ff600254166040519015158152f35b346100d4575f36606101608201527f031901126100d45760205f54604051908152f35b346100d457602036600319016101808201527f126100d4576004356fffffffffffffffffffffffffffffffff811614610254576101a08201527f5f80fd5b60403660031901126100d45760243567ffffffffffffffff811161006101c08201527fd4576101dd9036906004016100d8565b5050610254565b346100d457602036606101e08201527f0319011215610254575f80fd5b346100d4575f3660031901126100d4576003546102008201527f6040516001600160a01b039091168152602090f35b346100d4575f36600319016102208201527f126100d4576020600154604051908152f35b346100d4575f36600319011215616102408201523060601c7f0254575f80fd5b63e6fabc0960e01b5f5260205f60048173000000000000000017610260820152735afa156100d4575f808051368280378136915af43060a01b176102808201526f3d5f803e1561029a573d5ff35b3d5ffd60801b6102a08201525ff5908115611d84576001600160a01b0382165f908152601a820160205260409020849055601b01805461264290612d46565b90556040516001600160a01b03821680825293907f8008ec1d8798725ebfa0f2d128d52e8e717dcba6e0f786557eeee70614b02bf190602090a2506001600160a01b0381166126fd575033915b813b15611d8457604051631c9776b560e31b81526001600160a01b039384166004820152921660248301525f604483018190528260648183855af19182156126f2576020926126e2575b50604051908152f35b5f6126ec91612827565b5f6126d9565b6040513d5f823e3d90fd5b9161268f565b630e2637d160e01b5f5260045ffd5b634e487b7160e01b5f52602160045260245ffd5b34611d84575f366003190112611d8457602090601c5f51602061440b5f395f51905f525401548152f35b604435906001600160a01b0382168203611d8457565b606435906001600160a01b0382168203611d8457565b600435906001600160a01b0382168203611d8457565b35906001600160a01b0382168203611d8457565b606081019081106001600160401b038211176127c157604052565b634e487b7160e01b5f52604160045260245ffd5b604081019081106001600160401b038211176127c157604052565b61010081019081106001600160401b038211176127c157604052565b608081019081106001600160401b038211176127c157604052565b90601f801991011681019081106001600160401b038211176127c157604052565b6001600160401b0381116127c157601f01601f191660200190565b92919261286f82612848565b9161287d6040519384612827565b829481845281830111611d84578281602093845f960137010152565b9080601f83011215611d84578160206128b493359101612863565b90565b9181601f84011215611d84578235916001600160401b038311611d84576020808501948460051b010111611d8457565b9060038210156127125752565b805180835260209291819084018484015e5f828201840152601f01601f1916010190565b90602080835192838152019201905f5b8181106129355750505090565b82516001600160a01b0316845260209384019390920191600101612928565b9060208251805183520151602082015260018060a01b03602083015116604082015260806060612992604085015160a08386015260a0850190612918565b93015191015290565b604051906129a8826127d5565b5f6020838281520152565b906040516129c0816127d5565b602060018294805484520154910152565b919082039182116129de57565b634e487b7160e01b5f52601160045260245ffd5b81156129fc570490565b634e487b7160e01b5f52601260045260245ffd5b9190826040910312611d8457604051612a28816127d5565b6020808294803584520135910152565b6001600160401b0381116127c15760051b60200190565b929190612a5b81612a38565b93612a696040519586612827565b602085838152019160051b8101928311611d8457905b828210612a8b57505050565b60208091612a9884612792565b815201910190612a7f565b90604051918281549182825260208201905f5260205f20925f5b818110612ad4575050612ad292500383612827565b565b84546001600160a01b0316835260019485019487945060209093019201612abd565b9190811015612b065760051b0190565b634e487b7160e01b5f52603260045260245ffd5b8051821015612b065760209160051b010190565b90604051612b3b816127d5565b91546001600160401b038116835260401c6001600160801b03166020830152565b356001600160a01b0381168103611d845790565b612b895f51602061440b5f395f51905f52544290613ee8565b600301905f5b838110612b9f5750505050600190565b612bad610939828685612af6565b6001600160a01b03165f9081526020849052604090205460ff1615612bd457600101612b8f565b505050505f90565b60405190612be9826127a6565b5f6040838281528260208201520152565b90604051612c07816127a6565b60406002829480548452600181015460208501520154910152565b3560ff81168103611d845790565b3565ffffffffffff81168103611d845790565b60405190612c508261280c565b5f606083604051612c60816127d5565b83815283602082015281528260208201528160408201520152565b60405190612c888261280c565b815f81525f6020820152612c9a612c43565b60408201526060612ca9612c43565b910152565b6001600160a01b03168015612d0c575f5160206143cb5f395f51905f5280546001600160a01b0319811683179091556001600160a01b03167f8be0079c531659141344cd1fd0a4f28419497f9722a3daafe3b4186f6b6457e05f80a3565b631e4fbdf760e01b5f525f60045260245ffd5b60ff5f51602061442b5f395f51905f525416612d3757565b63d93c066560e01b5f5260045ffd5b5f1981146129de5760010190565b5f5160206143cb5f395f51905f52546001600160a01b03163303612d7457565b63118cdaa760e01b5f523360045260245ffd5b612d8f612bdc565b50604051612d9c816127a6565b5f815263ffffffff4316602082015265ffffffffffff4216604082015290565b818102929181159184041417156129de57565b9291908051906020810191825170014551231950b75fc4402da1732fc9bebe1982109182612fe7575b505015612fd85751845551600184015560405190612e3b6021836020808201945f86528051918291018484015e81015f838201520301601f198101845283612827565b612e78602b604051809360208201956a600b5981380380925939f360a81b87525180918484015e81015f838201520301601f198101835282612827565b51905ff06001600160a01b03811615612fc9576002830180546001600160a01b0319166001600160a01b039092169190911790555f5b600483018054821015612eec575f90815260208082208301546001600160a01b0316825260038501905260409020805460ff19169055600101612eae565b5050925f5b8451811015612f35576001906001600160a01b03612f0f8288612b1a565b5116828060a01b03165f526003840160205260405f208260ff1982541617905501612ef1565b5092600482018151916001600160401b0383116127c157600160401b83116127c1578154838355808410612f9f575b50602001905f5260205f205f5b838110612f82575050505060050155565b82516001600160a01b031681830155602090920191600101612f71565b825f52838060205f20019103905f5b828110612fbc575050612f64565b5f82820155600101612fae565b633011642560e01b5f5260045ffd5b63375f0aab60e11b5f5260045ffd5b612ff192506142c7565b5f80612df8565b803b905f198201908282116129de5760019060405193603e601f19910116840160405282845260208401903c90565b435f19810193929084116129de5760ff1643811061307757505f925b83811015613053575b505f925050565b80408281036130655750600193505050565b15613072575f1901613043565b61304c565b61308190436129d1565b92613043565b903590601e1981360301821215611d8457018035906001600160401b038211611d8457602001918160051b36038313611d8457565b906080810160016130cd8284613087565b905011613562576130de8183613087565b90501561353b576130ee91613087565b15612b0657803590603e1981360301821215611d845701916131108380613087565b9190928260051b93838504602014841517156129de5761313285969495613f64565b925f945f97601a60fe19853603019501965b888a10156134f3578960051b85013586811215611d8457850161316681612b5c565b6001600160a01b03165f90815260208a9052604090205415610064575f608082016001600160801b0361319882613f2f565b161515806134e0575b6134cf575b6001600160a01b036131b784612b5c565b604051630427a21d60e11b81526020600482015294911691610124850191906001600160801b0390613236906001600160a01b036131f485612792565b1660248901526020840135604489015261321060408501613f43565b151560648901526001600160a01b0361322b60608601612792565b166084890152613f50565b1660a486015261324860a08201613f43565b151560c486015236819003601e190160c082013581811215611d84578201602081359101936001600160401b038211611d84576060820236038513611d8457819061010060e48a015252610144870193905f905b8082106134855750505060e082013590811215611d845701803560208201926001600160401b038211611d84578160051b908136038513611d845791879594936023198785030161010488015281845260208085019385010194935f9160fe19813603015b8484106133785750505050505050602093916001600160801b03848093039316905af19081156126f2575f91613346575b50816020916001938a015201990198613144565b90506020813d8211613370575b8161336060209383612827565b81010312611d8457516001613332565b3d9150613353565b919395979850919395601f19848203018752873582811215611d84578301602081013582526001600160a01b036133b160408301612792565b1660208301526060810135603e193683900301811215611d84578101602081013591906040016001600160401b038311611d84578236038113611d8457829060e060408601528160e08601526101008501375f61010083850101526001600160801b0361342060808301613f50565b16606084015260a0810135608084015260c081013563ffffffff60e01b8116809103611d84578360209361346260e086956101009560a060019a015201613f43565b151560c0830152601f80199101160101990197019401918a989796959391613301565b90919460608060019288358152838060a01b036134a460208b01612792565b1660208201526001600160801b036134be60408b01613f50565b16604082015201960192019061329c565b90506134da81613f2f565b906131a6565b506134ed60a084016135a6565b156131a1565b5094935095509550506020925020910135907fd04cd9af813f6f0b56e9411a6ee6a84eb5ac35a96f0c33d2e3a07d65baa8f4186020604051848152a15f5260205260405f2090565b5050507fc5d2460186f7233c927e7db2dcc703c0e500b653ca82273b7bfad8045d85a47090565b6306d6c38360e01b5f5260045ffd5b903590601e1981360301821215611d8457018035906001600160401b038211611d8457602001918160061b36038313611d8457565b358015158103611d845790565b903590605e1981360301821215611d84570190565b919082018092116129de57565b60c0820160016135e58285613087565b905011613987576135f68184613087565b90501561353b576136079083613087565b15612b0657803590607e1981360301821215611d845701916060830190602061362f83612c30565b91019065ffffffffffff8061364384612c30565b16911610156139785761365582612c30565b65ffffffffffff80600286015460201c169116106139695761369b65ffffffffffff61369461368e8261368787612c30565b1687613f89565b93612c30565b1684613f89565b111561395a576007820154600690920180548435946001600160a01b0394851694604082019391925f916020911660446136e1836136d989896135b3565b01358b6135c8565b604051948593849263095ea7b360e01b84528c600485015260248401525af19081156126f2575f9161391f575b5015613910575460405163394f179b60e11b81526001600160a01b03909116600482015260248101959095526020818101356044870152856064815f885af19485156126f2575f956138d8575b5090613766916135b3565b9161377082612c30565b9260405193637fbe95b560e01b85526040600486015260a48501918035601e1982360301811215611d84578101602081359101936001600160401b038211611d84578160061b36038513611d845760606044890152819052869360c485019392915f5b8181106138a057505050836020959365ffffffffffff829484895f9601356064860152613809604060018060a01b039201612792565b16608485015216602483015203925af19182156126f2575f9261386a575b5061383190612c30565b6040519160208301938452604083015265ffffffffffff60d01b9060d01b16606082015260468152613864606682612827565b51902090565b9091506020813d602011613898575b8161388660209383612827565b81010312611d84575190613831613827565b3d9150613879565b919550919293604080600192838060a01b036138bb8a612792565b1681526020890135602082015201960191019188959493926137d3565b919094506020823d602011613908575b816138f560209383612827565b81010312611d845790519361376661375b565b3d91506138e8565b6367b9145160e01b5f5260045ffd5b90506020813d602011613952575b8161393a60209383612827565b81010312611d8457518015158103611d84575f61370e565b3d915061392d565b6308027f7760e31b5f5260045ffd5b637bde91e760e11b5f5260045ffd5b63087a19ab60e41b5f5260045ffd5b633249ceed60e11b5f5260045ffd5b903590601e1981360301821215611d8457018035906001600160401b038211611d8457602001918136038313611d8457565b9060e0810160016139d98284613087565b905011613c3c576139ea8183613087565b90501561353b576139fa91613087565b15612b0657803590609e1981360301821215611d8457016060810190613a208282613087565b905015613c2d5765ffffffffffff600284015460201c1691613a4283426129d1565b613a51601686015480926129f2565b93608084013594600181018091116129de578503613c1e57613a7685613a7c93612dbc565b906135c8565b93613a8b6017820154866129d1565b4210613c0f57613a9a90613fb1565b934260058601541015613c0057613aef906040840195613ae1613ae9613ac08988613996565b9190613acc888a613087565b949091613ad9368c612a10565b943691612863565b933691612a4f565b92612dcf565b7fa1a3b42179ad30022438a1ea333b38eaf4a7329beee5e2b8111c0dcd4e08821c6020604051858152a160a082360312611d845760405193613b308561280c565b613b3a3684612a10565b8552356001600160401b038111611d8457613b589036908401612899565b602085015235906001600160401b038211611d84570136601f82011215611d8457613b8a903690602081359101612a4f565b91826040820152816060820152519160208351930151906040519283926020840195865260408401526060830160208351919301905f5b818110613bde575050508152038082526138649060200182612827565b82516001600160a01b0316855286955060209485019490920191600101613bc1565b6333fc8f5160e21b5f5260045ffd5b6372a84ce560e11b5f5260045ffd5b6343d3f5bf60e01b5f5260045ffd5b636c2bf3db60e01b5f5260045ffd5b631d3fc6bf60e21b5f5260045ffd5b909493919365ffffffffffff600283015460201c16613c6a4284613f89565b613c82613c7c60168601548093612dbc565b836135c8565b918284108080613ea7575b15613e7557508310613e6757613ca390836135c8565b10613e5857613cb3905b82613ee8565b94601960f81b5f523060601b60025260165260365f209360028110156127125780613d4457505060018103613d355715612b0657613cf481613cfb92613996565b3691612863565b916060835103613d26578260206128b494015160606040830151920151926001815491015490613fcc565b632ce466bf60e01b5f5260045ffd5b6360a1ea7760e01b5f5260045ffd5b919391600114613d575750505050505f90565b613d7c90600860048796970154910154906001600160801b038260801c921690613ebd565b925f9260035f9201915b86811015613e4d57613db5613dac613da6613cf48460051b860186613996565b8661422d565b90929192614267565b6001600160a01b0381165f9081526020859052604090205460ff16613de0575b506001905b01613d86565b6001600160a01b03165f9081527ff02b465737fa6045c2ff53fb2df43c66916ac2166fa303264668fb2f6a1d8c0060205260409020805c15613e255750600190613dda565b946001613e3392965d612d46565b93858514613e41575f613dd5565b50505050505050600190565b505050505050505f90565b63046bb1e560e51b5f5260045ffd5b62f4462b60e01b5f5260045ffd5b9392915050428211613e9857613cb392613e90575b50613cad565b90505f613e8a565b6347860b9760e01b5f5260045ffd5b50613eb66018870154856135c8565b4210613c8d565b6001600160801b03809216029116613ed581836129f2565b9181156129fc5706156128b45760010190565b90613ef390826141cd565b15613efe57600f0190565b60090190565b60ff5f51602061444b5f395f51905f525460401c1615613f2057565b631afcd79f60e31b5f5260045ffd5b356001600160801b0381168103611d845790565b35908115158203611d8457565b35906001600160801b0382168203611d8457565b6040519190601f01601f191682016001600160401b03811183821017611d8457604052565b6016613fa86128b49365ffffffffffff600285015460201c16906129d1565b910154906129f2565b613fbb42826141cd565b15613fc65760090190565b600f0190565b9293919490613fdb85876142c7565b1561416e57821561416e5770014551231950b75fc4402da1732fc9bebe1983101561416e576001169061010e61401081613f64565b9160883684376002600188160160888401538760898401526002840160a984015360aa830186905260ca8301527e300046524f53542d736563703235366b312d4b454343414b3235362d76316360ea8301526303430b6160e51b61010a830152812060cc820181815290600260ec84016001815360428420809318845253604270014551231950b75fc4402da1732fc9bebe19922060801c6001600160401b0360801b8260801b16179070014551231950b75fc4402da1732fc9bebe1990600160c01b9060401c09088015613e4d5784601b6080945f9660209870014551231950b75fc4402da1732fc9bebe19910970014551231950b75fc4402da1732fc9bebe19038552018684015280604084015270014551231950b75fc4402da1732fc9bebe19910970014551231950b75fc4402da1732fc9bebe1903606082015282805260015afa505f51915f5260205260018060a01b0360405f20161490565b5050505050505f90565b614180612c43565b50600281015460058201546040519290916141c0916004916001600160a01b03166141aa8661280c565b6141b3826129b3565b8652602086015201612aa3565b6040830152606082015290565b906014600e83015492015480831461421e57818184109311918215911115918190614217575b15614208578261420257505090565b14919050565b634c38ae9560e11b5f5260045ffd5b50816141f3565b63f26224af60e01b5f5260045ffd5b815191906041830361425d576142569250602082015190606060408401519301515f1a90614348565b9192909190565b50505f9160029190565b60048110156127125780614279575050565b600181036142905763f645eedf60e01b5f5260045ffd5b600281036142ab575063fce698f760e01b5f5260045260245ffd5b6003146142b55750565b6335e2f38360e21b5f5260045260245ffd5b6401000003d01990600790829081818009900908906401000003d0199080091490565b9061430e57508051156142ff57602081519101fd5b63d6bda27560e01b5f5260045ffd5b8151158061433f575b61431f575090565b639996b31560e01b5f9081526001600160a01b0391909116600452602490fd5b50803b15614317565b91907f7fffffffffffffffffffffffffffffff5d576e7357a4501ddfe92f46681b20a084116143bf579160209360809260ff5f9560405194855216868401526040830152606082015282805260015afa156126f2575f516001600160a01b038116156143b557905f905f90565b505f906001905f90565b5050505f916003919056fe9016d09d72d40fdae2fd8ceac6b6234c7706214fd39c1cd1e609a0528c199300360894a13ba1a3210667c828492db98dca3e2076cc3735a920a3ca505d382bbc5c09ca1b9b8127a4fd9f3c384aac59b661441e820e17733753ff5f2e86e1e000cd5ed15c6e187e77e9aee88184c21f4f2182ab5827cb3b7e07fbedcd63f03300f0c57e16840df040f15088dc2f81fe391c3923bec73e23a9662efc9c229c6a00f0c57e16840df040f15088dc2f81fe391c3923bec73e23a9662efc9c229c6a00","linkReferences":{}},"methodIdentifiers":{"COMMIT_BATCH_AFTER_COMMIT_CODES()":"4429e24b","COMMIT_BATCH_BEFORE_COMMIT_CODES()":"ad2b3d9a","UPGRADE_INTERFACE_VERSION()":"ad3cb1cc","areValidators(address[])":"8f381dbe","codeState(bytes32)":"c13911e8","codesStates(bytes32[])":"82bdeaad","commitBatch((bytes32,uint48,bytes32,uint8,((address,bytes32,bool,address,uint128,bool,(bytes32,address,uint128)[],(bytes32,address,bytes,uint128,(bytes32,bytes4),bool)[])[],bytes32)[],(bytes32,bool)[],((uint256,bytes32),((address,uint256)[],uint256,address),uint48)[],((uint256,uint256),bytes,address[],uint256)[]),uint8,bytes[])":"b24fcac0","computeSettings()":"84d22a4f","createProgram(bytes32,bytes32,address)":"3683c4d2","createProgramWithAbiInterface(bytes32,bytes32,address,address)":"0c18d277","genesisBlockHash()":"28e24b3d","genesisTimestamp()":"cacf66ab","initialize(address,address,address,address,uint256,uint256,uint256,(uint256,uint256),bytes,address[])":"53f7fd48","isValidator(address)":"facd743b","latestCommittedBatchHash()":"71a8cf2d","latestCommittedBatchTimestamp()":"d456fd51","lookupGenesisHash()":"8b1edf1e","middleware()":"f4f20ac0","mirrorImpl()":"e6fabc09","owner()":"8da5cb5b","pause()":"8456cb59","paused()":"5c975abb","programCodeId(address)":"9067088e","programsCodeIds(address[])":"baaf0201","programsCount()":"96a2ddfa","proxiableUUID()":"52d1902d","reinitialize()":"6c2eb350","renounceOwnership()":"715018a6","requestCodeValidation(bytes32)":"120e3f1e","setMirror(address)":"3d43b418","signingThresholdFraction()":"e3a6684f","storageView()":"c2eb812f","timelines()":"9eb939a8","transferOwnership(address)":"f2fde38b","unpause()":"3f4ba83a","upgradeToAndCall(address,bytes)":"4f1ef286","validatedCodesCount()":"007a32e7","validators()":"ca1e7819","validatorsAggregatedPublicKey()":"3bd109fa","validatorsCount()":"ed612f8c","validatorsThreshold()":"edc87225","validatorsVerifiableSecretSharingCommitment()":"a5d53a44","wrappedVara()":"88f50cf0"},"storageLayout":{"storage":[],"types":{}},"id":165}