{"abi":[{"type":"constructor","inputs":[],"stateMutability":"nonpayable"},{"type":"receive","stateMutability":"payable"},{"type":"function","name":"DOMAIN_SEPARATOR","inputs":[],"outputs":[{"name":"","type":"bytes32","internalType":"bytes32"}],"stateMutability":"view"},{"type":"function","name":"UPGRADE_INTERFACE_VERSION","inputs":[],"outputs":[{"name":"","type":"string","internalType":"string"}],"stateMutability":"view"},{"type":"function","name":"areValidators","inputs":[{"name":"_validators","type":"address[]","internalType":"address[]"}],"outputs":[{"name":"","type":"bool","internalType":"bool"}],"stateMutability":"view"},{"type":"function","name":"bumpProtocolVersion","inputs":[],"outputs":[],"stateMutability":"nonpayable"},{"type":"function","name":"codeState","inputs":[{"name":"_codeId","type":"bytes32","internalType":"bytes32"}],"outputs":[{"name":"","type":"uint8","internalType":"enum Gear.CodeState"}],"stateMutability":"view"},{"type":"function","name":"codesStates","inputs":[{"name":"_codesIds","type":"bytes32[]","internalType":"bytes32[]"}],"outputs":[{"name":"","type":"uint8[]","internalType":"enum Gear.CodeState[]"}],"stateMutability":"view"},{"type":"function","name":"commitBatch","inputs":[{"name":"_batch","type":"tuple","internalType":"struct Gear.BatchCommitment","components":[{"name":"blockHash","type":"bytes32","internalType":"bytes32"},{"name":"blockTimestamp","type":"uint48","internalType":"uint48"},{"name":"previousCommittedBatchHash","type":"bytes32","internalType":"bytes32"},{"name":"expiry","type":"uint8","internalType":"uint8"},{"name":"chainCommitment","type":"tuple[]","internalType":"struct Gear.ChainCommitment[]","components":[{"name":"transitions","type":"tuple[]","internalType":"struct Gear.StateTransition[]","components":[{"name":"actorId","type":"address","internalType":"address"},{"name":"newStateHash","type":"bytes32","internalType":"bytes32"},{"name":"exited","type":"bool","internalType":"bool"},{"name":"inheritor","type":"address","internalType":"address"},{"name":"valueToReceive","type":"uint128","internalType":"uint128"},{"name":"valueToReceiveNegativeSign","type":"bool","internalType":"bool"},{"name":"valueClaims","type":"tuple[]","internalType":"struct Gear.ValueClaim[]","components":[{"name":"messageId","type":"bytes32","internalType":"bytes32"},{"name":"destination","type":"address","internalType":"address"},{"name":"value","type":"uint128","internalType":"uint128"}]},{"name":"messages","type":"tuple[]","internalType":"struct Gear.Message[]","components":[{"name":"id","type":"bytes32","internalType":"bytes32"},{"name":"destination","type":"address","internalType":"address"},{"name":"payload","type":"bytes","internalType":"bytes"},{"name":"value","type":"uint128","internalType":"uint128"},{"name":"replyDetails","type":"tuple","internalType":"struct Gear.ReplyDetails","components":[{"name":"to","type":"bytes32","internalType":"bytes32"},{"name":"code","type":"bytes4","internalType":"bytes4"}]},{"name":"call","type":"bool","internalType":"bool"}]}]},{"name":"head","type":"bytes32","internalType":"bytes32"},{"name":"lastAdvancedEthBlock","type":"bytes32","internalType":"bytes32"}]},{"name":"codeCommitments","type":"tuple[]","internalType":"struct Gear.CodeCommitment[]","components":[{"name":"id","type":"bytes32","internalType":"bytes32"},{"name":"valid","type":"bool","internalType":"bool"}]},{"name":"rewardsCommitment","type":"tuple[]","internalType":"struct Gear.RewardsCommitment[]","components":[{"name":"operators","type":"tuple","internalType":"struct Gear.OperatorRewardsCommitment","components":[{"name":"amount","type":"uint256","internalType":"uint256"},{"name":"root","type":"bytes32","internalType":"bytes32"}]},{"name":"stakers","type":"tuple","internalType":"struct Gear.StakerRewardsCommitment","components":[{"name":"distribution","type":"tuple[]","internalType":"struct Gear.StakerRewards[]","components":[{"name":"vault","type":"address","internalType":"address"},{"name":"amount","type":"uint256","internalType":"uint256"}]},{"name":"totalAmount","type":"uint256","internalType":"uint256"},{"name":"token","type":"address","internalType":"address"}]},{"name":"timestamp","type":"uint48","internalType":"uint48"}]},{"name":"validatorsCommitment","type":"tuple[]","internalType":"struct Gear.ValidatorsCommitment[]","components":[{"name":"hasAggregatedPublicKey","type":"bool","internalType":"bool"},{"name":"aggregatedPublicKey","type":"tuple","internalType":"struct Gear.AggregatedPublicKey","components":[{"name":"x","type":"uint256","internalType":"uint256"},{"name":"y","type":"uint256","internalType":"uint256"}]},{"name":"verifiableSecretSharingCommitment","type":"bytes","internalType":"bytes"},{"name":"validators","type":"address[]","internalType":"address[]"},{"name":"eraIndex","type":"uint256","internalType":"uint256"}]}]},{"name":"_signatureType","type":"uint8","internalType":"enum Gear.SignatureType"},{"name":"_signatures","type":"bytes[]","internalType":"bytes[]"}],"outputs":[],"stateMutability":"nonpayable"},{"type":"function","name":"computeSettings","inputs":[],"outputs":[{"name":"","type":"tuple","internalType":"struct Gear.ComputationSettings","components":[{"name":"threshold","type":"uint64","internalType":"uint64"},{"name":"wvaraPerSecond","type":"uint128","internalType":"uint128"}]}],"stateMutability":"view"},{"type":"function","name":"createProgram","inputs":[{"name":"_codeId","type":"bytes32","internalType":"bytes32"},{"name":"_salt","type":"bytes32","internalType":"bytes32"},{"name":"_overrideInitializer","type":"address","internalType":"address"}],"outputs":[{"name":"","type":"address","internalType":"address"}],"stateMutability":"nonpayable"},{"type":"function","name":"createProgramWithAbiInterface","inputs":[{"name":"_codeId","type":"bytes32","internalType":"bytes32"},{"name":"_salt","type":"bytes32","internalType":"bytes32"},{"name":"_overrideInitializer","type":"address","internalType":"address"},{"name":"_abiInterface","type":"address","internalType":"address"}],"outputs":[{"name":"","type":"address","internalType":"address"}],"stateMutability":"nonpayable"},{"type":"function","name":"createProgramWithAbiInterfaceAndExecutableBalance","inputs":[{"name":"_codeId","type":"bytes32","internalType":"bytes32"},{"name":"_salt","type":"bytes32","internalType":"bytes32"},{"name":"_overrideInitializer","type":"address","internalType":"address"},{"name":"_abiInterface","type":"address","internalType":"address"},{"name":"_initialExecutableBalance","type":"uint128","internalType":"uint128"},{"name":"_deadline","type":"uint256","internalType":"uint256"},{"name":"_v","type":"uint8","internalType":"uint8"},{"name":"_r","type":"bytes32","internalType":"bytes32"},{"name":"_s","type":"bytes32","internalType":"bytes32"}],"outputs":[{"name":"","type":"address","internalType":"address"}],"stateMutability":"nonpayable"},{"type":"function","name":"createProgramWithExecutableBalance","inputs":[{"name":"_codeId","type":"bytes32","internalType":"bytes32"},{"name":"_salt","type":"bytes32","internalType":"bytes32"},{"name":"_overrideInitializer","type":"address","internalType":"address"},{"name":"_initialExecutableBalance","type":"uint128","internalType":"uint128"},{"name":"_deadline","type":"uint256","internalType":"uint256"},{"name":"_v","type":"uint8","internalType":"uint8"},{"name":"_r","type":"bytes32","internalType":"bytes32"},{"name":"_s","type":"bytes32","internalType":"bytes32"}],"outputs":[{"name":"","type":"address","internalType":"address"}],"stateMutability":"nonpayable"},{"type":"function","name":"eip712Domain","inputs":[],"outputs":[{"name":"fields","type":"bytes1","internalType":"bytes1"},{"name":"name","type":"string","internalType":"string"},{"name":"version","type":"string","internalType":"string"},{"name":"chainId","type":"uint256","internalType":"uint256"},{"name":"verifyingContract","type":"address","internalType":"address"},{"name":"salt","type":"bytes32","internalType":"bytes32"},{"name":"extensions","type":"uint256[]","internalType":"uint256[]"}],"stateMutability":"view"},{"type":"function","name":"genesisBlockHash","inputs":[],"outputs":[{"name":"","type":"bytes32","internalType":"bytes32"}],"stateMutability":"view"},{"type":"function","name":"genesisTimestamp","inputs":[],"outputs":[{"name":"","type":"uint48","internalType":"uint48"}],"stateMutability":"view"},{"type":"function","name":"initialize","inputs":[{"name":"_owner","type":"address","internalType":"address"},{"name":"_mirror","type":"address","internalType":"address"},{"name":"_wrappedVara","type":"address","internalType":"address"},{"name":"_middleware","type":"address","internalType":"address"},{"name":"_eraDuration","type":"uint256","internalType":"uint256"},{"name":"_electionDuration","type":"uint256","internalType":"uint256"},{"name":"_validationDelay","type":"uint256","internalType":"uint256"},{"name":"_aggregatedPublicKey","type":"tuple","internalType":"struct Gear.AggregatedPublicKey","components":[{"name":"x","type":"uint256","internalType":"uint256"},{"name":"y","type":"uint256","internalType":"uint256"}]},{"name":"_verifiableSecretSharingCommitment","type":"bytes","internalType":"bytes"},{"name":"_validators","type":"address[]","internalType":"address[]"}],"outputs":[],"stateMutability":"nonpayable"},{"type":"function","name":"isValidator","inputs":[{"name":"_validator","type":"address","internalType":"address"}],"outputs":[{"name":"","type":"bool","internalType":"bool"}],"stateMutability":"view"},{"type":"function","name":"latestCommittedBatchHash","inputs":[],"outputs":[{"name":"","type":"bytes32","internalType":"bytes32"}],"stateMutability":"view"},{"type":"function","name":"latestCommittedBatchTimestamp","inputs":[],"outputs":[{"name":"","type":"uint48","internalType":"uint48"}],"stateMutability":"view"},{"type":"function","name":"lookupGenesisHash","inputs":[],"outputs":[],"stateMutability":"nonpayable"},{"type":"function","name":"middleware","inputs":[],"outputs":[{"name":"","type":"address","internalType":"address"}],"stateMutability":"view"},{"type":"function","name":"mirrorImpl","inputs":[],"outputs":[{"name":"","type":"address","internalType":"address"}],"stateMutability":"view"},{"type":"function","name":"nonces","inputs":[{"name":"owner","type":"address","internalType":"address"}],"outputs":[{"name":"","type":"uint256","internalType":"uint256"}],"stateMutability":"view"},{"type":"function","name":"owner","inputs":[],"outputs":[{"name":"","type":"address","internalType":"address"}],"stateMutability":"view"},{"type":"function","name":"pause","inputs":[],"outputs":[],"stateMutability":"nonpayable"},{"type":"function","name":"paused","inputs":[],"outputs":[{"name":"","type":"bool","internalType":"bool"}],"stateMutability":"view"},{"type":"function","name":"programCodeId","inputs":[{"name":"_programId","type":"address","internalType":"address"}],"outputs":[{"name":"","type":"bytes32","internalType":"bytes32"}],"stateMutability":"view"},{"type":"function","name":"programsCodeIds","inputs":[{"name":"_programsIds","type":"address[]","internalType":"address[]"}],"outputs":[{"name":"","type":"bytes32[]","internalType":"bytes32[]"}],"stateMutability":"view"},{"type":"function","name":"programsCount","inputs":[],"outputs":[{"name":"","type":"uint256","internalType":"uint256"}],"stateMutability":"view"},{"type":"function","name":"protocolVersion","inputs":[],"outputs":[{"name":"","type":"uint256","internalType":"uint256"}],"stateMutability":"view"},{"type":"function","name":"proxiableUUID","inputs":[],"outputs":[{"name":"","type":"bytes32","internalType":"bytes32"}],"stateMutability":"view"},{"type":"function","name":"reinitialize","inputs":[],"outputs":[],"stateMutability":"nonpayable"},{"type":"function","name":"renounceOwnership","inputs":[],"outputs":[],"stateMutability":"nonpayable"},{"type":"function","name":"requestCodeValidation","inputs":[{"name":"_codeId","type":"bytes32","internalType":"bytes32"},{"name":"_deadline","type":"uint256","internalType":"uint256"},{"name":"_v","type":"uint8","internalType":"uint8"},{"name":"_r","type":"bytes32","internalType":"bytes32"},{"name":"_s","type":"bytes32","internalType":"bytes32"}],"outputs":[],"stateMutability":"nonpayable"},{"type":"function","name":"requestCodeValidationBaseFee","inputs":[],"outputs":[{"name":"","type":"uint256","internalType":"uint256"}],"stateMutability":"view"},{"type":"function","name":"requestCodeValidationExtraFee","inputs":[],"outputs":[{"name":"","type":"uint256","internalType":"uint256"}],"stateMutability":"view"},{"type":"function","name":"requestCodeValidationOnBehalf","inputs":[{"name":"_requester","type":"address","internalType":"address"},{"name":"_codeId","type":"bytes32","internalType":"bytes32"},{"name":"_blobHashes","type":"bytes32[]","internalType":"bytes32[]"},{"name":"_deadline","type":"uint256","internalType":"uint256"},{"name":"_v1","type":"uint8","internalType":"uint8"},{"name":"_r1","type":"bytes32","internalType":"bytes32"},{"name":"_s1","type":"bytes32","internalType":"bytes32"},{"name":"_v2","type":"uint8","internalType":"uint8"},{"name":"_r2","type":"bytes32","internalType":"bytes32"},{"name":"_s2","type":"bytes32","internalType":"bytes32"}],"outputs":[],"stateMutability":"nonpayable"},{"type":"function","name":"setMirror","inputs":[{"name":"newMirror","type":"address","internalType":"address"}],"outputs":[],"stateMutability":"nonpayable"},{"type":"function","name":"setRequestCodeValidationBaseFee","inputs":[{"name":"newBaseFee","type":"uint256","internalType":"uint256"}],"outputs":[],"stateMutability":"nonpayable"},{"type":"function","name":"setRequestCodeValidationExtraFee","inputs":[{"name":"newExtraFee","type":"uint256","internalType":"uint256"}],"outputs":[],"stateMutability":"nonpayable"},{"type":"function","name":"signingThresholdFraction","inputs":[],"outputs":[{"name":"thresholdNumerator","type":"uint128","internalType":"uint128"},{"name":"thresholdDenominator","type":"uint128","internalType":"uint128"}],"stateMutability":"view"},{"type":"function","name":"storageView","inputs":[],"outputs":[{"name":"","type":"tuple","internalType":"struct IRouter.StorageView","components":[{"name":"genesisBlock","type":"tuple","internalType":"struct Gear.GenesisBlockInfo","components":[{"name":"hash","type":"bytes32","internalType":"bytes32"},{"name":"number","type":"uint32","internalType":"uint32"},{"name":"timestamp","type":"uint48","internalType":"uint48"}]},{"name":"latestCommittedBatch","type":"tuple","internalType":"struct Gear.CommittedBatchInfo","components":[{"name":"hash","type":"bytes32","internalType":"bytes32"},{"name":"timestamp","type":"uint48","internalType":"uint48"}]},{"name":"implAddresses","type":"tuple","internalType":"struct Gear.AddressBook","components":[{"name":"mirror","type":"address","internalType":"address"},{"name":"wrappedVara","type":"address","internalType":"address"},{"name":"middleware","type":"address","internalType":"address"}]},{"name":"validationSettings","type":"tuple","internalType":"struct Gear.ValidationSettingsView","components":[{"name":"thresholdNumerator","type":"uint128","internalType":"uint128"},{"name":"thresholdDenominator","type":"uint128","internalType":"uint128"},{"name":"validators0","type":"tuple","internalType":"struct Gear.ValidatorsView","components":[{"name":"aggregatedPublicKey","type":"tuple","internalType":"struct Gear.AggregatedPublicKey","components":[{"name":"x","type":"uint256","internalType":"uint256"},{"name":"y","type":"uint256","internalType":"uint256"}]},{"name":"verifiableSecretSharingCommitmentPointer","type":"address","internalType":"address"},{"name":"list","type":"address[]","internalType":"address[]"},{"name":"useFromTimestamp","type":"uint256","internalType":"uint256"}]},{"name":"validators1","type":"tuple","internalType":"struct Gear.ValidatorsView","components":[{"name":"aggregatedPublicKey","type":"tuple","internalType":"struct Gear.AggregatedPublicKey","components":[{"name":"x","type":"uint256","internalType":"uint256"},{"name":"y","type":"uint256","internalType":"uint256"}]},{"name":"verifiableSecretSharingCommitmentPointer","type":"address","internalType":"address"},{"name":"list","type":"address[]","internalType":"address[]"},{"name":"useFromTimestamp","type":"uint256","internalType":"uint256"}]}]},{"name":"computeSettings","type":"tuple","internalType":"struct Gear.ComputationSettings","components":[{"name":"threshold","type":"uint64","internalType":"uint64"},{"name":"wvaraPerSecond","type":"uint128","internalType":"uint128"}]},{"name":"timelines","type":"tuple","internalType":"struct Gear.Timelines","components":[{"name":"era","type":"uint256","internalType":"uint256"},{"name":"election","type":"uint256","internalType":"uint256"},{"name":"validationDelay","type":"uint256","internalType":"uint256"}]},{"name":"programsCount","type":"uint256","internalType":"uint256"},{"name":"validatedCodesCount","type":"uint256","internalType":"uint256"},{"name":"maxValidators","type":"uint16","internalType":"uint16"},{"name":"requestCodeValidationBaseFee","type":"uint256","internalType":"uint256"},{"name":"requestCodeValidationExtraFee","type":"uint256","internalType":"uint256"},{"name":"protocolVersion","type":"uint256","internalType":"uint256"}]}],"stateMutability":"view"},{"type":"function","name":"timelines","inputs":[],"outputs":[{"name":"","type":"tuple","internalType":"struct Gear.Timelines","components":[{"name":"era","type":"uint256","internalType":"uint256"},{"name":"election","type":"uint256","internalType":"uint256"},{"name":"validationDelay","type":"uint256","internalType":"uint256"}]}],"stateMutability":"view"},{"type":"function","name":"transferOwnership","inputs":[{"name":"newOwner","type":"address","internalType":"address"}],"outputs":[],"stateMutability":"nonpayable"},{"type":"function","name":"unpause","inputs":[],"outputs":[],"stateMutability":"nonpayable"},{"type":"function","name":"upgradeToAndCall","inputs":[{"name":"newImplementation","type":"address","internalType":"address"},{"name":"data","type":"bytes","internalType":"bytes"}],"outputs":[],"stateMutability":"payable"},{"type":"function","name":"validatedCodesCount","inputs":[],"outputs":[{"name":"","type":"uint256","internalType":"uint256"}],"stateMutability":"view"},{"type":"function","name":"validators","inputs":[],"outputs":[{"name":"","type":"address[]","internalType":"address[]"}],"stateMutability":"view"},{"type":"function","name":"validatorsAggregatedPublicKey","inputs":[],"outputs":[{"name":"","type":"tuple","internalType":"struct Gear.AggregatedPublicKey","components":[{"name":"x","type":"uint256","internalType":"uint256"},{"name":"y","type":"uint256","internalType":"uint256"}]}],"stateMutability":"view"},{"type":"function","name":"validatorsCount","inputs":[],"outputs":[{"name":"","type":"uint256","internalType":"uint256"}],"stateMutability":"view"},{"type":"function","name":"validatorsThreshold","inputs":[],"outputs":[{"name":"","type":"uint256","internalType":"uint256"}],"stateMutability":"view"},{"type":"function","name":"validatorsVerifiableSecretSharingCommitment","inputs":[],"outputs":[{"name":"","type":"bytes","internalType":"bytes"}],"stateMutability":"view"},{"type":"function","name":"wrappedVara","inputs":[],"outputs":[{"name":"","type":"address","internalType":"address"}],"stateMutability":"view"},{"type":"event","name":"BatchCommitted","inputs":[{"name":"hash","type":"bytes32","indexed":false,"internalType":"bytes32"}],"anonymous":false},{"type":"event","name":"CodeGotValidated","inputs":[{"name":"codeId","type":"bytes32","indexed":false,"internalType":"bytes32"},{"name":"valid","type":"bool","indexed":true,"internalType":"bool"}],"anonymous":false},{"type":"event","name":"CodeValidationRequested","inputs":[{"name":"codeId","type":"bytes32","indexed":false,"internalType":"bytes32"}],"anonymous":false},{"type":"event","name":"ComputationSettingsChanged","inputs":[{"name":"threshold","type":"uint64","indexed":false,"internalType":"uint64"},{"name":"wvaraPerSecond","type":"uint128","indexed":false,"internalType":"uint128"}],"anonymous":false},{"type":"event","name":"EBCommitted","inputs":[{"name":"ethBlockHash","type":"bytes32","indexed":false,"internalType":"bytes32"}],"anonymous":false},{"type":"event","name":"EIP712DomainChanged","inputs":[],"anonymous":false},{"type":"event","name":"Initialized","inputs":[{"name":"version","type":"uint64","indexed":false,"internalType":"uint64"}],"anonymous":false},{"type":"event","name":"MBCommitted","inputs":[{"name":"head","type":"bytes32","indexed":false,"internalType":"bytes32"}],"anonymous":false},{"type":"event","name":"OwnershipTransferred","inputs":[{"name":"previousOwner","type":"address","indexed":true,"internalType":"address"},{"name":"newOwner","type":"address","indexed":true,"internalType":"address"}],"anonymous":false},{"type":"event","name":"Paused","inputs":[{"name":"account","type":"address","indexed":false,"internalType":"address"}],"anonymous":false},{"type":"event","name":"ProgramCreated","inputs":[{"name":"actorId","type":"address","indexed":false,"internalType":"address"},{"name":"codeId","type":"bytes32","indexed":true,"internalType":"bytes32"}],"anonymous":false},{"type":"event","name":"ProtocolVersionChanged","inputs":[{"name":"newProtocolVersion","type":"uint256","indexed":false,"internalType":"uint256"}],"anonymous":false},{"type":"event","name":"StorageSlotChanged","inputs":[{"name":"slot","type":"bytes32","indexed":false,"internalType":"bytes32"}],"anonymous":false},{"type":"event","name":"Unpaused","inputs":[{"name":"account","type":"address","indexed":false,"internalType":"address"}],"anonymous":false},{"type":"event","name":"Upgraded","inputs":[{"name":"implementation","type":"address","indexed":true,"internalType":"address"}],"anonymous":false},{"type":"event","name":"ValidatorsCommittedForEra","inputs":[{"name":"eraIndex","type":"uint256","indexed":false,"internalType":"uint256"}],"anonymous":false},{"type":"error","name":"AddressEmptyCode","inputs":[{"name":"target","type":"address","internalType":"address"}]},{"type":"error","name":"ApproveERC20Failed","inputs":[]},{"type":"error","name":"BatchTimestampNotInPast","inputs":[]},{"type":"error","name":"BatchTimestampTooEarly","inputs":[]},{"type":"error","name":"BlobNotFound","inputs":[]},{"type":"error","name":"CodeAlreadyOnValidationOrValidated","inputs":[]},{"type":"error","name":"CodeNotValidated","inputs":[]},{"type":"error","name":"CodeValidationNotRequested","inputs":[]},{"type":"error","name":"CommitmentEraNotNext","inputs":[]},{"type":"error","name":"ECDSAInvalidSignature","inputs":[]},{"type":"error","name":"ECDSAInvalidSignatureLength","inputs":[{"name":"length","type":"uint256","internalType":"uint256"}]},{"type":"error","name":"ECDSAInvalidSignatureS","inputs":[{"name":"s","type":"bytes32","internalType":"bytes32"}]},{"type":"error","name":"ERC1967InvalidImplementation","inputs":[{"name":"implementation","type":"address","internalType":"address"}]},{"type":"error","name":"ERC1967NonPayable","inputs":[]},{"type":"error","name":"ElectionNotStarted","inputs":[]},{"type":"error","name":"EmptyValidatorsList","inputs":[]},{"type":"error","name":"EnforcedPause","inputs":[]},{"type":"error","name":"EraDurationTooShort","inputs":[]},{"type":"error","name":"ErasTimestampMustNotBeEqual","inputs":[]},{"type":"error","name":"ExpectedPause","inputs":[]},{"type":"error","name":"ExpiredSignature","inputs":[{"name":"deadline","type":"uint256","internalType":"uint256"}]},{"type":"error","name":"FailedCall","inputs":[]},{"type":"error","name":"GenesisHashAlreadySet","inputs":[]},{"type":"error","name":"GenesisHashNotFound","inputs":[]},{"type":"error","name":"InvalidAccountNonce","inputs":[{"name":"account","type":"address","internalType":"address"},{"name":"currentNonce","type":"uint256","internalType":"uint256"}]},{"type":"error","name":"InvalidBlobHash","inputs":[{"name":"index","type":"uint256","internalType":"uint256"},{"name":"providedBlobHash","type":"bytes32","internalType":"bytes32"},{"name":"expectedBlobHash","type":"bytes32","internalType":"bytes32"}]},{"type":"error","name":"InvalidBlobHashesLength","inputs":[{"name":"providedLength","type":"uint256","internalType":"uint256"},{"name":"expectedLength","type":"uint256","internalType":"uint256"}]},{"type":"error","name":"InvalidElectionDuration","inputs":[]},{"type":"error","name":"InvalidFROSTAggregatedPublicKey","inputs":[]},{"type":"error","name":"InvalidFrostSignatureCount","inputs":[]},{"type":"error","name":"InvalidFrostSignatureLength","inputs":[]},{"type":"error","name":"InvalidInitialization","inputs":[]},{"type":"error","name":"InvalidPreviousCommittedBatchHash","inputs":[]},{"type":"error","name":"InvalidSigner","inputs":[{"name":"signer","type":"address","internalType":"address"},{"name":"requester","type":"address","internalType":"address"}]},{"type":"error","name":"InvalidTimestamp","inputs":[]},{"type":"error","name":"NotInitializing","inputs":[]},{"type":"error","name":"OwnableInvalidOwner","inputs":[{"name":"owner","type":"address","internalType":"address"}]},{"type":"error","name":"OwnableUnauthorizedAccount","inputs":[{"name":"account","type":"address","internalType":"address"}]},{"type":"error","name":"PredecessorBlockNotFound","inputs":[]},{"type":"error","name":"ReentrancyGuardReentrantCall","inputs":[]},{"type":"error","name":"RewardsCommitmentEraNotPrevious","inputs":[]},{"type":"error","name":"RewardsCommitmentPredatesGenesis","inputs":[]},{"type":"error","name":"RewardsCommitmentTimestampNotInPast","inputs":[]},{"type":"error","name":"RouterGenesisHashNotInitialized","inputs":[]},{"type":"error","name":"SafeCastOverflowedUintDowncast","inputs":[{"name":"bits","type":"uint8","internalType":"uint8"},{"name":"value","type":"uint256","internalType":"uint256"}]},{"type":"error","name":"SignatureVerificationFailed","inputs":[]},{"type":"error","name":"TimestampInFuture","inputs":[]},{"type":"error","name":"TimestampOlderThanPreviousEra","inputs":[]},{"type":"error","name":"TooManyChainCommitments","inputs":[]},{"type":"error","name":"TooManyRewardsCommitments","inputs":[]},{"type":"error","name":"TooManyValidatorsCommitments","inputs":[]},{"type":"error","name":"TransferFromFailed","inputs":[]},{"type":"error","name":"UUPSUnauthorizedCallContext","inputs":[]},{"type":"error","name":"UUPSUnsupportedProxiableUUID","inputs":[{"name":"slot","type":"bytes32","internalType":"bytes32"}]},{"type":"error","name":"UnknownProgram","inputs":[]},{"type":"error","name":"ValidationBeforeGenesis","inputs":[]},{"type":"error","name":"ValidationDelayTooBig","inputs":[]},{"type":"error","name":"ValidatorsAlreadyScheduled","inputs":[]},{"type":"error","name":"ValidatorsNotFoundForTimestamp","inputs":[]},{"type":"error","name":"ZeroValueTransfer","inputs":[]}],"bytecode":{"object":"0x60a080604052346100c257306080525f516020615cee5f395f51905f525460ff8160401c166100b3576002600160401b03196001600160401b03821601610060575b604051615c2790816100c782396080518181816128db015261296e0152f35b6001600160401b0319166001600160401b039081175f516020615cee5f395f51905f525581527fc7f505b2f371ae2175ee4913f4499e1f2633a7b5936321eed1cdaeb6115181d290602090a15f80610041565b63f92ee8a960e01b5f5260045ffd5b5f80fdfe6080806040526004361015610091575b50361561001a575f80fd5b610022613c93565b5f516020615ba75f395f51905f5254600181015415610082576001600160801b0334161561007357335f908152601a9190910160205260409020541561006457005b63821a62f560e01b5f5260045ffd5b63a1a7c6eb60e01b5f5260045ffd5b63580683f360e01b5f5260045ffd5b5f905f3560e01c9081627a32e714613539575080630b9737ce146135065780630c18d2771461343b5780630d91bf2a1461326d57806311bec80d1461323a5780631622441d14612dc7578063188509e914612d9957806328e24b3d14612d6b5780632ae9c60014612d3e5780633644e51514612d235780633683c4d214612c665780633bd109fa14612c175780633d43b41814612bc35780633f4ba83a14612b435780634f1ef2861461292f57806352d1902d146128c857806353f7fd4814611edc5780635c975abb14611ead5780636c2eb3501461194a578063715018a6146118e157806371a8cf2d146118b35780637ecebe001461185b57806382bdeaad146117435780638456cb59146116d057806384b0196e146115a857806384d22a4f1461154a57806385dd663d146114cc57806388f50cf0146114935780638b1edf1e146114345780638c4ace6a146112c55780638da5cb5b146112905780638f381dbe1461124a5780639067088e1461120157806396a2ddfa146111d35780639eb939a81461117c578063a5d53a44146110fc578063ad3cb1cc146110b3578063baaf020114610fb6578063c13911e814610f72578063c2eb812f14610bce578063ca1e781914610b7e578063cacf66ab14610b46578063d456fd5114610b10578063e3a6684f14610ad1578063e6fabc0914610a98578063ed612f8c14610a60578063edc8722514610a0b578063ee32004f14610825578063f0fd702a146103cd578063f1ef31ec1461039f578063f2fde38b14610372578063f4f20ac0146103395763facd743b0361000f5734610336576020366003190112610336576102f861358f565b60036103135f516020615ba75f395f51905f525442906155d7565b019060018060a01b03165f52602052602060ff60405f2054166040519015158152f35b80fd5b50346103365780600319360112610336575f516020615ba75f395f51905f5254600701546040516001600160a01b039091168152602090f35b50346103365760203660031901126103365761039c61038f61358f565b610397613c60565b613bef565b80f35b50346103365780600319360112610336576020601f5f516020615ba75f395f51905f52540154604051908152f35b503461033657610140366003190112610336576103e861358f565b602435906044356001600160401b0381116108215761040b9036906004016135cd565b90916064359060843560ff8116810361081d5760e4359060ff8216820361081957610434613c93565b87491561080a575f516020615ba75f395f51905f5254946001860154156107fb576019860196888a528760205260ff60408b20541660038110156107e7576107d857895b80496107ca578083036107b35750895b82811061076c57508542116107585760405160208101906001600160fb1b038411610754576104d360208261059e956105a79760051b8091873781010301601f19810183528261367e565b5190209260018060a01b03861693848c527f5ab42ced628888259c08ac98db1eb0cf702fc1501344311d8b100cd1bfe4bb0060205260408c208054906001820190556040519060208201927f375d2ef9b9e33c640a295f53873dc74833c3d019f349464ce2fe8899962b809784528760408401528d6060840152608083015260a08201528860c082015260c0815261056c60e08261367e565b51902061057761579f565b906040519161190160f01b83526002830152602282015260c43591604260a4359220615880565b90929192615902565b6001600160a01b031681810361073f57505086906105dc60018060a01b0360068701541695601f601e82015491015490613a50565b93853b1561073b5760405163d505accf60e01b81526001600160a01b038516600482015230602482015260448101869052606481019190915260ff9190911660848201526101043560a48201526101243560c4820152818160e48183895af161071e575b506040516323b872dd60e01b81526001600160a01b039092166004830152306024830152604482019290925291602091839190829081606481015b03925af19081156107135784916106e4575b50156106d55781835260209081526040808420805460ff19166001179055519182527f5c261a095dd5720475295dc06379921c003c22164ee6cae5cf83e76ce0a1b98591a180f35b631e4e7d0960e21b8352600483fd5b610706915060203d60201161070c575b6106fe818361367e565b810190613820565b5f61068d565b503d6106f4565b6040513d86823e3d90fd5b8161072b9194939461367e565b6107375790855f610640565b8580fd5b8280fd5b637ba5ffb560e01b8952600452602452604487fd5b8b80fd5b632f4aa44f60e21b8a52600486905260248afd5b80498061077a8386866139ea565b35146107878386866139ea565b359015610798575050600101610488565b606493508c926306f2f0e760e21b8452600452602452604452fd5b635cfa404d60e11b8b52600483905260245260448afd5b6107d390613be1565b610478565b6304c51a3360e31b8a5260048afd5b634e487b7160e01b8b52602160045260248bfd5b63580683f360e01b8952600489fd5b637bb2fa2f60e11b8852600488fd5b8780fd5b8680fd5b8380fd5b50346103365761012036600319011261033657610840613563565b610848613579565b6084356001600160801b038116908181036109b3578460c43560ff811681036109a457610873613c93565b610881602435600435613cba565b6006015490936001600160a01b0390911691823b15610821576108c98480926040518093819263d505accf60e01b8352610104359060e4359060a4358a3033600489016137d6565b038183885af16109f6575b50506040516323b872dd60e01b81523360048201523060248201526001600160801b039190911660448201529160209183916064918391905af19081156109eb5786916109cc575b50156109bd576001600160a01b03908116939081166109b7575033915b833b156109b357604051635fd142bb60e11b81526001600160a01b03938416600482015292166024830152604482018490526064820152828160848183865af180156109a85761098f575b602082604051908152f35b61099a83809261367e565b6109a45781610984565b5080fd5b6040513d85823e3d90fd5b8480fd5b91610939565b631e4e7d0960e21b8552600485fd5b6109e5915060203d60201161070c576106fe818361367e565b5f61091c565b6040513d88823e3d90fd5b81610a009161367e565b61073b57825f6108d4565b50346103365780600319360112610336576020610a585f516020615ba75f395f51905f525460086004610a3e42846155d7565b0154910154906001600160801b038260801c921690615530565b604051908152f35b503461033657806003193601126103365760206004610a8e5f516020615ba75f395f51905f525442906155d7565b0154604051908152f35b50346103365780600319360112610336575f516020615ba75f395f51905f5254600501546040516001600160a01b039091168152602090f35b5034610336578060031936011261033657604060085f516020615ba75f395f51905f525401548151906001600160801b038116825260801c6020820152f35b5034610336578060031936011261033657602065ffffffffffff60045f516020615ba75f395f51905f5254015416604051908152f35b5034610336578060031936011261033657602065ffffffffffff60025f516020615ba75f395f51905f52540154821c16604051908152f35b5034610336578060031936011261033657610bca610bb66004610bb05f516020615ba75f395f51905f525442906155d7565b01613b8e565b604051918291602083526020830190613753565b0390f35b5034610336578060031936011261033657604051610beb81613647565b610bf3613add565b8152604051610c018161362c565b5f8152602081015f90526020820152610c18613add565b6040820152610c25613b5b565b6060820152604051610c368161362c565b5f80825260208201526080820152610c4c613add565b60a08201528160c08201528160e082015281610100820152816101208201528161014082015261016001525f516020615ba75f395f51905f5254610c8e613b5b565b50610c9b6009820161582b565b90610ca8600f820161582b565b60088201549260405193610cbb85613663565b6001600160801b038116855260801c602085015260408401526060830152601b81015490601c810154601d82015461ffff16601e830154601f8401549160208501549360405196610d0b88613647565b604051610d17816135fd565b60018801548152600288015463ffffffff8116602083015260201c65ffffffffffff166040820152885260405198610d4e8a61362c565b60038801548a52600488015465ffffffffffff1660208b015260208901998a5260405190610d7b826135fd565b60058901546001600160a01b03908116835260068a01548116602084015260078a0154166040808401919091528a0191825260608a01908152610dc060158a01613a22565b9860808b01998a52601601610dd490613afb565b9160a08b0192835260c08b0193845260e08b019485526101008b019586526101208b019687526101408b019788526101608b019889526040519b8c9b60208d52518c815190602001528c602082015163ffffffff1690604001526040015165ffffffffffff1660608d015251805160808d01526020015165ffffffffffff1660a08c015251600160a01b6001900381511660c08c0152600160a01b6001900360208201511660e08c0152600160a01b600190039060400151166101008b0152516101208a01610280905280516001600160801b03166102a08b015260208101516001600160801b03166102c08b015260408101516102e08b01608090526103208b01610edf9161378f565b90606001519061029f198b8203016103008c0152610efc9161378f565b975180516001600160401b03166101408b0152602001516001600160801b03166101608a01525180516101808a015260208101516101a08a0152604001516101c0890152516101e0880152516102008701525161ffff166102208601525161024085015251610260840152516102808301520390f35b50346103365760203660031901126103365760ff604060209260195f516020615ba75f395f51905f52540160043582528452205416610fb4604051809261370e565bf35b5034610336576020366003190112610336576004356001600160401b0381116109a457610fe79036906004016135cd565b905f516020615ba75f395f51905f5254906110018361397f565b9161100f604051938461367e565b83835261101b8461397f565b602084019490601f1901368637601a869201915b81811061107a57868587604051928392602084019060208552518091526040840192915b818110611061575050500390f35b8251845285945060209384019390920191600101611053565b8061109061108b60019385886139ea565b613a5d565b828060a01b03165f528360205260405f20546110ac8288613a0e565b520161102f565b503461033657806003193601126103365750610bca6040516110d660408261367e565b60058152640352e302e360dc1b602082015260405191829160208352602083019061372f565b50346103365780600319360112610336575f516020615ba75f395f51905f52546001600160a01b03906002906111339042906155d7565b0154166040519182915f19813b0164ffffffffff16916021830191601f8501903c808252019060408201918260405260208352611177603f1992606083019061372f565b030190f35b5034610336578060031936011261033657611195613add565b5060606111b260165f516020615ba75f395f51905f525401613afb565b610fb460405180926040809180518452602081015160208501520151910152565b50346103365780600319360112610336576020601b5f516020615ba75f395f51905f52540154604051908152f35b50346103365760203660031901126103365761121b61358f565b601a5f516020615ba75f395f51905f5254019060018060a01b03165f52602052602060405f2054604051908152f35b503461033657602036600319011261033657600435906001600160401b03821161033657602061128661128036600486016135cd565b90613a71565b6040519015158152f35b50346103365780600319360112610336575f516020615b275f395f51905f52546040516001600160a01b039091168152602090f35b50346103365760a03660031901126103365760043560443560ff8116810361073b576112ef613c93565b824915611425575f516020615ba75f395f51905f52546001810154156114165760198101918385528260205260ff6040862054166003811015611402576113f3576006820154601e9092015485926001600160a01b031691823b156108215760405163d505accf60e01b815233600482015230602480830191909152604482018490523560648083019190915260ff92909216608480830191909152913560a4820152903560c48201528390818160e48183885af16113de575b50506040516323b872dd60e01b815233600482015230602482015260448101919091529160209183918290816064810161067b565b816113e89161367e565b61073b57825f6113a9565b6304c51a3360e31b8552600485fd5b634e487b7160e01b86526021600452602486fd5b63580683f360e01b8452600484fd5b637bb2fa2f60e11b8352600483fd5b50346103365780600319360112610336575f516020615ba75f395f51905f525460018101908154611484576002015463ffffffff1640908115611475575580f35b63f7bac7b560e01b8352600483fd5b6309476b0360e41b8352600483fd5b50346103365780600319360112610336575f516020615ba75f395f51905f5254600601546040516001600160a01b039091168152602090f35b50346103365780600319360112610336576114e5613c60565b60205f516020615ba75f395f51905f5254018054906001820180921161153657817f60e5a0cd4e467d80fbdaaf85873a02b09330ec141877522528ce5ae2bd8825ec9260209255604051908152a180f35b634e487b7160e01b83526011600452602483fd5b5034610336578060031936011261033657611563613859565b50604061158060155f516020615ba75f395f51905f525401613a22565b610fb4825180926001600160801b03602080926001600160401b038151168552015116910152565b50346103365780600319360112610336575f516020615b675f395f51905f525415806116ba575b1561167d57611621906115e06153b6565b906115e9615483565b90602061162f604051936115fd838661367e565b8385525f368137604051968796600f60f81b885260e08589015260e088019061372f565b90868203604088015261372f565b904660608601523060808601528260a086015284820360c08601528080855193848152019401925b82811061166657505050500390f35b835185528695509381019392810192600101611657565b60405162461bcd60e51b81526020600482015260156024820152741152540dcc4c8e88155b9a5b9a5d1a585b1a5e9959605a1b6044820152606490fd5b505f516020615c075f395f51905f5254156115cf565b50346103365780600319360112610336576116e9613c60565b6116f1613c93565b600160ff195f516020615bc75f395f51905f525416175f516020615bc75f395f51905f52557f62e78cea01bee320cd4e420270b5ea74000d11b0c9f74754ebdbfc544b05a2586020604051338152a180f35b5034610336576020366003190112610336576004356001600160401b0381116109a4576117749036906004016135cd565b905f516020615ba75f395f51905f52549061178e8361397f565b9161179c604051938461367e565b8383526117a88461397f565b602084019490601f19013686376019869201915b81811061181157868587604051928392602084019060208552518091526040840192915b8181106117ee575050500390f35b9193509160208082611803600194885161370e565b0194019101918493926117e0565b61181c8183866139ea565b3587528260205260ff6040882054166118358287613a0e565b600382101561184757526001016117bc565b634e487b7160e01b89526021600452602489fd5b5034610336576020366003190112610336576020906040906001600160a01b0361188361358f565b1681527f5ab42ced628888259c08ac98db1eb0cf702fc1501344311d8b100cd1bfe4bb0083522054604051908152f35b5034610336578060031936011261033657602060035f516020615ba75f395f51905f52540154604051908152f35b50346103365780600319360112610336576118fa613c60565b5f516020615b275f395f51905f5280546001600160a01b0319811690915581906001600160a01b03167f8be0079c531659141344cd1fd0a4f28419497f9722a3daafe3b4186f6b6457e08280a380f35b5034610336578060031936011261033657611963613c60565b5f516020615be75f395f51905f525460ff8160401c16908115611e98575b50611e89575f516020615be75f395f51905f52805468ffffffffffffffffff1916680100000000000000051790555f516020615b275f395f51905f52546119db906001600160a01b03166119d3615800565b610397615800565b6119e361388f565b906119ec6138bc565b906119f5615800565b6119fd615800565b82516001600160401b038111611d8c57611a245f516020615b075f395f51905f525461537e565b601f8111611e25575b506020601f8211600114611dab57829394829392611da0575b50508160011b915f199060031b1c1916175f516020615b075f395f51905f52555b81516001600160401b038111611d8c57611a8e5f516020615b475f395f51905f525461537e565b601f8111611d1f575b50602092601f8211600114611ca657928293829392611c9b575b50508160011b915f199060031b1c1916175f516020615b475f395f51905f52555b805f516020615b675f395f51905f5255805f516020615c075f395f51905f52555f516020615ba75f395f51905f5254611b096152e6565b80516001830155600282019063ffffffff60208201511669ffffffffffff000000006040845493015160201b169169ffffffffffffffffffff191617179055816020604051611b578161362c565b82815201528160038201556004810165ffffffffffff19815416905561ffff6004611b8242846155d7565b01541661ffff601d8301911661ffff198254161790556004602060018060a01b036006840154166040519283809263313ce56760e01b82525afa80156109a857611bd3918491611c6c575b50613933565b806103e8026103e881048203611c5857601e830155806101f402906101f48204036115365781602091601f6001940155015560ff60401b195f516020615be75f395f51905f5254165f516020615be75f395f51905f52557fc7f505b2f371ae2175ee4913f4499e1f2633a7b5936321eed1cdaeb6115181d2602060405160058152a180f35b634e487b7160e01b84526011600452602484fd5b611c8e915060203d602011611c94575b611c86818361367e565b81019061391a565b5f611bcd565b503d611c7c565b015190505f80611ab1565b601f198216935f516020615b475f395f51905f52845280842091845b868110611d075750836001959610611cef575b505050811b015f516020615b475f395f51905f5255611ad2565b01515f1960f88460031b161c191690555f8080611cd5565b91926020600181928685015181550194019201611cc2565b81811115611a97575f516020615b475f395f51905f528352611d7e907f5f9ce34815f8e11431c7bb75a8e6886a91478f7ffc1dbb0a98dc240fddd76b7590601f840160051c9060208510611d84575b601f82910160051c039101615363565b5f611a97565b859150611d6e565b634e487b7160e01b82526041600452602482fd5b015190505f80611a46565b5f516020615b075f395f51905f52835280832090601f198316845b818110611e0d57509583600195969710611df5575b505050811b015f516020615b075f395f51905f5255611a67565b01515f1960f88460031b161c191690555f8080611ddb565b9192602060018192868b015181550194019201611dc6565b81811115611a2d575f516020615b075f395f51905f528352611e83907f42ad5d3e1f2e6e70edcf6d991b8a3023d3fca8047a131592f9edb9fd9b89d57d90601f840160051c9060208510611d8457601f82910160051c039101615363565b5f611a2d565b63f92ee8a960e01b8152600490fd5b600591506001600160401b031610155f611981565b5034610336578060031936011261033657602060ff5f516020615bc75f395f51905f5254166040519015158152f35b50346103365761016036600319011261033657611ef761358f565b906024356001600160a01b038116908190036109a457611f15613563565b92611f1e613579565b9260a43560c43560843560403660e31901126108215761012435966001600160401b0388116109b357366023890112156109b3578760040135926001600160401b03841161073757366024858b01011161073757610144356001600160401b03811161081d57611f929036906004016135cd565b9590935f516020615be75f395f51905f5254986001600160401b0360ff8b60401c16159a16801590816128c0575b60011490816128b6575b1590816128ad575b5061289e57612014908a60016001600160401b03195f516020615be75f395f51905f525416175f516020615be75f395f51905f525561286e575b6119d3615800565b61201c615800565b61202461388f565b61202c6138bc565b90612035615800565b61203d615800565b8051906001600160401b03821161285a5781908b6120685f516020615b075f395f51905f525461537e565b601f8111612809575b5050602090601f831160011461278d578c92612782575b50508160011b915f199060031b1c1916175f516020615b075f395f51905f52555b8051906001600160401b03821161276e5781906120d35f516020615b475f395f51905f525461537e565b601f81116126ff575b50602090601f8311600114612683578b92612678575b50508160011b915f199060031b1c1916175f516020615b475f395f51905f52555b875f516020615b675f395f51905f5255875f516020615c075f395f51905f525561213b615800565b612143615800565b421561266957811561265a578181111561264b57600a61216383836138db565b0483101561263c576040809a815161217b838261367e565b60178152602081017f726f757465722e73746f726167652e526f75746572563100000000000000000081526121ae613c60565b5f1991519020018a5260ff1960208b2016809e815f516020615ba75f395f51905f5255835182815260207f059eb9adf6e95b839d818142ed5bd5e498b6d95138e65c91525e93cc0f0339fc91a16122036152e6565b805160018401556002830190602081015163ffffffff1686835492015160201b69ffffffffffff00000000169169ffffffffffffffffffff19161717905583519061224d826135fd565b8382526001600160a01b0390811660208301819052988116949091018490526005919091018054919092166001600160a01b03199182161790915560068e01805482168717905560078e018054909116909117905570030000000000000000000000000000000260088d01556122c1613859565b5089516122cd8161362c565b639502f90081526509184e72a00060209091015260158c0180546001600160c01b0319166d09184e72a000000000009502f900179055895183908b90612312816135fd565b83815260208101859052015260168c015560178b015560188a0155601d8901805461ffff191661ffff8616179055865163313ce56760e01b815290819081905a92600491602094fa9081156126325790612372918691611c6c5750613933565b806103e8026103e88104820361261e57601e8a0155806101f402906101f482040361260a57906123d291601f8a01556123ca8751986123b08a61362c565b60e4358a5260208a019461010435865260243692016136ba565b933691613996565b958051825170014551231950b75fc4402da1732fc9bebe19821091826125f9575b5050156125ea5751600988015551600a870155805180851b6bfe61000180600a3d393df3000161fffe8211830152600b81016015830184f09182156125dd5752600b860180546001600160a01b0319166001600160a01b039092169190911790559092600c85019190600d860190825b825481101561249b5782845260208085208201546001600160a01b03165f90815290869052869020805460ff19169055600101612463565b509195949094865b83518110156124e3576001906001600160a01b036124c18287613a0e565b5116828060a01b03165f5285602052865f208260ff19825416179055016124a3565b50925092938151916001600160401b0383116125c957600160401b83116125c95760209082548484558085106125ae575b500190865260208620865b8381106125915750505050602060019142600e820155015561253f575080f35b60207fc7f505b2f371ae2175ee4913f4499e1f2633a7b5936321eed1cdaeb6115181d29160ff60401b195f516020615be75f395f51905f5254165f516020615be75f395f51905f52555160018152a180f35b82516001600160a01b03168183015560209092019160010161251f565b6125c390848a528580858c2001910390615363565b5f612514565b634e487b7160e01b87526041600452602487fd5b633011642584526004601cfd5b63375f0aab60e11b8452600484fd5b61260392506159fc565b5f806123f3565b634e487b7160e01b85526011600452602485fd5b634e487b7160e01b86526011600452602486fd5b87513d87823e3d90fd5b63145e348f60e01b8852600488fd5b6353b2bbed60e01b8852600488fd5b63f7ba6bdb60e01b8852600488fd5b63b7d0949760e01b8852600488fd5b015190505f806120f2565b5f516020615b475f395f51905f528c52818c209250601f1984168c5b8181106126e757509084600195949392106126cf575b505050811b015f516020615b475f395f51905f5255612113565b01515f1960f88460031b161c191690555f80806126b5565b9293602060018192878601518155019501930161269f565b828111156120dc575f516020615b475f395f51905f528c52612760907f5f9ce34815f8e11431c7bb75a8e6886a91478f7ffc1dbb0a98dc240fddd76b7590601f850160051c908e60208710612766575b50601f82910160051c039101615363565b5f6120dc565b91508e61274f565b634e487b7160e01b8a52604160045260248afd5b015190505f80612088565b5f516020615b075f395f51905f528d52818d209250601f1984168d5b8181106127f157509084600195949392106127d9575b505050811b015f516020615b075f395f51905f52556120a9565b01515f1960f88460031b161c191690555f80806127bf565b929360206001819287860151815501950193016127a9565b83811115612071575f516020615b075f395f51905f5261284b92528d6020812091601f860160051c91602087106128525750601f82910160051c039101615363565b8b5f612071565b91508f61274f565b634e487b7160e01b8b52604160045260248bfd5b600160401b60ff60401b195f516020615be75f395f51905f525416175f516020615be75f395f51905f525561200c565b63f92ee8a960e01b8952600489fd5b9050155f611fd2565b303b159150611fca565b8b9150611fc0565b50346103365780600319360112610336577f00000000000000000000000000000000000000000000000000000000000000006001600160a01b031630036129205760206040515f516020615b875f395f51905f528152f35b63703e46dd60e11b8152600490fd5b5060403660031901126103365761294461358f565b906024356001600160401b0381116109a4576129649036906004016136f0565b6001600160a01b037f000000000000000000000000000000000000000000000000000000000000000016308114908115612b21575b50612b12576129a6613c60565b6040516352d1902d60e01b8152926001600160a01b0381169190602085600481865afa80958596612ada575b506129eb57634c9c8ce360e01b84526004839052602484fd5b9091845f516020615b875f395f51905f528103612ac85750813b15612ab6575f516020615b875f395f51905f5280546001600160a01b031916821790557fbc7cd75a20ee27fd9adebab32041f755214dbc6bffa90cc0225b39da2e5c2d3b8480a28151839015612a9c5780836020612a9095519101845af43d15612a94573d91612a748361369f565b92612a82604051948561367e565b83523d85602085013e615aa8565b5080f35b606091615aa8565b50505034612aa75780f35b63b398979f60e01b8152600490fd5b634c9c8ce360e01b8452600452602483fd5b632a87526960e21b8552600452602484fd5b9095506020813d602011612b0a575b81612af66020938361367e565b81010312612b065751945f6129d2565b5f80fd5b3d9150612ae9565b63703e46dd60e11b8252600482fd5b5f516020615b875f395f51905f52546001600160a01b0316141590505f612999565b5034610336578060031936011261033657612b5c613c60565b5f516020615bc75f395f51905f525460ff811615612bb45760ff19165f516020615bc75f395f51905f52557f5db9ee0a495bf2e6ff9c91a7834c1ba4fdd244a5e8aa4e537bd38aeae4b073aa6020604051338152a180f35b638dfc202b60e01b8252600482fd5b503461033657602036600319011261033657612bdd61358f565b612be5613c60565b5f516020615ba75f395f51905f525460050180546001600160a01b0319166001600160a01b0390921691909117905580f35b5034610336578060031936011261033657612c30613859565b506040612c54612c4f5f516020615ba75f395f51905f525442906155d7565b613871565b60208251918051835201516020820152f35b503461033657606036600319011261033657612c80613563565b612c88613c93565b612c96602435600435614130565b506001600160a01b0390811691908116612d1e5750335b5f516020615ba75f395f51905f5254600501546001600160a01b0316823b1561082157604051635fd142bb60e11b81526001600160a01b03909216600483015260248201526001604482015260648101839052828160848183865af180156109a85761098f57602082604051908152f35b612cad565b50346103365780600319360112610336576020610a5861579f565b50346103365780600319360112610336576020805f516020615ba75f395f51905f52540154604051908152f35b5034610336578060031936011261033657602060015f516020615ba75f395f51905f52540154604051908152f35b50346103365780600319360112610336576020601e5f516020615ba75f395f51905f52540154604051908152f35b5034610336576060366003190112610336576001600160401b036004351161033657610100600435360360031901126103365760026024351015610336576044356001600160401b0381116109a457612e249036906004016135cd565b7f9b779b17422d0df92223018b32b4d1fa46e071723d6817e2486d003becc55f005c61322b5760017f9b779b17422d0df92223018b32b4d1fa46e071723d6817e2486d003becc55f005d5f516020615ba75f395f51905f525490600182015415611416578154156131cf575b600382015460446004350135036131c05765ffffffffffff60048301541665ffffffffffff612ec3602460043501613846565b16106131b257612ed8600435600401836142d2565b92612eed60a4600435016004356004016147d4565b808096925060051b046020148515171561261e57612f0d8560051b61556f565b8695865b81881061307d5750613043965060051b902090612f3360043560040186614816565b612f4260043560040187614bf4565b90612f51602460043501613846565b93612f60606460043501613838565b9360405194602086019660043560040135885265ffffffffffff60d01b9060d01b16604087015260446004350135604687015260ff60f81b9060f81b1660668601526067850152608784015260a783015260c782015260c78152612fc560e78261367e565b5190209283600382015565ffffffffffff612fe4602460043501613846565b1665ffffffffffff196004830154161760048201557f7ebe42360bcb182fe0a88148b081e4557c89d09aa6af8307635ac2f83e2aaa656020604051868152a165ffffffffffff613038602460043501613846565b16936024359161507d565b1561306e57807f9b779b17422d0df92223018b32b4d1fa46e071723d6817e2486d003becc55f005d80f35b63729d0f6b60e01b8152600490fd5b61309160a4600435016004356004016147d4565b89101561319e578860061b8101358a526019880160205260ff60408b20541660038110156107e75760010361318f576001916020916131548b8b8e868360061b860101926130de84614809565b156131705760061b85013590525060198c01855260408e20805460ff19166002179055601c8c01805461311090613be1565b90555b8c7f460119a8f69a33ed127de517d5ea464e958ce23ef19e4420a8b92bf780bbc2c98661313f84614809565b1515926040519060061b8701358152a2614809565b908b60061b01358c52825360218b208186015201970196612f11565b60409260199160061b87013583520187522060ff198154169055613113565b636e83084760e11b8a5260048afd5b634e487b7160e01b8a52603260045260248afd5b620725b160ea1b8452600484fd5b63164b6fc360e01b8452600484fd5b6131ec6131e0606460043501613838565b60043560040135614228565b1561321c5765ffffffffffff613206602460043501613846565b164211612e9057631ad8809560e31b8452600484fd5b637b8cb35960e01b8452600484fd5b633ee5aeb560e01b8352600483fd5b503461033657602036600319011261033657613254613c60565b600435601e5f516020615ba75f395f51905f5254015580f35b50346103365761010036600319011261033657613288613563565b6064356001600160801b03811690818103610821578360a43560ff811681036109a4576132b3613c93565b6132c1602435600435614130565b6006015490936001600160a01b0390911691823b15610821576133088480926040518093819263d505accf60e01b835260e4359060c435906084358a3033600489016137d6565b038183885af1613426575b50506040516323b872dd60e01b81523360048201523060248201526001600160801b039190911660448201529160209183916064918391905af190811561341b5785916133fc575b50156133ed576001600160a01b03908116929081166133e7575033905b5f516020615ba75f395f51905f5254600501546001600160a01b0316833b156109b357604051635fd142bb60e11b81526001600160a01b0390931660048401526024830152600160448301526064820152828160848183865af180156109a85761098f57602082604051908152f35b90613378565b631e4e7d0960e21b8452600484fd5b613415915060203d60201161070c576106fe818361367e565b5f61335b565b6040513d87823e3d90fd5b816134309161367e565b61073b57825f613313565b34612b06576080366003190112612b0657613454613563565b61345c613579565b90613465613c93565b613473602435600435613cba565b506001600160a01b0390811691908116613500575033915b813b15612b0657604051635fd142bb60e11b81526001600160a01b039384166004820152921660248301525f60448301819052606483018190528260848183855af19182156134f5576020926134e5575b50604051908152f35b5f6134ef9161367e565b5f6134dc565b6040513d5f823e3d90fd5b9161348b565b34612b06576020366003190112612b065761351f613c60565b600435601f5f516020615ba75f395f51905f525401555f80f35b34612b06575f366003190112612b0657602090601c5f516020615ba75f395f51905f525401548152f35b604435906001600160a01b0382168203612b0657565b606435906001600160a01b0382168203612b0657565b600435906001600160a01b0382168203612b0657565b35906001600160a01b0382168203612b0657565b35906001600160801b0382168203612b0657565b9181601f84011215612b06578235916001600160401b038311612b06576020808501948460051b010111612b0657565b606081019081106001600160401b0382111761361857604052565b634e487b7160e01b5f52604160045260245ffd5b604081019081106001600160401b0382111761361857604052565b61018081019081106001600160401b0382111761361857604052565b608081019081106001600160401b0382111761361857604052565b90601f801991011681019081106001600160401b0382111761361857604052565b6001600160401b03811161361857601f01601f191660200190565b9291926136c68261369f565b916136d4604051938461367e565b829481845281830111612b06578281602093845f960137010152565b9080601f83011215612b065781602061370b933591016136ba565b90565b90600382101561371b5752565b634e487b7160e01b5f52602160045260245ffd5b805180835260209291819084018484015e5f828201840152601f01601f1916010190565b90602080835192838152019201905f5b8181106137705750505090565b82516001600160a01b0316845260209384019390920191600101613763565b9060208251805183520151602082015260018060a01b036020830151166040820152608060606137cd604085015160a08386015260a0850190613753565b93015191015290565b936001600160801b0360c096929998979460ff9460e088019b60018060a01b0316885260018060a01b03166020880152166040860152606085015216608083015260a08201520152565b90816020910312612b0657518015158103612b065790565b3560ff81168103612b065790565b3565ffffffffffff81168103612b065790565b604051906138668261362c565b5f6020838281520152565b9060405161387e8161362c565b602060018294805484520154910152565b6040519061389e60408361367e565b600f82526e2b30b9309722aa24102937baba32b960891b6020830152565b604051906138cb60408361367e565b60018252603160f81b6020830152565b919082039182116138e857565b634e487b7160e01b5f52601160045260245ffd5b8115613906570490565b634e487b7160e01b5f52601260045260245ffd5b90816020910312612b06575160ff81168103612b065790565b60ff16604d81116138e857600a0a90565b818102929181159184041417156138e857565b9190826040910312612b065760405161396f8161362c565b6020808294803584520135910152565b6001600160401b0381116136185760051b60200190565b9291906139a28161397f565b936139b0604051958661367e565b602085838152019160051b8101928311612b0657905b8282106139d257505050565b602080916139df846135a5565b8152019101906139c6565b91908110156139fa5760051b0190565b634e487b7160e01b5f52603260045260245ffd5b80518210156139fa5760209160051b010190565b90604051613a2f8161362c565b91546001600160401b038116835260401c6001600160801b03166020830152565b919082018092116138e857565b356001600160a01b0381168103612b065790565b613a8a5f516020615ba75f395f51905f525442906155d7565b600301905f5b838110613aa05750505050600190565b613aae61108b8286856139ea565b6001600160a01b03165f9081526020849052604090205460ff1615613ad557600101613a90565b505050505f90565b60405190613aea826135fd565b5f6040838281528260208201520152565b90604051613b08816135fd565b60406002829480548452600181015460208501520154910152565b60405190613b3082613663565b5f606083604051613b408161362c565b83815283602082015281528260208201528160408201520152565b60405190613b6882613663565b815f81525f6020820152613b7a613b23565b60408201526060613b89613b23565b910152565b90604051918281549182825260208201905f5260205f20925f5b818110613bbf575050613bbd9250038361367e565b565b84546001600160a01b0316835260019485019487945060209093019201613ba8565b5f1981146138e85760010190565b6001600160a01b03168015613c4d575f516020615b275f395f51905f5280546001600160a01b0319811683179091556001600160a01b03167f8be0079c531659141344cd1fd0a4f28419497f9722a3daafe3b4186f6b6457e05f80a3565b631e4fbdf760e01b5f525f60045260245ffd5b5f516020615b275f395f51905f52546001600160a01b03163303613c8057565b63118cdaa760e01b5f523360045260245ffd5b60ff5f516020615bc75f395f51905f525416613cab57565b63d93c066560e01b5f5260045ffd5b9190915f516020615ba75f395f51905f52549260018401541561008257815f526019840160205260ff60405f205416600381101561371b5760020361412157815f5260205260405f206040516103008101908082106001600160401b03831117612b06576102fb916040527f6080806040526102e990816100128239f3fe60806040526004361061029f575f81527f3560e01c806336a52a18146100bb57806342129d00146100b65780635ce6c32760208201527f146100b1578063701da98e146100ac578063704ed542146100a75780637a8e0c60408201527fdd146100a257806391d5a64c1461009d5780639ce110d714610098578063affe60608201527fd0e014610093578063c60496921461008e5763e43f34330361029f5761028a5660808201527f5b610260565b610243565b61021b565b610205565b6101d2565b6101b3565b6160a08201527f0178565b610156565b610119565b346100e7575f3660031901126100e757600260c08201527f5460405160089190911c6001600160a01b03168152602090f35b5f80fd5b918160e08201527f601f840112156100e75782359167ffffffffffffffff83116100e757602083816101008201527f8601950101116100e757565b60403660031901126100e75760043567ffffffff6101208201527fffffffff81116100e7576101459036906004016100eb565b50506024358015156101408201527f1461029f575f80fd5b346100e7575f3660031901126100e757602060ff6002546101608201527f166040519015158152f35b346100e7575f3660031901126100e75760205f54606101808201527f4051908152f35b600435906fffffffffffffffffffffffffffffffff821682036101a08201527f6100e757565b346100e75760203660031901126100e7576101cc610194565b506101c08201527f61029f565b60403660031901126100e75760243567ffffffffffffffff8111616101e08201527ee7576101fe9036906004016100eb565b505061029f565b346100e7576020366102008201527f60031901121561029f575f80fd5b346100e7575f3660031901126100e75760036102208201527f546040516001600160a01b039091168152602090f35b346100e7575f366003196102408201527f01126100e7576020600154604051908152f35b346100e75760a03660031901126102608201527f6100e757610279610194565b5060443560ff81161461029f575f80fd5b3461006102808201527fe7575f3660031901121561029f575f80fd5b63e6fabc0960e01b5f5260205f606102a08201523060481b685afa156100e7575f806204817360e81b01176102c08201527f8051368280378136915af43d5f803e156102e5573d5ff35b3d5ffd00000000006102e08201525ff5908115612b065760018060a01b0382165f52601a84016020528060405f2055601b84016140e68154613be1565b90556040516001600160a01b03831681527f8008ec1d8798725ebfa0f2d128d52e8e717dcba6e0f786557eeee70614b02bf190602090a29190565b630e2637d160e01b5f5260045ffd5b9190915f516020615ba75f395f51905f52549260018401541561008257815f526019840160205260ff60405f205416600381101561371b5760020361412157815f5260205260405f2060405160608101908082106001600160401b03831117612b0657605a916040527f3d605080600a3d3981f3608060405263e6fabc0960e01b5f5260205f6004817381523060601b6b5afa15604c575f80805136821760208201527f80378136915af43d5f803e156048573d5ff35b3d5ffd5b5f80fd00000000000060408201525ff5908115612b065760018060a01b0382165f52601a84016020528060405f2055601b84016140e68154613be1565b435f19810193929084116138e85760ff1643811061427857505f925b83811015614254575b505f925050565b80408281036142665750600193505050565b15614273575f1901614244565b61424d565b61428290436138db565b92614244565b903590601e1981360301821215612b0657018035906001600160401b038211612b0657602001918160051b36038313612b0657565b903590605e1981360301821215612b06570190565b906080810160016142e38284614288565b9050116147c5576142f48183614288565b90501561479e5761430491614288565b156139fa5780614313916142bd565b9161431e8380614288565b9190928260051b93838504602014841517156138e8576143408596949561556f565b925f945f97601a60fe19853603019501965b888a1015614701578960051b85013586811215612b0657850161437481613a5d565b6001600160a01b03165f90815260208a9052604090205415610064575f608082016001600160801b036143a68261555b565b161515806146ee575b6146dd575b6001600160a01b036143c584613a5d565b604051630427a21d60e11b81526020600482015294911691610124850191906001600160801b0390614444906001600160a01b03614402856135a5565b1660248901526020840135604489015261441e60408501614be7565b151560648901526001600160a01b03614439606086016135a5565b1660848901526135b9565b1660a486015261445660a08201614be7565b151560c486015236819003601e190160c082013581811215612b06578201602081359101936001600160401b038211612b06576060820236038513612b0657819061010060e48a015252610144870193905f905b8082106146935750505060e082013590811215612b065701803560208201926001600160401b038211612b06578160051b908136038513612b065791879594936023198785030161010488015281845260208085019385010194935f9160fe19813603015b8484106145865750505050505050602093916001600160801b03848093039316905af19081156134f5575f91614554575b50816020916001938a015201990198614352565b90506020813d821161457e575b8161456e6020938361367e565b81010312612b0657516001614540565b3d9150614561565b919395979850919395601f19848203018752873582811215612b06578301602081013582526001600160a01b036145bf604083016135a5565b1660208301526060810135603e193683900301811215612b06578101602081013591906040016001600160401b038311612b06578236038113612b0657829060e060408601528160e08601526101008501375f61010083850101526001600160801b0361462e608083016135b9565b16606084015260a0810135608084015260c081013563ffffffff60e01b8116809103612b06578360209361467060e086956101009560a060019a015201614be7565b151560c0830152601f80199101160101990197019401918a98979695939161450f565b90919460608060019288358152838060a01b036146b260208b016135a5565b1660208201526001600160801b036146cc60408b016135b9565b1660408201520196019201906144aa565b90506146e88161555b565b906143b4565b506146fb60a08401614809565b156143af565b509550955095505050209060406020820135917fc630ddcf92c1a2e0d08b0e482dafa1312a9be3f7374d504c1e418a13fa84424160208351858152a101358061476f575b6040519160208301938452604083015260608201526060815261476960808261367e565b51902090565b7f694c1e8c673a4782b065120b25b67f4198a5f2086b6edbe3c5093a9a64cc83316020604051838152a1614745565b5050507fc5d2460186f7233c927e7db2dcc703c0e500b653ca82273b7bfad8045d85a47090565b6306d6c38360e01b5f5260045ffd5b903590601e1981360301821215612b0657018035906001600160401b038211612b0657602001918160061b36038313612b0657565b358015158103612b065790565b60c0820160016148268285614288565b905011614ba6576148378184614288565b90501561479e576148489083614288565b156139fa57803590607e1981360301821215612b065701916060830190602061487083613846565b91019065ffffffffffff8061488484613846565b1691161015614b975761489682613846565b65ffffffffffff80600286015460201c16911610614b88576148dc65ffffffffffff6148d56148cf826148c887613846565b1687615594565b93613846565b1684615594565b1115614b79576007820154600690920180548435946001600160a01b0394851694604082019391925f916020911660446149228361491a89896142bd565b01358b613a50565b604051948593849263095ea7b360e01b84528c600485015260248401525af19081156134f5575f91614b5a575b5015614b4b575460405163394f179b60e11b81526001600160a01b03909116600482015260248101959095526020818101356044870152856064815f885af19485156134f5575f95614b13575b50906149a7916142bd565b916149b182613846565b9260405193637fbe95b560e01b85526040600486015260a48501918035601e1982360301811215612b06578101602081359101936001600160401b038211612b06578160061b36038513612b065760606044890152819052869360c485019392915f5b818110614adb57505050836020959365ffffffffffff829484895f9601356064860152614a4a604060018060a01b0392016135a5565b16608485015216602483015203925af19182156134f5575f92614aa5575b50614a7290613846565b6040519160208301938452604083015265ffffffffffff60d01b9060d01b1660608201526046815261476960668261367e565b9091506020813d602011614ad3575b81614ac16020938361367e565b81010312612b06575190614a72614a68565b3d9150614ab4565b919550919293604080600192838060a01b03614af68a6135a5565b168152602089013560208201520196019101918895949392614a14565b919094506020823d602011614b43575b81614b306020938361367e565b81010312612b06579051936149a761499c565b3d9150614b23565b6367b9145160e01b5f5260045ffd5b614b73915060203d60201161070c576106fe818361367e565b5f61494f565b6308027f7760e31b5f5260045ffd5b637bde91e760e11b5f5260045ffd5b63087a19ab60e41b5f5260045ffd5b633249ceed60e11b5f5260045ffd5b903590601e1981360301821215612b0657018035906001600160401b038211612b0657602001918136038313612b0657565b35908115158203612b0657565b9060e081016001614c058284614288565b90501161506e57614c168183614288565b90501561479e57614c2691614288565b156139fa5780359060be1981360301821215612b06570160808101614c4b8183614288565b90501561505f5765ffffffffffff600284015460201c1691614c6d83426138db565b614c7c601686015480926138fc565b9360a083013594600181018091116138e857850361505057614ca185614ca793613944565b90613a50565b93614cb66017820154866138db565b421061504157614cc5906155bc565b916005830193428554101561503257614cdd83614809565b92602081019060608101936123ca614d19614cf88785614bb5565b9190614d048587614288565b949091614d11368a613957565b9436916136ba565b97614f79575b50505f989798976003600489019801985b8854811015614d67575f89815260208082208301546001600160a01b031682528b905260409020805460ff19169055600101614d30565b5090919293949596985f5b8851811015614db3576001906001600160a01b03614d90828c613a0e565b5116828060a01b03165f528a60205260405f208260ff1982541617905501614d72565b50929598909396919497508151916001600160401b03831161361857600160401b8311613618576020908254848455808510614f5e575b5001905f5260205f205f5b838110614f415750505050557fa1a3b42179ad30022438a1ea333b38eaf4a7329beee5e2b8111c0dcd4e08821c6020604051868152a160c082360312612b06576040519260a08401908482106001600160401b0383111761361857614e6991604052614e6084614be7565b85523690613957565b9460208401958652356001600160401b038111612b0657614e8d90369084016136f0565b604084015235906001600160401b038211612b06570136601f82011215612b0657614ebf903690602081359101613996565b908160608201528260808201525115159251906020825192015192604051938493602085019660f81b8752602185015260418401526061830160208351919301905f5b818110614f1f57505050815203808252614769906020018261367e565b82516001600160a01b0316855286955060209485019490920191600101614f02565b82516001600160a01b031681830155602090920191600101614df5565b614f7390845f528580855f2001910390615363565b5f614dea565b8051906020810191825170014551231950b75fc4402da1732fc9bebe1982109182615021575b5050156150125751895551600189015580518060401b6bfe61000180600a3d393df3000161fffe8211830152600b8101601583015ff091821561500557526002880180546001600160a01b0319166001600160a01b039092169190911790555f80614d1f565b63301164255f526004601cfd5b63375f0aab60e11b5f5260045ffd5b61502b92506159fc565b5f80614f9f565b6333fc8f5160e21b5f5260045ffd5b6372a84ce560e11b5f5260045ffd5b6343d3f5bf60e01b5f5260045ffd5b636c2bf3db60e01b5f5260045ffd5b631d3fc6bf60e21b5f5260045ffd5b909493919365ffffffffffff600283015460201c1661509c4284615594565b6150b46150ae60168601548093613944565b83613a50565b9182841080806152d0575b1561529e57508310615290576150d59083613a50565b10615281576150e5905b826155d7565b94601960f81b5f523060601b60025260165260365f2093600281101561371b57806151765750506001810361516757156139fa576151268161512d92614bb5565b36916136ba565b9160608351036151585782602061370b940151606060408301519201519260018154910154906155f3565b632ce466bf60e01b5f5260045ffd5b6360a1ea7760e01b5f5260045ffd5b9193916001146151895750505050505f90565b6151ae90600860048796970154910154906001600160801b038260801c921690615530565b925f9260035f9201915b86811015615276576151de61059e6151d86151268460051b860186614bb5565b866159c2565b6001600160a01b0381165f9081526020859052604090205460ff16615209575b506001905b016151b8565b6001600160a01b03165f9081527ff02b465737fa6045c2ff53fb2df43c66916ac2166fa303264668fb2f6a1d8c0060205260409020805c1561524e5750600190615203565b94600161525c92965d613be1565b9385851461526a575f6151fe565b50505050505050600190565b505050505050505f90565b63046bb1e560e51b5f5260045ffd5b62f4462b60e01b5f5260045ffd5b93929150504282116152c1576150e5926152b9575b506150df565b90505f6152b3565b6347860b9760e01b5f5260045ffd5b506152df601887015485613a50565b42106150bf565b6152ee613add565b5063ffffffff431161534b5765ffffffffffff421161533357604051615313816135fd565b5f815263ffffffff4316602082015265ffffffffffff4216604082015290565b6306dfcc6560e41b5f5260306004524260245260445ffd5b6306dfcc6560e41b5f5260206004524360245260445ffd5b5f5b82811061537157505050565b5f82820155600101615365565b90600182811c921680156153ac575b602083101461539857565b634e487b7160e01b5f52602260045260245ffd5b91607f169161538d565b604051905f825f516020615b075f395f51905f5254916153d58361537e565b808352926001811690811561546457506001146153f9575b613bbd9250038361367e565b505f516020615b075f395f51905f525f90815290917f42ad5d3e1f2e6e70edcf6d991b8a3023d3fca8047a131592f9edb9fd9b89d57d5b818310615448575050906020613bbd928201016153ed565b6020919350806001915483858901015201910190918492615430565b60209250613bbd94915060ff191682840152151560051b8201016153ed565b604051905f825f516020615b475f395f51905f5254916154a28361537e565b808352926001811690811561546457506001146154c557613bbd9250038361367e565b505f516020615b475f395f51905f525f90815290917f5f9ce34815f8e11431c7bb75a8e6886a91478f7ffc1dbb0a98dc240fddd76b755b818310615514575050906020613bbd928201016153ed565b60209193508060019154838589010152019101909184926154fc565b6001600160801b0380921602911661554881836138fc565b91811561390657061561370b5760010190565b356001600160801b0381168103612b065790565b6040519190601f01601f191682016001600160401b03811183821017612b0657604052565b60166155b361370b9365ffffffffffff600285015460201c16906138db565b910154906138fc565b6155c64282615962565b156155d15760090190565b600f0190565b906155e29082615962565b156155ed57600f0190565b60090190565b929391949061560285876159fc565b156157955782156157955770014551231950b75fc4402da1732fc9bebe19831015615795576001169061010e6156378161556f565b9160883684376002600188160160888401538760898401526002840160a984015360aa830186905260ca8301527e300046524f53542d736563703235366b312d4b454343414b3235362d76316360ea8301526303430b6160e51b61010a830152812060cc820181815290600260ec84016001815360428420809318845253604270014551231950b75fc4402da1732fc9bebe19922060801c6001600160401b0360801b8260801b16179070014551231950b75fc4402da1732fc9bebe1990600160c01b9060401c090880156152765784601b6080945f9660209870014551231950b75fc4402da1732fc9bebe19910970014551231950b75fc4402da1732fc9bebe19038552018684015280604084015270014551231950b75fc4402da1732fc9bebe19910970014551231950b75fc4402da1732fc9bebe1903606082015282805260015afa505f51915f5260205260018060a01b0360405f20161490565b5050505050505f90565b6157a7615a1f565b6157af615a76565b6040519060208201927f8b73c3c69bb8fe3d512ecc4cf759cc79239f7b179b0ffacaa9a75d522b39400f8452604083015260608201524660808201523060a082015260a0815261476960c08261367e565b60ff5f516020615be75f395f51905f525460401c161561581c57565b631afcd79f60e31b5f5260045ffd5b615833613b23565b5060028101546005820154604051929091615873916004916001600160a01b031661585d86613663565b61586682613871565b8652602086015201613b8e565b6040830152606082015290565b91907f7fffffffffffffffffffffffffffffff5d576e7357a4501ddfe92f46681b20a084116158f7579160209360809260ff5f9560405194855216868401526040830152606082015282805260015afa156134f5575f516001600160a01b038116156158ed57905f905f90565b505f906001905f90565b5050505f9160039190565b600481101561371b5780615914575050565b6001810361592b5763f645eedf60e01b5f5260045ffd5b60028103615946575063fce698f760e01b5f5260045260245ffd5b6003146159505750565b6335e2f38360e21b5f5260045260245ffd5b906014600e8301549201548083146159b3578181841093119182159111159181906159ac575b1561599d578261599757505090565b14919050565b634c38ae9560e11b5f5260045ffd5b5081615988565b63f26224af60e01b5f5260045ffd5b81519190604183036159f2576159eb9250602082015190606060408401519301515f1a90615880565b9192909190565b50505f9160029190565b6401000003d01990600790829081818009900908906401000003d0199080091490565b615a276153b6565b8051908115615a37576020012090565b50505f516020615b675f395f51905f52548015615a515790565b507fc5d2460186f7233c927e7db2dcc703c0e500b653ca82273b7bfad8045d85a47090565b615a7e615483565b8051908115615a8e576020012090565b50505f516020615c075f395f51905f52548015615a515790565b90615acc5750805115615abd57602081519101fd5b63d6bda27560e01b5f5260045ffd5b81511580615afd575b615add575090565b639996b31560e01b5f9081526001600160a01b0391909116600452602490fd5b50803b15615ad556fea16a46d94261c7517cc8ff89f61c0ce93598e3c849801011dee649a6a557d1029016d09d72d40fdae2fd8ceac6b6234c7706214fd39c1cd1e609a0528c199300a16a46d94261c7517cc8ff89f61c0ce93598e3c849801011dee649a6a557d103a16a46d94261c7517cc8ff89f61c0ce93598e3c849801011dee649a6a557d100360894a13ba1a3210667c828492db98dca3e2076cc3735a920a3ca505d382bbc5c09ca1b9b8127a4fd9f3c384aac59b661441e820e17733753ff5f2e86e1e000cd5ed15c6e187e77e9aee88184c21f4f2182ab5827cb3b7e07fbedcd63f03300f0c57e16840df040f15088dc2f81fe391c3923bec73e23a9662efc9c229c6a00a16a46d94261c7517cc8ff89f61c0ce93598e3c849801011dee649a6a557d101f0c57e16840df040f15088dc2f81fe391c3923bec73e23a9662efc9c229c6a00","linkReferences":{}},"methodIdentifiers":{"DOMAIN_SEPARATOR()":"3644e515","UPGRADE_INTERFACE_VERSION()":"ad3cb1cc","areValidators(address[])":"8f381dbe","bumpProtocolVersion()":"85dd663d","codeState(bytes32)":"c13911e8","codesStates(bytes32[])":"82bdeaad","commitBatch((bytes32,uint48,bytes32,uint8,((address,bytes32,bool,address,uint128,bool,(bytes32,address,uint128)[],(bytes32,address,bytes,uint128,(bytes32,bytes4),bool)[])[],bytes32,bytes32)[],(bytes32,bool)[],((uint256,bytes32),((address,uint256)[],uint256,address),uint48)[],(bool,(uint256,uint256),bytes,address[],uint256)[]),uint8,bytes[])":"1622441d","computeSettings()":"84d22a4f","createProgram(bytes32,bytes32,address)":"3683c4d2","createProgramWithAbiInterface(bytes32,bytes32,address,address)":"0c18d277","createProgramWithAbiInterfaceAndExecutableBalance(bytes32,bytes32,address,address,uint128,uint256,uint8,bytes32,bytes32)":"ee32004f","createProgramWithExecutableBalance(bytes32,bytes32,address,uint128,uint256,uint8,bytes32,bytes32)":"0d91bf2a","eip712Domain()":"84b0196e","genesisBlockHash()":"28e24b3d","genesisTimestamp()":"cacf66ab","initialize(address,address,address,address,uint256,uint256,uint256,(uint256,uint256),bytes,address[])":"53f7fd48","isValidator(address)":"facd743b","latestCommittedBatchHash()":"71a8cf2d","latestCommittedBatchTimestamp()":"d456fd51","lookupGenesisHash()":"8b1edf1e","middleware()":"f4f20ac0","mirrorImpl()":"e6fabc09","nonces(address)":"7ecebe00","owner()":"8da5cb5b","pause()":"8456cb59","paused()":"5c975abb","programCodeId(address)":"9067088e","programsCodeIds(address[])":"baaf0201","programsCount()":"96a2ddfa","protocolVersion()":"2ae9c600","proxiableUUID()":"52d1902d","reinitialize()":"6c2eb350","renounceOwnership()":"715018a6","requestCodeValidation(bytes32,uint256,uint8,bytes32,bytes32)":"8c4ace6a","requestCodeValidationBaseFee()":"188509e9","requestCodeValidationExtraFee()":"f1ef31ec","requestCodeValidationOnBehalf(address,bytes32,bytes32[],uint256,uint8,bytes32,bytes32,uint8,bytes32,bytes32)":"f0fd702a","setMirror(address)":"3d43b418","setRequestCodeValidationBaseFee(uint256)":"11bec80d","setRequestCodeValidationExtraFee(uint256)":"0b9737ce","signingThresholdFraction()":"e3a6684f","storageView()":"c2eb812f","timelines()":"9eb939a8","transferOwnership(address)":"f2fde38b","unpause()":"3f4ba83a","upgradeToAndCall(address,bytes)":"4f1ef286","validatedCodesCount()":"007a32e7","validators()":"ca1e7819","validatorsAggregatedPublicKey()":"3bd109fa","validatorsCount()":"ed612f8c","validatorsThreshold()":"edc87225","validatorsVerifiableSecretSharingCommitment()":"a5d53a44","wrappedVara()":"88f50cf0"},"storageLayout":{"storage":[],"types":{}},"id":165}