{"abi":[{"type":"constructor","inputs":[],"stateMutability":"nonpayable"},{"type":"receive","stateMutability":"payable"},{"type":"function","name":"DOMAIN_SEPARATOR","inputs":[],"outputs":[{"name":"","type":"bytes32","internalType":"bytes32"}],"stateMutability":"view"},{"type":"function","name":"UPGRADE_INTERFACE_VERSION","inputs":[],"outputs":[{"name":"","type":"string","internalType":"string"}],"stateMutability":"view"},{"type":"function","name":"areValidators","inputs":[{"name":"_validators","type":"address[]","internalType":"address[]"}],"outputs":[{"name":"","type":"bool","internalType":"bool"}],"stateMutability":"view"},{"type":"function","name":"codeState","inputs":[{"name":"_codeId","type":"bytes32","internalType":"bytes32"}],"outputs":[{"name":"","type":"uint8","internalType":"enum Gear.CodeState"}],"stateMutability":"view"},{"type":"function","name":"codesStates","inputs":[{"name":"_codesIds","type":"bytes32[]","internalType":"bytes32[]"}],"outputs":[{"name":"","type":"uint8[]","internalType":"enum Gear.CodeState[]"}],"stateMutability":"view"},{"type":"function","name":"commitBatch","inputs":[{"name":"_batch","type":"tuple","internalType":"struct Gear.BatchCommitment","components":[{"name":"blockHash","type":"bytes32","internalType":"bytes32"},{"name":"blockTimestamp","type":"uint48","internalType":"uint48"},{"name":"previousCommittedBatchHash","type":"bytes32","internalType":"bytes32"},{"name":"expiry","type":"uint8","internalType":"uint8"},{"name":"chainCommitment","type":"tuple[]","internalType":"struct Gear.ChainCommitment[]","components":[{"name":"transitions","type":"tuple[]","internalType":"struct Gear.StateTransition[]","components":[{"name":"actorId","type":"address","internalType":"address"},{"name":"newStateHash","type":"bytes32","internalType":"bytes32"},{"name":"exited","type":"bool","internalType":"bool"},{"name":"inheritor","type":"address","internalType":"address"},{"name":"valueToReceive","type":"uint128","internalType":"uint128"},{"name":"valueToReceiveNegativeSign","type":"bool","internalType":"bool"},{"name":"valueClaims","type":"tuple[]","internalType":"struct Gear.ValueClaim[]","components":[{"name":"messageId","type":"bytes32","internalType":"bytes32"},{"name":"destination","type":"address","internalType":"address"},{"name":"value","type":"uint128","internalType":"uint128"}]},{"name":"messages","type":"tuple[]","internalType":"struct Gear.Message[]","components":[{"name":"id","type":"bytes32","internalType":"bytes32"},{"name":"destination","type":"address","internalType":"address"},{"name":"payload","type":"bytes","internalType":"bytes"},{"name":"value","type":"uint128","internalType":"uint128"},{"name":"replyDetails","type":"tuple","internalType":"struct Gear.ReplyDetails","components":[{"name":"to","type":"bytes32","internalType":"bytes32"},{"name":"code","type":"bytes4","internalType":"bytes4"}]},{"name":"call","type":"bool","internalType":"bool"}]}]},{"name":"head","type":"bytes32","internalType":"bytes32"}]},{"name":"codeCommitments","type":"tuple[]","internalType":"struct Gear.CodeCommitment[]","components":[{"name":"id","type":"bytes32","internalType":"bytes32"},{"name":"valid","type":"bool","internalType":"bool"}]},{"name":"rewardsCommitment","type":"tuple[]","internalType":"struct Gear.RewardsCommitment[]","components":[{"name":"operators","type":"tuple","internalType":"struct Gear.OperatorRewardsCommitment","components":[{"name":"amount","type":"uint256","internalType":"uint256"},{"name":"root","type":"bytes32","internalType":"bytes32"}]},{"name":"stakers","type":"tuple","internalType":"struct Gear.StakerRewardsCommitment","components":[{"name":"distribution","type":"tuple[]","internalType":"struct Gear.StakerRewards[]","components":[{"name":"vault","type":"address","internalType":"address"},{"name":"amount","type":"uint256","internalType":"uint256"}]},{"name":"totalAmount","type":"uint256","internalType":"uint256"},{"name":"token","type":"address","internalType":"address"}]},{"name":"timestamp","type":"uint48","internalType":"uint48"}]},{"name":"validatorsCommitment","type":"tuple[]","internalType":"struct Gear.ValidatorsCommitment[]","components":[{"name":"aggregatedPublicKey","type":"tuple","internalType":"struct Gear.AggregatedPublicKey","components":[{"name":"x","type":"uint256","internalType":"uint256"},{"name":"y","type":"uint256","internalType":"uint256"}]},{"name":"verifiableSecretSharingCommitment","type":"bytes","internalType":"bytes"},{"name":"validators","type":"address[]","internalType":"address[]"},{"name":"eraIndex","type":"uint256","internalType":"uint256"}]}]},{"name":"_signatureType","type":"uint8","internalType":"enum Gear.SignatureType"},{"name":"_signatures","type":"bytes[]","internalType":"bytes[]"}],"outputs":[],"stateMutability":"nonpayable"},{"type":"function","name":"computeSettings","inputs":[],"outputs":[{"name":"","type":"tuple","internalType":"struct Gear.ComputationSettings","components":[{"name":"threshold","type":"uint64","internalType":"uint64"},{"name":"wvaraPerSecond","type":"uint128","internalType":"uint128"}]}],"stateMutability":"view"},{"type":"function","name":"createProgram","inputs":[{"name":"_codeId","type":"bytes32","internalType":"bytes32"},{"name":"_salt","type":"bytes32","internalType":"bytes32"},{"name":"_overrideInitializer","type":"address","internalType":"address"}],"outputs":[{"name":"","type":"address","internalType":"address"}],"stateMutability":"nonpayable"},{"type":"function","name":"createProgramWithAbiInterface","inputs":[{"name":"_codeId","type":"bytes32","internalType":"bytes32"},{"name":"_salt","type":"bytes32","internalType":"bytes32"},{"name":"_overrideInitializer","type":"address","internalType":"address"},{"name":"_abiInterface","type":"address","internalType":"address"}],"outputs":[{"name":"","type":"address","internalType":"address"}],"stateMutability":"nonpayable"},{"type":"function","name":"createProgramWithAbiInterfaceAndExecutableBalance","inputs":[{"name":"_codeId","type":"bytes32","internalType":"bytes32"},{"name":"_salt","type":"bytes32","internalType":"bytes32"},{"name":"_overrideInitializer","type":"address","internalType":"address"},{"name":"_abiInterface","type":"address","internalType":"address"},{"name":"_initialExecutableBalance","type":"uint128","internalType":"uint128"},{"name":"_deadline","type":"uint256","internalType":"uint256"},{"name":"_v","type":"uint8","internalType":"uint8"},{"name":"_r","type":"bytes32","internalType":"bytes32"},{"name":"_s","type":"bytes32","internalType":"bytes32"}],"outputs":[{"name":"","type":"address","internalType":"address"}],"stateMutability":"nonpayable"},{"type":"function","name":"createProgramWithExecutableBalance","inputs":[{"name":"_codeId","type":"bytes32","internalType":"bytes32"},{"name":"_salt","type":"bytes32","internalType":"bytes32"},{"name":"_overrideInitializer","type":"address","internalType":"address"},{"name":"_initialExecutableBalance","type":"uint128","internalType":"uint128"},{"name":"_deadline","type":"uint256","internalType":"uint256"},{"name":"_v","type":"uint8","internalType":"uint8"},{"name":"_r","type":"bytes32","internalType":"bytes32"},{"name":"_s","type":"bytes32","internalType":"bytes32"}],"outputs":[{"name":"","type":"address","internalType":"address"}],"stateMutability":"nonpayable"},{"type":"function","name":"eip712Domain","inputs":[],"outputs":[{"name":"fields","type":"bytes1","internalType":"bytes1"},{"name":"name","type":"string","internalType":"string"},{"name":"version","type":"string","internalType":"string"},{"name":"chainId","type":"uint256","internalType":"uint256"},{"name":"verifyingContract","type":"address","internalType":"address"},{"name":"salt","type":"bytes32","internalType":"bytes32"},{"name":"extensions","type":"uint256[]","internalType":"uint256[]"}],"stateMutability":"view"},{"type":"function","name":"genesisBlockHash","inputs":[],"outputs":[{"name":"","type":"bytes32","internalType":"bytes32"}],"stateMutability":"view"},{"type":"function","name":"genesisTimestamp","inputs":[],"outputs":[{"name":"","type":"uint48","internalType":"uint48"}],"stateMutability":"view"},{"type":"function","name":"initialize","inputs":[{"name":"_owner","type":"address","internalType":"address"},{"name":"_mirror","type":"address","internalType":"address"},{"name":"_wrappedVara","type":"address","internalType":"address"},{"name":"_middleware","type":"address","internalType":"address"},{"name":"_eraDuration","type":"uint256","internalType":"uint256"},{"name":"_electionDuration","type":"uint256","internalType":"uint256"},{"name":"_validationDelay","type":"uint256","internalType":"uint256"},{"name":"_aggregatedPublicKey","type":"tuple","internalType":"struct Gear.AggregatedPublicKey","components":[{"name":"x","type":"uint256","internalType":"uint256"},{"name":"y","type":"uint256","internalType":"uint256"}]},{"name":"_verifiableSecretSharingCommitment","type":"bytes","internalType":"bytes"},{"name":"_validators","type":"address[]","internalType":"address[]"}],"outputs":[],"stateMutability":"nonpayable"},{"type":"function","name":"isValidator","inputs":[{"name":"_validator","type":"address","internalType":"address"}],"outputs":[{"name":"","type":"bool","internalType":"bool"}],"stateMutability":"view"},{"type":"function","name":"latestCommittedBatchHash","inputs":[],"outputs":[{"name":"","type":"bytes32","internalType":"bytes32"}],"stateMutability":"view"},{"type":"function","name":"latestCommittedBatchTimestamp","inputs":[],"outputs":[{"name":"","type":"uint48","internalType":"uint48"}],"stateMutability":"view"},{"type":"function","name":"lookupGenesisHash","inputs":[],"outputs":[],"stateMutability":"nonpayable"},{"type":"function","name":"middleware","inputs":[],"outputs":[{"name":"","type":"address","internalType":"address"}],"stateMutability":"view"},{"type":"function","name":"mirrorImpl","inputs":[],"outputs":[{"name":"","type":"address","internalType":"address"}],"stateMutability":"view"},{"type":"function","name":"nonces","inputs":[{"name":"owner","type":"address","internalType":"address"}],"outputs":[{"name":"","type":"uint256","internalType":"uint256"}],"stateMutability":"view"},{"type":"function","name":"owner","inputs":[],"outputs":[{"name":"","type":"address","internalType":"address"}],"stateMutability":"view"},{"type":"function","name":"pause","inputs":[],"outputs":[],"stateMutability":"nonpayable"},{"type":"function","name":"paused","inputs":[],"outputs":[{"name":"","type":"bool","internalType":"bool"}],"stateMutability":"view"},{"type":"function","name":"programCodeId","inputs":[{"name":"_programId","type":"address","internalType":"address"}],"outputs":[{"name":"","type":"bytes32","internalType":"bytes32"}],"stateMutability":"view"},{"type":"function","name":"programsCodeIds","inputs":[{"name":"_programsIds","type":"address[]","internalType":"address[]"}],"outputs":[{"name":"","type":"bytes32[]","internalType":"bytes32[]"}],"stateMutability":"view"},{"type":"function","name":"programsCount","inputs":[],"outputs":[{"name":"","type":"uint256","internalType":"uint256"}],"stateMutability":"view"},{"type":"function","name":"proxiableUUID","inputs":[],"outputs":[{"name":"","type":"bytes32","internalType":"bytes32"}],"stateMutability":"view"},{"type":"function","name":"reinitialize","inputs":[],"outputs":[],"stateMutability":"nonpayable"},{"type":"function","name":"renounceOwnership","inputs":[],"outputs":[],"stateMutability":"nonpayable"},{"type":"function","name":"requestCodeValidation","inputs":[{"name":"_codeId","type":"bytes32","internalType":"bytes32"},{"name":"_deadline","type":"uint256","internalType":"uint256"},{"name":"_v","type":"uint8","internalType":"uint8"},{"name":"_r","type":"bytes32","internalType":"bytes32"},{"name":"_s","type":"bytes32","internalType":"bytes32"}],"outputs":[],"stateMutability":"nonpayable"},{"type":"function","name":"requestCodeValidationBaseFee","inputs":[],"outputs":[{"name":"","type":"uint256","internalType":"uint256"}],"stateMutability":"view"},{"type":"function","name":"requestCodeValidationExtraFee","inputs":[],"outputs":[{"name":"","type":"uint256","internalType":"uint256"}],"stateMutability":"view"},{"type":"function","name":"requestCodeValidationOnBehalf","inputs":[{"name":"_requester","type":"address","internalType":"address"},{"name":"_codeId","type":"bytes32","internalType":"bytes32"},{"name":"_blobHashes","type":"bytes32[]","internalType":"bytes32[]"},{"name":"_deadline","type":"uint256","internalType":"uint256"},{"name":"_v1","type":"uint8","internalType":"uint8"},{"name":"_r1","type":"bytes32","internalType":"bytes32"},{"name":"_s1","type":"bytes32","internalType":"bytes32"},{"name":"_v2","type":"uint8","internalType":"uint8"},{"name":"_r2","type":"bytes32","internalType":"bytes32"},{"name":"_s2","type":"bytes32","internalType":"bytes32"}],"outputs":[],"stateMutability":"nonpayable"},{"type":"function","name":"setMirror","inputs":[{"name":"newMirror","type":"address","internalType":"address"}],"outputs":[],"stateMutability":"nonpayable"},{"type":"function","name":"setRequestCodeValidationBaseFee","inputs":[{"name":"newBaseFee","type":"uint256","internalType":"uint256"}],"outputs":[],"stateMutability":"nonpayable"},{"type":"function","name":"setRequestCodeValidationExtraFee","inputs":[{"name":"newExtraFee","type":"uint256","internalType":"uint256"}],"outputs":[],"stateMutability":"nonpayable"},{"type":"function","name":"signingThresholdFraction","inputs":[],"outputs":[{"name":"thresholdNumerator","type":"uint128","internalType":"uint128"},{"name":"thresholdDenominator","type":"uint128","internalType":"uint128"}],"stateMutability":"view"},{"type":"function","name":"storageView","inputs":[],"outputs":[{"name":"","type":"tuple","internalType":"struct IRouter.StorageView","components":[{"name":"genesisBlock","type":"tuple","internalType":"struct Gear.GenesisBlockInfo","components":[{"name":"hash","type":"bytes32","internalType":"bytes32"},{"name":"number","type":"uint32","internalType":"uint32"},{"name":"timestamp","type":"uint48","internalType":"uint48"}]},{"name":"latestCommittedBatch","type":"tuple","internalType":"struct Gear.CommittedBatchInfo","components":[{"name":"hash","type":"bytes32","internalType":"bytes32"},{"name":"timestamp","type":"uint48","internalType":"uint48"}]},{"name":"implAddresses","type":"tuple","internalType":"struct Gear.AddressBook","components":[{"name":"mirror","type":"address","internalType":"address"},{"name":"wrappedVara","type":"address","internalType":"address"},{"name":"middleware","type":"address","internalType":"address"}]},{"name":"validationSettings","type":"tuple","internalType":"struct Gear.ValidationSettingsView","components":[{"name":"thresholdNumerator","type":"uint128","internalType":"uint128"},{"name":"thresholdDenominator","type":"uint128","internalType":"uint128"},{"name":"validators0","type":"tuple","internalType":"struct Gear.ValidatorsView","components":[{"name":"aggregatedPublicKey","type":"tuple","internalType":"struct Gear.AggregatedPublicKey","components":[{"name":"x","type":"uint256","internalType":"uint256"},{"name":"y","type":"uint256","internalType":"uint256"}]},{"name":"verifiableSecretSharingCommitmentPointer","type":"address","internalType":"address"},{"name":"list","type":"address[]","internalType":"address[]"},{"name":"useFromTimestamp","type":"uint256","internalType":"uint256"}]},{"name":"validators1","type":"tuple","internalType":"struct Gear.ValidatorsView","components":[{"name":"aggregatedPublicKey","type":"tuple","internalType":"struct Gear.AggregatedPublicKey","components":[{"name":"x","type":"uint256","internalType":"uint256"},{"name":"y","type":"uint256","internalType":"uint256"}]},{"name":"verifiableSecretSharingCommitmentPointer","type":"address","internalType":"address"},{"name":"list","type":"address[]","internalType":"address[]"},{"name":"useFromTimestamp","type":"uint256","internalType":"uint256"}]}]},{"name":"computeSettings","type":"tuple","internalType":"struct Gear.ComputationSettings","components":[{"name":"threshold","type":"uint64","internalType":"uint64"},{"name":"wvaraPerSecond","type":"uint128","internalType":"uint128"}]},{"name":"timelines","type":"tuple","internalType":"struct Gear.Timelines","components":[{"name":"era","type":"uint256","internalType":"uint256"},{"name":"election","type":"uint256","internalType":"uint256"},{"name":"validationDelay","type":"uint256","internalType":"uint256"}]},{"name":"programsCount","type":"uint256","internalType":"uint256"},{"name":"validatedCodesCount","type":"uint256","internalType":"uint256"},{"name":"maxValidators","type":"uint16","internalType":"uint16"},{"name":"requestCodeValidationBaseFee","type":"uint256","internalType":"uint256"},{"name":"requestCodeValidationExtraFee","type":"uint256","internalType":"uint256"}]}],"stateMutability":"view"},{"type":"function","name":"timelines","inputs":[],"outputs":[{"name":"","type":"tuple","internalType":"struct Gear.Timelines","components":[{"name":"era","type":"uint256","internalType":"uint256"},{"name":"election","type":"uint256","internalType":"uint256"},{"name":"validationDelay","type":"uint256","internalType":"uint256"}]}],"stateMutability":"view"},{"type":"function","name":"transferOwnership","inputs":[{"name":"newOwner","type":"address","internalType":"address"}],"outputs":[],"stateMutability":"nonpayable"},{"type":"function","name":"unpause","inputs":[],"outputs":[],"stateMutability":"nonpayable"},{"type":"function","name":"upgradeToAndCall","inputs":[{"name":"newImplementation","type":"address","internalType":"address"},{"name":"data","type":"bytes","internalType":"bytes"}],"outputs":[],"stateMutability":"payable"},{"type":"function","name":"validatedCodesCount","inputs":[],"outputs":[{"name":"","type":"uint256","internalType":"uint256"}],"stateMutability":"view"},{"type":"function","name":"validators","inputs":[],"outputs":[{"name":"","type":"address[]","internalType":"address[]"}],"stateMutability":"view"},{"type":"function","name":"validatorsAggregatedPublicKey","inputs":[],"outputs":[{"name":"","type":"tuple","internalType":"struct Gear.AggregatedPublicKey","components":[{"name":"x","type":"uint256","internalType":"uint256"},{"name":"y","type":"uint256","internalType":"uint256"}]}],"stateMutability":"view"},{"type":"function","name":"validatorsCount","inputs":[],"outputs":[{"name":"","type":"uint256","internalType":"uint256"}],"stateMutability":"view"},{"type":"function","name":"validatorsThreshold","inputs":[],"outputs":[{"name":"","type":"uint256","internalType":"uint256"}],"stateMutability":"view"},{"type":"function","name":"validatorsVerifiableSecretSharingCommitment","inputs":[],"outputs":[{"name":"","type":"bytes","internalType":"bytes"}],"stateMutability":"view"},{"type":"function","name":"wrappedVara","inputs":[],"outputs":[{"name":"","type":"address","internalType":"address"}],"stateMutability":"view"},{"type":"event","name":"AnnouncesCommitted","inputs":[{"name":"head","type":"bytes32","indexed":false,"internalType":"bytes32"}],"anonymous":false},{"type":"event","name":"BatchCommitted","inputs":[{"name":"hash","type":"bytes32","indexed":false,"internalType":"bytes32"}],"anonymous":false},{"type":"event","name":"CodeGotValidated","inputs":[{"name":"codeId","type":"bytes32","indexed":false,"internalType":"bytes32"},{"name":"valid","type":"bool","indexed":true,"internalType":"bool"}],"anonymous":false},{"type":"event","name":"CodeValidationRequested","inputs":[{"name":"codeId","type":"bytes32","indexed":false,"internalType":"bytes32"}],"anonymous":false},{"type":"event","name":"ComputationSettingsChanged","inputs":[{"name":"threshold","type":"uint64","indexed":false,"internalType":"uint64"},{"name":"wvaraPerSecond","type":"uint128","indexed":false,"internalType":"uint128"}],"anonymous":false},{"type":"event","name":"EIP712DomainChanged","inputs":[],"anonymous":false},{"type":"event","name":"Initialized","inputs":[{"name":"version","type":"uint64","indexed":false,"internalType":"uint64"}],"anonymous":false},{"type":"event","name":"OwnershipTransferred","inputs":[{"name":"previousOwner","type":"address","indexed":true,"internalType":"address"},{"name":"newOwner","type":"address","indexed":true,"internalType":"address"}],"anonymous":false},{"type":"event","name":"Paused","inputs":[{"name":"account","type":"address","indexed":false,"internalType":"address"}],"anonymous":false},{"type":"event","name":"ProgramCreated","inputs":[{"name":"actorId","type":"address","indexed":false,"internalType":"address"},{"name":"codeId","type":"bytes32","indexed":true,"internalType":"bytes32"}],"anonymous":false},{"type":"event","name":"StorageSlotChanged","inputs":[{"name":"slot","type":"bytes32","indexed":false,"internalType":"bytes32"}],"anonymous":false},{"type":"event","name":"Unpaused","inputs":[{"name":"account","type":"address","indexed":false,"internalType":"address"}],"anonymous":false},{"type":"event","name":"Upgraded","inputs":[{"name":"implementation","type":"address","indexed":true,"internalType":"address"}],"anonymous":false},{"type":"event","name":"ValidatorsCommittedForEra","inputs":[{"name":"eraIndex","type":"uint256","indexed":false,"internalType":"uint256"}],"anonymous":false},{"type":"error","name":"AddressEmptyCode","inputs":[{"name":"target","type":"address","internalType":"address"}]},{"type":"error","name":"ApproveERC20Failed","inputs":[]},{"type":"error","name":"BatchTimestampNotInPast","inputs":[]},{"type":"error","name":"BatchTimestampTooEarly","inputs":[]},{"type":"error","name":"BlobNotFound","inputs":[]},{"type":"error","name":"CodeAlreadyOnValidationOrValidated","inputs":[]},{"type":"error","name":"CodeNotValidated","inputs":[]},{"type":"error","name":"CodeValidationNotRequested","inputs":[]},{"type":"error","name":"CommitmentEraNotNext","inputs":[]},{"type":"error","name":"ECDSAInvalidSignature","inputs":[]},{"type":"error","name":"ECDSAInvalidSignatureLength","inputs":[{"name":"length","type":"uint256","internalType":"uint256"}]},{"type":"error","name":"ECDSAInvalidSignatureS","inputs":[{"name":"s","type":"bytes32","internalType":"bytes32"}]},{"type":"error","name":"ERC1967InvalidImplementation","inputs":[{"name":"implementation","type":"address","internalType":"address"}]},{"type":"error","name":"ERC1967NonPayable","inputs":[]},{"type":"error","name":"ElectionNotStarted","inputs":[]},{"type":"error","name":"EmptyValidatorsList","inputs":[]},{"type":"error","name":"EnforcedPause","inputs":[]},{"type":"error","name":"EraDurationTooShort","inputs":[]},{"type":"error","name":"ErasTimestampMustNotBeEqual","inputs":[]},{"type":"error","name":"ExpectedPause","inputs":[]},{"type":"error","name":"ExpiredSignature","inputs":[{"name":"deadline","type":"uint256","internalType":"uint256"}]},{"type":"error","name":"FailedCall","inputs":[]},{"type":"error","name":"GenesisHashAlreadySet","inputs":[]},{"type":"error","name":"GenesisHashNotFound","inputs":[]},{"type":"error","name":"InvalidAccountNonce","inputs":[{"name":"account","type":"address","internalType":"address"},{"name":"currentNonce","type":"uint256","internalType":"uint256"}]},{"type":"error","name":"InvalidBlobHash","inputs":[{"name":"index","type":"uint256","internalType":"uint256"},{"name":"providedBlobHash","type":"bytes32","internalType":"bytes32"},{"name":"expectedBlobHash","type":"bytes32","internalType":"bytes32"}]},{"type":"error","name":"InvalidBlobHashesLength","inputs":[{"name":"providedLength","type":"uint256","internalType":"uint256"},{"name":"expectedLength","type":"uint256","internalType":"uint256"}]},{"type":"error","name":"InvalidElectionDuration","inputs":[]},{"type":"error","name":"InvalidFROSTAggregatedPublicKey","inputs":[]},{"type":"error","name":"InvalidFrostSignatureCount","inputs":[]},{"type":"error","name":"InvalidFrostSignatureLength","inputs":[]},{"type":"error","name":"InvalidInitialization","inputs":[]},{"type":"error","name":"InvalidPreviousCommittedBatchHash","inputs":[]},{"type":"error","name":"InvalidSigner","inputs":[{"name":"signer","type":"address","internalType":"address"},{"name":"requester","type":"address","internalType":"address"}]},{"type":"error","name":"InvalidTimestamp","inputs":[]},{"type":"error","name":"NotInitializing","inputs":[]},{"type":"error","name":"OwnableInvalidOwner","inputs":[{"name":"owner","type":"address","internalType":"address"}]},{"type":"error","name":"OwnableUnauthorizedAccount","inputs":[{"name":"account","type":"address","internalType":"address"}]},{"type":"error","name":"PredecessorBlockNotFound","inputs":[]},{"type":"error","name":"ReentrancyGuardReentrantCall","inputs":[]},{"type":"error","name":"RewardsCommitmentEraNotPrevious","inputs":[]},{"type":"error","name":"RewardsCommitmentPredatesGenesis","inputs":[]},{"type":"error","name":"RewardsCommitmentTimestampNotInPast","inputs":[]},{"type":"error","name":"RouterGenesisHashNotInitialized","inputs":[]},{"type":"error","name":"SafeCastOverflowedUintDowncast","inputs":[{"name":"bits","type":"uint8","internalType":"uint8"},{"name":"value","type":"uint256","internalType":"uint256"}]},{"type":"error","name":"SignatureVerificationFailed","inputs":[]},{"type":"error","name":"TimestampInFuture","inputs":[]},{"type":"error","name":"TimestampOlderThanPreviousEra","inputs":[]},{"type":"error","name":"TooManyChainCommitments","inputs":[]},{"type":"error","name":"TooManyRewardsCommitments","inputs":[]},{"type":"error","name":"TooManyValidatorsCommitments","inputs":[]},{"type":"error","name":"TransferFromFailed","inputs":[]},{"type":"error","name":"UUPSUnauthorizedCallContext","inputs":[]},{"type":"error","name":"UUPSUnsupportedProxiableUUID","inputs":[{"name":"slot","type":"bytes32","internalType":"bytes32"}]},{"type":"error","name":"UnknownProgram","inputs":[]},{"type":"error","name":"ValidationBeforeGenesis","inputs":[]},{"type":"error","name":"ValidationDelayTooBig","inputs":[]},{"type":"error","name":"ValidatorsAlreadyScheduled","inputs":[]},{"type":"error","name":"ValidatorsNotFoundForTimestamp","inputs":[]},{"type":"error","name":"ZeroValueTransfer","inputs":[]}],"bytecode":{"object":"0x60a080604052346100c257306080525f5160206159de5f395f51905f525460ff8160401c166100b3576002600160401b03196001600160401b03821601610060575b60405161591790816100c78239608051818181612af40152612b870152f35b6001600160401b0319166001600160401b039081175f5160206159de5f395f51905f525581527fc7f505b2f371ae2175ee4913f4499e1f2633a7b5936321eed1cdaeb6115181d290602090a15f80610041565b63f92ee8a960e01b5f5260045ffd5b5f80fdfe6080806040526004361015610091575b50361561001a575f80fd5b610022613a0c565b5f5160206158975f395f51905f5254600181015415610082576001600160801b0334161561007357335f908152601a9190910160205260409020541561006457005b63821a62f560e01b5f5260045ffd5b63a1a7c6eb60e01b5f5260045ffd5b63580683f360e01b5f5260045ffd5b5f905f3560e01c9081627a32e7146132b2575080630b9737ce1461327f5780630c18d277146131b45780630d91bf2a14612fe657806311bec80d14612fb3578063188509e914612f8557806328e24b3d14612f575780633644e51514612f3c5780633683c4d214612e7f5780633bd109fa14612e305780633d43b41814612ddc5780633f4ba83a14612d5c5780634f1ef28614612b4857806352d1902d14612ae157806353f7fd48146122be5780635c975abb1461228f5780636c2eb35014611d20578063715018a614611cb757806371a8cf2d14611c895780637ecebe0014611c3157806382bdeaad14611b195780638456cb5914611aa657806384b0196e1461197e57806384d22a4f1461192057806388f50cf0146118e75780638b1edf1e146118885780638c4ace6a146117285780638da5cb5b146116f35780638f381dbe146116ad5780639067088e1461166457806396a2ddfa146116365780639eb939a8146115df578063a5d53a441461155f578063ad3cb1cc14611516578063b24fcac014611080578063baaf020114610f83578063c13911e814610f3f578063c2eb812f14610bb8578063ca1e781914610b68578063cacf66ab14610b30578063d456fd5114610afa578063e3a6684f14610abb578063e6fabc0914610a82578063ed612f8c14610a4a578063edc87225146109f5578063ee32004f1461080f578063f0fd702a146103b7578063f1ef31ec14610389578063f2fde38b1461035c578063f4f20ac0146103235763facd743b0361000f5734610320576020366003190112610320576102e2613308565b60036102fd5f5160206158975f395f51905f5254429061529f565b019060018060a01b03165f52602052602060ff60405f2054166040519015158152f35b80fd5b50346103205780600319360112610320575f5160206158975f395f51905f5254600701546040516001600160a01b039091168152602090f35b503461032057602036600319011261032057610386610379613308565b6103816139d9565b613968565b80f35b50346103205780600319360112610320576020601f5f5160206158975f395f51905f52540154604051908152f35b503461032057610140366003190112610320576103d2613308565b602435906044356001600160401b03811161080b576103f5903690600401613457565b90916064359060843560ff811681036108075760e4359060ff821682036108035761041e613a0c565b8749156107f4575f5160206158975f395f51905f5254946001860154156107e5576019860196888a528760205260ff60408b20541660038110156107d1576107c257895b80496107b45780830361079d5750895b82811061075657508542116107425760405160208101906001600160fb1b03841161073e576104bd602082610588956105919760051b8091873781010301601f1981018352826133c7565b5190209260018060a01b03861693848c527f5ab42ced628888259c08ac98db1eb0cf702fc1501344311d8b100cd1bfe4bb0060205260408c208054906001820190556040519060208201927f375d2ef9b9e33c640a295f53873dc74833c3d019f349464ce2fe8899962b809784528760408401528d6060840152608083015260a08201528860c082015260c0815261055660e0826133c7565b51902061056161523e565b906040519161190160f01b83526002830152602282015260c43591604260a4359220615570565b909291926155f2565b6001600160a01b031681810361072957505086906105c660018060a01b0360068701541695601f601e8201549101549061395b565b93853b156107255760405163d505accf60e01b81526001600160a01b038516600482015230602482015260448101869052606481019190915260ff9190911660848201526101043560a48201526101243560c4820152818160e48183895af1610708575b506040516323b872dd60e01b81526001600160a01b039092166004830152306024830152604482019290925291602091839190829081606481015b03925af19081156106fd5784916106ce575b50156106bf5781835260209081526040808420805460ff19166001179055519182527f5c261a095dd5720475295dc06379921c003c22164ee6cae5cf83e76ce0a1b98591a180f35b631e4e7d0960e21b8352600483fd5b6106f0915060203d6020116106f6575b6106e881836133c7565b810190613599565b5f610677565b503d6106de565b6040513d86823e3d90fd5b81610715919493946133c7565b6107215790855f61062a565b8580fd5b8280fd5b637ba5ffb560e01b8952600452602452604487fd5b8b80fd5b632f4aa44f60e21b8a52600486905260248afd5b804980610764838686613742565b3514610771838686613742565b359015610782575050600101610472565b606493508c926306f2f0e760e21b8452600452602452604452fd5b635cfa404d60e11b8b52600483905260245260448afd5b6107bd9061394d565b610462565b6304c51a3360e31b8a5260048afd5b634e487b7160e01b8b52602160045260248bfd5b63580683f360e01b8952600489fd5b637bb2fa2f60e11b8852600488fd5b8780fd5b8680fd5b8380fd5b5034610320576101203660031901126103205761082a6132dc565b6108326132f2565b6084356001600160801b0381169081810361099d578460c43560ff8116810361098e5761085d613a0c565b61086b602435600435613a33565b6006015490936001600160a01b0390911691823b1561080b576108b38480926040518093819263d505accf60e01b8352610104359060e4359060a4358a30336004890161354f565b038183885af16109e0575b50506040516323b872dd60e01b81523360048201523060248201526001600160801b039190911660448201529160209183916064918391905af19081156109d55786916109b6575b50156109a7576001600160a01b03908116939081166109a1575033915b833b1561099d57604051635fd142bb60e11b81526001600160a01b03938416600482015292166024830152604482018490526064820152828160848183865af1801561099257610979575b602082604051908152f35b6109848380926133c7565b61098e578161096e565b5080fd5b6040513d85823e3d90fd5b8480fd5b91610923565b631e4e7d0960e21b8552600485fd5b6109cf915060203d6020116106f6576106e881836133c7565b5f610906565b6040513d88823e3d90fd5b816109ea916133c7565b61072557825f6108be565b50346103205780600319360112610320576020610a425f5160206158975f395f51905f525460086004610a28428461529f565b0154910154906001600160801b038260801c921690615213565b604051908152f35b503461032057806003193601126103205760206004610a785f5160206158975f395f51905f5254429061529f565b0154604051908152f35b50346103205780600319360112610320575f5160206158975f395f51905f5254600501546040516001600160a01b039091168152602090f35b5034610320578060031936011261032057604060085f5160206158975f395f51905f525401548151906001600160801b038116825260801c6020820152f35b5034610320578060031936011261032057602065ffffffffffff60045f5160206158975f395f51905f5254015416604051908152f35b5034610320578060031936011261032057602065ffffffffffff60025f5160206158975f395f51905f52540154821c16604051908152f35b5034610320578060031936011261032057610bb4610ba06004610b9a5f5160206158975f395f51905f5254429061529f565b016138fa565b6040519182916020835260208301906134cc565b0390f35b5034610320578060031936011261032057604051610bd581613390565b610bdd613828565b8152604051610beb81613375565b5f8152602081015f90526020820152610c02613828565b6040820152610c0f6138c7565b6060820152604051610c2081613375565b5f80825260208201526080820152610c36613828565b60a08201528160c08201528160e0820152816101008201528161012082015261014001525f5160206158975f395f51905f5254610c716138c7565b50610c7e6009820161551b565b90610c8b600f820161551b565b60088201549260405193610c9e856133ac565b6001600160801b038116855260801c602085015260408401526060830152601b81015490601c810154601d82015461ffff16601e83015490601f8401549260405195610ce987613390565b604051610cf581613346565b60018701548152600287015463ffffffff8116602083015260201c65ffffffffffff166040820152875260405197610d2c89613375565b60038701548952600487015465ffffffffffff1660208a01526020880198895260405190610d5982613346565b60058801546001600160a01b039081168352600689015481166020840152600789015416604080840191909152890191825260608901908152610d9e6015890161377a565b9760808a01988952601601610db290613846565b9160a08a0192835260c08a0193845260e08a019485526101008a019586526101208a019687526101408a019788526040519a8b9a60208c5251805160208d0152602081015163ffffffff1660408d01526040015165ffffffffffff1660608c015251805160808c01526020015165ffffffffffff1660a08b015251600160a01b6001900381511660c08b0152600160a01b6001900360208201511660e08b0152600160a01b600190039060400151166101008a0152516101208901610260905280516001600160801b03166102808a015260208101516001600160801b03166102a08a015260408101516102c08a01608090526103008a01610eb391613508565b90606001519061027f198a8203016102e08b0152610ed091613508565b965180516001600160401b03166101408a0152602001516001600160801b031661016089015251805161018089015260208101516101a0890152604001516101c0880152516101e0870152516102008601525161ffff1661022085015251610240840152516102608301520390f35b50346103205760203660031901126103205760ff604060209260195f5160206158975f395f51905f52540160043582528452205416610f816040518092613487565bf35b5034610320576020366003190112610320576004356001600160401b03811161098e57610fb4903690600401613457565b905f5160206158975f395f51905f525490610fce836136d7565b91610fdc60405193846133c7565b838352610fe8846136d7565b602084019490601f1901368637601a869201915b81811061104757868587604051928392602084019060208552518091526040840192915b81811061102e575050500390f35b8251845285945060209384019390920191600101611020565b8061105d6110586001938588613742565b6137a8565b828060a01b03165f528360205260405f20546110798288613766565b5201610ffc565b5034610320576060366003190112610320576001600160401b036004351161032057610100600435360360031901126103205760026024351015610320576044356001600160401b03811161098e576110dd903690600401613457565b7f9b779b17422d0df92223018b32b4d1fa46e071723d6817e2486d003becc55f005c6115075760017f9b779b17422d0df92223018b32b4d1fa46e071723d6817e2486d003becc55f005d5f5160206158975f395f51905f5254906001820154156114f85781541561149c575b6003820154604460043501350361148d5765ffffffffffff60048301541665ffffffffffff61117c60246004350161387c565b161061147f5761119160043560040183614444565b926111a660a4600435016004356004016148f9565b808096925060051b046020148515171561146b576111c68560051b615307565b8695865b81881061133657506112fc965060051b9020906111ec60043560040186614950565b6111fb60043560040187614d27565b9061120a60246004350161387c565b9361121960646004350161386e565b9360405194602086019660043560040135885265ffffffffffff60d01b9060d01b16604087015260446004350135604687015260ff60f81b9060f81b1660668601526067850152608784015260a783015260c782015260c7815261127e60e7826133c7565b5190209283600382015565ffffffffffff61129d60246004350161387c565b1665ffffffffffff196004830154161760048201557f7ebe42360bcb182fe0a88148b081e4557c89d09aa6af8307635ac2f83e2aaa656020604051868152a165ffffffffffff6112f160246004350161387c565b169360243591614faa565b1561132757807f9b779b17422d0df92223018b32b4d1fa46e071723d6817e2486d003becc55f005d80f35b63729d0f6b60e01b8152600490fd5b61134a60a4600435016004356004016148f9565b891015611457578860061b8101358a526019880160205260ff60408b20541660038110156107d1576001036114485760019160209161140d8b8b8e868360061b860101926113978461492e565b156114295760061b85013590525060198c01855260408e20805460ff19166002179055601c8c0180546113c99061394d565b90555b8c7f460119a8f69a33ed127de517d5ea464e958ce23ef19e4420a8b92bf780bbc2c9866113f88461492e565b1515926040519060061b8701358152a261492e565b908b60061b01358c52825360218b2081860152019701966111ca565b60409260199160061b87013583520187522060ff1981541690556113cc565b636e83084760e11b8a5260048afd5b634e487b7160e01b8a52603260045260248afd5b634e487b7160e01b86526011600452602486fd5b620725b160ea1b8452600484fd5b63164b6fc360e01b8452600484fd5b6114b96114ad60646004350161386e565b600435600401356143af565b156114e95765ffffffffffff6114d360246004350161387c565b16421161114957631ad8809560e31b8452600484fd5b637b8cb35960e01b8452600484fd5b63580683f360e01b8452600484fd5b633ee5aeb560e01b8352600483fd5b503461032057806003193601126103205750610bb46040516115396040826133c7565b60058152640352e302e360dc1b60208201526040519182916020835260208301906134a8565b50346103205780600319360112610320575f5160206158975f395f51905f52546001600160a01b039060029061159690429061529f565b0154166040519182915f19813b0164ffffffffff16916021830191601f8501903c8082520190604082019182604052602083526115da603f199260608301906134a8565b030190f35b50346103205780600319360112610320576115f8613828565b50606061161560165f5160206158975f395f51905f525401613846565b610f8160405180926040809180518452602081015160208501520151910152565b50346103205780600319360112610320576020601b5f5160206158975f395f51905f52540154604051908152f35b50346103205760203660031901126103205761167e613308565b601a5f5160206158975f395f51905f5254019060018060a01b03165f52602052602060405f2054604051908152f35b503461032057602036600319011261032057600435906001600160401b0382116103205760206116e96116e33660048601613457565b906137bc565b6040519015158152f35b50346103205780600319360112610320575f5160206158175f395f51905f52546040516001600160a01b039091168152602090f35b50346103205760a03660031901126103205760043560443560ff8116810361072557611752613a0c565b824915611879575f5160206158975f395f51905f52546001810154156114f85760198101918385528260205260ff604086205416600381101561186557611856576006820154601e9092015485926001600160a01b031691823b1561080b5760405163d505accf60e01b815233600482015230602480830191909152604482018490523560648083019190915260ff92909216608480830191909152913560a4820152903560c48201528390818160e48183885af1611841575b50506040516323b872dd60e01b8152336004820152306024820152604481019190915291602091839182908160648101610665565b8161184b916133c7565b61072557825f61180c565b6304c51a3360e31b8552600485fd5b634e487b7160e01b86526021600452602486fd5b637bb2fa2f60e11b8352600483fd5b50346103205780600319360112610320575f5160206158975f395f51905f5254600181019081546118d8576002015463ffffffff16409081156118c9575580f35b63f7bac7b560e01b8352600483fd5b6309476b0360e41b8352600483fd5b50346103205780600319360112610320575f5160206158975f395f51905f5254600601546040516001600160a01b039091168152602090f35b50346103205780600319360112610320576119396135b1565b50604061195660155f5160206158975f395f51905f52540161377a565b610f81825180926001600160801b03602080926001600160401b038151168552015116910152565b50346103205780600319360112610320575f5160206158575f395f51905f52541580611a90575b15611a53576119f7906119b6614235565b906119bf614302565b906020611a05604051936119d383866133c7565b8385525f368137604051968796600f60f81b885260e08589015260e08801906134a8565b9086820360408801526134a8565b904660608601523060808601528260a086015284820360c08601528080855193848152019401925b828110611a3c57505050500390f35b835185528695509381019392810192600101611a2d565b60405162461bcd60e51b81526020600482015260156024820152741152540dcc4c8e88155b9a5b9a5d1a585b1a5e9959605a1b6044820152606490fd5b505f5160206158f75f395f51905f5254156119a5565b5034610320578060031936011261032057611abf6139d9565b611ac7613a0c565b600160ff195f5160206158b75f395f51905f525416175f5160206158b75f395f51905f52557f62e78cea01bee320cd4e420270b5ea74000d11b0c9f74754ebdbfc544b05a2586020604051338152a180f35b5034610320576020366003190112610320576004356001600160401b03811161098e57611b4a903690600401613457565b905f5160206158975f395f51905f525490611b64836136d7565b91611b7260405193846133c7565b838352611b7e846136d7565b602084019490601f19013686376019869201915b818110611be757868587604051928392602084019060208552518091526040840192915b818110611bc4575050500390f35b9193509160208082611bd96001948851613487565b019401910191849392611bb6565b611bf2818386613742565b3587528260205260ff604088205416611c0b8287613766565b6003821015611c1d5752600101611b92565b634e487b7160e01b89526021600452602489fd5b5034610320576020366003190112610320576020906040906001600160a01b03611c59613308565b1681527f5ab42ced628888259c08ac98db1eb0cf702fc1501344311d8b100cd1bfe4bb0083522054604051908152f35b5034610320578060031936011261032057602060035f5160206158975f395f51905f52540154604051908152f35b5034610320578060031936011261032057611cd06139d9565b5f5160206158175f395f51905f5280546001600160a01b0319811690915581906001600160a01b03167f8be0079c531659141344cd1fd0a4f28419497f9722a3daafe3b4186f6b6457e08280a380f35b5034610320578060031936011261032057611d396139d9565b5f5160206158d75f395f51905f525460ff8160401c1690811561227a575b5061226b575f5160206158d75f395f51905f52805468ffffffffffffffffff1916680100000000000000051790555f5160206158175f395f51905f5254611db1906001600160a01b0316611da96152bb565b6103816152bb565b611db96135e7565b90611dc2613614565b90611dcb6152bb565b611dd36152bb565b82516001600160401b03811161216e57611dfa5f5160206157f75f395f51905f52546141fd565b601f8111612207575b506020601f821160011461218d57829394829392612182575b50508160011b915f199060031b1c1916175f5160206157f75f395f51905f52555b81516001600160401b03811161216e57611e645f5160206158375f395f51905f52546141fd565b601f8111612101575b50602092601f82116001146120885792829382939261207d575b50508160011b915f199060031b1c1916175f5160206158375f395f51905f52555b805f5160206158575f395f51905f5255805f5160206158f75f395f51905f52555f5160206158975f395f51905f5254611edf613fa1565b80516001830155600282019063ffffffff60208201511669ffffffffffff000000006040845493015160201b169169ffffffffffffffffffff191617179055816020604051611f2d81613375565b82815201528160038201556004810165ffffffffffff19815416905561ffff6004611f58428461529f565b01541661ffff601d8301911661ffff198254161790556004602060018060a01b036006840154166040519283809263313ce56760e01b82525afa801561099257611fa991849161204e575b5061368b565b90816103e8026103e88104830361203a57601e820155816101f402916101f483040361202657601f015560ff60401b195f5160206158d75f395f51905f5254165f5160206158d75f395f51905f52557fc7f505b2f371ae2175ee4913f4499e1f2633a7b5936321eed1cdaeb6115181d2602060405160058152a180f35b634e487b7160e01b83526011600452602483fd5b634e487b7160e01b84526011600452602484fd5b612070915060203d602011612076575b61206881836133c7565b810190613672565b5f611fa3565b503d61205e565b015190505f80611e87565b601f198216935f5160206158375f395f51905f52845280842091845b8681106120e957508360019596106120d1575b505050811b015f5160206158375f395f51905f5255611ea8565b01515f1960f88460031b161c191690555f80806120b7565b919260206001819286850151815501940192016120a4565b81811115611e6d575f5160206158375f395f51905f528352612160907f5f9ce34815f8e11431c7bb75a8e6886a91478f7ffc1dbb0a98dc240fddd76b7590601f840160051c9060208510612166575b601f82910160051c03910161401e565b5f611e6d565b859150612150565b634e487b7160e01b82526041600452602482fd5b015190505f80611e1c565b5f5160206157f75f395f51905f52835280832090601f198316845b8181106121ef575095836001959697106121d7575b505050811b015f5160206157f75f395f51905f5255611e3d565b01515f1960f88460031b161c191690555f80806121bd565b9192602060018192868b0151815501940192016121a8565b81811115611e03575f5160206157f75f395f51905f528352612265907f42ad5d3e1f2e6e70edcf6d991b8a3023d3fca8047a131592f9edb9fd9b89d57d90601f840160051c906020851061216657601f82910160051c03910161401e565b5f611e03565b63f92ee8a960e01b8152600490fd5b600591506001600160401b031610155f611d57565b5034610320578060031936011261032057602060ff5f5160206158b75f395f51905f5254166040519015158152f35b503461032057610160366003190112610320576122d9613308565b906024356001600160a01b0381169081900361098e576122f76132dc565b926123006132f2565b9360a4359060843560c43560403660e31901126108075761012435976001600160401b038911610803573660238a011215610803578860040135916001600160401b038311612add57366024848c010111612add57610144356001600160401b038111612ad957612375903690600401613457565b9690945f5160206158d75f395f51905f5254986001600160401b0360ff8b60401c16159a1680159081612ad1575b6001149081612ac7575b159081612abe575b50612aaf576123f7908a60016001600160401b03195f5160206158d75f395f51905f525416175f5160206158d75f395f51905f5255612a7f575b611da96152bb565b6123ff6152bb565b6124076135e7565b61240f613614565b906124186152bb565b6124206152bb565b8051906001600160401b038211612a6b578d829161244b5f5160206157f75f395f51905f52546141fd565b601f8111612a07575b50602091601f841160011461298b5792612980575b50508160011b915f199060031b1c1916175f5160206157f75f395f51905f52555b8051906001600160401b03821161296c578c82916124b55f5160206158375f395f51905f52546141fd565b601f8111612908575b50602091601f841160011461288c5792612881575b50508160011b915f199060031b1c1916175f5160206158375f395f51905f52555b8a5f5160206158575f395f51905f52558a5f5160206158f75f395f51905f525561251c6152bb565b6125246152bb565b4215612872578115612863578181111561285457600a6125448383613633565b048310156128455791600493916020938c60409c8d91825161256684826133c7565b601781528881017f726f757465722e73746f726167652e526f75746572563100000000000000000081526125986139d9565b5f19915190200181528760ff199120169a8b5f5160206158975f395f51905f52557f059eb9adf6e95b839d818142ed5bd5e498b6d95138e65c91525e93cc0f0339fc888d8551908152a16125ea613fa1565b8c6001825191015560028d019063ffffffff8a8201511669ffffffffffff000000008684549301518c1b169169ffffffffffffffffffff19161717905582519061263382613346565b8282526001600160a01b039081168983018190529781169390910183905260058c018054919092166001600160a01b03199182161790915560068b01805482168717905560078b018054909116909117905570030000000000000000000000000000000260088a01556126a46135b1565b506509184e72a000858d516126b881613375565b639502f900815201526015890180546001600160c01b0319166d09184e72a000000000009502f9001790558b5183908d906126f281613346565b8381528781018590520152601689015560178801556018870155601d8601805461ffff191661ffff8916179055885163313ce56760e01b815292839182905afa90811561283b579061274a91899161204e575061368b565b806103e8026103e88104820361282757601e850155806101f402906101f4820403612813576127b26127a86127b99798999a600993601f8801558a519461279086613375565b60e43586526101043560208701526024369201613403565b93429636916136ee565b9301614039565b6127c1575080f35b60207fc7f505b2f371ae2175ee4913f4499e1f2633a7b5936321eed1cdaeb6115181d29160ff60401b195f5160206158d75f395f51905f5254165f5160206158d75f395f51905f52555160018152a180f35b634e487b7160e01b88526011600452602488fd5b634e487b7160e01b89526011600452602489fd5b87513d8a823e3d90fd5b63145e348f60e01b8b5260048bfd5b6353b2bbed60e01b8b5260048bfd5b63f7ba6bdb60e01b8b5260048bfd5b63b7d0949760e01b8b5260048bfd5b015190505f806124d3565b5f5160206158375f395f51905f5281528281209350601f198516905b8181106128f057509084600195949392106128d8575b505050811b015f5160206158375f395f51905f52556124f4565b01515f1960f88460031b161c191690555f80806128be565b929360206001819287860151815501950193016128a8565b838111156124be575f5160206158375f395f51905f528352612966907f5f9ce34815f8e11431c7bb75a8e6886a91478f7ffc1dbb0a98dc240fddd76b7590601f860160051c906020871061216657601f82910160051c03910161401e565b5f6124be565b634e487b7160e01b8d52604160045260248dfd5b015190505f80612469565b5f5160206157f75f395f51905f5281528281209350601f198516905b8181106129ef57509084600195949392106129d7575b505050811b015f5160206157f75f395f51905f525561248a565b01515f1960f88460031b161c191690555f80806129bd565b929360206001819287860151815501950193016129a7565b83811115612454575f5160206157f75f395f51905f528352612a65907f42ad5d3e1f2e6e70edcf6d991b8a3023d3fca8047a131592f9edb9fd9b89d57d90601f860160051c906020871061216657601f82910160051c03910161401e565b5f612454565b634e487b7160e01b8e52604160045260248efd5b600160401b60ff60401b195f5160206158d75f395f51905f525416175f5160206158d75f395f51905f52556123ef565b63f92ee8a960e01b8c5260048cfd5b9050155f6123b5565b303b1591506123ad565b8b91506123a3565b8980fd5b8880fd5b50346103205780600319360112610320577f00000000000000000000000000000000000000000000000000000000000000006001600160a01b03163003612b395760206040515f5160206158775f395f51905f528152f35b63703e46dd60e11b8152600490fd5b50604036600319011261032057612b5d613308565b906024356001600160401b03811161098e57612b7d903690600401613439565b6001600160a01b037f000000000000000000000000000000000000000000000000000000000000000016308114908115612d3a575b50612d2b57612bbf6139d9565b6040516352d1902d60e01b8152926001600160a01b0381169190602085600481865afa80958596612cf3575b50612c0457634c9c8ce360e01b84526004839052602484fd5b9091845f5160206158775f395f51905f528103612ce15750813b15612ccf575f5160206158775f395f51905f5280546001600160a01b031916821790557fbc7cd75a20ee27fd9adebab32041f755214dbc6bffa90cc0225b39da2e5c2d3b8480a28151839015612cb55780836020612ca995519101845af43d15612cad573d91612c8d836133e8565b92612c9b60405194856133c7565b83523d85602085013e615798565b5080f35b606091615798565b50505034612cc05780f35b63b398979f60e01b8152600490fd5b634c9c8ce360e01b8452600452602483fd5b632a87526960e21b8552600452602484fd5b9095506020813d602011612d23575b81612d0f602093836133c7565b81010312612d1f5751945f612beb565b5f80fd5b3d9150612d02565b63703e46dd60e11b8252600482fd5b5f5160206158775f395f51905f52546001600160a01b0316141590505f612bb2565b5034610320578060031936011261032057612d756139d9565b5f5160206158b75f395f51905f525460ff811615612dcd5760ff19165f5160206158b75f395f51905f52557f5db9ee0a495bf2e6ff9c91a7834c1ba4fdd244a5e8aa4e537bd38aeae4b073aa6020604051338152a180f35b638dfc202b60e01b8252600482fd5b503461032057602036600319011261032057612df6613308565b612dfe6139d9565b5f5160206158975f395f51905f525460050180546001600160a01b0319166001600160a01b0390921691909117905580f35b5034610320578060031936011261032057612e496135b1565b506040612e6d612e685f5160206158975f395f51905f5254429061529f565b6135c9565b60208251918051835201516020820152f35b503461032057606036600319011261032057612e996132dc565b612ea1613a0c565b612eaf602435600435613ea9565b506001600160a01b0390811691908116612f375750335b5f5160206158975f395f51905f5254600501546001600160a01b0316823b1561080b57604051635fd142bb60e11b81526001600160a01b03909216600483015260248201526001604482015260648101839052828160848183865af180156109925761097957602082604051908152f35b612ec6565b50346103205780600319360112610320576020610a4261523e565b5034610320578060031936011261032057602060015f5160206158975f395f51905f52540154604051908152f35b50346103205780600319360112610320576020601e5f5160206158975f395f51905f52540154604051908152f35b503461032057602036600319011261032057612fcd6139d9565b600435601e5f5160206158975f395f51905f5254015580f35b503461032057610100366003190112610320576130016132dc565b6064356001600160801b0381169081810361080b578360a43560ff8116810361098e5761302c613a0c565b61303a602435600435613ea9565b6006015490936001600160a01b0390911691823b1561080b576130818480926040518093819263d505accf60e01b835260e4359060c435906084358a30336004890161354f565b038183885af161319f575b50506040516323b872dd60e01b81523360048201523060248201526001600160801b039190911660448201529160209183916064918391905af1908115613194578591613175575b5015613166576001600160a01b0390811692908116613160575033905b5f5160206158975f395f51905f5254600501546001600160a01b0316833b1561099d57604051635fd142bb60e11b81526001600160a01b0390931660048401526024830152600160448301526064820152828160848183865af180156109925761097957602082604051908152f35b906130f1565b631e4e7d0960e21b8452600484fd5b61318e915060203d6020116106f6576106e881836133c7565b5f6130d4565b6040513d87823e3d90fd5b816131a9916133c7565b61072557825f61308c565b34612d1f576080366003190112612d1f576131cd6132dc565b6131d56132f2565b906131de613a0c565b6131ec602435600435613a33565b506001600160a01b0390811691908116613279575033915b813b15612d1f57604051635fd142bb60e11b81526001600160a01b039384166004820152921660248301525f60448301819052606483018190528260848183855af191821561326e5760209261325e575b50604051908152f35b5f613268916133c7565b5f613255565b6040513d5f823e3d90fd5b91613204565b34612d1f576020366003190112612d1f576132986139d9565b600435601f5f5160206158975f395f51905f525401555f80f35b34612d1f575f366003190112612d1f57602090601c5f5160206158975f395f51905f525401548152f35b604435906001600160a01b0382168203612d1f57565b606435906001600160a01b0382168203612d1f57565b600435906001600160a01b0382168203612d1f57565b35906001600160a01b0382168203612d1f57565b35906001600160801b0382168203612d1f57565b606081019081106001600160401b0382111761336157604052565b634e487b7160e01b5f52604160045260245ffd5b604081019081106001600160401b0382111761336157604052565b61016081019081106001600160401b0382111761336157604052565b608081019081106001600160401b0382111761336157604052565b90601f801991011681019081106001600160401b0382111761336157604052565b6001600160401b03811161336157601f01601f191660200190565b92919261340f826133e8565b9161341d60405193846133c7565b829481845281830111612d1f578281602093845f960137010152565b9080601f83011215612d1f5781602061345493359101613403565b90565b9181601f84011215612d1f578235916001600160401b038311612d1f576020808501948460051b010111612d1f57565b9060038210156134945752565b634e487b7160e01b5f52602160045260245ffd5b805180835260209291819084018484015e5f828201840152601f01601f1916010190565b90602080835192838152019201905f5b8181106134e95750505090565b82516001600160a01b03168452602093840193909201916001016134dc565b9060208251805183520151602082015260018060a01b03602083015116604082015260806060613546604085015160a08386015260a08501906134cc565b93015191015290565b936001600160801b0360c096929998979460ff9460e088019b60018060a01b0316885260018060a01b03166020880152166040860152606085015216608083015260a08201520152565b90816020910312612d1f57518015158103612d1f5790565b604051906135be82613375565b5f6020838281520152565b906040516135d681613375565b602060018294805484520154910152565b604051906135f66040836133c7565b600f82526e2b30b9309722aa24102937baba32b960891b6020830152565b604051906136236040836133c7565b60018252603160f81b6020830152565b9190820391821161364057565b634e487b7160e01b5f52601160045260245ffd5b811561365e570490565b634e487b7160e01b5f52601260045260245ffd5b90816020910312612d1f575160ff81168103612d1f5790565b60ff16604d811161364057600a0a90565b8181029291811591840414171561364057565b9190826040910312612d1f576040516136c781613375565b6020808294803584520135910152565b6001600160401b0381116133615760051b60200190565b9291906136fa816136d7565b9361370860405195866133c7565b602085838152019160051b8101928311612d1f57905b82821061372a57505050565b602080916137378461331e565b81520191019061371e565b91908110156137525760051b0190565b634e487b7160e01b5f52603260045260245ffd5b80518210156137525760209160051b010190565b9060405161378781613375565b91546001600160401b038116835260401c6001600160801b03166020830152565b356001600160a01b0381168103612d1f5790565b6137d55f5160206158975f395f51905f5254429061529f565b600301905f5b8381106137eb5750505050600190565b6137f9611058828685613742565b6001600160a01b03165f9081526020849052604090205460ff1615613820576001016137db565b505050505f90565b6040519061383582613346565b5f6040838281528260208201520152565b9060405161385381613346565b60406002829480548452600181015460208501520154910152565b3560ff81168103612d1f5790565b3565ffffffffffff81168103612d1f5790565b6040519061389c826133ac565b5f6060836040516138ac81613375565b83815283602082015281528260208201528160408201520152565b604051906138d4826133ac565b815f81525f60208201526138e661388f565b604082015260606138f561388f565b910152565b90604051918281549182825260208201905f5260205f20925f5b81811061392b575050613929925003836133c7565b565b84546001600160a01b0316835260019485019487945060209093019201613914565b5f1981146136405760010190565b9190820180921161364057565b6001600160a01b031680156139c6575f5160206158175f395f51905f5280546001600160a01b0319811683179091556001600160a01b03167f8be0079c531659141344cd1fd0a4f28419497f9722a3daafe3b4186f6b6457e05f80a3565b631e4fbdf760e01b5f525f60045260245ffd5b5f5160206158175f395f51905f52546001600160a01b031633036139f957565b63118cdaa760e01b5f523360045260245ffd5b60ff5f5160206158b75f395f51905f525416613a2457565b63d93c066560e01b5f5260045ffd5b9190915f5160206158975f395f51905f52549260018401541561008257815f526019840160205260ff60405f205416600381101561349457600203613e9a57815f5260205260405f206040516103008101908082106001600160401b03831117612d1f576102fb916040527f6080806040526102e990816100128239f3fe60806040526004361061029f575f81527f3560e01c806336a52a18146100bb57806342129d00146100b65780635ce6c32760208201527f146100b1578063701da98e146100ac578063704ed542146100a75780637a8e0c60408201527fdd146100a257806391d5a64c1461009d5780639ce110d714610098578063affe60608201527fd0e014610093578063c60496921461008e5763e43f34330361029f5761028a5660808201527f5b610260565b610243565b61021b565b610205565b6101d2565b6101b3565b6160a08201527f0178565b610156565b610119565b346100e7575f3660031901126100e757600260c08201527f5460405160089190911c6001600160a01b03168152602090f35b5f80fd5b918160e08201527f601f840112156100e75782359167ffffffffffffffff83116100e757602083816101008201527f8601950101116100e757565b60403660031901126100e75760043567ffffffff6101208201527fffffffff81116100e7576101459036906004016100eb565b50506024358015156101408201527f1461029f575f80fd5b346100e7575f3660031901126100e757602060ff6002546101608201527f166040519015158152f35b346100e7575f3660031901126100e75760205f54606101808201527f4051908152f35b600435906fffffffffffffffffffffffffffffffff821682036101a08201527f6100e757565b346100e75760203660031901126100e7576101cc610194565b506101c08201527f61029f565b60403660031901126100e75760243567ffffffffffffffff8111616101e08201527ee7576101fe9036906004016100eb565b505061029f565b346100e7576020366102008201527f60031901121561029f575f80fd5b346100e7575f3660031901126100e75760036102208201527f546040516001600160a01b039091168152602090f35b346100e7575f366003196102408201527f01126100e7576020600154604051908152f35b346100e75760a03660031901126102608201527f6100e757610279610194565b5060443560ff81161461029f575f80fd5b3461006102808201527fe7575f3660031901121561029f575f80fd5b63e6fabc0960e01b5f5260205f606102a08201523060481b685afa156100e7575f806204817360e81b01176102c08201527f8051368280378136915af43d5f803e156102e5573d5ff35b3d5ffd00000000006102e08201525ff5908115612d1f5760018060a01b0382165f52601a84016020528060405f2055601b8401613e5f815461394d565b90556040516001600160a01b03831681527f8008ec1d8798725ebfa0f2d128d52e8e717dcba6e0f786557eeee70614b02bf190602090a29190565b630e2637d160e01b5f5260045ffd5b9190915f5160206158975f395f51905f52549260018401541561008257815f526019840160205260ff60405f205416600381101561349457600203613e9a57815f5260205260405f2060405160608101908082106001600160401b03831117612d1f57605a916040527f3d605080600a3d3981f3608060405263e6fabc0960e01b5f5260205f6004817381523060601b6b5afa15604c575f80805136821760208201527f80378136915af43d5f803e156048573d5ff35b3d5ffd5b5f80fd00000000000060408201525ff5908115612d1f5760018060a01b0382165f52601a84016020528060405f2055601b8401613e5f815461394d565b613fa9613828565b5063ffffffff43116140065765ffffffffffff4211613fee57604051613fce81613346565b5f815263ffffffff4316602082015265ffffffffffff4216604082015290565b6306dfcc6560e41b5f5260306004524260245260445ffd5b6306dfcc6560e41b5f5260206004524360245260445ffd5b5f5b82811061402c57505050565b5f82820155600101614020565b9291908051906020810191825170014551231950b75fc4402da1732fc9bebe19821091826141ec575b5050156141dd5751845551600184015580518060401b6bfe61000180600a3d393df3000161fffe8211830152600b8101601583015ff09182156141d057526002830180546001600160a01b0319166001600160a01b039092169190911790555f5b600483018054821015614101575f90815260208082208301546001600160a01b0316825260038501905260409020805460ff191690556001016140c3565b5050925f5b845181101561414a576001906001600160a01b036141248288613766565b5116828060a01b03165f526003840160205260405f208260ff1982541617905501614106565b5092600482018151916001600160401b03831161336157600160401b83116133615760209082548484558085106141b5575b5001905f5260205f205f5b838110614198575050505060050155565b82516001600160a01b031681830155602090920191600101614187565b6141ca90845f528580855f200191039061401e565b5f61417c565b63301164255f526004601cfd5b63375f0aab60e11b5f5260045ffd5b6141f69250615775565b5f80614062565b90600182811c9216801561422b575b602083101461421757565b634e487b7160e01b5f52602260045260245ffd5b91607f169161420c565b604051905f825f5160206157f75f395f51905f525491614254836141fd565b80835292600181169081156142e35750600114614278575b613929925003836133c7565b505f5160206157f75f395f51905f525f90815290917f42ad5d3e1f2e6e70edcf6d991b8a3023d3fca8047a131592f9edb9fd9b89d57d5b8183106142c75750509060206139299282010161426c565b60209193508060019154838589010152019101909184926142af565b6020925061392994915060ff191682840152151560051b82010161426c565b604051905f825f5160206158375f395f51905f525491614321836141fd565b80835292600181169081156142e3575060011461434457613929925003836133c7565b505f5160206158375f395f51905f525f90815290917f5f9ce34815f8e11431c7bb75a8e6886a91478f7ffc1dbb0a98dc240fddd76b755b8183106143935750509060206139299282010161426c565b602091935080600191548385890101520191019091849261437b565b435f19810193929084116136405760ff164381106143ff57505f925b838110156143db575b505f925050565b80408281036143ed5750600193505050565b156143fa575f19016143cb565b6143d4565b6144099043613633565b926143cb565b903590601e1981360301821215612d1f57018035906001600160401b038211612d1f57602001918160051b36038313612d1f57565b90608081016001614455828461440f565b9050116148ea57614466818361440f565b9050156148c3576144769161440f565b1561375257803590603e1981360301821215612d1f570191614498838061440f565b9190928260051b9383850460201484151715613640576144ba85969495615307565b925f945f97601a60fe19853603019501965b888a101561487b578960051b85013586811215612d1f5785016144ee816137a8565b6001600160a01b03165f90815260208a9052604090205415610064575f608082016001600160801b03614520826152e6565b16151580614868575b614857575b6001600160a01b0361453f846137a8565b604051630427a21d60e11b81526020600482015294911691610124850191906001600160801b03906145be906001600160a01b0361457c8561331e565b16602489015260208401356044890152614598604085016152fa565b151560648901526001600160a01b036145b36060860161331e565b166084890152613332565b1660a48601526145d060a082016152fa565b151560c486015236819003601e190160c082013581811215612d1f578201602081359101936001600160401b038211612d1f576060820236038513612d1f57819061010060e48a015252610144870193905f905b80821061480d5750505060e082013590811215612d1f5701803560208201926001600160401b038211612d1f578160051b908136038513612d1f5791879594936023198785030161010488015281845260208085019385010194935f9160fe19813603015b8484106147005750505050505050602093916001600160801b03848093039316905af190811561326e575f916146ce575b50816020916001938a0152019901986144cc565b90506020813d82116146f8575b816146e8602093836133c7565b81010312612d1f575160016146ba565b3d91506146db565b919395979850919395601f19848203018752873582811215612d1f578301602081013582526001600160a01b036147396040830161331e565b1660208301526060810135603e193683900301811215612d1f578101602081013591906040016001600160401b038311612d1f578236038113612d1f57829060e060408601528160e08601526101008501375f61010083850101526001600160801b036147a860808301613332565b16606084015260a0810135608084015260c081013563ffffffff60e01b8116809103612d1f57836020936147ea60e086956101009560a060019a0152016152fa565b151560c0830152601f80199101160101990197019401918a989796959391614689565b90919460608060019288358152838060a01b0361482c60208b0161331e565b1660208201526001600160801b0361484660408b01613332565b166040820152019601920190614624565b9050614862816152e6565b9061452e565b5061487560a0840161492e565b15614529565b5094935095509550506020925020910135907fd04cd9af813f6f0b56e9411a6ee6a84eb5ac35a96f0c33d2e3a07d65baa8f4186020604051848152a15f5260205260405f2090565b5050507fc5d2460186f7233c927e7db2dcc703c0e500b653ca82273b7bfad8045d85a47090565b6306d6c38360e01b5f5260045ffd5b903590601e1981360301821215612d1f57018035906001600160401b038211612d1f57602001918160061b36038313612d1f57565b358015158103612d1f5790565b903590605e1981360301821215612d1f570190565b60c082016001614960828561440f565b905011614ce657614971818461440f565b9050156148c357614982908361440f565b1561375257803590607e1981360301821215612d1f570191606083019060206149aa8361387c565b91019065ffffffffffff806149be8461387c565b1691161015614cd7576149d08261387c565b65ffffffffffff80600286015460201c16911610614cc857614a1665ffffffffffff614a0f614a0982614a028761387c565b168761532c565b9361387c565b168461532c565b1115614cb9576007820154600690920180548435946001600160a01b0394851694604082019391925f91602091166044614a5c83614a54898961493b565b01358b61395b565b604051948593849263095ea7b360e01b84528c600485015260248401525af190811561326e575f91614c9a575b5015614c8b575460405163394f179b60e11b81526001600160a01b03909116600482015260248101959095526020818101356044870152856064815f885af194851561326e575f95614c53575b5090614ae19161493b565b91614aeb8261387c565b9260405193637fbe95b560e01b85526040600486015260a48501918035601e1982360301811215612d1f578101602081359101936001600160401b038211612d1f578160061b36038513612d1f5760606044890152819052869360c485019392915f5b818110614c1b57505050836020959365ffffffffffff829484895f9601356064860152614b84604060018060a01b03920161331e565b16608485015216602483015203925af191821561326e575f92614be5575b50614bac9061387c565b6040519160208301938452604083015265ffffffffffff60d01b9060d01b16606082015260468152614bdf6066826133c7565b51902090565b9091506020813d602011614c13575b81614c01602093836133c7565b81010312612d1f575190614bac614ba2565b3d9150614bf4565b919550919293604080600192838060a01b03614c368a61331e565b168152602089013560208201520196019101918895949392614b4e565b919094506020823d602011614c83575b81614c70602093836133c7565b81010312612d1f57905193614ae1614ad6565b3d9150614c63565b6367b9145160e01b5f5260045ffd5b614cb3915060203d6020116106f6576106e881836133c7565b5f614a89565b6308027f7760e31b5f5260045ffd5b637bde91e760e11b5f5260045ffd5b63087a19ab60e41b5f5260045ffd5b633249ceed60e11b5f5260045ffd5b903590601e1981360301821215612d1f57018035906001600160401b038211612d1f57602001918136038313612d1f57565b9060e081016001614d38828461440f565b905011614f9b57614d49818361440f565b9050156148c357614d599161440f565b1561375257803590609e1981360301821215612d1f57016060810190614d7f828261440f565b905015614f8c5765ffffffffffff600284015460201c1691614da18342613633565b614db060168601548092613654565b9360808401359460018101809111613640578503614f7d57614dd585614ddb9361369c565b9061395b565b93614dea601782015486613633565b4210614f6e57614df990615354565b934260058601541015614f5f57614e4e906040840195614e40614e48614e1f8988614cf5565b9190614e2b888a61440f565b949091614e38368c6136af565b943691613403565b9336916136ee565b92614039565b7fa1a3b42179ad30022438a1ea333b38eaf4a7329beee5e2b8111c0dcd4e08821c6020604051858152a160a082360312612d1f5760405193614e8f856133ac565b614e9936846136af565b8552356001600160401b038111612d1f57614eb79036908401613439565b602085015235906001600160401b038211612d1f570136601f82011215612d1f57614ee99036906020813591016136ee565b91826040820152816060820152519160208351930151906040519283926020840195865260408401526060830160208351919301905f5b818110614f3d57505050815203808252614bdf90602001826133c7565b82516001600160a01b0316855286955060209485019490920191600101614f20565b6333fc8f5160e21b5f5260045ffd5b6372a84ce560e11b5f5260045ffd5b6343d3f5bf60e01b5f5260045ffd5b636c2bf3db60e01b5f5260045ffd5b631d3fc6bf60e21b5f5260045ffd5b909493919365ffffffffffff600283015460201c16614fc9428461532c565b614fe1614fdb6016860154809361369c565b8361395b565b9182841080806151fd575b156151cb575083106151bd57615002908361395b565b106151ae57615012905b8261529f565b94601960f81b5f523060601b60025260165260365f2093600281101561349457806150a3575050600181036150945715613752576150538161505a92614cf5565b3691613403565b916060835103615085578260206134549401516060604083015192015192600181549101549061536f565b632ce466bf60e01b5f5260045ffd5b6360a1ea7760e01b5f5260045ffd5b9193916001146150b65750505050505f90565b6150db90600860048796970154910154906001600160801b038260801c921690615213565b925f9260035f9201915b868110156151a35761510b6105886151056150538460051b860186614cf5565b8661573b565b6001600160a01b0381165f9081526020859052604090205460ff16615136575b506001905b016150e5565b6001600160a01b03165f9081527ff02b465737fa6045c2ff53fb2df43c66916ac2166fa303264668fb2f6a1d8c0060205260409020805c1561517b5750600190615130565b94600161518992965d61394d565b93858514615197575f61512b565b50505050505050600190565b505050505050505f90565b63046bb1e560e51b5f5260045ffd5b62f4462b60e01b5f5260045ffd5b93929150504282116151ee57615012926151e6575b5061500c565b90505f6151e0565b6347860b9760e01b5f5260045ffd5b5061520c60188701548561395b565b4210614fec565b6001600160801b0380921602911661522b8183613654565b91811561365e5706156134545760010190565b615246615652565b61524e6156a9565b6040519060208201927f8b73c3c69bb8fe3d512ecc4cf759cc79239f7b179b0ffacaa9a75d522b39400f8452604083015260608201524660808201523060a082015260a08152614bdf60c0826133c7565b906152aa90826156db565b156152b557600f0190565b60090190565b60ff5f5160206158d75f395f51905f525460401c16156152d757565b631afcd79f60e31b5f5260045ffd5b356001600160801b0381168103612d1f5790565b35908115158203612d1f57565b6040519190601f01601f191682016001600160401b03811183821017612d1f57604052565b601661534b6134549365ffffffffffff600285015460201c1690613633565b91015490613654565b61535e42826156db565b156153695760090190565b600f0190565b929391949061537e8587615775565b156155115782156155115770014551231950b75fc4402da1732fc9bebe19831015615511576001169061010e6153b381615307565b9160883684376002600188160160888401538760898401526002840160a984015360aa830186905260ca8301527e300046524f53542d736563703235366b312d4b454343414b3235362d76316360ea8301526303430b6160e51b61010a830152812060cc820181815290600260ec84016001815360428420809318845253604270014551231950b75fc4402da1732fc9bebe19922060801c6001600160401b0360801b8260801b16179070014551231950b75fc4402da1732fc9bebe1990600160c01b9060401c090880156151a35784601b6080945f9660209870014551231950b75fc4402da1732fc9bebe19910970014551231950b75fc4402da1732fc9bebe19038552018684015280604084015270014551231950b75fc4402da1732fc9bebe19910970014551231950b75fc4402da1732fc9bebe1903606082015282805260015afa505f51915f5260205260018060a01b0360405f20161490565b5050505050505f90565b61552361388f565b5060028101546005820154604051929091615563916004916001600160a01b031661554d866133ac565b615556826135c9565b86526020860152016138fa565b6040830152606082015290565b91907f7fffffffffffffffffffffffffffffff5d576e7357a4501ddfe92f46681b20a084116155e7579160209360809260ff5f9560405194855216868401526040830152606082015282805260015afa1561326e575f516001600160a01b038116156155dd57905f905f90565b505f906001905f90565b5050505f9160039190565b60048110156134945780615604575050565b6001810361561b5763f645eedf60e01b5f5260045ffd5b60028103615636575063fce698f760e01b5f5260045260245ffd5b6003146156405750565b6335e2f38360e21b5f5260045260245ffd5b61565a614235565b805190811561566a576020012090565b50505f5160206158575f395f51905f525480156156845790565b507fc5d2460186f7233c927e7db2dcc703c0e500b653ca82273b7bfad8045d85a47090565b6156b1614302565b80519081156156c1576020012090565b50505f5160206158f75f395f51905f525480156156845790565b906014600e83015492015480831461572c57818184109311918215911115918190615725575b15615716578261571057505090565b14919050565b634c38ae9560e11b5f5260045ffd5b5081615701565b63f26224af60e01b5f5260045ffd5b815191906041830361576b576157649250602082015190606060408401519301515f1a90615570565b9192909190565b50505f9160029190565b6401000003d01990600790829081818009900908906401000003d0199080091490565b906157bc57508051156157ad57602081519101fd5b63d6bda27560e01b5f5260045ffd5b815115806157ed575b6157cd575090565b639996b31560e01b5f9081526001600160a01b0391909116600452602490fd5b50803b156157c556fea16a46d94261c7517cc8ff89f61c0ce93598e3c849801011dee649a6a557d1029016d09d72d40fdae2fd8ceac6b6234c7706214fd39c1cd1e609a0528c199300a16a46d94261c7517cc8ff89f61c0ce93598e3c849801011dee649a6a557d103a16a46d94261c7517cc8ff89f61c0ce93598e3c849801011dee649a6a557d100360894a13ba1a3210667c828492db98dca3e2076cc3735a920a3ca505d382bbc5c09ca1b9b8127a4fd9f3c384aac59b661441e820e17733753ff5f2e86e1e000cd5ed15c6e187e77e9aee88184c21f4f2182ab5827cb3b7e07fbedcd63f03300f0c57e16840df040f15088dc2f81fe391c3923bec73e23a9662efc9c229c6a00a16a46d94261c7517cc8ff89f61c0ce93598e3c849801011dee649a6a557d101f0c57e16840df040f15088dc2f81fe391c3923bec73e23a9662efc9c229c6a00","linkReferences":{}},"methodIdentifiers":{"DOMAIN_SEPARATOR()":"3644e515","UPGRADE_INTERFACE_VERSION()":"ad3cb1cc","areValidators(address[])":"8f381dbe","codeState(bytes32)":"c13911e8","codesStates(bytes32[])":"82bdeaad","commitBatch((bytes32,uint48,bytes32,uint8,((address,bytes32,bool,address,uint128,bool,(bytes32,address,uint128)[],(bytes32,address,bytes,uint128,(bytes32,bytes4),bool)[])[],bytes32)[],(bytes32,bool)[],((uint256,bytes32),((address,uint256)[],uint256,address),uint48)[],((uint256,uint256),bytes,address[],uint256)[]),uint8,bytes[])":"b24fcac0","computeSettings()":"84d22a4f","createProgram(bytes32,bytes32,address)":"3683c4d2","createProgramWithAbiInterface(bytes32,bytes32,address,address)":"0c18d277","createProgramWithAbiInterfaceAndExecutableBalance(bytes32,bytes32,address,address,uint128,uint256,uint8,bytes32,bytes32)":"ee32004f","createProgramWithExecutableBalance(bytes32,bytes32,address,uint128,uint256,uint8,bytes32,bytes32)":"0d91bf2a","eip712Domain()":"84b0196e","genesisBlockHash()":"28e24b3d","genesisTimestamp()":"cacf66ab","initialize(address,address,address,address,uint256,uint256,uint256,(uint256,uint256),bytes,address[])":"53f7fd48","isValidator(address)":"facd743b","latestCommittedBatchHash()":"71a8cf2d","latestCommittedBatchTimestamp()":"d456fd51","lookupGenesisHash()":"8b1edf1e","middleware()":"f4f20ac0","mirrorImpl()":"e6fabc09","nonces(address)":"7ecebe00","owner()":"8da5cb5b","pause()":"8456cb59","paused()":"5c975abb","programCodeId(address)":"9067088e","programsCodeIds(address[])":"baaf0201","programsCount()":"96a2ddfa","proxiableUUID()":"52d1902d","reinitialize()":"6c2eb350","renounceOwnership()":"715018a6","requestCodeValidation(bytes32,uint256,uint8,bytes32,bytes32)":"8c4ace6a","requestCodeValidationBaseFee()":"188509e9","requestCodeValidationExtraFee()":"f1ef31ec","requestCodeValidationOnBehalf(address,bytes32,bytes32[],uint256,uint8,bytes32,bytes32,uint8,bytes32,bytes32)":"f0fd702a","setMirror(address)":"3d43b418","setRequestCodeValidationBaseFee(uint256)":"11bec80d","setRequestCodeValidationExtraFee(uint256)":"0b9737ce","signingThresholdFraction()":"e3a6684f","storageView()":"c2eb812f","timelines()":"9eb939a8","transferOwnership(address)":"f2fde38b","unpause()":"3f4ba83a","upgradeToAndCall(address,bytes)":"4f1ef286","validatedCodesCount()":"007a32e7","validators()":"ca1e7819","validatorsAggregatedPublicKey()":"3bd109fa","validatorsCount()":"ed612f8c","validatorsThreshold()":"edc87225","validatorsVerifiableSecretSharingCommitment()":"a5d53a44","wrappedVara()":"88f50cf0"},"storageLayout":{"storage":[],"types":{}},"id":165}