{"abi":[{"type":"constructor","inputs":[],"stateMutability":"nonpayable"},{"type":"receive","stateMutability":"payable"},{"type":"function","name":"COMMIT_BATCH_AFTER_COMMIT_CODES","inputs":[],"outputs":[{"name":"","type":"uint256","internalType":"uint256"}],"stateMutability":"view"},{"type":"function","name":"COMMIT_BATCH_BEFORE_COMMIT_CODES","inputs":[],"outputs":[{"name":"","type":"uint256","internalType":"uint256"}],"stateMutability":"view"},{"type":"function","name":"UPGRADE_INTERFACE_VERSION","inputs":[],"outputs":[{"name":"","type":"string","internalType":"string"}],"stateMutability":"view"},{"type":"function","name":"areValidators","inputs":[{"name":"_validators","type":"address[]","internalType":"address[]"}],"outputs":[{"name":"","type":"bool","internalType":"bool"}],"stateMutability":"view"},{"type":"function","name":"codeState","inputs":[{"name":"_codeId","type":"bytes32","internalType":"bytes32"}],"outputs":[{"name":"","type":"uint8","internalType":"enum Gear.CodeState"}],"stateMutability":"view"},{"type":"function","name":"codesStates","inputs":[{"name":"_codesIds","type":"bytes32[]","internalType":"bytes32[]"}],"outputs":[{"name":"","type":"uint8[]","internalType":"enum Gear.CodeState[]"}],"stateMutability":"view"},{"type":"function","name":"commitBatch","inputs":[{"name":"_batch","type":"tuple","internalType":"struct Gear.BatchCommitment","components":[{"name":"blockHash","type":"bytes32","internalType":"bytes32"},{"name":"blockTimestamp","type":"uint48","internalType":"uint48"},{"name":"previousCommittedBatchHash","type":"bytes32","internalType":"bytes32"},{"name":"expiry","type":"uint8","internalType":"uint8"},{"name":"chainCommitment","type":"tuple[]","internalType":"struct Gear.ChainCommitment[]","components":[{"name":"transitions","type":"tuple[]","internalType":"struct Gear.StateTransition[]","components":[{"name":"actorId","type":"address","internalType":"address"},{"name":"newStateHash","type":"bytes32","internalType":"bytes32"},{"name":"exited","type":"bool","internalType":"bool"},{"name":"inheritor","type":"address","internalType":"address"},{"name":"valueToReceive","type":"uint128","internalType":"uint128"},{"name":"valueToReceiveNegativeSign","type":"bool","internalType":"bool"},{"name":"valueClaims","type":"tuple[]","internalType":"struct Gear.ValueClaim[]","components":[{"name":"messageId","type":"bytes32","internalType":"bytes32"},{"name":"destination","type":"address","internalType":"address"},{"name":"value","type":"uint128","internalType":"uint128"}]},{"name":"messages","type":"tuple[]","internalType":"struct Gear.Message[]","components":[{"name":"id","type":"bytes32","internalType":"bytes32"},{"name":"destination","type":"address","internalType":"address"},{"name":"payload","type":"bytes","internalType":"bytes"},{"name":"value","type":"uint128","internalType":"uint128"},{"name":"replyDetails","type":"tuple","internalType":"struct Gear.ReplyDetails","components":[{"name":"to","type":"bytes32","internalType":"bytes32"},{"name":"code","type":"bytes4","internalType":"bytes4"}]},{"name":"call","type":"bool","internalType":"bool"}]}]},{"name":"head","type":"bytes32","internalType":"bytes32"}]},{"name":"codeCommitments","type":"tuple[]","internalType":"struct Gear.CodeCommitment[]","components":[{"name":"id","type":"bytes32","internalType":"bytes32"},{"name":"valid","type":"bool","internalType":"bool"}]},{"name":"rewardsCommitment","type":"tuple[]","internalType":"struct Gear.RewardsCommitment[]","components":[{"name":"operators","type":"tuple","internalType":"struct Gear.OperatorRewardsCommitment","components":[{"name":"amount","type":"uint256","internalType":"uint256"},{"name":"root","type":"bytes32","internalType":"bytes32"}]},{"name":"stakers","type":"tuple","internalType":"struct Gear.StakerRewardsCommitment","components":[{"name":"distribution","type":"tuple[]","internalType":"struct Gear.StakerRewards[]","components":[{"name":"vault","type":"address","internalType":"address"},{"name":"amount","type":"uint256","internalType":"uint256"}]},{"name":"totalAmount","type":"uint256","internalType":"uint256"},{"name":"token","type":"address","internalType":"address"}]},{"name":"timestamp","type":"uint48","internalType":"uint48"}]},{"name":"validatorsCommitment","type":"tuple[]","internalType":"struct Gear.ValidatorsCommitment[]","components":[{"name":"aggregatedPublicKey","type":"tuple","internalType":"struct Gear.AggregatedPublicKey","components":[{"name":"x","type":"uint256","internalType":"uint256"},{"name":"y","type":"uint256","internalType":"uint256"}]},{"name":"verifiableSecretSharingCommitment","type":"bytes","internalType":"bytes"},{"name":"validators","type":"address[]","internalType":"address[]"},{"name":"eraIndex","type":"uint256","internalType":"uint256"}]}]},{"name":"_signatureType","type":"uint8","internalType":"enum Gear.SignatureType"},{"name":"_signatures","type":"bytes[]","internalType":"bytes[]"}],"outputs":[],"stateMutability":"nonpayable"},{"type":"function","name":"computeSettings","inputs":[],"outputs":[{"name":"","type":"tuple","internalType":"struct Gear.ComputationSettings","components":[{"name":"threshold","type":"uint64","internalType":"uint64"},{"name":"wvaraPerSecond","type":"uint128","internalType":"uint128"}]}],"stateMutability":"view"},{"type":"function","name":"createProgram","inputs":[{"name":"_codeId","type":"bytes32","internalType":"bytes32"},{"name":"_salt","type":"bytes32","internalType":"bytes32"},{"name":"_overrideInitializer","type":"address","internalType":"address"}],"outputs":[{"name":"","type":"address","internalType":"address"}],"stateMutability":"nonpayable"},{"type":"function","name":"createProgramWithAbiInterface","inputs":[{"name":"_codeId","type":"bytes32","internalType":"bytes32"},{"name":"_salt","type":"bytes32","internalType":"bytes32"},{"name":"_overrideInitializer","type":"address","internalType":"address"},{"name":"_abiInterface","type":"address","internalType":"address"}],"outputs":[{"name":"","type":"address","internalType":"address"}],"stateMutability":"nonpayable"},{"type":"function","name":"genesisBlockHash","inputs":[],"outputs":[{"name":"","type":"bytes32","internalType":"bytes32"}],"stateMutability":"view"},{"type":"function","name":"genesisTimestamp","inputs":[],"outputs":[{"name":"","type":"uint48","internalType":"uint48"}],"stateMutability":"view"},{"type":"function","name":"initialize","inputs":[{"name":"_owner","type":"address","internalType":"address"},{"name":"_mirror","type":"address","internalType":"address"},{"name":"_wrappedVara","type":"address","internalType":"address"},{"name":"_middleware","type":"address","internalType":"address"},{"name":"_eraDuration","type":"uint256","internalType":"uint256"},{"name":"_electionDuration","type":"uint256","internalType":"uint256"},{"name":"_validationDelay","type":"uint256","internalType":"uint256"},{"name":"_aggregatedPublicKey","type":"tuple","internalType":"struct Gear.AggregatedPublicKey","components":[{"name":"x","type":"uint256","internalType":"uint256"},{"name":"y","type":"uint256","internalType":"uint256"}]},{"name":"_verifiableSecretSharingCommitment","type":"bytes","internalType":"bytes"},{"name":"_validators","type":"address[]","internalType":"address[]"}],"outputs":[],"stateMutability":"nonpayable"},{"type":"function","name":"isValidator","inputs":[{"name":"_validator","type":"address","internalType":"address"}],"outputs":[{"name":"","type":"bool","internalType":"bool"}],"stateMutability":"view"},{"type":"function","name":"latestCommittedBatchHash","inputs":[],"outputs":[{"name":"","type":"bytes32","internalType":"bytes32"}],"stateMutability":"view"},{"type":"function","name":"latestCommittedBatchTimestamp","inputs":[],"outputs":[{"name":"","type":"uint48","internalType":"uint48"}],"stateMutability":"view"},{"type":"function","name":"lookupGenesisHash","inputs":[],"outputs":[],"stateMutability":"nonpayable"},{"type":"function","name":"middleware","inputs":[],"outputs":[{"name":"","type":"address","internalType":"address"}],"stateMutability":"view"},{"type":"function","name":"mirrorImpl","inputs":[],"outputs":[{"name":"","type":"address","internalType":"address"}],"stateMutability":"view"},{"type":"function","name":"owner","inputs":[],"outputs":[{"name":"","type":"address","internalType":"address"}],"stateMutability":"view"},{"type":"function","name":"pause","inputs":[],"outputs":[],"stateMutability":"nonpayable"},{"type":"function","name":"paused","inputs":[],"outputs":[{"name":"","type":"bool","internalType":"bool"}],"stateMutability":"view"},{"type":"function","name":"programCodeId","inputs":[{"name":"_programId","type":"address","internalType":"address"}],"outputs":[{"name":"","type":"bytes32","internalType":"bytes32"}],"stateMutability":"view"},{"type":"function","name":"programsCodeIds","inputs":[{"name":"_programsIds","type":"address[]","internalType":"address[]"}],"outputs":[{"name":"","type":"bytes32[]","internalType":"bytes32[]"}],"stateMutability":"view"},{"type":"function","name":"programsCount","inputs":[],"outputs":[{"name":"","type":"uint256","internalType":"uint256"}],"stateMutability":"view"},{"type":"function","name":"proxiableUUID","inputs":[],"outputs":[{"name":"","type":"bytes32","internalType":"bytes32"}],"stateMutability":"view"},{"type":"function","name":"reinitialize","inputs":[],"outputs":[],"stateMutability":"nonpayable"},{"type":"function","name":"renounceOwnership","inputs":[],"outputs":[],"stateMutability":"nonpayable"},{"type":"function","name":"requestCodeValidation","inputs":[{"name":"_codeId","type":"bytes32","internalType":"bytes32"}],"outputs":[],"stateMutability":"nonpayable"},{"type":"function","name":"setMirror","inputs":[{"name":"newMirror","type":"address","internalType":"address"}],"outputs":[],"stateMutability":"nonpayable"},{"type":"function","name":"signingThresholdFraction","inputs":[],"outputs":[{"name":"","type":"uint128","internalType":"uint128"},{"name":"","type":"uint128","internalType":"uint128"}],"stateMutability":"view"},{"type":"function","name":"storageView","inputs":[],"outputs":[{"name":"","type":"tuple","internalType":"struct IRouter.StorageView","components":[{"name":"genesisBlock","type":"tuple","internalType":"struct Gear.GenesisBlockInfo","components":[{"name":"hash","type":"bytes32","internalType":"bytes32"},{"name":"number","type":"uint32","internalType":"uint32"},{"name":"timestamp","type":"uint48","internalType":"uint48"}]},{"name":"latestCommittedBatch","type":"tuple","internalType":"struct Gear.CommittedBatchInfo","components":[{"name":"hash","type":"bytes32","internalType":"bytes32"},{"name":"timestamp","type":"uint48","internalType":"uint48"}]},{"name":"implAddresses","type":"tuple","internalType":"struct Gear.AddressBook","components":[{"name":"mirror","type":"address","internalType":"address"},{"name":"wrappedVara","type":"address","internalType":"address"},{"name":"middleware","type":"address","internalType":"address"}]},{"name":"validationSettings","type":"tuple","internalType":"struct Gear.ValidationSettingsView","components":[{"name":"thresholdNumerator","type":"uint128","internalType":"uint128"},{"name":"thresholdDenominator","type":"uint128","internalType":"uint128"},{"name":"validators0","type":"tuple","internalType":"struct Gear.ValidatorsView","components":[{"name":"aggregatedPublicKey","type":"tuple","internalType":"struct Gear.AggregatedPublicKey","components":[{"name":"x","type":"uint256","internalType":"uint256"},{"name":"y","type":"uint256","internalType":"uint256"}]},{"name":"verifiableSecretSharingCommitmentPointer","type":"address","internalType":"address"},{"name":"list","type":"address[]","internalType":"address[]"},{"name":"useFromTimestamp","type":"uint256","internalType":"uint256"}]},{"name":"validators1","type":"tuple","internalType":"struct Gear.ValidatorsView","components":[{"name":"aggregatedPublicKey","type":"tuple","internalType":"struct Gear.AggregatedPublicKey","components":[{"name":"x","type":"uint256","internalType":"uint256"},{"name":"y","type":"uint256","internalType":"uint256"}]},{"name":"verifiableSecretSharingCommitmentPointer","type":"address","internalType":"address"},{"name":"list","type":"address[]","internalType":"address[]"},{"name":"useFromTimestamp","type":"uint256","internalType":"uint256"}]}]},{"name":"computeSettings","type":"tuple","internalType":"struct Gear.ComputationSettings","components":[{"name":"threshold","type":"uint64","internalType":"uint64"},{"name":"wvaraPerSecond","type":"uint128","internalType":"uint128"}]},{"name":"timelines","type":"tuple","internalType":"struct Gear.Timelines","components":[{"name":"era","type":"uint256","internalType":"uint256"},{"name":"election","type":"uint256","internalType":"uint256"},{"name":"validationDelay","type":"uint256","internalType":"uint256"}]},{"name":"programsCount","type":"uint256","internalType":"uint256"},{"name":"validatedCodesCount","type":"uint256","internalType":"uint256"}]}],"stateMutability":"view"},{"type":"function","name":"timelines","inputs":[],"outputs":[{"name":"","type":"tuple","internalType":"struct Gear.Timelines","components":[{"name":"era","type":"uint256","internalType":"uint256"},{"name":"election","type":"uint256","internalType":"uint256"},{"name":"validationDelay","type":"uint256","internalType":"uint256"}]}],"stateMutability":"view"},{"type":"function","name":"transferOwnership","inputs":[{"name":"newOwner","type":"address","internalType":"address"}],"outputs":[],"stateMutability":"nonpayable"},{"type":"function","name":"unpause","inputs":[],"outputs":[],"stateMutability":"nonpayable"},{"type":"function","name":"upgradeToAndCall","inputs":[{"name":"newImplementation","type":"address","internalType":"address"},{"name":"data","type":"bytes","internalType":"bytes"}],"outputs":[],"stateMutability":"payable"},{"type":"function","name":"validatedCodesCount","inputs":[],"outputs":[{"name":"","type":"uint256","internalType":"uint256"}],"stateMutability":"view"},{"type":"function","name":"validators","inputs":[],"outputs":[{"name":"","type":"address[]","internalType":"address[]"}],"stateMutability":"view"},{"type":"function","name":"validatorsAggregatedPublicKey","inputs":[],"outputs":[{"name":"","type":"tuple","internalType":"struct Gear.AggregatedPublicKey","components":[{"name":"x","type":"uint256","internalType":"uint256"},{"name":"y","type":"uint256","internalType":"uint256"}]}],"stateMutability":"view"},{"type":"function","name":"validatorsCount","inputs":[],"outputs":[{"name":"","type":"uint256","internalType":"uint256"}],"stateMutability":"view"},{"type":"function","name":"validatorsThreshold","inputs":[],"outputs":[{"name":"","type":"uint256","internalType":"uint256"}],"stateMutability":"view"},{"type":"function","name":"validatorsVerifiableSecretSharingCommitment","inputs":[],"outputs":[{"name":"","type":"bytes","internalType":"bytes"}],"stateMutability":"view"},{"type":"function","name":"wrappedVara","inputs":[],"outputs":[{"name":"","type":"address","internalType":"address"}],"stateMutability":"view"},{"type":"event","name":"AnnouncesCommitted","inputs":[{"name":"head","type":"bytes32","indexed":false,"internalType":"bytes32"}],"anonymous":false},{"type":"event","name":"BatchCommitted","inputs":[{"name":"hash","type":"bytes32","indexed":false,"internalType":"bytes32"}],"anonymous":false},{"type":"event","name":"CodeGotValidated","inputs":[{"name":"codeId","type":"bytes32","indexed":false,"internalType":"bytes32"},{"name":"valid","type":"bool","indexed":true,"internalType":"bool"}],"anonymous":false},{"type":"event","name":"CodeValidationRequested","inputs":[{"name":"codeId","type":"bytes32","indexed":false,"internalType":"bytes32"}],"anonymous":false},{"type":"event","name":"ComputationSettingsChanged","inputs":[{"name":"threshold","type":"uint64","indexed":false,"internalType":"uint64"},{"name":"wvaraPerSecond","type":"uint128","indexed":false,"internalType":"uint128"}],"anonymous":false},{"type":"event","name":"DebugEvent","inputs":[{"name":"topic0","type":"uint256","indexed":true,"internalType":"uint256"}],"anonymous":true},{"type":"event","name":"Initialized","inputs":[{"name":"version","type":"uint64","indexed":false,"internalType":"uint64"}],"anonymous":false},{"type":"event","name":"OwnershipTransferred","inputs":[{"name":"previousOwner","type":"address","indexed":true,"internalType":"address"},{"name":"newOwner","type":"address","indexed":true,"internalType":"address"}],"anonymous":false},{"type":"event","name":"Paused","inputs":[{"name":"account","type":"address","indexed":false,"internalType":"address"}],"anonymous":false},{"type":"event","name":"ProgramCreated","inputs":[{"name":"actorId","type":"address","indexed":false,"internalType":"address"},{"name":"codeId","type":"bytes32","indexed":true,"internalType":"bytes32"}],"anonymous":false},{"type":"event","name":"StorageSlotChanged","inputs":[{"name":"slot","type":"bytes32","indexed":false,"internalType":"bytes32"}],"anonymous":false},{"type":"event","name":"Unpaused","inputs":[{"name":"account","type":"address","indexed":false,"internalType":"address"}],"anonymous":false},{"type":"event","name":"Upgraded","inputs":[{"name":"implementation","type":"address","indexed":true,"internalType":"address"}],"anonymous":false},{"type":"event","name":"ValidatorsCommittedForEra","inputs":[{"name":"eraIndex","type":"uint256","indexed":false,"internalType":"uint256"}],"anonymous":false},{"type":"error","name":"AddressEmptyCode","inputs":[{"name":"target","type":"address","internalType":"address"}]},{"type":"error","name":"ApproveERC20Failed","inputs":[]},{"type":"error","name":"BatchTimestampNotInPast","inputs":[]},{"type":"error","name":"BatchTimestampTooEarly","inputs":[]},{"type":"error","name":"BlobNotFound","inputs":[]},{"type":"error","name":"CodeAlreadyOnValidationOrValidated","inputs":[]},{"type":"error","name":"CodeNotValidated","inputs":[]},{"type":"error","name":"CodeValidationNotRequested","inputs":[]},{"type":"error","name":"CommitmentEraNotNext","inputs":[]},{"type":"error","name":"DeploymentFailed","inputs":[]},{"type":"error","name":"ECDSAInvalidSignature","inputs":[]},{"type":"error","name":"ECDSAInvalidSignatureLength","inputs":[{"name":"length","type":"uint256","internalType":"uint256"}]},{"type":"error","name":"ECDSAInvalidSignatureS","inputs":[{"name":"s","type":"bytes32","internalType":"bytes32"}]},{"type":"error","name":"ERC1967InvalidImplementation","inputs":[{"name":"implementation","type":"address","internalType":"address"}]},{"type":"error","name":"ERC1967NonPayable","inputs":[]},{"type":"error","name":"ElectionNotStarted","inputs":[]},{"type":"error","name":"EmptyValidatorsList","inputs":[]},{"type":"error","name":"EnforcedPause","inputs":[]},{"type":"error","name":"EraDurationTooShort","inputs":[]},{"type":"error","name":"ErasTimestampMustNotBeEqual","inputs":[]},{"type":"error","name":"ExpectedPause","inputs":[]},{"type":"error","name":"FailedCall","inputs":[]},{"type":"error","name":"GenesisHashAlreadySet","inputs":[]},{"type":"error","name":"GenesisHashNotFound","inputs":[]},{"type":"error","name":"InvalidElectionDuration","inputs":[]},{"type":"error","name":"InvalidFROSTAggregatedPublicKey","inputs":[]},{"type":"error","name":"InvalidFrostSignatureCount","inputs":[]},{"type":"error","name":"InvalidFrostSignatureLength","inputs":[]},{"type":"error","name":"InvalidInitialization","inputs":[]},{"type":"error","name":"InvalidPreviousCommittedBatchHash","inputs":[]},{"type":"error","name":"InvalidTimestamp","inputs":[]},{"type":"error","name":"NotInitializing","inputs":[]},{"type":"error","name":"OwnableInvalidOwner","inputs":[{"name":"owner","type":"address","internalType":"address"}]},{"type":"error","name":"OwnableUnauthorizedAccount","inputs":[{"name":"account","type":"address","internalType":"address"}]},{"type":"error","name":"PredecessorBlockNotFound","inputs":[]},{"type":"error","name":"ReentrancyGuardReentrantCall","inputs":[]},{"type":"error","name":"RewardsCommitmentEraNotPrevious","inputs":[]},{"type":"error","name":"RewardsCommitmentPredatesGenesis","inputs":[]},{"type":"error","name":"RewardsCommitmentTimestampNotInPast","inputs":[]},{"type":"error","name":"RouterGenesisHashNotInitialized","inputs":[]},{"type":"error","name":"SignatureVerificationFailed","inputs":[]},{"type":"error","name":"TimestampInFuture","inputs":[]},{"type":"error","name":"TimestampOlderThanPreviousEra","inputs":[]},{"type":"error","name":"TooManyChainCommitments","inputs":[]},{"type":"error","name":"TooManyRewardsCommitments","inputs":[]},{"type":"error","name":"TooManyValidatorsCommitments","inputs":[]},{"type":"error","name":"UUPSUnauthorizedCallContext","inputs":[]},{"type":"error","name":"UUPSUnsupportedProxiableUUID","inputs":[{"name":"slot","type":"bytes32","internalType":"bytes32"}]},{"type":"error","name":"UnknownProgram","inputs":[]},{"type":"error","name":"ValidationBeforeGenesis","inputs":[]},{"type":"error","name":"ValidationDelayTooBig","inputs":[]},{"type":"error","name":"ValidatorsAlreadyScheduled","inputs":[]},{"type":"error","name":"ValidatorsNotFoundForTimestamp","inputs":[]},{"type":"error","name":"ZeroValueTransfer","inputs":[]}],"bytecode":{"object":"0x60a080604052346100c257306080525f51602061453c5f395f51905f525460ff8160401c166100b3576002600160401b03196001600160401b03821601610060575b60405161447590816100c78239608051818181611b630152611bf60152f35b6001600160401b0319166001600160401b039081175f51602061453c5f395f51905f525581527fc7f505b2f371ae2175ee4913f4499e1f2633a7b5936321eed1cdaeb6115181d290602090a15f80610041565b63f92ee8a960e01b5f5260045ffd5b5f80fdfe6080806040526004361015610091575b50361561001a575f80fd5b610022612d29565b5f5160206144155f395f51905f5254600181015415610082576001600160801b0334161561007357335f908152601a9190910160205260409020541561006457005b63821a62f560e01b5f5260045ffd5b63a1a7c6eb60e01b5f5260045ffd5b63580683f360e01b5f5260045ffd5b5f905f3560e01c9081627a32e714612730575080630c18d27714612242578063120e3f1e1461216357806328e24b3d146121355780633683c4d214611f0a5780633bd109fa14611ebb5780633d43b41814611e675780633f4ba83a14611de75780634429e24b14611dcb5780634f1ef28614611bb757806352d1902d14611b5057806353f7fd48146116d15780635c975abb146116a25780636c2eb3501461133d578063715018a6146112d457806371a8cf2d146112a657806382bdeaad1461118e5780638456cb591461111b57806384d22a4f146110bd57806388f50cf0146110845780638b1edf1e1461101d5780638da5cb5b14610fe85780638f381dbe14610fa25780639067088e14610f5957806396a2ddfa14610f2b5780639eb939a814610ed4578063a5d53a4414610e7e578063ad2b3d9a14610e62578063ad3cb1cc14610e19578063b24fcac014610965578063baaf020114610864578063c13911e814610820578063c2eb812f146104f4578063ca1e7819146104a4578063cacf66ab1461046c578063d456fd5114610436578063e3a6684f146103f7578063e6fabc09146103be578063ed612f8c14610386578063edc8722514610331578063f2fde38b14610304578063f4f20ac0146102cb5763facd743b0361000f57346102c85760203660031901126102c85761028a612786565b60036102a55f5160206144155f395f51905f52544290613ef2565b019060018060a01b03165f52602052602060ff60405f2054166040519015158152f35b80fd5b50346102c857806003193601126102c8575f5160206144155f395f51905f5254600701546040516001600160a01b039091168152602090f35b50346102c85760203660031901126102c85761032e610321612786565b610329612d5e565b612cb8565b80f35b50346102c857806003193601126102c857602061037e5f5160206144155f395f51905f5254600860046103644284613ef2565b0154910154906001600160801b038260801c921690613ec7565b604051908152f35b50346102c857806003193601126102c857602060046103b45f5160206144155f395f51905f52544290613ef2565b0154604051908152f35b50346102c857806003193601126102c8575f5160206144155f395f51905f5254600501546040516001600160a01b039091168152602090f35b50346102c857806003193601126102c857604060085f5160206144155f395f51905f525401548151906001600160801b038116825260801c6020820152f35b50346102c857806003193601126102c857602065ffffffffffff60045f5160206144155f395f51905f5254015416604051908152f35b50346102c857806003193601126102c857602065ffffffffffff60025f5160206144155f395f51905f52540154821c16604051908152f35b50346102c857806003193601126102c8576104f06104dc60046104d65f5160206144155f395f51905f52544290613ef2565b01612aad565b604051918291602083526020830190612922565b0390f35b50346102c857806003193601126102c857604051610511816127fa565b610519612be6565b8152604051610527816127df565b5f8152602081015f9052602082015261053e612be6565b604082015261054b612c85565b606082015260405161055c816127df565b5f80825260208201526080820152610572612be6565b60a08201528160c082015260e001525f5160206144155f395f51905f5254610598612c85565b506105a560098201614182565b906105b2600f8201614182565b600882015492604051936105c585612816565b6001600160801b038116855260801c602085015260408401526060830152601b81015490601c810154604051926105fb846127fa565b604051610607816127b0565b60018401548152600284015463ffffffff8116602083015260201c65ffffffffffff16604082015284526040519461063e866127df565b60038401548652600484015465ffffffffffff166020870152602085019586526040519061066b826127b0565b60058501546001600160a01b0390811683526006860154811660208401526007860154166040808401919091528601918252606086019081526106b060158601612b38565b94608087019586526016016106c490612c04565b9160a0870192835260c0870193845260e087019485526040519788976020895251805160208a0152602081015163ffffffff1660408a01526040015165ffffffffffff16606089015251805160808901526020015165ffffffffffff1660a088015251600160a01b6001900381511660c0880152600160a01b6001900360208201511660e0880152600160a01b60019003906040015116610100870152516101208601610200905280516001600160801b031661022087015260208101516001600160801b031661024087015260408101516102608701608090526102a087016107ad9161295e565b90606001519061021f19878203016102808801526107ca9161295e565b935180516001600160401b0316610140870152602001516001600160801b031661016086015251805161018086015260208101516101a0860152604001516101c0850152516101e0840152516102008301520390f35b50346102c85760203660031901126102c85760ff604060209260195f5160206144155f395f51905f5254016004358252845220541661086260405180926128f1565bf35b50346102c85760203660031901126102c8576004356001600160401b038111610961576108959036906004016128c1565b905f5160206144155f395f51905f5254906108af83612a42565b916108bd6040519384612831565b8383526108c984612a42565b602084019490601f1901368637601a869201915b81811061092857868587604051928392602084019060208552518091526040840192915b81811061090f575050500390f35b8251845285945060209384019390920191600101610901565b8061093e6109396001938588612b00565b612b66565b828060a01b03165f528360205260405f205461095a8288612b24565b52016108dd565b5080fd5b50346102c85760603660031901126102c8576001600160401b03600435116102c857610100600435360360031901126102c857600260243510156102c8576044356001600160401b038111610961576109c29036906004016128c1565b7f9b779b17422d0df92223018b32b4d1fa46e071723d6817e2486d003becc55f005c610e0a5760017f9b779b17422d0df92223018b32b4d1fa46e071723d6817e2486d003becc55f005d5f5160206144155f395f51905f525490600182015415610dfb57815415610d9f575b60038201546044600435013503610d905765ffffffffffff60048301541665ffffffffffff610a61602460043501612c3a565b1610610d8257610a76600435600401836130c6565b9260018580a1610a9060a46004350160043560040161357b565b808096925060051b0460201485151715610d6e57610ab08560051b613f6e565b8695865b818810610c255750610beb965060051b90209060028780a1610adb600435600401866135df565b610aea600435600401876139d2565b90610af9602460043501612c3a565b93610b08606460043501612c2c565b9360405194602086019660043560040135885265ffffffffffff60d01b9060d01b16604087015260446004350135604687015260ff60f81b9060f81b1660668601526067850152608784015260a783015260c782015260c78152610b6d60e782612831565b5190209283600382015565ffffffffffff610b8c602460043501612c3a565b1665ffffffffffff196004830154161760048201557f7ebe42360bcb182fe0a88148b081e4557c89d09aa6af8307635ac2f83e2aaa656020604051868152a165ffffffffffff610be0602460043501612c3a565b169360243591613c55565b15610c1657807f9b779b17422d0df92223018b32b4d1fa46e071723d6817e2486d003becc55f005d80f35b63729d0f6b60e01b8152600490fd5b610c3960a46004350160043560040161357b565b891015610d5a578860061b8101358a526019880160205260ff60408b2054166003811015610d4657600103610d3757600191602091610cfc8b8b8e868360061b86010192610c86846135b0565b15610d185760061b85013590525060198c01855260408e20805460ff19166002179055601c8c018054610cb890612d50565b90555b8c7f460119a8f69a33ed127de517d5ea464e958ce23ef19e4420a8b92bf780bbc2c986610ce7846135b0565b1515926040519060061b8701358152a26135b0565b908b60061b01358c52825360218b208186015201970196610ab4565b60409260199160061b87013583520187522060ff198154169055610cbb565b636e83084760e11b8a5260048afd5b634e487b7160e01b8b52602160045260248bfd5b634e487b7160e01b8a52603260045260248afd5b634e487b7160e01b86526011600452602486fd5b620725b160ea1b8452600484fd5b63164b6fc360e01b8452600484fd5b610dbc610db0606460043501612c2c565b60043560040135613031565b15610dec5765ffffffffffff610dd6602460043501612c3a565b164211610a2e57631ad8809560e31b8452600484fd5b637b8cb35960e01b8452600484fd5b63580683f360e01b8452600484fd5b633ee5aeb560e01b8352600483fd5b50346102c857806003193601126102c857506104f0604051610e3c604082612831565b60058152640352e302e360dc1b60208201526040519182916020835260208301906128fe565b50346102c857806003193601126102c857602060405160018152f35b50346102c857806003193601126102c8576104f0610ec05f5160206144155f395f51905f52546002610eb860018060a01b03924290613ef2565b015416613002565b6040519182916020835260208301906128fe565b50346102c857806003193601126102c857610eed612be6565b506060610f0a60165f5160206144155f395f51905f525401612c04565b61086260405180926040809180518452602081015160208501520151910152565b50346102c857806003193601126102c8576020601b5f5160206144155f395f51905f52540154604051908152f35b50346102c85760203660031901126102c857610f73612786565b601a5f5160206144155f395f51905f5254019060018060a01b03165f52602052602060405f2054604051908152f35b50346102c85760203660031901126102c857600435906001600160401b0382116102c8576020610fde610fd836600486016128c1565b90612b7a565b6040519015158152f35b50346102c857806003193601126102c8575f5160206143d55f395f51905f52546040516001600160a01b039091168152602090f35b50346102c857806003193601126102c857611036612d29565b5f5160206144155f395f51905f525460018101908154611075576002015463ffffffff1640908115611066575580f35b63f7bac7b560e01b8352600483fd5b6309476b0360e41b8352600483fd5b50346102c857806003193601126102c8575f5160206144155f395f51905f5254600601546040516001600160a01b039091168152602090f35b50346102c857806003193601126102c8576110d66129a5565b5060406110f360155f5160206144155f395f51905f525401612b38565b610862825180926001600160801b03602080926001600160401b038151168552015116910152565b50346102c857806003193601126102c857611134612d5e565b61113c612d29565b600160ff195f5160206144355f395f51905f525416175f5160206144355f395f51905f52557f62e78cea01bee320cd4e420270b5ea74000d11b0c9f74754ebdbfc544b05a2586020604051338152a180f35b50346102c85760203660031901126102c8576004356001600160401b038111610961576111bf9036906004016128c1565b905f5160206144155f395f51905f5254906111d983612a42565b916111e76040519384612831565b8383526111f384612a42565b602084019490601f19013686376019869201915b81811061125c57868587604051928392602084019060208552518091526040840192915b818110611239575050500390f35b919350916020808261124e60019488516128f1565b01940191019184939261122b565b611267818386612b00565b3587528260205260ff6040882054166112808287612b24565b60038210156112925752600101611207565b634e487b7160e01b89526021600452602489fd5b50346102c857806003193601126102c857602060035f5160206144155f395f51905f52540154604051908152f35b50346102c857806003193601126102c8576112ed612d5e565b5f5160206143d55f395f51905f5280546001600160a01b0319811690915581906001600160a01b03167f8be0079c531659141344cd1fd0a4f28419497f9722a3daafe3b4186f6b6457e08280a380f35b50346102c857806003193601126102c857611356612d5e565b5f5160206144555f395f51905f525460ff8160401c1690811561168d575b5061167e575f5160206144555f395f51905f52805468ffffffffffffffffff1916680100000000000000021790555f5160206143d55f395f51905f52546113ce906001600160a01b03166113c6613f0e565b610329613f0e565b7fc7f505b2f371ae2175ee4913f4499e1f2633a7b5936321eed1cdaeb6115181d260205f5160206144155f395f51905f5254604090815161140f8382612831565b601781528381017f726f757465722e73746f726167652e526f7574657256320000000000000000008152611441612d5e565b5f199151902001855260ff198386201690815f5160206144155f395f51905f52557f059eb9adf6e95b839d818142ed5bd5e498b6d95138e65c91525e93cc0f0339fc848451848152a1611492612d91565b80516001840155600283019063ffffffff868201511669ffffffffffff00000000868454930151881b169169ffffffffffffffffffff191617179055600581016005830190808203611630575b5050600881016001600160801b038154169060088401916001600160801b0319835416178255546001600160801b0382549181191691161790556115686115264283613ef2565b61153d6001600160a01b036002610eb84287613ef2565b611553600461154c4287613ef2565b01926129bd565b9061155e4293612aad565b9160098701612dd9565b6015810160158301908082036115de575b50506016810160168301918183036115be575b5050505060ff60401b195f5160206144555f395f51905f5254165f5160206144555f395f51905f52555160028152a180f35b60189283925490556017810154601785015501549101555f80808061158c565b806001600160401b03806001600160801b03935416166001600160401b031984541617835554851c16600160401b600160c01b03825491861b1690600160401b600160c01b0319161790555f80611579565b5481546001600160a01b03199081166001600160a01b039283161790925560068381015490850180548416918316919091179055600780840154908501805490931691161790555f806114df565b63f92ee8a960e01b8152600490fd5b600291506001600160401b031610155f611374565b50346102c857806003193601126102c857602060ff5f5160206144355f395f51905f5254166040519015158152f35b50346102c8576101603660031901126102c8576116ec612786565b6024356001600160a01b0381169190829003611b4c5761170a61275a565b91611713612770565b9260c43591608435919060a43560403660e3190112611b485761012435946001600160401b038611611b445736602387011215611b44578560040135916001600160401b038311611b40573660248489010111611b4057610144356001600160401b038111611b3c5761178a9036906004016128c1565b9690945f5160206144555f395f51905f5254996001600160401b0360ff8c60401c16159b1680159081611b34575b6001149081611b2a575b159081611b21575b50611b125761180c908b60016001600160401b03195f5160206144555f395f51905f525416175f5160206144555f395f51905f5255611ae2575b6113c6613f0e565b611814613f0e565b61181c613f0e565b4215611ad3578215611ac45782821115611ab557600a61183c84846129db565b04841015611aa65760409a8b918d83516118568582612831565b60178152602081017f726f757465722e73746f726167652e526f7574657256310000000000000000008152611889612d5e565b905190205f190190526020808f2060ff19165f5160206144155f395f51905f528190558451818152909a917f059eb9adf6e95b839d818142ed5bd5e498b6d95138e65c91525e93cc0f0339fc91a16118df612d91565b805160018c015560028b0190602081015163ffffffff1686835492015160201b69ffffffffffff00000000169169ffffffffffffffffffff191617179055835190611929826127b0565b8282526001600160a01b03908116602083018190529381169490910184905260058a018054919092166001600160a01b03199182161790915560068901805482169092179091556007880180549091169091179055700300000000000000000000000000000002600887015561199d6129a5565b5089516119a9816127df565b639502f90081526509184e72a0006020909101526015860180546001600160c01b0319166d09184e72a000000000009502f900179055895183908b906119ee816127b0565b8381528460208201520152601686015560178501556018840155865194611a14866127df565b60e4358652610104356020870152611a3091369160240161286d565b9042933690611a3e92612a59565b9160090193611a4c94612dd9565b611a54575080f35b60207fc7f505b2f371ae2175ee4913f4499e1f2633a7b5936321eed1cdaeb6115181d29160ff60401b195f5160206144555f395f51905f5254165f5160206144555f395f51905f52555160018152a180f35b63145e348f60e01b8c5260048cfd5b6353b2bbed60e01b8c5260048cfd5b63f7ba6bdb60e01b8c5260048cfd5b63b7d0949760e01b8c5260048cfd5b600160401b60ff60401b195f5160206144555f395f51905f525416175f5160206144555f395f51905f5255611804565b63f92ee8a960e01b8d5260048dfd5b9050155f6117ca565b303b1591506117c2565b8c91506117b8565b8a80fd5b8980fd5b8880fd5b8780fd5b8280fd5b50346102c857806003193601126102c8577f00000000000000000000000000000000000000000000000000000000000000006001600160a01b03163003611ba85760206040515f5160206143f55f395f51905f528152f35b63703e46dd60e11b8152600490fd5b5060403660031901126102c857611bcc612786565b906024356001600160401b03811161096157611bec9036906004016128a3565b6001600160a01b037f000000000000000000000000000000000000000000000000000000000000000016308114908115611da9575b50611d9a57611c2e612d5e565b6040516352d1902d60e01b8152926001600160a01b0381169190602085600481865afa80958596611d62575b50611c7357634c9c8ce360e01b84526004839052602484fd5b9091845f5160206143f55f395f51905f528103611d505750813b15611d3e575f5160206143f55f395f51905f5280546001600160a01b031916821790557fbc7cd75a20ee27fd9adebab32041f755214dbc6bffa90cc0225b39da2e5c2d3b8480a28151839015611d245780836020611d1895519101845af43d15611d1c573d91611cfc83612852565b92611d0a6040519485612831565b83523d85602085013e6142f4565b5080f35b6060916142f4565b50505034611d2f5780f35b63b398979f60e01b8152600490fd5b634c9c8ce360e01b8452600452602483fd5b632a87526960e21b8552600452602484fd5b9095506020813d602011611d92575b81611d7e60209383612831565b81010312611d8e5751945f611c5a565b5f80fd5b3d9150611d71565b63703e46dd60e11b8252600482fd5b5f5160206143f55f395f51905f52546001600160a01b0316141590505f611c21565b50346102c857806003193601126102c857602060405160028152f35b50346102c857806003193601126102c857611e00612d5e565b5f5160206144355f395f51905f525460ff811615611e585760ff19165f5160206144355f395f51905f52557f5db9ee0a495bf2e6ff9c91a7834c1ba4fdd244a5e8aa4e537bd38aeae4b073aa6020604051338152a180f35b638dfc202b60e01b8252600482fd5b50346102c85760203660031901126102c857611e81612786565b611e89612d5e565b5f5160206144155f395f51905f525460050180546001600160a01b0319166001600160a01b0390921691909117905580f35b50346102c857806003193601126102c857611ed46129a5565b506040611ef8611ef35f5160206144155f395f51905f52544290613ef2565b6129bd565b60208251918051835201516020820152f35b50346102c85760603660031901126102c857600435611f2761275a565b611f2f612d29565b5f5160206144155f395f51905f5254600181015415610dfb578284526019810160205260ff604085205416600381101561212157600203612112578284526024356020526040842060405160608101908082106001600160401b0383111761210e57605a916040527f3d605080600a3d3981f3608060405263e6fabc0960e01b5f5260205f6004817381523060601b6b5afa15604c575f80805136821760208201527f80378136915af43d5f803e156048573d5ff35b3d5ffd5b5f80fd000000000000604082015286f590811561210a576001600160a01b0382165f908152601a820160205260409020849055601b01805461202a90612d50565b90556040516001600160a01b03821680825293907f8008ec1d8798725ebfa0f2d128d52e8e717dcba6e0f786557eeee70614b02bf190602090a2506001600160a01b0381166121055750335b5f5160206144155f395f51905f5254600501546001600160a01b0316823b1561210157604051631c9776b560e31b81526001600160a01b039092166004830152602482015260016044820152828160648183865af180156120f6576120e1575b602082604051908152f35b6120ec838092612831565b61096157816120d6565b6040513d85823e3d90fd5b8380fd5b612076565b8480fd5b8680fd5b630e2637d160e01b8452600484fd5b634e487b7160e01b85526021600452602485fd5b50346102c857806003193601126102c857602060015f5160206144155f395f51905f52540154604051908152f35b50346102c85760203660031901126102c857600435612180612d29565b814915612233575f5160206144155f395f51905f5254600181015415612224576019018183528060205260ff6040842054166003811015612210576122015781835260209081526040808420805460ff19166001179055519182527f5c261a095dd5720475295dc06379921c003c22164ee6cae5cf83e76ce0a1b98591a180f35b6304c51a3360e31b8352600483fd5b634e487b7160e01b84526021600452602484fd5b63580683f360e01b8352600483fd5b637bb2fa2f60e11b8252600482fd5b34611d8e576080366003190112611d8e5760043561225e61275a565b90612267612770565b91612270612d29565b5f5160206144155f395f51905f525460018101541561008257825f526019810160205260ff60405f205416600381101561271c5760020361270d57825f5260243560205260405f206040516102c08101908082106001600160401b03831117611d8e576102b0916040527f60808060405261029e90816100128239f3fe608060405260043610610254575f81527f3560e01c806336a52a18146100ab57806342129d00146100a65780635ce6c32760208201527f146100a1578063701da98e1461009c578063704ed542146100975780637a8e0c60408201527fdd1461009257806391d5a64c1461008d5780639ce110d714610088578063affe60608201527fd0e0146100835763e43f3433036102545761023f565b610222565b6101fa565b60808201527f6101e4565b6101b1565b610181565b610165565b610143565b610106565b346160a08201527ed4575f3660031901126100d45760025460081c6001600160a01b031660809060c08201527f8152602090f35b5f80fd5b9181601f840112156100d45782359167ffffffffff60e08201527fffffff83116100d457602083818601950101116100d457565b604036600319016101008201527f126100d45760043567ffffffffffffffff81116100d4576101329036906004016101208201527f6100d8565b505060243580151514610254575f80fd5b346100d4575f366003196101408201527f01126100d457602060ff600254166040519015158152f35b346100d4575f36606101608201527f031901126100d45760205f54604051908152f35b346100d457602036600319016101808201527f126100d4576004356fffffffffffffffffffffffffffffffff811614610254576101a08201527f5f80fd5b60403660031901126100d45760243567ffffffffffffffff811161006101c08201527fd4576101dd9036906004016100d8565b5050610254565b346100d457602036606101e08201527f0319011215610254575f80fd5b346100d4575f3660031901126100d4576003546102008201527f6040516001600160a01b039091168152602090f35b346100d4575f36600319016102208201527f126100d4576020600154604051908152f35b346100d4575f36600319011215616102408201523060601c7f0254575f80fd5b63e6fabc0960e01b5f5260205f60048173000000000000000017610260820152735afa156100d4575f808051368280378136915af43060a01b176102808201526f3d5f803e1561029a573d5ff35b3d5ffd60801b6102a08201525ff5908115611d8e576001600160a01b0382165f908152601a820160205260409020849055601b01805461264c90612d50565b90556040516001600160a01b03821680825293907f8008ec1d8798725ebfa0f2d128d52e8e717dcba6e0f786557eeee70614b02bf190602090a2506001600160a01b038116612707575033915b813b15611d8e57604051631c9776b560e31b81526001600160a01b039384166004820152921660248301525f604483018190528260648183855af19182156126fc576020926126ec575b50604051908152f35b5f6126f691612831565b5f6126e3565b6040513d5f823e3d90fd5b91612699565b630e2637d160e01b5f5260045ffd5b634e487b7160e01b5f52602160045260245ffd5b34611d8e575f366003190112611d8e57602090601c5f5160206144155f395f51905f525401548152f35b604435906001600160a01b0382168203611d8e57565b606435906001600160a01b0382168203611d8e57565b600435906001600160a01b0382168203611d8e57565b35906001600160a01b0382168203611d8e57565b606081019081106001600160401b038211176127cb57604052565b634e487b7160e01b5f52604160045260245ffd5b604081019081106001600160401b038211176127cb57604052565b61010081019081106001600160401b038211176127cb57604052565b608081019081106001600160401b038211176127cb57604052565b90601f801991011681019081106001600160401b038211176127cb57604052565b6001600160401b0381116127cb57601f01601f191660200190565b92919261287982612852565b916128876040519384612831565b829481845281830111611d8e578281602093845f960137010152565b9080601f83011215611d8e578160206128be9335910161286d565b90565b9181601f84011215611d8e578235916001600160401b038311611d8e576020808501948460051b010111611d8e57565b90600382101561271c5752565b805180835260209291819084018484015e5f828201840152601f01601f1916010190565b90602080835192838152019201905f5b81811061293f5750505090565b82516001600160a01b0316845260209384019390920191600101612932565b9060208251805183520151602082015260018060a01b0360208301511660408201526080606061299c604085015160a08386015260a0850190612922565b93015191015290565b604051906129b2826127df565b5f6020838281520152565b906040516129ca816127df565b602060018294805484520154910152565b919082039182116129e857565b634e487b7160e01b5f52601160045260245ffd5b8115612a06570490565b634e487b7160e01b5f52601260045260245ffd5b9190826040910312611d8e57604051612a32816127df565b6020808294803584520135910152565b6001600160401b0381116127cb5760051b60200190565b929190612a6581612a42565b93612a736040519586612831565b602085838152019160051b8101928311611d8e57905b828210612a9557505050565b60208091612aa28461279c565b815201910190612a89565b90604051918281549182825260208201905f5260205f20925f5b818110612ade575050612adc92500383612831565b565b84546001600160a01b0316835260019485019487945060209093019201612ac7565b9190811015612b105760051b0190565b634e487b7160e01b5f52603260045260245ffd5b8051821015612b105760209160051b010190565b90604051612b45816127df565b91546001600160401b038116835260401c6001600160801b03166020830152565b356001600160a01b0381168103611d8e5790565b612b935f5160206144155f395f51905f52544290613ef2565b600301905f5b838110612ba95750505050600190565b612bb7610939828685612b00565b6001600160a01b03165f9081526020849052604090205460ff1615612bde57600101612b99565b505050505f90565b60405190612bf3826127b0565b5f6040838281528260208201520152565b90604051612c11816127b0565b60406002829480548452600181015460208501520154910152565b3560ff81168103611d8e5790565b3565ffffffffffff81168103611d8e5790565b60405190612c5a82612816565b5f606083604051612c6a816127df565b83815283602082015281528260208201528160408201520152565b60405190612c9282612816565b815f81525f6020820152612ca4612c4d565b60408201526060612cb3612c4d565b910152565b6001600160a01b03168015612d16575f5160206143d55f395f51905f5280546001600160a01b0319811683179091556001600160a01b03167f8be0079c531659141344cd1fd0a4f28419497f9722a3daafe3b4186f6b6457e05f80a3565b631e4fbdf760e01b5f525f60045260245ffd5b60ff5f5160206144355f395f51905f525416612d4157565b63d93c066560e01b5f5260045ffd5b5f1981146129e85760010190565b5f5160206143d55f395f51905f52546001600160a01b03163303612d7e57565b63118cdaa760e01b5f523360045260245ffd5b612d99612be6565b50604051612da6816127b0565b5f815263ffffffff4316602082015265ffffffffffff4216604082015290565b818102929181159184041417156129e857565b9291908051906020810191825170014551231950b75fc4402da1732fc9bebe1982109182612ff1575b505015612fe25751845551600184015560405190612e456021836020808201945f86528051918291018484015e81015f838201520301601f198101845283612831565b612e82602b604051809360208201956a600b5981380380925939f360a81b87525180918484015e81015f838201520301601f198101835282612831565b51905ff06001600160a01b03811615612fd3576002830180546001600160a01b0319166001600160a01b039092169190911790555f5b600483018054821015612ef6575f90815260208082208301546001600160a01b0316825260038501905260409020805460ff19169055600101612eb8565b5050925f5b8451811015612f3f576001906001600160a01b03612f198288612b24565b5116828060a01b03165f526003840160205260405f208260ff1982541617905501612efb565b5092600482018151916001600160401b0383116127cb57600160401b83116127cb578154838355808410612fa9575b50602001905f5260205f205f5b838110612f8c575050505060050155565b82516001600160a01b031681830155602090920191600101612f7b565b825f52838060205f20019103905f5b828110612fc6575050612f6e565b5f82820155600101612fb8565b633011642560e01b5f5260045ffd5b63375f0aab60e11b5f5260045ffd5b612ffb92506142d1565b5f80612e02565b803b905f198201908282116129e85760019060405193603e601f19910116840160405282845260208401903c90565b435f19810193929084116129e85760ff1643811061308157505f925b8381101561305d575b505f925050565b804082810361306f5750600193505050565b1561307c575f190161304d565b613056565b61308b90436129db565b9261304d565b903590601e1981360301821215611d8e57018035906001600160401b038211611d8e57602001918160051b36038313611d8e57565b906080810160016130d78284613091565b90501161356c576130e88183613091565b905015613545576130f891613091565b15612b1057803590603e1981360301821215611d8e57019161311a8380613091565b9190928260051b93838504602014841517156129e85761313c85969495613f6e565b925f945f97601a60fe19853603019501965b888a10156134fd578960051b85013586811215611d8e57850161317081612b66565b6001600160a01b03165f90815260208a9052604090205415610064575f608082016001600160801b036131a282613f39565b161515806134ea575b6134d9575b6001600160a01b036131c184612b66565b604051630427a21d60e11b81526020600482015294911691610124850191906001600160801b0390613240906001600160a01b036131fe8561279c565b1660248901526020840135604489015261321a60408501613f4d565b151560648901526001600160a01b036132356060860161279c565b166084890152613f5a565b1660a486015261325260a08201613f4d565b151560c486015236819003601e190160c082013581811215611d8e578201602081359101936001600160401b038211611d8e576060820236038513611d8e57819061010060e48a015252610144870193905f905b80821061348f5750505060e082013590811215611d8e5701803560208201926001600160401b038211611d8e578160051b908136038513611d8e5791879594936023198785030161010488015281845260208085019385010194935f9160fe19813603015b8484106133825750505050505050602093916001600160801b03848093039316905af19081156126fc575f91613350575b50816020916001938a01520199019861314e565b90506020813d821161337a575b8161336a60209383612831565b81010312611d8e5751600161333c565b3d915061335d565b919395979850919395601f19848203018752873582811215611d8e578301602081013582526001600160a01b036133bb6040830161279c565b1660208301526060810135603e193683900301811215611d8e578101602081013591906040016001600160401b038311611d8e578236038113611d8e57829060e060408601528160e08601526101008501375f61010083850101526001600160801b0361342a60808301613f5a565b16606084015260a0810135608084015260c081013563ffffffff60e01b8116809103611d8e578360209361346c60e086956101009560a060019a015201613f4d565b151560c0830152601f80199101160101990197019401918a98979695939161330b565b90919460608060019288358152838060a01b036134ae60208b0161279c565b1660208201526001600160801b036134c860408b01613f5a565b1660408201520196019201906132a6565b90506134e481613f39565b906131b0565b506134f760a084016135b0565b156131ab565b5094935095509550506020925020910135907fd04cd9af813f6f0b56e9411a6ee6a84eb5ac35a96f0c33d2e3a07d65baa8f4186020604051848152a15f5260205260405f2090565b5050507fc5d2460186f7233c927e7db2dcc703c0e500b653ca82273b7bfad8045d85a47090565b6306d6c38360e01b5f5260045ffd5b903590601e1981360301821215611d8e57018035906001600160401b038211611d8e57602001918160061b36038313611d8e57565b358015158103611d8e5790565b903590605e1981360301821215611d8e570190565b919082018092116129e857565b60c0820160016135ef8285613091565b905011613991576136008184613091565b905015613545576136119083613091565b15612b1057803590607e1981360301821215611d8e5701916060830190602061363983612c3a565b91019065ffffffffffff8061364d84612c3a565b16911610156139825761365f82612c3a565b65ffffffffffff80600286015460201c16911610613973576136a565ffffffffffff61369e6136988261369187612c3a565b1687613f93565b93612c3a565b1684613f93565b1115613964576007820154600690920180548435946001600160a01b0394851694604082019391925f916020911660446136eb836136e389896135bd565b01358b6135d2565b604051948593849263095ea7b360e01b84528c600485015260248401525af19081156126fc575f91613929575b501561391a575460405163394f179b60e11b81526001600160a01b03909116600482015260248101959095526020818101356044870152856064815f885af19485156126fc575f956138e2575b5090613770916135bd565b9161377a82612c3a565b9260405193637fbe95b560e01b85526040600486015260a48501918035601e1982360301811215611d8e578101602081359101936001600160401b038211611d8e578160061b36038513611d8e5760606044890152819052869360c485019392915f5b8181106138aa57505050836020959365ffffffffffff829484895f9601356064860152613813604060018060a01b03920161279c565b16608485015216602483015203925af19182156126fc575f92613874575b5061383b90612c3a565b6040519160208301938452604083015265ffffffffffff60d01b9060d01b1660608201526046815261386e606682612831565b51902090565b9091506020813d6020116138a2575b8161389060209383612831565b81010312611d8e57519061383b613831565b3d9150613883565b919550919293604080600192838060a01b036138c58a61279c565b1681526020890135602082015201960191019188959493926137dd565b919094506020823d602011613912575b816138ff60209383612831565b81010312611d8e57905193613770613765565b3d91506138f2565b6367b9145160e01b5f5260045ffd5b90506020813d60201161395c575b8161394460209383612831565b81010312611d8e57518015158103611d8e575f613718565b3d9150613937565b6308027f7760e31b5f5260045ffd5b637bde91e760e11b5f5260045ffd5b63087a19ab60e41b5f5260045ffd5b633249ceed60e11b5f5260045ffd5b903590601e1981360301821215611d8e57018035906001600160401b038211611d8e57602001918136038313611d8e57565b9060e0810160016139e38284613091565b905011613c46576139f48183613091565b90501561354557613a0491613091565b15612b1057803590609e1981360301821215611d8e57016060810190613a2a8282613091565b905015613c375765ffffffffffff600284015460201c1691613a4c83426129db565b613a5b601686015480926129fc565b93608084013594600181018091116129e8578503613c2857613a8085613a8693612dc6565b906135d2565b93613a956017820154866129db565b4210613c1957613aa490613fbb565b934260058601541015613c0a57613af9906040840195613aeb613af3613aca89886139a0565b9190613ad6888a613091565b949091613ae3368c612a1a565b94369161286d565b933691612a59565b92612dd9565b7fa1a3b42179ad30022438a1ea333b38eaf4a7329beee5e2b8111c0dcd4e08821c6020604051858152a160a082360312611d8e5760405193613b3a85612816565b613b443684612a1a565b8552356001600160401b038111611d8e57613b6290369084016128a3565b602085015235906001600160401b038211611d8e570136601f82011215611d8e57613b94903690602081359101612a59565b91826040820152816060820152519160208351930151906040519283926020840195865260408401526060830160208351919301905f5b818110613be85750505081520380825261386e9060200182612831565b82516001600160a01b0316855286955060209485019490920191600101613bcb565b6333fc8f5160e21b5f5260045ffd5b6372a84ce560e11b5f5260045ffd5b6343d3f5bf60e01b5f5260045ffd5b636c2bf3db60e01b5f5260045ffd5b631d3fc6bf60e21b5f5260045ffd5b909493919365ffffffffffff600283015460201c16613c744284613f93565b613c8c613c8660168601548093612dc6565b836135d2565b918284108080613eb1575b15613e7f57508310613e7157613cad90836135d2565b10613e6257613cbd905b82613ef2565b94601960f81b5f523060601b60025260165260365f2093600281101561271c5780613d4e57505060018103613d3f5715612b1057613cfe81613d05926139a0565b369161286d565b916060835103613d30578260206128be94015160606040830151920151926001815491015490613fd6565b632ce466bf60e01b5f5260045ffd5b6360a1ea7760e01b5f5260045ffd5b919391600114613d615750505050505f90565b613d8690600860048796970154910154906001600160801b038260801c921690613ec7565b925f9260035f9201915b86811015613e5757613dbf613db6613db0613cfe8460051b8601866139a0565b86614237565b90929192614271565b6001600160a01b0381165f9081526020859052604090205460ff16613dea575b506001905b01613d90565b6001600160a01b03165f9081527ff02b465737fa6045c2ff53fb2df43c66916ac2166fa303264668fb2f6a1d8c0060205260409020805c15613e2f5750600190613de4565b946001613e3d92965d612d50565b93858514613e4b575f613ddf565b50505050505050600190565b505050505050505f90565b63046bb1e560e51b5f5260045ffd5b62f4462b60e01b5f5260045ffd5b9392915050428211613ea257613cbd92613e9a575b50613cb7565b90505f613e94565b6347860b9760e01b5f5260045ffd5b50613ec06018870154856135d2565b4210613c97565b6001600160801b03809216029116613edf81836129fc565b918115612a065706156128be5760010190565b90613efd90826141d7565b15613f0857600f0190565b60090190565b60ff5f5160206144555f395f51905f525460401c1615613f2a57565b631afcd79f60e31b5f5260045ffd5b356001600160801b0381168103611d8e5790565b35908115158203611d8e57565b35906001600160801b0382168203611d8e57565b6040519190601f01601f191682016001600160401b03811183821017611d8e57604052565b6016613fb26128be9365ffffffffffff600285015460201c16906129db565b910154906129fc565b613fc542826141d7565b15613fd05760090190565b600f0190565b9293919490613fe585876142d1565b156141785782156141785770014551231950b75fc4402da1732fc9bebe19831015614178576001169061010e61401a81613f6e565b9160883684376002600188160160888401538760898401526002840160a984015360aa830186905260ca8301527e300046524f53542d736563703235366b312d4b454343414b3235362d76316360ea8301526303430b6160e51b61010a830152812060cc820181815290600260ec84016001815360428420809318845253604270014551231950b75fc4402da1732fc9bebe19922060801c6001600160401b0360801b8260801b16179070014551231950b75fc4402da1732fc9bebe1990600160c01b9060401c09088015613e575784601b6080945f9660209870014551231950b75fc4402da1732fc9bebe19910970014551231950b75fc4402da1732fc9bebe19038552018684015280604084015270014551231950b75fc4402da1732fc9bebe19910970014551231950b75fc4402da1732fc9bebe1903606082015282805260015afa505f51915f5260205260018060a01b0360405f20161490565b5050505050505f90565b61418a612c4d565b50600281015460058201546040519290916141ca916004916001600160a01b03166141b486612816565b6141bd826129bd565b8652602086015201612aad565b6040830152606082015290565b906014600e83015492015480831461422857818184109311918215911115918190614221575b15614212578261420c57505090565b14919050565b634c38ae9560e11b5f5260045ffd5b50816141fd565b63f26224af60e01b5f5260045ffd5b8151919060418303614267576142609250602082015190606060408401519301515f1a90614352565b9192909190565b50505f9160029190565b600481101561271c5780614283575050565b6001810361429a5763f645eedf60e01b5f5260045ffd5b600281036142b5575063fce698f760e01b5f5260045260245ffd5b6003146142bf5750565b6335e2f38360e21b5f5260045260245ffd5b6401000003d01990600790829081818009900908906401000003d0199080091490565b90614318575080511561430957602081519101fd5b63d6bda27560e01b5f5260045ffd5b81511580614349575b614329575090565b639996b31560e01b5f9081526001600160a01b0391909116600452602490fd5b50803b15614321565b91907f7fffffffffffffffffffffffffffffff5d576e7357a4501ddfe92f46681b20a084116143c9579160209360809260ff5f9560405194855216868401526040830152606082015282805260015afa156126fc575f516001600160a01b038116156143bf57905f905f90565b505f906001905f90565b5050505f916003919056fe9016d09d72d40fdae2fd8ceac6b6234c7706214fd39c1cd1e609a0528c199300360894a13ba1a3210667c828492db98dca3e2076cc3735a920a3ca505d382bbc5c09ca1b9b8127a4fd9f3c384aac59b661441e820e17733753ff5f2e86e1e000cd5ed15c6e187e77e9aee88184c21f4f2182ab5827cb3b7e07fbedcd63f03300f0c57e16840df040f15088dc2f81fe391c3923bec73e23a9662efc9c229c6a00f0c57e16840df040f15088dc2f81fe391c3923bec73e23a9662efc9c229c6a00","linkReferences":{}},"methodIdentifiers":{"COMMIT_BATCH_AFTER_COMMIT_CODES()":"4429e24b","COMMIT_BATCH_BEFORE_COMMIT_CODES()":"ad2b3d9a","UPGRADE_INTERFACE_VERSION()":"ad3cb1cc","areValidators(address[])":"8f381dbe","codeState(bytes32)":"c13911e8","codesStates(bytes32[])":"82bdeaad","commitBatch((bytes32,uint48,bytes32,uint8,((address,bytes32,bool,address,uint128,bool,(bytes32,address,uint128)[],(bytes32,address,bytes,uint128,(bytes32,bytes4),bool)[])[],bytes32)[],(bytes32,bool)[],((uint256,bytes32),((address,uint256)[],uint256,address),uint48)[],((uint256,uint256),bytes,address[],uint256)[]),uint8,bytes[])":"b24fcac0","computeSettings()":"84d22a4f","createProgram(bytes32,bytes32,address)":"3683c4d2","createProgramWithAbiInterface(bytes32,bytes32,address,address)":"0c18d277","genesisBlockHash()":"28e24b3d","genesisTimestamp()":"cacf66ab","initialize(address,address,address,address,uint256,uint256,uint256,(uint256,uint256),bytes,address[])":"53f7fd48","isValidator(address)":"facd743b","latestCommittedBatchHash()":"71a8cf2d","latestCommittedBatchTimestamp()":"d456fd51","lookupGenesisHash()":"8b1edf1e","middleware()":"f4f20ac0","mirrorImpl()":"e6fabc09","owner()":"8da5cb5b","pause()":"8456cb59","paused()":"5c975abb","programCodeId(address)":"9067088e","programsCodeIds(address[])":"baaf0201","programsCount()":"96a2ddfa","proxiableUUID()":"52d1902d","reinitialize()":"6c2eb350","renounceOwnership()":"715018a6","requestCodeValidation(bytes32)":"120e3f1e","setMirror(address)":"3d43b418","signingThresholdFraction()":"e3a6684f","storageView()":"c2eb812f","timelines()":"9eb939a8","transferOwnership(address)":"f2fde38b","unpause()":"3f4ba83a","upgradeToAndCall(address,bytes)":"4f1ef286","validatedCodesCount()":"007a32e7","validators()":"ca1e7819","validatorsAggregatedPublicKey()":"3bd109fa","validatorsCount()":"ed612f8c","validatorsThreshold()":"edc87225","validatorsVerifiableSecretSharingCommitment()":"a5d53a44","wrappedVara()":"88f50cf0"},"storageLayout":{"storage":[],"types":{}},"id":165}