{"abi":[{"type":"constructor","inputs":[],"stateMutability":"nonpayable"},{"type":"receive","stateMutability":"payable"},{"type":"function","name":"DOMAIN_SEPARATOR","inputs":[],"outputs":[{"name":"","type":"bytes32","internalType":"bytes32"}],"stateMutability":"view"},{"type":"function","name":"UPGRADE_INTERFACE_VERSION","inputs":[],"outputs":[{"name":"","type":"string","internalType":"string"}],"stateMutability":"view"},{"type":"function","name":"areValidators","inputs":[{"name":"_validators","type":"address[]","internalType":"address[]"}],"outputs":[{"name":"","type":"bool","internalType":"bool"}],"stateMutability":"view"},{"type":"function","name":"bumpProtocolVersion","inputs":[{"name":"_versionType","type":"uint8","internalType":"enum Gear.VersionType"}],"outputs":[],"stateMutability":"nonpayable"},{"type":"function","name":"codeState","inputs":[{"name":"_codeId","type":"bytes32","internalType":"bytes32"}],"outputs":[{"name":"","type":"uint8","internalType":"enum Gear.CodeState"}],"stateMutability":"view"},{"type":"function","name":"codesStates","inputs":[{"name":"_codesIds","type":"bytes32[]","internalType":"bytes32[]"}],"outputs":[{"name":"","type":"uint8[]","internalType":"enum Gear.CodeState[]"}],"stateMutability":"view"},{"type":"function","name":"commitBatch","inputs":[{"name":"_batch","type":"tuple","internalType":"struct Gear.BatchCommitment","components":[{"name":"blockHash","type":"bytes32","internalType":"bytes32"},{"name":"blockTimestamp","type":"uint48","internalType":"uint48"},{"name":"previousCommittedBatchHash","type":"bytes32","internalType":"bytes32"},{"name":"expiry","type":"uint8","internalType":"uint8"},{"name":"chainCommitment","type":"tuple[]","internalType":"struct Gear.ChainCommitment[]","components":[{"name":"transitions","type":"tuple[]","internalType":"struct Gear.StateTransition[]","components":[{"name":"actorId","type":"address","internalType":"address"},{"name":"newStateHash","type":"bytes32","internalType":"bytes32"},{"name":"exited","type":"bool","internalType":"bool"},{"name":"inheritor","type":"address","internalType":"address"},{"name":"valueToReceive","type":"uint128","internalType":"uint128"},{"name":"valueToReceiveNegativeSign","type":"bool","internalType":"bool"},{"name":"valueClaims","type":"tuple[]","internalType":"struct Gear.ValueClaim[]","components":[{"name":"messageId","type":"bytes32","internalType":"bytes32"},{"name":"destination","type":"address","internalType":"address"},{"name":"value","type":"uint128","internalType":"uint128"}]},{"name":"messages","type":"tuple[]","internalType":"struct Gear.Message[]","components":[{"name":"id","type":"bytes32","internalType":"bytes32"},{"name":"destination","type":"address","internalType":"address"},{"name":"payload","type":"bytes","internalType":"bytes"},{"name":"value","type":"uint128","internalType":"uint128"},{"name":"replyDetails","type":"tuple","internalType":"struct Gear.ReplyDetails","components":[{"name":"to","type":"bytes32","internalType":"bytes32"},{"name":"code","type":"bytes4","internalType":"bytes4"}]},{"name":"call","type":"bool","internalType":"bool"}]}]},{"name":"head","type":"bytes32","internalType":"bytes32"},{"name":"lastAdvancedEthBlock","type":"bytes32","internalType":"bytes32"}]},{"name":"codeCommitments","type":"tuple[]","internalType":"struct Gear.CodeCommitment[]","components":[{"name":"id","type":"bytes32","internalType":"bytes32"},{"name":"valid","type":"bool","internalType":"bool"}]},{"name":"rewardsCommitment","type":"tuple[]","internalType":"struct Gear.RewardsCommitment[]","components":[{"name":"operators","type":"tuple","internalType":"struct Gear.OperatorRewardsCommitment","components":[{"name":"amount","type":"uint256","internalType":"uint256"},{"name":"root","type":"bytes32","internalType":"bytes32"}]},{"name":"stakers","type":"tuple","internalType":"struct Gear.StakerRewardsCommitment","components":[{"name":"distribution","type":"tuple[]","internalType":"struct Gear.StakerRewards[]","components":[{"name":"vault","type":"address","internalType":"address"},{"name":"amount","type":"uint256","internalType":"uint256"}]},{"name":"totalAmount","type":"uint256","internalType":"uint256"},{"name":"token","type":"address","internalType":"address"}]},{"name":"timestamp","type":"uint48","internalType":"uint48"}]},{"name":"validatorsCommitment","type":"tuple[]","internalType":"struct Gear.ValidatorsCommitment[]","components":[{"name":"hasAggregatedPublicKey","type":"bool","internalType":"bool"},{"name":"aggregatedPublicKey","type":"tuple","internalType":"struct Gear.AggregatedPublicKey","components":[{"name":"x","type":"uint256","internalType":"uint256"},{"name":"y","type":"uint256","internalType":"uint256"}]},{"name":"verifiableSecretSharingCommitment","type":"bytes","internalType":"bytes"},{"name":"validators","type":"address[]","internalType":"address[]"},{"name":"eraIndex","type":"uint256","internalType":"uint256"}]}]},{"name":"_signatureType","type":"uint8","internalType":"enum Gear.SignatureType"},{"name":"_signatures","type":"bytes[]","internalType":"bytes[]"}],"outputs":[],"stateMutability":"nonpayable"},{"type":"function","name":"computeSettings","inputs":[],"outputs":[{"name":"","type":"tuple","internalType":"struct Gear.ComputationSettings","components":[{"name":"threshold","type":"uint64","internalType":"uint64"},{"name":"wvaraPerSecond","type":"uint128","internalType":"uint128"}]}],"stateMutability":"view"},{"type":"function","name":"createProgram","inputs":[{"name":"_codeId","type":"bytes32","internalType":"bytes32"},{"name":"_salt","type":"bytes32","internalType":"bytes32"},{"name":"_overrideInitializer","type":"address","internalType":"address"}],"outputs":[{"name":"","type":"address","internalType":"address"}],"stateMutability":"nonpayable"},{"type":"function","name":"createProgramWithAbiInterface","inputs":[{"name":"_codeId","type":"bytes32","internalType":"bytes32"},{"name":"_salt","type":"bytes32","internalType":"bytes32"},{"name":"_overrideInitializer","type":"address","internalType":"address"},{"name":"_abiInterface","type":"address","internalType":"address"}],"outputs":[{"name":"","type":"address","internalType":"address"}],"stateMutability":"nonpayable"},{"type":"function","name":"createProgramWithAbiInterfaceAndExecutableBalance","inputs":[{"name":"_codeId","type":"bytes32","internalType":"bytes32"},{"name":"_salt","type":"bytes32","internalType":"bytes32"},{"name":"_overrideInitializer","type":"address","internalType":"address"},{"name":"_abiInterface","type":"address","internalType":"address"},{"name":"_initialExecutableBalance","type":"uint128","internalType":"uint128"},{"name":"_deadline","type":"uint256","internalType":"uint256"},{"name":"_v","type":"uint8","internalType":"uint8"},{"name":"_r","type":"bytes32","internalType":"bytes32"},{"name":"_s","type":"bytes32","internalType":"bytes32"}],"outputs":[{"name":"","type":"address","internalType":"address"}],"stateMutability":"nonpayable"},{"type":"function","name":"createProgramWithExecutableBalance","inputs":[{"name":"_codeId","type":"bytes32","internalType":"bytes32"},{"name":"_salt","type":"bytes32","internalType":"bytes32"},{"name":"_overrideInitializer","type":"address","internalType":"address"},{"name":"_initialExecutableBalance","type":"uint128","internalType":"uint128"},{"name":"_deadline","type":"uint256","internalType":"uint256"},{"name":"_v","type":"uint8","internalType":"uint8"},{"name":"_r","type":"bytes32","internalType":"bytes32"},{"name":"_s","type":"bytes32","internalType":"bytes32"}],"outputs":[{"name":"","type":"address","internalType":"address"}],"stateMutability":"nonpayable"},{"type":"function","name":"eip712Domain","inputs":[],"outputs":[{"name":"fields","type":"bytes1","internalType":"bytes1"},{"name":"name","type":"string","internalType":"string"},{"name":"version","type":"string","internalType":"string"},{"name":"chainId","type":"uint256","internalType":"uint256"},{"name":"verifyingContract","type":"address","internalType":"address"},{"name":"salt","type":"bytes32","internalType":"bytes32"},{"name":"extensions","type":"uint256[]","internalType":"uint256[]"}],"stateMutability":"view"},{"type":"function","name":"genesisBlockHash","inputs":[],"outputs":[{"name":"","type":"bytes32","internalType":"bytes32"}],"stateMutability":"view"},{"type":"function","name":"genesisTimestamp","inputs":[],"outputs":[{"name":"","type":"uint48","internalType":"uint48"}],"stateMutability":"view"},{"type":"function","name":"initialize","inputs":[{"name":"_owner","type":"address","internalType":"address"},{"name":"_mirror","type":"address","internalType":"address"},{"name":"_wrappedVara","type":"address","internalType":"address"},{"name":"_middleware","type":"address","internalType":"address"},{"name":"_eraDuration","type":"uint256","internalType":"uint256"},{"name":"_electionDuration","type":"uint256","internalType":"uint256"},{"name":"_validationDelay","type":"uint256","internalType":"uint256"},{"name":"_aggregatedPublicKey","type":"tuple","internalType":"struct Gear.AggregatedPublicKey","components":[{"name":"x","type":"uint256","internalType":"uint256"},{"name":"y","type":"uint256","internalType":"uint256"}]},{"name":"_verifiableSecretSharingCommitment","type":"bytes","internalType":"bytes"},{"name":"_validators","type":"address[]","internalType":"address[]"}],"outputs":[],"stateMutability":"nonpayable"},{"type":"function","name":"isValidator","inputs":[{"name":"_validator","type":"address","internalType":"address"}],"outputs":[{"name":"","type":"bool","internalType":"bool"}],"stateMutability":"view"},{"type":"function","name":"latestCommittedBatchHash","inputs":[],"outputs":[{"name":"","type":"bytes32","internalType":"bytes32"}],"stateMutability":"view"},{"type":"function","name":"latestCommittedBatchTimestamp","inputs":[],"outputs":[{"name":"","type":"uint48","internalType":"uint48"}],"stateMutability":"view"},{"type":"function","name":"lookupGenesisHash","inputs":[],"outputs":[],"stateMutability":"nonpayable"},{"type":"function","name":"middleware","inputs":[],"outputs":[{"name":"","type":"address","internalType":"address"}],"stateMutability":"view"},{"type":"function","name":"mirrorImpl","inputs":[],"outputs":[{"name":"","type":"address","internalType":"address"}],"stateMutability":"view"},{"type":"function","name":"nonces","inputs":[{"name":"owner","type":"address","internalType":"address"}],"outputs":[{"name":"","type":"uint256","internalType":"uint256"}],"stateMutability":"view"},{"type":"function","name":"owner","inputs":[],"outputs":[{"name":"","type":"address","internalType":"address"}],"stateMutability":"view"},{"type":"function","name":"pause","inputs":[],"outputs":[],"stateMutability":"nonpayable"},{"type":"function","name":"paused","inputs":[],"outputs":[{"name":"","type":"bool","internalType":"bool"}],"stateMutability":"view"},{"type":"function","name":"programCodeId","inputs":[{"name":"_programId","type":"address","internalType":"address"}],"outputs":[{"name":"","type":"bytes32","internalType":"bytes32"}],"stateMutability":"view"},{"type":"function","name":"programsCodeIds","inputs":[{"name":"_programsIds","type":"address[]","internalType":"address[]"}],"outputs":[{"name":"","type":"bytes32[]","internalType":"bytes32[]"}],"stateMutability":"view"},{"type":"function","name":"programsCount","inputs":[],"outputs":[{"name":"","type":"uint256","internalType":"uint256"}],"stateMutability":"view"},{"type":"function","name":"protocolVersion","inputs":[],"outputs":[{"name":"","type":"uint256","internalType":"uint256"}],"stateMutability":"view"},{"type":"function","name":"proxiableUUID","inputs":[],"outputs":[{"name":"","type":"bytes32","internalType":"bytes32"}],"stateMutability":"view"},{"type":"function","name":"reinitialize","inputs":[],"outputs":[],"stateMutability":"nonpayable"},{"type":"function","name":"renounceOwnership","inputs":[],"outputs":[],"stateMutability":"nonpayable"},{"type":"function","name":"requestCodeValidation","inputs":[{"name":"_codeId","type":"bytes32","internalType":"bytes32"},{"name":"_deadline","type":"uint256","internalType":"uint256"},{"name":"_v","type":"uint8","internalType":"uint8"},{"name":"_r","type":"bytes32","internalType":"bytes32"},{"name":"_s","type":"bytes32","internalType":"bytes32"}],"outputs":[],"stateMutability":"nonpayable"},{"type":"function","name":"requestCodeValidationBaseFee","inputs":[],"outputs":[{"name":"","type":"uint256","internalType":"uint256"}],"stateMutability":"view"},{"type":"function","name":"requestCodeValidationExtraFee","inputs":[],"outputs":[{"name":"","type":"uint256","internalType":"uint256"}],"stateMutability":"view"},{"type":"function","name":"requestCodeValidationOnBehalf","inputs":[{"name":"_requester","type":"address","internalType":"address"},{"name":"_codeId","type":"bytes32","internalType":"bytes32"},{"name":"_blobHashes","type":"bytes32[]","internalType":"bytes32[]"},{"name":"_deadline","type":"uint256","internalType":"uint256"},{"name":"_v1","type":"uint8","internalType":"uint8"},{"name":"_r1","type":"bytes32","internalType":"bytes32"},{"name":"_s1","type":"bytes32","internalType":"bytes32"},{"name":"_v2","type":"uint8","internalType":"uint8"},{"name":"_r2","type":"bytes32","internalType":"bytes32"},{"name":"_s2","type":"bytes32","internalType":"bytes32"}],"outputs":[],"stateMutability":"nonpayable"},{"type":"function","name":"setMirror","inputs":[{"name":"newMirror","type":"address","internalType":"address"}],"outputs":[],"stateMutability":"nonpayable"},{"type":"function","name":"setRequestCodeValidationBaseFee","inputs":[{"name":"newBaseFee","type":"uint256","internalType":"uint256"}],"outputs":[],"stateMutability":"nonpayable"},{"type":"function","name":"setRequestCodeValidationExtraFee","inputs":[{"name":"newExtraFee","type":"uint256","internalType":"uint256"}],"outputs":[],"stateMutability":"nonpayable"},{"type":"function","name":"signingThresholdFraction","inputs":[],"outputs":[{"name":"thresholdNumerator","type":"uint128","internalType":"uint128"},{"name":"thresholdDenominator","type":"uint128","internalType":"uint128"}],"stateMutability":"view"},{"type":"function","name":"storageView","inputs":[],"outputs":[{"name":"","type":"tuple","internalType":"struct IRouter.StorageView","components":[{"name":"genesisBlock","type":"tuple","internalType":"struct Gear.GenesisBlockInfo","components":[{"name":"hash","type":"bytes32","internalType":"bytes32"},{"name":"number","type":"uint32","internalType":"uint32"},{"name":"timestamp","type":"uint48","internalType":"uint48"}]},{"name":"latestCommittedBatch","type":"tuple","internalType":"struct Gear.CommittedBatchInfo","components":[{"name":"hash","type":"bytes32","internalType":"bytes32"},{"name":"timestamp","type":"uint48","internalType":"uint48"}]},{"name":"implAddresses","type":"tuple","internalType":"struct Gear.AddressBook","components":[{"name":"mirror","type":"address","internalType":"address"},{"name":"wrappedVara","type":"address","internalType":"address"},{"name":"middleware","type":"address","internalType":"address"}]},{"name":"validationSettings","type":"tuple","internalType":"struct Gear.ValidationSettingsView","components":[{"name":"thresholdNumerator","type":"uint128","internalType":"uint128"},{"name":"thresholdDenominator","type":"uint128","internalType":"uint128"},{"name":"validators0","type":"tuple","internalType":"struct Gear.ValidatorsView","components":[{"name":"aggregatedPublicKey","type":"tuple","internalType":"struct Gear.AggregatedPublicKey","components":[{"name":"x","type":"uint256","internalType":"uint256"},{"name":"y","type":"uint256","internalType":"uint256"}]},{"name":"verifiableSecretSharingCommitmentPointer","type":"address","internalType":"address"},{"name":"list","type":"address[]","internalType":"address[]"},{"name":"useFromTimestamp","type":"uint256","internalType":"uint256"}]},{"name":"validators1","type":"tuple","internalType":"struct Gear.ValidatorsView","components":[{"name":"aggregatedPublicKey","type":"tuple","internalType":"struct Gear.AggregatedPublicKey","components":[{"name":"x","type":"uint256","internalType":"uint256"},{"name":"y","type":"uint256","internalType":"uint256"}]},{"name":"verifiableSecretSharingCommitmentPointer","type":"address","internalType":"address"},{"name":"list","type":"address[]","internalType":"address[]"},{"name":"useFromTimestamp","type":"uint256","internalType":"uint256"}]}]},{"name":"computeSettings","type":"tuple","internalType":"struct Gear.ComputationSettings","components":[{"name":"threshold","type":"uint64","internalType":"uint64"},{"name":"wvaraPerSecond","type":"uint128","internalType":"uint128"}]},{"name":"timelines","type":"tuple","internalType":"struct Gear.Timelines","components":[{"name":"era","type":"uint256","internalType":"uint256"},{"name":"election","type":"uint256","internalType":"uint256"},{"name":"validationDelay","type":"uint256","internalType":"uint256"}]},{"name":"programsCount","type":"uint256","internalType":"uint256"},{"name":"validatedCodesCount","type":"uint256","internalType":"uint256"},{"name":"maxValidators","type":"uint16","internalType":"uint16"},{"name":"requestCodeValidationBaseFee","type":"uint256","internalType":"uint256"},{"name":"requestCodeValidationExtraFee","type":"uint256","internalType":"uint256"},{"name":"protocolVersion","type":"uint256","internalType":"uint256"}]}],"stateMutability":"view"},{"type":"function","name":"subProtocolVersion","inputs":[{"name":"versionType","type":"uint8","internalType":"enum Gear.VersionType"}],"outputs":[{"name":"","type":"uint256","internalType":"uint256"}],"stateMutability":"view"},{"type":"function","name":"timelines","inputs":[],"outputs":[{"name":"","type":"tuple","internalType":"struct Gear.Timelines","components":[{"name":"era","type":"uint256","internalType":"uint256"},{"name":"election","type":"uint256","internalType":"uint256"},{"name":"validationDelay","type":"uint256","internalType":"uint256"}]}],"stateMutability":"view"},{"type":"function","name":"transferOwnership","inputs":[{"name":"newOwner","type":"address","internalType":"address"}],"outputs":[],"stateMutability":"nonpayable"},{"type":"function","name":"unpause","inputs":[],"outputs":[],"stateMutability":"nonpayable"},{"type":"function","name":"upgradeToAndCall","inputs":[{"name":"newImplementation","type":"address","internalType":"address"},{"name":"data","type":"bytes","internalType":"bytes"}],"outputs":[],"stateMutability":"payable"},{"type":"function","name":"validatedCodesCount","inputs":[],"outputs":[{"name":"","type":"uint256","internalType":"uint256"}],"stateMutability":"view"},{"type":"function","name":"validators","inputs":[],"outputs":[{"name":"","type":"address[]","internalType":"address[]"}],"stateMutability":"view"},{"type":"function","name":"validatorsAggregatedPublicKey","inputs":[],"outputs":[{"name":"","type":"tuple","internalType":"struct Gear.AggregatedPublicKey","components":[{"name":"x","type":"uint256","internalType":"uint256"},{"name":"y","type":"uint256","internalType":"uint256"}]}],"stateMutability":"view"},{"type":"function","name":"validatorsCount","inputs":[],"outputs":[{"name":"","type":"uint256","internalType":"uint256"}],"stateMutability":"view"},{"type":"function","name":"validatorsThreshold","inputs":[],"outputs":[{"name":"","type":"uint256","internalType":"uint256"}],"stateMutability":"view"},{"type":"function","name":"validatorsVerifiableSecretSharingCommitment","inputs":[],"outputs":[{"name":"","type":"bytes","internalType":"bytes"}],"stateMutability":"view"},{"type":"function","name":"wrappedVara","inputs":[],"outputs":[{"name":"","type":"address","internalType":"address"}],"stateMutability":"view"},{"type":"event","name":"BatchCommitted","inputs":[{"name":"hash","type":"bytes32","indexed":false,"internalType":"bytes32"}],"anonymous":false},{"type":"event","name":"CodeGotValidated","inputs":[{"name":"codeId","type":"bytes32","indexed":false,"internalType":"bytes32"},{"name":"valid","type":"bool","indexed":true,"internalType":"bool"}],"anonymous":false},{"type":"event","name":"CodeValidationRequested","inputs":[{"name":"codeId","type":"bytes32","indexed":false,"internalType":"bytes32"}],"anonymous":false},{"type":"event","name":"ComputationSettingsChanged","inputs":[{"name":"threshold","type":"uint64","indexed":false,"internalType":"uint64"},{"name":"wvaraPerSecond","type":"uint128","indexed":false,"internalType":"uint128"}],"anonymous":false},{"type":"event","name":"EBCommitted","inputs":[{"name":"ethBlockHash","type":"bytes32","indexed":false,"internalType":"bytes32"}],"anonymous":false},{"type":"event","name":"EIP712DomainChanged","inputs":[],"anonymous":false},{"type":"event","name":"Initialized","inputs":[{"name":"version","type":"uint64","indexed":false,"internalType":"uint64"}],"anonymous":false},{"type":"event","name":"MBCommitted","inputs":[{"name":"head","type":"bytes32","indexed":false,"internalType":"bytes32"}],"anonymous":false},{"type":"event","name":"OwnershipTransferred","inputs":[{"name":"previousOwner","type":"address","indexed":true,"internalType":"address"},{"name":"newOwner","type":"address","indexed":true,"internalType":"address"}],"anonymous":false},{"type":"event","name":"Paused","inputs":[{"name":"account","type":"address","indexed":false,"internalType":"address"}],"anonymous":false},{"type":"event","name":"ProgramCreated","inputs":[{"name":"actorId","type":"address","indexed":false,"internalType":"address"},{"name":"codeId","type":"bytes32","indexed":true,"internalType":"bytes32"}],"anonymous":false},{"type":"event","name":"ProtocolVersionChanged","inputs":[{"name":"newProtocolVersion","type":"uint256","indexed":false,"internalType":"uint256"}],"anonymous":false},{"type":"event","name":"StorageSlotChanged","inputs":[{"name":"slot","type":"bytes32","indexed":false,"internalType":"bytes32"}],"anonymous":false},{"type":"event","name":"Unpaused","inputs":[{"name":"account","type":"address","indexed":false,"internalType":"address"}],"anonymous":false},{"type":"event","name":"Upgraded","inputs":[{"name":"implementation","type":"address","indexed":true,"internalType":"address"}],"anonymous":false},{"type":"event","name":"ValidatorsCommittedForEra","inputs":[{"name":"eraIndex","type":"uint256","indexed":false,"internalType":"uint256"}],"anonymous":false},{"type":"error","name":"AddressEmptyCode","inputs":[{"name":"target","type":"address","internalType":"address"}]},{"type":"error","name":"ApproveERC20Failed","inputs":[]},{"type":"error","name":"BatchTimestampNotInPast","inputs":[]},{"type":"error","name":"BatchTimestampTooEarly","inputs":[]},{"type":"error","name":"BlobNotFound","inputs":[]},{"type":"error","name":"CodeAlreadyOnValidationOrValidated","inputs":[]},{"type":"error","name":"CodeNotValidated","inputs":[]},{"type":"error","name":"CodeValidationNotRequested","inputs":[]},{"type":"error","name":"CommitmentEraNotNext","inputs":[]},{"type":"error","name":"ECDSAInvalidSignature","inputs":[]},{"type":"error","name":"ECDSAInvalidSignatureLength","inputs":[{"name":"length","type":"uint256","internalType":"uint256"}]},{"type":"error","name":"ECDSAInvalidSignatureS","inputs":[{"name":"s","type":"bytes32","internalType":"bytes32"}]},{"type":"error","name":"ERC1967InvalidImplementation","inputs":[{"name":"implementation","type":"address","internalType":"address"}]},{"type":"error","name":"ERC1967NonPayable","inputs":[]},{"type":"error","name":"ElectionNotStarted","inputs":[]},{"type":"error","name":"EmptyValidatorsList","inputs":[]},{"type":"error","name":"EnforcedPause","inputs":[]},{"type":"error","name":"EraDurationTooShort","inputs":[]},{"type":"error","name":"ErasTimestampMustNotBeEqual","inputs":[]},{"type":"error","name":"ExpectedPause","inputs":[]},{"type":"error","name":"ExpiredSignature","inputs":[{"name":"deadline","type":"uint256","internalType":"uint256"}]},{"type":"error","name":"FailedCall","inputs":[]},{"type":"error","name":"GenesisHashAlreadySet","inputs":[]},{"type":"error","name":"GenesisHashNotFound","inputs":[]},{"type":"error","name":"InvalidAccountNonce","inputs":[{"name":"account","type":"address","internalType":"address"},{"name":"currentNonce","type":"uint256","internalType":"uint256"}]},{"type":"error","name":"InvalidBlobHash","inputs":[{"name":"index","type":"uint256","internalType":"uint256"},{"name":"providedBlobHash","type":"bytes32","internalType":"bytes32"},{"name":"expectedBlobHash","type":"bytes32","internalType":"bytes32"}]},{"type":"error","name":"InvalidBlobHashesLength","inputs":[{"name":"providedLength","type":"uint256","internalType":"uint256"},{"name":"expectedLength","type":"uint256","internalType":"uint256"}]},{"type":"error","name":"InvalidElectionDuration","inputs":[]},{"type":"error","name":"InvalidFROSTAggregatedPublicKey","inputs":[]},{"type":"error","name":"InvalidFrostSignatureCount","inputs":[]},{"type":"error","name":"InvalidFrostSignatureLength","inputs":[]},{"type":"error","name":"InvalidInitialization","inputs":[]},{"type":"error","name":"InvalidPreviousCommittedBatchHash","inputs":[]},{"type":"error","name":"InvalidSigner","inputs":[{"name":"signer","type":"address","internalType":"address"},{"name":"requester","type":"address","internalType":"address"}]},{"type":"error","name":"InvalidTimestamp","inputs":[]},{"type":"error","name":"NotInitializing","inputs":[]},{"type":"error","name":"OwnableInvalidOwner","inputs":[{"name":"owner","type":"address","internalType":"address"}]},{"type":"error","name":"OwnableUnauthorizedAccount","inputs":[{"name":"account","type":"address","internalType":"address"}]},{"type":"error","name":"PredecessorBlockNotFound","inputs":[]},{"type":"error","name":"ReentrancyGuardReentrantCall","inputs":[]},{"type":"error","name":"RewardsCommitmentEraNotPrevious","inputs":[]},{"type":"error","name":"RewardsCommitmentPredatesGenesis","inputs":[]},{"type":"error","name":"RewardsCommitmentTimestampNotInPast","inputs":[]},{"type":"error","name":"RouterGenesisHashNotInitialized","inputs":[]},{"type":"error","name":"SafeCastOverflowedUintDowncast","inputs":[{"name":"bits","type":"uint8","internalType":"uint8"},{"name":"value","type":"uint256","internalType":"uint256"}]},{"type":"error","name":"SignatureVerificationFailed","inputs":[]},{"type":"error","name":"TimestampInFuture","inputs":[]},{"type":"error","name":"TimestampOlderThanPreviousEra","inputs":[]},{"type":"error","name":"TooManyChainCommitments","inputs":[]},{"type":"error","name":"TooManyRewardsCommitments","inputs":[]},{"type":"error","name":"TooManyValidatorsCommitments","inputs":[]},{"type":"error","name":"TransferFromFailed","inputs":[]},{"type":"error","name":"UUPSUnauthorizedCallContext","inputs":[]},{"type":"error","name":"UUPSUnsupportedProxiableUUID","inputs":[{"name":"slot","type":"bytes32","internalType":"bytes32"}]},{"type":"error","name":"UnknownProgram","inputs":[]},{"type":"error","name":"ValidationBeforeGenesis","inputs":[]},{"type":"error","name":"ValidationDelayTooBig","inputs":[]},{"type":"error","name":"ValidatorsAlreadyScheduled","inputs":[]},{"type":"error","name":"ValidatorsNotFoundForTimestamp","inputs":[]},{"type":"error","name":"ZeroValueTransfer","inputs":[]}],"bytecode":{"object":"0x60a080604052346100c257306080525f516020615de85f395f51905f525460ff8160401c166100b3576002600160401b03196001600160401b03821601610060575b604051615d2190816100c78239608051818181612a4d0152612ae10152f35b6001600160401b0319166001600160401b039081175f516020615de85f395f51905f525581527fc7f505b2f371ae2175ee4913f4499e1f2633a7b5936321eed1cdaeb6115181d290602090a15f80610041565b63f92ee8a960e01b5f5260045ffd5b5f80fdfe6080806040526004361015610091575b50361561001a575f80fd5b610022613e01565b5f516020615ca15f395f51905f5254600181015415610082576001600160801b0334161561007357335f908152601a9190910160205260409020541561006457005b63821a62f560e01b5f5260045ffd5b63a1a7c6eb60e01b5f5260045ffd5b63580683f360e01b5f5260045ffd5b5f905f3560e01c9081627a32e71461366e575080630b9737ce1461363b5780630c18d277146135705780630d91bf2a146133a257806311bec80d1461336f5780631622441d14612efd578063188509e914612ecf57806328e24b3d14612ea15780632ae9c60014612e745780633644e51514612e595780633683c4d214612d9c5780633bd109fa14612d4d5780633d43b41814612cf95780633f4ba83a14612c795780634f1ef28614612aa157806352d1902d14612a3a57806353f7fd48146120885780635734c0e114611f485780635c975abb14611f195780636c2eb350146119d5578063715018a61461196c57806371a8cf2d1461193e5780637ecebe00146118e657806382bdeaad146117df5780638456cb591461176c57806384b0196e1461153b57806384d22a4f146114dd57806388f50cf0146114a45780638b1edf1e146114455780638c4ace6a146112ea5780638da5cb5b146112b55780638f381dbe1461126f5780639067088e1461122657806396a2ddfa146111f85780639eb939a81461119f578063a5d53a441461111f578063ad3cb1cc146110d6578063baaf020114610fd9578063c13911e814610f93578063c2eb812f14610bef578063ca1e781914610b9f578063cacf66ab14610b67578063d456fd5114610b31578063e3a6684f14610af2578063e6fabc0914610ab9578063ed01826214610a8f578063ed612f8c14610a57578063edc8722514610a02578063ee32004f1461081c578063f0fd702a146103d8578063f1ef31ec146103aa578063f2fde38b1461037d578063f4f20ac0146103445763facd743b0361000f5734610341576020366003190112610341576103036136c4565b600361031e5f516020615ca15f395f51905f525442906155cb565b019060018060a01b03165f52602052602060ff60405f2054166040519015158152f35b80fd5b50346103415780600319360112610341575f516020615ca15f395f51905f5254600701546040516001600160a01b039091168152602090f35b5034610341576020366003190112610341576103a761039a6136c4565b6103a2613dce565b613d5d565b80f35b50346103415780600319360112610341576020601f5f516020615ca15f395f51905f52540154604051908152f35b503461034157610140366003190112610341576103f36136c4565b602435906044356001600160401b03811161081857610416903690600401613702565b90916064359060843560ff811681036108145760e4359060ff821682036108105761043f613e01565b874915610801575f516020615ca15f395f51905f5254946001860154156107f2576019860196888a528760205260ff60408b20541661047d81613837565b6107e357895b80496107d5578083036107be5750895b82811061077757508542116107635760405160208101906001600160fb1b03841161075f576104de6020826105a9956105b29760051b8091873781010301601f1981018352826137b3565b5190209260018060a01b03861693848c527f5ab42ced628888259c08ac98db1eb0cf702fc1501344311d8b100cd1bfe4bb0060205260408c208054906001820190556040519060208201927f375d2ef9b9e33c640a295f53873dc74833c3d019f349464ce2fe8899962b809784528760408401528d6060840152608083015260a08201528860c082015260c0815261057760e0826137b3565b519020610582615793565b906040519161190160f01b83526002830152602282015260c43591604260a43592206159f5565b90929192615a77565b6001600160a01b031681810361074a57505086906105e760018060a01b0360068701541695601f601e82015491015490613b10565b93853b156107465760405163d505accf60e01b81526001600160a01b038516600482015230602482015260448101869052606481019190915260ff9190911660848201526101043560a48201526101243560c4820152818160e48183895af1610729575b506040516323b872dd60e01b81526001600160a01b039092166004830152306024830152604482019290925291602091839190829081606481015b03925af190811561071e5784916106ef575b50156106e05781835260209081526040808420805460ff19166001179055519182527f5c261a095dd5720475295dc06379921c003c22164ee6cae5cf83e76ce0a1b98591a180f35b631e4e7d0960e21b8352600483fd5b610711915060203d602011610717575b61070981836137b3565b810190613946565b5f610698565b503d6106ff565b6040513d86823e3d90fd5b81610736919493946137b3565b6107425790855f61064b565b8580fd5b8280fd5b637ba5ffb560e01b8952600452602452604487fd5b8b80fd5b632f4aa44f60e21b8a52600486905260248afd5b804980610785838686613b1d565b3514610792838686613b1d565b3590156107a3575050600101610493565b606493508c926306f2f0e760e21b8452600452602452604452fd5b635cfa404d60e11b8b52600483905260245260448afd5b6107de90613d4f565b610483565b6304c51a3360e31b8a5260048afd5b63580683f360e01b8952600489fd5b637bb2fa2f60e11b8852600488fd5b8780fd5b8680fd5b8380fd5b50346103415761012036600319011261034157610837613698565b61083f6136ae565b6084356001600160801b038116908181036109aa578460c43560ff8116810361099b5761086a613e01565b610878602435600435613e28565b6006015490936001600160a01b0390911691823b15610818576108c08480926040518093819263d505accf60e01b8352610104359060e4359060a4358a3033600489016138fc565b038183885af16109ed575b50506040516323b872dd60e01b81523360048201523060248201526001600160801b039190911660448201529160209183916064918391905af19081156109e25786916109c3575b50156109b4576001600160a01b03908116939081166109ae575033915b833b156109aa57604051635fd142bb60e11b81526001600160a01b03938416600482015292166024830152604482018490526064820152828160848183865af1801561099f57610986575b602082604051908152f35b6109918380926137b3565b61099b578161097b565b5080fd5b6040513d85823e3d90fd5b8480fd5b91610930565b631e4e7d0960e21b8552600485fd5b6109dc915060203d6020116107175761070981836137b3565b5f610913565b6040513d88823e3d90fd5b816109f7916137b3565b61074657825f6108cb565b50346103415780600319360112610341576020610a4f5f516020615ca15f395f51905f525460086004610a3542846155cb565b0154910154906001600160801b038260801c921690615524565b604051908152f35b503461034157806003193601126103415760206004610a855f516020615ca15f395f51905f525442906155cb565b0154604051908152f35b503461034157602036600319011261034157600435906003821015610341576020610a4f83613d07565b50346103415780600319360112610341575f516020615ca15f395f51905f5254600501546040516001600160a01b039091168152602090f35b5034610341578060031936011261034157604060085f516020615ca15f395f51905f525401548151906001600160801b038116825260801c6020820152f35b5034610341578060031936011261034157602065ffffffffffff60045f516020615ca15f395f51905f5254015416604051908152f35b5034610341578060031936011261034157602065ffffffffffff60025f516020615ca15f395f51905f52540154821c16604051908152f35b5034610341578060031936011261034157610beb610bd76004610bd15f516020615ca15f395f51905f525442906155cb565b01613cb4565b604051918291602083526020830190613879565b0390f35b5034610341578060031936011261034157604051610c0c8161377c565b610c14613c03565b8152604051610c2281613761565b5f8152602081015f90526020820152610c39613c03565b6040820152610c46613c81565b6060820152604051610c5781613761565b5f80825260208201526080820152610c6d613c03565b60a08201528160c08201528160e082015281610100820152816101208201528161014082015261016001525f516020615ca15f395f51905f5254610caf613c81565b50610cbc600982016159a0565b90610cc9600f82016159a0565b60088201549260405193610cdc85613798565b6001600160801b038116855260801c602085015260408401526060830152601b81015490601c810154601d82015461ffff16601e830154601f8401549160208501549360405196610d2c8861377c565b604051610d3881613732565b60018801548152600288015463ffffffff8116602083015260201c65ffffffffffff166040820152885260405198610d6f8a613761565b60038801548a52600488015465ffffffffffff1660208b015260208901998a5260405190610d9c82613732565b60058901546001600160a01b03908116835260068a01548116602084015260078a0154166040808401919091528a0191825260608a01908152610de160158a01613b55565b9860808b01998a52601601610df590613c21565b9160a08b0192835260c08b0193845260e08b019485526101008b019586526101208b019687526101408b019788526101608b019889526040519b8c9b60208d52518c815190602001528c602082015163ffffffff1690604001526040015165ffffffffffff1660608d015251805160808d01526020015165ffffffffffff1660a08c015251600160a01b6001900381511660c08c0152600160a01b6001900360208201511660e08c0152600160a01b600190039060400151166101008b0152516101208a01610280905280516001600160801b03166102a08b015260208101516001600160801b03166102c08b015260408101516102e08b01608090526103208b01610f00916138b5565b90606001519061029f198b8203016103008c0152610f1d916138b5565b975180516001600160401b03166101408b0152602001516001600160801b03166101608a01525180516101808a015260208101516101a08a0152604001516101c0890152516101e0880152516102008701525161ffff166102208601525161024085015251610260840152516102808301520390f35b50346103415760203660031901126103415760ff604060209260195f516020615ca15f395f51905f5254016004358252845220541660405190610fd581613837565b8152f35b5034610341576020366003190112610341576004356001600160401b03811161099b5761100a903690600401613702565b905f516020615ca15f395f51905f52549061102483613aa5565b9161103260405193846137b3565b83835261103e84613aa5565b602084019490601f1901368637601a869201915b81811061109d57868587604051928392602084019060208552518091526040840192915b818110611084575050500390f35b8251845285945060209384019390920191600101611076565b806110b36110ae6001938588613b1d565b613b83565b828060a01b03165f528360205260405f20546110cf8288613b41565b5201611052565b503461034157806003193601126103415750610beb6040516110f96040826137b3565b60058152640352e302e360dc1b6020820152604051918291602083526020830190613855565b50346103415780600319360112610341575f516020615ca15f395f51905f52546001600160a01b03906002906111569042906155cb565b0154166040519182915f19813b0164ffffffffff16916021830191601f8501903c80825201906040820191826040526020835261119a603f19926060830190613855565b030190f35b50346103415780600319360112610341576111b8613c03565b5060606111d560165f516020615ca15f395f51905f525401613c21565b6111f660405180926040809180518452602081015160208501520151910152565bf35b50346103415780600319360112610341576020601b5f516020615ca15f395f51905f52540154604051908152f35b5034610341576020366003190112610341576112406136c4565b601a5f516020615ca15f395f51905f5254019060018060a01b03165f52602052602060405f2054604051908152f35b503461034157602036600319011261034157600435906001600160401b0382116103415760206112ab6112a53660048601613702565b90613b97565b6040519015158152f35b50346103415780600319360112610341575f516020615c415f395f51905f52546040516001600160a01b039091168152602090f35b50346103415760a03660031901126103415760043560443560ff8116810361074657611314613e01565b824915611436575f516020615ca15f395f51905f52546001810154156114275760198101918385528260205260ff60408620541661135181613837565b611418576006820154601e9092015485926001600160a01b031691823b156108185760405163d505accf60e01b815233600482015230602480830191909152604482018490523560648083019190915260ff92909216608480830191909152913560a4820152903560c48201528390818160e48183885af1611403575b50506040516323b872dd60e01b8152336004820152306024820152604481019190915291602091839182908160648101610686565b8161140d916137b3565b61074657825f6113ce565b6304c51a3360e31b8552600485fd5b63580683f360e01b8452600484fd5b637bb2fa2f60e11b8352600483fd5b50346103415780600319360112610341575f516020615ca15f395f51905f525460018101908154611495576002015463ffffffff1640908115611486575580f35b63f7bac7b560e01b8352600483fd5b6309476b0360e41b8352600483fd5b50346103415780600319360112610341575f516020615ca15f395f51905f5254600601546040516001600160a01b039091168152602090f35b50346103415780600319360112610341576114f661397f565b50604061151360155f516020615ca15f395f51905f525401613b55565b6111f6825180926001600160801b03602080926001600160401b038151168552015116910152565b50346103415780600319360112610341576040519080825f516020615c215f395f51905f52549161156b836154ec565b808352926001811690811561174d57506001146116e3575b61158f925003836137b3565b6040519080825f516020615c615f395f51905f5254916115ae836154ec565b80835292600181169081156116c4575060011461166d575b6115da9193925093611611959403836137b3565b602061161f604051936115ed83866137b3565b8385525f368137604051968796600f60f81b885260e08589015260e0880190613855565b908682036040880152613855565b904660608601523060808601528260a086015284820360c08601528080855193848152019401925b82811061165657505050500390f35b835185528695509381019392810192600101611647565b505f516020615c615f395f51905f5283529082905f516020615d015f395f51905f525b8183106116a85750509060206115da928201016115c6565b6020919350806001915483858901015201910190918492611690565b602092506115da94915060ff191682840152151560051b8201016115c6565b505f516020615c215f395f51905f5283529082907f42ad5d3e1f2e6e70edcf6d991b8a3023d3fca8047a131592f9edb9fd9b89d57d5b81831061173157505090602061158f92820101611583565b6020919350806001915483858901015201910190918492611719565b6020925061158f94915060ff191682840152151560051b820101611583565b5034610341578060031936011261034157611785613dce565b61178d613e01565b600160ff195f516020615cc15f395f51905f525416175f516020615cc15f395f51905f52557f62e78cea01bee320cd4e420270b5ea74000d11b0c9f74754ebdbfc544b05a2586020604051338152a180f35b5034610341576020366003190112610341576004356001600160401b03811161099b57611810903690600401613702565b905f516020615ca15f395f51905f52549061182a83613aa5565b9161183860405193846137b3565b83835261184484613aa5565b602084019490601f19013686376019869201915b8181106118af57868587604051928392602084019060208552518091526040840192915b81811061188a575050500390f35b91935091602080600192865161189f81613837565b815201940191019184939261187c565b806118bd6001928487613b1d565b3588528360205260ff6040892054166118d68288613b41565b6118df82613837565b5201611858565b5034610341576020366003190112610341576020906040906001600160a01b0361190e6136c4565b1681527f5ab42ced628888259c08ac98db1eb0cf702fc1501344311d8b100cd1bfe4bb0083522054604051908152f35b5034610341578060031936011261034157602060035f516020615ca15f395f51905f52540154604051908152f35b5034610341578060031936011261034157611985613dce565b5f516020615c415f395f51905f5280546001600160a01b0319811690915581906001600160a01b03167f8be0079c531659141344cd1fd0a4f28419497f9722a3daafe3b4186f6b6457e08280a380f35b50346103415780600319360112610341576119ee613dce565b5f516020615ce15f395f51905f525460ff8160401c16908115611f04575b50611ef5575f516020615ce15f395f51905f52805468ffffffffffffffffff1916680100000000000000051790555f516020615c415f395f51905f5254611a66906001600160a01b0316611a5e615975565b6103a2615975565b611a6e6139b5565b90611a776139e2565b90611a80615975565b611a88615975565b82516001600160401b038111611df857611aaf5f516020615c215f395f51905f52546154ec565b601f8111611e91575b506020601f8211600114611e1757829394829392611e0c575b50508160011b915f199060031b1c1916175f516020615c215f395f51905f52555b81516001600160401b038111611df857611b195f516020615c615f395f51905f52546154ec565b601f8111611d9e575b50602092601f8211600114611d2557928293829392611d1a575b50508160011b915f199060031b1c1916175f516020615c615f395f51905f52555b5f516020615ca15f395f51905f5254611b74615454565b80516001830155600282019063ffffffff60208201511669ffffffffffff000000006040845493015160201b169169ffffffffffffffffffff191617179055816020604051611bc281613761565b82815201528160038201556004810165ffffffffffff19815416905561ffff6004611bed42846155cb565b01541661ffff601d8301911661ffff198254161790556004602060018060a01b036006840154166040519283809263313ce56760e01b82525afa801561099f57611c3e918491611ceb575b50613a59565b806103e8026103e881048203611cd757601e830155806101f402906101f4820403611cc357601f820155602061010091015560ff60401b195f516020615ce15f395f51905f5254165f516020615ce15f395f51905f52557fc7f505b2f371ae2175ee4913f4499e1f2633a7b5936321eed1cdaeb6115181d2602060405160058152a180f35b634e487b7160e01b83526011600452602483fd5b634e487b7160e01b84526011600452602484fd5b611d0d915060203d602011611d13575b611d0581836137b3565b810190613a40565b5f611c38565b503d611cfb565b015190505f80611b3c565b601f198216935f516020615c615f395f51905f52845280842091845b868110611d865750836001959610611d6e575b505050811b015f516020615c615f395f51905f5255611b5d565b01515f1960f88460031b161c191690555f8080611d54565b91926020600181928685015181550194019201611d41565b81811115611b22575f516020615c615f395f51905f528352611dea905f516020615d015f395f51905f5290601f840160051c9060208510611df0575b601f82910160051c0391016154d1565b5f611b22565b859150611dda565b634e487b7160e01b82526041600452602482fd5b015190505f80611ad1565b5f516020615c215f395f51905f52835280832090601f198316845b818110611e7957509583600195969710611e61575b505050811b015f516020615c215f395f51905f5255611af2565b01515f1960f88460031b161c191690555f8080611e47565b9192602060018192868b015181550194019201611e32565b81811115611ab8575f516020615c215f395f51905f528352611eef907f42ad5d3e1f2e6e70edcf6d991b8a3023d3fca8047a131592f9edb9fd9b89d57d90601f840160051c9060208510611df057601f82910160051c0391016154d1565b5f611ab8565b63f92ee8a960e01b8152600490fd5b600591506001600160401b031610155f611a0c565b5034610341578060031936011261034157602060ff5f516020615cc15f395f51905f5254166040519015158152f35b503461034157602036600319011261034157600435600381101561099b57611f6e613dce565b60205f516020615ca15f395f51905f5254019081548060101c9160ff8260081c169060ff831690611f9e81613837565b80611fe8575050505060018101809111611cc3577f60e5a0cd4e467d80fbdaaf85873a02b09330ec141877522528ce5ae2bd8825ec9160209160101b80915b55604051908152a180f35b60019192939450611ff881613837565b03612040575060018101809111611cd757916020917f60e5a0cd4e467d80fbdaaf85873a02b09330ec141877522528ce5ae2bd8825ec9360081b9061ffff1916178091611fdd565b91905060018201809211611cd757916020918361ff007f60e5a0cd4e467d80fbdaaf85873a02b09330ec141877522528ce5ae2bd8825ec95169061ffff191617178091611fdd565b503461034157610160366003190112610341576120a36136c4565b906024356001600160a01b0381169081900361099b576120c1613698565b926120ca6136ae565b9260a43560c43560843560403660e31901126108185761012435966001600160401b0388116109aa57366023890112156109aa578760040135926001600160401b03841161074257366024858b01011161074257610144356001600160401b0381116108145761213e903690600401613702565b9590935f516020615ce15f395f51905f5254986001600160401b0360ff8b60401c16159a1680159081612a32575b6001149081612a28575b159081612a1f575b50612a10576121c0908a60016001600160401b03195f516020615ce15f395f51905f525416175f516020615ce15f395f51905f52556129e0575b611a5e615975565b6121c8615975565b6121d06139b5565b6121d86139e2565b906121e1615975565b6121e9615975565b8051906001600160401b0382116129cc5781908b6122145f516020615c215f395f51905f52546154ec565b601f811161297b575b5050602090601f83116001146128ff578c926128f4575b50508160011b915f199060031b1c1916175f516020615c215f395f51905f52555b8051906001600160401b0382116128e057819061227f5f516020615c615f395f51905f52546154ec565b601f8111612884575b50602090601f8311600114612808578b926127fd575b50508160011b915f199060031b1c1916175f516020615c615f395f51905f52555b6122c7615975565b42156127ee5781156127df57818111156127d057600a6122e78383613a01565b048310156127c1576040809a81516122ff83826137b3565b60178152602081017f726f757465722e73746f726167652e526f7574657256310000000000000000008152612332613dce565b5f1991519020018a5260ff1960208b2016809e815f516020615ca15f395f51905f5255835182815260207f059eb9adf6e95b839d818142ed5bd5e498b6d95138e65c91525e93cc0f0339fc91a1612387615454565b805160018401556002830190602081015163ffffffff1686835492015160201b69ffffffffffff00000000169169ffffffffffffffffffff1916171790558351906123d182613732565b8382526001600160a01b0390811660208301819052988116949091018490526005919091018054919092166001600160a01b03199182161790915560068e01805482168717905560078e018054909116909117905570030000000000000000000000000000000260088d015561244561397f565b50895161245181613761565b639502f90081526509184e72a00060209091015260158c0180546001600160c01b0319166d09184e72a000000000009502f900179055895183908b9061249681613732565b83815260208101859052015260168c015560178b015560188a0155601d8901805461ffff191661ffff8616179055865163313ce56760e01b815290819081905a92600491602094fa9081156127b757906124f6918691611ceb5750613a59565b806103e8026103e8810482036127a357601e8a0155806101f402906101f482040361278f579061255691601f8a015561254e8751986125348a613761565b60e4358a5260208a019461010435865260243692016137d4565b933691613abc565b958051825170014551231950b75fc4402da1732fc9bebe198210918261277e575b50501561276f5751600988015551600a870155805180851b6bfe61000180600a3d393df3000161fffe8211830152600b81016015830184f09182156127625752600b860180546001600160a01b0319166001600160a01b039092169190911790559092600c85019190600d860190825b825481101561261f5782845260208085208201546001600160a01b03165f90815290869052869020805460ff191690556001016125e7565b509195949094865b8351811015612667576001906001600160a01b036126458287613b41565b5116828060a01b03165f5285602052865f208260ff1982541617905501612627565b50925092938151916001600160401b03831161274e57600160401b831161274e576020908254848455808510612733575b500190865260208620865b838110612716575050505042600e82015560206101009101556126c4575080f35b60207fc7f505b2f371ae2175ee4913f4499e1f2633a7b5936321eed1cdaeb6115181d29160ff60401b195f516020615ce15f395f51905f5254165f516020615ce15f395f51905f52555160018152a180f35b82516001600160a01b0316818301556020909201916001016126a3565b61274890848a528580858c20019103906154d1565b5f612698565b634e487b7160e01b87526041600452602487fd5b633011642584526004601cfd5b63375f0aab60e11b8452600484fd5b6127889250615b71565b5f80612577565b634e487b7160e01b85526011600452602485fd5b634e487b7160e01b86526011600452602486fd5b87513d87823e3d90fd5b63145e348f60e01b8852600488fd5b6353b2bbed60e01b8852600488fd5b63f7ba6bdb60e01b8852600488fd5b63b7d0949760e01b8852600488fd5b015190505f8061229e565b5f516020615c615f395f51905f528c52818c209250601f1984168c5b81811061286c5750908460019594939210612854575b505050811b015f516020615c615f395f51905f52556122bf565b01515f1960f88460031b161c191690555f808061283a565b92936020600181928786015181550195019301612824565b82811115612288575f516020615c615f395f51905f528c526128d2905f516020615d015f395f51905f5290601f850160051c908e602087106128d8575b50601f82910160051c0391016154d1565b5f612288565b91508e6128c1565b634e487b7160e01b8a52604160045260248afd5b015190505f80612234565b5f516020615c215f395f51905f528d52818d209250601f1984168d5b818110612963575090846001959493921061294b575b505050811b015f516020615c215f395f51905f5255612255565b01515f1960f88460031b161c191690555f8080612931565b9293602060018192878601518155019501930161291b565b8381111561221d575f516020615c215f395f51905f526129bd92528d6020812091601f860160051c91602087106129c45750601f82910160051c0391016154d1565b8b5f61221d565b91508f6128c1565b634e487b7160e01b8b52604160045260248bfd5b600160401b60ff60401b195f516020615ce15f395f51905f525416175f516020615ce15f395f51905f52556121b8565b63f92ee8a960e01b8952600489fd5b9050155f61217e565b303b159150612176565b8b915061216c565b50346103415780600319360112610341577f00000000000000000000000000000000000000000000000000000000000000006001600160a01b03163003612a925760206040515f516020615c815f395f51905f528152f35b63703e46dd60e11b8152600490fd5b50604036600319011261034157612ab66136c4565b906024356001600160401b03811161099b57612ad6903690600401613819565b916001600160a01b037f000000000000000000000000000000000000000000000000000000000000000016308114908115612c57575b50612c4857612b19613dce565b6040516352d1902d60e01b8152926001600160a01b0382169190602085600481865afa80958596612c10575b50612b5e57634c9c8ce360e01b84526004839052602484fd5b9091845f516020615c815f395f51905f528103612bfe5750823b15612bec575f516020615c815f395f51905f5280546001600160a01b031916821790557fbc7cd75a20ee27fd9adebab32041f755214dbc6bffa90cc0225b39da2e5c2d3b8480a2805115612bd357612bcf91615b94565b5080f35b505034612bdd5780f35b63b398979f60e01b8152600490fd5b634c9c8ce360e01b8452600452602483fd5b632a87526960e21b8552600452602484fd5b9095506020813d602011612c40575b81612c2c602093836137b3565b81010312612c3c5751945f612b45565b5f80fd5b3d9150612c1f565b63703e46dd60e11b8252600482fd5b5f516020615c815f395f51905f52546001600160a01b0316141590505f612b0c565b5034610341578060031936011261034157612c92613dce565b5f516020615cc15f395f51905f525460ff811615612cea5760ff19165f516020615cc15f395f51905f52557f5db9ee0a495bf2e6ff9c91a7834c1ba4fdd244a5e8aa4e537bd38aeae4b073aa6020604051338152a180f35b638dfc202b60e01b8252600482fd5b503461034157602036600319011261034157612d136136c4565b612d1b613dce565b5f516020615ca15f395f51905f525460050180546001600160a01b0319166001600160a01b0390921691909117905580f35b5034610341578060031936011261034157612d6661397f565b506040612d8a612d855f516020615ca15f395f51905f525442906155cb565b613997565b60208251918051835201516020820152f35b503461034157606036600319011261034157612db6613698565b612dbe613e01565b612dcc60243560043561429e565b506001600160a01b0390811691908116612e545750335b5f516020615ca15f395f51905f5254600501546001600160a01b0316823b1561081857604051635fd142bb60e11b81526001600160a01b03909216600483015260248201526001604482015260648101839052828160848183865af1801561099f5761098657602082604051908152f35b612de3565b50346103415780600319360112610341576020610a4f615793565b50346103415780600319360112610341576020805f516020615ca15f395f51905f52540154604051908152f35b5034610341578060031936011261034157602060015f516020615ca15f395f51905f52540154604051908152f35b50346103415780600319360112610341576020601e5f516020615ca15f395f51905f52540154604051908152f35b5034610341576060366003190112610341576001600160401b036004351161034157610100600435360360031901126103415760026024351015610341576044356001600160401b03811161099b57612f5a903690600401613702565b7f9b779b17422d0df92223018b32b4d1fa46e071723d6817e2486d003becc55f005c6133605760017f9b779b17422d0df92223018b32b4d1fa46e071723d6817e2486d003becc55f005d5f516020615ca15f395f51905f52549060018201541561142757815415613304575b600382015460446004350135036132f55765ffffffffffff60048301541665ffffffffffff612ff960246004350161396c565b16106132e75761300e60043560040183614440565b9261302360a460043501600435600401614942565b808096925060051b04602014851517156127a3576130438560051b615563565b8695865b8188106131b35750613179965060051b90209061306960043560040186614984565b61307860043560040187614d62565b9061308760246004350161396c565b9361309660646004350161395e565b9360405194602086019660043560040135885265ffffffffffff60d01b9060d01b16604087015260446004350135604687015260ff60f81b9060f81b1660668601526067850152608784015260a783015260c782015260c781526130fb60e7826137b3565b5190209283600382015565ffffffffffff61311a60246004350161396c565b1665ffffffffffff196004830154161760048201557f7ebe42360bcb182fe0a88148b081e4557c89d09aa6af8307635ac2f83e2aaa656020604051868152a165ffffffffffff61316e60246004350161396c565b1693602435916151eb565b156131a457807f9b779b17422d0df92223018b32b4d1fa46e071723d6817e2486d003becc55f005d80f35b63729d0f6b60e01b8152600490fd5b6131c760a460043501600435600401614942565b8910156132d3578860061b8101358a5260198801602052600160ff60408c2054166131f181613837565b036132c457600191602091613287838c60061b83010161321081614977565b156132a35760068d901b8301358e5260198c01855260408e20805460ff19166002179055601c8c01805461324390613d4f565b90555b8c7f460119a8f69a33ed127de517d5ea464e958ce23ef19e4420a8b92bf780bbc2c98661327284614977565b1515926040519060061b8701358152a2614977565b908b60061b01358c52825360218b208186015201970196613047565b60068d901b8301358e5260198c01855260408e20805460ff19169055613246565b636e83084760e11b8a5260048afd5b634e487b7160e01b8a52603260045260248afd5b620725b160ea1b8452600484fd5b63164b6fc360e01b8452600484fd5b61332161331560646004350161395e565b60043560040135614396565b156133515765ffffffffffff61333b60246004350161396c565b164211612fc657631ad8809560e31b8452600484fd5b637b8cb35960e01b8452600484fd5b633ee5aeb560e01b8352600483fd5b503461034157602036600319011261034157613389613dce565b600435601e5f516020615ca15f395f51905f5254015580f35b503461034157610100366003190112610341576133bd613698565b6064356001600160801b03811690818103610818578360a43560ff8116810361099b576133e8613e01565b6133f660243560043561429e565b6006015490936001600160a01b0390911691823b156108185761343d8480926040518093819263d505accf60e01b835260e4359060c435906084358a3033600489016138fc565b038183885af161355b575b50506040516323b872dd60e01b81523360048201523060248201526001600160801b039190911660448201529160209183916064918391905af1908115613550578591613531575b5015613522576001600160a01b039081169290811661351c575033905b5f516020615ca15f395f51905f5254600501546001600160a01b0316833b156109aa57604051635fd142bb60e11b81526001600160a01b0390931660048401526024830152600160448301526064820152828160848183865af1801561099f5761098657602082604051908152f35b906134ad565b631e4e7d0960e21b8452600484fd5b61354a915060203d6020116107175761070981836137b3565b5f613490565b6040513d87823e3d90fd5b81613565916137b3565b61074657825f613448565b34612c3c576080366003190112612c3c57613589613698565b6135916136ae565b9061359a613e01565b6135a8602435600435613e28565b506001600160a01b0390811691908116613635575033915b813b15612c3c57604051635fd142bb60e11b81526001600160a01b039384166004820152921660248301525f60448301819052606483018190528260848183855af191821561362a5760209261361a575b50604051908152f35b5f613624916137b3565b5f613611565b6040513d5f823e3d90fd5b916135c0565b34612c3c576020366003190112612c3c57613654613dce565b600435601f5f516020615ca15f395f51905f525401555f80f35b34612c3c575f366003190112612c3c57602090601c5f516020615ca15f395f51905f525401548152f35b604435906001600160a01b0382168203612c3c57565b606435906001600160a01b0382168203612c3c57565b600435906001600160a01b0382168203612c3c57565b35906001600160a01b0382168203612c3c57565b35906001600160801b0382168203612c3c57565b9181601f84011215612c3c578235916001600160401b038311612c3c576020808501948460051b010111612c3c57565b606081019081106001600160401b0382111761374d57604052565b634e487b7160e01b5f52604160045260245ffd5b604081019081106001600160401b0382111761374d57604052565b61018081019081106001600160401b0382111761374d57604052565b608081019081106001600160401b0382111761374d57604052565b90601f801991011681019081106001600160401b0382111761374d57604052565b9291926001600160401b03821161374d57604051916137fd601f8201601f1916602001846137b3565b829481845281830111612c3c578281602093845f960137010152565b9080601f83011215612c3c57816020613834933591016137d4565b90565b6003111561384157565b634e487b7160e01b5f52602160045260245ffd5b805180835260209291819084018484015e5f828201840152601f01601f1916010190565b90602080835192838152019201905f5b8181106138965750505090565b82516001600160a01b0316845260209384019390920191600101613889565b9060208251805183520151602082015260018060a01b036020830151166040820152608060606138f3604085015160a08386015260a0850190613879565b93015191015290565b936001600160801b0360c096929998979460ff9460e088019b60018060a01b0316885260018060a01b03166020880152166040860152606085015216608083015260a08201520152565b90816020910312612c3c57518015158103612c3c5790565b3560ff81168103612c3c5790565b3565ffffffffffff81168103612c3c5790565b6040519061398c82613761565b5f6020838281520152565b906040516139a481613761565b602060018294805484520154910152565b604051906139c46040836137b3565b600f82526e2b30b9309722aa24102937baba32b960891b6020830152565b604051906139f16040836137b3565b60018252603160f81b6020830152565b91908203918211613a0e57565b634e487b7160e01b5f52601160045260245ffd5b8115613a2c570490565b634e487b7160e01b5f52601260045260245ffd5b90816020910312612c3c575160ff81168103612c3c5790565b60ff16604d8111613a0e57600a0a90565b81810292918115918404141715613a0e57565b9190826040910312612c3c57604051613a9581613761565b6020808294803584520135910152565b6001600160401b03811161374d5760051b60200190565b929190613ac881613aa5565b93613ad660405195866137b3565b602085838152019160051b8101928311612c3c57905b828210613af857505050565b60208091613b05846136da565b815201910190613aec565b91908201809211613a0e57565b9190811015613b2d5760051b0190565b634e487b7160e01b5f52603260045260245ffd5b8051821015613b2d5760209160051b010190565b90604051613b6281613761565b91546001600160401b038116835260401c6001600160801b03166020830152565b356001600160a01b0381168103612c3c5790565b613bb05f516020615ca15f395f51905f525442906155cb565b600301905f5b838110613bc65750505050600190565b613bd46110ae828685613b1d565b6001600160a01b03165f9081526020849052604090205460ff1615613bfb57600101613bb6565b505050505f90565b60405190613c1082613732565b5f6040838281528260208201520152565b90604051613c2e81613732565b60406002829480548452600181015460208501520154910152565b60405190613c5682613798565b5f606083604051613c6681613761565b83815283602082015281528260208201528160408201520152565b60405190613c8e82613798565b815f81525f6020820152613ca0613c49565b60408201526060613caf613c49565b910152565b90604051918281549182825260208201905f5260205f20925f5b818110613ce5575050613ce3925003836137b3565b565b84546001600160a01b0316835260019485019487945060209093019201613cce565b60205f516020615ca15f395f51905f5254015490613d2481613837565b80613d30575060101c90565b90600160ff92613d3f81613837565b03613d4b5760081c1690565b1690565b5f198114613a0e5760010190565b6001600160a01b03168015613dbb575f516020615c415f395f51905f5280546001600160a01b0319811683179091556001600160a01b03167f8be0079c531659141344cd1fd0a4f28419497f9722a3daafe3b4186f6b6457e05f80a3565b631e4fbdf760e01b5f525f60045260245ffd5b5f516020615c415f395f51905f52546001600160a01b03163303613dee57565b63118cdaa760e01b5f523360045260245ffd5b60ff5f516020615cc15f395f51905f525416613e1957565b63d93c066560e01b5f5260045ffd5b9190915f516020615ca15f395f51905f52549260018401541561008257815f5260198401602052600260ff60405f205416613e6281613837565b0361428f57815f5260205260405f206040516103008101908082106001600160401b03831117612c3c576102fb916040527f6080806040526102e990816100128239f3fe60806040526004361061029f575f81527f3560e01c806336a52a18146100bb57806342129d00146100b65780635ce6c32760208201527f146100b1578063701da98e146100ac578063704ed542146100a75780637a8e0c60408201527fdd146100a257806391d5a64c1461009d5780639ce110d714610098578063affe60608201527fd0e014610093578063c60496921461008e5763e43f34330361029f5761028a5660808201527f5b610260565b610243565b61021b565b610205565b6101d2565b6101b3565b6160a08201527f0178565b610156565b610119565b346100e7575f3660031901126100e757600260c08201527f5460405160089190911c6001600160a01b03168152602090f35b5f80fd5b918160e08201527f601f840112156100e75782359167ffffffffffffffff83116100e757602083816101008201527f8601950101116100e757565b60403660031901126100e75760043567ffffffff6101208201527fffffffff81116100e7576101459036906004016100eb565b50506024358015156101408201527f1461029f575f80fd5b346100e7575f3660031901126100e757602060ff6002546101608201527f166040519015158152f35b346100e7575f3660031901126100e75760205f54606101808201527f4051908152f35b600435906fffffffffffffffffffffffffffffffff821682036101a08201527f6100e757565b346100e75760203660031901126100e7576101cc610194565b506101c08201527f61029f565b60403660031901126100e75760243567ffffffffffffffff8111616101e08201527ee7576101fe9036906004016100eb565b505061029f565b346100e7576020366102008201527f60031901121561029f575f80fd5b346100e7575f3660031901126100e75760036102208201527f546040516001600160a01b039091168152602090f35b346100e7575f366003196102408201527f01126100e7576020600154604051908152f35b346100e75760a03660031901126102608201527f6100e757610279610194565b5060443560ff81161461029f575f80fd5b3461006102808201527fe7575f3660031901121561029f575f80fd5b63e6fabc0960e01b5f5260205f606102a08201523060481b685afa156100e7575f806204817360e81b01176102c08201527f8051368280378136915af43d5f803e156102e5573d5ff35b3d5ffd00000000006102e08201525ff5908115612c3c5760018060a01b0382165f52601a84016020528060405f2055601b84016142548154613d4f565b90556040516001600160a01b03831681527f8008ec1d8798725ebfa0f2d128d52e8e717dcba6e0f786557eeee70614b02bf190602090a29190565b630e2637d160e01b5f5260045ffd5b9190915f516020615ca15f395f51905f52549260018401541561008257815f5260198401602052600260ff60405f2054166142d881613837565b0361428f57815f5260205260405f2060405160608101908082106001600160401b03831117612c3c57605a916040527f3d605080600a3d3981f3608060405263e6fabc0960e01b5f5260205f6004817381523060601b6b5afa15604c575f80805136821760208201527f80378136915af43d5f803e156048573d5ff35b3d5ffd5b5f80fd00000000000060408201525ff5908115612c3c5760018060a01b0382165f52601a84016020528060405f2055601b84016142548154613d4f565b435f1981019392908411613a0e5760ff164381106143e657505f925b838110156143c2575b505f925050565b80408281036143d45750600193505050565b156143e1575f19016143b2565b6143bb565b6143f09043613a01565b926143b2565b903590601e1981360301821215612c3c57018035906001600160401b038211612c3c57602001918160051b36038313612c3c57565b903590605e1981360301821215612c3c570190565b9060808101600161445182846143f6565b9050116149335761446281836143f6565b90501561490c57614472916143f6565b15613b2d57806144819161442b565b9161448c83806143f6565b9190928260051b9383850460201484151715613a0e576144ae85969495615563565b925f945f97601a60fe19853603019501965b888a101561486f578960051b85013586811215612c3c5785016144e281613b83565b6001600160a01b03165f90815260208a9052604090205415610064575f608082016001600160801b036145148261554f565b1615158061485c575b61484b575b6001600160a01b0361453384613b83565b604051630427a21d60e11b81526020600482015294911691610124850191906001600160801b03906145b2906001600160a01b03614570856136da565b1660248901526020840135604489015261458c60408501614d55565b151560648901526001600160a01b036145a7606086016136da565b1660848901526136ee565b1660a48601526145c460a08201614d55565b151560c486015236819003601e190160c082013581811215612c3c578201602081359101936001600160401b038211612c3c576060820236038513612c3c57819061010060e48a015252610144870193905f905b8082106148015750505060e082013590811215612c3c5701803560208201926001600160401b038211612c3c578160051b908136038513612c3c5791879594936023198785030161010488015281845260208085019385010194935f9160fe19813603015b8484106146f45750505050505050602093916001600160801b03848093039316905af190811561362a575f916146c2575b50816020916001938a0152019901986144c0565b90506020813d82116146ec575b816146dc602093836137b3565b81010312612c3c575160016146ae565b3d91506146cf565b919395979850919395601f19848203018752873582811215612c3c578301602081013582526001600160a01b0361472d604083016136da565b1660208301526060810135603e193683900301811215612c3c578101602081013591906040016001600160401b038311612c3c578236038113612c3c57829060e060408601528160e08601526101008501375f61010083850101526001600160801b0361479c608083016136ee565b16606084015260a0810135608084015260c081013563ffffffff60e01b8116809103612c3c57836020936147de60e086956101009560a060019a015201614d55565b151560c0830152601f80199101160101990197019401918a98979695939161467d565b90919460608060019288358152838060a01b0361482060208b016136da565b1660208201526001600160801b0361483a60408b016136ee565b166040820152019601920190614618565b90506148568161554f565b90614522565b5061486960a08401614977565b1561451d565b509550955095505050209060406020820135917fc630ddcf92c1a2e0d08b0e482dafa1312a9be3f7374d504c1e418a13fa84424160208351858152a10135806148dd575b604051916020830193845260408301526060820152606081526148d76080826137b3565b51902090565b7f694c1e8c673a4782b065120b25b67f4198a5f2086b6edbe3c5093a9a64cc83316020604051838152a16148b3565b5050507fc5d2460186f7233c927e7db2dcc703c0e500b653ca82273b7bfad8045d85a47090565b6306d6c38360e01b5f5260045ffd5b903590601e1981360301821215612c3c57018035906001600160401b038211612c3c57602001918160061b36038313612c3c57565b358015158103612c3c5790565b60c08201600161499482856143f6565b905011614d14576149a581846143f6565b90501561490c576149b690836143f6565b15613b2d57803590607e1981360301821215612c3c570191606083019060206149de8361396c565b91019065ffffffffffff806149f28461396c565b1691161015614d0557614a048261396c565b65ffffffffffff80600286015460201c16911610614cf657614a4a65ffffffffffff614a43614a3d82614a368761396c565b1687615588565b9361396c565b1684615588565b1115614ce7576007820154600690920180548435946001600160a01b0394851694604082019391925f91602091166044614a9083614a88898961442b565b01358b613b10565b604051948593849263095ea7b360e01b84528c600485015260248401525af190811561362a575f91614cc8575b5015614cb9575460405163394f179b60e11b81526001600160a01b03909116600482015260248101959095526020818101356044870152856064815f885af194851561362a575f95614c81575b5090614b159161442b565b91614b1f8261396c565b9260405193637fbe95b560e01b85526040600486015260a48501918035601e1982360301811215612c3c578101602081359101936001600160401b038211612c3c578160061b36038513612c3c5760606044890152819052869360c485019392915f5b818110614c4957505050836020959365ffffffffffff829484895f9601356064860152614bb8604060018060a01b0392016136da565b16608485015216602483015203925af191821561362a575f92614c13575b50614be09061396c565b6040519160208301938452604083015265ffffffffffff60d01b9060d01b166060820152604681526148d76066826137b3565b9091506020813d602011614c41575b81614c2f602093836137b3565b81010312612c3c575190614be0614bd6565b3d9150614c22565b919550919293604080600192838060a01b03614c648a6136da565b168152602089013560208201520196019101918895949392614b82565b919094506020823d602011614cb1575b81614c9e602093836137b3565b81010312612c3c57905193614b15614b0a565b3d9150614c91565b6367b9145160e01b5f5260045ffd5b614ce1915060203d6020116107175761070981836137b3565b5f614abd565b6308027f7760e31b5f5260045ffd5b637bde91e760e11b5f5260045ffd5b63087a19ab60e41b5f5260045ffd5b633249ceed60e11b5f5260045ffd5b903590601e1981360301821215612c3c57018035906001600160401b038211612c3c57602001918136038313612c3c57565b35908115158203612c3c57565b9060e081016001614d7382846143f6565b9050116151dc57614d8481836143f6565b90501561490c57614d94916143f6565b15613b2d5780359060be1981360301821215612c3c570160808101614db981836143f6565b9050156151cd5765ffffffffffff600284015460201c1691614ddb8342613a01565b614dea60168601548092613a22565b9360a08301359460018101809111613a0e5785036151be57614e0f85614e1593613a6a565b90613b10565b93614e24601782015486613a01565b42106151af57614e33906155b0565b91600583019342855410156151a057614e4b83614977565b926020810190606081019361254e614e87614e668785614d23565b9190614e7285876143f6565b949091614e7f368a613a7d565b9436916137d4565b976150e7575b50505f989798976003600489019801985b8854811015614ed5575f89815260208082208301546001600160a01b031682528b905260409020805460ff19169055600101614e9e565b5090919293949596985f5b8851811015614f21576001906001600160a01b03614efe828c613b41565b5116828060a01b03165f528a60205260405f208260ff1982541617905501614ee0565b50929598909396919497508151916001600160401b03831161374d57600160401b831161374d5760209082548484558085106150cc575b5001905f5260205f205f5b8381106150af5750505050557fa1a3b42179ad30022438a1ea333b38eaf4a7329beee5e2b8111c0dcd4e08821c6020604051868152a160c082360312612c3c576040519260a08401908482106001600160401b0383111761374d57614fd791604052614fce84614d55565b85523690613a7d565b9460208401958652356001600160401b038111612c3c57614ffb9036908401613819565b604084015235906001600160401b038211612c3c570136601f82011215612c3c5761502d903690602081359101613abc565b908160608201528260808201525115159251906020825192015192604051938493602085019660f81b8752602185015260418401526061830160208351919301905f5b81811061508d575050508152038082526148d790602001826137b3565b82516001600160a01b0316855286955060209485019490920191600101615070565b82516001600160a01b031681830155602090920191600101614f63565b6150e190845f528580855f20019103906154d1565b5f614f58565b8051906020810191825170014551231950b75fc4402da1732fc9bebe198210918261518f575b5050156151805751895551600189015580518060401b6bfe61000180600a3d393df3000161fffe8211830152600b8101601583015ff091821561517357526002880180546001600160a01b0319166001600160a01b039092169190911790555f80614e8d565b63301164255f526004601cfd5b63375f0aab60e11b5f5260045ffd5b6151999250615b71565b5f8061510d565b6333fc8f5160e21b5f5260045ffd5b6372a84ce560e11b5f5260045ffd5b6343d3f5bf60e01b5f5260045ffd5b636c2bf3db60e01b5f5260045ffd5b631d3fc6bf60e21b5f5260045ffd5b909493919365ffffffffffff600283015460201c1661520a4284615588565b61522261521c60168601548093613a6a565b83613b10565b91828410808061543e575b1561540c575083106153fe576152439083613b10565b106153ef57615253905b826155cb565b94601960f81b5f523060601b60025260165260365f2093600281101561384157806152e4575050600181036152d55715613b2d576152948161529b92614d23565b36916137d4565b9160608351036152c657826020613834940151606060408301519201519260018154910154906155e7565b632ce466bf60e01b5f5260045ffd5b6360a1ea7760e01b5f5260045ffd5b9193916001146152f75750505050505f90565b61531c90600860048796970154910154906001600160801b038260801c921690615524565b925f9260035f9201915b868110156153e45761534c6105a96153466152948460051b860186614d23565b86615b37565b6001600160a01b0381165f9081526020859052604090205460ff16615377575b506001905b01615326565b6001600160a01b03165f9081527ff02b465737fa6045c2ff53fb2df43c66916ac2166fa303264668fb2f6a1d8c0060205260409020805c156153bc5750600190615371565b9460016153ca92965d613d4f565b938585146153d8575f61536c565b50505050505050600190565b505050505050505f90565b63046bb1e560e51b5f5260045ffd5b62f4462b60e01b5f5260045ffd5b939291505042821161542f5761525392615427575b5061524d565b90505f615421565b6347860b9760e01b5f5260045ffd5b5061544d601887015485613b10565b421061522d565b61545c613c03565b5063ffffffff43116154b95765ffffffffffff42116154a15760405161548181613732565b5f815263ffffffff4316602082015265ffffffffffff4216604082015290565b6306dfcc6560e41b5f5260306004524260245260445ffd5b6306dfcc6560e41b5f5260206004524360245260445ffd5b5f5b8281106154df57505050565b5f828201556001016154d3565b90600182811c9216801561551a575b602083101461550657565b634e487b7160e01b5f52602260045260245ffd5b91607f16916154fb565b6001600160801b0380921602911661553c8183613a22565b918115613a2c5706156138345760010190565b356001600160801b0381168103612c3c5790565b6040519190601f01601f191682016001600160401b03811183821017612c3c57604052565b60166155a76138349365ffffffffffff600285015460201c1690613a01565b91015490613a22565b6155ba4282615ad7565b156155c55760090190565b600f0190565b906155d69082615ad7565b156155e157600f0190565b60090190565b92939194906155f68587615b71565b156157895782156157895770014551231950b75fc4402da1732fc9bebe19831015615789576001169061010e61562b81615563565b9160883684376002600188160160888401538760898401526002840160a984015360aa830186905260ca8301527e300046524f53542d736563703235366b312d4b454343414b3235362d76316360ea8301526303430b6160e51b61010a830152812060cc820181815290600260ec84016001815360428420809318845253604270014551231950b75fc4402da1732fc9bebe19922060801c6001600160401b0360801b8260801b16179070014551231950b75fc4402da1732fc9bebe1990600160c01b9060401c090880156153e45784601b6080945f9660209870014551231950b75fc4402da1732fc9bebe19910970014551231950b75fc4402da1732fc9bebe19038552018684015280604084015270014551231950b75fc4402da1732fc9bebe19910970014551231950b75fc4402da1732fc9bebe1903606082015282805260015afa505f51915f5260205260018060a01b0360405f20161490565b5050505050505f90565b6040515f516020615c215f395f51905f5254905f816157b1846154ec565b9182825260208201946001811690815f1461595957506001146158ee575b6157db925003826137b3565b5190206040515f516020615c615f395f51905f5254905f816157fc846154ec565b9182825260208201946001811690815f146158d2575060011461587a575b615826925003826137b3565b5190206040519060208201927f8b73c3c69bb8fe3d512ecc4cf759cc79239f7b179b0ffacaa9a75d522b39400f8452604083015260608201524660808201523060a082015260a081526148d760c0826137b3565b505f516020615c615f395f51905f525f90815290915f516020615d015f395f51905f525b8183106158b65750509060206158269282010161581a565b602091935080600191548385880101520191019091839261589e565b60ff191686525061582692151560051b8201602001905061581a565b505f516020615c215f395f51905f525f90815290917f42ad5d3e1f2e6e70edcf6d991b8a3023d3fca8047a131592f9edb9fd9b89d57d5b81831061593d5750509060206157db928201016157cf565b6020919350806001915483858801015201910190918392615925565b60ff19168652506157db92151560051b820160200190506157cf565b60ff5f516020615ce15f395f51905f525460401c161561599157565b631afcd79f60e31b5f5260045ffd5b6159a8613c49565b50600281015460058201546040519290916159e8916004916001600160a01b03166159d286613798565b6159db82613997565b8652602086015201613cb4565b6040830152606082015290565b91907f7fffffffffffffffffffffffffffffff5d576e7357a4501ddfe92f46681b20a08411615a6c579160209360809260ff5f9560405194855216868401526040830152606082015282805260015afa1561362a575f516001600160a01b03811615615a6257905f905f90565b505f906001905f90565b5050505f9160039190565b60048110156138415780615a89575050565b60018103615aa05763f645eedf60e01b5f5260045ffd5b60028103615abb575063fce698f760e01b5f5260045260245ffd5b600314615ac55750565b6335e2f38360e21b5f5260045260245ffd5b906014600e830154920154808314615b2857818184109311918215911115918190615b21575b15615b125782615b0c57505090565b14919050565b634c38ae9560e11b5f5260045ffd5b5081615afd565b63f26224af60e01b5f5260045ffd5b8151919060418303615b6757615b609250602082015190606060408401519301515f1a906159f5565b9192909190565b50505f9160029190565b6401000003d01990600790829081818009900908906401000003d0199080091490565b905f8091602081519101845af48080615c0d575b15615bc85750506040513d81523d5f602083013e60203d82010160405290565b15615bed57639996b31560e01b5f9081526001600160a01b0391909116600452602490fd5b3d15615bfe576040513d5f823e3d90fd5b63d6bda27560e01b5f5260045ffd5b503d151580615ba85750813b1515615ba856fea16a46d94261c7517cc8ff89f61c0ce93598e3c849801011dee649a6a557d1029016d09d72d40fdae2fd8ceac6b6234c7706214fd39c1cd1e609a0528c199300a16a46d94261c7517cc8ff89f61c0ce93598e3c849801011dee649a6a557d103360894a13ba1a3210667c828492db98dca3e2076cc3735a920a3ca505d382bbc5c09ca1b9b8127a4fd9f3c384aac59b661441e820e17733753ff5f2e86e1e000cd5ed15c6e187e77e9aee88184c21f4f2182ab5827cb3b7e07fbedcd63f03300f0c57e16840df040f15088dc2f81fe391c3923bec73e23a9662efc9c229c6a005f9ce34815f8e11431c7bb75a8e6886a91478f7ffc1dbb0a98dc240fddd76b75f0c57e16840df040f15088dc2f81fe391c3923bec73e23a9662efc9c229c6a00","linkReferences":{}},"methodIdentifiers":{"DOMAIN_SEPARATOR()":"3644e515","UPGRADE_INTERFACE_VERSION()":"ad3cb1cc","areValidators(address[])":"8f381dbe","bumpProtocolVersion(uint8)":"5734c0e1","codeState(bytes32)":"c13911e8","codesStates(bytes32[])":"82bdeaad","commitBatch((bytes32,uint48,bytes32,uint8,((address,bytes32,bool,address,uint128,bool,(bytes32,address,uint128)[],(bytes32,address,bytes,uint128,(bytes32,bytes4),bool)[])[],bytes32,bytes32)[],(bytes32,bool)[],((uint256,bytes32),((address,uint256)[],uint256,address),uint48)[],(bool,(uint256,uint256),bytes,address[],uint256)[]),uint8,bytes[])":"1622441d","computeSettings()":"84d22a4f","createProgram(bytes32,bytes32,address)":"3683c4d2","createProgramWithAbiInterface(bytes32,bytes32,address,address)":"0c18d277","createProgramWithAbiInterfaceAndExecutableBalance(bytes32,bytes32,address,address,uint128,uint256,uint8,bytes32,bytes32)":"ee32004f","createProgramWithExecutableBalance(bytes32,bytes32,address,uint128,uint256,uint8,bytes32,bytes32)":"0d91bf2a","eip712Domain()":"84b0196e","genesisBlockHash()":"28e24b3d","genesisTimestamp()":"cacf66ab","initialize(address,address,address,address,uint256,uint256,uint256,(uint256,uint256),bytes,address[])":"53f7fd48","isValidator(address)":"facd743b","latestCommittedBatchHash()":"71a8cf2d","latestCommittedBatchTimestamp()":"d456fd51","lookupGenesisHash()":"8b1edf1e","middleware()":"f4f20ac0","mirrorImpl()":"e6fabc09","nonces(address)":"7ecebe00","owner()":"8da5cb5b","pause()":"8456cb59","paused()":"5c975abb","programCodeId(address)":"9067088e","programsCodeIds(address[])":"baaf0201","programsCount()":"96a2ddfa","protocolVersion()":"2ae9c600","proxiableUUID()":"52d1902d","reinitialize()":"6c2eb350","renounceOwnership()":"715018a6","requestCodeValidation(bytes32,uint256,uint8,bytes32,bytes32)":"8c4ace6a","requestCodeValidationBaseFee()":"188509e9","requestCodeValidationExtraFee()":"f1ef31ec","requestCodeValidationOnBehalf(address,bytes32,bytes32[],uint256,uint8,bytes32,bytes32,uint8,bytes32,bytes32)":"f0fd702a","setMirror(address)":"3d43b418","setRequestCodeValidationBaseFee(uint256)":"11bec80d","setRequestCodeValidationExtraFee(uint256)":"0b9737ce","signingThresholdFraction()":"e3a6684f","storageView()":"c2eb812f","subProtocolVersion(uint8)":"ed018262","timelines()":"9eb939a8","transferOwnership(address)":"f2fde38b","unpause()":"3f4ba83a","upgradeToAndCall(address,bytes)":"4f1ef286","validatedCodesCount()":"007a32e7","validators()":"ca1e7819","validatorsAggregatedPublicKey()":"3bd109fa","validatorsCount()":"ed612f8c","validatorsThreshold()":"edc87225","validatorsVerifiableSecretSharingCommitment()":"a5d53a44","wrappedVara()":"88f50cf0"},"storageLayout":{"storage":[],"types":{}},"id":164}