{"abi":[{"type":"constructor","inputs":[],"stateMutability":"nonpayable"},{"type":"receive","stateMutability":"payable"},{"type":"function","name":"DOMAIN_SEPARATOR","inputs":[],"outputs":[{"name":"","type":"bytes32","internalType":"bytes32"}],"stateMutability":"view"},{"type":"function","name":"UPGRADE_INTERFACE_VERSION","inputs":[],"outputs":[{"name":"","type":"string","internalType":"string"}],"stateMutability":"view"},{"type":"function","name":"areValidators","inputs":[{"name":"_validators","type":"address[]","internalType":"address[]"}],"outputs":[{"name":"","type":"bool","internalType":"bool"}],"stateMutability":"view"},{"type":"function","name":"codeState","inputs":[{"name":"_codeId","type":"bytes32","internalType":"bytes32"}],"outputs":[{"name":"","type":"uint8","internalType":"enum Gear.CodeState"}],"stateMutability":"view"},{"type":"function","name":"codesStates","inputs":[{"name":"_codesIds","type":"bytes32[]","internalType":"bytes32[]"}],"outputs":[{"name":"","type":"uint8[]","internalType":"enum Gear.CodeState[]"}],"stateMutability":"view"},{"type":"function","name":"commitBatch","inputs":[{"name":"_batch","type":"tuple","internalType":"struct Gear.BatchCommitment","components":[{"name":"blockHash","type":"bytes32","internalType":"bytes32"},{"name":"blockTimestamp","type":"uint48","internalType":"uint48"},{"name":"previousCommittedBatchHash","type":"bytes32","internalType":"bytes32"},{"name":"expiry","type":"uint8","internalType":"uint8"},{"name":"chainCommitment","type":"tuple[]","internalType":"struct Gear.ChainCommitment[]","components":[{"name":"transitions","type":"tuple[]","internalType":"struct Gear.StateTransition[]","components":[{"name":"actorId","type":"address","internalType":"address"},{"name":"newStateHash","type":"bytes32","internalType":"bytes32"},{"name":"exited","type":"bool","internalType":"bool"},{"name":"inheritor","type":"address","internalType":"address"},{"name":"valueToReceive","type":"uint128","internalType":"uint128"},{"name":"valueToReceiveNegativeSign","type":"bool","internalType":"bool"},{"name":"valueClaims","type":"tuple[]","internalType":"struct Gear.ValueClaim[]","components":[{"name":"messageId","type":"bytes32","internalType":"bytes32"},{"name":"destination","type":"address","internalType":"address"},{"name":"value","type":"uint128","internalType":"uint128"}]},{"name":"messages","type":"tuple[]","internalType":"struct Gear.Message[]","components":[{"name":"id","type":"bytes32","internalType":"bytes32"},{"name":"destination","type":"address","internalType":"address"},{"name":"payload","type":"bytes","internalType":"bytes"},{"name":"value","type":"uint128","internalType":"uint128"},{"name":"replyDetails","type":"tuple","internalType":"struct Gear.ReplyDetails","components":[{"name":"to","type":"bytes32","internalType":"bytes32"},{"name":"code","type":"bytes4","internalType":"bytes4"}]},{"name":"call","type":"bool","internalType":"bool"}]}]},{"name":"head","type":"bytes32","internalType":"bytes32"}]},{"name":"codeCommitments","type":"tuple[]","internalType":"struct Gear.CodeCommitment[]","components":[{"name":"id","type":"bytes32","internalType":"bytes32"},{"name":"valid","type":"bool","internalType":"bool"}]},{"name":"rewardsCommitment","type":"tuple[]","internalType":"struct Gear.RewardsCommitment[]","components":[{"name":"operators","type":"tuple","internalType":"struct Gear.OperatorRewardsCommitment","components":[{"name":"amount","type":"uint256","internalType":"uint256"},{"name":"root","type":"bytes32","internalType":"bytes32"}]},{"name":"stakers","type":"tuple","internalType":"struct Gear.StakerRewardsCommitment","components":[{"name":"distribution","type":"tuple[]","internalType":"struct Gear.StakerRewards[]","components":[{"name":"vault","type":"address","internalType":"address"},{"name":"amount","type":"uint256","internalType":"uint256"}]},{"name":"totalAmount","type":"uint256","internalType":"uint256"},{"name":"token","type":"address","internalType":"address"}]},{"name":"timestamp","type":"uint48","internalType":"uint48"}]},{"name":"validatorsCommitment","type":"tuple[]","internalType":"struct Gear.ValidatorsCommitment[]","components":[{"name":"aggregatedPublicKey","type":"tuple","internalType":"struct Gear.AggregatedPublicKey","components":[{"name":"x","type":"uint256","internalType":"uint256"},{"name":"y","type":"uint256","internalType":"uint256"}]},{"name":"verifiableSecretSharingCommitment","type":"bytes","internalType":"bytes"},{"name":"validators","type":"address[]","internalType":"address[]"},{"name":"eraIndex","type":"uint256","internalType":"uint256"}]}]},{"name":"_signatureType","type":"uint8","internalType":"enum Gear.SignatureType"},{"name":"_signatures","type":"bytes[]","internalType":"bytes[]"}],"outputs":[],"stateMutability":"nonpayable"},{"type":"function","name":"computeSettings","inputs":[],"outputs":[{"name":"","type":"tuple","internalType":"struct Gear.ComputationSettings","components":[{"name":"threshold","type":"uint64","internalType":"uint64"},{"name":"wvaraPerSecond","type":"uint128","internalType":"uint128"}]}],"stateMutability":"view"},{"type":"function","name":"createProgram","inputs":[{"name":"_codeId","type":"bytes32","internalType":"bytes32"},{"name":"_salt","type":"bytes32","internalType":"bytes32"},{"name":"_overrideInitializer","type":"address","internalType":"address"}],"outputs":[{"name":"","type":"address","internalType":"address"}],"stateMutability":"nonpayable"},{"type":"function","name":"createProgramWithAbiInterface","inputs":[{"name":"_codeId","type":"bytes32","internalType":"bytes32"},{"name":"_salt","type":"bytes32","internalType":"bytes32"},{"name":"_overrideInitializer","type":"address","internalType":"address"},{"name":"_abiInterface","type":"address","internalType":"address"}],"outputs":[{"name":"","type":"address","internalType":"address"}],"stateMutability":"nonpayable"},{"type":"function","name":"createProgramWithAbiInterfaceAndValue","inputs":[{"name":"_codeId","type":"bytes32","internalType":"bytes32"},{"name":"_salt","type":"bytes32","internalType":"bytes32"},{"name":"_overrideInitializer","type":"address","internalType":"address"},{"name":"_abiInterface","type":"address","internalType":"address"},{"name":"_value","type":"uint128","internalType":"uint128"},{"name":"_deadline","type":"uint256","internalType":"uint256"},{"name":"_v","type":"uint8","internalType":"uint8"},{"name":"_r","type":"bytes32","internalType":"bytes32"},{"name":"_s","type":"bytes32","internalType":"bytes32"}],"outputs":[{"name":"","type":"address","internalType":"address"}],"stateMutability":"nonpayable"},{"type":"function","name":"createProgramWithValue","inputs":[{"name":"_codeId","type":"bytes32","internalType":"bytes32"},{"name":"_salt","type":"bytes32","internalType":"bytes32"},{"name":"_overrideInitializer","type":"address","internalType":"address"},{"name":"_value","type":"uint128","internalType":"uint128"},{"name":"_deadline","type":"uint256","internalType":"uint256"},{"name":"_v","type":"uint8","internalType":"uint8"},{"name":"_r","type":"bytes32","internalType":"bytes32"},{"name":"_s","type":"bytes32","internalType":"bytes32"}],"outputs":[{"name":"","type":"address","internalType":"address"}],"stateMutability":"nonpayable"},{"type":"function","name":"eip712Domain","inputs":[],"outputs":[{"name":"fields","type":"bytes1","internalType":"bytes1"},{"name":"name","type":"string","internalType":"string"},{"name":"version","type":"string","internalType":"string"},{"name":"chainId","type":"uint256","internalType":"uint256"},{"name":"verifyingContract","type":"address","internalType":"address"},{"name":"salt","type":"bytes32","internalType":"bytes32"},{"name":"extensions","type":"uint256[]","internalType":"uint256[]"}],"stateMutability":"view"},{"type":"function","name":"genesisBlockHash","inputs":[],"outputs":[{"name":"","type":"bytes32","internalType":"bytes32"}],"stateMutability":"view"},{"type":"function","name":"genesisTimestamp","inputs":[],"outputs":[{"name":"","type":"uint48","internalType":"uint48"}],"stateMutability":"view"},{"type":"function","name":"initialize","inputs":[{"name":"_owner","type":"address","internalType":"address"},{"name":"_mirror","type":"address","internalType":"address"},{"name":"_wrappedVara","type":"address","internalType":"address"},{"name":"_middleware","type":"address","internalType":"address"},{"name":"_eraDuration","type":"uint256","internalType":"uint256"},{"name":"_electionDuration","type":"uint256","internalType":"uint256"},{"name":"_validationDelay","type":"uint256","internalType":"uint256"},{"name":"_aggregatedPublicKey","type":"tuple","internalType":"struct Gear.AggregatedPublicKey","components":[{"name":"x","type":"uint256","internalType":"uint256"},{"name":"y","type":"uint256","internalType":"uint256"}]},{"name":"_verifiableSecretSharingCommitment","type":"bytes","internalType":"bytes"},{"name":"_validators","type":"address[]","internalType":"address[]"}],"outputs":[],"stateMutability":"nonpayable"},{"type":"function","name":"isValidator","inputs":[{"name":"_validator","type":"address","internalType":"address"}],"outputs":[{"name":"","type":"bool","internalType":"bool"}],"stateMutability":"view"},{"type":"function","name":"latestCommittedBatchHash","inputs":[],"outputs":[{"name":"","type":"bytes32","internalType":"bytes32"}],"stateMutability":"view"},{"type":"function","name":"latestCommittedBatchTimestamp","inputs":[],"outputs":[{"name":"","type":"uint48","internalType":"uint48"}],"stateMutability":"view"},{"type":"function","name":"lookupGenesisHash","inputs":[],"outputs":[],"stateMutability":"nonpayable"},{"type":"function","name":"middleware","inputs":[],"outputs":[{"name":"","type":"address","internalType":"address"}],"stateMutability":"view"},{"type":"function","name":"mirrorImpl","inputs":[],"outputs":[{"name":"","type":"address","internalType":"address"}],"stateMutability":"view"},{"type":"function","name":"owner","inputs":[],"outputs":[{"name":"","type":"address","internalType":"address"}],"stateMutability":"view"},{"type":"function","name":"pause","inputs":[],"outputs":[],"stateMutability":"nonpayable"},{"type":"function","name":"paused","inputs":[],"outputs":[{"name":"","type":"bool","internalType":"bool"}],"stateMutability":"view"},{"type":"function","name":"programCodeId","inputs":[{"name":"_programId","type":"address","internalType":"address"}],"outputs":[{"name":"","type":"bytes32","internalType":"bytes32"}],"stateMutability":"view"},{"type":"function","name":"programsCodeIds","inputs":[{"name":"_programsIds","type":"address[]","internalType":"address[]"}],"outputs":[{"name":"","type":"bytes32[]","internalType":"bytes32[]"}],"stateMutability":"view"},{"type":"function","name":"programsCount","inputs":[],"outputs":[{"name":"","type":"uint256","internalType":"uint256"}],"stateMutability":"view"},{"type":"function","name":"proxiableUUID","inputs":[],"outputs":[{"name":"","type":"bytes32","internalType":"bytes32"}],"stateMutability":"view"},{"type":"function","name":"reinitialize","inputs":[],"outputs":[],"stateMutability":"nonpayable"},{"type":"function","name":"renounceOwnership","inputs":[],"outputs":[],"stateMutability":"nonpayable"},{"type":"function","name":"requestCodeValidation","inputs":[{"name":"_codeId","type":"bytes32","internalType":"bytes32"},{"name":"_deadline","type":"uint256","internalType":"uint256"},{"name":"_v","type":"uint8","internalType":"uint8"},{"name":"_r","type":"bytes32","internalType":"bytes32"},{"name":"_s","type":"bytes32","internalType":"bytes32"}],"outputs":[],"stateMutability":"nonpayable"},{"type":"function","name":"requestCodeValidationBaseFee","inputs":[],"outputs":[{"name":"","type":"uint256","internalType":"uint256"}],"stateMutability":"view"},{"type":"function","name":"requestCodeValidationExtraFee","inputs":[],"outputs":[{"name":"","type":"uint256","internalType":"uint256"}],"stateMutability":"view"},{"type":"function","name":"requestCodeValidationOnBehalf","inputs":[{"name":"_requester","type":"address","internalType":"address"},{"name":"_codeId","type":"bytes32","internalType":"bytes32"},{"name":"_blobHashes","type":"bytes32[]","internalType":"bytes32[]"},{"name":"_deadline","type":"uint256","internalType":"uint256"},{"name":"_v1","type":"uint8","internalType":"uint8"},{"name":"_r1","type":"bytes32","internalType":"bytes32"},{"name":"_s1","type":"bytes32","internalType":"bytes32"},{"name":"_v2","type":"uint8","internalType":"uint8"},{"name":"_r2","type":"bytes32","internalType":"bytes32"},{"name":"_s2","type":"bytes32","internalType":"bytes32"}],"outputs":[],"stateMutability":"nonpayable"},{"type":"function","name":"setMirror","inputs":[{"name":"newMirror","type":"address","internalType":"address"}],"outputs":[],"stateMutability":"nonpayable"},{"type":"function","name":"setRequestCodeValidationBaseFee","inputs":[{"name":"newBaseFee","type":"uint256","internalType":"uint256"}],"outputs":[],"stateMutability":"nonpayable"},{"type":"function","name":"setRequestCodeValidationExtraFee","inputs":[{"name":"newExtraFee","type":"uint256","internalType":"uint256"}],"outputs":[],"stateMutability":"nonpayable"},{"type":"function","name":"signingThresholdFraction","inputs":[],"outputs":[{"name":"thresholdNumerator","type":"uint128","internalType":"uint128"},{"name":"thresholdDenominator","type":"uint128","internalType":"uint128"}],"stateMutability":"view"},{"type":"function","name":"storageView","inputs":[],"outputs":[{"name":"","type":"tuple","internalType":"struct IRouter.StorageView","components":[{"name":"genesisBlock","type":"tuple","internalType":"struct Gear.GenesisBlockInfo","components":[{"name":"hash","type":"bytes32","internalType":"bytes32"},{"name":"number","type":"uint32","internalType":"uint32"},{"name":"timestamp","type":"uint48","internalType":"uint48"}]},{"name":"latestCommittedBatch","type":"tuple","internalType":"struct Gear.CommittedBatchInfo","components":[{"name":"hash","type":"bytes32","internalType":"bytes32"},{"name":"timestamp","type":"uint48","internalType":"uint48"}]},{"name":"implAddresses","type":"tuple","internalType":"struct Gear.AddressBook","components":[{"name":"mirror","type":"address","internalType":"address"},{"name":"wrappedVara","type":"address","internalType":"address"},{"name":"middleware","type":"address","internalType":"address"}]},{"name":"validationSettings","type":"tuple","internalType":"struct Gear.ValidationSettingsView","components":[{"name":"thresholdNumerator","type":"uint128","internalType":"uint128"},{"name":"thresholdDenominator","type":"uint128","internalType":"uint128"},{"name":"validators0","type":"tuple","internalType":"struct Gear.ValidatorsView","components":[{"name":"aggregatedPublicKey","type":"tuple","internalType":"struct Gear.AggregatedPublicKey","components":[{"name":"x","type":"uint256","internalType":"uint256"},{"name":"y","type":"uint256","internalType":"uint256"}]},{"name":"verifiableSecretSharingCommitmentPointer","type":"address","internalType":"address"},{"name":"list","type":"address[]","internalType":"address[]"},{"name":"useFromTimestamp","type":"uint256","internalType":"uint256"}]},{"name":"validators1","type":"tuple","internalType":"struct Gear.ValidatorsView","components":[{"name":"aggregatedPublicKey","type":"tuple","internalType":"struct Gear.AggregatedPublicKey","components":[{"name":"x","type":"uint256","internalType":"uint256"},{"name":"y","type":"uint256","internalType":"uint256"}]},{"name":"verifiableSecretSharingCommitmentPointer","type":"address","internalType":"address"},{"name":"list","type":"address[]","internalType":"address[]"},{"name":"useFromTimestamp","type":"uint256","internalType":"uint256"}]}]},{"name":"computeSettings","type":"tuple","internalType":"struct Gear.ComputationSettings","components":[{"name":"threshold","type":"uint64","internalType":"uint64"},{"name":"wvaraPerSecond","type":"uint128","internalType":"uint128"}]},{"name":"timelines","type":"tuple","internalType":"struct Gear.Timelines","components":[{"name":"era","type":"uint256","internalType":"uint256"},{"name":"election","type":"uint256","internalType":"uint256"},{"name":"validationDelay","type":"uint256","internalType":"uint256"}]},{"name":"programsCount","type":"uint256","internalType":"uint256"},{"name":"validatedCodesCount","type":"uint256","internalType":"uint256"},{"name":"requestCodeValidationBaseFee","type":"uint256","internalType":"uint256"},{"name":"requestCodeValidationExtraFee","type":"uint256","internalType":"uint256"}]}],"stateMutability":"view"},{"type":"function","name":"timelines","inputs":[],"outputs":[{"name":"","type":"tuple","internalType":"struct Gear.Timelines","components":[{"name":"era","type":"uint256","internalType":"uint256"},{"name":"election","type":"uint256","internalType":"uint256"},{"name":"validationDelay","type":"uint256","internalType":"uint256"}]}],"stateMutability":"view"},{"type":"function","name":"transferOwnership","inputs":[{"name":"newOwner","type":"address","internalType":"address"}],"outputs":[],"stateMutability":"nonpayable"},{"type":"function","name":"unpause","inputs":[],"outputs":[],"stateMutability":"nonpayable"},{"type":"function","name":"upgradeToAndCall","inputs":[{"name":"newImplementation","type":"address","internalType":"address"},{"name":"data","type":"bytes","internalType":"bytes"}],"outputs":[],"stateMutability":"payable"},{"type":"function","name":"validatedCodesCount","inputs":[],"outputs":[{"name":"","type":"uint256","internalType":"uint256"}],"stateMutability":"view"},{"type":"function","name":"validators","inputs":[],"outputs":[{"name":"","type":"address[]","internalType":"address[]"}],"stateMutability":"view"},{"type":"function","name":"validatorsAggregatedPublicKey","inputs":[],"outputs":[{"name":"","type":"tuple","internalType":"struct Gear.AggregatedPublicKey","components":[{"name":"x","type":"uint256","internalType":"uint256"},{"name":"y","type":"uint256","internalType":"uint256"}]}],"stateMutability":"view"},{"type":"function","name":"validatorsCount","inputs":[],"outputs":[{"name":"","type":"uint256","internalType":"uint256"}],"stateMutability":"view"},{"type":"function","name":"validatorsThreshold","inputs":[],"outputs":[{"name":"","type":"uint256","internalType":"uint256"}],"stateMutability":"view"},{"type":"function","name":"validatorsVerifiableSecretSharingCommitment","inputs":[],"outputs":[{"name":"","type":"bytes","internalType":"bytes"}],"stateMutability":"view"},{"type":"function","name":"wrappedVara","inputs":[],"outputs":[{"name":"","type":"address","internalType":"address"}],"stateMutability":"view"},{"type":"event","name":"AnnouncesCommitted","inputs":[{"name":"head","type":"bytes32","indexed":false,"internalType":"bytes32"}],"anonymous":false},{"type":"event","name":"BatchCommitted","inputs":[{"name":"hash","type":"bytes32","indexed":false,"internalType":"bytes32"}],"anonymous":false},{"type":"event","name":"CodeGotValidated","inputs":[{"name":"codeId","type":"bytes32","indexed":false,"internalType":"bytes32"},{"name":"valid","type":"bool","indexed":true,"internalType":"bool"}],"anonymous":false},{"type":"event","name":"CodeValidationRequested","inputs":[{"name":"codeId","type":"bytes32","indexed":false,"internalType":"bytes32"}],"anonymous":false},{"type":"event","name":"ComputationSettingsChanged","inputs":[{"name":"threshold","type":"uint64","indexed":false,"internalType":"uint64"},{"name":"wvaraPerSecond","type":"uint128","indexed":false,"internalType":"uint128"}],"anonymous":false},{"type":"event","name":"EIP712DomainChanged","inputs":[],"anonymous":false},{"type":"event","name":"Initialized","inputs":[{"name":"version","type":"uint64","indexed":false,"internalType":"uint64"}],"anonymous":false},{"type":"event","name":"OwnershipTransferred","inputs":[{"name":"previousOwner","type":"address","indexed":true,"internalType":"address"},{"name":"newOwner","type":"address","indexed":true,"internalType":"address"}],"anonymous":false},{"type":"event","name":"Paused","inputs":[{"name":"account","type":"address","indexed":false,"internalType":"address"}],"anonymous":false},{"type":"event","name":"ProgramCreated","inputs":[{"name":"actorId","type":"address","indexed":false,"internalType":"address"},{"name":"codeId","type":"bytes32","indexed":true,"internalType":"bytes32"}],"anonymous":false},{"type":"event","name":"StorageSlotChanged","inputs":[{"name":"slot","type":"bytes32","indexed":false,"internalType":"bytes32"}],"anonymous":false},{"type":"event","name":"Unpaused","inputs":[{"name":"account","type":"address","indexed":false,"internalType":"address"}],"anonymous":false},{"type":"event","name":"Upgraded","inputs":[{"name":"implementation","type":"address","indexed":true,"internalType":"address"}],"anonymous":false},{"type":"event","name":"ValidatorsCommittedForEra","inputs":[{"name":"eraIndex","type":"uint256","indexed":false,"internalType":"uint256"}],"anonymous":false},{"type":"error","name":"AddressEmptyCode","inputs":[{"name":"target","type":"address","internalType":"address"}]},{"type":"error","name":"ApproveERC20Failed","inputs":[]},{"type":"error","name":"BatchTimestampNotInPast","inputs":[]},{"type":"error","name":"BatchTimestampTooEarly","inputs":[]},{"type":"error","name":"BlobNotFound","inputs":[]},{"type":"error","name":"CodeAlreadyOnValidationOrValidated","inputs":[]},{"type":"error","name":"CodeNotValidated","inputs":[]},{"type":"error","name":"CodeValidationNotRequested","inputs":[]},{"type":"error","name":"CommitmentEraNotNext","inputs":[]},{"type":"error","name":"ECDSAInvalidSignature","inputs":[]},{"type":"error","name":"ECDSAInvalidSignatureLength","inputs":[{"name":"length","type":"uint256","internalType":"uint256"}]},{"type":"error","name":"ECDSAInvalidSignatureS","inputs":[{"name":"s","type":"bytes32","internalType":"bytes32"}]},{"type":"error","name":"ERC1967InvalidImplementation","inputs":[{"name":"implementation","type":"address","internalType":"address"}]},{"type":"error","name":"ERC1967NonPayable","inputs":[]},{"type":"error","name":"ElectionNotStarted","inputs":[]},{"type":"error","name":"EmptyValidatorsList","inputs":[]},{"type":"error","name":"EnforcedPause","inputs":[]},{"type":"error","name":"EraDurationTooShort","inputs":[]},{"type":"error","name":"ErasTimestampMustNotBeEqual","inputs":[]},{"type":"error","name":"ExpectedPause","inputs":[]},{"type":"error","name":"ExpiredSignature","inputs":[{"name":"deadline","type":"uint256","internalType":"uint256"}]},{"type":"error","name":"FailedCall","inputs":[]},{"type":"error","name":"GenesisHashAlreadySet","inputs":[]},{"type":"error","name":"GenesisHashNotFound","inputs":[]},{"type":"error","name":"InvalidBlobHash","inputs":[{"name":"index","type":"uint256","internalType":"uint256"},{"name":"providedBlobHash","type":"bytes32","internalType":"bytes32"},{"name":"expectedBlobHash","type":"bytes32","internalType":"bytes32"}]},{"type":"error","name":"InvalidBlobHashesLength","inputs":[{"name":"providedLength","type":"uint256","internalType":"uint256"},{"name":"expectedLength","type":"uint256","internalType":"uint256"}]},{"type":"error","name":"InvalidElectionDuration","inputs":[]},{"type":"error","name":"InvalidFROSTAggregatedPublicKey","inputs":[]},{"type":"error","name":"InvalidFrostSignatureCount","inputs":[]},{"type":"error","name":"InvalidFrostSignatureLength","inputs":[]},{"type":"error","name":"InvalidInitialization","inputs":[]},{"type":"error","name":"InvalidPreviousCommittedBatchHash","inputs":[]},{"type":"error","name":"InvalidSigner","inputs":[{"name":"signer","type":"address","internalType":"address"},{"name":"requester","type":"address","internalType":"address"}]},{"type":"error","name":"InvalidTimestamp","inputs":[]},{"type":"error","name":"NotInitializing","inputs":[]},{"type":"error","name":"OwnableInvalidOwner","inputs":[{"name":"owner","type":"address","internalType":"address"}]},{"type":"error","name":"OwnableUnauthorizedAccount","inputs":[{"name":"account","type":"address","internalType":"address"}]},{"type":"error","name":"PredecessorBlockNotFound","inputs":[]},{"type":"error","name":"ReentrancyGuardReentrantCall","inputs":[]},{"type":"error","name":"RewardsCommitmentEraNotPrevious","inputs":[]},{"type":"error","name":"RewardsCommitmentPredatesGenesis","inputs":[]},{"type":"error","name":"RewardsCommitmentTimestampNotInPast","inputs":[]},{"type":"error","name":"RouterGenesisHashNotInitialized","inputs":[]},{"type":"error","name":"SafeCastOverflowedUintDowncast","inputs":[{"name":"bits","type":"uint8","internalType":"uint8"},{"name":"value","type":"uint256","internalType":"uint256"}]},{"type":"error","name":"SignatureVerificationFailed","inputs":[]},{"type":"error","name":"TimestampInFuture","inputs":[]},{"type":"error","name":"TimestampOlderThanPreviousEra","inputs":[]},{"type":"error","name":"TooManyChainCommitments","inputs":[]},{"type":"error","name":"TooManyRewardsCommitments","inputs":[]},{"type":"error","name":"TooManyValidatorsCommitments","inputs":[]},{"type":"error","name":"TransferFromFailed","inputs":[]},{"type":"error","name":"UUPSUnauthorizedCallContext","inputs":[]},{"type":"error","name":"UUPSUnsupportedProxiableUUID","inputs":[{"name":"slot","type":"bytes32","internalType":"bytes32"}]},{"type":"error","name":"UnknownProgram","inputs":[]},{"type":"error","name":"ValidationBeforeGenesis","inputs":[]},{"type":"error","name":"ValidationDelayTooBig","inputs":[]},{"type":"error","name":"ValidatorsAlreadyScheduled","inputs":[]},{"type":"error","name":"ValidatorsNotFoundForTimestamp","inputs":[]},{"type":"error","name":"ZeroValueTransfer","inputs":[]}],"bytecode":{"object":"0x60a080604052346100c257306080525f5160206158df5f395f51905f525460ff8160401c166100b3576002600160401b03196001600160401b03821601610060575b60405161581890816100c782396080518181816129f50152612a880152f35b6001600160401b0319166001600160401b039081175f5160206158df5f395f51905f525581527fc7f505b2f371ae2175ee4913f4499e1f2633a7b5936321eed1cdaeb6115181d290602090a15f80610041565b63f92ee8a960e01b5f5260045ffd5b5f80fdfe6080806040526004361015610091575b50361561001a575f80fd5b61002261390d565b5f5160206157985f395f51905f5254600181015415610082576001600160801b0334161561007357335f908152601a9190910160205260409020541561006457005b63821a62f560e01b5f5260045ffd5b63a1a7c6eb60e01b5f5260045ffd5b63580683f360e01b5f5260045ffd5b5f905f3560e01c9081627a32e7146131b3575080630b9737ce146131805780630c18d277146130b557806311bec80d14613082578063188509e91461305457806328e24b3d1461302657806333e0d48e14612e585780633644e51514612e3d5780633683c4d214612d805780633bd109fa14612d315780633d43b41814612cdd5780633f4ba83a14612c5d5780634f1ef28614612a4957806352d1902d146129e257806353f7fd48146121dc5780635c975abb146121ad5780636c2eb35014611c5f5780636e55012a14611a7d578063715018a614611a1457806371a8cf2d146119e657806382bdeaad146118ce5780638456cb591461185b57806384b0196e1461173357806384d22a4f146116d557806388f50cf01461169c5780638b1edf1e1461163d5780638c4ace6a146114dd5780638da5cb5b146114a85780638f381dbe146114625780639067088e1461141957806396a2ddfa146113eb5780639eb939a814611394578063a5d53a4414611314578063ad3cb1cc146112cb578063b24fcac014610e35578063baaf020114610d34578063c13911e814610cf0578063c2eb812f1461098d578063ca1e78191461093d578063cacf66ab14610905578063d456fd51146108cf578063e3a6684f14610890578063e6fabc0914610857578063ed612f8c1461081f578063edc87225146107ca578063f0fd702a146103ac578063f1ef31ec1461037e578063f2fde38b14610351578063f4f20ac0146103185763facd743b0361000f5734610315576020366003190112610315576102d7613209565b60036102f25f5160206157985f395f51905f525442906151a0565b019060018060a01b03165f52602052602060ff60405f2054166040519015158152f35b80fd5b50346103155780600319360112610315575f5160206157985f395f51905f5254600701546040516001600160a01b039091168152602090f35b50346103155760203660031901126103155761037b61036e613209565b6103766138da565b613869565b80f35b50346103155780600319360112610315576020601e5f5160206157985f395f51905f52540154604051908152f35b503461031557610140366003190112610315576103c7613209565b602435906044356001600160401b0381116107c6576103ea903690600401613358565b90916064359060843560ff811681036107c25760e4359060ff821682036107be5761041361390d565b8749156107af575f5160206157985f395f51905f5254946001860154156107a0576019860196888a528760205260ff60408b205416600381101561078c5761077d57895b804961076f578083036107585750895b82811061071157508542116106fd5760405160208101906001600160fb1b0384116106f9576104b26020826105439561054c9760051b8091873781010301601f1981018352826132c8565b5190209260405160208101907f21d22dbb6ca3344a7f7c1dfcbe01d1b3a6aad6920ebeb232f72cc411c4436b17825260018060a01b038816958660408301528c606083015260808201528860a082015260a0815261051160c0826132c8565b51902061051c61513f565b906040519161190160f01b83526002830152602282015260c43591604260a4359220615471565b909291926154f3565b6001600160a01b03168181036106e4575050869061058160018060a01b0360068701541695601e601d8201549101549061385c565b93853b156106e05760405163d505accf60e01b81526001600160a01b038516600482015230602482015260448101869052606481019190915260ff9190911660848201526101043560a48201526101243560c4820152818160e48183895af16106c3575b506040516323b872dd60e01b81526001600160a01b039092166004830152306024830152604482019290925291602091839190829081606481015b03925af19081156106b8578491610689575b501561067a5781835260209081526040808420805460ff19166001179055519182527f5c261a095dd5720475295dc06379921c003c22164ee6cae5cf83e76ce0a1b98591a180f35b631e4e7d0960e21b8352600483fd5b6106ab915060203d6020116106b1575b6106a381836132c8565b81019061349a565b5f610632565b503d610699565b6040513d86823e3d90fd5b816106d0919493946132c8565b6106dc5790855f6105e5565b8580fd5b8280fd5b637ba5ffb560e01b8952600452602452604487fd5b8b80fd5b632f4aa44f60e21b8a52600486905260248afd5b80498061071f838686613643565b351461072c838686613643565b35901561073d575050600101610467565b606493508c926306f2f0e760e21b8452600452602452604452fd5b635cfa404d60e11b8b52600483905260245260448afd5b6107789061384e565b610457565b6304c51a3360e31b8a5260048afd5b634e487b7160e01b8b52602160045260248bfd5b63580683f360e01b8952600489fd5b637bb2fa2f60e11b8852600488fd5b8780fd5b8680fd5b8380fd5b503461031557806003193601126103155760206108175f5160206157985f395f51905f5254600860046107fd42846151a0565b0154910154906001600160801b038260801c921690615114565b604051908152f35b50346103155780600319360112610315576020600461084d5f5160206157985f395f51905f525442906151a0565b0154604051908152f35b50346103155780600319360112610315575f5160206157985f395f51905f5254600501546040516001600160a01b039091168152602090f35b5034610315578060031936011261031557604060085f5160206157985f395f51905f525401548151906001600160801b038116825260801c6020820152f35b5034610315578060031936011261031557602065ffffffffffff60045f5160206157985f395f51905f5254015416604051908152f35b5034610315578060031936011261031557602065ffffffffffff60025f5160206157985f395f51905f52540154821c16604051908152f35b5034610315578060031936011261031557610989610975600461096f5f5160206157985f395f51905f525442906151a0565b016137fb565b6040519182916020835260208301906133cd565b0390f35b50346103155780600319360112610315576040516109aa81613291565b6109b2613729565b81526040516109c081613276565b5f8152602081015f905260208201526109d7613729565b60408201526109e46137c8565b60608201526040516109f581613276565b5f80825260208201526080820152610a0b613729565b60a08201528160c08201528160e08201528161010082015261012001525f5160206157985f395f51905f5254610a3f6137c8565b50610a4c6009820161541c565b90610a59600f820161541c565b60088201549260405193610a6c856132ad565b6001600160801b038116855260801c602085015260408401526060830152601b81015490601c810154601d820154601e8301549160405194610aad86613291565b604051610ab981613247565b60018601548152600286015463ffffffff8116602083015260201c65ffffffffffff166040820152865260405196610af088613276565b60038601548852600486015465ffffffffffff1660208901526020870197885260405190610b1d82613247565b60058701546001600160a01b039081168352600688015481166020840152600788015416604080840191909152880191825260608801908152610b626015880161367b565b9660808901978852601601610b7690613747565b9160a0890192835260c0890193845260e0890194855261010089019586526101208901968752604051998a9960208b5251805160208c0152602081015163ffffffff1660408c01526040015165ffffffffffff1660608b015251805160808b01526020015165ffffffffffff1660a08a015251600160a01b6001900381511660c08a0152600160a01b6001900360208201511660e08a0152600160a01b60019003906040015116610100890152516101208801610240905280516001600160801b031661026089015260208101516001600160801b031661028089015260408101516102a08901608090526102e08901610c6f91613409565b90606001519061025f19898203016102c08a0152610c8c91613409565b955180516001600160401b0316610140890152602001516001600160801b031661016088015251805161018088015260208101516101a0880152604001516101c0870152516101e08601525161020085015251610220840152516102408301520390f35b50346103155760203660031901126103155760ff604060209260195f5160206157985f395f51905f52540160043582528452205416610d326040518092613388565bf35b5034610315576020366003190112610315576004356001600160401b038111610e3157610d65903690600401613358565b905f5160206157985f395f51905f525490610d7f836135d8565b91610d8d60405193846132c8565b838352610d99846135d8565b602084019490601f1901368637601a869201915b818110610df857868587604051928392602084019060208552518091526040840192915b818110610ddf575050500390f35b8251845285945060209384019390920191600101610dd1565b80610e0e610e096001938588613643565b6136a9565b828060a01b03165f528360205260405f2054610e2a8288613667565b5201610dad565b5080fd5b5034610315576060366003190112610315576001600160401b036004351161031557610100600435360360031901126103155760026024351015610315576044356001600160401b038111610e3157610e92903690600401613358565b7f9b779b17422d0df92223018b32b4d1fa46e071723d6817e2486d003becc55f005c6112bc5760017f9b779b17422d0df92223018b32b4d1fa46e071723d6817e2486d003becc55f005d5f5160206157985f395f51905f5254906001820154156112ad57815415611251575b600382015460446004350135036112425765ffffffffffff60048301541665ffffffffffff610f3160246004350161377d565b161061123457610f4660043560040183614345565b92610f5b60a4600435016004356004016147fa565b808096925060051b046020148515171561122057610f7b8560051b615208565b8695865b8188106110eb57506110b1965060051b902090610fa160043560040186614851565b610fb060043560040187614c28565b90610fbf60246004350161377d565b93610fce60646004350161376f565b9360405194602086019660043560040135885265ffffffffffff60d01b9060d01b16604087015260446004350135604687015260ff60f81b9060f81b1660668601526067850152608784015260a783015260c782015260c7815261103360e7826132c8565b5190209283600382015565ffffffffffff61105260246004350161377d565b1665ffffffffffff196004830154161760048201557f7ebe42360bcb182fe0a88148b081e4557c89d09aa6af8307635ac2f83e2aaa656020604051868152a165ffffffffffff6110a660246004350161377d565b169360243591614eab565b156110dc57807f9b779b17422d0df92223018b32b4d1fa46e071723d6817e2486d003becc55f005d80f35b63729d0f6b60e01b8152600490fd5b6110ff60a4600435016004356004016147fa565b89101561120c578860061b8101358a526019880160205260ff60408b205416600381101561078c576001036111fd576001916020916111c28b8b8e868360061b8601019261114c8461482f565b156111de5760061b85013590525060198c01855260408e20805460ff19166002179055601c8c01805461117e9061384e565b90555b8c7f460119a8f69a33ed127de517d5ea464e958ce23ef19e4420a8b92bf780bbc2c9866111ad8461482f565b1515926040519060061b8701358152a261482f565b908b60061b01358c52825360218b208186015201970196610f7f565b60409260199160061b87013583520187522060ff198154169055611181565b636e83084760e11b8a5260048afd5b634e487b7160e01b8a52603260045260248afd5b634e487b7160e01b86526011600452602486fd5b620725b160ea1b8452600484fd5b63164b6fc360e01b8452600484fd5b61126e61126260646004350161376f565b600435600401356142b0565b1561129e5765ffffffffffff61128860246004350161377d565b164211610efe57631ad8809560e31b8452600484fd5b637b8cb35960e01b8452600484fd5b63580683f360e01b8452600484fd5b633ee5aeb560e01b8352600483fd5b5034610315578060031936011261031557506109896040516112ee6040826132c8565b60058152640352e302e360dc1b60208201526040519182916020835260208301906133a9565b50346103155780600319360112610315575f5160206157985f395f51905f52546001600160a01b039060029061134b9042906151a0565b0154166040519182915f19813b0164ffffffffff16916021830191601f8501903c80825201906040820191826040526020835261138f603f199260608301906133a9565b030190f35b50346103155780600319360112610315576113ad613729565b5060606113ca60165f5160206157985f395f51905f525401613747565b610d3260405180926040809180518452602081015160208501520151910152565b50346103155780600319360112610315576020601b5f5160206157985f395f51905f52540154604051908152f35b503461031557602036600319011261031557611433613209565b601a5f5160206157985f395f51905f5254019060018060a01b03165f52602052602060405f2054604051908152f35b503461031557602036600319011261031557600435906001600160401b03821161031557602061149e6114983660048601613358565b906136bd565b6040519015158152f35b50346103155780600319360112610315575f5160206157185f395f51905f52546040516001600160a01b039091168152602090f35b50346103155760a03660031901126103155760043560443560ff811681036106e05761150761390d565b82491561162e575f5160206157985f395f51905f52546001810154156112ad5760198101918385528260205260ff604086205416600381101561161a5761160b576006820154601d9092015485926001600160a01b031691823b156107c65760405163d505accf60e01b815233600482015230602480830191909152604482018490523560648083019190915260ff92909216608480830191909152913560a4820152903560c48201528390818160e48183885af16115f6575b50506040516323b872dd60e01b8152336004820152306024820152604481019190915291602091839182908160648101610620565b81611600916132c8565b6106e057825f6115c1565b6304c51a3360e31b8552600485fd5b634e487b7160e01b86526021600452602486fd5b637bb2fa2f60e11b8352600483fd5b50346103155780600319360112610315575f5160206157985f395f51905f52546001810190815461168d576002015463ffffffff164090811561167e575580f35b63f7bac7b560e01b8352600483fd5b6309476b0360e41b8352600483fd5b50346103155780600319360112610315575f5160206157985f395f51905f5254600601546040516001600160a01b039091168152602090f35b50346103155780600319360112610315576116ee6134b2565b50604061170b60155f5160206157985f395f51905f52540161367b565b610d32825180926001600160801b03602080926001600160401b038151168552015116910152565b50346103155780600319360112610315575f5160206157585f395f51905f52541580611845575b15611808576117ac9061176b614136565b90611774614203565b9060206117ba6040519361178883866132c8565b8385525f368137604051968796600f60f81b885260e08589015260e08801906133a9565b9086820360408801526133a9565b904660608601523060808601528260a086015284820360c08601528080855193848152019401925b8281106117f157505050500390f35b8351855286955093810193928101926001016117e2565b60405162461bcd60e51b81526020600482015260156024820152741152540dcc4c8e88155b9a5b9a5d1a585b1a5e9959605a1b6044820152606490fd5b505f5160206157f85f395f51905f52541561175a565b50346103155780600319360112610315576118746138da565b61187c61390d565b600160ff195f5160206157b85f395f51905f525416175f5160206157b85f395f51905f52557f62e78cea01bee320cd4e420270b5ea74000d11b0c9f74754ebdbfc544b05a2586020604051338152a180f35b5034610315576020366003190112610315576004356001600160401b038111610e31576118ff903690600401613358565b905f5160206157985f395f51905f525490611919836135d8565b9161192760405193846132c8565b838352611933846135d8565b602084019490601f19013686376019869201915b81811061199c57868587604051928392602084019060208552518091526040840192915b818110611979575050500390f35b919350916020808261198e6001948851613388565b01940191019184939261196b565b6119a7818386613643565b3587528260205260ff6040882054166119c08287613667565b60038210156119d25752600101611947565b634e487b7160e01b89526021600452602489fd5b5034610315578060031936011261031557602060035f5160206157985f395f51905f52540154604051908152f35b5034610315578060031936011261031557611a2d6138da565b5f5160206157185f395f51905f5280546001600160a01b0319811690915581906001600160a01b03167f8be0079c531659141344cd1fd0a4f28419497f9722a3daafe3b4186f6b6457e08280a380f35b50346103155761012036600319011261031557611a986131dd565b611aa06131f3565b6084356001600160801b03811690818103611c07578460c43560ff81168103610e3157611acb61390d565b611ad9602435600435613934565b6006015490936001600160a01b0390911691823b156107c657611b218480926040518093819263d505accf60e01b8352610104359060e4359060a4358a303360048901613450565b038183885af1611c4a575b50506040516323b872dd60e01b81523360048201523060248201526001600160801b039190911660448201529160209183916064918391905af1908115611c3f578691611c20575b5015611c11576001600160a01b0390811693908116611c0b575033915b833b15611c0757604051635fd142bb60e11b81526001600160a01b03938416600482015292166024830152604482018490526064820152828160848183865af18015611bfc57611be7575b602082604051908152f35b611bf28380926132c8565b610e315781611bdc565b6040513d85823e3d90fd5b8480fd5b91611b91565b631e4e7d0960e21b8552600485fd5b611c39915060203d6020116106b1576106a381836132c8565b5f611b74565b6040513d88823e3d90fd5b81611c54916132c8565b6106e057825f611b2c565b5034610315578060031936011261031557611c786138da565b5f5160206157d85f395f51905f525460ff8160401c16908115612198575b50612189575f5160206157d85f395f51905f52805468ffffffffffffffffff1916680100000000000000051790555f5160206157185f395f51905f5254611cf0906001600160a01b0316611ce86151bc565b6103766151bc565b611cf86134e8565b90611d01613515565b90611d0a6151bc565b611d126151bc565b82516001600160401b03811161208c57611d395f5160206156f85f395f51905f52546140fe565b601f8111612125575b506020601f82116001146120ab578293948293926120a0575b50508160011b915f199060031b1c1916175f5160206156f85f395f51905f52555b81516001600160401b03811161208c57611da35f5160206157385f395f51905f52546140fe565b601f811161201f575b50602092601f8211600114611fa657928293829392611f9b575b50508160011b915f199060031b1c1916175f5160206157385f395f51905f52555b805f5160206157585f395f51905f5255805f5160206157f85f395f51905f52555f5160206157985f395f51905f5254611e1e613ea2565b80516001830155600282019063ffffffff60208201511669ffffffffffff000000006040845493015160201b169169ffffffffffffffffffff191617179055816020604051611e6c81613276565b8281520152600381018290556004808201805465ffffffffffff19169055600682015460405163313ce56760e01b81529160209183919082906001600160a01b03165afa8015611bfc57611ec7918491611f6c575b5061358c565b90816103e8026103e881048303611f5857601d820155816101f402916101f4830403611f4457601e015560ff60401b195f5160206157d85f395f51905f5254165f5160206157d85f395f51905f52557fc7f505b2f371ae2175ee4913f4499e1f2633a7b5936321eed1cdaeb6115181d2602060405160058152a180f35b634e487b7160e01b83526011600452602483fd5b634e487b7160e01b84526011600452602484fd5b611f8e915060203d602011611f94575b611f8681836132c8565b810190613573565b5f611ec1565b503d611f7c565b015190505f80611dc6565b601f198216935f5160206157385f395f51905f52845280842091845b8681106120075750836001959610611fef575b505050811b015f5160206157385f395f51905f5255611de7565b01515f1960f88460031b161c191690555f8080611fd5565b91926020600181928685015181550194019201611fc2565b81811115611dac575f5160206157385f395f51905f52835261207e907f5f9ce34815f8e11431c7bb75a8e6886a91478f7ffc1dbb0a98dc240fddd76b7590601f840160051c9060208510612084575b601f82910160051c039101613f1f565b5f611dac565b85915061206e565b634e487b7160e01b82526041600452602482fd5b015190505f80611d5b565b5f5160206156f85f395f51905f52835280832090601f198316845b81811061210d575095836001959697106120f5575b505050811b015f5160206156f85f395f51905f5255611d7c565b01515f1960f88460031b161c191690555f80806120db565b9192602060018192868b0151815501940192016120c6565b81811115611d42575f5160206156f85f395f51905f528352612183907f42ad5d3e1f2e6e70edcf6d991b8a3023d3fca8047a131592f9edb9fd9b89d57d90601f840160051c906020851061208457601f82910160051c039101613f1f565b5f611d42565b63f92ee8a960e01b8152600490fd5b600591506001600160401b031610155f611c96565b5034610315578060031936011261031557602060ff5f5160206157b85f395f51905f5254166040519015158152f35b503461031557610160366003190112610315576121f7613209565b906024356001600160a01b03811690819003610e31576122156131dd565b9261221e6131f3565b9360a4359060843560c43560403660e31901126107c25761012435976001600160401b0389116107be573660238a0112156107be578860040135916001600160401b0383116129de57366024848c0101116129de57610144356001600160401b0381116129da57612293903690600401613358565b9690945f5160206157d85f395f51905f5254986001600160401b0360ff8b60401c16159a16801590816129d2575b60011490816129c8575b1590816129bf575b506129b057612315908a60016001600160401b03195f5160206157d85f395f51905f525416175f5160206157d85f395f51905f5255612980575b611ce86151bc565b61231d6151bc565b6123256134e8565b61232d613515565b906123366151bc565b61233e6151bc565b8051906001600160401b03821161296c578d82916123695f5160206156f85f395f51905f52546140fe565b601f8111612908575b50602091601f841160011461288c5792612881575b50508160011b915f199060031b1c1916175f5160206156f85f395f51905f52555b8051906001600160401b03821161286d578c82916123d35f5160206157385f395f51905f52546140fe565b601f8111612809575b50602091601f841160011461278d5792612782575b50508160011b915f199060031b1c1916175f5160206157385f395f51905f52555b8a5f5160206157585f395f51905f52558a5f5160206157f85f395f51905f525561243a6151bc565b4215612773578115612764578181111561275557600a61245a8383613534565b048310156127465791600493916020938c60409c8d91825161247c84826132c8565b601781528881017f726f757465722e73746f726167652e526f75746572563100000000000000000081526124ae6138da565b5f19915190200181528760ff199120169a8b5f5160206157985f395f51905f52557f059eb9adf6e95b839d818142ed5bd5e498b6d95138e65c91525e93cc0f0339fc888d8551908152a1612500613ea2565b8c6001825191015560028d019063ffffffff8a8201511669ffffffffffff000000008684549301518c1b169169ffffffffffffffffffff19161717905582519061254982613247565b8282526001600160a01b039081168983018190529781169390910183905260058c018054919092166001600160a01b03199182161790915560068b01805482168717905560078b018054909116909117905570030000000000000000000000000000000260088a01556125ba6134b2565b506509184e72a000858d516125ce81613276565b639502f900815201526015890180546001600160c01b0319166d09184e72a000000000009502f9001790558b5183908d9061260881613247565b8381528488820152015260168901556017880155601887015588519283809263313ce56760e01b82525afa90811561273c579061264b918991611f6c575061358c565b806103e8026103e88104820361272857601d850155806101f402906101f4820403612714576126b36126a96126ba9798999a600993601e8801558a519461269186613276565b60e43586526101043560208701526024369201613304565b93429636916135ef565b9301613f3a565b6126c2575080f35b60207fc7f505b2f371ae2175ee4913f4499e1f2633a7b5936321eed1cdaeb6115181d29160ff60401b195f5160206157d85f395f51905f5254165f5160206157d85f395f51905f52555160018152a180f35b634e487b7160e01b88526011600452602488fd5b634e487b7160e01b89526011600452602489fd5b87513d8a823e3d90fd5b63145e348f60e01b8b5260048bfd5b6353b2bbed60e01b8b5260048bfd5b63f7ba6bdb60e01b8b5260048bfd5b63b7d0949760e01b8b5260048bfd5b015190505f806123f1565b5f5160206157385f395f51905f5281528281209350601f198516905b8181106127f157509084600195949392106127d9575b505050811b015f5160206157385f395f51905f5255612412565b01515f1960f88460031b161c191690555f80806127bf565b929360206001819287860151815501950193016127a9565b838111156123dc575f5160206157385f395f51905f528352612867907f5f9ce34815f8e11431c7bb75a8e6886a91478f7ffc1dbb0a98dc240fddd76b7590601f860160051c906020871061208457601f82910160051c039101613f1f565b5f6123dc565b634e487b7160e01b8d52604160045260248dfd5b015190505f80612387565b5f5160206156f85f395f51905f5281528281209350601f198516905b8181106128f057509084600195949392106128d8575b505050811b015f5160206156f85f395f51905f52556123a8565b01515f1960f88460031b161c191690555f80806128be565b929360206001819287860151815501950193016128a8565b83811115612372575f5160206156f85f395f51905f528352612966907f42ad5d3e1f2e6e70edcf6d991b8a3023d3fca8047a131592f9edb9fd9b89d57d90601f860160051c906020871061208457601f82910160051c039101613f1f565b5f612372565b634e487b7160e01b8e52604160045260248efd5b600160401b60ff60401b195f5160206157d85f395f51905f525416175f5160206157d85f395f51905f525561230d565b63f92ee8a960e01b8c5260048cfd5b9050155f6122d3565b303b1591506122cb565b8b91506122c1565b8980fd5b8880fd5b50346103155780600319360112610315577f00000000000000000000000000000000000000000000000000000000000000006001600160a01b03163003612a3a5760206040515f5160206157785f395f51905f528152f35b63703e46dd60e11b8152600490fd5b50604036600319011261031557612a5e613209565b906024356001600160401b038111610e3157612a7e90369060040161333a565b6001600160a01b037f000000000000000000000000000000000000000000000000000000000000000016308114908115612c3b575b50612c2c57612ac06138da565b6040516352d1902d60e01b8152926001600160a01b0381169190602085600481865afa80958596612bf4575b50612b0557634c9c8ce360e01b84526004839052602484fd5b9091845f5160206157785f395f51905f528103612be25750813b15612bd0575f5160206157785f395f51905f5280546001600160a01b031916821790557fbc7cd75a20ee27fd9adebab32041f755214dbc6bffa90cc0225b39da2e5c2d3b8480a28151839015612bb65780836020612baa95519101845af43d15612bae573d91612b8e836132e9565b92612b9c60405194856132c8565b83523d85602085013e615699565b5080f35b606091615699565b50505034612bc15780f35b63b398979f60e01b8152600490fd5b634c9c8ce360e01b8452600452602483fd5b632a87526960e21b8552600452602484fd5b9095506020813d602011612c24575b81612c10602093836132c8565b81010312612c205751945f612aec565b5f80fd5b3d9150612c03565b63703e46dd60e11b8252600482fd5b5f5160206157785f395f51905f52546001600160a01b0316141590505f612ab3565b5034610315578060031936011261031557612c766138da565b5f5160206157b85f395f51905f525460ff811615612cce5760ff19165f5160206157b85f395f51905f52557f5db9ee0a495bf2e6ff9c91a7834c1ba4fdd244a5e8aa4e537bd38aeae4b073aa6020604051338152a180f35b638dfc202b60e01b8252600482fd5b503461031557602036600319011261031557612cf7613209565b612cff6138da565b5f5160206157985f395f51905f525460050180546001600160a01b0319166001600160a01b0390921691909117905580f35b5034610315578060031936011261031557612d4a6134b2565b506040612d6e612d695f5160206157985f395f51905f525442906151a0565b6134ca565b60208251918051835201516020820152f35b503461031557606036600319011261031557612d9a6131dd565b612da261390d565b612db0602435600435613daa565b506001600160a01b0390811691908116612e385750335b5f5160206157985f395f51905f5254600501546001600160a01b0316823b156107c657604051635fd142bb60e11b81526001600160a01b03909216600483015260248201526001604482015260648101839052828160848183865af18015611bfc57611be757602082604051908152f35b612dc7565b5034610315578060031936011261031557602061081761513f565b50346103155761010036600319011261031557612e736131dd565b6064356001600160801b038116908181036107c6578360a43560ff81168103610e3157612e9e61390d565b612eac602435600435613daa565b6006015490936001600160a01b0390911691823b156107c657612ef38480926040518093819263d505accf60e01b835260e4359060c435906084358a303360048901613450565b038183885af1613011575b50506040516323b872dd60e01b81523360048201523060248201526001600160801b039190911660448201529160209183916064918391905af1908115613006578591612fe7575b5015612fd8576001600160a01b0390811692908116612fd2575033905b5f5160206157985f395f51905f5254600501546001600160a01b0316833b15611c0757604051635fd142bb60e11b81526001600160a01b0390931660048401526024830152600160448301526064820152828160848183865af18015611bfc57611be757602082604051908152f35b90612f63565b631e4e7d0960e21b8452600484fd5b613000915060203d6020116106b1576106a381836132c8565b5f612f46565b6040513d87823e3d90fd5b8161301b916132c8565b6106e057825f612efe565b5034610315578060031936011261031557602060015f5160206157985f395f51905f52540154604051908152f35b50346103155780600319360112610315576020601d5f5160206157985f395f51905f52540154604051908152f35b50346103155760203660031901126103155761309c6138da565b600435601d5f5160206157985f395f51905f5254015580f35b34612c20576080366003190112612c20576130ce6131dd565b6130d66131f3565b906130df61390d565b6130ed602435600435613934565b506001600160a01b039081169190811661317a575033915b813b15612c2057604051635fd142bb60e11b81526001600160a01b039384166004820152921660248301525f60448301819052606483018190528260848183855af191821561316f5760209261315f575b50604051908152f35b5f613169916132c8565b5f613156565b6040513d5f823e3d90fd5b91613105565b34612c20576020366003190112612c20576131996138da565b600435601e5f5160206157985f395f51905f525401555f80f35b34612c20575f366003190112612c2057602090601c5f5160206157985f395f51905f525401548152f35b604435906001600160a01b0382168203612c2057565b606435906001600160a01b0382168203612c2057565b600435906001600160a01b0382168203612c2057565b35906001600160a01b0382168203612c2057565b35906001600160801b0382168203612c2057565b606081019081106001600160401b0382111761326257604052565b634e487b7160e01b5f52604160045260245ffd5b604081019081106001600160401b0382111761326257604052565b61014081019081106001600160401b0382111761326257604052565b608081019081106001600160401b0382111761326257604052565b90601f801991011681019081106001600160401b0382111761326257604052565b6001600160401b03811161326257601f01601f191660200190565b929192613310826132e9565b9161331e60405193846132c8565b829481845281830111612c20578281602093845f960137010152565b9080601f83011215612c205781602061335593359101613304565b90565b9181601f84011215612c20578235916001600160401b038311612c20576020808501948460051b010111612c2057565b9060038210156133955752565b634e487b7160e01b5f52602160045260245ffd5b805180835260209291819084018484015e5f828201840152601f01601f1916010190565b90602080835192838152019201905f5b8181106133ea5750505090565b82516001600160a01b03168452602093840193909201916001016133dd565b9060208251805183520151602082015260018060a01b03602083015116604082015260806060613447604085015160a08386015260a08501906133cd565b93015191015290565b936001600160801b0360c096929998979460ff9460e088019b60018060a01b0316885260018060a01b03166020880152166040860152606085015216608083015260a08201520152565b90816020910312612c2057518015158103612c205790565b604051906134bf82613276565b5f6020838281520152565b906040516134d781613276565b602060018294805484520154910152565b604051906134f76040836132c8565b600f82526e2b30b9309722aa24102937baba32b960891b6020830152565b604051906135246040836132c8565b60018252603160f81b6020830152565b9190820391821161354157565b634e487b7160e01b5f52601160045260245ffd5b811561355f570490565b634e487b7160e01b5f52601260045260245ffd5b90816020910312612c20575160ff81168103612c205790565b60ff16604d811161354157600a0a90565b8181029291811591840414171561354157565b9190826040910312612c20576040516135c881613276565b6020808294803584520135910152565b6001600160401b0381116132625760051b60200190565b9291906135fb816135d8565b9361360960405195866132c8565b602085838152019160051b8101928311612c2057905b82821061362b57505050565b602080916136388461321f565b81520191019061361f565b91908110156136535760051b0190565b634e487b7160e01b5f52603260045260245ffd5b80518210156136535760209160051b010190565b9060405161368881613276565b91546001600160401b038116835260401c6001600160801b03166020830152565b356001600160a01b0381168103612c205790565b6136d65f5160206157985f395f51905f525442906151a0565b600301905f5b8381106136ec5750505050600190565b6136fa610e09828685613643565b6001600160a01b03165f9081526020849052604090205460ff1615613721576001016136dc565b505050505f90565b6040519061373682613247565b5f6040838281528260208201520152565b9060405161375481613247565b60406002829480548452600181015460208501520154910152565b3560ff81168103612c205790565b3565ffffffffffff81168103612c205790565b6040519061379d826132ad565b5f6060836040516137ad81613276565b83815283602082015281528260208201528160408201520152565b604051906137d5826132ad565b815f81525f60208201526137e7613790565b604082015260606137f6613790565b910152565b90604051918281549182825260208201905f5260205f20925f5b81811061382c57505061382a925003836132c8565b565b84546001600160a01b0316835260019485019487945060209093019201613815565b5f1981146135415760010190565b9190820180921161354157565b6001600160a01b031680156138c7575f5160206157185f395f51905f5280546001600160a01b0319811683179091556001600160a01b03167f8be0079c531659141344cd1fd0a4f28419497f9722a3daafe3b4186f6b6457e05f80a3565b631e4fbdf760e01b5f525f60045260245ffd5b5f5160206157185f395f51905f52546001600160a01b031633036138fa57565b63118cdaa760e01b5f523360045260245ffd5b60ff5f5160206157b85f395f51905f52541661392557565b63d93c066560e01b5f5260045ffd5b9190915f5160206157985f395f51905f52549260018401541561008257815f526019840160205260ff60405f205416600381101561339557600203613d9b57815f5260205260405f206040516103008101908082106001600160401b03831117612c20576102fb916040527f6080806040526102e990816100128239f3fe60806040526004361061029f575f81527f3560e01c806336a52a18146100bb57806342129d00146100b65780635ce6c32760208201527f146100b1578063701da98e146100ac578063704ed542146100a75780637a8e0c60408201527fdd146100a257806391d5a64c1461009d5780639ce110d714610098578063affe60608201527fd0e014610093578063c60496921461008e5763e43f34330361029f5761028a5660808201527f5b610260565b610243565b61021b565b610205565b6101d2565b6101b3565b6160a08201527f0178565b610156565b610119565b346100e7575f3660031901126100e757600260c08201527f5460405160089190911c6001600160a01b03168152602090f35b5f80fd5b918160e08201527f601f840112156100e75782359167ffffffffffffffff83116100e757602083816101008201527f8601950101116100e757565b60403660031901126100e75760043567ffffffff6101208201527fffffffff81116100e7576101459036906004016100eb565b50506024358015156101408201527f1461029f575f80fd5b346100e7575f3660031901126100e757602060ff6002546101608201527f166040519015158152f35b346100e7575f3660031901126100e75760205f54606101808201527f4051908152f35b600435906fffffffffffffffffffffffffffffffff821682036101a08201527f6100e757565b346100e75760203660031901126100e7576101cc610194565b506101c08201527f61029f565b60403660031901126100e75760243567ffffffffffffffff8111616101e08201527ee7576101fe9036906004016100eb565b505061029f565b346100e7576020366102008201527f60031901121561029f575f80fd5b346100e7575f3660031901126100e75760036102208201527f546040516001600160a01b039091168152602090f35b346100e7575f366003196102408201527f01126100e7576020600154604051908152f35b346100e75760a03660031901126102608201527f6100e757610279610194565b5060443560ff81161461029f575f80fd5b3461006102808201527fe7575f3660031901121561029f575f80fd5b63e6fabc0960e01b5f5260205f606102a08201523060481b685afa156100e7575f806204817360e81b01176102c08201527f8051368280378136915af43d5f803e156102e5573d5ff35b3d5ffd00000000006102e08201525ff5908115612c205760018060a01b0382165f52601a84016020528060405f2055601b8401613d60815461384e565b90556040516001600160a01b03831681527f8008ec1d8798725ebfa0f2d128d52e8e717dcba6e0f786557eeee70614b02bf190602090a29190565b630e2637d160e01b5f5260045ffd5b9190915f5160206157985f395f51905f52549260018401541561008257815f526019840160205260ff60405f205416600381101561339557600203613d9b57815f5260205260405f2060405160608101908082106001600160401b03831117612c2057605a916040527f3d605080600a3d3981f3608060405263e6fabc0960e01b5f5260205f6004817381523060601b6b5afa15604c575f80805136821760208201527f80378136915af43d5f803e156048573d5ff35b3d5ffd5b5f80fd00000000000060408201525ff5908115612c205760018060a01b0382165f52601a84016020528060405f2055601b8401613d60815461384e565b613eaa613729565b5063ffffffff4311613f075765ffffffffffff4211613eef57604051613ecf81613247565b5f815263ffffffff4316602082015265ffffffffffff4216604082015290565b6306dfcc6560e41b5f5260306004524260245260445ffd5b6306dfcc6560e41b5f5260206004524360245260445ffd5b5f5b828110613f2d57505050565b5f82820155600101613f21565b9291908051906020810191825170014551231950b75fc4402da1732fc9bebe19821091826140ed575b5050156140de5751845551600184015580518060401b6bfe61000180600a3d393df3000161fffe8211830152600b8101601583015ff09182156140d157526002830180546001600160a01b0319166001600160a01b039092169190911790555f5b600483018054821015614002575f90815260208082208301546001600160a01b0316825260038501905260409020805460ff19169055600101613fc4565b5050925f5b845181101561404b576001906001600160a01b036140258288613667565b5116828060a01b03165f526003840160205260405f208260ff1982541617905501614007565b5092600482018151916001600160401b03831161326257600160401b83116132625760209082548484558085106140b6575b5001905f5260205f205f5b838110614099575050505060050155565b82516001600160a01b031681830155602090920191600101614088565b6140cb90845f528580855f2001910390613f1f565b5f61407d565b63301164255f526004601cfd5b63375f0aab60e11b5f5260045ffd5b6140f79250615676565b5f80613f63565b90600182811c9216801561412c575b602083101461411857565b634e487b7160e01b5f52602260045260245ffd5b91607f169161410d565b604051905f825f5160206156f85f395f51905f525491614155836140fe565b80835292600181169081156141e45750600114614179575b61382a925003836132c8565b505f5160206156f85f395f51905f525f90815290917f42ad5d3e1f2e6e70edcf6d991b8a3023d3fca8047a131592f9edb9fd9b89d57d5b8183106141c857505090602061382a9282010161416d565b60209193508060019154838589010152019101909184926141b0565b6020925061382a94915060ff191682840152151560051b82010161416d565b604051905f825f5160206157385f395f51905f525491614222836140fe565b80835292600181169081156141e457506001146142455761382a925003836132c8565b505f5160206157385f395f51905f525f90815290917f5f9ce34815f8e11431c7bb75a8e6886a91478f7ffc1dbb0a98dc240fddd76b755b81831061429457505090602061382a9282010161416d565b602091935080600191548385890101520191019091849261427c565b435f19810193929084116135415760ff1643811061430057505f925b838110156142dc575b505f925050565b80408281036142ee5750600193505050565b156142fb575f19016142cc565b6142d5565b61430a9043613534565b926142cc565b903590601e1981360301821215612c2057018035906001600160401b038211612c2057602001918160051b36038313612c2057565b906080810160016143568284614310565b9050116147eb576143678183614310565b9050156147c45761437791614310565b1561365357803590603e1981360301821215612c205701916143998380614310565b9190928260051b9383850460201484151715613541576143bb85969495615208565b925f945f97601a60fe19853603019501965b888a101561477c578960051b85013586811215612c205785016143ef816136a9565b6001600160a01b03165f90815260208a9052604090205415610064575f608082016001600160801b03614421826151e7565b16151580614769575b614758575b6001600160a01b03614440846136a9565b604051630427a21d60e11b81526020600482015294911691610124850191906001600160801b03906144bf906001600160a01b0361447d8561321f565b16602489015260208401356044890152614499604085016151fb565b151560648901526001600160a01b036144b46060860161321f565b166084890152613233565b1660a48601526144d160a082016151fb565b151560c486015236819003601e190160c082013581811215612c20578201602081359101936001600160401b038211612c20576060820236038513612c2057819061010060e48a015252610144870193905f905b80821061470e5750505060e082013590811215612c205701803560208201926001600160401b038211612c20578160051b908136038513612c205791879594936023198785030161010488015281845260208085019385010194935f9160fe19813603015b8484106146015750505050505050602093916001600160801b03848093039316905af190811561316f575f916145cf575b50816020916001938a0152019901986143cd565b90506020813d82116145f9575b816145e9602093836132c8565b81010312612c20575160016145bb565b3d91506145dc565b919395979850919395601f19848203018752873582811215612c20578301602081013582526001600160a01b0361463a6040830161321f565b1660208301526060810135603e193683900301811215612c20578101602081013591906040016001600160401b038311612c20578236038113612c2057829060e060408601528160e08601526101008501375f61010083850101526001600160801b036146a960808301613233565b16606084015260a0810135608084015260c081013563ffffffff60e01b8116809103612c2057836020936146eb60e086956101009560a060019a0152016151fb565b151560c0830152601f80199101160101990197019401918a98979695939161458a565b90919460608060019288358152838060a01b0361472d60208b0161321f565b1660208201526001600160801b0361474760408b01613233565b166040820152019601920190614525565b9050614763816151e7565b9061442f565b5061477660a0840161482f565b1561442a565b5094935095509550506020925020910135907fd04cd9af813f6f0b56e9411a6ee6a84eb5ac35a96f0c33d2e3a07d65baa8f4186020604051848152a15f5260205260405f2090565b5050507fc5d2460186f7233c927e7db2dcc703c0e500b653ca82273b7bfad8045d85a47090565b6306d6c38360e01b5f5260045ffd5b903590601e1981360301821215612c2057018035906001600160401b038211612c2057602001918160061b36038313612c2057565b358015158103612c205790565b903590605e1981360301821215612c20570190565b60c0820160016148618285614310565b905011614be7576148728184614310565b9050156147c4576148839083614310565b1561365357803590607e1981360301821215612c20570191606083019060206148ab8361377d565b91019065ffffffffffff806148bf8461377d565b1691161015614bd8576148d18261377d565b65ffffffffffff80600286015460201c16911610614bc95761491765ffffffffffff61491061490a826149038761377d565b168761522d565b9361377d565b168461522d565b1115614bba576007820154600690920180548435946001600160a01b0394851694604082019391925f9160209116604461495d83614955898961483c565b01358b61385c565b604051948593849263095ea7b360e01b84528c600485015260248401525af190811561316f575f91614b9b575b5015614b8c575460405163394f179b60e11b81526001600160a01b03909116600482015260248101959095526020818101356044870152856064815f885af194851561316f575f95614b54575b50906149e29161483c565b916149ec8261377d565b9260405193637fbe95b560e01b85526040600486015260a48501918035601e1982360301811215612c20578101602081359101936001600160401b038211612c20578160061b36038513612c205760606044890152819052869360c485019392915f5b818110614b1c57505050836020959365ffffffffffff829484895f9601356064860152614a85604060018060a01b03920161321f565b16608485015216602483015203925af191821561316f575f92614ae6575b50614aad9061377d565b6040519160208301938452604083015265ffffffffffff60d01b9060d01b16606082015260468152614ae06066826132c8565b51902090565b9091506020813d602011614b14575b81614b02602093836132c8565b81010312612c20575190614aad614aa3565b3d9150614af5565b919550919293604080600192838060a01b03614b378a61321f565b168152602089013560208201520196019101918895949392614a4f565b919094506020823d602011614b84575b81614b71602093836132c8565b81010312612c20579051936149e26149d7565b3d9150614b64565b6367b9145160e01b5f5260045ffd5b614bb4915060203d6020116106b1576106a381836132c8565b5f61498a565b6308027f7760e31b5f5260045ffd5b637bde91e760e11b5f5260045ffd5b63087a19ab60e41b5f5260045ffd5b633249ceed60e11b5f5260045ffd5b903590601e1981360301821215612c2057018035906001600160401b038211612c2057602001918136038313612c2057565b9060e081016001614c398284614310565b905011614e9c57614c4a8183614310565b9050156147c457614c5a91614310565b1561365357803590609e1981360301821215612c2057016060810190614c808282614310565b905015614e8d5765ffffffffffff600284015460201c1691614ca28342613534565b614cb160168601548092613555565b9360808401359460018101809111613541578503614e7e57614cd685614cdc9361359d565b9061385c565b93614ceb601782015486613534565b4210614e6f57614cfa90615255565b934260058601541015614e6057614d4f906040840195614d41614d49614d208988614bf6565b9190614d2c888a614310565b949091614d39368c6135b0565b943691613304565b9336916135ef565b92613f3a565b7fa1a3b42179ad30022438a1ea333b38eaf4a7329beee5e2b8111c0dcd4e08821c6020604051858152a160a082360312612c205760405193614d90856132ad565b614d9a36846135b0565b8552356001600160401b038111612c2057614db8903690840161333a565b602085015235906001600160401b038211612c20570136601f82011215612c2057614dea9036906020813591016135ef565b91826040820152816060820152519160208351930151906040519283926020840195865260408401526060830160208351919301905f5b818110614e3e57505050815203808252614ae090602001826132c8565b82516001600160a01b0316855286955060209485019490920191600101614e21565b6333fc8f5160e21b5f5260045ffd5b6372a84ce560e11b5f5260045ffd5b6343d3f5bf60e01b5f5260045ffd5b636c2bf3db60e01b5f5260045ffd5b631d3fc6bf60e21b5f5260045ffd5b909493919365ffffffffffff600283015460201c16614eca428461522d565b614ee2614edc6016860154809361359d565b8361385c565b9182841080806150fe575b156150cc575083106150be57614f03908361385c565b106150af57614f13905b826151a0565b94601960f81b5f523060601b60025260165260365f209360028110156133955780614fa457505060018103614f95571561365357614f5481614f5b92614bf6565b3691613304565b916060835103614f865782602061335594015160606040830151920151926001815491015490615270565b632ce466bf60e01b5f5260045ffd5b6360a1ea7760e01b5f5260045ffd5b919391600114614fb75750505050505f90565b614fdc90600860048796970154910154906001600160801b038260801c921690615114565b925f9260035f9201915b868110156150a45761500c610543615006614f548460051b860186614bf6565b8661563c565b6001600160a01b0381165f9081526020859052604090205460ff16615037575b506001905b01614fe6565b6001600160a01b03165f9081527ff02b465737fa6045c2ff53fb2df43c66916ac2166fa303264668fb2f6a1d8c0060205260409020805c1561507c5750600190615031565b94600161508a92965d61384e565b93858514615098575f61502c565b50505050505050600190565b505050505050505f90565b63046bb1e560e51b5f5260045ffd5b62f4462b60e01b5f5260045ffd5b93929150504282116150ef57614f13926150e7575b50614f0d565b90505f6150e1565b6347860b9760e01b5f5260045ffd5b5061510d60188701548561385c565b4210614eed565b6001600160801b0380921602911661512c8183613555565b91811561355f5706156133555760010190565b615147615553565b61514f6155aa565b6040519060208201927f8b73c3c69bb8fe3d512ecc4cf759cc79239f7b179b0ffacaa9a75d522b39400f8452604083015260608201524660808201523060a082015260a08152614ae060c0826132c8565b906151ab90826155dc565b156151b657600f0190565b60090190565b60ff5f5160206157d85f395f51905f525460401c16156151d857565b631afcd79f60e31b5f5260045ffd5b356001600160801b0381168103612c205790565b35908115158203612c2057565b6040519190601f01601f191682016001600160401b03811183821017612c2057604052565b601661524c6133559365ffffffffffff600285015460201c1690613534565b91015490613555565b61525f42826155dc565b1561526a5760090190565b600f0190565b929391949061527f8587615676565b156154125782156154125770014551231950b75fc4402da1732fc9bebe19831015615412576001169061010e6152b481615208565b9160883684376002600188160160888401538760898401526002840160a984015360aa830186905260ca8301527e300046524f53542d736563703235366b312d4b454343414b3235362d76316360ea8301526303430b6160e51b61010a830152812060cc820181815290600260ec84016001815360428420809318845253604270014551231950b75fc4402da1732fc9bebe19922060801c6001600160401b0360801b8260801b16179070014551231950b75fc4402da1732fc9bebe1990600160c01b9060401c090880156150a45784601b6080945f9660209870014551231950b75fc4402da1732fc9bebe19910970014551231950b75fc4402da1732fc9bebe19038552018684015280604084015270014551231950b75fc4402da1732fc9bebe19910970014551231950b75fc4402da1732fc9bebe1903606082015282805260015afa505f51915f5260205260018060a01b0360405f20161490565b5050505050505f90565b615424613790565b5060028101546005820154604051929091615464916004916001600160a01b031661544e866132ad565b615457826134ca565b86526020860152016137fb565b6040830152606082015290565b91907f7fffffffffffffffffffffffffffffff5d576e7357a4501ddfe92f46681b20a084116154e8579160209360809260ff5f9560405194855216868401526040830152606082015282805260015afa1561316f575f516001600160a01b038116156154de57905f905f90565b505f906001905f90565b5050505f9160039190565b60048110156133955780615505575050565b6001810361551c5763f645eedf60e01b5f5260045ffd5b60028103615537575063fce698f760e01b5f5260045260245ffd5b6003146155415750565b6335e2f38360e21b5f5260045260245ffd5b61555b614136565b805190811561556b576020012090565b50505f5160206157585f395f51905f525480156155855790565b507fc5d2460186f7233c927e7db2dcc703c0e500b653ca82273b7bfad8045d85a47090565b6155b2614203565b80519081156155c2576020012090565b50505f5160206157f85f395f51905f525480156155855790565b906014600e83015492015480831461562d57818184109311918215911115918190615626575b15615617578261561157505090565b14919050565b634c38ae9560e11b5f5260045ffd5b5081615602565b63f26224af60e01b5f5260045ffd5b815191906041830361566c576156659250602082015190606060408401519301515f1a90615471565b9192909190565b50505f9160029190565b6401000003d01990600790829081818009900908906401000003d0199080091490565b906156bd57508051156156ae57602081519101fd5b63d6bda27560e01b5f5260045ffd5b815115806156ee575b6156ce575090565b639996b31560e01b5f9081526001600160a01b0391909116600452602490fd5b50803b156156c656fea16a46d94261c7517cc8ff89f61c0ce93598e3c849801011dee649a6a557d1029016d09d72d40fdae2fd8ceac6b6234c7706214fd39c1cd1e609a0528c199300a16a46d94261c7517cc8ff89f61c0ce93598e3c849801011dee649a6a557d103a16a46d94261c7517cc8ff89f61c0ce93598e3c849801011dee649a6a557d100360894a13ba1a3210667c828492db98dca3e2076cc3735a920a3ca505d382bbc5c09ca1b9b8127a4fd9f3c384aac59b661441e820e17733753ff5f2e86e1e000cd5ed15c6e187e77e9aee88184c21f4f2182ab5827cb3b7e07fbedcd63f03300f0c57e16840df040f15088dc2f81fe391c3923bec73e23a9662efc9c229c6a00a16a46d94261c7517cc8ff89f61c0ce93598e3c849801011dee649a6a557d101f0c57e16840df040f15088dc2f81fe391c3923bec73e23a9662efc9c229c6a00","linkReferences":{}},"methodIdentifiers":{"DOMAIN_SEPARATOR()":"3644e515","UPGRADE_INTERFACE_VERSION()":"ad3cb1cc","areValidators(address[])":"8f381dbe","codeState(bytes32)":"c13911e8","codesStates(bytes32[])":"82bdeaad","commitBatch((bytes32,uint48,bytes32,uint8,((address,bytes32,bool,address,uint128,bool,(bytes32,address,uint128)[],(bytes32,address,bytes,uint128,(bytes32,bytes4),bool)[])[],bytes32)[],(bytes32,bool)[],((uint256,bytes32),((address,uint256)[],uint256,address),uint48)[],((uint256,uint256),bytes,address[],uint256)[]),uint8,bytes[])":"b24fcac0","computeSettings()":"84d22a4f","createProgram(bytes32,bytes32,address)":"3683c4d2","createProgramWithAbiInterface(bytes32,bytes32,address,address)":"0c18d277","createProgramWithAbiInterfaceAndValue(bytes32,bytes32,address,address,uint128,uint256,uint8,bytes32,bytes32)":"6e55012a","createProgramWithValue(bytes32,bytes32,address,uint128,uint256,uint8,bytes32,bytes32)":"33e0d48e","eip712Domain()":"84b0196e","genesisBlockHash()":"28e24b3d","genesisTimestamp()":"cacf66ab","initialize(address,address,address,address,uint256,uint256,uint256,(uint256,uint256),bytes,address[])":"53f7fd48","isValidator(address)":"facd743b","latestCommittedBatchHash()":"71a8cf2d","latestCommittedBatchTimestamp()":"d456fd51","lookupGenesisHash()":"8b1edf1e","middleware()":"f4f20ac0","mirrorImpl()":"e6fabc09","owner()":"8da5cb5b","pause()":"8456cb59","paused()":"5c975abb","programCodeId(address)":"9067088e","programsCodeIds(address[])":"baaf0201","programsCount()":"96a2ddfa","proxiableUUID()":"52d1902d","reinitialize()":"6c2eb350","renounceOwnership()":"715018a6","requestCodeValidation(bytes32,uint256,uint8,bytes32,bytes32)":"8c4ace6a","requestCodeValidationBaseFee()":"188509e9","requestCodeValidationExtraFee()":"f1ef31ec","requestCodeValidationOnBehalf(address,bytes32,bytes32[],uint256,uint8,bytes32,bytes32,uint8,bytes32,bytes32)":"f0fd702a","setMirror(address)":"3d43b418","setRequestCodeValidationBaseFee(uint256)":"11bec80d","setRequestCodeValidationExtraFee(uint256)":"0b9737ce","signingThresholdFraction()":"e3a6684f","storageView()":"c2eb812f","timelines()":"9eb939a8","transferOwnership(address)":"f2fde38b","unpause()":"3f4ba83a","upgradeToAndCall(address,bytes)":"4f1ef286","validatedCodesCount()":"007a32e7","validators()":"ca1e7819","validatorsAggregatedPublicKey()":"3bd109fa","validatorsCount()":"ed612f8c","validatorsThreshold()":"edc87225","validatorsVerifiableSecretSharingCommitment()":"a5d53a44","wrappedVara()":"88f50cf0"},"storageLayout":{"storage":[],"types":{}},"id":165}