{"abi":[{"type":"constructor","inputs":[],"stateMutability":"nonpayable"},{"type":"receive","stateMutability":"payable"},{"type":"function","name":"DOMAIN_SEPARATOR","inputs":[],"outputs":[{"name":"","type":"bytes32","internalType":"bytes32"}],"stateMutability":"view"},{"type":"function","name":"UPGRADE_INTERFACE_VERSION","inputs":[],"outputs":[{"name":"","type":"string","internalType":"string"}],"stateMutability":"view"},{"type":"function","name":"areValidators","inputs":[{"name":"_validators","type":"address[]","internalType":"address[]"}],"outputs":[{"name":"","type":"bool","internalType":"bool"}],"stateMutability":"view"},{"type":"function","name":"codeState","inputs":[{"name":"_codeId","type":"bytes32","internalType":"bytes32"}],"outputs":[{"name":"","type":"uint8","internalType":"enum Gear.CodeState"}],"stateMutability":"view"},{"type":"function","name":"codesStates","inputs":[{"name":"_codesIds","type":"bytes32[]","internalType":"bytes32[]"}],"outputs":[{"name":"","type":"uint8[]","internalType":"enum Gear.CodeState[]"}],"stateMutability":"view"},{"type":"function","name":"commitBatch","inputs":[{"name":"_batch","type":"tuple","internalType":"struct Gear.BatchCommitment","components":[{"name":"blockHash","type":"bytes32","internalType":"bytes32"},{"name":"blockTimestamp","type":"uint48","internalType":"uint48"},{"name":"previousCommittedBatchHash","type":"bytes32","internalType":"bytes32"},{"name":"expiry","type":"uint8","internalType":"uint8"},{"name":"chainCommitment","type":"tuple[]","internalType":"struct Gear.ChainCommitment[]","components":[{"name":"transitions","type":"tuple[]","internalType":"struct Gear.StateTransition[]","components":[{"name":"actorId","type":"address","internalType":"address"},{"name":"newStateHash","type":"bytes32","internalType":"bytes32"},{"name":"exited","type":"bool","internalType":"bool"},{"name":"inheritor","type":"address","internalType":"address"},{"name":"valueToReceive","type":"uint128","internalType":"uint128"},{"name":"valueToReceiveNegativeSign","type":"bool","internalType":"bool"},{"name":"valueClaims","type":"tuple[]","internalType":"struct Gear.ValueClaim[]","components":[{"name":"messageId","type":"bytes32","internalType":"bytes32"},{"name":"destination","type":"address","internalType":"address"},{"name":"value","type":"uint128","internalType":"uint128"}]},{"name":"messages","type":"tuple[]","internalType":"struct Gear.Message[]","components":[{"name":"id","type":"bytes32","internalType":"bytes32"},{"name":"destination","type":"address","internalType":"address"},{"name":"payload","type":"bytes","internalType":"bytes"},{"name":"value","type":"uint128","internalType":"uint128"},{"name":"replyDetails","type":"tuple","internalType":"struct Gear.ReplyDetails","components":[{"name":"to","type":"bytes32","internalType":"bytes32"},{"name":"code","type":"bytes4","internalType":"bytes4"}]},{"name":"call","type":"bool","internalType":"bool"}]}]},{"name":"head","type":"bytes32","internalType":"bytes32"}]},{"name":"codeCommitments","type":"tuple[]","internalType":"struct Gear.CodeCommitment[]","components":[{"name":"id","type":"bytes32","internalType":"bytes32"},{"name":"valid","type":"bool","internalType":"bool"}]},{"name":"rewardsCommitment","type":"tuple[]","internalType":"struct Gear.RewardsCommitment[]","components":[{"name":"operators","type":"tuple","internalType":"struct Gear.OperatorRewardsCommitment","components":[{"name":"amount","type":"uint256","internalType":"uint256"},{"name":"root","type":"bytes32","internalType":"bytes32"}]},{"name":"stakers","type":"tuple","internalType":"struct Gear.StakerRewardsCommitment","components":[{"name":"distribution","type":"tuple[]","internalType":"struct Gear.StakerRewards[]","components":[{"name":"vault","type":"address","internalType":"address"},{"name":"amount","type":"uint256","internalType":"uint256"}]},{"name":"totalAmount","type":"uint256","internalType":"uint256"},{"name":"token","type":"address","internalType":"address"}]},{"name":"timestamp","type":"uint48","internalType":"uint48"}]},{"name":"validatorsCommitment","type":"tuple[]","internalType":"struct Gear.ValidatorsCommitment[]","components":[{"name":"aggregatedPublicKey","type":"tuple","internalType":"struct Gear.AggregatedPublicKey","components":[{"name":"x","type":"uint256","internalType":"uint256"},{"name":"y","type":"uint256","internalType":"uint256"}]},{"name":"verifiableSecretSharingCommitment","type":"bytes","internalType":"bytes"},{"name":"validators","type":"address[]","internalType":"address[]"},{"name":"eraIndex","type":"uint256","internalType":"uint256"}]}]},{"name":"_signatureType","type":"uint8","internalType":"enum Gear.SignatureType"},{"name":"_signatures","type":"bytes[]","internalType":"bytes[]"}],"outputs":[],"stateMutability":"nonpayable"},{"type":"function","name":"computeSettings","inputs":[],"outputs":[{"name":"","type":"tuple","internalType":"struct Gear.ComputationSettings","components":[{"name":"threshold","type":"uint64","internalType":"uint64"},{"name":"wvaraPerSecond","type":"uint128","internalType":"uint128"}]}],"stateMutability":"view"},{"type":"function","name":"createProgram","inputs":[{"name":"_codeId","type":"bytes32","internalType":"bytes32"},{"name":"_salt","type":"bytes32","internalType":"bytes32"},{"name":"_overrideInitializer","type":"address","internalType":"address"}],"outputs":[{"name":"","type":"address","internalType":"address"}],"stateMutability":"nonpayable"},{"type":"function","name":"createProgramWithAbiInterface","inputs":[{"name":"_codeId","type":"bytes32","internalType":"bytes32"},{"name":"_salt","type":"bytes32","internalType":"bytes32"},{"name":"_overrideInitializer","type":"address","internalType":"address"},{"name":"_abiInterface","type":"address","internalType":"address"}],"outputs":[{"name":"","type":"address","internalType":"address"}],"stateMutability":"nonpayable"},{"type":"function","name":"createProgramWithAbiInterfaceAndValue","inputs":[{"name":"_codeId","type":"bytes32","internalType":"bytes32"},{"name":"_salt","type":"bytes32","internalType":"bytes32"},{"name":"_overrideInitializer","type":"address","internalType":"address"},{"name":"_abiInterface","type":"address","internalType":"address"},{"name":"_value","type":"uint128","internalType":"uint128"},{"name":"_deadline","type":"uint256","internalType":"uint256"},{"name":"_v","type":"uint8","internalType":"uint8"},{"name":"_r","type":"bytes32","internalType":"bytes32"},{"name":"_s","type":"bytes32","internalType":"bytes32"}],"outputs":[{"name":"","type":"address","internalType":"address"}],"stateMutability":"nonpayable"},{"type":"function","name":"createProgramWithValue","inputs":[{"name":"_codeId","type":"bytes32","internalType":"bytes32"},{"name":"_salt","type":"bytes32","internalType":"bytes32"},{"name":"_overrideInitializer","type":"address","internalType":"address"},{"name":"_value","type":"uint128","internalType":"uint128"},{"name":"_deadline","type":"uint256","internalType":"uint256"},{"name":"_v","type":"uint8","internalType":"uint8"},{"name":"_r","type":"bytes32","internalType":"bytes32"},{"name":"_s","type":"bytes32","internalType":"bytes32"}],"outputs":[{"name":"","type":"address","internalType":"address"}],"stateMutability":"nonpayable"},{"type":"function","name":"eip712Domain","inputs":[],"outputs":[{"name":"fields","type":"bytes1","internalType":"bytes1"},{"name":"name","type":"string","internalType":"string"},{"name":"version","type":"string","internalType":"string"},{"name":"chainId","type":"uint256","internalType":"uint256"},{"name":"verifyingContract","type":"address","internalType":"address"},{"name":"salt","type":"bytes32","internalType":"bytes32"},{"name":"extensions","type":"uint256[]","internalType":"uint256[]"}],"stateMutability":"view"},{"type":"function","name":"genesisBlockHash","inputs":[],"outputs":[{"name":"","type":"bytes32","internalType":"bytes32"}],"stateMutability":"view"},{"type":"function","name":"genesisTimestamp","inputs":[],"outputs":[{"name":"","type":"uint48","internalType":"uint48"}],"stateMutability":"view"},{"type":"function","name":"initialize","inputs":[{"name":"_owner","type":"address","internalType":"address"},{"name":"_mirror","type":"address","internalType":"address"},{"name":"_wrappedVara","type":"address","internalType":"address"},{"name":"_middleware","type":"address","internalType":"address"},{"name":"_eraDuration","type":"uint256","internalType":"uint256"},{"name":"_electionDuration","type":"uint256","internalType":"uint256"},{"name":"_validationDelay","type":"uint256","internalType":"uint256"},{"name":"_aggregatedPublicKey","type":"tuple","internalType":"struct Gear.AggregatedPublicKey","components":[{"name":"x","type":"uint256","internalType":"uint256"},{"name":"y","type":"uint256","internalType":"uint256"}]},{"name":"_verifiableSecretSharingCommitment","type":"bytes","internalType":"bytes"},{"name":"_validators","type":"address[]","internalType":"address[]"}],"outputs":[],"stateMutability":"nonpayable"},{"type":"function","name":"isValidator","inputs":[{"name":"_validator","type":"address","internalType":"address"}],"outputs":[{"name":"","type":"bool","internalType":"bool"}],"stateMutability":"view"},{"type":"function","name":"latestCommittedBatchHash","inputs":[],"outputs":[{"name":"","type":"bytes32","internalType":"bytes32"}],"stateMutability":"view"},{"type":"function","name":"latestCommittedBatchTimestamp","inputs":[],"outputs":[{"name":"","type":"uint48","internalType":"uint48"}],"stateMutability":"view"},{"type":"function","name":"lookupGenesisHash","inputs":[],"outputs":[],"stateMutability":"nonpayable"},{"type":"function","name":"middleware","inputs":[],"outputs":[{"name":"","type":"address","internalType":"address"}],"stateMutability":"view"},{"type":"function","name":"mirrorImpl","inputs":[],"outputs":[{"name":"","type":"address","internalType":"address"}],"stateMutability":"view"},{"type":"function","name":"owner","inputs":[],"outputs":[{"name":"","type":"address","internalType":"address"}],"stateMutability":"view"},{"type":"function","name":"pause","inputs":[],"outputs":[],"stateMutability":"nonpayable"},{"type":"function","name":"paused","inputs":[],"outputs":[{"name":"","type":"bool","internalType":"bool"}],"stateMutability":"view"},{"type":"function","name":"programCodeId","inputs":[{"name":"_programId","type":"address","internalType":"address"}],"outputs":[{"name":"","type":"bytes32","internalType":"bytes32"}],"stateMutability":"view"},{"type":"function","name":"programsCodeIds","inputs":[{"name":"_programsIds","type":"address[]","internalType":"address[]"}],"outputs":[{"name":"","type":"bytes32[]","internalType":"bytes32[]"}],"stateMutability":"view"},{"type":"function","name":"programsCount","inputs":[],"outputs":[{"name":"","type":"uint256","internalType":"uint256"}],"stateMutability":"view"},{"type":"function","name":"proxiableUUID","inputs":[],"outputs":[{"name":"","type":"bytes32","internalType":"bytes32"}],"stateMutability":"view"},{"type":"function","name":"reinitialize","inputs":[],"outputs":[],"stateMutability":"nonpayable"},{"type":"function","name":"renounceOwnership","inputs":[],"outputs":[],"stateMutability":"nonpayable"},{"type":"function","name":"requestCodeValidation","inputs":[{"name":"_codeId","type":"bytes32","internalType":"bytes32"},{"name":"_deadline","type":"uint256","internalType":"uint256"},{"name":"_v","type":"uint8","internalType":"uint8"},{"name":"_r","type":"bytes32","internalType":"bytes32"},{"name":"_s","type":"bytes32","internalType":"bytes32"}],"outputs":[],"stateMutability":"nonpayable"},{"type":"function","name":"requestCodeValidationBaseFee","inputs":[],"outputs":[{"name":"","type":"uint256","internalType":"uint256"}],"stateMutability":"view"},{"type":"function","name":"requestCodeValidationExtraFee","inputs":[],"outputs":[{"name":"","type":"uint256","internalType":"uint256"}],"stateMutability":"view"},{"type":"function","name":"requestCodeValidationOnBehalf","inputs":[{"name":"_requester","type":"address","internalType":"address"},{"name":"_codeId","type":"bytes32","internalType":"bytes32"},{"name":"_blobHashes","type":"bytes32[]","internalType":"bytes32[]"},{"name":"_deadline","type":"uint256","internalType":"uint256"},{"name":"_v1","type":"uint8","internalType":"uint8"},{"name":"_r1","type":"bytes32","internalType":"bytes32"},{"name":"_s1","type":"bytes32","internalType":"bytes32"},{"name":"_v2","type":"uint8","internalType":"uint8"},{"name":"_r2","type":"bytes32","internalType":"bytes32"},{"name":"_s2","type":"bytes32","internalType":"bytes32"}],"outputs":[],"stateMutability":"nonpayable"},{"type":"function","name":"setMirror","inputs":[{"name":"newMirror","type":"address","internalType":"address"}],"outputs":[],"stateMutability":"nonpayable"},{"type":"function","name":"signingThresholdFraction","inputs":[],"outputs":[{"name":"thresholdNumerator","type":"uint128","internalType":"uint128"},{"name":"thresholdDenominator","type":"uint128","internalType":"uint128"}],"stateMutability":"view"},{"type":"function","name":"storageView","inputs":[],"outputs":[{"name":"","type":"tuple","internalType":"struct IRouter.StorageView","components":[{"name":"genesisBlock","type":"tuple","internalType":"struct Gear.GenesisBlockInfo","components":[{"name":"hash","type":"bytes32","internalType":"bytes32"},{"name":"number","type":"uint32","internalType":"uint32"},{"name":"timestamp","type":"uint48","internalType":"uint48"}]},{"name":"latestCommittedBatch","type":"tuple","internalType":"struct Gear.CommittedBatchInfo","components":[{"name":"hash","type":"bytes32","internalType":"bytes32"},{"name":"timestamp","type":"uint48","internalType":"uint48"}]},{"name":"implAddresses","type":"tuple","internalType":"struct Gear.AddressBook","components":[{"name":"mirror","type":"address","internalType":"address"},{"name":"wrappedVara","type":"address","internalType":"address"},{"name":"middleware","type":"address","internalType":"address"}]},{"name":"validationSettings","type":"tuple","internalType":"struct Gear.ValidationSettingsView","components":[{"name":"thresholdNumerator","type":"uint128","internalType":"uint128"},{"name":"thresholdDenominator","type":"uint128","internalType":"uint128"},{"name":"validators0","type":"tuple","internalType":"struct Gear.ValidatorsView","components":[{"name":"aggregatedPublicKey","type":"tuple","internalType":"struct Gear.AggregatedPublicKey","components":[{"name":"x","type":"uint256","internalType":"uint256"},{"name":"y","type":"uint256","internalType":"uint256"}]},{"name":"verifiableSecretSharingCommitmentPointer","type":"address","internalType":"address"},{"name":"list","type":"address[]","internalType":"address[]"},{"name":"useFromTimestamp","type":"uint256","internalType":"uint256"}]},{"name":"validators1","type":"tuple","internalType":"struct Gear.ValidatorsView","components":[{"name":"aggregatedPublicKey","type":"tuple","internalType":"struct Gear.AggregatedPublicKey","components":[{"name":"x","type":"uint256","internalType":"uint256"},{"name":"y","type":"uint256","internalType":"uint256"}]},{"name":"verifiableSecretSharingCommitmentPointer","type":"address","internalType":"address"},{"name":"list","type":"address[]","internalType":"address[]"},{"name":"useFromTimestamp","type":"uint256","internalType":"uint256"}]}]},{"name":"computeSettings","type":"tuple","internalType":"struct Gear.ComputationSettings","components":[{"name":"threshold","type":"uint64","internalType":"uint64"},{"name":"wvaraPerSecond","type":"uint128","internalType":"uint128"}]},{"name":"timelines","type":"tuple","internalType":"struct Gear.Timelines","components":[{"name":"era","type":"uint256","internalType":"uint256"},{"name":"election","type":"uint256","internalType":"uint256"},{"name":"validationDelay","type":"uint256","internalType":"uint256"}]},{"name":"programsCount","type":"uint256","internalType":"uint256"},{"name":"validatedCodesCount","type":"uint256","internalType":"uint256"},{"name":"requestCodeValidationBaseFee","type":"uint256","internalType":"uint256"},{"name":"requestCodeValidationExtraFee","type":"uint256","internalType":"uint256"}]}],"stateMutability":"view"},{"type":"function","name":"timelines","inputs":[],"outputs":[{"name":"","type":"tuple","internalType":"struct Gear.Timelines","components":[{"name":"era","type":"uint256","internalType":"uint256"},{"name":"election","type":"uint256","internalType":"uint256"},{"name":"validationDelay","type":"uint256","internalType":"uint256"}]}],"stateMutability":"view"},{"type":"function","name":"transferOwnership","inputs":[{"name":"newOwner","type":"address","internalType":"address"}],"outputs":[],"stateMutability":"nonpayable"},{"type":"function","name":"unpause","inputs":[],"outputs":[],"stateMutability":"nonpayable"},{"type":"function","name":"upgradeToAndCall","inputs":[{"name":"newImplementation","type":"address","internalType":"address"},{"name":"data","type":"bytes","internalType":"bytes"}],"outputs":[],"stateMutability":"payable"},{"type":"function","name":"validatedCodesCount","inputs":[],"outputs":[{"name":"","type":"uint256","internalType":"uint256"}],"stateMutability":"view"},{"type":"function","name":"validators","inputs":[],"outputs":[{"name":"","type":"address[]","internalType":"address[]"}],"stateMutability":"view"},{"type":"function","name":"validatorsAggregatedPublicKey","inputs":[],"outputs":[{"name":"","type":"tuple","internalType":"struct Gear.AggregatedPublicKey","components":[{"name":"x","type":"uint256","internalType":"uint256"},{"name":"y","type":"uint256","internalType":"uint256"}]}],"stateMutability":"view"},{"type":"function","name":"validatorsCount","inputs":[],"outputs":[{"name":"","type":"uint256","internalType":"uint256"}],"stateMutability":"view"},{"type":"function","name":"validatorsThreshold","inputs":[],"outputs":[{"name":"","type":"uint256","internalType":"uint256"}],"stateMutability":"view"},{"type":"function","name":"validatorsVerifiableSecretSharingCommitment","inputs":[],"outputs":[{"name":"","type":"bytes","internalType":"bytes"}],"stateMutability":"view"},{"type":"function","name":"wrappedVara","inputs":[],"outputs":[{"name":"","type":"address","internalType":"address"}],"stateMutability":"view"},{"type":"event","name":"AnnouncesCommitted","inputs":[{"name":"head","type":"bytes32","indexed":false,"internalType":"bytes32"}],"anonymous":false},{"type":"event","name":"BatchCommitted","inputs":[{"name":"hash","type":"bytes32","indexed":false,"internalType":"bytes32"}],"anonymous":false},{"type":"event","name":"CodeGotValidated","inputs":[{"name":"codeId","type":"bytes32","indexed":false,"internalType":"bytes32"},{"name":"valid","type":"bool","indexed":true,"internalType":"bool"}],"anonymous":false},{"type":"event","name":"CodeValidationRequested","inputs":[{"name":"codeId","type":"bytes32","indexed":false,"internalType":"bytes32"}],"anonymous":false},{"type":"event","name":"ComputationSettingsChanged","inputs":[{"name":"threshold","type":"uint64","indexed":false,"internalType":"uint64"},{"name":"wvaraPerSecond","type":"uint128","indexed":false,"internalType":"uint128"}],"anonymous":false},{"type":"event","name":"EIP712DomainChanged","inputs":[],"anonymous":false},{"type":"event","name":"Initialized","inputs":[{"name":"version","type":"uint64","indexed":false,"internalType":"uint64"}],"anonymous":false},{"type":"event","name":"OwnershipTransferred","inputs":[{"name":"previousOwner","type":"address","indexed":true,"internalType":"address"},{"name":"newOwner","type":"address","indexed":true,"internalType":"address"}],"anonymous":false},{"type":"event","name":"Paused","inputs":[{"name":"account","type":"address","indexed":false,"internalType":"address"}],"anonymous":false},{"type":"event","name":"ProgramCreated","inputs":[{"name":"actorId","type":"address","indexed":false,"internalType":"address"},{"name":"codeId","type":"bytes32","indexed":true,"internalType":"bytes32"}],"anonymous":false},{"type":"event","name":"StorageSlotChanged","inputs":[{"name":"slot","type":"bytes32","indexed":false,"internalType":"bytes32"}],"anonymous":false},{"type":"event","name":"Unpaused","inputs":[{"name":"account","type":"address","indexed":false,"internalType":"address"}],"anonymous":false},{"type":"event","name":"Upgraded","inputs":[{"name":"implementation","type":"address","indexed":true,"internalType":"address"}],"anonymous":false},{"type":"event","name":"ValidatorsCommittedForEra","inputs":[{"name":"eraIndex","type":"uint256","indexed":false,"internalType":"uint256"}],"anonymous":false},{"type":"error","name":"AddressEmptyCode","inputs":[{"name":"target","type":"address","internalType":"address"}]},{"type":"error","name":"ApproveERC20Failed","inputs":[]},{"type":"error","name":"BatchTimestampNotInPast","inputs":[]},{"type":"error","name":"BatchTimestampTooEarly","inputs":[]},{"type":"error","name":"BlobNotFound","inputs":[]},{"type":"error","name":"CodeAlreadyOnValidationOrValidated","inputs":[]},{"type":"error","name":"CodeNotValidated","inputs":[]},{"type":"error","name":"CodeValidationNotRequested","inputs":[]},{"type":"error","name":"CommitmentEraNotNext","inputs":[]},{"type":"error","name":"ECDSAInvalidSignature","inputs":[]},{"type":"error","name":"ECDSAInvalidSignatureLength","inputs":[{"name":"length","type":"uint256","internalType":"uint256"}]},{"type":"error","name":"ECDSAInvalidSignatureS","inputs":[{"name":"s","type":"bytes32","internalType":"bytes32"}]},{"type":"error","name":"ERC1967InvalidImplementation","inputs":[{"name":"implementation","type":"address","internalType":"address"}]},{"type":"error","name":"ERC1967NonPayable","inputs":[]},{"type":"error","name":"ElectionNotStarted","inputs":[]},{"type":"error","name":"EmptyValidatorsList","inputs":[]},{"type":"error","name":"EnforcedPause","inputs":[]},{"type":"error","name":"EraDurationTooShort","inputs":[]},{"type":"error","name":"ErasTimestampMustNotBeEqual","inputs":[]},{"type":"error","name":"ExpectedPause","inputs":[]},{"type":"error","name":"ExpiredSignature","inputs":[{"name":"deadline","type":"uint256","internalType":"uint256"}]},{"type":"error","name":"FailedCall","inputs":[]},{"type":"error","name":"GenesisHashAlreadySet","inputs":[]},{"type":"error","name":"GenesisHashNotFound","inputs":[]},{"type":"error","name":"InvalidBlobHash","inputs":[{"name":"index","type":"uint256","internalType":"uint256"},{"name":"providedBlobHash","type":"bytes32","internalType":"bytes32"},{"name":"expectedBlobHash","type":"bytes32","internalType":"bytes32"}]},{"type":"error","name":"InvalidElectionDuration","inputs":[]},{"type":"error","name":"InvalidFROSTAggregatedPublicKey","inputs":[]},{"type":"error","name":"InvalidFrostSignatureCount","inputs":[]},{"type":"error","name":"InvalidFrostSignatureLength","inputs":[]},{"type":"error","name":"InvalidInitialization","inputs":[]},{"type":"error","name":"InvalidPreviousCommittedBatchHash","inputs":[]},{"type":"error","name":"InvalidSigner","inputs":[{"name":"signer","type":"address","internalType":"address"},{"name":"requester","type":"address","internalType":"address"}]},{"type":"error","name":"InvalidTimestamp","inputs":[]},{"type":"error","name":"NotInitializing","inputs":[]},{"type":"error","name":"OwnableInvalidOwner","inputs":[{"name":"owner","type":"address","internalType":"address"}]},{"type":"error","name":"OwnableUnauthorizedAccount","inputs":[{"name":"account","type":"address","internalType":"address"}]},{"type":"error","name":"PredecessorBlockNotFound","inputs":[]},{"type":"error","name":"ReentrancyGuardReentrantCall","inputs":[]},{"type":"error","name":"RewardsCommitmentEraNotPrevious","inputs":[]},{"type":"error","name":"RewardsCommitmentPredatesGenesis","inputs":[]},{"type":"error","name":"RewardsCommitmentTimestampNotInPast","inputs":[]},{"type":"error","name":"RouterGenesisHashNotInitialized","inputs":[]},{"type":"error","name":"SafeCastOverflowedUintDowncast","inputs":[{"name":"bits","type":"uint8","internalType":"uint8"},{"name":"value","type":"uint256","internalType":"uint256"}]},{"type":"error","name":"SignatureVerificationFailed","inputs":[]},{"type":"error","name":"TimestampInFuture","inputs":[]},{"type":"error","name":"TimestampOlderThanPreviousEra","inputs":[]},{"type":"error","name":"TooManyChainCommitments","inputs":[]},{"type":"error","name":"TooManyRewardsCommitments","inputs":[]},{"type":"error","name":"TooManyValidatorsCommitments","inputs":[]},{"type":"error","name":"TransferFromFailed","inputs":[]},{"type":"error","name":"UUPSUnauthorizedCallContext","inputs":[]},{"type":"error","name":"UUPSUnsupportedProxiableUUID","inputs":[{"name":"slot","type":"bytes32","internalType":"bytes32"}]},{"type":"error","name":"UnknownProgram","inputs":[]},{"type":"error","name":"ValidationBeforeGenesis","inputs":[]},{"type":"error","name":"ValidationDelayTooBig","inputs":[]},{"type":"error","name":"ValidatorsAlreadyScheduled","inputs":[]},{"type":"error","name":"ValidatorsNotFoundForTimestamp","inputs":[]},{"type":"error","name":"ZeroValueTransfer","inputs":[]}],"bytecode":{"object":"0x60a080604052346100c257306080525f5160206158fa5f395f51905f525460ff8160401c166100b3576002600160401b03196001600160401b03821601610060575b60405161583390816100c78239608051818181612a500152612ae30152f35b6001600160401b0319166001600160401b039081175f5160206158fa5f395f51905f525581527fc7f505b2f371ae2175ee4913f4499e1f2633a7b5936321eed1cdaeb6115181d290602090a15f80610041565b63f92ee8a960e01b5f5260045ffd5b5f80fdfe6080806040526004361015610091575b50361561001a575f80fd5b6100226138c1565b5f5160206157935f395f51905f5254600181015415610082576001600160801b0334161561007357335f908152601a9190910160205260409020541561006457005b63821a62f560e01b5f5260045ffd5b63a1a7c6eb60e01b5f5260045ffd5b63580683f360e01b5f5260045ffd5b5f905f3560e01c9081627a32e7146131a8575080630c18d277146130dd578063188509e9146130af57806328e24b3d1461308157806333e0d48e14612eb35780633644e51514612e985780633683c4d214612ddb5780633bd109fa14612d8c5780633d43b41814612d385780633f4ba83a14612cb85780634f1ef28614612aa457806352d1902d14612a3d57806353f7fd481461225d5780635c975abb1461222e5780636c2eb35014611d065780636e55012a14611b28578063715018a614611abf57806371a8cf2d14611a9157806382bdeaad146119795780638456cb591461190657806384b0196e1461167a57806384d22a4f1461161c57806388f50cf0146115e35780638b1edf1e146115845780638c4ace6a146114715780638da5cb5b1461143c5780638f381dbe146113f65780639067088e146113ad57806396a2ddfa1461137f5780639eb939a814611328578063a5d53a44146112a8578063ad3cb1cc1461125f578063b24fcac014610dc9578063baaf020114610cc8578063c13911e814610c84578063c2eb812f14610921578063ca1e7819146108d1578063cacf66ab14610899578063d456fd5114610863578063e3a6684f14610824578063e6fabc09146107eb578063ed612f8c146107b3578063edc872251461075e578063f0fd702a14610396578063f1ef31ec14610368578063f2fde38b1461033b578063f4f20ac0146103025763facd743b0361000f57346102ff5760203660031901126102ff576102c16131fe565b60036102dc5f5160206157935f395f51905f5254429061501b565b019060018060a01b03165f52602052602060ff60405f2054166040519015158152f35b80fd5b50346102ff57806003193601126102ff575f5160206157935f395f51905f5254600701546040516001600160a01b039091168152602090f35b50346102ff5760203660031901126102ff576103656103586131fe565b610360613e64565b613850565b80f35b50346102ff57806003193601126102ff576020601e5f5160206157935f395f51905f52540154604051908152f35b50346102ff576101403660031901126102ff576103b16131fe565b602435906044356001600160401b03811161075a576103d490369060040161334d565b6064356084359360ff851685036107565760e4359260ff84168403610752576103fb6138c1565b874915610743575f5160206157935f395f51905f525494600186015415610734576019860196888a528760205260ff60408b20541660038110156107205761071157895b8381106106ca57508442116106b657604080517f21d22dbb6ca3344a7f7c1dfcbe01d1b3a6aad6920ebeb232f72cc411c4436b17602082019081526001600160a01b03909616918101829052606081018b905260a0608082015260c081018590529094906001600160fb1b0385116106b2576104df60e0826105119661051a9860051b8091848401378a60a083015281010301601f1981018352826132bd565b5190206104ea614fba565b906040519161190160f01b83526002830152602282015260c43591604260a43592206152ec565b9092919261536e565b6001600160a01b031681810361069d5750509085929161055160018060a01b0360068501541693601e601d82015491015490613843565b91833b156106995760405163d505accf60e01b815233600482015230602482015260448101849052606481019290925260ff1660848201526101043560a48201526101243560c4820152839081818060e481015b038183885af1610680575b50506040516323b872dd60e01b815233600482015230602482015260448101919091529160209183916064918391905af1908115610675578491610646575b50156106375781835260209081526040808420805460ff19166001179055519182527f5c261a095dd5720475295dc06379921c003c22164ee6cae5cf83e76ce0a1b98591a180f35b631e4e7d0960e21b8352600483fd5b610668915060203d60201161066e575b61066081836132bd565b81019061348f565b5f6105ef565b503d610656565b6040513d86823e3d90fd5b8161068a916132bd565b61069557825f6105b0565b8280fd5b8480fd5b637ba5ffb560e01b8852600452602452604486fd5b8b80fd5b632f4aa44f60e21b8a52600485905260248afd5b8049806106d8838787613638565b35146106e5838787613638565b3590156106f657505060010161043f565b606493508c926306f2f0e760e21b8452600452602452604452fd5b6304c51a3360e31b8a5260048afd5b634e487b7160e01b8b52602160045260248bfd5b63580683f360e01b8952600489fd5b637bb2fa2f60e11b8852600488fd5b8780fd5b8680fd5b8380fd5b50346102ff57806003193601126102ff5760206107ab5f5160206157935f395f51905f525460086004610791428461501b565b0154910154906001600160801b038260801c921690614f8f565b604051908152f35b50346102ff57806003193601126102ff57602060046107e15f5160206157935f395f51905f5254429061501b565b0154604051908152f35b50346102ff57806003193601126102ff575f5160206157935f395f51905f5254600501546040516001600160a01b039091168152602090f35b50346102ff57806003193601126102ff57604060085f5160206157935f395f51905f525401548151906001600160801b038116825260801c6020820152f35b50346102ff57806003193601126102ff57602065ffffffffffff60045f5160206157935f395f51905f5254015416604051908152f35b50346102ff57806003193601126102ff57602065ffffffffffff60025f5160206157935f395f51905f52540154821c16604051908152f35b50346102ff57806003193601126102ff5761091d61090960046109035f5160206157935f395f51905f5254429061501b565b016137f0565b6040519182916020835260208301906133c2565b0390f35b50346102ff57806003193601126102ff5760405161093e81613286565b61094661371e565b81526040516109548161326b565b5f8152602081015f9052602082015261096b61371e565b60408201526109786137bd565b60608201526040516109898161326b565b5f8082526020820152608082015261099f61371e565b60a08201528160c08201528160e08201528161010082015261012001525f5160206157935f395f51905f52546109d36137bd565b506109e060098201615297565b906109ed600f8201615297565b60088201549260405193610a00856132a2565b6001600160801b038116855260801c602085015260408401526060830152601b81015490601c810154601d820154601e8301549160405194610a4186613286565b604051610a4d8161323c565b60018601548152600286015463ffffffff8116602083015260201c65ffffffffffff166040820152865260405196610a848861326b565b60038601548852600486015465ffffffffffff1660208901526020870197885260405190610ab18261323c565b60058701546001600160a01b039081168352600688015481166020840152600788015416604080840191909152880191825260608801908152610af660158801613670565b9660808901978852601601610b0a9061373c565b9160a0890192835260c0890193845260e0890194855261010089019586526101208901968752604051998a9960208b5251805160208c0152602081015163ffffffff1660408c01526040015165ffffffffffff1660608b015251805160808b01526020015165ffffffffffff1660a08a015251600160a01b6001900381511660c08a0152600160a01b6001900360208201511660e08a0152600160a01b60019003906040015116610100890152516101208801610240905280516001600160801b031661026089015260208101516001600160801b031661028089015260408101516102a08901608090526102e08901610c03916133fe565b90606001519061025f19898203016102c08a0152610c20916133fe565b955180516001600160401b0316610140890152602001516001600160801b031661016088015251805161018088015260208101516101a0880152604001516101c0870152516101e08601525161020085015251610220840152516102408301520390f35b50346102ff5760203660031901126102ff5760ff604060209260195f5160206157935f395f51905f52540160043582528452205416610cc6604051809261337d565bf35b50346102ff5760203660031901126102ff576004356001600160401b038111610dc557610cf990369060040161334d565b905f5160206157935f395f51905f525490610d13836135cd565b91610d2160405193846132bd565b838352610d2d846135cd565b602084019490601f1901368637601a869201915b818110610d8c57868587604051928392602084019060208552518091526040840192915b818110610d73575050500390f35b8251845285945060209384019390920191600101610d65565b80610da2610d9d6001938588613638565b61369e565b828060a01b03165f528360205260405f2054610dbe828861365c565b5201610d41565b5080fd5b50346102ff5760603660031901126102ff576001600160401b03600435116102ff57610100600435360360031901126102ff57600260243510156102ff576044356001600160401b038111610dc557610e2690369060040161334d565b7f9b779b17422d0df92223018b32b4d1fa46e071723d6817e2486d003becc55f005c6112505760017f9b779b17422d0df92223018b32b4d1fa46e071723d6817e2486d003becc55f005d5f5160206157935f395f51905f525490600182015415611241578154156111e5575b600382015460446004350135036111d65765ffffffffffff60048301541665ffffffffffff610ec5602460043501613772565b16106111c857610eda600435600401836141c0565b92610eef60a460043501600435600401614675565b808096925060051b04602014851517156111b457610f0f8560051b615083565b8695865b81881061107f5750611045965060051b902090610f35600435600401866146cc565b610f4460043560040187614aa3565b90610f53602460043501613772565b93610f62606460043501613764565b9360405194602086019660043560040135885265ffffffffffff60d01b9060d01b16604087015260446004350135604687015260ff60f81b9060f81b1660668601526067850152608784015260a783015260c782015260c78152610fc760e7826132bd565b5190209283600382015565ffffffffffff610fe6602460043501613772565b1665ffffffffffff196004830154161760048201557f7ebe42360bcb182fe0a88148b081e4557c89d09aa6af8307635ac2f83e2aaa656020604051868152a165ffffffffffff61103a602460043501613772565b169360243591614d26565b1561107057807f9b779b17422d0df92223018b32b4d1fa46e071723d6817e2486d003becc55f005d80f35b63729d0f6b60e01b8152600490fd5b61109360a460043501600435600401614675565b8910156111a0578860061b8101358a526019880160205260ff60408b205416600381101561072057600103611191576001916020916111568b8b8e868360061b860101926110e0846146aa565b156111725760061b85013590525060198c01855260408e20805460ff19166002179055601c8c018054611112906138e8565b90555b8c7f460119a8f69a33ed127de517d5ea464e958ce23ef19e4420a8b92bf780bbc2c986611141846146aa565b1515926040519060061b8701358152a26146aa565b908b60061b01358c52825360218b208186015201970196610f13565b60409260199160061b87013583520187522060ff198154169055611115565b636e83084760e11b8a5260048afd5b634e487b7160e01b8a52603260045260248afd5b634e487b7160e01b86526011600452602486fd5b620725b160ea1b8452600484fd5b63164b6fc360e01b8452600484fd5b6112026111f6606460043501613764565b6004356004013561412b565b156112325765ffffffffffff61121c602460043501613772565b164211610e9257631ad8809560e31b8452600484fd5b637b8cb35960e01b8452600484fd5b63580683f360e01b8452600484fd5b633ee5aeb560e01b8352600483fd5b50346102ff57806003193601126102ff575061091d6040516112826040826132bd565b60058152640352e302e360dc1b602082015260405191829160208352602083019061339e565b50346102ff57806003193601126102ff575f5160206157935f395f51905f52546001600160a01b03906002906112df90429061501b565b0154166040519182915f19813b0164ffffffffff16916021830191601f8501903c808252019060408201918260405260208352611323603f1992606083019061339e565b030190f35b50346102ff57806003193601126102ff5761134161371e565b50606061135e60165f5160206157935f395f51905f52540161373c565b610cc660405180926040809180518452602081015160208501520151910152565b50346102ff57806003193601126102ff576020601b5f5160206157935f395f51905f52540154604051908152f35b50346102ff5760203660031901126102ff576113c76131fe565b601a5f5160206157935f395f51905f5254019060018060a01b03165f52602052602060405f2054604051908152f35b50346102ff5760203660031901126102ff57600435906001600160401b0382116102ff57602061143261142c366004860161334d565b906136b2565b6040519015158152f35b50346102ff57806003193601126102ff575f5160206156f35f395f51905f52546040516001600160a01b039091168152602090f35b50346102ff5760a03660031901126102ff5760043560443560ff811681036106955761149b6138c1565b824915611575575f5160206157935f395f51905f52546001810154156112415760198101918385528260205260ff604086205416600381101561156157611552576006820154601d9092015485926001600160a01b031691823b1561075a5760405163d505accf60e01b815233600482015230602480830191909152604482018490523560648083019190915260ff909216608480830191909152913560a4820152903560c4820152839081818060e481016105a5565b6304c51a3360e31b8552600485fd5b634e487b7160e01b86526021600452602486fd5b637bb2fa2f60e11b8352600483fd5b50346102ff57806003193601126102ff575f5160206157935f395f51905f5254600181019081546115d4576002015463ffffffff16409081156115c5575580f35b63f7bac7b560e01b8352600483fd5b6309476b0360e41b8352600483fd5b50346102ff57806003193601126102ff575f5160206157935f395f51905f5254600601546040516001600160a01b039091168152602090f35b50346102ff57806003193601126102ff576116356134a7565b50604061165260155f5160206157935f395f51905f525401613670565b610cc6825180926001600160801b03602080926001600160401b038151168552015116910152565b50346102ff57806003193601126102ff575f5160206157335f395f51905f525415806118f0575b156118b3576040519080825f5160206156d35f395f51905f5254916116c5836140f3565b8083529260018116908115611894575060011461183d575b6116e9925003836132bd565b6040519080825f5160206157135f395f51905f525491611708836140f3565b808352926001811690811561181e57506001146117c7575b611734919392509361176b959403836132bd565b60206117796040519361174783866132bd565b8385525f368137604051968796600f60f81b885260e08589015260e088019061339e565b90868203604088015261339e565b904660608601523060808601528260a086015284820360c08601528080855193848152019401925b8281106117b057505050500390f35b8351855286955093810193928101926001016117a1565b505f5160206157135f395f51905f5283529082905f5160206158135f395f51905f525b81831061180257505090602061173492820101611720565b60209193508060019154838589010152019101909184926117ea565b6020925061173494915060ff191682840152151560051b820101611720565b505f5160206156d35f395f51905f5283529082905f5160206157535f395f51905f525b8183106118785750509060206116e9928201016116dd565b6020919350806001915483858901015201910190918492611860565b602092506116e994915060ff191682840152151560051b8201016116dd565b60405162461bcd60e51b81526020600482015260156024820152741152540dcc4c8e88155b9a5b9a5d1a585b1a5e9959605a1b6044820152606490fd5b505f5160206157f35f395f51905f5254156116a1565b50346102ff57806003193601126102ff5761191f613e64565b6119276138c1565b600160ff195f5160206157b35f395f51905f525416175f5160206157b35f395f51905f52557f62e78cea01bee320cd4e420270b5ea74000d11b0c9f74754ebdbfc544b05a2586020604051338152a180f35b50346102ff5760203660031901126102ff576004356001600160401b038111610dc5576119aa90369060040161334d565b905f5160206157935f395f51905f5254906119c4836135cd565b916119d260405193846132bd565b8383526119de846135cd565b602084019490601f19013686376019869201915b818110611a4757868587604051928392602084019060208552518091526040840192915b818110611a24575050500390f35b9193509160208082611a39600194885161337d565b019401910191849392611a16565b611a52818386613638565b3587528260205260ff604088205416611a6b828761365c565b6003821015611a7d57526001016119f2565b634e487b7160e01b89526021600452602489fd5b50346102ff57806003193601126102ff57602060035f5160206157935f395f51905f52540154604051908152f35b50346102ff57806003193601126102ff57611ad8613e64565b5f5160206156f35f395f51905f5280546001600160a01b0319811690915581906001600160a01b03167f8be0079c531659141344cd1fd0a4f28419497f9722a3daafe3b4186f6b6457e08280a380f35b50346102ff576101203660031901126102ff57611b436131d2565b611b4b6131e8565b6084356001600160801b03811690818103610699578460c43560ff81168103610dc557611b766138c1565b611b846024356004356138f6565b6006015490936001600160a01b0390911691823b1561075a57611bcc8480926040518093819263d505accf60e01b8352610104359060e4359060a4358a303360048901613445565b038183885af1611cf1575b50506040516323b872dd60e01b81523360048201523060248201526001600160801b039190911660448201529160209183916064918391905af1908115611ce6578691611cc7575b5015611cb8576001600160a01b0390811693908116611cb2575033915b833b1561069957604051635fd142bb60e11b81526001600160a01b03938416600482015292166024830152604482018490526064820152828160848183865af18015611ca757611c92575b602082604051908152f35b611c9d8380926132bd565b610dc55781611c87565b6040513d85823e3d90fd5b91611c3c565b631e4e7d0960e21b8552600485fd5b611ce0915060203d60201161066e5761066081836132bd565b5f611c1f565b6040513d88823e3d90fd5b81611cfb916132bd565b61069557825f611bd7565b50346102ff57806003193601126102ff57611d1f613e64565b5f5160206157d35f395f51905f525460ff8160401c16908115612219575b5061220a575f5160206157d35f395f51905f52805468ffffffffffffffffff1916680100000000000000051790555f5160206156f35f395f51905f5254611d97906001600160a01b0316611d8f615037565b610360615037565b611d9f6134dd565b90611da861350a565b90611db1615037565b611db9615037565b82516001600160401b03811161212057611de05f5160206156d35f395f51905f52546140f3565b601f81116121b9575b506020601f821160011461213f57829394829392612134575b50508160011b915f199060031b1c1916175f5160206156d35f395f51905f52555b81516001600160401b03811161212057611e4a5f5160206157135f395f51905f52546140f3565b601f81116120c6575b50602092601f821160011461204d57928293829392612042575b50508160011b915f199060031b1c1916175f5160206157135f395f51905f52555b805f5160206157335f395f51905f5255805f5160206157f35f395f51905f52555f5160206157935f395f51905f5254611ec5613e97565b80516001830155600282019063ffffffff60208201511669ffffffffffff000000006040845493015160201b169169ffffffffffffffffffff191617179055816020604051611f138161326b565b8281520152600381018290556004808201805465ffffffffffff19169055600682015460405163313ce56760e01b81529160209183919082906001600160a01b03165afa8015611ca757611f6e918491612013575b50613581565b90816103e8026103e881048303611fff57601d820155816101f402916101f4830403611feb57601e015560ff60401b195f5160206157d35f395f51905f5254165f5160206157d35f395f51905f52557fc7f505b2f371ae2175ee4913f4499e1f2633a7b5936321eed1cdaeb6115181d2602060405160058152a180f35b634e487b7160e01b83526011600452602483fd5b634e487b7160e01b84526011600452602484fd5b612035915060203d60201161203b575b61202d81836132bd565b810190613568565b5f611f68565b503d612023565b015190505f80611e6d565b601f198216935f5160206157135f395f51905f52845280842091845b8681106120ae5750836001959610612096575b505050811b015f5160206157135f395f51905f5255611e8e565b01515f1960f88460031b161c191690555f808061207c565b91926020600181928685015181550194019201612069565b81811115611e53575f5160206157135f395f51905f528352612112905f5160206158135f395f51905f5290601f840160051c9060208510612118575b601f82910160051c039101613f14565b5f611e53565b859150612102565b634e487b7160e01b82526041600452602482fd5b015190505f80611e02565b5f5160206156d35f395f51905f52835280832090601f198316845b8181106121a157509583600195969710612189575b505050811b015f5160206156d35f395f51905f5255611e23565b01515f1960f88460031b161c191690555f808061216f565b9192602060018192868b01518155019401920161215a565b81811115611de9575f5160206156d35f395f51905f528352612204905f5160206157535f395f51905f5290601f840160051c906020851061211857601f82910160051c039101613f14565b5f611de9565b63f92ee8a960e01b8152600490fd5b600591506001600160401b031610155f611d3d565b50346102ff57806003193601126102ff57602060ff5f5160206157b35f395f51905f5254166040519015158152f35b50346102ff576101603660031901126102ff576122786131fe565b906024356001600160a01b03811690819003610dc5576122966131d2565b9261229f6131e8565b9360a4359060843560c43560403660e31901126107565761012435976001600160401b038911610752573660238a011215610752578860040135916001600160401b038311612a3957366024848c010111612a3957610144356001600160401b038111612a355761231490369060040161334d565b9690945f5160206157d35f395f51905f5254986001600160401b0360ff8b60401c16159a1680159081612a2d575b6001149081612a23575b159081612a1a575b50612a0b57612396908a60016001600160401b03195f5160206157d35f395f51905f525416175f5160206157d35f395f51905f52556129db575b611d8f615037565b61239e615037565b6123a66134dd565b6123ae61350a565b906123b7615037565b6123bf615037565b8051906001600160401b0382116129c7578d82916123ea5f5160206156d35f395f51905f52546140f3565b601f8111612976575b50602091601f84116001146128fa57926128ef575b50508160011b915f199060031b1c1916175f5160206156d35f395f51905f52555b8051906001600160401b0382116128db578c82916124545f5160206157135f395f51905f52546140f3565b601f811161288a575b50602091601f841160011461280e5792612803575b50508160011b915f199060031b1c1916175f5160206157135f395f51905f52555b8a5f5160206157335f395f51905f52558a5f5160206157f35f395f51905f52556124bb615037565b42156127f45781156127e557818111156127d657600a6124db8383613529565b048310156127c75791600493916020938c60409c8d9182516124fd84826132bd565b601781528881017f726f757465722e73746f726167652e526f757465725631000000000000000000815261252f613e64565b5f19915190200181528760ff199120169a8b5f5160206157935f395f51905f52557f059eb9adf6e95b839d818142ed5bd5e498b6d95138e65c91525e93cc0f0339fc888d8551908152a1612581613e97565b8c6001825191015560028d019063ffffffff8a8201511669ffffffffffff000000008684549301518c1b169169ffffffffffffffffffff1916171790558251906125ca8261323c565b8282526001600160a01b039081168983018190529781169390910183905260058c018054919092166001600160a01b03199182161790915560068b01805482168717905560078b018054909116909117905570030000000000000000000000000000000260088a015561263b6134a7565b506509184e72a000858d5161264f8161326b565b639502f900815201526015890180546001600160c01b0319166d09184e72a000000000009502f9001790558b5183908d906126898161323c565b8381528488820152015260168901556017880155601887015588519283809263313ce56760e01b82525afa9081156127bd57906126cc9189916120135750613581565b806103e8026103e8810482036127a957601d850155806101f402906101f48204036127955761273461272a61273b9798999a600993601e8801558a51946127128661326b565b60e435865261010435602087015260243692016132f9565b93429636916135e4565b9301613f2f565b612743575080f35b60207fc7f505b2f371ae2175ee4913f4499e1f2633a7b5936321eed1cdaeb6115181d29160ff60401b195f5160206157d35f395f51905f5254165f5160206157d35f395f51905f52555160018152a180f35b634e487b7160e01b88526011600452602488fd5b634e487b7160e01b89526011600452602489fd5b87513d8a823e3d90fd5b63145e348f60e01b8b5260048bfd5b6353b2bbed60e01b8b5260048bfd5b63f7ba6bdb60e01b8b5260048bfd5b63b7d0949760e01b8b5260048bfd5b015190505f80612472565b5f5160206157135f395f51905f5281528281209350601f198516905b818110612872575090846001959493921061285a575b505050811b015f5160206157135f395f51905f5255612493565b01515f1960f88460031b161c191690555f8080612840565b9293602060018192878601518155019501930161282a565b8381111561245d575f5160206157135f395f51905f5283526128d5905f5160206158135f395f51905f5290601f860160051c906020871061211857601f82910160051c039101613f14565b5f61245d565b634e487b7160e01b8d52604160045260248dfd5b015190505f80612408565b5f5160206156d35f395f51905f5281528281209350601f198516905b81811061295e5750908460019594939210612946575b505050811b015f5160206156d35f395f51905f5255612429565b01515f1960f88460031b161c191690555f808061292c565b92936020600181928786015181550195019301612916565b838111156123f3575f5160206156d35f395f51905f5283526129c1905f5160206157535f395f51905f5290601f860160051c906020871061211857601f82910160051c039101613f14565b5f6123f3565b634e487b7160e01b8e52604160045260248efd5b600160401b60ff60401b195f5160206157d35f395f51905f525416175f5160206157d35f395f51905f525561238e565b63f92ee8a960e01b8c5260048cfd5b9050155f612354565b303b15915061234c565b8b9150612342565b8980fd5b8880fd5b50346102ff57806003193601126102ff577f00000000000000000000000000000000000000000000000000000000000000006001600160a01b03163003612a955760206040515f5160206157735f395f51905f528152f35b63703e46dd60e11b8152600490fd5b5060403660031901126102ff57612ab96131fe565b906024356001600160401b038111610dc557612ad990369060040161332f565b6001600160a01b037f000000000000000000000000000000000000000000000000000000000000000016308114908115612c96575b50612c8757612b1b613e64565b6040516352d1902d60e01b8152926001600160a01b0381169190602085600481865afa80958596612c4f575b50612b6057634c9c8ce360e01b84526004839052602484fd5b9091845f5160206157735f395f51905f528103612c3d5750813b15612c2b575f5160206157735f395f51905f5280546001600160a01b031916821790557fbc7cd75a20ee27fd9adebab32041f755214dbc6bffa90cc0225b39da2e5c2d3b8480a28151839015612c115780836020612c0595519101845af43d15612c09573d91612be9836132de565b92612bf760405194856132bd565b83523d85602085013e615674565b5080f35b606091615674565b50505034612c1c5780f35b63b398979f60e01b8152600490fd5b634c9c8ce360e01b8452600452602483fd5b632a87526960e21b8552600452602484fd5b9095506020813d602011612c7f575b81612c6b602093836132bd565b81010312612c7b5751945f612b47565b5f80fd5b3d9150612c5e565b63703e46dd60e11b8252600482fd5b5f5160206157735f395f51905f52546001600160a01b0316141590505f612b0e565b50346102ff57806003193601126102ff57612cd1613e64565b5f5160206157b35f395f51905f525460ff811615612d295760ff19165f5160206157b35f395f51905f52557f5db9ee0a495bf2e6ff9c91a7834c1ba4fdd244a5e8aa4e537bd38aeae4b073aa6020604051338152a180f35b638dfc202b60e01b8252600482fd5b50346102ff5760203660031901126102ff57612d526131fe565b612d5a613e64565b5f5160206157935f395f51905f525460050180546001600160a01b0319166001600160a01b0390921691909117905580f35b50346102ff57806003193601126102ff57612da56134a7565b506040612dc9612dc45f5160206157935f395f51905f5254429061501b565b6134bf565b60208251918051835201516020820152f35b50346102ff5760603660031901126102ff57612df56131d2565b612dfd6138c1565b612e0b602435600435613d6c565b506001600160a01b0390811691908116612e935750335b5f5160206157935f395f51905f5254600501546001600160a01b0316823b1561075a57604051635fd142bb60e11b81526001600160a01b03909216600483015260248201526001604482015260648101839052828160848183865af18015611ca757611c9257602082604051908152f35b612e22565b50346102ff57806003193601126102ff5760206107ab614fba565b50346102ff576101003660031901126102ff57612ece6131d2565b6064356001600160801b0381169081810361075a578360a43560ff81168103610dc557612ef96138c1565b612f07602435600435613d6c565b6006015490936001600160a01b0390911691823b1561075a57612f4e8480926040518093819263d505accf60e01b835260e4359060c435906084358a303360048901613445565b038183885af161306c575b50506040516323b872dd60e01b81523360048201523060248201526001600160801b039190911660448201529160209183916064918391905af1908115613061578591613042575b5015613033576001600160a01b039081169290811661302d575033905b5f5160206157935f395f51905f5254600501546001600160a01b0316833b1561069957604051635fd142bb60e11b81526001600160a01b0390931660048401526024830152600160448301526064820152828160848183865af18015611ca757611c9257602082604051908152f35b90612fbe565b631e4e7d0960e21b8452600484fd5b61305b915060203d60201161066e5761066081836132bd565b5f612fa1565b6040513d87823e3d90fd5b81613076916132bd565b61069557825f612f59565b50346102ff57806003193601126102ff57602060015f5160206157935f395f51905f52540154604051908152f35b50346102ff57806003193601126102ff576020601d5f5160206157935f395f51905f52540154604051908152f35b34612c7b576080366003190112612c7b576130f66131d2565b6130fe6131e8565b906131076138c1565b6131156024356004356138f6565b506001600160a01b03908116919081166131a2575033915b813b15612c7b57604051635fd142bb60e11b81526001600160a01b039384166004820152921660248301525f60448301819052606483018190528260848183855af191821561319757602092613187575b50604051908152f35b5f613191916132bd565b5f61317e565b6040513d5f823e3d90fd5b9161312d565b34612c7b575f366003190112612c7b57602090601c5f5160206157935f395f51905f525401548152f35b604435906001600160a01b0382168203612c7b57565b606435906001600160a01b0382168203612c7b57565b600435906001600160a01b0382168203612c7b57565b35906001600160a01b0382168203612c7b57565b35906001600160801b0382168203612c7b57565b606081019081106001600160401b0382111761325757604052565b634e487b7160e01b5f52604160045260245ffd5b604081019081106001600160401b0382111761325757604052565b61014081019081106001600160401b0382111761325757604052565b608081019081106001600160401b0382111761325757604052565b90601f801991011681019081106001600160401b0382111761325757604052565b6001600160401b03811161325757601f01601f191660200190565b929192613305826132de565b9161331360405193846132bd565b829481845281830111612c7b578281602093845f960137010152565b9080601f83011215612c7b5781602061334a933591016132f9565b90565b9181601f84011215612c7b578235916001600160401b038311612c7b576020808501948460051b010111612c7b57565b90600382101561338a5752565b634e487b7160e01b5f52602160045260245ffd5b805180835260209291819084018484015e5f828201840152601f01601f1916010190565b90602080835192838152019201905f5b8181106133df5750505090565b82516001600160a01b03168452602093840193909201916001016133d2565b9060208251805183520151602082015260018060a01b0360208301511660408201526080606061343c604085015160a08386015260a08501906133c2565b93015191015290565b936001600160801b0360c096929998979460ff9460e088019b60018060a01b0316885260018060a01b03166020880152166040860152606085015216608083015260a08201520152565b90816020910312612c7b57518015158103612c7b5790565b604051906134b48261326b565b5f6020838281520152565b906040516134cc8161326b565b602060018294805484520154910152565b604051906134ec6040836132bd565b600f82526e2b30b9309722aa24102937baba32b960891b6020830152565b604051906135196040836132bd565b60018252603160f81b6020830152565b9190820391821161353657565b634e487b7160e01b5f52601160045260245ffd5b8115613554570490565b634e487b7160e01b5f52601260045260245ffd5b90816020910312612c7b575160ff81168103612c7b5790565b60ff16604d811161353657600a0a90565b8181029291811591840414171561353657565b9190826040910312612c7b576040516135bd8161326b565b6020808294803584520135910152565b6001600160401b0381116132575760051b60200190565b9291906135f0816135cd565b936135fe60405195866132bd565b602085838152019160051b8101928311612c7b57905b82821061362057505050565b6020809161362d84613214565b815201910190613614565b91908110156136485760051b0190565b634e487b7160e01b5f52603260045260245ffd5b80518210156136485760209160051b010190565b9060405161367d8161326b565b91546001600160401b038116835260401c6001600160801b03166020830152565b356001600160a01b0381168103612c7b5790565b6136cb5f5160206157935f395f51905f5254429061501b565b600301905f5b8381106136e15750505050600190565b6136ef610d9d828685613638565b6001600160a01b03165f9081526020849052604090205460ff1615613716576001016136d1565b505050505f90565b6040519061372b8261323c565b5f6040838281528260208201520152565b906040516137498161323c565b60406002829480548452600181015460208501520154910152565b3560ff81168103612c7b5790565b3565ffffffffffff81168103612c7b5790565b60405190613792826132a2565b5f6060836040516137a28161326b565b83815283602082015281528260208201528160408201520152565b604051906137ca826132a2565b815f81525f60208201526137dc613785565b604082015260606137eb613785565b910152565b90604051918281549182825260208201905f5260205f20925f5b81811061382157505061381f925003836132bd565b565b84546001600160a01b031683526001948501948794506020909301920161380a565b9190820180921161353657565b6001600160a01b031680156138ae575f5160206156f35f395f51905f5280546001600160a01b0319811683179091556001600160a01b03167f8be0079c531659141344cd1fd0a4f28419497f9722a3daafe3b4186f6b6457e05f80a3565b631e4fbdf760e01b5f525f60045260245ffd5b60ff5f5160206157b35f395f51905f5254166138d957565b63d93c066560e01b5f5260045ffd5b5f1981146135365760010190565b9190915f5160206157935f395f51905f52549260018401541561008257815f526019840160205260ff60405f205416600381101561338a57600203613d5d57815f5260205260405f206040516103008101908082106001600160401b03831117612c7b576102fb916040527f6080806040526102e990816100128239f3fe60806040526004361061029f575f81527f3560e01c806336a52a18146100bb57806342129d00146100b65780635ce6c32760208201527f146100b1578063701da98e146100ac578063704ed542146100a75780637a8e0c60408201527fdd146100a257806391d5a64c1461009d5780639ce110d714610098578063affe60608201527fd0e014610093578063c60496921461008e5763e43f34330361029f5761028a5660808201527f5b610260565b610243565b61021b565b610205565b6101d2565b6101b3565b6160a08201527f0178565b610156565b610119565b346100e7575f3660031901126100e757600260c08201527f5460405160089190911c6001600160a01b03168152602090f35b5f80fd5b918160e08201527f601f840112156100e75782359167ffffffffffffffff83116100e757602083816101008201527f8601950101116100e757565b60403660031901126100e75760043567ffffffff6101208201527fffffffff81116100e7576101459036906004016100eb565b50506024358015156101408201527f1461029f575f80fd5b346100e7575f3660031901126100e757602060ff6002546101608201527f166040519015158152f35b346100e7575f3660031901126100e75760205f54606101808201527f4051908152f35b600435906fffffffffffffffffffffffffffffffff821682036101a08201527f6100e757565b346100e75760203660031901126100e7576101cc610194565b506101c08201527f61029f565b60403660031901126100e75760243567ffffffffffffffff8111616101e08201527ee7576101fe9036906004016100eb565b505061029f565b346100e7576020366102008201527f60031901121561029f575f80fd5b346100e7575f3660031901126100e75760036102208201527f546040516001600160a01b039091168152602090f35b346100e7575f366003196102408201527f01126100e7576020600154604051908152f35b346100e75760a03660031901126102608201527f6100e757610279610194565b5060443560ff81161461029f575f80fd5b3461006102808201527fe7575f3660031901121561029f575f80fd5b63e6fabc0960e01b5f5260205f606102a08201523060481b685afa156100e7575f806204817360e81b01176102c08201527f8051368280378136915af43d5f803e156102e5573d5ff35b3d5ffd00000000006102e08201525ff5908115612c7b5760018060a01b0382165f52601a84016020528060405f2055601b8401613d2281546138e8565b90556040516001600160a01b03831681527f8008ec1d8798725ebfa0f2d128d52e8e717dcba6e0f786557eeee70614b02bf190602090a29190565b630e2637d160e01b5f5260045ffd5b9190915f5160206157935f395f51905f52549260018401541561008257815f526019840160205260ff60405f205416600381101561338a57600203613d5d57815f5260205260405f2060405160608101908082106001600160401b03831117612c7b57605a916040527f3d605080600a3d3981f3608060405263e6fabc0960e01b5f5260205f6004817381523060601b6b5afa15604c575f80805136821760208201527f80378136915af43d5f803e156048573d5ff35b3d5ffd5b5f80fd00000000000060408201525ff5908115612c7b5760018060a01b0382165f52601a84016020528060405f2055601b8401613d2281546138e8565b5f5160206156f35f395f51905f52546001600160a01b03163303613e8457565b63118cdaa760e01b5f523360045260245ffd5b613e9f61371e565b5063ffffffff4311613efc5765ffffffffffff4211613ee457604051613ec48161323c565b5f815263ffffffff4316602082015265ffffffffffff4216604082015290565b6306dfcc6560e41b5f5260306004524260245260445ffd5b6306dfcc6560e41b5f5260206004524360245260445ffd5b5f5b828110613f2257505050565b5f82820155600101613f16565b9291908051906020810191825170014551231950b75fc4402da1732fc9bebe19821091826140e2575b5050156140d35751845551600184015580518060401b6bfe61000180600a3d393df3000161fffe8211830152600b8101601583015ff09182156140c657526002830180546001600160a01b0319166001600160a01b039092169190911790555f5b600483018054821015613ff7575f90815260208082208301546001600160a01b0316825260038501905260409020805460ff19169055600101613fb9565b5050925f5b8451811015614040576001906001600160a01b0361401a828861365c565b5116828060a01b03165f526003840160205260405f208260ff1982541617905501613ffc565b5092600482018151916001600160401b03831161325757600160401b83116132575760209082548484558085106140ab575b5001905f5260205f205f5b83811061408e575050505060050155565b82516001600160a01b03168183015560209092019160010161407d565b6140c090845f528580855f2001910390613f14565b5f614072565b63301164255f526004601cfd5b63375f0aab60e11b5f5260045ffd5b6140ec9250615651565b5f80613f58565b90600182811c92168015614121575b602083101461410d57565b634e487b7160e01b5f52602260045260245ffd5b91607f1691614102565b435f19810193929084116135365760ff1643811061417b57505f925b83811015614157575b505f925050565b80408281036141695750600193505050565b15614176575f1901614147565b614150565b6141859043613529565b92614147565b903590601e1981360301821215612c7b57018035906001600160401b038211612c7b57602001918160051b36038313612c7b57565b906080810160016141d1828461418b565b905011614666576141e2818361418b565b90501561463f576141f29161418b565b1561364857803590603e1981360301821215612c7b570191614214838061418b565b9190928260051b93838504602014841517156135365761423685969495615083565b925f945f97601a60fe19853603019501965b888a10156145f7578960051b85013586811215612c7b57850161426a8161369e565b6001600160a01b03165f90815260208a9052604090205415610064575f608082016001600160801b0361429c82615062565b161515806145e4575b6145d3575b6001600160a01b036142bb8461369e565b604051630427a21d60e11b81526020600482015294911691610124850191906001600160801b039061433a906001600160a01b036142f885613214565b1660248901526020840135604489015261431460408501615076565b151560648901526001600160a01b0361432f60608601613214565b166084890152613228565b1660a486015261434c60a08201615076565b151560c486015236819003601e190160c082013581811215612c7b578201602081359101936001600160401b038211612c7b576060820236038513612c7b57819061010060e48a015252610144870193905f905b8082106145895750505060e082013590811215612c7b5701803560208201926001600160401b038211612c7b578160051b908136038513612c7b5791879594936023198785030161010488015281845260208085019385010194935f9160fe19813603015b84841061447c5750505050505050602093916001600160801b03848093039316905af1908115613197575f9161444a575b50816020916001938a015201990198614248565b90506020813d8211614474575b81614464602093836132bd565b81010312612c7b57516001614436565b3d9150614457565b919395979850919395601f19848203018752873582811215612c7b578301602081013582526001600160a01b036144b560408301613214565b1660208301526060810135603e193683900301811215612c7b578101602081013591906040016001600160401b038311612c7b578236038113612c7b57829060e060408601528160e08601526101008501375f61010083850101526001600160801b0361452460808301613228565b16606084015260a0810135608084015260c081013563ffffffff60e01b8116809103612c7b578360209361456660e086956101009560a060019a015201615076565b151560c0830152601f80199101160101990197019401918a989796959391614405565b90919460608060019288358152838060a01b036145a860208b01613214565b1660208201526001600160801b036145c260408b01613228565b1660408201520196019201906143a0565b90506145de81615062565b906142aa565b506145f160a084016146aa565b156142a5565b5094935095509550506020925020910135907fd04cd9af813f6f0b56e9411a6ee6a84eb5ac35a96f0c33d2e3a07d65baa8f4186020604051848152a15f5260205260405f2090565b5050507fc5d2460186f7233c927e7db2dcc703c0e500b653ca82273b7bfad8045d85a47090565b6306d6c38360e01b5f5260045ffd5b903590601e1981360301821215612c7b57018035906001600160401b038211612c7b57602001918160061b36038313612c7b57565b358015158103612c7b5790565b903590605e1981360301821215612c7b570190565b60c0820160016146dc828561418b565b905011614a62576146ed818461418b565b90501561463f576146fe908361418b565b1561364857803590607e1981360301821215612c7b5701916060830190602061472683613772565b91019065ffffffffffff8061473a84613772565b1691161015614a535761474c82613772565b65ffffffffffff80600286015460201c16911610614a445761479265ffffffffffff61478b6147858261477e87613772565b16876150a8565b93613772565b16846150a8565b1115614a35576007820154600690920180548435946001600160a01b0394851694604082019391925f916020911660446147d8836147d089896146b7565b01358b613843565b604051948593849263095ea7b360e01b84528c600485015260248401525af1908115613197575f91614a16575b5015614a07575460405163394f179b60e11b81526001600160a01b03909116600482015260248101959095526020818101356044870152856064815f885af1948515613197575f956149cf575b509061485d916146b7565b9161486782613772565b9260405193637fbe95b560e01b85526040600486015260a48501918035601e1982360301811215612c7b578101602081359101936001600160401b038211612c7b578160061b36038513612c7b5760606044890152819052869360c485019392915f5b81811061499757505050836020959365ffffffffffff829484895f9601356064860152614900604060018060a01b039201613214565b16608485015216602483015203925af1918215613197575f92614961575b5061492890613772565b6040519160208301938452604083015265ffffffffffff60d01b9060d01b1660608201526046815261495b6066826132bd565b51902090565b9091506020813d60201161498f575b8161497d602093836132bd565b81010312612c7b57519061492861491e565b3d9150614970565b919550919293604080600192838060a01b036149b28a613214565b1681526020890135602082015201960191019188959493926148ca565b919094506020823d6020116149ff575b816149ec602093836132bd565b81010312612c7b5790519361485d614852565b3d91506149df565b6367b9145160e01b5f5260045ffd5b614a2f915060203d60201161066e5761066081836132bd565b5f614805565b6308027f7760e31b5f5260045ffd5b637bde91e760e11b5f5260045ffd5b63087a19ab60e41b5f5260045ffd5b633249ceed60e11b5f5260045ffd5b903590601e1981360301821215612c7b57018035906001600160401b038211612c7b57602001918136038313612c7b57565b9060e081016001614ab4828461418b565b905011614d1757614ac5818361418b565b90501561463f57614ad59161418b565b1561364857803590609e1981360301821215612c7b57016060810190614afb828261418b565b905015614d085765ffffffffffff600284015460201c1691614b1d8342613529565b614b2c6016860154809261354a565b9360808401359460018101809111613536578503614cf957614b5185614b5793613592565b90613843565b93614b66601782015486613529565b4210614cea57614b75906150d0565b934260058601541015614cdb57614bca906040840195614bbc614bc4614b9b8988614a71565b9190614ba7888a61418b565b949091614bb4368c6135a5565b9436916132f9565b9336916135e4565b92613f2f565b7fa1a3b42179ad30022438a1ea333b38eaf4a7329beee5e2b8111c0dcd4e08821c6020604051858152a160a082360312612c7b5760405193614c0b856132a2565b614c1536846135a5565b8552356001600160401b038111612c7b57614c33903690840161332f565b602085015235906001600160401b038211612c7b570136601f82011215612c7b57614c659036906020813591016135e4565b91826040820152816060820152519160208351930151906040519283926020840195865260408401526060830160208351919301905f5b818110614cb95750505081520380825261495b90602001826132bd565b82516001600160a01b0316855286955060209485019490920191600101614c9c565b6333fc8f5160e21b5f5260045ffd5b6372a84ce560e11b5f5260045ffd5b6343d3f5bf60e01b5f5260045ffd5b636c2bf3db60e01b5f5260045ffd5b631d3fc6bf60e21b5f5260045ffd5b909493919365ffffffffffff600283015460201c16614d4542846150a8565b614d5d614d5760168601548093613592565b83613843565b918284108080614f79575b15614f4757508310614f3957614d7e9083613843565b10614f2a57614d8e905b8261501b565b94601960f81b5f523060601b60025260165260365f2093600281101561338a5780614e1f57505060018103614e10571561364857614dcf81614dd692614a71565b36916132f9565b916060835103614e015782602061334a940151606060408301519201519260018154910154906150eb565b632ce466bf60e01b5f5260045ffd5b6360a1ea7760e01b5f5260045ffd5b919391600114614e325750505050505f90565b614e5790600860048796970154910154906001600160801b038260801c921690614f8f565b925f9260035f9201915b86811015614f1f57614e87610511614e81614dcf8460051b860186614a71565b86615617565b6001600160a01b0381165f9081526020859052604090205460ff16614eb2575b506001905b01614e61565b6001600160a01b03165f9081527ff02b465737fa6045c2ff53fb2df43c66916ac2166fa303264668fb2f6a1d8c0060205260409020805c15614ef75750600190614eac565b946001614f0592965d6138e8565b93858514614f13575f614ea7565b50505050505050600190565b505050505050505f90565b63046bb1e560e51b5f5260045ffd5b62f4462b60e01b5f5260045ffd5b9392915050428211614f6a57614d8e92614f62575b50614d88565b90505f614f5c565b6347860b9760e01b5f5260045ffd5b50614f88601887015485613843565b4210614d68565b6001600160801b03809216029116614fa7818361354a565b91811561355457061561334a5760010190565b614fc26153ce565b614fca6154d5565b6040519060208201927f8b73c3c69bb8fe3d512ecc4cf759cc79239f7b179b0ffacaa9a75d522b39400f8452604083015260608201524660808201523060a082015260a0815261495b60c0826132bd565b9061502690826155b7565b1561503157600f0190565b60090190565b60ff5f5160206157d35f395f51905f525460401c161561505357565b631afcd79f60e31b5f5260045ffd5b356001600160801b0381168103612c7b5790565b35908115158203612c7b57565b6040519190601f01601f191682016001600160401b03811183821017612c7b57604052565b60166150c761334a9365ffffffffffff600285015460201c1690613529565b9101549061354a565b6150da42826155b7565b156150e55760090190565b600f0190565b92939194906150fa8587615651565b1561528d57821561528d5770014551231950b75fc4402da1732fc9bebe1983101561528d576001169061010e61512f81615083565b9160883684376002600188160160888401538760898401526002840160a984015360aa830186905260ca8301527e300046524f53542d736563703235366b312d4b454343414b3235362d76316360ea8301526303430b6160e51b61010a830152812060cc820181815290600260ec84016001815360428420809318845253604270014551231950b75fc4402da1732fc9bebe19922060801c6001600160401b0360801b8260801b16179070014551231950b75fc4402da1732fc9bebe1990600160c01b9060401c09088015614f1f5784601b6080945f9660209870014551231950b75fc4402da1732fc9bebe19910970014551231950b75fc4402da1732fc9bebe19038552018684015280604084015270014551231950b75fc4402da1732fc9bebe19910970014551231950b75fc4402da1732fc9bebe1903606082015282805260015afa505f51915f5260205260018060a01b0360405f20161490565b5050505050505f90565b61529f613785565b50600281015460058201546040519290916152df916004916001600160a01b03166152c9866132a2565b6152d2826134bf565b86526020860152016137f0565b6040830152606082015290565b91907f7fffffffffffffffffffffffffffffff5d576e7357a4501ddfe92f46681b20a08411615363579160209360809260ff5f9560405194855216868401526040830152606082015282805260015afa15613197575f516001600160a01b0381161561535957905f905f90565b505f906001905f90565b5050505f9160039190565b600481101561338a5780615380575050565b600181036153975763f645eedf60e01b5f5260045ffd5b600281036153b2575063fce698f760e01b5f5260045260245ffd5b6003146153bc5750565b6335e2f38360e21b5f5260045260245ffd5b6040515f5160206156d35f395f51905f5254905f816153ec846140f3565b9182825260208201946001811690815f146154b95750600114615461575b615416925003826132bd565b51908115615422572090565b50505f5160206157335f395f51905f5254801561543c5790565b507fc5d2460186f7233c927e7db2dcc703c0e500b653ca82273b7bfad8045d85a47090565b505f5160206156d35f395f51905f525f90815290915f5160206157535f395f51905f525b81831061549d5750509060206154169282010161540a565b6020919350806001915483858801015201910190918392615485565b60ff191686525061541692151560051b8201602001905061540a565b6040515f5160206157135f395f51905f5254905f816154f3846140f3565b9182825260208201946001811690815f1461559b5750600114615543575b61551d925003826132bd565b51908115615529572090565b50505f5160206157f35f395f51905f5254801561543c5790565b505f5160206157135f395f51905f525f90815290915f5160206158135f395f51905f525b81831061557f57505090602061551d92820101615511565b6020919350806001915483858801015201910190918392615567565b60ff191686525061551d92151560051b82016020019050615511565b906014600e83015492015480831461560857818184109311918215911115918190615601575b156155f257826155ec57505090565b14919050565b634c38ae9560e11b5f5260045ffd5b50816155dd565b63f26224af60e01b5f5260045ffd5b8151919060418303615647576156409250602082015190606060408401519301515f1a906152ec565b9192909190565b50505f9160029190565b6401000003d01990600790829081818009900908906401000003d0199080091490565b90615698575080511561568957602081519101fd5b63d6bda27560e01b5f5260045ffd5b815115806156c9575b6156a9575090565b639996b31560e01b5f9081526001600160a01b0391909116600452602490fd5b50803b156156a156fea16a46d94261c7517cc8ff89f61c0ce93598e3c849801011dee649a6a557d1029016d09d72d40fdae2fd8ceac6b6234c7706214fd39c1cd1e609a0528c199300a16a46d94261c7517cc8ff89f61c0ce93598e3c849801011dee649a6a557d103a16a46d94261c7517cc8ff89f61c0ce93598e3c849801011dee649a6a557d10042ad5d3e1f2e6e70edcf6d991b8a3023d3fca8047a131592f9edb9fd9b89d57d360894a13ba1a3210667c828492db98dca3e2076cc3735a920a3ca505d382bbc5c09ca1b9b8127a4fd9f3c384aac59b661441e820e17733753ff5f2e86e1e000cd5ed15c6e187e77e9aee88184c21f4f2182ab5827cb3b7e07fbedcd63f03300f0c57e16840df040f15088dc2f81fe391c3923bec73e23a9662efc9c229c6a00a16a46d94261c7517cc8ff89f61c0ce93598e3c849801011dee649a6a557d1015f9ce34815f8e11431c7bb75a8e6886a91478f7ffc1dbb0a98dc240fddd76b75f0c57e16840df040f15088dc2f81fe391c3923bec73e23a9662efc9c229c6a00","linkReferences":{}},"methodIdentifiers":{"DOMAIN_SEPARATOR()":"3644e515","UPGRADE_INTERFACE_VERSION()":"ad3cb1cc","areValidators(address[])":"8f381dbe","codeState(bytes32)":"c13911e8","codesStates(bytes32[])":"82bdeaad","commitBatch((bytes32,uint48,bytes32,uint8,((address,bytes32,bool,address,uint128,bool,(bytes32,address,uint128)[],(bytes32,address,bytes,uint128,(bytes32,bytes4),bool)[])[],bytes32)[],(bytes32,bool)[],((uint256,bytes32),((address,uint256)[],uint256,address),uint48)[],((uint256,uint256),bytes,address[],uint256)[]),uint8,bytes[])":"b24fcac0","computeSettings()":"84d22a4f","createProgram(bytes32,bytes32,address)":"3683c4d2","createProgramWithAbiInterface(bytes32,bytes32,address,address)":"0c18d277","createProgramWithAbiInterfaceAndValue(bytes32,bytes32,address,address,uint128,uint256,uint8,bytes32,bytes32)":"6e55012a","createProgramWithValue(bytes32,bytes32,address,uint128,uint256,uint8,bytes32,bytes32)":"33e0d48e","eip712Domain()":"84b0196e","genesisBlockHash()":"28e24b3d","genesisTimestamp()":"cacf66ab","initialize(address,address,address,address,uint256,uint256,uint256,(uint256,uint256),bytes,address[])":"53f7fd48","isValidator(address)":"facd743b","latestCommittedBatchHash()":"71a8cf2d","latestCommittedBatchTimestamp()":"d456fd51","lookupGenesisHash()":"8b1edf1e","middleware()":"f4f20ac0","mirrorImpl()":"e6fabc09","owner()":"8da5cb5b","pause()":"8456cb59","paused()":"5c975abb","programCodeId(address)":"9067088e","programsCodeIds(address[])":"baaf0201","programsCount()":"96a2ddfa","proxiableUUID()":"52d1902d","reinitialize()":"6c2eb350","renounceOwnership()":"715018a6","requestCodeValidation(bytes32,uint256,uint8,bytes32,bytes32)":"8c4ace6a","requestCodeValidationBaseFee()":"188509e9","requestCodeValidationExtraFee()":"f1ef31ec","requestCodeValidationOnBehalf(address,bytes32,bytes32[],uint256,uint8,bytes32,bytes32,uint8,bytes32,bytes32)":"f0fd702a","setMirror(address)":"3d43b418","signingThresholdFraction()":"e3a6684f","storageView()":"c2eb812f","timelines()":"9eb939a8","transferOwnership(address)":"f2fde38b","unpause()":"3f4ba83a","upgradeToAndCall(address,bytes)":"4f1ef286","validatedCodesCount()":"007a32e7","validators()":"ca1e7819","validatorsAggregatedPublicKey()":"3bd109fa","validatorsCount()":"ed612f8c","validatorsThreshold()":"edc87225","validatorsVerifiableSecretSharingCommitment()":"a5d53a44","wrappedVara()":"88f50cf0"},"storageLayout":{"storage":[],"types":{}},"id":165}