{"abi":[{"type":"constructor","inputs":[],"stateMutability":"nonpayable"},{"type":"receive","stateMutability":"payable"},{"type":"function","name":"UPGRADE_INTERFACE_VERSION","inputs":[],"outputs":[{"name":"","type":"string","internalType":"string"}],"stateMutability":"view"},{"type":"function","name":"areValidators","inputs":[{"name":"_validators","type":"address[]","internalType":"address[]"}],"outputs":[{"name":"","type":"bool","internalType":"bool"}],"stateMutability":"view"},{"type":"function","name":"codeState","inputs":[{"name":"_codeId","type":"bytes32","internalType":"bytes32"}],"outputs":[{"name":"","type":"uint8","internalType":"enum Gear.CodeState"}],"stateMutability":"view"},{"type":"function","name":"codesStates","inputs":[{"name":"_codesIds","type":"bytes32[]","internalType":"bytes32[]"}],"outputs":[{"name":"","type":"uint8[]","internalType":"enum Gear.CodeState[]"}],"stateMutability":"view"},{"type":"function","name":"commitBatch","inputs":[{"name":"_batch","type":"tuple","internalType":"struct Gear.BatchCommitment","components":[{"name":"blockHash","type":"bytes32","internalType":"bytes32"},{"name":"blockTimestamp","type":"uint48","internalType":"uint48"},{"name":"previousCommittedBatchHash","type":"bytes32","internalType":"bytes32"},{"name":"expiry","type":"uint8","internalType":"uint8"},{"name":"chainCommitment","type":"tuple[]","internalType":"struct Gear.ChainCommitment[]","components":[{"name":"transitions","type":"tuple[]","internalType":"struct Gear.StateTransition[]","components":[{"name":"actorId","type":"address","internalType":"address"},{"name":"newStateHash","type":"bytes32","internalType":"bytes32"},{"name":"exited","type":"bool","internalType":"bool"},{"name":"inheritor","type":"address","internalType":"address"},{"name":"valueToReceive","type":"uint128","internalType":"uint128"},{"name":"valueToReceiveNegativeSign","type":"bool","internalType":"bool"},{"name":"valueClaims","type":"tuple[]","internalType":"struct Gear.ValueClaim[]","components":[{"name":"messageId","type":"bytes32","internalType":"bytes32"},{"name":"destination","type":"address","internalType":"address"},{"name":"value","type":"uint128","internalType":"uint128"}]},{"name":"messages","type":"tuple[]","internalType":"struct Gear.Message[]","components":[{"name":"id","type":"bytes32","internalType":"bytes32"},{"name":"destination","type":"address","internalType":"address"},{"name":"payload","type":"bytes","internalType":"bytes"},{"name":"value","type":"uint128","internalType":"uint128"},{"name":"replyDetails","type":"tuple","internalType":"struct Gear.ReplyDetails","components":[{"name":"to","type":"bytes32","internalType":"bytes32"},{"name":"code","type":"bytes4","internalType":"bytes4"}]},{"name":"call","type":"bool","internalType":"bool"}]}]},{"name":"head","type":"bytes32","internalType":"bytes32"}]},{"name":"codeCommitments","type":"tuple[]","internalType":"struct Gear.CodeCommitment[]","components":[{"name":"id","type":"bytes32","internalType":"bytes32"},{"name":"valid","type":"bool","internalType":"bool"}]},{"name":"rewardsCommitment","type":"tuple[]","internalType":"struct Gear.RewardsCommitment[]","components":[{"name":"operators","type":"tuple","internalType":"struct Gear.OperatorRewardsCommitment","components":[{"name":"amount","type":"uint256","internalType":"uint256"},{"name":"root","type":"bytes32","internalType":"bytes32"}]},{"name":"stakers","type":"tuple","internalType":"struct Gear.StakerRewardsCommitment","components":[{"name":"distribution","type":"tuple[]","internalType":"struct Gear.StakerRewards[]","components":[{"name":"vault","type":"address","internalType":"address"},{"name":"amount","type":"uint256","internalType":"uint256"}]},{"name":"totalAmount","type":"uint256","internalType":"uint256"},{"name":"token","type":"address","internalType":"address"}]},{"name":"timestamp","type":"uint48","internalType":"uint48"}]},{"name":"validatorsCommitment","type":"tuple[]","internalType":"struct Gear.ValidatorsCommitment[]","components":[{"name":"aggregatedPublicKey","type":"tuple","internalType":"struct Gear.AggregatedPublicKey","components":[{"name":"x","type":"uint256","internalType":"uint256"},{"name":"y","type":"uint256","internalType":"uint256"}]},{"name":"verifiableSecretSharingCommitment","type":"bytes","internalType":"bytes"},{"name":"validators","type":"address[]","internalType":"address[]"},{"name":"eraIndex","type":"uint256","internalType":"uint256"}]}]},{"name":"_signatureType","type":"uint8","internalType":"enum Gear.SignatureType"},{"name":"_signatures","type":"bytes[]","internalType":"bytes[]"}],"outputs":[],"stateMutability":"nonpayable"},{"type":"function","name":"computeSettings","inputs":[],"outputs":[{"name":"","type":"tuple","internalType":"struct Gear.ComputationSettings","components":[{"name":"threshold","type":"uint64","internalType":"uint64"},{"name":"wvaraPerSecond","type":"uint128","internalType":"uint128"}]}],"stateMutability":"view"},{"type":"function","name":"createProgram","inputs":[{"name":"_codeId","type":"bytes32","internalType":"bytes32"},{"name":"_salt","type":"bytes32","internalType":"bytes32"},{"name":"_overrideInitializer","type":"address","internalType":"address"}],"outputs":[{"name":"","type":"address","internalType":"address"}],"stateMutability":"nonpayable"},{"type":"function","name":"createProgramWithAbiInterface","inputs":[{"name":"_codeId","type":"bytes32","internalType":"bytes32"},{"name":"_salt","type":"bytes32","internalType":"bytes32"},{"name":"_overrideInitializer","type":"address","internalType":"address"},{"name":"_abiInterface","type":"address","internalType":"address"}],"outputs":[{"name":"","type":"address","internalType":"address"}],"stateMutability":"nonpayable"},{"type":"function","name":"genesisBlockHash","inputs":[],"outputs":[{"name":"","type":"bytes32","internalType":"bytes32"}],"stateMutability":"view"},{"type":"function","name":"genesisTimestamp","inputs":[],"outputs":[{"name":"","type":"uint48","internalType":"uint48"}],"stateMutability":"view"},{"type":"function","name":"initialize","inputs":[{"name":"_owner","type":"address","internalType":"address"},{"name":"_mirror","type":"address","internalType":"address"},{"name":"_wrappedVara","type":"address","internalType":"address"},{"name":"_middleware","type":"address","internalType":"address"},{"name":"_eraDuration","type":"uint256","internalType":"uint256"},{"name":"_electionDuration","type":"uint256","internalType":"uint256"},{"name":"_validationDelay","type":"uint256","internalType":"uint256"},{"name":"_aggregatedPublicKey","type":"tuple","internalType":"struct Gear.AggregatedPublicKey","components":[{"name":"x","type":"uint256","internalType":"uint256"},{"name":"y","type":"uint256","internalType":"uint256"}]},{"name":"_verifiableSecretSharingCommitment","type":"bytes","internalType":"bytes"},{"name":"_validators","type":"address[]","internalType":"address[]"}],"outputs":[],"stateMutability":"nonpayable"},{"type":"function","name":"isValidator","inputs":[{"name":"_validator","type":"address","internalType":"address"}],"outputs":[{"name":"","type":"bool","internalType":"bool"}],"stateMutability":"view"},{"type":"function","name":"latestCommittedBatchHash","inputs":[],"outputs":[{"name":"","type":"bytes32","internalType":"bytes32"}],"stateMutability":"view"},{"type":"function","name":"latestCommittedBatchTimestamp","inputs":[],"outputs":[{"name":"","type":"uint48","internalType":"uint48"}],"stateMutability":"view"},{"type":"function","name":"lookupGenesisHash","inputs":[],"outputs":[],"stateMutability":"nonpayable"},{"type":"function","name":"middleware","inputs":[],"outputs":[{"name":"","type":"address","internalType":"address"}],"stateMutability":"view"},{"type":"function","name":"mirrorImpl","inputs":[],"outputs":[{"name":"","type":"address","internalType":"address"}],"stateMutability":"view"},{"type":"function","name":"owner","inputs":[],"outputs":[{"name":"","type":"address","internalType":"address"}],"stateMutability":"view"},{"type":"function","name":"pause","inputs":[],"outputs":[],"stateMutability":"nonpayable"},{"type":"function","name":"paused","inputs":[],"outputs":[{"name":"","type":"bool","internalType":"bool"}],"stateMutability":"view"},{"type":"function","name":"programCodeId","inputs":[{"name":"_programId","type":"address","internalType":"address"}],"outputs":[{"name":"","type":"bytes32","internalType":"bytes32"}],"stateMutability":"view"},{"type":"function","name":"programsCodeIds","inputs":[{"name":"_programsIds","type":"address[]","internalType":"address[]"}],"outputs":[{"name":"","type":"bytes32[]","internalType":"bytes32[]"}],"stateMutability":"view"},{"type":"function","name":"programsCount","inputs":[],"outputs":[{"name":"","type":"uint256","internalType":"uint256"}],"stateMutability":"view"},{"type":"function","name":"proxiableUUID","inputs":[],"outputs":[{"name":"","type":"bytes32","internalType":"bytes32"}],"stateMutability":"view"},{"type":"function","name":"reinitialize","inputs":[{"name":"newGenesis","type":"tuple","internalType":"struct Gear.GenesisBlockInfo","components":[{"name":"hash","type":"bytes32","internalType":"bytes32"},{"name":"number","type":"uint32","internalType":"uint32"},{"name":"timestamp","type":"uint48","internalType":"uint48"}]}],"outputs":[],"stateMutability":"nonpayable"},{"type":"function","name":"renounceOwnership","inputs":[],"outputs":[],"stateMutability":"nonpayable"},{"type":"function","name":"requestCodeValidation","inputs":[{"name":"_codeId","type":"bytes32","internalType":"bytes32"}],"outputs":[],"stateMutability":"nonpayable"},{"type":"function","name":"setMirror","inputs":[{"name":"newMirror","type":"address","internalType":"address"}],"outputs":[],"stateMutability":"nonpayable"},{"type":"function","name":"signingThresholdFraction","inputs":[],"outputs":[{"name":"","type":"uint128","internalType":"uint128"},{"name":"","type":"uint128","internalType":"uint128"}],"stateMutability":"view"},{"type":"function","name":"storageView","inputs":[],"outputs":[{"name":"","type":"tuple","internalType":"struct IRouter.StorageView","components":[{"name":"genesisBlock","type":"tuple","internalType":"struct Gear.GenesisBlockInfo","components":[{"name":"hash","type":"bytes32","internalType":"bytes32"},{"name":"number","type":"uint32","internalType":"uint32"},{"name":"timestamp","type":"uint48","internalType":"uint48"}]},{"name":"latestCommittedBatch","type":"tuple","internalType":"struct Gear.CommittedBatchInfo","components":[{"name":"hash","type":"bytes32","internalType":"bytes32"},{"name":"timestamp","type":"uint48","internalType":"uint48"}]},{"name":"implAddresses","type":"tuple","internalType":"struct Gear.AddressBook","components":[{"name":"mirror","type":"address","internalType":"address"},{"name":"wrappedVara","type":"address","internalType":"address"},{"name":"middleware","type":"address","internalType":"address"}]},{"name":"validationSettings","type":"tuple","internalType":"struct Gear.ValidationSettingsView","components":[{"name":"thresholdNumerator","type":"uint128","internalType":"uint128"},{"name":"thresholdDenominator","type":"uint128","internalType":"uint128"},{"name":"validators0","type":"tuple","internalType":"struct Gear.ValidatorsView","components":[{"name":"aggregatedPublicKey","type":"tuple","internalType":"struct Gear.AggregatedPublicKey","components":[{"name":"x","type":"uint256","internalType":"uint256"},{"name":"y","type":"uint256","internalType":"uint256"}]},{"name":"verifiableSecretSharingCommitmentPointer","type":"address","internalType":"address"},{"name":"list","type":"address[]","internalType":"address[]"},{"name":"useFromTimestamp","type":"uint256","internalType":"uint256"}]},{"name":"validators1","type":"tuple","internalType":"struct Gear.ValidatorsView","components":[{"name":"aggregatedPublicKey","type":"tuple","internalType":"struct Gear.AggregatedPublicKey","components":[{"name":"x","type":"uint256","internalType":"uint256"},{"name":"y","type":"uint256","internalType":"uint256"}]},{"name":"verifiableSecretSharingCommitmentPointer","type":"address","internalType":"address"},{"name":"list","type":"address[]","internalType":"address[]"},{"name":"useFromTimestamp","type":"uint256","internalType":"uint256"}]}]},{"name":"computeSettings","type":"tuple","internalType":"struct Gear.ComputationSettings","components":[{"name":"threshold","type":"uint64","internalType":"uint64"},{"name":"wvaraPerSecond","type":"uint128","internalType":"uint128"}]},{"name":"timelines","type":"tuple","internalType":"struct Gear.Timelines","components":[{"name":"era","type":"uint256","internalType":"uint256"},{"name":"election","type":"uint256","internalType":"uint256"},{"name":"validationDelay","type":"uint256","internalType":"uint256"}]},{"name":"programsCount","type":"uint256","internalType":"uint256"},{"name":"validatedCodesCount","type":"uint256","internalType":"uint256"}]}],"stateMutability":"view"},{"type":"function","name":"timelines","inputs":[],"outputs":[{"name":"","type":"tuple","internalType":"struct Gear.Timelines","components":[{"name":"era","type":"uint256","internalType":"uint256"},{"name":"election","type":"uint256","internalType":"uint256"},{"name":"validationDelay","type":"uint256","internalType":"uint256"}]}],"stateMutability":"view"},{"type":"function","name":"transferOwnership","inputs":[{"name":"newOwner","type":"address","internalType":"address"}],"outputs":[],"stateMutability":"nonpayable"},{"type":"function","name":"unpause","inputs":[],"outputs":[],"stateMutability":"nonpayable"},{"type":"function","name":"upgradeToAndCall","inputs":[{"name":"newImplementation","type":"address","internalType":"address"},{"name":"data","type":"bytes","internalType":"bytes"}],"outputs":[],"stateMutability":"payable"},{"type":"function","name":"validatedCodesCount","inputs":[],"outputs":[{"name":"","type":"uint256","internalType":"uint256"}],"stateMutability":"view"},{"type":"function","name":"validators","inputs":[],"outputs":[{"name":"","type":"address[]","internalType":"address[]"}],"stateMutability":"view"},{"type":"function","name":"validatorsAggregatedPublicKey","inputs":[],"outputs":[{"name":"","type":"tuple","internalType":"struct Gear.AggregatedPublicKey","components":[{"name":"x","type":"uint256","internalType":"uint256"},{"name":"y","type":"uint256","internalType":"uint256"}]}],"stateMutability":"view"},{"type":"function","name":"validatorsCount","inputs":[],"outputs":[{"name":"","type":"uint256","internalType":"uint256"}],"stateMutability":"view"},{"type":"function","name":"validatorsThreshold","inputs":[],"outputs":[{"name":"","type":"uint256","internalType":"uint256"}],"stateMutability":"view"},{"type":"function","name":"validatorsVerifiableSecretSharingCommitment","inputs":[],"outputs":[{"name":"","type":"bytes","internalType":"bytes"}],"stateMutability":"view"},{"type":"function","name":"wrappedVara","inputs":[],"outputs":[{"name":"","type":"address","internalType":"address"}],"stateMutability":"view"},{"type":"event","name":"AnnouncesCommitted","inputs":[{"name":"head","type":"bytes32","indexed":false,"internalType":"bytes32"}],"anonymous":false},{"type":"event","name":"BatchCommitted","inputs":[{"name":"hash","type":"bytes32","indexed":false,"internalType":"bytes32"}],"anonymous":false},{"type":"event","name":"CodeGotValidated","inputs":[{"name":"codeId","type":"bytes32","indexed":false,"internalType":"bytes32"},{"name":"valid","type":"bool","indexed":true,"internalType":"bool"}],"anonymous":false},{"type":"event","name":"CodeValidationRequested","inputs":[{"name":"codeId","type":"bytes32","indexed":false,"internalType":"bytes32"}],"anonymous":false},{"type":"event","name":"ComputationSettingsChanged","inputs":[{"name":"threshold","type":"uint64","indexed":false,"internalType":"uint64"},{"name":"wvaraPerSecond","type":"uint128","indexed":false,"internalType":"uint128"}],"anonymous":false},{"type":"event","name":"Initialized","inputs":[{"name":"version","type":"uint64","indexed":false,"internalType":"uint64"}],"anonymous":false},{"type":"event","name":"OwnershipTransferred","inputs":[{"name":"previousOwner","type":"address","indexed":true,"internalType":"address"},{"name":"newOwner","type":"address","indexed":true,"internalType":"address"}],"anonymous":false},{"type":"event","name":"Paused","inputs":[{"name":"account","type":"address","indexed":false,"internalType":"address"}],"anonymous":false},{"type":"event","name":"ProgramCreated","inputs":[{"name":"actorId","type":"address","indexed":false,"internalType":"address"},{"name":"codeId","type":"bytes32","indexed":true,"internalType":"bytes32"}],"anonymous":false},{"type":"event","name":"StorageSlotChanged","inputs":[{"name":"slot","type":"bytes32","indexed":false,"internalType":"bytes32"}],"anonymous":false},{"type":"event","name":"Unpaused","inputs":[{"name":"account","type":"address","indexed":false,"internalType":"address"}],"anonymous":false},{"type":"event","name":"Upgraded","inputs":[{"name":"implementation","type":"address","indexed":true,"internalType":"address"}],"anonymous":false},{"type":"event","name":"ValidatorsCommittedForEra","inputs":[{"name":"eraIndex","type":"uint256","indexed":false,"internalType":"uint256"}],"anonymous":false},{"type":"error","name":"AddressEmptyCode","inputs":[{"name":"target","type":"address","internalType":"address"}]},{"type":"error","name":"ApproveERC20Failed","inputs":[]},{"type":"error","name":"BatchTimestampNotInPast","inputs":[]},{"type":"error","name":"BatchTimestampTooEarly","inputs":[]},{"type":"error","name":"BlobNotFound","inputs":[]},{"type":"error","name":"CodeAlreadyOnValidationOrValidated","inputs":[]},{"type":"error","name":"CodeNotValidated","inputs":[]},{"type":"error","name":"CodeValidationNotRequested","inputs":[]},{"type":"error","name":"CommitmentEraNotNext","inputs":[]},{"type":"error","name":"DeploymentFailed","inputs":[]},{"type":"error","name":"ECDSAInvalidSignature","inputs":[]},{"type":"error","name":"ECDSAInvalidSignatureLength","inputs":[{"name":"length","type":"uint256","internalType":"uint256"}]},{"type":"error","name":"ECDSAInvalidSignatureS","inputs":[{"name":"s","type":"bytes32","internalType":"bytes32"}]},{"type":"error","name":"ERC1967InvalidImplementation","inputs":[{"name":"implementation","type":"address","internalType":"address"}]},{"type":"error","name":"ERC1967NonPayable","inputs":[]},{"type":"error","name":"ElectionNotStarted","inputs":[]},{"type":"error","name":"EmptyValidatorsList","inputs":[]},{"type":"error","name":"EnforcedPause","inputs":[]},{"type":"error","name":"EraDurationTooShort","inputs":[]},{"type":"error","name":"ErasTimestampMustNotBeEqual","inputs":[]},{"type":"error","name":"ExpectedPause","inputs":[]},{"type":"error","name":"FailedCall","inputs":[]},{"type":"error","name":"GenesisHashAlreadySet","inputs":[]},{"type":"error","name":"GenesisHashNotFound","inputs":[]},{"type":"error","name":"InvalidElectionDuration","inputs":[]},{"type":"error","name":"InvalidFROSTAggregatedPublicKey","inputs":[]},{"type":"error","name":"InvalidFrostSignatureCount","inputs":[]},{"type":"error","name":"InvalidFrostSignatureLength","inputs":[]},{"type":"error","name":"InvalidInitialization","inputs":[]},{"type":"error","name":"InvalidPreviousCommittedBatchHash","inputs":[]},{"type":"error","name":"InvalidTimestamp","inputs":[]},{"type":"error","name":"NotInitializing","inputs":[]},{"type":"error","name":"OwnableInvalidOwner","inputs":[{"name":"owner","type":"address","internalType":"address"}]},{"type":"error","name":"OwnableUnauthorizedAccount","inputs":[{"name":"account","type":"address","internalType":"address"}]},{"type":"error","name":"PredecessorBlockNotFound","inputs":[]},{"type":"error","name":"ReentrancyGuardReentrantCall","inputs":[]},{"type":"error","name":"RewardsCommitmentEraNotPrevious","inputs":[]},{"type":"error","name":"RewardsCommitmentPredatesGenesis","inputs":[]},{"type":"error","name":"RewardsCommitmentTimestampNotInPast","inputs":[]},{"type":"error","name":"RouterGenesisHashNotInitialized","inputs":[]},{"type":"error","name":"SignatureVerificationFailed","inputs":[]},{"type":"error","name":"TimestampInFuture","inputs":[]},{"type":"error","name":"TimestampOlderThanPreviousEra","inputs":[]},{"type":"error","name":"TooManyChainCommitments","inputs":[]},{"type":"error","name":"TooManyRewardsCommitments","inputs":[]},{"type":"error","name":"TooManyValidatorsCommitments","inputs":[]},{"type":"error","name":"UUPSUnauthorizedCallContext","inputs":[]},{"type":"error","name":"UUPSUnsupportedProxiableUUID","inputs":[{"name":"slot","type":"bytes32","internalType":"bytes32"}]},{"type":"error","name":"UnknownProgram","inputs":[]},{"type":"error","name":"ValidationBeforeGenesis","inputs":[]},{"type":"error","name":"ValidationDelayTooBig","inputs":[]},{"type":"error","name":"ValidatorsAlreadyScheduled","inputs":[]},{"type":"error","name":"ValidatorsNotFoundForTimestamp","inputs":[]},{"type":"error","name":"ZeroValueTransfer","inputs":[]}],"bytecode":{"object":"0x60a080604052346100c257306080525f5160206143365f395f51905f525460ff8160401c166100b3576002600160401b03196001600160401b03821601610060575b60405161426f90816100c782396080518181816119dd0152611a700152f35b6001600160401b0319166001600160401b039081175f5160206143365f395f51905f525581527fc7f505b2f371ae2175ee4913f4499e1f2633a7b5936321eed1cdaeb6115181d290602090a15f80610041565b63f92ee8a960e01b5f5260045ffd5b5f80fdfe6080806040526004361015610091575b50361561001a575f80fd5b610022612b87565b5f51602061420f5f395f51905f5254600181015415610082576001600160801b0334161561007357335f908152601a9190910160205260409020541561006457005b63821a62f560e01b5f5260045ffd5b63a1a7c6eb60e01b5f5260045ffd5b63580683f360e01b5f5260045ffd5b5f905f3560e01c9081627a32e71461258e575080630c18d277146120a0578063120e3f1e14611fc157806328e24b3d14611f935780633683c4d214611d685780633bd109fa14611d195780633d43b41814611cc55780633f4ba83a14611c455780634f1ef28614611a3157806352d1902d146119ca57806353f7fd48146115325780635c975abb14611503578063715018a61461149a57806371a8cf2d1461146c57806382bdeaad146113545780638456cb59146112e157806384d22a4f1461128357806388f50cf01461124a5780638b1edf1e146111e35780638da5cb5b146111ae5780638f381dbe146111685780639067088e1461111f57806396a2ddfa146110f15780639b20d80b14610f2c5780639eb939a814610ed5578063a5d53a4414610e42578063ad3cb1cc14610df9578063b24fcac01461094f578063baaf02011461084e578063c13911e81461080a578063c2eb812f146104de578063ca1e78191461048e578063cacf66ab14610456578063d456fd5114610420578063e3a6684f146103e1578063e6fabc09146103a8578063ed612f8c14610370578063edc872251461031b578063f2fde38b146102ee578063f4f20ac0146102b55763facd743b0361000f57346102b25760203660031901126102b2576102746125e4565b600361028f5f51602061420f5f395f51905f52544290613cec565b019060018060a01b03165f52602052602060ff60405f2054166040519015158152f35b80fd5b50346102b257806003193601126102b2575f51602061420f5f395f51905f5254600701546040516001600160a01b039091168152602090f35b50346102b25760203660031901126102b25761031861030b6125e4565b610313612bbc565b612b16565b80f35b50346102b257806003193601126102b25760206103685f51602061420f5f395f51905f52546008600461034e4284613cec565b0154910154906001600160801b038260801c921690613cc1565b604051908152f35b50346102b257806003193601126102b2576020600461039e5f51602061420f5f395f51905f52544290613cec565b0154604051908152f35b50346102b257806003193601126102b2575f51602061420f5f395f51905f5254600501546040516001600160a01b039091168152602090f35b50346102b257806003193601126102b257604060085f51602061420f5f395f51905f525401548151906001600160801b038116825260801c6020820152f35b50346102b257806003193601126102b257602065ffffffffffff60045f51602061420f5f395f51905f5254015416604051908152f35b50346102b257806003193601126102b257602065ffffffffffff60025f51602061420f5f395f51905f52540154821c16604051908152f35b50346102b257806003193601126102b2576104da6104c660046104c05f51602061420f5f395f51905f52544290613cec565b01612ac3565b604051918291602083526020830190612780565b0390f35b50346102b257806003193601126102b2576040516104fb81612658565b6105036129f1565b81526040516105118161263d565b5f8152602081015f905260208201526105286129f1565b6040820152610535612a90565b60608201526040516105468161263d565b5f8082526020820152608082015261055c6129f1565b60a08201528160c082015260e001525f51602061420f5f395f51905f5254610582612a90565b5061058f60098201613f7c565b9061059c600f8201613f7c565b600882015492604051936105af85612674565b6001600160801b038116855260801c602085015260408401526060830152601b81015490601c810154604051926105e584612658565b6040516105f18161260e565b60018401548152600284015463ffffffff8116602083015260201c65ffffffffffff1660408201528452604051946106288661263d565b60038401548652600484015465ffffffffffff16602087015260208501958652604051906106558261260e565b60058501546001600160a01b03908116835260068601548116602084015260078601541660408084019190915286019182526060860190815261069a60158601612943565b94608087019586526016016106ae90612a0f565b9160a0870192835260c0870193845260e087019485526040519788976020895251805160208a0152602081015163ffffffff1660408a01526040015165ffffffffffff16606089015251805160808901526020015165ffffffffffff1660a088015251600160a01b6001900381511660c0880152600160a01b6001900360208201511660e0880152600160a01b60019003906040015116610100870152516101208601610200905280516001600160801b031661022087015260208101516001600160801b031661024087015260408101516102608701608090526102a08701610797916127bc565b90606001519061021f19878203016102808801526107b4916127bc565b935180516001600160401b0316610140870152602001516001600160801b031661016086015251805161018086015260208101516101a0860152604001516101c0850152516101e0840152516102008301520390f35b50346102b25760203660031901126102b25760ff604060209260195f51602061420f5f395f51905f5254016004358252845220541661084c604051809261274f565bf35b50346102b25760203660031901126102b2576004356001600160401b03811161094b5761087f90369060040161271f565b905f51602061420f5f395f51905f525490610899836128a0565b916108a7604051938461268f565b8383526108b3846128a0565b602084019490601f1901368637601a869201915b81811061091257868587604051928392602084019060208552518091526040840192915b8181106108f9575050500390f35b82518452859450602093840193909201916001016108eb565b80610928610923600193858861290b565b612971565b828060a01b03165f528360205260405f2054610944828861292f565b52016108c7565b5080fd5b50346102b25760603660031901126102b2576001600160401b03600435116102b257610100600435360360031901126102b257600260243510156102b2576044356001600160401b03811161094b576109ac90369060040161271f565b7f9b779b17422d0df92223018b32b4d1fa46e071723d6817e2486d003becc55f005c610dea5760017f9b779b17422d0df92223018b32b4d1fa46e071723d6817e2486d003becc55f005d5f51602061420f5f395f51905f525490600182015415610ddb57815415610d7f575b60038201546044600435013503610d705765ffffffffffff60048301541665ffffffffffff610a4b602460043501612a45565b1610610d6257610a6060043560040183612ec0565b92610a7560a460043501600435600401613375565b808096925060051b0460201485151715610d4e57610a958560051b613d68565b8695865b818810610c055750610bcb965060051b902090610abb600435600401866133d9565b610aca600435600401876137cc565b90610ad9602460043501612a45565b93610ae8606460043501612a37565b9360405194602086019660043560040135885265ffffffffffff60d01b9060d01b16604087015260446004350135604687015260ff60f81b9060f81b1660668601526067850152608784015260a783015260c782015260c78152610b4d60e78261268f565b5190209283600382015565ffffffffffff610b6c602460043501612a45565b1665ffffffffffff196004830154161760048201557f7ebe42360bcb182fe0a88148b081e4557c89d09aa6af8307635ac2f83e2aaa656020604051868152a165ffffffffffff610bc0602460043501612a45565b169360243591613a4f565b15610bf657807f9b779b17422d0df92223018b32b4d1fa46e071723d6817e2486d003becc55f005d80f35b63729d0f6b60e01b8152600490fd5b610c1960a460043501600435600401613375565b891015610d3a578860061b8101358a526019880160205260ff60408b2054166003811015610d2657600103610d1757600191602091610cdc8b8b8e868360061b86010192610c66846133aa565b15610cf85760061b85013590525060198c01855260408e20805460ff19166002179055601c8c018054610c9890612bae565b90555b8c7f460119a8f69a33ed127de517d5ea464e958ce23ef19e4420a8b92bf780bbc2c986610cc7846133aa565b1515926040519060061b8701358152a26133aa565b908b60061b01358c52825360218b208186015201970196610a99565b60409260199160061b87013583520187522060ff198154169055610c9b565b636e83084760e11b8a5260048afd5b634e487b7160e01b8b52602160045260248bfd5b634e487b7160e01b8a52603260045260248afd5b634e487b7160e01b86526011600452602486fd5b620725b160ea1b8452600484fd5b63164b6fc360e01b8452600484fd5b610d9c610d90606460043501612a37565b60043560040135612e2b565b15610dcc5765ffffffffffff610db6602460043501612a45565b164211610a1857631ad8809560e31b8452600484fd5b637b8cb35960e01b8452600484fd5b63580683f360e01b8452600484fd5b633ee5aeb560e01b8352600483fd5b50346102b257806003193601126102b257506104da604051610e1c60408261268f565b60058152640352e302e360dc1b602082015260405191829160208352602083019061275c565b50346102b257806003193601126102b2575f51602061420f5f395f51905f52546001600160a01b0390600290610e79904290613cec565b01541690813b905f19820190828211610ec1575060016104da9360405193603e601f19910116840160405282845260208401903c60405191829160208352602083019061275c565b634e487b7160e01b81526011600452602490fd5b50346102b257806003193601126102b257610eee6129f1565b506060610f0b60165f51602061420f5f395f51905f525401612a0f565b61084c60405180926040809180518452602081015160208501520151910152565b50346102b25760603660031901126102b25760405190610f4b8261260e565b60043582526024359163ffffffff8316830361094b57602081019283526044359265ffffffffffff841684036110ed5760408201938452610f8a612bbc565b5f51602061424f5f395f51905f525460ff8160401c169081156110d8575b506110c9575f51602061424f5f395f51905f52805468ffffffffffffffffff1916680100000000000000021790555f5160206141cf5f395f51905f52549293600493611007906001600160a01b0316610fff613d08565b610313613d08565b5f51602061420f5f395f51905f52549251600184015563ffffffff6002840192511669ffffffffffff000000008354925160201b169169ffffffffffffffffffff19161717905582602060405161105d8161263d565b82815201528260038201550165ffffffffffff19815416905560ff60401b195f51602061424f5f395f51905f5254165f51602061424f5f395f51905f52557fc7f505b2f371ae2175ee4913f4499e1f2633a7b5936321eed1cdaeb6115181d2602060405160028152a180f35b63f92ee8a960e01b8352600483fd5b600291506001600160401b031610155f610fa8565b8280fd5b50346102b257806003193601126102b2576020601b5f51602061420f5f395f51905f52540154604051908152f35b50346102b25760203660031901126102b2576111396125e4565b601a5f51602061420f5f395f51905f5254019060018060a01b03165f52602052602060405f2054604051908152f35b50346102b25760203660031901126102b257600435906001600160401b0382116102b25760206111a461119e366004860161271f565b90612985565b6040519015158152f35b50346102b257806003193601126102b2575f5160206141cf5f395f51905f52546040516001600160a01b039091168152602090f35b50346102b257806003193601126102b2576111fc612b87565b5f51602061420f5f395f51905f52546001810190815461123b576002015463ffffffff164090811561122c575580f35b63f7bac7b560e01b8352600483fd5b6309476b0360e41b8352600483fd5b50346102b257806003193601126102b2575f51602061420f5f395f51905f5254600601546040516001600160a01b039091168152602090f35b50346102b257806003193601126102b25761129c612803565b5060406112b960155f51602061420f5f395f51905f525401612943565b61084c825180926001600160801b03602080926001600160401b038151168552015116910152565b50346102b257806003193601126102b2576112fa612bbc565b611302612b87565b600160ff195f51602061422f5f395f51905f525416175f51602061422f5f395f51905f52557f62e78cea01bee320cd4e420270b5ea74000d11b0c9f74754ebdbfc544b05a2586020604051338152a180f35b50346102b25760203660031901126102b2576004356001600160401b03811161094b5761138590369060040161271f565b905f51602061420f5f395f51905f52549061139f836128a0565b916113ad604051938461268f565b8383526113b9846128a0565b602084019490601f19013686376019869201915b81811061142257868587604051928392602084019060208552518091526040840192915b8181106113ff575050500390f35b9193509160208082611414600194885161274f565b0194019101918493926113f1565b61142d81838661290b565b3587528260205260ff604088205416611446828761292f565b600382101561145857526001016113cd565b634e487b7160e01b89526021600452602489fd5b50346102b257806003193601126102b257602060035f51602061420f5f395f51905f52540154604051908152f35b50346102b257806003193601126102b2576114b3612bbc565b5f5160206141cf5f395f51905f5280546001600160a01b0319811690915581906001600160a01b03167f8be0079c531659141344cd1fd0a4f28419497f9722a3daafe3b4186f6b6457e08280a380f35b50346102b257806003193601126102b257602060ff5f51602061422f5f395f51905f5254166040519015158152f35b50346102b2576101603660031901126102b25761154d6125e4565b6024356001600160a01b03811691908290036110ed5761156b6125b8565b6115736125ce565b60a435919060843560c43560403660e31901126119c65761012435946001600160401b0386116119c257366023870112156119c2578560040135926001600160401b0384116119be5736602485890101116119be57610144356001600160401b0381116119ba576115e890369060040161271f565b9690955f51602061424f5f395f51905f5254996001600160401b0360ff8c60401c16159b16801590816119b2575b60011490816119a8575b15908161199f575b506119905761166a908b60016001600160401b03195f51602061424f5f395f51905f525416175f51602061424f5f395f51905f5255611960575b610fff613d08565b611672613d08565b61167a613d08565b4215611951578315611942578383111561193357600a61169a8585612839565b0485101561192457908b96959493929160409b8c9283516116bb858261268f565b60178152602081017f726f757465722e73746f726167652e526f75746572563100000000000000000081526116ee612bbc565b5f1991519020018a5260ff1960208b2016998a5f51602061420f5f395f51905f525584518b815260207f059eb9adf6e95b839d818142ed5bd5e498b6d95138e65c91525e93cc0f0339fc91a16117426129f1565b504363ffffffff169085516117568161260e565b818152826020820152864265ffffffffffff1691015260018c015560028b01908154904260201b69ffffffffffff00000000169169ffffffffffffffffffff1916171790558351906117a78261260e565b8282526001600160a01b03908116602083018190529381169490910184905260058a018054919092166001600160a01b03199182161790915560068901805482169092179091556007880180549091169091179055700300000000000000000000000000000002600887015561181b612803565b5089516118278161263d565b639502f90081526509184e72a0006020909101526015860180546001600160c01b0319166d09184e72a000000000009502f900179055895183908b9061186c8161260e565b83815284602082015201526016860155601785015560188401558651946118928661263d565b60e43586526101043560208701526118ae9136916024016126cb565b90429336906118bc926128b7565b91600901936118ca94612c02565b6118d2575080f35b60207fc7f505b2f371ae2175ee4913f4499e1f2633a7b5936321eed1cdaeb6115181d29160ff60401b195f51602061424f5f395f51905f5254165f51602061424f5f395f51905f52555160018152a180f35b63145e348f60e01b8c5260048cfd5b6353b2bbed60e01b8c5260048cfd5b63f7ba6bdb60e01b8c5260048cfd5b63b7d0949760e01b8c5260048cfd5b600160401b60ff60401b195f51602061424f5f395f51905f525416175f51602061424f5f395f51905f5255611662565b63f92ee8a960e01b8d5260048dfd5b9050155f611628565b303b159150611620565b8c9150611616565b8a80fd5b8980fd5b8880fd5b8780fd5b50346102b257806003193601126102b2577f00000000000000000000000000000000000000000000000000000000000000006001600160a01b03163003611a225760206040515f5160206141ef5f395f51905f528152f35b63703e46dd60e11b8152600490fd5b5060403660031901126102b257611a466125e4565b906024356001600160401b03811161094b57611a66903690600401612701565b6001600160a01b037f000000000000000000000000000000000000000000000000000000000000000016308114908115611c23575b50611c1457611aa8612bbc565b6040516352d1902d60e01b8152926001600160a01b0381169190602085600481865afa80958596611bdc575b50611aed57634c9c8ce360e01b84526004839052602484fd5b9091845f5160206141ef5f395f51905f528103611bca5750813b15611bb8575f5160206141ef5f395f51905f5280546001600160a01b031916821790557fbc7cd75a20ee27fd9adebab32041f755214dbc6bffa90cc0225b39da2e5c2d3b8480a28151839015611b9e5780836020611b9295519101845af43d15611b96573d91611b76836126b0565b92611b84604051948561268f565b83523d85602085013e6140ee565b5080f35b6060916140ee565b50505034611ba95780f35b63b398979f60e01b8152600490fd5b634c9c8ce360e01b8452600452602483fd5b632a87526960e21b8552600452602484fd5b9095506020813d602011611c0c575b81611bf86020938361268f565b81010312611c085751945f611ad4565b5f80fd5b3d9150611beb565b63703e46dd60e11b8252600482fd5b5f5160206141ef5f395f51905f52546001600160a01b0316141590505f611a9b565b50346102b257806003193601126102b257611c5e612bbc565b5f51602061422f5f395f51905f525460ff811615611cb65760ff19165f51602061422f5f395f51905f52557f5db9ee0a495bf2e6ff9c91a7834c1ba4fdd244a5e8aa4e537bd38aeae4b073aa6020604051338152a180f35b638dfc202b60e01b8252600482fd5b50346102b25760203660031901126102b257611cdf6125e4565b611ce7612bbc565b5f51602061420f5f395f51905f525460050180546001600160a01b0319166001600160a01b0390921691909117905580f35b50346102b257806003193601126102b257611d32612803565b506040611d56611d515f51602061420f5f395f51905f52544290613cec565b61281b565b60208251918051835201516020820152f35b50346102b25760603660031901126102b257600435611d856125b8565b611d8d612b87565b5f51602061420f5f395f51905f5254600181015415610ddb578284526019810160205260ff6040852054166003811015611f7f57600203611f70578284526024356020526040842060405160608101908082106001600160401b03831117611f6c57605a916040527f3d605080600a3d3981f3608060405263e6fabc0960e01b5f5260205f6004817381523060601b6b5afa15604c575f80805136821760208201527f80378136915af43d5f803e156048573d5ff35b3d5ffd5b5f80fd000000000000604082015286f5908115611f68576001600160a01b0382165f908152601a820160205260409020849055601b018054611e8890612bae565b90556040516001600160a01b03821680825293907f8008ec1d8798725ebfa0f2d128d52e8e717dcba6e0f786557eeee70614b02bf190602090a2506001600160a01b038116611f635750335b5f51602061420f5f395f51905f5254600501546001600160a01b0316823b15611f5f57604051631c9776b560e31b81526001600160a01b039092166004830152602482015260016044820152828160648183865af18015611f5457611f3f575b602082604051908152f35b611f4a83809261268f565b61094b5781611f34565b6040513d85823e3d90fd5b8380fd5b611ed4565b8480fd5b8680fd5b630e2637d160e01b8452600484fd5b634e487b7160e01b85526021600452602485fd5b50346102b257806003193601126102b257602060015f51602061420f5f395f51905f52540154604051908152f35b50346102b25760203660031901126102b257600435611fde612b87565b814915612091575f51602061420f5f395f51905f5254600181015415612082576019018183528060205260ff604084205416600381101561206e5761205f5781835260209081526040808420805460ff19166001179055519182527f5c261a095dd5720475295dc06379921c003c22164ee6cae5cf83e76ce0a1b98591a180f35b6304c51a3360e31b8352600483fd5b634e487b7160e01b84526021600452602484fd5b63580683f360e01b8352600483fd5b637bb2fa2f60e11b8252600482fd5b34611c08576080366003190112611c08576004356120bc6125b8565b906120c56125ce565b916120ce612b87565b5f51602061420f5f395f51905f525460018101541561008257825f526019810160205260ff60405f205416600381101561257a5760020361256b57825f5260243560205260405f206040516102c08101908082106001600160401b03831117611c08576102b0916040527f60808060405261029e90816100128239f3fe608060405260043610610254575f81527f3560e01c806336a52a18146100ab57806342129d00146100a65780635ce6c32760208201527f146100a1578063701da98e1461009c578063704ed542146100975780637a8e0c60408201527fdd1461009257806391d5a64c1461008d5780639ce110d714610088578063affe60608201527fd0e0146100835763e43f3433036102545761023f565b610222565b6101fa565b60808201527f6101e4565b6101b1565b610181565b610165565b610143565b610106565b346160a08201527ed4575f3660031901126100d45760025460081c6001600160a01b031660809060c08201527f8152602090f35b5f80fd5b9181601f840112156100d45782359167ffffffffff60e08201527fffffff83116100d457602083818601950101116100d457565b604036600319016101008201527f126100d45760043567ffffffffffffffff81116100d4576101329036906004016101208201527f6100d8565b505060243580151514610254575f80fd5b346100d4575f366003196101408201527f01126100d457602060ff600254166040519015158152f35b346100d4575f36606101608201527f031901126100d45760205f54604051908152f35b346100d457602036600319016101808201527f126100d4576004356fffffffffffffffffffffffffffffffff811614610254576101a08201527f5f80fd5b60403660031901126100d45760243567ffffffffffffffff811161006101c08201527fd4576101dd9036906004016100d8565b5050610254565b346100d457602036606101e08201527f0319011215610254575f80fd5b346100d4575f3660031901126100d4576003546102008201527f6040516001600160a01b039091168152602090f35b346100d4575f36600319016102208201527f126100d4576020600154604051908152f35b346100d4575f36600319011215616102408201523060601c7f0254575f80fd5b63e6fabc0960e01b5f5260205f60048173000000000000000017610260820152735afa156100d4575f808051368280378136915af43060a01b176102808201526f3d5f803e1561029a573d5ff35b3d5ffd60801b6102a08201525ff5908115611c08576001600160a01b0382165f908152601a820160205260409020849055601b0180546124aa90612bae565b90556040516001600160a01b03821680825293907f8008ec1d8798725ebfa0f2d128d52e8e717dcba6e0f786557eeee70614b02bf190602090a2506001600160a01b038116612565575033915b813b15611c0857604051631c9776b560e31b81526001600160a01b039384166004820152921660248301525f604483018190528260648183855af191821561255a5760209261254a575b50604051908152f35b5f6125549161268f565b5f612541565b6040513d5f823e3d90fd5b916124f7565b630e2637d160e01b5f5260045ffd5b634e487b7160e01b5f52602160045260245ffd5b34611c08575f366003190112611c0857602090601c5f51602061420f5f395f51905f525401548152f35b604435906001600160a01b0382168203611c0857565b606435906001600160a01b0382168203611c0857565b600435906001600160a01b0382168203611c0857565b35906001600160a01b0382168203611c0857565b606081019081106001600160401b0382111761262957604052565b634e487b7160e01b5f52604160045260245ffd5b604081019081106001600160401b0382111761262957604052565b61010081019081106001600160401b0382111761262957604052565b608081019081106001600160401b0382111761262957604052565b90601f801991011681019081106001600160401b0382111761262957604052565b6001600160401b03811161262957601f01601f191660200190565b9291926126d7826126b0565b916126e5604051938461268f565b829481845281830111611c08578281602093845f960137010152565b9080601f83011215611c085781602061271c933591016126cb565b90565b9181601f84011215611c08578235916001600160401b038311611c08576020808501948460051b010111611c0857565b90600382101561257a5752565b805180835260209291819084018484015e5f828201840152601f01601f1916010190565b90602080835192838152019201905f5b81811061279d5750505090565b82516001600160a01b0316845260209384019390920191600101612790565b9060208251805183520151602082015260018060a01b036020830151166040820152608060606127fa604085015160a08386015260a0850190612780565b93015191015290565b604051906128108261263d565b5f6020838281520152565b906040516128288161263d565b602060018294805484520154910152565b9190820391821161284657565b634e487b7160e01b5f52601160045260245ffd5b8115612864570490565b634e487b7160e01b5f52601260045260245ffd5b9190826040910312611c08576040516128908161263d565b6020808294803584520135910152565b6001600160401b0381116126295760051b60200190565b9291906128c3816128a0565b936128d1604051958661268f565b602085838152019160051b8101928311611c0857905b8282106128f357505050565b60208091612900846125fa565b8152019101906128e7565b919081101561291b5760051b0190565b634e487b7160e01b5f52603260045260245ffd5b805182101561291b5760209160051b010190565b906040516129508161263d565b91546001600160401b038116835260401c6001600160801b03166020830152565b356001600160a01b0381168103611c085790565b61299e5f51602061420f5f395f51905f52544290613cec565b600301905f5b8381106129b45750505050600190565b6129c261092382868561290b565b6001600160a01b03165f9081526020849052604090205460ff16156129e9576001016129a4565b505050505f90565b604051906129fe8261260e565b5f6040838281528260208201520152565b90604051612a1c8161260e565b60406002829480548452600181015460208501520154910152565b3560ff81168103611c085790565b3565ffffffffffff81168103611c085790565b60405190612a6582612674565b5f606083604051612a758161263d565b83815283602082015281528260208201528160408201520152565b60405190612a9d82612674565b815f81525f6020820152612aaf612a58565b60408201526060612abe612a58565b910152565b90604051918281549182825260208201905f5260205f20925f5b818110612af4575050612af29250038361268f565b565b84546001600160a01b0316835260019485019487945060209093019201612add565b6001600160a01b03168015612b74575f5160206141cf5f395f51905f5280546001600160a01b0319811683179091556001600160a01b03167f8be0079c531659141344cd1fd0a4f28419497f9722a3daafe3b4186f6b6457e05f80a3565b631e4fbdf760e01b5f525f60045260245ffd5b60ff5f51602061422f5f395f51905f525416612b9f57565b63d93c066560e01b5f5260045ffd5b5f1981146128465760010190565b5f5160206141cf5f395f51905f52546001600160a01b03163303612bdc57565b63118cdaa760e01b5f523360045260245ffd5b8181029291811591840414171561284657565b9291908051906020810191825170014551231950b75fc4402da1732fc9bebe1982109182612e1a575b505015612e0b5751845551600184015560405190612c6e6021836020808201945f86528051918291018484015e81015f838201520301601f19810184528361268f565b612cab602b604051809360208201956a600b5981380380925939f360a81b87525180918484015e81015f838201520301601f19810183528261268f565b51905ff06001600160a01b03811615612dfc576002830180546001600160a01b0319166001600160a01b039092169190911790555f5b600483018054821015612d1f575f90815260208082208301546001600160a01b0316825260038501905260409020805460ff19169055600101612ce1565b5050925f5b8451811015612d68576001906001600160a01b03612d42828861292f565b5116828060a01b03165f526003840160205260405f208260ff1982541617905501612d24565b5092600482018151916001600160401b03831161262957600160401b8311612629578154838355808410612dd2575b50602001905f5260205f205f5b838110612db5575050505060050155565b82516001600160a01b031681830155602090920191600101612da4565b825f52838060205f20019103905f5b828110612def575050612d97565b5f82820155600101612de1565b633011642560e01b5f5260045ffd5b63375f0aab60e11b5f5260045ffd5b612e2492506140cb565b5f80612c2b565b435f19810193929084116128465760ff16438110612e7b57505f925b83811015612e57575b505f925050565b8040828103612e695750600193505050565b15612e76575f1901612e47565b612e50565b612e859043612839565b92612e47565b903590601e1981360301821215611c0857018035906001600160401b038211611c0857602001918160051b36038313611c0857565b90608081016001612ed18284612e8b565b90501161336657612ee28183612e8b565b90501561333f57612ef291612e8b565b1561291b57803590603e1981360301821215611c08570191612f148380612e8b565b9190928260051b938385046020148415171561284657612f3685969495613d68565b925f945f97601a60fe19853603019501965b888a10156132f7578960051b85013586811215611c08578501612f6a81612971565b6001600160a01b03165f90815260208a9052604090205415610064575f608082016001600160801b03612f9c82613d33565b161515806132e4575b6132d3575b6001600160a01b03612fbb84612971565b604051630427a21d60e11b81526020600482015294911691610124850191906001600160801b039061303a906001600160a01b03612ff8856125fa565b1660248901526020840135604489015261301460408501613d47565b151560648901526001600160a01b0361302f606086016125fa565b166084890152613d54565b1660a486015261304c60a08201613d47565b151560c486015236819003601e190160c082013581811215611c08578201602081359101936001600160401b038211611c08576060820236038513611c0857819061010060e48a015252610144870193905f905b8082106132895750505060e082013590811215611c085701803560208201926001600160401b038211611c08578160051b908136038513611c085791879594936023198785030161010488015281845260208085019385010194935f9160fe19813603015b84841061317c5750505050505050602093916001600160801b03848093039316905af190811561255a575f9161314a575b50816020916001938a015201990198612f48565b90506020813d8211613174575b816131646020938361268f565b81010312611c0857516001613136565b3d9150613157565b919395979850919395601f19848203018752873582811215611c08578301602081013582526001600160a01b036131b5604083016125fa565b1660208301526060810135603e193683900301811215611c08578101602081013591906040016001600160401b038311611c08578236038113611c0857829060e060408601528160e08601526101008501375f61010083850101526001600160801b0361322460808301613d54565b16606084015260a0810135608084015260c081013563ffffffff60e01b8116809103611c08578360209361326660e086956101009560a060019a015201613d47565b151560c0830152601f80199101160101990197019401918a989796959391613105565b90919460608060019288358152838060a01b036132a860208b016125fa565b1660208201526001600160801b036132c260408b01613d54565b1660408201520196019201906130a0565b90506132de81613d33565b90612faa565b506132f160a084016133aa565b15612fa5565b5094935095509550506020925020910135907fd04cd9af813f6f0b56e9411a6ee6a84eb5ac35a96f0c33d2e3a07d65baa8f4186020604051848152a15f5260205260405f2090565b5050507fc5d2460186f7233c927e7db2dcc703c0e500b653ca82273b7bfad8045d85a47090565b6306d6c38360e01b5f5260045ffd5b903590601e1981360301821215611c0857018035906001600160401b038211611c0857602001918160061b36038313611c0857565b358015158103611c085790565b903590605e1981360301821215611c08570190565b9190820180921161284657565b60c0820160016133e98285612e8b565b90501161378b576133fa8184612e8b565b90501561333f5761340b9083612e8b565b1561291b57803590607e1981360301821215611c085701916060830190602061343383612a45565b91019065ffffffffffff8061344784612a45565b169116101561377c5761345982612a45565b65ffffffffffff80600286015460201c1691161061376d5761349f65ffffffffffff6134986134928261348b87612a45565b1687613d8d565b93612a45565b1684613d8d565b111561375e576007820154600690920180548435946001600160a01b0394851694604082019391925f916020911660446134e5836134dd89896133b7565b01358b6133cc565b604051948593849263095ea7b360e01b84528c600485015260248401525af190811561255a575f91613723575b5015613714575460405163394f179b60e11b81526001600160a01b03909116600482015260248101959095526020818101356044870152856064815f885af194851561255a575f956136dc575b509061356a916133b7565b9161357482612a45565b9260405193637fbe95b560e01b85526040600486015260a48501918035601e1982360301811215611c08578101602081359101936001600160401b038211611c08578160061b36038513611c085760606044890152819052869360c485019392915f5b8181106136a457505050836020959365ffffffffffff829484895f960135606486015261360d604060018060a01b0392016125fa565b16608485015216602483015203925af191821561255a575f9261366e575b5061363590612a45565b6040519160208301938452604083015265ffffffffffff60d01b9060d01b1660608201526046815261366860668261268f565b51902090565b9091506020813d60201161369c575b8161368a6020938361268f565b81010312611c0857519061363561362b565b3d915061367d565b919550919293604080600192838060a01b036136bf8a6125fa565b1681526020890135602082015201960191019188959493926135d7565b919094506020823d60201161370c575b816136f96020938361268f565b81010312611c085790519361356a61355f565b3d91506136ec565b6367b9145160e01b5f5260045ffd5b90506020813d602011613756575b8161373e6020938361268f565b81010312611c0857518015158103611c08575f613512565b3d9150613731565b6308027f7760e31b5f5260045ffd5b637bde91e760e11b5f5260045ffd5b63087a19ab60e41b5f5260045ffd5b633249ceed60e11b5f5260045ffd5b903590601e1981360301821215611c0857018035906001600160401b038211611c0857602001918136038313611c0857565b9060e0810160016137dd8284612e8b565b905011613a40576137ee8183612e8b565b90501561333f576137fe91612e8b565b1561291b57803590609e1981360301821215611c08570160608101906138248282612e8b565b905015613a315765ffffffffffff600284015460201c16916138468342612839565b6138556016860154809261285a565b9360808401359460018101809111612846578503613a225761387a8561388093612bef565b906133cc565b9361388f601782015486612839565b4210613a135761389e90613db5565b934260058601541015613a04576138f39060408401956138e56138ed6138c4898861379a565b91906138d0888a612e8b565b9490916138dd368c612878565b9436916126cb565b9336916128b7565b92612c02565b7fa1a3b42179ad30022438a1ea333b38eaf4a7329beee5e2b8111c0dcd4e08821c6020604051858152a160a082360312611c08576040519361393485612674565b61393e3684612878565b8552356001600160401b038111611c085761395c9036908401612701565b602085015235906001600160401b038211611c08570136601f82011215611c085761398e9036906020813591016128b7565b91826040820152816060820152519160208351930151906040519283926020840195865260408401526060830160208351919301905f5b8181106139e257505050815203808252613668906020018261268f565b82516001600160a01b03168552869550602094850194909201916001016139c5565b6333fc8f5160e21b5f5260045ffd5b6372a84ce560e11b5f5260045ffd5b6343d3f5bf60e01b5f5260045ffd5b636c2bf3db60e01b5f5260045ffd5b631d3fc6bf60e21b5f5260045ffd5b909493919365ffffffffffff600283015460201c16613a6e4284613d8d565b613a86613a8060168601548093612bef565b836133cc565b918284108080613cab575b15613c7957508310613c6b57613aa790836133cc565b10613c5c57613ab7905b82613cec565b94601960f81b5f523060601b60025260165260365f2093600281101561257a5780613b4857505060018103613b39571561291b57613af881613aff9261379a565b36916126cb565b916060835103613b2a5782602061271c94015160606040830151920151926001815491015490613dd0565b632ce466bf60e01b5f5260045ffd5b6360a1ea7760e01b5f5260045ffd5b919391600114613b5b5750505050505f90565b613b8090600860048796970154910154906001600160801b038260801c921690613cc1565b925f9260035f9201915b86811015613c5157613bb9613bb0613baa613af88460051b86018661379a565b86614031565b9092919261406b565b6001600160a01b0381165f9081526020859052604090205460ff16613be4575b506001905b01613b8a565b6001600160a01b03165f9081527ff02b465737fa6045c2ff53fb2df43c66916ac2166fa303264668fb2f6a1d8c0060205260409020805c15613c295750600190613bde565b946001613c3792965d612bae565b93858514613c45575f613bd9565b50505050505050600190565b505050505050505f90565b63046bb1e560e51b5f5260045ffd5b62f4462b60e01b5f5260045ffd5b9392915050428211613c9c57613ab792613c94575b50613ab1565b90505f613c8e565b6347860b9760e01b5f5260045ffd5b50613cba6018870154856133cc565b4210613a91565b6001600160801b03809216029116613cd9818361285a565b91811561286457061561271c5760010190565b90613cf79082613fd1565b15613d0257600f0190565b60090190565b60ff5f51602061424f5f395f51905f525460401c1615613d2457565b631afcd79f60e31b5f5260045ffd5b356001600160801b0381168103611c085790565b35908115158203611c0857565b35906001600160801b0382168203611c0857565b6040519190601f01601f191682016001600160401b03811183821017611c0857604052565b6016613dac61271c9365ffffffffffff600285015460201c1690612839565b9101549061285a565b613dbf4282613fd1565b15613dca5760090190565b600f0190565b9293919490613ddf85876140cb565b15613f72578215613f725770014551231950b75fc4402da1732fc9bebe19831015613f72576001169061010e613e1481613d68565b9160883684376002600188160160888401538760898401526002840160a984015360aa830186905260ca8301527e300046524f53542d736563703235366b312d4b454343414b3235362d76316360ea8301526303430b6160e51b61010a830152812060cc820181815290600260ec84016001815360428420809318845253604270014551231950b75fc4402da1732fc9bebe19922060801c6001600160401b0360801b8260801b16179070014551231950b75fc4402da1732fc9bebe1990600160c01b9060401c09088015613c515784601b6080945f9660209870014551231950b75fc4402da1732fc9bebe19910970014551231950b75fc4402da1732fc9bebe19038552018684015280604084015270014551231950b75fc4402da1732fc9bebe19910970014551231950b75fc4402da1732fc9bebe1903606082015282805260015afa505f51915f5260205260018060a01b0360405f20161490565b5050505050505f90565b613f84612a58565b5060028101546005820154604051929091613fc4916004916001600160a01b0316613fae86612674565b613fb78261281b565b8652602086015201612ac3565b6040830152606082015290565b906014600e8301549201548083146140225781818410931191821591111591819061401b575b1561400c578261400657505090565b14919050565b634c38ae9560e11b5f5260045ffd5b5081613ff7565b63f26224af60e01b5f5260045ffd5b81519190604183036140615761405a9250602082015190606060408401519301515f1a9061414c565b9192909190565b50505f9160029190565b600481101561257a578061407d575050565b600181036140945763f645eedf60e01b5f5260045ffd5b600281036140af575063fce698f760e01b5f5260045260245ffd5b6003146140b95750565b6335e2f38360e21b5f5260045260245ffd5b6401000003d01990600790829081818009900908906401000003d0199080091490565b90614112575080511561410357602081519101fd5b63d6bda27560e01b5f5260045ffd5b81511580614143575b614123575090565b639996b31560e01b5f9081526001600160a01b0391909116600452602490fd5b50803b1561411b565b91907f7fffffffffffffffffffffffffffffff5d576e7357a4501ddfe92f46681b20a084116141c3579160209360809260ff5f9560405194855216868401526040830152606082015282805260015afa1561255a575f516001600160a01b038116156141b957905f905f90565b505f906001905f90565b5050505f916003919056fe9016d09d72d40fdae2fd8ceac6b6234c7706214fd39c1cd1e609a0528c199300360894a13ba1a3210667c828492db98dca3e2076cc3735a920a3ca505d382bbc5c09ca1b9b8127a4fd9f3c384aac59b661441e820e17733753ff5f2e86e1e000cd5ed15c6e187e77e9aee88184c21f4f2182ab5827cb3b7e07fbedcd63f03300f0c57e16840df040f15088dc2f81fe391c3923bec73e23a9662efc9c229c6a00f0c57e16840df040f15088dc2f81fe391c3923bec73e23a9662efc9c229c6a00","linkReferences":{}},"methodIdentifiers":{"UPGRADE_INTERFACE_VERSION()":"ad3cb1cc","areValidators(address[])":"8f381dbe","codeState(bytes32)":"c13911e8","codesStates(bytes32[])":"82bdeaad","commitBatch((bytes32,uint48,bytes32,uint8,((address,bytes32,bool,address,uint128,bool,(bytes32,address,uint128)[],(bytes32,address,bytes,uint128,(bytes32,bytes4),bool)[])[],bytes32)[],(bytes32,bool)[],((uint256,bytes32),((address,uint256)[],uint256,address),uint48)[],((uint256,uint256),bytes,address[],uint256)[]),uint8,bytes[])":"b24fcac0","computeSettings()":"84d22a4f","createProgram(bytes32,bytes32,address)":"3683c4d2","createProgramWithAbiInterface(bytes32,bytes32,address,address)":"0c18d277","genesisBlockHash()":"28e24b3d","genesisTimestamp()":"cacf66ab","initialize(address,address,address,address,uint256,uint256,uint256,(uint256,uint256),bytes,address[])":"53f7fd48","isValidator(address)":"facd743b","latestCommittedBatchHash()":"71a8cf2d","latestCommittedBatchTimestamp()":"d456fd51","lookupGenesisHash()":"8b1edf1e","middleware()":"f4f20ac0","mirrorImpl()":"e6fabc09","owner()":"8da5cb5b","pause()":"8456cb59","paused()":"5c975abb","programCodeId(address)":"9067088e","programsCodeIds(address[])":"baaf0201","programsCount()":"96a2ddfa","proxiableUUID()":"52d1902d","reinitialize((bytes32,uint32,uint48))":"9b20d80b","renounceOwnership()":"715018a6","requestCodeValidation(bytes32)":"120e3f1e","setMirror(address)":"3d43b418","signingThresholdFraction()":"e3a6684f","storageView()":"c2eb812f","timelines()":"9eb939a8","transferOwnership(address)":"f2fde38b","unpause()":"3f4ba83a","upgradeToAndCall(address,bytes)":"4f1ef286","validatedCodesCount()":"007a32e7","validators()":"ca1e7819","validatorsAggregatedPublicKey()":"3bd109fa","validatorsCount()":"ed612f8c","validatorsThreshold()":"edc87225","validatorsVerifiableSecretSharingCommitment()":"a5d53a44","wrappedVara()":"88f50cf0"},"storageLayout":{"storage":[],"types":{}},"id":165}