{"abi":[{"type":"constructor","inputs":[],"stateMutability":"nonpayable"},{"type":"receive","stateMutability":"payable"},{"type":"function","name":"UPGRADE_INTERFACE_VERSION","inputs":[],"outputs":[{"name":"","type":"string","internalType":"string"}],"stateMutability":"view"},{"type":"function","name":"areValidators","inputs":[{"name":"_validators","type":"address[]","internalType":"address[]"}],"outputs":[{"name":"","type":"bool","internalType":"bool"}],"stateMutability":"view"},{"type":"function","name":"codeState","inputs":[{"name":"_codeId","type":"bytes32","internalType":"bytes32"}],"outputs":[{"name":"","type":"uint8","internalType":"enum Gear.CodeState"}],"stateMutability":"view"},{"type":"function","name":"codesStates","inputs":[{"name":"_codesIds","type":"bytes32[]","internalType":"bytes32[]"}],"outputs":[{"name":"","type":"uint8[]","internalType":"enum Gear.CodeState[]"}],"stateMutability":"view"},{"type":"function","name":"commitBatch","inputs":[{"name":"_batch","type":"tuple","internalType":"struct Gear.BatchCommitment","components":[{"name":"blockHash","type":"bytes32","internalType":"bytes32"},{"name":"blockTimestamp","type":"uint48","internalType":"uint48"},{"name":"previousCommittedBatchHash","type":"bytes32","internalType":"bytes32"},{"name":"expiry","type":"uint8","internalType":"uint8"},{"name":"chainCommitment","type":"tuple[]","internalType":"struct Gear.ChainCommitment[]","components":[{"name":"transitions","type":"tuple[]","internalType":"struct Gear.StateTransition[]","components":[{"name":"actorId","type":"address","internalType":"address"},{"name":"newStateHash","type":"bytes32","internalType":"bytes32"},{"name":"exited","type":"bool","internalType":"bool"},{"name":"inheritor","type":"address","internalType":"address"},{"name":"valueToReceive","type":"uint128","internalType":"uint128"},{"name":"valueToReceiveNegativeSign","type":"bool","internalType":"bool"},{"name":"valueClaims","type":"tuple[]","internalType":"struct Gear.ValueClaim[]","components":[{"name":"messageId","type":"bytes32","internalType":"bytes32"},{"name":"destination","type":"address","internalType":"address"},{"name":"value","type":"uint128","internalType":"uint128"}]},{"name":"messages","type":"tuple[]","internalType":"struct Gear.Message[]","components":[{"name":"id","type":"bytes32","internalType":"bytes32"},{"name":"destination","type":"address","internalType":"address"},{"name":"payload","type":"bytes","internalType":"bytes"},{"name":"value","type":"uint128","internalType":"uint128"},{"name":"replyDetails","type":"tuple","internalType":"struct Gear.ReplyDetails","components":[{"name":"to","type":"bytes32","internalType":"bytes32"},{"name":"code","type":"bytes4","internalType":"bytes4"}]},{"name":"call","type":"bool","internalType":"bool"}]}]},{"name":"head","type":"bytes32","internalType":"bytes32"}]},{"name":"codeCommitments","type":"tuple[]","internalType":"struct Gear.CodeCommitment[]","components":[{"name":"id","type":"bytes32","internalType":"bytes32"},{"name":"valid","type":"bool","internalType":"bool"}]},{"name":"rewardsCommitment","type":"tuple[]","internalType":"struct Gear.RewardsCommitment[]","components":[{"name":"operators","type":"tuple","internalType":"struct Gear.OperatorRewardsCommitment","components":[{"name":"amount","type":"uint256","internalType":"uint256"},{"name":"root","type":"bytes32","internalType":"bytes32"}]},{"name":"stakers","type":"tuple","internalType":"struct Gear.StakerRewardsCommitment","components":[{"name":"distribution","type":"tuple[]","internalType":"struct Gear.StakerRewards[]","components":[{"name":"vault","type":"address","internalType":"address"},{"name":"amount","type":"uint256","internalType":"uint256"}]},{"name":"totalAmount","type":"uint256","internalType":"uint256"},{"name":"token","type":"address","internalType":"address"}]},{"name":"timestamp","type":"uint48","internalType":"uint48"}]},{"name":"validatorsCommitment","type":"tuple[]","internalType":"struct Gear.ValidatorsCommitment[]","components":[{"name":"aggregatedPublicKey","type":"tuple","internalType":"struct Gear.AggregatedPublicKey","components":[{"name":"x","type":"uint256","internalType":"uint256"},{"name":"y","type":"uint256","internalType":"uint256"}]},{"name":"verifiableSecretSharingCommitment","type":"bytes","internalType":"bytes"},{"name":"validators","type":"address[]","internalType":"address[]"},{"name":"eraIndex","type":"uint256","internalType":"uint256"}]}]},{"name":"_signatureType","type":"uint8","internalType":"enum Gear.SignatureType"},{"name":"_signatures","type":"bytes[]","internalType":"bytes[]"}],"outputs":[],"stateMutability":"nonpayable"},{"type":"function","name":"computeSettings","inputs":[],"outputs":[{"name":"","type":"tuple","internalType":"struct Gear.ComputationSettings","components":[{"name":"threshold","type":"uint64","internalType":"uint64"},{"name":"wvaraPerSecond","type":"uint128","internalType":"uint128"}]}],"stateMutability":"view"},{"type":"function","name":"createProgram","inputs":[{"name":"_codeId","type":"bytes32","internalType":"bytes32"},{"name":"_salt","type":"bytes32","internalType":"bytes32"},{"name":"_overrideInitializer","type":"address","internalType":"address"}],"outputs":[{"name":"","type":"address","internalType":"address"}],"stateMutability":"nonpayable"},{"type":"function","name":"createProgramWithAbiInterface","inputs":[{"name":"_codeId","type":"bytes32","internalType":"bytes32"},{"name":"_salt","type":"bytes32","internalType":"bytes32"},{"name":"_overrideInitializer","type":"address","internalType":"address"},{"name":"_abiInterface","type":"address","internalType":"address"}],"outputs":[{"name":"","type":"address","internalType":"address"}],"stateMutability":"nonpayable"},{"type":"function","name":"genesisBlockHash","inputs":[],"outputs":[{"name":"","type":"bytes32","internalType":"bytes32"}],"stateMutability":"view"},{"type":"function","name":"genesisTimestamp","inputs":[],"outputs":[{"name":"","type":"uint48","internalType":"uint48"}],"stateMutability":"view"},{"type":"function","name":"initialize","inputs":[{"name":"_owner","type":"address","internalType":"address"},{"name":"_mirror","type":"address","internalType":"address"},{"name":"_wrappedVara","type":"address","internalType":"address"},{"name":"_middleware","type":"address","internalType":"address"},{"name":"_eraDuration","type":"uint256","internalType":"uint256"},{"name":"_electionDuration","type":"uint256","internalType":"uint256"},{"name":"_validationDelay","type":"uint256","internalType":"uint256"},{"name":"_aggregatedPublicKey","type":"tuple","internalType":"struct Gear.AggregatedPublicKey","components":[{"name":"x","type":"uint256","internalType":"uint256"},{"name":"y","type":"uint256","internalType":"uint256"}]},{"name":"_verifiableSecretSharingCommitment","type":"bytes","internalType":"bytes"},{"name":"_validators","type":"address[]","internalType":"address[]"}],"outputs":[],"stateMutability":"nonpayable"},{"type":"function","name":"isValidator","inputs":[{"name":"_validator","type":"address","internalType":"address"}],"outputs":[{"name":"","type":"bool","internalType":"bool"}],"stateMutability":"view"},{"type":"function","name":"latestCommittedBatchHash","inputs":[],"outputs":[{"name":"","type":"bytes32","internalType":"bytes32"}],"stateMutability":"view"},{"type":"function","name":"latestCommittedBatchTimestamp","inputs":[],"outputs":[{"name":"","type":"uint48","internalType":"uint48"}],"stateMutability":"view"},{"type":"function","name":"lookupGenesisHash","inputs":[],"outputs":[],"stateMutability":"nonpayable"},{"type":"function","name":"middleware","inputs":[],"outputs":[{"name":"","type":"address","internalType":"address"}],"stateMutability":"view"},{"type":"function","name":"mirrorImpl","inputs":[],"outputs":[{"name":"","type":"address","internalType":"address"}],"stateMutability":"view"},{"type":"function","name":"owner","inputs":[],"outputs":[{"name":"","type":"address","internalType":"address"}],"stateMutability":"view"},{"type":"function","name":"programCodeId","inputs":[{"name":"_programId","type":"address","internalType":"address"}],"outputs":[{"name":"","type":"bytes32","internalType":"bytes32"}],"stateMutability":"view"},{"type":"function","name":"programsCodeIds","inputs":[{"name":"_programsIds","type":"address[]","internalType":"address[]"}],"outputs":[{"name":"","type":"bytes32[]","internalType":"bytes32[]"}],"stateMutability":"view"},{"type":"function","name":"programsCount","inputs":[],"outputs":[{"name":"","type":"uint256","internalType":"uint256"}],"stateMutability":"view"},{"type":"function","name":"proxiableUUID","inputs":[],"outputs":[{"name":"","type":"bytes32","internalType":"bytes32"}],"stateMutability":"view"},{"type":"function","name":"reinitialize","inputs":[],"outputs":[],"stateMutability":"nonpayable"},{"type":"function","name":"renounceOwnership","inputs":[],"outputs":[],"stateMutability":"nonpayable"},{"type":"function","name":"requestCodeValidation","inputs":[{"name":"_codeId","type":"bytes32","internalType":"bytes32"}],"outputs":[],"stateMutability":"nonpayable"},{"type":"function","name":"setMirror","inputs":[{"name":"newMirror","type":"address","internalType":"address"}],"outputs":[],"stateMutability":"nonpayable"},{"type":"function","name":"signingThresholdFraction","inputs":[],"outputs":[{"name":"","type":"uint128","internalType":"uint128"},{"name":"","type":"uint128","internalType":"uint128"}],"stateMutability":"view"},{"type":"function","name":"storageView","inputs":[],"outputs":[{"name":"","type":"tuple","internalType":"struct IRouter.StorageView","components":[{"name":"genesisBlock","type":"tuple","internalType":"struct Gear.GenesisBlockInfo","components":[{"name":"hash","type":"bytes32","internalType":"bytes32"},{"name":"number","type":"uint32","internalType":"uint32"},{"name":"timestamp","type":"uint48","internalType":"uint48"}]},{"name":"latestCommittedBatch","type":"tuple","internalType":"struct Gear.CommittedBatchInfo","components":[{"name":"hash","type":"bytes32","internalType":"bytes32"},{"name":"timestamp","type":"uint48","internalType":"uint48"}]},{"name":"implAddresses","type":"tuple","internalType":"struct Gear.AddressBook","components":[{"name":"mirror","type":"address","internalType":"address"},{"name":"wrappedVara","type":"address","internalType":"address"},{"name":"middleware","type":"address","internalType":"address"}]},{"name":"validationSettings","type":"tuple","internalType":"struct Gear.ValidationSettingsView","components":[{"name":"thresholdNumerator","type":"uint128","internalType":"uint128"},{"name":"thresholdDenominator","type":"uint128","internalType":"uint128"},{"name":"validators0","type":"tuple","internalType":"struct Gear.ValidatorsView","components":[{"name":"aggregatedPublicKey","type":"tuple","internalType":"struct Gear.AggregatedPublicKey","components":[{"name":"x","type":"uint256","internalType":"uint256"},{"name":"y","type":"uint256","internalType":"uint256"}]},{"name":"verifiableSecretSharingCommitmentPointer","type":"address","internalType":"address"},{"name":"list","type":"address[]","internalType":"address[]"},{"name":"useFromTimestamp","type":"uint256","internalType":"uint256"}]},{"name":"validators1","type":"tuple","internalType":"struct Gear.ValidatorsView","components":[{"name":"aggregatedPublicKey","type":"tuple","internalType":"struct Gear.AggregatedPublicKey","components":[{"name":"x","type":"uint256","internalType":"uint256"},{"name":"y","type":"uint256","internalType":"uint256"}]},{"name":"verifiableSecretSharingCommitmentPointer","type":"address","internalType":"address"},{"name":"list","type":"address[]","internalType":"address[]"},{"name":"useFromTimestamp","type":"uint256","internalType":"uint256"}]}]},{"name":"computeSettings","type":"tuple","internalType":"struct Gear.ComputationSettings","components":[{"name":"threshold","type":"uint64","internalType":"uint64"},{"name":"wvaraPerSecond","type":"uint128","internalType":"uint128"}]},{"name":"timelines","type":"tuple","internalType":"struct Gear.Timelines","components":[{"name":"era","type":"uint256","internalType":"uint256"},{"name":"election","type":"uint256","internalType":"uint256"},{"name":"validationDelay","type":"uint256","internalType":"uint256"}]},{"name":"programsCount","type":"uint256","internalType":"uint256"},{"name":"validatedCodesCount","type":"uint256","internalType":"uint256"}]}],"stateMutability":"view"},{"type":"function","name":"timelines","inputs":[],"outputs":[{"name":"","type":"tuple","internalType":"struct Gear.Timelines","components":[{"name":"era","type":"uint256","internalType":"uint256"},{"name":"election","type":"uint256","internalType":"uint256"},{"name":"validationDelay","type":"uint256","internalType":"uint256"}]}],"stateMutability":"view"},{"type":"function","name":"transferOwnership","inputs":[{"name":"newOwner","type":"address","internalType":"address"}],"outputs":[],"stateMutability":"nonpayable"},{"type":"function","name":"upgradeToAndCall","inputs":[{"name":"newImplementation","type":"address","internalType":"address"},{"name":"data","type":"bytes","internalType":"bytes"}],"outputs":[],"stateMutability":"payable"},{"type":"function","name":"validatedCodesCount","inputs":[],"outputs":[{"name":"","type":"uint256","internalType":"uint256"}],"stateMutability":"view"},{"type":"function","name":"validators","inputs":[],"outputs":[{"name":"","type":"address[]","internalType":"address[]"}],"stateMutability":"view"},{"type":"function","name":"validatorsAggregatedPublicKey","inputs":[],"outputs":[{"name":"","type":"tuple","internalType":"struct Gear.AggregatedPublicKey","components":[{"name":"x","type":"uint256","internalType":"uint256"},{"name":"y","type":"uint256","internalType":"uint256"}]}],"stateMutability":"view"},{"type":"function","name":"validatorsCount","inputs":[],"outputs":[{"name":"","type":"uint256","internalType":"uint256"}],"stateMutability":"view"},{"type":"function","name":"validatorsThreshold","inputs":[],"outputs":[{"name":"","type":"uint256","internalType":"uint256"}],"stateMutability":"view"},{"type":"function","name":"validatorsVerifiableSecretSharingCommitment","inputs":[],"outputs":[{"name":"","type":"bytes","internalType":"bytes"}],"stateMutability":"view"},{"type":"function","name":"wrappedVara","inputs":[],"outputs":[{"name":"","type":"address","internalType":"address"}],"stateMutability":"view"},{"type":"event","name":"AnnouncesCommitted","inputs":[{"name":"head","type":"bytes32","indexed":false,"internalType":"bytes32"}],"anonymous":false},{"type":"event","name":"BatchCommitted","inputs":[{"name":"hash","type":"bytes32","indexed":false,"internalType":"bytes32"}],"anonymous":false},{"type":"event","name":"CodeGotValidated","inputs":[{"name":"codeId","type":"bytes32","indexed":false,"internalType":"bytes32"},{"name":"valid","type":"bool","indexed":true,"internalType":"bool"}],"anonymous":false},{"type":"event","name":"CodeValidationRequested","inputs":[{"name":"codeId","type":"bytes32","indexed":false,"internalType":"bytes32"}],"anonymous":false},{"type":"event","name":"ComputationSettingsChanged","inputs":[{"name":"threshold","type":"uint64","indexed":false,"internalType":"uint64"},{"name":"wvaraPerSecond","type":"uint128","indexed":false,"internalType":"uint128"}],"anonymous":false},{"type":"event","name":"Initialized","inputs":[{"name":"version","type":"uint64","indexed":false,"internalType":"uint64"}],"anonymous":false},{"type":"event","name":"OwnershipTransferred","inputs":[{"name":"previousOwner","type":"address","indexed":true,"internalType":"address"},{"name":"newOwner","type":"address","indexed":true,"internalType":"address"}],"anonymous":false},{"type":"event","name":"ProgramCreated","inputs":[{"name":"actorId","type":"address","indexed":false,"internalType":"address"},{"name":"codeId","type":"bytes32","indexed":true,"internalType":"bytes32"}],"anonymous":false},{"type":"event","name":"StorageSlotChanged","inputs":[{"name":"slot","type":"bytes32","indexed":false,"internalType":"bytes32"}],"anonymous":false},{"type":"event","name":"Upgraded","inputs":[{"name":"implementation","type":"address","indexed":true,"internalType":"address"}],"anonymous":false},{"type":"event","name":"ValidatorsCommittedForEra","inputs":[{"name":"eraIndex","type":"uint256","indexed":false,"internalType":"uint256"}],"anonymous":false},{"type":"error","name":"AddressEmptyCode","inputs":[{"name":"target","type":"address","internalType":"address"}]},{"type":"error","name":"ApproveERC20Failed","inputs":[]},{"type":"error","name":"BatchTimestampNotInPast","inputs":[]},{"type":"error","name":"BatchTimestampTooEarly","inputs":[]},{"type":"error","name":"BlobNotFound","inputs":[]},{"type":"error","name":"CodeAlreadyOnValidationOrValidated","inputs":[]},{"type":"error","name":"CodeNotValidated","inputs":[]},{"type":"error","name":"CodeValidationNotRequested","inputs":[]},{"type":"error","name":"CommitmentEraNotNext","inputs":[]},{"type":"error","name":"DeploymentFailed","inputs":[]},{"type":"error","name":"ECDSAInvalidSignature","inputs":[]},{"type":"error","name":"ECDSAInvalidSignatureLength","inputs":[{"name":"length","type":"uint256","internalType":"uint256"}]},{"type":"error","name":"ECDSAInvalidSignatureS","inputs":[{"name":"s","type":"bytes32","internalType":"bytes32"}]},{"type":"error","name":"ERC1967InvalidImplementation","inputs":[{"name":"implementation","type":"address","internalType":"address"}]},{"type":"error","name":"ERC1967NonPayable","inputs":[]},{"type":"error","name":"ElectionNotStarted","inputs":[]},{"type":"error","name":"EmptyValidatorsList","inputs":[]},{"type":"error","name":"EraDurationTooShort","inputs":[]},{"type":"error","name":"ErasTimestampMustNotBeEqual","inputs":[]},{"type":"error","name":"FailedCall","inputs":[]},{"type":"error","name":"GenesisHashAlreadySet","inputs":[]},{"type":"error","name":"GenesisHashNotFound","inputs":[]},{"type":"error","name":"InvalidElectionDuration","inputs":[]},{"type":"error","name":"InvalidFROSTAggregatedPublicKey","inputs":[]},{"type":"error","name":"InvalidFrostSignatureCount","inputs":[]},{"type":"error","name":"InvalidFrostSignatureLength","inputs":[]},{"type":"error","name":"InvalidInitialization","inputs":[]},{"type":"error","name":"InvalidPreviousCommittedBatchHash","inputs":[]},{"type":"error","name":"InvalidTimestamp","inputs":[]},{"type":"error","name":"NotInitializing","inputs":[]},{"type":"error","name":"OwnableInvalidOwner","inputs":[{"name":"owner","type":"address","internalType":"address"}]},{"type":"error","name":"OwnableUnauthorizedAccount","inputs":[{"name":"account","type":"address","internalType":"address"}]},{"type":"error","name":"PredecessorBlockNotFound","inputs":[]},{"type":"error","name":"ReentrancyGuardReentrantCall","inputs":[]},{"type":"error","name":"RewardsCommitmentEraNotPrevious","inputs":[]},{"type":"error","name":"RewardsCommitmentPredatesGenesis","inputs":[]},{"type":"error","name":"RewardsCommitmentTimestampNotInPast","inputs":[]},{"type":"error","name":"RouterGenesisHashNotInitialized","inputs":[]},{"type":"error","name":"SignatureVerificationFailed","inputs":[]},{"type":"error","name":"TimestampInFuture","inputs":[]},{"type":"error","name":"TimestampOlderThanPreviousEra","inputs":[]},{"type":"error","name":"TooManyChainCommitments","inputs":[]},{"type":"error","name":"TooManyRewardsCommitments","inputs":[]},{"type":"error","name":"TooManyValidatorsCommitments","inputs":[]},{"type":"error","name":"UUPSUnauthorizedCallContext","inputs":[]},{"type":"error","name":"UUPSUnsupportedProxiableUUID","inputs":[{"name":"slot","type":"bytes32","internalType":"bytes32"}]},{"type":"error","name":"UnknownProgram","inputs":[]},{"type":"error","name":"ValidationBeforeGenesis","inputs":[]},{"type":"error","name":"ValidationDelayTooBig","inputs":[]},{"type":"error","name":"ValidatorsAlreadyScheduled","inputs":[]},{"type":"error","name":"ValidatorsNotFoundForTimestamp","inputs":[]},{"type":"error","name":"ZeroValueTransfer","inputs":[]}],"bytecode":{"object":"0x60a080604052346100c257306080525f51602061432a5f395f51905f525460ff8160401c166100b3576002600160401b03196001600160401b03821601610060575b60405161426390816100c78239608051818181611a4c0152611adf0152f35b6001600160401b0319166001600160401b039081175f51602061432a5f395f51905f525581527fc7f505b2f371ae2175ee4913f4499e1f2633a7b5936321eed1cdaeb6115181d290602090a15f80610041565b63f92ee8a960e01b5f5260045ffd5b5f80fdfe6080806040526004361015610089575b50361561001a575f80fd5b5f5160206142235f395f51905f525460018101541561007a576001600160801b0334161561006b57335f908152601a9190910160205260409020541561005c57005b63821a62f560e01b5f5260045ffd5b63a1a7c6eb60e01b5f5260045ffd5b63580683f360e01b5f5260045ffd5b5f905f3560e01c9081627a32e714612565575080630c18d2771461207f578063120e3f1e14611fa857806328e24b3d14611f7a5780633683c4d214611d575780633bd109fa14611d085780633d43b41814611cb45780634f1ef28614611aa057806352d1902d14611a3957806353f7fd48146115c25780636c2eb3501461125d578063715018a6146111f457806371a8cf2d146111c657806382bdeaad146110ae57806384d22a4f1461105057806388f50cf0146110175780638b1edf1e14610fb85780638da5cb5b14610f835780638f381dbe14610f3d5780639067088e14610ef457806396a2ddfa14610ec65780639eb939a814610e6f578063a5d53a4414610e19578063ad3cb1cc14610dd0578063b24fcac014610926578063baaf020114610825578063c13911e8146107e1578063c2eb812f146104b5578063ca1e781914610465578063cacf66ab1461042d578063d456fd51146103f7578063e3a6684f146103b8578063e6fabc091461037f578063ed612f8c14610347578063edc87225146102f2578063f2fde38b146102c5578063f4f20ac01461028c5763facd743b0361000f57346102895760203660031901126102895761024b6125bb565b60036102665f5160206142235f395f51905f52544290613d00565b019060018060a01b03165f52602052602060ff60405f2054166040519015158152f35b80fd5b50346102895780600319360112610289575f5160206142235f395f51905f5254600701546040516001600160a01b039091168152602090f35b5034610289576020366003190112610289576102ef6102e26125bb565b6102ea612b6c565b612aed565b80f35b5034610289578060031936011261028957602061033f5f5160206142235f395f51905f5254600860046103254284613d00565b0154910154906001600160801b038260801c921690613cd5565b604051908152f35b5034610289578060031936011261028957602060046103755f5160206142235f395f51905f52544290613d00565b0154604051908152f35b50346102895780600319360112610289575f5160206142235f395f51905f5254600501546040516001600160a01b039091168152602090f35b5034610289578060031936011261028957604060085f5160206142235f395f51905f525401548151906001600160801b038116825260801c6020820152f35b5034610289578060031936011261028957602065ffffffffffff60045f5160206142235f395f51905f5254015416604051908152f35b5034610289578060031936011261028957602065ffffffffffff60025f5160206142235f395f51905f52540154821c16604051908152f35b50346102895780600319360112610289576104b161049d60046104975f5160206142235f395f51905f52544290613d00565b016128e2565b604051918291602083526020830190612757565b0390f35b50346102895780600319360112610289576040516104d28161262f565b6104da612a1b565b81526040516104e881612614565b5f8152602081015f905260208201526104ff612a1b565b604082015261050c612aba565b606082015260405161051d81612614565b5f80825260208201526080820152610533612a1b565b60a08201528160c082015260e001525f5160206142235f395f51905f5254610559612aba565b5061056660098201613f90565b90610573600f8201613f90565b600882015492604051936105868561264b565b6001600160801b038116855260801c602085015260408401526060830152601b81015490601c810154604051926105bc8461262f565b6040516105c8816125e5565b60018401548152600284015463ffffffff8116602083015260201c65ffffffffffff1660408201528452604051946105ff86612614565b60038401548652600484015465ffffffffffff166020870152602085019586526040519061062c826125e5565b60058501546001600160a01b0390811683526006860154811660208401526007860154166040808401919091528601918252606086019081526106716015860161296d565b946080870195865260160161068590612a39565b9160a0870192835260c0870193845260e087019485526040519788976020895251805160208a0152602081015163ffffffff1660408a01526040015165ffffffffffff16606089015251805160808901526020015165ffffffffffff1660a088015251600160a01b6001900381511660c0880152600160a01b6001900360208201511660e0880152600160a01b60019003906040015116610100870152516101208601610200905280516001600160801b031661022087015260208101516001600160801b031661024087015260408101516102608701608090526102a0870161076e91612793565b90606001519061021f198782030161028088015261078b91612793565b935180516001600160401b0316610140870152602001516001600160801b031661016086015251805161018086015260208101516101a0860152604001516101c0850152516101e0840152516102008301520390f35b50346102895760203660031901126102895760ff604060209260195f5160206142235f395f51905f525401600435825284522054166108236040518092612726565bf35b5034610289576020366003190112610289576004356001600160401b038111610922576108569036906004016126f6565b905f5160206142235f395f51905f52549061087083612877565b9161087e6040519384612666565b83835261088a84612877565b602084019490601f1901368637601a869201915b8181106108e957868587604051928392602084019060208552518091526040840192915b8181106108d0575050500390f35b82518452859450602093840193909201916001016108c2565b806108ff6108fa6001938588612935565b61299b565b828060a01b03165f528360205260405f205461091b8288612959565b520161089e565b5080fd5b5034610289576060366003190112610289576001600160401b036004351161028957610100600435360360031901126102895760026024351015610289576044356001600160401b038111610922576109839036906004016126f6565b7f9b779b17422d0df92223018b32b4d1fa46e071723d6817e2486d003becc55f005c610dc15760017f9b779b17422d0df92223018b32b4d1fa46e071723d6817e2486d003becc55f005d5f5160206142235f395f51905f525490600182015415610db257815415610d56575b60038201546044600435013503610d475765ffffffffffff60048301541665ffffffffffff610a22602460043501612a6f565b1610610d3957610a3760043560040183612ed4565b92610a4c60a460043501600435600401613389565b808096925060051b0460201485151715610d2557610a6c8560051b613d7c565b8695865b818810610bdc5750610ba2965060051b902090610a92600435600401866133ed565b610aa1600435600401876137e0565b90610ab0602460043501612a6f565b93610abf606460043501612a61565b9360405194602086019660043560040135885265ffffffffffff60d01b9060d01b16604087015260446004350135604687015260ff60f81b9060f81b1660668601526067850152608784015260a783015260c782015260c78152610b2460e782612666565b5190209283600382015565ffffffffffff610b43602460043501612a6f565b1665ffffffffffff196004830154161760048201557f7ebe42360bcb182fe0a88148b081e4557c89d09aa6af8307635ac2f83e2aaa656020604051868152a165ffffffffffff610b97602460043501612a6f565b169360243591613a63565b15610bcd57807f9b779b17422d0df92223018b32b4d1fa46e071723d6817e2486d003becc55f005d80f35b63729d0f6b60e01b8152600490fd5b610bf060a460043501600435600401613389565b891015610d11578860061b8101358a526019880160205260ff60408b2054166003811015610cfd57600103610cee57600191602091610cb38b8b8e868360061b86010192610c3d846133be565b15610ccf5760061b85013590525060198c01855260408e20805460ff19166002179055601c8c018054610c6f90612b5e565b90555b8c7f460119a8f69a33ed127de517d5ea464e958ce23ef19e4420a8b92bf780bbc2c986610c9e846133be565b1515926040519060061b8701358152a26133be565b908b60061b01358c52825360218b208186015201970196610a70565b60409260199160061b87013583520187522060ff198154169055610c72565b636e83084760e11b8a5260048afd5b634e487b7160e01b8b52602160045260248bfd5b634e487b7160e01b8a52603260045260248afd5b634e487b7160e01b86526011600452602486fd5b620725b160ea1b8452600484fd5b63164b6fc360e01b8452600484fd5b610d73610d67606460043501612a61565b60043560040135612e3f565b15610da35765ffffffffffff610d8d602460043501612a6f565b1642116109ef57631ad8809560e31b8452600484fd5b637b8cb35960e01b8452600484fd5b63580683f360e01b8452600484fd5b633ee5aeb560e01b8352600483fd5b5034610289578060031936011261028957506104b1604051610df3604082612666565b60058152640352e302e360dc1b6020820152604051918291602083526020830190612733565b50346102895780600319360112610289576104b1610e5b5f5160206142235f395f51905f52546002610e5360018060a01b03924290613d00565b015416612e10565b604051918291602083526020830190612733565b5034610289578060031936011261028957610e88612a1b565b506060610ea560165f5160206142235f395f51905f525401612a39565b61082360405180926040809180518452602081015160208501520151910152565b50346102895780600319360112610289576020601b5f5160206142235f395f51905f52540154604051908152f35b503461028957602036600319011261028957610f0e6125bb565b601a5f5160206142235f395f51905f5254019060018060a01b03165f52602052602060405f2054604051908152f35b503461028957602036600319011261028957600435906001600160401b038211610289576020610f79610f7336600486016126f6565b906129af565b6040519015158152f35b50346102895780600319360112610289575f5160206141e35f395f51905f52546040516001600160a01b039091168152602090f35b50346102895780600319360112610289575f5160206142235f395f51905f525460018101908154611008576002015463ffffffff1640908115610ff9575580f35b63f7bac7b560e01b8352600483fd5b6309476b0360e41b8352600483fd5b50346102895780600319360112610289575f5160206142235f395f51905f5254600601546040516001600160a01b039091168152602090f35b50346102895780600319360112610289576110696127da565b50604061108660155f5160206142235f395f51905f52540161296d565b610823825180926001600160801b03602080926001600160401b038151168552015116910152565b5034610289576020366003190112610289576004356001600160401b038111610922576110df9036906004016126f6565b905f5160206142235f395f51905f5254906110f983612877565b916111076040519384612666565b83835261111384612877565b602084019490601f19013686376019869201915b81811061117c57868587604051928392602084019060208552518091526040840192915b818110611159575050500390f35b919350916020808261116e6001948851612726565b01940191019184939261114b565b611187818386612935565b3587528260205260ff6040882054166111a08287612959565b60038210156111b25752600101611127565b634e487b7160e01b89526021600452602489fd5b5034610289578060031936011261028957602060035f5160206142235f395f51905f52540154604051908152f35b503461028957806003193601126102895761120d612b6c565b5f5160206141e35f395f51905f5280546001600160a01b0319811690915581906001600160a01b03167f8be0079c531659141344cd1fd0a4f28419497f9722a3daafe3b4186f6b6457e08280a380f35b5034610289578060031936011261028957611276612b6c565b5f5160206142435f395f51905f525460ff8160401c169081156115ad575b5061159e575f5160206142435f395f51905f52805468ffffffffffffffffff1916680100000000000000021790555f5160206141e35f395f51905f52546112ee906001600160a01b03166112e6613d1c565b6102ea613d1c565b7fc7f505b2f371ae2175ee4913f4499e1f2633a7b5936321eed1cdaeb6115181d260205f5160206142235f395f51905f5254604090815161132f8382612666565b601781528381017f726f757465722e73746f726167652e526f7574657256320000000000000000008152611361612b6c565b5f199151902001855260ff198386201690815f5160206142235f395f51905f52557f059eb9adf6e95b839d818142ed5bd5e498b6d95138e65c91525e93cc0f0339fc848451848152a16113b2612b9f565b80516001840155600283019063ffffffff868201511669ffffffffffff00000000868454930151881b169169ffffffffffffffffffff191617179055600581016005830190808203611550575b5050600881016001600160801b038154169060088401916001600160801b0319835416178255546001600160801b0382549181191691161790556114886114464283613d00565b61145d6001600160a01b036002610e534287613d00565b611473600461146c4287613d00565b01926127f2565b9061147e42936128e2565b9160098701612be7565b6015810160158301908082036114fe575b50506016810160168301918183036114de575b5050505060ff60401b195f5160206142435f395f51905f5254165f5160206142435f395f51905f52555160028152a180f35b60189283925490556017810154601785015501549101555f8080806114ac565b806001600160401b03806001600160801b03935416166001600160401b031984541617835554851c16600160401b600160c01b03825491861b1690600160401b600160c01b0319161790555f80611499565b5481546001600160a01b03199081166001600160a01b039283161790925560068381015490850180548416918316919091179055600780840154908501805490931691161790555f806113ff565b63f92ee8a960e01b8152600490fd5b600291506001600160401b031610155f611294565b503461028957610160366003190112610289576115dd6125bb565b6024356001600160a01b0381169190829003611a35576115fb61258f565b916116046125a5565b9260c43591608435919060a43560403660e3190112611a315761012435946001600160401b038611611a2d5736602387011215611a2d578560040135916001600160401b038311611a29573660248489010111611a2957610144356001600160401b038111611a255761167b9036906004016126f6565b9690945f5160206142435f395f51905f5254996001600160401b0360ff8c60401c16159b1680159081611a1d575b6001149081611a13575b159081611a0a575b506119fb576116fd908b60016001600160401b03195f5160206142435f395f51905f525416175f5160206142435f395f51905f52556119cb575b6112e6613d1c565b611705613d1c565b42156119bc5782156119ad578282111561199e57600a6117258484612810565b0484101561198f5760409a8b918d835161173f8582612666565b60178152602081017f726f757465722e73746f726167652e526f7574657256310000000000000000008152611772612b6c565b905190205f190190526020808f2060ff19165f5160206142235f395f51905f528190558451818152909a917f059eb9adf6e95b839d818142ed5bd5e498b6d95138e65c91525e93cc0f0339fc91a16117c8612b9f565b805160018c015560028b0190602081015163ffffffff1686835492015160201b69ffffffffffff00000000169169ffffffffffffffffffff191617179055835190611812826125e5565b8282526001600160a01b03908116602083018190529381169490910184905260058a018054919092166001600160a01b0319918216179091556006890180548216909217909155600788018054909116909117905570030000000000000000000000000000000260088701556118866127da565b50895161189281612614565b639502f90081526509184e72a0006020909101526015860180546001600160c01b0319166d09184e72a000000000009502f900179055895183908b906118d7816125e5565b83815284602082015201526016860155601785015560188401558651946118fd86612614565b60e43586526101043560208701526119199136916024016126a2565b90429336906119279261288e565b916009019361193594612be7565b61193d575080f35b60207fc7f505b2f371ae2175ee4913f4499e1f2633a7b5936321eed1cdaeb6115181d29160ff60401b195f5160206142435f395f51905f5254165f5160206142435f395f51905f52555160018152a180f35b63145e348f60e01b8c5260048cfd5b6353b2bbed60e01b8c5260048cfd5b63f7ba6bdb60e01b8c5260048cfd5b63b7d0949760e01b8c5260048cfd5b600160401b60ff60401b195f5160206142435f395f51905f525416175f5160206142435f395f51905f52556116f5565b63f92ee8a960e01b8d5260048dfd5b9050155f6116bb565b303b1591506116b3565b8c91506116a9565b8a80fd5b8980fd5b8880fd5b8780fd5b8280fd5b50346102895780600319360112610289577f00000000000000000000000000000000000000000000000000000000000000006001600160a01b03163003611a915760206040515f5160206142035f395f51905f528152f35b63703e46dd60e11b8152600490fd5b50604036600319011261028957611ab56125bb565b906024356001600160401b03811161092257611ad59036906004016126d8565b6001600160a01b037f000000000000000000000000000000000000000000000000000000000000000016308114908115611c92575b50611c8357611b17612b6c565b6040516352d1902d60e01b8152926001600160a01b0381169190602085600481865afa80958596611c4b575b50611b5c57634c9c8ce360e01b84526004839052602484fd5b9091845f5160206142035f395f51905f528103611c395750813b15611c27575f5160206142035f395f51905f5280546001600160a01b031916821790557fbc7cd75a20ee27fd9adebab32041f755214dbc6bffa90cc0225b39da2e5c2d3b8480a28151839015611c0d5780836020611c0195519101845af43d15611c05573d91611be583612687565b92611bf36040519485612666565b83523d85602085013e614102565b5080f35b606091614102565b50505034611c185780f35b63b398979f60e01b8152600490fd5b634c9c8ce360e01b8452600452602483fd5b632a87526960e21b8552600452602484fd5b9095506020813d602011611c7b575b81611c6760209383612666565b81010312611c775751945f611b43565b5f80fd5b3d9150611c5a565b63703e46dd60e11b8252600482fd5b5f5160206142035f395f51905f52546001600160a01b0316141590505f611b0a565b503461028957602036600319011261028957611cce6125bb565b611cd6612b6c565b5f5160206142235f395f51905f525460050180546001600160a01b0319166001600160a01b0390921691909117905580f35b5034610289578060031936011261028957611d216127da565b506040611d45611d405f5160206142235f395f51905f52544290613d00565b6127f2565b60208251918051835201516020820152f35b503461028957606036600319011261028957600435611d7461258f565b5f5160206142235f395f51905f5254600181015415610db2578284526019810160205260ff6040852054166003811015611f6657600203611f57578284526024356020526040842060405160608101908082106001600160401b03831117611f5357605a916040527f3d605080600a3d3981f3608060405263e6fabc0960e01b5f5260205f6004817381523060601b6b5afa15604c575f80805136821760208201527f80378136915af43d5f803e156048573d5ff35b3d5ffd5b5f80fd000000000000604082015286f5908115611f4f576001600160a01b0382165f908152601a820160205260409020849055601b018054611e6f90612b5e565b90556040516001600160a01b03821680825293907f8008ec1d8798725ebfa0f2d128d52e8e717dcba6e0f786557eeee70614b02bf190602090a2506001600160a01b038116611f4a5750335b5f5160206142235f395f51905f5254600501546001600160a01b0316823b15611f4657604051631c9776b560e31b81526001600160a01b039092166004830152602482015260016044820152828160648183865af18015611f3b57611f26575b602082604051908152f35b611f31838092612666565b6109225781611f1b565b6040513d85823e3d90fd5b8380fd5b611ebb565b8480fd5b8680fd5b630e2637d160e01b8452600484fd5b634e487b7160e01b85526021600452602485fd5b5034610289578060031936011261028957602060015f5160206142235f395f51905f52540154604051908152f35b503461028957602036600319011261028957600435814915612070575f5160206142235f395f51905f5254600181015415612061576019018183528060205260ff604084205416600381101561204d5761203e5781835260209081526040808420805460ff19166001179055519182527f5c261a095dd5720475295dc06379921c003c22164ee6cae5cf83e76ce0a1b98591a180f35b6304c51a3360e31b8352600483fd5b634e487b7160e01b84526021600452602484fd5b63580683f360e01b8352600483fd5b637bb2fa2f60e11b8252600482fd5b34611c77576080366003190112611c775760043561209b61258f565b906120a46125a5565b915f5160206142235f395f51905f525460018101541561007a57825f526019810160205260ff60405f20541660038110156125515760020361254257825f5260243560205260405f206040516102c08101908082106001600160401b03831117611c77576102b0916040527f60808060405261029e90816100128239f3fe608060405260043610610254575f81527f3560e01c806336a52a18146100ab57806342129d00146100a65780635ce6c32760208201527f146100a1578063701da98e1461009c578063704ed542146100975780637a8e0c60408201527fdd1461009257806391d5a64c1461008d5780639ce110d714610088578063affe60608201527fd0e0146100835763e43f3433036102545761023f565b610222565b6101fa565b60808201527f6101e4565b6101b1565b610181565b610165565b610143565b610106565b346160a08201527ed4575f3660031901126100d45760025460081c6001600160a01b031660809060c08201527f8152602090f35b5f80fd5b9181601f840112156100d45782359167ffffffffff60e08201527fffffff83116100d457602083818601950101116100d457565b604036600319016101008201527f126100d45760043567ffffffffffffffff81116100d4576101329036906004016101208201527f6100d8565b505060243580151514610254575f80fd5b346100d4575f366003196101408201527f01126100d457602060ff600254166040519015158152f35b346100d4575f36606101608201527f031901126100d45760205f54604051908152f35b346100d457602036600319016101808201527f126100d4576004356fffffffffffffffffffffffffffffffff811614610254576101a08201527f5f80fd5b60403660031901126100d45760243567ffffffffffffffff811161006101c08201527fd4576101dd9036906004016100d8565b5050610254565b346100d457602036606101e08201527f0319011215610254575f80fd5b346100d4575f3660031901126100d4576003546102008201527f6040516001600160a01b039091168152602090f35b346100d4575f36600319016102208201527f126100d4576020600154604051908152f35b346100d4575f36600319011215616102408201523060601c7f0254575f80fd5b63e6fabc0960e01b5f5260205f60048173000000000000000017610260820152735afa156100d4575f808051368280378136915af43060a01b176102808201526f3d5f803e1561029a573d5ff35b3d5ffd60801b6102a08201525ff5908115611c77576001600160a01b0382165f908152601a820160205260409020849055601b01805461248190612b5e565b90556040516001600160a01b03821680825293907f8008ec1d8798725ebfa0f2d128d52e8e717dcba6e0f786557eeee70614b02bf190602090a2506001600160a01b03811661253c575033915b813b15611c7757604051631c9776b560e31b81526001600160a01b039384166004820152921660248301525f604483018190528260648183855af191821561253157602092612521575b50604051908152f35b5f61252b91612666565b5f612518565b6040513d5f823e3d90fd5b916124ce565b630e2637d160e01b5f5260045ffd5b634e487b7160e01b5f52602160045260245ffd5b34611c77575f366003190112611c7757602090601c5f5160206142235f395f51905f525401548152f35b604435906001600160a01b0382168203611c7757565b606435906001600160a01b0382168203611c7757565b600435906001600160a01b0382168203611c7757565b35906001600160a01b0382168203611c7757565b606081019081106001600160401b0382111761260057604052565b634e487b7160e01b5f52604160045260245ffd5b604081019081106001600160401b0382111761260057604052565b61010081019081106001600160401b0382111761260057604052565b608081019081106001600160401b0382111761260057604052565b90601f801991011681019081106001600160401b0382111761260057604052565b6001600160401b03811161260057601f01601f191660200190565b9291926126ae82612687565b916126bc6040519384612666565b829481845281830111611c77578281602093845f960137010152565b9080601f83011215611c77578160206126f3933591016126a2565b90565b9181601f84011215611c77578235916001600160401b038311611c77576020808501948460051b010111611c7757565b9060038210156125515752565b805180835260209291819084018484015e5f828201840152601f01601f1916010190565b90602080835192838152019201905f5b8181106127745750505090565b82516001600160a01b0316845260209384019390920191600101612767565b9060208251805183520151602082015260018060a01b036020830151166040820152608060606127d1604085015160a08386015260a0850190612757565b93015191015290565b604051906127e782612614565b5f6020838281520152565b906040516127ff81612614565b602060018294805484520154910152565b9190820391821161281d57565b634e487b7160e01b5f52601160045260245ffd5b811561283b570490565b634e487b7160e01b5f52601260045260245ffd5b9190826040910312611c775760405161286781612614565b6020808294803584520135910152565b6001600160401b0381116126005760051b60200190565b92919061289a81612877565b936128a86040519586612666565b602085838152019160051b8101928311611c7757905b8282106128ca57505050565b602080916128d7846125d1565b8152019101906128be565b90604051918281549182825260208201905f5260205f20925f5b81811061291357505061291192500383612666565b565b84546001600160a01b03168352600194850194879450602090930192016128fc565b91908110156129455760051b0190565b634e487b7160e01b5f52603260045260245ffd5b80518210156129455760209160051b010190565b9060405161297a81612614565b91546001600160401b038116835260401c6001600160801b03166020830152565b356001600160a01b0381168103611c775790565b6129c85f5160206142235f395f51905f52544290613d00565b600301905f5b8381106129de5750505050600190565b6129ec6108fa828685612935565b6001600160a01b03165f9081526020849052604090205460ff1615612a13576001016129ce565b505050505f90565b60405190612a28826125e5565b5f6040838281528260208201520152565b90604051612a46816125e5565b60406002829480548452600181015460208501520154910152565b3560ff81168103611c775790565b3565ffffffffffff81168103611c775790565b60405190612a8f8261264b565b5f606083604051612a9f81612614565b83815283602082015281528260208201528160408201520152565b60405190612ac78261264b565b815f81525f6020820152612ad9612a82565b60408201526060612ae8612a82565b910152565b6001600160a01b03168015612b4b575f5160206141e35f395f51905f5280546001600160a01b0319811683179091556001600160a01b03167f8be0079c531659141344cd1fd0a4f28419497f9722a3daafe3b4186f6b6457e05f80a3565b631e4fbdf760e01b5f525f60045260245ffd5b5f19811461281d5760010190565b5f5160206141e35f395f51905f52546001600160a01b03163303612b8c57565b63118cdaa760e01b5f523360045260245ffd5b612ba7612a1b565b50604051612bb4816125e5565b5f815263ffffffff4316602082015265ffffffffffff4216604082015290565b8181029291811591840414171561281d57565b9291908051906020810191825170014551231950b75fc4402da1732fc9bebe1982109182612dff575b505015612df05751845551600184015560405190612c536021836020808201945f86528051918291018484015e81015f838201520301601f198101845283612666565b612c90602b604051809360208201956a600b5981380380925939f360a81b87525180918484015e81015f838201520301601f198101835282612666565b51905ff06001600160a01b03811615612de1576002830180546001600160a01b0319166001600160a01b039092169190911790555f5b600483018054821015612d04575f90815260208082208301546001600160a01b0316825260038501905260409020805460ff19169055600101612cc6565b5050925f5b8451811015612d4d576001906001600160a01b03612d278288612959565b5116828060a01b03165f526003840160205260405f208260ff1982541617905501612d09565b5092600482018151916001600160401b03831161260057600160401b8311612600578154838355808410612db7575b50602001905f5260205f205f5b838110612d9a575050505060050155565b82516001600160a01b031681830155602090920191600101612d89565b825f52838060205f20019103905f5b828110612dd4575050612d7c565b5f82820155600101612dc6565b633011642560e01b5f5260045ffd5b63375f0aab60e11b5f5260045ffd5b612e0992506140df565b5f80612c10565b803b905f1982019082821161281d5760019060405193603e601f19910116840160405282845260208401903c90565b435f198101939290841161281d5760ff16438110612e8f57505f925b83811015612e6b575b505f925050565b8040828103612e7d5750600193505050565b15612e8a575f1901612e5b565b612e64565b612e999043612810565b92612e5b565b903590601e1981360301821215611c7757018035906001600160401b038211611c7757602001918160051b36038313611c7757565b90608081016001612ee58284612e9f565b90501161337a57612ef68183612e9f565b90501561335357612f0691612e9f565b1561294557803590603e1981360301821215611c77570191612f288380612e9f565b9190928260051b938385046020148415171561281d57612f4a85969495613d7c565b925f945f97601a60fe19853603019501965b888a101561330b578960051b85013586811215611c77578501612f7e8161299b565b6001600160a01b03165f90815260208a905260409020541561005c575f608082016001600160801b03612fb082613d47565b161515806132f8575b6132e7575b6001600160a01b03612fcf8461299b565b604051630427a21d60e11b81526020600482015294911691610124850191906001600160801b039061304e906001600160a01b0361300c856125d1565b1660248901526020840135604489015261302860408501613d5b565b151560648901526001600160a01b03613043606086016125d1565b166084890152613d68565b1660a486015261306060a08201613d5b565b151560c486015236819003601e190160c082013581811215611c77578201602081359101936001600160401b038211611c77576060820236038513611c7757819061010060e48a015252610144870193905f905b80821061329d5750505060e082013590811215611c775701803560208201926001600160401b038211611c77578160051b908136038513611c775791879594936023198785030161010488015281845260208085019385010194935f9160fe19813603015b8484106131905750505050505050602093916001600160801b03848093039316905af1908115612531575f9161315e575b50816020916001938a015201990198612f5c565b90506020813d8211613188575b8161317860209383612666565b81010312611c775751600161314a565b3d915061316b565b919395979850919395601f19848203018752873582811215611c77578301602081013582526001600160a01b036131c9604083016125d1565b1660208301526060810135603e193683900301811215611c77578101602081013591906040016001600160401b038311611c77578236038113611c7757829060e060408601528160e08601526101008501375f61010083850101526001600160801b0361323860808301613d68565b16606084015260a0810135608084015260c081013563ffffffff60e01b8116809103611c77578360209361327a60e086956101009560a060019a015201613d5b565b151560c0830152601f80199101160101990197019401918a989796959391613119565b90919460608060019288358152838060a01b036132bc60208b016125d1565b1660208201526001600160801b036132d660408b01613d68565b1660408201520196019201906130b4565b90506132f281613d47565b90612fbe565b5061330560a084016133be565b15612fb9565b5094935095509550506020925020910135907fd04cd9af813f6f0b56e9411a6ee6a84eb5ac35a96f0c33d2e3a07d65baa8f4186020604051848152a15f5260205260405f2090565b5050507fc5d2460186f7233c927e7db2dcc703c0e500b653ca82273b7bfad8045d85a47090565b6306d6c38360e01b5f5260045ffd5b903590601e1981360301821215611c7757018035906001600160401b038211611c7757602001918160061b36038313611c7757565b358015158103611c775790565b903590605e1981360301821215611c77570190565b9190820180921161281d57565b60c0820160016133fd8285612e9f565b90501161379f5761340e8184612e9f565b9050156133535761341f9083612e9f565b1561294557803590607e1981360301821215611c775701916060830190602061344783612a6f565b91019065ffffffffffff8061345b84612a6f565b16911610156137905761346d82612a6f565b65ffffffffffff80600286015460201c16911610613781576134b365ffffffffffff6134ac6134a68261349f87612a6f565b1687613da1565b93612a6f565b1684613da1565b1115613772576007820154600690920180548435946001600160a01b0394851694604082019391925f916020911660446134f9836134f189896133cb565b01358b6133e0565b604051948593849263095ea7b360e01b84528c600485015260248401525af1908115612531575f91613737575b5015613728575460405163394f179b60e11b81526001600160a01b03909116600482015260248101959095526020818101356044870152856064815f885af1948515612531575f956136f0575b509061357e916133cb565b9161358882612a6f565b9260405193637fbe95b560e01b85526040600486015260a48501918035601e1982360301811215611c77578101602081359101936001600160401b038211611c77578160061b36038513611c775760606044890152819052869360c485019392915f5b8181106136b857505050836020959365ffffffffffff829484895f9601356064860152613621604060018060a01b0392016125d1565b16608485015216602483015203925af1918215612531575f92613682575b5061364990612a6f565b6040519160208301938452604083015265ffffffffffff60d01b9060d01b1660608201526046815261367c606682612666565b51902090565b9091506020813d6020116136b0575b8161369e60209383612666565b81010312611c7757519061364961363f565b3d9150613691565b919550919293604080600192838060a01b036136d38a6125d1565b1681526020890135602082015201960191019188959493926135eb565b919094506020823d602011613720575b8161370d60209383612666565b81010312611c775790519361357e613573565b3d9150613700565b6367b9145160e01b5f5260045ffd5b90506020813d60201161376a575b8161375260209383612666565b81010312611c7757518015158103611c77575f613526565b3d9150613745565b6308027f7760e31b5f5260045ffd5b637bde91e760e11b5f5260045ffd5b63087a19ab60e41b5f5260045ffd5b633249ceed60e11b5f5260045ffd5b903590601e1981360301821215611c7757018035906001600160401b038211611c7757602001918136038313611c7757565b9060e0810160016137f18284612e9f565b905011613a54576138028183612e9f565b9050156133535761381291612e9f565b1561294557803590609e1981360301821215611c77570160608101906138388282612e9f565b905015613a455765ffffffffffff600284015460201c169161385a8342612810565b61386960168601548092612831565b936080840135946001810180911161281d578503613a365761388e8561389493612bd4565b906133e0565b936138a3601782015486612810565b4210613a27576138b290613dc9565b934260058601541015613a18576139079060408401956138f96139016138d889886137ae565b91906138e4888a612e9f565b9490916138f1368c61284f565b9436916126a2565b93369161288e565b92612be7565b7fa1a3b42179ad30022438a1ea333b38eaf4a7329beee5e2b8111c0dcd4e08821c6020604051858152a160a082360312611c7757604051936139488561264b565b613952368461284f565b8552356001600160401b038111611c775761397090369084016126d8565b602085015235906001600160401b038211611c77570136601f82011215611c77576139a290369060208135910161288e565b91826040820152816060820152519160208351930151906040519283926020840195865260408401526060830160208351919301905f5b8181106139f65750505081520380825261367c9060200182612666565b82516001600160a01b03168552869550602094850194909201916001016139d9565b6333fc8f5160e21b5f5260045ffd5b6372a84ce560e11b5f5260045ffd5b6343d3f5bf60e01b5f5260045ffd5b636c2bf3db60e01b5f5260045ffd5b631d3fc6bf60e21b5f5260045ffd5b909493919365ffffffffffff600283015460201c16613a824284613da1565b613a9a613a9460168601548093612bd4565b836133e0565b918284108080613cbf575b15613c8d57508310613c7f57613abb90836133e0565b10613c7057613acb905b82613d00565b94601960f81b5f523060601b60025260165260365f209360028110156125515780613b5c57505060018103613b4d571561294557613b0c81613b13926137ae565b36916126a2565b916060835103613b3e578260206126f394015160606040830151920151926001815491015490613de4565b632ce466bf60e01b5f5260045ffd5b6360a1ea7760e01b5f5260045ffd5b919391600114613b6f5750505050505f90565b613b9490600860048796970154910154906001600160801b038260801c921690613cd5565b925f9260035f9201915b86811015613c6557613bcd613bc4613bbe613b0c8460051b8601866137ae565b86614045565b9092919261407f565b6001600160a01b0381165f9081526020859052604090205460ff16613bf8575b506001905b01613b9e565b6001600160a01b03165f9081527ff02b465737fa6045c2ff53fb2df43c66916ac2166fa303264668fb2f6a1d8c0060205260409020805c15613c3d5750600190613bf2565b946001613c4b92965d612b5e565b93858514613c59575f613bed565b50505050505050600190565b505050505050505f90565b63046bb1e560e51b5f5260045ffd5b62f4462b60e01b5f5260045ffd5b9392915050428211613cb057613acb92613ca8575b50613ac5565b90505f613ca2565b6347860b9760e01b5f5260045ffd5b50613cce6018870154856133e0565b4210613aa5565b6001600160801b03809216029116613ced8183612831565b91811561283b5706156126f35760010190565b90613d0b9082613fe5565b15613d1657600f0190565b60090190565b60ff5f5160206142435f395f51905f525460401c1615613d3857565b631afcd79f60e31b5f5260045ffd5b356001600160801b0381168103611c775790565b35908115158203611c7757565b35906001600160801b0382168203611c7757565b6040519190601f01601f191682016001600160401b03811183821017611c7757604052565b6016613dc06126f39365ffffffffffff600285015460201c1690612810565b91015490612831565b613dd34282613fe5565b15613dde5760090190565b600f0190565b9293919490613df385876140df565b15613f86578215613f865770014551231950b75fc4402da1732fc9bebe19831015613f86576001169061010e613e2881613d7c565b9160883684376002600188160160888401538760898401526002840160a984015360aa830186905260ca8301527e300046524f53542d736563703235366b312d4b454343414b3235362d76316360ea8301526303430b6160e51b61010a830152812060cc820181815290600260ec84016001815360428420809318845253604270014551231950b75fc4402da1732fc9bebe19922060801c6001600160401b0360801b8260801b16179070014551231950b75fc4402da1732fc9bebe1990600160c01b9060401c09088015613c655784601b6080945f9660209870014551231950b75fc4402da1732fc9bebe19910970014551231950b75fc4402da1732fc9bebe19038552018684015280604084015270014551231950b75fc4402da1732fc9bebe19910970014551231950b75fc4402da1732fc9bebe1903606082015282805260015afa505f51915f5260205260018060a01b0360405f20161490565b5050505050505f90565b613f98612a82565b5060028101546005820154604051929091613fd8916004916001600160a01b0316613fc28661264b565b613fcb826127f2565b86526020860152016128e2565b6040830152606082015290565b906014600e8301549201548083146140365781818410931191821591111591819061402f575b15614020578261401a57505090565b14919050565b634c38ae9560e11b5f5260045ffd5b508161400b565b63f26224af60e01b5f5260045ffd5b81519190604183036140755761406e9250602082015190606060408401519301515f1a90614160565b9192909190565b50505f9160029190565b60048110156125515780614091575050565b600181036140a85763f645eedf60e01b5f5260045ffd5b600281036140c3575063fce698f760e01b5f5260045260245ffd5b6003146140cd5750565b6335e2f38360e21b5f5260045260245ffd5b6401000003d01990600790829081818009900908906401000003d0199080091490565b90614126575080511561411757602081519101fd5b63d6bda27560e01b5f5260045ffd5b81511580614157575b614137575090565b639996b31560e01b5f9081526001600160a01b0391909116600452602490fd5b50803b1561412f565b91907f7fffffffffffffffffffffffffffffff5d576e7357a4501ddfe92f46681b20a084116141d7579160209360809260ff5f9560405194855216868401526040830152606082015282805260015afa15612531575f516001600160a01b038116156141cd57905f905f90565b505f906001905f90565b5050505f916003919056fe9016d09d72d40fdae2fd8ceac6b6234c7706214fd39c1cd1e609a0528c199300360894a13ba1a3210667c828492db98dca3e2076cc3735a920a3ca505d382bbc5c09ca1b9b8127a4fd9f3c384aac59b661441e820e17733753ff5f2e86e1e000f0c57e16840df040f15088dc2f81fe391c3923bec73e23a9662efc9c229c6a00f0c57e16840df040f15088dc2f81fe391c3923bec73e23a9662efc9c229c6a00","linkReferences":{}},"methodIdentifiers":{"UPGRADE_INTERFACE_VERSION()":"ad3cb1cc","areValidators(address[])":"8f381dbe","codeState(bytes32)":"c13911e8","codesStates(bytes32[])":"82bdeaad","commitBatch((bytes32,uint48,bytes32,uint8,((address,bytes32,bool,address,uint128,bool,(bytes32,address,uint128)[],(bytes32,address,bytes,uint128,(bytes32,bytes4),bool)[])[],bytes32)[],(bytes32,bool)[],((uint256,bytes32),((address,uint256)[],uint256,address),uint48)[],((uint256,uint256),bytes,address[],uint256)[]),uint8,bytes[])":"b24fcac0","computeSettings()":"84d22a4f","createProgram(bytes32,bytes32,address)":"3683c4d2","createProgramWithAbiInterface(bytes32,bytes32,address,address)":"0c18d277","genesisBlockHash()":"28e24b3d","genesisTimestamp()":"cacf66ab","initialize(address,address,address,address,uint256,uint256,uint256,(uint256,uint256),bytes,address[])":"53f7fd48","isValidator(address)":"facd743b","latestCommittedBatchHash()":"71a8cf2d","latestCommittedBatchTimestamp()":"d456fd51","lookupGenesisHash()":"8b1edf1e","middleware()":"f4f20ac0","mirrorImpl()":"e6fabc09","owner()":"8da5cb5b","programCodeId(address)":"9067088e","programsCodeIds(address[])":"baaf0201","programsCount()":"96a2ddfa","proxiableUUID()":"52d1902d","reinitialize()":"6c2eb350","renounceOwnership()":"715018a6","requestCodeValidation(bytes32)":"120e3f1e","setMirror(address)":"3d43b418","signingThresholdFraction()":"e3a6684f","storageView()":"c2eb812f","timelines()":"9eb939a8","transferOwnership(address)":"f2fde38b","upgradeToAndCall(address,bytes)":"4f1ef286","validatedCodesCount()":"007a32e7","validators()":"ca1e7819","validatorsAggregatedPublicKey()":"3bd109fa","validatorsCount()":"ed612f8c","validatorsThreshold()":"edc87225","validatorsVerifiableSecretSharingCommitment()":"a5d53a44","wrappedVara()":"88f50cf0"},"storageLayout":{"storage":[],"types":{}},"id":161}