{"abi":[{"type":"constructor","inputs":[],"stateMutability":"nonpayable"},{"type":"receive","stateMutability":"payable"},{"type":"function","name":"CODE_COMMITMENT_GAS","inputs":[],"outputs":[{"name":"","type":"uint256","internalType":"uint256"}],"stateMutability":"view"},{"type":"function","name":"UPGRADE_INTERFACE_VERSION","inputs":[],"outputs":[{"name":"","type":"string","internalType":"string"}],"stateMutability":"view"},{"type":"function","name":"areValidators","inputs":[{"name":"_validators","type":"address[]","internalType":"address[]"}],"outputs":[{"name":"","type":"bool","internalType":"bool"}],"stateMutability":"view"},{"type":"function","name":"codeState","inputs":[{"name":"_codeId","type":"bytes32","internalType":"bytes32"}],"outputs":[{"name":"","type":"uint8","internalType":"enum Gear.CodeState"}],"stateMutability":"view"},{"type":"function","name":"codesStates","inputs":[{"name":"_codesIds","type":"bytes32[]","internalType":"bytes32[]"}],"outputs":[{"name":"","type":"uint8[]","internalType":"enum Gear.CodeState[]"}],"stateMutability":"view"},{"type":"function","name":"commitBatch","inputs":[{"name":"_batch","type":"tuple","internalType":"struct Gear.BatchCommitment","components":[{"name":"blockHash","type":"bytes32","internalType":"bytes32"},{"name":"blockTimestamp","type":"uint48","internalType":"uint48"},{"name":"previousCommittedBatchHash","type":"bytes32","internalType":"bytes32"},{"name":"expiry","type":"uint8","internalType":"uint8"},{"name":"chainCommitment","type":"tuple[]","internalType":"struct Gear.ChainCommitment[]","components":[{"name":"transitions","type":"tuple[]","internalType":"struct Gear.StateTransition[]","components":[{"name":"actorId","type":"address","internalType":"address"},{"name":"newStateHash","type":"bytes32","internalType":"bytes32"},{"name":"exited","type":"bool","internalType":"bool"},{"name":"inheritor","type":"address","internalType":"address"},{"name":"valueToReceive","type":"uint128","internalType":"uint128"},{"name":"valueToReceiveNegativeSign","type":"bool","internalType":"bool"},{"name":"valueClaims","type":"tuple[]","internalType":"struct Gear.ValueClaim[]","components":[{"name":"messageId","type":"bytes32","internalType":"bytes32"},{"name":"destination","type":"address","internalType":"address"},{"name":"value","type":"uint128","internalType":"uint128"}]},{"name":"messages","type":"tuple[]","internalType":"struct Gear.Message[]","components":[{"name":"id","type":"bytes32","internalType":"bytes32"},{"name":"destination","type":"address","internalType":"address"},{"name":"payload","type":"bytes","internalType":"bytes"},{"name":"value","type":"uint128","internalType":"uint128"},{"name":"replyDetails","type":"tuple","internalType":"struct Gear.ReplyDetails","components":[{"name":"to","type":"bytes32","internalType":"bytes32"},{"name":"code","type":"bytes4","internalType":"bytes4"}]},{"name":"call","type":"bool","internalType":"bool"}]}]},{"name":"head","type":"bytes32","internalType":"bytes32"}]},{"name":"codeCommitments","type":"tuple[]","internalType":"struct Gear.CodeCommitment[]","components":[{"name":"id","type":"bytes32","internalType":"bytes32"},{"name":"valid","type":"bool","internalType":"bool"}]},{"name":"rewardsCommitment","type":"tuple[]","internalType":"struct Gear.RewardsCommitment[]","components":[{"name":"operators","type":"tuple","internalType":"struct Gear.OperatorRewardsCommitment","components":[{"name":"amount","type":"uint256","internalType":"uint256"},{"name":"root","type":"bytes32","internalType":"bytes32"}]},{"name":"stakers","type":"tuple","internalType":"struct Gear.StakerRewardsCommitment","components":[{"name":"distribution","type":"tuple[]","internalType":"struct Gear.StakerRewards[]","components":[{"name":"vault","type":"address","internalType":"address"},{"name":"amount","type":"uint256","internalType":"uint256"}]},{"name":"totalAmount","type":"uint256","internalType":"uint256"},{"name":"token","type":"address","internalType":"address"}]},{"name":"timestamp","type":"uint48","internalType":"uint48"}]},{"name":"validatorsCommitment","type":"tuple[]","internalType":"struct Gear.ValidatorsCommitment[]","components":[{"name":"aggregatedPublicKey","type":"tuple","internalType":"struct Gear.AggregatedPublicKey","components":[{"name":"x","type":"uint256","internalType":"uint256"},{"name":"y","type":"uint256","internalType":"uint256"}]},{"name":"verifiableSecretSharingCommitment","type":"bytes","internalType":"bytes"},{"name":"validators","type":"address[]","internalType":"address[]"},{"name":"eraIndex","type":"uint256","internalType":"uint256"}]}]},{"name":"_signatureType","type":"uint8","internalType":"enum Gear.SignatureType"},{"name":"_signatures","type":"bytes[]","internalType":"bytes[]"}],"outputs":[],"stateMutability":"nonpayable"},{"type":"function","name":"computeSettings","inputs":[],"outputs":[{"name":"","type":"tuple","internalType":"struct Gear.ComputationSettings","components":[{"name":"threshold","type":"uint64","internalType":"uint64"},{"name":"wvaraPerSecond","type":"uint128","internalType":"uint128"}]}],"stateMutability":"view"},{"type":"function","name":"createProgram","inputs":[{"name":"_codeId","type":"bytes32","internalType":"bytes32"},{"name":"_salt","type":"bytes32","internalType":"bytes32"},{"name":"_overrideInitializer","type":"address","internalType":"address"}],"outputs":[{"name":"","type":"address","internalType":"address"}],"stateMutability":"nonpayable"},{"type":"function","name":"createProgramWithAbiInterface","inputs":[{"name":"_codeId","type":"bytes32","internalType":"bytes32"},{"name":"_salt","type":"bytes32","internalType":"bytes32"},{"name":"_overrideInitializer","type":"address","internalType":"address"},{"name":"_abiInterface","type":"address","internalType":"address"}],"outputs":[{"name":"","type":"address","internalType":"address"}],"stateMutability":"nonpayable"},{"type":"function","name":"genesisBlockHash","inputs":[],"outputs":[{"name":"","type":"bytes32","internalType":"bytes32"}],"stateMutability":"view"},{"type":"function","name":"genesisTimestamp","inputs":[],"outputs":[{"name":"","type":"uint48","internalType":"uint48"}],"stateMutability":"view"},{"type":"function","name":"initialize","inputs":[{"name":"_owner","type":"address","internalType":"address"},{"name":"_mirror","type":"address","internalType":"address"},{"name":"_wrappedVara","type":"address","internalType":"address"},{"name":"_middleware","type":"address","internalType":"address"},{"name":"_eraDuration","type":"uint256","internalType":"uint256"},{"name":"_electionDuration","type":"uint256","internalType":"uint256"},{"name":"_validationDelay","type":"uint256","internalType":"uint256"},{"name":"_aggregatedPublicKey","type":"tuple","internalType":"struct Gear.AggregatedPublicKey","components":[{"name":"x","type":"uint256","internalType":"uint256"},{"name":"y","type":"uint256","internalType":"uint256"}]},{"name":"_verifiableSecretSharingCommitment","type":"bytes","internalType":"bytes"},{"name":"_validators","type":"address[]","internalType":"address[]"}],"outputs":[],"stateMutability":"nonpayable"},{"type":"function","name":"isValidator","inputs":[{"name":"_validator","type":"address","internalType":"address"}],"outputs":[{"name":"","type":"bool","internalType":"bool"}],"stateMutability":"view"},{"type":"function","name":"latestCommittedBatchHash","inputs":[],"outputs":[{"name":"","type":"bytes32","internalType":"bytes32"}],"stateMutability":"view"},{"type":"function","name":"latestCommittedBatchTimestamp","inputs":[],"outputs":[{"name":"","type":"uint48","internalType":"uint48"}],"stateMutability":"view"},{"type":"function","name":"latestGasPrice","inputs":[],"outputs":[{"name":"","type":"uint256","internalType":"uint256"}],"stateMutability":"view"},{"type":"function","name":"lookupGenesisHash","inputs":[],"outputs":[],"stateMutability":"nonpayable"},{"type":"function","name":"middleware","inputs":[],"outputs":[{"name":"","type":"address","internalType":"address"}],"stateMutability":"view"},{"type":"function","name":"mirrorImpl","inputs":[],"outputs":[{"name":"","type":"address","internalType":"address"}],"stateMutability":"view"},{"type":"function","name":"owner","inputs":[],"outputs":[{"name":"","type":"address","internalType":"address"}],"stateMutability":"view"},{"type":"function","name":"pause","inputs":[],"outputs":[],"stateMutability":"nonpayable"},{"type":"function","name":"paused","inputs":[],"outputs":[{"name":"","type":"bool","internalType":"bool"}],"stateMutability":"view"},{"type":"function","name":"programCodeId","inputs":[{"name":"_programId","type":"address","internalType":"address"}],"outputs":[{"name":"","type":"bytes32","internalType":"bytes32"}],"stateMutability":"view"},{"type":"function","name":"programsCodeIds","inputs":[{"name":"_programsIds","type":"address[]","internalType":"address[]"}],"outputs":[{"name":"","type":"bytes32[]","internalType":"bytes32[]"}],"stateMutability":"view"},{"type":"function","name":"programsCount","inputs":[],"outputs":[{"name":"","type":"uint256","internalType":"uint256"}],"stateMutability":"view"},{"type":"function","name":"proxiableUUID","inputs":[],"outputs":[{"name":"","type":"bytes32","internalType":"bytes32"}],"stateMutability":"view"},{"type":"function","name":"reinitialize","inputs":[],"outputs":[],"stateMutability":"nonpayable"},{"type":"function","name":"renounceOwnership","inputs":[],"outputs":[],"stateMutability":"nonpayable"},{"type":"function","name":"requestCodeValidation","inputs":[{"name":"_codeId","type":"bytes32","internalType":"bytes32"}],"outputs":[],"stateMutability":"payable"},{"type":"function","name":"setMirror","inputs":[{"name":"newMirror","type":"address","internalType":"address"}],"outputs":[],"stateMutability":"nonpayable"},{"type":"function","name":"signingThresholdFraction","inputs":[],"outputs":[{"name":"","type":"uint128","internalType":"uint128"},{"name":"","type":"uint128","internalType":"uint128"}],"stateMutability":"view"},{"type":"function","name":"storageView","inputs":[],"outputs":[{"name":"","type":"tuple","internalType":"struct IRouter.StorageView","components":[{"name":"genesisBlock","type":"tuple","internalType":"struct Gear.GenesisBlockInfo","components":[{"name":"hash","type":"bytes32","internalType":"bytes32"},{"name":"number","type":"uint32","internalType":"uint32"},{"name":"timestamp","type":"uint48","internalType":"uint48"}]},{"name":"latestCommittedBatch","type":"tuple","internalType":"struct Gear.CommittedBatchInfo","components":[{"name":"hash","type":"bytes32","internalType":"bytes32"},{"name":"timestamp","type":"uint48","internalType":"uint48"}]},{"name":"implAddresses","type":"tuple","internalType":"struct Gear.AddressBook","components":[{"name":"mirror","type":"address","internalType":"address"},{"name":"wrappedVara","type":"address","internalType":"address"},{"name":"middleware","type":"address","internalType":"address"}]},{"name":"validationSettings","type":"tuple","internalType":"struct Gear.ValidationSettingsView","components":[{"name":"thresholdNumerator","type":"uint128","internalType":"uint128"},{"name":"thresholdDenominator","type":"uint128","internalType":"uint128"},{"name":"validators0","type":"tuple","internalType":"struct Gear.ValidatorsView","components":[{"name":"aggregatedPublicKey","type":"tuple","internalType":"struct Gear.AggregatedPublicKey","components":[{"name":"x","type":"uint256","internalType":"uint256"},{"name":"y","type":"uint256","internalType":"uint256"}]},{"name":"verifiableSecretSharingCommitmentPointer","type":"address","internalType":"address"},{"name":"list","type":"address[]","internalType":"address[]"},{"name":"useFromTimestamp","type":"uint256","internalType":"uint256"}]},{"name":"validators1","type":"tuple","internalType":"struct Gear.ValidatorsView","components":[{"name":"aggregatedPublicKey","type":"tuple","internalType":"struct Gear.AggregatedPublicKey","components":[{"name":"x","type":"uint256","internalType":"uint256"},{"name":"y","type":"uint256","internalType":"uint256"}]},{"name":"verifiableSecretSharingCommitmentPointer","type":"address","internalType":"address"},{"name":"list","type":"address[]","internalType":"address[]"},{"name":"useFromTimestamp","type":"uint256","internalType":"uint256"}]}]},{"name":"computeSettings","type":"tuple","internalType":"struct Gear.ComputationSettings","components":[{"name":"threshold","type":"uint64","internalType":"uint64"},{"name":"wvaraPerSecond","type":"uint128","internalType":"uint128"}]},{"name":"timelines","type":"tuple","internalType":"struct Gear.Timelines","components":[{"name":"era","type":"uint256","internalType":"uint256"},{"name":"election","type":"uint256","internalType":"uint256"},{"name":"validationDelay","type":"uint256","internalType":"uint256"}]},{"name":"programsCount","type":"uint256","internalType":"uint256"},{"name":"validatedCodesCount","type":"uint256","internalType":"uint256"},{"name":"latestGasPrice","type":"uint256","internalType":"uint256"}]}],"stateMutability":"view"},{"type":"function","name":"timelines","inputs":[],"outputs":[{"name":"","type":"tuple","internalType":"struct Gear.Timelines","components":[{"name":"era","type":"uint256","internalType":"uint256"},{"name":"election","type":"uint256","internalType":"uint256"},{"name":"validationDelay","type":"uint256","internalType":"uint256"}]}],"stateMutability":"view"},{"type":"function","name":"transferOwnership","inputs":[{"name":"newOwner","type":"address","internalType":"address"}],"outputs":[],"stateMutability":"nonpayable"},{"type":"function","name":"unpause","inputs":[],"outputs":[],"stateMutability":"nonpayable"},{"type":"function","name":"upgradeToAndCall","inputs":[{"name":"newImplementation","type":"address","internalType":"address"},{"name":"data","type":"bytes","internalType":"bytes"}],"outputs":[],"stateMutability":"payable"},{"type":"function","name":"validatedCodesCount","inputs":[],"outputs":[{"name":"","type":"uint256","internalType":"uint256"}],"stateMutability":"view"},{"type":"function","name":"validators","inputs":[],"outputs":[{"name":"","type":"address[]","internalType":"address[]"}],"stateMutability":"view"},{"type":"function","name":"validatorsAggregatedPublicKey","inputs":[],"outputs":[{"name":"","type":"tuple","internalType":"struct Gear.AggregatedPublicKey","components":[{"name":"x","type":"uint256","internalType":"uint256"},{"name":"y","type":"uint256","internalType":"uint256"}]}],"stateMutability":"view"},{"type":"function","name":"validatorsCount","inputs":[],"outputs":[{"name":"","type":"uint256","internalType":"uint256"}],"stateMutability":"view"},{"type":"function","name":"validatorsThreshold","inputs":[],"outputs":[{"name":"","type":"uint256","internalType":"uint256"}],"stateMutability":"view"},{"type":"function","name":"validatorsVerifiableSecretSharingCommitment","inputs":[],"outputs":[{"name":"","type":"bytes","internalType":"bytes"}],"stateMutability":"view"},{"type":"function","name":"withdrawExecutableBalance","inputs":[],"outputs":[],"stateMutability":"nonpayable"},{"type":"function","name":"wrappedVara","inputs":[],"outputs":[{"name":"","type":"address","internalType":"address"}],"stateMutability":"view"},{"type":"event","name":"AnnouncesCommitted","inputs":[{"name":"head","type":"bytes32","indexed":false,"internalType":"bytes32"}],"anonymous":false},{"type":"event","name":"BatchCommitted","inputs":[{"name":"hash","type":"bytes32","indexed":false,"internalType":"bytes32"}],"anonymous":false},{"type":"event","name":"CodeGotValidated","inputs":[{"name":"codeId","type":"bytes32","indexed":false,"internalType":"bytes32"},{"name":"valid","type":"bool","indexed":true,"internalType":"bool"}],"anonymous":false},{"type":"event","name":"CodeValidationRequested","inputs":[{"name":"codeId","type":"bytes32","indexed":false,"internalType":"bytes32"}],"anonymous":false},{"type":"event","name":"ComputationSettingsChanged","inputs":[{"name":"threshold","type":"uint64","indexed":false,"internalType":"uint64"},{"name":"wvaraPerSecond","type":"uint128","indexed":false,"internalType":"uint128"}],"anonymous":false},{"type":"event","name":"Initialized","inputs":[{"name":"version","type":"uint64","indexed":false,"internalType":"uint64"}],"anonymous":false},{"type":"event","name":"OwnershipTransferred","inputs":[{"name":"previousOwner","type":"address","indexed":true,"internalType":"address"},{"name":"newOwner","type":"address","indexed":true,"internalType":"address"}],"anonymous":false},{"type":"event","name":"Paused","inputs":[{"name":"account","type":"address","indexed":false,"internalType":"address"}],"anonymous":false},{"type":"event","name":"ProgramCreated","inputs":[{"name":"actorId","type":"address","indexed":false,"internalType":"address"},{"name":"codeId","type":"bytes32","indexed":true,"internalType":"bytes32"}],"anonymous":false},{"type":"event","name":"StorageSlotChanged","inputs":[{"name":"slot","type":"bytes32","indexed":false,"internalType":"bytes32"}],"anonymous":false},{"type":"event","name":"Unpaused","inputs":[{"name":"account","type":"address","indexed":false,"internalType":"address"}],"anonymous":false},{"type":"event","name":"Upgraded","inputs":[{"name":"implementation","type":"address","indexed":true,"internalType":"address"}],"anonymous":false},{"type":"event","name":"ValidatorsCommittedForEra","inputs":[{"name":"eraIndex","type":"uint256","indexed":false,"internalType":"uint256"}],"anonymous":false},{"type":"error","name":"AddressEmptyCode","inputs":[{"name":"target","type":"address","internalType":"address"}]},{"type":"error","name":"ApproveERC20Failed","inputs":[]},{"type":"error","name":"BatchTimestampNotInPast","inputs":[]},{"type":"error","name":"BatchTimestampTooEarly","inputs":[]},{"type":"error","name":"BlobNotFound","inputs":[]},{"type":"error","name":"CodeAlreadyOnValidationOrValidated","inputs":[]},{"type":"error","name":"CodeNotValidated","inputs":[]},{"type":"error","name":"CodeValidationNotRequested","inputs":[]},{"type":"error","name":"CommitmentEraNotNext","inputs":[]},{"type":"error","name":"DeploymentFailed","inputs":[]},{"type":"error","name":"ECDSAInvalidSignature","inputs":[]},{"type":"error","name":"ECDSAInvalidSignatureLength","inputs":[{"name":"length","type":"uint256","internalType":"uint256"}]},{"type":"error","name":"ECDSAInvalidSignatureS","inputs":[{"name":"s","type":"bytes32","internalType":"bytes32"}]},{"type":"error","name":"ERC1967InvalidImplementation","inputs":[{"name":"implementation","type":"address","internalType":"address"}]},{"type":"error","name":"ERC1967NonPayable","inputs":[]},{"type":"error","name":"ElectionNotStarted","inputs":[]},{"type":"error","name":"EmptyValidatorsList","inputs":[]},{"type":"error","name":"EnforcedPause","inputs":[]},{"type":"error","name":"EraDurationTooShort","inputs":[]},{"type":"error","name":"ErasTimestampMustNotBeEqual","inputs":[]},{"type":"error","name":"ExpectedPause","inputs":[]},{"type":"error","name":"FailedCall","inputs":[]},{"type":"error","name":"GenesisHashAlreadySet","inputs":[]},{"type":"error","name":"GenesisHashNotFound","inputs":[]},{"type":"error","name":"InvalidElectionDuration","inputs":[]},{"type":"error","name":"InvalidFROSTAggregatedPublicKey","inputs":[]},{"type":"error","name":"InvalidFrostSignatureCount","inputs":[]},{"type":"error","name":"InvalidFrostSignatureLength","inputs":[]},{"type":"error","name":"InvalidInitialization","inputs":[]},{"type":"error","name":"InvalidPreviousCommittedBatchHash","inputs":[]},{"type":"error","name":"InvalidTimestamp","inputs":[]},{"type":"error","name":"InvalidValidationFee","inputs":[]},{"type":"error","name":"NotInitializing","inputs":[]},{"type":"error","name":"OwnableInvalidOwner","inputs":[{"name":"owner","type":"address","internalType":"address"}]},{"type":"error","name":"OwnableUnauthorizedAccount","inputs":[{"name":"account","type":"address","internalType":"address"}]},{"type":"error","name":"PayValidationFeeFailed","inputs":[]},{"type":"error","name":"PredecessorBlockNotFound","inputs":[]},{"type":"error","name":"ReentrancyGuardReentrantCall","inputs":[]},{"type":"error","name":"RewardsCommitmentEraNotPrevious","inputs":[]},{"type":"error","name":"RewardsCommitmentPredatesGenesis","inputs":[]},{"type":"error","name":"RewardsCommitmentTimestampNotInPast","inputs":[]},{"type":"error","name":"RouterGenesisHashNotInitialized","inputs":[]},{"type":"error","name":"SignatureVerificationFailed","inputs":[]},{"type":"error","name":"TimestampInFuture","inputs":[]},{"type":"error","name":"TimestampOlderThanPreviousEra","inputs":[]},{"type":"error","name":"TooManyChainCommitments","inputs":[]},{"type":"error","name":"TooManyRewardsCommitments","inputs":[]},{"type":"error","name":"TooManyValidatorsCommitments","inputs":[]},{"type":"error","name":"UUPSUnauthorizedCallContext","inputs":[]},{"type":"error","name":"UUPSUnsupportedProxiableUUID","inputs":[{"name":"slot","type":"bytes32","internalType":"bytes32"}]},{"type":"error","name":"UnknownProgram","inputs":[]},{"type":"error","name":"ValidationBeforeGenesis","inputs":[]},{"type":"error","name":"ValidationDelayTooBig","inputs":[]},{"type":"error","name":"ValidatorsAlreadyScheduled","inputs":[]},{"type":"error","name":"ValidatorsNotFoundForTimestamp","inputs":[]},{"type":"error","name":"WithdrawExecutableBalanceFailed","inputs":[]},{"type":"error","name":"ZeroValueTransfer","inputs":[]}],"bytecode":{"object":"0x60a080604052346100c257306080525f5160206147405f395f51905f525460ff8160401c166100b3576002600160401b03196001600160401b03821601610060575b60405161467990816100c78239608051818181611caf0152611d420152f35b6001600160401b0319166001600160401b039081175f5160206147405f395f51905f525581527fc7f505b2f371ae2175ee4913f4499e1f2633a7b5936321eed1cdaeb6115181d290602090a15f80610041565b63f92ee8a960e01b5f5260045ffd5b5f80fdfe6080806040526004361015610091575b50361561001a575f80fd5b610022612f42565b5f5160206146195f395f51905f5254600181015415610082576001600160801b0334161561007357335f908152601a9190910160205260409020541561006457005b63821a62f560e01b5f5260045ffd5b63a1a7c6eb60e01b5f5260045ffd5b63580683f360e01b5f5260045ffd5b5f905f3560e01c9081627a32e7146128ef575080630c18d27714612401578063120e3f1e146122ac57806322f86f0b1461227e57806328e24b3d1461225057806331228ab6146122335780633683c4d2146120135780633bd109fa14611fc45780633d43b41814611f705780633f4ba83a14611ef05780634f1ef28614611d0357806352d1902d14611c9c57806353f7fd48146118215780635c975abb146117f25780636c2eb3501461148d578063715018a61461142457806371a8cf2d146113f6578063734a29a9146112b357806382bdeaad1461119b5780638456cb591461112857806384d22a4f146110ca57806388f50cf0146110915780638b1edf1e146110245780638da5cb5b14610fef5780638f381dbe14610fa95780639067088e14610f6057806396a2ddfa14610f325780639eb939a814610edb578063a5d53a4414610e85578063ad3cb1cc14610e3c578063b24fcac01461098c578063baaf02011461088b578063c13911e814610847578063c2eb812f146104ff578063ca1e7819146104af578063cacf66ab14610477578063d456fd5114610441578063e3a6684f14610402578063e6fabc09146103c9578063ed612f8c14610391578063edc872251461033c578063f2fde38b1461030f578063f4f20ac0146102d65763facd743b0361000f57346102d35760203660031901126102d357610295612945565b60036102b05f5160206146195f395f51905f525442906140f6565b019060018060a01b03165f52602052602060ff60405f2054166040519015158152f35b80fd5b50346102d357806003193601126102d3575f5160206146195f395f51905f5254600701546040516001600160a01b039091168152602090f35b50346102d35760203660031901126102d35761033961032c612945565b610334612f77565b612ed1565b80f35b50346102d357806003193601126102d35760206103895f5160206146195f395f51905f52546008600461036f42846140f6565b0154910154906001600160801b038260801c9216906140cb565b604051908152f35b50346102d357806003193601126102d357602060046103bf5f5160206146195f395f51905f525442906140f6565b0154604051908152f35b50346102d357806003193601126102d3575f5160206146195f395f51905f5254600501546040516001600160a01b039091168152602090f35b50346102d357806003193601126102d357604060085f5160206146195f395f51905f525401548151906001600160801b038116825260801c6020820152f35b50346102d357806003193601126102d357602065ffffffffffff60045f5160206146195f395f51905f5254015416604051908152f35b50346102d357806003193601126102d357602065ffffffffffff60025f5160206146195f395f51905f52540154821c16604051908152f35b50346102d357806003193601126102d3576104fb6104e760046104e15f5160206146195f395f51905f525442906140f6565b01612cae565b604051918291602083526020830190612ae1565b0390f35b50346102d357806003193601126102d35760405161051c816129b9565b610524612dff565b81526040516105328161299e565b5f8152602081015f90526020820152610549612dff565b6040820152610556612e9e565b60608201526040516105678161299e565b5f8082526020820152608082015261057d612dff565b60a08201528160c08201528160e082015261010001525f5160206146195f395f51905f52546105aa612e9e565b506105b760098201614386565b906105c4600f8201614386565b600882015492604051936105d7856129d5565b6001600160801b038116855260801c602085015260408401526060830152601b81015490601c810154601d8201549060405193610613856129b9565b60405161061f8161296f565b60018501548152600285015463ffffffff8116602083015260201c65ffffffffffff1660408201528552604051956106568761299e565b60038501548752600485015465ffffffffffff16602088015260208601968752604051906106838261296f565b60058601546001600160a01b0390811683526006870154811660208401526007870154166040808401919091528701918252606087019081526106c860158701612d51565b95608088019687526016016106dc90612e1d565b9160a0880192835260c0880193845260e08801948552610100880195865260405198899860208a5251805160208b0152602081015163ffffffff1660408b01526040015165ffffffffffff1660608a015251805160808a01526020015165ffffffffffff1660a089015251600160a01b6001900381511660c0890152600160a01b6001900360208201511660e0890152600160a01b60019003906040015116610100880152516101208701610220905280516001600160801b031661024088015260208101516001600160801b031661026088015260408101516102808801608090526102c088016107cd91612b1d565b90606001519061023f19888203016102a08901526107ea91612b1d565b945180516001600160401b0316610140880152602001516001600160801b031661016087015251805161018087015260208101516101a0870152604001516101c0860152516101e085015251610200840152516102208301520390f35b50346102d35760203660031901126102d35760ff604060209260195f5160206146195f395f51905f525401600435825284522054166108896040518092612ab0565bf35b50346102d35760203660031901126102d3576004356001600160401b038111610988576108bc903690600401612a80565b905f5160206146195f395f51905f5254906108d683612c43565b916108e460405193846129f0565b8383526108f084612c43565b602084019490601f1901368637601a869201915b81811061094f57868587604051928392602084019060208552518091526040840192915b818110610936575050500390f35b8251845285945060209384019390920191600101610928565b806109656109606001938588612d19565b612d7f565b828060a01b03165f528360205260405f20546109818288612d3d565b5201610904565b5080fd5b50346102d35760603660031901126102d3576001600160401b03600435116102d357610100600435360360031901126102d357600260243510156102d3576044356001600160401b038111610988576109e9903690600401612a80565b7f9b779b17422d0df92223018b32b4d1fa46e071723d6817e2486d003becc55f005c610e2d5760017f9b779b17422d0df92223018b32b4d1fa46e071723d6817e2486d003becc55f005d5f5160206146195f395f51905f525490600182015415610e1e57815415610dc2575b60038201546044600435013503610db35765ffffffffffff60048301541665ffffffffffff610a88602460043501612e53565b1610610da557610a9d600435600401836132cc565b92610ab260a460043501600435600401613781565b808096925060051b0460201485151715610d9157610ad28560051b614172565b8695865b818810610c485750610c0e965060051b902090610af8600435600401866137e5565b610b0760043560040187613bd6565b90610b16602460043501612e53565b93610b25606460043501612e45565b9360405194602086019660043560040135885265ffffffffffff60d01b9060d01b16604087015260446004350135604687015260ff60f81b9060f81b1660668601526067850152608784015260a783015260c782015260c78152610b8a60e7826129f0565b5190209283600382015565ffffffffffff610ba9602460043501612e53565b1665ffffffffffff196004830154161760048201553a601d8201557f7ebe42360bcb182fe0a88148b081e4557c89d09aa6af8307635ac2f83e2aaa656020604051868152a165ffffffffffff610c03602460043501612e53565b169360243591613e59565b15610c3957807f9b779b17422d0df92223018b32b4d1fa46e071723d6817e2486d003becc55f005d80f35b63729d0f6b60e01b8152600490fd5b610c5c60a460043501600435600401613781565b891015610d7d578860061b8101358a526019880160205260ff60408b2054166003811015610d6957600103610d5a57600191602091610d1f8b8b8e868360061b86010192610ca9846137b6565b15610d3b5760061b85013590525060198c01855260408e20805460ff19166002179055601c8c018054610cdb90612f69565b90555b8c7f460119a8f69a33ed127de517d5ea464e958ce23ef19e4420a8b92bf780bbc2c986610d0a846137b6565b1515926040519060061b8701358152a26137b6565b908b60061b01358c52825360218b208186015201970196610ad6565b60409260199160061b87013583520187522060ff198154169055610cde565b636e83084760e11b8a5260048afd5b634e487b7160e01b8b52602160045260248bfd5b634e487b7160e01b8a52603260045260248afd5b634e487b7160e01b86526011600452602486fd5b620725b160ea1b8452600484fd5b63164b6fc360e01b8452600484fd5b610ddf610dd3606460043501612e45565b60043560040135613237565b15610e0f5765ffffffffffff610df9602460043501612e53565b164211610a5557631ad8809560e31b8452600484fd5b637b8cb35960e01b8452600484fd5b63580683f360e01b8452600484fd5b633ee5aeb560e01b8352600483fd5b50346102d357806003193601126102d357506104fb604051610e5f6040826129f0565b60058152640352e302e360dc1b6020820152604051918291602083526020830190612abd565b50346102d357806003193601126102d3576104fb610ec75f5160206146195f395f51905f52546002610ebf60018060a01b039242906140f6565b015416613208565b604051918291602083526020830190612abd565b50346102d357806003193601126102d357610ef4612dff565b506060610f1160165f5160206146195f395f51905f525401612e1d565b61088960405180926040809180518452602081015160208501520151910152565b50346102d357806003193601126102d3576020601b5f5160206146195f395f51905f52540154604051908152f35b50346102d35760203660031901126102d357610f7a612945565b601a5f5160206146195f395f51905f5254019060018060a01b03165f52602052602060405f2054604051908152f35b50346102d35760203660031901126102d357600435906001600160401b0382116102d3576020610fe5610fdf3660048601612a80565b90612d93565b6040519015158152f35b50346102d357806003193601126102d3575f5160206145d95f395f51905f52546040516001600160a01b039091168152602090f35b50346102d357806003193601126102d35761103d612f42565b5f5160206146195f395f51905f52546001810180546110825763ffffffff600283015416409081156110735755601d3a91015580f35b63f7bac7b560e01b8452600484fd5b6309476b0360e41b8352600483fd5b50346102d357806003193601126102d3575f5160206146195f395f51905f5254600601546040516001600160a01b039091168152602090f35b50346102d357806003193601126102d3576110e3612bba565b50604061110060155f5160206146195f395f51905f525401612d51565b610889825180926001600160801b03602080926001600160401b038151168552015116910152565b50346102d357806003193601126102d357611141612f77565b611149612f42565b600160ff195f5160206146395f395f51905f525416175f5160206146395f395f51905f52557f62e78cea01bee320cd4e420270b5ea74000d11b0c9f74754ebdbfc544b05a2586020604051338152a180f35b50346102d35760203660031901126102d3576004356001600160401b038111610988576111cc903690600401612a80565b905f5160206146195f395f51905f5254906111e683612c43565b916111f460405193846129f0565b83835261120084612c43565b602084019490601f19013686376019869201915b81811061126957868587604051928392602084019060208552518091526040840192915b818110611246575050500390f35b919350916020808261125b6001948851612ab0565b019401910191849392611238565b611274818386612d19565b3587528260205260ff60408820541661128d8287612d3d565b600382101561129f5752600101611214565b634e487b7160e01b89526021600452602489fd5b50346102d357806003193601126102d3576112cc612f77565b5f5160206146195f395f51905f5254600601546040516370a0823160e01b81523060048201526001600160a01b0390911690602081602481855afa9081156113eb5783916113b5575b5080156113a65760405163a9059cbb60e01b81523360048201526024810191909152906020908290604490829086905af190811561139b57829161136c575b501561135d5780f35b63f4d1631560e01b8152600490fd5b61138e915060203d602011611394575b61138681836129f0565b810190612d01565b5f611354565b503d61137c565b6040513d84823e3d90fd5b63a1a7c6eb60e01b8352600483fd5b90506020813d6020116113e3575b816113d0602093836129f0565b810103126113df57515f611315565b8280fd5b3d91506113c3565b6040513d85823e3d90fd5b50346102d357806003193601126102d357602060035f5160206146195f395f51905f52540154604051908152f35b50346102d357806003193601126102d35761143d612f77565b5f5160206145d95f395f51905f5280546001600160a01b0319811690915581906001600160a01b03167f8be0079c531659141344cd1fd0a4f28419497f9722a3daafe3b4186f6b6457e08280a380f35b50346102d357806003193601126102d3576114a6612f77565b5f5160206146595f395f51905f525460ff8160401c169081156117dd575b506117ce575f5160206146595f395f51905f52805468ffffffffffffffffff1916680100000000000000021790555f5160206145d95f395f51905f525461151e906001600160a01b0316611516614112565b610334614112565b7fc7f505b2f371ae2175ee4913f4499e1f2633a7b5936321eed1cdaeb6115181d260205f5160206146195f395f51905f5254604090815161155f83826129f0565b601781528381017f726f757465722e73746f726167652e526f7574657256320000000000000000008152611591612f77565b5f199151902001855260ff198386201690815f5160206146195f395f51905f52557f059eb9adf6e95b839d818142ed5bd5e498b6d95138e65c91525e93cc0f0339fc848451848152a16115e2612faa565b80516001840155600283019063ffffffff868201511669ffffffffffff00000000868454930151881b169169ffffffffffffffffffff191617179055600581016005830190808203611780575b5050600881016001600160801b038154169060088401916001600160801b0319835416178255546001600160801b0382549181191691161790556116b861167642836140f6565b61168d6001600160a01b036002610ebf42876140f6565b6116a3600461169c42876140f6565b0192612bd2565b906116ae4293612cae565b9160098701612fdf565b60158101601583019080820361172e575b505060168101601683019181830361170e575b5050505060ff60401b195f5160206146595f395f51905f5254165f5160206146595f395f51905f52555160028152a180f35b60189283925490556017810154601785015501549101555f8080806116dc565b806001600160401b03806001600160801b03935416166001600160401b031984541617835554851c16600160401b600160c01b03825491861b1690600160401b600160c01b0319161790555f806116c9565b5481546001600160a01b03199081166001600160a01b039283161790925560068381015490850180548416918316919091179055600780840154908501805490931691161790555f8061162f565b63f92ee8a960e01b8152600490fd5b600291506001600160401b031610155f6114c4565b50346102d357806003193601126102d357602060ff5f5160206146395f395f51905f5254166040519015158152f35b50346102d3576101603660031901126102d35761183c612945565b6024356001600160a01b03811691908290036113df5761185a612919565b9161186361292f565b9260c43591608435919060a43560403660e3190112611c985761012435946001600160401b038611611c945736602387011215611c94578560040135916001600160401b038311611c90573660248489010111611c9057610144356001600160401b038111611c8c576118da903690600401612a80565b9690945f5160206146595f395f51905f5254996001600160401b0360ff8c60401c16159b1680159081611c84575b6001149081611c7a575b159081611c71575b50611c625761195c908b60016001600160401b03195f5160206146595f395f51905f525416175f5160206146595f395f51905f5255611c32575b611516614112565b611964614112565b61196c614112565b4215611c23578215611c145782821115611c0557600a61198c8484612bf0565b04841015611bf65760409a8b918d83516119a685826129f0565b60178152602081017f726f757465722e73746f726167652e526f75746572563100000000000000000081526119d9612f77565b905190205f190190526020808f2060ff19165f5160206146195f395f51905f528190558451818152909a917f059eb9adf6e95b839d818142ed5bd5e498b6d95138e65c91525e93cc0f0339fc91a1611a2f612faa565b805160018c015560028b0190602081015163ffffffff1686835492015160201b69ffffffffffff00000000169169ffffffffffffffffffff191617179055835190611a798261296f565b8282526001600160a01b03908116602083018190529381169490910184905260058a018054919092166001600160a01b031991821617909155600689018054821690921790915560078801805490911690911790557003000000000000000000000000000000026008870155611aed612bba565b508951611af98161299e565b639502f90081526509184e72a0006020909101526015860180546001600160c01b0319166d09184e72a000000000009502f900179055895183908b90611b3e8161296f565b8381528460208201520152601686015560178501556018840155865194611b648661299e565b60e4358652610104356020870152611b80913691602401612a2c565b9042933690611b8e92612c5a565b9160090193611b9c94612fdf565b611ba4575080f35b60207fc7f505b2f371ae2175ee4913f4499e1f2633a7b5936321eed1cdaeb6115181d29160ff60401b195f5160206146595f395f51905f5254165f5160206146595f395f51905f52555160018152a180f35b63145e348f60e01b8c5260048cfd5b6353b2bbed60e01b8c5260048cfd5b63f7ba6bdb60e01b8c5260048cfd5b63b7d0949760e01b8c5260048cfd5b600160401b60ff60401b195f5160206146595f395f51905f525416175f5160206146595f395f51905f5255611954565b63f92ee8a960e01b8d5260048dfd5b9050155f61191a565b303b159150611912565b8c9150611908565b8a80fd5b8980fd5b8880fd5b8780fd5b50346102d357806003193601126102d3577f00000000000000000000000000000000000000000000000000000000000000006001600160a01b03163003611cf45760206040515f5160206145f95f395f51905f528152f35b63703e46dd60e11b8152600490fd5b5060403660031901126102d357611d18612945565b906024356001600160401b03811161098857611d38903690600401612a62565b6001600160a01b037f000000000000000000000000000000000000000000000000000000000000000016308114908115611ece575b50611ebf57611d7a612f77565b6040516352d1902d60e01b8152926001600160a01b0381169190602085600481865afa80958596611e87575b50611dbf57634c9c8ce360e01b84526004839052602484fd5b9091845f5160206145f95f395f51905f528103611e755750813b15611e63575f5160206145f95f395f51905f5280546001600160a01b031916821790557fbc7cd75a20ee27fd9adebab32041f755214dbc6bffa90cc0225b39da2e5c2d3b8480a28151839015611e495780836020611e4595519101845af4611e3f612b8b565b916144f8565b5080f35b50505034611e545780f35b63b398979f60e01b8152600490fd5b634c9c8ce360e01b8452600452602483fd5b632a87526960e21b8552600452602484fd5b9095506020813d602011611eb7575b81611ea3602093836129f0565b81010312611eb35751945f611da6565b5f80fd5b3d9150611e96565b63703e46dd60e11b8252600482fd5b5f5160206145f95f395f51905f52546001600160a01b0316141590505f611d6d565b50346102d357806003193601126102d357611f09612f77565b5f5160206146395f395f51905f525460ff811615611f615760ff19165f5160206146395f395f51905f52557f5db9ee0a495bf2e6ff9c91a7834c1ba4fdd244a5e8aa4e537bd38aeae4b073aa6020604051338152a180f35b638dfc202b60e01b8252600482fd5b50346102d35760203660031901126102d357611f8a612945565b611f92612f77565b5f5160206146195f395f51905f525460050180546001600160a01b0319166001600160a01b0390921691909117905580f35b50346102d357806003193601126102d357611fdd612bba565b506040612001611ffc5f5160206146195f395f51905f525442906140f6565b612bd2565b60208251918051835201516020820152f35b50346102d35760603660031901126102d357600435612030612919565b612038612f42565b5f5160206146195f395f51905f5254600181015415610e1e578284526019810160205260ff604085205416600381101561221f57600203612210578284526024356020526040842060405160608101908082106001600160401b0383111761220c57605a916040527f3d605080600a3d3981f3608060405263e6fabc0960e01b5f5260205f6004817381523060601b6b5afa15604c575f80805136821760208201527f80378136915af43d5f803e156048573d5ff35b3d5ffd5b5f80fd000000000000604082015286f5908115612208576001600160a01b0382165f908152601a820160205260409020849055601b01805461213390612f69565b90556040516001600160a01b03821680825293907f8008ec1d8798725ebfa0f2d128d52e8e717dcba6e0f786557eeee70614b02bf190602090a2506001600160a01b0381166122035750335b5f5160206146195f395f51905f5254600501546001600160a01b0316823b156121ff57604051631c9776b560e31b81526001600160a01b039092166004830152602482015260016044820152828160648183865af180156113eb576121ea575b602082604051908152f35b6121f58380926129f0565b61098857816121df565b8380fd5b61217f565b8480fd5b8680fd5b630e2637d160e01b8452600484fd5b634e487b7160e01b85526021600452602485fd5b50346102d357806003193601126102d35760206040516134ef8152f35b50346102d357806003193601126102d357602060015f5160206146195f395f51905f52540154604051908152f35b50346102d357806003193601126102d3576020601d5f5160206146195f395f51905f52540154604051908152f35b5060203660031901126102d3576004356122c4612f42565b8149156123f2575f5160206146195f395f51905f52546001810154156123e357601d60198201910154806134ef02906134ef8204036123cf5734106123c0578183528060205260ff60408420541660038110156123ac5761239d5781835260205260408220600160ff19825416179055818080803460018060a01b035f5160206145d95f395f51905f5254165af161235a612b8b565b501561238e5760207f5c261a095dd5720475295dc06379921c003c22164ee6cae5cf83e76ce0a1b98591604051908152a180f35b630f24574b60e21b8252600482fd5b6304c51a3360e31b8352600483fd5b634e487b7160e01b84526021600452602484fd5b63513ed23160e01b8352600483fd5b634e487b7160e01b84526011600452602484fd5b63580683f360e01b8352600483fd5b637bb2fa2f60e11b8252600482fd5b34611eb3576080366003190112611eb35760043561241d612919565b9061242661292f565b9161242f612f42565b5f5160206146195f395f51905f525460018101541561008257825f526019810160205260ff60405f20541660038110156128db576002036128cc57825f5260243560205260405f206040516102c08101908082106001600160401b03831117611eb3576102b0916040527f60808060405261029e90816100128239f3fe608060405260043610610254575f81527f3560e01c806336a52a18146100ab57806342129d00146100a65780635ce6c32760208201527f146100a1578063701da98e1461009c578063704ed542146100975780637a8e0c60408201527fdd1461009257806391d5a64c1461008d5780639ce110d714610088578063affe60608201527fd0e0146100835763e43f3433036102545761023f565b610222565b6101fa565b60808201527f6101e4565b6101b1565b610181565b610165565b610143565b610106565b346160a08201527ed4575f3660031901126100d45760025460081c6001600160a01b031660809060c08201527f8152602090f35b5f80fd5b9181601f840112156100d45782359167ffffffffff60e08201527fffffff83116100d457602083818601950101116100d457565b604036600319016101008201527f126100d45760043567ffffffffffffffff81116100d4576101329036906004016101208201527f6100d8565b505060243580151514610254575f80fd5b346100d4575f366003196101408201527f01126100d457602060ff600254166040519015158152f35b346100d4575f36606101608201527f031901126100d45760205f54604051908152f35b346100d457602036600319016101808201527f126100d4576004356fffffffffffffffffffffffffffffffff811614610254576101a08201527f5f80fd5b60403660031901126100d45760243567ffffffffffffffff811161006101c08201527fd4576101dd9036906004016100d8565b5050610254565b346100d457602036606101e08201527f0319011215610254575f80fd5b346100d4575f3660031901126100d4576003546102008201527f6040516001600160a01b039091168152602090f35b346100d4575f36600319016102208201527f126100d4576020600154604051908152f35b346100d4575f36600319011215616102408201523060601c7f0254575f80fd5b63e6fabc0960e01b5f5260205f60048173000000000000000017610260820152735afa156100d4575f808051368280378136915af43060a01b176102808201526f3d5f803e1561029a573d5ff35b3d5ffd60801b6102a08201525ff5908115611eb3576001600160a01b0382165f908152601a820160205260409020849055601b01805461280b90612f69565b90556040516001600160a01b03821680825293907f8008ec1d8798725ebfa0f2d128d52e8e717dcba6e0f786557eeee70614b02bf190602090a2506001600160a01b0381166128c6575033915b813b15611eb357604051631c9776b560e31b81526001600160a01b039384166004820152921660248301525f604483018190528260648183855af19182156128bb576020926128ab575b50604051908152f35b5f6128b5916129f0565b5f6128a2565b6040513d5f823e3d90fd5b91612858565b630e2637d160e01b5f5260045ffd5b634e487b7160e01b5f52602160045260245ffd5b34611eb3575f366003190112611eb357602090601c5f5160206146195f395f51905f525401548152f35b604435906001600160a01b0382168203611eb357565b606435906001600160a01b0382168203611eb357565b600435906001600160a01b0382168203611eb357565b35906001600160a01b0382168203611eb357565b606081019081106001600160401b0382111761298a57604052565b634e487b7160e01b5f52604160045260245ffd5b604081019081106001600160401b0382111761298a57604052565b61012081019081106001600160401b0382111761298a57604052565b608081019081106001600160401b0382111761298a57604052565b90601f801991011681019081106001600160401b0382111761298a57604052565b6001600160401b03811161298a57601f01601f191660200190565b929192612a3882612a11565b91612a4660405193846129f0565b829481845281830111611eb3578281602093845f960137010152565b9080601f83011215611eb357816020612a7d93359101612a2c565b90565b9181601f84011215611eb3578235916001600160401b038311611eb3576020808501948460051b010111611eb357565b9060038210156128db5752565b805180835260209291819084018484015e5f828201840152601f01601f1916010190565b90602080835192838152019201905f5b818110612afe5750505090565b82516001600160a01b0316845260209384019390920191600101612af1565b9060208251805183520151602082015260018060a01b03602083015116604082015260806060612b5b604085015160a08386015260a0850190612ae1565b93015191015290565b81810292918115918404141715612b7757565b634e487b7160e01b5f52601160045260245ffd5b3d15612bb5573d90612b9c82612a11565b91612baa60405193846129f0565b82523d5f602084013e565b606090565b60405190612bc78261299e565b5f6020838281520152565b90604051612bdf8161299e565b602060018294805484520154910152565b91908203918211612b7757565b8115612c07570490565b634e487b7160e01b5f52601260045260245ffd5b9190826040910312611eb357604051612c338161299e565b6020808294803584520135910152565b6001600160401b03811161298a5760051b60200190565b929190612c6681612c43565b93612c7460405195866129f0565b602085838152019160051b8101928311611eb357905b828210612c9657505050565b60208091612ca38461295b565b815201910190612c8a565b90604051918281549182825260208201905f5260205f20925f5b818110612cdf575050612cdd925003836129f0565b565b84546001600160a01b0316835260019485019487945060209093019201612cc8565b90816020910312611eb357518015158103611eb35790565b9190811015612d295760051b0190565b634e487b7160e01b5f52603260045260245ffd5b8051821015612d295760209160051b010190565b90604051612d5e8161299e565b91546001600160401b038116835260401c6001600160801b03166020830152565b356001600160a01b0381168103611eb35790565b612dac5f5160206146195f395f51905f525442906140f6565b600301905f5b838110612dc25750505050600190565b612dd0610960828685612d19565b6001600160a01b03165f9081526020849052604090205460ff1615612df757600101612db2565b505050505f90565b60405190612e0c8261296f565b5f6040838281528260208201520152565b90604051612e2a8161296f565b60406002829480548452600181015460208501520154910152565b3560ff81168103611eb35790565b3565ffffffffffff81168103611eb35790565b60405190612e73826129d5565b5f606083604051612e838161299e565b83815283602082015281528260208201528160408201520152565b60405190612eab826129d5565b815f81525f6020820152612ebd612e66565b60408201526060612ecc612e66565b910152565b6001600160a01b03168015612f2f575f5160206145d95f395f51905f5280546001600160a01b0319811683179091556001600160a01b03167f8be0079c531659141344cd1fd0a4f28419497f9722a3daafe3b4186f6b6457e05f80a3565b631e4fbdf760e01b5f525f60045260245ffd5b60ff5f5160206146395f395f51905f525416612f5a57565b63d93c066560e01b5f5260045ffd5b5f198114612b775760010190565b5f5160206145d95f395f51905f52546001600160a01b03163303612f9757565b63118cdaa760e01b5f523360045260245ffd5b612fb2612dff565b50604051612fbf8161296f565b5f815263ffffffff4316602082015265ffffffffffff4216604082015290565b9291908051906020810191825170014551231950b75fc4402da1732fc9bebe19821091826131f7575b5050156131e8575184555160018401556040519061304b6021836020808201945f86528051918291018484015e81015f838201520301601f1981018452836129f0565b613088602b604051809360208201956a600b5981380380925939f360a81b87525180918484015e81015f838201520301601f1981018352826129f0565b51905ff06001600160a01b038116156131d9576002830180546001600160a01b0319166001600160a01b039092169190911790555f5b6004830180548210156130fc575f90815260208082208301546001600160a01b0316825260038501905260409020805460ff191690556001016130be565b5050925f5b8451811015613145576001906001600160a01b0361311f8288612d3d565b5116828060a01b03165f526003840160205260405f208260ff1982541617905501613101565b5092600482018151916001600160401b03831161298a57600160401b831161298a5781548383558084106131af575b50602001905f5260205f205f5b838110613192575050505060050155565b82516001600160a01b031681830155602090920191600101613181565b825f52838060205f20019103905f5b8281106131cc575050613174565b5f828201556001016131be565b633011642560e01b5f5260045ffd5b63375f0aab60e11b5f5260045ffd5b61320192506144d5565b5f80613008565b803b905f19820190828211612b775760019060405193603e601f19910116840160405282845260208401903c90565b435f1981019392908411612b775760ff1643811061328757505f925b83811015613263575b505f925050565b80408281036132755750600193505050565b15613282575f1901613253565b61325c565b6132919043612bf0565b92613253565b903590601e1981360301821215611eb357018035906001600160401b038211611eb357602001918160051b36038313611eb357565b906080810160016132dd8284613297565b905011613772576132ee8183613297565b90501561374b576132fe91613297565b15612d2957803590603e1981360301821215611eb35701916133208380613297565b9190928260051b9383850460201484151715612b775761334285969495614172565b925f945f97601a60fe19853603019501965b888a1015613703578960051b85013586811215611eb357850161337681612d7f565b6001600160a01b03165f90815260208a9052604090205415610064575f608082016001600160801b036133a88261413d565b161515806136f0575b6136df575b6001600160a01b036133c784612d7f565b604051630427a21d60e11b81526020600482015294911691610124850191906001600160801b0390613446906001600160a01b036134048561295b565b1660248901526020840135604489015261342060408501614151565b151560648901526001600160a01b0361343b6060860161295b565b16608489015261415e565b1660a486015261345860a08201614151565b151560c486015236819003601e190160c082013581811215611eb3578201602081359101936001600160401b038211611eb3576060820236038513611eb357819061010060e48a015252610144870193905f905b8082106136955750505060e082013590811215611eb35701803560208201926001600160401b038211611eb3578160051b908136038513611eb35791879594936023198785030161010488015281845260208085019385010194935f9160fe19813603015b8484106135885750505050505050602093916001600160801b03848093039316905af19081156128bb575f91613556575b50816020916001938a015201990198613354565b90506020813d8211613580575b81613570602093836129f0565b81010312611eb357516001613542565b3d9150613563565b919395979850919395601f19848203018752873582811215611eb3578301602081013582526001600160a01b036135c16040830161295b565b1660208301526060810135603e193683900301811215611eb3578101602081013591906040016001600160401b038311611eb3578236038113611eb357829060e060408601528160e08601526101008501375f61010083850101526001600160801b036136306080830161415e565b16606084015260a0810135608084015260c081013563ffffffff60e01b8116809103611eb3578360209361367260e086956101009560a060019a015201614151565b151560c0830152601f80199101160101990197019401918a989796959391613511565b90919460608060019288358152838060a01b036136b460208b0161295b565b1660208201526001600160801b036136ce60408b0161415e565b1660408201520196019201906134ac565b90506136ea8161413d565b906133b6565b506136fd60a084016137b6565b156133b1565b5094935095509550506020925020910135907fd04cd9af813f6f0b56e9411a6ee6a84eb5ac35a96f0c33d2e3a07d65baa8f4186020604051848152a15f5260205260405f2090565b5050507fc5d2460186f7233c927e7db2dcc703c0e500b653ca82273b7bfad8045d85a47090565b6306d6c38360e01b5f5260045ffd5b903590601e1981360301821215611eb357018035906001600160401b038211611eb357602001918160061b36038313611eb357565b358015158103611eb35790565b903590605e1981360301821215611eb3570190565b91908201809211612b7757565b60c0820160016137f58285613297565b905011613b95576138068184613297565b90501561374b576138179083613297565b15612d2957803590607e1981360301821215611eb35701916060830190602061383f83612e53565b91019065ffffffffffff8061385384612e53565b1691161015613b865761386582612e53565b65ffffffffffff80600286015460201c16911610613b77576138ab65ffffffffffff6138a461389e8261389787612e53565b1687614197565b93612e53565b1684614197565b1115613b68576007820154600690920180548435946001600160a01b0394851694604082019391925f9160209161392691166138f3836138eb89896137c3565b01358b6137d8565b60405163095ea7b360e01b81526001600160a01b038b166004820152602481019190915293849283919082906044820190565b03925af19081156128bb575f91613b49575b5015613b3a575460405163394f179b60e11b81526001600160a01b03909116600482015260248101959095526020818101356044870152856064815f885af19485156128bb575f95613b02575b5090613990916137c3565b9161399a82612e53565b9260405193637fbe95b560e01b85526040600486015260a48501918035601e1982360301811215611eb3578101602081359101936001600160401b038211611eb3578160061b36038513611eb35760606044890152819052869360c485019392915f5b818110613aca57505050836020959365ffffffffffff829484895f9601356064860152613a33604060018060a01b03920161295b565b16608485015216602483015203925af19182156128bb575f92613a94575b50613a5b90612e53565b6040519160208301938452604083015265ffffffffffff60d01b9060d01b16606082015260468152613a8e6066826129f0565b51902090565b9091506020813d602011613ac2575b81613ab0602093836129f0565b81010312611eb3575190613a5b613a51565b3d9150613aa3565b919550919293604080600192838060a01b03613ae58a61295b565b1681526020890135602082015201960191019188959493926139fd565b919094506020823d602011613b32575b81613b1f602093836129f0565b81010312611eb357905193613990613985565b3d9150613b12565b6367b9145160e01b5f5260045ffd5b613b62915060203d6020116113945761138681836129f0565b5f613938565b6308027f7760e31b5f5260045ffd5b637bde91e760e11b5f5260045ffd5b63087a19ab60e41b5f5260045ffd5b633249ceed60e11b5f5260045ffd5b903590601e1981360301821215611eb357018035906001600160401b038211611eb357602001918136038313611eb357565b9060e081016001613be78284613297565b905011613e4a57613bf88183613297565b90501561374b57613c0891613297565b15612d2957803590609e1981360301821215611eb357016060810190613c2e8282613297565b905015613e3b5765ffffffffffff600284015460201c1691613c508342612bf0565b613c5f60168601548092612bfd565b9360808401359460018101809111612b77578503613e2c57613c8485613c8a93612b64565b906137d8565b93613c99601782015486612bf0565b4210613e1d57613ca8906141bf565b934260058601541015613e0e57613cfd906040840195613cef613cf7613cce8988613ba4565b9190613cda888a613297565b949091613ce7368c612c1b565b943691612a2c565b933691612c5a565b92612fdf565b7fa1a3b42179ad30022438a1ea333b38eaf4a7329beee5e2b8111c0dcd4e08821c6020604051858152a160a082360312611eb35760405193613d3e856129d5565b613d483684612c1b565b8552356001600160401b038111611eb357613d669036908401612a62565b602085015235906001600160401b038211611eb3570136601f82011215611eb357613d98903690602081359101612c5a565b91826040820152816060820152519160208351930151906040519283926020840195865260408401526060830160208351919301905f5b818110613dec57505050815203808252613a8e90602001826129f0565b82516001600160a01b0316855286955060209485019490920191600101613dcf565b6333fc8f5160e21b5f5260045ffd5b6372a84ce560e11b5f5260045ffd5b6343d3f5bf60e01b5f5260045ffd5b636c2bf3db60e01b5f5260045ffd5b631d3fc6bf60e21b5f5260045ffd5b909493919365ffffffffffff600283015460201c16613e784284614197565b613e90613e8a60168601548093612b64565b836137d8565b9182841080806140b5575b156140835750831061407557613eb190836137d8565b1061406657613ec1905b826140f6565b94601960f81b5f523060601b60025260165260365f209360028110156128db5780613f5257505060018103613f435715612d2957613f0281613f0992613ba4565b3691612a2c565b916060835103613f3457826020612a7d940151606060408301519201519260018154910154906141da565b632ce466bf60e01b5f5260045ffd5b6360a1ea7760e01b5f5260045ffd5b919391600114613f655750505050505f90565b613f8a90600860048796970154910154906001600160801b038260801c9216906140cb565b925f9260035f9201915b8681101561405b57613fc3613fba613fb4613f028460051b860186613ba4565b8661443b565b90929192614475565b6001600160a01b0381165f9081526020859052604090205460ff16613fee575b506001905b01613f94565b6001600160a01b03165f9081527ff02b465737fa6045c2ff53fb2df43c66916ac2166fa303264668fb2f6a1d8c0060205260409020805c156140335750600190613fe8565b94600161404192965d612f69565b9385851461404f575f613fe3565b50505050505050600190565b505050505050505f90565b63046bb1e560e51b5f5260045ffd5b62f4462b60e01b5f5260045ffd5b93929150504282116140a657613ec19261409e575b50613ebb565b90505f614098565b6347860b9760e01b5f5260045ffd5b506140c46018870154856137d8565b4210613e9b565b6001600160801b038092160291166140e38183612bfd565b918115612c07570615612a7d5760010190565b9061410190826143db565b1561410c57600f0190565b60090190565b60ff5f5160206146595f395f51905f525460401c161561412e57565b631afcd79f60e31b5f5260045ffd5b356001600160801b0381168103611eb35790565b35908115158203611eb357565b35906001600160801b0382168203611eb357565b6040519190601f01601f191682016001600160401b03811183821017611eb357604052565b60166141b6612a7d9365ffffffffffff600285015460201c1690612bf0565b91015490612bfd565b6141c942826143db565b156141d45760090190565b600f0190565b92939194906141e985876144d5565b1561437c57821561437c5770014551231950b75fc4402da1732fc9bebe1983101561437c576001169061010e61421e81614172565b9160883684376002600188160160888401538760898401526002840160a984015360aa830186905260ca8301527e300046524f53542d736563703235366b312d4b454343414b3235362d76316360ea8301526303430b6160e51b61010a830152812060cc820181815290600260ec84016001815360428420809318845253604270014551231950b75fc4402da1732fc9bebe19922060801c6001600160401b0360801b8260801b16179070014551231950b75fc4402da1732fc9bebe1990600160c01b9060401c0908801561405b5784601b6080945f9660209870014551231950b75fc4402da1732fc9bebe19910970014551231950b75fc4402da1732fc9bebe19038552018684015280604084015270014551231950b75fc4402da1732fc9bebe19910970014551231950b75fc4402da1732fc9bebe1903606082015282805260015afa505f51915f5260205260018060a01b0360405f20161490565b5050505050505f90565b61438e612e66565b50600281015460058201546040519290916143ce916004916001600160a01b03166143b8866129d5565b6143c182612bd2565b8652602086015201612cae565b6040830152606082015290565b906014600e83015492015480831461442c57818184109311918215911115918190614425575b15614416578261441057505090565b14919050565b634c38ae9560e11b5f5260045ffd5b5081614401565b63f26224af60e01b5f5260045ffd5b815191906041830361446b576144649250602082015190606060408401519301515f1a90614556565b9192909190565b50505f9160029190565b60048110156128db5780614487575050565b6001810361449e5763f645eedf60e01b5f5260045ffd5b600281036144b9575063fce698f760e01b5f5260045260245ffd5b6003146144c35750565b6335e2f38360e21b5f5260045260245ffd5b6401000003d01990600790829081818009900908906401000003d0199080091490565b9061451c575080511561450d57602081519101fd5b63d6bda27560e01b5f5260045ffd5b8151158061454d575b61452d575090565b639996b31560e01b5f9081526001600160a01b0391909116600452602490fd5b50803b15614525565b91907f7fffffffffffffffffffffffffffffff5d576e7357a4501ddfe92f46681b20a084116145cd579160209360809260ff5f9560405194855216868401526040830152606082015282805260015afa156128bb575f516001600160a01b038116156145c357905f905f90565b505f906001905f90565b5050505f916003919056fe9016d09d72d40fdae2fd8ceac6b6234c7706214fd39c1cd1e609a0528c199300360894a13ba1a3210667c828492db98dca3e2076cc3735a920a3ca505d382bbc5c09ca1b9b8127a4fd9f3c384aac59b661441e820e17733753ff5f2e86e1e000cd5ed15c6e187e77e9aee88184c21f4f2182ab5827cb3b7e07fbedcd63f03300f0c57e16840df040f15088dc2f81fe391c3923bec73e23a9662efc9c229c6a00f0c57e16840df040f15088dc2f81fe391c3923bec73e23a9662efc9c229c6a00","linkReferences":{}},"methodIdentifiers":{"CODE_COMMITMENT_GAS()":"31228ab6","UPGRADE_INTERFACE_VERSION()":"ad3cb1cc","areValidators(address[])":"8f381dbe","codeState(bytes32)":"c13911e8","codesStates(bytes32[])":"82bdeaad","commitBatch((bytes32,uint48,bytes32,uint8,((address,bytes32,bool,address,uint128,bool,(bytes32,address,uint128)[],(bytes32,address,bytes,uint128,(bytes32,bytes4),bool)[])[],bytes32)[],(bytes32,bool)[],((uint256,bytes32),((address,uint256)[],uint256,address),uint48)[],((uint256,uint256),bytes,address[],uint256)[]),uint8,bytes[])":"b24fcac0","computeSettings()":"84d22a4f","createProgram(bytes32,bytes32,address)":"3683c4d2","createProgramWithAbiInterface(bytes32,bytes32,address,address)":"0c18d277","genesisBlockHash()":"28e24b3d","genesisTimestamp()":"cacf66ab","initialize(address,address,address,address,uint256,uint256,uint256,(uint256,uint256),bytes,address[])":"53f7fd48","isValidator(address)":"facd743b","latestCommittedBatchHash()":"71a8cf2d","latestCommittedBatchTimestamp()":"d456fd51","latestGasPrice()":"22f86f0b","lookupGenesisHash()":"8b1edf1e","middleware()":"f4f20ac0","mirrorImpl()":"e6fabc09","owner()":"8da5cb5b","pause()":"8456cb59","paused()":"5c975abb","programCodeId(address)":"9067088e","programsCodeIds(address[])":"baaf0201","programsCount()":"96a2ddfa","proxiableUUID()":"52d1902d","reinitialize()":"6c2eb350","renounceOwnership()":"715018a6","requestCodeValidation(bytes32)":"120e3f1e","setMirror(address)":"3d43b418","signingThresholdFraction()":"e3a6684f","storageView()":"c2eb812f","timelines()":"9eb939a8","transferOwnership(address)":"f2fde38b","unpause()":"3f4ba83a","upgradeToAndCall(address,bytes)":"4f1ef286","validatedCodesCount()":"007a32e7","validators()":"ca1e7819","validatorsAggregatedPublicKey()":"3bd109fa","validatorsCount()":"ed612f8c","validatorsThreshold()":"edc87225","validatorsVerifiableSecretSharingCommitment()":"a5d53a44","withdrawExecutableBalance()":"734a29a9","wrappedVara()":"88f50cf0"},"storageLayout":{"storage":[],"types":{}},"id":165}