{"abi":[{"type":"constructor","inputs":[],"stateMutability":"nonpayable"},{"type":"receive","stateMutability":"payable"},{"type":"function","name":"UPGRADE_INTERFACE_VERSION","inputs":[],"outputs":[{"name":"","type":"string","internalType":"string"}],"stateMutability":"view"},{"type":"function","name":"areValidators","inputs":[{"name":"_validators","type":"address[]","internalType":"address[]"}],"outputs":[{"name":"","type":"bool","internalType":"bool"}],"stateMutability":"view"},{"type":"function","name":"codeState","inputs":[{"name":"_codeId","type":"bytes32","internalType":"bytes32"}],"outputs":[{"name":"","type":"uint8","internalType":"enum Gear.CodeState"}],"stateMutability":"view"},{"type":"function","name":"codesStates","inputs":[{"name":"_codesIds","type":"bytes32[]","internalType":"bytes32[]"}],"outputs":[{"name":"","type":"uint8[]","internalType":"enum Gear.CodeState[]"}],"stateMutability":"view"},{"type":"function","name":"commitBatch","inputs":[{"name":"_batch","type":"tuple","internalType":"struct Gear.BatchCommitment","components":[{"name":"blockHash","type":"bytes32","internalType":"bytes32"},{"name":"blockTimestamp","type":"uint48","internalType":"uint48"},{"name":"previousCommittedBatchHash","type":"bytes32","internalType":"bytes32"},{"name":"expiry","type":"uint8","internalType":"uint8"},{"name":"chainCommitment","type":"tuple[]","internalType":"struct Gear.ChainCommitment[]","components":[{"name":"transitions","type":"tuple[]","internalType":"struct Gear.StateTransition[]","components":[{"name":"actorId","type":"address","internalType":"address"},{"name":"newStateHash","type":"bytes32","internalType":"bytes32"},{"name":"exited","type":"bool","internalType":"bool"},{"name":"inheritor","type":"address","internalType":"address"},{"name":"valueToReceive","type":"uint128","internalType":"uint128"},{"name":"valueToReceiveNegativeSign","type":"bool","internalType":"bool"},{"name":"valueClaims","type":"tuple[]","internalType":"struct Gear.ValueClaim[]","components":[{"name":"messageId","type":"bytes32","internalType":"bytes32"},{"name":"destination","type":"address","internalType":"address"},{"name":"value","type":"uint128","internalType":"uint128"}]},{"name":"messages","type":"tuple[]","internalType":"struct Gear.Message[]","components":[{"name":"id","type":"bytes32","internalType":"bytes32"},{"name":"destination","type":"address","internalType":"address"},{"name":"payload","type":"bytes","internalType":"bytes"},{"name":"value","type":"uint128","internalType":"uint128"},{"name":"replyDetails","type":"tuple","internalType":"struct Gear.ReplyDetails","components":[{"name":"to","type":"bytes32","internalType":"bytes32"},{"name":"code","type":"bytes4","internalType":"bytes4"}]},{"name":"call","type":"bool","internalType":"bool"}]}]},{"name":"head","type":"bytes32","internalType":"bytes32"}]},{"name":"codeCommitments","type":"tuple[]","internalType":"struct Gear.CodeCommitment[]","components":[{"name":"id","type":"bytes32","internalType":"bytes32"},{"name":"valid","type":"bool","internalType":"bool"}]},{"name":"rewardsCommitment","type":"tuple[]","internalType":"struct Gear.RewardsCommitment[]","components":[{"name":"operators","type":"tuple","internalType":"struct Gear.OperatorRewardsCommitment","components":[{"name":"amount","type":"uint256","internalType":"uint256"},{"name":"root","type":"bytes32","internalType":"bytes32"}]},{"name":"stakers","type":"tuple","internalType":"struct Gear.StakerRewardsCommitment","components":[{"name":"distribution","type":"tuple[]","internalType":"struct Gear.StakerRewards[]","components":[{"name":"vault","type":"address","internalType":"address"},{"name":"amount","type":"uint256","internalType":"uint256"}]},{"name":"totalAmount","type":"uint256","internalType":"uint256"},{"name":"token","type":"address","internalType":"address"}]},{"name":"timestamp","type":"uint48","internalType":"uint48"}]},{"name":"validatorsCommitment","type":"tuple[]","internalType":"struct Gear.ValidatorsCommitment[]","components":[{"name":"aggregatedPublicKey","type":"tuple","internalType":"struct Gear.AggregatedPublicKey","components":[{"name":"x","type":"uint256","internalType":"uint256"},{"name":"y","type":"uint256","internalType":"uint256"}]},{"name":"verifiableSecretSharingCommitment","type":"bytes","internalType":"bytes"},{"name":"validators","type":"address[]","internalType":"address[]"},{"name":"eraIndex","type":"uint256","internalType":"uint256"}]}]},{"name":"_signatureType","type":"uint8","internalType":"enum Gear.SignatureType"},{"name":"_signatures","type":"bytes[]","internalType":"bytes[]"}],"outputs":[],"stateMutability":"nonpayable"},{"type":"function","name":"computeSettings","inputs":[],"outputs":[{"name":"","type":"tuple","internalType":"struct Gear.ComputationSettings","components":[{"name":"threshold","type":"uint64","internalType":"uint64"},{"name":"wvaraPerSecond","type":"uint128","internalType":"uint128"}]}],"stateMutability":"view"},{"type":"function","name":"createProgram","inputs":[{"name":"_codeId","type":"bytes32","internalType":"bytes32"},{"name":"_salt","type":"bytes32","internalType":"bytes32"},{"name":"_overrideInitializer","type":"address","internalType":"address"}],"outputs":[{"name":"","type":"address","internalType":"address"}],"stateMutability":"nonpayable"},{"type":"function","name":"createProgramWithAbiInterface","inputs":[{"name":"_codeId","type":"bytes32","internalType":"bytes32"},{"name":"_salt","type":"bytes32","internalType":"bytes32"},{"name":"_overrideInitializer","type":"address","internalType":"address"},{"name":"_abiInterface","type":"address","internalType":"address"}],"outputs":[{"name":"","type":"address","internalType":"address"}],"stateMutability":"nonpayable"},{"type":"function","name":"genesisBlockHash","inputs":[],"outputs":[{"name":"","type":"bytes32","internalType":"bytes32"}],"stateMutability":"view"},{"type":"function","name":"genesisTimestamp","inputs":[],"outputs":[{"name":"","type":"uint48","internalType":"uint48"}],"stateMutability":"view"},{"type":"function","name":"initialize","inputs":[{"name":"_owner","type":"address","internalType":"address"},{"name":"_mirror","type":"address","internalType":"address"},{"name":"_wrappedVara","type":"address","internalType":"address"},{"name":"_middleware","type":"address","internalType":"address"},{"name":"_eraDuration","type":"uint256","internalType":"uint256"},{"name":"_electionDuration","type":"uint256","internalType":"uint256"},{"name":"_validationDelay","type":"uint256","internalType":"uint256"},{"name":"_aggregatedPublicKey","type":"tuple","internalType":"struct Gear.AggregatedPublicKey","components":[{"name":"x","type":"uint256","internalType":"uint256"},{"name":"y","type":"uint256","internalType":"uint256"}]},{"name":"_verifiableSecretSharingCommitment","type":"bytes","internalType":"bytes"},{"name":"_validators","type":"address[]","internalType":"address[]"}],"outputs":[],"stateMutability":"nonpayable"},{"type":"function","name":"isValidator","inputs":[{"name":"_validator","type":"address","internalType":"address"}],"outputs":[{"name":"","type":"bool","internalType":"bool"}],"stateMutability":"view"},{"type":"function","name":"latestCommittedBatchHash","inputs":[],"outputs":[{"name":"","type":"bytes32","internalType":"bytes32"}],"stateMutability":"view"},{"type":"function","name":"latestCommittedBatchTimestamp","inputs":[],"outputs":[{"name":"","type":"uint48","internalType":"uint48"}],"stateMutability":"view"},{"type":"function","name":"lookupGenesisHash","inputs":[],"outputs":[],"stateMutability":"nonpayable"},{"type":"function","name":"middleware","inputs":[],"outputs":[{"name":"","type":"address","internalType":"address"}],"stateMutability":"view"},{"type":"function","name":"mirrorImpl","inputs":[],"outputs":[{"name":"","type":"address","internalType":"address"}],"stateMutability":"view"},{"type":"function","name":"owner","inputs":[],"outputs":[{"name":"","type":"address","internalType":"address"}],"stateMutability":"view"},{"type":"function","name":"pause","inputs":[],"outputs":[],"stateMutability":"nonpayable"},{"type":"function","name":"paused","inputs":[],"outputs":[{"name":"","type":"bool","internalType":"bool"}],"stateMutability":"view"},{"type":"function","name":"programCodeId","inputs":[{"name":"_programId","type":"address","internalType":"address"}],"outputs":[{"name":"","type":"bytes32","internalType":"bytes32"}],"stateMutability":"view"},{"type":"function","name":"programsCodeIds","inputs":[{"name":"_programsIds","type":"address[]","internalType":"address[]"}],"outputs":[{"name":"","type":"bytes32[]","internalType":"bytes32[]"}],"stateMutability":"view"},{"type":"function","name":"programsCount","inputs":[],"outputs":[{"name":"","type":"uint256","internalType":"uint256"}],"stateMutability":"view"},{"type":"function","name":"proxiableUUID","inputs":[],"outputs":[{"name":"","type":"bytes32","internalType":"bytes32"}],"stateMutability":"view"},{"type":"function","name":"reinitialize","inputs":[],"outputs":[],"stateMutability":"nonpayable"},{"type":"function","name":"renounceOwnership","inputs":[],"outputs":[],"stateMutability":"nonpayable"},{"type":"function","name":"requestCodeValidation","inputs":[{"name":"_codeId","type":"bytes32","internalType":"bytes32"}],"outputs":[],"stateMutability":"nonpayable"},{"type":"function","name":"setMirror","inputs":[{"name":"newMirror","type":"address","internalType":"address"}],"outputs":[],"stateMutability":"nonpayable"},{"type":"function","name":"signingThresholdFraction","inputs":[],"outputs":[{"name":"thresholdNumerator","type":"uint128","internalType":"uint128"},{"name":"thresholdDenominator","type":"uint128","internalType":"uint128"}],"stateMutability":"view"},{"type":"function","name":"storageView","inputs":[],"outputs":[{"name":"","type":"tuple","internalType":"struct IRouter.StorageView","components":[{"name":"genesisBlock","type":"tuple","internalType":"struct Gear.GenesisBlockInfo","components":[{"name":"hash","type":"bytes32","internalType":"bytes32"},{"name":"number","type":"uint32","internalType":"uint32"},{"name":"timestamp","type":"uint48","internalType":"uint48"}]},{"name":"latestCommittedBatch","type":"tuple","internalType":"struct Gear.CommittedBatchInfo","components":[{"name":"hash","type":"bytes32","internalType":"bytes32"},{"name":"timestamp","type":"uint48","internalType":"uint48"}]},{"name":"implAddresses","type":"tuple","internalType":"struct Gear.AddressBook","components":[{"name":"mirror","type":"address","internalType":"address"},{"name":"wrappedVara","type":"address","internalType":"address"},{"name":"middleware","type":"address","internalType":"address"}]},{"name":"validationSettings","type":"tuple","internalType":"struct Gear.ValidationSettingsView","components":[{"name":"thresholdNumerator","type":"uint128","internalType":"uint128"},{"name":"thresholdDenominator","type":"uint128","internalType":"uint128"},{"name":"validators0","type":"tuple","internalType":"struct Gear.ValidatorsView","components":[{"name":"aggregatedPublicKey","type":"tuple","internalType":"struct Gear.AggregatedPublicKey","components":[{"name":"x","type":"uint256","internalType":"uint256"},{"name":"y","type":"uint256","internalType":"uint256"}]},{"name":"verifiableSecretSharingCommitmentPointer","type":"address","internalType":"address"},{"name":"list","type":"address[]","internalType":"address[]"},{"name":"useFromTimestamp","type":"uint256","internalType":"uint256"}]},{"name":"validators1","type":"tuple","internalType":"struct Gear.ValidatorsView","components":[{"name":"aggregatedPublicKey","type":"tuple","internalType":"struct Gear.AggregatedPublicKey","components":[{"name":"x","type":"uint256","internalType":"uint256"},{"name":"y","type":"uint256","internalType":"uint256"}]},{"name":"verifiableSecretSharingCommitmentPointer","type":"address","internalType":"address"},{"name":"list","type":"address[]","internalType":"address[]"},{"name":"useFromTimestamp","type":"uint256","internalType":"uint256"}]}]},{"name":"computeSettings","type":"tuple","internalType":"struct Gear.ComputationSettings","components":[{"name":"threshold","type":"uint64","internalType":"uint64"},{"name":"wvaraPerSecond","type":"uint128","internalType":"uint128"}]},{"name":"timelines","type":"tuple","internalType":"struct Gear.Timelines","components":[{"name":"era","type":"uint256","internalType":"uint256"},{"name":"election","type":"uint256","internalType":"uint256"},{"name":"validationDelay","type":"uint256","internalType":"uint256"}]},{"name":"programsCount","type":"uint256","internalType":"uint256"},{"name":"validatedCodesCount","type":"uint256","internalType":"uint256"}]}],"stateMutability":"view"},{"type":"function","name":"timelines","inputs":[],"outputs":[{"name":"","type":"tuple","internalType":"struct Gear.Timelines","components":[{"name":"era","type":"uint256","internalType":"uint256"},{"name":"election","type":"uint256","internalType":"uint256"},{"name":"validationDelay","type":"uint256","internalType":"uint256"}]}],"stateMutability":"view"},{"type":"function","name":"transferOwnership","inputs":[{"name":"newOwner","type":"address","internalType":"address"}],"outputs":[],"stateMutability":"nonpayable"},{"type":"function","name":"unpause","inputs":[],"outputs":[],"stateMutability":"nonpayable"},{"type":"function","name":"upgradeToAndCall","inputs":[{"name":"newImplementation","type":"address","internalType":"address"},{"name":"data","type":"bytes","internalType":"bytes"}],"outputs":[],"stateMutability":"payable"},{"type":"function","name":"validatedCodesCount","inputs":[],"outputs":[{"name":"","type":"uint256","internalType":"uint256"}],"stateMutability":"view"},{"type":"function","name":"validators","inputs":[],"outputs":[{"name":"","type":"address[]","internalType":"address[]"}],"stateMutability":"view"},{"type":"function","name":"validatorsAggregatedPublicKey","inputs":[],"outputs":[{"name":"","type":"tuple","internalType":"struct Gear.AggregatedPublicKey","components":[{"name":"x","type":"uint256","internalType":"uint256"},{"name":"y","type":"uint256","internalType":"uint256"}]}],"stateMutability":"view"},{"type":"function","name":"validatorsCount","inputs":[],"outputs":[{"name":"","type":"uint256","internalType":"uint256"}],"stateMutability":"view"},{"type":"function","name":"validatorsThreshold","inputs":[],"outputs":[{"name":"","type":"uint256","internalType":"uint256"}],"stateMutability":"view"},{"type":"function","name":"validatorsVerifiableSecretSharingCommitment","inputs":[],"outputs":[{"name":"","type":"bytes","internalType":"bytes"}],"stateMutability":"view"},{"type":"function","name":"wrappedVara","inputs":[],"outputs":[{"name":"","type":"address","internalType":"address"}],"stateMutability":"view"},{"type":"event","name":"AnnouncesCommitted","inputs":[{"name":"head","type":"bytes32","indexed":false,"internalType":"bytes32"}],"anonymous":false},{"type":"event","name":"BatchCommitted","inputs":[{"name":"hash","type":"bytes32","indexed":false,"internalType":"bytes32"}],"anonymous":false},{"type":"event","name":"CodeGotValidated","inputs":[{"name":"codeId","type":"bytes32","indexed":false,"internalType":"bytes32"},{"name":"valid","type":"bool","indexed":true,"internalType":"bool"}],"anonymous":false},{"type":"event","name":"CodeValidationRequested","inputs":[{"name":"codeId","type":"bytes32","indexed":false,"internalType":"bytes32"}],"anonymous":false},{"type":"event","name":"ComputationSettingsChanged","inputs":[{"name":"threshold","type":"uint64","indexed":false,"internalType":"uint64"},{"name":"wvaraPerSecond","type":"uint128","indexed":false,"internalType":"uint128"}],"anonymous":false},{"type":"event","name":"Initialized","inputs":[{"name":"version","type":"uint64","indexed":false,"internalType":"uint64"}],"anonymous":false},{"type":"event","name":"OwnershipTransferred","inputs":[{"name":"previousOwner","type":"address","indexed":true,"internalType":"address"},{"name":"newOwner","type":"address","indexed":true,"internalType":"address"}],"anonymous":false},{"type":"event","name":"Paused","inputs":[{"name":"account","type":"address","indexed":false,"internalType":"address"}],"anonymous":false},{"type":"event","name":"ProgramCreated","inputs":[{"name":"actorId","type":"address","indexed":false,"internalType":"address"},{"name":"codeId","type":"bytes32","indexed":true,"internalType":"bytes32"}],"anonymous":false},{"type":"event","name":"StorageSlotChanged","inputs":[{"name":"slot","type":"bytes32","indexed":false,"internalType":"bytes32"}],"anonymous":false},{"type":"event","name":"Unpaused","inputs":[{"name":"account","type":"address","indexed":false,"internalType":"address"}],"anonymous":false},{"type":"event","name":"Upgraded","inputs":[{"name":"implementation","type":"address","indexed":true,"internalType":"address"}],"anonymous":false},{"type":"event","name":"ValidatorsCommittedForEra","inputs":[{"name":"eraIndex","type":"uint256","indexed":false,"internalType":"uint256"}],"anonymous":false},{"type":"error","name":"AddressEmptyCode","inputs":[{"name":"target","type":"address","internalType":"address"}]},{"type":"error","name":"ApproveERC20Failed","inputs":[]},{"type":"error","name":"BatchTimestampNotInPast","inputs":[]},{"type":"error","name":"BatchTimestampTooEarly","inputs":[]},{"type":"error","name":"BlobNotFound","inputs":[]},{"type":"error","name":"CodeAlreadyOnValidationOrValidated","inputs":[]},{"type":"error","name":"CodeNotValidated","inputs":[]},{"type":"error","name":"CodeValidationNotRequested","inputs":[]},{"type":"error","name":"CommitmentEraNotNext","inputs":[]},{"type":"error","name":"ECDSAInvalidSignature","inputs":[]},{"type":"error","name":"ECDSAInvalidSignatureLength","inputs":[{"name":"length","type":"uint256","internalType":"uint256"}]},{"type":"error","name":"ECDSAInvalidSignatureS","inputs":[{"name":"s","type":"bytes32","internalType":"bytes32"}]},{"type":"error","name":"ERC1967InvalidImplementation","inputs":[{"name":"implementation","type":"address","internalType":"address"}]},{"type":"error","name":"ERC1967NonPayable","inputs":[]},{"type":"error","name":"ElectionNotStarted","inputs":[]},{"type":"error","name":"EmptyValidatorsList","inputs":[]},{"type":"error","name":"EnforcedPause","inputs":[]},{"type":"error","name":"EraDurationTooShort","inputs":[]},{"type":"error","name":"ErasTimestampMustNotBeEqual","inputs":[]},{"type":"error","name":"ExpectedPause","inputs":[]},{"type":"error","name":"FailedCall","inputs":[]},{"type":"error","name":"GenesisHashAlreadySet","inputs":[]},{"type":"error","name":"GenesisHashNotFound","inputs":[]},{"type":"error","name":"InvalidElectionDuration","inputs":[]},{"type":"error","name":"InvalidFROSTAggregatedPublicKey","inputs":[]},{"type":"error","name":"InvalidFrostSignatureCount","inputs":[]},{"type":"error","name":"InvalidFrostSignatureLength","inputs":[]},{"type":"error","name":"InvalidInitialization","inputs":[]},{"type":"error","name":"InvalidPreviousCommittedBatchHash","inputs":[]},{"type":"error","name":"InvalidTimestamp","inputs":[]},{"type":"error","name":"NotInitializing","inputs":[]},{"type":"error","name":"OwnableInvalidOwner","inputs":[{"name":"owner","type":"address","internalType":"address"}]},{"type":"error","name":"OwnableUnauthorizedAccount","inputs":[{"name":"account","type":"address","internalType":"address"}]},{"type":"error","name":"PredecessorBlockNotFound","inputs":[]},{"type":"error","name":"ReentrancyGuardReentrantCall","inputs":[]},{"type":"error","name":"RewardsCommitmentEraNotPrevious","inputs":[]},{"type":"error","name":"RewardsCommitmentPredatesGenesis","inputs":[]},{"type":"error","name":"RewardsCommitmentTimestampNotInPast","inputs":[]},{"type":"error","name":"RouterGenesisHashNotInitialized","inputs":[]},{"type":"error","name":"SafeCastOverflowedUintDowncast","inputs":[{"name":"bits","type":"uint8","internalType":"uint8"},{"name":"value","type":"uint256","internalType":"uint256"}]},{"type":"error","name":"SignatureVerificationFailed","inputs":[]},{"type":"error","name":"TimestampInFuture","inputs":[]},{"type":"error","name":"TimestampOlderThanPreviousEra","inputs":[]},{"type":"error","name":"TooManyChainCommitments","inputs":[]},{"type":"error","name":"TooManyRewardsCommitments","inputs":[]},{"type":"error","name":"TooManyValidatorsCommitments","inputs":[]},{"type":"error","name":"UUPSUnauthorizedCallContext","inputs":[]},{"type":"error","name":"UUPSUnsupportedProxiableUUID","inputs":[{"name":"slot","type":"bytes32","internalType":"bytes32"}]},{"type":"error","name":"UnknownProgram","inputs":[]},{"type":"error","name":"ValidationBeforeGenesis","inputs":[]},{"type":"error","name":"ValidationDelayTooBig","inputs":[]},{"type":"error","name":"ValidatorsAlreadyScheduled","inputs":[]},{"type":"error","name":"ValidatorsNotFoundForTimestamp","inputs":[]},{"type":"error","name":"ZeroValueTransfer","inputs":[]}],"bytecode":{"object":"0x60a080604052346100c257306080525f5160206144d05f395f51905f525460ff8160401c166100b3576002600160401b03196001600160401b03821601610060575b60405161440990816100c78239608051818181611b270152611bba0152f35b6001600160401b0319166001600160401b039081175f5160206144d05f395f51905f525581527fc7f505b2f371ae2175ee4913f4499e1f2633a7b5936321eed1cdaeb6115181d290602090a15f80610041565b63f92ee8a960e01b5f5260045ffd5b5f80fdfe6080806040526004361015610091575b50361561001a575f80fd5b610022612cd1565b5f5160206143a95f395f51905f5254600181015415610082576001600160801b0334161561007357335f908152601a9190910160205260409020541561006457005b63821a62f560e01b5f5260045ffd5b63a1a7c6eb60e01b5f5260045ffd5b63580683f360e01b5f5260045ffd5b5f905f3560e01c9081627a32e7146126d8575080630c18d277146121ea578063120e3f1e1461210b57806328e24b3d146120dd5780633683c4d214611eb25780633bd109fa14611e635780633d43b41814611e0f5780633f4ba83a14611d8f5780634f1ef28614611b7b57806352d1902d14611b1457806353f7fd48146116955780635c975abb146116665780636c2eb35014611301578063715018a61461129857806371a8cf2d1461126a57806382bdeaad146111525780638456cb59146110df57806384d22a4f1461108157806388f50cf0146110485780638b1edf1e14610fe15780638da5cb5b14610fac5780638f381dbe14610f665780639067088e14610f1d57806396a2ddfa14610eef5780639eb939a814610e98578063a5d53a4414610e42578063ad3cb1cc14610df9578063b24fcac01461094f578063baaf02011461084e578063c13911e81461080a578063c2eb812f146104de578063ca1e78191461048e578063cacf66ab14610456578063d456fd5114610420578063e3a6684f146103e1578063e6fabc09146103a8578063ed612f8c14610370578063edc872251461031b578063f2fde38b146102ee578063f4f20ac0146102b55763facd743b0361000f57346102b25760203660031901126102b25761027461272e565b600361028f5f5160206143a95f395f51905f52544290613e86565b019060018060a01b03165f52602052602060ff60405f2054166040519015158152f35b80fd5b50346102b257806003193601126102b2575f5160206143a95f395f51905f5254600701546040516001600160a01b039091168152602090f35b50346102b25760203660031901126102b25761031861030b61272e565b610313612d06565b612c60565b80f35b50346102b257806003193601126102b25760206103685f5160206143a95f395f51905f52546008600461034e4284613e86565b0154910154906001600160801b038260801c921690613e5b565b604051908152f35b50346102b257806003193601126102b2576020600461039e5f5160206143a95f395f51905f52544290613e86565b0154604051908152f35b50346102b257806003193601126102b2575f5160206143a95f395f51905f5254600501546040516001600160a01b039091168152602090f35b50346102b257806003193601126102b257604060085f5160206143a95f395f51905f525401548151906001600160801b038116825260801c6020820152f35b50346102b257806003193601126102b257602065ffffffffffff60045f5160206143a95f395f51905f5254015416604051908152f35b50346102b257806003193601126102b257602065ffffffffffff60025f5160206143a95f395f51905f52540154821c16604051908152f35b50346102b257806003193601126102b2576104da6104c660046104c05f5160206143a95f395f51905f52544290613e86565b01612a55565b6040519182916020835260208301906128ca565b0390f35b50346102b257806003193601126102b2576040516104fb816127a2565b610503612b8e565b815260405161051181612787565b5f8152602081015f90526020820152610528612b8e565b6040820152610535612c2d565b606082015260405161054681612787565b5f8082526020820152608082015261055c612b8e565b60a08201528160c082015260e001525f5160206143a95f395f51905f5254610582612c2d565b5061058f60098201614116565b9061059c600f8201614116565b600882015492604051936105af856127be565b6001600160801b038116855260801c602085015260408401526060830152601b81015490601c810154604051926105e5846127a2565b6040516105f181612758565b60018401548152600284015463ffffffff8116602083015260201c65ffffffffffff16604082015284526040519461062886612787565b60038401548652600484015465ffffffffffff166020870152602085019586526040519061065582612758565b60058501546001600160a01b03908116835260068601548116602084015260078601541660408084019190915286019182526060860190815261069a60158601612ae0565b94608087019586526016016106ae90612bac565b9160a0870192835260c0870193845260e087019485526040519788976020895251805160208a0152602081015163ffffffff1660408a01526040015165ffffffffffff16606089015251805160808901526020015165ffffffffffff1660a088015251600160a01b6001900381511660c0880152600160a01b6001900360208201511660e0880152600160a01b60019003906040015116610100870152516101208601610200905280516001600160801b031661022087015260208101516001600160801b031661024087015260408101516102608701608090526102a0870161079791612906565b90606001519061021f19878203016102808801526107b491612906565b935180516001600160401b0316610140870152602001516001600160801b031661016086015251805161018086015260208101516101a0860152604001516101c0850152516101e0840152516102008301520390f35b50346102b25760203660031901126102b25760ff604060209260195f5160206143a95f395f51905f5254016004358252845220541661084c6040518092612899565bf35b50346102b25760203660031901126102b2576004356001600160401b03811161094b5761087f903690600401612869565b905f5160206143a95f395f51905f525490610899836129ea565b916108a760405193846127d9565b8383526108b3846129ea565b602084019490601f1901368637601a869201915b81811061091257868587604051928392602084019060208552518091526040840192915b8181106108f9575050500390f35b82518452859450602093840193909201916001016108eb565b806109286109236001938588612aa8565b612b0e565b828060a01b03165f528360205260405f20546109448288612acc565b52016108c7565b5080fd5b50346102b25760603660031901126102b2576001600160401b03600435116102b257610100600435360360031901126102b257600260243510156102b2576044356001600160401b03811161094b576109ac903690600401612869565b7f9b779b17422d0df92223018b32b4d1fa46e071723d6817e2486d003becc55f005c610dea5760017f9b779b17422d0df92223018b32b4d1fa46e071723d6817e2486d003becc55f005d5f5160206143a95f395f51905f525490600182015415610ddb57815415610d7f575b60038201546044600435013503610d705765ffffffffffff60048301541665ffffffffffff610a4b602460043501612be2565b1610610d6257610a606004356004018361305a565b92610a7560a46004350160043560040161350f565b808096925060051b0460201485151715610d4e57610a958560051b613f02565b8695865b818810610c055750610bcb965060051b902090610abb60043560040186613573565b610aca60043560040187613966565b90610ad9602460043501612be2565b93610ae8606460043501612bd4565b9360405194602086019660043560040135885265ffffffffffff60d01b9060d01b16604087015260446004350135604687015260ff60f81b9060f81b1660668601526067850152608784015260a783015260c782015260c78152610b4d60e7826127d9565b5190209283600382015565ffffffffffff610b6c602460043501612be2565b1665ffffffffffff196004830154161760048201557f7ebe42360bcb182fe0a88148b081e4557c89d09aa6af8307635ac2f83e2aaa656020604051868152a165ffffffffffff610bc0602460043501612be2565b169360243591613be9565b15610bf657807f9b779b17422d0df92223018b32b4d1fa46e071723d6817e2486d003becc55f005d80f35b63729d0f6b60e01b8152600490fd5b610c1960a46004350160043560040161350f565b891015610d3a578860061b8101358a526019880160205260ff60408b2054166003811015610d2657600103610d1757600191602091610cdc8b8b8e868360061b86010192610c6684613544565b15610cf85760061b85013590525060198c01855260408e20805460ff19166002179055601c8c018054610c9890612cf8565b90555b8c7f460119a8f69a33ed127de517d5ea464e958ce23ef19e4420a8b92bf780bbc2c986610cc784613544565b1515926040519060061b8701358152a2613544565b908b60061b01358c52825360218b208186015201970196610a99565b60409260199160061b87013583520187522060ff198154169055610c9b565b636e83084760e11b8a5260048afd5b634e487b7160e01b8b52602160045260248bfd5b634e487b7160e01b8a52603260045260248afd5b634e487b7160e01b86526011600452602486fd5b620725b160ea1b8452600484fd5b63164b6fc360e01b8452600484fd5b610d9c610d90606460043501612bd4565b60043560040135612fc5565b15610dcc5765ffffffffffff610db6602460043501612be2565b164211610a1857631ad8809560e31b8452600484fd5b637b8cb35960e01b8452600484fd5b63580683f360e01b8452600484fd5b633ee5aeb560e01b8352600483fd5b50346102b257806003193601126102b257506104da604051610e1c6040826127d9565b60058152640352e302e360dc1b60208201526040519182916020835260208301906128a6565b50346102b257806003193601126102b2576104da610e845f5160206143a95f395f51905f52546002610e7c60018060a01b03924290613e86565b015416612f9b565b6040519182916020835260208301906128a6565b50346102b257806003193601126102b257610eb1612b8e565b506060610ece60165f5160206143a95f395f51905f525401612bac565b61084c60405180926040809180518452602081015160208501520151910152565b50346102b257806003193601126102b2576020601b5f5160206143a95f395f51905f52540154604051908152f35b50346102b25760203660031901126102b257610f3761272e565b601a5f5160206143a95f395f51905f5254019060018060a01b03165f52602052602060405f2054604051908152f35b50346102b25760203660031901126102b257600435906001600160401b0382116102b2576020610fa2610f9c3660048601612869565b90612b22565b6040519015158152f35b50346102b257806003193601126102b2575f5160206143695f395f51905f52546040516001600160a01b039091168152602090f35b50346102b257806003193601126102b257610ffa612cd1565b5f5160206143a95f395f51905f525460018101908154611039576002015463ffffffff164090811561102a575580f35b63f7bac7b560e01b8352600483fd5b6309476b0360e41b8352600483fd5b50346102b257806003193601126102b2575f5160206143a95f395f51905f5254600601546040516001600160a01b039091168152602090f35b50346102b257806003193601126102b25761109a61294d565b5060406110b760155f5160206143a95f395f51905f525401612ae0565b61084c825180926001600160801b03602080926001600160401b038151168552015116910152565b50346102b257806003193601126102b2576110f8612d06565b611100612cd1565b600160ff195f5160206143c95f395f51905f525416175f5160206143c95f395f51905f52557f62e78cea01bee320cd4e420270b5ea74000d11b0c9f74754ebdbfc544b05a2586020604051338152a180f35b50346102b25760203660031901126102b2576004356001600160401b03811161094b57611183903690600401612869565b905f5160206143a95f395f51905f52549061119d836129ea565b916111ab60405193846127d9565b8383526111b7846129ea565b602084019490601f19013686376019869201915b81811061122057868587604051928392602084019060208552518091526040840192915b8181106111fd575050500390f35b91935091602080826112126001948851612899565b0194019101918493926111ef565b61122b818386612aa8565b3587528260205260ff6040882054166112448287612acc565b600382101561125657526001016111cb565b634e487b7160e01b89526021600452602489fd5b50346102b257806003193601126102b257602060035f5160206143a95f395f51905f52540154604051908152f35b50346102b257806003193601126102b2576112b1612d06565b5f5160206143695f395f51905f5280546001600160a01b0319811690915581906001600160a01b03167f8be0079c531659141344cd1fd0a4f28419497f9722a3daafe3b4186f6b6457e08280a380f35b50346102b257806003193601126102b25761131a612d06565b5f5160206143e95f395f51905f525460ff8160401c16908115611651575b50611642575f5160206143e95f395f51905f52805468ffffffffffffffffff1916680100000000000000021790555f5160206143695f395f51905f5254611392906001600160a01b031661138a613ea2565b610313613ea2565b7fc7f505b2f371ae2175ee4913f4499e1f2633a7b5936321eed1cdaeb6115181d260205f5160206143a95f395f51905f525460409081516113d383826127d9565b601781528381017f726f757465722e73746f726167652e526f7574657256320000000000000000008152611405612d06565b5f199151902001855260ff198386201690815f5160206143a95f395f51905f52557f059eb9adf6e95b839d818142ed5bd5e498b6d95138e65c91525e93cc0f0339fc848451848152a1611456612d39565b80516001840155600283019063ffffffff868201511669ffffffffffff00000000868454930151881b169169ffffffffffffffffffff1916171790556005810160058301908082036115f4575b5050600881016001600160801b038154169060088401916001600160801b0319835416178255546001600160801b03825491811916911617905561152c6114ea4283613e86565b6115016001600160a01b036002610e7c4287613e86565b61151760046115104287613e86565b0192612965565b906115224293612a55565b9160098701612dc9565b6015810160158301908082036115a2575b5050601681016016830191818303611582575b5050505060ff60401b195f5160206143e95f395f51905f5254165f5160206143e95f395f51905f52555160028152a180f35b60189283925490556017810154601785015501549101555f808080611550565b806001600160401b03806001600160801b03935416166001600160401b031984541617835554851c16600160401b600160c01b03825491861b1690600160401b600160c01b0319161790555f8061153d565b5481546001600160a01b03199081166001600160a01b039283161790925560068381015490850180548416918316919091179055600780840154908501805490931691161790555f806114a3565b63f92ee8a960e01b8152600490fd5b600291506001600160401b031610155f611338565b50346102b257806003193601126102b257602060ff5f5160206143c95f395f51905f5254166040519015158152f35b50346102b2576101603660031901126102b2576116b061272e565b6024356001600160a01b0381169190829003611b10576116ce612702565b916116d7612718565b9260c43591608435919060a43560403660e3190112611b0c5761012435946001600160401b038611611b085736602387011215611b08578560040135916001600160401b038311611b04573660248489010111611b0457610144356001600160401b038111611b005761174e903690600401612869565b9690945f5160206143e95f395f51905f5254996001600160401b0360ff8c60401c16159b1680159081611af8575b6001149081611aee575b159081611ae5575b50611ad6576117d0908b60016001600160401b03195f5160206143e95f395f51905f525416175f5160206143e95f395f51905f5255611aa6575b61138a613ea2565b6117d8613ea2565b6117e0613ea2565b4215611a97578215611a885782821115611a7957600a6118008484612983565b04841015611a6a5760409a8b918d835161181a85826127d9565b60178152602081017f726f757465722e73746f726167652e526f757465725631000000000000000000815261184d612d06565b905190205f190190526020808f2060ff19165f5160206143a95f395f51905f528190558451818152909a917f059eb9adf6e95b839d818142ed5bd5e498b6d95138e65c91525e93cc0f0339fc91a16118a3612d39565b805160018c015560028b0190602081015163ffffffff1686835492015160201b69ffffffffffff00000000169169ffffffffffffffffffff1916171790558351906118ed82612758565b8282526001600160a01b03908116602083018190529381169490910184905260058a018054919092166001600160a01b03199182161790915560068901805482169092179091556007880180549091169091179055700300000000000000000000000000000002600887015561196161294d565b50895161196d81612787565b639502f90081526509184e72a0006020909101526015860180546001600160c01b0319166d09184e72a000000000009502f900179055895183908b906119b281612758565b83815284602082015201526016860155601785015560188401558651946119d886612787565b60e43586526101043560208701526119f4913691602401612815565b9042933690611a0292612a01565b9160090193611a1094612dc9565b611a18575080f35b60207fc7f505b2f371ae2175ee4913f4499e1f2633a7b5936321eed1cdaeb6115181d29160ff60401b195f5160206143e95f395f51905f5254165f5160206143e95f395f51905f52555160018152a180f35b63145e348f60e01b8c5260048cfd5b6353b2bbed60e01b8c5260048cfd5b63f7ba6bdb60e01b8c5260048cfd5b63b7d0949760e01b8c5260048cfd5b600160401b60ff60401b195f5160206143e95f395f51905f525416175f5160206143e95f395f51905f52556117c8565b63f92ee8a960e01b8d5260048dfd5b9050155f61178e565b303b159150611786565b8c915061177c565b8a80fd5b8980fd5b8880fd5b8780fd5b8280fd5b50346102b257806003193601126102b2577f00000000000000000000000000000000000000000000000000000000000000006001600160a01b03163003611b6c5760206040515f5160206143895f395f51905f528152f35b63703e46dd60e11b8152600490fd5b5060403660031901126102b257611b9061272e565b906024356001600160401b03811161094b57611bb090369060040161284b565b6001600160a01b037f000000000000000000000000000000000000000000000000000000000000000016308114908115611d6d575b50611d5e57611bf2612d06565b6040516352d1902d60e01b8152926001600160a01b0381169190602085600481865afa80958596611d26575b50611c3757634c9c8ce360e01b84526004839052602484fd5b9091845f5160206143895f395f51905f528103611d145750813b15611d02575f5160206143895f395f51905f5280546001600160a01b031916821790557fbc7cd75a20ee27fd9adebab32041f755214dbc6bffa90cc0225b39da2e5c2d3b8480a28151839015611ce85780836020611cdc95519101845af43d15611ce0573d91611cc0836127fa565b92611cce60405194856127d9565b83523d85602085013e614288565b5080f35b606091614288565b50505034611cf35780f35b63b398979f60e01b8152600490fd5b634c9c8ce360e01b8452600452602483fd5b632a87526960e21b8552600452602484fd5b9095506020813d602011611d56575b81611d42602093836127d9565b81010312611d525751945f611c1e565b5f80fd5b3d9150611d35565b63703e46dd60e11b8252600482fd5b5f5160206143895f395f51905f52546001600160a01b0316141590505f611be5565b50346102b257806003193601126102b257611da8612d06565b5f5160206143c95f395f51905f525460ff811615611e005760ff19165f5160206143c95f395f51905f52557f5db9ee0a495bf2e6ff9c91a7834c1ba4fdd244a5e8aa4e537bd38aeae4b073aa6020604051338152a180f35b638dfc202b60e01b8252600482fd5b50346102b25760203660031901126102b257611e2961272e565b611e31612d06565b5f5160206143a95f395f51905f525460050180546001600160a01b0319166001600160a01b0390921691909117905580f35b50346102b257806003193601126102b257611e7c61294d565b506040611ea0611e9b5f5160206143a95f395f51905f52544290613e86565b612965565b60208251918051835201516020820152f35b50346102b25760603660031901126102b257600435611ecf612702565b611ed7612cd1565b5f5160206143a95f395f51905f5254600181015415610ddb578284526019810160205260ff60408520541660038110156120c9576002036120ba578284526024356020526040842060405160608101908082106001600160401b038311176120b657605a916040527f3d605080600a3d3981f3608060405263e6fabc0960e01b5f5260205f6004817381523060601b6b5afa15604c575f80805136821760208201527f80378136915af43d5f803e156048573d5ff35b3d5ffd5b5f80fd000000000000604082015286f59081156120b2576001600160a01b0382165f908152601a820160205260409020849055601b018054611fd290612cf8565b90556040516001600160a01b03821680825293907f8008ec1d8798725ebfa0f2d128d52e8e717dcba6e0f786557eeee70614b02bf190602090a2506001600160a01b0381166120ad5750335b5f5160206143a95f395f51905f5254600501546001600160a01b0316823b156120a957604051631c9776b560e31b81526001600160a01b039092166004830152602482015260016044820152828160648183865af1801561209e57612089575b602082604051908152f35b6120948380926127d9565b61094b578161207e565b6040513d85823e3d90fd5b8380fd5b61201e565b8480fd5b8680fd5b630e2637d160e01b8452600484fd5b634e487b7160e01b85526021600452602485fd5b50346102b257806003193601126102b257602060015f5160206143a95f395f51905f52540154604051908152f35b50346102b25760203660031901126102b257600435612128612cd1565b8149156121db575f5160206143a95f395f51905f52546001810154156121cc576019018183528060205260ff60408420541660038110156121b8576121a95781835260209081526040808420805460ff19166001179055519182527f5c261a095dd5720475295dc06379921c003c22164ee6cae5cf83e76ce0a1b98591a180f35b6304c51a3360e31b8352600483fd5b634e487b7160e01b84526021600452602484fd5b63580683f360e01b8352600483fd5b637bb2fa2f60e11b8252600482fd5b34611d52576080366003190112611d5257600435612206612702565b9061220f612718565b91612218612cd1565b5f5160206143a95f395f51905f525460018101541561008257825f526019810160205260ff60405f20541660038110156126c4576002036126b557825f5260243560205260405f206040516102c08101908082106001600160401b03831117611d52576102b0916040527f60808060405261029e90816100128239f3fe608060405260043610610254575f81527f3560e01c806336a52a18146100ab57806342129d00146100a65780635ce6c32760208201527f146100a1578063701da98e1461009c578063704ed542146100975780637a8e0c60408201527fdd1461009257806391d5a64c1461008d5780639ce110d714610088578063affe60608201527fd0e0146100835763e43f3433036102545761023f565b610222565b6101fa565b60808201527f6101e4565b6101b1565b610181565b610165565b610143565b610106565b346160a08201527ed4575f3660031901126100d45760025460081c6001600160a01b031660809060c08201527f8152602090f35b5f80fd5b9181601f840112156100d45782359167ffffffffff60e08201527fffffff83116100d457602083818601950101116100d457565b604036600319016101008201527f126100d45760043567ffffffffffffffff81116100d4576101329036906004016101208201527f6100d8565b505060243580151514610254575f80fd5b346100d4575f366003196101408201527f01126100d457602060ff600254166040519015158152f35b346100d4575f36606101608201527f031901126100d45760205f54604051908152f35b346100d457602036600319016101808201527f126100d4576004356fffffffffffffffffffffffffffffffff811614610254576101a08201527f5f80fd5b60403660031901126100d45760243567ffffffffffffffff811161006101c08201527fd4576101dd9036906004016100d8565b5050610254565b346100d457602036606101e08201527f0319011215610254575f80fd5b346100d4575f3660031901126100d4576003546102008201527f6040516001600160a01b039091168152602090f35b346100d4575f36600319016102208201527f126100d4576020600154604051908152f35b346100d4575f36600319011215616102408201523060601c7f0254575f80fd5b63e6fabc0960e01b5f5260205f60048173000000000000000017610260820152735afa156100d4575f808051368280378136915af43060a01b176102808201526f3d5f803e1561029a573d5ff35b3d5ffd60801b6102a08201525ff5908115611d52576001600160a01b0382165f908152601a820160205260409020849055601b0180546125f490612cf8565b90556040516001600160a01b03821680825293907f8008ec1d8798725ebfa0f2d128d52e8e717dcba6e0f786557eeee70614b02bf190602090a2506001600160a01b0381166126af575033915b813b15611d5257604051631c9776b560e31b81526001600160a01b039384166004820152921660248301525f604483018190528260648183855af19182156126a457602092612694575b50604051908152f35b5f61269e916127d9565b5f61268b565b6040513d5f823e3d90fd5b91612641565b630e2637d160e01b5f5260045ffd5b634e487b7160e01b5f52602160045260245ffd5b34611d52575f366003190112611d5257602090601c5f5160206143a95f395f51905f525401548152f35b604435906001600160a01b0382168203611d5257565b606435906001600160a01b0382168203611d5257565b600435906001600160a01b0382168203611d5257565b35906001600160a01b0382168203611d5257565b606081019081106001600160401b0382111761277357604052565b634e487b7160e01b5f52604160045260245ffd5b604081019081106001600160401b0382111761277357604052565b61010081019081106001600160401b0382111761277357604052565b608081019081106001600160401b0382111761277357604052565b90601f801991011681019081106001600160401b0382111761277357604052565b6001600160401b03811161277357601f01601f191660200190565b929192612821826127fa565b9161282f60405193846127d9565b829481845281830111611d52578281602093845f960137010152565b9080601f83011215611d525781602061286693359101612815565b90565b9181601f84011215611d52578235916001600160401b038311611d52576020808501948460051b010111611d5257565b9060038210156126c45752565b805180835260209291819084018484015e5f828201840152601f01601f1916010190565b90602080835192838152019201905f5b8181106128e75750505090565b82516001600160a01b03168452602093840193909201916001016128da565b9060208251805183520151602082015260018060a01b03602083015116604082015260806060612944604085015160a08386015260a08501906128ca565b93015191015290565b6040519061295a82612787565b5f6020838281520152565b9060405161297281612787565b602060018294805484520154910152565b9190820391821161299057565b634e487b7160e01b5f52601160045260245ffd5b81156129ae570490565b634e487b7160e01b5f52601260045260245ffd5b9190826040910312611d52576040516129da81612787565b6020808294803584520135910152565b6001600160401b0381116127735760051b60200190565b929190612a0d816129ea565b93612a1b60405195866127d9565b602085838152019160051b8101928311611d5257905b828210612a3d57505050565b60208091612a4a84612744565b815201910190612a31565b90604051918281549182825260208201905f5260205f20925f5b818110612a86575050612a84925003836127d9565b565b84546001600160a01b0316835260019485019487945060209093019201612a6f565b9190811015612ab85760051b0190565b634e487b7160e01b5f52603260045260245ffd5b8051821015612ab85760209160051b010190565b90604051612aed81612787565b91546001600160401b038116835260401c6001600160801b03166020830152565b356001600160a01b0381168103611d525790565b612b3b5f5160206143a95f395f51905f52544290613e86565b600301905f5b838110612b515750505050600190565b612b5f610923828685612aa8565b6001600160a01b03165f9081526020849052604090205460ff1615612b8657600101612b41565b505050505f90565b60405190612b9b82612758565b5f6040838281528260208201520152565b90604051612bb981612758565b60406002829480548452600181015460208501520154910152565b3560ff81168103611d525790565b3565ffffffffffff81168103611d525790565b60405190612c02826127be565b5f606083604051612c1281612787565b83815283602082015281528260208201528160408201520152565b60405190612c3a826127be565b815f81525f6020820152612c4c612bf5565b60408201526060612c5b612bf5565b910152565b6001600160a01b03168015612cbe575f5160206143695f395f51905f5280546001600160a01b0319811683179091556001600160a01b03167f8be0079c531659141344cd1fd0a4f28419497f9722a3daafe3b4186f6b6457e05f80a3565b631e4fbdf760e01b5f525f60045260245ffd5b60ff5f5160206143c95f395f51905f525416612ce957565b63d93c066560e01b5f5260045ffd5b5f1981146129905760010190565b5f5160206143695f395f51905f52546001600160a01b03163303612d2657565b63118cdaa760e01b5f523360045260245ffd5b612d41612b8e565b5063ffffffff4311612d9e5765ffffffffffff4211612d8657604051612d6681612758565b5f815263ffffffff4316602082015265ffffffffffff4216604082015290565b6306dfcc6560e41b5f5260306004524260245260445ffd5b6306dfcc6560e41b5f5260206004524360245260445ffd5b8181029291811591840414171561299057565b9291908051906020810191825170014551231950b75fc4402da1732fc9bebe1982109182612f8a575b505015612f7b5751845551600184015580518060401b6bfe61000180600a3d393df3000161fffe8211830152600b8101601583015ff0918215612f6e57526002830180546001600160a01b0319166001600160a01b039092169190911790555f5b600483018054821015612e91575f90815260208082208301546001600160a01b0316825260038501905260409020805460ff19169055600101612e53565b5050925f5b8451811015612eda576001906001600160a01b03612eb48288612acc565b5116828060a01b03165f526003840160205260405f208260ff1982541617905501612e96565b5092600482018151916001600160401b03831161277357600160401b8311612773578154838355808410612f44575b50602001905f5260205f205f5b838110612f27575050505060050155565b82516001600160a01b031681830155602090920191600101612f16565b825f52838060205f20019103905f5b828110612f61575050612f09565b5f82820155600101612f53565b63301164255f526004601cfd5b63375f0aab60e11b5f5260045ffd5b612f949250614265565b5f80612df2565b906040805180935f19813b0164ffffffffff16905f6021830191601f8501903c8082520101604052565b435f19810193929084116129905760ff1643811061301557505f925b83811015612ff1575b505f925050565b80408281036130035750600193505050565b15613010575f1901612fe1565b612fea565b61301f9043612983565b92612fe1565b903590601e1981360301821215611d5257018035906001600160401b038211611d5257602001918160051b36038313611d5257565b9060808101600161306b8284613025565b9050116135005761307c8183613025565b9050156134d95761308c91613025565b15612ab857803590603e1981360301821215611d525701916130ae8380613025565b9190928260051b9383850460201484151715612990576130d085969495613f02565b925f945f97601a60fe19853603019501965b888a1015613491578960051b85013586811215611d5257850161310481612b0e565b6001600160a01b03165f90815260208a9052604090205415610064575f608082016001600160801b0361313682613ecd565b1615158061347e575b61346d575b6001600160a01b0361315584612b0e565b604051630427a21d60e11b81526020600482015294911691610124850191906001600160801b03906131d4906001600160a01b0361319285612744565b166024890152602084013560448901526131ae60408501613ee1565b151560648901526001600160a01b036131c960608601612744565b166084890152613eee565b1660a48601526131e660a08201613ee1565b151560c486015236819003601e190160c082013581811215611d52578201602081359101936001600160401b038211611d52576060820236038513611d5257819061010060e48a015252610144870193905f905b8082106134235750505060e082013590811215611d525701803560208201926001600160401b038211611d52578160051b908136038513611d525791879594936023198785030161010488015281845260208085019385010194935f9160fe19813603015b8484106133165750505050505050602093916001600160801b03848093039316905af19081156126a4575f916132e4575b50816020916001938a0152019901986130e2565b90506020813d821161330e575b816132fe602093836127d9565b81010312611d52575160016132d0565b3d91506132f1565b919395979850919395601f19848203018752873582811215611d52578301602081013582526001600160a01b0361334f60408301612744565b1660208301526060810135603e193683900301811215611d52578101602081013591906040016001600160401b038311611d52578236038113611d5257829060e060408601528160e08601526101008501375f61010083850101526001600160801b036133be60808301613eee565b16606084015260a0810135608084015260c081013563ffffffff60e01b8116809103611d52578360209361340060e086956101009560a060019a015201613ee1565b151560c0830152601f80199101160101990197019401918a98979695939161329f565b90919460608060019288358152838060a01b0361344260208b01612744565b1660208201526001600160801b0361345c60408b01613eee565b16604082015201960192019061323a565b905061347881613ecd565b90613144565b5061348b60a08401613544565b1561313f565b5094935095509550506020925020910135907fd04cd9af813f6f0b56e9411a6ee6a84eb5ac35a96f0c33d2e3a07d65baa8f4186020604051848152a15f5260205260405f2090565b5050507fc5d2460186f7233c927e7db2dcc703c0e500b653ca82273b7bfad8045d85a47090565b6306d6c38360e01b5f5260045ffd5b903590601e1981360301821215611d5257018035906001600160401b038211611d5257602001918160061b36038313611d5257565b358015158103611d525790565b903590605e1981360301821215611d52570190565b9190820180921161299057565b60c0820160016135838285613025565b905011613925576135948184613025565b9050156134d9576135a59083613025565b15612ab857803590607e1981360301821215611d52570191606083019060206135cd83612be2565b91019065ffffffffffff806135e184612be2565b1691161015613916576135f382612be2565b65ffffffffffff80600286015460201c169116106139075761363965ffffffffffff61363261362c8261362587612be2565b1687613f27565b93612be2565b1684613f27565b11156138f8576007820154600690920180548435946001600160a01b0394851694604082019391925f9160209116604461367f836136778989613551565b01358b613566565b604051948593849263095ea7b360e01b84528c600485015260248401525af19081156126a4575f916138bd575b50156138ae575460405163394f179b60e11b81526001600160a01b03909116600482015260248101959095526020818101356044870152856064815f885af19485156126a4575f95613876575b509061370491613551565b9161370e82612be2565b9260405193637fbe95b560e01b85526040600486015260a48501918035601e1982360301811215611d52578101602081359101936001600160401b038211611d52578160061b36038513611d525760606044890152819052869360c485019392915f5b81811061383e57505050836020959365ffffffffffff829484895f96013560648601526137a7604060018060a01b039201612744565b16608485015216602483015203925af19182156126a4575f92613808575b506137cf90612be2565b6040519160208301938452604083015265ffffffffffff60d01b9060d01b166060820152604681526138026066826127d9565b51902090565b9091506020813d602011613836575b81613824602093836127d9565b81010312611d525751906137cf6137c5565b3d9150613817565b919550919293604080600192838060a01b036138598a612744565b168152602089013560208201520196019101918895949392613771565b919094506020823d6020116138a6575b81613893602093836127d9565b81010312611d52579051936137046136f9565b3d9150613886565b6367b9145160e01b5f5260045ffd5b90506020813d6020116138f0575b816138d8602093836127d9565b81010312611d5257518015158103611d52575f6136ac565b3d91506138cb565b6308027f7760e31b5f5260045ffd5b637bde91e760e11b5f5260045ffd5b63087a19ab60e41b5f5260045ffd5b633249ceed60e11b5f5260045ffd5b903590601e1981360301821215611d5257018035906001600160401b038211611d5257602001918136038313611d5257565b9060e0810160016139778284613025565b905011613bda576139888183613025565b9050156134d95761399891613025565b15612ab857803590609e1981360301821215611d52570160608101906139be8282613025565b905015613bcb5765ffffffffffff600284015460201c16916139e08342612983565b6139ef601686015480926129a4565b9360808401359460018101809111612990578503613bbc57613a1485613a1a93612db6565b90613566565b93613a29601782015486612983565b4210613bad57613a3890613f4f565b934260058601541015613b9e57613a8d906040840195613a7f613a87613a5e8988613934565b9190613a6a888a613025565b949091613a77368c6129c2565b943691612815565b933691612a01565b92612dc9565b7fa1a3b42179ad30022438a1ea333b38eaf4a7329beee5e2b8111c0dcd4e08821c6020604051858152a160a082360312611d525760405193613ace856127be565b613ad836846129c2565b8552356001600160401b038111611d5257613af6903690840161284b565b602085015235906001600160401b038211611d52570136601f82011215611d5257613b28903690602081359101612a01565b91826040820152816060820152519160208351930151906040519283926020840195865260408401526060830160208351919301905f5b818110613b7c5750505081520380825261380290602001826127d9565b82516001600160a01b0316855286955060209485019490920191600101613b5f565b6333fc8f5160e21b5f5260045ffd5b6372a84ce560e11b5f5260045ffd5b6343d3f5bf60e01b5f5260045ffd5b636c2bf3db60e01b5f5260045ffd5b631d3fc6bf60e21b5f5260045ffd5b909493919365ffffffffffff600283015460201c16613c084284613f27565b613c20613c1a60168601548093612db6565b83613566565b918284108080613e45575b15613e1357508310613e0557613c419083613566565b10613df657613c51905b82613e86565b94601960f81b5f523060601b60025260165260365f209360028110156126c45780613ce257505060018103613cd35715612ab857613c9281613c9992613934565b3691612815565b916060835103613cc45782602061286694015160606040830151920151926001815491015490613f6a565b632ce466bf60e01b5f5260045ffd5b6360a1ea7760e01b5f5260045ffd5b919391600114613cf55750505050505f90565b613d1a90600860048796970154910154906001600160801b038260801c921690613e5b565b925f9260035f9201915b86811015613deb57613d53613d4a613d44613c928460051b860186613934565b866141cb565b90929192614205565b6001600160a01b0381165f9081526020859052604090205460ff16613d7e575b506001905b01613d24565b6001600160a01b03165f9081527ff02b465737fa6045c2ff53fb2df43c66916ac2166fa303264668fb2f6a1d8c0060205260409020805c15613dc35750600190613d78565b946001613dd192965d612cf8565b93858514613ddf575f613d73565b50505050505050600190565b505050505050505f90565b63046bb1e560e51b5f5260045ffd5b62f4462b60e01b5f5260045ffd5b9392915050428211613e3657613c5192613e2e575b50613c4b565b90505f613e28565b6347860b9760e01b5f5260045ffd5b50613e54601887015485613566565b4210613c2b565b6001600160801b03809216029116613e7381836129a4565b9181156129ae5706156128665760010190565b90613e91908261416b565b15613e9c57600f0190565b60090190565b60ff5f5160206143e95f395f51905f525460401c1615613ebe57565b631afcd79f60e31b5f5260045ffd5b356001600160801b0381168103611d525790565b35908115158203611d5257565b35906001600160801b0382168203611d5257565b6040519190601f01601f191682016001600160401b03811183821017611d5257604052565b6016613f466128669365ffffffffffff600285015460201c1690612983565b910154906129a4565b613f59428261416b565b15613f645760090190565b600f0190565b9293919490613f798587614265565b1561410c57821561410c5770014551231950b75fc4402da1732fc9bebe1983101561410c576001169061010e613fae81613f02565b9160883684376002600188160160888401538760898401526002840160a984015360aa830186905260ca8301527e300046524f53542d736563703235366b312d4b454343414b3235362d76316360ea8301526303430b6160e51b61010a830152812060cc820181815290600260ec84016001815360428420809318845253604270014551231950b75fc4402da1732fc9bebe19922060801c6001600160401b0360801b8260801b16179070014551231950b75fc4402da1732fc9bebe1990600160c01b9060401c09088015613deb5784601b6080945f9660209870014551231950b75fc4402da1732fc9bebe19910970014551231950b75fc4402da1732fc9bebe19038552018684015280604084015270014551231950b75fc4402da1732fc9bebe19910970014551231950b75fc4402da1732fc9bebe1903606082015282805260015afa505f51915f5260205260018060a01b0360405f20161490565b5050505050505f90565b61411e612bf5565b506002810154600582015460405192909161415e916004916001600160a01b0316614148866127be565b61415182612965565b8652602086015201612a55565b6040830152606082015290565b906014600e8301549201548083146141bc578181841093119182159111159181906141b5575b156141a657826141a057505090565b14919050565b634c38ae9560e11b5f5260045ffd5b5081614191565b63f26224af60e01b5f5260045ffd5b81519190604183036141fb576141f49250602082015190606060408401519301515f1a906142e6565b9192909190565b50505f9160029190565b60048110156126c45780614217575050565b6001810361422e5763f645eedf60e01b5f5260045ffd5b60028103614249575063fce698f760e01b5f5260045260245ffd5b6003146142535750565b6335e2f38360e21b5f5260045260245ffd5b6401000003d01990600790829081818009900908906401000003d0199080091490565b906142ac575080511561429d57602081519101fd5b63d6bda27560e01b5f5260045ffd5b815115806142dd575b6142bd575090565b639996b31560e01b5f9081526001600160a01b0391909116600452602490fd5b50803b156142b5565b91907f7fffffffffffffffffffffffffffffff5d576e7357a4501ddfe92f46681b20a0841161435d579160209360809260ff5f9560405194855216868401526040830152606082015282805260015afa156126a4575f516001600160a01b0381161561435357905f905f90565b505f906001905f90565b5050505f916003919056fe9016d09d72d40fdae2fd8ceac6b6234c7706214fd39c1cd1e609a0528c199300360894a13ba1a3210667c828492db98dca3e2076cc3735a920a3ca505d382bbc5c09ca1b9b8127a4fd9f3c384aac59b661441e820e17733753ff5f2e86e1e000cd5ed15c6e187e77e9aee88184c21f4f2182ab5827cb3b7e07fbedcd63f03300f0c57e16840df040f15088dc2f81fe391c3923bec73e23a9662efc9c229c6a00f0c57e16840df040f15088dc2f81fe391c3923bec73e23a9662efc9c229c6a00","linkReferences":{}},"methodIdentifiers":{"UPGRADE_INTERFACE_VERSION()":"ad3cb1cc","areValidators(address[])":"8f381dbe","codeState(bytes32)":"c13911e8","codesStates(bytes32[])":"82bdeaad","commitBatch((bytes32,uint48,bytes32,uint8,((address,bytes32,bool,address,uint128,bool,(bytes32,address,uint128)[],(bytes32,address,bytes,uint128,(bytes32,bytes4),bool)[])[],bytes32)[],(bytes32,bool)[],((uint256,bytes32),((address,uint256)[],uint256,address),uint48)[],((uint256,uint256),bytes,address[],uint256)[]),uint8,bytes[])":"b24fcac0","computeSettings()":"84d22a4f","createProgram(bytes32,bytes32,address)":"3683c4d2","createProgramWithAbiInterface(bytes32,bytes32,address,address)":"0c18d277","genesisBlockHash()":"28e24b3d","genesisTimestamp()":"cacf66ab","initialize(address,address,address,address,uint256,uint256,uint256,(uint256,uint256),bytes,address[])":"53f7fd48","isValidator(address)":"facd743b","latestCommittedBatchHash()":"71a8cf2d","latestCommittedBatchTimestamp()":"d456fd51","lookupGenesisHash()":"8b1edf1e","middleware()":"f4f20ac0","mirrorImpl()":"e6fabc09","owner()":"8da5cb5b","pause()":"8456cb59","paused()":"5c975abb","programCodeId(address)":"9067088e","programsCodeIds(address[])":"baaf0201","programsCount()":"96a2ddfa","proxiableUUID()":"52d1902d","reinitialize()":"6c2eb350","renounceOwnership()":"715018a6","requestCodeValidation(bytes32)":"120e3f1e","setMirror(address)":"3d43b418","signingThresholdFraction()":"e3a6684f","storageView()":"c2eb812f","timelines()":"9eb939a8","transferOwnership(address)":"f2fde38b","unpause()":"3f4ba83a","upgradeToAndCall(address,bytes)":"4f1ef286","validatedCodesCount()":"007a32e7","validators()":"ca1e7819","validatorsAggregatedPublicKey()":"3bd109fa","validatorsCount()":"ed612f8c","validatorsThreshold()":"edc87225","validatorsVerifiableSecretSharingCommitment()":"a5d53a44","wrappedVara()":"88f50cf0"},"storageLayout":{"storage":[],"types":{}},"id":165}