{"abi":[{"type":"constructor","inputs":[{"name":"owner_","type":"address","internalType":"address"}],"stateMutability":"nonpayable"},{"type":"function","name":"blacklist","inputs":[{"name":"version","type":"uint64","internalType":"uint64"}],"outputs":[],"stateMutability":"nonpayable"},{"type":"function","name":"blacklisted","inputs":[{"name":"version","type":"uint64","internalType":"uint64"}],"outputs":[{"name":"value","type":"bool","internalType":"bool"}],"stateMutability":"view"},{"type":"function","name":"create","inputs":[{"name":"version","type":"uint64","internalType":"uint64"},{"name":"owner_","type":"address","internalType":"address"},{"name":"data","type":"bytes","internalType":"bytes"}],"outputs":[{"name":"entity_","type":"address","internalType":"address"}],"stateMutability":"nonpayable"},{"type":"function","name":"entity","inputs":[{"name":"index","type":"uint256","internalType":"uint256"}],"outputs":[{"name":"","type":"address","internalType":"address"}],"stateMutability":"view"},{"type":"function","name":"implementation","inputs":[{"name":"version","type":"uint64","internalType":"uint64"}],"outputs":[{"name":"","type":"address","internalType":"address"}],"stateMutability":"view"},{"type":"function","name":"isEntity","inputs":[{"name":"entity_","type":"address","internalType":"address"}],"outputs":[{"name":"","type":"bool","internalType":"bool"}],"stateMutability":"view"},{"type":"function","name":"lastVersion","inputs":[],"outputs":[{"name":"","type":"uint64","internalType":"uint64"}],"stateMutability":"view"},{"type":"function","name":"migrate","inputs":[{"name":"entity_","type":"address","internalType":"address"},{"name":"newVersion","type":"uint64","internalType":"uint64"},{"name":"data","type":"bytes","internalType":"bytes"}],"outputs":[],"stateMutability":"nonpayable"},{"type":"function","name":"owner","inputs":[],"outputs":[{"name":"","type":"address","internalType":"address"}],"stateMutability":"view"},{"type":"function","name":"renounceOwnership","inputs":[],"outputs":[],"stateMutability":"nonpayable"},{"type":"function","name":"totalEntities","inputs":[],"outputs":[{"name":"","type":"uint256","internalType":"uint256"}],"stateMutability":"view"},{"type":"function","name":"transferOwnership","inputs":[{"name":"newOwner","type":"address","internalType":"address"}],"outputs":[],"stateMutability":"nonpayable"},{"type":"function","name":"whitelist","inputs":[{"name":"implementation_","type":"address","internalType":"address"}],"outputs":[],"stateMutability":"nonpayable"},{"type":"event","name":"AddEntity","inputs":[{"name":"entity","type":"address","indexed":true,"internalType":"address"}],"anonymous":false},{"type":"event","name":"Blacklist","inputs":[{"name":"version","type":"uint64","indexed":true,"internalType":"uint64"}],"anonymous":false},{"type":"event","name":"Migrate","inputs":[{"name":"entity","type":"address","indexed":true,"internalType":"address"},{"name":"newVersion","type":"uint64","indexed":false,"internalType":"uint64"}],"anonymous":false},{"type":"event","name":"OwnershipTransferred","inputs":[{"name":"previousOwner","type":"address","indexed":true,"internalType":"address"},{"name":"newOwner","type":"address","indexed":true,"internalType":"address"}],"anonymous":false},{"type":"event","name":"Whitelist","inputs":[{"name":"implementation","type":"address","indexed":true,"internalType":"address"}],"anonymous":false},{"type":"error","name":"AlreadyBlacklisted","inputs":[]},{"type":"error","name":"AlreadyWhitelisted","inputs":[]},{"type":"error","name":"EntityNotExist","inputs":[]},{"type":"error","name":"InvalidImplementation","inputs":[]},{"type":"error","name":"InvalidVersion","inputs":[]},{"type":"error","name":"NotOwner","inputs":[]},{"type":"error","name":"OldVersion","inputs":[]},{"type":"error","name":"OwnableInvalidOwner","inputs":[{"name":"owner","type":"address","internalType":"address"}]},{"type":"error","name":"OwnableUnauthorizedAccount","inputs":[{"name":"account","type":"address","internalType":"address"}]}],"bytecode":{"object":"0x60803460b757601f6111e538819003918201601f19168301916001600160401b0383118484101760bb5780849260209460405283398101031260b757516001600160a01b0381169081900360b757801560a457600280546001600160a01b03198116831790915560405191906001600160a01b03167f8be0079c531659141344cd1fd0a4f28419497f9722a3daafe3b4186f6b6457e05f80a361111590816100d08239f35b631e4fbdf760e01b5f525f60045260245ffd5b5f80fd5b634e487b7160e01b5f52604160045260245ffdfe60806040526004361015610011575f80fd5b5f5f3560e01c806314887c58146108265780633ac04911146106bc57806358336662146104745780635cd8b15e1461045757806364dfea0614610430578063715018a6146103d35780638da5cb5b146103aa5780639b19251a146102b9578063b42ba2a214610263578063b572a966146101a7578063b6caa1191461016a578063f2fde38b146100e15763f9661602146100a9575f80fd5b346100de5760203660031901126100de5760206100cc6100c761087e565b61095d565b6040516001600160a01b039091168152f35b80fd5b50346100de5760203660031901126100de576100fb610868565b610103610a15565b6001600160a01b0316801561015657600280546001600160a01b0319811683179091556001600160a01b03167f8be0079c531659141344cd1fd0a4f28419497f9722a3daafe3b4186f6b6457e08380a380f35b631e4fbdf760e01b82526004829052602482fd5b50346100de5760203660031901126100de5760ff60406020926001600160401b0361019361087e565b168152600384522054166040519015158152f35b50346100de5760203660031901126100de576001600160401b036101c961087e565b6101d1610a15565b168015801561024f575b61024057808252600360205260ff60408320541661023157808252600360205260408220805460ff191660011790557ffc8245c2838846b295ae66fbe0d08e20c799b737c93b56f7b209df2e5fa2d4588280a280f35b63f53de75f60e01b8252600482fd5b63a9146eeb60e01b8252600482fd5b506001600160401b036004541681116101db565b50346100de5760203660031901126100de576004359080548210156102a55780805260208082209092015460405160039290921b1c6001600160a01b03168152f35b634e487b7160e01b81526032600452602490fd5b50346100de5760203660031901126100de576102d3610868565b6102db610a15565b6040516202dd3160ec1b81526001600160a01b039190911690602081600481855afa90811561039f578391610370575b50306001600160a01b03909116036103615761032681610ab0565b15610352577feb73900b98b6a3e2b8b01708fe544760cf570d21e7fbe5225f24e48b5b2b432e8280a280f35b63b73e95e160e01b8252600482fd5b63340aafcd60e11b8252600482fd5b610392915060203d602011610398575b61038a81836108e1565b81019061093e565b5f61030b565b503d610380565b6040513d85823e3d90fd5b50346100de57806003193601126100de576002546040516001600160a01b039091168152602090f35b50346100de57806003193601126100de576103ec610a15565b600280546001600160a01b0319811690915581906001600160a01b03167f8be0079c531659141344cd1fd0a4f28419497f9722a3daafe3b4186f6b6457e08280a380f35b50346100de57806003193601126100de5760206001600160401b0360045416604051908152f35b50346100de57806003193601126100de5760209054604051908152f35b50346106235760603660031901126106235761048e610868565b602435906001600160401b03821690818303610623576044356001600160401b038111610623576104c3903690600401610894565b909160018060a01b0316936104e3855f52600160205260405f2054151590565b156106ad57604051638da5cb5b60e01b8152602081600481895afa908115610618575f9161068e575b506001600160a01b0316330361067f5760405163054fd4d560e41b8152602081600481895afa8015610618575f90610636575b6001600160401b039150168411156106275761055d6105999161095d565b9161058b604051948592630557c60960e31b60208501528760248501526040604485015260648401916108c1565b03601f1981018452836108e1565b833b156106235760405163278f794360e11b8152915f91839182916105c2919060048401610902565b038183875af1801561061857610602575b5060207fb91c18bf7dbfdff96560fb98128531c4c6187079fe0bd7f24a81f54ea87f35a791604051908152a280f35b61060f9193505f906108e1565b5f9160206105d3565b6040513d5f823e3d90fd5b5f80fd5b630384ebd960e41b5f5260045ffd5b506020813d602011610677575b81610650602093836108e1565b8101031261062357516001600160401b0381168103610623576001600160401b039061053f565b3d9150610643565b6330cd747160e01b5f5260045ffd5b6106a7915060203d6020116103985761038a81836108e1565b5f61050c565b63e3fd10ff60e01b5f5260045ffd5b34610623576060366003190112610623576106d561087e565b6024356001600160a01b03811690819003610623576044356001600160401b0381116106235761070c610797913690600401610894565b919061058b5f549161076860405193602085019081526001600160401b0389169485604082015288606082015260808082015261075f8161075160a082018b886108c1565b03601f1981018352826108e1565b5190209761095d565b946040519687946315fb20f360e21b6020870152602486015260448501526060606485015260848401916108c1565b604051916105d190818401928484106001600160401b038511176108125784936107c593610b0f8639610902565b03905ff58015610618576020906001600160a01b03166107e481610a51565b5060405190807fb919910dcefbf753bfd926ab3b1d3f85d877190c3d01ba1bd585047b99b99f0b5f80a28152f35b634e487b7160e01b5f52604160045260245ffd5b3461062357602036600319011261062357602061085e6001600160a01b0361084c610868565b165f52600160205260405f2054151590565b6040519015158152f35b600435906001600160a01b038216820361062357565b600435906001600160401b038216820361062357565b9181601f84011215610623578235916001600160401b038311610623576020838186019501011161062357565b908060209392818452848401375f828201840152601f01601f1916010190565b90601f801991011681019081106001600160401b0382111761081257604052565b6001600160a01b0390911681526040602080830182905283519183018290526060938291018484015e5f828201840152601f01601f1916010190565b9081602091031261062357516001600160a01b03811681036106235790565b6001600160401b031680158015610a01575b6109f2575f19016001600160401b0381116109de576001600160401b03166004548110156109ca5760045f527f8a35acfbc15ff81a39ae7d344fd709f28e8600b4aa8c65c6b64bfe7fe36bd19b01546001600160a01b031690565b634e487b7160e01b5f52603260045260245ffd5b634e487b7160e01b5f52601160045260245ffd5b63a9146eeb60e01b5f5260045ffd5b506001600160401b0360045416811161096f565b6002546001600160a01b03163303610a2957565b63118cdaa760e01b5f523360045260245ffd5b80548210156109ca575f5260205f2001905f90565b805f52600160205260405f2054155f14610aab575f54600160401b81101561081257806001610a8392015f555f610a3c565b81549060031b9083821b915f19901b19161790555f54905f52600160205260405f2055600190565b505f90565b805f52600560205260405f2054155f14610aab57600454600160401b81101561081257806001610ae592016004556004610a3c565b81549060031b9083821b915f19901b1916179055600454905f52600560205260405f205560019056fe60a0604052346101d8575f6105d18038038061001a816101f0565b92833981016040828203126101d8578151916001600160a01b038316908184036101d8576020810151906001600160401b0382116101d8570182601f820112156101d8578051906001600160401b0382116101dc57610082601f8301601f19166020016101f0565b93828552602083830101116101d857815f9260208093018387015e840101528151156101c957823b156101b7577f360894a13ba1a3210667c828492db98dca3e2076cc3735a920a3ca505d382bbc80546001600160a01b031916821790557fbc7cd75a20ee27fd9adebab32041f755214dbc6bffa90cc0225b39da2e5c2d3b5f80a28051156101ae5761011491610215565b505b336080525f5160206105b15f395f51905f5254907f7e644d79422f17c01e4894b5f4f588d331ebfa28653d42ae832dc59e38c9798f6040805160018060a01b0385168152336020820152a1331561019a57506001600160a01b03191633175f5160206105b15f395f51905f525560405161030f90816102a282396080518160aa0152f35b633173bdd160e11b81526004819052602490fd5b5050505f610116565b634c9c8ce360e01b5f5260045260245ffd5b6330a289cf60e21b5f5260045ffd5b5f80fd5b634e487b7160e01b5f52604160045260245ffd5b6040519190601f01601f191682016001600160401b038111838210176101dc57604052565b905f8091602081519101845af4808061028e575b156102495750506040513d81523d5f602083013e60203d82010160405290565b1561026e57639996b31560e01b5f9081526001600160a01b0391909116600452602490fd5b3d1561027f576040513d5f823e3d90fd5b63d6bda27560e01b5f5260045ffd5b503d1515806102295750813b151561022956fe6080604052600436106101fe575f3560e01c634f1ef286036101fe573461008d57604036600319011261008d576004356001600160a01b038116810361008d576024359067ffffffffffffffff821161008d573660238301121561008d5781600401359067ffffffffffffffff821161008d57366024838501011161008d57602461008b9301906100a5565b005b5f80fd5b634e487b7160e01b5f52604160045260245ffd5b9091907f00000000000000000000000000000000000000000000000000000000000000006001600160a01b0316330361013a5767ffffffffffffffff82116101355760405191601f8101601f19908116603f0116830167ffffffffffffffff81118482101761013557604052808352368185011161008d576020815f92610133968387013784010152610149565b565b610091565b6334ad5dbb60e21b5f5260045ffd5b90813b156101dd577f360894a13ba1a3210667c828492db98dca3e2076cc3735a920a3ca505d382bbc80546001600160a01b0319166001600160a01b0384169081179091557fbc7cd75a20ee27fd9adebab32041f755214dbc6bffa90cc0225b39da2e5c2d3b5f80a28051156101c5576101c291610247565b50565b5050346101ce57565b63b398979f60e01b5f5260045ffd5b50634c9c8ce360e01b5f9081526001600160a01b0391909116600452602490fd5b7f360894a13ba1a3210667c828492db98dca3e2076cc3735a920a3ca505d382bbc545f9081906001600160a01b0316368280378136915af43d5f803e15610243573d5ff35b3d5ffd5b905f8091602081519101845af480806102ad575b1561026d57505061026a6102c0565b90565b1561028d57639996b31560e01b5f526001600160a01b031660045260245ffd5b3d1561029e576040513d5f823e3d90fd5b63d6bda27560e01b5f5260045ffd5b503d15158061025b5750813b151561025b565b604051903d82523d5f602084013e60203d83010160405256fea264697066735822122057550d48ffa4bff26293d65e98f2652037c81b7b615f2be680c17372b139c47264736f6c63430008230033b53127684a568b3173ae13b9f8a6016e243e63b6e8ee1178d6a717850b5d6103a2646970667358221220b3be676eb1885fbefa041ca0998a2abcfbec252dda91767f416c43db7e03fb2264736f6c63430008230033","linkReferences":{}},"methodIdentifiers":{"blacklist(uint64)":"b572a966","blacklisted(uint64)":"b6caa119","create(uint64,address,bytes)":"3ac04911","entity(uint256)":"b42ba2a2","implementation(uint64)":"f9661602","isEntity(address)":"14887c58","lastVersion()":"64dfea06","migrate(address,uint64,bytes)":"58336662","owner()":"8da5cb5b","renounceOwnership()":"715018a6","totalEntities()":"5cd8b15e","transferOwnership(address)":"f2fde38b","whitelist(address)":"9b19251a"},"id":122}