{"abi":[{"type":"constructor","inputs":[{"name":"owner_","type":"address","internalType":"address"}],"stateMutability":"nonpayable"},{"type":"function","name":"blacklist","inputs":[{"name":"version","type":"uint64","internalType":"uint64"}],"outputs":[],"stateMutability":"nonpayable"},{"type":"function","name":"blacklisted","inputs":[{"name":"version","type":"uint64","internalType":"uint64"}],"outputs":[{"name":"value","type":"bool","internalType":"bool"}],"stateMutability":"view"},{"type":"function","name":"create","inputs":[{"name":"version","type":"uint64","internalType":"uint64"},{"name":"owner_","type":"address","internalType":"address"},{"name":"data","type":"bytes","internalType":"bytes"}],"outputs":[{"name":"entity_","type":"address","internalType":"address"}],"stateMutability":"nonpayable"},{"type":"function","name":"entity","inputs":[{"name":"index","type":"uint256","internalType":"uint256"}],"outputs":[{"name":"","type":"address","internalType":"address"}],"stateMutability":"view"},{"type":"function","name":"implementation","inputs":[{"name":"version","type":"uint64","internalType":"uint64"}],"outputs":[{"name":"","type":"address","internalType":"address"}],"stateMutability":"view"},{"type":"function","name":"isEntity","inputs":[{"name":"entity_","type":"address","internalType":"address"}],"outputs":[{"name":"","type":"bool","internalType":"bool"}],"stateMutability":"view"},{"type":"function","name":"lastVersion","inputs":[],"outputs":[{"name":"","type":"uint64","internalType":"uint64"}],"stateMutability":"view"},{"type":"function","name":"migrate","inputs":[{"name":"entity_","type":"address","internalType":"address"},{"name":"newVersion","type":"uint64","internalType":"uint64"},{"name":"data","type":"bytes","internalType":"bytes"}],"outputs":[],"stateMutability":"nonpayable"},{"type":"function","name":"owner","inputs":[],"outputs":[{"name":"","type":"address","internalType":"address"}],"stateMutability":"view"},{"type":"function","name":"renounceOwnership","inputs":[],"outputs":[],"stateMutability":"nonpayable"},{"type":"function","name":"totalEntities","inputs":[],"outputs":[{"name":"","type":"uint256","internalType":"uint256"}],"stateMutability":"view"},{"type":"function","name":"transferOwnership","inputs":[{"name":"newOwner","type":"address","internalType":"address"}],"outputs":[],"stateMutability":"nonpayable"},{"type":"function","name":"whitelist","inputs":[{"name":"implementation_","type":"address","internalType":"address"}],"outputs":[],"stateMutability":"nonpayable"},{"type":"event","name":"AddEntity","inputs":[{"name":"entity","type":"address","indexed":true,"internalType":"address"}],"anonymous":false},{"type":"event","name":"Blacklist","inputs":[{"name":"version","type":"uint64","indexed":true,"internalType":"uint64"}],"anonymous":false},{"type":"event","name":"Migrate","inputs":[{"name":"entity","type":"address","indexed":true,"internalType":"address"},{"name":"newVersion","type":"uint64","indexed":false,"internalType":"uint64"}],"anonymous":false},{"type":"event","name":"OwnershipTransferred","inputs":[{"name":"previousOwner","type":"address","indexed":true,"internalType":"address"},{"name":"newOwner","type":"address","indexed":true,"internalType":"address"}],"anonymous":false},{"type":"event","name":"Whitelist","inputs":[{"name":"implementation","type":"address","indexed":true,"internalType":"address"}],"anonymous":false},{"type":"error","name":"AlreadyBlacklisted","inputs":[]},{"type":"error","name":"AlreadyWhitelisted","inputs":[]},{"type":"error","name":"EntityNotExist","inputs":[]},{"type":"error","name":"InvalidImplementation","inputs":[]},{"type":"error","name":"InvalidVersion","inputs":[]},{"type":"error","name":"NotOwner","inputs":[]},{"type":"error","name":"OldVersion","inputs":[]},{"type":"error","name":"OwnableInvalidOwner","inputs":[{"name":"owner","type":"address","internalType":"address"}]},{"type":"error","name":"OwnableUnauthorizedAccount","inputs":[{"name":"account","type":"address","internalType":"address"}]}],"bytecode":{"object":"0x60803460b557601f61121538819003918201601f19168301916001600160401b0383118484101760b95780849260209460405283398101031260b557516001600160a01b03908181169081900360b5578015609d57600280546001600160a01b03198116831790915560405192167f8be0079c531659141344cd1fd0a4f28419497f9722a3daafe3b4186f6b6457e05f80a361114790816100ce8239f35b604051631e4fbdf760e01b81525f6004820152602490fd5b5f80fd5b634e487b7160e01b5f52604160045260245ffdfe60406080815260049081361015610014575f80fd5b5f915f3560e01c90816314887c581461084a5781633ac04911146106dc57816358336662146104945781635cd8b15e1461047757816364dfea061461044f578163715018a6146103f25781638da5cb5b146103c95781639b19251a146102e3578163b42ba2a214610273578163b572a966146101b9578163b6caa1191461017c578163f2fde38b146100e8575063f9661602146100af575f80fd5b346100e45760203660031901126100e4576020906100d36100ce6108a3565b610999565b90516001600160a01b039091168152f35b5080fd5b9050346101785760203660031901126101785761010361088d565b9061010c610a0f565b6001600160a01b03918216928315610162575050600254826bffffffffffffffffffffffff60a01b821617600255167f8be0079c531659141344cd1fd0a4f28419497f9722a3daafe3b4186f6b6457e05f80a380f35b51631e4fbdf760e01b8152908101849052602490fd5b8280fd5b5050346100e45760203660031901126100e45760ff8160209367ffffffffffffffff6101a66108a3565b1681526003855220541690519015158152f35b91905034610178576020366003190112610178576101d56108a3565b916101de610a0f565b67ffffffffffffffff809316928315908115610266575b5061025857828452600360205260ff828520541661024a575081835260036020528220805460ff191660011790557ffc8245c2838846b295ae66fbe0d08e20c799b737c93b56f7b209df2e5fa2d4588280a280f35b905163f53de75f60e01b8152fd5b905163a9146eeb60e01b8152fd5b905081541683115f6101f5565b8284346102e05760203660031901126102e0575081355f548110156102cd575f80527f290decd9548b62a8d60345a988386fc84ba6bc95484008f6362f93160ef3e563015490516001600160a01b03909116815260209150f35b603283634e487b7160e01b5f525260245ffd5b80fd5b905034610178576020366003190112610178576102fe61088d565b91610307610a0f565b80516202dd3160ec1b81526001600160a01b03938416936020828581885afa9182156103bf57869261038e575b50309116036103815761034683610af2565b156103745750507feb73900b98b6a3e2b8b01708fe544760cf570d21e7fbe5225f24e48b5b2b432e8280a280f35b5163b73e95e160e01b8152fd5b5163340aafcd60e11b8152fd5b6103b191925060203d6020116103b8575b6103a98183610908565b81019061097a565b905f610334565b503d61039f565b83513d88823e3d90fd5b5050346100e457816003193601126100e45760025490516001600160a01b039091168152602090f35b83346102e057806003193601126102e05761040b610a0f565b600280546001600160a01b031981169091555f906001600160a01b03167f8be0079c531659141344cd1fd0a4f28419497f9722a3daafe3b4186f6b6457e08280a380f35b8284346102e057806003193601126102e0575067ffffffffffffffff60209254169051908152f35b5050346100e457816003193601126100e457602091549051908152f35b83833461063d57606036600319011261063d576104af61088d565b6024359167ffffffffffffffff908184169182850361063d5760443581811161063d576104df90369089016108ba565b6001600160a01b039586165f81815260016020526040902054909792939290156106cc578451638da5cb5b60e01b81526020979088818d818d5afa9081156106c2575f916106a5575b5016330361069557845163054fd4d560e41b815287818c818c5afa90811561068b579084915f91610651575b5016861115610641576105696105a291610999565b916105948651958692630557c60960e31b8b85015289602485015288604485015260648401916108e8565b03601f198101855284610908565b863b1561063d57835163278f794360e11b8152925f91849182916105c991908d840161093e565b0381838a5af1801561063357610607575b5050519081527fb91c18bf7dbfdff96560fb98128531c4c6187079fe0bd7f24a81f54ea87f35a79190a280f35b9080929650116106205784529293505f928486806105da565b604186634e487b7160e01b5f525260245ffd5b83513d5f823e3d90fd5b5f80fd5b8451630384ebd960e41b81528a90fd5b809250898092503d8311610684575b61066a8183610908565b8101031261063d5751838116810361063d5783908c610554565b503d610660565b86513d5f823e3d90fd5b84516330cd747160e01b81528a90fd5b6106bc9150893d8b116103b8576103a98183610908565b8c610528565b87513d5f823e3d90fd5b845163e3fd10ff60e01b81528a90fd5b823461063d57606036600319011261063d576106f66108a3565b6001600160a01b03926024358481169081900361063d5760443567ffffffffffffffff80821161063d576107306107bf92369086016108ba565b92905f546107b389519260208401928352610785868b1693848d8701528960608701526080808701528561076860a082018b866108e8565b039561077c601f1997888101835282610908565b5190209a610999565b968b519889946315fb20f360e21b6020870152602486015260448501526060606485015260848401916108e8565b03908101855284610908565b8551936105c39081860192868410908411176108375750918493916107e893610b4f863961093e565b03905ff591821561082d57602092169061080182610a84565b505190807fb919910dcefbf753bfd926ab3b1d3f85d877190c3d01ba1bd585047b99b99f0b5f80a28152f35b50513d5f823e3d90fd5b604190634e487b7160e01b5f525260245ffd5b823461063d57602036600319011261063d576020906108846001600160a01b0361087261088d565b165f52600160205260405f2054151590565b90519015158152f35b600435906001600160a01b038216820361063d57565b6004359067ffffffffffffffff8216820361063d57565b9181601f8401121561063d5782359167ffffffffffffffff831161063d576020838186019501011161063d57565b908060209392818452848401375f828201840152601f01601f1916010190565b90601f8019910116810190811067ffffffffffffffff82111761092a57604052565b634e487b7160e01b5f52604160045260245ffd5b6001600160a01b0390911681526040602080830182905283519183018290526060938291018484015e5f828201840152601f01601f1916010190565b9081602091031261063d57516001600160a01b038116810361063d5790565b67ffffffffffffffff80911680158015610a02575b6109f0575f1901908082116109dc576109c79116610a3b565b905460039190911b1c6001600160a01b031690565b634e487b7160e01b5f52601160045260245ffd5b60405163a9146eeb60e01b8152600490fd5b50816004541681116109ae565b6002546001600160a01b03163303610a2357565b60405163118cdaa760e01b8152336004820152602490fd5b600454811015610a705760045f527f8a35acfbc15ff81a39ae7d344fd709f28e8600b4aa8c65c6b64bfe7fe36bd19b01905f90565b634e487b7160e01b5f52603260045260245ffd5b805f52600160205260405f2054155f14610aed575f54600160401b81101561092a5760018101805f55811015610a705781907f290decd9548b62a8d60345a988386fc84ba6bc95484008f6362f93160ef3e56301555f54905f52600160205260405f2055600190565b505f90565b805f52600560205260405f2054155f14610aed57600454600160401b81101561092a57806001610b259201600455610a3b565b81549060031b9083821b915f19901b1916179055600454905f52600560205260405f205560019056fe604060a08152346101df576105c38038038061001a816101e3565b92833981019082818303126101df5780516001600160a01b0392838216918281036101df5760208481015190946001600160401b0382116101df570182601f820112156101df57805161007461006f8261021c565b6101e3565b91818352868301948783830101116101df57815f9288809301875e83010152813b156101c7577f360894a13ba1a3210667c828492db98dca3e2076cc3735a920a3ca505d382bbc80546001600160a01b03199081168617909155937fbc7cd75a20ee27fd9adebab32041f755214dbc6bffa90cc0225b39da2e5c2d3b5f80a25180156101bf575f809161012694845af43d156101b7573d9161011861006f8461021c565b9283523d5f8785013e610237565b505b336080527f7e644d79422f17c01e4894b5f4f588d331ebfa28653d42ae832dc59e38c9798f847fb53127684a568b3173ae13b9f8a6016e243e63b6e8ee1178d6a717850b5d610394855494825191861682523390820152a133156101a057163317905551610328908161029b82396080518160f10152f35b8351633173bdd160e11b81525f6004820152602490fd5b606091610237565b505050610128565b8651634c9c8ce360e01b815260048101859052602490fd5b5f80fd5b6040519190601f01601f191682016001600160401b0381118382101761020857604052565b634e487b7160e01b5f52604160045260245ffd5b6001600160401b03811161020857601f01601f191660200190565b9061025e575080511561024c57805190602001fd5b604051630a12f52160e11b8152600490fd5b81511580610291575b61026f575090565b604051639996b31560e01b81526001600160a01b039091166004820152602490fd5b50803b1561026756fe6080604052600436106101f4575f3560e01c634f1ef286036101f45734610086576040366003190112610086576004356001600160a01b0381168103610086576024359067ffffffffffffffff9081831161008657366023840112156100865782600401359182116100865736602483850101116100865760246100849301906100e5565b005b5f80fd5b634e487b7160e01b5f52604160045260245ffd5b6040519190601f01601f1916820167ffffffffffffffff8111838210176100c457604052565b61008a565b67ffffffffffffffff81116100c457601f01601f191660200190565b916001600160a01b03907f0000000000000000000000000000000000000000000000000000000000000000821633036101e257610129610124826100c9565b61009e565b92818452368282011161008657815f926020928387013784010152823b156101c85782167f360894a13ba1a3210667c828492db98dca3e2076cc3735a920a3ca505d382bbc816bffffffffffffffffffffffff60a01b8254161790557fbc7cd75a20ee27fd9adebab32041f755214dbc6bffa90cc0225b39da2e5c2d3b5f80a28051156101bc576101b991610256565b50565b50506101c661023d565b565b604051634c9c8ce360e01b81529083166004820152602490fd5b6040516334ad5dbb60e21b8152600490fd5b7f360894a13ba1a3210667c828492db98dca3e2076cc3735a920a3ca505d382bbc545f9081906001600160a01b0316368280378136915af43d5f803e15610239573d5ff35b3d5ffd5b3461024457565b60405163b398979f60e01b8152600490fd5b5f8061028893602081519101845af43d1561028b573d91610279610124846100c9565b9283523d5f602085013e61028f565b90565b6060915b906102b657508051156102a457805190602001fd5b604051630a12f52160e11b8152600490fd5b815115806102e9575b6102c7575090565b604051639996b31560e01b81526001600160a01b039091166004820152602490fd5b50803b156102bf56fea264697066735822122028e25eef202279b950fae0b3b6144d4d7a8824832024cb7fc76ff5455d7c319964736f6c63430008190033a264697066735822122044a749ed3b4cc7533f65daf7149d976a000661a24fc7eadbf8ace3eef7a619fb64736f6c63430008190033","linkReferences":{}},"methodIdentifiers":{"blacklist(uint64)":"b572a966","blacklisted(uint64)":"b6caa119","create(uint64,address,bytes)":"3ac04911","entity(uint256)":"b42ba2a2","implementation(uint64)":"f9661602","isEntity(address)":"14887c58","lastVersion()":"64dfea06","migrate(address,uint64,bytes)":"58336662","owner()":"8da5cb5b","renounceOwnership()":"715018a6","totalEntities()":"5cd8b15e","transferOwnership(address)":"f2fde38b","whitelist(address)":"9b19251a"},"id":68}