{"abi":[{"type":"constructor","inputs":[{"name":"delegatorFactory","type":"address","internalType":"address"},{"name":"slasherFactory","type":"address","internalType":"address"},{"name":"vaultFactory","type":"address","internalType":"address"}],"stateMutability":"nonpayable"},{"type":"function","name":"DEFAULT_ADMIN_ROLE","inputs":[],"outputs":[{"name":"","type":"bytes32","internalType":"bytes32"}],"stateMutability":"view"},{"type":"function","name":"DELEGATOR_FACTORY","inputs":[],"outputs":[{"name":"","type":"address","internalType":"address"}],"stateMutability":"view"},{"type":"function","name":"DEPOSITOR_WHITELIST_ROLE","inputs":[],"outputs":[{"name":"","type":"bytes32","internalType":"bytes32"}],"stateMutability":"view"},{"type":"function","name":"DEPOSIT_LIMIT_SET_ROLE","inputs":[],"outputs":[{"name":"","type":"bytes32","internalType":"bytes32"}],"stateMutability":"view"},{"type":"function","name":"DEPOSIT_WHITELIST_SET_ROLE","inputs":[],"outputs":[{"name":"","type":"bytes32","internalType":"bytes32"}],"stateMutability":"view"},{"type":"function","name":"FACTORY","inputs":[],"outputs":[{"name":"","type":"address","internalType":"address"}],"stateMutability":"view"},{"type":"function","name":"IS_DEPOSIT_LIMIT_SET_ROLE","inputs":[],"outputs":[{"name":"","type":"bytes32","internalType":"bytes32"}],"stateMutability":"view"},{"type":"function","name":"SLASHER_FACTORY","inputs":[],"outputs":[{"name":"","type":"address","internalType":"address"}],"stateMutability":"view"},{"type":"function","name":"activeBalanceOf","inputs":[{"name":"account","type":"address","internalType":"address"}],"outputs":[{"name":"","type":"uint256","internalType":"uint256"}],"stateMutability":"view"},{"type":"function","name":"activeBalanceOfAt","inputs":[{"name":"account","type":"address","internalType":"address"},{"name":"timestamp","type":"uint48","internalType":"uint48"},{"name":"hints","type":"bytes","internalType":"bytes"}],"outputs":[{"name":"","type":"uint256","internalType":"uint256"}],"stateMutability":"view"},{"type":"function","name":"activeShares","inputs":[],"outputs":[{"name":"","type":"uint256","internalType":"uint256"}],"stateMutability":"view"},{"type":"function","name":"activeSharesAt","inputs":[{"name":"timestamp","type":"uint48","internalType":"uint48"},{"name":"hint","type":"bytes","internalType":"bytes"}],"outputs":[{"name":"","type":"uint256","internalType":"uint256"}],"stateMutability":"view"},{"type":"function","name":"activeSharesOf","inputs":[{"name":"account","type":"address","internalType":"address"}],"outputs":[{"name":"","type":"uint256","internalType":"uint256"}],"stateMutability":"view"},{"type":"function","name":"activeSharesOfAt","inputs":[{"name":"account","type":"address","internalType":"address"},{"name":"timestamp","type":"uint48","internalType":"uint48"},{"name":"hint","type":"bytes","internalType":"bytes"}],"outputs":[{"name":"","type":"uint256","internalType":"uint256"}],"stateMutability":"view"},{"type":"function","name":"activeStake","inputs":[],"outputs":[{"name":"","type":"uint256","internalType":"uint256"}],"stateMutability":"view"},{"type":"function","name":"activeStakeAt","inputs":[{"name":"timestamp","type":"uint48","internalType":"uint48"},{"name":"hint","type":"bytes","internalType":"bytes"}],"outputs":[{"name":"","type":"uint256","internalType":"uint256"}],"stateMutability":"view"},{"type":"function","name":"burner","inputs":[],"outputs":[{"name":"","type":"address","internalType":"address"}],"stateMutability":"view"},{"type":"function","name":"claim","inputs":[{"name":"recipient","type":"address","internalType":"address"},{"name":"epoch","type":"uint256","internalType":"uint256"}],"outputs":[{"name":"amount","type":"uint256","internalType":"uint256"}],"stateMutability":"nonpayable"},{"type":"function","name":"claimBatch","inputs":[{"name":"recipient","type":"address","internalType":"address"},{"name":"epochs","type":"uint256[]","internalType":"uint256[]"}],"outputs":[{"name":"amount","type":"uint256","internalType":"uint256"}],"stateMutability":"nonpayable"},{"type":"function","name":"collateral","inputs":[],"outputs":[{"name":"","type":"address","internalType":"address"}],"stateMutability":"view"},{"type":"function","name":"currentEpoch","inputs":[],"outputs":[{"name":"","type":"uint256","internalType":"uint256"}],"stateMutability":"view"},{"type":"function","name":"currentEpochStart","inputs":[],"outputs":[{"name":"","type":"uint48","internalType":"uint48"}],"stateMutability":"view"},{"type":"function","name":"delegator","inputs":[],"outputs":[{"name":"","type":"address","internalType":"address"}],"stateMutability":"view"},{"type":"function","name":"deposit","inputs":[{"name":"onBehalfOf","type":"address","internalType":"address"},{"name":"amount","type":"uint256","internalType":"uint256"}],"outputs":[{"name":"depositedAmount","type":"uint256","internalType":"uint256"},{"name":"mintedShares","type":"uint256","internalType":"uint256"}],"stateMutability":"nonpayable"},{"type":"function","name":"depositLimit","inputs":[],"outputs":[{"name":"","type":"uint256","internalType":"uint256"}],"stateMutability":"view"},{"type":"function","name":"depositWhitelist","inputs":[],"outputs":[{"name":"","type":"bool","internalType":"bool"}],"stateMutability":"view"},{"type":"function","name":"epochAt","inputs":[{"name":"timestamp","type":"uint48","internalType":"uint48"}],"outputs":[{"name":"","type":"uint256","internalType":"uint256"}],"stateMutability":"view"},{"type":"function","name":"epochDuration","inputs":[],"outputs":[{"name":"","type":"uint48","internalType":"uint48"}],"stateMutability":"view"},{"type":"function","name":"epochDurationInit","inputs":[],"outputs":[{"name":"","type":"uint48","internalType":"uint48"}],"stateMutability":"view"},{"type":"function","name":"getRoleAdmin","inputs":[{"name":"role","type":"bytes32","internalType":"bytes32"}],"outputs":[{"name":"","type":"bytes32","internalType":"bytes32"}],"stateMutability":"view"},{"type":"function","name":"grantRole","inputs":[{"name":"role","type":"bytes32","internalType":"bytes32"},{"name":"account","type":"address","internalType":"address"}],"outputs":[],"stateMutability":"nonpayable"},{"type":"function","name":"hasRole","inputs":[{"name":"role","type":"bytes32","internalType":"bytes32"},{"name":"account","type":"address","internalType":"address"}],"outputs":[{"name":"","type":"bool","internalType":"bool"}],"stateMutability":"view"},{"type":"function","name":"initialize","inputs":[{"name":"initialVersion","type":"uint64","internalType":"uint64"},{"name":"owner_","type":"address","internalType":"address"},{"name":"data","type":"bytes","internalType":"bytes"}],"outputs":[],"stateMutability":"nonpayable"},{"type":"function","name":"isDelegatorInitialized","inputs":[],"outputs":[{"name":"","type":"bool","internalType":"bool"}],"stateMutability":"view"},{"type":"function","name":"isDepositLimit","inputs":[],"outputs":[{"name":"","type":"bool","internalType":"bool"}],"stateMutability":"view"},{"type":"function","name":"isDepositorWhitelisted","inputs":[{"name":"account","type":"address","internalType":"address"}],"outputs":[{"name":"value","type":"bool","internalType":"bool"}],"stateMutability":"view"},{"type":"function","name":"isInitialized","inputs":[],"outputs":[{"name":"","type":"bool","internalType":"bool"}],"stateMutability":"view"},{"type":"function","name":"isSlasherInitialized","inputs":[],"outputs":[{"name":"","type":"bool","internalType":"bool"}],"stateMutability":"view"},{"type":"function","name":"isWithdrawalsClaimed","inputs":[{"name":"epoch","type":"uint256","internalType":"uint256"},{"name":"account","type":"address","internalType":"address"}],"outputs":[{"name":"value","type":"bool","internalType":"bool"}],"stateMutability":"view"},{"type":"function","name":"migrate","inputs":[{"name":"newVersion","type":"uint64","internalType":"uint64"},{"name":"data","type":"bytes","internalType":"bytes"}],"outputs":[],"stateMutability":"nonpayable"},{"type":"function","name":"nextEpochStart","inputs":[],"outputs":[{"name":"","type":"uint48","internalType":"uint48"}],"stateMutability":"view"},{"type":"function","name":"onSlash","inputs":[{"name":"amount","type":"uint256","internalType":"uint256"},{"name":"captureTimestamp","type":"uint48","internalType":"uint48"}],"outputs":[{"name":"slashedAmount","type":"uint256","internalType":"uint256"}],"stateMutability":"nonpayable"},{"type":"function","name":"owner","inputs":[],"outputs":[{"name":"","type":"address","internalType":"address"}],"stateMutability":"view"},{"type":"function","name":"previousEpochStart","inputs":[],"outputs":[{"name":"","type":"uint48","internalType":"uint48"}],"stateMutability":"view"},{"type":"function","name":"redeem","inputs":[{"name":"claimer","type":"address","internalType":"address"},{"name":"shares","type":"uint256","internalType":"uint256"}],"outputs":[{"name":"withdrawnAssets","type":"uint256","internalType":"uint256"},{"name":"mintedShares","type":"uint256","internalType":"uint256"}],"stateMutability":"nonpayable"},{"type":"function","name":"renounceOwnership","inputs":[],"outputs":[],"stateMutability":"nonpayable"},{"type":"function","name":"renounceRole","inputs":[{"name":"role","type":"bytes32","internalType":"bytes32"},{"name":"callerConfirmation","type":"address","internalType":"address"}],"outputs":[],"stateMutability":"nonpayable"},{"type":"function","name":"revokeRole","inputs":[{"name":"role","type":"bytes32","internalType":"bytes32"},{"name":"account","type":"address","internalType":"address"}],"outputs":[],"stateMutability":"nonpayable"},{"type":"function","name":"setDelegator","inputs":[{"name":"delegator_","type":"address","internalType":"address"}],"outputs":[],"stateMutability":"nonpayable"},{"type":"function","name":"setDepositLimit","inputs":[{"name":"limit","type":"uint256","internalType":"uint256"}],"outputs":[],"stateMutability":"nonpayable"},{"type":"function","name":"setDepositWhitelist","inputs":[{"name":"status","type":"bool","internalType":"bool"}],"outputs":[],"stateMutability":"nonpayable"},{"type":"function","name":"setDepositorWhitelistStatus","inputs":[{"name":"account","type":"address","internalType":"address"},{"name":"status","type":"bool","internalType":"bool"}],"outputs":[],"stateMutability":"nonpayable"},{"type":"function","name":"setIsDepositLimit","inputs":[{"name":"status","type":"bool","internalType":"bool"}],"outputs":[],"stateMutability":"nonpayable"},{"type":"function","name":"setSlasher","inputs":[{"name":"slasher_","type":"address","internalType":"address"}],"outputs":[],"stateMutability":"nonpayable"},{"type":"function","name":"slashableBalanceOf","inputs":[{"name":"account","type":"address","internalType":"address"}],"outputs":[{"name":"","type":"uint256","internalType":"uint256"}],"stateMutability":"view"},{"type":"function","name":"slasher","inputs":[],"outputs":[{"name":"","type":"address","internalType":"address"}],"stateMutability":"view"},{"type":"function","name":"staticDelegateCall","inputs":[{"name":"target","type":"address","internalType":"address"},{"name":"data","type":"bytes","internalType":"bytes"}],"outputs":[],"stateMutability":"nonpayable"},{"type":"function","name":"supportsInterface","inputs":[{"name":"interfaceId","type":"bytes4","internalType":"bytes4"}],"outputs":[{"name":"","type":"bool","internalType":"bool"}],"stateMutability":"view"},{"type":"function","name":"totalStake","inputs":[],"outputs":[{"name":"","type":"uint256","internalType":"uint256"}],"stateMutability":"view"},{"type":"function","name":"transferOwnership","inputs":[{"name":"newOwner","type":"address","internalType":"address"}],"outputs":[],"stateMutability":"nonpayable"},{"type":"function","name":"version","inputs":[],"outputs":[{"name":"","type":"uint64","internalType":"uint64"}],"stateMutability":"view"},{"type":"function","name":"withdraw","inputs":[{"name":"claimer","type":"address","internalType":"address"},{"name":"amount","type":"uint256","internalType":"uint256"}],"outputs":[{"name":"burnedShares","type":"uint256","internalType":"uint256"},{"name":"mintedShares","type":"uint256","internalType":"uint256"}],"stateMutability":"nonpayable"},{"type":"function","name":"withdrawalShares","inputs":[{"name":"epoch","type":"uint256","internalType":"uint256"}],"outputs":[{"name":"amount","type":"uint256","internalType":"uint256"}],"stateMutability":"view"},{"type":"function","name":"withdrawalSharesOf","inputs":[{"name":"epoch","type":"uint256","internalType":"uint256"},{"name":"account","type":"address","internalType":"address"}],"outputs":[{"name":"amount","type":"uint256","internalType":"uint256"}],"stateMutability":"view"},{"type":"function","name":"withdrawals","inputs":[{"name":"epoch","type":"uint256","internalType":"uint256"}],"outputs":[{"name":"amount","type":"uint256","internalType":"uint256"}],"stateMutability":"view"},{"type":"function","name":"withdrawalsOf","inputs":[{"name":"epoch","type":"uint256","internalType":"uint256"},{"name":"account","type":"address","internalType":"address"}],"outputs":[{"name":"","type":"uint256","internalType":"uint256"}],"stateMutability":"view"},{"type":"event","name":"Claim","inputs":[{"name":"claimer","type":"address","indexed":true,"internalType":"address"},{"name":"recipient","type":"address","indexed":true,"internalType":"address"},{"name":"epoch","type":"uint256","indexed":false,"internalType":"uint256"},{"name":"amount","type":"uint256","indexed":false,"internalType":"uint256"}],"anonymous":false},{"type":"event","name":"ClaimBatch","inputs":[{"name":"claimer","type":"address","indexed":true,"internalType":"address"},{"name":"recipient","type":"address","indexed":true,"internalType":"address"},{"name":"epochs","type":"uint256[]","indexed":false,"internalType":"uint256[]"},{"name":"amount","type":"uint256","indexed":false,"internalType":"uint256"}],"anonymous":false},{"type":"event","name":"Deposit","inputs":[{"name":"depositor","type":"address","indexed":true,"internalType":"address"},{"name":"onBehalfOf","type":"address","indexed":true,"internalType":"address"},{"name":"amount","type":"uint256","indexed":false,"internalType":"uint256"},{"name":"shares","type":"uint256","indexed":false,"internalType":"uint256"}],"anonymous":false},{"type":"event","name":"Initialized","inputs":[{"name":"version","type":"uint64","indexed":false,"internalType":"uint64"}],"anonymous":false},{"type":"event","name":"OnSlash","inputs":[{"name":"amount","type":"uint256","indexed":false,"internalType":"uint256"},{"name":"captureTimestamp","type":"uint48","indexed":false,"internalType":"uint48"},{"name":"slashedAmount","type":"uint256","indexed":false,"internalType":"uint256"}],"anonymous":false},{"type":"event","name":"OwnershipTransferred","inputs":[{"name":"previousOwner","type":"address","indexed":true,"internalType":"address"},{"name":"newOwner","type":"address","indexed":true,"internalType":"address"}],"anonymous":false},{"type":"event","name":"RoleAdminChanged","inputs":[{"name":"role","type":"bytes32","indexed":true,"internalType":"bytes32"},{"name":"previousAdminRole","type":"bytes32","indexed":true,"internalType":"bytes32"},{"name":"newAdminRole","type":"bytes32","indexed":true,"internalType":"bytes32"}],"anonymous":false},{"type":"event","name":"RoleGranted","inputs":[{"name":"role","type":"bytes32","indexed":true,"internalType":"bytes32"},{"name":"account","type":"address","indexed":true,"internalType":"address"},{"name":"sender","type":"address","indexed":true,"internalType":"address"}],"anonymous":false},{"type":"event","name":"RoleRevoked","inputs":[{"name":"role","type":"bytes32","indexed":true,"internalType":"bytes32"},{"name":"account","type":"address","indexed":true,"internalType":"address"},{"name":"sender","type":"address","indexed":true,"internalType":"address"}],"anonymous":false},{"type":"event","name":"SetDelegator","inputs":[{"name":"delegator","type":"address","indexed":true,"internalType":"address"}],"anonymous":false},{"type":"event","name":"SetDepositLimit","inputs":[{"name":"limit","type":"uint256","indexed":false,"internalType":"uint256"}],"anonymous":false},{"type":"event","name":"SetDepositWhitelist","inputs":[{"name":"status","type":"bool","indexed":false,"internalType":"bool"}],"anonymous":false},{"type":"event","name":"SetDepositorWhitelistStatus","inputs":[{"name":"account","type":"address","indexed":true,"internalType":"address"},{"name":"status","type":"bool","indexed":false,"internalType":"bool"}],"anonymous":false},{"type":"event","name":"SetIsDepositLimit","inputs":[{"name":"status","type":"bool","indexed":false,"internalType":"bool"}],"anonymous":false},{"type":"event","name":"SetSlasher","inputs":[{"name":"slasher","type":"address","indexed":true,"internalType":"address"}],"anonymous":false},{"type":"event","name":"Withdraw","inputs":[{"name":"withdrawer","type":"address","indexed":true,"internalType":"address"},{"name":"claimer","type":"address","indexed":true,"internalType":"address"},{"name":"amount","type":"uint256","indexed":false,"internalType":"uint256"},{"name":"burnedShares","type":"uint256","indexed":false,"internalType":"uint256"},{"name":"mintedShares","type":"uint256","indexed":false,"internalType":"uint256"}],"anonymous":false},{"type":"error","name":"AccessControlBadConfirmation","inputs":[]},{"type":"error","name":"AccessControlUnauthorizedAccount","inputs":[{"name":"account","type":"address","internalType":"address"},{"name":"neededRole","type":"bytes32","internalType":"bytes32"}]},{"type":"error","name":"AlreadyClaimed","inputs":[]},{"type":"error","name":"AlreadyInitialized","inputs":[]},{"type":"error","name":"AlreadySet","inputs":[]},{"type":"error","name":"CheckpointUnorderedInsertion","inputs":[]},{"type":"error","name":"DelegatorAlreadyInitialized","inputs":[]},{"type":"error","name":"DepositLimitReached","inputs":[]},{"type":"error","name":"InsufficientClaim","inputs":[]},{"type":"error","name":"InsufficientDeposit","inputs":[]},{"type":"error","name":"InsufficientRedemption","inputs":[]},{"type":"error","name":"InsufficientWithdrawal","inputs":[]},{"type":"error","name":"InvalidAccount","inputs":[]},{"type":"error","name":"InvalidCaptureEpoch","inputs":[]},{"type":"error","name":"InvalidClaimer","inputs":[]},{"type":"error","name":"InvalidCollateral","inputs":[]},{"type":"error","name":"InvalidDelegator","inputs":[]},{"type":"error","name":"InvalidEpoch","inputs":[]},{"type":"error","name":"InvalidEpochDuration","inputs":[]},{"type":"error","name":"InvalidInitialization","inputs":[]},{"type":"error","name":"InvalidLengthEpochs","inputs":[]},{"type":"error","name":"InvalidOnBehalfOf","inputs":[]},{"type":"error","name":"InvalidRecipient","inputs":[]},{"type":"error","name":"InvalidSlasher","inputs":[]},{"type":"error","name":"InvalidTimestamp","inputs":[]},{"type":"error","name":"MissingRoles","inputs":[]},{"type":"error","name":"NoPreviousEpoch","inputs":[]},{"type":"error","name":"NotDelegator","inputs":[]},{"type":"error","name":"NotFactory","inputs":[]},{"type":"error","name":"NotInitialized","inputs":[]},{"type":"error","name":"NotInitializing","inputs":[]},{"type":"error","name":"NotSlasher","inputs":[]},{"type":"error","name":"NotWhitelistedDepositor","inputs":[]},{"type":"error","name":"OwnableInvalidOwner","inputs":[{"name":"owner","type":"address","internalType":"address"}]},{"type":"error","name":"OwnableUnauthorizedAccount","inputs":[{"name":"account","type":"address","internalType":"address"}]},{"type":"error","name":"ReentrancyGuardReentrantCall","inputs":[]},{"type":"error","name":"SafeCastOverflowedUintDowncast","inputs":[{"name":"bits","type":"uint8","internalType":"uint8"},{"name":"value","type":"uint256","internalType":"uint256"}]},{"type":"error","name":"SafeERC20FailedOperation","inputs":[{"name":"token","type":"address","internalType":"address"}]},{"type":"error","name":"SlasherAlreadyInitialized","inputs":[]},{"type":"error","name":"TooMuchRedeem","inputs":[]},{"type":"error","name":"TooMuchWithdraw","inputs":[]}],"bytecode":{"object":"0x60e03461016657601f61461b38819003918201601f19168301916001600160401b0383118484101761016a57808492606094604052833981010312610166576100478161017e565b9061006060406100596020840161017e565b920161017e565b9160017f9b779b17422d0df92223018b32b4d1fa46e071723d6817e2486d003becc55f005560805260a0525f5160206145fb5f395f51905f525460ff8160401c16610157576002600160401b03196001600160401b03821601610101575b5060c052604051614468908161019382396080518181816111b101526116d7015260a0518181816118590152611d37015260c05181818161077001526109900152f35b6001600160401b0319166001600160401b039081175f5160206145fb5f395f51905f52556040519081527fc7f505b2f371ae2175ee4913f4499e1f2633a7b5936321eed1cdaeb6115181d290602090a15f6100be565b63f92ee8a960e01b5f5260045ffd5b5f80fd5b634e487b7160e01b5f52604160045260245ffd5b51906001600160a01b03821682036101665756fe60806040526004361015610011575f80fd5b5f3560e01c806301ffc9a7146104345780631415519b1461042f5780631b66c9e11461042a5780631e9a695014610425578063248a9ca31461042057806327810b6e1461041b578063281f5752146104165780632abe3048146104115780632d73c69c1461040c5780632dd31000146104075780632f2ff15d1461040257806336568abe146103fd578063392e53cd146103f85780634105a7dd146103f357806346361671146103ee57806347e7ef24146103e957806348d3b775146103e45780634ff0876a146103df57806350861adc146103da57806350f22068146103d55780635346e34f146103d057806354fd4d50146103cb57806357ec83cc146103c657806359f769a9146103c15780635cc07076146103bc57806361a8c8c4146103b75780636da3e06d146103b25780636ec1e3f8146103ad578063715018a6146103a85780637278e31c146103a357806373790ab31461039e5780637667180814610399578063794b15b7146103945780637953b33b1461038f5780637c04c80a1461038a578063810da75d1461038557806383cd9cc31461038057806387df07881461037b5780638b0e9f3f146103765780638da5cb5b1461037157806391d148541461036c5780639d66201b146103675780639f86fd8514610362578063a1b122021461035d578063a217fddf14610358578063a21a1df914610353578063a28614661461034e578063a3b5417214610349578063a5d0322314610344578063aabc24961461033f578063aad3ec961461033a578063afba70ad14610335578063b134427114610330578063bd49c35f1461032b578063bdc8144b14610326578063bfefcd7b14610321578063c31e8dd71461031c578063ce9b793014610317578063d547741f14610312578063d8dfeb451461030d578063db38871514610308578063ecf7085814610303578063efb559d6146102fe578063f2fde38b146102f9578063f3fef3a3146102f45763f5e7ee0f146102ef575f80fd5b6123d4565b612339565b61230c565b6121ab565b61218e565b612154565b612129565b6120dc565b6120b4565b61204a565b612030565b611f5c565b611f42565b611f1a565b611ef0565b611e2c565b611c7e565b611c38565b611beb565b611b06565b611acc565b611ab2565b611a8e565b6119b6565b61197c565b61191e565b6118ea565b611888565b611844565b61167d565b611664565b6115f8565b6115d1565b611591565b611577565b611537565b61126c565b611205565b6111e0565b61119c565b611143565b611119565b6110f2565b610faa565b610f78565b610ee6565b610ecd565b610e70565b610e50565b610e2f565b610b60565b610b38565b610aa0565b610a5b565b610a13565b6109bf565b61097b565b61090f565b61072c565b61066e565b610646565b610607565b610513565b6104c8565b61048e565b3461048a57602036600319011261048a5760043563ffffffff60e01b811680910361048a57602090637965db0b60e01b8114908115610479575b506040519015158152f35b6301ffc9a760e01b1490505f61046e565b5f80fd5b3461048a575f36600319011261048a5760206040517fc6aaadd7371d5e8f9ed6849dd66a66573a3ba37167d03f4352c9ba5693678fac8152f35b3461048a575f36600319011261048a5760206040517f9c56d972d63cbb4195b3c1484691dfc220fa96a4c47e7b6613bd82a022029e068152f35b6001600160a01b0381160361048a57565b3461048a57604036600319011261048a5760043561053081610502565b6024359061053c612c13565b6001600160a01b038116156105f957335f52600e60205261055f60405f20613dea565b82116105ea5761056d613cdc565b610575613d63565b600182018092116105e557600181018091116105e5576105959184613b68565b9182156105d657826105a692612c4b565b906105bd60015f5160206143f35f395f51905f5255565b60408051918252602082019290925290819081015b0390f35b637fba223960e11b5f5260045ffd5b6123fe565b632418411f60e11b5f5260045ffd5b6208978560e71b5f5260045ffd5b3461048a57602036600319011261048a57602061063e6004355f525f5160206143d35f395f51905f52602052600160405f20015490565b604051908152f35b3461048a575f36600319011261048a576001546040516001600160a01b039091168152602090f35b3461048a575f36600319011261048a5761068661296c565b80156106da5760015465ffffffffffff8160a01c16915f1981019081116105e5576106b49160d01c9061242d565b81018091116105e5576106c690612dc5565b60405165ffffffffffff9091168152602090f35b639fa56a5b60e01b5f5260045ffd5b600435906001600160401b038216820361048a57565b9181601f8401121561048a578235916001600160401b03831161048a576020838186019501011161048a57565b3461048a57604036600319011261048a576107456106e9565b6024356001600160401b03811161048a576107649036906004016106ff565b505061076e612c13565b7f00000000000000000000000000000000000000000000000000000000000000006001600160a01b031633036107f0575f5160206144135f395f51905f525460ff8160401c169081156107d9575b506107ca5761048a90612496565b63f92ee8a960e01b5f5260045ffd5b90506001600160401b03808316911610155f6107bc565b631966391b60e11b5f5260045ffd5b65ffffffffffff81160361048a57565b634e487b7160e01b5f52604160045260245ffd5b606081019081106001600160401b0382111761083e57604052565b61080f565b604081019081106001600160401b0382111761083e57604052565b90601f801991011681019081106001600160401b0382111761083e57604052565b6040519061088f6101608361085e565b565b6040519061088f60408361085e565b6001600160401b03811161083e57601f01601f191660200190565b9291926108c7826108a0565b916108d5604051938461085e565b82948184528183011161048a578281602093845f960137010152565b9080601f8301121561048a5781602061090c933591016108bb565b90565b3461048a57606036600319011261048a5760043561092c81610502565b60243590610939826107ff565b604435906001600160401b03821161048a5760209261095f61063e9336906004016108f1565b6001600160a01b039092165f908152600e855260409020612fe0565b3461048a575f36600319011261048a576040517f00000000000000000000000000000000000000000000000000000000000000006001600160a01b03168152602090f35b3461048a57604036600319011261048a57610a116024356004356109e282610502565b610a0c610a07825f525f5160206143d35f395f51905f52602052600160405f20015490565b613208565b6135ee565b005b3461048a57604036600319011261048a57600435602435610a3381610502565b336001600160a01b03821603610a4c57610a1191613683565b63334bd91960e11b5f5260045ffd5b3461048a575f36600319011261048a5760ff60025460a01c1680610a87575b6020906040519015158152f35b5060035460a01c60ff16610a7a565b8015150361048a57565b3461048a57602036600319011261048a57600435610abd81610a96565b610ac5612c13565b610acd6130bb565b5f54901515908160ff8216151514610b295760ff191660ff8216175f556040519081527f3e12b7b36c75ac9609a3f58609b331210428e1a85909132638955ba0301eec3390602090a160015f5160206143f35f395f51905f5255005b63a741a04560e01b5f5260045ffd5b3461048a575f36600319011261048a57602065ffffffffffff60015460a01c16604051908152f35b3461048a57604036600319011261048a57600435610b7d81610502565b602435610b88612c13565b6001600160a01b0382168015610e20575f5460ff811680610e07575b610df857610bc59060101c6001600160a01b03165b6001600160a01b031690565b6040516370a0823160e01b815230600482015292906020846024816001600160a01b0385165afa938415610dcc575f94610dd1575b5090610c099130903390613723565b5f5491610c23610bb9601085901c6001600160a01b031681565b6040516370a0823160e01b81523060048201529190602090839060249082905afa8015610dcc57610c5b925f91610d9d575b50612420565b918215610d8e5760081c60ff1680610d78575b610d6957610d1e610c7d613cdc565b93610cc6610c89613d63565b610cb1610c97888389613e38565b97610cab88610ca542612dc5565b9261244e565b90613832565b5050610cc087610ca542612dc5565b906138f6565b50506001600160a01b0381165f908152600e6020526040902090610d1886610d13610d0e610cf342612dc5565b6001600160a01b039095165f908152600e6020526040902090565b613dea565b61244e565b916139b6565b5050604080518381526020810185905233917fdcbc1c05240f31ff3ad067ef1ee35ce4997762752e3a095284754544f4c709d791a36105bd60015f5160206143f35f395f51905f5255565b632484557960e01b5f5260045ffd5b50610d8582610d13613cdc565b60045410610c6e565b63070f6eed60e11b5f5260045ffd5b610dbf915060203d602011610dc5575b610db7818361085e565b81019061247c565b5f610c55565b503d610dad565b61248b565b610c0992919450610df09060203d602011610dc557610db7818361085e565b939091610bfa565b6304f63b8560e01b5f5260045ffd5b50335f9081526005602052604090205460ff1615610ba4565b630d534ce360e11b5f5260045ffd5b3461048a575f36600319011261048a57602060ff5f54166040519015158152f35b3461048a575f36600319011261048a57602060015460d01c604051908152f35b3461048a575f36600319011261048a57602060ff60025460a01c166040519015158152f35b90604060031983011261048a57600435610eae816107ff565b91602435906001600160401b03821161048a5761090c916004016108f1565b3461048a57602061063e610ee036610e95565b90612e28565b3461048a57602036600319011261048a57600435610f0381610a96565b610f0b612c13565b610f1361312a565b5f54901515908160ff8260081c16151514610b295761ff001916600882901b61ff0016175f556040519081527ffa7a25a0b611d4ba3c0ea990e90dc23d484a5dd7a1be4733fef2946ba74530c690602090a160015f5160206143f35f395f51905f5255005b3461048a575f36600319011261048a5760206001600160401b035f5160206144135f395f51905f525416604051908152f35b3461048a57606036600319011261048a57610fc36106e9565b602435610fcf81610502565b6044356001600160401b03811161048a57610fee9036906004016106ff565b9290915f5160206144135f395f51905f52546001600160401b03811690816110e45760401c60ff169081156110d0575b506107ca577fc7f505b2f371ae2175ee4913f4499e1f2633a7b5936321eed1cdaeb6115181d2936110cb936110879261105685612496565b600160401b60ff60401b195f5160206144135f395f51905f525416175f5160206144135f395f51905f5255846124ca565b6110b160ff60401b195f5160206144135f395f51905f5254165f5160206144135f395f51905f5255565b6040516001600160401b0390911681529081906020820190565b0390a1005b90506001600160401b03831611155f61101e565b62dc149f60e41b5f5260045ffd5b3461048a57602036600319011261048a57602061063e60043561111481610502565b6128ca565b3461048a57602036600319011261048a576004355f526006602052602060405f2054604051908152f35b3461048a575f36600319011261048a5760015461117865ffffffffffff8260a01c169161116e61296c565b9060d01c9061242d565b81018091116105e55761118c602091612dc5565b65ffffffffffff60405191168152f35b3461048a575f36600319011261048a576040517f00000000000000000000000000000000000000000000000000000000000000006001600160a01b03168152602090f35b3461048a575f36600319011261048a57602060ff60035460a01c166040519015158152f35b3461048a575f36600319011261048a5761121d613b2b565b5f5160206143b35f395f51905f5280546001600160a01b031981169091555f906001600160a01b03167f8be0079c531659141344cd1fd0a4f28419497f9722a3daafe3b4186f6b6457e08280a3005b3461048a57604036600319011261048a5760043560243561128c816107ff565b611294612c13565b6003546112a9906001600160a01b0316610bb9565b3303611528576112b761296c565b906112c1816129a0565b9082151580611517575b801561150e575b6114ff576105d2937ff9d090c096f71cd1659861a9ce5b6f384bceb4e2fa4e4a19edf6489a9b8d56c792611304613cdc565b9461131f61131182612440565b5f52600660205260405f2090565b54908281036114195750611333818761244e565b8381188185100281189687806113cb575b50505050505b83611397575b6040805191825265ffffffffffff929092166020820152908101839052606090a161138760015f5160206143f35f395f51905f5255565b6040519081529081906020820190565b5f546113c69085906113b49060101c6001600160a01b0316610bb9565b6001546001600160a01b031690613bf3565b611350565b61140e9361140183610cab6113f16113ea611311986114089888613b68565b8096612420565b946113fb42612dc5565b92612420565b5050612420565b92612440565b555f80808087611344565b915061142d825f52600660205260405f2090565b549061143d81610d13848a61244e565b908482188286100282189788611458575b505050505061134a565b6114cd93836114809361148d8c6114886114766114be998884613b68565b9788958584613b68565b948592612420565b612420565b938484106114d8575b61140190610cab6114ac9596976113fb42612dc5565b6114b861131187612440565b55612420565b915f52600660205260405f2090565b555f8080808061144e565b916114f4611401916114ee866114ac9798612420565b9061244e565b859450929050611496565b635e18d2a560e01b5f5260045ffd5b508282116112d2565b5061152183612412565b82106112cb565b63dabc4ad960e01b5f5260045ffd5b3461048a575f36600319011261048a5760015465ffffffffffff8160a01c169061155f61296c565b600181018091116105e5576111789160d01c9061242d565b3461048a575f36600319011261048a57602061063e61296c565b3461048a57602036600319011261048a576004356115ae81610502565b60018060a01b03165f526005602052602060ff60405f2054166040519015158152f35b3461048a57602036600319011261048a57602061063e6004356115f3816107ff565b6129a0565b3461048a57604036600319011261048a5760043561161581610502565b6024356001600160401b03811161048a573660238201121561048a5780600401356001600160401b03811161048a573660248260051b8401011161048a576105d29260246113879301906129e2565b3461048a57602061063e61167736610e95565b90612f14565b3461048a57602036600319011261048a5760043561169a81610502565b6116a2612c13565b60025460a01c60ff16611835576040516302910f8b60e31b81526001600160a01b0382166004820152602081806024810103817f00000000000000000000000000000000000000000000000000000000000000006001600160a01b03165afa908115610dcc575f91611806575b50156117f75760405163fbfa77cf60e01b81526001600160a01b0382169190602081600481865afa908115610dcc575f916117c8575b50306001600160a01b03909116036117b957600280546001600160a01b03929092166001600160a81b031990921691909117600160a01b1790557fdb2160616f776a37b24808115554e79439bf26cccbbd4438190cc6d28e80ecd15f80a2610a1160015f5160206143f35f395f51905f5255565b63b9f0f17160e01b5f5260045ffd5b6117ea915060203d6020116117f0575b6117e2818361085e565b810190612b2b565b5f611745565b503d6117d8565b6324e5af8d60e21b5f5260045ffd5b611828915060203d60201161182e575b611820818361085e565b810190612b0b565b5f61170f565b503d611816565b631380833b60e01b5f5260045ffd5b3461048a575f36600319011261048a576040517f00000000000000000000000000000000000000000000000000000000000000006001600160a01b03168152602090f35b3461048a575f36600319011261048a576118a061296c565b6118a8613cdc565b90805f52600660205260405f205482018092116105e557600181018091116105e5575f52600660205260405f205481018091116105e557604051908152602090f35b3461048a575f36600319011261048a575f5160206143b35f395f51905f52546040516001600160a01b039091168152602090f35b3461048a57604036600319011261048a57602060ff61197060243560043561194582610502565b5f525f5160206143d35f395f51905f52845260405f209060018060a01b03165f5260205260405f2090565b54166040519015158152f35b3461048a57602036600319011261048a5760043561199981610502565b60018060a01b03165f52600e602052602061063e60405f20613dea565b3461048a57604036600319011261048a576004356119d381610502565b6024356001600160401b03811161048a575f916119f5839236906004016106ff565b90816040519283928337810184815203915af43d15611a8157611a7960803d92611a1e846108a0565b93611a2c604051958661085e565b84523d5f602086013e5b60206040519485921515828401526040808401528051918291826060860152018484015e5f838284010152601f801991011681010301601f19810183528261085e565b805190602001fd5b611a796080606092611a36565b3461048a575f36600319011261048a57602060ff5f5460081c166040519015158152f35b3461048a575f36600319011261048a5760206040515f8152f35b3461048a575f36600319011261048a5760206040517f4a634bc14d77baf979756509ef4298c6f6318af357828612545267ee2eb792338152f35b3461048a57604036600319011261048a57600435611b2381610502565b60243590611b3082610a96565b611b38612c13565b611b40613199565b6001600160a01b0316908115611bdc57815f52600560205260ff60405f20541681151590151514610b2957611bc37ff991b1ecfb5115cbb36a2b2e2240c058406d2acc2fcc6e9e2dc99d845ff70a6291835f526005602052611bb18160405f209060ff801983541691151516179055565b60405190151581529081906020820190565b0390a2610a1160015f5160206143f35f395f51905f5255565b630da30f6560e31b5f5260045ffd5b3461048a57604036600319011261048a576020611c2f602435600435611c1082610502565b5f526008835260405f209060018060a01b03165f5260205260405f2090565b54604051908152f35b3461048a57604036600319011261048a57602060ff611970602435600435611c5f82610502565b5f526009845260405f209060018060a01b03165f5260205260405f2090565b3461048a57602036600319011261048a57600435611c9b81610502565b611ca3612c13565b60035460a01c60ff16611e1d576001600160a01b0381169081611d0f575b506003805460ff60a01b1916600160a01b1790557fe7e4c932e03abddfe20f83af42c33627e816115c7ec2b168441f65dc14bfc3ba5f80a2610a1160015f5160206143f35f395f51905f5255565b6040516302910f8b60e31b81526001600160a01b0382166004820152602081806024810103817f00000000000000000000000000000000000000000000000000000000000000006001600160a01b03165afa908115610dcc575f91611dfe575b50156115285760405163fbfa77cf60e01b8152602081600481865afa908115610dcc575f91611ddf575b50306001600160a01b0390911603611dd057600380546001600160a01b0319166001600160a01b039092169190911790555f611cc1565b633f3e089160e21b5f5260045ffd5b611df8915060203d6020116117f0576117e2818361085e565b5f611d99565b611e17915060203d60201161182e57611820818361085e565b5f611d6f565b63703fe2e560e01b5f5260045ffd5b3461048a57604036600319011261048a57600435611e4981610502565b60243590611e55612c13565b6001600160a01b0381168015611ee15782611e8c611e756105d295613c49565b5f549094859160101c6001600160a01b0316613bf3565b604080519182526020820184905233917f865ca08d59f5cb456e85cd2f7ef63664ea4f73327414e9d8152c4158b0e946459190a360015f5160206143f35f395f51905f52556040519081529081906020820190565b634e46966960e11b5f5260045ffd5b3461048a57602036600319011261048a576004355f526007602052602060405f2054604051908152f35b3461048a575f36600319011261048a576003546040516001600160a01b039091168152602090f35b3461048a575f36600319011261048a57602061063e613cdc565b3461048a57602036600319011261048a57600435611f78612c13565b335f9081527f2d4ccbfe9f7672a6f2537c1e5bce6adacb73706879154bbab6ce096012d67216602052604090205460ff1615611ff9578060045414610b29576020817f854df3eb95564502c8bc871ebdd15310ee26270f955f6c6bd8cea68e75045bc092600455604051908152a160015f5160206143f35f395f51905f5255005b63e2517d3f60e01b5f52336004527f4a634bc14d77baf979756509ef4298c6f6318af357828612545267ee2eb7923360245260445ffd5b3461048a575f36600319011261048a57602061063e613d63565b3461048a57602036600319011261048a5760043561206781610502565b61206f61296c565b612078826128ca565b916120838183612bb1565b83018093116105e557600182018092116105e5576120a091612bb1565b81018091116105e557602090604051908152f35b3461048a575f36600319011261048a576002546040516001600160a01b039091168152602090f35b3461048a57604036600319011261048a57610a116024356004356120ff82610502565b612124610a07825f525f5160206143d35f395f51905f52602052600160405f20015490565b613683565b3461048a575f36600319011261048a575f5460405160109190911c6001600160a01b03168152602090f35b3461048a575f36600319011261048a5760206040517fbae4ee3de6c709ff9a002e774c5b78cb381560b219213c88ae0f1e207c03c0238152f35b3461048a575f36600319011261048a576020600454604051908152f35b3461048a57606036600319011261048a576004356121c881610502565b602435906121d5826107ff565b6044356001600160401b03811161048a576121f49036906004016106ff565b919060405161220281610823565b6060815260606020820152606060408201529280612253575b6105d2611387868661224d612233888484519161245b565b926040612244602085015183612f14565b93015190612e28565b91613e38565b81019391925060208185031261048a578035906001600160401b03821161048a57019160608385031261048a576040519361228d85610823565b83356001600160401b03811161048a57816122a99186016108f1565b855260208401356001600160401b03811161048a57816122ca9186016108f1565b602086015260408401356001600160401b03811161048a576105d2956122fb61224d936122339361138798016108f1565b60408201529450508192945061221b565b3461048a57602036600319011261048a57610a1160043561232c81610502565b612334613b2b565b612b40565b3461048a57604036600319011261048a5760043561235681610502565b602435612361612c13565b6001600160a01b038216156105f95780156123c557612390612381613d63565b612389613cdc565b9083613fa0565b91335f52600e6020526123a560405f20613dea565b83116123b6576105a6918391612c4b565b6321727a3760e11b5f5260045ffd5b636c6c627d60e11b5f5260045ffd5b3461048a57604036600319011261048a57602061063e6024356004356123f982610502565b612bb1565b634e487b7160e01b5f52601160045260245ffd5b5f198101919082116105e557565b919082039182116105e557565b818102929181159184041417156105e557565b90600182018092116105e557565b919082018092116105e557565b6001600160a01b03165f908152600e6020526040902061090c929190612fe0565b9081602091031261048a575190565b6040513d5f823e3d90fd5b6001600160401b03166001600160401b03195f5160206144135f395f51905f525416175f5160206144135f395f51905f5255565b506124fa926124eb92916001600160a01b0381166128b0575b5036916108bb565b60208082518301019101613a60565b80516001600160a01b0316156128a1576040810165ffffffffffff612525825165ffffffffffff1690565b16156128925760c082018051909190612546906001600160a01b0316610bb9565b15612740575b91612684610140926126236125fe6126e396612599612571875160018060a01b031690565b5f805462010000600160b01b03191660109290921b62010000600160b01b0316919091179055565b6020860151600180546001600160a01b0319166001600160a01b039092169190911790556125f26125c942612dc5565b6001805465ffffffffffff60a01b191660a09290921b65ffffffffffff60a01b16919091179055565b5165ffffffffffff1690565b600180546001600160d01b031660d09290921b6001600160d01b031916919091179055565b6126436126336060850151151590565b60ff80195f541691151516175f55565b61266a6126536080850151151590565b61ff005f5491151560081b169061ff001916175f55565b61267760a0840151600455565b516001600160a01b031690565b6001600160a01b038116612730575b5060e08101516001600160a01b031680612720575b506101008101516001600160a01b031680612710575b506101208101516001600160a01b031680612700575b5001516001600160a01b031690565b6001600160a01b0381166126f45750565b6126fd9061352d565b50565b6127099061346c565b505f6126d4565b612719906133ab565b505f6126be565b612729906132ea565b505f6126a8565b6127399061324e565b505f612693565b60e0830151612757906001600160a01b0316610bb9565b15612831575b610120830151612775906001600160a01b0316610bb9565b61254c57916127876080820151151590565b156127e95760a081015115806127ca575b6127bb57612684610140926126236125fe6126e3965b949650505092505061254c565b63183c854560e21b5f5260045ffd5b506101408101516127e3906001600160a01b0316610bb9565b15612798565b60a081015115801590612811575b6127bb57612684610140926126236125fe6126e3966127ae565b5061014081015161282a906001600160a01b0316610bb9565b15156127f7565b60608301511561286657610100830151612853906001600160a01b0316610bb9565b61275d5763183c854560e21b5f5260045ffd5b61010083015161287e906001600160a01b0316610bb9565b1561275d5763183c854560e21b5f5260045ffd5b6368f5f8f160e11b5f5260045ffd5b6368f7a67560e11b5f5260045ffd5b6128c4906128bc613fff565b612334613fff565b5f6124e3565b6001600160a01b03165f908152600e602052604090206128e990613dea565b6128f1613cdc565b6128f9613d63565b90600181018091116105e557600182018092116105e55761090c92613b68565b9065ffffffffffff8091169116039065ffffffffffff82116105e557565b634e487b7160e01b5f52601260045260245ffd5b9065ffffffffffff169081156129675765ffffffffffff160490565b612937565b65ffffffffffff61299c61297f42612dc5565b61299260015491848360a01c1690612919565b9060d01c9061294b565b1690565b60015465ffffffffffff8160a01c16908165ffffffffffff8416106129d35761299261299c9265ffffffffffff94612919565b63b7d0949760e01b5f5260045ffd5b906129eb612c13565b5f926001600160a01b038316928315611ee1578115612aab575f5b828110612a8157505f547f326b6aff1cd2fb1c8234de4f9dcfb9047c5c36eb9ef2eb34af5121e969a75d279286929091612a56918491612a519060101c6001600160a01b0316610bb9565b613bf3565b612a67604051928392339684612ace565b0390a39061088f60015f5160206143f35f395f51905f5255565b9482861015612aa657612a9f6001916114ee8860051b870135613c49565b9501612a06565b612aba565b63edf3b93360e01b5f5260045ffd5b634e487b7160e01b5f52603260045260245ffd5b604080825281018390529392916001600160fb1b03811161048a5760209160609160051b809183880137850101930152565b519061088f82610a96565b9081602091031261048a575161090c81610a96565b519061088f82610502565b9081602091031261048a575161090c81610502565b6001600160a01b03168015612b9e575f5160206143b35f395f51905f5280546001600160a01b0319811683179091556001600160a01b03167f8be0079c531659141344cd1fd0a4f28419497f9722a3daafe3b4186f6b6457e05f80a3565b631e4fbdf760e01b5f525f60045260245ffd5b90612bd790825f52600860205260405f209060018060a01b03165f5260205260405f2090565b5490805f52600660205260405f2054905f52600760205260405f205490600181018091116105e557600182018092116105e55761090c92613b68565b60025f5160206143f35f395f51905f525414612c3c5760025f5160206143f35f395f51905f5255565b633ee5aeb560e01b5f5260045ffd5b335f908152600e6020526040902093929190612c6642612dc5565b335f908152600e60205260409020612c7d90613dea565b918483039283116105e557612cb87febff2602b3f468259e1e99f613fed6691f3a6526effe6ef3e768ba7ae7a36c4f938593612d43996139b6565b5050612cd2612cc642612dc5565b610cc087611488613d63565b5050612cec612ce042612dc5565b610cab84611488613cdc565b5050612d9181612d7c612d05612d0061296c565b612440565b612d5b612d1a825f52600660205260405f2090565b54612d2d835f52600760205260405f2090565b54612d3982828b613e38565b9d8e998a9361244e565b612d55855f52600660205260405f2090565b5561244e565b612d6d825f52600760205260405f2090565b555f52600860205260405f2090565b9060018060a01b03165f5260205260405f2090565b612d9c83825461244e565b9055604080519485526020850195909552938301526001600160a01b03909216913391606090a3565b65ffffffffffff8111612ddd5765ffffffffffff1690565b6306dfcc6560e41b5f52603060045260245260445ffd5b9081602091031261048a575163ffffffff8116810361048a5790565b63ffffffff60019116019063ffffffff82116105e557565b90805115612f085780602080612e4393518301019101612df4565b612e4e81600a613f30565b90612e5f825165ffffffffffff1690565b9065ffffffffffff8416918265ffffffffffff821614612efc57829065ffffffffffff16109182612ea6575b5050612e9d575061090c90600a613e5b565b60209150015190565b909150612eb4600a54612412565b63ffffffff831614918215612ecd575b50505f80612e8b565b612ef49192506125f2612ee2612ee992612e10565b600a613f30565b65ffffffffffff1690565b115f80612ec4565b50505060209150015190565b5061090c90600a613e5b565b90805115612fd45780602080612f2f93518301019101612df4565b612f3a81600c613f30565b90612f4b825165ffffffffffff1690565b9065ffffffffffff8416918265ffffffffffff821614612efc57829065ffffffffffff16109182612f89575b5050612e9d575061090c90600c613e5b565b909150612f97600c54612412565b63ffffffff831614918215612fb0575b50505f80612f77565b612fcc9192506125f2612fc5612ee992612e10565b600c613f30565b115f80612fa7565b5061090c90600c613e5b565b918051156130b15780602080612ffb93518301019101612df4565b916130068382613f30565b92613017845165ffffffffffff1690565b9065ffffffffffff8416918265ffffffffffff8216146130a557829065ffffffffffff1610918261305c575b50506130535761090c9250613e5b565b50506020015190565b9091506130698354612412565b63ffffffff831614918215613082575b50505f80613043565b61309d9192506125f2613097612ee992612e10565b85613f30565b115f80613079565b50505050506020015190565b5061090c91613e5b565b335f9081527f03b26b53c87faa1058f30bb5d2fee64f717719a0d9b7e4f4df027aa5e9b6ed69602052604090205460ff16156130f357565b63e2517d3f60e01b5f52336004527fbae4ee3de6c709ff9a002e774c5b78cb381560b219213c88ae0f1e207c03c02360245260445ffd5b335f9081527fe41986b390c4ce6791b87f7423b5fab7a81a0e6d89660b6264f697d008b2243a602052604090205460ff161561316257565b63e2517d3f60e01b5f52336004527fc6aaadd7371d5e8f9ed6849dd66a66573a3ba37167d03f4352c9ba5693678fac60245260445ffd5b335f9081527f0287ab4cb376ea253d7b2ce0c2cbf458f7deae9458470d74afdfbbee484e9540602052604090205460ff16156131d157565b63e2517d3f60e01b5f52336004527f9c56d972d63cbb4195b3c1484691dfc220fa96a4c47e7b6613bd82a022029e0660245260445ffd5b5f8181525f5160206143d35f395f51905f526020908152604080832033845290915290205460ff16156132385750565b63e2517d3f60e01b5f523360045260245260445ffd5b6001600160a01b0381165f9081527fb7db2dd08fcb62d0c9e08c51941cae53c267786a0b75803fb7960902fc8ef97d602052604090205460ff166132e5576001600160a01b03165f8181527fb7db2dd08fcb62d0c9e08c51941cae53c267786a0b75803fb7960902fc8ef97d60205260408120805460ff191660011790553391905f5160206143935f395f51905f528180a4600190565b505f90565b6001600160a01b0381165f9081527f03b26b53c87faa1058f30bb5d2fee64f717719a0d9b7e4f4df027aa5e9b6ed69602052604090205460ff166132e5576001600160a01b0381165f9081527f03b26b53c87faa1058f30bb5d2fee64f717719a0d9b7e4f4df027aa5e9b6ed6960205260409020805460ff1916600117905533906001600160a01b03167fbae4ee3de6c709ff9a002e774c5b78cb381560b219213c88ae0f1e207c03c0235f5160206143935f395f51905f525f80a4600190565b6001600160a01b0381165f9081527f0287ab4cb376ea253d7b2ce0c2cbf458f7deae9458470d74afdfbbee484e9540602052604090205460ff166132e5576001600160a01b0381165f9081527f0287ab4cb376ea253d7b2ce0c2cbf458f7deae9458470d74afdfbbee484e954060205260409020805460ff1916600117905533906001600160a01b03167f9c56d972d63cbb4195b3c1484691dfc220fa96a4c47e7b6613bd82a022029e065f5160206143935f395f51905f525f80a4600190565b6001600160a01b0381165f9081527fe41986b390c4ce6791b87f7423b5fab7a81a0e6d89660b6264f697d008b2243a602052604090205460ff166132e5576001600160a01b0381165f9081527fe41986b390c4ce6791b87f7423b5fab7a81a0e6d89660b6264f697d008b2243a60205260409020805460ff1916600117905533906001600160a01b03167fc6aaadd7371d5e8f9ed6849dd66a66573a3ba37167d03f4352c9ba5693678fac5f5160206143935f395f51905f525f80a4600190565b6001600160a01b0381165f9081527f2d4ccbfe9f7672a6f2537c1e5bce6adacb73706879154bbab6ce096012d67216602052604090205460ff166132e5576001600160a01b0381165f9081527f2d4ccbfe9f7672a6f2537c1e5bce6adacb73706879154bbab6ce096012d6721660205260409020805460ff1916600117905533906001600160a01b03167f4a634bc14d77baf979756509ef4298c6f6318af357828612545267ee2eb792335f5160206143935f395f51905f525f80a4600190565b5f8181525f5160206143d35f395f51905f52602090815260408083206001600160a01b038616845290915290205460ff1661367d575f8181525f5160206143d35f395f51905f52602090815260408083206001600160a01b03861684529091529020805460ff1916600117905533916001600160a01b0316905f5160206143935f395f51905f525f80a4600190565b50505f90565b5f8181525f5160206143d35f395f51905f52602090815260408083206001600160a01b038616845290915290205460ff161561367d575f8181525f5160206143d35f395f51905f52602090815260408083206001600160a01b03861684529091529020805460ff1916905533916001600160a01b0316907ff6391f5c32d9c69d2a47ea670b442974b53935d1edc7fd64eb21e047a839171b5f80a4600190565b6040516323b872dd60e01b5f9081526001600160a01b039384166004529290931660245260449390935260209060648180865af160015f5114811615613792575b6040919091525f606052155b6137775750565b635274afe760e01b5f526001600160a01b031660045260245ffd5b60018115166137a8573d15833b15151616613764565b503d5f823e3d90fd5b8054821015612aa6575f5260205f2001905f90565b8054600160401b81101561083e576137e3916001820181556137b1565b81545f1960039290921b9190911b19169055565b90815491600160401b83101561083e578261381a91600161088f950181556137b1565b90919082549060031b91821b915f19901b1916179055565b919091600d54156138e7575b613848600c613fc4565b5091600d5491613858600c613dea565b93816138cd575b50156138ab57505f1981018181116105e557600d541115612aa657600d5f527fd7b6990105719101dabeb77144f2a3385c8033acd3af97e9423a695e81ad1eb4018390559190565b9190565b6138c0916001600160d01b031690600c614106565b50506138a783600d6137f7565b65ffffffffffff91501665ffffffffffff8216145f61385f565b6138f1600d6137c6565b61383e565b919091600b54156139a7575b61390c600a613fc4565b5091600b549161391c600a613dea565b938161398d575b501561396b57505f1981018181116105e557600b541115612aa657600b5f527f0175b7a638427703f0dbe7bb9bbf987a2551717b34e79f33b5b1008d1fa01db8018390559190565b613980916001600160d01b031690600a614106565b50506138a783600b6137f7565b65ffffffffffff91501665ffffffffffff8216145f613923565b6139b1600b6137c6565b613902565b909291926001820190815415613a47575b846139d184613fc4565b509490928454936139e183613dea565b9681613a2d575b5015613a0a575050505f1981019081116105e55761381a85916138a7936137b1565b6138a7949293613a26926001600160d01b039091169190614106565b50506137f7565b65ffffffffffff91501665ffffffffffff8216145f6139e8565b613a50826137c6565b6139c7565b519061088f826107ff565b908161016091031261048a57613b22610140613a7a61087f565b92613a8481612b20565b8452613a9260208201612b20565b6020850152613aa360408201613a55565b6040850152613ab460608201612b00565b6060850152613ac560808201612b00565b608085015260a081015160a0850152613ae060c08201612b20565b60c0850152613af160e08201612b20565b60e0850152613b036101008201612b20565b610100850152613b166101208201612b20565b61012085015201612b20565b61014082015290565b5f5160206143b35f395f51905f52546001600160a01b03163303613b4b57565b63118cdaa760e01b5f523360045260245ffd5b8115612967570490565b91613b73828461402a565b9290938415613be65784831115613bd95790829109815f0382168092046002816003021880820260020302808202600203028082026002030280820260020302808202600203028091026002030293600183805f03040190848311900302920304170290565b601160038415021861403d565b50509061090c9250613b5e565b916040519163a9059cbb60e01b5f5260018060a01b031660045260245260205f60448180865af160015f5114811615613c33575b60409190915215613770565b60018115166137a8573d15833b15151616613c27565b90613c5261296c565b821015613ccd575f82815260096020908152604080832033845290915290205460ff16613cbe57613c833383612bb1565b918215613caf575f9081526009602090815260408083203384529091529020805460ff19166001179055565b6366c0bcbf60e11b5f5260045ffd5b630c8d9eab60e31b5f5260045ffd5b63d5b25b6360e01b5f5260045ffd5b600c5480613d2a57505f5b6001600160d01b038116156132e557600d54811015612aa657600d5f527fd7b6990105719101dabeb77144f2a3385c8033acd3af97e9423a695e81ad1eb5015490565b805f198101116105e557600c5f527fdf6966c971051c3d54ec59162606531493a51404a002842f56009d7e5cf4a8c6015460301c613ce7565b600a5480613db157505f5b6001600160d01b038116156132e557600b54811015612aa657600b5f527f0175b7a638427703f0dbe7bb9bbf987a2551717b34e79f33b5b1008d1fa01db9015490565b805f198101116105e557600a5f527fc65a7bb8d6351c1cf70c95a316cc6a92839c986682d98bc35f958f4883f9d2a7015460301c613d6e565b805480613e1957505f5b6001600160d01b0381161561367d576001613e0f92016137b1565b90549060031b1c90565b805f198101116105e5575f82815260209020015f19015460301c613df4565b9091600183018093116105e557600181018091116105e55761090c925f9261404d565b908154905f829160058411613ec5575b613e76935084614336565b80613e9e57505f905b6001600160d01b0382161561367d5761090c916001613e0f92016137b1565b613eb8613ead613ebf92612412565b835f5260205f200190565b5460301c90565b90613e7f565b9192613ed0816141d8565b81039081116105e557613e7693855f5265ffffffffffff8260205f2001541665ffffffffffff8516105f14613f06575091613e6b565b929150613f1290612440565b90613e6b565b60405190613f2582610843565b5f6020838281520152565b9060206001613f54613f8093613f44613f18565b50613f4d613f18565b50856137b1565b509360405194613f6386610843565b549465ffffffffffff86169586825260301c9384910152016137b1565b90549060031b1c60405191613f9660408461085e565b8252602082015290565b9091600183018093116105e557600181018091116105e55761090c9260019261404d565b80549081613fd65750505f905f905f90565b815f198101116105e5575f525f199060205f2001015460019165ffffffffffff82169160301c90565b60ff5f5160206144135f395f51905f525460401c161561401b57565b631afcd79f60e31b5f5260045ffd5b905f198183099102908180821091030391565b634e487b715f526020526024601cfd5b919061405a828285613b68565b936004811015614097576001809116149283614082575b505050151581018091116105e55790565b909180935015612967570915155f8080614071565b634e487b7160e01b5f52602160045260245ffd5b8054600160401b81101561083e576140c8916001820181556137b1565b6140f357815160209092015160301b65ffffffffffff191665ffffffffffff92909216919091179055565b634e487b7160e01b5f525f60045260245ffd5b805492939280156141ae5761411d61412891612412565b825f5260205f200190565b8054603081901c9365ffffffffffff9182169291811680841161419f5787930361416b57506138a792509065ffffffffffff82549181199060301b169116179055565b9150506138a79161418b61417d610891565b65ffffffffffff9093168352565b6001600160d01b03861660208301526140ab565b632520601d60e01b5f5260045ffd5b50906141d3916141bf61417d610891565b6001600160d01b03851660208301526140ab565b5f9190565b600181111561090c57806001600160801b8210156142f9575b61429f61429561428b61428161427761426d61425c6142a69760048a600160401b6142ab9c10156142ec575b6401000000008110156142df575b620100008110156142d2575b6101008110156142c5575b60108110156142b8575b10156142b0575b60030260011c90565b614266818b613b5e565b0160011c90565b614266818a613b5e565b6142668189613b5e565b6142668188613b5e565b6142668187613b5e565b6142668186613b5e565b8093613b5e565b821190565b900390565b60011b614253565b60041c9160021b9161424c565b60081c9160041b91614242565b60101c9160081b91614237565b60201c9160101b9161422b565b60401c9160201b9161421d565b50506142ab6142a661429f61429561428b61428161427761426d61425c6143208a60801c90565b9850600160401b97506141f19650505050505050565b905b8383106143455750505090565b90919280841860011c8185160190835f5265ffffffffffff8260205f2001541665ffffffffffff8416105f1461437f5750925b9190614338565b93506001810180911115614378576123fe56fe2f8788117e7eff1d82e926ec794901d17c78024a50270940304540a733656f0d9016d09d72d40fdae2fd8ceac6b6234c7706214fd39c1cd1e609a0528c19930002dd7bc7dec4dceedda775e58dd541e08a116c6c53815c0bd028192f7b6268009b779b17422d0df92223018b32b4d1fa46e071723d6817e2486d003becc55f00f0c57e16840df040f15088dc2f81fe391c3923bec73e23a9662efc9c229c6a00a2646970667358221220dfb2d72951c8ad9df68037446ee7590bfe9ede1b143c37cc539e0685ecaf947a64736f6c63430008230033f0c57e16840df040f15088dc2f81fe391c3923bec73e23a9662efc9c229c6a00","linkReferences":{}},"methodIdentifiers":{"DEFAULT_ADMIN_ROLE()":"a217fddf","DELEGATOR_FACTORY()":"6da3e06d","DEPOSITOR_WHITELIST_ROLE()":"1b66c9e1","DEPOSIT_LIMIT_SET_ROLE()":"a21a1df9","DEPOSIT_WHITELIST_SET_ROLE()":"db388715","FACTORY()":"2dd31000","IS_DEPOSIT_LIMIT_SET_ROLE()":"1415519b","SLASHER_FACTORY()":"87df0788","activeBalanceOf(address)":"59f769a9","activeBalanceOfAt(address,uint48,bytes)":"efb559d6","activeShares()":"bfefcd7b","activeSharesAt(uint48,bytes)":"50f22068","activeSharesOf(address)":"9d66201b","activeSharesOfAt(address,uint48,bytes)":"2d73c69c","activeStake()":"bd49c35f","activeStakeAt(uint48,bytes)":"810da75d","burner()":"27810b6e","claim(address,uint256)":"aad3ec96","claimBatch(address,uint256[])":"7c04c80a","collateral()":"d8dfeb45","currentEpoch()":"76671808","currentEpochStart()":"61a8c8c4","delegator()":"ce9b7930","deposit(address,uint256)":"47e7ef24","depositLimit()":"ecf70858","depositWhitelist()":"48d3b775","epochAt(uint48)":"7953b33b","epochDuration()":"4ff0876a","epochDurationInit()":"46361671","getRoleAdmin(bytes32)":"248a9ca3","grantRole(bytes32,address)":"2f2ff15d","hasRole(bytes32,address)":"91d14854","initialize(uint64,address,bytes)":"57ec83cc","isDelegatorInitialized()":"50861adc","isDepositLimit()":"a1b12202","isDepositorWhitelisted(address)":"794b15b7","isInitialized()":"392e53cd","isSlasherInitialized()":"6ec1e3f8","isWithdrawalsClaimed(uint256,address)":"a5d03223","migrate(uint64,bytes)":"2abe3048","nextEpochStart()":"73790ab3","onSlash(uint256,uint48)":"7278e31c","owner()":"8da5cb5b","previousEpochStart()":"281f5752","redeem(address,uint256)":"1e9a6950","renounceOwnership()":"715018a6","renounceRole(bytes32,address)":"36568abe","revokeRole(bytes32,address)":"d547741f","setDelegator(address)":"83cd9cc3","setDepositLimit(uint256)":"bdc8144b","setDepositWhitelist(bool)":"4105a7dd","setDepositorWhitelistStatus(address,bool)":"a2861466","setIsDepositLimit(bool)":"5346e34f","setSlasher(address)":"aabc2496","slashableBalanceOf(address)":"c31e8dd7","slasher()":"b1344271","staticDelegateCall(address,bytes)":"9f86fd85","supportsInterface(bytes4)":"01ffc9a7","totalStake()":"8b0e9f3f","transferOwnership(address)":"f2fde38b","version()":"54fd4d50","withdraw(address,uint256)":"f3fef3a3","withdrawalShares(uint256)":"afba70ad","withdrawalSharesOf(uint256,address)":"a3b54172","withdrawals(uint256)":"5cc07076","withdrawalsOf(uint256,address)":"f5e7ee0f"},"id":149}