{"abi":[{"type":"constructor","inputs":[],"stateMutability":"nonpayable"},{"type":"function","name":"DOMAIN_SEPARATOR","inputs":[],"outputs":[{"name":"","type":"bytes32","internalType":"bytes32"}],"stateMutability":"view"},{"type":"function","name":"UPGRADE_INTERFACE_VERSION","inputs":[],"outputs":[{"name":"","type":"string","internalType":"string"}],"stateMutability":"view"},{"type":"function","name":"allowance","inputs":[{"name":"owner","type":"address","internalType":"address"},{"name":"spender","type":"address","internalType":"address"}],"outputs":[{"name":"","type":"uint256","internalType":"uint256"}],"stateMutability":"view"},{"type":"function","name":"approve","inputs":[{"name":"spender","type":"address","internalType":"address"},{"name":"value","type":"uint256","internalType":"uint256"}],"outputs":[{"name":"","type":"bool","internalType":"bool"}],"stateMutability":"nonpayable"},{"type":"function","name":"balanceOf","inputs":[{"name":"account","type":"address","internalType":"address"}],"outputs":[{"name":"","type":"uint256","internalType":"uint256"}],"stateMutability":"view"},{"type":"function","name":"burn","inputs":[{"name":"value","type":"uint256","internalType":"uint256"}],"outputs":[],"stateMutability":"nonpayable"},{"type":"function","name":"burnFrom","inputs":[{"name":"account","type":"address","internalType":"address"},{"name":"value","type":"uint256","internalType":"uint256"}],"outputs":[],"stateMutability":"nonpayable"},{"type":"function","name":"decimals","inputs":[],"outputs":[{"name":"","type":"uint8","internalType":"uint8"}],"stateMutability":"pure"},{"type":"function","name":"eip712Domain","inputs":[],"outputs":[{"name":"fields","type":"bytes1","internalType":"bytes1"},{"name":"name","type":"string","internalType":"string"},{"name":"version","type":"string","internalType":"string"},{"name":"chainId","type":"uint256","internalType":"uint256"},{"name":"verifyingContract","type":"address","internalType":"address"},{"name":"salt","type":"bytes32","internalType":"bytes32"},{"name":"extensions","type":"uint256[]","internalType":"uint256[]"}],"stateMutability":"view"},{"type":"function","name":"initialize","inputs":[{"name":"initialOwner","type":"address","internalType":"address"}],"outputs":[],"stateMutability":"nonpayable"},{"type":"function","name":"mint","inputs":[{"name":"to","type":"address","internalType":"address"},{"name":"amount","type":"uint256","internalType":"uint256"}],"outputs":[],"stateMutability":"nonpayable"},{"type":"function","name":"name","inputs":[],"outputs":[{"name":"","type":"string","internalType":"string"}],"stateMutability":"view"},{"type":"function","name":"nonces","inputs":[{"name":"owner","type":"address","internalType":"address"}],"outputs":[{"name":"","type":"uint256","internalType":"uint256"}],"stateMutability":"view"},{"type":"function","name":"owner","inputs":[],"outputs":[{"name":"","type":"address","internalType":"address"}],"stateMutability":"view"},{"type":"function","name":"permit","inputs":[{"name":"owner","type":"address","internalType":"address"},{"name":"spender","type":"address","internalType":"address"},{"name":"value","type":"uint256","internalType":"uint256"},{"name":"deadline","type":"uint256","internalType":"uint256"},{"name":"v","type":"uint8","internalType":"uint8"},{"name":"r","type":"bytes32","internalType":"bytes32"},{"name":"s","type":"bytes32","internalType":"bytes32"}],"outputs":[],"stateMutability":"nonpayable"},{"type":"function","name":"proxiableUUID","inputs":[],"outputs":[{"name":"","type":"bytes32","internalType":"bytes32"}],"stateMutability":"view"},{"type":"function","name":"reinitialize","inputs":[],"outputs":[],"stateMutability":"nonpayable"},{"type":"function","name":"renounceOwnership","inputs":[],"outputs":[],"stateMutability":"nonpayable"},{"type":"function","name":"symbol","inputs":[],"outputs":[{"name":"","type":"string","internalType":"string"}],"stateMutability":"view"},{"type":"function","name":"totalSupply","inputs":[],"outputs":[{"name":"","type":"uint256","internalType":"uint256"}],"stateMutability":"view"},{"type":"function","name":"transfer","inputs":[{"name":"to","type":"address","internalType":"address"},{"name":"value","type":"uint256","internalType":"uint256"}],"outputs":[{"name":"","type":"bool","internalType":"bool"}],"stateMutability":"nonpayable"},{"type":"function","name":"transferFrom","inputs":[{"name":"from","type":"address","internalType":"address"},{"name":"to","type":"address","internalType":"address"},{"name":"value","type":"uint256","internalType":"uint256"}],"outputs":[{"name":"","type":"bool","internalType":"bool"}],"stateMutability":"nonpayable"},{"type":"function","name":"transferOwnership","inputs":[{"name":"newOwner","type":"address","internalType":"address"}],"outputs":[],"stateMutability":"nonpayable"},{"type":"function","name":"upgradeToAndCall","inputs":[{"name":"newImplementation","type":"address","internalType":"address"},{"name":"data","type":"bytes","internalType":"bytes"}],"outputs":[],"stateMutability":"payable"},{"type":"event","name":"Approval","inputs":[{"name":"owner","type":"address","indexed":true,"internalType":"address"},{"name":"spender","type":"address","indexed":true,"internalType":"address"},{"name":"value","type":"uint256","indexed":false,"internalType":"uint256"}],"anonymous":false},{"type":"event","name":"EIP712DomainChanged","inputs":[],"anonymous":false},{"type":"event","name":"Initialized","inputs":[{"name":"version","type":"uint64","indexed":false,"internalType":"uint64"}],"anonymous":false},{"type":"event","name":"OwnershipTransferred","inputs":[{"name":"previousOwner","type":"address","indexed":true,"internalType":"address"},{"name":"newOwner","type":"address","indexed":true,"internalType":"address"}],"anonymous":false},{"type":"event","name":"Transfer","inputs":[{"name":"from","type":"address","indexed":true,"internalType":"address"},{"name":"to","type":"address","indexed":true,"internalType":"address"},{"name":"value","type":"uint256","indexed":false,"internalType":"uint256"}],"anonymous":false},{"type":"event","name":"Upgraded","inputs":[{"name":"implementation","type":"address","indexed":true,"internalType":"address"}],"anonymous":false},{"type":"error","name":"AddressEmptyCode","inputs":[{"name":"target","type":"address","internalType":"address"}]},{"type":"error","name":"ECDSAInvalidSignature","inputs":[]},{"type":"error","name":"ECDSAInvalidSignatureLength","inputs":[{"name":"length","type":"uint256","internalType":"uint256"}]},{"type":"error","name":"ECDSAInvalidSignatureS","inputs":[{"name":"s","type":"bytes32","internalType":"bytes32"}]},{"type":"error","name":"ERC1967InvalidImplementation","inputs":[{"name":"implementation","type":"address","internalType":"address"}]},{"type":"error","name":"ERC1967NonPayable","inputs":[]},{"type":"error","name":"ERC20InsufficientAllowance","inputs":[{"name":"spender","type":"address","internalType":"address"},{"name":"allowance","type":"uint256","internalType":"uint256"},{"name":"needed","type":"uint256","internalType":"uint256"}]},{"type":"error","name":"ERC20InsufficientBalance","inputs":[{"name":"sender","type":"address","internalType":"address"},{"name":"balance","type":"uint256","internalType":"uint256"},{"name":"needed","type":"uint256","internalType":"uint256"}]},{"type":"error","name":"ERC20InvalidApprover","inputs":[{"name":"approver","type":"address","internalType":"address"}]},{"type":"error","name":"ERC20InvalidReceiver","inputs":[{"name":"receiver","type":"address","internalType":"address"}]},{"type":"error","name":"ERC20InvalidSender","inputs":[{"name":"sender","type":"address","internalType":"address"}]},{"type":"error","name":"ERC20InvalidSpender","inputs":[{"name":"spender","type":"address","internalType":"address"}]},{"type":"error","name":"ERC2612ExpiredSignature","inputs":[{"name":"deadline","type":"uint256","internalType":"uint256"}]},{"type":"error","name":"ERC2612InvalidSigner","inputs":[{"name":"signer","type":"address","internalType":"address"},{"name":"owner","type":"address","internalType":"address"}]},{"type":"error","name":"FailedCall","inputs":[]},{"type":"error","name":"InvalidAccountNonce","inputs":[{"name":"account","type":"address","internalType":"address"},{"name":"currentNonce","type":"uint256","internalType":"uint256"}]},{"type":"error","name":"InvalidInitialization","inputs":[]},{"type":"error","name":"NotInitializing","inputs":[]},{"type":"error","name":"OwnableInvalidOwner","inputs":[{"name":"owner","type":"address","internalType":"address"}]},{"type":"error","name":"OwnableUnauthorizedAccount","inputs":[{"name":"account","type":"address","internalType":"address"}]},{"type":"error","name":"UUPSUnauthorizedCallContext","inputs":[]},{"type":"error","name":"UUPSUnsupportedProxiableUUID","inputs":[{"name":"slot","type":"bytes32","internalType":"bytes32"}]}],"bytecode":{"object":"0x60a080604052346100c257306080525f5160206124415f395f51905f525460ff8160401c166100b3576002600160401b03196001600160401b03821601610060575b60405161237a90816100c7823960805181818161153d01526116170152f35b6001600160401b0319166001600160401b039081175f5160206124415f395f51905f525581527fc7f505b2f371ae2175ee4913f4499e1f2633a7b5936321eed1cdaeb6115181d290602090a15f80610041565b63f92ee8a960e01b5f5260045ffd5b5f80fdfe60806040526004361015610011575f80fd5b5f3560e01c806306fdde03146118b1578063095ea7b31461188b57806318160ddd1461186257806323b872dd1461182a578063313ce5671461180f5780633644e515146117ed57806340c10f19146117b057806342966c68146117935780634f1ef2861461159157806352d1902d1461152b5780636c2eb35014610e3857806370a0823114610df4578063715018a614610d8d57806379cc679014610d5d5780637ecebe0014610d0757806384b0196e14610c515780638da5cb5b14610c1d57806395d89b4114610b27578063a9059cbb14610af6578063ad3cb1cc14610aab578063c4d66de8146102f9578063d505accf14610197578063dd62ed3e146101505763f2fde38b14610121575f80fd5b3461014c57602036600319011261014c5761014a61013d611992565b610145611e1e565b611c18565b005b5f80fd5b3461014c57604036600319011261014c57610169611992565b61017a6101746119a8565b91611be0565b9060018060a01b03165f52602052602060405f2054604051908152f35b3461014c5760e036600319011261014c576101b0611992565b6101b86119a8565b604435906064359260843560ff8116810361014c578442116102e6576102ab6102b49160018060a01b03841696875f527f5ab42ced628888259c08ac98db1eb0cf702fc1501344311d8b100cd1bfe4bb0060205260405f20908154916001830190556040519060208201927f6e71edae12b1b97f4d1f60370fef10105fa2faae0126114a169c64845d6126c984528a604084015260018060a01b038916606084015289608084015260a083015260c082015260c0815261027960e0826119be565b51902061028461202c565b906040519161190160f01b83526002830152602282015260c43591604260a43592206120cc565b90929192612159565b6001600160a01b03168481036102cf575061014a9350611f07565b84906325c0072360e11b5f5260045260245260445ffd5b8463313c898160e11b5f5260045260245ffd5b3461014c57602036600319011261014c57610312611992565b5f51602061235a5f395f51905f5254906001600160401b0360ff8360401c1615921680159081610aa3575b6001149081610a99575b159081610a90575b50610a81578160016001600160401b03195f51602061235a5f395f51905f525416175f51602061235a5f395f51905f5255610a4c575b61038d611b93565b91610396611bbd565b9161039f6120a1565b6103a76120a1565b83516001600160401b038111610738576103ce5f51602061225a5f395f51905f52546119df565b601f81116109d2575b50602094601f8211600114610957579481929394955f9261094c575b50508160011b915f199060031b1c1916175f51602061225a5f395f51905f52555b82516001600160401b0381116107385761043b5f5160206122ba5f395f51905f52546119df565b601f81116108d2575b506020601f821160011461085757819293945f9261084c575b50508160011b915f199060031b1c1916175f5160206122ba5f395f51905f52555b6104866120a1565b61048e6120a1565b6104966120a1565b61049f81611c18565b6104a7611b93565b916104b06120a1565b604051916104bf6040846119be565b60018352603160f81b60208401526104d56120a1565b83516001600160401b038111610738576104fc5f51602061229a5f395f51905f52546119df565b601f81116107d2575b50602094601f8211600114610757579481929394955f9261074c575b50508160011b915f199060031b1c1916175f51602061229a5f395f51905f52555b82516001600160401b038111610738576105695f51602061231a5f395f51905f52546119df565b601f81116106be575b506020601f821160011461064357819293945f92610638575b50508160011b915f199060031b1c1916175f51602061231a5f395f51905f52555b6001600160a01b0381161561062557670de0b6b3a76400006105cd91611f6a565b6105d357005b60ff60401b195f51602061235a5f395f51905f5254165f51602061235a5f395f51905f52557fc7f505b2f371ae2175ee4913f4499e1f2633a7b5936321eed1cdaeb6115181d2602060405160018152a1005b63ec442f0560e01b5f525f60045260245ffd5b01519050848061058b565b601f198216905f51602061231a5f395f51905f525f52805f20915f5b8181106106a65750958360019596971061068e575b505050811b015f51602061231a5f395f51905f52556105ac565b01515f1960f88460031b161c19169055848080610674565b9192602060018192868b01518155019401920161065f565b81811115610572575f51602061231a5f395f51905f525f52601f820160051c7f5f9ce34815f8e11431c7bb75a8e6886a91478f7ffc1dbb0a98dc240fddd76b7560208410610730575b81601f9101920160051c03905f5b828110610723575050610572565b5f82820155600101610715565b5f9150610707565b634e487b7160e01b5f52604160045260245ffd5b015190508580610521565b601f198216955f51602061229a5f395f51905f525f52805f20915f5b8881106107ba575083600195969798106107a2575b505050811b015f51602061229a5f395f51905f5255610542565b01515f1960f88460031b161c19169055858080610788565b91926020600181928685015181550194019201610773565b81811115610505575f51602061229a5f395f51905f525f52601f820160051c7f42ad5d3e1f2e6e70edcf6d991b8a3023d3fca8047a131592f9edb9fd9b89d57d60208410610844575b81601f9101920160051c03905f5b828110610837575050610505565b5f82820155600101610829565b5f915061081b565b01519050848061045d565b601f198216905f5160206122ba5f395f51905f525f52805f20915f5b8181106108ba575095836001959697106108a2575b505050811b015f5160206122ba5f395f51905f525561047e565b01515f1960f88460031b161c19169055848080610888565b9192602060018192868b015181550194019201610873565b81811115610444575f5160206122ba5f395f51905f525f52601f820160051c7f46a2803e59a4de4e7a4c574b1243f25977ac4c77d5a1a4a609b5394cebb4a2aa60208410610944575b81601f9101920160051c03905f5b828110610937575050610444565b5f82820155600101610929565b5f915061091b565b0151905085806103f3565b601f198216955f51602061225a5f395f51905f525f52805f20915f5b8881106109ba575083600195969798106109a2575b505050811b015f51602061225a5f395f51905f5255610414565b01515f1960f88460031b161c19169055858080610988565b91926020600181928685015181550194019201610973565b818111156103d7575f51602061225a5f395f51905f525f52601f820160051c7f2ae08a8e29253f69ac5d979a101956ab8f8d9d7ded63fa7a83b16fc47648eab060208410610a44575b81601f9101920160051c03905f5b828110610a375750506103d7565b5f82820155600101610a29565b5f9150610a1b565b6801000000000000000060ff60401b195f51602061235a5f395f51905f525416175f51602061235a5f395f51905f5255610385565b63f92ee8a960e01b5f5260045ffd5b9050158361034f565b303b159150610347565b83915061033d565b3461014c575f36600319011261014c57610af2604051610acc6040826119be565b60058152640352e302e360dc1b602082015260405191829160208352602083019061196e565b0390f35b3461014c57604036600319011261014c57610b1c610b12611992565b6024359033611d4d565b602060405160018152f35b3461014c575f36600319011261014c576040515f5f5160206122ba5f395f51905f5254610b53816119df565b8084529060018116908115610bf95750600114610b8f575b610af283610b7b818503826119be565b60405191829160208352602083019061196e565b5f5160206122ba5f395f51905f525f9081527f46a2803e59a4de4e7a4c574b1243f25977ac4c77d5a1a4a609b5394cebb4a2aa939250905b808210610bdf57509091508101602001610b7b610b6b565b919260018160209254838588010152019101909291610bc7565b60ff191660208086019190915291151560051b84019091019150610b7b9050610b6b565b3461014c575f36600319011261014c575f5160206122da5f395f51905f52546040516001600160a01b039091168152602090f35b3461014c575f36600319011261014c57610cab610c6c611a17565b610c74611ae6565b6020610cb960405192610c8783856119be565b5f84525f368137604051958695600f60f81b875260e08588015260e087019061196e565b90858203604087015261196e565b4660608501523060808501525f60a085015283810360c08501528180845192838152019301915f5b828110610cf057505050500390f35b835185528695509381019392810192600101610ce1565b3461014c57602036600319011261014c57610d20611992565b60018060a01b03165f527f5ab42ced628888259c08ac98db1eb0cf702fc1501344311d8b100cd1bfe4bb00602052602060405f2054604051908152f35b3461014c57604036600319011261014c5761014a610d79611992565b60243590610d88823383611c89565b611e51565b3461014c575f36600319011261014c57610da5611e1e565b5f5160206122da5f395f51905f5280546001600160a01b031981169091555f906001600160a01b03167f8be0079c531659141344cd1fd0a4f28419497f9722a3daafe3b4186f6b6457e08280a3005b3461014c57602036600319011261014c576001600160a01b03610e15611992565b165f525f51602061227a5f395f51905f52602052602060405f2054604051908152f35b3461014c575f36600319011261014c57610e50611e1e565b5f51602061235a5f395f51905f525460ff8160401c16908115611516575b50610a81575f51602061235a5f395f51905f52805468ffffffffffffffffff191668010000000000000002179055610ea4611b93565b610eac611bbd565b610eb46120a1565b610ebc6120a1565b81516001600160401b03811161073857610ee35f51602061225a5f395f51905f52546119df565b601f811161149c575b50602092601f821160011461142357928192935f92611418575b50508160011b915f199060031b1c1916175f51602061225a5f395f51905f52555b80516001600160401b03811161073857610f4e5f5160206122ba5f395f51905f52546119df565b601f811161139e575b50602091601f8211600114611326579181925f9261131b575b50508160011b915f199060031b1c1916175f5160206122ba5f395f51905f52555b610f996120a1565b5f5160206122da5f395f51905f5254610fc5906001600160a01b0316610fbd6120a1565b6101456120a1565b610fcd611b93565b610fd56120a1565b604051610fe36040826119be565b60018152603160f81b6020820152610ff96120a1565b81516001600160401b038111610738576110205f51602061229a5f395f51905f52546119df565b601f81116112a1575b50602092601f821160011461122857928192935f9261121d575b50508160011b915f199060031b1c1916175f51602061229a5f395f51905f52555b80516001600160401b0381116107385761108b5f51602061231a5f395f51905f52546119df565b601f81116111a3575b50602091601f821160011461112b579181925f92611120575b50508160011b915f199060031b1c1916175f51602061231a5f395f51905f52555b60ff60401b195f51602061235a5f395f51905f5254165f51602061235a5f395f51905f52557fc7f505b2f371ae2175ee4913f4499e1f2633a7b5936321eed1cdaeb6115181d2602060405160028152a1005b0151905082806110ad565b601f198216925f51602061231a5f395f51905f525f52805f20915f5b85811061118b57508360019510611173575b505050811b015f51602061231a5f395f51905f52556110ce565b01515f1960f88460031b161c19169055828080611159565b91926020600181928685015181550194019201611147565b81811115611094575f51602061231a5f395f51905f525f52601f820160051c7f5f9ce34815f8e11431c7bb75a8e6886a91478f7ffc1dbb0a98dc240fddd76b7560208410611215575b81601f9101920160051c03905f5b828110611208575050611094565b5f828201556001016111fa565b5f91506111ec565b015190508380611043565b601f198216935f51602061229a5f395f51905f525f52805f20915f5b8681106112895750836001959610611271575b505050811b015f51602061229a5f395f51905f5255611064565b01515f1960f88460031b161c19169055838080611257565b91926020600181928685015181550194019201611244565b81811115611029575f51602061229a5f395f51905f525f52601f820160051c7f42ad5d3e1f2e6e70edcf6d991b8a3023d3fca8047a131592f9edb9fd9b89d57d60208410611313575b81601f9101920160051c03905f5b828110611306575050611029565b5f828201556001016112f8565b5f91506112ea565b015190508280610f70565b601f198216925f5160206122ba5f395f51905f525f52805f20915f5b8581106113865750836001951061136e575b505050811b015f5160206122ba5f395f51905f5255610f91565b01515f1960f88460031b161c19169055828080611354565b91926020600181928685015181550194019201611342565b81811115610f57575f5160206122ba5f395f51905f525f52601f820160051c7f46a2803e59a4de4e7a4c574b1243f25977ac4c77d5a1a4a609b5394cebb4a2aa60208410611410575b81601f9101920160051c03905f5b828110611403575050610f57565b5f828201556001016113f5565b5f91506113e7565b015190508380610f06565b601f198216935f51602061225a5f395f51905f525f52805f20915f5b868110611484575083600195961061146c575b505050811b015f51602061225a5f395f51905f5255610f27565b01515f1960f88460031b161c19169055838080611452565b9192602060018192868501518155019401920161143f565b81811115610eec575f51602061225a5f395f51905f525f52601f820160051c7f2ae08a8e29253f69ac5d979a101956ab8f8d9d7ded63fa7a83b16fc47648eab06020841061150e575b81601f9101920160051c03905f5b828110611501575050610eec565b5f828201556001016114f3565b5f91506114e5565b600291506001600160401b0316101581610e6e565b3461014c575f36600319011261014c577f00000000000000000000000000000000000000000000000000000000000000006001600160a01b031630036115825760206040515f51602061233a5f395f51905f528152f35b63703e46dd60e11b5f5260045ffd5b604036600319011261014c576115a5611992565b602435906001600160401b03821161014c573660238301121561014c5781600401356001600160401b03811161073857604051926115ed601f8301601f1916602001856119be565b818452366024838301011161014c57815f9260246020930183870137840101526001600160a01b037f000000000000000000000000000000000000000000000000000000000000000016308114908115611771575b506115825761164f611e1e565b6040516352d1902d60e01b81526001600160a01b0382169290602081600481875afa5f918161173d575b506116915783634c9c8ce360e01b5f5260045260245ffd5b805f51602061233a5f395f51905f5285920361172b5750823b15611719575f51602061233a5f395f51905f5280546001600160a01b031916821790557fbc7cd75a20ee27fd9adebab32041f755214dbc6bffa90cc0225b39da2e5c2d3b5f80a28051156117015761014a916121cd565b50503461170a57005b63b398979f60e01b5f5260045ffd5b634c9c8ce360e01b5f5260045260245ffd5b632a87526960e21b5f5260045260245ffd5b9091506020813d602011611769575b81611759602093836119be565b8101031261014c57519085611679565b3d915061174c565b5f51602061233a5f395f51905f52546001600160a01b03161415905083611642565b3461014c57602036600319011261014c5761014a60043533611e51565b3461014c57604036600319011261014c576117c9611992565b6117d1611e1e565b6001600160a01b038116156106255761014a9060243590611f6a565b3461014c575f36600319011261014c57602061180761202c565b604051908152f35b3461014c575f36600319011261014c576020604051600c8152f35b3461014c57606036600319011261014c57610b1c611846611992565b61184e6119a8565b6044359161185d833383611c89565b611d4d565b3461014c575f36600319011261014c5760205f5160206122fa5f395f51905f5254604051908152f35b3461014c57604036600319011261014c57610b1c6118a7611992565b6024359033611f07565b3461014c575f36600319011261014c576040515f5f51602061225a5f395f51905f52546118dd816119df565b8084529060018116908115610bf9575060011461190457610af283610b7b818503826119be565b5f51602061225a5f395f51905f525f9081527f2ae08a8e29253f69ac5d979a101956ab8f8d9d7ded63fa7a83b16fc47648eab0939250905b80821061195457509091508101602001610b7b610b6b565b91926001816020925483858801015201910190929161193c565b805180835260209291819084018484015e5f828201840152601f01601f1916010190565b600435906001600160a01b038216820361014c57565b602435906001600160a01b038216820361014c57565b90601f801991011681019081106001600160401b0382111761073857604052565b90600182811c92168015611a0d575b60208310146119f957565b634e487b7160e01b5f52602260045260245ffd5b91607f16916119ee565b604051905f825f51602061229a5f395f51905f525491611a36836119df565b8083529260018116908115611ac75750600114611a5c575b611a5a925003836119be565b565b505f51602061229a5f395f51905f525f90815290917f42ad5d3e1f2e6e70edcf6d991b8a3023d3fca8047a131592f9edb9fd9b89d57d5b818310611aab575050906020611a5a92820101611a4e565b6020919350806001915483858901015201910190918492611a93565b60209250611a5a94915060ff191682840152151560051b820101611a4e565b604051905f825f51602061231a5f395f51905f525491611b05836119df565b8083529260018116908115611ac75750600114611b2857611a5a925003836119be565b505f51602061231a5f395f51905f525f90815290917f5f9ce34815f8e11431c7bb75a8e6886a91478f7ffc1dbb0a98dc240fddd76b755b818310611b77575050906020611a5a92820101611a4e565b6020919350806001915483858901015201910190918492611b5f565b60405190611ba26040836119be565b600c82526b57726170706564205661726160a01b6020830152565b60405190611bcc6040836119be565b6005825264575641524160d81b6020830152565b6001600160a01b03165f9081527f52c63247e1f47db19d5ce0460030c497f067ca4cebf71ba98eeadabe20bace016020526040902090565b6001600160a01b03168015611c76575f5160206122da5f395f51905f5280546001600160a01b0319811683179091556001600160a01b03167f8be0079c531659141344cd1fd0a4f28419497f9722a3daafe3b4186f6b6457e05f80a3565b631e4fbdf760e01b5f525f60045260245ffd5b9190611c9483611be0565b60018060a01b0382165f5260205260405f2054925f198410611cb7575b50505050565b828410611d2a576001600160a01b03811615611d17576001600160a01b03821615611d0457611ce590611be0565b9060018060a01b03165f5260205260405f20910390555f808080611cb1565b634a1406b160e11b5f525f60045260245ffd5b63e602df0560e01b5f525f60045260245ffd5b508290637dc7a0d960e11b5f5260018060a01b031660045260245260445260645ffd5b6001600160a01b0316908115611e0b576001600160a01b031691821561062557815f525f51602061227a5f395f51905f5260205260405f2054818110611df257817fddf252ad1be2c89b69c2b068fc378daa952ba7f163c4a11628f55a4df523b3ef92602092855f525f51602061227a5f395f51905f5284520360405f2055845f525f51602061227a5f395f51905f52825260405f20818154019055604051908152a3565b8263391434e360e21b5f5260045260245260445260645ffd5b634b637e8f60e11b5f525f60045260245ffd5b5f5160206122da5f395f51905f52546001600160a01b03163303611e3e57565b63118cdaa760e01b5f523360045260245ffd5b9091906001600160a01b03168015611e0b57805f525f51602061227a5f395f51905f5260205260405f2054838110611eed576020845f94957fddf252ad1be2c89b69c2b068fc378daa952ba7f163c4a11628f55a4df523b3ef938587525f51602061227a5f395f51905f528452036040862055805f5160206122fa5f395f51905f5254035f5160206122fa5f395f51905f5255604051908152a3565b915063391434e360e21b5f5260045260245260445260645ffd5b916001600160a01b038316918215611d17576001600160a01b0316928315611d04577f8c5be1e5ebec7d5bd14f71427d1e84f3dd0314c0f7b2291e5b200ac8c7c3b92591611f56602092611be0565b855f5282528060405f2055604051908152a3565b5f5160206122fa5f395f51905f525490828201809211612018575f5160206122fa5f395f51905f52919091556001600160a01b0316905f907fddf252ad1be2c89b69c2b068fc378daa952ba7f163c4a11628f55a4df523b3ef9060209084611ff657805f5160206122fa5f395f51905f5254035f5160206122fa5f395f51905f52555b604051908152a3565b8484525f51602061227a5f395f51905f52825260408420818154019055611fed565b634e487b7160e01b5f52601160045260245ffd5b612034611a17565b60208151910120612043611ae6565b602081519101206040519060208201927f8b73c3c69bb8fe3d512ecc4cf759cc79239f7b179b0ffacaa9a75d522b39400f8452604083015260608201524660808201523060a082015260a0815261209b60c0826119be565b51902090565b60ff5f51602061235a5f395f51905f525460401c16156120bd57565b631afcd79f60e31b5f5260045ffd5b91907f7fffffffffffffffffffffffffffffff5d576e7357a4501ddfe92f46681b20a0841161214e579160209360809260ff5f9560405194855216868401526040830152606082015282805260015afa15612143575f516001600160a01b0381161561213957905f905f90565b505f906001905f90565b6040513d5f823e3d90fd5b5050505f9160039190565b60048110156121b9578061216b575050565b600181036121825763f645eedf60e01b5f5260045ffd5b6002810361219d575063fce698f760e01b5f5260045260245ffd5b6003146121a75750565b6335e2f38360e21b5f5260045260245ffd5b634e487b7160e01b5f52602160045260245ffd5b905f8091602081519101845af48080612246575b156122015750506040513d81523d5f602083013e60203d82010160405290565b1561222657639996b31560e01b5f9081526001600160a01b0391909116600452602490fd5b3d15612237576040513d5f823e3d90fd5b63d6bda27560e01b5f5260045ffd5b503d1515806121e15750813b15156121e156fe52c63247e1f47db19d5ce0460030c497f067ca4cebf71ba98eeadabe20bace0352c63247e1f47db19d5ce0460030c497f067ca4cebf71ba98eeadabe20bace00a16a46d94261c7517cc8ff89f61c0ce93598e3c849801011dee649a6a557d10252c63247e1f47db19d5ce0460030c497f067ca4cebf71ba98eeadabe20bace049016d09d72d40fdae2fd8ceac6b6234c7706214fd39c1cd1e609a0528c19930052c63247e1f47db19d5ce0460030c497f067ca4cebf71ba98eeadabe20bace02a16a46d94261c7517cc8ff89f61c0ce93598e3c849801011dee649a6a557d103360894a13ba1a3210667c828492db98dca3e2076cc3735a920a3ca505d382bbcf0c57e16840df040f15088dc2f81fe391c3923bec73e23a9662efc9c229c6a00f0c57e16840df040f15088dc2f81fe391c3923bec73e23a9662efc9c229c6a00","linkReferences":{}},"methodIdentifiers":{"DOMAIN_SEPARATOR()":"3644e515","UPGRADE_INTERFACE_VERSION()":"ad3cb1cc","allowance(address,address)":"dd62ed3e","approve(address,uint256)":"095ea7b3","balanceOf(address)":"70a08231","burn(uint256)":"42966c68","burnFrom(address,uint256)":"79cc6790","decimals()":"313ce567","eip712Domain()":"84b0196e","initialize(address)":"c4d66de8","mint(address,uint256)":"40c10f19","name()":"06fdde03","nonces(address)":"7ecebe00","owner()":"8da5cb5b","permit(address,address,uint256,uint256,uint8,bytes32,bytes32)":"d505accf","proxiableUUID()":"52d1902d","reinitialize()":"6c2eb350","renounceOwnership()":"715018a6","symbol()":"95d89b41","totalSupply()":"18160ddd","transfer(address,uint256)":"a9059cbb","transferFrom(address,address,uint256)":"23b872dd","transferOwnership(address)":"f2fde38b","upgradeToAndCall(address,bytes)":"4f1ef286"},"storageLayout":{"storage":[],"types":{}},"id":165}