{"abi":[{"type":"constructor","inputs":[],"stateMutability":"nonpayable"},{"type":"function","name":"DOMAIN_SEPARATOR","inputs":[],"outputs":[{"name":"","type":"bytes32","internalType":"bytes32"}],"stateMutability":"view"},{"type":"function","name":"UPGRADE_INTERFACE_VERSION","inputs":[],"outputs":[{"name":"","type":"string","internalType":"string"}],"stateMutability":"view"},{"type":"function","name":"allowance","inputs":[{"name":"owner","type":"address","internalType":"address"},{"name":"spender","type":"address","internalType":"address"}],"outputs":[{"name":"","type":"uint256","internalType":"uint256"}],"stateMutability":"view"},{"type":"function","name":"approve","inputs":[{"name":"spender","type":"address","internalType":"address"},{"name":"value","type":"uint256","internalType":"uint256"}],"outputs":[{"name":"","type":"bool","internalType":"bool"}],"stateMutability":"nonpayable"},{"type":"function","name":"balanceOf","inputs":[{"name":"account","type":"address","internalType":"address"}],"outputs":[{"name":"","type":"uint256","internalType":"uint256"}],"stateMutability":"view"},{"type":"function","name":"burn","inputs":[{"name":"value","type":"uint256","internalType":"uint256"}],"outputs":[],"stateMutability":"nonpayable"},{"type":"function","name":"burnFrom","inputs":[{"name":"account","type":"address","internalType":"address"},{"name":"value","type":"uint256","internalType":"uint256"}],"outputs":[],"stateMutability":"nonpayable"},{"type":"function","name":"decimals","inputs":[],"outputs":[{"name":"","type":"uint8","internalType":"uint8"}],"stateMutability":"pure"},{"type":"function","name":"eip712Domain","inputs":[],"outputs":[{"name":"fields","type":"bytes1","internalType":"bytes1"},{"name":"name","type":"string","internalType":"string"},{"name":"version","type":"string","internalType":"string"},{"name":"chainId","type":"uint256","internalType":"uint256"},{"name":"verifyingContract","type":"address","internalType":"address"},{"name":"salt","type":"bytes32","internalType":"bytes32"},{"name":"extensions","type":"uint256[]","internalType":"uint256[]"}],"stateMutability":"view"},{"type":"function","name":"initialize","inputs":[{"name":"initialOwner","type":"address","internalType":"address"}],"outputs":[],"stateMutability":"nonpayable"},{"type":"function","name":"mint","inputs":[{"name":"to","type":"address","internalType":"address"},{"name":"amount","type":"uint256","internalType":"uint256"}],"outputs":[],"stateMutability":"nonpayable"},{"type":"function","name":"name","inputs":[],"outputs":[{"name":"","type":"string","internalType":"string"}],"stateMutability":"view"},{"type":"function","name":"nonces","inputs":[{"name":"owner","type":"address","internalType":"address"}],"outputs":[{"name":"","type":"uint256","internalType":"uint256"}],"stateMutability":"view"},{"type":"function","name":"owner","inputs":[],"outputs":[{"name":"","type":"address","internalType":"address"}],"stateMutability":"view"},{"type":"function","name":"permit","inputs":[{"name":"owner","type":"address","internalType":"address"},{"name":"spender","type":"address","internalType":"address"},{"name":"value","type":"uint256","internalType":"uint256"},{"name":"deadline","type":"uint256","internalType":"uint256"},{"name":"v","type":"uint8","internalType":"uint8"},{"name":"r","type":"bytes32","internalType":"bytes32"},{"name":"s","type":"bytes32","internalType":"bytes32"}],"outputs":[],"stateMutability":"nonpayable"},{"type":"function","name":"proxiableUUID","inputs":[],"outputs":[{"name":"","type":"bytes32","internalType":"bytes32"}],"stateMutability":"view"},{"type":"function","name":"reinitialize","inputs":[],"outputs":[],"stateMutability":"nonpayable"},{"type":"function","name":"renounceOwnership","inputs":[],"outputs":[],"stateMutability":"nonpayable"},{"type":"function","name":"symbol","inputs":[],"outputs":[{"name":"","type":"string","internalType":"string"}],"stateMutability":"view"},{"type":"function","name":"totalSupply","inputs":[],"outputs":[{"name":"","type":"uint256","internalType":"uint256"}],"stateMutability":"view"},{"type":"function","name":"transfer","inputs":[{"name":"to","type":"address","internalType":"address"},{"name":"value","type":"uint256","internalType":"uint256"}],"outputs":[{"name":"","type":"bool","internalType":"bool"}],"stateMutability":"nonpayable"},{"type":"function","name":"transferFrom","inputs":[{"name":"from","type":"address","internalType":"address"},{"name":"to","type":"address","internalType":"address"},{"name":"value","type":"uint256","internalType":"uint256"}],"outputs":[{"name":"","type":"bool","internalType":"bool"}],"stateMutability":"nonpayable"},{"type":"function","name":"transferOwnership","inputs":[{"name":"newOwner","type":"address","internalType":"address"}],"outputs":[],"stateMutability":"nonpayable"},{"type":"function","name":"upgradeToAndCall","inputs":[{"name":"newImplementation","type":"address","internalType":"address"},{"name":"data","type":"bytes","internalType":"bytes"}],"outputs":[],"stateMutability":"payable"},{"type":"event","name":"Approval","inputs":[{"name":"owner","type":"address","indexed":true,"internalType":"address"},{"name":"spender","type":"address","indexed":true,"internalType":"address"},{"name":"value","type":"uint256","indexed":false,"internalType":"uint256"}],"anonymous":false},{"type":"event","name":"EIP712DomainChanged","inputs":[],"anonymous":false},{"type":"event","name":"Initialized","inputs":[{"name":"version","type":"uint64","indexed":false,"internalType":"uint64"}],"anonymous":false},{"type":"event","name":"OwnershipTransferred","inputs":[{"name":"previousOwner","type":"address","indexed":true,"internalType":"address"},{"name":"newOwner","type":"address","indexed":true,"internalType":"address"}],"anonymous":false},{"type":"event","name":"Transfer","inputs":[{"name":"from","type":"address","indexed":true,"internalType":"address"},{"name":"to","type":"address","indexed":true,"internalType":"address"},{"name":"value","type":"uint256","indexed":false,"internalType":"uint256"}],"anonymous":false},{"type":"event","name":"Upgraded","inputs":[{"name":"implementation","type":"address","indexed":true,"internalType":"address"}],"anonymous":false},{"type":"error","name":"AddressEmptyCode","inputs":[{"name":"target","type":"address","internalType":"address"}]},{"type":"error","name":"ECDSAInvalidSignature","inputs":[]},{"type":"error","name":"ECDSAInvalidSignatureLength","inputs":[{"name":"length","type":"uint256","internalType":"uint256"}]},{"type":"error","name":"ECDSAInvalidSignatureS","inputs":[{"name":"s","type":"bytes32","internalType":"bytes32"}]},{"type":"error","name":"ERC1967InvalidImplementation","inputs":[{"name":"implementation","type":"address","internalType":"address"}]},{"type":"error","name":"ERC1967NonPayable","inputs":[]},{"type":"error","name":"ERC20InsufficientAllowance","inputs":[{"name":"spender","type":"address","internalType":"address"},{"name":"allowance","type":"uint256","internalType":"uint256"},{"name":"needed","type":"uint256","internalType":"uint256"}]},{"type":"error","name":"ERC20InsufficientBalance","inputs":[{"name":"sender","type":"address","internalType":"address"},{"name":"balance","type":"uint256","internalType":"uint256"},{"name":"needed","type":"uint256","internalType":"uint256"}]},{"type":"error","name":"ERC20InvalidApprover","inputs":[{"name":"approver","type":"address","internalType":"address"}]},{"type":"error","name":"ERC20InvalidReceiver","inputs":[{"name":"receiver","type":"address","internalType":"address"}]},{"type":"error","name":"ERC20InvalidSender","inputs":[{"name":"sender","type":"address","internalType":"address"}]},{"type":"error","name":"ERC20InvalidSpender","inputs":[{"name":"spender","type":"address","internalType":"address"}]},{"type":"error","name":"ERC2612ExpiredSignature","inputs":[{"name":"deadline","type":"uint256","internalType":"uint256"}]},{"type":"error","name":"ERC2612InvalidSigner","inputs":[{"name":"signer","type":"address","internalType":"address"},{"name":"owner","type":"address","internalType":"address"}]},{"type":"error","name":"FailedCall","inputs":[]},{"type":"error","name":"InvalidAccountNonce","inputs":[{"name":"account","type":"address","internalType":"address"},{"name":"currentNonce","type":"uint256","internalType":"uint256"}]},{"type":"error","name":"InvalidInitialization","inputs":[]},{"type":"error","name":"NotInitializing","inputs":[]},{"type":"error","name":"OwnableInvalidOwner","inputs":[{"name":"owner","type":"address","internalType":"address"}]},{"type":"error","name":"OwnableUnauthorizedAccount","inputs":[{"name":"account","type":"address","internalType":"address"}]},{"type":"error","name":"UUPSUnauthorizedCallContext","inputs":[]},{"type":"error","name":"UUPSUnsupportedProxiableUUID","inputs":[{"name":"slot","type":"bytes32","internalType":"bytes32"}]}],"bytecode":{"object":"0x60a080604052346100c257306080525f5160206125c65f395f51905f525460ff8160401c166100b3576002600160401b03196001600160401b03821601610060575b6040516124ff90816100c782396080518181816115ec01526116bb0152f35b6001600160401b0319166001600160401b039081175f5160206125c65f395f51905f525581527fc7f505b2f371ae2175ee4913f4499e1f2633a7b5936321eed1cdaeb6115181d290602090a15f80610041565b63f92ee8a960e01b5f5260045ffd5b5f80fdfe60806040526004361015610011575f80fd5b5f3560e01c806306fdde031461198e578063095ea7b31461196857806318160ddd1461193f57806323b872dd14611907578063313ce567146118ec5780633644e515146118ca57806340c10f191461188d57806342966c68146118705780634f1ef2861461164057806352d1902d146115da5780636c2eb35014610ec757806370a0823114610e83578063715018a614610e1c57806379cc679014610dec5780637ecebe0014610d9657806384b0196e14610c725780638da5cb5b14610c3e57806395d89b4114610b48578063a9059cbb14610b17578063ad3cb1cc14610acc578063c4d66de8146102f9578063d505accf14610197578063dd62ed3e146101505763f2fde38b14610121575f80fd5b3461014c57602036600319011261014c5761014a61013d611a6f565b610145611f16565b611d10565b005b5f80fd5b3461014c57604036600319011261014c57610169611a6f565b61017a610174611a85565b91611cd8565b9060018060a01b03165f52602052602060405f2054604051908152f35b3461014c5760e036600319011261014c576101b0611a6f565b6101b8611a85565b604435906064359260843560ff8116810361014c578442116102e6576102ab6102b49160018060a01b03841696875f527f5ab42ced628888259c08ac98db1eb0cf702fc1501344311d8b100cd1bfe4bb0060205260405f20908154916001830190556040519060208201927f6e71edae12b1b97f4d1f60370fef10105fa2faae0126114a169c64845d6126c984528a604084015260018060a01b038916606084015289608084015260a083015260c082015260c0815261027960e082611a9b565b519020610284612124565b906040519161190160f01b83526002830152602282015260c43591604260a43592206121b6565b90929192612243565b6001600160a01b03168481036102cf575061014a9350611fff565b84906325c0072360e11b5f5260045260245260445ffd5b8463313c898160e11b5f5260045260245ffd5b3461014c57602036600319011261014c57610312611a6f565b5f5160206124bf5f395f51905f5254906001600160401b0360ff8360401c1615921680159081610ac4575b6001149081610aba575b159081610ab1575b50610aa2578160016001600160401b03195f5160206124bf5f395f51905f525416175f5160206124bf5f395f51905f5255610a6d575b61038d611c8b565b91610396611cb5565b9161039f61218b565b6103a761218b565b83516001600160401b038111610759576103ce5f51602061239f5f395f51905f5254611ad7565b601f81116109f3575b50602094601f8211600114610978579481929394955f9261096d575b50508160011b915f199060031b1c1916175f51602061239f5f395f51905f52555b82516001600160401b0381116107595761043b5f5160206123ff5f395f51905f5254611ad7565b601f81116108f3575b506020601f821160011461087857819293945f9261086d575b50508160011b915f199060031b1c1916175f5160206123ff5f395f51905f52555b61048661218b565b61048e61218b565b61049661218b565b61049f81611d10565b6104a7611c8b565b916104b061218b565b604051916104bf604084611a9b565b60018352603160f81b60208401526104d561218b565b83516001600160401b038111610759576104fc5f5160206123df5f395f51905f5254611ad7565b601f81116107f3575b50602094601f8211600114610778579481929394955f9261076d575b50508160011b915f199060031b1c1916175f5160206123df5f395f51905f52555b82516001600160401b038111610759576105695f51602061245f5f395f51905f5254611ad7565b601f81116106df575b506020601f821160011461066457819293945f92610659575b50508160011b915f199060031b1c1916175f51602061245f5f395f51905f52555b5f5f51602061247f5f395f51905f528190555f5160206124df5f395f51905f52556001600160a01b0381161561064657670de0b6b3a76400006105ee91612062565b6105f457005b60ff60401b195f5160206124bf5f395f51905f5254165f5160206124bf5f395f51905f52557fc7f505b2f371ae2175ee4913f4499e1f2633a7b5936321eed1cdaeb6115181d2602060405160018152a1005b63ec442f0560e01b5f525f60045260245ffd5b01519050848061058b565b601f198216905f51602061245f5f395f51905f525f52805f20915f5b8181106106c7575095836001959697106106af575b505050811b015f51602061245f5f395f51905f52556105ac565b01515f1960f88460031b161c19169055848080610695565b9192602060018192868b015181550194019201610680565b81811115610572575f51602061245f5f395f51905f525f52601f820160051c7f5f9ce34815f8e11431c7bb75a8e6886a91478f7ffc1dbb0a98dc240fddd76b7560208410610751575b81601f9101920160051c03905f5b828110610744575050610572565b5f82820155600101610736565b5f9150610728565b634e487b7160e01b5f52604160045260245ffd5b015190508580610521565b601f198216955f5160206123df5f395f51905f525f52805f20915f5b8881106107db575083600195969798106107c3575b505050811b015f5160206123df5f395f51905f5255610542565b01515f1960f88460031b161c191690558580806107a9565b91926020600181928685015181550194019201610794565b81811115610505575f5160206123df5f395f51905f525f52601f820160051c7f42ad5d3e1f2e6e70edcf6d991b8a3023d3fca8047a131592f9edb9fd9b89d57d60208410610865575b81601f9101920160051c03905f5b828110610858575050610505565b5f8282015560010161084a565b5f915061083c565b01519050848061045d565b601f198216905f5160206123ff5f395f51905f525f52805f20915f5b8181106108db575095836001959697106108c3575b505050811b015f5160206123ff5f395f51905f525561047e565b01515f1960f88460031b161c191690558480806108a9565b9192602060018192868b015181550194019201610894565b81811115610444575f5160206123ff5f395f51905f525f52601f820160051c7f46a2803e59a4de4e7a4c574b1243f25977ac4c77d5a1a4a609b5394cebb4a2aa60208410610965575b81601f9101920160051c03905f5b828110610958575050610444565b5f8282015560010161094a565b5f915061093c565b0151905085806103f3565b601f198216955f51602061239f5f395f51905f525f52805f20915f5b8881106109db575083600195969798106109c3575b505050811b015f51602061239f5f395f51905f5255610414565b01515f1960f88460031b161c191690558580806109a9565b91926020600181928685015181550194019201610994565b818111156103d7575f51602061239f5f395f51905f525f52601f820160051c7f2ae08a8e29253f69ac5d979a101956ab8f8d9d7ded63fa7a83b16fc47648eab060208410610a65575b81601f9101920160051c03905f5b828110610a585750506103d7565b5f82820155600101610a4a565b5f9150610a3c565b6801000000000000000060ff60401b195f5160206124bf5f395f51905f525416175f5160206124bf5f395f51905f5255610385565b63f92ee8a960e01b5f5260045ffd5b9050158361034f565b303b159150610347565b83915061033d565b3461014c575f36600319011261014c57610b13604051610aed604082611a9b565b60058152640352e302e360dc1b6020820152604051918291602083526020830190611a4b565b0390f35b3461014c57604036600319011261014c57610b3d610b33611a6f565b6024359033611e45565b602060405160018152f35b3461014c575f36600319011261014c576040515f5f5160206123ff5f395f51905f5254610b7481611ad7565b8084529060018116908115610c1a5750600114610bb0575b610b1383610b9c81850382611a9b565b604051918291602083526020830190611a4b565b5f5160206123ff5f395f51905f525f9081527f46a2803e59a4de4e7a4c574b1243f25977ac4c77d5a1a4a609b5394cebb4a2aa939250905b808210610c0057509091508101602001610b9c610b8c565b919260018160209254838588010152019101909291610be8565b60ff191660208086019190915291151560051b84019091019150610b9c9050610b8c565b3461014c575f36600319011261014c575f51602061241f5f395f51905f52546040516001600160a01b039091168152602090f35b3461014c575f36600319011261014c575f51602061247f5f395f51905f52541580610d80575b15610d4357610ce7610ca8611b0f565b610cb0611bde565b6020610cf560405192610cc38385611a9b565b5f84525f368137604051958695600f60f81b875260e08588015260e0870190611a4b565b908582036040870152611a4b565b4660608501523060808501525f60a085015283810360c08501528180845192838152019301915f5b828110610d2c57505050500390f35b835185528695509381019392810192600101610d1d565b60405162461bcd60e51b81526020600482015260156024820152741152540dcc4c8e88155b9a5b9a5d1a585b1a5e9959605a1b6044820152606490fd5b505f5160206124df5f395f51905f525415610c98565b3461014c57602036600319011261014c57610daf611a6f565b60018060a01b03165f527f5ab42ced628888259c08ac98db1eb0cf702fc1501344311d8b100cd1bfe4bb00602052602060405f2054604051908152f35b3461014c57604036600319011261014c5761014a610e08611a6f565b60243590610e17823383611d81565b611f49565b3461014c575f36600319011261014c57610e34611f16565b5f51602061241f5f395f51905f5280546001600160a01b031981169091555f906001600160a01b03167f8be0079c531659141344cd1fd0a4f28419497f9722a3daafe3b4186f6b6457e08280a3005b3461014c57602036600319011261014c576001600160a01b03610ea4611a6f565b165f525f5160206123bf5f395f51905f52602052602060405f2054604051908152f35b3461014c575f36600319011261014c57610edf611f16565b5f5160206124bf5f395f51905f525460ff8160401c169081156115c5575b50610aa2575f5160206124bf5f395f51905f52805468ffffffffffffffffff191668010000000000000002179055610f33611c8b565b610f3b611cb5565b610f4361218b565b610f4b61218b565b81516001600160401b03811161075957610f725f51602061239f5f395f51905f5254611ad7565b601f811161154b575b50602092601f82116001146114d257928192935f926114c7575b50508160011b915f199060031b1c1916175f51602061239f5f395f51905f52555b80516001600160401b03811161075957610fdd5f5160206123ff5f395f51905f5254611ad7565b601f811161144d575b50602091601f82116001146113d5579181925f926113ca575b50508160011b915f199060031b1c1916175f5160206123ff5f395f51905f52555b61102861218b565b5f51602061241f5f395f51905f5254611054906001600160a01b031661104c61218b565b61014561218b565b61105c611c8b565b61106461218b565b604051611072604082611a9b565b60018152603160f81b602082015261108861218b565b81516001600160401b038111610759576110af5f5160206123df5f395f51905f5254611ad7565b601f8111611350575b50602092601f82116001146112d757928192935f926112cc575b50508160011b915f199060031b1c1916175f5160206123df5f395f51905f52555b80516001600160401b0381116107595761111a5f51602061245f5f395f51905f5254611ad7565b601f8111611252575b50602091601f82116001146111da579181925f926111cf575b50508160011b915f199060031b1c1916175f51602061245f5f395f51905f52555b5f5f51602061247f5f395f51905f52555f5f5160206124df5f395f51905f525560ff60401b195f5160206124bf5f395f51905f5254165f5160206124bf5f395f51905f52557fc7f505b2f371ae2175ee4913f4499e1f2633a7b5936321eed1cdaeb6115181d2602060405160028152a1005b01519050828061113c565b601f198216925f51602061245f5f395f51905f525f52805f20915f5b85811061123a57508360019510611222575b505050811b015f51602061245f5f395f51905f525561115d565b01515f1960f88460031b161c19169055828080611208565b919260206001819286850151815501940192016111f6565b81811115611123575f51602061245f5f395f51905f525f52601f820160051c7f5f9ce34815f8e11431c7bb75a8e6886a91478f7ffc1dbb0a98dc240fddd76b75602084106112c4575b81601f9101920160051c03905f5b8281106112b7575050611123565b5f828201556001016112a9565b5f915061129b565b0151905083806110d2565b601f198216935f5160206123df5f395f51905f525f52805f20915f5b8681106113385750836001959610611320575b505050811b015f5160206123df5f395f51905f52556110f3565b01515f1960f88460031b161c19169055838080611306565b919260206001819286850151815501940192016112f3565b818111156110b8575f5160206123df5f395f51905f525f52601f820160051c7f42ad5d3e1f2e6e70edcf6d991b8a3023d3fca8047a131592f9edb9fd9b89d57d602084106113c2575b81601f9101920160051c03905f5b8281106113b55750506110b8565b5f828201556001016113a7565b5f9150611399565b015190508280610fff565b601f198216925f5160206123ff5f395f51905f525f52805f20915f5b8581106114355750836001951061141d575b505050811b015f5160206123ff5f395f51905f5255611020565b01515f1960f88460031b161c19169055828080611403565b919260206001819286850151815501940192016113f1565b81811115610fe6575f5160206123ff5f395f51905f525f52601f820160051c7f46a2803e59a4de4e7a4c574b1243f25977ac4c77d5a1a4a609b5394cebb4a2aa602084106114bf575b81601f9101920160051c03905f5b8281106114b2575050610fe6565b5f828201556001016114a4565b5f9150611496565b015190508380610f95565b601f198216935f51602061239f5f395f51905f525f52805f20915f5b868110611533575083600195961061151b575b505050811b015f51602061239f5f395f51905f5255610fb6565b01515f1960f88460031b161c19169055838080611501565b919260206001819286850151815501940192016114ee565b81811115610f7b575f51602061239f5f395f51905f525f52601f820160051c7f2ae08a8e29253f69ac5d979a101956ab8f8d9d7ded63fa7a83b16fc47648eab0602084106115bd575b81601f9101920160051c03905f5b8281106115b0575050610f7b565b5f828201556001016115a2565b5f9150611594565b600291506001600160401b0316101581610efd565b3461014c575f36600319011261014c577f00000000000000000000000000000000000000000000000000000000000000006001600160a01b031630036116315760206040515f51602061249f5f395f51905f528152f35b63703e46dd60e11b5f5260045ffd5b604036600319011261014c57611654611a6f565b602435906001600160401b03821161014c573660238301121561014c5781600401359061168082611abc565b9161168e6040519384611a9b565b8083526020830193366024838301011161014c57815f926024602093018737840101526001600160a01b037f00000000000000000000000000000000000000000000000000000000000000001630811490811561184e575b50611631576116f3611f16565b6040516352d1902d60e01b81526001600160a01b0382169390602081600481885afa5f918161181a575b506117355784634c9c8ce360e01b5f5260045260245ffd5b805f51602061249f5f395f51905f528692036118085750823b156117f6575f51602061249f5f395f51905f5280546001600160a01b031916821790557fbc7cd75a20ee27fd9adebab32041f755214dbc6bffa90cc0225b39da2e5c2d3b5f80a28251156117dd575f809161014a945190845af43d156117d5573d916117b983611abc565b926117c76040519485611a9b565b83523d5f602085013e612340565b606091612340565b505050346117e757005b63b398979f60e01b5f5260045ffd5b634c9c8ce360e01b5f5260045260245ffd5b632a87526960e21b5f5260045260245ffd5b9091506020813d602011611846575b8161183660209383611a9b565b8101031261014c5751908661171d565b3d9150611829565b5f51602061249f5f395f51905f52546001600160a01b031614159050846116e6565b3461014c57602036600319011261014c5761014a60043533611f49565b3461014c57604036600319011261014c576118a6611a6f565b6118ae611f16565b6001600160a01b038116156106465761014a9060243590612062565b3461014c575f36600319011261014c5760206118e4612124565b604051908152f35b3461014c575f36600319011261014c576020604051600c8152f35b3461014c57606036600319011261014c57610b3d611923611a6f565b61192b611a85565b6044359161193a833383611d81565b611e45565b3461014c575f36600319011261014c5760205f51602061243f5f395f51905f5254604051908152f35b3461014c57604036600319011261014c57610b3d611984611a6f565b6024359033611fff565b3461014c575f36600319011261014c576040515f5f51602061239f5f395f51905f52546119ba81611ad7565b8084529060018116908115610c1a57506001146119e157610b1383610b9c81850382611a9b565b5f51602061239f5f395f51905f525f9081527f2ae08a8e29253f69ac5d979a101956ab8f8d9d7ded63fa7a83b16fc47648eab0939250905b808210611a3157509091508101602001610b9c610b8c565b919260018160209254838588010152019101909291611a19565b805180835260209291819084018484015e5f828201840152601f01601f1916010190565b600435906001600160a01b038216820361014c57565b602435906001600160a01b038216820361014c57565b90601f801991011681019081106001600160401b0382111761075957604052565b6001600160401b03811161075957601f01601f191660200190565b90600182811c92168015611b05575b6020831014611af157565b634e487b7160e01b5f52602260045260245ffd5b91607f1691611ae6565b604051905f825f5160206123df5f395f51905f525491611b2e83611ad7565b8083529260018116908115611bbf5750600114611b54575b611b5292500383611a9b565b565b505f5160206123df5f395f51905f525f90815290917f42ad5d3e1f2e6e70edcf6d991b8a3023d3fca8047a131592f9edb9fd9b89d57d5b818310611ba3575050906020611b5292820101611b46565b6020919350806001915483858901015201910190918492611b8b565b60209250611b5294915060ff191682840152151560051b820101611b46565b604051905f825f51602061245f5f395f51905f525491611bfd83611ad7565b8083529260018116908115611bbf5750600114611c2057611b5292500383611a9b565b505f51602061245f5f395f51905f525f90815290917f5f9ce34815f8e11431c7bb75a8e6886a91478f7ffc1dbb0a98dc240fddd76b755b818310611c6f575050906020611b5292820101611b46565b6020919350806001915483858901015201910190918492611c57565b60405190611c9a604083611a9b565b600c82526b57726170706564205661726160a01b6020830152565b60405190611cc4604083611a9b565b6005825264575641524160d81b6020830152565b6001600160a01b03165f9081527f52c63247e1f47db19d5ce0460030c497f067ca4cebf71ba98eeadabe20bace016020526040902090565b6001600160a01b03168015611d6e575f51602061241f5f395f51905f5280546001600160a01b0319811683179091556001600160a01b03167f8be0079c531659141344cd1fd0a4f28419497f9722a3daafe3b4186f6b6457e05f80a3565b631e4fbdf760e01b5f525f60045260245ffd5b9190611d8c83611cd8565b60018060a01b0382165f5260205260405f2054925f198410611daf575b50505050565b828410611e22576001600160a01b03811615611e0f576001600160a01b03821615611dfc57611ddd90611cd8565b9060018060a01b03165f5260205260405f20910390555f808080611da9565b634a1406b160e11b5f525f60045260245ffd5b63e602df0560e01b5f525f60045260245ffd5b508290637dc7a0d960e11b5f5260018060a01b031660045260245260445260645ffd5b6001600160a01b0316908115611f03576001600160a01b031691821561064657815f525f5160206123bf5f395f51905f5260205260405f2054818110611eea57817fddf252ad1be2c89b69c2b068fc378daa952ba7f163c4a11628f55a4df523b3ef92602092855f525f5160206123bf5f395f51905f5284520360405f2055845f525f5160206123bf5f395f51905f52825260405f20818154019055604051908152a3565b8263391434e360e21b5f5260045260245260445260645ffd5b634b637e8f60e11b5f525f60045260245ffd5b5f51602061241f5f395f51905f52546001600160a01b03163303611f3657565b63118cdaa760e01b5f523360045260245ffd5b9091906001600160a01b03168015611f0357805f525f5160206123bf5f395f51905f5260205260405f2054838110611fe5576020845f94957fddf252ad1be2c89b69c2b068fc378daa952ba7f163c4a11628f55a4df523b3ef938587525f5160206123bf5f395f51905f528452036040862055805f51602061243f5f395f51905f5254035f51602061243f5f395f51905f5255604051908152a3565b915063391434e360e21b5f5260045260245260445260645ffd5b916001600160a01b038316918215611e0f576001600160a01b0316928315611dfc577f8c5be1e5ebec7d5bd14f71427d1e84f3dd0314c0f7b2291e5b200ac8c7c3b9259161204e602092611cd8565b855f5282528060405f2055604051908152a3565b5f51602061243f5f395f51905f525490828201809211612110575f51602061243f5f395f51905f52919091556001600160a01b0316905f907fddf252ad1be2c89b69c2b068fc378daa952ba7f163c4a11628f55a4df523b3ef90602090846120ee57805f51602061243f5f395f51905f5254035f51602061243f5f395f51905f52555b604051908152a3565b8484525f5160206123bf5f395f51905f528252604084208181540190556120e5565b634e487b7160e01b5f52601160045260245ffd5b61212c6122b7565b61213461230e565b6040519060208201927f8b73c3c69bb8fe3d512ecc4cf759cc79239f7b179b0ffacaa9a75d522b39400f8452604083015260608201524660808201523060a082015260a0815261218560c082611a9b565b51902090565b60ff5f5160206124bf5f395f51905f525460401c16156121a757565b631afcd79f60e31b5f5260045ffd5b91907f7fffffffffffffffffffffffffffffff5d576e7357a4501ddfe92f46681b20a08411612238579160209360809260ff5f9560405194855216868401526040830152606082015282805260015afa1561222d575f516001600160a01b0381161561222357905f905f90565b505f906001905f90565b6040513d5f823e3d90fd5b5050505f9160039190565b60048110156122a35780612255575050565b6001810361226c5763f645eedf60e01b5f5260045ffd5b60028103612287575063fce698f760e01b5f5260045260245ffd5b6003146122915750565b6335e2f38360e21b5f5260045260245ffd5b634e487b7160e01b5f52602160045260245ffd5b6122bf611b0f565b80519081156122cf576020012090565b50505f51602061247f5f395f51905f525480156122e95790565b507fc5d2460186f7233c927e7db2dcc703c0e500b653ca82273b7bfad8045d85a47090565b612316611bde565b8051908115612326576020012090565b50505f5160206124df5f395f51905f525480156122e95790565b90612364575080511561235557602081519101fd5b63d6bda27560e01b5f5260045ffd5b81511580612395575b612375575090565b639996b31560e01b5f9081526001600160a01b0391909116600452602490fd5b50803b1561236d56fe52c63247e1f47db19d5ce0460030c497f067ca4cebf71ba98eeadabe20bace0352c63247e1f47db19d5ce0460030c497f067ca4cebf71ba98eeadabe20bace00a16a46d94261c7517cc8ff89f61c0ce93598e3c849801011dee649a6a557d10252c63247e1f47db19d5ce0460030c497f067ca4cebf71ba98eeadabe20bace049016d09d72d40fdae2fd8ceac6b6234c7706214fd39c1cd1e609a0528c19930052c63247e1f47db19d5ce0460030c497f067ca4cebf71ba98eeadabe20bace02a16a46d94261c7517cc8ff89f61c0ce93598e3c849801011dee649a6a557d103a16a46d94261c7517cc8ff89f61c0ce93598e3c849801011dee649a6a557d100360894a13ba1a3210667c828492db98dca3e2076cc3735a920a3ca505d382bbcf0c57e16840df040f15088dc2f81fe391c3923bec73e23a9662efc9c229c6a00a16a46d94261c7517cc8ff89f61c0ce93598e3c849801011dee649a6a557d101f0c57e16840df040f15088dc2f81fe391c3923bec73e23a9662efc9c229c6a00","linkReferences":{}},"methodIdentifiers":{"DOMAIN_SEPARATOR()":"3644e515","UPGRADE_INTERFACE_VERSION()":"ad3cb1cc","allowance(address,address)":"dd62ed3e","approve(address,uint256)":"095ea7b3","balanceOf(address)":"70a08231","burn(uint256)":"42966c68","burnFrom(address,uint256)":"79cc6790","decimals()":"313ce567","eip712Domain()":"84b0196e","initialize(address)":"c4d66de8","mint(address,uint256)":"40c10f19","name()":"06fdde03","nonces(address)":"7ecebe00","owner()":"8da5cb5b","permit(address,address,uint256,uint256,uint8,bytes32,bytes32)":"d505accf","proxiableUUID()":"52d1902d","reinitialize()":"6c2eb350","renounceOwnership()":"715018a6","symbol()":"95d89b41","totalSupply()":"18160ddd","transfer(address,uint256)":"a9059cbb","transferFrom(address,address,uint256)":"23b872dd","transferOwnership(address)":"f2fde38b","upgradeToAndCall(address,bytes)":"4f1ef286"},"storageLayout":{"storage":[],"types":{}},"id":166}