{"abi":[{"type":"function","name":"COMPUTATION_THRESHOLD","inputs":[],"outputs":[{"name":"","type":"uint64","internalType":"uint64"}],"stateMutability":"view"},{"type":"function","name":"SIGNING_THRESHOLD_PERCENTAGE","inputs":[],"outputs":[{"name":"","type":"uint16","internalType":"uint16"}],"stateMutability":"view"},{"type":"function","name":"WVARA_PER_SECOND","inputs":[],"outputs":[{"name":"","type":"uint128","internalType":"uint128"}],"stateMutability":"view"}],"bytecode":{"object":"0x6080806040523460175760839081601c823930815050f35b5f80fdfe60808060405260043610156011575f80fd5b5f3560e01c9081632c184e1c14606b575080637770806c14605557637841919a146039575f80fd5b5f3660031901126051576020604051639502f9008152f35b5f80fd5b5f3660031901126051576020604051611a0a8152f35b5f366003190112605157806509184e72a00060209252f3","linkReferences":{}},"methodIdentifiers":{"COMPUTATION_THRESHOLD()":"7841919a","SIGNING_THRESHOLD_PERCENTAGE()":"7770806c","WVARA_PER_SECOND()":"2c184e1c"},"storageLayout":{"storage":[],"types":{}},"id":156}