{"abi":[{"type":"constructor","inputs":[],"stateMutability":"nonpayable"},{"type":"function","name":"allowedVaultImplVersion","inputs":[],"outputs":[{"name":"","type":"uint64","internalType":"uint64"}],"stateMutability":"view"},{"type":"function","name":"changeSlashExecutor","inputs":[{"name":"newRole","type":"address","internalType":"address"}],"outputs":[],"stateMutability":"nonpayable"},{"type":"function","name":"changeSlashRequester","inputs":[{"name":"newRole","type":"address","internalType":"address"}],"outputs":[],"stateMutability":"nonpayable"},{"type":"function","name":"collateral","inputs":[],"outputs":[{"name":"","type":"address","internalType":"address"}],"stateMutability":"view"},{"type":"function","name":"disableOperator","inputs":[],"outputs":[],"stateMutability":"nonpayable"},{"type":"function","name":"disableVault","inputs":[{"name":"vault","type":"address","internalType":"address"}],"outputs":[],"stateMutability":"nonpayable"},{"type":"function","name":"distributeOperatorRewards","inputs":[{"name":"token","type":"address","internalType":"address"},{"name":"amount","type":"uint256","internalType":"uint256"},{"name":"root","type":"bytes32","internalType":"bytes32"}],"outputs":[{"name":"","type":"bytes32","internalType":"bytes32"}],"stateMutability":"nonpayable"},{"type":"function","name":"distributeStakerRewards","inputs":[{"name":"_commitment","type":"tuple","internalType":"struct Gear.StakerRewardsCommitment","components":[{"name":"distribution","type":"tuple[]","internalType":"struct Gear.StakerRewards[]","components":[{"name":"vault","type":"address","internalType":"address"},{"name":"amount","type":"uint256","internalType":"uint256"}]},{"name":"totalAmount","type":"uint256","internalType":"uint256"},{"name":"token","type":"address","internalType":"address"}]},{"name":"timestamp","type":"uint48","internalType":"uint48"}],"outputs":[{"name":"","type":"bytes32","internalType":"bytes32"}],"stateMutability":"nonpayable"},{"type":"function","name":"enableOperator","inputs":[],"outputs":[],"stateMutability":"nonpayable"},{"type":"function","name":"enableVault","inputs":[{"name":"vault","type":"address","internalType":"address"}],"outputs":[],"stateMutability":"nonpayable"},{"type":"function","name":"eraDuration","inputs":[],"outputs":[{"name":"","type":"uint48","internalType":"uint48"}],"stateMutability":"view"},{"type":"function","name":"executeSlash","inputs":[{"name":"slashes","type":"tuple[]","internalType":"struct IMiddleware.SlashIdentifier[]","components":[{"name":"vault","type":"address","internalType":"address"},{"name":"index","type":"uint256","internalType":"uint256"}]}],"outputs":[],"stateMutability":"nonpayable"},{"type":"function","name":"getActiveOperatorsStakeAt","inputs":[{"name":"ts","type":"uint48","internalType":"uint48"}],"outputs":[{"name":"activeOperators","type":"address[]","internalType":"address[]"},{"name":"stakes","type":"uint256[]","internalType":"uint256[]"}],"stateMutability":"view"},{"type":"function","name":"getOperatorStakeAt","inputs":[{"name":"operator","type":"address","internalType":"address"},{"name":"ts","type":"uint48","internalType":"uint48"}],"outputs":[{"name":"stake","type":"uint256","internalType":"uint256"}],"stateMutability":"view"},{"type":"function","name":"initialize","inputs":[{"name":"_params","type":"tuple","internalType":"struct IMiddleware.InitParams","components":[{"name":"owner","type":"address","internalType":"address"},{"name":"eraDuration","type":"uint48","internalType":"uint48"},{"name":"minVaultEpochDuration","type":"uint48","internalType":"uint48"},{"name":"operatorGracePeriod","type":"uint48","internalType":"uint48"},{"name":"vaultGracePeriod","type":"uint48","internalType":"uint48"},{"name":"minVetoDuration","type":"uint48","internalType":"uint48"},{"name":"minSlashExecutionDelay","type":"uint48","internalType":"uint48"},{"name":"allowedVaultImplVersion","type":"uint64","internalType":"uint64"},{"name":"vetoSlasherImplType","type":"uint64","internalType":"uint64"},{"name":"maxResolverSetEpochsDelay","type":"uint256","internalType":"uint256"},{"name":"collateral","type":"address","internalType":"address"},{"name":"maxAdminFee","type":"uint256","internalType":"uint256"},{"name":"operatorRewards","type":"address","internalType":"address"},{"name":"router","type":"address","internalType":"address"},{"name":"roleSlashRequester","type":"address","internalType":"address"},{"name":"roleSlashExecutor","type":"address","internalType":"address"},{"name":"vetoResolver","type":"address","internalType":"address"},{"name":"registries","type":"tuple","internalType":"struct Gear.SymbioticRegistries","components":[{"name":"vaultRegistry","type":"address","internalType":"address"},{"name":"operatorRegistry","type":"address","internalType":"address"},{"name":"networkRegistry","type":"address","internalType":"address"},{"name":"middlewareService","type":"address","internalType":"address"},{"name":"networkOptIn","type":"address","internalType":"address"},{"name":"stakerRewardsFactory","type":"address","internalType":"address"}]}]}],"outputs":[],"stateMutability":"nonpayable"},{"type":"function","name":"makeElectionAt","inputs":[{"name":"ts","type":"uint48","internalType":"uint48"},{"name":"maxValidators","type":"uint256","internalType":"uint256"}],"outputs":[{"name":"","type":"address[]","internalType":"address[]"}],"stateMutability":"view"},{"type":"function","name":"maxAdminFee","inputs":[],"outputs":[{"name":"","type":"uint256","internalType":"uint256"}],"stateMutability":"view"},{"type":"function","name":"maxResolverSetEpochsDelay","inputs":[],"outputs":[{"name":"","type":"uint256","internalType":"uint256"}],"stateMutability":"view"},{"type":"function","name":"minSlashExecutionDelay","inputs":[],"outputs":[{"name":"","type":"uint48","internalType":"uint48"}],"stateMutability":"view"},{"type":"function","name":"minVaultEpochDuration","inputs":[],"outputs":[{"name":"","type":"uint48","internalType":"uint48"}],"stateMutability":"view"},{"type":"function","name":"minVetoDuration","inputs":[],"outputs":[{"name":"","type":"uint48","internalType":"uint48"}],"stateMutability":"view"},{"type":"function","name":"operatorGracePeriod","inputs":[],"outputs":[{"name":"","type":"uint48","internalType":"uint48"}],"stateMutability":"view"},{"type":"function","name":"operatorRegistry","inputs":[],"outputs":[{"name":"","type":"address","internalType":"address"}],"stateMutability":"view"},{"type":"function","name":"operatorRewards","inputs":[],"outputs":[{"name":"","type":"address","internalType":"address"}],"stateMutability":"view"},{"type":"function","name":"owner","inputs":[],"outputs":[{"name":"","type":"address","internalType":"address"}],"stateMutability":"view"},{"type":"function","name":"registerOperator","inputs":[],"outputs":[],"stateMutability":"nonpayable"},{"type":"function","name":"registerVault","inputs":[{"name":"_vault","type":"address","internalType":"address"},{"name":"_rewards","type":"address","internalType":"address"}],"outputs":[],"stateMutability":"nonpayable"},{"type":"function","name":"reinitialize","inputs":[],"outputs":[],"stateMutability":"nonpayable"},{"type":"function","name":"renounceOwnership","inputs":[],"outputs":[],"stateMutability":"nonpayable"},{"type":"function","name":"requestSlash","inputs":[{"name":"data","type":"tuple[]","internalType":"struct IMiddleware.SlashData[]","components":[{"name":"operator","type":"address","internalType":"address"},{"name":"ts","type":"uint48","internalType":"uint48"},{"name":"vaults","type":"tuple[]","internalType":"struct IMiddleware.VaultSlashData[]","components":[{"name":"vault","type":"address","internalType":"address"},{"name":"amount","type":"uint256","internalType":"uint256"}]}]}],"outputs":[],"stateMutability":"nonpayable"},{"type":"function","name":"roleSlashExecutor","inputs":[],"outputs":[{"name":"","type":"address","internalType":"address"}],"stateMutability":"view"},{"type":"function","name":"roleSlashRequester","inputs":[],"outputs":[{"name":"","type":"address","internalType":"address"}],"stateMutability":"view"},{"type":"function","name":"router","inputs":[],"outputs":[{"name":"","type":"address","internalType":"address"}],"stateMutability":"view"},{"type":"function","name":"subnetwork","inputs":[],"outputs":[{"name":"","type":"bytes32","internalType":"bytes32"}],"stateMutability":"view"},{"type":"function","name":"transferOwnership","inputs":[{"name":"newOwner","type":"address","internalType":"address"}],"outputs":[],"stateMutability":"nonpayable"},{"type":"function","name":"unregisterOperator","inputs":[{"name":"operator","type":"address","internalType":"address"}],"outputs":[],"stateMutability":"nonpayable"},{"type":"function","name":"unregisterVault","inputs":[{"name":"vault","type":"address","internalType":"address"}],"outputs":[],"stateMutability":"nonpayable"},{"type":"function","name":"vaultGracePeriod","inputs":[],"outputs":[{"name":"","type":"uint48","internalType":"uint48"}],"stateMutability":"view"},{"type":"function","name":"vetoSlasherImplType","inputs":[],"outputs":[{"name":"","type":"uint64","internalType":"uint64"}],"stateMutability":"view"},{"type":"event","name":"Initialized","inputs":[{"name":"version","type":"uint64","indexed":false,"internalType":"uint64"}],"anonymous":false},{"type":"event","name":"OwnershipTransferred","inputs":[{"name":"previousOwner","type":"address","indexed":true,"internalType":"address"},{"name":"newOwner","type":"address","indexed":true,"internalType":"address"}],"anonymous":false},{"type":"error","name":"AlreadyAdded","inputs":[]},{"type":"error","name":"AlreadyEnabled","inputs":[]},{"type":"error","name":"BurnerHookNotSupported","inputs":[]},{"type":"error","name":"DelegatorNotInitialized","inputs":[]},{"type":"error","name":"EnumerableMapNonexistentKey","inputs":[{"name":"key","type":"bytes32","internalType":"bytes32"}]},{"type":"error","name":"IncompatibleSlasherType","inputs":[]},{"type":"error","name":"IncompatibleStakerRewardsVersion","inputs":[]},{"type":"error","name":"IncompatibleVaultVersion","inputs":[]},{"type":"error","name":"IncorrectTimestamp","inputs":[]},{"type":"error","name":"InvalidInitialization","inputs":[]},{"type":"error","name":"InvalidStakerRewardsVault","inputs":[]},{"type":"error","name":"NonFactoryStakerRewards","inputs":[]},{"type":"error","name":"NonFactoryVault","inputs":[]},{"type":"error","name":"NotEnabled","inputs":[]},{"type":"error","name":"NotInitializing","inputs":[]},{"type":"error","name":"NotRegisteredOperator","inputs":[]},{"type":"error","name":"NotRegisteredVault","inputs":[]},{"type":"error","name":"NotRouter","inputs":[]},{"type":"error","name":"NotSlashExecutor","inputs":[]},{"type":"error","name":"NotSlashRequester","inputs":[]},{"type":"error","name":"NotVaultOwner","inputs":[]},{"type":"error","name":"OperatorDoesNotExist","inputs":[]},{"type":"error","name":"OperatorDoesNotOptIn","inputs":[]},{"type":"error","name":"OperatorGracePeriodNotPassed","inputs":[]},{"type":"error","name":"OwnableInvalidOwner","inputs":[{"name":"owner","type":"address","internalType":"address"}]},{"type":"error","name":"OwnableUnauthorizedAccount","inputs":[{"name":"account","type":"address","internalType":"address"}]},{"type":"error","name":"ReentrancyGuardReentrantCall","inputs":[]},{"type":"error","name":"ResolverMismatch","inputs":[]},{"type":"error","name":"ResolverSetDelayTooLong","inputs":[]},{"type":"error","name":"SafeCastOverflowedUintDowncast","inputs":[{"name":"bits","type":"uint8","internalType":"uint8"},{"name":"value","type":"uint256","internalType":"uint256"}]},{"type":"error","name":"SlasherNotInitialized","inputs":[]},{"type":"error","name":"UnknownCollateral","inputs":[]},{"type":"error","name":"UnsupportedBurner","inputs":[]},{"type":"error","name":"UnsupportedDelegatorHook","inputs":[]},{"type":"error","name":"VaultGracePeriodNotPassed","inputs":[]},{"type":"error","name":"VaultWrongEpochDuration","inputs":[]},{"type":"error","name":"VetoDurationTooLong","inputs":[]},{"type":"error","name":"VetoDurationTooShort","inputs":[]}],"bytecode":{"object":"0x6080806040523460aa575f516020613bbd5f395f51905f525460ff8160401c16609b576002600160401b03196001600160401b038216016049575b604051613b0e90816100af8239f35b6001600160401b0319166001600160401b039081175f516020613bbd5f395f51905f525581527fc7f505b2f371ae2175ee4913f4499e1f2633a7b5936321eed1cdaeb6115181d290602090a15f80603a565b63f92ee8a960e01b5f5260045ffd5b5f80fdfe60806040526004361015610011575f80fd5b5f5f3560e01c806305872a2b1461234a57806305c4fdf9146119b85780630a71094c146117085780632633b70f146116545780632acde098146114fc5780632cd81009146114c3578063373bba1f1461148d5780633ccce789146114505780633d15e74e146114235780634455a38f146113f0578063461e7a8e146113ba57806358c2225b146113815780636c2eb35014610f0a5780636d1064eb14610eac5780636e5c793214610e6b578063709d06ae14610e35578063715018a614610dcc578063729e2f3614610cae57806379a8b24514610c785780637fbe95b5146108ad57806386c241a1146108405780638da5cb5b1461080b578063936f4330146107ce578063945cf2dd1461079857806396115bc2146106cc5780639e0323111461069e578063af9629951461048b578063b5e5ad1214610412578063c639e2d6146103e4578063c9b0b1e9146103ad578063ceebb69a1461037f578063d55a5bdf14610345578063d8dfeb451461030c578063d99ddfc7146102ce578063d99fcd66146102a1578063dbb6eed214610268578063e74f8bef1461022f578063f2fde38b146102025763f887ea40146101c7575f80fd5b346101ff57806003193601126101ff575f516020613ace5f395f51905f5254600801546040516001600160a01b039091168152602090f35b80fd5b50346101ff5760203660031901126101ff5761022c61021f612d6b565b6102276135c4565b613392565b80f35b50346101ff57806003193601126101ff575f516020613ace5f395f51905f5254600a01546040516001600160a01b039091168152602090f35b50346101ff57806003193601126101ff575f516020613ace5f395f51905f5254600901546040516001600160a01b039091168152602090f35b50346101ff57806003193601126101ff5761022c60125f516020613ace5f395f51905f52540133906134be565b50346101ff5760403660031901126101ff5760206103046102ed612d6b565b6102f5612daa565b906102ff82613648565b61334f565b604051908152f35b50346101ff57806003193601126101ff575f516020613ace5f395f51905f5254600401546040516001600160a01b039091168152602090f35b50346101ff57806003193601126101ff5760206001600160401b0360035f516020613ace5f395f51905f5254015460401c16604051908152f35b50346101ff57806003193601126101ff57602060055f516020613ace5f395f51905f52540154604051908152f35b50346101ff57806003193601126101ff5760206001600160401b0360035f516020613ace5f395f51905f5254015416604051908152f35b50346101ff57806003193601126101ff57602060065f516020613ace5f395f51905f52540154604051908152f35b50346101ff5760203660031901126101ff5761044e90610438610433612d95565b61322e565b9091604051938493604085526040850190612dbf565b8381036020850152602080845192838152019301915b818110610472575050500390f35b8251845285945060209384019390920191600101610464565b50346101ff5760203660031901126101ff576004356001600160401b03811161069a573660238201121561069a5780600401356001600160401b038111610696576024820191602436918360061b010111610696575f516020613ace5f395f51905f5254600901546001600160a01b03163303610687576020905f90845b818110610514578580f35b61051f818387612ebe565b5f516020613ace5f395f51905f525490919061055e906015016001600160a01b0361054985612e75565b16906001915f520160205260405f2054151590565b15610678576004856001600160a01b0361057785612e75565b166040519283809263b134427160e01b82525afa92831561066d576105e59387928a91610640575b50828a604051936105b08386612dfb565b81855289368487013760405197889586948593635ca61c3760e11b855201356004840152604060248401526044830190612f10565b03926001600160a01b03165af191821561063557600192610608575b5001610509565b61062790863d881161062e575b61061f8183612dfb565b810190612f01565b505f610601565b503d610615565b6040513d89823e3d90fd5b6106609150833d8511610666575b6106588183612dfb565b810190612ee2565b5f61059f565b503d61064e565b6040513d8a823e3d90fd5b633b2fc1c360e21b8752600487fd5b633fdc220360e01b8352600483fd5b8280fd5b5080fd5b50346101ff57806003193601126101ff57602060025f516020613ace5f395f51905f52540154604051908152f35b50346101ff5760203660031901126101ff576106e6612d6b565b5f516020613ace5f395f51905f52546001600160a01b039091169060128101906107306107138484613919565b65ffffffffffff81169165ffffffffffff8260301c169160601c90565b5065ffffffffffff8116159291508215610768575b50506107595790610755916138ff565b5080f35b63f1c9810160e01b8352600483fd5b65ffffffffffff91925061078d829182610781426138d0565b955460601c1690612f34565b169116105f80610745565b50346101ff57806003193601126101ff57602065ffffffffffff5f516020613ace5f395f51905f52545460301c16604051908152f35b50346101ff5760203660031901126101ff5761022c6107eb612d6b565b6107f481613403565b60155f516020613ace5f395f51905f525401613548565b50346101ff57806003193601126101ff575f516020613aae5f395f51905f52546040516001600160a01b039091168152602090f35b50346101ff5760203660031901126101ff5761085a612d6b565b5f516020613ace5f395f51905f5254600a0180549091906001600160a01b0316330361089e5781546001600160a01b0319166001600160a01b039190911617905580f35b632249f71f60e21b8352600483fd5b50346101ff5760403660031901126101ff576004356001600160401b03811161069a576060600319823603011261069a57604051606081018181106001600160401b03821117610c645760405281600401356001600160401b038111610c6057820136602382011215610c6057600481013561092881612e30565b916109366040519384612dfb565b818352602060048185019360061b8301010190368211610c5c57602401915b818310610bfe575050508152610978604460208301936024810135855201612d81565b9060408101918252610988612daa565b935f516020613ace5f395f51905f525490600882019460018060a01b038654163303610bef57845160048401546001600160a01b03918216911603610be057819594939550606093829565ffffffffffff60066015870196019916926020965b895180518a1015610b9957896109fd91612f6a565b5180516001600160a01b03165f9081526001890160205260409020541561067857908b9186610ab68b610aa88b610a96610a458f6107139060018060a01b038a511690613919565b9a546040516001600160a01b03909c169b92509050610a648683612dfb565b83825260405193610a758786612dfb565b845260405197889687015260408601526080606086015260a0850190612f10565b838103601f1901608085015290612f10565b03601f198101835282612dfb565b85548751838d0180519096909290916001600160a01b039081169116823b15610b9557908c80949392610b166040519788968795869463239723ed60e01b8652600486015260248501526044840152608060648401526084830190612f10565b03925af18015610b8a57908991610b71575b505091610b6991600193519151604051926bffffffffffffffffffffffff199060601b168c840152603483015260348252610b64605483612dfb565b6131ee565b9801976109e8565b81610b7b91612dfb565b610b8657875f610b28565b8780fd5b6040513d8b823e3d90fd5b8c80fd5b88610bd286848651915160405192858401526bffffffffffffffffffffffff199060601b16604083015260348252610b64605483612dfb565b818151910120604051908152f35b63039a1fd760e21b8252600482fd5b639165520160e01b8252600482fd5b604083360312610c5c57604051604081018181106001600160401b03821117610c4857916020916040938452610c3386612d81565b81528286013583820152815201920191610955565b634e487b7160e01b89526041600452602489fd5b8680fd5b8380fd5b634e487b7160e01b84526041600452602484fd5b50346101ff57806003193601126101ff57602065ffffffffffff5f516020613ace5f395f51905f52545460901c16604051908152f35b50346101ff5760603660031901126101ff57610cc8612d6b565b5f516020613ace5f395f51905f5254600881015460243592604435926001600160a01b039092169133839003610dbd5760048101546001600160a01b0392831692168203610dae57600701546001600160a01b031691859190833b15610696576084908360405195869485936348a78da760e01b8552600485015260248401528860448401528760648401525af18015610da357610d8e575b6020838360405190838201928352604082015260408152610d83606082612dfb565b519020604051908152f35b610d99848092612dfb565b6106965782610d61565b6040513d86823e3d90fd5b63039a1fd760e21b8652600486fd5b639165520160e01b8652600486fd5b50346101ff57806003193601126101ff57610de56135c4565b5f516020613aae5f395f51905f5280546001600160a01b0319811690915581906001600160a01b03167f8be0079c531659141344cd1fd0a4f28419497f9722a3daafe3b4186f6b6457e08280a380f35b50346101ff57806003193601126101ff57602065ffffffffffff5f516020613ace5f395f51905f52545460601c16604051908152f35b50346101ff5760403660031901126101ff57610ea8610e94610e8b612d95565b60243590612f8b565b604051918291602083526020830190612dbf565b0390f35b50346101ff5760203660031901126101ff57610ec6612d6b565b5f516020613ace5f395f51905f525460090180549091906001600160a01b031633036106875781546001600160a01b0319166001600160a01b039190911617905580f35b50346101ff57806003193601126101ff57610f236135c4565b5f516020613aee5f395f51905f525460ff8160401c1690811561136c575b5061135d575f516020613aee5f395f51905f52805468ffffffffffffffffff1916680100000000000000021790555f516020613aae5f395f51905f5254610f9b906001600160a01b0316610f936138a5565b6102276138a5565b5f516020613ace5f395f51905f525460408051610fb88282612dfb565b601f815260208101907f6d6964646c65776172652e73746f726167652e4d6964646c65776172655632008252610fec6135c4565b5190205f1981019081116113495781519060208201908152602082526110128383612dfb565b9051902060ff19165f516020613ace5f395f51905f528190558254815465ffffffffffff90911665ffffffffffff19821681178355845465ffffffffffff60301b166001600160601b031990921617178155908254825465ffffffffffff60601b191665ffffffffffff60601b9091161782558254825465ffffffffffff60901b191665ffffffffffff60901b9091161782558254825465ffffffffffff60c01b191665ffffffffffff60c01b90911617825565ffffffffffff60018401541665ffffffffffff60018401911665ffffffffffff1982541617905560028301546002830155611145600384016001600160401b03808254169181600387019316821984541617835554841c1667ffffffffffffffff60401b82549160401b169067ffffffffffffffff60401b1916179055565b60048381015490830180546001600160a01b03199081166001600160a01b03938416179091556005808601549085015560068086015490850155600780860154908501805483169184169190911790556008808601549085018054831691841691909117905560098086015490850180548316918416919091179055600a8086015490850180548316918416919091179055600b8086015490850180549092169216919091179055600c8083019084018484036112b9575b50508392601281019260128101955b8454811015611233578061122c611225600193886135f7565b908a613626565b500161120c565b50601590810192910184805b8254811015611266578061125f611258600193866135f7565b9088613626565b500161123f565b507fc7f505b2f371ae2175ee4913f4499e1f2633a7b5936321eed1cdaeb6115181d260208460ff60401b195f516020613aee5f395f51905f5254165f516020613aee5f395f51905f52555160028152a180f35b5481546001600160a01b03199081166001600160a01b0392831617909255600d8581015490850180548416918316919091179055600e8086015490850180548416918316919091179055600f808601549085018054841691831691909117905560108086015490850180548416918316919091179055601180860154908501805490931691161790555f806111fd565b634e487b7160e01b84526011600452602484fd5b63f92ee8a960e01b8152600490fd5b600291506001600160401b031610155f610f41565b50346101ff57806003193601126101ff575f516020613ace5f395f51905f5254600d01546040516001600160a01b039091168152602090f35b50346101ff57806003193601126101ff57602065ffffffffffff5f516020613ace5f395f51905f52545460c01c16604051908152f35b50346101ff57806003193601126101ff57602065ffffffffffff5f516020613ace5f395f51905f52545416604051908152f35b50346101ff57806003193601126101ff5761022c60125f516020613ace5f395f51905f5254013390613548565b50346101ff5760203660031901126101ff5761022c61146d612d6b565b61147681613403565b60155f516020613ace5f395f51905f5254016134be565b50346101ff57806003193601126101ff57602065ffffffffffff60015f516020613ace5f395f51905f5254015416604051908152f35b50346101ff57806003193601126101ff575f516020613ace5f395f51905f5254600701546040516001600160a01b039091168152602090f35b50346101ff57806003193601126101ff575f516020613ace5f395f51905f5254600d8101546040516302910f8b60e31b815233600482015290602090829060249082906001600160a01b03165afa90811561161b578391611635575b50156116265760108101546040516308834cb560e21b815233600482015230602482015290602090829060449082906001600160a01b03165afa90811561161b5783916115ec575b50156115dd576115c69065ffffffffffff6115ba426138d0565b16906012339101613626565b156115ce5780f35b63f411c32760e01b8152600490fd5b6396cc2bc360e01b8252600482fd5b61160e915060203d602011611614575b6116068183612dfb565b810190612f52565b5f6115a0565b503d6115fc565b6040513d85823e3d90fd5b6325878fa360e21b8252600482fd5b61164e915060203d602011611614576116068183612dfb565b5f611558565b50346101ff5760203660031901126101ff5761166e612d6b565b61167781613403565b5f516020613ace5f395f51905f52546001600160a01b039091169060158101906116a46107138484613919565b5065ffffffffffff81161592915082156116d8575b50506116c95790610755916138ff565b6347a11ef760e11b8352600483fd5b65ffffffffffff9192506116fd8291826116f1426138d0565b955460901c1690612f34565b169116105f806116b9565b50346101ff5760203660031901126101ff576001600160401b03600435116101ff573660236004350112156101ff576001600160401b0360043560040135116101ff573660246004356004013560051b6004350101116101ff575f516020613ace5f395f51905f525460098101546001600160a01b031633036119a95781906020905b600435600401358310156119a55760248360051b6004350101356082196004353603018112156119a15760043501906117e76001600160a01b036117d160248501612e75565b165f908152601383016020526040902054151590565b1561199257845b6117fe6064840160248501612e89565b9050811015611985576118218161181b6064860160248701612e89565b90612ebe565b61184b6001600160a01b0361183583612e75565b165f908152601685016020526040902054151590565b1561067857869190600490866001600160a01b0361186883612e75565b166040519384809263b134427160e01b82525afa918215610da3578492611966575b5060058501549161189d60248801612e75565b604488013565ffffffffffff8116900361196257889586946119226040516118c58882612dfb565b838152601f1988013689830137604051998a978896879563545ce38960e01b8752600487015260018060a01b031660248601520135604484015265ffffffffffff60448d013516606484015260a0608484015260a4830190612f10565b03926001600160a01b03165af191821561063557600192611945575b50016117ee565b61195b90863d881161062e5761061f8183612dfb565b505f61193e565b8580fd5b61197e919250873d8911610666576106588183612dfb565b905f61188a565b509260019150019161178b565b6303fa1eaf60e41b8552600485fd5b8480fd5b8380f35b633fdc220360e01b8252600482fd5b50346101ff5760403660031901126101ff576119d2612d6b565b6024356001600160a01b03811692919083900361069a576119f281613403565b5f516020613ace5f395f51905f5254600c8101546040516302910f8b60e31b81526001600160a01b038085166004830181905294939260209183916024918391165afa908115611f5257859161232b575b501561231c5760405163054fd4d560e41b8152602081600481875afa908115611f525785916122fd575b5060038201906001600160401b03808354169116036122ee5760405163d8dfeb4560e01b8152602081600481885afa908115611f895786916122cf575b5060048301546001600160a01b039081169116036122c0576040516327f843b560e11b8152602081600481885afa908115611f895786916122a1575b5065ffffffffffff80845460301c1691169081106122925760405163142186b760e21b8152602081600481895afa908115610635578791612273575b501561226457604051630ce9b79360e41b8152602081600481895afa908115610635578791612245575b506005840180546040516368adba0760e11b815260048101919091529092916001600160a01b031690602081602481855afa908115610b8a578991612213575b50196121be575b602060049160405192838092637f5a7c7b60e01b82525afa90811561066d57889161219f575b506001600160a01b031661218d57604051630dd83c7f60e31b81526020816004818a5afa90811561066d57889161216e575b501561215f5760405163b134427160e01b81526020816004818a5afa90811561066d578891612140575b50604051635d927f4560e11b81526001600160a01b039190911693602082600481885afa918215610b8a578992612114575b506001600160401b0380915460401c1691160361210557604051631a684c7560e11b8152602081600481875afa90811561066d5788916120e6575b506120d75760405163e054e08b60e01b8152602081600481875afa90811561066d5788916120a8575b5065ffffffffffff855460c01c1665ffffffffffff82161061209957611cdf65ffffffffffff918260018801541690612f34565b161161208a5760405163bc6eac5b60e01b8152602081600481865afa908115610635578791612054575b50600284015410612045575490602092611d6184604051611d2a8282612dfb565b898152601f19820195863684840137604051938492839263cd05b8a160e01b84526004840152604060248401526044830190612f10565b0381865afa90811561066d578891612028575b506001600160a01b0316806120015750600b0154604051926001600160a01b0390911690611da28585612dfb565b8784523685850137813b15610c5c57918691611de893836040518096819582946348b47ce960e11b84528460048501526024840152606060448401526064830190612f10565b03925af18015611f5257908591611fec575b50505b6040516313c085b760e11b81528181600481875afa908115611f52578591611fcf575b506001600160a01b031615611fc0575f516020613ace5f395f51905f52549260248260018060a01b03601187015416604051928380926302910f8b60e31b82528b60048301525afa908115611f89578691611fa3575b5015611f945760405163411557d160e01b815282816004818a5afa908115611f89578691611f6c575b506001600160a01b031603611f5d5760405163054fd4d560e41b81528181600481895afa918215611f5257916001600160401b03916002938792611f25575b50501603611f165760156115c6939465ffffffffffff611efd426138d0565b1660609190911b6001600160601b031916179201613626565b63ded51c0b60e01b8352600483fd5b611f449250803d10611f4b575b611f3c8183612dfb565b810190613481565b5f80611ede565b503d611f32565b6040513d87823e3d90fd5b630a724f6160e01b8452600484fd5b611f839150833d8511610666576106588183612dfb565b5f611e9f565b6040513d88823e3d90fd5b6346e01c4360e11b8552600485fd5b611fba9150833d8511611614576116068183612dfb565b5f611e76565b630c6b5ff760e31b8452600484fd5b611fe69150823d8411610666576106588183612dfb565b5f611e20565b81611ff691612dfb565b610c6057835f611dfa565b600b909101546001600160a01b0316149150611dfd905057633cc6586560e21b8452600484fd5b61203f9150853d8711610666576106588183612dfb565b5f611d74565b633a2662c360e11b8652600486fd5b90506020813d602011612082575b8161206f60209383612dfb565b8101031261207e57515f611d09565b5f80fd5b3d9150612062565b6307cfe49360e51b8652600486fd5b633062eb1960e21b8852600488fd5b6120ca915060203d6020116120d0575b6120c28183612dfb565b8101906134a0565b5f611cab565b503d6120b8565b63447984b360e11b8752600487fd5b6120ff915060203d602011611614576116068183612dfb565b5f611c82565b63f8c618c760e01b8752600487fd5b6001600160401b03919250612138829160203d602011611f4b57611f3c8183612dfb565b929150611c47565b612159915060203d602011610666576106588183612dfb565b5f611c15565b631501f36360e21b8752600487fd5b612187915060203d602011611614576116068183612dfb565b5f611beb565b60016221bb1360e11b03198752600487fd5b6121b8915060203d602011610666576106588183612dfb565b5f611bb9565b803b15610b86576040516323f752d560e01b8152600481018990525f196024820152888160448183865af18015610b8a579089916121fe575b5050611b93565b8161220891612dfb565b610b8657875f6121f7565b90506020813d60201161223d575b8161222e60209383612dfb565b8101031261207e57515f611b8c565b3d9150612221565b61225e915060203d602011610666576106588183612dfb565b5f611b4c565b636e549c1760e11b8652600486fd5b61228c915060203d602011611614576116068183612dfb565b5f611b22565b634934476760e01b8652600486fd5b6122ba915060203d6020116120d0576120c28183612dfb565b5f611ae6565b63039a1fd760e21b8552600485fd5b6122e8915060203d602011610666576106588183612dfb565b5f611aaa565b63bfcdc45f60e01b8552600485fd5b612316915060203d602011611f4b57611f3c8183612dfb565b5f611a6d565b635b19e4bb60e01b8452600484fd5b612344915060203d602011611614576116068183612dfb565b5f611a43565b503461207e576102e036600319011261207e575f516020613aee5f395f51905f52546001600160401b0360ff8260401c1615911680159081612d63575b6001149081612d59575b159081612d50575b50612d41578060016001600160401b03195f516020613aee5f395f51905f525416175f516020613aee5f395f51905f5255612d11575b6004356001600160a01b038116810361207e576123ee90610f936138a5565b6123f66138a5565b60409081516124058382612dfb565b601f815260208101907f6d6964646c65776172652e73746f726167652e4d6964646c657761726556310082526124396135c4565b5190205f198101908111612cfd57825190602082019081526020825261245f8483612dfb565b60ff199151902016805f516020613ace5f395f51905f525560243565ffffffffffff8116810361207e57815465ffffffffffff191665ffffffffffff918216178255604435908116810361207e5781546bffffffffffff000000000000191660309190911b65ffffffffffff60301b1617815560643565ffffffffffff8116810361207e57815465ffffffffffff60601b191660609190911b65ffffffffffff60601b1617815560843565ffffffffffff8116810361207e57815465ffffffffffff60901b191660909190911b65ffffffffffff60901b1617815560a43565ffffffffffff8116810361207e57815465ffffffffffff60c01b191660c09190911b65ffffffffffff60c01b1617815560c43565ffffffffffff8116810361207e5765ffffffffffff60018301911665ffffffffffff19825416178155600282019161012435835560e4356001600160401b038116810361207e576001600160401b036003830191166001600160401b0319825416178155610104356001600160401b038116810361207e5781546fffffffffffffffff0000000000000000191660409190911b67ffffffffffffffff60401b16179055610144356001600160a01b038116810361207e576004820180546001600160a01b0319166001600160a01b039283161790553060601b600583015561016435600683015561018435908116810361207e576007820180546001600160a01b0319166001600160a01b039283161790556101a435908116810361207e576008820180546001600160a01b0319166001600160a01b039283161790556101c435908116810361207e576009820180546001600160a01b0319166001600160a01b039283161790556101e435908116810361207e57600a820180546001600160a01b0319166001600160a01b0392831617905561020435908116810361207e57600b820180546001600160a01b0319166001600160a01b0392831617905561022435908116810361207e57600c820180546001600160a01b0319166001600160a01b0392831617905561024435908116810361207e57600d820180546001600160a01b0319166001600160a01b03909216919091179055612791612e47565b600e820180546001600160a01b0319166001600160a01b039092169190911790556127ba612e5e565b600f820180546001600160a01b0319166001600160a01b039283161790556102a435908116810361207e576010820180546001600160a01b0319166001600160a01b039283161790556102c435908116810361207e576011820180546001600160a01b0319166001600160a01b03928316179055612836612e47565b16803b1561207e575f809160048851809481936387140b5b60e01b83525af18015612cf357612cde575b50856001600160a01b03612872612e5e565b16803b1561069a57818091602489518094819363b7d8e1a960e01b83523060048401525af18015612cd457612cbf575b5050549065ffffffffffff821615612c7b5765ffffffffffff8260301c16918060011b6601fffffffffffe65fffffffffffe821691168103612c67578310612c06578265ffffffffffff8260601c1610612b90578265ffffffffffff8260901c1610612b265760c01c65ffffffffffff16908115612ae2575465ffffffffffff16908115612a8d5765ffffffffffff9161293b91612f34565b16116129fd5760039054106129a457612952575080f35b60207fc7f505b2f371ae2175ee4913f4499e1f2633a7b5936321eed1cdaeb6115181d29160ff60401b195f516020613aee5f395f51905f5254165f516020613aee5f395f51905f52555160018152a180f35b815162461bcd60e51b815260206004820152602c60248201527f5265736f6c766572207365742065706f6368732064656c6179206d757374206260448201526b65206174206c65617374203360a01b6064820152608490fd5b825162461bcd60e51b815260206004820152605f60248201527f5665746f206475726174696f6e20616e6420736c61736820657865637574696f60448201527f6e2064656c6179206d757374206265206c657373207468616e206f722065717560648201527f616c20746f206d696e207661756c74732065706f6368206475726174696f6e00608482015260a490fd5b855162461bcd60e51b815260206004820152602860248201527f4d696e20736c61736820657865637574696f6e2064656c61792063616e6e6f74604482015267206265207a65726f60c01b6064820152608490fd5b855162461bcd60e51b815260206004820152601c60248201527f5665746f206475726174696f6e2063616e6e6f74206265207a65726f000000006044820152606490fd5b855162461bcd60e51b815260206004820152602481018790527f5661756c7420677261636520706572696f64206d75737420626520626967676560448201527f72207468616e206d696e207661756c74732065706f6368206475726174696f6e6064820152608490fd5b855162461bcd60e51b815260206004820152604360248201527f4f70657261746f7220677261636520706572696f64206d75737420626520626960448201527f67676572207468616e206d696e207661756c74732065706f636820647572617460648201526234b7b760e91b608482015260a490fd5b855162461bcd60e51b815260206004820152603460248201527f4d696e207661756c74732065706f6368206475726174696f6e206d75737420626044820152736520626967676572207468616e2032206572617360601b6064820152608490fd5b634e487b7160e01b88526011600452602488fd5b845162461bcd60e51b815260206004820152601b60248201527f457261206475726174696f6e2063616e6e6f74206265207a65726f00000000006044820152606490fd5b81612cc991612dfb565b61196257855f6128a2565b87513d84823e3d90fd5b612ceb9196505f90612dfb565b5f945f612860565b86513d5f823e3d90fd5b634e487b7160e01b5f52601160045260245ffd5b600160401b60ff60401b195f516020613aee5f395f51905f525416175f516020613aee5f395f51905f52556123cf565b63f92ee8a960e01b5f5260045ffd5b9050155f612399565b303b159150612391565b829150612387565b600435906001600160a01b038216820361207e57565b35906001600160a01b038216820361207e57565b6004359065ffffffffffff8216820361207e57565b6024359065ffffffffffff8216820361207e57565b90602080835192838152019201905f5b818110612ddc5750505090565b82516001600160a01b0316845260209384019390920191600101612dcf565b90601f801991011681019081106001600160401b03821117612e1c57604052565b634e487b7160e01b5f52604160045260245ffd5b6001600160401b038111612e1c5760051b60200190565b610264356001600160a01b038116810361207e5790565b610284356001600160a01b038116810361207e5790565b356001600160a01b038116810361207e5790565b903590601e198136030182121561207e57018035906001600160401b03821161207e57602001918160061b3603831361207e57565b9190811015612ece5760061b0190565b634e487b7160e01b5f52603260045260245ffd5b9081602091031261207e57516001600160a01b038116810361207e5790565b9081602091031261207e575190565b805180835260209291819084018484015e5f828201840152601f01601f1916010190565b9065ffffffffffff8091169116019065ffffffffffff8211612cfd57565b9081602091031261207e5751801515810361207e5790565b8051821015612ece5760209160051b010190565b91908201809211612cfd57565b91811561319857612f9b8361322e565b9281518181111561318f575f5f198201828111925b8083106130b657505050506001945f19820190828211612cfd57612fd48287612f6a565b5183975b85518910156130a85781612fec8a8a612f6a565b51036130085760018101809111612cfd57600190980197612fd8565b9395975050909294505b60018211613023575b505050815290565b604051602081019165ffffffffffff60d01b9060d01b1682526006815261304b602682612dfb565b51902090801561309457613060910683612f7e565b5f198101908111612cfd5761308b906001600160a01b03906130829086612f6a565b51169184612f6a565b525f808061301b565b634e487b7160e01b5f52601260045260245ffd5b939597505090929450613012565b9296958792959891945f935b612cfd578685035f1901868111612cfd5784101561317c576130e48489612f6a565b516001850194858111612cfd57858c826001946131028f9a8f612f6a565b5111613113575b50505001936130c2565b613173918d613143836131268784612f6a565b51926131328282612f6a565b5161313d8983612f6a565b52612f6a565b52858060a01b036131548583612f6a565b51169361313d878060a01b0361316a8585612f6a565b51169183612f6a565b525f8c82613109565b9491989560019197989493500191612fb0565b50509150915090565b60405162461bcd60e51b815260206004820152602860248201527f4d61782076616c696461746f7273206d7573742062652067726561746572207460448201526768616e207a65726f60c01b6064820152608490fd5b61322c906020808095946040519684889551918291018487015e8401908282015f8152815193849201905e01015f815203601f198101845283612dfb565b565b9061323882613648565b60125f516020613ace5f395f51905f52540180549261325684612e30565b916132646040519384612dfb565b848352601f1961327386612e30565b0136602085013761328385612e30565b946132916040519687612dfb565b808652601f196132a082612e30565b013660208801375f925f925b8284106132c0575050505080825283529190565b909192936132f56132fc846132d588866135f7565b93909365ffffffffffff81169165ffffffffffff8260301c169160601c90565b50906136d2565b15613345578361332191613310848a612f6a565b6001600160a01b038216905261372b565b61332b828a612f6a565b5260018101809111612cfd57600190945b019291906132ac565b509360019061333c565b9061337b816132f561071360125f516020613ace5f395f51905f52540160018060a01b03871690613919565b1561338c576133899161372b565b90565b50505f90565b6001600160a01b031680156133f0575f516020613aae5f395f51905f5280546001600160a01b0319811683179091556001600160a01b03167f8be0079c531659141344cd1fd0a4f28419497f9722a3daafe3b4186f6b6457e05f80a3565b631e4fbdf760e01b5f525f60045260245ffd5b604051632474521560e21b81525f600482015233602482015290602090829060449082906001600160a01b03165afa908115613476575f91613457575b501561344857565b630e7fea9d60e01b5f5260045ffd5b613470915060203d602011611614576116068183612dfb565b5f613440565b6040513d5f823e3d90fd5b9081602091031261207e57516001600160401b038116810361207e5790565b9081602091031261207e575165ffffffffffff8116810361207e5790565b65ffffffffffff916134dc6107136001600160a01b03831684613919565b9194909416938415908115613536575b50613527576135249365ffffffffffff60301b613508426138d0565b60301b161760609190911b6001600160601b0319161791613626565b50565b633f54562b60e11b5f5260045ffd5b65ffffffffffff91501615155f6134ec565b65ffffffffffff916135666107136001600160a01b03831684613919565b94909116151590816135b3575b506135a4576135249265ffffffffffff61358c426138d0565b1660609190911b6001600160601b0319161791613626565b637952fbad60e11b5f5260045ffd5b65ffffffffffff915016155f613573565b5f516020613aae5f395f51905f52546001600160a01b031633036135e457565b63118cdaa760e01b5f523360045260245ffd5b919061360560029184613970565b90549060031b1c92835f520160205260405f20549160018060a01b03169190565b613389929160018060a01b031691825f526002820160205260405f2055613a60565b5f516020613ace5f395f51905f52549065ffffffffffff613668426138d0565b1665ffffffffffff821610156136bb5761369f915465ffffffffffff808260601c169160901c168082105f146136ca575090612f34565b65ffffffffffff806136b0426138d0565b16911611156136bb57565b63686c69fd60e01b5f5260045ffd5b905090612f34565b65ffffffffffff1680151592919083613718575b50826136f157505090565b65ffffffffffff168015925090821561370957505090565b65ffffffffffff161115905090565b65ffffffffffff8316101592505f6136e6565b5f516020613ace5f395f51905f52546015810180546005909201545f95948694602093869391905b868810613764575050505050505050565b90919293949596986132f561377d866132d58d866135f7565b1561389b57604051630ce9b79360e41b8152908890829060049082906001600160a01b03165afa908115613476576138199189915f9161387e575b50604051906137c78383612dfb565b5f825289368484013760405163e02f693760e01b8152600481018990526001600160a01b038816602482015265ffffffffffff8a16604482015260806064820152938492839182916084830190612f10565b03916001600160a01b03165afa908115613476575f91613850575b5061384190600192612f7e565b995b0196959493929190613753565b90508781813d8311613877575b6138678183612dfb565b8101031261207e57516001613834565b503d61385d565b6138959150823d8411610666576106588183612dfb565b5f6137b8565b5098600190613843565b60ff5f516020613aee5f395f51905f525460401c16156138c157565b631afcd79f60e31b5f5260045ffd5b65ffffffffffff81116138e85765ffffffffffff1690565b6306dfcc6560e41b5f52603060045260245260445ffd5b9061338991815f52600281016020525f6040812055613985565b90805f526002820160205260405f2054918183159182613950575b505061393e575090565b63015ab34360e11b5f5260045260245ffd5b61396892506001915f520160205260405f2054151590565b15815f613934565b8054821015612ece575f5260205f2001905f90565b906001820191815f528260205260405f20548015155f14613a58575f198101818111612cfd5782545f19810191908211612cfd57818103613a0d575b505050805480156139f9575f1901906139da8282613970565b8154905f199060031b1b19169055555f526020525f6040812055600190565b634e487b7160e01b5f52603160045260245ffd5b613a43613a1d613a2d9386613970565b90549060031b1c92839286613970565b819391549060031b91821b915f19901b19161790565b90555f528360205260405f20555f80806139c1565b505050505f90565b5f82815260018201602052604090205461338c57805490600160401b821015612e1c5782613a98613a2d846001809601855584613970565b90558054925f520160205260405f205560019056fe9016d09d72d40fdae2fd8ceac6b6234c7706214fd39c1cd1e609a0528c1993000b8c56af6cc9ad401ad225bfe96df77f3049ba17eadac1cb95ee89df1e69d100f0c57e16840df040f15088dc2f81fe391c3923bec73e23a9662efc9c229c6a00f0c57e16840df040f15088dc2f81fe391c3923bec73e23a9662efc9c229c6a00","linkReferences":{}},"methodIdentifiers":{"allowedVaultImplVersion()":"c9b0b1e9","changeSlashExecutor(address)":"86c241a1","changeSlashRequester(address)":"6d1064eb","collateral()":"d8dfeb45","disableOperator()":"d99fcd66","disableVault(address)":"3ccce789","distributeOperatorRewards(address,uint256,bytes32)":"729e2f36","distributeStakerRewards(((address,uint256)[],uint256,address),uint48)":"7fbe95b5","enableOperator()":"3d15e74e","enableVault(address)":"936f4330","eraDuration()":"4455a38f","executeSlash((address,uint256)[])":"af962995","getActiveOperatorsStakeAt(uint48)":"b5e5ad12","getOperatorStakeAt(address,uint48)":"d99ddfc7","initialize((address,uint48,uint48,uint48,uint48,uint48,uint48,uint64,uint64,uint256,address,uint256,address,address,address,address,address,(address,address,address,address,address,address)))":"05872a2b","makeElectionAt(uint48,uint256)":"6e5c7932","maxAdminFee()":"c639e2d6","maxResolverSetEpochsDelay()":"9e032311","minSlashExecutionDelay()":"373bba1f","minVaultEpochDuration()":"945cf2dd","minVetoDuration()":"461e7a8e","operatorGracePeriod()":"709d06ae","operatorRegistry()":"58c2225b","operatorRewards()":"2cd81009","owner()":"8da5cb5b","registerOperator()":"2acde098","registerVault(address,address)":"05c4fdf9","reinitialize()":"6c2eb350","renounceOwnership()":"715018a6","requestSlash((address,uint48,(address,uint256)[])[])":"0a71094c","roleSlashExecutor()":"e74f8bef","roleSlashRequester()":"dbb6eed2","router()":"f887ea40","subnetwork()":"ceebb69a","transferOwnership(address)":"f2fde38b","unregisterOperator(address)":"96115bc2","unregisterVault(address)":"2633b70f","vaultGracePeriod()":"79a8b245","vetoSlasherImplType()":"d55a5bdf"},"storageLayout":{"storage":[],"types":{}},"id":148}