{"abi":[{"type":"constructor","inputs":[],"stateMutability":"nonpayable"},{"type":"function","name":"allowedVaultImplVersion","inputs":[],"outputs":[{"name":"","type":"uint64","internalType":"uint64"}],"stateMutability":"view"},{"type":"function","name":"changeSlashExecutor","inputs":[{"name":"newRole","type":"address","internalType":"address"}],"outputs":[],"stateMutability":"nonpayable"},{"type":"function","name":"changeSlashRequester","inputs":[{"name":"newRole","type":"address","internalType":"address"}],"outputs":[],"stateMutability":"nonpayable"},{"type":"function","name":"collateral","inputs":[],"outputs":[{"name":"","type":"address","internalType":"address"}],"stateMutability":"view"},{"type":"function","name":"disableOperator","inputs":[],"outputs":[],"stateMutability":"nonpayable"},{"type":"function","name":"disableVault","inputs":[{"name":"vault","type":"address","internalType":"address"}],"outputs":[],"stateMutability":"nonpayable"},{"type":"function","name":"distributeOperatorRewards","inputs":[{"name":"token","type":"address","internalType":"address"},{"name":"amount","type":"uint256","internalType":"uint256"},{"name":"root","type":"bytes32","internalType":"bytes32"}],"outputs":[{"name":"","type":"bytes32","internalType":"bytes32"}],"stateMutability":"nonpayable"},{"type":"function","name":"distributeStakerRewards","inputs":[{"name":"_commitment","type":"tuple","internalType":"struct Gear.StakerRewardsCommitment","components":[{"name":"distribution","type":"tuple[]","internalType":"struct Gear.StakerRewards[]","components":[{"name":"vault","type":"address","internalType":"address"},{"name":"amount","type":"uint256","internalType":"uint256"}]},{"name":"totalAmount","type":"uint256","internalType":"uint256"},{"name":"token","type":"address","internalType":"address"}]},{"name":"timestamp","type":"uint48","internalType":"uint48"}],"outputs":[{"name":"","type":"bytes32","internalType":"bytes32"}],"stateMutability":"nonpayable"},{"type":"function","name":"enableOperator","inputs":[],"outputs":[],"stateMutability":"nonpayable"},{"type":"function","name":"enableVault","inputs":[{"name":"vault","type":"address","internalType":"address"}],"outputs":[],"stateMutability":"nonpayable"},{"type":"function","name":"eraDuration","inputs":[],"outputs":[{"name":"","type":"uint48","internalType":"uint48"}],"stateMutability":"view"},{"type":"function","name":"executeSlash","inputs":[{"name":"slashes","type":"tuple[]","internalType":"struct IMiddleware.SlashIdentifier[]","components":[{"name":"vault","type":"address","internalType":"address"},{"name":"index","type":"uint256","internalType":"uint256"}]}],"outputs":[],"stateMutability":"nonpayable"},{"type":"function","name":"getActiveOperatorsStakeAt","inputs":[{"name":"ts","type":"uint48","internalType":"uint48"}],"outputs":[{"name":"activeOperators","type":"address[]","internalType":"address[]"},{"name":"stakes","type":"uint256[]","internalType":"uint256[]"}],"stateMutability":"view"},{"type":"function","name":"getOperatorStakeAt","inputs":[{"name":"operator","type":"address","internalType":"address"},{"name":"ts","type":"uint48","internalType":"uint48"}],"outputs":[{"name":"stake","type":"uint256","internalType":"uint256"}],"stateMutability":"view"},{"type":"function","name":"getOperatorStakeVaultsAt","inputs":[{"name":"operator","type":"address","internalType":"address"},{"name":"ts","type":"uint48","internalType":"uint48"}],"outputs":[{"name":"","type":"tuple[]","internalType":"struct IMiddleware.VaultWithStake[]","components":[{"name":"vault","type":"address","internalType":"address"},{"name":"stake","type":"uint256","internalType":"uint256"}]}],"stateMutability":"view"},{"type":"function","name":"initialize","inputs":[{"name":"_params","type":"tuple","internalType":"struct IMiddleware.InitParams","components":[{"name":"owner","type":"address","internalType":"address"},{"name":"eraDuration","type":"uint48","internalType":"uint48"},{"name":"minVaultEpochDuration","type":"uint48","internalType":"uint48"},{"name":"operatorGracePeriod","type":"uint48","internalType":"uint48"},{"name":"vaultGracePeriod","type":"uint48","internalType":"uint48"},{"name":"minVetoDuration","type":"uint48","internalType":"uint48"},{"name":"minSlashExecutionDelay","type":"uint48","internalType":"uint48"},{"name":"allowedVaultImplVersion","type":"uint64","internalType":"uint64"},{"name":"vetoSlasherImplType","type":"uint64","internalType":"uint64"},{"name":"maxResolverSetEpochsDelay","type":"uint256","internalType":"uint256"},{"name":"collateral","type":"address","internalType":"address"},{"name":"maxAdminFee","type":"uint256","internalType":"uint256"},{"name":"operatorRewards","type":"address","internalType":"address"},{"name":"router","type":"address","internalType":"address"},{"name":"roleSlashRequester","type":"address","internalType":"address"},{"name":"roleSlashExecutor","type":"address","internalType":"address"},{"name":"vetoResolver","type":"address","internalType":"address"},{"name":"registries","type":"tuple","internalType":"struct Gear.SymbioticRegistries","components":[{"name":"vaultRegistry","type":"address","internalType":"address"},{"name":"operatorRegistry","type":"address","internalType":"address"},{"name":"networkRegistry","type":"address","internalType":"address"},{"name":"middlewareService","type":"address","internalType":"address"},{"name":"networkOptIn","type":"address","internalType":"address"},{"name":"stakerRewardsFactory","type":"address","internalType":"address"}]}]}],"outputs":[],"stateMutability":"nonpayable"},{"type":"function","name":"makeElectionAt","inputs":[{"name":"ts","type":"uint48","internalType":"uint48"},{"name":"maxValidators","type":"uint256","internalType":"uint256"}],"outputs":[{"name":"","type":"address[]","internalType":"address[]"}],"stateMutability":"view"},{"type":"function","name":"maxAdminFee","inputs":[],"outputs":[{"name":"","type":"uint256","internalType":"uint256"}],"stateMutability":"view"},{"type":"function","name":"maxResolverSetEpochsDelay","inputs":[],"outputs":[{"name":"","type":"uint256","internalType":"uint256"}],"stateMutability":"view"},{"type":"function","name":"minSlashExecutionDelay","inputs":[],"outputs":[{"name":"","type":"uint48","internalType":"uint48"}],"stateMutability":"view"},{"type":"function","name":"minVaultEpochDuration","inputs":[],"outputs":[{"name":"","type":"uint48","internalType":"uint48"}],"stateMutability":"view"},{"type":"function","name":"minVetoDuration","inputs":[],"outputs":[{"name":"","type":"uint48","internalType":"uint48"}],"stateMutability":"view"},{"type":"function","name":"operatorGracePeriod","inputs":[],"outputs":[{"name":"","type":"uint48","internalType":"uint48"}],"stateMutability":"view"},{"type":"function","name":"operatorRegistry","inputs":[],"outputs":[{"name":"","type":"address","internalType":"address"}],"stateMutability":"view"},{"type":"function","name":"operatorRewards","inputs":[],"outputs":[{"name":"","type":"address","internalType":"address"}],"stateMutability":"view"},{"type":"function","name":"owner","inputs":[],"outputs":[{"name":"","type":"address","internalType":"address"}],"stateMutability":"view"},{"type":"function","name":"registerOperator","inputs":[],"outputs":[],"stateMutability":"nonpayable"},{"type":"function","name":"registerVault","inputs":[{"name":"_vault","type":"address","internalType":"address"},{"name":"_rewards","type":"address","internalType":"address"}],"outputs":[],"stateMutability":"nonpayable"},{"type":"function","name":"reinitialize","inputs":[],"outputs":[],"stateMutability":"nonpayable"},{"type":"function","name":"renounceOwnership","inputs":[],"outputs":[],"stateMutability":"nonpayable"},{"type":"function","name":"requestSlash","inputs":[{"name":"data","type":"tuple[]","internalType":"struct IMiddleware.SlashData[]","components":[{"name":"operator","type":"address","internalType":"address"},{"name":"ts","type":"uint48","internalType":"uint48"},{"name":"vaults","type":"tuple[]","internalType":"struct IMiddleware.VaultSlashData[]","components":[{"name":"vault","type":"address","internalType":"address"},{"name":"amount","type":"uint256","internalType":"uint256"}]}]}],"outputs":[],"stateMutability":"nonpayable"},{"type":"function","name":"roleSlashExecutor","inputs":[],"outputs":[{"name":"","type":"address","internalType":"address"}],"stateMutability":"view"},{"type":"function","name":"roleSlashRequester","inputs":[],"outputs":[{"name":"","type":"address","internalType":"address"}],"stateMutability":"view"},{"type":"function","name":"router","inputs":[],"outputs":[{"name":"","type":"address","internalType":"address"}],"stateMutability":"view"},{"type":"function","name":"subnetwork","inputs":[],"outputs":[{"name":"","type":"bytes32","internalType":"bytes32"}],"stateMutability":"view"},{"type":"function","name":"transferOwnership","inputs":[{"name":"newOwner","type":"address","internalType":"address"}],"outputs":[],"stateMutability":"nonpayable"},{"type":"function","name":"unregisterOperator","inputs":[{"name":"operator","type":"address","internalType":"address"}],"outputs":[],"stateMutability":"nonpayable"},{"type":"function","name":"unregisterVault","inputs":[{"name":"vault","type":"address","internalType":"address"}],"outputs":[],"stateMutability":"nonpayable"},{"type":"function","name":"vaultGracePeriod","inputs":[],"outputs":[{"name":"","type":"uint48","internalType":"uint48"}],"stateMutability":"view"},{"type":"function","name":"vetoSlasherImplType","inputs":[],"outputs":[{"name":"","type":"uint64","internalType":"uint64"}],"stateMutability":"view"},{"type":"event","name":"Initialized","inputs":[{"name":"version","type":"uint64","indexed":false,"internalType":"uint64"}],"anonymous":false},{"type":"event","name":"OwnershipTransferred","inputs":[{"name":"previousOwner","type":"address","indexed":true,"internalType":"address"},{"name":"newOwner","type":"address","indexed":true,"internalType":"address"}],"anonymous":false},{"type":"error","name":"AlreadyAdded","inputs":[]},{"type":"error","name":"AlreadyEnabled","inputs":[]},{"type":"error","name":"BurnerHookNotSupported","inputs":[]},{"type":"error","name":"DelegatorNotInitialized","inputs":[]},{"type":"error","name":"EnumerableMapNonexistentKey","inputs":[{"name":"key","type":"bytes32","internalType":"bytes32"}]},{"type":"error","name":"IncompatibleSlasherType","inputs":[]},{"type":"error","name":"IncompatibleStakerRewardsVersion","inputs":[]},{"type":"error","name":"IncompatibleVaultVersion","inputs":[]},{"type":"error","name":"IncorrectTimestamp","inputs":[]},{"type":"error","name":"InvalidInitialization","inputs":[]},{"type":"error","name":"InvalidStakerRewardsVault","inputs":[]},{"type":"error","name":"NonFactoryStakerRewards","inputs":[]},{"type":"error","name":"NonFactoryVault","inputs":[]},{"type":"error","name":"NotEnabled","inputs":[]},{"type":"error","name":"NotInitializing","inputs":[]},{"type":"error","name":"NotRegisteredOperator","inputs":[]},{"type":"error","name":"NotRegisteredVault","inputs":[]},{"type":"error","name":"NotRouter","inputs":[]},{"type":"error","name":"NotSlashExecutor","inputs":[]},{"type":"error","name":"NotSlashRequester","inputs":[]},{"type":"error","name":"NotVaultOwner","inputs":[]},{"type":"error","name":"OperatorDoesNotExist","inputs":[]},{"type":"error","name":"OperatorDoesNotOptIn","inputs":[]},{"type":"error","name":"OperatorGracePeriodNotPassed","inputs":[]},{"type":"error","name":"OwnableInvalidOwner","inputs":[{"name":"owner","type":"address","internalType":"address"}]},{"type":"error","name":"OwnableUnauthorizedAccount","inputs":[{"name":"account","type":"address","internalType":"address"}]},{"type":"error","name":"ReentrancyGuardReentrantCall","inputs":[]},{"type":"error","name":"ResolverMismatch","inputs":[]},{"type":"error","name":"ResolverSetDelayTooLong","inputs":[]},{"type":"error","name":"SafeCastOverflowedUintDowncast","inputs":[{"name":"bits","type":"uint8","internalType":"uint8"},{"name":"value","type":"uint256","internalType":"uint256"}]},{"type":"error","name":"SlasherNotInitialized","inputs":[]},{"type":"error","name":"UnknownCollateral","inputs":[]},{"type":"error","name":"UnsupportedBurner","inputs":[]},{"type":"error","name":"UnsupportedDelegatorHook","inputs":[]},{"type":"error","name":"VaultGracePeriodNotPassed","inputs":[]},{"type":"error","name":"VaultWrongEpochDuration","inputs":[]},{"type":"error","name":"VetoDurationTooLong","inputs":[]},{"type":"error","name":"VetoDurationTooShort","inputs":[]}],"bytecode":{"object":"0x6080806040523460aa575f5160206140555f395f51905f525460ff8160401c16609b576002600160401b03196001600160401b038216016049575b604051613fa690816100af8239f35b6001600160401b0319166001600160401b039081175f5160206140555f395f51905f525581527fc7f505b2f371ae2175ee4913f4499e1f2633a7b5936321eed1cdaeb6115181d290602090a15f80603a565b63f92ee8a960e01b5f5260045ffd5b5f80fdfe60806040526004361015610011575f80fd5b5f5f3560e01c806305872a2b146125ac57806305c4fdf914611bb75780630a71094c146119075780632633b70f1461180a5780632acde098146116cd5780632cd8100914611694578063373bba1f1461165e5780633ccce789146115ca5780633d15e74e1461159d5780634455a38f1461156a578063461e7a8e1461153457806358c2225b146114fb5780636c2eb350146110845780636d1064eb146110265780636e5c793214610fe5578063709d06ae14610faf578063715018a614610f46578063729e2f3614610e2857806379a8b24514610df25780637fbe95b514610a4d57806386c241a1146109e057806387c99b411461095b5780638da5cb5b14610926578063936f433014610868578063945cf2dd1461083257806396115bc2146107665780639e03231114610738578063af96299514610525578063b5e5ad12146104ac578063c639e2d61461047e578063c9b0b1e914610447578063ceebb69a14610419578063d55a5bdf146103df578063d8dfeb45146103a6578063d99ddfc7146102d9578063d99fcd66146102ac578063dbb6eed214610273578063e74f8bef1461023a578063f2fde38b1461020d5763f887ea40146101d2575f80fd5b3461020a578060031936011261020a575f516020613f665f395f51905f5254600801546040516001600160a01b039091168152602090f35b80fd5b503461020a57602036600319011261020a5761023761022a612fcd565b610232613b11565b61395d565b80f35b503461020a578060031936011261020a575f516020613f665f395f51905f5254600a01546040516001600160a01b039091168152602090f35b503461020a578060031936011261020a575f516020613f665f395f51905f5254600901546040516001600160a01b039091168152602090f35b503461020a578060031936011261020a5761023760125f516020613f665f395f51905f5254013390613a0b565b503461020a57604036600319011261020a576102f3612fcd565b6102fb61300c565b915f516020613f665f395f51905f525465ffffffffffff61031b42613d68565b1665ffffffffffff8516101561039757610353905465ffffffffffff808260601c169160901c168082105f1461039057505b846131c9565b65ffffffffffff8061036442613d68565b1691161115610381576020610379848461391d565b604051908152f35b63686c69fd60e01b8152600490fd5b905061034d565b63686c69fd60e01b8252600482fd5b503461020a578060031936011261020a575f516020613f665f395f51905f5254600401546040516001600160a01b039091168152602090f35b503461020a578060031936011261020a5760206001600160401b0360035f516020613f665f395f51905f5254015460401c16604051908152f35b503461020a578060031936011261020a57602060055f516020613f665f395f51905f52540154604051908152f35b503461020a578060031936011261020a5760206001600160401b0360035f516020613f665f395f51905f5254015416604051908152f35b503461020a578060031936011261020a57602060065f516020613f665f395f51905f52540154604051908152f35b503461020a57602036600319011261020a576104e8906104d26104cd612ff7565b6137bc565b9091604051938493604085526040850190613021565b8381036020850152602080845192838152019301915b81811061050c575050500390f35b82518452859450602093840193909201916001016104fe565b503461020a57602036600319011261020a576004356001600160401b03811161073457366023820112156107345780600401356001600160401b038111610730576024820191602436918360061b010111610730575f516020613f665f395f51905f5254600901546001600160a01b03163303610721576020905f90845b8181106105ae578580f35b6105b9818387613153565b5f516020613f665f395f51905f52549091906105f8906015016001600160a01b036105e3856130f2565b16906001915f520160205260405f2054151590565b15610712576004856001600160a01b03610611856130f2565b166040519283809263b134427160e01b82525afa9283156107075761067f9387928a916106da575b50828a6040519361064a838661308c565b81855289368487013760405197889586948593635ca61c3760e11b8552013560048401526040602484015260448301906131a5565b03926001600160a01b03165af19182156106cf576001926106a2575b50016105a3565b6106c190863d88116106c8575b6106b9818361308c565b810190613196565b505f61069b565b503d6106af565b6040513d89823e3d90fd5b6106fa9150833d8511610700575b6106f2818361308c565b810190613177565b5f610639565b503d6106e8565b6040513d8a823e3d90fd5b633b2fc1c360e21b8752600487fd5b633fdc220360e01b8352600483fd5b8280fd5b5080fd5b503461020a578060031936011261020a57602060025f516020613f665f395f51905f52540154604051908152f35b503461020a57602036600319011261020a57610780612fcd565b5f516020613f665f395f51905f52546001600160a01b039091169060128101906107ca6107ad8484613db1565b65ffffffffffff81169165ffffffffffff8260301c169160601c90565b5065ffffffffffff8116159291508215610802575b50506107f357906107ef91613d97565b5080f35b63f1c9810160e01b8352600483fd5b65ffffffffffff91925061082782918261081b42613d68565b955460601c16906131c9565b169116105f806107df565b503461020a578060031936011261020a57602065ffffffffffff5f516020613f665f395f51905f52545460301c16604051908152f35b503461020a57602036600319011261020a57610882612fcd565b604051632474521560e21b8152600481018390523360248201526020816044816001600160a01b0386165afa90811561091b5783916108ec575b50156108dd576102379060155f516020613f665f395f51905f525401613a95565b630e7fea9d60e01b8252600482fd5b61090e915060203d602011610914575b610906818361308c565b810190613106565b5f6108bc565b503d6108fc565b6040513d85823e3d90fd5b503461020a578060031936011261020a575f516020613f465f395f51905f52546040516001600160a01b039091168152602090f35b503461020a57604036600319011261020a57610986610978612fcd565b61098061300c565b90613540565b90604051918291602083016020845282518091526020604085019301915b8181106109b2575050500390f35b825180516001600160a01b0316855260209081015181860152869550604090940193909201916001016109a4565b503461020a57602036600319011261020a576109fa612fcd565b5f516020613f665f395f51905f5254600a0180549091906001600160a01b03163303610a3e5781546001600160a01b0319166001600160a01b039190911617905580f35b632249f71f60e21b8352600483fd5b503461020a57604036600319011261020a576004356001600160401b038111610734576060600319823603011261073457604051606081018181106001600160401b03821117610dde5760405281600401356001600160401b038111610dda57820136602382011215610dda576004810135610ac8816130ad565b91610ad6604051938461308c565b818352602060048185019360061b8301010190368211610dd657602401915b818310610d9e575050508152610b18604460208301936024810135855201612fe3565b9060408101918252610b2861300c565b935f516020613f665f395f51905f525490600882019460018060a01b038654163303610d8f57845160048401546001600160a01b03918216911603610d8057819594939550606093829565ffffffffffff60066015870196019916926020965b895180518a1015610d395789610b9d916131e7565b5180516001600160a01b03165f9081526001890160205260409020541561071257908b9186610c568b610c488b610c36610be58f6107ad9060018060a01b038a511690613db1565b9a546040516001600160a01b03909c169b92509050610c04868361308c565b83825260405193610c15878661308c565b845260405197889687015260408601526080606086015260a08501906131a5565b838103601f19016080850152906131a5565b03601f19810183528261308c565b85548751838d0180519096909290916001600160a01b039081169116823b15610d3557908c80949392610cb66040519788968795869463239723ed60e01b86526004860152602485015260448401526080606484015260848301906131a5565b03925af18015610d2a57908991610d11575b505091610d0991600193519151604051926bffffffffffffffffffffffff199060601b168c840152603483015260348252610d0460548361308c565b61346b565b980197610b88565b81610d1b9161308c565b610d2657875f610cc8565b8780fd5b6040513d8b823e3d90fd5b8c80fd5b88610d7286848651915160405192858401526bffffffffffffffffffffffff199060601b16604083015260348252610d0460548361308c565b818151910120604051908152f35b63039a1fd760e21b8252600482fd5b639165520160e01b8252600482fd5b604083360312610dd65760206040918251610db88161305d565b610dc186612fe3565b81528286013583820152815201920191610af5565b8680fd5b8380fd5b634e487b7160e01b84526041600452602484fd5b503461020a578060031936011261020a57602065ffffffffffff5f516020613f665f395f51905f52545460901c16604051908152f35b503461020a57606036600319011261020a57610e42612fcd565b5f516020613f665f395f51905f5254600881015460243592604435926001600160a01b039092169133839003610f375760048101546001600160a01b0392831692168203610f2857600701546001600160a01b031691859190833b15610730576084908360405195869485936348a78da760e01b8552600485015260248401528860448401528760648401525af18015610f1d57610f08575b6020838360405190838201928352604082015260408152610efd60608261308c565b519020604051908152f35b610f1384809261308c565b6107305782610edb565b6040513d86823e3d90fd5b63039a1fd760e21b8652600486fd5b639165520160e01b8652600486fd5b503461020a578060031936011261020a57610f5f613b11565b5f516020613f465f395f51905f5280546001600160a01b0319811690915581906001600160a01b03167f8be0079c531659141344cd1fd0a4f28419497f9722a3daafe3b4186f6b6457e08280a380f35b503461020a578060031936011261020a57602065ffffffffffff5f516020613f665f395f51905f52545460601c16604051908152f35b503461020a57604036600319011261020a5761102261100e611005612ff7565b60243590613208565b604051918291602083526020830190613021565b0390f35b503461020a57602036600319011261020a57611040612fcd565b5f516020613f665f395f51905f525460090180549091906001600160a01b031633036107215781546001600160a01b0319166001600160a01b039190911617905580f35b503461020a578060031936011261020a5761109d613b11565b5f516020613f865f395f51905f525460ff8160401c169081156114e6575b506114d7575f516020613f865f395f51905f52805468ffffffffffffffffff1916680100000000000000021790555f516020613f465f395f51905f5254611115906001600160a01b031661110d613d3d565b610232613d3d565b5f516020613f665f395f51905f525460408051611132828261308c565b601f815260208101907f6d6964646c65776172652e73746f726167652e4d6964646c65776172655632008252611166613b11565b5190205f1981019081116114c357815190602082019081526020825261118c838361308c565b9051902060ff19165f516020613f665f395f51905f528190558254815465ffffffffffff90911665ffffffffffff19821681178355845465ffffffffffff60301b166001600160601b031990921617178155908254825465ffffffffffff60601b191665ffffffffffff60601b9091161782558254825465ffffffffffff60901b191665ffffffffffff60901b9091161782558254825465ffffffffffff60c01b191665ffffffffffff60c01b90911617825565ffffffffffff60018401541665ffffffffffff60018401911665ffffffffffff19825416179055600283015460028301556112bf600384016001600160401b03808254169181600387019316821984541617835554841c1667ffffffffffffffff60401b82549160401b169067ffffffffffffffff60401b1916179055565b60048381015490830180546001600160a01b03199081166001600160a01b03938416179091556005808601549085015560068086015490850155600780860154908501805483169184169190911790556008808601549085018054831691841691909117905560098086015490850180548316918416919091179055600a8086015490850180548316918416919091179055600b8086015490850180549092169216919091179055600c808301908401848403611433575b50508392601281019260128101955b84548110156113ad57806113a661139f60019388613b44565b908a613b73565b5001611386565b50601590810192910184805b82548110156113e057806113d96113d260019386613b44565b9088613b73565b50016113b9565b507fc7f505b2f371ae2175ee4913f4499e1f2633a7b5936321eed1cdaeb6115181d260208460ff60401b195f516020613f865f395f51905f5254165f516020613f865f395f51905f52555160028152a180f35b5481546001600160a01b03199081166001600160a01b0392831617909255600d8581015490850180548416918316919091179055600e8086015490850180548416918316919091179055600f808601549085018054841691831691909117905560108086015490850180548416918316919091179055601180860154908501805490931691161790555f80611377565b634e487b7160e01b84526011600452602484fd5b63f92ee8a960e01b8152600490fd5b600291506001600160401b031610155f6110bb565b503461020a578060031936011261020a575f516020613f665f395f51905f5254600d01546040516001600160a01b039091168152602090f35b503461020a578060031936011261020a57602065ffffffffffff5f516020613f665f395f51905f52545460c01c16604051908152f35b503461020a578060031936011261020a57602065ffffffffffff5f516020613f665f395f51905f52545416604051908152f35b503461020a578060031936011261020a5761023760125f516020613f665f395f51905f5254013390613a95565b503461020a57602036600319011261020a576115e4612fcd565b604051632474521560e21b8152600481018390523360248201526020816044816001600160a01b0386165afa90811561091b57839161163f575b50156108dd576102379060155f516020613f665f395f51905f525401613a0b565b611658915060203d60201161091457610906818361308c565b5f61161e565b503461020a578060031936011261020a57602065ffffffffffff60015f516020613f665f395f51905f5254015416604051908152f35b503461020a578060031936011261020a575f516020613f665f395f51905f5254600701546040516001600160a01b039091168152602090f35b503461020a578060031936011261020a575f516020613f665f395f51905f5254600d8101546040516302910f8b60e31b815233600482015290602090829060249082906001600160a01b03165afa90811561091b5783916117eb575b50156117dc5760108101546040516308834cb560e21b815233600482015230602482015290602090829060449082906001600160a01b03165afa90811561091b5783916117bd575b50156117ae576117979065ffffffffffff61178b42613d68565b16906012339101613b73565b1561179f5780f35b63f411c32760e01b8152600490fd5b6396cc2bc360e01b8252600482fd5b6117d6915060203d60201161091457610906818361308c565b5f611771565b6325878fa360e21b8252600482fd5b611804915060203d60201161091457610906818361308c565b5f611729565b503461020a57602036600319011261020a576001600160a01b0361182c612fcd565b16604051632474521560e21b8152826004820152336024820152602081604481855afa90811561091b5783916118e8575b50156108dd575f516020613f665f395f51905f525460158101906118846107ad8484613db1565b5065ffffffffffff81161592915082156118b8575b50506118a957906107ef91613d97565b6347a11ef760e11b8352600483fd5b65ffffffffffff9192506118dd8291826118d142613d68565b955460901c16906131c9565b169116105f80611899565b611901915060203d60201161091457610906818361308c565b5f61185d565b503461020a57602036600319011261020a576001600160401b036004351161020a5736602360043501121561020a576001600160401b03600435600401351161020a573660246004356004013560051b60043501011161020a575f516020613f665f395f51905f525460098101546001600160a01b03163303611ba85781906020905b60043560040135831015611ba45760248360051b600435010135608219600435360301811215611ba05760043501906119e66001600160a01b036119d0602485016130f2565b165f908152601383016020526040902054151590565b15611b9157845b6119fd606484016024850161311e565b9050811015611b8457611a2081611a1a606486016024870161311e565b90613153565b611a4a6001600160a01b03611a34836130f2565b165f908152601685016020526040902054151590565b1561071257869190600490866001600160a01b03611a67836130f2565b166040519384809263b134427160e01b82525afa918215610f1d578492611b65575b50600585015491611a9c602488016130f2565b604488013565ffffffffffff81169003611b615788958694611b21604051611ac4888261308c565b838152601f1988013689830137604051998a978896879563545ce38960e01b8752600487015260018060a01b031660248601520135604484015265ffffffffffff60448d013516606484015260a0608484015260a48301906131a5565b03926001600160a01b03165af19182156106cf57600192611b44575b50016119ed565b611b5a90863d88116106c8576106b9818361308c565b505f611b3d565b8580fd5b611b7d919250873d8911610700576106f2818361308c565b905f611a89565b509260019150019161198a565b6303fa1eaf60e41b8552600485fd5b8480fd5b8380f35b633fdc220360e01b8252600482fd5b503461020a57604036600319011261020a57611bd1612fcd565b6024356001600160a01b03811692919083900361073457604051632474521560e21b8152600481018390523360248201526001600160a01b0382169190602081604481865afa908115610f1d57849161258d575b501561257e575f516020613f665f395f51905f5254600c8101546040516302910f8b60e31b81526004810185905290602090829060249082906001600160a01b03165afa90811561218657859161255f575b50156125505760405163054fd4d560e41b8152602081600481875afa908115612186578591612531575b5060038201906001600160401b03808354169116036125225760405163d8dfeb4560e01b8152602081600481885afa9081156121bd578691612503575b5060048301546001600160a01b039081169116036124f4576040516327f843b560e11b8152602081600481885afa9081156121bd5786916124d5575b5065ffffffffffff80845460301c1691169081106124c65760405163142186b760e21b8152602081600481895afa9081156106cf5787916124a7575b501561249857604051630ce9b79360e41b8152602081600481895afa9081156106cf578791612479575b506005840180546040516368adba0760e11b815260048101919091529092916001600160a01b031690602081602481855afa908115610d2a578991612447575b50196123f2575b602060049160405192838092637f5a7c7b60e01b82525afa9081156107075788916123d3575b506001600160a01b03166123c157604051630dd83c7f60e31b81526020816004818a5afa9081156107075788916123a2575b50156123935760405163b134427160e01b81526020816004818a5afa908115610707578891612374575b50604051635d927f4560e11b81526001600160a01b039190911693602082600481885afa918215610d2a578992612348575b506001600160401b0380915460401c1691160361233957604051631a684c7560e11b8152602081600481875afa90811561070757889161231a575b5061230b5760405163e054e08b60e01b8152602081600481875afa9081156107075788916122dc575b5065ffffffffffff855460c01c1665ffffffffffff8216106122cd57611f1365ffffffffffff9182600188015416906131c9565b16116122be5760405163bc6eac5b60e01b8152602081600481865afa9081156106cf578791612288575b50600284015410612279575490602092611f9584604051611f5e828261308c565b898152601f19820195863684840137604051938492839263cd05b8a160e01b845260048401526040602484015260448301906131a5565b0381865afa90811561070757889161225c575b506001600160a01b0316806122355750600b0154604051926001600160a01b0390911690611fd6858561308c565b8784523685850137813b15610dd65791869161201c93836040518096819582946348b47ce960e11b845284600485015260248401526060604484015260648301906131a5565b03925af1801561218657908591612220575b50505b6040516313c085b760e11b81528181600481875afa908115612186578591612203575b506001600160a01b0316156121f4575f516020613f665f395f51905f52549260248260018060a01b03601187015416604051928380926302910f8b60e31b82528b60048301525afa9081156121bd5786916121d7575b50156121c85760405163411557d160e01b815282816004818a5afa9081156121bd5786916121a0575b506001600160a01b0316036121915760405163054fd4d560e41b81528181600481895afa91821561218657916001600160401b03916002938792612159575b5050160361214a576015611797939465ffffffffffff61213142613d68565b1660609190911b6001600160601b031916179201613b73565b63ded51c0b60e01b8352600483fd5b6121789250803d1061217f575b612170818361308c565b8101906139ce565b5f80612112565b503d612166565b6040513d87823e3d90fd5b630a724f6160e01b8452600484fd5b6121b79150833d8511610700576106f2818361308c565b5f6120d3565b6040513d88823e3d90fd5b6346e01c4360e11b8552600485fd5b6121ee9150833d851161091457610906818361308c565b5f6120aa565b630c6b5ff760e31b8452600484fd5b61221a9150823d8411610700576106f2818361308c565b5f612054565b8161222a9161308c565b610dda57835f61202e565b600b909101546001600160a01b0316149150612031905057633cc6586560e21b8452600484fd5b6122739150853d8711610700576106f2818361308c565b5f611fa8565b633a2662c360e11b8652600486fd5b90506020813d6020116122b6575b816122a36020938361308c565b810103126122b257515f611f3d565b5f80fd5b3d9150612296565b6307cfe49360e51b8652600486fd5b633062eb1960e21b8852600488fd5b6122fe915060203d602011612304575b6122f6818361308c565b8101906139ed565b5f611edf565b503d6122ec565b63447984b360e11b8752600487fd5b612333915060203d60201161091457610906818361308c565b5f611eb6565b63f8c618c760e01b8752600487fd5b6001600160401b0391925061236c829160203d60201161217f57612170818361308c565b929150611e7b565b61238d915060203d602011610700576106f2818361308c565b5f611e49565b631501f36360e21b8752600487fd5b6123bb915060203d60201161091457610906818361308c565b5f611e1f565b60016221bb1360e11b03198752600487fd5b6123ec915060203d602011610700576106f2818361308c565b5f611ded565b803b15610d26576040516323f752d560e01b8152600481018990525f196024820152888160448183865af18015610d2a57908991612432575b5050611dc7565b8161243c9161308c565b610d2657875f61242b565b90506020813d602011612471575b816124626020938361308c565b810103126122b257515f611dc0565b3d9150612455565b612492915060203d602011610700576106f2818361308c565b5f611d80565b636e549c1760e11b8652600486fd5b6124c0915060203d60201161091457610906818361308c565b5f611d56565b634934476760e01b8652600486fd5b6124ee915060203d602011612304576122f6818361308c565b5f611d1a565b63039a1fd760e21b8552600485fd5b61251c915060203d602011610700576106f2818361308c565b5f611cde565b63bfcdc45f60e01b8552600485fd5b61254a915060203d60201161217f57612170818361308c565b5f611ca1565b635b19e4bb60e01b8452600484fd5b612578915060203d60201161091457610906818361308c565b5f611c77565b630e7fea9d60e01b8352600483fd5b6125a6915060203d60201161091457610906818361308c565b5f611c25565b50346122b2576102e03660031901126122b2575f516020613f865f395f51905f52546001600160401b0360ff8260401c1615911680159081612fc5575b6001149081612fbb575b159081612fb2575b50612fa3578060016001600160401b03195f516020613f865f395f51905f525416175f516020613f865f395f51905f5255612f73575b6004356001600160a01b03811681036122b2576126509061110d613d3d565b612658613d3d565b6040908151612667838261308c565b601f815260208101907f6d6964646c65776172652e73746f726167652e4d6964646c6577617265563100825261269b613b11565b5190205f198101908111612f5f5782519060208201908152602082526126c1848361308c565b60ff199151902016805f516020613f665f395f51905f525560243565ffffffffffff811681036122b257815465ffffffffffff191665ffffffffffff91821617825560443590811681036122b25781546bffffffffffff000000000000191660309190911b65ffffffffffff60301b1617815560643565ffffffffffff811681036122b257815465ffffffffffff60601b191660609190911b65ffffffffffff60601b1617815560843565ffffffffffff811681036122b257815465ffffffffffff60901b191660909190911b65ffffffffffff60901b1617815560a43565ffffffffffff811681036122b257815465ffffffffffff60c01b191660c09190911b65ffffffffffff60c01b1617815560c43565ffffffffffff811681036122b25765ffffffffffff60018301911665ffffffffffff19825416178155600282019161012435835560e4356001600160401b03811681036122b2576001600160401b036003830191166001600160401b0319825416178155610104356001600160401b03811681036122b25781546fffffffffffffffff0000000000000000191660409190911b67ffffffffffffffff60401b16179055610144356001600160a01b03811681036122b2576004820180546001600160a01b0319166001600160a01b039283161790553060601b60058301556101643560068301556101843590811681036122b2576007820180546001600160a01b0319166001600160a01b039283161790556101a43590811681036122b2576008820180546001600160a01b0319166001600160a01b039283161790556101c43590811681036122b2576009820180546001600160a01b0319166001600160a01b039283161790556101e43590811681036122b257600a820180546001600160a01b0319166001600160a01b039283161790556102043590811681036122b257600b820180546001600160a01b0319166001600160a01b039283161790556102243590811681036122b257600c820180546001600160a01b0319166001600160a01b039283161790556102443590811681036122b257600d820180546001600160a01b0319166001600160a01b039092169190911790556129f36130c4565b600e820180546001600160a01b0319166001600160a01b03909216919091179055612a1c6130db565b600f820180546001600160a01b0319166001600160a01b039283161790556102a43590811681036122b2576010820180546001600160a01b0319166001600160a01b039283161790556102c43590811681036122b2576011820180546001600160a01b0319166001600160a01b03928316179055612a986130c4565b16803b156122b2575f809160048851809481936387140b5b60e01b83525af18015612f5557612f40575b50856001600160a01b03612ad46130db565b16803b1561073457818091602489518094819363b7d8e1a960e01b83523060048401525af18015612f3657612f21575b5050549065ffffffffffff821615612edd5765ffffffffffff8260301c16918060011b6601fffffffffffe65fffffffffffe821691168103612ec9578310612e68578265ffffffffffff8260601c1610612df2578265ffffffffffff8260901c1610612d885760c01c65ffffffffffff16908115612d44575465ffffffffffff16908115612cef5765ffffffffffff91612b9d916131c9565b1611612c5f576003905410612c0657612bb4575080f35b60207fc7f505b2f371ae2175ee4913f4499e1f2633a7b5936321eed1cdaeb6115181d29160ff60401b195f516020613f865f395f51905f5254165f516020613f865f395f51905f52555160018152a180f35b815162461bcd60e51b815260206004820152602c60248201527f5265736f6c766572207365742065706f6368732064656c6179206d757374206260448201526b65206174206c65617374203360a01b6064820152608490fd5b825162461bcd60e51b815260206004820152605f60248201527f5665746f206475726174696f6e20616e6420736c61736820657865637574696f60448201527f6e2064656c6179206d757374206265206c657373207468616e206f722065717560648201527f616c20746f206d696e207661756c74732065706f6368206475726174696f6e00608482015260a490fd5b855162461bcd60e51b815260206004820152602860248201527f4d696e20736c61736820657865637574696f6e2064656c61792063616e6e6f74604482015267206265207a65726f60c01b6064820152608490fd5b855162461bcd60e51b815260206004820152601c60248201527f5665746f206475726174696f6e2063616e6e6f74206265207a65726f000000006044820152606490fd5b855162461bcd60e51b815260206004820152602481018790527f5661756c7420677261636520706572696f64206d75737420626520626967676560448201527f72207468616e206d696e207661756c74732065706f6368206475726174696f6e6064820152608490fd5b855162461bcd60e51b815260206004820152604360248201527f4f70657261746f7220677261636520706572696f64206d75737420626520626960448201527f67676572207468616e206d696e207661756c74732065706f636820647572617460648201526234b7b760e91b608482015260a490fd5b855162461bcd60e51b815260206004820152603460248201527f4d696e207661756c74732065706f6368206475726174696f6e206d75737420626044820152736520626967676572207468616e2032206572617360601b6064820152608490fd5b634e487b7160e01b88526011600452602488fd5b845162461bcd60e51b815260206004820152601b60248201527f457261206475726174696f6e2063616e6e6f74206265207a65726f00000000006044820152606490fd5b81612f2b9161308c565b611b6157855f612b04565b87513d84823e3d90fd5b612f4d9196505f9061308c565b5f945f612ac2565b86513d5f823e3d90fd5b634e487b7160e01b5f52601160045260245ffd5b600160401b60ff60401b195f516020613f865f395f51905f525416175f516020613f865f395f51905f5255612631565b63f92ee8a960e01b5f5260045ffd5b9050155f6125fb565b303b1591506125f3565b8291506125e9565b600435906001600160a01b03821682036122b257565b35906001600160a01b03821682036122b257565b6004359065ffffffffffff821682036122b257565b6024359065ffffffffffff821682036122b257565b90602080835192838152019201905f5b81811061303e5750505090565b82516001600160a01b0316845260209384019390920191600101613031565b604081019081106001600160401b0382111761307857604052565b634e487b7160e01b5f52604160045260245ffd5b90601f801991011681019081106001600160401b0382111761307857604052565b6001600160401b0381116130785760051b60200190565b610264356001600160a01b03811681036122b25790565b610284356001600160a01b03811681036122b25790565b356001600160a01b03811681036122b25790565b908160209103126122b2575180151581036122b25790565b903590601e19813603018212156122b257018035906001600160401b0382116122b257602001918160061b360383136122b257565b91908110156131635760061b0190565b634e487b7160e01b5f52603260045260245ffd5b908160209103126122b257516001600160a01b03811681036122b25790565b908160209103126122b2575190565b805180835260209291819084018484015e5f828201840152601f01601f1916010190565b9065ffffffffffff8091169116019065ffffffffffff8211612f5f57565b80518210156131635760209160051b010190565b91908201809211612f5f57565b91811561341557613218836137bc565b9281518181111561340c575f5f198201828111925b80831061333357505050506001945f19820190828211612f5f5761325182876131e7565b5183975b855189101561332557816132698a8a6131e7565b51036132855760018101809111612f5f57600190980197613255565b9395975050909294505b600182116132a0575b505050815290565b604051602081019165ffffffffffff60d01b9060d01b168252600681526132c860268261308c565b519020908015613311576132dd9106836131fb565b5f198101908111612f5f57613308906001600160a01b03906132ff90866131e7565b511691846131e7565b525f8080613298565b634e487b7160e01b5f52601260045260245ffd5b93959750509092945061328f565b9296958792959891945f935b612f5f578685035f1901868111612f5f578410156133f95761336184896131e7565b516001850194858111612f5f57858c8260019461337f8f9a8f6131e7565b5111613390575b505050019361333f565b6133f0918d6133c0836133a387846131e7565b51926133af82826131e7565b516133ba89836131e7565b526131e7565b52858060a01b036133d185836131e7565b5116936133ba878060a01b036133e785856131e7565b511691836131e7565b525f8c82613386565b949198956001919798949350019161322d565b50509150915090565b60405162461bcd60e51b815260206004820152602860248201527f4d61782076616c696461746f7273206d7573742062652067726561746572207460448201526768616e207a65726f60c01b6064820152608490fd5b6134a9906020808095946040519684889551918291018487015e8401908282015f8152815193849201905e01015f815203601f19810184528361308c565b565b906134b5826130ad565b6134c2604051918261308c565b82815280926134d3601f19916130ad565b01905f5b8281106134e357505050565b6020906040516134f28161305d565b5f81525f83820152828285010152016134d7565b9081526001600160a01b03909116602082015265ffffffffffff909116604082015260806060820181905261353d929101906131a5565b90565b5f516020613f665f395f51905f52546135738361356c6107ad6001600160a01b03861660128601613db1565b5090613b95565b15613776576015810192835491613589836134ab565b945f9460055f93015493602092601f198401945b8781106135f857505050505050505065ffffffffffff6135bd91166134ab565b905f5b81518110156135f357806135d6600192846131e7565b516135e182866131e7565b526135ec81856131e7565b50016135c0565b505090565b61356c613629846136098486613b44565b93909365ffffffffffff81169165ffffffffffff8260301c169160601c90565b1561376d57604051630ce9b79360e41b81526001600160a01b0391909116908681600481855afa908115613745575f91613750575b5086856040519261366f838561308c565b5f84528a3684860137888c61369a6040519687958694859463e02f693760e01b865260048601613506565b03916001600160a01b03165afa908115613745575f91613718575b50806136c8575b50506001905b0161359d565b9965ffffffffffff91929a604051936136e08561305d565b84528784015216906136f2828c6131e7565b526136fd818b6131e7565b5065ffffffffffff8114612f5f57600180910198905f6136bc565b90508681813d831161373e575b61372f818361308c565b810103126122b257515f6136b5565b503d613725565b6040513d5f823e3d90fd5b6137679150873d8911610700576106f2818361308c565b5f61365e565b506001906136c2565b50505060405161378760208261308c565b5f81525f805b81811061379957505090565b6020906040516137a88161305d565b5f81525f838201528282860101520161378d565b905f516020613f665f395f51905f525465ffffffffffff6137dc42613d68565b1665ffffffffffff8416101561390e57613813815465ffffffffffff808260601c169160901c168082105f146103905750846131c9565b65ffffffffffff8061382442613d68565b169116111561390e5760120180549261383c846130ad565b9161384a604051938461308c565b848352601f19613859866130ad565b01366020850137613869856130ad565b94613877604051968761308c565b808652601f19613886826130ad565b013660208801375f925f925b8284106138a6575050505080825283529190565b9091929361356c6138bb846136098886613b44565b1561390457836138e0916138cf848a6131e7565b6001600160a01b0382169052613bee565b6138ea828a6131e7565b5260018101809111612f5f57600190945b01929190613892565b50936001906138fb565b63686c69fd60e01b5f5260045ffd5b906139498161356c6107ad60125f516020613f665f395f51905f52540160018060a01b03871690613db1565b156139575761353d91613bee565b50505f90565b6001600160a01b031680156139bb575f516020613f465f395f51905f5280546001600160a01b0319811683179091556001600160a01b03167f8be0079c531659141344cd1fd0a4f28419497f9722a3daafe3b4186f6b6457e05f80a3565b631e4fbdf760e01b5f525f60045260245ffd5b908160209103126122b257516001600160401b03811681036122b25790565b908160209103126122b2575165ffffffffffff811681036122b25790565b65ffffffffffff91613a296107ad6001600160a01b03831684613db1565b9194909416938415908115613a83575b50613a7457613a719365ffffffffffff60301b613a5542613d68565b60301b161760609190911b6001600160601b0319161791613b73565b50565b633f54562b60e11b5f5260045ffd5b65ffffffffffff91501615155f613a39565b65ffffffffffff91613ab36107ad6001600160a01b03831684613db1565b9490911615159081613b00575b50613af157613a719265ffffffffffff613ad942613d68565b1660609190911b6001600160601b0319161791613b73565b637952fbad60e11b5f5260045ffd5b65ffffffffffff915016155f613ac0565b5f516020613f465f395f51905f52546001600160a01b03163303613b3157565b63118cdaa760e01b5f523360045260245ffd5b9190613b5260029184613e08565b90549060031b1c92835f520160205260405f20549160018060a01b03169190565b61353d929160018060a01b031691825f526002820160205260405f2055613ef8565b65ffffffffffff1680151592919083613bdb575b5082613bb457505090565b65ffffffffffff1680159250908215613bcc57505090565b65ffffffffffff161115905090565b65ffffffffffff8316101592505f613ba9565b5f516020613f665f395f51905f52546015810180546005909201545f95948694602093869391905b868810613c27575050505050505050565b909192939495969861356c613c40866136098d86613b44565b15613d3357604051630ce9b79360e41b8152908890829060049082906001600160a01b03165afa90811561374557613cb19189915f91613d16575b5060405190613c8a838361308c565b5f8252893684840137604051808095819463e02f693760e01b83528c8b8d60048601613506565b03916001600160a01b03165afa908115613745575f91613ce8575b50613cd9906001926131fb565b995b0196959493929190613c16565b90508781813d8311613d0f575b613cff818361308c565b810103126122b257516001613ccc565b503d613cf5565b613d2d9150823d8411610700576106f2818361308c565b5f613c7b565b5098600190613cdb565b60ff5f516020613f865f395f51905f525460401c1615613d5957565b631afcd79f60e31b5f5260045ffd5b65ffffffffffff8111613d805765ffffffffffff1690565b6306dfcc6560e41b5f52603060045260245260445ffd5b9061353d91815f52600281016020525f6040812055613e1d565b90805f526002820160205260405f2054918183159182613de8575b5050613dd6575090565b63015ab34360e11b5f5260045260245ffd5b613e0092506001915f520160205260405f2054151590565b15815f613dcc565b8054821015613163575f5260205f2001905f90565b906001820191815f528260205260405f20548015155f14613ef0575f198101818111612f5f5782545f19810191908211612f5f57818103613ea5575b50505080548015613e91575f190190613e728282613e08565b8154905f199060031b1b19169055555f526020525f6040812055600190565b634e487b7160e01b5f52603160045260245ffd5b613edb613eb5613ec59386613e08565b90549060031b1c92839286613e08565b819391549060031b91821b915f19901b19161790565b90555f528360205260405f20555f8080613e59565b505050505f90565b5f82815260018201602052604090205461395757805490600160401b8210156130785782613f30613ec5846001809601855584613e08565b90558054925f520160205260405f205560019056fe9016d09d72d40fdae2fd8ceac6b6234c7706214fd39c1cd1e609a0528c1993000b8c56af6cc9ad401ad225bfe96df77f3049ba17eadac1cb95ee89df1e69d100f0c57e16840df040f15088dc2f81fe391c3923bec73e23a9662efc9c229c6a00f0c57e16840df040f15088dc2f81fe391c3923bec73e23a9662efc9c229c6a00","linkReferences":{}},"methodIdentifiers":{"allowedVaultImplVersion()":"c9b0b1e9","changeSlashExecutor(address)":"86c241a1","changeSlashRequester(address)":"6d1064eb","collateral()":"d8dfeb45","disableOperator()":"d99fcd66","disableVault(address)":"3ccce789","distributeOperatorRewards(address,uint256,bytes32)":"729e2f36","distributeStakerRewards(((address,uint256)[],uint256,address),uint48)":"7fbe95b5","enableOperator()":"3d15e74e","enableVault(address)":"936f4330","eraDuration()":"4455a38f","executeSlash((address,uint256)[])":"af962995","getActiveOperatorsStakeAt(uint48)":"b5e5ad12","getOperatorStakeAt(address,uint48)":"d99ddfc7","getOperatorStakeVaultsAt(address,uint48)":"87c99b41","initialize((address,uint48,uint48,uint48,uint48,uint48,uint48,uint64,uint64,uint256,address,uint256,address,address,address,address,address,(address,address,address,address,address,address)))":"05872a2b","makeElectionAt(uint48,uint256)":"6e5c7932","maxAdminFee()":"c639e2d6","maxResolverSetEpochsDelay()":"9e032311","minSlashExecutionDelay()":"373bba1f","minVaultEpochDuration()":"945cf2dd","minVetoDuration()":"461e7a8e","operatorGracePeriod()":"709d06ae","operatorRegistry()":"58c2225b","operatorRewards()":"2cd81009","owner()":"8da5cb5b","registerOperator()":"2acde098","registerVault(address,address)":"05c4fdf9","reinitialize()":"6c2eb350","renounceOwnership()":"715018a6","requestSlash((address,uint48,(address,uint256)[])[])":"0a71094c","roleSlashExecutor()":"e74f8bef","roleSlashRequester()":"dbb6eed2","router()":"f887ea40","subnetwork()":"ceebb69a","transferOwnership(address)":"f2fde38b","unregisterOperator(address)":"96115bc2","unregisterVault(address)":"2633b70f","vaultGracePeriod()":"79a8b245","vetoSlasherImplType()":"d55a5bdf"},"storageLayout":{"storage":[],"types":{}},"id":158}