{"abi":[{"type":"constructor","inputs":[],"stateMutability":"nonpayable"},{"type":"function","name":"allowedVaultImplVersion","inputs":[],"outputs":[{"name":"","type":"uint64","internalType":"uint64"}],"stateMutability":"view"},{"type":"function","name":"changeSlashExecutor","inputs":[{"name":"newRole","type":"address","internalType":"address"}],"outputs":[],"stateMutability":"nonpayable"},{"type":"function","name":"changeSlashRequester","inputs":[{"name":"newRole","type":"address","internalType":"address"}],"outputs":[],"stateMutability":"nonpayable"},{"type":"function","name":"collateral","inputs":[],"outputs":[{"name":"","type":"address","internalType":"address"}],"stateMutability":"view"},{"type":"function","name":"disableOperator","inputs":[],"outputs":[],"stateMutability":"nonpayable"},{"type":"function","name":"disableVault","inputs":[{"name":"vault","type":"address","internalType":"address"}],"outputs":[],"stateMutability":"nonpayable"},{"type":"function","name":"distributeOperatorRewards","inputs":[{"name":"token","type":"address","internalType":"address"},{"name":"amount","type":"uint256","internalType":"uint256"},{"name":"root","type":"bytes32","internalType":"bytes32"}],"outputs":[{"name":"","type":"bytes32","internalType":"bytes32"}],"stateMutability":"nonpayable"},{"type":"function","name":"distributeStakerRewards","inputs":[{"name":"_commitment","type":"tuple","internalType":"struct Gear.StakerRewardsCommitment","components":[{"name":"distribution","type":"tuple[]","internalType":"struct Gear.StakerRewards[]","components":[{"name":"vault","type":"address","internalType":"address"},{"name":"amount","type":"uint256","internalType":"uint256"}]},{"name":"totalAmount","type":"uint256","internalType":"uint256"},{"name":"token","type":"address","internalType":"address"}]},{"name":"timestamp","type":"uint48","internalType":"uint48"}],"outputs":[{"name":"","type":"bytes32","internalType":"bytes32"}],"stateMutability":"nonpayable"},{"type":"function","name":"enableOperator","inputs":[],"outputs":[],"stateMutability":"nonpayable"},{"type":"function","name":"enableVault","inputs":[{"name":"vault","type":"address","internalType":"address"}],"outputs":[],"stateMutability":"nonpayable"},{"type":"function","name":"eraDuration","inputs":[],"outputs":[{"name":"","type":"uint48","internalType":"uint48"}],"stateMutability":"view"},{"type":"function","name":"executeSlash","inputs":[{"name":"slashes","type":"tuple[]","internalType":"struct IMiddleware.SlashIdentifier[]","components":[{"name":"vault","type":"address","internalType":"address"},{"name":"index","type":"uint256","internalType":"uint256"}]}],"outputs":[],"stateMutability":"nonpayable"},{"type":"function","name":"getActiveOperatorsStakeAt","inputs":[{"name":"ts","type":"uint48","internalType":"uint48"}],"outputs":[{"name":"activeOperators","type":"address[]","internalType":"address[]"},{"name":"stakes","type":"uint256[]","internalType":"uint256[]"}],"stateMutability":"view"},{"type":"function","name":"getOperatorStakeAt","inputs":[{"name":"operator","type":"address","internalType":"address"},{"name":"ts","type":"uint48","internalType":"uint48"}],"outputs":[{"name":"stake","type":"uint256","internalType":"uint256"}],"stateMutability":"view"},{"type":"function","name":"initialize","inputs":[{"name":"_params","type":"tuple","internalType":"struct IMiddleware.InitParams","components":[{"name":"owner","type":"address","internalType":"address"},{"name":"eraDuration","type":"uint48","internalType":"uint48"},{"name":"minVaultEpochDuration","type":"uint48","internalType":"uint48"},{"name":"operatorGracePeriod","type":"uint48","internalType":"uint48"},{"name":"vaultGracePeriod","type":"uint48","internalType":"uint48"},{"name":"minVetoDuration","type":"uint48","internalType":"uint48"},{"name":"minSlashExecutionDelay","type":"uint48","internalType":"uint48"},{"name":"allowedVaultImplVersion","type":"uint64","internalType":"uint64"},{"name":"vetoSlasherImplType","type":"uint64","internalType":"uint64"},{"name":"maxResolverSetEpochsDelay","type":"uint256","internalType":"uint256"},{"name":"collateral","type":"address","internalType":"address"},{"name":"maxAdminFee","type":"uint256","internalType":"uint256"},{"name":"operatorRewards","type":"address","internalType":"address"},{"name":"router","type":"address","internalType":"address"},{"name":"roleSlashRequester","type":"address","internalType":"address"},{"name":"roleSlashExecutor","type":"address","internalType":"address"},{"name":"vetoResolver","type":"address","internalType":"address"},{"name":"registries","type":"tuple","internalType":"struct Gear.SymbioticRegistries","components":[{"name":"vaultRegistry","type":"address","internalType":"address"},{"name":"operatorRegistry","type":"address","internalType":"address"},{"name":"networkRegistry","type":"address","internalType":"address"},{"name":"middlewareService","type":"address","internalType":"address"},{"name":"networkOptIn","type":"address","internalType":"address"},{"name":"stakerRewardsFactory","type":"address","internalType":"address"}]}]}],"outputs":[],"stateMutability":"nonpayable"},{"type":"function","name":"makeElectionAt","inputs":[{"name":"ts","type":"uint48","internalType":"uint48"},{"name":"maxValidators","type":"uint256","internalType":"uint256"}],"outputs":[{"name":"","type":"address[]","internalType":"address[]"}],"stateMutability":"view"},{"type":"function","name":"maxAdminFee","inputs":[],"outputs":[{"name":"","type":"uint256","internalType":"uint256"}],"stateMutability":"view"},{"type":"function","name":"maxResolverSetEpochsDelay","inputs":[],"outputs":[{"name":"","type":"uint256","internalType":"uint256"}],"stateMutability":"view"},{"type":"function","name":"minSlashExecutionDelay","inputs":[],"outputs":[{"name":"","type":"uint48","internalType":"uint48"}],"stateMutability":"view"},{"type":"function","name":"minVaultEpochDuration","inputs":[],"outputs":[{"name":"","type":"uint48","internalType":"uint48"}],"stateMutability":"view"},{"type":"function","name":"minVetoDuration","inputs":[],"outputs":[{"name":"","type":"uint48","internalType":"uint48"}],"stateMutability":"view"},{"type":"function","name":"operatorGracePeriod","inputs":[],"outputs":[{"name":"","type":"uint48","internalType":"uint48"}],"stateMutability":"view"},{"type":"function","name":"operatorRegistry","inputs":[],"outputs":[{"name":"","type":"address","internalType":"address"}],"stateMutability":"view"},{"type":"function","name":"operatorRewards","inputs":[],"outputs":[{"name":"","type":"address","internalType":"address"}],"stateMutability":"view"},{"type":"function","name":"owner","inputs":[],"outputs":[{"name":"","type":"address","internalType":"address"}],"stateMutability":"view"},{"type":"function","name":"registerOperator","inputs":[],"outputs":[],"stateMutability":"nonpayable"},{"type":"function","name":"registerVault","inputs":[{"name":"_vault","type":"address","internalType":"address"},{"name":"_rewards","type":"address","internalType":"address"}],"outputs":[],"stateMutability":"nonpayable"},{"type":"function","name":"reinitialize","inputs":[],"outputs":[],"stateMutability":"nonpayable"},{"type":"function","name":"renounceOwnership","inputs":[],"outputs":[],"stateMutability":"nonpayable"},{"type":"function","name":"requestSlash","inputs":[{"name":"data","type":"tuple[]","internalType":"struct IMiddleware.SlashData[]","components":[{"name":"operator","type":"address","internalType":"address"},{"name":"ts","type":"uint48","internalType":"uint48"},{"name":"vaults","type":"tuple[]","internalType":"struct IMiddleware.VaultSlashData[]","components":[{"name":"vault","type":"address","internalType":"address"},{"name":"amount","type":"uint256","internalType":"uint256"}]}]}],"outputs":[],"stateMutability":"nonpayable"},{"type":"function","name":"roleSlashExecutor","inputs":[],"outputs":[{"name":"","type":"address","internalType":"address"}],"stateMutability":"view"},{"type":"function","name":"roleSlashRequester","inputs":[],"outputs":[{"name":"","type":"address","internalType":"address"}],"stateMutability":"view"},{"type":"function","name":"router","inputs":[],"outputs":[{"name":"","type":"address","internalType":"address"}],"stateMutability":"view"},{"type":"function","name":"subnetwork","inputs":[],"outputs":[{"name":"","type":"bytes32","internalType":"bytes32"}],"stateMutability":"view"},{"type":"function","name":"transferOwnership","inputs":[{"name":"newOwner","type":"address","internalType":"address"}],"outputs":[],"stateMutability":"nonpayable"},{"type":"function","name":"unregisterOperator","inputs":[{"name":"operator","type":"address","internalType":"address"}],"outputs":[],"stateMutability":"nonpayable"},{"type":"function","name":"unregisterVault","inputs":[{"name":"vault","type":"address","internalType":"address"}],"outputs":[],"stateMutability":"nonpayable"},{"type":"function","name":"vaultGracePeriod","inputs":[],"outputs":[{"name":"","type":"uint48","internalType":"uint48"}],"stateMutability":"view"},{"type":"function","name":"vetoSlasherImplType","inputs":[],"outputs":[{"name":"","type":"uint64","internalType":"uint64"}],"stateMutability":"view"},{"type":"event","name":"Initialized","inputs":[{"name":"version","type":"uint64","indexed":false,"internalType":"uint64"}],"anonymous":false},{"type":"event","name":"OwnershipTransferred","inputs":[{"name":"previousOwner","type":"address","indexed":true,"internalType":"address"},{"name":"newOwner","type":"address","indexed":true,"internalType":"address"}],"anonymous":false},{"type":"error","name":"AlreadyAdded","inputs":[]},{"type":"error","name":"AlreadyEnabled","inputs":[]},{"type":"error","name":"BurnerHookNotSupported","inputs":[]},{"type":"error","name":"DelegatorNotInitialized","inputs":[]},{"type":"error","name":"EnumerableMapNonexistentKey","inputs":[{"name":"key","type":"bytes32","internalType":"bytes32"}]},{"type":"error","name":"IncompatibleSlasherType","inputs":[]},{"type":"error","name":"IncompatibleStakerRewardsVersion","inputs":[]},{"type":"error","name":"IncompatibleVaultVersion","inputs":[]},{"type":"error","name":"IncorrectTimestamp","inputs":[]},{"type":"error","name":"InvalidInitialization","inputs":[]},{"type":"error","name":"InvalidStakerRewardsVault","inputs":[]},{"type":"error","name":"NonFactoryStakerRewards","inputs":[]},{"type":"error","name":"NonFactoryVault","inputs":[]},{"type":"error","name":"NotEnabled","inputs":[]},{"type":"error","name":"NotInitializing","inputs":[]},{"type":"error","name":"NotRegisteredOperator","inputs":[]},{"type":"error","name":"NotRegisteredVault","inputs":[]},{"type":"error","name":"NotRouter","inputs":[]},{"type":"error","name":"NotSlashExecutor","inputs":[]},{"type":"error","name":"NotSlashRequester","inputs":[]},{"type":"error","name":"NotVaultOwner","inputs":[]},{"type":"error","name":"OperatorDoesNotExist","inputs":[]},{"type":"error","name":"OperatorDoesNotOptIn","inputs":[]},{"type":"error","name":"OperatorGracePeriodNotPassed","inputs":[]},{"type":"error","name":"OwnableInvalidOwner","inputs":[{"name":"owner","type":"address","internalType":"address"}]},{"type":"error","name":"OwnableUnauthorizedAccount","inputs":[{"name":"account","type":"address","internalType":"address"}]},{"type":"error","name":"ReentrancyGuardReentrantCall","inputs":[]},{"type":"error","name":"ResolverMismatch","inputs":[]},{"type":"error","name":"ResolverSetDelayTooLong","inputs":[]},{"type":"error","name":"SafeCastOverflowedUintDowncast","inputs":[{"name":"bits","type":"uint8","internalType":"uint8"},{"name":"value","type":"uint256","internalType":"uint256"}]},{"type":"error","name":"SlasherNotInitialized","inputs":[]},{"type":"error","name":"UnknownCollateral","inputs":[]},{"type":"error","name":"UnsupportedBurner","inputs":[]},{"type":"error","name":"UnsupportedDelegatorHook","inputs":[]},{"type":"error","name":"VaultGracePeriodNotPassed","inputs":[]},{"type":"error","name":"VaultWrongEpochDuration","inputs":[]},{"type":"error","name":"VetoDurationTooLong","inputs":[]},{"type":"error","name":"VetoDurationTooShort","inputs":[]}],"bytecode":{"object":"0x6080806040523460aa575f516020613d1f5f395f51905f525460ff8160401c16609b576002600160401b03196001600160401b038216016049575b604051613c7090816100af8239f35b6001600160401b0319166001600160401b039081175f516020613d1f5f395f51905f525581527fc7f505b2f371ae2175ee4913f4499e1f2633a7b5936321eed1cdaeb6115181d290602090a15f80603a565b63f92ee8a960e01b5f5260045ffd5b5f80fdfe60806040526004361015610011575f80fd5b5f5f3560e01c806305872a2b1461254257806305c4fdf914611b4d5780630a71094c1461189d5780632633b70f146117a05780632acde098146116635780632cd810091461162a578063373bba1f146115f45780633ccce789146115605780633d15e74e146115335780634455a38f14611500578063461e7a8e146114ca57806358c2225b146114915780636c2eb3501461101a5780636d1064eb14610fbc5780636e5c793214610f7b578063709d06ae14610f45578063715018a614610edc578063729e2f3614610dbe57806379a8b24514610d885780637fbe95b5146109bd57806386c241a1146109505780638da5cb5b1461091b578063936f43301461085d578063945cf2dd1461082757806396115bc21461075b5780639e0323111461072d578063af9629951461051a578063b5e5ad12146104a1578063c639e2d614610473578063c9b0b1e91461043c578063ceebb69a1461040e578063d55a5bdf146103d4578063d8dfeb451461039b578063d99ddfc7146102ce578063d99fcd66146102a1578063dbb6eed214610268578063e74f8bef1461022f578063f2fde38b146102025763f887ea40146101c7575f80fd5b346101ff57806003193601126101ff575f516020613c305f395f51905f5254600801546040516001600160a01b039091168152602090f35b80fd5b50346101ff5760203660031901126101ff5761022c61021f612f63565b6102276137a5565b6135f1565b80f35b50346101ff57806003193601126101ff575f516020613c305f395f51905f5254600a01546040516001600160a01b039091168152602090f35b50346101ff57806003193601126101ff575f516020613c305f395f51905f5254600901546040516001600160a01b039091168152602090f35b50346101ff57806003193601126101ff5761022c60125f516020613c305f395f51905f525401339061369f565b50346101ff5760403660031901126101ff576102e8612f63565b6102f0612fa2565b915f516020613c305f395f51905f525465ffffffffffff61031042613a32565b1665ffffffffffff8516101561038c57610348905465ffffffffffff808260601c169160901c168082105f1461038557505b84613144565b65ffffffffffff8061035942613a32565b169116111561037657602061036e84846135ae565b604051908152f35b63686c69fd60e01b8152600490fd5b9050610342565b63686c69fd60e01b8252600482fd5b50346101ff57806003193601126101ff575f516020613c305f395f51905f5254600401546040516001600160a01b039091168152602090f35b50346101ff57806003193601126101ff5760206001600160401b0360035f516020613c305f395f51905f5254015460401c16604051908152f35b50346101ff57806003193601126101ff57602060055f516020613c305f395f51905f52540154604051908152f35b50346101ff57806003193601126101ff5760206001600160401b0360035f516020613c305f395f51905f5254015416604051908152f35b50346101ff57806003193601126101ff57602060065f516020613c305f395f51905f52540154604051908152f35b50346101ff5760203660031901126101ff576104dd906104c76104c2612f8d565b613426565b9091604051938493604085526040850190612fb7565b8381036020850152602080845192838152019301915b818110610501575050500390f35b82518452859450602093840193909201916001016104f3565b50346101ff5760203660031901126101ff576004356001600160401b03811161072957366023820112156107295780600401356001600160401b038111610725576024820191602436918360061b010111610725575f516020613c305f395f51905f5254600901546001600160a01b03163303610716576020905f90845b8181106105a3578580f35b6105ae8183876130ce565b5f516020613c305f395f51905f52549091906105ed906015016001600160a01b036105d88561306d565b16906001915f520160205260405f2054151590565b15610707576004856001600160a01b036106068561306d565b166040519283809263b134427160e01b82525afa9283156106fc576106749387928a916106cf575b50828a6040519361063f8386612ff3565b81855289368487013760405197889586948593635ca61c3760e11b855201356004840152604060248401526044830190613120565b03926001600160a01b03165af19182156106c457600192610697575b5001610598565b6106b690863d88116106bd575b6106ae8183612ff3565b810190613111565b505f610690565b503d6106a4565b6040513d89823e3d90fd5b6106ef9150833d85116106f5575b6106e78183612ff3565b8101906130f2565b5f61062e565b503d6106dd565b6040513d8a823e3d90fd5b633b2fc1c360e21b8752600487fd5b633fdc220360e01b8352600483fd5b8280fd5b5080fd5b50346101ff57806003193601126101ff57602060025f516020613c305f395f51905f52540154604051908152f35b50346101ff5760203660031901126101ff57610775612f63565b5f516020613c305f395f51905f52546001600160a01b039091169060128101906107bf6107a28484613a7b565b65ffffffffffff81169165ffffffffffff8260301c169160601c90565b5065ffffffffffff81161592915082156107f7575b50506107e857906107e491613a61565b5080f35b63f1c9810160e01b8352600483fd5b65ffffffffffff91925061081c82918261081042613a32565b955460601c1690613144565b169116105f806107d4565b50346101ff57806003193601126101ff57602065ffffffffffff5f516020613c305f395f51905f52545460301c16604051908152f35b50346101ff5760203660031901126101ff57610877612f63565b604051632474521560e21b8152600481018390523360248201526020816044816001600160a01b0386165afa9081156109105783916108e1575b50156108d25761022c9060155f516020613c305f395f51905f525401613729565b630e7fea9d60e01b8252600482fd5b610903915060203d602011610909575b6108fb8183612ff3565b810190613081565b5f6108b1565b503d6108f1565b6040513d85823e3d90fd5b50346101ff57806003193601126101ff575f516020613c105f395f51905f52546040516001600160a01b039091168152602090f35b50346101ff5760203660031901126101ff5761096a612f63565b5f516020613c305f395f51905f5254600a0180549091906001600160a01b031633036109ae5781546001600160a01b0319166001600160a01b039190911617905580f35b632249f71f60e21b8352600483fd5b50346101ff5760403660031901126101ff576004356001600160401b038111610729576060600319823603011261072957604051606081018181106001600160401b03821117610d745760405281600401356001600160401b038111610d7057820136602382011215610d70576004810135610a3881613028565b91610a466040519384612ff3565b818352602060048185019360061b8301010190368211610d6c57602401915b818310610d0e575050508152610a88604460208301936024810135855201612f79565b9060408101918252610a98612fa2565b935f516020613c305f395f51905f525490600882019460018060a01b038654163303610cff57845160048401546001600160a01b03918216911603610cf057819594939550606093829565ffffffffffff60066015870196019916926020965b895180518a1015610ca95789610b0d91613162565b5180516001600160a01b03165f9081526001890160205260409020541561070757908b9186610bc68b610bb88b610ba6610b558f6107a29060018060a01b038a511690613a7b565b9a546040516001600160a01b03909c169b92509050610b748683612ff3565b83825260405193610b858786612ff3565b845260405197889687015260408601526080606086015260a0850190613120565b838103601f1901608085015290613120565b03601f198101835282612ff3565b85548751838d0180519096909290916001600160a01b039081169116823b15610ca557908c80949392610c266040519788968795869463239723ed60e01b8652600486015260248501526044840152608060648401526084830190613120565b03925af18015610c9a57908991610c81575b505091610c7991600193519151604051926bffffffffffffffffffffffff199060601b168c840152603483015260348252610c74605483612ff3565b6133e6565b980197610af8565b81610c8b91612ff3565b610c9657875f610c38565b8780fd5b6040513d8b823e3d90fd5b8c80fd5b88610ce286848651915160405192858401526bffffffffffffffffffffffff199060601b16604083015260348252610c74605483612ff3565b818151910120604051908152f35b63039a1fd760e21b8252600482fd5b639165520160e01b8252600482fd5b604083360312610d6c57604051604081018181106001600160401b03821117610d5857916020916040938452610d4386612f79565b81528286013583820152815201920191610a65565b634e487b7160e01b89526041600452602489fd5b8680fd5b8380fd5b634e487b7160e01b84526041600452602484fd5b50346101ff57806003193601126101ff57602065ffffffffffff5f516020613c305f395f51905f52545460901c16604051908152f35b50346101ff5760603660031901126101ff57610dd8612f63565b5f516020613c305f395f51905f5254600881015460243592604435926001600160a01b039092169133839003610ecd5760048101546001600160a01b0392831692168203610ebe57600701546001600160a01b031691859190833b15610725576084908360405195869485936348a78da760e01b8552600485015260248401528860448401528760648401525af18015610eb357610e9e575b6020838360405190838201928352604082015260408152610e93606082612ff3565b519020604051908152f35b610ea9848092612ff3565b6107255782610e71565b6040513d86823e3d90fd5b63039a1fd760e21b8652600486fd5b639165520160e01b8652600486fd5b50346101ff57806003193601126101ff57610ef56137a5565b5f516020613c105f395f51905f5280546001600160a01b0319811690915581906001600160a01b03167f8be0079c531659141344cd1fd0a4f28419497f9722a3daafe3b4186f6b6457e08280a380f35b50346101ff57806003193601126101ff57602065ffffffffffff5f516020613c305f395f51905f52545460601c16604051908152f35b50346101ff5760403660031901126101ff57610fb8610fa4610f9b612f8d565b60243590613183565b604051918291602083526020830190612fb7565b0390f35b50346101ff5760203660031901126101ff57610fd6612f63565b5f516020613c305f395f51905f525460090180549091906001600160a01b031633036107165781546001600160a01b0319166001600160a01b039190911617905580f35b50346101ff57806003193601126101ff576110336137a5565b5f516020613c505f395f51905f525460ff8160401c1690811561147c575b5061146d575f516020613c505f395f51905f52805468ffffffffffffffffff1916680100000000000000021790555f516020613c105f395f51905f52546110ab906001600160a01b03166110a3613a07565b610227613a07565b5f516020613c305f395f51905f5254604080516110c88282612ff3565b601f815260208101907f6d6964646c65776172652e73746f726167652e4d6964646c657761726556320082526110fc6137a5565b5190205f1981019081116114595781519060208201908152602082526111228383612ff3565b9051902060ff19165f516020613c305f395f51905f528190558254815465ffffffffffff90911665ffffffffffff19821681178355845465ffffffffffff60301b166001600160601b031990921617178155908254825465ffffffffffff60601b191665ffffffffffff60601b9091161782558254825465ffffffffffff60901b191665ffffffffffff60901b9091161782558254825465ffffffffffff60c01b191665ffffffffffff60c01b90911617825565ffffffffffff60018401541665ffffffffffff60018401911665ffffffffffff1982541617905560028301546002830155611255600384016001600160401b03808254169181600387019316821984541617835554841c1667ffffffffffffffff60401b82549160401b169067ffffffffffffffff60401b1916179055565b60048381015490830180546001600160a01b03199081166001600160a01b03938416179091556005808601549085015560068086015490850155600780860154908501805483169184169190911790556008808601549085018054831691841691909117905560098086015490850180548316918416919091179055600a8086015490850180548316918416919091179055600b8086015490850180549092169216919091179055600c8083019084018484036113c9575b50508392601281019260128101955b8454811015611343578061133c611335600193886137d8565b908a613807565b500161131c565b50601590810192910184805b8254811015611376578061136f611368600193866137d8565b9088613807565b500161134f565b507fc7f505b2f371ae2175ee4913f4499e1f2633a7b5936321eed1cdaeb6115181d260208460ff60401b195f516020613c505f395f51905f5254165f516020613c505f395f51905f52555160028152a180f35b5481546001600160a01b03199081166001600160a01b0392831617909255600d8581015490850180548416918316919091179055600e8086015490850180548416918316919091179055600f808601549085018054841691831691909117905560108086015490850180548416918316919091179055601180860154908501805490931691161790555f8061130d565b634e487b7160e01b84526011600452602484fd5b63f92ee8a960e01b8152600490fd5b600291506001600160401b031610155f611051565b50346101ff57806003193601126101ff575f516020613c305f395f51905f5254600d01546040516001600160a01b039091168152602090f35b50346101ff57806003193601126101ff57602065ffffffffffff5f516020613c305f395f51905f52545460c01c16604051908152f35b50346101ff57806003193601126101ff57602065ffffffffffff5f516020613c305f395f51905f52545416604051908152f35b50346101ff57806003193601126101ff5761022c60125f516020613c305f395f51905f5254013390613729565b50346101ff5760203660031901126101ff5761157a612f63565b604051632474521560e21b8152600481018390523360248201526020816044816001600160a01b0386165afa9081156109105783916115d5575b50156108d25761022c9060155f516020613c305f395f51905f52540161369f565b6115ee915060203d602011610909576108fb8183612ff3565b5f6115b4565b50346101ff57806003193601126101ff57602065ffffffffffff60015f516020613c305f395f51905f5254015416604051908152f35b50346101ff57806003193601126101ff575f516020613c305f395f51905f5254600701546040516001600160a01b039091168152602090f35b50346101ff57806003193601126101ff575f516020613c305f395f51905f5254600d8101546040516302910f8b60e31b815233600482015290602090829060249082906001600160a01b03165afa908115610910578391611781575b50156117725760108101546040516308834cb560e21b815233600482015230602482015290602090829060449082906001600160a01b03165afa908115610910578391611753575b50156117445761172d9065ffffffffffff61172142613a32565b16906012339101613807565b156117355780f35b63f411c32760e01b8152600490fd5b6396cc2bc360e01b8252600482fd5b61176c915060203d602011610909576108fb8183612ff3565b5f611707565b6325878fa360e21b8252600482fd5b61179a915060203d602011610909576108fb8183612ff3565b5f6116bf565b50346101ff5760203660031901126101ff576001600160a01b036117c2612f63565b16604051632474521560e21b8152826004820152336024820152602081604481855afa90811561091057839161187e575b50156108d2575f516020613c305f395f51905f5254601581019061181a6107a28484613a7b565b5065ffffffffffff811615929150821561184e575b505061183f57906107e491613a61565b6347a11ef760e11b8352600483fd5b65ffffffffffff91925061187382918261186742613a32565b955460901c1690613144565b169116105f8061182f565b611897915060203d602011610909576108fb8183612ff3565b5f6117f3565b50346101ff5760203660031901126101ff576001600160401b03600435116101ff573660236004350112156101ff576001600160401b0360043560040135116101ff573660246004356004013560051b6004350101116101ff575f516020613c305f395f51905f525460098101546001600160a01b03163303611b3e5781906020905b60043560040135831015611b3a5760248360051b600435010135608219600435360301811215611b3657600435019061197c6001600160a01b036119666024850161306d565b165f908152601383016020526040902054151590565b15611b2757845b6119936064840160248501613099565b9050811015611b1a576119b6816119b06064860160248701613099565b906130ce565b6119e06001600160a01b036119ca8361306d565b165f908152601685016020526040902054151590565b1561070757869190600490866001600160a01b036119fd8361306d565b166040519384809263b134427160e01b82525afa918215610eb3578492611afb575b50600585015491611a326024880161306d565b604488013565ffffffffffff81169003611af75788958694611ab7604051611a5a8882612ff3565b838152601f1988013689830137604051998a978896879563545ce38960e01b8752600487015260018060a01b031660248601520135604484015265ffffffffffff60448d013516606484015260a0608484015260a4830190613120565b03926001600160a01b03165af19182156106c457600192611ada575b5001611983565b611af090863d88116106bd576106ae8183612ff3565b505f611ad3565b8580fd5b611b13919250873d89116106f5576106e78183612ff3565b905f611a1f565b5092600191500191611920565b6303fa1eaf60e41b8552600485fd5b8480fd5b8380f35b633fdc220360e01b8252600482fd5b50346101ff5760403660031901126101ff57611b67612f63565b6024356001600160a01b03811692919083900361072957604051632474521560e21b8152600481018390523360248201526001600160a01b0382169190602081604481865afa908115610eb3578491612523575b5015612514575f516020613c305f395f51905f5254600c8101546040516302910f8b60e31b81526004810185905290602090829060249082906001600160a01b03165afa90811561211c5785916124f5575b50156124e65760405163054fd4d560e41b8152602081600481875afa90811561211c5785916124c7575b5060038201906001600160401b03808354169116036124b85760405163d8dfeb4560e01b8152602081600481885afa908115612153578691612499575b5060048301546001600160a01b0390811691160361248a576040516327f843b560e11b8152602081600481885afa90811561215357869161246b575b5065ffffffffffff80845460301c16911690811061245c5760405163142186b760e21b8152602081600481895afa9081156106c457879161243d575b501561242e57604051630ce9b79360e41b8152602081600481895afa9081156106c457879161240f575b506005840180546040516368adba0760e11b815260048101919091529092916001600160a01b031690602081602481855afa908115610c9a5789916123dd575b5019612388575b602060049160405192838092637f5a7c7b60e01b82525afa9081156106fc578891612369575b506001600160a01b031661235757604051630dd83c7f60e31b81526020816004818a5afa9081156106fc578891612338575b50156123295760405163b134427160e01b81526020816004818a5afa9081156106fc57889161230a575b50604051635d927f4560e11b81526001600160a01b039190911693602082600481885afa918215610c9a5789926122de575b506001600160401b0380915460401c169116036122cf57604051631a684c7560e11b8152602081600481875afa9081156106fc5788916122b0575b506122a15760405163e054e08b60e01b8152602081600481875afa9081156106fc578891612272575b5065ffffffffffff855460c01c1665ffffffffffff82161061226357611ea965ffffffffffff918260018801541690613144565b16116122545760405163bc6eac5b60e01b8152602081600481865afa9081156106c457879161221e575b5060028401541061220f575490602092611f2b84604051611ef48282612ff3565b898152601f19820195863684840137604051938492839263cd05b8a160e01b84526004840152604060248401526044830190613120565b0381865afa9081156106fc5788916121f2575b506001600160a01b0316806121cb5750600b0154604051926001600160a01b0390911690611f6c8585612ff3565b8784523685850137813b15610d6c57918691611fb293836040518096819582946348b47ce960e11b84528460048501526024840152606060448401526064830190613120565b03925af1801561211c579085916121b6575b50505b6040516313c085b760e11b81528181600481875afa90811561211c578591612199575b506001600160a01b03161561218a575f516020613c305f395f51905f52549260248260018060a01b03601187015416604051928380926302910f8b60e31b82528b60048301525afa90811561215357869161216d575b501561215e5760405163411557d160e01b815282816004818a5afa908115612153578691612136575b506001600160a01b0316036121275760405163054fd4d560e41b81528181600481895afa91821561211c57916001600160401b039160029387926120ef575b505016036120e057601561172d939465ffffffffffff6120c742613a32565b1660609190911b6001600160601b031916179201613807565b63ded51c0b60e01b8352600483fd5b61210e9250803d10612115575b6121068183612ff3565b810190613662565b5f806120a8565b503d6120fc565b6040513d87823e3d90fd5b630a724f6160e01b8452600484fd5b61214d9150833d85116106f5576106e78183612ff3565b5f612069565b6040513d88823e3d90fd5b6346e01c4360e11b8552600485fd5b6121849150833d8511610909576108fb8183612ff3565b5f612040565b630c6b5ff760e31b8452600484fd5b6121b09150823d84116106f5576106e78183612ff3565b5f611fea565b816121c091612ff3565b610d7057835f611fc4565b600b909101546001600160a01b0316149150611fc7905057633cc6586560e21b8452600484fd5b6122099150853d87116106f5576106e78183612ff3565b5f611f3e565b633a2662c360e11b8652600486fd5b90506020813d60201161224c575b8161223960209383612ff3565b8101031261224857515f611ed3565b5f80fd5b3d915061222c565b6307cfe49360e51b8652600486fd5b633062eb1960e21b8852600488fd5b612294915060203d60201161229a575b61228c8183612ff3565b810190613681565b5f611e75565b503d612282565b63447984b360e11b8752600487fd5b6122c9915060203d602011610909576108fb8183612ff3565b5f611e4c565b63f8c618c760e01b8752600487fd5b6001600160401b03919250612302829160203d602011612115576121068183612ff3565b929150611e11565b612323915060203d6020116106f5576106e78183612ff3565b5f611ddf565b631501f36360e21b8752600487fd5b612351915060203d602011610909576108fb8183612ff3565b5f611db5565b60016221bb1360e11b03198752600487fd5b612382915060203d6020116106f5576106e78183612ff3565b5f611d83565b803b15610c96576040516323f752d560e01b8152600481018990525f196024820152888160448183865af18015610c9a579089916123c8575b5050611d5d565b816123d291612ff3565b610c9657875f6123c1565b90506020813d602011612407575b816123f860209383612ff3565b8101031261224857515f611d56565b3d91506123eb565b612428915060203d6020116106f5576106e78183612ff3565b5f611d16565b636e549c1760e11b8652600486fd5b612456915060203d602011610909576108fb8183612ff3565b5f611cec565b634934476760e01b8652600486fd5b612484915060203d60201161229a5761228c8183612ff3565b5f611cb0565b63039a1fd760e21b8552600485fd5b6124b2915060203d6020116106f5576106e78183612ff3565b5f611c74565b63bfcdc45f60e01b8552600485fd5b6124e0915060203d602011612115576121068183612ff3565b5f611c37565b635b19e4bb60e01b8452600484fd5b61250e915060203d602011610909576108fb8183612ff3565b5f611c0d565b630e7fea9d60e01b8352600483fd5b61253c915060203d602011610909576108fb8183612ff3565b5f611bbb565b5034612248576102e0366003190112612248575f516020613c505f395f51905f52546001600160401b0360ff8260401c1615911680159081612f5b575b6001149081612f51575b159081612f48575b50612f39578060016001600160401b03195f516020613c505f395f51905f525416175f516020613c505f395f51905f5255612f09575b6004356001600160a01b0381168103612248576125e6906110a3613a07565b6125ee613a07565b60409081516125fd8382612ff3565b601f815260208101907f6d6964646c65776172652e73746f726167652e4d6964646c657761726556310082526126316137a5565b5190205f198101908111612ef55782519060208201908152602082526126578483612ff3565b60ff199151902016805f516020613c305f395f51905f525560243565ffffffffffff8116810361224857815465ffffffffffff191665ffffffffffff91821617825560443590811681036122485781546bffffffffffff000000000000191660309190911b65ffffffffffff60301b1617815560643565ffffffffffff8116810361224857815465ffffffffffff60601b191660609190911b65ffffffffffff60601b1617815560843565ffffffffffff8116810361224857815465ffffffffffff60901b191660909190911b65ffffffffffff60901b1617815560a43565ffffffffffff8116810361224857815465ffffffffffff60c01b191660c09190911b65ffffffffffff60c01b1617815560c43565ffffffffffff811681036122485765ffffffffffff60018301911665ffffffffffff19825416178155600282019161012435835560e4356001600160401b0381168103612248576001600160401b036003830191166001600160401b0319825416178155610104356001600160401b03811681036122485781546fffffffffffffffff0000000000000000191660409190911b67ffffffffffffffff60401b16179055610144356001600160a01b0381168103612248576004820180546001600160a01b0319166001600160a01b039283161790553060601b6005830155610164356006830155610184359081168103612248576007820180546001600160a01b0319166001600160a01b039283161790556101a4359081168103612248576008820180546001600160a01b0319166001600160a01b039283161790556101c4359081168103612248576009820180546001600160a01b0319166001600160a01b039283161790556101e435908116810361224857600a820180546001600160a01b0319166001600160a01b0392831617905561020435908116810361224857600b820180546001600160a01b0319166001600160a01b0392831617905561022435908116810361224857600c820180546001600160a01b0319166001600160a01b0392831617905561024435908116810361224857600d820180546001600160a01b0319166001600160a01b0390921691909117905561298961303f565b600e820180546001600160a01b0319166001600160a01b039092169190911790556129b2613056565b600f820180546001600160a01b0319166001600160a01b039283161790556102a4359081168103612248576010820180546001600160a01b0319166001600160a01b039283161790556102c4359081168103612248576011820180546001600160a01b0319166001600160a01b03928316179055612a2e61303f565b16803b15612248575f809160048851809481936387140b5b60e01b83525af18015612eeb57612ed6575b50856001600160a01b03612a6a613056565b16803b1561072957818091602489518094819363b7d8e1a960e01b83523060048401525af18015612ecc57612eb7575b5050549065ffffffffffff821615612e735765ffffffffffff8260301c16918060011b6601fffffffffffe65fffffffffffe821691168103612e5f578310612dfe578265ffffffffffff8260601c1610612d88578265ffffffffffff8260901c1610612d1e5760c01c65ffffffffffff16908115612cda575465ffffffffffff16908115612c855765ffffffffffff91612b3391613144565b1611612bf5576003905410612b9c57612b4a575080f35b60207fc7f505b2f371ae2175ee4913f4499e1f2633a7b5936321eed1cdaeb6115181d29160ff60401b195f516020613c505f395f51905f5254165f516020613c505f395f51905f52555160018152a180f35b815162461bcd60e51b815260206004820152602c60248201527f5265736f6c766572207365742065706f6368732064656c6179206d757374206260448201526b65206174206c65617374203360a01b6064820152608490fd5b825162461bcd60e51b815260206004820152605f60248201527f5665746f206475726174696f6e20616e6420736c61736820657865637574696f60448201527f6e2064656c6179206d757374206265206c657373207468616e206f722065717560648201527f616c20746f206d696e207661756c74732065706f6368206475726174696f6e00608482015260a490fd5b855162461bcd60e51b815260206004820152602860248201527f4d696e20736c61736820657865637574696f6e2064656c61792063616e6e6f74604482015267206265207a65726f60c01b6064820152608490fd5b855162461bcd60e51b815260206004820152601c60248201527f5665746f206475726174696f6e2063616e6e6f74206265207a65726f000000006044820152606490fd5b855162461bcd60e51b815260206004820152602481018790527f5661756c7420677261636520706572696f64206d75737420626520626967676560448201527f72207468616e206d696e207661756c74732065706f6368206475726174696f6e6064820152608490fd5b855162461bcd60e51b815260206004820152604360248201527f4f70657261746f7220677261636520706572696f64206d75737420626520626960448201527f67676572207468616e206d696e207661756c74732065706f636820647572617460648201526234b7b760e91b608482015260a490fd5b855162461bcd60e51b815260206004820152603460248201527f4d696e207661756c74732065706f6368206475726174696f6e206d75737420626044820152736520626967676572207468616e2032206572617360601b6064820152608490fd5b634e487b7160e01b88526011600452602488fd5b845162461bcd60e51b815260206004820152601b60248201527f457261206475726174696f6e2063616e6e6f74206265207a65726f00000000006044820152606490fd5b81612ec191612ff3565b611af757855f612a9a565b87513d84823e3d90fd5b612ee39196505f90612ff3565b5f945f612a58565b86513d5f823e3d90fd5b634e487b7160e01b5f52601160045260245ffd5b600160401b60ff60401b195f516020613c505f395f51905f525416175f516020613c505f395f51905f52556125c7565b63f92ee8a960e01b5f5260045ffd5b9050155f612591565b303b159150612589565b82915061257f565b600435906001600160a01b038216820361224857565b35906001600160a01b038216820361224857565b6004359065ffffffffffff8216820361224857565b6024359065ffffffffffff8216820361224857565b90602080835192838152019201905f5b818110612fd45750505090565b82516001600160a01b0316845260209384019390920191600101612fc7565b90601f801991011681019081106001600160401b0382111761301457604052565b634e487b7160e01b5f52604160045260245ffd5b6001600160401b0381116130145760051b60200190565b610264356001600160a01b03811681036122485790565b610284356001600160a01b03811681036122485790565b356001600160a01b03811681036122485790565b90816020910312612248575180151581036122485790565b903590601e198136030182121561224857018035906001600160401b03821161224857602001918160061b3603831361224857565b91908110156130de5760061b0190565b634e487b7160e01b5f52603260045260245ffd5b9081602091031261224857516001600160a01b03811681036122485790565b90816020910312612248575190565b805180835260209291819084018484015e5f828201840152601f01601f1916010190565b9065ffffffffffff8091169116019065ffffffffffff8211612ef557565b80518210156130de5760209160051b010190565b91908201809211612ef557565b9181156133905761319383613426565b92815181811115613387575f5f198201828111925b8083106132ae57505050506001945f19820190828211612ef5576131cc8287613162565b5183975b85518910156132a057816131e48a8a613162565b51036132005760018101809111612ef5576001909801976131d0565b9395975050909294505b6001821161321b575b505050815290565b604051602081019165ffffffffffff60d01b9060d01b16825260068152613243602682612ff3565b51902090801561328c57613258910683613176565b5f198101908111612ef557613283906001600160a01b039061327a9086613162565b51169184613162565b525f8080613213565b634e487b7160e01b5f52601260045260245ffd5b93959750509092945061320a565b9296958792959891945f935b612ef5578685035f1901868111612ef557841015613374576132dc8489613162565b516001850194858111612ef557858c826001946132fa8f9a8f613162565b511161330b575b50505001936132ba565b61336b918d61333b8361331e8784613162565b519261332a8282613162565b516133358983613162565b52613162565b52858060a01b0361334c8583613162565b511693613335878060a01b036133628585613162565b51169183613162565b525f8c82613301565b94919895600191979894935001916131a8565b50509150915090565b60405162461bcd60e51b815260206004820152602860248201527f4d61782076616c696461746f7273206d7573742062652067726561746572207460448201526768616e207a65726f60c01b6064820152608490fd5b613424906020808095946040519684889551918291018487015e8401908282015f8152815193849201905e01015f815203601f198101845283612ff3565b565b905f516020613c305f395f51905f525465ffffffffffff61344642613a32565b1665ffffffffffff8416101561359f5761347d815465ffffffffffff808260601c169160901c168082105f14610385575084613144565b65ffffffffffff8061348e42613a32565b169116111561359f576012018054926134a684613028565b916134b46040519384612ff3565b848352601f196134c386613028565b013660208501376134d385613028565b946134e16040519687612ff3565b808652601f196134f082613028565b013660208801375f925f925b828410613510575050505080825283529190565b9091929361354561354c8461352588866137d8565b93909365ffffffffffff81169165ffffffffffff8260301c169160601c90565b5090613829565b15613595578361357191613560848a613162565b6001600160a01b0382169052613882565b61357b828a613162565b5260018101809111612ef557600190945b019291906134fc565b509360019061358c565b63686c69fd60e01b5f5260045ffd5b906135da816135456107a260125f516020613c305f395f51905f52540160018060a01b03871690613a7b565b156135eb576135e891613882565b90565b50505f90565b6001600160a01b0316801561364f575f516020613c105f395f51905f5280546001600160a01b0319811683179091556001600160a01b03167f8be0079c531659141344cd1fd0a4f28419497f9722a3daafe3b4186f6b6457e05f80a3565b631e4fbdf760e01b5f525f60045260245ffd5b9081602091031261224857516001600160401b03811681036122485790565b90816020910312612248575165ffffffffffff811681036122485790565b65ffffffffffff916136bd6107a26001600160a01b03831684613a7b565b9194909416938415908115613717575b50613708576137059365ffffffffffff60301b6136e942613a32565b60301b161760609190911b6001600160601b0319161791613807565b50565b633f54562b60e11b5f5260045ffd5b65ffffffffffff91501615155f6136cd565b65ffffffffffff916137476107a26001600160a01b03831684613a7b565b9490911615159081613794575b50613785576137059265ffffffffffff61376d42613a32565b1660609190911b6001600160601b0319161791613807565b637952fbad60e11b5f5260045ffd5b65ffffffffffff915016155f613754565b5f516020613c105f395f51905f52546001600160a01b031633036137c557565b63118cdaa760e01b5f523360045260245ffd5b91906137e660029184613ad2565b90549060031b1c92835f520160205260405f20549160018060a01b03169190565b6135e8929160018060a01b031691825f526002820160205260405f2055613bc2565b65ffffffffffff168015159291908361386f575b508261384857505090565b65ffffffffffff168015925090821561386057505090565b65ffffffffffff161115905090565b65ffffffffffff8316101592505f61383d565b5f516020613c305f395f51905f52546015810180546005909201545f95948694602093869391905b8688106138bb575050505050505050565b90919293949596986135456138d4866135258d866137d8565b156139fd57604051630ce9b79360e41b8152908890829060049082906001600160a01b03165afa9081156139d5576139709189915f916139e0575b506040519061391e8383612ff3565b5f825289368484013760405163e02f693760e01b8152600481018990526001600160a01b038816602482015265ffffffffffff8a16604482015260806064820152938492839182916084830190613120565b03916001600160a01b03165afa9081156139d5575f916139a7575b5061399890600192613176565b995b01969594939291906138aa565b90508781813d83116139ce575b6139be8183612ff3565b810103126122485751600161398b565b503d6139b4565b6040513d5f823e3d90fd5b6139f79150823d84116106f5576106e78183612ff3565b5f61390f565b509860019061399a565b60ff5f516020613c505f395f51905f525460401c1615613a2357565b631afcd79f60e31b5f5260045ffd5b65ffffffffffff8111613a4a5765ffffffffffff1690565b6306dfcc6560e41b5f52603060045260245260445ffd5b906135e891815f52600281016020525f6040812055613ae7565b90805f526002820160205260405f2054918183159182613ab2575b5050613aa0575090565b63015ab34360e11b5f5260045260245ffd5b613aca92506001915f520160205260405f2054151590565b15815f613a96565b80548210156130de575f5260205f2001905f90565b906001820191815f528260205260405f20548015155f14613bba575f198101818111612ef55782545f19810191908211612ef557818103613b6f575b50505080548015613b5b575f190190613b3c8282613ad2565b8154905f199060031b1b19169055555f526020525f6040812055600190565b634e487b7160e01b5f52603160045260245ffd5b613ba5613b7f613b8f9386613ad2565b90549060031b1c92839286613ad2565b819391549060031b91821b915f19901b19161790565b90555f528360205260405f20555f8080613b23565b505050505f90565b5f8281526001820160205260409020546135eb57805490600160401b8210156130145782613bfa613b8f846001809601855584613ad2565b90558054925f520160205260405f205560019056fe9016d09d72d40fdae2fd8ceac6b6234c7706214fd39c1cd1e609a0528c1993000b8c56af6cc9ad401ad225bfe96df77f3049ba17eadac1cb95ee89df1e69d100f0c57e16840df040f15088dc2f81fe391c3923bec73e23a9662efc9c229c6a00f0c57e16840df040f15088dc2f81fe391c3923bec73e23a9662efc9c229c6a00","linkReferences":{}},"methodIdentifiers":{"allowedVaultImplVersion()":"c9b0b1e9","changeSlashExecutor(address)":"86c241a1","changeSlashRequester(address)":"6d1064eb","collateral()":"d8dfeb45","disableOperator()":"d99fcd66","disableVault(address)":"3ccce789","distributeOperatorRewards(address,uint256,bytes32)":"729e2f36","distributeStakerRewards(((address,uint256)[],uint256,address),uint48)":"7fbe95b5","enableOperator()":"3d15e74e","enableVault(address)":"936f4330","eraDuration()":"4455a38f","executeSlash((address,uint256)[])":"af962995","getActiveOperatorsStakeAt(uint48)":"b5e5ad12","getOperatorStakeAt(address,uint48)":"d99ddfc7","initialize((address,uint48,uint48,uint48,uint48,uint48,uint48,uint64,uint64,uint256,address,uint256,address,address,address,address,address,(address,address,address,address,address,address)))":"05872a2b","makeElectionAt(uint48,uint256)":"6e5c7932","maxAdminFee()":"c639e2d6","maxResolverSetEpochsDelay()":"9e032311","minSlashExecutionDelay()":"373bba1f","minVaultEpochDuration()":"945cf2dd","minVetoDuration()":"461e7a8e","operatorGracePeriod()":"709d06ae","operatorRegistry()":"58c2225b","operatorRewards()":"2cd81009","owner()":"8da5cb5b","registerOperator()":"2acde098","registerVault(address,address)":"05c4fdf9","reinitialize()":"6c2eb350","renounceOwnership()":"715018a6","requestSlash((address,uint48,(address,uint256)[])[])":"0a71094c","roleSlashExecutor()":"e74f8bef","roleSlashRequester()":"dbb6eed2","router()":"f887ea40","subnetwork()":"ceebb69a","transferOwnership(address)":"f2fde38b","unregisterOperator(address)":"96115bc2","unregisterVault(address)":"2633b70f","vaultGracePeriod()":"79a8b245","vetoSlasherImplType()":"d55a5bdf"},"storageLayout":{"storage":[],"types":{}},"id":161}