{"abi":[{"type":"constructor","inputs":[],"stateMutability":"nonpayable"},{"type":"function","name":"allowedVaultImplVersion","inputs":[],"outputs":[{"name":"","type":"uint64","internalType":"uint64"}],"stateMutability":"view"},{"type":"function","name":"changeSlashExecutor","inputs":[{"name":"newRole","type":"address","internalType":"address"}],"outputs":[],"stateMutability":"nonpayable"},{"type":"function","name":"changeSlashRequester","inputs":[{"name":"newRole","type":"address","internalType":"address"}],"outputs":[],"stateMutability":"nonpayable"},{"type":"function","name":"collateral","inputs":[],"outputs":[{"name":"","type":"address","internalType":"address"}],"stateMutability":"view"},{"type":"function","name":"disableOperator","inputs":[],"outputs":[],"stateMutability":"nonpayable"},{"type":"function","name":"disableVault","inputs":[{"name":"vault","type":"address","internalType":"address"}],"outputs":[],"stateMutability":"nonpayable"},{"type":"function","name":"distributeOperatorRewards","inputs":[{"name":"token","type":"address","internalType":"address"},{"name":"amount","type":"uint256","internalType":"uint256"},{"name":"root","type":"bytes32","internalType":"bytes32"}],"outputs":[{"name":"","type":"bytes32","internalType":"bytes32"}],"stateMutability":"nonpayable"},{"type":"function","name":"distributeStakerRewards","inputs":[{"name":"_commitment","type":"tuple","internalType":"struct Gear.StakerRewardsCommitment","components":[{"name":"distribution","type":"tuple[]","internalType":"struct Gear.StakerRewards[]","components":[{"name":"vault","type":"address","internalType":"address"},{"name":"amount","type":"uint256","internalType":"uint256"}]},{"name":"totalAmount","type":"uint256","internalType":"uint256"},{"name":"token","type":"address","internalType":"address"}]},{"name":"timestamp","type":"uint48","internalType":"uint48"}],"outputs":[{"name":"","type":"bytes32","internalType":"bytes32"}],"stateMutability":"nonpayable"},{"type":"function","name":"enableOperator","inputs":[],"outputs":[],"stateMutability":"nonpayable"},{"type":"function","name":"enableVault","inputs":[{"name":"vault","type":"address","internalType":"address"}],"outputs":[],"stateMutability":"nonpayable"},{"type":"function","name":"eraDuration","inputs":[],"outputs":[{"name":"","type":"uint48","internalType":"uint48"}],"stateMutability":"view"},{"type":"function","name":"executeSlash","inputs":[{"name":"slashes","type":"tuple[]","internalType":"struct IMiddleware.SlashIdentifier[]","components":[{"name":"vault","type":"address","internalType":"address"},{"name":"index","type":"uint256","internalType":"uint256"}]}],"outputs":[],"stateMutability":"nonpayable"},{"type":"function","name":"getActiveOperatorsStakeAt","inputs":[{"name":"ts","type":"uint48","internalType":"uint48"}],"outputs":[{"name":"activeOperators","type":"address[]","internalType":"address[]"},{"name":"stakes","type":"uint256[]","internalType":"uint256[]"}],"stateMutability":"view"},{"type":"function","name":"getOperatorStakeAt","inputs":[{"name":"operator","type":"address","internalType":"address"},{"name":"ts","type":"uint48","internalType":"uint48"}],"outputs":[{"name":"stake","type":"uint256","internalType":"uint256"}],"stateMutability":"view"},{"type":"function","name":"initialize","inputs":[{"name":"_params","type":"tuple","internalType":"struct IMiddleware.InitParams","components":[{"name":"owner","type":"address","internalType":"address"},{"name":"eraDuration","type":"uint48","internalType":"uint48"},{"name":"minVaultEpochDuration","type":"uint48","internalType":"uint48"},{"name":"operatorGracePeriod","type":"uint48","internalType":"uint48"},{"name":"vaultGracePeriod","type":"uint48","internalType":"uint48"},{"name":"minVetoDuration","type":"uint48","internalType":"uint48"},{"name":"minSlashExecutionDelay","type":"uint48","internalType":"uint48"},{"name":"allowedVaultImplVersion","type":"uint64","internalType":"uint64"},{"name":"vetoSlasherImplType","type":"uint64","internalType":"uint64"},{"name":"maxResolverSetEpochsDelay","type":"uint256","internalType":"uint256"},{"name":"maxAdminFee","type":"uint256","internalType":"uint256"},{"name":"collateral","type":"address","internalType":"address"},{"name":"router","type":"address","internalType":"address"},{"name":"symbiotic","type":"tuple","internalType":"struct Gear.SymbioticContracts","components":[{"name":"vaultRegistry","type":"address","internalType":"address"},{"name":"operatorRegistry","type":"address","internalType":"address"},{"name":"networkRegistry","type":"address","internalType":"address"},{"name":"middlewareService","type":"address","internalType":"address"},{"name":"networkOptIn","type":"address","internalType":"address"},{"name":"stakerRewardsFactory","type":"address","internalType":"address"},{"name":"operatorRewards","type":"address","internalType":"address"},{"name":"roleSlashRequester","type":"address","internalType":"address"},{"name":"roleSlashExecutor","type":"address","internalType":"address"},{"name":"vetoResolver","type":"address","internalType":"address"}]}]}],"outputs":[],"stateMutability":"nonpayable"},{"type":"function","name":"makeElectionAt","inputs":[{"name":"ts","type":"uint48","internalType":"uint48"},{"name":"maxValidators","type":"uint256","internalType":"uint256"}],"outputs":[{"name":"","type":"address[]","internalType":"address[]"}],"stateMutability":"view"},{"type":"function","name":"maxAdminFee","inputs":[],"outputs":[{"name":"","type":"uint256","internalType":"uint256"}],"stateMutability":"view"},{"type":"function","name":"maxResolverSetEpochsDelay","inputs":[],"outputs":[{"name":"","type":"uint256","internalType":"uint256"}],"stateMutability":"view"},{"type":"function","name":"minSlashExecutionDelay","inputs":[],"outputs":[{"name":"","type":"uint48","internalType":"uint48"}],"stateMutability":"view"},{"type":"function","name":"minVaultEpochDuration","inputs":[],"outputs":[{"name":"","type":"uint48","internalType":"uint48"}],"stateMutability":"view"},{"type":"function","name":"minVetoDuration","inputs":[],"outputs":[{"name":"","type":"uint48","internalType":"uint48"}],"stateMutability":"view"},{"type":"function","name":"operatorGracePeriod","inputs":[],"outputs":[{"name":"","type":"uint48","internalType":"uint48"}],"stateMutability":"view"},{"type":"function","name":"owner","inputs":[],"outputs":[{"name":"","type":"address","internalType":"address"}],"stateMutability":"view"},{"type":"function","name":"registerOperator","inputs":[],"outputs":[],"stateMutability":"nonpayable"},{"type":"function","name":"registerVault","inputs":[{"name":"_vault","type":"address","internalType":"address"},{"name":"_rewards","type":"address","internalType":"address"}],"outputs":[],"stateMutability":"nonpayable"},{"type":"function","name":"reinitialize","inputs":[],"outputs":[],"stateMutability":"nonpayable"},{"type":"function","name":"renounceOwnership","inputs":[],"outputs":[],"stateMutability":"nonpayable"},{"type":"function","name":"requestSlash","inputs":[{"name":"data","type":"tuple[]","internalType":"struct IMiddleware.SlashData[]","components":[{"name":"operator","type":"address","internalType":"address"},{"name":"ts","type":"uint48","internalType":"uint48"},{"name":"vaults","type":"tuple[]","internalType":"struct IMiddleware.VaultSlashData[]","components":[{"name":"vault","type":"address","internalType":"address"},{"name":"amount","type":"uint256","internalType":"uint256"}]}]}],"outputs":[],"stateMutability":"nonpayable"},{"type":"function","name":"router","inputs":[],"outputs":[{"name":"","type":"address","internalType":"address"}],"stateMutability":"view"},{"type":"function","name":"subnetwork","inputs":[],"outputs":[{"name":"","type":"bytes32","internalType":"bytes32"}],"stateMutability":"view"},{"type":"function","name":"symbioticContracts","inputs":[],"outputs":[{"name":"","type":"tuple","internalType":"struct Gear.SymbioticContracts","components":[{"name":"vaultRegistry","type":"address","internalType":"address"},{"name":"operatorRegistry","type":"address","internalType":"address"},{"name":"networkRegistry","type":"address","internalType":"address"},{"name":"middlewareService","type":"address","internalType":"address"},{"name":"networkOptIn","type":"address","internalType":"address"},{"name":"stakerRewardsFactory","type":"address","internalType":"address"},{"name":"operatorRewards","type":"address","internalType":"address"},{"name":"roleSlashRequester","type":"address","internalType":"address"},{"name":"roleSlashExecutor","type":"address","internalType":"address"},{"name":"vetoResolver","type":"address","internalType":"address"}]}],"stateMutability":"view"},{"type":"function","name":"transferOwnership","inputs":[{"name":"newOwner","type":"address","internalType":"address"}],"outputs":[],"stateMutability":"nonpayable"},{"type":"function","name":"unregisterOperator","inputs":[{"name":"operator","type":"address","internalType":"address"}],"outputs":[],"stateMutability":"nonpayable"},{"type":"function","name":"unregisterVault","inputs":[{"name":"vault","type":"address","internalType":"address"}],"outputs":[],"stateMutability":"nonpayable"},{"type":"function","name":"vaultGracePeriod","inputs":[],"outputs":[{"name":"","type":"uint48","internalType":"uint48"}],"stateMutability":"view"},{"type":"function","name":"vetoSlasherImplType","inputs":[],"outputs":[{"name":"","type":"uint64","internalType":"uint64"}],"stateMutability":"view"},{"type":"event","name":"Initialized","inputs":[{"name":"version","type":"uint64","indexed":false,"internalType":"uint64"}],"anonymous":false},{"type":"event","name":"OwnershipTransferred","inputs":[{"name":"previousOwner","type":"address","indexed":true,"internalType":"address"},{"name":"newOwner","type":"address","indexed":true,"internalType":"address"}],"anonymous":false},{"type":"error","name":"AlreadyAdded","inputs":[]},{"type":"error","name":"AlreadyEnabled","inputs":[]},{"type":"error","name":"BurnerHookNotSupported","inputs":[]},{"type":"error","name":"DelegatorNotInitialized","inputs":[]},{"type":"error","name":"EnumerableMapNonexistentKey","inputs":[{"name":"key","type":"bytes32","internalType":"bytes32"}]},{"type":"error","name":"EraDurationMustBeGreaterThanZero","inputs":[]},{"type":"error","name":"IncompatibleSlasherType","inputs":[]},{"type":"error","name":"IncompatibleStakerRewardsVersion","inputs":[]},{"type":"error","name":"IncompatibleVaultVersion","inputs":[]},{"type":"error","name":"IncorrectTimestamp","inputs":[]},{"type":"error","name":"InvalidInitialization","inputs":[]},{"type":"error","name":"InvalidStakerRewardsVault","inputs":[]},{"type":"error","name":"MaxValidatorsMustBeGreaterThanZero","inputs":[]},{"type":"error","name":"MinSlashExecutionDelayMustBeGreaterThanZero","inputs":[]},{"type":"error","name":"MinVaultEpochDurationLessThanTwoEras","inputs":[]},{"type":"error","name":"MinVetoAndSlashDelayTooLongForVaultEpoch","inputs":[]},{"type":"error","name":"MinVetoDurationMustBeGreaterThanZero","inputs":[]},{"type":"error","name":"NonFactoryStakerRewards","inputs":[]},{"type":"error","name":"NonFactoryVault","inputs":[]},{"type":"error","name":"NotEnabled","inputs":[]},{"type":"error","name":"NotInitializing","inputs":[]},{"type":"error","name":"NotRegisteredOperator","inputs":[]},{"type":"error","name":"NotRegisteredVault","inputs":[]},{"type":"error","name":"NotRouter","inputs":[]},{"type":"error","name":"NotSlashExecutor","inputs":[]},{"type":"error","name":"NotSlashRequester","inputs":[]},{"type":"error","name":"NotVaultOwner","inputs":[]},{"type":"error","name":"OperatorDoesNotExist","inputs":[]},{"type":"error","name":"OperatorDoesNotOptIn","inputs":[]},{"type":"error","name":"OperatorGracePeriodLessThanMinVaultEpochDuration","inputs":[]},{"type":"error","name":"OperatorGracePeriodNotPassed","inputs":[]},{"type":"error","name":"OwnableInvalidOwner","inputs":[{"name":"owner","type":"address","internalType":"address"}]},{"type":"error","name":"OwnableUnauthorizedAccount","inputs":[{"name":"account","type":"address","internalType":"address"}]},{"type":"error","name":"ReentrancyGuardReentrantCall","inputs":[]},{"type":"error","name":"ResolverMismatch","inputs":[]},{"type":"error","name":"ResolverSetDelayMustBeAtLeastThree","inputs":[]},{"type":"error","name":"ResolverSetDelayTooLong","inputs":[]},{"type":"error","name":"SafeCastOverflowedUintDowncast","inputs":[{"name":"bits","type":"uint8","internalType":"uint8"},{"name":"value","type":"uint256","internalType":"uint256"}]},{"type":"error","name":"SlasherNotInitialized","inputs":[]},{"type":"error","name":"UnknownCollateral","inputs":[]},{"type":"error","name":"UnsupportedBurner","inputs":[]},{"type":"error","name":"UnsupportedDelegatorHook","inputs":[]},{"type":"error","name":"VaultGracePeriodLessThanMinVaultEpochDuration","inputs":[]},{"type":"error","name":"VaultGracePeriodNotPassed","inputs":[]},{"type":"error","name":"VaultWrongEpochDuration","inputs":[]},{"type":"error","name":"VetoDurationTooLong","inputs":[]},{"type":"error","name":"VetoDurationTooShort","inputs":[]}],"bytecode":{"object":"0x6080806040523460aa575f5160206139bc5f395f51905f525460ff8160401c16609b576002600160401b03196001600160401b038216016049575b60405161390d90816100af8239f35b6001600160401b0319166001600160401b039081175f5160206139bc5f395f51905f525581527fc7f505b2f371ae2175ee4913f4499e1f2633a7b5936321eed1cdaeb6115181d290602090a15f80603a565b63f92ee8a960e01b5f5260045ffd5b5f80fdfe60806040526004361015610011575f80fd5b5f5f3560e01c806305c4fdf9146121f65780630a71094c14611f4e5780632633b70f14611e9a5780632acde09814611d42578063373bba1f14611d0c5780633ccce78914611ccf5780633d15e74e14611ca25780634455a38f14611c6f578063461e7a8e14611c395780636c2eb350146117e05780636d1064eb146117735780636e5c793214611732578063709d06ae146116fc578063715018a614611693578063729e2f361461157557806379a8b2451461153f5780637fbe95b51461117c57806386c241a11461111e5780638da5cb5b146110e9578063936f4330146110ac578063945cf2dd1461107657806396115bc214610faa5780639e03231114610f7c578063ab122753146107db578063af962995146105c8578063b5e5ad121461054f578063bcf339341461037f578063c639e2d614610351578063c9b0b1e91461031a578063ceebb69a146102ec578063d55a5bdf146102b2578063d8dfeb4514610279578063d99ddfc71461023b578063d99fcd661461020e578063f2fde38b146101e15763f887ea40146101a6575f80fd5b346101de57806003193601126101de575f5160206138cd5f395f51905f5254600701546040516001600160a01b039091168152602090f35b80fd5b50346101de5760203660031901126101de5761020b6101fe612b8c565b6102066133c3565b61319c565b80f35b50346101de57806003193601126101de5761020b60125f5160206138cd5f395f51905f52540133906132bd565b50346101de5760403660031901126101de57602061027161025a612b8c565b610262612bcb565b9061026c82613447565b613159565b604051908152f35b50346101de57806003193601126101de575f5160206138cd5f395f51905f5254600601546040516001600160a01b039091168152602090f35b50346101de57806003193601126101de5760206001600160401b0360035f5160206138cd5f395f51905f5254015460401c16604051908152f35b50346101de57806003193601126101de57602060045f5160206138cd5f395f51905f52540154604051908152f35b50346101de57806003193601126101de5760206001600160401b0360035f5160206138cd5f395f51905f5254015416604051908152f35b50346101de57806003193601126101de57602060055f5160206138cd5f395f51905f52540154604051908152f35b50346101de57806003193601126101de5761012060405161039f81612c1c565b8281528260208201528260408201528260608201528260808201528260a08201528260c08201528260e08201528261010082015201526101405f5160206138cd5f395f51905f52546040516103f381612c1c565b60018060a01b036008830154169182825260018060a01b036009820154166020830190815260018060a01b03600a830154166040840190815260018060a01b03600b840154166060850190815260018060a01b03600c850154166080860190815260018060a01b03600d860154169160a0870192835260018060a01b03600e870154169360c0880194855260018060a01b03600f880154169560e0890196875261012060018060a01b0360108a015416986101008b01998a52601160018060a01b03910154169901988952604051998a5260018060a01b0390511660208a015260018060a01b03905116604089015260018060a01b03905116606088015260018060a01b03905116608087015260018060a01b0390511660a086015260018060a01b0390511660c085015260018060a01b0390511660e084015260018060a01b0390511661010083015260018060a01b03905116610120820152f35b50346101de5760203660031901126101de5761058b90610575610570612bb6565b613038565b9091604051938493604085526040850190612be0565b8381036020850152602080845192838152019301915b8181106105af575050500390f35b82518452859450602093840193909201916001016105a1565b50346101de5760203660031901126101de576004356001600160401b0381116107d757366023820112156107d75780600401356001600160401b0381116107d3576024820191602436918360061b0101116107d3575f5160206138cd5f395f51905f5254601001546001600160a01b031633036107c4576020905f90845b818110610651578580f35b61065c818387612cfb565b5f5160206138cd5f395f51905f525490919061069b906015016001600160a01b0361068685612cb2565b16906001915f520160205260405f2054151590565b156107b5576004856001600160a01b036106b485612cb2565b166040519283809263b134427160e01b82525afa9283156107aa576107229387928a9161077d575b50828a604051936106ed8386612c4c565b81855289368487013760405197889586948593635ca61c3760e11b855201356004840152604060248401526044830190612d4d565b03926001600160a01b03165af191821561077257600192610745575b5001610646565b61076490863d881161076b575b61075c8183612c4c565b810190612d3e565b505f61073e565b503d610752565b6040513d89823e3d90fd5b61079d9150833d85116107a3575b6107958183612c4c565b810190612d1f565b5f6106dc565b503d61078b565b6040513d8a823e3d90fd5b633b2fc1c360e21b8752600487fd5b632249f71f60e21b8352600483fd5b8280fd5b5080fd5b50346101de576102e03660031901126101de575f5160206138ed5f395f51905f52546001600160401b0360ff8260401c1615911680159081610f74575b6001149081610f6a575b159081610f61575b50610f52578060016001600160401b03195f5160206138ed5f395f51905f525416175f5160206138ed5f395f51905f5255610f22575b6004356001600160a01b03811681036107d3576108879061087f6136ed565b6102066136ed565b61088f6136ed565b604090815161089e8382612c4c565b601f815260208101907f6d6964646c65776172652e73746f726167652e4d6964646c657761726556310082526108d26133c3565b5190205f198101908111610f0e5782519060208201908152602082526108f88483612c4c565b60ff199151902016805f5160206138cd5f395f51905f525560243565ffffffffffff81168103610f0a57815465ffffffffffff191665ffffffffffff9182161782556044359081168103610f0a5781546bffffffffffff000000000000191660309190911b65ffffffffffff60301b1617815560643565ffffffffffff81168103610f0a57815465ffffffffffff60601b191660609190911b65ffffffffffff60601b1617815560843565ffffffffffff81168103610f0a57815465ffffffffffff60901b191660909190911b65ffffffffffff60901b1617815560a43565ffffffffffff81168103610f0a57815465ffffffffffff60c01b191660c09190911b65ffffffffffff60c01b1617815560c43565ffffffffffff81168103610f0a5765ffffffffffff60018301911665ffffffffffff19825416178155600282019161012435835560e4356001600160401b0381168103610f02576001600160401b036003830191166001600160401b0319825416178155610104356001600160401b0381168103610f065781546fffffffffffffffff0000000000000000191660409190911b67ffffffffffffffff60401b16179055610164356001600160a01b0381168103610f02576006820180546001600160a01b0319166001600160a01b039283161790553060601b6004830155610144356005830155610184359081168103610f02576007820180546001600160a01b0319166001600160a01b039283161790556101a4359081168103610f02576008820180546001600160a01b0319166001600160a01b039283161790556101c4359081168103610f02576009820180546001600160a01b0319166001600160a01b03909216919091179055610b7e612c84565b600a820180546001600160a01b0319166001600160a01b03909216919091179055610ba7612c9b565b600b820180546001600160a01b0319166001600160a01b03928316179055610224359081168103610f0257600c820180546001600160a01b0319166001600160a01b03928316179055610244359081168103610f0257600d820180546001600160a01b0319166001600160a01b03928316179055610264359081168103610f0257600e820180546001600160a01b0319166001600160a01b03928316179055610284359081168103610f0257600f820180546001600160a01b0319166001600160a01b039283161790556102a4359081168103610f02576010820180546001600160a01b0319166001600160a01b039283161790556102c4359081168103610f02576011820180546001600160a01b0319166001600160a01b039283161790558690610cd1612c84565b16803b156107d75781809160048951809481936387140b5b60e01b83525af18015610ee357610eed575b506001600160a01b03610d0c612c9b565b16803b156107d757818091602489518094819363b7d8e1a960e01b83523060048401525af18015610ee357610eca575b5050549065ffffffffffff821615610ebb5765ffffffffffff8260301c16918060011b6601fffffffffffe65fffffffffffe821691168103610ea7578310610e98578265ffffffffffff8260601c1610610e89578265ffffffffffff8260901c1610610e7a5760c01c65ffffffffffff16908115610e6b575465ffffffffffff16908115610e5c5765ffffffffffff91610dd591612d71565b1611610e4d576003905410610e3e57610dec575080f35b60207fc7f505b2f371ae2175ee4913f4499e1f2633a7b5936321eed1cdaeb6115181d29160ff60401b195f5160206138ed5f395f51905f5254165f5160206138ed5f395f51905f52555160018152a180f35b634bd1214b60e11b8352600483fd5b63681d91d760e01b8452600484fd5b634c57479b60e11b8752600487fd5b63a46498b960e01b8752600487fd5b630ff9ae5960e11b8752600487fd5b630314153160e21b8752600487fd5b63395b39b960e21b8752600487fd5b634e487b7160e01b88526011600452602488fd5b6330e28a3960e11b8652600486fd5b81610ed491612c4c565b610edf57855f610d3c565b8580fd5b87513d84823e3d90fd5b81610ef791612c4c565b610edf57855f610cfb565b8680fd5b8780fd5b8480fd5b634e487b7160e01b84526011600452602484fd5b600160401b60ff60401b195f5160206138ed5f395f51905f525416175f5160206138ed5f395f51905f5255610860565b63f92ee8a960e01b8252600482fd5b9050155f61082a565b303b159150610822565b829150610818565b50346101de57806003193601126101de57602060025f5160206138cd5f395f51905f52540154604051908152f35b50346101de5760203660031901126101de57610fc4612b8c565b5f5160206138cd5f395f51905f52546001600160a01b0390911690601281019061100e610ff18484613718565b65ffffffffffff81169165ffffffffffff8260301c169160601c90565b5065ffffffffffff8116159291508215611046575b50506110375790611033916136d3565b5080f35b63f1c9810160e01b8352600483fd5b65ffffffffffff91925061106b82918261105f426136a4565b955460601c1690612d71565b169116105f80611023565b50346101de57806003193601126101de57602065ffffffffffff5f5160206138cd5f395f51905f52545460301c16604051908152f35b50346101de5760203660031901126101de5761020b6110c9612b8c565b6110d28161320d565b60155f5160206138cd5f395f51905f525401613347565b50346101de57806003193601126101de575f5160206138ad5f395f51905f52546040516001600160a01b039091168152602090f35b50346101de5760203660031901126101de57611138612b8c565b5f5160206138cd5f395f51905f525460100180549091906001600160a01b031633036107c45781546001600160a01b0319166001600160a01b039190911617905580f35b50346101de5760403660031901126101de576004356001600160401b0381116107d757606060031982360301126107d757604051606081018181106001600160401b0382111761152b5760405281600401356001600160401b038111611527578201366023820112156115275760048101356111f781612c6d565b916112056040519384612c4c565b818352602060048185019360061b8301010190368211610f0257602401915b8183106114c9575050508152611247604460208301936024810135855201612ba2565b9060408101918252611257612bcb565b935f5160206138cd5f395f51905f525490600782019460018060a01b0386541633036114ba57845160068401546001600160a01b039182169116036114ab57819594939550606093829565ffffffffffff60056015870196019916926020965b895180518a101561146457896112cc91612dbb565b5180516001600160a01b03165f908152600189016020526040902054156107b557908b91866113858b6113778b6113656113148f610ff19060018060a01b038a511690613718565b9a546040516001600160a01b03909c169b925090506113338683612c4c565b838252604051936113448786612c4c565b845260405197889687015260408601526080606086015260a0850190612d4d565b838103601f1901608085015290612d4d565b03601f198101835282612c4c565b85548751838d0180519096909290916001600160a01b039081169116823b1561146057908c809493926113e56040519788968795869463239723ed60e01b8652600486015260248501526044840152608060648401526084830190612d4d565b03925af1801561145557908991611440575b50509161143891600193519151604051926bffffffffffffffffffffffff199060601b168c840152603483015260348252611433605483612c4c565b612ff8565b9801976112b7565b8161144a91612c4c565b610f0657875f6113f7565b6040513d8b823e3d90fd5b8c80fd5b8861149d86848651915160405192858401526bffffffffffffffffffffffff199060601b16604083015260348252611433605483612c4c565b818151910120604051908152f35b63039a1fd760e21b8252600482fd5b639165520160e01b8252600482fd5b604083360312610f0257604051604081018181106001600160401b03821117611513579160209160409384526114fe86612ba2565b81528286013583820152815201920191611224565b634e487b7160e01b89526041600452602489fd5b8380fd5b634e487b7160e01b84526041600452602484fd5b50346101de57806003193601126101de57602065ffffffffffff5f5160206138cd5f395f51905f52545460901c16604051908152f35b50346101de5760603660031901126101de5761158f612b8c565b5f5160206138cd5f395f51905f5254600781015460243592604435926001600160a01b0390921691338390036116845760068101546001600160a01b039283169216820361167557600e01546001600160a01b031691859190833b156107d3576084908360405195869485936348a78da760e01b8552600485015260248401528860448401528760648401525af1801561166a57611655575b602083836040519083820192835260408201526040815261164a606082612c4c565b519020604051908152f35b611660848092612c4c565b6107d35782611628565b6040513d86823e3d90fd5b63039a1fd760e21b8652600486fd5b639165520160e01b8652600486fd5b50346101de57806003193601126101de576116ac6133c3565b5f5160206138ad5f395f51905f5280546001600160a01b0319811690915581906001600160a01b03167f8be0079c531659141344cd1fd0a4f28419497f9722a3daafe3b4186f6b6457e08280a380f35b50346101de57806003193601126101de57602065ffffffffffff5f5160206138cd5f395f51905f52545460601c16604051908152f35b50346101de5760403660031901126101de5761176f61175b611752612bb6565b60243590612ddc565b604051918291602083526020830190612be0565b0390f35b50346101de5760203660031901126101de5761178d612b8c565b5f5160206138cd5f395f51905f5254600f0180549091906001600160a01b031633036117d15781546001600160a01b0319166001600160a01b039190911617905580f35b633fdc220360e01b8352600483fd5b50346101de57806003193601126101de576117f96133c3565b5f5160206138ed5f395f51905f525460ff8160401c16908115611c24575b50611c15575f5160206138ed5f395f51905f52805468ffffffffffffffffff1916680100000000000000021790555f5160206138ad5f395f51905f5254611869906001600160a01b031661087f6136ed565b5f5160206138cd5f395f51905f5254604080516118868282612c4c565b601f815260208101907f6d6964646c65776172652e73746f726167652e4d6964646c657761726556320082526118ba6133c3565b5190205f198101908111610f0e5781519060208201908152602082526118e08383612c4c565b9051902060ff19165f5160206138cd5f395f51905f528190558254815465ffffffffffff90911665ffffffffffff19821681178355845465ffffffffffff60301b166001600160601b031990921617178155908254825465ffffffffffff60601b191665ffffffffffff60601b9091161782558254825465ffffffffffff60901b191665ffffffffffff60901b9091161782558254825465ffffffffffff60c01b191665ffffffffffff60c01b90911617825565ffffffffffff60018401541665ffffffffffff60018401911665ffffffffffff1982541617905560028301546002830155611a13600384016001600160401b03808254169181600387019316821984541617835554841c1667ffffffffffffffff60401b82549160401b169067ffffffffffffffff60401b1916179055565b60068381015490830180546001600160a01b039283166001600160a01b031991821617909155600480860154908501556005808601549085015560078086015490850180549190931691161790556008808301908401848403611b2d575b50508392601281019260128101955b8454811015611aa75780611aa0611a99600193886133f6565b908a613425565b5001611a80565b50601590810192910184805b8254811015611ada5780611ad3611acc600193866133f6565b9088613425565b5001611ab3565b507fc7f505b2f371ae2175ee4913f4499e1f2633a7b5936321eed1cdaeb6115181d260208460ff60401b195f5160206138ed5f395f51905f5254165f5160206138ed5f395f51905f52555160028152a180f35b5481546001600160a01b03199081166001600160a01b039283161790925560098581015490850180548416918316919091179055600a8086015490850180548416918316919091179055600b8086015490850180548416918316919091179055600c8086015490850180548416918316919091179055600d8086015490850180548416918316919091179055600e8086015490850180548416918316919091179055600f808601549085018054841691831691909117905560108086015490850180548416918316919091179055601180860154908501805490931691161790555f80611a71565b63f92ee8a960e01b8152600490fd5b600291506001600160401b031610155f611817565b50346101de57806003193601126101de57602065ffffffffffff5f5160206138cd5f395f51905f52545460c01c16604051908152f35b50346101de57806003193601126101de57602065ffffffffffff5f5160206138cd5f395f51905f52545416604051908152f35b50346101de57806003193601126101de5761020b60125f5160206138cd5f395f51905f5254013390613347565b50346101de5760203660031901126101de5761020b611cec612b8c565b611cf58161320d565b60155f5160206138cd5f395f51905f5254016132bd565b50346101de57806003193601126101de57602065ffffffffffff60015f5160206138cd5f395f51905f5254015416604051908152f35b50346101de57806003193601126101de575f5160206138cd5f395f51905f525460098101546040516302910f8b60e31b815233600482015290602090829060249082906001600160a01b03165afa908115611e61578391611e7b575b5015611e6c57600c8101546040516308834cb560e21b815233600482015230602482015290602090829060449082906001600160a01b03165afa908115611e61578391611e32575b5015611e2357611e0c9065ffffffffffff611e00426136a4565b16906012339101613425565b15611e145780f35b63f411c32760e01b8152600490fd5b6396cc2bc360e01b8252600482fd5b611e54915060203d602011611e5a575b611e4c8183612c4c565b810190612da3565b5f611de6565b503d611e42565b6040513d85823e3d90fd5b6325878fa360e21b8252600482fd5b611e94915060203d602011611e5a57611e4c8183612c4c565b5f611d9e565b50346101de5760203660031901126101de57611eb4612b8c565b611ebd8161320d565b5f5160206138cd5f395f51905f52546001600160a01b03909116906015810190611eea610ff18484613718565b5065ffffffffffff8116159291508215611f1e575b5050611f0f5790611033916136d3565b6347a11ef760e11b8352600483fd5b65ffffffffffff919250611f43829182611f37426136a4565b955460901c1690612d71565b169116105f80611eff565b50346101de5760203660031901126101de576001600160401b03600435116101de573660236004350112156101de576001600160401b0360043560040135116101de573660246004356004013560051b6004350101116101de575f5160206138cd5f395f51905f5254600f8101546001600160a01b031633036121e75781906020905b600435600401358310156121e35760248360051b600435010135608219600435360301811215610f0a57600435019061202d6001600160a01b0361201760248501612cb2565b165f908152601383016020526040902054151590565b156121d457845b6120446064840160248501612cc6565b90508110156121c757612067816120616064860160248701612cc6565b90612cfb565b6120916001600160a01b0361207b83612cb2565b165f908152601685016020526040902054151590565b156107b557869190600490866001600160a01b036120ae83612cb2565b166040519384809263b134427160e01b82525afa91821561166a5784926121a8575b506004850154916120e360248801612cb2565b604488013565ffffffffffff81169003610edf578895869461216860405161210b8882612c4c565b838152601f1988013689830137604051998a978896879563545ce38960e01b8752600487015260018060a01b031660248601520135604484015265ffffffffffff60448d013516606484015260a0608484015260a4830190612d4d565b03926001600160a01b03165af19182156107725760019261218b575b5001612034565b6121a190863d881161076b5761075c8183612c4c565b505f612184565b6121c0919250873d89116107a3576107958183612c4c565b905f6120d0565b5092600191500191611fd1565b6303fa1eaf60e41b8552600485fd5b8380f35b633fdc220360e01b8252600482fd5b50346128b85760403660031901126128b857612210612b8c565b6024356001600160a01b0381169291908390036128b8576122308161320d565b5f5160206138cd5f395f51905f525460088101546040516302910f8b60e31b81526001600160a01b038085166004830181905294939260209183916024918391165afa908115612a4a575f91612b6d575b5015612b5e5760405163054fd4d560e41b8152602081600481875afa908115612a4a575f91612b3f575b5060038201906001600160401b0380835416911603612b305760405163d8dfeb4560e01b8152602081600481885afa908115612a4a575f91612b11575b5060068301546001600160a01b03908116911603612b02576040516327f843b560e11b8152602081600481885afa908115612a4a575f91612ae3575b5065ffffffffffff80845460301c169116908110612ad45760405163142186b760e21b8152602081600481895afa908115612a4a575f91612ab5575b5015612aa657604051630ce9b79360e41b8152602081600481895afa908115612a4a575f91612a87575b50600484810180546040516368adba0760e11b81529283015292916001600160a01b031690602081602481855afa908115612a4a575f91612a55575b50196129f8575b602060049160405192838092637f5a7c7b60e01b82525afa9081156107aa5788916129d9575b506001600160a01b03166129c757604051630dd83c7f60e31b81526020816004818a5afa9081156107aa5788916129a8575b50156129995760405163b134427160e01b81526020816004818a5afa9081156107aa57889161297a575b50604051635d927f4560e11b81526001600160a01b039190911693602082600481885afa91821561145557899261294e575b506001600160401b0380915460401c1691160361293f57604051631a684c7560e11b8152602081600481875afa9081156107aa578891612920575b506129115760405163e054e08b60e01b8152602081600481875afa9081156107aa5788916128e2575b5065ffffffffffff855460c01c1665ffffffffffff8216106128d35761251965ffffffffffff918260018801541690612d71565b16116128c45760405163bc6eac5b60e01b8152602081600481865afa90811561077257879161288e575b5060028401541061287f57549060209261259b846040516125648282612c4c565b898152601f19820195863684840137604051938492839263cd05b8a160e01b84526004840152604060248401526044830190612d4d565b0381865afa9081156107aa578891612862575b506001600160a01b03168061283b575060110154604051926001600160a01b03909116906125dc8585612c4c565b8784523685850137813b15610f025791869161262293836040518096819582946348b47ce960e11b84528460048501526024840152606060448401526064830190612d4d565b03925af1801561278c57908591612826575b50505b6040516313c085b760e11b81528181600481875afa90811561278c578591612809575b506001600160a01b0316156127fa575f5160206138cd5f395f51905f52549260248260018060a01b03600d87015416604051928380926302910f8b60e31b82528b60048301525afa9081156127c35786916127dd575b50156127ce5760405163411557d160e01b815282816004818a5afa9081156127c35786916127a6575b506001600160a01b0316036127975760405163054fd4d560e41b81528181600481895afa91821561278c57916001600160401b0391600293879261275f575b50501603612750576015611e0c939465ffffffffffff612737426136a4565b1660609190911b6001600160601b031916179201613425565b63ded51c0b60e01b8352600483fd5b61277e9250803d10612785575b6127768183612c4c565b810190613280565b5f80612718565b503d61276c565b6040513d87823e3d90fd5b630a724f6160e01b8452600484fd5b6127bd9150833d85116107a3576107958183612c4c565b5f6126d9565b6040513d88823e3d90fd5b6346e01c4360e11b8552600485fd5b6127f49150833d8511611e5a57611e4c8183612c4c565b5f6126b0565b630c6b5ff760e31b8452600484fd5b6128209150823d84116107a3576107958183612c4c565b5f61265a565b8161283091612c4c565b61152757835f612634565b6011909101546001600160a01b0316149150612637905057633cc6586560e21b8452600484fd5b6128799150853d87116107a3576107958183612c4c565b5f6125ae565b633a2662c360e11b8652600486fd5b90506020813d6020116128bc575b816128a960209383612c4c565b810103126128b857515f612543565b5f80fd5b3d915061289c565b6307cfe49360e51b8652600486fd5b633062eb1960e21b8852600488fd5b612904915060203d60201161290a575b6128fc8183612c4c565b81019061329f565b5f6124e5565b503d6128f2565b63447984b360e11b8752600487fd5b612939915060203d602011611e5a57611e4c8183612c4c565b5f6124bc565b63f8c618c760e01b8752600487fd5b6001600160401b03919250612972829160203d602011612785576127768183612c4c565b929150612481565b612993915060203d6020116107a3576107958183612c4c565b5f61244f565b631501f36360e21b8752600487fd5b6129c1915060203d602011611e5a57611e4c8183612c4c565b5f612425565b60016221bb1360e11b03198752600487fd5b6129f2915060203d6020116107a3576107958183612c4c565b5f6123f3565b803b156128b8576040516323f752d560e01b81525f600482018190525f1960248301528160448183865af18015612a4a57612a34575b506123cd565b612a419198505f90612c4c565b5f966020612a2e565b6040513d5f823e3d90fd5b90506020813d602011612a7f575b81612a7060209383612c4c565b810103126128b857515f6123c6565b3d9150612a63565b612aa0915060203d6020116107a3576107958183612c4c565b5f61238a565b636e549c1760e11b5f5260045ffd5b612ace915060203d602011611e5a57611e4c8183612c4c565b5f612360565b634934476760e01b5f5260045ffd5b612afc915060203d60201161290a576128fc8183612c4c565b5f612324565b63039a1fd760e21b5f5260045ffd5b612b2a915060203d6020116107a3576107958183612c4c565b5f6122e8565b63bfcdc45f60e01b5f5260045ffd5b612b58915060203d602011612785576127768183612c4c565b5f6122ab565b635b19e4bb60e01b5f5260045ffd5b612b86915060203d602011611e5a57611e4c8183612c4c565b5f612281565b600435906001600160a01b03821682036128b857565b35906001600160a01b03821682036128b857565b6004359065ffffffffffff821682036128b857565b6024359065ffffffffffff821682036128b857565b90602080835192838152019201905f5b818110612bfd5750505090565b82516001600160a01b0316845260209384019390920191600101612bf0565b61014081019081106001600160401b03821117612c3857604052565b634e487b7160e01b5f52604160045260245ffd5b90601f801991011681019081106001600160401b03821117612c3857604052565b6001600160401b038111612c385760051b60200190565b6101e4356001600160a01b03811681036128b85790565b610204356001600160a01b03811681036128b85790565b356001600160a01b03811681036128b85790565b903590601e19813603018212156128b857018035906001600160401b0382116128b857602001918160061b360383136128b857565b9190811015612d0b5760061b0190565b634e487b7160e01b5f52603260045260245ffd5b908160209103126128b857516001600160a01b03811681036128b85790565b908160209103126128b8575190565b805180835260209291819084018484015e5f828201840152601f01601f1916010190565b9065ffffffffffff8091169116019065ffffffffffff8211612d8f57565b634e487b7160e01b5f52601160045260245ffd5b908160209103126128b8575180151581036128b85790565b8051821015612d0b5760209160051b010190565b91908201809211612d8f57565b918115612fe957612dec83613038565b92815181811115612fe0575f5f198201828111925b808310612f0757505050506001945f19820190828211612d8f57612e258287612dbb565b5183975b8551891015612ef95781612e3d8a8a612dbb565b5103612e595760018101809111612d8f57600190980197612e29565b9395975050909294505b60018211612e74575b505050815290565b604051602081019165ffffffffffff60d01b9060d01b16825260068152612e9c602682612c4c565b519020908015612ee557612eb1910683612dcf565b5f198101908111612d8f57612edc906001600160a01b0390612ed39086612dbb565b51169184612dbb565b525f8080612e6c565b634e487b7160e01b5f52601260045260245ffd5b939597505090929450612e63565b9296958792959891945f935b612d8f578685035f1901868111612d8f57841015612fcd57612f358489612dbb565b516001850194858111612d8f57858c82600194612f538f9a8f612dbb565b5111612f64575b5050500193612f13565b612fc4918d612f9483612f778784612dbb565b5192612f838282612dbb565b51612f8e8983612dbb565b52612dbb565b52858060a01b03612fa58583612dbb565b511693612f8e878060a01b03612fbb8585612dbb565b51169183612dbb565b525f8c82612f5a565b9491989560019197989493500191612e01565b50509150915090565b6314f867c760e21b5f5260045ffd5b613036906020808095946040519684889551918291018487015e8401908282015f8152815193849201905e01015f815203601f198101845283612c4c565b565b9061304282613447565b60125f5160206138cd5f395f51905f52540180549261306084612c6d565b9161306e6040519384612c4c565b848352601f1961307d86612c6d565b0136602085013761308d85612c6d565b9461309b6040519687612c4c565b808652601f196130aa82612c6d565b013660208801375f925f925b8284106130ca575050505080825283529190565b909192936130ff613106846130df88866133f6565b93909365ffffffffffff81169165ffffffffffff8260301c169160601c90565b50906134d1565b1561314f578361312b9161311a848a612dbb565b6001600160a01b038216905261352a565b613135828a612dbb565b5260018101809111612d8f57600190945b019291906130b6565b5093600190613146565b90613185816130ff610ff160125f5160206138cd5f395f51905f52540160018060a01b03871690613718565b15613196576131939161352a565b90565b50505f90565b6001600160a01b031680156131fa575f5160206138ad5f395f51905f5280546001600160a01b0319811683179091556001600160a01b03167f8be0079c531659141344cd1fd0a4f28419497f9722a3daafe3b4186f6b6457e05f80a3565b631e4fbdf760e01b5f525f60045260245ffd5b604051632474521560e21b81525f600482015233602482015290602090829060449082906001600160a01b03165afa908115612a4a575f91613261575b501561325257565b630e7fea9d60e01b5f5260045ffd5b61327a915060203d602011611e5a57611e4c8183612c4c565b5f61324a565b908160209103126128b857516001600160401b03811681036128b85790565b908160209103126128b8575165ffffffffffff811681036128b85790565b65ffffffffffff916132db610ff16001600160a01b03831684613718565b9194909416938415908115613335575b50613326576133239365ffffffffffff60301b613307426136a4565b60301b161760609190911b6001600160601b0319161791613425565b50565b633f54562b60e11b5f5260045ffd5b65ffffffffffff91501615155f6132eb565b65ffffffffffff91613365610ff16001600160a01b03831684613718565b94909116151590816133b2575b506133a3576133239265ffffffffffff61338b426136a4565b1660609190911b6001600160601b0319161791613425565b637952fbad60e11b5f5260045ffd5b65ffffffffffff915016155f613372565b5f5160206138ad5f395f51905f52546001600160a01b031633036133e357565b63118cdaa760e01b5f523360045260245ffd5b91906134046002918461376f565b90549060031b1c92835f520160205260405f20549160018060a01b03169190565b613193929160018060a01b031691825f526002820160205260405f205561385f565b5f5160206138cd5f395f51905f52549065ffffffffffff613467426136a4565b1665ffffffffffff821610156134ba5761349e915465ffffffffffff808260601c169160901c168082105f146134c9575090612d71565b65ffffffffffff806134af426136a4565b16911611156134ba57565b63686c69fd60e01b5f5260045ffd5b905090612d71565b65ffffffffffff1680151592919083613517575b50826134f057505090565b65ffffffffffff168015925090821561350857505090565b65ffffffffffff161115905090565b65ffffffffffff8316101592505f6134e5565b5f5160206138cd5f395f51905f52546015810180546004909201545f95948694602093869391905b868810613563575050505050505050565b90919293949596986130ff61357c866130df8d866133f6565b1561369a57604051630ce9b79360e41b8152908890829060049082906001600160a01b03165afa908115612a4a576136189189915f9161367d575b50604051906135c68383612c4c565b5f825289368484013760405163e02f693760e01b8152600481018990526001600160a01b038816602482015265ffffffffffff8a16604482015260806064820152938492839182916084830190612d4d565b03916001600160a01b03165afa908115612a4a575f9161364f575b5061364090600192612dcf565b995b0196959493929190613552565b90508781813d8311613676575b6136668183612c4c565b810103126128b857516001613633565b503d61365c565b6136949150823d84116107a3576107958183612c4c565b5f6135b7565b5098600190613642565b65ffffffffffff81116136bc5765ffffffffffff1690565b6306dfcc6560e41b5f52603060045260245260445ffd5b9061319391815f52600281016020525f6040812055613784565b60ff5f5160206138ed5f395f51905f525460401c161561370957565b631afcd79f60e31b5f5260045ffd5b90805f526002820160205260405f205491818315918261374f575b505061373d575090565b63015ab34360e11b5f5260045260245ffd5b61376792506001915f520160205260405f2054151590565b15815f613733565b8054821015612d0b575f5260205f2001905f90565b906001820191815f528260205260405f20548015155f14613857575f198101818111612d8f5782545f19810191908211612d8f5781810361380c575b505050805480156137f8575f1901906137d9828261376f565b8154905f199060031b1b19169055555f526020525f6040812055600190565b634e487b7160e01b5f52603160045260245ffd5b61384261381c61382c938661376f565b90549060031b1c9283928661376f565b819391549060031b91821b915f19901b19161790565b90555f528360205260405f20555f80806137c0565b505050505f90565b5f82815260018201602052604090205461319657805490600160401b821015612c38578261389761382c84600180960185558461376f565b90558054925f520160205260405f205560019056fe9016d09d72d40fdae2fd8ceac6b6234c7706214fd39c1cd1e609a0528c1993000b8c56af6cc9ad401ad225bfe96df77f3049ba17eadac1cb95ee89df1e69d100f0c57e16840df040f15088dc2f81fe391c3923bec73e23a9662efc9c229c6a00f0c57e16840df040f15088dc2f81fe391c3923bec73e23a9662efc9c229c6a00","linkReferences":{}},"methodIdentifiers":{"allowedVaultImplVersion()":"c9b0b1e9","changeSlashExecutor(address)":"86c241a1","changeSlashRequester(address)":"6d1064eb","collateral()":"d8dfeb45","disableOperator()":"d99fcd66","disableVault(address)":"3ccce789","distributeOperatorRewards(address,uint256,bytes32)":"729e2f36","distributeStakerRewards(((address,uint256)[],uint256,address),uint48)":"7fbe95b5","enableOperator()":"3d15e74e","enableVault(address)":"936f4330","eraDuration()":"4455a38f","executeSlash((address,uint256)[])":"af962995","getActiveOperatorsStakeAt(uint48)":"b5e5ad12","getOperatorStakeAt(address,uint48)":"d99ddfc7","initialize((address,uint48,uint48,uint48,uint48,uint48,uint48,uint64,uint64,uint256,uint256,address,address,(address,address,address,address,address,address,address,address,address,address)))":"ab122753","makeElectionAt(uint48,uint256)":"6e5c7932","maxAdminFee()":"c639e2d6","maxResolverSetEpochsDelay()":"9e032311","minSlashExecutionDelay()":"373bba1f","minVaultEpochDuration()":"945cf2dd","minVetoDuration()":"461e7a8e","operatorGracePeriod()":"709d06ae","owner()":"8da5cb5b","registerOperator()":"2acde098","registerVault(address,address)":"05c4fdf9","reinitialize()":"6c2eb350","renounceOwnership()":"715018a6","requestSlash((address,uint48,(address,uint256)[])[])":"0a71094c","router()":"f887ea40","subnetwork()":"ceebb69a","symbioticContracts()":"bcf33934","transferOwnership(address)":"f2fde38b","unregisterOperator(address)":"96115bc2","unregisterVault(address)":"2633b70f","vaultGracePeriod()":"79a8b245","vetoSlasherImplType()":"d55a5bdf"},"storageLayout":{"storage":[],"types":{}},"id":153}