{"abi":[{"type":"constructor","inputs":[],"stateMutability":"nonpayable"},{"type":"function","name":"allowedVaultImplVersion","inputs":[],"outputs":[{"name":"","type":"uint64","internalType":"uint64"}],"stateMutability":"view"},{"type":"function","name":"changeSlashExecutor","inputs":[{"name":"newRole","type":"address","internalType":"address"}],"outputs":[],"stateMutability":"nonpayable"},{"type":"function","name":"changeSlashRequester","inputs":[{"name":"newRole","type":"address","internalType":"address"}],"outputs":[],"stateMutability":"nonpayable"},{"type":"function","name":"collateral","inputs":[],"outputs":[{"name":"","type":"address","internalType":"address"}],"stateMutability":"view"},{"type":"function","name":"disableOperator","inputs":[],"outputs":[],"stateMutability":"nonpayable"},{"type":"function","name":"disableVault","inputs":[{"name":"vault","type":"address","internalType":"address"}],"outputs":[],"stateMutability":"nonpayable"},{"type":"function","name":"distributeOperatorRewards","inputs":[{"name":"token","type":"address","internalType":"address"},{"name":"amount","type":"uint256","internalType":"uint256"},{"name":"root","type":"bytes32","internalType":"bytes32"}],"outputs":[{"name":"","type":"bytes32","internalType":"bytes32"}],"stateMutability":"nonpayable"},{"type":"function","name":"distributeStakerRewards","inputs":[{"name":"_commitment","type":"tuple","internalType":"struct Gear.StakerRewardsCommitment","components":[{"name":"distribution","type":"tuple[]","internalType":"struct Gear.StakerRewards[]","components":[{"name":"vault","type":"address","internalType":"address"},{"name":"amount","type":"uint256","internalType":"uint256"}]},{"name":"totalAmount","type":"uint256","internalType":"uint256"},{"name":"token","type":"address","internalType":"address"}]},{"name":"timestamp","type":"uint48","internalType":"uint48"}],"outputs":[{"name":"","type":"bytes32","internalType":"bytes32"}],"stateMutability":"nonpayable"},{"type":"function","name":"enableOperator","inputs":[],"outputs":[],"stateMutability":"nonpayable"},{"type":"function","name":"enableVault","inputs":[{"name":"vault","type":"address","internalType":"address"}],"outputs":[],"stateMutability":"nonpayable"},{"type":"function","name":"eraDuration","inputs":[],"outputs":[{"name":"","type":"uint48","internalType":"uint48"}],"stateMutability":"view"},{"type":"function","name":"executeSlash","inputs":[{"name":"slashes","type":"tuple[]","internalType":"struct IMiddleware.SlashIdentifier[]","components":[{"name":"vault","type":"address","internalType":"address"},{"name":"index","type":"uint256","internalType":"uint256"}]}],"outputs":[],"stateMutability":"nonpayable"},{"type":"function","name":"getActiveOperatorsStakeAt","inputs":[{"name":"ts","type":"uint48","internalType":"uint48"}],"outputs":[{"name":"activeOperators","type":"address[]","internalType":"address[]"},{"name":"stakes","type":"uint256[]","internalType":"uint256[]"}],"stateMutability":"view"},{"type":"function","name":"getOperatorStakeAt","inputs":[{"name":"operator","type":"address","internalType":"address"},{"name":"ts","type":"uint48","internalType":"uint48"}],"outputs":[{"name":"stake","type":"uint256","internalType":"uint256"}],"stateMutability":"view"},{"type":"function","name":"getOperatorStakeVaultsAt","inputs":[{"name":"operator","type":"address","internalType":"address"},{"name":"ts","type":"uint48","internalType":"uint48"}],"outputs":[{"name":"","type":"tuple[]","internalType":"struct IMiddleware.VaultWithStake[]","components":[{"name":"vault","type":"address","internalType":"address"},{"name":"stake","type":"uint256","internalType":"uint256"}]}],"stateMutability":"view"},{"type":"function","name":"initialize","inputs":[{"name":"_params","type":"tuple","internalType":"struct IMiddleware.InitParams","components":[{"name":"owner","type":"address","internalType":"address"},{"name":"minVaultEpochDuration","type":"uint48","internalType":"uint48"},{"name":"operatorGracePeriod","type":"uint48","internalType":"uint48"},{"name":"vaultGracePeriod","type":"uint48","internalType":"uint48"},{"name":"minVetoDuration","type":"uint48","internalType":"uint48"},{"name":"minSlashExecutionDelay","type":"uint48","internalType":"uint48"},{"name":"allowedVaultImplVersion","type":"uint64","internalType":"uint64"},{"name":"vetoSlasherImplType","type":"uint64","internalType":"uint64"},{"name":"maxResolverSetEpochsDelay","type":"uint256","internalType":"uint256"},{"name":"collateral","type":"address","internalType":"address"},{"name":"maxAdminFee","type":"uint256","internalType":"uint256"},{"name":"operatorRewards","type":"address","internalType":"address"},{"name":"router","type":"address","internalType":"address"},{"name":"roleSlashRequester","type":"address","internalType":"address"},{"name":"roleSlashExecutor","type":"address","internalType":"address"},{"name":"vetoResolver","type":"address","internalType":"address"},{"name":"registries","type":"tuple","internalType":"struct Gear.SymbioticRegistries","components":[{"name":"vaultRegistry","type":"address","internalType":"address"},{"name":"operatorRegistry","type":"address","internalType":"address"},{"name":"networkRegistry","type":"address","internalType":"address"},{"name":"middlewareService","type":"address","internalType":"address"},{"name":"networkOptIn","type":"address","internalType":"address"},{"name":"stakerRewardsFactory","type":"address","internalType":"address"}]}]}],"outputs":[],"stateMutability":"nonpayable"},{"type":"function","name":"makeElectionAt","inputs":[{"name":"ts","type":"uint48","internalType":"uint48"},{"name":"maxValidators","type":"uint256","internalType":"uint256"}],"outputs":[{"name":"","type":"address[]","internalType":"address[]"}],"stateMutability":"view"},{"type":"function","name":"maxAdminFee","inputs":[],"outputs":[{"name":"","type":"uint256","internalType":"uint256"}],"stateMutability":"view"},{"type":"function","name":"maxResolverSetEpochsDelay","inputs":[],"outputs":[{"name":"","type":"uint256","internalType":"uint256"}],"stateMutability":"view"},{"type":"function","name":"minSlashExecutionDelay","inputs":[],"outputs":[{"name":"","type":"uint48","internalType":"uint48"}],"stateMutability":"view"},{"type":"function","name":"minVaultEpochDuration","inputs":[],"outputs":[{"name":"","type":"uint48","internalType":"uint48"}],"stateMutability":"view"},{"type":"function","name":"minVetoDuration","inputs":[],"outputs":[{"name":"","type":"uint48","internalType":"uint48"}],"stateMutability":"view"},{"type":"function","name":"operatorGracePeriod","inputs":[],"outputs":[{"name":"","type":"uint48","internalType":"uint48"}],"stateMutability":"view"},{"type":"function","name":"operatorRegistry","inputs":[],"outputs":[{"name":"","type":"address","internalType":"address"}],"stateMutability":"view"},{"type":"function","name":"operatorRewards","inputs":[],"outputs":[{"name":"","type":"address","internalType":"address"}],"stateMutability":"view"},{"type":"function","name":"owner","inputs":[],"outputs":[{"name":"","type":"address","internalType":"address"}],"stateMutability":"view"},{"type":"function","name":"registerOperator","inputs":[],"outputs":[],"stateMutability":"nonpayable"},{"type":"function","name":"registerVault","inputs":[{"name":"_vault","type":"address","internalType":"address"},{"name":"_rewards","type":"address","internalType":"address"}],"outputs":[],"stateMutability":"nonpayable"},{"type":"function","name":"reinitialize","inputs":[],"outputs":[],"stateMutability":"nonpayable"},{"type":"function","name":"renounceOwnership","inputs":[],"outputs":[],"stateMutability":"nonpayable"},{"type":"function","name":"requestSlash","inputs":[{"name":"data","type":"tuple[]","internalType":"struct IMiddleware.SlashData[]","components":[{"name":"operator","type":"address","internalType":"address"},{"name":"ts","type":"uint48","internalType":"uint48"},{"name":"vaults","type":"tuple[]","internalType":"struct IMiddleware.VaultSlashData[]","components":[{"name":"vault","type":"address","internalType":"address"},{"name":"amount","type":"uint256","internalType":"uint256"}]}]}],"outputs":[],"stateMutability":"nonpayable"},{"type":"function","name":"roleSlashExecutor","inputs":[],"outputs":[{"name":"","type":"address","internalType":"address"}],"stateMutability":"view"},{"type":"function","name":"roleSlashRequester","inputs":[],"outputs":[{"name":"","type":"address","internalType":"address"}],"stateMutability":"view"},{"type":"function","name":"router","inputs":[],"outputs":[{"name":"","type":"address","internalType":"address"}],"stateMutability":"view"},{"type":"function","name":"subnetwork","inputs":[],"outputs":[{"name":"","type":"bytes32","internalType":"bytes32"}],"stateMutability":"view"},{"type":"function","name":"transferOwnership","inputs":[{"name":"newOwner","type":"address","internalType":"address"}],"outputs":[],"stateMutability":"nonpayable"},{"type":"function","name":"unregisterOperator","inputs":[{"name":"operator","type":"address","internalType":"address"}],"outputs":[],"stateMutability":"nonpayable"},{"type":"function","name":"unregisterVault","inputs":[{"name":"vault","type":"address","internalType":"address"}],"outputs":[],"stateMutability":"nonpayable"},{"type":"function","name":"vaultGracePeriod","inputs":[],"outputs":[{"name":"","type":"uint48","internalType":"uint48"}],"stateMutability":"view"},{"type":"function","name":"vetoSlasherImplType","inputs":[],"outputs":[{"name":"","type":"uint64","internalType":"uint64"}],"stateMutability":"view"},{"type":"event","name":"Initialized","inputs":[{"name":"version","type":"uint64","indexed":false,"internalType":"uint64"}],"anonymous":false},{"type":"event","name":"OwnershipTransferred","inputs":[{"name":"previousOwner","type":"address","indexed":true,"internalType":"address"},{"name":"newOwner","type":"address","indexed":true,"internalType":"address"}],"anonymous":false},{"type":"error","name":"AlreadyAdded","inputs":[]},{"type":"error","name":"AlreadyEnabled","inputs":[]},{"type":"error","name":"BurnerHookNotSupported","inputs":[]},{"type":"error","name":"DelegatorNotInitialized","inputs":[]},{"type":"error","name":"EnumerableMapNonexistentKey","inputs":[{"name":"key","type":"bytes32","internalType":"bytes32"}]},{"type":"error","name":"IncompatibleSlasherType","inputs":[]},{"type":"error","name":"IncompatibleStakerRewardsVersion","inputs":[]},{"type":"error","name":"IncompatibleVaultVersion","inputs":[]},{"type":"error","name":"IncorrectTimestamp","inputs":[]},{"type":"error","name":"InvalidInitialization","inputs":[]},{"type":"error","name":"InvalidStakerRewardsVault","inputs":[]},{"type":"error","name":"NonFactoryStakerRewards","inputs":[]},{"type":"error","name":"NonFactoryVault","inputs":[]},{"type":"error","name":"NotEnabled","inputs":[]},{"type":"error","name":"NotInitializing","inputs":[]},{"type":"error","name":"NotRegisteredOperator","inputs":[]},{"type":"error","name":"NotRegisteredVault","inputs":[]},{"type":"error","name":"NotRouter","inputs":[]},{"type":"error","name":"NotSlashExecutor","inputs":[]},{"type":"error","name":"NotSlashRequester","inputs":[]},{"type":"error","name":"NotVaultOwner","inputs":[]},{"type":"error","name":"OperatorDoesNotExist","inputs":[]},{"type":"error","name":"OperatorDoesNotOptIn","inputs":[]},{"type":"error","name":"OperatorGracePeriodNotPassed","inputs":[]},{"type":"error","name":"OwnableInvalidOwner","inputs":[{"name":"owner","type":"address","internalType":"address"}]},{"type":"error","name":"OwnableUnauthorizedAccount","inputs":[{"name":"account","type":"address","internalType":"address"}]},{"type":"error","name":"ReentrancyGuardReentrantCall","inputs":[]},{"type":"error","name":"ResolverMismatch","inputs":[]},{"type":"error","name":"ResolverSetDelayTooLong","inputs":[]},{"type":"error","name":"SafeCastOverflowedUintDowncast","inputs":[{"name":"bits","type":"uint8","internalType":"uint8"},{"name":"value","type":"uint256","internalType":"uint256"}]},{"type":"error","name":"SlasherNotInitialized","inputs":[]},{"type":"error","name":"UnknownCollateral","inputs":[]},{"type":"error","name":"UnsupportedBurner","inputs":[]},{"type":"error","name":"UnsupportedDelegatorHook","inputs":[]},{"type":"error","name":"VaultGracePeriodNotPassed","inputs":[]},{"type":"error","name":"VaultWrongEpochDuration","inputs":[]},{"type":"error","name":"VetoDurationTooLong","inputs":[]},{"type":"error","name":"VetoDurationTooShort","inputs":[]}],"bytecode":{"object":"0x6080806040523460aa575f5160206141015f395f51905f525460ff8160401c16609b576002600160401b03196001600160401b038216016049575b60405161405290816100af8239f35b6001600160401b0319166001600160401b039081175f5160206141015f395f51905f525581527fc7f505b2f371ae2175ee4913f4499e1f2633a7b5936321eed1cdaeb6115181d290602090a15f80603a565b63f92ee8a960e01b5f5260045ffd5b5f80fdfe6080806040526004361015610012575f80fd5b5f905f3560e01c90816305c4fdf91461262b575080630a71094c146123835780632633b70f146122865780632acde098146121495780632cd8100914612110578063373bba1f146120da5780633ccce789146120465780633d15e74e146120195780634455a38f14611fe6578063461e7a8e14611fb057806358c2225b14611f775780636c2eb35014611b1c5780636d1064eb14611abe5780636e5c793214611a7d578063709d06ae14611a47578063715018a6146119de578063729e2f36146118c057806379a8b2451461188a5780637fbe95b51461151157806386c241a1146114a457806387c99b411461141f5780638da5cb5b146113ea578063936f43301461132c578063945cf2dd146112f657806396115bc21461122a5780639e032311146111fc578063af96299514610ff1578063b5e5ad1214610f78578063c639e2d614610f4a578063c9b0b1e914610f13578063c9ba52d31461044b578063ceebb69a1461041d578063d55a5bdf146103e3578063d8dfeb45146103aa578063d99ddfc7146102dd578063d99fcd66146102b0578063dbb6eed214610277578063e74f8bef1461023e578063f2fde38b146102115763f887ea40146101d6575f80fd5b3461020e578060031936011261020e575f5160206140125f395f51905f5254600801546040516001600160a01b039091168152602090f35b80fd5b503461020e57602036600319011261020e5761023b61022e613049565b610236613bbd565b613a27565b80f35b503461020e578060031936011261020e575f5160206140125f395f51905f5254600a01546040516001600160a01b039091168152602090f35b503461020e578060031936011261020e575f5160206140125f395f51905f5254600901546040516001600160a01b039091168152602090f35b503461020e578060031936011261020e5761023b60125f5160206140125f395f51905f5254013390613ab7565b503461020e57604036600319011261020e576102f7613049565b6102ff613088565b915f5160206140125f395f51905f525465ffffffffffff61031f42613de9565b1665ffffffffffff8516101561039b57610357905465ffffffffffff808260601c169160901c168082105f1461039457505b84613277565b65ffffffffffff8061036842613de9565b169116111561038557602061037d84846139e7565b604051908152f35b63686c69fd60e01b8152600490fd5b9050610351565b63686c69fd60e01b8252600482fd5b503461020e578060031936011261020e575f5160206140125f395f51905f5254600401546040516001600160a01b039091168152602090f35b503461020e578060031936011261020e5760206001600160401b0360035f5160206140125f395f51905f5254015460401c16604051908152f35b503461020e578060031936011261020e57602060055f5160206140125f395f51905f52540154604051908152f35b503461020e576102c036600319011261020e575f5160206140325f395f51905f52546001600160401b0360ff8260401c1615911680159081610f0b575b6001149081610f01575b159081610ef8575b50610ee9578060016001600160401b03195f5160206140325f395f51905f525416175f5160206140325f395f51905f5255610eb9575b6004356001600160a01b0381168103610eb5576104f7906104ef613e32565b610236613e32565b6104ff613e32565b604090815161050e8382613123565b601f815260208101907f6d6964646c65776172652e73746f726167652e4d6964646c65776172655631008252610542613bbd565b5190205f198101908111610ea15782519060208201908152602082526105688483613123565b9051902060ff19165f5160206140125f395f51905f52819055600460606001600160a01b03610595613173565b168551928380926313d7273560e31b82525afa908115610e97578591610e34575b5051815465ffffffffffff191665ffffffffffff9182161782556024359081168103610e305781546bffffffffffff000000000000191660309190911b65ffffffffffff60301b1617815560443565ffffffffffff81168103610e3057815465ffffffffffff60601b191660609190911b65ffffffffffff60601b1617815560643565ffffffffffff81168103610e3057815465ffffffffffff60901b191660909190911b65ffffffffffff60901b1617815560843565ffffffffffff81168103610e3057815465ffffffffffff60c01b191660c09190911b65ffffffffffff60c01b1617815560a43565ffffffffffff81168103610e305765ffffffffffff60018301911665ffffffffffff19825416178155600282019161010435835560c4356001600160401b0381168103610e28576001600160401b036003830191166001600160401b031982541617815560e4356001600160401b0381168103610e2c5781546fffffffffffffffff0000000000000000191660409190911b67ffffffffffffffff60401b16179055610124356001600160a01b0381168103610e28576004820180546001600160a01b0319166001600160a01b039283161790553060601b6005830155610144356006830155610164359081168103610e28576007820180546001600160a01b0319166001600160a01b039092169190911790556107bd613173565b6008820180546001600160a01b0319166001600160a01b039283161790556101a4359081168103610e28576009820180546001600160a01b0319166001600160a01b039283161790556101c4359081168103610e2857600a820180546001600160a01b0319166001600160a01b039283161790556101e4359081168103610e2857600b820180546001600160a01b0319166001600160a01b03928316179055610204359081168103610e2857600c820180546001600160a01b0319166001600160a01b03928316179055610224359081168103610e2857600d820180546001600160a01b0319166001600160a01b039092169190911790556108bd61318a565b600e820180546001600160a01b0319166001600160a01b039092169190911790556108e66131a1565b600f820180546001600160a01b0319166001600160a01b03928316179055610284359081168103610e28576010820180546001600160a01b0319166001600160a01b039283161790556102a4359081168103610e28576011820180546001600160a01b0319166001600160a01b03928316179055869061096461318a565b16803b15610e0f5781809160048951809481936387140b5b60e01b83525af18015610e0557610e13575b506001600160a01b0361099f6131a1565b16803b15610e0f57818091602489518094819363b7d8e1a960e01b83523060048401525af18015610e0557610dec575b5050549065ffffffffffff821615610da85765ffffffffffff8260301c16918060011b6601fffffffffffe65fffffffffffe821691168103610d94578310610d33578265ffffffffffff8260601c1610610cbd578265ffffffffffff8260901c1610610c535760c01c65ffffffffffff16908115610c0f575465ffffffffffff16908115610bba5765ffffffffffff91610a6891613277565b1611610b2a576003905410610ad157610a7f575080f35b60207fc7f505b2f371ae2175ee4913f4499e1f2633a7b5936321eed1cdaeb6115181d29160ff60401b195f5160206140325f395f51905f5254165f5160206140325f395f51905f52555160018152a180f35b815162461bcd60e51b815260206004820152602c60248201527f5265736f6c766572207365742065706f6368732064656c6179206d757374206260448201526b65206174206c65617374203360a01b6064820152608490fd5b825162461bcd60e51b815260206004820152605f60248201527f5665746f206475726174696f6e20616e6420736c61736820657865637574696f60448201527f6e2064656c6179206d757374206265206c657373207468616e206f722065717560648201527f616c20746f206d696e207661756c74732065706f6368206475726174696f6e00608482015260a490fd5b855162461bcd60e51b815260206004820152602860248201527f4d696e20736c61736820657865637574696f6e2064656c61792063616e6e6f74604482015267206265207a65726f60c01b6064820152608490fd5b855162461bcd60e51b815260206004820152601c60248201527f5665746f206475726174696f6e2063616e6e6f74206265207a65726f000000006044820152606490fd5b855162461bcd60e51b815260206004820152602481018790527f5661756c7420677261636520706572696f64206d75737420626520626967676560448201527f72207468616e206d696e207661756c74732065706f6368206475726174696f6e6064820152608490fd5b855162461bcd60e51b815260206004820152604360248201527f4f70657261746f7220677261636520706572696f64206d75737420626520626960448201527f67676572207468616e206d696e207661756c74732065706f636820647572617460648201526234b7b760e91b608482015260a490fd5b855162461bcd60e51b815260206004820152603460248201527f4d696e207661756c74732065706f6368206475726174696f6e206d75737420626044820152736520626967676572207468616e2032206572617360601b6064820152608490fd5b634e487b7160e01b88526011600452602488fd5b845162461bcd60e51b815260206004820152601b60248201527f457261206475726174696f6e2063616e6e6f74206265207a65726f00000000006044820152606490fd5b81610df691613123565b610e0157855f6109cf565b8580fd5b87513d84823e3d90fd5b5080fd5b81610e1d91613123565b610e0157855f61098e565b8680fd5b8780fd5b8480fd5b90506060813d606011610e8f575b81610e4f60609383613123565b81010312610e305765ffffffffffff809185805191610e6d836130d9565b610e76816139d4565b83526020810151602084015201518682015291506105b6565b3d9150610e42565b84513d87823e3d90fd5b634e487b7160e01b84526011600452602484fd5b8280fd5b600160401b60ff60401b195f5160206140325f395f51905f525416175f5160206140325f395f51905f52556104d0565b63f92ee8a960e01b8252600482fd5b9050155f61049a565b303b159150610492565b829150610488565b503461020e578060031936011261020e5760206001600160401b0360035f5160206140125f395f51905f5254015416604051908152f35b503461020e578060031936011261020e57602060065f5160206140125f395f51905f52540154604051908152f35b503461020e57602036600319011261020e57610fb490610f9e610f99613073565b613873565b909160405193849360408552604085019061309d565b8381036020850152602080845192838152019301915b818110610fd8575050500390f35b8251845285945060209384019390920191600101610fca565b503461020e57602036600319011261020e576004356001600160401b038111610e0f5736602382011215610e0f5780600401356001600160401b038111610eb5576024820191602436918360061b010111610eb5575f5160206140125f395f51905f5254600901546001600160a01b031633036111ed576020905f90845b81811061107a578580f35b611085818387613201565b5f5160206140125f395f51905f52549091906110c4906015016001600160a01b036110af856131b8565b16906001915f520160205260405f2054151590565b156111de576004856001600160a01b036110dd856131b8565b166040519283809263b134427160e01b82525afa9283156111d35761114b9387928a916111a6575b50828a604051936111168386613123565b81855289368487013760405197889586948593635ca61c3760e11b855201356004840152604060248401526044830190613253565b03926001600160a01b03165af191821561119b5760019261116e575b500161106f565b61118d90863d8811611194575b6111858183613123565b810190613244565b505f611167565b503d61117b565b6040513d89823e3d90fd5b6111c69150833d85116111cc575b6111be8183613123565b810190613225565b5f611105565b503d6111b4565b6040513d8a823e3d90fd5b633b2fc1c360e21b8752600487fd5b633fdc220360e01b8352600483fd5b503461020e578060031936011261020e57602060025f5160206140125f395f51905f52540154604051908152f35b503461020e57602036600319011261020e57611244613049565b5f5160206140125f395f51905f52546001600160a01b0390911690601281019061128e6112718484613e5d565b65ffffffffffff81169165ffffffffffff8260301c169160601c90565b5065ffffffffffff81161592915082156112c6575b50506112b757906112b391613e18565b5080f35b63f1c9810160e01b8352600483fd5b65ffffffffffff9192506112eb8291826112df42613de9565b955460601c1690613277565b169116105f806112a3565b503461020e578060031936011261020e57602065ffffffffffff5f5160206140125f395f51905f52545460301c16604051908152f35b503461020e57602036600319011261020e57611346613049565b604051632474521560e21b8152600481018390523360248201526020816044816001600160a01b0386165afa9081156113df5783916113b0575b50156113a15761023b9060155f5160206140125f395f51905f525401613b41565b630e7fea9d60e01b8252600482fd5b6113d2915060203d6020116113d8575b6113ca8183613123565b81019061315b565b5f611380565b503d6113c0565b6040513d85823e3d90fd5b503461020e578060031936011261020e575f516020613ff25f395f51905f52546040516001600160a01b039091168152602090f35b503461020e57604036600319011261020e5761144a61143c613049565b611444613088565b90613602565b90604051918291602083016020845282518091526020604085019301915b818110611476575050500390f35b825180516001600160a01b031685526020908101518186015286955060409094019390920191600101611468565b503461020e57602036600319011261020e576114be613049565b5f5160206140125f395f51905f5254600a0180549091906001600160a01b031633036115025781546001600160a01b0319166001600160a01b039190911617905580f35b632249f71f60e21b8352600483fd5b503461020e57604036600319011261020e576004356001600160401b038111610e0f5760606003198236030112610e0f5760405161154e816130d9565b81600401356001600160401b0381116118865782013660238201121561188657600481013561157c81613144565b9161158a6040519384613123565b818352602060048185019360061b8301010190368211610e2857602401915b81831061184e5750505081526115cc60446020830193602481013585520161305f565b90604081019182526115dc613088565b935f5160206140125f395f51905f525490600882019460018060a01b03865416330361183f57845160048401546001600160a01b0391821691160361183057819594939550606093829565ffffffffffff60066015870196019916926020965b895180518a10156117e95789611651916132a9565b5180516001600160a01b03165f908152600189016020526040902054156111de57908b918661170a8b6116fc8b6116ea6116998f6112719060018060a01b038a511690613e5d565b9a546040516001600160a01b03909c169b925090506116b88683613123565b838252604051936116c98786613123565b845260405197889687015260408601526080606086015260a0850190613253565b838103601f1901608085015290613253565b03601f198101835282613123565b85548751838d0180519096909290916001600160a01b039081169116823b156117e557908c8094939261176a6040519788968795869463239723ed60e01b8652600486015260248501526044840152608060648401526084830190613253565b03925af180156117da579089916117c5575b5050916117bd91600193519151604051926bffffffffffffffffffffffff199060601b168c8401526034830152603482526117b8605483613123565b61352d565b98019761163c565b816117cf91613123565b610e2c57875f61177c565b6040513d8b823e3d90fd5b8c80fd5b8861182286848651915160405192858401526bffffffffffffffffffffffff199060601b166040830152603482526117b8605483613123565b818151910120604051908152f35b63039a1fd760e21b8252600482fd5b639165520160e01b8252600482fd5b604083360312610e28576020604091825161186881613108565b6118718661305f565b815282860135838201528152019201916115a9565b8380fd5b503461020e578060031936011261020e57602065ffffffffffff5f5160206140125f395f51905f52545460901c16604051908152f35b503461020e57606036600319011261020e576118da613049565b5f5160206140125f395f51905f5254600881015460243592604435926001600160a01b0390921691338390036119cf5760048101546001600160a01b03928316921682036119c057600701546001600160a01b031691859190833b15610eb5576084908360405195869485936348a78da760e01b8552600485015260248401528860448401528760648401525af180156119b5576119a0575b6020838360405190838201928352604082015260408152611995606082613123565b519020604051908152f35b6119ab848092613123565b610eb55782611973565b6040513d86823e3d90fd5b63039a1fd760e21b8652600486fd5b639165520160e01b8652600486fd5b503461020e578060031936011261020e576119f7613bbd565b5f516020613ff25f395f51905f5280546001600160a01b0319811690915581906001600160a01b03167f8be0079c531659141344cd1fd0a4f28419497f9722a3daafe3b4186f6b6457e08280a380f35b503461020e578060031936011261020e57602065ffffffffffff5f5160206140125f395f51905f52545460601c16604051908152f35b503461020e57604036600319011261020e57611aba611aa6611a9d613073565b602435906132ca565b60405191829160208352602083019061309d565b0390f35b503461020e57602036600319011261020e57611ad8613049565b5f5160206140125f395f51905f525460090180549091906001600160a01b031633036111ed5781546001600160a01b0319166001600160a01b039190911617905580f35b503461020e578060031936011261020e57611b35613bbd565b5f5160206140325f395f51905f525460ff8160401c16908115611f62575b50611f53575f5160206140325f395f51905f52805468ffffffffffffffffff1916680100000000000000021790555f516020613ff25f395f51905f5254611ba5906001600160a01b03166104ef613e32565b5f5160206140125f395f51905f525460408051611bc28282613123565b601f815260208101907f6d6964646c65776172652e73746f726167652e4d6964646c65776172655632008252611bf6613bbd565b5190205f198101908111610ea1578151906020820190815260208252611c1c8383613123565b9051902060ff19165f5160206140125f395f51905f528190558254815465ffffffffffff90911665ffffffffffff19821681178355845465ffffffffffff60301b166001600160601b031990921617178155908254825465ffffffffffff60601b191665ffffffffffff60601b9091161782558254825465ffffffffffff60901b191665ffffffffffff60901b9091161782558254825465ffffffffffff60c01b191665ffffffffffff60c01b90911617825565ffffffffffff60018401541665ffffffffffff60018401911665ffffffffffff1982541617905560028301546002830155611d4f600384016001600160401b03808254169181600387019316821984541617835554841c1667ffffffffffffffff60401b82549160401b169067ffffffffffffffff60401b1916179055565b60048381015490830180546001600160a01b03199081166001600160a01b03938416179091556005808601549085015560068086015490850155600780860154908501805483169184169190911790556008808601549085018054831691841691909117905560098086015490850180548316918416919091179055600a8086015490850180548316918416919091179055600b8086015490850180549092169216919091179055600c808301908401848403611ec3575b50508392601281019260128101955b8454811015611e3d5780611e36611e2f60019388613bf0565b908a613c1f565b5001611e16565b50601590810192910184805b8254811015611e705780611e69611e6260019386613bf0565b9088613c1f565b5001611e49565b507fc7f505b2f371ae2175ee4913f4499e1f2633a7b5936321eed1cdaeb6115181d260208460ff60401b195f5160206140325f395f51905f5254165f5160206140325f395f51905f52555160028152a180f35b5481546001600160a01b03199081166001600160a01b0392831617909255600d8581015490850180548416918316919091179055600e8086015490850180548416918316919091179055600f808601549085018054841691831691909117905560108086015490850180548416918316919091179055601180860154908501805490931691161790555f80611e07565b63f92ee8a960e01b8152600490fd5b600291506001600160401b031610155f611b53565b503461020e578060031936011261020e575f5160206140125f395f51905f5254600d01546040516001600160a01b039091168152602090f35b503461020e578060031936011261020e57602065ffffffffffff5f5160206140125f395f51905f52545460c01c16604051908152f35b503461020e578060031936011261020e57602065ffffffffffff5f5160206140125f395f51905f52545416604051908152f35b503461020e578060031936011261020e5761023b60125f5160206140125f395f51905f5254013390613b41565b503461020e57602036600319011261020e57612060613049565b604051632474521560e21b8152600481018390523360248201526020816044816001600160a01b0386165afa9081156113df5783916120bb575b50156113a15761023b9060155f5160206140125f395f51905f525401613ab7565b6120d4915060203d6020116113d8576113ca8183613123565b5f61209a565b503461020e578060031936011261020e57602065ffffffffffff60015f5160206140125f395f51905f5254015416604051908152f35b503461020e578060031936011261020e575f5160206140125f395f51905f5254600701546040516001600160a01b039091168152602090f35b503461020e578060031936011261020e575f5160206140125f395f51905f5254600d8101546040516302910f8b60e31b815233600482015290602090829060249082906001600160a01b03165afa9081156113df578391612267575b50156122585760108101546040516308834cb560e21b815233600482015230602482015290602090829060449082906001600160a01b03165afa9081156113df578391612239575b501561222a576122139065ffffffffffff61220742613de9565b16906012339101613c1f565b1561221b5780f35b63f411c32760e01b8152600490fd5b6396cc2bc360e01b8252600482fd5b612252915060203d6020116113d8576113ca8183613123565b5f6121ed565b6325878fa360e21b8252600482fd5b612280915060203d6020116113d8576113ca8183613123565b5f6121a5565b503461020e57602036600319011261020e576001600160a01b036122a8613049565b16604051632474521560e21b8152826004820152336024820152602081604481855afa9081156113df578391612364575b50156113a1575f5160206140125f395f51905f525460158101906123006112718484613e5d565b5065ffffffffffff8116159291508215612334575b505061232557906112b391613e18565b6347a11ef760e11b8352600483fd5b65ffffffffffff91925061235982918261234d42613de9565b955460901c1690613277565b169116105f80612315565b61237d915060203d6020116113d8576113ca8183613123565b5f6122d9565b503461020e57602036600319011261020e576001600160401b036004351161020e5736602360043501121561020e576001600160401b03600435600401351161020e573660246004356004013560051b60043501011161020e575f5160206140125f395f51905f525460098101546001600160a01b0316330361261c5781906020905b600435600401358310156126185760248360051b600435010135608219600435360301811215610e305760043501906124626001600160a01b0361244c602485016131b8565b165f908152601383016020526040902054151590565b1561260957845b61247960648401602485016131cc565b90508110156125fc5761249c8161249660648601602487016131cc565b90613201565b6124c66001600160a01b036124b0836131b8565b165f908152601685016020526040902054151590565b156111de57869190600490866001600160a01b036124e3836131b8565b166040519384809263b134427160e01b82525afa9182156119b55784926125dd575b50600585015491612518602488016131b8565b604488013565ffffffffffff81169003610e01578895869461259d6040516125408882613123565b838152601f1988013689830137604051998a978896879563545ce38960e01b8752600487015260018060a01b031660248601520135604484015265ffffffffffff60448d013516606484015260a0608484015260a4830190613253565b03926001600160a01b03165af191821561119b576001926125c0575b5001612469565b6125d690863d8811611194576111858183613123565b505f6125b9565b6125f5919250873d89116111cc576111be8183613123565b905f612505565b5092600191500191612406565b6303fa1eaf60e41b8552600485fd5b8380f35b633fdc220360e01b8252600482fd5b8234612d21576040366003190112612d2157612645613049565b6024356001600160a01b038116939190849003612d2157632474521560e21b82525f60048301523360248301526001600160a01b03811691602081604481865afa908115612ebe575f9161302a575b501561301b575f5160206140125f395f51905f5254600c8101546040516302910f8b60e31b81526004810185905290602090829060249082906001600160a01b03165afa908115612ebe575f91612ffc575b5015612fed5760405163054fd4d560e41b8152602081600481875afa908115612ebe575f91612fce575b5060038201906001600160401b0380835416911603612fbf5760405163d8dfeb4560e01b8152602081600481885afa908115612ebe575f91612fa0575b5060048301546001600160a01b03908116911603612f91576040516327f843b560e11b8152602081600481885afa908115612ebe575f91612f57575b5065ffffffffffff80845460301c169116908110612f485760405163142186b760e21b8152602081600481895afa908115612ebe575f91612f29575b5015612f1a57604051630ce9b79360e41b8152602081600481895afa908115612ebe575f91612efb575b506005840180546040516368adba0760e11b815260048101919091529092916001600160a01b031690602081602481855afa908115612ebe575f91612ec9575b5019612e6c575b602060049160405192838092637f5a7c7b60e01b82525afa9081156111d3578891612e4d575b506001600160a01b0316612e3b57604051630dd83c7f60e31b81526020816004818a5afa9081156111d3578891612e1c575b5015612e0d5760405163b134427160e01b81526020816004818a5afa9081156111d3578891612dee575b50604051635d927f4560e11b81526001600160a01b039190911693602082600481885afa9182156117da578992612dc2575b506001600160401b0380915460401c16911603612db357604051631a684c7560e11b8152602081600481875afa9081156111d3578891612d94575b50612d855760405163e054e08b60e01b8152602081600481875afa9081156111d3578891612d4b575b5065ffffffffffff855460c01c1665ffffffffffff821610612d3c5761298265ffffffffffff918260018801541690613277565b1611612d2d5760405163bc6eac5b60e01b8152602081600481865afa90811561119b578791612cf7575b50600284015410612ce8575490602092612a04846040516129cd8282613123565b898152601f19820195863684840137604051938492839263cd05b8a160e01b84526004840152604060248401526044830190613253565b0381865afa9081156111d3578891612ccb575b506001600160a01b031680612ca45750600b0154604051926001600160a01b0390911690612a458585613123565b8784523685850137813b15610e2857918691612a8b93836040518096819582946348b47ce960e11b84528460048501526024840152606060448401526064830190613253565b03925af18015612bf557908591612c8f575b50505b6040516313c085b760e11b81528181600481875afa908115612bf5578591612c72575b506001600160a01b031615612c63575f5160206140125f395f51905f52549260248260018060a01b03601187015416604051928380926302910f8b60e31b82528b60048301525afa908115612c2c578691612c46575b5015612c375760405163411557d160e01b815282816004818a5afa908115612c2c578691612c0f575b506001600160a01b031603612c005760405163054fd4d560e41b81528181600481895afa918215612bf557916001600160401b03916002938792612bc8575b50501603612bb9576015612213939465ffffffffffff612ba042613de9565b1660609190911b6001600160601b031916179201613c1f565b63ded51c0b60e01b8352600483fd5b612be79250803d10612bee575b612bdf8183613123565b810190613a98565b8780612b81565b503d612bd5565b6040513d87823e3d90fd5b630a724f6160e01b8452600484fd5b612c269150833d85116111cc576111be8183613123565b87612b42565b6040513d88823e3d90fd5b6346e01c4360e11b8552600485fd5b612c5d9150833d85116113d8576113ca8183613123565b87612b19565b630c6b5ff760e31b8452600484fd5b612c899150823d84116111cc576111be8183613123565b86612ac3565b81612c9991613123565b611886578386612a9d565b600b909101546001600160a01b0316149150612aa0905057633cc6586560e21b8452600484fd5b612ce29150853d87116111cc576111be8183613123565b89612a17565b633a2662c360e11b8652600486fd5b90506020813d602011612d25575b81612d1260209383613123565b81010312612d215751886129ac565b5f80fd5b3d9150612d05565b6307cfe49360e51b8652600486fd5b633062eb1960e21b8852600488fd5b90506020813d602011612d7d575b81612d6660209383613123565b81010312610e2c57612d77906139d4565b8961294e565b3d9150612d59565b63447984b360e11b8752600487fd5b612dad915060203d6020116113d8576113ca8183613123565b89612925565b63f8c618c760e01b8752600487fd5b6001600160401b03919250612de6829160203d602011612bee57612bdf8183613123565b9291506128ea565b612e07915060203d6020116111cc576111be8183613123565b896128b8565b631501f36360e21b8752600487fd5b612e35915060203d6020116113d8576113ca8183613123565b8961288e565b60016221bb1360e11b03198752600487fd5b612e66915060203d6020116111cc576111be8183613123565b8961285c565b803b15612d21576040516323f752d560e01b81525f600482018190525f1960248301528160448183865af18015612ebe57612ea8575b50612836565b612eb59198505f90613123565b5f966020612ea2565b6040513d5f823e3d90fd5b90506020813d602011612ef3575b81612ee460209383613123565b81010312612d2157518a61282f565b3d9150612ed7565b612f14915060203d6020116111cc576111be8183613123565b886127ef565b636e549c1760e11b5f5260045ffd5b612f42915060203d6020116113d8576113ca8183613123565b886127c5565b634934476760e01b5f5260045ffd5b90506020813d602011612f89575b81612f7260209383613123565b81010312612d2157612f83906139d4565b87612789565b3d9150612f65565b63039a1fd760e21b5f5260045ffd5b612fb9915060203d6020116111cc576111be8183613123565b8761274d565b63bfcdc45f60e01b5f5260045ffd5b612fe7915060203d602011612bee57612bdf8183613123565b86612710565b635b19e4bb60e01b5f5260045ffd5b613015915060203d6020116113d8576113ca8183613123565b866126e6565b630e7fea9d60e01b5f5260045ffd5b613043915060203d6020116113d8576113ca8183613123565b85612694565b600435906001600160a01b0382168203612d2157565b35906001600160a01b0382168203612d2157565b6004359065ffffffffffff82168203612d2157565b6024359065ffffffffffff82168203612d2157565b90602080835192838152019201905f5b8181106130ba5750505090565b82516001600160a01b03168452602093840193909201916001016130ad565b606081019081106001600160401b038211176130f457604052565b634e487b7160e01b5f52604160045260245ffd5b604081019081106001600160401b038211176130f457604052565b90601f801991011681019081106001600160401b038211176130f457604052565b6001600160401b0381116130f45760051b60200190565b90816020910312612d2157518015158103612d215790565b610184356001600160a01b0381168103612d215790565b610244356001600160a01b0381168103612d215790565b610264356001600160a01b0381168103612d215790565b356001600160a01b0381168103612d215790565b903590601e1981360301821215612d2157018035906001600160401b038211612d2157602001918160061b36038313612d2157565b91908110156132115760061b0190565b634e487b7160e01b5f52603260045260245ffd5b90816020910312612d2157516001600160a01b0381168103612d215790565b90816020910312612d21575190565b805180835260209291819084018484015e5f828201840152601f01601f1916010190565b9065ffffffffffff8091169116019065ffffffffffff821161329557565b634e487b7160e01b5f52601160045260245ffd5b80518210156132115760209160051b010190565b9190820180921161329557565b9181156134d7576132da83613873565b928151818111156134ce575f5f198201828111925b8083106133f557505050506001945f198201908282116132955761331382876132a9565b5183975b85518910156133e7578161332b8a8a6132a9565b5103613347576001810180911161329557600190980197613317565b9395975050909294505b60018211613362575b505050815290565b604051602081019165ffffffffffff60d01b9060d01b1682526006815261338a602682613123565b5190209080156133d35761339f9106836132bd565b5f198101908111613295576133ca906001600160a01b03906133c190866132a9565b511691846132a9565b525f808061335a565b634e487b7160e01b5f52601260045260245ffd5b939597505090929450613351565b9296958792959891945f935b613295578685035f1901868111613295578410156134bb5761342384896132a9565b51600185019485811161329557858c826001946134418f9a8f6132a9565b5111613452575b5050500193613401565b6134b2918d6134828361346587846132a9565b519261347182826132a9565b5161347c89836132a9565b526132a9565b52858060a01b0361349385836132a9565b51169361347c878060a01b036134a985856132a9565b511691836132a9565b525f8c82613448565b94919895600191979894935001916132ef565b50509150915090565b60405162461bcd60e51b815260206004820152602860248201527f4d61782076616c696461746f7273206d7573742062652067726561746572207460448201526768616e207a65726f60c01b6064820152608490fd5b61356b906020808095946040519684889551918291018487015e8401908282015f8152815193849201905e01015f815203601f198101845283613123565b565b9061357782613144565b6135846040519182613123565b8281528092613595601f1991613144565b01905f5b8281106135a557505050565b6020906040516135b481613108565b5f81525f8382015282828501015201613599565b9081526001600160a01b03909116602082015265ffffffffffff90911660408201526080606082018190526135ff92910190613253565b90565b5f5160206140125f395f51905f52546136358361362e6112716001600160a01b03861660128601613e5d565b5090613c41565b1561382d57601581019283549161364b8361356d565b945f9460055f93015493602092601f198401945b8781106136ba57505050505050505065ffffffffffff61367f911661356d565b905f5b81518110156136b55780613698600192846132a9565b516136a382866132a9565b526136ae81856132a9565b5001613682565b505090565b61362e6136eb846136cb8486613bf0565b93909365ffffffffffff81169165ffffffffffff8260301c169160601c90565b1561382457604051630ce9b79360e41b81526001600160a01b0391909116908681600481855afa908115612ebe575f91613807575b508685604051926137318385613123565b5f84528a3684860137888c61375c6040519687958694859463e02f693760e01b8652600486016135c8565b03916001600160a01b03165afa908115612ebe575f916137da575b508061378a575b50506001905b0161365f565b9965ffffffffffff91929a604051936137a285613108565b84528784015216906137b4828c6132a9565b526137bf818b6132a9565b5065ffffffffffff811461329557600180910198905f61377e565b90508681813d8311613800575b6137f18183613123565b81010312612d2157515f613777565b503d6137e7565b61381e9150873d89116111cc576111be8183613123565b5f613720565b50600190613784565b50505060405161383e602082613123565b5f81525f805b81811061385057505090565b60209060405161385f81613108565b5f81525f8382015282828601015201613844565b905f5160206140125f395f51905f525465ffffffffffff61389342613de9565b1665ffffffffffff841610156139c5576138ca815465ffffffffffff808260601c169160901c168082105f14610394575084613277565b65ffffffffffff806138db42613de9565b16911611156139c5576012018054926138f384613144565b916139016040519384613123565b848352601f1961391086613144565b0136602085013761392085613144565b9461392e6040519687613123565b808652601f1961393d82613144565b013660208801375f925f925b82841061395d575050505080825283529190565b9091929361362e613972846136cb8886613bf0565b156139bb578361399791613986848a6132a9565b6001600160a01b0382169052613c9a565b6139a1828a6132a9565b526001810180911161329557600190945b01929190613949565b50936001906139b2565b63686c69fd60e01b5f5260045ffd5b519065ffffffffffff82168203612d2157565b90613a138161362e61127160125f5160206140125f395f51905f52540160018060a01b03871690613e5d565b15613a21576135ff91613c9a565b50505f90565b6001600160a01b03168015613a85575f516020613ff25f395f51905f5280546001600160a01b0319811683179091556001600160a01b03167f8be0079c531659141344cd1fd0a4f28419497f9722a3daafe3b4186f6b6457e05f80a3565b631e4fbdf760e01b5f525f60045260245ffd5b90816020910312612d2157516001600160401b0381168103612d215790565b65ffffffffffff91613ad56112716001600160a01b03831684613e5d565b9194909416938415908115613b2f575b50613b2057613b1d9365ffffffffffff60301b613b0142613de9565b60301b161760609190911b6001600160601b0319161791613c1f565b50565b633f54562b60e11b5f5260045ffd5b65ffffffffffff91501615155f613ae5565b65ffffffffffff91613b5f6112716001600160a01b03831684613e5d565b9490911615159081613bac575b50613b9d57613b1d9265ffffffffffff613b8542613de9565b1660609190911b6001600160601b0319161791613c1f565b637952fbad60e11b5f5260045ffd5b65ffffffffffff915016155f613b6c565b5f516020613ff25f395f51905f52546001600160a01b03163303613bdd57565b63118cdaa760e01b5f523360045260245ffd5b9190613bfe60029184613eb4565b90549060031b1c92835f520160205260405f20549160018060a01b03169190565b6135ff929160018060a01b031691825f526002820160205260405f2055613fa4565b65ffffffffffff1680151592919083613c87575b5082613c6057505090565b65ffffffffffff1680159250908215613c7857505090565b65ffffffffffff161115905090565b65ffffffffffff8316101592505f613c55565b5f5160206140125f395f51905f52546015810180546005909201545f95948694602093869391905b868810613cd3575050505050505050565b909192939495969861362e613cec866136cb8d86613bf0565b15613ddf57604051630ce9b79360e41b8152908890829060049082906001600160a01b03165afa908115612ebe57613d5d9189915f91613dc2575b5060405190613d368383613123565b5f8252893684840137604051808095819463e02f693760e01b83528c8b8d600486016135c8565b03916001600160a01b03165afa908115612ebe575f91613d94575b50613d85906001926132bd565b995b0196959493929190613cc2565b90508781813d8311613dbb575b613dab8183613123565b81010312612d2157516001613d78565b503d613da1565b613dd99150823d84116111cc576111be8183613123565b5f613d27565b5098600190613d87565b65ffffffffffff8111613e015765ffffffffffff1690565b6306dfcc6560e41b5f52603060045260245260445ffd5b906135ff91815f52600281016020525f6040812055613ec9565b60ff5f5160206140325f395f51905f525460401c1615613e4e57565b631afcd79f60e31b5f5260045ffd5b90805f526002820160205260405f2054918183159182613e94575b5050613e82575090565b63015ab34360e11b5f5260045260245ffd5b613eac92506001915f520160205260405f2054151590565b15815f613e78565b8054821015613211575f5260205f2001905f90565b906001820191815f528260205260405f20548015155f14613f9c575f1981018181116132955782545f1981019190821161329557818103613f51575b50505080548015613f3d575f190190613f1e8282613eb4565b8154905f199060031b1b19169055555f526020525f6040812055600190565b634e487b7160e01b5f52603160045260245ffd5b613f87613f61613f719386613eb4565b90549060031b1c92839286613eb4565b819391549060031b91821b915f19901b19161790565b90555f528360205260405f20555f8080613f05565b505050505f90565b5f828152600182016020526040902054613a2157805490600160401b8210156130f45782613fdc613f71846001809601855584613eb4565b90558054925f520160205260405f205560019056fe9016d09d72d40fdae2fd8ceac6b6234c7706214fd39c1cd1e609a0528c1993000b8c56af6cc9ad401ad225bfe96df77f3049ba17eadac1cb95ee89df1e69d100f0c57e16840df040f15088dc2f81fe391c3923bec73e23a9662efc9c229c6a00f0c57e16840df040f15088dc2f81fe391c3923bec73e23a9662efc9c229c6a00","linkReferences":{}},"methodIdentifiers":{"allowedVaultImplVersion()":"c9b0b1e9","changeSlashExecutor(address)":"86c241a1","changeSlashRequester(address)":"6d1064eb","collateral()":"d8dfeb45","disableOperator()":"d99fcd66","disableVault(address)":"3ccce789","distributeOperatorRewards(address,uint256,bytes32)":"729e2f36","distributeStakerRewards(((address,uint256)[],uint256,address),uint48)":"7fbe95b5","enableOperator()":"3d15e74e","enableVault(address)":"936f4330","eraDuration()":"4455a38f","executeSlash((address,uint256)[])":"af962995","getActiveOperatorsStakeAt(uint48)":"b5e5ad12","getOperatorStakeAt(address,uint48)":"d99ddfc7","getOperatorStakeVaultsAt(address,uint48)":"87c99b41","initialize((address,uint48,uint48,uint48,uint48,uint48,uint64,uint64,uint256,address,uint256,address,address,address,address,address,(address,address,address,address,address,address)))":"c9ba52d3","makeElectionAt(uint48,uint256)":"6e5c7932","maxAdminFee()":"c639e2d6","maxResolverSetEpochsDelay()":"9e032311","minSlashExecutionDelay()":"373bba1f","minVaultEpochDuration()":"945cf2dd","minVetoDuration()":"461e7a8e","operatorGracePeriod()":"709d06ae","operatorRegistry()":"58c2225b","operatorRewards()":"2cd81009","owner()":"8da5cb5b","registerOperator()":"2acde098","registerVault(address,address)":"05c4fdf9","reinitialize()":"6c2eb350","renounceOwnership()":"715018a6","requestSlash((address,uint48,(address,uint256)[])[])":"0a71094c","roleSlashExecutor()":"e74f8bef","roleSlashRequester()":"dbb6eed2","router()":"f887ea40","subnetwork()":"ceebb69a","transferOwnership(address)":"f2fde38b","unregisterOperator(address)":"96115bc2","unregisterVault(address)":"2633b70f","vaultGracePeriod()":"79a8b245","vetoSlasherImplType()":"d55a5bdf"},"storageLayout":{"storage":[],"types":{}},"id":161}