{"abi":[{"type":"constructor","inputs":[],"stateMutability":"nonpayable"},{"type":"function","name":"allowedVaultImplVersion","inputs":[],"outputs":[{"name":"","type":"uint64","internalType":"uint64"}],"stateMutability":"view"},{"type":"function","name":"changeSlashExecutor","inputs":[{"name":"newRole","type":"address","internalType":"address"}],"outputs":[],"stateMutability":"nonpayable"},{"type":"function","name":"changeSlashRequester","inputs":[{"name":"newRole","type":"address","internalType":"address"}],"outputs":[],"stateMutability":"nonpayable"},{"type":"function","name":"collateral","inputs":[],"outputs":[{"name":"","type":"address","internalType":"address"}],"stateMutability":"view"},{"type":"function","name":"disableOperator","inputs":[],"outputs":[],"stateMutability":"nonpayable"},{"type":"function","name":"disableVault","inputs":[{"name":"vault","type":"address","internalType":"address"}],"outputs":[],"stateMutability":"nonpayable"},{"type":"function","name":"distributeOperatorRewards","inputs":[{"name":"token","type":"address","internalType":"address"},{"name":"amount","type":"uint256","internalType":"uint256"},{"name":"root","type":"bytes32","internalType":"bytes32"}],"outputs":[{"name":"","type":"bytes32","internalType":"bytes32"}],"stateMutability":"nonpayable"},{"type":"function","name":"distributeStakerRewards","inputs":[{"name":"_commitment","type":"tuple","internalType":"struct Gear.StakerRewardsCommitment","components":[{"name":"distribution","type":"tuple[]","internalType":"struct Gear.StakerRewards[]","components":[{"name":"vault","type":"address","internalType":"address"},{"name":"amount","type":"uint256","internalType":"uint256"}]},{"name":"totalAmount","type":"uint256","internalType":"uint256"},{"name":"token","type":"address","internalType":"address"}]},{"name":"timestamp","type":"uint48","internalType":"uint48"}],"outputs":[{"name":"","type":"bytes32","internalType":"bytes32"}],"stateMutability":"nonpayable"},{"type":"function","name":"enableOperator","inputs":[],"outputs":[],"stateMutability":"nonpayable"},{"type":"function","name":"enableVault","inputs":[{"name":"vault","type":"address","internalType":"address"}],"outputs":[],"stateMutability":"nonpayable"},{"type":"function","name":"eraDuration","inputs":[],"outputs":[{"name":"","type":"uint48","internalType":"uint48"}],"stateMutability":"view"},{"type":"function","name":"executeSlash","inputs":[{"name":"slashes","type":"tuple[]","internalType":"struct IMiddleware.SlashIdentifier[]","components":[{"name":"vault","type":"address","internalType":"address"},{"name":"index","type":"uint256","internalType":"uint256"}]}],"outputs":[],"stateMutability":"nonpayable"},{"type":"function","name":"getActiveOperatorsStakeAt","inputs":[{"name":"ts","type":"uint48","internalType":"uint48"}],"outputs":[{"name":"activeOperators","type":"address[]","internalType":"address[]"},{"name":"stakes","type":"uint256[]","internalType":"uint256[]"}],"stateMutability":"view"},{"type":"function","name":"getOperatorStakeAt","inputs":[{"name":"operator","type":"address","internalType":"address"},{"name":"ts","type":"uint48","internalType":"uint48"}],"outputs":[{"name":"stake","type":"uint256","internalType":"uint256"}],"stateMutability":"view"},{"type":"function","name":"initialize","inputs":[{"name":"_params","type":"tuple","internalType":"struct IMiddleware.InitParams","components":[{"name":"owner","type":"address","internalType":"address"},{"name":"eraDuration","type":"uint48","internalType":"uint48"},{"name":"minVaultEpochDuration","type":"uint48","internalType":"uint48"},{"name":"operatorGracePeriod","type":"uint48","internalType":"uint48"},{"name":"vaultGracePeriod","type":"uint48","internalType":"uint48"},{"name":"minVetoDuration","type":"uint48","internalType":"uint48"},{"name":"minSlashExecutionDelay","type":"uint48","internalType":"uint48"},{"name":"allowedVaultImplVersion","type":"uint64","internalType":"uint64"},{"name":"vetoSlasherImplType","type":"uint64","internalType":"uint64"},{"name":"maxResolverSetEpochsDelay","type":"uint256","internalType":"uint256"},{"name":"maxAdminFee","type":"uint256","internalType":"uint256"},{"name":"collateral","type":"address","internalType":"address"},{"name":"router","type":"address","internalType":"address"},{"name":"symbiotic","type":"tuple","internalType":"struct Gear.SymbioticContracts","components":[{"name":"vaultRegistry","type":"address","internalType":"address"},{"name":"operatorRegistry","type":"address","internalType":"address"},{"name":"networkRegistry","type":"address","internalType":"address"},{"name":"middlewareService","type":"address","internalType":"address"},{"name":"networkOptIn","type":"address","internalType":"address"},{"name":"stakerRewardsFactory","type":"address","internalType":"address"},{"name":"operatorRewards","type":"address","internalType":"address"},{"name":"roleSlashRequester","type":"address","internalType":"address"},{"name":"roleSlashExecutor","type":"address","internalType":"address"},{"name":"vetoResolver","type":"address","internalType":"address"}]}]}],"outputs":[],"stateMutability":"nonpayable"},{"type":"function","name":"makeElectionAt","inputs":[{"name":"ts","type":"uint48","internalType":"uint48"},{"name":"maxValidators","type":"uint256","internalType":"uint256"}],"outputs":[{"name":"","type":"address[]","internalType":"address[]"}],"stateMutability":"view"},{"type":"function","name":"maxAdminFee","inputs":[],"outputs":[{"name":"","type":"uint256","internalType":"uint256"}],"stateMutability":"view"},{"type":"function","name":"maxResolverSetEpochsDelay","inputs":[],"outputs":[{"name":"","type":"uint256","internalType":"uint256"}],"stateMutability":"view"},{"type":"function","name":"minSlashExecutionDelay","inputs":[],"outputs":[{"name":"","type":"uint48","internalType":"uint48"}],"stateMutability":"view"},{"type":"function","name":"minVaultEpochDuration","inputs":[],"outputs":[{"name":"","type":"uint48","internalType":"uint48"}],"stateMutability":"view"},{"type":"function","name":"minVetoDuration","inputs":[],"outputs":[{"name":"","type":"uint48","internalType":"uint48"}],"stateMutability":"view"},{"type":"function","name":"operatorGracePeriod","inputs":[],"outputs":[{"name":"","type":"uint48","internalType":"uint48"}],"stateMutability":"view"},{"type":"function","name":"owner","inputs":[],"outputs":[{"name":"","type":"address","internalType":"address"}],"stateMutability":"view"},{"type":"function","name":"registerOperator","inputs":[],"outputs":[],"stateMutability":"nonpayable"},{"type":"function","name":"registerVault","inputs":[{"name":"_vault","type":"address","internalType":"address"},{"name":"_rewards","type":"address","internalType":"address"}],"outputs":[],"stateMutability":"nonpayable"},{"type":"function","name":"reinitialize","inputs":[],"outputs":[],"stateMutability":"nonpayable"},{"type":"function","name":"renounceOwnership","inputs":[],"outputs":[],"stateMutability":"nonpayable"},{"type":"function","name":"requestSlash","inputs":[{"name":"data","type":"tuple[]","internalType":"struct IMiddleware.SlashData[]","components":[{"name":"operator","type":"address","internalType":"address"},{"name":"ts","type":"uint48","internalType":"uint48"},{"name":"vaults","type":"tuple[]","internalType":"struct IMiddleware.VaultSlashData[]","components":[{"name":"vault","type":"address","internalType":"address"},{"name":"amount","type":"uint256","internalType":"uint256"}]}]}],"outputs":[],"stateMutability":"nonpayable"},{"type":"function","name":"router","inputs":[],"outputs":[{"name":"","type":"address","internalType":"address"}],"stateMutability":"view"},{"type":"function","name":"subnetwork","inputs":[],"outputs":[{"name":"","type":"bytes32","internalType":"bytes32"}],"stateMutability":"view"},{"type":"function","name":"symbioticContracts","inputs":[],"outputs":[{"name":"","type":"tuple","internalType":"struct Gear.SymbioticContracts","components":[{"name":"vaultRegistry","type":"address","internalType":"address"},{"name":"operatorRegistry","type":"address","internalType":"address"},{"name":"networkRegistry","type":"address","internalType":"address"},{"name":"middlewareService","type":"address","internalType":"address"},{"name":"networkOptIn","type":"address","internalType":"address"},{"name":"stakerRewardsFactory","type":"address","internalType":"address"},{"name":"operatorRewards","type":"address","internalType":"address"},{"name":"roleSlashRequester","type":"address","internalType":"address"},{"name":"roleSlashExecutor","type":"address","internalType":"address"},{"name":"vetoResolver","type":"address","internalType":"address"}]}],"stateMutability":"view"},{"type":"function","name":"transferOwnership","inputs":[{"name":"newOwner","type":"address","internalType":"address"}],"outputs":[],"stateMutability":"nonpayable"},{"type":"function","name":"unregisterOperator","inputs":[{"name":"operator","type":"address","internalType":"address"}],"outputs":[],"stateMutability":"nonpayable"},{"type":"function","name":"unregisterVault","inputs":[{"name":"vault","type":"address","internalType":"address"}],"outputs":[],"stateMutability":"nonpayable"},{"type":"function","name":"vaultGracePeriod","inputs":[],"outputs":[{"name":"","type":"uint48","internalType":"uint48"}],"stateMutability":"view"},{"type":"function","name":"vetoSlasherImplType","inputs":[],"outputs":[{"name":"","type":"uint64","internalType":"uint64"}],"stateMutability":"view"},{"type":"event","name":"Initialized","inputs":[{"name":"version","type":"uint64","indexed":false,"internalType":"uint64"}],"anonymous":false},{"type":"event","name":"OwnershipTransferred","inputs":[{"name":"previousOwner","type":"address","indexed":true,"internalType":"address"},{"name":"newOwner","type":"address","indexed":true,"internalType":"address"}],"anonymous":false},{"type":"error","name":"AlreadyAdded","inputs":[]},{"type":"error","name":"AlreadyEnabled","inputs":[]},{"type":"error","name":"BurnerHookNotSupported","inputs":[]},{"type":"error","name":"DelegatorNotInitialized","inputs":[]},{"type":"error","name":"EnumerableMapNonexistentKey","inputs":[{"name":"key","type":"bytes32","internalType":"bytes32"}]},{"type":"error","name":"IncompatibleSlasherType","inputs":[]},{"type":"error","name":"IncompatibleStakerRewardsVersion","inputs":[]},{"type":"error","name":"IncompatibleVaultVersion","inputs":[]},{"type":"error","name":"IncorrectTimestamp","inputs":[]},{"type":"error","name":"InvalidInitialization","inputs":[]},{"type":"error","name":"InvalidStakerRewardsVault","inputs":[]},{"type":"error","name":"NonFactoryStakerRewards","inputs":[]},{"type":"error","name":"NonFactoryVault","inputs":[]},{"type":"error","name":"NotEnabled","inputs":[]},{"type":"error","name":"NotInitializing","inputs":[]},{"type":"error","name":"NotRegisteredOperator","inputs":[]},{"type":"error","name":"NotRegisteredVault","inputs":[]},{"type":"error","name":"NotRouter","inputs":[]},{"type":"error","name":"NotSlashExecutor","inputs":[]},{"type":"error","name":"NotSlashRequester","inputs":[]},{"type":"error","name":"NotVaultOwner","inputs":[]},{"type":"error","name":"OperatorDoesNotExist","inputs":[]},{"type":"error","name":"OperatorDoesNotOptIn","inputs":[]},{"type":"error","name":"OperatorGracePeriodNotPassed","inputs":[]},{"type":"error","name":"OwnableInvalidOwner","inputs":[{"name":"owner","type":"address","internalType":"address"}]},{"type":"error","name":"OwnableUnauthorizedAccount","inputs":[{"name":"account","type":"address","internalType":"address"}]},{"type":"error","name":"ReentrancyGuardReentrantCall","inputs":[]},{"type":"error","name":"ResolverMismatch","inputs":[]},{"type":"error","name":"ResolverSetDelayTooLong","inputs":[]},{"type":"error","name":"SafeCastOverflowedUintDowncast","inputs":[{"name":"bits","type":"uint8","internalType":"uint8"},{"name":"value","type":"uint256","internalType":"uint256"}]},{"type":"error","name":"SlasherNotInitialized","inputs":[]},{"type":"error","name":"UnknownCollateral","inputs":[]},{"type":"error","name":"UnsupportedBurner","inputs":[]},{"type":"error","name":"UnsupportedDelegatorHook","inputs":[]},{"type":"error","name":"VaultGracePeriodNotPassed","inputs":[]},{"type":"error","name":"VaultWrongEpochDuration","inputs":[]},{"type":"error","name":"VetoDurationTooLong","inputs":[]},{"type":"error","name":"VetoDurationTooShort","inputs":[]}],"bytecode":{"object":"0x6080806040523460aa575f516020613c925f395f51905f525460ff8160401c16609b576002600160401b03196001600160401b038216016049575b604051613be390816100af8239f35b6001600160401b0319166001600160401b039081175f516020613c925f395f51905f525581527fc7f505b2f371ae2175ee4913f4499e1f2633a7b5936321eed1cdaeb6115181d290602090a15f80603a565b63f92ee8a960e01b5f5260045ffd5b5f80fdfe60806040526004361015610011575f80fd5b5f5f3560e01c806305c4fdf9146124855780630a71094c146121dd5780632633b70f146121295780632acde09814611fd1578063373bba1f14611f9b5780633ccce78914611f5e5780633d15e74e14611f315780634455a38f14611efe578063461e7a8e14611ec85780636c2eb35014611a6f5780636d1064eb14611a025780636e5c7932146119c1578063709d06ae1461198b578063715018a614611922578063729e2f361461180457806379a8b245146117ce5780637fbe95b51461140b57806386c241a1146113ad5780638da5cb5b14611378578063936f43301461133b578063945cf2dd1461130557806396115bc2146112395780639e0323111461120b578063ab122753146107db578063af962995146105c8578063b5e5ad121461054f578063bcf339341461037f578063c639e2d614610351578063c9b0b1e91461031a578063ceebb69a146102ec578063d55a5bdf146102b2578063d8dfeb4514610279578063d99ddfc71461023b578063d99fcd661461020e578063f2fde38b146101e15763f887ea40146101a6575f80fd5b346101de57806003193601126101de575f516020613ba35f395f51905f5254600701546040516001600160a01b039091168152602090f35b80fd5b50346101de5760203660031901126101de5761020b6101fe612e1b565b610206613699565b613472565b80f35b50346101de57806003193601126101de5761020b60125f516020613ba35f395f51905f5254013390613593565b50346101de5760403660031901126101de57602061027161025a612e1b565b610262612e5a565b9061026c8261371d565b61342f565b604051908152f35b50346101de57806003193601126101de575f516020613ba35f395f51905f5254600601546040516001600160a01b039091168152602090f35b50346101de57806003193601126101de5760206001600160401b0360035f516020613ba35f395f51905f5254015460401c16604051908152f35b50346101de57806003193601126101de57602060045f516020613ba35f395f51905f52540154604051908152f35b50346101de57806003193601126101de5760206001600160401b0360035f516020613ba35f395f51905f5254015416604051908152f35b50346101de57806003193601126101de57602060055f516020613ba35f395f51905f52540154604051908152f35b50346101de57806003193601126101de5761012060405161039f81612eab565b8281528260208201528260408201528260608201528260808201528260a08201528260c08201528260e08201528261010082015201526101405f516020613ba35f395f51905f52546040516103f381612eab565b60018060a01b036008830154169182825260018060a01b036009820154166020830190815260018060a01b03600a830154166040840190815260018060a01b03600b840154166060850190815260018060a01b03600c850154166080860190815260018060a01b03600d860154169160a0870192835260018060a01b03600e870154169360c0880194855260018060a01b03600f880154169560e0890196875261012060018060a01b0360108a015416986101008b01998a52601160018060a01b03910154169901988952604051998a5260018060a01b0390511660208a015260018060a01b03905116604089015260018060a01b03905116606088015260018060a01b03905116608087015260018060a01b0390511660a086015260018060a01b0390511660c085015260018060a01b0390511660e084015260018060a01b0390511661010083015260018060a01b03905116610120820152f35b50346101de5760203660031901126101de5761058b90610575610570612e45565b61330e565b9091604051938493604085526040850190612e6f565b8381036020850152602080845192838152019301915b8181106105af575050500390f35b82518452859450602093840193909201916001016105a1565b50346101de5760203660031901126101de576004356001600160401b0381116107d757366023820112156107d75780600401356001600160401b0381116107d3576024820191602436918360061b0101116107d3575f516020613ba35f395f51905f5254601001546001600160a01b031633036107c4576020905f90845b818110610651578580f35b61065c818387612f8a565b5f516020613ba35f395f51905f525490919061069b906015016001600160a01b0361068685612f41565b16906001915f520160205260405f2054151590565b156107b5576004856001600160a01b036106b485612f41565b166040519283809263b134427160e01b82525afa9283156107aa576107229387928a9161077d575b50828a604051936106ed8386612edb565b81855289368487013760405197889586948593635ca61c3760e11b855201356004840152604060248401526044830190612fdc565b03926001600160a01b03165af191821561077257600192610745575b5001610646565b61076490863d881161076b575b61075c8183612edb565b810190612fcd565b505f61073e565b503d610752565b6040513d89823e3d90fd5b61079d9150833d85116107a3575b6107958183612edb565b810190612fae565b5f6106dc565b503d61078b565b6040513d8a823e3d90fd5b633b2fc1c360e21b8752600487fd5b632249f71f60e21b8352600483fd5b8280fd5b5080fd5b50346101de576102e03660031901126101de575f516020613bc35f395f51905f52546001600160401b0360ff8260401c1615911680159081611203575b60011490816111f9575b1590816111f0575b506111e1578060016001600160401b03195f516020613bc35f395f51905f525416175f516020613bc35f395f51905f52556111b1575b6004356001600160a01b03811681036107d3576108879061087f6139c3565b6102066139c3565b61088f6139c3565b604090815161089e8382612edb565b601f815260208101907f6d6964646c65776172652e73746f726167652e4d6964646c657761726556310082526108d2613699565b5190205f19810190811161119d5782519060208201908152602082526108f88483612edb565b60ff199151902016805f516020613ba35f395f51905f525560243565ffffffffffff8116810361119957815465ffffffffffff191665ffffffffffff91821617825560443590811681036111995781546bffffffffffff000000000000191660309190911b65ffffffffffff60301b1617815560643565ffffffffffff8116810361119957815465ffffffffffff60601b191660609190911b65ffffffffffff60601b1617815560843565ffffffffffff8116810361119957815465ffffffffffff60901b191660909190911b65ffffffffffff60901b1617815560a43565ffffffffffff8116810361119957815465ffffffffffff60c01b191660c09190911b65ffffffffffff60c01b1617815560c43565ffffffffffff811681036111995765ffffffffffff60018301911665ffffffffffff19825416178155600282019161012435835560e4356001600160401b0381168103611191576001600160401b036003830191166001600160401b0319825416178155610104356001600160401b03811681036111955781546fffffffffffffffff0000000000000000191660409190911b67ffffffffffffffff60401b16179055610164356001600160a01b0381168103611191576006820180546001600160a01b0319166001600160a01b039283161790553060601b6004830155610144356005830155610184359081168103611191576007820180546001600160a01b0319166001600160a01b039283161790556101a4359081168103611191576008820180546001600160a01b0319166001600160a01b039283161790556101c4359081168103611191576009820180546001600160a01b0319166001600160a01b03909216919091179055610b7e612f13565b600a820180546001600160a01b0319166001600160a01b03909216919091179055610ba7612f2a565b600b820180546001600160a01b0319166001600160a01b0392831617905561022435908116810361119157600c820180546001600160a01b0319166001600160a01b0392831617905561024435908116810361119157600d820180546001600160a01b0319166001600160a01b0392831617905561026435908116810361119157600e820180546001600160a01b0319166001600160a01b0392831617905561028435908116810361119157600f820180546001600160a01b0319166001600160a01b039283161790556102a4359081168103611191576010820180546001600160a01b0319166001600160a01b039283161790556102c4359081168103611191576011820180546001600160a01b0319166001600160a01b039283161790558690610cd1612f13565b16803b156107d75781809160048951809481936387140b5b60e01b83525af180156111725761117c575b506001600160a01b03610d0c612f2a565b16803b156107d757818091602489518094819363b7d8e1a960e01b83523060048401525af1801561117257611159575b5050549065ffffffffffff8216156111155765ffffffffffff8260301c16918060011b6601fffffffffffe65fffffffffffe8216911681036111015783106110a0578265ffffffffffff8260601c161061102a578265ffffffffffff8260901c1610610fc05760c01c65ffffffffffff16908115610f7c575465ffffffffffff16908115610f275765ffffffffffff91610dd591613000565b1611610e97576003905410610e3e57610dec575080f35b60207fc7f505b2f371ae2175ee4913f4499e1f2633a7b5936321eed1cdaeb6115181d29160ff60401b195f516020613bc35f395f51905f5254165f516020613bc35f395f51905f52555160018152a180f35b815162461bcd60e51b815260206004820152602c60248201527f5265736f6c766572207365742065706f6368732064656c6179206d757374206260448201526b65206174206c65617374203360a01b6064820152608490fd5b825162461bcd60e51b815260206004820152605f60248201527f5665746f206475726174696f6e20616e6420736c61736820657865637574696f60448201527f6e2064656c6179206d757374206265206c657373207468616e206f722065717560648201527f616c20746f206d696e207661756c74732065706f6368206475726174696f6e00608482015260a490fd5b855162461bcd60e51b815260206004820152602860248201527f4d696e20736c61736820657865637574696f6e2064656c61792063616e6e6f74604482015267206265207a65726f60c01b6064820152608490fd5b855162461bcd60e51b815260206004820152601c60248201527f5665746f206475726174696f6e2063616e6e6f74206265207a65726f000000006044820152606490fd5b855162461bcd60e51b815260206004820152602481018790527f5661756c7420677261636520706572696f64206d75737420626520626967676560448201527f72207468616e206d696e207661756c74732065706f6368206475726174696f6e6064820152608490fd5b855162461bcd60e51b815260206004820152604360248201527f4f70657261746f7220677261636520706572696f64206d75737420626520626960448201527f67676572207468616e206d696e207661756c74732065706f636820647572617460648201526234b7b760e91b608482015260a490fd5b855162461bcd60e51b815260206004820152603460248201527f4d696e207661756c74732065706f6368206475726174696f6e206d75737420626044820152736520626967676572207468616e2032206572617360601b6064820152608490fd5b634e487b7160e01b88526011600452602488fd5b845162461bcd60e51b815260206004820152601b60248201527f457261206475726174696f6e2063616e6e6f74206265207a65726f00000000006044820152606490fd5b8161116391612edb565b61116e57855f610d3c565b8580fd5b87513d84823e3d90fd5b8161118691612edb565b61116e57855f610cfb565b8680fd5b8780fd5b8480fd5b634e487b7160e01b84526011600452602484fd5b600160401b60ff60401b195f516020613bc35f395f51905f525416175f516020613bc35f395f51905f5255610860565b63f92ee8a960e01b8252600482fd5b9050155f61082a565b303b159150610822565b829150610818565b50346101de57806003193601126101de57602060025f516020613ba35f395f51905f52540154604051908152f35b50346101de5760203660031901126101de57611253612e1b565b5f516020613ba35f395f51905f52546001600160a01b0390911690601281019061129d61128084846139ee565b65ffffffffffff81169165ffffffffffff8260301c169160601c90565b5065ffffffffffff81161592915082156112d5575b50506112c657906112c2916139a9565b5080f35b63f1c9810160e01b8352600483fd5b65ffffffffffff9192506112fa8291826112ee4261397a565b955460601c1690613000565b169116105f806112b2565b50346101de57806003193601126101de57602065ffffffffffff5f516020613ba35f395f51905f52545460301c16604051908152f35b50346101de5760203660031901126101de5761020b611358612e1b565b611361816134e3565b60155f516020613ba35f395f51905f52540161361d565b50346101de57806003193601126101de575f516020613b835f395f51905f52546040516001600160a01b039091168152602090f35b50346101de5760203660031901126101de576113c7612e1b565b5f516020613ba35f395f51905f525460100180549091906001600160a01b031633036107c45781546001600160a01b0319166001600160a01b039190911617905580f35b50346101de5760403660031901126101de576004356001600160401b0381116107d757606060031982360301126107d757604051606081018181106001600160401b038211176117ba5760405281600401356001600160401b0381116117b6578201366023820112156117b657600481013561148681612efc565b916114946040519384612edb565b818352602060048185019360061b830101019036821161119157602401915b8183106117585750505081526114d6604460208301936024810135855201612e31565b90604081019182526114e6612e5a565b935f516020613ba35f395f51905f525490600782019460018060a01b03865416330361174957845160068401546001600160a01b0391821691160361173a57819594939550606093829565ffffffffffff60056015870196019916926020965b895180518a10156116f3578961155b9161304a565b5180516001600160a01b03165f908152600189016020526040902054156107b557908b91866116148b6116068b6115f46115a38f6112809060018060a01b038a5116906139ee565b9a546040516001600160a01b03909c169b925090506115c28683612edb565b838252604051936115d38786612edb565b845260405197889687015260408601526080606086015260a0850190612fdc565b838103601f1901608085015290612fdc565b03601f198101835282612edb565b85548751838d0180519096909290916001600160a01b039081169116823b156116ef57908c809493926116746040519788968795869463239723ed60e01b8652600486015260248501526044840152608060648401526084830190612fdc565b03925af180156116e4579089916116cf575b5050916116c791600193519151604051926bffffffffffffffffffffffff199060601b168c8401526034830152603482526116c2605483612edb565b6132ce565b980197611546565b816116d991612edb565b61119557875f611686565b6040513d8b823e3d90fd5b8c80fd5b8861172c86848651915160405192858401526bffffffffffffffffffffffff199060601b166040830152603482526116c2605483612edb565b818151910120604051908152f35b63039a1fd760e21b8252600482fd5b639165520160e01b8252600482fd5b60408336031261119157604051604081018181106001600160401b038211176117a25791602091604093845261178d86612e31565b815282860135838201528152019201916114b3565b634e487b7160e01b89526041600452602489fd5b8380fd5b634e487b7160e01b84526041600452602484fd5b50346101de57806003193601126101de57602065ffffffffffff5f516020613ba35f395f51905f52545460901c16604051908152f35b50346101de5760603660031901126101de5761181e612e1b565b5f516020613ba35f395f51905f5254600781015460243592604435926001600160a01b0390921691338390036119135760068101546001600160a01b039283169216820361190457600e01546001600160a01b031691859190833b156107d3576084908360405195869485936348a78da760e01b8552600485015260248401528860448401528760648401525af180156118f9576118e4575b60208383604051908382019283526040820152604081526118d9606082612edb565b519020604051908152f35b6118ef848092612edb565b6107d357826118b7565b6040513d86823e3d90fd5b63039a1fd760e21b8652600486fd5b639165520160e01b8652600486fd5b50346101de57806003193601126101de5761193b613699565b5f516020613b835f395f51905f5280546001600160a01b0319811690915581906001600160a01b03167f8be0079c531659141344cd1fd0a4f28419497f9722a3daafe3b4186f6b6457e08280a380f35b50346101de57806003193601126101de57602065ffffffffffff5f516020613ba35f395f51905f52545460601c16604051908152f35b50346101de5760403660031901126101de576119fe6119ea6119e1612e45565b6024359061306b565b604051918291602083526020830190612e6f565b0390f35b50346101de5760203660031901126101de57611a1c612e1b565b5f516020613ba35f395f51905f5254600f0180549091906001600160a01b03163303611a605781546001600160a01b0319166001600160a01b039190911617905580f35b633fdc220360e01b8352600483fd5b50346101de57806003193601126101de57611a88613699565b5f516020613bc35f395f51905f525460ff8160401c16908115611eb3575b50611ea4575f516020613bc35f395f51905f52805468ffffffffffffffffff1916680100000000000000021790555f516020613b835f395f51905f5254611af8906001600160a01b031661087f6139c3565b5f516020613ba35f395f51905f525460408051611b158282612edb565b601f815260208101907f6d6964646c65776172652e73746f726167652e4d6964646c65776172655632008252611b49613699565b5190205f19810190811161119d578151906020820190815260208252611b6f8383612edb565b9051902060ff19165f516020613ba35f395f51905f528190558254815465ffffffffffff90911665ffffffffffff19821681178355845465ffffffffffff60301b166001600160601b031990921617178155908254825465ffffffffffff60601b191665ffffffffffff60601b9091161782558254825465ffffffffffff60901b191665ffffffffffff60901b9091161782558254825465ffffffffffff60c01b191665ffffffffffff60c01b90911617825565ffffffffffff60018401541665ffffffffffff60018401911665ffffffffffff1982541617905560028301546002830155611ca2600384016001600160401b03808254169181600387019316821984541617835554841c1667ffffffffffffffff60401b82549160401b169067ffffffffffffffff60401b1916179055565b60068381015490830180546001600160a01b039283166001600160a01b031991821617909155600480860154908501556005808601549085015560078086015490850180549190931691161790556008808301908401848403611dbc575b50508392601281019260128101955b8454811015611d365780611d2f611d28600193886136cc565b908a6136fb565b5001611d0f565b50601590810192910184805b8254811015611d695780611d62611d5b600193866136cc565b90886136fb565b5001611d42565b507fc7f505b2f371ae2175ee4913f4499e1f2633a7b5936321eed1cdaeb6115181d260208460ff60401b195f516020613bc35f395f51905f5254165f516020613bc35f395f51905f52555160028152a180f35b5481546001600160a01b03199081166001600160a01b039283161790925560098581015490850180548416918316919091179055600a8086015490850180548416918316919091179055600b8086015490850180548416918316919091179055600c8086015490850180548416918316919091179055600d8086015490850180548416918316919091179055600e8086015490850180548416918316919091179055600f808601549085018054841691831691909117905560108086015490850180548416918316919091179055601180860154908501805490931691161790555f80611d00565b63f92ee8a960e01b8152600490fd5b600291506001600160401b031610155f611aa6565b50346101de57806003193601126101de57602065ffffffffffff5f516020613ba35f395f51905f52545460c01c16604051908152f35b50346101de57806003193601126101de57602065ffffffffffff5f516020613ba35f395f51905f52545416604051908152f35b50346101de57806003193601126101de5761020b60125f516020613ba35f395f51905f525401339061361d565b50346101de5760203660031901126101de5761020b611f7b612e1b565b611f84816134e3565b60155f516020613ba35f395f51905f525401613593565b50346101de57806003193601126101de57602065ffffffffffff60015f516020613ba35f395f51905f5254015416604051908152f35b50346101de57806003193601126101de575f516020613ba35f395f51905f525460098101546040516302910f8b60e31b815233600482015290602090829060249082906001600160a01b03165afa9081156120f057839161210a575b50156120fb57600c8101546040516308834cb560e21b815233600482015230602482015290602090829060449082906001600160a01b03165afa9081156120f05783916120c1575b50156120b25761209b9065ffffffffffff61208f4261397a565b169060123391016136fb565b156120a35780f35b63f411c32760e01b8152600490fd5b6396cc2bc360e01b8252600482fd5b6120e3915060203d6020116120e9575b6120db8183612edb565b810190613032565b5f612075565b503d6120d1565b6040513d85823e3d90fd5b6325878fa360e21b8252600482fd5b612123915060203d6020116120e9576120db8183612edb565b5f61202d565b50346101de5760203660031901126101de57612143612e1b565b61214c816134e3565b5f516020613ba35f395f51905f52546001600160a01b0390911690601581019061217961128084846139ee565b5065ffffffffffff81161592915082156121ad575b505061219e57906112c2916139a9565b6347a11ef760e11b8352600483fd5b65ffffffffffff9192506121d28291826121c64261397a565b955460901c1690613000565b169116105f8061218e565b50346101de5760203660031901126101de576001600160401b03600435116101de573660236004350112156101de576001600160401b0360043560040135116101de573660246004356004013560051b6004350101116101de575f516020613ba35f395f51905f5254600f8101546001600160a01b031633036124765781906020905b600435600401358310156124725760248360051b6004350101356082196004353603018112156111995760043501906122bc6001600160a01b036122a660248501612f41565b165f908152601383016020526040902054151590565b1561246357845b6122d36064840160248501612f55565b9050811015612456576122f6816122f06064860160248701612f55565b90612f8a565b6123206001600160a01b0361230a83612f41565b165f908152601685016020526040902054151590565b156107b557869190600490866001600160a01b0361233d83612f41565b166040519384809263b134427160e01b82525afa9182156118f9578492612437575b5060048501549161237260248801612f41565b604488013565ffffffffffff8116900361116e57889586946123f760405161239a8882612edb565b838152601f1988013689830137604051998a978896879563545ce38960e01b8752600487015260018060a01b031660248601520135604484015265ffffffffffff60448d013516606484015260a0608484015260a4830190612fdc565b03926001600160a01b03165af19182156107725760019261241a575b50016122c3565b61243090863d881161076b5761075c8183612edb565b505f612413565b61244f919250873d89116107a3576107958183612edb565b905f61235f565b5092600191500191612260565b6303fa1eaf60e41b8552600485fd5b8380f35b633fdc220360e01b8252600482fd5b5034612b47576040366003190112612b475761249f612e1b565b6024356001600160a01b038116929190839003612b47576124bf816134e3565b5f516020613ba35f395f51905f525460088101546040516302910f8b60e31b81526001600160a01b038085166004830181905294939260209183916024918391165afa908115612cd9575f91612dfc575b5015612ded5760405163054fd4d560e41b8152602081600481875afa908115612cd9575f91612dce575b5060038201906001600160401b0380835416911603612dbf5760405163d8dfeb4560e01b8152602081600481885afa908115612cd9575f91612da0575b5060068301546001600160a01b03908116911603612d91576040516327f843b560e11b8152602081600481885afa908115612cd9575f91612d72575b5065ffffffffffff80845460301c169116908110612d635760405163142186b760e21b8152602081600481895afa908115612cd9575f91612d44575b5015612d3557604051630ce9b79360e41b8152602081600481895afa908115612cd9575f91612d16575b50600484810180546040516368adba0760e11b81529283015292916001600160a01b031690602081602481855afa908115612cd9575f91612ce4575b5019612c87575b602060049160405192838092637f5a7c7b60e01b82525afa9081156107aa578891612c68575b506001600160a01b0316612c5657604051630dd83c7f60e31b81526020816004818a5afa9081156107aa578891612c37575b5015612c285760405163b134427160e01b81526020816004818a5afa9081156107aa578891612c09575b50604051635d927f4560e11b81526001600160a01b039190911693602082600481885afa9182156116e4578992612bdd575b506001600160401b0380915460401c16911603612bce57604051631a684c7560e11b8152602081600481875afa9081156107aa578891612baf575b50612ba05760405163e054e08b60e01b8152602081600481875afa9081156107aa578891612b71575b5065ffffffffffff855460c01c1665ffffffffffff821610612b62576127a865ffffffffffff918260018801541690613000565b1611612b535760405163bc6eac5b60e01b8152602081600481865afa908115610772578791612b1d575b50600284015410612b0e57549060209261282a846040516127f38282612edb565b898152601f19820195863684840137604051938492839263cd05b8a160e01b84526004840152604060248401526044830190612fdc565b0381865afa9081156107aa578891612af1575b506001600160a01b031680612aca575060110154604051926001600160a01b039091169061286b8585612edb565b8784523685850137813b15611191579186916128b193836040518096819582946348b47ce960e11b84528460048501526024840152606060448401526064830190612fdc565b03925af18015612a1b57908591612ab5575b50505b6040516313c085b760e11b81528181600481875afa908115612a1b578591612a98575b506001600160a01b031615612a89575f516020613ba35f395f51905f52549260248260018060a01b03600d87015416604051928380926302910f8b60e31b82528b60048301525afa908115612a52578691612a6c575b5015612a5d5760405163411557d160e01b815282816004818a5afa908115612a52578691612a35575b506001600160a01b031603612a265760405163054fd4d560e41b81528181600481895afa918215612a1b57916001600160401b039160029387926129ee575b505016036129df57601561209b939465ffffffffffff6129c64261397a565b1660609190911b6001600160601b0319161792016136fb565b63ded51c0b60e01b8352600483fd5b612a0d9250803d10612a14575b612a058183612edb565b810190613556565b5f806129a7565b503d6129fb565b6040513d87823e3d90fd5b630a724f6160e01b8452600484fd5b612a4c9150833d85116107a3576107958183612edb565b5f612968565b6040513d88823e3d90fd5b6346e01c4360e11b8552600485fd5b612a839150833d85116120e9576120db8183612edb565b5f61293f565b630c6b5ff760e31b8452600484fd5b612aaf9150823d84116107a3576107958183612edb565b5f6128e9565b81612abf91612edb565b6117b657835f6128c3565b6011909101546001600160a01b03161491506128c6905057633cc6586560e21b8452600484fd5b612b089150853d87116107a3576107958183612edb565b5f61283d565b633a2662c360e11b8652600486fd5b90506020813d602011612b4b575b81612b3860209383612edb565b81010312612b4757515f6127d2565b5f80fd5b3d9150612b2b565b6307cfe49360e51b8652600486fd5b633062eb1960e21b8852600488fd5b612b93915060203d602011612b99575b612b8b8183612edb565b810190613575565b5f612774565b503d612b81565b63447984b360e11b8752600487fd5b612bc8915060203d6020116120e9576120db8183612edb565b5f61274b565b63f8c618c760e01b8752600487fd5b6001600160401b03919250612c01829160203d602011612a1457612a058183612edb565b929150612710565b612c22915060203d6020116107a3576107958183612edb565b5f6126de565b631501f36360e21b8752600487fd5b612c50915060203d6020116120e9576120db8183612edb565b5f6126b4565b60016221bb1360e11b03198752600487fd5b612c81915060203d6020116107a3576107958183612edb565b5f612682565b803b15612b47576040516323f752d560e01b81525f600482018190525f1960248301528160448183865af18015612cd957612cc3575b5061265c565b612cd09198505f90612edb565b5f966020612cbd565b6040513d5f823e3d90fd5b90506020813d602011612d0e575b81612cff60209383612edb565b81010312612b4757515f612655565b3d9150612cf2565b612d2f915060203d6020116107a3576107958183612edb565b5f612619565b636e549c1760e11b5f5260045ffd5b612d5d915060203d6020116120e9576120db8183612edb565b5f6125ef565b634934476760e01b5f5260045ffd5b612d8b915060203d602011612b9957612b8b8183612edb565b5f6125b3565b63039a1fd760e21b5f5260045ffd5b612db9915060203d6020116107a3576107958183612edb565b5f612577565b63bfcdc45f60e01b5f5260045ffd5b612de7915060203d602011612a1457612a058183612edb565b5f61253a565b635b19e4bb60e01b5f5260045ffd5b612e15915060203d6020116120e9576120db8183612edb565b5f612510565b600435906001600160a01b0382168203612b4757565b35906001600160a01b0382168203612b4757565b6004359065ffffffffffff82168203612b4757565b6024359065ffffffffffff82168203612b4757565b90602080835192838152019201905f5b818110612e8c5750505090565b82516001600160a01b0316845260209384019390920191600101612e7f565b61014081019081106001600160401b03821117612ec757604052565b634e487b7160e01b5f52604160045260245ffd5b90601f801991011681019081106001600160401b03821117612ec757604052565b6001600160401b038111612ec75760051b60200190565b6101e4356001600160a01b0381168103612b475790565b610204356001600160a01b0381168103612b475790565b356001600160a01b0381168103612b475790565b903590601e1981360301821215612b4757018035906001600160401b038211612b4757602001918160061b36038313612b4757565b9190811015612f9a5760061b0190565b634e487b7160e01b5f52603260045260245ffd5b90816020910312612b4757516001600160a01b0381168103612b475790565b90816020910312612b47575190565b805180835260209291819084018484015e5f828201840152601f01601f1916010190565b9065ffffffffffff8091169116019065ffffffffffff821161301e57565b634e487b7160e01b5f52601160045260245ffd5b90816020910312612b4757518015158103612b475790565b8051821015612f9a5760209160051b010190565b9190820180921161301e57565b9181156132785761307b8361330e565b9281518181111561326f575f5f198201828111925b80831061319657505050506001945f1982019082821161301e576130b4828761304a565b5183975b855189101561318857816130cc8a8a61304a565b51036130e8576001810180911161301e576001909801976130b8565b9395975050909294505b60018211613103575b505050815290565b604051602081019165ffffffffffff60d01b9060d01b1682526006815261312b602682612edb565b5190209080156131745761314091068361305e565b5f19810190811161301e5761316b906001600160a01b0390613162908661304a565b5116918461304a565b525f80806130fb565b634e487b7160e01b5f52601260045260245ffd5b9395975050909294506130f2565b9296958792959891945f935b61301e578685035f190186811161301e5784101561325c576131c4848961304a565b51600185019485811161301e57858c826001946131e28f9a8f61304a565b51116131f3575b50505001936131a2565b613253918d61322383613206878461304a565b5192613212828261304a565b5161321d898361304a565b5261304a565b52858060a01b03613234858361304a565b51169361321d878060a01b0361324a858561304a565b5116918361304a565b525f8c826131e9565b9491989560019197989493500191613090565b50509150915090565b60405162461bcd60e51b815260206004820152602860248201527f4d61782076616c696461746f7273206d7573742062652067726561746572207460448201526768616e207a65726f60c01b6064820152608490fd5b61330c906020808095946040519684889551918291018487015e8401908282015f8152815193849201905e01015f815203601f198101845283612edb565b565b906133188261371d565b60125f516020613ba35f395f51905f52540180549261333684612efc565b916133446040519384612edb565b848352601f1961335386612efc565b0136602085013761336385612efc565b946133716040519687612edb565b808652601f1961338082612efc565b013660208801375f925f925b8284106133a0575050505080825283529190565b909192936133d56133dc846133b588866136cc565b93909365ffffffffffff81169165ffffffffffff8260301c169160601c90565b50906137a7565b156134255783613401916133f0848a61304a565b6001600160a01b0382169052613800565b61340b828a61304a565b526001810180911161301e57600190945b0192919061338c565b509360019061341c565b9061345b816133d561128060125f516020613ba35f395f51905f52540160018060a01b038716906139ee565b1561346c5761346991613800565b90565b50505f90565b6001600160a01b031680156134d0575f516020613b835f395f51905f5280546001600160a01b0319811683179091556001600160a01b03167f8be0079c531659141344cd1fd0a4f28419497f9722a3daafe3b4186f6b6457e05f80a3565b631e4fbdf760e01b5f525f60045260245ffd5b604051632474521560e21b81525f600482015233602482015290602090829060449082906001600160a01b03165afa908115612cd9575f91613537575b501561352857565b630e7fea9d60e01b5f5260045ffd5b613550915060203d6020116120e9576120db8183612edb565b5f613520565b90816020910312612b4757516001600160401b0381168103612b475790565b90816020910312612b47575165ffffffffffff81168103612b475790565b65ffffffffffff916135b16112806001600160a01b038316846139ee565b919490941693841590811561360b575b506135fc576135f99365ffffffffffff60301b6135dd4261397a565b60301b161760609190911b6001600160601b03191617916136fb565b50565b633f54562b60e11b5f5260045ffd5b65ffffffffffff91501615155f6135c1565b65ffffffffffff9161363b6112806001600160a01b038316846139ee565b9490911615159081613688575b50613679576135f99265ffffffffffff6136614261397a565b1660609190911b6001600160601b03191617916136fb565b637952fbad60e11b5f5260045ffd5b65ffffffffffff915016155f613648565b5f516020613b835f395f51905f52546001600160a01b031633036136b957565b63118cdaa760e01b5f523360045260245ffd5b91906136da60029184613a45565b90549060031b1c92835f520160205260405f20549160018060a01b03169190565b613469929160018060a01b031691825f526002820160205260405f2055613b35565b5f516020613ba35f395f51905f52549065ffffffffffff61373d4261397a565b1665ffffffffffff8216101561379057613774915465ffffffffffff808260601c169160901c168082105f1461379f575090613000565b65ffffffffffff806137854261397a565b169116111561379057565b63686c69fd60e01b5f5260045ffd5b905090613000565b65ffffffffffff16801515929190836137ed575b50826137c657505090565b65ffffffffffff16801592509082156137de57505090565b65ffffffffffff161115905090565b65ffffffffffff8316101592505f6137bb565b5f516020613ba35f395f51905f52546015810180546004909201545f95948694602093869391905b868810613839575050505050505050565b90919293949596986133d5613852866133b58d866136cc565b1561397057604051630ce9b79360e41b8152908890829060049082906001600160a01b03165afa908115612cd9576138ee9189915f91613953575b506040519061389c8383612edb565b5f825289368484013760405163e02f693760e01b8152600481018990526001600160a01b038816602482015265ffffffffffff8a16604482015260806064820152938492839182916084830190612fdc565b03916001600160a01b03165afa908115612cd9575f91613925575b506139169060019261305e565b995b0196959493929190613828565b90508781813d831161394c575b61393c8183612edb565b81010312612b4757516001613909565b503d613932565b61396a9150823d84116107a3576107958183612edb565b5f61388d565b5098600190613918565b65ffffffffffff81116139925765ffffffffffff1690565b6306dfcc6560e41b5f52603060045260245260445ffd5b9061346991815f52600281016020525f6040812055613a5a565b60ff5f516020613bc35f395f51905f525460401c16156139df57565b631afcd79f60e31b5f5260045ffd5b90805f526002820160205260405f2054918183159182613a25575b5050613a13575090565b63015ab34360e11b5f5260045260245ffd5b613a3d92506001915f520160205260405f2054151590565b15815f613a09565b8054821015612f9a575f5260205f2001905f90565b906001820191815f528260205260405f20548015155f14613b2d575f19810181811161301e5782545f1981019190821161301e57818103613ae2575b50505080548015613ace575f190190613aaf8282613a45565b8154905f199060031b1b19169055555f526020525f6040812055600190565b634e487b7160e01b5f52603160045260245ffd5b613b18613af2613b029386613a45565b90549060031b1c92839286613a45565b819391549060031b91821b915f19901b19161790565b90555f528360205260405f20555f8080613a96565b505050505f90565b5f82815260018201602052604090205461346c57805490600160401b821015612ec75782613b6d613b02846001809601855584613a45565b90558054925f520160205260405f205560019056fe9016d09d72d40fdae2fd8ceac6b6234c7706214fd39c1cd1e609a0528c1993000b8c56af6cc9ad401ad225bfe96df77f3049ba17eadac1cb95ee89df1e69d100f0c57e16840df040f15088dc2f81fe391c3923bec73e23a9662efc9c229c6a00f0c57e16840df040f15088dc2f81fe391c3923bec73e23a9662efc9c229c6a00","linkReferences":{}},"methodIdentifiers":{"allowedVaultImplVersion()":"c9b0b1e9","changeSlashExecutor(address)":"86c241a1","changeSlashRequester(address)":"6d1064eb","collateral()":"d8dfeb45","disableOperator()":"d99fcd66","disableVault(address)":"3ccce789","distributeOperatorRewards(address,uint256,bytes32)":"729e2f36","distributeStakerRewards(((address,uint256)[],uint256,address),uint48)":"7fbe95b5","enableOperator()":"3d15e74e","enableVault(address)":"936f4330","eraDuration()":"4455a38f","executeSlash((address,uint256)[])":"af962995","getActiveOperatorsStakeAt(uint48)":"b5e5ad12","getOperatorStakeAt(address,uint48)":"d99ddfc7","initialize((address,uint48,uint48,uint48,uint48,uint48,uint48,uint64,uint64,uint256,uint256,address,address,(address,address,address,address,address,address,address,address,address,address)))":"ab122753","makeElectionAt(uint48,uint256)":"6e5c7932","maxAdminFee()":"c639e2d6","maxResolverSetEpochsDelay()":"9e032311","minSlashExecutionDelay()":"373bba1f","minVaultEpochDuration()":"945cf2dd","minVetoDuration()":"461e7a8e","operatorGracePeriod()":"709d06ae","owner()":"8da5cb5b","registerOperator()":"2acde098","registerVault(address,address)":"05c4fdf9","reinitialize()":"6c2eb350","renounceOwnership()":"715018a6","requestSlash((address,uint48,(address,uint256)[])[])":"0a71094c","router()":"f887ea40","subnetwork()":"ceebb69a","symbioticContracts()":"bcf33934","transferOwnership(address)":"f2fde38b","unregisterOperator(address)":"96115bc2","unregisterVault(address)":"2633b70f","vaultGracePeriod()":"79a8b245","vetoSlasherImplType()":"d55a5bdf"},"storageLayout":{"storage":[],"types":{}},"id":152}