{"abi":[{"type":"constructor","inputs":[{"name":"_router","type":"address","internalType":"address"}],"stateMutability":"nonpayable"},{"type":"fallback","stateMutability":"payable"},{"type":"function","name":"claimValue","inputs":[{"name":"_claimedId","type":"bytes32","internalType":"bytes32"}],"outputs":[],"stateMutability":"nonpayable"},{"type":"function","name":"executableBalanceTopUp","inputs":[{"name":"_value","type":"uint128","internalType":"uint128"}],"outputs":[],"stateMutability":"nonpayable"},{"type":"function","name":"inheritor","inputs":[],"outputs":[{"name":"","type":"address","internalType":"address"}],"stateMutability":"view"},{"type":"function","name":"initialize","inputs":[{"name":"_initializer","type":"address","internalType":"address"},{"name":"_abiInterface","type":"address","internalType":"address"}],"outputs":[],"stateMutability":"nonpayable"},{"type":"function","name":"initializer","inputs":[],"outputs":[{"name":"","type":"address","internalType":"address"}],"stateMutability":"view"},{"type":"function","name":"nonce","inputs":[],"outputs":[{"name":"","type":"uint256","internalType":"uint256"}],"stateMutability":"view"},{"type":"function","name":"performStateTransition","inputs":[{"name":"_transition","type":"tuple","internalType":"struct Gear.StateTransition","components":[{"name":"actorId","type":"address","internalType":"address"},{"name":"newStateHash","type":"bytes32","internalType":"bytes32"},{"name":"inheritor","type":"address","internalType":"address"},{"name":"valueToReceive","type":"uint128","internalType":"uint128"},{"name":"valueClaims","type":"tuple[]","internalType":"struct Gear.ValueClaim[]","components":[{"name":"messageId","type":"bytes32","internalType":"bytes32"},{"name":"destination","type":"address","internalType":"address"},{"name":"value","type":"uint128","internalType":"uint128"}]},{"name":"messages","type":"tuple[]","internalType":"struct Gear.Message[]","components":[{"name":"id","type":"bytes32","internalType":"bytes32"},{"name":"destination","type":"address","internalType":"address"},{"name":"payload","type":"bytes","internalType":"bytes"},{"name":"value","type":"uint128","internalType":"uint128"},{"name":"replyDetails","type":"tuple","internalType":"struct Gear.ReplyDetails","components":[{"name":"to","type":"bytes32","internalType":"bytes32"},{"name":"code","type":"bytes4","internalType":"bytes4"}]}]}]}],"outputs":[{"name":"","type":"bytes32","internalType":"bytes32"}],"stateMutability":"nonpayable"},{"type":"function","name":"router","inputs":[],"outputs":[{"name":"","type":"address","internalType":"address"}],"stateMutability":"view"},{"type":"function","name":"sendMessage","inputs":[{"name":"_payload","type":"bytes","internalType":"bytes"},{"name":"_value","type":"uint128","internalType":"uint128"}],"outputs":[{"name":"","type":"bytes32","internalType":"bytes32"}],"stateMutability":"nonpayable"},{"type":"function","name":"sendReply","inputs":[{"name":"_repliedTo","type":"bytes32","internalType":"bytes32"},{"name":"_payload","type":"bytes","internalType":"bytes"},{"name":"_value","type":"uint128","internalType":"uint128"}],"outputs":[],"stateMutability":"nonpayable"},{"type":"function","name":"stateHash","inputs":[],"outputs":[{"name":"","type":"bytes32","internalType":"bytes32"}],"stateMutability":"view"},{"type":"function","name":"transferLockedValueToInheritor","inputs":[],"outputs":[],"stateMutability":"nonpayable"},{"type":"event","name":"ExecutableBalanceTopUpRequested","inputs":[{"name":"value","type":"uint128","indexed":false,"internalType":"uint128"}],"anonymous":false},{"type":"event","name":"Message","inputs":[{"name":"id","type":"bytes32","indexed":false,"internalType":"bytes32"},{"name":"destination","type":"address","indexed":true,"internalType":"address"},{"name":"payload","type":"bytes","indexed":false,"internalType":"bytes"},{"name":"value","type":"uint128","indexed":false,"internalType":"uint128"}],"anonymous":false},{"type":"event","name":"MessageQueueingRequested","inputs":[{"name":"id","type":"bytes32","indexed":false,"internalType":"bytes32"},{"name":"source","type":"address","indexed":true,"internalType":"address"},{"name":"payload","type":"bytes","indexed":false,"internalType":"bytes"},{"name":"value","type":"uint128","indexed":false,"internalType":"uint128"}],"anonymous":false},{"type":"event","name":"Reply","inputs":[{"name":"payload","type":"bytes","indexed":false,"internalType":"bytes"},{"name":"value","type":"uint128","indexed":false,"internalType":"uint128"},{"name":"replyTo","type":"bytes32","indexed":false,"internalType":"bytes32"},{"name":"replyCode","type":"bytes4","indexed":true,"internalType":"bytes4"}],"anonymous":false},{"type":"event","name":"ReplyQueueingRequested","inputs":[{"name":"repliedTo","type":"bytes32","indexed":false,"internalType":"bytes32"},{"name":"source","type":"address","indexed":true,"internalType":"address"},{"name":"payload","type":"bytes","indexed":false,"internalType":"bytes"},{"name":"value","type":"uint128","indexed":false,"internalType":"uint128"}],"anonymous":false},{"type":"event","name":"StateChanged","inputs":[{"name":"stateHash","type":"bytes32","indexed":false,"internalType":"bytes32"}],"anonymous":false},{"type":"event","name":"ValueClaimed","inputs":[{"name":"claimedId","type":"bytes32","indexed":false,"internalType":"bytes32"},{"name":"value","type":"uint128","indexed":false,"internalType":"uint128"}],"anonymous":false},{"type":"event","name":"ValueClaimingRequested","inputs":[{"name":"claimedId","type":"bytes32","indexed":false,"internalType":"bytes32"},{"name":"source","type":"address","indexed":true,"internalType":"address"}],"anonymous":false}],"bytecode":{"object":"0x60a0346100a857601f6117e838819003918201601f19168301916001600160401b038311848410176100ac578084926020946040528339810103126100a857516001600160a01b03811681036100a85760805260405161172790816100c1823960805181818160fe0152818161016001528181610350015281816104d601528181610bdf01528181610daf01528181610ebb015281816110e70152818161150201526116290152f35b5f80fd5b634e487b7160e01b5f52604160045260245ffdfe60806040526004361015610061575b7f360894a13ba1a3210667c828492db98dca3e2076cc3735a920a3ca505d382bbc546001600160a01b03161561005d576024361061005d5761005b6001600160801b036004351636611434565b005b5f80fd5b5f3560e01c806329336f391461103857806336a52a1814611011578063485cc95514610e79578063701da98e14610e5c578063704ed54214610d3757806391d5a64c14610ce95780639ce110d714610cc15780639ed323501461049e578063affed0e014610481578063d56242221461024b578063e43f34331461012d5763f887ea400361000e573461005d575f36600319011261005d576040517f00000000000000000000000000000000000000000000000000000000000000006001600160a01b03168152602090f35b3461005d575f36600319011261005d575f546001600160a01b031680156102065760249060206001600160a01b036101847f0000000000000000000000000000000000000000000000000000000000000000611584565b16604051938480926370a0823160e01b82523060048301525afa9182156101fb575f926101c0575b506001600160801b0361005b921690611604565b91506020823d6020116101f3575b816101db60209383611293565b8101031261005d579051906001600160801b036101ac565b3d91506101ce565b6040513d5f823e3d90fd5b60405162461bcd60e51b815260206004820152601960248201527f70726f6772616d206973206e6f74207465726d696e61746564000000000000006044820152606490fd5b3461005d57604036600319011261005d576004356001600160401b03811161005d5761027b90369060040161119a565b602435916001600160801b03831680840361005d575f546102a5906001600160a01b0316156111ef565b6003541580159061046d575b156103ef57610348575b6003545f198114610334576020938160017f3527a119fe7f25d965cb7abc58139f031e8909b8592488c7926862d569e435c69301600355604051868101913060601b8352603482015260348152610313605482611293565b5190209361032960405192839233968885611392565b0390a2604051908152f35b634e487b7160e01b5f52601160045260245ffd5b6103a06020847f00000000000000000000000000000000000000000000000000000000000000006001600160a01b0361038082611584565b16905f6040518096819582946323b872dd60e01b845233600485016112cc565b03925af180156101fb576103bb915f916103c0575b506112f6565b6102bb565b6103e2915060203d6020116103e8575b6103da8183611293565b8101906112b4565b856103b5565b503d6103d0565b60405162461bcd60e51b815260206004820152604a60248201527f696e697469616c697a6572206861736e2774206372656174656420696e69742060448201527f6d657373616765207965743b20616e6420736f75726365206973206e6f7420696064820152693734ba34b0b634bd32b960b11b608482015260a490fd5b506001546001600160a01b031633146102b1565b3461005d575f36600319011261005d576020600354604051908152f35b3461005d57602036600319011261005d576001600160401b036004351161005d57600435360360c060031982011261005d57610504337f00000000000000000000000000000000000000000000000000000000000000006001600160a01b0316146113c0565b61051260043560040161140c565b306001600160a01b0390911603610c7c5760043560a4013590602219810182121561005d576001600160401b0360048381350101351161005d57600482813501013560051b360360248360043501011361005d575f9160605b60048281350101358410156108fb57600584901b6004358301908101602401359490360360e2190185121561005d57602319600435840186013603019460c0861261005d576040519560a087018781106001600160401b038211176108e75760405260043585018201602481013588526105e7906044016111db565b602088015260646004358601830101356001600160401b03811161005d5760209060048488823501010101019036601f8301121561005d5781356001600160401b0381116108e75760405190610647601f8201601f191660200183611293565b808252366020828601011161005d576020815f92826040970183860137830101528883015261067e608460043588018501016111c7565b6060890152607f19011261005d5760405192604084018481106001600160401b038211176108e7576040526004358501820160a4810135855260c401356001600160e01b031981169790949088860361005d576020809383829361076a6034605460019c876107909a0190815285608086015284519588860151916060604088015197015191519063ffffffff60e01b905116908a6040519889958287019b8c526001600160601b03199060601b1660408701528051918291018787015e8401926001600160801b03199060801b16858401526064830152608482015203016014810184520182611293565b5190206040519582879351918291018585015e8201908382015203018084520182611293565b9560a460043586018301013561082d57507f9c4ffe7286aed9eb205c8adb12b51219122c7e56c67017f312af0e15f801177360046107d560448235880185010161140c565b6108226107f0833589018601840160608101906020016116f5565b610803608086898d823501010101611420565b9160206040519687968c8060a01b0316998d8235010101013585611392565b0390a25b019261056b565b907fe240a19e4a4ef8e5861c0eea48f9ab2cdb47bfe98347c94ccabb9c45f7d8d1c69061087d6108656044600435890184010161140c565b61087760846004358a01850101611420565b90611604565b6108946004358701820160648101906024016116f5565b909160a060046108ab608482358c01850101611420565b926001600160801b036108cb604051978897606089526060890191611372565b941660208601528a8235010101013560408301520390a2610826565b634e487b7160e01b5f52604160045260245ffd5b8051602090910120916004356084013591506022190181121561005d57600435016004810135906001600160401b03821161005d57606082023603602482011361005d576060925f5b83811015610a93576004606082028401016060601f19823603011261005d5760405190606082018281106001600160401b038211176108e7576040526020810135918281526040820197610997896111db565b92836020840152606001926109ab846111c7565b6040819401526040519260208401918683526001600160601b03199060601b1660408501526001600160801b03199060801b166054840152604483526109f2606484611293565b60405192828493516020819201602086015e83019060208201905f8252519283915e016020015f815203601f1981018252610a2d9082611293565b96610a379061140c565b610a4082611420565b610a4991611604565b610a5290611420565b6040519182526001600160801b0316602082015260407fa217f2987a7942c2966f1fd16d39097862308325249e8b9fb4c00a430fd6578391a1600101610944565b5083516020850120600435604401906001600160a01b03610ab38361140c565b16610b8e575b6020926002549160246004350135809303610b5c575b610ae6610ae060043560040161140c565b9461140c565b610af4606460043501611420565b9060405194878601966001600160601b03199060601b16875260348601526001600160601b03199060601b1660548501526001600160801b03199060801b1660688401526078830152609882015260988152610b5160b882611293565b519020604051908152f35b826002557f5c601f20d27885120b6fed87a4c313849b86eaddc9d28e7685e2e66a9c08093085604051858152a1610acf565b610b978261140c565b5f549390610bae6001600160a01b038616156111ef565b6001600160a01b03166001600160a01b03199490941684175f55831561020657602460206001600160a01b03610c037f0000000000000000000000000000000000000000000000000000000000000000611584565b16604051928380926370a0823160e01b82523060048301525afa9081156101fb575f91610c49575b506020946001600160801b03610c42921690611604565b9250610ab9565b90506020813d602011610c74575b81610c6460209383611293565b8101031261005d57516020610c2b565b3d9150610c57565b60405162461bcd60e51b815260206004820152601d60248201527f6163746f724964206d757374206265207468697320636f6e74726163740000006044820152606490fd5b3461005d575f36600319011261005d576001546040516001600160a01b039091168152602090f35b3461005d57602036600319011261005d57610d076003541515611233565b60405160043581527f0354817698da67944179457b89e15c1c57ca7b8cfd9d80eab1d09c258f6c497860203392a2005b3461005d57602036600319011261005d576004356001600160801b0381169081810361005d575f54610d72906001600160a01b0316156111ef565b81610da5575b7f85ba4ebb0990fc588bfbb287e2e810a77c858e0a69485d6a938c52c054236667602083604051908152a1005b610dff91906020907f00000000000000000000000000000000000000000000000000000000000000006001600160a01b03610ddf82611584565b16905f6040518097819582946323b872dd60e01b845233600485016112cc565b03925af19081156101fb57610e3e6020927f85ba4ebb0990fc588bfbb287e2e810a77c858e0a69485d6a938c52c054236667945f91610e4557506112f6565b9150610d78565b6103e29150843d86116103e8576103da8183611293565b3461005d575f36600319011261005d576020600254604051908152f35b3461005d57604036600319011261005d576004356001600160a01b0381169081900361005d576024356001600160a01b038116919082900361005d57610ee9337f00000000000000000000000000000000000000000000000000000000000000006001600160a01b0316146113c0565b600154906001600160a01b038216610fc1577f360894a13ba1a3210667c828492db98dca3e2076cc3735a920a3ca505d382bbc54916001600160a01b038316610f70576001600160a01b0319161760015581610f4157005b6001600160a01b031916177f360894a13ba1a3210667c828492db98dca3e2076cc3735a920a3ca505d382bbc55005b60405162461bcd60e51b8152602060048201526024808201527f61626920696e7465726661636520636f756c64206f6e6c7920626520736574206044820152636f6e636560e01b6064820152608490fd5b60405162461bcd60e51b815260206004820152602260248201527f696e697469616c697a657220636f756c64206f6e6c7920626520736574206f6e604482015261636560f01b6064820152608490fd5b3461005d575f36600319011261005d575f546040516001600160a01b039091168152602090f35b3461005d57606036600319011261005d576024356001600160401b03811161005d5761106890369060040161119a565b6044356001600160801b03811680820361005d575f54611091906001600160a01b0316156111ef565b61109e6003541515611233565b6110de575b7fb64dad8a89028819d048f9c75ec4c516341da68972bb68a8e1262b5443c61e7f916110d9604051928392339660043585611392565b0390a2005b611137916020827f00000000000000000000000000000000000000000000000000000000000000006001600160a01b0361111782611584565b16905f6040518098819582946323b872dd60e01b845233600485016112cc565b03925af19283156101fb577fb64dad8a89028819d048f9c75ec4c516341da68972bb68a8e1262b5443c61e7f93611174915f9161117b57506112f6565b91506110a3565b611194915060203d6020116103e8576103da8183611293565b866103b5565b9181601f8401121561005d578235916001600160401b03831161005d576020838186019501011161005d57565b35906001600160801b038216820361005d57565b35906001600160a01b038216820361005d57565b156111f657565b60405162461bcd60e51b81526020600482015260156024820152741c1c9bd9dc985b481a5cc81d195c9b5a5b985d1959605a1b6044820152606490fd5b1561123a57565b60405162461bcd60e51b815260206004820152602b60248201527f696e697469616c697a6572206861736e2774206372656174656420696e69742060448201526a1b595cdcd859d9481e595d60aa1b6064820152608490fd5b90601f801991011681019081106001600160401b038211176108e757604052565b9081602091031261005d5751801515810361005d5790565b6001600160a01b039182168152911660208201526001600160801b03909116604082015260600190565b156112fd57565b60405162461bcd60e51b815260206004820152604160248201527f6661696c656420746f207472616e73666572206e6f6e2d7a65726f20616d6f7560448201527f6e74206f662057566172612066726f6d20736f7572636520746f20726f7574656064820152603960f91b608482015260a490fd5b908060209392818452848401375f828201840152601f01601f1916010190565b926040926113b9916001600160801b03939796978652606060208701526060860191611372565b9416910152565b156113c757565b60405162461bcd60e51b815260206004820152601860248201527f63616c6c6572206973206e6f742074686520726f7574657200000000000000006044820152606490fd5b356001600160a01b038116810361005d5790565b356001600160801b038116810361005d5790565b5f5490919061144c906001600160a01b0316156111ef565b60035415801590611570575b156103ef576001600160801b0381166114fa575b6003545f198114610334578060017f3527a119fe7f25d965cb7abc58139f031e8909b8592488c7926862d569e435c6920160035560405160208101913060601b83526034820152603481526114c2605482611293565b519020926001600160801b036114ea604051928684526060602085015260608401905f611372565b931660408201528033930390a290565b6115326020827f00000000000000000000000000000000000000000000000000000000000000006001600160a01b0361038082611584565b03925af180156101fb5761154c915f9161155157506112f6565b61146c565b61156a915060203d6020116103e8576103da8183611293565b5f6103b5565b506001546001600160a01b03163314611458565b60405163088f50cf60e41b815290602090829060049082906001600160a01b03165afa9081156101fb575f916115c2575b506001600160a01b031690565b90506020813d6020116115fc575b816115dd60209383611293565b8101031261005d57516001600160a01b038116810361005d575f6115b5565b3d91506115d0565b906001600160801b031680611617575050565b60209060446001600160a01b0361164d7f0000000000000000000000000000000000000000000000000000000000000000611584565b60405163a9059cbb60e01b81526001600160a01b0390961660048701526024860193909352849283915f91165af19081156101fb575f916116d6575b501561169157565b60405162461bcd60e51b815260206004820152601860248201527f6661696c656420746f207472616e7366657220575661726100000000000000006044820152606490fd5b6116ef915060203d6020116103e8576103da8183611293565b5f611689565b903590601e198136030182121561005d57018035906001600160401b03821161005d5760200191813603831361005d5756","linkReferences":{}},"methodIdentifiers":{"claimValue(bytes32)":"91d5a64c","executableBalanceTopUp(uint128)":"704ed542","inheritor()":"36a52a18","initialize(address,address)":"485cc955","initializer()":"9ce110d7","nonce()":"affed0e0","performStateTransition((address,bytes32,address,uint128,(bytes32,address,uint128)[],(bytes32,address,bytes,uint128,(bytes32,bytes4))[]))":"9ed32350","router()":"f887ea40","sendMessage(bytes,uint128)":"d5624222","sendReply(bytes32,bytes,uint128)":"29336f39","stateHash()":"701da98e","transferLockedValueToInheritor()":"e43f3433"},"storageLayout":{"storage":[{"astId":67557,"contract":"src/Mirror.sol:Mirror","label":"inheritor","offset":0,"slot":"0","type":"t_address"},{"astId":67560,"contract":"src/Mirror.sol:Mirror","label":"initializer","offset":0,"slot":"1","type":"t_address"},{"astId":67562,"contract":"src/Mirror.sol:Mirror","label":"stateHash","offset":0,"slot":"2","type":"t_bytes32"},{"astId":67564,"contract":"src/Mirror.sol:Mirror","label":"nonce","offset":0,"slot":"3","type":"t_uint256"}],"types":{"t_address":{"encoding":"inplace","label":"address","numberOfBytes":"20"},"t_bytes32":{"encoding":"inplace","label":"bytes32","numberOfBytes":"32"},"t_uint256":{"encoding":"inplace","label":"uint256","numberOfBytes":"32"}}},"id":125}