{"abi":[{"type":"function","name":"claimValue","inputs":[{"name":"_claimedId","type":"bytes32","internalType":"bytes32"}],"outputs":[],"stateMutability":"nonpayable"},{"type":"function","name":"createDecoder","inputs":[{"name":"implementation","type":"address","internalType":"address"},{"name":"salt","type":"bytes32","internalType":"bytes32"}],"outputs":[],"stateMutability":"nonpayable"},{"type":"function","name":"decoder","inputs":[],"outputs":[{"name":"","type":"address","internalType":"address"}],"stateMutability":"view"},{"type":"function","name":"executableBalanceTopUp","inputs":[{"name":"_value","type":"uint128","internalType":"uint128"}],"outputs":[],"stateMutability":"payable"},{"type":"function","name":"inheritor","inputs":[],"outputs":[{"name":"","type":"address","internalType":"address"}],"stateMutability":"view"},{"type":"function","name":"initMessage","inputs":[{"name":"source","type":"address","internalType":"address"},{"name":"payload","type":"bytes","internalType":"bytes"},{"name":"value","type":"uint128","internalType":"uint128"},{"name":"executableBalance","type":"uint128","internalType":"uint128"}],"outputs":[],"stateMutability":"nonpayable"},{"type":"function","name":"messageSent","inputs":[{"name":"id","type":"bytes32","internalType":"bytes32"},{"name":"destination","type":"address","internalType":"address"},{"name":"payload","type":"bytes","internalType":"bytes"},{"name":"value","type":"uint128","internalType":"uint128"}],"outputs":[],"stateMutability":"nonpayable"},{"type":"function","name":"nonce","inputs":[],"outputs":[{"name":"","type":"uint256","internalType":"uint256"}],"stateMutability":"view"},{"type":"function","name":"replySent","inputs":[{"name":"destination","type":"address","internalType":"address"},{"name":"payload","type":"bytes","internalType":"bytes"},{"name":"value","type":"uint128","internalType":"uint128"},{"name":"replyTo","type":"bytes32","internalType":"bytes32"},{"name":"replyCode","type":"bytes4","internalType":"bytes4"}],"outputs":[],"stateMutability":"nonpayable"},{"type":"function","name":"router","inputs":[],"outputs":[{"name":"","type":"address","internalType":"address"}],"stateMutability":"view"},{"type":"function","name":"sendMessage","inputs":[{"name":"_payload","type":"bytes","internalType":"bytes"},{"name":"_value","type":"uint128","internalType":"uint128"}],"outputs":[{"name":"","type":"bytes32","internalType":"bytes32"}],"stateMutability":"payable"},{"type":"function","name":"sendReply","inputs":[{"name":"_repliedTo","type":"bytes32","internalType":"bytes32"},{"name":"_payload","type":"bytes","internalType":"bytes"},{"name":"_value","type":"uint128","internalType":"uint128"}],"outputs":[],"stateMutability":"payable"},{"type":"function","name":"sendValueToInheritor","inputs":[],"outputs":[],"stateMutability":"nonpayable"},{"type":"function","name":"setInheritor","inputs":[{"name":"_inheritor","type":"address","internalType":"address"}],"outputs":[],"stateMutability":"nonpayable"},{"type":"function","name":"stateHash","inputs":[],"outputs":[{"name":"","type":"bytes32","internalType":"bytes32"}],"stateMutability":"view"},{"type":"function","name":"updateState","inputs":[{"name":"newStateHash","type":"bytes32","internalType":"bytes32"}],"outputs":[],"stateMutability":"nonpayable"},{"type":"function","name":"valueClaimed","inputs":[{"name":"claimedId","type":"bytes32","internalType":"bytes32"},{"name":"destination","type":"address","internalType":"address"},{"name":"value","type":"uint128","internalType":"uint128"}],"outputs":[],"stateMutability":"nonpayable"},{"type":"event","name":"ExecutableBalanceTopUpRequested","inputs":[{"name":"value","type":"uint128","indexed":false,"internalType":"uint128"}],"anonymous":false},{"type":"event","name":"Message","inputs":[{"name":"id","type":"bytes32","indexed":false,"internalType":"bytes32"},{"name":"destination","type":"address","indexed":true,"internalType":"address"},{"name":"payload","type":"bytes","indexed":false,"internalType":"bytes"},{"name":"value","type":"uint128","indexed":false,"internalType":"uint128"}],"anonymous":false},{"type":"event","name":"MessageQueueingRequested","inputs":[{"name":"id","type":"bytes32","indexed":false,"internalType":"bytes32"},{"name":"source","type":"address","indexed":true,"internalType":"address"},{"name":"payload","type":"bytes","indexed":false,"internalType":"bytes"},{"name":"value","type":"uint128","indexed":false,"internalType":"uint128"}],"anonymous":false},{"type":"event","name":"Reply","inputs":[{"name":"payload","type":"bytes","indexed":false,"internalType":"bytes"},{"name":"value","type":"uint128","indexed":false,"internalType":"uint128"},{"name":"replyTo","type":"bytes32","indexed":false,"internalType":"bytes32"},{"name":"replyCode","type":"bytes4","indexed":true,"internalType":"bytes4"}],"anonymous":false},{"type":"event","name":"ReplyQueueingRequested","inputs":[{"name":"repliedTo","type":"bytes32","indexed":false,"internalType":"bytes32"},{"name":"source","type":"address","indexed":true,"internalType":"address"},{"name":"payload","type":"bytes","indexed":false,"internalType":"bytes"},{"name":"value","type":"uint128","indexed":false,"internalType":"uint128"}],"anonymous":false},{"type":"event","name":"StateChanged","inputs":[{"name":"stateHash","type":"bytes32","indexed":false,"internalType":"bytes32"}],"anonymous":false},{"type":"event","name":"ValueClaimed","inputs":[{"name":"claimedId","type":"bytes32","indexed":false,"internalType":"bytes32"},{"name":"value","type":"uint128","indexed":false,"internalType":"uint128"}],"anonymous":false},{"type":"event","name":"ValueClaimingRequested","inputs":[{"name":"claimedId","type":"bytes32","indexed":false,"internalType":"bytes32"},{"name":"source","type":"address","indexed":true,"internalType":"address"}],"anonymous":false},{"type":"error","name":"FailedDeployment","inputs":[]},{"type":"error","name":"InsufficientBalance","inputs":[{"name":"balance","type":"uint256","internalType":"uint256"},{"name":"needed","type":"uint256","internalType":"uint256"}]}],"bytecode":{"object":"0x608080604052346015576111d7908161001a8239f35b5f80fdfe60806040526004361015610011575f80fd5b5f803560e01c806312b222561461092557806314503e51146108aa57806329336f391461080757806336a52a18146107df5780635b1b84f71461062e57806360302d2414610615578063701da98e146105f8578063704ed5421461058b5780638ea59e1d1461052657806391d5a64c146104be5780639cb3300514610495578063affed0e014610477578063c2df600914610414578063c78bde7714610394578063d562422214610298578063de1dd2e0146101045763f887ea40146100d5575f80fd5b3461010157806003193601126101015760206100ef610ed9565b6040516001600160a01b039091168152f35b80fd5b50346101015760803660031901126101015761011e610979565b60243567ffffffffffffffff81116102945761013e9036906004016109d1565b906101476109a5565b926101506109bb565b9361016c6001600160a01b03610164610ed9565b1633146109ff565b6002549081610238577f3527a119fe7f25d965cb7abc58139f031e8909b8592488c7926862d569e435c6947f85ba4ebb0990fc588bfbb287e2e810a77c858e0a69485d6a938c52c0542366676020846101c761023296610eb7565b6002556040513060601b6bffffffffffffffffffffffff1916838201908152601481019290925261020581603484015b03601f198101835282610af4565b519020986001600160801b0360405191168152a16040516001600160a01b03909416969394859485610ac6565b0390a280f35b60405162461bcd60e51b815260206004820152602e60248201527f696e6974206d657373616765206d75737420626520637265617465642062656660448201526d6f726520616e79206f746865727360901b6064820152608490fd5b8280fd5b5060403660031901126101015760043567ffffffffffffffff8111610390576102c59036906004016109d1565b91602435906001600160801b038216820361010157506001546020937f3527a119fe7f25d965cb7abc58139f031e8909b8592488c7926862d569e435c691610316906001600160a01b031615610a62565b61031f8361105f565b60025461032b81610eb7565b6002556040513060601b6bffffffffffffffffffffffff1916878201908152601481019290925261035f81603484016101f7565b519020936103856001600160a01b03610376611185565b16946040519384938885610ac6565b0390a2604051908152f35b5080fd5b50346101015760a0366003190112610101576103ae610979565b60243567ffffffffffffffff8111610294576103ce9036906004016109d1565b90916103d86109a5565b608435926001600160e01b0319841684036104105761040d946104046001600160a01b03610164610ed9565b60643593610da4565b80f35b8580fd5b50346101015760803660031901126101015761042e61098f565b6044359067ffffffffffffffff82116102945761045261040d9236906004016109d1565b9061045b6109bb565b9261046f6001600160a01b03610164610ed9565b600435610ccc565b50346101015780600319360112610101576020600254604051908152f35b50346101015780600319360112610101576003546040516001600160a01b039091168152602090f35b5034610101576020366003190112610101576001546104e6906001600160a01b031615610a62565b6001600160a01b036104f6611185565b167f0354817698da67944179457b89e15c1c57ca7b8cfd9d80eab1d09c258f6c497860206040516004358152a280f35b50346101015760203660031901126101015760043561054e6001600160a01b03610164610ed9565b8082540361055a575080f35b6020817f5c601f20d27885120b6fed87a4c313849b86eaddc9d28e7685e2e66a9c080930928455604051908152a180f35b506020366003190112610101576004356001600160801b03811690818103610294577f85ba4ebb0990fc588bfbb287e2e810a77c858e0a69485d6a938c52c054236667916105ee6020926105e960018060a01b036001541615610a62565b61105f565b604051908152a180f35b503461010157806003193601126101015760209054604051908152f35b503461010157806003193601126101015761040d610b49565b503461071d57604036600319011261071d57610648610979565b61065b6001600160a01b03610164610ed9565b600254610780576003546001600160a01b03166107305780763d602d80600a3d3981f3363d3d373d3d3d363d7300000062ffffff6e5af43d82803e903d91602b57fd5bf39360881c16175f5260781b1760205260018060a01b03602435603760095ff516801561072157600380546001600160a01b03191682179055803b1561071d575f809160046040518094819363204a7f0760e21b83525af1801561071257610704575080f35b61071091505f90610af4565b005b6040513d5f823e3d90fd5b5f80fd5b63b06ebf3d60e01b5f5260045ffd5b60405162461bcd60e51b815260206004820152602260248201527f6465636f64657220636f756c64206f6e6c792062652063726561746564206f6e604482015261636560f01b6064820152608490fd5b60405162461bcd60e51b815260206004820152603160248201527f6465636f64657220636f756c64206f6e6c792062652063726561746564206265604482015270666f726520696e6974206d65737361676560781b6064820152608490fd5b3461071d575f36600319011261071d576001546040516001600160a01b039091168152602090f35b606036600319011261071d5760243567ffffffffffffffff811161071d576108547fb64dad8a89028819d048f9c75ec4c516341da68972bb68a8e1262b5443c61e7f9136906004016109d1565b61085f9291926109a5565b600154909390610878906001600160a01b031615610a62565b6108818461105f565b6108a56001600160a01b03610894611185565b169460405193849360043585610ac6565b0390a2005b3461071d57606036600319011261071d577fa217f2987a7942c2966f1fd16d39097862308325249e8b9fb4c00a430fd6578360406108e661098f565b61090c6108f16109a5565b9182906109076001600160a01b03610164610ed9565b610f34565b6001600160801b038251916004358352166020820152a1005b3461071d57602036600319011261071d5761093e610979565b6109516001600160a01b03610164610ed9565b60018060a01b03166bffffffffffffffffffffffff60a01b6001541617600155610710610b49565b600435906001600160a01b038216820361071d57565b602435906001600160a01b038216820361071d57565b604435906001600160801b038216820361071d57565b606435906001600160801b038216820361071d57565b9181601f8401121561071d5782359167ffffffffffffffff831161071d576020838186019501011161071d57565b15610a0657565b60405162461bcd60e51b815260206004820152602e60248201527f6f6e6c7920726f7574657220636f6e747261637420697320656c696769626c6560448201526d103337b91037b832b930ba34b7b760911b6064820152608490fd5b15610a6957565b60405162461bcd60e51b81526020600482015260156024820152741c1c9bd9dc985b481a5cc81d195c9b5a5b985d1959605a1b6044820152606490fd5b908060209392818452848401375f828201840152601f01601f1916010190565b92604092610aed916001600160801b03939796978652606060208701526060860191610aa6565b9416910152565b90601f8019910116810190811067ffffffffffffffff821117610b1657604052565b634e487b7160e01b5f52604160045260245ffd5b9081602091031261071d57516001600160a01b038116810361071d5790565b6001546001600160a01b03168015610c485760049060206001600160a01b03610b70610ed9565b166040519384809263088f50cf60e41b82525afa918215610712576024926020915f91610c1b575b506040516370a0823160e01b815230600482015293849182906001600160a01b03165afa918215610712575f92610be0575b506001600160801b03610bde921690610f34565b565b91506020823d602011610c13575b81610bfb60209383610af4565b8101031261071d579051906001600160801b03610bca565b3d9150610bee565b610c3b9150823d8411610c41575b610c338183610af4565b810190610b2a565b5f610b98565b503d610c29565b60405162461bcd60e51b815260206004820152601960248201527f70726f6772616d206973206e6f74207465726d696e61746564000000000000006044820152606490fd5b3d15610cc7573d9067ffffffffffffffff8211610b165760405191610cbc601f8201601f191660200184610af4565b82523d5f602084013e565b606090565b600354909493906001600160a01b031680610d23575b507f9c4ffe7286aed9eb205c8adb12b51219122c7e56c67017f312af0e15f801177393610d1e9160405194859460018060a01b03169785610ac6565b0390a2565b5f80916040518260208201916374fad4ef60e01b83528a602482015260018060a01b038816604482015260806064820152610d8381610d6660a482018a8d610aa6565b6001600160801b038d16608483015203601f198101835282610af4565b51926207a120f1610d92610c8d565b50610d9d575f610ce2565b5050505050565b94909294610db28682610f34565b6003546001600160a01b03169081610e24575b50507fe240a19e4a4ef8e5861c0eea48f9ab2cdb47bfe98347c94ccabb9c45f7d8d1c6936001600160801b03610e08604051958695606087526060870191610aa6565b9616602084015260408301526001600160e01b031916930390a2565b604051639649744960e01b602082019081526001600160a01b03909216602482015260a060448201525f92839290918390610e9c818c6001600160801b03610e7060c484018d8f610aa6565b91166064830152608482018d90526001600160e01b03198a1660a483015203601f198101835282610af4565b51926207a120f1610eab610c8d565b50610d9d575f80610dc5565b5f198114610ec55760010190565b634e487b7160e01b5f52601160045260245ffd5b6040516303e21fa960e61b8152602081600481305afa908115610712575f91610f00575090565b610f19915060203d602011610c4157610c338183610af4565b90565b9081602091031261071d5751801515810361071d5790565b60049160206001600160a01b03610f49610ed9565b166040519485809263088f50cf60e41b82525afa928315610712575f93611035575b506001600160801b031680610f7f57505050565b60405163a9059cbb60e01b81526001600160a01b039283166004820152602481019190915291602091839160449183915f91165af1908115610712575f91611006575b5015610fca57565b60405162461bcd60e51b81526020600482015260146024820152736661696c656420746f2073656e6420575661726160601b6044820152606490fd5b611028915060203d60201161102e575b6110208183610af4565b810190610f1c565b5f610fc2565b503d611016565b6001600160801b039193506110589060203d602011610c4157610c338183610af4565b9290610f6b565b6001600160801b0316806110705750565b6001600160a01b03611080610ed9565b60405163088f50cf60e41b81529116602082600481845afa918215610712576020926064915f91611168575b505f6110b6611185565b6040516323b872dd60e01b81526001600160a01b039182166004820152602481019590955260448501969096529294859384929091165af1908115610712575f91611149575b501561110457565b60405162461bcd60e51b815260206004820152601860248201527f6661696c656420746f20726574726965766520575661726100000000000000006044820152606490fd5b611162915060203d60201161102e576110208183610af4565b5f6110fc565b61117f9150843d8611610c4157610c338183610af4565b5f6110ac565b600354336001600160a01b039091160361119d573290565b339056fea2646970667358221220b494dbdf9a3752137d3750f75138c50d55c481fa64665364f23894379254372e64736f6c634300081a0033","linkReferences":{}},"methodIdentifiers":{"claimValue(bytes32)":"91d5a64c","createDecoder(address,bytes32)":"5b1b84f7","decoder()":"9cb33005","executableBalanceTopUp(uint128)":"704ed542","inheritor()":"36a52a18","initMessage(address,bytes,uint128,uint128)":"de1dd2e0","messageSent(bytes32,address,bytes,uint128)":"c2df6009","nonce()":"affed0e0","replySent(address,bytes,uint128,bytes32,bytes4)":"c78bde77","router()":"f887ea40","sendMessage(bytes,uint128)":"d5624222","sendReply(bytes32,bytes,uint128)":"29336f39","sendValueToInheritor()":"60302d24","setInheritor(address)":"12b22256","stateHash()":"701da98e","updateState(bytes32)":"8ea59e1d","valueClaimed(bytes32,address,uint128)":"14503e51"},"storageLayout":{"storage":[{"astId":74655,"contract":"src/Mirror.sol:Mirror","label":"stateHash","offset":0,"slot":"0","type":"t_bytes32"},{"astId":74657,"contract":"src/Mirror.sol:Mirror","label":"inheritor","offset":0,"slot":"1","type":"t_address"},{"astId":74659,"contract":"src/Mirror.sol:Mirror","label":"nonce","offset":0,"slot":"2","type":"t_uint256"},{"astId":74661,"contract":"src/Mirror.sol:Mirror","label":"decoder","offset":0,"slot":"3","type":"t_address"}],"types":{"t_address":{"encoding":"inplace","label":"address","numberOfBytes":"20"},"t_bytes32":{"encoding":"inplace","label":"bytes32","numberOfBytes":"32"},"t_uint256":{"encoding":"inplace","label":"uint256","numberOfBytes":"32"}}},"id":157}