{"abi":[{"type":"constructor","inputs":[{"name":"_router","type":"address","internalType":"address"}],"stateMutability":"nonpayable"},{"type":"fallback","stateMutability":"payable"},{"type":"function","name":"claimValue","inputs":[{"name":"_claimedId","type":"bytes32","internalType":"bytes32"}],"outputs":[],"stateMutability":"nonpayable"},{"type":"function","name":"executableBalanceTopUp","inputs":[{"name":"_value","type":"uint128","internalType":"uint128"}],"outputs":[],"stateMutability":"nonpayable"},{"type":"function","name":"inheritor","inputs":[],"outputs":[{"name":"","type":"address","internalType":"address"}],"stateMutability":"view"},{"type":"function","name":"initialize","inputs":[{"name":"_initializer","type":"address","internalType":"address"},{"name":"_abiInterface","type":"address","internalType":"address"},{"name":"_isSmall","type":"bool","internalType":"bool"}],"outputs":[],"stateMutability":"nonpayable"},{"type":"function","name":"initializer","inputs":[],"outputs":[{"name":"","type":"address","internalType":"address"}],"stateMutability":"view"},{"type":"function","name":"nonce","inputs":[],"outputs":[{"name":"","type":"uint256","internalType":"uint256"}],"stateMutability":"view"},{"type":"function","name":"performStateTransition","inputs":[{"name":"_transition","type":"tuple","internalType":"struct Gear.StateTransition","components":[{"name":"actorId","type":"address","internalType":"address"},{"name":"newStateHash","type":"bytes32","internalType":"bytes32"},{"name":"inheritor","type":"address","internalType":"address"},{"name":"valueToReceive","type":"uint128","internalType":"uint128"},{"name":"valueClaims","type":"tuple[]","internalType":"struct Gear.ValueClaim[]","components":[{"name":"messageId","type":"bytes32","internalType":"bytes32"},{"name":"destination","type":"address","internalType":"address"},{"name":"value","type":"uint128","internalType":"uint128"}]},{"name":"messages","type":"tuple[]","internalType":"struct Gear.Message[]","components":[{"name":"id","type":"bytes32","internalType":"bytes32"},{"name":"destination","type":"address","internalType":"address"},{"name":"payload","type":"bytes","internalType":"bytes"},{"name":"value","type":"uint128","internalType":"uint128"},{"name":"replyDetails","type":"tuple","internalType":"struct Gear.ReplyDetails","components":[{"name":"to","type":"bytes32","internalType":"bytes32"},{"name":"code","type":"bytes4","internalType":"bytes4"}]}]}]}],"outputs":[{"name":"","type":"bytes32","internalType":"bytes32"}],"stateMutability":"nonpayable"},{"type":"function","name":"router","inputs":[],"outputs":[{"name":"","type":"address","internalType":"address"}],"stateMutability":"view"},{"type":"function","name":"sendMessage","inputs":[{"name":"_payload","type":"bytes","internalType":"bytes"},{"name":"_value","type":"uint128","internalType":"uint128"}],"outputs":[{"name":"","type":"bytes32","internalType":"bytes32"}],"stateMutability":"nonpayable"},{"type":"function","name":"sendReply","inputs":[{"name":"_repliedTo","type":"bytes32","internalType":"bytes32"},{"name":"_payload","type":"bytes","internalType":"bytes"},{"name":"_value","type":"uint128","internalType":"uint128"}],"outputs":[],"stateMutability":"nonpayable"},{"type":"function","name":"stateHash","inputs":[],"outputs":[{"name":"","type":"bytes32","internalType":"bytes32"}],"stateMutability":"view"},{"type":"function","name":"transferLockedValueToInheritor","inputs":[],"outputs":[],"stateMutability":"nonpayable"},{"type":"event","name":"ExecutableBalanceTopUpRequested","inputs":[{"name":"value","type":"uint128","indexed":false,"internalType":"uint128"}],"anonymous":false},{"type":"event","name":"Message","inputs":[{"name":"id","type":"bytes32","indexed":false,"internalType":"bytes32"},{"name":"destination","type":"address","indexed":true,"internalType":"address"},{"name":"payload","type":"bytes","indexed":false,"internalType":"bytes"},{"name":"value","type":"uint128","indexed":false,"internalType":"uint128"}],"anonymous":false},{"type":"event","name":"MessageQueueingRequested","inputs":[{"name":"id","type":"bytes32","indexed":false,"internalType":"bytes32"},{"name":"source","type":"address","indexed":true,"internalType":"address"},{"name":"payload","type":"bytes","indexed":false,"internalType":"bytes"},{"name":"value","type":"uint128","indexed":false,"internalType":"uint128"}],"anonymous":false},{"type":"event","name":"Reply","inputs":[{"name":"payload","type":"bytes","indexed":false,"internalType":"bytes"},{"name":"value","type":"uint128","indexed":false,"internalType":"uint128"},{"name":"replyTo","type":"bytes32","indexed":false,"internalType":"bytes32"},{"name":"replyCode","type":"bytes4","indexed":true,"internalType":"bytes4"}],"anonymous":false},{"type":"event","name":"ReplyQueueingRequested","inputs":[{"name":"repliedTo","type":"bytes32","indexed":false,"internalType":"bytes32"},{"name":"source","type":"address","indexed":true,"internalType":"address"},{"name":"payload","type":"bytes","indexed":false,"internalType":"bytes"},{"name":"value","type":"uint128","indexed":false,"internalType":"uint128"}],"anonymous":false},{"type":"event","name":"StateChanged","inputs":[{"name":"stateHash","type":"bytes32","indexed":false,"internalType":"bytes32"}],"anonymous":false},{"type":"event","name":"ValueClaimed","inputs":[{"name":"claimedId","type":"bytes32","indexed":false,"internalType":"bytes32"},{"name":"value","type":"uint128","indexed":false,"internalType":"uint128"}],"anonymous":false},{"type":"event","name":"ValueClaimingRequested","inputs":[{"name":"claimedId","type":"bytes32","indexed":false,"internalType":"bytes32"},{"name":"source","type":"address","indexed":true,"internalType":"address"}],"anonymous":false}],"bytecode":{"object":"0x60a0346100a957601f611c9838819003918201601f19168301916001600160401b038311848410176100ad578084926020946040528339810103126100a957516001600160a01b03811681036100a957608052604051611bd690816100c28239608051818181610108015281816102e5015281816103640152818161054501528181610718015281816107ef01528181610e3a0152818161100a015281816111aa01526115ed0152f35b5f80fd5b634e487b7160e01b5f52604160045260245ffdfe60806040526004361015610248575b60ff60015460a01c166102445760243610610244575f546004356001600160801b031690610045906001600160a01b0316156112b2565b60035415801590610230575b156101b25780610100575b6003545f1981146100ec576001810160035560405160208101913060601b8352603482015260348152610090605482611356565b519020907f3527a119fe7f25d965cb7abc58139f031e8909b8592488c7926862d569e435c6604051838152606060208201526001600160801b036100d860608301365f611435565b931660408201528033930390a25f5260205ff35b634e487b7160e01b5f52601160045260245ffd5b6101586020827f00000000000000000000000000000000000000000000000000000000000000006001600160a01b03610138826114f7565b16905f6040518096819582946323b872dd60e01b8452336004850161138f565b03925af180156101a757610173915f91610178575b506113b9565b61005c565b61019a915060203d6020116101a0575b6101928183611356565b810190611377565b5f61016d565b503d610188565b6040513d5f823e3d90fd5b60405162461bcd60e51b815260206004820152604a60248201527f696e697469616c697a6572206861736e2774206372656174656420696e69742060448201527f6d657373616765207965743b20616e6420736f75726365206973206e6f7420696064820152693734ba34b0b634bd32b960b11b608482015260a490fd5b506001546001600160a01b03163314610051565b5f80fd5b5f3560e01c806329336f39146110fb57806336a52a18146110d4578063701da98e146110b7578063704ed54214610f9257806391d5a64c14610f445780639ce110d714610f1c5780639ed32350146107b7578063affed0e01461079a578063d562422214610627578063e43f343314610512578063e4bbb5a8146103145763f887ea400361000e5734610244575f366003190112610244576040517f00000000000000000000000000000000000000000000000000000000000000006001600160a01b03168152602090f35b34610244576060366003190112610244576004356001600160a01b03811690819003610244576024356001600160a01b0381169190829003610244576044359081151580920361024457610392337f00000000000000000000000000000000000000000000000000000000000000006001600160a01b031614611483565b600154906001600160a01b0382166104c25760ff8260a01c1661047d577f360894a13ba1a3210667c828492db98dca3e2076cc3735a920a3ca505d382bbc54926001600160a01b03841661042c576001600160a81b03199092161760a09190911b60ff60a01b16176001556001600160a01b031916177f360894a13ba1a3210667c828492db98dca3e2076cc3735a920a3ca505d382bbc55005b60405162461bcd60e51b8152602060048201526024808201527f61626920696e7465726661636520636f756c64206f6e6c7920626520736574206044820152636f6e636560e01b6064820152608490fd5b60405162461bcd60e51b815260206004820152601e60248201527f6973536d616c6c20636f756c64206f6e6c7920626520736574206f6e636500006044820152606490fd5b60405162461bcd60e51b815260206004820152602260248201527f696e697469616c697a657220636f756c64206f6e6c7920626520736574206f6e604482015261636560f01b6064820152608490fd5b34610244575f366003190112610244575f546001600160a01b031680156105e25760249060206001600160a01b036105697f00000000000000000000000000000000000000000000000000000000000000006114f7565b16604051938480926370a0823160e01b82523060048301525afa9182156101a7575f926105a7575b506001600160801b036105a59216906115c8565b005b91506020823d6020116105da575b816105c260209383611356565b81010312610244579051906001600160801b03610591565b3d91506105b5565b60405162461bcd60e51b815260206004820152601960248201527f70726f6772616d206973206e6f74207465726d696e61746564000000000000006044820152606490fd5b34610244576040366003190112610244576004356001600160401b0381116102445761065790369060040161125d565b602435916001600160801b038316808403610244575f54610681906001600160a01b0316156112b2565b60035415801590610786575b156101b257610710575b6003545f1981146100ec576020938160017f3527a119fe7f25d965cb7abc58139f031e8909b8592488c7926862d569e435c69301600355604051868101913060601b83526034820152603481526106ef605482611356565b5190209361070560405192839233968885611455565b0390a2604051908152f35b6107486020847f00000000000000000000000000000000000000000000000000000000000000006001600160a01b03610138826114f7565b03925af180156101a757610762915f9161076757506113b9565b610697565b610780915060203d6020116101a0576101928183611356565b8561016d565b506001546001600160a01b0316331461068d565b34610244575f366003190112610244576020600354604051908152f35b34610244576020366003190112610244576001600160401b036004351161024457600435360360c06003198201126102445761081d337f00000000000000000000000000000000000000000000000000000000000000006001600160a01b031614611483565b61082b6004356004016114cf565b306001600160a01b0390911603610ed75760043560a40135906022198101821215610244576001600160401b0360048381350101351161024457600482813501013560051b3603602483600435010113610244575f9160605b6004828135010135841015610b5657600584901b6004358301908101602401359490360360e2190185121561024457602319600435840186013603019160c08312610244576040519260a084018481106001600160401b03821117610b425760405260043585018701602481013585526109009060440161129e565b602085015260646004358601880101356001600160401b0381116102445760209060048988823501010101019036601f830112156102445761094b6040923690602081359101611592565b85830152610961608460043588018a010161128a565b6060860152607f19011261024457604051604081018181106001600160401b03821117610b42576040526004358501870160a4810135825260c40135936001600160e01b0319851685036102445760208093838293610a486034605460019b87610a6e9a0190815285608086015284519588860151916060604088015197015191519063ffffffff60e01b905116908a6040519889958287019b8c526001600160601b03199060601b1660408701528051918291018787015e8401926001600160801b03199060801b16858401526064830152608482015203016014810184520182611356565b5190206040519582879351918291018585015e8201908382015203018084520182611356565b9460a4600435850182010135610b2957610a9060246004358601830101611905565b15610a9f575b505b0192610884565b7f9c4ffe7286aed9eb205c8adb12b51219122c7e56c67017f312af0e15f80117736004610ad36044823588018501016114cf565b610b20610aee833589018601840160608101906020016116b9565b610b01608086898d8235010101016114e3565b9160206040519687968c8060a01b0316998d8235010101013585611455565b0390a285610a96565b60206004610b3d9286823501010101611700565b610a98565b634e487b7160e01b5f52604160045260245ffd5b8051602090910120916004356084013591506022190181121561024457600435016004810135906001600160401b038211610244576060820236036024820113610244576060925f5b83811015610cee576004606082028401016060601f1982360301126102445760405190606082018281106001600160401b03821117610b42576040526020810135918281526040820197610bf28961129e565b9283602084015260600192610c068461128a565b6040819401526040519260208401918683526001600160601b03199060601b1660408501526001600160801b03199060801b16605484015260448352610c4d606484611356565b60405192828493516020819201602086015e83019060208201905f8252519283915e016020015f815203601f1981018252610c889082611356565b96610c92906114cf565b610c9b826114e3565b610ca4916115c8565b610cad906114e3565b6040519182526001600160801b0316602082015260407fa217f2987a7942c2966f1fd16d39097862308325249e8b9fb4c00a430fd6578391a1600101610b9f565b5083516020850120600435604401906001600160a01b03610d0e836114cf565b16610de9575b6020926002549160246004350135809303610db7575b610d41610d3b6004356004016114cf565b946114cf565b610d4f6064600435016114e3565b9060405194878601966001600160601b03199060601b16875260348601526001600160601b03199060601b1660548501526001600160801b03199060801b1660688401526078830152609882015260988152610dac60b882611356565b519020604051908152f35b826002557f5c601f20d27885120b6fed87a4c313849b86eaddc9d28e7685e2e66a9c08093085604051858152a1610d2a565b610df2826114cf565b5f549390610e096001600160a01b038616156112b2565b6001600160a01b03166001600160a01b03199490941684175f5583156105e257602460206001600160a01b03610e5e7f00000000000000000000000000000000000000000000000000000000000000006114f7565b16604051928380926370a0823160e01b82523060048301525afa9081156101a7575f91610ea4575b506020946001600160801b03610e9d9216906115c8565b9250610d14565b90506020813d602011610ecf575b81610ebf60209383611356565b8101031261024457516020610e86565b3d9150610eb2565b60405162461bcd60e51b815260206004820152601d60248201527f6163746f724964206d757374206265207468697320636f6e74726163740000006044820152606490fd5b34610244575f366003190112610244576001546040516001600160a01b039091168152602090f35b3461024457602036600319011261024457610f6260035415156112f6565b60405160043581527f0354817698da67944179457b89e15c1c57ca7b8cfd9d80eab1d09c258f6c497860203392a2005b34610244576020366003190112610244576004356001600160801b03811690818103610244575f54610fcd906001600160a01b0316156112b2565b81611000575b7f85ba4ebb0990fc588bfbb287e2e810a77c858e0a69485d6a938c52c054236667602083604051908152a1005b61105a91906020907f00000000000000000000000000000000000000000000000000000000000000006001600160a01b0361103a826114f7565b16905f6040518097819582946323b872dd60e01b8452336004850161138f565b03925af19081156101a7576110996020927f85ba4ebb0990fc588bfbb287e2e810a77c858e0a69485d6a938c52c054236667945f916110a057506113b9565b9150610fd3565b6107809150843d86116101a0576101928183611356565b34610244575f366003190112610244576020600254604051908152f35b34610244575f366003190112610244575f546040516001600160a01b039091168152602090f35b34610244576060366003190112610244576024356001600160401b0381116102445761112b90369060040161125d565b6044356001600160801b038116808203610244575f54611154906001600160a01b0316156112b2565b61116160035415156112f6565b6111a1575b7fb64dad8a89028819d048f9c75ec4c516341da68972bb68a8e1262b5443c61e7f9161119c604051928392339660043585611455565b0390a2005b6111fa916020827f00000000000000000000000000000000000000000000000000000000000000006001600160a01b036111da826114f7565b16905f6040518098819582946323b872dd60e01b8452336004850161138f565b03925af19283156101a7577fb64dad8a89028819d048f9c75ec4c516341da68972bb68a8e1262b5443c61e7f93611237915f9161123e57506113b9565b9150611166565b611257915060203d6020116101a0576101928183611356565b8661016d565b9181601f84011215610244578235916001600160401b038311610244576020838186019501011161024457565b35906001600160801b038216820361024457565b35906001600160a01b038216820361024457565b156112b957565b60405162461bcd60e51b81526020600482015260156024820152741c1c9bd9dc985b481a5cc81d195c9b5a5b985d1959605a1b6044820152606490fd5b156112fd57565b60405162461bcd60e51b815260206004820152602b60248201527f696e697469616c697a6572206861736e2774206372656174656420696e69742060448201526a1b595cdcd859d9481e595d60aa1b6064820152608490fd5b90601f801991011681019081106001600160401b03821117610b4257604052565b90816020910312610244575180151581036102445790565b6001600160a01b039182168152911660208201526001600160801b03909116604082015260600190565b156113c057565b60405162461bcd60e51b815260206004820152604160248201527f6661696c656420746f207472616e73666572206e6f6e2d7a65726f20616d6f7560448201527f6e74206f662057566172612066726f6d20736f7572636520746f20726f7574656064820152603960f91b608482015260a490fd5b908060209392818452848401375f828201840152601f01601f1916010190565b9260409261147c916001600160801b03939796978652606060208701526060860191611435565b9416910152565b1561148a57565b60405162461bcd60e51b815260206004820152601860248201527f63616c6c6572206973206e6f742074686520726f7574657200000000000000006044820152606490fd5b356001600160a01b03811681036102445790565b356001600160801b03811681036102445790565b60405163088f50cf60e41b815290602090829060049082906001600160a01b03165afa9081156101a7575f91611535575b506001600160a01b031690565b90506020813d60201161156f575b8161155060209383611356565b8101031261024457516001600160a01b0381168103610244575f611528565b3d9150611543565b6001600160401b038111610b4257601f01601f191660200190565b92919261159e82611577565b916115ac6040519384611356565b829481845281830111610244578281602093845f960137010152565b906001600160801b0316806115db575050565b60209060446001600160a01b036116117f00000000000000000000000000000000000000000000000000000000000000006114f7565b60405163a9059cbb60e01b81526001600160a01b0390961660048701526024860193909352849283915f91165af19081156101a7575f9161169a575b501561165557565b60405162461bcd60e51b815260206004820152601860248201527f6661696c656420746f207472616e7366657220575661726100000000000000006044820152606490fd5b6116b3915060203d6020116101a0576101928183611356565b5f61164d565b903590601e198136030182121561024457018035906001600160401b0382116102445760200191813603831361024457565b356001600160e01b0319811681036102445790565b6020810161170d816114cf565b611724606084019161171e836114e3565b906115c8565b61172d826114cf565b3b1561187f575061174060a083016116eb565b8060f81c80155f146117ce575050815f61178261177782959461177161176a6040869801876116b9565b3691611592565b506114cf565b9260408101906116b9565b9190826040519384928337810182815203926207a120f13d156117c9573d6117a981611577565b906117b76040519283611356565b81525f60203d92013e5b6117c757565b565b6117c1565b909290600103611846575f61178261177782959461184184966117f460408801886116b9565b9091611824604051938493634a646c7f60e01b60208601528b356024860152606060448601526084850191611435565b9063ffffffff60e01b1660648301520390601f1982018152611356565b6114cf565b60405162461bcd60e51b8152602060048201526011602482015270756e6b6e6f776e207265706c79436f646560781b6044820152606490fd5b7fe240a19e4a4ef8e5861c0eea48f9ab2cdb47bfe98347c94ccabb9c45f7d8d1c691506118ba6118b260408501856116b9565b9190926114e3565b60806001600160e01b03196118d160a088016116eb565b16956001600160801b036118f2604051968796606088526060880191611435565b93166020850152013560408301520390a2565b61191260408201826116b9565b90916001600160a01b0380611929602084016114cf565b16149081611bb8575b5080611baf575b15611ba95781358060f81c90600182101580611b9e575b15611b965760f31c611fe01690600182018310611b96576001840135927f5c601f20d27885120b6fed87a4c313849b86eaddc9d28e7685e2e66a9c08093084141580611b6c575b80611b42575b80611b18575b80611aee575b80611ac4575b80611a9a575b80611a70575b15611a6757829003905f1982019260405192601e601f1991011683018381106001600160401b038211176102445760405283908601600101833760218501359460418101359160018103611a165750505090919250a1600190565b60028103611a2757505050a2600190565b600381979593969497145f14611a4357505090919293a3600190565b600414611a56575b505050505050600190565b6061013594a45f8080808080611a4b565b50505050505f90565b507fa217f2987a7942c2966f1fd16d39097862308325249e8b9fb4c00a430fd657838414156119bb565b507fe240a19e4a4ef8e5861c0eea48f9ab2cdb47bfe98347c94ccabb9c45f7d8d1c68414156119b5565b507f9c4ffe7286aed9eb205c8adb12b51219122c7e56c67017f312af0e15f80117738414156119af565b507f85ba4ebb0990fc588bfbb287e2e810a77c858e0a69485d6a938c52c0542366678414156119a9565b507f0354817698da67944179457b89e15c1c57ca7b8cfd9d80eab1d09c258f6c49788414156119a3565b507fb64dad8a89028819d048f9c75ec4c516341da68972bb68a8e1262b5443c61e7f84141561199d565b507f3527a119fe7f25d965cb7abc58139f031e8909b8592488c7926862d569e435c6841415611997565b505050505f90565b506004821115611950565b50505f90565b50801515611939565b6001600160801b0391506060611bce91016114e3565b16155f61193256","linkReferences":{}},"methodIdentifiers":{"claimValue(bytes32)":"91d5a64c","executableBalanceTopUp(uint128)":"704ed542","inheritor()":"36a52a18","initialize(address,address,bool)":"e4bbb5a8","initializer()":"9ce110d7","nonce()":"affed0e0","performStateTransition((address,bytes32,address,uint128,(bytes32,address,uint128)[],(bytes32,address,bytes,uint128,(bytes32,bytes4))[]))":"9ed32350","router()":"f887ea40","sendMessage(bytes,uint128)":"d5624222","sendReply(bytes32,bytes,uint128)":"29336f39","stateHash()":"701da98e","transferLockedValueToInheritor()":"e43f3433"},"storageLayout":{"storage":[{"astId":77231,"contract":"src/Mirror.sol:Mirror","label":"inheritor","offset":0,"slot":"0","type":"t_address"},{"astId":77234,"contract":"src/Mirror.sol:Mirror","label":"initializer","offset":0,"slot":"1","type":"t_address"},{"astId":77236,"contract":"src/Mirror.sol:Mirror","label":"isSmall","offset":20,"slot":"1","type":"t_bool"},{"astId":77238,"contract":"src/Mirror.sol:Mirror","label":"stateHash","offset":0,"slot":"2","type":"t_bytes32"},{"astId":77240,"contract":"src/Mirror.sol:Mirror","label":"nonce","offset":0,"slot":"3","type":"t_uint256"}],"types":{"t_address":{"encoding":"inplace","label":"address","numberOfBytes":"20"},"t_bool":{"encoding":"inplace","label":"bool","numberOfBytes":"1"},"t_bytes32":{"encoding":"inplace","label":"bytes32","numberOfBytes":"32"},"t_uint256":{"encoding":"inplace","label":"uint256","numberOfBytes":"32"}}},"id":161}