{"abi":[{"type":"function","name":"claimValue","inputs":[{"name":"_claimedId","type":"bytes32","internalType":"bytes32"}],"outputs":[],"stateMutability":"nonpayable"},{"type":"function","name":"createDecoder","inputs":[{"name":"implementation","type":"address","internalType":"address"},{"name":"salt","type":"bytes32","internalType":"bytes32"}],"outputs":[],"stateMutability":"nonpayable"},{"type":"function","name":"decoder","inputs":[],"outputs":[{"name":"","type":"address","internalType":"address"}],"stateMutability":"view"},{"type":"function","name":"executableBalanceTopUp","inputs":[{"name":"_value","type":"uint128","internalType":"uint128"}],"outputs":[],"stateMutability":"nonpayable"},{"type":"function","name":"inheritor","inputs":[],"outputs":[{"name":"","type":"address","internalType":"address"}],"stateMutability":"view"},{"type":"function","name":"initMessage","inputs":[{"name":"source","type":"address","internalType":"address"},{"name":"payload","type":"bytes","internalType":"bytes"},{"name":"value","type":"uint128","internalType":"uint128"},{"name":"executableBalance","type":"uint128","internalType":"uint128"}],"outputs":[],"stateMutability":"nonpayable"},{"type":"function","name":"initializer","inputs":[],"outputs":[{"name":"","type":"address","internalType":"address"}],"stateMutability":"view"},{"type":"function","name":"messageSent","inputs":[{"name":"id","type":"bytes32","internalType":"bytes32"},{"name":"destination","type":"address","internalType":"address"},{"name":"payload","type":"bytes","internalType":"bytes"},{"name":"value","type":"uint128","internalType":"uint128"}],"outputs":[],"stateMutability":"nonpayable"},{"type":"function","name":"nonce","inputs":[],"outputs":[{"name":"","type":"uint256","internalType":"uint256"}],"stateMutability":"view"},{"type":"function","name":"replySent","inputs":[{"name":"destination","type":"address","internalType":"address"},{"name":"payload","type":"bytes","internalType":"bytes"},{"name":"value","type":"uint128","internalType":"uint128"},{"name":"replyTo","type":"bytes32","internalType":"bytes32"},{"name":"replyCode","type":"bytes4","internalType":"bytes4"}],"outputs":[],"stateMutability":"nonpayable"},{"type":"function","name":"router","inputs":[],"outputs":[{"name":"","type":"address","internalType":"address"}],"stateMutability":"view"},{"type":"function","name":"sendMessage","inputs":[{"name":"_payload","type":"bytes","internalType":"bytes"},{"name":"_value","type":"uint128","internalType":"uint128"}],"outputs":[{"name":"","type":"bytes32","internalType":"bytes32"}],"stateMutability":"nonpayable"},{"type":"function","name":"sendReply","inputs":[{"name":"_repliedTo","type":"bytes32","internalType":"bytes32"},{"name":"_payload","type":"bytes","internalType":"bytes"},{"name":"_value","type":"uint128","internalType":"uint128"}],"outputs":[],"stateMutability":"nonpayable"},{"type":"function","name":"setInheritor","inputs":[{"name":"_inheritor","type":"address","internalType":"address"}],"outputs":[],"stateMutability":"nonpayable"},{"type":"function","name":"setInitializer","inputs":[{"name":"_initializer","type":"address","internalType":"address"}],"outputs":[],"stateMutability":"nonpayable"},{"type":"function","name":"stateHash","inputs":[],"outputs":[{"name":"","type":"bytes32","internalType":"bytes32"}],"stateMutability":"view"},{"type":"function","name":"transferLockedValueToInheritor","inputs":[],"outputs":[],"stateMutability":"nonpayable"},{"type":"function","name":"updateState","inputs":[{"name":"newStateHash","type":"bytes32","internalType":"bytes32"}],"outputs":[],"stateMutability":"nonpayable"},{"type":"function","name":"valueClaimed","inputs":[{"name":"claimedId","type":"bytes32","internalType":"bytes32"},{"name":"destination","type":"address","internalType":"address"},{"name":"value","type":"uint128","internalType":"uint128"}],"outputs":[],"stateMutability":"nonpayable"},{"type":"event","name":"ExecutableBalanceTopUpRequested","inputs":[{"name":"value","type":"uint128","indexed":false,"internalType":"uint128"}],"anonymous":false},{"type":"event","name":"Message","inputs":[{"name":"id","type":"bytes32","indexed":false,"internalType":"bytes32"},{"name":"destination","type":"address","indexed":true,"internalType":"address"},{"name":"payload","type":"bytes","indexed":false,"internalType":"bytes"},{"name":"value","type":"uint128","indexed":false,"internalType":"uint128"}],"anonymous":false},{"type":"event","name":"MessageQueueingRequested","inputs":[{"name":"id","type":"bytes32","indexed":false,"internalType":"bytes32"},{"name":"source","type":"address","indexed":true,"internalType":"address"},{"name":"payload","type":"bytes","indexed":false,"internalType":"bytes"},{"name":"value","type":"uint128","indexed":false,"internalType":"uint128"}],"anonymous":false},{"type":"event","name":"Reply","inputs":[{"name":"payload","type":"bytes","indexed":false,"internalType":"bytes"},{"name":"value","type":"uint128","indexed":false,"internalType":"uint128"},{"name":"replyTo","type":"bytes32","indexed":false,"internalType":"bytes32"},{"name":"replyCode","type":"bytes4","indexed":true,"internalType":"bytes4"}],"anonymous":false},{"type":"event","name":"ReplyQueueingRequested","inputs":[{"name":"repliedTo","type":"bytes32","indexed":false,"internalType":"bytes32"},{"name":"source","type":"address","indexed":true,"internalType":"address"},{"name":"payload","type":"bytes","indexed":false,"internalType":"bytes"},{"name":"value","type":"uint128","indexed":false,"internalType":"uint128"}],"anonymous":false},{"type":"event","name":"StateChanged","inputs":[{"name":"stateHash","type":"bytes32","indexed":false,"internalType":"bytes32"}],"anonymous":false},{"type":"event","name":"ValueClaimed","inputs":[{"name":"claimedId","type":"bytes32","indexed":false,"internalType":"bytes32"},{"name":"value","type":"uint128","indexed":false,"internalType":"uint128"}],"anonymous":false},{"type":"event","name":"ValueClaimingRequested","inputs":[{"name":"claimedId","type":"bytes32","indexed":false,"internalType":"bytes32"},{"name":"source","type":"address","indexed":true,"internalType":"address"}],"anonymous":false},{"type":"error","name":"FailedDeployment","inputs":[]},{"type":"error","name":"InsufficientBalance","inputs":[{"name":"balance","type":"uint256","internalType":"uint256"},{"name":"needed","type":"uint256","internalType":"uint256"}]}],"bytecode":{"object":"0x60808060405234601557611428908161001a8239f35b5f80fdfe60806040526004361015610011575f80fd5b5f5f3560e01c806312b2225614610cb357806314503e5114610c3857806329336f3914610ae057806336a52a1814610ab85780635b1b84f7146109095780635c24b074146108b9578063701da98e1461089b578063704ed542146107845780638ea59e1d1461071d57806391d5a64c146106cb5780639cb33005146106a45780639ce110d71461067b578063affed0e01461065d578063c2df6009146105fa578063c78bde771461057d578063d5624222146103b8578063de1dd2e014610228578063e43f34331461011a5763f887ea40146100eb575f80fd5b346101175780600319360112610117576020610105611254565b6040516001600160a01b039091168152f35b80fd5b50346101175780600319360112610117576001546001600160a01b031680156101e35760249060206001600160a01b0361015a610155611254565b61137a565b16604051938480926370a0823160e01b82523060048301525afa9182156101d8578392610199575b506001600160801b036101969216906112a7565b80f35b91506020823d6020116101d0575b816101b460209383610ea9565b810103126101cc579051906001600160801b03610182565b8280fd5b3d91506101a7565b6040513d85823e3d90fd5b60405162461bcd60e51b815260206004820152601960248201527f70726f6772616d206973206e6f74207465726d696e61746564000000000000006044820152606490fd5b503461011757608036600319011261011757610242610d93565b60243567ffffffffffffffff81116101cc57610262903690600401610deb565b9061026b610dbf565b92610274610dd5565b936102906001600160a01b03610288611254565b163314610e19565b600454908161035c577f3527a119fe7f25d965cb7abc58139f031e8909b8592488c7926862d569e435c6947f85ba4ebb0990fc588bfbb287e2e810a77c858e0a69485d6a938c52c0542366676020846102eb61035696611213565b6004556040513060601b6bffffffffffffffffffffffff1916838201908152601481019290925261032981603484015b03601f198101835282610ea9565b519020986001600160801b0360405191168152a16040516001600160a01b03909416969394859485610fbd565b0390a280f35b60405162461bcd60e51b815260206004820152602e60248201527f696e6974206d657373616765206d75737420626520637265617465642062656660448201526d6f726520616e79206f746865727360901b6064820152608490fd5b50346101175760403660031901126101175760043567ffffffffffffffff8111610579576103ea903690600401610deb565b91602435906001600160801b03821680830361057957600154610416906001600160a01b031615610e65565b6104b1575b507f3527a119fe7f25d965cb7abc58139f031e8909b8592488c7926862d569e435c660209360045461044c81611213565b6004556040513060601b6bffffffffffffffffffffffff19168782019081526014810192909252610480816034840161031b565b519020936104a66001600160a01b036104976113d7565b16946040519384938885610fbd565b0390a2604051908152f35b926104f96020836104c0611254565b6001600160a01b036104d18261137a565b1690886104dc6113d7565b6040516323b872dd60e01b81529687958694859360048501610ef7565b03925af190811561056e577f3527a119fe7f25d965cb7abc58139f031e8909b8592488c7926862d569e435c6929161053a9160209791610541575b50610f21565b935061041b565b6105619150873d8911610567575b6105598183610ea9565b810190610edf565b5f610534565b503d61054f565b6040513d87823e3d90fd5b5080fd5b50346101175760a036600319011261011757610597610d93565b60243567ffffffffffffffff81116101cc576105b7903690600401610deb565b90916105c1610dbf565b608435926001600160e01b0319841684036105f657610196946105ed6001600160a01b03610288611254565b60643593611101565b8580fd5b503461011757608036600319011261011757610614610da9565b6044359067ffffffffffffffff82116101cc57610638610196923690600401610deb565b90610641610dd5565b926106556001600160a01b03610288611254565b60043561102a565b50346101175780600319360112610117576020600454604051908152f35b50346101175780600319360112610117576002546040516001600160a01b039091168152602090f35b5034610117578060031936011261011757546040516001600160a01b039091168152602090f35b5034610117576020366003190112610117576001600160a01b036106ed6113d7565b167f0354817698da67944179457b89e15c1c57ca7b8cfd9d80eab1d09c258f6c497860206040516004358152a280f35b5034610117576020366003190112610117576004356107456001600160a01b03610288611254565b8060035403610752575080f35b6020817f5c601f20d27885120b6fed87a4c313849b86eaddc9d28e7685e2e66a9c08093092600355604051908152a180f35b5034610117576020366003190112610117576004356001600160801b038116908181036101cc576001546107c1906001600160a01b031615610e65565b816107f6575b5060207f85ba4ebb0990fc588bfbb287e2e810a77c858e0a69485d6a938c52c05423666791604051908152a180f35b90602061083e92610805611254565b6001600160a01b036108168261137a565b1690866108216113d7565b6040516323b872dd60e01b81529788958694859360048501610ef7565b03925af19081156101d85761087d6020927f85ba4ebb0990fc588bfbb287e2e810a77c858e0a69485d6a938c52c0542366679486916108845750610f21565b91506107c7565b6105619150843d8611610567576105598183610ea9565b50346101175780600319360112610117576020600354604051908152f35b5034610117576020366003190112610117576108d3610d93565b6108e66001600160a01b03610288611254565b60018060a01b03166bffffffffffffffffffffffff60a01b600254161760025580f35b50346109f65760403660031901126109f657610923610d93565b6109366001600160a01b03610288611254565b600454610a59575f546001600160a01b0316610a095780763d602d80600a3d3981f3363d3d373d3d3d363d7300000062ffffff6e5af43d82803e903d91602b57fd5bf39360881c16175f5260781b1760205260018060a01b03602435603760095ff51680156109fa575f80546001600160a01b03191682179055803b156109f6575f809160046040518094819363204a7f0760e21b83525af180156109eb576109dd575080f35b6109e991505f90610ea9565b005b6040513d5f823e3d90fd5b5f80fd5b63b06ebf3d60e01b5f5260045ffd5b60405162461bcd60e51b815260206004820152602260248201527f6465636f64657220636f756c64206f6e6c792062652063726561746564206f6e604482015261636560f01b6064820152608490fd5b60405162461bcd60e51b815260206004820152603160248201527f6465636f64657220636f756c64206f6e6c792062652063726561746564206265604482015270666f726520696e6974206d65737361676560781b6064820152608490fd5b346109f6575f3660031901126109f6576001546040516001600160a01b039091168152602090f35b346109f65760603660031901126109f65760243567ffffffffffffffff81116109f657610b11903690600401610deb565b90610b1a610dbf565b600154909290610b33906001600160a01b031615610e65565b6001600160801b038316610b8d575b7fb64dad8a89028819d048f9c75ec4c516341da68972bb68a8e1262b5443c61e7f91610b886001600160a01b03610b776113d7565b169460405193849360043585610fbd565b0390a2005b610bd591602084610b9c611254565b6001600160a01b03610bad8261137a565b16905f610bb86113d7565b6040516323b872dd60e01b81529889958694859360048501610ef7565b03925af19283156109eb577fb64dad8a89028819d048f9c75ec4c516341da68972bb68a8e1262b5443c61e7f93610c12915f91610c195750610f21565b9150610b42565b610c32915060203d602011610567576105598183610ea9565b86610534565b346109f65760603660031901126109f6577fa217f2987a7942c2966f1fd16d39097862308325249e8b9fb4c00a430fd657836040610c74610da9565b610c9a610c7f610dbf565b918290610c956001600160a01b03610288611254565b6112a7565b6001600160801b038251916004358352166020820152a1005b346109f65760203660031901126109f657610ccc610d93565b610cdf6001600160a01b03610288611254565b600180546001600160a01b0319166001600160a01b0392909216918217905580156101e35760249060206001600160a01b03610d1c610155611254565b16604051938480926370a0823160e01b82523060048301525afa9182156109eb575f92610d58575b506001600160801b036109e99216906112a7565b91506020823d602011610d8b575b81610d7360209383610ea9565b810103126109f6579051906001600160801b03610d44565b3d9150610d66565b600435906001600160a01b03821682036109f657565b602435906001600160a01b03821682036109f657565b604435906001600160801b03821682036109f657565b606435906001600160801b03821682036109f657565b9181601f840112156109f65782359167ffffffffffffffff83116109f657602083818601950101116109f657565b15610e2057565b60405162461bcd60e51b815260206004820152601860248201527f63616c6c6572206973206e6f742074686520726f7574657200000000000000006044820152606490fd5b15610e6c57565b60405162461bcd60e51b81526020600482015260156024820152741c1c9bd9dc985b481a5cc81d195c9b5a5b985d1959605a1b6044820152606490fd5b90601f8019910116810190811067ffffffffffffffff821117610ecb57604052565b634e487b7160e01b5f52604160045260245ffd5b908160209103126109f6575180151581036109f65790565b6001600160a01b039182168152911660208201526001600160801b03909116604082015260600190565b15610f2857565b60405162461bcd60e51b815260206004820152604160248201527f6661696c656420746f207472616e73666572206e6f6e2d7a65726f20616d6f7560448201527f6e74206f662057566172612066726f6d20736f7572636520746f20726f7574656064820152603960f91b608482015260a490fd5b908060209392818452848401375f828201840152601f01601f1916010190565b92604092610fe4916001600160801b03939796978652606060208701526060860191610f9d565b9416910152565b3d15611025573d9067ffffffffffffffff8211610ecb576040519161101a601f8201601f191660200184610ea9565b82523d5f602084013e565b606090565b5f54909493906001600160a01b031680611080575b507f9c4ffe7286aed9eb205c8adb12b51219122c7e56c67017f312af0e15f80117739361107b9160405194859460018060a01b03169785610fbd565b0390a2565b5f80916040518260208201916374fad4ef60e01b83528a602482015260018060a01b0388166044820152608060648201526110e0816110c360a482018a8d610f9d565b6001600160801b038d16608483015203601f198101835282610ea9565b51926207a120f16110ef610feb565b506110fa575f61103f565b5050505050565b9490929461110f86826112a7565b5f546001600160a01b03169081611180575b50507fe240a19e4a4ef8e5861c0eea48f9ab2cdb47bfe98347c94ccabb9c45f7d8d1c6936001600160801b03611164604051958695606087526060870191610f9d565b9616602084015260408301526001600160e01b031916930390a2565b604051639649744960e01b602082019081526001600160a01b03909216602482015260a060448201525f928392909183906111f8818c6001600160801b036111cc60c484018d8f610f9d565b91166064830152608482018d90526001600160e01b03198a1660a483015203601f198101835282610ea9565b51926207a120f1611207610feb565b506110fa575f80611121565b5f1981146112215760010190565b634e487b7160e01b5f52601160045260245ffd5b908160209103126109f657516001600160a01b03811681036109f65790565b6040516303e21fa960e61b8152602081600481305afa9081156109eb575f9161127b575090565b61129d915060203d6020116112a0575b6112958183610ea9565b810190611235565b90565b503d61128b565b906001600160801b0316806112ba575050565b60209060446001600160a01b036112d2610155611254565b60405163a9059cbb60e01b81526001600160a01b0390961660048701526024860193909352849283915f91165af19081156109eb575f9161135b575b501561131657565b60405162461bcd60e51b815260206004820152601860248201527f6661696c656420746f207472616e7366657220575661726100000000000000006044820152606490fd5b611374915060203d602011610567576105598183610ea9565b5f61130e565b60405163088f50cf60e41b815290602090829060049082906001600160a01b03165afa9081156109eb575f916113b8575b506001600160a01b031690565b6113d1915060203d6020116112a0576112958183610ea9565b5f6113ab565b5f54336001600160a01b03909116036113ee573290565b339056fea2646970667358221220f627ce7887da6706929c17da0acc7defc228c87a2b60d68a4d2a4c9a1321647564736f6c634300081c0033","linkReferences":{}},"methodIdentifiers":{"claimValue(bytes32)":"91d5a64c","createDecoder(address,bytes32)":"5b1b84f7","decoder()":"9cb33005","executableBalanceTopUp(uint128)":"704ed542","inheritor()":"36a52a18","initMessage(address,bytes,uint128,uint128)":"de1dd2e0","initializer()":"9ce110d7","messageSent(bytes32,address,bytes,uint128)":"c2df6009","nonce()":"affed0e0","replySent(address,bytes,uint128,bytes32,bytes4)":"c78bde77","router()":"f887ea40","sendMessage(bytes,uint128)":"d5624222","sendReply(bytes32,bytes,uint128)":"29336f39","setInheritor(address)":"12b22256","setInitializer(address)":"5c24b074","stateHash()":"701da98e","transferLockedValueToInheritor()":"e43f3433","updateState(bytes32)":"8ea59e1d","valueClaimed(bytes32,address,uint128)":"14503e51"},"storageLayout":{"storage":[{"astId":74660,"contract":"src/Mirror.sol:Mirror","label":"decoder","offset":0,"slot":"0","type":"t_address"},{"astId":74662,"contract":"src/Mirror.sol:Mirror","label":"inheritor","offset":0,"slot":"1","type":"t_address"},{"astId":74665,"contract":"src/Mirror.sol:Mirror","label":"initializer","offset":0,"slot":"2","type":"t_address"},{"astId":74667,"contract":"src/Mirror.sol:Mirror","label":"stateHash","offset":0,"slot":"3","type":"t_bytes32"},{"astId":74669,"contract":"src/Mirror.sol:Mirror","label":"nonce","offset":0,"slot":"4","type":"t_uint256"}],"types":{"t_address":{"encoding":"inplace","label":"address","numberOfBytes":"20"},"t_bytes32":{"encoding":"inplace","label":"bytes32","numberOfBytes":"32"},"t_uint256":{"encoding":"inplace","label":"uint256","numberOfBytes":"32"}}},"id":157}