{"abi":[{"type":"constructor","inputs":[{"name":"_router","type":"address","internalType":"address"}],"stateMutability":"nonpayable"},{"type":"fallback","stateMutability":"payable"},{"type":"function","name":"claimValue","inputs":[{"name":"_claimedId","type":"bytes32","internalType":"bytes32"}],"outputs":[],"stateMutability":"nonpayable"},{"type":"function","name":"executableBalanceTopUp","inputs":[{"name":"_value","type":"uint128","internalType":"uint128"}],"outputs":[],"stateMutability":"nonpayable"},{"type":"function","name":"inheritor","inputs":[],"outputs":[{"name":"","type":"address","internalType":"address"}],"stateMutability":"view"},{"type":"function","name":"initialize","inputs":[{"name":"_initializer","type":"address","internalType":"address"},{"name":"_abiInterface","type":"address","internalType":"address"}],"outputs":[],"stateMutability":"nonpayable"},{"type":"function","name":"initializer","inputs":[],"outputs":[{"name":"","type":"address","internalType":"address"}],"stateMutability":"view"},{"type":"function","name":"nonce","inputs":[],"outputs":[{"name":"","type":"uint256","internalType":"uint256"}],"stateMutability":"view"},{"type":"function","name":"performStateTransition","inputs":[{"name":"_transition","type":"tuple","internalType":"struct Gear.StateTransition","components":[{"name":"actorId","type":"address","internalType":"address"},{"name":"newStateHash","type":"bytes32","internalType":"bytes32"},{"name":"inheritor","type":"address","internalType":"address"},{"name":"valueToReceive","type":"uint128","internalType":"uint128"},{"name":"valueClaims","type":"tuple[]","internalType":"struct Gear.ValueClaim[]","components":[{"name":"messageId","type":"bytes32","internalType":"bytes32"},{"name":"destination","type":"address","internalType":"address"},{"name":"value","type":"uint128","internalType":"uint128"}]},{"name":"messages","type":"tuple[]","internalType":"struct Gear.Message[]","components":[{"name":"id","type":"bytes32","internalType":"bytes32"},{"name":"destination","type":"address","internalType":"address"},{"name":"payload","type":"bytes","internalType":"bytes"},{"name":"value","type":"uint128","internalType":"uint128"},{"name":"replyDetails","type":"tuple","internalType":"struct Gear.ReplyDetails","components":[{"name":"to","type":"bytes32","internalType":"bytes32"},{"name":"code","type":"bytes4","internalType":"bytes4"}]}]}]}],"outputs":[{"name":"","type":"bytes32","internalType":"bytes32"}],"stateMutability":"nonpayable"},{"type":"function","name":"router","inputs":[],"outputs":[{"name":"","type":"address","internalType":"address"}],"stateMutability":"view"},{"type":"function","name":"sendMessage","inputs":[{"name":"_payload","type":"bytes","internalType":"bytes"},{"name":"_value","type":"uint128","internalType":"uint128"}],"outputs":[{"name":"","type":"bytes32","internalType":"bytes32"}],"stateMutability":"nonpayable"},{"type":"function","name":"sendReply","inputs":[{"name":"_repliedTo","type":"bytes32","internalType":"bytes32"},{"name":"_payload","type":"bytes","internalType":"bytes"},{"name":"_value","type":"uint128","internalType":"uint128"}],"outputs":[],"stateMutability":"nonpayable"},{"type":"function","name":"stateHash","inputs":[],"outputs":[{"name":"","type":"bytes32","internalType":"bytes32"}],"stateMutability":"view"},{"type":"function","name":"transferLockedValueToInheritor","inputs":[],"outputs":[],"stateMutability":"nonpayable"},{"type":"event","name":"ExecutableBalanceTopUpRequested","inputs":[{"name":"value","type":"uint128","indexed":false,"internalType":"uint128"}],"anonymous":false},{"type":"event","name":"Message","inputs":[{"name":"id","type":"bytes32","indexed":false,"internalType":"bytes32"},{"name":"destination","type":"address","indexed":true,"internalType":"address"},{"name":"payload","type":"bytes","indexed":false,"internalType":"bytes"},{"name":"value","type":"uint128","indexed":false,"internalType":"uint128"}],"anonymous":false},{"type":"event","name":"MessageQueueingRequested","inputs":[{"name":"id","type":"bytes32","indexed":false,"internalType":"bytes32"},{"name":"source","type":"address","indexed":true,"internalType":"address"},{"name":"payload","type":"bytes","indexed":false,"internalType":"bytes"},{"name":"value","type":"uint128","indexed":false,"internalType":"uint128"}],"anonymous":false},{"type":"event","name":"Reply","inputs":[{"name":"payload","type":"bytes","indexed":false,"internalType":"bytes"},{"name":"value","type":"uint128","indexed":false,"internalType":"uint128"},{"name":"replyTo","type":"bytes32","indexed":false,"internalType":"bytes32"},{"name":"replyCode","type":"bytes4","indexed":true,"internalType":"bytes4"}],"anonymous":false},{"type":"event","name":"ReplyQueueingRequested","inputs":[{"name":"repliedTo","type":"bytes32","indexed":false,"internalType":"bytes32"},{"name":"source","type":"address","indexed":true,"internalType":"address"},{"name":"payload","type":"bytes","indexed":false,"internalType":"bytes"},{"name":"value","type":"uint128","indexed":false,"internalType":"uint128"}],"anonymous":false},{"type":"event","name":"StateChanged","inputs":[{"name":"stateHash","type":"bytes32","indexed":false,"internalType":"bytes32"}],"anonymous":false},{"type":"event","name":"ValueClaimed","inputs":[{"name":"claimedId","type":"bytes32","indexed":false,"internalType":"bytes32"},{"name":"value","type":"uint128","indexed":false,"internalType":"uint128"}],"anonymous":false},{"type":"event","name":"ValueClaimingRequested","inputs":[{"name":"claimedId","type":"bytes32","indexed":false,"internalType":"bytes32"},{"name":"source","type":"address","indexed":true,"internalType":"address"}],"anonymous":false}],"bytecode":{"object":"0x60a0346100a857601f6117e938819003918201601f19168301916001600160401b038311848410176100ac578084926020946040528339810103126100a857516001600160a01b03811681036100a85760805260405161172890816100c1823960805181818160ff0152818161016101528181610351015281816104d701528181610be001528181610db001528181610ebc015281816110e801528181611503015261162a0152f35b5f80fd5b634e487b7160e01b5f52604160045260245ffdfe60806040526004361015610062575b7f360894a13ba1a3210667c828492db98dca3e2076cc3735a920a3ca505d382bbc546001600160a01b031661003f57005b6024361061005e5761005c6001600160801b036004351636611435565b005b5f80fd5b5f3560e01c806329336f391461103957806336a52a1814611012578063485cc95514610e7a578063701da98e14610e5d578063704ed54214610d3857806391d5a64c14610cea5780639ce110d714610cc25780639ed323501461049f578063affed0e014610482578063d56242221461024c578063e43f34331461012e5763f887ea400361000e573461005e575f36600319011261005e576040517f00000000000000000000000000000000000000000000000000000000000000006001600160a01b03168152602090f35b3461005e575f36600319011261005e575f546001600160a01b031680156102075760249060206001600160a01b036101857f0000000000000000000000000000000000000000000000000000000000000000611585565b16604051938480926370a0823160e01b82523060048301525afa9182156101fc575f926101c1575b506001600160801b0361005c921690611605565b91506020823d6020116101f4575b816101dc60209383611294565b8101031261005e579051906001600160801b036101ad565b3d91506101cf565b6040513d5f823e3d90fd5b60405162461bcd60e51b815260206004820152601960248201527f70726f6772616d206973206e6f74207465726d696e61746564000000000000006044820152606490fd5b3461005e57604036600319011261005e576004356001600160401b03811161005e5761027c90369060040161119b565b602435916001600160801b03831680840361005e575f546102a6906001600160a01b0316156111f0565b6003541580159061046e575b156103f057610349575b6003545f198114610335576020938160017f3527a119fe7f25d965cb7abc58139f031e8909b8592488c7926862d569e435c69301600355604051868101913060601b8352603482015260348152610314605482611294565b5190209361032a60405192839233968885611393565b0390a2604051908152f35b634e487b7160e01b5f52601160045260245ffd5b6103a16020847f00000000000000000000000000000000000000000000000000000000000000006001600160a01b0361038182611585565b16905f6040518096819582946323b872dd60e01b845233600485016112cd565b03925af180156101fc576103bc915f916103c1575b506112f7565b6102bc565b6103e3915060203d6020116103e9575b6103db8183611294565b8101906112b5565b856103b6565b503d6103d1565b60405162461bcd60e51b815260206004820152604a60248201527f696e697469616c697a6572206861736e2774206372656174656420696e69742060448201527f6d657373616765207965743b20616e6420736f75726365206973206e6f7420696064820152693734ba34b0b634bd32b960b11b608482015260a490fd5b506001546001600160a01b031633146102b2565b3461005e575f36600319011261005e576020600354604051908152f35b3461005e57602036600319011261005e576001600160401b036004351161005e57600435360360c060031982011261005e57610505337f00000000000000000000000000000000000000000000000000000000000000006001600160a01b0316146113c1565b61051360043560040161140d565b306001600160a01b0390911603610c7d5760043560a4013590602219810182121561005e576001600160401b0360048381350101351161005e57600482813501013560051b360360248360043501011361005e575f9160605b60048281350101358410156108fc57600584901b6004358301908101602401359490360360e2190185121561005e57602319600435840186013603019460c0861261005e576040519560a087018781106001600160401b038211176108e85760405260043585018201602481013588526105e8906044016111dc565b602088015260646004358601830101356001600160401b03811161005e5760209060048488823501010101019036601f8301121561005e5781356001600160401b0381116108e85760405190610648601f8201601f191660200183611294565b808252366020828601011161005e576020815f92826040970183860137830101528883015261067f608460043588018501016111c8565b6060890152607f19011261005e5760405192604084018481106001600160401b038211176108e8576040526004358501820160a4810135855260c401356001600160e01b031981169790949088860361005e576020809383829361076b6034605460019c876107919a0190815285608086015284519588860151916060604088015197015191519063ffffffff60e01b905116908a6040519889958287019b8c526001600160601b03199060601b1660408701528051918291018787015e8401926001600160801b03199060801b16858401526064830152608482015203016014810184520182611294565b5190206040519582879351918291018585015e8201908382015203018084520182611294565b9560a460043586018301013561082e57507f9c4ffe7286aed9eb205c8adb12b51219122c7e56c67017f312af0e15f801177360046107d660448235880185010161140d565b6108236107f1833589018601840160608101906020016116f6565b610804608086898d823501010101611421565b9160206040519687968c8060a01b0316998d8235010101013585611393565b0390a25b019261056c565b907fe240a19e4a4ef8e5861c0eea48f9ab2cdb47bfe98347c94ccabb9c45f7d8d1c69061087e6108666044600435890184010161140d565b61087860846004358a01850101611421565b90611605565b6108956004358701820160648101906024016116f6565b909160a060046108ac608482358c01850101611421565b926001600160801b036108cc604051978897606089526060890191611373565b941660208601528a8235010101013560408301520390a2610827565b634e487b7160e01b5f52604160045260245ffd5b8051602090910120916004356084013591506022190181121561005e57600435016004810135906001600160401b03821161005e57606082023603602482011361005e576060925f5b83811015610a94576004606082028401016060601f19823603011261005e5760405190606082018281106001600160401b038211176108e8576040526020810135918281526040820197610998896111dc565b92836020840152606001926109ac846111c8565b6040819401526040519260208401918683526001600160601b03199060601b1660408501526001600160801b03199060801b166054840152604483526109f3606484611294565b60405192828493516020819201602086015e83019060208201905f8252519283915e016020015f815203601f1981018252610a2e9082611294565b96610a389061140d565b610a4182611421565b610a4a91611605565b610a5390611421565b6040519182526001600160801b0316602082015260407fa217f2987a7942c2966f1fd16d39097862308325249e8b9fb4c00a430fd6578391a1600101610945565b5083516020850120600435604401906001600160a01b03610ab48361140d565b16610b8f575b6020926002549160246004350135809303610b5d575b610ae7610ae160043560040161140d565b9461140d565b610af5606460043501611421565b9060405194878601966001600160601b03199060601b16875260348601526001600160601b03199060601b1660548501526001600160801b03199060801b1660688401526078830152609882015260988152610b5260b882611294565b519020604051908152f35b826002557f5c601f20d27885120b6fed87a4c313849b86eaddc9d28e7685e2e66a9c08093085604051858152a1610ad0565b610b988261140d565b5f549390610baf6001600160a01b038616156111f0565b6001600160a01b03166001600160a01b03199490941684175f55831561020757602460206001600160a01b03610c047f0000000000000000000000000000000000000000000000000000000000000000611585565b16604051928380926370a0823160e01b82523060048301525afa9081156101fc575f91610c4a575b506020946001600160801b03610c43921690611605565b9250610aba565b90506020813d602011610c75575b81610c6560209383611294565b8101031261005e57516020610c2c565b3d9150610c58565b60405162461bcd60e51b815260206004820152601d60248201527f6163746f724964206d757374206265207468697320636f6e74726163740000006044820152606490fd5b3461005e575f36600319011261005e576001546040516001600160a01b039091168152602090f35b3461005e57602036600319011261005e57610d086003541515611234565b60405160043581527f0354817698da67944179457b89e15c1c57ca7b8cfd9d80eab1d09c258f6c497860203392a2005b3461005e57602036600319011261005e576004356001600160801b0381169081810361005e575f54610d73906001600160a01b0316156111f0565b81610da6575b7f85ba4ebb0990fc588bfbb287e2e810a77c858e0a69485d6a938c52c054236667602083604051908152a1005b610e0091906020907f00000000000000000000000000000000000000000000000000000000000000006001600160a01b03610de082611585565b16905f6040518097819582946323b872dd60e01b845233600485016112cd565b03925af19081156101fc57610e3f6020927f85ba4ebb0990fc588bfbb287e2e810a77c858e0a69485d6a938c52c054236667945f91610e4657506112f7565b9150610d79565b6103e39150843d86116103e9576103db8183611294565b3461005e575f36600319011261005e576020600254604051908152f35b3461005e57604036600319011261005e576004356001600160a01b0381169081900361005e576024356001600160a01b038116919082900361005e57610eea337f00000000000000000000000000000000000000000000000000000000000000006001600160a01b0316146113c1565b600154906001600160a01b038216610fc2577f360894a13ba1a3210667c828492db98dca3e2076cc3735a920a3ca505d382bbc54916001600160a01b038316610f71576001600160a01b0319161760015581610f4257005b6001600160a01b031916177f360894a13ba1a3210667c828492db98dca3e2076cc3735a920a3ca505d382bbc55005b60405162461bcd60e51b8152602060048201526024808201527f61626920696e7465726661636520636f756c64206f6e6c7920626520736574206044820152636f6e636560e01b6064820152608490fd5b60405162461bcd60e51b815260206004820152602260248201527f696e697469616c697a657220636f756c64206f6e6c7920626520736574206f6e604482015261636560f01b6064820152608490fd5b3461005e575f36600319011261005e575f546040516001600160a01b039091168152602090f35b3461005e57606036600319011261005e576024356001600160401b03811161005e5761106990369060040161119b565b6044356001600160801b03811680820361005e575f54611092906001600160a01b0316156111f0565b61109f6003541515611234565b6110df575b7fb64dad8a89028819d048f9c75ec4c516341da68972bb68a8e1262b5443c61e7f916110da604051928392339660043585611393565b0390a2005b611138916020827f00000000000000000000000000000000000000000000000000000000000000006001600160a01b0361111882611585565b16905f6040518098819582946323b872dd60e01b845233600485016112cd565b03925af19283156101fc577fb64dad8a89028819d048f9c75ec4c516341da68972bb68a8e1262b5443c61e7f93611175915f9161117c57506112f7565b91506110a4565b611195915060203d6020116103e9576103db8183611294565b866103b6565b9181601f8401121561005e578235916001600160401b03831161005e576020838186019501011161005e57565b35906001600160801b038216820361005e57565b35906001600160a01b038216820361005e57565b156111f757565b60405162461bcd60e51b81526020600482015260156024820152741c1c9bd9dc985b481a5cc81d195c9b5a5b985d1959605a1b6044820152606490fd5b1561123b57565b60405162461bcd60e51b815260206004820152602b60248201527f696e697469616c697a6572206861736e2774206372656174656420696e69742060448201526a1b595cdcd859d9481e595d60aa1b6064820152608490fd5b90601f801991011681019081106001600160401b038211176108e857604052565b9081602091031261005e5751801515810361005e5790565b6001600160a01b039182168152911660208201526001600160801b03909116604082015260600190565b156112fe57565b60405162461bcd60e51b815260206004820152604160248201527f6661696c656420746f207472616e73666572206e6f6e2d7a65726f20616d6f7560448201527f6e74206f662057566172612066726f6d20736f7572636520746f20726f7574656064820152603960f91b608482015260a490fd5b908060209392818452848401375f828201840152601f01601f1916010190565b926040926113ba916001600160801b03939796978652606060208701526060860191611373565b9416910152565b156113c857565b60405162461bcd60e51b815260206004820152601860248201527f63616c6c6572206973206e6f742074686520726f7574657200000000000000006044820152606490fd5b356001600160a01b038116810361005e5790565b356001600160801b038116810361005e5790565b5f5490919061144d906001600160a01b0316156111f0565b60035415801590611571575b156103f0576001600160801b0381166114fb575b6003545f198114610335578060017f3527a119fe7f25d965cb7abc58139f031e8909b8592488c7926862d569e435c6920160035560405160208101913060601b83526034820152603481526114c3605482611294565b519020926001600160801b036114eb604051928684526060602085015260608401905f611373565b931660408201528033930390a290565b6115336020827f00000000000000000000000000000000000000000000000000000000000000006001600160a01b0361038182611585565b03925af180156101fc5761154d915f9161155257506112f7565b61146d565b61156b915060203d6020116103e9576103db8183611294565b5f6103b6565b506001546001600160a01b03163314611459565b60405163088f50cf60e41b815290602090829060049082906001600160a01b03165afa9081156101fc575f916115c3575b506001600160a01b031690565b90506020813d6020116115fd575b816115de60209383611294565b8101031261005e57516001600160a01b038116810361005e575f6115b6565b3d91506115d1565b906001600160801b031680611618575050565b60209060446001600160a01b0361164e7f0000000000000000000000000000000000000000000000000000000000000000611585565b60405163a9059cbb60e01b81526001600160a01b0390961660048701526024860193909352849283915f91165af19081156101fc575f916116d7575b501561169257565b60405162461bcd60e51b815260206004820152601860248201527f6661696c656420746f207472616e7366657220575661726100000000000000006044820152606490fd5b6116f0915060203d6020116103e9576103db8183611294565b5f61168a565b903590601e198136030182121561005e57018035906001600160401b03821161005e5760200191813603831361005e5756","linkReferences":{}},"methodIdentifiers":{"claimValue(bytes32)":"91d5a64c","executableBalanceTopUp(uint128)":"704ed542","inheritor()":"36a52a18","initialize(address,address)":"485cc955","initializer()":"9ce110d7","nonce()":"affed0e0","performStateTransition((address,bytes32,address,uint128,(bytes32,address,uint128)[],(bytes32,address,bytes,uint128,(bytes32,bytes4))[]))":"9ed32350","router()":"f887ea40","sendMessage(bytes,uint128)":"d5624222","sendReply(bytes32,bytes,uint128)":"29336f39","stateHash()":"701da98e","transferLockedValueToInheritor()":"e43f3433"},"storageLayout":{"storage":[{"astId":67596,"contract":"src/Mirror.sol:Mirror","label":"inheritor","offset":0,"slot":"0","type":"t_address"},{"astId":67599,"contract":"src/Mirror.sol:Mirror","label":"initializer","offset":0,"slot":"1","type":"t_address"},{"astId":67601,"contract":"src/Mirror.sol:Mirror","label":"stateHash","offset":0,"slot":"2","type":"t_bytes32"},{"astId":67603,"contract":"src/Mirror.sol:Mirror","label":"nonce","offset":0,"slot":"3","type":"t_uint256"}],"types":{"t_address":{"encoding":"inplace","label":"address","numberOfBytes":"20"},"t_bytes32":{"encoding":"inplace","label":"bytes32","numberOfBytes":"32"},"t_uint256":{"encoding":"inplace","label":"uint256","numberOfBytes":"32"}}},"id":126}