{"abi":[{"type":"function","name":"claimValue","inputs":[{"name":"_claimedId","type":"bytes32","internalType":"bytes32"}],"outputs":[],"stateMutability":"nonpayable"},{"type":"function","name":"createDecoder","inputs":[{"name":"implementation","type":"address","internalType":"address"},{"name":"salt","type":"bytes32","internalType":"bytes32"}],"outputs":[],"stateMutability":"nonpayable"},{"type":"function","name":"decoder","inputs":[],"outputs":[{"name":"","type":"address","internalType":"address"}],"stateMutability":"view"},{"type":"function","name":"executableBalanceBurned","inputs":[{"name":"value","type":"uint128","internalType":"uint128"}],"outputs":[],"stateMutability":"nonpayable"},{"type":"function","name":"executableBalanceTopUp","inputs":[{"name":"_value","type":"uint128","internalType":"uint128"}],"outputs":[],"stateMutability":"payable"},{"type":"function","name":"initMessage","inputs":[{"name":"source","type":"address","internalType":"address"},{"name":"payload","type":"bytes","internalType":"bytes"},{"name":"value","type":"uint128","internalType":"uint128"},{"name":"executableBalance","type":"uint128","internalType":"uint128"}],"outputs":[],"stateMutability":"nonpayable"},{"type":"function","name":"messageSent","inputs":[{"name":"id","type":"bytes32","internalType":"bytes32"},{"name":"destination","type":"address","internalType":"address"},{"name":"payload","type":"bytes","internalType":"bytes"},{"name":"value","type":"uint128","internalType":"uint128"}],"outputs":[],"stateMutability":"nonpayable"},{"type":"function","name":"nonce","inputs":[],"outputs":[{"name":"","type":"uint256","internalType":"uint256"}],"stateMutability":"view"},{"type":"function","name":"replySent","inputs":[{"name":"destination","type":"address","internalType":"address"},{"name":"payload","type":"bytes","internalType":"bytes"},{"name":"value","type":"uint128","internalType":"uint128"},{"name":"replyTo","type":"bytes32","internalType":"bytes32"},{"name":"replyCode","type":"bytes4","internalType":"bytes4"}],"outputs":[],"stateMutability":"nonpayable"},{"type":"function","name":"router","inputs":[],"outputs":[{"name":"","type":"address","internalType":"address"}],"stateMutability":"view"},{"type":"function","name":"sendMessage","inputs":[{"name":"_payload","type":"bytes","internalType":"bytes"},{"name":"_value","type":"uint128","internalType":"uint128"}],"outputs":[{"name":"","type":"bytes32","internalType":"bytes32"}],"stateMutability":"payable"},{"type":"function","name":"sendReply","inputs":[{"name":"_repliedTo","type":"bytes32","internalType":"bytes32"},{"name":"_payload","type":"bytes","internalType":"bytes"},{"name":"_value","type":"uint128","internalType":"uint128"}],"outputs":[],"stateMutability":"payable"},{"type":"function","name":"stateHash","inputs":[],"outputs":[{"name":"","type":"bytes32","internalType":"bytes32"}],"stateMutability":"view"},{"type":"function","name":"updateState","inputs":[{"name":"newStateHash","type":"bytes32","internalType":"bytes32"}],"outputs":[],"stateMutability":"nonpayable"},{"type":"function","name":"valueClaimed","inputs":[{"name":"claimedId","type":"bytes32","internalType":"bytes32"},{"name":"destination","type":"address","internalType":"address"},{"name":"value","type":"uint128","internalType":"uint128"}],"outputs":[],"stateMutability":"nonpayable"},{"type":"event","name":"ExecutableBalanceTopUpRequested","inputs":[{"name":"value","type":"uint128","indexed":false,"internalType":"uint128"}],"anonymous":false},{"type":"event","name":"Message","inputs":[{"name":"id","type":"bytes32","indexed":false,"internalType":"bytes32"},{"name":"destination","type":"address","indexed":true,"internalType":"address"},{"name":"payload","type":"bytes","indexed":false,"internalType":"bytes"},{"name":"value","type":"uint128","indexed":false,"internalType":"uint128"}],"anonymous":false},{"type":"event","name":"MessageQueueingRequested","inputs":[{"name":"id","type":"bytes32","indexed":false,"internalType":"bytes32"},{"name":"source","type":"address","indexed":true,"internalType":"address"},{"name":"payload","type":"bytes","indexed":false,"internalType":"bytes"},{"name":"value","type":"uint128","indexed":false,"internalType":"uint128"}],"anonymous":false},{"type":"event","name":"Reply","inputs":[{"name":"payload","type":"bytes","indexed":false,"internalType":"bytes"},{"name":"value","type":"uint128","indexed":false,"internalType":"uint128"},{"name":"replyTo","type":"bytes32","indexed":false,"internalType":"bytes32"},{"name":"replyCode","type":"bytes4","indexed":true,"internalType":"bytes4"}],"anonymous":false},{"type":"event","name":"ReplyQueueingRequested","inputs":[{"name":"repliedTo","type":"bytes32","indexed":false,"internalType":"bytes32"},{"name":"source","type":"address","indexed":true,"internalType":"address"},{"name":"payload","type":"bytes","indexed":false,"internalType":"bytes"},{"name":"value","type":"uint128","indexed":false,"internalType":"uint128"}],"anonymous":false},{"type":"event","name":"StateChanged","inputs":[{"name":"stateHash","type":"bytes32","indexed":false,"internalType":"bytes32"}],"anonymous":false},{"type":"event","name":"ValueClaimed","inputs":[{"name":"claimedId","type":"bytes32","indexed":false,"internalType":"bytes32"},{"name":"value","type":"uint128","indexed":false,"internalType":"uint128"}],"anonymous":false},{"type":"event","name":"ValueClaimingRequested","inputs":[{"name":"claimedId","type":"bytes32","indexed":false,"internalType":"bytes32"},{"name":"source","type":"address","indexed":true,"internalType":"address"}],"anonymous":false},{"type":"error","name":"FailedDeployment","inputs":[]},{"type":"error","name":"InsufficientBalance","inputs":[{"name":"balance","type":"uint256","internalType":"uint256"},{"name":"needed","type":"uint256","internalType":"uint256"}]}],"bytecode":{"object":"0x608080604052346015576110c1908161001a8239f35b5f80fdfe60806040526004361015610011575f80fd5b5f803560e01c806314503e511461090657806329336f39146108225780635b1b84f714610671578063701da98e14610654578063704ed542146106005780638ea59e1d1461059b57806391d5a64c146105495780639cb3300514610520578063affed0e014610502578063c2df60091461049f578063c78bde7714610422578063d5624222146102c2578063dca4a37314610282578063de1dd2e0146100ee5763f887ea40146100bf575f80fd5b346100eb57806003193601126100eb5760206100d9610da9565b6040516001600160a01b039091168152f35b80fd5b50346100eb5760803660031901126100eb57610108610992565b60243567ffffffffffffffff811161027e576101289036906004016109ea565b906101316109a8565b9261013a6109d4565b936101566001600160a01b0361014e610da9565b163314610a18565b6001549081610222577f3527a119fe7f25d965cb7abc58139f031e8909b8592488c7926862d569e435c6947f85ba4ebb0990fc588bfbb287e2e810a77c858e0a69485d6a938c52c0542366676020846101b161021c96610d7c565b6001556040513060601b6bffffffffffffffffffffffff191683820190815260148101929092526101ef81603484015b03601f198101835282610a7b565b519020986001600160801b0360405191168152a16040516001600160a01b03909416969394859485610b24565b0390a280f35b60405162461bcd60e51b815260206004820152602e60248201527f696e6974206d657373616765206d75737420626520637265617465642062656660448201526d6f726520616e79206f746865727360901b6064820152608490fd5b8280fd5b50346100eb5760203660031901126100eb576102bf61029f6109be565b6102b26001600160a01b0361014e610da9565b6102ba610da9565b610e14565b80f35b5060403660031901126100eb5760043567ffffffffffffffff811161041e576102ef9036906004016109ea565b602435906001600160801b038216820361041a57600460206001600160a01b03610317610da9565b16604051928380926337792e1d60e11b82525afa90811561040f5761036c847f3527a119fe7f25d965cb7abc58139f031e8909b8592488c7926862d569e435c6949361037193602099916103e2575b50610ad0565b610f3f565b60015461037d81610d7c565b6001556040513060601b6bffffffffffffffffffffffff191687820190815260148101929092526103b181603484016101e1565b519020936103d76001600160a01b036103c861105d565b16946040519384938885610b24565b0390a2604051908152f35b6104029150893d8b11610408575b6103fa8183610a7b565b810190610ab1565b5f610366565b503d6103f0565b6040513d87823e3d90fd5b8380fd5b5080fd5b50346100eb5760a03660031901126100eb5761043c610992565b60243567ffffffffffffffff811161027e5761045c9036906004016109ea565b90916104666109a8565b608435926001600160e01b03198416840361049b576102bf946104926001600160a01b0361014e610da9565b60643593610c69565b8580fd5b50346100eb5760803660031901126100eb576104b961097c565b6044359067ffffffffffffffff821161027e576104dd6102bf9236906004016109ea565b906104e66109d4565b926104fa6001600160a01b0361014e610da9565b600435610b91565b50346100eb57806003193601126100eb576020600154604051908152f35b50346100eb57806003193601126100eb576002546040516001600160a01b039091168152602090f35b50346100eb5760203660031901126100eb576001600160a01b0361056b61105d565b167f0354817698da67944179457b89e15c1c57ca7b8cfd9d80eab1d09c258f6c497860206040516004358152a280f35b50346100eb5760203660031901126100eb576004356105c36001600160a01b0361014e610da9565b808254036105cf575080f35b6020817f5c601f20d27885120b6fed87a4c313849b86eaddc9d28e7685e2e66a9c080930928455604051908152a180f35b5060203660031901126100eb577f85ba4ebb0990fc588bfbb287e2e810a77c858e0a69485d6a938c52c05423666760206106386109be565b61064181610f3f565b6001600160801b0360405191168152a180f35b50346100eb57806003193601126100eb5760209054604051908152f35b50346107605760403660031901126107605761068b610992565b61069e6001600160a01b0361014e610da9565b6001546107c3576002546001600160a01b03166107735780763d602d80600a3d3981f3363d3d373d3d3d363d7300000062ffffff6e5af43d82803e903d91602b57fd5bf39360881c16175f5260781b1760205260018060a01b03602435603760095ff516801561076457600280546001600160a01b03191682179055803b15610760575f809160046040518094819363204a7f0760e21b83525af1801561075557610747575080f35b61075391505f90610a7b565b005b6040513d5f823e3d90fd5b5f80fd5b63b06ebf3d60e01b5f5260045ffd5b60405162461bcd60e51b815260206004820152602260248201527f6465636f64657220636f756c64206f6e6c792062652063726561746564206f6e604482015261636560f01b6064820152608490fd5b60405162461bcd60e51b815260206004820152603160248201527f6465636f64657220636f756c64206f6e6c792062652063726561746564206265604482015270666f726520696e6974206d65737361676560781b6064820152608490fd5b60603660031901126107605760243567ffffffffffffffff81116107605761084f600491369083016109ea565b61085a9291926109a8565b9260206001600160a01b0361086d610da9565b16604051948580926337792e1d60e11b82525afa9283156107555761036c857fb64dad8a89028819d048f9c75ec4c516341da68972bb68a8e1262b5443c61e7f956108be935f916108e75750610ad0565b6108e26001600160a01b036108d161105d565b169460405193849360043585610b24565b0390a2005b610900915060203d602011610408576103fa8183610a7b565b88610366565b34610760576060366003190112610760577fa217f2987a7942c2966f1fd16d39097862308325249e8b9fb4c00a430fd65783604061094261097c565b61096361094d6109a8565b9182906102ba6001600160a01b0361014e610da9565b6001600160801b038251916004358352166020820152a1005b602435906001600160a01b038216820361076057565b600435906001600160a01b038216820361076057565b604435906001600160801b038216820361076057565b600435906001600160801b038216820361076057565b606435906001600160801b038216820361076057565b9181601f840112156107605782359167ffffffffffffffff8311610760576020838186019501011161076057565b15610a1f57565b60405162461bcd60e51b815260206004820152602e60248201527f6f6e6c7920726f7574657220636f6e747261637420697320656c696769626c6560448201526d103337b91037b832b930ba34b7b760911b6064820152608490fd5b90601f8019910116810190811067ffffffffffffffff821117610a9d57604052565b634e487b7160e01b5f52604160045260245ffd5b9081602091031261076057516001600160801b03811681036107605790565b906001600160801b03809116911601906001600160801b038211610af057565b634e487b7160e01b5f52601160045260245ffd5b908060209392818452848401375f828201840152601f01601f1916010190565b92604092610b4b916001600160801b03939796978652606060208701526060860191610b04565b9416910152565b3d15610b8c573d9067ffffffffffffffff8211610a9d5760405191610b81601f8201601f191660200184610a7b565b82523d5f602084013e565b606090565b600254909493906001600160a01b031680610be8575b507f9c4ffe7286aed9eb205c8adb12b51219122c7e56c67017f312af0e15f801177393610be39160405194859460018060a01b03169785610b24565b0390a2565b5f80916040518260208201916374fad4ef60e01b83528a602482015260018060a01b038816604482015260806064820152610c4881610c2b60a482018a8d610b04565b6001600160801b038d16608483015203601f198101835282610a7b565b51926207a120f1610c57610b52565b50610c62575f610ba7565b5050505050565b94909294610c778682610e14565b6002546001600160a01b03169081610ce9575b50507fe240a19e4a4ef8e5861c0eea48f9ab2cdb47bfe98347c94ccabb9c45f7d8d1c6936001600160801b03610ccd604051958695606087526060870191610b04565b9616602084015260408301526001600160e01b031916930390a2565b604051639649744960e01b602082019081526001600160a01b03909216602482015260a060448201525f92839290918390610d61818c6001600160801b03610d3560c484018d8f610b04565b91166064830152608482018d90526001600160e01b03198a1660a483015203601f198101835282610a7b565b51926207a120f1610d70610b52565b50610c62575f80610c8a565b5f198114610af05760010190565b9081602091031261076057516001600160a01b03811681036107605790565b6040516303e21fa960e61b8152602081600481305afa908115610755575f91610dd0575090565b610df2915060203d602011610df5575b610dea8183610a7b565b810190610d8a565b90565b503d610de0565b90816020910312610760575180151581036107605790565b60049160206001600160a01b03610e29610da9565b166040519485809263088f50cf60e41b82525afa928315610755575f93610f15575b506001600160801b031680610e5f57505050565b60405163a9059cbb60e01b81526001600160a01b039283166004820152602481019190915291602091839160449183915f91165af1908115610755575f91610ee6575b5015610eaa57565b60405162461bcd60e51b81526020600482015260146024820152736661696c656420746f2073656e6420575661726160601b6044820152606490fd5b610f08915060203d602011610f0e575b610f008183610a7b565b810190610dfc565b5f610ea2565b503d610ef6565b6001600160801b03919350610f389060203d602011610df557610dea8183610a7b565b9290610e4b565b6001600160a01b03610f4f610da9565b60405163088f50cf60e41b81529116602082600481845afa918215610755576020926064915f91611040575b505f610f8561105d565b6040516323b872dd60e01b81526001600160a01b03918216600482015260248101959095526001600160801b039690961660448501529294859384929091165af1908115610755575f91611021575b5015610fdc57565b60405162461bcd60e51b815260206004820152601860248201527f6661696c656420746f20726574726965766520575661726100000000000000006044820152606490fd5b61103a915060203d602011610f0e57610f008183610a7b565b5f610fd4565b6110579150843d8611610df557610dea8183610a7b565b5f610f7b565b6002546001600160a01b03168015159081611081575b501561107d573290565b3390565b905033145f61107356fea26469706673582212209dca30c0fdebf549f81fadafbb5be9c8f652c9b50c8942508ed1283252d04a7664736f6c634300081a0033","linkReferences":{}},"methodIdentifiers":{"claimValue(bytes32)":"91d5a64c","createDecoder(address,bytes32)":"5b1b84f7","decoder()":"9cb33005","executableBalanceBurned(uint128)":"dca4a373","executableBalanceTopUp(uint128)":"704ed542","initMessage(address,bytes,uint128,uint128)":"de1dd2e0","messageSent(bytes32,address,bytes,uint128)":"c2df6009","nonce()":"affed0e0","replySent(address,bytes,uint128,bytes32,bytes4)":"c78bde77","router()":"f887ea40","sendMessage(bytes,uint128)":"d5624222","sendReply(bytes32,bytes,uint128)":"29336f39","stateHash()":"701da98e","updateState(bytes32)":"8ea59e1d","valueClaimed(bytes32,address,uint128)":"14503e51"},"storageLayout":{"storage":[{"astId":54042,"contract":"src/Mirror.sol:Mirror","label":"stateHash","offset":0,"slot":"0","type":"t_bytes32"},{"astId":54044,"contract":"src/Mirror.sol:Mirror","label":"nonce","offset":0,"slot":"1","type":"t_uint256"},{"astId":54046,"contract":"src/Mirror.sol:Mirror","label":"decoder","offset":0,"slot":"2","type":"t_address"}],"types":{"t_address":{"encoding":"inplace","label":"address","numberOfBytes":"20"},"t_bytes32":{"encoding":"inplace","label":"bytes32","numberOfBytes":"32"},"t_uint256":{"encoding":"inplace","label":"uint256","numberOfBytes":"32"}}},"id":80}