{"abi":[{"type":"constructor","inputs":[{"name":"_router","type":"address","internalType":"address"}],"stateMutability":"nonpayable"},{"type":"fallback","stateMutability":"payable"},{"type":"function","name":"claimValue","inputs":[{"name":"_claimedId","type":"bytes32","internalType":"bytes32"}],"outputs":[],"stateMutability":"nonpayable"},{"type":"function","name":"executableBalanceTopUp","inputs":[{"name":"_value","type":"uint128","internalType":"uint128"}],"outputs":[],"stateMutability":"nonpayable"},{"type":"function","name":"exited","inputs":[],"outputs":[{"name":"","type":"bool","internalType":"bool"}],"stateMutability":"view"},{"type":"function","name":"f","inputs":[],"outputs":[],"stateMutability":"payable"},{"type":"function","name":"inheritor","inputs":[],"outputs":[{"name":"","type":"address","internalType":"address"}],"stateMutability":"view"},{"type":"function","name":"initialize","inputs":[{"name":"_initializer","type":"address","internalType":"address"},{"name":"_abiInterface","type":"address","internalType":"address"},{"name":"_isSmall","type":"bool","internalType":"bool"}],"outputs":[],"stateMutability":"nonpayable"},{"type":"function","name":"initializer","inputs":[],"outputs":[{"name":"","type":"address","internalType":"address"}],"stateMutability":"view"},{"type":"function","name":"nonce","inputs":[],"outputs":[{"name":"","type":"uint256","internalType":"uint256"}],"stateMutability":"view"},{"type":"function","name":"performStateTransition","inputs":[{"name":"_transition","type":"tuple","internalType":"struct Gear.StateTransition","components":[{"name":"actorId","type":"address","internalType":"address"},{"name":"newStateHash","type":"bytes32","internalType":"bytes32"},{"name":"exited","type":"bool","internalType":"bool"},{"name":"inheritor","type":"address","internalType":"address"},{"name":"valueToReceive","type":"uint128","internalType":"uint128"},{"name":"valueToReceiveNegativeSign","type":"bool","internalType":"bool"},{"name":"valueClaims","type":"tuple[]","internalType":"struct Gear.ValueClaim[]","components":[{"name":"messageId","type":"bytes32","internalType":"bytes32"},{"name":"destination","type":"address","internalType":"address"},{"name":"value","type":"uint128","internalType":"uint128"}]},{"name":"messages","type":"tuple[]","internalType":"struct Gear.Message[]","components":[{"name":"id","type":"bytes32","internalType":"bytes32"},{"name":"destination","type":"address","internalType":"address"},{"name":"payload","type":"bytes","internalType":"bytes"},{"name":"value","type":"uint128","internalType":"uint128"},{"name":"replyDetails","type":"tuple","internalType":"struct Gear.ReplyDetails","components":[{"name":"to","type":"bytes32","internalType":"bytes32"},{"name":"code","type":"bytes4","internalType":"bytes4"}]},{"name":"call","type":"bool","internalType":"bool"}]}]}],"outputs":[{"name":"","type":"bytes32","internalType":"bytes32"}],"stateMutability":"nonpayable"},{"type":"function","name":"router","inputs":[],"outputs":[{"name":"","type":"address","internalType":"address"}],"stateMutability":"view"},{"type":"function","name":"sendMessage","inputs":[{"name":"_payload","type":"bytes","internalType":"bytes"},{"name":"_callReply","type":"bool","internalType":"bool"}],"outputs":[{"name":"","type":"bytes32","internalType":"bytes32"}],"stateMutability":"payable"},{"type":"function","name":"sendReply","inputs":[{"name":"_repliedTo","type":"bytes32","internalType":"bytes32"},{"name":"_payload","type":"bytes","internalType":"bytes"}],"outputs":[],"stateMutability":"payable"},{"type":"function","name":"stateHash","inputs":[],"outputs":[{"name":"","type":"bytes32","internalType":"bytes32"}],"stateMutability":"view"},{"type":"function","name":"transferLockedValueToInheritor","inputs":[],"outputs":[],"stateMutability":"nonpayable"},{"type":"event","name":"ExecutableBalanceTopUpRequested","inputs":[{"name":"value","type":"uint128","indexed":false,"internalType":"uint128"}],"anonymous":false},{"type":"event","name":"Message","inputs":[{"name":"id","type":"bytes32","indexed":false,"internalType":"bytes32"},{"name":"destination","type":"address","indexed":true,"internalType":"address"},{"name":"payload","type":"bytes","indexed":false,"internalType":"bytes"},{"name":"value","type":"uint128","indexed":false,"internalType":"uint128"}],"anonymous":false},{"type":"event","name":"MessageCallFailed","inputs":[{"name":"id","type":"bytes32","indexed":false,"internalType":"bytes32"},{"name":"destination","type":"address","indexed":true,"internalType":"address"},{"name":"value","type":"uint128","indexed":false,"internalType":"uint128"}],"anonymous":false},{"type":"event","name":"MessageQueueingRequested","inputs":[{"name":"id","type":"bytes32","indexed":false,"internalType":"bytes32"},{"name":"source","type":"address","indexed":true,"internalType":"address"},{"name":"payload","type":"bytes","indexed":false,"internalType":"bytes"},{"name":"value","type":"uint128","indexed":false,"internalType":"uint128"},{"name":"callReply","type":"bool","indexed":false,"internalType":"bool"}],"anonymous":false},{"type":"event","name":"OwnedBalanceTopUpRequested","inputs":[{"name":"value","type":"uint128","indexed":false,"internalType":"uint128"}],"anonymous":false},{"type":"event","name":"Reply","inputs":[{"name":"payload","type":"bytes","indexed":false,"internalType":"bytes"},{"name":"value","type":"uint128","indexed":false,"internalType":"uint128"},{"name":"replyTo","type":"bytes32","indexed":false,"internalType":"bytes32"},{"name":"replyCode","type":"bytes4","indexed":true,"internalType":"bytes4"}],"anonymous":false},{"type":"event","name":"ReplyCallFailed","inputs":[{"name":"value","type":"uint128","indexed":false,"internalType":"uint128"},{"name":"replyTo","type":"bytes32","indexed":false,"internalType":"bytes32"},{"name":"replyCode","type":"bytes4","indexed":true,"internalType":"bytes4"}],"anonymous":false},{"type":"event","name":"ReplyQueueingRequested","inputs":[{"name":"repliedTo","type":"bytes32","indexed":false,"internalType":"bytes32"},{"name":"source","type":"address","indexed":true,"internalType":"address"},{"name":"payload","type":"bytes","indexed":false,"internalType":"bytes"},{"name":"value","type":"uint128","indexed":false,"internalType":"uint128"}],"anonymous":false},{"type":"event","name":"StateChanged","inputs":[{"name":"stateHash","type":"bytes32","indexed":false,"internalType":"bytes32"}],"anonymous":false},{"type":"event","name":"ValueClaimed","inputs":[{"name":"claimedId","type":"bytes32","indexed":false,"internalType":"bytes32"},{"name":"value","type":"uint128","indexed":false,"internalType":"uint128"}],"anonymous":false},{"type":"event","name":"ValueClaimingRequested","inputs":[{"name":"claimedId","type":"bytes32","indexed":false,"internalType":"bytes32"},{"name":"source","type":"address","indexed":true,"internalType":"address"}],"anonymous":false}],"bytecode":{"object":"0x60a03461007e57601f611d4638819003918201601f19168301916001600160401b038311848410176100825780849260209460405283398101031261007e57516001600160a01b038116810361007e57608052604051611caf9081610097823960805181818160d2015281816104fc015281816115af015261171a0152f35b5f80fd5b634e487b7160e01b5f52604160045260245ffdfe60806040526004361015610018575b61001661146b565b005b5f5f3560e01c8063084f443a146108a157806326121ff01461089257806336a52a181461086557806342129d00146106c25780635ce6c3271461069f578063701da98e14610682578063704ed542146104895780637a8e0cdd146103fb57806391d5a64c146103a85780639ce110d71461037f578063affed0e014610361578063e43f3433146102e4578063e4bbb5a8146101045763f887ea40146100bd575061000e565b346101015780600319360112610101576040517f00000000000000000000000000000000000000000000000000000000000000006001600160a01b03168152602090f35b80fd5b5034610101576060366003190112610101576004356001600160a01b038116908190036102e0576024356001600160a01b03811691908290036102dc57604435908115158092036102d8576101576115ad565b600354906001600160a01b0382166102885760ff8260a01c16610243577f360894a13ba1a3210667c828492db98dca3e2076cc3735a920a3ca505d382bbc54926001600160a01b0384166101f2576001600160a81b03199092161760a09190911b60ff60a01b16176003556001600160a01b031916177f360894a13ba1a3210667c828492db98dca3e2076cc3735a920a3ca505d382bbc5580f35b60405162461bcd60e51b8152602060048201526024808201527f61626920696e7465726661636520636f756c64206f6e6c7920626520736574206044820152636f6e636560e01b6064820152608490fd5b60405162461bcd60e51b815260206004820152601e60248201527f6973536d616c6c20636f756c64206f6e6c7920626520736574206f6e636500006044820152606490fd5b60405162461bcd60e51b815260206004820152602260248201527f696e697469616c697a657220636f756c64206f6e6c7920626520736574206f6e604482015261636560f01b6064820152608490fd5b8380fd5b8280fd5b5080fd5b503461010157806003193601126101015760025460ff8116156103245761032190476001600160801b03169060081c6001600160a01b03166117c0565b80f35b60405162461bcd60e51b81526020600482015260156024820152741c1c9bd9dc985b481a5cc81b9bdd08195e1a5d1959605a1b6044820152606490fd5b50346101015780600319360112610101576020600154604051908152f35b50346101015780600319360112610101576003546040516001600160a01b039091168152602090f35b5034610101576020366003190112610101576103c261165a565b6103ca61169f565b60405160043581527f0354817698da67944179457b89e15c1c57ca7b8cfd9d80eab1d09c258f6c497860203392a280f35b506040366003190112610101576024356001600160401b0381116102e0576104487fb64dad8a89028819d048f9c75ec4c516341da68972bb68a8e1262b5443c61e7f913690600401611328565b61045392919261165a565b61045b61169f565b6001600160801b0334169061046f82611702565b61048360405192839233966004358561143d565b0390a280f35b5034610101576020366003190112610101576004356001600160801b0381168091036102e0576104b761165a565b806104eb575b60207f85ba4ebb0990fc588bfbb287e2e810a77c858e0a69485d6a938c52c05423666791604051908152a180f35b60405163088f50cf60e41b815282907f00000000000000000000000000000000000000000000000000000000000000006001600160a01b031690602081600481855afa90811561063257839161063d575b50606460209260405194859384926323b872dd60e01b8452336004850152602484015287604484015260018060a01b03165af19081156106325783916105f7575b506104bd5760405162461bcd60e51b815260206004820152604160248201527f6661696c656420746f207472616e73666572206e6f6e2d7a65726f20616d6f7560448201527f6e74206f662057566172612066726f6d20736f7572636520746f20726f7574656064820152603960f91b608482015260a490fd5b90506020813d60201161062a575b81610612602093836113b2565b810103126102dc575180151581036102dc575f61057d565b3d9150610605565b6040513d85823e3d90fd5b90506020813d60201161067a575b81610658602093836113b2565b810103126102dc5751906001600160a01b03821682036102dc5790606461053c565b3d915061064b565b503461010157806003193601126101015760209054604051908152f35b5034610101578060031936011261010157602060ff600254166040519015158152f35b506040366003190112610101576004356001600160401b0381116102e0576106ee903690600401611328565b916024358015158091036102e05761070461165a565b60015415801590610851575b156107cf576001600160801b0334169161072983611702565b600154905f1982146107bb5750937f9d835932f9695ed8acd7290fb99476799c321b20b15a597a99b597bdfb907c54916107a286600160209801600155604051888101913060601b83526034820152603481526107876054826113b2565b5190209560405193878552608089860152608085019161141d565b93604083015260608201528033930390a2604051908152f35b634e487b7160e01b81526011600452602490fd5b60405162461bcd60e51b815260206004820152604e60248201527f696e697469616c697a6572206861736e2774206372656174656420696e69742060448201527f6d657373616765207965743b20616e642063616c6c6572206973206e6f74207460648201526d34329034b734ba34b0b634bd32b960911b608482015260a490fd5b506003546001600160a01b03163314610710565b503461010157806003193601126101015760025460405160089190911c6001600160a01b03168152602090f35b50806003193601126101015780f35b5034610e8e576020366003190112610e8e576001600160401b0360043511610e8e576004353603610100600319820112610e8e576108dd6115ad565b6108eb60043560040161137d565b306001600160a01b03909116036112e3576001600160801b03610912608460043501611391565b161515806112cf575b611239575b60043560e401356022198201811215610e8e576001600160401b03600482813501013511610e8e57600481813501013560051b803603602483600435010113610e8e57600480358301013580820460201490151715610e7a5761099b610985826113d3565b9161099360405193846113b2565b8083526113d3565b601f19013660208301375f93845b6004848135010135861015610ea657600586901b600435850190810160240135969036036101021901871215610e8e5760e06023196004358701890136030112610e8e5760405160c081018181106001600160401b03821117610e92576040526004358601880160248101358252610a2390604401611369565b6020820190815290606460043588018a0101356001600160401b038111610e8e5760209060048b8a8235010101010136601f82011215610e8e57610a6e903690602081359101611624565b60408201908152610a8760846004358a018c0101611355565b6060830190815291604060a3196004358b018d0136030112610e8e57604051604081018181106001600160401b03821117610e92576040526004358a018c0160a4810135825260c40135926001600160e01b031984168403610e8e57602082019384526080830182905260e46004358c018e01013591821515808403610e8e57610b8d958560549560a060359801525198519351975192519063ffffffff60e01b905116906020604051998a968288019c8d526001600160601b03199060601b1660408801528051918291018888015e8501936001600160801b03199060801b16868501526064840152608483015260f81b6088820152030160158101845201826113b2565b5190206020838601015260208201809211610e7a5790956001919060a4600435870182010135610bd25760206004610bcb9288823501010101611878565b01946109a9565b610be460e460043588018301016113a5565b15610dc0576001600160f81b0319610c0460c46004358901840101611863565b5f1a60f81b161586826060925f14610d38575f9250610c3d60606004610c4493869582350101010160206004878d823501010101611831565b3691611624565b886001600160801b03610c726080600488610c6660448335880183010161137d565b95823501010101611391565b16602083519301916207a120f1610c876113ee565b5015610c94575b50610bcb565b610cc1610ca96044600435890184010161137d565b610cbb60846004358a01850101611391565b906117c0565b7f5136ea80de584762b9532903198dfdd1125167a8685e943b1bc5d16b777151c36040610cf660846004358a01850101611391565b60a060046001600160e01b0319610d1460c483358e01890101611863565b16956001600160801b038551941684528b823501010101356020820152a25f610c8e565b5f928392610dbb91610d9e610d5a600435840186016064810190602401611831565b610d6c60c46004358701890101611863565b9360206004604051998a98634a646c7f60e01b848b01528235010101013560248701526044860152608485019161141d565b9063ffffffff60e01b16606483015203601f1981018352826113b2565b610c44565b610dd5610ca96044600435890184010161137d565b7fe240a19e4a4ef8e5861c0eea48f9ab2cdb47bfe98347c94ccabb9c45f7d8d1c6610e0d600435880183016064810190602401611831565b610e1f60846004358b01860101611391565b60a060046001600160e01b0319610e3d60c483358f018a0101611863565b16966001600160801b03610e5e60405197889760608952606089019161141d565b941660208601528c8235010101013560408301520390a2610bcb565b634e487b7160e01b5f52601160045260245ffd5b5f80fd5b634e487b7160e01b5f52604160045260245ffd5b508151602083012060043560c401356022198601811215610e8e57600435016004810135916001600160401b038311610e8e576060830236036024830113610e8e576060935f5b8481101561103e576004606082028501016060601f198236030112610e8e5760405190606082018281106001600160401b03821117610e92576040526020810135918281526040820198610f408a611369565b9283602084015260600192610f5484611355565b6040819401526040519260208401918683526001600160601b03199060601b1660408501526001600160801b03199060801b16605484015260448352610f9b6064846113b2565b60405192828493516020819201602086015e83019060208201905f8252519283915e016020015f815203601f1981018252610fd690826113b2565b97610fe09061137d565b610fe982611391565b610ff2916117c0565b610ffb90611391565b604080519283526001600160801b039190911660208301527fa217f2987a7942c2966f1fd16d39097862308325249e8b9fb4c00a430fd6578391a1600101610eed565b50845160208601209160043560440191611057836113a5565b156111c4575091602092600161107160646004350161137d565b61107961165a565b600280546001600160a81b031916600892831b60ff1960a886901b011617909217918290555f93916110c091476001600160801b031691901c6001600160a01b03166117c0565b8254602460043501359384809203611193575b50506110ec6110e660043560040161137d565b946113a5565b6110fa60646004350161137d565b611108608460043501611391565b9061111760a4600435016113a5565b9260405196898801986001600160601b03199060601b1689526034880152151560f81b60548701526001600160601b03199060601b1660558601526001600160801b03199060801b166069850152151560f81b6079840152607a830152609a820152609a815261118860ba826113b2565b519020604051908152f35b557f5c601f20d27885120b6fed87a4c313849b86eaddc9d28e7685e2e66a9c08093085604051858152a182866110d3565b906001600160a01b036111db60043560640161137d565b166111e8576020936110c0565b60405162461bcd60e51b8152602060048201526024808201527f696e68657269746f72206d757374206265207a65726f206966206e6f742065786044820152631a5d195960e21b6064820152608490fd5b5f8080806001600160801b03611253608460043501611391565b16335af161125f6113ee565b506109205760405162461bcd60e51b815260206004820152603a60248201527f6661696c656420746f207472616e736665722076616c756520746f20726f757460448201527f657220647572696e67207374617465207472616e736974696f6e0000000000006064820152608490fd5b506112de60a4600435016113a5565b61091b565b60405162461bcd60e51b815260206004820152601d60248201527f6163746f724964206d757374206265207468697320636f6e74726163740000006044820152606490fd5b9181601f84011215610e8e578235916001600160401b038311610e8e5760208381860195010111610e8e57565b35906001600160801b0382168203610e8e57565b35906001600160a01b0382168203610e8e57565b356001600160a01b0381168103610e8e5790565b356001600160801b0381168103610e8e5790565b358015158103610e8e5790565b90601f801991011681019081106001600160401b03821117610e9257604052565b6001600160401b038111610e9257601f01601f191660200190565b3d15611418573d906113ff826113d3565b9161140d60405193846113b2565b82523d5f602084013e565b606090565b908060209392818452848401375f828201840152601f01601f1916010190565b92604092611464916001600160801b0393979697865260606020870152606086019161141d565b9416910152565b341515806115a5575b6115705760ff60035460a01c16610e8e5760243610610e8e5761149561165a565b6001541580159061155c575b156107cf576001600160801b0334166114b981611702565b6001545f198114610e7a576001810160015560405160208101913060601b83526034820152603481526114ed6054826113b2565b519020907f9d835932f9695ed8acd7290fb99476799c321b20b15a597a99b597bdfb907c5460405183815260806020820152602060808201368152365f838301375f823683010152601f19601f3601160101926040820152600435151560608201528033930390a25f5260205ff35b506003546001600160a01b031633146114a1565b7f134041dec9803c024e94a2479679395a15b6ae0034c4d424ab47712aa182620660206040516001600160801b0334168152a1565b503615611474565b7f00000000000000000000000000000000000000000000000000000000000000006001600160a01b031633036115df57565b60405162461bcd60e51b815260206004820152601860248201527f63616c6c6572206973206e6f742074686520726f7574657200000000000000006044820152606490fd5b929192611630826113d3565b9161163e60405193846113b2565b829481845281830111610e8e578281602093845f960137010152565b60ff6002541661166657565b60405162461bcd60e51b81526020600482015260116024820152701c1c9bd9dc985b481a5cc8195e1a5d1959607a1b6044820152606490fd5b600154156116a957565b60405162461bcd60e51b815260206004820152602b60248201527f696e697469616c697a6572206861736e2774206372656174656420696e69742060448201526a1b595cdcd859d9481e595d60aa1b6064820152608490fd5b6001600160801b0316806117135750565b5f808080937f00000000000000000000000000000000000000000000000000000000000000005af16117436113ee565b501561174b57565b60405162461bcd60e51b815260206004820152604160248201527f6661696c656420746f207472616e73666572206e6f6e2d7a65726f20616d6f7560448201527f6e74206f662045746865722066726f6d20736f7572636520746f20726f7574656064820152603960f91b608482015260a490fd5b906001600160801b031690816117d4575050565b5f80809381935af16117e46113ee565b50156117ec57565b60405162461bcd60e51b815260206004820152601860248201527f6661696c656420746f207472616e7366657220457468657200000000000000006044820152606490fd5b903590601e1981360301821215610e8e57018035906001600160401b038211610e8e57602001918136038313610e8e57565b356001600160e01b031981168103610e8e5790565b611881816119ae565b156118895750565b61189560c082016113a5565b611902575b7f9c4ffe7286aed9eb205c8adb12b51219122c7e56c67017f312af0e15f80117736118fd6118ca6020840161137d565b6118d76040850185611831565b6118e660608795939501611391565b9060405194859460018060a01b031697358561143d565b0390a2565b602081015f806119118361137d565b8161191f6040870187611831565b9190826040519384928337810182815203926207a120f161193e6113ee565b501561194a575061189a565b6119747f76c87872723521658a1c429bc5e355c5ad7b30719dae90158fe2b591f9ea56f89161137d565b61198060608401611391565b60408051943585526001600160801b0390911660208501526001600160a01b039091169290819081016118fd565b6119bb6040820182611831565b90916001600160a01b03806119d26020840161137d565b16149081611c91575b5080611c88575b15611c825781358060f81c90600182101580611c77575b15611c6f5760f31c611fe01690600182018310611c6f576001840135927f5c601f20d27885120b6fed87a4c313849b86eaddc9d28e7685e2e66a9c08093084141580611c45575b80611c1b575b80611bf1575b80611bc7575b80611b9d575b80611b73575b80611b49575b80611b1f575b15611b1657829003905f1982019260405192601e601f1991011683018381106001600160401b03821117610e8e5760405283908601600101833760218501359460418101359160018103611ac55750505090919250a1600190565b60028103611ad657505050a2600190565b600381979593969497145f14611af257505090919293a3600190565b600414611b05575b505050505050600190565b6061013594a45f8080808080611afa565b50505050505f90565b507fa217f2987a7942c2966f1fd16d39097862308325249e8b9fb4c00a430fd65783841415611a6a565b507fe240a19e4a4ef8e5861c0eea48f9ab2cdb47bfe98347c94ccabb9c45f7d8d1c6841415611a64565b507f9c4ffe7286aed9eb205c8adb12b51219122c7e56c67017f312af0e15f8011773841415611a5e565b507f85ba4ebb0990fc588bfbb287e2e810a77c858e0a69485d6a938c52c054236667841415611a58565b507f134041dec9803c024e94a2479679395a15b6ae0034c4d424ab47712aa1826206841415611a52565b507f0354817698da67944179457b89e15c1c57ca7b8cfd9d80eab1d09c258f6c4978841415611a4c565b507fb64dad8a89028819d048f9c75ec4c516341da68972bb68a8e1262b5443c61e7f841415611a46565b507f9d835932f9695ed8acd7290fb99476799c321b20b15a597a99b597bdfb907c54841415611a40565b505050505f90565b5060048211156119f9565b50505f90565b508015156119e2565b6001600160801b0391506060611ca79101611391565b16155f6119db56","linkReferences":{}},"methodIdentifiers":{"claimValue(bytes32)":"91d5a64c","executableBalanceTopUp(uint128)":"704ed542","exited()":"5ce6c327","f()":"26121ff0","inheritor()":"36a52a18","initialize(address,address,bool)":"e4bbb5a8","initializer()":"9ce110d7","nonce()":"affed0e0","performStateTransition((address,bytes32,bool,address,uint128,bool,(bytes32,address,uint128)[],(bytes32,address,bytes,uint128,(bytes32,bytes4),bool)[]))":"084f443a","router()":"f887ea40","sendMessage(bytes,bool)":"42129d00","sendReply(bytes32,bytes)":"7a8e0cdd","stateHash()":"701da98e","transferLockedValueToInheritor()":"e43f3433"},"storageLayout":{"storage":[{"astId":74855,"contract":"src/Mirror.sol:Mirror","label":"stateHash","offset":0,"slot":"0","type":"t_bytes32"},{"astId":74858,"contract":"src/Mirror.sol:Mirror","label":"nonce","offset":0,"slot":"1","type":"t_uint256"},{"astId":74861,"contract":"src/Mirror.sol:Mirror","label":"exited","offset":0,"slot":"2","type":"t_bool"},{"astId":74864,"contract":"src/Mirror.sol:Mirror","label":"inheritor","offset":1,"slot":"2","type":"t_address"},{"astId":74867,"contract":"src/Mirror.sol:Mirror","label":"initializer","offset":0,"slot":"3","type":"t_address"},{"astId":74870,"contract":"src/Mirror.sol:Mirror","label":"isSmall","offset":20,"slot":"3","type":"t_bool"}],"types":{"t_address":{"encoding":"inplace","label":"address","numberOfBytes":"20"},"t_bool":{"encoding":"inplace","label":"bool","numberOfBytes":"1"},"t_bytes32":{"encoding":"inplace","label":"bytes32","numberOfBytes":"32"},"t_uint256":{"encoding":"inplace","label":"uint256","numberOfBytes":"32"}}},"id":152}