{"abi":[{"type":"function","name":"claimValue","inputs":[{"name":"messageId","type":"bytes32","internalType":"bytes32"}],"outputs":[],"stateMutability":"nonpayable"},{"type":"function","name":"performPayout","inputs":[{"name":"actorId","type":"address","internalType":"address"},{"name":"value","type":"uint128","internalType":"uint128"}],"outputs":[],"stateMutability":"nonpayable"},{"type":"function","name":"performStateTransition","inputs":[{"name":"oldStateHash","type":"bytes32","internalType":"bytes32"},{"name":"newStateHash","type":"bytes32","internalType":"bytes32"}],"outputs":[],"stateMutability":"nonpayable"},{"type":"function","name":"router","inputs":[],"outputs":[{"name":"","type":"address","internalType":"address"}],"stateMutability":"view"},{"type":"function","name":"sendMessage","inputs":[{"name":"payload","type":"bytes","internalType":"bytes"},{"name":"gasLimit","type":"uint64","internalType":"uint64"}],"outputs":[],"stateMutability":"payable"},{"type":"function","name":"sendReply","inputs":[{"name":"replyToId","type":"bytes32","internalType":"bytes32"},{"name":"payload","type":"bytes","internalType":"bytes"},{"name":"gasLimit","type":"uint64","internalType":"uint64"}],"outputs":[],"stateMutability":"payable"},{"type":"function","name":"stateHash","inputs":[],"outputs":[{"name":"","type":"bytes32","internalType":"bytes32"}],"stateMutability":"view"}],"bytecode":{"object":"0x6080604052348015600e575f80fd5b5061071b8061001c5f395ff3fe60806040526004361061006e575f3560e01c8063ab6fd6b61161004c578063ab6fd6b6146100d9578063d8897e87146100ec578063e9e2d099146100ff578063f887ea401461011e575f80fd5b8063701da98e1461007257806391d5a64c146100995780639336255f146100ba575b5f80fd5b34801561007d575f80fd5b506100865f5481565b6040519081526020015b60405180910390f35b3480156100a4575f80fd5b506100b86100b3366004610498565b61014a565b005b3480156100c5575f80fd5b506100b86100d43660046104c6565b6101af565b6100b86100e7366004610569565b6102ad565b6100b86100fa3660046105b9565b61031a565b34801561010a575f80fd5b506100b8610119366004610613565b610388565b348015610129575f80fd5b50610132610432565b6040516001600160a01b039091168152602001610090565b610152610432565b6001600160a01b03166391d5a64c826040518263ffffffff1660e01b815260040161017f91815260200190565b5f604051808303815f87803b158015610196575f80fd5b505af11580156101a8573d5f803e3d5ffd5b5050505050565b6101b7610432565b6001600160a01b0316336001600160a01b0316146102095760405162461bcd60e51b815260206004820152600a6024820152693737ba103937baba32b960b11b60448201526064015b60405180910390fd5b5f826001600160a01b0316826001600160801b03166040515f6040518083038185875af1925050503d805f811461025b576040519150601f19603f3d011682016040523d82523d5f602084013e610260565b606091505b50509050806102a85760405162461bcd60e51b81526020600482015260146024820152736661696c656420746f2073656e642076616c756560601b6044820152606401610200565b505050565b6102b5610432565b6001600160a01b03166375e7e6dd30858585346040518663ffffffff1660e01b81526004016102e895949392919061065b565b5f604051808303815f87803b1580156102ff575f80fd5b505af1158015610311573d5f803e3d5ffd5b50505050505050565b610322610432565b6001600160a01b03166332bc103a85858585346040518663ffffffff1660e01b81526004016103559594939291906106aa565b5f604051808303815f87803b15801561036c575f80fd5b505af115801561037e573d5f803e3d5ffd5b5050505050505050565b610390610432565b6001600160a01b0316336001600160a01b0316146103dd5760405162461bcd60e51b815260206004820152600a6024820152693737ba103937baba32b960b11b6044820152606401610200565b815f541461042d5760405162461bcd60e51b815260206004820152601860248201527f696e76616c6964207374617465207472616e736974696f6e00000000000000006044820152606401610200565b5f5550565b5f306001600160a01b031663f887ea406040518163ffffffff1660e01b8152600401602060405180830381865afa15801561046f573d5f803e3d5ffd5b505050506040513d601f19601f8201168201806040525081019061049391906106c3565b905090565b5f602082840312156104a8575f80fd5b5035919050565b6001600160a01b03811681146104c3575f80fd5b50565b5f80604083850312156104d7575f80fd5b82356104e2816104af565b915060208301356001600160801b03811681146104fd575f80fd5b809150509250929050565b5f8083601f840112610518575f80fd5b50813567ffffffffffffffff81111561052f575f80fd5b602083019150836020828501011115610546575f80fd5b9250929050565b803567ffffffffffffffff81168114610564575f80fd5b919050565b5f805f6040848603121561057b575f80fd5b833567ffffffffffffffff811115610591575f80fd5b61059d86828701610508565b90945092506105b090506020850161054d565b90509250925092565b5f805f80606085870312156105cc575f80fd5b84359350602085013567ffffffffffffffff8111156105e9575f80fd5b6105f587828801610508565b909450925061060890506040860161054d565b905092959194509250565b5f8060408385031215610624575f80fd5b50508035926020909101359150565b81835281816020850137505f828201602090810191909152601f909101601f19169091010190565b6001600160a01b03861681526080602082018190525f9061067f9083018688610633565b905067ffffffffffffffff841660408301526001600160801b03831660608301529695505050505050565b858152608060208201525f61067f608083018688610633565b5f602082840312156106d3575f80fd5b81516106de816104af565b939250505056fea2646970667358221220d3a952f47626377ddea7d11916aae87d76b938c7850dbd3a2f8a66f23789a1d564736f6c634300081a0033","linkReferences":{}},"methodIdentifiers":{"claimValue(bytes32)":"91d5a64c","performPayout(address,uint128)":"9336255f","performStateTransition(bytes32,bytes32)":"e9e2d099","router()":"f887ea40","sendMessage(bytes,uint64)":"ab6fd6b6","sendReply(bytes32,bytes,uint64)":"d8897e87","stateHash()":"701da98e"},"storageLayout":{"storage":[{"astId":53694,"contract":"src/Program.sol:Program","label":"stateHash","offset":0,"slot":"0","type":"t_bytes32"}],"types":{"t_bytes32":{"encoding":"inplace","label":"bytes32","numberOfBytes":"32"}}},"id":77}