{"abi":[{"type":"function","name":"claimValue","inputs":[{"name":"_claimedId","type":"bytes32","internalType":"bytes32"}],"outputs":[],"stateMutability":"nonpayable"},{"type":"function","name":"decoder","inputs":[],"outputs":[{"name":"","type":"address","internalType":"address"}],"stateMutability":"view"},{"type":"function","name":"executableBalanceTopUp","inputs":[{"name":"_value","type":"uint128","internalType":"uint128"}],"outputs":[],"stateMutability":"nonpayable"},{"type":"function","name":"inheritor","inputs":[],"outputs":[{"name":"","type":"address","internalType":"address"}],"stateMutability":"view"},{"type":"function","name":"initialize","inputs":[{"name":"_initializer","type":"address","internalType":"address"},{"name":"_decoder","type":"address","internalType":"address"}],"outputs":[],"stateMutability":"nonpayable"},{"type":"function","name":"initializer","inputs":[],"outputs":[{"name":"","type":"address","internalType":"address"}],"stateMutability":"view"},{"type":"function","name":"nonce","inputs":[],"outputs":[{"name":"","type":"uint256","internalType":"uint256"}],"stateMutability":"view"},{"type":"function","name":"performStateTransition","inputs":[{"name":"_transition","type":"tuple","internalType":"struct Gear.StateTransition","components":[{"name":"actorId","type":"address","internalType":"address"},{"name":"newStateHash","type":"bytes32","internalType":"bytes32"},{"name":"inheritor","type":"bytes","internalType":"bytes"},{"name":"valueToReceive","type":"uint128","internalType":"uint128"},{"name":"valueClaims","type":"tuple[]","internalType":"struct Gear.ValueClaim[]","components":[{"name":"messageId","type":"bytes32","internalType":"bytes32"},{"name":"destination","type":"address","internalType":"address"},{"name":"value","type":"uint128","internalType":"uint128"}]},{"name":"messages","type":"tuple[]","internalType":"struct Gear.Message[]","components":[{"name":"id","type":"bytes32","internalType":"bytes32"},{"name":"destination","type":"address","internalType":"address"},{"name":"payload","type":"bytes","internalType":"bytes"},{"name":"value","type":"uint128","internalType":"uint128"},{"name":"replyDetails","type":"tuple","internalType":"struct Gear.ReplyDetails","components":[{"name":"to","type":"bytes32","internalType":"bytes32"},{"name":"code","type":"bytes4","internalType":"bytes4"}]}]}]}],"outputs":[{"name":"","type":"bytes32","internalType":"bytes32"}],"stateMutability":"nonpayable"},{"type":"function","name":"router","inputs":[],"outputs":[{"name":"","type":"address","internalType":"address"}],"stateMutability":"view"},{"type":"function","name":"sendMessage","inputs":[{"name":"_payload","type":"bytes","internalType":"bytes"},{"name":"_value","type":"uint128","internalType":"uint128"}],"outputs":[{"name":"","type":"bytes32","internalType":"bytes32"}],"stateMutability":"nonpayable"},{"type":"function","name":"sendReply","inputs":[{"name":"_repliedTo","type":"bytes32","internalType":"bytes32"},{"name":"_payload","type":"bytes","internalType":"bytes"},{"name":"_value","type":"uint128","internalType":"uint128"}],"outputs":[],"stateMutability":"nonpayable"},{"type":"function","name":"stateHash","inputs":[],"outputs":[{"name":"","type":"bytes32","internalType":"bytes32"}],"stateMutability":"view"},{"type":"function","name":"transferLockedValueToInheritor","inputs":[],"outputs":[],"stateMutability":"nonpayable"},{"type":"event","name":"ExecutableBalanceTopUpRequested","inputs":[{"name":"value","type":"uint128","indexed":false,"internalType":"uint128"}],"anonymous":false},{"type":"event","name":"Message","inputs":[{"name":"id","type":"bytes32","indexed":false,"internalType":"bytes32"},{"name":"destination","type":"address","indexed":true,"internalType":"address"},{"name":"payload","type":"bytes","indexed":false,"internalType":"bytes"},{"name":"value","type":"uint128","indexed":false,"internalType":"uint128"}],"anonymous":false},{"type":"event","name":"MessageQueueingRequested","inputs":[{"name":"id","type":"bytes32","indexed":false,"internalType":"bytes32"},{"name":"source","type":"address","indexed":true,"internalType":"address"},{"name":"payload","type":"bytes","indexed":false,"internalType":"bytes"},{"name":"value","type":"uint128","indexed":false,"internalType":"uint128"}],"anonymous":false},{"type":"event","name":"Reply","inputs":[{"name":"payload","type":"bytes","indexed":false,"internalType":"bytes"},{"name":"value","type":"uint128","indexed":false,"internalType":"uint128"},{"name":"replyTo","type":"bytes32","indexed":false,"internalType":"bytes32"},{"name":"replyCode","type":"bytes4","indexed":true,"internalType":"bytes4"}],"anonymous":false},{"type":"event","name":"ReplyQueueingRequested","inputs":[{"name":"repliedTo","type":"bytes32","indexed":false,"internalType":"bytes32"},{"name":"source","type":"address","indexed":true,"internalType":"address"},{"name":"payload","type":"bytes","indexed":false,"internalType":"bytes"},{"name":"value","type":"uint128","indexed":false,"internalType":"uint128"}],"anonymous":false},{"type":"event","name":"StateChanged","inputs":[{"name":"stateHash","type":"bytes32","indexed":false,"internalType":"bytes32"}],"anonymous":false},{"type":"event","name":"ValueClaimed","inputs":[{"name":"claimedId","type":"bytes32","indexed":false,"internalType":"bytes32"},{"name":"value","type":"uint128","indexed":false,"internalType":"uint128"}],"anonymous":false},{"type":"event","name":"ValueClaimingRequested","inputs":[{"name":"claimedId","type":"bytes32","indexed":false,"internalType":"bytes32"},{"name":"source","type":"address","indexed":true,"internalType":"address"}],"anonymous":false}],"bytecode":{"object":"0x6080806040523460155761175e908161001a8239f35b5f80fdfe60806040526004361015610011575f80fd5b5f3560e01c806329336f3914610da657806336a52a1814610d7e578063485cc95514610ce9578063701da98e14610ccc578063704ed54214610bb857806391d5a64c14610b5b5780639cb3300514610b345780639ce110d714610b0c578063a02637b21461043e578063affed0e014610421578063d5624222146101e0578063e43f3433146100d85763f887ea40146100a8575f80fd5b346100d4575f3660031901126100d45760206100c261129d565b6040516001600160a01b039091168152f35b5f80fd5b346100d4575f3660031901126100d4576001546001600160a01b0316801561019b5760249060206001600160a01b0361011761011261129d565b6112f0565b16604051938480926370a0823160e01b82523060048301525afa918215610190575f92610155575b506001600160801b03610153921690611368565b005b91506020823d602011610188575b8161017060209383611003565b810103126100d4579051906001600160801b0361013f565b3d9150610163565b6040513d5f823e3d90fd5b60405162461bcd60e51b815260206004820152601960248201527f70726f6772616d206973206e6f74207465726d696e61746564000000000000006044820152606490fd5b346100d45760403660031901126100d4576004356001600160401b0381116100d457610210903690600401610f0a565b906024356001600160801b0381168082036100d45760015461023b906001600160a01b031615610f5f565b60045415801590610402575b15610384576102ee575b6004545f1981146102da576020938160017f3527a119fe7f25d965cb7abc58139f031e8909b8592488c7926862d569e435c69301600455604051868101913060601b83526034820152603481526102a9605482611003565b519020936102cf6001600160a01b036102c061134d565b16946040519384938885611102565b0390a2604051908152f35b634e487b7160e01b5f52601160045260245ffd5b6103356020826102fc61129d565b6001600160a01b0361030d826112f0565b16905f61031861134d565b6040516323b872dd60e01b8152968795869485936004850161103c565b03925af1801561019057610350915f91610355575b50611066565b610251565b610377915060203d60201161037d575b61036f8183611003565b810190611024565b8561034a565b503d610365565b60405162461bcd60e51b815260206004820152604a60248201527f696e697469616c697a6572206861736e2774206372656174656420696e69742060448201527f6d657373616765207965743b20616e6420736f75726365206973206e6f7420696064820152693734ba34b0b634bd32b960b11b608482015260a490fd5b5061040b61134d565b6002546001600160a01b03918216911614610247565b346100d4575f3660031901126100d4576020600454604051908152f35b346100d45760203660031901126100d4576004356001600160401b0381116100d457806004019080360360c06003198201126100d45761048f6001600160a01b0361048761129d565b163314611130565b610498836111d3565b306001600160a01b0390911603610ac7576022190160a4820135818112156100d4578201906004820135906001600160401b0382116100d4578160051b360360248401136100d4575f94919360e2193685900301929060605b868810156106e0576024600589901b87010135858112156100d4576004908701019760208901601f198a3603019260c084126100d45760405160a081018181106001600160401b038211176106cc576040528235815261055360408d01610f4b565b906020810191825260608d01356001600160401b0381116100d4576020908e010136601f820112156100d45760406105a68f926105996080913690602081359101611234565b9383860194855201610f37565b6060840190815297607f1901126100d45760405193604085018581106001600160401b038211176106cc5760405260a08f01358086529e60c00135936001600160e01b0319851685036100d4576001986106836034605460209996876106a99a8c9a8b809b019182528260808201525197519251965191519063ffffffff60e01b905116908a6040519889958287019b8c526001600160601b03199060601b1660408701528051918291018787015e8401926001600160801b03199060801b16858401526064830152608482015203016014810184520182611003565b5190206040519582879351918291018585015e8201908382015203018084520182611003565b996106be576106b790611602565b01966104f1565b6106c79061147f565b6106b7565b634e487b7160e01b5f52604160045260245ffd5b60208151910120926084820135908112156100d4578101906004820135926001600160401b0384116100d45760608402360360248401136100d4576060945f5b8581101561086f576004606082028601016060601f1982360301126100d45760405190606082018281106001600160401b038211176106cc5760405260208101359182815260408201996107738b610f4b565b928360208401526060019261078784610f37565b6040819401526040519260208401918683526001600160601b03199060601b1660408501526001600160801b03199060801b166054840152604483526107ce606484611003565b60405192828493516020819201602086015e83019060208201905f8252519283915e016020015f815203601f19810182526108099082611003565b98610813906111d3565b61081c8261126a565b61082591611368565b61082e9061126a565b6040519182526001600160801b0316602082015260407fa217f2987a7942c2966f1fd16d39097862308325249e8b9fb4c00a430fd6578391a1600101610720565b508551602087012090604484019061088782856111e7565b905061096c575b605461092f9260646050936108d66020996108ce6108c560035496602484013580980361093a575b6108bf8d6111d3565b9c6111e7565b9590920161126a565b933691611234565b96896040519889958287019b6001600160601b03199060601b168c5260348701528051918291018787015e8401926001600160801b03199060801b16858401526064830152608482015203016030810184520182611003565b519020604051908152f35b876003557f5c601f20d27885120b6fed87a4c313849b86eaddc9d28e7685e2e66a9c0809308e6040518a8152a16108b6565b61098061097983866111e7565b3691611234565b6014815103610a73576014015160015495906109a56001600160a01b03881615610f5f565b6001600160a01b03166001600160a01b0319969096168617600155851561019b5760249560206001600160a01b036109de61011261129d565b16604051988980926370a0823160e01b82523060048301525afa968715610190575f97610a3a575b509260646050936108d6605494610a2c61092f986001600160801b0360209d1690611368565b99505093505092505061088e565b965091926020873d602011610a6b575b81610a5760209383611003565b810103126100d45795519592916064610a06565b3d9150610a4a565b60405162461bcd60e51b815260206004820152602660248201527f41646472657373206d757374206265203230206279746573206c6f6e6720696660448201526508195e1a5cdd60d21b6064820152608490fd5b60405162461bcd60e51b815260206004820152601d60248201527f6163746f724964206d757374206265207468697320636f6e74726163740000006044820152606490fd5b346100d4575f3660031901126100d4576002546040516001600160a01b039091168152602090f35b346100d4575f3660031901126100d4575f546040516001600160a01b039091168152602090f35b346100d45760203660031901126100d457610b796004541515610fa3565b6001600160a01b03610b8961134d565b167f0354817698da67944179457b89e15c1c57ca7b8cfd9d80eab1d09c258f6c497860206040516004358152a2005b346100d45760203660031901126100d4576004356001600160801b038116908181036100d457600154610bf4906001600160a01b031615610f5f565b81610c27575b7f85ba4ebb0990fc588bfbb287e2e810a77c858e0a69485d6a938c52c054236667602083604051908152a1005b906020610c6f92610c3661129d565b6001600160a01b03610c47826112f0565b16905f610c5261134d565b6040516323b872dd60e01b8152978895869485936004850161103c565b03925af190811561019057610cae6020927f85ba4ebb0990fc588bfbb287e2e810a77c858e0a69485d6a938c52c054236667945f91610cb55750611066565b9150610bfa565b6103779150843d861161037d5761036f8183611003565b346100d4575f3660031901126100d4576020600354604051908152f35b346100d45760403660031901126100d4576004356001600160a01b038116908190036100d4576024356001600160a01b03811691908290036100d457610d386001600160a01b0361048761129d565b60025490610d4f6001600160a01b0383161561117c565b5f5491610d656001600160a01b0384161561117c565b6001600160a01b03199081169190911760025516175f55005b346100d4575f3660031901126100d4576001546040516001600160a01b039091168152602090f35b346100d45760603660031901126100d4576024356001600160401b0381116100d457610dd6903690600401610f0a565b90604435916001600160801b0383168084036100d457600154610e02906001600160a01b031615610f5f565b610e0f6004541515610fa3565b610e5f575b7fb64dad8a89028819d048f9c75ec4c516341da68972bb68a8e1262b5443c61e7f91610e5a6001600160a01b03610e4961134d565b169460405193849360043585611102565b0390a2005b610ea791602084610e6e61129d565b6001600160a01b03610e7f826112f0565b16905f610e8a61134d565b6040516323b872dd60e01b8152988995869485936004850161103c565b03925af1928315610190577fb64dad8a89028819d048f9c75ec4c516341da68972bb68a8e1262b5443c61e7f93610ee4915f91610eeb5750611066565b9150610e14565b610f04915060203d60201161037d5761036f8183611003565b8661034a565b9181601f840112156100d4578235916001600160401b0383116100d457602083818601950101116100d457565b35906001600160801b03821682036100d457565b35906001600160a01b03821682036100d457565b15610f6657565b60405162461bcd60e51b81526020600482015260156024820152741c1c9bd9dc985b481a5cc81d195c9b5a5b985d1959605a1b6044820152606490fd5b15610faa57565b60405162461bcd60e51b815260206004820152602b60248201527f696e697469616c697a6572206861736e2774206372656174656420696e69742060448201526a1b595cdcd859d9481e595d60aa1b6064820152608490fd5b90601f801991011681019081106001600160401b038211176106cc57604052565b908160209103126100d4575180151581036100d45790565b6001600160a01b039182168152911660208201526001600160801b03909116604082015260600190565b1561106d57565b60405162461bcd60e51b815260206004820152604160248201527f6661696c656420746f207472616e73666572206e6f6e2d7a65726f20616d6f7560448201527f6e74206f662057566172612066726f6d20736f7572636520746f20726f7574656064820152603960f91b608482015260a490fd5b908060209392818452848401375f828201840152601f01601f1916010190565b92604092611129916001600160801b039397969786526060602087015260608601916110e2565b9416910152565b1561113757565b60405162461bcd60e51b815260206004820152601860248201527f63616c6c6572206973206e6f742074686520726f7574657200000000000000006044820152606490fd5b1561118357565b60405162461bcd60e51b815260206004820152602260248201527f696e697469616c697a657220636f756c64206f6e6c7920626520736574206f6e604482015261636560f01b6064820152608490fd5b356001600160a01b03811681036100d45790565b903590601e19813603018212156100d457018035906001600160401b0382116100d4576020019181360383136100d457565b6001600160401b0381116106cc57601f01601f191660200190565b92919261124082611219565b9161124e6040519384611003565b8294818452818301116100d4578281602093845f960137010152565b356001600160801b03811681036100d45790565b908160209103126100d457516001600160a01b03811681036100d45790565b6040516303e21fa960e61b8152602081600481305afa908115610190575f916112c4575090565b6112e6915060203d6020116112e9575b6112de8183611003565b81019061127e565b90565b503d6112d4565b60405163088f50cf60e41b815290602090829060049082906001600160a01b03165afa908115610190575f9161132e575b506001600160a01b031690565b611347915060203d6020116112e9576112de8183611003565b5f611321565b5f54336001600160a01b0390911603611364573290565b3390565b906001600160801b03168061137b575050565b60209060446001600160a01b0361139361011261129d565b60405163a9059cbb60e01b81526001600160a01b0390961660048701526024860193909352849283915f91165af1908115610190575f9161141c575b50156113d757565b60405162461bcd60e51b815260206004820152601860248201527f6661696c656420746f207472616e7366657220575661726100000000000000006044820152606490fd5b611435915060203d60201161037d5761036f8183611003565b5f6113cf565b356001600160e01b0319811681036100d45790565b3d1561147a573d9061146182611219565b9161146f6040519384611003565b82523d5f602084013e565b606090565b6020810161148c816111d3565b906114a4606084019261149e8461126a565b90611368565b5f546001600160a01b0316908161153d575b50507fe240a19e4a4ef8e5861c0eea48f9ab2cdb47bfe98347c94ccabb9c45f7d8d1c6906114f26114ea60408501856111e7565b91909261126a565b60806001600160e01b031961150960a0880161143b565b16956001600160801b0361152a6040519687966060885260608801916110e2565b93166020850152013560408301520390a2565b5f9161154983926111d3565b826115e361155a60408901896111e7565b6115668993929361126a565b61157260a08c0161143b565b604051639649744960e01b602082019081526001600160a01b03909816602482015260a060448201529485936001600160801b03916115b59160c48701916110e2565b9216606484015260808c013560848401526001600160e01b03191660a483015203601f198101835282611003565b51926207a120f16115f2611450565b506115fe575f806114b6565b5050565b5f546001600160a01b03168061167c575b507f9c4ffe7286aed9eb205c8adb12b51219122c7e56c67017f312af0e15f8011773611677611644602084016111d3565b61165160408501856111e7565b6116606060879593950161126a565b9060405194859460018060a01b0316973585611102565b0390a2565b5f8091838261168d602083016111d3565b61170b61169d60408501856111e7565b92906001600160801b036116f66116b66060890161126a565b6040516374fad4ef60e01b60208201908152993560248201526001600160a01b03909516604486015260806064860152939586949360a4860191906110e2565b9116608483015203601f198101835282611003565b51926207a120f161171a611450565b50611725575f611613565b5056fea2646970667358221220e8ffde07da318ecc08a9745ac59afb1b6bba5e103b0f68dee7310aef6eedaf4d64736f6c634300081c0033","linkReferences":{}},"methodIdentifiers":{"claimValue(bytes32)":"91d5a64c","decoder()":"9cb33005","executableBalanceTopUp(uint128)":"704ed542","inheritor()":"36a52a18","initialize(address,address)":"485cc955","initializer()":"9ce110d7","nonce()":"affed0e0","performStateTransition((address,bytes32,bytes,uint128,(bytes32,address,uint128)[],(bytes32,address,bytes,uint128,(bytes32,bytes4))[]))":"a02637b2","router()":"f887ea40","sendMessage(bytes,uint128)":"d5624222","sendReply(bytes32,bytes,uint128)":"29336f39","stateHash()":"701da98e","transferLockedValueToInheritor()":"e43f3433"},"storageLayout":{"storage":[{"astId":67022,"contract":"src/Mirror.sol:Mirror","label":"decoder","offset":0,"slot":"0","type":"t_address"},{"astId":67024,"contract":"src/Mirror.sol:Mirror","label":"inheritor","offset":0,"slot":"1","type":"t_address"},{"astId":67027,"contract":"src/Mirror.sol:Mirror","label":"initializer","offset":0,"slot":"2","type":"t_address"},{"astId":67029,"contract":"src/Mirror.sol:Mirror","label":"stateHash","offset":0,"slot":"3","type":"t_bytes32"},{"astId":67031,"contract":"src/Mirror.sol:Mirror","label":"nonce","offset":0,"slot":"4","type":"t_uint256"}],"types":{"t_address":{"encoding":"inplace","label":"address","numberOfBytes":"20"},"t_bytes32":{"encoding":"inplace","label":"bytes32","numberOfBytes":"32"},"t_uint256":{"encoding":"inplace","label":"uint256","numberOfBytes":"32"}}},"id":118}