{"abi":[{"type":"function","name":"claimValue","inputs":[{"name":"_claimedId","type":"bytes32","internalType":"bytes32"}],"outputs":[],"stateMutability":"nonpayable"},{"type":"function","name":"decoder","inputs":[],"outputs":[{"name":"","type":"address","internalType":"address"}],"stateMutability":"view"},{"type":"function","name":"executableBalanceTopUp","inputs":[{"name":"_value","type":"uint128","internalType":"uint128"}],"outputs":[],"stateMutability":"nonpayable"},{"type":"function","name":"inheritor","inputs":[],"outputs":[{"name":"","type":"address","internalType":"address"}],"stateMutability":"view"},{"type":"function","name":"initialize","inputs":[{"name":"_initializer","type":"address","internalType":"address"},{"name":"_decoder","type":"address","internalType":"address"}],"outputs":[],"stateMutability":"nonpayable"},{"type":"function","name":"initializer","inputs":[],"outputs":[{"name":"","type":"address","internalType":"address"}],"stateMutability":"view"},{"type":"function","name":"nonce","inputs":[],"outputs":[{"name":"","type":"uint256","internalType":"uint256"}],"stateMutability":"view"},{"type":"function","name":"performStateTransition","inputs":[{"name":"_transition","type":"tuple","internalType":"struct Gear.StateTransition","components":[{"name":"actorId","type":"address","internalType":"address"},{"name":"newStateHash","type":"bytes32","internalType":"bytes32"},{"name":"inheritor","type":"bytes","internalType":"bytes"},{"name":"valueToReceive","type":"uint128","internalType":"uint128"},{"name":"valueClaims","type":"tuple[]","internalType":"struct Gear.ValueClaim[]","components":[{"name":"messageId","type":"bytes32","internalType":"bytes32"},{"name":"destination","type":"address","internalType":"address"},{"name":"value","type":"uint128","internalType":"uint128"}]},{"name":"messages","type":"tuple[]","internalType":"struct Gear.Message[]","components":[{"name":"id","type":"bytes32","internalType":"bytes32"},{"name":"destination","type":"address","internalType":"address"},{"name":"payload","type":"bytes","internalType":"bytes"},{"name":"value","type":"uint128","internalType":"uint128"},{"name":"replyDetails","type":"bytes","internalType":"bytes"}]}]}],"outputs":[{"name":"","type":"bytes32","internalType":"bytes32"}],"stateMutability":"nonpayable"},{"type":"function","name":"router","inputs":[],"outputs":[{"name":"","type":"address","internalType":"address"}],"stateMutability":"view"},{"type":"function","name":"sendMessage","inputs":[{"name":"_payload","type":"bytes","internalType":"bytes"},{"name":"_value","type":"uint128","internalType":"uint128"}],"outputs":[{"name":"","type":"bytes32","internalType":"bytes32"}],"stateMutability":"nonpayable"},{"type":"function","name":"sendReply","inputs":[{"name":"_repliedTo","type":"bytes32","internalType":"bytes32"},{"name":"_payload","type":"bytes","internalType":"bytes"},{"name":"_value","type":"uint128","internalType":"uint128"}],"outputs":[],"stateMutability":"nonpayable"},{"type":"function","name":"stateHash","inputs":[],"outputs":[{"name":"","type":"bytes32","internalType":"bytes32"}],"stateMutability":"view"},{"type":"function","name":"transferLockedValueToInheritor","inputs":[],"outputs":[],"stateMutability":"nonpayable"},{"type":"event","name":"ExecutableBalanceTopUpRequested","inputs":[{"name":"value","type":"uint128","indexed":false,"internalType":"uint128"}],"anonymous":false},{"type":"event","name":"Message","inputs":[{"name":"id","type":"bytes32","indexed":false,"internalType":"bytes32"},{"name":"destination","type":"address","indexed":true,"internalType":"address"},{"name":"payload","type":"bytes","indexed":false,"internalType":"bytes"},{"name":"value","type":"uint128","indexed":false,"internalType":"uint128"}],"anonymous":false},{"type":"event","name":"MessageQueueingRequested","inputs":[{"name":"id","type":"bytes32","indexed":false,"internalType":"bytes32"},{"name":"source","type":"address","indexed":true,"internalType":"address"},{"name":"payload","type":"bytes","indexed":false,"internalType":"bytes"},{"name":"value","type":"uint128","indexed":false,"internalType":"uint128"}],"anonymous":false},{"type":"event","name":"Reply","inputs":[{"name":"payload","type":"bytes","indexed":false,"internalType":"bytes"},{"name":"value","type":"uint128","indexed":false,"internalType":"uint128"},{"name":"replyTo","type":"bytes32","indexed":false,"internalType":"bytes32"},{"name":"replyCode","type":"bytes4","indexed":true,"internalType":"bytes4"}],"anonymous":false},{"type":"event","name":"ReplyQueueingRequested","inputs":[{"name":"repliedTo","type":"bytes32","indexed":false,"internalType":"bytes32"},{"name":"source","type":"address","indexed":true,"internalType":"address"},{"name":"payload","type":"bytes","indexed":false,"internalType":"bytes"},{"name":"value","type":"uint128","indexed":false,"internalType":"uint128"}],"anonymous":false},{"type":"event","name":"StateChanged","inputs":[{"name":"stateHash","type":"bytes32","indexed":false,"internalType":"bytes32"}],"anonymous":false},{"type":"event","name":"ValueClaimed","inputs":[{"name":"claimedId","type":"bytes32","indexed":false,"internalType":"bytes32"},{"name":"value","type":"uint128","indexed":false,"internalType":"uint128"}],"anonymous":false},{"type":"event","name":"ValueClaimingRequested","inputs":[{"name":"claimedId","type":"bytes32","indexed":false,"internalType":"bytes32"},{"name":"source","type":"address","indexed":true,"internalType":"address"}],"anonymous":false}],"bytecode":{"object":"0x608080604052346015576117eb908161001a8239f35b5f80fdfe60806040526004361015610011575f80fd5b5f3560e01c80630d5f9b061461084457806329336f39146106e057806336a52a18146106b8578063485cc9551461061b578063701da98e146105fe578063704ed542146104ea57806391d5a64c1461048d5780639cb33005146104665780639ce110d71461043e578063affed0e014610421578063d5624222146101e0578063e43f3433146100d85763f887ea40146100a8575f80fd5b346100d4575f3660031901126100d45760206100c2611284565b6040516001600160a01b039091168152f35b5f80fd5b346100d4575f3660031901126100d4576001546001600160a01b0316801561019b5760249060206001600160a01b03610117610112611284565b6112f2565b16604051938480926370a0823160e01b82523060048301525afa918215610190575f92610155575b506001600160801b0361015392169061136a565b005b91506020823d602011610188575b8161017060209383610fd8565b810103126100d4579051906001600160801b0361013f565b3d9150610163565b6040513d5f823e3d90fd5b60405162461bcd60e51b815260206004820152601960248201527f70726f6772616d206973206e6f74207465726d696e61746564000000000000006044820152606490fd5b346100d45760403660031901126100d4576004356001600160401b0381116100d457610210903690600401610ed6565b906024356001600160801b0381168082036100d45760015461023b906001600160a01b03161561105e565b60045415801590610402575b15610384576102ee575b6004545f1981146102da576020938160017f3527a119fe7f25d965cb7abc58139f031e8909b8592488c7926862d569e435c69301600455604051868101913060601b83526034820152603481526102a9605482610fd8565b519020936102cf6001600160a01b036102c061134f565b169460405193849388856111e0565b0390a2604051908152f35b634e487b7160e01b5f52601160045260245ffd5b6103356020826102fc611284565b6001600160a01b0361030d826112f2565b16905f61031861134f565b6040516323b872dd60e01b8152968795869485936004850161111a565b03925af1801561019057610350915f91610355575b50611144565b610251565b610377915060203d60201161037d575b61036f8183610fd8565b810190611102565b8561034a565b503d610365565b60405162461bcd60e51b815260206004820152604a60248201527f696e697469616c697a6572206861736e2774206372656174656420696e69742060448201527f6d657373616765207965743b20616e6420736f75726365206973206e6f7420696064820152693734ba34b0b634bd32b960b11b608482015260a490fd5b5061040b61134f565b6002546001600160a01b03918216911614610247565b346100d4575f3660031901126100d4576020600454604051908152f35b346100d4575f3660031901126100d4576002546040516001600160a01b039091168152602090f35b346100d4575f3660031901126100d4575f546040516001600160a01b039091168152602090f35b346100d45760203660031901126100d4576104ab60045415156110a2565b6001600160a01b036104bb61134f565b167f0354817698da67944179457b89e15c1c57ca7b8cfd9d80eab1d09c258f6c497860206040516004358152a2005b346100d45760203660031901126100d4576004356001600160801b038116908181036100d457600154610526906001600160a01b03161561105e565b81610559575b7f85ba4ebb0990fc588bfbb287e2e810a77c858e0a69485d6a938c52c054236667602083604051908152a1005b9060206105a192610568611284565b6001600160a01b03610579826112f2565b16905f61058461134f565b6040516323b872dd60e01b8152978895869485936004850161111a565b03925af1908115610190576105e06020927f85ba4ebb0990fc588bfbb287e2e810a77c858e0a69485d6a938c52c054236667945f916105e75750611144565b915061052c565b6103779150843d861161037d5761036f8183610fd8565b346100d4575f3660031901126100d4576020600354604051908152f35b346100d45760403660031901126100d4576004356001600160a01b038116908190036100d4576024356001600160a01b03811691908290036100d4576106726001600160a01b0361066a611284565b163314610f2b565b600254906106896001600160a01b0383161561120e565b5f549161069f6001600160a01b0384161561120e565b6001600160a01b03199081169190911760025516175f55005b346100d4575f3660031901126100d4576001546040516001600160a01b039091168152602090f35b346100d45760603660031901126100d4576024356001600160401b0381116100d457610710903690600401610ed6565b90604435916001600160801b0383168084036100d45760015461073c906001600160a01b03161561105e565b61074960045415156110a2565b610799575b7fb64dad8a89028819d048f9c75ec4c516341da68972bb68a8e1262b5443c61e7f916107946001600160a01b0361078361134f565b1694604051938493600435856111e0565b0390a2005b6107e1916020846107a8611284565b6001600160a01b036107b9826112f2565b16905f6107c461134f565b6040516323b872dd60e01b8152988995869485936004850161111a565b03925af1928315610190577fb64dad8a89028819d048f9c75ec4c516341da68972bb68a8e1262b5443c61e7f9361081e915f916108255750611144565b915061074e565b61083e915060203d60201161037d5761036f8183610fd8565b8661034a565b346100d45760203660031901126100d4576004356001600160401b0381116100d457806004019080360360c06003198201126100d45761088d6001600160a01b0361066a611284565b61089683610f77565b306001600160a01b0390911603610e91576022190160a4820135818112156100d4578201906004820135906001600160401b0382116100d4578160051b360360248401136100d457606094919360c219368590030192905f5b86811015610aa9576024600582901b87010135858112156100d457600490870101906020820160a0601f1984360301126100d45760405160a081018181106001600160401b03821117610a95576040528135815261094f60408501610f17565b936020820194855260608101356001600160401b0381116100d45761097a90602036918401016112d7565b916040810192835261098e60808301610f03565b926060820193845260a083019d8e35906001600160401b0382116100d457600198610a7096610a4360106020989660548a610a699a6109d4829b83809c369201016112d7565b908160808201525197519351965190826040519889968288019b8c526001600160601b03199060601b1660408801528051918291018688015e8501916001600160801b03199060801b1684830152805192839101606483015e01015f838201520301601f198101835282610fd8565b5190206040519582879351918291018585015e8201908382015203018084520182610fd8565b9a82610f8b565b15159050610a8757610a819061168f565b016108ef565b610a909061146c565b610a81565b634e487b7160e01b5f52604160045260245ffd5b5086516020880120926084820135908112156100d4578101906004820135926001600160401b0384116100d45760608402360360248401136100d4576060945f5b85811015610c39576004606082028601016060601f1982360301126100d45760405190606082018281106001600160401b03821117610a95576040526020810135918281526040820199610b3d8b610f17565b9283602084015260600192610b5184610f03565b6040819401526040519260208401918683526001600160601b03199060601b1660408501526001600160801b03199060801b16605484015260448352610b98606484610fd8565b60405192828493516020819201602086015e83019060208201905f8252519283915e016020015f815203601f1981018252610bd39082610fd8565b98610bdd90610f77565b610be68261104a565b610bef9161136a565b610bf89061104a565b6040519182526001600160801b0316602082015260407fa217f2987a7942c2966f1fd16d39097862308325249e8b9fb4c00a430fd6578391a1600101610aea565b5085516020870120906044840190610c518285610f8b565b9050610d36575b6054610cf9926064605093610ca0602099610c98610c8f600354966024840135809803610d04575b610c898d610f77565b9c610f8b565b9590920161104a565b933691611014565b96896040519889958287019b6001600160601b03199060601b168c5260348701528051918291018787015e8401926001600160801b03199060801b16858401526064830152608482015203016030810184520182610fd8565b519020604051908152f35b876003557f5c601f20d27885120b6fed87a4c313849b86eaddc9d28e7685e2e66a9c0809308e6040518a8152a1610c80565b610d4a610d438386610f8b565b3691611014565b6014815103610e3d57601401516001549590610d6f6001600160a01b0388161561105e565b6001600160a01b03166001600160a01b0319969096168617600155851561019b5760249560206001600160a01b03610da8610112611284565b16604051988980926370a0823160e01b82523060048301525afa968715610190575f97610e04575b50926064605093610ca0605494610df6610cf9986001600160801b0360209d169061136a565b995050935050925050610c58565b965091926020873d602011610e35575b81610e2160209383610fd8565b810103126100d45795519592916064610dd0565b3d9150610e14565b60405162461bcd60e51b815260206004820152602660248201527f41646472657373206d757374206265203230206279746573206c6f6e6720696660448201526508195e1a5cdd60d21b6064820152608490fd5b60405162461bcd60e51b815260206004820152601d60248201527f6163746f724964206d757374206265207468697320636f6e74726163740000006044820152606490fd5b9181601f840112156100d4578235916001600160401b0383116100d457602083818601950101116100d457565b35906001600160801b03821682036100d457565b35906001600160a01b03821682036100d457565b15610f3257565b60405162461bcd60e51b815260206004820152601860248201527f63616c6c6572206973206e6f742074686520726f7574657200000000000000006044820152606490fd5b356001600160a01b03811681036100d45790565b903590601e19813603018212156100d457018035906001600160401b0382116100d4576020019181360383136100d457565b604081019081106001600160401b03821117610a9557604052565b90601f801991011681019081106001600160401b03821117610a9557604052565b6001600160401b038111610a9557601f01601f191660200190565b92919261102082610ff9565b9161102e6040519384610fd8565b8294818452818301116100d4578281602093845f960137010152565b356001600160801b03811681036100d45790565b1561106557565b60405162461bcd60e51b81526020600482015260156024820152741c1c9bd9dc985b481a5cc81d195c9b5a5b985d1959605a1b6044820152606490fd5b156110a957565b60405162461bcd60e51b815260206004820152602b60248201527f696e697469616c697a6572206861736e2774206372656174656420696e69742060448201526a1b595cdcd859d9481e595d60aa1b6064820152608490fd5b908160209103126100d4575180151581036100d45790565b6001600160a01b039182168152911660208201526001600160801b03909116604082015260600190565b1561114b57565b60405162461bcd60e51b815260206004820152604160248201527f6661696c656420746f207472616e73666572206e6f6e2d7a65726f20616d6f7560448201527f6e74206f662057566172612066726f6d20736f7572636520746f20726f7574656064820152603960f91b608482015260a490fd5b908060209392818452848401375f828201840152601f01601f1916010190565b92604092611207916001600160801b039397969786526060602087015260608601916111c0565b9416910152565b1561121557565b60405162461bcd60e51b815260206004820152602260248201527f696e697469616c697a657220636f756c64206f6e6c7920626520736574206f6e604482015261636560f01b6064820152608490fd5b908160209103126100d457516001600160a01b03811681036100d45790565b6040516303e21fa960e61b8152602081600481305afa908115610190575f916112ab575090565b6112cd915060203d6020116112d0575b6112c58183610fd8565b810190611265565b90565b503d6112bb565b9080601f830112156100d4578160206112cd93359101611014565b60405163088f50cf60e41b815290602090829060049082906001600160a01b03165afa908115610190575f91611330575b506001600160a01b031690565b611349915060203d6020116112d0576112c58183610fd8565b5f611323565b5f54336001600160a01b0390911603611366573290565b3390565b906001600160801b03168061137d575050565b60209060446001600160a01b03611395610112611284565b60405163a9059cbb60e01b81526001600160a01b0390961660048701526024860193909352849283915f91165af1908115610190575f9161141e575b50156113d957565b60405162461bcd60e51b815260206004820152601860248201527f6661696c656420746f207472616e7366657220575661726100000000000000006044820152606490fd5b611437915060203d60201161037d5761036f8183610fd8565b5f6113d1565b3d15611467573d9061144e82610ff9565b9161145c6040519384610fd8565b82523d5f602084013e565b606090565b61147c610d436080830183610f8b565b5f602060405161148b81610fbd565b82815201526024815103611636576024602082015191015191604051916114b183610fbd565b8252602082019263ffffffff60e01b16835260208101906114d182610f77565b916114e960608301936114e38561104a565b9061136a565b5f546001600160a01b03169081611577575b50507fe240a19e4a4ef8e5861c0eea48f9ab2cdb47bfe98347c94ccabb9c45f7d8d1c692611530826040611538940190610f8b565b92909361104a565b90519463ffffffff60e01b905116946001600160801b036115666040519586956060875260608701916111c0565b9216602084015260408301520390a2565b5f916115838392610f77565b826116156115946040880188610f8b565b6115a08a93929361104a565b8b518d51604051639649744960e01b602082019081526001600160a01b03909916602482015260a060448201529586946001600160e01b03199290921692916001600160801b03916115f69160c48801916111c0565b93166064850152608484015260a483015203601f198101835282610fd8565b51926207a120f161162461143d565b50611630575f806114fb565b50505050565b60405162461bcd60e51b815260206004820152602b60248201527f5265706c7944657461696c73206d757374206265203336206279746573206c6f60448201526a1b99c81a5988195e1a5cdd60aa1b6064820152608490fd5b5f546001600160a01b031680611709575b507f9c4ffe7286aed9eb205c8adb12b51219122c7e56c67017f312af0e15f80117736117046116d160208401610f77565b6116de6040850185610f8b565b6116ed6060879593950161104a565b9060405194859460018060a01b03169735856111e0565b0390a2565b5f8091838261171a60208301610f77565b61179861172a6040850185610f8b565b92906001600160801b036117836117436060890161104a565b6040516374fad4ef60e01b60208201908152993560248201526001600160a01b03909516604486015260806064860152939586949360a4860191906111c0565b9116608483015203601f198101835282610fd8565b51926207a120f16117a761143d565b506117b2575f6116a0565b5056fea264697066735822122062896bc7cd4267f7ad5ff1c2344612a192c29eadc1fa060e2d1a4226214bdde664736f6c634300081c0033","linkReferences":{}},"methodIdentifiers":{"claimValue(bytes32)":"91d5a64c","decoder()":"9cb33005","executableBalanceTopUp(uint128)":"704ed542","inheritor()":"36a52a18","initialize(address,address)":"485cc955","initializer()":"9ce110d7","nonce()":"affed0e0","performStateTransition((address,bytes32,bytes,uint128,(bytes32,address,uint128)[],(bytes32,address,bytes,uint128,bytes)[]))":"0d5f9b06","router()":"f887ea40","sendMessage(bytes,uint128)":"d5624222","sendReply(bytes32,bytes,uint128)":"29336f39","stateHash()":"701da98e","transferLockedValueToInheritor()":"e43f3433"},"storageLayout":{"storage":[{"astId":67022,"contract":"src/Mirror.sol:Mirror","label":"decoder","offset":0,"slot":"0","type":"t_address"},{"astId":67024,"contract":"src/Mirror.sol:Mirror","label":"inheritor","offset":0,"slot":"1","type":"t_address"},{"astId":67027,"contract":"src/Mirror.sol:Mirror","label":"initializer","offset":0,"slot":"2","type":"t_address"},{"astId":67029,"contract":"src/Mirror.sol:Mirror","label":"stateHash","offset":0,"slot":"3","type":"t_bytes32"},{"astId":67031,"contract":"src/Mirror.sol:Mirror","label":"nonce","offset":0,"slot":"4","type":"t_uint256"}],"types":{"t_address":{"encoding":"inplace","label":"address","numberOfBytes":"20"},"t_bytes32":{"encoding":"inplace","label":"bytes32","numberOfBytes":"32"},"t_uint256":{"encoding":"inplace","label":"uint256","numberOfBytes":"32"}}},"id":118}