{"abi":[{"type":"constructor","inputs":[{"name":"_router","type":"address","internalType":"address"}],"stateMutability":"nonpayable"},{"type":"fallback","stateMutability":"payable"},{"type":"function","name":"claimValue","inputs":[{"name":"_claimedId","type":"bytes32","internalType":"bytes32"}],"outputs":[],"stateMutability":"nonpayable"},{"type":"function","name":"executableBalanceTopUp","inputs":[{"name":"_value","type":"uint128","internalType":"uint128"}],"outputs":[],"stateMutability":"nonpayable"},{"type":"function","name":"exited","inputs":[],"outputs":[{"name":"","type":"bool","internalType":"bool"}],"stateMutability":"view"},{"type":"function","name":"inheritor","inputs":[],"outputs":[{"name":"","type":"address","internalType":"address"}],"stateMutability":"view"},{"type":"function","name":"initialize","inputs":[{"name":"_initializer","type":"address","internalType":"address"},{"name":"_abiInterface","type":"address","internalType":"address"},{"name":"_isSmall","type":"bool","internalType":"bool"}],"outputs":[],"stateMutability":"nonpayable"},{"type":"function","name":"initializer","inputs":[],"outputs":[{"name":"","type":"address","internalType":"address"}],"stateMutability":"view"},{"type":"function","name":"nonce","inputs":[],"outputs":[{"name":"","type":"uint256","internalType":"uint256"}],"stateMutability":"view"},{"type":"function","name":"performStateTransition","inputs":[{"name":"_transition","type":"tuple","internalType":"struct Gear.StateTransition","components":[{"name":"actorId","type":"address","internalType":"address"},{"name":"newStateHash","type":"bytes32","internalType":"bytes32"},{"name":"exited","type":"bool","internalType":"bool"},{"name":"inheritor","type":"address","internalType":"address"},{"name":"valueToReceive","type":"uint128","internalType":"uint128"},{"name":"valueClaims","type":"tuple[]","internalType":"struct Gear.ValueClaim[]","components":[{"name":"messageId","type":"bytes32","internalType":"bytes32"},{"name":"destination","type":"address","internalType":"address"},{"name":"value","type":"uint128","internalType":"uint128"}]},{"name":"messages","type":"tuple[]","internalType":"struct Gear.Message[]","components":[{"name":"id","type":"bytes32","internalType":"bytes32"},{"name":"destination","type":"address","internalType":"address"},{"name":"payload","type":"bytes","internalType":"bytes"},{"name":"value","type":"uint128","internalType":"uint128"},{"name":"replyDetails","type":"tuple","internalType":"struct Gear.ReplyDetails","components":[{"name":"to","type":"bytes32","internalType":"bytes32"},{"name":"code","type":"bytes4","internalType":"bytes4"}]},{"name":"call","type":"bool","internalType":"bool"}]}]}],"outputs":[{"name":"","type":"bytes32","internalType":"bytes32"}],"stateMutability":"nonpayable"},{"type":"function","name":"router","inputs":[],"outputs":[{"name":"","type":"address","internalType":"address"}],"stateMutability":"view"},{"type":"function","name":"sendMessage","inputs":[{"name":"_payload","type":"bytes","internalType":"bytes"},{"name":"_value","type":"uint128","internalType":"uint128"},{"name":"_callReply","type":"bool","internalType":"bool"}],"outputs":[{"name":"","type":"bytes32","internalType":"bytes32"}],"stateMutability":"nonpayable"},{"type":"function","name":"sendReply","inputs":[{"name":"_repliedTo","type":"bytes32","internalType":"bytes32"},{"name":"_payload","type":"bytes","internalType":"bytes"},{"name":"_value","type":"uint128","internalType":"uint128"}],"outputs":[],"stateMutability":"nonpayable"},{"type":"function","name":"stateHash","inputs":[],"outputs":[{"name":"","type":"bytes32","internalType":"bytes32"}],"stateMutability":"view"},{"type":"function","name":"transferLockedValueToInheritor","inputs":[],"outputs":[],"stateMutability":"nonpayable"},{"type":"event","name":"ExecutableBalanceTopUpRequested","inputs":[{"name":"value","type":"uint128","indexed":false,"internalType":"uint128"}],"anonymous":false},{"type":"event","name":"Message","inputs":[{"name":"id","type":"bytes32","indexed":false,"internalType":"bytes32"},{"name":"destination","type":"address","indexed":true,"internalType":"address"},{"name":"payload","type":"bytes","indexed":false,"internalType":"bytes"},{"name":"value","type":"uint128","indexed":false,"internalType":"uint128"}],"anonymous":false},{"type":"event","name":"MessageCallFailed","inputs":[{"name":"id","type":"bytes32","indexed":false,"internalType":"bytes32"},{"name":"destination","type":"address","indexed":true,"internalType":"address"},{"name":"value","type":"uint128","indexed":false,"internalType":"uint128"}],"anonymous":false},{"type":"event","name":"MessageQueueingRequested","inputs":[{"name":"id","type":"bytes32","indexed":false,"internalType":"bytes32"},{"name":"source","type":"address","indexed":true,"internalType":"address"},{"name":"payload","type":"bytes","indexed":false,"internalType":"bytes"},{"name":"value","type":"uint128","indexed":false,"internalType":"uint128"},{"name":"callReply","type":"bool","indexed":false,"internalType":"bool"}],"anonymous":false},{"type":"event","name":"Reply","inputs":[{"name":"payload","type":"bytes","indexed":false,"internalType":"bytes"},{"name":"value","type":"uint128","indexed":false,"internalType":"uint128"},{"name":"replyTo","type":"bytes32","indexed":false,"internalType":"bytes32"},{"name":"replyCode","type":"bytes4","indexed":true,"internalType":"bytes4"}],"anonymous":false},{"type":"event","name":"ReplyCallFailed","inputs":[{"name":"value","type":"uint128","indexed":false,"internalType":"uint128"},{"name":"replyTo","type":"bytes32","indexed":false,"internalType":"bytes32"},{"name":"replyCode","type":"bytes4","indexed":true,"internalType":"bytes4"}],"anonymous":false},{"type":"event","name":"ReplyQueueingRequested","inputs":[{"name":"repliedTo","type":"bytes32","indexed":false,"internalType":"bytes32"},{"name":"source","type":"address","indexed":true,"internalType":"address"},{"name":"payload","type":"bytes","indexed":false,"internalType":"bytes"},{"name":"value","type":"uint128","indexed":false,"internalType":"uint128"}],"anonymous":false},{"type":"event","name":"StateChanged","inputs":[{"name":"stateHash","type":"bytes32","indexed":false,"internalType":"bytes32"}],"anonymous":false},{"type":"event","name":"ValueClaimed","inputs":[{"name":"claimedId","type":"bytes32","indexed":false,"internalType":"bytes32"},{"name":"value","type":"uint128","indexed":false,"internalType":"uint128"}],"anonymous":false},{"type":"event","name":"ValueClaimingRequested","inputs":[{"name":"claimedId","type":"bytes32","indexed":false,"internalType":"bytes32"},{"name":"source","type":"address","indexed":true,"internalType":"address"}],"anonymous":false}],"bytecode":{"object":"0x60a03461008d57601f611c6e38819003918201601f19168301916001600160401b038311848410176100915780849260209460405283398101031261008d57516001600160a01b038116810361008d57608052604051611bc890816100a682396080518181816102510152818161048901528181610dca01528181611127015281816112c001526114890152f35b5f80fd5b634e487b7160e01b5f52604160045260245ffdfe608060405260043610156101a2575b60ff60035460a01c1661019e576044361061019e576001600160801b03600435166100376111ed565b6001541580159061018a575b1561010857610051816112ad565b6001545f1981146100f4576001810160015560405160208101913060601b8352603482015260348152610085605482611104565b519020907f9d835932f9695ed8acd7290fb99476799c321b20b15a597a99b597bdfb907c5460405183815260806020820152602060808201368152365f838301375f823683010152601f19601f3601160101926040820152602435151560608201528033930390a25f5260205ff35b634e487b7160e01b5f52601160045260245ffd5b60405162461bcd60e51b815260206004820152604e60248201527f696e697469616c697a6572206861736e2774206372656174656420696e69742060448201527f6d657373616765207965743b20616e642063616c6c6572206973206e6f74207460648201526d34329034b734ba34b0b634bd32b960911b608482015260a490fd5b506003546001600160a01b03163314610043565b5f80fd5b5f5f3560e01c806302c649c9146108b357806329336f39146108165780632a68e35d146106e857806336a52a18146106bb5780635ce6c32714610698578063701da98e1461067b578063704ed5421461061557806391d5a64c146105c25780639ce110d714610599578063affed0e01461057b578063e43f34331461045a578063e4bbb5a8146102835763f887ea401461023c575061000e565b346102805780600319360112610280576040517f00000000000000000000000000000000000000000000000000000000000000006001600160a01b03168152602090f35b80fd5b5034610280576060366003190112610280576004356001600160a01b03811690819003610456576024356001600160a01b0381169190829003610452576102c861105e565b906102d1611125565b600354906001600160a01b0382166104025760ff8260a01c166103bd577f360894a13ba1a3210667c828492db98dca3e2076cc3735a920a3ca505d382bbc54926001600160a01b03841661036c576001600160a81b03199092161790151560a01b60ff60a01b16176003556001600160a01b031916177f360894a13ba1a3210667c828492db98dca3e2076cc3735a920a3ca505d382bbc5580f35b60405162461bcd60e51b8152602060048201526024808201527f61626920696e7465726661636520636f756c64206f6e6c7920626520736574206044820152636f6e636560e01b6064820152608490fd5b60405162461bcd60e51b815260206004820152601e60248201527f6973536d616c6c20636f756c64206f6e6c7920626520736574206f6e636500006044820152606490fd5b60405162461bcd60e51b815260206004820152602260248201527f696e697469616c697a657220636f756c64206f6e6c7920626520736574206f6e604482015261636560f01b6064820152608490fd5b8280fd5b5080fd5b503461028057806003193601126102805760025460ff81161561053e5760249060206001600160a01b036104ad7f00000000000000000000000000000000000000000000000000000000000000006113e4565b16604051938480926370a0823160e01b82523060048301525afa9182156105335783926104f8575b506104f5916001600160801b03169060081c6001600160a01b0316611464565b80f35b91506020823d60201161052b575b8161051360209383611104565b81010312610452579051906001600160801b036104d5565b3d9150610506565b6040513d85823e3d90fd5b60405162461bcd60e51b81526020600482015260156024820152741c1c9bd9dc985b481a5cc81b9bdd08195e1a5d1959605a1b6044820152606490fd5b50346102805780600319360112610280576020600154604051908152f35b50346102805780600319360112610280576003546040516001600160a01b039091168152602090f35b5034610280576020366003190112610280576105dc6111ed565b6105e4611232565b60405160043581527f0354817698da67944179457b89e15c1c57ca7b8cfd9d80eab1d09c258f6c497860203392a280f35b5034610280576020366003190112610280576004356001600160801b03811690818103610452577f85ba4ebb0990fc588bfbb287e2e810a77c858e0a69485d6a938c52c0542366679161067160209261066c6111ed565b6112ad565b604051908152a180f35b503461028057806003193601126102805760209054604051908152f35b5034610280578060031936011261028057602060ff600254166040519015158152f35b503461028057806003193601126102805760025460405160089190911c6001600160a01b03168152602090f35b5034610280576060366003190112610280576004356001600160401b0381116104565761071990369060040161101d565b916024356001600160801b038116918282036102805761073761105e565b916107406111ed565b60015415801590610802575b156101085761075a906112ad565b600154905f1982146107ee5750937f9d835932f9695ed8acd7290fb99476799c321b20b15a597a99b597bdfb907c54916107d386600160209801600155604051888101913060601b83526034820152603481526107b8605482611104565b519020956040519387855260808986015260808501916110b6565b936040830152151560608201528033930390a2604051908152f35b634e487b7160e01b81526011600452602490fd5b506003546001600160a01b0316331461074c565b5034610280576060366003190112610280576024356001600160401b0381116104565761084790369060040161101d565b6044356001600160801b03811681036108af577fb64dad8a89028819d048f9c75ec4c516341da68972bb68a8e1262b5443c61e7f916108846111ed565b61088c611232565b610895826112ad565b6108a96040519283923396600435856110d6565b0390a280f35b8380fd5b503461019e57602036600319011261019e576001600160401b036004351161019e57600435360360e060031982011261019e576108ee611125565b6108fc600435600401611081565b306001600160a01b0390911603610fd85760043560c40135602219820181121561019e576001600160401b0360048281350101351161019e57600481813501013560051b360360248260043501011361019e575f9260605b6004838135010135851015610bc157600585901b60043584019081016024013595903603610102190186121561019e576023196004358501870136030160e0811261019e576040519260c084018481106001600160401b03821117610bad5760405260043586018801602481013585526109d09060440161106d565b6020850190815290606460043588018a0101356001600160401b03811161019e5760209060048b8a8235010101010136601f8201121561019e57610a1b9036906020813591016111b7565b91604086019283526040610a39608060048d8c82350101010161104a565b6060880190815294607f19011261019e5760405191604083018381106001600160401b03821117610bad5760405260043589018b0160a4810135845260c40135916001600160e01b03198316830361019e57602084019283526080880184905260e46004358b018d010135958615159384880361019e5760356054610b699860209a988b9998610b439560019f8c9b60a08201525198519351975192519063ffffffff60e01b905116908b604051998a968288019c8d526001600160601b03199060601b1660408801528051918291018888015e8501936001600160801b03199060801b16868501526064840152608483015260f81b608882015203016015810184520182611104565b5190206040519582879351918291018585015e8201908382015203018084520182611104565b9560a4600435860182010135610b945760206004610b8d92878235010101016117c1565b0193610954565b60206004610ba892878235010101016115cb565b610b8d565b634e487b7160e01b5f52604160045260245ffd5b805160209091012060043560a40135602219850181121561019e57600435016004810135916001600160401b03831161019e57606083023603602483011361019e576060935f5b84811015610d59576004606082028501016060601f19823603011261019e5760405190606082018281106001600160401b03821117610bad576040526020810135918281526040820198610c5b8a61106d565b9283602084015260600192610c6f8461104a565b6040819401526040519260208401918683526001600160601b03199060601b1660408501526001600160801b03199060801b16605484015260448352610cb6606484611104565b60405192828493516020819201602086015e83019060208201905f8252519283915e016020015f815203601f1981018252610cf19082611104565b97610cfb90611081565b610d04826110a2565b610d0d91611464565b610d16906110a2565b604080519283526001600160801b039190911660208301527fa217f2987a7942c2966f1fd16d39097862308325249e8b9fb4c00a430fd6578391a1600101610c08565b508451602086012060043560440191610d7183611095565b15610f6257506001610d87606460043501611081565b610d8f6111ed565b600254906101008360a81b039060081b16906affffffffffffffffffffff60a81b16171792836002555f916024602060018060a01b03610dee7f00000000000000000000000000000000000000000000000000000000000000006113e4565b16604051928380926370a0823160e01b82523060048301525afa908115610f57575f91610f24575b50602095610e39916001600160801b03169060081c6001600160a01b0316611464565b8254602460043501359384809203610ef3575b5050610e65610e5f600435600401611081565b94611095565b610e73606460043501611081565b610e816084600435016110a2565b9160405195888701976001600160601b03199060601b1688526034870152151560f81b60548601526001600160601b03199060601b1660558501526001600160801b03199060801b1660698401526079830152609982015260998152610ee860b982611104565b519020604051908152f35b557f5c601f20d27885120b6fed87a4c313849b86eaddc9d28e7685e2e66a9c08093085604051858152a18286610e4c565b90506020813d602011610f4f575b81610f3f60209383611104565b8101031261019e57516020610e16565b3d9150610f32565b6040513d5f823e3d90fd5b90926001600160a01b03610f7a600435606401611081565b16610f8757602093610e39565b60405162461bcd60e51b8152602060048201526024808201527f696e68657269746f72206d757374206265207a65726f206966206e6f742065786044820152631a5d195960e21b6064820152608490fd5b60405162461bcd60e51b815260206004820152601d60248201527f6163746f724964206d757374206265207468697320636f6e74726163740000006044820152606490fd5b9181601f8401121561019e578235916001600160401b03831161019e576020838186019501011161019e57565b35906001600160801b038216820361019e57565b60443590811515820361019e57565b35906001600160a01b038216820361019e57565b356001600160a01b038116810361019e5790565b35801515810361019e5790565b356001600160801b038116810361019e5790565b908060209392818452848401375f828201840152601f01601f1916010190565b926040926110fd916001600160801b039397969786526060602087015260608601916110b6565b9416910152565b90601f801991011681019081106001600160401b03821117610bad57604052565b7f00000000000000000000000000000000000000000000000000000000000000006001600160a01b0316330361115757565b60405162461bcd60e51b815260206004820152601860248201527f63616c6c6572206973206e6f742074686520726f7574657200000000000000006044820152606490fd5b6001600160401b038111610bad57601f01601f191660200190565b9291926111c38261119c565b916111d16040519384611104565b82948184528183011161019e578281602093845f960137010152565b60ff600254166111f957565b60405162461bcd60e51b81526020600482015260116024820152701c1c9bd9dc985b481a5cc8195e1a5d1959607a1b6044820152606490fd5b6001541561123c57565b60405162461bcd60e51b815260206004820152602b60248201527f696e697469616c697a6572206861736e2774206372656174656420696e69742060448201526a1b595cdcd859d9481e595d60aa1b6064820152608490fd5b9081602091031261019e5751801515810361019e5790565b6001600160801b0316806112be5750565b7f00000000000000000000000000000000000000000000000000000000000000009060209060646001600160a01b036112f6856113e4565b6040516323b872dd60e01b81523360048201526001600160a01b0390961660248701526044860193909352849283915f91165af1908115610f57575f916113b5575b501561134057565b60405162461bcd60e51b815260206004820152604160248201527f6661696c656420746f207472616e73666572206e6f6e2d7a65726f20616d6f7560448201527f6e74206f662057566172612066726f6d20736f7572636520746f20726f7574656064820152603960f91b608482015260a490fd5b6113d7915060203d6020116113dd575b6113cf8183611104565b810190611295565b5f611338565b503d6113c5565b60405163088f50cf60e41b815290602090829060049082906001600160a01b03165afa908115610f57575f91611422575b506001600160a01b031690565b90506020813d60201161145c575b8161143d60209383611104565b8101031261019e57516001600160a01b038116810361019e575f611415565b3d9150611430565b906001600160801b031680611477575050565b60209060446001600160a01b036114ad7f00000000000000000000000000000000000000000000000000000000000000006113e4565b60405163a9059cbb60e01b81526001600160a01b0390961660048701526024860193909352849283915f91165af1908115610f57575f91611536575b50156114f157565b60405162461bcd60e51b815260206004820152601860248201527f6661696c656420746f207472616e7366657220575661726100000000000000006044820152606490fd5b61154f915060203d6020116113dd576113cf8183611104565b5f6114e9565b356001600160e01b03198116810361019e5790565b903590601e198136030182121561019e57018035906001600160401b03821161019e5760200191813603831361019e57565b3d156115c6573d906115ad8261119c565b916115bb6040519384611104565b82523d5f602084013e565b606090565b602081016115d881611081565b906115f060608401926115ea846110a2565b90611464565b6115fc60c08401611095565b611687575b507fe240a19e4a4ef8e5861c0eea48f9ab2cdb47bfe98347c94ccabb9c45f7d8d1c69061163c611634604085018561156a565b9190926110a2565b60806001600160e01b031961165360a08801611555565b16956001600160801b036116746040519687966060885260608801916110b6565b93166020850152013560408301520390a2565b5f806116c960a086019360ff60f81b61169f86611555565b841a60f81b16158314611758576116c36116bc604089018961156a565b36916111b7565b50611081565b816116d7604088018861156a565b9190826040519384928337810182815203926207a120f16116f661159c565b5061160157604090608061172a7f5136ea80de584762b9532903198dfdd1125167a8685e943b1bc5d16b777151c3946110a2565b916001600160e01b03199061173e90611555565b16946001600160801b0384519316835201356020820152a2565b6117bc611768604089018961156a565b61177188611555565b61179f604051938493634a646c7f60e01b60208601528d3560248601526060604486015260848501916110b6565b9063ffffffff60e01b1660648301520390601f1982018152611104565b611081565b6117ca816118f7565b156117d25750565b6117de60c08201611095565b61184b575b7f9c4ffe7286aed9eb205c8adb12b51219122c7e56c67017f312af0e15f801177361184661181360208401611081565b611820604085018561156a565b61182f606087959395016110a2565b9060405194859460018060a01b03169735856110d6565b0390a2565b602081015f8061185a83611081565b81611868604087018761156a565b9190826040519384928337810182815203926207a120f161188761159c565b501561189357506117e3565b6118bd7f76c87872723521658a1c429bc5e355c5ad7b30719dae90158fe2b591f9ea56f891611081565b6118c9606084016110a2565b60408051943585526001600160801b0390911660208501526001600160a01b03909116929081908101611846565b611904604082018261156a565b90916001600160a01b038061191b60208401611081565b16149081611baa575b5080611ba1575b15611b9b5781358060f81c90600182101580611b90575b15611b885760f31c611fe01690600182018310611b88576001840135927f5c601f20d27885120b6fed87a4c313849b86eaddc9d28e7685e2e66a9c08093084141580611b5e575b80611b34575b80611b0a575b80611ae0575b80611ab6575b80611a8c575b80611a62575b15611a5957829003905f1982019260405192601e601f1991011683018381106001600160401b0382111761019e5760405283908601600101833760218501359460418101359160018103611a085750505090919250a1600190565b60028103611a1957505050a2600190565b600381979593969497145f14611a3557505090919293a3600190565b600414611a48575b505050505050600190565b6061013594a45f8080808080611a3d565b50505050505f90565b507fa217f2987a7942c2966f1fd16d39097862308325249e8b9fb4c00a430fd657838414156119ad565b507fe240a19e4a4ef8e5861c0eea48f9ab2cdb47bfe98347c94ccabb9c45f7d8d1c68414156119a7565b507f9c4ffe7286aed9eb205c8adb12b51219122c7e56c67017f312af0e15f80117738414156119a1565b507f85ba4ebb0990fc588bfbb287e2e810a77c858e0a69485d6a938c52c05423666784141561199b565b507f0354817698da67944179457b89e15c1c57ca7b8cfd9d80eab1d09c258f6c4978841415611995565b507fb64dad8a89028819d048f9c75ec4c516341da68972bb68a8e1262b5443c61e7f84141561198f565b507f9d835932f9695ed8acd7290fb99476799c321b20b15a597a99b597bdfb907c54841415611989565b505050505f90565b506004821115611942565b50505f90565b5080151561192b565b6001600160801b0391506060611bc091016110a2565b16155f61192456","linkReferences":{}},"methodIdentifiers":{"claimValue(bytes32)":"91d5a64c","executableBalanceTopUp(uint128)":"704ed542","exited()":"5ce6c327","inheritor()":"36a52a18","initialize(address,address,bool)":"e4bbb5a8","initializer()":"9ce110d7","nonce()":"affed0e0","performStateTransition((address,bytes32,bool,address,uint128,(bytes32,address,uint128)[],(bytes32,address,bytes,uint128,(bytes32,bytes4),bool)[]))":"02c649c9","router()":"f887ea40","sendMessage(bytes,uint128,bool)":"2a68e35d","sendReply(bytes32,bytes,uint128)":"29336f39","stateHash()":"701da98e","transferLockedValueToInheritor()":"e43f3433"},"storageLayout":{"storage":[{"astId":74973,"contract":"src/Mirror.sol:Mirror","label":"stateHash","offset":0,"slot":"0","type":"t_bytes32"},{"astId":74976,"contract":"src/Mirror.sol:Mirror","label":"nonce","offset":0,"slot":"1","type":"t_uint256"},{"astId":74979,"contract":"src/Mirror.sol:Mirror","label":"exited","offset":0,"slot":"2","type":"t_bool"},{"astId":74982,"contract":"src/Mirror.sol:Mirror","label":"inheritor","offset":1,"slot":"2","type":"t_address"},{"astId":74985,"contract":"src/Mirror.sol:Mirror","label":"initializer","offset":0,"slot":"3","type":"t_address"},{"astId":74988,"contract":"src/Mirror.sol:Mirror","label":"isSmall","offset":20,"slot":"3","type":"t_bool"}],"types":{"t_address":{"encoding":"inplace","label":"address","numberOfBytes":"20"},"t_bool":{"encoding":"inplace","label":"bool","numberOfBytes":"1"},"t_bytes32":{"encoding":"inplace","label":"bytes32","numberOfBytes":"32"},"t_uint256":{"encoding":"inplace","label":"uint256","numberOfBytes":"32"}}},"id":152}