{"abi":[{"type":"constructor","inputs":[{"name":"_router","type":"address","internalType":"address"}],"stateMutability":"nonpayable"},{"type":"fallback","stateMutability":"payable"},{"type":"function","name":"router","inputs":[],"outputs":[{"name":"","type":"address","internalType":"address"}],"stateMutability":"view"}],"bytecode":{"object":"0x60a034606b57601f61021038819003918201601f19168301916001600160401b03831184841017606f57808492602094604052833981010312606b57516001600160a01b0381168103606b5760805260405161018c908161008482396080518181816023015260e10152f35b5f80fd5b634e487b7160e01b5f52604160045260245ffdfe608060405260043610156100c0575b632226c8b960e11b60809081526020906004817f00000000000000000000000000000000000000000000000000000000000000006001600160a01b03165afa80156100b5575f9015610139575060203d6020116100ae575b601f19601f820116608001906080821067ffffffffffffffff83111761009a5761009591604052608001610117565b610139565b634e487b7160e01b5f52604160045260245ffd5b503d610066565b6040513d5f823e3d90fd5b5f3560e01c63f887ea400361000e5734610113575f366003190112610113577f00000000000000000000000000000000000000000000000000000000000000006001600160a01b03166080908152602090f35b5f80fd5b602090607f190112610113576080516001600160a01b03811681036101135790565b5f8091368280378136915af43d5f803e15610152573d5ff35b3d5ffdfea264697066735822122087146b6bba8b411403e081d832d2834826243a4a3c173eb5e6da0c0d40a074e864736f6c634300081a0033","linkReferences":{}},"methodIdentifiers":{"router()":"f887ea40"},"storageLayout":{"storage":[],"types":{}},"id":158}