{"abi":[{"type":"constructor","inputs":[{"name":"_router","type":"address","internalType":"address"}],"stateMutability":"nonpayable"},{"type":"fallback","stateMutability":"payable"},{"type":"function","name":"claimValue","inputs":[{"name":"claimedId","type":"bytes32","internalType":"bytes32"}],"outputs":[],"stateMutability":"nonpayable"},{"type":"function","name":"decoder","inputs":[],"outputs":[{"name":"","type":"address","internalType":"address"}],"stateMutability":"view"},{"type":"function","name":"executableBalanceTopUp","inputs":[{"name":"value","type":"uint128","internalType":"uint128"}],"outputs":[],"stateMutability":"nonpayable"},{"type":"function","name":"inheritor","inputs":[],"outputs":[{"name":"","type":"address","internalType":"address"}],"stateMutability":"view"},{"type":"function","name":"initializer","inputs":[],"outputs":[{"name":"","type":"address","internalType":"address"}],"stateMutability":"view"},{"type":"function","name":"nonce","inputs":[],"outputs":[{"name":"","type":"uint256","internalType":"uint256"}],"stateMutability":"view"},{"type":"function","name":"router","inputs":[],"outputs":[{"name":"","type":"address","internalType":"address"}],"stateMutability":"view"},{"type":"function","name":"sendMessage","inputs":[{"name":"payload","type":"bytes","internalType":"bytes"},{"name":"value","type":"uint128","internalType":"uint128"}],"outputs":[],"stateMutability":"nonpayable"},{"type":"function","name":"sendReply","inputs":[{"name":"repliedTo","type":"bytes32","internalType":"bytes32"},{"name":"payload","type":"bytes","internalType":"bytes"},{"name":"value","type":"uint128","internalType":"uint128"}],"outputs":[],"stateMutability":"nonpayable"},{"type":"function","name":"stateHash","inputs":[],"outputs":[{"name":"","type":"bytes32","internalType":"bytes32"}],"stateMutability":"view"},{"type":"function","name":"transferLockedValueToInheritor","inputs":[],"outputs":[],"stateMutability":"nonpayable"}],"bytecode":{"object":"0x60a0604052348015600e575f5ffd5b50604051610523380380610523833981016040819052602b91603b565b6001600160a01b03166080526066565b5f60208284031215604a575f5ffd5b81516001600160a01b0381168114605f575f5ffd5b9392505050565b60805161049e6100855f395f81816101f20152610257015261049e5ff3fe60806040526004361061009b575f3560e01c80639cb33005116100635780639cb330051461015c5780639ce110d71461017a578063affed0e014610199578063d5624222146101ae578063e43f3433146101cd578063f887ea40146101e15761009b565b806329336f39146100a557806336a52a18146100c4578063701da98e14610100578063704ed5421461012357806391d5a64c14610142575b6100a3610214565b005b3480156100b0575f5ffd5b506100a36100bf366004610361565b610226565b3480156100cf575f5ffd5b506001546100e3906001600160a01b031681565b6040516001600160a01b0390911681526020015b60405180910390f35b34801561010b575f5ffd5b5061011560035481565b6040519081526020016100f7565b34801561012e575f5ffd5b506100a361013d3660046103bb565b610234565b34801561014d575f5ffd5b506100a361013d3660046103db565b348015610167575f5ffd5b505f546100e3906001600160a01b031681565b348015610185575f5ffd5b506002546100e3906001600160a01b031681565b3480156101a4575f5ffd5b5061011560045481565b3480156101b9575f5ffd5b506100a36101c83660046103f2565b61023f565b3480156101d8575f5ffd5b506100a361024c565b3480156101ec575f5ffd5b506100e37f000000000000000000000000000000000000000000000000000000000000000081565b61022461021f610254565b6102da565b565b61022e610214565b50505050565b61023c610214565b50565b610247610214565b505050565b610224610214565b5f7f00000000000000000000000000000000000000000000000000000000000000006001600160a01b031663e6fabc096040518163ffffffff1660e01b8152600401602060405180830381865afa1580156102b1573d5f5f3e3d5ffd5b505050506040513d601f19601f820116820180604052508101906102d59190610442565b905090565b365f5f375f5f365f845af43d5f5f3e8080156102f4573d5ff35b3d5ffd5b5f5f83601f840112610308575f5ffd5b50813567ffffffffffffffff81111561031f575f5ffd5b602083019150836020828501011115610336575f5ffd5b9250929050565b80356fffffffffffffffffffffffffffffffff8116811461035c575f5ffd5b919050565b5f5f5f5f60608587031215610374575f5ffd5b84359350602085013567ffffffffffffffff811115610391575f5ffd5b61039d878288016102f8565b90945092506103b090506040860161033d565b905092959194509250565b5f602082840312156103cb575f5ffd5b6103d48261033d565b9392505050565b5f602082840312156103eb575f5ffd5b5035919050565b5f5f5f60408486031215610404575f5ffd5b833567ffffffffffffffff81111561041a575f5ffd5b610426868287016102f8565b909450925061043990506020850161033d565b90509250925092565b5f60208284031215610452575f5ffd5b81516001600160a01b03811681146103d4575f5ffdfea2646970667358221220e5229ec113a29a7bfce3cc83d68dfa6c4b608cfc84452d9dd743a8ad2631d40a64736f6c634300081c0033","linkReferences":{}},"methodIdentifiers":{"claimValue(bytes32)":"91d5a64c","decoder()":"9cb33005","executableBalanceTopUp(uint128)":"704ed542","inheritor()":"36a52a18","initializer()":"9ce110d7","nonce()":"affed0e0","router()":"f887ea40","sendMessage(bytes,uint128)":"d5624222","sendReply(bytes32,bytes,uint128)":"29336f39","stateHash()":"701da98e","transferLockedValueToInheritor()":"e43f3433"},"storageLayout":{"storage":[{"astId":67790,"contract":"src/MirrorProxy.sol:MirrorProxy","label":"decoder","offset":0,"slot":"0","type":"t_address"},{"astId":67792,"contract":"src/MirrorProxy.sol:MirrorProxy","label":"inheritor","offset":0,"slot":"1","type":"t_address"},{"astId":67794,"contract":"src/MirrorProxy.sol:MirrorProxy","label":"initializer","offset":0,"slot":"2","type":"t_address"},{"astId":67796,"contract":"src/MirrorProxy.sol:MirrorProxy","label":"stateHash","offset":0,"slot":"3","type":"t_bytes32"},{"astId":67798,"contract":"src/MirrorProxy.sol:MirrorProxy","label":"nonce","offset":0,"slot":"4","type":"t_uint256"}],"types":{"t_address":{"encoding":"inplace","label":"address","numberOfBytes":"20"},"t_bytes32":{"encoding":"inplace","label":"bytes32","numberOfBytes":"32"},"t_uint256":{"encoding":"inplace","label":"uint256","numberOfBytes":"32"}}},"id":119}