{"abi":[{"type":"function","name":"claimValue","inputs":[{"name":"_claimedId","type":"bytes32","internalType":"bytes32"}],"outputs":[],"stateMutability":"nonpayable"},{"type":"function","name":"createDecoder","inputs":[{"name":"implementation","type":"address","internalType":"address"},{"name":"salt","type":"bytes32","internalType":"bytes32"}],"outputs":[],"stateMutability":"nonpayable"},{"type":"function","name":"decoder","inputs":[],"outputs":[{"name":"","type":"address","internalType":"address"}],"stateMutability":"view"},{"type":"function","name":"executableBalanceBurned","inputs":[{"name":"value","type":"uint128","internalType":"uint128"}],"outputs":[],"stateMutability":"nonpayable"},{"type":"function","name":"executableBalanceTopUp","inputs":[{"name":"_value","type":"uint128","internalType":"uint128"}],"outputs":[],"stateMutability":"payable"},{"type":"function","name":"initMessage","inputs":[{"name":"source","type":"address","internalType":"address"},{"name":"payload","type":"bytes","internalType":"bytes"},{"name":"value","type":"uint128","internalType":"uint128"},{"name":"executableBalance","type":"uint128","internalType":"uint128"}],"outputs":[],"stateMutability":"nonpayable"},{"type":"function","name":"messageSent","inputs":[{"name":"id","type":"bytes32","internalType":"bytes32"},{"name":"destination","type":"address","internalType":"address"},{"name":"payload","type":"bytes","internalType":"bytes"},{"name":"value","type":"uint128","internalType":"uint128"}],"outputs":[],"stateMutability":"nonpayable"},{"type":"function","name":"nonce","inputs":[],"outputs":[{"name":"","type":"uint256","internalType":"uint256"}],"stateMutability":"view"},{"type":"function","name":"replySent","inputs":[{"name":"destination","type":"address","internalType":"address"},{"name":"payload","type":"bytes","internalType":"bytes"},{"name":"value","type":"uint128","internalType":"uint128"},{"name":"replyTo","type":"bytes32","internalType":"bytes32"},{"name":"replyCode","type":"bytes4","internalType":"bytes4"}],"outputs":[],"stateMutability":"nonpayable"},{"type":"function","name":"router","inputs":[],"outputs":[{"name":"","type":"address","internalType":"address"}],"stateMutability":"view"},{"type":"function","name":"sendMessage","inputs":[{"name":"_payload","type":"bytes","internalType":"bytes"},{"name":"_value","type":"uint128","internalType":"uint128"}],"outputs":[{"name":"","type":"bytes32","internalType":"bytes32"}],"stateMutability":"payable"},{"type":"function","name":"sendReply","inputs":[{"name":"_repliedTo","type":"bytes32","internalType":"bytes32"},{"name":"_payload","type":"bytes","internalType":"bytes"},{"name":"_value","type":"uint128","internalType":"uint128"}],"outputs":[],"stateMutability":"payable"},{"type":"function","name":"stateHash","inputs":[],"outputs":[{"name":"","type":"bytes32","internalType":"bytes32"}],"stateMutability":"view"},{"type":"function","name":"updateState","inputs":[{"name":"newStateHash","type":"bytes32","internalType":"bytes32"}],"outputs":[],"stateMutability":"nonpayable"},{"type":"function","name":"valueClaimed","inputs":[{"name":"claimedId","type":"bytes32","internalType":"bytes32"},{"name":"destination","type":"address","internalType":"address"},{"name":"value","type":"uint128","internalType":"uint128"}],"outputs":[],"stateMutability":"nonpayable"},{"type":"event","name":"ExecutableBalanceTopUpRequested","inputs":[{"name":"value","type":"uint128","indexed":false,"internalType":"uint128"}],"anonymous":false},{"type":"event","name":"Message","inputs":[{"name":"id","type":"bytes32","indexed":false,"internalType":"bytes32"},{"name":"destination","type":"address","indexed":true,"internalType":"address"},{"name":"payload","type":"bytes","indexed":false,"internalType":"bytes"},{"name":"value","type":"uint128","indexed":false,"internalType":"uint128"}],"anonymous":false},{"type":"event","name":"MessageQueueingRequested","inputs":[{"name":"id","type":"bytes32","indexed":false,"internalType":"bytes32"},{"name":"source","type":"address","indexed":true,"internalType":"address"},{"name":"payload","type":"bytes","indexed":false,"internalType":"bytes"},{"name":"value","type":"uint128","indexed":false,"internalType":"uint128"}],"anonymous":false},{"type":"event","name":"Reply","inputs":[{"name":"payload","type":"bytes","indexed":false,"internalType":"bytes"},{"name":"value","type":"uint128","indexed":false,"internalType":"uint128"},{"name":"replyTo","type":"bytes32","indexed":false,"internalType":"bytes32"},{"name":"replyCode","type":"bytes4","indexed":true,"internalType":"bytes4"}],"anonymous":false},{"type":"event","name":"ReplyQueueingRequested","inputs":[{"name":"repliedTo","type":"bytes32","indexed":false,"internalType":"bytes32"},{"name":"source","type":"address","indexed":true,"internalType":"address"},{"name":"payload","type":"bytes","indexed":false,"internalType":"bytes"},{"name":"value","type":"uint128","indexed":false,"internalType":"uint128"}],"anonymous":false},{"type":"event","name":"StateChanged","inputs":[{"name":"stateHash","type":"bytes32","indexed":false,"internalType":"bytes32"}],"anonymous":false},{"type":"event","name":"ValueClaimed","inputs":[{"name":"claimedId","type":"bytes32","indexed":false,"internalType":"bytes32"},{"name":"value","type":"uint128","indexed":false,"internalType":"uint128"}],"anonymous":false},{"type":"event","name":"ValueClaimingRequested","inputs":[{"name":"claimedId","type":"bytes32","indexed":false,"internalType":"bytes32"},{"name":"source","type":"address","indexed":true,"internalType":"address"}],"anonymous":false},{"type":"error","name":"FailedDeployment","inputs":[]},{"type":"error","name":"InsufficientBalance","inputs":[{"name":"balance","type":"uint256","internalType":"uint256"},{"name":"needed","type":"uint256","internalType":"uint256"}]}],"bytecode":{"object":"0x60808060405234601557610fe9908161001a8239f35b5f80fdfe60806040526004361015610011575f80fd5b5f3560e01c806314503e511461086f57806329336f39146107a05780635b1b84f714610630578063701da98e14610614578063704ed542146105c25780638ea59e1d1461056157806391d5a64c146105205780639cb33005146104f8578063affed0e0146104db578063c2df600914610479578063c78bde7714610401578063d5624222146102ba578063dca4a3731461027c578063de1dd2e0146100ee5763f887ea40146100be575f80fd5b346100ea575f3660031901126100ea5760206100d8610d12565b6040516001600160a01b039091168152f35b5f80fd5b346100ea5760803660031901126100ea576101076108fb565b60243567ffffffffffffffff81116100ea57610127903690600401610953565b90610130610911565b9261013961093d565b936101556001600160a01b0361014d610d12565b163314610981565b6001549081610220577f3527a119fe7f25d965cb7abc58139f031e8909b8592488c7926862d569e435c6947f85ba4ebb0990fc588bfbb287e2e810a77c858e0a69485d6a938c52c0542366676020846101b061021b96610ce5565b6001556040513060601b6bffffffffffffffffffffffff191683820190815260148101929092526101ee81603484015b03601f1981018352826109e4565b519020986001600160801b0360405191168152a16040516001600160a01b03909416969394859485610a8d565b0390a2005b60405162461bcd60e51b815260206004820152602e60248201527f696e6974206d657373616765206d75737420626520637265617465642062656660448201526d6f726520616e79206f746865727360901b6064820152608490fd5b346100ea5760203660031901126100ea576102b8610298610927565b6102ab6001600160a01b0361014d610d12565b6102b3610d12565b610d7d565b005b60403660031901126100ea5760043567ffffffffffffffff81116100ea576102e6903690600401610953565b602435916001600160801b03831683036100ea5760049260206001600160a01b0361030f610d12565b16604051958680926337792e1d60e11b82525afa9081156103f657610368610363827f3527a119fe7f25d965cb7abc58139f031e8909b8592488c7926862d569e435c6946020985f916103c9575b50610a39565b610ea8565b60015461037481610ce5565b6001556040513060601b6bffffffffffffffffffffffff191687820190815260148101929092526103a881603484016101e0565b519020936103be60405192839232968885610a8d565b0390a2604051908152f35b6103e99150893d8b116103ef575b6103e181836109e4565b810190610a1a565b8961035d565b503d6103d7565b6040513d5f823e3d90fd5b346100ea5760a03660031901126100ea5761041a6108fb565b60243567ffffffffffffffff81116100ea5761043a903690600401610953565b9091610444610911565b608435926001600160e01b0319841684036100ea576102b8946104706001600160a01b0361014d610d12565b60643593610bd2565b346100ea5760803660031901126100ea576104926108e5565b6044359067ffffffffffffffff82116100ea576104b66102b8923690600401610953565b906104bf61093d565b926104d36001600160a01b0361014d610d12565b600435610afa565b346100ea575f3660031901126100ea576020600154604051908152f35b346100ea575f3660031901126100ea576002546040516001600160a01b039091168152602090f35b346100ea5760203660031901126100ea5760405160043581527f0354817698da67944179457b89e15c1c57ca7b8cfd9d80eab1d09c258f6c497860203292a2005b346100ea5760203660031901126100ea576004356105886001600160a01b0361014d610d12565b805f540361059257005b6020817f5c601f20d27885120b6fed87a4c313849b86eaddc9d28e7685e2e66a9c080930925f55604051908152a1005b60203660031901126100ea577f85ba4ebb0990fc588bfbb287e2e810a77c858e0a69485d6a938c52c05423666760206105f9610927565b61060281610ea8565b6001600160801b0360405191168152a1005b346100ea575f3660031901126100ea5760205f54604051908152f35b346100ea5760403660031901126100ea576106496108fb565b61065c6001600160a01b0361014d610d12565b600154610741576002546001600160a01b03166106f15780763d602d80600a3d3981f3363d3d373d3d3d363d7300000062ffffff6e5af43d82803e903d91602b57fd5bf39360881c16175f5260781b1760205260018060a01b03602435603760095ff51680156106e2576bffffffffffffffffffffffff60a01b60025416176002555f80f35b63b06ebf3d60e01b5f5260045ffd5b60405162461bcd60e51b815260206004820152602260248201527f6465636f64657220636f756c64206f6e6c792062652063726561746564206f6e604482015261636560f01b6064820152608490fd5b60405162461bcd60e51b815260206004820152603160248201527f6465636f64657220636f756c64206f6e6c792062652063726561746564206265604482015270666f726520696e6974206d65737361676560781b6064820152608490fd5b60603660031901126100ea5760243567ffffffffffffffff81116100ea576107cd60049136908301610953565b6107d8929192610911565b9060206001600160a01b036107eb610d12565b16604051948580926337792e1d60e11b82525afa9283156103f657610363837fb64dad8a89028819d048f9c75ec4c516341da68972bb68a8e1262b5443c61e7f9561083c935f916108505750610a39565b61021b604051928392329660043585610a8d565b610869915060203d6020116103ef576103e181836109e4565b8861035d565b346100ea5760603660031901126100ea577fa217f2987a7942c2966f1fd16d39097862308325249e8b9fb4c00a430fd6578360406108ab6108e5565b6108cc6108b6610911565b9182906102b36001600160a01b0361014d610d12565b6001600160801b038251916004358352166020820152a1005b602435906001600160a01b03821682036100ea57565b600435906001600160a01b03821682036100ea57565b604435906001600160801b03821682036100ea57565b600435906001600160801b03821682036100ea57565b606435906001600160801b03821682036100ea57565b9181601f840112156100ea5782359167ffffffffffffffff83116100ea57602083818601950101116100ea57565b1561098857565b60405162461bcd60e51b815260206004820152602e60248201527f6f6e6c7920726f7574657220636f6e747261637420697320656c696769626c6560448201526d103337b91037b832b930ba34b7b760911b6064820152608490fd5b90601f8019910116810190811067ffffffffffffffff821117610a0657604052565b634e487b7160e01b5f52604160045260245ffd5b908160209103126100ea57516001600160801b03811681036100ea5790565b906001600160801b03809116911601906001600160801b038211610a5957565b634e487b7160e01b5f52601160045260245ffd5b908060209392818452848401375f828201840152601f01601f1916010190565b92604092610ab4916001600160801b03939796978652606060208701526060860191610a6d565b9416910152565b3d15610af5573d9067ffffffffffffffff8211610a065760405191610aea601f8201601f1916602001846109e4565b82523d5f602084013e565b606090565b600254909493906001600160a01b031680610b51575b507f9c4ffe7286aed9eb205c8adb12b51219122c7e56c67017f312af0e15f801177393610b4c9160405194859460018060a01b03169785610a8d565b0390a2565b5f80916040518260208201916324dd3c7160e21b83528a602482015260018060a01b038816604482015260806064820152610bb181610b9460a482018a8d610a6d565b6001600160801b038d16608483015203601f1981018352826109e4565b51926207a120f1610bc0610abb565b50610bcb575f610b10565b5050505050565b94909294610be08682610d7d565b6002546001600160a01b03169081610c52575b50507fe240a19e4a4ef8e5861c0eea48f9ab2cdb47bfe98347c94ccabb9c45f7d8d1c6936001600160801b03610c36604051958695606087526060870191610a6d565b9616602084015260408301526001600160e01b031916930390a2565b6040516336dee52b60e01b602082019081526001600160a01b03909216602482015260a060448201525f92839290918390610cca818c6001600160801b03610c9e60c484018d8f610a6d565b91166064830152608482018d90526001600160e01b03198a1660a483015203601f1981018352826109e4565b51926207a120f1610cd9610abb565b50610bcb575f80610bf3565b5f198114610a595760010190565b908160209103126100ea57516001600160a01b03811681036100ea5790565b6040516303e21fa960e61b8152602081600481305afa9081156103f6575f91610d39575090565b610d5b915060203d602011610d5e575b610d5381836109e4565b810190610cf3565b90565b503d610d49565b908160209103126100ea575180151581036100ea5790565b60049160206001600160a01b03610d92610d12565b166040519485809263088f50cf60e41b82525afa9283156103f6575f93610e7e575b506001600160801b031680610dc857505050565b60405163a9059cbb60e01b81526001600160a01b039283166004820152602481019190915291602091839160449183915f91165af19081156103f6575f91610e4f575b5015610e1357565b60405162461bcd60e51b81526020600482015260146024820152736661696c656420746f2073656e6420575661726160601b6044820152606490fd5b610e71915060203d602011610e77575b610e6981836109e4565b810190610d65565b5f610e0b565b503d610e5f565b6001600160801b03919350610ea19060203d602011610d5e57610d5381836109e4565b9290610db4565b6001600160a01b03610eb8610d12565b60405163088f50cf60e41b8152911691602082600481865afa80156103f6576001600160801b03935f6064926020958291610f96575b5060405196879586946323b872dd60e01b8652326004870152602486015216604484015260018060a01b03165af19081156103f6575f91610f77575b5015610f3257565b60405162461bcd60e51b815260206004820152601860248201527f6661696c656420746f20726574726965766520575661726100000000000000006044820152606490fd5b610f90915060203d602011610e7757610e6981836109e4565b5f610f2a565b610fad9150863d8811610d5e57610d5381836109e4565b5f610eee56fea26469706673582212201474564a7576f3d8f32c34b21df808cac82ef3d2728ee0409c6d0fbea4b6898164736f6c634300081a0033","linkReferences":{}},"methodIdentifiers":{"claimValue(bytes32)":"91d5a64c","createDecoder(address,bytes32)":"5b1b84f7","decoder()":"9cb33005","executableBalanceBurned(uint128)":"dca4a373","executableBalanceTopUp(uint128)":"704ed542","initMessage(address,bytes,uint128,uint128)":"de1dd2e0","messageSent(bytes32,address,bytes,uint128)":"c2df6009","nonce()":"affed0e0","replySent(address,bytes,uint128,bytes32,bytes4)":"c78bde77","router()":"f887ea40","sendMessage(bytes,uint128)":"d5624222","sendReply(bytes32,bytes,uint128)":"29336f39","stateHash()":"701da98e","updateState(bytes32)":"8ea59e1d","valueClaimed(bytes32,address,uint128)":"14503e51"},"storageLayout":{"storage":[{"astId":54029,"contract":"src/Mirror.sol:Mirror","label":"stateHash","offset":0,"slot":"0","type":"t_bytes32"},{"astId":54031,"contract":"src/Mirror.sol:Mirror","label":"nonce","offset":0,"slot":"1","type":"t_uint256"},{"astId":54033,"contract":"src/Mirror.sol:Mirror","label":"decoder","offset":0,"slot":"2","type":"t_address"}],"types":{"t_address":{"encoding":"inplace","label":"address","numberOfBytes":"20"},"t_bytes32":{"encoding":"inplace","label":"bytes32","numberOfBytes":"32"},"t_uint256":{"encoding":"inplace","label":"uint256","numberOfBytes":"32"}}},"id":80}