{"abi":[{"type":"fallback","stateMutability":"payable"},{"type":"receive","stateMutability":"payable"},{"type":"function","name":"claimValue","inputs":[{"name":"","type":"bytes32","internalType":"bytes32"}],"outputs":[],"stateMutability":"nonpayable"},{"type":"function","name":"executableBalanceTopUp","inputs":[{"name":"_value","type":"uint128","internalType":"uint128"}],"outputs":[],"stateMutability":"nonpayable"},{"type":"function","name":"implAddress","inputs":[],"outputs":[{"name":"","type":"address","internalType":"address"}],"stateMutability":"view"},{"type":"function","name":"inheritor","inputs":[],"outputs":[{"name":"","type":"address","internalType":"address"}],"stateMutability":"view"},{"type":"function","name":"initialize","inputs":[{"name":"_initializer","type":"address","internalType":"address"},{"name":"_router","type":"address","internalType":"address"},{"name":"_implAddress","type":"address","internalType":"address"},{"name":"_interface","type":"address","internalType":"address"}],"outputs":[],"stateMutability":"nonpayable"},{"type":"function","name":"initializer","inputs":[],"outputs":[{"name":"","type":"address","internalType":"address"}],"stateMutability":"view"},{"type":"function","name":"nonce","inputs":[],"outputs":[{"name":"","type":"uint256","internalType":"uint256"}],"stateMutability":"view"},{"type":"function","name":"performStateTransition","inputs":[{"name":"","type":"tuple","internalType":"struct Gear.StateTransition","components":[{"name":"actorId","type":"address","internalType":"address"},{"name":"newStateHash","type":"bytes32","internalType":"bytes32"},{"name":"inheritor","type":"address","internalType":"address"},{"name":"valueToReceive","type":"uint128","internalType":"uint128"},{"name":"valueClaims","type":"tuple[]","internalType":"struct Gear.ValueClaim[]","components":[{"name":"messageId","type":"bytes32","internalType":"bytes32"},{"name":"destination","type":"address","internalType":"address"},{"name":"value","type":"uint128","internalType":"uint128"}]},{"name":"messages","type":"tuple[]","internalType":"struct Gear.Message[]","components":[{"name":"id","type":"bytes32","internalType":"bytes32"},{"name":"destination","type":"address","internalType":"address"},{"name":"payload","type":"bytes","internalType":"bytes"},{"name":"value","type":"uint128","internalType":"uint128"},{"name":"replyDetails","type":"tuple","internalType":"struct Gear.ReplyDetails","components":[{"name":"to","type":"bytes32","internalType":"bytes32"},{"name":"code","type":"bytes4","internalType":"bytes4"}]}]}]}],"outputs":[{"name":"resultData","type":"bytes32","internalType":"bytes32"}],"stateMutability":"nonpayable"},{"type":"function","name":"router","inputs":[],"outputs":[{"name":"","type":"address","internalType":"address"}],"stateMutability":"view"},{"type":"function","name":"sendMessage","inputs":[{"name":"","type":"bytes","internalType":"bytes"},{"name":"_value","type":"uint128","internalType":"uint128"}],"outputs":[{"name":"resultData","type":"bytes32","internalType":"bytes32"}],"stateMutability":"nonpayable"},{"type":"function","name":"sendReply","inputs":[{"name":"","type":"bytes32","internalType":"bytes32"},{"name":"","type":"bytes","internalType":"bytes"},{"name":"_value","type":"uint128","internalType":"uint128"}],"outputs":[],"stateMutability":"nonpayable"},{"type":"function","name":"stateHash","inputs":[],"outputs":[{"name":"","type":"bytes32","internalType":"bytes32"}],"stateMutability":"view"},{"type":"function","name":"transferLockedValueToInheritor","inputs":[],"outputs":[],"stateMutability":"nonpayable"},{"type":"event","name":"ExecutableBalanceTopUpRequested","inputs":[{"name":"value","type":"uint128","indexed":false,"internalType":"uint128"}],"anonymous":false},{"type":"event","name":"Message","inputs":[{"name":"id","type":"bytes32","indexed":false,"internalType":"bytes32"},{"name":"destination","type":"address","indexed":true,"internalType":"address"},{"name":"payload","type":"bytes","indexed":false,"internalType":"bytes"},{"name":"value","type":"uint128","indexed":false,"internalType":"uint128"}],"anonymous":false},{"type":"event","name":"MessageQueueingRequested","inputs":[{"name":"id","type":"bytes32","indexed":false,"internalType":"bytes32"},{"name":"source","type":"address","indexed":true,"internalType":"address"},{"name":"payload","type":"bytes","indexed":false,"internalType":"bytes"},{"name":"value","type":"uint128","indexed":false,"internalType":"uint128"}],"anonymous":false},{"type":"event","name":"Reply","inputs":[{"name":"payload","type":"bytes","indexed":false,"internalType":"bytes"},{"name":"value","type":"uint128","indexed":false,"internalType":"uint128"},{"name":"replyTo","type":"bytes32","indexed":false,"internalType":"bytes32"},{"name":"replyCode","type":"bytes4","indexed":true,"internalType":"bytes4"}],"anonymous":false},{"type":"event","name":"ReplyQueueingRequested","inputs":[{"name":"repliedTo","type":"bytes32","indexed":false,"internalType":"bytes32"},{"name":"source","type":"address","indexed":true,"internalType":"address"},{"name":"payload","type":"bytes","indexed":false,"internalType":"bytes"},{"name":"value","type":"uint128","indexed":false,"internalType":"uint128"}],"anonymous":false},{"type":"event","name":"StateChanged","inputs":[{"name":"stateHash","type":"bytes32","indexed":false,"internalType":"bytes32"}],"anonymous":false},{"type":"event","name":"ValueClaimed","inputs":[{"name":"claimedId","type":"bytes32","indexed":false,"internalType":"bytes32"},{"name":"value","type":"uint128","indexed":false,"internalType":"uint128"}],"anonymous":false},{"type":"event","name":"ValueClaimingRequested","inputs":[{"name":"claimedId","type":"bytes32","indexed":false,"internalType":"bytes32"},{"name":"source","type":"address","indexed":true,"internalType":"address"}],"anonymous":false}],"bytecode":{"object":"0x60808060405234601557610aa6908161001a8239f35b5f80fdfe608060405260043610156101ae575b36156101aa576020361061015957601f19360136811161014557361115610131575f8060405160208101636ab1211160e11b815260406024830152366064830152368360848401378260843684010152826044830152610083608483601f19601f36011681010301601f198101845283610913565b6005549151916001600160a01b03165af43d1561012c573d67ffffffffffffffff811161011857604051906100c2601f8201601f191660200183610913565b81525f60203d92013e5b156100d357005b60405162461bcd60e51b815260206004820152601b60248201527f4d6972726f723a2064656c656761746563616c6c206661696c656400000000006044820152606490fd5b634e487b7160e01b5f52604160045260245ffd5b6100cc565b634e487b7160e01b5f52603260045260245ffd5b634e487b7160e01b5f52601160045260245ffd5b60405162461bcd60e51b815260206004820152602360248201527f4d6972726f723a20696e76616c6964206d6573736167652064617461206c656e6044820152620cee8d60eb1b6064820152608490fd5b5f80fd5b5f3560e01c806329336f39146107d757806336a52a18146107af5780635e5ca58f14610787578063701da98e1461076b578063704ed542146106e557806391d5a64c146106bf5780639ce110d7146106975780639ed3235014610604578063affed0e0146105e7578063d562422214610410578063e43f3433146103a0578063f887ea40146103785763f8c8765e0361000e57346101aa5760803660031901126101aa576004356001600160a01b038116908190036101aa576024356001600160a01b03811691908290036101aa576044356001600160a01b038116908190036101aa57606435926001600160a01b038416928385036101aa576004546001600160a01b038116610328576001600160601b0360a01b16176004556001600160601b0360a01b60035416176003556001600160601b0360a01b60055416176005556001600160601b0360a01b60065416176006557f360894a13ba1a3210667c828492db98dca3e2076cc3735a920a3ca505d382bbc555f80f35b60405162461bcd60e51b815260206004820152602260248201527f696e697469616c697a657220636f756c64206f6e6c7920626520736574206f6e604482015261636560f01b6064820152608490fd5b346101aa575f3660031901126101aa576003546040516001600160a01b039091168152602090f35b346101aa575f3660031901126101aa576001546001600160a01b0316156103cb576103c9610a49565b005b60405162461bcd60e51b815260206004820152601960248201527f70726f6772616d206973206e6f74207465726d696e61746564000000000000006044820152606490fd5b346101aa5760403660031901126101aa5760043567ffffffffffffffff81116101aa57610441903690600401610841565b50506024356001600160801b0381168082036101aa5760015461046d906001600160a01b03161561086f565b600254158015906105d3575b1561055557610496575b602061048d610a49565b51604051908152f35b6003546104fa916020916001600160a01b03908116906104b5826109c9565b16905f6040518096819582946323b872dd60e01b845233600485016001600160a01b039182168152911660208201526001600160801b03909116604082015260600190565b03925af1801561054a57610515915f9161051b575b5061094d565b80610483565b61053d915060203d602011610543575b6105358183610913565b810190610935565b8261050f565b503d61052b565b6040513d5f823e3d90fd5b60405162461bcd60e51b815260206004820152604a60248201527f696e697469616c697a6572206861736e2774206372656174656420696e69742060448201527f6d657373616765207965743b20616e6420736f75726365206973206e6f7420696064820152693734ba34b0b634bd32b960b11b608482015260a490fd5b506004546001600160a01b03163314610479565b346101aa575f3660031901126101aa576020600254604051908152f35b346101aa5760203660031901126101aa5760043567ffffffffffffffff81116101aa5760c09060031990360301126101aa576003546001600160a01b0316330361065257602061048d610a49565b60405162461bcd60e51b815260206004820152601860248201527f63616c6c6572206973206e6f742074686520726f7574657200000000000000006044820152606490fd5b346101aa575f3660031901126101aa576004546040516001600160a01b039091168152602090f35b346101aa5760203660031901126101aa576106dd60025415156108b3565b6103c9610a49565b346101aa5760203660031901126101aa576004356001600160801b0381168082036101aa57600154610720906001600160a01b03161561086f565b61072c576103c9610a49565b60035461074b916020916001600160a01b03908116906104b5826109c9565b03925af1801561054a57610765915f9161051b575061094d565b806106dd565b346101aa575f3660031901126101aa5760205f54604051908152f35b346101aa575f3660031901126101aa576005546040516001600160a01b039091168152602090f35b346101aa575f3660031901126101aa576001546040516001600160a01b039091168152602090f35b346101aa5760603660031901126101aa5760243567ffffffffffffffff81116101aa57610808903690600401610841565b50506044356001600160801b0381168082036101aa57600154610834906001600160a01b03161561086f565b61072060025415156108b3565b9181601f840112156101aa5782359167ffffffffffffffff83116101aa57602083818601950101116101aa57565b1561087657565b60405162461bcd60e51b81526020600482015260156024820152741c1c9bd9dc985b481a5cc81d195c9b5a5b985d1959605a1b6044820152606490fd5b156108ba57565b60405162461bcd60e51b815260206004820152602b60248201527f696e697469616c697a6572206861736e2774206372656174656420696e69742060448201526a1b595cdcd859d9481e595d60aa1b6064820152608490fd5b90601f8019910116810190811067ffffffffffffffff82111761011857604052565b908160209103126101aa575180151581036101aa5790565b1561095457565b60405162461bcd60e51b815260206004820152604160248201527f6661696c656420746f207472616e73666572206e6f6e2d7a65726f20616d6f7560448201527f6e74206f662057566172612066726f6d20736f7572636520746f20726f7574656064820152603960f91b608482015260a490fd5b60405163088f50cf60e41b815290602090829060049082906001600160a01b03165afa90811561054a575f91610a07575b506001600160a01b031690565b90506020813d602011610a41575b81610a2260209383610913565b810103126101aa57516001600160a01b03811681036101aa575f6109fa565b3d9150610a15565b6040515f80600554368280378136915af415610a6c573d8082016040525f823e90565b3d5ffdfea2646970667358221220dde7ea4653e410bc5eb3948b07dbe2a2ce1744ada6b4ab56bee1ef2694931d1564736f6c634300081c0033","linkReferences":{}},"methodIdentifiers":{"claimValue(bytes32)":"91d5a64c","executableBalanceTopUp(uint128)":"704ed542","implAddress()":"5e5ca58f","inheritor()":"36a52a18","initialize(address,address,address,address)":"f8c8765e","initializer()":"9ce110d7","nonce()":"affed0e0","performStateTransition((address,bytes32,address,uint128,(bytes32,address,uint128)[],(bytes32,address,bytes,uint128,(bytes32,bytes4))[]))":"9ed32350","router()":"f887ea40","sendMessage(bytes,uint128)":"d5624222","sendReply(bytes32,bytes,uint128)":"29336f39","stateHash()":"701da98e","transferLockedValueToInheritor()":"e43f3433"},"storageLayout":{"storage":[{"astId":68054,"contract":"src/MirrorAbi.sol:MirrorAbi","label":"stateHash","offset":0,"slot":"0","type":"t_bytes32"},{"astId":68056,"contract":"src/MirrorAbi.sol:MirrorAbi","label":"inheritor","offset":0,"slot":"1","type":"t_address"},{"astId":68059,"contract":"src/MirrorAbi.sol:MirrorAbi","label":"nonce","offset":0,"slot":"2","type":"t_uint256"},{"astId":68061,"contract":"src/MirrorAbi.sol:MirrorAbi","label":"router","offset":0,"slot":"3","type":"t_address"},{"astId":68063,"contract":"src/MirrorAbi.sol:MirrorAbi","label":"initializer","offset":0,"slot":"4","type":"t_address"},{"astId":68065,"contract":"src/MirrorAbi.sol:MirrorAbi","label":"implAddress","offset":0,"slot":"5","type":"t_address"},{"astId":68067,"contract":"src/MirrorAbi.sol:MirrorAbi","label":"_abi","offset":0,"slot":"6","type":"t_address"}],"types":{"t_address":{"encoding":"inplace","label":"address","numberOfBytes":"20"},"t_bytes32":{"encoding":"inplace","label":"bytes32","numberOfBytes":"32"},"t_uint256":{"encoding":"inplace","label":"uint256","numberOfBytes":"32"}}},"id":126}