{"abi":[{"type":"constructor","inputs":[{"name":"_router","type":"address","internalType":"address"}],"stateMutability":"nonpayable"},{"type":"fallback","stateMutability":"payable"},{"type":"function","name":"claimValue","inputs":[{"name":"_claimedId","type":"bytes32","internalType":"bytes32"}],"outputs":[],"stateMutability":"nonpayable"},{"type":"function","name":"executableBalanceTopUp","inputs":[{"name":"_value","type":"uint128","internalType":"uint128"}],"outputs":[],"stateMutability":"nonpayable"},{"type":"function","name":"inheritor","inputs":[],"outputs":[{"name":"","type":"address","internalType":"address"}],"stateMutability":"view"},{"type":"function","name":"initialize","inputs":[{"name":"_initializer","type":"address","internalType":"address"},{"name":"_abiInterface","type":"address","internalType":"address"},{"name":"_isSmall","type":"bool","internalType":"bool"}],"outputs":[],"stateMutability":"nonpayable"},{"type":"function","name":"initializer","inputs":[],"outputs":[{"name":"","type":"address","internalType":"address"}],"stateMutability":"view"},{"type":"function","name":"nonce","inputs":[],"outputs":[{"name":"","type":"uint256","internalType":"uint256"}],"stateMutability":"view"},{"type":"function","name":"performStateTransition","inputs":[{"name":"_transition","type":"tuple","internalType":"struct Gear.StateTransition","components":[{"name":"actorId","type":"address","internalType":"address"},{"name":"newStateHash","type":"bytes32","internalType":"bytes32"},{"name":"inheritor","type":"address","internalType":"address"},{"name":"valueToReceive","type":"uint128","internalType":"uint128"},{"name":"valueClaims","type":"tuple[]","internalType":"struct Gear.ValueClaim[]","components":[{"name":"messageId","type":"bytes32","internalType":"bytes32"},{"name":"destination","type":"address","internalType":"address"},{"name":"value","type":"uint128","internalType":"uint128"}]},{"name":"messages","type":"tuple[]","internalType":"struct Gear.Message[]","components":[{"name":"id","type":"bytes32","internalType":"bytes32"},{"name":"destination","type":"address","internalType":"address"},{"name":"payload","type":"bytes","internalType":"bytes"},{"name":"value","type":"uint128","internalType":"uint128"},{"name":"replyDetails","type":"tuple","internalType":"struct Gear.ReplyDetails","components":[{"name":"to","type":"bytes32","internalType":"bytes32"},{"name":"code","type":"bytes4","internalType":"bytes4"}]}]}]}],"outputs":[{"name":"","type":"bytes32","internalType":"bytes32"}],"stateMutability":"nonpayable"},{"type":"function","name":"router","inputs":[],"outputs":[{"name":"","type":"address","internalType":"address"}],"stateMutability":"view"},{"type":"function","name":"sendMessage","inputs":[{"name":"_payload","type":"bytes","internalType":"bytes"},{"name":"_value","type":"uint128","internalType":"uint128"},{"name":"_callReply","type":"bool","internalType":"bool"}],"outputs":[{"name":"","type":"bytes32","internalType":"bytes32"}],"stateMutability":"nonpayable"},{"type":"function","name":"sendReply","inputs":[{"name":"_repliedTo","type":"bytes32","internalType":"bytes32"},{"name":"_payload","type":"bytes","internalType":"bytes"},{"name":"_value","type":"uint128","internalType":"uint128"}],"outputs":[],"stateMutability":"nonpayable"},{"type":"function","name":"stateHash","inputs":[],"outputs":[{"name":"","type":"bytes32","internalType":"bytes32"}],"stateMutability":"view"},{"type":"function","name":"transferLockedValueToInheritor","inputs":[],"outputs":[],"stateMutability":"nonpayable"},{"type":"event","name":"ExecutableBalanceTopUpRequested","inputs":[{"name":"value","type":"uint128","indexed":false,"internalType":"uint128"}],"anonymous":false},{"type":"event","name":"Message","inputs":[{"name":"id","type":"bytes32","indexed":false,"internalType":"bytes32"},{"name":"destination","type":"address","indexed":true,"internalType":"address"},{"name":"payload","type":"bytes","indexed":false,"internalType":"bytes"},{"name":"value","type":"uint128","indexed":false,"internalType":"uint128"}],"anonymous":false},{"type":"event","name":"MessageQueueingRequested","inputs":[{"name":"id","type":"bytes32","indexed":false,"internalType":"bytes32"},{"name":"source","type":"address","indexed":true,"internalType":"address"},{"name":"payload","type":"bytes","indexed":false,"internalType":"bytes"},{"name":"value","type":"uint128","indexed":false,"internalType":"uint128"},{"name":"callReply","type":"bool","indexed":false,"internalType":"bool"}],"anonymous":false},{"type":"event","name":"Reply","inputs":[{"name":"payload","type":"bytes","indexed":false,"internalType":"bytes"},{"name":"value","type":"uint128","indexed":false,"internalType":"uint128"},{"name":"replyTo","type":"bytes32","indexed":false,"internalType":"bytes32"},{"name":"replyCode","type":"bytes4","indexed":true,"internalType":"bytes4"}],"anonymous":false},{"type":"event","name":"ReplyQueueingRequested","inputs":[{"name":"repliedTo","type":"bytes32","indexed":false,"internalType":"bytes32"},{"name":"source","type":"address","indexed":true,"internalType":"address"},{"name":"payload","type":"bytes","indexed":false,"internalType":"bytes"},{"name":"value","type":"uint128","indexed":false,"internalType":"uint128"}],"anonymous":false},{"type":"event","name":"StateChanged","inputs":[{"name":"stateHash","type":"bytes32","indexed":false,"internalType":"bytes32"}],"anonymous":false},{"type":"event","name":"ValueClaimed","inputs":[{"name":"claimedId","type":"bytes32","indexed":false,"internalType":"bytes32"},{"name":"value","type":"uint128","indexed":false,"internalType":"uint128"}],"anonymous":false},{"type":"event","name":"ValueClaimingRequested","inputs":[{"name":"claimedId","type":"bytes32","indexed":false,"internalType":"bytes32"},{"name":"source","type":"address","indexed":true,"internalType":"address"}],"anonymous":false}],"bytecode":{"object":"0x60a0346100a957601f611cc638819003918201601f19168301916001600160401b038311848410176100ad578084926020946040528339810103126100a957516001600160a01b03811681036100a957608052604051611c0490816100c2823960805181818161011b015281816102f801528181610372015281816105530152818161068a01528181610cd501528181610ea5015281816110b6015281816111e8015261161b0152f35b5f80fd5b634e487b7160e01b5f52604160045260245ffdfe6080604052600436101561025b575b60ff60015460a01c166102575760443610610257575f546004356001600160801b031690610045906001600160a01b0316156112e0565b60035415801590610243575b156101c55780610113575b6003545f1981146100ff576001810160035560405160208101913060601b8352603482015260348152610090605482611384565b519020907f9d835932f9695ed8acd7290fb99476799c321b20b15a597a99b597bdfb907c5460405183815260806020820152602060808201368152365f838301375f823683010152601f19601f3601160101926040820152602435151560608201528033930390a25f5260205ff35b634e487b7160e01b5f52601160045260245ffd5b61016b6020827f00000000000000000000000000000000000000000000000000000000000000006001600160a01b0361014b82611525565b16905f6040518096819582946323b872dd60e01b845233600485016113bd565b03925af180156101ba57610186915f9161018b575b506113e7565b61005c565b6101ad915060203d6020116101b3575b6101a58183611384565b8101906113a5565b5f610180565b503d61019b565b6040513d5f823e3d90fd5b60405162461bcd60e51b815260206004820152604a60248201527f696e697469616c697a6572206861736e2774206372656174656420696e69742060448201527f6d657373616765207965743b20616e6420736f75726365206973206e6f7420696064820152693734ba34b0b634bd32b960b11b608482015260a490fd5b506001546001600160a01b03163314610051565b5f80fd5b5f3560e01c806329336f39146111395780632a68e35d14610f9c57806336a52a1814610f75578063701da98e14610f58578063704ed54214610e2d57806391d5a64c14610ddf5780639ce110d714610db75780639ed3235014610652578063affed0e014610635578063e43f343314610520578063e4bbb5a8146103275763f887ea400361000e5734610257575f366003190112610257576040517f00000000000000000000000000000000000000000000000000000000000000006001600160a01b03168152602090f35b34610257576060366003190112610257576004356001600160a01b03811690819003610257576024356001600160a01b03811691908290036102575761036b6112bd565b906103a0337f00000000000000000000000000000000000000000000000000000000000000006001600160a01b0316146114b1565b600154906001600160a01b0382166104d05760ff8260a01c1661048b577f360894a13ba1a3210667c828492db98dca3e2076cc3735a920a3ca505d382bbc54926001600160a01b03841661043a576001600160a81b03199092161790151560a01b60ff60a01b16176001556001600160a01b031916177f360894a13ba1a3210667c828492db98dca3e2076cc3735a920a3ca505d382bbc55005b60405162461bcd60e51b8152602060048201526024808201527f61626920696e7465726661636520636f756c64206f6e6c7920626520736574206044820152636f6e636560e01b6064820152608490fd5b60405162461bcd60e51b815260206004820152601e60248201527f6973536d616c6c20636f756c64206f6e6c7920626520736574206f6e636500006044820152606490fd5b60405162461bcd60e51b815260206004820152602260248201527f696e697469616c697a657220636f756c64206f6e6c7920626520736574206f6e604482015261636560f01b6064820152608490fd5b34610257575f366003190112610257575f546001600160a01b031680156105f05760249060206001600160a01b036105777f0000000000000000000000000000000000000000000000000000000000000000611525565b16604051938480926370a0823160e01b82523060048301525afa9182156101ba575f926105b5575b506001600160801b036105b39216906115f6565b005b91506020823d6020116105e8575b816105d060209383611384565b81010312610257579051906001600160801b0361059f565b3d91506105c3565b60405162461bcd60e51b815260206004820152601960248201527f70726f6772616d206973206e6f74207465726d696e61746564000000000000006044820152606490fd5b34610257575f366003190112610257576020600354604051908152f35b34610257576020366003190112610257576001600160401b036004351161025757600435360360c0600319820112610257576106b8337f00000000000000000000000000000000000000000000000000000000000000006001600160a01b0316146114b1565b6106c66004356004016114fd565b306001600160a01b0390911603610d725760043560a40135906022198101821215610257576001600160401b0360048381350101351161025757600482813501013560051b3603602483600435010113610257575f9160605b60048281350101358410156109f157600584901b6004358301908101602401359490360360e2190185121561025757602319600435840186013603019160c08312610257576040519260a084018481106001600160401b038211176109dd57604052600435850187016024810135855261079b906044016112cc565b602085015260646004358601880101356001600160401b0381116102575760209060048988823501010101019036601f83011215610257576107e660409236906020813591016115c0565b858301526107fc608460043588018a01016112a9565b6060860152607f19011261025757604051604081018181106001600160401b038211176109dd576040526004358501870160a4810135825260c40135936001600160e01b03198516850361025757602080938382936108e36034605460019b876109099a0190815285608086015284519588860151916060604088015197015191519063ffffffff60e01b905116908a6040519889958287019b8c526001600160601b03199060601b1660408701528051918291018787015e8401926001600160801b03199060801b16858401526064830152608482015203016014810184520182611384565b5190206040519582879351918291018585015e8201908382015203018084520182611384565b9460a46004358501820101356109c45761092b60246004358601830101611933565b1561093a575b505b019261071f565b7f9c4ffe7286aed9eb205c8adb12b51219122c7e56c67017f312af0e15f8011773600461096e6044823588018501016114fd565b6109bb610989833589018601840160608101906020016116e7565b61099c608086898d823501010101611511565b9160206040519687968c8060a01b0316998d8235010101013585611483565b0390a285610931565b602060046109d8928682350101010161172e565b610933565b634e487b7160e01b5f52604160045260245ffd5b8051602090910120916004356084013591506022190181121561025757600435016004810135906001600160401b038211610257576060820236036024820113610257576060925f5b83811015610b89576004606082028401016060601f1982360301126102575760405190606082018281106001600160401b038211176109dd576040526020810135918281526040820197610a8d896112cc565b9283602084015260600192610aa1846112a9565b6040819401526040519260208401918683526001600160601b03199060601b1660408501526001600160801b03199060801b16605484015260448352610ae8606484611384565b60405192828493516020819201602086015e83019060208201905f8252519283915e016020015f815203601f1981018252610b239082611384565b96610b2d906114fd565b610b3682611511565b610b3f916115f6565b610b4890611511565b6040519182526001600160801b0316602082015260407fa217f2987a7942c2966f1fd16d39097862308325249e8b9fb4c00a430fd6578391a1600101610a3a565b5083516020850120600435604401906001600160a01b03610ba9836114fd565b16610c84575b6020926002549160246004350135809303610c52575b610bdc610bd66004356004016114fd565b946114fd565b610bea606460043501611511565b9060405194878601966001600160601b03199060601b16875260348601526001600160601b03199060601b1660548501526001600160801b03199060801b1660688401526078830152609882015260988152610c4760b882611384565b519020604051908152f35b826002557f5c601f20d27885120b6fed87a4c313849b86eaddc9d28e7685e2e66a9c08093085604051858152a1610bc5565b610c8d826114fd565b5f549390610ca46001600160a01b038616156112e0565b6001600160a01b03166001600160a01b03199490941684175f5583156105f057602460206001600160a01b03610cf97f0000000000000000000000000000000000000000000000000000000000000000611525565b16604051928380926370a0823160e01b82523060048301525afa9081156101ba575f91610d3f575b506020946001600160801b03610d389216906115f6565b9250610baf565b90506020813d602011610d6a575b81610d5a60209383611384565b8101031261025757516020610d21565b3d9150610d4d565b60405162461bcd60e51b815260206004820152601d60248201527f6163746f724964206d757374206265207468697320636f6e74726163740000006044820152606490fd5b34610257575f366003190112610257576001546040516001600160a01b039091168152602090f35b3461025757602036600319011261025757610dfd6003541515611324565b60405160043581527f0354817698da67944179457b89e15c1c57ca7b8cfd9d80eab1d09c258f6c497860203392a2005b34610257576020366003190112610257576004356001600160801b03811690818103610257575f54610e68906001600160a01b0316156112e0565b81610e9b575b7f85ba4ebb0990fc588bfbb287e2e810a77c858e0a69485d6a938c52c054236667602083604051908152a1005b610ef591906020907f00000000000000000000000000000000000000000000000000000000000000006001600160a01b03610ed582611525565b16905f6040518097819582946323b872dd60e01b845233600485016113bd565b03925af19081156101ba57610f346020927f85ba4ebb0990fc588bfbb287e2e810a77c858e0a69485d6a938c52c054236667945f91610f3b57506113e7565b9150610e6e565b610f529150843d86116101b3576101a58183611384565b85610180565b34610257575f366003190112610257576020600254604051908152f35b34610257575f366003190112610257575f546040516001600160a01b039091168152602090f35b34610257576060366003190112610257576004356001600160401b03811161025757610fcc90369060040161127c565b90602435916001600160801b0383169081840361025757610feb6112bd565b5f54909490611003906001600160a01b0316156112e0565b60035415801590611125575b156101c557826110ad575b50600354905f1982146100ff576020946110928360017f9d835932f9695ed8acd7290fb99476799c321b20b15a597a99b597bdfb907c549501600355604051888101913060601b8352603482015260348152611077605482611384565b51902095604051938785526080898601526080850191611463565b936040830152151560608201528033930390a2604051908152f35b6110e6906020907f00000000000000000000000000000000000000000000000000000000000000006001600160a01b0361014b82611525565b03925af180156101ba57611100915f9161110657506113e7565b8461101a565b61111f915060203d6020116101b3576101a58183611384565b86610180565b506001546001600160a01b0316331461100f565b34610257576060366003190112610257576024356001600160401b0381116102575761116990369060040161127c565b6044356001600160801b038116808203610257575f54611192906001600160a01b0316156112e0565b61119f6003541515611324565b6111df575b7fb64dad8a89028819d048f9c75ec4c516341da68972bb68a8e1262b5443c61e7f916111da604051928392339660043585611483565b0390a2005b611238916020827f00000000000000000000000000000000000000000000000000000000000000006001600160a01b0361121882611525565b16905f6040518098819582946323b872dd60e01b845233600485016113bd565b03925af19283156101ba577fb64dad8a89028819d048f9c75ec4c516341da68972bb68a8e1262b5443c61e7f93611275915f9161110657506113e7565b91506111a4565b9181601f84011215610257578235916001600160401b038311610257576020838186019501011161025757565b35906001600160801b038216820361025757565b60443590811515820361025757565b35906001600160a01b038216820361025757565b156112e757565b60405162461bcd60e51b81526020600482015260156024820152741c1c9bd9dc985b481a5cc81d195c9b5a5b985d1959605a1b6044820152606490fd5b1561132b57565b60405162461bcd60e51b815260206004820152602b60248201527f696e697469616c697a6572206861736e2774206372656174656420696e69742060448201526a1b595cdcd859d9481e595d60aa1b6064820152608490fd5b90601f801991011681019081106001600160401b038211176109dd57604052565b90816020910312610257575180151581036102575790565b6001600160a01b039182168152911660208201526001600160801b03909116604082015260600190565b156113ee57565b60405162461bcd60e51b815260206004820152604160248201527f6661696c656420746f207472616e73666572206e6f6e2d7a65726f20616d6f7560448201527f6e74206f662057566172612066726f6d20736f7572636520746f20726f7574656064820152603960f91b608482015260a490fd5b908060209392818452848401375f828201840152601f01601f1916010190565b926040926114aa916001600160801b03939796978652606060208701526060860191611463565b9416910152565b156114b857565b60405162461bcd60e51b815260206004820152601860248201527f63616c6c6572206973206e6f742074686520726f7574657200000000000000006044820152606490fd5b356001600160a01b03811681036102575790565b356001600160801b03811681036102575790565b60405163088f50cf60e41b815290602090829060049082906001600160a01b03165afa9081156101ba575f91611563575b506001600160a01b031690565b90506020813d60201161159d575b8161157e60209383611384565b8101031261025757516001600160a01b0381168103610257575f611556565b3d9150611571565b6001600160401b0381116109dd57601f01601f191660200190565b9291926115cc826115a5565b916115da6040519384611384565b829481845281830111610257578281602093845f960137010152565b906001600160801b031680611609575050565b60209060446001600160a01b0361163f7f0000000000000000000000000000000000000000000000000000000000000000611525565b60405163a9059cbb60e01b81526001600160a01b0390961660048701526024860193909352849283915f91165af19081156101ba575f916116c8575b501561168357565b60405162461bcd60e51b815260206004820152601860248201527f6661696c656420746f207472616e7366657220575661726100000000000000006044820152606490fd5b6116e1915060203d6020116101b3576101a58183611384565b5f61167b565b903590601e198136030182121561025757018035906001600160401b0382116102575760200191813603831361025757565b356001600160e01b0319811681036102575790565b6020810161173b816114fd565b611752606084019161174c83611511565b906115f6565b61175b826114fd565b3b156118ad575061176e60a08301611719565b8060f81c80155f146117fc575050815f6117b06117a582959461179f6117986040869801876116e7565b36916115c0565b506114fd565b9260408101906116e7565b9190826040519384928337810182815203926207a120f13d156117f7573d6117d7816115a5565b906117e56040519283611384565b81525f60203d92013e5b6117f557565b565b6117ef565b909290600103611874575f6117b06117a582959461186f849661182260408801886116e7565b9091611852604051938493634a646c7f60e01b60208601528b356024860152606060448601526084850191611463565b9063ffffffff60e01b1660648301520390601f1982018152611384565b6114fd565b60405162461bcd60e51b8152602060048201526011602482015270756e6b6e6f776e207265706c79436f646560781b6044820152606490fd5b7fe240a19e4a4ef8e5861c0eea48f9ab2cdb47bfe98347c94ccabb9c45f7d8d1c691506118e86118e060408501856116e7565b919092611511565b60806001600160e01b03196118ff60a08801611719565b16956001600160801b03611920604051968796606088526060880191611463565b93166020850152013560408301520390a2565b61194060408201826116e7565b90916001600160a01b0380611957602084016114fd565b16149081611be6575b5080611bdd575b15611bd75781358060f81c90600182101580611bcc575b15611bc45760f31c611fe01690600182018310611bc4576001840135927f5c601f20d27885120b6fed87a4c313849b86eaddc9d28e7685e2e66a9c08093084141580611b9a575b80611b70575b80611b46575b80611b1c575b80611af2575b80611ac8575b80611a9e575b15611a9557829003905f1982019260405192601e601f1991011683018381106001600160401b038211176102575760405283908601600101833760218501359460418101359160018103611a445750505090919250a1600190565b60028103611a5557505050a2600190565b600381979593969497145f14611a7157505090919293a3600190565b600414611a84575b505050505050600190565b6061013594a45f8080808080611a79565b50505050505f90565b507fa217f2987a7942c2966f1fd16d39097862308325249e8b9fb4c00a430fd657838414156119e9565b507fe240a19e4a4ef8e5861c0eea48f9ab2cdb47bfe98347c94ccabb9c45f7d8d1c68414156119e3565b507f9c4ffe7286aed9eb205c8adb12b51219122c7e56c67017f312af0e15f80117738414156119dd565b507f85ba4ebb0990fc588bfbb287e2e810a77c858e0a69485d6a938c52c0542366678414156119d7565b507f0354817698da67944179457b89e15c1c57ca7b8cfd9d80eab1d09c258f6c49788414156119d1565b507fb64dad8a89028819d048f9c75ec4c516341da68972bb68a8e1262b5443c61e7f8414156119cb565b507f9d835932f9695ed8acd7290fb99476799c321b20b15a597a99b597bdfb907c548414156119c5565b505050505f90565b50600482111561197e565b50505f90565b50801515611967565b6001600160801b0391506060611bfc9101611511565b16155f61196056","linkReferences":{}},"methodIdentifiers":{"claimValue(bytes32)":"91d5a64c","executableBalanceTopUp(uint128)":"704ed542","inheritor()":"36a52a18","initialize(address,address,bool)":"e4bbb5a8","initializer()":"9ce110d7","nonce()":"affed0e0","performStateTransition((address,bytes32,address,uint128,(bytes32,address,uint128)[],(bytes32,address,bytes,uint128,(bytes32,bytes4))[]))":"9ed32350","router()":"f887ea40","sendMessage(bytes,uint128,bool)":"2a68e35d","sendReply(bytes32,bytes,uint128)":"29336f39","stateHash()":"701da98e","transferLockedValueToInheritor()":"e43f3433"},"storageLayout":{"storage":[{"astId":77505,"contract":"src/Mirror.sol:Mirror","label":"inheritor","offset":0,"slot":"0","type":"t_address"},{"astId":77508,"contract":"src/Mirror.sol:Mirror","label":"initializer","offset":0,"slot":"1","type":"t_address"},{"astId":77510,"contract":"src/Mirror.sol:Mirror","label":"isSmall","offset":20,"slot":"1","type":"t_bool"},{"astId":77512,"contract":"src/Mirror.sol:Mirror","label":"stateHash","offset":0,"slot":"2","type":"t_bytes32"},{"astId":77514,"contract":"src/Mirror.sol:Mirror","label":"nonce","offset":0,"slot":"3","type":"t_uint256"}],"types":{"t_address":{"encoding":"inplace","label":"address","numberOfBytes":"20"},"t_bool":{"encoding":"inplace","label":"bool","numberOfBytes":"1"},"t_bytes32":{"encoding":"inplace","label":"bytes32","numberOfBytes":"32"},"t_uint256":{"encoding":"inplace","label":"uint256","numberOfBytes":"32"}}},"id":162}