{"abi":[{"type":"function","name":"_retreiveValueToRouter","inputs":[{"name":"_value","type":"uint128","internalType":"uint128"}],"outputs":[],"stateMutability":"nonpayable"},{"type":"function","name":"_sendValueTo","inputs":[{"name":"destination","type":"address","internalType":"address"},{"name":"value","type":"uint128","internalType":"uint128"}],"outputs":[],"stateMutability":"nonpayable"},{"type":"function","name":"claimValue","inputs":[{"name":"_claimedId","type":"bytes32","internalType":"bytes32"}],"outputs":[],"stateMutability":"nonpayable"},{"type":"function","name":"executableBalanceBurned","inputs":[{"name":"value","type":"uint128","internalType":"uint128"}],"outputs":[],"stateMutability":"nonpayable"},{"type":"function","name":"executableBalanceTopUp","inputs":[{"name":"_value","type":"uint128","internalType":"uint128"}],"outputs":[],"stateMutability":"payable"},{"type":"function","name":"initMessage","inputs":[{"name":"source","type":"address","internalType":"address"},{"name":"payload","type":"bytes","internalType":"bytes"},{"name":"value","type":"uint128","internalType":"uint128"},{"name":"executableBalance","type":"uint128","internalType":"uint128"}],"outputs":[],"stateMutability":"nonpayable"},{"type":"function","name":"messageSent","inputs":[{"name":"id","type":"bytes32","internalType":"bytes32"},{"name":"destination","type":"address","internalType":"address"},{"name":"payload","type":"bytes","internalType":"bytes"},{"name":"value","type":"uint128","internalType":"uint128"}],"outputs":[],"stateMutability":"nonpayable"},{"type":"function","name":"nonce","inputs":[],"outputs":[{"name":"","type":"uint256","internalType":"uint256"}],"stateMutability":"view"},{"type":"function","name":"replySent","inputs":[{"name":"destination","type":"address","internalType":"address"},{"name":"payload","type":"bytes","internalType":"bytes"},{"name":"value","type":"uint128","internalType":"uint128"},{"name":"replyTo","type":"bytes32","internalType":"bytes32"},{"name":"replyCode","type":"bytes4","internalType":"bytes4"}],"outputs":[],"stateMutability":"nonpayable"},{"type":"function","name":"router","inputs":[],"outputs":[{"name":"","type":"address","internalType":"address"}],"stateMutability":"view"},{"type":"function","name":"sendMessage","inputs":[{"name":"_payload","type":"bytes","internalType":"bytes"},{"name":"_value","type":"uint128","internalType":"uint128"}],"outputs":[{"name":"","type":"bytes32","internalType":"bytes32"}],"stateMutability":"payable"},{"type":"function","name":"sendReply","inputs":[{"name":"_repliedTo","type":"bytes32","internalType":"bytes32"},{"name":"_payload","type":"bytes","internalType":"bytes"},{"name":"_value","type":"uint128","internalType":"uint128"}],"outputs":[],"stateMutability":"payable"},{"type":"function","name":"stateHash","inputs":[],"outputs":[{"name":"","type":"bytes32","internalType":"bytes32"}],"stateMutability":"view"},{"type":"function","name":"updateState","inputs":[{"name":"prevStateHash","type":"bytes32","internalType":"bytes32"},{"name":"newStateHash","type":"bytes32","internalType":"bytes32"}],"outputs":[],"stateMutability":"nonpayable"},{"type":"function","name":"valueClaimed","inputs":[{"name":"claimedId","type":"bytes32","internalType":"bytes32"},{"name":"destination","type":"address","internalType":"address"},{"name":"value","type":"uint128","internalType":"uint128"}],"outputs":[],"stateMutability":"nonpayable"},{"type":"event","name":"ClaimValueRequested","inputs":[{"name":"claimedId","type":"bytes32","indexed":false,"internalType":"bytes32"},{"name":"source","type":"address","indexed":true,"internalType":"address"}],"anonymous":false},{"type":"event","name":"ExecutableBalanceTopUpRequested","inputs":[{"name":"value","type":"uint128","indexed":false,"internalType":"uint128"}],"anonymous":false},{"type":"event","name":"Message","inputs":[{"name":"id","type":"bytes32","indexed":false,"internalType":"bytes32"},{"name":"destination","type":"address","indexed":true,"internalType":"address"},{"name":"payload","type":"bytes","indexed":false,"internalType":"bytes"},{"name":"value","type":"uint128","indexed":false,"internalType":"uint128"}],"anonymous":false},{"type":"event","name":"MessageQueued","inputs":[{"name":"id","type":"bytes32","indexed":false,"internalType":"bytes32"},{"name":"source","type":"address","indexed":true,"internalType":"address"},{"name":"payload","type":"bytes","indexed":false,"internalType":"bytes"},{"name":"value","type":"uint128","indexed":false,"internalType":"uint128"}],"anonymous":false},{"type":"event","name":"Reply","inputs":[{"name":"payload","type":"bytes","indexed":false,"internalType":"bytes"},{"name":"value","type":"uint128","indexed":false,"internalType":"uint128"},{"name":"replyTo","type":"bytes32","indexed":false,"internalType":"bytes32"},{"name":"replyCode","type":"bytes4","indexed":true,"internalType":"bytes4"}],"anonymous":false},{"type":"event","name":"ReplyQueueingRequested","inputs":[{"name":"repliedTo","type":"bytes32","indexed":false,"internalType":"bytes32"},{"name":"source","type":"address","indexed":true,"internalType":"address"},{"name":"payload","type":"bytes","indexed":false,"internalType":"bytes"},{"name":"value","type":"uint128","indexed":false,"internalType":"uint128"}],"anonymous":false},{"type":"event","name":"StateChanged","inputs":[{"name":"stateHash","type":"bytes32","indexed":true,"internalType":"bytes32"}],"anonymous":false},{"type":"event","name":"ValueClaimed","inputs":[{"name":"claimedId","type":"bytes32","indexed":false,"internalType":"bytes32"},{"name":"value","type":"uint128","indexed":false,"internalType":"uint128"}],"anonymous":false}],"bytecode":{"object":"0x6080604052600180553480156012575f80fd5b50611097806100205f395ff3fe6080604052600436106100e4575f3560e01c8063affed0e011610087578063dca4a37311610057578063dca4a37314610219578063de1dd2e014610238578063e7194a1a14610257578063f887ea4014610276575f80fd5b8063affed0e0146101b3578063c2df6009146101c8578063c78bde77146101e7578063d562422214610206575f80fd5b8063704ed542116100c2578063704ed54214610143578063773919fb146101565780637c58af131461017557806391d5a64c14610194575f80fd5b806314503e51146100e857806329336f3914610109578063701da98e1461011c575b5f80fd5b3480156100f3575f80fd5b50610107610102366004610bc7565b6102a2565b005b610107610117366004610c4b565b610333565b348015610127575f80fd5b506101305f5481565b6040519081526020015b60405180910390f35b610107610151366004610ca6565b6103f8565b348015610161575f80fd5b50610107610170366004610cc8565b610440565b348015610180575f80fd5b5061010761018f366004610ce8565b61050e565b34801561019f575f80fd5b506101076101ae366004610d1f565b61064f565b3480156101be575f80fd5b5061013060015481565b3480156101d3575f80fd5b506101076101e2366004610d36565b610687565b3480156101f2575f80fd5b50610107610201366004610da5565b6106fe565b610130610214366004610e31565b610790565b348015610224575f80fd5b50610107610233366004610ca6565b6108ac565b348015610243575f80fd5b50610107610252366004610e79565b6108f8565b348015610262575f80fd5b50610107610271366004610ca6565b6109fb565b348015610281575f80fd5b5061028a610b39565b6040516001600160a01b03909116815260200161013a565b6102aa610b39565b6001600160a01b0316336001600160a01b0316146102e35760405162461bcd60e51b81526004016102da90610ee3565b60405180910390fd5b6102ed828261050e565b604080518481526001600160801b03831660208201527fa217f2987a7942c2966f1fd16d39097862308325249e8b9fb4c00a430fd65783910160405180910390a1505050565b5f61033c610b39565b6001600160a01b0316636ef25c3a6040518163ffffffff1660e01b8152600401602060405180830381865afa158015610377573d5f803e3d5ffd5b505050506040513d601f19601f8201168201806040525081019061039b9190610f31565b90506103aa6102718383610f60565b326001600160a01b03167fb64dad8a89028819d048f9c75ec4c516341da68972bb68a8e1262b5443c61e7f868686866040516103e99493929190610fad565b60405180910390a25050505050565b610401816109fb565b6040516001600160801b03821681527f85ba4ebb0990fc588bfbb287e2e810a77c858e0a69485d6a938c52c0542366679060200160405180910390a150565b610448610b39565b6001600160a01b0316336001600160a01b0316146104785760405162461bcd60e51b81526004016102da90610ee3565b815f54146104d65760405162461bcd60e51b815260206004820152602560248201527f696e76616c6964207472616e736974696f6e20696e697469616c207374617465604482015264040d0c2e6d60db1b60648201526084016102da565b80821461050a575f81815560405182917f5c601f20d27885120b6fed87a4c313849b86eaddc9d28e7685e2e66a9c08093091a25b5050565b5f610517610b39565b6001600160a01b03166388f50cf06040518163ffffffff1660e01b8152600401602060405180830381865afa158015610552573d5f803e3d5ffd5b505050506040513d601f19601f820116820180604052508101906105769190610fe0565b90506001600160801b0382161561064a5760405163a9059cbb60e01b81526001600160a01b0384811660048301526001600160801b03841660248301525f919083169063a9059cbb906044016020604051808303815f875af11580156105de573d5f803e3d5ffd5b505050506040513d601f19601f820116820180604052508101906106029190610ffb565b9050806106485760405162461bcd60e51b81526020600482015260146024820152736661696c656420746f2073656e6420575661726160601b60448201526064016102da565b505b505050565b60405181815232907ffc4b5a237f6e2fcd9fc746812b217f90cf32463abdbfa83ff3fea87276f28d069060200160405180910390a250565b61068f610b39565b6001600160a01b0316336001600160a01b0316146106bf5760405162461bcd60e51b81526004016102da90610ee3565b836001600160a01b03167f9c4ffe7286aed9eb205c8adb12b51219122c7e56c67017f312af0e15f8011773868585856040516103e99493929190610fad565b610706610b39565b6001600160a01b0316336001600160a01b0316146107365760405162461bcd60e51b81526004016102da90610ee3565b610740868461050e565b806001600160e01b0319167fe240a19e4a4ef8e5861c0eea48f9ab2cdb47bfe98347c94ccabb9c45f7d8d1c686868686604051610780949392919061101a565b60405180910390a2505050505050565b5f8061079a610b39565b6001600160a01b0316636ef25c3a6040518163ffffffff1660e01b8152600401602060405180830381865afa1580156107d5573d5f803e3d5ffd5b505050506040513d601f19601f820116820180604052508101906107f99190610f31565b90506108086102718483610f60565b600180545f913091908361081b83611049565b9091555060405160609290921b6bffffffffffffffffffffffff191660208301526034820152605401604051602081830303815290604052805190602001209050326001600160a01b03167f9ca4dba43955b94f1b1c17b6e2566f077f03e1cb3f2347696598e3216697c46d8288888860405161089b9493929190610fad565b60405180910390a295945050505050565b6108b4610b39565b6001600160a01b0316336001600160a01b0316146108e45760405162461bcd60e51b81526004016102da90610ee3565b6108f56108ef610b39565b8261050e565b50565b610900610b39565b6001600160a01b0316336001600160a01b0316146109305760405162461bcd60e51b81526004016102da90610ee3565b6040516bffffffffffffffffffffffff193060601b1660208201525f6034820181905290819060540160408051601f198184030181529082905280516020918201206001600160801b038616835292507f85ba4ebb0990fc588bfbb287e2e810a77c858e0a69485d6a938c52c054236667910160405180910390a1866001600160a01b03167f9ca4dba43955b94f1b1c17b6e2566f077f03e1cb3f2347696598e3216697c46d828888886040516109ea9493929190610fad565b60405180910390a250505050505050565b5f610a04610b39565b90505f816001600160a01b03166388f50cf06040518163ffffffff1660e01b8152600401602060405180830381865afa158015610a43573d5f803e3d5ffd5b505050506040513d601f19601f82011682018060405250810190610a679190610fe0565b6040516323b872dd60e01b81523260048201526001600160a01b0384811660248301526001600160801b03861660448301529192505f918316906323b872dd906064016020604051808303815f875af1158015610ac6573d5f803e3d5ffd5b505050506040513d601f19601f82011682018060405250810190610aea9190610ffb565b9050806106485760405162461bcd60e51b815260206004820152601860248201527f6661696c656420746f207265747265697665205756617261000000000000000060448201526064016102da565b5f306001600160a01b031663f887ea406040518163ffffffff1660e01b8152600401602060405180830381865afa158015610b76573d5f803e3d5ffd5b505050506040513d601f19601f82011682018060405250810190610b9a9190610fe0565b905090565b6001600160a01b03811681146108f5575f80fd5b6001600160801b03811681146108f5575f80fd5b5f805f60608486031215610bd9575f80fd5b833592506020840135610beb81610b9f565b91506040840135610bfb81610bb3565b809150509250925092565b5f8083601f840112610c16575f80fd5b50813567ffffffffffffffff811115610c2d575f80fd5b602083019150836020828501011115610c44575f80fd5b9250929050565b5f805f8060608587031215610c5e575f80fd5b84359350602085013567ffffffffffffffff811115610c7b575f80fd5b610c8787828801610c06565b9094509250506040850135610c9b81610bb3565b939692955090935050565b5f60208284031215610cb6575f80fd5b8135610cc181610bb3565b9392505050565b5f8060408385031215610cd9575f80fd5b50508035926020909101359150565b5f8060408385031215610cf9575f80fd5b8235610d0481610b9f565b91506020830135610d1481610bb3565b809150509250929050565b5f60208284031215610d2f575f80fd5b5035919050565b5f805f805f60808688031215610d4a575f80fd5b853594506020860135610d5c81610b9f565b9350604086013567ffffffffffffffff811115610d77575f80fd5b610d8388828901610c06565b9094509250506060860135610d9781610bb3565b809150509295509295909350565b5f805f805f8060a08789031215610dba575f80fd5b8635610dc581610b9f565b9550602087013567ffffffffffffffff811115610de0575f80fd5b610dec89828a01610c06565b9096509450506040870135610e0081610bb3565b92506060870135915060808701356001600160e01b031981168114610e23575f80fd5b809150509295509295509295565b5f805f60408486031215610e43575f80fd5b833567ffffffffffffffff811115610e59575f80fd5b610e6586828701610c06565b9094509250506020840135610bfb81610bb3565b5f805f805f60808688031215610e8d575f80fd5b8535610e9881610b9f565b9450602086013567ffffffffffffffff811115610eb3575f80fd5b610ebf88828901610c06565b9095509350506040860135610ed381610bb3565b91506060860135610d9781610bb3565b6020808252602e908201527f6f6e6c7920726f7574657220636f6e747261637420697320656c696769626c6560408201526d103337b91037b832b930ba34b7b760911b606082015260800190565b5f60208284031215610f41575f80fd5b8151610cc181610bb3565b634e487b7160e01b5f52601160045260245ffd5b6001600160801b038181168382160190811115610f7f57610f7f610f4c565b92915050565b81835281816020850137505f828201602090810191909152601f909101601f19169091010190565b848152606060208201525f610fc6606083018587610f85565b90506001600160801b038316604083015295945050505050565b5f60208284031215610ff0575f80fd5b8151610cc181610b9f565b5f6020828403121561100b575f80fd5b81518015158114610cc1575f80fd5b606081525f61102d606083018688610f85565b6001600160801b03949094166020830152506040015292915050565b5f6001820161105a5761105a610f4c565b506001019056fea264697066735822122051d14a98036adef0b5b9e70b953de0bc75c4577d3300d3ddc5129fe38997897e64736f6c634300081a0033","linkReferences":{}},"methodIdentifiers":{"_retreiveValueToRouter(uint128)":"e7194a1a","_sendValueTo(address,uint128)":"7c58af13","claimValue(bytes32)":"91d5a64c","executableBalanceBurned(uint128)":"dca4a373","executableBalanceTopUp(uint128)":"704ed542","initMessage(address,bytes,uint128,uint128)":"de1dd2e0","messageSent(bytes32,address,bytes,uint128)":"c2df6009","nonce()":"affed0e0","replySent(address,bytes,uint128,bytes32,bytes4)":"c78bde77","router()":"f887ea40","sendMessage(bytes,uint128)":"d5624222","sendReply(bytes32,bytes,uint128)":"29336f39","stateHash()":"701da98e","updateState(bytes32,bytes32)":"773919fb","valueClaimed(bytes32,address,uint128)":"14503e51"},"storageLayout":{"storage":[{"astId":53760,"contract":"src/Mirror.sol:Mirror","label":"stateHash","offset":0,"slot":"0","type":"t_bytes32"},{"astId":53763,"contract":"src/Mirror.sol:Mirror","label":"nonce","offset":0,"slot":"1","type":"t_uint256"}],"types":{"t_bytes32":{"encoding":"inplace","label":"bytes32","numberOfBytes":"32"},"t_uint256":{"encoding":"inplace","label":"uint256","numberOfBytes":"32"}}},"id":76}