{"abi":[{"type":"function","name":"claimValue","inputs":[{"name":"_claimedId","type":"bytes32","internalType":"bytes32"}],"outputs":[],"stateMutability":"nonpayable"},{"type":"function","name":"executableBalanceBurned","inputs":[{"name":"value","type":"uint128","internalType":"uint128"}],"outputs":[],"stateMutability":"nonpayable"},{"type":"function","name":"executableBalanceTopUp","inputs":[{"name":"_value","type":"uint128","internalType":"uint128"}],"outputs":[],"stateMutability":"payable"},{"type":"function","name":"initMessage","inputs":[{"name":"source","type":"address","internalType":"address"},{"name":"payload","type":"bytes","internalType":"bytes"},{"name":"value","type":"uint128","internalType":"uint128"},{"name":"executableBalance","type":"uint128","internalType":"uint128"}],"outputs":[],"stateMutability":"nonpayable"},{"type":"function","name":"messageSent","inputs":[{"name":"id","type":"bytes32","internalType":"bytes32"},{"name":"destination","type":"address","internalType":"address"},{"name":"payload","type":"bytes","internalType":"bytes"},{"name":"value","type":"uint128","internalType":"uint128"}],"outputs":[],"stateMutability":"nonpayable"},{"type":"function","name":"nonce","inputs":[],"outputs":[{"name":"","type":"uint256","internalType":"uint256"}],"stateMutability":"view"},{"type":"function","name":"replySent","inputs":[{"name":"destination","type":"address","internalType":"address"},{"name":"payload","type":"bytes","internalType":"bytes"},{"name":"value","type":"uint128","internalType":"uint128"},{"name":"replyTo","type":"bytes32","internalType":"bytes32"},{"name":"replyCode","type":"bytes4","internalType":"bytes4"}],"outputs":[],"stateMutability":"nonpayable"},{"type":"function","name":"router","inputs":[],"outputs":[{"name":"","type":"address","internalType":"address"}],"stateMutability":"view"},{"type":"function","name":"sendMessage","inputs":[{"name":"_payload","type":"bytes","internalType":"bytes"},{"name":"_value","type":"uint128","internalType":"uint128"}],"outputs":[{"name":"","type":"bytes32","internalType":"bytes32"}],"stateMutability":"payable"},{"type":"function","name":"sendReply","inputs":[{"name":"_repliedTo","type":"bytes32","internalType":"bytes32"},{"name":"_payload","type":"bytes","internalType":"bytes"},{"name":"_value","type":"uint128","internalType":"uint128"}],"outputs":[],"stateMutability":"payable"},{"type":"function","name":"stateHash","inputs":[],"outputs":[{"name":"","type":"bytes32","internalType":"bytes32"}],"stateMutability":"view"},{"type":"function","name":"updateState","inputs":[{"name":"newStateHash","type":"bytes32","internalType":"bytes32"}],"outputs":[],"stateMutability":"nonpayable"},{"type":"function","name":"valueClaimed","inputs":[{"name":"claimedId","type":"bytes32","internalType":"bytes32"},{"name":"destination","type":"address","internalType":"address"},{"name":"value","type":"uint128","internalType":"uint128"}],"outputs":[],"stateMutability":"nonpayable"},{"type":"event","name":"ExecutableBalanceTopUpRequested","inputs":[{"name":"value","type":"uint128","indexed":false,"internalType":"uint128"}],"anonymous":false},{"type":"event","name":"Message","inputs":[{"name":"id","type":"bytes32","indexed":false,"internalType":"bytes32"},{"name":"destination","type":"address","indexed":true,"internalType":"address"},{"name":"payload","type":"bytes","indexed":false,"internalType":"bytes"},{"name":"value","type":"uint128","indexed":false,"internalType":"uint128"}],"anonymous":false},{"type":"event","name":"MessageQueueingRequested","inputs":[{"name":"id","type":"bytes32","indexed":false,"internalType":"bytes32"},{"name":"source","type":"address","indexed":true,"internalType":"address"},{"name":"payload","type":"bytes","indexed":false,"internalType":"bytes"},{"name":"value","type":"uint128","indexed":false,"internalType":"uint128"}],"anonymous":false},{"type":"event","name":"Reply","inputs":[{"name":"payload","type":"bytes","indexed":false,"internalType":"bytes"},{"name":"value","type":"uint128","indexed":false,"internalType":"uint128"},{"name":"replyTo","type":"bytes32","indexed":false,"internalType":"bytes32"},{"name":"replyCode","type":"bytes4","indexed":true,"internalType":"bytes4"}],"anonymous":false},{"type":"event","name":"ReplyQueueingRequested","inputs":[{"name":"repliedTo","type":"bytes32","indexed":false,"internalType":"bytes32"},{"name":"source","type":"address","indexed":true,"internalType":"address"},{"name":"payload","type":"bytes","indexed":false,"internalType":"bytes"},{"name":"value","type":"uint128","indexed":false,"internalType":"uint128"}],"anonymous":false},{"type":"event","name":"StateChanged","inputs":[{"name":"stateHash","type":"bytes32","indexed":false,"internalType":"bytes32"}],"anonymous":false},{"type":"event","name":"ValueClaimed","inputs":[{"name":"claimedId","type":"bytes32","indexed":false,"internalType":"bytes32"},{"name":"value","type":"uint128","indexed":false,"internalType":"uint128"}],"anonymous":false},{"type":"event","name":"ValueClaimingRequested","inputs":[{"name":"claimedId","type":"bytes32","indexed":false,"internalType":"bytes32"},{"name":"source","type":"address","indexed":true,"internalType":"address"}],"anonymous":false}],"bytecode":{"object":"0x6080604052600180553480156012575f80fd5b50610f89806100205f395ff3fe6080604052600436106100bf575f3560e01c8063affed0e01161007c578063d562422211610057578063d5624222146101c2578063dca4a373146101d5578063de1dd2e0146101f4578063f887ea4014610213575f80fd5b8063affed0e01461016f578063c2df600914610184578063c78bde77146101a3575f80fd5b806314503e51146100c357806329336f39146100e4578063701da98e146100f7578063704ed5421461011e5780638ea59e1d1461013157806391d5a64c14610150575b5f80fd5b3480156100ce575f80fd5b506100e26100dd366004610b10565b61023f565b005b6100e26100f2366004610b94565b6102d0565b348015610102575f80fd5b5061010b5f5481565b6040519081526020015b60405180910390f35b6100e261012c366004610bef565b61039a565b34801561013c575f80fd5b506100e261014b366004610c11565b6103e3565b34801561015b575f80fd5b506100e261016a366004610c11565b61045a565b34801561017a575f80fd5b5061010b60015481565b34801561018f575f80fd5b506100e261019e366004610c28565b610492565b3480156101ae575f80fd5b506100e26101bd366004610c97565b610509565b61010b6101d0366004610d23565b61059b565b3480156101e0575f80fd5b506100e26101ef366004610bef565b6106b7565b3480156101ff575f80fd5b506100e261020e366004610d6b565b610700565b34801561021e575f80fd5b50610227610803565b6040516001600160a01b039091168152602001610115565b610247610803565b6001600160a01b0316336001600160a01b0316146102805760405162461bcd60e51b815260040161027790610dd5565b60405180910390fd5b61028a8282610869565b604080518481526001600160801b03831660208201527fa217f2987a7942c2966f1fd16d39097862308325249e8b9fb4c00a430fd65783910160405180910390a1505050565b5f6102d9610803565b6001600160a01b0316636ef25c3a6040518163ffffffff1660e01b8152600401602060405180830381865afa158015610314573d5f803e3d5ffd5b505050506040513d601f19601f820116820180604052508101906103389190610e23565b905061034c6103478383610e52565b6109aa565b326001600160a01b03167fb64dad8a89028819d048f9c75ec4c516341da68972bb68a8e1262b5443c61e7f8686868660405161038b9493929190610e9f565b60405180910390a25050505050565b6103a3816109aa565b6040516001600160801b03821681527f85ba4ebb0990fc588bfbb287e2e810a77c858e0a69485d6a938c52c054236667906020015b60405180910390a150565b6103eb610803565b6001600160a01b0316336001600160a01b03161461041b5760405162461bcd60e51b815260040161027790610dd5565b805f5414610457575f8190556040518181527f5c601f20d27885120b6fed87a4c313849b86eaddc9d28e7685e2e66a9c080930906020016103d8565b50565b60405181815232907f0354817698da67944179457b89e15c1c57ca7b8cfd9d80eab1d09c258f6c49789060200160405180910390a250565b61049a610803565b6001600160a01b0316336001600160a01b0316146104ca5760405162461bcd60e51b815260040161027790610dd5565b836001600160a01b03167f9c4ffe7286aed9eb205c8adb12b51219122c7e56c67017f312af0e15f80117738685858560405161038b9493929190610e9f565b610511610803565b6001600160a01b0316336001600160a01b0316146105415760405162461bcd60e51b815260040161027790610dd5565b61054b8684610869565b806001600160e01b0319167fe240a19e4a4ef8e5861c0eea48f9ab2cdb47bfe98347c94ccabb9c45f7d8d1c68686868660405161058b9493929190610ed2565b60405180910390a2505050505050565b5f806105a5610803565b6001600160a01b0316636ef25c3a6040518163ffffffff1660e01b8152600401602060405180830381865afa1580156105e0573d5f803e3d5ffd5b505050506040513d601f19601f820116820180604052508101906106049190610e23565b90506106136103478483610e52565b600180545f913091908361062683610f01565b9091555060405160609290921b6bffffffffffffffffffffffff191660208301526034820152605401604051602081830303815290604052805190602001209050326001600160a01b03167f3527a119fe7f25d965cb7abc58139f031e8909b8592488c7926862d569e435c6828888886040516106a69493929190610e9f565b60405180910390a295945050505050565b6106bf610803565b6001600160a01b0316336001600160a01b0316146106ef5760405162461bcd60e51b815260040161027790610dd5565b6104576106fa610803565b82610869565b610708610803565b6001600160a01b0316336001600160a01b0316146107385760405162461bcd60e51b815260040161027790610dd5565b6040516bffffffffffffffffffffffff193060601b1660208201525f6034820181905290819060540160408051601f198184030181529082905280516020918201206001600160801b038616835292507f85ba4ebb0990fc588bfbb287e2e810a77c858e0a69485d6a938c52c054236667910160405180910390a1866001600160a01b03167f3527a119fe7f25d965cb7abc58139f031e8909b8592488c7926862d569e435c6828888886040516107f29493929190610e9f565b60405180910390a250505050505050565b5f306001600160a01b031663f887ea406040518163ffffffff1660e01b8152600401602060405180830381865afa158015610840573d5f803e3d5ffd5b505050506040513d601f19601f820116820180604052508101906108649190610f19565b905090565b5f610872610803565b6001600160a01b03166388f50cf06040518163ffffffff1660e01b8152600401602060405180830381865afa1580156108ad573d5f803e3d5ffd5b505050506040513d601f19601f820116820180604052508101906108d19190610f19565b90506001600160801b038216156109a55760405163a9059cbb60e01b81526001600160a01b0384811660048301526001600160801b03841660248301525f919083169063a9059cbb906044016020604051808303815f875af1158015610939573d5f803e3d5ffd5b505050506040513d601f19601f8201168201806040525081019061095d9190610f34565b9050806109a35760405162461bcd60e51b81526020600482015260146024820152736661696c656420746f2073656e6420575661726160601b6044820152606401610277565b505b505050565b5f6109b3610803565b90505f816001600160a01b03166388f50cf06040518163ffffffff1660e01b8152600401602060405180830381865afa1580156109f2573d5f803e3d5ffd5b505050506040513d601f19601f82011682018060405250810190610a169190610f19565b6040516323b872dd60e01b81523260048201526001600160a01b0384811660248301526001600160801b03861660448301529192505f918316906323b872dd906064016020604051808303815f875af1158015610a75573d5f803e3d5ffd5b505050506040513d601f19601f82011682018060405250810190610a999190610f34565b9050806109a35760405162461bcd60e51b815260206004820152601860248201527f6661696c656420746f20726574726965766520575661726100000000000000006044820152606401610277565b6001600160a01b0381168114610457575f80fd5b6001600160801b0381168114610457575f80fd5b5f805f60608486031215610b22575f80fd5b833592506020840135610b3481610ae8565b91506040840135610b4481610afc565b809150509250925092565b5f8083601f840112610b5f575f80fd5b50813567ffffffffffffffff811115610b76575f80fd5b602083019150836020828501011115610b8d575f80fd5b9250929050565b5f805f8060608587031215610ba7575f80fd5b84359350602085013567ffffffffffffffff811115610bc4575f80fd5b610bd087828801610b4f565b9094509250506040850135610be481610afc565b939692955090935050565b5f60208284031215610bff575f80fd5b8135610c0a81610afc565b9392505050565b5f60208284031215610c21575f80fd5b5035919050565b5f805f805f60808688031215610c3c575f80fd5b853594506020860135610c4e81610ae8565b9350604086013567ffffffffffffffff811115610c69575f80fd5b610c7588828901610b4f565b9094509250506060860135610c8981610afc565b809150509295509295909350565b5f805f805f8060a08789031215610cac575f80fd5b8635610cb781610ae8565b9550602087013567ffffffffffffffff811115610cd2575f80fd5b610cde89828a01610b4f565b9096509450506040870135610cf281610afc565b92506060870135915060808701356001600160e01b031981168114610d15575f80fd5b809150509295509295509295565b5f805f60408486031215610d35575f80fd5b833567ffffffffffffffff811115610d4b575f80fd5b610d5786828701610b4f565b9094509250506020840135610b4481610afc565b5f805f805f60808688031215610d7f575f80fd5b8535610d8a81610ae8565b9450602086013567ffffffffffffffff811115610da5575f80fd5b610db188828901610b4f565b9095509350506040860135610dc581610afc565b91506060860135610c8981610afc565b6020808252602e908201527f6f6e6c7920726f7574657220636f6e747261637420697320656c696769626c6560408201526d103337b91037b832b930ba34b7b760911b606082015260800190565b5f60208284031215610e33575f80fd5b8151610c0a81610afc565b634e487b7160e01b5f52601160045260245ffd5b6001600160801b038181168382160190811115610e7157610e71610e3e565b92915050565b81835281816020850137505f828201602090810191909152601f909101601f19169091010190565b848152606060208201525f610eb8606083018587610e77565b90506001600160801b038316604083015295945050505050565b606081525f610ee5606083018688610e77565b6001600160801b03949094166020830152506040015292915050565b5f60018201610f1257610f12610e3e565b5060010190565b5f60208284031215610f29575f80fd5b8151610c0a81610ae8565b5f60208284031215610f44575f80fd5b81518015158114610c0a575f80fdfea2646970667358221220c89a7c336b1a5a79bf8eea1f45a4654a2ac268b948f03cb913e2fb5a204e374164736f6c634300081a0033","linkReferences":{}},"methodIdentifiers":{"claimValue(bytes32)":"91d5a64c","executableBalanceBurned(uint128)":"dca4a373","executableBalanceTopUp(uint128)":"704ed542","initMessage(address,bytes,uint128,uint128)":"de1dd2e0","messageSent(bytes32,address,bytes,uint128)":"c2df6009","nonce()":"affed0e0","replySent(address,bytes,uint128,bytes32,bytes4)":"c78bde77","router()":"f887ea40","sendMessage(bytes,uint128)":"d5624222","sendReply(bytes32,bytes,uint128)":"29336f39","stateHash()":"701da98e","updateState(bytes32)":"8ea59e1d","valueClaimed(bytes32,address,uint128)":"14503e51"},"storageLayout":{"storage":[{"astId":53762,"contract":"src/Mirror.sol:Mirror","label":"stateHash","offset":0,"slot":"0","type":"t_bytes32"},{"astId":53765,"contract":"src/Mirror.sol:Mirror","label":"nonce","offset":0,"slot":"1","type":"t_uint256"}],"types":{"t_bytes32":{"encoding":"inplace","label":"bytes32","numberOfBytes":"32"},"t_uint256":{"encoding":"inplace","label":"uint256","numberOfBytes":"32"}}},"id":76}