{"abi":[{"type":"constructor","inputs":[{"name":"_router","type":"address","internalType":"address"}],"stateMutability":"nonpayable"},{"type":"fallback","stateMutability":"payable"},{"type":"function","name":"claimValue","inputs":[{"name":"claimedId","type":"bytes32","internalType":"bytes32"}],"outputs":[],"stateMutability":"nonpayable"},{"type":"function","name":"decoder","inputs":[],"outputs":[{"name":"","type":"address","internalType":"address"}],"stateMutability":"view"},{"type":"function","name":"executableBalanceTopUp","inputs":[{"name":"value","type":"uint128","internalType":"uint128"}],"outputs":[],"stateMutability":"nonpayable"},{"type":"function","name":"inheritor","inputs":[],"outputs":[{"name":"","type":"address","internalType":"address"}],"stateMutability":"view"},{"type":"function","name":"initializer","inputs":[],"outputs":[{"name":"","type":"address","internalType":"address"}],"stateMutability":"view"},{"type":"function","name":"nonce","inputs":[],"outputs":[{"name":"","type":"uint256","internalType":"uint256"}],"stateMutability":"view"},{"type":"function","name":"router","inputs":[],"outputs":[{"name":"","type":"address","internalType":"address"}],"stateMutability":"view"},{"type":"function","name":"sendMessage","inputs":[{"name":"payload","type":"bytes","internalType":"bytes"},{"name":"value","type":"uint128","internalType":"uint128"}],"outputs":[],"stateMutability":"nonpayable"},{"type":"function","name":"sendReply","inputs":[{"name":"repliedTo","type":"bytes32","internalType":"bytes32"},{"name":"payload","type":"bytes","internalType":"bytes"},{"name":"value","type":"uint128","internalType":"uint128"}],"outputs":[],"stateMutability":"nonpayable"},{"type":"function","name":"stateHash","inputs":[],"outputs":[{"name":"","type":"bytes32","internalType":"bytes32"}],"stateMutability":"view"},{"type":"function","name":"transferLockedValueToInheritor","inputs":[],"outputs":[],"stateMutability":"nonpayable"}],"bytecode":{"object":"0x60a034606d57601f61049a38819003918201601f19168301916001600160401b03831184841017607157808492602094604052833981010312606d57516001600160a01b0381168103606d57608052604051610414908161008682396080518181816102ba01526102fe0152f35b5f80fd5b634e487b7160e01b5f52604160045260245ffdfe6080604052600436106102e9575f3560e01c806329336f39146100bb57806336a52a18146100b6578063701da98e146100b1578063704ed542146100ac57806391d5a64c146100a75780639cb33005146100a25780639ce110d71461009d578063affed0e014610098578063d562422214610093578063e43f34331461008e5763f887ea40036102e9576102a5565b610290565b610255565b610238565b610210565b6101e9565b6101d3565b6101ba565b61019d565b610175565b610134565b9181601f840112156100ee5782359167ffffffffffffffff83116100ee57602083818601950101116100ee57565b5f80fd5b604435906001600160801b03821682036100ee57565b600435906001600160801b03821682036100ee57565b602435906001600160801b03821682036100ee57565b346100ee5760603660031901126100ee5760243567ffffffffffffffff81116100ee576101659036906004016100c0565b505061016f6100f2565b506102e9565b346100ee575f3660031901126100ee576001546040516001600160a01b039091168152602090f35b346100ee575f3660031901126100ee576020600354604051908152f35b346100ee5760203660031901126100ee5761016f610108565b346100ee576020366003190112156102e9575f80fd5b346100ee575f3660031901126100ee575f546040516001600160a01b039091168152602090f35b346100ee575f3660031901126100ee576002546040516001600160a01b039091168152602090f35b346100ee575f3660031901126100ee576020600454604051908152f35b346100ee5760403660031901126100ee5760043567ffffffffffffffff81116100ee576102869036906004016100c0565b505061016f61011e565b346100ee575f366003190112156102e9575f80fd5b346100ee575f3660031901126100ee576040517f00000000000000000000000000000000000000000000000000000000000000006001600160a01b03168152602090f35b60405163e6fabc0960e01b81526020816004817f00000000000000000000000000000000000000000000000000000000000000006001600160a01b03165afa908115610397575f9161033c575b506103c1565b602091503d821161038f575b601f8201601f191681019167ffffffffffffffff83118284101761037b57610375926040528101906103a2565b5f610336565b634e487b7160e01b5f52604160045260245ffd5b3d9150610348565b6040513d5f823e3d90fd5b908160209103126100ee57516001600160a01b03811681036100ee5790565b5f8091368280378136915af43d5f803e156103da573d5ff35b3d5ffdfea2646970667358221220b5dccb4d939937a1849ab96a6a8bfe9abfeaa178b945fbd0a7584d2315ec351a64736f6c634300081c0033","linkReferences":{}},"methodIdentifiers":{"claimValue(bytes32)":"91d5a64c","decoder()":"9cb33005","executableBalanceTopUp(uint128)":"704ed542","inheritor()":"36a52a18","initializer()":"9ce110d7","nonce()":"affed0e0","router()":"f887ea40","sendMessage(bytes,uint128)":"d5624222","sendReply(bytes32,bytes,uint128)":"29336f39","stateHash()":"701da98e","transferLockedValueToInheritor()":"e43f3433"},"storageLayout":{"storage":[{"astId":68683,"contract":"src/MirrorProxy.sol:MirrorProxy","label":"decoder","offset":0,"slot":"0","type":"t_address"},{"astId":68685,"contract":"src/MirrorProxy.sol:MirrorProxy","label":"inheritor","offset":0,"slot":"1","type":"t_address"},{"astId":68687,"contract":"src/MirrorProxy.sol:MirrorProxy","label":"initializer","offset":0,"slot":"2","type":"t_address"},{"astId":68689,"contract":"src/MirrorProxy.sol:MirrorProxy","label":"stateHash","offset":0,"slot":"3","type":"t_bytes32"},{"astId":68691,"contract":"src/MirrorProxy.sol:MirrorProxy","label":"nonce","offset":0,"slot":"4","type":"t_uint256"}],"types":{"t_address":{"encoding":"inplace","label":"address","numberOfBytes":"20"},"t_bytes32":{"encoding":"inplace","label":"bytes32","numberOfBytes":"32"},"t_uint256":{"encoding":"inplace","label":"uint256","numberOfBytes":"32"}}},"id":125}