{"abi":[{"type":"function","name":"claimValue","inputs":[{"name":"_claimedId","type":"bytes32","internalType":"bytes32"}],"outputs":[],"stateMutability":"nonpayable"},{"type":"function","name":"createDecoder","inputs":[{"name":"implementation","type":"address","internalType":"address"},{"name":"salt","type":"bytes32","internalType":"bytes32"}],"outputs":[],"stateMutability":"nonpayable"},{"type":"function","name":"decoder","inputs":[],"outputs":[{"name":"","type":"address","internalType":"address"}],"stateMutability":"view"},{"type":"function","name":"executableBalanceTopUp","inputs":[{"name":"_value","type":"uint128","internalType":"uint128"}],"outputs":[],"stateMutability":"payable"},{"type":"function","name":"inheritor","inputs":[],"outputs":[{"name":"","type":"address","internalType":"address"}],"stateMutability":"view"},{"type":"function","name":"initMessage","inputs":[{"name":"source","type":"address","internalType":"address"},{"name":"payload","type":"bytes","internalType":"bytes"},{"name":"value","type":"uint128","internalType":"uint128"},{"name":"executableBalance","type":"uint128","internalType":"uint128"}],"outputs":[],"stateMutability":"nonpayable"},{"type":"function","name":"messageSent","inputs":[{"name":"id","type":"bytes32","internalType":"bytes32"},{"name":"destination","type":"address","internalType":"address"},{"name":"payload","type":"bytes","internalType":"bytes"},{"name":"value","type":"uint128","internalType":"uint128"}],"outputs":[],"stateMutability":"nonpayable"},{"type":"function","name":"nonce","inputs":[],"outputs":[{"name":"","type":"uint256","internalType":"uint256"}],"stateMutability":"view"},{"type":"function","name":"replySent","inputs":[{"name":"destination","type":"address","internalType":"address"},{"name":"payload","type":"bytes","internalType":"bytes"},{"name":"value","type":"uint128","internalType":"uint128"},{"name":"replyTo","type":"bytes32","internalType":"bytes32"},{"name":"replyCode","type":"bytes4","internalType":"bytes4"}],"outputs":[],"stateMutability":"nonpayable"},{"type":"function","name":"router","inputs":[],"outputs":[{"name":"","type":"address","internalType":"address"}],"stateMutability":"view"},{"type":"function","name":"sendMessage","inputs":[{"name":"_payload","type":"bytes","internalType":"bytes"},{"name":"_value","type":"uint128","internalType":"uint128"}],"outputs":[{"name":"","type":"bytes32","internalType":"bytes32"}],"stateMutability":"payable"},{"type":"function","name":"sendReply","inputs":[{"name":"_repliedTo","type":"bytes32","internalType":"bytes32"},{"name":"_payload","type":"bytes","internalType":"bytes"},{"name":"_value","type":"uint128","internalType":"uint128"}],"outputs":[],"stateMutability":"payable"},{"type":"function","name":"setInheritor","inputs":[{"name":"_inheritor","type":"address","internalType":"address"}],"outputs":[],"stateMutability":"nonpayable"},{"type":"function","name":"stateHash","inputs":[],"outputs":[{"name":"","type":"bytes32","internalType":"bytes32"}],"stateMutability":"view"},{"type":"function","name":"updateState","inputs":[{"name":"newStateHash","type":"bytes32","internalType":"bytes32"}],"outputs":[],"stateMutability":"nonpayable"},{"type":"function","name":"valueClaimed","inputs":[{"name":"claimedId","type":"bytes32","internalType":"bytes32"},{"name":"destination","type":"address","internalType":"address"},{"name":"value","type":"uint128","internalType":"uint128"}],"outputs":[],"stateMutability":"nonpayable"},{"type":"event","name":"ExecutableBalanceTopUpRequested","inputs":[{"name":"value","type":"uint128","indexed":false,"internalType":"uint128"}],"anonymous":false},{"type":"event","name":"Message","inputs":[{"name":"id","type":"bytes32","indexed":false,"internalType":"bytes32"},{"name":"destination","type":"address","indexed":true,"internalType":"address"},{"name":"payload","type":"bytes","indexed":false,"internalType":"bytes"},{"name":"value","type":"uint128","indexed":false,"internalType":"uint128"}],"anonymous":false},{"type":"event","name":"MessageQueueingRequested","inputs":[{"name":"id","type":"bytes32","indexed":false,"internalType":"bytes32"},{"name":"source","type":"address","indexed":true,"internalType":"address"},{"name":"payload","type":"bytes","indexed":false,"internalType":"bytes"},{"name":"value","type":"uint128","indexed":false,"internalType":"uint128"}],"anonymous":false},{"type":"event","name":"Reply","inputs":[{"name":"payload","type":"bytes","indexed":false,"internalType":"bytes"},{"name":"value","type":"uint128","indexed":false,"internalType":"uint128"},{"name":"replyTo","type":"bytes32","indexed":false,"internalType":"bytes32"},{"name":"replyCode","type":"bytes4","indexed":true,"internalType":"bytes4"}],"anonymous":false},{"type":"event","name":"ReplyQueueingRequested","inputs":[{"name":"repliedTo","type":"bytes32","indexed":false,"internalType":"bytes32"},{"name":"source","type":"address","indexed":true,"internalType":"address"},{"name":"payload","type":"bytes","indexed":false,"internalType":"bytes"},{"name":"value","type":"uint128","indexed":false,"internalType":"uint128"}],"anonymous":false},{"type":"event","name":"StateChanged","inputs":[{"name":"stateHash","type":"bytes32","indexed":false,"internalType":"bytes32"}],"anonymous":false},{"type":"event","name":"ValueClaimed","inputs":[{"name":"claimedId","type":"bytes32","indexed":false,"internalType":"bytes32"},{"name":"value","type":"uint128","indexed":false,"internalType":"uint128"}],"anonymous":false},{"type":"event","name":"ValueClaimingRequested","inputs":[{"name":"claimedId","type":"bytes32","indexed":false,"internalType":"bytes32"},{"name":"source","type":"address","indexed":true,"internalType":"address"}],"anonymous":false},{"type":"error","name":"FailedDeployment","inputs":[]},{"type":"error","name":"InsufficientBalance","inputs":[{"name":"balance","type":"uint256","internalType":"uint256"},{"name":"needed","type":"uint256","internalType":"uint256"}]}],"bytecode":{"object":"0x60808060405234601557611226908161001a8239f35b5f80fdfe60806040526004361015610011575f80fd5b5f803560e01c806312b22256146109cf57806314503e511461095457806329336f391461085857806336a52a18146108305780635b1b84f71461067f578063701da98e14610662578063704ed542146105fa5780638ea59e1d1461059557806391d5a64c1461052d5780639cb3300514610504578063affed0e0146104e6578063c2df600914610483578063c78bde7714610403578063d56242221461028d578063de1dd2e0146100f95763f887ea40146100ca575f80fd5b346100f657806003193601126100f65760206100e4610f58565b6040516001600160a01b039091168152f35b80fd5b50346100f65760803660031901126100f657610113610ae5565b60243567ffffffffffffffff811161028957610133903690600401610b3d565b9061013c610b11565b92610145610b27565b936101616001600160a01b03610159610f58565b163314610b6b565b600254908161022d577f3527a119fe7f25d965cb7abc58139f031e8909b8592488c7926862d569e435c6947f85ba4ebb0990fc588bfbb287e2e810a77c858e0a69485d6a938c52c0542366676020846101bc61022796610f4a565b6002556040513060601b6bffffffffffffffffffffffff191683820190815260148101929092526101fa81603484015b03601f198101835282610bce565b519020986001600160801b0360405191168152a16040516001600160a01b03909416969394859485610cf2565b0390a280f35b60405162461bcd60e51b815260206004820152602e60248201527f696e6974206d657373616765206d75737420626520637265617465642062656660448201526d6f726520616e79206f746865727360901b6064820152608490fd5b8280fd5b5060403660031901126100f65760043567ffffffffffffffff81116103ff576102ba903690600401610b3d565b602435906001600160801b03821682036103fb576001546102e4906001600160a01b031615610c3b565b600460206001600160a01b036102f8610f58565b16604051928380926337792e1d60e11b82525afa9081156103f05761034d847f3527a119fe7f25d965cb7abc58139f031e8909b8592488c7926862d569e435c6949361035293602099916103c3575b50610c9e565b6110b6565b60025461035e81610f4a565b6002556040513060601b6bffffffffffffffffffffffff1916878201908152601481019290925261039281603484016101ec565b519020936103b86001600160a01b036103a96111d4565b16946040519384938885610cf2565b0390a2604051908152f35b6103e39150893d8b116103e9575b6103db8183610bce565b810190610c7f565b5f610347565b503d6103d1565b6040513d87823e3d90fd5b8380fd5b5080fd5b50346100f65760a03660031901126100f65761041d610ae5565b60243567ffffffffffffffff81116102895761043d903690600401610b3d565b9091610447610b11565b608435926001600160e01b03198416840361047f5761047c946104736001600160a01b03610159610f58565b60643593610e37565b80f35b8580fd5b50346100f65760803660031901126100f65761049d610afb565b6044359067ffffffffffffffff8211610289576104c161047c923690600401610b3d565b906104ca610b27565b926104de6001600160a01b03610159610f58565b600435610d5f565b50346100f657806003193601126100f6576020600254604051908152f35b50346100f657806003193601126100f6576003546040516001600160a01b039091168152602090f35b50346100f65760203660031901126100f657600154610555906001600160a01b031615610c3b565b6001600160a01b036105656111d4565b167f0354817698da67944179457b89e15c1c57ca7b8cfd9d80eab1d09c258f6c497860206040516004358152a280f35b50346100f65760203660031901126100f6576004356105bd6001600160a01b03610159610f58565b808254036105c9575080f35b6020817f5c601f20d27885120b6fed87a4c313849b86eaddc9d28e7685e2e66a9c080930928455604051908152a180f35b5060203660031901126100f6576004356001600160801b03811690818103610289577f85ba4ebb0990fc588bfbb287e2e810a77c858e0a69485d6a938c52c0542366679161065860209261034d60018060a01b036001541615610c3b565b604051908152a180f35b50346100f657806003193601126100f65760209054604051908152f35b503461076e57604036600319011261076e57610699610ae5565b6106ac6001600160a01b03610159610f58565b6002546107d1576003546001600160a01b03166107815780763d602d80600a3d3981f3363d3d373d3d3d363d7300000062ffffff6e5af43d82803e903d91602b57fd5bf39360881c16175f5260781b1760205260018060a01b03602435603760095ff516801561077257600380546001600160a01b03191682179055803b1561076e575f809160046040518094819363204a7f0760e21b83525af1801561076357610755575080f35b61076191505f90610bce565b005b6040513d5f823e3d90fd5b5f80fd5b63b06ebf3d60e01b5f5260045ffd5b60405162461bcd60e51b815260206004820152602260248201527f6465636f64657220636f756c64206f6e6c792062652063726561746564206f6e604482015261636560f01b6064820152608490fd5b60405162461bcd60e51b815260206004820152603160248201527f6465636f64657220636f756c64206f6e6c792062652063726561746564206265604482015270666f726520696e6974206d65737361676560781b6064820152608490fd5b3461076e575f36600319011261076e576001546040516001600160a01b039091168152602090f35b606036600319011261076e5760243567ffffffffffffffff811161076e5761088560049136908301610b3d565b610890929192610b11565b6001549093906108a9906001600160a01b031615610c3b565b60206001600160a01b036108bb610f58565b16604051948580926337792e1d60e11b82525afa9283156107635761034d857fb64dad8a89028819d048f9c75ec4c516341da68972bb68a8e1262b5443c61e7f9561090c935f916109355750610c9e565b6109306001600160a01b0361091f6111d4565b169460405193849360043585610cf2565b0390a2005b61094e915060203d6020116103e9576103db8183610bce565b88610347565b3461076e57606036600319011261076e577fa217f2987a7942c2966f1fd16d39097862308325249e8b9fb4c00a430fd657836040610990610afb565b6109b661099b610b11565b9182906109b16001600160a01b03610159610f58565b610f9b565b6001600160801b038251916004358352166020820152a1005b3461076e57602036600319011261076e576109e8610ae5565b6109fb6001600160a01b03610159610f58565b600180546001600160a01b0319166001600160a01b0392831690811790915590600490602090610a29610f58565b166040519283809263088f50cf60e41b82525afa8015610763575f926020928492610ab3575b5060405163095ea7b360e01b815260048101919091528319602482015292839160449183916001600160a01b03165af1801561076357610a8b57005b6107619060203d602011610aac575b610aa48183610bce565b810190610c23565b503d610a9a565b6044919250610ad790843d8611610ade575b610acf8183610bce565b810190610c04565b9190610a4f565b503d610ac5565b600435906001600160a01b038216820361076e57565b602435906001600160a01b038216820361076e57565b604435906001600160801b038216820361076e57565b606435906001600160801b038216820361076e57565b9181601f8401121561076e5782359167ffffffffffffffff831161076e576020838186019501011161076e57565b15610b7257565b60405162461bcd60e51b815260206004820152602e60248201527f6f6e6c7920726f7574657220636f6e747261637420697320656c696769626c6560448201526d103337b91037b832b930ba34b7b760911b6064820152608490fd5b90601f8019910116810190811067ffffffffffffffff821117610bf057604052565b634e487b7160e01b5f52604160045260245ffd5b9081602091031261076e57516001600160a01b038116810361076e5790565b9081602091031261076e5751801515810361076e5790565b15610c4257565b60405162461bcd60e51b81526020600482015260156024820152741c1c9bd9dc985b481a5cc81d195c9b5a5b985d1959605a1b6044820152606490fd5b9081602091031261076e57516001600160801b038116810361076e5790565b906001600160801b03809116911601906001600160801b038211610cbe57565b634e487b7160e01b5f52601160045260245ffd5b908060209392818452848401375f828201840152601f01601f1916010190565b92604092610d19916001600160801b03939796978652606060208701526060860191610cd2565b9416910152565b3d15610d5a573d9067ffffffffffffffff8211610bf05760405191610d4f601f8201601f191660200184610bce565b82523d5f602084013e565b606090565b600354909493906001600160a01b031680610db6575b507f9c4ffe7286aed9eb205c8adb12b51219122c7e56c67017f312af0e15f801177393610db19160405194859460018060a01b03169785610cf2565b0390a2565b5f80916040518260208201916374fad4ef60e01b83528a602482015260018060a01b038816604482015260806064820152610e1681610df960a482018a8d610cd2565b6001600160801b038d16608483015203601f198101835282610bce565b51926207a120f1610e25610d20565b50610e30575f610d75565b5050505050565b94909294610e458682610f9b565b6003546001600160a01b03169081610eb7575b50507fe240a19e4a4ef8e5861c0eea48f9ab2cdb47bfe98347c94ccabb9c45f7d8d1c6936001600160801b03610e9b604051958695606087526060870191610cd2565b9616602084015260408301526001600160e01b031916930390a2565b604051639649744960e01b602082019081526001600160a01b03909216602482015260a060448201525f92839290918390610f2f818c6001600160801b03610f0360c484018d8f610cd2565b91166064830152608482018d90526001600160e01b03198a1660a483015203601f198101835282610bce565b51926207a120f1610f3e610d20565b50610e30575f80610e58565b5f198114610cbe5760010190565b6040516303e21fa960e61b8152602081600481305afa908115610763575f91610f7f575090565b610f98915060203d602011610ade57610acf8183610bce565b90565b60049160206001600160a01b03610fb0610f58565b166040519485809263088f50cf60e41b82525afa928315610763575f9361108c575b506001600160801b031680610fe657505050565b60405163a9059cbb60e01b81526001600160a01b039283166004820152602481019190915291602091839160449183915f91165af1908115610763575f9161106d575b501561103157565b60405162461bcd60e51b81526020600482015260146024820152736661696c656420746f2073656e6420575661726160601b6044820152606490fd5b611086915060203d602011610aac57610aa48183610bce565b5f611029565b6001600160801b039193506110af9060203d602011610ade57610acf8183610bce565b9290610fd2565b6001600160a01b036110c6610f58565b60405163088f50cf60e41b81529116602082600481845afa918215610763576020926064915f916111b7575b505f6110fc6111d4565b6040516323b872dd60e01b81526001600160a01b03918216600482015260248101959095526001600160801b039690961660448501529294859384929091165af1908115610763575f91611198575b501561115357565b60405162461bcd60e51b815260206004820152601860248201527f6661696c656420746f20726574726965766520575661726100000000000000006044820152606490fd5b6111b1915060203d602011610aac57610aa48183610bce565b5f61114b565b6111ce9150843d8611610ade57610acf8183610bce565b5f6110f2565b600354336001600160a01b03909116036111ec573290565b339056fea26469706673582212203146ef45b047e9cee6a89b3e503a5ca5740e2c1b5badac113dd22cfd676ae63464736f6c634300081a0033","linkReferences":{}},"methodIdentifiers":{"claimValue(bytes32)":"91d5a64c","createDecoder(address,bytes32)":"5b1b84f7","decoder()":"9cb33005","executableBalanceTopUp(uint128)":"704ed542","inheritor()":"36a52a18","initMessage(address,bytes,uint128,uint128)":"de1dd2e0","messageSent(bytes32,address,bytes,uint128)":"c2df6009","nonce()":"affed0e0","replySent(address,bytes,uint128,bytes32,bytes4)":"c78bde77","router()":"f887ea40","sendMessage(bytes,uint128)":"d5624222","sendReply(bytes32,bytes,uint128)":"29336f39","setInheritor(address)":"12b22256","stateHash()":"701da98e","updateState(bytes32)":"8ea59e1d","valueClaimed(bytes32,address,uint128)":"14503e51"},"storageLayout":{"storage":[{"astId":54047,"contract":"src/Mirror.sol:Mirror","label":"stateHash","offset":0,"slot":"0","type":"t_bytes32"},{"astId":54049,"contract":"src/Mirror.sol:Mirror","label":"inheritor","offset":0,"slot":"1","type":"t_address"},{"astId":54051,"contract":"src/Mirror.sol:Mirror","label":"nonce","offset":0,"slot":"2","type":"t_uint256"},{"astId":54053,"contract":"src/Mirror.sol:Mirror","label":"decoder","offset":0,"slot":"3","type":"t_address"}],"types":{"t_address":{"encoding":"inplace","label":"address","numberOfBytes":"20"},"t_bytes32":{"encoding":"inplace","label":"bytes32","numberOfBytes":"32"},"t_uint256":{"encoding":"inplace","label":"uint256","numberOfBytes":"32"}}},"id":80}