{"abi":[{"type":"constructor","inputs":[{"name":"_router","type":"address","internalType":"address"}],"stateMutability":"nonpayable"},{"type":"fallback","stateMutability":"payable"},{"type":"function","name":"claimValue","inputs":[{"name":"_claimedId","type":"bytes32","internalType":"bytes32"}],"outputs":[],"stateMutability":"nonpayable"},{"type":"function","name":"executableBalanceTopUp","inputs":[{"name":"_value","type":"uint128","internalType":"uint128"}],"outputs":[],"stateMutability":"nonpayable"},{"type":"function","name":"exited","inputs":[],"outputs":[{"name":"","type":"bool","internalType":"bool"}],"stateMutability":"view"},{"type":"function","name":"inheritor","inputs":[],"outputs":[{"name":"","type":"address","internalType":"address"}],"stateMutability":"view"},{"type":"function","name":"initialize","inputs":[{"name":"_initializer","type":"address","internalType":"address"},{"name":"_abiInterface","type":"address","internalType":"address"},{"name":"_isSmall","type":"bool","internalType":"bool"}],"outputs":[],"stateMutability":"nonpayable"},{"type":"function","name":"initializer","inputs":[],"outputs":[{"name":"","type":"address","internalType":"address"}],"stateMutability":"view"},{"type":"function","name":"nonce","inputs":[],"outputs":[{"name":"","type":"uint256","internalType":"uint256"}],"stateMutability":"view"},{"type":"function","name":"performStateTransition","inputs":[{"name":"_transition","type":"tuple","internalType":"struct Gear.StateTransition","components":[{"name":"actorId","type":"address","internalType":"address"},{"name":"newStateHash","type":"bytes32","internalType":"bytes32"},{"name":"exited","type":"bool","internalType":"bool"},{"name":"inheritor","type":"address","internalType":"address"},{"name":"valueToReceive","type":"uint128","internalType":"uint128"},{"name":"valueClaims","type":"tuple[]","internalType":"struct Gear.ValueClaim[]","components":[{"name":"messageId","type":"bytes32","internalType":"bytes32"},{"name":"destination","type":"address","internalType":"address"},{"name":"value","type":"uint128","internalType":"uint128"}]},{"name":"messages","type":"tuple[]","internalType":"struct Gear.Message[]","components":[{"name":"id","type":"bytes32","internalType":"bytes32"},{"name":"destination","type":"address","internalType":"address"},{"name":"payload","type":"bytes","internalType":"bytes"},{"name":"value","type":"uint128","internalType":"uint128"},{"name":"replyDetails","type":"tuple","internalType":"struct Gear.ReplyDetails","components":[{"name":"to","type":"bytes32","internalType":"bytes32"},{"name":"code","type":"bytes4","internalType":"bytes4"}]},{"name":"call","type":"bool","internalType":"bool"}]}]}],"outputs":[{"name":"","type":"bytes32","internalType":"bytes32"}],"stateMutability":"nonpayable"},{"type":"function","name":"router","inputs":[],"outputs":[{"name":"","type":"address","internalType":"address"}],"stateMutability":"view"},{"type":"function","name":"sendMessage","inputs":[{"name":"_payload","type":"bytes","internalType":"bytes"},{"name":"_value","type":"uint128","internalType":"uint128"},{"name":"_callReply","type":"bool","internalType":"bool"}],"outputs":[{"name":"","type":"bytes32","internalType":"bytes32"}],"stateMutability":"nonpayable"},{"type":"function","name":"sendReply","inputs":[{"name":"_repliedTo","type":"bytes32","internalType":"bytes32"},{"name":"_payload","type":"bytes","internalType":"bytes"},{"name":"_value","type":"uint128","internalType":"uint128"}],"outputs":[],"stateMutability":"nonpayable"},{"type":"function","name":"stateHash","inputs":[],"outputs":[{"name":"","type":"bytes32","internalType":"bytes32"}],"stateMutability":"view"},{"type":"function","name":"transferLockedValueToInheritor","inputs":[],"outputs":[],"stateMutability":"nonpayable"},{"type":"event","name":"ExecutableBalanceTopUpRequested","inputs":[{"name":"value","type":"uint128","indexed":false,"internalType":"uint128"}],"anonymous":false},{"type":"event","name":"Message","inputs":[{"name":"id","type":"bytes32","indexed":false,"internalType":"bytes32"},{"name":"destination","type":"address","indexed":true,"internalType":"address"},{"name":"payload","type":"bytes","indexed":false,"internalType":"bytes"},{"name":"value","type":"uint128","indexed":false,"internalType":"uint128"}],"anonymous":false},{"type":"event","name":"MessageCallFailed","inputs":[{"name":"id","type":"bytes32","indexed":false,"internalType":"bytes32"},{"name":"destination","type":"address","indexed":true,"internalType":"address"},{"name":"value","type":"uint128","indexed":false,"internalType":"uint128"}],"anonymous":false},{"type":"event","name":"MessageQueueingRequested","inputs":[{"name":"id","type":"bytes32","indexed":false,"internalType":"bytes32"},{"name":"source","type":"address","indexed":true,"internalType":"address"},{"name":"payload","type":"bytes","indexed":false,"internalType":"bytes"},{"name":"value","type":"uint128","indexed":false,"internalType":"uint128"},{"name":"callReply","type":"bool","indexed":false,"internalType":"bool"}],"anonymous":false},{"type":"event","name":"Reply","inputs":[{"name":"payload","type":"bytes","indexed":false,"internalType":"bytes"},{"name":"value","type":"uint128","indexed":false,"internalType":"uint128"},{"name":"replyTo","type":"bytes32","indexed":false,"internalType":"bytes32"},{"name":"replyCode","type":"bytes4","indexed":true,"internalType":"bytes4"}],"anonymous":false},{"type":"event","name":"ReplyCallFailed","inputs":[{"name":"value","type":"uint128","indexed":false,"internalType":"uint128"},{"name":"replyTo","type":"bytes32","indexed":false,"internalType":"bytes32"},{"name":"replyCode","type":"bytes4","indexed":true,"internalType":"bytes4"}],"anonymous":false},{"type":"event","name":"ReplyQueueingRequested","inputs":[{"name":"repliedTo","type":"bytes32","indexed":false,"internalType":"bytes32"},{"name":"source","type":"address","indexed":true,"internalType":"address"},{"name":"payload","type":"bytes","indexed":false,"internalType":"bytes"},{"name":"value","type":"uint128","indexed":false,"internalType":"uint128"}],"anonymous":false},{"type":"event","name":"StateChanged","inputs":[{"name":"stateHash","type":"bytes32","indexed":false,"internalType":"bytes32"}],"anonymous":false},{"type":"event","name":"ValueClaimed","inputs":[{"name":"claimedId","type":"bytes32","indexed":false,"internalType":"bytes32"},{"name":"value","type":"uint128","indexed":false,"internalType":"uint128"}],"anonymous":false},{"type":"event","name":"ValueClaimingRequested","inputs":[{"name":"claimedId","type":"bytes32","indexed":false,"internalType":"bytes32"},{"name":"source","type":"address","indexed":true,"internalType":"address"}],"anonymous":false}],"bytecode":{"object":"0x60a0346100a957601f611ecf38819003918201601f19168301916001600160401b038311848410176100ad578084926020946040528339810103126100a957516001600160a01b03811681036100a957608052604051611e0d90816100c2823960805181818161011401528181610307015281816103850152818161056b01528181610778015281816109ba01528181610af601528181610bd2015281816110de01526116ce0152f35b5f80fd5b634e487b7160e01b5f52604160045260245ffdfe60806040526004361015610258575b60ff60035460a01c166102545760443610610254576001600160801b036004351661003e60ff600254161561140b565b60015415801590610240575b156101be578061010c575b6001545f1981146100f8576001810160015560405160208101913060601b83526034820152603481526100896054826114ab565b519020907f9d835932f9695ed8acd7290fb99476799c321b20b15a597a99b597bdfb907c5460405183815260806020820152602060808201368152365f838301375f823683010152601f19601f3601160101926040820152602435151560608201528033930390a25f5260205ff35b634e487b7160e01b5f52601160045260245ffd5b6101646020827f00000000000000000000000000000000000000000000000000000000000000006001600160a01b0361014482611629565b16905f6040518096819582946323b872dd60e01b845233600485016114e4565b03925af180156101b35761017f915f91610184575b5061150e565b610055565b6101a6915060203d6020116101ac575b61019e81836114ab565b8101906114cc565b5f610179565b503d610194565b6040513d5f823e3d90fd5b60405162461bcd60e51b815260206004820152604e60248201527f696e697469616c697a6572206861736e2774206372656174656420696e69742060448201527f6d657373616765207965743b20616e642063616c6c6572206973206e6f74207460648201526d34329034b734ba34b0b634bd32b960911b608482015260a490fd5b506003546001600160a01b0316331461004a565b5f80fd5b5f5f3560e01c806302c649c914610b9957806329336f3914610a4b5780632a68e35d1461089257806336a52a18146108655780635ce6c32714610842578063701da98e14610825578063704ed5421461070357806391d5a64c146106a45780639ce110d71461067b578063affed0e01461065d578063e43f34331461053c578063e4bbb5a8146103395763f887ea40146102f2575061000e565b346103365780600319360112610336576040517f00000000000000000000000000000000000000000000000000000000000000006001600160a01b03168152602090f35b80fd5b5034610336576060366003190112610336576004356001600160a01b03811690819003610538576024356001600160a01b03811691908290036105345761037e611367565b906103b3337f00000000000000000000000000000000000000000000000000000000000000006001600160a01b03161461138a565b600354906001600160a01b0382166104e45760ff8260a01c1661049f577f360894a13ba1a3210667c828492db98dca3e2076cc3735a920a3ca505d382bbc54926001600160a01b03841661044e576001600160a81b03199092161790151560a01b60ff60a01b16176003556001600160a01b031916177f360894a13ba1a3210667c828492db98dca3e2076cc3735a920a3ca505d382bbc5580f35b60405162461bcd60e51b8152602060048201526024808201527f61626920696e7465726661636520636f756c64206f6e6c7920626520736574206044820152636f6e636560e01b6064820152608490fd5b60405162461bcd60e51b815260206004820152601e60248201527f6973536d616c6c20636f756c64206f6e6c7920626520736574206f6e636500006044820152606490fd5b60405162461bcd60e51b815260206004820152602260248201527f696e697469616c697a657220636f756c64206f6e6c7920626520736574206f6e604482015261636560f01b6064820152608490fd5b8280fd5b5080fd5b503461033657806003193601126103365760025460ff8116156106205760249060206001600160a01b0361058f7f0000000000000000000000000000000000000000000000000000000000000000611629565b16604051938480926370a0823160e01b82523060048301525afa9182156106155783926105da575b506105d7916001600160801b03169060081c6001600160a01b03166116a9565b80f35b91506020823d60201161060d575b816105f5602093836114ab565b81010312610534579051906001600160801b036105b7565b3d91506105e8565b6040513d85823e3d90fd5b60405162461bcd60e51b81526020600482015260156024820152741c1c9bd9dc985b481a5cc81b9bdd08195e1a5d1959605a1b6044820152606490fd5b50346103365780600319360112610336576020600154604051908152f35b50346103365780600319360112610336576003546040516001600160a01b039091168152602090f35b5034610336576020366003190112610336576106c560ff600254161561140b565b6106d2600154151561144b565b60405160043581527f0354817698da67944179457b89e15c1c57ca7b8cfd9d80eab1d09c258f6c497860203392a280f35b5034610336576020366003190112610336576004356001600160801b038116908181036105345761073960ff600254161561140b565b8161076e575b5060207f85ba4ebb0990fc588bfbb287e2e810a77c858e0a69485d6a938c52c05423666791604051908152a180f35b6107c891906020907f00000000000000000000000000000000000000000000000000000000000000006001600160a01b036107a882611629565b1690866040518097819582946323b872dd60e01b845233600485016114e4565b03925af1908115610615576108076020927f85ba4ebb0990fc588bfbb287e2e810a77c858e0a69485d6a938c52c05423666794869161080e575061150e565b915061073f565b6101a69150843d86116101ac5761019e81836114ab565b503461033657806003193601126103365760209054604051908152f35b5034610336578060031936011261033657602060ff600254166040519015158152f35b503461033657806003193601126103365760025460405160089190911c6001600160a01b03168152602090f35b5034610336576060366003190112610336576004356001600160401b038111610538576108c3903690600401611326565b916024356001600160801b03811691828203610336576108e1611367565b916108f160ff600254161561140b565b60015415801590610a37575b156101be57836109b1575b50600154905f19821461099d5750937f9d835932f9695ed8acd7290fb99476799c321b20b15a597a99b597bdfb907c549161098286600160209801600155604051888101913060601b83526034820152603481526109676054826114ab565b5190209560405193878552608089860152608085019161158a565b936040830152151560608201528033930390a2604051908152f35b634e487b7160e01b81526011600452602490fd5b610a0a906020907f00000000000000000000000000000000000000000000000000000000000000006001600160a01b036109ea82611629565b1690856040518096819582946323b872dd60e01b845233600485016114e4565b03925af1908115610a2c5790610a26918391610184575061150e565b5f610908565b6040513d84823e3d90fd5b506003546001600160a01b031633146108fd565b5034610336576060366003190112610336576024356001600160401b03811161053857610a7c903690600401611326565b6044356001600160801b038116808203610b9557610a9f60ff600254161561140b565b610aac600154151561144b565b610aed575b7fb64dad8a89028819d048f9c75ec4c516341da68972bb68a8e1262b5443c61e7f91610ae76040519283923396600435856115aa565b0390a280f35b610b46916020827f00000000000000000000000000000000000000000000000000000000000000006001600160a01b03610b2682611629565b1690886040518098819582946323b872dd60e01b845233600485016114e4565b03925af1928315610b8a577fb64dad8a89028819d048f9c75ec4c516341da68972bb68a8e1262b5443c61e7f93610b83918791610184575061150e565b9150610ab1565b6040513d87823e3d90fd5b8480fd5b5034610254576020366003190112610254576001600160401b036004351161025457600435360360e060031982011261025457610c00337f00000000000000000000000000000000000000000000000000000000000000006001600160a01b03161461138a565b610c0e6004356004016113d6565b306001600160a01b03909116036112e15760043560c401356022198201811215610254576001600160401b0360048281350101351161025457600481813501013560051b3603602482600435010113610254575f9260605b6004838135010135851015610ed057600585901b600435840190810160240135959036036101021901861215610254576023196004358501870136030160e08112610254576040519060c082018281106001600160401b03821117610ebc576040526004358601880160248101358352610ce290604401611376565b602083015260646004358701890101356001600160401b0381116102545760209060048a89823501010101019036601f8301121561025457610d2d60409236906020813591016115f3565b83830152610d43608460043589018b0101611353565b6060840152607f19011261025457604051604081018181106001600160401b03821117610ebc576040526004358601880160a4810135825260c40135906001600160e01b03198216820361025457602081019182526080830181905260e460043588018a010135801515958682036102545760019685610e5260356054610e789860209a988b999860a08b9a015285519689870151926060604089015198015192519063ffffffff60e01b905116908b604051998a968288019c8d526001600160601b03199060601b1660408801528051918291018888015e8501936001600160801b03199060801b16868501526064840152608483015260f81b6088820152030160158101845201826114ab565b5190206040519582879351918291018585015e82019083820152030180845201826114ab565b9560a4600435860182010135610ea35760206004610e9c9287823501010101611a06565b0193610c66565b60206004610eb79287823501010101611810565b610e9c565b634e487b7160e01b5f52604160045260245ffd5b805160209091012060043560a40135602219850181121561025457600435016004810135916001600160401b038311610254576060830236036024830113610254576060935f5b84811015611068576004606082028501016060601f1982360301126102545760405190606082018281106001600160401b03821117610ebc576040526020810135918281526040820198610f6a8a611376565b9283602084015260600192610f7e84611353565b6040819401526040519260208401918683526001600160601b03199060601b1660408501526001600160801b03199060801b16605484015260448352610fc56064846114ab565b60405192828493516020819201602086015e83019060208201905f8252519283915e016020015f815203601f198101825261100090826114ab565b9761100a906113d6565b611013826113f7565b61101c916116a9565b611025906113f7565b604080519283526001600160801b039190911660208301527fa217f2987a7942c2966f1fd16d39097862308325249e8b9fb4c00a430fd6578391a1600101610f17565b508451602086012060043560440191611080836113ea565b1561126b575060016110966064600435016113d6565b600254906110a760ff83161561140b565b6001600160a81b031990911660089190911b60ff1960a884901b011617176002819055925f91602460206001600160a01b036111027f0000000000000000000000000000000000000000000000000000000000000000611629565b16604051928380926370a0823160e01b82523060048301525afa9081156101b3575f91611238575b5060209561114d916001600160801b03169060081c6001600160a01b03166116a9565b8254602460043501359384809203611207575b50506111796111736004356004016113d6565b946113ea565b6111876064600435016113d6565b6111956084600435016113f7565b9160405195888701976001600160601b03199060601b1688526034870152151560f81b60548601526001600160601b03199060601b1660558501526001600160801b03199060801b16606984015260798301526099820152609981526111fc60b9826114ab565b519020604051908152f35b557f5c601f20d27885120b6fed87a4c313849b86eaddc9d28e7685e2e66a9c08093085604051858152a18286611160565b90506020813d602011611263575b81611253602093836114ab565b810103126102545751602061112a565b3d9150611246565b90926001600160a01b036112836004356064016113d6565b166112905760209361114d565b60405162461bcd60e51b8152602060048201526024808201527f696e68657269746f72206d757374206265207a65726f206966206e6f742065786044820152631a5d195960e21b6064820152608490fd5b60405162461bcd60e51b815260206004820152601d60248201527f6163746f724964206d757374206265207468697320636f6e74726163740000006044820152606490fd5b9181601f84011215610254578235916001600160401b038311610254576020838186019501011161025457565b35906001600160801b038216820361025457565b60443590811515820361025457565b35906001600160a01b038216820361025457565b1561139157565b60405162461bcd60e51b815260206004820152601860248201527f63616c6c6572206973206e6f742074686520726f7574657200000000000000006044820152606490fd5b356001600160a01b03811681036102545790565b3580151581036102545790565b356001600160801b03811681036102545790565b1561141257565b60405162461bcd60e51b81526020600482015260116024820152701c1c9bd9dc985b481a5cc8195e1a5d1959607a1b6044820152606490fd5b1561145257565b60405162461bcd60e51b815260206004820152602b60248201527f696e697469616c697a6572206861736e2774206372656174656420696e69742060448201526a1b595cdcd859d9481e595d60aa1b6064820152608490fd5b90601f801991011681019081106001600160401b03821117610ebc57604052565b90816020910312610254575180151581036102545790565b6001600160a01b039182168152911660208201526001600160801b03909116604082015260600190565b1561151557565b60405162461bcd60e51b815260206004820152604160248201527f6661696c656420746f207472616e73666572206e6f6e2d7a65726f20616d6f7560448201527f6e74206f662057566172612066726f6d20736f7572636520746f20726f7574656064820152603960f91b608482015260a490fd5b908060209392818452848401375f828201840152601f01601f1916010190565b926040926115d1916001600160801b0393979697865260606020870152606086019161158a565b9416910152565b6001600160401b038111610ebc57601f01601f191660200190565b9291926115ff826115d8565b9161160d60405193846114ab565b829481845281830111610254578281602093845f960137010152565b60405163088f50cf60e41b815290602090829060049082906001600160a01b03165afa9081156101b3575f91611667575b506001600160a01b031690565b90506020813d6020116116a1575b81611682602093836114ab565b8101031261025457516001600160a01b0381168103610254575f61165a565b3d9150611675565b906001600160801b0316806116bc575050565b60209060446001600160a01b036116f27f0000000000000000000000000000000000000000000000000000000000000000611629565b60405163a9059cbb60e01b81526001600160a01b0390961660048701526024860193909352849283915f91165af19081156101b3575f9161177b575b501561173657565b60405162461bcd60e51b815260206004820152601860248201527f6661696c656420746f207472616e7366657220575661726100000000000000006044820152606490fd5b611794915060203d6020116101ac5761019e81836114ab565b5f61172e565b356001600160e01b0319811681036102545790565b903590601e198136030182121561025457018035906001600160401b0382116102545760200191813603831361025457565b3d1561180b573d906117f2826115d8565b9161180060405193846114ab565b82523d5f602084013e565b606090565b6020810161181d816113d6565b90611835606084019261182f846113f7565b906116a9565b61184160c084016113ea565b6118cc575b507fe240a19e4a4ef8e5861c0eea48f9ab2cdb47bfe98347c94ccabb9c45f7d8d1c69061188161187960408501856117af565b9190926113f7565b60806001600160e01b031961189860a0880161179a565b16956001600160801b036118b960405196879660608852606088019161158a565b93166020850152013560408301520390a2565b5f8061190e60a086019360ff60f81b6118e48661179a565b841a60f81b1615831461199d5761190861190160408901896117af565b36916115f3565b506113d6565b8161191c60408801886117af565b9190826040519384928337810182815203926207a120f161193b6117e1565b5061184657604090608061196f7f5136ea80de584762b9532903198dfdd1125167a8685e943b1bc5d16b777151c3946113f7565b916001600160e01b0319906119839061179a565b16946001600160801b0384519316835201356020820152a2565b611a016119ad60408901896117af565b6119b68861179a565b6119e4604051938493634a646c7f60e01b60208601528d35602486015260606044860152608485019161158a565b9063ffffffff60e01b1660648301520390601f19820181526114ab565b6113d6565b611a0f81611b3c565b15611a175750565b611a2360c082016113ea565b611a90575b7f9c4ffe7286aed9eb205c8adb12b51219122c7e56c67017f312af0e15f8011773611a8b611a58602084016113d6565b611a6560408501856117af565b611a74606087959395016113f7565b9060405194859460018060a01b03169735856115aa565b0390a2565b602081015f80611a9f836113d6565b81611aad60408701876117af565b9190826040519384928337810182815203926207a120f1611acc6117e1565b5015611ad85750611a28565b611b027f76c87872723521658a1c429bc5e355c5ad7b30719dae90158fe2b591f9ea56f8916113d6565b611b0e606084016113f7565b60408051943585526001600160801b0390911660208501526001600160a01b03909116929081908101611a8b565b611b4960408201826117af565b90916001600160a01b0380611b60602084016113d6565b16149081611def575b5080611de6575b15611de05781358060f81c90600182101580611dd5575b15611dcd5760f31c611fe01690600182018310611dcd576001840135927f5c601f20d27885120b6fed87a4c313849b86eaddc9d28e7685e2e66a9c08093084141580611da3575b80611d79575b80611d4f575b80611d25575b80611cfb575b80611cd1575b80611ca7575b15611c9e57829003905f1982019260405192601e601f1991011683018381106001600160401b038211176102545760405283908601600101833760218501359460418101359160018103611c4d5750505090919250a1600190565b60028103611c5e57505050a2600190565b600381979593969497145f14611c7a57505090919293a3600190565b600414611c8d575b505050505050600190565b6061013594a45f8080808080611c82565b50505050505f90565b507fa217f2987a7942c2966f1fd16d39097862308325249e8b9fb4c00a430fd65783841415611bf2565b507fe240a19e4a4ef8e5861c0eea48f9ab2cdb47bfe98347c94ccabb9c45f7d8d1c6841415611bec565b507f9c4ffe7286aed9eb205c8adb12b51219122c7e56c67017f312af0e15f8011773841415611be6565b507f85ba4ebb0990fc588bfbb287e2e810a77c858e0a69485d6a938c52c054236667841415611be0565b507f0354817698da67944179457b89e15c1c57ca7b8cfd9d80eab1d09c258f6c4978841415611bda565b507fb64dad8a89028819d048f9c75ec4c516341da68972bb68a8e1262b5443c61e7f841415611bd4565b507f9d835932f9695ed8acd7290fb99476799c321b20b15a597a99b597bdfb907c54841415611bce565b505050505f90565b506004821115611b87565b50505f90565b50801515611b70565b6001600160801b0391506060611e0591016113f7565b16155f611b6956","linkReferences":{}},"methodIdentifiers":{"claimValue(bytes32)":"91d5a64c","executableBalanceTopUp(uint128)":"704ed542","exited()":"5ce6c327","inheritor()":"36a52a18","initialize(address,address,bool)":"e4bbb5a8","initializer()":"9ce110d7","nonce()":"affed0e0","performStateTransition((address,bytes32,bool,address,uint128,(bytes32,address,uint128)[],(bytes32,address,bytes,uint128,(bytes32,bytes4),bool)[]))":"02c649c9","router()":"f887ea40","sendMessage(bytes,uint128,bool)":"2a68e35d","sendReply(bytes32,bytes,uint128)":"29336f39","stateHash()":"701da98e","transferLockedValueToInheritor()":"e43f3433"},"storageLayout":{"storage":[{"astId":78226,"contract":"src/Mirror.sol:Mirror","label":"stateHash","offset":0,"slot":"0","type":"t_bytes32"},{"astId":78229,"contract":"src/Mirror.sol:Mirror","label":"nonce","offset":0,"slot":"1","type":"t_uint256"},{"astId":78232,"contract":"src/Mirror.sol:Mirror","label":"exited","offset":0,"slot":"2","type":"t_bool"},{"astId":78235,"contract":"src/Mirror.sol:Mirror","label":"inheritor","offset":1,"slot":"2","type":"t_address"},{"astId":78238,"contract":"src/Mirror.sol:Mirror","label":"initializer","offset":0,"slot":"3","type":"t_address"},{"astId":78241,"contract":"src/Mirror.sol:Mirror","label":"isSmall","offset":20,"slot":"3","type":"t_bool"}],"types":{"t_address":{"encoding":"inplace","label":"address","numberOfBytes":"20"},"t_bool":{"encoding":"inplace","label":"bool","numberOfBytes":"1"},"t_bytes32":{"encoding":"inplace","label":"bytes32","numberOfBytes":"32"},"t_uint256":{"encoding":"inplace","label":"uint256","numberOfBytes":"32"}}},"id":162}