{"abi":[{"type":"constructor","inputs":[{"name":"_router","type":"address","internalType":"address"}],"stateMutability":"nonpayable"},{"type":"fallback","stateMutability":"payable"},{"type":"function","name":"claimValue","inputs":[{"name":"_claimedId","type":"bytes32","internalType":"bytes32"}],"outputs":[],"stateMutability":"nonpayable"},{"type":"function","name":"executableBalanceTopUp","inputs":[{"name":"_value","type":"uint128","internalType":"uint128"}],"outputs":[],"stateMutability":"nonpayable"},{"type":"function","name":"exited","inputs":[],"outputs":[{"name":"","type":"bool","internalType":"bool"}],"stateMutability":"view"},{"type":"function","name":"inheritor","inputs":[],"outputs":[{"name":"","type":"address","internalType":"address"}],"stateMutability":"view"},{"type":"function","name":"initialize","inputs":[{"name":"_initializer","type":"address","internalType":"address"},{"name":"_abiInterface","type":"address","internalType":"address"},{"name":"_isSmall","type":"bool","internalType":"bool"}],"outputs":[],"stateMutability":"nonpayable"},{"type":"function","name":"initializer","inputs":[],"outputs":[{"name":"","type":"address","internalType":"address"}],"stateMutability":"view"},{"type":"function","name":"nonce","inputs":[],"outputs":[{"name":"","type":"uint256","internalType":"uint256"}],"stateMutability":"view"},{"type":"function","name":"performStateTransition","inputs":[{"name":"_transition","type":"tuple","internalType":"struct Gear.StateTransition","components":[{"name":"actorId","type":"address","internalType":"address"},{"name":"newStateHash","type":"bytes32","internalType":"bytes32"},{"name":"exited","type":"bool","internalType":"bool"},{"name":"inheritor","type":"address","internalType":"address"},{"name":"valueToReceive","type":"uint128","internalType":"uint128"},{"name":"valueToReceiveNegativeSign","type":"bool","internalType":"bool"},{"name":"valueClaims","type":"tuple[]","internalType":"struct Gear.ValueClaim[]","components":[{"name":"messageId","type":"bytes32","internalType":"bytes32"},{"name":"destination","type":"address","internalType":"address"},{"name":"value","type":"uint128","internalType":"uint128"}]},{"name":"messages","type":"tuple[]","internalType":"struct Gear.Message[]","components":[{"name":"id","type":"bytes32","internalType":"bytes32"},{"name":"destination","type":"address","internalType":"address"},{"name":"payload","type":"bytes","internalType":"bytes"},{"name":"value","type":"uint128","internalType":"uint128"},{"name":"replyDetails","type":"tuple","internalType":"struct Gear.ReplyDetails","components":[{"name":"to","type":"bytes32","internalType":"bytes32"},{"name":"code","type":"bytes4","internalType":"bytes4"}]},{"name":"call","type":"bool","internalType":"bool"}]}]}],"outputs":[{"name":"","type":"bytes32","internalType":"bytes32"}],"stateMutability":"payable"},{"type":"function","name":"router","inputs":[],"outputs":[{"name":"","type":"address","internalType":"address"}],"stateMutability":"view"},{"type":"function","name":"sendMessage","inputs":[{"name":"_payload","type":"bytes","internalType":"bytes"},{"name":"_callReply","type":"bool","internalType":"bool"}],"outputs":[{"name":"","type":"bytes32","internalType":"bytes32"}],"stateMutability":"payable"},{"type":"function","name":"sendReply","inputs":[{"name":"_repliedTo","type":"bytes32","internalType":"bytes32"},{"name":"_payload","type":"bytes","internalType":"bytes"}],"outputs":[],"stateMutability":"payable"},{"type":"function","name":"stateHash","inputs":[],"outputs":[{"name":"","type":"bytes32","internalType":"bytes32"}],"stateMutability":"view"},{"type":"function","name":"transferLockedValueToInheritor","inputs":[],"outputs":[],"stateMutability":"nonpayable"},{"type":"event","name":"ExecutableBalanceTopUpRequested","inputs":[{"name":"value","type":"uint128","indexed":false,"internalType":"uint128"}],"anonymous":false},{"type":"event","name":"Message","inputs":[{"name":"id","type":"bytes32","indexed":false,"internalType":"bytes32"},{"name":"destination","type":"address","indexed":true,"internalType":"address"},{"name":"payload","type":"bytes","indexed":false,"internalType":"bytes"},{"name":"value","type":"uint128","indexed":false,"internalType":"uint128"}],"anonymous":false},{"type":"event","name":"MessageCallFailed","inputs":[{"name":"id","type":"bytes32","indexed":false,"internalType":"bytes32"},{"name":"destination","type":"address","indexed":true,"internalType":"address"},{"name":"value","type":"uint128","indexed":false,"internalType":"uint128"}],"anonymous":false},{"type":"event","name":"MessageQueueingRequested","inputs":[{"name":"id","type":"bytes32","indexed":false,"internalType":"bytes32"},{"name":"source","type":"address","indexed":true,"internalType":"address"},{"name":"payload","type":"bytes","indexed":false,"internalType":"bytes"},{"name":"value","type":"uint128","indexed":false,"internalType":"uint128"},{"name":"callReply","type":"bool","indexed":false,"internalType":"bool"}],"anonymous":false},{"type":"event","name":"OwnedBalanceTopUpRequested","inputs":[{"name":"value","type":"uint128","indexed":false,"internalType":"uint128"}],"anonymous":false},{"type":"event","name":"Reply","inputs":[{"name":"payload","type":"bytes","indexed":false,"internalType":"bytes"},{"name":"value","type":"uint128","indexed":false,"internalType":"uint128"},{"name":"replyTo","type":"bytes32","indexed":false,"internalType":"bytes32"},{"name":"replyCode","type":"bytes4","indexed":true,"internalType":"bytes4"}],"anonymous":false},{"type":"event","name":"ReplyCallFailed","inputs":[{"name":"value","type":"uint128","indexed":false,"internalType":"uint128"},{"name":"replyTo","type":"bytes32","indexed":false,"internalType":"bytes32"},{"name":"replyCode","type":"bytes4","indexed":true,"internalType":"bytes4"}],"anonymous":false},{"type":"event","name":"ReplyQueueingRequested","inputs":[{"name":"repliedTo","type":"bytes32","indexed":false,"internalType":"bytes32"},{"name":"source","type":"address","indexed":true,"internalType":"address"},{"name":"payload","type":"bytes","indexed":false,"internalType":"bytes"},{"name":"value","type":"uint128","indexed":false,"internalType":"uint128"}],"anonymous":false},{"type":"event","name":"StateChanged","inputs":[{"name":"stateHash","type":"bytes32","indexed":false,"internalType":"bytes32"}],"anonymous":false},{"type":"event","name":"ValueClaimed","inputs":[{"name":"claimedId","type":"bytes32","indexed":false,"internalType":"bytes32"},{"name":"value","type":"uint128","indexed":false,"internalType":"uint128"}],"anonymous":false},{"type":"event","name":"ValueClaimingRequested","inputs":[{"name":"claimedId","type":"bytes32","indexed":false,"internalType":"bytes32"},{"name":"source","type":"address","indexed":true,"internalType":"address"}],"anonymous":false}],"bytecode":{"object":"0x60a03461008557601f611c4938819003918201601f19168301916001600160401b038311848410176100895780849260209460405283398101031261008557516001600160a01b038116810361008557608052604051611bab908161009e823960805181818160c8015281816104f20152818161112c015281816114a3015261160e0152f35b5f80fd5b634e487b7160e01b5f52604160045260245ffdfe6101006040526004361015610019575b61001761135f565b005b5f5f3560e01c8063084f443a1461088857806336a52a181461085b57806342129d00146106b85780635ce6c32714610695578063701da98e14610678578063704ed5421461047f5780637a8e0cdd146103f157806391d5a64c1461039e5780639ce110d714610375578063affed0e014610357578063e43f3433146102da578063e4bbb5a8146100fa5763f887ea40146100b3575061000f565b346100f757806003193601126100f7576040517f00000000000000000000000000000000000000000000000000000000000000006001600160a01b03168152602090f35b80fd5b50346100f75760603660031901126100f7576004356001600160a01b038116908190036102d6576024356001600160a01b03811691908290036102d257604435908115158092036102ce5761014d6114a1565b600354906001600160a01b03821661027e5760ff8260a01c16610239577f360894a13ba1a3210667c828492db98dca3e2076cc3735a920a3ca505d382bbc54926001600160a01b0384166101e8576001600160a81b03199092161760a09190911b60ff60a01b16176003556001600160a01b031916177f360894a13ba1a3210667c828492db98dca3e2076cc3735a920a3ca505d382bbc5580f35b60405162461bcd60e51b8152602060048201526024808201527f61626920696e7465726661636520636f756c64206f6e6c7920626520736574206044820152636f6e636560e01b6064820152608490fd5b60405162461bcd60e51b815260206004820152601e60248201527f6973536d616c6c20636f756c64206f6e6c7920626520736574206f6e636500006044820152606490fd5b60405162461bcd60e51b815260206004820152602260248201527f696e697469616c697a657220636f756c64206f6e6c7920626520736574206f6e604482015261636560f01b6064820152608490fd5b8380fd5b8280fd5b5080fd5b50346100f757806003193601126100f75760025460ff81161561031a5761031790476001600160801b03169060081c6001600160a01b03166116b4565b80f35b60405162461bcd60e51b81526020600482015260156024820152741c1c9bd9dc985b481a5cc81b9bdd08195e1a5d1959605a1b6044820152606490fd5b50346100f757806003193601126100f7576020600154604051908152f35b50346100f757806003193601126100f7576003546040516001600160a01b039091168152602090f35b50346100f75760203660031901126100f7576103b861154e565b6103c0611593565b60405160043581527f0354817698da67944179457b89e15c1c57ca7b8cfd9d80eab1d09c258f6c497860203392a280f35b5060403660031901126100f7576024356001600160401b0381116102d65761043e7fb64dad8a89028819d048f9c75ec4c516341da68972bb68a8e1262b5443c61e7f91369060040161121c565b61044992919261154e565b610451611593565b6001600160801b03341690610465826115f6565b610479604051928392339660043585611331565b0390a280f35b50346100f75760203660031901126100f7576004356001600160801b0381168091036102d6576104ad61154e565b806104e1575b60207f85ba4ebb0990fc588bfbb287e2e810a77c858e0a69485d6a938c52c05423666791604051908152a180f35b60405163088f50cf60e41b815282907f00000000000000000000000000000000000000000000000000000000000000006001600160a01b031690602081600481855afa908115610628578391610633575b50606460209260405194859384926323b872dd60e01b8452336004850152602484015287604484015260018060a01b03165af19081156106285783916105ed575b506104b35760405162461bcd60e51b815260206004820152604160248201527f6661696c656420746f207472616e73666572206e6f6e2d7a65726f20616d6f7560448201527f6e74206f662057566172612066726f6d20736f7572636520746f20726f7574656064820152603960f91b608482015260a490fd5b90506020813d602011610620575b81610608602093836112a6565b810103126102d2575180151581036102d2575f610573565b3d91506105fb565b6040513d85823e3d90fd5b90506020813d602011610670575b8161064e602093836112a6565b810103126102d25751906001600160a01b03821682036102d257906064610532565b3d9150610641565b50346100f757806003193601126100f75760209054604051908152f35b50346100f757806003193601126100f757602060ff600254166040519015158152f35b5060403660031901126100f7576004356001600160401b0381116102d6576106e490369060040161121c565b916024358015158091036102d6576106fa61154e565b60015415801590610847575b156107c5576001600160801b0334169161071f836115f6565b600154905f1982146107b15750937f9d835932f9695ed8acd7290fb99476799c321b20b15a597a99b597bdfb907c549161079886600160209801600155604051888101913060601b835260348201526034815261077d6054826112a6565b51902095604051938785526080898601526080850191611311565b93604083015260608201528033930390a2604051908152f35b634e487b7160e01b81526011600452602490fd5b60405162461bcd60e51b815260206004820152604e60248201527f696e697469616c697a6572206861736e2774206372656174656420696e69742060448201527f6d657373616765207965743b20616e642063616c6c6572206973206e6f74207460648201526d34329034b734ba34b0b634bd32b960911b608482015260a490fd5b506003546001600160a01b03163314610706565b50346100f757806003193601126100f75760025460405160089190911c6001600160a01b03168152602090f35b506020366003190112610d85576004356001600160401b038111610d855780360391610100600319840112610d85576108bf6114a1565b6108cb82600401611271565b306001600160a01b03909116036111d75760848201926001600160801b036108f285611285565b161515806111c5575b611114575b6022190160e483013581811215610d8557830192600484013560a0526001600160401b0360a05111610d855760a05160051b928336036024860113610d855760a051840460201460a051151715610d715761095c849694611725565b6080525f60e081905261010219368790030194905b60a051811015610d9d576024600582901b8801013586811215610d85576004908801019060208201601f19833603019060e08212610d85576040519160c083018381106001600160401b03821117610d89576040528135835260408501906109d88261125d565b602085019081526060870160c05260c051356001600160401b038111610d855760209088010136601f82011215610d8557610a1a903690602081359101611518565b906040860191825260808801926040610a3285611249565b6060890190815291607f190112610d855760405192604084018481106001600160401b03821117610d895760405260a08a01358085529760c08b01948535926001600160e01b031984168403610d85576020820193845281608084015260e08d013591821515808403610d8557610b25958560549560a060359801525198519351975192519063ffffffff60e01b905116906020604051998a968288019c8d526001600160601b03199060601b1660408801528051918291018888015e8501936001600160801b03199060801b16868501526064840152608483015260f81b6088820152030160158101845201826112a6565b51902060e0516080510152602060e05101968760e05111610d715760019760e05285155f14610b625750505050610b5c9150611791565b01610971565b60e0610b7391959293949501611299565b15610cd9575f9081906001600160f81b0319610b8e8561177c565b831a60f81b16156060908314610c6f5750610baf610bb69160c0519061174a565b3691611518565b610bbf86611271565b6001600160801b03610bd087611285565b16602083519301916207a120f1610be56112e2565b5015610bf5575b50505050610b5c565b610c3c604092610c37610c287f5136ea80de584762b9532903198dfdd1125167a8685e943b1bc5d16b777151c396611271565b610c3183611285565b906116b4565b611285565b906001600160e01b031990610c509061177c565b16936001600160801b038351921682526020820152a25f808080610bec565b90610cd490610cb7610c8360c0518361174a565b9190610c8e8961177c565b92604051968795634a646c7f60e01b602088015235602487015260448601526084850191611311565b9063ffffffff60e01b16606483015203601f1981018352826112a6565b610bb6565b90610d20610d2892610d17610d0e7fe240a19e4a4ef8e5861c0eea48f9ab2cdb47bfe98347c94ccabb9c45f7d8d1c697611271565b610c3187611285565b60c0519061174a565b929093611285565b906001600160e01b031990610d3c9061177c565b16946001600160801b03610d5d604051958695606087526060870191611311565b9216602084015260408301520390a2610b5c565b634e487b7160e01b5f52601160045260245ffd5b5f80fd5b634e487b7160e01b5f52604160045260245ffd5b5086608051209360c484013590811215610d85578301916004830135936001600160401b038511610d85576060850236036024850113610d85576060955f5b86811015610f2d576004606082028701016060601f198236030112610d855760405190606082018281106001600160401b03821117610d8957604052602081013591828152604082019a610e2f8c61125d565b9283602084015260600192610e4384611249565b6040819401526040519260208401918683526001600160601b03199060601b1660408501526001600160801b03199060801b16605484015260448352610e8a6064846112a6565b60405192828493516020819201602086015e83019060208201905f8252519283915e016020015f815203601f1981018252610ec590826112a6565b99610ecf90611271565b610ed882611285565b610ee1916116b4565b610eea90611285565b604080519283526001600160801b039190911660208301527fa217f2987a7942c2966f1fd16d39097862308325249e8b9fb4c00a430fd6578391a1600101610ddc565b50865160208801206044830193610f4385611299565b156110a057506020946001610f5a60648601611271565b610f6261154e565b600280546001600160a81b031916600892831b60ff1960a886901b011617909217918290555f9591610fa991476001600160801b031691901c6001600160a01b03166116b4565b84546024820135958680920361106f575b5050610fd1610fcb82600401611271565b96611299565b91610ff360a4610fec610fe660648601611271565b93611285565b9301611299565b9260405196898801986001600160601b03199060601b1689526034880152151560f81b60548701526001600160601b03199060601b1660558601526001600160801b03199060801b166069850152151560f81b6079840152607a830152609a820152609a815261106460ba826112a6565b519020604051908152f35b557f5c601f20d27885120b6fed87a4c313849b86eaddc9d28e7685e2e66a9c08093087604051878152a18488610fba565b92946001600160a01b036110b660648801611271565b166110c357602095610fa9565b60405162461bcd60e51b8152602060048201526024808201527f696e68657269746f72206d757374206265207a65726f206966206e6f742065786044820152631a5d195960e21b6064820152608490fd5b5f8080806001600160801b0361112989611285565b167f00000000000000000000000000000000000000000000000000000000000000005af16111556112e2565b506109005760405162461bcd60e51b815260206004820152603a60248201527f6661696c656420746f207472616e736665722076616c756520746f20726f757460448201527f657220647572696e67207374617465207472616e736974696f6e0000000000006064820152608490fd5b506111d260a48401611299565b6108fb565b60405162461bcd60e51b815260206004820152601d60248201527f6163746f724964206d757374206265207468697320636f6e74726163740000006044820152606490fd5b9181601f84011215610d85578235916001600160401b038311610d855760208381860195010111610d8557565b35906001600160801b0382168203610d8557565b35906001600160a01b0382168203610d8557565b356001600160a01b0381168103610d855790565b356001600160801b0381168103610d855790565b358015158103610d855790565b90601f801991011681019081106001600160401b03821117610d8957604052565b6001600160401b038111610d8957601f01601f191660200190565b3d1561130c573d906112f3826112c7565b9161130160405193846112a6565b82523d5f602084013e565b606090565b908060209392818452848401375f828201840152601f01601f1916010190565b92604092611358916001600160801b03939796978652606060208701526060860191611311565b9416910152565b34151580611499575b6114645760ff60035460a01c16610d855760243610610d855761138961154e565b60015415801590611450575b156107c5576001600160801b0334166113ad816115f6565b6001545f198114610d71576001810160015560405160208101913060601b83526034820152603481526113e16054826112a6565b519020907f9d835932f9695ed8acd7290fb99476799c321b20b15a597a99b597bdfb907c5460405183815260806020820152602060808201368152365f838301375f823683010152601f19601f3601160101926040820152600435151560608201528033930390a25f5260205ff35b506003546001600160a01b03163314611395565b7f134041dec9803c024e94a2479679395a15b6ae0034c4d424ab47712aa182620660206040516001600160801b0334168152a1565b503615611368565b7f00000000000000000000000000000000000000000000000000000000000000006001600160a01b031633036114d357565b60405162461bcd60e51b815260206004820152601860248201527f63616c6c6572206973206e6f742074686520726f7574657200000000000000006044820152606490fd5b929192611524826112c7565b9161153260405193846112a6565b829481845281830111610d85578281602093845f960137010152565b60ff6002541661155a57565b60405162461bcd60e51b81526020600482015260116024820152701c1c9bd9dc985b481a5cc8195e1a5d1959607a1b6044820152606490fd5b6001541561159d57565b60405162461bcd60e51b815260206004820152602b60248201527f696e697469616c697a6572206861736e2774206372656174656420696e69742060448201526a1b595cdcd859d9481e595d60aa1b6064820152608490fd5b6001600160801b0316806116075750565b5f808080937f00000000000000000000000000000000000000000000000000000000000000005af16116376112e2565b501561163f57565b60405162461bcd60e51b815260206004820152604160248201527f6661696c656420746f207472616e73666572206e6f6e2d7a65726f20616d6f7560448201527f6e74206f662045746865722066726f6d20736f7572636520746f20726f7574656064820152603960f91b608482015260a490fd5b906001600160801b031690816116c8575050565b5f80809381935af16116d86112e2565b50156116e057565b60405162461bcd60e51b815260206004820152601860248201527f6661696c656420746f207472616e7366657220457468657200000000000000006044820152606490fd5b6040519190601f01601f191682016001600160401b03811183821017610d8557604052565b903590601e1981360301821215610d8557018035906001600160401b038211610d8557602001918136038313610d8557565b356001600160e01b031981168103610d855790565b61179a816118c7565b156117a25750565b6117ae60c08201611299565b61181b575b7f9c4ffe7286aed9eb205c8adb12b51219122c7e56c67017f312af0e15f80117736118166117e360208401611271565b6117f0604085018561174a565b6117ff60608795939501611285565b9060405194859460018060a01b0316973585611331565b0390a2565b602081015f8061182a83611271565b81611838604087018761174a565b9190826040519384928337810182815203926207a120f16118576112e2565b501561186357506117b3565b61188d7f76c87872723521658a1c429bc5e355c5ad7b30719dae90158fe2b591f9ea56f891611271565b61189960608401611285565b60408051943585526001600160801b0390911660208501526001600160a01b03909116929081908101611816565b6118d4604082018261174a565b90916001600160a01b03806118eb60208401611271565b16149081611b8d575b5080611b84575b15611b7e5781358060f81c90600182101580611b73575b15611b6b5760f31c611fe016600181018310611b6b576001840135927f5c601f20d27885120b6fed87a4c313849b86eaddc9d28e7685e2e66a9c08093084141580611b41575b80611b17575b80611aed575b80611ac3575b80611a99575b80611a6f575b80611a45575b80611a1b575b15611a12578190035f19019182600161199a82611725565b938701018337602185013594604181013591600181036119c15750505090919250a1600190565b600281036119d257505050a2600190565b600381979593969497145f146119ee57505090919293a3600190565b600414611a01575b505050505050600190565b6061013594a45f80808080806119f6565b50505050505f90565b507fa217f2987a7942c2966f1fd16d39097862308325249e8b9fb4c00a430fd65783841415611982565b507fe240a19e4a4ef8e5861c0eea48f9ab2cdb47bfe98347c94ccabb9c45f7d8d1c684141561197c565b507f9c4ffe7286aed9eb205c8adb12b51219122c7e56c67017f312af0e15f8011773841415611976565b507f85ba4ebb0990fc588bfbb287e2e810a77c858e0a69485d6a938c52c054236667841415611970565b507f134041dec9803c024e94a2479679395a15b6ae0034c4d424ab47712aa182620684141561196a565b507f0354817698da67944179457b89e15c1c57ca7b8cfd9d80eab1d09c258f6c4978841415611964565b507fb64dad8a89028819d048f9c75ec4c516341da68972bb68a8e1262b5443c61e7f84141561195e565b507f9d835932f9695ed8acd7290fb99476799c321b20b15a597a99b597bdfb907c54841415611958565b505050505f90565b506004821115611912565b50505f90565b508015156118fb565b6001600160801b0391506060611ba39101611285565b16155f6118f456","linkReferences":{}},"methodIdentifiers":{"claimValue(bytes32)":"91d5a64c","executableBalanceTopUp(uint128)":"704ed542","exited()":"5ce6c327","inheritor()":"36a52a18","initialize(address,address,bool)":"e4bbb5a8","initializer()":"9ce110d7","nonce()":"affed0e0","performStateTransition((address,bytes32,bool,address,uint128,bool,(bytes32,address,uint128)[],(bytes32,address,bytes,uint128,(bytes32,bytes4),bool)[]))":"084f443a","router()":"f887ea40","sendMessage(bytes,bool)":"42129d00","sendReply(bytes32,bytes)":"7a8e0cdd","stateHash()":"701da98e","transferLockedValueToInheritor()":"e43f3433"},"storageLayout":{"storage":[{"astId":75046,"contract":"src/Mirror.sol:Mirror","label":"stateHash","offset":0,"slot":"0","type":"t_bytes32"},{"astId":75049,"contract":"src/Mirror.sol:Mirror","label":"nonce","offset":0,"slot":"1","type":"t_uint256"},{"astId":75052,"contract":"src/Mirror.sol:Mirror","label":"exited","offset":0,"slot":"2","type":"t_bool"},{"astId":75055,"contract":"src/Mirror.sol:Mirror","label":"inheritor","offset":1,"slot":"2","type":"t_address"},{"astId":75058,"contract":"src/Mirror.sol:Mirror","label":"initializer","offset":0,"slot":"3","type":"t_address"},{"astId":75061,"contract":"src/Mirror.sol:Mirror","label":"isSmall","offset":20,"slot":"3","type":"t_bool"}],"types":{"t_address":{"encoding":"inplace","label":"address","numberOfBytes":"20"},"t_bool":{"encoding":"inplace","label":"bool","numberOfBytes":"1"},"t_bytes32":{"encoding":"inplace","label":"bytes32","numberOfBytes":"32"},"t_uint256":{"encoding":"inplace","label":"uint256","numberOfBytes":"32"}}},"id":153}