{"abi":[{"type":"constructor","inputs":[{"name":"_router","type":"address","internalType":"address"}],"stateMutability":"nonpayable"},{"type":"fallback","stateMutability":"payable"},{"type":"function","name":"claimValue","inputs":[{"name":"_claimedId","type":"bytes32","internalType":"bytes32"}],"outputs":[],"stateMutability":"nonpayable"},{"type":"function","name":"executableBalanceTopUp","inputs":[{"name":"_value","type":"uint128","internalType":"uint128"}],"outputs":[],"stateMutability":"nonpayable"},{"type":"function","name":"exited","inputs":[],"outputs":[{"name":"","type":"bool","internalType":"bool"}],"stateMutability":"view"},{"type":"function","name":"inheritor","inputs":[],"outputs":[{"name":"","type":"address","internalType":"address"}],"stateMutability":"view"},{"type":"function","name":"initialize","inputs":[{"name":"_initializer","type":"address","internalType":"address"},{"name":"_abiInterface","type":"address","internalType":"address"},{"name":"_isSmall","type":"bool","internalType":"bool"}],"outputs":[],"stateMutability":"nonpayable"},{"type":"function","name":"initializer","inputs":[],"outputs":[{"name":"","type":"address","internalType":"address"}],"stateMutability":"view"},{"type":"function","name":"nonce","inputs":[],"outputs":[{"name":"","type":"uint256","internalType":"uint256"}],"stateMutability":"view"},{"type":"function","name":"performStateTransition","inputs":[{"name":"_transition","type":"tuple","internalType":"struct Gear.StateTransition","components":[{"name":"actorId","type":"address","internalType":"address"},{"name":"newStateHash","type":"bytes32","internalType":"bytes32"},{"name":"exited","type":"bool","internalType":"bool"},{"name":"inheritor","type":"address","internalType":"address"},{"name":"valueToReceive","type":"uint128","internalType":"uint128"},{"name":"valueToReceiveNegativeSign","type":"bool","internalType":"bool"},{"name":"valueClaims","type":"tuple[]","internalType":"struct Gear.ValueClaim[]","components":[{"name":"messageId","type":"bytes32","internalType":"bytes32"},{"name":"destination","type":"address","internalType":"address"},{"name":"value","type":"uint128","internalType":"uint128"}]},{"name":"messages","type":"tuple[]","internalType":"struct Gear.Message[]","components":[{"name":"id","type":"bytes32","internalType":"bytes32"},{"name":"destination","type":"address","internalType":"address"},{"name":"payload","type":"bytes","internalType":"bytes"},{"name":"value","type":"uint128","internalType":"uint128"},{"name":"replyDetails","type":"tuple","internalType":"struct Gear.ReplyDetails","components":[{"name":"to","type":"bytes32","internalType":"bytes32"},{"name":"code","type":"bytes4","internalType":"bytes4"}]},{"name":"call","type":"bool","internalType":"bool"}]}]}],"outputs":[{"name":"","type":"bytes32","internalType":"bytes32"}],"stateMutability":"payable"},{"type":"function","name":"router","inputs":[],"outputs":[{"name":"","type":"address","internalType":"address"}],"stateMutability":"view"},{"type":"function","name":"sendMessage","inputs":[{"name":"_payload","type":"bytes","internalType":"bytes"},{"name":"_callReply","type":"bool","internalType":"bool"}],"outputs":[{"name":"","type":"bytes32","internalType":"bytes32"}],"stateMutability":"payable"},{"type":"function","name":"sendReply","inputs":[{"name":"_repliedTo","type":"bytes32","internalType":"bytes32"},{"name":"_payload","type":"bytes","internalType":"bytes"}],"outputs":[],"stateMutability":"payable"},{"type":"function","name":"stateHash","inputs":[],"outputs":[{"name":"","type":"bytes32","internalType":"bytes32"}],"stateMutability":"view"},{"type":"event","name":"ExecutableBalanceTopUpRequested","inputs":[{"name":"value","type":"uint128","indexed":false,"internalType":"uint128"}],"anonymous":false},{"type":"event","name":"Message","inputs":[{"name":"id","type":"bytes32","indexed":false,"internalType":"bytes32"},{"name":"destination","type":"address","indexed":true,"internalType":"address"},{"name":"payload","type":"bytes","indexed":false,"internalType":"bytes"},{"name":"value","type":"uint128","indexed":false,"internalType":"uint128"}],"anonymous":false},{"type":"event","name":"MessageCallFailed","inputs":[{"name":"id","type":"bytes32","indexed":false,"internalType":"bytes32"},{"name":"destination","type":"address","indexed":true,"internalType":"address"},{"name":"value","type":"uint128","indexed":false,"internalType":"uint128"}],"anonymous":false},{"type":"event","name":"MessageQueueingRequested","inputs":[{"name":"id","type":"bytes32","indexed":false,"internalType":"bytes32"},{"name":"source","type":"address","indexed":true,"internalType":"address"},{"name":"payload","type":"bytes","indexed":false,"internalType":"bytes"},{"name":"value","type":"uint128","indexed":false,"internalType":"uint128"},{"name":"callReply","type":"bool","indexed":false,"internalType":"bool"}],"anonymous":false},{"type":"event","name":"OwnedBalanceTopUpRequested","inputs":[{"name":"value","type":"uint128","indexed":false,"internalType":"uint128"}],"anonymous":false},{"type":"event","name":"Reply","inputs":[{"name":"payload","type":"bytes","indexed":false,"internalType":"bytes"},{"name":"value","type":"uint128","indexed":false,"internalType":"uint128"},{"name":"replyTo","type":"bytes32","indexed":false,"internalType":"bytes32"},{"name":"replyCode","type":"bytes4","indexed":true,"internalType":"bytes4"}],"anonymous":false},{"type":"event","name":"ReplyCallFailed","inputs":[{"name":"value","type":"uint128","indexed":false,"internalType":"uint128"},{"name":"replyTo","type":"bytes32","indexed":false,"internalType":"bytes32"},{"name":"replyCode","type":"bytes4","indexed":true,"internalType":"bytes4"}],"anonymous":false},{"type":"event","name":"ReplyQueueingRequested","inputs":[{"name":"repliedTo","type":"bytes32","indexed":false,"internalType":"bytes32"},{"name":"source","type":"address","indexed":true,"internalType":"address"},{"name":"payload","type":"bytes","indexed":false,"internalType":"bytes"},{"name":"value","type":"uint128","indexed":false,"internalType":"uint128"}],"anonymous":false},{"type":"event","name":"StateChanged","inputs":[{"name":"stateHash","type":"bytes32","indexed":false,"internalType":"bytes32"}],"anonymous":false},{"type":"event","name":"ValueClaimed","inputs":[{"name":"claimedId","type":"bytes32","indexed":false,"internalType":"bytes32"},{"name":"value","type":"uint128","indexed":false,"internalType":"uint128"}],"anonymous":false},{"type":"event","name":"ValueClaimingRequested","inputs":[{"name":"claimedId","type":"bytes32","indexed":false,"internalType":"bytes32"},{"name":"source","type":"address","indexed":true,"internalType":"address"}],"anonymous":false}],"bytecode":{"object":"0x60a03461008557601f611bc138819003918201601f19168301916001600160401b038311848410176100895780849260209460405283398101031261008557516001600160a01b038116810361008557608052604051611b23908161009e823960805181818160bd0152818161046a015281816110a40152818161141b01526115860152f35b5f80fd5b634e487b7160e01b5f52604160045260245ffdfe6101006040526004361015610019575b6100176112d7565b005b5f5f3560e01c8063084f443a1461080057806336a52a18146107d357806342129d00146106305780635ce6c3271461060d578063701da98e146105f0578063704ed542146103f75780637a8e0cdd1461036957806391d5a64c146103165780639ce110d7146102ed578063affed0e0146102cf578063e4bbb5a8146100ef5763f887ea40146100a8575061000f565b346100ec57806003193601126100ec576040517f00000000000000000000000000000000000000000000000000000000000000006001600160a01b03168152602090f35b80fd5b50346100ec5760603660031901126100ec576004356001600160a01b038116908190036102cb576024356001600160a01b03811691908290036102c757604435908115158092036102c357610142611419565b600354906001600160a01b0382166102735760ff8260a01c1661022e577f360894a13ba1a3210667c828492db98dca3e2076cc3735a920a3ca505d382bbc54926001600160a01b0384166101dd576001600160a81b03199092161760a09190911b60ff60a01b16176003556001600160a01b031916177f360894a13ba1a3210667c828492db98dca3e2076cc3735a920a3ca505d382bbc5580f35b60405162461bcd60e51b8152602060048201526024808201527f61626920696e7465726661636520636f756c64206f6e6c7920626520736574206044820152636f6e636560e01b6064820152608490fd5b60405162461bcd60e51b815260206004820152601e60248201527f6973536d616c6c20636f756c64206f6e6c7920626520736574206f6e636500006044820152606490fd5b60405162461bcd60e51b815260206004820152602260248201527f696e697469616c697a657220636f756c64206f6e6c7920626520736574206f6e604482015261636560f01b6064820152608490fd5b8380fd5b8280fd5b5080fd5b50346100ec57806003193601126100ec576020600154604051908152f35b50346100ec57806003193601126100ec576003546040516001600160a01b039091168152602090f35b50346100ec5760203660031901126100ec576103306114c6565b61033861150b565b60405160043581527f0354817698da67944179457b89e15c1c57ca7b8cfd9d80eab1d09c258f6c497860203392a280f35b5060403660031901126100ec576024356001600160401b0381116102cb576103b67fb64dad8a89028819d048f9c75ec4c516341da68972bb68a8e1262b5443c61e7f913690600401611194565b6103c19291926114c6565b6103c961150b565b6001600160801b033416906103dd8261156e565b6103f16040519283923396600435856112a9565b0390a280f35b50346100ec5760203660031901126100ec576004356001600160801b0381168091036102cb576104256114c6565b80610459575b60207f85ba4ebb0990fc588bfbb287e2e810a77c858e0a69485d6a938c52c05423666791604051908152a180f35b60405163088f50cf60e41b815282907f00000000000000000000000000000000000000000000000000000000000000006001600160a01b031690602081600481855afa9081156105a05783916105ab575b50606460209260405194859384926323b872dd60e01b8452336004850152602484015287604484015260018060a01b03165af19081156105a0578391610565575b5061042b5760405162461bcd60e51b815260206004820152604160248201527f6661696c656420746f207472616e73666572206e6f6e2d7a65726f20616d6f7560448201527f6e74206f662057566172612066726f6d20736f7572636520746f20726f7574656064820152603960f91b608482015260a490fd5b90506020813d602011610598575b816105806020938361121e565b810103126102c7575180151581036102c7575f6104eb565b3d9150610573565b6040513d85823e3d90fd5b90506020813d6020116105e8575b816105c66020938361121e565b810103126102c75751906001600160a01b03821682036102c7579060646104aa565b3d91506105b9565b50346100ec57806003193601126100ec5760209054604051908152f35b50346100ec57806003193601126100ec57602060ff600254166040519015158152f35b5060403660031901126100ec576004356001600160401b0381116102cb5761065c903690600401611194565b916024358015158091036102cb576106726114c6565b600154158015906107bf575b1561073d576001600160801b033416916106978361156e565b600154905f1982146107295750937f9d835932f9695ed8acd7290fb99476799c321b20b15a597a99b597bdfb907c549161071086600160209801600155604051888101913060601b83526034820152603481526106f560548261121e565b51902095604051938785526080898601526080850191611289565b93604083015260608201528033930390a2604051908152f35b634e487b7160e01b81526011600452602490fd5b60405162461bcd60e51b815260206004820152604e60248201527f696e697469616c697a6572206861736e2774206372656174656420696e69742060448201527f6d657373616765207965743b20616e642063616c6c6572206973206e6f74207460648201526d34329034b734ba34b0b634bd32b960911b608482015260a490fd5b506003546001600160a01b0316331461067e565b50346100ec57806003193601126100ec5760025460405160089190911c6001600160a01b03168152602090f35b506020366003190112610cfd576004356001600160401b038111610cfd5780360391610100600319840112610cfd57610837611419565b610843826004016111e9565b306001600160a01b039091160361114f5760848201926001600160801b0361086a856111fd565b1615158061113d575b61108c575b6022190160e483013581811215610cfd57830192600484013560a0526001600160401b0360a05111610cfd5760a05160051b928336036024860113610cfd5760a051840460201460a051151715610ce9576108d484969461162c565b6080525f60e081905261010219368790030194905b60a051811015610d15576024600582901b8801013586811215610cfd576004908801019060208201601f19833603019060e08212610cfd576040519160c083018381106001600160401b03821117610d0157604052813583526040850190610950826111d5565b602085019081526060870160c05260c051356001600160401b038111610cfd5760209088010136601f82011215610cfd57610992903690602081359101611490565b9060408601918252608088019260406109aa856111c1565b6060890190815291607f190112610cfd5760405192604084018481106001600160401b03821117610d015760405260a08a01358085529760c08b01948535926001600160e01b031984168403610cfd576020820193845281608084015260e08d013591821515808403610cfd57610a9d958560549560a060359801525198519351975192519063ffffffff60e01b905116906020604051998a968288019c8d526001600160601b03199060601b1660408801528051918291018888015e8501936001600160801b03199060801b16868501526064840152608483015260f81b60888201520301601581018452018261121e565b51902060e0516080510152602060e05101968760e05111610ce95760019760e05285155f14610ada5750505050610ad49150611698565b016108e9565b60e0610aeb91959293949501611211565b15610c51575f9081906001600160f81b0319610b0685611683565b831a60f81b16156060908314610be75750610b27610b2e9160c05190611651565b3691611490565b610b37866111e9565b6001600160801b03610b48876111fd565b16602083519301916207a120f1610b5d61125a565b5015610b6d575b50505050610ad4565b610bb4604092610baf610ba07f5136ea80de584762b9532903198dfdd1125167a8685e943b1bc5d16b777151c3966111e9565b610ba9836111fd565b906117ce565b6111fd565b906001600160e01b031990610bc890611683565b16936001600160801b038351921682526020820152a25f808080610b64565b90610c4c90610c2f610bfb60c05183611651565b9190610c0689611683565b92604051968795634a646c7f60e01b602088015235602487015260448601526084850191611289565b9063ffffffff60e01b16606483015203601f19810183528261121e565b610b2e565b90610c98610ca092610c8f610c867fe240a19e4a4ef8e5861c0eea48f9ab2cdb47bfe98347c94ccabb9c45f7d8d1c6976111e9565b610ba9876111fd565b60c05190611651565b9290936111fd565b906001600160e01b031990610cb490611683565b16946001600160801b03610cd5604051958695606087526060870191611289565b9216602084015260408301520390a2610ad4565b634e487b7160e01b5f52601160045260245ffd5b5f80fd5b634e487b7160e01b5f52604160045260245ffd5b5086608051209360c484013590811215610cfd578301916004830135936001600160401b038511610cfd576060850236036024850113610cfd576060955f5b86811015610ea5576004606082028701016060601f198236030112610cfd5760405190606082018281106001600160401b03821117610d0157604052602081013591828152604082019a610da78c6111d5565b9283602084015260600192610dbb846111c1565b6040819401526040519260208401918683526001600160601b03199060601b1660408501526001600160801b03199060801b16605484015260448352610e0260648461121e565b60405192828493516020819201602086015e83019060208201905f8252519283915e016020015f815203601f1981018252610e3d908261121e565b99610e47906111e9565b610e50826111fd565b610e59916117ce565b610e62906111fd565b604080519283526001600160801b039190911660208301527fa217f2987a7942c2966f1fd16d39097862308325249e8b9fb4c00a430fd6578391a1600101610d54565b50865160208801206044830193610ebb85611211565b1561101857506020946001610ed2606486016111e9565b610eda6114c6565b600280546001600160a81b031916600892831b60ff1960a886901b011617909217918290555f9591610f2191476001600160801b031691901c6001600160a01b03166117ce565b845460248201359586809203610fe7575b5050610f49610f43826004016111e9565b96611211565b91610f6b60a4610f64610f5e606486016111e9565b936111fd565b9301611211565b9260405196898801986001600160601b03199060601b1689526034880152151560f81b60548701526001600160601b03199060601b1660558601526001600160801b03199060801b166069850152151560f81b6079840152607a830152609a820152609a8152610fdc60ba8261121e565b519020604051908152f35b557f5c601f20d27885120b6fed87a4c313849b86eaddc9d28e7685e2e66a9c08093087604051878152a18488610f32565b92946001600160a01b0361102e606488016111e9565b1661103b57602095610f21565b60405162461bcd60e51b8152602060048201526024808201527f696e68657269746f72206d757374206265207a65726f206966206e6f742065786044820152631a5d195960e21b6064820152608490fd5b5f8080806001600160801b036110a1896111fd565b167f00000000000000000000000000000000000000000000000000000000000000005af16110cd61125a565b506108785760405162461bcd60e51b815260206004820152603a60248201527f6661696c656420746f207472616e736665722076616c756520746f20726f757460448201527f657220647572696e67207374617465207472616e736974696f6e0000000000006064820152608490fd5b5061114a60a48401611211565b610873565b60405162461bcd60e51b815260206004820152601d60248201527f6163746f724964206d757374206265207468697320636f6e74726163740000006044820152606490fd5b9181601f84011215610cfd578235916001600160401b038311610cfd5760208381860195010111610cfd57565b35906001600160801b0382168203610cfd57565b35906001600160a01b0382168203610cfd57565b356001600160a01b0381168103610cfd5790565b356001600160801b0381168103610cfd5790565b358015158103610cfd5790565b90601f801991011681019081106001600160401b03821117610d0157604052565b6001600160401b038111610d0157601f01601f191660200190565b3d15611284573d9061126b8261123f565b91611279604051938461121e565b82523d5f602084013e565b606090565b908060209392818452848401375f828201840152601f01601f1916010190565b926040926112d0916001600160801b03939796978652606060208701526060860191611289565b9416910152565b34151580611411575b6113dc5760ff60035460a01c16610cfd5760243610610cfd576113016114c6565b600154158015906113c8575b1561073d576001600160801b0334166113258161156e565b6001545f198114610ce9576001810160015560405160208101913060601b835260348201526034815261135960548261121e565b519020907f9d835932f9695ed8acd7290fb99476799c321b20b15a597a99b597bdfb907c5460405183815260806020820152602060808201368152365f838301375f823683010152601f19601f3601160101926040820152600435151560608201528033930390a25f5260205ff35b506003546001600160a01b0316331461130d565b7f134041dec9803c024e94a2479679395a15b6ae0034c4d424ab47712aa182620660206040516001600160801b0334168152a1565b5036156112e0565b7f00000000000000000000000000000000000000000000000000000000000000006001600160a01b0316330361144b57565b60405162461bcd60e51b815260206004820152601860248201527f63616c6c6572206973206e6f742074686520726f7574657200000000000000006044820152606490fd5b92919261149c8261123f565b916114aa604051938461121e565b829481845281830111610cfd578281602093845f960137010152565b60ff600254166114d257565b60405162461bcd60e51b81526020600482015260116024820152701c1c9bd9dc985b481a5cc8195e1a5d1959607a1b6044820152606490fd5b6001541561151557565b60405162461bcd60e51b815260206004820152602b60248201527f696e697469616c697a6572206861736e2774206372656174656420696e69742060448201526a1b595cdcd859d9481e595d60aa1b6064820152608490fd5b6001600160801b03168061157f5750565b5f808080937f00000000000000000000000000000000000000000000000000000000000000005af16115af61125a565b50156115b757565b60405162461bcd60e51b815260206004820152604160248201527f6661696c656420746f207472616e73666572206e6f6e2d7a65726f20616d6f7560448201527f6e74206f662045746865722066726f6d20736f7572636520746f20726f7574656064820152603960f91b608482015260a490fd5b6040519190601f01601f191682016001600160401b03811183821017610cfd57604052565b903590601e1981360301821215610cfd57018035906001600160401b038211610cfd57602001918136038313610cfd57565b356001600160e01b031981168103610cfd5790565b6116a18161183f565b156116a95750565b6116b560c08201611211565b611722575b7f9c4ffe7286aed9eb205c8adb12b51219122c7e56c67017f312af0e15f801177361171d6116ea602084016111e9565b6116f76040850185611651565b611706606087959395016111fd565b9060405194859460018060a01b03169735856112a9565b0390a2565b602081015f80611731836111e9565b8161173f6040870187611651565b9190826040519384928337810182815203926207a120f161175e61125a565b501561176a57506116ba565b6117947f76c87872723521658a1c429bc5e355c5ad7b30719dae90158fe2b591f9ea56f8916111e9565b6117a0606084016111fd565b60408051943585526001600160801b0390911660208501526001600160a01b0390911692908190810161171d565b906001600160801b031690816117e2575050565b5f80809381935af16117f261125a565b50156117fa57565b60405162461bcd60e51b815260206004820152601860248201527f6661696c656420746f207472616e7366657220457468657200000000000000006044820152606490fd5b61184c6040820182611651565b90916001600160a01b0380611863602084016111e9565b16149081611b05575b5080611afc575b15611af65781358060f81c90600182101580611aeb575b15611ae35760f31c611fe016600181018310611ae3576001840135927f5c601f20d27885120b6fed87a4c313849b86eaddc9d28e7685e2e66a9c08093084141580611ab9575b80611a8f575b80611a65575b80611a3b575b80611a11575b806119e7575b806119bd575b80611993575b1561198a578190035f1901918260016119128261162c565b938701018337602185013594604181013591600181036119395750505090919250a1600190565b6002810361194a57505050a2600190565b600381979593969497145f1461196657505090919293a3600190565b600414611979575b505050505050600190565b6061013594a45f808080808061196e565b50505050505f90565b507fa217f2987a7942c2966f1fd16d39097862308325249e8b9fb4c00a430fd657838414156118fa565b507fe240a19e4a4ef8e5861c0eea48f9ab2cdb47bfe98347c94ccabb9c45f7d8d1c68414156118f4565b507f9c4ffe7286aed9eb205c8adb12b51219122c7e56c67017f312af0e15f80117738414156118ee565b507f85ba4ebb0990fc588bfbb287e2e810a77c858e0a69485d6a938c52c0542366678414156118e8565b507f134041dec9803c024e94a2479679395a15b6ae0034c4d424ab47712aa18262068414156118e2565b507f0354817698da67944179457b89e15c1c57ca7b8cfd9d80eab1d09c258f6c49788414156118dc565b507fb64dad8a89028819d048f9c75ec4c516341da68972bb68a8e1262b5443c61e7f8414156118d6565b507f9d835932f9695ed8acd7290fb99476799c321b20b15a597a99b597bdfb907c548414156118d0565b505050505f90565b50600482111561188a565b50505f90565b50801515611873565b6001600160801b0391506060611b1b91016111fd565b16155f61186c56","linkReferences":{}},"methodIdentifiers":{"claimValue(bytes32)":"91d5a64c","executableBalanceTopUp(uint128)":"704ed542","exited()":"5ce6c327","inheritor()":"36a52a18","initialize(address,address,bool)":"e4bbb5a8","initializer()":"9ce110d7","nonce()":"affed0e0","performStateTransition((address,bytes32,bool,address,uint128,bool,(bytes32,address,uint128)[],(bytes32,address,bytes,uint128,(bytes32,bytes4),bool)[]))":"084f443a","router()":"f887ea40","sendMessage(bytes,bool)":"42129d00","sendReply(bytes32,bytes)":"7a8e0cdd","stateHash()":"701da98e"},"storageLayout":{"storage":[{"astId":74851,"contract":"src/Mirror.sol:Mirror","label":"stateHash","offset":0,"slot":"0","type":"t_bytes32"},{"astId":74854,"contract":"src/Mirror.sol:Mirror","label":"nonce","offset":0,"slot":"1","type":"t_uint256"},{"astId":74857,"contract":"src/Mirror.sol:Mirror","label":"exited","offset":0,"slot":"2","type":"t_bool"},{"astId":74860,"contract":"src/Mirror.sol:Mirror","label":"inheritor","offset":1,"slot":"2","type":"t_address"},{"astId":74863,"contract":"src/Mirror.sol:Mirror","label":"initializer","offset":0,"slot":"3","type":"t_address"},{"astId":74866,"contract":"src/Mirror.sol:Mirror","label":"isSmall","offset":20,"slot":"3","type":"t_bool"}],"types":{"t_address":{"encoding":"inplace","label":"address","numberOfBytes":"20"},"t_bool":{"encoding":"inplace","label":"bool","numberOfBytes":"1"},"t_bytes32":{"encoding":"inplace","label":"bytes32","numberOfBytes":"32"},"t_uint256":{"encoding":"inplace","label":"uint256","numberOfBytes":"32"}}},"id":152}