{"abi":[{"type":"constructor","inputs":[{"name":"_router","type":"address","internalType":"address"}],"stateMutability":"nonpayable"},{"type":"fallback","stateMutability":"payable"},{"type":"function","name":"claimValue","inputs":[{"name":"_claimedId","type":"bytes32","internalType":"bytes32"}],"outputs":[],"stateMutability":"nonpayable"},{"type":"function","name":"executableBalanceTopUp","inputs":[{"name":"_value","type":"uint128","internalType":"uint128"}],"outputs":[],"stateMutability":"nonpayable"},{"type":"function","name":"exited","inputs":[],"outputs":[{"name":"","type":"bool","internalType":"bool"}],"stateMutability":"view"},{"type":"function","name":"inheritor","inputs":[],"outputs":[{"name":"","type":"address","internalType":"address"}],"stateMutability":"view"},{"type":"function","name":"initialize","inputs":[{"name":"_initializer","type":"address","internalType":"address"},{"name":"_abiInterface","type":"address","internalType":"address"},{"name":"_isSmall","type":"bool","internalType":"bool"}],"outputs":[],"stateMutability":"nonpayable"},{"type":"function","name":"initializer","inputs":[],"outputs":[{"name":"","type":"address","internalType":"address"}],"stateMutability":"view"},{"type":"function","name":"nonce","inputs":[],"outputs":[{"name":"","type":"uint256","internalType":"uint256"}],"stateMutability":"view"},{"type":"function","name":"ownedBalanceTopUpFromRouter","inputs":[],"outputs":[],"stateMutability":"payable"},{"type":"function","name":"performStateTransition","inputs":[{"name":"_transition","type":"tuple","internalType":"struct Gear.StateTransition","components":[{"name":"actorId","type":"address","internalType":"address"},{"name":"newStateHash","type":"bytes32","internalType":"bytes32"},{"name":"exited","type":"bool","internalType":"bool"},{"name":"inheritor","type":"address","internalType":"address"},{"name":"valueToReceive","type":"uint128","internalType":"uint128"},{"name":"valueToReceiveNegativeSign","type":"bool","internalType":"bool"},{"name":"valueClaims","type":"tuple[]","internalType":"struct Gear.ValueClaim[]","components":[{"name":"messageId","type":"bytes32","internalType":"bytes32"},{"name":"destination","type":"address","internalType":"address"},{"name":"value","type":"uint128","internalType":"uint128"}]},{"name":"messages","type":"tuple[]","internalType":"struct Gear.Message[]","components":[{"name":"id","type":"bytes32","internalType":"bytes32"},{"name":"destination","type":"address","internalType":"address"},{"name":"payload","type":"bytes","internalType":"bytes"},{"name":"value","type":"uint128","internalType":"uint128"},{"name":"replyDetails","type":"tuple","internalType":"struct Gear.ReplyDetails","components":[{"name":"to","type":"bytes32","internalType":"bytes32"},{"name":"code","type":"bytes4","internalType":"bytes4"}]},{"name":"call","type":"bool","internalType":"bool"}]}]}],"outputs":[{"name":"","type":"bytes32","internalType":"bytes32"}],"stateMutability":"nonpayable"},{"type":"function","name":"router","inputs":[],"outputs":[{"name":"","type":"address","internalType":"address"}],"stateMutability":"view"},{"type":"function","name":"sendMessage","inputs":[{"name":"_payload","type":"bytes","internalType":"bytes"},{"name":"_callReply","type":"bool","internalType":"bool"}],"outputs":[{"name":"","type":"bytes32","internalType":"bytes32"}],"stateMutability":"payable"},{"type":"function","name":"sendReply","inputs":[{"name":"_repliedTo","type":"bytes32","internalType":"bytes32"},{"name":"_payload","type":"bytes","internalType":"bytes"}],"outputs":[],"stateMutability":"payable"},{"type":"function","name":"stateHash","inputs":[],"outputs":[{"name":"","type":"bytes32","internalType":"bytes32"}],"stateMutability":"view"},{"type":"function","name":"transferLockedValueToInheritor","inputs":[],"outputs":[],"stateMutability":"nonpayable"},{"type":"event","name":"ExecutableBalanceTopUpRequested","inputs":[{"name":"value","type":"uint128","indexed":false,"internalType":"uint128"}],"anonymous":false},{"type":"event","name":"Message","inputs":[{"name":"id","type":"bytes32","indexed":false,"internalType":"bytes32"},{"name":"destination","type":"address","indexed":true,"internalType":"address"},{"name":"payload","type":"bytes","indexed":false,"internalType":"bytes"},{"name":"value","type":"uint128","indexed":false,"internalType":"uint128"}],"anonymous":false},{"type":"event","name":"MessageCallFailed","inputs":[{"name":"id","type":"bytes32","indexed":false,"internalType":"bytes32"},{"name":"destination","type":"address","indexed":true,"internalType":"address"},{"name":"value","type":"uint128","indexed":false,"internalType":"uint128"}],"anonymous":false},{"type":"event","name":"MessageQueueingRequested","inputs":[{"name":"id","type":"bytes32","indexed":false,"internalType":"bytes32"},{"name":"source","type":"address","indexed":true,"internalType":"address"},{"name":"payload","type":"bytes","indexed":false,"internalType":"bytes"},{"name":"value","type":"uint128","indexed":false,"internalType":"uint128"},{"name":"callReply","type":"bool","indexed":false,"internalType":"bool"}],"anonymous":false},{"type":"event","name":"OwnedBalanceTopUpRequested","inputs":[{"name":"value","type":"uint128","indexed":false,"internalType":"uint128"}],"anonymous":false},{"type":"event","name":"Reply","inputs":[{"name":"payload","type":"bytes","indexed":false,"internalType":"bytes"},{"name":"value","type":"uint128","indexed":false,"internalType":"uint128"},{"name":"replyTo","type":"bytes32","indexed":false,"internalType":"bytes32"},{"name":"replyCode","type":"bytes4","indexed":true,"internalType":"bytes4"}],"anonymous":false},{"type":"event","name":"ReplyCallFailed","inputs":[{"name":"value","type":"uint128","indexed":false,"internalType":"uint128"},{"name":"replyTo","type":"bytes32","indexed":false,"internalType":"bytes32"},{"name":"replyCode","type":"bytes4","indexed":true,"internalType":"bytes4"}],"anonymous":false},{"type":"event","name":"ReplyQueueingRequested","inputs":[{"name":"repliedTo","type":"bytes32","indexed":false,"internalType":"bytes32"},{"name":"source","type":"address","indexed":true,"internalType":"address"},{"name":"payload","type":"bytes","indexed":false,"internalType":"bytes"},{"name":"value","type":"uint128","indexed":false,"internalType":"uint128"}],"anonymous":false},{"type":"event","name":"StateChanged","inputs":[{"name":"stateHash","type":"bytes32","indexed":false,"internalType":"bytes32"}],"anonymous":false},{"type":"event","name":"ValueClaimed","inputs":[{"name":"claimedId","type":"bytes32","indexed":false,"internalType":"bytes32"},{"name":"value","type":"uint128","indexed":false,"internalType":"uint128"}],"anonymous":false},{"type":"event","name":"ValueClaimingRequested","inputs":[{"name":"claimedId","type":"bytes32","indexed":false,"internalType":"bytes32"},{"name":"source","type":"address","indexed":true,"internalType":"address"}],"anonymous":false}],"bytecode":{"object":"0x60a03461008557601f611c6d38819003918201601f19168301916001600160401b038311848410176100895780849260209460405283398101031261008557516001600160a01b038116810361008557608052604051611bcf908161009e823960805181818160d30152818161051101528181611150015281816114c701526116320152f35b5f80fd5b634e487b7160e01b5f52604160045260245ffdfe6101006040526004361015610019575b610017611383565b005b5f5f3560e01c8063084f443a146108a757806336a52a181461087a57806342129d00146106d75780635ce6c327146106b4578063701da98e14610697578063704ed5421461049e5780637a8e0cdd1461041057806391d5a64c146103bd5780639ce110d714610394578063affed0e014610376578063d4a7677b14610362578063e43f3433146102e5578063e4bbb5a8146101055763f887ea40146100be575061000f565b346101025780600319360112610102576040517f00000000000000000000000000000000000000000000000000000000000000006001600160a01b03168152602090f35b80fd5b5034610102576060366003190112610102576004356001600160a01b038116908190036102e1576024356001600160a01b03811691908290036102dd57604435908115158092036102d9576101586114c5565b600354906001600160a01b0382166102895760ff8260a01c16610244577f360894a13ba1a3210667c828492db98dca3e2076cc3735a920a3ca505d382bbc54926001600160a01b0384166101f3576001600160a81b03199092161760a09190911b60ff60a01b16176003556001600160a01b031916177f360894a13ba1a3210667c828492db98dca3e2076cc3735a920a3ca505d382bbc5580f35b60405162461bcd60e51b8152602060048201526024808201527f61626920696e7465726661636520636f756c64206f6e6c7920626520736574206044820152636f6e636560e01b6064820152608490fd5b60405162461bcd60e51b815260206004820152601e60248201527f6973536d616c6c20636f756c64206f6e6c7920626520736574206f6e636500006044820152606490fd5b60405162461bcd60e51b815260206004820152602260248201527f696e697469616c697a657220636f756c64206f6e6c7920626520736574206f6e604482015261636560f01b6064820152608490fd5b8380fd5b8280fd5b5080fd5b503461010257806003193601126101025760025460ff8116156103255761032290476001600160801b03169060081c6001600160a01b03166116d8565b80f35b60405162461bcd60e51b81526020600482015260156024820152741c1c9bd9dc985b481a5cc81b9bdd08195e1a5d1959605a1b6044820152606490fd5b5080600319360112610102576103226114c5565b50346101025780600319360112610102576020600154604051908152f35b50346101025780600319360112610102576003546040516001600160a01b039091168152602090f35b5034610102576020366003190112610102576103d7611572565b6103df6115b7565b60405160043581527f0354817698da67944179457b89e15c1c57ca7b8cfd9d80eab1d09c258f6c497860203392a280f35b506040366003190112610102576024356001600160401b0381116102e15761045d7fb64dad8a89028819d048f9c75ec4c516341da68972bb68a8e1262b5443c61e7f913690600401611240565b610468929192611572565b6104706115b7565b6001600160801b033416906104848261161a565b610498604051928392339660043585611355565b0390a280f35b5034610102576020366003190112610102576004356001600160801b0381168091036102e1576104cc611572565b80610500575b60207f85ba4ebb0990fc588bfbb287e2e810a77c858e0a69485d6a938c52c05423666791604051908152a180f35b60405163088f50cf60e41b815282907f00000000000000000000000000000000000000000000000000000000000000006001600160a01b031690602081600481855afa908115610647578391610652575b50606460209260405194859384926323b872dd60e01b8452336004850152602484015287604484015260018060a01b03165af190811561064757839161060c575b506104d25760405162461bcd60e51b815260206004820152604160248201527f6661696c656420746f207472616e73666572206e6f6e2d7a65726f20616d6f7560448201527f6e74206f662057566172612066726f6d20736f7572636520746f20726f7574656064820152603960f91b608482015260a490fd5b90506020813d60201161063f575b81610627602093836112ca565b810103126102dd575180151581036102dd575f610592565b3d915061061a565b6040513d85823e3d90fd5b90506020813d60201161068f575b8161066d602093836112ca565b810103126102dd5751906001600160a01b03821682036102dd57906064610551565b3d9150610660565b503461010257806003193601126101025760209054604051908152f35b5034610102578060031936011261010257602060ff600254166040519015158152f35b506040366003190112610102576004356001600160401b0381116102e157610703903690600401611240565b916024358015158091036102e157610719611572565b60015415801590610866575b156107e4576001600160801b0334169161073e8361161a565b600154905f1982146107d05750937f9d835932f9695ed8acd7290fb99476799c321b20b15a597a99b597bdfb907c54916107b786600160209801600155604051888101913060601b835260348201526034815261079c6054826112ca565b51902095604051938785526080898601526080850191611335565b93604083015260608201528033930390a2604051908152f35b634e487b7160e01b81526011600452602490fd5b60405162461bcd60e51b815260206004820152604e60248201527f696e697469616c697a6572206861736e2774206372656174656420696e69742060448201527f6d657373616765207965743b20616e642063616c6c6572206973206e6f74207460648201526d34329034b734ba34b0b634bd32b960911b608482015260a490fd5b506003546001600160a01b03163314610725565b503461010257806003193601126101025760025460405160089190911c6001600160a01b03168152602090f35b5034610da9576020366003190112610da9576004356001600160401b038111610da95780360391610100600319840112610da9576108e36114c5565b6108ef82600401611295565b306001600160a01b03909116036111fb5760848201926001600160801b03610916856112a9565b161515806111e9575b611138575b6022190160e483013581811215610da957830192600484013560a0526001600160401b0360a05111610da95760a05160051b928336036024860113610da95760a051840460201460a051151715610d9557610980849694611749565b6080525f60e081905261010219368790030194905b60a051811015610dc1576024600582901b8801013586811215610da9576004908801019060208201601f19833603019060e08212610da9576040519160c083018381106001600160401b03821117610dad576040528135835260408501906109fc82611281565b602085019081526060870160c05260c051356001600160401b038111610da95760209088010136601f82011215610da957610a3e90369060208135910161153c565b906040860191825260808801926040610a568561126d565b6060890190815291607f190112610da95760405192604084018481106001600160401b03821117610dad5760405260a08a01358085529760c08b01948535926001600160e01b031984168403610da9576020820193845281608084015260e08d013591821515808403610da957610b49958560549560a060359801525198519351975192519063ffffffff60e01b905116906020604051998a968288019c8d526001600160601b03199060601b1660408801528051918291018888015e8501936001600160801b03199060801b16868501526064840152608483015260f81b6088820152030160158101845201826112ca565b51902060e0516080510152602060e05101968760e05111610d955760019760e05285155f14610b865750505050610b8091506117b5565b01610995565b60e0610b97919592939495016112bd565b15610cfd575f9081906001600160f81b0319610bb2856117a0565b831a60f81b16156060908314610c935750610bd3610bda9160c0519061176e565b369161153c565b610be386611295565b6001600160801b03610bf4876112a9565b16602083519301916207a120f1610c09611306565b5015610c19575b50505050610b80565b610c60604092610c5b610c4c7f5136ea80de584762b9532903198dfdd1125167a8685e943b1bc5d16b777151c396611295565b610c55836112a9565b906116d8565b6112a9565b906001600160e01b031990610c74906117a0565b16936001600160801b038351921682526020820152a25f808080610c10565b90610cf890610cdb610ca760c0518361176e565b9190610cb2896117a0565b92604051968795634a646c7f60e01b602088015235602487015260448601526084850191611335565b9063ffffffff60e01b16606483015203601f1981018352826112ca565b610bda565b90610d44610d4c92610d3b610d327fe240a19e4a4ef8e5861c0eea48f9ab2cdb47bfe98347c94ccabb9c45f7d8d1c697611295565b610c55876112a9565b60c0519061176e565b9290936112a9565b906001600160e01b031990610d60906117a0565b16946001600160801b03610d81604051958695606087526060870191611335565b9216602084015260408301520390a2610b80565b634e487b7160e01b5f52601160045260245ffd5b5f80fd5b634e487b7160e01b5f52604160045260245ffd5b5086608051209360c484013590811215610da9578301916004830135936001600160401b038511610da9576060850236036024850113610da9576060955f5b86811015610f51576004606082028701016060601f198236030112610da95760405190606082018281106001600160401b03821117610dad57604052602081013591828152604082019a610e538c611281565b9283602084015260600192610e678461126d565b6040819401526040519260208401918683526001600160601b03199060601b1660408501526001600160801b03199060801b16605484015260448352610eae6064846112ca565b60405192828493516020819201602086015e83019060208201905f8252519283915e016020015f815203601f1981018252610ee990826112ca565b99610ef390611295565b610efc826112a9565b610f05916116d8565b610f0e906112a9565b604080519283526001600160801b039190911660208301527fa217f2987a7942c2966f1fd16d39097862308325249e8b9fb4c00a430fd6578391a1600101610e00565b50865160208801206044830193610f67856112bd565b156110c457506020946001610f7e60648601611295565b610f86611572565b600280546001600160a81b031916600892831b60ff1960a886901b011617909217918290555f9591610fcd91476001600160801b031691901c6001600160a01b03166116d8565b845460248201359586809203611093575b5050610ff5610fef82600401611295565b966112bd565b9161101760a461101061100a60648601611295565b936112a9565b93016112bd565b9260405196898801986001600160601b03199060601b1689526034880152151560f81b60548701526001600160601b03199060601b1660558601526001600160801b03199060801b166069850152151560f81b6079840152607a830152609a820152609a815261108860ba826112ca565b519020604051908152f35b557f5c601f20d27885120b6fed87a4c313849b86eaddc9d28e7685e2e66a9c08093087604051878152a18488610fde565b92946001600160a01b036110da60648801611295565b166110e757602095610fcd565b60405162461bcd60e51b8152602060048201526024808201527f696e68657269746f72206d757374206265207a65726f206966206e6f742065786044820152631a5d195960e21b6064820152608490fd5b5f8080806001600160801b0361114d896112a9565b167f00000000000000000000000000000000000000000000000000000000000000005af1611179611306565b506109245760405162461bcd60e51b815260206004820152603a60248201527f6661696c656420746f207472616e736665722076616c756520746f20726f757460448201527f657220647572696e67207374617465207472616e736974696f6e0000000000006064820152608490fd5b506111f660a484016112bd565b61091f565b60405162461bcd60e51b815260206004820152601d60248201527f6163746f724964206d757374206265207468697320636f6e74726163740000006044820152606490fd5b9181601f84011215610da9578235916001600160401b038311610da95760208381860195010111610da957565b35906001600160801b0382168203610da957565b35906001600160a01b0382168203610da957565b356001600160a01b0381168103610da95790565b356001600160801b0381168103610da95790565b358015158103610da95790565b90601f801991011681019081106001600160401b03821117610dad57604052565b6001600160401b038111610dad57601f01601f191660200190565b3d15611330573d90611317826112eb565b9161132560405193846112ca565b82523d5f602084013e565b606090565b908060209392818452848401375f828201840152601f01601f1916010190565b9260409261137c916001600160801b03939796978652606060208701526060860191611335565b9416910152565b341515806114bd575b6114885760ff60035460a01c16610da95760243610610da9576113ad611572565b60015415801590611474575b156107e4576001600160801b0334166113d18161161a565b6001545f198114610d95576001810160015560405160208101913060601b83526034820152603481526114056054826112ca565b519020907f9d835932f9695ed8acd7290fb99476799c321b20b15a597a99b597bdfb907c5460405183815260806020820152602060808201368152365f838301375f823683010152601f19601f3601160101926040820152600435151560608201528033930390a25f5260205ff35b506003546001600160a01b031633146113b9565b7f134041dec9803c024e94a2479679395a15b6ae0034c4d424ab47712aa182620660206040516001600160801b0334168152a1565b50361561138c565b7f00000000000000000000000000000000000000000000000000000000000000006001600160a01b031633036114f757565b60405162461bcd60e51b815260206004820152601860248201527f63616c6c6572206973206e6f742074686520726f7574657200000000000000006044820152606490fd5b929192611548826112eb565b9161155660405193846112ca565b829481845281830111610da9578281602093845f960137010152565b60ff6002541661157e57565b60405162461bcd60e51b81526020600482015260116024820152701c1c9bd9dc985b481a5cc8195e1a5d1959607a1b6044820152606490fd5b600154156115c157565b60405162461bcd60e51b815260206004820152602b60248201527f696e697469616c697a6572206861736e2774206372656174656420696e69742060448201526a1b595cdcd859d9481e595d60aa1b6064820152608490fd5b6001600160801b03168061162b5750565b5f808080937f00000000000000000000000000000000000000000000000000000000000000005af161165b611306565b501561166357565b60405162461bcd60e51b815260206004820152604160248201527f6661696c656420746f207472616e73666572206e6f6e2d7a65726f20616d6f7560448201527f6e74206f662045746865722066726f6d20736f7572636520746f20726f7574656064820152603960f91b608482015260a490fd5b906001600160801b031690816116ec575050565b5f80809381935af16116fc611306565b501561170457565b60405162461bcd60e51b815260206004820152601860248201527f6661696c656420746f207472616e7366657220457468657200000000000000006044820152606490fd5b6040519190601f01601f191682016001600160401b03811183821017610da957604052565b903590601e1981360301821215610da957018035906001600160401b038211610da957602001918136038313610da957565b356001600160e01b031981168103610da95790565b6117be816118eb565b156117c65750565b6117d260c082016112bd565b61183f575b7f9c4ffe7286aed9eb205c8adb12b51219122c7e56c67017f312af0e15f801177361183a61180760208401611295565b611814604085018561176e565b611823606087959395016112a9565b9060405194859460018060a01b0316973585611355565b0390a2565b602081015f8061184e83611295565b8161185c604087018761176e565b9190826040519384928337810182815203926207a120f161187b611306565b501561188757506117d7565b6118b17f76c87872723521658a1c429bc5e355c5ad7b30719dae90158fe2b591f9ea56f891611295565b6118bd606084016112a9565b60408051943585526001600160801b0390911660208501526001600160a01b0390911692908190810161183a565b6118f8604082018261176e565b90916001600160a01b038061190f60208401611295565b16149081611bb1575b5080611ba8575b15611ba25781358060f81c90600182101580611b97575b15611b8f5760f31c611fe016600181018310611b8f576001840135927f5c601f20d27885120b6fed87a4c313849b86eaddc9d28e7685e2e66a9c08093084141580611b65575b80611b3b575b80611b11575b80611ae7575b80611abd575b80611a93575b80611a69575b80611a3f575b15611a36578190035f1901918260016119be82611749565b938701018337602185013594604181013591600181036119e55750505090919250a1600190565b600281036119f657505050a2600190565b600381979593969497145f14611a1257505090919293a3600190565b600414611a25575b505050505050600190565b6061013594a45f8080808080611a1a565b50505050505f90565b507fa217f2987a7942c2966f1fd16d39097862308325249e8b9fb4c00a430fd657838414156119a6565b507fe240a19e4a4ef8e5861c0eea48f9ab2cdb47bfe98347c94ccabb9c45f7d8d1c68414156119a0565b507f9c4ffe7286aed9eb205c8adb12b51219122c7e56c67017f312af0e15f801177384141561199a565b507f85ba4ebb0990fc588bfbb287e2e810a77c858e0a69485d6a938c52c054236667841415611994565b507f134041dec9803c024e94a2479679395a15b6ae0034c4d424ab47712aa182620684141561198e565b507f0354817698da67944179457b89e15c1c57ca7b8cfd9d80eab1d09c258f6c4978841415611988565b507fb64dad8a89028819d048f9c75ec4c516341da68972bb68a8e1262b5443c61e7f841415611982565b507f9d835932f9695ed8acd7290fb99476799c321b20b15a597a99b597bdfb907c5484141561197c565b505050505f90565b506004821115611936565b50505f90565b5080151561191f565b6001600160801b0391506060611bc791016112a9565b16155f61191856","linkReferences":{}},"methodIdentifiers":{"claimValue(bytes32)":"91d5a64c","executableBalanceTopUp(uint128)":"704ed542","exited()":"5ce6c327","inheritor()":"36a52a18","initialize(address,address,bool)":"e4bbb5a8","initializer()":"9ce110d7","nonce()":"affed0e0","ownedBalanceTopUpFromRouter()":"d4a7677b","performStateTransition((address,bytes32,bool,address,uint128,bool,(bytes32,address,uint128)[],(bytes32,address,bytes,uint128,(bytes32,bytes4),bool)[]))":"084f443a","router()":"f887ea40","sendMessage(bytes,bool)":"42129d00","sendReply(bytes32,bytes)":"7a8e0cdd","stateHash()":"701da98e","transferLockedValueToInheritor()":"e43f3433"},"storageLayout":{"storage":[{"astId":74857,"contract":"src/Mirror.sol:Mirror","label":"stateHash","offset":0,"slot":"0","type":"t_bytes32"},{"astId":74860,"contract":"src/Mirror.sol:Mirror","label":"nonce","offset":0,"slot":"1","type":"t_uint256"},{"astId":74863,"contract":"src/Mirror.sol:Mirror","label":"exited","offset":0,"slot":"2","type":"t_bool"},{"astId":74866,"contract":"src/Mirror.sol:Mirror","label":"inheritor","offset":1,"slot":"2","type":"t_address"},{"astId":74869,"contract":"src/Mirror.sol:Mirror","label":"initializer","offset":0,"slot":"3","type":"t_address"},{"astId":74872,"contract":"src/Mirror.sol:Mirror","label":"isSmall","offset":20,"slot":"3","type":"t_bool"}],"types":{"t_address":{"encoding":"inplace","label":"address","numberOfBytes":"20"},"t_bool":{"encoding":"inplace","label":"bool","numberOfBytes":"1"},"t_bytes32":{"encoding":"inplace","label":"bytes32","numberOfBytes":"32"},"t_uint256":{"encoding":"inplace","label":"uint256","numberOfBytes":"32"}}},"id":152}