{"abi":[{"type":"function","name":"_retrieveValueToRouter","inputs":[{"name":"_value","type":"uint128","internalType":"uint128"}],"outputs":[],"stateMutability":"nonpayable"},{"type":"function","name":"_sendValueTo","inputs":[{"name":"destination","type":"address","internalType":"address"},{"name":"value","type":"uint128","internalType":"uint128"}],"outputs":[],"stateMutability":"nonpayable"},{"type":"function","name":"claimValue","inputs":[{"name":"_claimedId","type":"bytes32","internalType":"bytes32"}],"outputs":[],"stateMutability":"nonpayable"},{"type":"function","name":"executableBalanceBurned","inputs":[{"name":"value","type":"uint128","internalType":"uint128"}],"outputs":[],"stateMutability":"nonpayable"},{"type":"function","name":"executableBalanceTopUp","inputs":[{"name":"_value","type":"uint128","internalType":"uint128"}],"outputs":[],"stateMutability":"payable"},{"type":"function","name":"initMessage","inputs":[{"name":"source","type":"address","internalType":"address"},{"name":"payload","type":"bytes","internalType":"bytes"},{"name":"value","type":"uint128","internalType":"uint128"},{"name":"executableBalance","type":"uint128","internalType":"uint128"}],"outputs":[],"stateMutability":"nonpayable"},{"type":"function","name":"messageSent","inputs":[{"name":"id","type":"bytes32","internalType":"bytes32"},{"name":"destination","type":"address","internalType":"address"},{"name":"payload","type":"bytes","internalType":"bytes"},{"name":"value","type":"uint128","internalType":"uint128"}],"outputs":[],"stateMutability":"nonpayable"},{"type":"function","name":"nonce","inputs":[],"outputs":[{"name":"","type":"uint256","internalType":"uint256"}],"stateMutability":"view"},{"type":"function","name":"replySent","inputs":[{"name":"destination","type":"address","internalType":"address"},{"name":"payload","type":"bytes","internalType":"bytes"},{"name":"value","type":"uint128","internalType":"uint128"},{"name":"replyTo","type":"bytes32","internalType":"bytes32"},{"name":"replyCode","type":"bytes4","internalType":"bytes4"}],"outputs":[],"stateMutability":"nonpayable"},{"type":"function","name":"router","inputs":[],"outputs":[{"name":"","type":"address","internalType":"address"}],"stateMutability":"view"},{"type":"function","name":"sendMessage","inputs":[{"name":"_payload","type":"bytes","internalType":"bytes"},{"name":"_value","type":"uint128","internalType":"uint128"}],"outputs":[{"name":"","type":"bytes32","internalType":"bytes32"}],"stateMutability":"payable"},{"type":"function","name":"sendReply","inputs":[{"name":"_repliedTo","type":"bytes32","internalType":"bytes32"},{"name":"_payload","type":"bytes","internalType":"bytes"},{"name":"_value","type":"uint128","internalType":"uint128"}],"outputs":[],"stateMutability":"payable"},{"type":"function","name":"stateHash","inputs":[],"outputs":[{"name":"","type":"bytes32","internalType":"bytes32"}],"stateMutability":"view"},{"type":"function","name":"updateState","inputs":[{"name":"newStateHash","type":"bytes32","internalType":"bytes32"}],"outputs":[],"stateMutability":"nonpayable"},{"type":"function","name":"valueClaimed","inputs":[{"name":"claimedId","type":"bytes32","internalType":"bytes32"},{"name":"destination","type":"address","internalType":"address"},{"name":"value","type":"uint128","internalType":"uint128"}],"outputs":[],"stateMutability":"nonpayable"},{"type":"event","name":"ExecutableBalanceTopUpRequested","inputs":[{"name":"value","type":"uint128","indexed":false,"internalType":"uint128"}],"anonymous":false},{"type":"event","name":"Message","inputs":[{"name":"id","type":"bytes32","indexed":false,"internalType":"bytes32"},{"name":"destination","type":"address","indexed":true,"internalType":"address"},{"name":"payload","type":"bytes","indexed":false,"internalType":"bytes"},{"name":"value","type":"uint128","indexed":false,"internalType":"uint128"}],"anonymous":false},{"type":"event","name":"MessageQueueingRequested","inputs":[{"name":"id","type":"bytes32","indexed":false,"internalType":"bytes32"},{"name":"source","type":"address","indexed":true,"internalType":"address"},{"name":"payload","type":"bytes","indexed":false,"internalType":"bytes"},{"name":"value","type":"uint128","indexed":false,"internalType":"uint128"}],"anonymous":false},{"type":"event","name":"Reply","inputs":[{"name":"payload","type":"bytes","indexed":false,"internalType":"bytes"},{"name":"value","type":"uint128","indexed":false,"internalType":"uint128"},{"name":"replyTo","type":"bytes32","indexed":false,"internalType":"bytes32"},{"name":"replyCode","type":"bytes4","indexed":true,"internalType":"bytes4"}],"anonymous":false},{"type":"event","name":"ReplyQueueingRequested","inputs":[{"name":"repliedTo","type":"bytes32","indexed":false,"internalType":"bytes32"},{"name":"source","type":"address","indexed":true,"internalType":"address"},{"name":"payload","type":"bytes","indexed":false,"internalType":"bytes"},{"name":"value","type":"uint128","indexed":false,"internalType":"uint128"}],"anonymous":false},{"type":"event","name":"StateChanged","inputs":[{"name":"stateHash","type":"bytes32","indexed":false,"internalType":"bytes32"}],"anonymous":false},{"type":"event","name":"ValueClaimed","inputs":[{"name":"claimedId","type":"bytes32","indexed":false,"internalType":"bytes32"},{"name":"value","type":"uint128","indexed":false,"internalType":"uint128"}],"anonymous":false},{"type":"event","name":"ValueClaimingRequested","inputs":[{"name":"claimedId","type":"bytes32","indexed":false,"internalType":"bytes32"},{"name":"source","type":"address","indexed":true,"internalType":"address"}],"anonymous":false}],"bytecode":{"object":"0x6080604052600180553480156012575f80fd5b5061101e806100205f395ff3fe6080604052600436106100e4575f3560e01c8063a4ec730111610087578063d562422211610057578063d562422214610225578063dca4a37314610238578063de1dd2e014610257578063f887ea4014610276575f80fd5b8063a4ec7301146101b3578063affed0e0146101d2578063c2df6009146101e7578063c78bde7714610206575f80fd5b8063704ed542116100c2578063704ed542146101435780637c58af13146101565780638ea59e1d1461017557806391d5a64c14610194575f80fd5b806314503e51146100e857806329336f3914610109578063701da98e1461011c575b5f80fd5b3480156100f3575f80fd5b50610107610102366004610b6e565b6102a2565b005b610107610117366004610bf2565b610333565b348015610127575f80fd5b506101305f5481565b6040519081526020015b60405180910390f35b610107610151366004610c4d565b6103f8565b348015610161575f80fd5b50610107610170366004610c6f565b610441565b348015610180575f80fd5b5061010761018f366004610ca6565b610582565b34801561019f575f80fd5b506101076101ae366004610ca6565b6105f9565b3480156101be575f80fd5b506101076101cd366004610c4d565b610631565b3480156101dd575f80fd5b5061013060015481565b3480156101f2575f80fd5b50610107610201366004610cbd565b61076f565b348015610211575f80fd5b50610107610220366004610d2c565b6107e6565b610130610233366004610db8565b610878565b348015610243575f80fd5b50610107610252366004610c4d565b610994565b348015610262575f80fd5b50610107610271366004610e00565b6109dd565b348015610281575f80fd5b5061028a610ae0565b6040516001600160a01b03909116815260200161013a565b6102aa610ae0565b6001600160a01b0316336001600160a01b0316146102e35760405162461bcd60e51b81526004016102da90610e6a565b60405180910390fd5b6102ed8282610441565b604080518481526001600160801b03831660208201527fa217f2987a7942c2966f1fd16d39097862308325249e8b9fb4c00a430fd65783910160405180910390a1505050565b5f61033c610ae0565b6001600160a01b0316636ef25c3a6040518163ffffffff1660e01b8152600401602060405180830381865afa158015610377573d5f803e3d5ffd5b505050506040513d601f19601f8201168201806040525081019061039b9190610eb8565b90506103aa6101cd8383610ee7565b326001600160a01b03167fb64dad8a89028819d048f9c75ec4c516341da68972bb68a8e1262b5443c61e7f868686866040516103e99493929190610f34565b60405180910390a25050505050565b61040181610631565b6040516001600160801b03821681527f85ba4ebb0990fc588bfbb287e2e810a77c858e0a69485d6a938c52c054236667906020015b60405180910390a150565b5f61044a610ae0565b6001600160a01b03166388f50cf06040518163ffffffff1660e01b8152600401602060405180830381865afa158015610485573d5f803e3d5ffd5b505050506040513d601f19601f820116820180604052508101906104a99190610f67565b90506001600160801b0382161561057d5760405163a9059cbb60e01b81526001600160a01b0384811660048301526001600160801b03841660248301525f919083169063a9059cbb906044016020604051808303815f875af1158015610511573d5f803e3d5ffd5b505050506040513d601f19601f820116820180604052508101906105359190610f82565b90508061057b5760405162461bcd60e51b81526020600482015260146024820152736661696c656420746f2073656e6420575661726160601b60448201526064016102da565b505b505050565b61058a610ae0565b6001600160a01b0316336001600160a01b0316146105ba5760405162461bcd60e51b81526004016102da90610e6a565b805f54146105f6575f8190556040518181527f5c601f20d27885120b6fed87a4c313849b86eaddc9d28e7685e2e66a9c08093090602001610436565b50565b60405181815232907f0354817698da67944179457b89e15c1c57ca7b8cfd9d80eab1d09c258f6c49789060200160405180910390a250565b5f61063a610ae0565b90505f816001600160a01b03166388f50cf06040518163ffffffff1660e01b8152600401602060405180830381865afa158015610679573d5f803e3d5ffd5b505050506040513d601f19601f8201168201806040525081019061069d9190610f67565b6040516323b872dd60e01b81523260048201526001600160a01b0384811660248301526001600160801b03861660448301529192505f918316906323b872dd906064016020604051808303815f875af11580156106fc573d5f803e3d5ffd5b505050506040513d601f19601f820116820180604052508101906107209190610f82565b90508061057b5760405162461bcd60e51b815260206004820152601860248201527f6661696c656420746f207265747269657665205756617261000000000000000060448201526064016102da565b610777610ae0565b6001600160a01b0316336001600160a01b0316146107a75760405162461bcd60e51b81526004016102da90610e6a565b836001600160a01b03167f9c4ffe7286aed9eb205c8adb12b51219122c7e56c67017f312af0e15f8011773868585856040516103e99493929190610f34565b6107ee610ae0565b6001600160a01b0316336001600160a01b03161461081e5760405162461bcd60e51b81526004016102da90610e6a565b6108288684610441565b806001600160e01b0319167fe240a19e4a4ef8e5861c0eea48f9ab2cdb47bfe98347c94ccabb9c45f7d8d1c6868686866040516108689493929190610fa1565b60405180910390a2505050505050565b5f80610882610ae0565b6001600160a01b0316636ef25c3a6040518163ffffffff1660e01b8152600401602060405180830381865afa1580156108bd573d5f803e3d5ffd5b505050506040513d601f19601f820116820180604052508101906108e19190610eb8565b90506108f06101cd8483610ee7565b600180545f913091908361090383610fd0565b9091555060405160609290921b6bffffffffffffffffffffffff191660208301526034820152605401604051602081830303815290604052805190602001209050326001600160a01b03167f3527a119fe7f25d965cb7abc58139f031e8909b8592488c7926862d569e435c6828888886040516109839493929190610f34565b60405180910390a295945050505050565b61099c610ae0565b6001600160a01b0316336001600160a01b0316146109cc5760405162461bcd60e51b81526004016102da90610e6a565b6105f66109d7610ae0565b82610441565b6109e5610ae0565b6001600160a01b0316336001600160a01b031614610a155760405162461bcd60e51b81526004016102da90610e6a565b6040516bffffffffffffffffffffffff193060601b1660208201525f6034820181905290819060540160408051601f198184030181529082905280516020918201206001600160801b038616835292507f85ba4ebb0990fc588bfbb287e2e810a77c858e0a69485d6a938c52c054236667910160405180910390a1866001600160a01b03167f3527a119fe7f25d965cb7abc58139f031e8909b8592488c7926862d569e435c682888888604051610acf9493929190610f34565b60405180910390a250505050505050565b5f306001600160a01b031663f887ea406040518163ffffffff1660e01b8152600401602060405180830381865afa158015610b1d573d5f803e3d5ffd5b505050506040513d601f19601f82011682018060405250810190610b419190610f67565b905090565b6001600160a01b03811681146105f6575f80fd5b6001600160801b03811681146105f6575f80fd5b5f805f60608486031215610b80575f80fd5b833592506020840135610b9281610b46565b91506040840135610ba281610b5a565b809150509250925092565b5f8083601f840112610bbd575f80fd5b50813567ffffffffffffffff811115610bd4575f80fd5b602083019150836020828501011115610beb575f80fd5b9250929050565b5f805f8060608587031215610c05575f80fd5b84359350602085013567ffffffffffffffff811115610c22575f80fd5b610c2e87828801610bad565b9094509250506040850135610c4281610b5a565b939692955090935050565b5f60208284031215610c5d575f80fd5b8135610c6881610b5a565b9392505050565b5f8060408385031215610c80575f80fd5b8235610c8b81610b46565b91506020830135610c9b81610b5a565b809150509250929050565b5f60208284031215610cb6575f80fd5b5035919050565b5f805f805f60808688031215610cd1575f80fd5b853594506020860135610ce381610b46565b9350604086013567ffffffffffffffff811115610cfe575f80fd5b610d0a88828901610bad565b9094509250506060860135610d1e81610b5a565b809150509295509295909350565b5f805f805f8060a08789031215610d41575f80fd5b8635610d4c81610b46565b9550602087013567ffffffffffffffff811115610d67575f80fd5b610d7389828a01610bad565b9096509450506040870135610d8781610b5a565b92506060870135915060808701356001600160e01b031981168114610daa575f80fd5b809150509295509295509295565b5f805f60408486031215610dca575f80fd5b833567ffffffffffffffff811115610de0575f80fd5b610dec86828701610bad565b9094509250506020840135610ba281610b5a565b5f805f805f60808688031215610e14575f80fd5b8535610e1f81610b46565b9450602086013567ffffffffffffffff811115610e3a575f80fd5b610e4688828901610bad565b9095509350506040860135610e5a81610b5a565b91506060860135610d1e81610b5a565b6020808252602e908201527f6f6e6c7920726f7574657220636f6e747261637420697320656c696769626c6560408201526d103337b91037b832b930ba34b7b760911b606082015260800190565b5f60208284031215610ec8575f80fd5b8151610c6881610b5a565b634e487b7160e01b5f52601160045260245ffd5b6001600160801b038181168382160190811115610f0657610f06610ed3565b92915050565b81835281816020850137505f828201602090810191909152601f909101601f19169091010190565b848152606060208201525f610f4d606083018587610f0c565b90506001600160801b038316604083015295945050505050565b5f60208284031215610f77575f80fd5b8151610c6881610b46565b5f60208284031215610f92575f80fd5b81518015158114610c68575f80fd5b606081525f610fb4606083018688610f0c565b6001600160801b03949094166020830152506040015292915050565b5f60018201610fe157610fe1610ed3565b506001019056fea2646970667358221220f7c48b1d37358246b9180e5dc7b30bf6325c07f6c0da25d1e145c01a95209dbd64736f6c634300081a0033","linkReferences":{}},"methodIdentifiers":{"_retrieveValueToRouter(uint128)":"a4ec7301","_sendValueTo(address,uint128)":"7c58af13","claimValue(bytes32)":"91d5a64c","executableBalanceBurned(uint128)":"dca4a373","executableBalanceTopUp(uint128)":"704ed542","initMessage(address,bytes,uint128,uint128)":"de1dd2e0","messageSent(bytes32,address,bytes,uint128)":"c2df6009","nonce()":"affed0e0","replySent(address,bytes,uint128,bytes32,bytes4)":"c78bde77","router()":"f887ea40","sendMessage(bytes,uint128)":"d5624222","sendReply(bytes32,bytes,uint128)":"29336f39","stateHash()":"701da98e","updateState(bytes32)":"8ea59e1d","valueClaimed(bytes32,address,uint128)":"14503e51"},"storageLayout":{"storage":[{"astId":53762,"contract":"src/Mirror.sol:Mirror","label":"stateHash","offset":0,"slot":"0","type":"t_bytes32"},{"astId":53765,"contract":"src/Mirror.sol:Mirror","label":"nonce","offset":0,"slot":"1","type":"t_uint256"}],"types":{"t_bytes32":{"encoding":"inplace","label":"bytes32","numberOfBytes":"32"},"t_uint256":{"encoding":"inplace","label":"uint256","numberOfBytes":"32"}}},"id":76}