{"abi":[{"type":"function","name":"claimValue","inputs":[{"name":"_claimedId","type":"bytes32","internalType":"bytes32"}],"outputs":[],"stateMutability":"nonpayable"},{"type":"function","name":"executableBalanceBurned","inputs":[{"name":"value","type":"uint128","internalType":"uint128"}],"outputs":[],"stateMutability":"nonpayable"},{"type":"function","name":"executableBalanceTopUp","inputs":[{"name":"_value","type":"uint128","internalType":"uint128"}],"outputs":[],"stateMutability":"payable"},{"type":"function","name":"initMessage","inputs":[{"name":"source","type":"address","internalType":"address"},{"name":"payload","type":"bytes","internalType":"bytes"},{"name":"value","type":"uint128","internalType":"uint128"},{"name":"executableBalance","type":"uint128","internalType":"uint128"}],"outputs":[],"stateMutability":"nonpayable"},{"type":"function","name":"messageSent","inputs":[{"name":"id","type":"bytes32","internalType":"bytes32"},{"name":"destination","type":"address","internalType":"address"},{"name":"payload","type":"bytes","internalType":"bytes"},{"name":"value","type":"uint128","internalType":"uint128"}],"outputs":[],"stateMutability":"nonpayable"},{"type":"function","name":"nonce","inputs":[],"outputs":[{"name":"","type":"uint256","internalType":"uint256"}],"stateMutability":"view"},{"type":"function","name":"replySent","inputs":[{"name":"destination","type":"address","internalType":"address"},{"name":"payload","type":"bytes","internalType":"bytes"},{"name":"value","type":"uint128","internalType":"uint128"},{"name":"replyTo","type":"bytes32","internalType":"bytes32"},{"name":"replyCode","type":"bytes4","internalType":"bytes4"}],"outputs":[],"stateMutability":"nonpayable"},{"type":"function","name":"router","inputs":[],"outputs":[{"name":"","type":"address","internalType":"address"}],"stateMutability":"view"},{"type":"function","name":"sendMessage","inputs":[{"name":"_payload","type":"bytes","internalType":"bytes"},{"name":"_value","type":"uint128","internalType":"uint128"}],"outputs":[{"name":"","type":"bytes32","internalType":"bytes32"}],"stateMutability":"payable"},{"type":"function","name":"sendReply","inputs":[{"name":"_repliedTo","type":"bytes32","internalType":"bytes32"},{"name":"_payload","type":"bytes","internalType":"bytes"},{"name":"_value","type":"uint128","internalType":"uint128"}],"outputs":[],"stateMutability":"payable"},{"type":"function","name":"stateHash","inputs":[],"outputs":[{"name":"","type":"bytes32","internalType":"bytes32"}],"stateMutability":"view"},{"type":"function","name":"updateState","inputs":[{"name":"newStateHash","type":"bytes32","internalType":"bytes32"}],"outputs":[],"stateMutability":"nonpayable"},{"type":"function","name":"valueClaimed","inputs":[{"name":"claimedId","type":"bytes32","internalType":"bytes32"},{"name":"destination","type":"address","internalType":"address"},{"name":"value","type":"uint128","internalType":"uint128"}],"outputs":[],"stateMutability":"nonpayable"},{"type":"event","name":"ExecutableBalanceTopUpRequested","inputs":[{"name":"value","type":"uint128","indexed":false,"internalType":"uint128"}],"anonymous":false},{"type":"event","name":"Message","inputs":[{"name":"id","type":"bytes32","indexed":false,"internalType":"bytes32"},{"name":"destination","type":"address","indexed":true,"internalType":"address"},{"name":"payload","type":"bytes","indexed":false,"internalType":"bytes"},{"name":"value","type":"uint128","indexed":false,"internalType":"uint128"}],"anonymous":false},{"type":"event","name":"MessageQueueingRequested","inputs":[{"name":"id","type":"bytes32","indexed":false,"internalType":"bytes32"},{"name":"source","type":"address","indexed":true,"internalType":"address"},{"name":"payload","type":"bytes","indexed":false,"internalType":"bytes"},{"name":"value","type":"uint128","indexed":false,"internalType":"uint128"}],"anonymous":false},{"type":"event","name":"Reply","inputs":[{"name":"payload","type":"bytes","indexed":false,"internalType":"bytes"},{"name":"value","type":"uint128","indexed":false,"internalType":"uint128"},{"name":"replyTo","type":"bytes32","indexed":false,"internalType":"bytes32"},{"name":"replyCode","type":"bytes4","indexed":true,"internalType":"bytes4"}],"anonymous":false},{"type":"event","name":"ReplyQueueingRequested","inputs":[{"name":"repliedTo","type":"bytes32","indexed":false,"internalType":"bytes32"},{"name":"source","type":"address","indexed":true,"internalType":"address"},{"name":"payload","type":"bytes","indexed":false,"internalType":"bytes"},{"name":"value","type":"uint128","indexed":false,"internalType":"uint128"}],"anonymous":false},{"type":"event","name":"StateChanged","inputs":[{"name":"stateHash","type":"bytes32","indexed":false,"internalType":"bytes32"}],"anonymous":false},{"type":"event","name":"ValueClaimed","inputs":[{"name":"claimedId","type":"bytes32","indexed":false,"internalType":"bytes32"},{"name":"value","type":"uint128","indexed":false,"internalType":"uint128"}],"anonymous":false},{"type":"event","name":"ValueClaimingRequested","inputs":[{"name":"claimedId","type":"bytes32","indexed":false,"internalType":"bytes32"},{"name":"source","type":"address","indexed":true,"internalType":"address"}],"anonymous":false}],"bytecode":{"object":"0x60808060405234601557610c2f908161001a8239f35b5f80fdfe60806040526004361015610011575f80fd5b5f3560e01c806314503e51146106df57806329336f3914610610578063701da98e146105f4578063704ed542146105a25780638ea59e1d1461054157806391d5a64c14610500578063affed0e0146104e3578063c2df60091461044d578063c78bde7714610386578063d56242221461023f578063dca4a37314610201578063de1dd2e0146100d85763f887ea40146100a8575f80fd5b346100d4575f3660031901126100d45760206100c2610958565b6040516001600160a01b039091168152f35b5f80fd5b346100d45760803660031901126100d4576100f161076b565b60243567ffffffffffffffff81116100d4576101327f3527a119fe7f25d965cb7abc58139f031e8909b8592488c7926862d569e435c69136906004016107c3565b926101fc61013e610781565b6101466107ad565b956101626001600160a01b0361015a610958565b1633146107f1565b7f85ba4ebb0990fc588bfbb287e2e810a77c858e0a69485d6a938c52c05423666760206001546101918161092b565b6001556040513060601b6bffffffffffffffffffffffff191683820190815260148101929092526101cf81603484015b03601f198101835282610854565b519020986001600160801b0360405191168152a16040516001600160a01b039094169693948594856108fd565b0390a2005b346100d45760203660031901126100d45761023d61021d610797565b6102306001600160a01b0361015a610958565b610238610958565b6109c3565b005b60403660031901126100d45760043567ffffffffffffffff81116100d45761026b9036906004016107c3565b602435916001600160801b03831683036100d45760049260206001600160a01b03610294610958565b16604051958680926337792e1d60e11b82525afa90811561037b576102ed6102e8827f3527a119fe7f25d965cb7abc58139f031e8909b8592488c7926862d569e435c6946020985f9161034e575b506108a9565b610aee565b6001546102f98161092b565b6001556040513060601b6bffffffffffffffffffffffff1916878201908152601481019290925261032d81603484016101c1565b51902093610343604051928392329688856108fd565b0390a2604051908152f35b61036e9150893d8b11610374575b6103668183610854565b81019061088a565b896102e2565b503d61035c565b6040513d5f823e3d90fd5b346100d45760a03660031901126100d45761039f61076b565b60243567ffffffffffffffff81116100d4576103bf9036906004016107c3565b91906103c9610781565b926084359363ffffffff60e01b85168095036100d4577fe240a19e4a4ef8e5861c0eea48f9ab2cdb47bfe98347c94ccabb9c45f7d8d1c69361041a9082906102386001600160a01b0361015a610958565b6001600160801b036104396040519485946060865260608601916108dd565b9116602083015260643560408301520390a2005b346100d45760803660031901126100d457610466610755565b60443567ffffffffffffffff81116100d4576104a77f9c4ffe7286aed9eb205c8adb12b51219122c7e56c67017f312af0e15f80117739136906004016107c3565b90926101fc6104b46107ad565b6104c76001600160a01b0361015a610958565b6040516001600160a01b039093169592938493600435856108fd565b346100d4575f3660031901126100d4576020600154604051908152f35b346100d45760203660031901126100d45760405160043581527f0354817698da67944179457b89e15c1c57ca7b8cfd9d80eab1d09c258f6c497860203292a2005b346100d45760203660031901126100d4576004356105686001600160a01b0361015a610958565b805f540361057257005b6020817f5c601f20d27885120b6fed87a4c313849b86eaddc9d28e7685e2e66a9c080930925f55604051908152a1005b60203660031901126100d4577f85ba4ebb0990fc588bfbb287e2e810a77c858e0a69485d6a938c52c05423666760206105d9610797565b6105e281610aee565b6001600160801b0360405191168152a1005b346100d4575f3660031901126100d45760205f54604051908152f35b60603660031901126100d45760243567ffffffffffffffff81116100d45761063d600491369083016107c3565b610648929192610781565b9060206001600160a01b0361065b610958565b16604051948580926337792e1d60e11b82525afa92831561037b576102e8837fb64dad8a89028819d048f9c75ec4c516341da68972bb68a8e1262b5443c61e7f956106ac935f916106c057506108a9565b6101fc6040519283923296600435856108fd565b6106d9915060203d602011610374576103668183610854565b886102e2565b346100d45760603660031901126100d4577fa217f2987a7942c2966f1fd16d39097862308325249e8b9fb4c00a430fd65783604061071b610755565b61073c610726610781565b9182906102386001600160a01b0361015a610958565b6001600160801b038251916004358352166020820152a1005b602435906001600160a01b03821682036100d457565b600435906001600160a01b03821682036100d457565b604435906001600160801b03821682036100d457565b600435906001600160801b03821682036100d457565b606435906001600160801b03821682036100d457565b9181601f840112156100d45782359167ffffffffffffffff83116100d457602083818601950101116100d457565b156107f857565b60405162461bcd60e51b815260206004820152602e60248201527f6f6e6c7920726f7574657220636f6e747261637420697320656c696769626c6560448201526d103337b91037b832b930ba34b7b760911b6064820152608490fd5b90601f8019910116810190811067ffffffffffffffff82111761087657604052565b634e487b7160e01b5f52604160045260245ffd5b908160209103126100d457516001600160801b03811681036100d45790565b906001600160801b03809116911601906001600160801b0382116108c957565b634e487b7160e01b5f52601160045260245ffd5b908060209392818452848401375f828201840152601f01601f1916010190565b92604092610924916001600160801b039397969786526060602087015260608601916108dd565b9416910152565b5f1981146108c95760010190565b908160209103126100d457516001600160a01b03811681036100d45790565b6040516303e21fa960e61b8152602081600481305afa90811561037b575f9161097f575090565b6109a1915060203d6020116109a4575b6109998183610854565b810190610939565b90565b503d61098f565b908160209103126100d4575180151581036100d45790565b60049160206001600160a01b036109d8610958565b166040519485809263088f50cf60e41b82525afa92831561037b575f93610ac4575b506001600160801b031680610a0e57505050565b60405163a9059cbb60e01b81526001600160a01b039283166004820152602481019190915291602091839160449183915f91165af190811561037b575f91610a95575b5015610a5957565b60405162461bcd60e51b81526020600482015260146024820152736661696c656420746f2073656e6420575661726160601b6044820152606490fd5b610ab7915060203d602011610abd575b610aaf8183610854565b8101906109ab565b5f610a51565b503d610aa5565b6001600160801b03919350610ae79060203d6020116109a4576109998183610854565b92906109fa565b6001600160a01b03610afe610958565b60405163088f50cf60e41b8152911691602082600481865afa801561037b576001600160801b03935f6064926020958291610bdc575b5060405196879586946323b872dd60e01b8652326004870152602486015216604484015260018060a01b03165af190811561037b575f91610bbd575b5015610b7857565b60405162461bcd60e51b815260206004820152601860248201527f6661696c656420746f20726574726965766520575661726100000000000000006044820152606490fd5b610bd6915060203d602011610abd57610aaf8183610854565b5f610b70565b610bf39150863d88116109a4576109998183610854565b5f610b3456fea2646970667358221220068a46b87e539288ce60019b9091c4d5423d905301f7d59bfe482cb2aafe3dad64736f6c634300081a0033","linkReferences":{}},"methodIdentifiers":{"claimValue(bytes32)":"91d5a64c","executableBalanceBurned(uint128)":"dca4a373","executableBalanceTopUp(uint128)":"704ed542","initMessage(address,bytes,uint128,uint128)":"de1dd2e0","messageSent(bytes32,address,bytes,uint128)":"c2df6009","nonce()":"affed0e0","replySent(address,bytes,uint128,bytes32,bytes4)":"c78bde77","router()":"f887ea40","sendMessage(bytes,uint128)":"d5624222","sendReply(bytes32,bytes,uint128)":"29336f39","stateHash()":"701da98e","updateState(bytes32)":"8ea59e1d","valueClaimed(bytes32,address,uint128)":"14503e51"},"storageLayout":{"storage":[{"astId":53976,"contract":"src/Mirror.sol:Mirror","label":"stateHash","offset":0,"slot":"0","type":"t_bytes32"},{"astId":53978,"contract":"src/Mirror.sol:Mirror","label":"nonce","offset":0,"slot":"1","type":"t_uint256"}],"types":{"t_bytes32":{"encoding":"inplace","label":"bytes32","numberOfBytes":"32"},"t_uint256":{"encoding":"inplace","label":"uint256","numberOfBytes":"32"}}},"id":79}