{"abi":[{"type":"function","name":"claimValue","inputs":[{"name":"_claimedId","type":"bytes32","internalType":"bytes32"}],"outputs":[],"stateMutability":"nonpayable"},{"type":"function","name":"createDecoder","inputs":[{"name":"implementation","type":"address","internalType":"address"},{"name":"salt","type":"bytes32","internalType":"bytes32"}],"outputs":[],"stateMutability":"nonpayable"},{"type":"function","name":"decoder","inputs":[],"outputs":[{"name":"","type":"address","internalType":"address"}],"stateMutability":"view"},{"type":"function","name":"executableBalanceTopUp","inputs":[{"name":"_value","type":"uint128","internalType":"uint128"}],"outputs":[],"stateMutability":"payable"},{"type":"function","name":"inheritor","inputs":[],"outputs":[{"name":"","type":"address","internalType":"address"}],"stateMutability":"view"},{"type":"function","name":"initMessage","inputs":[{"name":"source","type":"address","internalType":"address"},{"name":"payload","type":"bytes","internalType":"bytes"},{"name":"value","type":"uint128","internalType":"uint128"},{"name":"executableBalance","type":"uint128","internalType":"uint128"}],"outputs":[],"stateMutability":"nonpayable"},{"type":"function","name":"messageSent","inputs":[{"name":"id","type":"bytes32","internalType":"bytes32"},{"name":"destination","type":"address","internalType":"address"},{"name":"payload","type":"bytes","internalType":"bytes"},{"name":"value","type":"uint128","internalType":"uint128"}],"outputs":[],"stateMutability":"nonpayable"},{"type":"function","name":"nonce","inputs":[],"outputs":[{"name":"","type":"uint256","internalType":"uint256"}],"stateMutability":"view"},{"type":"function","name":"replySent","inputs":[{"name":"destination","type":"address","internalType":"address"},{"name":"payload","type":"bytes","internalType":"bytes"},{"name":"value","type":"uint128","internalType":"uint128"},{"name":"replyTo","type":"bytes32","internalType":"bytes32"},{"name":"replyCode","type":"bytes4","internalType":"bytes4"}],"outputs":[],"stateMutability":"nonpayable"},{"type":"function","name":"router","inputs":[],"outputs":[{"name":"","type":"address","internalType":"address"}],"stateMutability":"view"},{"type":"function","name":"sendMessage","inputs":[{"name":"_payload","type":"bytes","internalType":"bytes"},{"name":"_value","type":"uint128","internalType":"uint128"}],"outputs":[{"name":"","type":"bytes32","internalType":"bytes32"}],"stateMutability":"payable"},{"type":"function","name":"sendReply","inputs":[{"name":"_repliedTo","type":"bytes32","internalType":"bytes32"},{"name":"_payload","type":"bytes","internalType":"bytes"},{"name":"_value","type":"uint128","internalType":"uint128"}],"outputs":[],"stateMutability":"payable"},{"type":"function","name":"sendValueToInheritor","inputs":[],"outputs":[],"stateMutability":"nonpayable"},{"type":"function","name":"setInheritor","inputs":[{"name":"_inheritor","type":"address","internalType":"address"}],"outputs":[],"stateMutability":"nonpayable"},{"type":"function","name":"stateHash","inputs":[],"outputs":[{"name":"","type":"bytes32","internalType":"bytes32"}],"stateMutability":"view"},{"type":"function","name":"updateState","inputs":[{"name":"newStateHash","type":"bytes32","internalType":"bytes32"}],"outputs":[],"stateMutability":"nonpayable"},{"type":"function","name":"valueClaimed","inputs":[{"name":"claimedId","type":"bytes32","internalType":"bytes32"},{"name":"destination","type":"address","internalType":"address"},{"name":"value","type":"uint128","internalType":"uint128"}],"outputs":[],"stateMutability":"nonpayable"},{"type":"event","name":"ExecutableBalanceTopUpRequested","inputs":[{"name":"value","type":"uint128","indexed":false,"internalType":"uint128"}],"anonymous":false},{"type":"event","name":"Message","inputs":[{"name":"id","type":"bytes32","indexed":false,"internalType":"bytes32"},{"name":"destination","type":"address","indexed":true,"internalType":"address"},{"name":"payload","type":"bytes","indexed":false,"internalType":"bytes"},{"name":"value","type":"uint128","indexed":false,"internalType":"uint128"}],"anonymous":false},{"type":"event","name":"MessageQueueingRequested","inputs":[{"name":"id","type":"bytes32","indexed":false,"internalType":"bytes32"},{"name":"source","type":"address","indexed":true,"internalType":"address"},{"name":"payload","type":"bytes","indexed":false,"internalType":"bytes"},{"name":"value","type":"uint128","indexed":false,"internalType":"uint128"}],"anonymous":false},{"type":"event","name":"Reply","inputs":[{"name":"payload","type":"bytes","indexed":false,"internalType":"bytes"},{"name":"value","type":"uint128","indexed":false,"internalType":"uint128"},{"name":"replyTo","type":"bytes32","indexed":false,"internalType":"bytes32"},{"name":"replyCode","type":"bytes4","indexed":true,"internalType":"bytes4"}],"anonymous":false},{"type":"event","name":"ReplyQueueingRequested","inputs":[{"name":"repliedTo","type":"bytes32","indexed":false,"internalType":"bytes32"},{"name":"source","type":"address","indexed":true,"internalType":"address"},{"name":"payload","type":"bytes","indexed":false,"internalType":"bytes"},{"name":"value","type":"uint128","indexed":false,"internalType":"uint128"}],"anonymous":false},{"type":"event","name":"StateChanged","inputs":[{"name":"stateHash","type":"bytes32","indexed":false,"internalType":"bytes32"}],"anonymous":false},{"type":"event","name":"ValueClaimed","inputs":[{"name":"claimedId","type":"bytes32","indexed":false,"internalType":"bytes32"},{"name":"value","type":"uint128","indexed":false,"internalType":"uint128"}],"anonymous":false},{"type":"event","name":"ValueClaimingRequested","inputs":[{"name":"claimedId","type":"bytes32","indexed":false,"internalType":"bytes32"},{"name":"source","type":"address","indexed":true,"internalType":"address"}],"anonymous":false},{"type":"error","name":"FailedDeployment","inputs":[]},{"type":"error","name":"InsufficientBalance","inputs":[{"name":"balance","type":"uint256","internalType":"uint256"},{"name":"needed","type":"uint256","internalType":"uint256"}]}],"bytecode":{"object":"0x608080604052346015576112dc908161001a8239f35b5f80fdfe60806040526004361015610011575f80fd5b5f803560e01c806312b22256146109f357806314503e511461097857806329336f391461087c57806336a52a18146108545780635b1b84f7146106a357806360302d241461068a578063701da98e1461066d578063704ed542146106055780638ea59e1d146105a057806391d5a64c146105385780639cb330051461050f578063affed0e0146104f1578063c2df60091461048e578063c78bde771461040e578063d562422214610298578063de1dd2e0146101045763f887ea40146100d5575f80fd5b3461010157806003193601126101015760206100ef610fe6565b6040516001600160a01b039091168152f35b80fd5b50346101015760803660031901126101015761011e610a47565b60243567ffffffffffffffff81116102945761013e903690600401610a9f565b90610147610a73565b92610150610a89565b9361016c6001600160a01b03610164610fe6565b163314610acd565b6002549081610238577f3527a119fe7f25d965cb7abc58139f031e8909b8592488c7926862d569e435c6947f85ba4ebb0990fc588bfbb287e2e810a77c858e0a69485d6a938c52c0542366676020846101c761023296610fd8565b6002556040513060601b6bffffffffffffffffffffffff1916838201908152601481019290925261020581603484015b03601f198101835282610b74565b519020986001600160801b0360405191168152a16040516001600160a01b03909416969394859485610c1d565b0390a280f35b60405162461bcd60e51b815260206004820152602e60248201527f696e6974206d657373616765206d75737420626520637265617465642062656660448201526d6f726520616e79206f746865727360901b6064820152608490fd5b8280fd5b5060403660031901126101015760043567ffffffffffffffff811161040a576102c5903690600401610a9f565b602435906001600160801b0382168203610406576001546102ef906001600160a01b031615610b30565b600460206001600160a01b03610303610fe6565b16604051928380926337792e1d60e11b82525afa9081156103fb57610358847f3527a119fe7f25d965cb7abc58139f031e8909b8592488c7926862d569e435c6949361035d93602099916103ce575b50610bc9565b61116c565b60025461036981610fd8565b6002556040513060601b6bffffffffffffffffffffffff1916878201908152601481019290925261039d81603484016101f7565b519020936103c36001600160a01b036103b461128a565b16946040519384938885610c1d565b0390a2604051908152f35b6103ee9150893d8b116103f4575b6103e68183610b74565b810190610baa565b5f610352565b503d6103dc565b6040513d87823e3d90fd5b8380fd5b5080fd5b50346101015760a036600319011261010157610428610a47565b60243567ffffffffffffffff811161029457610448903690600401610a9f565b9091610452610a73565b608435926001600160e01b03198416840361048a576104879461047e6001600160a01b03610164610fe6565b60643593610ec5565b80f35b8580fd5b5034610101576080366003190112610101576104a8610a5d565b6044359067ffffffffffffffff8211610294576104cc610487923690600401610a9f565b906104d5610a89565b926104e96001600160a01b03610164610fe6565b600435610ded565b50346101015780600319360112610101576020600254604051908152f35b50346101015780600319360112610101576003546040516001600160a01b039091168152602090f35b503461010157602036600319011261010157600154610560906001600160a01b031615610b30565b6001600160a01b0361057061128a565b167f0354817698da67944179457b89e15c1c57ca7b8cfd9d80eab1d09c258f6c497860206040516004358152a280f35b5034610101576020366003190112610101576004356105c86001600160a01b03610164610fe6565b808254036105d4575080f35b6020817f5c601f20d27885120b6fed87a4c313849b86eaddc9d28e7685e2e66a9c080930928455604051908152a180f35b506020366003190112610101576004356001600160801b03811690818103610294577f85ba4ebb0990fc588bfbb287e2e810a77c858e0a69485d6a938c52c0542366679161066360209261035860018060a01b036001541615610b30565b604051908152a180f35b503461010157806003193601126101015760209054604051908152f35b5034610101578060031936011261010157610487610c6a565b5034610792576040366003190112610792576106bd610a47565b6106d06001600160a01b03610164610fe6565b6002546107f5576003546001600160a01b03166107a55780763d602d80600a3d3981f3363d3d373d3d3d363d7300000062ffffff6e5af43d82803e903d91602b57fd5bf39360881c16175f5260781b1760205260018060a01b03602435603760095ff516801561079657600380546001600160a01b03191682179055803b15610792575f809160046040518094819363204a7f0760e21b83525af1801561078757610779575080f35b61078591505f90610b74565b005b6040513d5f823e3d90fd5b5f80fd5b63b06ebf3d60e01b5f5260045ffd5b60405162461bcd60e51b815260206004820152602260248201527f6465636f64657220636f756c64206f6e6c792062652063726561746564206f6e604482015261636560f01b6064820152608490fd5b60405162461bcd60e51b815260206004820152603160248201527f6465636f64657220636f756c64206f6e6c792062652063726561746564206265604482015270666f726520696e6974206d65737361676560781b6064820152608490fd5b34610792575f366003190112610792576001546040516001600160a01b039091168152602090f35b60603660031901126107925760243567ffffffffffffffff8111610792576108a960049136908301610a9f565b6108b4929192610a73565b6001549093906108cd906001600160a01b031615610b30565b60206001600160a01b036108df610fe6565b16604051948580926337792e1d60e11b82525afa92831561078757610358857fb64dad8a89028819d048f9c75ec4c516341da68972bb68a8e1262b5443c61e7f95610930935f916109595750610bc9565b6109546001600160a01b0361094361128a565b169460405193849360043585610c1d565b0390a2005b610972915060203d6020116103f4576103e68183610b74565b88610352565b34610792576060366003190112610792577fa217f2987a7942c2966f1fd16d39097862308325249e8b9fb4c00a430fd6578360406109b4610a5d565b6109da6109bf610a73565b9182906109d56001600160a01b03610164610fe6565b611041565b6001600160801b038251916004358352166020820152a1005b3461079257602036600319011261079257610a0c610a47565b610a1f6001600160a01b03610164610fe6565b60018060a01b03166bffffffffffffffffffffffff60a01b6001541617600155610785610c6a565b600435906001600160a01b038216820361079257565b602435906001600160a01b038216820361079257565b604435906001600160801b038216820361079257565b606435906001600160801b038216820361079257565b9181601f840112156107925782359167ffffffffffffffff8311610792576020838186019501011161079257565b15610ad457565b60405162461bcd60e51b815260206004820152602e60248201527f6f6e6c7920726f7574657220636f6e747261637420697320656c696769626c6560448201526d103337b91037b832b930ba34b7b760911b6064820152608490fd5b15610b3757565b60405162461bcd60e51b81526020600482015260156024820152741c1c9bd9dc985b481a5cc81d195c9b5a5b985d1959605a1b6044820152606490fd5b90601f8019910116810190811067ffffffffffffffff821117610b9657604052565b634e487b7160e01b5f52604160045260245ffd5b9081602091031261079257516001600160801b03811681036107925790565b906001600160801b03809116911601906001600160801b038211610be957565b634e487b7160e01b5f52601160045260245ffd5b908060209392818452848401375f828201840152601f01601f1916010190565b92604092610c44916001600160801b03939796978652606060208701526060860191610bfd565b9416910152565b9081602091031261079257516001600160a01b03811681036107925790565b6001546001600160a01b03168015610d695760049060206001600160a01b03610c91610fe6565b166040519384809263088f50cf60e41b82525afa918215610787576024926020915f91610d3c575b506040516370a0823160e01b815230600482015293849182906001600160a01b03165afa918215610787575f92610d01575b506001600160801b03610cff921690611041565b565b91506020823d602011610d34575b81610d1c60209383610b74565b81010312610792579051906001600160801b03610ceb565b3d9150610d0f565b610d5c9150823d8411610d62575b610d548183610b74565b810190610c4b565b5f610cb9565b503d610d4a565b60405162461bcd60e51b815260206004820152601960248201527f70726f6772616d206973206e6f74207465726d696e61746564000000000000006044820152606490fd5b3d15610de8573d9067ffffffffffffffff8211610b965760405191610ddd601f8201601f191660200184610b74565b82523d5f602084013e565b606090565b600354909493906001600160a01b031680610e44575b507f9c4ffe7286aed9eb205c8adb12b51219122c7e56c67017f312af0e15f801177393610e3f9160405194859460018060a01b03169785610c1d565b0390a2565b5f80916040518260208201916374fad4ef60e01b83528a602482015260018060a01b038816604482015260806064820152610ea481610e8760a482018a8d610bfd565b6001600160801b038d16608483015203601f198101835282610b74565b51926207a120f1610eb3610dae565b50610ebe575f610e03565b5050505050565b94909294610ed38682611041565b6003546001600160a01b03169081610f45575b50507fe240a19e4a4ef8e5861c0eea48f9ab2cdb47bfe98347c94ccabb9c45f7d8d1c6936001600160801b03610f29604051958695606087526060870191610bfd565b9616602084015260408301526001600160e01b031916930390a2565b604051639649744960e01b602082019081526001600160a01b03909216602482015260a060448201525f92839290918390610fbd818c6001600160801b03610f9160c484018d8f610bfd565b91166064830152608482018d90526001600160e01b03198a1660a483015203601f198101835282610b74565b51926207a120f1610fcc610dae565b50610ebe575f80610ee6565b5f198114610be95760010190565b6040516303e21fa960e61b8152602081600481305afa908115610787575f9161100d575090565b611026915060203d602011610d6257610d548183610b74565b90565b90816020910312610792575180151581036107925790565b60049160206001600160a01b03611056610fe6565b166040519485809263088f50cf60e41b82525afa928315610787575f93611142575b506001600160801b03168061108c57505050565b60405163a9059cbb60e01b81526001600160a01b039283166004820152602481019190915291602091839160449183915f91165af1908115610787575f91611113575b50156110d757565b60405162461bcd60e51b81526020600482015260146024820152736661696c656420746f2073656e6420575661726160601b6044820152606490fd5b611135915060203d60201161113b575b61112d8183610b74565b810190611029565b5f6110cf565b503d611123565b6001600160801b039193506111659060203d602011610d6257610d548183610b74565b9290611078565b6001600160a01b0361117c610fe6565b60405163088f50cf60e41b81529116602082600481845afa918215610787576020926064915f9161126d575b505f6111b261128a565b6040516323b872dd60e01b81526001600160a01b03918216600482015260248101959095526001600160801b039690961660448501529294859384929091165af1908115610787575f9161124e575b501561120957565b60405162461bcd60e51b815260206004820152601860248201527f6661696c656420746f20726574726965766520575661726100000000000000006044820152606490fd5b611267915060203d60201161113b5761112d8183610b74565b5f611201565b6112849150843d8611610d6257610d548183610b74565b5f6111a8565b600354336001600160a01b03909116036112a2573290565b339056fea264697066735822122053014fd347f0badd5a640fea8157059cb031141fb96d1162746883ff7e93eb8e64736f6c634300081a0033","linkReferences":{}},"methodIdentifiers":{"claimValue(bytes32)":"91d5a64c","createDecoder(address,bytes32)":"5b1b84f7","decoder()":"9cb33005","executableBalanceTopUp(uint128)":"704ed542","inheritor()":"36a52a18","initMessage(address,bytes,uint128,uint128)":"de1dd2e0","messageSent(bytes32,address,bytes,uint128)":"c2df6009","nonce()":"affed0e0","replySent(address,bytes,uint128,bytes32,bytes4)":"c78bde77","router()":"f887ea40","sendMessage(bytes,uint128)":"d5624222","sendReply(bytes32,bytes,uint128)":"29336f39","sendValueToInheritor()":"60302d24","setInheritor(address)":"12b22256","stateHash()":"701da98e","updateState(bytes32)":"8ea59e1d","valueClaimed(bytes32,address,uint128)":"14503e51"},"storageLayout":{"storage":[{"astId":74522,"contract":"src/Mirror.sol:Mirror","label":"stateHash","offset":0,"slot":"0","type":"t_bytes32"},{"astId":74524,"contract":"src/Mirror.sol:Mirror","label":"inheritor","offset":0,"slot":"1","type":"t_address"},{"astId":74526,"contract":"src/Mirror.sol:Mirror","label":"nonce","offset":0,"slot":"2","type":"t_uint256"},{"astId":74528,"contract":"src/Mirror.sol:Mirror","label":"decoder","offset":0,"slot":"3","type":"t_address"}],"types":{"t_address":{"encoding":"inplace","label":"address","numberOfBytes":"20"},"t_bytes32":{"encoding":"inplace","label":"bytes32","numberOfBytes":"32"},"t_uint256":{"encoding":"inplace","label":"uint256","numberOfBytes":"32"}}},"id":157}