{"abi":[{"type":"constructor","inputs":[],"stateMutability":"nonpayable"},{"type":"receive","stateMutability":"payable"},{"type":"function","name":"areValidators","inputs":[{"name":"_validators","type":"address[]","internalType":"address[]"}],"outputs":[{"name":"","type":"bool","internalType":"bool"}],"stateMutability":"view"},{"type":"function","name":"codeState","inputs":[{"name":"_codeId","type":"bytes32","internalType":"bytes32"}],"outputs":[{"name":"","type":"uint8","internalType":"enum Gear.CodeState"}],"stateMutability":"view"},{"type":"function","name":"codesStates","inputs":[{"name":"_codesIds","type":"bytes32[]","internalType":"bytes32[]"}],"outputs":[{"name":"","type":"uint8[]","internalType":"enum Gear.CodeState[]"}],"stateMutability":"view"},{"type":"function","name":"commitBatch","inputs":[{"name":"_batch","type":"tuple","internalType":"struct Gear.BatchCommitment","components":[{"name":"blockHash","type":"bytes32","internalType":"bytes32"},{"name":"blockTimestamp","type":"uint48","internalType":"uint48"},{"name":"previousCommittedBatchHash","type":"bytes32","internalType":"bytes32"},{"name":"chainCommitment","type":"tuple[]","internalType":"struct Gear.ChainCommitment[]","components":[{"name":"transitions","type":"tuple[]","internalType":"struct Gear.StateTransition[]","components":[{"name":"actorId","type":"address","internalType":"address"},{"name":"newStateHash","type":"bytes32","internalType":"bytes32"},{"name":"exited","type":"bool","internalType":"bool"},{"name":"inheritor","type":"address","internalType":"address"},{"name":"valueToReceive","type":"uint128","internalType":"uint128"},{"name":"valueClaims","type":"tuple[]","internalType":"struct Gear.ValueClaim[]","components":[{"name":"messageId","type":"bytes32","internalType":"bytes32"},{"name":"destination","type":"address","internalType":"address"},{"name":"value","type":"uint128","internalType":"uint128"}]},{"name":"messages","type":"tuple[]","internalType":"struct Gear.Message[]","components":[{"name":"id","type":"bytes32","internalType":"bytes32"},{"name":"destination","type":"address","internalType":"address"},{"name":"payload","type":"bytes","internalType":"bytes"},{"name":"value","type":"uint128","internalType":"uint128"},{"name":"replyDetails","type":"tuple","internalType":"struct Gear.ReplyDetails","components":[{"name":"to","type":"bytes32","internalType":"bytes32"},{"name":"code","type":"bytes4","internalType":"bytes4"}]},{"name":"call","type":"bool","internalType":"bool"}]}]},{"name":"head","type":"bytes32","internalType":"bytes32"}]},{"name":"codeCommitments","type":"tuple[]","internalType":"struct Gear.CodeCommitment[]","components":[{"name":"id","type":"bytes32","internalType":"bytes32"},{"name":"valid","type":"bool","internalType":"bool"}]},{"name":"rewardsCommitment","type":"tuple[]","internalType":"struct Gear.RewardsCommitment[]","components":[{"name":"operators","type":"tuple","internalType":"struct Gear.OperatorRewardsCommitment","components":[{"name":"amount","type":"uint256","internalType":"uint256"},{"name":"root","type":"bytes32","internalType":"bytes32"}]},{"name":"stakers","type":"tuple","internalType":"struct Gear.StakerRewardsCommitment","components":[{"name":"distribution","type":"tuple[]","internalType":"struct Gear.StakerRewards[]","components":[{"name":"vault","type":"address","internalType":"address"},{"name":"amount","type":"uint256","internalType":"uint256"}]},{"name":"totalAmount","type":"uint256","internalType":"uint256"},{"name":"token","type":"address","internalType":"address"}]},{"name":"timestamp","type":"uint48","internalType":"uint48"}]},{"name":"validatorsCommitment","type":"tuple[]","internalType":"struct Gear.ValidatorsCommitment[]","components":[{"name":"aggregatedPublicKey","type":"tuple","internalType":"struct Gear.AggregatedPublicKey","components":[{"name":"x","type":"uint256","internalType":"uint256"},{"name":"y","type":"uint256","internalType":"uint256"}]},{"name":"verifiableSecretSharingCommitment","type":"bytes","internalType":"bytes"},{"name":"validators","type":"address[]","internalType":"address[]"},{"name":"eraIndex","type":"uint256","internalType":"uint256"}]}]},{"name":"_signatureType","type":"uint8","internalType":"enum Gear.SignatureType"},{"name":"_signatures","type":"bytes[]","internalType":"bytes[]"}],"outputs":[],"stateMutability":"nonpayable"},{"type":"function","name":"computeSettings","inputs":[],"outputs":[{"name":"","type":"tuple","internalType":"struct Gear.ComputationSettings","components":[{"name":"threshold","type":"uint64","internalType":"uint64"},{"name":"wvaraPerSecond","type":"uint128","internalType":"uint128"}]}],"stateMutability":"view"},{"type":"function","name":"createProgram","inputs":[{"name":"_codeId","type":"bytes32","internalType":"bytes32"},{"name":"_salt","type":"bytes32","internalType":"bytes32"},{"name":"_overrideInitializer","type":"address","internalType":"address"}],"outputs":[{"name":"","type":"address","internalType":"address"}],"stateMutability":"nonpayable"},{"type":"function","name":"createProgramWithAbiInterface","inputs":[{"name":"_codeId","type":"bytes32","internalType":"bytes32"},{"name":"_salt","type":"bytes32","internalType":"bytes32"},{"name":"_overrideInitializer","type":"address","internalType":"address"},{"name":"_abiInterface","type":"address","internalType":"address"}],"outputs":[{"name":"","type":"address","internalType":"address"}],"stateMutability":"nonpayable"},{"type":"function","name":"genesisBlockHash","inputs":[],"outputs":[{"name":"","type":"bytes32","internalType":"bytes32"}],"stateMutability":"view"},{"type":"function","name":"genesisTimestamp","inputs":[],"outputs":[{"name":"","type":"uint48","internalType":"uint48"}],"stateMutability":"view"},{"type":"function","name":"initialize","inputs":[{"name":"_owner","type":"address","internalType":"address"},{"name":"_mirror","type":"address","internalType":"address"},{"name":"_wrappedVara","type":"address","internalType":"address"},{"name":"_middleware","type":"address","internalType":"address"},{"name":"_eraDuration","type":"uint256","internalType":"uint256"},{"name":"_electionDuration","type":"uint256","internalType":"uint256"},{"name":"_validationDelay","type":"uint256","internalType":"uint256"},{"name":"_aggregatedPublicKey","type":"tuple","internalType":"struct Gear.AggregatedPublicKey","components":[{"name":"x","type":"uint256","internalType":"uint256"},{"name":"y","type":"uint256","internalType":"uint256"}]},{"name":"_verifiableSecretSharingCommitment","type":"bytes","internalType":"bytes"},{"name":"_validators","type":"address[]","internalType":"address[]"}],"outputs":[],"stateMutability":"nonpayable"},{"type":"function","name":"isValidator","inputs":[{"name":"_validator","type":"address","internalType":"address"}],"outputs":[{"name":"","type":"bool","internalType":"bool"}],"stateMutability":"view"},{"type":"function","name":"latestCommittedBatchHash","inputs":[],"outputs":[{"name":"","type":"bytes32","internalType":"bytes32"}],"stateMutability":"view"},{"type":"function","name":"latestCommittedBatchTimestamp","inputs":[],"outputs":[{"name":"","type":"uint48","internalType":"uint48"}],"stateMutability":"view"},{"type":"function","name":"latestRewardedEra","inputs":[],"outputs":[{"name":"","type":"uint64","internalType":"uint64"}],"stateMutability":"view"},{"type":"function","name":"lookupGenesisHash","inputs":[],"outputs":[],"stateMutability":"nonpayable"},{"type":"function","name":"middleware","inputs":[],"outputs":[{"name":"","type":"address","internalType":"address"}],"stateMutability":"view"},{"type":"function","name":"mirrorImpl","inputs":[],"outputs":[{"name":"","type":"address","internalType":"address"}],"stateMutability":"view"},{"type":"function","name":"owner","inputs":[],"outputs":[{"name":"","type":"address","internalType":"address"}],"stateMutability":"view"},{"type":"function","name":"programCodeId","inputs":[{"name":"_programId","type":"address","internalType":"address"}],"outputs":[{"name":"","type":"bytes32","internalType":"bytes32"}],"stateMutability":"view"},{"type":"function","name":"programsCodeIds","inputs":[{"name":"_programsIds","type":"address[]","internalType":"address[]"}],"outputs":[{"name":"","type":"bytes32[]","internalType":"bytes32[]"}],"stateMutability":"view"},{"type":"function","name":"programsCount","inputs":[],"outputs":[{"name":"","type":"uint256","internalType":"uint256"}],"stateMutability":"view"},{"type":"function","name":"reinitialize","inputs":[],"outputs":[],"stateMutability":"nonpayable"},{"type":"function","name":"renounceOwnership","inputs":[],"outputs":[],"stateMutability":"nonpayable"},{"type":"function","name":"requestCodeValidation","inputs":[{"name":"_codeId","type":"bytes32","internalType":"bytes32"}],"outputs":[],"stateMutability":"nonpayable"},{"type":"function","name":"setMirror","inputs":[{"name":"newMirror","type":"address","internalType":"address"}],"outputs":[],"stateMutability":"nonpayable"},{"type":"function","name":"signingThresholdPercentage","inputs":[],"outputs":[{"name":"","type":"uint16","internalType":"uint16"}],"stateMutability":"view"},{"type":"function","name":"timelines","inputs":[],"outputs":[{"name":"","type":"tuple","internalType":"struct Gear.Timelines","components":[{"name":"era","type":"uint256","internalType":"uint256"},{"name":"election","type":"uint256","internalType":"uint256"},{"name":"validationDelay","type":"uint256","internalType":"uint256"}]}],"stateMutability":"view"},{"type":"function","name":"transferOwnership","inputs":[{"name":"newOwner","type":"address","internalType":"address"}],"outputs":[],"stateMutability":"nonpayable"},{"type":"function","name":"validatedCodesCount","inputs":[],"outputs":[{"name":"","type":"uint256","internalType":"uint256"}],"stateMutability":"view"},{"type":"function","name":"validators","inputs":[],"outputs":[{"name":"","type":"address[]","internalType":"address[]"}],"stateMutability":"view"},{"type":"function","name":"validatorsAggregatedPublicKey","inputs":[],"outputs":[{"name":"","type":"tuple","internalType":"struct Gear.AggregatedPublicKey","components":[{"name":"x","type":"uint256","internalType":"uint256"},{"name":"y","type":"uint256","internalType":"uint256"}]}],"stateMutability":"view"},{"type":"function","name":"validatorsCount","inputs":[],"outputs":[{"name":"","type":"uint256","internalType":"uint256"}],"stateMutability":"view"},{"type":"function","name":"validatorsThreshold","inputs":[],"outputs":[{"name":"","type":"uint256","internalType":"uint256"}],"stateMutability":"view"},{"type":"function","name":"validatorsVerifiableSecretSharingCommitment","inputs":[],"outputs":[{"name":"","type":"bytes","internalType":"bytes"}],"stateMutability":"view"},{"type":"function","name":"wrappedVara","inputs":[],"outputs":[{"name":"","type":"address","internalType":"address"}],"stateMutability":"view"},{"type":"event","name":"AnnouncesCommitted","inputs":[{"name":"head","type":"bytes32","indexed":false,"internalType":"bytes32"}],"anonymous":false},{"type":"event","name":"BatchCommitted","inputs":[{"name":"hash","type":"bytes32","indexed":false,"internalType":"bytes32"}],"anonymous":false},{"type":"event","name":"CodeGotValidated","inputs":[{"name":"codeId","type":"bytes32","indexed":false,"internalType":"bytes32"},{"name":"valid","type":"bool","indexed":true,"internalType":"bool"}],"anonymous":false},{"type":"event","name":"CodeValidationRequested","inputs":[{"name":"codeId","type":"bytes32","indexed":false,"internalType":"bytes32"}],"anonymous":false},{"type":"event","name":"ComputationSettingsChanged","inputs":[{"name":"threshold","type":"uint64","indexed":false,"internalType":"uint64"},{"name":"wvaraPerSecond","type":"uint128","indexed":false,"internalType":"uint128"}],"anonymous":false},{"type":"event","name":"Initialized","inputs":[{"name":"version","type":"uint64","indexed":false,"internalType":"uint64"}],"anonymous":false},{"type":"event","name":"OwnershipTransferred","inputs":[{"name":"previousOwner","type":"address","indexed":true,"internalType":"address"},{"name":"newOwner","type":"address","indexed":true,"internalType":"address"}],"anonymous":false},{"type":"event","name":"ProgramCreated","inputs":[{"name":"actorId","type":"address","indexed":false,"internalType":"address"},{"name":"codeId","type":"bytes32","indexed":true,"internalType":"bytes32"}],"anonymous":false},{"type":"event","name":"RewardsDistributedFor","inputs":[{"name":"eraIndex","type":"uint64","indexed":false,"internalType":"uint64"}],"anonymous":false},{"type":"event","name":"StorageSlotChanged","inputs":[],"anonymous":false},{"type":"event","name":"ValidatorsCommittedForEra","inputs":[{"name":"eraIndex","type":"uint256","indexed":false,"internalType":"uint256"}],"anonymous":false},{"type":"error","name":"ECDSAInvalidSignature","inputs":[]},{"type":"error","name":"ECDSAInvalidSignatureLength","inputs":[{"name":"length","type":"uint256","internalType":"uint256"}]},{"type":"error","name":"ECDSAInvalidSignatureS","inputs":[{"name":"s","type":"bytes32","internalType":"bytes32"}]},{"type":"error","name":"InvalidInitialization","inputs":[]},{"type":"error","name":"NotInitializing","inputs":[]},{"type":"error","name":"OwnableInvalidOwner","inputs":[{"name":"owner","type":"address","internalType":"address"}]},{"type":"error","name":"OwnableUnauthorizedAccount","inputs":[{"name":"account","type":"address","internalType":"address"}]},{"type":"error","name":"ReentrancyGuardReentrantCall","inputs":[]}],"bytecode":{"object":"0x6080806040523460aa575f5160206145ba5f395f51905f525460ff8160401c16609b576002600160401b03196001600160401b038216016049575b60405161450b90816100af8239f35b6001600160401b0319166001600160401b039081175f5160206145ba5f395f51905f525581527fc7f505b2f371ae2175ee4913f4499e1f2633a7b5936321eed1cdaeb6115181d290602090a15f80603a565b63f92ee8a960e01b5f5260045ffd5b5f80fdfe608080604052600436101561010a575b50361561001a575f80fd5b5f5160206144cb5f395f51905f5254610038600182015415156124f4565b6001600160801b033416156100ba57335f908152601a9190910160205260409020541561006157005b60405162461bcd60e51b815260206004820152602b60248201527f636f756c646e277420726563656976652045746865722066726f6d20756e6b6e60448201526a6f776e2070726f6772616d60a81b6064820152608490fd5b60405162461bcd60e51b815260206004820152602260248201527f7a65726f2076616c7565207472616e73666572206973206e6f7420616c6c6f77604482015261195960f21b6064820152608490fd5b5f905f3560e01c9081627a32e714612437575080630749fc7114611e515780630c18d27714611959578063120e3f1e146117cd5780631ed6e1151461179657806328e24b3d146117685780633683c4d2146114db5780633bd109fa1461148c5780633d43b4181461143857806353f7fd4814610eaf5780636c2eb35014610b5d578063715018a614610af457806371a8cf2d14610ac657806382bdeaad146109ae57806384d22a4f1461094557806388f50cf01461090c5780638b1edf1e146108415780638da5cb5b1461080c5780638f381dbe146107c65780639067088e1461077d57806396a2ddfa1461074f5780639eb939a8146106e3578063a5d53a4414610675578063baaf020114610574578063c13911e814610530578063ca1e7819146104ad578063cacf66ab14610475578063d456fd511461043f578063e6fabc0914610406578063ed612f8c146103ce578063edc8722514610384578063efd81abc14610352578063f2fde38b14610325578063f4f20ac0146102ec5763facd743b0361000f57346102e95760203660031901126102e9576102ab6124bd565b60036102c65f5160206144cb5f395f51905f5254429061407b565b019060018060a01b03165f52602052602060ff60405f2054166040519015158152f35b80fd5b50346102e957806003193601126102e9575f5160206144cb5f395f51905f5254600701546040516001600160a01b039091168152602090f35b50346102e95760203660031901126102e95761034f6103426124bd565b61034a613cc3565b612852565b80f35b50346102e957806003193601126102e957602061ffff60085f5160206144cb5f395f51905f5254015416604051908152f35b50346102e957806003193601126102e95760206103c65f5160206144cb5f395f51905f525461ffff600860046103ba428561407b565b01549201541690613fee565b604051908152f35b50346102e957806003193601126102e957602060046103fc5f5160206144cb5f395f51905f5254429061407b565b0154604051908152f35b50346102e957806003193601126102e9575f5160206144cb5f395f51905f5254600501546040516001600160a01b039091168152602090f35b50346102e957806003193601126102e957602065ffffffffffff60045f5160206144cb5f395f51905f5254015416604051908152f35b50346102e957806003193601126102e957602065ffffffffffff60025f5160206144cb5f395f51905f52540154821c16604051908152f35b50346102e957806003193601126102e9576104e260046104dc5f5160206144cb5f395f51905f5254429061407b565b0161273d565b90604051918291602083016020845282518091526020604085019301915b81811061050e575050500390f35b82516001600160a01b0316845285945060209384019390920191600101610500565b50346102e95760203660031901126102e95760ff604060209260195f5160206144cb5f395f51905f5254016004358252845220541661057260405180926124e7565bf35b50346102e95760203660031901126102e9576004356001600160401b038111610671576105a5903690600401612461565b905f5160206144cb5f395f51905f5254906105bf836126d2565b916105cd60405193846125c3565b8383526105d9846126d2565b602084019490601f1901368637601a869201915b81811061063857868587604051928392602084019060208552518091526040840192915b81811061061f575050500390f35b8251845285945060209384019390920191600101610611565b8061064e6106496001938588612790565b6127b4565b828060a01b03165f528360205260405f205461066a82886127a0565b52016105ed565b5080fd5b50346102e957806003193601126102e95760406106b65f5160206144cb5f395f51905f525460026106ae60018060a01b0392429061407b565b015416613fbf565b6020825193849282845280519283918282870152018585015e828201840152601f01601f19168101030190f35b50346102e957806003193601126102e9576106fc612834565b5060605f5160206144cb5f395f51905f525460405161071a816125a8565b601682015491828252604060186017830154926020850193845201549201918252604051928352516020830152516040820152f35b50346102e957806003193601126102e9576020601b5f5160206144cb5f395f51905f52540154604051908152f35b50346102e95760203660031901126102e9576107976124bd565b601a5f5160206144cb5f395f51905f5254019060018060a01b03165f52602052602060405f2054604051908152f35b50346102e95760203660031901126102e957600435906001600160401b0382116102e95760206108026107fc3660048601612461565b906127c8565b6040519015158152f35b50346102e957806003193601126102e9575f5160206144ab5f395f51905f52546040516001600160a01b039091168152602090f35b50346102e957806003193601126102e9575f5160206144cb5f395f51905f5254600181019081546108c7576002015463ffffffff1640908115610882575580f35b60405162461bcd60e51b815260206004820152601d60248201527f756e61626c6520746f206c6f6f6b75702067656e6573697320686173680000006044820152606490fd5b60405162461bcd60e51b815260206004820152601860248201527f67656e65736973206861736820616c72656164792073657400000000000000006044820152606490fd5b50346102e957806003193601126102e9575f5160206144cb5f395f51905f5254600601546040516001600160a01b039091168152602090f35b50346102e957806003193601126102e95761095e6125e4565b50604060155f5160206144cb5f395f51905f5254016001600160801b0382519161098783612579565b548160206001600160401b038316948581520191851c168152835192835251166020820152f35b50346102e95760203660031901126102e9576004356001600160401b038111610671576109df903690600401612461565b905f5160206144cb5f395f51905f5254906109f9836126d2565b91610a0760405193846125c3565b838352610a13846126d2565b602084019490601f19013686376019869201915b818110610a7c57868587604051928392602084019060208552518091526040840192915b818110610a59575050500390f35b9193509160208082610a6e60019488516124e7565b019401910191849392610a4b565b610a87818386612790565b3587528260205260ff604088205416610aa082876127a0565b6003821015610ab25752600101610a27565b634e487b7160e01b89526021600452602489fd5b50346102e957806003193601126102e957602060035f5160206144cb5f395f51905f52540154604051908152f35b50346102e957806003193601126102e957610b0d613cc3565b5f5160206144ab5f395f51905f5280546001600160a01b0319811690915581906001600160a01b03167f8be0079c531659141344cd1fd0a4f28419497f9722a3daafe3b4186f6b6457e08280a380f35b50346102e957806003193601126102e957610b76613cc3565b5f5160206144eb5f395f51905f525460ff8160401c16908115610e9a575b50610e8b575f5160206144eb5f395f51905f52805468ffffffffffffffffff1916680100000000000000021790555f5160206144ab5f395f51905f5254610bee906001600160a01b0316610be6614257565b61034a614257565b5f5160206144cb5f395f51905f52546040908151610c0c83826125c3565b6017815260208101907f726f757465722e73746f726167652e526f7574657256320000000000000000008252610c40613cc3565b5190205f198101908111610e7757916020917fc7f505b2f371ae2175ee4913f4499e1f2633a7b5936321eed1cdaeb6115181d293825190848201908152848252610c8a84836125c3565b60ff19915190201690815f5160206144cb5f395f51905f5255610cab613cf6565b80516001840155600283019063ffffffff868201511669ffffffffffff00000000868454930151881b169169ffffffffffffffffffff191617179055600581016005830190808203610e29575b505061ffff600882015416600883019061ffff19825416179055610d61610d1f428361407b565b610d366001600160a01b0360026106ae428761407b565b610d4c6004610d45428761407b565b01926125fc565b90610d57429361273d565b9160098701613d2b565b601581016015830190808203610dd7575b5050601681016016830191818303610db7575b5050505060ff60401b195f5160206144eb5f395f51905f5254165f5160206144eb5f395f51905f52555160028152a180f35b60189283925490556017810154601785015501549101555f808080610d85565b806001600160401b03806001600160801b03935416166001600160401b031984541617835554851c16600160401b600160c01b03825491861b1690600160401b600160c01b0319161790555f80610d72565b5481546001600160a01b03199081166001600160a01b039283161790925560068381015490850180548416918316919091179055600780840154908501805490931691161790555f80610cf8565b634e487b7160e01b84526011600452602484fd5b63f92ee8a960e01b8152600490fd5b600291506001600160401b031610155f610b94565b50346102e9576101603660031901126102e957610eca6124bd565b6024356001600160a01b038116919082900361143457610ee8612491565b610ef06124a7565b60c435916084359160a43560403660e31901126114305761012435946001600160401b03861161142c573660238701121561142c578560040135916001600160401b03831161142857366024848901011161142857610144356001600160401b03811161142457610f65903690600401612461565b9690945f5160206144eb5f395f51905f5254996001600160401b0360ff8c60401c16159b168015908161141c575b6001149081611412575b159081611409575b506113fa57610fe7908b60016001600160401b03195f5160206144eb5f395f51905f525416175f5160206144eb5f395f51905f52556113ca575b610be6614257565b610fef614257565b421561137457821561131e57828211156112bd57600a61100f848461261a565b048410156112785760409a8b516110268d826125c3565b6017815260208101907f726f757465722e73746f726167652e526f757465725631000000000000000000825261105a613cc3565b5190205f198101908111611264578c51602080820192835281528d93929161108285836125c3565b60ff19915190201698895f5160206144cb5f395f51905f52556110a3613cf6565b805160018c015560028b0190602081015163ffffffff1686835492015160201b69ffffffffffff00000000169169ffffffffffffffffffff1916171790558351906110ed826125a8565b8282526001600160a01b03908116602083018190529381169490910184905260058a018054919092166001600160a01b0319918216179091556006890180548216909217909155600788018054909116909117905560088601805461ffff1916611a0a17905561115b6125e4565b50895161116781612579565b639502f90081526509184e72a0006020909101526015860180546001600160c01b0319166d09184e72a000000000009502f900179055895183908b906111ac816125a8565b83815284602082015201526016860155601785015560188401558651946111d286612579565b60e43586526101043560208701526111ee91369160240161269c565b90429336906111fc926126e9565b916009019361120a94613d2b565b611212575080f35b60207fc7f505b2f371ae2175ee4913f4499e1f2633a7b5936321eed1cdaeb6115181d29160ff60401b195f5160206144eb5f395f51905f5254165f5160206144eb5f395f51905f52555160018152a180f35b634e487b7160e01b8e52601160045260248efd5b60405162461bcd60e51b815260206004820152601b60248201527f76616c69646174696f6e2064656c617920697320746f6f2062696700000000006044820152606490fd5b60405162461bcd60e51b815260206004820152603360248201527f657261206475726174696f6e206d757374206265206772656174657220746861604482015272371032b632b1ba34b7b710323ab930ba34b7b760691b6064820152608490fd5b60405162461bcd60e51b815260206004820152602860248201527f656c656374696f6e206475726174696f6e206d75737420626520677265617465604482015267072207468616e20360c41b6064820152608490fd5b60405162461bcd60e51b815260206004820152602860248201527f63757272656e742074696d657374616d70206d75737420626520677265617465604482015267072207468616e20360c41b6064820152608490fd5b600160401b60ff60401b195f5160206144eb5f395f51905f525416175f5160206144eb5f395f51905f5255610fdf565b63f92ee8a960e01b8d5260048dfd5b9050155f610fa5565b303b159150610f9d565b8c9150610f93565b8a80fd5b8980fd5b8880fd5b8780fd5b8280fd5b50346102e95760203660031901126102e9576114526124bd565b61145a613cc3565b5f5160206144cb5f395f51905f525460050180546001600160a01b0319166001600160a01b0390921691909117905580f35b50346102e957806003193601126102e9576114a56125e4565b5060406114c96114c45f5160206144cb5f395f51905f5254429061407b565b6125fc565b60208251918051835201516020820152f35b50346102e95760603660031901126102e9576004356114f8612491565b5f5160206144cb5f395f51905f5254611516600182015415156124f4565b8284526019810160205260ff6040852054166003811015611754576002036116f857604051602081019084825260243560408201526040815261155a6060826125c3565b51902060405160608101908082106001600160401b038311176116f457605a916040527f3d605080600a3d3981f3608060405263e6fabc0960e01b5f5260205f6004817381523060601b6b5afa15604c575f80805136821760208201527f80378136915af43d5f803e156048573d5ff35b3d5ffd5b5f80fd000000000000604082015286f59081156116f0576001600160a01b0382165f908152601a820160205260409020849055601b01805461161090612f21565b90556040516001600160a01b03821680825293907f8008ec1d8798725ebfa0f2d128d52e8e717dcba6e0f786557eeee70614b02bf190602090a2506001600160a01b0381166116eb5750335b5f5160206144cb5f395f51905f5254600501546001600160a01b0316823b156116e757604051631c9776b560e31b81526001600160a01b039092166004830152602482015260016044820152828160648183865af180156116dc576116c7575b602082604051908152f35b6116d28380926125c3565b61067157816116bc565b6040513d85823e3d90fd5b8380fd5b61165c565b8480fd5b8680fd5b60405162461bcd60e51b815260206004820152602e60248201527f636f6465206d7573742062652076616c696461746564206265666f726520707260448201526d37b3b930b69031b932b0ba34b7b760911b6064820152608490fd5b634e487b7160e01b85526021600452602485fd5b50346102e957806003193601126102e957602060015f5160206144cb5f395f51905f52540154604051908152f35b50346102e957806003193601126102e95760206001600160401b03601d5f5160206144cb5f395f51905f5254015416604051908152f35b50346102e95760203660031901126102e9576004358149156118dd5760195f5160206144cb5f395f51905f5254611809600182015415156124f4565b018183528060205260ff60408420541660038110156118c9576118685781835260209081526040808420805460ff19166001179055519182527f5c261a095dd5720475295dc06379921c003c22164ee6cae5cf83e76ce0a1b98591a180f35b60405162461bcd60e51b815260206004820152603360248201527f676976656e20636f646520696420697320616c7265616479206f6e2076616c6960448201527219185d1a5bdb881bdc881d985b1a59185d1959606a1b6064820152608490fd5b634e487b7160e01b84526021600452602484fd5b60405162461bcd60e51b815260206004820152604860248201527f626c6f622063616e277420626520666f756e642c20726f75746572206578706560448201527f63746564204549502d34383434207472616e73616374696f6e2077697468205760648201526720a9a690313637b160c11b608482015260a490fd5b34611e33576080366003190112611e3357600435611975612491565b9061197e6124a7565b915f5160206144cb5f395f51905f525461199d600182015415156124f4565b825f526019810160205260ff60405f2054166003811015611e3d576002036116f85760405160208101908482526024356040820152604081526119e16060826125c3565b5190206040516102c08101908082106001600160401b03831117611e33576102b0916040527f60808060405261029e90816100128239f3fe608060405260043610610254575f81527f3560e01c806336a52a18146100ab57806342129d00146100a65780635ce6c32760208201527f146100a1578063701da98e1461009c578063704ed542146100975780637a8e0c60408201527fdd1461009257806391d5a64c1461008d5780639ce110d714610088578063affe60608201527fd0e0146100835763e43f3433036102545761023f565b610222565b6101fa565b60808201527f6101e4565b6101b1565b610181565b610165565b610143565b610106565b346160a08201527ed4575f3660031901126100d45760025460081c6001600160a01b031660809060c08201527f8152602090f35b5f80fd5b9181601f840112156100d45782359167ffffffffff60e08201527fffffff83116100d457602083818601950101116100d457565b604036600319016101008201527f126100d45760043567ffffffffffffffff81116100d4576101329036906004016101208201527f6100d8565b505060243580151514610254575f80fd5b346100d4575f366003196101408201527f01126100d457602060ff600254166040519015158152f35b346100d4575f36606101608201527f031901126100d45760205f54604051908152f35b346100d457602036600319016101808201527f126100d4576004356fffffffffffffffffffffffffffffffff811614610254576101a08201527f5f80fd5b60403660031901126100d45760243567ffffffffffffffff811161006101c08201527fd4576101dd9036906004016100d8565b5050610254565b346100d457602036606101e08201527f0319011215610254575f80fd5b346100d4575f3660031901126100d4576003546102008201527f6040516001600160a01b039091168152602090f35b346100d4575f36600319016102208201527f126100d4576020600154604051908152f35b346100d4575f36600319011215616102408201523060601c7f0254575f80fd5b63e6fabc0960e01b5f5260205f60048173000000000000000017610260820152735afa156100d4575f808051368280378136915af43060a01b176102808201526f3d5f803e1561029a573d5ff35b3d5ffd60801b6102a08201525ff5908115611e33576001600160a01b0382165f908152601a820160205260409020849055601b018054611d7890612f21565b90556040516001600160a01b03821680825293907f8008ec1d8798725ebfa0f2d128d52e8e717dcba6e0f786557eeee70614b02bf190602090a2506001600160a01b038116611e37575033915b813b15611e3357604051631c9776b560e31b81526001600160a01b039384166004820152921660248301525f604483018190528260648183855af1918215611e2857602092611e18575b50604051908152f35b5f611e22916125c3565b5f611e0f565b6040513d5f823e3d90fd5b5f80fd5b91611dc5565b634e487b7160e01b5f52602160045260245ffd5b34611e33576060366003190112611e33576004356001600160401b038111611e3357806004019060e06003198236030112611e3357602435916002831015611e33576044356001600160401b038111611e3357611eb2903690600401612461565b93907f9b779b17422d0df92223018b32b4d1fa46e071723d6817e2486d003becc55f005c6124285760017f9b779b17422d0df92223018b32b4d1fa46e071723d6817e2486d003becc55f005d5f5160206144cb5f395f51905f525492611f1d600185015415156124f4565b83541561235a575b6003840195865492604487013580940361230757600486019465ffffffffffff86541698602489019965ffffffffffff611f5e8c612566565b161061228757611f7285899b9a989b612935565b9860609a60845f99019760198b019c5b611f8c8a8a612edf565b90508b101561213557611f9f8a8a612edf565b8c9291921015612121578e918c60061b0190813592835f5260205260ff60405f2054166003811015611e3d576001036120be578f828f939160206040930194611fe786612f14565b156120a757601c91875f52602052835f20600260ff198254161790550161200e8154612f21565b90555b61201a84612f14565b15157f460119a8f69a33ed127de517d5ea464e958ce23ef19e4420a8b92bf780bbc2c960208451888152a2360312611e3357600192602061209f9361206d6040519161206583612579565b848352612f2f565b91829101526040519060208201928352151560f81b6040820152602181526120966041826125c3565b51902090612f3c565b9a0199611f82565b50855f52602052815f2060ff198154169055612011565b60405162461bcd60e51b815260206004820152603560248201527f636f6465206d7573742062652072657175657374656420666f722076616c6964604482015274185d1a5bdb881d1bc818994818dbdb5b5a5d1d1959605a1b6064820152608490fd5b634e487b7160e01b5f52603260045260245ffd5b61221899509160208c9965ffffffffffff95938f8c61221197858151910120612168856121628185612f8b565b93613504565b9261217289612566565b9460405195888701973588528c60d01b9060d01b16604087015260468601526066850152608684015260a683015260c682015260c681526121b460e6826125c3565b51902080966121c285612566565b87604051916121d083612579565b8483521693849101525584198254161790557f7ebe42360bcb182fe0a88148b081e4557c89d09aa6af8307635ac2f83e2aaa656020604051868152a1612566565b1694613924565b15612242575f7f9b779b17422d0df92223018b32b4d1fa46e071723d6817e2486d003becc55f005d005b60405162461bcd60e51b815260206004820152601e60248201527f7369676e61747572657320766572696669636174696f6e206661696c656400006044820152606490fd5b60405162461bcd60e51b815260206004820152604c60248201527f62617463682074696d657374616d70206d75737420626520677265617465722060448201527f6f7220657175616c20746f206c617465737420636f6d6d69747465642062617460648201526b063682074696d657374616d760a41b608482015260a490fd5b60405162461bcd60e51b815260206004820152602560248201527f696e76616c69642070726576696f757320636f6d6d6974746564206261746368604482015264040d0c2e6d60db1b6064820152608490fd5b61236481356128c3565b156123d45765ffffffffffff61237c60248701612566565b164211611f255760405162461bcd60e51b815260206004820152602360248201527f62617463682074696d657374616d70206d75737420626520696e207468652070604482015262185cdd60ea1b6064820152608490fd5b60405162461bcd60e51b815260206004820152602660248201527f616c6c6f776564207072656465636573736f7220626c6f636b207761736e277460448201526508199bdd5b9960d21b6064820152608490fd5b633ee5aeb560e01b5f5260045ffd5b34611e33575f366003190112611e3357602090601c5f5160206144cb5f395f51905f525401548152f35b9181601f84011215611e33578235916001600160401b038311611e33576020808501948460051b010111611e3357565b604435906001600160a01b0382168203611e3357565b606435906001600160a01b0382168203611e3357565b600435906001600160a01b0382168203611e3357565b35906001600160a01b0382168203611e3357565b906003821015611e3d5752565b156124fb57565b60405162461bcd60e51b815260206004820152603860248201527f726f757465722067656e65736973206973207a65726f3b2063616c6c20606c6f60448201527f6f6b757047656e657369734861736828296020666972737400000000000000006064820152608490fd5b3565ffffffffffff81168103611e335790565b604081019081106001600160401b0382111761259457604052565b634e487b7160e01b5f52604160045260245ffd5b606081019081106001600160401b0382111761259457604052565b90601f801991011681019081106001600160401b0382111761259457604052565b604051906125f182612579565b5f6020838281520152565b9060405161260981612579565b602060018294805484520154910152565b9190820391821161262757565b634e487b7160e01b5f52601160045260245ffd5b8115612645570490565b634e487b7160e01b5f52601260045260245ffd5b6001600160401b03811161259457601f01601f191660200190565b9190826040910312611e335760405161268c81612579565b6020808294803584520135910152565b9291926126a882612659565b916126b660405193846125c3565b829481845281830111611e33578281602093845f960137010152565b6001600160401b0381116125945760051b60200190565b9291906126f5816126d2565b9361270360405195866125c3565b602085838152019160051b8101928311611e3357905b82821061272557505050565b60208091612732846124d3565b815201910190612719565b90604051918281549182825260208201905f5260205f20925f5b81811061276e57505061276c925003836125c3565b565b84546001600160a01b0316835260019485019487945060209093019201612757565b91908110156121215760051b0190565b80518210156121215760209160051b010190565b356001600160a01b0381168103611e335790565b6127e15f5160206144cb5f395f51905f5254429061407b565b600301905f5b8381106127f75750505050600190565b612805610649828685612790565b6001600160a01b03165f9081526020849052604090205460ff161561282c576001016127e7565b505050505f90565b60405190612841826125a8565b5f6040838281528260208201520152565b6001600160a01b031680156128b0575f5160206144ab5f395f51905f5280546001600160a01b0319811683179091556001600160a01b03167f8be0079c531659141344cd1fd0a4f28419497f9722a3daafe3b4186f6b6457e05f80a3565b631e4fbdf760e01b5f525f60045260245ffd5b905f19430143811161262757805b6128dc575b505f9150565b80408381036128ed57506001925050565b156128fb575f1901806128d1565b6128d6565b903590601e1981360301821215611e3357018035906001600160401b038211611e3357602001918160051b36038313611e3357565b906060810160016129468284612900565b905011612e7d576129578183612900565b905015612e565761296791612900565b1561212157803590603e1981360301821215611e335701916129898380612900565b92906060925f95601a60de19843603019401945b86881015612df3578760051b84013585811215611e335784016129bf816127b4565b6001600160a01b03165f9081526020889052604090205415612d9657608081016001600160801b036129f082614010565b16612cfe575b6001600160a01b03612a07836127b4565b6040516302c649c960e01b81526020600482015293911691610104840191906001600160801b0390612a86906001600160a01b03612a44856124d3565b16602488015260208401356044880152612a6060408501612f2f565b151560648801526001600160a01b03612a7b606086016124d3565b166084880152614024565b1660a485015236819003601e190160a082013581811215611e33578201602081359101936001600160401b038211611e33576060820236038513611e3357819060e060c489015252610124860193905f905b808210612cb45750505060c082013590811215611e335701803560208201926001600160401b038211611e33578160051b908136038513611e3357918694936023198685030160e487015281845260208085019385010194935f9160fe19813603015b848410612ba9575050505050505091815f8160209503925af1908115611e28575f91612b77575b50612b6f90600192612f3c565b97019661299d565b90506020813d8211612ba1575b81612b91602093836125c3565b81010312611e3357516001612b62565b3d9150612b84565b9193959750919395601f19848203018752873582811215611e33578301602081013582526001600160a01b03612be1604083016124d3565b1660208301526060810135603e193683900301811215611e33578101602081013591906040016001600160401b038311611e33578236038113611e3357829060e060408601528160e08601526101008501375f61010083850101526001600160801b03612c5060808301614024565b16606084015260a0810135608084015260c081013563ffffffff60e01b8116809103611e335783602093612c9260e086956101009560a060019a015201612f2f565b151560c0830152601f8019910116010199019701940191899796959391612b3b565b90919460608060019288358152838060a01b03612cd360208b016124d3565b1660208201526001600160801b03612ced60408b01614024565b166040820152019601920190612ad8565b5f808080612d0b866127b4565b6001600160801b03612d1c87614010565b16905af13d15612d91573d612d3081612659565b90612d3e60405192836125c3565b81525f60203d92013e5b6129f65760405162461bcd60e51b815260206004820152601860248201527f7472616e7366657220746f206163746f72206661696c656400000000000000006044820152606490fd5b612d48565b60405162461bcd60e51b815260206004820152602f60248201527f636f756c646e277420706572666f726d207472616e736974696f6e20666f722060448201526e756e6b6e6f776e2070726f6772616d60881b6064820152608490fd5b93509450945050602091508181519101209101357fd04cd9af813f6f0b56e9411a6ee6a84eb5ac35a96f0c33d2e3a07d65baa8f4186020604051838152a16040519060208201928352604082015260408152612e506060826125c3565b51902090565b5050507fc5d2460186f7233c927e7db2dcc703c0e500b653ca82273b7bfad8045d85a47090565b60405162461bcd60e51b815260206004820152603460248201527f636861696e436f6d6d69746d656e7420636f756c6420636f6e7461696e206174604482015273081b5bdcdd081bdb994818dbdb5b5a5d1b595b9d60621b6064820152608490fd5b903590601e1981360301821215611e3357018035906001600160401b038211611e3357602001918160061b36038313611e3357565b358015158103611e335790565b5f1981146126275760010190565b35908115158203611e3357565b60208061276c928195946040519682889351918291018585015e82019083820152030180855201836125c3565b903590605e1981360301821215611e33570190565b9190820180921161262757565b9060a081016001612f9c8284612900565b90501161345557612fad8183612900565b905015612e5657612fbe9082612900565b1561212157803590607e1981360301821215611e33570191606083016020612fe582612566565b93019265ffffffffffff80612ff986612566565b16911610156133f65761300b81612566565b65ffffffffffff80600285015460201c1691161061339b5761305165ffffffffffff61304a6130448261303d86612566565b1686614038565b95612566565b1683614038565b831015613342576007820154600690920180548535956001600160a01b0394851694604082019391925f91602091166044613098836130908989612f69565b01358c612f7e565b604051948593849263095ea7b360e01b84528c600485015260248401525af18015611e285761330b575b505460405163394f179b60e11b81526001600160a01b03909116600482015260248101969096526020818101356044880152866064815f885af1958615611e28575f966132d3575b509061311591612f69565b9161311f82612566565b9260405193637fbe95b560e01b85526040600486015260a48501918035601e1982360301811215611e33578101602081359101936001600160401b038211611e33578160061b36038513611e335760606044890152819052869360c485019392915f5b81811061329b57505050836020959365ffffffffffff829484895f96013560648601526131b8604060018060a01b0392016124d3565b16608485015216602483015203925af1918215611e28575f92613247575b507f2eef7bc297e818c092f5e9f9e77f04a8c16370cbe99d1ee3418ab747d2577763602061321493946001600160401b0360405191168152a1612566565b6040519160208301938452604083015265ffffffffffff60d01b9060d01b16606082015260468152612e506066826125c3565b91506020823d602011613293575b81613262602093836125c3565b81010312611e33579051907f2eef7bc297e818c092f5e9f9e77f04a8c16370cbe99d1ee3418ab747d25777636131d6565b3d9150613255565b919550919293604080600192838060a01b036132b68a6124d3565b168152602089013560208201520196019101918895949392613182565b919095506020823d602011613303575b816132f0602093836125c3565b81010312611e335790519461311561310a565b3d91506132e3565b6020813d60201161333a575b81613324602093836125c3565b81010312611e33575180151581146130c2575f80fd5b3d9150613317565b60405162461bcd60e51b815260206004820152602b60248201527f7265776172647320636f6d6d69746d656e74206d75737420746172676574207060448201526a726576696f75732065726160a81b6064820152608490fd5b60405162461bcd60e51b815260206004820152602d60248201527f7265776172647320636f6d6d69746d656e742074696d657374616d702070726560448201526c64617465732067656e6573697360981b6064820152608490fd5b60405162461bcd60e51b815260206004820152603160248201527f7265776172647320636f6d6d69746d656e742074696d657374616d70206d75736044820152701d08189948199bdc881d1a19481c185cdd607a1b6064820152608490fd5b608460405162461bcd60e51b815260206004820152604060248201527f7265776172647320636f6d6d69746d656e74206d75737420626520656d70747960448201527f206f7220636f6e7461696e73206f6e6c79206f6e6520636f6d6d69746d656e746064820152fd5b8181029291811591840414171561262757565b903590601e1981360301821215611e3357018035906001600160401b038211611e3357602001918136038313611e3357565b9060c0810160016135158284612900565b9050116138ad576135268183612900565b905015612e565761353691612900565b1561212157803590609e1981360301821215611e335701606081019061355c8282612900565b90501561385a5765ffffffffffff600284015460201c169161357e834261261a565b61358d6016860154809261263b565b9360808401359460018101809111612627578503613802576135b2856135b8936134bf565b90612f7e565b936135c760178201548661261a565b42106137bd576135d690614060565b93426005860154101561375d5761362b90604084019561361d6136256135fc89886134d2565b9190613608888a612900565b949091613615368c612674565b94369161269c565b9336916126e9565b92613d2b565b7fa1a3b42179ad30022438a1ea333b38eaf4a7329beee5e2b8111c0dcd4e08821c6020604051858152a160a082360312611e335760405193608085018581106001600160401b03821117612594576040526136863684612674565b8552356001600160401b038111611e3357820136601f82011215611e33576136b590369060208135910161269c565b602085015235906001600160401b038211611e33570136601f82011215611e33576136e79036906020813591016126e9565b91826040820152816060820152519160208351930151906040519283926020840195865260408401526060830160208351919301905f5b81811061373b57505050815203808252612e5090602001826125c3565b82516001600160a01b031685528695506020948501949092019160010161371e565b60405162461bcd60e51b815260206004820152603260248201527f6c6f6f6b73206c696b652076616c696461746f727320666f72206e65787420656044820152711c9848185c9948185b1c9958591e481cd95d60721b6064820152608490fd5b60405162461bcd60e51b815260206004820152601b60248201527f656c656374696f6e206973206e6f7420796574207374617274656400000000006044820152606490fd5b60405162461bcd60e51b815260206004820152602a60248201527f636f6d6d69746d656e742065726120696e646578206973206e6f74206e657874604482015269040cae4c240d2dcc8caf60b31b6064820152608490fd5b60405162461bcd60e51b815260206004820152602560248201527f6e65772076616c696461746f7273206c697374206d757374206e6f7420626520604482015264656d70747960d81b6064820152608490fd5b60405162461bcd60e51b815260206004820152604360248201527f76616c696461746f727320636f6d6d69746d656e74206d75737420626520656d60448201527f707479206f7220636f6e7461696e73206f6e6c79206f6e6520636f6d6d69746d606482015262195b9d60ea1b608482015260a490fd5b909493919365ffffffffffff600283015460201c166139434284614038565b61395b613955601686015480936134bf565b83612f7e565b918284108080613cad575b15613c3b57508310613bf65761397c9083612f7e565b10613ba55761398c905b8261407b565b94601960f81b5f523060601b60025260165260365f20936002811015611e3d5780613a9c57505060018103613a575715612121576139cd816139d4926134d2565b369161269c565b916060835103613a02578260206139ff94015160606040830151920151926001815491015490614097565b90565b60405162461bcd60e51b815260206004820152602760248201527f46524f5354207369676e6174757265206c656e677468206d75737420626520396044820152663620627974657360c81b6064820152608490fd5b60405162461bcd60e51b815260206004820152601e60248201527f46524f5354207369676e6174757265206d7573742062652073696e676c6500006044820152606490fd5b919391600114613aaf5750505050505f90565b613ac99061ffff6008600488979801549201541690613fee565b925f9260035f9201915b86811015613b9a57613b02613af9613af36139cd8460051b8601866134d2565b8661436b565b909291926143a5565b6001600160a01b0381165f9081526020859052604090205460ff16613b2d575b506001905b01613ad3565b6001600160a01b03165f9081527ff02b465737fa6045c2ff53fb2df43c66916ac2166fa303264668fb2f6a1d8c0060205260409020805c15613b725750600190613b27565b946001613b8092965d612f21565b93858514613b8e575f613b22565b50505050505050600190565b505050505050505f90565b60405162461bcd60e51b8152602060048201526024808201527f74696d657374616d70206973206f6c646572207468616e2070726576696f75736044820152632065726160e01b6064820152608490fd5b60405162461bcd60e51b815260206004820152601e60248201527f63616e6e6f742076616c6964617465206265666f72652067656e6573697300006044820152606490fd5b9392915050428211613c5e5761398c92613c56575b50613986565b90505f613c50565b60405162461bcd60e51b815260206004820152602160248201527f74696d657374616d702063616e6e6f7420626520696e207468652066757475726044820152606560f81b6064820152608490fd5b50613cbc601887015485612f7e565b4210613966565b5f5160206144ab5f395f51905f52546001600160a01b03163303613ce357565b63118cdaa760e01b5f523360045260245ffd5b613cfe612834565b50604051613d0b816125a8565b5f815263ffffffff4316602082015265ffffffffffff4216604082015290565b9291908051906020810191825170014551231950b75fc4402da1732fc9bebe1982109182613fae575b505015613f5a5751845551600184015560405190613d976021836020808201945f86528051918291018484015e81015f838201520301601f1981018452836125c3565b613dd4602b604051809360208201956a600b5981380380925939f360a81b87525180918484015e81015f838201520301601f1981018352826125c3565b51905ff06001600160a01b03811615613f21576002830180546001600160a01b0319166001600160a01b039092169190911790555f5b600483018054821015613e48575f90815260208082208301546001600160a01b0316825260038501905260409020805460ff19169055600101613e0a565b5050925f5b8451811015613e91576001906001600160a01b03613e6b82886127a0565b5116828060a01b03165f526003840160205260405f208260ff1982541617905501613e4d565b5092600482018151916001600160401b03831161259457600160401b8311612594578154838355808410613efb575b50602001905f5260205f205f5b838110613ede575050505060050155565b82516001600160a01b031681830155602090920191600101613ecd565b825f528360205f2091820191015b818110613f165750613ec0565b5f8155600101613f09565b60405162461bcd60e51b81526020600482015260116024820152701111541313d65351539517d19052531151607a1b6044820152606490fd5b60405162461bcd60e51b815260206004820152602660248201527f46524f53542061676772656761746564207075626c6963206b657920697320696044820152651b9d985b1a5960d21b6064820152608490fd5b613fb89250614405565b5f80613d54565b803b905f198201908282116126275760019060405193603e601f19910116840160405282845260208401903c90565b61ffff613ffc9216906134bf565b61270f810180911161262757612710900490565b356001600160801b0381168103611e335790565b35906001600160801b0382168203611e3357565b60166140576139ff9365ffffffffffff600285015460201c169061261a565b9101549061263b565b61406a4282614282565b156140755760090190565b600f0190565b906140869082614282565b1561409157600f0190565b60090190565b92939194906140a68587614405565b1561424d57821561424d5770014551231950b75fc4402da1732fc9bebe1983101561424d576001169061010e6040519161012083018381106001600160401b03821117611e335760405260883684376002600188160160888401538760898401526002840160a984015360aa830186905260ca8301527e300046524f53542d736563703235366b312d4b454343414b3235362d76316360ea8301526303430b6160e51b61010a830152812060cc820181815290600260ec84016001815360428420809318845253604270014551231950b75fc4402da1732fc9bebe19922060801c6001600160401b0360801b8260801b16179070014551231950b75fc4402da1732fc9bebe1990600160c01b9060401c09088015613b9a5784601b6080945f9660209870014551231950b75fc4402da1732fc9bebe19910970014551231950b75fc4402da1732fc9bebe19038552018684015280604084015270014551231950b75fc4402da1732fc9bebe19910970014551231950b75fc4402da1732fc9bebe1903606082015282805260015afa505f51915f5260205260018060a01b0360405f20161490565b5050505050505f90565b60ff5f5160206144eb5f395f51905f525460401c161561427357565b631afcd79f60e31b5f5260045ffd5b906014600e83015492015480831461432757818184109311918215911115918190614320575b156142bd57826142b757505090565b14919050565b60405162461bcd60e51b815260206004820152603560248201527f636f756c64206e6f74206964656e746966792076616c696461746f727320666f6044820152740722074686520676976656e2074696d657374616d7605c1b6064820152608490fd5b50816142a8565b606460405162461bcd60e51b815260206004820152602060248201527f657261732074696d657374616d70206d757374206e6f7420626520657175616c6044820152fd5b815191906041830361439b576143949250602082015190606060408401519301515f1a90614428565b9192909190565b50505f9160029190565b6004811015611e3d57806143b7575050565b600181036143ce5763f645eedf60e01b5f5260045ffd5b600281036143e9575063fce698f760e01b5f5260045260245ffd5b6003146143f35750565b6335e2f38360e21b5f5260045260245ffd5b6401000003d01990600790829081818009900908906401000003d0199080091490565b91907f7fffffffffffffffffffffffffffffff5d576e7357a4501ddfe92f46681b20a0841161449f579160209360809260ff5f9560405194855216868401526040830152606082015282805260015afa15611e28575f516001600160a01b0381161561449557905f905f90565b505f906001905f90565b5050505f916003919056fe9016d09d72d40fdae2fd8ceac6b6234c7706214fd39c1cd1e609a0528c1993005c09ca1b9b8127a4fd9f3c384aac59b661441e820e17733753ff5f2e86e1e000f0c57e16840df040f15088dc2f81fe391c3923bec73e23a9662efc9c229c6a00f0c57e16840df040f15088dc2f81fe391c3923bec73e23a9662efc9c229c6a00","linkReferences":{}},"methodIdentifiers":{"areValidators(address[])":"8f381dbe","codeState(bytes32)":"c13911e8","codesStates(bytes32[])":"82bdeaad","commitBatch((bytes32,uint48,bytes32,((address,bytes32,bool,address,uint128,(bytes32,address,uint128)[],(bytes32,address,bytes,uint128,(bytes32,bytes4),bool)[])[],bytes32)[],(bytes32,bool)[],((uint256,bytes32),((address,uint256)[],uint256,address),uint48)[],((uint256,uint256),bytes,address[],uint256)[]),uint8,bytes[])":"0749fc71","computeSettings()":"84d22a4f","createProgram(bytes32,bytes32,address)":"3683c4d2","createProgramWithAbiInterface(bytes32,bytes32,address,address)":"0c18d277","genesisBlockHash()":"28e24b3d","genesisTimestamp()":"cacf66ab","initialize(address,address,address,address,uint256,uint256,uint256,(uint256,uint256),bytes,address[])":"53f7fd48","isValidator(address)":"facd743b","latestCommittedBatchHash()":"71a8cf2d","latestCommittedBatchTimestamp()":"d456fd51","latestRewardedEra()":"1ed6e115","lookupGenesisHash()":"8b1edf1e","middleware()":"f4f20ac0","mirrorImpl()":"e6fabc09","owner()":"8da5cb5b","programCodeId(address)":"9067088e","programsCodeIds(address[])":"baaf0201","programsCount()":"96a2ddfa","reinitialize()":"6c2eb350","renounceOwnership()":"715018a6","requestCodeValidation(bytes32)":"120e3f1e","setMirror(address)":"3d43b418","signingThresholdPercentage()":"efd81abc","timelines()":"9eb939a8","transferOwnership(address)":"f2fde38b","validatedCodesCount()":"007a32e7","validators()":"ca1e7819","validatorsAggregatedPublicKey()":"3bd109fa","validatorsCount()":"ed612f8c","validatorsThreshold()":"edc87225","validatorsVerifiableSecretSharingCommitment()":"a5d53a44","wrappedVara()":"88f50cf0"},"storageLayout":{"storage":[],"types":{}},"id":148}