{"abi":[{"type":"constructor","inputs":[],"stateMutability":"nonpayable"},{"type":"function","name":"areValidators","inputs":[{"name":"_validators","type":"address[]","internalType":"address[]"}],"outputs":[{"name":"","type":"bool","internalType":"bool"}],"stateMutability":"view"},{"type":"function","name":"codeState","inputs":[{"name":"_codeId","type":"bytes32","internalType":"bytes32"}],"outputs":[{"name":"","type":"uint8","internalType":"enum Gear.CodeState"}],"stateMutability":"view"},{"type":"function","name":"codesStates","inputs":[{"name":"_codesIds","type":"bytes32[]","internalType":"bytes32[]"}],"outputs":[{"name":"","type":"uint8[]","internalType":"enum Gear.CodeState[]"}],"stateMutability":"view"},{"type":"function","name":"commitBatch","inputs":[{"name":"_batch","type":"tuple","internalType":"struct Gear.BatchCommitment","components":[{"name":"blockHash","type":"bytes32","internalType":"bytes32"},{"name":"blockTimestamp","type":"uint48","internalType":"uint48"},{"name":"previousCommittedBatchHash","type":"bytes32","internalType":"bytes32"},{"name":"chainCommitment","type":"tuple[]","internalType":"struct Gear.ChainCommitment[]","components":[{"name":"transitions","type":"tuple[]","internalType":"struct Gear.StateTransition[]","components":[{"name":"actorId","type":"address","internalType":"address"},{"name":"newStateHash","type":"bytes32","internalType":"bytes32"},{"name":"exited","type":"bool","internalType":"bool"},{"name":"inheritor","type":"address","internalType":"address"},{"name":"valueToReceive","type":"uint128","internalType":"uint128"},{"name":"valueClaims","type":"tuple[]","internalType":"struct Gear.ValueClaim[]","components":[{"name":"messageId","type":"bytes32","internalType":"bytes32"},{"name":"destination","type":"address","internalType":"address"},{"name":"value","type":"uint128","internalType":"uint128"}]},{"name":"messages","type":"tuple[]","internalType":"struct Gear.Message[]","components":[{"name":"id","type":"bytes32","internalType":"bytes32"},{"name":"destination","type":"address","internalType":"address"},{"name":"payload","type":"bytes","internalType":"bytes"},{"name":"value","type":"uint128","internalType":"uint128"},{"name":"replyDetails","type":"tuple","internalType":"struct Gear.ReplyDetails","components":[{"name":"to","type":"bytes32","internalType":"bytes32"},{"name":"code","type":"bytes4","internalType":"bytes4"}]},{"name":"call","type":"bool","internalType":"bool"}]}]},{"name":"head","type":"bytes32","internalType":"bytes32"}]},{"name":"codeCommitments","type":"tuple[]","internalType":"struct Gear.CodeCommitment[]","components":[{"name":"id","type":"bytes32","internalType":"bytes32"},{"name":"valid","type":"bool","internalType":"bool"}]},{"name":"rewardsCommitment","type":"tuple[]","internalType":"struct Gear.RewardsCommitment[]","components":[{"name":"operators","type":"tuple","internalType":"struct Gear.OperatorRewardsCommitment","components":[{"name":"amount","type":"uint256","internalType":"uint256"},{"name":"root","type":"bytes32","internalType":"bytes32"}]},{"name":"stakers","type":"tuple","internalType":"struct Gear.StakerRewardsCommitment","components":[{"name":"distribution","type":"tuple[]","internalType":"struct Gear.StakerRewards[]","components":[{"name":"vault","type":"address","internalType":"address"},{"name":"amount","type":"uint256","internalType":"uint256"}]},{"name":"totalAmount","type":"uint256","internalType":"uint256"},{"name":"token","type":"address","internalType":"address"}]},{"name":"timestamp","type":"uint48","internalType":"uint48"}]},{"name":"validatorsCommitment","type":"tuple[]","internalType":"struct Gear.ValidatorsCommitment[]","components":[{"name":"aggregatedPublicKey","type":"tuple","internalType":"struct Gear.AggregatedPublicKey","components":[{"name":"x","type":"uint256","internalType":"uint256"},{"name":"y","type":"uint256","internalType":"uint256"}]},{"name":"verifiableSecretSharingCommitment","type":"bytes","internalType":"bytes"},{"name":"validators","type":"address[]","internalType":"address[]"},{"name":"eraIndex","type":"uint256","internalType":"uint256"}]}]},{"name":"_signatureType","type":"uint8","internalType":"enum Gear.SignatureType"},{"name":"_signatures","type":"bytes[]","internalType":"bytes[]"}],"outputs":[],"stateMutability":"nonpayable"},{"type":"function","name":"computeSettings","inputs":[],"outputs":[{"name":"","type":"tuple","internalType":"struct Gear.ComputationSettings","components":[{"name":"threshold","type":"uint64","internalType":"uint64"},{"name":"wvaraPerSecond","type":"uint128","internalType":"uint128"}]}],"stateMutability":"view"},{"type":"function","name":"createProgram","inputs":[{"name":"_codeId","type":"bytes32","internalType":"bytes32"},{"name":"_salt","type":"bytes32","internalType":"bytes32"},{"name":"_overrideInitializer","type":"address","internalType":"address"}],"outputs":[{"name":"","type":"address","internalType":"address"}],"stateMutability":"nonpayable"},{"type":"function","name":"createProgramWithAbiInterface","inputs":[{"name":"_codeId","type":"bytes32","internalType":"bytes32"},{"name":"_salt","type":"bytes32","internalType":"bytes32"},{"name":"_overrideInitializer","type":"address","internalType":"address"},{"name":"_abiInterface","type":"address","internalType":"address"}],"outputs":[{"name":"","type":"address","internalType":"address"}],"stateMutability":"nonpayable"},{"type":"function","name":"genesisBlockHash","inputs":[],"outputs":[{"name":"","type":"bytes32","internalType":"bytes32"}],"stateMutability":"view"},{"type":"function","name":"genesisTimestamp","inputs":[],"outputs":[{"name":"","type":"uint48","internalType":"uint48"}],"stateMutability":"view"},{"type":"function","name":"initialize","inputs":[{"name":"_owner","type":"address","internalType":"address"},{"name":"_mirror","type":"address","internalType":"address"},{"name":"_wrappedVara","type":"address","internalType":"address"},{"name":"_middleware","type":"address","internalType":"address"},{"name":"_eraDuration","type":"uint256","internalType":"uint256"},{"name":"_electionDuration","type":"uint256","internalType":"uint256"},{"name":"_validationDelay","type":"uint256","internalType":"uint256"},{"name":"_aggregatedPublicKey","type":"tuple","internalType":"struct Gear.AggregatedPublicKey","components":[{"name":"x","type":"uint256","internalType":"uint256"},{"name":"y","type":"uint256","internalType":"uint256"}]},{"name":"_verifiableSecretSharingCommitment","type":"bytes","internalType":"bytes"},{"name":"_validators","type":"address[]","internalType":"address[]"}],"outputs":[],"stateMutability":"nonpayable"},{"type":"function","name":"isValidator","inputs":[{"name":"_validator","type":"address","internalType":"address"}],"outputs":[{"name":"","type":"bool","internalType":"bool"}],"stateMutability":"view"},{"type":"function","name":"latestCommittedBatchHash","inputs":[],"outputs":[{"name":"","type":"bytes32","internalType":"bytes32"}],"stateMutability":"view"},{"type":"function","name":"latestCommittedBatchTimestamp","inputs":[],"outputs":[{"name":"","type":"uint48","internalType":"uint48"}],"stateMutability":"view"},{"type":"function","name":"lookupGenesisHash","inputs":[],"outputs":[],"stateMutability":"nonpayable"},{"type":"function","name":"mirrorImpl","inputs":[],"outputs":[{"name":"","type":"address","internalType":"address"}],"stateMutability":"view"},{"type":"function","name":"owner","inputs":[],"outputs":[{"name":"","type":"address","internalType":"address"}],"stateMutability":"view"},{"type":"function","name":"programCodeId","inputs":[{"name":"_programId","type":"address","internalType":"address"}],"outputs":[{"name":"","type":"bytes32","internalType":"bytes32"}],"stateMutability":"view"},{"type":"function","name":"programsCodeIds","inputs":[{"name":"_programsIds","type":"address[]","internalType":"address[]"}],"outputs":[{"name":"","type":"bytes32[]","internalType":"bytes32[]"}],"stateMutability":"view"},{"type":"function","name":"programsCount","inputs":[],"outputs":[{"name":"","type":"uint256","internalType":"uint256"}],"stateMutability":"view"},{"type":"function","name":"reinitialize","inputs":[],"outputs":[],"stateMutability":"nonpayable"},{"type":"function","name":"renounceOwnership","inputs":[],"outputs":[],"stateMutability":"nonpayable"},{"type":"function","name":"requestCodeValidation","inputs":[{"name":"_codeId","type":"bytes32","internalType":"bytes32"}],"outputs":[],"stateMutability":"nonpayable"},{"type":"function","name":"setMirror","inputs":[{"name":"newMirror","type":"address","internalType":"address"}],"outputs":[],"stateMutability":"nonpayable"},{"type":"function","name":"signingThresholdPercentage","inputs":[],"outputs":[{"name":"","type":"uint16","internalType":"uint16"}],"stateMutability":"view"},{"type":"function","name":"timelines","inputs":[],"outputs":[{"name":"","type":"tuple","internalType":"struct Gear.Timelines","components":[{"name":"era","type":"uint256","internalType":"uint256"},{"name":"election","type":"uint256","internalType":"uint256"},{"name":"validationDelay","type":"uint256","internalType":"uint256"}]}],"stateMutability":"view"},{"type":"function","name":"transferOwnership","inputs":[{"name":"newOwner","type":"address","internalType":"address"}],"outputs":[],"stateMutability":"nonpayable"},{"type":"function","name":"validatedCodesCount","inputs":[],"outputs":[{"name":"","type":"uint256","internalType":"uint256"}],"stateMutability":"view"},{"type":"function","name":"validators","inputs":[],"outputs":[{"name":"","type":"address[]","internalType":"address[]"}],"stateMutability":"view"},{"type":"function","name":"validatorsAggregatedPublicKey","inputs":[],"outputs":[{"name":"","type":"tuple","internalType":"struct Gear.AggregatedPublicKey","components":[{"name":"x","type":"uint256","internalType":"uint256"},{"name":"y","type":"uint256","internalType":"uint256"}]}],"stateMutability":"view"},{"type":"function","name":"validatorsCount","inputs":[],"outputs":[{"name":"","type":"uint256","internalType":"uint256"}],"stateMutability":"view"},{"type":"function","name":"validatorsThreshold","inputs":[],"outputs":[{"name":"","type":"uint256","internalType":"uint256"}],"stateMutability":"view"},{"type":"function","name":"validatorsVerifiableSecretSharingCommitment","inputs":[],"outputs":[{"name":"","type":"bytes","internalType":"bytes"}],"stateMutability":"view"},{"type":"function","name":"wrappedVara","inputs":[],"outputs":[{"name":"","type":"address","internalType":"address"}],"stateMutability":"view"},{"type":"event","name":"AnnouncesCommitted","inputs":[{"name":"head","type":"bytes32","indexed":false,"internalType":"bytes32"}],"anonymous":false},{"type":"event","name":"BatchCommitted","inputs":[{"name":"hash","type":"bytes32","indexed":false,"internalType":"bytes32"}],"anonymous":false},{"type":"event","name":"CodeGotValidated","inputs":[{"name":"codeId","type":"bytes32","indexed":false,"internalType":"bytes32"},{"name":"valid","type":"bool","indexed":true,"internalType":"bool"}],"anonymous":false},{"type":"event","name":"CodeValidationRequested","inputs":[{"name":"codeId","type":"bytes32","indexed":false,"internalType":"bytes32"}],"anonymous":false},{"type":"event","name":"ComputationSettingsChanged","inputs":[{"name":"threshold","type":"uint64","indexed":false,"internalType":"uint64"},{"name":"wvaraPerSecond","type":"uint128","indexed":false,"internalType":"uint128"}],"anonymous":false},{"type":"event","name":"Initialized","inputs":[{"name":"version","type":"uint64","indexed":false,"internalType":"uint64"}],"anonymous":false},{"type":"event","name":"NextEraValidatorsCommitted","inputs":[{"name":"startTimestamp","type":"uint256","indexed":false,"internalType":"uint256"}],"anonymous":false},{"type":"event","name":"OwnershipTransferred","inputs":[{"name":"previousOwner","type":"address","indexed":true,"internalType":"address"},{"name":"newOwner","type":"address","indexed":true,"internalType":"address"}],"anonymous":false},{"type":"event","name":"ProgramCreated","inputs":[{"name":"actorId","type":"address","indexed":false,"internalType":"address"},{"name":"codeId","type":"bytes32","indexed":true,"internalType":"bytes32"}],"anonymous":false},{"type":"event","name":"StorageSlotChanged","inputs":[],"anonymous":false},{"type":"error","name":"ECDSAInvalidSignature","inputs":[]},{"type":"error","name":"ECDSAInvalidSignatureLength","inputs":[{"name":"length","type":"uint256","internalType":"uint256"}]},{"type":"error","name":"ECDSAInvalidSignatureS","inputs":[{"name":"s","type":"bytes32","internalType":"bytes32"}]},{"type":"error","name":"InvalidInitialization","inputs":[]},{"type":"error","name":"NotInitializing","inputs":[]},{"type":"error","name":"OwnableInvalidOwner","inputs":[{"name":"owner","type":"address","internalType":"address"}]},{"type":"error","name":"OwnableUnauthorizedAccount","inputs":[{"name":"account","type":"address","internalType":"address"}]},{"type":"error","name":"ReentrancyGuardReentrantCall","inputs":[]}],"bytecode":{"object":"0x6080806040523460aa575f5160206143a85f395f51905f525460ff8160401c16609b576002600160401b03196001600160401b038216016049575b6040516142f990816100af8239f35b6001600160401b0319166001600160401b039081175f5160206143a85f395f51905f525581527fc7f505b2f371ae2175ee4913f4499e1f2633a7b5936321eed1cdaeb6115181d290602090a15f80603a565b63f92ee8a960e01b5f5260045ffd5b5f80fdfe6080806040526004361015610012575f80fd5b5f905f3560e01c9081627a32e7146122cb575080630749fc7114611ce55780630c18d277146117df578063120e3f1e1461165357806328e24b3d146116255780633683c4d2146113985780633bd109fa146113495780633d43b418146112f557806353f7fd4814610d6c5780636c2eb35014610a1a578063715018a6146109b157806371a8cf2d1461098357806382bdeaad1461086b57806384d22a4f1461080257806388f50cf0146107c95780638b1edf1e146106fe5780638da5cb5b146106c95780638f381dbe146106835780639067088e1461063a57806396a2ddfa1461060c5780639eb939a8146105a0578063a5d53a4414610532578063baaf020114610431578063c13911e8146103ed578063ca1e78191461036a578063cacf66ab14610332578063d456fd51146102fc578063e6fabc09146102c3578063ed612f8c1461028b578063edc8722514610241578063efd81abc1461020f578063f2fde38b146101e25763facd743b14610188575f80fd5b346101df5760203660031901126101df576101a1612351565b60036101bc5f5160206142b95f395f51905f52544290613e69565b019060018060a01b03165f52602052602060ff60405f2054166040519015158152f35b80fd5b50346101df5760203660031901126101df5761020c6101ff612351565b610207613ad9565b6126da565b80f35b50346101df57806003193601126101df57602061ffff60085f5160206142b95f395f51905f5254015416604051908152f35b50346101df57806003193601126101df5760206102835f5160206142b95f395f51905f525461ffff600860046102774285613e69565b01549201541690613e04565b604051908152f35b50346101df57806003193601126101df57602060046102b95f5160206142b95f395f51905f52544290613e69565b0154604051908152f35b50346101df57806003193601126101df575f5160206142b95f395f51905f5254600501546040516001600160a01b039091168152602090f35b50346101df57806003193601126101df57602065ffffffffffff60045f5160206142b95f395f51905f5254015416604051908152f35b50346101df57806003193601126101df57602065ffffffffffff60025f5160206142b95f395f51905f52540154821c16604051908152f35b50346101df57806003193601126101df5761039f60046103995f5160206142b95f395f51905f52544290613e69565b016125c5565b90604051918291602083016020845282518091526020604085019301915b8181106103cb575050500390f35b82516001600160a01b03168452859450602093840193909201916001016103bd565b50346101df5760203660031901126101df5760ff604060209260195f5160206142b95f395f51905f5254016004358252845220541661042f604051809261237b565bf35b50346101df5760203660031901126101df576004356001600160401b03811161052e576104629036906004016122f5565b905f5160206142b95f395f51905f52549061047c8361255a565b9161048a6040519384612457565b8383526104968461255a565b602084019490601f1901368637601a869201915b8181106104f557868587604051928392602084019060208552518091526040840192915b8181106104dc575050500390f35b82518452859450602093840193909201916001016104ce565b8061050b6105066001938588612618565b61263c565b828060a01b03165f528360205260405f20546105278288612628565b52016104aa565b5080fd5b50346101df57806003193601126101df5760406105735f5160206142b95f395f51905f5254600261056b60018060a01b03924290613e69565b015416613dd5565b6020825193849282845280519283918282870152018585015e828201840152601f01601f19168101030190f35b50346101df57806003193601126101df576105b96126bc565b5060605f5160206142b95f395f51905f52546040516105d78161243c565b601682015491828252604060186017830154926020850193845201549201918252604051928352516020830152516040820152f35b50346101df57806003193601126101df576020601b5f5160206142b95f395f51905f52540154604051908152f35b50346101df5760203660031901126101df57610654612351565b601a5f5160206142b95f395f51905f5254019060018060a01b03165f52602052602060405f2054604051908152f35b50346101df5760203660031901126101df57600435906001600160401b0382116101df5760206106bf6106b936600486016122f5565b90612650565b6040519015158152f35b50346101df57806003193601126101df575f5160206142995f395f51905f52546040516001600160a01b039091168152602090f35b50346101df57806003193601126101df575f5160206142b95f395f51905f525460018101908154610784576002015463ffffffff164090811561073f575580f35b60405162461bcd60e51b815260206004820152601d60248201527f756e61626c6520746f206c6f6f6b75702067656e6573697320686173680000006044820152606490fd5b60405162461bcd60e51b815260206004820152601860248201527f67656e65736973206861736820616c72656164792073657400000000000000006044820152606490fd5b50346101df57806003193601126101df575f5160206142b95f395f51905f5254600601546040516001600160a01b039091168152602090f35b50346101df57806003193601126101df5761081b612478565b50604060155f5160206142b95f395f51905f5254016001600160801b038251916108448361240d565b548160206001600160401b038316948581520191851c168152835192835251166020820152f35b50346101df5760203660031901126101df576004356001600160401b03811161052e5761089c9036906004016122f5565b905f5160206142b95f395f51905f5254906108b68361255a565b916108c46040519384612457565b8383526108d08461255a565b602084019490601f19013686376019869201915b81811061093957868587604051928392602084019060208552518091526040840192915b818110610916575050500390f35b919350916020808261092b600194885161237b565b019401910191849392610908565b610944818386612618565b3587528260205260ff60408820541661095d8287612628565b600382101561096f57526001016108e4565b634e487b7160e01b89526021600452602489fd5b50346101df57806003193601126101df57602060035f5160206142b95f395f51905f52540154604051908152f35b50346101df57806003193601126101df576109ca613ad9565b5f5160206142995f395f51905f5280546001600160a01b0319811690915581906001600160a01b03167f8be0079c531659141344cd1fd0a4f28419497f9722a3daafe3b4186f6b6457e08280a380f35b50346101df57806003193601126101df57610a33613ad9565b5f5160206142d95f395f51905f525460ff8160401c16908115610d57575b50610d48575f5160206142d95f395f51905f52805468ffffffffffffffffff1916680100000000000000021790555f5160206142995f395f51905f5254610aab906001600160a01b0316610aa3614045565b610207614045565b5f5160206142b95f395f51905f52546040908151610ac98382612457565b6017815260208101907f726f757465722e73746f726167652e526f7574657256320000000000000000008252610afd613ad9565b5190205f198101908111610d3457916020917fc7f505b2f371ae2175ee4913f4499e1f2633a7b5936321eed1cdaeb6115181d293825190848201908152848252610b478483612457565b60ff19915190201690815f5160206142b95f395f51905f5255610b68613b0c565b80516001840155600283019063ffffffff868201511669ffffffffffff00000000868454930151881b169169ffffffffffffffffffff191617179055600581016005830190808203610ce6575b505061ffff600882015416600883019061ffff19825416179055610c1e610bdc4283613e69565b610bf36001600160a01b03600261056b4287613e69565b610c096004610c024287613e69565b0192612490565b90610c1442936125c5565b9160098701613b41565b601581016015830190808203610c94575b5050601681016016830191818303610c74575b5050505060ff60401b195f5160206142d95f395f51905f5254165f5160206142d95f395f51905f52555160028152a180f35b60189283925490556017810154601785015501549101555f808080610c42565b806001600160401b03806001600160801b03935416166001600160401b031984541617835554851c16600160401b600160c01b03825491861b1690600160401b600160c01b0319161790555f80610c2f565b5481546001600160a01b03199081166001600160a01b039283161790925560068381015490850180548416918316919091179055600780840154908501805490931691161790555f80610bb5565b634e487b7160e01b84526011600452602484fd5b63f92ee8a960e01b8152600490fd5b600291506001600160401b031610155f610a51565b50346101df576101603660031901126101df57610d87612351565b6024356001600160a01b03811691908290036112f157610da5612325565b610dad61233b565b60c435916084359160a43560403660e31901126112ed5761012435946001600160401b0386116112e957366023870112156112e9578560040135916001600160401b0383116112e55736602484890101116112e557610144356001600160401b0381116112e157610e229036906004016122f5565b9690945f5160206142d95f395f51905f5254996001600160401b0360ff8c60401c16159b16801590816112d9575b60011490816112cf575b1590816112c6575b506112b757610ea4908b60016001600160401b03195f5160206142d95f395f51905f525416175f5160206142d95f395f51905f5255611287575b610aa3614045565b610eac614045565b42156112315782156111db578282111561117a57600a610ecc84846124ae565b048410156111355760409a8b51610ee38d82612457565b6017815260208101907f726f757465722e73746f726167652e526f7574657256310000000000000000008252610f17613ad9565b5190205f198101908111611121578c51602080820192835281528d939291610f3f8583612457565b60ff19915190201698895f5160206142b95f395f51905f5255610f60613b0c565b805160018c015560028b0190602081015163ffffffff1686835492015160201b69ffffffffffff00000000169169ffffffffffffffffffff191617179055835190610faa8261243c565b8282526001600160a01b03908116602083018190529381169490910184905260058a018054919092166001600160a01b0319918216179091556006890180548216909217909155600788018054909116909117905560088601805461ffff1916611a0a179055611018612478565b5089516110248161240d565b639502f90081526509184e72a0006020909101526015860180546001600160c01b0319166d09184e72a000000000009502f900179055895183908b906110698161243c565b838152846020820152015260168601556017850155601884015586519461108f8661240d565b60e43586526101043560208701526110ab913691602401612515565b90429336906110b992612571565b91600901936110c794613b41565b6110cf575080f35b60207fc7f505b2f371ae2175ee4913f4499e1f2633a7b5936321eed1cdaeb6115181d29160ff60401b195f5160206142d95f395f51905f5254165f5160206142d95f395f51905f52555160018152a180f35b634e487b7160e01b8e52601160045260248efd5b60405162461bcd60e51b815260206004820152601b60248201527f76616c69646174696f6e2064656c617920697320746f6f2062696700000000006044820152606490fd5b60405162461bcd60e51b815260206004820152603360248201527f657261206475726174696f6e206d757374206265206772656174657220746861604482015272371032b632b1ba34b7b710323ab930ba34b7b760691b6064820152608490fd5b60405162461bcd60e51b815260206004820152602860248201527f656c656374696f6e206475726174696f6e206d75737420626520677265617465604482015267072207468616e20360c41b6064820152608490fd5b60405162461bcd60e51b815260206004820152602860248201527f63757272656e742074696d657374616d70206d75737420626520677265617465604482015267072207468616e20360c41b6064820152608490fd5b600160401b60ff60401b195f5160206142d95f395f51905f525416175f5160206142d95f395f51905f5255610e9c565b63f92ee8a960e01b8d5260048dfd5b9050155f610e62565b303b159150610e5a565b8c9150610e50565b8a80fd5b8980fd5b8880fd5b8780fd5b8280fd5b50346101df5760203660031901126101df5761130f612351565b611317613ad9565b5f5160206142b95f395f51905f525460050180546001600160a01b0319166001600160a01b0390921691909117905580f35b50346101df57806003193601126101df57611362612478565b5060406113866113815f5160206142b95f395f51905f52544290613e69565b612490565b60208251918051835201516020820152f35b50346101df5760603660031901126101df576004356113b5612325565b5f5160206142b95f395f51905f52546113d360018201541515612388565b8284526019810160205260ff6040852054166003811015611611576002036115b5576040516020810190848252602435604082015260408152611417606082612457565b51902060405160608101908082106001600160401b038311176115b157605a916040527f3d605080600a3d3981f3608060405263e6fabc0960e01b5f5260205f6004817381523060601b6b5afa15604c575f80805136821760208201527f80378136915af43d5f803e156048573d5ff35b3d5ffd5b5f80fd000000000000604082015286f59081156115ad576001600160a01b0382165f908152601a820160205260409020849055601b0180546114cd90612dfc565b90556040516001600160a01b03821680825293907f8008ec1d8798725ebfa0f2d128d52e8e717dcba6e0f786557eeee70614b02bf190602090a2506001600160a01b0381166115a85750335b5f5160206142b95f395f51905f5254600501546001600160a01b0316823b156115a457604051631c9776b560e31b81526001600160a01b039092166004830152602482015260016044820152828160648183865af1801561159957611584575b602082604051908152f35b61158f838092612457565b61052e5781611579565b6040513d85823e3d90fd5b8380fd5b611519565b8480fd5b8680fd5b60405162461bcd60e51b815260206004820152602e60248201527f636f6465206d7573742062652076616c696461746564206265666f726520707260448201526d37b3b930b69031b932b0ba34b7b760911b6064820152608490fd5b634e487b7160e01b85526021600452602485fd5b50346101df57806003193601126101df57602060015f5160206142b95f395f51905f52540154604051908152f35b50346101df5760203660031901126101df576004358149156117635760195f5160206142b95f395f51905f525461168f60018201541515612388565b018183528060205260ff604084205416600381101561174f576116ee5781835260209081526040808420805460ff19166001179055519182527f5c261a095dd5720475295dc06379921c003c22164ee6cae5cf83e76ce0a1b98591a180f35b60405162461bcd60e51b815260206004820152603360248201527f676976656e20636f646520696420697320616c7265616479206f6e2076616c6960448201527219185d1a5bdb881bdc881d985b1a59185d1959606a1b6064820152608490fd5b634e487b7160e01b84526021600452602484fd5b60405162461bcd60e51b815260206004820152604860248201527f626c6f622063616e277420626520666f756e642c20726f75746572206578706560448201527f63746564204549502d34383434207472616e73616374696f6e2077697468205760648201526720a9a690313637b160c11b608482015260a490fd5b34611cc7576080366003190112611cc7576004356117fb612325565b9061180461233b565b915f5160206142b95f395f51905f525461182360018201541515612388565b825f526019810160205260ff60405f2054166003811015611cd1576002036115b5576040516020810190848252602435604082015260408152611867606082612457565b5190206040516102e08101908082106001600160401b03831117611cc7576102c4916040527f6080806040526102b290816100128239f3fe608060405260043610610268575f81527f3560e01c806329336f391461009b5780632a68e35d1461009657806336a52a1860208201527f14610091578063701da98e1461008c578063704ed5421461008757806391d5a660408201527f4c146100825780639ce110d71461007d578063affed0e0146100785763e43f3460608201527f330361026857610253565b610236565b61020e565b6101f8565b6101df565b6160808201527f01c2565b61019b565b610150565b346100dc5760603660031901126100dc576060a08201527f243567ffffffffffffffff81116100dc576100cc9036906004016100e0565b5060c08201527f506100d661010e565b50610268565b5f80fd5b9181601f840112156100dc578260e08201527f359167ffffffffffffffff83116100dc57602083818601950101116100dc57566101008201527f5b604435906001600160801b03821682036100dc57565b6024359060016001606101208201527f801b03821682036100dc57565b600435906001600160801b03821682036100dc6101408201527f57565b346100dc5760603660031901126100dc5760043567ffffffffffffffff6101608201527f81116100dc576101819036906004016100e0565b505061018b610124565b50606101808201527f443580151514610268575f80fd5b346100dc575f3660031901126100dc575f546101a08201527f6040516001600160a01b039091168152602090f35b346100dc575f36600319016101c08201527f126100dc576020600254604051908152f35b346100dc576020366003190112616101e08201527edc576100d661013a565b346100dc57602036600319011215610268575f80fd6102008201527f5b346100dc575f3660031901126100dc576001546040516001600160a01b03906102208201527f91168152602090f35b346100dc575f3660031901126100dc57602060035460406102408201527f51908152f35b346100dc575f36600319011215610268575f80fd5b63e6fabc09610260820152306b60e01b5f5260205f6004817360a01b176102808201527f5afa156100dc575f808051368280378136915af43d5f803e156102ae573d5ff36102a0820152635b3d5ffd60e01b6102c08201525ff5908115611cc7576001600160a01b0382165f908152601a820160205260409020849055601b018054611c0c90612dfc565b90556040516001600160a01b03821680825293907f8008ec1d8798725ebfa0f2d128d52e8e717dcba6e0f786557eeee70614b02bf190602090a2506001600160a01b038116611ccb575033915b813b15611cc757604051631c9776b560e31b81526001600160a01b039384166004820152921660248301525f604483018190528260648183855af1918215611cbc57602092611cac575b50604051908152f35b5f611cb691612457565b5f611ca3565b6040513d5f823e3d90fd5b5f80fd5b91611c59565b634e487b7160e01b5f52602160045260245ffd5b34611cc7576060366003190112611cc7576004356001600160401b038111611cc757806004019060e06003198236030112611cc757602435916002831015611cc7576044356001600160401b038111611cc757611d469036906004016122f5565b93907f9b779b17422d0df92223018b32b4d1fa46e071723d6817e2486d003becc55f005c6122bc5760017f9b779b17422d0df92223018b32b4d1fa46e071723d6817e2486d003becc55f005d5f5160206142b95f395f51905f525492611db160018501541515612388565b8354156121ee575b6003840195865492604487013580940361219b57600486019465ffffffffffff86541698602489019965ffffffffffff611df28c6123fa565b161061211b57611e0685899b9a989b6127bd565b9860609a60845f99019760198b019c5b611e208a8a612dba565b90508b1015611fc957611e338a8a612dba565b8c9291921015611fb5578e918c60061b0190813592835f5260205260ff60405f2054166003811015611cd157600103611f52578f828f939160206040930194611e7b86612def565b15611f3b57601c91875f52602052835f20600260ff1982541617905501611ea28154612dfc565b90555b611eae84612def565b15157f460119a8f69a33ed127de517d5ea464e958ce23ef19e4420a8b92bf780bbc2c960208451888152a2360312611cc7576001926020611f3393611f0160405191611ef98361240d565b848352612e0a565b91829101526040519060208201928352151560f81b604082015260218152611f2a604182612457565b51902090612e17565b9a0199611e16565b50855f52602052815f2060ff198154169055611ea5565b60405162461bcd60e51b815260206004820152603560248201527f636f6465206d7573742062652072657175657374656420666f722076616c6964604482015274185d1a5bdb881d1bc818994818dbdb5b5a5d1d1959605a1b6064820152608490fd5b634e487b7160e01b5f52603260045260245ffd5b6120ac99509160208c9965ffffffffffff95938f8c6120a597858151910120611ffc85611ff68185612e7e565b9361330d565b92612006896123fa565b9460405195888701973588528c60d01b9060d01b16604087015260468601526066850152608684015260a683015260c682015260c6815261204860e682612457565b5190208096612056856123fa565b87604051916120648361240d565b8483521693849101525584198254161790557f7ebe42360bcb182fe0a88148b081e4557c89d09aa6af8307635ac2f83e2aaa656020604051868152a16123fa565b1694613730565b156120d6575f7f9b779b17422d0df92223018b32b4d1fa46e071723d6817e2486d003becc55f005d005b60405162461bcd60e51b815260206004820152601e60248201527f7369676e61747572657320766572696669636174696f6e206661696c656400006044820152606490fd5b60405162461bcd60e51b815260206004820152604c60248201527f62617463682074696d657374616d70206d75737420626520677265617465722060448201527f6f7220657175616c20746f206c617465737420636f6d6d69747465642062617460648201526b063682074696d657374616d760a41b608482015260a490fd5b60405162461bcd60e51b815260206004820152602560248201527f696e76616c69642070726576696f757320636f6d6d6974746564206261746368604482015264040d0c2e6d60db1b6064820152608490fd5b6121f8813561274b565b156122685765ffffffffffff612210602487016123fa565b164211611db95760405162461bcd60e51b815260206004820152602360248201527f62617463682074696d657374616d70206d75737420626520696e207468652070604482015262185cdd60ea1b6064820152608490fd5b60405162461bcd60e51b815260206004820152602660248201527f616c6c6f776564207072656465636573736f7220626c6f636b207761736e277460448201526508199bdd5b9960d21b6064820152608490fd5b633ee5aeb560e01b5f5260045ffd5b34611cc7575f366003190112611cc757602090601c5f5160206142b95f395f51905f525401548152f35b9181601f84011215611cc7578235916001600160401b038311611cc7576020808501948460051b010111611cc757565b604435906001600160a01b0382168203611cc757565b606435906001600160a01b0382168203611cc757565b600435906001600160a01b0382168203611cc757565b35906001600160a01b0382168203611cc757565b906003821015611cd15752565b1561238f57565b60405162461bcd60e51b815260206004820152603860248201527f726f757465722067656e65736973206973207a65726f3b2063616c6c20606c6f60448201527f6f6b757047656e657369734861736828296020666972737400000000000000006064820152608490fd5b3565ffffffffffff81168103611cc75790565b604081019081106001600160401b0382111761242857604052565b634e487b7160e01b5f52604160045260245ffd5b606081019081106001600160401b0382111761242857604052565b90601f801991011681019081106001600160401b0382111761242857604052565b604051906124858261240d565b5f6020838281520152565b9060405161249d8161240d565b602060018294805484520154910152565b919082039182116124bb57565b634e487b7160e01b5f52601160045260245ffd5b81156124d9570490565b634e487b7160e01b5f52601260045260245ffd5b9190826040910312611cc7576040516125058161240d565b6020808294803584520135910152565b9291926001600160401b038211612428576040519161253e601f8201601f191660200184612457565b829481845281830111611cc7578281602093845f960137010152565b6001600160401b0381116124285760051b60200190565b92919061257d8161255a565b9361258b6040519586612457565b602085838152019160051b8101928311611cc757905b8282106125ad57505050565b602080916125ba84612367565b8152019101906125a1565b90604051918281549182825260208201905f5260205f20925f5b8181106125f65750506125f492500383612457565b565b84546001600160a01b03168352600194850194879450602090930192016125df565b9190811015611fb55760051b0190565b8051821015611fb55760209160051b010190565b356001600160a01b0381168103611cc75790565b6126695f5160206142b95f395f51905f52544290613e69565b600301905f5b83811061267f5750505050600190565b61268d610506828685612618565b6001600160a01b03165f9081526020849052604090205460ff16156126b45760010161266f565b505050505f90565b604051906126c98261243c565b5f6040838281528260208201520152565b6001600160a01b03168015612738575f5160206142995f395f51905f5280546001600160a01b0319811683179091556001600160a01b03167f8be0079c531659141344cd1fd0a4f28419497f9722a3daafe3b4186f6b6457e05f80a3565b631e4fbdf760e01b5f525f60045260245ffd5b905f1943014381116124bb57805b612764575b505f9150565b804083810361277557506001925050565b15612783575f190180612759565b61275e565b903590601e1981360301821215611cc757018035906001600160401b038211611cc757602001918160051b36038313611cc757565b9190606081019060016127d08383612788565b905011612d58576127e18282612788565b905015612d3157906127f291612788565b15611fb557803590603e1981360301821215611cc757929192016128168180612788565b9290916060925f9560de198236030192601a8501955b87891015612ccd578860051b84013585811215611cc757840161284e8161263c565b6001600160a01b03165f9081526020899052604090205415612c7057608081016001600160801b0361287f82613e26565b16612b8d575b6001600160a01b036128968361263c565b6040516302c649c960e01b81526020600482015293911691610104840191906001600160801b0390612915906001600160a01b036128d385612367565b166024880152602084013560448801526128ef60408501612e0a565b151560648801526001600160a01b0361290a60608601612367565b166084880152613e3a565b1660a485015236819003601e190160a082013581811215611cc7578201602081359101936001600160401b038211611cc7576060820236038513611cc757819060e060c489015252610124860193905f905b808210612b435750505060c082013590811215611cc75701803560208201926001600160401b038211611cc7578160051b908136038513611cc757918694936023198685030160e487015281845260208085019385010194935f9160fe19813603015b848410612a38575050505050505091815f8160209503925af1908115611cbc575f91612a06575b506129fe90600192612e17565b98019761282c565b90506020813d8211612a30575b81612a2060209383612457565b81010312611cc7575160016129f1565b3d9150612a13565b9193959750919395601f19848203018752873582811215611cc7578301602081013582526001600160a01b03612a7060408301612367565b1660208301526060810135603e193683900301811215611cc7578101602081013591906040016001600160401b038311611cc7578236038113611cc757829060e060408601528160e08601526101008501375f61010083850101526001600160801b03612adf60808301613e3a565b16606084015260a0810135608084015260c081013563ffffffff60e01b8116809103611cc75783602093612b2160e086956101009560a060019a015201612e0a565b151560c0830152601f80199101160101990197019401918997969593916129ca565b90919460608060019288358152838060a01b03612b6260208b01612367565b1660208201526001600160801b03612b7c60408b01613e3a565b166040820152019601920190612967565b60068801546001600160801b03906020906001600160a01b03166044612bb28661263c565b5f612bbc87613e26565b60405163a9059cbb60e01b81526001600160a01b0390931660048401529590951660248201529384928391905af1908115611cbc575f91612c42575b506128855760405162461bcd60e51b815260206004820152601860248201527f7472616e7366657220746f206163746f72206661696c656400000000000000006044820152606490fd5b612c63915060203d8111612c69575b612c5b8183612457565b810190612e66565b5f612bf8565b503d612c51565b60405162461bcd60e51b815260206004820152602f60248201527f636f756c646e277420706572666f726d207472616e736974696f6e20666f722060448201526e756e6b6e6f776e2070726f6772616d60881b6064820152608490fd5b9450955095505050602091508181519101209101357fd04cd9af813f6f0b56e9411a6ee6a84eb5ac35a96f0c33d2e3a07d65baa8f4186020604051838152a16040519060208201928352604082015260408152612d2b606082612457565b51902090565b507fc5d2460186f7233c927e7db2dcc703c0e500b653ca82273b7bfad8045d85a470925050565b60405162461bcd60e51b815260206004820152603460248201527f636861696e436f6d6d69746d656e7420636f756c6420636f6e7461696e206174604482015273081b5bdcdd081bdb994818dbdb5b5a5d1b595b9d60621b6064820152608490fd5b903590601e1981360301821215611cc757018035906001600160401b038211611cc757602001918160061b36038313611cc757565b358015158103611cc75790565b5f1981146124bb5760010190565b35908115158203611cc757565b6020806125f4928195946040519682889351918291018585015e8201908382015203018085520183612457565b903590605e1981360301821215611cc7570190565b919082018092116124bb57565b90816020910312611cc757518015158103611cc75790565b60a082016001612e8e8285612788565b90501161325e57612e9f8184612788565b90501561323757612eb09083612788565b15611fb557803590607e1981360301821215611cc7570191606083019065ffffffffffff612edd836123fa565b16156131e65765ffffffffffff80612f006020612ef9866123fa565b94016123fa565b1691161015613187576007820154600690920180548435946001600160a01b0394851694604082019391925f91602091166044612f4983612f418989612e44565b01358b612e59565b604051948593849263095ea7b360e01b84528c600485015260248401525af18015611cbc5761316a575b505460405163394f179b60e11b81526001600160a01b03909116600482015260248101959095526020818101356044870152856064815f885af1948515611cbc575f95613132575b5090612fc691612e44565b91612fd0826123fa565b9260405193637fbe95b560e01b85526040600486015260a48501918035601e1982360301811215611cc7578101602081359101936001600160401b038211611cc7578160061b36038513611cc75760606044890152819052869360c485019392915f5b8181106130fa57505050836020959365ffffffffffff829484895f9601356064860152613069604060018060a01b039201612367565b16608485015216602483015203925af1918215611cbc575f926130c4575b50613091906123fa565b6040519160208301938452604083015265ffffffffffff60d01b9060d01b16606082015260468152612d2b606682612457565b9091506020813d6020116130f2575b816130e060209383612457565b81010312611cc7575190613091613087565b3d91506130d3565b919550919293604080600192838060a01b036131158a612367565b168152602089013560208201520196019101918895949392613033565b919094506020823d602011613162575b8161314f60209383612457565b81010312611cc757905193612fc6612fbb565b3d9150613142565b6131829060203d602011612c6957612c5b8183612457565b612f73565b60405162461bcd60e51b815260206004820152603160248201527f7265776172647320636f6d6d69746d656e742074696d657374616d70206d75736044820152701d08189948199bdc881d1a19481c185cdd607a1b6064820152608490fd5b60405162461bcd60e51b8152602060048201526024808201527f7265776172647320636f6d6d69746d656e742074696d657374616d70206973206044820152637a65726f60e01b6064820152608490fd5b5050507fc5d2460186f7233c927e7db2dcc703c0e500b653ca82273b7bfad8045d85a47090565b608460405162461bcd60e51b815260206004820152604060248201527f7265776172647320636f6d6d69746d656e74206d75737420626520656d70747960448201527f206f7220636f6e7461696e73206f6e6c79206f6e6520636f6d6d69746d656e746064820152fd5b818102929181159184041417156124bb57565b903590601e1981360301821215611cc757018035906001600160401b038211611cc757602001918136038313611cc757565b9060c08101600161331e8284612788565b9050116136b95761332f8183612788565b9050156132375761333f91612788565b15611fb557803590609e1981360301821215611cc7570160608101906133658282612788565b9050156136665765ffffffffffff600284015460201c169161338783426124ae565b613396601686015480926124cf565b93608084013594600181018091116124bb57850361360e576133bb856133c1936132c8565b90612e59565b936133d06017820154866124ae565b42106135c9576133df90613e4e565b9342600586015410156135695760208161345a7f41e7f919bf726af8aa2ef36bd31905a693013e30c45c6284060e613d4941997b9361342e9861344461344c6134548a604081019d8e826132db565b939061343a8d84612788565b96909336906124ed565b943691612515565b933691612571565b92613b41565b604051908152a160a082360312611cc75760405193608085018581106001600160401b038211176124285760405261349236846124ed565b8552356001600160401b038111611cc757820136601f82011215611cc7576134c1903690602081359101612515565b602085015235906001600160401b038211611cc7570136601f82011215611cc7576134f3903690602081359101612571565b91826040820152816060820152519160208351930151906040519283926020840195865260408401526060830160208351919301905f5b81811061354757505050815203808252612d2b9060200182612457565b82516001600160a01b031685528695506020948501949092019160010161352a565b60405162461bcd60e51b815260206004820152603260248201527f6c6f6f6b73206c696b652076616c696461746f727320666f72206e65787420656044820152711c9848185c9948185b1c9958591e481cd95d60721b6064820152608490fd5b60405162461bcd60e51b815260206004820152601b60248201527f656c656374696f6e206973206e6f7420796574207374617274656400000000006044820152606490fd5b60405162461bcd60e51b815260206004820152602a60248201527f636f6d6d69746d656e742065726120696e646578206973206e6f74206e657874604482015269040cae4c240d2dcc8caf60b31b6064820152608490fd5b60405162461bcd60e51b815260206004820152602560248201527f6e65772076616c696461746f7273206c697374206d757374206e6f7420626520604482015264656d70747960d81b6064820152608490fd5b60405162461bcd60e51b815260206004820152604360248201527f76616c696461746f727320636f6d6d69746d656e74206d75737420626520656d60448201527f707479206f7220636f6e7461696e73206f6e6c79206f6e6520636f6d6d69746d606482015262195b9d60ea1b608482015260a490fd5b909493919365ffffffffffff600283015460201c1661376661377161376b61375884426124ae565b6016870154938480926124cf565b6132c8565b83612e59565b918284108080613ac3575b15613a5157508310613a0c576137929083612e59565b106139bb576137a2905b82613e69565b94601960f81b5f523060601b60025260165260365f20936002811015611cd157806138b25750506001810361386d5715611fb5576137e3816137ea926132db565b3691612515565b9160608351036138185782602061381594015160606040830151920151926001815491015490613e85565b90565b60405162461bcd60e51b815260206004820152602760248201527f46524f5354207369676e6174757265206c656e677468206d75737420626520396044820152663620627974657360c81b6064820152608490fd5b60405162461bcd60e51b815260206004820152601e60248201527f46524f5354207369676e6174757265206d7573742062652073696e676c6500006044820152606490fd5b9193916001146138c55750505050505f90565b6138df9061ffff6008600488979801549201541690613e04565b925f9260035f9201915b868110156139b05761391861390f6139096137e38460051b8601866132db565b86614159565b90929192614193565b6001600160a01b0381165f9081526020859052604090205460ff16613943575b506001905b016138e9565b6001600160a01b03165f9081527ff02b465737fa6045c2ff53fb2df43c66916ac2166fa303264668fb2f6a1d8c0060205260409020805c15613988575060019061393d565b94600161399692965d612dfc565b938585146139a4575f613938565b50505050505050600190565b505050505050505f90565b60405162461bcd60e51b8152602060048201526024808201527f74696d657374616d70206973206f6c646572207468616e2070726576696f75736044820152632065726160e01b6064820152608490fd5b60405162461bcd60e51b815260206004820152601e60248201527f63616e6e6f742076616c6964617465206265666f72652067656e6573697300006044820152606490fd5b9392915050428211613a74576137a292613a6c575b5061379c565b90505f613a66565b60405162461bcd60e51b815260206004820152602160248201527f74696d657374616d702063616e6e6f7420626520696e207468652066757475726044820152606560f81b6064820152608490fd5b50613ad2601887015485612e59565b421061377c565b5f5160206142995f395f51905f52546001600160a01b03163303613af957565b63118cdaa760e01b5f523360045260245ffd5b613b146126bc565b50604051613b218161243c565b5f815263ffffffff4316602082015265ffffffffffff4216604082015290565b9291908051906020810191825170014551231950b75fc4402da1732fc9bebe1982109182613dc4575b505015613d705751845551600184015560405190613bad6021836020808201945f86528051918291018484015e81015f838201520301601f198101845283612457565b613bea602b604051809360208201956a600b5981380380925939f360a81b87525180918484015e81015f838201520301601f198101835282612457565b51905ff06001600160a01b03811615613d37576002830180546001600160a01b0319166001600160a01b039092169190911790555f5b600483018054821015613c5e575f90815260208082208301546001600160a01b0316825260038501905260409020805460ff19169055600101613c20565b5050925f5b8451811015613ca7576001906001600160a01b03613c818288612628565b5116828060a01b03165f526003840160205260405f208260ff1982541617905501613c63565b5092600482018151916001600160401b03831161242857600160401b8311612428578154838355808410613d11575b50602001905f5260205f205f5b838110613cf4575050505060050155565b82516001600160a01b031681830155602090920191600101613ce3565b825f528360205f2091820191015b818110613d2c5750613cd6565b5f8155600101613d1f565b60405162461bcd60e51b81526020600482015260116024820152701111541313d65351539517d19052531151607a1b6044820152606490fd5b60405162461bcd60e51b815260206004820152602660248201527f46524f53542061676772656761746564207075626c6963206b657920697320696044820152651b9d985b1a5960d21b6064820152608490fd5b613dce92506141f3565b5f80613b6a565b803b905f198201908282116124bb5760019060405193603e601f19910116840160405282845260208401903c90565b61ffff613e129216906132c8565b61270f81018091116124bb57612710900490565b356001600160801b0381168103611cc75790565b35906001600160801b0382168203611cc757565b613e584282614070565b15613e635760090190565b600f0190565b90613e749082614070565b15613e7f57600f0190565b60090190565b9293919490613e9485876141f3565b1561403b57821561403b5770014551231950b75fc4402da1732fc9bebe1983101561403b576001169061010e6040519161012083018381106001600160401b03821117611cc75760405260883684376002600188160160888401538760898401526002840160a984015360aa830186905260ca8301527e300046524f53542d736563703235366b312d4b454343414b3235362d76316360ea8301526303430b6160e51b61010a830152812060cc820181815290600260ec84016001815360428420809318845253604270014551231950b75fc4402da1732fc9bebe19922060801c6001600160401b0360801b8260801b16179070014551231950b75fc4402da1732fc9bebe1990600160c01b9060401c090880156139b05784601b6080945f9660209870014551231950b75fc4402da1732fc9bebe19910970014551231950b75fc4402da1732fc9bebe19038552018684015280604084015270014551231950b75fc4402da1732fc9bebe19910970014551231950b75fc4402da1732fc9bebe1903606082015282805260015afa505f51915f5260205260018060a01b0360405f20161490565b5050505050505f90565b60ff5f5160206142d95f395f51905f525460401c161561406157565b631afcd79f60e31b5f5260045ffd5b906014600e8301549201548083146141155781818410931191821591111591819061410e575b156140ab57826140a557505090565b14919050565b60405162461bcd60e51b815260206004820152603560248201527f636f756c64206e6f74206964656e746966792076616c696461746f727320666f6044820152740722074686520676976656e2074696d657374616d7605c1b6064820152608490fd5b5081614096565b606460405162461bcd60e51b815260206004820152602060248201527f657261732074696d657374616d70206d757374206e6f7420626520657175616c6044820152fd5b8151919060418303614189576141829250602082015190606060408401519301515f1a90614216565b9192909190565b50505f9160029190565b6004811015611cd157806141a5575050565b600181036141bc5763f645eedf60e01b5f5260045ffd5b600281036141d7575063fce698f760e01b5f5260045260245ffd5b6003146141e15750565b6335e2f38360e21b5f5260045260245ffd5b6401000003d01990600790829081818009900908906401000003d0199080091490565b91907f7fffffffffffffffffffffffffffffff5d576e7357a4501ddfe92f46681b20a0841161428d579160209360809260ff5f9560405194855216868401526040830152606082015282805260015afa15611cbc575f516001600160a01b0381161561428357905f905f90565b505f906001905f90565b5050505f916003919056fe9016d09d72d40fdae2fd8ceac6b6234c7706214fd39c1cd1e609a0528c1993005c09ca1b9b8127a4fd9f3c384aac59b661441e820e17733753ff5f2e86e1e000f0c57e16840df040f15088dc2f81fe391c3923bec73e23a9662efc9c229c6a00f0c57e16840df040f15088dc2f81fe391c3923bec73e23a9662efc9c229c6a00","linkReferences":{}},"methodIdentifiers":{"areValidators(address[])":"8f381dbe","codeState(bytes32)":"c13911e8","codesStates(bytes32[])":"82bdeaad","commitBatch((bytes32,uint48,bytes32,((address,bytes32,bool,address,uint128,(bytes32,address,uint128)[],(bytes32,address,bytes,uint128,(bytes32,bytes4),bool)[])[],bytes32)[],(bytes32,bool)[],((uint256,bytes32),((address,uint256)[],uint256,address),uint48)[],((uint256,uint256),bytes,address[],uint256)[]),uint8,bytes[])":"0749fc71","computeSettings()":"84d22a4f","createProgram(bytes32,bytes32,address)":"3683c4d2","createProgramWithAbiInterface(bytes32,bytes32,address,address)":"0c18d277","genesisBlockHash()":"28e24b3d","genesisTimestamp()":"cacf66ab","initialize(address,address,address,address,uint256,uint256,uint256,(uint256,uint256),bytes,address[])":"53f7fd48","isValidator(address)":"facd743b","latestCommittedBatchHash()":"71a8cf2d","latestCommittedBatchTimestamp()":"d456fd51","lookupGenesisHash()":"8b1edf1e","mirrorImpl()":"e6fabc09","owner()":"8da5cb5b","programCodeId(address)":"9067088e","programsCodeIds(address[])":"baaf0201","programsCount()":"96a2ddfa","reinitialize()":"6c2eb350","renounceOwnership()":"715018a6","requestCodeValidation(bytes32)":"120e3f1e","setMirror(address)":"3d43b418","signingThresholdPercentage()":"efd81abc","timelines()":"9eb939a8","transferOwnership(address)":"f2fde38b","validatedCodesCount()":"007a32e7","validators()":"ca1e7819","validatorsAggregatedPublicKey()":"3bd109fa","validatorsCount()":"ed612f8c","validatorsThreshold()":"edc87225","validatorsVerifiableSecretSharingCommitment()":"a5d53a44","wrappedVara()":"88f50cf0"},"storageLayout":{"storage":[],"types":{}},"id":155}