{"abi":[{"type":"constructor","inputs":[],"stateMutability":"nonpayable"},{"type":"function","name":"areValidators","inputs":[{"name":"_validators","type":"address[]","internalType":"address[]"}],"outputs":[{"name":"","type":"bool","internalType":"bool"}],"stateMutability":"view"},{"type":"function","name":"codeState","inputs":[{"name":"_codeId","type":"bytes32","internalType":"bytes32"}],"outputs":[{"name":"","type":"uint8","internalType":"enum Gear.CodeState"}],"stateMutability":"view"},{"type":"function","name":"codesStates","inputs":[{"name":"_codesIds","type":"bytes32[]","internalType":"bytes32[]"}],"outputs":[{"name":"","type":"uint8[]","internalType":"enum Gear.CodeState[]"}],"stateMutability":"view"},{"type":"function","name":"commitBlocks","inputs":[{"name":"_blockCommitments","type":"tuple[]","internalType":"struct Gear.BlockCommitment[]","components":[{"name":"hash","type":"bytes32","internalType":"bytes32"},{"name":"timestamp","type":"uint48","internalType":"uint48"},{"name":"previousCommittedBlock","type":"bytes32","internalType":"bytes32"},{"name":"predecessorBlock","type":"bytes32","internalType":"bytes32"},{"name":"transitions","type":"tuple[]","internalType":"struct Gear.StateTransition[]","components":[{"name":"actorId","type":"address","internalType":"address"},{"name":"newStateHash","type":"bytes32","internalType":"bytes32"},{"name":"inheritor","type":"bytes","internalType":"bytes"},{"name":"valueToReceive","type":"uint128","internalType":"uint128"},{"name":"valueClaims","type":"tuple[]","internalType":"struct Gear.ValueClaim[]","components":[{"name":"messageId","type":"bytes32","internalType":"bytes32"},{"name":"destination","type":"address","internalType":"address"},{"name":"value","type":"uint128","internalType":"uint128"}]},{"name":"messages","type":"tuple[]","internalType":"struct Gear.Message[]","components":[{"name":"id","type":"bytes32","internalType":"bytes32"},{"name":"destination","type":"address","internalType":"address"},{"name":"payload","type":"bytes","internalType":"bytes"},{"name":"value","type":"uint128","internalType":"uint128"},{"name":"replyDetails","type":"tuple","internalType":"struct Gear.ReplyDetails","components":[{"name":"to","type":"bytes32","internalType":"bytes32"},{"name":"code","type":"bytes4","internalType":"bytes4"}]}]}]}]},{"name":"_signatures","type":"bytes[]","internalType":"bytes[]"}],"outputs":[],"stateMutability":"nonpayable"},{"type":"function","name":"commitCodes","inputs":[{"name":"_codeCommitments","type":"tuple[]","internalType":"struct Gear.CodeCommitment[]","components":[{"name":"id","type":"bytes32","internalType":"bytes32"},{"name":"valid","type":"bool","internalType":"bool"}]},{"name":"_signatures","type":"bytes[]","internalType":"bytes[]"}],"outputs":[],"stateMutability":"nonpayable"},{"type":"function","name":"computeSettings","inputs":[],"outputs":[{"name":"","type":"tuple","internalType":"struct Gear.ComputationSettings","components":[{"name":"threshold","type":"uint64","internalType":"uint64"},{"name":"wvaraPerSecond","type":"uint128","internalType":"uint128"}]}],"stateMutability":"view"},{"type":"function","name":"createProgram","inputs":[{"name":"_codeId","type":"bytes32","internalType":"bytes32"},{"name":"_salt","type":"bytes32","internalType":"bytes32"}],"outputs":[{"name":"","type":"address","internalType":"address"}],"stateMutability":"nonpayable"},{"type":"function","name":"createProgramWithDecoder","inputs":[{"name":"_decoderImpl","type":"address","internalType":"address"},{"name":"_codeId","type":"bytes32","internalType":"bytes32"},{"name":"_salt","type":"bytes32","internalType":"bytes32"}],"outputs":[{"name":"","type":"address","internalType":"address"}],"stateMutability":"nonpayable"},{"type":"function","name":"genesisBlockHash","inputs":[],"outputs":[{"name":"","type":"bytes32","internalType":"bytes32"}],"stateMutability":"view"},{"type":"function","name":"initialize","inputs":[{"name":"_owner","type":"address","internalType":"address"},{"name":"_mirror","type":"address","internalType":"address"},{"name":"_mirrorProxy","type":"address","internalType":"address"},{"name":"_wrappedVara","type":"address","internalType":"address"},{"name":"_validators","type":"address[]","internalType":"address[]"}],"outputs":[],"stateMutability":"nonpayable"},{"type":"function","name":"isValidator","inputs":[{"name":"_validator","type":"address","internalType":"address"}],"outputs":[{"name":"","type":"bool","internalType":"bool"}],"stateMutability":"view"},{"type":"function","name":"latestCommittedBlockHash","inputs":[],"outputs":[{"name":"","type":"bytes32","internalType":"bytes32"}],"stateMutability":"view"},{"type":"function","name":"lookupGenesisHash","inputs":[],"outputs":[],"stateMutability":"nonpayable"},{"type":"function","name":"mirrorImpl","inputs":[],"outputs":[{"name":"","type":"address","internalType":"address"}],"stateMutability":"view"},{"type":"function","name":"mirrorProxyImpl","inputs":[],"outputs":[{"name":"","type":"address","internalType":"address"}],"stateMutability":"view"},{"type":"function","name":"owner","inputs":[],"outputs":[{"name":"","type":"address","internalType":"address"}],"stateMutability":"view"},{"type":"function","name":"programCodeId","inputs":[{"name":"_programId","type":"address","internalType":"address"}],"outputs":[{"name":"","type":"bytes32","internalType":"bytes32"}],"stateMutability":"view"},{"type":"function","name":"programsCodeIds","inputs":[{"name":"_programsIds","type":"address[]","internalType":"address[]"}],"outputs":[{"name":"","type":"bytes32[]","internalType":"bytes32[]"}],"stateMutability":"view"},{"type":"function","name":"programsCount","inputs":[],"outputs":[{"name":"","type":"uint256","internalType":"uint256"}],"stateMutability":"view"},{"type":"function","name":"reinitialize","inputs":[],"outputs":[],"stateMutability":"nonpayable"},{"type":"function","name":"renounceOwnership","inputs":[],"outputs":[],"stateMutability":"nonpayable"},{"type":"function","name":"requestCodeValidation","inputs":[{"name":"_codeId","type":"bytes32","internalType":"bytes32"},{"name":"_blobTxHash","type":"bytes32","internalType":"bytes32"}],"outputs":[],"stateMutability":"nonpayable"},{"type":"function","name":"setMirror","inputs":[{"name":"newMirror","type":"address","internalType":"address"}],"outputs":[],"stateMutability":"nonpayable"},{"type":"function","name":"signingThresholdPercentage","inputs":[],"outputs":[{"name":"","type":"uint16","internalType":"uint16"}],"stateMutability":"view"},{"type":"function","name":"transferOwnership","inputs":[{"name":"newOwner","type":"address","internalType":"address"}],"outputs":[],"stateMutability":"nonpayable"},{"type":"function","name":"validatedCodesCount","inputs":[],"outputs":[{"name":"","type":"uint256","internalType":"uint256"}],"stateMutability":"view"},{"type":"function","name":"validators","inputs":[],"outputs":[{"name":"","type":"address[]","internalType":"address[]"}],"stateMutability":"view"},{"type":"function","name":"validatorsCount","inputs":[],"outputs":[{"name":"","type":"uint256","internalType":"uint256"}],"stateMutability":"view"},{"type":"function","name":"validatorsThreshold","inputs":[],"outputs":[{"name":"","type":"uint256","internalType":"uint256"}],"stateMutability":"view"},{"type":"function","name":"wrappedVara","inputs":[],"outputs":[{"name":"","type":"address","internalType":"address"}],"stateMutability":"view"},{"type":"event","name":"BlockCommitted","inputs":[{"name":"hash","type":"bytes32","indexed":false,"internalType":"bytes32"}],"anonymous":false},{"type":"event","name":"CodeGotValidated","inputs":[{"name":"codeId","type":"bytes32","indexed":false,"internalType":"bytes32"},{"name":"valid","type":"bool","indexed":true,"internalType":"bool"}],"anonymous":false},{"type":"event","name":"CodeValidationRequested","inputs":[{"name":"codeId","type":"bytes32","indexed":false,"internalType":"bytes32"},{"name":"blobTxHash","type":"bytes32","indexed":false,"internalType":"bytes32"}],"anonymous":false},{"type":"event","name":"ComputationSettingsChanged","inputs":[{"name":"threshold","type":"uint64","indexed":false,"internalType":"uint64"},{"name":"wvaraPerSecond","type":"uint128","indexed":false,"internalType":"uint128"}],"anonymous":false},{"type":"event","name":"Initialized","inputs":[{"name":"version","type":"uint64","indexed":false,"internalType":"uint64"}],"anonymous":false},{"type":"event","name":"OwnershipTransferred","inputs":[{"name":"previousOwner","type":"address","indexed":true,"internalType":"address"},{"name":"newOwner","type":"address","indexed":true,"internalType":"address"}],"anonymous":false},{"type":"event","name":"ProgramCreated","inputs":[{"name":"actorId","type":"address","indexed":false,"internalType":"address"},{"name":"codeId","type":"bytes32","indexed":true,"internalType":"bytes32"}],"anonymous":false},{"type":"event","name":"StorageSlotChanged","inputs":[],"anonymous":false},{"type":"event","name":"ValidatorsChanged","inputs":[],"anonymous":false},{"type":"error","name":"ECDSAInvalidSignature","inputs":[]},{"type":"error","name":"ECDSAInvalidSignatureLength","inputs":[{"name":"length","type":"uint256","internalType":"uint256"}]},{"type":"error","name":"ECDSAInvalidSignatureS","inputs":[{"name":"s","type":"bytes32","internalType":"bytes32"}]},{"type":"error","name":"FailedDeployment","inputs":[]},{"type":"error","name":"InsufficientBalance","inputs":[{"name":"balance","type":"uint256","internalType":"uint256"},{"name":"needed","type":"uint256","internalType":"uint256"}]},{"type":"error","name":"InvalidInitialization","inputs":[]},{"type":"error","name":"NotInitializing","inputs":[]},{"type":"error","name":"OwnableInvalidOwner","inputs":[{"name":"owner","type":"address","internalType":"address"}]},{"type":"error","name":"OwnableUnauthorizedAccount","inputs":[{"name":"account","type":"address","internalType":"address"}]},{"type":"error","name":"ReentrancyGuardReentrantCall","inputs":[]}],"bytecode":{"object":"0x6080806040523460aa575f516020612a065f395f51905f525460ff8160401c16609b576002600160401b03196001600160401b038216016049575b60405161295790816100af8239f35b6001600160401b0319166001600160401b039081175f516020612a065f395f51905f525581527fc7f505b2f371ae2175ee4913f4499e1f2633a7b5936321eed1cdaeb6115181d290602090a15f80603a565b63f92ee8a960e01b5f5260045ffd5b5f80fdfe610160806040526004361015610013575f80fd5b5f60a0525f3560e01c9081627a32e714611e42575080631c149d8a14611ce957806328e24b3d14611cbf5780633d43b41814611c6d578063527de0f914611be757806365ecfea214611bad5780636c2eb35014611921578063715018a6146118b257806382bdeaad146117a557806384d22a4f1461173b57806388f50cf0146117015780638b1edf1e146116365780638da5cb5b146116005780638f381dbe146115bb5780639067088e1461157357806396a2ddfa14611544578063baaf020114611445578063c13911e8146113fd578063c5a77c1314610a55578063c9f16a1114610a26578063ca1e7819146109ab578063e6fabc0914610971578063e7006a7414610857578063e97d3eb314610619578063ed612f8c146105ea578063edc87225146105b4578063efd81abc14610581578063f2fde38b1461055d578063f8453e7c146101bd5763facd743b1461016a575f80fd5b346101b75760203660031901126101b757610183611e82565b60095f5160206128e25f395f51905f5254019060018060a01b03165f52602052602060ff60405f2054166040519015158152f35b60a05180fd5b346101b75760a03660031901126101b7576101d6611e82565b6024356001600160a01b03811691908290036101b7576044356001600160a01b03811692908390036101b7576064356001600160a01b038116908190036101b7576084356001600160401b0381116101b757610236903690600401611eac565b915f5160206129025f395f51905f525460ff8160401c1615956001600160401b03821680159081610555575b600114908161054b575b159081610542575b5061052f5767ffffffffffffffff1982166001175f5160206129025f395f51905f52556102b79187610503575b506102aa612717565b6102b2612717565b61219e565b60409586516102c68882611fa5565b6017815260208101907f726f757465722e73746f726167652e526f75746572563100000000000000000082526102fa61220f565b5190205f1981019081116104eb5787519060208201908152602082526103208983611fa5565b60ff19915190201694855f5160206128e25f395f51905f5255610341612376565b80518755600187019063ffffffff60208201511669ffffffffffff000000008b845493015160201b169169ffffffffffffffffffff1916171790558288805161038981611f8a565b8381526020810185905201526004860180546001600160a01b03199081166001600160a01b0393841617909155600587018054821693831693909317909255600686018054909216921691909117905560078301805461ffff1916611a0a1790556103f382612019565b9161040086519384611fa5565b808352602083019060051b8201913683116101b757905b8282106104d3575050509061042e600a92826123bb565b610436612068565b506509184e72a0006020855161044b81611f5b565b639502f900815201520180546001600160c01b0319166d09184e72a000000000009502f90017905561047e575b60a05180f35b60207fc7f505b2f371ae2175ee4913f4499e1f2633a7b5936321eed1cdaeb6115181d29160ff60401b195f5160206129025f395f51905f5254165f5160206129025f395f51905f52555160018152a180610478565b602080916104e084611e98565b815201910190610417565b634e487b7160e01b60a051526011600452602460a051fd5b68ffffffffffffffffff191668010000000000000001175f5160206129025f395f51905f5255886102a1565b63f92ee8a960e01b60a05152600460a051fd5b90501589610274565b303b15915061026c565b889150610262565b346101b75760203660031901126101b757610478610579611e82565b6102b261220f565b346101b75760a0513660031901126101b757602061ffff60075f5160206128e25f395f51905f5254015416604051908152f35b346101b75760a0513660031901126101b75760206105e260075f5160206128e25f395f51905f52540161263f565b604051908152f35b346101b75760a0513660031901126101b757602060085f5160206128e25f395f51905f52540154604051908152f35b346101b75760403660031901126101b7576004356001600160401b0381116101b757366023820112156101b75780600401356001600160401b0381116101b7573660248260061b840101116101b7576024356001600160401b0381116101b757610687903690600401611eac565b905f5160206128e25f395f51905f5254936106a485541515611ee9565b60a051600b860193909260605b8685101561083b5760a051508460061b84016024810135918260a051528760205260ff604060a0512054166003811015610823576001036107c05760019261076f604461079c94016107028161216f565b156107a45760a0805184905260208c90525160409020805460ff19166002179055600e8d0180546107329061217c565b90555b61073e8161216f565b15157f460119a8f69a33ed127de517d5ea464e958ce23ef19e4420a8b92bf780bbc2c96020604051868152a261216f565b6040519060208201928352151560f81b604082015260218152610793604182611fa5565b519020906120f6565b9401936106b1565b8260a051528a602052604060a0512060ff198154169055610735565b60405162461bcd60e51b815260206004820152603560248201527f636f6465206d7573742062652072657175657374656420666f722076616c6964604482015274185d1a5bdb881d1bc818994818dbdb5b5a5d1d1959605a1b6064820152608490fd5b634e487b7160e01b60a051526021600452602460a051fd5b9161085291886104789460208151910120906124f5565b612123565b346101b75760603660031901126101b757610870611e82565b602435906108b8604435916108858385612242565b9360405193602085019182526040850152604084526108a5606085611fa5565b92519092206001600160a01b0392612742565b1690813b156101b75760405163204a7f0760e21b815260a0518160048183875af1801561094b57610958575b506001600160a01b031690813b156101b75760405163485cc95560e01b8152336004820152602481019190915260a0518160448183865af1801561094b57610932575b602082604051908152f35b60a05161093e91611fa5565b60a0516101b75781610927565b6040513d60a051823e3d90fd5b60a05161096491611fa5565b60a0516101b757826108e4565b346101b75760a0513660031901126101b7575f5160206128e25f395f51905f5254600401546040516001600160a01b039091168152602090f35b346101b75760a0513660031901126101b7576109d760085f5160206128e25f395f51905f525401611fc6565b60405180916020820160208352815180915260206040840192019060a0515b818110610a04575050500390f35b82516001600160a01b03168452859450602093840193909201916001016109f6565b346101b75760a0513660031901126101b757602060025f5160206128e25f395f51905f52540154604051908152f35b346101b75760403660031901126101b7576004356001600160401b0381116101b757610a85903690600401611eac565b6080526024356001600160401b0381116101b757610aa7903690600401611eac565b7f9b779b17422d0df92223018b32b4d1fa46e071723d6817e2486d003becc55f009291925c6113ea578260017f9b779b17422d0df92223018b32b4d1fa46e071723d6817e2486d003becc55f005d5f5160206128e25f395f51905f525461010052610b1761010051541515611ee9565b60a05160e0526060925b60805160e05110156113a65760e05160051b81013536829003609e19018112156101b757810161012052600261010051015460406101205101350361135357610b70606061012051013561266f565b156112ff576020610b858161012051016124e2565b65ffffffffffff60405191610b9983611f5b565b610120513583521691829101526101205135600261010051015565ffffffffffff19600361010051015416176003610100510155608061012051013561014052601e19610120513603016101405112156101b7576001600160401b0361014051610120510135116101b757610140516101205101803560051b36036020909101136101b75760a05160c05260605b6101405161012051013560c051101561124f57610140516101205160c05191013681900360de190160059290921b016020013512156101b757610c8860208060c05160051b6101405161012051010101356101405161012051010101612080565b6001600160a01b03165f90815261010051600c016020526040902054156111f25760018060a01b03600661010051015416610ce160208060c05160051b6101405161012051010101356101405161012051010101612080565b60c05161014051610120510160059190911b81016020013501608001356001600160801b03811681036101b75760405163a9059cbb60e01b81526001600160a01b0390921660048301526001600160801b0316602482015260a0519091602091839160449183915af1801561094b576111ba575b5060018060a01b03610d8560208060c05160051b6101405161012051010101356101405161012051010101612080565b1690604051916350131bd960e11b83526020600484015260018060a01b03610dcb60208060c05160051b6101405161012051010101356101405161012051010101611e98565b16602484015260c080516101408051610120805160406020600596871b9290940191820184013590910101356044890152935191519351610e3394610e2294606094901b91019081018201350191820191016126b2565b60c0606487015260e48601916126e3565b6001600160801b03610e646080602060c05160051b6101405161012051010101356101405161012051010101612703565b16608485015260c05161014051610120510160059190911b8101602001350160a081013590603e193691909103018112156101b7576020908160c05160051b610140516101205101010135610140516101205101010101906001600160401b038235116101b7576060823502360360208301136101b7578481036023190160a48601528135815260a051602091820192918201915b8035821061117057505060c0805161014051610120510160059190911b81016020013501908101359150603e193691909103018112156101b75760c0516101405161012051602060059390931b91019081018201350182016040810193916001600160401b03910135116101b75760208060c05160051b610140516101205101010135610140516101205101018301013560051b9081360384136101b757908693926023198584030160c486015260208060c05160051b61014051610120510101013561014051610120510101820101358352602080840192840101939260a051915b60208060c05160051b61014051610120510101013561014051610120510101820101358310611075575050505050918180602094039160a051905af190811561094b5760a05191611040575b61103292506120f6565b60c080516001019052610c27565b90506020823d821161106d575b8161105a60209383611fa5565b810103126101b757611032915190611028565b3d915061104d565b919395509193601f19838203018552853560de1960208060c05160051b610140516101205101010135610140516101205101018501013603018112156101b75760208060c05160051b61014051610120510101013561014051610120510101840101019060c061111b61110c602085018035855260018060a01b036110fc60408801611e98565b16602086015260608601906126b2565b836040860152838501916126e3565b926001600160801b0361113060808301612703565b16606084015260a0810135608084015201359063ffffffff60e01b82168092036101b75760a0015288959094602091820194910192600190910191610fdc565b90919260608060019286358152838060a01b0361118f60208901611e98565b1660208201526001600160801b036111a960408901612703565b166040820152019401920190610ef9565b6020813d82116111ea575b816111d260209383611fa5565b810103126101b757518015158114610d555760a05180fd5b3d91506111c5565b60405162461bcd60e51b815260206004820152602f60248201527f636f756c646e277420706572666f726d207472616e736974696f6e20666f722060448201526e756e6b6e6f776e2070726f6772616d60881b6064820152608490fd5b936112ee91939294602081519101207fd756eca21e02cb0dbde1e44a4d9c6921b5c8aa4668cfa0752784b3dc855bce1e602060405161012051358152a161129b602061012051016124e2565b906040519060208201926101205135845265ffffffffffff60d01b9060d01b166040830152604061012051013560468301526060610120510135606683015260868201526086815261079360a682611fa5565b92600160e0510160e0529091610b21565b60405162461bcd60e51b815260206004820152602660248201527f616c6c6f776564207072656465636573736f7220626c6f636b207761736e277460448201526508199bdd5b9960d21b6064820152608490fd5b60405162461bcd60e51b815260206004820152602560248201527f696e76616c69642070726576696f757320636f6d6d697474656420626c6f636b604482015264040d0c2e6d60db1b6064820152608490fd5b6113bf61085284848760208151910120610100516124f5565b60a0517f9b779b17422d0df92223018b32b4d1fa46e071723d6817e2486d003becc55f005d60a05180f35b633ee5aeb560e01b60a05152600460a051fd5b346101b75760203660031901126101b757600b5f5160206128e25f395f51905f52540160043560a05152602052602060ff604060a0512054166114436040518092611edc565bf35b346101b75760203660031901126101b7576004356001600160401b0381116101b757611475903690600401611eac565b5f5160206128e25f395f51905f52549161148e82612019565b9261149c6040519485611fa5565b8284526114a883612019565b602085019390601f1901368537600c60a0519201915b81811061150b5784866040519182916020830190602084525180915260408301919060a0515b8181106114f2575050500390f35b82518452859450602093840193909201916001016114e4565b8061152161151c6001938588612030565b612080565b828060a01b03165f528360205260405f205461153d8289612054565b52016114be565b346101b75760a0513660031901126101b7576020600d5f5160206128e25f395f51905f52540154604051908152f35b346101b75760203660031901126101b75761158c611e82565b600c5f5160206128e25f395f51905f5254019060018060a01b03165f52602052602060405f2054604051908152f35b346101b75760203660031901126101b7576004356001600160401b0381116101b7576115f66115f06020923690600401611eac565b90612094565b6040519015158152f35b346101b75760a0513660031901126101b7575f5160206128c25f395f51905f52546040516001600160a01b039091168152602090f35b346101b75760a0513660031901126101b7575f5160206128e25f395f51905f525480546116bc5763ffffffff60018201541640908115611677575560a05180f35b60405162461bcd60e51b815260206004820152601d60248201527f756e61626c6520746f206c6f6f6b75702067656e6573697320686173680000006044820152606490fd5b60405162461bcd60e51b815260206004820152601860248201527f67656e65736973206861736820616c72656164792073657400000000000000006044820152606490fd5b346101b75760a0513660031901126101b7575f5160206128e25f395f51905f5254600601546040516001600160a01b039091168152602090f35b346101b75760a0513660031901126101b757611755612068565b506040600a5f5160206128e25f395f51905f5254016001600160801b0382519161177e83611f5b565b548160206001600160401b038316948581520191851c168152835192835251166020820152f35b346101b75760203660031901126101b7576004356001600160401b0381116101b7576117d5903690600401611eac565b5f5160206128e25f395f51905f5254916117ee82612019565b926117fc6040519485611fa5565b82845261180883612019565b602085019390601f1901368537600b60a0519201915b8181106118755784866040519182916020830190602084525180915260408301919060a0515b818110611852575050500390f35b91935091602080826118676001948851611edc565b019401910191849392611844565b611880818386612030565b3560a051528260205260ff604060a0512054169061189e8188612054565b91600381101561082357600192520161181e565b346101b75760a0513660031901126101b7576118cc61220f565b5f5160206128c25f395f51905f5280546001600160a01b0319811690915560a051906001600160a01b03167f8be0079c531659141344cd1fd0a4f28419497f9722a3daafe3b4186f6b6457e08280a360a05180f35b346101b75760a0513660031901126101b75761193b61220f565b5f5160206129025f395f51905f525460ff8160401c168015611b99575b61052f5768ffffffffffffffffff191668010000000000000002175f5160206129025f395f51905f52555f5160206128e25f395f51905f52546040805161199f8282611fa5565b6017815260208101907f726f757465722e73746f726167652e526f75746572563200000000000000000082526119d361220f565b5190205f198101919082116104eb577fc7f505b2f371ae2175ee4913f4499e1f2633a7b5936321eed1cdaeb6115181d292600a80602094845190868201908152868252611a208683611fa5565b60ff19915190201692835f5160206128e25f395f51905f5255611a41612376565b80518555600185019063ffffffff888201511669ffffffffffff000000008884549301518a1b169169ffffffffffffffffffff191617179055600481016004850190808203611b4b575b505061ffff600782015416600785019061ffff19825416179055611aba611ab460088301611fc6565b856123bb565b01910190808203611af9575b505060ff60401b195f5160206129025f395f51905f5254165f5160206129025f395f51905f52555160028152a160a05180f35b806001600160401b03806001600160801b03935416166001600160401b031984541617835554831c16600160401b600160c01b03825491841b1690600160401b600160c01b0319161790558380611ac6565b5481546001600160a01b03199081166001600160a01b039283161790925560058381015490870180548416918316919091179055600680840154908701805490931691161790558780611a8b565b5060026001600160401b0382161015611958565b346101b75760a0513660031901126101b7575f5160206128e25f395f51905f5254600501546040516001600160a01b039091168152602090f35b34611c6957611c07611bf836611e6c565b6001600160a01b039291612242565b16803b15611c69576040519063485cc95560e01b82523360048301525f60248301525f8260448183855af1918215611c5e57602092611c4a575b50604051908152f35b5f611c5491611fa5565b5f60a05282611c41565b6040513d5f823e3d90fd5b5f80fd5b34611c69576020366003190112611c6957611c86611e82565b611c8e61220f565b5f5160206128e25f395f51905f525460040180546001600160a01b0319166001600160a01b03909216919091179055005b34611c69575f366003190112611c695760205f5160206128e25f395f51905f525454604051908152f35b34611c6957611cf736611e6c565b908115801590611e38575b15611dfd57600b5f5160206128e25f395f51905f5254611d2481541515611ee9565b0190805f528160205260ff60405f2054166003811015611de957611d88577f65672eaf4ff8b823ea29ae013fef437d1fa9ed431125263a7a1f0ac49eada39692604092825f52602052825f20600160ff1982541617905582519182526020820152a1005b60405162461bcd60e51b815260206004820152603360248201527f676976656e20636f646520696420697320616c7265616479206f6e2076616c6960448201527219185d1a5bdb881bdc881d985b1a59185d1959606a1b6064820152608490fd5b634e487b7160e01b5f52602160045260245ffd5b60405162461bcd60e51b8152602060048201526013602482015272189b1bd88818d85b89dd08189948199bdd5b99606a1b6044820152606490fd5b505f491515611d02565b34611c69575f366003190112611c6957602090600e5f5160206128e25f395f51905f525401548152f35b6040906003190112611c69576004359060243590565b600435906001600160a01b0382168203611c6957565b35906001600160a01b0382168203611c6957565b9181601f84011215611c69578235916001600160401b038311611c69576020808501948460051b010111611c6957565b906003821015611de95752565b15611ef057565b60405162461bcd60e51b815260206004820152603860248201527f726f757465722067656e65736973206973207a65726f3b2063616c6c20606c6f60448201527f6f6b757047656e657369734861736828296020666972737400000000000000006064820152608490fd5b604081019081106001600160401b03821117611f7657604052565b634e487b7160e01b5f52604160045260245ffd5b606081019081106001600160401b03821117611f7657604052565b90601f801991011681019081106001600160401b03821117611f7657604052565b90604051918281549182825260208201905f5260205f20925f5b818110611ff7575050611ff592500383611fa5565b565b84546001600160a01b0316835260019485019487945060209093019201611fe0565b6001600160401b038111611f765760051b60200190565b91908110156120405760051b0190565b634e487b7160e01b5f52603260045260245ffd5b80518210156120405760209160051b010190565b6040519061207582611f5b565b5f6020838281520152565b356001600160a01b0381168103611c695790565b5f5160206128e25f395f51905f5254600901905f5b8381106120b95750505050600190565b6120c761151c828685612030565b6001600160a01b03165f9081526020849052604090205460ff16156120ee576001016120a9565b505050505f90565b602080611ff5928195946040519682889351918291018585015e8201908382015203018085520183611fa5565b1561212a57565b60405162461bcd60e51b815260206004820152601e60248201527f7369676e61747572657320766572696669636174696f6e206661696c656400006044820152606490fd5b358015158103611c695790565b5f19811461218a5760010190565b634e487b7160e01b5f52601160045260245ffd5b6001600160a01b031680156121fc575f5160206128c25f395f51905f5280546001600160a01b0319811683179091556001600160a01b03167f8be0079c531659141344cd1fd0a4f28419497f9722a3daafe3b4186f6b6457e05f80a3565b631e4fbdf760e01b5f525f60045260245ffd5b5f5160206128c25f395f51905f52546001600160a01b0316330361222f57565b63118cdaa760e01b5f523360045260245ffd5b5f5160206128e25f395f51905f52549161225e83541515611ee9565b815f52600b830160205260ff60405f2054166003811015611de95760020361231a576122bc600d9160018060a01b036005860154169060405160208101918683526040820152604081526122b3606082611fa5565b51902090612742565b9260018060a01b0384165f52600c81016020528260405f2055016122e0815461217c565b90556040516001600160a01b03831681527f8008ec1d8798725ebfa0f2d128d52e8e717dcba6e0f786557eeee70614b02bf190602090a290565b60405162461bcd60e51b815260206004820152602e60248201527f636f6465206d7573742062652076616c696461746564206265666f726520707260448201526d37b3b930b69031b932b0ba34b7b760911b6064820152608490fd5b5f6040805161238481611f8a565b828152826020820152015260405161239b81611f8a565b5f815263ffffffff4316602082015265ffffffffffff4216604082015290565b906008820190815461249e579091600901905f5b8151811015612410576001906001600160a01b036123ed8285612054565b5116828060a01b03165f528360205260405f208260ff19825416179055016123cf565b5080519291506001600160401b038311611f7657680100000000000000008311611f76578154838355808410612478575b50602001905f5260205f205f5b83811061245b5750505050565b82516001600160a01b03168183015560209092019160010161244e565b825f528360205f2091820191015b8181106124935750612441565b5f8155600101612486565b606460405162461bcd60e51b815260206004820152602060248201527f72656d6f76652070726576696f75732076616c696461746f72732066697273746044820152fd5b3565ffffffffffff81168103611c695790565b9190916125046007820161263f565b9260405190602082019081526020825261251f604083611fa5565b61255b603660405180936020820195601960f81b87523060601b60228401525180918484015e81015f838201520301601f198101835282611fa5565b5190205f9260095f9301925b86811015612634578060051b820135601e1983360301811215611c695782018035906001600160401b038211611c695760208101908236038213611c6957604051906125bd601f8501601f191660200183611fa5565b8382526020843692010111611c69575f6020846125ef956125e6958386013783010152856127a5565b909291926127df565b6001600160a01b03165f9081526020859052604090205460ff16612616575b600101612567565b936126209061217c565b9385850361260e5750505050505050600190565b505050505050505f90565b61ffff60018201549154169081810291818304149015171561218a5761270f810180911161218a57612710900490565b905f19430143811161218a57805b612688575b505f9150565b804083810361269957506001925050565b156126ad57801561218a575f19018061267d565b612682565b9035601e1982360301811215611c695701602081359101916001600160401b038211611c69578136038313611c6957565b908060209392818452848401375f828201840152601f01601f1916010190565b35906001600160801b0382168203611c6957565b60ff5f5160206129025f395f51905f525460401c161561273357565b631afcd79f60e31b5f5260045ffd5b6e5af43d82803e903d91602b57fd5bf390763d602d80600a3d3981f3363d3d373d3d3d363d7300000062ffffff8260881c16175f5260781b17602052603760095ff5906001600160a01b0382161561279657565b63b06ebf3d60e01b5f5260045ffd5b81519190604183036127d5576127ce9250602082015190606060408401519301515f1a9061283f565b9192909190565b50505f9160029190565b6004811015611de957806127f1575050565b600181036128085763f645eedf60e01b5f5260045ffd5b60028103612823575063fce698f760e01b5f5260045260245ffd5b60031461282d5750565b6335e2f38360e21b5f5260045260245ffd5b91907f7fffffffffffffffffffffffffffffff5d576e7357a4501ddfe92f46681b20a084116128b6579160209360809260ff5f9560405194855216868401526040830152606082015282805260015afa15611c5e575f516001600160a01b038116156128ac57905f905f90565b505f906001905f90565b5050505f916003919056fe9016d09d72d40fdae2fd8ceac6b6234c7706214fd39c1cd1e609a0528c1993005c09ca1b9b8127a4fd9f3c384aac59b661441e820e17733753ff5f2e86e1e000f0c57e16840df040f15088dc2f81fe391c3923bec73e23a9662efc9c229c6a00a264697066735822122022567f16253df85a5652868df83a8226e63a2e2f80288d5ab19c33085d2a682364736f6c634300081c0033f0c57e16840df040f15088dc2f81fe391c3923bec73e23a9662efc9c229c6a00","linkReferences":{}},"methodIdentifiers":{"areValidators(address[])":"8f381dbe","codeState(bytes32)":"c13911e8","codesStates(bytes32[])":"82bdeaad","commitBlocks((bytes32,uint48,bytes32,bytes32,(address,bytes32,bytes,uint128,(bytes32,address,uint128)[],(bytes32,address,bytes,uint128,(bytes32,bytes4))[])[])[],bytes[])":"c5a77c13","commitCodes((bytes32,bool)[],bytes[])":"e97d3eb3","computeSettings()":"84d22a4f","createProgram(bytes32,bytes32)":"527de0f9","createProgramWithDecoder(address,bytes32,bytes32)":"e7006a74","genesisBlockHash()":"28e24b3d","initialize(address,address,address,address,address[])":"f8453e7c","isValidator(address)":"facd743b","latestCommittedBlockHash()":"c9f16a11","lookupGenesisHash()":"8b1edf1e","mirrorImpl()":"e6fabc09","mirrorProxyImpl()":"65ecfea2","owner()":"8da5cb5b","programCodeId(address)":"9067088e","programsCodeIds(address[])":"baaf0201","programsCount()":"96a2ddfa","reinitialize()":"6c2eb350","renounceOwnership()":"715018a6","requestCodeValidation(bytes32,bytes32)":"1c149d8a","setMirror(address)":"3d43b418","signingThresholdPercentage()":"efd81abc","transferOwnership(address)":"f2fde38b","validatedCodesCount()":"007a32e7","validators()":"ca1e7819","validatorsCount()":"ed612f8c","validatorsThreshold()":"edc87225","wrappedVara()":"88f50cf0"},"storageLayout":{"storage":[],"types":{}},"id":120}