{"abi":[{"type":"constructor","inputs":[],"stateMutability":"nonpayable"},{"type":"receive","stateMutability":"payable"},{"type":"function","name":"areValidators","inputs":[{"name":"_validators","type":"address[]","internalType":"address[]"}],"outputs":[{"name":"","type":"bool","internalType":"bool"}],"stateMutability":"view"},{"type":"function","name":"codeState","inputs":[{"name":"_codeId","type":"bytes32","internalType":"bytes32"}],"outputs":[{"name":"","type":"uint8","internalType":"enum Gear.CodeState"}],"stateMutability":"view"},{"type":"function","name":"codesStates","inputs":[{"name":"_codesIds","type":"bytes32[]","internalType":"bytes32[]"}],"outputs":[{"name":"","type":"uint8[]","internalType":"enum Gear.CodeState[]"}],"stateMutability":"view"},{"type":"function","name":"commitBatch","inputs":[{"name":"_batch","type":"tuple","internalType":"struct Gear.BatchCommitment","components":[{"name":"blockHash","type":"bytes32","internalType":"bytes32"},{"name":"blockTimestamp","type":"uint48","internalType":"uint48"},{"name":"previousCommittedBatchHash","type":"bytes32","internalType":"bytes32"},{"name":"expiry","type":"uint8","internalType":"uint8"},{"name":"chainCommitment","type":"tuple[]","internalType":"struct Gear.ChainCommitment[]","components":[{"name":"transitions","type":"tuple[]","internalType":"struct Gear.StateTransition[]","components":[{"name":"actorId","type":"address","internalType":"address"},{"name":"newStateHash","type":"bytes32","internalType":"bytes32"},{"name":"exited","type":"bool","internalType":"bool"},{"name":"inheritor","type":"address","internalType":"address"},{"name":"valueToReceive","type":"uint128","internalType":"uint128"},{"name":"valueToReceiveNegativeSign","type":"bool","internalType":"bool"},{"name":"valueClaims","type":"tuple[]","internalType":"struct Gear.ValueClaim[]","components":[{"name":"messageId","type":"bytes32","internalType":"bytes32"},{"name":"destination","type":"address","internalType":"address"},{"name":"value","type":"uint128","internalType":"uint128"}]},{"name":"messages","type":"tuple[]","internalType":"struct Gear.Message[]","components":[{"name":"id","type":"bytes32","internalType":"bytes32"},{"name":"destination","type":"address","internalType":"address"},{"name":"payload","type":"bytes","internalType":"bytes"},{"name":"value","type":"uint128","internalType":"uint128"},{"name":"replyDetails","type":"tuple","internalType":"struct Gear.ReplyDetails","components":[{"name":"to","type":"bytes32","internalType":"bytes32"},{"name":"code","type":"bytes4","internalType":"bytes4"}]},{"name":"call","type":"bool","internalType":"bool"}]}]},{"name":"head","type":"bytes32","internalType":"bytes32"}]},{"name":"codeCommitments","type":"tuple[]","internalType":"struct Gear.CodeCommitment[]","components":[{"name":"id","type":"bytes32","internalType":"bytes32"},{"name":"valid","type":"bool","internalType":"bool"}]},{"name":"rewardsCommitment","type":"tuple[]","internalType":"struct Gear.RewardsCommitment[]","components":[{"name":"operators","type":"tuple","internalType":"struct Gear.OperatorRewardsCommitment","components":[{"name":"amount","type":"uint256","internalType":"uint256"},{"name":"root","type":"bytes32","internalType":"bytes32"}]},{"name":"stakers","type":"tuple","internalType":"struct Gear.StakerRewardsCommitment","components":[{"name":"distribution","type":"tuple[]","internalType":"struct Gear.StakerRewards[]","components":[{"name":"vault","type":"address","internalType":"address"},{"name":"amount","type":"uint256","internalType":"uint256"}]},{"name":"totalAmount","type":"uint256","internalType":"uint256"},{"name":"token","type":"address","internalType":"address"}]},{"name":"timestamp","type":"uint48","internalType":"uint48"}]},{"name":"validatorsCommitment","type":"tuple[]","internalType":"struct Gear.ValidatorsCommitment[]","components":[{"name":"aggregatedPublicKey","type":"tuple","internalType":"struct Gear.AggregatedPublicKey","components":[{"name":"x","type":"uint256","internalType":"uint256"},{"name":"y","type":"uint256","internalType":"uint256"}]},{"name":"verifiableSecretSharingCommitment","type":"bytes","internalType":"bytes"},{"name":"validators","type":"address[]","internalType":"address[]"},{"name":"eraIndex","type":"uint256","internalType":"uint256"}]}]},{"name":"_signatureType","type":"uint8","internalType":"enum Gear.SignatureType"},{"name":"_signatures","type":"bytes[]","internalType":"bytes[]"}],"outputs":[],"stateMutability":"nonpayable"},{"type":"function","name":"computeSettings","inputs":[],"outputs":[{"name":"","type":"tuple","internalType":"struct Gear.ComputationSettings","components":[{"name":"threshold","type":"uint64","internalType":"uint64"},{"name":"wvaraPerSecond","type":"uint128","internalType":"uint128"}]}],"stateMutability":"view"},{"type":"function","name":"createProgram","inputs":[{"name":"_codeId","type":"bytes32","internalType":"bytes32"},{"name":"_salt","type":"bytes32","internalType":"bytes32"},{"name":"_overrideInitializer","type":"address","internalType":"address"}],"outputs":[{"name":"","type":"address","internalType":"address"}],"stateMutability":"nonpayable"},{"type":"function","name":"createProgramWithAbiInterface","inputs":[{"name":"_codeId","type":"bytes32","internalType":"bytes32"},{"name":"_salt","type":"bytes32","internalType":"bytes32"},{"name":"_overrideInitializer","type":"address","internalType":"address"},{"name":"_abiInterface","type":"address","internalType":"address"}],"outputs":[{"name":"","type":"address","internalType":"address"}],"stateMutability":"nonpayable"},{"type":"function","name":"genesisBlockHash","inputs":[],"outputs":[{"name":"","type":"bytes32","internalType":"bytes32"}],"stateMutability":"view"},{"type":"function","name":"genesisTimestamp","inputs":[],"outputs":[{"name":"","type":"uint48","internalType":"uint48"}],"stateMutability":"view"},{"type":"function","name":"initialize","inputs":[{"name":"_owner","type":"address","internalType":"address"},{"name":"_mirror","type":"address","internalType":"address"},{"name":"_wrappedVara","type":"address","internalType":"address"},{"name":"_middleware","type":"address","internalType":"address"},{"name":"_eraDuration","type":"uint256","internalType":"uint256"},{"name":"_electionDuration","type":"uint256","internalType":"uint256"},{"name":"_validationDelay","type":"uint256","internalType":"uint256"},{"name":"_aggregatedPublicKey","type":"tuple","internalType":"struct Gear.AggregatedPublicKey","components":[{"name":"x","type":"uint256","internalType":"uint256"},{"name":"y","type":"uint256","internalType":"uint256"}]},{"name":"_verifiableSecretSharingCommitment","type":"bytes","internalType":"bytes"},{"name":"_validators","type":"address[]","internalType":"address[]"}],"outputs":[],"stateMutability":"nonpayable"},{"type":"function","name":"isValidator","inputs":[{"name":"_validator","type":"address","internalType":"address"}],"outputs":[{"name":"","type":"bool","internalType":"bool"}],"stateMutability":"view"},{"type":"function","name":"latestCommittedBatchHash","inputs":[],"outputs":[{"name":"","type":"bytes32","internalType":"bytes32"}],"stateMutability":"view"},{"type":"function","name":"latestCommittedBatchTimestamp","inputs":[],"outputs":[{"name":"","type":"uint48","internalType":"uint48"}],"stateMutability":"view"},{"type":"function","name":"lookupGenesisHash","inputs":[],"outputs":[],"stateMutability":"nonpayable"},{"type":"function","name":"middleware","inputs":[],"outputs":[{"name":"","type":"address","internalType":"address"}],"stateMutability":"view"},{"type":"function","name":"mirrorImpl","inputs":[],"outputs":[{"name":"","type":"address","internalType":"address"}],"stateMutability":"view"},{"type":"function","name":"owner","inputs":[],"outputs":[{"name":"","type":"address","internalType":"address"}],"stateMutability":"view"},{"type":"function","name":"programCodeId","inputs":[{"name":"_programId","type":"address","internalType":"address"}],"outputs":[{"name":"","type":"bytes32","internalType":"bytes32"}],"stateMutability":"view"},{"type":"function","name":"programsCodeIds","inputs":[{"name":"_programsIds","type":"address[]","internalType":"address[]"}],"outputs":[{"name":"","type":"bytes32[]","internalType":"bytes32[]"}],"stateMutability":"view"},{"type":"function","name":"programsCount","inputs":[],"outputs":[{"name":"","type":"uint256","internalType":"uint256"}],"stateMutability":"view"},{"type":"function","name":"reinitialize","inputs":[],"outputs":[],"stateMutability":"nonpayable"},{"type":"function","name":"renounceOwnership","inputs":[],"outputs":[],"stateMutability":"nonpayable"},{"type":"function","name":"requestCodeValidation","inputs":[{"name":"_codeId","type":"bytes32","internalType":"bytes32"}],"outputs":[],"stateMutability":"nonpayable"},{"type":"function","name":"setMirror","inputs":[{"name":"newMirror","type":"address","internalType":"address"}],"outputs":[],"stateMutability":"nonpayable"},{"type":"function","name":"signingThresholdPercentage","inputs":[],"outputs":[{"name":"","type":"uint16","internalType":"uint16"}],"stateMutability":"view"},{"type":"function","name":"storageView","inputs":[],"outputs":[{"name":"","type":"tuple","internalType":"struct Router.StorageView","components":[{"name":"genesisBlock","type":"tuple","internalType":"struct Gear.GenesisBlockInfo","components":[{"name":"hash","type":"bytes32","internalType":"bytes32"},{"name":"number","type":"uint32","internalType":"uint32"},{"name":"timestamp","type":"uint48","internalType":"uint48"}]},{"name":"latestCommittedBatch","type":"tuple","internalType":"struct Gear.CommittedBatchInfo","components":[{"name":"hash","type":"bytes32","internalType":"bytes32"},{"name":"timestamp","type":"uint48","internalType":"uint48"}]},{"name":"implAddresses","type":"tuple","internalType":"struct Gear.AddressBook","components":[{"name":"mirror","type":"address","internalType":"address"},{"name":"wrappedVara","type":"address","internalType":"address"},{"name":"middleware","type":"address","internalType":"address"}]},{"name":"validationSettings","type":"tuple","internalType":"struct Gear.ValidationSettingsView","components":[{"name":"signingThresholdPercentage","type":"uint16","internalType":"uint16"},{"name":"validators0","type":"tuple","internalType":"struct Gear.ValidatorsView","components":[{"name":"aggregatedPublicKey","type":"tuple","internalType":"struct Gear.AggregatedPublicKey","components":[{"name":"x","type":"uint256","internalType":"uint256"},{"name":"y","type":"uint256","internalType":"uint256"}]},{"name":"verifiableSecretSharingCommitmentPointer","type":"address","internalType":"address"},{"name":"list","type":"address[]","internalType":"address[]"},{"name":"useFromTimestamp","type":"uint256","internalType":"uint256"}]},{"name":"validators1","type":"tuple","internalType":"struct Gear.ValidatorsView","components":[{"name":"aggregatedPublicKey","type":"tuple","internalType":"struct Gear.AggregatedPublicKey","components":[{"name":"x","type":"uint256","internalType":"uint256"},{"name":"y","type":"uint256","internalType":"uint256"}]},{"name":"verifiableSecretSharingCommitmentPointer","type":"address","internalType":"address"},{"name":"list","type":"address[]","internalType":"address[]"},{"name":"useFromTimestamp","type":"uint256","internalType":"uint256"}]}]},{"name":"computeSettings","type":"tuple","internalType":"struct Gear.ComputationSettings","components":[{"name":"threshold","type":"uint64","internalType":"uint64"},{"name":"wvaraPerSecond","type":"uint128","internalType":"uint128"}]},{"name":"timelines","type":"tuple","internalType":"struct Gear.Timelines","components":[{"name":"era","type":"uint256","internalType":"uint256"},{"name":"election","type":"uint256","internalType":"uint256"},{"name":"validationDelay","type":"uint256","internalType":"uint256"}]},{"name":"programsCount","type":"uint256","internalType":"uint256"},{"name":"validatedCodesCount","type":"uint256","internalType":"uint256"}]}],"stateMutability":"view"},{"type":"function","name":"timelines","inputs":[],"outputs":[{"name":"","type":"tuple","internalType":"struct Gear.Timelines","components":[{"name":"era","type":"uint256","internalType":"uint256"},{"name":"election","type":"uint256","internalType":"uint256"},{"name":"validationDelay","type":"uint256","internalType":"uint256"}]}],"stateMutability":"view"},{"type":"function","name":"transferOwnership","inputs":[{"name":"newOwner","type":"address","internalType":"address"}],"outputs":[],"stateMutability":"nonpayable"},{"type":"function","name":"validatedCodesCount","inputs":[],"outputs":[{"name":"","type":"uint256","internalType":"uint256"}],"stateMutability":"view"},{"type":"function","name":"validators","inputs":[],"outputs":[{"name":"","type":"address[]","internalType":"address[]"}],"stateMutability":"view"},{"type":"function","name":"validatorsAggregatedPublicKey","inputs":[],"outputs":[{"name":"","type":"tuple","internalType":"struct Gear.AggregatedPublicKey","components":[{"name":"x","type":"uint256","internalType":"uint256"},{"name":"y","type":"uint256","internalType":"uint256"}]}],"stateMutability":"view"},{"type":"function","name":"validatorsCount","inputs":[],"outputs":[{"name":"","type":"uint256","internalType":"uint256"}],"stateMutability":"view"},{"type":"function","name":"validatorsThreshold","inputs":[],"outputs":[{"name":"","type":"uint256","internalType":"uint256"}],"stateMutability":"view"},{"type":"function","name":"validatorsVerifiableSecretSharingCommitment","inputs":[],"outputs":[{"name":"","type":"bytes","internalType":"bytes"}],"stateMutability":"view"},{"type":"function","name":"wrappedVara","inputs":[],"outputs":[{"name":"","type":"address","internalType":"address"}],"stateMutability":"view"},{"type":"event","name":"AnnouncesCommitted","inputs":[{"name":"head","type":"bytes32","indexed":false,"internalType":"bytes32"}],"anonymous":false},{"type":"event","name":"BatchCommitted","inputs":[{"name":"hash","type":"bytes32","indexed":false,"internalType":"bytes32"}],"anonymous":false},{"type":"event","name":"CodeGotValidated","inputs":[{"name":"codeId","type":"bytes32","indexed":false,"internalType":"bytes32"},{"name":"valid","type":"bool","indexed":true,"internalType":"bool"}],"anonymous":false},{"type":"event","name":"CodeValidationRequested","inputs":[{"name":"codeId","type":"bytes32","indexed":false,"internalType":"bytes32"}],"anonymous":false},{"type":"event","name":"ComputationSettingsChanged","inputs":[{"name":"threshold","type":"uint64","indexed":false,"internalType":"uint64"},{"name":"wvaraPerSecond","type":"uint128","indexed":false,"internalType":"uint128"}],"anonymous":false},{"type":"event","name":"Initialized","inputs":[{"name":"version","type":"uint64","indexed":false,"internalType":"uint64"}],"anonymous":false},{"type":"event","name":"OwnershipTransferred","inputs":[{"name":"previousOwner","type":"address","indexed":true,"internalType":"address"},{"name":"newOwner","type":"address","indexed":true,"internalType":"address"}],"anonymous":false},{"type":"event","name":"ProgramCreated","inputs":[{"name":"actorId","type":"address","indexed":false,"internalType":"address"},{"name":"codeId","type":"bytes32","indexed":true,"internalType":"bytes32"}],"anonymous":false},{"type":"event","name":"StorageSlotChanged","inputs":[],"anonymous":false},{"type":"event","name":"ValidatorsCommittedForEra","inputs":[{"name":"eraIndex","type":"uint256","indexed":false,"internalType":"uint256"}],"anonymous":false},{"type":"error","name":"ECDSAInvalidSignature","inputs":[]},{"type":"error","name":"ECDSAInvalidSignatureLength","inputs":[{"name":"length","type":"uint256","internalType":"uint256"}]},{"type":"error","name":"ECDSAInvalidSignatureS","inputs":[{"name":"s","type":"bytes32","internalType":"bytes32"}]},{"type":"error","name":"InvalidInitialization","inputs":[]},{"type":"error","name":"NotInitializing","inputs":[]},{"type":"error","name":"OwnableInvalidOwner","inputs":[{"name":"owner","type":"address","internalType":"address"}]},{"type":"error","name":"OwnableUnauthorizedAccount","inputs":[{"name":"account","type":"address","internalType":"address"}]},{"type":"error","name":"ReentrancyGuardReentrantCall","inputs":[]}],"bytecode":{"object":"0x6080806040523460aa575f5160206149df5f395f51905f525460ff8160401c16609b576002600160401b03196001600160401b038216016049575b60405161493090816100af8239f35b6001600160401b0319166001600160401b039081175f5160206149df5f395f51905f525581527fc7f505b2f371ae2175ee4913f4499e1f2633a7b5936321eed1cdaeb6115181d290602090a15f80603a565b63f92ee8a960e01b5f5260045ffd5b5f80fdfe608080604052600436101561010a575b50361561001a575f80fd5b5f5160206148f05f395f51905f5254610038600182015415156128e7565b6001600160801b033416156100ba57335f908152601a9190910160205260409020541561006157005b60405162461bcd60e51b815260206004820152602b60248201527f636f756c646e277420726563656976652045746865722066726f6d20756e6b6e60448201526a6f776e2070726f6772616d60a81b6064820152608490fd5b60405162461bcd60e51b815260206004820152602260248201527f7a65726f2076616c7565207472616e73666572206973206e6f7420616c6c6f77604482015261195960f21b6064820152608490fd5b5f905f3560e01c9081627a32e714612705575080630c18d2771461220d578063120e3f1e1461208157806328e24b3d146120535780633683c4d214611dc65780633bd109fa14611d775780633d43b41814611d2357806353f7fd481461179a5780636c2eb35014611448578063715018a6146113df57806371a8cf2d146113b157806382bdeaad1461129957806384d22a4f1461123b57806388f50cf0146112025780638b1edf1e146111375780638da5cb5b146111025780638f381dbe146110bc5780639067088e1461107357806396a2ddfa146110455780639eb939a814610fee578063a5d53a4414610f80578063b24fcac014610947578063baaf020114610846578063c13911e814610802578063c2eb812f146104fd578063ca1e7819146104ad578063cacf66ab14610475578063d456fd511461043f578063e6fabc0914610406578063ed612f8c146103ce578063edc8722514610384578063efd81abc14610352578063f2fde38b14610325578063f4f20ac0146102ec5763facd743b0361000f57346102e95760203660031901126102e9576102ab61275b565b60036102c65f5160206148f05f395f51905f525442906143e0565b019060018060a01b03165f52602052602060ff60405f2054166040519015158152f35b80fd5b50346102e957806003193601126102e9575f5160206148f05f395f51905f5254600701546040516001600160a01b039091168152602090f35b50346102e95760203660031901126102e95761034f61034261275b565b61034a612d2a565b612cab565b80f35b50346102e957806003193601126102e957602061ffff60085f5160206148f05f395f51905f5254015416604051908152f35b50346102e957806003193601126102e95760206103c65f5160206148f05f395f51905f525461ffff600860046103ba42856143e0565b015492015416906143be565b604051908152f35b50346102e957806003193601126102e957602060046103fc5f5160206148f05f395f51905f525442906143e0565b0154604051908152f35b50346102e957806003193601126102e9575f5160206148f05f395f51905f5254600501546040516001600160a01b039091168152602090f35b50346102e957806003193601126102e957602065ffffffffffff60045f5160206148f05f395f51905f5254015416604051908152f35b50346102e957806003193601126102e957602065ffffffffffff60025f5160206148f05f395f51905f52540154821c16604051908152f35b50346102e957806003193601126102e9576104f96104e560046104df5f5160206148f05f395f51905f525442906143e0565b01612aa6565b6040519182916020835260208301906127c2565b0390f35b50346102e957806003193601126102e95760405161051a8161288f565b610522612bdf565b815260405161053081612874565b5f8152602081015f90526020820152610547612bdf565b6040820152610554612c7e565b606082015260405161056581612874565b5f8082526020820152608082015261057b612bdf565b60a08201528160c082015260e001525f5160206148f05f395f51905f52546105a1612c7e565b506105ae60098201614652565b906105bb600f8201614652565b600882015461ffff1692604051936105d285612845565b845260208401526040830152601b81015490601c810154604051926105f68461288f565b60405161060281612845565b60018401548152600284015463ffffffff8116602083015260201c65ffffffffffff16604082015284526040519461063986612874565b60038401548652600484015465ffffffffffff166020870152602085019586526040519061066682612845565b60058501546001600160a01b0390811683526006860154811660208401526007860154166040808401919091528601918252606086019081526106ab60158601612b31565b94608087019586526016016106bf90612bfd565b9160a0870192835260c0870193845260e087019485526040519788976020895251805160208a0152602081015163ffffffff1660408a01526040015165ffffffffffff16606089015251805160808901526020015165ffffffffffff1660a088015251600160a01b6001900381511660c0880152600160a01b6001900360208201511660e0880152600160a01b600190039060400151166101008701525161012086016102009052805161ffff166102208701526020810151610240870160609052610280870161078f916127fe565b90604001519061021f19878203016102608801526107ac916127fe565b935180516001600160401b0316610140870152602001516001600160801b031661016086015251805161018086015260208101516101a0860152604001516101c0850152516101e0840152516102008301520390f35b50346102e95760203660031901126102e95760ff604060209260195f5160206148f05f395f51905f5254016004358252845220541661084460405180926127b5565bf35b50346102e95760203660031901126102e9576004356001600160401b03811161094357610877903690600401612785565b905f5160206148f05f395f51905f52549061089183612a3b565b9161089f60405193846128c6565b8383526108ab84612a3b565b602084019490601f1901368637601a869201915b81811061090a57868587604051928392602084019060208552518091526040840192915b8181106108f1575050500390f35b82518452859450602093840193909201916001016108e3565b8061092061091b6001938588612af9565b612b5f565b828060a01b03165f528360205260405f205461093c8288612b1d565b52016108bf565b5080fd5b50346102e95760603660031901126102e9576004356001600160401b03811161094357806004019161010060031983360301126102e957600260243510156102e9576044356001600160401b038111610943576109a8903690600401612785565b9390917f9b779b17422d0df92223018b32b4d1fa46e071723d6817e2486d003becc55f005c610f715760017f9b779b17422d0df92223018b32b4d1fa46e071723d6817e2486d003becc55f005d5f5160206148f05f395f51905f525491610a14600184015415156128e7565b825415610e97575b60038301908154916044870135809303610e4457600485019765ffffffffffff89541696602489019765ffffffffffff610a558a612c33565b1610610dc457610a6a84889b96999a9b6130fd565b98606095879b8c9a60a482019860198c019c5b610a878b8b61365e565b9190501015610c4f578e610a9b8b8b61365e565b90911015610c3b578f60ff8f926040908f9360061b01928335948582526020522054166003811015610c2757600103610bc45760408f918f928f936020830194610ae486613693565b15610bac57601c928782526020528481209050600260ff1982541617905501610b0d8154612d1c565b90555b610b1983613693565b15157f460119a8f69a33ed127de517d5ea464e958ce23ef19e4420a8b92bf780bbc2c960208451878152a2360312610ba85791610b9f916020600194610b6d60405191610b6583612874565b8483526136a0565b91829101526040519060208201928352151560f81b604082015260218152610b966041826128c6565b519020906136ad565b9e019d8e610a7d565b8c80fd5b905083918682526020522060ff198154169055610b10565b60405162461bcd60e51b815260206004820152603560248201527f636f6465206d7573742062652072657175657374656420666f722076616c6964604482015274185d1a5bdb881d1bc818994818dbdb5b5a5d1d1959605a1b6064820152608490fd5b634e487b7160e01b8e52602160045260248efd5b634e487b7160e01b8c52603260045260248cfd5b8a9950926020610d54998f948e9794610d499665ffffffffffff98858151910120610c7a858c6136fc565b91610c85868d613c0f565b93610c9b6064610c948c612c33565b9701612c25565b9060405196898801983589528d60d01b9060d01b166040880152604687015260ff60f81b9060f81b1660668601526067850152608784015260a783015260c782015260c78152610cec60e7826128c6565b5190208099610cfa85612c33565b8760405191610d0883612874565b8483521693849101525584198254161790557f7ebe42360bcb182fe0a88148b081e4557c89d09aa6af8307635ac2f83e2aaa656020604051898152a1612c33565b16936024359161401f565b15610d7f57807f9b779b17422d0df92223018b32b4d1fa46e071723d6817e2486d003becc55f005d80f35b60405162461bcd60e51b815260206004820152601e60248201527f7369676e61747572657320766572696669636174696f6e206661696c656400006044820152606490fd5b60405162461bcd60e51b815260206004820152604c60248201527f62617463682074696d657374616d70206d75737420626520677265617465722060448201527f6f7220657175616c20746f206c617465737420636f6d6d69747465642062617460648201526b063682074696d657374616d760a41b608482015260a490fd5b60405162461bcd60e51b815260206004820152602560248201527f696e76616c69642070726576696f757320636f6d6d6974746564206261746368604482015264040d0c2e6d60db1b6064820152608490fd5b610ead610ea660648701612c25565b8235613068565b15610f1d5765ffffffffffff610ec560248701612c33565b164211610a1c5760405162461bcd60e51b815260206004820152602360248201527f62617463682074696d657374616d70206d75737420626520696e207468652070604482015262185cdd60ea1b6064820152608490fd5b60405162461bcd60e51b815260206004820152602660248201527f616c6c6f776564207072656465636573736f7220626c6f636b207761736e277460448201526508199bdd5b9960d21b6064820152608490fd5b633ee5aeb560e01b8152600490fd5b50346102e957806003193601126102e9576040610fc15f5160206148f05f395f51905f52546002610fb960018060a01b039242906143e0565b015416613039565b6020825193849282845280519283918282870152018585015e828201840152601f01601f19168101030190f35b50346102e957806003193601126102e957611007612bdf565b50606061102460165f5160206148f05f395f51905f525401612bfd565b61084460405180926040809180518452602081015160208501520151910152565b50346102e957806003193601126102e9576020601b5f5160206148f05f395f51905f52540154604051908152f35b50346102e95760203660031901126102e95761108d61275b565b601a5f5160206148f05f395f51905f5254019060018060a01b03165f52602052602060405f2054604051908152f35b50346102e95760203660031901126102e957600435906001600160401b0382116102e95760206110f86110f23660048601612785565b90612b73565b6040519015158152f35b50346102e957806003193601126102e9575f5160206148d05f395f51905f52546040516001600160a01b039091168152602090f35b50346102e957806003193601126102e9575f5160206148f05f395f51905f5254600181019081546111bd576002015463ffffffff1640908115611178575580f35b60405162461bcd60e51b815260206004820152601d60248201527f756e61626c6520746f206c6f6f6b75702067656e6573697320686173680000006044820152606490fd5b60405162461bcd60e51b815260206004820152601860248201527f67656e65736973206861736820616c72656164792073657400000000000000006044820152606490fd5b50346102e957806003193601126102e9575f5160206148f05f395f51905f5254600601546040516001600160a01b039091168152602090f35b50346102e957806003193601126102e957611254612959565b50604061127160155f5160206148f05f395f51905f525401612b31565b610844825180926001600160801b03602080926001600160401b038151168552015116910152565b50346102e95760203660031901126102e9576004356001600160401b038111610943576112ca903690600401612785565b905f5160206148f05f395f51905f5254906112e483612a3b565b916112f260405193846128c6565b8383526112fe84612a3b565b602084019490601f19013686376019869201915b81811061136757868587604051928392602084019060208552518091526040840192915b818110611344575050500390f35b919350916020808261135960019488516127b5565b019401910191849392611336565b611372818386612af9565b3587528260205260ff60408820541661138b8287612b1d565b600382101561139d5752600101611312565b634e487b7160e01b89526021600452602489fd5b50346102e957806003193601126102e957602060035f5160206148f05f395f51905f52540154604051908152f35b50346102e957806003193601126102e9576113f8612d2a565b5f5160206148d05f395f51905f5280546001600160a01b0319811690915581906001600160a01b03167f8be0079c531659141344cd1fd0a4f28419497f9722a3daafe3b4186f6b6457e08280a380f35b50346102e957806003193601126102e957611461612d2a565b5f5160206149105f395f51905f525460ff8160401c16908115611785575b50611776575f5160206149105f395f51905f52805468ffffffffffffffffff1916680100000000000000021790555f5160206148d05f395f51905f52546114d9906001600160a01b03166114d16143fc565b61034a6143fc565b5f5160206148f05f395f51905f525460409081516114f783826128c6565b6017815260208101907f726f757465722e73746f726167652e526f757465725632000000000000000000825261152b612d2a565b5190205f19810190811161176257916020917fc7f505b2f371ae2175ee4913f4499e1f2633a7b5936321eed1cdaeb6115181d29382519084820190815284825261157584836128c6565b60ff19915190201690815f5160206148f05f395f51905f5255611596612d5d565b80516001840155600283019063ffffffff868201511669ffffffffffff00000000868454930151881b169169ffffffffffffffffffff191617179055600581016005830190808203611714575b505061ffff600882015416600883019061ffff1982541617905561164c61160a42836143e0565b6116216001600160a01b036002610fb942876143e0565b611637600461163042876143e0565b0192612971565b906116424293612aa6565b9160098701612da5565b6015810160158301908082036116c2575b50506016810160168301918183036116a2575b5050505060ff60401b195f5160206149105f395f51905f5254165f5160206149105f395f51905f52555160028152a180f35b60189283925490556017810154601785015501549101555f808080611670565b806001600160401b03806001600160801b03935416166001600160401b031984541617835554851c16600160401b600160c01b03825491861b1690600160401b600160c01b0319161790555f8061165d565b5481546001600160a01b03199081166001600160a01b039283161790925560068381015490850180548416918316919091179055600780840154908501805490931691161790555f806115e3565b634e487b7160e01b84526011600452602484fd5b63f92ee8a960e01b8152600490fd5b600291506001600160401b031610155f61147f565b50346102e9576101603660031901126102e9576117b561275b565b6024356001600160a01b0381169190829003611d1f576117d361272f565b6117db612745565b60c435916084359160a43560403660e3190112611d1b5761012435946001600160401b038611611d175736602387011215611d17578560040135916001600160401b038311611d13573660248489010111611d1357610144356001600160401b038111611d0f57611850903690600401612785565b9690945f5160206149105f395f51905f5254996001600160401b0360ff8c60401c16159b1680159081611d07575b6001149081611cfd575b159081611cf4575b50611ce5576118d2908b60016001600160401b03195f5160206149105f395f51905f525416175f5160206149105f395f51905f5255611cb5575b6114d16143fc565b6118da6143fc565b4215611c5f578215611c095782821115611ba857600a6118fa848461298f565b04841015611b635760409a8b516119118d826128c6565b6017815260208101907f726f757465722e73746f726167652e526f7574657256310000000000000000008252611945612d2a565b5190205f198101908111611b4f578c51602080820192835281528d93929161196d85836128c6565b60ff19915190201698895f5160206148f05f395f51905f525561198e612d5d565b805160018c015560028b0190602081015163ffffffff1686835492015160201b69ffffffffffff00000000169169ffffffffffffffffffff1916171790558351906119d882612845565b8282526001600160a01b03908116602083018190529381169490910184905260058a018054919092166001600160a01b0319918216179091556006890180548216909217909155600788018054909116909117905560088601805461ffff1916611a0a179055611a46612959565b508951611a5281612874565b639502f90081526509184e72a0006020909101526015860180546001600160c01b0319166d09184e72a000000000009502f900179055895183908b90611a9781612845565b8381528460208201520152601686015560178501556018840155865194611abd86612874565b60e4358652610104356020870152611ad99136916024016129f6565b9042933690611ae792612a52565b9160090193611af594612da5565b611afd575080f35b60207fc7f505b2f371ae2175ee4913f4499e1f2633a7b5936321eed1cdaeb6115181d29160ff60401b195f5160206149105f395f51905f5254165f5160206149105f395f51905f52555160018152a180f35b634e487b7160e01b8e52601160045260248efd5b60405162461bcd60e51b815260206004820152601b60248201527f76616c69646174696f6e2064656c617920697320746f6f2062696700000000006044820152606490fd5b60405162461bcd60e51b815260206004820152603360248201527f657261206475726174696f6e206d757374206265206772656174657220746861604482015272371032b632b1ba34b7b710323ab930ba34b7b760691b6064820152608490fd5b60405162461bcd60e51b815260206004820152602860248201527f656c656374696f6e206475726174696f6e206d75737420626520677265617465604482015267072207468616e20360c41b6064820152608490fd5b60405162461bcd60e51b815260206004820152602860248201527f63757272656e742074696d657374616d70206d75737420626520677265617465604482015267072207468616e20360c41b6064820152608490fd5b600160401b60ff60401b195f5160206149105f395f51905f525416175f5160206149105f395f51905f52556118ca565b63f92ee8a960e01b8d5260048dfd5b9050155f611890565b303b159150611888565b8c915061187e565b8a80fd5b8980fd5b8880fd5b8780fd5b8280fd5b50346102e95760203660031901126102e957611d3d61275b565b611d45612d2a565b5f5160206148f05f395f51905f525460050180546001600160a01b0319166001600160a01b0390921691909117905580f35b50346102e957806003193601126102e957611d90612959565b506040611db4611daf5f5160206148f05f395f51905f525442906143e0565b612971565b60208251918051835201516020820152f35b50346102e95760603660031901126102e957600435611de361272f565b5f5160206148f05f395f51905f5254611e01600182015415156128e7565b8284526019810160205260ff604085205416600381101561203f57600203611fe3576040516020810190848252602435604082015260408152611e456060826128c6565b51902060405160608101908082106001600160401b03831117611fdf57605a916040527f3d605080600a3d3981f3608060405263e6fabc0960e01b5f5260205f6004817381523060601b6b5afa15604c575f80805136821760208201527f80378136915af43d5f803e156048573d5ff35b3d5ffd5b5f80fd000000000000604082015286f5908115611fdb576001600160a01b0382165f908152601a820160205260409020849055601b018054611efb90612d1c565b90556040516001600160a01b03821680825293907f8008ec1d8798725ebfa0f2d128d52e8e717dcba6e0f786557eeee70614b02bf190602090a2506001600160a01b038116611fd65750335b5f5160206148f05f395f51905f5254600501546001600160a01b0316823b15611fd257604051631c9776b560e31b81526001600160a01b039092166004830152602482015260016044820152828160648183865af18015611fc757611fb2575b602082604051908152f35b611fbd8380926128c6565b6109435781611fa7565b6040513d85823e3d90fd5b8380fd5b611f47565b8480fd5b8680fd5b60405162461bcd60e51b815260206004820152602e60248201527f636f6465206d7573742062652076616c696461746564206265666f726520707260448201526d37b3b930b69031b932b0ba34b7b760911b6064820152608490fd5b634e487b7160e01b85526021600452602485fd5b50346102e957806003193601126102e957602060015f5160206148f05f395f51905f52540154604051908152f35b50346102e95760203660031901126102e9576004358149156121915760195f5160206148f05f395f51905f52546120bd600182015415156128e7565b018183528060205260ff604084205416600381101561217d5761211c5781835260209081526040808420805460ff19166001179055519182527f5c261a095dd5720475295dc06379921c003c22164ee6cae5cf83e76ce0a1b98591a180f35b60405162461bcd60e51b815260206004820152603360248201527f676976656e20636f646520696420697320616c7265616479206f6e2076616c6960448201527219185d1a5bdb881bdc881d985b1a59185d1959606a1b6064820152608490fd5b634e487b7160e01b84526021600452602484fd5b60405162461bcd60e51b815260206004820152604860248201527f626c6f622063616e277420626520666f756e642c20726f75746572206578706560448201527f63746564204549502d34383434207472616e73616374696f6e2077697468205760648201526720a9a690313637b160c11b608482015260a490fd5b346126e75760803660031901126126e75760043561222961272f565b90612232612745565b915f5160206148f05f395f51905f5254612251600182015415156128e7565b825f526019810160205260ff60405f20541660038110156126f157600203611fe35760405160208101908482526024356040820152604081526122956060826128c6565b5190206040516102c08101908082106001600160401b038311176126e7576102b0916040527f60808060405261029e90816100128239f3fe608060405260043610610254575f81527f3560e01c806336a52a18146100ab57806342129d00146100a65780635ce6c32760208201527f146100a1578063701da98e1461009c578063704ed542146100975780637a8e0c60408201527fdd1461009257806391d5a64c1461008d5780639ce110d714610088578063affe60608201527fd0e0146100835763e43f3433036102545761023f565b610222565b6101fa565b60808201527f6101e4565b6101b1565b610181565b610165565b610143565b610106565b346160a08201527ed4575f3660031901126100d45760025460081c6001600160a01b031660809060c08201527f8152602090f35b5f80fd5b9181601f840112156100d45782359167ffffffffff60e08201527fffffff83116100d457602083818601950101116100d457565b604036600319016101008201527f126100d45760043567ffffffffffffffff81116100d4576101329036906004016101208201527f6100d8565b505060243580151514610254575f80fd5b346100d4575f366003196101408201527f01126100d457602060ff600254166040519015158152f35b346100d4575f36606101608201527f031901126100d45760205f54604051908152f35b346100d457602036600319016101808201527f126100d4576004356fffffffffffffffffffffffffffffffff811614610254576101a08201527f5f80fd5b60403660031901126100d45760243567ffffffffffffffff811161006101c08201527fd4576101dd9036906004016100d8565b5050610254565b346100d457602036606101e08201527f0319011215610254575f80fd5b346100d4575f3660031901126100d4576003546102008201527f6040516001600160a01b039091168152602090f35b346100d4575f36600319016102208201527f126100d4576020600154604051908152f35b346100d4575f36600319011215616102408201523060601c7f0254575f80fd5b63e6fabc0960e01b5f5260205f60048173000000000000000017610260820152735afa156100d4575f808051368280378136915af43060a01b176102808201526f3d5f803e1561029a573d5ff35b3d5ffd60801b6102a08201525ff59081156126e7576001600160a01b0382165f908152601a820160205260409020849055601b01805461262c90612d1c565b90556040516001600160a01b03821680825293907f8008ec1d8798725ebfa0f2d128d52e8e717dcba6e0f786557eeee70614b02bf190602090a2506001600160a01b0381166126eb575033915b813b156126e757604051631c9776b560e31b81526001600160a01b039384166004820152921660248301525f604483018190528260648183855af19182156126dc576020926126cc575b50604051908152f35b5f6126d6916128c6565b5f6126c3565b6040513d5f823e3d90fd5b5f80fd5b91612679565b634e487b7160e01b5f52602160045260245ffd5b346126e7575f3660031901126126e757602090601c5f5160206148f05f395f51905f525401548152f35b604435906001600160a01b03821682036126e757565b606435906001600160a01b03821682036126e757565b600435906001600160a01b03821682036126e757565b35906001600160a01b03821682036126e757565b9181601f840112156126e7578235916001600160401b0383116126e7576020808501948460051b0101116126e757565b9060038210156126f15752565b90602080835192838152019201905f5b8181106127df5750505090565b82516001600160a01b03168452602093840193909201916001016127d2565b9060208251805183520151602082015260018060a01b0360208301511660408201526080606061283c604085015160a08386015260a08501906127c2565b93015191015290565b606081019081106001600160401b0382111761286057604052565b634e487b7160e01b5f52604160045260245ffd5b604081019081106001600160401b0382111761286057604052565b61010081019081106001600160401b0382111761286057604052565b608081019081106001600160401b0382111761286057604052565b90601f801991011681019081106001600160401b0382111761286057604052565b156128ee57565b60405162461bcd60e51b815260206004820152603860248201527f726f757465722067656e65736973206973207a65726f3b2063616c6c20606c6f60448201527f6f6b757047656e657369734861736828296020666972737400000000000000006064820152608490fd5b6040519061296682612874565b5f6020838281520152565b9060405161297e81612874565b602060018294805484520154910152565b9190820391821161299c57565b634e487b7160e01b5f52601160045260245ffd5b81156129ba570490565b634e487b7160e01b5f52601260045260245ffd5b91908260409103126126e7576040516129e681612874565b6020808294803584520135910152565b9291926001600160401b0382116128605760405191612a1f601f8201601f1916602001846128c6565b8294818452818301116126e7578281602093845f960137010152565b6001600160401b0381116128605760051b60200190565b929190612a5e81612a3b565b93612a6c60405195866128c6565b602085838152019160051b81019283116126e757905b828210612a8e57505050565b60208091612a9b84612771565b815201910190612a82565b90604051918281549182825260208201905f5260205f20925f5b818110612ad7575050612ad5925003836128c6565b565b84546001600160a01b0316835260019485019487945060209093019201612ac0565b9190811015612b095760051b0190565b634e487b7160e01b5f52603260045260245ffd5b8051821015612b095760209160051b010190565b90604051612b3e81612874565b91546001600160401b038116835260401c6001600160801b03166020830152565b356001600160a01b03811681036126e75790565b612b8c5f5160206148f05f395f51905f525442906143e0565b600301905f5b838110612ba25750505050600190565b612bb061091b828685612af9565b6001600160a01b03165f9081526020849052604090205460ff1615612bd757600101612b92565b505050505f90565b60405190612bec82612845565b5f6040838281528260208201520152565b90604051612c0a81612845565b60406002829480548452600181015460208501520154910152565b3560ff811681036126e75790565b3565ffffffffffff811681036126e75790565b60405190612c53826128ab565b5f606083604051612c6381612874565b83815283602082015281528260208201528160408201520152565b60405190612c8b82612845565b815f8152612c97612c46565b60208201526040612ca6612c46565b910152565b6001600160a01b03168015612d09575f5160206148d05f395f51905f5280546001600160a01b0319811683179091556001600160a01b03167f8be0079c531659141344cd1fd0a4f28419497f9722a3daafe3b4186f6b6457e05f80a3565b631e4fbdf760e01b5f525f60045260245ffd5b5f19811461299c5760010190565b5f5160206148d05f395f51905f52546001600160a01b03163303612d4a57565b63118cdaa760e01b5f523360045260245ffd5b612d65612bdf565b50604051612d7281612845565b5f815263ffffffff4316602082015265ffffffffffff4216604082015290565b8181029291811591840414171561299c57565b9291908051906020810191825170014551231950b75fc4402da1732fc9bebe1982109182613028575b505015612fd45751845551600184015560405190612e116021836020808201945f86528051918291018484015e81015f838201520301601f1981018452836128c6565b612e4e602b604051809360208201956a600b5981380380925939f360a81b87525180918484015e81015f838201520301601f1981018352826128c6565b51905ff06001600160a01b03811615612f9b576002830180546001600160a01b0319166001600160a01b039092169190911790555f5b600483018054821015612ec2575f90815260208082208301546001600160a01b0316825260038501905260409020805460ff19169055600101612e84565b5050925f5b8451811015612f0b576001906001600160a01b03612ee58288612b1d565b5116828060a01b03165f526003840160205260405f208260ff1982541617905501612ec7565b5092600482018151916001600160401b03831161286057600160401b8311612860578154838355808410612f75575b50602001905f5260205f205f5b838110612f58575050505060050155565b82516001600160a01b031681830155602090920191600101612f47565b825f528360205f2091820191015b818110612f905750612f3a565b5f8155600101612f83565b60405162461bcd60e51b81526020600482015260116024820152701111541313d65351539517d19052531151607a1b6044820152606490fd5b60405162461bcd60e51b815260206004820152602660248201527f46524f53542061676772656761746564207075626c6963206b657920697320696044820152651b9d985b1a5960d21b6064820152608490fd5b613032925061482a565b5f80612dce565b803b905f1982019082821161299c5760019060405193603e601f19910116840160405282845260208401903c90565b435f198101939290841161299c5760ff164381106130b857505f925b83811015613094575b505f925050565b80408281036130a65750600193505050565b156130b3575f1901613084565b61308d565b6130c2904361298f565b92613084565b903590601e19813603018212156126e757018035906001600160401b0382116126e757602001918160051b360383136126e757565b9060808101600161310e82846130c8565b9050116135fc5761311f81836130c8565b9050156135d55761312f916130c8565b15612b0957803590603e19813603018212156126e757019161315183806130c8565b92906060925f95601a60fe19843603019401945b86881015613572578760051b840135858112156126e757840161318781612b5f565b6001600160a01b03165f9081526020889052604090205415613515575f608082016001600160801b036131b982614427565b16151580613502575b6134f1575b6001600160a01b036131d884612b5f565b604051630427a21d60e11b81526020600482015294911691610124850191906001600160801b0390613257906001600160a01b0361321585612771565b16602489015260208401356044890152613231604085016136a0565b151560648901526001600160a01b0361324c60608601612771565b16608489015261443b565b1660a486015261326960a082016136a0565b151560c486015236819003601e190160c0820135818112156126e7578201602081359101936001600160401b0382116126e75760608202360385136126e757819061010060e48a015252610144870193905f905b8082106134a75750505060e0820135908112156126e75701803560208201926001600160401b0382116126e7578160051b9081360385136126e75791879594936023198785030161010488015281845260208085019385010194935f9160fe19813603015b84841061339a5750505050505050602093916001600160801b03848093039316905af19081156126dc575f91613368575b50613360906001926136ad565b970196613165565b90506020813d8211613392575b81613382602093836128c6565b810103126126e757516001613353565b3d9150613375565b919395979850919395601f198482030187528735828112156126e7578301602081013582526001600160a01b036133d360408301612771565b1660208301526060810135603e1936839003018112156126e7578101602081013591906040016001600160401b0383116126e75782360381136126e757829060e060408601528160e08601526101008501375f61010083850101526001600160801b036134426080830161443b565b16606084015260a0810135608084015260c081013563ffffffff60e01b81168091036126e7578360209361348460e086956101009560a060019a0152016136a0565b151560c0830152601f80199101160101990197019401918a989796959391613322565b90919460608060019288358152838060a01b036134c660208b01612771565b1660208201526001600160801b036134e060408b0161443b565b1660408201520196019201906132bd565b90506134fc81614427565b906131c7565b5061350f60a08401613693565b156131c2565b60405162461bcd60e51b815260206004820152602f60248201527f636f756c646e277420706572666f726d207472616e736974696f6e20666f722060448201526e756e6b6e6f776e2070726f6772616d60881b6064820152608490fd5b93509450945050602091508181519101209101357fd04cd9af813f6f0b56e9411a6ee6a84eb5ac35a96f0c33d2e3a07d65baa8f4186020604051838152a160405190602082019283526040820152604081526135cf6060826128c6565b51902090565b5050507fc5d2460186f7233c927e7db2dcc703c0e500b653ca82273b7bfad8045d85a47090565b60405162461bcd60e51b815260206004820152603460248201527f636861696e436f6d6d69746d656e7420636f756c6420636f6e7461696e206174604482015273081b5bdcdd081bdb994818dbdb5b5a5d1b595b9d60621b6064820152608490fd5b903590601e19813603018212156126e757018035906001600160401b0382116126e757602001918160061b360383136126e757565b3580151581036126e75790565b359081151582036126e757565b602080612ad5928195946040519682889351918291018585015e82019083820152030180855201836128c6565b903590605e19813603018212156126e7570190565b9190820180921161299c57565b60c08201600161370c82856130c8565b905011613b735761371d81846130c8565b9050156135d55761372e90836130c8565b15612b0957803590607e19813603018212156126e75701916060830190602061375683612c33565b91019065ffffffffffff8061376a84612c33565b1691161015613b145761377c82612c33565b65ffffffffffff80600286015460201c16911610613ab9576137c265ffffffffffff6137bb6137b5826137ae87612c33565b168761444f565b93612c33565b168461444f565b1115613a60576007820154600690920180548435946001600160a01b0394851694604082019391925f916020911660446138088361380089896136da565b01358b6136ef565b604051948593849263095ea7b360e01b84528c600485015260248401525af180156126dc57613a29575b505460405163394f179b60e11b81526001600160a01b03909116600482015260248101959095526020818101356044870152856064815f885af19485156126dc575f956139f1575b5090613885916136da565b9161388f82612c33565b9260405193637fbe95b560e01b85526040600486015260a48501918035601e19823603018112156126e7578101602081359101936001600160401b0382116126e7578160061b360385136126e75760606044890152819052869360c485019392915f5b8181106139b957505050836020959365ffffffffffff829484895f9601356064860152613928604060018060a01b039201612771565b16608485015216602483015203925af19182156126dc575f92613983575b5061395090612c33565b6040519160208301938452604083015265ffffffffffff60d01b9060d01b166060820152604681526135cf6066826128c6565b9091506020813d6020116139b1575b8161399f602093836128c6565b810103126126e7575190613950613946565b3d9150613992565b919550919293604080600192838060a01b036139d48a612771565b1681526020890135602082015201960191019188959493926138f2565b919094506020823d602011613a21575b81613a0e602093836128c6565b810103126126e75790519361388561387a565b3d9150613a01565b6020813d602011613a58575b81613a42602093836128c6565b810103126126e757518015158114613832575f80fd5b3d9150613a35565b60405162461bcd60e51b815260206004820152602b60248201527f7265776172647320636f6d6d69746d656e74206d75737420746172676574207060448201526a726576696f75732065726160a81b6064820152608490fd5b60405162461bcd60e51b815260206004820152602d60248201527f7265776172647320636f6d6d69746d656e742074696d657374616d702070726560448201526c64617465732067656e6573697360981b6064820152608490fd5b60405162461bcd60e51b815260206004820152603160248201527f7265776172647320636f6d6d69746d656e742074696d657374616d70206d75736044820152701d08189948199bdc881d1a19481c185cdd607a1b6064820152608490fd5b608460405162461bcd60e51b815260206004820152604060248201527f7265776172647320636f6d6d69746d656e74206d75737420626520656d70747960448201527f206f7220636f6e7461696e73206f6e6c79206f6e6520636f6d6d69746d656e746064820152fd5b903590601e19813603018212156126e757018035906001600160401b0382116126e7576020019181360383136126e757565b9060e081016001613c2082846130c8565b905011613fa857613c3181836130c8565b9050156135d557613c41916130c8565b15612b0957803590609e19813603018212156126e757016060810190613c6782826130c8565b905015613f555765ffffffffffff600284015460201c1691613c89834261298f565b613c98601686015480926129b0565b936080840135946001810180911161299c578503613efd57613cbd85613cc393612d92565b906136ef565b93613cd260178201548661298f565b4210613eb857613ce190614477565b934260058601541015613e5857613d36906040840195613d28613d30613d078988613bdd565b9190613d13888a6130c8565b949091613d20368c6129ce565b9436916129f6565b933691612a52565b92612da5565b7fa1a3b42179ad30022438a1ea333b38eaf4a7329beee5e2b8111c0dcd4e08821c6020604051858152a160a0823603126126e75760405193613d77856128ab565b613d8136846129ce565b8552356001600160401b0381116126e757820136601f820112156126e757613db09036906020813591016129f6565b602085015235906001600160401b0382116126e7570136601f820112156126e757613de2903690602081359101612a52565b91826040820152816060820152519160208351930151906040519283926020840195865260408401526060830160208351919301905f5b818110613e36575050508152038082526135cf90602001826128c6565b82516001600160a01b0316855286955060209485019490920191600101613e19565b60405162461bcd60e51b815260206004820152603260248201527f6c6f6f6b73206c696b652076616c696461746f727320666f72206e65787420656044820152711c9848185c9948185b1c9958591e481cd95d60721b6064820152608490fd5b60405162461bcd60e51b815260206004820152601b60248201527f656c656374696f6e206973206e6f7420796574207374617274656400000000006044820152606490fd5b60405162461bcd60e51b815260206004820152602a60248201527f636f6d6d69746d656e742065726120696e646578206973206e6f74206e657874604482015269040cae4c240d2dcc8caf60b31b6064820152608490fd5b60405162461bcd60e51b815260206004820152602560248201527f6e65772076616c696461746f7273206c697374206d757374206e6f7420626520604482015264656d70747960d81b6064820152608490fd5b60405162461bcd60e51b815260206004820152604360248201527f76616c696461746f727320636f6d6d69746d656e74206d75737420626520656d60448201527f707479206f7220636f6e7461696e73206f6e6c79206f6e6520636f6d6d69746d606482015262195b9d60ea1b608482015260a490fd5b909493919365ffffffffffff600283015460201c1661403e428461444f565b61405661405060168601548093612d92565b836136ef565b9182841080806143a8575b15614336575083106142f15761407790836136ef565b106142a057614087905b826143e0565b94601960f81b5f523060601b60025260165260365f209360028110156126f15780614197575050600181036141525715612b09576140c8816140cf92613bdd565b36916129f6565b9160608351036140fd578260206140fa94015160606040830151920151926001815491015490614492565b90565b60405162461bcd60e51b815260206004820152602760248201527f46524f5354207369676e6174757265206c656e677468206d75737420626520396044820152663620627974657360c81b6064820152608490fd5b60405162461bcd60e51b815260206004820152601e60248201527f46524f5354207369676e6174757265206d7573742062652073696e676c6500006044820152606490fd5b9193916001146141aa5750505050505f90565b6141c49061ffff60086004889798015492015416906143be565b925f9260035f9201915b86811015614295576141fd6141f46141ee6140c88460051b860186613bdd565b86614790565b909291926147ca565b6001600160a01b0381165f9081526020859052604090205460ff16614228575b506001905b016141ce565b6001600160a01b03165f9081527ff02b465737fa6045c2ff53fb2df43c66916ac2166fa303264668fb2f6a1d8c0060205260409020805c1561426d5750600190614222565b94600161427b92965d612d1c565b93858514614289575f61421d565b50505050505050600190565b505050505050505f90565b60405162461bcd60e51b8152602060048201526024808201527f74696d657374616d70206973206f6c646572207468616e2070726576696f75736044820152632065726160e01b6064820152608490fd5b60405162461bcd60e51b815260206004820152601e60248201527f63616e6e6f742076616c6964617465206265666f72652067656e6573697300006044820152606490fd5b93929150504282116143595761408792614351575b50614081565b90505f61434b565b60405162461bcd60e51b815260206004820152602160248201527f74696d657374616d702063616e6e6f7420626520696e207468652066757475726044820152606560f81b6064820152608490fd5b506143b76018870154856136ef565b4210614061565b61ffff6143cc921690612d92565b61270f810180911161299c57612710900490565b906143eb90826146a7565b156143f657600f0190565b60090190565b60ff5f5160206149105f395f51905f525460401c161561441857565b631afcd79f60e31b5f5260045ffd5b356001600160801b03811681036126e75790565b35906001600160801b03821682036126e757565b601661446e6140fa9365ffffffffffff600285015460201c169061298f565b910154906129b0565b61448142826146a7565b1561448c5760090190565b600f0190565b92939194906144a1858761482a565b156146485782156146485770014551231950b75fc4402da1732fc9bebe19831015614648576001169061010e6040519161012083018381106001600160401b038211176126e75760405260883684376002600188160160888401538760898401526002840160a984015360aa830186905260ca8301527e300046524f53542d736563703235366b312d4b454343414b3235362d76316360ea8301526303430b6160e51b61010a830152812060cc820181815290600260ec84016001815360428420809318845253604270014551231950b75fc4402da1732fc9bebe19922060801c6001600160401b0360801b8260801b16179070014551231950b75fc4402da1732fc9bebe1990600160c01b9060401c090880156142955784601b6080945f9660209870014551231950b75fc4402da1732fc9bebe19910970014551231950b75fc4402da1732fc9bebe19038552018684015280604084015270014551231950b75fc4402da1732fc9bebe19910970014551231950b75fc4402da1732fc9bebe1903606082015282805260015afa505f51915f5260205260018060a01b0360405f20161490565b5050505050505f90565b61465a612c46565b506002810154600582015460405192909161469a916004916001600160a01b0316614684866128ab565b61468d82612971565b8652602086015201612aa6565b6040830152606082015290565b906014600e83015492015480831461474c57818184109311918215911115918190614745575b156146e257826146dc57505090565b14919050565b60405162461bcd60e51b815260206004820152603560248201527f636f756c64206e6f74206964656e746966792076616c696461746f727320666f6044820152740722074686520676976656e2074696d657374616d7605c1b6064820152608490fd5b50816146cd565b606460405162461bcd60e51b815260206004820152602060248201527f657261732074696d657374616d70206d757374206e6f7420626520657175616c6044820152fd5b81519190604183036147c0576147b99250602082015190606060408401519301515f1a9061484d565b9192909190565b50505f9160029190565b60048110156126f157806147dc575050565b600181036147f35763f645eedf60e01b5f5260045ffd5b6002810361480e575063fce698f760e01b5f5260045260245ffd5b6003146148185750565b6335e2f38360e21b5f5260045260245ffd5b6401000003d01990600790829081818009900908906401000003d0199080091490565b91907f7fffffffffffffffffffffffffffffff5d576e7357a4501ddfe92f46681b20a084116148c4579160209360809260ff5f9560405194855216868401526040830152606082015282805260015afa156126dc575f516001600160a01b038116156148ba57905f905f90565b505f906001905f90565b5050505f916003919056fe9016d09d72d40fdae2fd8ceac6b6234c7706214fd39c1cd1e609a0528c1993005c09ca1b9b8127a4fd9f3c384aac59b661441e820e17733753ff5f2e86e1e000f0c57e16840df040f15088dc2f81fe391c3923bec73e23a9662efc9c229c6a00f0c57e16840df040f15088dc2f81fe391c3923bec73e23a9662efc9c229c6a00","linkReferences":{}},"methodIdentifiers":{"areValidators(address[])":"8f381dbe","codeState(bytes32)":"c13911e8","codesStates(bytes32[])":"82bdeaad","commitBatch((bytes32,uint48,bytes32,uint8,((address,bytes32,bool,address,uint128,bool,(bytes32,address,uint128)[],(bytes32,address,bytes,uint128,(bytes32,bytes4),bool)[])[],bytes32)[],(bytes32,bool)[],((uint256,bytes32),((address,uint256)[],uint256,address),uint48)[],((uint256,uint256),bytes,address[],uint256)[]),uint8,bytes[])":"b24fcac0","computeSettings()":"84d22a4f","createProgram(bytes32,bytes32,address)":"3683c4d2","createProgramWithAbiInterface(bytes32,bytes32,address,address)":"0c18d277","genesisBlockHash()":"28e24b3d","genesisTimestamp()":"cacf66ab","initialize(address,address,address,address,uint256,uint256,uint256,(uint256,uint256),bytes,address[])":"53f7fd48","isValidator(address)":"facd743b","latestCommittedBatchHash()":"71a8cf2d","latestCommittedBatchTimestamp()":"d456fd51","lookupGenesisHash()":"8b1edf1e","middleware()":"f4f20ac0","mirrorImpl()":"e6fabc09","owner()":"8da5cb5b","programCodeId(address)":"9067088e","programsCodeIds(address[])":"baaf0201","programsCount()":"96a2ddfa","reinitialize()":"6c2eb350","renounceOwnership()":"715018a6","requestCodeValidation(bytes32)":"120e3f1e","setMirror(address)":"3d43b418","signingThresholdPercentage()":"efd81abc","storageView()":"c2eb812f","timelines()":"9eb939a8","transferOwnership(address)":"f2fde38b","validatedCodesCount()":"007a32e7","validators()":"ca1e7819","validatorsAggregatedPublicKey()":"3bd109fa","validatorsCount()":"ed612f8c","validatorsThreshold()":"edc87225","validatorsVerifiableSecretSharingCommitment()":"a5d53a44","wrappedVara()":"88f50cf0"},"storageLayout":{"storage":[],"types":{}},"id":156}