{"abi":[{"type":"constructor","inputs":[],"stateMutability":"nonpayable"},{"type":"function","name":"COUNT_OF_VALIDATORS","inputs":[],"outputs":[{"name":"","type":"uint256","internalType":"uint256"}],"stateMutability":"view"},{"type":"function","name":"REQUIRED_SIGNATURES","inputs":[],"outputs":[{"name":"","type":"uint256","internalType":"uint256"}],"stateMutability":"view"},{"type":"function","name":"addValidators","inputs":[{"name":"validatorsArray","type":"address[]","internalType":"address[]"}],"outputs":[],"stateMutability":"nonpayable"},{"type":"function","name":"claimValue","inputs":[{"name":"messageId","type":"bytes32","internalType":"bytes32"}],"outputs":[],"stateMutability":"nonpayable"},{"type":"function","name":"codes","inputs":[{"name":"codeId","type":"bytes32","internalType":"bytes32"}],"outputs":[{"name":"","type":"uint8","internalType":"enum IRouter.CodeState"}],"stateMutability":"view"},{"type":"function","name":"commitBlocks","inputs":[{"name":"commitments","type":"tuple[]","internalType":"struct IRouter.BlockCommitment[]","components":[{"name":"blockHash","type":"bytes32","internalType":"bytes32"},{"name":"allowedPrevCommitmentHash","type":"bytes32","internalType":"bytes32"},{"name":"allowedPredBlockHash","type":"bytes32","internalType":"bytes32"},{"name":"transitions","type":"tuple[]","internalType":"struct IRouter.StateTransition[]","components":[{"name":"actorId","type":"address","internalType":"address"},{"name":"oldStateHash","type":"bytes32","internalType":"bytes32"},{"name":"newStateHash","type":"bytes32","internalType":"bytes32"},{"name":"outgoingMessages","type":"tuple[]","internalType":"struct IRouter.OutgoingMessage[]","components":[{"name":"messageId","type":"bytes32","internalType":"bytes32"},{"name":"destination","type":"address","internalType":"address"},{"name":"payload","type":"bytes","internalType":"bytes"},{"name":"value","type":"uint128","internalType":"uint128"},{"name":"replyDetails","type":"tuple","internalType":"struct IRouter.ReplyDetails","components":[{"name":"replyTo","type":"bytes32","internalType":"bytes32"},{"name":"replyCode","type":"bytes4","internalType":"bytes4"}]}]}]}]},{"name":"signatures","type":"bytes[]","internalType":"bytes[]"}],"outputs":[],"stateMutability":"nonpayable"},{"type":"function","name":"commitCodes","inputs":[{"name":"codeCommitmentsArray","type":"tuple[]","internalType":"struct IRouter.CodeCommitment[]","components":[{"name":"codeId","type":"bytes32","internalType":"bytes32"},{"name":"approved","type":"bool","internalType":"bool"}]},{"name":"signatures","type":"bytes[]","internalType":"bytes[]"}],"outputs":[],"stateMutability":"nonpayable"},{"type":"function","name":"countOfValidators","inputs":[],"outputs":[{"name":"","type":"uint256","internalType":"uint256"}],"stateMutability":"view"},{"type":"function","name":"createProgram","inputs":[{"name":"codeId","type":"bytes32","internalType":"bytes32"},{"name":"salt","type":"bytes32","internalType":"bytes32"},{"name":"initPayload","type":"bytes","internalType":"bytes"},{"name":"gasLimit","type":"uint64","internalType":"uint64"}],"outputs":[{"name":"","type":"address","internalType":"address"}],"stateMutability":"payable"},{"type":"function","name":"genesisBlockHash","inputs":[],"outputs":[{"name":"","type":"bytes32","internalType":"bytes32"}],"stateMutability":"view"},{"type":"function","name":"getStorageSlot","inputs":[],"outputs":[{"name":"","type":"bytes32","internalType":"bytes32"}],"stateMutability":"view"},{"type":"function","name":"initialize","inputs":[{"name":"initialOwner","type":"address","internalType":"address"},{"name":"_program","type":"address","internalType":"address"},{"name":"_minimalProgram","type":"address","internalType":"address"},{"name":"_wrappedVara","type":"address","internalType":"address"},{"name":"validatorsArray","type":"address[]","internalType":"address[]"}],"outputs":[],"stateMutability":"nonpayable"},{"type":"function","name":"lastBlockCommitmentHash","inputs":[],"outputs":[{"name":"","type":"bytes32","internalType":"bytes32"}],"stateMutability":"view"},{"type":"function","name":"minimalProgram","inputs":[],"outputs":[{"name":"","type":"address","internalType":"address"}],"stateMutability":"view"},{"type":"function","name":"owner","inputs":[],"outputs":[{"name":"","type":"address","internalType":"address"}],"stateMutability":"view"},{"type":"function","name":"program","inputs":[],"outputs":[{"name":"","type":"address","internalType":"address"}],"stateMutability":"view"},{"type":"function","name":"programs","inputs":[{"name":"_program","type":"address","internalType":"address"}],"outputs":[{"name":"","type":"bool","internalType":"bool"}],"stateMutability":"view"},{"type":"function","name":"reinitialize","inputs":[],"outputs":[],"stateMutability":"nonpayable"},{"type":"function","name":"removeValidators","inputs":[{"name":"validatorsArray","type":"address[]","internalType":"address[]"}],"outputs":[],"stateMutability":"nonpayable"},{"type":"function","name":"renounceOwnership","inputs":[],"outputs":[],"stateMutability":"nonpayable"},{"type":"function","name":"sendMessage","inputs":[{"name":"destination","type":"address","internalType":"address"},{"name":"payload","type":"bytes","internalType":"bytes"},{"name":"gasLimit","type":"uint64","internalType":"uint64"},{"name":"value","type":"uint128","internalType":"uint128"}],"outputs":[],"stateMutability":"nonpayable"},{"type":"function","name":"sendReply","inputs":[{"name":"replyToId","type":"bytes32","internalType":"bytes32"},{"name":"payload","type":"bytes","internalType":"bytes"},{"name":"gasLimit","type":"uint64","internalType":"uint64"},{"name":"value","type":"uint128","internalType":"uint128"}],"outputs":[],"stateMutability":"nonpayable"},{"type":"function","name":"setProgram","inputs":[{"name":"_program","type":"address","internalType":"address"}],"outputs":[],"stateMutability":"nonpayable"},{"type":"function","name":"setStorageSlot","inputs":[{"name":"namespace","type":"string","internalType":"string"}],"outputs":[],"stateMutability":"nonpayable"},{"type":"function","name":"transferOwnership","inputs":[{"name":"newOwner","type":"address","internalType":"address"}],"outputs":[],"stateMutability":"nonpayable"},{"type":"function","name":"uploadCode","inputs":[{"name":"codeId","type":"bytes32","internalType":"bytes32"},{"name":"blobTx","type":"bytes32","internalType":"bytes32"}],"outputs":[],"stateMutability":"nonpayable"},{"type":"function","name":"validators","inputs":[{"name":"validator","type":"address","internalType":"address"}],"outputs":[{"name":"","type":"bool","internalType":"bool"}],"stateMutability":"view"},{"type":"function","name":"wrappedVara","inputs":[],"outputs":[{"name":"","type":"address","internalType":"address"}],"stateMutability":"view"},{"type":"event","name":"BlockCommitted","inputs":[{"name":"blockHash","type":"bytes32","indexed":true,"internalType":"bytes32"}],"anonymous":false},{"type":"event","name":"ClaimValue","inputs":[{"name":"origin","type":"address","indexed":true,"internalType":"address"},{"name":"messageId","type":"bytes32","indexed":true,"internalType":"bytes32"}],"anonymous":false},{"type":"event","name":"CodeApproved","inputs":[{"name":"codeId","type":"bytes32","indexed":true,"internalType":"bytes32"}],"anonymous":false},{"type":"event","name":"CodeRejected","inputs":[{"name":"codeId","type":"bytes32","indexed":true,"internalType":"bytes32"}],"anonymous":false},{"type":"event","name":"CreateProgram","inputs":[{"name":"origin","type":"address","indexed":true,"internalType":"address"},{"name":"actorId","type":"address","indexed":true,"internalType":"address"},{"name":"codeId","type":"bytes32","indexed":true,"internalType":"bytes32"},{"name":"initPayload","type":"bytes","indexed":false,"internalType":"bytes"},{"name":"gasLimit","type":"uint64","indexed":false,"internalType":"uint64"},{"name":"value","type":"uint128","indexed":false,"internalType":"uint128"}],"anonymous":false},{"type":"event","name":"Initialized","inputs":[{"name":"version","type":"uint64","indexed":false,"internalType":"uint64"}],"anonymous":false},{"type":"event","name":"OwnershipTransferred","inputs":[{"name":"previousOwner","type":"address","indexed":true,"internalType":"address"},{"name":"newOwner","type":"address","indexed":true,"internalType":"address"}],"anonymous":false},{"type":"event","name":"SendMessage","inputs":[{"name":"origin","type":"address","indexed":true,"internalType":"address"},{"name":"destination","type":"address","indexed":true,"internalType":"address"},{"name":"payload","type":"bytes","indexed":false,"internalType":"bytes"},{"name":"gasLimit","type":"uint64","indexed":false,"internalType":"uint64"},{"name":"value","type":"uint128","indexed":false,"internalType":"uint128"}],"anonymous":false},{"type":"event","name":"SendReply","inputs":[{"name":"origin","type":"address","indexed":true,"internalType":"address"},{"name":"replyToId","type":"bytes32","indexed":true,"internalType":"bytes32"},{"name":"payload","type":"bytes","indexed":false,"internalType":"bytes"},{"name":"gasLimit","type":"uint64","indexed":false,"internalType":"uint64"},{"name":"value","type":"uint128","indexed":false,"internalType":"uint128"}],"anonymous":false},{"type":"event","name":"UpdatedProgram","inputs":[{"name":"actorId","type":"address","indexed":true,"internalType":"address"},{"name":"oldStateHash","type":"bytes32","indexed":false,"internalType":"bytes32"},{"name":"newStateHash","type":"bytes32","indexed":false,"internalType":"bytes32"}],"anonymous":false},{"type":"event","name":"UploadCode","inputs":[{"name":"origin","type":"address","indexed":true,"internalType":"address"},{"name":"codeId","type":"bytes32","indexed":true,"internalType":"bytes32"},{"name":"blobTx","type":"bytes32","indexed":true,"internalType":"bytes32"}],"anonymous":false},{"type":"event","name":"UserMessageSent","inputs":[{"name":"messageId","type":"bytes32","indexed":true,"internalType":"bytes32"},{"name":"destination","type":"address","indexed":true,"internalType":"address"},{"name":"payload","type":"bytes","indexed":false,"internalType":"bytes"},{"name":"value","type":"uint128","indexed":false,"internalType":"uint128"}],"anonymous":false},{"type":"event","name":"UserReplySent","inputs":[{"name":"messageId","type":"bytes32","indexed":true,"internalType":"bytes32"},{"name":"destination","type":"address","indexed":true,"internalType":"address"},{"name":"payload","type":"bytes","indexed":false,"internalType":"bytes"},{"name":"value","type":"uint128","indexed":false,"internalType":"uint128"},{"name":"replyTo","type":"bytes32","indexed":false,"internalType":"bytes32"},{"name":"replyCode","type":"bytes4","indexed":false,"internalType":"bytes4"}],"anonymous":false},{"type":"error","name":"ECDSAInvalidSignature","inputs":[]},{"type":"error","name":"ECDSAInvalidSignatureLength","inputs":[{"name":"length","type":"uint256","internalType":"uint256"}]},{"type":"error","name":"ECDSAInvalidSignatureS","inputs":[{"name":"s","type":"bytes32","internalType":"bytes32"}]},{"type":"error","name":"FailedDeployment","inputs":[]},{"type":"error","name":"InsufficientBalance","inputs":[{"name":"balance","type":"uint256","internalType":"uint256"},{"name":"needed","type":"uint256","internalType":"uint256"}]},{"type":"error","name":"InvalidInitialization","inputs":[]},{"type":"error","name":"NotInitializing","inputs":[]},{"type":"error","name":"OwnableInvalidOwner","inputs":[{"name":"owner","type":"address","internalType":"address"}]},{"type":"error","name":"OwnableUnauthorizedAccount","inputs":[{"name":"account","type":"address","internalType":"address"}]},{"type":"error","name":"ReentrancyGuardReentrantCall","inputs":[]}],"bytecode":{"object":"0x6080604052348015600e575f80fd5b5060156019565b60c9565b7ff0c57e16840df040f15088dc2f81fe391c3923bec73e23a9662efc9c229c6a00805468010000000000000000900460ff161560685760405163f92ee8a960e01b815260040160405180910390fd5b80546001600160401b039081161460c65780546001600160401b0319166001600160401b0390811782556040519081527fc7f505b2f371ae2175ee4913f4499e1f2633a7b5936321eed1cdaeb6115181d29060200160405180910390a15b50565b6128dc806100d65f395ff3fe6080604052600436106101af575f3560e01c80638a3b2202116100e7578063c860ebc611610087578063f2fde38b11610062578063f2fde38b1461046b578063f79353e21461048a578063f8453e7c1461049e578063fa52c7d8146104bd575f80fd5b8063c860ebc614610419578063dcc82b301461042d578063e97d3eb31461044c575f80fd5b806396708226116100c257806396708226146103a65780639ac18b19146101d4578063a04a8836146103d9578063ad656510146103ed575f80fd5b80638a3b2202146103605780638da5cb5b1461037357806391d5a64c14610387575f80fd5b80635daa83bc11610152578063715018a61161012d578063715018a6146102d257806375e7e6dd146102e65780638405e41c1461030557806388f50cf014610334575f80fd5b80635daa83bc146102805780636c2eb3501461029f57806370223952146102b3575f80fd5b806328e24b3d1161018d57806328e24b3d1461021a5780632dacfb691461022e57806332bc103a146102425780635686cad514610261575f80fd5b806312c89ee6146101b35780631b76cd15146101d45780631d40f0d8146101fb575b5f80fd5b3480156101be575f80fd5b506101d26101cd366004611faf565b6104dc565b005b3480156101df575f80fd5b506101e8600181565b6040519081526020015b60405180910390f35b348015610206575f80fd5b506101d2610215366004612016565b6105f0565b348015610225575f80fd5b506101e8610664565b348015610239575f80fd5b506101e8610678565b34801561024d575f80fd5b506101d261025c3660046120c2565b61068c565b34801561026c575f80fd5b506101d261027b36600461216f565b610721565b34801561028b575f80fd5b506101d261029a366004612201565b610793565b3480156102aa575f80fd5b506101d2610819565b3480156102be575f80fd5b506101d26102cd366004612307565b6109bd565b3480156102dd575f80fd5b506101d2610a97565b3480156102f1575f80fd5b506101d2610300366004612340565b610aaa565b348015610310575f80fd5b5061032461031f366004612377565b610b38565b60405190151581526020016101f2565b34801561033f575f80fd5b50610348610b66565b6040516001600160a01b0390911681526020016101f2565b61034861036e366004612390565b610b83565b34801561037e575f80fd5b50610348610ccb565b348015610392575f80fd5b506101d26103a13660046123e6565b610cff565b3480156103b1575f80fd5b507f5c09ca1b9b8127a4fd9f3c384aac59b661441e820e17733753ff5f2e86e1e000546101e8565b3480156103e4575f80fd5b50610348610d6b565b3480156103f8575f80fd5b5061040c6104073660046123e6565b610d88565b6040516101f29190612411565b348015610424575f80fd5b50610348610da9565b348015610438575f80fd5b506101d2610447366004612377565b610db3565b348015610457575f80fd5b506101d2610466366004612437565b610de6565b348015610476575f80fd5b506101d2610485366004612377565b610fc6565b348015610495575f80fd5b506101e8611003565b3480156104a9575f80fd5b506101d26104b83660046124b7565b611017565b3480156104c8575f80fd5b506103246104d7366004612377565b6111cb565b801515806104ea57505f4915155b6105315760405162461bcd60e51b815260206004820152601360248201527234b73b30b634b2103a3930b739b0b1ba34b7b760691b60448201526064015b60405180910390fd5b5f61053a6111f9565b90505f8084815260078301602052604090205460ff166002811115610561576105616123fd565b146105a65760405162461bcd60e51b815260206004820152601560248201527418dbd91948185b1c9958591e481d5c1b1bd8591959605a1b6044820152606401610528565b5f838152600782016020526040808220805460ff19166001179055518391859132917f89337fc1ee8ae60a973f7955a6f3b30f88e5410b1b8d0cb66f1ffe64f15b014791a4505050565b6105f8611229565b5f6106016111f9565b90505f5b8281101561065e575f84848381811061062057610620612531565b90506020020160208101906106359190612377565b6001600160a01b03165f9081526006840160205260409020805460ff1916905550600101610605565b50505050565b5f8061066e6111f9565b6003015492915050565b5f806106826111f9565b6004015492915050565b5f6106956111f9565b335f90815260088201602052604090205490915060ff166106c85760405162461bcd60e51b815260040161052890612545565b6106d18361125b565b85326001600160a01b03167f204148dee25f04b18563a0acc7eb3e02efffc904f421ede0d4be0e346bb6f85b878787876040516107119493929190612596565b60405180910390a3505050505050565b610729611229565b805160208201205f9060ff1990610742906001906125e6565b60405160200161075491815260200190565b60408051808303601f190181529190528051602090910120167f5c09ca1b9b8127a4fd9f3c384aac59b661441e820e17733753ff5f2e86e1e000555050565b61079b6113ae565b60605f5b8481101561080457368686838181106107ba576107ba612531565b90506020028101906107cc91906125f9565b9050826107d88261141b565b6040516020016107e992919061262e565b60408051601f1981840301815291905292505060010161079f565b50610810818484611a2b565b5061065e611b97565b610821611229565b7ff0c57e16840df040f15088dc2f81fe391c3923bec73e23a9662efc9c229c6a00805460029190600160401b900460ff168061086a575080546001600160401b03808416911610155b156108885760405163f92ee8a960e01b815260040160405180910390fd5b805468ffffffffffffffffff19166001600160401b03831617600160401b1781555f6108b26111f9565b80546001820154600283015460408051808201909152601781527f726f757465722e73746f726167652e526f75746572563200000000000000000060208201529394506001600160a01b039283169391831692169061091090610721565b5f6109196111f9565b80546001600160a01b038087166001600160a01b031992831617835560018084018054888416908516179055600284018054928716929093169190911790915590915061096690436125e6565b40600391909101555050825460ff60401b1916835550506040516001600160401b03831681527fc7f505b2f371ae2175ee4913f4499e1f2633a7b5936321eed1cdaeb6115181d29060200160405180910390a15050565b6109c5611229565b5f6109ce6111f9565b90505f825182600501546109e29190612646565b90506001811115610a355760405162461bcd60e51b815260206004820152601860248201527f76616c696461746f7220736574206973206c696d6974656400000000000000006044820152606401610528565b600582018190555f5b835181101561065e575f848281518110610a5a57610a5a612531565b6020908102919091018101516001600160a01b03165f9081526006860190915260409020805460ff19166001908117909155919091019050610a3e565b610a9f611229565b610aa85f611bc1565b565b5f610ab36111f9565b335f90815260088201602052604090205490915060ff16610ae65760405162461bcd60e51b815260040161052890612545565b610aef8361125b565b856001600160a01b0316326001600160a01b03167fb105185d664b1ff6a130ce4b3c5bb34a3458975626080a0d7e96d8f762be6ac7878787876040516107119493929190612596565b5f80610b426111f9565b6001600160a01b039093165f90815260089093016020525050604090205460ff1690565b5f80610b706111f9565b600201546001600160a01b031692915050565b5f80610b8d6111f9565b905060025f88815260078301602052604090205460ff166002811115610bb557610bb56123fd565b14610bf85760405162461bcd60e51b815260206004820152601360248201527218dbd919481a5cc81d5b98dbdb999a5c9b5959606a1b6044820152606401610528565b600181015460408051602081018990529081018990525f91610c3f916001600160a01b03909116906060016040516020818303038152906040528051906020012034611c31565b6001600160a01b0381165f9081526008840160205260409020805460ff191660011790559050610c6e8461125b565b87816001600160a01b0316326001600160a01b03167fb90c432f60141e2e722cf44fae355f53c753fb6aa0055830d923a97176a5466089898934604051610cb89493929190612596565b60405180910390a4979650505050505050565b5f807f9016d09d72d40fdae2fd8ceac6b6234c7706214fd39c1cd1e609a0528c1993005b546001600160a01b031692915050565b5f610d086111f9565b335f90815260088201602052604090205490915060ff16610d3b5760405162461bcd60e51b815260040161052890612545565b604051829032907f97a53fd72bd7027ca7db954b7f2e71b95fd2b53e28c71989eb471c5526638394905f90a35050565b5f80610d756111f9565b600101546001600160a01b031692915050565b5f80610d926111f9565b5f9384526007016020525050604090205460ff1690565b5f80610cef6111f9565b610dbb611229565b5f610dc46111f9565b80546001600160a01b0319166001600160a01b03939093169290921790915550565b5f610def6111f9565b905060605f5b85811015610fb25736878783818110610e1057610e10612531565b905060400201905082815f0135826020016020810190610e309190612666565b604051602001610e4f929190918252151560f81b602082015260210190565b60405160208183030381529060405280519060200120604051602001610e7692919061262e565b60408051601f198184030181529190529250803560015f82815260078701602052604090205460ff166002811115610eb057610eb06123fd565b14610f0e5760405162461bcd60e51b815260206004820152602860248201527f636f64652073686f756c642062652075706c6f616465642c2062757420756e636044820152671bdb999a5c9b595960c21b6064820152608401610528565b610f1e6040830160208401612666565b15610f69575f818152600786016020526040808220805460ff191660021790555182917fcc0d34eaf410bb52e4f095d02c879447f1f71fc835be3a77e777b2dc819b6d0c91a2610fa8565b5f818152600786016020526040808220805460ff191690555182917fd59273cb2f7b30bcc4aadd78bde6cb5e36efe7c78138c48e07d72c12b770101391a25b5050600101610df5565b50610fbe818585611a2b565b505050505050565b610fce611229565b6001600160a01b038116610ff757604051631e4fbdf760e01b81525f6004820152602401610528565b61100081611bc1565b50565b5f8061100d6111f9565b6005015492915050565b7ff0c57e16840df040f15088dc2f81fe391c3923bec73e23a9662efc9c229c6a008054600160401b810460ff1615906001600160401b03165f8115801561105b5750825b90505f826001600160401b031660011480156110765750303b155b905081158015611084575080155b156110a25760405163f92ee8a960e01b815260040160405180910390fd5b845467ffffffffffffffff1916600117855583156110cc57845460ff60401b1916600160401b1785555b6110d58a611ccd565b6111136040518060400160405280601781526020017f726f757465722e73746f726167652e526f757465725631000000000000000000815250610721565b5f61111c6111f9565b80546001600160a01b03808d166001600160a01b0319928316178355600180840180548e8416908516179055600284018054928d16929093169190911790915590915061116990436125e6565b406003820155611178876109bd565b5083156111bf57845460ff60401b19168555604051600181527fc7f505b2f371ae2175ee4913f4499e1f2633a7b5936321eed1cdaeb6115181d29060200160405180910390a15b50505050505050505050565b5f806111d56111f9565b6001600160a01b039093165f90815260069093016020525050604090205460ff1690565b5f806112237f5c09ca1b9b8127a4fd9f3c384aac59b661441e820e17733753ff5f2e86e1e0005490565b92915050565b33611232610ccb565b6001600160a01b031614610aa85760405163118cdaa760e01b8152336004820152602401610528565b5f6112646111f9565b60028101546040516334e6ced760e21b81526001600160401b03851660048201529192506001600160a01b0316905f9082906323b872dd9032903090849063d39b3b5c90602401602060405180830381865afa1580156112c6573d5f803e3d5ffd5b505050506040513d601f19601f820116820180604052508101906112ea9190612681565b6040516001600160e01b031960e086901b1681526001600160a01b03938416600482015292909116602483015260448201526064016020604051808303815f875af115801561133b573d5f803e3d5ffd5b505050506040513d601f19601f8201168201806040525081019061135f9190612698565b90508061065e5760405162461bcd60e51b815260206004820152601960248201527f6661696c656420746f207472616e7366657220746f6b656e73000000000000006044820152606401610528565b7f9b779b17422d0df92223018b32b4d1fa46e071723d6817e2486d003becc55f005c156113ee57604051633ee5aeb560e01b815260040160405180910390fd5b610aa860017f9b779b17422d0df92223018b32b4d1fa46e071723d6817e2486d003becc55f005b90611cde565b5f806114256111f9565b9050826020013581600401541461147e5760405162461bcd60e51b815260206004820152601e60248201527f696e76616c6964207072656465636573736f7220636f6d6d69746d656e7400006044820152606401610528565b61148b8360400135611ce5565b6114d75760405162461bcd60e51b815260206004820152601d60248201527f616c6c6f776564207072656465636573736f72206e6f7420666f756e640000006044820152606401610528565b8235600482018190556040517fd756eca21e02cb0dbde1e44a4d9c6921b5c8aa4668cfa0752784b3dc855bce1e905f90a260605f5b61151960608601866126b3565b90508110156119da573661153060608701876126b3565b8381811061154057611540612531565b905060200281019061155291906125f9565b9050600884015f6115666020840184612377565b6001600160a01b0316815260208101919091526040015f205460ff1661159e5760405162461bcd60e51b815260040161052890612545565b5f6115ac6020830183612377565b905060605f5b6115bf60608501856126b3565b905081101561187357366115d660608601866126b3565b838181106115e6576115e6612531565b90506020028101906115f891906126f8565b905082813561160d6040840160208501612377565b61161a604085018561270c565b61162a608087016060880161274e565b608087013561163f60c0890160a08a01612767565b604051602001611655979695949392919061278e565b6040516020818303038152906040528051906020012060405160200161167c92919061262e565b60408051601f1981840301815291905292505f61169f608083016060840161274e565b6001600160801b03161115611740576001600160a01b038416639336255f6116cd6040840160208501612377565b6116dd608085016060860161274e565b6040516001600160e01b031960e085901b1681526001600160a01b0390921660048301526001600160801b031660248201526044015f604051808303815f87803b158015611729575f80fd5b505af115801561173b573d5f803e3d5ffd5b505050505b60808101803515801561176a575061175e6040820160208301612767565b6001600160e01b031916155b156117e45761177f6040830160208401612377565b6001600160a01b031682357ff28a6516a269f24dd85b12b0430f263e020c6da15f78cfd7e405dd26d7c92b2c6117b8604086018661270c565b6117c8608088016060890161274e565b6040516117d7939291906127f4565b60405180910390a3611869565b6117f46040830160208401612377565b6001600160a01b031682357f938c4eb9e98fe77361e074d847c72bb8f4d973ccf7fc127ebe8de12f25a26d2461182d604086018661270c565b61183d608088016060890161274e565b863561184f6040890160208a01612767565b604051611860959493929190612820565b60405180910390a35b50506001016115b2565b50846118826020850185612377565b82516020808501919091206040805160609490941b6bffffffffffffffffffffffff1916848401529187013560348401529086013560548301526074820152609401604051602081830303815290604052805190602001206040516020016118eb92919061262e565b604051602081830303815290604052945082604001358360200135146119cf576040805163e9e2d09960e01b8152602085013560048201529084013560248201526001600160a01b0383169063e9e2d099906044015f604051808303815f87803b158015611957575f80fd5b505af1158015611969573d5f803e3d5ffd5b5061197b925050506020840184612377565b6001600160a01b03167f5e7f42f8499cb41931ca69fd6e8ada438ba8641bbeb31905bffc25d4de4e9a0a846020013585604001356040516119c6929190918252602082015260400190565b60405180910390a25b50505060010161150c565b508051602082810191909120604080518735818501528188013591810191909152918601356060830152608082015260a0016040516020818303038152906040528051906020012092505050919050565b5f611a346111f9565b90505f611a6b8580519060200120604051602001611a5491815260200190565b60408051601f198184030181529190523090611d37565b90505f5b83811015611b4e57365f868684818110611a8b57611a8b612531565b9050602002810190611a9d919061270c565b915091505f611ae383838080601f0160208091040260200160405190810160405280939291908181526020018383808284375f920191909152508993925050611d699050565b6001600160a01b0381165f90815260068801602052604090205490915060ff16611b435760405162461bcd60e51b8152602060048201526011602482015270756e6b6e6f776e207369676e617475726560781b6044820152606401610528565b505050600101611a6f565b6001811015610fbe5760405162461bcd60e51b81526020600482015260156024820152746e6f7420656e6f756768207369676e61747572657360581b6044820152606401610528565b610aa85f7f9b779b17422d0df92223018b32b4d1fa46e071723d6817e2486d003becc55f00611415565b7f9016d09d72d40fdae2fd8ceac6b6234c7706214fd39c1cd1e609a0528c19930080546001600160a01b031981166001600160a01b03848116918217845560405192169182907f8be0079c531659141344cd1fd0a4f28419497f9722a3daafe3b4186f6b6457e0905f90a3505050565b5f81471015611c5c5760405163cf47918160e01b815247600482015260248101839052604401610528565b763d602d80600a3d3981f3363d3d373d3d3d363d730000008460601b60e81c175f526e5af43d82803e903d91602b57fd5bf38460781b17602052826037600984f590506001600160a01b038116611cc65760405163b06ebf3d60e01b815260040160405180910390fd5b9392505050565b611cd5611d91565b61100081611dda565b80825d5050565b5f80611cf26001436125e6565b90505b8015611d2f578040838103611d0e575060019392505050565b5f819003611d1c5750611d2f565b5080611d2781612863565b915050611cf5565b505f92915050565b5f8282604051602001611d4b929190612878565b60405160208183030381529060405280519060200120905092915050565b5f805f80611d778686611de2565b925092509250611d878282611e2b565b5090949350505050565b7ff0c57e16840df040f15088dc2f81fe391c3923bec73e23a9662efc9c229c6a0054600160401b900460ff16610aa857604051631afcd79f60e31b815260040160405180910390fd5b610fce611d91565b5f805f8351604103611e19576020840151604085015160608601515f1a611e0b88828585611ee7565b955095509550505050611e24565b505081515f91506002905b9250925092565b5f826003811115611e3e57611e3e6123fd565b03611e47575050565b6001826003811115611e5b57611e5b6123fd565b03611e795760405163f645eedf60e01b815260040160405180910390fd5b6002826003811115611e8d57611e8d6123fd565b03611eae5760405163fce698f760e01b815260048101829052602401610528565b6003826003811115611ec257611ec26123fd565b03611ee3576040516335e2f38360e21b815260048101829052602401610528565b5050565b5f80807f7fffffffffffffffffffffffffffffff5d576e7357a4501ddfe92f46681b20a0841115611f2057505f91506003905082611fa5565b604080515f808252602082018084528a905260ff891692820192909252606081018790526080810186905260019060a0016020604051602081039080840390855afa158015611f71573d5f803e3d5ffd5b5050604051601f1901519150506001600160a01b038116611f9c57505f925060019150829050611fa5565b92505f91508190505b9450945094915050565b5f8060408385031215611fc0575f80fd5b50508035926020909101359150565b5f8083601f840112611fdf575f80fd5b5081356001600160401b03811115611ff5575f80fd5b6020830191508360208260051b850101111561200f575f80fd5b9250929050565b5f8060208385031215612027575f80fd5b82356001600160401b0381111561203c575f80fd5b61204885828601611fcf565b90969095509350505050565b5f8083601f840112612064575f80fd5b5081356001600160401b0381111561207a575f80fd5b60208301915083602082850101111561200f575f80fd5b80356001600160401b03811681146120a7575f80fd5b919050565b80356001600160801b03811681146120a7575f80fd5b5f805f805f608086880312156120d6575f80fd5b8535945060208601356001600160401b038111156120f2575f80fd5b6120fe88828901612054565b9095509350612111905060408701612091565b915061211f606087016120ac565b90509295509295909350565b634e487b7160e01b5f52604160045260245ffd5b604051601f8201601f191681016001600160401b03811182821017156121675761216761212b565b604052919050565b5f6020828403121561217f575f80fd5b81356001600160401b03811115612194575f80fd5b8201601f810184136121a4575f80fd5b80356001600160401b038111156121bd576121bd61212b565b6121d0601f8201601f191660200161213f565b8181528560208385010111156121e4575f80fd5b816020840160208301375f91810160200191909152949350505050565b5f805f8060408587031215612214575f80fd5b84356001600160401b03811115612229575f80fd5b61223587828801611fcf565b90955093505060208501356001600160401b03811115612253575f80fd5b61225f87828801611fcf565b95989497509550505050565b80356001600160a01b03811681146120a7575f80fd5b5f82601f830112612290575f80fd5b81356001600160401b038111156122a9576122a961212b565b8060051b6122b96020820161213f565b918252602081850181019290810190868411156122d4575f80fd5b6020860192505b838310156122fd576122ec8361226b565b8252602092830192909101906122db565b9695505050505050565b5f60208284031215612317575f80fd5b81356001600160401b0381111561232c575f80fd5b61233884828501612281565b949350505050565b5f805f805f60808688031215612354575f80fd5b61235d8661226b565b945060208601356001600160401b038111156120f2575f80fd5b5f60208284031215612387575f80fd5b611cc68261226b565b5f805f805f608086880312156123a4575f80fd5b853594506020860135935060408601356001600160401b038111156123c7575f80fd5b6123d388828901612054565b909450925061211f905060608701612091565b5f602082840312156123f6575f80fd5b5035919050565b634e487b7160e01b5f52602160045260245ffd5b602081016003831061243157634e487b7160e01b5f52602160045260245ffd5b91905290565b5f805f806040858703121561244a575f80fd5b84356001600160401b0381111561245f575f80fd5b8501601f8101871361246f575f80fd5b80356001600160401b03811115612484575f80fd5b8760208260061b8401011115612498575f80fd5b6020918201955093508501356001600160401b03811115612253575f80fd5b5f805f805f60a086880312156124cb575f80fd5b6124d48661226b565b94506124e26020870161226b565b93506124f06040870161226b565b92506124fe6060870161226b565b915060808601356001600160401b03811115612518575f80fd5b61252488828901612281565b9150509295509295909350565b634e487b7160e01b5f52603260045260245ffd5b6020808252600f908201526e756e6b6e6f776e2070726f6772616d60881b604082015260600190565b81835281816020850137505f828201602090810191909152601f909101601f19169091010190565b606081525f6125a960608301868861256e565b90506001600160401b03841660208301526001600160801b038316604083015295945050505050565b634e487b7160e01b5f52601160045260245ffd5b81810381811115611223576112236125d2565b5f8235607e1983360301811261260d575f80fd5b9190910192915050565b5f81518060208401855e5f93019283525090919050565b5f6126398285612617565b9283525050602001919050565b80820180821115611223576112236125d2565b8015158114611000575f80fd5b5f60208284031215612676575f80fd5b8135611cc681612659565b5f60208284031215612691575f80fd5b5051919050565b5f602082840312156126a8575f80fd5b8151611cc681612659565b5f808335601e198436030181126126c8575f80fd5b8301803591506001600160401b038211156126e1575f80fd5b6020019150600581901b360382131561200f575f80fd5b5f823560be1983360301811261260d575f80fd5b5f808335601e19843603018112612721575f80fd5b8301803591506001600160401b0382111561273a575f80fd5b60200191503681900382131561200f575f80fd5b5f6020828403121561275e575f80fd5b611cc6826120ac565b5f60208284031215612777575f80fd5b81356001600160e01b031981168114611cc6575f80fd5b8781526bffffffffffffffffffffffff198760601b1660208201528486603483013760809390931b6fffffffffffffffffffffffffffffffff19166034949093019384019290925260448301526001600160e01b03191660648201526068019392505050565b604081525f61280760408301858761256e565b90506001600160801b0383166020830152949350505050565b608081525f61283360808301878961256e565b6001600160801b039590951660208301525060408101929092526001600160e01b03191660609091015292915050565b5f81612871576128716125d2565b505f190190565b601960f81b8152606083901b6bffffffffffffffffffffffff191660028201525f612338601683018461261756fea26469706673582212201de3847025c7c2b1bd71a50486c734bc6bebe8a0a3571b3157b47b44db2a823064736f6c634300081a0033","linkReferences":{}},"methodIdentifiers":{"COUNT_OF_VALIDATORS()":"1b76cd15","REQUIRED_SIGNATURES()":"9ac18b19","addValidators(address[])":"70223952","claimValue(bytes32)":"91d5a64c","codes(bytes32)":"ad656510","commitBlocks((bytes32,bytes32,bytes32,(address,bytes32,bytes32,(bytes32,address,bytes,uint128,(bytes32,bytes4))[])[])[],bytes[])":"5daa83bc","commitCodes((bytes32,bool)[],bytes[])":"e97d3eb3","countOfValidators()":"f79353e2","createProgram(bytes32,bytes32,bytes,uint64)":"8a3b2202","genesisBlockHash()":"28e24b3d","getStorageSlot()":"96708226","initialize(address,address,address,address,address[])":"f8453e7c","lastBlockCommitmentHash()":"2dacfb69","minimalProgram()":"a04a8836","owner()":"8da5cb5b","program()":"c860ebc6","programs(address)":"8405e41c","reinitialize()":"6c2eb350","removeValidators(address[])":"1d40f0d8","renounceOwnership()":"715018a6","sendMessage(address,bytes,uint64,uint128)":"75e7e6dd","sendReply(bytes32,bytes,uint64,uint128)":"32bc103a","setProgram(address)":"dcc82b30","setStorageSlot(string)":"5686cad5","transferOwnership(address)":"f2fde38b","uploadCode(bytes32,bytes32)":"12c89ee6","validators(address)":"fa52c7d8","wrappedVara()":"88f50cf0"},"storageLayout":{"storage":[],"types":{}},"id":81}