{"abi":[{"type":"constructor","inputs":[],"stateMutability":"nonpayable"},{"type":"function","name":"baseFee","inputs":[],"outputs":[{"name":"","type":"uint128","internalType":"uint128"}],"stateMutability":"view"},{"type":"function","name":"baseWeight","inputs":[],"outputs":[{"name":"","type":"uint64","internalType":"uint64"}],"stateMutability":"view"},{"type":"function","name":"codeState","inputs":[{"name":"codeId","type":"bytes32","internalType":"bytes32"}],"outputs":[{"name":"","type":"uint8","internalType":"enum IRouter.CodeState"}],"stateMutability":"view"},{"type":"function","name":"commitBlocks","inputs":[{"name":"blockCommitmentsArray","type":"tuple[]","internalType":"struct IRouter.BlockCommitment[]","components":[{"name":"blockHash","type":"bytes32","internalType":"bytes32"},{"name":"prevCommitmentHash","type":"bytes32","internalType":"bytes32"},{"name":"predBlockHash","type":"bytes32","internalType":"bytes32"},{"name":"transitions","type":"tuple[]","internalType":"struct IRouter.StateTransition[]","components":[{"name":"actorId","type":"address","internalType":"address"},{"name":"newStateHash","type":"bytes32","internalType":"bytes32"},{"name":"valueToReceive","type":"uint128","internalType":"uint128"},{"name":"valueClaims","type":"tuple[]","internalType":"struct IRouter.ValueClaim[]","components":[{"name":"messageId","type":"bytes32","internalType":"bytes32"},{"name":"destination","type":"address","internalType":"address"},{"name":"value","type":"uint128","internalType":"uint128"}]},{"name":"messages","type":"tuple[]","internalType":"struct IRouter.OutgoingMessage[]","components":[{"name":"id","type":"bytes32","internalType":"bytes32"},{"name":"destination","type":"address","internalType":"address"},{"name":"payload","type":"bytes","internalType":"bytes"},{"name":"value","type":"uint128","internalType":"uint128"},{"name":"replyDetails","type":"tuple","internalType":"struct IRouter.ReplyDetails","components":[{"name":"to","type":"bytes32","internalType":"bytes32"},{"name":"code","type":"bytes4","internalType":"bytes4"}]}]}]}]},{"name":"signatures","type":"bytes[]","internalType":"bytes[]"}],"outputs":[],"stateMutability":"nonpayable"},{"type":"function","name":"commitCodes","inputs":[{"name":"codeCommitmentsArray","type":"tuple[]","internalType":"struct IRouter.CodeCommitment[]","components":[{"name":"id","type":"bytes32","internalType":"bytes32"},{"name":"valid","type":"bool","internalType":"bool"}]},{"name":"signatures","type":"bytes[]","internalType":"bytes[]"}],"outputs":[],"stateMutability":"nonpayable"},{"type":"function","name":"createProgram","inputs":[{"name":"codeId","type":"bytes32","internalType":"bytes32"},{"name":"salt","type":"bytes32","internalType":"bytes32"},{"name":"payload","type":"bytes","internalType":"bytes"},{"name":"_value","type":"uint128","internalType":"uint128"}],"outputs":[{"name":"","type":"address","internalType":"address"}],"stateMutability":"payable"},{"type":"function","name":"genesisBlockHash","inputs":[],"outputs":[{"name":"","type":"bytes32","internalType":"bytes32"}],"stateMutability":"view"},{"type":"function","name":"getStorageSlot","inputs":[],"outputs":[{"name":"","type":"bytes32","internalType":"bytes32"}],"stateMutability":"view"},{"type":"function","name":"initialize","inputs":[{"name":"initialOwner","type":"address","internalType":"address"},{"name":"_mirror","type":"address","internalType":"address"},{"name":"_mirrorProxy","type":"address","internalType":"address"},{"name":"_wrappedVara","type":"address","internalType":"address"},{"name":"_validatorAddressArray","type":"address[]","internalType":"address[]"}],"outputs":[],"stateMutability":"nonpayable"},{"type":"function","name":"lastBlockCommitmentHash","inputs":[],"outputs":[{"name":"","type":"bytes32","internalType":"bytes32"}],"stateMutability":"view"},{"type":"function","name":"mirror","inputs":[],"outputs":[{"name":"","type":"address","internalType":"address"}],"stateMutability":"view"},{"type":"function","name":"mirrorProxy","inputs":[],"outputs":[{"name":"","type":"address","internalType":"address"}],"stateMutability":"view"},{"type":"function","name":"owner","inputs":[],"outputs":[{"name":"","type":"address","internalType":"address"}],"stateMutability":"view"},{"type":"function","name":"programExists","inputs":[{"name":"program","type":"address","internalType":"address"}],"outputs":[{"name":"","type":"bool","internalType":"bool"}],"stateMutability":"view"},{"type":"function","name":"programsCount","inputs":[],"outputs":[{"name":"","type":"uint256","internalType":"uint256"}],"stateMutability":"view"},{"type":"function","name":"renounceOwnership","inputs":[],"outputs":[],"stateMutability":"nonpayable"},{"type":"function","name":"requestCodeValidation","inputs":[{"name":"codeId","type":"bytes32","internalType":"bytes32"},{"name":"blobTxHash","type":"bytes32","internalType":"bytes32"}],"outputs":[],"stateMutability":"nonpayable"},{"type":"function","name":"setBaseWeight","inputs":[{"name":"_baseWeight","type":"uint64","internalType":"uint64"}],"outputs":[],"stateMutability":"nonpayable"},{"type":"function","name":"setMirror","inputs":[{"name":"_mirror","type":"address","internalType":"address"}],"outputs":[],"stateMutability":"nonpayable"},{"type":"function","name":"setStorageSlot","inputs":[{"name":"namespace","type":"string","internalType":"string"}],"outputs":[],"stateMutability":"nonpayable"},{"type":"function","name":"setValuePerWeight","inputs":[{"name":"_valuePerWeight","type":"uint128","internalType":"uint128"}],"outputs":[],"stateMutability":"nonpayable"},{"type":"function","name":"signingThresholdPercentage","inputs":[],"outputs":[{"name":"","type":"uint256","internalType":"uint256"}],"stateMutability":"view"},{"type":"function","name":"transferOwnership","inputs":[{"name":"newOwner","type":"address","internalType":"address"}],"outputs":[],"stateMutability":"nonpayable"},{"type":"function","name":"updateValidators","inputs":[{"name":"validatorsAddressArray","type":"address[]","internalType":"address[]"}],"outputs":[],"stateMutability":"nonpayable"},{"type":"function","name":"validatedCodesCount","inputs":[],"outputs":[{"name":"","type":"uint256","internalType":"uint256"}],"stateMutability":"view"},{"type":"function","name":"validatorExists","inputs":[{"name":"validator","type":"address","internalType":"address"}],"outputs":[{"name":"","type":"bool","internalType":"bool"}],"stateMutability":"view"},{"type":"function","name":"validators","inputs":[],"outputs":[{"name":"","type":"address[]","internalType":"address[]"}],"stateMutability":"view"},{"type":"function","name":"validatorsCount","inputs":[],"outputs":[{"name":"","type":"uint256","internalType":"uint256"}],"stateMutability":"view"},{"type":"function","name":"validatorsThreshold","inputs":[],"outputs":[{"name":"","type":"uint256","internalType":"uint256"}],"stateMutability":"view"},{"type":"function","name":"valuePerWeight","inputs":[],"outputs":[{"name":"","type":"uint128","internalType":"uint128"}],"stateMutability":"view"},{"type":"function","name":"wrappedVara","inputs":[],"outputs":[{"name":"","type":"address","internalType":"address"}],"stateMutability":"view"},{"type":"event","name":"BaseWeightChanged","inputs":[{"name":"baseWeight","type":"uint64","indexed":false,"internalType":"uint64"}],"anonymous":false},{"type":"event","name":"BlockCommitted","inputs":[{"name":"blockHash","type":"bytes32","indexed":false,"internalType":"bytes32"}],"anonymous":false},{"type":"event","name":"CodeFailedValidation","inputs":[{"name":"codeId","type":"bytes32","indexed":false,"internalType":"bytes32"}],"anonymous":false},{"type":"event","name":"CodeGotValidated","inputs":[{"name":"codeId","type":"bytes32","indexed":false,"internalType":"bytes32"}],"anonymous":false},{"type":"event","name":"CodeValidationRequested","inputs":[{"name":"codeId","type":"bytes32","indexed":false,"internalType":"bytes32"},{"name":"blobTxHash","type":"bytes32","indexed":false,"internalType":"bytes32"}],"anonymous":false},{"type":"event","name":"Initialized","inputs":[{"name":"version","type":"uint64","indexed":false,"internalType":"uint64"}],"anonymous":false},{"type":"event","name":"OwnershipTransferred","inputs":[{"name":"previousOwner","type":"address","indexed":true,"internalType":"address"},{"name":"newOwner","type":"address","indexed":true,"internalType":"address"}],"anonymous":false},{"type":"event","name":"ProgramCreated","inputs":[{"name":"actorId","type":"address","indexed":false,"internalType":"address"},{"name":"codeId","type":"bytes32","indexed":true,"internalType":"bytes32"}],"anonymous":false},{"type":"event","name":"StorageSlotChanged","inputs":[],"anonymous":false},{"type":"event","name":"ValidatorsSetChanged","inputs":[],"anonymous":false},{"type":"event","name":"ValuePerWeightChanged","inputs":[{"name":"valuePerWeight","type":"uint128","indexed":false,"internalType":"uint128"}],"anonymous":false},{"type":"error","name":"ECDSAInvalidSignature","inputs":[]},{"type":"error","name":"ECDSAInvalidSignatureLength","inputs":[{"name":"length","type":"uint256","internalType":"uint256"}]},{"type":"error","name":"ECDSAInvalidSignatureS","inputs":[{"name":"s","type":"bytes32","internalType":"bytes32"}]},{"type":"error","name":"FailedDeployment","inputs":[]},{"type":"error","name":"InsufficientBalance","inputs":[{"name":"balance","type":"uint256","internalType":"uint256"},{"name":"needed","type":"uint256","internalType":"uint256"}]},{"type":"error","name":"InvalidInitialization","inputs":[]},{"type":"error","name":"NotInitializing","inputs":[]},{"type":"error","name":"OwnableInvalidOwner","inputs":[{"name":"owner","type":"address","internalType":"address"}]},{"type":"error","name":"OwnableUnauthorizedAccount","inputs":[{"name":"account","type":"address","internalType":"address"}]},{"type":"error","name":"ReentrancyGuardReentrantCall","inputs":[]}],"bytecode":{"object":"0x6080604052348015600e575f80fd5b5060156019565b60c9565b7ff0c57e16840df040f15088dc2f81fe391c3923bec73e23a9662efc9c229c6a00805468010000000000000000900460ff161560685760405163f92ee8a960e01b815260040160405180910390fd5b80546001600160401b039081161460c65780546001600160401b0319166001600160401b0390811782556040519081527fc7f505b2f371ae2175ee4913f4499e1f2633a7b5936321eed1cdaeb6115181d29060200160405180910390a15b50565b612c68806100d65f395ff3fe6080604052600436106101cf575f3560e01c80638da5cb5b116100fd578063e71731e411610092578063efd81abc11610062578063efd81abc1461052a578063f2fde38b1461053e578063f8453e7c1461055d578063fa97ed6d1461057c575f80fd5b8063e71731e4146104c4578063e97d3eb3146104e3578063ed612f8c14610502578063edc8722514610516575f80fd5b8063a6bbbe1c116100cd578063a6bbbe1c1461042c578063c13911e81461044b578063ca1e781914610477578063d3fd636414610498575f80fd5b80638da5cb5b1461038a5780638febbd59146103c657806396708226146103e557806396a2ddfa14610418575f80fd5b8063444d91721161017357806378ee5dec1161014357806378ee5dec146103305780638028861a146103445780638074b4551461036357806388f50cf014610376575f80fd5b8063444d9172146102bd5780635686cad5146102e95780636ef25c3a14610308578063715018a61461031c575f80fd5b80631c149d8a116101ae5780631c149d8a1461025557806328e24b3d146102765780632dacfb691461028a5780633d43b4181461029e575f80fd5b80627a32e7146101d357806302e55897146101fa5780630834fecc14610229575b5f80fd5b3480156101de575f80fd5b506101e761059b565b6040519081526020015b60405180910390f35b348015610205575f80fd5b506102196102143660046122ff565b6105af565b60405190151581526020016101f1565b348015610234575f80fd5b5061023d6105dd565b6040516001600160801b0390911681526020016101f1565b348015610260575f80fd5b5061027461026f366004612318565b610601565b005b348015610281575f80fd5b506101e761074f565b348015610295575f80fd5b506101e7610760565b3480156102a9575f80fd5b506102746102b83660046122ff565b610774565b3480156102c8575f80fd5b506102d16107aa565b6040516001600160a01b0390911681526020016101f1565b3480156102f4575f80fd5b5061027461030336600461237c565b6107c7565b348015610313575f80fd5b5061023d610864565b348015610327575f80fd5b5061027461088d565b34801561033b575f80fd5b506102d16108a0565b34801561034f575f80fd5b5061027461035e36600461240e565b6108bd565b6102d161037136600461244a565b61092a565b348015610381575f80fd5b506102d1610b2a565b348015610395575f80fd5b507f9016d09d72d40fdae2fd8ceac6b6234c7706214fd39c1cd1e609a0528c199300546001600160a01b03166102d1565b3480156103d1575f80fd5b506102196103e03660046122ff565b610b47565b3480156103f0575f80fd5b507f5c09ca1b9b8127a4fd9f3c384aac59b661441e820e17733753ff5f2e86e1e000546101e7565b348015610423575f80fd5b506101e7610b75565b348015610437575f80fd5b506102746104463660046124d9565b610b89565b348015610456575f80fd5b5061046a6104653660046124f2565b610c07565b6040516101f1919061251d565b348015610482575f80fd5b5061048b610c28565b6040516101f19190612543565b3480156104a3575f80fd5b506104ac610c91565b6040516001600160401b0390911681526020016101f1565b3480156104cf575f80fd5b506102746104de3660046125d5565b610cae565b3480156104ee575f80fd5b506102746104fd366004612613565b610d25565b34801561050d575f80fd5b506101e7610f01565b348015610521575f80fd5b506101e7610f15565b348015610535575f80fd5b506101e7610f49565b348015610549575f80fd5b506102746105583660046122ff565b610f5d565b348015610568575f80fd5b506102746105773660046126ab565b610f9a565b348015610587575f80fd5b5061027461059636600461279b565b61116c565b5f806105a56111f4565b600a015492915050565b5f806105b96111f4565b6001600160a01b039093165f908152600b9093016020525050604090205460ff1690565b5f806105e76111f4565b60060154600160401b90046001600160801b031692915050565b8015158061060f57505f4915155b6106605760405162461bcd60e51b815260206004820152601c60248201527f626c6f6254784861736820636f756c646e277420626520666f756e640000000060448201526064015b60405180910390fd5b5f6106696111f4565b90505f8084815260098301602052604090205460ff16600281111561069057610690612509565b146106f65760405162461bcd60e51b815260206004820152603060248201527f636f64652077697468207375636820696420616c72656164792072657175657360448201526f1d1959081bdc881d985b1a59185d195960821b6064820152608401610657565b5f838152600982016020908152604091829020805460ff1916600117905581518581529081018490527f65672eaf4ff8b823ea29ae013fef437d1fa9ed431125263a7a1f0ac49eada396910160405180910390a1505050565b5f806107596111f4565b5492915050565b5f8061076a6111f4565b6004015492915050565b61077c611224565b5f6107856111f4565b60010180546001600160a01b0319166001600160a01b03939093169290921790915550565b5f806107b46111f4565b600101546001600160a01b031692915050565b6107cf611224565b805160208201205f9060ff19906107e890600190612801565b6040516020016107fa91815260200190565b60408051601f198184030181529190528051602090910120169050807f5c09ca1b9b8127a4fd9f3c384aac59b661441e820e17733753ff5f2e86e1e000556040517f5aa0c6c9fb33211212ffe5bef7a4b5d511b82a611e6677052d984e2bcedeaccc905f90a15050565b5f61086d6105dd565b610875610c91565b6001600160401b03166108889190612814565b905090565b610895611224565b61089e5f61127f565b565b5f806108aa6111f4565b600201546001600160a01b031692915050565b6108c5611224565b5f6108ce6111f4565b60068101805467ffffffffffffffff19166001600160401b0385169081179091556040519081529091507f01326573cfc0bc40a2550923254394ebd7529e3e3301840dfa33cf786aead0c7906020015b60405180910390a15050565b5f806109346111f4565b905060025f88815260098301602052604090205460ff16600281111561095c5761095c612509565b146109c05760405162461bcd60e51b815260206004820152602e60248201527f636f6465206d7573742062652076616c696461746564206265666f726520707260448201526d37b3b930b69031b932b0ba34b7b760911b6064820152608401610657565b5f6109c9610864565b90505f6109d782600a612814565b90505f856109e5838561283d565b6109ef919061283d565b90506109fa816112ef565b600284015460408051602081018d90529081018b90525f91610a40916001600160a01b0390911690606001604051602081830303815290604052805190602001206113d3565b6001600160a01b0381165f908152600b870160205260408120805460ff19166001179055600c8701805492935090610a778361285c565b90915550506040516001600160a01b03821681528b907f8008ec1d8798725ebfa0f2d128d52e8e717dcba6e0f786557eeee70614b02bf19060200160405180910390a26040516306f0ee9760e51b81526001600160a01b0382169063de1dd2e090610aee9032908d908d908d908a9060040161289c565b5f604051808303815f87803b158015610b05575f80fd5b505af1158015610b17573d5f803e3d5ffd5b50929d9c50505050505050505050505050565b5f80610b346111f4565b600301546001600160a01b031692915050565b5f80610b516111f4565b6001600160a01b039093165f90815260079093016020525050604090205460ff1690565b5f80610b7f6111f4565b600c015492915050565b610b91611224565b5f610b9a6111f4565b60068101805477ffffffffffffffffffffffffffffffff00000000000000001916600160401b6001600160801b038616908102919091179091556040519081529091507f9f5e1796f1a0adf311f86170503308a06a16560a7679b7b6da35f4999200d7409060200161091e565b5f80610c116111f4565b5f9384526009016020525050604090205460ff1690565b60605f610c336111f4565b60088101805460408051602080840282018101909252828152939450830182828015610c8657602002820191905f5260205f20905b81546001600160a01b03168152600190910190602001808311610c68575b505050505091505090565b5f80610c9b6111f4565b600601546001600160401b031692915050565b610cb6611224565b610cbe6113e6565b610cf98282808060200260200160405190810160405280939291908181526020018383602002808284375f9201919091525061145692505050565b6040517f144bbc027dc176e94c43b7c1bcff2a8aa58ab434029eec294743cd4ab2e54f51905f90a15050565b5f610d2e6111f4565b905060605f5b85811015610ee65736878783818110610d4f57610d4f6128e2565b90506040020190505f610d6182611531565b90508381604051602001610d7692919061290d565b60408051601f198184030181529190529350813560015f82815260098801602052604090205460ff166002811115610db057610db0612509565b14610e0d5760405162461bcd60e51b815260206004820152602760248201527f636f64652073686f756c642062652072657175657374656420666f722076616c60448201526634b230ba34b7b760c91b6064820152608401610657565b610e1d6040840160208501612932565b15610e89575f8181526009870160205260408120805460ff19166002179055600a8701805491610e4c8361285c565b90915550506040518181527f4825ce3dfe386ce63991e050a642a03b001ebd26648d8cac6e7d3af5fc04cb149060200160405180910390a1610edb565b5f81815260098701602052604090819020805460ff19169055517f66f217d41ffea390a2e216f366d35762b0f0fe48554994562cf1878723f74a4290610ed29083815260200190565b60405180910390a15b505050600101610d34565b50610ef981805190602001208585611580565b505050505050565b5f80610f0b6111f4565b6008015492915050565b5f612710610f21610f49565b610f29610f01565b610f33919061294d565b610f3f9061270f612964565b6108889190612977565b5f80610f536111f4565b6005015492915050565b610f65611224565b6001600160a01b038116610f8e57604051631e4fbdf760e01b81525f6004820152602401610657565b610f978161127f565b50565b7ff0c57e16840df040f15088dc2f81fe391c3923bec73e23a9662efc9c229c6a008054600160401b810460ff1615906001600160401b03165f81158015610fde5750825b90505f826001600160401b03166001148015610ff95750303b155b905081158015611007575080155b156110255760405163f92ee8a960e01b815260040160405180910390fd5b845467ffffffffffffffff19166001178555831561104f57845460ff60401b1916600160401b1785555b6110588a611724565b61108e604051806040016040528060158152602001743937baba32b91739ba37b930b3b2972937baba32b960591b8152506107c7565b5f6110976111f4565b90506110a4600143612801565b4081556001810180546001600160a01b03199081166001600160a01b038d81169190911790925560028301805482168c8416179055600383018054909116918a16919091179055611a0a60058201556006810180546001600160c01b031916680a000000009502f90017905561111987611456565b50831561116057845460ff60401b19168555604051600181527fc7f505b2f371ae2175ee4913f4499e1f2633a7b5936321eed1cdaeb6115181d29060200160405180910390a15b50505050505050505050565b60605f5b848110156111da573686868381811061118b5761118b6128e2565b905060200281019061119d9190612996565b90505f6111a982611735565b905083816040516020016111be92919061290d565b60408051808303601f1901815291905293505050600101611170565b506111ed81805190602001208484611580565b5050505050565b5f8061121e7f5c09ca1b9b8127a4fd9f3c384aac59b661441e820e17733753ff5f2e86e1e0005490565b92915050565b336112567f9016d09d72d40fdae2fd8ceac6b6234c7706214fd39c1cd1e609a0528c199300546001600160a01b031690565b6001600160a01b03161461089e5760405163118cdaa760e01b8152336004820152602401610657565b7f9016d09d72d40fdae2fd8ceac6b6234c7706214fd39c1cd1e609a0528c19930080546001600160a01b031981166001600160a01b03848116918217845560405192169182907f8be0079c531659141344cd1fd0a4f28419497f9722a3daafe3b4186f6b6457e0905f90a3505050565b5f6112f86111f4565b60038101546040516323b872dd60e01b81523260048201523060248201526001600160801b03851660448201529192505f916001600160a01b03909116906323b872dd906064016020604051808303815f875af115801561135b573d5f803e3d5ffd5b505050506040513d601f19601f8201168201806040525081019061137f91906129b4565b9050806113ce5760405162461bcd60e51b815260206004820152601860248201527f6661696c656420746f20726574726965766520575661726100000000000000006044820152606401610657565b505050565b5f6113df83835f61190d565b9392505050565b5f6113ef6111f4565b90505f5b6008820154811015611448575f826008018281548110611415576114156128e2565b5f9182526020808320909101546001600160a01b0316825260078501905260409020805460ff19169055506001016113f3565b50610f97600882015f612252565b5f61145f6111f4565b6008810154909150156114c05760405162461bcd60e51b815260206004820152602360248201527f70726576696f75732076616c696461746f727320776572656e27742072656d6f6044820152621d995960ea1b6064820152608401610657565b5f5b825181101561151b575f8382815181106114de576114de6128e2565b6020908102919091018101516001600160a01b03165f9081526007850190915260409020805460ff191660019081179091559190910190506114c2565b5081516113ce906008830190602085019061226d565b5f81356115446040840160208501612932565b604051602001611563929190918252151560f81b602082015260210190565b604051602081830303815290604052805190602001209050919050565b5f6115896111f4565b90505f611594610f15565b90505f6115c4866040516020016115ad91815260200190565b60408051601f1981840301815291905230906119a2565b90505f805b858110156116ca57365f8888848181106115e5576115e56128e2565b90506020028101906115f791906129cf565b915091505f61163d83838080601f0160208091040260200160405190810160405280939291908181526020018383808284375f920191909152508a939250506119d49050565b6001600160a01b0381165f90815260078a01602052604090205490915060ff1615611681578661166c8661285c565b9550850361167c575050506116ca565b6116bf565b60405162461bcd60e51b8152602060048201526013602482015272696e636f7272656374207369676e617475726560681b6044820152606401610657565b5050506001016115c9565b508281101561171b5760405162461bcd60e51b815260206004820152601b60248201527f6e6f7420656e6f7567682076616c6964207369676e61747572657300000000006044820152606401610657565b50505050505050565b61172c6119fc565b610f9781611a45565b5f8061173f6111f4565b905082602001358160040154146117985760405162461bcd60e51b815260206004820181905260248201527f696e76616c69642070726576696f757320636f6d6d69746d656e7420686173686044820152606401610657565b6117a58360400135611a4d565b6117fd5760405162461bcd60e51b815260206004820152602360248201527f616c6c6f776564207072656465636573736f7220626c6f636b206e6f7420666f6044820152621d5b9960ea1b6064820152608401610657565b60605f5b61180e6060860186612a11565b905081101561188457366118256060870187612a11565b83818110611835576118356128e2565b90506020028101906118479190612a56565b90505f61185382611a9f565b9050838160405160200161186892919061290d565b60408051808303601f1901815291905293505050600101611801565b508335600483018190556040519081527fd756eca21e02cb0dbde1e44a4d9c6921b5c8aa4668cfa0752784b3dc855bce1e9060200160405180910390a180516020828101919091206040805187358185015283880135818301528188013560608201526080808201939093528151808203909301835260a001905280519101205b949350505050565b5f814710156119385760405163cf47918160e01b815247600482015260248101839052604401610657565b763d602d80600a3d3981f3363d3d373d3d3d363d730000008460601b60e81c175f526e5af43d82803e903d91602b57fd5bf38460781b17602052826037600984f590506001600160a01b0381166113df5760405163b06ebf3d60e01b815260040160405180910390fd5b5f82826040516020016119b6929190612a6a565b60405160208183030381529060405280519060200120905092915050565b5f805f806119e2868661202a565b9250925092506119f28282612073565b5090949350505050565b7ff0c57e16840df040f15088dc2f81fe391c3923bec73e23a9662efc9c229c6a0054600160401b900460ff1661089e57604051631afcd79f60e31b815260040160405180910390fd5b610f656119fc565b5f80611a5a600143612801565b90505b8015611a97578040838103611a76575060019392505050565b5f819003611a845750611a97565b5080611a8f81612a93565b915050611a5d565b505f92915050565b5f80611aa96111f4565b9050600b81015f611abd60208601866122ff565b6001600160a01b0316815260208101919091526040015f205460ff16611b3d5760405162461bcd60e51b815260206004820152602f60248201527f636f756c646e277420706572666f726d207472616e736974696f6e20666f722060448201526e756e6b6e6f776e2070726f6772616d60881b6064820152608401610657565b60038101546001600160a01b03168063a9059cbb611b5e60208701876122ff565b611b6e60608801604089016124d9565b6040516001600160e01b031960e085901b1681526001600160a01b0390921660048301526001600160801b031660248201526044016020604051808303815f875af1158015611bbf573d5f803e3d5ffd5b505050506040513d601f19601f82011682018060405250810190611be391906129b4565b505f611bf260208601866122ff565b905060605f5b611c056060880188612aa8565b9050811015611d735736611c1c6060890189612aa8565b83818110611c2c57611c2c6128e2565b6060029190910191508390508135611c4a60408401602085016122ff565b611c5a60608501604086016124d9565b604051602001611c979392919092835260609190911b6001600160601b031916602083015260801b6001600160801b031916603482015260440190565b60408051601f1981840301815290829052611cb59291602001612aec565b6040516020818303038152906040529250836001600160a01b03166314503e51825f0135836020016020810190611cec91906122ff565b611cfc60608601604087016124d9565b6040516001600160e01b031960e086901b16815260048101939093526001600160a01b0390911660248301526001600160801b031660448201526064015f604051808303815f87803b158015611d50575f80fd5b505af1158015611d62573d5f803e3d5ffd5b505060019093019250611bf8915050565b5060605f5b611d856080890189612a11565b9050811015611f315736611d9c60808a018a612a11565b83818110611dac57611dac6128e2565b9050602002810190611dbe9190612b00565b905082611dca8261212f565b604051602001611ddb92919061290d565b60408051601f19818403018152919052925060808101355f03611e88576001600160a01b03851663c2df60098235611e1960408501602086016122ff565b611e2660408601866129cf565b611e3660808801606089016124d9565b6040518663ffffffff1660e01b8152600401611e56959493929190612b14565b5f604051808303815f87803b158015611e6d575f80fd5b505af1158015611e7f573d5f803e3d5ffd5b50505050611f28565b6001600160a01b03851663c78bde77611ea760408401602085016122ff565b611eb460408501856129cf565b611ec460808701606088016124d9565b6080870135611ed960c0890160a08a01612b59565b6040518763ffffffff1660e01b8152600401611efa96959493929190612b80565b5f604051808303815f87803b158015611f11575f80fd5b505af1158015611f23573d5f803e3d5ffd5b505050505b50600101611d78565b50604051638ea59e1d60e01b8152602088013560048201526001600160a01b03841690638ea59e1d906024015f604051808303815f87803b158015611f74575f80fd5b505af1158015611f86573d5f803e3d5ffd5b5061201f9250611f9c91505060208901896122ff565b6020890135611fb160608b0160408c016124d9565b85516020808801919091208651878301206040805160609790971b6001600160601b03191687850152603487019590955260809390931b6001600160801b031916605486015260648501526084808501929092528251808503909201825260a4909301909152805191012090565b979650505050505050565b5f805f8351604103612061576020840151604085015160608601515f1a6120538882858561218a565b95509550955050505061206c565b505081515f91506002905b9250925092565b5f82600381111561208657612086612509565b0361208f575050565b60018260038111156120a3576120a3612509565b036120c15760405163f645eedf60e01b815260040160405180910390fd5b60028260038111156120d5576120d5612509565b036120f65760405163fce698f760e01b815260048101829052602401610657565b600382600381111561210a5761210a612509565b0361212b576040516335e2f38360e21b815260048101829052602401610657565b5050565b5f813561214260408401602085016122ff565b61214f60408501856129cf565b61215f60808701606088016124d9565b608087013561217460c0890160a08a01612b59565b6040516020016115639796959493929190612bd5565b5f80807f7fffffffffffffffffffffffffffffff5d576e7357a4501ddfe92f46681b20a08411156121c357505f91506003905082612248565b604080515f808252602082018084528a905260ff891692820192909252606081018790526080810186905260019060a0016020604051602081039080840390855afa158015612214573d5f803e3d5ffd5b5050604051601f1901519150506001600160a01b03811661223f57505f925060019150829050612248565b92505f91508190505b9450945094915050565b5080545f8255905f5260205f2090810190610f9791906122d0565b828054828255905f5260205f209081019282156122c0579160200282015b828111156122c057825182546001600160a01b0319166001600160a01b0390911617825560209092019160019091019061228b565b506122cc9291506122d0565b5090565b5b808211156122cc575f81556001016122d1565b80356001600160a01b03811681146122fa575f80fd5b919050565b5f6020828403121561230f575f80fd5b6113df826122e4565b5f8060408385031215612329575f80fd5b50508035926020909101359150565b634e487b7160e01b5f52604160045260245ffd5b604051601f8201601f191681016001600160401b038111828210171561237457612374612338565b604052919050565b5f6020828403121561238c575f80fd5b81356001600160401b038111156123a1575f80fd5b8201601f810184136123b1575f80fd5b80356001600160401b038111156123ca576123ca612338565b6123dd601f8201601f191660200161234c565b8181528560208385010111156123f1575f80fd5b816020840160208301375f91810160200191909152949350505050565b5f6020828403121561241e575f80fd5b81356001600160401b03811681146113df575f80fd5b80356001600160801b03811681146122fa575f80fd5b5f805f805f6080868803121561245e575f80fd5b853594506020860135935060408601356001600160401b03811115612481575f80fd5b8601601f81018813612491575f80fd5b80356001600160401b038111156124a6575f80fd5b8860208284010111156124b7575f80fd5b602091909101935091506124cd60608701612434565b90509295509295909350565b5f602082840312156124e9575f80fd5b6113df82612434565b5f60208284031215612502575f80fd5b5035919050565b634e487b7160e01b5f52602160045260245ffd5b602081016003831061253d57634e487b7160e01b5f52602160045260245ffd5b91905290565b602080825282518282018190525f918401906040840190835b818110156125835783516001600160a01b031683526020938401939092019160010161255c565b509095945050505050565b5f8083601f84011261259e575f80fd5b5081356001600160401b038111156125b4575f80fd5b6020830191508360208260051b85010111156125ce575f80fd5b9250929050565b5f80602083850312156125e6575f80fd5b82356001600160401b038111156125fb575f80fd5b6126078582860161258e565b90969095509350505050565b5f805f8060408587031215612626575f80fd5b84356001600160401b0381111561263b575f80fd5b8501601f8101871361264b575f80fd5b80356001600160401b03811115612660575f80fd5b8760208260061b8401011115612674575f80fd5b6020918201955093508501356001600160401b03811115612693575f80fd5b61269f8782880161258e565b95989497509550505050565b5f805f805f60a086880312156126bf575f80fd5b6126c8866122e4565b94506126d6602087016122e4565b93506126e4604087016122e4565b92506126f2606087016122e4565b915060808601356001600160401b0381111561270c575f80fd5b8601601f8101881361271c575f80fd5b80356001600160401b0381111561273557612735612338565b8060051b6127456020820161234c565b9182526020818401810192908101908b841115612760575f80fd5b6020850194505b8385101561278957612778856122e4565b825260209485019490910190612767565b80955050505050509295509295909350565b5f805f80604085870312156127ae575f80fd5b84356001600160401b038111156127c3575f80fd5b6127cf8782880161258e565b90955093505060208501356001600160401b03811115612693575f80fd5b634e487b7160e01b5f52601160045260245ffd5b8181038181111561121e5761121e6127ed565b6001600160801b038181168382160290811690818114612836576128366127ed565b5092915050565b6001600160801b03818116838216019081111561121e5761121e6127ed565b5f6001820161286d5761286d6127ed565b5060010190565b81835281816020850137505f828201602090810191909152601f909101601f19169091010190565b6001600160a01b03861681526080602082018190525f906128c09083018688612874565b6001600160801b03948516604084015292909316606090910152949350505050565b634e487b7160e01b5f52603260045260245ffd5b5f81518060208401855e5f93019283525090919050565b5f61291882856128f6565b9283525050602001919050565b8015158114610f97575f80fd5b5f60208284031215612942575f80fd5b81356113df81612925565b808202811582820484141761121e5761121e6127ed565b8082018082111561121e5761121e6127ed565b5f8261299157634e487b7160e01b5f52601260045260245ffd5b500490565b5f8235607e198336030181126129aa575f80fd5b9190910192915050565b5f602082840312156129c4575f80fd5b81516113df81612925565b5f808335601e198436030181126129e4575f80fd5b8301803591506001600160401b038211156129fd575f80fd5b6020019150368190038213156125ce575f80fd5b5f808335601e19843603018112612a26575f80fd5b8301803591506001600160401b03821115612a3f575f80fd5b6020019150600581901b36038213156125ce575f80fd5b5f8235609e198336030181126129aa575f80fd5b601960f81b8152606083901b6001600160601b03191660028201525f61190560168301846128f6565b5f81612aa157612aa16127ed565b505f190190565b5f808335601e19843603018112612abd575f80fd5b8301803591506001600160401b03821115612ad6575f80fd5b60200191506060810236038213156125ce575f80fd5b5f611905612afa83866128f6565b846128f6565b5f823560be198336030181126129aa575f80fd5b8581526001600160a01b03851660208201526080604082018190525f90612b3e9083018587612874565b90506001600160801b03831660608301529695505050505050565b5f60208284031215612b69575f80fd5b81356001600160e01b0319811681146113df575f80fd5b6001600160a01b038716815260a0602082018190525f90612ba49083018789612874565b6001600160801b039590951660408301525060608101929092526001600160e01b0319166080909101529392505050565b8781526bffffffffffffffffffffffff198760601b1660208201528486603483013760809390931b6001600160801b0319166034949093019384019290925260448301526001600160e01b0319166064820152606801939250505056fea2646970667358221220ea5eea572d7fa429230d2e5c858da7e0e64d44b7f4131b41cef4b748236a87cf64736f6c634300081a0033","linkReferences":{}},"methodIdentifiers":{"baseFee()":"6ef25c3a","baseWeight()":"d3fd6364","codeState(bytes32)":"c13911e8","commitBlocks((bytes32,bytes32,bytes32,(address,bytes32,uint128,(bytes32,address,uint128)[],(bytes32,address,bytes,uint128,(bytes32,bytes4))[])[])[],bytes[])":"fa97ed6d","commitCodes((bytes32,bool)[],bytes[])":"e97d3eb3","createProgram(bytes32,bytes32,bytes,uint128)":"8074b455","genesisBlockHash()":"28e24b3d","getStorageSlot()":"96708226","initialize(address,address,address,address,address[])":"f8453e7c","lastBlockCommitmentHash()":"2dacfb69","mirror()":"444d9172","mirrorProxy()":"78ee5dec","owner()":"8da5cb5b","programExists(address)":"02e55897","programsCount()":"96a2ddfa","renounceOwnership()":"715018a6","requestCodeValidation(bytes32,bytes32)":"1c149d8a","setBaseWeight(uint64)":"8028861a","setMirror(address)":"3d43b418","setStorageSlot(string)":"5686cad5","setValuePerWeight(uint128)":"a6bbbe1c","signingThresholdPercentage()":"efd81abc","transferOwnership(address)":"f2fde38b","updateValidators(address[])":"e71731e4","validatedCodesCount()":"007a32e7","validatorExists(address)":"8febbd59","validators()":"ca1e7819","validatorsCount()":"ed612f8c","validatorsThreshold()":"edc87225","valuePerWeight()":"0834fecc","wrappedVara()":"88f50cf0"},"storageLayout":{"storage":[],"types":{}},"id":78}