{"abi":[{"type":"constructor","inputs":[],"stateMutability":"nonpayable"},{"type":"function","name":"areValidators","inputs":[{"name":"_validators","type":"address[]","internalType":"address[]"}],"outputs":[{"name":"","type":"bool","internalType":"bool"}],"stateMutability":"view"},{"type":"function","name":"codeState","inputs":[{"name":"_codeId","type":"bytes32","internalType":"bytes32"}],"outputs":[{"name":"","type":"uint8","internalType":"enum Gear.CodeState"}],"stateMutability":"view"},{"type":"function","name":"codesStates","inputs":[{"name":"_codesIds","type":"bytes32[]","internalType":"bytes32[]"}],"outputs":[{"name":"","type":"uint8[]","internalType":"enum Gear.CodeState[]"}],"stateMutability":"view"},{"type":"function","name":"commitBatch","inputs":[{"name":"_batchCommitment","type":"tuple","internalType":"struct Gear.BatchCommitment","components":[{"name":"codeCommitments","type":"tuple[]","internalType":"struct Gear.CodeCommitment[]","components":[{"name":"id","type":"bytes32","internalType":"bytes32"},{"name":"timestamp","type":"uint48","internalType":"uint48"},{"name":"valid","type":"bool","internalType":"bool"}]},{"name":"blockCommitments","type":"tuple[]","internalType":"struct Gear.BlockCommitment[]","components":[{"name":"hash","type":"bytes32","internalType":"bytes32"},{"name":"timestamp","type":"uint48","internalType":"uint48"},{"name":"previousCommittedBlock","type":"bytes32","internalType":"bytes32"},{"name":"predecessorBlock","type":"bytes32","internalType":"bytes32"},{"name":"transitions","type":"tuple[]","internalType":"struct Gear.StateTransition[]","components":[{"name":"actorId","type":"address","internalType":"address"},{"name":"newStateHash","type":"bytes32","internalType":"bytes32"},{"name":"inheritor","type":"address","internalType":"address"},{"name":"valueToReceive","type":"uint128","internalType":"uint128"},{"name":"valueClaims","type":"tuple[]","internalType":"struct Gear.ValueClaim[]","components":[{"name":"messageId","type":"bytes32","internalType":"bytes32"},{"name":"destination","type":"address","internalType":"address"},{"name":"value","type":"uint128","internalType":"uint128"}]},{"name":"messages","type":"tuple[]","internalType":"struct Gear.Message[]","components":[{"name":"id","type":"bytes32","internalType":"bytes32"},{"name":"destination","type":"address","internalType":"address"},{"name":"payload","type":"bytes","internalType":"bytes"},{"name":"value","type":"uint128","internalType":"uint128"},{"name":"replyDetails","type":"tuple","internalType":"struct Gear.ReplyDetails","components":[{"name":"to","type":"bytes32","internalType":"bytes32"},{"name":"code","type":"bytes4","internalType":"bytes4"}]}]}]}]}]},{"name":"_signatureRX","type":"uint256","internalType":"uint256"},{"name":"_signatureRY","type":"uint256","internalType":"uint256"},{"name":"_signatureZ","type":"uint256","internalType":"uint256"}],"outputs":[],"stateMutability":"nonpayable"},{"type":"function","name":"commitValidators","inputs":[{"name":"_validatorsCommitment","type":"tuple","internalType":"struct Gear.ValidatorsCommitment","components":[{"name":"aggregatedPublicKey","type":"tuple","internalType":"struct Gear.AggregatedPublicKey","components":[{"name":"x","type":"uint256","internalType":"uint256"},{"name":"y","type":"uint256","internalType":"uint256"}]},{"name":"verifiableSecretSharingCommitment","type":"bytes","internalType":"bytes"},{"name":"validators","type":"address[]","internalType":"address[]"},{"name":"eraIndex","type":"uint256","internalType":"uint256"}]},{"name":"_signatureRX","type":"uint256","internalType":"uint256"},{"name":"_signatureRY","type":"uint256","internalType":"uint256"},{"name":"_signatureZ","type":"uint256","internalType":"uint256"}],"outputs":[],"stateMutability":"nonpayable"},{"type":"function","name":"computeSettings","inputs":[],"outputs":[{"name":"","type":"tuple","internalType":"struct Gear.ComputationSettings","components":[{"name":"threshold","type":"uint64","internalType":"uint64"},{"name":"wvaraPerSecond","type":"uint128","internalType":"uint128"}]}],"stateMutability":"view"},{"type":"function","name":"createProgram","inputs":[{"name":"_codeId","type":"bytes32","internalType":"bytes32"},{"name":"_salt","type":"bytes32","internalType":"bytes32"}],"outputs":[{"name":"","type":"address","internalType":"address"}],"stateMutability":"nonpayable"},{"type":"function","name":"createProgramWithAbiInterface","inputs":[{"name":"_codeId","type":"bytes32","internalType":"bytes32"},{"name":"_salt","type":"bytes32","internalType":"bytes32"},{"name":"_abiInterface","type":"address","internalType":"address"}],"outputs":[{"name":"","type":"address","internalType":"address"}],"stateMutability":"nonpayable"},{"type":"function","name":"genesisBlockHash","inputs":[],"outputs":[{"name":"","type":"bytes32","internalType":"bytes32"}],"stateMutability":"view"},{"type":"function","name":"genesisTimestamp","inputs":[],"outputs":[{"name":"","type":"uint48","internalType":"uint48"}],"stateMutability":"view"},{"type":"function","name":"initialize","inputs":[{"name":"_owner","type":"address","internalType":"address"},{"name":"_mirror","type":"address","internalType":"address"},{"name":"_wrappedVara","type":"address","internalType":"address"},{"name":"_eraDuration","type":"uint256","internalType":"uint256"},{"name":"_electionDuration","type":"uint256","internalType":"uint256"},{"name":"_validationDelay","type":"uint256","internalType":"uint256"},{"name":"_aggregatedPublicKey","type":"tuple","internalType":"struct Gear.AggregatedPublicKey","components":[{"name":"x","type":"uint256","internalType":"uint256"},{"name":"y","type":"uint256","internalType":"uint256"}]},{"name":"_verifiableSecretSharingCommitment","type":"bytes","internalType":"bytes"},{"name":"_validators","type":"address[]","internalType":"address[]"}],"outputs":[],"stateMutability":"nonpayable"},{"type":"function","name":"isValidator","inputs":[{"name":"_validator","type":"address","internalType":"address"}],"outputs":[{"name":"","type":"bool","internalType":"bool"}],"stateMutability":"view"},{"type":"function","name":"latestCommittedBlockHash","inputs":[],"outputs":[{"name":"","type":"bytes32","internalType":"bytes32"}],"stateMutability":"view"},{"type":"function","name":"lookupGenesisHash","inputs":[],"outputs":[],"stateMutability":"nonpayable"},{"type":"function","name":"mirrorImpl","inputs":[],"outputs":[{"name":"","type":"address","internalType":"address"}],"stateMutability":"view"},{"type":"function","name":"owner","inputs":[],"outputs":[{"name":"","type":"address","internalType":"address"}],"stateMutability":"view"},{"type":"function","name":"programCodeId","inputs":[{"name":"_programId","type":"address","internalType":"address"}],"outputs":[{"name":"","type":"bytes32","internalType":"bytes32"}],"stateMutability":"view"},{"type":"function","name":"programsCodeIds","inputs":[{"name":"_programsIds","type":"address[]","internalType":"address[]"}],"outputs":[{"name":"","type":"bytes32[]","internalType":"bytes32[]"}],"stateMutability":"view"},{"type":"function","name":"programsCount","inputs":[],"outputs":[{"name":"","type":"uint256","internalType":"uint256"}],"stateMutability":"view"},{"type":"function","name":"reinitialize","inputs":[],"outputs":[],"stateMutability":"nonpayable"},{"type":"function","name":"renounceOwnership","inputs":[],"outputs":[],"stateMutability":"nonpayable"},{"type":"function","name":"requestCodeValidation","inputs":[{"name":"_codeId","type":"bytes32","internalType":"bytes32"}],"outputs":[],"stateMutability":"nonpayable"},{"type":"function","name":"setMirror","inputs":[{"name":"newMirror","type":"address","internalType":"address"}],"outputs":[],"stateMutability":"nonpayable"},{"type":"function","name":"signingThresholdPercentage","inputs":[],"outputs":[{"name":"","type":"uint16","internalType":"uint16"}],"stateMutability":"view"},{"type":"function","name":"transferOwnership","inputs":[{"name":"newOwner","type":"address","internalType":"address"}],"outputs":[],"stateMutability":"nonpayable"},{"type":"function","name":"validatedCodesCount","inputs":[],"outputs":[{"name":"","type":"uint256","internalType":"uint256"}],"stateMutability":"view"},{"type":"function","name":"validators","inputs":[],"outputs":[{"name":"","type":"address[]","internalType":"address[]"}],"stateMutability":"view"},{"type":"function","name":"validatorsAggregatedPublicKey","inputs":[],"outputs":[{"name":"","type":"tuple","internalType":"struct Gear.AggregatedPublicKey","components":[{"name":"x","type":"uint256","internalType":"uint256"},{"name":"y","type":"uint256","internalType":"uint256"}]}],"stateMutability":"view"},{"type":"function","name":"validatorsCount","inputs":[],"outputs":[{"name":"","type":"uint256","internalType":"uint256"}],"stateMutability":"view"},{"type":"function","name":"validatorsThreshold","inputs":[],"outputs":[{"name":"","type":"uint256","internalType":"uint256"}],"stateMutability":"view"},{"type":"function","name":"validatorsVerifiableSecretSharingCommitment","inputs":[],"outputs":[{"name":"","type":"bytes","internalType":"bytes"}],"stateMutability":"view"},{"type":"function","name":"wrappedVara","inputs":[],"outputs":[{"name":"","type":"address","internalType":"address"}],"stateMutability":"view"},{"type":"event","name":"BlockCommitted","inputs":[{"name":"hash","type":"bytes32","indexed":false,"internalType":"bytes32"}],"anonymous":false},{"type":"event","name":"CodeGotValidated","inputs":[{"name":"codeId","type":"bytes32","indexed":false,"internalType":"bytes32"},{"name":"valid","type":"bool","indexed":true,"internalType":"bool"}],"anonymous":false},{"type":"event","name":"CodeValidationRequested","inputs":[{"name":"codeId","type":"bytes32","indexed":false,"internalType":"bytes32"}],"anonymous":false},{"type":"event","name":"ComputationSettingsChanged","inputs":[{"name":"threshold","type":"uint64","indexed":false,"internalType":"uint64"},{"name":"wvaraPerSecond","type":"uint128","indexed":false,"internalType":"uint128"}],"anonymous":false},{"type":"event","name":"Initialized","inputs":[{"name":"version","type":"uint64","indexed":false,"internalType":"uint64"}],"anonymous":false},{"type":"event","name":"NextEraValidatorsCommitted","inputs":[{"name":"startTimestamp","type":"uint256","indexed":false,"internalType":"uint256"}],"anonymous":false},{"type":"event","name":"OwnershipTransferred","inputs":[{"name":"previousOwner","type":"address","indexed":true,"internalType":"address"},{"name":"newOwner","type":"address","indexed":true,"internalType":"address"}],"anonymous":false},{"type":"event","name":"ProgramCreated","inputs":[{"name":"actorId","type":"address","indexed":false,"internalType":"address"},{"name":"codeId","type":"bytes32","indexed":true,"internalType":"bytes32"}],"anonymous":false},{"type":"event","name":"StorageSlotChanged","inputs":[],"anonymous":false},{"type":"error","name":"InvalidInitialization","inputs":[]},{"type":"error","name":"NotInitializing","inputs":[]},{"type":"error","name":"OwnableInvalidOwner","inputs":[{"name":"owner","type":"address","internalType":"address"}]},{"type":"error","name":"OwnableUnauthorizedAccount","inputs":[{"name":"account","type":"address","internalType":"address"}]},{"type":"error","name":"ReentrancyGuardReentrantCall","inputs":[]}],"bytecode":{"object":"0x6080806040523460aa575f51602061395f5f395f51905f525460ff8160401c16609b576002600160401b03196001600160401b038216016049575b6040516138b090816100af8239f35b6001600160401b0319166001600160401b039081175f51602061395f5f395f51905f525581527fc7f505b2f371ae2175ee4913f4499e1f2633a7b5936321eed1cdaeb6115181d290602090a15f80603a565b63f92ee8a960e01b5f5260045ffd5b5f80fdfe6101a0806040526004361015610013575f80fd5b5f610180525f3560e01c9081627a32e71461260957508063014cb81514612207578063120e3f1e1461207c57806328e24b3d1461204f57806338f0efe514611fb05780633bd109fa14611f5f5780633d43b41814611f08578063527de0f914611e825780636c2eb35014611b96578063715018a614611b2457806382bdeaad14611a1357806384d22a4f146119a857806388f50cf01461196d5780638b1edf1e1461189c5780638da5cb5b146118655780638f381dbe146118205780639067088e146117d857806396a2ddfa146117a8578063a5d53a4414611734578063baaf020114611633578063c13911e8146115e9578063c2fad8061461095a578063c9f16a111461092a578063ca1e7819146108a3578063cacf66ab14610869578063d31d68211461032f578063e6fabc09146102f4578063ed612f8c146102ba578063edc8722514610243578063efd81abc1461020f578063f2fde38b146101df5763facd743b14610181575f80fd5b346101d85760203660031901126101d85761019a6126fc565b60036101b55f5160206138705f395f51905f525442906135c5565b019060018060a01b03165f52602052602060ff60405f2054166040519015158152f35b6101805180fd5b346101d85760203660031901126101d8576102086101fb6126fc565b610203613232565b612a7a565b6101805180f35b346101d857610180513660031901126101d857602061ffff60075f5160206138705f395f51905f5254015416604051908152f35b346101d857610180513660031901126101d8576102855f5160206138705f395f51905f525461ffff6007600461027942856135c5565b01549201541690612861565b61270f81018091116102a05760209061271060405191048152f35b634e487b7160e01b61018051526011600452602461018051fd5b346101d857610180513660031901126101d857602060046102ea5f5160206138705f395f51905f525442906135c5565b0154604051908152f35b346101d857610180513660031901126101d8575f5160206138705f395f51905f5254600501546040516001600160a01b039091168152602090f35b346101d8576101403660031901126101d8576103496126fc565b6024356001600160a01b03811691908290036101d8576103676126e6565b606435926084359160a4359160403660c31901126101d85761010435956001600160401b0387116101d857366023880112156101d8578660040135906001600160401b0382116101d857366024838a0101116101d857610124356001600160401b0381116101d8576103dd90369060040161277a565b9590935f5160206138905f395f51905f525460ff8160401c1615996001600160401b03821680159081610861575b6001149081610857575b15908161084e575b506108395767ffffffffffffffff1982166001175f5160206138905f395f51905f525561045b918b61080d575b50610453613801565b610203613801565b42156107b7578715610761578783111561070057600a61047b8985612829565b048210156106bb576040998a516104928c82612669565b6017815260208101907f726f757465722e73746f726167652e526f75746572563100000000000000000082526104c6613232565b5190205f198101939084116102a05761065b99600895828e602061064a9760056106549a8451908482019081528482526105008683612669565b60ff1991519020169e8f90815f5160206138705f395f51905f5255610523613265565b80516001840155600283019063ffffffff878201511669ffffffffffff00000000898454930151891b169169ffffffffffffffffffff19161717905585519061056b82612633565b8482526001600160a01b0390811695909101859052910180546001600160a01b03199081169290931691909117905560068e018054909116909117905560078c01805461ffff1916611a0a1790556105c1612874565b506509184e72a000602082516105d681612633565b639502f9008152015260148c0180546001600160c01b0319166d09184e72a000000000009502f900179055805161060c8161264e565b83815260208101859052015260158a0155601689015560178801558a519461063386612633565b60c435865260e4356020870152602436920161268a565b9342963691612726565b9301612b06565b610666576101805180f35b60207fc7f505b2f371ae2175ee4913f4499e1f2633a7b5936321eed1cdaeb6115181d29160ff60401b195f5160206138905f395f51905f5254165f5160206138905f395f51905f52555160018152a180610208565b60405162461bcd60e51b815260206004820152601b60248201527f76616c69646174696f6e2064656c617920697320746f6f2062696700000000006044820152606490fd5b60405162461bcd60e51b815260206004820152603360248201527f657261206475726174696f6e206d757374206265206772656174657220746861604482015272371032b632b1ba34b7b710323ab930ba34b7b760691b6064820152608490fd5b60405162461bcd60e51b815260206004820152602860248201527f656c656374696f6e206475726174696f6e206d75737420626520677265617465604482015267072207468616e20360c41b6064820152608490fd5b60405162461bcd60e51b815260206004820152602860248201527f63757272656e742074696d657374616d70206d75737420626520677265617465604482015267072207468616e20360c41b6064820152608490fd5b68ffffffffffffffffff191668010000000000000001175f5160206138905f395f51905f52558c61044a565b63f92ee8a960e01b6101805152600461018051fd5b9050158d61041d565b303b159150610415565b8c915061040b565b346101d857610180513660031901126101d857602065ffffffffffff60025f5160206138705f395f51905f52540154821c16604051908152f35b346101d857610180513660031901126101d8576108da60046108d45f5160206138705f395f51905f525442906135c5565b016128aa565b604051809160208201602083528151809152602060408401920190610180515b818110610908575050500390f35b82516001600160a01b03168452859450602093840193909201916001016108fa565b346101d857610180513660031901126101d857602060035f5160206138705f395f51905f52540154604051908152f35b346101d85760803660031901126101d857600435610160526001600160401b0361016051116101d857604060031961016051360301126101d8577f9b779b17422d0df92223018b32b4d1fa46e071723d6817e2486d003becc55f005c6115d45760017f9b779b17422d0df92223018b32b4d1fa46e071723d6817e2486d003becc55f005d5f5160206138705f395f51905f525460c052610a01600160c051015415156127b7565b61016051610a1290600401806129b5565b905015806115b5575b611570576101805160c051601801906060815b61016051610a3f90600401806129b5565b9050811015610c835761016051610a5990600401806129b5565b821015610c695760608202018035928361018051528560205260ff6040610180512054166003811015610c4f57600103610bec576040820193610a9b85612a1f565b15610bce57610180805182905260208890525160409020805460ff1916600217905560c051601b018054610ace90612a2c565b90555b610ada85612a1f565b15157f460119a8f69a33ed127de517d5ea464e958ce23ef19e4420a8b92bf780bbc2c96020604051848152a26060833603126101d857602060405193610b1f8561264e565b828552019485359065ffffffffffff821682036101d85781602086015235801515908181036101d8576040610b8f960152604051916020830193845265ffffffffffff60d01b9060d01b16604083015260f81b604682015260278152610b86604782612669565b51902090612a3a565b918365ffffffffffff610ba183612a67565b1611610bb1575b50600101610a2e565b6001919350610bc665ffffffffffff91612a67565b169290610ba8565b806101805152866020526040610180512060ff198154169055610ad1565b60405162461bcd60e51b815260206004820152603560248201527f636f6465206d7573742062652072657175657374656420666f722076616c6964604482015274185d1a5bdb881d1bc818994818dbdb5b5a5d1d1959605a1b6064820152608490fd5b634e487b7160e01b61018051526021600452602461018051fd5b634e487b7160e01b61018051526032600452602461018051fd5b506101805160a052906060905b610ca660246101605101610160516004016129ea565b905060a05110156114ae57610cc760246101605101610160516004016129ea565b9060805260a0511015610c695760a05160051b608051013590609e196080513603018212156101d857600360c05101546040836080510101350361145b5760c05154156113f2575b6020610d2081846080510101612a67565b65ffffffffffff60405191610d3483612633565b8560805101358352169182910152826080510135600360c051015565ffffffffffff19600460c05101541617600460c0510155610d7b6080838151010183608051016129ea565b6101205260e0526101805160605b610120518210156112fb5760e0513681900360be1901600584901b9091013512156101d857610dc38260051b60e051013560e05101612935565b6001600160a01b03165f90815260c05160190160205260409020541561129e5760018060a01b03600660c051015416610e078360051b60e051013560e05101612935565b60608460051b60e051013560e0510101356001600160801b03811681036101d85760405163a9059cbb60e01b81526001600160a01b0390921660048301526001600160801b03166024820152610180519091602091839160449183915af180156110d157611265575b5060e0516001600160a01b0390610e8f90600585901b81013501612935565b16604051906309ed323560e41b82526020600483015260018060a01b03610ec18560051b60e051013560e05101612712565b16602483015260e08051600586901b8181013590910160200135604485015290516001600160a01b0391610efc919081013501604001612712565b1660648301526001600160801b03610f2260608660051b60e051013560e051010161361e565b16608483015260e051600585901b810135016080810135903603601e19018112156101d8578460051b60e051013560e05101016001600160401b038135116101d8576060813502360360208201136101d85760c060a4840152803560e48401526101048301610100526020810161014052610180515b813581106111fe57505060e051600585901b8101350160a0810135903603601e19018112156101d8576001600160401b038560051b60e051013560e05101820135116101d85760e051600586811b8201359091018201803590911b36036020909101136101d85761010080518490036023190160c4850152805160e08051600589811b8281013590920186013590935292519051610180518795948201359091018401803590931b8201602090810194938101939201915b8960051b60e051013560e0510181013582106110df5750505050918180602094039161018051905af19081156110d157610180519161109f575b5061109790600192612a3a565b910190610d89565b90506020813d82116110c9575b816110b960209383612669565b810103126101d85751600161108a565b3d91506110ac565b6040513d61018051823e3d90fd5b919390929450601f19610100518203018452843560de198a60051b60e051013560e0510184013603018112156101d8578960051b60e051013560e05101830101906020820135815260018060a01b0361113a60408401612712565b1660208201526060820135603e1936849003018112156101d8578201602001916001600160401b038335116101d8578235360360208401136101d85760c09081604084015283358284015283356020850160e08501376101805160e08535850101526001600160801b036111b06080830161361e565b16606084015260a0810135608084015201359163ffffffff60e01b83168093036101d85760e0826020939260019560a086950152601f80199135011601019601940192018694939291611050565b60019061014051356101005152818060a01b0361122060206101405101612712565b1660206101005101526001600160801b036112406040610140510161361e565b1660406101005101526060610100510161010052606061014051016101405201610f98565b6020813d8211611296575b8161127d60209383612669565b810103126101d857518015158114610e70576101805180fd5b3d9150611270565b60405162461bcd60e51b815260206004820152602f60248201527f636f756c646e277420706572666f726d207472616e736974696f6e20666f722060448201526e756e6b6e6f776e2070726f6772616d60881b6064820152608490fd5b6113a0929593949150602081519101207fd756eca21e02cb0dbde1e44a4d9c6921b5c8aa4668cfa0752784b3dc855bce1e60206040518760805101358152a161134a6020866080510101612a67565b90604051906020820192876080510135845265ffffffffffff60d01b9060d01b16604083015260408760805101013560468301526060876080510101356066830152608682015260868152610b8660a682612669565b918365ffffffffffff6113b96020846080510101612a67565b16116113d0575b50600160a0510160a05291610c90565b65ffffffffffff91935060206113ea916080510101612a67565b1691836113c0565b6114036060836080510101356135e1565b610d0f5760405162461bcd60e51b815260206004820152602660248201527f616c6c6f776564207072656465636573736f7220626c6f636b207761736e277460448201526508199bdd5b9960d21b6064820152608490fd5b60405162461bcd60e51b815260206004820152602560248201527f696e76616c69642070726576696f757320636f6d6d697474656420626c6f636b604482015264040d0c2e6d60db1b6064820152608490fd5b906114f9926020815191012090602081519101209060405191602083019182526040830152604082526114e2606083612669565b60643591604435916024359151902060c0516132d9565b1561152b57610180517f9b779b17422d0df92223018b32b4d1fa46e071723d6817e2486d003becc55f005d6101805180f35b60405162461bcd60e51b815260206004820152601e60248201527f7369676e61747572657320766572696669636174696f6e206661696c656400006044820152606490fd5b60405162461bcd60e51b815260206004820152601860248201527f6e6f20636f6d6d69746d656e747320746f20636f6d6d697400000000000000006044820152606490fd5b506115cc60246101605101610160516004016129ea565b905015610a1b565b633ee5aeb560e01b6101805152600461018051fd5b346101d85760203660031901126101d85760185f5160206138705f395f51905f5254016004356101805152602052602060ff60406101805120541661163160405180926127aa565bf35b346101d85760203660031901126101d8576004356001600160401b0381116101d85761166390369060040161277a565b5f5160206138705f395f51905f52549161167c826126cf565b9261168a6040519485612669565b828452611696836126cf565b602085019390601f19013685376019610180519201915b8181106116fb57848660405191829160208301906020845251809152604083019190610180515b8181106116e2575050500390f35b82518452859450602093840193909201916001016116d4565b8061171161170c60019385886128fd565b612935565b828060a01b03165f528360205260405f205461172d8289612921565b52016116ad565b346101d857610180513660031901126101d857602060406117795f5160206138705f395f51905f5254600261177160018060a01b039242906135c5565b0154166132aa565b815192839181835280519182918282860152018484015e61018051828201840152601f01601f19168101030190f35b346101d857610180513660031901126101d8576020601a5f5160206138705f395f51905f52540154604051908152f35b346101d85760203660031901126101d8576117f16126fc565b60195f5160206138705f395f51905f5254019060018060a01b03165f52602052602060405f2054604051908152f35b346101d85760203660031901126101d8576004356001600160401b0381116101d85761185b611855602092369060040161277a565b90612949565b6040519015158152f35b346101d857610180513660031901126101d8575f5160206138505f395f51905f52546040516001600160a01b039091168152602090f35b346101d857610180513660031901126101d8575f5160206138705f395f51905f525460018101908154611928576002015463ffffffff16409081156118e357556101805180f35b60405162461bcd60e51b815260206004820152601d60248201527f756e61626c6520746f206c6f6f6b75702067656e6573697320686173680000006044820152606490fd5b60405162461bcd60e51b815260206004820152601860248201527f67656e65736973206861736820616c72656164792073657400000000000000006044820152606490fd5b346101d857610180513660031901126101d8575f5160206138705f395f51905f5254600601546040516001600160a01b039091168152602090f35b346101d857610180513660031901126101d8576119c3612874565b50604060145f5160206138705f395f51905f5254016001600160801b038251916119ec83612633565b548160206001600160401b038316948581520191851c168152835192835251166020820152f35b346101d85760203660031901126101d8576004356001600160401b0381116101d857611a4390369060040161277a565b5f5160206138705f395f51905f525491611a5c826126cf565b92611a6a6040519485612669565b828452611a76836126cf565b602085019390601f19013685376018610180519201915b818110611ae557848660405191829160208301906020845251809152604083019190610180515b818110611ac2575050500390f35b9193509160208082611ad760019488516127aa565b019401910191849392611ab4565b611af08183866128fd565b3561018051528260205260ff60406101805120541690611b108188612921565b916003811015610c4f576001925201611a8d565b346101d857610180513660031901126101d857611b3f613232565b5f5160206138505f395f51905f5280546001600160a01b0319811690915561018051906001600160a01b03167f8be0079c531659141344cd1fd0a4f28419497f9722a3daafe3b4186f6b6457e08280a36101805180f35b346101d857610180513660031901126101d857611bb1613232565b5f5160206138905f395f51905f525460ff8160401c168015611e6e575b6108395768ffffffffffffffffff191668010000000000000002175f5160206138905f395f51905f52555f5160206138705f395f51905f525460408051611c158282612669565b6017815260208101907f726f757465722e73746f726167652e526f7574657256320000000000000000008252611c49613232565b5190205f198101919082116102a0577fc7f505b2f371ae2175ee4913f4499e1f2633a7b5936321eed1cdaeb6115181d292602092825190848201908152848252611c938483612669565b60ff19915190201690815f5160206138705f395f51905f5255611cb4613265565b80516001840155600283019063ffffffff868201511669ffffffffffff00000000868454930151881b169169ffffffffffffffffffff191617179055600581016005830190808203611e36575b505061ffff600782015416600783019061ffff19825416179055611d6a611d2842836135c5565b611d3f6001600160a01b03600261177142876135c5565b611d556004611d4e42876135c5565b019261288c565b90611d6042936128aa565b9160088701612b06565b601481016014830190808203611de4575b5050601581016015830191818303611dc4575b5050505060ff60401b195f5160206138905f395f51905f5254165f5160206138905f395f51905f52555160028152a16101805180f35b601792839254905560168101546016850155015491015583808080611d8e565b806001600160401b03806001600160801b03935416166001600160401b031984541617835554851c16600160401b600160c01b03825491861b1690600160401b600160c01b0319161790558580611d7b565b5481546001600160a01b03199081166001600160a01b0392831617909255600683810154908501805490931691161790558580611d01565b5060026001600160401b0382161015611bce565b346101d85760403660031901126101d8576001600160a01b03611ea9602435600435612d9f565b16803b156101d85760405163485cc95560e01b815233600482015261018080516024830152518160448183865af180156110d157611eed575b602082604051908152f35b61018051611efa91612669565b610180516101d85781611ee2565b346101d85760203660031901126101d857611f216126fc565b611f29613232565b5f5160206138705f395f51905f525460050180546001600160a01b0319166001600160a01b039092169190911790556101805180f35b346101d857610180513660031901126101d857611f7a612874565b506040611f9e611f995f5160206138705f395f51905f525442906135c5565b61288c565b60208251918051835201516020820152f35b3461204b57606036600319011261204b57611fc96126e6565b6001600160a01b03611fdf602435600435612d9f565b16803b1561204b5760405163485cc95560e01b81523360048201526001600160a01b0390921660248301525f8260448183855af19182156120405760209261202b575b50604051908152f35b5f61203591612669565b5f6101805282612022565b6040513d5f823e3d90fd5b5f80fd5b3461204b575f36600319011261204b57602060015f5160206138705f395f51905f52540154604051908152f35b3461204b57602036600319011261204b576004355f491561218b5760185f5160206138705f395f51905f52546120b7600182015415156127b7565b01815f528060205260ff60405f20541660038110156121775761211657816020917f5c261a095dd5720475295dc06379921c003c22164ee6cae5cf83e76ce0a1b985935f52825260405f20600160ff19825416179055604051908152a1005b60405162461bcd60e51b815260206004820152603360248201527f676976656e20636f646520696420697320616c7265616479206f6e2076616c6960448201527219185d1a5bdb881bdc881d985b1a59185d1959606a1b6064820152608490fd5b634e487b7160e01b5f52602160045260245ffd5b60405162461bcd60e51b815260206004820152604860248201527f626c6f622063616e277420626520666f756e642c20726f75746572206578706560448201527f63746564204549502d34383434207472616e73616374696f6e2077697468205760648201526720a9a690313637b160c11b608482015260a490fd5b3461204b57608036600319011261204b576004356001600160401b03811161204b576003198136030160a0811261204b576040519060808201908282106001600160401b038311176125f55760409182521261204b5760405161226981612633565b8260040135815260248301356020820152815260448201356001600160401b03811161204b5782013660238201121561204b576122b090369060246004820135910161268a565b906020810191825260648301356001600160401b03811161204b5783013660238201121561204b576122ec903690602460048201359101612726565b916040820192835260846060830194013584525f5160206138705f395f51905f52549161231e600184015415156127b7565b65ffffffffffff600284015460201c166123388142612829565b9061234860158601548093612836565b8751600182018092116125e157036125895761236961236f92885190612861565b90612854565b9261237e601682015485612829565b42106125445761238d81612aeb565b9542600588015410156124e457825190602082519201519087519051604051926020840194855260408401526060830160208351919301905f5b8181106124c557505050602083836123ec936124219897969552038084520182612669565b5190209060405191602083019081526020835261240a604084612669565b4292606435926044359260243592519020906132d9565b15612465577f41e7f919bf726af8aa2ef36bd31905a693013e30c45c6284060e613d4941997b9460209461245c938593519051915192612b06565b604051908152a1005b60405162461bcd60e51b815260206004820152603260248201527f6e657874206572612076616c696461746f7273207369676e6174757265732076604482015271195c9a599a58d85d1a5bdb8819985a5b195960721b6064820152608490fd5b82516001600160a01b03168552602094850194909201916001016123c7565b60405162461bcd60e51b815260206004820152603260248201527f6c6f6f6b73206c696b652076616c696461746f727320666f72206e65787420656044820152711c9848185c9948185b1c9958591e481cd95d60721b6064820152608490fd5b60405162461bcd60e51b815260206004820152601b60248201527f656c656374696f6e206973206e6f7420796574207374617274656400000000006044820152606490fd5b60405162461bcd60e51b815260206004820152602a60248201527f636f6d6d69746d656e742065726120696e646578206973206e6f74206e657874604482015269040cae4c240d2dcc8caf60b31b6064820152608490fd5b634e487b7160e01b5f52601160045260245ffd5b634e487b7160e01b5f52604160045260245ffd5b3461204b575f36600319011261204b57602090601b5f5160206138705f395f51905f525401548152f35b604081019081106001600160401b038211176125f557604052565b606081019081106001600160401b038211176125f557604052565b90601f801991011681019081106001600160401b038211176125f557604052565b9291926001600160401b0382116125f557604051916126b3601f8201601f191660200184612669565b82948184528183011161204b578281602093845f960137010152565b6001600160401b0381116125f55760051b60200190565b604435906001600160a01b038216820361204b57565b600435906001600160a01b038216820361204b57565b35906001600160a01b038216820361204b57565b929190612732816126cf565b936127406040519586612669565b602085838152019160051b810192831161204b57905b82821061276257505050565b6020809161276f84612712565b815201910190612756565b9181601f8401121561204b578235916001600160401b03831161204b576020808501948460051b01011161204b57565b9060038210156121775752565b156127be57565b60405162461bcd60e51b815260206004820152603860248201527f726f757465722067656e65736973206973207a65726f3b2063616c6c20606c6f60448201527f6f6b757047656e657369734861736828296020666972737400000000000000006064820152608490fd5b919082039182116125e157565b8115612840570490565b634e487b7160e01b5f52601260045260245ffd5b919082018092116125e157565b818102929181159184041417156125e157565b6040519061288182612633565b5f6020838281520152565b9060405161289981612633565b602060018294805484520154910152565b90604051918281549182825260208201905f5260205f20925f5b8181106128db5750506128d992500383612669565b565b84546001600160a01b03168352600194850194879450602090930192016128c4565b919081101561290d5760051b0190565b634e487b7160e01b5f52603260045260245ffd5b805182101561290d5760209160051b010190565b356001600160a01b038116810361204b5790565b6129625f5160206138705f395f51905f525442906135c5565b600301905f5b8381106129785750505050600190565b61298661170c8286856128fd565b6001600160a01b03165f9081526020849052604090205460ff16156129ad57600101612968565b505050505f90565b903590601e198136030182121561204b57018035906001600160401b03821161204b5760200191606082023603831361204b57565b903590601e198136030182121561204b57018035906001600160401b03821161204b57602001918160051b3603831361204b57565b35801515810361204b5790565b5f1981146125e15760010190565b6020806128d9928195946040519682889351918291018585015e8201908382015203018085520183612669565b3565ffffffffffff8116810361204b5790565b6001600160a01b03168015612ad8575f5160206138505f395f51905f5280546001600160a01b0319811683179091556001600160a01b03167f8be0079c531659141344cd1fd0a4f28419497f9722a3daafe3b4186f6b6457e05f80a3565b631e4fbdf760e01b5f525f60045260245ffd5b612af542826134dc565b15612b005760080190565b600e0190565b9291908051906020810191825170014551231950b75fc4402da1732fc9bebe1982109182612d8e575b505015612d3a5751845551600184015560405190612b726021836020808201945f86528051918291018484015e81015f838201520301601f198101845283612669565b612baf602b604051809360208201956a600b5981380380925939f360a81b87525180918484015e81015f838201520301601f198101835282612669565b51905ff06001600160a01b03811615612d01576002830180546001600160a01b0319166001600160a01b039092169190911790555f5b600483018054821015612c23575f90815260208082208301546001600160a01b0316825260038501905260409020805460ff19169055600101612be5565b5050925f5b8451811015612c6c576001906001600160a01b03612c468288612921565b5116828060a01b03165f526003840160205260405f208260ff1982541617905501612c28565b5092600482018151916001600160401b0383116125f5576801000000000000000083116125f5578154838355808410612cdb575b50602001905f5260205f205f5b838110612cbe575050505060050155565b82516001600160a01b031681830155602090920191600101612cad565b825f528360205f2091820191015b818110612cf65750612ca0565b5f8155600101612ce9565b60405162461bcd60e51b81526020600482015260116024820152701111541313d65351539517d19052531151607a1b6044820152606490fd5b60405162461bcd60e51b815260206004820152602660248201527f46524f53542061676772656761746564207075626c6963206b657920697320696044820152651b9d985b1a5960d21b6064820152608490fd5b612d98925061382c565b5f80612b2f565b5f5160206138705f395f51905f525491612dbe600184015415156127b7565b815f526018830160205260ff60405f2054166003811015612177576002036131d6576040516020810191838352604082015260408152612dff606082612669565b5190206040516102c08101908082106001600160401b0383111761204b576102b4916040527f6080806040526102a290816100128239f3fe608060405260043610610258575f81527f3560e01c806329336f391461009b57806336a52a1814610096578063701da98e60208201527f14610091578063704ed5421461008c57806391d5a64c146100875780639ce11060408201527fd714610082578063affed0e01461007d578063d5624222146100785763e43f3460608201527f330361025857610243565b610208565b6101eb565b6101c3565b6101ad565b6160808201527f0194565b610177565b610150565b346100dc5760603660031901126100dc576060a08201527f243567ffffffffffffffff81116100dc576100cc9036906004016100e0565b5060c08201527f506100d661010e565b50610258565b5f80fd5b9181601f840112156100dc578260e08201527f359167ffffffffffffffff83116100dc57602083818601950101116100dc57566101008201527f5b604435906001600160801b03821682036100dc57565b6004359060016001606101208201527f801b03821682036100dc57565b602435906001600160801b03821682036100dc6101408201527f57565b346100dc575f3660031901126100dc575f546040516001600160a01b036101608201527f9091168152602090f35b346100dc575f3660031901126100dc576020600254606101808201527f4051908152f35b346100dc5760203660031901126100dc576100d6610124565b6101a08201527f346100dc57602036600319011215610258575f80fd5b346100dc575f366003196101c08201527f01126100dc576001546040516001600160a01b039091168152602090f35b34616101e08201527edc575f3660031901126100dc576020600354604051908152f35b346100dc576102008201527f60403660031901126100dc5760043567ffffffffffffffff81116100dc5761026102208201527f399036906004016100e0565b50506100d661013a565b346100dc575f3660031961024082015263ffffffff3060801c167f011215610258575f80fd5b63e6fabc0960e01b5f5260205f6004817300000000176102608201523060801b6f5afa156100dc575f8080513682803781176102808201527336915af43d5f803e1561029e573d5ff35b3d5ffd60601b6102a08201525ff591821561204b576001600160a01b0383165f9081526019820160205260409020829055601a01805461319c90612a2c565b90556040516001600160a01b03831681527f8008ec1d8798725ebfa0f2d128d52e8e717dcba6e0f786557eeee70614b02bf190602090a290565b60405162461bcd60e51b815260206004820152602e60248201527f636f6465206d7573742062652076616c696461746564206265666f726520707260448201526d37b3b930b69031b932b0ba34b7b760911b6064820152608490fd5b5f5160206138505f395f51905f52546001600160a01b0316330361325257565b63118cdaa760e01b5f523360045260245ffd5b5f604080516132738161264e565b828152826020820152015260405161328a8161264e565b5f815263ffffffff4316602082015265ffffffffffff4216604082015290565b803b905f198201908282116125e15760019060405193603e601f19910116840160405282845260208401903c90565b939291909365ffffffffffff600282015460201c1661330f61331a6133146133018442612829565b601586015493848092612836565b612861565b83612854565b9182891080806134c6575b1561344e575088106134095761333b9088612854565b106133b8576133b59561334d916135c5565b93604051906020820190815260208252613368604083612669565b6133a4603660405180936020820195601960f81b87523060601b60228401525180918484015e81015f838201520301601f198101835282612669565b519020936001815491015490613632565b90565b60405162461bcd60e51b8152602060048201526024808201527f74696d657374616d70206973206f6c646572207468616e2070726576696f75736044820152632065726160e01b6064820152608490fd5b60405162461bcd60e51b815260206004820152601e60248201527f63616e6e6f742076616c6964617465206265666f72652067656e6573697300006044820152606490fd5b93915050969096428211613477576133b59761334d9361346f575b506135c5565b91505f613469565b60405162461bcd60e51b815260206004820152602160248201527f74696d657374616d702063616e6e6f7420626520696e207468652066757475726044820152606560f81b6064820152608490fd5b506134d5601786015485612854565b4210613325565b906013600d8301549201548083146135815781818410931191821591111591819061357a575b15613517578261351157505090565b14919050565b60405162461bcd60e51b815260206004820152603560248201527f636f756c64206e6f74206964656e746966792076616c696461746f727320666f6044820152740722074686520676976656e2074696d657374616d7605c1b6064820152608490fd5b5081613502565b606460405162461bcd60e51b815260206004820152602060248201527f657261732074696d657374616d70206d757374206e6f7420626520657175616c6044820152fd5b906135d090826134dc565b156135db57600e0190565b60080190565b905f1943014381116125e157805b6135fa575b505f9150565b804083810361360b57506001925050565b15613619575f1901806135ef565b6135f4565b35906001600160801b038216820361204b57565b9293919490613641858761382c565b156137f75782156137f75770014551231950b75fc4402da1732fc9bebe198310156137f7576001169061010e6040519161012083018381106001600160401b0382111761204b5760405260883684376002600188160160888401538760898401526002840160a984015360aa830186905260ca8301527e300046524f53542d736563703235366b312d4b454343414b3235362d76316360ea8301526303430b6160e51b61010a830152812060cc820181815290600260ec84016001815360428420809318845253604270014551231950b75fc4402da1732fc9bebe19922060801c6001600160401b0360801b8260801b16179070014551231950b75fc4402da1732fc9bebe1990600160c01b9060401c090880156137ec5784601b6080945f9660209870014551231950b75fc4402da1732fc9bebe19910970014551231950b75fc4402da1732fc9bebe19038552018684015280604084015270014551231950b75fc4402da1732fc9bebe19910970014551231950b75fc4402da1732fc9bebe1903606082015282805260015afa1561204b575f51915f5260205260018060a01b0360405f20161490565b505050505050505f90565b5050505050505f90565b60ff5f5160206138905f395f51905f525460401c161561381d57565b631afcd79f60e31b5f5260045ffd5b6401000003d01990600790829081818009900908906401000003d019908009149056fe9016d09d72d40fdae2fd8ceac6b6234c7706214fd39c1cd1e609a0528c1993005c09ca1b9b8127a4fd9f3c384aac59b661441e820e17733753ff5f2e86e1e000f0c57e16840df040f15088dc2f81fe391c3923bec73e23a9662efc9c229c6a00f0c57e16840df040f15088dc2f81fe391c3923bec73e23a9662efc9c229c6a00","linkReferences":{}},"methodIdentifiers":{"areValidators(address[])":"8f381dbe","codeState(bytes32)":"c13911e8","codesStates(bytes32[])":"82bdeaad","commitBatch(((bytes32,uint48,bool)[],(bytes32,uint48,bytes32,bytes32,(address,bytes32,address,uint128,(bytes32,address,uint128)[],(bytes32,address,bytes,uint128,(bytes32,bytes4))[])[])[]),uint256,uint256,uint256)":"c2fad806","commitValidators(((uint256,uint256),bytes,address[],uint256),uint256,uint256,uint256)":"014cb815","computeSettings()":"84d22a4f","createProgram(bytes32,bytes32)":"527de0f9","createProgramWithAbiInterface(bytes32,bytes32,address)":"38f0efe5","genesisBlockHash()":"28e24b3d","genesisTimestamp()":"cacf66ab","initialize(address,address,address,uint256,uint256,uint256,(uint256,uint256),bytes,address[])":"d31d6821","isValidator(address)":"facd743b","latestCommittedBlockHash()":"c9f16a11","lookupGenesisHash()":"8b1edf1e","mirrorImpl()":"e6fabc09","owner()":"8da5cb5b","programCodeId(address)":"9067088e","programsCodeIds(address[])":"baaf0201","programsCount()":"96a2ddfa","reinitialize()":"6c2eb350","renounceOwnership()":"715018a6","requestCodeValidation(bytes32)":"120e3f1e","setMirror(address)":"3d43b418","signingThresholdPercentage()":"efd81abc","transferOwnership(address)":"f2fde38b","validatedCodesCount()":"007a32e7","validators()":"ca1e7819","validatorsAggregatedPublicKey()":"3bd109fa","validatorsCount()":"ed612f8c","validatorsThreshold()":"edc87225","validatorsVerifiableSecretSharingCommitment()":"a5d53a44","wrappedVara()":"88f50cf0"},"storageLayout":{"storage":[],"types":{}},"id":127}