{"abi":[{"type":"constructor","inputs":[],"stateMutability":"nonpayable"},{"type":"function","name":"areValidators","inputs":[{"name":"_validators","type":"address[]","internalType":"address[]"}],"outputs":[{"name":"","type":"bool","internalType":"bool"}],"stateMutability":"view"},{"type":"function","name":"codeState","inputs":[{"name":"_codeId","type":"bytes32","internalType":"bytes32"}],"outputs":[{"name":"","type":"uint8","internalType":"enum Gear.CodeState"}],"stateMutability":"view"},{"type":"function","name":"codesStates","inputs":[{"name":"_codesIds","type":"bytes32[]","internalType":"bytes32[]"}],"outputs":[{"name":"","type":"uint8[]","internalType":"enum Gear.CodeState[]"}],"stateMutability":"view"},{"type":"function","name":"commitBatch","inputs":[{"name":"_batchCommitment","type":"tuple","internalType":"struct Gear.BatchCommitment","components":[{"name":"codeCommitments","type":"tuple[]","internalType":"struct Gear.CodeCommitment[]","components":[{"name":"id","type":"bytes32","internalType":"bytes32"},{"name":"timestamp","type":"uint48","internalType":"uint48"},{"name":"valid","type":"bool","internalType":"bool"}]},{"name":"blockCommitments","type":"tuple[]","internalType":"struct Gear.BlockCommitment[]","components":[{"name":"hash","type":"bytes32","internalType":"bytes32"},{"name":"timestamp","type":"uint48","internalType":"uint48"},{"name":"previousCommittedBlock","type":"bytes32","internalType":"bytes32"},{"name":"predecessorBlock","type":"bytes32","internalType":"bytes32"},{"name":"transitions","type":"tuple[]","internalType":"struct Gear.StateTransition[]","components":[{"name":"actorId","type":"address","internalType":"address"},{"name":"newStateHash","type":"bytes32","internalType":"bytes32"},{"name":"inheritor","type":"address","internalType":"address"},{"name":"valueToReceive","type":"uint128","internalType":"uint128"},{"name":"valueClaims","type":"tuple[]","internalType":"struct Gear.ValueClaim[]","components":[{"name":"messageId","type":"bytes32","internalType":"bytes32"},{"name":"destination","type":"address","internalType":"address"},{"name":"value","type":"uint128","internalType":"uint128"}]},{"name":"messages","type":"tuple[]","internalType":"struct Gear.Message[]","components":[{"name":"id","type":"bytes32","internalType":"bytes32"},{"name":"destination","type":"address","internalType":"address"},{"name":"payload","type":"bytes","internalType":"bytes"},{"name":"value","type":"uint128","internalType":"uint128"},{"name":"replyDetails","type":"tuple","internalType":"struct Gear.ReplyDetails","components":[{"name":"to","type":"bytes32","internalType":"bytes32"},{"name":"code","type":"bytes4","internalType":"bytes4"}]}]}]}]}]},{"name":"_signatureType","type":"uint8","internalType":"enum Gear.SignatureType"},{"name":"_signatures","type":"bytes[]","internalType":"bytes[]"}],"outputs":[],"stateMutability":"nonpayable"},{"type":"function","name":"commitValidators","inputs":[{"name":"_validatorsCommitment","type":"tuple","internalType":"struct Gear.ValidatorsCommitment","components":[{"name":"aggregatedPublicKey","type":"tuple","internalType":"struct Gear.AggregatedPublicKey","components":[{"name":"x","type":"uint256","internalType":"uint256"},{"name":"y","type":"uint256","internalType":"uint256"}]},{"name":"verifiableSecretSharingCommitment","type":"bytes","internalType":"bytes"},{"name":"validators","type":"address[]","internalType":"address[]"},{"name":"eraIndex","type":"uint256","internalType":"uint256"}]},{"name":"_signatureType","type":"uint8","internalType":"enum Gear.SignatureType"},{"name":"_signatures","type":"bytes[]","internalType":"bytes[]"}],"outputs":[],"stateMutability":"nonpayable"},{"type":"function","name":"computeSettings","inputs":[],"outputs":[{"name":"","type":"tuple","internalType":"struct Gear.ComputationSettings","components":[{"name":"threshold","type":"uint64","internalType":"uint64"},{"name":"wvaraPerSecond","type":"uint128","internalType":"uint128"}]}],"stateMutability":"view"},{"type":"function","name":"createProgram","inputs":[{"name":"_codeId","type":"bytes32","internalType":"bytes32"},{"name":"_salt","type":"bytes32","internalType":"bytes32"}],"outputs":[{"name":"","type":"address","internalType":"address"}],"stateMutability":"nonpayable"},{"type":"function","name":"createProgramWithInterface","inputs":[{"name":"_codeId","type":"bytes32","internalType":"bytes32"},{"name":"_salt","type":"bytes32","internalType":"bytes32"},{"name":"_abiInterface","type":"address","internalType":"address"}],"outputs":[{"name":"","type":"address","internalType":"address"}],"stateMutability":"nonpayable"},{"type":"function","name":"genesisBlockHash","inputs":[],"outputs":[{"name":"","type":"bytes32","internalType":"bytes32"}],"stateMutability":"view"},{"type":"function","name":"genesisTimestamp","inputs":[],"outputs":[{"name":"","type":"uint48","internalType":"uint48"}],"stateMutability":"view"},{"type":"function","name":"initialize","inputs":[{"name":"_owner","type":"address","internalType":"address"},{"name":"_mirrorImpl","type":"address","internalType":"address"},{"name":"_mirrorAbi","type":"address","internalType":"address"},{"name":"_wrappedVara","type":"address","internalType":"address"},{"name":"_eraDuration","type":"uint256","internalType":"uint256"},{"name":"_electionDuration","type":"uint256","internalType":"uint256"},{"name":"_validationDelay","type":"uint256","internalType":"uint256"},{"name":"_aggregatedPublicKey","type":"tuple","internalType":"struct Gear.AggregatedPublicKey","components":[{"name":"x","type":"uint256","internalType":"uint256"},{"name":"y","type":"uint256","internalType":"uint256"}]},{"name":"_verifiableSecretSharingCommitment","type":"bytes","internalType":"bytes"},{"name":"_validators","type":"address[]","internalType":"address[]"}],"outputs":[],"stateMutability":"nonpayable"},{"type":"function","name":"isValidator","inputs":[{"name":"_validator","type":"address","internalType":"address"}],"outputs":[{"name":"","type":"bool","internalType":"bool"}],"stateMutability":"view"},{"type":"function","name":"latestCommittedBlockHash","inputs":[],"outputs":[{"name":"","type":"bytes32","internalType":"bytes32"}],"stateMutability":"view"},{"type":"function","name":"lookupGenesisHash","inputs":[],"outputs":[],"stateMutability":"nonpayable"},{"type":"function","name":"mirrorAbi","inputs":[],"outputs":[{"name":"","type":"address","internalType":"address"}],"stateMutability":"view"},{"type":"function","name":"mirrorImpl","inputs":[],"outputs":[{"name":"","type":"address","internalType":"address"}],"stateMutability":"view"},{"type":"function","name":"owner","inputs":[],"outputs":[{"name":"","type":"address","internalType":"address"}],"stateMutability":"view"},{"type":"function","name":"programCodeId","inputs":[{"name":"_programId","type":"address","internalType":"address"}],"outputs":[{"name":"","type":"bytes32","internalType":"bytes32"}],"stateMutability":"view"},{"type":"function","name":"programsCodeIds","inputs":[{"name":"_programsIds","type":"address[]","internalType":"address[]"}],"outputs":[{"name":"","type":"bytes32[]","internalType":"bytes32[]"}],"stateMutability":"view"},{"type":"function","name":"programsCount","inputs":[],"outputs":[{"name":"","type":"uint256","internalType":"uint256"}],"stateMutability":"view"},{"type":"function","name":"reinitialize","inputs":[],"outputs":[],"stateMutability":"nonpayable"},{"type":"function","name":"renounceOwnership","inputs":[],"outputs":[],"stateMutability":"nonpayable"},{"type":"function","name":"requestCodeValidation","inputs":[{"name":"_codeId","type":"bytes32","internalType":"bytes32"}],"outputs":[],"stateMutability":"nonpayable"},{"type":"function","name":"setMirrorAbi","inputs":[{"name":"_newMirrorAbi","type":"address","internalType":"address"}],"outputs":[],"stateMutability":"nonpayable"},{"type":"function","name":"setMirrorImpl","inputs":[{"name":"_newMirrorImpl","type":"address","internalType":"address"}],"outputs":[],"stateMutability":"nonpayable"},{"type":"function","name":"signingThresholdPercentage","inputs":[],"outputs":[{"name":"","type":"uint16","internalType":"uint16"}],"stateMutability":"view"},{"type":"function","name":"transferOwnership","inputs":[{"name":"newOwner","type":"address","internalType":"address"}],"outputs":[],"stateMutability":"nonpayable"},{"type":"function","name":"validatedCodesCount","inputs":[],"outputs":[{"name":"","type":"uint256","internalType":"uint256"}],"stateMutability":"view"},{"type":"function","name":"validators","inputs":[],"outputs":[{"name":"","type":"address[]","internalType":"address[]"}],"stateMutability":"view"},{"type":"function","name":"validatorsAggregatedPublicKey","inputs":[],"outputs":[{"name":"","type":"tuple","internalType":"struct Gear.AggregatedPublicKey","components":[{"name":"x","type":"uint256","internalType":"uint256"},{"name":"y","type":"uint256","internalType":"uint256"}]}],"stateMutability":"view"},{"type":"function","name":"validatorsCount","inputs":[],"outputs":[{"name":"","type":"uint256","internalType":"uint256"}],"stateMutability":"view"},{"type":"function","name":"validatorsThreshold","inputs":[],"outputs":[{"name":"","type":"uint256","internalType":"uint256"}],"stateMutability":"view"},{"type":"function","name":"validatorsVerifiableSecretSharingCommitment","inputs":[],"outputs":[{"name":"","type":"bytes","internalType":"bytes"}],"stateMutability":"view"},{"type":"function","name":"wrappedVara","inputs":[],"outputs":[{"name":"","type":"address","internalType":"address"}],"stateMutability":"view"},{"type":"event","name":"BlockCommitted","inputs":[{"name":"hash","type":"bytes32","indexed":false,"internalType":"bytes32"}],"anonymous":false},{"type":"event","name":"CodeGotValidated","inputs":[{"name":"codeId","type":"bytes32","indexed":false,"internalType":"bytes32"},{"name":"valid","type":"bool","indexed":true,"internalType":"bool"}],"anonymous":false},{"type":"event","name":"CodeValidationRequested","inputs":[{"name":"codeId","type":"bytes32","indexed":false,"internalType":"bytes32"}],"anonymous":false},{"type":"event","name":"ComputationSettingsChanged","inputs":[{"name":"threshold","type":"uint64","indexed":false,"internalType":"uint64"},{"name":"wvaraPerSecond","type":"uint128","indexed":false,"internalType":"uint128"}],"anonymous":false},{"type":"event","name":"Initialized","inputs":[{"name":"version","type":"uint64","indexed":false,"internalType":"uint64"}],"anonymous":false},{"type":"event","name":"NextEraValidatorsCommitted","inputs":[{"name":"startTimestamp","type":"uint256","indexed":false,"internalType":"uint256"}],"anonymous":false},{"type":"event","name":"OwnershipTransferred","inputs":[{"name":"previousOwner","type":"address","indexed":true,"internalType":"address"},{"name":"newOwner","type":"address","indexed":true,"internalType":"address"}],"anonymous":false},{"type":"event","name":"ProgramCreated","inputs":[{"name":"actorId","type":"address","indexed":false,"internalType":"address"},{"name":"codeId","type":"bytes32","indexed":true,"internalType":"bytes32"}],"anonymous":false},{"type":"event","name":"StorageSlotChanged","inputs":[],"anonymous":false},{"type":"error","name":"ECDSAInvalidSignature","inputs":[]},{"type":"error","name":"ECDSAInvalidSignatureLength","inputs":[{"name":"length","type":"uint256","internalType":"uint256"}]},{"type":"error","name":"ECDSAInvalidSignatureS","inputs":[{"name":"s","type":"bytes32","internalType":"bytes32"}]},{"type":"error","name":"InvalidInitialization","inputs":[]},{"type":"error","name":"NotInitializing","inputs":[]},{"type":"error","name":"OwnableInvalidOwner","inputs":[{"name":"owner","type":"address","internalType":"address"}]},{"type":"error","name":"OwnableUnauthorizedAccount","inputs":[{"name":"account","type":"address","internalType":"address"}]},{"type":"error","name":"ReentrancyGuardReentrantCall","inputs":[]}],"bytecode":{"object":"0x6080806040523460aa575f516020613c515f395f51905f525460ff8160401c16609b576002600160401b03196001600160401b038216016049575b604051613ba290816100af8239f35b6001600160401b0319166001600160401b039081175f516020613c515f395f51905f525581527fc7f505b2f371ae2175ee4913f4499e1f2633a7b5936321eed1cdaeb6115181d290602090a15f80603a565b63f92ee8a960e01b5f5260045ffd5b5f80fdfe6101a0806040526004361015610013575f80fd5b5f610180525f3560e01c9081627a32e71461285857508063120e3f1e146126cd57806328e24b3d146126a05780633bd109fa14612652578063527de0f91461259d57806353f7fd48146120445780636c2eb35014611d2d578063715018a614611cbb57806382bdeaad14611baa57806384d22a4f14611b3f57806388f50cf014611b045780638b1edf1e14611a335780638da5cb5b146119fc5780638f381dbe146119b75780638face6911461197c5780639067088e1461193457806396a2ddfa14611904578063a4fcc587146118ad578063a5d53a4414611839578063aa54494a14611400578063b30aaeee146113a9578063baaf0201146112a8578063c13911e81461125e578063c9f16a111461122e578063ca1e7819146111a7578063cacf66ab1461116d578063dc360d92146103ea578063e6fabc09146103af578063ed612f8c14610375578063edc8722514610329578063efd81abc146102f5578063f2fde38b146102c5578063f761586c146101f55763facd743b14610197575f80fd5b346101ee5760203660031901126101ee576101b0612882565b60036101cb5f516020613b2d5f395f51905f52544290613688565b019060018060a01b03165f52602052602060ff60405f2054166040519015158152f35b6101805180fd5b346101ee5760603660031901126101ee5761020e612898565b5f516020613b2d5f395f51905f5254906001600160a01b03610231600435612d62565b6005909301549216916001600160a01b031690823b156101ee57604051637c643b2f60e11b815233600482015230602482015260448101929092526001600160a01b03166064820152610180518160848183865af180156102b75761029c575b602082604051908152f35b610180516102a991612949565b610180516101ee5781610291565b6040513d61018051823e3d90fd5b346101ee5760203660031901126101ee576102ee6102e1612882565b6102e96131c4565b612cf1565b6101805180f35b346101ee57610180513660031901126101ee57602061ffff60085f516020613b2d5f395f51905f5254015416604051908152f35b346101ee57610180513660031901126101ee57602061036d5f516020613b2d5f395f51905f525461ffff600860046103614285613688565b01549201541690613666565b604051908152f35b346101ee57610180513660031901126101ee57602060046103a55f516020613b2d5f395f51905f52544290613688565b0154604051908152f35b346101ee57610180513660031901126101ee575f516020613b2d5f395f51905f5254600501546040516001600160a01b039091168152602090f35b346101ee5760603660031901126101ee576004356001600160401b0381116101ee57604060031982360301126101ee57600260243510156101ee576044356001600160401b0381116101ee576104449036906004016128c2565b917f9b779b17422d0df92223018b32b4d1fa46e071723d6817e2486d003becc55f005c6111585760017f9b779b17422d0df92223018b32b4d1fa46e071723d6817e2486d003becc55f005d5f516020613b2d5f395f51905f5254610140526104b460016101405101541515612a1a565b6104c16004820180612c2c565b9050158061113f575b6110fa576101805160c081905261014051601901939290919060605b6104f36004840180612c2c565b9050841015610736576105096004840180612c2c565b85101561071c576060850201938435948561018051528760205260ff60406101805120541660038110156107025760010361069f57604081019261054c84612c96565b1561068157610180805188905260208a90525160409020805460ff1916600217905561014051601c01805461058090612ca3565b90555b61058c84612c96565b15157f460119a8f69a33ed127de517d5ea464e958ce23ef19e4420a8b92bf780bbc2c960206040518a8152a26060823603126101ee576020604051926105d1846128ff565b888452019687359465ffffffffffff861686036101ee5785602085015235948515158087036101ee576001966040610644960152604051916020830193845265ffffffffffff60d01b9060d01b16604083015260f81b60468201526027815261063b604782612949565b51902090612cb1565b9460c05165ffffffffffff61065883612cde565b1611610667575b5001926104e6565b61067765ffffffffffff91612cde565b1660c0528761065f565b866101805152886020526040610180512060ff198154169055610583565b60405162461bcd60e51b815260206004820152603560248201527f636f6465206d7573742062652072657175657374656420666f722076616c6964604482015274185d1a5bdb881d1bc818994818dbdb5b5a5d1d1959605a1b6064820152608490fd5b634e487b7160e01b61018051526021600452602461018051fd5b634e487b7160e01b61018051526032600452602461018051fd5b61018051606060a05261012052849290915b6107586024830183600401612c61565b9050610120511015611037576107746024830183600401612c61565b906101005261012051101561071c576101205160051b61010051013560e052609e196101005136030160e05112156101ee576003610140510154604060e0516101005101013503610fe457610140515415610f78575b60206107de8160e051610100510101612cde565b65ffffffffffff604051916107f28361292e565b60e051610100510135835216918291015260e051610100510135600361014051015565ffffffffffff19600461014051015416176004610140510155610849608060e05161010051010160e0516101005101612c61565b61016091909152610180516080529360605b856080511015610e5a57610180515060be196101605136030160805160051b61016051013512156101ee5761089f60805160051b6101605101356101605101612b8c565b6001600160a01b03165f90815261014051601a01602052604090205415610dfd5760018060a01b036007610140510154166108e960805160051b6101605101356101605101612b8c565b606060805160051b610160510135610160510101356001600160801b03811681036101ee5760405163a9059cbb60e01b81526001600160a01b0390921660048301526001600160801b03166024820152610180519091602091839160449183915af180156102b757610dc4575b5060018060a01b0361097760805160051b6101605101356101605101612b8c565b1690604051916309ed323560e41b83526020600484015260e4830160018060a01b036109b260805160051b61016051013561016051016128ae565b166024850152608080516101608051600592831b81013501602001356044880152915191516001600160a01b03926109f1921b810135016040016128ae565b1660648501526001600160801b03610a1b606060805160051b6101605101356101605101016137f5565b166084850152608080516101605160059190911b8101350190810135903603601e19018112156101ee5760805160051b61016051013561016051010160208101916001600160401b038235116101ee576060823502360383136101ee5760c060a48701528135905261018051610104860192915b80358210610d7a5750506080516101605160059190911b8101350160a08101359291503603601e19018212156101ee576001600160401b0360805160051b6101605101356101605101830135116101ee5760805161016051600591821b810135018301803590911b90368290036020909101136101ee579185926023198484030160c485015260805160051b6101605101356101605101820135835260208084019184010192602060805160051b61016051013561016051018401019261018051915b60805160051b61016051013561016051018201358310610bde575050505050918180602094039161018051905af19081156102b7576101805191610ba9575b610b9b9250612cb1565b60808051600101905261085b565b90506020823d8211610bd6575b81610bc360209383612949565b810103126101ee57610b9b915190610b91565b3d9150610bb6565b919395509193601f1982820301855285359060de1960805160051b610160510135610160510185013603018212156101ee57608080516101608051600592831b8101350187018501602001358452915191516001600160a01b0392610c4e921b81013501860184016040016128ae565b16602082015260805161016051606060059290921b810135018501830190810135903603603e19018112156101ee5760209060805160051b6101605101356101605101860184010101916001600160401b038335116101ee578235360360208401136101ee5760c09081604084015283358284015283356020850160e08501376101805160e08535850101526001600160801b03610d016080805160051b610160510135610160510189018401016137f5565b16606084015260a060805160051b6101605101356101605101870182010135608084015260805160051b610160510135610160510186010101359163ffffffff60e01b83168093036101ee5760a082019290925289969135601f01601f19160160e0019460209182019491019260019190910191610b52565b90919260608060019286358152838060a01b03610d99602089016128ae565b1660208201526001600160801b03610db3604089016137f5565b166040820152019401920190610a8f565b6020813d8211610df5575b81610ddc60209383612949565b810103126101ee57518015158114610956576101805180fd5b3d9150610dcf565b60405162461bcd60e51b815260206004820152602f60248201527f636f756c646e277420706572666f726d207472616e736974696f6e20666f722060448201526e756e6b6e6f776e2070726f6772616d60881b6064820152608490fd5b610f1a91939550939193602081519101207fd756eca21e02cb0dbde1e44a4d9c6921b5c8aa4668cfa0752784b3dc855bce1e602060405160e0516101005101358152a1610eb0602060e051610100510101612cde565b9060405190602082019260e051610100510135845265ffffffffffff60d01b9060d01b166040830152604060e051610100510101356046830152606060e051610100510101356066830152608682015260868152610f0f60a682612949565b51902060a051612cb1565b60a05260c05165ffffffffffff610f3a602060e051610100510101612cde565b1611610f55575b600161012051016101205291929092610748565b65ffffffffffff610f6f602060e051610100510101612cde565b1660c052610f41565b610f8c606060e051610100510101356137b8565b6107ca5760405162461bcd60e51b815260206004820152602660248201527f616c6c6f776564207072656465636573736f7220626c6f636b207761736e277460448201526508199bdd5b9960d21b6064820152608490fd5b60405162461bcd60e51b815260206004820152602560248201527f696e76616c69642070726576696f757320636f6d6d697474656420626c6f636b604482015264040d0c2e6d60db1b6064820152608490fd5b611083908484602081519101209160a05151602060a0510120604051906020820194855260408201526040815261106f606082612949565b60c051936024359151902061014051613241565b156110b557610180517f9b779b17422d0df92223018b32b4d1fa46e071723d6817e2486d003becc55f005d6101805180f35b60405162461bcd60e51b815260206004820152601e60248201527f7369676e61747572657320766572696669636174696f6e206661696c656400006044820152606490fd5b60405162461bcd60e51b815260206004820152601860248201527f6e6f20636f6d6d69746d656e747320746f20636f6d6d697400000000000000006044820152606490fd5b506111506024820182600401612c61565b9050156104ca565b633ee5aeb560e01b6101805152600461018051fd5b346101ee57610180513660031901126101ee57602065ffffffffffff60025f516020613b2d5f395f51905f52540154821c16604051908152f35b346101ee57610180513660031901126101ee576111de60046111d85f516020613b2d5f395f51905f52544290613688565b01612b01565b604051809160208201602083528151809152602060408401920190610180515b81811061120c575050500390f35b82516001600160a01b03168452859450602093840193909201916001016111fe565b346101ee57610180513660031901126101ee57602060035f516020613b2d5f395f51905f52540154604051908152f35b346101ee5760203660031901126101ee5760195f516020613b2d5f395f51905f5254016004356101805152602052602060ff6040610180512054166112a660405180926128f2565bf35b346101ee5760203660031901126101ee576004356001600160401b0381116101ee576112d89036906004016128c2565b5f516020613b2d5f395f51905f5254916112f1826129af565b926112ff6040519485612949565b82845261130b836129af565b602085019390601f1901368537601a610180519201915b81811061137057848660405191829160208301906020845251809152604083019190610180515b818110611357575050500390f35b8251845285945060209384019390920191600101611349565b806113866113816001938588612b54565b612b8c565b828060a01b03165f528360205260405f20546113a28289612b78565b5201611322565b346101ee5760203660031901126101ee576113c2612882565b6113ca6131c4565b5f516020613b2d5f395f51905f525460050180546001600160a01b0319166001600160a01b039092169190911790556101805180f35b346101ee5760603660031901126101ee576004356001600160401b0381116101ee576003198136030160a081126101ee576040519060808201908282106001600160401b0383111761181f576040918252126101ee576040516114628161292e565b8260040135815260248301356020820152815260448201356001600160401b0381116101ee578201366023820112156101ee576114a990369060246004820135910161296a565b6020820190815260648301356001600160401b0381116101ee578301366023820112156101ee576114e49036906024600482013591016129c6565b90604083019182526084606084019401358452600260243510156101ee576044356001600160401b0381116101ee576115219036906004016128c2565b9190935f516020613b2d5f395f51905f525461154260018201541515612a1a565b65ffffffffffff600282015460201c1661155c8142612ac2565b9061156c60168401548093612ae3565b89516001820180921161180557036117ad5761158d611593928a5190612c19565b90612c0c565b936115a2601783015486612ac2565b4210611768576115b182613226565b9642600589015410156117085783516020815191015188519a51604051916020830193845260408301526060820160208d51919d0190610180515b8181106116e9575050506020828d611613936116409a9b9c9d9e9f52038084520182612949565b51902092604051906020820194855260208252611631604083612949565b42946024359251902090613241565b15611689577f41e7f919bf726af8aa2ef36bd31905a693013e30c45c6284060e613d4941997b9460209461167b938593519051915192612f7c565b604051908152a16101805180f35b60405162461bcd60e51b815260206004820152603260248201527f6e657874206572612076616c696461746f7273207369676e6174757265732076604482015271195c9a599a58d85d1a5bdb8819985a5b195960721b6064820152608490fd5b82516001600160a01b03168f5260209e8f019e909201916001016115ec565b60405162461bcd60e51b815260206004820152603260248201527f6c6f6f6b73206c696b652076616c696461746f727320666f72206e65787420656044820152711c9848185c9948185b1c9958591e481cd95d60721b6064820152608490fd5b60405162461bcd60e51b815260206004820152601b60248201527f656c656374696f6e206973206e6f7420796574207374617274656400000000006044820152606490fd5b60405162461bcd60e51b815260206004820152602a60248201527f636f6d6d69746d656e742065726120696e646578206973206e6f74206e657874604482015269040cae4c240d2dcc8caf60b31b6064820152608490fd5b634e487b7160e01b61018051526011600452602461018051fd5b634e487b7160e01b61018051526041600452602461018051fd5b346101ee57610180513660031901126101ee576020604061187e5f516020613b2d5f395f51905f5254600261187660018060a01b03924290613688565b0154166131f7565b815192839181835280519182918282860152018484015e61018051828201840152601f01601f19168101030190f35b346101ee5760203660031901126101ee576118c6612882565b6118ce6131c4565b5f516020613b2d5f395f51905f525460060180546001600160a01b0319166001600160a01b039092169190911790556101805180f35b346101ee57610180513660031901126101ee576020601b5f516020613b2d5f395f51905f52540154604051908152f35b346101ee5760203660031901126101ee5761194d612882565b601a5f516020613b2d5f395f51905f5254019060018060a01b03165f52602052602060405f2054604051908152f35b346101ee57610180513660031901126101ee575f516020613b2d5f395f51905f5254600601546040516001600160a01b039091168152602090f35b346101ee5760203660031901126101ee576004356001600160401b0381116101ee576119f26119ec60209236906004016128c2565b90612ba0565b6040519015158152f35b346101ee57610180513660031901126101ee575f516020613b0d5f395f51905f52546040516001600160a01b039091168152602090f35b346101ee57610180513660031901126101ee575f516020613b2d5f395f51905f525460018101908154611abf576002015463ffffffff1640908115611a7a57556101805180f35b60405162461bcd60e51b815260206004820152601d60248201527f756e61626c6520746f206c6f6f6b75702067656e6573697320686173680000006044820152606490fd5b60405162461bcd60e51b815260206004820152601860248201527f67656e65736973206861736820616c72656164792073657400000000000000006044820152606490fd5b346101ee57610180513660031901126101ee575f516020613b2d5f395f51905f5254600701546040516001600160a01b039091168152602090f35b346101ee57610180513660031901126101ee57611b5a612a8c565b50604060155f516020613b2d5f395f51905f5254016001600160801b03825191611b838361292e565b548160206001600160401b038316948581520191851c168152835192835251166020820152f35b346101ee5760203660031901126101ee576004356001600160401b0381116101ee57611bda9036906004016128c2565b5f516020613b2d5f395f51905f525491611bf3826129af565b92611c016040519485612949565b828452611c0d836129af565b602085019390601f19013685376019610180519201915b818110611c7c57848660405191829160208301906020845251809152604083019190610180515b818110611c59575050500390f35b9193509160208082611c6e60019488516128f2565b019401910191849392611c4b565b611c87818386612b54565b3561018051528260205260ff60406101805120541690611ca78188612b78565b916003811015610702576001925201611c24565b346101ee57610180513660031901126101ee57611cd66131c4565b5f516020613b0d5f395f51905f5280546001600160a01b0319811690915561018051906001600160a01b03167f8be0079c531659141344cd1fd0a4f28419497f9722a3daafe3b4186f6b6457e08280a36101805180f35b346101ee57610180513660031901126101ee57611d486131c4565b5f516020613b4d5f395f51905f525460ff8160401c168015612030575b61201b5768ffffffffffffffffff191668010000000000000002175f516020613b4d5f395f51905f52555f516020613b2d5f395f51905f525460408051611dac8282612949565b6017815260208101907f726f757465722e73746f726167652e526f7574657256320000000000000000008252611de06131c4565b5190205f19810191908211611805577fc7f505b2f371ae2175ee4913f4499e1f2633a7b5936321eed1cdaeb6115181d292602092825190848201908152848252611e2a8483612949565b60ff19915190201690815f516020613b2d5f395f51905f5255611e4b612edc565b80516001840155600283019063ffffffff868201511669ffffffffffff00000000868454930151881b169169ffffffffffffffffffff191617179055600581016005830190808203611fcd575b505061ffff600882015416600883019061ffff19825416179055611f01611ebf4283613688565b611ed66001600160a01b0360026118764287613688565b611eec6004611ee54287613688565b0192612aa4565b90611ef74293612b01565b9160098601612f7c565b601581016015830190808203611f7b575b5050601681016016830191818303611f5b575b5050505060ff60401b195f516020613b4d5f395f51905f5254165f516020613b4d5f395f51905f52555160028152a16101805180f35b601892839254905560178101546017850155015491015583808080611f25565b806001600160401b03806001600160801b03935416166001600160401b031984541617835554851c16600160401b600160c01b03825491861b1690600160401b600160c01b0319161790558580611f12565b5481546001600160a01b03199081166001600160a01b039283161790925560068381015490850180548416918316919091179055600780840154908501805490931691161790558580611e98565b63f92ee8a960e01b6101805152600461018051fd5b5060026001600160401b0382161015611d65565b346101ee576101603660031901126101ee5761205e612882565b6024356001600160a01b03811691908290036101ee5761207c612898565b916064356001600160a01b038116908190036101ee576084359160a43560c43595604060e3193601126101ee5761012435916001600160401b0383116101ee57366023840112156101ee578260040135916001600160401b0383116101ee5736602484860101116101ee57610144356001600160401b0381116101ee576121079036906004016128c2565b9690945f516020613b4d5f395f51905f525460ff8160401c16159a6001600160401b03821680159081612595575b600114908161258b575b159081612582575b5061201b5767ffffffffffffffff1982166001175f516020613b4d5f395f51905f5255612185918c612556575b5061217d6136a4565b6102e96136a4565b42156125005783156124aa578389111561244957600a6121a5858b612ac2565b048b10156124045760409a8b516121bc8d82612949565b6017815260208101907f726f757465722e73746f726167652e526f75746572563100000000000000000082526121f06131c4565b5190205f19810195908611611805576123a49a828e6123939661239d98600660099b845190602082019081526020825261222a8683612949565b60ff1991519020169e8f90815f516020613b2d5f395f51905f525561224d612edc565b80516001840155600283019063ffffffff60208201511669ffffffffffff0000000089845493015160201b169169ffffffffffffffffffff1916171790558486805195612299876128ff565b8387526001600160a01b039081166020880181905291909601919091526005830180549286166001600160a01b0319938416179055929091018054821690921790915560078f01805493909216921691909117905560088c018054611a0a61ffff19909116179055612309612a8c565b506509184e72a0006020825161231e8161292e565b639502f9008152015260158c0180546001600160c01b0319166d09184e72a000000000009502f9001790558051612354816128ff565b83815260208101859052015260168a0155601789015560188801558a519461237b8661292e565b60e4358652610104356020870152602436920161296a565b93429636916129c6565b9301612f7c565b6123af576101805180f35b60207fc7f505b2f371ae2175ee4913f4499e1f2633a7b5936321eed1cdaeb6115181d29160ff60401b195f516020613b4d5f395f51905f5254165f516020613b4d5f395f51905f52555160018152a1806102ee565b60405162461bcd60e51b815260206004820152601b60248201527f76616c69646174696f6e2064656c617920697320746f6f2062696700000000006044820152606490fd5b60405162461bcd60e51b815260206004820152603360248201527f657261206475726174696f6e206d757374206265206772656174657220746861604482015272371032b632b1ba34b7b710323ab930ba34b7b760691b6064820152608490fd5b60405162461bcd60e51b815260206004820152602860248201527f656c656374696f6e206475726174696f6e206d75737420626520677265617465604482015267072207468616e20360c41b6064820152608490fd5b60405162461bcd60e51b815260206004820152602860248201527f63757272656e742074696d657374616d70206d75737420626520677265617465604482015267072207468616e20360c41b6064820152608490fd5b68ffffffffffffffffff191668010000000000000001175f516020613b4d5f395f51905f52558d612174565b9050158e612147565b303b15915061213f565b8d9150612135565b3461264e57604036600319011261264e575f516020613b2d5f395f51905f52546001600160a01b036125d0600435612d62565b6005909201546001600160a01b03169116803b1561264e5760405191637c643b2f60e11b835233600484015230602484015260448301525f60648301525f8260848183855af19182156126435760209261262e575b50604051908152f35b5f61263891612949565b5f6101805282612625565b6040513d5f823e3d90fd5b5f80fd5b3461264e575f36600319011261264e5761266a612a8c565b50604061268e6126895f516020613b2d5f395f51905f52544290613688565b612aa4565b60208251918051835201516020820152f35b3461264e575f36600319011261264e57602060015f516020613b2d5f395f51905f52540154604051908152f35b3461264e57602036600319011261264e576004355f49156127dc5760195f516020613b2d5f395f51905f525461270860018201541515612a1a565b01815f528060205260ff60405f20541660038110156127c85761276757816020917f5c261a095dd5720475295dc06379921c003c22164ee6cae5cf83e76ce0a1b985935f52825260405f20600160ff19825416179055604051908152a1005b60405162461bcd60e51b815260206004820152603360248201527f676976656e20636f646520696420697320616c7265616479206f6e2076616c6960448201527219185d1a5bdb881bdc881d985b1a59185d1959606a1b6064820152608490fd5b634e487b7160e01b5f52602160045260245ffd5b60405162461bcd60e51b815260206004820152604860248201527f626c6f622063616e277420626520666f756e642c20726f75746572206578706560448201527f63746564204549502d34383434207472616e73616374696f6e2077697468205760648201526720a9a690313637b160c11b608482015260a490fd5b3461264e575f36600319011261264e57602090601c5f516020613b2d5f395f51905f525401548152f35b600435906001600160a01b038216820361264e57565b604435906001600160a01b038216820361264e57565b35906001600160a01b038216820361264e57565b9181601f8401121561264e578235916001600160401b03831161264e576020808501948460051b01011161264e57565b9060038210156127c85752565b606081019081106001600160401b0382111761291a57604052565b634e487b7160e01b5f52604160045260245ffd5b604081019081106001600160401b0382111761291a57604052565b90601f801991011681019081106001600160401b0382111761291a57604052565b9291926001600160401b03821161291a5760405191612993601f8201601f191660200184612949565b82948184528183011161264e578281602093845f960137010152565b6001600160401b03811161291a5760051b60200190565b9291906129d2816129af565b936129e06040519586612949565b602085838152019160051b810192831161264e57905b828210612a0257505050565b60208091612a0f846128ae565b8152019101906129f6565b15612a2157565b60405162461bcd60e51b815260206004820152603860248201527f726f757465722067656e65736973206973207a65726f3b2063616c6c20606c6f60448201527f6f6b757047656e657369734861736828296020666972737400000000000000006064820152608490fd5b60405190612a998261292e565b5f6020838281520152565b90604051612ab18161292e565b602060018294805484520154910152565b91908203918211612acf57565b634e487b7160e01b5f52601160045260245ffd5b8115612aed570490565b634e487b7160e01b5f52601260045260245ffd5b90604051918281549182825260208201905f5260205f20925f5b818110612b32575050612b3092500383612949565b565b84546001600160a01b0316835260019485019487945060209093019201612b1b565b9190811015612b645760051b0190565b634e487b7160e01b5f52603260045260245ffd5b8051821015612b645760209160051b010190565b356001600160a01b038116810361264e5790565b612bb95f516020613b2d5f395f51905f52544290613688565b600301905f5b838110612bcf5750505050600190565b612bdd611381828685612b54565b6001600160a01b03165f9081526020849052604090205460ff1615612c0457600101612bbf565b505050505f90565b91908201809211612acf57565b81810292918115918404141715612acf57565b903590601e198136030182121561264e57018035906001600160401b03821161264e5760200191606082023603831361264e57565b903590601e198136030182121561264e57018035906001600160401b03821161264e57602001918160051b3603831361264e57565b35801515810361264e5790565b5f198114612acf5760010190565b602080612b30928195946040519682889351918291018585015e8201908382015203018085520183612949565b3565ffffffffffff8116810361264e5790565b6001600160a01b03168015612d4f575f516020613b0d5f395f51905f5280546001600160a01b0319811683179091556001600160a01b03167f8be0079c531659141344cd1fd0a4f28419497f9722a3daafe3b4186f6b6457e05f80a3565b631e4fbdf760e01b5f525f60045260245ffd5b5f516020613b2d5f395f51905f525490612d8160018301541515612a1a565b805f526019820160205260ff60405f20541660038110156127c857600203612e805760018060a01b03600683015416803b906040519161ffff60e01b8160e01b166a3d61000080600b3d3981f360a81b178352600b8301918260405281600b01835283515f5b600b8110612e6d575050905f602b939260368601903c5191015ff091821561264e576001600160a01b0383165f908152601a820160205260409020829055601b018054612e3390612ca3565b90556040516001600160a01b03831681527f8008ec1d8798725ebfa0f2d128d52e8e717dcba6e0f786557eeee70614b02bf190602090a290565b80826001921a602b828901015301612de7565b60405162461bcd60e51b815260206004820152602e60248201527f636f6465206d7573742062652076616c696461746564206265666f726520707260448201526d37b3b930b69031b932b0ba34b7b760911b6064820152608490fd5b5f60408051612eea816128ff565b8281528260208201520152604051612f01816128ff565b5f815263ffffffff4316602082015265ffffffffffff4216604082015290565b15612f2857565b60405162461bcd60e51b815260206004820152602660248201527f46524f53542061676772656761746564207075626c6963206b657920697320696044820152651b9d985b1a5960d21b6064820152608490fd5b929190805190612faf6020820192835170014551231950b75fc4402da1732fc9bebe19821091826131b3575b5050612f21565b51845551600184015560405190612feb6021836020808201945f86528051918291018484015e81015f838201520301601f198101845283612949565b613028602b604051809360208201956a600b5981380380925939f360a81b87525180918484015e81015f838201520301601f198101835282612949565b51905ff06001600160a01b0381161561317a576002830180546001600160a01b0319166001600160a01b039092169190911790555f5b60048301805482101561309c575f90815260208082208301546001600160a01b0316825260038501905260409020805460ff1916905560010161305e565b5050925f5b84518110156130e5576001906001600160a01b036130bf8288612b78565b5116828060a01b03165f526003840160205260405f208260ff19825416179055016130a1565b5092600482018151916001600160401b03831161291a5768010000000000000000831161291a578154838355808410613154575b50602001905f5260205f205f5b838110613137575050505060050155565b82516001600160a01b031681830155602090920191600101613126565b825f528360205f2091820191015b81811061316f5750613119565b5f8155600101613162565b60405162461bcd60e51b81526020600482015260116024820152701111541313d65351539517d19052531151607a1b6044820152606490fd5b6131bd9250613a67565b5f80612fa8565b5f516020613b0d5f395f51905f52546001600160a01b031633036131e457565b63118cdaa760e01b5f523360045260245ffd5b803b905f19820190828211612acf5760019060405193603e601f19910116840160405282845260208401903c90565b61323042826136cf565b1561323b5760090190565b600f0190565b909493919365ffffffffffff600283015460201c1661327761328261327c6132698442612ac2565b601687015493848092612ae3565b612c19565b83612c0c565b918284108080613650575b156135de57508310613599576132a39083612c0c565b10613548576132b3905b82613688565b946040519060208201908152602082526132ce604083612949565b61330a603660405180936020820195601960f81b87523060601b60228401525180918484015e81015f838201520301601f198101835282612949565b5190209360028110156127c85780613466575050600181036134215715612b6457803590601e198136030182121561264e57018035906001600160401b03821161264e57602001813603811361264e5761336591369161296a565b9160608351036133cc578260206133b49401516060604083015192015192600181549101549070014551231950b75fc4402da1732fc9bebe198110806133b7575b6133af90612f21565b613809565b90565b506133af6133c58383613a67565b90506133a6565b60405162461bcd60e51b815260206004820152602760248201527f46524f5354207369676e6174757265206c656e677468206d75737420626520396044820152663620627974657360c81b6064820152608490fd5b60405162461bcd60e51b815260206004820152601e60248201527f46524f5354207369676e6174757265206d7573742062652073696e676c6500006044820152606490fd5b6001146134765750505050505f90565b6134909061ffff6008600488959801549201541690613666565b925f9260035f9301925b8681101561353d578060051b820135601e198336030181121561264e5782018035906001600160401b03821161264e57602001813603811361264e576134f8916134ef916134e991369161296a565b856139cd565b90929192613a07565b6001600160a01b03165f9081526020859052604090205460ff1661351f575b60010161349a565b9361352990612ca3565b938585036135175750505050505050600190565b505050505050505f90565b60405162461bcd60e51b8152602060048201526024808201527f74696d657374616d70206973206f6c646572207468616e2070726576696f75736044820152632065726160e01b6064820152608490fd5b60405162461bcd60e51b815260206004820152601e60248201527f63616e6e6f742076616c6964617465206265666f72652067656e6573697300006044820152606490fd5b9392915050428211613601576132b3926135f9575b506132ad565b90505f6135f3565b60405162461bcd60e51b815260206004820152602160248201527f74696d657374616d702063616e6e6f7420626520696e207468652066757475726044820152606560f81b6064820152608490fd5b5061365f601887015485612c0c565b421061328d565b61ffff613674921690612c19565b61270f8101809111612acf57612710900490565b9061369390826136cf565b1561369e57600f0190565b60090190565b60ff5f516020613b4d5f395f51905f525460401c16156136c057565b631afcd79f60e31b5f5260045ffd5b906014600e8301549201548083146137745781818410931191821591111591819061376d575b1561370a578261370457505090565b14919050565b60405162461bcd60e51b815260206004820152603560248201527f636f756c64206e6f74206964656e746966792076616c696461746f727320666f6044820152740722074686520676976656e2074696d657374616d7605c1b6064820152608490fd5b50816136f5565b606460405162461bcd60e51b815260206004820152602060248201527f657261732074696d657374616d70206d757374206e6f7420626520657175616c6044820152fd5b905f194301438111612acf57805b6137d1575b505f9150565b80408381036137e257506001925050565b156137f0575f1901806137c6565b6137cb565b35906001600160801b038216820361264e57565b92939194906138188587613a67565b156139c35782156139c35770014551231950b75fc4402da1732fc9bebe198310156139c3576001169061010e6040519161012083018381106001600160401b0382111761264e5760405260883684376002600188160160888401538760898401526002840160a984015360aa830186905260ca8301527e300046524f53542d736563703235366b312d4b454343414b3235362d76316360ea8301526303430b6160e51b61010a830152812060cc820181815290600260ec84016001815360428420809318845253604270014551231950b75fc4402da1732fc9bebe19922060801c6001600160401b0360801b8260801b16179070014551231950b75fc4402da1732fc9bebe1990600160c01b9060401c0908801561353d5784601b6080945f9660209870014551231950b75fc4402da1732fc9bebe19910970014551231950b75fc4402da1732fc9bebe19038552018684015280604084015270014551231950b75fc4402da1732fc9bebe19910970014551231950b75fc4402da1732fc9bebe1903606082015282805260015afa1561264e575f51915f5260205260018060a01b0360405f20161490565b5050505050505f90565b81519190604183036139fd576139f69250602082015190606060408401519301515f1a90613a8a565b9192909190565b50505f9160029190565b60048110156127c85780613a19575050565b60018103613a305763f645eedf60e01b5f5260045ffd5b60028103613a4b575063fce698f760e01b5f5260045260245ffd5b600314613a555750565b6335e2f38360e21b5f5260045260245ffd5b6401000003d01990600790829081818009900908906401000003d0199080091490565b91907f7fffffffffffffffffffffffffffffff5d576e7357a4501ddfe92f46681b20a08411613b01579160209360809260ff5f9560405194855216868401526040830152606082015282805260015afa15612643575f516001600160a01b03811615613af757905f905f90565b505f906001905f90565b5050505f916003919056fe9016d09d72d40fdae2fd8ceac6b6234c7706214fd39c1cd1e609a0528c1993005c09ca1b9b8127a4fd9f3c384aac59b661441e820e17733753ff5f2e86e1e000f0c57e16840df040f15088dc2f81fe391c3923bec73e23a9662efc9c229c6a00a2646970667358221220e629dc1173bff910c5b2c61c7c62ac781568d37202b2b88336efecfe9a48d67964736f6c634300081c0033f0c57e16840df040f15088dc2f81fe391c3923bec73e23a9662efc9c229c6a00","linkReferences":{}},"methodIdentifiers":{"areValidators(address[])":"8f381dbe","codeState(bytes32)":"c13911e8","codesStates(bytes32[])":"82bdeaad","commitBatch(((bytes32,uint48,bool)[],(bytes32,uint48,bytes32,bytes32,(address,bytes32,address,uint128,(bytes32,address,uint128)[],(bytes32,address,bytes,uint128,(bytes32,bytes4))[])[])[]),uint8,bytes[])":"dc360d92","commitValidators(((uint256,uint256),bytes,address[],uint256),uint8,bytes[])":"aa54494a","computeSettings()":"84d22a4f","createProgram(bytes32,bytes32)":"527de0f9","createProgramWithInterface(bytes32,bytes32,address)":"f761586c","genesisBlockHash()":"28e24b3d","genesisTimestamp()":"cacf66ab","initialize(address,address,address,address,uint256,uint256,uint256,(uint256,uint256),bytes,address[])":"53f7fd48","isValidator(address)":"facd743b","latestCommittedBlockHash()":"c9f16a11","lookupGenesisHash()":"8b1edf1e","mirrorAbi()":"8face691","mirrorImpl()":"e6fabc09","owner()":"8da5cb5b","programCodeId(address)":"9067088e","programsCodeIds(address[])":"baaf0201","programsCount()":"96a2ddfa","reinitialize()":"6c2eb350","renounceOwnership()":"715018a6","requestCodeValidation(bytes32)":"120e3f1e","setMirrorAbi(address)":"a4fcc587","setMirrorImpl(address)":"b30aaeee","signingThresholdPercentage()":"efd81abc","transferOwnership(address)":"f2fde38b","validatedCodesCount()":"007a32e7","validators()":"ca1e7819","validatorsAggregatedPublicKey()":"3bd109fa","validatorsCount()":"ed612f8c","validatorsThreshold()":"edc87225","validatorsVerifiableSecretSharingCommitment()":"a5d53a44","wrappedVara()":"88f50cf0"},"storageLayout":{"storage":[],"types":{}},"id":128}