{"abi":[{"type":"constructor","inputs":[],"stateMutability":"nonpayable"},{"type":"receive","stateMutability":"payable"},{"type":"function","name":"areValidators","inputs":[{"name":"_validators","type":"address[]","internalType":"address[]"}],"outputs":[{"name":"","type":"bool","internalType":"bool"}],"stateMutability":"view"},{"type":"function","name":"codeState","inputs":[{"name":"_codeId","type":"bytes32","internalType":"bytes32"}],"outputs":[{"name":"","type":"uint8","internalType":"enum Gear.CodeState"}],"stateMutability":"view"},{"type":"function","name":"codesStates","inputs":[{"name":"_codesIds","type":"bytes32[]","internalType":"bytes32[]"}],"outputs":[{"name":"","type":"uint8[]","internalType":"enum Gear.CodeState[]"}],"stateMutability":"view"},{"type":"function","name":"commitBatch","inputs":[{"name":"_batch","type":"tuple","internalType":"struct Gear.BatchCommitment","components":[{"name":"blockHash","type":"bytes32","internalType":"bytes32"},{"name":"blockTimestamp","type":"uint48","internalType":"uint48"},{"name":"previousCommittedBatchHash","type":"bytes32","internalType":"bytes32"},{"name":"expiry","type":"uint8","internalType":"uint8"},{"name":"chainCommitment","type":"tuple[]","internalType":"struct Gear.ChainCommitment[]","components":[{"name":"transitions","type":"tuple[]","internalType":"struct Gear.StateTransition[]","components":[{"name":"actorId","type":"address","internalType":"address"},{"name":"newStateHash","type":"bytes32","internalType":"bytes32"},{"name":"exited","type":"bool","internalType":"bool"},{"name":"inheritor","type":"address","internalType":"address"},{"name":"valueToReceive","type":"uint128","internalType":"uint128"},{"name":"valueToReceiveNegativeSign","type":"bool","internalType":"bool"},{"name":"valueClaims","type":"tuple[]","internalType":"struct Gear.ValueClaim[]","components":[{"name":"messageId","type":"bytes32","internalType":"bytes32"},{"name":"destination","type":"address","internalType":"address"},{"name":"value","type":"uint128","internalType":"uint128"}]},{"name":"messages","type":"tuple[]","internalType":"struct Gear.Message[]","components":[{"name":"id","type":"bytes32","internalType":"bytes32"},{"name":"destination","type":"address","internalType":"address"},{"name":"payload","type":"bytes","internalType":"bytes"},{"name":"value","type":"uint128","internalType":"uint128"},{"name":"replyDetails","type":"tuple","internalType":"struct Gear.ReplyDetails","components":[{"name":"to","type":"bytes32","internalType":"bytes32"},{"name":"code","type":"bytes4","internalType":"bytes4"}]},{"name":"call","type":"bool","internalType":"bool"}]}]},{"name":"head","type":"bytes32","internalType":"bytes32"}]},{"name":"codeCommitments","type":"tuple[]","internalType":"struct Gear.CodeCommitment[]","components":[{"name":"id","type":"bytes32","internalType":"bytes32"},{"name":"valid","type":"bool","internalType":"bool"}]},{"name":"rewardsCommitment","type":"tuple[]","internalType":"struct Gear.RewardsCommitment[]","components":[{"name":"operators","type":"tuple","internalType":"struct Gear.OperatorRewardsCommitment","components":[{"name":"amount","type":"uint256","internalType":"uint256"},{"name":"root","type":"bytes32","internalType":"bytes32"}]},{"name":"stakers","type":"tuple","internalType":"struct Gear.StakerRewardsCommitment","components":[{"name":"distribution","type":"tuple[]","internalType":"struct Gear.StakerRewards[]","components":[{"name":"vault","type":"address","internalType":"address"},{"name":"amount","type":"uint256","internalType":"uint256"}]},{"name":"totalAmount","type":"uint256","internalType":"uint256"},{"name":"token","type":"address","internalType":"address"}]},{"name":"timestamp","type":"uint48","internalType":"uint48"}]},{"name":"validatorsCommitment","type":"tuple[]","internalType":"struct Gear.ValidatorsCommitment[]","components":[{"name":"aggregatedPublicKey","type":"tuple","internalType":"struct Gear.AggregatedPublicKey","components":[{"name":"x","type":"uint256","internalType":"uint256"},{"name":"y","type":"uint256","internalType":"uint256"}]},{"name":"verifiableSecretSharingCommitment","type":"bytes","internalType":"bytes"},{"name":"validators","type":"address[]","internalType":"address[]"},{"name":"eraIndex","type":"uint256","internalType":"uint256"}]}]},{"name":"_signatureType","type":"uint8","internalType":"enum Gear.SignatureType"},{"name":"_signatures","type":"bytes[]","internalType":"bytes[]"}],"outputs":[],"stateMutability":"nonpayable"},{"type":"function","name":"computeSettings","inputs":[],"outputs":[{"name":"","type":"tuple","internalType":"struct Gear.ComputationSettings","components":[{"name":"threshold","type":"uint64","internalType":"uint64"},{"name":"wvaraPerSecond","type":"uint128","internalType":"uint128"}]}],"stateMutability":"view"},{"type":"function","name":"createProgram","inputs":[{"name":"_codeId","type":"bytes32","internalType":"bytes32"},{"name":"_salt","type":"bytes32","internalType":"bytes32"},{"name":"_overrideInitializer","type":"address","internalType":"address"}],"outputs":[{"name":"","type":"address","internalType":"address"}],"stateMutability":"nonpayable"},{"type":"function","name":"createProgramWithAbiInterface","inputs":[{"name":"_codeId","type":"bytes32","internalType":"bytes32"},{"name":"_salt","type":"bytes32","internalType":"bytes32"},{"name":"_overrideInitializer","type":"address","internalType":"address"},{"name":"_abiInterface","type":"address","internalType":"address"}],"outputs":[{"name":"","type":"address","internalType":"address"}],"stateMutability":"nonpayable"},{"type":"function","name":"genesisBlockHash","inputs":[],"outputs":[{"name":"","type":"bytes32","internalType":"bytes32"}],"stateMutability":"view"},{"type":"function","name":"genesisTimestamp","inputs":[],"outputs":[{"name":"","type":"uint48","internalType":"uint48"}],"stateMutability":"view"},{"type":"function","name":"initialize","inputs":[{"name":"_owner","type":"address","internalType":"address"},{"name":"_mirror","type":"address","internalType":"address"},{"name":"_wrappedVara","type":"address","internalType":"address"},{"name":"_middleware","type":"address","internalType":"address"},{"name":"_eraDuration","type":"uint256","internalType":"uint256"},{"name":"_electionDuration","type":"uint256","internalType":"uint256"},{"name":"_validationDelay","type":"uint256","internalType":"uint256"},{"name":"_aggregatedPublicKey","type":"tuple","internalType":"struct Gear.AggregatedPublicKey","components":[{"name":"x","type":"uint256","internalType":"uint256"},{"name":"y","type":"uint256","internalType":"uint256"}]},{"name":"_verifiableSecretSharingCommitment","type":"bytes","internalType":"bytes"},{"name":"_validators","type":"address[]","internalType":"address[]"}],"outputs":[],"stateMutability":"nonpayable"},{"type":"function","name":"isValidator","inputs":[{"name":"_validator","type":"address","internalType":"address"}],"outputs":[{"name":"","type":"bool","internalType":"bool"}],"stateMutability":"view"},{"type":"function","name":"latestCommittedBatchHash","inputs":[],"outputs":[{"name":"","type":"bytes32","internalType":"bytes32"}],"stateMutability":"view"},{"type":"function","name":"latestCommittedBatchTimestamp","inputs":[],"outputs":[{"name":"","type":"uint48","internalType":"uint48"}],"stateMutability":"view"},{"type":"function","name":"lookupGenesisHash","inputs":[],"outputs":[],"stateMutability":"nonpayable"},{"type":"function","name":"middleware","inputs":[],"outputs":[{"name":"","type":"address","internalType":"address"}],"stateMutability":"view"},{"type":"function","name":"mirrorImpl","inputs":[],"outputs":[{"name":"","type":"address","internalType":"address"}],"stateMutability":"view"},{"type":"function","name":"owner","inputs":[],"outputs":[{"name":"","type":"address","internalType":"address"}],"stateMutability":"view"},{"type":"function","name":"programCodeId","inputs":[{"name":"_programId","type":"address","internalType":"address"}],"outputs":[{"name":"","type":"bytes32","internalType":"bytes32"}],"stateMutability":"view"},{"type":"function","name":"programsCodeIds","inputs":[{"name":"_programsIds","type":"address[]","internalType":"address[]"}],"outputs":[{"name":"","type":"bytes32[]","internalType":"bytes32[]"}],"stateMutability":"view"},{"type":"function","name":"programsCount","inputs":[],"outputs":[{"name":"","type":"uint256","internalType":"uint256"}],"stateMutability":"view"},{"type":"function","name":"reinitialize","inputs":[],"outputs":[],"stateMutability":"nonpayable"},{"type":"function","name":"renounceOwnership","inputs":[],"outputs":[],"stateMutability":"nonpayable"},{"type":"function","name":"requestCodeValidation","inputs":[{"name":"_codeId","type":"bytes32","internalType":"bytes32"}],"outputs":[],"stateMutability":"nonpayable"},{"type":"function","name":"setMirror","inputs":[{"name":"newMirror","type":"address","internalType":"address"}],"outputs":[],"stateMutability":"nonpayable"},{"type":"function","name":"signingThresholdFraction","inputs":[],"outputs":[{"name":"","type":"uint128","internalType":"uint128"},{"name":"","type":"uint128","internalType":"uint128"}],"stateMutability":"view"},{"type":"function","name":"storageView","inputs":[],"outputs":[{"name":"","type":"tuple","internalType":"struct IRouter.StorageView","components":[{"name":"genesisBlock","type":"tuple","internalType":"struct Gear.GenesisBlockInfo","components":[{"name":"hash","type":"bytes32","internalType":"bytes32"},{"name":"number","type":"uint32","internalType":"uint32"},{"name":"timestamp","type":"uint48","internalType":"uint48"}]},{"name":"latestCommittedBatch","type":"tuple","internalType":"struct Gear.CommittedBatchInfo","components":[{"name":"hash","type":"bytes32","internalType":"bytes32"},{"name":"timestamp","type":"uint48","internalType":"uint48"}]},{"name":"implAddresses","type":"tuple","internalType":"struct Gear.AddressBook","components":[{"name":"mirror","type":"address","internalType":"address"},{"name":"wrappedVara","type":"address","internalType":"address"},{"name":"middleware","type":"address","internalType":"address"}]},{"name":"validationSettings","type":"tuple","internalType":"struct Gear.ValidationSettingsView","components":[{"name":"thresholdNumerator","type":"uint128","internalType":"uint128"},{"name":"thresholdDenominator","type":"uint128","internalType":"uint128"},{"name":"validators0","type":"tuple","internalType":"struct Gear.ValidatorsView","components":[{"name":"aggregatedPublicKey","type":"tuple","internalType":"struct Gear.AggregatedPublicKey","components":[{"name":"x","type":"uint256","internalType":"uint256"},{"name":"y","type":"uint256","internalType":"uint256"}]},{"name":"verifiableSecretSharingCommitmentPointer","type":"address","internalType":"address"},{"name":"list","type":"address[]","internalType":"address[]"},{"name":"useFromTimestamp","type":"uint256","internalType":"uint256"}]},{"name":"validators1","type":"tuple","internalType":"struct Gear.ValidatorsView","components":[{"name":"aggregatedPublicKey","type":"tuple","internalType":"struct Gear.AggregatedPublicKey","components":[{"name":"x","type":"uint256","internalType":"uint256"},{"name":"y","type":"uint256","internalType":"uint256"}]},{"name":"verifiableSecretSharingCommitmentPointer","type":"address","internalType":"address"},{"name":"list","type":"address[]","internalType":"address[]"},{"name":"useFromTimestamp","type":"uint256","internalType":"uint256"}]}]},{"name":"computeSettings","type":"tuple","internalType":"struct Gear.ComputationSettings","components":[{"name":"threshold","type":"uint64","internalType":"uint64"},{"name":"wvaraPerSecond","type":"uint128","internalType":"uint128"}]},{"name":"timelines","type":"tuple","internalType":"struct Gear.Timelines","components":[{"name":"era","type":"uint256","internalType":"uint256"},{"name":"election","type":"uint256","internalType":"uint256"},{"name":"validationDelay","type":"uint256","internalType":"uint256"}]},{"name":"programsCount","type":"uint256","internalType":"uint256"},{"name":"validatedCodesCount","type":"uint256","internalType":"uint256"}]}],"stateMutability":"view"},{"type":"function","name":"timelines","inputs":[],"outputs":[{"name":"","type":"tuple","internalType":"struct Gear.Timelines","components":[{"name":"era","type":"uint256","internalType":"uint256"},{"name":"election","type":"uint256","internalType":"uint256"},{"name":"validationDelay","type":"uint256","internalType":"uint256"}]}],"stateMutability":"view"},{"type":"function","name":"transferOwnership","inputs":[{"name":"newOwner","type":"address","internalType":"address"}],"outputs":[],"stateMutability":"nonpayable"},{"type":"function","name":"validatedCodesCount","inputs":[],"outputs":[{"name":"","type":"uint256","internalType":"uint256"}],"stateMutability":"view"},{"type":"function","name":"validators","inputs":[],"outputs":[{"name":"","type":"address[]","internalType":"address[]"}],"stateMutability":"view"},{"type":"function","name":"validatorsAggregatedPublicKey","inputs":[],"outputs":[{"name":"","type":"tuple","internalType":"struct Gear.AggregatedPublicKey","components":[{"name":"x","type":"uint256","internalType":"uint256"},{"name":"y","type":"uint256","internalType":"uint256"}]}],"stateMutability":"view"},{"type":"function","name":"validatorsCount","inputs":[],"outputs":[{"name":"","type":"uint256","internalType":"uint256"}],"stateMutability":"view"},{"type":"function","name":"validatorsThreshold","inputs":[],"outputs":[{"name":"","type":"uint256","internalType":"uint256"}],"stateMutability":"view"},{"type":"function","name":"validatorsVerifiableSecretSharingCommitment","inputs":[],"outputs":[{"name":"","type":"bytes","internalType":"bytes"}],"stateMutability":"view"},{"type":"function","name":"validatorsVssCommitmentHash","inputs":[],"outputs":[{"name":"","type":"bytes32","internalType":"bytes32"}],"stateMutability":"view"},{"type":"function","name":"wrappedVara","inputs":[],"outputs":[{"name":"","type":"address","internalType":"address"}],"stateMutability":"view"},{"type":"event","name":"AnnouncesCommitted","inputs":[{"name":"head","type":"bytes32","indexed":false,"internalType":"bytes32"}],"anonymous":false},{"type":"event","name":"BatchCommitted","inputs":[{"name":"hash","type":"bytes32","indexed":false,"internalType":"bytes32"}],"anonymous":false},{"type":"event","name":"CodeGotValidated","inputs":[{"name":"codeId","type":"bytes32","indexed":false,"internalType":"bytes32"},{"name":"valid","type":"bool","indexed":true,"internalType":"bool"}],"anonymous":false},{"type":"event","name":"CodeValidationRequested","inputs":[{"name":"codeId","type":"bytes32","indexed":false,"internalType":"bytes32"}],"anonymous":false},{"type":"event","name":"ComputationSettingsChanged","inputs":[{"name":"threshold","type":"uint64","indexed":false,"internalType":"uint64"},{"name":"wvaraPerSecond","type":"uint128","indexed":false,"internalType":"uint128"}],"anonymous":false},{"type":"event","name":"Initialized","inputs":[{"name":"version","type":"uint64","indexed":false,"internalType":"uint64"}],"anonymous":false},{"type":"event","name":"OwnershipTransferred","inputs":[{"name":"previousOwner","type":"address","indexed":true,"internalType":"address"},{"name":"newOwner","type":"address","indexed":true,"internalType":"address"}],"anonymous":false},{"type":"event","name":"ProgramCreated","inputs":[{"name":"actorId","type":"address","indexed":false,"internalType":"address"},{"name":"codeId","type":"bytes32","indexed":true,"internalType":"bytes32"}],"anonymous":false},{"type":"event","name":"StorageSlotChanged","inputs":[{"name":"slot","type":"bytes32","indexed":false,"internalType":"bytes32"}],"anonymous":false},{"type":"event","name":"ValidatorsCommittedForEra","inputs":[{"name":"eraIndex","type":"uint256","indexed":false,"internalType":"uint256"}],"anonymous":false},{"type":"error","name":"ECDSAInvalidSignature","inputs":[]},{"type":"error","name":"ECDSAInvalidSignatureLength","inputs":[{"name":"length","type":"uint256","internalType":"uint256"}]},{"type":"error","name":"ECDSAInvalidSignatureS","inputs":[{"name":"s","type":"bytes32","internalType":"bytes32"}]},{"type":"error","name":"InvalidInitialization","inputs":[]},{"type":"error","name":"NotInitializing","inputs":[]},{"type":"error","name":"OwnableInvalidOwner","inputs":[{"name":"owner","type":"address","internalType":"address"}]},{"type":"error","name":"OwnableUnauthorizedAccount","inputs":[{"name":"account","type":"address","internalType":"address"}]},{"type":"error","name":"ReentrancyGuardReentrantCall","inputs":[]}],"bytecode":{"object":"0x6080806040523460aa575f516020614b105f395f51905f525460ff8160401c16609b576002600160401b03196001600160401b038216016049575b604051614a6190816100af8239f35b6001600160401b0319166001600160401b039081175f516020614b105f395f51905f525581527fc7f505b2f371ae2175ee4913f4499e1f2633a7b5936321eed1cdaeb6115181d290602090a15f80603a565b63f92ee8a960e01b5f5260045ffd5b5f80fdfe608080604052600436101561010a575b50361561001a575f80fd5b5f516020614a215f395f51905f5254610038600182015415156129e8565b6001600160801b033416156100ba57335f908152601a9190910160205260409020541561006157005b60405162461bcd60e51b815260206004820152602b60248201527f636f756c646e277420726563656976652045746865722066726f6d20756e6b6e60448201526a6f776e2070726f6772616d60a81b6064820152608490fd5b60405162461bcd60e51b815260206004820152602260248201527f7a65726f2076616c7565207472616e73666572206973206e6f7420616c6c6f77604482015261195960f21b6064820152608490fd5b5f905f3560e01c9081627a32e714612806575080630c18d2771461230e578063120e3f1e1461218257806328e24b3d146121545780633683c4d214611ec75780633b49d01114611e805780633bd109fa14611e315780633d43b41814611ddd57806353f7fd48146118245780636c2eb35014611492578063715018a61461142957806371a8cf2d146113fb57806382bdeaad146112e357806384d22a4f1461128557806388f50cf01461124c5780638b1edf1e146111815780638da5cb5b1461114c5780638f381dbe146111065780639067088e146110bd57806396a2ddfa1461108f5780639eb939a814611038578063a5d53a4414610fca578063b24fcac014610991578063baaf020114610890578063c13911e81461084c578063c2eb812f14610520578063ca1e7819146104d0578063cacf66ab14610498578063d456fd5114610462578063e3a6684f14610423578063e6fabc09146103ea578063ed612f8c146103b2578063edc872251461035d578063f2fde38b14610330578063f4f20ac0146102f75763facd743b0361000f57346102f45760203660031901126102f4576102b661285c565b60036102d15f516020614a215f395f51905f52544290614511565b019060018060a01b03165f52602052602060ff60405f2054166040519015158152f35b80fd5b50346102f457806003193601126102f4575f516020614a215f395f51905f5254600701546040516001600160a01b039091168152602090f35b50346102f45760203660031901126102f45761035a61034d61285c565b610355612e60565b612db2565b80f35b50346102f457806003193601126102f45760206103aa5f516020614a215f395f51905f5254600860046103904284614511565b0154910154906001600160801b038260801c9216906144e6565b604051908152f35b50346102f457806003193601126102f457602060046103e05f516020614a215f395f51905f52544290614511565b0154604051908152f35b50346102f457806003193601126102f4575f516020614a215f395f51905f5254600501546040516001600160a01b039091168152602090f35b50346102f457806003193601126102f457604060085f516020614a215f395f51905f525401548151906001600160801b038116825260801c6020820152f35b50346102f457806003193601126102f457602065ffffffffffff60045f516020614a215f395f51905f5254015416604051908152f35b50346102f457806003193601126102f457602065ffffffffffff60025f516020614a215f395f51905f52540154821c16604051908152f35b50346102f457806003193601126102f45761051c61050860046105025f516020614a215f395f51905f52544290614511565b01612ba7565b6040519182916020835260208301906128c3565b0390f35b50346102f457806003193601126102f45760405161053d81612990565b610545612ce0565b815260405161055381612975565b5f8152602081015f9052602082015261056a612ce0565b6040820152610577612d7f565b606082015260405161058881612975565b5f8082526020820152608082015261059e612ce0565b60a08201528160c082015260e001525f516020614a215f395f51905f52546105c4612d7f565b506105d160098201614783565b906105de600f8201614783565b600882015492604051936105f1856129ac565b6001600160801b038116855260801c602085015260408401526060830152601b81015490601c8101546040519261062784612990565b60405161063381612946565b60018401548152600284015463ffffffff8116602083015260201c65ffffffffffff16604082015284526040519461066a86612975565b60038401548652600484015465ffffffffffff166020870152602085019586526040519061069782612946565b60058501546001600160a01b0390811683526006860154811660208401526007860154166040808401919091528601918252606086019081526106dc60158601612c32565b94608087019586526016016106f090612cfe565b9160a0870192835260c0870193845260e087019485526040519788976020895251805160208a0152602081015163ffffffff1660408a01526040015165ffffffffffff16606089015251805160808901526020015165ffffffffffff1660a088015251600160a01b6001900381511660c0880152600160a01b6001900360208201511660e0880152600160a01b60019003906040015116610100870152516101208601610200905280516001600160801b031661022087015260208101516001600160801b031661024087015260408101516102608701608090526102a087016107d9916128ff565b90606001519061021f19878203016102808801526107f6916128ff565b935180516001600160401b0316610140870152602001516001600160801b031661016086015251805161018086015260208101516101a0860152604001516101c0850152516101e0840152516102008301520390f35b50346102f45760203660031901126102f45760ff604060209260195f516020614a215f395f51905f5254016004358252845220541661088e60405180926128b6565bf35b50346102f45760203660031901126102f4576004356001600160401b03811161098d576108c1903690600401612886565b905f516020614a215f395f51905f5254906108db83612b3c565b916108e960405193846129c7565b8383526108f584612b3c565b602084019490601f1901368637601a869201915b81811061095457868587604051928392602084019060208552518091526040840192915b81811061093b575050500390f35b825184528594506020938401939092019160010161092d565b8061096a6109656001938588612bfa565b612c60565b828060a01b03165f528360205260405f20546109868288612c1e565b5201610909565b5080fd5b50346102f45760603660031901126102f4576004356001600160401b03811161098d57806004019161010060031983360301126102f457600260243510156102f4576044356001600160401b03811161098d576109f2903690600401612886565b9390917f9b779b17422d0df92223018b32b4d1fa46e071723d6817e2486d003becc55f005c610fbb5760017f9b779b17422d0df92223018b32b4d1fa46e071723d6817e2486d003becc55f005d5f516020614a215f395f51905f525491610a5e600184015415156129e8565b825415610ee1575b60038301908154916044870135809303610e8e57600485019765ffffffffffff89541696602489019765ffffffffffff610a9f8a612d34565b1610610e0e57610ab484889b96999a9b613204565b98606095879b8c9a60a482019860198c019c5b610ad18b8b613765565b9190501015610c99578e610ae58b8b613765565b90911015610c85578f60ff8f926040908f9360061b01928335948582526020522054166003811015610c7157600103610c0e5760408f918f928f936020830194610b2e8661379a565b15610bf657601c928782526020528481209050600260ff1982541617905501610b578154612e23565b90555b610b638361379a565b15157f460119a8f69a33ed127de517d5ea464e958ce23ef19e4420a8b92bf780bbc2c960208451878152a2360312610bf25791610be9916020600194610bb760405191610baf83612975565b8483526137a7565b91829101526040519060208201928352151560f81b604082015260218152610be06041826129c7565b519020906137b4565b9e019d8e610ac7565b8c80fd5b905083918682526020522060ff198154169055610b5a565b60405162461bcd60e51b815260206004820152603560248201527f636f6465206d7573742062652072657175657374656420666f722076616c6964604482015274185d1a5bdb881d1bc818994818dbdb5b5a5d1d1959605a1b6064820152608490fd5b634e487b7160e01b8e52602160045260248efd5b634e487b7160e01b8c52603260045260248cfd5b8a9950926020610d9e998f948e9794610d939665ffffffffffff98858151910120610cc4858c613803565b91610ccf868d613d16565b93610ce56064610cde8c612d34565b9701612d26565b9060405196898801983589528d60d01b9060d01b166040880152604687015260ff60f81b9060f81b1660668601526067850152608784015260a783015260c782015260c78152610d3660e7826129c7565b5190208099610d4485612d34565b8760405191610d5283612975565b8483521693849101525584198254161790557f7ebe42360bcb182fe0a88148b081e4557c89d09aa6af8307635ac2f83e2aaa656020604051898152a1612d34565b16936024359161413c565b15610dc957807f9b779b17422d0df92223018b32b4d1fa46e071723d6817e2486d003becc55f005d80f35b60405162461bcd60e51b815260206004820152601e60248201527f7369676e61747572657320766572696669636174696f6e206661696c656400006044820152606490fd5b60405162461bcd60e51b815260206004820152604c60248201527f62617463682074696d657374616d70206d75737420626520677265617465722060448201527f6f7220657175616c20746f206c617465737420636f6d6d69747465642062617460648201526b063682074696d657374616d760a41b608482015260a490fd5b60405162461bcd60e51b815260206004820152602560248201527f696e76616c69642070726576696f757320636f6d6d6974746564206261746368604482015264040d0c2e6d60db1b6064820152608490fd5b610ef7610ef060648701612d26565b823561316f565b15610f675765ffffffffffff610f0f60248701612d34565b164211610a665760405162461bcd60e51b815260206004820152602360248201527f62617463682074696d657374616d70206d75737420626520696e207468652070604482015262185cdd60ea1b6064820152608490fd5b60405162461bcd60e51b815260206004820152602660248201527f616c6c6f776564207072656465636573736f7220626c6f636b207761736e277460448201526508199bdd5b9960d21b6064820152608490fd5b633ee5aeb560e01b8152600490fd5b50346102f457806003193601126102f457604061100b5f516020614a215f395f51905f5254600261100360018060a01b03924290614511565b015416612e31565b6020825193849282845280519283918282870152018585015e828201840152601f01601f19168101030190f35b50346102f457806003193601126102f457611051612ce0565b50606061106e60165f516020614a215f395f51905f525401612cfe565b61088e60405180926040809180518452602081015160208501520151910152565b50346102f457806003193601126102f4576020601b5f516020614a215f395f51905f52540154604051908152f35b50346102f45760203660031901126102f4576110d761285c565b601a5f516020614a215f395f51905f5254019060018060a01b03165f52602052602060405f2054604051908152f35b50346102f45760203660031901126102f457600435906001600160401b0382116102f457602061114261113c3660048601612886565b90612c74565b6040519015158152f35b50346102f457806003193601126102f4575f516020614a015f395f51905f52546040516001600160a01b039091168152602090f35b50346102f457806003193601126102f4575f516020614a215f395f51905f525460018101908154611207576002015463ffffffff16409081156111c2575580f35b60405162461bcd60e51b815260206004820152601d60248201527f756e61626c6520746f206c6f6f6b75702067656e6573697320686173680000006044820152606490fd5b60405162461bcd60e51b815260206004820152601860248201527f67656e65736973206861736820616c72656164792073657400000000000000006044820152606490fd5b50346102f457806003193601126102f4575f516020614a215f395f51905f5254600601546040516001600160a01b039091168152602090f35b50346102f457806003193601126102f45761129e612a5a565b5060406112bb60155f516020614a215f395f51905f525401612c32565b61088e825180926001600160801b03602080926001600160401b038151168552015116910152565b50346102f45760203660031901126102f4576004356001600160401b03811161098d57611314903690600401612886565b905f516020614a215f395f51905f52549061132e83612b3c565b9161133c60405193846129c7565b83835261134884612b3c565b602084019490601f19013686376019869201915b8181106113b157868587604051928392602084019060208552518091526040840192915b81811061138e575050500390f35b91935091602080826113a360019488516128b6565b019401910191849392611380565b6113bc818386612bfa565b3587528260205260ff6040882054166113d58287612c1e565b60038210156113e7575260010161135c565b634e487b7160e01b89526021600452602489fd5b50346102f457806003193601126102f457602060035f516020614a215f395f51905f52540154604051908152f35b50346102f457806003193601126102f457611442612e60565b5f516020614a015f395f51905f5280546001600160a01b0319811690915581906001600160a01b03167f8be0079c531659141344cd1fd0a4f28419497f9722a3daafe3b4186f6b6457e08280a380f35b50346102f457806003193601126102f4575f516020614a415f395f51905f525460ff8160401c1690811561180f575b50611800575f516020614a415f395f51905f52805468ffffffffffffffffff1916680100000000000000021790555f516020614a015f395f51905f525461151b906001600160a01b031661151361452d565b61035561452d565b5f516020614a215f395f51905f5254604090815161153983826129c7565b6017815260208101907f726f757465722e73746f726167652e526f757465725632000000000000000000825261156d612e60565b5190205f1981019081116117ec57916020917fc7f505b2f371ae2175ee4913f4499e1f2633a7b5936321eed1cdaeb6115181d2938251908482019081528482526115b784836129c7565b60ff19915190201690815f516020614a215f395f51905f52557f059eb9adf6e95b839d818142ed5bd5e498b6d95138e65c91525e93cc0f0339fc848451848152a1611600612e93565b80516001840155600283019063ffffffff868201511669ffffffffffff00000000868454930151881b169169ffffffffffffffffffff19161717905560058101600583019080820361179e575b5050600881016001600160801b038154169060088401916001600160801b0319835416178255546001600160801b0382549181191691161790556116d66116944283614511565b6116ab6001600160a01b0360026110034287614511565b6116c160046116ba4287614511565b0192612a72565b906116cc4293612ba7565b9160098701612edb565b60158101601583019080820361174c575b505060168101601683019181830361172c575b5050505060ff60401b195f516020614a415f395f51905f5254165f516020614a415f395f51905f52555160028152a180f35b60189283925490556017810154601785015501549101555f8080806116fa565b806001600160401b03806001600160801b03935416166001600160401b031984541617835554851c16600160401b600160c01b03825491861b1690600160401b600160c01b0319161790555f806116e7565b5481546001600160a01b03199081166001600160a01b039283161790925560068381015490850180548416918316919091179055600780840154908501805490931691161790555f8061164d565b634e487b7160e01b84526011600452602484fd5b63f92ee8a960e01b8152600490fd5b600291506001600160401b031610155f6114c1565b50346102f4576101603660031901126102f45761183f61285c565b6024356001600160a01b0381169190829003611dd95761185d612830565b611865612846565b60c435916084359160a43560403660e3190112611dd55761012435946001600160401b038611611dd15736602387011215611dd1578560040135916001600160401b038311611dcd573660248489010111611dcd57610144356001600160401b038111611dc9576118da903690600401612886565b9690945f516020614a415f395f51905f5254996001600160401b0360ff8c60401c16159b1680159081611dc1575b6001149081611db7575b159081611dae575b50611d9f5761195c908b60016001600160401b03195f516020614a415f395f51905f525416175f516020614a415f395f51905f5255611d6f575b61151361452d565b61196461452d565b4215611d19578215611cc35782821115611c6257600a6119848484612a90565b04841015611c1d5760409a8b5161199b8d826129c7565b6017815260208101907f726f757465722e73746f726167652e526f75746572563100000000000000000082526119cf612e60565b5190205f198101908111611c09578c51602080820192835281528d9392916119f785836129c7565b60ff19915190201698895f516020614a215f395f51905f525583518a815260207f059eb9adf6e95b839d818142ed5bd5e498b6d95138e65c91525e93cc0f0339fc91a1611a42612e93565b805160018c015560028b0190602081015163ffffffff1686835492015160201b69ffffffffffff00000000169169ffffffffffffffffffff191617179055835190611a8c82612946565b8282526001600160a01b03908116602083018190529381169490910184905260058a018054919092166001600160a01b031991821617909155600689018054821690921790915560078801805490911690911790557003000000000000000000000000000000026008870155611b00612a5a565b508951611b0c81612975565b639502f90081526509184e72a0006020909101526015860180546001600160c01b0319166d09184e72a000000000009502f900179055895183908b90611b5181612946565b8381528460208201520152601686015560178501556018840155865194611b7786612975565b60e4358652610104356020870152611b93913691602401612af7565b9042933690611ba192612b53565b9160090193611baf94612edb565b611bb7575080f35b60207fc7f505b2f371ae2175ee4913f4499e1f2633a7b5936321eed1cdaeb6115181d29160ff60401b195f516020614a415f395f51905f5254165f516020614a415f395f51905f52555160018152a180f35b634e487b7160e01b8e52601160045260248efd5b60405162461bcd60e51b815260206004820152601b60248201527f76616c69646174696f6e2064656c617920697320746f6f2062696700000000006044820152606490fd5b60405162461bcd60e51b815260206004820152603360248201527f657261206475726174696f6e206d757374206265206772656174657220746861604482015272371032b632b1ba34b7b710323ab930ba34b7b760691b6064820152608490fd5b60405162461bcd60e51b815260206004820152602860248201527f656c656374696f6e206475726174696f6e206d75737420626520677265617465604482015267072207468616e20360c41b6064820152608490fd5b60405162461bcd60e51b815260206004820152602860248201527f63757272656e742074696d657374616d70206d75737420626520677265617465604482015267072207468616e20360c41b6064820152608490fd5b600160401b60ff60401b195f516020614a415f395f51905f525416175f516020614a415f395f51905f5255611954565b63f92ee8a960e01b8d5260048dfd5b9050155f61191a565b303b159150611912565b8c9150611908565b8a80fd5b8980fd5b8880fd5b8780fd5b8280fd5b50346102f45760203660031901126102f457611df761285c565b611dff612e60565b5f516020614a215f395f51905f525460050180546001600160a01b0319166001600160a01b0390921691909117905580f35b50346102f457806003193601126102f457611e4a612a5a565b506040611e6e611e695f516020614a215f395f51905f52544290614511565b612a72565b60208251918051835201516020820152f35b50346102f457806003193601126102f4576020611eb95f516020614a215f395f51905f5254600261100360018060a01b03924290614511565b818151910120604051908152f35b50346102f45760603660031901126102f457600435611ee4612830565b5f516020614a215f395f51905f5254611f02600182015415156129e8565b8284526019810160205260ff6040852054166003811015612140576002036120e4576040516020810190848252602435604082015260408152611f466060826129c7565b51902060405160608101908082106001600160401b038311176120e057605a916040527f3d605080600a3d3981f3608060405263e6fabc0960e01b5f5260205f6004817381523060601b6b5afa15604c575f80805136821760208201527f80378136915af43d5f803e156048573d5ff35b3d5ffd5b5f80fd000000000000604082015286f59081156120dc576001600160a01b0382165f908152601a820160205260409020849055601b018054611ffc90612e23565b90556040516001600160a01b03821680825293907f8008ec1d8798725ebfa0f2d128d52e8e717dcba6e0f786557eeee70614b02bf190602090a2506001600160a01b0381166120d75750335b5f516020614a215f395f51905f5254600501546001600160a01b0316823b156120d357604051631c9776b560e31b81526001600160a01b039092166004830152602482015260016044820152828160648183865af180156120c8576120b3575b602082604051908152f35b6120be8380926129c7565b61098d57816120a8565b6040513d85823e3d90fd5b8380fd5b612048565b8480fd5b8680fd5b60405162461bcd60e51b815260206004820152602e60248201527f636f6465206d7573742062652076616c696461746564206265666f726520707260448201526d37b3b930b69031b932b0ba34b7b760911b6064820152608490fd5b634e487b7160e01b85526021600452602485fd5b50346102f457806003193601126102f457602060015f516020614a215f395f51905f52540154604051908152f35b50346102f45760203660031901126102f4576004358149156122925760195f516020614a215f395f51905f52546121be600182015415156129e8565b018183528060205260ff604084205416600381101561227e5761221d5781835260209081526040808420805460ff19166001179055519182527f5c261a095dd5720475295dc06379921c003c22164ee6cae5cf83e76ce0a1b98591a180f35b60405162461bcd60e51b815260206004820152603360248201527f676976656e20636f646520696420697320616c7265616479206f6e2076616c6960448201527219185d1a5bdb881bdc881d985b1a59185d1959606a1b6064820152608490fd5b634e487b7160e01b84526021600452602484fd5b60405162461bcd60e51b815260206004820152604860248201527f626c6f622063616e277420626520666f756e642c20726f75746572206578706560448201527f63746564204549502d34383434207472616e73616374696f6e2077697468205760648201526720a9a690313637b160c11b608482015260a490fd5b346127e85760803660031901126127e85760043561232a612830565b90612333612846565b915f516020614a215f395f51905f5254612352600182015415156129e8565b825f526019810160205260ff60405f20541660038110156127f2576002036120e45760405160208101908482526024356040820152604081526123966060826129c7565b5190206040516102c08101908082106001600160401b038311176127e8576102b0916040527f60808060405261029e90816100128239f3fe608060405260043610610254575f81527f3560e01c806336a52a18146100ab57806342129d00146100a65780635ce6c32760208201527f146100a1578063701da98e1461009c578063704ed542146100975780637a8e0c60408201527fdd1461009257806391d5a64c1461008d5780639ce110d714610088578063affe60608201527fd0e0146100835763e43f3433036102545761023f565b610222565b6101fa565b60808201527f6101e4565b6101b1565b610181565b610165565b610143565b610106565b346160a08201527ed4575f3660031901126100d45760025460081c6001600160a01b031660809060c08201527f8152602090f35b5f80fd5b9181601f840112156100d45782359167ffffffffff60e08201527fffffff83116100d457602083818601950101116100d457565b604036600319016101008201527f126100d45760043567ffffffffffffffff81116100d4576101329036906004016101208201527f6100d8565b505060243580151514610254575f80fd5b346100d4575f366003196101408201527f01126100d457602060ff600254166040519015158152f35b346100d4575f36606101608201527f031901126100d45760205f54604051908152f35b346100d457602036600319016101808201527f126100d4576004356fffffffffffffffffffffffffffffffff811614610254576101a08201527f5f80fd5b60403660031901126100d45760243567ffffffffffffffff811161006101c08201527fd4576101dd9036906004016100d8565b5050610254565b346100d457602036606101e08201527f0319011215610254575f80fd5b346100d4575f3660031901126100d4576003546102008201527f6040516001600160a01b039091168152602090f35b346100d4575f36600319016102208201527f126100d4576020600154604051908152f35b346100d4575f36600319011215616102408201523060601c7f0254575f80fd5b63e6fabc0960e01b5f5260205f60048173000000000000000017610260820152735afa156100d4575f808051368280378136915af43060a01b176102808201526f3d5f803e1561029a573d5ff35b3d5ffd60801b6102a08201525ff59081156127e8576001600160a01b0382165f908152601a820160205260409020849055601b01805461272d90612e23565b90556040516001600160a01b03821680825293907f8008ec1d8798725ebfa0f2d128d52e8e717dcba6e0f786557eeee70614b02bf190602090a2506001600160a01b0381166127ec575033915b813b156127e857604051631c9776b560e31b81526001600160a01b039384166004820152921660248301525f604483018190528260648183855af19182156127dd576020926127cd575b50604051908152f35b5f6127d7916129c7565b5f6127c4565b6040513d5f823e3d90fd5b5f80fd5b9161277a565b634e487b7160e01b5f52602160045260245ffd5b346127e8575f3660031901126127e857602090601c5f516020614a215f395f51905f525401548152f35b604435906001600160a01b03821682036127e857565b606435906001600160a01b03821682036127e857565b600435906001600160a01b03821682036127e857565b35906001600160a01b03821682036127e857565b9181601f840112156127e8578235916001600160401b0383116127e8576020808501948460051b0101116127e857565b9060038210156127f25752565b90602080835192838152019201905f5b8181106128e05750505090565b82516001600160a01b03168452602093840193909201916001016128d3565b9060208251805183520151602082015260018060a01b0360208301511660408201526080606061293d604085015160a08386015260a08501906128c3565b93015191015290565b606081019081106001600160401b0382111761296157604052565b634e487b7160e01b5f52604160045260245ffd5b604081019081106001600160401b0382111761296157604052565b61010081019081106001600160401b0382111761296157604052565b608081019081106001600160401b0382111761296157604052565b90601f801991011681019081106001600160401b0382111761296157604052565b156129ef57565b60405162461bcd60e51b815260206004820152603860248201527f726f757465722067656e65736973206973207a65726f3b2063616c6c20606c6f60448201527f6f6b757047656e657369734861736828296020666972737400000000000000006064820152608490fd5b60405190612a6782612975565b5f6020838281520152565b90604051612a7f81612975565b602060018294805484520154910152565b91908203918211612a9d57565b634e487b7160e01b5f52601160045260245ffd5b8115612abb570490565b634e487b7160e01b5f52601260045260245ffd5b91908260409103126127e857604051612ae781612975565b6020808294803584520135910152565b9291926001600160401b0382116129615760405191612b20601f8201601f1916602001846129c7565b8294818452818301116127e8578281602093845f960137010152565b6001600160401b0381116129615760051b60200190565b929190612b5f81612b3c565b93612b6d60405195866129c7565b602085838152019160051b81019283116127e857905b828210612b8f57505050565b60208091612b9c84612872565b815201910190612b83565b90604051918281549182825260208201905f5260205f20925f5b818110612bd8575050612bd6925003836129c7565b565b84546001600160a01b0316835260019485019487945060209093019201612bc1565b9190811015612c0a5760051b0190565b634e487b7160e01b5f52603260045260245ffd5b8051821015612c0a5760209160051b010190565b90604051612c3f81612975565b91546001600160401b038116835260401c6001600160801b03166020830152565b356001600160a01b03811681036127e85790565b612c8d5f516020614a215f395f51905f52544290614511565b600301905f5b838110612ca35750505050600190565b612cb1610965828685612bfa565b6001600160a01b03165f9081526020849052604090205460ff1615612cd857600101612c93565b505050505f90565b60405190612ced82612946565b5f6040838281528260208201520152565b90604051612d0b81612946565b60406002829480548452600181015460208501520154910152565b3560ff811681036127e85790565b3565ffffffffffff811681036127e85790565b60405190612d54826129ac565b5f606083604051612d6481612975565b83815283602082015281528260208201528160408201520152565b60405190612d8c826129ac565b815f81525f6020820152612d9e612d47565b60408201526060612dad612d47565b910152565b6001600160a01b03168015612e10575f516020614a015f395f51905f5280546001600160a01b0319811683179091556001600160a01b03167f8be0079c531659141344cd1fd0a4f28419497f9722a3daafe3b4186f6b6457e05f80a3565b631e4fbdf760e01b5f525f60045260245ffd5b5f198114612a9d5760010190565b803b905f19820190828211612a9d5760019060405193603e601f19910116840160405282845260208401903c90565b5f516020614a015f395f51905f52546001600160a01b03163303612e8057565b63118cdaa760e01b5f523360045260245ffd5b612e9b612ce0565b50604051612ea881612946565b5f815263ffffffff4316602082015265ffffffffffff4216604082015290565b81810292918115918404141715612a9d57565b9291908051906020810191825170014551231950b75fc4402da1732fc9bebe198210918261315e575b50501561310a5751845551600184015560405190612f476021836020808201945f86528051918291018484015e81015f838201520301601f1981018452836129c7565b612f84602b604051809360208201956a600b5981380380925939f360a81b87525180918484015e81015f838201520301601f1981018352826129c7565b51905ff06001600160a01b038116156130d1576002830180546001600160a01b0319166001600160a01b039092169190911790555f5b600483018054821015612ff8575f90815260208082208301546001600160a01b0316825260038501905260409020805460ff19169055600101612fba565b5050925f5b8451811015613041576001906001600160a01b0361301b8288612c1e565b5116828060a01b03165f526003840160205260405f208260ff1982541617905501612ffd565b5092600482018151916001600160401b03831161296157600160401b83116129615781548383558084106130ab575b50602001905f5260205f205f5b83811061308e575050505060050155565b82516001600160a01b03168183015560209092019160010161307d565b825f528360205f2091820191015b8181106130c65750613070565b5f81556001016130b9565b60405162461bcd60e51b81526020600482015260116024820152701111541313d65351539517d19052531151607a1b6044820152606490fd5b60405162461bcd60e51b815260206004820152602660248201527f46524f53542061676772656761746564207075626c6963206b657920697320696044820152651b9d985b1a5960d21b6064820152608490fd5b613168925061495b565b5f80612f04565b435f1981019392908411612a9d5760ff164381106131bf57505f925b8381101561319b575b505f925050565b80408281036131ad5750600193505050565b156131ba575f190161318b565b613194565b6131c99043612a90565b9261318b565b903590601e19813603018212156127e857018035906001600160401b0382116127e857602001918160051b360383136127e857565b9060808101600161321582846131cf565b9050116137035761322681836131cf565b9050156136dc57613236916131cf565b15612c0a57803590603e19813603018212156127e857019161325883806131cf565b92906060925f95601a60fe19843603019401945b86881015613679578760051b840135858112156127e857840161328e81612c60565b6001600160a01b03165f908152602088905260409020541561361c575f608082016001600160801b036132c082614558565b16151580613609575b6135f8575b6001600160a01b036132df84612c60565b604051630427a21d60e11b81526020600482015294911691610124850191906001600160801b039061335e906001600160a01b0361331c85612872565b16602489015260208401356044890152613338604085016137a7565b151560648901526001600160a01b0361335360608601612872565b16608489015261456c565b1660a486015261337060a082016137a7565b151560c486015236819003601e190160c0820135818112156127e8578201602081359101936001600160401b0382116127e85760608202360385136127e857819061010060e48a015252610144870193905f905b8082106135ae5750505060e0820135908112156127e85701803560208201926001600160401b0382116127e8578160051b9081360385136127e85791879594936023198785030161010488015281845260208085019385010194935f9160fe19813603015b8484106134a15750505050505050602093916001600160801b03848093039316905af19081156127dd575f9161346f575b50613467906001926137b4565b97019661326c565b90506020813d8211613499575b81613489602093836129c7565b810103126127e85751600161345a565b3d915061347c565b919395979850919395601f198482030187528735828112156127e8578301602081013582526001600160a01b036134da60408301612872565b1660208301526060810135603e1936839003018112156127e8578101602081013591906040016001600160401b0383116127e85782360381136127e857829060e060408601528160e08601526101008501375f61010083850101526001600160801b036135496080830161456c565b16606084015260a0810135608084015260c081013563ffffffff60e01b81168091036127e8578360209361358b60e086956101009560a060019a0152016137a7565b151560c0830152601f80199101160101990197019401918a989796959391613429565b90919460608060019288358152838060a01b036135cd60208b01612872565b1660208201526001600160801b036135e760408b0161456c565b1660408201520196019201906133c4565b905061360381614558565b906132ce565b5061361660a0840161379a565b156132c9565b60405162461bcd60e51b815260206004820152602f60248201527f636f756c646e277420706572666f726d207472616e736974696f6e20666f722060448201526e756e6b6e6f776e2070726f6772616d60881b6064820152608490fd5b93509450945050602091508181519101209101357fd04cd9af813f6f0b56e9411a6ee6a84eb5ac35a96f0c33d2e3a07d65baa8f4186020604051838152a160405190602082019283526040820152604081526136d66060826129c7565b51902090565b5050507fc5d2460186f7233c927e7db2dcc703c0e500b653ca82273b7bfad8045d85a47090565b60405162461bcd60e51b815260206004820152603460248201527f636861696e436f6d6d69746d656e7420636f756c6420636f6e7461696e206174604482015273081b5bdcdd081bdb994818dbdb5b5a5d1b595b9d60621b6064820152608490fd5b903590601e19813603018212156127e857018035906001600160401b0382116127e857602001918160061b360383136127e857565b3580151581036127e85790565b359081151582036127e857565b602080612bd6928195946040519682889351918291018585015e82019083820152030180855201836129c7565b903590605e19813603018212156127e8570190565b91908201809211612a9d57565b60c08201600161381382856131cf565b905011613c7a5761382481846131cf565b9050156136dc5761383590836131cf565b15612c0a57803590607e19813603018212156127e85701916060830190602061385d83612d34565b91019065ffffffffffff8061387184612d34565b1691161015613c1b5761388382612d34565b65ffffffffffff80600286015460201c16911610613bc0576138c965ffffffffffff6138c26138bc826138b587612d34565b1687614580565b93612d34565b1684614580565b1115613b67576007820154600690920180548435946001600160a01b0394851694604082019391925f9160209116604461390f8361390789896137e1565b01358b6137f6565b604051948593849263095ea7b360e01b84528c600485015260248401525af180156127dd57613b30575b505460405163394f179b60e11b81526001600160a01b03909116600482015260248101959095526020818101356044870152856064815f885af19485156127dd575f95613af8575b509061398c916137e1565b9161399682612d34565b9260405193637fbe95b560e01b85526040600486015260a48501918035601e19823603018112156127e8578101602081359101936001600160401b0382116127e8578160061b360385136127e85760606044890152819052869360c485019392915f5b818110613ac057505050836020959365ffffffffffff829484895f9601356064860152613a2f604060018060a01b039201612872565b16608485015216602483015203925af19182156127dd575f92613a8a575b50613a5790612d34565b6040519160208301938452604083015265ffffffffffff60d01b9060d01b166060820152604681526136d66066826129c7565b9091506020813d602011613ab8575b81613aa6602093836129c7565b810103126127e8575190613a57613a4d565b3d9150613a99565b919550919293604080600192838060a01b03613adb8a612872565b1681526020890135602082015201960191019188959493926139f9565b919094506020823d602011613b28575b81613b15602093836129c7565b810103126127e85790519361398c613981565b3d9150613b08565b6020813d602011613b5f575b81613b49602093836129c7565b810103126127e857518015158114613939575f80fd5b3d9150613b3c565b60405162461bcd60e51b815260206004820152602b60248201527f7265776172647320636f6d6d69746d656e74206d75737420746172676574207060448201526a726576696f75732065726160a81b6064820152608490fd5b60405162461bcd60e51b815260206004820152602d60248201527f7265776172647320636f6d6d69746d656e742074696d657374616d702070726560448201526c64617465732067656e6573697360981b6064820152608490fd5b60405162461bcd60e51b815260206004820152603160248201527f7265776172647320636f6d6d69746d656e742074696d657374616d70206d75736044820152701d08189948199bdc881d1a19481c185cdd607a1b6064820152608490fd5b608460405162461bcd60e51b815260206004820152604060248201527f7265776172647320636f6d6d69746d656e74206d75737420626520656d70747960448201527f206f7220636f6e7461696e73206f6e6c79206f6e6520636f6d6d69746d656e746064820152fd5b903590601e19813603018212156127e857018035906001600160401b0382116127e8576020019181360383136127e857565b9060e081016001613d2782846131cf565b9050116140c557613d3881836131cf565b9050156136dc57613d48916131cf565b15612c0a57803590609e19813603018212156127e85701906060820190613d6f82846131cf565b9050156140725765ffffffffffff600282015460201c1692613d918442612a90565b613da060168401548092612ab1565b9460808301359560018101809111612a9d57860361401a57613dc586613dcb93612ec8565b906137f6565b91613dda601782015484612a90565b4210613fd557613de9906145a8565b914260058401541015613f7557613e3e906040830193613e30613e38613e0f8787613ce4565b9190613e1b8a896131cf565b949091613e28368b612acf565b943691612af7565b933691612b53565b92612edb565b7fa1a3b42179ad30022438a1ea333b38eaf4a7329beee5e2b8111c0dcd4e08821c6020604051868152a160a0813603126127e85760405191613e7f836129ac565b613e893683612acf565b8352356001600160401b0381116127e857810136601f820112156127e857613eb8903690602081359101612af7565b926020830193845235906001600160401b0382116127e8570136601f820112156127e857613ef190939291933690602081359101612b53565b928360408201528260608201525192602084519401519151602081519101209260405193849360208501968752604085015260608401526080830160208351919301905f5b818110613f53575050508152038082526136d690602001826129c7565b82516001600160a01b0316855286955060209485019490920191600101613f36565b60405162461bcd60e51b815260206004820152603260248201527f6c6f6f6b73206c696b652076616c696461746f727320666f72206e65787420656044820152711c9848185c9948185b1c9958591e481cd95d60721b6064820152608490fd5b60405162461bcd60e51b815260206004820152601b60248201527f656c656374696f6e206973206e6f7420796574207374617274656400000000006044820152606490fd5b60405162461bcd60e51b815260206004820152602a60248201527f636f6d6d69746d656e742065726120696e646578206973206e6f74206e657874604482015269040cae4c240d2dcc8caf60b31b6064820152608490fd5b60405162461bcd60e51b815260206004820152602560248201527f6e65772076616c696461746f7273206c697374206d757374206e6f7420626520604482015264656d70747960d81b6064820152608490fd5b60405162461bcd60e51b815260206004820152604360248201527f76616c696461746f727320636f6d6d69746d656e74206d75737420626520656d60448201527f707479206f7220636f6e7461696e73206f6e6c79206f6e6520636f6d6d69746d606482015262195b9d60ea1b608482015260a490fd5b909493919365ffffffffffff600283015460201c1661415b4284614580565b61417361416d60168601548093612ec8565b836137f6565b9182841080806144d0575b1561445e575083106144195761419490836137f6565b106143c8576141a4905b82614511565b94601960f81b5f523060601b60025260165260365f209360028110156127f257806142b45750506001810361426f5715612c0a576141e5816141ec92613ce4565b3691612af7565b91606083510361421a57826020614217940151606060408301519201519260018154910154906145c3565b90565b60405162461bcd60e51b815260206004820152602760248201527f46524f5354207369676e6174757265206c656e677468206d75737420626520396044820152663620627974657360c81b6064820152608490fd5b60405162461bcd60e51b815260206004820152601e60248201527f46524f5354207369676e6174757265206d7573742062652073696e676c6500006044820152606490fd5b9193916001146142c75750505050505f90565b6142ec90600860048796970154910154906001600160801b038260801c9216906144e6565b925f9260035f9201915b868110156143bd5761432561431c6143166141e58460051b860186613ce4565b866148c1565b909291926148fb565b6001600160a01b0381165f9081526020859052604090205460ff16614350575b506001905b016142f6565b6001600160a01b03165f9081527ff02b465737fa6045c2ff53fb2df43c66916ac2166fa303264668fb2f6a1d8c0060205260409020805c15614395575060019061434a565b9460016143a392965d612e23565b938585146143b1575f614345565b50505050505050600190565b505050505050505f90565b60405162461bcd60e51b8152602060048201526024808201527f74696d657374616d70206973206f6c646572207468616e2070726576696f75736044820152632065726160e01b6064820152608490fd5b60405162461bcd60e51b815260206004820152601e60248201527f63616e6e6f742076616c6964617465206265666f72652067656e6573697300006044820152606490fd5b9392915050428211614481576141a492614479575b5061419e565b90505f614473565b60405162461bcd60e51b815260206004820152602160248201527f74696d657374616d702063616e6e6f7420626520696e207468652066757475726044820152606560f81b6064820152608490fd5b506144df6018870154856137f6565b421061417e565b6001600160801b038092160291166144fe8183612ab1565b918115612abb5706156142175760010190565b9061451c90826147d8565b1561452757600f0190565b60090190565b60ff5f516020614a415f395f51905f525460401c161561454957565b631afcd79f60e31b5f5260045ffd5b356001600160801b03811681036127e85790565b35906001600160801b03821682036127e857565b601661459f6142179365ffffffffffff600285015460201c1690612a90565b91015490612ab1565b6145b242826147d8565b156145bd5760090190565b600f0190565b92939194906145d2858761495b565b156147795782156147795770014551231950b75fc4402da1732fc9bebe19831015614779576001169061010e6040519161012083018381106001600160401b038211176127e85760405260883684376002600188160160888401538760898401526002840160a984015360aa830186905260ca8301527e300046524f53542d736563703235366b312d4b454343414b3235362d76316360ea8301526303430b6160e51b61010a830152812060cc820181815290600260ec84016001815360428420809318845253604270014551231950b75fc4402da1732fc9bebe19922060801c6001600160401b0360801b8260801b16179070014551231950b75fc4402da1732fc9bebe1990600160c01b9060401c090880156143bd5784601b6080945f9660209870014551231950b75fc4402da1732fc9bebe19910970014551231950b75fc4402da1732fc9bebe19038552018684015280604084015270014551231950b75fc4402da1732fc9bebe19910970014551231950b75fc4402da1732fc9bebe1903606082015282805260015afa505f51915f5260205260018060a01b0360405f20161490565b5050505050505f90565b61478b612d47565b50600281015460058201546040519290916147cb916004916001600160a01b03166147b5866129ac565b6147be82612a72565b8652602086015201612ba7565b6040830152606082015290565b906014600e83015492015480831461487d57818184109311918215911115918190614876575b15614813578261480d57505090565b14919050565b60405162461bcd60e51b815260206004820152603560248201527f636f756c64206e6f74206964656e746966792076616c696461746f727320666f6044820152740722074686520676976656e2074696d657374616d7605c1b6064820152608490fd5b50816147fe565b606460405162461bcd60e51b815260206004820152602060248201527f657261732074696d657374616d70206d757374206e6f7420626520657175616c6044820152fd5b81519190604183036148f1576148ea9250602082015190606060408401519301515f1a9061497e565b9192909190565b50505f9160029190565b60048110156127f2578061490d575050565b600181036149245763f645eedf60e01b5f5260045ffd5b6002810361493f575063fce698f760e01b5f5260045260245ffd5b6003146149495750565b6335e2f38360e21b5f5260045260245ffd5b6401000003d01990600790829081818009900908906401000003d0199080091490565b91907f7fffffffffffffffffffffffffffffff5d576e7357a4501ddfe92f46681b20a084116149f5579160209360809260ff5f9560405194855216868401526040830152606082015282805260015afa156127dd575f516001600160a01b038116156149eb57905f905f90565b505f906001905f90565b5050505f916003919056fe9016d09d72d40fdae2fd8ceac6b6234c7706214fd39c1cd1e609a0528c1993005c09ca1b9b8127a4fd9f3c384aac59b661441e820e17733753ff5f2e86e1e000f0c57e16840df040f15088dc2f81fe391c3923bec73e23a9662efc9c229c6a00f0c57e16840df040f15088dc2f81fe391c3923bec73e23a9662efc9c229c6a00","linkReferences":{}},"methodIdentifiers":{"areValidators(address[])":"8f381dbe","codeState(bytes32)":"c13911e8","codesStates(bytes32[])":"82bdeaad","commitBatch((bytes32,uint48,bytes32,uint8,((address,bytes32,bool,address,uint128,bool,(bytes32,address,uint128)[],(bytes32,address,bytes,uint128,(bytes32,bytes4),bool)[])[],bytes32)[],(bytes32,bool)[],((uint256,bytes32),((address,uint256)[],uint256,address),uint48)[],((uint256,uint256),bytes,address[],uint256)[]),uint8,bytes[])":"b24fcac0","computeSettings()":"84d22a4f","createProgram(bytes32,bytes32,address)":"3683c4d2","createProgramWithAbiInterface(bytes32,bytes32,address,address)":"0c18d277","genesisBlockHash()":"28e24b3d","genesisTimestamp()":"cacf66ab","initialize(address,address,address,address,uint256,uint256,uint256,(uint256,uint256),bytes,address[])":"53f7fd48","isValidator(address)":"facd743b","latestCommittedBatchHash()":"71a8cf2d","latestCommittedBatchTimestamp()":"d456fd51","lookupGenesisHash()":"8b1edf1e","middleware()":"f4f20ac0","mirrorImpl()":"e6fabc09","owner()":"8da5cb5b","programCodeId(address)":"9067088e","programsCodeIds(address[])":"baaf0201","programsCount()":"96a2ddfa","reinitialize()":"6c2eb350","renounceOwnership()":"715018a6","requestCodeValidation(bytes32)":"120e3f1e","setMirror(address)":"3d43b418","signingThresholdFraction()":"e3a6684f","storageView()":"c2eb812f","timelines()":"9eb939a8","transferOwnership(address)":"f2fde38b","validatedCodesCount()":"007a32e7","validators()":"ca1e7819","validatorsAggregatedPublicKey()":"3bd109fa","validatorsCount()":"ed612f8c","validatorsThreshold()":"edc87225","validatorsVerifiableSecretSharingCommitment()":"a5d53a44","validatorsVssCommitmentHash()":"3b49d011","wrappedVara()":"88f50cf0"},"storageLayout":{"storage":[],"types":{}},"id":157}