{"abi":[{"type":"constructor","inputs":[],"stateMutability":"nonpayable"},{"type":"function","name":"areValidators","inputs":[{"name":"_validators","type":"address[]","internalType":"address[]"}],"outputs":[{"name":"","type":"bool","internalType":"bool"}],"stateMutability":"view"},{"type":"function","name":"codeState","inputs":[{"name":"_codeId","type":"bytes32","internalType":"bytes32"}],"outputs":[{"name":"","type":"uint8","internalType":"enum Gear.CodeState"}],"stateMutability":"view"},{"type":"function","name":"codesStates","inputs":[{"name":"_codesIds","type":"bytes32[]","internalType":"bytes32[]"}],"outputs":[{"name":"","type":"uint8[]","internalType":"enum Gear.CodeState[]"}],"stateMutability":"view"},{"type":"function","name":"commitBatch","inputs":[{"name":"_batchCommitment","type":"tuple","internalType":"struct Gear.BatchCommitment","components":[{"name":"codeCommitments","type":"tuple[]","internalType":"struct Gear.CodeCommitment[]","components":[{"name":"id","type":"bytes32","internalType":"bytes32"},{"name":"timestamp","type":"uint48","internalType":"uint48"},{"name":"valid","type":"bool","internalType":"bool"}]},{"name":"blockCommitments","type":"tuple[]","internalType":"struct Gear.BlockCommitment[]","components":[{"name":"hash","type":"bytes32","internalType":"bytes32"},{"name":"timestamp","type":"uint48","internalType":"uint48"},{"name":"previousCommittedBlock","type":"bytes32","internalType":"bytes32"},{"name":"predecessorBlock","type":"bytes32","internalType":"bytes32"},{"name":"transitions","type":"tuple[]","internalType":"struct Gear.StateTransition[]","components":[{"name":"actorId","type":"address","internalType":"address"},{"name":"newStateHash","type":"bytes32","internalType":"bytes32"},{"name":"exited","type":"bool","internalType":"bool"},{"name":"inheritor","type":"address","internalType":"address"},{"name":"valueToReceive","type":"uint128","internalType":"uint128"},{"name":"valueClaims","type":"tuple[]","internalType":"struct Gear.ValueClaim[]","components":[{"name":"messageId","type":"bytes32","internalType":"bytes32"},{"name":"destination","type":"address","internalType":"address"},{"name":"value","type":"uint128","internalType":"uint128"}]},{"name":"messages","type":"tuple[]","internalType":"struct Gear.Message[]","components":[{"name":"id","type":"bytes32","internalType":"bytes32"},{"name":"destination","type":"address","internalType":"address"},{"name":"payload","type":"bytes","internalType":"bytes"},{"name":"value","type":"uint128","internalType":"uint128"},{"name":"replyDetails","type":"tuple","internalType":"struct Gear.ReplyDetails","components":[{"name":"to","type":"bytes32","internalType":"bytes32"},{"name":"code","type":"bytes4","internalType":"bytes4"}]},{"name":"call","type":"bool","internalType":"bool"}]}]}]},{"name":"rewardCommitments","type":"tuple[]","internalType":"struct Gear.RewardsCommitment[]","components":[{"name":"operators","type":"tuple","internalType":"struct Gear.OperatorRewardsCommitment","components":[{"name":"amount","type":"uint256","internalType":"uint256"},{"name":"root","type":"bytes32","internalType":"bytes32"}]},{"name":"stakers","type":"tuple","internalType":"struct Gear.StakerRewardsCommitment","components":[{"name":"distribution","type":"tuple[]","internalType":"struct Gear.StakerRewards[]","components":[{"name":"vault","type":"address","internalType":"address"},{"name":"amount","type":"uint256","internalType":"uint256"}]},{"name":"totalAmount","type":"uint256","internalType":"uint256"},{"name":"token","type":"address","internalType":"address"}]},{"name":"timestamp","type":"uint48","internalType":"uint48"}]}]},{"name":"_signatureType","type":"uint8","internalType":"enum Gear.SignatureType"},{"name":"_signatures","type":"bytes[]","internalType":"bytes[]"}],"outputs":[],"stateMutability":"nonpayable"},{"type":"function","name":"commitValidators","inputs":[{"name":"_validatorsCommitment","type":"tuple","internalType":"struct Gear.ValidatorsCommitment","components":[{"name":"aggregatedPublicKey","type":"tuple","internalType":"struct Gear.AggregatedPublicKey","components":[{"name":"x","type":"uint256","internalType":"uint256"},{"name":"y","type":"uint256","internalType":"uint256"}]},{"name":"verifiableSecretSharingCommitment","type":"bytes","internalType":"bytes"},{"name":"validators","type":"address[]","internalType":"address[]"},{"name":"eraIndex","type":"uint256","internalType":"uint256"}]},{"name":"_signatureType","type":"uint8","internalType":"enum Gear.SignatureType"},{"name":"_signatures","type":"bytes[]","internalType":"bytes[]"}],"outputs":[],"stateMutability":"nonpayable"},{"type":"function","name":"computeSettings","inputs":[],"outputs":[{"name":"","type":"tuple","internalType":"struct Gear.ComputationSettings","components":[{"name":"threshold","type":"uint64","internalType":"uint64"},{"name":"wvaraPerSecond","type":"uint128","internalType":"uint128"}]}],"stateMutability":"view"},{"type":"function","name":"createProgram","inputs":[{"name":"_codeId","type":"bytes32","internalType":"bytes32"},{"name":"_salt","type":"bytes32","internalType":"bytes32"},{"name":"_overrideInitializer","type":"address","internalType":"address"}],"outputs":[{"name":"","type":"address","internalType":"address"}],"stateMutability":"nonpayable"},{"type":"function","name":"createProgramWithAbiInterface","inputs":[{"name":"_codeId","type":"bytes32","internalType":"bytes32"},{"name":"_salt","type":"bytes32","internalType":"bytes32"},{"name":"_overrideInitializer","type":"address","internalType":"address"},{"name":"_abiInterface","type":"address","internalType":"address"}],"outputs":[{"name":"","type":"address","internalType":"address"}],"stateMutability":"nonpayable"},{"type":"function","name":"genesisBlockHash","inputs":[],"outputs":[{"name":"","type":"bytes32","internalType":"bytes32"}],"stateMutability":"view"},{"type":"function","name":"genesisTimestamp","inputs":[],"outputs":[{"name":"","type":"uint48","internalType":"uint48"}],"stateMutability":"view"},{"type":"function","name":"initialize","inputs":[{"name":"_owner","type":"address","internalType":"address"},{"name":"_mirror","type":"address","internalType":"address"},{"name":"_wrappedVara","type":"address","internalType":"address"},{"name":"_middleware","type":"address","internalType":"address"},{"name":"_eraDuration","type":"uint256","internalType":"uint256"},{"name":"_electionDuration","type":"uint256","internalType":"uint256"},{"name":"_validationDelay","type":"uint256","internalType":"uint256"},{"name":"_aggregatedPublicKey","type":"tuple","internalType":"struct Gear.AggregatedPublicKey","components":[{"name":"x","type":"uint256","internalType":"uint256"},{"name":"y","type":"uint256","internalType":"uint256"}]},{"name":"_verifiableSecretSharingCommitment","type":"bytes","internalType":"bytes"},{"name":"_validators","type":"address[]","internalType":"address[]"}],"outputs":[],"stateMutability":"nonpayable"},{"type":"function","name":"isValidator","inputs":[{"name":"_validator","type":"address","internalType":"address"}],"outputs":[{"name":"","type":"bool","internalType":"bool"}],"stateMutability":"view"},{"type":"function","name":"latestCommittedBlockHash","inputs":[],"outputs":[{"name":"","type":"bytes32","internalType":"bytes32"}],"stateMutability":"view"},{"type":"function","name":"lookupGenesisHash","inputs":[],"outputs":[],"stateMutability":"nonpayable"},{"type":"function","name":"mirrorImpl","inputs":[],"outputs":[{"name":"","type":"address","internalType":"address"}],"stateMutability":"view"},{"type":"function","name":"owner","inputs":[],"outputs":[{"name":"","type":"address","internalType":"address"}],"stateMutability":"view"},{"type":"function","name":"programCodeId","inputs":[{"name":"_programId","type":"address","internalType":"address"}],"outputs":[{"name":"","type":"bytes32","internalType":"bytes32"}],"stateMutability":"view"},{"type":"function","name":"programsCodeIds","inputs":[{"name":"_programsIds","type":"address[]","internalType":"address[]"}],"outputs":[{"name":"","type":"bytes32[]","internalType":"bytes32[]"}],"stateMutability":"view"},{"type":"function","name":"programsCount","inputs":[],"outputs":[{"name":"","type":"uint256","internalType":"uint256"}],"stateMutability":"view"},{"type":"function","name":"reinitialize","inputs":[],"outputs":[],"stateMutability":"nonpayable"},{"type":"function","name":"renounceOwnership","inputs":[],"outputs":[],"stateMutability":"nonpayable"},{"type":"function","name":"requestCodeValidation","inputs":[{"name":"_codeId","type":"bytes32","internalType":"bytes32"}],"outputs":[],"stateMutability":"nonpayable"},{"type":"function","name":"setMirror","inputs":[{"name":"newMirror","type":"address","internalType":"address"}],"outputs":[],"stateMutability":"nonpayable"},{"type":"function","name":"signingThresholdPercentage","inputs":[],"outputs":[{"name":"","type":"uint16","internalType":"uint16"}],"stateMutability":"view"},{"type":"function","name":"timelines","inputs":[],"outputs":[{"name":"","type":"tuple","internalType":"struct Gear.Timelines","components":[{"name":"era","type":"uint256","internalType":"uint256"},{"name":"election","type":"uint256","internalType":"uint256"},{"name":"validationDelay","type":"uint256","internalType":"uint256"}]}],"stateMutability":"view"},{"type":"function","name":"transferOwnership","inputs":[{"name":"newOwner","type":"address","internalType":"address"}],"outputs":[],"stateMutability":"nonpayable"},{"type":"function","name":"validatedCodesCount","inputs":[],"outputs":[{"name":"","type":"uint256","internalType":"uint256"}],"stateMutability":"view"},{"type":"function","name":"validators","inputs":[],"outputs":[{"name":"","type":"address[]","internalType":"address[]"}],"stateMutability":"view"},{"type":"function","name":"validatorsAggregatedPublicKey","inputs":[],"outputs":[{"name":"","type":"tuple","internalType":"struct Gear.AggregatedPublicKey","components":[{"name":"x","type":"uint256","internalType":"uint256"},{"name":"y","type":"uint256","internalType":"uint256"}]}],"stateMutability":"view"},{"type":"function","name":"validatorsCount","inputs":[],"outputs":[{"name":"","type":"uint256","internalType":"uint256"}],"stateMutability":"view"},{"type":"function","name":"validatorsThreshold","inputs":[],"outputs":[{"name":"","type":"uint256","internalType":"uint256"}],"stateMutability":"view"},{"type":"function","name":"validatorsVerifiableSecretSharingCommitment","inputs":[],"outputs":[{"name":"","type":"bytes","internalType":"bytes"}],"stateMutability":"view"},{"type":"function","name":"wrappedVara","inputs":[],"outputs":[{"name":"","type":"address","internalType":"address"}],"stateMutability":"view"},{"type":"event","name":"BlockCommitted","inputs":[{"name":"hash","type":"bytes32","indexed":false,"internalType":"bytes32"}],"anonymous":false},{"type":"event","name":"CodeGotValidated","inputs":[{"name":"codeId","type":"bytes32","indexed":false,"internalType":"bytes32"},{"name":"valid","type":"bool","indexed":true,"internalType":"bool"}],"anonymous":false},{"type":"event","name":"CodeValidationRequested","inputs":[{"name":"codeId","type":"bytes32","indexed":false,"internalType":"bytes32"}],"anonymous":false},{"type":"event","name":"ComputationSettingsChanged","inputs":[{"name":"threshold","type":"uint64","indexed":false,"internalType":"uint64"},{"name":"wvaraPerSecond","type":"uint128","indexed":false,"internalType":"uint128"}],"anonymous":false},{"type":"event","name":"Initialized","inputs":[{"name":"version","type":"uint64","indexed":false,"internalType":"uint64"}],"anonymous":false},{"type":"event","name":"NextEraValidatorsCommitted","inputs":[{"name":"startTimestamp","type":"uint256","indexed":false,"internalType":"uint256"}],"anonymous":false},{"type":"event","name":"OwnershipTransferred","inputs":[{"name":"previousOwner","type":"address","indexed":true,"internalType":"address"},{"name":"newOwner","type":"address","indexed":true,"internalType":"address"}],"anonymous":false},{"type":"event","name":"ProgramCreated","inputs":[{"name":"actorId","type":"address","indexed":false,"internalType":"address"},{"name":"codeId","type":"bytes32","indexed":true,"internalType":"bytes32"}],"anonymous":false},{"type":"event","name":"StorageSlotChanged","inputs":[],"anonymous":false},{"type":"error","name":"ECDSAInvalidSignature","inputs":[]},{"type":"error","name":"ECDSAInvalidSignatureLength","inputs":[{"name":"length","type":"uint256","internalType":"uint256"}]},{"type":"error","name":"ECDSAInvalidSignatureS","inputs":[{"name":"s","type":"bytes32","internalType":"bytes32"}]},{"type":"error","name":"InvalidInitialization","inputs":[]},{"type":"error","name":"NotInitializing","inputs":[]},{"type":"error","name":"OwnableInvalidOwner","inputs":[{"name":"owner","type":"address","internalType":"address"}]},{"type":"error","name":"OwnableUnauthorizedAccount","inputs":[{"name":"account","type":"address","internalType":"address"}]},{"type":"error","name":"ReentrancyGuardReentrantCall","inputs":[]}],"bytecode":{"object":"0x6080806040523460aa575f5160206145ee5f395f51905f525460ff8160401c16609b576002600160401b03196001600160401b038216016049575b60405161453f90816100af8239f35b6001600160401b0319166001600160401b039081175f5160206145ee5f395f51905f525581527fc7f505b2f371ae2175ee4913f4499e1f2633a7b5936321eed1cdaeb6115181d290602090a15f80603a565b63f92ee8a960e01b5f5260045ffd5b5f80fdfe610200806040526004361015610013575f80fd5b5f610180525f3560e01c9081627a32e7146132e9575080630c18d27714612de2578063120e3f1e14612c5757806328e24b3d14612c275780633683c4d2146129b35780633bd109fa146129625780633d43b4181461290b57806353f7fd48146123a95780636c2eb3501461208c578063715018a61461201a57806382bdeaad14611f0957806384d22a4f14611e9e57806388f50cf014611e635780638b1edf1e14611d925780638da5cb5b14611d5b5780638f381dbe14611d165780639067088e14611cce57806396a2ddfa14611c9e5780639eb939a814611c30578063a5d53a4414611bbc578063aa54494a14611783578063baaf020114611682578063c13911e814611638578063c9f16a1114611608578063ca1e781914611581578063cacf66ab14611547578063e6fabc091461150c578063ed612f8c146114d2578063edc8722514611486578063efd81abc14611452578063f2fde38b14611422578063facd743b146113cb5763fc491f5d1461018c575f80fd5b34610850576060366003190112610850576004356001600160401b03811161085057606060031982360301126108505760026024351015610850576044356001600160401b038111610850576101e6903690600401613369565b91907f9b779b17422d0df92223018b32b4d1fa46e071723d6817e2486d003becc55f005c6113b65760017f9b779b17422d0df92223018b32b4d1fa46e071723d6817e2486d003becc55f005d5f5160206144ff5f395f51905f525461014052610257600161014051015415156134c1565b6102646004830180613762565b9050158061139d575b611358579161029060016102876044850185600401613797565b905011156137cc565b61018051610100819052606060805260e0525b6102b36024830183600401613797565b905060e0511015610b9a576102ce6024830183600401613797565b9060c05260e0511015610b805760e05160051b60c051013560a052609e1960c05136030160a0511215610850576003610140510154604060a05160c05101013503610b2d57610140515415610ac2575b60206103318160a05160c051010161386a565b65ffffffffffff60405191610345836133d5565b60a05160c0510135835216918291015260a05160c0510135600361014051015565ffffffffffff19600461014051015416176004610140510155610398608060a05160c051010160a05160c05101613797565b6101c05261016052610180519160605b6101c0518410156109af5761018051508360051b6101605101356101e05260de19610160513603016101e0511215610850576103eb6101e0516101605101613633565b6001600160a01b03165f90815261014051601a01602052604090205415610952576001600160801b0361042860806101e0516101605101016141ac565b166108a1575b6101e051610160516001600160a01b03916104499101613633565b166040516101a0526302c649c960e01b6101a05152602060046101a051015260018060a01b036104806101e0516101605101613355565b1660246101a051015260206101e0516101605101013560446101a05101526104b260406101e051610160510101613898565b151560646101a051015260018060a01b036104d760606101e051610160510101613355565b1660846101a05101526001600160801b036104fc60806101e0516101605101016141c0565b1660a46101a051015260a06101e05161016051010135601e196101e0516101605101360301811215610850576101e051610160510101906001600160401b03823511610850576060823502360360208301136108505760e060c46101a05101526101046101a051505081356101046101a05101526101246101a0510191602081019061018051905b803582106108575750506101e051610160510160c08101359391503603601e1901831215610850576001600160401b036101e051610160510184013511610850576101e05161016051018301803560051b360360209091011361085057906023196101a05183030160e46101a05101526101e051610160510183013582526020820160206101e051610160510185013560051b8401019260206101e05161016051018601019461018051915b6101e051610160510182013583106106d15750505050602092506101a051916101a0519003906101a0519061018051905af180156106c3576101805190610686575b61067e9060019261383d565b9301926103a8565b5060203d81116106bc575b806106a16020926101a0516133f0565b6101a05190810103126106b8576101a05151610672565b5f80fd5b503d610691565b6040513d61018051823e3d90fd5b9091929394601f19828203018552863560fe196101e051610160510185013603018112156108505760206101e0516101605101850182010135825260018060a01b0361072b60406101e05161016051018701840101613355565b1660208301526101e05161016051606091018501820190810135903603603e1901811215610850576101e05161016051018501820101602001906001600160401b03823511610850578135360360208301136108505760e06040840152813560e0840152813560208301610100850137610180516101008335850101526001600160801b036107c860806101e051610160510188018401016141c0565b16606084015260a06101e0516101605101860182010135608084015260c06101e051610160510186018201013563ffffffff60e01b8116809103610850578360209361082e60e086956101009560a060019a01526101e05161016051018b010101613898565b151560c0830152601f8019913501160101980195019301919095949395610630565b6101805180fd5b90919360608060019287358152838060a01b0361087660208a01613355565b1660208201526001600160801b0361089060408a016141c0565b166040820152019501920190610584565b6001600160801b03602060018060a01b0360066101405101541660446108ce6101e0516101605101613633565b6108e260806101e0516101605101016141ac565b60405163a9059cbb60e01b81526001600160a01b0390921660048301529490941660248501526101805184928391905af180156106c357610924575b5061042e565b6109449060203d811161094b575b61093c81836133f0565b810190613c22565b505f61091e565b503d610932565b60405162461bcd60e51b815260206004820152602f60248201527f636f756c646e277420706572666f726d207472616e736974696f6e20666f722060448201526e756e6b6e6f776e2070726f6772616d60881b6064820152608490fd5b610a69919350939193602081519101207fd756eca21e02cb0dbde1e44a4d9c6921b5c8aa4668cfa0752784b3dc855bce1e602060405160a05160c05101358152a1610a02602060a05160c051010161386a565b9060405190602082019260a05160c0510135845265ffffffffffff60d01b9060d01b166040830152604060a05160c0510101356046830152606060a05160c0510101356066830152608682015260868152610a5e60a6826133f0565b51902060805161383d565b6080526101005165ffffffffffff610a89602060a05160c051010161386a565b1611610a9f575b600160e0510160e052916102a3565b65ffffffffffff610ab8602060a05160c051010161386a565b1661010052610a90565b610ad5606060a05160c05101013561416f565b61031e5760405162461bcd60e51b815260206004820152602660248201527f616c6c6f776564207072656465636573736f7220626c6f636b207761736e277460448201526508199bdd5b9960d21b6064820152608490fd5b60405162461bcd60e51b815260206004820152602560248201527f696e76616c69642070726576696f757320636f6d6d697474656420626c6f636b604482015264040d0c2e6d60db1b6064820152608490fd5b634e487b7160e01b61018051526032600452602461018051fd5b610180516060939291905b610bb26004840180613762565b9050811015610e2057610bc86004840180613762565b8291921015610b80576060810282013561018051526019610140510160205260ff6040610180512054166003811015610e0657600103610da357610c1360406060830284010161387d565b15610d795761018080516060830284013590526101405160198101602052905160409020805460ff19166002179055601c018054610c509061388a565b90555b610c6460406060830284010161387d565b15157f460119a8f69a33ed127de517d5ea464e958ce23ef19e4420a8b92bf780bbc2c96020604051606085028601358152a26060808202830136031261085057604051610cb0816133a6565b606082028301803582526020019687359365ffffffffffff8516850361085057846040846001976020610d3b970152610cef8260608902860101613898565b9182910152604051916020830193606088020135845265ffffffffffff60d01b9060d01b166040830152151560f81b604682015260278152610d326047826133f0565b5190209061383d565b956101005165ffffffffffff610d508361386a565b1611610d5e575b5001610ba5565b610d6e65ffffffffffff9161386a565b16610100525f610d57565b606081028201356101805152601961014051016020526040610180512060ff198154169055610c53565b60405162461bcd60e51b815260206004820152603560248201527f636f6465206d7573742062652072657175657374656420666f722076616c6964604482015274185d1a5bdb881d1bc818994818dbdb5b5a5d1d1959605a1b6064820152608490fd5b634e487b7160e01b61018051526021600452602461018051fd5b50606093929091610e376044820160048301613797565b9050610f0e575b50610e979360805151602060805101209360208151910120906020815191012060405191602083019586526040830152606082015260608152610e826080826133f0565b61010051936024359151902061014051613c3a565b15610ec957610180517f9b779b17422d0df92223018b32b4d1fa46e071723d6817e2486d003becc55f005d6101805180f35b60405162461bcd60e51b815260206004820152601e60248201527f7369676e61747572657320766572696669636174696f6e206661696c656400006044820152606490fd5b80610f2f6001610f276044610f3c950184600401613797565b9050146137cc565b6044810190600401613797565b15610b80578035607e19823603018112156108505785818301019165ffffffffffff610f678461386a565b161561130757610f768361386a565b65ffffffffffff42911610156112a9576101405160078101546006909101548383018035946001600160a01b03938416949390921690602090610fcb908290610fc3906040810190613c0d565b0135876136d1565b60446040518094819363095ea7b360e01b8352896004840152602483015261018051905af180156106c35761128c575b5060018060a01b03600661014051015416936040519463394f179b60e11b86526004860152602485015260208183010135604485015260208460648161018051875af19384156106c3576101805194611254575b5061105f91016040810190613c0d565b906110698461386a565b60408051610120818152637fbe95b560e01b9091525160040152823536849003601e19018112156108505783019260208401936001600160401b0381351161085057803560061b36038513610850578a604461012051015260a4610120515050803560a461012051015260c461012051019490610180515b81358110611224575050506020939291818565ffffffffffff9301356064610120510152611118604060018060a01b039201613355565b166084610120510152166024610120510152610120519161012051900390610120519061018051905af180156106c35761018051906111ea575b610e979661115f8461386a565b6040519260208401948552604084015265ffffffffffff60d01b9060d01b1690820152604681526111916066826133f0565b519020604051906020820152602081526111ac6040826133f0565b906101005165ffffffffffff6111c18361386a565b16116111cf575b5093610e3e565b6111df65ffffffffffff9161386a565b16610100525f6111c8565b5060203d60201161121d575b80611206602092610120516133f0565b6101205190810103126106b8576101205151611152565b503d6111f6565b909195604080600192838060a01b0361123c8b613355565b16815260208a810135908201520197019291016110e1565b919093506020823d602011611284575b81611271602093836133f0565b810103126106b85790519261105f61104f565b3d9150611264565b6112a49060203d60201161094b5761093c81836133f0565b610ffb565b60405162461bcd60e51b815260206004820152603060248201527f7265776172647320636f6d6d69746d656e742074696d657374616d70206d757360448201526f1d081899481a5b881d1a19481c185cdd60821b6064820152608490fd5b60405162461bcd60e51b8152602060048201526024808201527f7265776172647320636f6d6d69746d656e742074696d657374616d70206973206044820152637a65726f60e01b6064820152608490fd5b60405162461bcd60e51b815260206004820152601860248201527f6e6f20636f6d6d69746d656e747320746f20636f6d6d697400000000000000006044820152606490fd5b506113ae6024830183600401613797565b90501561026d565b633ee5aeb560e01b6101805152600461018051fd5b34610850576020366003190112610850576113e461333f565b60036113ff5f5160206144ff5f395f51905f5254429061403f565b019060018060a01b03165f52602052602060ff60405f2054166040519015158152f35b346108505760203660031901126108505761144b61143e61333f565b6114466138a5565b6136f1565b6101805180f35b34610850576101805136600319011261085057602061ffff60085f5160206144ff5f395f51905f5254015416604051908152f35b3461085057610180513660031901126108505760206114ca5f5160206144ff5f395f51905f525461ffff600860046114be428561403f565b01549201541690613beb565b604051908152f35b34610850576101805136600319011261085057602060046115025f5160206144ff5f395f51905f5254429061403f565b0154604051908152f35b346108505761018051366003190112610850575f5160206144ff5f395f51905f5254600501546040516001600160a01b039091168152602090f35b34610850576101805136600319011261085057602065ffffffffffff60025f5160206144ff5f395f51905f52540154821c16604051908152f35b346108505761018051366003190112610850576115b860046115b25f5160206144ff5f395f51905f5254429061403f565b016135a8565b604051809160208201602083528151809152602060408401920190610180515b8181106115e6575050500390f35b82516001600160a01b03168452859450602093840193909201916001016115d8565b34610850576101805136600319011261085057602060035f5160206144ff5f395f51905f52540154604051908152f35b346108505760203660031901126108505760195f5160206144ff5f395f51905f5254016004356101805152602052602060ff6040610180512054166116806040518092613399565bf35b34610850576020366003190112610850576004356001600160401b038111610850576116b2903690600401613369565b5f5160206144ff5f395f51905f5254916116cb82613456565b926116d960405194856133f0565b8284526116e583613456565b602085019390601f1901368537601a610180519201915b81811061174a57848660405191829160208301906020845251809152604083019190610180515b818110611731575050500390f35b8251845285945060209384019390920191600101611723565b8061176061175b60019385886135fb565b613633565b828060a01b03165f528360205260405f205461177c828961361f565b52016116fc565b34610850576060366003190112610850576004356001600160401b038111610850576003198136030160a08112610850576040519060808201908282106001600160401b03831117611ba257604091825212610850576040516117e5816133d5565b8260040135815260248301356020820152815260448201356001600160401b038111610850578201366023820112156108505761182c903690602460048201359101613411565b6020820190815260648301356001600160401b038111610850578301366023820112156108505761186790369060246004820135910161346d565b9060408301918252608460608401940135845260026024351015610850576044356001600160401b038111610850576118a4903690600401613369565b9190935f5160206144ff5f395f51905f52546118c5600182015415156134c1565b65ffffffffffff600282015460201c166118df8142613569565b906118ef6016840154809361358a565b895160018201809211611b885703611b3057611910611916928a51906136de565b906136d1565b93611925601783015486613569565b4210611aeb5761193482613bd0565b964260058901541015611a8b5783516020815191015188519a51604051916020830193845260408301526060820160208d51919d0190610180515b818110611a6c575050506020828d611996936119c39a9b9c9d9e9f520380845201826133f0565b519020926040519060208201948552602082526119b46040836133f0565b42946024359251902090613c3a565b15611a0c577f41e7f919bf726af8aa2ef36bd31905a693013e30c45c6284060e613d4941997b946020946119fe93859351905191519261390d565b604051908152a16101805180f35b60405162461bcd60e51b815260206004820152603260248201527f6e657874206572612076616c696461746f7273207369676e6174757265732076604482015271195c9a599a58d85d1a5bdb8819985a5b195960721b6064820152608490fd5b82516001600160a01b03168f5260209e8f019e9092019160010161196f565b60405162461bcd60e51b815260206004820152603260248201527f6c6f6f6b73206c696b652076616c696461746f727320666f72206e65787420656044820152711c9848185c9948185b1c9958591e481cd95d60721b6064820152608490fd5b60405162461bcd60e51b815260206004820152601b60248201527f656c656374696f6e206973206e6f7420796574207374617274656400000000006044820152606490fd5b60405162461bcd60e51b815260206004820152602a60248201527f636f6d6d69746d656e742065726120696e646578206973206e6f74206e657874604482015269040cae4c240d2dcc8caf60b31b6064820152608490fd5b634e487b7160e01b61018051526011600452602461018051fd5b634e487b7160e01b61018051526041600452602461018051fd5b3461085057610180513660031901126108505760206040611c015f5160206144ff5f395f51905f52546002611bf960018060a01b0392429061403f565b015416613ba1565b815192839181835280519182918282860152018484015e61018051828201840152601f01601f19168101030190f35b34610850576101805136600319011261085057611c4b6136b3565b5060605f5160206144ff5f395f51905f5254604051611c69816133a6565b601682015491828252604060186017830154926020850193845201549201918252604051928352516020830152516040820152f35b346108505761018051366003190112610850576020601b5f5160206144ff5f395f51905f52540154604051908152f35b3461085057602036600319011261085057611ce761333f565b601a5f5160206144ff5f395f51905f5254019060018060a01b03165f52602052602060405f2054604051908152f35b34610850576020366003190112610850576004356001600160401b03811161085057611d51611d4b6020923690600401613369565b90613647565b6040519015158152f35b346108505761018051366003190112610850575f5160206144df5f395f51905f52546040516001600160a01b039091168152602090f35b346108505761018051366003190112610850575f5160206144ff5f395f51905f525460018101908154611e1e576002015463ffffffff1640908115611dd957556101805180f35b60405162461bcd60e51b815260206004820152601d60248201527f756e61626c6520746f206c6f6f6b75702067656e6573697320686173680000006044820152606490fd5b60405162461bcd60e51b815260206004820152601860248201527f67656e65736973206861736820616c72656164792073657400000000000000006044820152606490fd5b346108505761018051366003190112610850575f5160206144ff5f395f51905f5254600601546040516001600160a01b039091168152602090f35b34610850576101805136600319011261085057611eb9613533565b50604060155f5160206144ff5f395f51905f5254016001600160801b03825191611ee2836133d5565b548160206001600160401b038316948581520191851c168152835192835251166020820152f35b34610850576020366003190112610850576004356001600160401b03811161085057611f39903690600401613369565b5f5160206144ff5f395f51905f525491611f5282613456565b92611f6060405194856133f0565b828452611f6c83613456565b602085019390601f19013685376019610180519201915b818110611fdb57848660405191829160208301906020845251809152604083019190610180515b818110611fb8575050500390f35b9193509160208082611fcd6001948851613399565b019401910191849392611faa565b611fe68183866135fb565b3561018051528260205260ff60406101805120541690612006818861361f565b916003811015610e06576001925201611f83565b346108505761018051366003190112610850576120356138a5565b5f5160206144df5f395f51905f5280546001600160a01b0319811690915561018051906001600160a01b03167f8be0079c531659141344cd1fd0a4f28419497f9722a3daafe3b4186f6b6457e08280a36101805180f35b346108505761018051366003190112610850576120a76138a5565b5f51602061451f5f395f51905f525460ff8160401c16908115612394575b5061237f575f51602061451f5f395f51905f52805468ffffffffffffffffff1916680100000000000000021790555f5160206144ff5f395f51905f52546040805161211082826133f0565b6017815260208101907f726f757465722e73746f726167652e526f75746572563200000000000000000082526121446138a5565b5190205f19810191908211611b88577fc7f505b2f371ae2175ee4913f4499e1f2633a7b5936321eed1cdaeb6115181d29260209282519084820190815284825261218e84836133f0565b60ff19915190201690815f5160206144ff5f395f51905f52556121af6138d8565b80516001840155600283019063ffffffff868201511669ffffffffffff00000000868454930151881b169169ffffffffffffffffffff191617179055600581016005830190808203612331575b505061ffff600882015416600883019061ffff19825416179055612265612223428361403f565b61223a6001600160a01b036002611bf9428761403f565b6122506004612249428761403f565b019261354b565b9061225b42936135a8565b916009870161390d565b6015810160158301908082036122df575b50506016810160168301918183036122bf575b5050505060ff60401b195f51602061451f5f395f51905f5254165f51602061451f5f395f51905f52555160028152a16101805180f35b601892839254905560178101546017850155015491015583808080612289565b806001600160401b03806001600160801b03935416166001600160401b031984541617835554851c16600160401b600160c01b03825491861b1690600160401b600160c01b0319161790558580612276565b5481546001600160a01b03199081166001600160a01b0392831617909255600683810154908501805484169183169190911790556007808401549085018054909316911617905585806121fc565b63f92ee8a960e01b6101805152600461018051fd5b600291506001600160401b03161015816120c5565b3461085057610160366003190112610850576123c361333f565b6024356001600160a01b0381169190829003610850576123e1613313565b916123ea613329565b9260c43591608435919060a43560403660e31901126108505761012435946001600160401b0386116108505736602387011215610850578560040135916001600160401b03831161085057366024848901011161085057610144356001600160401b03811161085057612461903690600401613369565b9690945f51602061451f5f395f51905f5254996001600160401b0360ff8c60401c16159b1680159081612903575b60011490816128f9575b1590816128f0575b5061237f576124eb908b60016001600160401b03195f51602061451f5f395f51905f525416175f51602061451f5f395f51905f52556128c0575b6124e361405b565b61144661405b565b6124f361405b565b421561286a57821561281457828211156127b357600a6125138484613569565b0484101561276e5760409a8b5161252a8d826133f0565b6017815260208101907f726f757465722e73746f726167652e526f757465725631000000000000000000825261255e6138a5565b5190205f19810192908311611b88578c51602080820194855281528d9361258585836133f0565b60ff19915190201698895f5160206144ff5f395f51905f52556125a66138d8565b805160018c015560028b0190602081015163ffffffff1686835492015160201b69ffffffffffff00000000169169ffffffffffffffffffff1916171790558351906125f0826133a6565b8282526001600160a01b03908116602083018190529381169490910184905260058a018054919092166001600160a01b0319918216179091556006890180548216909217909155600788018054909116909117905560088601805461ffff1916611a0a17905561265e613533565b50895161266a816133d5565b639502f90081526509184e72a0006020909101526015860180546001600160c01b0319166d09184e72a000000000009502f900179055895183908b906126af816133a6565b8381526020810185905201526016860155601785015560188401558651946126d6866133d5565b60e43586526101043560208701526126f2913691602401613411565b90429336906127009261346d565b916009019361270e9461390d565b612719576101805180f35b60207fc7f505b2f371ae2175ee4913f4499e1f2633a7b5936321eed1cdaeb6115181d29160ff60401b195f51602061451f5f395f51905f5254165f51602061451f5f395f51905f52555160018152a18061144b565b60405162461bcd60e51b815260206004820152601b60248201527f76616c69646174696f6e2064656c617920697320746f6f2062696700000000006044820152606490fd5b60405162461bcd60e51b815260206004820152603360248201527f657261206475726174696f6e206d757374206265206772656174657220746861604482015272371032b632b1ba34b7b710323ab930ba34b7b760691b6064820152608490fd5b60405162461bcd60e51b815260206004820152602860248201527f656c656374696f6e206475726174696f6e206d75737420626520677265617465604482015267072207468616e20360c41b6064820152608490fd5b60405162461bcd60e51b815260206004820152602860248201527f63757272656e742074696d657374616d70206d75737420626520677265617465604482015267072207468616e20360c41b6064820152608490fd5b600160401b60ff60401b195f51602061451f5f395f51905f525416175f51602061451f5f395f51905f52556124db565b9050158d6124a1565b303b159150612499565b8c915061248f565b346108505760203660031901126108505761292461333f565b61292c6138a5565b5f5160206144ff5f395f51905f525460050180546001600160a01b0319166001600160a01b039092169190911790556101805180f35b3461085057610180513660031901126108505761297d613533565b5060406129a161299c5f5160206144ff5f395f51905f5254429061403f565b61354b565b60208251918051835201516020820152f35b34610850576060366003190112610850576004356129cf613313565b5f5160206144ff5f395f51905f525460018101546129ee9015156134c1565b8261018051526019810160205260ff6040610180512054166003811015610e0657600203612bcb576040516020810190848252602435604082015260408152612a386060826133f0565b51902060405160608101906001600160401b0382118183101761085057605a916040527f3d605080600a3d3981f3608060405263e6fabc0960e01b5f5260205f6004817381523060601b6b5afa15604c575f80805136821760208201527f80378136915af43d5f803e156048573d5ff35b3d5ffd5b5f80fd000000000000604082015261018051f5908115610850576001600160a01b0382165f908152601a820160205260409020849055601b018054612af19061388a565b90556040516001600160a01b03821680825293907f8008ec1d8798725ebfa0f2d128d52e8e717dcba6e0f786557eeee70614b02bf190602090a2506001600160a01b038116612bc65750335b5f5160206144ff5f395f51905f5254600501546001600160a01b0316823b1561085057604051631c9776b560e31b81526001600160a01b039092166004830152602482015260016044820152610180518160648183865af180156106c357612bab575b602082604051908152f35b61018051612bb8916133f0565b610180516108505781612ba0565b612b3d565b60405162461bcd60e51b815260206004820152602e60248201527f636f6465206d7573742062652076616c696461746564206265666f726520707260448201526d37b3b930b69031b932b0ba34b7b760911b6064820152608490fd5b34610850576101805136600319011261085057602060015f5160206144ff5f395f51905f52540154604051908152f35b3461085057602036600319011261085057600435610180514915612d665760195f5160206144ff5f395f51905f5254612c95600182015415156134c1565b018161018051528060205260ff6040610180512054166003811015610e0657612d05576101808051839052602091825251604090819020805460ff19166001179055519182527f5c261a095dd5720475295dc06379921c003c22164ee6cae5cf83e76ce0a1b98591a16101805180f35b60405162461bcd60e51b815260206004820152603360248201527f676976656e20636f646520696420697320616c7265616479206f6e2076616c6960448201527219185d1a5bdb881bdc881d985b1a59185d1959606a1b6064820152608490fd5b60405162461bcd60e51b815260206004820152604860248201527f626c6f622063616e277420626520666f756e642c20726f75746572206578706560448201527f63746564204549502d34383434207472616e73616374696f6e2077697468205760648201526720a9a690313637b160c11b608482015260a490fd5b346106b85760803660031901126106b857600435612dfe613313565b90612e07613329565b915f5160206144ff5f395f51905f5254612e26600182015415156134c1565b825f526019810160205260ff60405f20541660038110156132d557600203612bcb576040516020810190848252602435604082015260408152612e6a6060826133f0565b5190206040516102c08101908082106001600160401b038311176106b8576102b4916040527f6080806040526102b290816100128239f3fe608060405260043610610268575f81527f3560e01c806329336f391461009b5780632a68e35d1461009657806336a52a1860208201527f14610091578063701da98e1461008c578063704ed5421461008757806391d5a660408201527f4c146100825780639ce110d71461007d578063affed0e0146100785763e43f3460608201527f330361026857610253565b610236565b61020e565b6101f8565b6101df565b6160808201527f01c2565b61019b565b610150565b346100dc5760603660031901126100dc576060a08201527f243567ffffffffffffffff81116100dc576100cc9036906004016100e0565b5060c08201527f506100d661010e565b50610268565b5f80fd5b9181601f840112156100dc578260e08201527f359167ffffffffffffffff83116100dc57602083818601950101116100dc57566101008201527f5b604435906001600160801b03821682036100dc57565b6024359060016001606101208201527f801b03821682036100dc57565b600435906001600160801b03821682036100dc6101408201527f57565b346100dc5760603660031901126100dc5760043567ffffffffffffffff6101608201527f81116100dc576101819036906004016100e0565b505061018b610124565b50606101808201527f443580151514610268575f80fd5b346100dc575f3660031901126100dc575f546101a08201527f6040516001600160a01b039091168152602090f35b346100dc575f36600319016101c08201527f126100dc576020600254604051908152f35b346100dc576020366003190112616101e08201527edc576100d661013a565b346100dc57602036600319011215610268575f80fd6102008201527f5b346100dc575f3660031901126100dc576001546040516001600160a01b03906102208201527f91168152602090f35b346100dc575f3660031901126100dc57602060035460406102408201527f51908152f35b346100dc575f36600319011215610268575f80fd5b63e6fabc09610260820152306b60e01b5f5260205f6004817360a01b176102808201527f5afa156100dc575f808051368280378136915af43d5f803e156102ae573d5ff36102a0820152635b3d5ffd60e01b6102b08201525ff59081156106b8576001600160a01b0382165f908152601a820160205260409020849055601b01805461320f9061388a565b90556040516001600160a01b03821680825293907f8008ec1d8798725ebfa0f2d128d52e8e717dcba6e0f786557eeee70614b02bf190602090a2506001600160a01b0381166132cf575033915b813b156106b857604051631c9776b560e31b81526001600160a01b039384166004820152921660248301525f604483018190528260648183855af19182156132c4576020926132af575b50604051908152f35b5f6132b9916133f0565b5f61018052826132a6565b6040513d5f823e3d90fd5b9161325c565b634e487b7160e01b5f52602160045260245ffd5b346106b8575f3660031901126106b857602090601c5f5160206144ff5f395f51905f525401548152f35b604435906001600160a01b03821682036106b857565b606435906001600160a01b03821682036106b857565b600435906001600160a01b03821682036106b857565b35906001600160a01b03821682036106b857565b9181601f840112156106b8578235916001600160401b0383116106b8576020808501948460051b0101116106b857565b9060038210156132d55752565b606081019081106001600160401b038211176133c157604052565b634e487b7160e01b5f52604160045260245ffd5b604081019081106001600160401b038211176133c157604052565b90601f801991011681019081106001600160401b038211176133c157604052565b9291926001600160401b0382116133c1576040519161343a601f8201601f1916602001846133f0565b8294818452818301116106b8578281602093845f960137010152565b6001600160401b0381116133c15760051b60200190565b92919061347981613456565b9361348760405195866133f0565b602085838152019160051b81019283116106b857905b8282106134a957505050565b602080916134b684613355565b81520191019061349d565b156134c857565b60405162461bcd60e51b815260206004820152603860248201527f726f757465722067656e65736973206973207a65726f3b2063616c6c20606c6f60448201527f6f6b757047656e657369734861736828296020666972737400000000000000006064820152608490fd5b60405190613540826133d5565b5f6020838281520152565b90604051613558816133d5565b602060018294805484520154910152565b9190820391821161357657565b634e487b7160e01b5f52601160045260245ffd5b8115613594570490565b634e487b7160e01b5f52601260045260245ffd5b90604051918281549182825260208201905f5260205f20925f5b8181106135d95750506135d7925003836133f0565b565b84546001600160a01b03168352600194850194879450602090930192016135c2565b919081101561360b5760051b0190565b634e487b7160e01b5f52603260045260245ffd5b805182101561360b5760209160051b010190565b356001600160a01b03811681036106b85790565b6136605f5160206144ff5f395f51905f5254429061403f565b600301905f5b8381106136765750505050600190565b61368461175b8286856135fb565b6001600160a01b03165f9081526020849052604090205460ff16156136ab57600101613666565b505050505f90565b604051906136c0826133a6565b5f6040838281528260208201520152565b9190820180921161357657565b8181029291811591840414171561357657565b6001600160a01b0316801561374f575f5160206144df5f395f51905f5280546001600160a01b0319811683179091556001600160a01b03167f8be0079c531659141344cd1fd0a4f28419497f9722a3daafe3b4186f6b6457e05f80a3565b631e4fbdf760e01b5f525f60045260245ffd5b903590601e19813603018212156106b857018035906001600160401b0382116106b8576020019160608202360383136106b857565b903590601e19813603018212156106b857018035906001600160401b0382116106b857602001918160051b360383136106b857565b156137d357565b608460405162461bcd60e51b815260206004820152604060248201527f7265776172647320636f6d6d69746d656e74206d75737420626520656d70747960448201527f206f7220636f6e7461696e73206f6e6c79206f6e6520636f6d6d69746d656e746064820152fd5b6020806135d7928195946040519682889351918291018585015e82019083820152030180855201836133f0565b3565ffffffffffff811681036106b85790565b3580151581036106b85790565b5f1981146135765760010190565b359081151582036106b857565b5f5160206144df5f395f51905f52546001600160a01b031633036138c557565b63118cdaa760e01b5f523360045260245ffd5b6138e06136b3565b506040516138ed816133a6565b5f815263ffffffff4316602082015265ffffffffffff4216604082015290565b9291908051906020810191825170014551231950b75fc4402da1732fc9bebe1982109182613b90575b505015613b3c57518455516001840155604051906139796021836020808201945f86528051918291018484015e81015f838201520301601f1981018452836133f0565b6139b6602b604051809360208201956a600b5981380380925939f360a81b87525180918484015e81015f838201520301601f1981018352826133f0565b51905ff06001600160a01b03811615613b03576002830180546001600160a01b0319166001600160a01b039092169190911790555f5b600483018054821015613a2a575f90815260208082208301546001600160a01b0316825260038501905260409020805460ff191690556001016139ec565b5050925f5b8451811015613a73576001906001600160a01b03613a4d828861361f565b5116828060a01b03165f526003840160205260405f208260ff1982541617905501613a2f565b5092600482018151916001600160401b0383116133c157600160401b83116133c1578154838355808410613add575b50602001905f5260205f205f5b838110613ac0575050505060050155565b82516001600160a01b031681830155602090920191600101613aaf565b825f528360205f2091820191015b818110613af85750613aa2565b5f8155600101613aeb565b60405162461bcd60e51b81526020600482015260116024820152701111541313d65351539517d19052531151607a1b6044820152606490fd5b60405162461bcd60e51b815260206004820152602660248201527f46524f53542061676772656761746564207075626c6963206b657920697320696044820152651b9d985b1a5960d21b6064820152608490fd5b613b9a9250614439565b5f80613936565b803b905f198201908282116135765760019060405193603e601f19910116840160405282845260208401903c90565b613bda4282614086565b15613be55760090190565b600f0190565b61ffff613bf99216906136de565b61270f810180911161357657612710900490565b903590605e19813603018212156106b8570190565b908160209103126106b8575180151581036106b85790565b909493919365ffffffffffff600283015460201c16613c70613c7b613c75613c628442613569565b60168701549384809261358a565b6136de565b836136d1565b918284108080614029575b15613fb757508310613f7257613c9c90836136d1565b10613f2157613cac905b8261403f565b94601960f81b5f523060601b60025260165260365f209360028110156132d55780613de257505060018103613d9d571561360b57803590601e19813603018212156106b857018035906001600160401b0382116106b85760200181360381136106b857613d1a913691613411565b916060835103613d4857826020613d45940151606060408301519201519260018154910154906141d4565b90565b60405162461bcd60e51b815260206004820152602760248201527f46524f5354207369676e6174757265206c656e677468206d75737420626520396044820152663620627974657360c81b6064820152608490fd5b60405162461bcd60e51b815260206004820152601e60248201527f46524f5354207369676e6174757265206d7573742062652073696e676c6500006044820152606490fd5b919391600114613df55750505050505f90565b613e0f9061ffff6008600488979801549201541690613beb565b925f9260035f9201915b868110613e2b57505050505050505f90565b8681101561360b578060051b820135601e19833603018112156106b85782018035906001600160401b0382116106b85760200181360381136106b857613e8991613e8091613e7a913691613411565b8661439f565b909291926143d9565b6001600160a01b0381165f9081526020859052604090205460ff16613eb4575b506001905b01613e19565b6001600160a01b03165f9081527ff02b465737fa6045c2ff53fb2df43c66916ac2166fa303264668fb2f6a1d8c0060205260409020805c15613ef95750600190613eae565b946001613f0792965d61388a565b93858514613f15575f613ea9565b50505050505050600190565b60405162461bcd60e51b8152602060048201526024808201527f74696d657374616d70206973206f6c646572207468616e2070726576696f75736044820152632065726160e01b6064820152608490fd5b60405162461bcd60e51b815260206004820152601e60248201527f63616e6e6f742076616c6964617465206265666f72652067656e6573697300006044820152606490fd5b9392915050428211613fda57613cac92613fd2575b50613ca6565b90505f613fcc565b60405162461bcd60e51b815260206004820152602160248201527f74696d657374616d702063616e6e6f7420626520696e207468652066757475726044820152606560f81b6064820152608490fd5b506140386018870154856136d1565b4210613c86565b9061404a9082614086565b1561405557600f0190565b60090190565b60ff5f51602061451f5f395f51905f525460401c161561407757565b631afcd79f60e31b5f5260045ffd5b906014600e83015492015480831461412b57818184109311918215911115918190614124575b156140c157826140bb57505090565b14919050565b60405162461bcd60e51b815260206004820152603560248201527f636f756c64206e6f74206964656e746966792076616c696461746f727320666f6044820152740722074686520676976656e2074696d657374616d7605c1b6064820152608490fd5b50816140ac565b606460405162461bcd60e51b815260206004820152602060248201527f657261732074696d657374616d70206d757374206e6f7420626520657175616c6044820152fd5b905f19430143811161357657805b614188575b505f9150565b804083810361419957506001925050565b156141a7575f19018061417d565b614182565b356001600160801b03811681036106b85790565b35906001600160801b03821682036106b857565b92939194906141e38587614439565b156143955782156143955770014551231950b75fc4402da1732fc9bebe19831015614395576001169061010e6040519161012083018381106001600160401b038211176106b85760405260883684376002600188160160888401538760898401526002840160a984015360aa830186905260ca8301527e300046524f53542d736563703235366b312d4b454343414b3235362d76316360ea8301526303430b6160e51b61010a830152812060cc820181815290600260ec84016001815360428420809318845253604270014551231950b75fc4402da1732fc9bebe19922060801c6001600160401b0360801b8260801b16179070014551231950b75fc4402da1732fc9bebe1990600160c01b9060401c0908801561438a5784601b6080945f9660209870014551231950b75fc4402da1732fc9bebe19910970014551231950b75fc4402da1732fc9bebe19038552018684015280604084015270014551231950b75fc4402da1732fc9bebe19910970014551231950b75fc4402da1732fc9bebe1903606082015282805260015afa505f51915f5260205260018060a01b0360405f20161490565b505050505050505f90565b5050505050505f90565b81519190604183036143cf576143c89250602082015190606060408401519301515f1a9061445c565b9192909190565b50505f9160029190565b60048110156132d557806143eb575050565b600181036144025763f645eedf60e01b5f5260045ffd5b6002810361441d575063fce698f760e01b5f5260045260245ffd5b6003146144275750565b6335e2f38360e21b5f5260045260245ffd5b6401000003d01990600790829081818009900908906401000003d0199080091490565b91907f7fffffffffffffffffffffffffffffff5d576e7357a4501ddfe92f46681b20a084116144d3579160209360809260ff5f9560405194855216868401526040830152606082015282805260015afa156132c4575f516001600160a01b038116156144c957905f905f90565b505f906001905f90565b5050505f916003919056fe9016d09d72d40fdae2fd8ceac6b6234c7706214fd39c1cd1e609a0528c1993005c09ca1b9b8127a4fd9f3c384aac59b661441e820e17733753ff5f2e86e1e000f0c57e16840df040f15088dc2f81fe391c3923bec73e23a9662efc9c229c6a00f0c57e16840df040f15088dc2f81fe391c3923bec73e23a9662efc9c229c6a00","linkReferences":{}},"methodIdentifiers":{"areValidators(address[])":"8f381dbe","codeState(bytes32)":"c13911e8","codesStates(bytes32[])":"82bdeaad","commitBatch(((bytes32,uint48,bool)[],(bytes32,uint48,bytes32,bytes32,(address,bytes32,bool,address,uint128,(bytes32,address,uint128)[],(bytes32,address,bytes,uint128,(bytes32,bytes4),bool)[])[])[],((uint256,bytes32),((address,uint256)[],uint256,address),uint48)[]),uint8,bytes[])":"fc491f5d","commitValidators(((uint256,uint256),bytes,address[],uint256),uint8,bytes[])":"aa54494a","computeSettings()":"84d22a4f","createProgram(bytes32,bytes32,address)":"3683c4d2","createProgramWithAbiInterface(bytes32,bytes32,address,address)":"0c18d277","genesisBlockHash()":"28e24b3d","genesisTimestamp()":"cacf66ab","initialize(address,address,address,address,uint256,uint256,uint256,(uint256,uint256),bytes,address[])":"53f7fd48","isValidator(address)":"facd743b","latestCommittedBlockHash()":"c9f16a11","lookupGenesisHash()":"8b1edf1e","mirrorImpl()":"e6fabc09","owner()":"8da5cb5b","programCodeId(address)":"9067088e","programsCodeIds(address[])":"baaf0201","programsCount()":"96a2ddfa","reinitialize()":"6c2eb350","renounceOwnership()":"715018a6","requestCodeValidation(bytes32)":"120e3f1e","setMirror(address)":"3d43b418","signingThresholdPercentage()":"efd81abc","timelines()":"9eb939a8","transferOwnership(address)":"f2fde38b","validatedCodesCount()":"007a32e7","validators()":"ca1e7819","validatorsAggregatedPublicKey()":"3bd109fa","validatorsCount()":"ed612f8c","validatorsThreshold()":"edc87225","validatorsVerifiableSecretSharingCommitment()":"a5d53a44","wrappedVara()":"88f50cf0"},"storageLayout":{"storage":[],"types":{}},"id":165}