{"abi":[{"type":"constructor","inputs":[],"stateMutability":"nonpayable"},{"type":"function","name":"areValidators","inputs":[{"name":"_validators","type":"address[]","internalType":"address[]"}],"outputs":[{"name":"","type":"bool","internalType":"bool"}],"stateMutability":"view"},{"type":"function","name":"codeState","inputs":[{"name":"_codeId","type":"bytes32","internalType":"bytes32"}],"outputs":[{"name":"","type":"uint8","internalType":"enum Gear.CodeState"}],"stateMutability":"view"},{"type":"function","name":"codesStates","inputs":[{"name":"_codesIds","type":"bytes32[]","internalType":"bytes32[]"}],"outputs":[{"name":"","type":"uint8[]","internalType":"enum Gear.CodeState[]"}],"stateMutability":"view"},{"type":"function","name":"commitBlocks","inputs":[{"name":"_blockCommitments","type":"tuple[]","internalType":"struct Gear.BlockCommitment[]","components":[{"name":"hash","type":"bytes32","internalType":"bytes32"},{"name":"timestamp","type":"uint48","internalType":"uint48"},{"name":"previousCommittedBlock","type":"bytes32","internalType":"bytes32"},{"name":"predecessorBlock","type":"bytes32","internalType":"bytes32"},{"name":"transitions","type":"tuple[]","internalType":"struct Gear.StateTransition[]","components":[{"name":"actorId","type":"address","internalType":"address"},{"name":"newStateHash","type":"bytes32","internalType":"bytes32"},{"name":"inheritor","type":"address","internalType":"address"},{"name":"valueToReceive","type":"uint128","internalType":"uint128"},{"name":"valueClaims","type":"tuple[]","internalType":"struct Gear.ValueClaim[]","components":[{"name":"messageId","type":"bytes32","internalType":"bytes32"},{"name":"destination","type":"address","internalType":"address"},{"name":"value","type":"uint128","internalType":"uint128"}]},{"name":"messages","type":"tuple[]","internalType":"struct Gear.Message[]","components":[{"name":"id","type":"bytes32","internalType":"bytes32"},{"name":"destination","type":"address","internalType":"address"},{"name":"payload","type":"bytes","internalType":"bytes"},{"name":"value","type":"uint128","internalType":"uint128"},{"name":"replyDetails","type":"tuple","internalType":"struct Gear.ReplyDetails","components":[{"name":"to","type":"bytes32","internalType":"bytes32"},{"name":"code","type":"bytes4","internalType":"bytes4"}]}]}]}]},{"name":"_signatures","type":"bytes[]","internalType":"bytes[]"}],"outputs":[],"stateMutability":"nonpayable"},{"type":"function","name":"commitCodes","inputs":[{"name":"_codeCommitments","type":"tuple[]","internalType":"struct Gear.CodeCommitment[]","components":[{"name":"id","type":"bytes32","internalType":"bytes32"},{"name":"valid","type":"bool","internalType":"bool"}]},{"name":"_signatures","type":"bytes[]","internalType":"bytes[]"}],"outputs":[],"stateMutability":"nonpayable"},{"type":"function","name":"commitExecuteSlash","inputs":[{"name":"commitment","type":"tuple","internalType":"struct Gear.ExecuteSlashCommitment","components":[{"name":"eraIndex","type":"uint256","internalType":"uint256"},{"name":"slashIdentifiers","type":"tuple[]","internalType":"struct IMiddleware.SlashIdentifier[]","components":[{"name":"vault","type":"address","internalType":"address"},{"name":"index","type":"uint256","internalType":"uint256"}]}]},{"name":"signatures","type":"bytes[]","internalType":"bytes[]"}],"outputs":[],"stateMutability":"nonpayable"},{"type":"function","name":"commitRequestSlash","inputs":[{"name":"commitment","type":"tuple","internalType":"struct Gear.RequestSlashCommitment","components":[{"name":"eraIndex","type":"uint256","internalType":"uint256"},{"name":"slashes","type":"tuple[]","internalType":"struct IMiddleware.SlashData[]","components":[{"name":"operator","type":"address","internalType":"address"},{"name":"ts","type":"uint48","internalType":"uint48"},{"name":"vaults","type":"tuple[]","internalType":"struct IMiddleware.VaultSlashData[]","components":[{"name":"vault","type":"address","internalType":"address"},{"name":"amount","type":"uint256","internalType":"uint256"}]}]}]},{"name":"signatures","type":"bytes[]","internalType":"bytes[]"}],"outputs":[],"stateMutability":"nonpayable"},{"type":"function","name":"commitValidators","inputs":[{"name":"commitment","type":"tuple","internalType":"struct Gear.ValidatorsCommitment","components":[{"name":"validators","type":"address[]","internalType":"address[]"},{"name":"eraIndex","type":"uint256","internalType":"uint256"}]},{"name":"signatures","type":"bytes[]","internalType":"bytes[]"}],"outputs":[],"stateMutability":"nonpayable"},{"type":"function","name":"computeSettings","inputs":[],"outputs":[{"name":"","type":"tuple","internalType":"struct Gear.ComputationSettings","components":[{"name":"threshold","type":"uint64","internalType":"uint64"},{"name":"wvaraPerSecond","type":"uint128","internalType":"uint128"}]}],"stateMutability":"view"},{"type":"function","name":"createProgram","inputs":[{"name":"_codeId","type":"bytes32","internalType":"bytes32"},{"name":"_salt","type":"bytes32","internalType":"bytes32"}],"outputs":[{"name":"","type":"address","internalType":"address"}],"stateMutability":"nonpayable"},{"type":"function","name":"createProgramWithDecoder","inputs":[{"name":"_decoderImpl","type":"address","internalType":"address"},{"name":"_codeId","type":"bytes32","internalType":"bytes32"},{"name":"_salt","type":"bytes32","internalType":"bytes32"}],"outputs":[{"name":"","type":"address","internalType":"address"}],"stateMutability":"nonpayable"},{"type":"function","name":"genesisBlockHash","inputs":[],"outputs":[{"name":"","type":"bytes32","internalType":"bytes32"}],"stateMutability":"view"},{"type":"function","name":"genesisTimestamp","inputs":[],"outputs":[{"name":"","type":"uint48","internalType":"uint48"}],"stateMutability":"view"},{"type":"function","name":"initialize","inputs":[{"name":"_owner","type":"address","internalType":"address"},{"name":"_mirror","type":"address","internalType":"address"},{"name":"_mirrorProxy","type":"address","internalType":"address"},{"name":"_wrappedVara","type":"address","internalType":"address"},{"name":"_middleware","type":"address","internalType":"address"},{"name":"_eraDuration","type":"uint256","internalType":"uint256"},{"name":"_electionDuration","type":"uint256","internalType":"uint256"},{"name":"_validators","type":"address[]","internalType":"address[]"}],"outputs":[],"stateMutability":"nonpayable"},{"type":"function","name":"isValidator","inputs":[{"name":"_validator","type":"address","internalType":"address"}],"outputs":[{"name":"","type":"bool","internalType":"bool"}],"stateMutability":"view"},{"type":"function","name":"latestCommittedBlockHash","inputs":[],"outputs":[{"name":"","type":"bytes32","internalType":"bytes32"}],"stateMutability":"view"},{"type":"function","name":"lookupGenesisHash","inputs":[],"outputs":[],"stateMutability":"nonpayable"},{"type":"function","name":"middleware","inputs":[],"outputs":[{"name":"","type":"address","internalType":"address"}],"stateMutability":"view"},{"type":"function","name":"mirrorImpl","inputs":[],"outputs":[{"name":"","type":"address","internalType":"address"}],"stateMutability":"view"},{"type":"function","name":"mirrorProxyImpl","inputs":[],"outputs":[{"name":"","type":"address","internalType":"address"}],"stateMutability":"view"},{"type":"function","name":"owner","inputs":[],"outputs":[{"name":"","type":"address","internalType":"address"}],"stateMutability":"view"},{"type":"function","name":"programCodeId","inputs":[{"name":"_programId","type":"address","internalType":"address"}],"outputs":[{"name":"","type":"bytes32","internalType":"bytes32"}],"stateMutability":"view"},{"type":"function","name":"programsCodeIds","inputs":[{"name":"_programsIds","type":"address[]","internalType":"address[]"}],"outputs":[{"name":"","type":"bytes32[]","internalType":"bytes32[]"}],"stateMutability":"view"},{"type":"function","name":"programsCount","inputs":[],"outputs":[{"name":"","type":"uint256","internalType":"uint256"}],"stateMutability":"view"},{"type":"function","name":"reinitialize","inputs":[],"outputs":[],"stateMutability":"nonpayable"},{"type":"function","name":"renounceOwnership","inputs":[],"outputs":[],"stateMutability":"nonpayable"},{"type":"function","name":"requestCodeValidation","inputs":[{"name":"_codeId","type":"bytes32","internalType":"bytes32"},{"name":"_blobTxHash","type":"bytes32","internalType":"bytes32"}],"outputs":[],"stateMutability":"nonpayable"},{"type":"function","name":"setMirror","inputs":[{"name":"newMirror","type":"address","internalType":"address"}],"outputs":[],"stateMutability":"nonpayable"},{"type":"function","name":"signingThresholdPercentage","inputs":[],"outputs":[{"name":"","type":"uint16","internalType":"uint16"}],"stateMutability":"view"},{"type":"function","name":"transferOwnership","inputs":[{"name":"newOwner","type":"address","internalType":"address"}],"outputs":[],"stateMutability":"nonpayable"},{"type":"function","name":"validatedCodesCount","inputs":[],"outputs":[{"name":"","type":"uint256","internalType":"uint256"}],"stateMutability":"view"},{"type":"function","name":"validators","inputs":[],"outputs":[{"name":"","type":"address[]","internalType":"address[]"}],"stateMutability":"view"},{"type":"function","name":"validatorsCount","inputs":[],"outputs":[{"name":"","type":"uint256","internalType":"uint256"}],"stateMutability":"view"},{"type":"function","name":"validatorsThreshold","inputs":[],"outputs":[{"name":"","type":"uint256","internalType":"uint256"}],"stateMutability":"view"},{"type":"function","name":"wrappedVara","inputs":[],"outputs":[{"name":"","type":"address","internalType":"address"}],"stateMutability":"view"},{"type":"event","name":"BlockCommitted","inputs":[{"name":"hash","type":"bytes32","indexed":false,"internalType":"bytes32"}],"anonymous":false},{"type":"event","name":"CodeGotValidated","inputs":[{"name":"codeId","type":"bytes32","indexed":false,"internalType":"bytes32"},{"name":"valid","type":"bool","indexed":true,"internalType":"bool"}],"anonymous":false},{"type":"event","name":"CodeValidationRequested","inputs":[{"name":"codeId","type":"bytes32","indexed":false,"internalType":"bytes32"},{"name":"blobTxHash","type":"bytes32","indexed":false,"internalType":"bytes32"}],"anonymous":false},{"type":"event","name":"ComputationSettingsChanged","inputs":[{"name":"threshold","type":"uint64","indexed":false,"internalType":"uint64"},{"name":"wvaraPerSecond","type":"uint128","indexed":false,"internalType":"uint128"}],"anonymous":false},{"type":"event","name":"ExecuteSlashCommitmentProcessed","inputs":[{"name":"commitmentHash","type":"bytes32","indexed":true,"internalType":"bytes32"},{"name":"slashId","type":"tuple[]","indexed":false,"internalType":"struct IMiddleware.SlashIdentifier[]","components":[{"name":"vault","type":"address","internalType":"address"},{"name":"index","type":"uint256","internalType":"uint256"}]}],"anonymous":false},{"type":"event","name":"Initialized","inputs":[{"name":"version","type":"uint64","indexed":false,"internalType":"uint64"}],"anonymous":false},{"type":"event","name":"NextEraValidatorsCommitted","inputs":[{"name":"startTimestamp","type":"uint256","indexed":false,"internalType":"uint256"}],"anonymous":false},{"type":"event","name":"OwnershipTransferred","inputs":[{"name":"previousOwner","type":"address","indexed":true,"internalType":"address"},{"name":"newOwner","type":"address","indexed":true,"internalType":"address"}],"anonymous":false},{"type":"event","name":"ProgramCreated","inputs":[{"name":"actorId","type":"address","indexed":false,"internalType":"address"},{"name":"codeId","type":"bytes32","indexed":true,"internalType":"bytes32"}],"anonymous":false},{"type":"event","name":"RequestSlashCommitmentProcessed","inputs":[{"name":"commitmentHash","type":"bytes32","indexed":true,"internalType":"bytes32"},{"name":"slashData","type":"tuple[]","indexed":false,"internalType":"struct IMiddleware.SlashData[]","components":[{"name":"operator","type":"address","internalType":"address"},{"name":"ts","type":"uint48","internalType":"uint48"},{"name":"vaults","type":"tuple[]","internalType":"struct IMiddleware.VaultSlashData[]","components":[{"name":"vault","type":"address","internalType":"address"},{"name":"amount","type":"uint256","internalType":"uint256"}]}]}],"anonymous":false},{"type":"event","name":"StorageSlotChanged","inputs":[],"anonymous":false},{"type":"error","name":"ECDSAInvalidSignature","inputs":[]},{"type":"error","name":"ECDSAInvalidSignatureLength","inputs":[{"name":"length","type":"uint256","internalType":"uint256"}]},{"type":"error","name":"ECDSAInvalidSignatureS","inputs":[{"name":"s","type":"bytes32","internalType":"bytes32"}]},{"type":"error","name":"FailedDeployment","inputs":[]},{"type":"error","name":"InsufficientBalance","inputs":[{"name":"balance","type":"uint256","internalType":"uint256"},{"name":"needed","type":"uint256","internalType":"uint256"}]},{"type":"error","name":"InvalidInitialization","inputs":[]},{"type":"error","name":"NotInitializing","inputs":[]},{"type":"error","name":"OwnableInvalidOwner","inputs":[{"name":"owner","type":"address","internalType":"address"}]},{"type":"error","name":"OwnableUnauthorizedAccount","inputs":[{"name":"account","type":"address","internalType":"address"}]},{"type":"error","name":"ReentrancyGuardReentrantCall","inputs":[]}],"bytecode":{"object":"0x6080806040523460aa575f5160206139085f395f51905f525460ff8160401c16609b576002600160401b03196001600160401b038216016049575b60405161385990816100af8239f35b6001600160401b0319166001600160401b039081175f5160206139085f395f51905f525581527fc7f505b2f371ae2175ee4913f4499e1f2633a7b5936321eed1cdaeb6115181d290602090a15f80603a565b63f92ee8a960e01b5f5260045ffd5b5f80fdfe6080806040526004361015610012575f80fd5b5f905f3560e01c9081627a32e71461286a5750806301b1d1561461212c5780631c149d8a14611fd357806328e24b3d14611fa95780633d43b41814611f5757806345c955a114611cd7578063527de0f914611c7657806365ecfea214611c3d5780636c2eb35014611940578063715018a6146118d757806382bdeaad146117bf57806384d22a4f1461175657806388f50cf01461171d5780638b1edf1e146116565780638da5cb5b146116215780638f381dbe146115db5780639067088e1461159257806396a2ddfa14611564578063977179d51461106f578063aaf0fe6a14610d44578063baaf020114610c47578063c13911e814610c03578063c9f16a1114610bd5578063ca1e781914610b54578063cacf66ab14610b1c578063e2f3792414610697578063e6fabc091461065e578063e7006a741461053d578063e97d3eb31461030a578063ed612f8c146102d4578063edc872251461028b578063efd81abc14610259578063f2fde38b1461022c578063f4f20ac0146101f35763facd743b1461019e575f80fd5b346101f05760203660031901126101f0576101b76128da565b6101ce5f5160206137e45f395f51905f525461333d565b9060018060a01b03165f52602052602060ff60405f2054166040519015158152f35b80fd5b50346101f057806003193601126101f0575f5160206137e45f395f51905f5254600701546040516001600160a01b039091168152602090f35b50346101f05760203660031901126101f0576102566102496128da565b610251613191565b612fb3565b80f35b50346101f057806003193601126101f057602061ffff60085f5160206137e45f395f51905f5254015416604051908152f35b50346101f057806003193601126101f05760206102cc5f5160206137e45f395f51905f525461ffff600860016102c08461333d565b0154920154169061348a565b604051908152f35b50346101f057806003193601126101f057602060016103005f5160206137e45f395f51905f525461333d565b0154604051908152f35b50346101f05760403660031901126101f057600435906001600160401b0382116101f057366023830112156101f0578160040135916001600160401b038311610539573660248460061b83010111610539576024356001600160401b038111610535579061037d84923690600401612894565b935f5160206137e45f395f51905f52549261039a84541515612963565b606095829360128601975b87861015610518578560061b84016024810135918287528a60205260ff6040882054166003811015610504576001036104a157600192610454604461048194016103ee81612f98565b1561048957828a528d60205260408a20600260ff1982541617905560158c016104178154612fa5565b90555b61042381612f98565b15157f460119a8f69a33ed127de517d5ea464e958ce23ef19e4420a8b92bf780bbc2c96020604051868152a2612f98565b6040519060208201928352151560f81b604082015260218152610478604182612a1f565b51902090612a40565b9501946103a5565b828a528d60205260408a2060ff19815416905561041a565b60405162461bcd60e51b815260206004820152603560248201527f636f6465206d7573742062652072657175657374656420666f722076616c6964604482015274185d1a5bdb881d1bc818994818dbdb5b5a5d1d1959605a1b6064820152608490fd5b634e487b7160e01b88526021600452602488fd5b84926102569288610530936020815191012090613037565b612a6f565b8280fd5b5080fd5b50346101f05760603660031901126101f0576105576128da565b6024359061059f6044359161056c83856131c4565b93604051936020850191825260408501526040845261058c606085612a1f565b92519092206001600160a01b03926136de565b16803b156105355760405163189acdbd60e31b81526001600160a01b0390921660048301819052918390818160248183875af180156106535761063e575b5050813b15610535576040519063485cc95560e01b82523360048301526024820152828160448183865af180156106335761061e575b602082604051908152f35b610629838092612a1f565b6105395781610613565b6040513d85823e3d90fd5b8161064891612a1f565b61053557825f6105dd565b6040513d84823e3d90fd5b50346101f057806003193601126101f0575f5160206137e45f395f51905f5254600401546040516001600160a01b039091168152602090f35b50346101f0576106a636612904565b5f5160206137e45f395f51905f52939193549365ffffffffffff600186015460201c169361070e6107066106da8742612abb565b966107006106ed60108b0154809a612adc565b8535996106fb828c14612afa565b612b46565b90612b59565b421015612b66565b6040813603126109ad5760405194610725866129d5565b8552602081019081356001600160401b038111610b185781019636601f89011215610b185787359761075689612bb2565b986107646040519a8b612a1f565b808a526020808b019160051b83010191368311610b14576020819a96959899979a01915b838310610a165750505050876020840152606092845b8951861015610899576107b1868b612d49565b5198895194604060208c01519b01519860609584965b8b51881015610818576001906108106107e08a8f612d49565b51916108026020858060a01b0385511694015160405194859360208501613503565b03601f198101835282612a1f565b9701966107c7565b6020949a9b508491975098603a92986001969d979e61088a959b848151910120906040519784899551918291018787015e8401926bffffffffffffffffffffffff199060601b168584015265ffffffffffff60d01b9060d01b166034830152848201520301601a810184520182612a1f565b9601949790969593929561079e565b888488856108f38c878b6020815191012090519060405190602082019283526040820152604081526108cc606082612a1f565b519020956040516020810190888252602081526108ea604082612a1f565b51902084613037565b156109b1576007015484906001600160a01b0316610912811515612bf8565b61091c8484612e44565b823b156109ad576109469284928360405180968195829463029c425360e21b845260048401612e8c565b03925af1801561065357610998575b50507ff30508a098ff6e1e1f6a40c8df7c0d7f84a7a50f74507a1cec3b4967073338ac9161098291612e44565b9061099260405192839283612e8c565b0390a280f35b816109a291612a1f565b6109ad578385610955565b8380fd5b60405162461bcd60e51b815260206004820152603760248201527f7265717565737420736c61736820636f6d6d69746d656e74207369676e6174756044820152761c995cc81d995c9a599a58d85d1a5bdb8819985a5b1959604a1b6064820152608490fd5b829a97999895969a356001600160401b038111610b105782016060601f198236030112610b105760405190610a4a82612a04565b610a56602082016128f0565b8252610a6460408201612e79565b60208301526060810135906001600160401b038211610b0c5790602091010136601f82011215610b08578035610a9981612bb2565b91610aa76040519384612a1f565b81835260208084019260061b82010190368211610b0457602001915b818310610aea57505050918160209360408594015281520192019199959497989699610788565b6020604091610af93686612bc9565b815201920191610ac3565b8e80fd5b8b80fd5b8c80fd5b8a80fd5b8880fd5b8580fd5b50346101f057806003193601126101f057602065ffffffffffff60015f5160206137e45f395f51905f52540154821c16604051908152f35b50346101f057806003193601126101f057610b876001610b815f5160206137e45f395f51905f525461333d565b01612cd4565b90604051918291602083016020845282518091526020604085019301915b818110610bb3575050500390f35b82516001600160a01b0316845285945060209384019390920191600101610ba5565b50346101f057806003193601126101f057602060025f5160206137e45f395f51905f52540154604051908152f35b50346101f05760203660031901126101f05760ff604060209260125f5160206137e45f395f51905f52540160043582528452205416610c456040518092612956565bf35b50346101f05760203660031901126101f0576004356001600160401b03811161053957610c78903690600401612894565b905f5160206137e45f395f51905f525490610c9283612bb2565b91610ca06040519384612a1f565b838352610cac84612bb2565b602084019490601f19013686376013869201915b818110610d0b57868587604051928392602084019060208552518091526040840192915b818110610cf2575050500390f35b8251845285945060209384019390920191600101610ce4565b80610d21610d1c6001938588612d25565b612d75565b828060a01b03165f528360205260405f2054610d3d8288612d49565b5201610cc0565b50346101f057610d5336612904565b92915f5160206137e45f395f51905f52549165ffffffffffff600184015460201c1694610d808642612abb565b610d8f60108601548092612adc565b966020850135976001810180911161105b5788036110035761070088610db493612b46565b91610dc3601186015484612abb565b4210610fbe57610dd285613470565b944260028701541015610f5e57604085360312610f5a5760405197610df6896129d5565b85356001600160401b038111610b1457860136601f82011215610b14576020610e26839236908381359101612df0565b9a8b8152015260405160208101918260208c51919c01908b5b818110610f3b575050506020828c610e6593610e8a9a9b9c9d9e52038084520182612a1f565b5190206040516020810191825260208152610e81604082612a1f565b51902090613037565b15610edb57610ed1817f41e7f919bf726af8aa2ef36bd31905a693013e30c45c6284060e613d4941997b94610ecb610ec486602097612e44565b3691612df0565b90613357565b604051908152a180f35b60405162461bcd60e51b815260206004820152603260248201527f6e657874206572612076616c696461746f7273207369676e6174757265732076604482015271195c9a599a58d85d1a5bdb8819985a5b195960721b6064820152608490fd5b82516001600160a01b03168e5260209d8e019d90920191600101610e3f565b8680fd5b60405162461bcd60e51b815260206004820152603260248201527f6c6f6f6b73206c696b652076616c696461746f727320666f72206e65787420656044820152711c9848185c9948185b1c9958591e481cd95d60721b6064820152608490fd5b60405162461bcd60e51b815260206004820152601b60248201527f656c656374696f6e206973206e6f7420796574207374617274656400000000006044820152606490fd5b60405162461bcd60e51b815260206004820152602a60248201527f636f6d6d69746d656e742065726120696e646578206973206e6f74206e657874604482015269040cae4c240d2dcc8caf60b31b6064820152608490fd5b634e487b7160e01b88526011600452602488fd5b50346101f0576101003660031901126101f05761108a6128da565b6024356001600160a01b0381169190829003610535576044356001600160a01b03811692908390036109ad576064356001600160a01b0381169190829003611560576084356001600160a01b0381169290839003610b185760c43560a43560e4356001600160401b038111610b1457611107903690600401612894565b9590935f5160206138045f395f51905f52549760ff8960401c1615986001600160401b03811680159081611558575b600114908161154e575b159081611545575b506115365767ffffffffffffffff1981166001175f5160206138045f395f51905f525561118791908a61150a575b5061117f613619565b610251613619565b42156114b457831561145e57838311156113fd5760409889516111aa8b82612a1f565b6017815260208101907f726f757465722e73746f726167652e526f75746572563100000000000000000082526111de613191565b5190205f1981019081116113e9578a519060208201908152602082526112048c83612a1f565b60ff19915190201696875f5160206137e45f395f51905f52556112256132f8565b8051895560018901908c69ffffffffffff0000000063ffffffff60208401511691845493015160201b169169ffffffffffffffffffff1916171790558a51608081018181106001600160401b038211176113d5578c5281815260208101839052808c018490526060018490526004880180546001600160a01b03199081166001600160a01b03938416179091556005890180548216938316939093179092556006880180548316938216939093179092556007870180549091169190921617905560088401805461ffff1916611a0a17905561137b9493926009926113749261130c612d5d565b506509184e72a00060208b51611321816129d5565b639502f90081520152600f860180546001600160c01b0319166d09184e72a000000000009502f9001790558951829060209061135c816129d5565b83815201526010860155601185015542943691612df0565b9101613357565b611383575080f35b60207fc7f505b2f371ae2175ee4913f4499e1f2633a7b5936321eed1cdaeb6115181d29160ff60401b195f5160206138045f395f51905f5254165f5160206138045f395f51905f52555160018152a180f35b634e487b7160e01b8e52604160045260248efd5b634e487b7160e01b8c52601160045260248cfd5b60405162461bcd60e51b815260206004820152603360248201527f657261206475726174696f6e206d757374206265206772656174657220746861604482015272371032b632b1ba34b7b710323ab930ba34b7b760691b6064820152608490fd5b60405162461bcd60e51b815260206004820152602860248201527f656c656374696f6e206475726174696f6e206d75737420626520677265617465604482015267072207468616e20360c41b6064820152608490fd5b60405162461bcd60e51b815260206004820152602860248201527f63757272656e742074696d657374616d70206d75737420626520677265617465604482015267072207468616e20360c41b6064820152608490fd5b68ffffffffffffffffff191668010000000000000001175f5160206138045f395f51905f52555f611176565b63f92ee8a960e01b8c5260048cfd5b9050155f611148565b303b159150611140565b8b9150611136565b8480fd5b50346101f057806003193601126101f057602060145f5160206137e45f395f51905f52540154604051908152f35b50346101f05760203660031901126101f0576115ac6128da565b60135f5160206137e45f395f51905f5254019060018060a01b03165f52602052602060405f2054604051908152f35b50346101f05760203660031901126101f057600435906001600160401b0382116101f05760206116176116113660048601612894565b90612d89565b6040519015158152f35b50346101f057806003193601126101f0575f5160206137c45f395f51905f52546040516001600160a01b039091168152602090f35b50346101f057806003193601126101f0575f5160206137e45f395f51905f525480546116d85763ffffffff60018201541640908115611693575580f35b60405162461bcd60e51b815260206004820152601d60248201527f756e61626c6520746f206c6f6f6b75702067656e6573697320686173680000006044820152606490fd5b60405162461bcd60e51b815260206004820152601860248201527f67656e65736973206861736820616c72656164792073657400000000000000006044820152606490fd5b50346101f057806003193601126101f0575f5160206137e45f395f51905f5254600601546040516001600160a01b039091168152602090f35b50346101f057806003193601126101f05761176f612d5d565b506040600f5f5160206137e45f395f51905f5254016001600160801b03825191611798836129d5565b548160206001600160401b038316948581520191851c168152835192835251166020820152f35b50346101f05760203660031901126101f0576004356001600160401b038111610539576117f0903690600401612894565b905f5160206137e45f395f51905f52549061180a83612bb2565b916118186040519384612a1f565b83835261182484612bb2565b602084019490601f19013686376012869201915b81811061188d57868587604051928392602084019060208552518091526040840192915b81811061186a575050500390f35b919350916020808261187f6001948851612956565b01940191019184939261185c565b611898818386612d25565b3587528260205260ff6040882054166118b18287612d49565b60038210156118c35752600101611838565b634e487b7160e01b89526021600452602489fd5b50346101f057806003193601126101f0576118f0613191565b5f5160206137c45f395f51905f5280546001600160a01b0319811690915581906001600160a01b03167f8be0079c531659141344cd1fd0a4f28419497f9722a3daafe3b4186f6b6457e08280a380f35b50346101f057806003193601126101f057611959613191565b5f5160206138045f395f51905f525460ff8160401c168015611c29575b611c1a57680100000000000000029068ffffffffffffffffff1916175f5160206138045f395f51905f52555f5160206137e45f395f51905f525460409081516119bf8382612a1f565b6017815260208101907f726f757465722e73746f726167652e526f75746572563200000000000000000082526119f3613191565b5190205f198101908111611c0657916020917fc7f505b2f371ae2175ee4913f4499e1f2633a7b5936321eed1cdaeb6115181d293825190848201908152848252611a3d8483612a1f565b60ff19915190201690815f5160206137e45f395f51905f5255611a5e6132f8565b80518355600183019063ffffffff868201511669ffffffffffff00000000868454930151881b169169ffffffffffffffffffff191617179055600481016004830190808203611ba2575b505061ffff600882015416600883019061ffff19825416179055611ae46001611ad08361333d565b01611adb4291612cd4565b60098501613357565b600f8101600f830190808203611b50575b5050601081016010830191818303611b3a575b5050505060ff60401b195f5160206138045f395f51905f5254165f5160206138045f395f51905f52555160028152a180f35b601192839254905501549101555f808080611b08565b806001600160401b03806001600160801b03935416166001600160401b031984541617835554851c16600160401b600160c01b03825491861b1690600160401b600160c01b0319161790555f80611af5565b5481546001600160a01b03199081166001600160a01b03928316179092556005838101549085018054841691831691909117905560068084015490850180548416918316919091179055600780840154908501805490931691161790555f80611aa8565b634e487b7160e01b84526011600452602484fd5b63f92ee8a960e01b8252600482fd5b5060026001600160401b0382161015611976565b50346101f057806003193601126101f0575f5160206137e45f395f51905f5254600501546040516001600160a01b039091168152602090f35b50346101f057611c97611c88366128c4565b6001600160a01b0392916131c4565b16803b156105395760405163485cc95560e01b815233600482015260248101839052828160448183865af180156106335761061e57602082604051908152f35b5034611ed457611ce636612904565b90925f5160206137e45f395f51905f52549365ffffffffffff600186015460201c1693611d196107066106da8742612abb565b604081360312611ed45760405194611d30866129d5565b8552602081019081356001600160401b038111611ed45781019636601f89011215611ed457873597611d6189612bb2565b98611d6f6040519a8b612a1f565b808a526020808b019160061b83010191368311611ed457602001905b828210611f3d575050508760208801526060955f965b8951881015611dc257600190611dba6107e08a8d612d49565b970196611da1565b9088611df1926020815191012090519060405190602082019283526040820152604081526108cc606082612a1f565b15611ed857600701546001600160a01b0316611e0e811515612bf8565b611e188383612c44565b823b15611ed457611e42925f928360405180968195829463af96299560e01b845260048401612c99565b03925af18015611ec957611e8d575b507f150b95dd488144ed3bb7967b3e9962e6b17de4b8d7c44ba639a4dd46ba1acd1f91611e7d91612c44565b9061099260405192839283612c99565b611e7d91945091611ebf5f7f150b95dd488144ed3bb7967b3e9962e6b17de4b8d7c44ba639a4dd46ba1acd1f94612a1f565b5f94915091611e51565b6040513d5f823e3d90fd5b5f80fd5b60405162461bcd60e51b815260206004820152603760248201527f6578656375746520736c61736820636f6d6d69746d656e74207369676e6174756044820152761c995cc81d995c9a599a58d85d1a5bdb8819985a5b1959604a1b6064820152608490fd5b6020604091611f4c3685612bc9565b815201910190611d8b565b34611ed4576020366003190112611ed457611f706128da565b611f78613191565b5f5160206137e45f395f51905f525460040180546001600160a01b0319166001600160a01b03909216919091179055005b34611ed4575f366003190112611ed45760205f5160206137e45f395f51905f525454604051908152f35b34611ed457611fe1366128c4565b908115801590612122575b156120e75760125f5160206137e45f395f51905f525461200e81541515612963565b0190805f528160205260ff60405f20541660038110156120d357612072577f65672eaf4ff8b823ea29ae013fef437d1fa9ed431125263a7a1f0ac49eada39692604092825f52602052825f20600160ff1982541617905582519182526020820152a1005b60405162461bcd60e51b815260206004820152603360248201527f676976656e20636f646520696420697320616c7265616479206f6e2076616c6960448201527219185d1a5bdb881bdc881d985b1a59185d1959606a1b6064820152608490fd5b634e487b7160e01b5f52602160045260245ffd5b60405162461bcd60e51b8152602060048201526013602482015272189b1bd88818d85b89dd08189948199bdd5b99606a1b6044820152606490fd5b505f491515611fec565b34611ed4576040366003190112611ed4576004356001600160401b038111611ed45761215c903690600401612894565b6024356001600160401b038111611ed45761217b903690600401612894565b90927f9b779b17422d0df92223018b32b4d1fa46e071723d6817e2486d003becc55f005c61285b5760017f9b779b17422d0df92223018b32b4d1fa46e071723d6817e2486d003becc55f005d5f5160206137e45f395f51905f5254916121e383541515612963565b60605f915b8583101561281f578260051b840135609e1985360301811215611ed45784019060028601546040830135036127cc5761222460608301356134ac565b156127785794939695929190602061223d818301613024565b65ffffffffffff60405191612251836129d5565b843583521691829101528135600287015565ffffffffffff196003870154161760038601556122836080820182612e44565b9690946060995f925b898410156126d5578360051b88013560be1989360301811215611ed45788019b6122b58d612d75565b6001600160a01b03165f90815260138b016020526040902054156126785760068a01548d906001600160a01b031660606122ee83612d75565b92019182356001600160801b038116809103611ed45760405163a9059cbb60e01b81526001600160a01b039092166004830152602482015290602090829060449082905f905af18015611ec957612642575b506001600160a01b036123528f612d75565b6040516309ed323560e41b8152602060048201529f9116918f919060e48301906001600160801b03906123bf906001600160a01b03612390866128f0565b166024870152602085013560448701526001600160a01b036123b4604087016128f0565b1660648701526134ef565b16608484015236829003601e190190608083013582811215611ed457830190602082359201946001600160401b038311611ed4576060830236038613611ed457826101049260c060a4840152520193905f905b8082106125f8575050509e9f939495969798999a9b9c9d9e60a082013590811215611ed4570190813560208301926001600160401b038211611ed4578160051b918236038513611ed4578684036023190160c48801528084528694928401602090810194908101925f923682900360de19019290915b8285106124ff575050505050505091815f8160209503925af1908115611ec9575f916124cd575b506124bc90600192612a40565b9b9a9998979695940192919061228c565b90506020813d82116124f7575b816124e760209383612a1f565b81010312611ed4575160016124af565b3d91506124da565b9193959750919395601f19838203018752873585811215611ed457820160208101358252906001600160a01b03612538604084016128f0565b1660208201526060820135603e193684900301811215611ed45782602091010191602083359301906001600160401b038411611ed4578336038213611ed4578360c092836040860152818486015260e08501375f60e085850101526001600160801b036125a7608083016134ef565b16606084015260a0810135608084015201359163ffffffff60e01b8316809303611ed45760e0826020939260019560a086950152601f80199101160101990197019501929091899796959492612488565b90919460608060019288358152838060a01b0361261760208b016128f0565b1660208201526001600160801b0361263160408b016134ef565b166040820152019601920190612412565b6020813d8211612670575b8161265a60209383612a1f565b81010312611ed457518015158114612340575f80fd5b3d915061264d565b60405162461bcd60e51b815260206004820152602f60248201527f636f756c646e277420706572666f726d207472616e736974696f6e20666f722060448201526e756e6b6e6f776e2070726f6772616d60881b6064820152608490fd5b965096975097939860019391509161276f9260208151910120907fd756eca21e02cb0dbde1e44a4d9c6921b5c8aa4668cfa0752784b3dc855bce1e602060405183358152a161272660208201613024565b9160606040519260208401948135865265ffffffffffff60d01b9060d01b166040850152604081013560468501520135606683015260868201526086815261047860a682612a1f565b919601916121e8565b60405162461bcd60e51b815260206004820152602660248201527f616c6c6f776564207072656465636573736f7220626c6f636b207761736e277460448201526508199bdd5b9960d21b6064820152608490fd5b60405162461bcd60e51b815260206004820152602560248201527f696e76616c69642070726576696f757320636f6d6d697474656420626c6f636b604482015264040d0c2e6d60db1b6064820152608490fd5b610530908786612836946020815191012090613037565b5f7f9b779b17422d0df92223018b32b4d1fa46e071723d6817e2486d003becc55f005d005b633ee5aeb560e01b5f5260045ffd5b34611ed4575f366003190112611ed45760209060155f5160206137e45f395f51905f525401548152f35b9181601f84011215611ed4578235916001600160401b038311611ed4576020808501948460051b010111611ed457565b6040906003190112611ed4576004359060243590565b600435906001600160a01b0382168203611ed457565b35906001600160a01b0382168203611ed457565b906040600319830112611ed4576004356001600160401b038111611ed45760408184036003190112611ed45760040191602435906001600160401b038211611ed45761295291600401612894565b9091565b9060038210156120d35752565b1561296a57565b60405162461bcd60e51b815260206004820152603860248201527f726f757465722067656e65736973206973207a65726f3b2063616c6c20606c6f60448201527f6f6b757047656e657369734861736828296020666972737400000000000000006064820152608490fd5b604081019081106001600160401b038211176129f057604052565b634e487b7160e01b5f52604160045260245ffd5b606081019081106001600160401b038211176129f057604052565b90601f801991011681019081106001600160401b038211176129f057604052565b602080612a6d928195946040519682889351918291018585015e8201908382015203018085520183612a1f565b565b15612a7657565b60405162461bcd60e51b815260206004820152601e60248201527f7369676e61747572657320766572696669636174696f6e206661696c656400006044820152606490fd5b91908203918211612ac857565b634e487b7160e01b5f52601160045260245ffd5b8115612ae6570490565b634e487b7160e01b5f52601260045260245ffd5b15612b0157565b60405162461bcd60e51b815260206004820152601f60248201527f636f6d6d69746d656e742065726120696e64657820697320696e76616c6964006044820152606490fd5b81810292918115918404141715612ac857565b91908201809211612ac857565b15612b6d57565b60405162461bcd60e51b815260206004820152601f60248201527f63757272656e742065726120686173206e6f74207374617274656420796574006044820152606490fd5b6001600160401b0381116129f05760051b60200190565b9190826040910312611ed457604051612be1816129d5565b6020808294612bef816128f0565b84520135910152565b15612bff57565b60405162461bcd60e51b815260206004820152601a60248201527f4d6964646c65776172652061646472657373206e6f74207365740000000000006044820152606490fd5b903590601e1981360301821215611ed457018035906001600160401b038211611ed457602001918160061b36038313611ed457565b60209081906001600160a01b03612c8f826128f0565b1684520135910152565b60208082528101839052604001915f5b818110612cb65750505090565b90919260408082612cc960019488612c79565b019401929101612ca9565b90604051918281549182825260208201905f5260205f20925f5b818110612d03575050612a6d92500383612a1f565b84546001600160a01b0316835260019485019487945060209093019201612cee565b9190811015612d355760051b0190565b634e487b7160e01b5f52603260045260245ffd5b8051821015612d355760209160051b010190565b60405190612d6a826129d5565b5f6020838281520152565b356001600160a01b0381168103611ed45790565b612da05f5160206137e45f395f51905f525461333d565b905f5b838110612db35750505050600190565b612dc1610d1c828685612d25565b6001600160a01b03165f9081526020849052604090205460ff1615612de857600101612da3565b505050505f90565b929190612dfc81612bb2565b93612e0a6040519586612a1f565b602085838152019160051b8101928311611ed457905b828210612e2c57505050565b60208091612e39846128f0565b815201910190612e20565b903590601e1981360301821215611ed457018035906001600160401b038211611ed457602001918160051b36038313611ed457565b359065ffffffffffff82168203611ed457565b9180602084016020855252604083019260408260051b82010193835f92605e1982360301905b858510612ec3575050505050505090565b90919293949596603f19828203018552873583811215611ed457606082019085016001600160a01b03612ef5826128f0565b16835265ffffffffffff612f0b60208301612e79565b1660208401526040810135601e1982360301811215611ed4570190602082359201926001600160401b038311611ed4578260061b36038413611ed4578260809260606040840152520191905f905b808210612f7a57505050602080600192990195019501939594929190612eb2565b90919260408082612f8d60019488612c79565b019401920190612f59565b358015158103611ed45790565b5f198114612ac85760010190565b6001600160a01b03168015613011575f5160206137c45f395f51905f5280546001600160a01b0319811683179091556001600160a01b03167f8be0079c531659141344cd1fd0a4f28419497f9722a3daafe3b4186f6b6457e05f80a3565b631e4fbdf760e01b5f525f60045260245ffd5b3565ffffffffffff81168103611ed45790565b91909161305b6130468261333d565b9161ffff60086001850154920154169061348a565b92604051906020820190815260208252613076604083612a1f565b6130b2603660405180936020820195601960f81b87523060601b60228401525180918484015e81015f838201520301601f198101835282612a1f565b5190205f925f5b86811015613186578060051b820135601e1983360301811215611ed45782018035906001600160401b038211611ed45760208101908236038213611ed4576040519061310f601f8501601f191660200183612a1f565b8382526020843692010111611ed4575f6020846131419561313895838601378301015285613644565b9092919261367e565b6001600160a01b03165f9081526020859052604090205460ff16613168575b6001016130b9565b9361317290612fa5565b938585036131605750505050505050600190565b505050505050505f90565b5f5160206137c45f395f51905f52546001600160a01b031633036131b157565b63118cdaa760e01b5f523360045260245ffd5b5f5160206137e45f395f51905f5254916131e083541515612963565b815f526012830160205260ff60405f20541660038110156120d35760020361329c5761323e60149160018060a01b03600586015416906040516020810191868352604082015260408152613235606082612a1f565b519020906136de565b9260018060a01b0384165f52601381016020528260405f2055016132628154612fa5565b90556040516001600160a01b03831681527f8008ec1d8798725ebfa0f2d128d52e8e717dcba6e0f786557eeee70614b02bf190602090a290565b60405162461bcd60e51b815260206004820152602e60248201527f636f6465206d7573742062652076616c696461746564206265666f726520707260448201526d37b3b930b69031b932b0ba34b7b760911b6064820152608490fd5b5f6040805161330681612a04565b828152826020820152015260405161331d81612a04565b5f815263ffffffff4316602082015265ffffffffffff4216604082015290565b61334681613532565b1561335157600c0190565b60090190565b905f5b60018301908154811015613397575f91825260208083208201546001600160a01b031683528490526040909120805460ff1916905560010161335a565b50505f5b81518110156133dc576001906001600160a01b036133b98285612d49565b5116828060a01b03165f528360205260405f208260ff198254161790550161339b565b50600182018151916001600160401b0383116129f0576801000000000000000083116129f057815483835580841061344a575b50602001905f5260205f205f5b83811061342d575050505060020155565b82516001600160a01b03168183015560209092019160010161341c565b825f528360205f2091820191015b818110613465575061340f565b5f8155600101613458565b61347981613532565b156134845760090190565b600c0190565b61ffff613498921690612b46565b61270f8101809111612ac857612710900490565b905f194301438111612ac857805b6134c5575b505f9150565b80408381036134d657506001925050565b156134ea578015612ac8575f1901806134ba565b6134bf565b35906001600160801b0382168203611ed457565b60209060349492805192839101825e01916bffffffffffffffffffffffff199060601b16825260148201520190565b600e600b8201549101548082146135d557808210914210908115904210159181906135ce575b1561356d578261356757505090565b14919050565b60405162461bcd60e51b815260206004820152603360248201527f636f756c64206e6f74206964656e746966792076616c696461746f727320666f6044820152720722063757272656e742074696d657374616d7606c1b6064820152608490fd5b5081613558565b606460405162461bcd60e51b815260206004820152602060248201527f657261732074696d657374616d70206d757374206e6f7420626520657175616c6044820152fd5b60ff5f5160206138045f395f51905f525460401c161561363557565b631afcd79f60e31b5f5260045ffd5b81519190604183036136745761366d9250602082015190606060408401519301515f1a90613741565b9192909190565b50505f9160029190565b60048110156120d35780613690575050565b600181036136a75763f645eedf60e01b5f5260045ffd5b600281036136c2575063fce698f760e01b5f5260045260245ffd5b6003146136cc5750565b6335e2f38360e21b5f5260045260245ffd5b6e5af43d82803e903d91602b57fd5bf390763d602d80600a3d3981f3363d3d373d3d3d363d7300000062ffffff8260881c16175f5260781b17602052603760095ff5906001600160a01b0382161561373257565b63b06ebf3d60e01b5f5260045ffd5b91907f7fffffffffffffffffffffffffffffff5d576e7357a4501ddfe92f46681b20a084116137b8579160209360809260ff5f9560405194855216868401526040830152606082015282805260015afa15611ec9575f516001600160a01b038116156137ae57905f905f90565b505f906001905f90565b5050505f916003919056fe9016d09d72d40fdae2fd8ceac6b6234c7706214fd39c1cd1e609a0528c1993005c09ca1b9b8127a4fd9f3c384aac59b661441e820e17733753ff5f2e86e1e000f0c57e16840df040f15088dc2f81fe391c3923bec73e23a9662efc9c229c6a00a2646970667358221220ca190e66e4c20e74e5016824adb475fc4df8f4045aa91c537e538417fa9265e764736f6c634300081c0033f0c57e16840df040f15088dc2f81fe391c3923bec73e23a9662efc9c229c6a00","linkReferences":{}},"methodIdentifiers":{"areValidators(address[])":"8f381dbe","codeState(bytes32)":"c13911e8","codesStates(bytes32[])":"82bdeaad","commitBlocks((bytes32,uint48,bytes32,bytes32,(address,bytes32,address,uint128,(bytes32,address,uint128)[],(bytes32,address,bytes,uint128,(bytes32,bytes4))[])[])[],bytes[])":"01b1d156","commitCodes((bytes32,bool)[],bytes[])":"e97d3eb3","commitExecuteSlash((uint256,(address,uint256)[]),bytes[])":"45c955a1","commitRequestSlash((uint256,(address,uint48,(address,uint256)[])[]),bytes[])":"e2f37924","commitValidators((address[],uint256),bytes[])":"aaf0fe6a","computeSettings()":"84d22a4f","createProgram(bytes32,bytes32)":"527de0f9","createProgramWithDecoder(address,bytes32,bytes32)":"e7006a74","genesisBlockHash()":"28e24b3d","genesisTimestamp()":"cacf66ab","initialize(address,address,address,address,address,uint256,uint256,address[])":"977179d5","isValidator(address)":"facd743b","latestCommittedBlockHash()":"c9f16a11","lookupGenesisHash()":"8b1edf1e","middleware()":"f4f20ac0","mirrorImpl()":"e6fabc09","mirrorProxyImpl()":"65ecfea2","owner()":"8da5cb5b","programCodeId(address)":"9067088e","programsCodeIds(address[])":"baaf0201","programsCount()":"96a2ddfa","reinitialize()":"6c2eb350","renounceOwnership()":"715018a6","requestCodeValidation(bytes32,bytes32)":"1c149d8a","setMirror(address)":"3d43b418","signingThresholdPercentage()":"efd81abc","transferOwnership(address)":"f2fde38b","validatedCodesCount()":"007a32e7","validators()":"ca1e7819","validatorsCount()":"ed612f8c","validatorsThreshold()":"edc87225","wrappedVara()":"88f50cf0"},"storageLayout":{"storage":[],"types":{}},"id":121}