{"abi":[{"type":"constructor","inputs":[],"stateMutability":"nonpayable"},{"type":"function","name":"baseFee","inputs":[],"outputs":[{"name":"","type":"uint128","internalType":"uint128"}],"stateMutability":"view"},{"type":"function","name":"baseWeight","inputs":[],"outputs":[{"name":"","type":"uint64","internalType":"uint64"}],"stateMutability":"view"},{"type":"function","name":"codeState","inputs":[{"name":"codeId","type":"bytes32","internalType":"bytes32"}],"outputs":[{"name":"","type":"uint8","internalType":"enum IRouter.CodeState"}],"stateMutability":"view"},{"type":"function","name":"commitBlocks","inputs":[{"name":"blockCommitmentsArray","type":"tuple[]","internalType":"struct IRouter.BlockCommitment[]","components":[{"name":"blockHash","type":"bytes32","internalType":"bytes32"},{"name":"prevCommitmentHash","type":"bytes32","internalType":"bytes32"},{"name":"predBlockHash","type":"bytes32","internalType":"bytes32"},{"name":"transitions","type":"tuple[]","internalType":"struct IRouter.StateTransition[]","components":[{"name":"actorId","type":"address","internalType":"address"},{"name":"newStateHash","type":"bytes32","internalType":"bytes32"},{"name":"valueToReceive","type":"uint128","internalType":"uint128"},{"name":"valueClaims","type":"tuple[]","internalType":"struct IRouter.ValueClaim[]","components":[{"name":"messageId","type":"bytes32","internalType":"bytes32"},{"name":"destination","type":"address","internalType":"address"},{"name":"value","type":"uint128","internalType":"uint128"}]},{"name":"messages","type":"tuple[]","internalType":"struct IRouter.OutgoingMessage[]","components":[{"name":"id","type":"bytes32","internalType":"bytes32"},{"name":"destination","type":"address","internalType":"address"},{"name":"payload","type":"bytes","internalType":"bytes"},{"name":"value","type":"uint128","internalType":"uint128"},{"name":"replyDetails","type":"tuple","internalType":"struct IRouter.ReplyDetails","components":[{"name":"to","type":"bytes32","internalType":"bytes32"},{"name":"code","type":"bytes4","internalType":"bytes4"}]}]}]}]},{"name":"signatures","type":"bytes[]","internalType":"bytes[]"}],"outputs":[],"stateMutability":"nonpayable"},{"type":"function","name":"commitCodes","inputs":[{"name":"codeCommitmentsArray","type":"tuple[]","internalType":"struct IRouter.CodeCommitment[]","components":[{"name":"id","type":"bytes32","internalType":"bytes32"},{"name":"valid","type":"bool","internalType":"bool"}]},{"name":"signatures","type":"bytes[]","internalType":"bytes[]"}],"outputs":[],"stateMutability":"nonpayable"},{"type":"function","name":"createProgram","inputs":[{"name":"codeId","type":"bytes32","internalType":"bytes32"},{"name":"salt","type":"bytes32","internalType":"bytes32"},{"name":"payload","type":"bytes","internalType":"bytes"},{"name":"_value","type":"uint128","internalType":"uint128"}],"outputs":[{"name":"","type":"address","internalType":"address"}],"stateMutability":"payable"},{"type":"function","name":"genesisBlockHash","inputs":[],"outputs":[{"name":"","type":"bytes32","internalType":"bytes32"}],"stateMutability":"view"},{"type":"function","name":"getStorageSlot","inputs":[],"outputs":[{"name":"","type":"bytes32","internalType":"bytes32"}],"stateMutability":"view"},{"type":"function","name":"initialize","inputs":[{"name":"initialOwner","type":"address","internalType":"address"},{"name":"_mirror","type":"address","internalType":"address"},{"name":"_mirrorProxy","type":"address","internalType":"address"},{"name":"_wrappedVara","type":"address","internalType":"address"},{"name":"_validatorAddressArray","type":"address[]","internalType":"address[]"}],"outputs":[],"stateMutability":"nonpayable"},{"type":"function","name":"lastBlockCommitmentHash","inputs":[],"outputs":[{"name":"","type":"bytes32","internalType":"bytes32"}],"stateMutability":"view"},{"type":"function","name":"mirror","inputs":[],"outputs":[{"name":"","type":"address","internalType":"address"}],"stateMutability":"view"},{"type":"function","name":"mirrorProxy","inputs":[],"outputs":[{"name":"","type":"address","internalType":"address"}],"stateMutability":"view"},{"type":"function","name":"owner","inputs":[],"outputs":[{"name":"","type":"address","internalType":"address"}],"stateMutability":"view"},{"type":"function","name":"programCodeId","inputs":[{"name":"program","type":"address","internalType":"address"}],"outputs":[{"name":"","type":"bytes32","internalType":"bytes32"}],"stateMutability":"view"},{"type":"function","name":"programsCount","inputs":[],"outputs":[{"name":"","type":"uint256","internalType":"uint256"}],"stateMutability":"view"},{"type":"function","name":"renounceOwnership","inputs":[],"outputs":[],"stateMutability":"nonpayable"},{"type":"function","name":"requestCodeValidation","inputs":[{"name":"codeId","type":"bytes32","internalType":"bytes32"},{"name":"blobTxHash","type":"bytes32","internalType":"bytes32"}],"outputs":[],"stateMutability":"nonpayable"},{"type":"function","name":"setBaseWeight","inputs":[{"name":"_baseWeight","type":"uint64","internalType":"uint64"}],"outputs":[],"stateMutability":"nonpayable"},{"type":"function","name":"setMirror","inputs":[{"name":"_mirror","type":"address","internalType":"address"}],"outputs":[],"stateMutability":"nonpayable"},{"type":"function","name":"setStorageSlot","inputs":[{"name":"namespace","type":"string","internalType":"string"}],"outputs":[],"stateMutability":"nonpayable"},{"type":"function","name":"setValuePerWeight","inputs":[{"name":"_valuePerWeight","type":"uint128","internalType":"uint128"}],"outputs":[],"stateMutability":"nonpayable"},{"type":"function","name":"signingThresholdPercentage","inputs":[],"outputs":[{"name":"","type":"uint256","internalType":"uint256"}],"stateMutability":"view"},{"type":"function","name":"transferOwnership","inputs":[{"name":"newOwner","type":"address","internalType":"address"}],"outputs":[],"stateMutability":"nonpayable"},{"type":"function","name":"updateValidators","inputs":[{"name":"validatorsAddressArray","type":"address[]","internalType":"address[]"}],"outputs":[],"stateMutability":"nonpayable"},{"type":"function","name":"validatedCodesCount","inputs":[],"outputs":[{"name":"","type":"uint256","internalType":"uint256"}],"stateMutability":"view"},{"type":"function","name":"validatorExists","inputs":[{"name":"validator","type":"address","internalType":"address"}],"outputs":[{"name":"","type":"bool","internalType":"bool"}],"stateMutability":"view"},{"type":"function","name":"validators","inputs":[],"outputs":[{"name":"","type":"address[]","internalType":"address[]"}],"stateMutability":"view"},{"type":"function","name":"validatorsCount","inputs":[],"outputs":[{"name":"","type":"uint256","internalType":"uint256"}],"stateMutability":"view"},{"type":"function","name":"validatorsThreshold","inputs":[],"outputs":[{"name":"","type":"uint256","internalType":"uint256"}],"stateMutability":"view"},{"type":"function","name":"valuePerWeight","inputs":[],"outputs":[{"name":"","type":"uint128","internalType":"uint128"}],"stateMutability":"view"},{"type":"function","name":"wrappedVara","inputs":[],"outputs":[{"name":"","type":"address","internalType":"address"}],"stateMutability":"view"},{"type":"event","name":"BaseWeightChanged","inputs":[{"name":"baseWeight","type":"uint64","indexed":false,"internalType":"uint64"}],"anonymous":false},{"type":"event","name":"BlockCommitted","inputs":[{"name":"blockHash","type":"bytes32","indexed":false,"internalType":"bytes32"}],"anonymous":false},{"type":"event","name":"CodeGotValidated","inputs":[{"name":"id","type":"bytes32","indexed":false,"internalType":"bytes32"},{"name":"valid","type":"bool","indexed":true,"internalType":"bool"}],"anonymous":false},{"type":"event","name":"CodeValidationRequested","inputs":[{"name":"codeId","type":"bytes32","indexed":false,"internalType":"bytes32"},{"name":"blobTxHash","type":"bytes32","indexed":false,"internalType":"bytes32"}],"anonymous":false},{"type":"event","name":"Initialized","inputs":[{"name":"version","type":"uint64","indexed":false,"internalType":"uint64"}],"anonymous":false},{"type":"event","name":"OwnershipTransferred","inputs":[{"name":"previousOwner","type":"address","indexed":true,"internalType":"address"},{"name":"newOwner","type":"address","indexed":true,"internalType":"address"}],"anonymous":false},{"type":"event","name":"ProgramCreated","inputs":[{"name":"actorId","type":"address","indexed":false,"internalType":"address"},{"name":"codeId","type":"bytes32","indexed":true,"internalType":"bytes32"}],"anonymous":false},{"type":"event","name":"StorageSlotChanged","inputs":[],"anonymous":false},{"type":"event","name":"ValidatorsSetChanged","inputs":[],"anonymous":false},{"type":"event","name":"ValuePerWeightChanged","inputs":[{"name":"valuePerWeight","type":"uint128","indexed":false,"internalType":"uint128"}],"anonymous":false},{"type":"error","name":"ECDSAInvalidSignature","inputs":[]},{"type":"error","name":"ECDSAInvalidSignatureLength","inputs":[{"name":"length","type":"uint256","internalType":"uint256"}]},{"type":"error","name":"ECDSAInvalidSignatureS","inputs":[{"name":"s","type":"bytes32","internalType":"bytes32"}]},{"type":"error","name":"FailedDeployment","inputs":[]},{"type":"error","name":"InsufficientBalance","inputs":[{"name":"balance","type":"uint256","internalType":"uint256"},{"name":"needed","type":"uint256","internalType":"uint256"}]},{"type":"error","name":"InvalidInitialization","inputs":[]},{"type":"error","name":"NotInitializing","inputs":[]},{"type":"error","name":"OwnableInvalidOwner","inputs":[{"name":"owner","type":"address","internalType":"address"}]},{"type":"error","name":"OwnableUnauthorizedAccount","inputs":[{"name":"account","type":"address","internalType":"address"}]},{"type":"error","name":"ReentrancyGuardReentrantCall","inputs":[]}],"bytecode":{"object":"0x6080604052348015600e575f80fd5b5060156019565b60c9565b7ff0c57e16840df040f15088dc2f81fe391c3923bec73e23a9662efc9c229c6a00805468010000000000000000900460ff161560685760405163f92ee8a960e01b815260040160405180910390fd5b80546001600160401b039081161460c65780546001600160401b0319166001600160401b0390811782556040519081527fc7f505b2f371ae2175ee4913f4499e1f2633a7b5936321eed1cdaeb6115181d29060200160405180910390a15b50565b612c60806100d65f395ff3fe6080604052600436106101cf575f3560e01c80638febbd59116100fd578063e71731e411610092578063efd81abc11610062578063efd81abc1461052a578063f2fde38b1461053e578063f8453e7c1461055d578063fa97ed6d1461057c575f80fd5b8063e71731e4146104c4578063e97d3eb3146104e3578063ed612f8c14610502578063edc8722514610516575f80fd5b8063a6bbbe1c116100cd578063a6bbbe1c1461042c578063c13911e81461044b578063ca1e781914610477578063d3fd636414610498575f80fd5b80638febbd59146103975780639067088e146103c657806396708226146103e557806396a2ddfa14610418575f80fd5b80635686cad5116101735780638028861a116101435780638028861a146103155780638074b4551461033457806388f50cf0146103475780638da5cb5b1461035b575f80fd5b80635686cad5146102ba5780636ef25c3a146102d9578063715018a6146102ed57806378ee5dec14610301575f80fd5b806328e24b3d116101ae57806328e24b3d146102475780632dacfb691461025b5780633d43b4181461026f578063444d91721461028e575f80fd5b80627a32e7146101d35780630834fecc146101fa5780631c149d8a14610226575b5f80fd5b3480156101de575f80fd5b506101e761059b565b6040519081526020015b60405180910390f35b348015610205575f80fd5b5061020e6105af565b6040516001600160801b0390911681526020016101f1565b348015610231575f80fd5b506102456102403660046122dc565b6105d3565b005b348015610252575f80fd5b506101e7610721565b348015610266575f80fd5b506101e7610732565b34801561027a575f80fd5b50610245610289366004612317565b610746565b348015610299575f80fd5b506102a261077c565b6040516001600160a01b0390911681526020016101f1565b3480156102c5575f80fd5b506102456102d4366004612374565b610799565b3480156102e4575f80fd5b5061020e610836565b3480156102f8575f80fd5b5061024561085f565b34801561030c575f80fd5b506102a2610872565b348015610320575f80fd5b5061024561032f366004612406565b61088f565b6102a2610342366004612442565b6108fc565b348015610352575f80fd5b506102a2610af4565b348015610366575f80fd5b507f9016d09d72d40fdae2fd8ceac6b6234c7706214fd39c1cd1e609a0528c199300546001600160a01b03166102a2565b3480156103a2575f80fd5b506103b66103b1366004612317565b610b11565b60405190151581526020016101f1565b3480156103d1575f80fd5b506101e76103e0366004612317565b610b3f565b3480156103f0575f80fd5b507f5c09ca1b9b8127a4fd9f3c384aac59b661441e820e17733753ff5f2e86e1e000546101e7565b348015610423575f80fd5b506101e7610b6a565b348015610437575f80fd5b506102456104463660046124d1565b610b7e565b348015610456575f80fd5b5061046a6104653660046124ea565b610bfc565b6040516101f19190612515565b348015610482575f80fd5b5061048b610c1d565b6040516101f1919061253b565b3480156104a3575f80fd5b506104ac610c86565b6040516001600160401b0390911681526020016101f1565b3480156104cf575f80fd5b506102456104de3660046125cd565b610ca3565b3480156104ee575f80fd5b506102456104fd36600461260b565b610d1a565b34801561050d575f80fd5b506101e7610ef1565b348015610521575f80fd5b506101e7610f05565b348015610535575f80fd5b506101e7610f39565b348015610549575f80fd5b50610245610558366004612317565b610f4d565b348015610568575f80fd5b506102456105773660046126a3565b610f8a565b348015610587575f80fd5b50610245610596366004612793565b61115c565b5f806105a56111e4565b600a015492915050565b5f806105b96111e4565b60060154600160401b90046001600160801b031692915050565b801515806105e157505f4915155b6106325760405162461bcd60e51b815260206004820152601c60248201527f626c6f6254784861736820636f756c646e277420626520666f756e640000000060448201526064015b60405180910390fd5b5f61063b6111e4565b90505f8084815260098301602052604090205460ff16600281111561066257610662612501565b146106c85760405162461bcd60e51b815260206004820152603060248201527f636f64652077697468207375636820696420616c72656164792072657175657360448201526f1d1959081bdc881d985b1a59185d195960821b6064820152608401610629565b5f838152600982016020908152604091829020805460ff1916600117905581518581529081018490527f65672eaf4ff8b823ea29ae013fef437d1fa9ed431125263a7a1f0ac49eada396910160405180910390a1505050565b5f8061072b6111e4565b5492915050565b5f8061073c6111e4565b6004015492915050565b61074e611214565b5f6107576111e4565b60010180546001600160a01b0319166001600160a01b03939093169290921790915550565b5f806107866111e4565b600101546001600160a01b031692915050565b6107a1611214565b805160208201205f9060ff19906107ba906001906127f9565b6040516020016107cc91815260200190565b60408051601f198184030181529190528051602090910120169050807f5c09ca1b9b8127a4fd9f3c384aac59b661441e820e17733753ff5f2e86e1e000556040517f5aa0c6c9fb33211212ffe5bef7a4b5d511b82a611e6677052d984e2bcedeaccc905f90a15050565b5f61083f6105af565b610847610c86565b6001600160401b031661085a919061280c565b905090565b610867611214565b6108705f61126f565b565b5f8061087c6111e4565b600201546001600160a01b031692915050565b610897611214565b5f6108a06111e4565b60068101805467ffffffffffffffff19166001600160401b0385169081179091556040519081529091507f01326573cfc0bc40a2550923254394ebd7529e3e3301840dfa33cf786aead0c7906020015b60405180910390a15050565b5f806109066111e4565b905060025f88815260098301602052604090205460ff16600281111561092e5761092e612501565b146109925760405162461bcd60e51b815260206004820152602e60248201527f636f6465206d7573742062652076616c696461746564206265666f726520707260448201526d37b3b930b69031b932b0ba34b7b760911b6064820152608401610629565b5f61099b610836565b90505f6109a982600a61280c565b90505f856109b78385612835565b6109c19190612835565b90506109cc816112df565b600284015460408051602081018d90529081018b90525f91610a12916001600160a01b0390911690606001604051602081830303815290604052805190602001206113c3565b6001600160a01b0381165f908152600b8701602052604081208d9055600c8701805492935090610a4183612854565b90915550506040516001600160a01b03821681528b907f8008ec1d8798725ebfa0f2d128d52e8e717dcba6e0f786557eeee70614b02bf19060200160405180910390a26040516306f0ee9760e51b81526001600160a01b0382169063de1dd2e090610ab89032908d908d908d908a90600401612894565b5f604051808303815f87803b158015610acf575f80fd5b505af1158015610ae1573d5f803e3d5ffd5b50929d9c50505050505050505050505050565b5f80610afe6111e4565b600301546001600160a01b031692915050565b5f80610b1b6111e4565b6001600160a01b039093165f90815260079093016020525050604090205460ff1690565b5f80610b496111e4565b6001600160a01b039093165f908152600b9093016020525050604090205490565b5f80610b746111e4565b600c015492915050565b610b86611214565b5f610b8f6111e4565b60068101805477ffffffffffffffffffffffffffffffff00000000000000001916600160401b6001600160801b038616908102919091179091556040519081529091507f9f5e1796f1a0adf311f86170503308a06a16560a7679b7b6da35f4999200d740906020016108f0565b5f80610c066111e4565b5f9384526009016020525050604090205460ff1690565b60605f610c286111e4565b60088101805460408051602080840282018101909252828152939450830182828015610c7b57602002820191905f5260205f20905b81546001600160a01b03168152600190910190602001808311610c5d575b505050505091505090565b5f80610c906111e4565b600601546001600160401b031692915050565b610cab611214565b610cb36113d6565b610cee8282808060200260200160405190810160405280939291908181526020018383602002808284375f9201919091525061144692505050565b6040517f144bbc027dc176e94c43b7c1bcff2a8aa58ab434029eec294743cd4ab2e54f51905f90a15050565b5f610d236111e4565b905060605f5b85811015610ed65736878783818110610d4457610d446128da565b90506040020190505f610d5682611521565b90508381604051602001610d6b929190612905565b60408051601f198184030181529190529350813560015f82815260098801602052604090205460ff166002811115610da557610da5612501565b14610e025760405162461bcd60e51b815260206004820152602760248201527f636f64652073686f756c642062652072657175657374656420666f722076616c60448201526634b230ba34b7b760c91b6064820152608401610629565b610e12604084016020850161292a565b15610e81575f8181526009870160205260408120805460ff19166002179055600a8701805491610e4183612854565b90915550506040518181526001907f460119a8f69a33ed127de517d5ea464e958ce23ef19e4420a8b92bf780bbc2c99060200160405180910390a2610ecb565b5f8181526009870160209081526040808320805460ff19169055518381527f460119a8f69a33ed127de517d5ea464e958ce23ef19e4420a8b92bf780bbc2c9910160405180910390a25b505050600101610d29565b50610ee981805190602001208585611570565b505050505050565b5f80610efb6111e4565b6008015492915050565b5f612710610f11610f39565b610f19610ef1565b610f239190612945565b610f2f9061270f61295c565b61085a919061296f565b5f80610f436111e4565b6005015492915050565b610f55611214565b6001600160a01b038116610f7e57604051631e4fbdf760e01b81525f6004820152602401610629565b610f878161126f565b50565b7ff0c57e16840df040f15088dc2f81fe391c3923bec73e23a9662efc9c229c6a008054600160401b810460ff1615906001600160401b03165f81158015610fce5750825b90505f826001600160401b03166001148015610fe95750303b155b905081158015610ff7575080155b156110155760405163f92ee8a960e01b815260040160405180910390fd5b845467ffffffffffffffff19166001178555831561103f57845460ff60401b1916600160401b1785555b6110488a611714565b61107e604051806040016040528060158152602001743937baba32b91739ba37b930b3b2972937baba32b960591b815250610799565b5f6110876111e4565b90506110946001436127f9565b4081556001810180546001600160a01b03199081166001600160a01b038d81169190911790925560028301805482168c8416179055600383018054909116918a16919091179055611a0a60058201556006810180546001600160c01b031916680a000000009502f90017905561110987611446565b50831561115057845460ff60401b19168555604051600181527fc7f505b2f371ae2175ee4913f4499e1f2633a7b5936321eed1cdaeb6115181d29060200160405180910390a15b50505050505050505050565b60605f5b848110156111ca573686868381811061117b5761117b6128da565b905060200281019061118d919061298e565b90505f61119982611725565b905083816040516020016111ae929190612905565b60408051808303601f1901815291905293505050600101611160565b506111dd81805190602001208484611570565b5050505050565b5f8061120e7f5c09ca1b9b8127a4fd9f3c384aac59b661441e820e17733753ff5f2e86e1e0005490565b92915050565b336112467f9016d09d72d40fdae2fd8ceac6b6234c7706214fd39c1cd1e609a0528c199300546001600160a01b031690565b6001600160a01b0316146108705760405163118cdaa760e01b8152336004820152602401610629565b7f9016d09d72d40fdae2fd8ceac6b6234c7706214fd39c1cd1e609a0528c19930080546001600160a01b031981166001600160a01b03848116918217845560405192169182907f8be0079c531659141344cd1fd0a4f28419497f9722a3daafe3b4186f6b6457e0905f90a3505050565b5f6112e86111e4565b60038101546040516323b872dd60e01b81523260048201523060248201526001600160801b03851660448201529192505f916001600160a01b03909116906323b872dd906064016020604051808303815f875af115801561134b573d5f803e3d5ffd5b505050506040513d601f19601f8201168201806040525081019061136f91906129ac565b9050806113be5760405162461bcd60e51b815260206004820152601860248201527f6661696c656420746f20726574726965766520575661726100000000000000006044820152606401610629565b505050565b5f6113cf83835f6118fd565b9392505050565b5f6113df6111e4565b90505f5b6008820154811015611438575f826008018281548110611405576114056128da565b5f9182526020808320909101546001600160a01b0316825260078501905260409020805460ff19169055506001016113e3565b50610f87600882015f61224a565b5f61144f6111e4565b6008810154909150156114b05760405162461bcd60e51b815260206004820152602360248201527f70726576696f75732076616c696461746f727320776572656e27742072656d6f6044820152621d995960ea1b6064820152608401610629565b5f5b825181101561150b575f8382815181106114ce576114ce6128da565b6020908102919091018101516001600160a01b03165f9081526007850190915260409020805460ff191660019081179091559190910190506114b2565b5081516113be9060088301906020850190612265565b5f8135611534604084016020850161292a565b604051602001611553929190918252151560f81b602082015260210190565b604051602081830303815290604052805190602001209050919050565b5f6115796111e4565b90505f611584610f05565b90505f6115b48660405160200161159d91815260200190565b60408051601f198184030181529190523090611992565b90505f805b858110156116ba57365f8888848181106115d5576115d56128da565b90506020028101906115e791906129c7565b915091505f61162d83838080601f0160208091040260200160405190810160405280939291908181526020018383808284375f920191909152508a939250506119c49050565b6001600160a01b0381165f90815260078a01602052604090205490915060ff1615611671578661165c86612854565b9550850361166c575050506116ba565b6116af565b60405162461bcd60e51b8152602060048201526013602482015272696e636f7272656374207369676e617475726560681b6044820152606401610629565b5050506001016115b9565b508281101561170b5760405162461bcd60e51b815260206004820152601b60248201527f6e6f7420656e6f7567682076616c6964207369676e61747572657300000000006044820152606401610629565b50505050505050565b61171c6119ec565b610f8781611a35565b5f8061172f6111e4565b905082602001358160040154146117885760405162461bcd60e51b815260206004820181905260248201527f696e76616c69642070726576696f757320636f6d6d69746d656e7420686173686044820152606401610629565b6117958360400135611a3d565b6117ed5760405162461bcd60e51b815260206004820152602360248201527f616c6c6f776564207072656465636573736f7220626c6f636b206e6f7420666f6044820152621d5b9960ea1b6064820152608401610629565b60605f5b6117fe6060860186612a09565b905081101561187457366118156060870187612a09565b83818110611825576118256128da565b90506020028101906118379190612a4e565b90505f61184382611a8f565b90508381604051602001611858929190612905565b60408051808303601f19018152919052935050506001016117f1565b508335600483018190556040519081527fd756eca21e02cb0dbde1e44a4d9c6921b5c8aa4668cfa0752784b3dc855bce1e9060200160405180910390a180516020828101919091206040805187358185015283880135818301528188013560608201526080808201939093528151808203909301835260a001905280519101205b949350505050565b5f814710156119285760405163cf47918160e01b815247600482015260248101839052604401610629565b763d602d80600a3d3981f3363d3d373d3d3d363d730000008460601b60e81c175f526e5af43d82803e903d91602b57fd5bf38460781b17602052826037600984f590506001600160a01b0381166113cf5760405163b06ebf3d60e01b815260040160405180910390fd5b5f82826040516020016119a6929190612a62565b60405160208183030381529060405280519060200120905092915050565b5f805f806119d28686612022565b9250925092506119e2828261206b565b5090949350505050565b7ff0c57e16840df040f15088dc2f81fe391c3923bec73e23a9662efc9c229c6a0054600160401b900460ff1661087057604051631afcd79f60e31b815260040160405180910390fd5b610f556119ec565b5f80611a4a6001436127f9565b90505b8015611a87578040838103611a66575060019392505050565b5f819003611a745750611a87565b5080611a7f81612a8b565b915050611a4d565b505f92915050565b5f80611a996111e4565b9050600b81015f611aad6020860186612317565b6001600160a01b03166001600160a01b031681526020019081526020015f20545f801b03611b355760405162461bcd60e51b815260206004820152602f60248201527f636f756c646e277420706572666f726d207472616e736974696f6e20666f722060448201526e756e6b6e6f776e2070726f6772616d60881b6064820152608401610629565b60038101546001600160a01b03168063a9059cbb611b566020870187612317565b611b6660608801604089016124d1565b6040516001600160e01b031960e085901b1681526001600160a01b0390921660048301526001600160801b031660248201526044016020604051808303815f875af1158015611bb7573d5f803e3d5ffd5b505050506040513d601f19601f82011682018060405250810190611bdb91906129ac565b505f611bea6020860186612317565b905060605f5b611bfd6060880188612aa0565b9050811015611d6b5736611c146060890189612aa0565b83818110611c2457611c246128da565b6060029190910191508390508135611c426040840160208501612317565b611c5260608501604086016124d1565b604051602001611c8f9392919092835260609190911b6001600160601b031916602083015260801b6001600160801b031916603482015260440190565b60408051601f1981840301815290829052611cad9291602001612ae4565b6040516020818303038152906040529250836001600160a01b03166314503e51825f0135836020016020810190611ce49190612317565b611cf460608601604087016124d1565b6040516001600160e01b031960e086901b16815260048101939093526001600160a01b0390911660248301526001600160801b031660448201526064015f604051808303815f87803b158015611d48575f80fd5b505af1158015611d5a573d5f803e3d5ffd5b505060019093019250611bf0915050565b5060605f5b611d7d6080890189612a09565b9050811015611f295736611d9460808a018a612a09565b83818110611da457611da46128da565b9050602002810190611db69190612af8565b905082611dc282612127565b604051602001611dd3929190612905565b60408051601f19818403018152919052925060808101355f03611e80576001600160a01b03851663c2df60098235611e116040850160208601612317565b611e1e60408601866129c7565b611e2e60808801606089016124d1565b6040518663ffffffff1660e01b8152600401611e4e959493929190612b0c565b5f604051808303815f87803b158015611e65575f80fd5b505af1158015611e77573d5f803e3d5ffd5b50505050611f20565b6001600160a01b03851663c78bde77611e9f6040840160208501612317565b611eac60408501856129c7565b611ebc60808701606088016124d1565b6080870135611ed160c0890160a08a01612b51565b6040518763ffffffff1660e01b8152600401611ef296959493929190612b78565b5f604051808303815f87803b158015611f09575f80fd5b505af1158015611f1b573d5f803e3d5ffd5b505050505b50600101611d70565b50604051638ea59e1d60e01b8152602088013560048201526001600160a01b03841690638ea59e1d906024015f604051808303815f87803b158015611f6c575f80fd5b505af1158015611f7e573d5f803e3d5ffd5b506120179250611f949150506020890189612317565b6020890135611fa960608b0160408c016124d1565b85516020808801919091208651878301206040805160609790971b6001600160601b03191687850152603487019590955260809390931b6001600160801b031916605486015260648501526084808501929092528251808503909201825260a4909301909152805191012090565b979650505050505050565b5f805f8351604103612059576020840151604085015160608601515f1a61204b88828585612182565b955095509550505050612064565b505081515f91506002905b9250925092565b5f82600381111561207e5761207e612501565b03612087575050565b600182600381111561209b5761209b612501565b036120b95760405163f645eedf60e01b815260040160405180910390fd5b60028260038111156120cd576120cd612501565b036120ee5760405163fce698f760e01b815260048101829052602401610629565b600382600381111561210257612102612501565b03612123576040516335e2f38360e21b815260048101829052602401610629565b5050565b5f813561213a6040840160208501612317565b61214760408501856129c7565b61215760808701606088016124d1565b608087013561216c60c0890160a08a01612b51565b6040516020016115539796959493929190612bcd565b5f80807f7fffffffffffffffffffffffffffffff5d576e7357a4501ddfe92f46681b20a08411156121bb57505f91506003905082612240565b604080515f808252602082018084528a905260ff891692820192909252606081018790526080810186905260019060a0016020604051602081039080840390855afa15801561220c573d5f803e3d5ffd5b5050604051601f1901519150506001600160a01b03811661223757505f925060019150829050612240565b92505f91508190505b9450945094915050565b5080545f8255905f5260205f2090810190610f8791906122c8565b828054828255905f5260205f209081019282156122b8579160200282015b828111156122b857825182546001600160a01b0319166001600160a01b03909116178255602090920191600190910190612283565b506122c49291506122c8565b5090565b5b808211156122c4575f81556001016122c9565b5f80604083850312156122ed575f80fd5b50508035926020909101359150565b80356001600160a01b0381168114612312575f80fd5b919050565b5f60208284031215612327575f80fd5b6113cf826122fc565b634e487b7160e01b5f52604160045260245ffd5b604051601f8201601f191681016001600160401b038111828210171561236c5761236c612330565b604052919050565b5f60208284031215612384575f80fd5b81356001600160401b03811115612399575f80fd5b8201601f810184136123a9575f80fd5b80356001600160401b038111156123c2576123c2612330565b6123d5601f8201601f1916602001612344565b8181528560208385010111156123e9575f80fd5b816020840160208301375f91810160200191909152949350505050565b5f60208284031215612416575f80fd5b81356001600160401b03811681146113cf575f80fd5b80356001600160801b0381168114612312575f80fd5b5f805f805f60808688031215612456575f80fd5b853594506020860135935060408601356001600160401b03811115612479575f80fd5b8601601f81018813612489575f80fd5b80356001600160401b0381111561249e575f80fd5b8860208284010111156124af575f80fd5b602091909101935091506124c56060870161242c565b90509295509295909350565b5f602082840312156124e1575f80fd5b6113cf8261242c565b5f602082840312156124fa575f80fd5b5035919050565b634e487b7160e01b5f52602160045260245ffd5b602081016003831061253557634e487b7160e01b5f52602160045260245ffd5b91905290565b602080825282518282018190525f918401906040840190835b8181101561257b5783516001600160a01b0316835260209384019390920191600101612554565b509095945050505050565b5f8083601f840112612596575f80fd5b5081356001600160401b038111156125ac575f80fd5b6020830191508360208260051b85010111156125c6575f80fd5b9250929050565b5f80602083850312156125de575f80fd5b82356001600160401b038111156125f3575f80fd5b6125ff85828601612586565b90969095509350505050565b5f805f806040858703121561261e575f80fd5b84356001600160401b03811115612633575f80fd5b8501601f81018713612643575f80fd5b80356001600160401b03811115612658575f80fd5b8760208260061b840101111561266c575f80fd5b6020918201955093508501356001600160401b0381111561268b575f80fd5b61269787828801612586565b95989497509550505050565b5f805f805f60a086880312156126b7575f80fd5b6126c0866122fc565b94506126ce602087016122fc565b93506126dc604087016122fc565b92506126ea606087016122fc565b915060808601356001600160401b03811115612704575f80fd5b8601601f81018813612714575f80fd5b80356001600160401b0381111561272d5761272d612330565b8060051b61273d60208201612344565b9182526020818401810192908101908b841115612758575f80fd5b6020850194505b8385101561278157612770856122fc565b82526020948501949091019061275f565b80955050505050509295509295909350565b5f805f80604085870312156127a6575f80fd5b84356001600160401b038111156127bb575f80fd5b6127c787828801612586565b90955093505060208501356001600160401b0381111561268b575f80fd5b634e487b7160e01b5f52601160045260245ffd5b8181038181111561120e5761120e6127e5565b6001600160801b03818116838216029081169081811461282e5761282e6127e5565b5092915050565b6001600160801b03818116838216019081111561120e5761120e6127e5565b5f60018201612865576128656127e5565b5060010190565b81835281816020850137505f828201602090810191909152601f909101601f19169091010190565b6001600160a01b03861681526080602082018190525f906128b8908301868861286c565b6001600160801b03948516604084015292909316606090910152949350505050565b634e487b7160e01b5f52603260045260245ffd5b5f81518060208401855e5f93019283525090919050565b5f61291082856128ee565b9283525050602001919050565b8015158114610f87575f80fd5b5f6020828403121561293a575f80fd5b81356113cf8161291d565b808202811582820484141761120e5761120e6127e5565b8082018082111561120e5761120e6127e5565b5f8261298957634e487b7160e01b5f52601260045260245ffd5b500490565b5f8235607e198336030181126129a2575f80fd5b9190910192915050565b5f602082840312156129bc575f80fd5b81516113cf8161291d565b5f808335601e198436030181126129dc575f80fd5b8301803591506001600160401b038211156129f5575f80fd5b6020019150368190038213156125c6575f80fd5b5f808335601e19843603018112612a1e575f80fd5b8301803591506001600160401b03821115612a37575f80fd5b6020019150600581901b36038213156125c6575f80fd5b5f8235609e198336030181126129a2575f80fd5b601960f81b8152606083901b6001600160601b03191660028201525f6118f560168301846128ee565b5f81612a9957612a996127e5565b505f190190565b5f808335601e19843603018112612ab5575f80fd5b8301803591506001600160401b03821115612ace575f80fd5b60200191506060810236038213156125c6575f80fd5b5f6118f5612af283866128ee565b846128ee565b5f823560be198336030181126129a2575f80fd5b8581526001600160a01b03851660208201526080604082018190525f90612b36908301858761286c565b90506001600160801b03831660608301529695505050505050565b5f60208284031215612b61575f80fd5b81356001600160e01b0319811681146113cf575f80fd5b6001600160a01b038716815260a0602082018190525f90612b9c908301878961286c565b6001600160801b039590951660408301525060608101929092526001600160e01b0319166080909101529392505050565b8781526bffffffffffffffffffffffff198760601b1660208201528486603483013760809390931b6001600160801b0319166034949093019384019290925260448301526001600160e01b0319166064820152606801939250505056fea2646970667358221220cdae2caffe3f8d0a31f1acc9ef7db5a30a7aff35689eceb75caf7feed87a43ea64736f6c634300081a0033","linkReferences":{}},"methodIdentifiers":{"baseFee()":"6ef25c3a","baseWeight()":"d3fd6364","codeState(bytes32)":"c13911e8","commitBlocks((bytes32,bytes32,bytes32,(address,bytes32,uint128,(bytes32,address,uint128)[],(bytes32,address,bytes,uint128,(bytes32,bytes4))[])[])[],bytes[])":"fa97ed6d","commitCodes((bytes32,bool)[],bytes[])":"e97d3eb3","createProgram(bytes32,bytes32,bytes,uint128)":"8074b455","genesisBlockHash()":"28e24b3d","getStorageSlot()":"96708226","initialize(address,address,address,address,address[])":"f8453e7c","lastBlockCommitmentHash()":"2dacfb69","mirror()":"444d9172","mirrorProxy()":"78ee5dec","owner()":"8da5cb5b","programCodeId(address)":"9067088e","programsCount()":"96a2ddfa","renounceOwnership()":"715018a6","requestCodeValidation(bytes32,bytes32)":"1c149d8a","setBaseWeight(uint64)":"8028861a","setMirror(address)":"3d43b418","setStorageSlot(string)":"5686cad5","setValuePerWeight(uint128)":"a6bbbe1c","signingThresholdPercentage()":"efd81abc","transferOwnership(address)":"f2fde38b","updateValidators(address[])":"e71731e4","validatedCodesCount()":"007a32e7","validatorExists(address)":"8febbd59","validators()":"ca1e7819","validatorsCount()":"ed612f8c","validatorsThreshold()":"edc87225","valuePerWeight()":"0834fecc","wrappedVara()":"88f50cf0"},"storageLayout":{"storage":[],"types":{}},"id":78}