{"abi":[{"type":"constructor","inputs":[],"stateMutability":"nonpayable"},{"type":"function","name":"baseFee","inputs":[],"outputs":[{"name":"","type":"uint128","internalType":"uint128"}],"stateMutability":"view"},{"type":"function","name":"baseWeight","inputs":[],"outputs":[{"name":"","type":"uint64","internalType":"uint64"}],"stateMutability":"view"},{"type":"function","name":"codeState","inputs":[{"name":"codeId","type":"bytes32","internalType":"bytes32"}],"outputs":[{"name":"","type":"uint8","internalType":"enum IRouter.CodeState"}],"stateMutability":"view"},{"type":"function","name":"commitBlocks","inputs":[{"name":"blockCommitmentsArray","type":"tuple[]","internalType":"struct IRouter.BlockCommitment[]","components":[{"name":"blockHash","type":"bytes32","internalType":"bytes32"},{"name":"prevCommitmentHash","type":"bytes32","internalType":"bytes32"},{"name":"predBlockHash","type":"bytes32","internalType":"bytes32"},{"name":"transitions","type":"tuple[]","internalType":"struct IRouter.StateTransition[]","components":[{"name":"actorId","type":"address","internalType":"address"},{"name":"newStateHash","type":"bytes32","internalType":"bytes32"},{"name":"valueToReceive","type":"uint128","internalType":"uint128"},{"name":"valueClaims","type":"tuple[]","internalType":"struct IRouter.ValueClaim[]","components":[{"name":"messageId","type":"bytes32","internalType":"bytes32"},{"name":"destination","type":"address","internalType":"address"},{"name":"value","type":"uint128","internalType":"uint128"}]},{"name":"messages","type":"tuple[]","internalType":"struct IRouter.OutgoingMessage[]","components":[{"name":"id","type":"bytes32","internalType":"bytes32"},{"name":"destination","type":"address","internalType":"address"},{"name":"payload","type":"bytes","internalType":"bytes"},{"name":"value","type":"uint128","internalType":"uint128"},{"name":"replyDetails","type":"tuple","internalType":"struct IRouter.ReplyDetails","components":[{"name":"to","type":"bytes32","internalType":"bytes32"},{"name":"code","type":"bytes4","internalType":"bytes4"}]}]}]}]},{"name":"signatures","type":"bytes[]","internalType":"bytes[]"}],"outputs":[],"stateMutability":"nonpayable"},{"type":"function","name":"commitCodes","inputs":[{"name":"codeCommitmentsArray","type":"tuple[]","internalType":"struct IRouter.CodeCommitment[]","components":[{"name":"id","type":"bytes32","internalType":"bytes32"},{"name":"valid","type":"bool","internalType":"bool"}]},{"name":"signatures","type":"bytes[]","internalType":"bytes[]"}],"outputs":[],"stateMutability":"nonpayable"},{"type":"function","name":"createProgram","inputs":[{"name":"codeId","type":"bytes32","internalType":"bytes32"},{"name":"salt","type":"bytes32","internalType":"bytes32"},{"name":"payload","type":"bytes","internalType":"bytes"},{"name":"_value","type":"uint128","internalType":"uint128"}],"outputs":[{"name":"","type":"address","internalType":"address"}],"stateMutability":"payable"},{"type":"function","name":"createProgramWithDecoder","inputs":[{"name":"decoderImplementation","type":"address","internalType":"address"},{"name":"codeId","type":"bytes32","internalType":"bytes32"},{"name":"salt","type":"bytes32","internalType":"bytes32"},{"name":"payload","type":"bytes","internalType":"bytes"},{"name":"_value","type":"uint128","internalType":"uint128"}],"outputs":[{"name":"","type":"address","internalType":"address"}],"stateMutability":"payable"},{"type":"function","name":"genesisBlockHash","inputs":[],"outputs":[{"name":"","type":"bytes32","internalType":"bytes32"}],"stateMutability":"view"},{"type":"function","name":"getStorageSlot","inputs":[],"outputs":[{"name":"","type":"bytes32","internalType":"bytes32"}],"stateMutability":"view"},{"type":"function","name":"initialize","inputs":[{"name":"initialOwner","type":"address","internalType":"address"},{"name":"_mirror","type":"address","internalType":"address"},{"name":"_mirrorProxy","type":"address","internalType":"address"},{"name":"_wrappedVara","type":"address","internalType":"address"},{"name":"_validatorsKeys","type":"address[]","internalType":"address[]"}],"outputs":[],"stateMutability":"nonpayable"},{"type":"function","name":"lastBlockCommitmentHash","inputs":[],"outputs":[{"name":"","type":"bytes32","internalType":"bytes32"}],"stateMutability":"view"},{"type":"function","name":"mirror","inputs":[],"outputs":[{"name":"","type":"address","internalType":"address"}],"stateMutability":"view"},{"type":"function","name":"mirrorProxy","inputs":[],"outputs":[{"name":"","type":"address","internalType":"address"}],"stateMutability":"view"},{"type":"function","name":"owner","inputs":[],"outputs":[{"name":"","type":"address","internalType":"address"}],"stateMutability":"view"},{"type":"function","name":"programCodeId","inputs":[{"name":"program","type":"address","internalType":"address"}],"outputs":[{"name":"","type":"bytes32","internalType":"bytes32"}],"stateMutability":"view"},{"type":"function","name":"programsCount","inputs":[],"outputs":[{"name":"","type":"uint256","internalType":"uint256"}],"stateMutability":"view"},{"type":"function","name":"reinitialize","inputs":[],"outputs":[],"stateMutability":"nonpayable"},{"type":"function","name":"renounceOwnership","inputs":[],"outputs":[],"stateMutability":"nonpayable"},{"type":"function","name":"requestCodeValidation","inputs":[{"name":"codeId","type":"bytes32","internalType":"bytes32"},{"name":"blobTxHash","type":"bytes32","internalType":"bytes32"}],"outputs":[],"stateMutability":"nonpayable"},{"type":"function","name":"setBaseWeight","inputs":[{"name":"_baseWeight","type":"uint64","internalType":"uint64"}],"outputs":[],"stateMutability":"nonpayable"},{"type":"function","name":"setMirror","inputs":[{"name":"_mirror","type":"address","internalType":"address"}],"outputs":[],"stateMutability":"nonpayable"},{"type":"function","name":"setStorageSlot","inputs":[{"name":"namespace","type":"string","internalType":"string"}],"outputs":[],"stateMutability":"nonpayable"},{"type":"function","name":"setValuePerWeight","inputs":[{"name":"_valuePerWeight","type":"uint128","internalType":"uint128"}],"outputs":[],"stateMutability":"nonpayable"},{"type":"function","name":"signingThresholdPercentage","inputs":[],"outputs":[{"name":"","type":"uint256","internalType":"uint256"}],"stateMutability":"view"},{"type":"function","name":"transferOwnership","inputs":[{"name":"newOwner","type":"address","internalType":"address"}],"outputs":[],"stateMutability":"nonpayable"},{"type":"function","name":"updateValidators","inputs":[{"name":"validatorsAddressArray","type":"address[]","internalType":"address[]"}],"outputs":[],"stateMutability":"nonpayable"},{"type":"function","name":"validatedCodesCount","inputs":[],"outputs":[{"name":"","type":"uint256","internalType":"uint256"}],"stateMutability":"view"},{"type":"function","name":"validatorExists","inputs":[{"name":"validator","type":"address","internalType":"address"}],"outputs":[{"name":"","type":"bool","internalType":"bool"}],"stateMutability":"view"},{"type":"function","name":"validators","inputs":[],"outputs":[{"name":"","type":"address[]","internalType":"address[]"}],"stateMutability":"view"},{"type":"function","name":"validatorsCount","inputs":[],"outputs":[{"name":"","type":"uint256","internalType":"uint256"}],"stateMutability":"view"},{"type":"function","name":"validatorsThreshold","inputs":[],"outputs":[{"name":"","type":"uint256","internalType":"uint256"}],"stateMutability":"view"},{"type":"function","name":"valuePerWeight","inputs":[],"outputs":[{"name":"","type":"uint128","internalType":"uint128"}],"stateMutability":"view"},{"type":"function","name":"wrappedVara","inputs":[],"outputs":[{"name":"","type":"address","internalType":"address"}],"stateMutability":"view"},{"type":"event","name":"BaseWeightChanged","inputs":[{"name":"baseWeight","type":"uint64","indexed":false,"internalType":"uint64"}],"anonymous":false},{"type":"event","name":"BlockCommitted","inputs":[{"name":"blockHash","type":"bytes32","indexed":false,"internalType":"bytes32"}],"anonymous":false},{"type":"event","name":"CodeGotValidated","inputs":[{"name":"id","type":"bytes32","indexed":false,"internalType":"bytes32"},{"name":"valid","type":"bool","indexed":true,"internalType":"bool"}],"anonymous":false},{"type":"event","name":"CodeValidationRequested","inputs":[{"name":"codeId","type":"bytes32","indexed":false,"internalType":"bytes32"},{"name":"blobTxHash","type":"bytes32","indexed":false,"internalType":"bytes32"}],"anonymous":false},{"type":"event","name":"Initialized","inputs":[{"name":"version","type":"uint64","indexed":false,"internalType":"uint64"}],"anonymous":false},{"type":"event","name":"OwnershipTransferred","inputs":[{"name":"previousOwner","type":"address","indexed":true,"internalType":"address"},{"name":"newOwner","type":"address","indexed":true,"internalType":"address"}],"anonymous":false},{"type":"event","name":"ProgramCreated","inputs":[{"name":"actorId","type":"address","indexed":false,"internalType":"address"},{"name":"codeId","type":"bytes32","indexed":true,"internalType":"bytes32"}],"anonymous":false},{"type":"event","name":"StorageSlotChanged","inputs":[],"anonymous":false},{"type":"event","name":"ValidatorsSetChanged","inputs":[],"anonymous":false},{"type":"event","name":"ValuePerWeightChanged","inputs":[{"name":"valuePerWeight","type":"uint128","indexed":false,"internalType":"uint128"}],"anonymous":false},{"type":"error","name":"ECDSAInvalidSignature","inputs":[]},{"type":"error","name":"ECDSAInvalidSignatureLength","inputs":[{"name":"length","type":"uint256","internalType":"uint256"}]},{"type":"error","name":"ECDSAInvalidSignatureS","inputs":[{"name":"s","type":"bytes32","internalType":"bytes32"}]},{"type":"error","name":"FailedDeployment","inputs":[]},{"type":"error","name":"InsufficientBalance","inputs":[{"name":"balance","type":"uint256","internalType":"uint256"},{"name":"needed","type":"uint256","internalType":"uint256"}]},{"type":"error","name":"InvalidInitialization","inputs":[]},{"type":"error","name":"NotInitializing","inputs":[]},{"type":"error","name":"OwnableInvalidOwner","inputs":[{"name":"owner","type":"address","internalType":"address"}]},{"type":"error","name":"OwnableUnauthorizedAccount","inputs":[{"name":"account","type":"address","internalType":"address"}]},{"type":"error","name":"ReentrancyGuardReentrantCall","inputs":[]}],"bytecode":{"object":"0x6080806040523460d0577ff0c57e16840df040f15088dc2f81fe391c3923bec73e23a9662efc9c229c6a005460ff8160401c1660c1576002600160401b03196001600160401b03821601605c575b604051612a1890816100d58239f35b6001600160401b0319166001600160401b039081177ff0c57e16840df040f15088dc2f81fe391c3923bec73e23a9662efc9c229c6a005581527fc7f505b2f371ae2175ee4913f4499e1f2633a7b5936321eed1cdaeb6115181d290602090a15f80604d565b63f92ee8a960e01b5f5260045ffd5b5f80fdfe610200806040526004361015610013575f80fd5b5f6101e0525f3560e01c9081627a32e714611e16575080630834fecc14611ddf5780631c149d8a14611c8357806328e24b3d14611c595780632dacfb6914611c2c5780633d43b41814611bda578063444d917214611ba25780635686cad514611adc578063666d124c146119c65780636c2eb350146117b05780636ef25c3a14611782578063715018a61461171057806378ee5dec146116d55780638028861a146116535780638074b4551461159057806388f50cf0146115555780638da5cb5b1461151e5780638febbd59146114d15780639067088e14611489578063967082261461145d57806396a2ddfa1461142d578063a6bbbe1c1461137d578063c13911e814611331578063ca1e7819146112b4578063d3fd63641461127b578063e71731e414611169578063e97d3eb314610f1a578063ed612f8c14610eea578063edc8722514610ec5578063efd81abc14610e95578063f2fde38b14610e71578063f8453e7c14610b635763fa97ed6d1461018c575f80fd5b3461052c57604036600319011261052c576004356001600160401b03811161052c576101bc903690600401611efd565b906024356001600160401b03811161052c576101dc903690600401611efd565b6101e051606060a052909391925b82821015610b4757600582901b8101359236829003607e190184121561052c5760045f805160206129a38339815191525401608052608051546020858401013503610b035761023e604085840101356127b1565b15610ab2576101e0516101c0526060958285018701955b61026187878601612739565b90506101c0511015610a1d5761027987878601612739565b9060e0526101c0511015610541576101c05160051b60e051013560c052609e1960e05136030160c051121561052c575f805160206129a3833981519152546102c660c05160e051016127f4565b6001600160a01b03165f908152600b82016020526040902054156109c05760206001600160801b0391600360018060a01b0391015416604461030d60c05160e051016127f4565b61031f604060c05160e0510101612808565b60405163a9059cbb60e01b81526001600160a01b0390921660048301529490941660248501526101e05184928391905af1801561053357610994575b5060c05160e0516001600160a01b039161037591016127f4565b166101a0526101e051606061016081905260c05160e0510101610140525b6103a66101405160c05160e0510161281c565b905081101561055b576103c26101405160c05160e0510161281c565b9061018052811015610541576103e26020606083026101805101016127f4565b604060608302610180510101906104856103fb83612808565b6040519060208201936060870261018051013585526001600160601b03199060601b1660408301526001600160801b03199060801b16605482015260448152610445606482611e56565b60206040519384926101605151808461016051018587015e840190838201906101e0518252519283915e01016101e051815203601f198101835282611e56565b610160526104a66104a06020606085026101805101016127f4565b91612808565b6101a0513b1561052c576040516314503e5160e01b81526101805160608502013560048201526001600160a01b0390921660248301526001600160801b031660448201526101e0516101a0518290606490829084905af1801561053357610511575b50600101610393565b6101e05161051e91611e56565b6101e05161052c575f610508565b6101e05180fd5b6040513d6101e051823e3d90fd5b634e487b7160e01b6101e05152603260045260246101e051fd5b50909195929394956101e051610100526060610100526101e0515b60c05160e05161058b91016080810190612739565b905081101561087c5760c05160e0516105a991016080810190612739565b821015610541578160051b8101356101205260be198136030161012051121561052c5761069b6105e06020610120518401016127f4565b605461068f60346105fe604061012051880101610120518801612582565b93906106116060610120518a0101612808565b61062260a0610120518b0101612851565b86604051978894602086019a8d6101205101358c526001600160601b03199060601b166040870152868601378301916001600160801b03199060801b16848301526080610120518b010135606483015263ffffffff60e01b16608482015203016014810184520182611e56565b51902061010051612083565b6101005261012051810160800135610784576106be6020610120518301016127f4565b610120516106d29083016040810190612582565b90916106e5606061012051860101612808565b926101a0513b1561052c5760405163c2df600960e01b8152610120519095013560048601526001600160a01b039091166024850152608060448501526001600160801b039161073991608486019190611f91565b9116606483015281806101e0519203816101e0516101a0515af1801561053357610769575b506001905b01610576565b6101e05161077691611e56565b6101e05161052c575f61075e565b6107956020610120518301016127f4565b906107ad604061012051830101610120518301612582565b6107be606061012051850101612808565b926107d060a061012051830101612851565b926101a0513b1561052c5760405163c78bde7760e01b81526001600160a01b03909616600487015260a060248701526080926001600160801b03916108199160a4890191611f91565b9416604486015261012051010135606484015263ffffffff60e01b16608483015281806101e0519203816101e0516101a0515af1801561053357610861575b50600190610763565b6101e05161086e91611e56565b6101e05161052c575f610858565b5091909695949392956101a0513b1561052c57604051638ea59e1d60e01b8152602060c05160e05101013560048201526101e051816024816101e0516101a0515af1801561053357610979575b50610968906108dd60c05160e051016127f4565b6108ef604060c05160e0510101612808565b6101605151602061016051012061010051516020610100510120906040519260208401946001600160601b03199060601b168552602060c05160e05101013560348501526001600160801b03199060801b166054840152606483015260848201526084815261095f60a482611e56565b51902090612083565b9660016101c051016101c052610255565b6101e05161098691611e56565b6101e05161052c575f6108c9565b6109b49060203d81116109b9575b6109ac8183611e56565b81019061276e565b61035b565b503d6109a2565b60405162461bcd60e51b815260206004820152602f60248201527f636f756c646e277420706572666f726d207472616e736974696f6e20666f722060448201526e756e6b6e6f776e2070726f6772616d60881b6064820152608490fd5b9391966001939650610aa49195808801359182608051557fd756eca21e02cb0dbde1e44a4d9c6921b5c8aa4668cfa0752784b3dc855bce1e6020604051858152a1602081519101206040805192602084019485526020818c010135828501528a0101356060830152608082015260808152610a9960a082611e56565b51902060a051612083565b60a0520190929391936101ea565b60405162461bcd60e51b815260206004820152602360248201527f616c6c6f776564207072656465636573736f7220626c6f636b206e6f7420666f6044820152621d5b9960ea1b6064820152608490fd5b606460405162461bcd60e51b815260206004820152602060248201527f696e76616c69642070726576696f757320636f6d6d69746d656e7420686173686044820152fd5b610b5c858560a05151602060a05101206125b4565b6101e05180f35b3461052c5760a036600319011261052c57610b7c611e40565b602435906001600160a01b038216820361052c57604435916001600160a01b038316830361052c57606435926001600160a01b038416840361052c576084356001600160401b03811161052c573660238201121561052c57610be8903690602481600401359101611f2d565b905f805160206129c38339815191525460ff8160401c1615946001600160401b03821680159081610e69575b6001149081610e5f575b159081610e56575b50610e415767ffffffffffffffff1982166001175f805160206129c383398151915255610c699186610e15575b50610c5c612786565b610c64612786565b612109565b6040948551610c788782611e56565b6017815260208101907f726f757465722e73746f726167652e526f7574657256310000000000000000008252610cac61217a565b5190205f198101908111610dfb578651906020820190815260208252610cd28883611e56565b60ff19915190201690815f805160206129a3833981519152557f5aa0c6c9fb33211212ffe5bef7a4b5d511b82a611e6677052d984e2bcedeaccc6101e0516101e051a15f19430192438411610dfb57924082556001820180546001600160a01b03199081166001600160a01b03978816179091556002830180548216948716949094179093556003820180549093169416939093179055611a0a60058301556006919091018054680a000000009502f9006001600160c01b0319909116179055610d9b90612441565b610da6576101e05180f35b60207fc7f505b2f371ae2175ee4913f4499e1f2633a7b5936321eed1cdaeb6115181d29160ff60401b195f805160206129c383398151915254165f805160206129c3833981519152555160018152a180610b5c565b634e487b7160e01b6101e05152601160045260246101e051fd5b68ffffffffffffffffff191668010000000000000001175f805160206129c38339815191525587610c53565b63f92ee8a960e01b6101e0515260046101e051fd5b90501588610c26565b303b159150610c1e565b879150610c14565b3461052c57602036600319011261052c57610b5c610e8d611e40565b610c6461217a565b3461052c576101e05136600319011261052c57602060055f805160206129a3833981519152540154604051908152f35b3461052c576101e05136600319011261052c576020610ee26120cb565b604051908152f35b3461052c576101e05136600319011261052c57602060085f805160206129a3833981519152540154604051908152f35b3461052c57604036600319011261052c576004356001600160401b03811161052c573660238201121561052c578060040135906001600160401b03821161052c573660248360061b8301011161052c576024356001600160401b03811161052c57610f8a83913690600401611efd565b5f805160206129a3833981519152546101e0519460098201939192909160605b86881015611158576101e051508760061b840197610ff8604460248b01359a0192610fd4846120b0565b60405160208101918d8352151560f81b60408201526021815261095f604182611e56565b98806101e051528760205260ff60406101e051205416600381101561113e576001036110e9576110296001936120b0565b15611097577f460119a8f69a33ed127de517d5ea464e958ce23ef19e4420a8b92bf780bbc2c960208285936101e051528a825260406101e051206101e051506101e05150600260ff19825416179055600a8a0161108681546120bd565b9055604051908152a25b0196610faa565b806101e051528760205260406101e0512080546101e0515060ff191690556040519081527f460119a8f69a33ed127de517d5ea464e958ce23ef19e4420a8b92bf780bbc2c960206101e05192a2611090565b60405162461bcd60e51b815260206004820152602760248201527f636f64652073686f756c642062652072657175657374656420666f722076616c60448201526634b230ba34b7b760c91b6064820152608490fd5b634e487b7160e01b6101e05152602160045260246101e051fd5b610b5c9350602081519101206125b4565b3461052c57602036600319011261052c576004356001600160401b03811161052c57611199903690600401611efd565b6111a161217a565b5f805160206129a3833981519152546101e0516007820191600801905b81548110156111fe576101e08051839052516020908190208201546001600160a01b03165f9081529084905260409020805460ff191690556001016111be565b506101e0518154908255915081611254575b61122361121e368587611f2d565b612441565b7f144bbc027dc176e94c43b7c1bcff2a8aa58ab434029eec294743cd4ab2e54f516101e0516101e051a16101e05180f35b6101e0515260206101e05120908101905b81811015611210576101e0518155600101611265565b3461052c576101e05136600319011261052c5760206001600160401b0360065f805160206129a383398151915254015416604051908152f35b3461052c576101e05136600319011261052c576112e160085f805160206129a38339815191525401611fee565b6040518091602082016020835281518091526020604084019201906101e0515b81811061130f575050500390f35b82516001600160a01b0316845285945060209384019390920191600101611301565b3461052c57602036600319011261052c5760095f805160206129a383398151915254016004356101e0515260205260ff60406101e051205416604051600382101561113e576020918152f35b3461052c57602036600319011261052c576004356001600160801b0381169081810361052c577f9f5e1796f1a0adf311f86170503308a06a16560a7679b7b6da35f4999200d740916020916113d061217a565b5f805160206129a383398151915254600601805477ffffffffffffffffffffffffffffffff00000000000000001916604092831b77ffffffffffffffffffffffffffffffff00000000000000001617905551908152a16101e05180f35b3461052c576101e05136600319011261052c576020600c5f805160206129a3833981519152540154604051908152f35b3461052c576101e05136600319011261052c5760205f805160206129a383398151915254604051908152f35b3461052c57602036600319011261052c576114a2611e40565b600b5f805160206129a383398151915254019060018060a01b03165f52602052602060405f2054604051908152f35b3461052c57602036600319011261052c576114ea611e40565b60075f805160206129a383398151915254019060018060a01b03165f52602052602060ff60405f2054166040519015158152f35b3461052c576101e05136600319011261052c575f80516020612983833981519152546040516001600160a01b039091168152602090f35b3461052c576101e05136600319011261052c575f805160206129a383398151915254600301546040516001600160a01b039091168152602090f35b608036600319011261052c576044356001600160401b03811161052c576115bb903690600401611ed0565b90606435906001600160801b038216820361052c576115df826024356004356121cd565b6001600160a01b0390911693909290843b1561052c5761161960405194859384936306f0ee9760e51b85526101e051963260048701611fb1565b03816101e051865af1801561053357611638575b602082604051908152f35b6101e05161164591611e56565b6101e05161052c578161162d565b3461052c57602036600319011261052c576004356001600160401b03811680910361052c5760207f01326573cfc0bc40a2550923254394ebd7529e3e3301840dfa33cf786aead0c7916116a461217a565b5f805160206129a383398151915254600601805467ffffffffffffffff191682179055604051908152a16101e05180f35b3461052c576101e05136600319011261052c575f805160206129a383398151915254600201546040516001600160a01b039091168152602090f35b3461052c576101e05136600319011261052c5761172b61217a565b5f8051602061298383398151915280546001600160a01b031981169091556101e051906001600160a01b03167f8be0079c531659141344cd1fd0a4f28419497f9722a3daafe3b4186f6b6457e08280a36101e05180f35b3461052c576101e05136600319011261052c57602061179f612041565b6001600160801b0360405191168152f35b3461052c576101e05136600319011261052c576117cb61217a565b5f805160206129c38339815191525460ff8160401c1680156119b2575b610e415768ffffffffffffffffff191668010000000000000002175f805160206129c3833981519152555f805160206129a3833981519152546001810154600282015460038301546001600160a01b039081169391811692169061184e90600801611fee565b90604091825161185e8482611e56565b6017815260208101907f726f757465722e73746f726167652e526f757465725632000000000000000000825261189261217a565b5190205f198101908111610dfb5783519060208201908152602082526118b88583611e56565b60ff19915190201694855f805160206129a3833981519152557f5aa0c6c9fb33211212ffe5bef7a4b5d511b82a611e6677052d984e2bcedeaccc6101e0516101e051a15f194301438111610dfb574086556001860180546001600160a01b03199081166001600160a01b03958616179091556002870180548216968516969096179095556003909501805490941694909116939093179091557fc7f505b2f371ae2175ee4913f4499e1f2633a7b5936321eed1cdaeb6115181d2916020919061198090612441565b60ff60401b195f805160206129c383398151915254165f805160206129c3833981519152555160028152a16101e05180f35b5060026001600160401b03821610156117e8565b60a0366003190112611ad8576119da611e40565b602435604435916064356001600160401b038111611ad857611a00903690600401611ed0565b909160843591906001600160801b0383168303611ad857611a228387876121cd565b959060018060a01b0316966040519060208201928352604082015260408152611a4c606082611e56565b519020863b15611ad857604051635b1b84f760e01b81526001600160a01b03909216600483015260248201525f81604481838a5af18015611acd57611ab8575b50843b1561052c5761161960405194859384936306f0ee9760e51b85526101e051963260048701611fb1565b5f611ac291611e56565b5f6101e05285611a8c565b6040513d5f823e3d90fd5b5f80fd5b34611ad8576020366003190112611ad8576004356001600160401b038111611ad85736602382011215611ad857611b1d903690602481600401359101611e8b565b611b2561217a565b602081519101205f198101908111611b8e57604051906020820190815260208252611b51604083611e56565b9051902060ff19165f805160206129a3833981519152557f5aa0c6c9fb33211212ffe5bef7a4b5d511b82a611e6677052d984e2bcedeaccc5f80a1005b634e487b7160e01b5f52601160045260245ffd5b34611ad8575f366003190112611ad8575f805160206129a383398151915254600101546040516001600160a01b039091168152602090f35b34611ad8576020366003190112611ad857611bf3611e40565b611bfb61217a565b5f805160206129a38339815191525460010180546001600160a01b0319166001600160a01b03909216919091179055005b34611ad8575f366003190112611ad857602060045f805160206129a3833981519152540154604051908152f35b34611ad8575f366003190112611ad85760205f805160206129a38339815191525454604051908152f35b34611ad8576040366003190112611ad8576024356004358115801590611dd5575b15611d905760095f805160206129a3833981519152540190805f528160205260ff60405f2054166003811015611d7c57611d1e577f65672eaf4ff8b823ea29ae013fef437d1fa9ed431125263a7a1f0ac49eada39692604092825f52602052825f20600160ff1982541617905582519182526020820152a1005b60405162461bcd60e51b815260206004820152603060248201527f636f64652077697468207375636820696420616c72656164792072657175657360448201526f1d1959081bdc881d985b1a59185d195960821b6064820152608490fd5b634e487b7160e01b5f52602160045260245ffd5b60405162461bcd60e51b815260206004820152601c60248201527f626c6f6254784861736820636f756c646e277420626520666f756e64000000006044820152606490fd5b505f491515611ca4565b34611ad8575f366003190112611ad857602061179f6001600160801b0360065f805160206129a383398151915254015460401c1690565b34611ad8575f366003190112611ad857602090600a5f805160206129a38339815191525401548152f35b600435906001600160a01b0382168203611ad857565b90601f801991011681019081106001600160401b03821117611e7757604052565b634e487b7160e01b5f52604160045260245ffd5b9291926001600160401b038211611e775760405191611eb4601f8201601f191660200184611e56565b829481845281830111611ad8578281602093845f960137010152565b9181601f84011215611ad8578235916001600160401b038311611ad85760208381860195010111611ad857565b9181601f84011215611ad8578235916001600160401b038311611ad8576020808501948460051b010111611ad857565b9092916001600160401b038411611e77578360051b916020604051611f5482860182611e56565b8096815201928101918211611ad857915b818310611f7157505050565b82356001600160a01b0381168103611ad857815260209283019201611f65565b908060209392818452848401375f828201840152601f01601f1916010190565b93959490611fe16001600160801b0393606095859360018060a01b03168852608060208901526080880191611f91565b9616604085015216910152565b90604051918281549182825260208201905f5260205f20925f5b81811061201f57505061201d92500383611e56565b565b84546001600160a01b0316835260019485019487945060209093019201612008565b5f805160206129a383398151915254600601546001600160401b038116906001600160801b039060401c811616026001600160801b038116908103611b8e5790565b60208061201d928195946040519682889351918291018585015e8201908382015203018085520183611e56565b358015158103611ad85790565b5f198114611b8e5760010190565b5f805160206129a3833981519152546005600882015491015490818102918183041490151715611b8e5761270f8101809111611b8e57612710900490565b6001600160a01b03168015612167575f8051602061298383398151915280546001600160a01b0319811683179091556001600160a01b03167f8be0079c531659141344cd1fd0a4f28419497f9722a3daafe3b4186f6b6457e05f80a3565b631e4fbdf760e01b5f525f60045260245ffd5b5f80516020612983833981519152546001600160a01b0316330361219a57565b63118cdaa760e01b5f523360045260245ffd5b906001600160801b03809116911601906001600160801b038211611b8e57565b9291925f805160206129a38339815191525491815f526009830160205260ff60405f2054166003811015611d7c576002036123e55761220a612041565b600a6001600160801b03821602956001600160801b038716968703611b8e576122368761223b936121ad565b6121ad565b60038401546040516323b872dd60e01b81523260048201523060248201526001600160801b03929092166044830152602090829060649082905f906001600160a01b03165af1908115611acd575f916123c6575b5015612381576e5af43d82803e903d91602b57fd5bf360028401549160405160208101918583526040820152604081526122ca606082611e56565b51902091763d602d80600a3d3981f3363d3d373d3d3d363d7300000062ffffff8260881c16175f526effffffffffffffffffffffffffffff199060781b1617602052603760095ff5916001600160a01b038316908115612372577f8008ec1d8798725ebfa0f2d128d52e8e717dcba6e0f786557eeee70614b02bf191600c602092825f52600b810184528560405f20550161236581546120bd565b9055604051908152a29190565b63b06ebf3d60e01b5f5260045ffd5b60405162461bcd60e51b815260206004820152601860248201527f6661696c656420746f20726574726965766520575661726100000000000000006044820152606490fd5b6123df915060203d6020116109b9576109ac8183611e56565b5f61228f565b60405162461bcd60e51b815260206004820152602e60248201527f636f6465206d7573742062652076616c696461746564206265666f726520707260448201526d37b3b930b69031b932b0ba34b7b760911b6064820152608490fd5b5f805160206129a3833981519152549060088201908154612531579091600701905f5b81518110156124a357600581901b82016020908101516001600160a01b03165f9081529084905260409020805460ff1916600190811790915501612464565b5080519291506001600160401b038311611e7757680100000000000000008311611e7757815483835580841061250b575b50602001905f5260205f205f5b8381106124ee5750505050565b82516001600160a01b0316818301556020909201916001016124e1565b825f528360205f2091820191015b81811061252657506124d4565b5f8155600101612519565b60405162461bcd60e51b815260206004820152602360248201527f70726576696f75732076616c696461746f727320776572656e27742072656d6f6044820152621d995960ea1b6064820152608490fd5b903590601e1981360301821215611ad857018035906001600160401b038211611ad857602001918136038313611ad857565b905f805160206129a383398151915254906125cd6120cb565b926040519060208201908152602082526125e8604083611e56565b612624603660405180936020820195601960f81b87523060601b60228401525180918484015e81015f838201520301601f198101835282611e56565b5190205f9260070191835b8685101561272d5761266561265c61265661264f8860051b860186612582565b3691611e8b565b85612866565b909291926128a0565b6001600160a01b03165f9081526020859052604090205460ff16156126f25761268d906120bd565b9385851461269e576001019361262f565b505050509091505b106126ad57565b60405162461bcd60e51b815260206004820152601b60248201527f6e6f7420656e6f7567682076616c6964207369676e61747572657300000000006044820152606490fd5b60405162461bcd60e51b8152602060048201526013602482015272696e636f7272656374207369676e617475726560681b6044820152606490fd5b949550505050506126a6565b903590601e1981360301821215611ad857018035906001600160401b038211611ad857602001918160051b36038313611ad857565b90816020910312611ad857518015158103611ad85790565b60ff5f805160206129c38339815191525460401c16156127a257565b631afcd79f60e31b5f5260045ffd5b905f194301438111611b8e57805b6127ca575b505f9150565b80408381036127db57506001925050565b156127ef578015611b8e575f1901806127bf565b6127c4565b356001600160a01b0381168103611ad85790565b356001600160801b0381168103611ad85790565b903590601e1981360301821215611ad857018035906001600160401b038211611ad857602001916060820236038313611ad857565b356001600160e01b031981168103611ad85790565b81519190604183036128965761288f9250602082015190606060408401519301515f1a90612900565b9192909190565b50505f9160029190565b6004811015611d7c57806128b2575050565b600181036128c95763f645eedf60e01b5f5260045ffd5b600281036128e4575063fce698f760e01b5f5260045260245ffd5b6003146128ee5750565b6335e2f38360e21b5f5260045260245ffd5b91907f7fffffffffffffffffffffffffffffff5d576e7357a4501ddfe92f46681b20a08411612977579160209360809260ff5f9560405194855216868401526040830152606082015282805260015afa15611acd575f516001600160a01b0381161561296d57905f905f90565b505f906001905f90565b5050505f916003919056fe9016d09d72d40fdae2fd8ceac6b6234c7706214fd39c1cd1e609a0528c1993005c09ca1b9b8127a4fd9f3c384aac59b661441e820e17733753ff5f2e86e1e000f0c57e16840df040f15088dc2f81fe391c3923bec73e23a9662efc9c229c6a00a264697066735822122060d07221a98235b0bd9451a0858f8666356c1a556142f3ffe0fbe0e23639bc7e64736f6c634300081a0033","linkReferences":{}},"methodIdentifiers":{"baseFee()":"6ef25c3a","baseWeight()":"d3fd6364","codeState(bytes32)":"c13911e8","commitBlocks((bytes32,bytes32,bytes32,(address,bytes32,uint128,(bytes32,address,uint128)[],(bytes32,address,bytes,uint128,(bytes32,bytes4))[])[])[],bytes[])":"fa97ed6d","commitCodes((bytes32,bool)[],bytes[])":"e97d3eb3","createProgram(bytes32,bytes32,bytes,uint128)":"8074b455","createProgramWithDecoder(address,bytes32,bytes32,bytes,uint128)":"666d124c","genesisBlockHash()":"28e24b3d","getStorageSlot()":"96708226","initialize(address,address,address,address,address[])":"f8453e7c","lastBlockCommitmentHash()":"2dacfb69","mirror()":"444d9172","mirrorProxy()":"78ee5dec","owner()":"8da5cb5b","programCodeId(address)":"9067088e","programsCount()":"96a2ddfa","reinitialize()":"6c2eb350","renounceOwnership()":"715018a6","requestCodeValidation(bytes32,bytes32)":"1c149d8a","setBaseWeight(uint64)":"8028861a","setMirror(address)":"3d43b418","setStorageSlot(string)":"5686cad5","setValuePerWeight(uint128)":"a6bbbe1c","signingThresholdPercentage()":"efd81abc","transferOwnership(address)":"f2fde38b","updateValidators(address[])":"e71731e4","validatedCodesCount()":"007a32e7","validatorExists(address)":"8febbd59","validators()":"ca1e7819","validatorsCount()":"ed612f8c","validatorsThreshold()":"edc87225","valuePerWeight()":"0834fecc","wrappedVara()":"88f50cf0"},"storageLayout":{"storage":[],"types":{}},"id":82}