{"abi":[{"type":"constructor","inputs":[],"stateMutability":"nonpayable"},{"type":"function","name":"areValidators","inputs":[{"name":"_validators","type":"address[]","internalType":"address[]"}],"outputs":[{"name":"","type":"bool","internalType":"bool"}],"stateMutability":"view"},{"type":"function","name":"codeState","inputs":[{"name":"_codeId","type":"bytes32","internalType":"bytes32"}],"outputs":[{"name":"","type":"uint8","internalType":"enum Gear.CodeState"}],"stateMutability":"view"},{"type":"function","name":"codesStates","inputs":[{"name":"_codesIds","type":"bytes32[]","internalType":"bytes32[]"}],"outputs":[{"name":"","type":"uint8[]","internalType":"enum Gear.CodeState[]"}],"stateMutability":"view"},{"type":"function","name":"commitBlocks","inputs":[{"name":"_blockCommitments","type":"tuple[]","internalType":"struct Gear.BlockCommitment[]","components":[{"name":"hash","type":"bytes32","internalType":"bytes32"},{"name":"timestamp","type":"uint48","internalType":"uint48"},{"name":"previousCommittedBlock","type":"bytes32","internalType":"bytes32"},{"name":"predecessorBlock","type":"bytes32","internalType":"bytes32"},{"name":"transitions","type":"tuple[]","internalType":"struct Gear.StateTransition[]","components":[{"name":"actorId","type":"address","internalType":"address"},{"name":"newStateHash","type":"bytes32","internalType":"bytes32"},{"name":"inheritor","type":"address","internalType":"address"},{"name":"valueToReceive","type":"uint128","internalType":"uint128"},{"name":"valueClaims","type":"tuple[]","internalType":"struct Gear.ValueClaim[]","components":[{"name":"messageId","type":"bytes32","internalType":"bytes32"},{"name":"destination","type":"address","internalType":"address"},{"name":"value","type":"uint128","internalType":"uint128"}]},{"name":"messages","type":"tuple[]","internalType":"struct Gear.Message[]","components":[{"name":"id","type":"bytes32","internalType":"bytes32"},{"name":"destination","type":"address","internalType":"address"},{"name":"payload","type":"bytes","internalType":"bytes"},{"name":"value","type":"uint128","internalType":"uint128"},{"name":"replyDetails","type":"tuple","internalType":"struct Gear.ReplyDetails","components":[{"name":"to","type":"bytes32","internalType":"bytes32"},{"name":"code","type":"bytes4","internalType":"bytes4"}]}]}]}]},{"name":"_signatures","type":"bytes[]","internalType":"bytes[]"}],"outputs":[],"stateMutability":"nonpayable"},{"type":"function","name":"commitCodes","inputs":[{"name":"_codeCommitments","type":"tuple[]","internalType":"struct Gear.CodeCommitment[]","components":[{"name":"id","type":"bytes32","internalType":"bytes32"},{"name":"valid","type":"bool","internalType":"bool"}]},{"name":"_signatures","type":"bytes[]","internalType":"bytes[]"}],"outputs":[],"stateMutability":"nonpayable"},{"type":"function","name":"commitValidators","inputs":[{"name":"commitment","type":"tuple","internalType":"struct Gear.ValidatorsCommitment","components":[{"name":"validators","type":"address[]","internalType":"address[]"},{"name":"eraIndex","type":"uint256","internalType":"uint256"}]},{"name":"signatures","type":"bytes[]","internalType":"bytes[]"}],"outputs":[],"stateMutability":"nonpayable"},{"type":"function","name":"computeSettings","inputs":[],"outputs":[{"name":"","type":"tuple","internalType":"struct Gear.ComputationSettings","components":[{"name":"threshold","type":"uint64","internalType":"uint64"},{"name":"wvaraPerSecond","type":"uint128","internalType":"uint128"}]}],"stateMutability":"view"},{"type":"function","name":"createProgram","inputs":[{"name":"_codeId","type":"bytes32","internalType":"bytes32"},{"name":"_salt","type":"bytes32","internalType":"bytes32"}],"outputs":[{"name":"","type":"address","internalType":"address"}],"stateMutability":"nonpayable"},{"type":"function","name":"createProgramWithDecoder","inputs":[{"name":"_decoderImpl","type":"address","internalType":"address"},{"name":"_codeId","type":"bytes32","internalType":"bytes32"},{"name":"_salt","type":"bytes32","internalType":"bytes32"}],"outputs":[{"name":"","type":"address","internalType":"address"}],"stateMutability":"nonpayable"},{"type":"function","name":"genesisBlockHash","inputs":[],"outputs":[{"name":"","type":"bytes32","internalType":"bytes32"}],"stateMutability":"view"},{"type":"function","name":"genesisTimestamp","inputs":[],"outputs":[{"name":"","type":"uint48","internalType":"uint48"}],"stateMutability":"view"},{"type":"function","name":"initialize","inputs":[{"name":"_owner","type":"address","internalType":"address"},{"name":"_mirror","type":"address","internalType":"address"},{"name":"_mirrorProxy","type":"address","internalType":"address"},{"name":"_wrappedVara","type":"address","internalType":"address"},{"name":"_eraDuration","type":"uint256","internalType":"uint256"},{"name":"_electionDuration","type":"uint256","internalType":"uint256"},{"name":"_validationDelay","type":"uint256","internalType":"uint256"},{"name":"_validators","type":"address[]","internalType":"address[]"}],"outputs":[],"stateMutability":"nonpayable"},{"type":"function","name":"isValidator","inputs":[{"name":"_validator","type":"address","internalType":"address"}],"outputs":[{"name":"","type":"bool","internalType":"bool"}],"stateMutability":"view"},{"type":"function","name":"latestCommittedBlockHash","inputs":[],"outputs":[{"name":"","type":"bytes32","internalType":"bytes32"}],"stateMutability":"view"},{"type":"function","name":"lookupGenesisHash","inputs":[],"outputs":[],"stateMutability":"nonpayable"},{"type":"function","name":"mirrorImpl","inputs":[],"outputs":[{"name":"","type":"address","internalType":"address"}],"stateMutability":"view"},{"type":"function","name":"mirrorProxyImpl","inputs":[],"outputs":[{"name":"","type":"address","internalType":"address"}],"stateMutability":"view"},{"type":"function","name":"owner","inputs":[],"outputs":[{"name":"","type":"address","internalType":"address"}],"stateMutability":"view"},{"type":"function","name":"programCodeId","inputs":[{"name":"_programId","type":"address","internalType":"address"}],"outputs":[{"name":"","type":"bytes32","internalType":"bytes32"}],"stateMutability":"view"},{"type":"function","name":"programsCodeIds","inputs":[{"name":"_programsIds","type":"address[]","internalType":"address[]"}],"outputs":[{"name":"","type":"bytes32[]","internalType":"bytes32[]"}],"stateMutability":"view"},{"type":"function","name":"programsCount","inputs":[],"outputs":[{"name":"","type":"uint256","internalType":"uint256"}],"stateMutability":"view"},{"type":"function","name":"reinitialize","inputs":[],"outputs":[],"stateMutability":"nonpayable"},{"type":"function","name":"renounceOwnership","inputs":[],"outputs":[],"stateMutability":"nonpayable"},{"type":"function","name":"requestCodeValidation","inputs":[{"name":"_codeId","type":"bytes32","internalType":"bytes32"},{"name":"_blobTxHash","type":"bytes32","internalType":"bytes32"}],"outputs":[],"stateMutability":"nonpayable"},{"type":"function","name":"setMirror","inputs":[{"name":"newMirror","type":"address","internalType":"address"}],"outputs":[],"stateMutability":"nonpayable"},{"type":"function","name":"signingThresholdPercentage","inputs":[],"outputs":[{"name":"","type":"uint16","internalType":"uint16"}],"stateMutability":"view"},{"type":"function","name":"transferOwnership","inputs":[{"name":"newOwner","type":"address","internalType":"address"}],"outputs":[],"stateMutability":"nonpayable"},{"type":"function","name":"validatedCodesCount","inputs":[],"outputs":[{"name":"","type":"uint256","internalType":"uint256"}],"stateMutability":"view"},{"type":"function","name":"validators","inputs":[],"outputs":[{"name":"","type":"address[]","internalType":"address[]"}],"stateMutability":"view"},{"type":"function","name":"validatorsCount","inputs":[],"outputs":[{"name":"","type":"uint256","internalType":"uint256"}],"stateMutability":"view"},{"type":"function","name":"validatorsThreshold","inputs":[],"outputs":[{"name":"","type":"uint256","internalType":"uint256"}],"stateMutability":"view"},{"type":"function","name":"wrappedVara","inputs":[],"outputs":[{"name":"","type":"address","internalType":"address"}],"stateMutability":"view"},{"type":"event","name":"BlockCommitted","inputs":[{"name":"hash","type":"bytes32","indexed":false,"internalType":"bytes32"}],"anonymous":false},{"type":"event","name":"CodeGotValidated","inputs":[{"name":"codeId","type":"bytes32","indexed":false,"internalType":"bytes32"},{"name":"valid","type":"bool","indexed":true,"internalType":"bool"}],"anonymous":false},{"type":"event","name":"CodeValidationRequested","inputs":[{"name":"codeId","type":"bytes32","indexed":false,"internalType":"bytes32"},{"name":"blobTxHash","type":"bytes32","indexed":false,"internalType":"bytes32"}],"anonymous":false},{"type":"event","name":"ComputationSettingsChanged","inputs":[{"name":"threshold","type":"uint64","indexed":false,"internalType":"uint64"},{"name":"wvaraPerSecond","type":"uint128","indexed":false,"internalType":"uint128"}],"anonymous":false},{"type":"event","name":"Initialized","inputs":[{"name":"version","type":"uint64","indexed":false,"internalType":"uint64"}],"anonymous":false},{"type":"event","name":"NextEraValidatorsCommitted","inputs":[{"name":"startTimestamp","type":"uint256","indexed":false,"internalType":"uint256"}],"anonymous":false},{"type":"event","name":"OwnershipTransferred","inputs":[{"name":"previousOwner","type":"address","indexed":true,"internalType":"address"},{"name":"newOwner","type":"address","indexed":true,"internalType":"address"}],"anonymous":false},{"type":"event","name":"ProgramCreated","inputs":[{"name":"actorId","type":"address","indexed":false,"internalType":"address"},{"name":"codeId","type":"bytes32","indexed":true,"internalType":"bytes32"}],"anonymous":false},{"type":"event","name":"StorageSlotChanged","inputs":[],"anonymous":false},{"type":"error","name":"ECDSAInvalidSignature","inputs":[]},{"type":"error","name":"ECDSAInvalidSignatureLength","inputs":[{"name":"length","type":"uint256","internalType":"uint256"}]},{"type":"error","name":"ECDSAInvalidSignatureS","inputs":[{"name":"s","type":"bytes32","internalType":"bytes32"}]},{"type":"error","name":"FailedDeployment","inputs":[]},{"type":"error","name":"InsufficientBalance","inputs":[{"name":"balance","type":"uint256","internalType":"uint256"},{"name":"needed","type":"uint256","internalType":"uint256"}]},{"type":"error","name":"InvalidInitialization","inputs":[]},{"type":"error","name":"NotInitializing","inputs":[]},{"type":"error","name":"OwnableInvalidOwner","inputs":[{"name":"owner","type":"address","internalType":"address"}]},{"type":"error","name":"OwnableUnauthorizedAccount","inputs":[{"name":"account","type":"address","internalType":"address"}]},{"type":"error","name":"ReentrancyGuardReentrantCall","inputs":[]}],"bytecode":{"object":"0x6080604052348015600e575f5ffd5b5060156019565b60c9565b7ff0c57e16840df040f15088dc2f81fe391c3923bec73e23a9662efc9c229c6a00805468010000000000000000900460ff161560685760405163f92ee8a960e01b815260040160405180910390fd5b80546001600160401b039081161460c65780546001600160401b0319166001600160401b0390811782556040519081527fc7f505b2f371ae2175ee4913f4499e1f2633a7b5936321eed1cdaeb6115181d29060200160405180910390a15b50565b6138d4806100d65f395ff3fe608060405234801561000f575f5ffd5b50600436106101e6575f3560e01c80639067088e11610109578063e6fabc091161009e578063edc872251161006e578063edc8722514610436578063efd81abc1461043e578063f2fde38b14610459578063facd743b1461046c575f5ffd5b8063e6fabc0914610400578063e7006a7414610408578063e97d3eb31461041b578063ed612f8c1461042e575f5ffd5b8063c13911e8116100d9578063c13911e8146103a4578063c9f16a11146103c4578063ca1e7819146103cc578063cacf66ab146103e1575f5ffd5b80639067088e1461035657806396a2ddfa14610369578063aaf0fe6a14610371578063baaf020114610384575f5ffd5b8063715018a61161017f57806388f50cf01161014f57806388f50cf0146102f35780638b1edf1e146102fb5780638da5cb5b146103035780638f381dbe14610333575f5ffd5b8063715018a61461028357806382bdeaad1461028b57806384d22a4f146102ab57806385a49eab146102e0575f5ffd5b80633d43b418116101ba5780633d43b41814610235578063527de0f91461024857806365ecfea2146102735780636c2eb3501461027b575f5ffd5b80627a32e7146101ea57806301b1d156146102055780631c149d8a1461021a57806328e24b3d1461022d575b5f5ffd5b6101f261047f565b6040519081526020015b60405180910390f35b610218610213366004612dab565b610491565b005b610218610228366004612e15565b610632565b6101f2610792565b610218610243366004612e4b565b6107a1565b61025b610256366004612e15565b6107d6565b6040516001600160a01b0390911681526020016101fc565b61025b610849565b610218610864565b610218610b34565b61029e610299366004612e64565b610b47565b6040516101fc9190612ed6565b6102b3610c2d565b6040805182516001600160401b031681526020928301516001600160801b031692810192909252016101fc565b6102186102ee366004612f20565b610c7f565b61025b61118d565b6102186111a8565b7f9016d09d72d40fdae2fd8ceac6b6234c7706214fd39c1cd1e609a0528c199300546001600160a01b031661025b565b610346610341366004612e64565b61126d565b60405190151581526020016101fc565b6101f2610364366004612e4b565b6112f1565b6101f261131a565b61021861037f366004612fbe565b61132c565b610397610392366004612e64565b61161a565b6040516101fc9190613029565b6103b76103b2366004613060565b6116e7565b6040516101fc9190613077565b6101f2611706565b6103d4611718565b6040516101fc9190613085565b6103e9611784565b60405165ffffffffffff90911681526020016101fc565b61025b6117a5565b61025b6104163660046130c5565b6117c0565b6102186104293660046130f5565b611877565b6101f2611aa9565b6101f2611abe565b610446611aee565b60405161ffff90911681526020016101fc565b610218610467366004612e4b565b611b04565b61034661047a366004612e4b565b611b41565b5f610488611b6e565b60150154919050565b610499611b78565b5f6104a2611b6e565b80549091506104cc5760405162461bcd60e51b81526004016104c390613175565b60405180910390fd5b836105195760405162461bcd60e51b815260206004820152601e60248201527f6e6f20626c6f636b20636f6d6d69746d656e747320746f20636f6d6d6974000060448201526064016104c3565b60605f805b868110156105c05736888883818110610539576105396131d2565b905060200281019061054b91906131e6565b9050836105588683611be5565b60405160200161056992919061321b565b60405160208183030381529060405293508281602001602081019061058e9190613233565b65ffffffffffff1611156105b7576105ac6040820160208301613233565b65ffffffffffff1692505b5060010161051e565b506105d5838380519060200120878785611dcb565b6106215760405162461bcd60e51b815260206004820152601e60248201527f7369676e61747572657320766572696669636174696f6e206661696c6564000060448201526064016104c3565b50505061062c612069565b50505050565b8015158061064057505f4915155b6106825760405162461bcd60e51b8152602060048201526013602482015272189b1bd88818d85b89dd08189948199bdd5b99606a1b60448201526064016104c3565b5f61068b611b6e565b80549091506106ac5760405162461bcd60e51b81526004016104c390613175565b5f83815260128201602052604081205460ff1660028111156106d0576106d0612ea2565b146107395760405162461bcd60e51b815260206004820152603360248201527f676976656e20636f646520696420697320616c7265616479206f6e2076616c6960448201527219185d1a5bdb881bdc881d985b1a59185d1959606a1b60648201526084016104c3565b5f838152601282016020908152604091829020805460ff1916600117905581518581529081018490527f65672eaf4ff8b823ea29ae013fef437d1fa9ed431125263a7a1f0ac49eada396910160405180910390a1505050565b5f61079b611b6e565b54919050565b6107a9612093565b806107b2611b6e565b60040180546001600160a01b0319166001600160a01b039290921691909117905550565b5f5f6107e284846120ee565b60405163485cc95560e01b81523360048201525f60248201529091506001600160a01b0382169063485cc955906044015f604051808303815f87803b158015610829575f5ffd5b505af115801561083b573d5f5f3e3d5ffd5b509293505050505b92915050565b5f610852611b6e565b600501546001600160a01b0316919050565b61086c612093565b7ff0c57e16840df040f15088dc2f81fe391c3923bec73e23a9662efc9c229c6a00805460029190600160401b900460ff16806108b5575080546001600160401b03808416911610155b156108d35760405163f92ee8a960e01b815260040160405180910390fd5b805468ffffffffffffffffff19166001600160401b03831617600160401b1781555f6108fd611b6e565b905061093d6040518060400160405280601781526020017f726f757465722e73746f726167652e526f757465725632000000000000000000815250612263565b5f610946611b6e565b90506109506122d5565b80518255602081015160018301805460409093015165ffffffffffff16600160201b0269ffffffffffffffffffff1990931663ffffffff9092169190911791909117905560048281015490820180546001600160a01b03199081166001600160a01b03938416179091556005808501549084018054831691841691909117905560068085015490840180549092169216919091179055600780830154908201805461ffff191661ffff909216919091179055610a7260088201610a128461231e565b600101805480602002602001604051908101604052809291908181526020018280548015610a6757602002820191905f5260205f20905b81546001600160a01b03168152600190910190602001808311610a49575b505050505042612329565b600e8083018054918301805467ffffffffffffffff1981166001600160401b03909416938417825591546001600160801b03600160401b9182900416026001600160c01b0319909216909217179055600f808301549082015560108083015490820155601191820154910155805460ff60401b191681556040517fc7f505b2f371ae2175ee4913f4499e1f2633a7b5936321eed1cdaeb6115181d290610b289084906001600160401b0391909116815260200190565b60405180910390a15050565b610b3c612093565b610b455f6123f9565b565b60605f610b52611b6e565b90505f836001600160401b03811115610b6d57610b6d613258565b604051908082528060200260200182016040528015610b96578160200160208202803683370190505b5090505f5b84811015610c2457601283015f878784818110610bba57610bba6131d2565b9050602002013581526020019081526020015f205f9054906101000a900460ff16828281518110610bed57610bed6131d2565b60200260200101906002811115610c0657610c06612ea2565b90816002811115610c1957610c19612ea2565b905250600101610b9b565b50949350505050565b604080518082019091525f8082526020820152610c48611b6e565b60408051808201909152600e91909101546001600160401b0381168252600160401b90046001600160801b03166020820152919050565b7ff0c57e16840df040f15088dc2f81fe391c3923bec73e23a9662efc9c229c6a008054600160401b810460ff1615906001600160401b03165f81158015610cc35750825b90505f826001600160401b03166001148015610cde5750303b155b905081158015610cec575080155b15610d0a5760405163f92ee8a960e01b815260040160405180910390fd5b845467ffffffffffffffff191660011785558315610d3457845460ff60401b1916600160401b1785555b610d3d8e612469565b5f4211610d9d5760405162461bcd60e51b815260206004820152602860248201527f63757272656e742074696d657374616d70206d75737420626520677265617465604482015267072207468616e20360c41b60648201526084016104c3565b5f8911610dfd5760405162461bcd60e51b815260206004820152602860248201527f656c656374696f6e206475726174696f6e206d75737420626520677265617465604482015267072207468616e20360c41b60648201526084016104c3565b888a11610e685760405162461bcd60e51b815260206004820152603360248201527f657261206475726174696f6e206d757374206265206772656174657220746861604482015272371032b632b1ba34b7b710323ab930ba34b7b760691b60648201526084016104c3565b600a610e748a8c613280565b610e7e9190613293565b8810610ecc5760405162461bcd60e51b815260206004820152601b60248201527f76616c69646174696f6e2064656c617920697320746f6f20626967000000000060448201526064016104c3565b610f0a6040518060400160405280601781526020017f726f757465722e73746f726167652e526f757465725631000000000000000000815250612263565b5f610f13611b6e565b9050610f1d6122d5565b815f015f820151815f01556020820151816001015f6101000a81548163ffffffff021916908363ffffffff16021790555060408201518160010160046101000a81548165ffffffffffff021916908365ffffffffffff16021790555090505060405180606001604052808f6001600160a01b031681526020018e6001600160a01b031681526020018d6001600160a01b0316815250816004015f820151815f015f6101000a8154816001600160a01b0302191690836001600160a01b031602179055506020820151816001015f6101000a8154816001600160a01b0302191690836001600160a01b031602179055506040820151816002015f6101000a8154816001600160a01b0302191690836001600160a01b03160217905550905050611a0a816007015f015f6101000a81548161ffff021916908361ffff1602179055506110906040805180820182525f8082526020918201528151808301909252639502f90082526509184e72a0009082015290565b8051600e830180546020938401516001600160801b0316600160401b026001600160c01b03199091166001600160401b0390931692909217919091179055604080516060810182528d81528083018d905281018b9052600f83018d9055601083018c9055601183018b9055805189830281810184019092528981526111369260088501928c918c9182918501908490808284375f92019190915250429250612329915050565b50831561117d57845460ff60401b19168555604051600181527fc7f505b2f371ae2175ee4913f4499e1f2633a7b5936321eed1cdaeb6115181d29060200160405180910390a15b5050505050505050505050505050565b5f611196611b6e565b600601546001600160a01b0316919050565b5f6111b1611b6e565b8054909150156112035760405162461bcd60e51b815260206004820152601860248201527f67656e65736973206861736820616c726561647920736574000000000000000060448201526064016104c3565b600181015463ffffffff16408061125c5760405162461bcd60e51b815260206004820152601d60248201527f756e61626c6520746f206c6f6f6b75702067656e65736973206861736800000060448201526064016104c3565b50600181015463ffffffff16409055565b5f5f61127f61127a611b6e565b61231e565b90505f5b838110156112e657815f86868481811061129f5761129f6131d2565b90506020020160208101906112b49190612e4b565b6001600160a01b0316815260208101919091526040015f205460ff166112de575f92505050610843565b600101611283565b506001949350505050565b5f6112fa611b6e565b6001600160a01b039092165f908152601390920160205250604090205490565b5f611323611b6e565b60140154919050565b5f611335611b6e565b600f81015460018201549192505f9161135d90600160201b900465ffffffffffff1642613280565b6113679190613293565b90506113748160016132b2565b8560200135146113d95760405162461bcd60e51b815260206004820152602a60248201527f636f6d6d69746d656e742065726120696e646578206973206e6f74206e657874604482015269040cae4c240d2dcc8caf60b31b60648201526084016104c3565b600f8201545f906113ef906020880135906132c5565b600184015461140d9190600160201b900465ffffffffffff166132b2565b601084015490915061141f9082613280565b42101561146e5760405162461bcd60e51b815260206004820152601b60248201527f656c656374696f6e206973206e6f74207965742073746172746564000000000060448201526064016104c3565b5f6114788461247a565b9050428160020154106114e85760405162461bcd60e51b815260206004820152603260248201527f6c6f6f6b73206c696b652076616c696461746f727320666f72206e65787420656044820152711c9848185c9948185b1c9958591e481cd95d60721b60648201526084016104c3565b5f6114fa6114f589613334565b61249d565b9050611530858260405160200161151391815260200190565b6040516020818303038152906040528051906020012089896124d5565b6115975760405162461bcd60e51b815260206004820152603260248201527f6e657874206572612076616c696461746f7273207369676e6174757265732076604482015271195c9a599a58d85d1a5bdb8819985a5b195960721b60648201526084016104c3565b6115dd826115a58a806133f5565b808060200260200160405190810160405280939291908181526020018383602002808284375f92019190915250889250612329915050565b6040518381527f41e7f919bf726af8aa2ef36bd31905a693013e30c45c6284060e613d4941997b9060200160405180910390a15050505050505050565b60605f611625611b6e565b90505f836001600160401b0381111561164057611640613258565b604051908082528060200260200182016040528015611669578160200160208202803683370190505b5090505f5b84811015610c2457601383015f87878481811061168d5761168d6131d2565b90506020020160208101906116a29190612e4b565b6001600160a01b03166001600160a01b031681526020019081526020015f20548282815181106116d4576116d46131d2565b602090810291909101015260010161166e565b5f6116f0611b6e565b5f92835260120160205250604090205460ff1690565b5f61170f611b6e565b60020154919050565b606061172561127a611b6e565b60010180548060200260200160405190810160405280929190818152602001828054801561177a57602002820191905f5260205f20905b81546001600160a01b0316815260019091019060200180831161175c575b5050505050905090565b5f61178d611b6e565b60010154600160201b900465ffffffffffff16919050565b5f6117ae611b6e565b600401546001600160a01b0316919050565b5f5f6117cc84846120ee565b90505f61180b8686866040516020016117ef929190918252602082015260400190565b60405160208183030381529060405280519060200120846124e3565b60405163485cc95560e01b81523360048201526001600160a01b0380831660248301529192509083169063485cc955906044015f604051808303815f87803b158015611855575f5ffd5b505af1158015611867573d5f5f3e3d5ffd5b50939450505050505b9392505050565b5f611880611b6e565b80549091506118a15760405162461bcd60e51b81526004016104c390613175565b60605f5b85811015611a4157368787838181106118c0576118c06131d2565b6040029190910191506001905081355f90815260128601602052604090205460ff1660028111156118f3576118f3612ea2565b1461195e5760405162461bcd60e51b815260206004820152603560248201527f636f6465206d7573742062652072657175657374656420666f722076616c6964604482015274185d1a5bdb881d1bc818994818dbdb5b5a5d1d1959605a1b60648201526084016104c3565b61196e6040820160208301613447565b156119a95780355f9081526012850160205260408120805460ff191660021790556015850180549161199f83613462565b91905055506119c3565b80355f9081526012850160205260409020805460ff191690555b6119d36040820160208301613447565b60405182358152901515907f460119a8f69a33ed127de517d5ea464e958ce23ef19e4420a8b92bf780bbc2c99060200160405180910390a282611a1582612552565b604051602001611a2692919061321b565b60408051601f198184030181529190529250506001016118a5565b50611a5582828051906020012086866124d5565b611aa15760405162461bcd60e51b815260206004820152601e60248201527f7369676e61747572657320766572696669636174696f6e206661696c6564000060448201526064016104c3565b505050505050565b5f611ab561127a611b6e565b60010154919050565b5f5f611ac8611b6e565b9050611ae8611ad68261231e565b60010154600783015461ffff16612584565b91505090565b5f611af7611b6e565b6007015461ffff16919050565b611b0c612093565b6001600160a01b038116611b3557604051631e4fbdf760e01b81525f60048201526024016104c3565b611b3e816123f9565b50565b5f611b4d61127a611b6e565b6001600160a01b039092165f90815260209290925250604090205460ff1690565b5f5f6108436125ac565b7f9b779b17422d0df92223018b32b4d1fa46e071723d6817e2486d003becc55f005c15611bb857604051633ee5aeb560e01b815260040160405180910390fd5b610b4560017f9b779b17422d0df92223018b32b4d1fa46e071723d6817e2486d003becc55f005b906125d3565b60028201545f90604083013514611c4c5760405162461bcd60e51b815260206004820152602560248201527f696e76616c69642070726576696f757320636f6d6d697474656420626c6f636b604482015264040d0c2e6d60db1b60648201526084016104c3565b611c5982606001356125da565b611cb45760405162461bcd60e51b815260206004820152602660248201527f616c6c6f776564207072656465636573736f7220626c6f636b207761736e277460448201526508199bdd5b9960d21b60648201526084016104c3565b6040518060400160405280835f01358152602001836020016020810190611cdb9190613233565b65ffffffffffff9081169091528151600286015560209091015160038501805465ffffffffffff1916919092161790555f611d2284611d1d60808601866133f5565b61262c565b604051843581529091507fd756eca21e02cb0dbde1e44a4d9c6921b5c8aa4668cfa0752784b3dc855bce1e9060200160405180910390a1611dc38335611d6e6040860160208701613233565b6040805160208082019490945260d09290921b6001600160d01b031916828201528681013560468301526060870135606683015260868083018690528151808403909101815260a69092019052805191012090565b949350505050565b5f5f611dd7874261285b565b90508083108015611df557506011870154611df290826132b2565b42105b15611ecd576001870154600160201b900465ffffffffffff16831015611e5d5760405162461bcd60e51b815260206004820152601e60248201527f63616e6e6f742076616c6964617465206265666f72652067656e65736973000060448201526064016104c3565b600f8701548190611e6e90856132b2565b1015611ec85760405162461bcd60e51b8152602060048201526024808201527f74696d657374616d70206973206f6c646572207468616e2070726576696f75736044820152632065726160e01b60648201526084016104c3565b611f33565b42831115611f275760405162461bcd60e51b815260206004820152602160248201527f74696d657374616d702063616e6e6f7420626520696e207468652066757475726044820152606560f81b60648201526084016104c3565b80831015611f33578092505b5f611f3e8885612894565b600181015460078a01549192505f91611f5b919061ffff16612584565b90505f611f8b89604051602001611f7491815260200190565b60408051601f1981840301815291905230906128b8565b90505f805b8881101561205657365f8b8b84818110611fac57611fac6131d2565b9050602002810190611fbe919061347a565b915091505f61200483838080601f0160208091040260200160405190810160405280939291908181526020018383808284375f920191909152508a939250506128ea9050565b6001600160a01b0381165f90815260208a9052604090205490915060ff161561204b578661203186613462565b9550850361204b5760019950505050505050505050612060565b505050600101611f90565b505f955050505050505b95945050505050565b610b455f7f9b779b17422d0df92223018b32b4d1fa46e071723d6817e2486d003becc55f00611bdf565b336120c57f9016d09d72d40fdae2fd8ceac6b6234c7706214fd39c1cd1e609a0528c199300546001600160a01b031690565b6001600160a01b031614610b455760405163118cdaa760e01b81523360048201526024016104c3565b5f5f6120f8611b6e565b80549091506121195760405162461bcd60e51b81526004016104c390613175565b60025f85815260128301602052604090205460ff16600281111561213f5761213f612ea2565b146121a35760405162461bcd60e51b815260206004820152602e60248201527f636f6465206d7573742062652076616c696461746564206265666f726520707260448201526d37b3b930b69031b932b0ba34b7b760911b60648201526084016104c3565b600581015460408051602081018790529081018590525f916121e9916001600160a01b039091169060600160405160208183030381529060405280519060200120612912565b6001600160a01b0381165f90815260138401602052604081208790556014840180549293509061221883613462565b90915550506040516001600160a01b038216815285907f8008ec1d8798725ebfa0f2d128d52e8e717dcba6e0f786557eeee70614b02bf19060200160405180910390a2949350505050565b61226b612093565b805160208201205f9060ff199061228490600190613280565b60405160200161229691815260200190565b60408051808303601f190181529190528051602090910120167f5c09ca1b9b8127a4fd9f3c384aac59b661441e820e17733753ff5f2e86e1e000555050565b604080516060810182525f808252602082018190529181019190915250604080516060810182525f815263ffffffff4316602082015265ffffffffffff42169181019190915290565b5f6108438242612894565b5f5b600184015481101561237d575f84600101828154811061234d5761234d6131d2565b5f9182526020808320909101546001600160a01b0316825286905260409020805460ff191690555060010161232b565b505f5b82518110156123d6575f83828151811061239c5761239c6131d2565b6020908102919091018101516001600160a01b03165f9081529086905260409020805460ff19166001908117909155919091019050612380565b5081516123ec9060018501906020850190612ced565b5060029092019190915550565b7f9016d09d72d40fdae2fd8ceac6b6234c7706214fd39c1cd1e609a0528c19930080546001600160a01b031981166001600160a01b03848116918217845560405192169182907f8be0079c531659141344cd1fd0a4f28419497f9722a3daafe3b4186f6b6457e0905f90a3505050565b61247161291e565b611b3e81612967565b5f612485824261296f565b15612491575060080190565b50600b0190565b919050565b5f815f015182602001516040516020016124b89291906134bc565b604051602081830303815290604052805190602001209050919050565b5f6120608585858542611dcb565b5f5f6124ef8585612912565b60405163189acdbd60e31b81526001600160a01b0385811660048301529192509082169063c4d66de8906024015f604051808303815f87803b158015612533575f5ffd5b505af1158015612545573d5f5f3e3d5ffd5b5092979650505050505050565b5f81356125656040840160208501613447565b6040516020016124b8929190918252151560f81b602082015260210190565b5f61271061259661ffff8416856132c5565b6125a29061270f6132b2565b6118709190613293565b5f7f5c09ca1b9b8127a4fd9f3c384aac59b661441e820e17733753ff5f2e86e1e00061079b565b80825d5050565b5f806125e7600143613280565b90505b8015612624578040838103612603575060019392505050565b5f8190036126115750612624565b508061261c816134ff565b9150506125ea565b505f92915050565b5f6060815b8381101561284a573685858381811061264c5761264c6131d2565b905060200281019061265e9190613514565b9050601387015f6126726020840184612e4b565b6001600160a01b03166001600160a01b031681526020019081526020015f20545f5f1b036126fa5760405162461bcd60e51b815260206004820152602f60248201527f636f756c646e277420706572666f726d207472616e736974696f6e20666f722060448201526e756e6b6e6f776e2070726f6772616d60881b60648201526084016104c3565b60068701546001600160a01b031663a9059cbb61271a6020840184612e4b565b61272a608085016060860161353e565b6040516001600160e01b031960e085901b1681526001600160a01b0390921660048301526001600160801b031660248201526044016020604051808303815f875af115801561277b573d5f5f3e3d5ffd5b505050506040513d601f19601f8201168201806040525081019061279f9190613557565b505f6127ae6020830183612e4b565b6001600160a01b0316639ed32350836040518263ffffffff1660e01b81526004016127d99190613773565b6020604051808303815f875af11580156127f5573d5f5f3e3d5ffd5b505050506040513d601f19601f820116820180604052508101906128199190613859565b9050838160405160200161282e92919061321b565b60408051808303601f1901815291905293505050600101612631565b508051602090910120949350505050565b600f8201545f9061286c8484612a65565b61287691906132c5565b60018401546118709190600160201b900465ffffffffffff166132b2565b5f61289f838361296f565b156128ae5750600b8201610843565b5060088201610843565b5f82826040516020016128cc929190613870565b60405160208183030381529060405280519060200120905092915050565b5f5f5f5f6128f88686612a8b565b9250925092506129088282612ad4565b5090949350505050565b5f61187083835f612b90565b7ff0c57e16840df040f15088dc2f81fe391c3923bec73e23a9662efc9c229c6a0054600160401b900460ff16610b4557604051631afcd79f60e31b815260040160405180910390fd5b611b0c61291e565b600a820154600d8301545f91908082036129cb5760405162461bcd60e51b815260206004820181905260248201527f657261732074696d657374616d70206d757374206e6f7420626520657175616c60448201526064016104c3565b808210848311158583111581806129df5750805b612a495760405162461bcd60e51b815260206004820152603560248201527f636f756c64206e6f74206964656e746966792076616c696461746f727320666f6044820152740722074686520676976656e2074696d657374616d7605c1b60648201526084016104c3565b828015612a595750801515821515145b98975050505050505050565b600f82015460018301545f91906125a290600160201b900465ffffffffffff1684613280565b5f5f5f8351604103612ac2576020840151604085015160608601515f1a612ab488828585612c25565b955095509550505050612acd565b505081515f91506002905b9250925092565b5f826003811115612ae757612ae7612ea2565b03612af0575050565b6001826003811115612b0457612b04612ea2565b03612b225760405163f645eedf60e01b815260040160405180910390fd5b6002826003811115612b3657612b36612ea2565b03612b575760405163fce698f760e01b8152600481018290526024016104c3565b6003826003811115612b6b57612b6b612ea2565b03612b8c576040516335e2f38360e21b8152600481018290526024016104c3565b5050565b5f81471015612bbb5760405163cf47918160e01b8152476004820152602481018390526044016104c3565b763d602d80600a3d3981f3363d3d373d3d3d363d730000008460601b60e81c175f526e5af43d82803e903d91602b57fd5bf38460781b17602052826037600984f590506001600160a01b0381166118705760405163b06ebf3d60e01b815260040160405180910390fd5b5f80807f7fffffffffffffffffffffffffffffff5d576e7357a4501ddfe92f46681b20a0841115612c5e57505f91506003905082612ce3565b604080515f808252602082018084528a905260ff891692820192909252606081018790526080810186905260019060a0016020604051602081039080840390855afa158015612caf573d5f5f3e3d5ffd5b5050604051601f1901519150506001600160a01b038116612cda57505f925060019150829050612ce3565b92505f91508190505b9450945094915050565b828054828255905f5260205f20908101928215612d40579160200282015b82811115612d4057825182546001600160a01b0319166001600160a01b03909116178255602090920191600190910190612d0b565b50612d4c929150612d50565b5090565b5b80821115612d4c575f8155600101612d51565b5f5f83601f840112612d74575f5ffd5b5081356001600160401b03811115612d8a575f5ffd5b6020830191508360208260051b8501011115612da4575f5ffd5b9250929050565b5f5f5f5f60408587031215612dbe575f5ffd5b84356001600160401b03811115612dd3575f5ffd5b612ddf87828801612d64565b90955093505060208501356001600160401b03811115612dfd575f5ffd5b612e0987828801612d64565b95989497509550505050565b5f5f60408385031215612e26575f5ffd5b50508035926020909101359150565b80356001600160a01b0381168114612498575f5ffd5b5f60208284031215612e5b575f5ffd5b61187082612e35565b5f5f60208385031215612e75575f5ffd5b82356001600160401b03811115612e8a575f5ffd5b612e9685828601612d64565b90969095509350505050565b634e487b7160e01b5f52602160045260245ffd5b60038110612ed257634e487b7160e01b5f52602160045260245ffd5b9052565b602080825282518282018190525f918401906040840190835b81811015612f1557612f02838551612eb6565b6020938401939290920191600101612eef565b509095945050505050565b5f5f5f5f5f5f5f5f5f6101008a8c031215612f39575f5ffd5b612f428a612e35565b9850612f5060208b01612e35565b9750612f5e60408b01612e35565b9650612f6c60608b01612e35565b955060808a0135945060a08a0135935060c08a0135925060e08a01356001600160401b03811115612f9b575f5ffd5b612fa78c828d01612d64565b915080935050809150509295985092959850929598565b5f5f5f60408486031215612fd0575f5ffd5b83356001600160401b03811115612fe5575f5ffd5b840160408187031215612ff6575f5ffd5b925060208401356001600160401b03811115613010575f5ffd5b61301c86828701612d64565b9497909650939450505050565b602080825282518282018190525f918401906040840190835b81811015612f15578351835260209384019390920191600101613042565b5f60208284031215613070575f5ffd5b5035919050565b602081016108438284612eb6565b602080825282518282018190525f918401906040840190835b81811015612f155783516001600160a01b031683526020938401939092019160010161309e565b5f5f5f606084860312156130d7575f5ffd5b6130e084612e35565b95602085013595506040909401359392505050565b5f5f5f5f60408587031215613108575f5ffd5b84356001600160401b0381111561311d575f5ffd5b8501601f8101871361312d575f5ffd5b80356001600160401b03811115613142575f5ffd5b8760208260061b8401011115613156575f5ffd5b6020918201955093508501356001600160401b03811115612dfd575f5ffd5b60208082526038908201527f726f757465722067656e65736973206973207a65726f3b2063616c6c20606c6f60408201527f6f6b757047656e65736973486173682829602066697273740000000000000000606082015260800190565b634e487b7160e01b5f52603260045260245ffd5b5f8235609e198336030181126131fa575f5ffd5b9190910192915050565b5f81518060208401855e5f93019283525090919050565b5f6132268285613204565b9283525050602001919050565b5f60208284031215613243575f5ffd5b813565ffffffffffff81168114611870575f5ffd5b634e487b7160e01b5f52604160045260245ffd5b634e487b7160e01b5f52601160045260245ffd5b818103818111156108435761084361326c565b5f826132ad57634e487b7160e01b5f52601260045260245ffd5b500490565b808201808211156108435761084361326c565b80820281158282048414176108435761084361326c565b604080519081016001600160401b03811182821017156132fe576132fe613258565b60405290565b604051601f8201601f191681016001600160401b038111828210171561332c5761332c613258565b604052919050565b5f60408236031215613344575f5ffd5b61334c6132dc565b82356001600160401b03811115613361575f5ffd5b830136601f820112613371575f5ffd5b80356001600160401b0381111561338a5761338a613258565b8060051b61339a60208201613304565b918252602081840181019290810190368411156133b5575f5ffd5b6020850194505b838510156133de576133cd85612e35565b8252602094850194909101906133bc565b855250505050602092830135928101929092525090565b5f5f8335601e1984360301811261340a575f5ffd5b8301803591506001600160401b03821115613423575f5ffd5b6020019150600581901b3603821315612da4575f5ffd5b8015158114611b3e575f5ffd5b5f60208284031215613457575f5ffd5b81356118708161343a565b5f600182016134735761347361326c565b5060010190565b5f5f8335601e1984360301811261348f575f5ffd5b8301803591506001600160401b038211156134a8575f5ffd5b602001915036819003821315612da4575f5ffd5b82515f90829060208601835b828110156134ef5781516001600160a01b03168452602093840193909101906001016134c8565b5050509283525050602001919050565b5f8161350d5761350d61326c565b505f190190565b5f823560be198336030181126131fa575f5ffd5b80356001600160801b0381168114612498575f5ffd5b5f6020828403121561354e575f5ffd5b61187082613528565b5f60208284031215613567575f5ffd5b81516118708161343a565b8183526020830192505f815f5b848110156135d257813586526001600160a01b0361359f60208401612e35565b1660208701526001600160801b036135b960408401613528565b166040870152606095860195919091019060010161357f565b5093949350505050565b5f5f8335601e198436030181126135f1575f5ffd5b83016020810192503590506001600160401b0381111561360f575f5ffd5b8060051b3603821315612da4575f5ffd5b81835281816020850137505f828201602090810191909152601f909101601f19169091010190565b8035825260208101356001600160e01b03198116808214613667575f5ffd5b80602085015250505050565b5f8383855260208501945060208460051b820101835f5b8681101561376757838303601f1901885281353687900360be190181126136af575f5ffd5b8601803584526001600160a01b036136c960208301612e35565b1660208501526040810135601e198236030181126136e5575f5ffd5b81016020810190356001600160401b03811115613700575f5ffd5b80360382131561370e575f5ffd5b60c0604087015261372360c087018284613620565b91505061373260608301613528565b6001600160801b031660608601526137506080808701908401613648565b6020998a019990945092909201915060010161368a565b50909695505050505050565b602081526001600160a01b0361378883612e35565b1660208201525f5f602084013590508060408401525060018060a01b036137b160408501612e35565b1660608301526001600160801b036137cb60608501613528565b1660808301526080830135601e198436030181126137e7575f5ffd5b83016020810190356001600160401b03811115613802575f5ffd5b606081023603821315613813575f5ffd5b60c060a085015261382860e085018284613572565b91505061383860a08501856135dc565b848303601f190160c086015261384f838284613673565b9695505050505050565b5f60208284031215613869575f5ffd5b5051919050565b601960f81b8152606083901b6bffffffffffffffffffffffff191660028201525f611dc3601683018461320456fea2646970667358221220227321972e773263104864e3ae68f1f2ed83288465b56ad2fbf3efab6d2ec7d264736f6c634300081c0033","linkReferences":{}},"methodIdentifiers":{"areValidators(address[])":"8f381dbe","codeState(bytes32)":"c13911e8","codesStates(bytes32[])":"82bdeaad","commitBlocks((bytes32,uint48,bytes32,bytes32,(address,bytes32,address,uint128,(bytes32,address,uint128)[],(bytes32,address,bytes,uint128,(bytes32,bytes4))[])[])[],bytes[])":"01b1d156","commitCodes((bytes32,bool)[],bytes[])":"e97d3eb3","commitValidators((address[],uint256),bytes[])":"aaf0fe6a","computeSettings()":"84d22a4f","createProgram(bytes32,bytes32)":"527de0f9","createProgramWithDecoder(address,bytes32,bytes32)":"e7006a74","genesisBlockHash()":"28e24b3d","genesisTimestamp()":"cacf66ab","initialize(address,address,address,address,uint256,uint256,uint256,address[])":"85a49eab","isValidator(address)":"facd743b","latestCommittedBlockHash()":"c9f16a11","lookupGenesisHash()":"8b1edf1e","mirrorImpl()":"e6fabc09","mirrorProxyImpl()":"65ecfea2","owner()":"8da5cb5b","programCodeId(address)":"9067088e","programsCodeIds(address[])":"baaf0201","programsCount()":"96a2ddfa","reinitialize()":"6c2eb350","renounceOwnership()":"715018a6","requestCodeValidation(bytes32,bytes32)":"1c149d8a","setMirror(address)":"3d43b418","signingThresholdPercentage()":"efd81abc","transferOwnership(address)":"f2fde38b","validatedCodesCount()":"007a32e7","validators()":"ca1e7819","validatorsCount()":"ed612f8c","validatorsThreshold()":"edc87225","wrappedVara()":"88f50cf0"},"storageLayout":{"storage":[],"types":{}},"id":120}