{"abi":[{"type":"constructor","inputs":[],"stateMutability":"nonpayable"},{"type":"function","name":"areValidators","inputs":[{"name":"_validators","type":"address[]","internalType":"address[]"}],"outputs":[{"name":"","type":"bool","internalType":"bool"}],"stateMutability":"view"},{"type":"function","name":"codeState","inputs":[{"name":"_codeId","type":"bytes32","internalType":"bytes32"}],"outputs":[{"name":"","type":"uint8","internalType":"enum Gear.CodeState"}],"stateMutability":"view"},{"type":"function","name":"codesStates","inputs":[{"name":"_codesIds","type":"bytes32[]","internalType":"bytes32[]"}],"outputs":[{"name":"","type":"uint8[]","internalType":"enum Gear.CodeState[]"}],"stateMutability":"view"},{"type":"function","name":"commitBatch","inputs":[{"name":"_batchCommitment","type":"tuple","internalType":"struct Gear.BatchCommitment","components":[{"name":"codeCommitments","type":"tuple[]","internalType":"struct Gear.CodeCommitment[]","components":[{"name":"id","type":"bytes32","internalType":"bytes32"},{"name":"timestamp","type":"uint48","internalType":"uint48"},{"name":"valid","type":"bool","internalType":"bool"}]},{"name":"blockCommitments","type":"tuple[]","internalType":"struct Gear.BlockCommitment[]","components":[{"name":"hash","type":"bytes32","internalType":"bytes32"},{"name":"timestamp","type":"uint48","internalType":"uint48"},{"name":"previousCommittedBlock","type":"bytes32","internalType":"bytes32"},{"name":"predecessorBlock","type":"bytes32","internalType":"bytes32"},{"name":"transitions","type":"tuple[]","internalType":"struct Gear.StateTransition[]","components":[{"name":"actorId","type":"address","internalType":"address"},{"name":"newStateHash","type":"bytes32","internalType":"bytes32"},{"name":"inheritor","type":"address","internalType":"address"},{"name":"valueToReceive","type":"uint128","internalType":"uint128"},{"name":"valueClaims","type":"tuple[]","internalType":"struct Gear.ValueClaim[]","components":[{"name":"messageId","type":"bytes32","internalType":"bytes32"},{"name":"destination","type":"address","internalType":"address"},{"name":"value","type":"uint128","internalType":"uint128"}]},{"name":"messages","type":"tuple[]","internalType":"struct Gear.Message[]","components":[{"name":"id","type":"bytes32","internalType":"bytes32"},{"name":"destination","type":"address","internalType":"address"},{"name":"payload","type":"bytes","internalType":"bytes"},{"name":"value","type":"uint128","internalType":"uint128"},{"name":"replyDetails","type":"tuple","internalType":"struct Gear.ReplyDetails","components":[{"name":"to","type":"bytes32","internalType":"bytes32"},{"name":"code","type":"bytes4","internalType":"bytes4"}]}]}]}]}]},{"name":"_signatureType","type":"uint8","internalType":"enum Gear.SignatureType"},{"name":"_signatures","type":"bytes[]","internalType":"bytes[]"}],"outputs":[],"stateMutability":"nonpayable"},{"type":"function","name":"commitBlocks","inputs":[{"name":"_blockCommitments","type":"tuple[]","internalType":"struct Gear.BlockCommitment[]","components":[{"name":"hash","type":"bytes32","internalType":"bytes32"},{"name":"timestamp","type":"uint48","internalType":"uint48"},{"name":"previousCommittedBlock","type":"bytes32","internalType":"bytes32"},{"name":"predecessorBlock","type":"bytes32","internalType":"bytes32"},{"name":"transitions","type":"tuple[]","internalType":"struct Gear.StateTransition[]","components":[{"name":"actorId","type":"address","internalType":"address"},{"name":"newStateHash","type":"bytes32","internalType":"bytes32"},{"name":"inheritor","type":"address","internalType":"address"},{"name":"valueToReceive","type":"uint128","internalType":"uint128"},{"name":"valueClaims","type":"tuple[]","internalType":"struct Gear.ValueClaim[]","components":[{"name":"messageId","type":"bytes32","internalType":"bytes32"},{"name":"destination","type":"address","internalType":"address"},{"name":"value","type":"uint128","internalType":"uint128"}]},{"name":"messages","type":"tuple[]","internalType":"struct Gear.Message[]","components":[{"name":"id","type":"bytes32","internalType":"bytes32"},{"name":"destination","type":"address","internalType":"address"},{"name":"payload","type":"bytes","internalType":"bytes"},{"name":"value","type":"uint128","internalType":"uint128"},{"name":"replyDetails","type":"tuple","internalType":"struct Gear.ReplyDetails","components":[{"name":"to","type":"bytes32","internalType":"bytes32"},{"name":"code","type":"bytes4","internalType":"bytes4"}]}]}]}]},{"name":"_signatureType","type":"uint8","internalType":"enum Gear.SignatureType"},{"name":"_signatures","type":"bytes[]","internalType":"bytes[]"}],"outputs":[],"stateMutability":"nonpayable"},{"type":"function","name":"commitCodes","inputs":[{"name":"_codeCommitments","type":"tuple[]","internalType":"struct Gear.CodeCommitment[]","components":[{"name":"id","type":"bytes32","internalType":"bytes32"},{"name":"timestamp","type":"uint48","internalType":"uint48"},{"name":"valid","type":"bool","internalType":"bool"}]},{"name":"_signatureType","type":"uint8","internalType":"enum Gear.SignatureType"},{"name":"_signatures","type":"bytes[]","internalType":"bytes[]"}],"outputs":[],"stateMutability":"nonpayable"},{"type":"function","name":"commitValidators","inputs":[{"name":"_validatorsCommitment","type":"tuple","internalType":"struct Gear.ValidatorsCommitment","components":[{"name":"aggregatedPublicKey","type":"tuple","internalType":"struct Gear.AggregatedPublicKey","components":[{"name":"x","type":"uint256","internalType":"uint256"},{"name":"y","type":"uint256","internalType":"uint256"}]},{"name":"verifyingShares","type":"tuple[]","internalType":"struct Gear.VerifyingShare[]","components":[{"name":"x","type":"uint256","internalType":"uint256"},{"name":"y","type":"uint256","internalType":"uint256"}]},{"name":"validators","type":"address[]","internalType":"address[]"},{"name":"eraIndex","type":"uint256","internalType":"uint256"}]},{"name":"_signatureType","type":"uint8","internalType":"enum Gear.SignatureType"},{"name":"_signatures","type":"bytes[]","internalType":"bytes[]"}],"outputs":[],"stateMutability":"nonpayable"},{"type":"function","name":"computeSettings","inputs":[],"outputs":[{"name":"","type":"tuple","internalType":"struct Gear.ComputationSettings","components":[{"name":"threshold","type":"uint64","internalType":"uint64"},{"name":"wvaraPerSecond","type":"uint128","internalType":"uint128"}]}],"stateMutability":"view"},{"type":"function","name":"createProgram","inputs":[{"name":"_codeId","type":"bytes32","internalType":"bytes32"},{"name":"_salt","type":"bytes32","internalType":"bytes32"}],"outputs":[{"name":"","type":"address","internalType":"address"}],"stateMutability":"nonpayable"},{"type":"function","name":"createProgramWithDecoder","inputs":[{"name":"_decoderImpl","type":"address","internalType":"address"},{"name":"_codeId","type":"bytes32","internalType":"bytes32"},{"name":"_salt","type":"bytes32","internalType":"bytes32"}],"outputs":[{"name":"","type":"address","internalType":"address"}],"stateMutability":"nonpayable"},{"type":"function","name":"genesisBlockHash","inputs":[],"outputs":[{"name":"","type":"bytes32","internalType":"bytes32"}],"stateMutability":"view"},{"type":"function","name":"genesisTimestamp","inputs":[],"outputs":[{"name":"","type":"uint48","internalType":"uint48"}],"stateMutability":"view"},{"type":"function","name":"initialize","inputs":[{"name":"_owner","type":"address","internalType":"address"},{"name":"_mirror","type":"address","internalType":"address"},{"name":"_mirrorProxy","type":"address","internalType":"address"},{"name":"_wrappedVara","type":"address","internalType":"address"},{"name":"_eraDuration","type":"uint256","internalType":"uint256"},{"name":"_electionDuration","type":"uint256","internalType":"uint256"},{"name":"_validationDelay","type":"uint256","internalType":"uint256"},{"name":"_aggregatedPublicKey","type":"tuple","internalType":"struct Gear.AggregatedPublicKey","components":[{"name":"x","type":"uint256","internalType":"uint256"},{"name":"y","type":"uint256","internalType":"uint256"}]},{"name":"_verifyingShares","type":"tuple[]","internalType":"struct Gear.VerifyingShare[]","components":[{"name":"x","type":"uint256","internalType":"uint256"},{"name":"y","type":"uint256","internalType":"uint256"}]},{"name":"_validators","type":"address[]","internalType":"address[]"}],"outputs":[],"stateMutability":"nonpayable"},{"type":"function","name":"isValidator","inputs":[{"name":"_validator","type":"address","internalType":"address"}],"outputs":[{"name":"","type":"bool","internalType":"bool"}],"stateMutability":"view"},{"type":"function","name":"latestCommittedBlockHash","inputs":[],"outputs":[{"name":"","type":"bytes32","internalType":"bytes32"}],"stateMutability":"view"},{"type":"function","name":"lookupGenesisHash","inputs":[],"outputs":[],"stateMutability":"nonpayable"},{"type":"function","name":"mirrorImpl","inputs":[],"outputs":[{"name":"","type":"address","internalType":"address"}],"stateMutability":"view"},{"type":"function","name":"mirrorProxyImpl","inputs":[],"outputs":[{"name":"","type":"address","internalType":"address"}],"stateMutability":"view"},{"type":"function","name":"owner","inputs":[],"outputs":[{"name":"","type":"address","internalType":"address"}],"stateMutability":"view"},{"type":"function","name":"programCodeId","inputs":[{"name":"_programId","type":"address","internalType":"address"}],"outputs":[{"name":"","type":"bytes32","internalType":"bytes32"}],"stateMutability":"view"},{"type":"function","name":"programsCodeIds","inputs":[{"name":"_programsIds","type":"address[]","internalType":"address[]"}],"outputs":[{"name":"","type":"bytes32[]","internalType":"bytes32[]"}],"stateMutability":"view"},{"type":"function","name":"programsCount","inputs":[],"outputs":[{"name":"","type":"uint256","internalType":"uint256"}],"stateMutability":"view"},{"type":"function","name":"reinitialize","inputs":[],"outputs":[],"stateMutability":"nonpayable"},{"type":"function","name":"renounceOwnership","inputs":[],"outputs":[],"stateMutability":"nonpayable"},{"type":"function","name":"requestCodeValidation","inputs":[{"name":"_codeId","type":"bytes32","internalType":"bytes32"}],"outputs":[],"stateMutability":"nonpayable"},{"type":"function","name":"setMirror","inputs":[{"name":"newMirror","type":"address","internalType":"address"}],"outputs":[],"stateMutability":"nonpayable"},{"type":"function","name":"signingThresholdPercentage","inputs":[],"outputs":[{"name":"","type":"uint16","internalType":"uint16"}],"stateMutability":"view"},{"type":"function","name":"transferOwnership","inputs":[{"name":"newOwner","type":"address","internalType":"address"}],"outputs":[],"stateMutability":"nonpayable"},{"type":"function","name":"validatedCodesCount","inputs":[],"outputs":[{"name":"","type":"uint256","internalType":"uint256"}],"stateMutability":"view"},{"type":"function","name":"validators","inputs":[],"outputs":[{"name":"","type":"address[]","internalType":"address[]"}],"stateMutability":"view"},{"type":"function","name":"validatorsAggregatedPublicKey","inputs":[],"outputs":[{"name":"","type":"tuple","internalType":"struct Gear.AggregatedPublicKey","components":[{"name":"x","type":"uint256","internalType":"uint256"},{"name":"y","type":"uint256","internalType":"uint256"}]}],"stateMutability":"view"},{"type":"function","name":"validatorsCount","inputs":[],"outputs":[{"name":"","type":"uint256","internalType":"uint256"}],"stateMutability":"view"},{"type":"function","name":"validatorsThreshold","inputs":[],"outputs":[{"name":"","type":"uint256","internalType":"uint256"}],"stateMutability":"view"},{"type":"function","name":"validatorsVerifyingShares","inputs":[],"outputs":[{"name":"","type":"tuple[]","internalType":"struct Gear.VerifyingShare[]","components":[{"name":"x","type":"uint256","internalType":"uint256"},{"name":"y","type":"uint256","internalType":"uint256"}]}],"stateMutability":"view"},{"type":"function","name":"wrappedVara","inputs":[],"outputs":[{"name":"","type":"address","internalType":"address"}],"stateMutability":"view"},{"type":"event","name":"BlockCommitted","inputs":[{"name":"hash","type":"bytes32","indexed":false,"internalType":"bytes32"}],"anonymous":false},{"type":"event","name":"CodeGotValidated","inputs":[{"name":"codeId","type":"bytes32","indexed":false,"internalType":"bytes32"},{"name":"valid","type":"bool","indexed":true,"internalType":"bool"}],"anonymous":false},{"type":"event","name":"CodeValidationRequested","inputs":[{"name":"codeId","type":"bytes32","indexed":false,"internalType":"bytes32"}],"anonymous":false},{"type":"event","name":"ComputationSettingsChanged","inputs":[{"name":"threshold","type":"uint64","indexed":false,"internalType":"uint64"},{"name":"wvaraPerSecond","type":"uint128","indexed":false,"internalType":"uint128"}],"anonymous":false},{"type":"event","name":"Initialized","inputs":[{"name":"version","type":"uint64","indexed":false,"internalType":"uint64"}],"anonymous":false},{"type":"event","name":"NextEraValidatorsCommitted","inputs":[{"name":"startTimestamp","type":"uint256","indexed":false,"internalType":"uint256"}],"anonymous":false},{"type":"event","name":"OwnershipTransferred","inputs":[{"name":"previousOwner","type":"address","indexed":true,"internalType":"address"},{"name":"newOwner","type":"address","indexed":true,"internalType":"address"}],"anonymous":false},{"type":"event","name":"ProgramCreated","inputs":[{"name":"actorId","type":"address","indexed":false,"internalType":"address"},{"name":"codeId","type":"bytes32","indexed":true,"internalType":"bytes32"}],"anonymous":false},{"type":"event","name":"StorageSlotChanged","inputs":[],"anonymous":false},{"type":"error","name":"ECDSAInvalidSignature","inputs":[]},{"type":"error","name":"ECDSAInvalidSignatureLength","inputs":[{"name":"length","type":"uint256","internalType":"uint256"}]},{"type":"error","name":"ECDSAInvalidSignatureS","inputs":[{"name":"s","type":"bytes32","internalType":"bytes32"}]},{"type":"error","name":"FailedDeployment","inputs":[]},{"type":"error","name":"InsufficientBalance","inputs":[{"name":"balance","type":"uint256","internalType":"uint256"},{"name":"needed","type":"uint256","internalType":"uint256"}]},{"type":"error","name":"InvalidInitialization","inputs":[]},{"type":"error","name":"NotInitializing","inputs":[]},{"type":"error","name":"OwnableInvalidOwner","inputs":[{"name":"owner","type":"address","internalType":"address"}]},{"type":"error","name":"OwnableUnauthorizedAccount","inputs":[{"name":"account","type":"address","internalType":"address"}]},{"type":"error","name":"ReentrancyGuardReentrantCall","inputs":[]}],"bytecode":{"object":"0x6080806040523460aa575f516020613e205f395f51905f525460ff8160401c16609b576002600160401b03196001600160401b038216016049575b604051613d7190816100af8239f35b6001600160401b0319166001600160401b039081175f516020613e205f395f51905f525581527fc7f505b2f371ae2175ee4913f4499e1f2633a7b5936321eed1cdaeb6115181d290602090a15f80603a565b63f92ee8a960e01b5f5260045ffd5b5f80fdfe6080806040526004361015610012575f80fd5b5f905f3560e01c9081627a32e714612105575080630d9078b114611cbe578063120e3f1e14611b3357806328e24b3d14611b06578063389e75791461158a5780633bd109fa1461153c5780633d43b418146114ea578063527de0f91461146157806365ecfea2146114285780636c2eb35014611109578063715018a6146110a05780637b4dda971461101a57806382bdeaad14610f0257806384d22a4f14610e9957806388f50cf014610e605780638b1edf1e14610d955780638da5cb5b14610d605780638f381dbe14610d1a5780639067088e14610cd157806396a2ddfa14610ca3578063b6a4968014610b99578063baaf020114610a9c578063c13911e814610a58578063c9f16a1114610a2a578063ca1e7819146109a7578063cacf66ab1461096f578063dc360d921461064a578063e6fabc0914610611578063e7006a74146104f0578063ea89096d146102d9578063ed612f8c146102a1578063edc8722514610257578063efd81abc14610225578063f2fde38b146101f85763facd743b1461019e575f80fd5b346101f55760203660031901126101f5576101b761215f565b60036101d25f516020613cfc5f395f51905f5254429061392b565b019060018060a01b03165f52602052602060ff60405f2054166040519015158152f35b80fd5b50346101f55760203660031901126101f55761022261021561215f565b61021d612b69565b612727565b80f35b50346101f557806003193601126101f557602061ffff60085f516020613cfc5f395f51905f5254015416604051908152f35b50346101f557806003193601126101f55760206102995f516020613cfc5f395f51905f525461ffff6008600461028d428561392b565b015492015416906137d2565b604051908152f35b50346101f557806003193601126101f557602060046102cf5f516020613cfc5f395f51905f5254429061392b565b0154604051908152f35b50346101f55760603660031901126101f5576004356001600160401b0381116104ec57366023820112156104ec5780600401356001600160401b0381116104e857602482019160243691606084020101116104e8576024359160028310156104e4576044356001600160401b0381116104e05761035d90929192369060040161212f565b9390915f516020613cfc5f395f51905f52549061037f60018301541515612196565b86946060916019840190875b8181106103b1578a6102226103ac8b8d8c8c8c8c6020815191012090613368565b6125c4565b6103bc818386612645565b948b60ff60408835928381528760205220541660038110156104cc5791610473917f460119a8f69a33ed127de517d5ea464e958ce23ef19e4420a8b92bf780bbc2c98f6104518c6020979260408e61041760018c9714612655565b01918c610423846126bf565b156104b3578260409189601c9552875220600260ff198254161790550161044a81546126cc565b90556126bf565b151592604051908152a261046d610468368a6126da565b61378d565b90612584565b95018965ffffffffffff610486836125b1565b1611610496575b5060010161038b565b60019199506104ab65ffffffffffff916125b1565b16989061048d565b50508581528b845260409020805460ff191690556126bf565b634e487b7160e01b8e52602160045260248efd5b8480fd5b8380fd5b8280fd5b5080fd5b50346101f55760603660031901126101f55761050a61215f565b602435906105526044359161051f8385612b9c565b93604051936020850191825260408501526040845261053f606085612289565b92519092206001600160a01b0392613b5c565b16803b156104e85760405163189acdbd60e31b81526001600160a01b0390921660048301819052918390818160248183875af18015610606576105f1575b5050813b156104e8576040519063485cc95560e01b82523360048301526024820152828160448183865af180156105e6576105d1575b602082604051908152f35b6105dc838092612289565b6104ec57816105c6565b6040513d85823e3d90fd5b816105fb91612289565b6104e857825f610590565b6040513d84823e3d90fd5b50346101f557806003193601126101f5575f516020613cfc5f395f51905f5254600501546040516001600160a01b039091168152602090f35b50346101f55760603660031901126101f5576004356001600160401b0381116104ec578060040190604060031982360301126104e8576024359160028310156104e4576044356001600160401b0381116104e0576106ac90369060040161212f565b916106b5612cd3565b5f516020613cfc5f395f51905f5254906106d460018301541515612196565b6106de8180612610565b90501580610959575b610914578695939594606093889560198501965b6107058580612610565b905081101561081f576107228161071c8780612610565b90612645565b968b60ff60408a35928381528c60205220541660038110156104cc57916107c8917f460119a8f69a33ed127de517d5ea464e958ce23ef19e4420a8b92bf780bbc2c98f6107b18e8d8f93604060209a9561077f60018d9814612655565b019261078a846126bf565b1561080857878252855260409020805460ff19166002179055601c01805461044a906126cc565b151592604051908152a261046d610468368c6126da565b97018965ffffffffffff6107db836125b1565b16116107eb575b506001016106fb565b600191995061080065ffffffffffff916125b1565b1698906107e2565b878252855260409020805460ff19169055506126bf565b5097909498919395506060946024839501945b61083c8686612396565b90508110156108a957602061086961085e836108588a8a612396565b90612562565b9861046d8a8c612d2e565b97018965ffffffffffff61087c836125b1565b161161088c575b50600101610832565b60019199506108a165ffffffffffff916125b1565b169890610883565b50876108ee926103ac928b8a8a8f60208151910120906020815191012060405190602082019283526040820152604081526108e5606082612289565b51902090613368565b807f9b779b17422d0df92223018b32b4d1fa46e071723d6817e2486d003becc55f005d80f35b60405162461bcd60e51b815260206004820152601860248201527f6e6f20636f6d6d69746d656e747320746f20636f6d6d697400000000000000006044820152606490fd5b506109676024860182612396565b9050156106e7565b50346101f557806003193601126101f557602065ffffffffffff60025f516020613cfc5f395f51905f52540154821c16604051908152f35b50346101f557806003193601126101f5576109dc60046109d65f516020613cfc5f395f51905f5254429061392b565b01612457565b90604051918291602083016020845282518091526020604085019301915b818110610a08575050500390f35b82516001600160a01b03168452859450602093840193909201916001016109fa565b50346101f557806003193601126101f557602060035f516020613cfc5f395f51905f52540154604051908152f35b50346101f55760203660031901126101f55760ff604060209260195f516020613cfc5f395f51905f52540160043582528452205416610a9a6040518092612189565bf35b50346101f55760203660031901126101f5576004356001600160401b0381116104ec57610acd90369060040161212f565b905f516020613cfc5f395f51905f525490610ae7836122d2565b91610af56040519384612289565b838352610b01846122d2565b602084019490601f1901368637601a869201915b818110610b6057868587604051928392602084019060208552518091526040840192915b818110610b47575050500390f35b8251845285945060209384019390920191600101610b39565b80610b76610b7160019385886124aa565b6124e2565b828060a01b03165f528360205260405f2054610b9282886124ce565b5201610b15565b50346101f55760603660031901126101f5576004356001600160401b0381116104ec57610bca90369060040161212f565b6024359060028210156104e4576044356001600160401b0381116104e057610bf690369060040161212f565b929091610c01612cd3565b5f516020613cfc5f395f51905f525490610c2060018301541515612196565b8695606091885b818110610c4857896108ee6103ac8b8b8b8b8b8b6020815191012090613368565b6020610c63610c58838587612562565b9561046d8789612d2e565b94018965ffffffffffff610c76836125b1565b1611610c86575b50600101610c27565b6001919950610c9b65ffffffffffff916125b1565b169890610c7d565b50346101f557806003193601126101f5576020601b5f516020613cfc5f395f51905f52540154604051908152f35b50346101f55760203660031901126101f557610ceb61215f565b601a5f516020613cfc5f395f51905f5254019060018060a01b03165f52602052602060405f2054604051908152f35b50346101f55760203660031901126101f557600435906001600160401b0382116101f5576020610d56610d50366004860161212f565b906124f6565b6040519015158152f35b50346101f557806003193601126101f5575f516020613cdc5f395f51905f52546040516001600160a01b039091168152602090f35b50346101f557806003193601126101f5575f516020613cfc5f395f51905f525460018101908154610e1b576002015463ffffffff1640908115610dd6575580f35b60405162461bcd60e51b815260206004820152601d60248201527f756e61626c6520746f206c6f6f6b75702067656e6573697320686173680000006044820152606490fd5b60405162461bcd60e51b815260206004820152601860248201527f67656e65736973206861736820616c72656164792073657400000000000000006044820152606490fd5b50346101f557806003193601126101f5575f516020613cfc5f395f51905f5254600701546040516001600160a01b039091168152602090f35b50346101f557806003193601126101f557610eb26123cb565b50604060155f516020613cfc5f395f51905f5254016001600160801b03825191610edb8361226e565b548160206001600160401b038316948581520191851c168152835192835251166020820152f35b50346101f55760203660031901126101f5576004356001600160401b0381116104ec57610f3390369060040161212f565b905f516020613cfc5f395f51905f525490610f4d836122d2565b91610f5b6040519384612289565b838352610f67846122d2565b602084019490601f19013686376019869201915b818110610fd057868587604051928392602084019060208552518091526040840192915b818110610fad575050500390f35b9193509160208082610fc26001948851612189565b019401910191849392610f9f565b610fdb8183866124aa565b3587528260205260ff604088205416610ff482876124ce565b60038210156110065752600101610f7b565b634e487b7160e01b89526021600452602489fd5b50346101f557806003193601126101f55761104f60026110495f516020613cfc5f395f51905f5254429061392b565b01612401565b90604051918291602083016020845282518091526020604085019301915b81811061107b575050500390f35b825180518552602090810151818601528695506040909401939092019160010161106d565b50346101f557806003193601126101f5576110b9612b69565b5f516020613cdc5f395f51905f5280546001600160a01b0319811690915581906001600160a01b03167f8be0079c531659141344cd1fd0a4f28419497f9722a3daafe3b4186f6b6457e08280a380f35b50346101f557806003193601126101f557611122612b69565b5f516020613d1c5f395f51905f525460ff8160401c168015611414575b61140557680100000000000000029068ffffffffffffffffff1916175f516020613d1c5f395f51905f52555f516020613cfc5f395f51905f525460409081516111888382612289565b6017815260208101907f726f757465722e73746f726167652e526f75746572563200000000000000000082526111bc612b69565b5190205f1981019081116113f157916020917fc7f505b2f371ae2175ee4913f4499e1f2633a7b5936321eed1cdaeb6115181d2938251908482019081528482526112068483612289565b60ff19915190201690815f516020613cfc5f395f51905f5255611227612b24565b80516001840155600283019063ffffffff868201511669ffffffffffff00000000868454930151881b169169ffffffffffffffffffff1916171790556005810160058301908082036113a3575b505061ffff600882015416600883019061ffff198254161790556112db61129b428361392b565b60026112a7428561392b565b016112c76112c160046112ba428861392b565b01936123e3565b91612401565b6112d14293612457565b916009860161280e565b601581016015830190808203611351575b5050601681016016830191818303611331575b5050505060ff60401b195f516020613d1c5f395f51905f5254165f516020613d1c5f395f51905f52555160028152a180f35b60189283925490556017810154601785015501549101555f8080806112ff565b806001600160401b03806001600160801b03935416166001600160401b031984541617835554851c16600160401b600160c01b03825491861b1690600160401b600160c01b0319161790555f806112ec565b5481546001600160a01b03199081166001600160a01b039283161790925560068381015490850180548416918316919091179055600780840154908501805490931691161790555f80611274565b634e487b7160e01b84526011600452602484fd5b63f92ee8a960e01b8252600482fd5b5060026001600160401b038216101561113f565b50346101f557806003193601126101f5575f516020613cfc5f395f51905f5254600601546040516001600160a01b039091168152602090f35b346114e65760403660031901126114e6576001600160a01b03611488602435600435612b9c565b16803b156114e6576040519063485cc95560e01b82523360048301525f60248301525f8260448183855af19182156114db576020926114cb575b50604051908152f35b5f6114d591612289565b5f6114c2565b6040513d5f823e3d90fd5b5f80fd5b346114e65760203660031901126114e65761150361215f565b61150b612b69565b5f516020613cfc5f395f51905f525460050180546001600160a01b0319166001600160a01b03909216919091179055005b346114e6575f3660031901126114e6576115546123cb565b5060406115786115735f516020613cfc5f395f51905f5254429061392b565b6123e3565b60208251918051835201516020820152f35b346114e6576101603660031901126114e6576115a461215f565b6024356001600160a01b03811691908290036114e6576044356001600160a01b03811692908390036114e6576064356001600160a01b038116908190036114e6576084359160a43560c43595604060e3193601126114e65761012435916001600160401b0383116114e657366023840112156114e6578260040135916001600160401b0383116114e6573660248460061b860101116114e657610144356001600160401b0381116114e65761165d90369060040161212f565b9690945f516020613d1c5f395f51905f525460ff8160401c16159a6001600160401b03821680159081611afe575b6001149081611af4575b159081611aeb575b50611adc5767ffffffffffffffff1982166001175f516020613d1c5f395f51905f52556116db918c611ab0575b506116d3613900565b61021d613900565b4215611a5a578315611a0457838911156119a357600a6116fb858b612208565b048b101561195e5760409a8b516117128d82612289565b6017815260208101907f726f757465722e73746f726167652e526f7574657256310000000000000000008252611746612b69565b5190205f1981019590861161194a576118f39a828e6118e2966118ec98600660099b84519060208201908152602082526117808683612289565b60ff1991519020169e8f90815f516020613cfc5f395f51905f52556117a3612b24565b80516001840155600283019063ffffffff60208201511669ffffffffffff0000000089845493015160201b169169ffffffffffffffffffff191617179055848680516117ee81612253565b8381526020810187905201526005820180546001600160a01b03199081166001600160a01b039384161790915592909101805483169382169390931790925560078f0180549091169290911691909117905560088c01805461ffff1916611a0a1790556118596123cb565b506509184e72a0006020825161186e8161226e565b639502f9008152015260158c0180546001600160c01b0319166d09184e72a000000000009502f90017905580516118a481612253565b838152846020820152015260168a0155601789015560188801558a51946118ca8661226e565b60e435865261010435602087015260243692016122e9565b9342963691612342565b930161280e565b6118f957005b60207fc7f505b2f371ae2175ee4913f4499e1f2633a7b5936321eed1cdaeb6115181d29160ff60401b195f516020613d1c5f395f51905f5254165f516020613d1c5f395f51905f52555160018152a1005b634e487b7160e01b5f52601160045260245ffd5b60405162461bcd60e51b815260206004820152601b60248201527f76616c69646174696f6e2064656c617920697320746f6f2062696700000000006044820152606490fd5b60405162461bcd60e51b815260206004820152603360248201527f657261206475726174696f6e206d757374206265206772656174657220746861604482015272371032b632b1ba34b7b710323ab930ba34b7b760691b6064820152608490fd5b60405162461bcd60e51b815260206004820152602860248201527f656c656374696f6e206475726174696f6e206d75737420626520677265617465604482015267072207468616e20360c41b6064820152608490fd5b60405162461bcd60e51b815260206004820152602860248201527f63757272656e742074696d657374616d70206d75737420626520677265617465604482015267072207468616e20360c41b6064820152608490fd5b68ffffffffffffffffff191668010000000000000001175f516020613d1c5f395f51905f52558d6116ca565b63f92ee8a960e01b5f5260045ffd5b9050158e61169d565b303b159150611695565b8d915061168b565b346114e6575f3660031901126114e657602060015f516020613cfc5f395f51905f52540154604051908152f35b346114e65760203660031901126114e6576004355f4915611c425760195f516020613cfc5f395f51905f5254611b6e60018201541515612196565b01815f528060205260ff60405f2054166003811015611c2e57611bcd57816020917f5c261a095dd5720475295dc06379921c003c22164ee6cae5cf83e76ce0a1b985935f52825260405f20600160ff19825416179055604051908152a1005b60405162461bcd60e51b815260206004820152603360248201527f676976656e20636f646520696420697320616c7265616479206f6e2076616c6960448201527219185d1a5bdb881bdc881d985b1a59185d1959606a1b6064820152608490fd5b634e487b7160e01b5f52602160045260245ffd5b60405162461bcd60e51b815260206004820152604860248201527f626c6f622063616e277420626520666f756e642c20726f75746572206578706560448201527f63746564204549502d34383434207472616e73616374696f6e2077697468205760648201526720a9a690313637b160c11b608482015260a490fd5b346114e65760603660031901126114e6576004356001600160401b0381116114e657368190036004820160a06003198301126114e6576024359060028210156114e6576044356001600160401b0381116114e657611d2090369060040161212f565b5f516020613cfc5f395f51905f529291925493611d4260018601541515612196565b65ffffffffffff600286015460201c1695611d5d8742612208565b611d6c60168801548092612215565b9760848a0135986001810180911161194a5789036120ad57611d9189611d9793612240565b90612233565b95611da6601782015488612208565b421061206857611db581612798565b9342600586015410156120085760405196608088018881106001600160401b03821117611ff457604052611de936886122aa565b885260448b0135946001600160401b0386116114e657858c01983660238b0112156114e65760048a01359b6024909a01998d611e26368f8e6122e9565b60208401526064019d8e35906001600160401b0382116114e65701366023820112156114e657611e60903690602460048201359101612342565b9182604082015281606082015251916020835193015191604051926020840194855260408401526060830160208351919301905f5b818110611fd55750505060208383611ebd93611ee69b9a999897969552038084520182612289565b51902093604051946020860190815260208652611edb604087612289565b429551902090613368565b15611f75576022190113156114e6576001600160401b0385116114e6578460061b360383136114e657611f56602095611f6684611f5e611f6c97611f4c7f41e7f919bf726af8aa2ef36bd31905a693013e30c45c6284060e613d4941997b9c8b99612396565b96909336906122aa565b9436916122e9565b933691612342565b9261280e565b604051908152a1005b60405162461bcd60e51b815260206004820152603260248201527f6e657874206572612076616c696461746f7273207369676e6174757265732076604482015271195c9a599a58d85d1a5bdb8819985a5b195960721b6064820152608490fd5b82516001600160a01b0316855260209485019490920191600101611e95565b634e487b7160e01b5f52604160045260245ffd5b60405162461bcd60e51b815260206004820152603260248201527f6c6f6f6b73206c696b652076616c696461746f727320666f72206e65787420656044820152711c9848185c9948185b1c9958591e481cd95d60721b6064820152608490fd5b60405162461bcd60e51b815260206004820152601b60248201527f656c656374696f6e206973206e6f7420796574207374617274656400000000006044820152606490fd5b60405162461bcd60e51b815260206004820152602a60248201527f636f6d6d69746d656e742065726120696e646578206973206e6f74206e657874604482015269040cae4c240d2dcc8caf60b31b6064820152608490fd5b346114e6575f3660031901126114e657602090601c5f516020613cfc5f395f51905f525401548152f35b9181601f840112156114e6578235916001600160401b0383116114e6576020808501948460051b0101116114e657565b600435906001600160a01b03821682036114e657565b35906001600160a01b03821682036114e657565b906003821015611c2e5752565b1561219d57565b60405162461bcd60e51b815260206004820152603860248201527f726f757465722067656e65736973206973207a65726f3b2063616c6c20606c6f60448201527f6f6b757047656e657369734861736828296020666972737400000000000000006064820152608490fd5b9190820391821161194a57565b811561221f570490565b634e487b7160e01b5f52601260045260245ffd5b9190820180921161194a57565b8181029291811591840414171561194a57565b606081019081106001600160401b03821117611ff457604052565b604081019081106001600160401b03821117611ff457604052565b90601f801991011681019081106001600160401b03821117611ff457604052565b91908260409103126114e6576040516122c28161226e565b6020808294803584520135910152565b6001600160401b038111611ff45760051b60200190565b909291926122f6816122d2565b936123046040519586612289565b602085838152019160061b8301928184116114e657915b8383106123285750505050565b602060409161233784866122aa565b81520192019161231b565b92919061234e816122d2565b9361235c6040519586612289565b602085838152019160051b81019283116114e657905b82821061237e57505050565b6020809161238b84612175565b815201910190612372565b903590601e19813603018212156114e657018035906001600160401b0382116114e657602001918160051b360383136114e657565b604051906123d88261226e565b5f6020838281520152565b906040516123f08161226e565b602060018294805484520154910152565b90815461240d816122d2565b9261241b6040519485612289565b81845260208401905f5260205f205f915b8383106124395750505050565b60026020600192612449856123e3565b81520192019201919061242c565b90604051918281549182825260208201905f5260205f20925f5b81811061248857505061248692500383612289565b565b84546001600160a01b0316835260019485019487945060209093019201612471565b91908110156124ba5760051b0190565b634e487b7160e01b5f52603260045260245ffd5b80518210156124ba5760209160051b010190565b356001600160a01b03811681036114e65790565b61250f5f516020613cfc5f395f51905f5254429061392b565b600301905f5b8381106125255750505050600190565b612533610b718286856124aa565b6001600160a01b03165f9081526020849052604090205460ff161561255a57600101612515565b505050505f90565b91908110156124ba5760051b81013590609e19813603018212156114e6570190565b602080612486928195946040519682889351918291018585015e8201908382015203018085520183612289565b3565ffffffffffff811681036114e65790565b156125cb57565b60405162461bcd60e51b815260206004820152601e60248201527f7369676e61747572657320766572696669636174696f6e206661696c656400006044820152606490fd5b903590601e19813603018212156114e657018035906001600160401b0382116114e6576020019160608202360383136114e657565b91908110156124ba576060020190565b1561265c57565b60405162461bcd60e51b815260206004820152603560248201527f636f6465206d7573742062652072657175657374656420666f722076616c6964604482015274185d1a5bdb881d1bc818994818dbdb5b5a5d1d1959605a1b6064820152608490fd5b3580151581036114e65790565b5f19811461194a5760010190565b91908260609103126114e6576040516126f281612253565b80928035825260208101359065ffffffffffff821682036114e657604091602084015201359081151582036114e65760400152565b6001600160a01b03168015612785575f516020613cdc5f395f51905f5280546001600160a01b0319811683179091556001600160a01b03167f8be0079c531659141344cd1fd0a4f28419497f9722a3daafe3b4186f6b6457e05f80a3565b631e4fbdf760e01b5f525f60045260245ffd5b6127a242826137f4565b156127ad5760090190565b600f0190565b156127ba57565b60405162461bcd60e51b815260206004820152602660248201527f46524f53542061676772656761746564207075626c6963206b657920697320696044820152651b9d985b1a5960d21b6064820152608490fd5b90612855909593959492946128468151602083015170014551231950b75fc4402da1732fc9bebe1982109182612b13575b50506127b3565b80518355602001516001830155565b8351855103612aa8575f5b84518110156128d65761288461287682876124ce565b5160208151910151906138dd565b1561289157600101612860565b60405162461bcd60e51b815260206004820152601f60248201527f766572696679696e67207368617265206973206e6f74206f6e206375727665006044820152606490fd5b509193909260028301815191600160401b8311611ff4578154838355808410612a56575b50602001905f5260205f205f915b838310612a2c57505050505f5b600483018054821015612953575f90815260208082208301546001600160a01b0316825260038501905260409020805460ff19169055600101612915565b5050925f5b845181101561299c576001906001600160a01b0361297682886124ce565b5116828060a01b03165f526003840160205260405f208260ff1982541617905501612958565b5092600482018151916001600160401b038311611ff457600160401b8311611ff4578154838355808410612a06575b50602001905f5260205f205f5b8381106129e9575050505060050155565b82516001600160a01b0316818301556020909201916001016129d8565b825f528360205f2091820191015b818110612a2157506129cb565b5f8155600101612a14565b6002602082612a4a6001945186906020600191805184550151910155565b01920192019190612908565b6001600160ff1b038116810361194a576001600160ff1b038416840361194a57825f5260205f209060011b8101908460011b015b818110612a9757506128fa565b5f8082556001820155600201612a8a565b60405162461bcd60e51b815260206004820152603860248201527f766572696679696e672073686172657320636f756e74206d757374206265206560448201527f7175616c20746f2076616c696461746f727320636f756e7400000000000000006064820152608490fd5b612b1d92506138dd565b5f8061283f565b5f60408051612b3281612253565b8281528260208201520152604051612b4981612253565b5f815263ffffffff4316602082015265ffffffffffff4216604082015290565b5f516020613cdc5f395f51905f52546001600160a01b03163303612b8957565b63118cdaa760e01b5f523360045260245ffd5b5f516020613cfc5f395f51905f525491612bbb60018401541515612196565b815f526019830160205260ff60405f2054166003811015611c2e57600203612c7757612c19601b9160018060a01b03600686015416906040516020810191868352604082015260408152612c10606082612289565b51902090613b5c565b9260018060a01b0384165f52601a81016020528260405f205501612c3d81546126cc565b90556040516001600160a01b03831681527f8008ec1d8798725ebfa0f2d128d52e8e717dcba6e0f786557eeee70614b02bf190602090a290565b60405162461bcd60e51b815260206004820152602e60248201527f636f6465206d7573742062652076616c696461746564206265666f726520707260448201526d37b3b930b69031b932b0ba34b7b760911b6064820152608490fd5b7f9b779b17422d0df92223018b32b4d1fa46e071723d6817e2486d003becc55f005c612d1f5760017f9b779b17422d0df92223018b32b4d1fa46e071723d6817e2486d003becc55f005d565b633ee5aeb560e01b5f5260045ffd5b9091600382019182549360408101358095036132d05781541561326b575b80949293943560208181840197612d62896125b1565b65ffffffffffff60405191612d768361226e565b84835216938491015255600484019065ffffffffffff19825416179055612da06080830183612396565b9590916060955f9860be198536030195601a600789019801985b8a8c10156131db578b60051b870135888112156114e6578701612ddc816124e2565b6001600160a01b03165f90815260208c905260409020541561317e5789546001600160a01b0316612e0c826124e2565b90606083019182356001600160801b0381168091036114e65760405163a9059cbb60e01b81526001600160a01b039092166004830152602482015290602090829060449082905f905af180156114db57613148575b506001600160a01b03612e73836124e2565b6040516309ed323560e41b8152602060048201529391169160e4840191906001600160801b0390612ede906001600160a01b03612eaf85612175565b166024880152602084013560448801526001600160a01b03612ed360408601612175565b166064880152613984565b16608485015236819003601e19016080820135818112156114e6578201602081359101936001600160401b0382116114e65760608202360385136114e657819060c060a489015252610104860193905f905b8082106130fe5750505060a0820135908112156114e6570180359160208201926001600160401b0381116114e6578060051b9182360385136114e6578681036023190160c48801528181528694928101602090810194908201925f9290913681900360de19015b838510613005575050505050505091815f8160209503925af19081156114db575f91612fd3575b50612fcb90600192612584565b9b019a612dba565b90506020813d8211612ffd575b81612fed60209383612289565b810103126114e657516001612fbe565b3d9150612fe0565b9193959750919395601f198482030187528735828112156114e657830160208101358252906001600160a01b0361303e60408401612175565b1660208201526060820135603e1936849003018112156114e65782602091010191602083359301906001600160401b0384116114e65783360382136114e6578360c092836040860152818486015260e08501375f60e085850101526001600160801b036130ad60808301613984565b16606084015260a0810135608084015201359163ffffffff60e01b83168093036114e65760e0826020939260019560a086950152601f80199101160101990197019501929091899796959492612f97565b90919460608060019288358152838060a01b0361311d60208b01612175565b1660208201526001600160801b0361313760408b01613984565b166040820152019601920190612f30565b6020813d8211613176575b8161316060209383612289565b810103126114e657518015158114612e61575f80fd5b3d9150613153565b60405162461bcd60e51b815260206004820152602f60248201527f636f756c646e277420706572666f726d207472616e736974696f6e20666f722060448201526e756e6b6e6f776e2070726f6772616d60881b6064820152608490fd5b9399509450955095506132259197506060935060208151910120937fd756eca21e02cb0dbde1e44a4d9c6921b5c8aa4668cfa0752784b3dc855bce1e6020604051898152a16125b1565b93604051946020860196875265ffffffffffff60d01b9060d01b16604086015260468501520135606683015260868201526086815261326560a682612289565b51902090565b6132786060820135613947565b612d4c5760405162461bcd60e51b815260206004820152602660248201527f616c6c6f776564207072656465636573736f7220626c6f636b207761736e277460448201526508199bdd5b9960d21b6064820152608490fd5b60405162461bcd60e51b815260206004820152602560248201527f696e76616c69642070726576696f757320636f6d6d697474656420626c6f636b604482015264040d0c2e6d60db1b6064820152608490fd5b9291926001600160401b038211611ff4576040519161334c601f8201601f191660200184612289565b8294818452818301116114e6578281602093845f960137010152565b909493919365ffffffffffff600283015460201c1661339e6133a96133a36133908442612208565b601687015493848092612215565b612240565b83612233565b918284108080613777575b15613705575083106136c0576133ca9083612233565b1061366f576133da905b8261392b565b946040519060208201908152602082526133f5604083612289565b613431603660405180936020820195601960f81b87523060601b60228401525180918484015e81015f838201520301601f198101835282612289565b519020936002811015611c2e578061358d5750506001810361354857156124ba57803590601e19813603018212156114e657018035906001600160401b0382116114e65760200181360381136114e65761348c913691613323565b9160608351036134f3578260206134db9401516060604083015192015192600181549101549070014551231950b75fc4402da1732fc9bebe198110806134de575b6134d6906127b3565b613998565b90565b506134d66134ec83836138dd565b90506134cd565b60405162461bcd60e51b815260206004820152602760248201527f46524f5354207369676e6174757265206c656e677468206d75737420626520396044820152663620627974657360c81b6064820152608490fd5b60405162461bcd60e51b815260206004820152601e60248201527f46524f5354207369676e6174757265206d7573742062652073696e676c6500006044820152606490fd5b60011461359d5750505050505f90565b6135b79061ffff60086004889598015492015416906137d2565b925f9260035f9301925b86811015613664578060051b820135601e19833603018112156114e65782018035906001600160401b0382116114e65760200181360381136114e65761361f9161361691613610913691613323565b85613bbf565b90929192613bf9565b6001600160a01b03165f9081526020859052604090205460ff16613646575b6001016135c1565b93613650906126cc565b9385850361363e5750505050505050600190565b505050505050505f90565b60405162461bcd60e51b8152602060048201526024808201527f74696d657374616d70206973206f6c646572207468616e2070726576696f75736044820152632065726160e01b6064820152608490fd5b60405162461bcd60e51b815260206004820152601e60248201527f63616e6e6f742076616c6964617465206265666f72652067656e6573697300006044820152606490fd5b9392915050428211613728576133da92613720575b506133d4565b90505f61371a565b60405162461bcd60e51b815260206004820152602160248201527f74696d657374616d702063616e6e6f7420626520696e207468652066757475726044820152606560f81b6064820152608490fd5b50613786601887015485612233565b42106133b4565b805190604060208201519101511515604051916020830193845265ffffffffffff60d01b9060d01b16604083015260f81b604682015260278152613265604782612289565b61ffff6137e0921690612240565b61270f810180911161194a57612710900490565b906014600e83015492015480831461389957818184109311918215911115918190613892575b1561382f578261382957505090565b14919050565b60405162461bcd60e51b815260206004820152603560248201527f636f756c64206e6f74206964656e746966792076616c696461746f727320666f6044820152740722074686520676976656e2074696d657374616d7605c1b6064820152608490fd5b508161381a565b606460405162461bcd60e51b815260206004820152602060248201527f657261732074696d657374616d70206d757374206e6f7420626520657175616c6044820152fd5b6401000003d01990600790829081818009900908906401000003d0199080091490565b60ff5f516020613d1c5f395f51905f525460401c161561391c57565b631afcd79f60e31b5f5260045ffd5b9061393690826137f4565b1561394157600f0190565b60090190565b905f19430143811161194a57805b613960575b505f9150565b804083810361397157506001925050565b1561397f575f190180613955565b61395a565b35906001600160801b03821682036114e657565b92939194906139a785876138dd565b15613b52578215613b525770014551231950b75fc4402da1732fc9bebe19831015613b52576001169061010e6040519161012083018381106001600160401b038211176114e65760405260883684376002600188160160888401538760898401526002840160a984015360aa830186905260ca8301527e300046524f53542d736563703235366b312d4b454343414b3235362d76316360ea8301526303430b6160e51b61010a830152812060cc820181815290600260ec84016001815360428420809318845253604270014551231950b75fc4402da1732fc9bebe19922060801c6001600160401b0360801b8260801b16179070014551231950b75fc4402da1732fc9bebe1990600160c01b9060401c090880156136645784601b6080945f9660209870014551231950b75fc4402da1732fc9bebe19910970014551231950b75fc4402da1732fc9bebe19038552018684015280604084015270014551231950b75fc4402da1732fc9bebe19910970014551231950b75fc4402da1732fc9bebe1903606082015282805260015afa156114e6575f51915f5260205260018060a01b0360405f20161490565b5050505050505f90565b6e5af43d82803e903d91602b57fd5bf390763d602d80600a3d3981f3363d3d373d3d3d363d7300000062ffffff8260881c16175f5260781b17602052603760095ff5906001600160a01b03821615613bb057565b63b06ebf3d60e01b5f5260045ffd5b8151919060418303613bef57613be89250602082015190606060408401519301515f1a90613c59565b9192909190565b50505f9160029190565b6004811015611c2e5780613c0b575050565b60018103613c225763f645eedf60e01b5f5260045ffd5b60028103613c3d575063fce698f760e01b5f5260045260245ffd5b600314613c475750565b6335e2f38360e21b5f5260045260245ffd5b91907f7fffffffffffffffffffffffffffffff5d576e7357a4501ddfe92f46681b20a08411613cd0579160209360809260ff5f9560405194855216868401526040830152606082015282805260015afa156114db575f516001600160a01b03811615613cc657905f905f90565b505f906001905f90565b5050505f916003919056fe9016d09d72d40fdae2fd8ceac6b6234c7706214fd39c1cd1e609a0528c1993005c09ca1b9b8127a4fd9f3c384aac59b661441e820e17733753ff5f2e86e1e000f0c57e16840df040f15088dc2f81fe391c3923bec73e23a9662efc9c229c6a00a2646970667358221220068f14b0bb49ed3ee258062bc507fade5844591c0d2570ae24ff17c9f8e88e5464736f6c634300081c0033f0c57e16840df040f15088dc2f81fe391c3923bec73e23a9662efc9c229c6a00","linkReferences":{}},"methodIdentifiers":{"areValidators(address[])":"8f381dbe","codeState(bytes32)":"c13911e8","codesStates(bytes32[])":"82bdeaad","commitBatch(((bytes32,uint48,bool)[],(bytes32,uint48,bytes32,bytes32,(address,bytes32,address,uint128,(bytes32,address,uint128)[],(bytes32,address,bytes,uint128,(bytes32,bytes4))[])[])[]),uint8,bytes[])":"dc360d92","commitBlocks((bytes32,uint48,bytes32,bytes32,(address,bytes32,address,uint128,(bytes32,address,uint128)[],(bytes32,address,bytes,uint128,(bytes32,bytes4))[])[])[],uint8,bytes[])":"b6a49680","commitCodes((bytes32,uint48,bool)[],uint8,bytes[])":"ea89096d","commitValidators(((uint256,uint256),(uint256,uint256)[],address[],uint256),uint8,bytes[])":"0d9078b1","computeSettings()":"84d22a4f","createProgram(bytes32,bytes32)":"527de0f9","createProgramWithDecoder(address,bytes32,bytes32)":"e7006a74","genesisBlockHash()":"28e24b3d","genesisTimestamp()":"cacf66ab","initialize(address,address,address,address,uint256,uint256,uint256,(uint256,uint256),(uint256,uint256)[],address[])":"389e7579","isValidator(address)":"facd743b","latestCommittedBlockHash()":"c9f16a11","lookupGenesisHash()":"8b1edf1e","mirrorImpl()":"e6fabc09","mirrorProxyImpl()":"65ecfea2","owner()":"8da5cb5b","programCodeId(address)":"9067088e","programsCodeIds(address[])":"baaf0201","programsCount()":"96a2ddfa","reinitialize()":"6c2eb350","renounceOwnership()":"715018a6","requestCodeValidation(bytes32)":"120e3f1e","setMirror(address)":"3d43b418","signingThresholdPercentage()":"efd81abc","transferOwnership(address)":"f2fde38b","validatedCodesCount()":"007a32e7","validators()":"ca1e7819","validatorsAggregatedPublicKey()":"3bd109fa","validatorsCount()":"ed612f8c","validatorsThreshold()":"edc87225","validatorsVerifyingShares()":"7b4dda97","wrappedVara()":"88f50cf0"},"storageLayout":{"storage":[],"types":{}},"id":130}