{"abi":[{"type":"constructor","inputs":[],"stateMutability":"nonpayable"},{"type":"function","name":"areValidators","inputs":[{"name":"_validators","type":"address[]","internalType":"address[]"}],"outputs":[{"name":"","type":"bool","internalType":"bool"}],"stateMutability":"view"},{"type":"function","name":"codeState","inputs":[{"name":"_codeId","type":"bytes32","internalType":"bytes32"}],"outputs":[{"name":"","type":"uint8","internalType":"enum Gear.CodeState"}],"stateMutability":"view"},{"type":"function","name":"codesStates","inputs":[{"name":"_codesIds","type":"bytes32[]","internalType":"bytes32[]"}],"outputs":[{"name":"","type":"uint8[]","internalType":"enum Gear.CodeState[]"}],"stateMutability":"view"},{"type":"function","name":"commitBlocks","inputs":[{"name":"_blockCommitments","type":"tuple[]","internalType":"struct Gear.BlockCommitment[]","components":[{"name":"hash","type":"bytes32","internalType":"bytes32"},{"name":"timestamp","type":"uint48","internalType":"uint48"},{"name":"previousCommittedBlock","type":"bytes32","internalType":"bytes32"},{"name":"predecessorBlock","type":"bytes32","internalType":"bytes32"},{"name":"transitions","type":"tuple[]","internalType":"struct Gear.StateTransition[]","components":[{"name":"actorId","type":"address","internalType":"address"},{"name":"newStateHash","type":"bytes32","internalType":"bytes32"},{"name":"inheritor","type":"address","internalType":"address"},{"name":"valueToReceive","type":"uint128","internalType":"uint128"},{"name":"valueClaims","type":"tuple[]","internalType":"struct Gear.ValueClaim[]","components":[{"name":"messageId","type":"bytes32","internalType":"bytes32"},{"name":"destination","type":"address","internalType":"address"},{"name":"value","type":"uint128","internalType":"uint128"}]},{"name":"messages","type":"tuple[]","internalType":"struct Gear.Message[]","components":[{"name":"id","type":"bytes32","internalType":"bytes32"},{"name":"destination","type":"address","internalType":"address"},{"name":"payload","type":"bytes","internalType":"bytes"},{"name":"value","type":"uint128","internalType":"uint128"},{"name":"replyDetails","type":"tuple","internalType":"struct Gear.ReplyDetails","components":[{"name":"to","type":"bytes32","internalType":"bytes32"},{"name":"code","type":"bytes4","internalType":"bytes4"}]}]}]}]},{"name":"_signatures","type":"bytes[]","internalType":"bytes[]"}],"outputs":[],"stateMutability":"nonpayable"},{"type":"function","name":"commitCodes","inputs":[{"name":"_codeCommitments","type":"tuple[]","internalType":"struct Gear.CodeCommitment[]","components":[{"name":"id","type":"bytes32","internalType":"bytes32"},{"name":"valid","type":"bool","internalType":"bool"}]},{"name":"_signatures","type":"bytes[]","internalType":"bytes[]"}],"outputs":[],"stateMutability":"nonpayable"},{"type":"function","name":"computeSettings","inputs":[],"outputs":[{"name":"","type":"tuple","internalType":"struct Gear.ComputationSettings","components":[{"name":"threshold","type":"uint64","internalType":"uint64"},{"name":"wvaraPerSecond","type":"uint128","internalType":"uint128"}]}],"stateMutability":"view"},{"type":"function","name":"createProgram","inputs":[{"name":"_codeId","type":"bytes32","internalType":"bytes32"},{"name":"_salt","type":"bytes32","internalType":"bytes32"}],"outputs":[{"name":"","type":"address","internalType":"address"}],"stateMutability":"nonpayable"},{"type":"function","name":"createProgramWithDecoder","inputs":[{"name":"_decoderImpl","type":"address","internalType":"address"},{"name":"_codeId","type":"bytes32","internalType":"bytes32"},{"name":"_salt","type":"bytes32","internalType":"bytes32"}],"outputs":[{"name":"","type":"address","internalType":"address"}],"stateMutability":"nonpayable"},{"type":"function","name":"genesisBlockHash","inputs":[],"outputs":[{"name":"","type":"bytes32","internalType":"bytes32"}],"stateMutability":"view"},{"type":"function","name":"initialize","inputs":[{"name":"_owner","type":"address","internalType":"address"},{"name":"_mirror","type":"address","internalType":"address"},{"name":"_mirrorProxy","type":"address","internalType":"address"},{"name":"_wrappedVara","type":"address","internalType":"address"},{"name":"_validators","type":"address[]","internalType":"address[]"}],"outputs":[],"stateMutability":"nonpayable"},{"type":"function","name":"isValidator","inputs":[{"name":"_validator","type":"address","internalType":"address"}],"outputs":[{"name":"","type":"bool","internalType":"bool"}],"stateMutability":"view"},{"type":"function","name":"latestCommittedBlockHash","inputs":[],"outputs":[{"name":"","type":"bytes32","internalType":"bytes32"}],"stateMutability":"view"},{"type":"function","name":"lookupGenesisHash","inputs":[],"outputs":[],"stateMutability":"nonpayable"},{"type":"function","name":"mirrorImpl","inputs":[],"outputs":[{"name":"","type":"address","internalType":"address"}],"stateMutability":"view"},{"type":"function","name":"mirrorProxyImpl","inputs":[],"outputs":[{"name":"","type":"address","internalType":"address"}],"stateMutability":"view"},{"type":"function","name":"owner","inputs":[],"outputs":[{"name":"","type":"address","internalType":"address"}],"stateMutability":"view"},{"type":"function","name":"programCodeId","inputs":[{"name":"_programId","type":"address","internalType":"address"}],"outputs":[{"name":"","type":"bytes32","internalType":"bytes32"}],"stateMutability":"view"},{"type":"function","name":"programsCodeIds","inputs":[{"name":"_programsIds","type":"address[]","internalType":"address[]"}],"outputs":[{"name":"","type":"bytes32[]","internalType":"bytes32[]"}],"stateMutability":"view"},{"type":"function","name":"programsCount","inputs":[],"outputs":[{"name":"","type":"uint256","internalType":"uint256"}],"stateMutability":"view"},{"type":"function","name":"reinitialize","inputs":[],"outputs":[],"stateMutability":"nonpayable"},{"type":"function","name":"renounceOwnership","inputs":[],"outputs":[],"stateMutability":"nonpayable"},{"type":"function","name":"requestCodeValidation","inputs":[{"name":"_codeId","type":"bytes32","internalType":"bytes32"},{"name":"_blobTxHash","type":"bytes32","internalType":"bytes32"}],"outputs":[],"stateMutability":"nonpayable"},{"type":"function","name":"setMirror","inputs":[{"name":"newMirror","type":"address","internalType":"address"}],"outputs":[],"stateMutability":"nonpayable"},{"type":"function","name":"signingThresholdPercentage","inputs":[],"outputs":[{"name":"","type":"uint16","internalType":"uint16"}],"stateMutability":"view"},{"type":"function","name":"transferOwnership","inputs":[{"name":"newOwner","type":"address","internalType":"address"}],"outputs":[],"stateMutability":"nonpayable"},{"type":"function","name":"validatedCodesCount","inputs":[],"outputs":[{"name":"","type":"uint256","internalType":"uint256"}],"stateMutability":"view"},{"type":"function","name":"validators","inputs":[],"outputs":[{"name":"","type":"address[]","internalType":"address[]"}],"stateMutability":"view"},{"type":"function","name":"validatorsCount","inputs":[],"outputs":[{"name":"","type":"uint256","internalType":"uint256"}],"stateMutability":"view"},{"type":"function","name":"validatorsThreshold","inputs":[],"outputs":[{"name":"","type":"uint256","internalType":"uint256"}],"stateMutability":"view"},{"type":"function","name":"wrappedVara","inputs":[],"outputs":[{"name":"","type":"address","internalType":"address"}],"stateMutability":"view"},{"type":"event","name":"BlockCommitted","inputs":[{"name":"hash","type":"bytes32","indexed":false,"internalType":"bytes32"}],"anonymous":false},{"type":"event","name":"CodeGotValidated","inputs":[{"name":"codeId","type":"bytes32","indexed":false,"internalType":"bytes32"},{"name":"valid","type":"bool","indexed":true,"internalType":"bool"}],"anonymous":false},{"type":"event","name":"CodeValidationRequested","inputs":[{"name":"codeId","type":"bytes32","indexed":false,"internalType":"bytes32"},{"name":"blobTxHash","type":"bytes32","indexed":false,"internalType":"bytes32"}],"anonymous":false},{"type":"event","name":"ComputationSettingsChanged","inputs":[{"name":"threshold","type":"uint64","indexed":false,"internalType":"uint64"},{"name":"wvaraPerSecond","type":"uint128","indexed":false,"internalType":"uint128"}],"anonymous":false},{"type":"event","name":"Initialized","inputs":[{"name":"version","type":"uint64","indexed":false,"internalType":"uint64"}],"anonymous":false},{"type":"event","name":"OwnershipTransferred","inputs":[{"name":"previousOwner","type":"address","indexed":true,"internalType":"address"},{"name":"newOwner","type":"address","indexed":true,"internalType":"address"}],"anonymous":false},{"type":"event","name":"ProgramCreated","inputs":[{"name":"actorId","type":"address","indexed":false,"internalType":"address"},{"name":"codeId","type":"bytes32","indexed":true,"internalType":"bytes32"}],"anonymous":false},{"type":"event","name":"StorageSlotChanged","inputs":[],"anonymous":false},{"type":"event","name":"ValidatorsChanged","inputs":[],"anonymous":false},{"type":"error","name":"ECDSAInvalidSignature","inputs":[]},{"type":"error","name":"ECDSAInvalidSignatureLength","inputs":[{"name":"length","type":"uint256","internalType":"uint256"}]},{"type":"error","name":"ECDSAInvalidSignatureS","inputs":[{"name":"s","type":"bytes32","internalType":"bytes32"}]},{"type":"error","name":"FailedDeployment","inputs":[]},{"type":"error","name":"InsufficientBalance","inputs":[{"name":"balance","type":"uint256","internalType":"uint256"},{"name":"needed","type":"uint256","internalType":"uint256"}]},{"type":"error","name":"InvalidInitialization","inputs":[]},{"type":"error","name":"NotInitializing","inputs":[]},{"type":"error","name":"OwnableInvalidOwner","inputs":[{"name":"owner","type":"address","internalType":"address"}]},{"type":"error","name":"OwnableUnauthorizedAccount","inputs":[{"name":"account","type":"address","internalType":"address"}]},{"type":"error","name":"ReentrancyGuardReentrantCall","inputs":[]}],"bytecode":{"object":"0x6080806040523460aa575f5160206127725f395f51905f525460ff8160401c16609b576002600160401b03196001600160401b038216016049575b6040516126c390816100af8239f35b6001600160401b0319166001600160401b039081175f5160206127725f395f51905f525581527fc7f505b2f371ae2175ee4913f4499e1f2633a7b5936321eed1cdaeb6115181d290602090a15f80603a565b63f92ee8a960e01b5f5260045ffd5b5f80fdfe6080806040526004361015610012575f80fd5b5f905f3560e01c9081627a32e714611bff5750806301b1d1561461149f5780631c149d8a1461134657806328e24b3d1461131c5780633d43b418146112ca578063527de0f91461124857806365ecfea21461120f5780636c2eb35014610f62578063715018a614610ef957806382bdeaad14610de157806384d22a4f14610d7857806388f50cf014610d3f5780638b1edf1e14610c785780638da5cb5b14610c435780638f381dbe14610bfd5780639067088e14610bb457806396a2ddfa14610b86578063baaf020114610a89578063c13911e814610a45578063c9f16a1114610a17578063ca1e78191461099e578063e6fabc0914610965578063e7006a741461084c578063e97d3eb31461061d578063ed612f8c146105ef578063edc87225146105ba578063efd81abc14610588578063f2fde38b14610560578063f8453e7c146101b75763facd743b14610167575f80fd5b346101b45760203660031901126101b457610180611c6f565b60095f51602061264e5f395f51905f5254019060018060a01b03165f52602052602060ff60405f2054166040519015158152f35b80fd5b50346101b45760a03660031901126101b4576101d1611c6f565b6024356001600160a01b038116919082900361055c576044356001600160a01b0381169290839003610558576064356001600160a01b03811690819003610554576084356001600160401b03811161055057610231903690600401611c29565b915f51602061266e5f395f51905f52549460ff8660401c1615956001600160401b03811680159081610548575b600114908161053e575b159081610535575b506105265767ffffffffffffffff1981166001175f51602061266e5f395f51905f52556102b49190876104fa575b506102a7612483565b6102af612483565b611f5b565b60409586516102c38882611d62565b6017815260208101907f726f757465722e73746f726167652e526f75746572563100000000000000000082526102f7612129565b5190205f1981019081116104e657875190602082019081526020825261031d8983611d62565b60ff19915190201694855f51602061264e5f395f51905f525561033e612290565b80518755600187019063ffffffff60208201511669ffffffffffff000000008b845493015160201b169169ffffffffffffffffffff1916171790558288805161038681611d47565b8381526020810185905201526004860180546001600160a01b03199081166001600160a01b0393841617909155600587018054821693831693909317909255600686018054909216921691909117905560078301805461ffff1916611a0a1790556103f082611e4f565b916103fd86519384611d62565b808352602083019060051b8201913683116104e257905b8282106104ca575050509061042b600a92826122d5565b610433611e9e565b506509184e72a0006020855161044881611d18565b639502f900815201520180546001600160c01b0319166d09184e72a000000000009502f900179055610478575080f35b60207fc7f505b2f371ae2175ee4913f4499e1f2633a7b5936321eed1cdaeb6115181d29160ff60401b195f51602061266e5f395f51905f5254165f51602061266e5f395f51905f52555160018152a180f35b602080916104d784611c85565b815201910190610414565b8780fd5b634e487b7160e01b89526011600452602489fd5b68ffffffffffffffffff191668010000000000000001175f51602061266e5f395f51905f52555f61029e565b63f92ee8a960e01b8952600489fd5b9050155f610270565b303b159150610268565b88915061025e565b8580fd5b8480fd5b8380fd5b8280fd5b50346101b45760203660031901126101b45761058561057d611c6f565b6102af612129565b80f35b50346101b457806003193601126101b457602061ffff60075f51602061264e5f395f51905f5254015416604051908152f35b50346101b457806003193601126101b45760206105e760075f51602061264e5f395f51905f5254016123fc565b604051908152f35b50346101b457806003193601126101b457602060085f51602061264e5f395f51905f52540154604051908152f35b50346101b45760403660031901126101b457600435906001600160401b0382116101b457366023830112156101b4578160040135916001600160401b038311610848573660248460061b83010111610848576024356001600160401b03811161055c579061069084923690600401611c29565b935f51602061264e5f395f51905f5254926106ad84541515611ca6565b6060958293600b8601975b8786101561082b578560061b84016024810135918287528a60205260ff6040882054166003811015610817576001036107b4576001926107676044610794940161070181611f2c565b1561079c57828a528d60205260408a20600260ff19825416179055600e8c0161072a8154611f39565b90555b61073681611f2c565b15157f460119a8f69a33ed127de517d5ea464e958ce23ef19e4420a8b92bf780bbc2c96020604051868152a2611f2c565b6040519060208201928352151560f81b60408201526021815261078b604182611d62565b51902090611d83565b9501946106b8565b828a528d60205260408a2060ff19815416905561072d565b60405162461bcd60e51b815260206004820152603560248201527f636f6465206d7573742062652072657175657374656420666f722076616c6964604482015274185d1a5bdb881d1bc818994818dbdb5b5a5d1d1959605a1b6064820152608490fd5b634e487b7160e01b88526021600452602488fd5b84926105859288610843936020815191012090611fdf565b611db2565b5080fd5b50346101b45760603660031901126101b457610866611c6f565b602435906108ae6044359161087b838561215c565b93604051936020850191825260408501526040845261089b606085611d62565b92519092206001600160a01b0392612548565b1690813b1561055c5760405163204a7f0760e21b81528390818160048183885af1801561095a57610945575b50506001600160a01b031690813b1561055c576040519063485cc95560e01b82523360048301526024820152828160448183865af1801561093a57610925575b602082604051908152f35b610930838092611d62565b610848578161091a565b6040513d85823e3d90fd5b8161094f91611d62565b61055c57825f6108da565b6040513d84823e3d90fd5b50346101b457806003193601126101b4575f51602061264e5f395f51905f5254600401546040516001600160a01b039091168152602090f35b50346101b457806003193601126101b4576109c960085f51602061264e5f395f51905f525401611dfe565b90604051918291602083016020845282518091526020604085019301915b8181106109f5575050500390f35b82516001600160a01b03168452859450602093840193909201916001016109e7565b50346101b457806003193601126101b457602060025f51602061264e5f395f51905f52540154604051908152f35b50346101b45760203660031901126101b45760ff6040602092600b5f51602061264e5f395f51905f52540160043582528452205416610a876040518092611c99565bf35b50346101b45760203660031901126101b4576004356001600160401b03811161084857610aba903690600401611c29565b905f51602061264e5f395f51905f525490610ad483611e4f565b91610ae26040519384611d62565b838352610aee84611e4f565b602084019490601f1901368637600c869201915b818110610b4d57868587604051928392602084019060208552518091526040840192915b818110610b34575050500390f35b8251845285945060209384019390920191600101610b26565b80610b63610b5e6001938588611e66565b611eb6565b828060a01b03165f528360205260405f2054610b7f8288611e8a565b5201610b02565b50346101b457806003193601126101b4576020600d5f51602061264e5f395f51905f52540154604051908152f35b50346101b45760203660031901126101b457610bce611c6f565b600c5f51602061264e5f395f51905f5254019060018060a01b03165f52602052602060405f2054604051908152f35b50346101b45760203660031901126101b457600435906001600160401b0382116101b4576020610c39610c333660048601611c29565b90611eca565b6040519015158152f35b50346101b457806003193601126101b4575f51602061262e5f395f51905f52546040516001600160a01b039091168152602090f35b50346101b457806003193601126101b4575f51602061264e5f395f51905f52548054610cfa5763ffffffff60018201541640908115610cb5575580f35b60405162461bcd60e51b815260206004820152601d60248201527f756e61626c6520746f206c6f6f6b75702067656e6573697320686173680000006044820152606490fd5b60405162461bcd60e51b815260206004820152601860248201527f67656e65736973206861736820616c72656164792073657400000000000000006044820152606490fd5b50346101b457806003193601126101b4575f51602061264e5f395f51905f5254600601546040516001600160a01b039091168152602090f35b50346101b457806003193601126101b457610d91611e9e565b506040600a5f51602061264e5f395f51905f5254016001600160801b03825191610dba83611d18565b548160206001600160401b038316948581520191851c168152835192835251166020820152f35b50346101b45760203660031901126101b4576004356001600160401b03811161084857610e12903690600401611c29565b905f51602061264e5f395f51905f525490610e2c83611e4f565b91610e3a6040519384611d62565b838352610e4684611e4f565b602084019490601f1901368637600b869201915b818110610eaf57868587604051928392602084019060208552518091526040840192915b818110610e8c575050500390f35b9193509160208082610ea16001948851611c99565b019401910191849392610e7e565b610eba818386611e66565b3587528260205260ff604088205416610ed38287611e8a565b6003821015610ee55752600101610e5a565b634e487b7160e01b89526021600452602489fd5b50346101b457806003193601126101b457610f12612129565b5f51602061262e5f395f51905f5280546001600160a01b0319811690915581906001600160a01b03167f8be0079c531659141344cd1fd0a4f28419497f9722a3daafe3b4186f6b6457e08280a380f35b50346101b457806003193601126101b457610f7b612129565b5f51602061266e5f395f51905f525460ff8160401c1680156111fb575b6111ec57680100000000000000029068ffffffffffffffffff1916175f51602061266e5f395f51905f52555f51602061264e5f395f51905f52546040908151610fe18382611d62565b6017815260208101907f726f757465722e73746f726167652e526f7574657256320000000000000000008252611015612129565b5190205f1981019081116111d85791602091600a807fc7f505b2f371ae2175ee4913f4499e1f2633a7b5936321eed1cdaeb6115181d2958451908682019081528682526110628683611d62565b60ff19915190201692835f51602061264e5f395f51905f5255611083612290565b80518555600185019063ffffffff888201511669ffffffffffff000000008884549301518a1b169169ffffffffffffffffffff19161717905560048101600485019080820361118a575b505061ffff600782015416600785019061ffff198254161790556110fc6110f660088301611dfe565b856122d5565b01910190808203611138575b505060ff60401b195f51602061266e5f395f51905f5254165f51602061266e5f395f51905f52555160028152a180f35b806001600160401b03806001600160801b03935416166001600160401b031984541617835554831c16600160401b600160c01b03825491841b1690600160401b600160c01b0319161790555f80611108565b5481546001600160a01b03199081166001600160a01b039283161790925560058381015490870180548416918316919091179055600680840154908701805490931691161790555f806110cd565b634e487b7160e01b84526011600452602484fd5b63f92ee8a960e01b8252600482fd5b5060026001600160401b0382161015610f98565b50346101b457806003193601126101b4575f51602061264e5f395f51905f5254600501546040516001600160a01b039091168152602090f35b346112c65761126861125936611c59565b6001600160a01b03929161215c565b16803b156112c6576040519063485cc95560e01b82523360048301525f60248301525f8260448183855af19182156112bb576020926112ab575b50604051908152f35b5f6112b591611d62565b5f6112a2565b6040513d5f823e3d90fd5b5f80fd5b346112c65760203660031901126112c6576112e3611c6f565b6112eb612129565b5f51602061264e5f395f51905f525460040180546001600160a01b0319166001600160a01b03909216919091179055005b346112c6575f3660031901126112c65760205f51602061264e5f395f51905f525454604051908152f35b346112c65761135436611c59565b908115801590611495575b1561145a57600b5f51602061264e5f395f51905f525461138181541515611ca6565b0190805f528160205260ff60405f2054166003811015611446576113e5577f65672eaf4ff8b823ea29ae013fef437d1fa9ed431125263a7a1f0ac49eada39692604092825f52602052825f20600160ff1982541617905582519182526020820152a1005b60405162461bcd60e51b815260206004820152603360248201527f676976656e20636f646520696420697320616c7265616479206f6e2076616c6960448201527219185d1a5bdb881bdc881d985b1a59185d1959606a1b6064820152608490fd5b634e487b7160e01b5f52602160045260245ffd5b60405162461bcd60e51b8152602060048201526013602482015272189b1bd88818d85b89dd08189948199bdd5b99606a1b6044820152606490fd5b505f49151561135f565b346112c65760403660031901126112c6576004356001600160401b0381116112c6576114cf903690600401611c29565b906024356001600160401b0381116112c6576114ef903690600401611c29565b90917f9b779b17422d0df92223018b32b4d1fa46e071723d6817e2486d003becc55f005c611bf0578360017f9b779b17422d0df92223018b32b4d1fa46e071723d6817e2486d003becc55f005d5f51602061264e5f395f51905f52549161155883541515611ca6565b6060935f905b83821015611bb4578160051b830135609e19843603018112156112c6578301936002860154604086013503611b615761159a606086013561242c565b15611b0d5760206115ac818701611fcc565b65ffffffffffff604051916115c083611d18565b883583521691829101528535600288015565ffffffffffff19600388015416176003870155608085013593601e19863603018512156112c6576001600160401b0385870135116112c6578486013560051b3603602086880101136112c6579597955f9260605b86880135851015611a6957878701600586901b81016020013590360360de19018112156112c65787890101602081019061165f82611eb6565b6001600160a01b03165f908152600c8e01602052604090205415611a0c5760068d01546001600160a01b03169161169581611eb6565b92608083019384356001600160801b0381168091036112c65760405163a9059cbb60e01b81526001600160a01b039092166004830152602482015290602090829060449082905f905af180156112bb576119d6575b506001600160a01b036116fc82611eb6565b16916001600160801b03611762604051956309ed323560e41b87526020600488015260e487019461173360018060a01b0391611c85565b166024880152604084013560448801526001600160a01b0361175760608601611c85565b16606488015261246f565b166084850152603e1936829003019060a0810135828112156112c657816020910101602081359101936001600160401b0382116112c65760608202360385136112c657819060c060a489015252610104860193905f905b80821061198c575050509d9e9c9d60c0810135918212156112c657602091010190813560208301926001600160401b0382116112c6578160051b9182360385136112c65792906023198783030160c488015283825260208083019383010194935f9260de1983360301925b8285106118995750505050505050602091839d9e9d5f81809403925af19081156112bb575f91611867575b5061185c90600192611d83565b940193999799611626565b90506020813d8211611891575b8161188160209383611d62565b810103126112c65751600161184f565b3d9150611874565b90919293949596601f198382030187528735858112156112c657820160208101358252906001600160a01b036118d160408401611c85565b1660208201526060820135603e1936849003018112156112c65782602091010191602083359301906001600160401b0384116112c65783360382136112c6578360c092836040860152818486015260e08501375f60e085850101526001600160801b036119406080830161246f565b16606084015260a0810135608084015201359163ffffffff60e01b83168093036112c65760e0826020939260019560a086950152601f8019910116010199019701950193929190611824565b90919460608060019288358152838060a01b036119ab60208b01611c85565b1660208201526001600160801b036119c560408b0161246f565b1660408201520196019201906117b9565b6020813d8211611a04575b816119ee60209383611d62565b810103126112c6575180151581146116ea575f80fd5b3d91506119e1565b60405162461bcd60e51b815260206004820152602f60248201527f636f756c646e277420706572666f726d207472616e736974696f6e20666f722060448201526e756e6b6e6f776e2070726f6772616d60881b6064820152608490fd5b611b02939a98959992979196506001945060208151910120907fd756eca21e02cb0dbde1e44a4d9c6921b5c8aa4668cfa0752784b3dc855bce1e602060405183358152a1611ab960208201611fcc565b9160606040519260208401948135865265ffffffffffff60d01b9060d01b166040850152604081013560468501520135606683015260868201526086815261078b60a682611d62565b95019095929161155e565b60405162461bcd60e51b815260206004820152602660248201527f616c6c6f776564207072656465636573736f7220626c6f636b207761736e277460448201526508199bdd5b9960d21b6064820152608490fd5b60405162461bcd60e51b815260206004820152602560248201527f696e76616c69642070726576696f757320636f6d6d697474656420626c6f636b604482015264040d0c2e6d60db1b6064820152608490fd5b610843611bcb918887896020815191012090611fdf565b5f7f9b779b17422d0df92223018b32b4d1fa46e071723d6817e2486d003becc55f005d005b633ee5aeb560e01b5f5260045ffd5b346112c6575f3660031901126112c657602090600e5f51602061264e5f395f51905f525401548152f35b9181601f840112156112c6578235916001600160401b0383116112c6576020808501948460051b0101116112c657565b60409060031901126112c6576004359060243590565b600435906001600160a01b03821682036112c657565b35906001600160a01b03821682036112c657565b9060038210156114465752565b15611cad57565b60405162461bcd60e51b815260206004820152603860248201527f726f757465722067656e65736973206973207a65726f3b2063616c6c20606c6f60448201527f6f6b757047656e657369734861736828296020666972737400000000000000006064820152608490fd5b604081019081106001600160401b03821117611d3357604052565b634e487b7160e01b5f52604160045260245ffd5b606081019081106001600160401b03821117611d3357604052565b90601f801991011681019081106001600160401b03821117611d3357604052565b602080611db0928195946040519682889351918291018585015e8201908382015203018085520183611d62565b565b15611db957565b60405162461bcd60e51b815260206004820152601e60248201527f7369676e61747572657320766572696669636174696f6e206661696c656400006044820152606490fd5b90604051918281549182825260208201905f5260205f20925f5b818110611e2d575050611db092500383611d62565b84546001600160a01b0316835260019485019487945060209093019201611e18565b6001600160401b038111611d335760051b60200190565b9190811015611e765760051b0190565b634e487b7160e01b5f52603260045260245ffd5b8051821015611e765760209160051b010190565b60405190611eab82611d18565b5f6020838281520152565b356001600160a01b03811681036112c65790565b5f51602061264e5f395f51905f5254600901905f5b838110611eef5750505050600190565b611efd610b5e828685611e66565b6001600160a01b03165f9081526020849052604090205460ff1615611f2457600101611edf565b505050505f90565b3580151581036112c65790565b5f198114611f475760010190565b634e487b7160e01b5f52601160045260245ffd5b6001600160a01b03168015611fb9575f51602061262e5f395f51905f5280546001600160a01b0319811683179091556001600160a01b03167f8be0079c531659141344cd1fd0a4f28419497f9722a3daafe3b4186f6b6457e05f80a3565b631e4fbdf760e01b5f525f60045260245ffd5b3565ffffffffffff811681036112c65790565b919091611fee600782016123fc565b92604051906020820190815260208252612009604083611d62565b612045603660405180936020820195601960f81b87523060601b60228401525180918484015e81015f838201520301601f198101835282611d62565b5190205f9260095f9301925b8681101561211e578060051b820135601e19833603018112156112c65782018035906001600160401b0382116112c657602081019082360382136112c657604051906120a7601f8501601f191660200183611d62565b83825260208436920101116112c6575f6020846120d9956120d0958386013783010152856124ae565b909291926124e8565b6001600160a01b03165f9081526020859052604090205460ff16612100575b600101612051565b9361210a90611f39565b938585036120f85750505050505050600190565b505050505050505f90565b5f51602061262e5f395f51905f52546001600160a01b0316330361214957565b63118cdaa760e01b5f523360045260245ffd5b5f51602061264e5f395f51905f52549161217883541515611ca6565b815f52600b830160205260ff60405f205416600381101561144657600203612234576121d6600d9160018060a01b036005860154169060405160208101918683526040820152604081526121cd606082611d62565b51902090612548565b9260018060a01b0384165f52600c81016020528260405f2055016121fa8154611f39565b90556040516001600160a01b03831681527f8008ec1d8798725ebfa0f2d128d52e8e717dcba6e0f786557eeee70614b02bf190602090a290565b60405162461bcd60e51b815260206004820152602e60248201527f636f6465206d7573742062652076616c696461746564206265666f726520707260448201526d37b3b930b69031b932b0ba34b7b760911b6064820152608490fd5b5f6040805161229e81611d47565b82815282602082015201526040516122b581611d47565b5f815263ffffffff4316602082015265ffffffffffff4216604082015290565b90600882019081546123b8579091600901905f5b815181101561232a576001906001600160a01b036123078285611e8a565b5116828060a01b03165f528360205260405f208260ff19825416179055016122e9565b5080519291506001600160401b038311611d3357680100000000000000008311611d33578154838355808410612392575b50602001905f5260205f205f5b8381106123755750505050565b82516001600160a01b031681830155602090920191600101612368565b825f528360205f2091820191015b8181106123ad575061235b565b5f81556001016123a0565b606460405162461bcd60e51b815260206004820152602060248201527f72656d6f76652070726576696f75732076616c696461746f72732066697273746044820152fd5b61ffff600182015491541690818102918183041490151715611f475761270f8101809111611f4757612710900490565b905f194301438111611f4757805b612445575b505f9150565b804083810361245657506001925050565b1561246a578015611f47575f19018061243a565b61243f565b35906001600160801b03821682036112c657565b60ff5f51602061266e5f395f51905f525460401c161561249f57565b631afcd79f60e31b5f5260045ffd5b81519190604183036124de576124d79250602082015190606060408401519301515f1a906125ab565b9192909190565b50505f9160029190565b600481101561144657806124fa575050565b600181036125115763f645eedf60e01b5f5260045ffd5b6002810361252c575063fce698f760e01b5f5260045260245ffd5b6003146125365750565b6335e2f38360e21b5f5260045260245ffd5b6e5af43d82803e903d91602b57fd5bf390763d602d80600a3d3981f3363d3d373d3d3d363d7300000062ffffff8260881c16175f5260781b17602052603760095ff5906001600160a01b0382161561259c57565b63b06ebf3d60e01b5f5260045ffd5b91907f7fffffffffffffffffffffffffffffff5d576e7357a4501ddfe92f46681b20a08411612622579160209360809260ff5f9560405194855216868401526040830152606082015282805260015afa156112bb575f516001600160a01b0381161561261857905f905f90565b505f906001905f90565b5050505f916003919056fe9016d09d72d40fdae2fd8ceac6b6234c7706214fd39c1cd1e609a0528c1993005c09ca1b9b8127a4fd9f3c384aac59b661441e820e17733753ff5f2e86e1e000f0c57e16840df040f15088dc2f81fe391c3923bec73e23a9662efc9c229c6a00a2646970667358221220e9a483acd9d0e5bc802a7a40d304ef919fc2d99f2eaefd0c5911639d8942e10b64736f6c634300081c0033f0c57e16840df040f15088dc2f81fe391c3923bec73e23a9662efc9c229c6a00","linkReferences":{}},"methodIdentifiers":{"areValidators(address[])":"8f381dbe","codeState(bytes32)":"c13911e8","codesStates(bytes32[])":"82bdeaad","commitBlocks((bytes32,uint48,bytes32,bytes32,(address,bytes32,address,uint128,(bytes32,address,uint128)[],(bytes32,address,bytes,uint128,(bytes32,bytes4))[])[])[],bytes[])":"01b1d156","commitCodes((bytes32,bool)[],bytes[])":"e97d3eb3","computeSettings()":"84d22a4f","createProgram(bytes32,bytes32)":"527de0f9","createProgramWithDecoder(address,bytes32,bytes32)":"e7006a74","genesisBlockHash()":"28e24b3d","initialize(address,address,address,address,address[])":"f8453e7c","isValidator(address)":"facd743b","latestCommittedBlockHash()":"c9f16a11","lookupGenesisHash()":"8b1edf1e","mirrorImpl()":"e6fabc09","mirrorProxyImpl()":"65ecfea2","owner()":"8da5cb5b","programCodeId(address)":"9067088e","programsCodeIds(address[])":"baaf0201","programsCount()":"96a2ddfa","reinitialize()":"6c2eb350","renounceOwnership()":"715018a6","requestCodeValidation(bytes32,bytes32)":"1c149d8a","setMirror(address)":"3d43b418","signingThresholdPercentage()":"efd81abc","transferOwnership(address)":"f2fde38b","validatedCodesCount()":"007a32e7","validators()":"ca1e7819","validatorsCount()":"ed612f8c","validatorsThreshold()":"edc87225","wrappedVara()":"88f50cf0"},"storageLayout":{"storage":[],"types":{}},"id":159}