{"abi":[{"type":"constructor","inputs":[],"stateMutability":"nonpayable"},{"type":"function","name":"areValidators","inputs":[{"name":"_validators","type":"address[]","internalType":"address[]"}],"outputs":[{"name":"","type":"bool","internalType":"bool"}],"stateMutability":"view"},{"type":"function","name":"codeState","inputs":[{"name":"_codeId","type":"bytes32","internalType":"bytes32"}],"outputs":[{"name":"","type":"uint8","internalType":"enum Gear.CodeState"}],"stateMutability":"view"},{"type":"function","name":"codesStates","inputs":[{"name":"_codesIds","type":"bytes32[]","internalType":"bytes32[]"}],"outputs":[{"name":"","type":"uint8[]","internalType":"enum Gear.CodeState[]"}],"stateMutability":"view"},{"type":"function","name":"commitBlocks","inputs":[{"name":"_blockCommitments","type":"tuple[]","internalType":"struct Gear.BlockCommitment[]","components":[{"name":"hash","type":"bytes32","internalType":"bytes32"},{"name":"timestamp","type":"uint48","internalType":"uint48"},{"name":"previousCommittedBlock","type":"bytes32","internalType":"bytes32"},{"name":"predecessorBlock","type":"bytes32","internalType":"bytes32"},{"name":"transitions","type":"tuple[]","internalType":"struct Gear.StateTransition[]","components":[{"name":"actorId","type":"address","internalType":"address"},{"name":"newStateHash","type":"bytes32","internalType":"bytes32"},{"name":"inheritor","type":"address","internalType":"address"},{"name":"valueToReceive","type":"uint128","internalType":"uint128"},{"name":"valueClaims","type":"tuple[]","internalType":"struct Gear.ValueClaim[]","components":[{"name":"messageId","type":"bytes32","internalType":"bytes32"},{"name":"destination","type":"address","internalType":"address"},{"name":"value","type":"uint128","internalType":"uint128"}]},{"name":"messages","type":"tuple[]","internalType":"struct Gear.Message[]","components":[{"name":"id","type":"bytes32","internalType":"bytes32"},{"name":"destination","type":"address","internalType":"address"},{"name":"payload","type":"bytes","internalType":"bytes"},{"name":"value","type":"uint128","internalType":"uint128"},{"name":"replyDetails","type":"tuple","internalType":"struct Gear.ReplyDetails","components":[{"name":"to","type":"bytes32","internalType":"bytes32"},{"name":"code","type":"bytes4","internalType":"bytes4"}]}]}]}]},{"name":"_signatureType","type":"uint8","internalType":"enum Gear.SignatureType"},{"name":"_signatures","type":"bytes[]","internalType":"bytes[]"}],"outputs":[],"stateMutability":"nonpayable"},{"type":"function","name":"commitCodes","inputs":[{"name":"_codeCommitments","type":"tuple[]","internalType":"struct Gear.CodeCommitment[]","components":[{"name":"id","type":"bytes32","internalType":"bytes32"},{"name":"valid","type":"bool","internalType":"bool"}]},{"name":"_signatureType","type":"uint8","internalType":"enum Gear.SignatureType"},{"name":"_signatures","type":"bytes[]","internalType":"bytes[]"}],"outputs":[],"stateMutability":"nonpayable"},{"type":"function","name":"commitValidators","inputs":[{"name":"_validatorsCommitment","type":"tuple","internalType":"struct Gear.ValidatorsCommitment","components":[{"name":"aggregatedPublicKey","type":"tuple","internalType":"struct Gear.AggregatedPublicKey","components":[{"name":"x","type":"uint256","internalType":"uint256"},{"name":"y","type":"uint256","internalType":"uint256"}]},{"name":"verifyingShares","type":"tuple[]","internalType":"struct Gear.VerifyingShare[]","components":[{"name":"x","type":"uint256","internalType":"uint256"},{"name":"y","type":"uint256","internalType":"uint256"}]},{"name":"validators","type":"address[]","internalType":"address[]"},{"name":"eraIndex","type":"uint256","internalType":"uint256"}]},{"name":"_signatureType","type":"uint8","internalType":"enum Gear.SignatureType"},{"name":"_signatures","type":"bytes[]","internalType":"bytes[]"}],"outputs":[],"stateMutability":"nonpayable"},{"type":"function","name":"computeSettings","inputs":[],"outputs":[{"name":"","type":"tuple","internalType":"struct Gear.ComputationSettings","components":[{"name":"threshold","type":"uint64","internalType":"uint64"},{"name":"wvaraPerSecond","type":"uint128","internalType":"uint128"}]}],"stateMutability":"view"},{"type":"function","name":"createProgram","inputs":[{"name":"_codeId","type":"bytes32","internalType":"bytes32"},{"name":"_salt","type":"bytes32","internalType":"bytes32"}],"outputs":[{"name":"","type":"address","internalType":"address"}],"stateMutability":"nonpayable"},{"type":"function","name":"createProgramWithDecoder","inputs":[{"name":"_decoderImpl","type":"address","internalType":"address"},{"name":"_codeId","type":"bytes32","internalType":"bytes32"},{"name":"_salt","type":"bytes32","internalType":"bytes32"}],"outputs":[{"name":"","type":"address","internalType":"address"}],"stateMutability":"nonpayable"},{"type":"function","name":"genesisBlockHash","inputs":[],"outputs":[{"name":"","type":"bytes32","internalType":"bytes32"}],"stateMutability":"view"},{"type":"function","name":"genesisTimestamp","inputs":[],"outputs":[{"name":"","type":"uint48","internalType":"uint48"}],"stateMutability":"view"},{"type":"function","name":"initialize","inputs":[{"name":"_owner","type":"address","internalType":"address"},{"name":"_mirror","type":"address","internalType":"address"},{"name":"_mirrorProxy","type":"address","internalType":"address"},{"name":"_wrappedVara","type":"address","internalType":"address"},{"name":"_eraDuration","type":"uint256","internalType":"uint256"},{"name":"_electionDuration","type":"uint256","internalType":"uint256"},{"name":"_validationDelay","type":"uint256","internalType":"uint256"},{"name":"_aggregatedPublicKey","type":"tuple","internalType":"struct Gear.AggregatedPublicKey","components":[{"name":"x","type":"uint256","internalType":"uint256"},{"name":"y","type":"uint256","internalType":"uint256"}]},{"name":"_verifyingShares","type":"tuple[]","internalType":"struct Gear.VerifyingShare[]","components":[{"name":"x","type":"uint256","internalType":"uint256"},{"name":"y","type":"uint256","internalType":"uint256"}]},{"name":"_validators","type":"address[]","internalType":"address[]"}],"outputs":[],"stateMutability":"nonpayable"},{"type":"function","name":"isValidator","inputs":[{"name":"_validator","type":"address","internalType":"address"}],"outputs":[{"name":"","type":"bool","internalType":"bool"}],"stateMutability":"view"},{"type":"function","name":"latestCommittedBlockHash","inputs":[],"outputs":[{"name":"","type":"bytes32","internalType":"bytes32"}],"stateMutability":"view"},{"type":"function","name":"lookupGenesisHash","inputs":[],"outputs":[],"stateMutability":"nonpayable"},{"type":"function","name":"mirrorImpl","inputs":[],"outputs":[{"name":"","type":"address","internalType":"address"}],"stateMutability":"view"},{"type":"function","name":"mirrorProxyImpl","inputs":[],"outputs":[{"name":"","type":"address","internalType":"address"}],"stateMutability":"view"},{"type":"function","name":"owner","inputs":[],"outputs":[{"name":"","type":"address","internalType":"address"}],"stateMutability":"view"},{"type":"function","name":"programCodeId","inputs":[{"name":"_programId","type":"address","internalType":"address"}],"outputs":[{"name":"","type":"bytes32","internalType":"bytes32"}],"stateMutability":"view"},{"type":"function","name":"programsCodeIds","inputs":[{"name":"_programsIds","type":"address[]","internalType":"address[]"}],"outputs":[{"name":"","type":"bytes32[]","internalType":"bytes32[]"}],"stateMutability":"view"},{"type":"function","name":"programsCount","inputs":[],"outputs":[{"name":"","type":"uint256","internalType":"uint256"}],"stateMutability":"view"},{"type":"function","name":"reinitialize","inputs":[],"outputs":[],"stateMutability":"nonpayable"},{"type":"function","name":"renounceOwnership","inputs":[],"outputs":[],"stateMutability":"nonpayable"},{"type":"function","name":"requestCodeValidation","inputs":[{"name":"_codeId","type":"bytes32","internalType":"bytes32"},{"name":"_blobTxHash","type":"bytes32","internalType":"bytes32"}],"outputs":[],"stateMutability":"nonpayable"},{"type":"function","name":"setMirror","inputs":[{"name":"newMirror","type":"address","internalType":"address"}],"outputs":[],"stateMutability":"nonpayable"},{"type":"function","name":"signingThresholdPercentage","inputs":[],"outputs":[{"name":"","type":"uint16","internalType":"uint16"}],"stateMutability":"view"},{"type":"function","name":"transferOwnership","inputs":[{"name":"newOwner","type":"address","internalType":"address"}],"outputs":[],"stateMutability":"nonpayable"},{"type":"function","name":"validatedCodesCount","inputs":[],"outputs":[{"name":"","type":"uint256","internalType":"uint256"}],"stateMutability":"view"},{"type":"function","name":"validators","inputs":[],"outputs":[{"name":"","type":"address[]","internalType":"address[]"}],"stateMutability":"view"},{"type":"function","name":"validatorsCount","inputs":[],"outputs":[{"name":"","type":"uint256","internalType":"uint256"}],"stateMutability":"view"},{"type":"function","name":"validatorsThreshold","inputs":[],"outputs":[{"name":"","type":"uint256","internalType":"uint256"}],"stateMutability":"view"},{"type":"function","name":"validatorsVerifyingShares","inputs":[],"outputs":[{"name":"","type":"tuple[]","internalType":"struct Gear.VerifyingShare[]","components":[{"name":"x","type":"uint256","internalType":"uint256"},{"name":"y","type":"uint256","internalType":"uint256"}]}],"stateMutability":"view"},{"type":"function","name":"wrappedVara","inputs":[],"outputs":[{"name":"","type":"address","internalType":"address"}],"stateMutability":"view"},{"type":"event","name":"BlockCommitted","inputs":[{"name":"hash","type":"bytes32","indexed":false,"internalType":"bytes32"}],"anonymous":false},{"type":"event","name":"CodeGotValidated","inputs":[{"name":"codeId","type":"bytes32","indexed":false,"internalType":"bytes32"},{"name":"valid","type":"bool","indexed":true,"internalType":"bool"}],"anonymous":false},{"type":"event","name":"CodeValidationRequested","inputs":[{"name":"codeId","type":"bytes32","indexed":false,"internalType":"bytes32"},{"name":"blobTxHash","type":"bytes32","indexed":false,"internalType":"bytes32"}],"anonymous":false},{"type":"event","name":"ComputationSettingsChanged","inputs":[{"name":"threshold","type":"uint64","indexed":false,"internalType":"uint64"},{"name":"wvaraPerSecond","type":"uint128","indexed":false,"internalType":"uint128"}],"anonymous":false},{"type":"event","name":"Initialized","inputs":[{"name":"version","type":"uint64","indexed":false,"internalType":"uint64"}],"anonymous":false},{"type":"event","name":"NextEraValidatorsCommitted","inputs":[{"name":"startTimestamp","type":"uint256","indexed":false,"internalType":"uint256"}],"anonymous":false},{"type":"event","name":"OwnershipTransferred","inputs":[{"name":"previousOwner","type":"address","indexed":true,"internalType":"address"},{"name":"newOwner","type":"address","indexed":true,"internalType":"address"}],"anonymous":false},{"type":"event","name":"ProgramCreated","inputs":[{"name":"actorId","type":"address","indexed":false,"internalType":"address"},{"name":"codeId","type":"bytes32","indexed":true,"internalType":"bytes32"}],"anonymous":false},{"type":"event","name":"StorageSlotChanged","inputs":[],"anonymous":false},{"type":"error","name":"ECDSAInvalidSignature","inputs":[]},{"type":"error","name":"ECDSAInvalidSignatureLength","inputs":[{"name":"length","type":"uint256","internalType":"uint256"}]},{"type":"error","name":"ECDSAInvalidSignatureS","inputs":[{"name":"s","type":"bytes32","internalType":"bytes32"}]},{"type":"error","name":"FailedDeployment","inputs":[]},{"type":"error","name":"InsufficientBalance","inputs":[{"name":"balance","type":"uint256","internalType":"uint256"},{"name":"needed","type":"uint256","internalType":"uint256"}]},{"type":"error","name":"InvalidInitialization","inputs":[]},{"type":"error","name":"NotInitializing","inputs":[]},{"type":"error","name":"OwnableInvalidOwner","inputs":[{"name":"owner","type":"address","internalType":"address"}]},{"type":"error","name":"OwnableUnauthorizedAccount","inputs":[{"name":"account","type":"address","internalType":"address"}]},{"type":"error","name":"ReentrancyGuardReentrantCall","inputs":[]}],"bytecode":{"object":"0x6080806040523460aa575f516020613c265f395f51905f525460ff8160401c16609b576002600160401b03196001600160401b038216016049575b604051613b7790816100af8239f35b6001600160401b0319166001600160401b039081175f516020613c265f395f51905f525581527fc7f505b2f371ae2175ee4913f4499e1f2633a7b5936321eed1cdaeb6115181d290602090a15f80603a565b63f92ee8a960e01b5f5260045ffd5b5f80fdfe6101a0806040526004361015610013575f80fd5b5f610140525f3560e01c9081627a32e714612675575080630d9078b11461223d5780631c149d8a146120f857806328e24b3d146120ce578063389e757914611b755780633d43b41814611b2357806344d5ec1f14611919578063527de0f91461189257806365ecfea2146118575780636c2eb3501461152b578063715018a6146114b95780637b4dda971461142f57806382bdeaad1461130457806384d22a4f1461129957806388f50cf01461125e5780638b1edf1e146111915780638da5cb5b1461115a5780638f381dbe146111155780639067088e146110cd57806396a2ddfa1461109d578063b6a4968014610676578063baaf020114610575578063c13911e81461052b578063c9f16a11146104fb578063ca1e781914610474578063cacf66ab1461043a578063e6fabc09146103ff578063e7006a74146102d4578063ed612f8c1461029a578063edc872251461024e578063efd81abc1461021a578063f2fde38b146101ea5763facd743b1461018c575f80fd5b346101e35760203660031901126101e3576101a56126e5565b60036101c05f516020613b025f395f51905f5254429061372b565b019060018060a01b03165f52602052602060ff60405f2054166040519015158152f35b6101405180fd5b346101e35760203660031901126101e3576102136102066126e5565b61020e613001565b612bbf565b6101405180f35b346101e357610140513660031901126101e357602061ffff60075f516020613b025f395f51905f5254015416604051908152f35b346101e357610140513660031901126101e35760206102925f516020613b025f395f51905f525461ffff60076004610286428561372b565b015492015416906135d2565b604051908152f35b346101e357610140513660031901126101e357602060046102ca5f516020613b025f395f51905f5254429061372b565b0154604051908152f35b346101e35760603660031901126101e3576102ed6126e5565b60243590610335604435916103028385613034565b9360405193602085019182526040850152604084526103226060856127cd565b92519092206001600160a01b0392613962565b16803b156101e35760405163189acdbd60e31b81526001600160a01b0390921660048301819052610140519092908160248183865af180156103d6576103e4575b50813b156101e35760405163485cc95560e01b81523360048201526024810191909152610140518160448183865af180156103d6576103bb575b602082604051908152f35b610140516103c8916127cd565b610140516101e357816103b0565b6040513d61014051823e3d90fd5b610140516103f1916127cd565b610140516101e35782610376565b346101e357610140513660031901126101e3575f516020613b025f395f51905f5254600401546040516001600160a01b039091168152602090f35b346101e357610140513660031901126101e357602065ffffffffffff60015f516020613b025f395f51905f52540154821c16604051908152f35b346101e357610140513660031901126101e3576104ab60046104a55f516020613b025f395f51905f5254429061372b565b01612a8b565b604051809160208201602083528151809152602060408401920190610140515b8181106104d9575050500390f35b82516001600160a01b03168452859450602093840193909201916001016104cb565b346101e357610140513660031901126101e357602060025f516020613b025f395f51905f52540154604051908152f35b346101e35760203660031901126101e35760185f516020613b025f395f51905f5254016004356101405152602052602060ff604061014051205416610573604051809261273f565bf35b346101e35760203660031901126101e3576004356001600160401b0381116101e3576105a590369060040161269f565b5f516020613b025f395f51905f5254916105be82612816565b926105cc60405194856127cd565b8284526105d883612816565b602085019390601f19013685376019610140519201915b81811061063d57848660405191829160208301906020845251809152604083019190610140515b818110610624575050500390f35b8251845285945060209384019390920191600101610616565b8061065361064e6001938588612adc565b612b2c565b828060a01b03165f528360205260405f205461066f8289612b00565b52016105ef565b346101e35760603660031901126101e3576004356001600160401b0381116101e3576106a690369060040161269f565b9060c052600260243510156101e3576044356001600160401b0381116101e3576106d490369060040161269f565b907f9b779b17422d0df92223018b32b4d1fa46e071723d6817e2486d003becc55f005c6110885760017f9b779b17422d0df92223018b32b4d1fa46e071723d6817e2486d003becc55f005d5f516020613b025f395f51905f5254610100526107416101005154151561290f565b82156110435761014051608081905260e05291606091905b8060e0511015610ff057610140515060e05160051b60c051013560a052609e1960c05136030160a05112156101e3576002610100510154604060a05160c05101013503610f9d576107b3606060a05160c051010135613747565b15610f495760206107cb8160a05160c0510101612bac565b65ffffffffffff604051916107df836127b2565b60a05160c0510135835216918291015260a05160c0510135600261010051015565ffffffffffff19600361010051015416176003610100510155610832608060a05160c051010160a05160c051016128da565b6101605261012052610140519160605b61016051841015610e3857610120513681900360be1901600586901b9091013512156101e35761087f8460051b6101205101356101205101612b2c565b6001600160a01b03165f90815261010051601901602052604090205415610ddb5760018060a01b036006610100510154166108c78560051b6101205101356101205101612b2c565b60608660051b610120510135610120510101356001600160801b03811681036101e35760405163a9059cbb60e01b81526001600160a01b0390921660048301526001600160801b03166024820152610140519091602091839160449183915af180156103d657610da2575b50610120516001600160a01b039061095290600587901b81013501612b2c565b16604051610180526309ed323560e41b61018051526020600461018051015260e461018051019060018060a01b036109978760051b61012051013561012051016126fb565b16602461018051015260208660051b61012051013561012051010135604461018051015260018060a01b036109dc60408860051b6101205101356101205101016126fb565b1660646101805101526001600160801b03610a0760608860051b61012051013561012051010161378a565b6101805191166084919091015261012051600587901b810135016080810135903603601e19018112156101e3578660051b610120510135610120510101916001600160401b038335116101e3576060833502360360208401136101e35760c060a461018051015282359052610104610180510191602081019061014051905b80358210610d5857505061012051600588901b8101350160a08101359391503603601e19018312156101e3576001600160401b038760051b6101205101356101205101840135116101e35761012051600588811b8201359091018401803590911b36036020909101136101e357610180518082036023190160c4909101526101208051600589811b82810135909201860135845291516101405191810135018501602081810196913590931b840183019493928301925b8a60051b61012051013561012051018201358310610bd2575050505060209250610180519161018051900390610180519061014051905af180156103d6576101405190610b99575b610b919060019261299c565b930192610842565b5060203d8111610bcb575b80610bb4602092610180516127cd565b6101805190810103126101e3576101805151610b85565b503d610ba4565b9091929394601f1982820301855286359060de198c60051b610120510135610120510185013603018212156101e357610120805160058e901b818101359091018601840160200135835290516001600160a01b0391610c3c919081013501860184016040016126fb565b1660208201526101205160058d901b8101350184018201606081013590603e193691909103018112156101e3576101205160058e901b810135018501830101602001916001600160401b038335116101e3578235360360208401136101e35760c09060a08e83604086015285358486015285356020870160e08701376101405160e08735870101526001600160801b03610cea60808360051b61012051013561012051018b0186010161378a565b16606086015260051b610120510135610120510187018201013560808401528d60051b610120510135610120510186010101359163ffffffff60e01b83168093036101e35760a08201929092526020978801979135601f01601f19160160e001959401926001019190610b3d565b90919360608060019287358152838060a01b03610d7760208a016126fb565b1660208201526001600160801b03610d9160408a0161378a565b166040820152019501920190610a86565b6020813d8211610dd3575b81610dba602093836127cd565b810103126101e357518015158114610932576101405180fd5b3d9150610dad565b60405162461bcd60e51b815260206004820152602f60248201527f636f756c646e277420706572666f726d207472616e736974696f6e20666f722060448201526e756e6b6e6f776e2070726f6772616d60881b6064820152608490fd5b610ef192959350939093602081519101207fd756eca21e02cb0dbde1e44a4d9c6921b5c8aa4668cfa0752784b3dc855bce1e602060405160a05160c05101358152a1610e8c602060a05160c0510101612bac565b9060405190602082019260a05160c0510135845265ffffffffffff60d01b9060d01b166040830152604060a05160c0510101356046830152606060a05160c0510101356066830152608682015260868152610ee860a6826127cd565b5190209061299c565b9260805165ffffffffffff610f0e602060a05160c0510101612bac565b1611610f27575b600160e0510160e05292919092610759565b65ffffffffffff610f40602060a05160c0510101612bac565b16608052610f15565b60405162461bcd60e51b815260206004820152602660248201527f616c6c6f776564207072656465636573736f7220626c6f636b207761736e277460448201526508199bdd5b9960d21b6064820152608490fd5b60405162461bcd60e51b815260206004820152602560248201527f696e76616c69642070726576696f757320636f6d6d697474656420626c6f636b604482015264040d0c2e6d60db1b6064820152608490fd5b611016611011848487608051926024359060208151910120610100516131ad565b6129cb565b610140517f9b779b17422d0df92223018b32b4d1fa46e071723d6817e2486d003becc55f005d6101405180f35b60405162461bcd60e51b815260206004820152601e60248201527f6e6f20626c6f636b20636f6d6d69746d656e747320746f20636f6d6d697400006044820152606490fd5b633ee5aeb560e01b6101405152600461014051fd5b346101e357610140513660031901126101e3576020601a5f516020613b025f395f51905f52540154604051908152f35b346101e35760203660031901126101e3576110e66126e5565b60195f516020613b025f395f51905f5254019060018060a01b03165f52602052602060405f2054604051908152f35b346101e35760203660031901126101e3576004356001600160401b0381116101e35761115061114a602092369060040161269f565b90612b40565b6040519015158152f35b346101e357610140513660031901126101e3575f516020613ae25f395f51905f52546040516001600160a01b039091168152602090f35b346101e357610140513660031901126101e3575f516020613b025f395f51905f525480546112195763ffffffff600182015416409081156111d457556101405180f35b60405162461bcd60e51b815260206004820152601d60248201527f756e61626c6520746f206c6f6f6b75702067656e6573697320686173680000006044820152606490fd5b60405162461bcd60e51b815260206004820152601860248201527f67656e65736973206861736820616c72656164792073657400000000000000006044820152606490fd5b346101e357610140513660031901126101e3575f516020613b025f395f51905f5254600601546040516001600160a01b039091168152602090f35b346101e357610140513660031901126101e3576112b4612b14565b50604060145f516020613b025f395f51905f5254016001600160801b038251916112dd836127b2565b548160206001600160401b038316948581520191851c168152835192835251166020820152f35b346101e35760203660031901126101e3576004356001600160401b0381116101e35761133490369060040161269f565b5f516020613b025f395f51905f52549161134d82612816565b9261135b60405194856127cd565b82845261136783612816565b602085019390601f19013685376018610140519201915b8181106113d657848660405191829160208301906020845251809152604083019190610140515b8181106113b3575050500390f35b91935091602080826113c8600194885161273f565b0194019101918493926113a5565b6113e1818386612adc565b3561014051528260205260ff604061014051205416906114018188612b00565b91600381101561141557600192520161137e565b634e487b7160e01b61014051526021600452602461014051fd5b346101e357610140513660031901126101e35761146660026114605f516020613b025f395f51905f5254429061372b565b01612a35565b604051809160208201602083528151809152602060408401920190610140515b818110611494575050500390f35b8251805185526020908101518186015286955060409094019390920191600101611486565b346101e357610140513660031901126101e3576114d4613001565b5f516020613ae25f395f51905f5280546001600160a01b0319811690915561014051906001600160a01b03167f8be0079c531659141344cd1fd0a4f28419497f9722a3daafe3b4186f6b6457e08280a36101405180f35b346101e357610140513660031901126101e357611546613001565b5f516020613b225f395f51905f525460ff8160401c168015611843575b61182e5768ffffffffffffffffff191668010000000000000002175f516020613b225f395f51905f52555f516020613b025f395f51905f5254604080516115aa82826127cd565b6017815260208101907f726f757465722e73746f726167652e526f75746572563200000000000000000082526115de613001565b5190205f19810191908211611814577fc7f505b2f371ae2175ee4913f4499e1f2633a7b5936321eed1cdaeb6115181d29260209282519084820190815284825261162884836127cd565b60ff19915190201690815f516020613b025f395f51905f5255611649612fbc565b80518355600183019063ffffffff868201511669ffffffffffff00000000868454930151881b169169ffffffffffffffffffff1916171790556004810160048301908082036117c6575b505061ffff600782015416600783019061ffff198254161790556116fa6116ba428361372b565b60026116c6428561372b565b016116e66116e060046116d9428861372b565b0193612a17565b91612a35565b6116f04293612a8b565b9160088601612ca6565b601481016014830190808203611774575b5050601581016015830191818303611754575b5050505060ff60401b195f516020613b225f395f51905f5254165f516020613b225f395f51905f52555160028152a16101405180f35b60179283925490556016810154601685015501549101558380808061171e565b806001600160401b03806001600160801b03935416166001600160401b031984541617835554851c16600160401b600160c01b03825491861b1690600160401b600160c01b031916179055858061170b565b5481546001600160a01b03199081166001600160a01b039283161790925560058381015490850180548416918316919091179055600680840154908501805490931691161790558580611693565b634e487b7160e01b61014051526011600452602461014051fd5b63f92ee8a960e01b6101405152600461014051fd5b5060026001600160401b0382161015611563565b346101e357610140513660031901126101e3575f516020613b025f395f51905f5254600501546040516001600160a01b039091168152602090f35b34611915576118b26118a3366126cf565b6001600160a01b039291613034565b16803b15611915576040519063485cc95560e01b82523360048301525f60248301525f8260448183855af191821561190a576020926118f5575b50604051908152f35b5f6118ff916127cd565b5f61014052826118ec565b6040513d5f823e3d90fd5b5f80fd5b34611915576060366003190112611915576004356001600160401b0381116119155761194990369060040161270f565b602435906002821015611915576044356001600160401b038111611915576119768491369060040161269f565b9390915f516020613b025f395f51905f5254946119958654151561290f565b60188601935f9360605b87861015611b08578560061b8501803591825f528860205260ff60405f2054166003811015611af457600103611a9157600192611a4c6020611a7094018d6119e682612981565b15611a7857601b90845f528d60205260405f20600260ff1982541617905501611a0f815461298e565b90555b611a1b81612981565b15157f460119a8f69a33ed127de517d5ea464e958ce23ef19e4420a8b92bf780bbc2c96020604051868152a2612981565b6040519060208201928352151560f81b604082015260218152610ee86041826127cd565b95019461199f565b50825f528b60205260405f2060ff198154169055611a12565b60405162461bcd60e51b815260206004820152603560248201527f636f6465206d7573742062652072657175657374656420666f722076616c6964604482015274185d1a5bdb881d1bc818994818dbdb5b5a5d1d1959605a1b6064820152608490fd5b634e487b7160e01b5f52602160045260245ffd5b92611011928992611b21956020815191012042946131ad565b005b3461191557602036600319011261191557611b3c6126e5565b611b44613001565b5f516020613b025f395f51905f525460040180546001600160a01b0319166001600160a01b03909216919091179055005b346119155761016036600319011261191557611b8f6126e5565b6024356001600160a01b0381169190829003611915576044356001600160a01b0381169290839003611915576064356001600160a01b038116908190036119155760c43593608435929060a43560403660e319011261191557610124356001600160401b03811161191557611c0890369060040161270f565b919092610144356001600160401b03811161191557611c2b90369060040161269f565b9690945f516020613b225f395f51905f525460ff8160401c16159a6001600160401b038216801590816120c6575b60011490816120bc575b1590816120b3575b506120a45767ffffffffffffffff1982166001175f516020613b225f395f51905f5255611ca9918c612078575b50611ca1613700565b61020e613700565b4215612022578315611fcc5783891115611f6b57600a611cc9858b61274c565b048b1015611f265760409a8b51611ce08d826127cd565b6017815260208101907f726f757465722e73746f726167652e526f7574657256310000000000000000008252611d14613001565b5190205f19810195908611611f1257611ebb9a828e611eaa96611eb498600560089b8451906020820190815260208252611d4e86836127cd565b60ff1991519020169e8f90815f516020613b025f395f51905f5255611d71612fbc565b80518355600183019063ffffffff60208201511669ffffffffffff0000000089845493015160201b169169ffffffffffffffffffff19161717905584868051611db981612797565b8381526020810187905201526004820180546001600160a01b03199081166001600160a01b039384161790915592909101805483169382169390931790925560068f0180549091169290911691909117905560078c01805461ffff1916611a0a179055611e24612b14565b506509184e72a00060208251611e39816127b2565b639502f9008152015260148c0180546001600160c01b0319166d09184e72a000000000009502f9001790558051611e6f81612797565b838152846020820152015260158a0155601689015560178801558a5194611e95866127b2565b60e4358652610104356020870152369161282d565b9342963691612886565b9301612ca6565b611ec157005b60207fc7f505b2f371ae2175ee4913f4499e1f2633a7b5936321eed1cdaeb6115181d29160ff60401b195f516020613b225f395f51905f5254165f516020613b225f395f51905f52555160018152a1005b634e487b7160e01b5f52601160045260245ffd5b60405162461bcd60e51b815260206004820152601b60248201527f76616c69646174696f6e2064656c617920697320746f6f2062696700000000006044820152606490fd5b60405162461bcd60e51b815260206004820152603360248201527f657261206475726174696f6e206d757374206265206772656174657220746861604482015272371032b632b1ba34b7b710323ab930ba34b7b760691b6064820152608490fd5b60405162461bcd60e51b815260206004820152602860248201527f656c656374696f6e206475726174696f6e206d75737420626520677265617465604482015267072207468616e20360c41b6064820152608490fd5b60405162461bcd60e51b815260206004820152602860248201527f63757272656e742074696d657374616d70206d75737420626520677265617465604482015267072207468616e20360c41b6064820152608490fd5b68ffffffffffffffffff191668010000000000000001175f516020613b225f395f51905f52558d611c98565b63f92ee8a960e01b5f5260045ffd5b9050158e611c6b565b303b159150611c63565b8d9150611c59565b34611915575f3660031901126119155760205f516020613b025f395f51905f525454604051908152f35b3461191557612106366126cf565b908115801590612233575b156121f85760185f516020613b025f395f51905f52546121338154151561290f565b0190805f528160205260ff60405f2054166003811015611af457612197577f65672eaf4ff8b823ea29ae013fef437d1fa9ed431125263a7a1f0ac49eada39692604092825f52602052825f20600160ff1982541617905582519182526020820152a1005b60405162461bcd60e51b815260206004820152603360248201527f676976656e20636f646520696420697320616c7265616479206f6e2076616c6960448201527219185d1a5bdb881bdc881d985b1a59185d1959606a1b6064820152608490fd5b60405162461bcd60e51b8152602060048201526013602482015272189b1bd88818d85b89dd08189948199bdd5b99606a1b6044820152606490fd5b505f491515612111565b34611915576060366003190112611915576004356001600160401b03811161191557368190036004820160a060031983011261191557602435906002821015611915576044356001600160401b0381116119155761229f90369060040161269f565b5f516020613b025f395f51905f52929192549365ffffffffffff600186015460201c16956122cd874261274c565b6122dc60158801548092612759565b9760848a01359860018101809111611f1257890361261d576123018961230793612784565b90612777565b9561231660168201548861274c565b42106125d85761232581612c30565b9342600586015410156125785760405196608088018881106001600160401b038211176125645760405261235936886127ee565b885260448b0135946001600160401b03861161191557858c01983660238b0112156119155760048a01359b6024909a01998d612396368f8e61282d565b60208401526064019d8e35906001600160401b038211611915570136602382011215611915576123d0903690602460048201359101612886565b9182604082015281606082015251916020835193015191604051926020840194855260408401526060830160208351919301905f5b818110612545575050506020838361242d936124569b9a9998979695520380845201826127cd565b5190209360405194602086019081526020865261244b6040876127cd565b4295519020906131ad565b156124e557602219011315611915576001600160401b038511611915578460061b36038313611915576124c66020956124d6846124ce6124dc976124bc7f41e7f919bf726af8aa2ef36bd31905a693013e30c45c6284060e613d4941997b9c8b996128da565b96909336906127ee565b94369161282d565b933691612886565b92612ca6565b604051908152a1005b60405162461bcd60e51b815260206004820152603260248201527f6e657874206572612076616c696461746f7273207369676e6174757265732076604482015271195c9a599a58d85d1a5bdb8819985a5b195960721b6064820152608490fd5b82516001600160a01b0316855260209485019490920191600101612405565b634e487b7160e01b5f52604160045260245ffd5b60405162461bcd60e51b815260206004820152603260248201527f6c6f6f6b73206c696b652076616c696461746f727320666f72206e65787420656044820152711c9848185c9948185b1c9958591e481cd95d60721b6064820152608490fd5b60405162461bcd60e51b815260206004820152601b60248201527f656c656374696f6e206973206e6f7420796574207374617274656400000000006044820152606490fd5b60405162461bcd60e51b815260206004820152602a60248201527f636f6d6d69746d656e742065726120696e646578206973206e6f74206e657874604482015269040cae4c240d2dcc8caf60b31b6064820152608490fd5b34611915575f36600319011261191557602090601b5f516020613b025f395f51905f525401548152f35b9181601f84011215611915578235916001600160401b038311611915576020808501948460051b01011161191557565b6040906003190112611915576004359060243590565b600435906001600160a01b038216820361191557565b35906001600160a01b038216820361191557565b9181601f84011215611915578235916001600160401b038311611915576020808501948460061b01011161191557565b906003821015611af45752565b91908203918211611f1257565b8115612763570490565b634e487b7160e01b5f52601260045260245ffd5b91908201809211611f1257565b81810292918115918404141715611f1257565b606081019081106001600160401b0382111761256457604052565b604081019081106001600160401b0382111761256457604052565b90601f801991011681019081106001600160401b0382111761256457604052565b919082604091031261191557604051612806816127b2565b6020808294803584520135910152565b6001600160401b0381116125645760051b60200190565b9092919261283a81612816565b9361284860405195866127cd565b602085838152019160061b83019281841161191557915b83831061286c5750505050565b602060409161287b84866127ee565b81520192019161285f565b92919061289281612816565b936128a060405195866127cd565b602085838152019160051b810192831161191557905b8282106128c257505050565b602080916128cf846126fb565b8152019101906128b6565b903590601e198136030182121561191557018035906001600160401b03821161191557602001918160051b3603831361191557565b1561291657565b60405162461bcd60e51b815260206004820152603860248201527f726f757465722067656e65736973206973207a65726f3b2063616c6c20606c6f60448201527f6f6b757047656e657369734861736828296020666972737400000000000000006064820152608490fd5b3580151581036119155790565b5f198114611f125760010190565b6020806129c9928195946040519682889351918291018585015e82019083820152030180855201836127cd565b565b156129d257565b60405162461bcd60e51b815260206004820152601e60248201527f7369676e61747572657320766572696669636174696f6e206661696c656400006044820152606490fd5b90604051612a24816127b2565b602060018294805484520154910152565b908154612a4181612816565b92612a4f60405194856127cd565b81845260208401905f5260205f205f915b838310612a6d5750505050565b60026020600192612a7d85612a17565b815201920192019190612a60565b90604051918281549182825260208201905f5260205f20925f5b818110612aba5750506129c9925003836127cd565b84546001600160a01b0316835260019485019487945060209093019201612aa5565b9190811015612aec5760051b0190565b634e487b7160e01b5f52603260045260245ffd5b8051821015612aec5760209160051b010190565b60405190612b21826127b2565b5f6020838281520152565b356001600160a01b03811681036119155790565b612b595f516020613b025f395f51905f5254429061372b565b600301905f5b838110612b6f5750505050600190565b612b7d61064e828685612adc565b6001600160a01b03165f9081526020849052604090205460ff1615612ba457600101612b5f565b505050505f90565b3565ffffffffffff811681036119155790565b6001600160a01b03168015612c1d575f516020613ae25f395f51905f5280546001600160a01b0319811683179091556001600160a01b03167f8be0079c531659141344cd1fd0a4f28419497f9722a3daafe3b4186f6b6457e05f80a3565b631e4fbdf760e01b5f525f60045260245ffd5b612c3a42826135f4565b15612c455760080190565b600e0190565b15612c5257565b60405162461bcd60e51b815260206004820152602660248201527f46524f53542061676772656761746564207075626c6963206b657920697320696044820152651b9d985b1a5960d21b6064820152608490fd5b90612ced90959395949294612cde8151602083015170014551231950b75fc4402da1732fc9bebe1982109182612fab575b5050612c4b565b80518355602001516001830155565b8351855103612f40575f5b8451811015612d6e57612d1c612d0e8287612b00565b5160208151910151906136dd565b15612d2957600101612cf8565b60405162461bcd60e51b815260206004820152601f60248201527f766572696679696e67207368617265206973206e6f74206f6e206375727665006044820152606490fd5b509193909260028301815191600160401b8311612564578154838355808410612eee575b50602001905f5260205f205f915b838310612ec457505050505f5b600483018054821015612deb575f90815260208082208301546001600160a01b0316825260038501905260409020805460ff19169055600101612dad565b5050925f5b8451811015612e34576001906001600160a01b03612e0e8288612b00565b5116828060a01b03165f526003840160205260405f208260ff1982541617905501612df0565b5092600482018151916001600160401b03831161256457600160401b8311612564578154838355808410612e9e575b50602001905f5260205f205f5b838110612e81575050505060050155565b82516001600160a01b031681830155602090920191600101612e70565b825f528360205f2091820191015b818110612eb95750612e63565b5f8155600101612eac565b6002602082612ee26001945186906020600191805184550151910155565b01920192019190612da0565b6001600160ff1b0381168103611f12576001600160ff1b0384168403611f1257825f5260205f209060011b8101908460011b015b818110612f2f5750612d92565b5f8082556001820155600201612f22565b60405162461bcd60e51b815260206004820152603860248201527f766572696679696e672073686172657320636f756e74206d757374206265206560448201527f7175616c20746f2076616c696461746f727320636f756e7400000000000000006064820152608490fd5b612fb592506136dd565b5f80612cd7565b5f60408051612fca81612797565b8281528260208201520152604051612fe181612797565b5f815263ffffffff4316602082015265ffffffffffff4216604082015290565b5f516020613ae25f395f51905f52546001600160a01b0316330361302157565b63118cdaa760e01b5f523360045260245ffd5b5f516020613b025f395f51905f5254916130508354151561290f565b815f526018830160205260ff60405f2054166003811015611af45760020361310c576130ae601a9160018060a01b036005860154169060405160208101918683526040820152604081526130a56060826127cd565b51902090613962565b9260018060a01b0384165f52601981016020528260405f2055016130d2815461298e565b90556040516001600160a01b03831681527f8008ec1d8798725ebfa0f2d128d52e8e717dcba6e0f786557eeee70614b02bf190602090a290565b60405162461bcd60e51b815260206004820152602e60248201527f636f6465206d7573742062652076616c696461746564206265666f726520707260448201526d37b3b930b69031b932b0ba34b7b760911b6064820152608490fd5b9291926001600160401b0382116125645760405191613191601f8201601f1916602001846127cd565b829481845281830111611915578281602093845f960137010152565b909493919365ffffffffffff600183015460201c166131e36131ee6131e86131d5844261274c565b601587015493848092612759565b612784565b83612777565b9182841080806135bc575b1561354a575083106135055761320f9083612777565b106134b45761321f905b8261372b565b9460405190602082019081526020825261323a6040836127cd565b613276603660405180936020820195601960f81b87523060601b60228401525180918484015e81015f838201520301601f1981018352826127cd565b519020936002811015611af457806133d25750506001810361338d5715612aec57803590601e198136030182121561191557018035906001600160401b038211611915576020018136038113611915576132d1913691613168565b916060835103613338578260206133209401516060604083015192015192600181549101549070014551231950b75fc4402da1732fc9bebe19811080613323575b61331b90612c4b565b61379e565b90565b5061331b61333183836136dd565b9050613312565b60405162461bcd60e51b815260206004820152602760248201527f46524f5354207369676e6174757265206c656e677468206d75737420626520396044820152663620627974657360c81b6064820152608490fd5b60405162461bcd60e51b815260206004820152601e60248201527f46524f5354207369676e6174757265206d7573742062652073696e676c6500006044820152606490fd5b6001146133e25750505050505f90565b6133fc9061ffff60076004889598015492015416906135d2565b925f9260035f9301925b868110156134a9578060051b820135601e19833603018112156119155782018035906001600160401b038211611915576020018136038113611915576134649161345b91613455913691613168565b856139c5565b909291926139ff565b6001600160a01b03165f9081526020859052604090205460ff1661348b575b600101613406565b936134959061298e565b938585036134835750505050505050600190565b505050505050505f90565b60405162461bcd60e51b8152602060048201526024808201527f74696d657374616d70206973206f6c646572207468616e2070726576696f75736044820152632065726160e01b6064820152608490fd5b60405162461bcd60e51b815260206004820152601e60248201527f63616e6e6f742076616c6964617465206265666f72652067656e6573697300006044820152606490fd5b939291505042821161356d5761321f92613565575b50613219565b90505f61355f565b60405162461bcd60e51b815260206004820152602160248201527f74696d657374616d702063616e6e6f7420626520696e207468652066757475726044820152606560f81b6064820152608490fd5b506135cb601787015485612777565b42106131f9565b61ffff6135e0921690612784565b61270f8101809111611f1257612710900490565b906013600d83015492015480831461369957818184109311918215911115918190613692575b1561362f578261362957505090565b14919050565b60405162461bcd60e51b815260206004820152603560248201527f636f756c64206e6f74206964656e746966792076616c696461746f727320666f6044820152740722074686520676976656e2074696d657374616d7605c1b6064820152608490fd5b508161361a565b606460405162461bcd60e51b815260206004820152602060248201527f657261732074696d657374616d70206d757374206e6f7420626520657175616c6044820152fd5b6401000003d01990600790829081818009900908906401000003d0199080091490565b60ff5f516020613b225f395f51905f525460401c161561371c57565b631afcd79f60e31b5f5260045ffd5b9061373690826135f4565b1561374157600e0190565b60080190565b905f194301438111611f1257805b613760575b505f9150565b804083810361377157506001925050565b15613785578015611f12575f190180613755565b61375a565b35906001600160801b038216820361191557565b92939194906137ad85876136dd565b156139585782156139585770014551231950b75fc4402da1732fc9bebe19831015613958576001169061010e6040519161012083018381106001600160401b038211176119155760405260883684376002600188160160888401538760898401526002840160a984015360aa830186905260ca8301527e300046524f53542d736563703235366b312d4b454343414b3235362d76316360ea8301526303430b6160e51b61010a830152812060cc820181815290600260ec84016001815360428420809318845253604270014551231950b75fc4402da1732fc9bebe19922060801c6001600160401b0360801b8260801b16179070014551231950b75fc4402da1732fc9bebe1990600160c01b9060401c090880156134a95784601b6080945f9660209870014551231950b75fc4402da1732fc9bebe19910970014551231950b75fc4402da1732fc9bebe19038552018684015280604084015270014551231950b75fc4402da1732fc9bebe19910970014551231950b75fc4402da1732fc9bebe1903606082015282805260015afa15611915575f51915f5260205260018060a01b0360405f20161490565b5050505050505f90565b6e5af43d82803e903d91602b57fd5bf390763d602d80600a3d3981f3363d3d373d3d3d363d7300000062ffffff8260881c16175f5260781b17602052603760095ff5906001600160a01b038216156139b657565b63b06ebf3d60e01b5f5260045ffd5b81519190604183036139f5576139ee9250602082015190606060408401519301515f1a90613a5f565b9192909190565b50505f9160029190565b6004811015611af45780613a11575050565b60018103613a285763f645eedf60e01b5f5260045ffd5b60028103613a43575063fce698f760e01b5f5260045260245ffd5b600314613a4d5750565b6335e2f38360e21b5f5260045260245ffd5b91907f7fffffffffffffffffffffffffffffff5d576e7357a4501ddfe92f46681b20a08411613ad6579160209360809260ff5f9560405194855216868401526040830152606082015282805260015afa1561190a575f516001600160a01b03811615613acc57905f905f90565b505f906001905f90565b5050505f916003919056fe9016d09d72d40fdae2fd8ceac6b6234c7706214fd39c1cd1e609a0528c1993005c09ca1b9b8127a4fd9f3c384aac59b661441e820e17733753ff5f2e86e1e000f0c57e16840df040f15088dc2f81fe391c3923bec73e23a9662efc9c229c6a00a2646970667358221220c3668155b2ccf78a109a0d1b5ef2abf7eec2f1d46a843bde84bc5d5fc9ddcc7764736f6c634300081c0033f0c57e16840df040f15088dc2f81fe391c3923bec73e23a9662efc9c229c6a00","linkReferences":{}},"methodIdentifiers":{"areValidators(address[])":"8f381dbe","codeState(bytes32)":"c13911e8","codesStates(bytes32[])":"82bdeaad","commitBlocks((bytes32,uint48,bytes32,bytes32,(address,bytes32,address,uint128,(bytes32,address,uint128)[],(bytes32,address,bytes,uint128,(bytes32,bytes4))[])[])[],uint8,bytes[])":"b6a49680","commitCodes((bytes32,bool)[],uint8,bytes[])":"44d5ec1f","commitValidators(((uint256,uint256),(uint256,uint256)[],address[],uint256),uint8,bytes[])":"0d9078b1","computeSettings()":"84d22a4f","createProgram(bytes32,bytes32)":"527de0f9","createProgramWithDecoder(address,bytes32,bytes32)":"e7006a74","genesisBlockHash()":"28e24b3d","genesisTimestamp()":"cacf66ab","initialize(address,address,address,address,uint256,uint256,uint256,(uint256,uint256),(uint256,uint256)[],address[])":"389e7579","isValidator(address)":"facd743b","latestCommittedBlockHash()":"c9f16a11","lookupGenesisHash()":"8b1edf1e","mirrorImpl()":"e6fabc09","mirrorProxyImpl()":"65ecfea2","owner()":"8da5cb5b","programCodeId(address)":"9067088e","programsCodeIds(address[])":"baaf0201","programsCount()":"96a2ddfa","reinitialize()":"6c2eb350","renounceOwnership()":"715018a6","requestCodeValidation(bytes32,bytes32)":"1c149d8a","setMirror(address)":"3d43b418","signingThresholdPercentage()":"efd81abc","transferOwnership(address)":"f2fde38b","validatedCodesCount()":"007a32e7","validators()":"ca1e7819","validatorsCount()":"ed612f8c","validatorsThreshold()":"edc87225","validatorsVerifyingShares()":"7b4dda97","wrappedVara()":"88f50cf0"},"storageLayout":{"storage":[],"types":{}},"id":128}