{"abi":[{"type":"constructor","inputs":[],"stateMutability":"nonpayable"},{"type":"function","name":"areValidators","inputs":[{"name":"_validators","type":"address[]","internalType":"address[]"}],"outputs":[{"name":"","type":"bool","internalType":"bool"}],"stateMutability":"view"},{"type":"function","name":"codeState","inputs":[{"name":"_codeId","type":"bytes32","internalType":"bytes32"}],"outputs":[{"name":"","type":"uint8","internalType":"enum Gear.CodeState"}],"stateMutability":"view"},{"type":"function","name":"codesStates","inputs":[{"name":"_codesIds","type":"bytes32[]","internalType":"bytes32[]"}],"outputs":[{"name":"","type":"uint8[]","internalType":"enum Gear.CodeState[]"}],"stateMutability":"view"},{"type":"function","name":"commitBatch","inputs":[{"name":"_batchCommitment","type":"tuple","internalType":"struct Gear.BatchCommitment","components":[{"name":"codeCommitments","type":"tuple[]","internalType":"struct Gear.CodeCommitment[]","components":[{"name":"id","type":"bytes32","internalType":"bytes32"},{"name":"timestamp","type":"uint48","internalType":"uint48"},{"name":"valid","type":"bool","internalType":"bool"}]},{"name":"blockCommitments","type":"tuple[]","internalType":"struct Gear.BlockCommitment[]","components":[{"name":"hash","type":"bytes32","internalType":"bytes32"},{"name":"timestamp","type":"uint48","internalType":"uint48"},{"name":"previousCommittedBlock","type":"bytes32","internalType":"bytes32"},{"name":"predecessorBlock","type":"bytes32","internalType":"bytes32"},{"name":"transitions","type":"tuple[]","internalType":"struct Gear.StateTransition[]","components":[{"name":"actorId","type":"address","internalType":"address"},{"name":"newStateHash","type":"bytes32","internalType":"bytes32"},{"name":"inheritor","type":"address","internalType":"address"},{"name":"valueToReceive","type":"uint128","internalType":"uint128"},{"name":"valueClaims","type":"tuple[]","internalType":"struct Gear.ValueClaim[]","components":[{"name":"messageId","type":"bytes32","internalType":"bytes32"},{"name":"destination","type":"address","internalType":"address"},{"name":"value","type":"uint128","internalType":"uint128"}]},{"name":"messages","type":"tuple[]","internalType":"struct Gear.Message[]","components":[{"name":"id","type":"bytes32","internalType":"bytes32"},{"name":"destination","type":"address","internalType":"address"},{"name":"payload","type":"bytes","internalType":"bytes"},{"name":"value","type":"uint128","internalType":"uint128"},{"name":"replyDetails","type":"tuple","internalType":"struct Gear.ReplyDetails","components":[{"name":"to","type":"bytes32","internalType":"bytes32"},{"name":"code","type":"bytes4","internalType":"bytes4"}]}]}]}]}]},{"name":"_signatureType","type":"uint8","internalType":"enum Gear.SignatureType"},{"name":"_signatures","type":"bytes[]","internalType":"bytes[]"}],"outputs":[],"stateMutability":"nonpayable"},{"type":"function","name":"commitValidators","inputs":[{"name":"_validatorsCommitment","type":"tuple","internalType":"struct Gear.ValidatorsCommitment","components":[{"name":"aggregatedPublicKey","type":"tuple","internalType":"struct Gear.AggregatedPublicKey","components":[{"name":"x","type":"uint256","internalType":"uint256"},{"name":"y","type":"uint256","internalType":"uint256"}]},{"name":"verifiableSecretSharingCommitment","type":"bytes","internalType":"bytes"},{"name":"validators","type":"address[]","internalType":"address[]"},{"name":"eraIndex","type":"uint256","internalType":"uint256"}]},{"name":"_signatureType","type":"uint8","internalType":"enum Gear.SignatureType"},{"name":"_signatures","type":"bytes[]","internalType":"bytes[]"}],"outputs":[],"stateMutability":"nonpayable"},{"type":"function","name":"computeSettings","inputs":[],"outputs":[{"name":"","type":"tuple","internalType":"struct Gear.ComputationSettings","components":[{"name":"threshold","type":"uint64","internalType":"uint64"},{"name":"wvaraPerSecond","type":"uint128","internalType":"uint128"}]}],"stateMutability":"view"},{"type":"function","name":"createProgram","inputs":[{"name":"_codeId","type":"bytes32","internalType":"bytes32"},{"name":"_salt","type":"bytes32","internalType":"bytes32"},{"name":"_overrideInitializer","type":"address","internalType":"address"}],"outputs":[{"name":"","type":"address","internalType":"address"}],"stateMutability":"nonpayable"},{"type":"function","name":"createProgramWithAbiInterface","inputs":[{"name":"_codeId","type":"bytes32","internalType":"bytes32"},{"name":"_salt","type":"bytes32","internalType":"bytes32"},{"name":"_overrideInitializer","type":"address","internalType":"address"},{"name":"_abiInterface","type":"address","internalType":"address"}],"outputs":[{"name":"","type":"address","internalType":"address"}],"stateMutability":"nonpayable"},{"type":"function","name":"genesisBlockHash","inputs":[],"outputs":[{"name":"","type":"bytes32","internalType":"bytes32"}],"stateMutability":"view"},{"type":"function","name":"genesisTimestamp","inputs":[],"outputs":[{"name":"","type":"uint48","internalType":"uint48"}],"stateMutability":"view"},{"type":"function","name":"initialize","inputs":[{"name":"_owner","type":"address","internalType":"address"},{"name":"_mirror","type":"address","internalType":"address"},{"name":"_wrappedVara","type":"address","internalType":"address"},{"name":"_eraDuration","type":"uint256","internalType":"uint256"},{"name":"_electionDuration","type":"uint256","internalType":"uint256"},{"name":"_validationDelay","type":"uint256","internalType":"uint256"},{"name":"_aggregatedPublicKey","type":"tuple","internalType":"struct Gear.AggregatedPublicKey","components":[{"name":"x","type":"uint256","internalType":"uint256"},{"name":"y","type":"uint256","internalType":"uint256"}]},{"name":"_verifiableSecretSharingCommitment","type":"bytes","internalType":"bytes"},{"name":"_validators","type":"address[]","internalType":"address[]"}],"outputs":[],"stateMutability":"nonpayable"},{"type":"function","name":"isValidator","inputs":[{"name":"_validator","type":"address","internalType":"address"}],"outputs":[{"name":"","type":"bool","internalType":"bool"}],"stateMutability":"view"},{"type":"function","name":"latestCommittedBlockHash","inputs":[],"outputs":[{"name":"","type":"bytes32","internalType":"bytes32"}],"stateMutability":"view"},{"type":"function","name":"lookupGenesisHash","inputs":[],"outputs":[],"stateMutability":"nonpayable"},{"type":"function","name":"mirrorImpl","inputs":[],"outputs":[{"name":"","type":"address","internalType":"address"}],"stateMutability":"view"},{"type":"function","name":"owner","inputs":[],"outputs":[{"name":"","type":"address","internalType":"address"}],"stateMutability":"view"},{"type":"function","name":"programCodeId","inputs":[{"name":"_programId","type":"address","internalType":"address"}],"outputs":[{"name":"","type":"bytes32","internalType":"bytes32"}],"stateMutability":"view"},{"type":"function","name":"programsCodeIds","inputs":[{"name":"_programsIds","type":"address[]","internalType":"address[]"}],"outputs":[{"name":"","type":"bytes32[]","internalType":"bytes32[]"}],"stateMutability":"view"},{"type":"function","name":"programsCount","inputs":[],"outputs":[{"name":"","type":"uint256","internalType":"uint256"}],"stateMutability":"view"},{"type":"function","name":"reinitialize","inputs":[],"outputs":[],"stateMutability":"nonpayable"},{"type":"function","name":"renounceOwnership","inputs":[],"outputs":[],"stateMutability":"nonpayable"},{"type":"function","name":"requestCodeValidation","inputs":[{"name":"_codeId","type":"bytes32","internalType":"bytes32"}],"outputs":[],"stateMutability":"nonpayable"},{"type":"function","name":"setMirror","inputs":[{"name":"newMirror","type":"address","internalType":"address"}],"outputs":[],"stateMutability":"nonpayable"},{"type":"function","name":"signingThresholdPercentage","inputs":[],"outputs":[{"name":"","type":"uint16","internalType":"uint16"}],"stateMutability":"view"},{"type":"function","name":"transferOwnership","inputs":[{"name":"newOwner","type":"address","internalType":"address"}],"outputs":[],"stateMutability":"nonpayable"},{"type":"function","name":"validatedCodesCount","inputs":[],"outputs":[{"name":"","type":"uint256","internalType":"uint256"}],"stateMutability":"view"},{"type":"function","name":"validators","inputs":[],"outputs":[{"name":"","type":"address[]","internalType":"address[]"}],"stateMutability":"view"},{"type":"function","name":"validatorsAggregatedPublicKey","inputs":[],"outputs":[{"name":"","type":"tuple","internalType":"struct Gear.AggregatedPublicKey","components":[{"name":"x","type":"uint256","internalType":"uint256"},{"name":"y","type":"uint256","internalType":"uint256"}]}],"stateMutability":"view"},{"type":"function","name":"validatorsCount","inputs":[],"outputs":[{"name":"","type":"uint256","internalType":"uint256"}],"stateMutability":"view"},{"type":"function","name":"validatorsThreshold","inputs":[],"outputs":[{"name":"","type":"uint256","internalType":"uint256"}],"stateMutability":"view"},{"type":"function","name":"validatorsVerifiableSecretSharingCommitment","inputs":[],"outputs":[{"name":"","type":"bytes","internalType":"bytes"}],"stateMutability":"view"},{"type":"function","name":"wrappedVara","inputs":[],"outputs":[{"name":"","type":"address","internalType":"address"}],"stateMutability":"view"},{"type":"event","name":"BlockCommitted","inputs":[{"name":"hash","type":"bytes32","indexed":false,"internalType":"bytes32"}],"anonymous":false},{"type":"event","name":"CodeGotValidated","inputs":[{"name":"codeId","type":"bytes32","indexed":false,"internalType":"bytes32"},{"name":"valid","type":"bool","indexed":true,"internalType":"bool"}],"anonymous":false},{"type":"event","name":"CodeValidationRequested","inputs":[{"name":"codeId","type":"bytes32","indexed":false,"internalType":"bytes32"}],"anonymous":false},{"type":"event","name":"ComputationSettingsChanged","inputs":[{"name":"threshold","type":"uint64","indexed":false,"internalType":"uint64"},{"name":"wvaraPerSecond","type":"uint128","indexed":false,"internalType":"uint128"}],"anonymous":false},{"type":"event","name":"Initialized","inputs":[{"name":"version","type":"uint64","indexed":false,"internalType":"uint64"}],"anonymous":false},{"type":"event","name":"NextEraValidatorsCommitted","inputs":[{"name":"startTimestamp","type":"uint256","indexed":false,"internalType":"uint256"}],"anonymous":false},{"type":"event","name":"OwnershipTransferred","inputs":[{"name":"previousOwner","type":"address","indexed":true,"internalType":"address"},{"name":"newOwner","type":"address","indexed":true,"internalType":"address"}],"anonymous":false},{"type":"event","name":"ProgramCreated","inputs":[{"name":"actorId","type":"address","indexed":false,"internalType":"address"},{"name":"codeId","type":"bytes32","indexed":true,"internalType":"bytes32"}],"anonymous":false},{"type":"event","name":"StorageSlotChanged","inputs":[],"anonymous":false},{"type":"error","name":"ECDSAInvalidSignature","inputs":[]},{"type":"error","name":"ECDSAInvalidSignatureLength","inputs":[{"name":"length","type":"uint256","internalType":"uint256"}]},{"type":"error","name":"ECDSAInvalidSignatureS","inputs":[{"name":"s","type":"bytes32","internalType":"bytes32"}]},{"type":"error","name":"InvalidInitialization","inputs":[]},{"type":"error","name":"NotInitializing","inputs":[]},{"type":"error","name":"OwnableInvalidOwner","inputs":[{"name":"owner","type":"address","internalType":"address"}]},{"type":"error","name":"OwnableUnauthorizedAccount","inputs":[{"name":"account","type":"address","internalType":"address"}]},{"type":"error","name":"ReentrancyGuardReentrantCall","inputs":[]}],"bytecode":{"object":"0x6080806040523460aa575f516020613fef5f395f51905f525460ff8160401c16609b576002600160401b03196001600160401b038216016049575b604051613f4090816100af8239f35b6001600160401b0319166001600160401b039081175f516020613fef5f395f51905f525581527fc7f505b2f371ae2175ee4913f4499e1f2633a7b5936321eed1cdaeb6115181d290602090a15f80603a565b63f92ee8a960e01b5f5260045ffd5b5f80fdfe6101a0806040526004361015610013575f80fd5b5f610180525f3560e01c9081627a32e714612db9575080630c18d277146128ab578063120e3f1e1461272057806328e24b3d146126f05780633683c4d21461247c5780633bd109fa1461242b5780633d43b418146123d45780636c2eb350146120e2578063715018a61461207057806382bdeaad14611f5f57806384d22a4f14611ef457806388f50cf014611eb95780638b1edf1e14611de85780638da5cb5b14611db15780638f381dbe14611d6c5780639067088e14611d2457806396a2ddfa14611cf4578063a5d53a4414611c80578063aa54494a14611861578063baaf020114611760578063c13911e814611716578063c9f16a11146116e6578063ca1e78191461165f578063cacf66ab14611625578063d31d6821146110b9578063dc360d9214610304578063e6fabc09146102c9578063ed612f8c1461028f578063edc8722514610243578063efd81abc1461020f578063f2fde38b146101df5763facd743b14610181575f80fd5b346101d85760203660031901126101d85761019a612df9565b60036101b55f516020613f005f395f51905f52544290613a40565b019060018060a01b03165f52602052602060ff60405f2054166040519015158152f35b6101805180fd5b346101d85760203660031901126101d8576102086101fb612df9565b6102036132c3565b613252565b6101805180f35b346101d857610180513660031901126101d857602061ffff60075f516020613f005f395f51905f5254015416604051908152f35b346101d857610180513660031901126101d85760206102875f516020613f005f395f51905f525461ffff6007600461027b4285613a40565b01549201541690613a1e565b604051908152f35b346101d857610180513660031901126101d857602060046102bf5f516020613f005f395f51905f52544290613a40565b0154604051908152f35b346101d857610180513660031901126101d8575f516020613f005f395f51905f5254600501546040516001600160a01b039091168152602090f35b346101d85760603660031901126101d8576004356001600160401b0381116101d857604060031982360301126101d857600260243510156101d8576044356001600160401b0381116101d85761035e903690600401612e23565b917f9b779b17422d0df92223018b32b4d1fa46e071723d6817e2486d003becc55f005c6110a45760017f9b779b17422d0df92223018b32b4d1fa46e071723d6817e2486d003becc55f005d5f516020613f005f395f51905f5254610140526103ce60016101405101541515612f7b565b6103db600482018061318d565b9050158061108b575b611046576101805160c081905261014051601801939290919060605b61040d600484018061318d565b905084101561065057610423600484018061318d565b851015610636576060850201938435948561018051528760205260ff604061018051205416600381101561061c576001036105b9576040810192610466846131f7565b1561059b57610180805188905260208a90525160409020805460ff1916600217905561014051601b01805461049a90613204565b90555b6104a6846131f7565b15157f460119a8f69a33ed127de517d5ea464e958ce23ef19e4420a8b92bf780bbc2c960206040518a8152a26060823603126101d8576020604051926104eb84612e8f565b888452019687359465ffffffffffff861686036101d85785602085015235948515158087036101d857600196604061055e960152604051916020830193845265ffffffffffff60d01b9060d01b16604083015260f81b604682015260278152610555604782612eaa565b51902090613212565b9460c05165ffffffffffff6105728361323f565b1611610581575b500192610400565b61059165ffffffffffff9161323f565b1660c05287610579565b866101805152886020526040610180512060ff19815416905561049d565b60405162461bcd60e51b815260206004820152603560248201527f636f6465206d7573742062652072657175657374656420666f722076616c6964604482015274185d1a5bdb881d1bc818994818dbdb5b5a5d1d1959605a1b6064820152608490fd5b634e487b7160e01b61018051526021600452602461018051fd5b634e487b7160e01b61018051526032600452602461018051fd5b61018051606060a05261012052849290915b61067260248301836004016131c2565b9050610120511015610f835761068e60248301836004016131c2565b9061010052610120511015610636576101205160051b61010051013560e052609e196101005136030160e05112156101d8576003610140510154604060e0516101005101013503610f3057610140515415610ec4575b60206106f88160e05161010051010161323f565b65ffffffffffff6040519161070c83612e60565b60e051610100510135835216918291015260e051610100510135600361014051015565ffffffffffff19600461014051015416176004610140510155610763608060e05161010051010160e05161010051016131c2565b61016091909152610180516080529360605b856080511015610da657610180515060be196101605136030160805160051b61016051013512156101d8576107b960805160051b61016051013561016051016130ae565b6001600160a01b03165f90815261014051601901602052604090205415610d49576001600160801b036107fe606060805160051b610160510135610160510101613bad565b16610c7f575b60018060a01b0361082460805160051b61016051013561016051016130ae565b1690604051916309ed323560e41b83526020600484015260e4830160018060a01b0361085f60805160051b6101605101356101605101612e0f565b166024850152608080516101608051600592831b81013501602001356044880152915191516001600160a01b039261089e921b81013501604001612e0f565b1660648501526001600160801b036108c8606060805160051b610160510135610160510101613bc1565b166084850152608080516101605160059190911b8101350190810135903603601e19018112156101d85760805160051b61016051013561016051010160208101916001600160401b038235116101d8576060823502360383136101d85760c060a48701528135905261018051610104860192915b80358210610c355750506080516101605160059190911b8101350160a08101359291503603601e19018212156101d8576001600160401b0360805160051b6101605101356101605101830135116101d85760805161016051600591821b810135018301803590911b90368290036020909101136101d8579185926023198484030160c485015260805160051b6101605101356101605101820135835260208084019184010192602060805160051b61016051013561016051018401019261018051915b60805160051b61016051013561016051018201358310610a99575050505050918180602094039161018051905af1908115610a8b576101805191610a56575b610a489250613212565b608080516001019052610775565b90506020823d8211610a83575b81610a7060209383612eaa565b810103126101d857610a48915190610a3e565b3d9150610a63565b6040513d61018051823e3d90fd5b919395509193601f1982820301855285359060de1960805160051b610160510135610160510185013603018212156101d857608080516101608051600592831b8101350187018501602001358452915191516001600160a01b0392610b09921b8101350186018401604001612e0f565b16602082015260805161016051606060059290921b810135018501830190810135903603603e19018112156101d85760209060805160051b6101605101356101605101860184010101916001600160401b038335116101d8578235360360208401136101d85760c09081604084015283358284015283356020850160e08501376101805160e08535850101526001600160801b03610bbc6080805160051b61016051013561016051018901840101613bc1565b16606084015260a060805160051b6101605101356101605101870182010135608084015260805160051b610160510135610160510186010101359163ffffffff60e01b83168093036101d85760a082019290925289969135601f01601f19160160e00194602091820194910192600191909101916109ff565b90919260608060019286358152838060a01b03610c5460208901612e0f565b1660208201526001600160801b03610c6e60408901613bc1565b16604082015201940192019061093c565b6001600160801b03602060018060a01b036006610140510154166044610cb460805160051b61016051013561016051016130ae565b610cd0606060805160051b610160510135610160510101613bad565b60405163a9059cbb60e01b81526001600160a01b0390921660048301529490941660248501526101805184928391905af18015610a8b57610d12575b50610804565b6020813d8211610d41575b81610d2a60209383612eaa565b810103126101d85751801515036101d85786610d0c565b3d9150610d1d565b60405162461bcd60e51b815260206004820152602f60248201527f636f756c646e277420706572666f726d207472616e736974696f6e20666f722060448201526e756e6b6e6f776e2070726f6772616d60881b6064820152608490fd5b610e6691939550939193602081519101207fd756eca21e02cb0dbde1e44a4d9c6921b5c8aa4668cfa0752784b3dc855bce1e602060405160e0516101005101358152a1610dfc602060e05161010051010161323f565b9060405190602082019260e051610100510135845265ffffffffffff60d01b9060d01b166040830152604060e051610100510101356046830152606060e051610100510101356066830152608682015260868152610e5b60a682612eaa565b51902060a051613212565b60a05260c05165ffffffffffff610e86602060e05161010051010161323f565b1611610ea1575b600161012051016101205291929092610662565b65ffffffffffff610ebb602060e05161010051010161323f565b1660c052610e8d565b610ed8606060e05161010051010135613b70565b6106e45760405162461bcd60e51b815260206004820152602660248201527f616c6c6f776564207072656465636573736f7220626c6f636b207761736e277460448201526508199bdd5b9960d21b6064820152608490fd5b60405162461bcd60e51b815260206004820152602560248201527f696e76616c69642070726576696f757320636f6d6d697474656420626c6f636b604482015264040d0c2e6d60db1b6064820152608490fd5b610fcf908484602081519101209160a05151602060a05101206040519060208201948552604082015260408152610fbb606082612eaa565b60c051936024359151902061014051613619565b1561100157610180517f9b779b17422d0df92223018b32b4d1fa46e071723d6817e2486d003becc55f005d6101805180f35b60405162461bcd60e51b815260206004820152601e60248201527f7369676e61747572657320766572696669636174696f6e206661696c656400006044820152606490fd5b60405162461bcd60e51b815260206004820152601860248201527f6e6f20636f6d6d69746d656e747320746f20636f6d6d697400000000000000006044820152606490fd5b5061109c60248201826004016131c2565b9050156103e4565b633ee5aeb560e01b6101805152600461018051fd5b346101d8576101403660031901126101d8576110d3612df9565b6024356001600160a01b03811691908290036101d8576110f1612de3565b606435926084359160a4359160403660c31901126101d85761010435956001600160401b0387116101d857366023880112156101d8578660040135906001600160401b0382116101d857366024838a0101116101d857610124356001600160401b0381116101d857611167903690600401612e23565b9590935f516020613f205f395f51905f5254986001600160401b0360ff8b60401c16159a168015908161161d575b6001149081611613575b15908161160a575b506115f5576111f1908a60016001600160401b03195f516020613f205f395f51905f525416175f516020613f205f395f51905f52556115c5575b6111e9613b45565b610203613b45565b6111f9613b45565b421561156f57871561151957878311156114b857600a611219898561312e565b04821015611473576040998a516112308c82612eaa565b6017815260208101907f726f757465722e73746f726167652e526f75746572563100000000000000000082526112646132c3565b5190205f19810193908411611459576113f999600895828e60206113e89760056113f29a84519084820190815284825261129e8683612eaa565b60ff1991519020169e8f90815f516020613f005f395f51905f52556112c16132f6565b80516001840155600283019063ffffffff878201511669ffffffffffff00000000898454930151891b169169ffffffffffffffffffff19161717905585519061130982612e60565b8482526001600160a01b0390811695909101859052910180546001600160a01b03199081169290931691909117905560068e018054909116909117905560078c01805461ffff1916611a0a17905561135f612fed565b506509184e72a0006020825161137481612e60565b639502f9008152015260148c0180546001600160c01b0319166d09184e72a000000000009502f90017905580516113aa81612e8f565b83815260208101859052015260158a0155601689015560178801558a51946113d186612e60565b60c435865260e43560208701526024369201612ecb565b9342963691612f27565b930161336a565b611404576101805180f35b60207fc7f505b2f371ae2175ee4913f4499e1f2633a7b5936321eed1cdaeb6115181d29160ff60401b195f516020613f205f395f51905f5254165f516020613f205f395f51905f52555160018152a180610208565b634e487b7160e01b61018051526011600452602461018051fd5b60405162461bcd60e51b815260206004820152601b60248201527f76616c69646174696f6e2064656c617920697320746f6f2062696700000000006044820152606490fd5b60405162461bcd60e51b815260206004820152603360248201527f657261206475726174696f6e206d757374206265206772656174657220746861604482015272371032b632b1ba34b7b710323ab930ba34b7b760691b6064820152608490fd5b60405162461bcd60e51b815260206004820152602860248201527f656c656374696f6e206475726174696f6e206d75737420626520677265617465604482015267072207468616e20360c41b6064820152608490fd5b60405162461bcd60e51b815260206004820152602860248201527f63757272656e742074696d657374616d70206d75737420626520677265617465604482015267072207468616e20360c41b6064820152608490fd5b600160401b60ff60401b195f516020613f205f395f51905f525416175f516020613f205f395f51905f52556111e1565b63f92ee8a960e01b6101805152600461018051fd5b9050158c6111a7565b303b15915061119f565b8b9150611195565b346101d857610180513660031901126101d857602065ffffffffffff60025f516020613f005f395f51905f52540154821c16604051908152f35b346101d857610180513660031901126101d85761169660046116905f516020613f005f395f51905f52544290613a40565b01613023565b604051809160208201602083528151809152602060408401920190610180515b8181106116c4575050500390f35b82516001600160a01b03168452859450602093840193909201916001016116b6565b346101d857610180513660031901126101d857602060035f516020613f005f395f51905f52540154604051908152f35b346101d85760203660031901126101d85760185f516020613f005f395f51905f5254016004356101805152602052602060ff60406101805120541661175e6040518092612e53565bf35b346101d85760203660031901126101d8576004356001600160401b0381116101d857611790903690600401612e23565b5f516020613f005f395f51905f5254916117a982612f10565b926117b76040519485612eaa565b8284526117c383612f10565b602085019390601f19013685376019610180519201915b81811061182857848660405191829160208301906020845251809152604083019190610180515b81811061180f575050500390f35b8251845285945060209384019390920191600101611801565b8061183e6118396001938588613076565b6130ae565b828060a01b03165f528360205260405f205461185a828961309a565b52016117da565b346101d85760603660031901126101d8576004356001600160401b0381116101d8576003198136030160a081126101d8576040519060808201908282106001600160401b03831117611c66576040918252126101d8576040516118c381612e60565b8260040135815260248301356020820152815260448201356001600160401b0381116101d8578201366023820112156101d85761190a903690602460048201359101612ecb565b6020820190815260648301356001600160401b0381116101d8578301366023820112156101d857611945903690602460048201359101612f27565b90604083019182526084606084019401358452600260243510156101d8576044356001600160401b0381116101d857611982903690600401612e23565b9190935f516020613f005f395f51905f52546119a360018201541515612f7b565b65ffffffffffff600282015460201c166119bd814261312e565b906119cd6015840154809361314f565b8951600182018092116114595703611c0e576119ee6119f4928a519061317a565b9061316d565b93611a0360168301548661312e565b4210611bc957611a12826135fe565b964260058901541015611b695783516020815191015188519a51604051916020830193845260408301526060820160208d51919d0190610180515b818110611b4a575050506020828d611a7493611aa19a9b9c9d9e9f52038084520182612eaa565b51902092604051906020820194855260208252611a92604083612eaa565b42946024359251902090613619565b15611aea577f41e7f919bf726af8aa2ef36bd31905a693013e30c45c6284060e613d4941997b94602094611adc93859351905191519261336a565b604051908152a16101805180f35b60405162461bcd60e51b815260206004820152603260248201527f6e657874206572612076616c696461746f7273207369676e6174757265732076604482015271195c9a599a58d85d1a5bdb8819985a5b195960721b6064820152608490fd5b82516001600160a01b03168f5260209e8f019e90920191600101611a4d565b60405162461bcd60e51b815260206004820152603260248201527f6c6f6f6b73206c696b652076616c696461746f727320666f72206e65787420656044820152711c9848185c9948185b1c9958591e481cd95d60721b6064820152608490fd5b60405162461bcd60e51b815260206004820152601b60248201527f656c656374696f6e206973206e6f7420796574207374617274656400000000006044820152606490fd5b60405162461bcd60e51b815260206004820152602a60248201527f636f6d6d69746d656e742065726120696e646578206973206e6f74206e657874604482015269040cae4c240d2dcc8caf60b31b6064820152608490fd5b634e487b7160e01b61018051526041600452602461018051fd5b346101d857610180513660031901126101d85760206040611cc55f516020613f005f395f51905f52546002611cbd60018060a01b03924290613a40565b01541661333b565b815192839181835280519182918282860152018484015e61018051828201840152601f01601f19168101030190f35b346101d857610180513660031901126101d8576020601a5f516020613f005f395f51905f52540154604051908152f35b346101d85760203660031901126101d857611d3d612df9565b60195f516020613f005f395f51905f5254019060018060a01b03165f52602052602060405f2054604051908152f35b346101d85760203660031901126101d8576004356001600160401b0381116101d857611da7611da16020923690600401612e23565b906130c2565b6040519015158152f35b346101d857610180513660031901126101d8575f516020613ee05f395f51905f52546040516001600160a01b039091168152602090f35b346101d857610180513660031901126101d8575f516020613f005f395f51905f525460018101908154611e74576002015463ffffffff1640908115611e2f57556101805180f35b60405162461bcd60e51b815260206004820152601d60248201527f756e61626c6520746f206c6f6f6b75702067656e6573697320686173680000006044820152606490fd5b60405162461bcd60e51b815260206004820152601860248201527f67656e65736973206861736820616c72656164792073657400000000000000006044820152606490fd5b346101d857610180513660031901126101d8575f516020613f005f395f51905f5254600601546040516001600160a01b039091168152602090f35b346101d857610180513660031901126101d857611f0f612fed565b50604060145f516020613f005f395f51905f5254016001600160801b03825191611f3883612e60565b548160206001600160401b038316948581520191851c168152835192835251166020820152f35b346101d85760203660031901126101d8576004356001600160401b0381116101d857611f8f903690600401612e23565b5f516020613f005f395f51905f525491611fa882612f10565b92611fb66040519485612eaa565b828452611fc283612f10565b602085019390601f19013685376018610180519201915b81811061203157848660405191829160208301906020845251809152604083019190610180515b81811061200e575050500390f35b91935091602080826120236001948851612e53565b019401910191849392612000565b61203c818386613076565b3561018051528260205260ff6040610180512054169061205c818861309a565b91600381101561061c576001925201611fd9565b346101d857610180513660031901126101d85761208b6132c3565b5f516020613ee05f395f51905f5280546001600160a01b0319811690915561018051906001600160a01b03167f8be0079c531659141344cd1fd0a4f28419497f9722a3daafe3b4186f6b6457e08280a36101805180f35b346101d857610180513660031901126101d8576120fd6132c3565b5f516020613f205f395f51905f525460ff8160401c169081156123bf575b506115f5575f516020613f205f395f51905f52805468ffffffffffffffffff1916680100000000000000021790555f516020613f005f395f51905f5254604080516121668282612eaa565b6017815260208101907f726f757465722e73746f726167652e526f757465725632000000000000000000825261219a6132c3565b5190205f19810191908211611459577fc7f505b2f371ae2175ee4913f4499e1f2633a7b5936321eed1cdaeb6115181d2926020928251908482019081528482526121e48483612eaa565b60ff19915190201690815f516020613f005f395f51905f52556122056132f6565b80516001840155600283019063ffffffff868201511669ffffffffffff00000000868454930151881b169169ffffffffffffffffffff191617179055600581016005830190808203612387575b505061ffff600782015416600783019061ffff198254161790556122bb6122794283613a40565b6122906001600160a01b036002611cbd4287613a40565b6122a6600461229f4287613a40565b0192613005565b906122b14293613023565b916008870161336a565b601481016014830190808203612335575b5050601581016015830191818303612315575b5050505060ff60401b195f516020613f205f395f51905f5254165f516020613f205f395f51905f52555160028152a16101805180f35b6017928392549055601681015460168501550154910155838080806122df565b806001600160401b03806001600160801b03935416166001600160401b031984541617835554851c16600160401b600160c01b03825491861b1690600160401b600160c01b03191617905585806122cc565b5481546001600160a01b03199081166001600160a01b0392831617909255600683810154908501805490931691161790558580612252565b600291506001600160401b031610158161211b565b346101d85760203660031901126101d8576123ed612df9565b6123f56132c3565b5f516020613f005f395f51905f525460050180546001600160a01b0319166001600160a01b039092169190911790556101805180f35b346101d857610180513660031901126101d857612446612fed565b50604061246a6124655f516020613f005f395f51905f52544290613a40565b613005565b60208251918051835201516020820152f35b346101d85760603660031901126101d857600435612498612de3565b5f516020613f005f395f51905f525460018101546124b7901515612f7b565b8261018051526018810160205260ff604061018051205416600381101561061c57600203612694576040516020810190848252602435604082015260408152612501606082612eaa565b51902060405160608101906001600160401b038211818310176101d857605a916040527f3d605080600a3d3981f3608060405263e6fabc0960e01b5f5260205f6004817381523060601b6b5afa15604c575f80805136821760208201527f80378136915af43d5f803e156048573d5ff35b3d5ffd5b5f80fd000000000000604082015261018051f59081156101d8576001600160a01b0382165f9081526019820160205260409020849055601a0180546125ba90613204565b90556040516001600160a01b03821680825293907f8008ec1d8798725ebfa0f2d128d52e8e717dcba6e0f786557eeee70614b02bf190602090a2506001600160a01b03811661268f5750335b5f516020613f005f395f51905f5254600501546001600160a01b0316823b156101d857604051631c9776b560e31b81526001600160a01b039092166004830152602482015260016044820152610180518160648183865af18015610a8b57612674575b602082604051908152f35b6101805161268191612eaa565b610180516101d85781612669565b612606565b60405162461bcd60e51b815260206004820152602e60248201527f636f6465206d7573742062652076616c696461746564206265666f726520707260448201526d37b3b930b69031b932b0ba34b7b760911b6064820152608490fd5b346101d857610180513660031901126101d857602060015f516020613f005f395f51905f52540154604051908152f35b346101d85760203660031901126101d85760043561018051491561282f5760185f516020613f005f395f51905f525461275e60018201541515612f7b565b018161018051528060205260ff604061018051205416600381101561061c576127ce576101808051839052602091825251604090819020805460ff19166001179055519182527f5c261a095dd5720475295dc06379921c003c22164ee6cae5cf83e76ce0a1b98591a16101805180f35b60405162461bcd60e51b815260206004820152603360248201527f676976656e20636f646520696420697320616c7265616479206f6e2076616c6960448201527219185d1a5bdb881bdc881d985b1a59185d1959606a1b6064820152608490fd5b60405162461bcd60e51b815260206004820152604860248201527f626c6f622063616e277420626520666f756e642c20726f75746572206578706560448201527f63746564204549502d34383434207472616e73616374696f6e2077697468205760648201526720a9a690313637b160c11b608482015260a490fd5b34612d9b576080366003190112612d9b576004356128c7612de3565b6064356001600160a01b038116929190839003612d9b575f516020613f005f395f51905f52546128fc60018201541515612f7b565b825f526018810160205260ff60405f2054166003811015612da557600203612694576040516020810190848252602435604082015260408152612940606082612eaa565b5190206040516102c08101908082106001600160401b03831117612d9b576102b4916040527f6080806040526102a290816100128239f3fe608060405260043610610258575f81527f3560e01c806329336f391461009b57806336a52a1814610096578063701da98e60208201527f14610091578063704ed5421461008c57806391d5a64c146100875780639ce11060408201527fd714610082578063affed0e01461007d578063d5624222146100785763e43f3460608201527f330361025857610243565b610208565b6101eb565b6101c3565b6101ad565b6160808201527f0194565b610177565b610150565b346100dc5760603660031901126100dc576060a08201527f243567ffffffffffffffff81116100dc576100cc9036906004016100e0565b5060c08201527f506100d661010e565b50610258565b5f80fd5b9181601f840112156100dc578260e08201527f359167ffffffffffffffff83116100dc57602083818601950101116100dc57566101008201527f5b604435906001600160801b03821682036100dc57565b6004359060016001606101208201527f801b03821682036100dc57565b602435906001600160801b03821682036100dc6101408201527f57565b346100dc575f3660031901126100dc575f546040516001600160a01b036101608201527f9091168152602090f35b346100dc575f3660031901126100dc576020600254606101808201527f4051908152f35b346100dc5760203660031901126100dc576100d6610124565b6101a08201527f346100dc57602036600319011215610258575f80fd5b346100dc575f366003196101c08201527f01126100dc576001546040516001600160a01b039091168152602090f35b34616101e08201527edc575f3660031901126100dc576020600354604051908152f35b346100dc576102008201527f60403660031901126100dc5760043567ffffffffffffffff81116100dc5761026102208201527f399036906004016100e0565b50506100d661013a565b346100dc575f3660031961024082015263ffffffff3060801c167f011215610258575f80fd5b63e6fabc0960e01b5f5260205f6004817300000000176102608201523060801b6f5afa156100dc575f8080513682803781176102808201527336915af43d5f803e1561029e573d5ff35b3d5ffd60601b6102a08201525ff5908115612d9b576001600160a01b0382165f9081526019820160205260409020849055601a018054612cdd90613204565b90556040516001600160a01b03821680825293907f8008ec1d8798725ebfa0f2d128d52e8e717dcba6e0f786557eeee70614b02bf190602090a2506001600160a01b038116612d9f575033915b813b15612d9b57604051631c9776b560e31b81526001600160a01b03909316600484015260248301525f604483018190528260648183855af1918215612d9057602092612d7b575b50604051908152f35b5f612d8591612eaa565b5f6101805282612d72565b6040513d5f823e3d90fd5b5f80fd5b91612d2a565b634e487b7160e01b5f52602160045260245ffd5b34612d9b575f366003190112612d9b57602090601b5f516020613f005f395f51905f525401548152f35b604435906001600160a01b0382168203612d9b57565b600435906001600160a01b0382168203612d9b57565b35906001600160a01b0382168203612d9b57565b9181601f84011215612d9b578235916001600160401b038311612d9b576020808501948460051b010111612d9b57565b906003821015612da55752565b604081019081106001600160401b03821117612e7b57604052565b634e487b7160e01b5f52604160045260245ffd5b606081019081106001600160401b03821117612e7b57604052565b90601f801991011681019081106001600160401b03821117612e7b57604052565b9291926001600160401b038211612e7b5760405191612ef4601f8201601f191660200184612eaa565b829481845281830111612d9b578281602093845f960137010152565b6001600160401b038111612e7b5760051b60200190565b929190612f3381612f10565b93612f416040519586612eaa565b602085838152019160051b8101928311612d9b57905b828210612f6357505050565b60208091612f7084612e0f565b815201910190612f57565b15612f8257565b60405162461bcd60e51b815260206004820152603860248201527f726f757465722067656e65736973206973207a65726f3b2063616c6c20606c6f60448201527f6f6b757047656e657369734861736828296020666972737400000000000000006064820152608490fd5b60405190612ffa82612e60565b5f6020838281520152565b9060405161301281612e60565b602060018294805484520154910152565b90604051918281549182825260208201905f5260205f20925f5b81811061305457505061305292500383612eaa565b565b84546001600160a01b031683526001948501948794506020909301920161303d565b91908110156130865760051b0190565b634e487b7160e01b5f52603260045260245ffd5b80518210156130865760209160051b010190565b356001600160a01b0381168103612d9b5790565b6130db5f516020613f005f395f51905f52544290613a40565b600301905f5b8381106130f15750505050600190565b6130ff611839828685613076565b6001600160a01b03165f9081526020849052604090205460ff1615613126576001016130e1565b505050505f90565b9190820391821161313b57565b634e487b7160e01b5f52601160045260245ffd5b8115613159570490565b634e487b7160e01b5f52601260045260245ffd5b9190820180921161313b57565b8181029291811591840414171561313b57565b903590601e1981360301821215612d9b57018035906001600160401b038211612d9b57602001916060820236038313612d9b57565b903590601e1981360301821215612d9b57018035906001600160401b038211612d9b57602001918160051b36038313612d9b57565b358015158103612d9b5790565b5f19811461313b5760010190565b602080613052928195946040519682889351918291018585015e8201908382015203018085520183612eaa565b3565ffffffffffff81168103612d9b5790565b6001600160a01b031680156132b0575f516020613ee05f395f51905f5280546001600160a01b0319811683179091556001600160a01b03167f8be0079c531659141344cd1fd0a4f28419497f9722a3daafe3b4186f6b6457e05f80a3565b631e4fbdf760e01b5f525f60045260245ffd5b5f516020613ee05f395f51905f52546001600160a01b031633036132e357565b63118cdaa760e01b5f523360045260245ffd5b5f6040805161330481612e8f565b828152826020820152015260405161331b81612e8f565b5f815263ffffffff4316602082015265ffffffffffff4216604082015290565b803b905f1982019082821161313b5760019060405193603e601f19910116840160405282845260208401903c90565b9291908051906020810191825170014551231950b75fc4402da1732fc9bebe19821091826135ed575b50501561359957518455516001840155604051906133d66021836020808201945f86528051918291018484015e81015f838201520301601f198101845283612eaa565b613413602b604051809360208201956a600b5981380380925939f360a81b87525180918484015e81015f838201520301601f198101835282612eaa565b51905ff06001600160a01b03811615613560576002830180546001600160a01b0319166001600160a01b039092169190911790555f5b600483018054821015613487575f90815260208082208301546001600160a01b0316825260038501905260409020805460ff19169055600101613449565b5050925f5b84518110156134d0576001906001600160a01b036134aa828861309a565b5116828060a01b03165f526003840160205260405f208260ff198254161790550161348c565b5092600482018151916001600160401b038311612e7b57600160401b8311612e7b57815483835580841061353a575b50602001905f5260205f205f5b83811061351d575050505060050155565b82516001600160a01b03168183015560209092019160010161350c565b825f528360205f2091820191015b81811061355557506134ff565b5f8155600101613548565b60405162461bcd60e51b81526020600482015260116024820152701111541313d65351539517d19052531151607a1b6044820152606490fd5b60405162461bcd60e51b815260206004820152602660248201527f46524f53542061676772656761746564207075626c6963206b657920697320696044820152651b9d985b1a5960d21b6064820152608490fd5b6135f79250613e3a565b5f80613393565b6136084282613a5c565b156136135760080190565b600e0190565b909493919365ffffffffffff600283015460201c1661364f61365a613654613641844261312e565b60158701549384809261314f565b61317a565b8361316d565b918284108080613a08575b15613996575083106139515761367b908361316d565b106139005761368b905b82613a40565b94601960f81b5f523060601b60025260165260365f20936002811015612da557806137c15750506001810361377c571561308657803590601e1981360301821215612d9b57018035906001600160401b038211612d9b576020018136038113612d9b576136f9913691612ecb565b9160608351036137275782602061372494015160606040830151920151926001815491015490613bd5565b90565b60405162461bcd60e51b815260206004820152602760248201527f46524f5354207369676e6174757265206c656e677468206d75737420626520396044820152663620627974657360c81b6064820152608490fd5b60405162461bcd60e51b815260206004820152601e60248201527f46524f5354207369676e6174757265206d7573742062652073696e676c6500006044820152606490fd5b9193916001146137d45750505050505f90565b6137ee9061ffff6007600488979801549201541690613a1e565b925f9260035f9201915b86811061380a57505050505050505f90565b86811015613086578060051b820135601e1983360301811215612d9b5782018035906001600160401b038211612d9b576020018136038113612d9b576138689161385f91613859913691612ecb565b86613da0565b90929192613dda565b6001600160a01b0381165f9081526020859052604090205460ff16613893575b506001905b016137f8565b6001600160a01b03165f9081527ff02b465737fa6045c2ff53fb2df43c66916ac2166fa303264668fb2f6a1d8c0060205260409020805c156138d8575060019061388d565b9460016138e692965d613204565b938585146138f4575f613888565b50505050505050600190565b60405162461bcd60e51b8152602060048201526024808201527f74696d657374616d70206973206f6c646572207468616e2070726576696f75736044820152632065726160e01b6064820152608490fd5b60405162461bcd60e51b815260206004820152601e60248201527f63616e6e6f742076616c6964617465206265666f72652067656e6573697300006044820152606490fd5b93929150504282116139b95761368b926139b1575b50613685565b90505f6139ab565b60405162461bcd60e51b815260206004820152602160248201527f74696d657374616d702063616e6e6f7420626520696e207468652066757475726044820152606560f81b6064820152608490fd5b50613a1760178701548561316d565b4210613665565b61ffff613a2c92169061317a565b61270f810180911161313b57612710900490565b90613a4b9082613a5c565b15613a5657600e0190565b60080190565b906013600d830154920154808314613b0157818184109311918215911115918190613afa575b15613a975782613a9157505090565b14919050565b60405162461bcd60e51b815260206004820152603560248201527f636f756c64206e6f74206964656e746966792076616c696461746f727320666f6044820152740722074686520676976656e2074696d657374616d7605c1b6064820152608490fd5b5081613a82565b606460405162461bcd60e51b815260206004820152602060248201527f657261732074696d657374616d70206d757374206e6f7420626520657175616c6044820152fd5b60ff5f516020613f205f395f51905f525460401c1615613b6157565b631afcd79f60e31b5f5260045ffd5b905f19430143811161313b57805b613b89575b505f9150565b8040838103613b9a57506001925050565b15613ba8575f190180613b7e565b613b83565b356001600160801b0381168103612d9b5790565b35906001600160801b0382168203612d9b57565b9293919490613be48587613e3a565b15613d96578215613d965770014551231950b75fc4402da1732fc9bebe19831015613d96576001169061010e6040519161012083018381106001600160401b03821117612d9b5760405260883684376002600188160160888401538760898401526002840160a984015360aa830186905260ca8301527e300046524f53542d736563703235366b312d4b454343414b3235362d76316360ea8301526303430b6160e51b61010a830152812060cc820181815290600260ec84016001815360428420809318845253604270014551231950b75fc4402da1732fc9bebe19922060801c6001600160401b0360801b8260801b16179070014551231950b75fc4402da1732fc9bebe1990600160c01b9060401c09088015613d8b5784601b6080945f9660209870014551231950b75fc4402da1732fc9bebe19910970014551231950b75fc4402da1732fc9bebe19038552018684015280604084015270014551231950b75fc4402da1732fc9bebe19910970014551231950b75fc4402da1732fc9bebe1903606082015282805260015afa505f51915f5260205260018060a01b0360405f20161490565b505050505050505f90565b5050505050505f90565b8151919060418303613dd057613dc99250602082015190606060408401519301515f1a90613e5d565b9192909190565b50505f9160029190565b6004811015612da55780613dec575050565b60018103613e035763f645eedf60e01b5f5260045ffd5b60028103613e1e575063fce698f760e01b5f5260045260245ffd5b600314613e285750565b6335e2f38360e21b5f5260045260245ffd5b6401000003d01990600790829081818009900908906401000003d0199080091490565b91907f7fffffffffffffffffffffffffffffff5d576e7357a4501ddfe92f46681b20a08411613ed4579160209360809260ff5f9560405194855216868401526040830152606082015282805260015afa15612d90575f516001600160a01b03811615613eca57905f905f90565b505f906001905f90565b5050505f916003919056fe9016d09d72d40fdae2fd8ceac6b6234c7706214fd39c1cd1e609a0528c1993005c09ca1b9b8127a4fd9f3c384aac59b661441e820e17733753ff5f2e86e1e000f0c57e16840df040f15088dc2f81fe391c3923bec73e23a9662efc9c229c6a00f0c57e16840df040f15088dc2f81fe391c3923bec73e23a9662efc9c229c6a00","linkReferences":{}},"methodIdentifiers":{"areValidators(address[])":"8f381dbe","codeState(bytes32)":"c13911e8","codesStates(bytes32[])":"82bdeaad","commitBatch(((bytes32,uint48,bool)[],(bytes32,uint48,bytes32,bytes32,(address,bytes32,address,uint128,(bytes32,address,uint128)[],(bytes32,address,bytes,uint128,(bytes32,bytes4))[])[])[]),uint8,bytes[])":"dc360d92","commitValidators(((uint256,uint256),bytes,address[],uint256),uint8,bytes[])":"aa54494a","computeSettings()":"84d22a4f","createProgram(bytes32,bytes32,address)":"3683c4d2","createProgramWithAbiInterface(bytes32,bytes32,address,address)":"0c18d277","genesisBlockHash()":"28e24b3d","genesisTimestamp()":"cacf66ab","initialize(address,address,address,uint256,uint256,uint256,(uint256,uint256),bytes,address[])":"d31d6821","isValidator(address)":"facd743b","latestCommittedBlockHash()":"c9f16a11","lookupGenesisHash()":"8b1edf1e","mirrorImpl()":"e6fabc09","owner()":"8da5cb5b","programCodeId(address)":"9067088e","programsCodeIds(address[])":"baaf0201","programsCount()":"96a2ddfa","reinitialize()":"6c2eb350","renounceOwnership()":"715018a6","requestCodeValidation(bytes32)":"120e3f1e","setMirror(address)":"3d43b418","signingThresholdPercentage()":"efd81abc","transferOwnership(address)":"f2fde38b","validatedCodesCount()":"007a32e7","validators()":"ca1e7819","validatorsAggregatedPublicKey()":"3bd109fa","validatorsCount()":"ed612f8c","validatorsThreshold()":"edc87225","validatorsVerifiableSecretSharingCommitment()":"a5d53a44","wrappedVara()":"88f50cf0"},"storageLayout":{"storage":[],"types":{}},"id":128}