{"abi":[{"type":"constructor","inputs":[],"stateMutability":"nonpayable"},{"type":"function","name":"areValidators","inputs":[{"name":"_validators","type":"address[]","internalType":"address[]"}],"outputs":[{"name":"","type":"bool","internalType":"bool"}],"stateMutability":"view"},{"type":"function","name":"codeState","inputs":[{"name":"_codeId","type":"bytes32","internalType":"bytes32"}],"outputs":[{"name":"","type":"uint8","internalType":"enum Gear.CodeState"}],"stateMutability":"view"},{"type":"function","name":"codesStates","inputs":[{"name":"_codesIds","type":"bytes32[]","internalType":"bytes32[]"}],"outputs":[{"name":"","type":"uint8[]","internalType":"enum Gear.CodeState[]"}],"stateMutability":"view"},{"type":"function","name":"commitBatch","inputs":[{"name":"_batchCommitment","type":"tuple","internalType":"struct Gear.BatchCommitment","components":[{"name":"codeCommitments","type":"tuple[]","internalType":"struct Gear.CodeCommitment[]","components":[{"name":"id","type":"bytes32","internalType":"bytes32"},{"name":"timestamp","type":"uint48","internalType":"uint48"},{"name":"valid","type":"bool","internalType":"bool"}]},{"name":"blockCommitments","type":"tuple[]","internalType":"struct Gear.BlockCommitment[]","components":[{"name":"hash","type":"bytes32","internalType":"bytes32"},{"name":"timestamp","type":"uint48","internalType":"uint48"},{"name":"previousCommittedBlock","type":"bytes32","internalType":"bytes32"},{"name":"predecessorBlock","type":"bytes32","internalType":"bytes32"},{"name":"transitions","type":"tuple[]","internalType":"struct Gear.StateTransition[]","components":[{"name":"actorId","type":"address","internalType":"address"},{"name":"newStateHash","type":"bytes32","internalType":"bytes32"},{"name":"inheritor","type":"address","internalType":"address"},{"name":"valueToReceive","type":"uint128","internalType":"uint128"},{"name":"valueClaims","type":"tuple[]","internalType":"struct Gear.ValueClaim[]","components":[{"name":"messageId","type":"bytes32","internalType":"bytes32"},{"name":"destination","type":"address","internalType":"address"},{"name":"value","type":"uint128","internalType":"uint128"}]},{"name":"messages","type":"tuple[]","internalType":"struct Gear.Message[]","components":[{"name":"id","type":"bytes32","internalType":"bytes32"},{"name":"destination","type":"address","internalType":"address"},{"name":"payload","type":"bytes","internalType":"bytes"},{"name":"value","type":"uint128","internalType":"uint128"},{"name":"replyDetails","type":"tuple","internalType":"struct Gear.ReplyDetails","components":[{"name":"to","type":"bytes32","internalType":"bytes32"},{"name":"code","type":"bytes4","internalType":"bytes4"}]}]}]}]}]},{"name":"_signatureType","type":"uint8","internalType":"enum Gear.SignatureType"},{"name":"_signatures","type":"bytes[]","internalType":"bytes[]"}],"outputs":[],"stateMutability":"nonpayable"},{"type":"function","name":"commitValidators","inputs":[{"name":"_validatorsCommitment","type":"tuple","internalType":"struct Gear.ValidatorsCommitment","components":[{"name":"aggregatedPublicKey","type":"tuple","internalType":"struct Gear.AggregatedPublicKey","components":[{"name":"x","type":"uint256","internalType":"uint256"},{"name":"y","type":"uint256","internalType":"uint256"}]},{"name":"verifiableSecretSharingCommitment","type":"bytes","internalType":"bytes"},{"name":"validators","type":"address[]","internalType":"address[]"},{"name":"eraIndex","type":"uint256","internalType":"uint256"}]},{"name":"_signatureType","type":"uint8","internalType":"enum Gear.SignatureType"},{"name":"_signatures","type":"bytes[]","internalType":"bytes[]"}],"outputs":[],"stateMutability":"nonpayable"},{"type":"function","name":"computeSettings","inputs":[],"outputs":[{"name":"","type":"tuple","internalType":"struct Gear.ComputationSettings","components":[{"name":"threshold","type":"uint64","internalType":"uint64"},{"name":"wvaraPerSecond","type":"uint128","internalType":"uint128"}]}],"stateMutability":"view"},{"type":"function","name":"createProgram","inputs":[{"name":"_codeId","type":"bytes32","internalType":"bytes32"},{"name":"_salt","type":"bytes32","internalType":"bytes32"}],"outputs":[{"name":"","type":"address","internalType":"address"}],"stateMutability":"nonpayable"},{"type":"function","name":"createProgramWithDecoder","inputs":[{"name":"_decoderImpl","type":"address","internalType":"address"},{"name":"_codeId","type":"bytes32","internalType":"bytes32"},{"name":"_salt","type":"bytes32","internalType":"bytes32"}],"outputs":[{"name":"","type":"address","internalType":"address"}],"stateMutability":"nonpayable"},{"type":"function","name":"genesisBlockHash","inputs":[],"outputs":[{"name":"","type":"bytes32","internalType":"bytes32"}],"stateMutability":"view"},{"type":"function","name":"genesisTimestamp","inputs":[],"outputs":[{"name":"","type":"uint48","internalType":"uint48"}],"stateMutability":"view"},{"type":"function","name":"initialize","inputs":[{"name":"_owner","type":"address","internalType":"address"},{"name":"_mirror","type":"address","internalType":"address"},{"name":"_mirrorProxy","type":"address","internalType":"address"},{"name":"_wrappedVara","type":"address","internalType":"address"},{"name":"_eraDuration","type":"uint256","internalType":"uint256"},{"name":"_electionDuration","type":"uint256","internalType":"uint256"},{"name":"_validationDelay","type":"uint256","internalType":"uint256"},{"name":"_aggregatedPublicKey","type":"tuple","internalType":"struct Gear.AggregatedPublicKey","components":[{"name":"x","type":"uint256","internalType":"uint256"},{"name":"y","type":"uint256","internalType":"uint256"}]},{"name":"_verifiableSecretSharingCommitment","type":"bytes","internalType":"bytes"},{"name":"_validators","type":"address[]","internalType":"address[]"}],"outputs":[],"stateMutability":"nonpayable"},{"type":"function","name":"isValidator","inputs":[{"name":"_validator","type":"address","internalType":"address"}],"outputs":[{"name":"","type":"bool","internalType":"bool"}],"stateMutability":"view"},{"type":"function","name":"latestCommittedBlockHash","inputs":[],"outputs":[{"name":"","type":"bytes32","internalType":"bytes32"}],"stateMutability":"view"},{"type":"function","name":"lookupGenesisHash","inputs":[],"outputs":[],"stateMutability":"nonpayable"},{"type":"function","name":"mirrorImpl","inputs":[],"outputs":[{"name":"","type":"address","internalType":"address"}],"stateMutability":"view"},{"type":"function","name":"mirrorProxyImpl","inputs":[],"outputs":[{"name":"","type":"address","internalType":"address"}],"stateMutability":"view"},{"type":"function","name":"owner","inputs":[],"outputs":[{"name":"","type":"address","internalType":"address"}],"stateMutability":"view"},{"type":"function","name":"programCodeId","inputs":[{"name":"_programId","type":"address","internalType":"address"}],"outputs":[{"name":"","type":"bytes32","internalType":"bytes32"}],"stateMutability":"view"},{"type":"function","name":"programsCodeIds","inputs":[{"name":"_programsIds","type":"address[]","internalType":"address[]"}],"outputs":[{"name":"","type":"bytes32[]","internalType":"bytes32[]"}],"stateMutability":"view"},{"type":"function","name":"programsCount","inputs":[],"outputs":[{"name":"","type":"uint256","internalType":"uint256"}],"stateMutability":"view"},{"type":"function","name":"reinitialize","inputs":[],"outputs":[],"stateMutability":"nonpayable"},{"type":"function","name":"renounceOwnership","inputs":[],"outputs":[],"stateMutability":"nonpayable"},{"type":"function","name":"requestCodeValidation","inputs":[{"name":"_codeId","type":"bytes32","internalType":"bytes32"}],"outputs":[],"stateMutability":"nonpayable"},{"type":"function","name":"setMirror","inputs":[{"name":"newMirror","type":"address","internalType":"address"}],"outputs":[],"stateMutability":"nonpayable"},{"type":"function","name":"signingThresholdPercentage","inputs":[],"outputs":[{"name":"","type":"uint16","internalType":"uint16"}],"stateMutability":"view"},{"type":"function","name":"transferOwnership","inputs":[{"name":"newOwner","type":"address","internalType":"address"}],"outputs":[],"stateMutability":"nonpayable"},{"type":"function","name":"validatedCodesCount","inputs":[],"outputs":[{"name":"","type":"uint256","internalType":"uint256"}],"stateMutability":"view"},{"type":"function","name":"validators","inputs":[],"outputs":[{"name":"","type":"address[]","internalType":"address[]"}],"stateMutability":"view"},{"type":"function","name":"validatorsAggregatedPublicKey","inputs":[],"outputs":[{"name":"","type":"tuple","internalType":"struct Gear.AggregatedPublicKey","components":[{"name":"x","type":"uint256","internalType":"uint256"},{"name":"y","type":"uint256","internalType":"uint256"}]}],"stateMutability":"view"},{"type":"function","name":"validatorsCount","inputs":[],"outputs":[{"name":"","type":"uint256","internalType":"uint256"}],"stateMutability":"view"},{"type":"function","name":"validatorsThreshold","inputs":[],"outputs":[{"name":"","type":"uint256","internalType":"uint256"}],"stateMutability":"view"},{"type":"function","name":"validatorsVerifiableSecretSharingCommitment","inputs":[],"outputs":[{"name":"","type":"bytes","internalType":"bytes"}],"stateMutability":"view"},{"type":"function","name":"wrappedVara","inputs":[],"outputs":[{"name":"","type":"address","internalType":"address"}],"stateMutability":"view"},{"type":"event","name":"BlockCommitted","inputs":[{"name":"hash","type":"bytes32","indexed":false,"internalType":"bytes32"}],"anonymous":false},{"type":"event","name":"CodeGotValidated","inputs":[{"name":"codeId","type":"bytes32","indexed":false,"internalType":"bytes32"},{"name":"valid","type":"bool","indexed":true,"internalType":"bool"}],"anonymous":false},{"type":"event","name":"CodeValidationRequested","inputs":[{"name":"codeId","type":"bytes32","indexed":false,"internalType":"bytes32"}],"anonymous":false},{"type":"event","name":"ComputationSettingsChanged","inputs":[{"name":"threshold","type":"uint64","indexed":false,"internalType":"uint64"},{"name":"wvaraPerSecond","type":"uint128","indexed":false,"internalType":"uint128"}],"anonymous":false},{"type":"event","name":"Initialized","inputs":[{"name":"version","type":"uint64","indexed":false,"internalType":"uint64"}],"anonymous":false},{"type":"event","name":"NextEraValidatorsCommitted","inputs":[{"name":"startTimestamp","type":"uint256","indexed":false,"internalType":"uint256"}],"anonymous":false},{"type":"event","name":"OwnershipTransferred","inputs":[{"name":"previousOwner","type":"address","indexed":true,"internalType":"address"},{"name":"newOwner","type":"address","indexed":true,"internalType":"address"}],"anonymous":false},{"type":"event","name":"ProgramCreated","inputs":[{"name":"actorId","type":"address","indexed":false,"internalType":"address"},{"name":"codeId","type":"bytes32","indexed":true,"internalType":"bytes32"}],"anonymous":false},{"type":"event","name":"StorageSlotChanged","inputs":[],"anonymous":false},{"type":"error","name":"ECDSAInvalidSignature","inputs":[]},{"type":"error","name":"ECDSAInvalidSignatureLength","inputs":[{"name":"length","type":"uint256","internalType":"uint256"}]},{"type":"error","name":"ECDSAInvalidSignatureS","inputs":[{"name":"s","type":"bytes32","internalType":"bytes32"}]},{"type":"error","name":"FailedDeployment","inputs":[]},{"type":"error","name":"InsufficientBalance","inputs":[{"name":"balance","type":"uint256","internalType":"uint256"},{"name":"needed","type":"uint256","internalType":"uint256"}]},{"type":"error","name":"InvalidInitialization","inputs":[]},{"type":"error","name":"NotInitializing","inputs":[]},{"type":"error","name":"OwnableInvalidOwner","inputs":[{"name":"owner","type":"address","internalType":"address"}]},{"type":"error","name":"OwnableUnauthorizedAccount","inputs":[{"name":"account","type":"address","internalType":"address"}]},{"type":"error","name":"ReentrancyGuardReentrantCall","inputs":[]}],"bytecode":{"object":"0x6080806040523460aa575f516020613c2f5f395f51905f525460ff8160401c16609b576002600160401b03196001600160401b038216016049575b604051613b8090816100af8239f35b6001600160401b0319166001600160401b039081175f516020613c2f5f395f51905f525581527fc7f505b2f371ae2175ee4913f4499e1f2633a7b5936321eed1cdaeb6115181d290602090a15f80603a565b63f92ee8a960e01b5f5260045ffd5b5f80fdfe6101a0806040526004361015610013575f80fd5b5f610180525f3560e01c9081627a32e71461282c57508063120e3f1e146126a157806328e24b3d146126745780633bd109fa146126265780633d43b418146125d4578063527de0f91461254657806353f7fd4814611fe657806365ecfea214611fab5780636c2eb35014611c94578063715018a614611c2257806382bdeaad14611b1157806384d22a4f14611aa657806388f50cf014611a6b5780638b1edf1e1461199a5780638da5cb5b146119635780638f381dbe1461191e5780639067088e146118d657806396a2ddfa146118a6578063a5d53a4414611832578063aa54494a146113f9578063baaf0201146112f8578063c13911e8146112ae578063c9f16a111461127e578063ca1e7819146111f7578063cacf66ab146111bd578063dc360d921461043a578063e6fabc09146103ff578063e7006a74146102d4578063ed612f8c1461029a578063edc872251461024e578063efd81abc1461021a578063f2fde38b146101ea5763facd743b1461018c575f80fd5b346101e35760203660031901126101e3576101a5612856565b60036101c05f516020613b0b5f395f51905f52544290613603565b019060018060a01b03165f52602052602060ff60405f2054166040519015158152f35b6101805180fd5b346101e35760203660031901126101e357610213610206612856565b61020e612d20565b612caf565b6101805180f35b346101e357610180513660031901126101e357602061ffff60085f516020613b0b5f395f51905f5254015416604051908152f35b346101e357610180513660031901126101e35760206102925f516020613b0b5f395f51905f525461ffff600860046102864285613603565b015492015416906135e1565b604051908152f35b346101e357610180513660031901126101e357602060046102ca5f516020613b0b5f395f51905f52544290613603565b0154604051908152f35b346101e35760603660031901126101e3576102ed612856565b60243590610335604435916103028385612d53565b936040519360208501918252604085015260408452610322606085612907565b92519092206001600160a01b0392613948565b16803b156101e35760405163189acdbd60e31b81526001600160a01b0390921660048301819052610180519092908160248183865af180156103d6576103e4575b50813b156101e35760405163485cc95560e01b81523360048201526024810191909152610180518160448183865af180156103d6576103bb575b602082604051908152f35b610180516103c891612907565b610180516101e357816103b0565b6040513d61018051823e3d90fd5b610180516103f191612907565b610180516101e35782610376565b346101e357610180513660031901126101e3575f516020613b0b5f395f51905f5254600501546040516001600160a01b039091168152602090f35b346101e35760603660031901126101e3576004356001600160401b0381116101e357604060031982360301126101e357600260243510156101e3576044356001600160401b0381116101e357610494903690600401612880565b917f9b779b17422d0df92223018b32b4d1fa46e071723d6817e2486d003becc55f005c6111a85760017f9b779b17422d0df92223018b32b4d1fa46e071723d6817e2486d003becc55f005d5f516020613b0b5f395f51905f525461014052610504600161014051015415156129d8565b6105116004820180612bea565b9050158061118f575b61114a576101805160c081905261014051601901939290919060605b6105436004840180612bea565b9050841015610786576105596004840180612bea565b85101561076c576060850201938435948561018051528760205260ff6040610180512054166003811015610752576001036106ef57604081019261059c84612c54565b156106d157610180805188905260208a90525160409020805460ff1916600217905561014051601c0180546105d090612c61565b90555b6105dc84612c54565b15157f460119a8f69a33ed127de517d5ea464e958ce23ef19e4420a8b92bf780bbc2c960206040518a8152a26060823603126101e357602060405192610621846128bd565b888452019687359465ffffffffffff861686036101e35785602085015235948515158087036101e3576001966040610694960152604051916020830193845265ffffffffffff60d01b9060d01b16604083015260f81b60468201526027815261068b604782612907565b51902090612c6f565b9460c05165ffffffffffff6106a883612c9c565b16116106b7575b500192610536565b6106c765ffffffffffff91612c9c565b1660c052876106af565b866101805152886020526040610180512060ff1981541690556105d3565b60405162461bcd60e51b815260206004820152603560248201527f636f6465206d7573742062652072657175657374656420666f722076616c6964604482015274185d1a5bdb881d1bc818994818dbdb5b5a5d1d1959605a1b6064820152608490fd5b634e487b7160e01b61018051526021600452602461018051fd5b634e487b7160e01b61018051526032600452602461018051fd5b61018051606060a05261012052849290915b6107a86024830183600401612c1f565b9050610120511015611087576107c46024830183600401612c1f565b906101005261012051101561076c576101205160051b61010051013560e052609e196101005136030160e05112156101e3576003610140510154604060e051610100510101350361103457610140515415610fc8575b602061082e8160e051610100510101612c9c565b65ffffffffffff60405191610842836128ec565b60e051610100510135835216918291015260e051610100510135600361014051015565ffffffffffff19600461014051015416176004610140510155610899608060e05161010051010160e0516101005101612c1f565b61016091909152610180516080529360605b856080511015610eaa57610180515060be196101605136030160805160051b61016051013512156101e3576108ef60805160051b6101605101356101605101612b4a565b6001600160a01b03165f90815261014051601a01602052604090205415610e4d5760018060a01b0360076101405101541661093960805160051b6101605101356101605101612b4a565b606060805160051b610160510135610160510101356001600160801b03811681036101e35760405163a9059cbb60e01b81526001600160a01b0390921660048301526001600160801b03166024820152610180519091602091839160449183915af180156103d657610e14575b5060018060a01b036109c760805160051b6101605101356101605101612b4a565b1690604051916309ed323560e41b83526020600484015260e4830160018060a01b03610a0260805160051b610160510135610160510161286c565b166024850152608080516101608051600592831b81013501602001356044880152915191516001600160a01b0392610a41921b8101350160400161286c565b1660648501526001600160801b03610a6b606060805160051b610160510135610160510101613770565b166084850152608080516101605160059190911b8101350190810135903603601e19018112156101e35760805160051b61016051013561016051010160208101916001600160401b038235116101e3576060823502360383136101e35760c060a48701528135905261018051610104860192915b80358210610dca5750506080516101605160059190911b8101350160a08101359291503603601e19018212156101e3576001600160401b0360805160051b6101605101356101605101830135116101e35760805161016051600591821b810135018301803590911b90368290036020909101136101e3579185926023198484030160c485015260805160051b6101605101356101605101820135835260208084019184010192602060805160051b61016051013561016051018401019261018051915b60805160051b61016051013561016051018201358310610c2e575050505050918180602094039161018051905af19081156103d6576101805191610bf9575b610beb9250612c6f565b6080805160010190526108ab565b90506020823d8211610c26575b81610c1360209383612907565b810103126101e357610beb915190610be1565b3d9150610c06565b919395509193601f1982820301855285359060de1960805160051b610160510135610160510185013603018212156101e357608080516101608051600592831b8101350187018501602001358452915191516001600160a01b0392610c9e921b810135018601840160400161286c565b16602082015260805161016051606060059290921b810135018501830190810135903603603e19018112156101e35760209060805160051b6101605101356101605101860184010101916001600160401b038335116101e3578235360360208401136101e35760c09081604084015283358284015283356020850160e08501376101805160e08535850101526001600160801b03610d516080805160051b61016051013561016051018901840101613770565b16606084015260a060805160051b6101605101356101605101870182010135608084015260805160051b610160510135610160510186010101359163ffffffff60e01b83168093036101e35760a082019290925289969135601f01601f19160160e0019460209182019491019260019190910191610ba2565b90919260608060019286358152838060a01b03610de96020890161286c565b1660208201526001600160801b03610e0360408901613770565b166040820152019401920190610adf565b6020813d8211610e45575b81610e2c60209383612907565b810103126101e3575180151581146109a6576101805180fd5b3d9150610e1f565b60405162461bcd60e51b815260206004820152602f60248201527f636f756c646e277420706572666f726d207472616e736974696f6e20666f722060448201526e756e6b6e6f776e2070726f6772616d60881b6064820152608490fd5b610f6a91939550939193602081519101207fd756eca21e02cb0dbde1e44a4d9c6921b5c8aa4668cfa0752784b3dc855bce1e602060405160e0516101005101358152a1610f00602060e051610100510101612c9c565b9060405190602082019260e051610100510135845265ffffffffffff60d01b9060d01b166040830152604060e051610100510101356046830152606060e051610100510101356066830152608682015260868152610f5f60a682612907565b51902060a051612c6f565b60a05260c05165ffffffffffff610f8a602060e051610100510101612c9c565b1611610fa5575b600161012051016101205291929092610798565b65ffffffffffff610fbf602060e051610100510101612c9c565b1660c052610f91565b610fdc606060e05161010051010135613733565b61081a5760405162461bcd60e51b815260206004820152602660248201527f616c6c6f776564207072656465636573736f7220626c6f636b207761736e277460448201526508199bdd5b9960d21b6064820152608490fd5b60405162461bcd60e51b815260206004820152602560248201527f696e76616c69642070726576696f757320636f6d6d697474656420626c6f636b604482015264040d0c2e6d60db1b6064820152608490fd5b6110d3908484602081519101209160a05151602060a051012060405190602082019485526040820152604081526110bf606082612907565b60c0519360243591519020610140516131bc565b1561110557610180517f9b779b17422d0df92223018b32b4d1fa46e071723d6817e2486d003becc55f005d6101805180f35b60405162461bcd60e51b815260206004820152601e60248201527f7369676e61747572657320766572696669636174696f6e206661696c656400006044820152606490fd5b60405162461bcd60e51b815260206004820152601860248201527f6e6f20636f6d6d69746d656e747320746f20636f6d6d697400000000000000006044820152606490fd5b506111a06024820182600401612c1f565b90501561051a565b633ee5aeb560e01b6101805152600461018051fd5b346101e357610180513660031901126101e357602065ffffffffffff60025f516020613b0b5f395f51905f52540154821c16604051908152f35b346101e357610180513660031901126101e35761122e60046112285f516020613b0b5f395f51905f52544290613603565b01612abf565b604051809160208201602083528151809152602060408401920190610180515b81811061125c575050500390f35b82516001600160a01b031684528594506020938401939092019160010161124e565b346101e357610180513660031901126101e357602060035f516020613b0b5f395f51905f52540154604051908152f35b346101e35760203660031901126101e35760195f516020613b0b5f395f51905f5254016004356101805152602052602060ff6040610180512054166112f660405180926128b0565bf35b346101e35760203660031901126101e3576004356001600160401b0381116101e357611328903690600401612880565b5f516020613b0b5f395f51905f5254916113418261296d565b9261134f6040519485612907565b82845261135b8361296d565b602085019390601f1901368537601a610180519201915b8181106113c057848660405191829160208301906020845251809152604083019190610180515b8181106113a7575050500390f35b8251845285945060209384019390920191600101611399565b806113d66113d16001938588612b12565b612b4a565b828060a01b03165f528360205260405f20546113f28289612b36565b5201611372565b346101e35760603660031901126101e3576004356001600160401b0381116101e3576003198136030160a081126101e3576040519060808201908282106001600160401b03831117611818576040918252126101e35760405161145b816128ec565b8260040135815260248301356020820152815260448201356001600160401b0381116101e3578201366023820112156101e3576114a2903690602460048201359101612928565b6020820190815260648301356001600160401b0381116101e3578301366023820112156101e3576114dd903690602460048201359101612984565b90604083019182526084606084019401358452600260243510156101e3576044356001600160401b0381116101e35761151a903690600401612880565b9190935f516020613b0b5f395f51905f525461153b600182015415156129d8565b65ffffffffffff600282015460201c166115558142612a80565b9061156560168401548093612aa1565b8951600182018092116117fe57036117a65761158661158c928a5190612bd7565b90612bca565b9361159b601783015486612a80565b4210611761576115aa826131a1565b9642600589015410156117015783516020815191015188519a51604051916020830193845260408301526060820160208d51919d0190610180515b8181106116e2575050506020828d61160c936116399a9b9c9d9e9f52038084520182612907565b5190209260405190602082019485526020825261162a604083612907565b429460243592519020906131bc565b15611682577f41e7f919bf726af8aa2ef36bd31905a693013e30c45c6284060e613d4941997b94602094611674938593519051915192612f2a565b604051908152a16101805180f35b60405162461bcd60e51b815260206004820152603260248201527f6e657874206572612076616c696461746f7273207369676e6174757265732076604482015271195c9a599a58d85d1a5bdb8819985a5b195960721b6064820152608490fd5b82516001600160a01b03168f5260209e8f019e909201916001016115e5565b60405162461bcd60e51b815260206004820152603260248201527f6c6f6f6b73206c696b652076616c696461746f727320666f72206e65787420656044820152711c9848185c9948185b1c9958591e481cd95d60721b6064820152608490fd5b60405162461bcd60e51b815260206004820152601b60248201527f656c656374696f6e206973206e6f7420796574207374617274656400000000006044820152606490fd5b60405162461bcd60e51b815260206004820152602a60248201527f636f6d6d69746d656e742065726120696e646578206973206e6f74206e657874604482015269040cae4c240d2dcc8caf60b31b6064820152608490fd5b634e487b7160e01b61018051526011600452602461018051fd5b634e487b7160e01b61018051526041600452602461018051fd5b346101e357610180513660031901126101e357602060406118775f516020613b0b5f395f51905f5254600261186f60018060a01b03924290613603565b015416613172565b815192839181835280519182918282860152018484015e61018051828201840152601f01601f19168101030190f35b346101e357610180513660031901126101e3576020601b5f516020613b0b5f395f51905f52540154604051908152f35b346101e35760203660031901126101e3576118ef612856565b601a5f516020613b0b5f395f51905f5254019060018060a01b03165f52602052602060405f2054604051908152f35b346101e35760203660031901126101e3576004356001600160401b0381116101e3576119596119536020923690600401612880565b90612b5e565b6040519015158152f35b346101e357610180513660031901126101e3575f516020613aeb5f395f51905f52546040516001600160a01b039091168152602090f35b346101e357610180513660031901126101e3575f516020613b0b5f395f51905f525460018101908154611a26576002015463ffffffff16409081156119e157556101805180f35b60405162461bcd60e51b815260206004820152601d60248201527f756e61626c6520746f206c6f6f6b75702067656e6573697320686173680000006044820152606490fd5b60405162461bcd60e51b815260206004820152601860248201527f67656e65736973206861736820616c72656164792073657400000000000000006044820152606490fd5b346101e357610180513660031901126101e3575f516020613b0b5f395f51905f5254600701546040516001600160a01b039091168152602090f35b346101e357610180513660031901126101e357611ac1612a4a565b50604060155f516020613b0b5f395f51905f5254016001600160801b03825191611aea836128ec565b548160206001600160401b038316948581520191851c168152835192835251166020820152f35b346101e35760203660031901126101e3576004356001600160401b0381116101e357611b41903690600401612880565b5f516020613b0b5f395f51905f525491611b5a8261296d565b92611b686040519485612907565b828452611b748361296d565b602085019390601f19013685376019610180519201915b818110611be357848660405191829160208301906020845251809152604083019190610180515b818110611bc0575050500390f35b9193509160208082611bd560019488516128b0565b019401910191849392611bb2565b611bee818386612b12565b3561018051528260205260ff60406101805120541690611c0e8188612b36565b916003811015610752576001925201611b8b565b346101e357610180513660031901126101e357611c3d612d20565b5f516020613aeb5f395f51905f5280546001600160a01b0319811690915561018051906001600160a01b03167f8be0079c531659141344cd1fd0a4f28419497f9722a3daafe3b4186f6b6457e08280a36101805180f35b346101e357610180513660031901126101e357611caf612d20565b5f516020613b2b5f395f51905f525460ff8160401c168015611f97575b611f825768ffffffffffffffffff191668010000000000000002175f516020613b2b5f395f51905f52555f516020613b0b5f395f51905f525460408051611d138282612907565b6017815260208101907f726f757465722e73746f726167652e526f7574657256320000000000000000008252611d47612d20565b5190205f198101919082116117fe577fc7f505b2f371ae2175ee4913f4499e1f2633a7b5936321eed1cdaeb6115181d292602092825190848201908152848252611d918483612907565b60ff19915190201690815f516020613b0b5f395f51905f5255611db2612e8a565b80516001840155600283019063ffffffff868201511669ffffffffffff00000000868454930151881b169169ffffffffffffffffffff191617179055600581016005830190808203611f34575b505061ffff600882015416600883019061ffff19825416179055611e68611e264283613603565b611e3d6001600160a01b03600261186f4287613603565b611e536004611e4c4287613603565b0192612a62565b90611e5e4293612abf565b9160098601612f2a565b601581016015830190808203611ee2575b5050601681016016830191818303611ec2575b5050505060ff60401b195f516020613b2b5f395f51905f5254165f516020613b2b5f395f51905f52555160028152a16101805180f35b601892839254905560178101546017850155015491015583808080611e8c565b806001600160401b03806001600160801b03935416166001600160401b031984541617835554851c16600160401b600160c01b03825491861b1690600160401b600160c01b0319161790558580611e79565b5481546001600160a01b03199081166001600160a01b039283161790925560068381015490850180548416918316919091179055600780840154908501805490931691161790558580611dff565b63f92ee8a960e01b6101805152600461018051fd5b5060026001600160401b0382161015611ccc565b346101e357610180513660031901126101e3575f516020613b0b5f395f51905f5254600601546040516001600160a01b039091168152602090f35b346101e3576101603660031901126101e357612000612856565b6024356001600160a01b03811691908290036101e3576044356001600160a01b03811692908390036101e3576064356001600160a01b038116908190036101e3576084359160a43560c43595604060e3193601126101e35761012435916001600160401b0383116101e357366023840112156101e3578260040135916001600160401b0383116101e35736602484860101116101e357610144356001600160401b0381116101e3576120b6903690600401612880565b9690945f516020613b2b5f395f51905f525460ff8160401c16159a6001600160401b0382168015908161253e575b6001149081612534575b15908161252b575b50611f825767ffffffffffffffff1982166001175f516020613b2b5f395f51905f5255612134918c6124ff575b5061212c61361f565b61020e61361f565b42156124a957831561245357838911156123f257600a612154858b612a80565b048b10156123ad5760409a8b5161216b8d82612907565b6017815260208101907f726f757465722e73746f726167652e526f757465725631000000000000000000825261219f612d20565b5190205f198101959086116117fe5761234d9a828e61233c9661234698600660099b84519060208201908152602082526121d98683612907565b60ff1991519020169e8f90815f516020613b0b5f395f51905f52556121fc612e8a565b80516001840155600283019063ffffffff60208201511669ffffffffffff0000000089845493015160201b169169ffffffffffffffffffff19161717905584868051612247816128bd565b8381526020810187905201526005820180546001600160a01b03199081166001600160a01b039384161790915592909101805483169382169390931790925560078f0180549091169290911691909117905560088c01805461ffff1916611a0a1790556122b2612a4a565b506509184e72a000602082516122c7816128ec565b639502f9008152015260158c0180546001600160c01b0319166d09184e72a000000000009502f90017905580516122fd816128bd565b83815260208101859052015260168a0155601789015560188801558a5194612324866128ec565b60e43586526101043560208701526024369201612928565b9342963691612984565b9301612f2a565b612358576101805180f35b60207fc7f505b2f371ae2175ee4913f4499e1f2633a7b5936321eed1cdaeb6115181d29160ff60401b195f516020613b2b5f395f51905f5254165f516020613b2b5f395f51905f52555160018152a180610213565b60405162461bcd60e51b815260206004820152601b60248201527f76616c69646174696f6e2064656c617920697320746f6f2062696700000000006044820152606490fd5b60405162461bcd60e51b815260206004820152603360248201527f657261206475726174696f6e206d757374206265206772656174657220746861604482015272371032b632b1ba34b7b710323ab930ba34b7b760691b6064820152608490fd5b60405162461bcd60e51b815260206004820152602860248201527f656c656374696f6e206475726174696f6e206d75737420626520677265617465604482015267072207468616e20360c41b6064820152608490fd5b60405162461bcd60e51b815260206004820152602860248201527f63757272656e742074696d657374616d70206d75737420626520677265617465604482015267072207468616e20360c41b6064820152608490fd5b68ffffffffffffffffff191668010000000000000001175f516020613b2b5f395f51905f52558d612123565b9050158e6120f6565b303b1591506120ee565b8d91506120e4565b346125d05760403660031901126125d0576001600160a01b0361256d602435600435612d53565b16803b156125d0576040519063485cc95560e01b82523360048301525f60248301525f8260448183855af19182156125c5576020926125b0575b50604051908152f35b5f6125ba91612907565b5f61018052826125a7565b6040513d5f823e3d90fd5b5f80fd5b346125d05760203660031901126125d0576125ed612856565b6125f5612d20565b5f516020613b0b5f395f51905f525460050180546001600160a01b0319166001600160a01b03909216919091179055005b346125d0575f3660031901126125d05761263e612a4a565b50604061266261265d5f516020613b0b5f395f51905f52544290613603565b612a62565b60208251918051835201516020820152f35b346125d0575f3660031901126125d057602060015f516020613b0b5f395f51905f52540154604051908152f35b346125d05760203660031901126125d0576004355f49156127b05760195f516020613b0b5f395f51905f52546126dc600182015415156129d8565b01815f528060205260ff60405f205416600381101561279c5761273b57816020917f5c261a095dd5720475295dc06379921c003c22164ee6cae5cf83e76ce0a1b985935f52825260405f20600160ff19825416179055604051908152a1005b60405162461bcd60e51b815260206004820152603360248201527f676976656e20636f646520696420697320616c7265616479206f6e2076616c6960448201527219185d1a5bdb881bdc881d985b1a59185d1959606a1b6064820152608490fd5b634e487b7160e01b5f52602160045260245ffd5b60405162461bcd60e51b815260206004820152604860248201527f626c6f622063616e277420626520666f756e642c20726f75746572206578706560448201527f63746564204549502d34383434207472616e73616374696f6e2077697468205760648201526720a9a690313637b160c11b608482015260a490fd5b346125d0575f3660031901126125d057602090601c5f516020613b0b5f395f51905f525401548152f35b600435906001600160a01b03821682036125d057565b35906001600160a01b03821682036125d057565b9181601f840112156125d0578235916001600160401b0383116125d0576020808501948460051b0101116125d057565b90600382101561279c5752565b606081019081106001600160401b038211176128d857604052565b634e487b7160e01b5f52604160045260245ffd5b604081019081106001600160401b038211176128d857604052565b90601f801991011681019081106001600160401b038211176128d857604052565b9291926001600160401b0382116128d85760405191612951601f8201601f191660200184612907565b8294818452818301116125d0578281602093845f960137010152565b6001600160401b0381116128d85760051b60200190565b9291906129908161296d565b9361299e6040519586612907565b602085838152019160051b81019283116125d057905b8282106129c057505050565b602080916129cd8461286c565b8152019101906129b4565b156129df57565b60405162461bcd60e51b815260206004820152603860248201527f726f757465722067656e65736973206973207a65726f3b2063616c6c20606c6f60448201527f6f6b757047656e657369734861736828296020666972737400000000000000006064820152608490fd5b60405190612a57826128ec565b5f6020838281520152565b90604051612a6f816128ec565b602060018294805484520154910152565b91908203918211612a8d57565b634e487b7160e01b5f52601160045260245ffd5b8115612aab570490565b634e487b7160e01b5f52601260045260245ffd5b90604051918281549182825260208201905f5260205f20925f5b818110612af0575050612aee92500383612907565b565b84546001600160a01b0316835260019485019487945060209093019201612ad9565b9190811015612b225760051b0190565b634e487b7160e01b5f52603260045260245ffd5b8051821015612b225760209160051b010190565b356001600160a01b03811681036125d05790565b612b775f516020613b0b5f395f51905f52544290613603565b600301905f5b838110612b8d5750505050600190565b612b9b6113d1828685612b12565b6001600160a01b03165f9081526020849052604090205460ff1615612bc257600101612b7d565b505050505f90565b91908201809211612a8d57565b81810292918115918404141715612a8d57565b903590601e19813603018212156125d057018035906001600160401b0382116125d0576020019160608202360383136125d057565b903590601e19813603018212156125d057018035906001600160401b0382116125d057602001918160051b360383136125d057565b3580151581036125d05790565b5f198114612a8d5760010190565b602080612aee928195946040519682889351918291018585015e8201908382015203018085520183612907565b3565ffffffffffff811681036125d05790565b6001600160a01b03168015612d0d575f516020613aeb5f395f51905f5280546001600160a01b0319811683179091556001600160a01b03167f8be0079c531659141344cd1fd0a4f28419497f9722a3daafe3b4186f6b6457e05f80a3565b631e4fbdf760e01b5f525f60045260245ffd5b5f516020613aeb5f395f51905f52546001600160a01b03163303612d4057565b63118cdaa760e01b5f523360045260245ffd5b5f516020613b0b5f395f51905f525491612d72600184015415156129d8565b815f526019830160205260ff60405f205416600381101561279c57600203612e2e57612dd0601b9160018060a01b03600686015416906040516020810191868352604082015260408152612dc7606082612907565b51902090613948565b9260018060a01b0384165f52601a81016020528260405f205501612df48154612c61565b90556040516001600160a01b03831681527f8008ec1d8798725ebfa0f2d128d52e8e717dcba6e0f786557eeee70614b02bf190602090a290565b60405162461bcd60e51b815260206004820152602e60248201527f636f6465206d7573742062652076616c696461746564206265666f726520707260448201526d37b3b930b69031b932b0ba34b7b760911b6064820152608490fd5b5f60408051612e98816128bd565b8281528260208201520152604051612eaf816128bd565b5f815263ffffffff4316602082015265ffffffffffff4216604082015290565b15612ed657565b60405162461bcd60e51b815260206004820152602660248201527f46524f53542061676772656761746564207075626c6963206b657920697320696044820152651b9d985b1a5960d21b6064820152608490fd5b929190805190612f5d6020820192835170014551231950b75fc4402da1732fc9bebe1982109182613161575b5050612ecf565b51845551600184015560405190612f996021836020808201945f86528051918291018484015e81015f838201520301601f198101845283612907565b612fd6602b604051809360208201956a600b5981380380925939f360a81b87525180918484015e81015f838201520301601f198101835282612907565b51905ff06001600160a01b03811615613128576002830180546001600160a01b0319166001600160a01b039092169190911790555f5b60048301805482101561304a575f90815260208082208301546001600160a01b0316825260038501905260409020805460ff1916905560010161300c565b5050925f5b8451811015613093576001906001600160a01b0361306d8288612b36565b5116828060a01b03165f526003840160205260405f208260ff198254161790550161304f565b5092600482018151916001600160401b0383116128d8576801000000000000000083116128d8578154838355808410613102575b50602001905f5260205f205f5b8381106130e5575050505060050155565b82516001600160a01b0316818301556020909201916001016130d4565b825f528360205f2091820191015b81811061311d57506130c7565b5f8155600101613110565b60405162461bcd60e51b81526020600482015260116024820152701111541313d65351539517d19052531151607a1b6044820152606490fd5b61316b9250613a45565b5f80612f56565b803b905f19820190828211612a8d5760019060405193603e601f19910116840160405282845260208401903c90565b6131ab428261364a565b156131b65760090190565b600f0190565b909493919365ffffffffffff600283015460201c166131f26131fd6131f76131e48442612a80565b601687015493848092612aa1565b612bd7565b83612bca565b9182841080806135cb575b15613559575083106135145761321e9083612bca565b106134c35761322e905b82613603565b94604051906020820190815260208252613249604083612907565b613285603660405180936020820195601960f81b87523060601b60228401525180918484015e81015f838201520301601f198101835282612907565b51902093600281101561279c57806133e15750506001810361339c5715612b2257803590601e19813603018212156125d057018035906001600160401b0382116125d05760200181360381136125d0576132e0913691612928565b9160608351036133475782602061332f9401516060604083015192015192600181549101549070014551231950b75fc4402da1732fc9bebe19811080613332575b61332a90612ecf565b613784565b90565b5061332a6133408383613a45565b9050613321565b60405162461bcd60e51b815260206004820152602760248201527f46524f5354207369676e6174757265206c656e677468206d75737420626520396044820152663620627974657360c81b6064820152608490fd5b60405162461bcd60e51b815260206004820152601e60248201527f46524f5354207369676e6174757265206d7573742062652073696e676c6500006044820152606490fd5b6001146133f15750505050505f90565b61340b9061ffff60086004889598015492015416906135e1565b925f9260035f9301925b868110156134b8578060051b820135601e19833603018112156125d05782018035906001600160401b0382116125d05760200181360381136125d0576134739161346a91613464913691612928565b856139ab565b909291926139e5565b6001600160a01b03165f9081526020859052604090205460ff1661349a575b600101613415565b936134a490612c61565b938585036134925750505050505050600190565b505050505050505f90565b60405162461bcd60e51b8152602060048201526024808201527f74696d657374616d70206973206f6c646572207468616e2070726576696f75736044820152632065726160e01b6064820152608490fd5b60405162461bcd60e51b815260206004820152601e60248201527f63616e6e6f742076616c6964617465206265666f72652067656e6573697300006044820152606490fd5b939291505042821161357c5761322e92613574575b50613228565b90505f61356e565b60405162461bcd60e51b815260206004820152602160248201527f74696d657374616d702063616e6e6f7420626520696e207468652066757475726044820152606560f81b6064820152608490fd5b506135da601887015485612bca565b4210613208565b61ffff6135ef921690612bd7565b61270f8101809111612a8d57612710900490565b9061360e908261364a565b1561361957600f0190565b60090190565b60ff5f516020613b2b5f395f51905f525460401c161561363b57565b631afcd79f60e31b5f5260045ffd5b906014600e8301549201548083146136ef578181841093119182159111159181906136e8575b15613685578261367f57505090565b14919050565b60405162461bcd60e51b815260206004820152603560248201527f636f756c64206e6f74206964656e746966792076616c696461746f727320666f6044820152740722074686520676976656e2074696d657374616d7605c1b6064820152608490fd5b5081613670565b606460405162461bcd60e51b815260206004820152602060248201527f657261732074696d657374616d70206d757374206e6f7420626520657175616c6044820152fd5b905f194301438111612a8d57805b61374c575b505f9150565b804083810361375d57506001925050565b1561376b575f190180613741565b613746565b35906001600160801b03821682036125d057565b92939194906137938587613a45565b1561393e57821561393e5770014551231950b75fc4402da1732fc9bebe1983101561393e576001169061010e6040519161012083018381106001600160401b038211176125d05760405260883684376002600188160160888401538760898401526002840160a984015360aa830186905260ca8301527e300046524f53542d736563703235366b312d4b454343414b3235362d76316360ea8301526303430b6160e51b61010a830152812060cc820181815290600260ec84016001815360428420809318845253604270014551231950b75fc4402da1732fc9bebe19922060801c6001600160401b0360801b8260801b16179070014551231950b75fc4402da1732fc9bebe1990600160c01b9060401c090880156134b85784601b6080945f9660209870014551231950b75fc4402da1732fc9bebe19910970014551231950b75fc4402da1732fc9bebe19038552018684015280604084015270014551231950b75fc4402da1732fc9bebe19910970014551231950b75fc4402da1732fc9bebe1903606082015282805260015afa156125d0575f51915f5260205260018060a01b0360405f20161490565b5050505050505f90565b6e5af43d82803e903d91602b57fd5bf390763d602d80600a3d3981f3363d3d373d3d3d363d7300000062ffffff8260881c16175f5260781b17602052603760095ff5906001600160a01b0382161561399c57565b63b06ebf3d60e01b5f5260045ffd5b81519190604183036139db576139d49250602082015190606060408401519301515f1a90613a68565b9192909190565b50505f9160029190565b600481101561279c57806139f7575050565b60018103613a0e5763f645eedf60e01b5f5260045ffd5b60028103613a29575063fce698f760e01b5f5260045260245ffd5b600314613a335750565b6335e2f38360e21b5f5260045260245ffd5b6401000003d01990600790829081818009900908906401000003d0199080091490565b91907f7fffffffffffffffffffffffffffffff5d576e7357a4501ddfe92f46681b20a08411613adf579160209360809260ff5f9560405194855216868401526040830152606082015282805260015afa156125c5575f516001600160a01b03811615613ad557905f905f90565b505f906001905f90565b5050505f916003919056fe9016d09d72d40fdae2fd8ceac6b6234c7706214fd39c1cd1e609a0528c1993005c09ca1b9b8127a4fd9f3c384aac59b661441e820e17733753ff5f2e86e1e000f0c57e16840df040f15088dc2f81fe391c3923bec73e23a9662efc9c229c6a00a264697066735822122090ab86dde406bd0e68acd84730a1c5b8ba85c172d73d13c73e24ab3921952a2864736f6c634300081c0033f0c57e16840df040f15088dc2f81fe391c3923bec73e23a9662efc9c229c6a00","linkReferences":{}},"methodIdentifiers":{"areValidators(address[])":"8f381dbe","codeState(bytes32)":"c13911e8","codesStates(bytes32[])":"82bdeaad","commitBatch(((bytes32,uint48,bool)[],(bytes32,uint48,bytes32,bytes32,(address,bytes32,address,uint128,(bytes32,address,uint128)[],(bytes32,address,bytes,uint128,(bytes32,bytes4))[])[])[]),uint8,bytes[])":"dc360d92","commitValidators(((uint256,uint256),bytes,address[],uint256),uint8,bytes[])":"aa54494a","computeSettings()":"84d22a4f","createProgram(bytes32,bytes32)":"527de0f9","createProgramWithDecoder(address,bytes32,bytes32)":"e7006a74","genesisBlockHash()":"28e24b3d","genesisTimestamp()":"cacf66ab","initialize(address,address,address,address,uint256,uint256,uint256,(uint256,uint256),bytes,address[])":"53f7fd48","isValidator(address)":"facd743b","latestCommittedBlockHash()":"c9f16a11","lookupGenesisHash()":"8b1edf1e","mirrorImpl()":"e6fabc09","mirrorProxyImpl()":"65ecfea2","owner()":"8da5cb5b","programCodeId(address)":"9067088e","programsCodeIds(address[])":"baaf0201","programsCount()":"96a2ddfa","reinitialize()":"6c2eb350","renounceOwnership()":"715018a6","requestCodeValidation(bytes32)":"120e3f1e","setMirror(address)":"3d43b418","signingThresholdPercentage()":"efd81abc","transferOwnership(address)":"f2fde38b","validatedCodesCount()":"007a32e7","validators()":"ca1e7819","validatorsAggregatedPublicKey()":"3bd109fa","validatorsCount()":"ed612f8c","validatorsThreshold()":"edc87225","validatorsVerifiableSecretSharingCommitment()":"a5d53a44","wrappedVara()":"88f50cf0"},"storageLayout":{"storage":[],"types":{}},"id":130}