{"abi":[{"type":"constructor","inputs":[],"stateMutability":"nonpayable"},{"type":"function","name":"areValidators","inputs":[{"name":"_validators","type":"address[]","internalType":"address[]"}],"outputs":[{"name":"","type":"bool","internalType":"bool"}],"stateMutability":"view"},{"type":"function","name":"codeState","inputs":[{"name":"_codeId","type":"bytes32","internalType":"bytes32"}],"outputs":[{"name":"","type":"uint8","internalType":"enum Gear.CodeState"}],"stateMutability":"view"},{"type":"function","name":"codesStates","inputs":[{"name":"_codesIds","type":"bytes32[]","internalType":"bytes32[]"}],"outputs":[{"name":"","type":"uint8[]","internalType":"enum Gear.CodeState[]"}],"stateMutability":"view"},{"type":"function","name":"commitBatch","inputs":[{"name":"_batchCommitment","type":"tuple","internalType":"struct Gear.BatchCommitment","components":[{"name":"codeCommitments","type":"tuple[]","internalType":"struct Gear.CodeCommitment[]","components":[{"name":"id","type":"bytes32","internalType":"bytes32"},{"name":"timestamp","type":"uint48","internalType":"uint48"},{"name":"valid","type":"bool","internalType":"bool"}]},{"name":"blockCommitments","type":"tuple[]","internalType":"struct Gear.BlockCommitment[]","components":[{"name":"hash","type":"bytes32","internalType":"bytes32"},{"name":"timestamp","type":"uint48","internalType":"uint48"},{"name":"previousCommittedBlock","type":"bytes32","internalType":"bytes32"},{"name":"predecessorBlock","type":"bytes32","internalType":"bytes32"},{"name":"transitions","type":"tuple[]","internalType":"struct Gear.StateTransition[]","components":[{"name":"actorId","type":"address","internalType":"address"},{"name":"newStateHash","type":"bytes32","internalType":"bytes32"},{"name":"inheritor","type":"address","internalType":"address"},{"name":"valueToReceive","type":"uint128","internalType":"uint128"},{"name":"valueClaims","type":"tuple[]","internalType":"struct Gear.ValueClaim[]","components":[{"name":"messageId","type":"bytes32","internalType":"bytes32"},{"name":"destination","type":"address","internalType":"address"},{"name":"value","type":"uint128","internalType":"uint128"}]},{"name":"messages","type":"tuple[]","internalType":"struct Gear.Message[]","components":[{"name":"id","type":"bytes32","internalType":"bytes32"},{"name":"destination","type":"address","internalType":"address"},{"name":"payload","type":"bytes","internalType":"bytes"},{"name":"value","type":"uint128","internalType":"uint128"},{"name":"replyDetails","type":"tuple","internalType":"struct Gear.ReplyDetails","components":[{"name":"to","type":"bytes32","internalType":"bytes32"},{"name":"code","type":"bytes4","internalType":"bytes4"}]}]}]}]}]},{"name":"_signatureType","type":"uint8","internalType":"enum Gear.SignatureType"},{"name":"_signatures","type":"bytes[]","internalType":"bytes[]"}],"outputs":[],"stateMutability":"nonpayable"},{"type":"function","name":"commitValidators","inputs":[{"name":"_validatorsCommitment","type":"tuple","internalType":"struct Gear.ValidatorsCommitment","components":[{"name":"aggregatedPublicKey","type":"tuple","internalType":"struct Gear.AggregatedPublicKey","components":[{"name":"x","type":"uint256","internalType":"uint256"},{"name":"y","type":"uint256","internalType":"uint256"}]},{"name":"verifyingShares","type":"tuple[]","internalType":"struct Gear.VerifyingShare[]","components":[{"name":"x","type":"uint256","internalType":"uint256"},{"name":"y","type":"uint256","internalType":"uint256"}]},{"name":"validators","type":"address[]","internalType":"address[]"},{"name":"eraIndex","type":"uint256","internalType":"uint256"}]},{"name":"_signatureType","type":"uint8","internalType":"enum Gear.SignatureType"},{"name":"_signatures","type":"bytes[]","internalType":"bytes[]"}],"outputs":[],"stateMutability":"nonpayable"},{"type":"function","name":"computeSettings","inputs":[],"outputs":[{"name":"","type":"tuple","internalType":"struct Gear.ComputationSettings","components":[{"name":"threshold","type":"uint64","internalType":"uint64"},{"name":"wvaraPerSecond","type":"uint128","internalType":"uint128"}]}],"stateMutability":"view"},{"type":"function","name":"createProgram","inputs":[{"name":"_codeId","type":"bytes32","internalType":"bytes32"},{"name":"_salt","type":"bytes32","internalType":"bytes32"}],"outputs":[{"name":"","type":"address","internalType":"address"}],"stateMutability":"nonpayable"},{"type":"function","name":"createProgramWithDecoder","inputs":[{"name":"_decoderImpl","type":"address","internalType":"address"},{"name":"_codeId","type":"bytes32","internalType":"bytes32"},{"name":"_salt","type":"bytes32","internalType":"bytes32"}],"outputs":[{"name":"","type":"address","internalType":"address"}],"stateMutability":"nonpayable"},{"type":"function","name":"genesisBlockHash","inputs":[],"outputs":[{"name":"","type":"bytes32","internalType":"bytes32"}],"stateMutability":"view"},{"type":"function","name":"genesisTimestamp","inputs":[],"outputs":[{"name":"","type":"uint48","internalType":"uint48"}],"stateMutability":"view"},{"type":"function","name":"initialize","inputs":[{"name":"_owner","type":"address","internalType":"address"},{"name":"_mirror","type":"address","internalType":"address"},{"name":"_mirrorProxy","type":"address","internalType":"address"},{"name":"_wrappedVara","type":"address","internalType":"address"},{"name":"_eraDuration","type":"uint256","internalType":"uint256"},{"name":"_electionDuration","type":"uint256","internalType":"uint256"},{"name":"_validationDelay","type":"uint256","internalType":"uint256"},{"name":"_aggregatedPublicKey","type":"tuple","internalType":"struct Gear.AggregatedPublicKey","components":[{"name":"x","type":"uint256","internalType":"uint256"},{"name":"y","type":"uint256","internalType":"uint256"}]},{"name":"_verifyingShares","type":"tuple[]","internalType":"struct Gear.VerifyingShare[]","components":[{"name":"x","type":"uint256","internalType":"uint256"},{"name":"y","type":"uint256","internalType":"uint256"}]},{"name":"_validators","type":"address[]","internalType":"address[]"}],"outputs":[],"stateMutability":"nonpayable"},{"type":"function","name":"isValidator","inputs":[{"name":"_validator","type":"address","internalType":"address"}],"outputs":[{"name":"","type":"bool","internalType":"bool"}],"stateMutability":"view"},{"type":"function","name":"latestCommittedBlockHash","inputs":[],"outputs":[{"name":"","type":"bytes32","internalType":"bytes32"}],"stateMutability":"view"},{"type":"function","name":"lookupGenesisHash","inputs":[],"outputs":[],"stateMutability":"nonpayable"},{"type":"function","name":"mirrorImpl","inputs":[],"outputs":[{"name":"","type":"address","internalType":"address"}],"stateMutability":"view"},{"type":"function","name":"mirrorProxyImpl","inputs":[],"outputs":[{"name":"","type":"address","internalType":"address"}],"stateMutability":"view"},{"type":"function","name":"owner","inputs":[],"outputs":[{"name":"","type":"address","internalType":"address"}],"stateMutability":"view"},{"type":"function","name":"programCodeId","inputs":[{"name":"_programId","type":"address","internalType":"address"}],"outputs":[{"name":"","type":"bytes32","internalType":"bytes32"}],"stateMutability":"view"},{"type":"function","name":"programsCodeIds","inputs":[{"name":"_programsIds","type":"address[]","internalType":"address[]"}],"outputs":[{"name":"","type":"bytes32[]","internalType":"bytes32[]"}],"stateMutability":"view"},{"type":"function","name":"programsCount","inputs":[],"outputs":[{"name":"","type":"uint256","internalType":"uint256"}],"stateMutability":"view"},{"type":"function","name":"reinitialize","inputs":[],"outputs":[],"stateMutability":"nonpayable"},{"type":"function","name":"renounceOwnership","inputs":[],"outputs":[],"stateMutability":"nonpayable"},{"type":"function","name":"requestCodeValidation","inputs":[{"name":"_codeId","type":"bytes32","internalType":"bytes32"}],"outputs":[],"stateMutability":"nonpayable"},{"type":"function","name":"setMirror","inputs":[{"name":"newMirror","type":"address","internalType":"address"}],"outputs":[],"stateMutability":"nonpayable"},{"type":"function","name":"signingThresholdPercentage","inputs":[],"outputs":[{"name":"","type":"uint16","internalType":"uint16"}],"stateMutability":"view"},{"type":"function","name":"transferOwnership","inputs":[{"name":"newOwner","type":"address","internalType":"address"}],"outputs":[],"stateMutability":"nonpayable"},{"type":"function","name":"validatedCodesCount","inputs":[],"outputs":[{"name":"","type":"uint256","internalType":"uint256"}],"stateMutability":"view"},{"type":"function","name":"validators","inputs":[],"outputs":[{"name":"","type":"address[]","internalType":"address[]"}],"stateMutability":"view"},{"type":"function","name":"validatorsAggregatedPublicKey","inputs":[],"outputs":[{"name":"","type":"tuple","internalType":"struct Gear.AggregatedPublicKey","components":[{"name":"x","type":"uint256","internalType":"uint256"},{"name":"y","type":"uint256","internalType":"uint256"}]}],"stateMutability":"view"},{"type":"function","name":"validatorsCount","inputs":[],"outputs":[{"name":"","type":"uint256","internalType":"uint256"}],"stateMutability":"view"},{"type":"function","name":"validatorsThreshold","inputs":[],"outputs":[{"name":"","type":"uint256","internalType":"uint256"}],"stateMutability":"view"},{"type":"function","name":"validatorsVerifyingShares","inputs":[],"outputs":[{"name":"","type":"tuple[]","internalType":"struct Gear.VerifyingShare[]","components":[{"name":"x","type":"uint256","internalType":"uint256"},{"name":"y","type":"uint256","internalType":"uint256"}]}],"stateMutability":"view"},{"type":"function","name":"wrappedVara","inputs":[],"outputs":[{"name":"","type":"address","internalType":"address"}],"stateMutability":"view"},{"type":"event","name":"BlockCommitted","inputs":[{"name":"hash","type":"bytes32","indexed":false,"internalType":"bytes32"}],"anonymous":false},{"type":"event","name":"CodeGotValidated","inputs":[{"name":"codeId","type":"bytes32","indexed":false,"internalType":"bytes32"},{"name":"valid","type":"bool","indexed":true,"internalType":"bool"}],"anonymous":false},{"type":"event","name":"CodeValidationRequested","inputs":[{"name":"codeId","type":"bytes32","indexed":false,"internalType":"bytes32"}],"anonymous":false},{"type":"event","name":"ComputationSettingsChanged","inputs":[{"name":"threshold","type":"uint64","indexed":false,"internalType":"uint64"},{"name":"wvaraPerSecond","type":"uint128","indexed":false,"internalType":"uint128"}],"anonymous":false},{"type":"event","name":"Initialized","inputs":[{"name":"version","type":"uint64","indexed":false,"internalType":"uint64"}],"anonymous":false},{"type":"event","name":"NextEraValidatorsCommitted","inputs":[{"name":"startTimestamp","type":"uint256","indexed":false,"internalType":"uint256"}],"anonymous":false},{"type":"event","name":"OwnershipTransferred","inputs":[{"name":"previousOwner","type":"address","indexed":true,"internalType":"address"},{"name":"newOwner","type":"address","indexed":true,"internalType":"address"}],"anonymous":false},{"type":"event","name":"ProgramCreated","inputs":[{"name":"actorId","type":"address","indexed":false,"internalType":"address"},{"name":"codeId","type":"bytes32","indexed":true,"internalType":"bytes32"}],"anonymous":false},{"type":"event","name":"StorageSlotChanged","inputs":[],"anonymous":false},{"type":"error","name":"ECDSAInvalidSignature","inputs":[]},{"type":"error","name":"ECDSAInvalidSignatureLength","inputs":[{"name":"length","type":"uint256","internalType":"uint256"}]},{"type":"error","name":"ECDSAInvalidSignatureS","inputs":[{"name":"s","type":"bytes32","internalType":"bytes32"}]},{"type":"error","name":"FailedDeployment","inputs":[]},{"type":"error","name":"InsufficientBalance","inputs":[{"name":"balance","type":"uint256","internalType":"uint256"},{"name":"needed","type":"uint256","internalType":"uint256"}]},{"type":"error","name":"InvalidInitialization","inputs":[]},{"type":"error","name":"NotInitializing","inputs":[]},{"type":"error","name":"OwnableInvalidOwner","inputs":[{"name":"owner","type":"address","internalType":"address"}]},{"type":"error","name":"OwnableUnauthorizedAccount","inputs":[{"name":"account","type":"address","internalType":"address"}]},{"type":"error","name":"ReentrancyGuardReentrantCall","inputs":[]}],"bytecode":{"object":"0x6080806040523460aa575f516020613dd55f395f51905f525460ff8160401c16609b576002600160401b03196001600160401b038216016049575b604051613d2690816100af8239f35b6001600160401b0319166001600160401b039081175f516020613dd55f395f51905f525581527fc7f505b2f371ae2175ee4913f4499e1f2633a7b5936321eed1cdaeb6115181d290602090a15f80603a565b63f92ee8a960e01b5f5260045ffd5b5f80fdfe6101a0806040526004361015610013575f80fd5b5f610180525f3560e01c9081627a32e714612884575080630d9078b11461243d578063120e3f1e146122b257806328e24b3d14612285578063389e757914611d095780633bd109fa14611cbb5780633d43b41814611c69578063527de0f914611bdb57806365ecfea214611ba05780636c2eb35014611871578063715018a6146117ff5780637b4dda971461177557806382bdeaad1461166457806384d22a4f146115f957806388f50cf0146115be5780638b1edf1e146114ed5780638da5cb5b146114b65780638f381dbe146114715780639067088e1461142957806396a2ddfa146113f9578063baaf0201146112f8578063c13911e8146112ae578063c9f16a111461127e578063ca1e7819146111f7578063cacf66ab146111bd578063dc360d921461043a578063e6fabc09146103ff578063e7006a74146102d4578063ed612f8c1461029a578063edc872251461024e578063efd81abc1461021a578063f2fde38b146101ea5763facd743b1461018c575f80fd5b346101e35760203660031901126101e3576101a56128de565b60036101c05f516020613cb15f395f51905f525442906138e0565b019060018060a01b03165f52602052602060ff60405f2054166040519015158152f35b6101805180fd5b346101e35760203660031901126101e3576102136102066128de565b61020e6131b3565b612d71565b6101805180f35b346101e357610180513660031901126101e357602061ffff60085f516020613cb15f395f51905f5254015416604051908152f35b346101e357610180513660031901126101e35760206102925f516020613cb15f395f51905f525461ffff6008600461028642856138e0565b01549201541690613787565b604051908152f35b346101e357610180513660031901126101e357602060046102ca5f516020613cb15f395f51905f525442906138e0565b0154604051908152f35b346101e35760603660031901126101e3576102ed6128de565b602435906103356044359161030283856131e6565b936040519360208501918252604085015260408452610322606085612a08565b92519092206001600160a01b0392613b11565b16803b156101e35760405163189acdbd60e31b81526001600160a01b0390921660048301819052610180519092908160248183865af180156103d6576103e4575b50813b156101e35760405163485cc95560e01b81523360048201526024810191909152610180518160448183865af180156103d6576103bb575b602082604051908152f35b610180516103c891612a08565b610180516101e357816103b0565b6040513d61018051823e3d90fd5b610180516103f191612a08565b610180516101e35782610376565b346101e357610180513660031901126101e3575f516020613cb15f395f51905f5254600501546040516001600160a01b039091168152602090f35b346101e35760603660031901126101e3576004356001600160401b0381116101e357604060031982360301126101e357600260243510156101e3576044356001600160401b0381116101e3576104949036906004016128ae565b917f9b779b17422d0df92223018b32b4d1fa46e071723d6817e2486d003becc55f005c6111a85760017f9b779b17422d0df92223018b32b4d1fa46e071723d6817e2486d003becc55f005d5f516020613cb15f395f51905f52546101405261050460016101405101541515612915565b6105116004820180612ce1565b9050158061118f575b61114a576101805160c081905261014051601901939290919060605b6105436004840180612ce1565b9050841015610786576105596004840180612ce1565b85101561076c576060850201938435948561018051528760205260ff6040610180512054166003811015610752576001036106ef57604081019261059c84612d16565b156106d157610180805188905260208a90525160409020805460ff1916600217905561014051601c0180546105d090612d23565b90555b6105dc84612d16565b15157f460119a8f69a33ed127de517d5ea464e958ce23ef19e4420a8b92bf780bbc2c960206040518a8152a26060823603126101e357602060405192610621846129d2565b888452019687359465ffffffffffff861686036101e35785602085015235948515158087036101e3576001966040610694960152604051916020830193845265ffffffffffff60d01b9060d01b16604083015260f81b60468201526027815261068b604782612a08565b51902090612d31565b9460c05165ffffffffffff6106a883612d5e565b16116106b7575b500192610536565b6106c765ffffffffffff91612d5e565b1660c052876106af565b866101805152886020526040610180512060ff1981541690556105d3565b60405162461bcd60e51b815260206004820152603560248201527f636f6465206d7573742062652072657175657374656420666f722076616c6964604482015274185d1a5bdb881d1bc818994818dbdb5b5a5d1d1959605a1b6064820152608490fd5b634e487b7160e01b61018051526021600452602461018051fd5b634e487b7160e01b61018051526032600452602461018051fd5b61018051606060a05261012052849290915b6107a86024830183600401612b15565b9050610120511015611087576107c46024830183600401612b15565b906101005261012051101561076c576101205160051b61010051013560e052609e196101005136030160e05112156101e3576003610140510154604060e051610100510101350361103457610140515415610fc8575b602061082e8160e051610100510101612d5e565b65ffffffffffff60405191610842836129ed565b60e051610100510135835216918291015260e051610100510135600361014051015565ffffffffffff19600461014051015416176004610140510155610899608060e05161010051010160e0516101005101612b15565b61016091909152610180516080529360605b856080511015610eaa57610180515060be196101605136030160805160051b61016051013512156101e3576108ef60805160051b6101605101356101605101612c61565b6001600160a01b03165f90815261014051601a01602052604090205415610e4d5760018060a01b0360076101405101541661093960805160051b6101605101356101605101612c61565b606060805160051b610160510135610160510101356001600160801b03811681036101e35760405163a9059cbb60e01b81526001600160a01b0390921660048301526001600160801b03166024820152610180519091602091839160449183915af180156103d657610e14575b5060018060a01b036109c760805160051b6101605101356101605101612c61565b1690604051916309ed323560e41b83526020600484015260e4830160018060a01b03610a0260805160051b61016051013561016051016128f4565b166024850152608080516101608051600592831b81013501602001356044880152915191516001600160a01b0392610a41921b810135016040016128f4565b1660648501526001600160801b03610a6b606060805160051b610160510135610160510101613939565b166084850152608080516101605160059190911b8101350190810135903603601e19018112156101e35760805160051b61016051013561016051010160208101916001600160401b038235116101e3576060823502360383136101e35760c060a48701528135905261018051610104860192915b80358210610dca5750506080516101605160059190911b8101350160a08101359291503603601e19018212156101e3576001600160401b0360805160051b6101605101356101605101830135116101e35760805161016051600591821b810135018301803590911b90368290036020909101136101e3579185926023198484030160c485015260805160051b6101605101356101605101820135835260208084019184010192602060805160051b61016051013561016051018401019261018051915b60805160051b61016051013561016051018201358310610c2e575050505050918180602094039161018051905af19081156103d6576101805191610bf9575b610beb9250612d31565b6080805160010190526108ab565b90506020823d8211610c26575b81610c1360209383612a08565b810103126101e357610beb915190610be1565b3d9150610c06565b919395509193601f1982820301855285359060de1960805160051b610160510135610160510185013603018212156101e357608080516101608051600592831b8101350187018501602001358452915191516001600160a01b0392610c9e921b81013501860184016040016128f4565b16602082015260805161016051606060059290921b810135018501830190810135903603603e19018112156101e35760209060805160051b6101605101356101605101860184010101916001600160401b038335116101e3578235360360208401136101e35760c09081604084015283358284015283356020850160e08501376101805160e08535850101526001600160801b03610d516080805160051b61016051013561016051018901840101613939565b16606084015260a060805160051b6101605101356101605101870182010135608084015260805160051b610160510135610160510186010101359163ffffffff60e01b83168093036101e35760a082019290925289969135601f01601f19160160e0019460209182019491019260019190910191610ba2565b90919260608060019286358152838060a01b03610de9602089016128f4565b1660208201526001600160801b03610e0360408901613939565b166040820152019401920190610adf565b6020813d8211610e45575b81610e2c60209383612a08565b810103126101e3575180151581146109a6576101805180fd5b3d9150610e1f565b60405162461bcd60e51b815260206004820152602f60248201527f636f756c646e277420706572666f726d207472616e736974696f6e20666f722060448201526e756e6b6e6f776e2070726f6772616d60881b6064820152608490fd5b610f6a91939550939193602081519101207fd756eca21e02cb0dbde1e44a4d9c6921b5c8aa4668cfa0752784b3dc855bce1e602060405160e0516101005101358152a1610f00602060e051610100510101612d5e565b9060405190602082019260e051610100510135845265ffffffffffff60d01b9060d01b166040830152604060e051610100510101356046830152606060e051610100510101356066830152608682015260868152610f5f60a682612a08565b51902060a051612d31565b60a05260c05165ffffffffffff610f8a602060e051610100510101612d5e565b1611610fa5575b600161012051016101205291929092610798565b65ffffffffffff610fbf602060e051610100510101612d5e565b1660c052610f91565b610fdc606060e051610100510101356138fc565b61081a5760405162461bcd60e51b815260206004820152602660248201527f616c6c6f776564207072656465636573736f7220626c6f636b207761736e277460448201526508199bdd5b9960d21b6064820152608490fd5b60405162461bcd60e51b815260206004820152602560248201527f696e76616c69642070726576696f757320636f6d6d697474656420626c6f636b604482015264040d0c2e6d60db1b6064820152608490fd5b6110d3908484602081519101209160a05151602060a051012060405190602082019485526040820152604081526110bf606082612a08565b60c051936024359151902061014051613362565b1561110557610180517f9b779b17422d0df92223018b32b4d1fa46e071723d6817e2486d003becc55f005d6101805180f35b60405162461bcd60e51b815260206004820152601e60248201527f7369676e61747572657320766572696669636174696f6e206661696c656400006044820152606490fd5b60405162461bcd60e51b815260206004820152601860248201527f6e6f20636f6d6d69746d656e747320746f20636f6d6d697400000000000000006044820152606490fd5b506111a06024820182600401612b15565b90501561051a565b633ee5aeb560e01b6101805152600461018051fd5b346101e357610180513660031901126101e357602065ffffffffffff60025f516020613cb15f395f51905f52540154821c16604051908152f35b346101e357610180513660031901126101e35761122e60046112285f516020613cb15f395f51905f525442906138e0565b01612bd6565b604051809160208201602083528151809152602060408401920190610180515b81811061125c575050500390f35b82516001600160a01b031684528594506020938401939092019160010161124e565b346101e357610180513660031901126101e357602060035f516020613cb15f395f51905f52540154604051908152f35b346101e35760203660031901126101e35760195f516020613cb15f395f51905f5254016004356101805152602052602060ff6040610180512054166112f66040518092612908565bf35b346101e35760203660031901126101e3576004356001600160401b0381116101e3576113289036906004016128ae565b5f516020613cb15f395f51905f52549161134182612a51565b9261134f6040519485612a08565b82845261135b83612a51565b602085019390601f1901368537601a610180519201915b8181106113c057848660405191829160208301906020845251809152604083019190610180515b8181106113a7575050500390f35b8251845285945060209384019390920191600101611399565b806113d66113d16001938588612c29565b612c61565b828060a01b03165f528360205260405f20546113f28289612c4d565b5201611372565b346101e357610180513660031901126101e3576020601b5f516020613cb15f395f51905f52540154604051908152f35b346101e35760203660031901126101e3576114426128de565b601a5f516020613cb15f395f51905f5254019060018060a01b03165f52602052602060405f2054604051908152f35b346101e35760203660031901126101e3576004356001600160401b0381116101e3576114ac6114a660209236906004016128ae565b90612c75565b6040519015158152f35b346101e357610180513660031901126101e3575f516020613c915f395f51905f52546040516001600160a01b039091168152602090f35b346101e357610180513660031901126101e3575f516020613cb15f395f51905f525460018101908154611579576002015463ffffffff164090811561153457556101805180f35b60405162461bcd60e51b815260206004820152601d60248201527f756e61626c6520746f206c6f6f6b75702067656e6573697320686173680000006044820152606490fd5b60405162461bcd60e51b815260206004820152601860248201527f67656e65736973206861736820616c72656164792073657400000000000000006044820152606490fd5b346101e357610180513660031901126101e3575f516020613cb15f395f51905f5254600701546040516001600160a01b039091168152602090f35b346101e357610180513660031901126101e357611614612b4a565b50604060155f516020613cb15f395f51905f5254016001600160801b0382519161163d836129ed565b548160206001600160401b038316948581520191851c168152835192835251166020820152f35b346101e35760203660031901126101e3576004356001600160401b0381116101e3576116949036906004016128ae565b5f516020613cb15f395f51905f5254916116ad82612a51565b926116bb6040519485612a08565b8284526116c783612a51565b602085019390601f19013685376019610180519201915b81811061173657848660405191829160208301906020845251809152604083019190610180515b818110611713575050500390f35b91935091602080826117286001948851612908565b019401910191849392611705565b611741818386612c29565b3561018051528260205260ff604061018051205416906117618188612c4d565b9160038110156107525760019252016116de565b346101e357610180513660031901126101e3576117ac60026117a65f516020613cb15f395f51905f525442906138e0565b01612b80565b604051809160208201602083528151809152602060408401920190610180515b8181106117da575050500390f35b82518051855260209081015181860152869550604090940193909201916001016117cc565b346101e357610180513660031901126101e35761181a6131b3565b5f516020613c915f395f51905f5280546001600160a01b0319811690915561018051906001600160a01b03167f8be0079c531659141344cd1fd0a4f28419497f9722a3daafe3b4186f6b6457e08280a36101805180f35b346101e357610180513660031901126101e35761188c6131b3565b5f516020613cd15f395f51905f525460ff8160401c168015611b8c575b611b775768ffffffffffffffffff191668010000000000000002175f516020613cd15f395f51905f52555f516020613cb15f395f51905f5254604080516118f08282612a08565b6017815260208101907f726f757465722e73746f726167652e526f75746572563200000000000000000082526119246131b3565b5190205f19810191908211611b5d577fc7f505b2f371ae2175ee4913f4499e1f2633a7b5936321eed1cdaeb6115181d29260209282519084820190815284825261196e8483612a08565b60ff19915190201690815f516020613cb15f395f51905f525561198f61316e565b80516001840155600283019063ffffffff868201511669ffffffffffff00000000868454930151881b169169ffffffffffffffffffff191617179055600581016005830190808203611b0f575b505061ffff600882015416600883019061ffff19825416179055611a43611a0342836138e0565b6002611a0f42856138e0565b01611a2f611a296004611a2242886138e0565b0193612b62565b91612b80565b611a394293612bd6565b9160098601612e58565b601581016015830190808203611abd575b5050601681016016830191818303611a9d575b5050505060ff60401b195f516020613cd15f395f51905f5254165f516020613cd15f395f51905f52555160028152a16101805180f35b601892839254905560178101546017850155015491015583808080611a67565b806001600160401b03806001600160801b03935416166001600160401b031984541617835554851c16600160401b600160c01b03825491861b1690600160401b600160c01b0319161790558580611a54565b5481546001600160a01b03199081166001600160a01b0392831617909255600683810154908501805484169183169190911790556007808401549085018054909316911617905585806119dc565b634e487b7160e01b61018051526011600452602461018051fd5b63f92ee8a960e01b6101805152600461018051fd5b5060026001600160401b03821610156118a9565b346101e357610180513660031901126101e3575f516020613cb15f395f51905f5254600601546040516001600160a01b039091168152602090f35b34611c65576040366003190112611c65576001600160a01b03611c026024356004356131e6565b16803b15611c65576040519063485cc95560e01b82523360048301525f60248301525f8260448183855af1918215611c5a57602092611c45575b50604051908152f35b5f611c4f91612a08565b5f6101805282611c3c565b6040513d5f823e3d90fd5b5f80fd5b34611c65576020366003190112611c6557611c826128de565b611c8a6131b3565b5f516020613cb15f395f51905f525460050180546001600160a01b0319166001600160a01b03909216919091179055005b34611c65575f366003190112611c6557611cd3612b4a565b506040611cf7611cf25f516020613cb15f395f51905f525442906138e0565b612b62565b60208251918051835201516020820152f35b34611c6557610160366003190112611c6557611d236128de565b6024356001600160a01b0381169190829003611c65576044356001600160a01b0381169290839003611c65576064356001600160a01b03811690819003611c65576084359160a43560c43595604060e319360112611c655761012435916001600160401b038311611c655736602384011215611c65578260040135916001600160401b038311611c65573660248460061b86010111611c6557610144356001600160401b038111611c6557611ddc9036906004016128ae565b9690945f516020613cd15f395f51905f525460ff8160401c16159a6001600160401b0382168015908161227d575b6001149081612273575b15908161226a575b5061225b5767ffffffffffffffff1982166001175f516020613cd15f395f51905f5255611e5a918c61222f575b50611e526138b5565b61020e6138b5565b42156121d9578315612183578389111561212257600a611e7a858b612987565b048b10156120dd5760409a8b51611e918d82612a08565b6017815260208101907f726f757465722e73746f726167652e526f7574657256310000000000000000008252611ec56131b3565b5190205f198101959086116120c9576120729a828e6120619661206b98600660099b8451906020820190815260208252611eff8683612a08565b60ff1991519020169e8f90815f516020613cb15f395f51905f5255611f2261316e565b80516001840155600283019063ffffffff60208201511669ffffffffffff0000000089845493015160201b169169ffffffffffffffffffff19161717905584868051611f6d816129d2565b8381526020810187905201526005820180546001600160a01b03199081166001600160a01b039384161790915592909101805483169382169390931790925560078f0180549091169290911691909117905560088c01805461ffff1916611a0a179055611fd8612b4a565b506509184e72a00060208251611fed816129ed565b639502f9008152015260158c0180546001600160c01b0319166d09184e72a000000000009502f9001790558051612023816129d2565b838152846020820152015260168a0155601789015560188801558a5194612049866129ed565b60e43586526101043560208701526024369201612a68565b9342963691612ac1565b9301612e58565b61207857005b60207fc7f505b2f371ae2175ee4913f4499e1f2633a7b5936321eed1cdaeb6115181d29160ff60401b195f516020613cd15f395f51905f5254165f516020613cd15f395f51905f52555160018152a1005b634e487b7160e01b5f52601160045260245ffd5b60405162461bcd60e51b815260206004820152601b60248201527f76616c69646174696f6e2064656c617920697320746f6f2062696700000000006044820152606490fd5b60405162461bcd60e51b815260206004820152603360248201527f657261206475726174696f6e206d757374206265206772656174657220746861604482015272371032b632b1ba34b7b710323ab930ba34b7b760691b6064820152608490fd5b60405162461bcd60e51b815260206004820152602860248201527f656c656374696f6e206475726174696f6e206d75737420626520677265617465604482015267072207468616e20360c41b6064820152608490fd5b60405162461bcd60e51b815260206004820152602860248201527f63757272656e742074696d657374616d70206d75737420626520677265617465604482015267072207468616e20360c41b6064820152608490fd5b68ffffffffffffffffff191668010000000000000001175f516020613cd15f395f51905f52558d611e49565b63f92ee8a960e01b5f5260045ffd5b9050158e611e1c565b303b159150611e14565b8d9150611e0a565b34611c65575f366003190112611c6557602060015f516020613cb15f395f51905f52540154604051908152f35b34611c65576020366003190112611c65576004355f49156123c15760195f516020613cb15f395f51905f52546122ed60018201541515612915565b01815f528060205260ff60405f20541660038110156123ad5761234c57816020917f5c261a095dd5720475295dc06379921c003c22164ee6cae5cf83e76ce0a1b985935f52825260405f20600160ff19825416179055604051908152a1005b60405162461bcd60e51b815260206004820152603360248201527f676976656e20636f646520696420697320616c7265616479206f6e2076616c6960448201527219185d1a5bdb881bdc881d985b1a59185d1959606a1b6064820152608490fd5b634e487b7160e01b5f52602160045260245ffd5b60405162461bcd60e51b815260206004820152604860248201527f626c6f622063616e277420626520666f756e642c20726f75746572206578706560448201527f63746564204549502d34383434207472616e73616374696f6e2077697468205760648201526720a9a690313637b160c11b608482015260a490fd5b34611c65576060366003190112611c65576004356001600160401b038111611c6557368190036004820160a0600319830112611c6557602435906002821015611c65576044356001600160401b038111611c655761249f9036906004016128ae565b5f516020613cb15f395f51905f5292919254936124c160018601541515612915565b65ffffffffffff600286015460201c16956124dc8742612987565b6124eb60168801548092612994565b9760848a013598600181018091116120c957890361282c5761251089612516936129bf565b906129b2565b95612525601782015488612987565b42106127e75761253481612de2565b9342600586015410156127875760405196608088018881106001600160401b03821117612773576040526125683688612a29565b885260448b0135946001600160401b038611611c6557858c01983660238b011215611c655760048a01359b6024909a01998d6125a5368f8e612a68565b60208401526064019d8e35906001600160401b038211611c65570136602382011215611c65576125df903690602460048201359101612ac1565b9182604082015281606082015251916020835193015191604051926020840194855260408401526060830160208351919301905f5b818110612754575050506020838361263c936126659b9a999897969552038084520182612a08565b5190209360405194602086019081526020865261265a604087612a08565b429551902090613362565b156126f457602219011315611c65576001600160401b038511611c65578460061b36038313611c65576126d56020956126e5846126dd6126eb976126cb7f41e7f919bf726af8aa2ef36bd31905a693013e30c45c6284060e613d4941997b9c8b99612b15565b9690933690612a29565b943691612a68565b933691612ac1565b92612e58565b604051908152a1005b60405162461bcd60e51b815260206004820152603260248201527f6e657874206572612076616c696461746f7273207369676e6174757265732076604482015271195c9a599a58d85d1a5bdb8819985a5b195960721b6064820152608490fd5b82516001600160a01b0316855260209485019490920191600101612614565b634e487b7160e01b5f52604160045260245ffd5b60405162461bcd60e51b815260206004820152603260248201527f6c6f6f6b73206c696b652076616c696461746f727320666f72206e65787420656044820152711c9848185c9948185b1c9958591e481cd95d60721b6064820152608490fd5b60405162461bcd60e51b815260206004820152601b60248201527f656c656374696f6e206973206e6f7420796574207374617274656400000000006044820152606490fd5b60405162461bcd60e51b815260206004820152602a60248201527f636f6d6d69746d656e742065726120696e646578206973206e6f74206e657874604482015269040cae4c240d2dcc8caf60b31b6064820152608490fd5b34611c65575f366003190112611c6557602090601c5f516020613cb15f395f51905f525401548152f35b9181601f84011215611c65578235916001600160401b038311611c65576020808501948460051b010111611c6557565b600435906001600160a01b0382168203611c6557565b35906001600160a01b0382168203611c6557565b9060038210156123ad5752565b1561291c57565b60405162461bcd60e51b815260206004820152603860248201527f726f757465722067656e65736973206973207a65726f3b2063616c6c20606c6f60448201527f6f6b757047656e657369734861736828296020666972737400000000000000006064820152608490fd5b919082039182116120c957565b811561299e570490565b634e487b7160e01b5f52601260045260245ffd5b919082018092116120c957565b818102929181159184041417156120c957565b606081019081106001600160401b0382111761277357604052565b604081019081106001600160401b0382111761277357604052565b90601f801991011681019081106001600160401b0382111761277357604052565b9190826040910312611c6557604051612a41816129ed565b6020808294803584520135910152565b6001600160401b0381116127735760051b60200190565b90929192612a7581612a51565b93612a836040519586612a08565b602085838152019160061b830192818411611c6557915b838310612aa75750505050565b6020604091612ab68486612a29565b815201920191612a9a565b929190612acd81612a51565b93612adb6040519586612a08565b602085838152019160051b8101928311611c6557905b828210612afd57505050565b60208091612b0a846128f4565b815201910190612af1565b903590601e1981360301821215611c6557018035906001600160401b038211611c6557602001918160051b36038313611c6557565b60405190612b57826129ed565b5f6020838281520152565b90604051612b6f816129ed565b602060018294805484520154910152565b908154612b8c81612a51565b92612b9a6040519485612a08565b81845260208401905f5260205f205f915b838310612bb85750505050565b60026020600192612bc885612b62565b815201920192019190612bab565b90604051918281549182825260208201905f5260205f20925f5b818110612c07575050612c0592500383612a08565b565b84546001600160a01b0316835260019485019487945060209093019201612bf0565b9190811015612c395760051b0190565b634e487b7160e01b5f52603260045260245ffd5b8051821015612c395760209160051b010190565b356001600160a01b0381168103611c655790565b612c8e5f516020613cb15f395f51905f525442906138e0565b600301905f5b838110612ca45750505050600190565b612cb26113d1828685612c29565b6001600160a01b03165f9081526020849052604090205460ff1615612cd957600101612c94565b505050505f90565b903590601e1981360301821215611c6557018035906001600160401b038211611c6557602001916060820236038313611c6557565b358015158103611c655790565b5f1981146120c95760010190565b602080612c05928195946040519682889351918291018585015e8201908382015203018085520183612a08565b3565ffffffffffff81168103611c655790565b6001600160a01b03168015612dcf575f516020613c915f395f51905f5280546001600160a01b0319811683179091556001600160a01b03167f8be0079c531659141344cd1fd0a4f28419497f9722a3daafe3b4186f6b6457e05f80a3565b631e4fbdf760e01b5f525f60045260245ffd5b612dec42826137a9565b15612df75760090190565b600f0190565b15612e0457565b60405162461bcd60e51b815260206004820152602660248201527f46524f53542061676772656761746564207075626c6963206b657920697320696044820152651b9d985b1a5960d21b6064820152608490fd5b90612e9f90959395949294612e908151602083015170014551231950b75fc4402da1732fc9bebe198210918261315d575b5050612dfd565b80518355602001516001830155565b83518551036130f2575f5b8451811015612f2057612ece612ec08287612c4d565b516020815191015190613892565b15612edb57600101612eaa565b60405162461bcd60e51b815260206004820152601f60248201527f766572696679696e67207368617265206973206e6f74206f6e206375727665006044820152606490fd5b509193909260028301815191600160401b83116127735781548383558084106130a0575b50602001905f5260205f205f915b83831061307657505050505f5b600483018054821015612f9d575f90815260208082208301546001600160a01b0316825260038501905260409020805460ff19169055600101612f5f565b5050925f5b8451811015612fe6576001906001600160a01b03612fc08288612c4d565b5116828060a01b03165f526003840160205260405f208260ff1982541617905501612fa2565b5092600482018151916001600160401b03831161277357600160401b8311612773578154838355808410613050575b50602001905f5260205f205f5b838110613033575050505060050155565b82516001600160a01b031681830155602090920191600101613022565b825f528360205f2091820191015b81811061306b5750613015565b5f815560010161305e565b60026020826130946001945186906020600191805184550151910155565b01920192019190612f52565b6001600160ff1b03811681036120c9576001600160ff1b03841684036120c957825f5260205f209060011b8101908460011b015b8181106130e15750612f44565b5f80825560018201556002016130d4565b60405162461bcd60e51b815260206004820152603860248201527f766572696679696e672073686172657320636f756e74206d757374206265206560448201527f7175616c20746f2076616c696461746f727320636f756e7400000000000000006064820152608490fd5b6131679250613892565b5f80612e89565b5f6040805161317c816129d2565b8281528260208201520152604051613193816129d2565b5f815263ffffffff4316602082015265ffffffffffff4216604082015290565b5f516020613c915f395f51905f52546001600160a01b031633036131d357565b63118cdaa760e01b5f523360045260245ffd5b5f516020613cb15f395f51905f52549161320560018401541515612915565b815f526019830160205260ff60405f20541660038110156123ad576002036132c157613263601b9160018060a01b0360068601541690604051602081019186835260408201526040815261325a606082612a08565b51902090613b11565b9260018060a01b0384165f52601a81016020528260405f2055016132878154612d23565b90556040516001600160a01b03831681527f8008ec1d8798725ebfa0f2d128d52e8e717dcba6e0f786557eeee70614b02bf190602090a290565b60405162461bcd60e51b815260206004820152602e60248201527f636f6465206d7573742062652076616c696461746564206265666f726520707260448201526d37b3b930b69031b932b0ba34b7b760911b6064820152608490fd5b9291926001600160401b0382116127735760405191613346601f8201601f191660200184612a08565b829481845281830111611c65578281602093845f960137010152565b909493919365ffffffffffff600283015460201c166133986133a361339d61338a8442612987565b601687015493848092612994565b6129bf565b836129b2565b918284108080613771575b156136ff575083106136ba576133c490836129b2565b10613669576133d4905b826138e0565b946040519060208201908152602082526133ef604083612a08565b61342b603660405180936020820195601960f81b87523060601b60228401525180918484015e81015f838201520301601f198101835282612a08565b5190209360028110156123ad5780613587575050600181036135425715612c3957803590601e1981360301821215611c6557018035906001600160401b038211611c65576020018136038113611c655761348691369161331d565b9160608351036134ed578260206134d59401516060604083015192015192600181549101549070014551231950b75fc4402da1732fc9bebe198110806134d8575b6134d090612dfd565b61394d565b90565b506134d06134e68383613892565b90506134c7565b60405162461bcd60e51b815260206004820152602760248201527f46524f5354207369676e6174757265206c656e677468206d75737420626520396044820152663620627974657360c81b6064820152608490fd5b60405162461bcd60e51b815260206004820152601e60248201527f46524f5354207369676e6174757265206d7573742062652073696e676c6500006044820152606490fd5b6001146135975750505050505f90565b6135b19061ffff6008600488959801549201541690613787565b925f9260035f9301925b8681101561365e578060051b820135601e1983360301811215611c655782018035906001600160401b038211611c65576020018136038113611c6557613619916136109161360a91369161331d565b85613b74565b90929192613bae565b6001600160a01b03165f9081526020859052604090205460ff16613640575b6001016135bb565b9361364a90612d23565b938585036136385750505050505050600190565b505050505050505f90565b60405162461bcd60e51b8152602060048201526024808201527f74696d657374616d70206973206f6c646572207468616e2070726576696f75736044820152632065726160e01b6064820152608490fd5b60405162461bcd60e51b815260206004820152601e60248201527f63616e6e6f742076616c6964617465206265666f72652067656e6573697300006044820152606490fd5b9392915050428211613722576133d49261371a575b506133ce565b90505f613714565b60405162461bcd60e51b815260206004820152602160248201527f74696d657374616d702063616e6e6f7420626520696e207468652066757475726044820152606560f81b6064820152608490fd5b506137806018870154856129b2565b42106133ae565b61ffff6137959216906129bf565b61270f81018091116120c957612710900490565b906014600e83015492015480831461384e57818184109311918215911115918190613847575b156137e457826137de57505090565b14919050565b60405162461bcd60e51b815260206004820152603560248201527f636f756c64206e6f74206964656e746966792076616c696461746f727320666f6044820152740722074686520676976656e2074696d657374616d7605c1b6064820152608490fd5b50816137cf565b606460405162461bcd60e51b815260206004820152602060248201527f657261732074696d657374616d70206d757374206e6f7420626520657175616c6044820152fd5b6401000003d01990600790829081818009900908906401000003d0199080091490565b60ff5f516020613cd15f395f51905f525460401c16156138d157565b631afcd79f60e31b5f5260045ffd5b906138eb90826137a9565b156138f657600f0190565b60090190565b905f1943014381116120c957805b613915575b505f9150565b804083810361392657506001925050565b15613934575f19018061390a565b61390f565b35906001600160801b0382168203611c6557565b929391949061395c8587613892565b15613b07578215613b075770014551231950b75fc4402da1732fc9bebe19831015613b07576001169061010e6040519161012083018381106001600160401b03821117611c655760405260883684376002600188160160888401538760898401526002840160a984015360aa830186905260ca8301527e300046524f53542d736563703235366b312d4b454343414b3235362d76316360ea8301526303430b6160e51b61010a830152812060cc820181815290600260ec84016001815360428420809318845253604270014551231950b75fc4402da1732fc9bebe19922060801c6001600160401b0360801b8260801b16179070014551231950b75fc4402da1732fc9bebe1990600160c01b9060401c0908801561365e5784601b6080945f9660209870014551231950b75fc4402da1732fc9bebe19910970014551231950b75fc4402da1732fc9bebe19038552018684015280604084015270014551231950b75fc4402da1732fc9bebe19910970014551231950b75fc4402da1732fc9bebe1903606082015282805260015afa15611c65575f51915f5260205260018060a01b0360405f20161490565b5050505050505f90565b6e5af43d82803e903d91602b57fd5bf390763d602d80600a3d3981f3363d3d373d3d3d363d7300000062ffffff8260881c16175f5260781b17602052603760095ff5906001600160a01b03821615613b6557565b63b06ebf3d60e01b5f5260045ffd5b8151919060418303613ba457613b9d9250602082015190606060408401519301515f1a90613c0e565b9192909190565b50505f9160029190565b60048110156123ad5780613bc0575050565b60018103613bd75763f645eedf60e01b5f5260045ffd5b60028103613bf2575063fce698f760e01b5f5260045260245ffd5b600314613bfc5750565b6335e2f38360e21b5f5260045260245ffd5b91907f7fffffffffffffffffffffffffffffff5d576e7357a4501ddfe92f46681b20a08411613c85579160209360809260ff5f9560405194855216868401526040830152606082015282805260015afa15611c5a575f516001600160a01b03811615613c7b57905f905f90565b505f906001905f90565b5050505f916003919056fe9016d09d72d40fdae2fd8ceac6b6234c7706214fd39c1cd1e609a0528c1993005c09ca1b9b8127a4fd9f3c384aac59b661441e820e17733753ff5f2e86e1e000f0c57e16840df040f15088dc2f81fe391c3923bec73e23a9662efc9c229c6a00a2646970667358221220302248638c675235ba336f583d1066b322bf0c3e34f35badc6524c46cb626b8364736f6c634300081c0033f0c57e16840df040f15088dc2f81fe391c3923bec73e23a9662efc9c229c6a00","linkReferences":{}},"methodIdentifiers":{"areValidators(address[])":"8f381dbe","codeState(bytes32)":"c13911e8","codesStates(bytes32[])":"82bdeaad","commitBatch(((bytes32,uint48,bool)[],(bytes32,uint48,bytes32,bytes32,(address,bytes32,address,uint128,(bytes32,address,uint128)[],(bytes32,address,bytes,uint128,(bytes32,bytes4))[])[])[]),uint8,bytes[])":"dc360d92","commitValidators(((uint256,uint256),(uint256,uint256)[],address[],uint256),uint8,bytes[])":"0d9078b1","computeSettings()":"84d22a4f","createProgram(bytes32,bytes32)":"527de0f9","createProgramWithDecoder(address,bytes32,bytes32)":"e7006a74","genesisBlockHash()":"28e24b3d","genesisTimestamp()":"cacf66ab","initialize(address,address,address,address,uint256,uint256,uint256,(uint256,uint256),(uint256,uint256)[],address[])":"389e7579","isValidator(address)":"facd743b","latestCommittedBlockHash()":"c9f16a11","lookupGenesisHash()":"8b1edf1e","mirrorImpl()":"e6fabc09","mirrorProxyImpl()":"65ecfea2","owner()":"8da5cb5b","programCodeId(address)":"9067088e","programsCodeIds(address[])":"baaf0201","programsCount()":"96a2ddfa","reinitialize()":"6c2eb350","renounceOwnership()":"715018a6","requestCodeValidation(bytes32)":"120e3f1e","setMirror(address)":"3d43b418","signingThresholdPercentage()":"efd81abc","transferOwnership(address)":"f2fde38b","validatedCodesCount()":"007a32e7","validators()":"ca1e7819","validatorsAggregatedPublicKey()":"3bd109fa","validatorsCount()":"ed612f8c","validatorsThreshold()":"edc87225","validatorsVerifyingShares()":"7b4dda97","wrappedVara()":"88f50cf0"},"storageLayout":{"storage":[],"types":{}},"id":130}