{"abi":[{"type":"constructor","inputs":[],"stateMutability":"nonpayable"},{"type":"receive","stateMutability":"payable"},{"type":"function","name":"areValidators","inputs":[{"name":"_validators","type":"address[]","internalType":"address[]"}],"outputs":[{"name":"","type":"bool","internalType":"bool"}],"stateMutability":"view"},{"type":"function","name":"codeState","inputs":[{"name":"_codeId","type":"bytes32","internalType":"bytes32"}],"outputs":[{"name":"","type":"uint8","internalType":"enum Gear.CodeState"}],"stateMutability":"view"},{"type":"function","name":"codesStates","inputs":[{"name":"_codesIds","type":"bytes32[]","internalType":"bytes32[]"}],"outputs":[{"name":"","type":"uint8[]","internalType":"enum Gear.CodeState[]"}],"stateMutability":"view"},{"type":"function","name":"commitBatch","inputs":[{"name":"_batch","type":"tuple","internalType":"struct Gear.BatchCommitment","components":[{"name":"blockHash","type":"bytes32","internalType":"bytes32"},{"name":"blockTimestamp","type":"uint48","internalType":"uint48"},{"name":"previousCommittedBatchHash","type":"bytes32","internalType":"bytes32"},{"name":"expiry","type":"uint8","internalType":"uint8"},{"name":"chainCommitment","type":"tuple[]","internalType":"struct Gear.ChainCommitment[]","components":[{"name":"transitions","type":"tuple[]","internalType":"struct Gear.StateTransition[]","components":[{"name":"actorId","type":"address","internalType":"address"},{"name":"newStateHash","type":"bytes32","internalType":"bytes32"},{"name":"exited","type":"bool","internalType":"bool"},{"name":"inheritor","type":"address","internalType":"address"},{"name":"valueToReceive","type":"uint128","internalType":"uint128"},{"name":"valueToReceiveNegativeSign","type":"bool","internalType":"bool"},{"name":"valueClaims","type":"tuple[]","internalType":"struct Gear.ValueClaim[]","components":[{"name":"messageId","type":"bytes32","internalType":"bytes32"},{"name":"destination","type":"address","internalType":"address"},{"name":"value","type":"uint128","internalType":"uint128"}]},{"name":"messages","type":"tuple[]","internalType":"struct Gear.Message[]","components":[{"name":"id","type":"bytes32","internalType":"bytes32"},{"name":"destination","type":"address","internalType":"address"},{"name":"payload","type":"bytes","internalType":"bytes"},{"name":"value","type":"uint128","internalType":"uint128"},{"name":"replyDetails","type":"tuple","internalType":"struct Gear.ReplyDetails","components":[{"name":"to","type":"bytes32","internalType":"bytes32"},{"name":"code","type":"bytes4","internalType":"bytes4"}]},{"name":"call","type":"bool","internalType":"bool"}]}]},{"name":"head","type":"bytes32","internalType":"bytes32"}]},{"name":"codeCommitments","type":"tuple[]","internalType":"struct Gear.CodeCommitment[]","components":[{"name":"id","type":"bytes32","internalType":"bytes32"},{"name":"valid","type":"bool","internalType":"bool"}]},{"name":"rewardsCommitment","type":"tuple[]","internalType":"struct Gear.RewardsCommitment[]","components":[{"name":"operators","type":"tuple","internalType":"struct Gear.OperatorRewardsCommitment","components":[{"name":"amount","type":"uint256","internalType":"uint256"},{"name":"root","type":"bytes32","internalType":"bytes32"}]},{"name":"stakers","type":"tuple","internalType":"struct Gear.StakerRewardsCommitment","components":[{"name":"distribution","type":"tuple[]","internalType":"struct Gear.StakerRewards[]","components":[{"name":"vault","type":"address","internalType":"address"},{"name":"amount","type":"uint256","internalType":"uint256"}]},{"name":"totalAmount","type":"uint256","internalType":"uint256"},{"name":"token","type":"address","internalType":"address"}]},{"name":"timestamp","type":"uint48","internalType":"uint48"}]},{"name":"validatorsCommitment","type":"tuple[]","internalType":"struct Gear.ValidatorsCommitment[]","components":[{"name":"aggregatedPublicKey","type":"tuple","internalType":"struct Gear.AggregatedPublicKey","components":[{"name":"x","type":"uint256","internalType":"uint256"},{"name":"y","type":"uint256","internalType":"uint256"}]},{"name":"verifiableSecretSharingCommitment","type":"bytes","internalType":"bytes"},{"name":"validators","type":"address[]","internalType":"address[]"},{"name":"eraIndex","type":"uint256","internalType":"uint256"}]}]},{"name":"_signatureType","type":"uint8","internalType":"enum Gear.SignatureType"},{"name":"_signatures","type":"bytes[]","internalType":"bytes[]"}],"outputs":[],"stateMutability":"nonpayable"},{"type":"function","name":"computeSettings","inputs":[],"outputs":[{"name":"","type":"tuple","internalType":"struct Gear.ComputationSettings","components":[{"name":"threshold","type":"uint64","internalType":"uint64"},{"name":"wvaraPerSecond","type":"uint128","internalType":"uint128"}]}],"stateMutability":"view"},{"type":"function","name":"createProgram","inputs":[{"name":"_codeId","type":"bytes32","internalType":"bytes32"},{"name":"_salt","type":"bytes32","internalType":"bytes32"},{"name":"_overrideInitializer","type":"address","internalType":"address"}],"outputs":[{"name":"","type":"address","internalType":"address"}],"stateMutability":"nonpayable"},{"type":"function","name":"createProgramWithAbiInterface","inputs":[{"name":"_codeId","type":"bytes32","internalType":"bytes32"},{"name":"_salt","type":"bytes32","internalType":"bytes32"},{"name":"_overrideInitializer","type":"address","internalType":"address"},{"name":"_abiInterface","type":"address","internalType":"address"}],"outputs":[{"name":"","type":"address","internalType":"address"}],"stateMutability":"nonpayable"},{"type":"function","name":"genesisBlockHash","inputs":[],"outputs":[{"name":"","type":"bytes32","internalType":"bytes32"}],"stateMutability":"view"},{"type":"function","name":"genesisTimestamp","inputs":[],"outputs":[{"name":"","type":"uint48","internalType":"uint48"}],"stateMutability":"view"},{"type":"function","name":"initialize","inputs":[{"name":"_owner","type":"address","internalType":"address"},{"name":"_mirror","type":"address","internalType":"address"},{"name":"_wrappedVara","type":"address","internalType":"address"},{"name":"_middleware","type":"address","internalType":"address"},{"name":"_eraDuration","type":"uint256","internalType":"uint256"},{"name":"_electionDuration","type":"uint256","internalType":"uint256"},{"name":"_validationDelay","type":"uint256","internalType":"uint256"},{"name":"_aggregatedPublicKey","type":"tuple","internalType":"struct Gear.AggregatedPublicKey","components":[{"name":"x","type":"uint256","internalType":"uint256"},{"name":"y","type":"uint256","internalType":"uint256"}]},{"name":"_verifiableSecretSharingCommitment","type":"bytes","internalType":"bytes"},{"name":"_validators","type":"address[]","internalType":"address[]"}],"outputs":[],"stateMutability":"nonpayable"},{"type":"function","name":"isValidator","inputs":[{"name":"_validator","type":"address","internalType":"address"}],"outputs":[{"name":"","type":"bool","internalType":"bool"}],"stateMutability":"view"},{"type":"function","name":"latestCommittedBatchHash","inputs":[],"outputs":[{"name":"","type":"bytes32","internalType":"bytes32"}],"stateMutability":"view"},{"type":"function","name":"latestCommittedBatchTimestamp","inputs":[],"outputs":[{"name":"","type":"uint48","internalType":"uint48"}],"stateMutability":"view"},{"type":"function","name":"lookupGenesisHash","inputs":[],"outputs":[],"stateMutability":"nonpayable"},{"type":"function","name":"middleware","inputs":[],"outputs":[{"name":"","type":"address","internalType":"address"}],"stateMutability":"view"},{"type":"function","name":"mirrorImpl","inputs":[],"outputs":[{"name":"","type":"address","internalType":"address"}],"stateMutability":"view"},{"type":"function","name":"owner","inputs":[],"outputs":[{"name":"","type":"address","internalType":"address"}],"stateMutability":"view"},{"type":"function","name":"programCodeId","inputs":[{"name":"_programId","type":"address","internalType":"address"}],"outputs":[{"name":"","type":"bytes32","internalType":"bytes32"}],"stateMutability":"view"},{"type":"function","name":"programsCodeIds","inputs":[{"name":"_programsIds","type":"address[]","internalType":"address[]"}],"outputs":[{"name":"","type":"bytes32[]","internalType":"bytes32[]"}],"stateMutability":"view"},{"type":"function","name":"programsCount","inputs":[],"outputs":[{"name":"","type":"uint256","internalType":"uint256"}],"stateMutability":"view"},{"type":"function","name":"reinitialize","inputs":[],"outputs":[],"stateMutability":"nonpayable"},{"type":"function","name":"renounceOwnership","inputs":[],"outputs":[],"stateMutability":"nonpayable"},{"type":"function","name":"requestCodeValidation","inputs":[{"name":"_codeId","type":"bytes32","internalType":"bytes32"}],"outputs":[],"stateMutability":"nonpayable"},{"type":"function","name":"setMirror","inputs":[{"name":"newMirror","type":"address","internalType":"address"}],"outputs":[],"stateMutability":"nonpayable"},{"type":"function","name":"signingThresholdPercentage","inputs":[],"outputs":[{"name":"","type":"uint16","internalType":"uint16"}],"stateMutability":"view"},{"type":"function","name":"timelines","inputs":[],"outputs":[{"name":"","type":"tuple","internalType":"struct Gear.Timelines","components":[{"name":"era","type":"uint256","internalType":"uint256"},{"name":"election","type":"uint256","internalType":"uint256"},{"name":"validationDelay","type":"uint256","internalType":"uint256"}]}],"stateMutability":"view"},{"type":"function","name":"transferOwnership","inputs":[{"name":"newOwner","type":"address","internalType":"address"}],"outputs":[],"stateMutability":"nonpayable"},{"type":"function","name":"validatedCodesCount","inputs":[],"outputs":[{"name":"","type":"uint256","internalType":"uint256"}],"stateMutability":"view"},{"type":"function","name":"validators","inputs":[],"outputs":[{"name":"","type":"address[]","internalType":"address[]"}],"stateMutability":"view"},{"type":"function","name":"validatorsAggregatedPublicKey","inputs":[],"outputs":[{"name":"","type":"tuple","internalType":"struct Gear.AggregatedPublicKey","components":[{"name":"x","type":"uint256","internalType":"uint256"},{"name":"y","type":"uint256","internalType":"uint256"}]}],"stateMutability":"view"},{"type":"function","name":"validatorsCount","inputs":[],"outputs":[{"name":"","type":"uint256","internalType":"uint256"}],"stateMutability":"view"},{"type":"function","name":"validatorsThreshold","inputs":[],"outputs":[{"name":"","type":"uint256","internalType":"uint256"}],"stateMutability":"view"},{"type":"function","name":"validatorsVerifiableSecretSharingCommitment","inputs":[],"outputs":[{"name":"","type":"bytes","internalType":"bytes"}],"stateMutability":"view"},{"type":"function","name":"wrappedVara","inputs":[],"outputs":[{"name":"","type":"address","internalType":"address"}],"stateMutability":"view"},{"type":"event","name":"AnnouncesCommitted","inputs":[{"name":"head","type":"bytes32","indexed":false,"internalType":"bytes32"}],"anonymous":false},{"type":"event","name":"BatchCommitted","inputs":[{"name":"hash","type":"bytes32","indexed":false,"internalType":"bytes32"}],"anonymous":false},{"type":"event","name":"CodeGotValidated","inputs":[{"name":"codeId","type":"bytes32","indexed":false,"internalType":"bytes32"},{"name":"valid","type":"bool","indexed":true,"internalType":"bool"}],"anonymous":false},{"type":"event","name":"CodeValidationRequested","inputs":[{"name":"codeId","type":"bytes32","indexed":false,"internalType":"bytes32"}],"anonymous":false},{"type":"event","name":"ComputationSettingsChanged","inputs":[{"name":"threshold","type":"uint64","indexed":false,"internalType":"uint64"},{"name":"wvaraPerSecond","type":"uint128","indexed":false,"internalType":"uint128"}],"anonymous":false},{"type":"event","name":"Initialized","inputs":[{"name":"version","type":"uint64","indexed":false,"internalType":"uint64"}],"anonymous":false},{"type":"event","name":"OwnershipTransferred","inputs":[{"name":"previousOwner","type":"address","indexed":true,"internalType":"address"},{"name":"newOwner","type":"address","indexed":true,"internalType":"address"}],"anonymous":false},{"type":"event","name":"ProgramCreated","inputs":[{"name":"actorId","type":"address","indexed":false,"internalType":"address"},{"name":"codeId","type":"bytes32","indexed":true,"internalType":"bytes32"}],"anonymous":false},{"type":"event","name":"StorageSlotChanged","inputs":[],"anonymous":false},{"type":"event","name":"ValidatorsCommittedForEra","inputs":[{"name":"eraIndex","type":"uint256","indexed":false,"internalType":"uint256"}],"anonymous":false},{"type":"error","name":"ECDSAInvalidSignature","inputs":[]},{"type":"error","name":"ECDSAInvalidSignatureLength","inputs":[{"name":"length","type":"uint256","internalType":"uint256"}]},{"type":"error","name":"ECDSAInvalidSignatureS","inputs":[{"name":"s","type":"bytes32","internalType":"bytes32"}]},{"type":"error","name":"InvalidInitialization","inputs":[]},{"type":"error","name":"NotInitializing","inputs":[]},{"type":"error","name":"OwnableInvalidOwner","inputs":[{"name":"owner","type":"address","internalType":"address"}]},{"type":"error","name":"OwnableUnauthorizedAccount","inputs":[{"name":"account","type":"address","internalType":"address"}]},{"type":"error","name":"ReentrancyGuardReentrantCall","inputs":[]}],"bytecode":{"object":"0x6080806040523460aa575f5160206145685f395f51905f525460ff8160401c16609b576002600160401b03196001600160401b038216016049575b6040516144b990816100af8239f35b6001600160401b0319166001600160401b039081175f5160206145685f395f51905f525581527fc7f505b2f371ae2175ee4913f4499e1f2633a7b5936321eed1cdaeb6115181d290602090a15f80603a565b63f92ee8a960e01b5f5260045ffd5b5f80fdfe608080604052600436101561010a575b50361561001a575f80fd5b5f5160206144795f395f51905f525461003860018201541515612570565b6001600160801b033416156100ba57335f908152601a9190910160205260409020541561006157005b60405162461bcd60e51b815260206004820152602b60248201527f636f756c646e277420726563656976652045746865722066726f6d20756e6b6e60448201526a6f776e2070726f6772616d60a81b6064820152608490fd5b60405162461bcd60e51b815260206004820152602260248201527f7a65726f2076616c7565207472616e73666572206973206e6f7420616c6c6f77604482015261195960f21b6064820152608490fd5b5f905f3560e01c9081627a32e714612448575080630c18d27714611f50578063120e3f1e14611dc457806328e24b3d14611d965780633683c4d214611b095780633bd109fa14611aba5780633d43b41814611a6657806353f7fd48146114dd5780636c2eb3501461118b578063715018a61461112257806371a8cf2d146110f457806382bdeaad14610fdc57806384d22a4f14610f7357806388f50cf014610f3a5780638b1edf1e14610e6f5780638da5cb5b14610e3a5780638f381dbe14610df45780639067088e14610dab57806396a2ddfa14610d7d5780639eb939a814610d11578063a5d53a4414610ca3578063b24fcac01461066a578063baaf020114610569578063c13911e814610525578063ca1e7819146104a2578063cacf66ab1461046a578063d456fd5114610434578063e6fabc09146103fb578063ed612f8c146103c3578063edc8722514610379578063efd81abc14610347578063f2fde38b1461031a578063f4f20ac0146102e15763facd743b0361000f57346102de5760203660031901126102de576102a061249e565b60036102bb5f5160206144795f395f51905f52544290613fbe565b019060018060a01b03165f52602052602060ff60405f2054166040519015158152f35b80fd5b50346102de57806003193601126102de575f5160206144795f395f51905f5254600701546040516001600160a01b039091168152602090f35b50346102de5760203660031901126102de5761034461033761249e565b61033f6128f8565b612879565b80f35b50346102de57806003193601126102de57602061ffff60085f5160206144795f395f51905f5254015416604051908152f35b50346102de57806003193601126102de5760206103bb5f5160206144795f395f51905f525461ffff600860046103af4285613fbe565b01549201541690613f9c565b604051908152f35b50346102de57806003193601126102de57602060046103f15f5160206144795f395f51905f52544290613fbe565b0154604051908152f35b50346102de57806003193601126102de575f5160206144795f395f51905f5254600501546040516001600160a01b039091168152602090f35b50346102de57806003193601126102de57602065ffffffffffff60045f5160206144795f395f51905f5254015416604051908152f35b50346102de57806003193601126102de57602065ffffffffffff60025f5160206144795f395f51905f52540154821c16604051908152f35b50346102de57806003193601126102de576104d760046104d15f5160206144795f395f51905f52544290613fbe565b0161272f565b90604051918291602083016020845282518091526020604085019301915b818110610503575050500390f35b82516001600160a01b03168452859450602093840193909201916001016104f5565b50346102de5760203660031901126102de5760ff604060209260195f5160206144795f395f51905f5254016004358252845220541661056760405180926124f8565bf35b50346102de5760203660031901126102de576004356001600160401b0381116106665761059a9036906004016124c8565b905f5160206144795f395f51905f5254906105b4836126c4565b916105c2604051938461254f565b8383526105ce846126c4565b602084019490601f1901368637601a869201915b81811061062d57868587604051928392602084019060208552518091526040840192915b818110610614575050500390f35b8251845285945060209384019390920191600101610606565b8061064361063e6001938588612782565b6127ba565b828060a01b03165f528360205260405f205461065f82886127a6565b52016105e2565b5080fd5b50346102de5760603660031901126102de576004356001600160401b03811161066657806004019161010060031983360301126102de57600260243510156102de576044356001600160401b038111610666576106cb9036906004016124c8565b9390917f9b779b17422d0df92223018b32b4d1fa46e071723d6817e2486d003becc55f005c610c945760017f9b779b17422d0df92223018b32b4d1fa46e071723d6817e2486d003becc55f005d5f5160206144795f395f51905f52549161073760018401541515612570565b825415610bba575b60038301908154916044870135809303610b6757600485019765ffffffffffff89541696602489019765ffffffffffff6107788a612866565b1610610ae75761078d84889b96999a9b612ccb565b98606095879b8c9a60a482019860198c019c5b6107aa8b8b61322c565b9190501015610972578e6107be8b8b61322c565b9091101561095e578f60ff8f926040908f9360061b0192833594858252602052205416600381101561094a576001036108e75760408f918f928f93602083019461080786613261565b156108cf57601c928782526020528481209050600260ff198254161790550161083081546128ea565b90555b61083c83613261565b15157f460119a8f69a33ed127de517d5ea464e958ce23ef19e4420a8b92bf780bbc2c960208451878152a23603126108cb57916108c29160206001946108906040519161088883612534565b84835261326e565b91829101526040519060208201928352151560f81b6040820152602181526108b960418261254f565b5190209061327b565b9e019d8e6107a0565b8c80fd5b905083918682526020522060ff198154169055610833565b60405162461bcd60e51b815260206004820152603560248201527f636f6465206d7573742062652072657175657374656420666f722076616c6964604482015274185d1a5bdb881d1bc818994818dbdb5b5a5d1d1959605a1b6064820152608490fd5b634e487b7160e01b8e52602160045260248efd5b634e487b7160e01b8c52603260045260248cfd5b8a9950926020610a77998f948e9794610a6c9665ffffffffffff9885815191012061099d858c6132ca565b916109a8868d6137dd565b936109be60646109b78c612866565b9701612858565b9060405196898801983589528d60d01b9060d01b166040880152604687015260ff60f81b9060f81b1660668601526067850152608784015260a783015260c782015260c78152610a0f60e78261254f565b5190208099610a1d85612866565b8760405191610a2b83612534565b8483521693849101525584198254161790557f7ebe42360bcb182fe0a88148b081e4557c89d09aa6af8307635ac2f83e2aaa656020604051898152a1612866565b169360243591613bfd565b15610aa257807f9b779b17422d0df92223018b32b4d1fa46e071723d6817e2486d003becc55f005d80f35b60405162461bcd60e51b815260206004820152601e60248201527f7369676e61747572657320766572696669636174696f6e206661696c656400006044820152606490fd5b60405162461bcd60e51b815260206004820152604c60248201527f62617463682074696d657374616d70206d75737420626520677265617465722060448201527f6f7220657175616c20746f206c617465737420636f6d6d69747465642062617460648201526b063682074696d657374616d760a41b608482015260a490fd5b60405162461bcd60e51b815260206004820152602560248201527f696e76616c69642070726576696f757320636f6d6d6974746564206261746368604482015264040d0c2e6d60db1b6064820152608490fd5b610bd0610bc960648701612858565b8235612c36565b15610c405765ffffffffffff610be860248701612866565b16421161073f5760405162461bcd60e51b815260206004820152602360248201527f62617463682074696d657374616d70206d75737420626520696e207468652070604482015262185cdd60ea1b6064820152608490fd5b60405162461bcd60e51b815260206004820152602660248201527f616c6c6f776564207072656465636573736f7220626c6f636b207761736e277460448201526508199bdd5b9960d21b6064820152608490fd5b633ee5aeb560e01b8152600490fd5b50346102de57806003193601126102de576040610ce45f5160206144795f395f51905f52546002610cdc60018060a01b03924290613fbe565b015416612c07565b6020825193849282845280519283918282870152018585015e828201840152601f01601f19168101030190f35b50346102de57806003193601126102de57610d2a61283a565b5060605f5160206144795f395f51905f5254604051610d4881612505565b601682015491828252604060186017830154926020850193845201549201918252604051928352516020830152516040820152f35b50346102de57806003193601126102de576020601b5f5160206144795f395f51905f52540154604051908152f35b50346102de5760203660031901126102de57610dc561249e565b601a5f5160206144795f395f51905f5254019060018060a01b03165f52602052602060405f2054604051908152f35b50346102de5760203660031901126102de57600435906001600160401b0382116102de576020610e30610e2a36600486016124c8565b906127ce565b6040519015158152f35b50346102de57806003193601126102de575f5160206144595f395f51905f52546040516001600160a01b039091168152602090f35b50346102de57806003193601126102de575f5160206144795f395f51905f525460018101908154610ef5576002015463ffffffff1640908115610eb0575580f35b60405162461bcd60e51b815260206004820152601d60248201527f756e61626c6520746f206c6f6f6b75702067656e6573697320686173680000006044820152606490fd5b60405162461bcd60e51b815260206004820152601860248201527f67656e65736973206861736820616c72656164792073657400000000000000006044820152606490fd5b50346102de57806003193601126102de575f5160206144795f395f51905f5254600601546040516001600160a01b039091168152602090f35b50346102de57806003193601126102de57610f8c6125e2565b50604060155f5160206144795f395f51905f5254016001600160801b03825191610fb583612534565b548160206001600160401b038316948581520191851c168152835192835251166020820152f35b50346102de5760203660031901126102de576004356001600160401b0381116106665761100d9036906004016124c8565b905f5160206144795f395f51905f525490611027836126c4565b91611035604051938461254f565b838352611041846126c4565b602084019490601f19013686376019869201915b8181106110aa57868587604051928392602084019060208552518091526040840192915b818110611087575050500390f35b919350916020808261109c60019488516124f8565b019401910191849392611079565b6110b5818386612782565b3587528260205260ff6040882054166110ce82876127a6565b60038210156110e05752600101611055565b634e487b7160e01b89526021600452602489fd5b50346102de57806003193601126102de57602060035f5160206144795f395f51905f52540154604051908152f35b50346102de57806003193601126102de5761113b6128f8565b5f5160206144595f395f51905f5280546001600160a01b0319811690915581906001600160a01b03167f8be0079c531659141344cd1fd0a4f28419497f9722a3daafe3b4186f6b6457e08280a380f35b50346102de57806003193601126102de576111a46128f8565b5f5160206144995f395f51905f525460ff8160401c169081156114c8575b506114b9575f5160206144995f395f51905f52805468ffffffffffffffffff1916680100000000000000021790555f5160206144595f395f51905f525461121c906001600160a01b0316611214613fda565b61033f613fda565b5f5160206144795f395f51905f5254604090815161123a838261254f565b6017815260208101907f726f757465722e73746f726167652e526f757465725632000000000000000000825261126e6128f8565b5190205f1981019081116114a557916020917fc7f505b2f371ae2175ee4913f4499e1f2633a7b5936321eed1cdaeb6115181d2938251908482019081528482526112b8848361254f565b60ff19915190201690815f5160206144795f395f51905f52556112d961292b565b80516001840155600283019063ffffffff868201511669ffffffffffff00000000868454930151881b169169ffffffffffffffffffff191617179055600581016005830190808203611457575b505061ffff600882015416600883019061ffff1982541617905561138f61134d4283613fbe565b6113646001600160a01b036002610cdc4287613fbe565b61137a60046113734287613fbe565b01926125fa565b90611385429361272f565b9160098701612973565b601581016015830190808203611405575b50506016810160168301918183036113e5575b5050505060ff60401b195f5160206144995f395f51905f5254165f5160206144995f395f51905f52555160028152a180f35b60189283925490556017810154601785015501549101555f8080806113b3565b806001600160401b03806001600160801b03935416166001600160401b031984541617835554851c16600160401b600160c01b03825491861b1690600160401b600160c01b0319161790555f806113a0565b5481546001600160a01b03199081166001600160a01b039283161790925560068381015490850180548416918316919091179055600780840154908501805490931691161790555f80611326565b634e487b7160e01b84526011600452602484fd5b63f92ee8a960e01b8152600490fd5b600291506001600160401b031610155f6111c2565b50346102de576101603660031901126102de576114f861249e565b6024356001600160a01b0381169190829003611a6257611516612472565b61151e612488565b60c435916084359160a43560403660e3190112611a5e5761012435946001600160401b038611611a5a5736602387011215611a5a578560040135916001600160401b038311611a56573660248489010111611a5657610144356001600160401b038111611a52576115939036906004016124c8565b9690945f5160206144995f395f51905f5254996001600160401b0360ff8c60401c16159b1680159081611a4a575b6001149081611a40575b159081611a37575b50611a2857611615908b60016001600160401b03195f5160206144995f395f51905f525416175f5160206144995f395f51905f52556119f8575b611214613fda565b61161d613fda565b42156119a257821561194c57828211156118eb57600a61163d8484612618565b048410156118a65760409a8b516116548d8261254f565b6017815260208101907f726f757465722e73746f726167652e526f75746572563100000000000000000082526116886128f8565b5190205f198101908111611892578c51602080820192835281528d9392916116b0858361254f565b60ff19915190201698895f5160206144795f395f51905f52556116d161292b565b805160018c015560028b0190602081015163ffffffff1686835492015160201b69ffffffffffff00000000169169ffffffffffffffffffff19161717905583519061171b82612505565b8282526001600160a01b03908116602083018190529381169490910184905260058a018054919092166001600160a01b0319918216179091556006890180548216909217909155600788018054909116909117905560088601805461ffff1916611a0a1790556117896125e2565b50895161179581612534565b639502f90081526509184e72a0006020909101526015860180546001600160c01b0319166d09184e72a000000000009502f900179055895183908b906117da81612505565b838152846020820152015260168601556017850155601884015586519461180086612534565b60e435865261010435602087015261181c91369160240161267f565b904293369061182a926126db565b916009019361183894612973565b611840575080f35b60207fc7f505b2f371ae2175ee4913f4499e1f2633a7b5936321eed1cdaeb6115181d29160ff60401b195f5160206144995f395f51905f5254165f5160206144995f395f51905f52555160018152a180f35b634e487b7160e01b8e52601160045260248efd5b60405162461bcd60e51b815260206004820152601b60248201527f76616c69646174696f6e2064656c617920697320746f6f2062696700000000006044820152606490fd5b60405162461bcd60e51b815260206004820152603360248201527f657261206475726174696f6e206d757374206265206772656174657220746861604482015272371032b632b1ba34b7b710323ab930ba34b7b760691b6064820152608490fd5b60405162461bcd60e51b815260206004820152602860248201527f656c656374696f6e206475726174696f6e206d75737420626520677265617465604482015267072207468616e20360c41b6064820152608490fd5b60405162461bcd60e51b815260206004820152602860248201527f63757272656e742074696d657374616d70206d75737420626520677265617465604482015267072207468616e20360c41b6064820152608490fd5b600160401b60ff60401b195f5160206144995f395f51905f525416175f5160206144995f395f51905f525561160d565b63f92ee8a960e01b8d5260048dfd5b9050155f6115d3565b303b1591506115cb565b8c91506115c1565b8a80fd5b8980fd5b8880fd5b8780fd5b8280fd5b50346102de5760203660031901126102de57611a8061249e565b611a886128f8565b5f5160206144795f395f51905f525460050180546001600160a01b0319166001600160a01b0390921691909117905580f35b50346102de57806003193601126102de57611ad36125e2565b506040611af7611af25f5160206144795f395f51905f52544290613fbe565b6125fa565b60208251918051835201516020820152f35b50346102de5760603660031901126102de57600435611b26612472565b5f5160206144795f395f51905f5254611b4460018201541515612570565b8284526019810160205260ff6040852054166003811015611d8257600203611d26576040516020810190848252602435604082015260408152611b8860608261254f565b51902060405160608101908082106001600160401b03831117611d2257605a916040527f3d605080600a3d3981f3608060405263e6fabc0960e01b5f5260205f6004817381523060601b6b5afa15604c575f80805136821760208201527f80378136915af43d5f803e156048573d5ff35b3d5ffd5b5f80fd000000000000604082015286f5908115611d1e576001600160a01b0382165f908152601a820160205260409020849055601b018054611c3e906128ea565b90556040516001600160a01b03821680825293907f8008ec1d8798725ebfa0f2d128d52e8e717dcba6e0f786557eeee70614b02bf190602090a2506001600160a01b038116611d195750335b5f5160206144795f395f51905f5254600501546001600160a01b0316823b15611d1557604051631c9776b560e31b81526001600160a01b039092166004830152602482015260016044820152828160648183865af18015611d0a57611cf5575b602082604051908152f35b611d0083809261254f565b6106665781611cea565b6040513d85823e3d90fd5b8380fd5b611c8a565b8480fd5b8680fd5b60405162461bcd60e51b815260206004820152602e60248201527f636f6465206d7573742062652076616c696461746564206265666f726520707260448201526d37b3b930b69031b932b0ba34b7b760911b6064820152608490fd5b634e487b7160e01b85526021600452602485fd5b50346102de57806003193601126102de57602060015f5160206144795f395f51905f52540154604051908152f35b50346102de5760203660031901126102de57600435814915611ed45760195f5160206144795f395f51905f5254611e0060018201541515612570565b018183528060205260ff6040842054166003811015611ec057611e5f5781835260209081526040808420805460ff19166001179055519182527f5c261a095dd5720475295dc06379921c003c22164ee6cae5cf83e76ce0a1b98591a180f35b60405162461bcd60e51b815260206004820152603360248201527f676976656e20636f646520696420697320616c7265616479206f6e2076616c6960448201527219185d1a5bdb881bdc881d985b1a59185d1959606a1b6064820152608490fd5b634e487b7160e01b84526021600452602484fd5b60405162461bcd60e51b815260206004820152604860248201527f626c6f622063616e277420626520666f756e642c20726f75746572206578706560448201527f63746564204549502d34383434207472616e73616374696f6e2077697468205760648201526720a9a690313637b160c11b608482015260a490fd5b3461242a57608036600319011261242a57600435611f6c612472565b90611f75612488565b915f5160206144795f395f51905f5254611f9460018201541515612570565b825f526019810160205260ff60405f205416600381101561243457600203611d26576040516020810190848252602435604082015260408152611fd860608261254f565b5190206040516102c08101908082106001600160401b0383111761242a576102b0916040527f60808060405261029e90816100128239f3fe608060405260043610610254575f81527f3560e01c806336a52a18146100ab57806342129d00146100a65780635ce6c32760208201527f146100a1578063701da98e1461009c578063704ed542146100975780637a8e0c60408201527fdd1461009257806391d5a64c1461008d5780639ce110d714610088578063affe60608201527fd0e0146100835763e43f3433036102545761023f565b610222565b6101fa565b60808201527f6101e4565b6101b1565b610181565b610165565b610143565b610106565b346160a08201527ed4575f3660031901126100d45760025460081c6001600160a01b031660809060c08201527f8152602090f35b5f80fd5b9181601f840112156100d45782359167ffffffffff60e08201527fffffff83116100d457602083818601950101116100d457565b604036600319016101008201527f126100d45760043567ffffffffffffffff81116100d4576101329036906004016101208201527f6100d8565b505060243580151514610254575f80fd5b346100d4575f366003196101408201527f01126100d457602060ff600254166040519015158152f35b346100d4575f36606101608201527f031901126100d45760205f54604051908152f35b346100d457602036600319016101808201527f126100d4576004356fffffffffffffffffffffffffffffffff811614610254576101a08201527f5f80fd5b60403660031901126100d45760243567ffffffffffffffff811161006101c08201527fd4576101dd9036906004016100d8565b5050610254565b346100d457602036606101e08201527f0319011215610254575f80fd5b346100d4575f3660031901126100d4576003546102008201527f6040516001600160a01b039091168152602090f35b346100d4575f36600319016102208201527f126100d4576020600154604051908152f35b346100d4575f36600319011215616102408201523060601c7f0254575f80fd5b63e6fabc0960e01b5f5260205f60048173000000000000000017610260820152735afa156100d4575f808051368280378136915af43060a01b176102808201526f3d5f803e1561029a573d5ff35b3d5ffd60801b6102a08201525ff590811561242a576001600160a01b0382165f908152601a820160205260409020849055601b01805461236f906128ea565b90556040516001600160a01b03821680825293907f8008ec1d8798725ebfa0f2d128d52e8e717dcba6e0f786557eeee70614b02bf190602090a2506001600160a01b03811661242e575033915b813b1561242a57604051631c9776b560e31b81526001600160a01b039384166004820152921660248301525f604483018190528260648183855af191821561241f5760209261240f575b50604051908152f35b5f6124199161254f565b5f612406565b6040513d5f823e3d90fd5b5f80fd5b916123bc565b634e487b7160e01b5f52602160045260245ffd5b3461242a575f36600319011261242a57602090601c5f5160206144795f395f51905f525401548152f35b604435906001600160a01b038216820361242a57565b606435906001600160a01b038216820361242a57565b600435906001600160a01b038216820361242a57565b35906001600160a01b038216820361242a57565b9181601f8401121561242a578235916001600160401b03831161242a576020808501948460051b01011161242a57565b9060038210156124345752565b606081019081106001600160401b0382111761252057604052565b634e487b7160e01b5f52604160045260245ffd5b604081019081106001600160401b0382111761252057604052565b90601f801991011681019081106001600160401b0382111761252057604052565b1561257757565b60405162461bcd60e51b815260206004820152603860248201527f726f757465722067656e65736973206973207a65726f3b2063616c6c20606c6f60448201527f6f6b757047656e657369734861736828296020666972737400000000000000006064820152608490fd5b604051906125ef82612534565b5f6020838281520152565b9060405161260781612534565b602060018294805484520154910152565b9190820391821161262557565b634e487b7160e01b5f52601160045260245ffd5b8115612643570490565b634e487b7160e01b5f52601260045260245ffd5b919082604091031261242a5760405161266f81612534565b6020808294803584520135910152565b9291926001600160401b03821161252057604051916126a8601f8201601f19166020018461254f565b82948184528183011161242a578281602093845f960137010152565b6001600160401b0381116125205760051b60200190565b9291906126e7816126c4565b936126f5604051958661254f565b602085838152019160051b810192831161242a57905b82821061271757505050565b60208091612724846124b4565b81520191019061270b565b90604051918281549182825260208201905f5260205f20925f5b81811061276057505061275e9250038361254f565b565b84546001600160a01b0316835260019485019487945060209093019201612749565b91908110156127925760051b0190565b634e487b7160e01b5f52603260045260245ffd5b80518210156127925760209160051b010190565b356001600160a01b038116810361242a5790565b6127e75f5160206144795f395f51905f52544290613fbe565b600301905f5b8381106127fd5750505050600190565b61280b61063e828685612782565b6001600160a01b03165f9081526020849052604090205460ff1615612832576001016127ed565b505050505f90565b6040519061284782612505565b5f6040838281528260208201520152565b3560ff8116810361242a5790565b3565ffffffffffff8116810361242a5790565b6001600160a01b031680156128d7575f5160206144595f395f51905f5280546001600160a01b0319811683179091556001600160a01b03167f8be0079c531659141344cd1fd0a4f28419497f9722a3daafe3b4186f6b6457e05f80a3565b631e4fbdf760e01b5f525f60045260245ffd5b5f1981146126255760010190565b5f5160206144595f395f51905f52546001600160a01b0316330361291857565b63118cdaa760e01b5f523360045260245ffd5b61293361283a565b5060405161294081612505565b5f815263ffffffff4316602082015265ffffffffffff4216604082015290565b8181029291811591840414171561262557565b9291908051906020810191825170014551231950b75fc4402da1732fc9bebe1982109182612bf6575b505015612ba257518455516001840155604051906129df6021836020808201945f86528051918291018484015e81015f838201520301601f19810184528361254f565b612a1c602b604051809360208201956a600b5981380380925939f360a81b87525180918484015e81015f838201520301601f19810183528261254f565b51905ff06001600160a01b03811615612b69576002830180546001600160a01b0319166001600160a01b039092169190911790555f5b600483018054821015612a90575f90815260208082208301546001600160a01b0316825260038501905260409020805460ff19169055600101612a52565b5050925f5b8451811015612ad9576001906001600160a01b03612ab382886127a6565b5116828060a01b03165f526003840160205260405f208260ff1982541617905501612a95565b5092600482018151916001600160401b03831161252057600160401b8311612520578154838355808410612b43575b50602001905f5260205f205f5b838110612b26575050505060050155565b82516001600160a01b031681830155602090920191600101612b15565b825f528360205f2091820191015b818110612b5e5750612b08565b5f8155600101612b51565b60405162461bcd60e51b81526020600482015260116024820152701111541313d65351539517d19052531151607a1b6044820152606490fd5b60405162461bcd60e51b815260206004820152602660248201527f46524f53542061676772656761746564207075626c6963206b657920697320696044820152651b9d985b1a5960d21b6064820152608490fd5b612c0092506143b3565b5f8061299c565b803b905f198201908282116126255760019060405193603e601f19910116840160405282845260208401903c90565b435f19810193929084116126255760ff16438110612c8657505f925b83811015612c62575b505f925050565b8040828103612c745750600193505050565b15612c81575f1901612c52565b612c5b565b612c909043612618565b92612c52565b903590601e198136030182121561242a57018035906001600160401b03821161242a57602001918160051b3603831361242a57565b90608081016001612cdc8284612c96565b9050116131ca57612ced8183612c96565b9050156131a357612cfd91612c96565b1561279257803590603e198136030182121561242a570191612d1f8380612c96565b92906060925f95601a60fe19843603019401945b86881015613140578760051b8401358581121561242a578401612d55816127ba565b6001600160a01b03165f90815260208890526040902054156130e3575f608082016001600160801b03612d8782614005565b161515806130d0575b6130bf575b6001600160a01b03612da6846127ba565b604051630427a21d60e11b81526020600482015294911691610124850191906001600160801b0390612e25906001600160a01b03612de3856124b4565b16602489015260208401356044890152612dff6040850161326e565b151560648901526001600160a01b03612e1a606086016124b4565b166084890152614019565b1660a4860152612e3760a0820161326e565b151560c486015236819003601e190160c08201358181121561242a578201602081359101936001600160401b03821161242a57606082023603851361242a57819061010060e48a015252610144870193905f905b8082106130755750505060e08201359081121561242a5701803560208201926001600160401b03821161242a578160051b90813603851361242a5791879594936023198785030161010488015281845260208085019385010194935f9160fe19813603015b848410612f685750505050505050602093916001600160801b03848093039316905af190811561241f575f91612f36575b50612f2e9060019261327b565b970196612d33565b90506020813d8211612f60575b81612f506020938361254f565b8101031261242a57516001612f21565b3d9150612f43565b919395979850919395601f1984820301875287358281121561242a578301602081013582526001600160a01b03612fa1604083016124b4565b1660208301526060810135603e19368390030181121561242a578101602081013591906040016001600160401b03831161242a57823603811361242a57829060e060408601528160e08601526101008501375f61010083850101526001600160801b0361301060808301614019565b16606084015260a0810135608084015260c081013563ffffffff60e01b811680910361242a578360209361305260e086956101009560a060019a01520161326e565b151560c0830152601f80199101160101990197019401918a989796959391612ef0565b90919460608060019288358152838060a01b0361309460208b016124b4565b1660208201526001600160801b036130ae60408b01614019565b166040820152019601920190612e8b565b90506130ca81614005565b90612d95565b506130dd60a08401613261565b15612d90565b60405162461bcd60e51b815260206004820152602f60248201527f636f756c646e277420706572666f726d207472616e736974696f6e20666f722060448201526e756e6b6e6f776e2070726f6772616d60881b6064820152608490fd5b93509450945050602091508181519101209101357fd04cd9af813f6f0b56e9411a6ee6a84eb5ac35a96f0c33d2e3a07d65baa8f4186020604051838152a1604051906020820192835260408201526040815261319d60608261254f565b51902090565b5050507fc5d2460186f7233c927e7db2dcc703c0e500b653ca82273b7bfad8045d85a47090565b60405162461bcd60e51b815260206004820152603460248201527f636861696e436f6d6d69746d656e7420636f756c6420636f6e7461696e206174604482015273081b5bdcdd081bdb994818dbdb5b5a5d1b595b9d60621b6064820152608490fd5b903590601e198136030182121561242a57018035906001600160401b03821161242a57602001918160061b3603831361242a57565b35801515810361242a5790565b3590811515820361242a57565b60208061275e928195946040519682889351918291018585015e820190838201520301808552018361254f565b903590605e198136030182121561242a570190565b9190820180921161262557565b60c0820160016132da8285612c96565b905011613741576132eb8184612c96565b9050156131a3576132fc9083612c96565b1561279257803590607e198136030182121561242a5701916060830190602061332483612866565b91019065ffffffffffff8061333884612866565b16911610156136e25761334a82612866565b65ffffffffffff80600286015460201c169116106136875761339065ffffffffffff6133896133838261337c87612866565b168761402d565b93612866565b168461402d565b111561362e576007820154600690920180548435946001600160a01b0394851694604082019391925f916020911660446133d6836133ce89896132a8565b01358b6132bd565b604051948593849263095ea7b360e01b84528c600485015260248401525af1801561241f576135f7575b505460405163394f179b60e11b81526001600160a01b03909116600482015260248101959095526020818101356044870152856064815f885af194851561241f575f956135bf575b5090613453916132a8565b9161345d82612866565b9260405193637fbe95b560e01b85526040600486015260a48501918035601e198236030181121561242a578101602081359101936001600160401b03821161242a578160061b3603851361242a5760606044890152819052869360c485019392915f5b81811061358757505050836020959365ffffffffffff829484895f96013560648601526134f6604060018060a01b0392016124b4565b16608485015216602483015203925af191821561241f575f92613551575b5061351e90612866565b6040519160208301938452604083015265ffffffffffff60d01b9060d01b1660608201526046815261319d60668261254f565b9091506020813d60201161357f575b8161356d6020938361254f565b8101031261242a57519061351e613514565b3d9150613560565b919550919293604080600192838060a01b036135a28a6124b4565b1681526020890135602082015201960191019188959493926134c0565b919094506020823d6020116135ef575b816135dc6020938361254f565b8101031261242a57905193613453613448565b3d91506135cf565b6020813d602011613626575b816136106020938361254f565b8101031261242a57518015158114613400575f80fd5b3d9150613603565b60405162461bcd60e51b815260206004820152602b60248201527f7265776172647320636f6d6d69746d656e74206d75737420746172676574207060448201526a726576696f75732065726160a81b6064820152608490fd5b60405162461bcd60e51b815260206004820152602d60248201527f7265776172647320636f6d6d69746d656e742074696d657374616d702070726560448201526c64617465732067656e6573697360981b6064820152608490fd5b60405162461bcd60e51b815260206004820152603160248201527f7265776172647320636f6d6d69746d656e742074696d657374616d70206d75736044820152701d08189948199bdc881d1a19481c185cdd607a1b6064820152608490fd5b608460405162461bcd60e51b815260206004820152604060248201527f7265776172647320636f6d6d69746d656e74206d75737420626520656d70747960448201527f206f7220636f6e7461696e73206f6e6c79206f6e6520636f6d6d69746d656e746064820152fd5b903590601e198136030182121561242a57018035906001600160401b03821161242a5760200191813603831361242a57565b9060e0810160016137ee8284612c96565b905011613b86576137ff8183612c96565b9050156131a35761380f91612c96565b1561279257803590609e198136030182121561242a570160608101906138358282612c96565b905015613b335765ffffffffffff600284015460201c16916138578342612618565b61386660168601548092612639565b9360808401359460018101809111612625578503613adb5761388b8561389193612960565b906132bd565b936138a0601782015486612618565b4210613a96576138af90614055565b934260058601541015613a36576139049060408401956138f66138fe6138d589886137ab565b91906138e1888a612c96565b9490916138ee368c612657565b94369161267f565b9336916126db565b92612973565b7fa1a3b42179ad30022438a1ea333b38eaf4a7329beee5e2b8111c0dcd4e08821c6020604051858152a160a08236031261242a5760405193608085018581106001600160401b038211176125205760405261395f3684612657565b8552356001600160401b03811161242a57820136601f8201121561242a5761398e90369060208135910161267f565b602085015235906001600160401b03821161242a570136601f8201121561242a576139c09036906020813591016126db565b91826040820152816060820152519160208351930151906040519283926020840195865260408401526060830160208351919301905f5b818110613a145750505081520380825261319d906020018261254f565b82516001600160a01b03168552869550602094850194909201916001016139f7565b60405162461bcd60e51b815260206004820152603260248201527f6c6f6f6b73206c696b652076616c696461746f727320666f72206e65787420656044820152711c9848185c9948185b1c9958591e481cd95d60721b6064820152608490fd5b60405162461bcd60e51b815260206004820152601b60248201527f656c656374696f6e206973206e6f7420796574207374617274656400000000006044820152606490fd5b60405162461bcd60e51b815260206004820152602a60248201527f636f6d6d69746d656e742065726120696e646578206973206e6f74206e657874604482015269040cae4c240d2dcc8caf60b31b6064820152608490fd5b60405162461bcd60e51b815260206004820152602560248201527f6e65772076616c696461746f7273206c697374206d757374206e6f7420626520604482015264656d70747960d81b6064820152608490fd5b60405162461bcd60e51b815260206004820152604360248201527f76616c696461746f727320636f6d6d69746d656e74206d75737420626520656d60448201527f707479206f7220636f6e7461696e73206f6e6c79206f6e6520636f6d6d69746d606482015262195b9d60ea1b608482015260a490fd5b909493919365ffffffffffff600283015460201c16613c1c428461402d565b613c34613c2e60168601548093612960565b836132bd565b918284108080613f86575b15613f1457508310613ecf57613c5590836132bd565b10613e7e57613c65905b82613fbe565b94601960f81b5f523060601b60025260165260365f209360028110156124345780613d7557505060018103613d30571561279257613ca681613cad926137ab565b369161267f565b916060835103613cdb57826020613cd894015160606040830151920151926001815491015490614070565b90565b60405162461bcd60e51b815260206004820152602760248201527f46524f5354207369676e6174757265206c656e677468206d75737420626520396044820152663620627974657360c81b6064820152608490fd5b60405162461bcd60e51b815260206004820152601e60248201527f46524f5354207369676e6174757265206d7573742062652073696e676c6500006044820152606490fd5b919391600114613d885750505050505f90565b613da29061ffff6008600488979801549201541690613f9c565b925f9260035f9201915b86811015613e7357613ddb613dd2613dcc613ca68460051b8601866137ab565b86614319565b90929192614353565b6001600160a01b0381165f9081526020859052604090205460ff16613e06575b506001905b01613dac565b6001600160a01b03165f9081527ff02b465737fa6045c2ff53fb2df43c66916ac2166fa303264668fb2f6a1d8c0060205260409020805c15613e4b5750600190613e00565b946001613e5992965d6128ea565b93858514613e67575f613dfb565b50505050505050600190565b505050505050505f90565b60405162461bcd60e51b8152602060048201526024808201527f74696d657374616d70206973206f6c646572207468616e2070726576696f75736044820152632065726160e01b6064820152608490fd5b60405162461bcd60e51b815260206004820152601e60248201527f63616e6e6f742076616c6964617465206265666f72652067656e6573697300006044820152606490fd5b9392915050428211613f3757613c6592613f2f575b50613c5f565b90505f613f29565b60405162461bcd60e51b815260206004820152602160248201527f74696d657374616d702063616e6e6f7420626520696e207468652066757475726044820152606560f81b6064820152608490fd5b50613f956018870154856132bd565b4210613c3f565b61ffff613faa921690612960565b61270f810180911161262557612710900490565b90613fc99082614230565b15613fd457600f0190565b60090190565b60ff5f5160206144995f395f51905f525460401c1615613ff657565b631afcd79f60e31b5f5260045ffd5b356001600160801b038116810361242a5790565b35906001600160801b038216820361242a57565b601661404c613cd89365ffffffffffff600285015460201c1690612618565b91015490612639565b61405f4282614230565b1561406a5760090190565b600f0190565b929391949061407f85876143b3565b156142265782156142265770014551231950b75fc4402da1732fc9bebe19831015614226576001169061010e6040519161012083018381106001600160401b0382111761242a5760405260883684376002600188160160888401538760898401526002840160a984015360aa830186905260ca8301527e300046524f53542d736563703235366b312d4b454343414b3235362d76316360ea8301526303430b6160e51b61010a830152812060cc820181815290600260ec84016001815360428420809318845253604270014551231950b75fc4402da1732fc9bebe19922060801c6001600160401b0360801b8260801b16179070014551231950b75fc4402da1732fc9bebe1990600160c01b9060401c09088015613e735784601b6080945f9660209870014551231950b75fc4402da1732fc9bebe19910970014551231950b75fc4402da1732fc9bebe19038552018684015280604084015270014551231950b75fc4402da1732fc9bebe19910970014551231950b75fc4402da1732fc9bebe1903606082015282805260015afa505f51915f5260205260018060a01b0360405f20161490565b5050505050505f90565b906014600e8301549201548083146142d5578181841093119182159111159181906142ce575b1561426b578261426557505090565b14919050565b60405162461bcd60e51b815260206004820152603560248201527f636f756c64206e6f74206964656e746966792076616c696461746f727320666f6044820152740722074686520676976656e2074696d657374616d7605c1b6064820152608490fd5b5081614256565b606460405162461bcd60e51b815260206004820152602060248201527f657261732074696d657374616d70206d757374206e6f7420626520657175616c6044820152fd5b8151919060418303614349576143429250602082015190606060408401519301515f1a906143d6565b9192909190565b50505f9160029190565b60048110156124345780614365575050565b6001810361437c5763f645eedf60e01b5f5260045ffd5b60028103614397575063fce698f760e01b5f5260045260245ffd5b6003146143a15750565b6335e2f38360e21b5f5260045260245ffd5b6401000003d01990600790829081818009900908906401000003d0199080091490565b91907f7fffffffffffffffffffffffffffffff5d576e7357a4501ddfe92f46681b20a0841161444d579160209360809260ff5f9560405194855216868401526040830152606082015282805260015afa1561241f575f516001600160a01b0381161561444357905f905f90565b505f906001905f90565b5050505f916003919056fe9016d09d72d40fdae2fd8ceac6b6234c7706214fd39c1cd1e609a0528c1993005c09ca1b9b8127a4fd9f3c384aac59b661441e820e17733753ff5f2e86e1e000f0c57e16840df040f15088dc2f81fe391c3923bec73e23a9662efc9c229c6a00f0c57e16840df040f15088dc2f81fe391c3923bec73e23a9662efc9c229c6a00","linkReferences":{}},"methodIdentifiers":{"areValidators(address[])":"8f381dbe","codeState(bytes32)":"c13911e8","codesStates(bytes32[])":"82bdeaad","commitBatch((bytes32,uint48,bytes32,uint8,((address,bytes32,bool,address,uint128,bool,(bytes32,address,uint128)[],(bytes32,address,bytes,uint128,(bytes32,bytes4),bool)[])[],bytes32)[],(bytes32,bool)[],((uint256,bytes32),((address,uint256)[],uint256,address),uint48)[],((uint256,uint256),bytes,address[],uint256)[]),uint8,bytes[])":"b24fcac0","computeSettings()":"84d22a4f","createProgram(bytes32,bytes32,address)":"3683c4d2","createProgramWithAbiInterface(bytes32,bytes32,address,address)":"0c18d277","genesisBlockHash()":"28e24b3d","genesisTimestamp()":"cacf66ab","initialize(address,address,address,address,uint256,uint256,uint256,(uint256,uint256),bytes,address[])":"53f7fd48","isValidator(address)":"facd743b","latestCommittedBatchHash()":"71a8cf2d","latestCommittedBatchTimestamp()":"d456fd51","lookupGenesisHash()":"8b1edf1e","middleware()":"f4f20ac0","mirrorImpl()":"e6fabc09","owner()":"8da5cb5b","programCodeId(address)":"9067088e","programsCodeIds(address[])":"baaf0201","programsCount()":"96a2ddfa","reinitialize()":"6c2eb350","renounceOwnership()":"715018a6","requestCodeValidation(bytes32)":"120e3f1e","setMirror(address)":"3d43b418","signingThresholdPercentage()":"efd81abc","timelines()":"9eb939a8","transferOwnership(address)":"f2fde38b","validatedCodesCount()":"007a32e7","validators()":"ca1e7819","validatorsAggregatedPublicKey()":"3bd109fa","validatorsCount()":"ed612f8c","validatorsThreshold()":"edc87225","validatorsVerifiableSecretSharingCommitment()":"a5d53a44","wrappedVara()":"88f50cf0"},"storageLayout":{"storage":[],"types":{}},"id":156}