{"abi":[{"type":"constructor","inputs":[],"stateMutability":"nonpayable"},{"type":"function","name":"areValidators","inputs":[{"name":"_validators","type":"address[]","internalType":"address[]"}],"outputs":[{"name":"","type":"bool","internalType":"bool"}],"stateMutability":"view"},{"type":"function","name":"codeState","inputs":[{"name":"_codeId","type":"bytes32","internalType":"bytes32"}],"outputs":[{"name":"","type":"uint8","internalType":"enum Gear.CodeState"}],"stateMutability":"view"},{"type":"function","name":"codesStates","inputs":[{"name":"_codesIds","type":"bytes32[]","internalType":"bytes32[]"}],"outputs":[{"name":"","type":"uint8[]","internalType":"enum Gear.CodeState[]"}],"stateMutability":"view"},{"type":"function","name":"commitBlocks","inputs":[{"name":"_blockCommitments","type":"tuple[]","internalType":"struct Gear.BlockCommitment[]","components":[{"name":"hash","type":"bytes32","internalType":"bytes32"},{"name":"timestamp","type":"uint48","internalType":"uint48"},{"name":"previousCommittedBlock","type":"bytes32","internalType":"bytes32"},{"name":"predecessorBlock","type":"bytes32","internalType":"bytes32"},{"name":"transitions","type":"tuple[]","internalType":"struct Gear.StateTransition[]","components":[{"name":"actorId","type":"address","internalType":"address"},{"name":"newStateHash","type":"bytes32","internalType":"bytes32"},{"name":"inheritor","type":"address","internalType":"address"},{"name":"valueToReceive","type":"uint128","internalType":"uint128"},{"name":"valueClaims","type":"tuple[]","internalType":"struct Gear.ValueClaim[]","components":[{"name":"messageId","type":"bytes32","internalType":"bytes32"},{"name":"destination","type":"address","internalType":"address"},{"name":"value","type":"uint128","internalType":"uint128"}]},{"name":"messages","type":"tuple[]","internalType":"struct Gear.Message[]","components":[{"name":"id","type":"bytes32","internalType":"bytes32"},{"name":"destination","type":"address","internalType":"address"},{"name":"payload","type":"bytes","internalType":"bytes"},{"name":"value","type":"uint128","internalType":"uint128"},{"name":"replyDetails","type":"tuple","internalType":"struct Gear.ReplyDetails","components":[{"name":"to","type":"bytes32","internalType":"bytes32"},{"name":"code","type":"bytes4","internalType":"bytes4"}]}]}]}]},{"name":"_signatureType","type":"uint8","internalType":"enum Gear.SignatureType"},{"name":"_signatures","type":"bytes[]","internalType":"bytes[]"}],"outputs":[],"stateMutability":"nonpayable"},{"type":"function","name":"commitCodes","inputs":[{"name":"_codeCommitments","type":"tuple[]","internalType":"struct Gear.CodeCommitment[]","components":[{"name":"id","type":"bytes32","internalType":"bytes32"},{"name":"valid","type":"bool","internalType":"bool"}]},{"name":"_signatureType","type":"uint8","internalType":"enum Gear.SignatureType"},{"name":"_signatures","type":"bytes[]","internalType":"bytes[]"}],"outputs":[],"stateMutability":"nonpayable"},{"type":"function","name":"commitValidators","inputs":[{"name":"_validatorsCommitment","type":"tuple","internalType":"struct Gear.ValidatorsCommitment","components":[{"name":"aggregatedPublicKey","type":"tuple","internalType":"struct Gear.AggregatedPublicKey","components":[{"name":"x","type":"uint256","internalType":"uint256"},{"name":"y","type":"uint256","internalType":"uint256"}]},{"name":"verifyingShares","type":"tuple[]","internalType":"struct Gear.VerifyingShare[]","components":[{"name":"x","type":"uint256","internalType":"uint256"},{"name":"y","type":"uint256","internalType":"uint256"}]},{"name":"validators","type":"address[]","internalType":"address[]"},{"name":"eraIndex","type":"uint256","internalType":"uint256"}]},{"name":"_signatureType","type":"uint8","internalType":"enum Gear.SignatureType"},{"name":"_signatures","type":"bytes[]","internalType":"bytes[]"}],"outputs":[],"stateMutability":"nonpayable"},{"type":"function","name":"computeSettings","inputs":[],"outputs":[{"name":"","type":"tuple","internalType":"struct Gear.ComputationSettings","components":[{"name":"threshold","type":"uint64","internalType":"uint64"},{"name":"wvaraPerSecond","type":"uint128","internalType":"uint128"}]}],"stateMutability":"view"},{"type":"function","name":"createProgram","inputs":[{"name":"_codeId","type":"bytes32","internalType":"bytes32"},{"name":"_salt","type":"bytes32","internalType":"bytes32"}],"outputs":[{"name":"","type":"address","internalType":"address"}],"stateMutability":"nonpayable"},{"type":"function","name":"createProgramWithDecoder","inputs":[{"name":"_decoderImpl","type":"address","internalType":"address"},{"name":"_codeId","type":"bytes32","internalType":"bytes32"},{"name":"_salt","type":"bytes32","internalType":"bytes32"}],"outputs":[{"name":"","type":"address","internalType":"address"}],"stateMutability":"nonpayable"},{"type":"function","name":"genesisBlockHash","inputs":[],"outputs":[{"name":"","type":"bytes32","internalType":"bytes32"}],"stateMutability":"view"},{"type":"function","name":"genesisTimestamp","inputs":[],"outputs":[{"name":"","type":"uint48","internalType":"uint48"}],"stateMutability":"view"},{"type":"function","name":"initialize","inputs":[{"name":"_owner","type":"address","internalType":"address"},{"name":"_mirror","type":"address","internalType":"address"},{"name":"_mirrorProxy","type":"address","internalType":"address"},{"name":"_wrappedVara","type":"address","internalType":"address"},{"name":"_eraDuration","type":"uint256","internalType":"uint256"},{"name":"_electionDuration","type":"uint256","internalType":"uint256"},{"name":"_validationDelay","type":"uint256","internalType":"uint256"},{"name":"_aggregatedPublicKey","type":"tuple","internalType":"struct Gear.AggregatedPublicKey","components":[{"name":"x","type":"uint256","internalType":"uint256"},{"name":"y","type":"uint256","internalType":"uint256"}]},{"name":"_verifyingShares","type":"tuple[]","internalType":"struct Gear.VerifyingShare[]","components":[{"name":"x","type":"uint256","internalType":"uint256"},{"name":"y","type":"uint256","internalType":"uint256"}]},{"name":"_validators","type":"address[]","internalType":"address[]"}],"outputs":[],"stateMutability":"nonpayable"},{"type":"function","name":"isValidator","inputs":[{"name":"_validator","type":"address","internalType":"address"}],"outputs":[{"name":"","type":"bool","internalType":"bool"}],"stateMutability":"view"},{"type":"function","name":"latestCommittedBlockHash","inputs":[],"outputs":[{"name":"","type":"bytes32","internalType":"bytes32"}],"stateMutability":"view"},{"type":"function","name":"lookupGenesisHash","inputs":[],"outputs":[],"stateMutability":"nonpayable"},{"type":"function","name":"mirrorImpl","inputs":[],"outputs":[{"name":"","type":"address","internalType":"address"}],"stateMutability":"view"},{"type":"function","name":"mirrorProxyImpl","inputs":[],"outputs":[{"name":"","type":"address","internalType":"address"}],"stateMutability":"view"},{"type":"function","name":"owner","inputs":[],"outputs":[{"name":"","type":"address","internalType":"address"}],"stateMutability":"view"},{"type":"function","name":"programCodeId","inputs":[{"name":"_programId","type":"address","internalType":"address"}],"outputs":[{"name":"","type":"bytes32","internalType":"bytes32"}],"stateMutability":"view"},{"type":"function","name":"programsCodeIds","inputs":[{"name":"_programsIds","type":"address[]","internalType":"address[]"}],"outputs":[{"name":"","type":"bytes32[]","internalType":"bytes32[]"}],"stateMutability":"view"},{"type":"function","name":"programsCount","inputs":[],"outputs":[{"name":"","type":"uint256","internalType":"uint256"}],"stateMutability":"view"},{"type":"function","name":"reinitialize","inputs":[],"outputs":[],"stateMutability":"nonpayable"},{"type":"function","name":"renounceOwnership","inputs":[],"outputs":[],"stateMutability":"nonpayable"},{"type":"function","name":"requestCodeValidation","inputs":[{"name":"_codeId","type":"bytes32","internalType":"bytes32"},{"name":"_blobTxHash","type":"bytes32","internalType":"bytes32"}],"outputs":[],"stateMutability":"nonpayable"},{"type":"function","name":"setMirror","inputs":[{"name":"newMirror","type":"address","internalType":"address"}],"outputs":[],"stateMutability":"nonpayable"},{"type":"function","name":"signingThresholdPercentage","inputs":[],"outputs":[{"name":"","type":"uint16","internalType":"uint16"}],"stateMutability":"view"},{"type":"function","name":"transferOwnership","inputs":[{"name":"newOwner","type":"address","internalType":"address"}],"outputs":[],"stateMutability":"nonpayable"},{"type":"function","name":"validatedCodesCount","inputs":[],"outputs":[{"name":"","type":"uint256","internalType":"uint256"}],"stateMutability":"view"},{"type":"function","name":"validators","inputs":[],"outputs":[{"name":"","type":"address[]","internalType":"address[]"}],"stateMutability":"view"},{"type":"function","name":"validatorsAggregatedPublicKey","inputs":[],"outputs":[{"name":"","type":"tuple","internalType":"struct Gear.AggregatedPublicKey","components":[{"name":"x","type":"uint256","internalType":"uint256"},{"name":"y","type":"uint256","internalType":"uint256"}]}],"stateMutability":"view"},{"type":"function","name":"validatorsCount","inputs":[],"outputs":[{"name":"","type":"uint256","internalType":"uint256"}],"stateMutability":"view"},{"type":"function","name":"validatorsThreshold","inputs":[],"outputs":[{"name":"","type":"uint256","internalType":"uint256"}],"stateMutability":"view"},{"type":"function","name":"validatorsVerifyingShares","inputs":[],"outputs":[{"name":"","type":"tuple[]","internalType":"struct Gear.VerifyingShare[]","components":[{"name":"x","type":"uint256","internalType":"uint256"},{"name":"y","type":"uint256","internalType":"uint256"}]}],"stateMutability":"view"},{"type":"function","name":"wrappedVara","inputs":[],"outputs":[{"name":"","type":"address","internalType":"address"}],"stateMutability":"view"},{"type":"event","name":"BlockCommitted","inputs":[{"name":"hash","type":"bytes32","indexed":false,"internalType":"bytes32"}],"anonymous":false},{"type":"event","name":"CodeGotValidated","inputs":[{"name":"codeId","type":"bytes32","indexed":false,"internalType":"bytes32"},{"name":"valid","type":"bool","indexed":true,"internalType":"bool"}],"anonymous":false},{"type":"event","name":"CodeValidationRequested","inputs":[{"name":"codeId","type":"bytes32","indexed":false,"internalType":"bytes32"},{"name":"blobTxHash","type":"bytes32","indexed":false,"internalType":"bytes32"}],"anonymous":false},{"type":"event","name":"ComputationSettingsChanged","inputs":[{"name":"threshold","type":"uint64","indexed":false,"internalType":"uint64"},{"name":"wvaraPerSecond","type":"uint128","indexed":false,"internalType":"uint128"}],"anonymous":false},{"type":"event","name":"Initialized","inputs":[{"name":"version","type":"uint64","indexed":false,"internalType":"uint64"}],"anonymous":false},{"type":"event","name":"NextEraValidatorsCommitted","inputs":[{"name":"startTimestamp","type":"uint256","indexed":false,"internalType":"uint256"}],"anonymous":false},{"type":"event","name":"OwnershipTransferred","inputs":[{"name":"previousOwner","type":"address","indexed":true,"internalType":"address"},{"name":"newOwner","type":"address","indexed":true,"internalType":"address"}],"anonymous":false},{"type":"event","name":"ProgramCreated","inputs":[{"name":"actorId","type":"address","indexed":false,"internalType":"address"},{"name":"codeId","type":"bytes32","indexed":true,"internalType":"bytes32"}],"anonymous":false},{"type":"event","name":"StorageSlotChanged","inputs":[],"anonymous":false},{"type":"error","name":"ECDSAInvalidSignature","inputs":[]},{"type":"error","name":"ECDSAInvalidSignatureLength","inputs":[{"name":"length","type":"uint256","internalType":"uint256"}]},{"type":"error","name":"ECDSAInvalidSignatureS","inputs":[{"name":"s","type":"bytes32","internalType":"bytes32"}]},{"type":"error","name":"FailedDeployment","inputs":[]},{"type":"error","name":"InsufficientBalance","inputs":[{"name":"balance","type":"uint256","internalType":"uint256"},{"name":"needed","type":"uint256","internalType":"uint256"}]},{"type":"error","name":"InvalidInitialization","inputs":[]},{"type":"error","name":"NotInitializing","inputs":[]},{"type":"error","name":"OwnableInvalidOwner","inputs":[{"name":"owner","type":"address","internalType":"address"}]},{"type":"error","name":"OwnableUnauthorizedAccount","inputs":[{"name":"account","type":"address","internalType":"address"}]},{"type":"error","name":"ReentrancyGuardReentrantCall","inputs":[]}],"bytecode":{"object":"0x6080806040523460aa575f516020613c7f5f395f51905f525460ff8160401c16609b576002600160401b03196001600160401b038216016049575b604051613bd090816100af8239f35b6001600160401b0319166001600160401b039081175f516020613c7f5f395f51905f525581527fc7f505b2f371ae2175ee4913f4499e1f2633a7b5936321eed1cdaeb6115181d290602090a15f80603a565b63f92ee8a960e01b5f5260045ffd5b5f80fdfe6101a0806040526004361015610013575f80fd5b5f610140525f3560e01c9081627a32e7146126ce575080630d9078b1146122965780631c149d8a1461215157806328e24b3d14612127578063389e757914611bce5780633bd109fa14611b805780633d43b41814611b2e57806344d5ec1f14611924578063527de0f91461189d57806365ecfea2146118625780636c2eb35014611536578063715018a6146114c45780637b4dda971461143a57806382bdeaad1461130f57806384d22a4f146112a457806388f50cf0146112695780638b1edf1e1461119c5780638da5cb5b146111655780638f381dbe146111205780639067088e146110d857806396a2ddfa146110a8578063b6a4968014610681578063baaf020114610580578063c13911e814610536578063c9f16a1114610506578063ca1e78191461047f578063cacf66ab14610445578063e6fabc091461040a578063e7006a74146102df578063ed612f8c146102a5578063edc8722514610259578063efd81abc14610225578063f2fde38b146101f55763facd743b14610197575f80fd5b346101ee5760203660031901126101ee576101b061273e565b60036101cb5f516020613b5b5f395f51905f52544290613784565b019060018060a01b03165f52602052602060ff60405f2054166040519015158152f35b6101405180fd5b346101ee5760203660031901126101ee5761021e61021161273e565b61021961305a565b612c18565b6101405180f35b346101ee57610140513660031901126101ee57602061ffff60075f516020613b5b5f395f51905f5254015416604051908152f35b346101ee57610140513660031901126101ee57602061029d5f516020613b5b5f395f51905f525461ffff600760046102914285613784565b0154920154169061362b565b604051908152f35b346101ee57610140513660031901126101ee57602060046102d55f516020613b5b5f395f51905f52544290613784565b0154604051908152f35b346101ee5760603660031901126101ee576102f861273e565b602435906103406044359161030d838561308d565b93604051936020850191825260408501526040845261032d606085612826565b92519092206001600160a01b03926139bb565b16803b156101ee5760405163189acdbd60e31b81526001600160a01b0390921660048301819052610140519092908160248183865af180156103e1576103ef575b50813b156101ee5760405163485cc95560e01b81523360048201526024810191909152610140518160448183865af180156103e1576103c6575b602082604051908152f35b610140516103d391612826565b610140516101ee57816103bb565b6040513d61014051823e3d90fd5b610140516103fc91612826565b610140516101ee5782610381565b346101ee57610140513660031901126101ee575f516020613b5b5f395f51905f5254600401546040516001600160a01b039091168152602090f35b346101ee57610140513660031901126101ee57602065ffffffffffff60015f516020613b5b5f395f51905f52540154821c16604051908152f35b346101ee57610140513660031901126101ee576104b660046104b05f516020613b5b5f395f51905f52544290613784565b01612afc565b604051809160208201602083528151809152602060408401920190610140515b8181106104e4575050500390f35b82516001600160a01b03168452859450602093840193909201916001016104d6565b346101ee57610140513660031901126101ee57602060025f516020613b5b5f395f51905f52540154604051908152f35b346101ee5760203660031901126101ee5760185f516020613b5b5f395f51905f5254016004356101405152602052602060ff60406101405120541661057e6040518092612798565bf35b346101ee5760203660031901126101ee576004356001600160401b0381116101ee576105b09036906004016126f8565b5f516020613b5b5f395f51905f5254916105c98261286f565b926105d76040519485612826565b8284526105e38361286f565b602085019390601f19013685376019610140519201915b81811061064857848660405191829160208301906020845251809152604083019190610140515b81811061062f575050500390f35b8251845285945060209384019390920191600101610621565b8061065e6106596001938588612b4d565b612b85565b828060a01b03165f528360205260405f205461067a8289612b71565b52016105fa565b346101ee5760603660031901126101ee576004356001600160401b0381116101ee576106b19036906004016126f8565b9060c052600260243510156101ee576044356001600160401b0381116101ee576106df9036906004016126f8565b907f9b779b17422d0df92223018b32b4d1fa46e071723d6817e2486d003becc55f005c6110935760017f9b779b17422d0df92223018b32b4d1fa46e071723d6817e2486d003becc55f005d5f516020613b5b5f395f51905f52546101005261074c61010051541515612968565b821561104e5761014051608081905260e05291606091905b8060e0511015610ffb57610140515060e05160051b60c051013560a052609e1960c05136030160a05112156101ee576002610100510154604060a05160c05101013503610fa8576107be606060a05160c0510101356137a0565b15610f545760206107d68160a05160c0510101612c05565b65ffffffffffff604051916107ea8361280b565b60a05160c0510135835216918291015260a05160c0510135600261010051015565ffffffffffff1960036101005101541617600361010051015561083d608060a05160c051010160a05160c05101612933565b6101605261012052610140519160605b61016051841015610e4357610120513681900360be1901600586901b9091013512156101ee5761088a8460051b6101205101356101205101612b85565b6001600160a01b03165f90815261010051601901602052604090205415610de65760018060a01b036006610100510154166108d28560051b6101205101356101205101612b85565b60608660051b610120510135610120510101356001600160801b03811681036101ee5760405163a9059cbb60e01b81526001600160a01b0390921660048301526001600160801b03166024820152610140519091602091839160449183915af180156103e157610dad575b50610120516001600160a01b039061095d90600587901b81013501612b85565b16604051610180526309ed323560e41b61018051526020600461018051015260e461018051019060018060a01b036109a28760051b6101205101356101205101612754565b16602461018051015260208660051b61012051013561012051010135604461018051015260018060a01b036109e760408860051b610120510135610120510101612754565b1660646101805101526001600160801b03610a1260608860051b6101205101356101205101016137e3565b6101805191166084919091015261012051600587901b810135016080810135903603601e19018112156101ee578660051b610120510135610120510101916001600160401b038335116101ee576060833502360360208401136101ee5760c060a461018051015282359052610104610180510191602081019061014051905b80358210610d6357505061012051600588901b8101350160a08101359391503603601e19018312156101ee576001600160401b038760051b6101205101356101205101840135116101ee5761012051600588811b8201359091018401803590911b36036020909101136101ee57610180518082036023190160c4909101526101208051600589811b82810135909201860135845291516101405191810135018501602081810196913590931b840183019493928301925b8a60051b61012051013561012051018201358310610bdd575050505060209250610180519161018051900390610180519061014051905af180156103e1576101405190610ba4575b610b9c90600192612a2b565b93019261084d565b5060203d8111610bd6575b80610bbf60209261018051612826565b6101805190810103126101ee576101805151610b90565b503d610baf565b9091929394601f1982820301855286359060de198c60051b610120510135610120510185013603018212156101ee57610120805160058e901b818101359091018601840160200135835290516001600160a01b0391610c4791908101350186018401604001612754565b1660208201526101205160058d901b8101350184018201606081013590603e193691909103018112156101ee576101205160058e901b810135018501830101602001916001600160401b038335116101ee578235360360208401136101ee5760c09060a08e83604086015285358486015285356020870160e08701376101405160e08735870101526001600160801b03610cf560808360051b61012051013561012051018b018601016137e3565b16606086015260051b610120510135610120510187018201013560808401528d60051b610120510135610120510186010101359163ffffffff60e01b83168093036101ee5760a08201929092526020978801979135601f01601f19160160e001959401926001019190610b48565b90919360608060019287358152838060a01b03610d8260208a01612754565b1660208201526001600160801b03610d9c60408a016137e3565b166040820152019501920190610a91565b6020813d8211610dde575b81610dc560209383612826565b810103126101ee5751801515811461093d576101405180fd5b3d9150610db8565b60405162461bcd60e51b815260206004820152602f60248201527f636f756c646e277420706572666f726d207472616e736974696f6e20666f722060448201526e756e6b6e6f776e2070726f6772616d60881b6064820152608490fd5b610efc92959350939093602081519101207fd756eca21e02cb0dbde1e44a4d9c6921b5c8aa4668cfa0752784b3dc855bce1e602060405160a05160c05101358152a1610e97602060a05160c0510101612c05565b9060405190602082019260a05160c0510135845265ffffffffffff60d01b9060d01b166040830152604060a05160c0510101356046830152606060a05160c0510101356066830152608682015260868152610ef360a682612826565b51902090612a2b565b9260805165ffffffffffff610f19602060a05160c0510101612c05565b1611610f32575b600160e0510160e05292919092610764565b65ffffffffffff610f4b602060a05160c0510101612c05565b16608052610f20565b60405162461bcd60e51b815260206004820152602660248201527f616c6c6f776564207072656465636573736f7220626c6f636b207761736e277460448201526508199bdd5b9960d21b6064820152608490fd5b60405162461bcd60e51b815260206004820152602560248201527f696e76616c69642070726576696f757320636f6d6d697474656420626c6f636b604482015264040d0c2e6d60db1b6064820152608490fd5b61102161101c84848760805192602435906020815191012061010051613206565b612a5a565b610140517f9b779b17422d0df92223018b32b4d1fa46e071723d6817e2486d003becc55f005d6101405180f35b60405162461bcd60e51b815260206004820152601e60248201527f6e6f20626c6f636b20636f6d6d69746d656e747320746f20636f6d6d697400006044820152606490fd5b633ee5aeb560e01b6101405152600461014051fd5b346101ee57610140513660031901126101ee576020601a5f516020613b5b5f395f51905f52540154604051908152f35b346101ee5760203660031901126101ee576110f161273e565b60195f516020613b5b5f395f51905f5254019060018060a01b03165f52602052602060405f2054604051908152f35b346101ee5760203660031901126101ee576004356001600160401b0381116101ee5761115b61115560209236906004016126f8565b90612b99565b6040519015158152f35b346101ee57610140513660031901126101ee575f516020613b3b5f395f51905f52546040516001600160a01b039091168152602090f35b346101ee57610140513660031901126101ee575f516020613b5b5f395f51905f525480546112245763ffffffff600182015416409081156111df57556101405180f35b60405162461bcd60e51b815260206004820152601d60248201527f756e61626c6520746f206c6f6f6b75702067656e6573697320686173680000006044820152606490fd5b60405162461bcd60e51b815260206004820152601860248201527f67656e65736973206861736820616c72656164792073657400000000000000006044820152606490fd5b346101ee57610140513660031901126101ee575f516020613b5b5f395f51905f5254600601546040516001600160a01b039091168152602090f35b346101ee57610140513660031901126101ee576112bf6129da565b50604060145f516020613b5b5f395f51905f5254016001600160801b038251916112e88361280b565b548160206001600160401b038316948581520191851c168152835192835251166020820152f35b346101ee5760203660031901126101ee576004356001600160401b0381116101ee5761133f9036906004016126f8565b5f516020613b5b5f395f51905f5254916113588261286f565b926113666040519485612826565b8284526113728361286f565b602085019390601f19013685376018610140519201915b8181106113e157848660405191829160208301906020845251809152604083019190610140515b8181106113be575050500390f35b91935091602080826113d36001948851612798565b0194019101918493926113b0565b6113ec818386612b4d565b3561014051528260205260ff6040610140512054169061140c8188612b71565b916003811015611420576001925201611389565b634e487b7160e01b61014051526021600452602461014051fd5b346101ee57610140513660031901126101ee57611471600261146b5f516020613b5b5f395f51905f52544290613784565b01612aa6565b604051809160208201602083528151809152602060408401920190610140515b81811061149f575050500390f35b8251805185526020908101518186015286955060409094019390920191600101611491565b346101ee57610140513660031901126101ee576114df61305a565b5f516020613b3b5f395f51905f5280546001600160a01b0319811690915561014051906001600160a01b03167f8be0079c531659141344cd1fd0a4f28419497f9722a3daafe3b4186f6b6457e08280a36101405180f35b346101ee57610140513660031901126101ee5761155161305a565b5f516020613b7b5f395f51905f525460ff8160401c16801561184e575b6118395768ffffffffffffffffff191668010000000000000002175f516020613b7b5f395f51905f52555f516020613b5b5f395f51905f5254604080516115b58282612826565b6017815260208101907f726f757465722e73746f726167652e526f75746572563200000000000000000082526115e961305a565b5190205f1981019190821161181f577fc7f505b2f371ae2175ee4913f4499e1f2633a7b5936321eed1cdaeb6115181d2926020928251908482019081528482526116338483612826565b60ff19915190201690815f516020613b5b5f395f51905f5255611654613015565b80518355600183019063ffffffff868201511669ffffffffffff00000000868454930151881b169169ffffffffffffffffffff1916171790556004810160048301908082036117d1575b505061ffff600782015416600783019061ffff198254161790556117056116c54283613784565b60026116d14285613784565b016116f16116eb60046116e44288613784565b01936129f2565b91612aa6565b6116fb4293612afc565b9160088601612cff565b60148101601483019080820361177f575b505060158101601583019181830361175f575b5050505060ff60401b195f516020613b7b5f395f51905f5254165f516020613b7b5f395f51905f52555160028152a16101405180f35b601792839254905560168101546016850155015491015583808080611729565b806001600160401b03806001600160801b03935416166001600160401b031984541617835554851c16600160401b600160c01b03825491861b1690600160401b600160c01b0319161790558580611716565b5481546001600160a01b03199081166001600160a01b03928316179092556005838101549085018054841691831691909117905560068084015490850180549093169116179055858061169e565b634e487b7160e01b61014051526011600452602461014051fd5b63f92ee8a960e01b6101405152600461014051fd5b5060026001600160401b038216101561156e565b346101ee57610140513660031901126101ee575f516020613b5b5f395f51905f5254600501546040516001600160a01b039091168152602090f35b34611920576118bd6118ae36612728565b6001600160a01b03929161308d565b16803b15611920576040519063485cc95560e01b82523360048301525f60248301525f8260448183855af191821561191557602092611900575b50604051908152f35b5f61190a91612826565b5f61014052826118f7565b6040513d5f823e3d90fd5b5f80fd5b34611920576060366003190112611920576004356001600160401b03811161192057611954903690600401612768565b602435906002821015611920576044356001600160401b03811161192057611981849136906004016126f8565b9390915f516020613b5b5f395f51905f5254946119a086541515612968565b60188601935f9360605b87861015611b13578560061b8501803591825f528860205260ff60405f2054166003811015611aff57600103611a9c57600192611a576020611a7b94018d6119f182612a10565b15611a8357601b90845f528d60205260405f20600260ff1982541617905501611a1a8154612a1d565b90555b611a2681612a10565b15157f460119a8f69a33ed127de517d5ea464e958ce23ef19e4420a8b92bf780bbc2c96020604051868152a2612a10565b6040519060208201928352151560f81b604082015260218152610ef3604182612826565b9501946119aa565b50825f528b60205260405f2060ff198154169055611a1d565b60405162461bcd60e51b815260206004820152603560248201527f636f6465206d7573742062652072657175657374656420666f722076616c6964604482015274185d1a5bdb881d1bc818994818dbdb5b5a5d1d1959605a1b6064820152608490fd5b634e487b7160e01b5f52602160045260245ffd5b9261101c928992611b2c95602081519101204294613206565b005b3461192057602036600319011261192057611b4761273e565b611b4f61305a565b5f516020613b5b5f395f51905f525460040180546001600160a01b0319166001600160a01b03909216919091179055005b34611920575f36600319011261192057611b986129da565b506040611bbc611bb75f516020613b5b5f395f51905f52544290613784565b6129f2565b60208251918051835201516020820152f35b346119205761016036600319011261192057611be861273e565b6024356001600160a01b0381169190829003611920576044356001600160a01b0381169290839003611920576064356001600160a01b038116908190036119205760c43593608435929060a43560403660e319011261192057610124356001600160401b03811161192057611c61903690600401612768565b919092610144356001600160401b03811161192057611c849036906004016126f8565b9690945f516020613b7b5f395f51905f525460ff8160401c16159a6001600160401b0382168015908161211f575b6001149081612115575b15908161210c575b506120fd5767ffffffffffffffff1982166001175f516020613b7b5f395f51905f5255611d02918c6120d1575b50611cfa613759565b610219613759565b421561207b5783156120255783891115611fc457600a611d22858b6127a5565b048b1015611f7f5760409a8b51611d398d82612826565b6017815260208101907f726f757465722e73746f726167652e526f7574657256310000000000000000008252611d6d61305a565b5190205f19810195908611611f6b57611f149a828e611f0396611f0d98600560089b8451906020820190815260208252611da78683612826565b60ff1991519020169e8f90815f516020613b5b5f395f51905f5255611dca613015565b80518355600183019063ffffffff60208201511669ffffffffffff0000000089845493015160201b169169ffffffffffffffffffff19161717905584868051611e12816127f0565b8381526020810187905201526004820180546001600160a01b03199081166001600160a01b039384161790915592909101805483169382169390931790925560068f0180549091169290911691909117905560078c01805461ffff1916611a0a179055611e7d6129da565b506509184e72a00060208251611e928161280b565b639502f9008152015260148c0180546001600160c01b0319166d09184e72a000000000009502f9001790558051611ec8816127f0565b838152846020820152015260158a0155601689015560178801558a5194611eee8661280b565b60e43586526101043560208701523691612886565b93429636916128df565b9301612cff565b611f1a57005b60207fc7f505b2f371ae2175ee4913f4499e1f2633a7b5936321eed1cdaeb6115181d29160ff60401b195f516020613b7b5f395f51905f5254165f516020613b7b5f395f51905f52555160018152a1005b634e487b7160e01b5f52601160045260245ffd5b60405162461bcd60e51b815260206004820152601b60248201527f76616c69646174696f6e2064656c617920697320746f6f2062696700000000006044820152606490fd5b60405162461bcd60e51b815260206004820152603360248201527f657261206475726174696f6e206d757374206265206772656174657220746861604482015272371032b632b1ba34b7b710323ab930ba34b7b760691b6064820152608490fd5b60405162461bcd60e51b815260206004820152602860248201527f656c656374696f6e206475726174696f6e206d75737420626520677265617465604482015267072207468616e20360c41b6064820152608490fd5b60405162461bcd60e51b815260206004820152602860248201527f63757272656e742074696d657374616d70206d75737420626520677265617465604482015267072207468616e20360c41b6064820152608490fd5b68ffffffffffffffffff191668010000000000000001175f516020613b7b5f395f51905f52558d611cf1565b63f92ee8a960e01b5f5260045ffd5b9050158e611cc4565b303b159150611cbc565b8d9150611cb2565b34611920575f3660031901126119205760205f516020613b5b5f395f51905f525454604051908152f35b346119205761215f36612728565b90811580159061228c575b156122515760185f516020613b5b5f395f51905f525461218c81541515612968565b0190805f528160205260ff60405f2054166003811015611aff576121f0577f65672eaf4ff8b823ea29ae013fef437d1fa9ed431125263a7a1f0ac49eada39692604092825f52602052825f20600160ff1982541617905582519182526020820152a1005b60405162461bcd60e51b815260206004820152603360248201527f676976656e20636f646520696420697320616c7265616479206f6e2076616c6960448201527219185d1a5bdb881bdc881d985b1a59185d1959606a1b6064820152608490fd5b60405162461bcd60e51b8152602060048201526013602482015272189b1bd88818d85b89dd08189948199bdd5b99606a1b6044820152606490fd5b505f49151561216a565b34611920576060366003190112611920576004356001600160401b03811161192057368190036004820160a060031983011261192057602435906002821015611920576044356001600160401b038111611920576122f89036906004016126f8565b5f516020613b5b5f395f51905f52929192549365ffffffffffff600186015460201c169561232687426127a5565b612335601588015480926127b2565b9760848a01359860018101809111611f6b5789036126765761235a89612360936127dd565b906127d0565b9561236f6016820154886127a5565b42106126315761237e81612c89565b9342600586015410156125d15760405196608088018881106001600160401b038211176125bd576040526123b23688612847565b885260448b0135946001600160401b03861161192057858c01983660238b0112156119205760048a01359b6024909a01998d6123ef368f8e612886565b60208401526064019d8e35906001600160401b038211611920570136602382011215611920576124299036906024600482013591016128df565b9182604082015281606082015251916020835193015191604051926020840194855260408401526060830160208351919301905f5b81811061259e5750505060208383612486936124af9b9a999897969552038084520182612826565b519020936040519460208601908152602086526124a4604087612826565b429551902090613206565b1561253e57602219011315611920576001600160401b038511611920578460061b360383136119205761251f60209561252f84612527612535976125157f41e7f919bf726af8aa2ef36bd31905a693013e30c45c6284060e613d4941997b9c8b99612933565b9690933690612847565b943691612886565b9336916128df565b92612cff565b604051908152a1005b60405162461bcd60e51b815260206004820152603260248201527f6e657874206572612076616c696461746f7273207369676e6174757265732076604482015271195c9a599a58d85d1a5bdb8819985a5b195960721b6064820152608490fd5b82516001600160a01b031685526020948501949092019160010161245e565b634e487b7160e01b5f52604160045260245ffd5b60405162461bcd60e51b815260206004820152603260248201527f6c6f6f6b73206c696b652076616c696461746f727320666f72206e65787420656044820152711c9848185c9948185b1c9958591e481cd95d60721b6064820152608490fd5b60405162461bcd60e51b815260206004820152601b60248201527f656c656374696f6e206973206e6f7420796574207374617274656400000000006044820152606490fd5b60405162461bcd60e51b815260206004820152602a60248201527f636f6d6d69746d656e742065726120696e646578206973206e6f74206e657874604482015269040cae4c240d2dcc8caf60b31b6064820152608490fd5b34611920575f36600319011261192057602090601b5f516020613b5b5f395f51905f525401548152f35b9181601f84011215611920578235916001600160401b038311611920576020808501948460051b01011161192057565b6040906003190112611920576004359060243590565b600435906001600160a01b038216820361192057565b35906001600160a01b038216820361192057565b9181601f84011215611920578235916001600160401b038311611920576020808501948460061b01011161192057565b906003821015611aff5752565b91908203918211611f6b57565b81156127bc570490565b634e487b7160e01b5f52601260045260245ffd5b91908201809211611f6b57565b81810292918115918404141715611f6b57565b606081019081106001600160401b038211176125bd57604052565b604081019081106001600160401b038211176125bd57604052565b90601f801991011681019081106001600160401b038211176125bd57604052565b91908260409103126119205760405161285f8161280b565b6020808294803584520135910152565b6001600160401b0381116125bd5760051b60200190565b909291926128938161286f565b936128a16040519586612826565b602085838152019160061b83019281841161192057915b8383106128c55750505050565b60206040916128d48486612847565b8152019201916128b8565b9291906128eb8161286f565b936128f96040519586612826565b602085838152019160051b810192831161192057905b82821061291b57505050565b6020809161292884612754565b81520191019061290f565b903590601e198136030182121561192057018035906001600160401b03821161192057602001918160051b3603831361192057565b1561296f57565b60405162461bcd60e51b815260206004820152603860248201527f726f757465722067656e65736973206973207a65726f3b2063616c6c20606c6f60448201527f6f6b757047656e657369734861736828296020666972737400000000000000006064820152608490fd5b604051906129e78261280b565b5f6020838281520152565b906040516129ff8161280b565b602060018294805484520154910152565b3580151581036119205790565b5f198114611f6b5760010190565b602080612a58928195946040519682889351918291018585015e8201908382015203018085520183612826565b565b15612a6157565b60405162461bcd60e51b815260206004820152601e60248201527f7369676e61747572657320766572696669636174696f6e206661696c656400006044820152606490fd5b908154612ab28161286f565b92612ac06040519485612826565b81845260208401905f5260205f205f915b838310612ade5750505050565b60026020600192612aee856129f2565b815201920192019190612ad1565b90604051918281549182825260208201905f5260205f20925f5b818110612b2b575050612a5892500383612826565b84546001600160a01b0316835260019485019487945060209093019201612b16565b9190811015612b5d5760051b0190565b634e487b7160e01b5f52603260045260245ffd5b8051821015612b5d5760209160051b010190565b356001600160a01b03811681036119205790565b612bb25f516020613b5b5f395f51905f52544290613784565b600301905f5b838110612bc85750505050600190565b612bd6610659828685612b4d565b6001600160a01b03165f9081526020849052604090205460ff1615612bfd57600101612bb8565b505050505f90565b3565ffffffffffff811681036119205790565b6001600160a01b03168015612c76575f516020613b3b5f395f51905f5280546001600160a01b0319811683179091556001600160a01b03167f8be0079c531659141344cd1fd0a4f28419497f9722a3daafe3b4186f6b6457e05f80a3565b631e4fbdf760e01b5f525f60045260245ffd5b612c93428261364d565b15612c9e5760080190565b600e0190565b15612cab57565b60405162461bcd60e51b815260206004820152602660248201527f46524f53542061676772656761746564207075626c6963206b657920697320696044820152651b9d985b1a5960d21b6064820152608490fd5b90612d4690959395949294612d378151602083015170014551231950b75fc4402da1732fc9bebe1982109182613004575b5050612ca4565b80518355602001516001830155565b8351855103612f99575f5b8451811015612dc757612d75612d678287612b71565b516020815191015190613736565b15612d8257600101612d51565b60405162461bcd60e51b815260206004820152601f60248201527f766572696679696e67207368617265206973206e6f74206f6e206375727665006044820152606490fd5b509193909260028301815191600160401b83116125bd578154838355808410612f47575b50602001905f5260205f205f915b838310612f1d57505050505f5b600483018054821015612e44575f90815260208082208301546001600160a01b0316825260038501905260409020805460ff19169055600101612e06565b5050925f5b8451811015612e8d576001906001600160a01b03612e678288612b71565b5116828060a01b03165f526003840160205260405f208260ff1982541617905501612e49565b5092600482018151916001600160401b0383116125bd57600160401b83116125bd578154838355808410612ef7575b50602001905f5260205f205f5b838110612eda575050505060050155565b82516001600160a01b031681830155602090920191600101612ec9565b825f528360205f2091820191015b818110612f125750612ebc565b5f8155600101612f05565b6002602082612f3b6001945186906020600191805184550151910155565b01920192019190612df9565b6001600160ff1b0381168103611f6b576001600160ff1b0384168403611f6b57825f5260205f209060011b8101908460011b015b818110612f885750612deb565b5f8082556001820155600201612f7b565b60405162461bcd60e51b815260206004820152603860248201527f766572696679696e672073686172657320636f756e74206d757374206265206560448201527f7175616c20746f2076616c696461746f727320636f756e7400000000000000006064820152608490fd5b61300e9250613736565b5f80612d30565b5f60408051613023816127f0565b828152826020820152015260405161303a816127f0565b5f815263ffffffff4316602082015265ffffffffffff4216604082015290565b5f516020613b3b5f395f51905f52546001600160a01b0316330361307a57565b63118cdaa760e01b5f523360045260245ffd5b5f516020613b5b5f395f51905f5254916130a983541515612968565b815f526018830160205260ff60405f2054166003811015611aff5760020361316557613107601a9160018060a01b036005860154169060405160208101918683526040820152604081526130fe606082612826565b519020906139bb565b9260018060a01b0384165f52601981016020528260405f20550161312b8154612a1d565b90556040516001600160a01b03831681527f8008ec1d8798725ebfa0f2d128d52e8e717dcba6e0f786557eeee70614b02bf190602090a290565b60405162461bcd60e51b815260206004820152602e60248201527f636f6465206d7573742062652076616c696461746564206265666f726520707260448201526d37b3b930b69031b932b0ba34b7b760911b6064820152608490fd5b9291926001600160401b0382116125bd57604051916131ea601f8201601f191660200184612826565b829481845281830111611920578281602093845f960137010152565b909493919365ffffffffffff600183015460201c1661323c61324761324161322e84426127a5565b6015870154938480926127b2565b6127dd565b836127d0565b918284108080613615575b156135a35750831061355e5761326890836127d0565b1061350d57613278905b82613784565b94604051906020820190815260208252613293604083612826565b6132cf603660405180936020820195601960f81b87523060601b60228401525180918484015e81015f838201520301601f198101835282612826565b519020936002811015611aff578061342b575050600181036133e65715612b5d57803590601e198136030182121561192057018035906001600160401b0382116119205760200181360381136119205761332a9136916131c1565b916060835103613391578260206133799401516060604083015192015192600181549101549070014551231950b75fc4402da1732fc9bebe1981108061337c575b61337490612ca4565b6137f7565b90565b5061337461338a8383613736565b905061336b565b60405162461bcd60e51b815260206004820152602760248201527f46524f5354207369676e6174757265206c656e677468206d75737420626520396044820152663620627974657360c81b6064820152608490fd5b60405162461bcd60e51b815260206004820152601e60248201527f46524f5354207369676e6174757265206d7573742062652073696e676c6500006044820152606490fd5b60011461343b5750505050505f90565b6134559061ffff600760048895980154920154169061362b565b925f9260035f9301925b86811015613502578060051b820135601e19833603018112156119205782018035906001600160401b038211611920576020018136038113611920576134bd916134b4916134ae9136916131c1565b85613a1e565b90929192613a58565b6001600160a01b03165f9081526020859052604090205460ff166134e4575b60010161345f565b936134ee90612a1d565b938585036134dc5750505050505050600190565b505050505050505f90565b60405162461bcd60e51b8152602060048201526024808201527f74696d657374616d70206973206f6c646572207468616e2070726576696f75736044820152632065726160e01b6064820152608490fd5b60405162461bcd60e51b815260206004820152601e60248201527f63616e6e6f742076616c6964617465206265666f72652067656e6573697300006044820152606490fd5b93929150504282116135c657613278926135be575b50613272565b90505f6135b8565b60405162461bcd60e51b815260206004820152602160248201527f74696d657374616d702063616e6e6f7420626520696e207468652066757475726044820152606560f81b6064820152608490fd5b506136246017870154856127d0565b4210613252565b61ffff6136399216906127dd565b61270f8101809111611f6b57612710900490565b906013600d8301549201548083146136f2578181841093119182159111159181906136eb575b15613688578261368257505090565b14919050565b60405162461bcd60e51b815260206004820152603560248201527f636f756c64206e6f74206964656e746966792076616c696461746f727320666f6044820152740722074686520676976656e2074696d657374616d7605c1b6064820152608490fd5b5081613673565b606460405162461bcd60e51b815260206004820152602060248201527f657261732074696d657374616d70206d757374206e6f7420626520657175616c6044820152fd5b6401000003d01990600790829081818009900908906401000003d0199080091490565b60ff5f516020613b7b5f395f51905f525460401c161561377557565b631afcd79f60e31b5f5260045ffd5b9061378f908261364d565b1561379a57600e0190565b60080190565b905f194301438111611f6b57805b6137b9575b505f9150565b80408381036137ca57506001925050565b156137de578015611f6b575f1901806137ae565b6137b3565b35906001600160801b038216820361192057565b92939194906138068587613736565b156139b15782156139b15770014551231950b75fc4402da1732fc9bebe198310156139b1576001169061010e6040519161012083018381106001600160401b038211176119205760405260883684376002600188160160888401538760898401526002840160a984015360aa830186905260ca8301527e300046524f53542d736563703235366b312d4b454343414b3235362d76316360ea8301526303430b6160e51b61010a830152812060cc820181815290600260ec84016001815360428420809318845253604270014551231950b75fc4402da1732fc9bebe19922060801c6001600160401b0360801b8260801b16179070014551231950b75fc4402da1732fc9bebe1990600160c01b9060401c090880156135025784601b6080945f9660209870014551231950b75fc4402da1732fc9bebe19910970014551231950b75fc4402da1732fc9bebe19038552018684015280604084015270014551231950b75fc4402da1732fc9bebe19910970014551231950b75fc4402da1732fc9bebe1903606082015282805260015afa15611920575f51915f5260205260018060a01b0360405f20161490565b5050505050505f90565b6e5af43d82803e903d91602b57fd5bf390763d602d80600a3d3981f3363d3d373d3d3d363d7300000062ffffff8260881c16175f5260781b17602052603760095ff5906001600160a01b03821615613a0f57565b63b06ebf3d60e01b5f5260045ffd5b8151919060418303613a4e57613a479250602082015190606060408401519301515f1a90613ab8565b9192909190565b50505f9160029190565b6004811015611aff5780613a6a575050565b60018103613a815763f645eedf60e01b5f5260045ffd5b60028103613a9c575063fce698f760e01b5f5260045260245ffd5b600314613aa65750565b6335e2f38360e21b5f5260045260245ffd5b91907f7fffffffffffffffffffffffffffffff5d576e7357a4501ddfe92f46681b20a08411613b2f579160209360809260ff5f9560405194855216868401526040830152606082015282805260015afa15611915575f516001600160a01b03811615613b2557905f905f90565b505f906001905f90565b5050505f916003919056fe9016d09d72d40fdae2fd8ceac6b6234c7706214fd39c1cd1e609a0528c1993005c09ca1b9b8127a4fd9f3c384aac59b661441e820e17733753ff5f2e86e1e000f0c57e16840df040f15088dc2f81fe391c3923bec73e23a9662efc9c229c6a00a2646970667358221220a401f70209fb59bc7e52f21c97fe23a7bdab8f3331aa988b64f116e60c9801a364736f6c634300081c0033f0c57e16840df040f15088dc2f81fe391c3923bec73e23a9662efc9c229c6a00","linkReferences":{}},"methodIdentifiers":{"areValidators(address[])":"8f381dbe","codeState(bytes32)":"c13911e8","codesStates(bytes32[])":"82bdeaad","commitBlocks((bytes32,uint48,bytes32,bytes32,(address,bytes32,address,uint128,(bytes32,address,uint128)[],(bytes32,address,bytes,uint128,(bytes32,bytes4))[])[])[],uint8,bytes[])":"b6a49680","commitCodes((bytes32,bool)[],uint8,bytes[])":"44d5ec1f","commitValidators(((uint256,uint256),(uint256,uint256)[],address[],uint256),uint8,bytes[])":"0d9078b1","computeSettings()":"84d22a4f","createProgram(bytes32,bytes32)":"527de0f9","createProgramWithDecoder(address,bytes32,bytes32)":"e7006a74","genesisBlockHash()":"28e24b3d","genesisTimestamp()":"cacf66ab","initialize(address,address,address,address,uint256,uint256,uint256,(uint256,uint256),(uint256,uint256)[],address[])":"389e7579","isValidator(address)":"facd743b","latestCommittedBlockHash()":"c9f16a11","lookupGenesisHash()":"8b1edf1e","mirrorImpl()":"e6fabc09","mirrorProxyImpl()":"65ecfea2","owner()":"8da5cb5b","programCodeId(address)":"9067088e","programsCodeIds(address[])":"baaf0201","programsCount()":"96a2ddfa","reinitialize()":"6c2eb350","renounceOwnership()":"715018a6","requestCodeValidation(bytes32,bytes32)":"1c149d8a","setMirror(address)":"3d43b418","signingThresholdPercentage()":"efd81abc","transferOwnership(address)":"f2fde38b","validatedCodesCount()":"007a32e7","validators()":"ca1e7819","validatorsAggregatedPublicKey()":"3bd109fa","validatorsCount()":"ed612f8c","validatorsThreshold()":"edc87225","validatorsVerifyingShares()":"7b4dda97","wrappedVara()":"88f50cf0"},"storageLayout":{"storage":[],"types":{}},"id":128}