{"abi":[{"type":"constructor","inputs":[],"stateMutability":"nonpayable"},{"type":"function","name":"areValidators","inputs":[{"name":"_validators","type":"address[]","internalType":"address[]"}],"outputs":[{"name":"","type":"bool","internalType":"bool"}],"stateMutability":"view"},{"type":"function","name":"codeState","inputs":[{"name":"_codeId","type":"bytes32","internalType":"bytes32"}],"outputs":[{"name":"","type":"uint8","internalType":"enum Gear.CodeState"}],"stateMutability":"view"},{"type":"function","name":"codesStates","inputs":[{"name":"_codesIds","type":"bytes32[]","internalType":"bytes32[]"}],"outputs":[{"name":"","type":"uint8[]","internalType":"enum Gear.CodeState[]"}],"stateMutability":"view"},{"type":"function","name":"commitBatch","inputs":[{"name":"_batch","type":"tuple","internalType":"struct Gear.BatchCommitment","components":[{"name":"blockHash","type":"bytes32","internalType":"bytes32"},{"name":"timestamp","type":"uint48","internalType":"uint48"},{"name":"previousCommittedBlock","type":"bytes32","internalType":"bytes32"},{"name":"chainCommitment","type":"tuple[]","internalType":"struct Gear.ChainCommitment[]","components":[{"name":"transitions","type":"tuple[]","internalType":"struct Gear.StateTransition[]","components":[{"name":"actorId","type":"address","internalType":"address"},{"name":"newStateHash","type":"bytes32","internalType":"bytes32"},{"name":"inheritor","type":"address","internalType":"address"},{"name":"valueToReceive","type":"uint128","internalType":"uint128"},{"name":"valueClaims","type":"tuple[]","internalType":"struct Gear.ValueClaim[]","components":[{"name":"messageId","type":"bytes32","internalType":"bytes32"},{"name":"destination","type":"address","internalType":"address"},{"name":"value","type":"uint128","internalType":"uint128"}]},{"name":"messages","type":"tuple[]","internalType":"struct Gear.Message[]","components":[{"name":"id","type":"bytes32","internalType":"bytes32"},{"name":"destination","type":"address","internalType":"address"},{"name":"payload","type":"bytes","internalType":"bytes"},{"name":"value","type":"uint128","internalType":"uint128"},{"name":"replyDetails","type":"tuple","internalType":"struct Gear.ReplyDetails","components":[{"name":"to","type":"bytes32","internalType":"bytes32"},{"name":"code","type":"bytes4","internalType":"bytes4"}]}]}]},{"name":"blocks","type":"tuple[]","internalType":"struct Gear.GearBlock[]","components":[{"name":"hash","type":"bytes32","internalType":"bytes32"},{"name":"gasAllowance","type":"uint64","internalType":"uint64"},{"name":"offchainTransactionsHash","type":"bytes32","internalType":"bytes32"}]}]},{"name":"codeCommitments","type":"tuple[]","internalType":"struct Gear.CodeCommitment[]","components":[{"name":"id","type":"bytes32","internalType":"bytes32"},{"name":"valid","type":"bool","internalType":"bool"}]},{"name":"rewardsCommitment","type":"tuple[]","internalType":"struct Gear.RewardsCommitment[]","components":[{"name":"operators","type":"tuple","internalType":"struct Gear.OperatorRewardsCommitment","components":[{"name":"amount","type":"uint256","internalType":"uint256"},{"name":"root","type":"bytes32","internalType":"bytes32"}]},{"name":"stakers","type":"tuple","internalType":"struct Gear.StakerRewardsCommitment","components":[{"name":"distribution","type":"tuple[]","internalType":"struct Gear.StakerRewards[]","components":[{"name":"vault","type":"address","internalType":"address"},{"name":"amount","type":"uint256","internalType":"uint256"}]},{"name":"totalAmount","type":"uint256","internalType":"uint256"},{"name":"token","type":"address","internalType":"address"}]},{"name":"timestamp","type":"uint48","internalType":"uint48"}]},{"name":"validatorsCommitment","type":"tuple[]","internalType":"struct Gear.ValidatorsCommitment[]","components":[{"name":"aggregatedPublicKey","type":"tuple","internalType":"struct Gear.AggregatedPublicKey","components":[{"name":"x","type":"uint256","internalType":"uint256"},{"name":"y","type":"uint256","internalType":"uint256"}]},{"name":"verifiableSecretSharingCommitment","type":"bytes","internalType":"bytes"},{"name":"validators","type":"address[]","internalType":"address[]"},{"name":"eraIndex","type":"uint256","internalType":"uint256"}]}]},{"name":"_signatureType","type":"uint8","internalType":"enum Gear.SignatureType"},{"name":"_signatures","type":"bytes[]","internalType":"bytes[]"}],"outputs":[],"stateMutability":"nonpayable"},{"type":"function","name":"computeSettings","inputs":[],"outputs":[{"name":"","type":"tuple","internalType":"struct Gear.ComputationSettings","components":[{"name":"threshold","type":"uint64","internalType":"uint64"},{"name":"wvaraPerSecond","type":"uint128","internalType":"uint128"}]}],"stateMutability":"view"},{"type":"function","name":"createProgram","inputs":[{"name":"_codeId","type":"bytes32","internalType":"bytes32"},{"name":"_salt","type":"bytes32","internalType":"bytes32"},{"name":"_overrideInitializer","type":"address","internalType":"address"}],"outputs":[{"name":"","type":"address","internalType":"address"}],"stateMutability":"nonpayable"},{"type":"function","name":"createProgramWithAbiInterface","inputs":[{"name":"_codeId","type":"bytes32","internalType":"bytes32"},{"name":"_salt","type":"bytes32","internalType":"bytes32"},{"name":"_overrideInitializer","type":"address","internalType":"address"},{"name":"_abiInterface","type":"address","internalType":"address"}],"outputs":[{"name":"","type":"address","internalType":"address"}],"stateMutability":"nonpayable"},{"type":"function","name":"genesisBlockHash","inputs":[],"outputs":[{"name":"","type":"bytes32","internalType":"bytes32"}],"stateMutability":"view"},{"type":"function","name":"genesisTimestamp","inputs":[],"outputs":[{"name":"","type":"uint48","internalType":"uint48"}],"stateMutability":"view"},{"type":"function","name":"initialize","inputs":[{"name":"_owner","type":"address","internalType":"address"},{"name":"_mirror","type":"address","internalType":"address"},{"name":"_wrappedVara","type":"address","internalType":"address"},{"name":"_middleware","type":"address","internalType":"address"},{"name":"_eraDuration","type":"uint256","internalType":"uint256"},{"name":"_electionDuration","type":"uint256","internalType":"uint256"},{"name":"_validationDelay","type":"uint256","internalType":"uint256"},{"name":"_aggregatedPublicKey","type":"tuple","internalType":"struct Gear.AggregatedPublicKey","components":[{"name":"x","type":"uint256","internalType":"uint256"},{"name":"y","type":"uint256","internalType":"uint256"}]},{"name":"_verifiableSecretSharingCommitment","type":"bytes","internalType":"bytes"},{"name":"_validators","type":"address[]","internalType":"address[]"}],"outputs":[],"stateMutability":"nonpayable"},{"type":"function","name":"isValidator","inputs":[{"name":"_validator","type":"address","internalType":"address"}],"outputs":[{"name":"","type":"bool","internalType":"bool"}],"stateMutability":"view"},{"type":"function","name":"latestCommittedBlockHash","inputs":[],"outputs":[{"name":"","type":"bytes32","internalType":"bytes32"}],"stateMutability":"view"},{"type":"function","name":"latestCommittedBlockTimestamp","inputs":[],"outputs":[{"name":"","type":"uint48","internalType":"uint48"}],"stateMutability":"view"},{"type":"function","name":"lookupGenesisHash","inputs":[],"outputs":[],"stateMutability":"nonpayable"},{"type":"function","name":"mirrorImpl","inputs":[],"outputs":[{"name":"","type":"address","internalType":"address"}],"stateMutability":"view"},{"type":"function","name":"owner","inputs":[],"outputs":[{"name":"","type":"address","internalType":"address"}],"stateMutability":"view"},{"type":"function","name":"programCodeId","inputs":[{"name":"_programId","type":"address","internalType":"address"}],"outputs":[{"name":"","type":"bytes32","internalType":"bytes32"}],"stateMutability":"view"},{"type":"function","name":"programsCodeIds","inputs":[{"name":"_programsIds","type":"address[]","internalType":"address[]"}],"outputs":[{"name":"","type":"bytes32[]","internalType":"bytes32[]"}],"stateMutability":"view"},{"type":"function","name":"programsCount","inputs":[],"outputs":[{"name":"","type":"uint256","internalType":"uint256"}],"stateMutability":"view"},{"type":"function","name":"reinitialize","inputs":[],"outputs":[],"stateMutability":"nonpayable"},{"type":"function","name":"renounceOwnership","inputs":[],"outputs":[],"stateMutability":"nonpayable"},{"type":"function","name":"requestCodeValidation","inputs":[{"name":"_codeId","type":"bytes32","internalType":"bytes32"}],"outputs":[],"stateMutability":"nonpayable"},{"type":"function","name":"setMirror","inputs":[{"name":"newMirror","type":"address","internalType":"address"}],"outputs":[],"stateMutability":"nonpayable"},{"type":"function","name":"signingThresholdPercentage","inputs":[],"outputs":[{"name":"","type":"uint16","internalType":"uint16"}],"stateMutability":"view"},{"type":"function","name":"transferOwnership","inputs":[{"name":"newOwner","type":"address","internalType":"address"}],"outputs":[],"stateMutability":"nonpayable"},{"type":"function","name":"validatedCodesCount","inputs":[],"outputs":[{"name":"","type":"uint256","internalType":"uint256"}],"stateMutability":"view"},{"type":"function","name":"validators","inputs":[],"outputs":[{"name":"","type":"address[]","internalType":"address[]"}],"stateMutability":"view"},{"type":"function","name":"validatorsAggregatedPublicKey","inputs":[],"outputs":[{"name":"","type":"tuple","internalType":"struct Gear.AggregatedPublicKey","components":[{"name":"x","type":"uint256","internalType":"uint256"},{"name":"y","type":"uint256","internalType":"uint256"}]}],"stateMutability":"view"},{"type":"function","name":"validatorsCount","inputs":[],"outputs":[{"name":"","type":"uint256","internalType":"uint256"}],"stateMutability":"view"},{"type":"function","name":"validatorsThreshold","inputs":[],"outputs":[{"name":"","type":"uint256","internalType":"uint256"}],"stateMutability":"view"},{"type":"function","name":"validatorsVerifiableSecretSharingCommitment","inputs":[],"outputs":[{"name":"","type":"bytes","internalType":"bytes"}],"stateMutability":"view"},{"type":"function","name":"wrappedVara","inputs":[],"outputs":[{"name":"","type":"address","internalType":"address"}],"stateMutability":"view"},{"type":"event","name":"BlockCommitted","inputs":[{"name":"hash","type":"bytes32","indexed":false,"internalType":"bytes32"}],"anonymous":false},{"type":"event","name":"CodeGotValidated","inputs":[{"name":"codeId","type":"bytes32","indexed":false,"internalType":"bytes32"},{"name":"valid","type":"bool","indexed":true,"internalType":"bool"}],"anonymous":false},{"type":"event","name":"CodeValidationRequested","inputs":[{"name":"codeId","type":"bytes32","indexed":false,"internalType":"bytes32"}],"anonymous":false},{"type":"event","name":"ComputationSettingsChanged","inputs":[{"name":"threshold","type":"uint64","indexed":false,"internalType":"uint64"},{"name":"wvaraPerSecond","type":"uint128","indexed":false,"internalType":"uint128"}],"anonymous":false},{"type":"event","name":"GearBlockCommitted","inputs":[{"name":"block","type":"tuple","indexed":false,"internalType":"struct Gear.GearBlock","components":[{"name":"hash","type":"bytes32","internalType":"bytes32"},{"name":"gasAllowance","type":"uint64","internalType":"uint64"},{"name":"offchainTransactionsHash","type":"bytes32","internalType":"bytes32"}]}],"anonymous":false},{"type":"event","name":"Initialized","inputs":[{"name":"version","type":"uint64","indexed":false,"internalType":"uint64"}],"anonymous":false},{"type":"event","name":"NextEraValidatorsCommitted","inputs":[{"name":"startTimestamp","type":"uint256","indexed":false,"internalType":"uint256"}],"anonymous":false},{"type":"event","name":"OwnershipTransferred","inputs":[{"name":"previousOwner","type":"address","indexed":true,"internalType":"address"},{"name":"newOwner","type":"address","indexed":true,"internalType":"address"}],"anonymous":false},{"type":"event","name":"ProgramCreated","inputs":[{"name":"actorId","type":"address","indexed":false,"internalType":"address"},{"name":"codeId","type":"bytes32","indexed":true,"internalType":"bytes32"}],"anonymous":false},{"type":"event","name":"StorageSlotChanged","inputs":[],"anonymous":false},{"type":"error","name":"ECDSAInvalidSignature","inputs":[]},{"type":"error","name":"ECDSAInvalidSignatureLength","inputs":[{"name":"length","type":"uint256","internalType":"uint256"}]},{"type":"error","name":"ECDSAInvalidSignatureS","inputs":[{"name":"s","type":"bytes32","internalType":"bytes32"}]},{"type":"error","name":"InvalidInitialization","inputs":[]},{"type":"error","name":"NotInitializing","inputs":[]},{"type":"error","name":"OwnableInvalidOwner","inputs":[{"name":"owner","type":"address","internalType":"address"}]},{"type":"error","name":"OwnableUnauthorizedAccount","inputs":[{"name":"account","type":"address","internalType":"address"}]},{"type":"error","name":"ReentrancyGuardReentrantCall","inputs":[]}],"bytecode":{"object":"0x6080806040523460aa575f5160206144735f395f51905f525460ff8160401c16609b576002600160401b03196001600160401b038216016049575b6040516143c490816100af8239f35b6001600160401b0319166001600160401b039081175f5160206144735f395f51905f525581527fc7f505b2f371ae2175ee4913f4499e1f2633a7b5936321eed1cdaeb6115181d290602090a15f80603a565b63f92ee8a960e01b5f5260045ffd5b5f80fdfe6080806040526004361015610012575f80fd5b5f905f3560e01c9081627a32e7146121f6575080630c18d27714611cf8578063120e3f1e14611b6c57806328e24b3d14611b3e5780633683c4d2146118b15780633bd109fa146118625780633d43b4181461180e57806353266211146117d857806353f7fd48146112475780636c2eb35014610f1f578063715018a614610eb657806382bdeaad14610d9e57806384d22a4f14610d3557806388f50cf014610cfc5780638b1edf1e14610c315780638da5cb5b14610bfc5780638f381dbe14610bb65780639067088e14610b6d57806396a2ddfa14610b3f578063a5d53a4414610ae5578063baaf020114610a0d578063c13911e8146109c9578063c9f16a111461099b578063ca1e781914610918578063cacf66ab146108e0578063e6fabc09146108a7578063e7458f82146102b8578063ed612f8c14610280578063edc8722514610236578063efd81abc14610204578063f2fde38b146101d75763facd743b1461017d575f80fd5b346101d45760203660031901126101d45761019661224c565b60036101b15f5160206143845f395f51905f52544290613ef1565b019060018060a01b03165f52602052602060ff60405f2054166040519015158152f35b80fd5b50346101d45760203660031901126101d4576102016101f461224c565b6101fc6126d0565b612651565b80f35b50346101d457806003193601126101d457602061ffff60085f5160206143845f395f51905f5254015416604051908152f35b50346101d457806003193601126101d45760206102785f5160206143845f395f51905f525461ffff6008600461026c4285613ef1565b01549201541690613ecf565b604051908152f35b50346101d457806003193601126101d457602060046102ae5f5160206143845f395f51905f52544290613ef1565b0154604051908152f35b50346101d45760603660031901126101d4576004356001600160401b0381116108a357806004019160e060031983360301126101d4576024359060028210156101d4576044356001600160401b0381116108a35761031a903690600401612276565b94907f9b779b17422d0df92223018b32b4d1fa46e071723d6817e2486d003becc55f005c6108945760017f9b779b17422d0df92223018b32b4d1fa46e071723d6817e2486d003becc55f005d5f5160206143845f395f51905f52549161038560018401541515612342565b8254156107c6575b6003830196875492604488013580940361077357600485019687549760248a019865ffffffffffff6103be8b61263e565b1665ffffffffffff821610156106fa576020908a6103e29b9c9d88359c8d9261263e565b65ffffffffffff604051916103f683612306565b8483521694018490525565ffffffffffff19161790556104168487612ad9565b986060986084899c0196601989019a5b8d6104318a8a6131a2565b91905010156105fb578d6104458a8a6131a2565b909110156105e7578b8f60408f9360ff9260061b019283359485825260205220541660038110156105d357600103610570576040818f8f938f906020019461048c866131d7565b1561055857601c928782526020528481209050600260ff19825416179055016104b581546126c2565b90555b6104c1836131d7565b15157f460119a8f69a33ed127de517d5ea464e958ce23ef19e4420a8b92bf780bbc2c960208451878152a2360312610554576040519061050082612306565b8282523580151591828203610550579161054893916020600196940152604051906020820192835260f81b60408201526021815261053f604182612321565b519020906131e4565b9d019c610426565b8e80fd5b8c80fd5b905083918682526020522060ff1981541690556104b8565b60405162461bcd60e51b815260206004820152603560248201527f636f6465206d7573742062652072657175657374656420666f722076616c6964604482015274185d1a5bdb881d1bc818994818dbdb5b5a5d1d1959605a1b6064820152608490fd5b634e487b7160e01b8e52602160045260248efd5b634e487b7160e01b8c52603260045260248cfd5b61068a985091610683918d898c61062e8f9e9c6106279065ffffffffffff99602081519101209361324b565b928d6136c7565b926106388961263e565b9460405195602087019788528960d01b9060d01b16604087015260468601526066850152608684015260a683015260c682015260c6815261067a60e682612321565b5190209261263e565b1694613b26565b156106b557807f9b779b17422d0df92223018b32b4d1fa46e071723d6817e2486d003becc55f005d80f35b60405162461bcd60e51b815260206004820152601e60248201527f7369676e61747572657320766572696669636174696f6e206661696c656400006044820152606490fd5b60405162461bcd60e51b815260206004820152604560248201527f62617463682074696d657374616d70206d75737420626520677265617465722060448201527f7468616e206c617465737420636f6d6d697474656420626c6f636b2074696d6560648201526407374616d760dc1b608482015260a490fd5b60405162461bcd60e51b815260206004820152602560248201527f696e76616c69642070726576696f757320636f6d6d697474656420626c6f636b604482015264040d0c2e6d60db1b6064820152608490fd5b6107d08135612a1e565b156108405765ffffffffffff6107e86024880161263e565b16421161038d5760405162461bcd60e51b815260206004820152602360248201527f62617463682074696d657374616d70206d75737420626520696e207468652070604482015262185cdd60ea1b6064820152608490fd5b60405162461bcd60e51b815260206004820152602660248201527f616c6c6f776564207072656465636573736f7220626c6f636b207761736e277460448201526508199bdd5b9960d21b6064820152608490fd5b633ee5aeb560e01b8352600483fd5b5080fd5b50346101d457806003193601126101d4575f5160206143845f395f51905f5254600501546040516001600160a01b039091168152602090f35b50346101d457806003193601126101d457602065ffffffffffff60025f5160206143845f395f51905f52540154821c16604051908152f35b50346101d457806003193601126101d45761094d60046109475f5160206143845f395f51905f52544290613ef1565b01612501565b90604051918291602083016020845282518091526020604085019301915b818110610979575050500390f35b82516001600160a01b031684528594506020938401939092019160010161096b565b50346101d457806003193601126101d457602060035f5160206143845f395f51905f52540154604051908152f35b50346101d45760203660031901126101d45760ff604060209260195f5160206143845f395f51905f52540160043582528452205416610a0b60405180926122a6565bf35b50346101d45760203660031901126101d4576004356001600160401b0381116108a357610a3e903690600401612276565b905f5160206143845f395f51905f5254610a578361260c565b92601a859201915b818110610aac578486604051918291602083016020845282518091526020604085019301915b818110610a93575050500390f35b8251845285945060209384019390920191600101610a85565b80610ac2610abd6001938588612554565b61258c565b828060a01b03165f528360205260405f2054610ade8288612578565b5201610a5f565b50346101d457806003193601126101d457610b3b610b275f5160206143845f395f51905f52546002610b1f60018060a01b03924290613ef1565b0154166129ef565b6040519182916020835260208301906122b3565b0390f35b50346101d457806003193601126101d4576020601b5f5160206143845f395f51905f52540154604051908152f35b50346101d45760203660031901126101d457610b8761224c565b601a5f5160206143845f395f51905f5254019060018060a01b03165f52602052602060405f2054604051908152f35b50346101d45760203660031901126101d457600435906001600160401b0382116101d4576020610bf2610bec3660048601612276565b906125a0565b6040519015158152f35b50346101d457806003193601126101d4575f5160206143645f395f51905f52546040516001600160a01b039091168152602090f35b50346101d457806003193601126101d4575f5160206143845f395f51905f525460018101908154610cb7576002015463ffffffff1640908115610c72575580f35b60405162461bcd60e51b815260206004820152601d60248201527f756e61626c6520746f206c6f6f6b75702067656e6573697320686173680000006044820152606490fd5b60405162461bcd60e51b815260206004820152601860248201527f67656e65736973206861736820616c72656164792073657400000000000000006044820152606490fd5b50346101d457806003193601126101d4575f5160206143845f395f51905f5254600601546040516001600160a01b039091168152602090f35b50346101d457806003193601126101d457610d4e6123b4565b50604060155f5160206143845f395f51905f5254016001600160801b03825191610d7783612306565b548160206001600160401b038316948581520191851c168152835192835251166020820152f35b50346101d45760203660031901126101d4576004356001600160401b0381116108a357610dcf903690600401612276565b905f5160206143845f395f51905f525490610de983612496565b91610df76040519384612321565b838352610e0384612496565b602084019490601f19013686376019869201915b818110610e6c57868587604051928392602084019060208552518091526040840192915b818110610e49575050500390f35b9193509160208082610e5e60019488516122a6565b019401910191849392610e3b565b610e77818386612554565b3587528260205260ff604088205416610e908287612578565b6003821015610ea25752600101610e17565b634e487b7160e01b89526021600452602489fd5b50346101d457806003193601126101d457610ecf6126d0565b5f5160206143645f395f51905f5280546001600160a01b0319811690915581906001600160a01b03167f8be0079c531659141344cd1fd0a4f28419497f9722a3daafe3b4186f6b6457e08280a380f35b50346101d457806003193601126101d457610f386126d0565b5f5160206143a45f395f51905f525460ff8160401c16908115611232575b50611223575f5160206143a45f395f51905f52805468ffffffffffffffffff1916680100000000000000021790555f5160206143845f395f51905f525460408051909190610fa48382612321565b6017815260208101907f726f757465722e73746f726167652e526f7574657256320000000000000000008252610fd86126d0565b5190205f19810190811161120f57916020917fc7f505b2f371ae2175ee4913f4499e1f2633a7b5936321eed1cdaeb6115181d2938251908482019081528482526110228483612321565b60ff19915190201690815f5160206143845f395f51905f5255611043612703565b80516001840155600283019063ffffffff868201511669ffffffffffff00000000868454930151881b169169ffffffffffffffffffff1916171790556005810160058301908082036111c1575b505061ffff600882015416600883019061ffff198254161790556110f96110b74283613ef1565b6110ce6001600160a01b036002610b1f4287613ef1565b6110e460046110dd4287613ef1565b01926123cc565b906110ef4293612501565b916009870161275b565b60158101601583019080820361116f575b505060168101601683019181830361114f575b5050505060ff60401b195f5160206143a45f395f51905f5254165f5160206143a45f395f51905f52555160028152a180f35b60189283925490556017810154601785015501549101555f80808061111d565b806001600160401b03806001600160801b03935416166001600160401b031984541617835554851c16600160401b600160c01b03825491861b1690600160401b600160c01b0319161790555f8061110a565b5481546001600160a01b03199081166001600160a01b039283161790925560068381015490850180548416918316919091179055600780840154908501805490931691161790555f80611090565b634e487b7160e01b84526011600452602484fd5b63f92ee8a960e01b8152600490fd5b600291506001600160401b031610155f610f56565b50346101d4576101603660031901126101d45761126261224c565b6024356001600160a01b03811691908290036117d457611280612220565b611288612236565b60c435916084359160a43560403660e31901126117d05761012435946001600160401b0386116117cc57366023870112156117cc578560040135916001600160401b0383116117c85736602484890101116117c857610144356001600160401b0381116117c4576112fd903690600401612276565b9690945f5160206143a45f395f51905f5254996001600160401b0360ff8c60401c16159b16801590816117bc575b60011490816117b2575b1590816117a9575b5061179a57611387908b60016001600160401b03195f5160206143a45f395f51905f525416175f5160206143a45f395f51905f525561176a575b61137f613f0d565b6101fc613f0d565b61138f613f0d565b42156117145782156116be578282111561165d57600a6113af84846123ea565b048410156116185760409a8b516113c68d82612321565b6017815260208101907f726f757465722e73746f726167652e526f75746572563100000000000000000082526113fa6126d0565b5190205f198101908111611604578c51602080820192835281528d9392916114228583612321565b60ff19915190201698895f5160206143845f395f51905f5255611443612703565b805160018c015560028b0190602081015163ffffffff1686835492015160201b69ffffffffffff00000000169169ffffffffffffffffffff19161717905583519061148d826122d7565b8282526001600160a01b03908116602083018190529381169490910184905260058a018054919092166001600160a01b0319918216179091556006890180548216909217909155600788018054909116909117905560088601805461ffff1916611a0a1790556114fb6123b4565b50895161150781612306565b639502f90081526509184e72a0006020909101526015860180546001600160c01b0319166d09184e72a000000000009502f900179055895183908b9061154c816122d7565b838152846020820152015260168601556017850155601884015586519461157286612306565b60e435865261010435602087015261158e913691602401612451565b904293369061159c926124ad565b91600901936115aa9461275b565b6115b2575080f35b60207fc7f505b2f371ae2175ee4913f4499e1f2633a7b5936321eed1cdaeb6115181d29160ff60401b195f5160206143a45f395f51905f5254165f5160206143a45f395f51905f52555160018152a180f35b634e487b7160e01b8e52601160045260248efd5b60405162461bcd60e51b815260206004820152601b60248201527f76616c69646174696f6e2064656c617920697320746f6f2062696700000000006044820152606490fd5b60405162461bcd60e51b815260206004820152603360248201527f657261206475726174696f6e206d757374206265206772656174657220746861604482015272371032b632b1ba34b7b710323ab930ba34b7b760691b6064820152608490fd5b60405162461bcd60e51b815260206004820152602860248201527f656c656374696f6e206475726174696f6e206d75737420626520677265617465604482015267072207468616e20360c41b6064820152608490fd5b60405162461bcd60e51b815260206004820152602860248201527f63757272656e742074696d657374616d70206d75737420626520677265617465604482015267072207468616e20360c41b6064820152608490fd5b600160401b60ff60401b195f5160206143a45f395f51905f525416175f5160206143a45f395f51905f5255611377565b63f92ee8a960e01b8d5260048dfd5b9050155f61133d565b303b159150611335565b8c915061132b565b8a80fd5b8980fd5b8880fd5b8780fd5b8280fd5b50346101d457806003193601126101d457602065ffffffffffff60045f5160206143845f395f51905f5254015416604051908152f35b50346101d45760203660031901126101d45761182861224c565b6118306126d0565b5f5160206143845f395f51905f525460050180546001600160a01b0319166001600160a01b0390921691909117905580f35b50346101d457806003193601126101d45761187b6123b4565b50604061189f61189a5f5160206143845f395f51905f52544290613ef1565b6123cc565b60208251918051835201516020820152f35b50346101d45760603660031901126101d4576004356118ce612220565b5f5160206143845f395f51905f52546118ec60018201541515612342565b8284526019810160205260ff6040852054166003811015611b2a57600203611ace576040516020810190848252602435604082015260408152611930606082612321565b51902060405160608101908082106001600160401b03831117611aca57605a916040527f3d605080600a3d3981f3608060405263e6fabc0960e01b5f5260205f6004817381523060601b6b5afa15604c575f80805136821760208201527f80378136915af43d5f803e156048573d5ff35b3d5ffd5b5f80fd000000000000604082015286f5908115611ac6576001600160a01b0382165f908152601a820160205260409020849055601b0180546119e6906126c2565b90556040516001600160a01b03821680825293907f8008ec1d8798725ebfa0f2d128d52e8e717dcba6e0f786557eeee70614b02bf190602090a2506001600160a01b038116611ac15750335b5f5160206143845f395f51905f5254600501546001600160a01b0316823b15611abd57604051631c9776b560e31b81526001600160a01b039092166004830152602482015260016044820152828160648183865af18015611ab257611a9d575b602082604051908152f35b611aa8838092612321565b6108a35781611a92565b6040513d85823e3d90fd5b8380fd5b611a32565b8480fd5b8680fd5b60405162461bcd60e51b815260206004820152602e60248201527f636f6465206d7573742062652076616c696461746564206265666f726520707260448201526d37b3b930b69031b932b0ba34b7b760911b6064820152608490fd5b634e487b7160e01b85526021600452602485fd5b50346101d457806003193601126101d457602060015f5160206143845f395f51905f52540154604051908152f35b50346101d45760203660031901126101d457600435814915611c7c5760195f5160206143845f395f51905f5254611ba860018201541515612342565b018183528060205260ff6040842054166003811015611c6857611c075781835260209081526040808420805460ff19166001179055519182527f5c261a095dd5720475295dc06379921c003c22164ee6cae5cf83e76ce0a1b98591a180f35b60405162461bcd60e51b815260206004820152603360248201527f676976656e20636f646520696420697320616c7265616479206f6e2076616c6960448201527219185d1a5bdb881bdc881d985b1a59185d1959606a1b6064820152608490fd5b634e487b7160e01b84526021600452602484fd5b60405162461bcd60e51b815260206004820152604860248201527f626c6f622063616e277420626520666f756e642c20726f75746572206578706560448201527f63746564204549502d34383434207472616e73616374696f6e2077697468205760648201526720a9a690313637b160c11b608482015260a490fd5b346121d85760803660031901126121d857600435611d14612220565b90611d1d612236565b915f5160206143845f395f51905f5254611d3c60018201541515612342565b825f526019810160205260ff60405f20541660038110156121e257600203611ace576040516020810190848252602435604082015260408152611d80606082612321565b5190206040516102c08101908082106001600160401b038311176121d8576102b4916040527f6080806040526102a290816100128239f3fe608060405260043610610258575f81527f3560e01c806329336f391461009b57806336a52a1814610096578063701da98e60208201527f14610091578063704ed5421461008c57806391d5a64c146100875780639ce11060408201527fd714610082578063affed0e01461007d578063d5624222146100785763e43f3460608201527f330361025857610243565b610208565b6101eb565b6101c3565b6101ad565b6160808201527f0194565b610177565b610150565b346100dc5760603660031901126100dc576060a08201527f243567ffffffffffffffff81116100dc576100cc9036906004016100e0565b5060c08201527f506100d661010e565b50610258565b5f80fd5b9181601f840112156100dc578260e08201527f359167ffffffffffffffff83116100dc57602083818601950101116100dc57566101008201527f5b604435906001600160801b03821682036100dc57565b6004359060016001606101208201527f801b03821682036100dc57565b602435906001600160801b03821682036100dc6101408201527f57565b346100dc575f3660031901126100dc575f546040516001600160a01b036101608201527f9091168152602090f35b346100dc575f3660031901126100dc576020600254606101808201527f4051908152f35b346100dc5760203660031901126100dc576100d6610124565b6101a08201527f346100dc57602036600319011215610258575f80fd5b346100dc575f366003196101c08201527f01126100dc576001546040516001600160a01b039091168152602090f35b34616101e08201527edc575f3660031901126100dc576020600354604051908152f35b346100dc576102008201527f60403660031901126100dc5760043567ffffffffffffffff81116100dc5761026102208201527f399036906004016100e0565b50506100d661013a565b346100dc575f3660031961024082015263ffffffff3060801c167f011215610258575f80fd5b63e6fabc0960e01b5f5260205f6004817300000000176102608201523060801b6f5afa156100dc575f8080513682803781176102808201527336915af43d5f803e1561029e573d5ff35b3d5ffd60601b6102a08201525ff59081156121d8576001600160a01b0382165f908152601a820160205260409020849055601b01805461211d906126c2565b90556040516001600160a01b03821680825293907f8008ec1d8798725ebfa0f2d128d52e8e717dcba6e0f786557eeee70614b02bf190602090a2506001600160a01b0381166121dc575033915b813b156121d857604051631c9776b560e31b81526001600160a01b039384166004820152921660248301525f604483018190528260648183855af19182156121cd576020926121bd575b50604051908152f35b5f6121c791612321565b5f6121b4565b6040513d5f823e3d90fd5b5f80fd5b9161216a565b634e487b7160e01b5f52602160045260245ffd5b346121d8575f3660031901126121d857602090601c5f5160206143845f395f51905f525401548152f35b604435906001600160a01b03821682036121d857565b606435906001600160a01b03821682036121d857565b600435906001600160a01b03821682036121d857565b35906001600160a01b03821682036121d857565b9181601f840112156121d8578235916001600160401b0383116121d8576020808501948460051b0101116121d857565b9060038210156121e25752565b805180835260209291819084018484015e5f828201840152601f01601f1916010190565b606081019081106001600160401b038211176122f257604052565b634e487b7160e01b5f52604160045260245ffd5b604081019081106001600160401b038211176122f257604052565b90601f801991011681019081106001600160401b038211176122f257604052565b1561234957565b60405162461bcd60e51b815260206004820152603860248201527f726f757465722067656e65736973206973207a65726f3b2063616c6c20606c6f60448201527f6f6b757047656e657369734861736828296020666972737400000000000000006064820152608490fd5b604051906123c182612306565b5f6020838281520152565b906040516123d981612306565b602060018294805484520154910152565b919082039182116123f757565b634e487b7160e01b5f52601160045260245ffd5b8115612415570490565b634e487b7160e01b5f52601260045260245ffd5b91908260409103126121d85760405161244181612306565b6020808294803584520135910152565b9291926001600160401b0382116122f2576040519161247a601f8201601f191660200184612321565b8294818452818301116121d8578281602093845f960137010152565b6001600160401b0381116122f25760051b60200190565b9291906124b981612496565b936124c76040519586612321565b602085838152019160051b81019283116121d857905b8282106124e957505050565b602080916124f684612262565b8152019101906124dd565b90604051918281549182825260208201905f5260205f20925f5b81811061253257505061253092500383612321565b565b84546001600160a01b031683526001948501948794506020909301920161251b565b91908110156125645760051b0190565b634e487b7160e01b5f52603260045260245ffd5b80518210156125645760209160051b010190565b356001600160a01b03811681036121d85790565b6125b95f5160206143845f395f51905f52544290613ef1565b600301905f5b8381106125cf5750505050600190565b6125dd610abd828685612554565b6001600160a01b03165f9081526020849052604090205460ff1615612604576001016125bf565b505050505f90565b9061261682612496565b6126236040519182612321565b8281528092612634601f1991612496565b0190602036910137565b3565ffffffffffff811681036121d85790565b6001600160a01b031680156126af575f5160206143645f395f51905f5280546001600160a01b0319811683179091556001600160a01b03167f8be0079c531659141344cd1fd0a4f28419497f9722a3daafe3b4186f6b6457e05f80a3565b631e4fbdf760e01b5f525f60045260245ffd5b5f1981146123f75760010190565b5f5160206143645f395f51905f52546001600160a01b031633036126f057565b63118cdaa760e01b5f523360045260245ffd5b5f60408051612711816122d7565b8281528260208201520152604051612728816122d7565b5f815263ffffffff4316602082015265ffffffffffff4216604082015290565b818102929181159184041417156123f757565b9291908051906020810191825170014551231950b75fc4402da1732fc9bebe19821091826129de575b50501561298a57518455516001840155604051906127c76021836020808201945f86528051918291018484015e81015f838201520301601f198101845283612321565b612804602b604051809360208201956a600b5981380380925939f360a81b87525180918484015e81015f838201520301601f198101835282612321565b51905ff06001600160a01b03811615612951576002830180546001600160a01b0319166001600160a01b039092169190911790555f5b600483018054821015612878575f90815260208082208301546001600160a01b0316825260038501905260409020805460ff1916905560010161283a565b5050925f5b84518110156128c1576001906001600160a01b0361289b8288612578565b5116828060a01b03165f526003840160205260405f208260ff198254161790550161287d565b5092600482018151916001600160401b0383116122f257600160401b83116122f257815483835580841061292b575b50602001905f5260205f205f5b83811061290e575050505060050155565b82516001600160a01b0316818301556020909201916001016128fd565b825f528360205f2091820191015b81811061294657506128f0565b5f8155600101612939565b60405162461bcd60e51b81526020600482015260116024820152701111541313d65351539517d19052531151607a1b6044820152606490fd5b60405162461bcd60e51b815260206004820152602660248201527f46524f53542061676772656761746564207075626c6963206b657920697320696044820152651b9d985b1a5960d21b6064820152608490fd5b6129e892506142be565b5f80612784565b803b905f198201908282116123f75760019060405193603e601f19910116840160405282845260208401903c90565b905f1943014381116123f757805b612a37575b505f9150565b8040838103612a4857506001925050565b15612a56575f190180612a2c565b612a31565b903590601e19813603018212156121d857018035906001600160401b0382116121d857602001918160051b360383136121d857565b903590601e19813603018212156121d857018035906001600160401b0382116121d8576020019160608202360383136121d857565b35906001600160401b03821682036121d857565b919060608101906001612aec8383612a5b565b90501161314057612afd8282612a5b565b9050156131195790612b0e91612a5b565b1561256457803590603e19813603018212156121d85792919201612b328180612a5b565b9290916060925f9560be198236030192601a8501955b87891015612f80578860051b840135858112156121d8578401612b6a8161258c565b6001600160a01b03165f9081526020899052604090205415612f2357606081016001600160801b03612b9b82613f38565b16612e87575b6001600160a01b03612bb28361258c565b6040516309ed323560e41b8152602060048201529391169160e4840191906001600160801b0390612c1d906001600160a01b03612bee85612262565b166024880152602084013560448801526001600160a01b03612c1260408601612262565b166064880152613f4c565b16608485015236819003601e19016080820135818112156121d8578201602081359101936001600160401b0382116121d85760608202360385136121d857819060c060a489015252610104860193905f905b808210612e3d5750505060a0820135908112156121d8570180359160208201926001600160401b0381116121d8578060051b9182360385136121d8578681036023190160c48801528181528694928101602090810194908201925f9290913681900360de19015b838510612d44575050505050505091815f8160209503925af19081156121cd575f91612d12575b50612d0a906001926131e4565b980197612b48565b90506020813d8211612d3c575b81612d2c60209383612321565b810103126121d857516001612cfd565b3d9150612d1f565b9193959750919395601f198482030187528735828112156121d857830160208101358252906001600160a01b03612d7d60408401612262565b1660208201526060820135603e1936849003018112156121d85782602091010191602083359301906001600160401b0384116121d85783360382136121d8578360c092836040860152818486015260e08501375f60e085850101526001600160801b03612dec60808301613f4c565b16606084015260a0810135608084015201359163ffffffff60e01b83168093036121d85760e0826020939260019560a086950152601f80199101160101990197019501929091899796959492612cd6565b90919460608060019288358152838060a01b03612e5c60208b01612262565b1660208201526001600160801b03612e7660408b01613f4c565b166040820152019601920190612c6f565b60068801546001600160801b03906020906001600160a01b03166044612eac8661258c565b5f612eb687613f38565b60405163a9059cbb60e01b81526001600160a01b0390931660048401529590951660248201529384928391905af180156121cd57612ef5575b50612ba1565b612f159060203d8111612f1c575b612f0d8183612321565b810190613233565b505f612eef565b503d612f03565b60405162461bcd60e51b815260206004820152602f60248201527f636f756c646e277420706572666f726d207472616e736974696f6e20666f722060448201526e756e6b6e6f776e2070726f6772616d60881b6064820152608490fd5b95509550955050505060208151910120906020810190612faa612fa38383612a90565b905061260c565b935f5b612fb78484612a90565b90508110156130a357612fca8484612a90565b8210156125645760608202019060405191803590818452606060208201916001600160401b03612ff984612ac5565b1660208701527fd8306a982f73c7ab90175899ff21dfdf55173bc8f7838be37e55a4e6f37b9fba82604083013597886040820152a13603126121d85783600194604061305281519461304a866122d7565b868652612ac5565b93846020820152015260405191602083019384526001600160401b0360c01b9060c01b16604083015260488201526048815261308f606882612321565b51902061309c8289612578565b5201612fad565b50939150506040516020810181819360208151939101925f5b8181106131005750506130d8925003601f198101835282612321565b51902060405190602082019283526040820152604081526130fa606082612321565b51902090565b84518352602094850194869450909201916001016130bc565b507fc5d2460186f7233c927e7db2dcc703c0e500b653ca82273b7bfad8045d85a470925050565b60405162461bcd60e51b815260206004820152603460248201527f636861696e436f6d6d69746d656e7420636f756c6420636f6e7461696e206174604482015273081b5bdcdd081bdb994818dbdb5b5a5d1b595b9d60621b6064820152608490fd5b903590601e19813603018212156121d857018035906001600160401b0382116121d857602001918160061b360383136121d857565b3580151581036121d85790565b602080612530928195946040519682889351918291018585015e8201908382015203018085520183612321565b903590605e19813603018212156121d8570190565b919082018092116123f757565b908160209103126121d8575180151581036121d85790565b60a08201600161325b8285612a5b565b90501161362b5761326c8184612a5b565b9050156136045761327d9083612a5b565b1561256457803590607e19813603018212156121d8570191606083019065ffffffffffff6132aa8361263e565b16156135b35765ffffffffffff806132cd60206132c68661263e565b940161263e565b1691161015613554576007820154600690920180548435946001600160a01b0394851694604082019391925f916020911660446133168361330e8989613211565b01358b613226565b604051948593849263095ea7b360e01b84528c600485015260248401525af180156121cd57613537575b505460405163394f179b60e11b81526001600160a01b03909116600482015260248101959095526020818101356044870152856064815f885af19485156121cd575f956134ff575b509061339391613211565b9161339d8261263e565b9260405193637fbe95b560e01b85526040600486015260a48501918035601e19823603018112156121d8578101602081359101936001600160401b0382116121d8578160061b360385136121d85760606044890152819052869360c485019392915f5b8181106134c757505050836020959365ffffffffffff829484895f9601356064860152613436604060018060a01b039201612262565b16608485015216602483015203925af19182156121cd575f92613491575b5061345e9061263e565b6040519160208301938452604083015265ffffffffffff60d01b9060d01b166060820152604681526130fa606682612321565b9091506020813d6020116134bf575b816134ad60209383612321565b810103126121d857519061345e613454565b3d91506134a0565b919550919293604080600192838060a01b036134e28a612262565b168152602089013560208201520196019101918895949392613400565b919094506020823d60201161352f575b8161351c60209383612321565b810103126121d857905193613393613388565b3d915061350f565b61354f9060203d602011612f1c57612f0d8183612321565b613340565b60405162461bcd60e51b815260206004820152603160248201527f7265776172647320636f6d6d69746d656e742074696d657374616d70206d75736044820152701d08189948199bdc881d1a19481c185cdd607a1b6064820152608490fd5b60405162461bcd60e51b8152602060048201526024808201527f7265776172647320636f6d6d69746d656e742074696d657374616d70206973206044820152637a65726f60e01b6064820152608490fd5b5050507fc5d2460186f7233c927e7db2dcc703c0e500b653ca82273b7bfad8045d85a47090565b608460405162461bcd60e51b815260206004820152604060248201527f7265776172647320636f6d6d69746d656e74206d75737420626520656d70747960448201527f206f7220636f6e7461696e73206f6e6c79206f6e6520636f6d6d69746d656e746064820152fd5b903590601e19813603018212156121d857018035906001600160401b0382116121d8576020019181360383136121d857565b9060c0810160016136d88284612a5b565b905011613aaf576136e98183612a5b565b905015613604576136f991612a5b565b1561256457803590609e19813603018212156121d857019065ffffffffffff600282015460201c169161372c83426123ea565b61373b6016840154809261240b565b93608083013594600181018091116123f7578503613a57576137608561376693612748565b90613226565b906060925f806040516137798782612321565b602781527f6e65787445726153746172743a2025732c2063757272656e742074696d657374602082015266616d703a20257360c81b60408201526040516137f6816137dc602082019463ca47c4eb60e01b86528b602484015260848301906122b3565b89604483015242606483015203601f198101835282612321565b51906a636f6e736f6c652e6c6f675afa506138156017820154846123ea565b4210613a125761382490613f60565b9142600584015410156139b2577f41e7f919bf726af8aa2ef36bd31905a693013e30c45c6284060e613d4941997b6020826138a38794604087019761388d61389561389d8a6138738d82613695565b93909b82019b6138838d84612a5b565b9690933690612429565b943691612451565b9336916124ad565b9261275b565b604051908152a160a0823603126121d85760405192608084018481106001600160401b038211176122f2576040526138db3684612429565b8452356001600160401b0381116121d857820136601f820112156121d85761390a903690602081359101612451565b602084015235906001600160401b0382116121d8570136601f820112156121d85761393f9093919336906020813591016124ad565b92836040820152818382015251926020845194015191604051938493602085019687526040850152830160208351919301905f5b818110613990575050508152038082526130fa9060200182612321565b82516001600160a01b0316855286955060209485019490920191600101613973565b60405162461bcd60e51b815260206004820152603260248201527f6c6f6f6b73206c696b652076616c696461746f727320666f72206e65787420656044820152711c9848185c9948185b1c9958591e481cd95d60721b6064820152608490fd5b60405162461bcd60e51b815260206004820152601b60248201527f656c656374696f6e206973206e6f7420796574207374617274656400000000006044820152606490fd5b60405162461bcd60e51b815260206004820152602a60248201527f636f6d6d69746d656e742065726120696e646578206973206e6f74206e657874604482015269040cae4c240d2dcc8caf60b31b6064820152608490fd5b60405162461bcd60e51b815260206004820152604360248201527f76616c696461746f727320636f6d6d69746d656e74206d75737420626520656d60448201527f707479206f7220636f6e7461696e73206f6e6c79206f6e6520636f6d6d69746d606482015262195b9d60ea1b608482015260a490fd5b909493919365ffffffffffff600283015460201c16613b5c613b67613b61613b4e84426123ea565b60168701549384809261240b565b612748565b83613226565b918284108080613eb9575b15613e4757508310613e0257613b889083613226565b10613db157613b98905b82613ef1565b94601960f81b5f523060601b60025260165260365f209360028110156121e25780613ca857505060018103613c63571561256457613bd981613be092613695565b3691612451565b916060835103613c0e57826020613c0b94015160606040830151920151926001815491015490613f7b565b90565b60405162461bcd60e51b815260206004820152602760248201527f46524f5354207369676e6174757265206c656e677468206d75737420626520396044820152663620627974657360c81b6064820152608490fd5b60405162461bcd60e51b815260206004820152601e60248201527f46524f5354207369676e6174757265206d7573742062652073696e676c6500006044820152606490fd5b919391600114613cbb5750505050505f90565b613cd59061ffff6008600488979801549201541690613ecf565b925f9260035f9201915b86811015613da657613d0e613d05613cff613bd98460051b860186613695565b86614224565b9092919261425e565b6001600160a01b0381165f9081526020859052604090205460ff16613d39575b506001905b01613cdf565b6001600160a01b03165f9081527ff02b465737fa6045c2ff53fb2df43c66916ac2166fa303264668fb2f6a1d8c0060205260409020805c15613d7e5750600190613d33565b946001613d8c92965d6126c2565b93858514613d9a575f613d2e565b50505050505050600190565b505050505050505f90565b60405162461bcd60e51b8152602060048201526024808201527f74696d657374616d70206973206f6c646572207468616e2070726576696f75736044820152632065726160e01b6064820152608490fd5b60405162461bcd60e51b815260206004820152601e60248201527f63616e6e6f742076616c6964617465206265666f72652067656e6573697300006044820152606490fd5b9392915050428211613e6a57613b9892613e62575b50613b92565b90505f613e5c565b60405162461bcd60e51b815260206004820152602160248201527f74696d657374616d702063616e6e6f7420626520696e207468652066757475726044820152606560f81b6064820152608490fd5b50613ec8601887015485613226565b4210613b72565b61ffff613edd921690612748565b61270f81018091116123f757612710900490565b90613efc908261413b565b15613f0757600f0190565b60090190565b60ff5f5160206143a45f395f51905f525460401c1615613f2957565b631afcd79f60e31b5f5260045ffd5b356001600160801b03811681036121d85790565b35906001600160801b03821682036121d857565b613f6a428261413b565b15613f755760090190565b600f0190565b9293919490613f8a85876142be565b156141315782156141315770014551231950b75fc4402da1732fc9bebe19831015614131576001169061010e6040519161012083018381106001600160401b038211176121d85760405260883684376002600188160160888401538760898401526002840160a984015360aa830186905260ca8301527e300046524f53542d736563703235366b312d4b454343414b3235362d76316360ea8301526303430b6160e51b61010a830152812060cc820181815290600260ec84016001815360428420809318845253604270014551231950b75fc4402da1732fc9bebe19922060801c6001600160401b0360801b8260801b16179070014551231950b75fc4402da1732fc9bebe1990600160c01b9060401c09088015613da65784601b6080945f9660209870014551231950b75fc4402da1732fc9bebe19910970014551231950b75fc4402da1732fc9bebe19038552018684015280604084015270014551231950b75fc4402da1732fc9bebe19910970014551231950b75fc4402da1732fc9bebe1903606082015282805260015afa505f51915f5260205260018060a01b0360405f20161490565b5050505050505f90565b906014600e8301549201548083146141e0578181841093119182159111159181906141d9575b15614176578261417057505090565b14919050565b60405162461bcd60e51b815260206004820152603560248201527f636f756c64206e6f74206964656e746966792076616c696461746f727320666f6044820152740722074686520676976656e2074696d657374616d7605c1b6064820152608490fd5b5081614161565b606460405162461bcd60e51b815260206004820152602060248201527f657261732074696d657374616d70206d757374206e6f7420626520657175616c6044820152fd5b81519190604183036142545761424d9250602082015190606060408401519301515f1a906142e1565b9192909190565b50505f9160029190565b60048110156121e25780614270575050565b600181036142875763f645eedf60e01b5f5260045ffd5b600281036142a2575063fce698f760e01b5f5260045260245ffd5b6003146142ac5750565b6335e2f38360e21b5f5260045260245ffd5b6401000003d01990600790829081818009900908906401000003d0199080091490565b91907f7fffffffffffffffffffffffffffffff5d576e7357a4501ddfe92f46681b20a08411614358579160209360809260ff5f9560405194855216868401526040830152606082015282805260015afa156121cd575f516001600160a01b0381161561434e57905f905f90565b505f906001905f90565b5050505f916003919056fe9016d09d72d40fdae2fd8ceac6b6234c7706214fd39c1cd1e609a0528c1993005c09ca1b9b8127a4fd9f3c384aac59b661441e820e17733753ff5f2e86e1e000f0c57e16840df040f15088dc2f81fe391c3923bec73e23a9662efc9c229c6a00f0c57e16840df040f15088dc2f81fe391c3923bec73e23a9662efc9c229c6a00","linkReferences":{}},"methodIdentifiers":{"areValidators(address[])":"8f381dbe","codeState(bytes32)":"c13911e8","codesStates(bytes32[])":"82bdeaad","commitBatch((bytes32,uint48,bytes32,((address,bytes32,address,uint128,(bytes32,address,uint128)[],(bytes32,address,bytes,uint128,(bytes32,bytes4))[])[],(bytes32,uint64,bytes32)[])[],(bytes32,bool)[],((uint256,bytes32),((address,uint256)[],uint256,address),uint48)[],((uint256,uint256),bytes,address[],uint256)[]),uint8,bytes[])":"e7458f82","computeSettings()":"84d22a4f","createProgram(bytes32,bytes32,address)":"3683c4d2","createProgramWithAbiInterface(bytes32,bytes32,address,address)":"0c18d277","genesisBlockHash()":"28e24b3d","genesisTimestamp()":"cacf66ab","initialize(address,address,address,address,uint256,uint256,uint256,(uint256,uint256),bytes,address[])":"53f7fd48","isValidator(address)":"facd743b","latestCommittedBlockHash()":"c9f16a11","latestCommittedBlockTimestamp()":"53266211","lookupGenesisHash()":"8b1edf1e","mirrorImpl()":"e6fabc09","owner()":"8da5cb5b","programCodeId(address)":"9067088e","programsCodeIds(address[])":"baaf0201","programsCount()":"96a2ddfa","reinitialize()":"6c2eb350","renounceOwnership()":"715018a6","requestCodeValidation(bytes32)":"120e3f1e","setMirror(address)":"3d43b418","signingThresholdPercentage()":"efd81abc","transferOwnership(address)":"f2fde38b","validatedCodesCount()":"007a32e7","validators()":"ca1e7819","validatorsAggregatedPublicKey()":"3bd109fa","validatorsCount()":"ed612f8c","validatorsThreshold()":"edc87225","validatorsVerifiableSecretSharingCommitment()":"a5d53a44","wrappedVara()":"88f50cf0"},"storageLayout":{"storage":[],"types":{}},"id":165}