{"abi":[{"type":"constructor","inputs":[],"stateMutability":"nonpayable"},{"type":"function","name":"areValidators","inputs":[{"name":"_validators","type":"address[]","internalType":"address[]"}],"outputs":[{"name":"","type":"bool","internalType":"bool"}],"stateMutability":"view"},{"type":"function","name":"codeState","inputs":[{"name":"_codeId","type":"bytes32","internalType":"bytes32"}],"outputs":[{"name":"","type":"uint8","internalType":"enum Gear.CodeState"}],"stateMutability":"view"},{"type":"function","name":"codesStates","inputs":[{"name":"_codesIds","type":"bytes32[]","internalType":"bytes32[]"}],"outputs":[{"name":"","type":"uint8[]","internalType":"enum Gear.CodeState[]"}],"stateMutability":"view"},{"type":"function","name":"commitBatch","inputs":[{"name":"_batch","type":"tuple","internalType":"struct Gear.BatchCommitment","components":[{"name":"blockHash","type":"bytes32","internalType":"bytes32"},{"name":"blockTimestamp","type":"uint48","internalType":"uint48"},{"name":"previousCommittedBatchHash","type":"bytes32","internalType":"bytes32"},{"name":"chainCommitment","type":"tuple[]","internalType":"struct Gear.ChainCommitment[]","components":[{"name":"transitions","type":"tuple[]","internalType":"struct Gear.StateTransition[]","components":[{"name":"actorId","type":"address","internalType":"address"},{"name":"newStateHash","type":"bytes32","internalType":"bytes32"},{"name":"exited","type":"bool","internalType":"bool"},{"name":"inheritor","type":"address","internalType":"address"},{"name":"valueToReceive","type":"uint128","internalType":"uint128"},{"name":"valueClaims","type":"tuple[]","internalType":"struct Gear.ValueClaim[]","components":[{"name":"messageId","type":"bytes32","internalType":"bytes32"},{"name":"destination","type":"address","internalType":"address"},{"name":"value","type":"uint128","internalType":"uint128"}]},{"name":"messages","type":"tuple[]","internalType":"struct Gear.Message[]","components":[{"name":"id","type":"bytes32","internalType":"bytes32"},{"name":"destination","type":"address","internalType":"address"},{"name":"payload","type":"bytes","internalType":"bytes"},{"name":"value","type":"uint128","internalType":"uint128"},{"name":"replyDetails","type":"tuple","internalType":"struct Gear.ReplyDetails","components":[{"name":"to","type":"bytes32","internalType":"bytes32"},{"name":"code","type":"bytes4","internalType":"bytes4"}]},{"name":"call","type":"bool","internalType":"bool"}]}]},{"name":"blocks","type":"tuple[]","internalType":"struct Gear.GearBlock[]","components":[{"name":"hash","type":"bytes32","internalType":"bytes32"},{"name":"gasAllowance","type":"uint64","internalType":"uint64"},{"name":"offchainTransactionsHash","type":"bytes32","internalType":"bytes32"}]}]},{"name":"codeCommitments","type":"tuple[]","internalType":"struct Gear.CodeCommitment[]","components":[{"name":"id","type":"bytes32","internalType":"bytes32"},{"name":"valid","type":"bool","internalType":"bool"}]},{"name":"rewardsCommitment","type":"tuple[]","internalType":"struct Gear.RewardsCommitment[]","components":[{"name":"operators","type":"tuple","internalType":"struct Gear.OperatorRewardsCommitment","components":[{"name":"amount","type":"uint256","internalType":"uint256"},{"name":"root","type":"bytes32","internalType":"bytes32"}]},{"name":"stakers","type":"tuple","internalType":"struct Gear.StakerRewardsCommitment","components":[{"name":"distribution","type":"tuple[]","internalType":"struct Gear.StakerRewards[]","components":[{"name":"vault","type":"address","internalType":"address"},{"name":"amount","type":"uint256","internalType":"uint256"}]},{"name":"totalAmount","type":"uint256","internalType":"uint256"},{"name":"token","type":"address","internalType":"address"}]},{"name":"timestamp","type":"uint48","internalType":"uint48"}]},{"name":"validatorsCommitment","type":"tuple[]","internalType":"struct Gear.ValidatorsCommitment[]","components":[{"name":"aggregatedPublicKey","type":"tuple","internalType":"struct Gear.AggregatedPublicKey","components":[{"name":"x","type":"uint256","internalType":"uint256"},{"name":"y","type":"uint256","internalType":"uint256"}]},{"name":"verifiableSecretSharingCommitment","type":"bytes","internalType":"bytes"},{"name":"validators","type":"address[]","internalType":"address[]"},{"name":"eraIndex","type":"uint256","internalType":"uint256"}]}]},{"name":"_signatureType","type":"uint8","internalType":"enum Gear.SignatureType"},{"name":"_signatures","type":"bytes[]","internalType":"bytes[]"}],"outputs":[],"stateMutability":"nonpayable"},{"type":"function","name":"computeSettings","inputs":[],"outputs":[{"name":"","type":"tuple","internalType":"struct Gear.ComputationSettings","components":[{"name":"threshold","type":"uint64","internalType":"uint64"},{"name":"wvaraPerSecond","type":"uint128","internalType":"uint128"}]}],"stateMutability":"view"},{"type":"function","name":"createProgram","inputs":[{"name":"_codeId","type":"bytes32","internalType":"bytes32"},{"name":"_salt","type":"bytes32","internalType":"bytes32"},{"name":"_overrideInitializer","type":"address","internalType":"address"}],"outputs":[{"name":"","type":"address","internalType":"address"}],"stateMutability":"nonpayable"},{"type":"function","name":"createProgramWithAbiInterface","inputs":[{"name":"_codeId","type":"bytes32","internalType":"bytes32"},{"name":"_salt","type":"bytes32","internalType":"bytes32"},{"name":"_overrideInitializer","type":"address","internalType":"address"},{"name":"_abiInterface","type":"address","internalType":"address"}],"outputs":[{"name":"","type":"address","internalType":"address"}],"stateMutability":"nonpayable"},{"type":"function","name":"genesisBlockHash","inputs":[],"outputs":[{"name":"","type":"bytes32","internalType":"bytes32"}],"stateMutability":"view"},{"type":"function","name":"genesisTimestamp","inputs":[],"outputs":[{"name":"","type":"uint48","internalType":"uint48"}],"stateMutability":"view"},{"type":"function","name":"initialize","inputs":[{"name":"_owner","type":"address","internalType":"address"},{"name":"_mirror","type":"address","internalType":"address"},{"name":"_wrappedVara","type":"address","internalType":"address"},{"name":"_middleware","type":"address","internalType":"address"},{"name":"_eraDuration","type":"uint256","internalType":"uint256"},{"name":"_electionDuration","type":"uint256","internalType":"uint256"},{"name":"_validationDelay","type":"uint256","internalType":"uint256"},{"name":"_aggregatedPublicKey","type":"tuple","internalType":"struct Gear.AggregatedPublicKey","components":[{"name":"x","type":"uint256","internalType":"uint256"},{"name":"y","type":"uint256","internalType":"uint256"}]},{"name":"_verifiableSecretSharingCommitment","type":"bytes","internalType":"bytes"},{"name":"_validators","type":"address[]","internalType":"address[]"}],"outputs":[],"stateMutability":"nonpayable"},{"type":"function","name":"isValidator","inputs":[{"name":"_validator","type":"address","internalType":"address"}],"outputs":[{"name":"","type":"bool","internalType":"bool"}],"stateMutability":"view"},{"type":"function","name":"latestCommittedBatchHash","inputs":[],"outputs":[{"name":"","type":"bytes32","internalType":"bytes32"}],"stateMutability":"view"},{"type":"function","name":"latestCommittedBatchTimestamp","inputs":[],"outputs":[{"name":"","type":"uint48","internalType":"uint48"}],"stateMutability":"view"},{"type":"function","name":"latestRewardedEraIndex","inputs":[],"outputs":[{"name":"","type":"uint256","internalType":"uint256"}],"stateMutability":"view"},{"type":"function","name":"lookupGenesisHash","inputs":[],"outputs":[],"stateMutability":"nonpayable"},{"type":"function","name":"mirrorImpl","inputs":[],"outputs":[{"name":"","type":"address","internalType":"address"}],"stateMutability":"view"},{"type":"function","name":"owner","inputs":[],"outputs":[{"name":"","type":"address","internalType":"address"}],"stateMutability":"view"},{"type":"function","name":"programCodeId","inputs":[{"name":"_programId","type":"address","internalType":"address"}],"outputs":[{"name":"","type":"bytes32","internalType":"bytes32"}],"stateMutability":"view"},{"type":"function","name":"programsCodeIds","inputs":[{"name":"_programsIds","type":"address[]","internalType":"address[]"}],"outputs":[{"name":"","type":"bytes32[]","internalType":"bytes32[]"}],"stateMutability":"view"},{"type":"function","name":"programsCount","inputs":[],"outputs":[{"name":"","type":"uint256","internalType":"uint256"}],"stateMutability":"view"},{"type":"function","name":"reinitialize","inputs":[],"outputs":[],"stateMutability":"nonpayable"},{"type":"function","name":"renounceOwnership","inputs":[],"outputs":[],"stateMutability":"nonpayable"},{"type":"function","name":"requestCodeValidation","inputs":[{"name":"_codeId","type":"bytes32","internalType":"bytes32"}],"outputs":[],"stateMutability":"nonpayable"},{"type":"function","name":"setMirror","inputs":[{"name":"newMirror","type":"address","internalType":"address"}],"outputs":[],"stateMutability":"nonpayable"},{"type":"function","name":"signingThresholdPercentage","inputs":[],"outputs":[{"name":"","type":"uint16","internalType":"uint16"}],"stateMutability":"view"},{"type":"function","name":"timelines","inputs":[],"outputs":[{"name":"","type":"tuple","internalType":"struct Gear.Timelines","components":[{"name":"era","type":"uint256","internalType":"uint256"},{"name":"election","type":"uint256","internalType":"uint256"},{"name":"validationDelay","type":"uint256","internalType":"uint256"}]}],"stateMutability":"view"},{"type":"function","name":"transferOwnership","inputs":[{"name":"newOwner","type":"address","internalType":"address"}],"outputs":[],"stateMutability":"nonpayable"},{"type":"function","name":"validatedCodesCount","inputs":[],"outputs":[{"name":"","type":"uint256","internalType":"uint256"}],"stateMutability":"view"},{"type":"function","name":"validators","inputs":[],"outputs":[{"name":"","type":"address[]","internalType":"address[]"}],"stateMutability":"view"},{"type":"function","name":"validatorsAggregatedPublicKey","inputs":[],"outputs":[{"name":"","type":"tuple","internalType":"struct Gear.AggregatedPublicKey","components":[{"name":"x","type":"uint256","internalType":"uint256"},{"name":"y","type":"uint256","internalType":"uint256"}]}],"stateMutability":"view"},{"type":"function","name":"validatorsCount","inputs":[],"outputs":[{"name":"","type":"uint256","internalType":"uint256"}],"stateMutability":"view"},{"type":"function","name":"validatorsThreshold","inputs":[],"outputs":[{"name":"","type":"uint256","internalType":"uint256"}],"stateMutability":"view"},{"type":"function","name":"validatorsVerifiableSecretSharingCommitment","inputs":[],"outputs":[{"name":"","type":"bytes","internalType":"bytes"}],"stateMutability":"view"},{"type":"function","name":"wrappedVara","inputs":[],"outputs":[{"name":"","type":"address","internalType":"address"}],"stateMutability":"view"},{"type":"event","name":"BatchCommitted","inputs":[{"name":"hash","type":"bytes32","indexed":false,"internalType":"bytes32"}],"anonymous":false},{"type":"event","name":"CodeGotValidated","inputs":[{"name":"codeId","type":"bytes32","indexed":false,"internalType":"bytes32"},{"name":"valid","type":"bool","indexed":true,"internalType":"bool"}],"anonymous":false},{"type":"event","name":"CodeValidationRequested","inputs":[{"name":"codeId","type":"bytes32","indexed":false,"internalType":"bytes32"}],"anonymous":false},{"type":"event","name":"ComputationSettingsChanged","inputs":[{"name":"threshold","type":"uint64","indexed":false,"internalType":"uint64"},{"name":"wvaraPerSecond","type":"uint128","indexed":false,"internalType":"uint128"}],"anonymous":false},{"type":"event","name":"GearBlockCommitted","inputs":[{"name":"block","type":"tuple","indexed":false,"internalType":"struct Gear.GearBlock","components":[{"name":"hash","type":"bytes32","internalType":"bytes32"},{"name":"gasAllowance","type":"uint64","internalType":"uint64"},{"name":"offchainTransactionsHash","type":"bytes32","internalType":"bytes32"}]}],"anonymous":false},{"type":"event","name":"Initialized","inputs":[{"name":"version","type":"uint64","indexed":false,"internalType":"uint64"}],"anonymous":false},{"type":"event","name":"NextEraValidatorsCommitted","inputs":[{"name":"startTimestamp","type":"uint256","indexed":false,"internalType":"uint256"}],"anonymous":false},{"type":"event","name":"OwnershipTransferred","inputs":[{"name":"previousOwner","type":"address","indexed":true,"internalType":"address"},{"name":"newOwner","type":"address","indexed":true,"internalType":"address"}],"anonymous":false},{"type":"event","name":"ProgramCreated","inputs":[{"name":"actorId","type":"address","indexed":false,"internalType":"address"},{"name":"codeId","type":"bytes32","indexed":true,"internalType":"bytes32"}],"anonymous":false},{"type":"event","name":"RewardsDistributed","inputs":[{"name":"eraIndex","type":"uint256","indexed":false,"internalType":"uint256"}],"anonymous":false},{"type":"event","name":"StorageSlotChanged","inputs":[],"anonymous":false},{"type":"error","name":"ECDSAInvalidSignature","inputs":[]},{"type":"error","name":"ECDSAInvalidSignatureLength","inputs":[{"name":"length","type":"uint256","internalType":"uint256"}]},{"type":"error","name":"ECDSAInvalidSignatureS","inputs":[{"name":"s","type":"bytes32","internalType":"bytes32"}]},{"type":"error","name":"InvalidInitialization","inputs":[]},{"type":"error","name":"NotInitializing","inputs":[]},{"type":"error","name":"OwnableInvalidOwner","inputs":[{"name":"owner","type":"address","internalType":"address"}]},{"type":"error","name":"OwnableUnauthorizedAccount","inputs":[{"name":"account","type":"address","internalType":"address"}]},{"type":"error","name":"ReentrancyGuardReentrantCall","inputs":[]}],"bytecode":{"object":"0x6080806040523460aa575f51602061455c5f395f51905f525460ff8160401c16609b576002600160401b03196001600160401b038216016049575b6040516144ad90816100af8239f35b6001600160401b0319166001600160401b039081175f51602061455c5f395f51905f525581527fc7f505b2f371ae2175ee4913f4499e1f2633a7b5936321eed1cdaeb6115181d290602090a15f80603a565b63f92ee8a960e01b5f5260045ffd5b5f80fdfe6080806040526004361015610012575f80fd5b5f905f3560e01c9081627a32e714612302575080630c18d27714611dfc578063120e3f1e14611c7057806328e24b3d14611c425780633683c4d2146119b55780633bd109fa146119665780633d43b4181461191257806353f7fd481461138d5780636c2eb3501461103b578063715018a614610fd257806371a8cf2d14610fa457806382bdeaad14610e8c57806384d22a4f14610e2357806388f50cf014610dea5780638b1edf1e14610d1f5780638da5cb5b14610cea5780638f381dbe14610ca45780639067088e14610c5b57806396a2ddfa14610c2d5780639eb939a814610bc1578063a5d53a4414610b53578063aa28e0f214610546578063baaf02011461046a578063bf34281f1461043c578063c13911e8146103f8578063ca1e781914610375578063cacf66ab1461033d578063d456fd5114610307578063e6fabc09146102ce578063ed612f8c14610296578063edc872251461024c578063efd81abc1461021a578063f2fde38b146101ed5763facd743b14610193575f80fd5b346101ea5760203660031901126101ea576101ac612358565b60036101c75f51602061446d5f395f51905f52544290613fda565b019060018060a01b03165f52602052602060ff60405f2054166040519015158152f35b80fd5b50346101ea5760203660031901126101ea5761021761020a612358565b6102126127d6565b612757565b80f35b50346101ea57806003193601126101ea57602061ffff60085f51602061446d5f395f51905f5254015416604051908152f35b50346101ea57806003193601126101ea57602061028e5f51602061446d5f395f51905f525461ffff600860046102824285613fda565b01549201541690613fb8565b604051908152f35b50346101ea57806003193601126101ea57602060046102c45f51602061446d5f395f51905f52544290613fda565b0154604051908152f35b50346101ea57806003193601126101ea575f51602061446d5f395f51905f5254600501546040516001600160a01b039091168152602090f35b50346101ea57806003193601126101ea57602065ffffffffffff60045f51602061446d5f395f51905f5254015416604051908152f35b50346101ea57806003193601126101ea57602065ffffffffffff60025f51602061446d5f395f51905f52540154821c16604051908152f35b50346101ea57806003193601126101ea576103aa60046103a45f51602061446d5f395f51905f52544290613fda565b016125e9565b90604051918291602083016020845282518091526020604085019301915b8181106103d6575050500390f35b82516001600160a01b03168452859450602093840193909201916001016103c8565b50346101ea5760203660031901126101ea5760ff604060209260195f51602061446d5f395f51905f5254016004358252845220541661043a60405180926123b2565bf35b50346101ea57806003193601126101ea576020601d5f51602061446d5f395f51905f52540154604051908152f35b50346101ea5760203660031901126101ea576004356001600160401b0381116105425761049b903690600401612382565b905f51602061446d5f395f51905f52546104b483612725565b92601a859201915b818110610509578486604051918291602083016020845282518091526020604085019301915b8181106104f0575050500390f35b82518452859450602093840193909201916001016104e2565b8061051f61051a600193858861263c565b612674565b828060a01b03165f528360205260405f205461053b8288612660565b52016104bc565b5080fd5b50346101ea5760603660031901126101ea576004356001600160401b03811161054257806004019160e060031983360301126101ea57602435926002841015610542576044356001600160401b038111610b4f576105a8903690600401612382565b92907f9b779b17422d0df92223018b32b4d1fa46e071723d6817e2486d003becc55f005c610b405760017f9b779b17422d0df92223018b32b4d1fa46e071723d6817e2486d003becc55f005d5f51602061446d5f395f51905f5254926106136001850154151561242a565b835415610a72575b60038401948554926044880135809403610a1f57600486019865ffffffffffff8a54169760248a019865ffffffffffff6106548b612712565b161061099f5760849a9998610669868a612bcf565b9a606097899d8e9c019860198c019c5b6106838b8b6132ba565b919050101561084b578e6106978b8b6132ba565b90911015610837578f60ff8f926040908f9360061b01928335948582526020522054166003811015610823576001036107c05760408f918f928f9360208301946106e0866132ef565b156107a857601c928782526020528481209050600260ff198254161790550161070981546127c8565b90555b610715836132ef565b15157f460119a8f69a33ed127de517d5ea464e958ce23ef19e4420a8b92bf780bbc2c960208451878152a23603126107a4579161079b91602060019461076960405191610761836123ee565b8483526132fc565b91829101526040519060208201928352151560f81b604082015260218152610792604182612409565b51902090613309565b9e019d8e610679565b8c80fd5b905083918682526020522060ff19815416905561070c565b60405162461bcd60e51b815260206004820152603560248201527f636f6465206d7573742062652072657175657374656420666f722076616c6964604482015274185d1a5bdb881d1bc818994818dbdb5b5a5d1d1959605a1b6064820152608490fd5b634e487b7160e01b8e52602160045260248efd5b634e487b7160e01b8c52603260045260248cfd5b61092f99509160208c998f9365ffffffffffff96948c6109289785815191012061087f856108798185613370565b936137ec565b9261088989612712565b9460405195888701973588528c60d01b9060d01b16604087015260468601526066850152608684015260a683015260c682015260c681526108cb60e682612409565b51902080966108d985612712565b87604051916108e7836123ee565b8483521693849101525584198254161790557f7ebe42360bcb182fe0a88148b081e4557c89d09aa6af8307635ac2f83e2aaa656020604051868152a1612712565b1694613c0f565b1561095a57807f9b779b17422d0df92223018b32b4d1fa46e071723d6817e2486d003becc55f005d80f35b60405162461bcd60e51b815260206004820152601e60248201527f7369676e61747572657320766572696669636174696f6e206661696c656400006044820152606490fd5b60405162461bcd60e51b815260206004820152604c60248201527f62617463682074696d657374616d70206d75737420626520677265617465722060448201527f6f7220657175616c20746f206c617465737420636f6d6d69747465642062617460648201526b063682074696d657374616d760a41b608482015260a490fd5b60405162461bcd60e51b815260206004820152602560248201527f696e76616c69642070726576696f757320636f6d6d6974746564206261746368604482015264040d0c2e6d60db1b6064820152608490fd5b610a7c8135612b14565b15610aec5765ffffffffffff610a9460248801612712565b16421161061b5760405162461bcd60e51b815260206004820152602360248201527f62617463682074696d657374616d70206d75737420626520696e207468652070604482015262185cdd60ea1b6064820152608490fd5b60405162461bcd60e51b815260206004820152602660248201527f616c6c6f776564207072656465636573736f7220626c6f636b207761736e277460448201526508199bdd5b9960d21b6064820152608490fd5b633ee5aeb560e01b8252600482fd5b8280fd5b50346101ea57806003193601126101ea576040610b945f51602061446d5f395f51905f52546002610b8c60018060a01b03924290613fda565b015416612ae5565b6020825193849282845280519283918282870152018585015e828201840152601f01601f19168101030190f35b50346101ea57806003193601126101ea57610bda6126f4565b5060605f51602061446d5f395f51905f5254604051610bf8816123bf565b601682015491828252604060186017830154926020850193845201549201918252604051928352516020830152516040820152f35b50346101ea57806003193601126101ea576020601b5f51602061446d5f395f51905f52540154604051908152f35b50346101ea5760203660031901126101ea57610c75612358565b601a5f51602061446d5f395f51905f5254019060018060a01b03165f52602052602060405f2054604051908152f35b50346101ea5760203660031901126101ea57600435906001600160401b0382116101ea576020610ce0610cda3660048601612382565b90612688565b6040519015158152f35b50346101ea57806003193601126101ea575f51602061444d5f395f51905f52546040516001600160a01b039091168152602090f35b50346101ea57806003193601126101ea575f51602061446d5f395f51905f525460018101908154610da5576002015463ffffffff1640908115610d60575580f35b60405162461bcd60e51b815260206004820152601d60248201527f756e61626c6520746f206c6f6f6b75702067656e6573697320686173680000006044820152606490fd5b60405162461bcd60e51b815260206004820152601860248201527f67656e65736973206861736820616c72656164792073657400000000000000006044820152606490fd5b50346101ea57806003193601126101ea575f51602061446d5f395f51905f5254600601546040516001600160a01b039091168152602090f35b50346101ea57806003193601126101ea57610e3c61249c565b50604060155f51602061446d5f395f51905f5254016001600160801b03825191610e65836123ee565b548160206001600160401b038316948581520191851c168152835192835251166020820152f35b50346101ea5760203660031901126101ea576004356001600160401b03811161054257610ebd903690600401612382565b905f51602061446d5f395f51905f525490610ed78361257e565b91610ee56040519384612409565b838352610ef18461257e565b602084019490601f19013686376019869201915b818110610f5a57868587604051928392602084019060208552518091526040840192915b818110610f37575050500390f35b9193509160208082610f4c60019488516123b2565b019401910191849392610f29565b610f6581838661263c565b3587528260205260ff604088205416610f7e8287612660565b6003821015610f905752600101610f05565b634e487b7160e01b89526021600452602489fd5b50346101ea57806003193601126101ea57602060035f51602061446d5f395f51905f52540154604051908152f35b50346101ea57806003193601126101ea57610feb6127d6565b5f51602061444d5f395f51905f5280546001600160a01b0319811690915581906001600160a01b03167f8be0079c531659141344cd1fd0a4f28419497f9722a3daafe3b4186f6b6457e08280a380f35b50346101ea57806003193601126101ea576110546127d6565b5f51602061448d5f395f51905f525460ff8160401c16908115611378575b50611369575f51602061448d5f395f51905f52805468ffffffffffffffffff1916680100000000000000021790555f51602061444d5f395f51905f52546110cc906001600160a01b03166110c4613ff6565b610212613ff6565b5f51602061446d5f395f51905f525460409081516110ea8382612409565b6017815260208101907f726f757465722e73746f726167652e526f757465725632000000000000000000825261111e6127d6565b5190205f19810190811161135557916020917fc7f505b2f371ae2175ee4913f4499e1f2633a7b5936321eed1cdaeb6115181d2938251908482019081528482526111688483612409565b60ff19915190201690815f51602061446d5f395f51905f5255611189612809565b80516001840155600283019063ffffffff868201511669ffffffffffff00000000868454930151881b169169ffffffffffffffffffff191617179055600581016005830190808203611307575b505061ffff600882015416600883019061ffff1982541617905561123f6111fd4283613fda565b6112146001600160a01b036002610b8c4287613fda565b61122a60046112234287613fda565b01926124b4565b9061123542936125e9565b9160098701612851565b6015810160158301908082036112b5575b5050601681016016830191818303611295575b5050505060ff60401b195f51602061448d5f395f51905f5254165f51602061448d5f395f51905f52555160028152a180f35b60189283925490556017810154601785015501549101555f808080611263565b806001600160401b03806001600160801b03935416166001600160401b031984541617835554851c16600160401b600160c01b03825491861b1690600160401b600160c01b0319161790555f80611250565b5481546001600160a01b03199081166001600160a01b039283161790925560068381015490850180548416918316919091179055600780840154908501805490931691161790555f806111d6565b634e487b7160e01b84526011600452602484fd5b63f92ee8a960e01b8152600490fd5b600291506001600160401b031610155f611072565b50346101ea576101603660031901126101ea576113a8612358565b6024356001600160a01b0381169190829003610b4f576113c661232c565b6113ce612342565b60c435916084359160a43560403660e319011261190e5761012435946001600160401b03861161190a573660238701121561190a578560040135916001600160401b03831161190657366024848901011161190657610144356001600160401b03811161190257611443903690600401612382565b9690945f51602061448d5f395f51905f5254996001600160401b0360ff8c60401c16159b16801590816118fa575b60011490816118f0575b1590816118e7575b506118d8576114c5908b60016001600160401b03195f51602061448d5f395f51905f525416175f51602061448d5f395f51905f52556118a8575b6110c4613ff6565b6114cd613ff6565b42156118525782156117fc578282111561179b57600a6114ed84846124d2565b048410156117565760409a8b516115048d82612409565b6017815260208101907f726f757465722e73746f726167652e526f75746572563100000000000000000082526115386127d6565b5190205f198101908111611742578c51602080820192835281528d9392916115608583612409565b60ff19915190201698895f51602061446d5f395f51905f5255611581612809565b805160018c015560028b0190602081015163ffffffff1686835492015160201b69ffffffffffff00000000169169ffffffffffffffffffff1916171790558351906115cb826123bf565b8282526001600160a01b03908116602083018190529381169490910184905260058a018054919092166001600160a01b0319918216179091556006890180548216909217909155600788018054909116909117905560088601805461ffff1916611a0a17905561163961249c565b508951611645816123ee565b639502f90081526509184e72a0006020909101526015860180546001600160c01b0319166d09184e72a000000000009502f900179055895183908b9061168a816123bf565b83815284602082015201526016860155601785015560188401558651946116b0866123ee565b60e43586526101043560208701526116cc913691602401612539565b90429336906116da92612595565b91600901936116e894612851565b6116f0575080f35b60207fc7f505b2f371ae2175ee4913f4499e1f2633a7b5936321eed1cdaeb6115181d29160ff60401b195f51602061448d5f395f51905f5254165f51602061448d5f395f51905f52555160018152a180f35b634e487b7160e01b8e52601160045260248efd5b60405162461bcd60e51b815260206004820152601b60248201527f76616c69646174696f6e2064656c617920697320746f6f2062696700000000006044820152606490fd5b60405162461bcd60e51b815260206004820152603360248201527f657261206475726174696f6e206d757374206265206772656174657220746861604482015272371032b632b1ba34b7b710323ab930ba34b7b760691b6064820152608490fd5b60405162461bcd60e51b815260206004820152602860248201527f656c656374696f6e206475726174696f6e206d75737420626520677265617465604482015267072207468616e20360c41b6064820152608490fd5b60405162461bcd60e51b815260206004820152602860248201527f63757272656e742074696d657374616d70206d75737420626520677265617465604482015267072207468616e20360c41b6064820152608490fd5b600160401b60ff60401b195f51602061448d5f395f51905f525416175f51602061448d5f395f51905f52556114bd565b63f92ee8a960e01b8d5260048dfd5b9050155f611483565b303b15915061147b565b8c9150611471565b8a80fd5b8980fd5b8880fd5b8780fd5b50346101ea5760203660031901126101ea5761192c612358565b6119346127d6565b5f51602061446d5f395f51905f525460050180546001600160a01b0319166001600160a01b0390921691909117905580f35b50346101ea57806003193601126101ea5761197f61249c565b5060406119a361199e5f51602061446d5f395f51905f52544290613fda565b6124b4565b60208251918051835201516020820152f35b50346101ea5760603660031901126101ea576004356119d261232c565b5f51602061446d5f395f51905f52546119f06001820154151561242a565b8284526019810160205260ff6040852054166003811015611c2e57600203611bd2576040516020810190848252602435604082015260408152611a34606082612409565b51902060405160608101908082106001600160401b03831117611bce57605a916040527f3d605080600a3d3981f3608060405263e6fabc0960e01b5f5260205f6004817381523060601b6b5afa15604c575f80805136821760208201527f80378136915af43d5f803e156048573d5ff35b3d5ffd5b5f80fd000000000000604082015286f5908115611bca576001600160a01b0382165f908152601a820160205260409020849055601b018054611aea906127c8565b90556040516001600160a01b03821680825293907f8008ec1d8798725ebfa0f2d128d52e8e717dcba6e0f786557eeee70614b02bf190602090a2506001600160a01b038116611bc55750335b5f51602061446d5f395f51905f5254600501546001600160a01b0316823b15611bc157604051631c9776b560e31b81526001600160a01b039092166004830152602482015260016044820152828160648183865af18015611bb657611ba1575b602082604051908152f35b611bac838092612409565b6105425781611b96565b6040513d85823e3d90fd5b8380fd5b611b36565b8480fd5b8680fd5b60405162461bcd60e51b815260206004820152602e60248201527f636f6465206d7573742062652076616c696461746564206265666f726520707260448201526d37b3b930b69031b932b0ba34b7b760911b6064820152608490fd5b634e487b7160e01b85526021600452602485fd5b50346101ea57806003193601126101ea57602060015f51602061446d5f395f51905f52540154604051908152f35b50346101ea5760203660031901126101ea57600435814915611d805760195f51602061446d5f395f51905f5254611cac6001820154151561242a565b018183528060205260ff6040842054166003811015611d6c57611d0b5781835260209081526040808420805460ff19166001179055519182527f5c261a095dd5720475295dc06379921c003c22164ee6cae5cf83e76ce0a1b98591a180f35b60405162461bcd60e51b815260206004820152603360248201527f676976656e20636f646520696420697320616c7265616479206f6e2076616c6960448201527219185d1a5bdb881bdc881d985b1a59185d1959606a1b6064820152608490fd5b634e487b7160e01b84526021600452602484fd5b60405162461bcd60e51b815260206004820152604860248201527f626c6f622063616e277420626520666f756e642c20726f75746572206578706560448201527f63746564204549502d34383434207472616e73616374696f6e2077697468205760648201526720a9a690313637b160c11b608482015260a490fd5b346122e45760803660031901126122e457600435611e1861232c565b90611e21612342565b915f51602061446d5f395f51905f5254611e406001820154151561242a565b825f526019810160205260ff60405f20541660038110156122ee57600203611bd2576040516020810190848252602435604082015260408152611e84606082612409565b5190206040516102e08101908082106001600160401b038311176122e4576102c4916040527f6080806040526102b290816100128239f3fe608060405260043610610268575f81527f3560e01c806329336f391461009b5780632a68e35d1461009657806336a52a1860208201527f14610091578063701da98e1461008c578063704ed5421461008757806391d5a660408201527f4c146100825780639ce110d71461007d578063affed0e0146100785763e43f3460608201527f330361026857610253565b610236565b61020e565b6101f8565b6101df565b6160808201527f01c2565b61019b565b610150565b346100dc5760603660031901126100dc576060a08201527f243567ffffffffffffffff81116100dc576100cc9036906004016100e0565b5060c08201527f506100d661010e565b50610268565b5f80fd5b9181601f840112156100dc578260e08201527f359167ffffffffffffffff83116100dc57602083818601950101116100dc57566101008201527f5b604435906001600160801b03821682036100dc57565b6024359060016001606101208201527f801b03821682036100dc57565b600435906001600160801b03821682036100dc6101408201527f57565b346100dc5760603660031901126100dc5760043567ffffffffffffffff6101608201527f81116100dc576101819036906004016100e0565b505061018b610124565b50606101808201527f443580151514610268575f80fd5b346100dc575f3660031901126100dc575f546101a08201527f6040516001600160a01b039091168152602090f35b346100dc575f36600319016101c08201527f126100dc576020600254604051908152f35b346100dc576020366003190112616101e08201527edc576100d661013a565b346100dc57602036600319011215610268575f80fd6102008201527f5b346100dc575f3660031901126100dc576001546040516001600160a01b03906102208201527f91168152602090f35b346100dc575f3660031901126100dc57602060035460406102408201527f51908152f35b346100dc575f36600319011215610268575f80fd5b63e6fabc09610260820152306b60e01b5f5260205f6004817360a01b176102808201527f5afa156100dc575f808051368280378136915af43d5f803e156102ae573d5ff36102a0820152635b3d5ffd60e01b6102c08201525ff59081156122e4576001600160a01b0382165f908152601a820160205260409020849055601b018054612229906127c8565b90556040516001600160a01b03821680825293907f8008ec1d8798725ebfa0f2d128d52e8e717dcba6e0f786557eeee70614b02bf190602090a2506001600160a01b0381166122e8575033915b813b156122e457604051631c9776b560e31b81526001600160a01b039384166004820152921660248301525f604483018190528260648183855af19182156122d9576020926122c9575b50604051908152f35b5f6122d391612409565b5f6122c0565b6040513d5f823e3d90fd5b5f80fd5b91612276565b634e487b7160e01b5f52602160045260245ffd5b346122e4575f3660031901126122e457602090601c5f51602061446d5f395f51905f525401548152f35b604435906001600160a01b03821682036122e457565b606435906001600160a01b03821682036122e457565b600435906001600160a01b03821682036122e457565b35906001600160a01b03821682036122e457565b9181601f840112156122e4578235916001600160401b0383116122e4576020808501948460051b0101116122e457565b9060038210156122ee5752565b606081019081106001600160401b038211176123da57604052565b634e487b7160e01b5f52604160045260245ffd5b604081019081106001600160401b038211176123da57604052565b90601f801991011681019081106001600160401b038211176123da57604052565b1561243157565b60405162461bcd60e51b815260206004820152603860248201527f726f757465722067656e65736973206973207a65726f3b2063616c6c20606c6f60448201527f6f6b757047656e657369734861736828296020666972737400000000000000006064820152608490fd5b604051906124a9826123ee565b5f6020838281520152565b906040516124c1816123ee565b602060018294805484520154910152565b919082039182116124df57565b634e487b7160e01b5f52601160045260245ffd5b81156124fd570490565b634e487b7160e01b5f52601260045260245ffd5b91908260409103126122e457604051612529816123ee565b6020808294803584520135910152565b9291926001600160401b0382116123da5760405191612562601f8201601f191660200184612409565b8294818452818301116122e4578281602093845f960137010152565b6001600160401b0381116123da5760051b60200190565b9291906125a18161257e565b936125af6040519586612409565b602085838152019160051b81019283116122e457905b8282106125d157505050565b602080916125de8461236e565b8152019101906125c5565b90604051918281549182825260208201905f5260205f20925f5b81811061261a57505061261892500383612409565b565b84546001600160a01b0316835260019485019487945060209093019201612603565b919081101561264c5760051b0190565b634e487b7160e01b5f52603260045260245ffd5b805182101561264c5760209160051b010190565b356001600160a01b03811681036122e45790565b6126a15f51602061446d5f395f51905f52544290613fda565b600301905f5b8381106126b75750505050600190565b6126c561051a82868561263c565b6001600160a01b03165f9081526020849052604090205460ff16156126ec576001016126a7565b505050505f90565b60405190612701826123bf565b5f6040838281528260208201520152565b3565ffffffffffff811681036122e45790565b9061272f8261257e565b61273c6040519182612409565b828152809261274d601f199161257e565b0190602036910137565b6001600160a01b031680156127b5575f51602061444d5f395f51905f5280546001600160a01b0319811683179091556001600160a01b03167f8be0079c531659141344cd1fd0a4f28419497f9722a3daafe3b4186f6b6457e05f80a3565b631e4fbdf760e01b5f525f60045260245ffd5b5f1981146124df5760010190565b5f51602061444d5f395f51905f52546001600160a01b031633036127f657565b63118cdaa760e01b5f523360045260245ffd5b6128116126f4565b5060405161281e816123bf565b5f815263ffffffff4316602082015265ffffffffffff4216604082015290565b818102929181159184041417156124df57565b9291908051906020810191825170014551231950b75fc4402da1732fc9bebe1982109182612ad4575b505015612a8057518455516001840155604051906128bd6021836020808201945f86528051918291018484015e81015f838201520301601f198101845283612409565b6128fa602b604051809360208201956a600b5981380380925939f360a81b87525180918484015e81015f838201520301601f198101835282612409565b51905ff06001600160a01b03811615612a47576002830180546001600160a01b0319166001600160a01b039092169190911790555f5b60048301805482101561296e575f90815260208082208301546001600160a01b0316825260038501905260409020805460ff19169055600101612930565b5050925f5b84518110156129b7576001906001600160a01b036129918288612660565b5116828060a01b03165f526003840160205260405f208260ff1982541617905501612973565b5092600482018151916001600160401b0383116123da57600160401b83116123da578154838355808410612a21575b50602001905f5260205f205f5b838110612a04575050505060050155565b82516001600160a01b0316818301556020909201916001016129f3565b825f528360205f2091820191015b818110612a3c57506129e6565b5f8155600101612a2f565b60405162461bcd60e51b81526020600482015260116024820152701111541313d65351539517d19052531151607a1b6044820152606490fd5b60405162461bcd60e51b815260206004820152602660248201527f46524f53542061676772656761746564207075626c6963206b657920697320696044820152651b9d985b1a5960d21b6064820152608490fd5b612ade92506143a7565b5f8061287a565b803b905f198201908282116124df5760019060405193603e601f19910116840160405282845260208401903c90565b905f1943014381116124df57805b612b2d575b505f9150565b8040838103612b3e57506001925050565b15612b4c575f190180612b22565b612b27565b903590601e19813603018212156122e457018035906001600160401b0382116122e457602001918160051b360383136122e457565b903590601e19813603018212156122e457018035906001600160401b0382116122e4576020019160608202360383136122e457565b35906001600160401b03821682036122e457565b919060608101906001612be28383612b51565b90501161325857612bf38282612b51565b9050156132315790612c0491612b51565b1561264c57803590603e19813603018212156122e45792919201612c288180612b51565b9290916060925f9560de198236030192601a8501955b87891015613098578860051b840135858112156122e4578401612c6081612674565b6001600160a01b03165f908152602089905260409020541561303b57608081016001600160801b03612c9182614021565b16612f9f575b6001600160a01b03612ca883612674565b6040516302c649c960e01b81526020600482015293911691610104840191906001600160801b0390612d27906001600160a01b03612ce58561236e565b16602488015260208401356044880152612d01604085016132fc565b151560648801526001600160a01b03612d1c6060860161236e565b166084880152614035565b1660a485015236819003601e190160a0820135818112156122e4578201602081359101936001600160401b0382116122e45760608202360385136122e457819060e060c489015252610124860193905f905b808210612f555750505060c0820135908112156122e45701803560208201926001600160401b0382116122e4578160051b9081360385136122e457918694936023198685030160e487015281845260208085019385010194935f9160fe19813603015b848410612e4a575050505050505091815f8160209503925af19081156122d9575f91612e18575b50612e1090600192613309565b980197612c3e565b90506020813d8211612e42575b81612e3260209383612409565b810103126122e457516001612e03565b3d9150612e25565b9193959750919395601f198482030187528735828112156122e4578301602081013582526001600160a01b03612e826040830161236e565b1660208301526060810135603e1936839003018112156122e4578101602081013591906040016001600160401b0383116122e45782360381136122e457829060e060408601528160e08601526101008501375f61010083850101526001600160801b03612ef160808301614035565b16606084015260a0810135608084015260c081013563ffffffff60e01b81168091036122e45783602093612f3360e086956101009560a060019a0152016132fc565b151560c0830152601f8019910116010199019701940191899796959391612ddc565b90919460608060019288358152838060a01b03612f7460208b0161236e565b1660208201526001600160801b03612f8e60408b01614035565b166040820152019601920190612d79565b60068801546001600160801b03906020906001600160a01b03166044612fc486612674565b5f612fce87614021565b60405163a9059cbb60e01b81526001600160a01b0390931660048401529590951660248201529384928391905af180156122d95761300d575b50612c97565b61302d9060203d8111613034575b6130258183612409565b810190613358565b505f613007565b503d61301b565b60405162461bcd60e51b815260206004820152602f60248201527f636f756c646e277420706572666f726d207472616e736974696f6e20666f722060448201526e756e6b6e6f776e2070726f6772616d60881b6064820152608490fd5b955095509550505050602081519101209060208101906130c26130bb8383612b86565b9050612725565b935f5b6130cf8484612b86565b90508110156131bb576130e28484612b86565b82101561264c5760608202019060405191803590818452606060208201916001600160401b0361311184612bbb565b1660208701527fd8306a982f73c7ab90175899ff21dfdf55173bc8f7838be37e55a4e6f37b9fba82604083013597886040820152a13603126122e45783600194604061316a815194613162866123bf565b868652612bbb565b93846020820152015260405191602083019384526001600160401b0360c01b9060c01b1660408301526048820152604881526131a7606882612409565b5190206131b48289612660565b52016130c5565b50939150506040516020810181819360208151939101925f5b8181106132185750506131f0925003601f198101835282612409565b5190206040519060208201928352604082015260408152613212606082612409565b51902090565b84518352602094850194869450909201916001016131d4565b507fc5d2460186f7233c927e7db2dcc703c0e500b653ca82273b7bfad8045d85a470925050565b60405162461bcd60e51b815260206004820152603460248201527f636861696e436f6d6d69746d656e7420636f756c6420636f6e7461696e206174604482015273081b5bdcdd081bdb994818dbdb5b5a5d1b595b9d60621b6064820152608490fd5b903590601e19813603018212156122e457018035906001600160401b0382116122e457602001918160061b360383136122e457565b3580151581036122e45790565b359081151582036122e457565b602080612618928195946040519682889351918291018585015e8201908382015203018085520183612409565b903590605e19813603018212156122e4570190565b919082018092116124df57565b908160209103126122e4575180151581036122e45790565b60a0820160016133808285612b51565b905011613750576133918184612b51565b905015613729576133a29083612b51565b1561264c57803590607e19813603018212156122e4570191606083019065ffffffffffff6133cf83612712565b16156136d85765ffffffffffff806133f260206133eb86612712565b9401612712565b1691161015613679576007820154600690920180548435946001600160a01b0394851694604082019391925f9160209116604461343b836134338989613336565b01358b61334b565b604051948593849263095ea7b360e01b84528c600485015260248401525af180156122d95761365c575b505460405163394f179b60e11b81526001600160a01b03909116600482015260248101959095526020818101356044870152856064815f885af19485156122d9575f95613624575b50906134b891613336565b916134c282612712565b9260405193637fbe95b560e01b85526040600486015260a48501918035601e19823603018112156122e4578101602081359101936001600160401b0382116122e4578160061b360385136122e45760606044890152819052869360c485019392915f5b8181106135ec57505050836020959365ffffffffffff829484895f960135606486015261355b604060018060a01b03920161236e565b16608485015216602483015203925af19182156122d9575f926135b6575b5061358390612712565b6040519160208301938452604083015265ffffffffffff60d01b9060d01b16606082015260468152613212606682612409565b9091506020813d6020116135e4575b816135d260209383612409565b810103126122e4575190613583613579565b3d91506135c5565b919550919293604080600192838060a01b036136078a61236e565b168152602089013560208201520196019101918895949392613525565b919094506020823d602011613654575b8161364160209383612409565b810103126122e4579051936134b86134ad565b3d9150613634565b6136749060203d602011613034576130258183612409565b613465565b60405162461bcd60e51b815260206004820152603160248201527f7265776172647320636f6d6d69746d656e742074696d657374616d70206d75736044820152701d08189948199bdc881d1a19481c185cdd607a1b6064820152608490fd5b60405162461bcd60e51b8152602060048201526024808201527f7265776172647320636f6d6d69746d656e742074696d657374616d70206973206044820152637a65726f60e01b6064820152608490fd5b5050507fc5d2460186f7233c927e7db2dcc703c0e500b653ca82273b7bfad8045d85a47090565b608460405162461bcd60e51b815260206004820152604060248201527f7265776172647320636f6d6d69746d656e74206d75737420626520656d70747960448201527f206f7220636f6e7461696e73206f6e6c79206f6e6520636f6d6d69746d656e746064820152fd5b903590601e19813603018212156122e457018035906001600160401b0382116122e4576020019181360383136122e457565b9060c0810160016137fd8284612b51565b905011613b985761380e8183612b51565b9050156137295761381e91612b51565b1561264c57803590609e19813603018212156122e4570160608101906138448282612b51565b905015613b455765ffffffffffff600284015460201c169161386683426124d2565b613875601686015480926124f3565b93608084013594600181018091116124df578503613aed5761389a856138a09361283e565b9061334b565b936138af6017820154866124d2565b4210613aa8576138be90614049565b934260058601541015613a48576020816139397f41e7f919bf726af8aa2ef36bd31905a693013e30c45c6284060e613d4941997b9361390d9861392361392b6139338a604081019d8e826137ba565b93906139198d84612b51565b9690933690612511565b943691612539565b933691612595565b92612851565b604051908152a160a0823603126122e45760405193608085018581106001600160401b038211176123da576040526139713684612511565b8552356001600160401b0381116122e457820136601f820112156122e4576139a0903690602081359101612539565b602085015235906001600160401b0382116122e4570136601f820112156122e4576139d2903690602081359101612595565b91826040820152816060820152519160208351930151906040519283926020840195865260408401526060830160208351919301905f5b818110613a26575050508152038082526132129060200182612409565b82516001600160a01b0316855286955060209485019490920191600101613a09565b60405162461bcd60e51b815260206004820152603260248201527f6c6f6f6b73206c696b652076616c696461746f727320666f72206e65787420656044820152711c9848185c9948185b1c9958591e481cd95d60721b6064820152608490fd5b60405162461bcd60e51b815260206004820152601b60248201527f656c656374696f6e206973206e6f7420796574207374617274656400000000006044820152606490fd5b60405162461bcd60e51b815260206004820152602a60248201527f636f6d6d69746d656e742065726120696e646578206973206e6f74206e657874604482015269040cae4c240d2dcc8caf60b31b6064820152608490fd5b60405162461bcd60e51b815260206004820152602560248201527f6e65772076616c696461746f7273206c697374206d757374206e6f7420626520604482015264656d70747960d81b6064820152608490fd5b60405162461bcd60e51b815260206004820152604360248201527f76616c696461746f727320636f6d6d69746d656e74206d75737420626520656d60448201527f707479206f7220636f6e7461696e73206f6e6c79206f6e6520636f6d6d69746d606482015262195b9d60ea1b608482015260a490fd5b909493919365ffffffffffff600283015460201c16613c45613c50613c4a613c3784426124d2565b6016870154938480926124f3565b61283e565b8361334b565b918284108080613fa2575b15613f3057508310613eeb57613c71908361334b565b10613e9a57613c81905b82613fda565b94601960f81b5f523060601b60025260165260365f209360028110156122ee5780613d9157505060018103613d4c571561264c57613cc281613cc9926137ba565b3691612539565b916060835103613cf757826020613cf494015160606040830151920151926001815491015490614064565b90565b60405162461bcd60e51b815260206004820152602760248201527f46524f5354207369676e6174757265206c656e677468206d75737420626520396044820152663620627974657360c81b6064820152608490fd5b60405162461bcd60e51b815260206004820152601e60248201527f46524f5354207369676e6174757265206d7573742062652073696e676c6500006044820152606490fd5b919391600114613da45750505050505f90565b613dbe9061ffff6008600488979801549201541690613fb8565b925f9260035f9201915b86811015613e8f57613df7613dee613de8613cc28460051b8601866137ba565b8661430d565b90929192614347565b6001600160a01b0381165f9081526020859052604090205460ff16613e22575b506001905b01613dc8565b6001600160a01b03165f9081527ff02b465737fa6045c2ff53fb2df43c66916ac2166fa303264668fb2f6a1d8c0060205260409020805c15613e675750600190613e1c565b946001613e7592965d6127c8565b93858514613e83575f613e17565b50505050505050600190565b505050505050505f90565b60405162461bcd60e51b8152602060048201526024808201527f74696d657374616d70206973206f6c646572207468616e2070726576696f75736044820152632065726160e01b6064820152608490fd5b60405162461bcd60e51b815260206004820152601e60248201527f63616e6e6f742076616c6964617465206265666f72652067656e6573697300006044820152606490fd5b9392915050428211613f5357613c8192613f4b575b50613c7b565b90505f613f45565b60405162461bcd60e51b815260206004820152602160248201527f74696d657374616d702063616e6e6f7420626520696e207468652066757475726044820152606560f81b6064820152608490fd5b50613fb160188701548561334b565b4210613c5b565b61ffff613fc692169061283e565b61270f81018091116124df57612710900490565b90613fe59082614224565b15613ff057600f0190565b60090190565b60ff5f51602061448d5f395f51905f525460401c161561401257565b631afcd79f60e31b5f5260045ffd5b356001600160801b03811681036122e45790565b35906001600160801b03821682036122e457565b6140534282614224565b1561405e5760090190565b600f0190565b929391949061407385876143a7565b1561421a57821561421a5770014551231950b75fc4402da1732fc9bebe1983101561421a576001169061010e6040519161012083018381106001600160401b038211176122e45760405260883684376002600188160160888401538760898401526002840160a984015360aa830186905260ca8301527e300046524f53542d736563703235366b312d4b454343414b3235362d76316360ea8301526303430b6160e51b61010a830152812060cc820181815290600260ec84016001815360428420809318845253604270014551231950b75fc4402da1732fc9bebe19922060801c6001600160401b0360801b8260801b16179070014551231950b75fc4402da1732fc9bebe1990600160c01b9060401c09088015613e8f5784601b6080945f9660209870014551231950b75fc4402da1732fc9bebe19910970014551231950b75fc4402da1732fc9bebe19038552018684015280604084015270014551231950b75fc4402da1732fc9bebe19910970014551231950b75fc4402da1732fc9bebe1903606082015282805260015afa505f51915f5260205260018060a01b0360405f20161490565b5050505050505f90565b906014600e8301549201548083146142c9578181841093119182159111159181906142c2575b1561425f578261425957505090565b14919050565b60405162461bcd60e51b815260206004820152603560248201527f636f756c64206e6f74206964656e746966792076616c696461746f727320666f6044820152740722074686520676976656e2074696d657374616d7605c1b6064820152608490fd5b508161424a565b606460405162461bcd60e51b815260206004820152602060248201527f657261732074696d657374616d70206d757374206e6f7420626520657175616c6044820152fd5b815191906041830361433d576143369250602082015190606060408401519301515f1a906143ca565b9192909190565b50505f9160029190565b60048110156122ee5780614359575050565b600181036143705763f645eedf60e01b5f5260045ffd5b6002810361438b575063fce698f760e01b5f5260045260245ffd5b6003146143955750565b6335e2f38360e21b5f5260045260245ffd5b6401000003d01990600790829081818009900908906401000003d0199080091490565b91907f7fffffffffffffffffffffffffffffff5d576e7357a4501ddfe92f46681b20a08411614441579160209360809260ff5f9560405194855216868401526040830152606082015282805260015afa156122d9575f516001600160a01b0381161561443757905f905f90565b505f906001905f90565b5050505f916003919056fe9016d09d72d40fdae2fd8ceac6b6234c7706214fd39c1cd1e609a0528c1993005c09ca1b9b8127a4fd9f3c384aac59b661441e820e17733753ff5f2e86e1e000f0c57e16840df040f15088dc2f81fe391c3923bec73e23a9662efc9c229c6a00f0c57e16840df040f15088dc2f81fe391c3923bec73e23a9662efc9c229c6a00","linkReferences":{}},"methodIdentifiers":{"areValidators(address[])":"8f381dbe","codeState(bytes32)":"c13911e8","codesStates(bytes32[])":"82bdeaad","commitBatch((bytes32,uint48,bytes32,((address,bytes32,bool,address,uint128,(bytes32,address,uint128)[],(bytes32,address,bytes,uint128,(bytes32,bytes4),bool)[])[],(bytes32,uint64,bytes32)[])[],(bytes32,bool)[],((uint256,bytes32),((address,uint256)[],uint256,address),uint48)[],((uint256,uint256),bytes,address[],uint256)[]),uint8,bytes[])":"aa28e0f2","computeSettings()":"84d22a4f","createProgram(bytes32,bytes32,address)":"3683c4d2","createProgramWithAbiInterface(bytes32,bytes32,address,address)":"0c18d277","genesisBlockHash()":"28e24b3d","genesisTimestamp()":"cacf66ab","initialize(address,address,address,address,uint256,uint256,uint256,(uint256,uint256),bytes,address[])":"53f7fd48","isValidator(address)":"facd743b","latestCommittedBatchHash()":"71a8cf2d","latestCommittedBatchTimestamp()":"d456fd51","latestRewardedEraIndex()":"bf34281f","lookupGenesisHash()":"8b1edf1e","mirrorImpl()":"e6fabc09","owner()":"8da5cb5b","programCodeId(address)":"9067088e","programsCodeIds(address[])":"baaf0201","programsCount()":"96a2ddfa","reinitialize()":"6c2eb350","renounceOwnership()":"715018a6","requestCodeValidation(bytes32)":"120e3f1e","setMirror(address)":"3d43b418","signingThresholdPercentage()":"efd81abc","timelines()":"9eb939a8","transferOwnership(address)":"f2fde38b","validatedCodesCount()":"007a32e7","validators()":"ca1e7819","validatorsAggregatedPublicKey()":"3bd109fa","validatorsCount()":"ed612f8c","validatorsThreshold()":"edc87225","validatorsVerifiableSecretSharingCommitment()":"a5d53a44","wrappedVara()":"88f50cf0"},"storageLayout":{"storage":[],"types":{}},"id":165}