{"abi":[{"type":"constructor","inputs":[],"stateMutability":"nonpayable"},{"type":"function","name":"areValidators","inputs":[{"name":"_validators","type":"address[]","internalType":"address[]"}],"outputs":[{"name":"","type":"bool","internalType":"bool"}],"stateMutability":"view"},{"type":"function","name":"codeState","inputs":[{"name":"_codeId","type":"bytes32","internalType":"bytes32"}],"outputs":[{"name":"","type":"uint8","internalType":"enum Gear.CodeState"}],"stateMutability":"view"},{"type":"function","name":"codesStates","inputs":[{"name":"_codesIds","type":"bytes32[]","internalType":"bytes32[]"}],"outputs":[{"name":"","type":"uint8[]","internalType":"enum Gear.CodeState[]"}],"stateMutability":"view"},{"type":"function","name":"commitBatch","inputs":[{"name":"_batchCommitment","type":"tuple","internalType":"struct Gear.BatchCommitment","components":[{"name":"codeCommitments","type":"tuple[]","internalType":"struct Gear.CodeCommitment[]","components":[{"name":"id","type":"bytes32","internalType":"bytes32"},{"name":"timestamp","type":"uint48","internalType":"uint48"},{"name":"valid","type":"bool","internalType":"bool"}]},{"name":"blockCommitments","type":"tuple[]","internalType":"struct Gear.BlockCommitment[]","components":[{"name":"hash","type":"bytes32","internalType":"bytes32"},{"name":"timestamp","type":"uint48","internalType":"uint48"},{"name":"previousCommittedBlock","type":"bytes32","internalType":"bytes32"},{"name":"predecessorBlock","type":"bytes32","internalType":"bytes32"},{"name":"transitions","type":"tuple[]","internalType":"struct Gear.StateTransition[]","components":[{"name":"actorId","type":"address","internalType":"address"},{"name":"newStateHash","type":"bytes32","internalType":"bytes32"},{"name":"inheritor","type":"address","internalType":"address"},{"name":"valueToReceive","type":"uint128","internalType":"uint128"},{"name":"valueClaims","type":"tuple[]","internalType":"struct Gear.ValueClaim[]","components":[{"name":"messageId","type":"bytes32","internalType":"bytes32"},{"name":"destination","type":"address","internalType":"address"},{"name":"value","type":"uint128","internalType":"uint128"}]},{"name":"messages","type":"tuple[]","internalType":"struct Gear.Message[]","components":[{"name":"id","type":"bytes32","internalType":"bytes32"},{"name":"destination","type":"address","internalType":"address"},{"name":"payload","type":"bytes","internalType":"bytes"},{"name":"value","type":"uint128","internalType":"uint128"},{"name":"replyDetails","type":"tuple","internalType":"struct Gear.ReplyDetails","components":[{"name":"to","type":"bytes32","internalType":"bytes32"},{"name":"code","type":"bytes4","internalType":"bytes4"}]}]}]}]}]},{"name":"_signatureRX","type":"uint256","internalType":"uint256"},{"name":"_signatureRY","type":"uint256","internalType":"uint256"},{"name":"_signatureZ","type":"uint256","internalType":"uint256"}],"outputs":[],"stateMutability":"nonpayable"},{"type":"function","name":"commitValidators","inputs":[{"name":"_validatorsCommitment","type":"tuple","internalType":"struct Gear.ValidatorsCommitment","components":[{"name":"aggregatedPublicKey","type":"tuple","internalType":"struct Gear.AggregatedPublicKey","components":[{"name":"x","type":"uint256","internalType":"uint256"},{"name":"y","type":"uint256","internalType":"uint256"}]},{"name":"verifiableSecretSharingCommitment","type":"bytes","internalType":"bytes"},{"name":"validators","type":"address[]","internalType":"address[]"},{"name":"eraIndex","type":"uint256","internalType":"uint256"}]},{"name":"_signatureRX","type":"uint256","internalType":"uint256"},{"name":"_signatureRY","type":"uint256","internalType":"uint256"},{"name":"_signatureZ","type":"uint256","internalType":"uint256"}],"outputs":[],"stateMutability":"nonpayable"},{"type":"function","name":"computeSettings","inputs":[],"outputs":[{"name":"","type":"tuple","internalType":"struct Gear.ComputationSettings","components":[{"name":"threshold","type":"uint64","internalType":"uint64"},{"name":"wvaraPerSecond","type":"uint128","internalType":"uint128"}]}],"stateMutability":"view"},{"type":"function","name":"createProgram","inputs":[{"name":"_codeId","type":"bytes32","internalType":"bytes32"},{"name":"_salt","type":"bytes32","internalType":"bytes32"}],"outputs":[{"name":"","type":"address","internalType":"address"}],"stateMutability":"nonpayable"},{"type":"function","name":"createProgramWithDecoder","inputs":[{"name":"_decoderImpl","type":"address","internalType":"address"},{"name":"_codeId","type":"bytes32","internalType":"bytes32"},{"name":"_salt","type":"bytes32","internalType":"bytes32"}],"outputs":[{"name":"","type":"address","internalType":"address"}],"stateMutability":"nonpayable"},{"type":"function","name":"genesisBlockHash","inputs":[],"outputs":[{"name":"","type":"bytes32","internalType":"bytes32"}],"stateMutability":"view"},{"type":"function","name":"genesisTimestamp","inputs":[],"outputs":[{"name":"","type":"uint48","internalType":"uint48"}],"stateMutability":"view"},{"type":"function","name":"initialize","inputs":[{"name":"_owner","type":"address","internalType":"address"},{"name":"_mirror","type":"address","internalType":"address"},{"name":"_mirrorProxy","type":"address","internalType":"address"},{"name":"_wrappedVara","type":"address","internalType":"address"},{"name":"_eraDuration","type":"uint256","internalType":"uint256"},{"name":"_electionDuration","type":"uint256","internalType":"uint256"},{"name":"_validationDelay","type":"uint256","internalType":"uint256"},{"name":"_aggregatedPublicKey","type":"tuple","internalType":"struct Gear.AggregatedPublicKey","components":[{"name":"x","type":"uint256","internalType":"uint256"},{"name":"y","type":"uint256","internalType":"uint256"}]},{"name":"_verifiableSecretSharingCommitment","type":"bytes","internalType":"bytes"},{"name":"_validators","type":"address[]","internalType":"address[]"}],"outputs":[],"stateMutability":"nonpayable"},{"type":"function","name":"isValidator","inputs":[{"name":"_validator","type":"address","internalType":"address"}],"outputs":[{"name":"","type":"bool","internalType":"bool"}],"stateMutability":"view"},{"type":"function","name":"latestCommittedBlockHash","inputs":[],"outputs":[{"name":"","type":"bytes32","internalType":"bytes32"}],"stateMutability":"view"},{"type":"function","name":"lookupGenesisHash","inputs":[],"outputs":[],"stateMutability":"nonpayable"},{"type":"function","name":"mirrorImpl","inputs":[],"outputs":[{"name":"","type":"address","internalType":"address"}],"stateMutability":"view"},{"type":"function","name":"mirrorProxyImpl","inputs":[],"outputs":[{"name":"","type":"address","internalType":"address"}],"stateMutability":"view"},{"type":"function","name":"owner","inputs":[],"outputs":[{"name":"","type":"address","internalType":"address"}],"stateMutability":"view"},{"type":"function","name":"programCodeId","inputs":[{"name":"_programId","type":"address","internalType":"address"}],"outputs":[{"name":"","type":"bytes32","internalType":"bytes32"}],"stateMutability":"view"},{"type":"function","name":"programsCodeIds","inputs":[{"name":"_programsIds","type":"address[]","internalType":"address[]"}],"outputs":[{"name":"","type":"bytes32[]","internalType":"bytes32[]"}],"stateMutability":"view"},{"type":"function","name":"programsCount","inputs":[],"outputs":[{"name":"","type":"uint256","internalType":"uint256"}],"stateMutability":"view"},{"type":"function","name":"reinitialize","inputs":[],"outputs":[],"stateMutability":"nonpayable"},{"type":"function","name":"renounceOwnership","inputs":[],"outputs":[],"stateMutability":"nonpayable"},{"type":"function","name":"requestCodeValidation","inputs":[{"name":"_codeId","type":"bytes32","internalType":"bytes32"}],"outputs":[],"stateMutability":"nonpayable"},{"type":"function","name":"setMirror","inputs":[{"name":"newMirror","type":"address","internalType":"address"}],"outputs":[],"stateMutability":"nonpayable"},{"type":"function","name":"signingThresholdPercentage","inputs":[],"outputs":[{"name":"","type":"uint16","internalType":"uint16"}],"stateMutability":"view"},{"type":"function","name":"transferOwnership","inputs":[{"name":"newOwner","type":"address","internalType":"address"}],"outputs":[],"stateMutability":"nonpayable"},{"type":"function","name":"validatedCodesCount","inputs":[],"outputs":[{"name":"","type":"uint256","internalType":"uint256"}],"stateMutability":"view"},{"type":"function","name":"validators","inputs":[],"outputs":[{"name":"","type":"address[]","internalType":"address[]"}],"stateMutability":"view"},{"type":"function","name":"validatorsAggregatedPublicKey","inputs":[],"outputs":[{"name":"","type":"tuple","internalType":"struct Gear.AggregatedPublicKey","components":[{"name":"x","type":"uint256","internalType":"uint256"},{"name":"y","type":"uint256","internalType":"uint256"}]}],"stateMutability":"view"},{"type":"function","name":"validatorsCount","inputs":[],"outputs":[{"name":"","type":"uint256","internalType":"uint256"}],"stateMutability":"view"},{"type":"function","name":"validatorsThreshold","inputs":[],"outputs":[{"name":"","type":"uint256","internalType":"uint256"}],"stateMutability":"view"},{"type":"function","name":"validatorsVerifiableSecretSharingCommitment","inputs":[],"outputs":[{"name":"","type":"bytes","internalType":"bytes"}],"stateMutability":"view"},{"type":"function","name":"wrappedVara","inputs":[],"outputs":[{"name":"","type":"address","internalType":"address"}],"stateMutability":"view"},{"type":"event","name":"BlockCommitted","inputs":[{"name":"hash","type":"bytes32","indexed":false,"internalType":"bytes32"}],"anonymous":false},{"type":"event","name":"CodeGotValidated","inputs":[{"name":"codeId","type":"bytes32","indexed":false,"internalType":"bytes32"},{"name":"valid","type":"bool","indexed":true,"internalType":"bool"}],"anonymous":false},{"type":"event","name":"CodeValidationRequested","inputs":[{"name":"codeId","type":"bytes32","indexed":false,"internalType":"bytes32"}],"anonymous":false},{"type":"event","name":"ComputationSettingsChanged","inputs":[{"name":"threshold","type":"uint64","indexed":false,"internalType":"uint64"},{"name":"wvaraPerSecond","type":"uint128","indexed":false,"internalType":"uint128"}],"anonymous":false},{"type":"event","name":"Initialized","inputs":[{"name":"version","type":"uint64","indexed":false,"internalType":"uint64"}],"anonymous":false},{"type":"event","name":"NextEraValidatorsCommitted","inputs":[{"name":"startTimestamp","type":"uint256","indexed":false,"internalType":"uint256"}],"anonymous":false},{"type":"event","name":"OwnershipTransferred","inputs":[{"name":"previousOwner","type":"address","indexed":true,"internalType":"address"},{"name":"newOwner","type":"address","indexed":true,"internalType":"address"}],"anonymous":false},{"type":"event","name":"ProgramCreated","inputs":[{"name":"actorId","type":"address","indexed":false,"internalType":"address"},{"name":"codeId","type":"bytes32","indexed":true,"internalType":"bytes32"}],"anonymous":false},{"type":"event","name":"StorageSlotChanged","inputs":[],"anonymous":false},{"type":"error","name":"FailedDeployment","inputs":[]},{"type":"error","name":"InsufficientBalance","inputs":[{"name":"balance","type":"uint256","internalType":"uint256"},{"name":"needed","type":"uint256","internalType":"uint256"}]},{"type":"error","name":"InvalidInitialization","inputs":[]},{"type":"error","name":"NotInitializing","inputs":[]},{"type":"error","name":"OwnableInvalidOwner","inputs":[{"name":"owner","type":"address","internalType":"address"}]},{"type":"error","name":"OwnableUnauthorizedAccount","inputs":[{"name":"account","type":"address","internalType":"address"}]},{"type":"error","name":"ReentrancyGuardReentrantCall","inputs":[]}],"bytecode":{"object":"0x6080806040523460aa575f51602061379a5f395f51905f525460ff8160401c16609b576002600160401b03196001600160401b038216016049575b6040516136eb90816100af8239f35b6001600160401b0319166001600160401b039081175f51602061379a5f395f51905f525581527fc7f505b2f371ae2175ee4913f4499e1f2633a7b5936321eed1cdaeb6115181d290602090a15f80603a565b63f92ee8a960e01b5f5260045ffd5b5f80fdfe6101a0806040526004361015610013575f80fd5b5f610180525f3560e01c9081627a32e71461271e57508063014cb8151461231c578063120e3f1e1461219157806328e24b3d146121645780633bd109fa146121165780633d43b418146120c4578063527de0f91461203657806353f7fd4814611ad657806365ecfea214611a9b5780636c2eb35014611784578063715018a61461171257806382bdeaad1461160157806384d22a4f1461159657806388f50cf01461155b5780638b1edf1e1461148a5780638da5cb5b146114535780638f381dbe1461140e5780639067088e146113c657806396a2ddfa14611396578063a5d53a4414611322578063baaf020114611221578063c13911e8146111d7578063c2fad80614610556578063c9f16a1114610526578063ca1e78191461049f578063cacf66ab14610465578063e6fabc091461042a578063e7006a74146102ff578063ed612f8c146102c5578063edc872251461024e578063efd81abc1461021a578063f2fde38b146101ea5763facd743b1461018c575f80fd5b346101e35760203660031901126101e3576101a56127fb565b60036101c05f5160206136765f395f51905f52544290613368565b019060018060a01b03165f52602052602060ff60405f2054166040519015158152f35b6101805180fd5b346101e35760203660031901126101e3576102136102066127fb565b61020e612e9e565b612b79565b6101805180f35b346101e357610180513660031901126101e357602061ffff60085f5160206136765f395f51905f5254015416604051908152f35b346101e357610180513660031901126101e3576102905f5160206136765f395f51905f525461ffff600860046102844285613368565b01549201541690612960565b61270f81018091116102ab5760209061271060405191048152f35b634e487b7160e01b61018051526011600452602461018051fd5b346101e357610180513660031901126101e357602060046102f55f5160206136765f395f51905f52544290613368565b0154604051908152f35b346101e35760603660031901126101e3576103186127fb565b602435906103606044359161032d8385612ed1565b93604051936020850191825260408501526040845261034d60608561277e565b92519092206001600160a01b03926135cf565b16803b156101e35760405163189acdbd60e31b81526001600160a01b0390921660048301819052610180519092908160248183865af180156104015761040f575b50813b156101e35760405163485cc95560e01b81523360048201526024810191909152610180518160448183865af18015610401576103e6575b602082604051908152f35b610180516103f39161277e565b610180516101e357816103db565b6040513d61018051823e3d90fd5b6101805161041c9161277e565b610180516101e357826103a1565b346101e357610180513660031901126101e3575f5160206136765f395f51905f5254600501546040516001600160a01b039091168152602090f35b346101e357610180513660031901126101e357602065ffffffffffff60025f5160206136765f395f51905f52540154821c16604051908152f35b346101e357610180513660031901126101e3576104d660046104d05f5160206136765f395f51905f52544290613368565b016129a9565b604051809160208201602083528151809152602060408401920190610180515b818110610504575050500390f35b82516001600160a01b03168452859450602093840193909201916001016104f6565b346101e357610180513660031901126101e357602060035f5160206136765f395f51905f52540154604051908152f35b346101e35760803660031901126101e357600435610160526001600160401b0361016051116101e357604060031961016051360301126101e3577f9b779b17422d0df92223018b32b4d1fa46e071723d6817e2486d003becc55f005c6111c25760017f9b779b17422d0df92223018b32b4d1fa46e071723d6817e2486d003becc55f005d5f5160206136765f395f51905f525460c0526105fd600160c051015415156128b6565b6101605161060e9060040180612ab4565b905015806111a3575b61115e576101805160c051601901906060815b6101605161063b9060040180612ab4565b905081101561087f57610160516106559060040180612ab4565b8210156108655760608202018035928361018051528560205260ff604061018051205416600381101561084b576001036107e857604082019361069785612b1e565b156107ca57610180805182905260208890525160409020805460ff1916600217905560c051601c0180546106ca90612b2b565b90555b6106d685612b1e565b15157f460119a8f69a33ed127de517d5ea464e958ce23ef19e4420a8b92bf780bbc2c96020604051848152a26060833603126101e35760206040519361071b85612748565b828552019485359065ffffffffffff821682036101e35781602086015235801515908181036101e357604061078b960152604051916020830193845265ffffffffffff60d01b9060d01b16604083015260f81b60468201526027815261078260478261277e565b51902090612b39565b918365ffffffffffff61079d83612b66565b16116107ad575b5060010161062a565b60019193506107c265ffffffffffff91612b66565b1692906107a4565b806101805152866020526040610180512060ff1981541690556106cd565b60405162461bcd60e51b815260206004820152603560248201527f636f6465206d7573742062652072657175657374656420666f722076616c6964604482015274185d1a5bdb881d1bc818994818dbdb5b5a5d1d1959605a1b6064820152608490fd5b634e487b7160e01b61018051526021600452602461018051fd5b634e487b7160e01b61018051526032600452602461018051fd5b506101805160a052906060905b6108a26024610160510161016051600401612ae9565b905060a051101561109c576108c36024610160510161016051600401612ae9565b9060805260a05110156108655760a05160051b608051013590609e196080513603018212156101e357600360c0510154604083608051010135036110495760c0515415610fe0575b602061091c81846080510101612b66565b65ffffffffffff6040519161093083612763565b8560805101358352169182910152826080510135600360c051015565ffffffffffff19600460c05101541617600460c0510155610977608083815101018360805101612ae9565b6101205260e0526101805160605b61012051821015610ee95760e0513681900360be1901600584901b9091013512156101e3576109bf8260051b60e051013560e05101612a34565b6001600160a01b03165f90815260c051601a01602052604090205415610e8c5760018060a01b03600760c051015416610a038360051b60e051013560e05101612a34565b60608460051b60e051013560e0510101356001600160801b03811681036101e35760405163a9059cbb60e01b81526001600160a01b0390921660048301526001600160801b03166024820152610180519091602091839160449183915af1801561040157610e53575b5060e0516001600160a01b0390610a8b90600585901b81013501612a34565b16604051906309ed323560e41b82526020600483015260018060a01b03610abd8560051b60e051013560e05101612811565b16602483015260e08051600586901b8181013590910160200135604485015290516001600160a01b0391610af8919081013501604001612811565b1660648301526001600160801b03610b1e60608660051b60e051013560e05101016133ec565b16608483015260e051600585901b810135016080810135903603601e19018112156101e3578460051b60e051013560e05101016001600160401b038135116101e3576060813502360360208201136101e35760c060a4840152803560e48401526101048301610100526020810161014052610180515b81358110610dec57505060e051600585901b8101350160a0810135903603601e19018112156101e3576001600160401b038560051b60e051013560e05101820135116101e35760e051600586811b8201359091018201803590911b36036020909101136101e35761010080518490036023190160c4850152805160e08051600589811b8281013590920186013590935292519051610180518795948201359091018401803590931b8201602090810194938101939201915b8960051b60e051013560e051018101358210610ccd5750505050918180602094039161018051905af1908115610401576101805191610c9b575b50610c9390600192612b39565b910190610985565b90506020813d8211610cc5575b81610cb56020938361277e565b810103126101e357516001610c86565b3d9150610ca8565b919390929450601f19610100518203018452843560de198a60051b60e051013560e0510184013603018112156101e3578960051b60e051013560e05101830101906020820135815260018060a01b03610d2860408401612811565b1660208201526060820135603e1936849003018112156101e3578201602001916001600160401b038335116101e3578235360360208401136101e35760c09081604084015283358284015283356020850160e08501376101805160e08535850101526001600160801b03610d9e608083016133ec565b16606084015260a0810135608084015201359163ffffffff60e01b83168093036101e35760e0826020939260019560a086950152601f80199135011601019601940192018694939291610c4c565b60019061014051356101005152818060a01b03610e0e60206101405101612811565b1660206101005101526001600160801b03610e2e604061014051016133ec565b1660406101005101526060610100510161010052606061014051016101405201610b94565b6020813d8211610e84575b81610e6b6020938361277e565b810103126101e357518015158114610a6c576101805180fd5b3d9150610e5e565b60405162461bcd60e51b815260206004820152602f60248201527f636f756c646e277420706572666f726d207472616e736974696f6e20666f722060448201526e756e6b6e6f776e2070726f6772616d60881b6064820152608490fd5b610f8e929593949150602081519101207fd756eca21e02cb0dbde1e44a4d9c6921b5c8aa4668cfa0752784b3dc855bce1e60206040518760805101358152a1610f386020866080510101612b66565b90604051906020820192876080510135845265ffffffffffff60d01b9060d01b1660408301526040876080510101356046830152606087608051010135606683015260868201526086815261078260a68261277e565b918365ffffffffffff610fa76020846080510101612b66565b1611610fbe575b50600160a0510160a0529161088c565b65ffffffffffff9193506020610fd8916080510101612b66565b169183610fae565b610ff16060836080510101356133af565b61090b5760405162461bcd60e51b815260206004820152602660248201527f616c6c6f776564207072656465636573736f7220626c6f636b207761736e277460448201526508199bdd5b9960d21b6064820152608490fd5b60405162461bcd60e51b815260206004820152602560248201527f696e76616c69642070726576696f757320636f6d6d697474656420626c6f636b604482015264040d0c2e6d60db1b6064820152608490fd5b906110e7926020815191012090602081519101209060405191602083019182526040830152604082526110d060608361277e565b60643591604435916024359151902060c05161307c565b1561111957610180517f9b779b17422d0df92223018b32b4d1fa46e071723d6817e2486d003becc55f005d6101805180f35b60405162461bcd60e51b815260206004820152601e60248201527f7369676e61747572657320766572696669636174696f6e206661696c656400006044820152606490fd5b60405162461bcd60e51b815260206004820152601860248201527f6e6f20636f6d6d69746d656e747320746f20636f6d6d697400000000000000006044820152606490fd5b506111ba6024610160510161016051600401612ae9565b905015610617565b633ee5aeb560e01b6101805152600461018051fd5b346101e35760203660031901126101e35760195f5160206136765f395f51905f5254016004356101805152602052602060ff60406101805120541661121f60405180926128a9565bf35b346101e35760203660031901126101e3576004356001600160401b0381116101e357611251903690600401612879565b5f5160206136765f395f51905f52549161126a826127e4565b92611278604051948561277e565b828452611284836127e4565b602085019390601f1901368537601a610180519201915b8181106112e957848660405191829160208301906020845251809152604083019190610180515b8181106112d0575050500390f35b82518452859450602093840193909201916001016112c2565b806112ff6112fa60019385886129fc565b612a34565b828060a01b03165f528360205260405f205461131b8289612a20565b520161129b565b346101e357610180513660031901126101e357602060406113675f5160206136765f395f51905f5254600261135f60018060a01b03924290613368565b01541661304d565b815192839181835280519182918282860152018484015e61018051828201840152601f01601f19168101030190f35b346101e357610180513660031901126101e3576020601b5f5160206136765f395f51905f52540154604051908152f35b346101e35760203660031901126101e3576113df6127fb565b601a5f5160206136765f395f51905f5254019060018060a01b03165f52602052602060405f2054604051908152f35b346101e35760203660031901126101e3576004356001600160401b0381116101e3576114496114436020923690600401612879565b90612a48565b6040519015158152f35b346101e357610180513660031901126101e3575f5160206136565f395f51905f52546040516001600160a01b039091168152602090f35b346101e357610180513660031901126101e3575f5160206136765f395f51905f525460018101908154611516576002015463ffffffff16409081156114d157556101805180f35b60405162461bcd60e51b815260206004820152601d60248201527f756e61626c6520746f206c6f6f6b75702067656e6573697320686173680000006044820152606490fd5b60405162461bcd60e51b815260206004820152601860248201527f67656e65736973206861736820616c72656164792073657400000000000000006044820152606490fd5b346101e357610180513660031901126101e3575f5160206136765f395f51905f5254600701546040516001600160a01b039091168152602090f35b346101e357610180513660031901126101e3576115b1612973565b50604060155f5160206136765f395f51905f5254016001600160801b038251916115da83612763565b548160206001600160401b038316948581520191851c168152835192835251166020820152f35b346101e35760203660031901126101e3576004356001600160401b0381116101e357611631903690600401612879565b5f5160206136765f395f51905f52549161164a826127e4565b92611658604051948561277e565b828452611664836127e4565b602085019390601f19013685376019610180519201915b8181106116d357848660405191829160208301906020845251809152604083019190610180515b8181106116b0575050500390f35b91935091602080826116c560019488516128a9565b0194019101918493926116a2565b6116de8183866129fc565b3561018051528260205260ff604061018051205416906116fe8188612a20565b91600381101561084b57600192520161167b565b346101e357610180513660031901126101e35761172d612e9e565b5f5160206136565f395f51905f5280546001600160a01b0319811690915561018051906001600160a01b03167f8be0079c531659141344cd1fd0a4f28419497f9722a3daafe3b4186f6b6457e08280a36101805180f35b346101e357610180513660031901126101e35761179f612e9e565b5f5160206136965f395f51905f525460ff8160401c168015611a87575b611a725768ffffffffffffffffff191668010000000000000002175f5160206136965f395f51905f52555f5160206136765f395f51905f525460408051611803828261277e565b6017815260208101907f726f757465722e73746f726167652e526f7574657256320000000000000000008252611837612e9e565b5190205f198101919082116102ab577fc7f505b2f371ae2175ee4913f4499e1f2633a7b5936321eed1cdaeb6115181d292602092825190848201908152848252611881848361277e565b60ff19915190201690815f5160206136765f395f51905f52556118a2613008565b80516001840155600283019063ffffffff868201511669ffffffffffff00000000868454930151881b169169ffffffffffffffffffff191617179055600581016005830190808203611a24575b505061ffff600882015416600883019061ffff198254161790556119586119164283613368565b61192d6001600160a01b03600261135f4287613368565b611943600461193c4287613368565b019261298b565b9061194e42936129a9565b9160098601612c05565b6015810160158301908082036119d2575b50506016810160168301918183036119b2575b5050505060ff60401b195f5160206136965f395f51905f5254165f5160206136965f395f51905f52555160028152a16101805180f35b60189283925490556017810154601785015501549101558380808061197c565b806001600160401b03806001600160801b03935416166001600160401b031984541617835554851c16600160401b600160c01b03825491861b1690600160401b600160c01b0319161790558580611969565b5481546001600160a01b03199081166001600160a01b0392831617909255600683810154908501805484169183169190911790556007808401549085018054909316911617905585806118ef565b63f92ee8a960e01b6101805152600461018051fd5b5060026001600160401b03821610156117bc565b346101e357610180513660031901126101e3575f5160206136765f395f51905f5254600601546040516001600160a01b039091168152602090f35b346101e3576101603660031901126101e357611af06127fb565b6024356001600160a01b03811691908290036101e3576044356001600160a01b03811692908390036101e3576064356001600160a01b038116908190036101e3576084359160a43560c43595604060e3193601126101e35761012435916001600160401b0383116101e357366023840112156101e3578260040135916001600160401b0383116101e35736602484860101116101e357610144356001600160401b0381116101e357611ba6903690600401612879565b9690945f5160206136965f395f51905f525460ff8160401c16159a6001600160401b0382168015908161202e575b6001149081612024575b15908161201b575b50611a725767ffffffffffffffff1982166001175f5160206136965f395f51905f5255611c24918c611fef575b50611c1c613384565b61020e613384565b4215611f99578315611f435783891115611ee257600a611c44858b612928565b048b1015611e9d5760409a8b51611c5b8d8261277e565b6017815260208101907f726f757465722e73746f726167652e526f7574657256310000000000000000008252611c8f612e9e565b5190205f198101959086116102ab57611e3d9a828e611e2c96611e3698600660099b8451906020820190815260208252611cc9868361277e565b60ff1991519020169e8f90815f5160206136765f395f51905f5255611cec613008565b80516001840155600283019063ffffffff60208201511669ffffffffffff0000000089845493015160201b169169ffffffffffffffffffff19161717905584868051611d3781612748565b8381526020810187905201526005820180546001600160a01b03199081166001600160a01b039384161790915592909101805483169382169390931790925560078f0180549091169290911691909117905560088c01805461ffff1916611a0a179055611da2612973565b506509184e72a00060208251611db781612763565b639502f9008152015260158c0180546001600160c01b0319166d09184e72a000000000009502f9001790558051611ded81612748565b83815260208101859052015260168a0155601789015560188801558a5194611e1486612763565b60e4358652610104356020870152602436920161279f565b9342963691612825565b9301612c05565b611e48576101805180f35b60207fc7f505b2f371ae2175ee4913f4499e1f2633a7b5936321eed1cdaeb6115181d29160ff60401b195f5160206136965f395f51905f5254165f5160206136965f395f51905f52555160018152a180610213565b60405162461bcd60e51b815260206004820152601b60248201527f76616c69646174696f6e2064656c617920697320746f6f2062696700000000006044820152606490fd5b60405162461bcd60e51b815260206004820152603360248201527f657261206475726174696f6e206d757374206265206772656174657220746861604482015272371032b632b1ba34b7b710323ab930ba34b7b760691b6064820152608490fd5b60405162461bcd60e51b815260206004820152602860248201527f656c656374696f6e206475726174696f6e206d75737420626520677265617465604482015267072207468616e20360c41b6064820152608490fd5b60405162461bcd60e51b815260206004820152602860248201527f63757272656e742074696d657374616d70206d75737420626520677265617465604482015267072207468616e20360c41b6064820152608490fd5b68ffffffffffffffffff191668010000000000000001175f5160206136965f395f51905f52558d611c13565b9050158e611be6565b303b159150611bde565b8d9150611bd4565b346120c05760403660031901126120c0576001600160a01b0361205d602435600435612ed1565b16803b156120c0576040519063485cc95560e01b82523360048301525f60248301525f8260448183855af19182156120b5576020926120a0575b50604051908152f35b5f6120aa9161277e565b5f6101805282612097565b6040513d5f823e3d90fd5b5f80fd5b346120c05760203660031901126120c0576120dd6127fb565b6120e5612e9e565b5f5160206136765f395f51905f525460050180546001600160a01b0319166001600160a01b03909216919091179055005b346120c0575f3660031901126120c05761212e612973565b50604061215261214d5f5160206136765f395f51905f52544290613368565b61298b565b60208251918051835201516020820152f35b346120c0575f3660031901126120c057602060015f5160206136765f395f51905f52540154604051908152f35b346120c05760203660031901126120c0576004355f49156122a05760195f5160206136765f395f51905f52546121cc600182015415156128b6565b01815f528060205260ff60405f205416600381101561228c5761222b57816020917f5c261a095dd5720475295dc06379921c003c22164ee6cae5cf83e76ce0a1b985935f52825260405f20600160ff19825416179055604051908152a1005b60405162461bcd60e51b815260206004820152603360248201527f676976656e20636f646520696420697320616c7265616479206f6e2076616c6960448201527219185d1a5bdb881bdc881d985b1a59185d1959606a1b6064820152608490fd5b634e487b7160e01b5f52602160045260245ffd5b60405162461bcd60e51b815260206004820152604860248201527f626c6f622063616e277420626520666f756e642c20726f75746572206578706560448201527f63746564204549502d34383434207472616e73616374696f6e2077697468205760648201526720a9a690313637b160c11b608482015260a490fd5b346120c05760803660031901126120c0576004356001600160401b0381116120c0576003198136030160a081126120c0576040519060808201908282106001600160401b0383111761270a576040918252126120c05760405161237e81612763565b8260040135815260248301356020820152815260448201356001600160401b0381116120c0578201366023820112156120c0576123c590369060246004820135910161279f565b906020810191825260648301356001600160401b0381116120c0578301366023820112156120c057612401903690602460048201359101612825565b916040820192835260846060830194013584525f5160206136765f395f51905f525491612433600184015415156128b6565b65ffffffffffff600284015460201c1661244d8142612928565b9061245d60168601548093612935565b8751600182018092116126f6570361269e5761247e61248492885190612960565b90612953565b92612493601782015485612928565b4210612659576124a281612bea565b9542600588015410156125f957825190602082519201519087519051604051926020840194855260408401526060830160208351919301905f5b8181106125da575050506020838361250193612536989796955203808452018261277e565b5190209060405191602083019081526020835261251f60408461277e565b42926064359260443592602435925190209061307c565b1561257a577f41e7f919bf726af8aa2ef36bd31905a693013e30c45c6284060e613d4941997b94602094612571938593519051915192612c05565b604051908152a1005b60405162461bcd60e51b815260206004820152603260248201527f6e657874206572612076616c696461746f7273207369676e6174757265732076604482015271195c9a599a58d85d1a5bdb8819985a5b195960721b6064820152608490fd5b82516001600160a01b03168552602094850194909201916001016124dc565b60405162461bcd60e51b815260206004820152603260248201527f6c6f6f6b73206c696b652076616c696461746f727320666f72206e65787420656044820152711c9848185c9948185b1c9958591e481cd95d60721b6064820152608490fd5b60405162461bcd60e51b815260206004820152601b60248201527f656c656374696f6e206973206e6f7420796574207374617274656400000000006044820152606490fd5b60405162461bcd60e51b815260206004820152602a60248201527f636f6d6d69746d656e742065726120696e646578206973206e6f74206e657874604482015269040cae4c240d2dcc8caf60b31b6064820152608490fd5b634e487b7160e01b5f52601160045260245ffd5b634e487b7160e01b5f52604160045260245ffd5b346120c0575f3660031901126120c057602090601c5f5160206136765f395f51905f525401548152f35b606081019081106001600160401b0382111761270a57604052565b604081019081106001600160401b0382111761270a57604052565b90601f801991011681019081106001600160401b0382111761270a57604052565b9291926001600160401b03821161270a57604051916127c8601f8201601f19166020018461277e565b8294818452818301116120c0578281602093845f960137010152565b6001600160401b03811161270a5760051b60200190565b600435906001600160a01b03821682036120c057565b35906001600160a01b03821682036120c057565b929190612831816127e4565b9361283f604051958661277e565b602085838152019160051b81019283116120c057905b82821061286157505050565b6020809161286e84612811565b815201910190612855565b9181601f840112156120c0578235916001600160401b0383116120c0576020808501948460051b0101116120c057565b90600382101561228c5752565b156128bd57565b60405162461bcd60e51b815260206004820152603860248201527f726f757465722067656e65736973206973207a65726f3b2063616c6c20606c6f60448201527f6f6b757047656e657369734861736828296020666972737400000000000000006064820152608490fd5b919082039182116126f657565b811561293f570490565b634e487b7160e01b5f52601260045260245ffd5b919082018092116126f657565b818102929181159184041417156126f657565b6040519061298082612763565b5f6020838281520152565b9060405161299881612763565b602060018294805484520154910152565b90604051918281549182825260208201905f5260205f20925f5b8181106129da5750506129d89250038361277e565b565b84546001600160a01b03168352600194850194879450602090930192016129c3565b9190811015612a0c5760051b0190565b634e487b7160e01b5f52603260045260245ffd5b8051821015612a0c5760209160051b010190565b356001600160a01b03811681036120c05790565b612a615f5160206136765f395f51905f52544290613368565b600301905f5b838110612a775750505050600190565b612a856112fa8286856129fc565b6001600160a01b03165f9081526020849052604090205460ff1615612aac57600101612a67565b505050505f90565b903590601e19813603018212156120c057018035906001600160401b0382116120c0576020019160608202360383136120c057565b903590601e19813603018212156120c057018035906001600160401b0382116120c057602001918160051b360383136120c057565b3580151581036120c05790565b5f1981146126f65760010190565b6020806129d8928195946040519682889351918291018585015e820190838201520301808552018361277e565b3565ffffffffffff811681036120c05790565b6001600160a01b03168015612bd7575f5160206136565f395f51905f5280546001600160a01b0319811683179091556001600160a01b03167f8be0079c531659141344cd1fd0a4f28419497f9722a3daafe3b4186f6b6457e05f80a3565b631e4fbdf760e01b5f525f60045260245ffd5b612bf4428261327f565b15612bff5760090190565b600f0190565b9291908051906020810191825170014551231950b75fc4402da1732fc9bebe1982109182612e8d575b505015612e395751845551600184015560405190612c716021836020808201945f86528051918291018484015e81015f838201520301601f19810184528361277e565b612cae602b604051809360208201956a600b5981380380925939f360a81b87525180918484015e81015f838201520301601f19810183528261277e565b51905ff06001600160a01b03811615612e00576002830180546001600160a01b0319166001600160a01b039092169190911790555f5b600483018054821015612d22575f90815260208082208301546001600160a01b0316825260038501905260409020805460ff19169055600101612ce4565b5050925f5b8451811015612d6b576001906001600160a01b03612d458288612a20565b5116828060a01b03165f526003840160205260405f208260ff1982541617905501612d27565b5092600482018151916001600160401b03831161270a5768010000000000000000831161270a578154838355808410612dda575b50602001905f5260205f205f5b838110612dbd575050505060050155565b82516001600160a01b031681830155602090920191600101612dac565b825f528360205f2091820191015b818110612df55750612d9f565b5f8155600101612de8565b60405162461bcd60e51b81526020600482015260116024820152701111541313d65351539517d19052531151607a1b6044820152606490fd5b60405162461bcd60e51b815260206004820152602660248201527f46524f53542061676772656761746564207075626c6963206b657920697320696044820152651b9d985b1a5960d21b6064820152608490fd5b612e979250613632565b5f80612c2e565b5f5160206136565f395f51905f52546001600160a01b03163303612ebe57565b63118cdaa760e01b5f523360045260245ffd5b5f5160206136765f395f51905f525491612ef0600184015415156128b6565b815f526019830160205260ff60405f205416600381101561228c57600203612fac57612f4e601b9160018060a01b03600686015416906040516020810191868352604082015260408152612f4560608261277e565b519020906135cf565b9260018060a01b0384165f52601a81016020528260405f205501612f728154612b2b565b90556040516001600160a01b03831681527f8008ec1d8798725ebfa0f2d128d52e8e717dcba6e0f786557eeee70614b02bf190602090a290565b60405162461bcd60e51b815260206004820152602e60248201527f636f6465206d7573742062652076616c696461746564206265666f726520707260448201526d37b3b930b69031b932b0ba34b7b760911b6064820152608490fd5b5f6040805161301681612748565b828152826020820152015260405161302d81612748565b5f815263ffffffff4316602082015265ffffffffffff4216604082015290565b803b905f198201908282116126f65760019060405193603e601f19910116840160405282845260208401903c90565b939291909365ffffffffffff600282015460201c166130b26130bd6130b76130a48442612928565b601686015493848092612935565b612960565b83612953565b918289108080613269575b156131f1575088106131ac576130de9088612953565b1061315b57613158956130f091613368565b9360405190602082019081526020825261310b60408361277e565b613147603660405180936020820195601960f81b87523060601b60228401525180918484015e81015f838201520301601f19810183528261277e565b519020936001815491015490613400565b90565b60405162461bcd60e51b8152602060048201526024808201527f74696d657374616d70206973206f6c646572207468616e2070726576696f75736044820152632065726160e01b6064820152608490fd5b60405162461bcd60e51b815260206004820152601e60248201527f63616e6e6f742076616c6964617465206265666f72652067656e6573697300006044820152606490fd5b9391505096909642821161321a57613158976130f093613212575b50613368565b91505f61320c565b60405162461bcd60e51b815260206004820152602160248201527f74696d657374616d702063616e6e6f7420626520696e207468652066757475726044820152606560f81b6064820152608490fd5b50613278601886015485612953565b42106130c8565b906014600e8301549201548083146133245781818410931191821591111591819061331d575b156132ba57826132b457505090565b14919050565b60405162461bcd60e51b815260206004820152603560248201527f636f756c64206e6f74206964656e746966792076616c696461746f727320666f6044820152740722074686520676976656e2074696d657374616d7605c1b6064820152608490fd5b50816132a5565b606460405162461bcd60e51b815260206004820152602060248201527f657261732074696d657374616d70206d757374206e6f7420626520657175616c6044820152fd5b90613373908261327f565b1561337e57600f0190565b60090190565b60ff5f5160206136965f395f51905f525460401c16156133a057565b631afcd79f60e31b5f5260045ffd5b905f1943014381116126f657805b6133c8575b505f9150565b80408381036133d957506001925050565b156133e7575f1901806133bd565b6133c2565b35906001600160801b03821682036120c057565b929391949061340f8587613632565b156135c55782156135c55770014551231950b75fc4402da1732fc9bebe198310156135c5576001169061010e6040519161012083018381106001600160401b038211176120c05760405260883684376002600188160160888401538760898401526002840160a984015360aa830186905260ca8301527e300046524f53542d736563703235366b312d4b454343414b3235362d76316360ea8301526303430b6160e51b61010a830152812060cc820181815290600260ec84016001815360428420809318845253604270014551231950b75fc4402da1732fc9bebe19922060801c6001600160401b0360801b8260801b16179070014551231950b75fc4402da1732fc9bebe1990600160c01b9060401c090880156135ba5784601b6080945f9660209870014551231950b75fc4402da1732fc9bebe19910970014551231950b75fc4402da1732fc9bebe19038552018684015280604084015270014551231950b75fc4402da1732fc9bebe19910970014551231950b75fc4402da1732fc9bebe1903606082015282805260015afa156120c0575f51915f5260205260018060a01b0360405f20161490565b505050505050505f90565b5050505050505f90565b6e5af43d82803e903d91602b57fd5bf390763d602d80600a3d3981f3363d3d373d3d3d363d7300000062ffffff8260881c16175f5260781b17602052603760095ff5906001600160a01b0382161561362357565b63b06ebf3d60e01b5f5260045ffd5b6401000003d01990600790829081818009900908906401000003d019908009149056fe9016d09d72d40fdae2fd8ceac6b6234c7706214fd39c1cd1e609a0528c1993005c09ca1b9b8127a4fd9f3c384aac59b661441e820e17733753ff5f2e86e1e000f0c57e16840df040f15088dc2f81fe391c3923bec73e23a9662efc9c229c6a00a26469706673582212200f5a7f127465d7e8ebe32b4a51d453a419e4eafca408b13339eb638277cefab664736f6c634300081c0033f0c57e16840df040f15088dc2f81fe391c3923bec73e23a9662efc9c229c6a00","linkReferences":{}},"methodIdentifiers":{"areValidators(address[])":"8f381dbe","codeState(bytes32)":"c13911e8","codesStates(bytes32[])":"82bdeaad","commitBatch(((bytes32,uint48,bool)[],(bytes32,uint48,bytes32,bytes32,(address,bytes32,address,uint128,(bytes32,address,uint128)[],(bytes32,address,bytes,uint128,(bytes32,bytes4))[])[])[]),uint256,uint256,uint256)":"c2fad806","commitValidators(((uint256,uint256),bytes,address[],uint256),uint256,uint256,uint256)":"014cb815","computeSettings()":"84d22a4f","createProgram(bytes32,bytes32)":"527de0f9","createProgramWithDecoder(address,bytes32,bytes32)":"e7006a74","genesisBlockHash()":"28e24b3d","genesisTimestamp()":"cacf66ab","initialize(address,address,address,address,uint256,uint256,uint256,(uint256,uint256),bytes,address[])":"53f7fd48","isValidator(address)":"facd743b","latestCommittedBlockHash()":"c9f16a11","lookupGenesisHash()":"8b1edf1e","mirrorImpl()":"e6fabc09","mirrorProxyImpl()":"65ecfea2","owner()":"8da5cb5b","programCodeId(address)":"9067088e","programsCodeIds(address[])":"baaf0201","programsCount()":"96a2ddfa","reinitialize()":"6c2eb350","renounceOwnership()":"715018a6","requestCodeValidation(bytes32)":"120e3f1e","setMirror(address)":"3d43b418","signingThresholdPercentage()":"efd81abc","transferOwnership(address)":"f2fde38b","validatedCodesCount()":"007a32e7","validators()":"ca1e7819","validatorsAggregatedPublicKey()":"3bd109fa","validatorsCount()":"ed612f8c","validatorsThreshold()":"edc87225","validatorsVerifiableSecretSharingCommitment()":"a5d53a44","wrappedVara()":"88f50cf0"},"storageLayout":{"storage":[],"types":{}},"id":130}