{"abi":[{"type":"constructor","inputs":[],"stateMutability":"nonpayable"},{"type":"function","name":"areValidators","inputs":[{"name":"_validators","type":"address[]","internalType":"address[]"}],"outputs":[{"name":"","type":"bool","internalType":"bool"}],"stateMutability":"view"},{"type":"function","name":"codeState","inputs":[{"name":"_codeId","type":"bytes32","internalType":"bytes32"}],"outputs":[{"name":"","type":"uint8","internalType":"enum Gear.CodeState"}],"stateMutability":"view"},{"type":"function","name":"codesStates","inputs":[{"name":"_codesIds","type":"bytes32[]","internalType":"bytes32[]"}],"outputs":[{"name":"","type":"uint8[]","internalType":"enum Gear.CodeState[]"}],"stateMutability":"view"},{"type":"function","name":"commitBatch","inputs":[{"name":"_batch","type":"tuple","internalType":"struct Gear.BatchCommitment","components":[{"name":"blockHash","type":"bytes32","internalType":"bytes32"},{"name":"blockTimestamp","type":"uint48","internalType":"uint48"},{"name":"previousCommittedBatchHash","type":"bytes32","internalType":"bytes32"},{"name":"chainCommitment","type":"tuple[]","internalType":"struct Gear.ChainCommitment[]","components":[{"name":"transitions","type":"tuple[]","internalType":"struct Gear.StateTransition[]","components":[{"name":"actorId","type":"address","internalType":"address"},{"name":"newStateHash","type":"bytes32","internalType":"bytes32"},{"name":"exited","type":"bool","internalType":"bool"},{"name":"inheritor","type":"address","internalType":"address"},{"name":"valueToReceive","type":"uint128","internalType":"uint128"},{"name":"valueClaims","type":"tuple[]","internalType":"struct Gear.ValueClaim[]","components":[{"name":"messageId","type":"bytes32","internalType":"bytes32"},{"name":"destination","type":"address","internalType":"address"},{"name":"value","type":"uint128","internalType":"uint128"}]},{"name":"messages","type":"tuple[]","internalType":"struct Gear.Message[]","components":[{"name":"id","type":"bytes32","internalType":"bytes32"},{"name":"destination","type":"address","internalType":"address"},{"name":"payload","type":"bytes","internalType":"bytes"},{"name":"value","type":"uint128","internalType":"uint128"},{"name":"replyDetails","type":"tuple","internalType":"struct Gear.ReplyDetails","components":[{"name":"to","type":"bytes32","internalType":"bytes32"},{"name":"code","type":"bytes4","internalType":"bytes4"}]},{"name":"call","type":"bool","internalType":"bool"}]}]},{"name":"blocks","type":"tuple[]","internalType":"struct Gear.GearBlock[]","components":[{"name":"hash","type":"bytes32","internalType":"bytes32"},{"name":"gasAllowance","type":"uint64","internalType":"uint64"},{"name":"offchainTransactionsHash","type":"bytes32","internalType":"bytes32"}]}]},{"name":"codeCommitments","type":"tuple[]","internalType":"struct Gear.CodeCommitment[]","components":[{"name":"id","type":"bytes32","internalType":"bytes32"},{"name":"valid","type":"bool","internalType":"bool"}]},{"name":"rewardsCommitment","type":"tuple[]","internalType":"struct Gear.RewardsCommitment[]","components":[{"name":"operators","type":"tuple","internalType":"struct Gear.OperatorRewardsCommitment","components":[{"name":"amount","type":"uint256","internalType":"uint256"},{"name":"root","type":"bytes32","internalType":"bytes32"}]},{"name":"stakers","type":"tuple","internalType":"struct Gear.StakerRewardsCommitment","components":[{"name":"distribution","type":"tuple[]","internalType":"struct Gear.StakerRewards[]","components":[{"name":"vault","type":"address","internalType":"address"},{"name":"amount","type":"uint256","internalType":"uint256"}]},{"name":"totalAmount","type":"uint256","internalType":"uint256"},{"name":"token","type":"address","internalType":"address"}]},{"name":"timestamp","type":"uint48","internalType":"uint48"}]},{"name":"validatorsCommitment","type":"tuple[]","internalType":"struct Gear.ValidatorsCommitment[]","components":[{"name":"aggregatedPublicKey","type":"tuple","internalType":"struct Gear.AggregatedPublicKey","components":[{"name":"x","type":"uint256","internalType":"uint256"},{"name":"y","type":"uint256","internalType":"uint256"}]},{"name":"verifiableSecretSharingCommitment","type":"bytes","internalType":"bytes"},{"name":"validators","type":"address[]","internalType":"address[]"},{"name":"eraIndex","type":"uint256","internalType":"uint256"}]}]},{"name":"_signatureType","type":"uint8","internalType":"enum Gear.SignatureType"},{"name":"_signatures","type":"bytes[]","internalType":"bytes[]"}],"outputs":[],"stateMutability":"nonpayable"},{"type":"function","name":"computeSettings","inputs":[],"outputs":[{"name":"","type":"tuple","internalType":"struct Gear.ComputationSettings","components":[{"name":"threshold","type":"uint64","internalType":"uint64"},{"name":"wvaraPerSecond","type":"uint128","internalType":"uint128"}]}],"stateMutability":"view"},{"type":"function","name":"createProgram","inputs":[{"name":"_codeId","type":"bytes32","internalType":"bytes32"},{"name":"_salt","type":"bytes32","internalType":"bytes32"},{"name":"_overrideInitializer","type":"address","internalType":"address"}],"outputs":[{"name":"","type":"address","internalType":"address"}],"stateMutability":"nonpayable"},{"type":"function","name":"createProgramWithAbiInterface","inputs":[{"name":"_codeId","type":"bytes32","internalType":"bytes32"},{"name":"_salt","type":"bytes32","internalType":"bytes32"},{"name":"_overrideInitializer","type":"address","internalType":"address"},{"name":"_abiInterface","type":"address","internalType":"address"}],"outputs":[{"name":"","type":"address","internalType":"address"}],"stateMutability":"nonpayable"},{"type":"function","name":"genesisBlockHash","inputs":[],"outputs":[{"name":"","type":"bytes32","internalType":"bytes32"}],"stateMutability":"view"},{"type":"function","name":"genesisTimestamp","inputs":[],"outputs":[{"name":"","type":"uint48","internalType":"uint48"}],"stateMutability":"view"},{"type":"function","name":"initialize","inputs":[{"name":"_owner","type":"address","internalType":"address"},{"name":"_mirror","type":"address","internalType":"address"},{"name":"_wrappedVara","type":"address","internalType":"address"},{"name":"_middleware","type":"address","internalType":"address"},{"name":"_eraDuration","type":"uint256","internalType":"uint256"},{"name":"_electionDuration","type":"uint256","internalType":"uint256"},{"name":"_validationDelay","type":"uint256","internalType":"uint256"},{"name":"_aggregatedPublicKey","type":"tuple","internalType":"struct Gear.AggregatedPublicKey","components":[{"name":"x","type":"uint256","internalType":"uint256"},{"name":"y","type":"uint256","internalType":"uint256"}]},{"name":"_verifiableSecretSharingCommitment","type":"bytes","internalType":"bytes"},{"name":"_validators","type":"address[]","internalType":"address[]"}],"outputs":[],"stateMutability":"nonpayable"},{"type":"function","name":"isValidator","inputs":[{"name":"_validator","type":"address","internalType":"address"}],"outputs":[{"name":"","type":"bool","internalType":"bool"}],"stateMutability":"view"},{"type":"function","name":"latestCommittedBatchHash","inputs":[],"outputs":[{"name":"","type":"bytes32","internalType":"bytes32"}],"stateMutability":"view"},{"type":"function","name":"latestCommittedBatchTimestamp","inputs":[],"outputs":[{"name":"","type":"uint48","internalType":"uint48"}],"stateMutability":"view"},{"type":"function","name":"lookupGenesisHash","inputs":[],"outputs":[],"stateMutability":"nonpayable"},{"type":"function","name":"mirrorImpl","inputs":[],"outputs":[{"name":"","type":"address","internalType":"address"}],"stateMutability":"view"},{"type":"function","name":"owner","inputs":[],"outputs":[{"name":"","type":"address","internalType":"address"}],"stateMutability":"view"},{"type":"function","name":"programCodeId","inputs":[{"name":"_programId","type":"address","internalType":"address"}],"outputs":[{"name":"","type":"bytes32","internalType":"bytes32"}],"stateMutability":"view"},{"type":"function","name":"programsCodeIds","inputs":[{"name":"_programsIds","type":"address[]","internalType":"address[]"}],"outputs":[{"name":"","type":"bytes32[]","internalType":"bytes32[]"}],"stateMutability":"view"},{"type":"function","name":"programsCount","inputs":[],"outputs":[{"name":"","type":"uint256","internalType":"uint256"}],"stateMutability":"view"},{"type":"function","name":"reinitialize","inputs":[],"outputs":[],"stateMutability":"nonpayable"},{"type":"function","name":"renounceOwnership","inputs":[],"outputs":[],"stateMutability":"nonpayable"},{"type":"function","name":"requestCodeValidation","inputs":[{"name":"_codeId","type":"bytes32","internalType":"bytes32"}],"outputs":[],"stateMutability":"nonpayable"},{"type":"function","name":"setMirror","inputs":[{"name":"newMirror","type":"address","internalType":"address"}],"outputs":[],"stateMutability":"nonpayable"},{"type":"function","name":"signingThresholdPercentage","inputs":[],"outputs":[{"name":"","type":"uint16","internalType":"uint16"}],"stateMutability":"view"},{"type":"function","name":"timelines","inputs":[],"outputs":[{"name":"","type":"tuple","internalType":"struct Gear.Timelines","components":[{"name":"era","type":"uint256","internalType":"uint256"},{"name":"election","type":"uint256","internalType":"uint256"},{"name":"validationDelay","type":"uint256","internalType":"uint256"}]}],"stateMutability":"view"},{"type":"function","name":"transferOwnership","inputs":[{"name":"newOwner","type":"address","internalType":"address"}],"outputs":[],"stateMutability":"nonpayable"},{"type":"function","name":"validatedCodesCount","inputs":[],"outputs":[{"name":"","type":"uint256","internalType":"uint256"}],"stateMutability":"view"},{"type":"function","name":"validators","inputs":[],"outputs":[{"name":"","type":"address[]","internalType":"address[]"}],"stateMutability":"view"},{"type":"function","name":"validatorsAggregatedPublicKey","inputs":[],"outputs":[{"name":"","type":"tuple","internalType":"struct Gear.AggregatedPublicKey","components":[{"name":"x","type":"uint256","internalType":"uint256"},{"name":"y","type":"uint256","internalType":"uint256"}]}],"stateMutability":"view"},{"type":"function","name":"validatorsCount","inputs":[],"outputs":[{"name":"","type":"uint256","internalType":"uint256"}],"stateMutability":"view"},{"type":"function","name":"validatorsThreshold","inputs":[],"outputs":[{"name":"","type":"uint256","internalType":"uint256"}],"stateMutability":"view"},{"type":"function","name":"validatorsVerifiableSecretSharingCommitment","inputs":[],"outputs":[{"name":"","type":"bytes","internalType":"bytes"}],"stateMutability":"view"},{"type":"function","name":"wrappedVara","inputs":[],"outputs":[{"name":"","type":"address","internalType":"address"}],"stateMutability":"view"},{"type":"event","name":"BatchCommitted","inputs":[{"name":"hash","type":"bytes32","indexed":false,"internalType":"bytes32"}],"anonymous":false},{"type":"event","name":"CodeGotValidated","inputs":[{"name":"codeId","type":"bytes32","indexed":false,"internalType":"bytes32"},{"name":"valid","type":"bool","indexed":true,"internalType":"bool"}],"anonymous":false},{"type":"event","name":"CodeValidationRequested","inputs":[{"name":"codeId","type":"bytes32","indexed":false,"internalType":"bytes32"}],"anonymous":false},{"type":"event","name":"ComputationSettingsChanged","inputs":[{"name":"threshold","type":"uint64","indexed":false,"internalType":"uint64"},{"name":"wvaraPerSecond","type":"uint128","indexed":false,"internalType":"uint128"}],"anonymous":false},{"type":"event","name":"GearBlockCommitted","inputs":[{"name":"block","type":"tuple","indexed":false,"internalType":"struct Gear.GearBlock","components":[{"name":"hash","type":"bytes32","internalType":"bytes32"},{"name":"gasAllowance","type":"uint64","internalType":"uint64"},{"name":"offchainTransactionsHash","type":"bytes32","internalType":"bytes32"}]}],"anonymous":false},{"type":"event","name":"Initialized","inputs":[{"name":"version","type":"uint64","indexed":false,"internalType":"uint64"}],"anonymous":false},{"type":"event","name":"NextEraValidatorsCommitted","inputs":[{"name":"startTimestamp","type":"uint256","indexed":false,"internalType":"uint256"}],"anonymous":false},{"type":"event","name":"OwnershipTransferred","inputs":[{"name":"previousOwner","type":"address","indexed":true,"internalType":"address"},{"name":"newOwner","type":"address","indexed":true,"internalType":"address"}],"anonymous":false},{"type":"event","name":"ProgramCreated","inputs":[{"name":"actorId","type":"address","indexed":false,"internalType":"address"},{"name":"codeId","type":"bytes32","indexed":true,"internalType":"bytes32"}],"anonymous":false},{"type":"event","name":"RewardsDistributed","inputs":[{"name":"eraIndex","type":"uint256","indexed":false,"internalType":"uint256"}],"anonymous":false},{"type":"event","name":"StorageSlotChanged","inputs":[],"anonymous":false},{"type":"error","name":"ECDSAInvalidSignature","inputs":[]},{"type":"error","name":"ECDSAInvalidSignatureLength","inputs":[{"name":"length","type":"uint256","internalType":"uint256"}]},{"type":"error","name":"ECDSAInvalidSignatureS","inputs":[{"name":"s","type":"bytes32","internalType":"bytes32"}]},{"type":"error","name":"InvalidInitialization","inputs":[]},{"type":"error","name":"NotInitializing","inputs":[]},{"type":"error","name":"OwnableInvalidOwner","inputs":[{"name":"owner","type":"address","internalType":"address"}]},{"type":"error","name":"OwnableUnauthorizedAccount","inputs":[{"name":"account","type":"address","internalType":"address"}]},{"type":"error","name":"ReentrancyGuardReentrantCall","inputs":[]}],"bytecode":{"object":"0x6080806040523460aa575f5160206145235f395f51905f525460ff8160401c16609b576002600160401b03196001600160401b038216016049575b60405161447490816100af8239f35b6001600160401b0319166001600160401b039081175f5160206145235f395f51905f525581527fc7f505b2f371ae2175ee4913f4499e1f2633a7b5936321eed1cdaeb6115181d290602090a15f80603a565b63f92ee8a960e01b5f5260045ffd5b5f80fdfe6080806040526004361015610012575f80fd5b5f905f3560e01c9081627a32e7146122c9575080630c18d27714611dc3578063120e3f1e14611c3757806328e24b3d14611c095780633683c4d21461197c5780633bd109fa1461192d5780633d43b418146118d957806353f7fd48146113545780636c2eb35014611002578063715018a614610f9957806371a8cf2d14610f6b57806382bdeaad14610e5357806384d22a4f14610dea57806388f50cf014610db15780638b1edf1e14610ce65780638da5cb5b14610cb15780638f381dbe14610c6b5780639067088e14610c2257806396a2ddfa14610bf45780639eb939a814610b88578063a5d53a4414610b1a578063aa28e0f21461050d578063baaf020114610431578063c13911e8146103ed578063ca1e78191461036a578063cacf66ab14610332578063d456fd51146102fc578063e6fabc09146102c3578063ed612f8c1461028b578063edc8722514610241578063efd81abc1461020f578063f2fde38b146101e25763facd743b14610188575f80fd5b346101df5760203660031901126101df576101a161231f565b60036101bc5f5160206144345f395f51905f52544290613fa1565b019060018060a01b03165f52602052602060ff60405f2054166040519015158152f35b80fd5b50346101df5760203660031901126101df5761020c6101ff61231f565b61020761279d565b61271e565b80f35b50346101df57806003193601126101df57602061ffff60085f5160206144345f395f51905f5254015416604051908152f35b50346101df57806003193601126101df5760206102835f5160206144345f395f51905f525461ffff600860046102774285613fa1565b01549201541690613f7f565b604051908152f35b50346101df57806003193601126101df57602060046102b95f5160206144345f395f51905f52544290613fa1565b0154604051908152f35b50346101df57806003193601126101df575f5160206144345f395f51905f5254600501546040516001600160a01b039091168152602090f35b50346101df57806003193601126101df57602065ffffffffffff60045f5160206144345f395f51905f5254015416604051908152f35b50346101df57806003193601126101df57602065ffffffffffff60025f5160206144345f395f51905f52540154821c16604051908152f35b50346101df57806003193601126101df5761039f60046103995f5160206144345f395f51905f52544290613fa1565b016125b0565b90604051918291602083016020845282518091526020604085019301915b8181106103cb575050500390f35b82516001600160a01b03168452859450602093840193909201916001016103bd565b50346101df5760203660031901126101df5760ff604060209260195f5160206144345f395f51905f5254016004358252845220541661042f6040518092612379565bf35b50346101df5760203660031901126101df576004356001600160401b03811161050957610462903690600401612349565b905f5160206144345f395f51905f525461047b836126ec565b92601a859201915b8181106104d0578486604051918291602083016020845282518091526020604085019301915b8181106104b7575050500390f35b82518452859450602093840193909201916001016104a9565b806104e66104e16001938588612603565b61263b565b828060a01b03165f528360205260405f20546105028288612627565b5201610483565b5080fd5b50346101df5760603660031901126101df576004356001600160401b03811161050957806004019160e060031983360301126101df57602435926002841015610509576044356001600160401b038111610b165761056f903690600401612349565b92907f9b779b17422d0df92223018b32b4d1fa46e071723d6817e2486d003becc55f005c610b075760017f9b779b17422d0df92223018b32b4d1fa46e071723d6817e2486d003becc55f005d5f5160206144345f395f51905f5254926105da600185015415156123f1565b835415610a39575b600384019485549260448801358094036109e657600486019865ffffffffffff8a54169760248a019865ffffffffffff61061b8b6126d9565b16106109665760849a9998610630868a612b96565b9a606097899d8e9c019860198c019c5b61064a8b8b613281565b9190501015610812578e61065e8b8b613281565b909110156107fe578f60ff8f926040908f9360061b019283359485825260205220541660038110156107ea576001036107875760408f918f928f9360208301946106a7866132b6565b1561076f57601c928782526020528481209050600260ff19825416179055016106d0815461278f565b90555b6106dc836132b6565b15157f460119a8f69a33ed127de517d5ea464e958ce23ef19e4420a8b92bf780bbc2c960208451878152a236031261076b579161076291602060019461073060405191610728836123b5565b8483526132c3565b91829101526040519060208201928352151560f81b6040820152602181526107596041826123d0565b519020906132d0565b9e019d8e610640565b8c80fd5b905083918682526020522060ff1981541690556106d3565b60405162461bcd60e51b815260206004820152603560248201527f636f6465206d7573742062652072657175657374656420666f722076616c6964604482015274185d1a5bdb881d1bc818994818dbdb5b5a5d1d1959605a1b6064820152608490fd5b634e487b7160e01b8e52602160045260248efd5b634e487b7160e01b8c52603260045260248cfd5b6108f699509160208c998f9365ffffffffffff96948c6108ef97858151910120610846856108408185613337565b936137b3565b92610850896126d9565b9460405195888701973588528c60d01b9060d01b16604087015260468601526066850152608684015260a683015260c682015260c6815261089260e6826123d0565b51902080966108a0856126d9565b87604051916108ae836123b5565b8483521693849101525584198254161790557f7ebe42360bcb182fe0a88148b081e4557c89d09aa6af8307635ac2f83e2aaa656020604051868152a16126d9565b1694613bd6565b1561092157807f9b779b17422d0df92223018b32b4d1fa46e071723d6817e2486d003becc55f005d80f35b60405162461bcd60e51b815260206004820152601e60248201527f7369676e61747572657320766572696669636174696f6e206661696c656400006044820152606490fd5b60405162461bcd60e51b815260206004820152604c60248201527f62617463682074696d657374616d70206d75737420626520677265617465722060448201527f6f7220657175616c20746f206c617465737420636f6d6d69747465642062617460648201526b063682074696d657374616d760a41b608482015260a490fd5b60405162461bcd60e51b815260206004820152602560248201527f696e76616c69642070726576696f757320636f6d6d6974746564206261746368604482015264040d0c2e6d60db1b6064820152608490fd5b610a438135612adb565b15610ab35765ffffffffffff610a5b602488016126d9565b1642116105e25760405162461bcd60e51b815260206004820152602360248201527f62617463682074696d657374616d70206d75737420626520696e207468652070604482015262185cdd60ea1b6064820152608490fd5b60405162461bcd60e51b815260206004820152602660248201527f616c6c6f776564207072656465636573736f7220626c6f636b207761736e277460448201526508199bdd5b9960d21b6064820152608490fd5b633ee5aeb560e01b8252600482fd5b8280fd5b50346101df57806003193601126101df576040610b5b5f5160206144345f395f51905f52546002610b5360018060a01b03924290613fa1565b015416612aac565b6020825193849282845280519283918282870152018585015e828201840152601f01601f19168101030190f35b50346101df57806003193601126101df57610ba16126bb565b5060605f5160206144345f395f51905f5254604051610bbf81612386565b601682015491828252604060186017830154926020850193845201549201918252604051928352516020830152516040820152f35b50346101df57806003193601126101df576020601b5f5160206144345f395f51905f52540154604051908152f35b50346101df5760203660031901126101df57610c3c61231f565b601a5f5160206144345f395f51905f5254019060018060a01b03165f52602052602060405f2054604051908152f35b50346101df5760203660031901126101df57600435906001600160401b0382116101df576020610ca7610ca13660048601612349565b9061264f565b6040519015158152f35b50346101df57806003193601126101df575f5160206144145f395f51905f52546040516001600160a01b039091168152602090f35b50346101df57806003193601126101df575f5160206144345f395f51905f525460018101908154610d6c576002015463ffffffff1640908115610d27575580f35b60405162461bcd60e51b815260206004820152601d60248201527f756e61626c6520746f206c6f6f6b75702067656e6573697320686173680000006044820152606490fd5b60405162461bcd60e51b815260206004820152601860248201527f67656e65736973206861736820616c72656164792073657400000000000000006044820152606490fd5b50346101df57806003193601126101df575f5160206144345f395f51905f5254600601546040516001600160a01b039091168152602090f35b50346101df57806003193601126101df57610e03612463565b50604060155f5160206144345f395f51905f5254016001600160801b03825191610e2c836123b5565b548160206001600160401b038316948581520191851c168152835192835251166020820152f35b50346101df5760203660031901126101df576004356001600160401b03811161050957610e84903690600401612349565b905f5160206144345f395f51905f525490610e9e83612545565b91610eac60405193846123d0565b838352610eb884612545565b602084019490601f19013686376019869201915b818110610f2157868587604051928392602084019060208552518091526040840192915b818110610efe575050500390f35b9193509160208082610f136001948851612379565b019401910191849392610ef0565b610f2c818386612603565b3587528260205260ff604088205416610f458287612627565b6003821015610f575752600101610ecc565b634e487b7160e01b89526021600452602489fd5b50346101df57806003193601126101df57602060035f5160206144345f395f51905f52540154604051908152f35b50346101df57806003193601126101df57610fb261279d565b5f5160206144145f395f51905f5280546001600160a01b0319811690915581906001600160a01b03167f8be0079c531659141344cd1fd0a4f28419497f9722a3daafe3b4186f6b6457e08280a380f35b50346101df57806003193601126101df5761101b61279d565b5f5160206144545f395f51905f525460ff8160401c1690811561133f575b50611330575f5160206144545f395f51905f52805468ffffffffffffffffff1916680100000000000000021790555f5160206144145f395f51905f5254611093906001600160a01b031661108b613fbd565b610207613fbd565b5f5160206144345f395f51905f525460409081516110b183826123d0565b6017815260208101907f726f757465722e73746f726167652e526f75746572563200000000000000000082526110e561279d565b5190205f19810190811161131c57916020917fc7f505b2f371ae2175ee4913f4499e1f2633a7b5936321eed1cdaeb6115181d29382519084820190815284825261112f84836123d0565b60ff19915190201690815f5160206144345f395f51905f52556111506127d0565b80516001840155600283019063ffffffff868201511669ffffffffffff00000000868454930151881b169169ffffffffffffffffffff1916171790556005810160058301908082036112ce575b505061ffff600882015416600883019061ffff198254161790556112066111c44283613fa1565b6111db6001600160a01b036002610b534287613fa1565b6111f160046111ea4287613fa1565b019261247b565b906111fc42936125b0565b9160098701612818565b60158101601583019080820361127c575b505060168101601683019181830361125c575b5050505060ff60401b195f5160206144545f395f51905f5254165f5160206144545f395f51905f52555160028152a180f35b60189283925490556017810154601785015501549101555f80808061122a565b806001600160401b03806001600160801b03935416166001600160401b031984541617835554851c16600160401b600160c01b03825491861b1690600160401b600160c01b0319161790555f80611217565b5481546001600160a01b03199081166001600160a01b039283161790925560068381015490850180548416918316919091179055600780840154908501805490931691161790555f8061119d565b634e487b7160e01b84526011600452602484fd5b63f92ee8a960e01b8152600490fd5b600291506001600160401b031610155f611039565b50346101df576101603660031901126101df5761136f61231f565b6024356001600160a01b0381169190829003610b165761138d6122f3565b611395612309565b60c435916084359160a43560403660e31901126118d55761012435946001600160401b0386116118d157366023870112156118d1578560040135916001600160401b0383116118cd5736602484890101116118cd57610144356001600160401b0381116118c95761140a903690600401612349565b9690945f5160206144545f395f51905f5254996001600160401b0360ff8c60401c16159b16801590816118c1575b60011490816118b7575b1590816118ae575b5061189f5761148c908b60016001600160401b03195f5160206144545f395f51905f525416175f5160206144545f395f51905f525561186f575b61108b613fbd565b611494613fbd565b42156118195782156117c3578282111561176257600a6114b48484612499565b0484101561171d5760409a8b516114cb8d826123d0565b6017815260208101907f726f757465722e73746f726167652e526f75746572563100000000000000000082526114ff61279d565b5190205f198101908111611709578c51602080820192835281528d93929161152785836123d0565b60ff19915190201698895f5160206144345f395f51905f52556115486127d0565b805160018c015560028b0190602081015163ffffffff1686835492015160201b69ffffffffffff00000000169169ffffffffffffffffffff19161717905583519061159282612386565b8282526001600160a01b03908116602083018190529381169490910184905260058a018054919092166001600160a01b0319918216179091556006890180548216909217909155600788018054909116909117905560088601805461ffff1916611a0a179055611600612463565b50895161160c816123b5565b639502f90081526509184e72a0006020909101526015860180546001600160c01b0319166d09184e72a000000000009502f900179055895183908b9061165181612386565b8381528460208201520152601686015560178501556018840155865194611677866123b5565b60e4358652610104356020870152611693913691602401612500565b90429336906116a19261255c565b91600901936116af94612818565b6116b7575080f35b60207fc7f505b2f371ae2175ee4913f4499e1f2633a7b5936321eed1cdaeb6115181d29160ff60401b195f5160206144545f395f51905f5254165f5160206144545f395f51905f52555160018152a180f35b634e487b7160e01b8e52601160045260248efd5b60405162461bcd60e51b815260206004820152601b60248201527f76616c69646174696f6e2064656c617920697320746f6f2062696700000000006044820152606490fd5b60405162461bcd60e51b815260206004820152603360248201527f657261206475726174696f6e206d757374206265206772656174657220746861604482015272371032b632b1ba34b7b710323ab930ba34b7b760691b6064820152608490fd5b60405162461bcd60e51b815260206004820152602860248201527f656c656374696f6e206475726174696f6e206d75737420626520677265617465604482015267072207468616e20360c41b6064820152608490fd5b60405162461bcd60e51b815260206004820152602860248201527f63757272656e742074696d657374616d70206d75737420626520677265617465604482015267072207468616e20360c41b6064820152608490fd5b600160401b60ff60401b195f5160206144545f395f51905f525416175f5160206144545f395f51905f5255611484565b63f92ee8a960e01b8d5260048dfd5b9050155f61144a565b303b159150611442565b8c9150611438565b8a80fd5b8980fd5b8880fd5b8780fd5b50346101df5760203660031901126101df576118f361231f565b6118fb61279d565b5f5160206144345f395f51905f525460050180546001600160a01b0319166001600160a01b0390921691909117905580f35b50346101df57806003193601126101df57611946612463565b50604061196a6119655f5160206144345f395f51905f52544290613fa1565b61247b565b60208251918051835201516020820152f35b50346101df5760603660031901126101df576004356119996122f3565b5f5160206144345f395f51905f52546119b7600182015415156123f1565b8284526019810160205260ff6040852054166003811015611bf557600203611b995760405160208101908482526024356040820152604081526119fb6060826123d0565b51902060405160608101908082106001600160401b03831117611b9557605a916040527f3d605080600a3d3981f3608060405263e6fabc0960e01b5f5260205f6004817381523060601b6b5afa15604c575f80805136821760208201527f80378136915af43d5f803e156048573d5ff35b3d5ffd5b5f80fd000000000000604082015286f5908115611b91576001600160a01b0382165f908152601a820160205260409020849055601b018054611ab19061278f565b90556040516001600160a01b03821680825293907f8008ec1d8798725ebfa0f2d128d52e8e717dcba6e0f786557eeee70614b02bf190602090a2506001600160a01b038116611b8c5750335b5f5160206144345f395f51905f5254600501546001600160a01b0316823b15611b8857604051631c9776b560e31b81526001600160a01b039092166004830152602482015260016044820152828160648183865af18015611b7d57611b68575b602082604051908152f35b611b738380926123d0565b6105095781611b5d565b6040513d85823e3d90fd5b8380fd5b611afd565b8480fd5b8680fd5b60405162461bcd60e51b815260206004820152602e60248201527f636f6465206d7573742062652076616c696461746564206265666f726520707260448201526d37b3b930b69031b932b0ba34b7b760911b6064820152608490fd5b634e487b7160e01b85526021600452602485fd5b50346101df57806003193601126101df57602060015f5160206144345f395f51905f52540154604051908152f35b50346101df5760203660031901126101df57600435814915611d475760195f5160206144345f395f51905f5254611c73600182015415156123f1565b018183528060205260ff6040842054166003811015611d3357611cd25781835260209081526040808420805460ff19166001179055519182527f5c261a095dd5720475295dc06379921c003c22164ee6cae5cf83e76ce0a1b98591a180f35b60405162461bcd60e51b815260206004820152603360248201527f676976656e20636f646520696420697320616c7265616479206f6e2076616c6960448201527219185d1a5bdb881bdc881d985b1a59185d1959606a1b6064820152608490fd5b634e487b7160e01b84526021600452602484fd5b60405162461bcd60e51b815260206004820152604860248201527f626c6f622063616e277420626520666f756e642c20726f75746572206578706560448201527f63746564204549502d34383434207472616e73616374696f6e2077697468205760648201526720a9a690313637b160c11b608482015260a490fd5b346122ab5760803660031901126122ab57600435611ddf6122f3565b90611de8612309565b915f5160206144345f395f51905f5254611e07600182015415156123f1565b825f526019810160205260ff60405f20541660038110156122b557600203611b99576040516020810190848252602435604082015260408152611e4b6060826123d0565b5190206040516102e08101908082106001600160401b038311176122ab576102c4916040527f6080806040526102b290816100128239f3fe608060405260043610610268575f81527f3560e01c806329336f391461009b5780632a68e35d1461009657806336a52a1860208201527f14610091578063701da98e1461008c578063704ed5421461008757806391d5a660408201527f4c146100825780639ce110d71461007d578063affed0e0146100785763e43f3460608201527f330361026857610253565b610236565b61020e565b6101f8565b6101df565b6160808201527f01c2565b61019b565b610150565b346100dc5760603660031901126100dc576060a08201527f243567ffffffffffffffff81116100dc576100cc9036906004016100e0565b5060c08201527f506100d661010e565b50610268565b5f80fd5b9181601f840112156100dc578260e08201527f359167ffffffffffffffff83116100dc57602083818601950101116100dc57566101008201527f5b604435906001600160801b03821682036100dc57565b6024359060016001606101208201527f801b03821682036100dc57565b600435906001600160801b03821682036100dc6101408201527f57565b346100dc5760603660031901126100dc5760043567ffffffffffffffff6101608201527f81116100dc576101819036906004016100e0565b505061018b610124565b50606101808201527f443580151514610268575f80fd5b346100dc575f3660031901126100dc575f546101a08201527f6040516001600160a01b039091168152602090f35b346100dc575f36600319016101c08201527f126100dc576020600254604051908152f35b346100dc576020366003190112616101e08201527edc576100d661013a565b346100dc57602036600319011215610268575f80fd6102008201527f5b346100dc575f3660031901126100dc576001546040516001600160a01b03906102208201527f91168152602090f35b346100dc575f3660031901126100dc57602060035460406102408201527f51908152f35b346100dc575f36600319011215610268575f80fd5b63e6fabc09610260820152306b60e01b5f5260205f6004817360a01b176102808201527f5afa156100dc575f808051368280378136915af43d5f803e156102ae573d5ff36102a0820152635b3d5ffd60e01b6102c08201525ff59081156122ab576001600160a01b0382165f908152601a820160205260409020849055601b0180546121f09061278f565b90556040516001600160a01b03821680825293907f8008ec1d8798725ebfa0f2d128d52e8e717dcba6e0f786557eeee70614b02bf190602090a2506001600160a01b0381166122af575033915b813b156122ab57604051631c9776b560e31b81526001600160a01b039384166004820152921660248301525f604483018190528260648183855af19182156122a057602092612290575b50604051908152f35b5f61229a916123d0565b5f612287565b6040513d5f823e3d90fd5b5f80fd5b9161223d565b634e487b7160e01b5f52602160045260245ffd5b346122ab575f3660031901126122ab57602090601c5f5160206144345f395f51905f525401548152f35b604435906001600160a01b03821682036122ab57565b606435906001600160a01b03821682036122ab57565b600435906001600160a01b03821682036122ab57565b35906001600160a01b03821682036122ab57565b9181601f840112156122ab578235916001600160401b0383116122ab576020808501948460051b0101116122ab57565b9060038210156122b55752565b606081019081106001600160401b038211176123a157604052565b634e487b7160e01b5f52604160045260245ffd5b604081019081106001600160401b038211176123a157604052565b90601f801991011681019081106001600160401b038211176123a157604052565b156123f857565b60405162461bcd60e51b815260206004820152603860248201527f726f757465722067656e65736973206973207a65726f3b2063616c6c20606c6f60448201527f6f6b757047656e657369734861736828296020666972737400000000000000006064820152608490fd5b60405190612470826123b5565b5f6020838281520152565b90604051612488816123b5565b602060018294805484520154910152565b919082039182116124a657565b634e487b7160e01b5f52601160045260245ffd5b81156124c4570490565b634e487b7160e01b5f52601260045260245ffd5b91908260409103126122ab576040516124f0816123b5565b6020808294803584520135910152565b9291926001600160401b0382116123a15760405191612529601f8201601f1916602001846123d0565b8294818452818301116122ab578281602093845f960137010152565b6001600160401b0381116123a15760051b60200190565b92919061256881612545565b9361257660405195866123d0565b602085838152019160051b81019283116122ab57905b82821061259857505050565b602080916125a584612335565b81520191019061258c565b90604051918281549182825260208201905f5260205f20925f5b8181106125e15750506125df925003836123d0565b565b84546001600160a01b03168352600194850194879450602090930192016125ca565b91908110156126135760051b0190565b634e487b7160e01b5f52603260045260245ffd5b80518210156126135760209160051b010190565b356001600160a01b03811681036122ab5790565b6126685f5160206144345f395f51905f52544290613fa1565b600301905f5b83811061267e5750505050600190565b61268c6104e1828685612603565b6001600160a01b03165f9081526020849052604090205460ff16156126b35760010161266e565b505050505f90565b604051906126c882612386565b5f6040838281528260208201520152565b3565ffffffffffff811681036122ab5790565b906126f682612545565b61270360405191826123d0565b8281528092612714601f1991612545565b0190602036910137565b6001600160a01b0316801561277c575f5160206144145f395f51905f5280546001600160a01b0319811683179091556001600160a01b03167f8be0079c531659141344cd1fd0a4f28419497f9722a3daafe3b4186f6b6457e05f80a3565b631e4fbdf760e01b5f525f60045260245ffd5b5f1981146124a65760010190565b5f5160206144145f395f51905f52546001600160a01b031633036127bd57565b63118cdaa760e01b5f523360045260245ffd5b6127d86126bb565b506040516127e581612386565b5f815263ffffffff4316602082015265ffffffffffff4216604082015290565b818102929181159184041417156124a657565b9291908051906020810191825170014551231950b75fc4402da1732fc9bebe1982109182612a9b575b505015612a4757518455516001840155604051906128846021836020808201945f86528051918291018484015e81015f838201520301601f1981018452836123d0565b6128c1602b604051809360208201956a600b5981380380925939f360a81b87525180918484015e81015f838201520301601f1981018352826123d0565b51905ff06001600160a01b03811615612a0e576002830180546001600160a01b0319166001600160a01b039092169190911790555f5b600483018054821015612935575f90815260208082208301546001600160a01b0316825260038501905260409020805460ff191690556001016128f7565b5050925f5b845181101561297e576001906001600160a01b036129588288612627565b5116828060a01b03165f526003840160205260405f208260ff198254161790550161293a565b5092600482018151916001600160401b0383116123a157600160401b83116123a15781548383558084106129e8575b50602001905f5260205f205f5b8381106129cb575050505060050155565b82516001600160a01b0316818301556020909201916001016129ba565b825f528360205f2091820191015b818110612a0357506129ad565b5f81556001016129f6565b60405162461bcd60e51b81526020600482015260116024820152701111541313d65351539517d19052531151607a1b6044820152606490fd5b60405162461bcd60e51b815260206004820152602660248201527f46524f53542061676772656761746564207075626c6963206b657920697320696044820152651b9d985b1a5960d21b6064820152608490fd5b612aa5925061436e565b5f80612841565b803b905f198201908282116124a65760019060405193603e601f19910116840160405282845260208401903c90565b905f1943014381116124a657805b612af4575b505f9150565b8040838103612b0557506001925050565b15612b13575f190180612ae9565b612aee565b903590601e19813603018212156122ab57018035906001600160401b0382116122ab57602001918160051b360383136122ab57565b903590601e19813603018212156122ab57018035906001600160401b0382116122ab576020019160608202360383136122ab57565b35906001600160401b03821682036122ab57565b919060608101906001612ba98383612b18565b90501161321f57612bba8282612b18565b9050156131f85790612bcb91612b18565b1561261357803590603e19813603018212156122ab5792919201612bef8180612b18565b9290916060925f9560de198236030192601a8501955b8789101561305f578860051b840135858112156122ab578401612c278161263b565b6001600160a01b03165f908152602089905260409020541561300257608081016001600160801b03612c5882613fe8565b16612f66575b6001600160a01b03612c6f8361263b565b6040516302c649c960e01b81526020600482015293911691610104840191906001600160801b0390612cee906001600160a01b03612cac85612335565b16602488015260208401356044880152612cc8604085016132c3565b151560648801526001600160a01b03612ce360608601612335565b166084880152613ffc565b1660a485015236819003601e190160a0820135818112156122ab578201602081359101936001600160401b0382116122ab5760608202360385136122ab57819060e060c489015252610124860193905f905b808210612f1c5750505060c0820135908112156122ab5701803560208201926001600160401b0382116122ab578160051b9081360385136122ab57918694936023198685030160e487015281845260208085019385010194935f9160fe19813603015b848410612e11575050505050505091815f8160209503925af19081156122a0575f91612ddf575b50612dd7906001926132d0565b980197612c05565b90506020813d8211612e09575b81612df9602093836123d0565b810103126122ab57516001612dca565b3d9150612dec565b9193959750919395601f198482030187528735828112156122ab578301602081013582526001600160a01b03612e4960408301612335565b1660208301526060810135603e1936839003018112156122ab578101602081013591906040016001600160401b0383116122ab5782360381136122ab57829060e060408601528160e08601526101008501375f61010083850101526001600160801b03612eb860808301613ffc565b16606084015260a0810135608084015260c081013563ffffffff60e01b81168091036122ab5783602093612efa60e086956101009560a060019a0152016132c3565b151560c0830152601f8019910116010199019701940191899796959391612da3565b90919460608060019288358152838060a01b03612f3b60208b01612335565b1660208201526001600160801b03612f5560408b01613ffc565b166040820152019601920190612d40565b60068801546001600160801b03906020906001600160a01b03166044612f8b8661263b565b5f612f9587613fe8565b60405163a9059cbb60e01b81526001600160a01b0390931660048401529590951660248201529384928391905af180156122a057612fd4575b50612c5e565b612ff49060203d8111612ffb575b612fec81836123d0565b81019061331f565b505f612fce565b503d612fe2565b60405162461bcd60e51b815260206004820152602f60248201527f636f756c646e277420706572666f726d207472616e736974696f6e20666f722060448201526e756e6b6e6f776e2070726f6772616d60881b6064820152608490fd5b955095509550505050602081519101209060208101906130896130828383612b4d565b90506126ec565b935f5b6130968484612b4d565b9050811015613182576130a98484612b4d565b8210156126135760608202019060405191803590818452606060208201916001600160401b036130d884612b82565b1660208701527fd8306a982f73c7ab90175899ff21dfdf55173bc8f7838be37e55a4e6f37b9fba82604083013597886040820152a13603126122ab5783600194604061313181519461312986612386565b868652612b82565b93846020820152015260405191602083019384526001600160401b0360c01b9060c01b16604083015260488201526048815261316e6068826123d0565b51902061317b8289612627565b520161308c565b50939150506040516020810181819360208151939101925f5b8181106131df5750506131b7925003601f1981018352826123d0565b51902060405190602082019283526040820152604081526131d96060826123d0565b51902090565b845183526020948501948694509092019160010161319b565b507fc5d2460186f7233c927e7db2dcc703c0e500b653ca82273b7bfad8045d85a470925050565b60405162461bcd60e51b815260206004820152603460248201527f636861696e436f6d6d69746d656e7420636f756c6420636f6e7461696e206174604482015273081b5bdcdd081bdb994818dbdb5b5a5d1b595b9d60621b6064820152608490fd5b903590601e19813603018212156122ab57018035906001600160401b0382116122ab57602001918160061b360383136122ab57565b3580151581036122ab5790565b359081151582036122ab57565b6020806125df928195946040519682889351918291018585015e82019083820152030180855201836123d0565b903590605e19813603018212156122ab570190565b919082018092116124a657565b908160209103126122ab575180151581036122ab5790565b60a0820160016133478285612b18565b905011613717576133588184612b18565b9050156136f0576133699083612b18565b1561261357803590607e19813603018212156122ab570191606083019065ffffffffffff613396836126d9565b161561369f5765ffffffffffff806133b960206133b2866126d9565b94016126d9565b1691161015613640576007820154600690920180548435946001600160a01b0394851694604082019391925f91602091166044613402836133fa89896132fd565b01358b613312565b604051948593849263095ea7b360e01b84528c600485015260248401525af180156122a057613623575b505460405163394f179b60e11b81526001600160a01b03909116600482015260248101959095526020818101356044870152856064815f885af19485156122a0575f956135eb575b509061347f916132fd565b91613489826126d9565b9260405193637fbe95b560e01b85526040600486015260a48501918035601e19823603018112156122ab578101602081359101936001600160401b0382116122ab578160061b360385136122ab5760606044890152819052869360c485019392915f5b8181106135b357505050836020959365ffffffffffff829484895f9601356064860152613522604060018060a01b039201612335565b16608485015216602483015203925af19182156122a0575f9261357d575b5061354a906126d9565b6040519160208301938452604083015265ffffffffffff60d01b9060d01b166060820152604681526131d96066826123d0565b9091506020813d6020116135ab575b81613599602093836123d0565b810103126122ab57519061354a613540565b3d915061358c565b919550919293604080600192838060a01b036135ce8a612335565b1681526020890135602082015201960191019188959493926134ec565b919094506020823d60201161361b575b81613608602093836123d0565b810103126122ab5790519361347f613474565b3d91506135fb565b61363b9060203d602011612ffb57612fec81836123d0565b61342c565b60405162461bcd60e51b815260206004820152603160248201527f7265776172647320636f6d6d69746d656e742074696d657374616d70206d75736044820152701d08189948199bdc881d1a19481c185cdd607a1b6064820152608490fd5b60405162461bcd60e51b8152602060048201526024808201527f7265776172647320636f6d6d69746d656e742074696d657374616d70206973206044820152637a65726f60e01b6064820152608490fd5b5050507fc5d2460186f7233c927e7db2dcc703c0e500b653ca82273b7bfad8045d85a47090565b608460405162461bcd60e51b815260206004820152604060248201527f7265776172647320636f6d6d69746d656e74206d75737420626520656d70747960448201527f206f7220636f6e7461696e73206f6e6c79206f6e6520636f6d6d69746d656e746064820152fd5b903590601e19813603018212156122ab57018035906001600160401b0382116122ab576020019181360383136122ab57565b9060c0810160016137c48284612b18565b905011613b5f576137d58183612b18565b9050156136f0576137e591612b18565b1561261357803590609e19813603018212156122ab5701606081019061380b8282612b18565b905015613b0c5765ffffffffffff600284015460201c169161382d8342612499565b61383c601686015480926124ba565b93608084013594600181018091116124a6578503613ab4576138618561386793612805565b90613312565b93613876601782015486612499565b4210613a6f5761388590614010565b934260058601541015613a0f576020816139007f41e7f919bf726af8aa2ef36bd31905a693013e30c45c6284060e613d4941997b936138d4986138ea6138f26138fa8a604081019d8e82613781565b93906138e08d84612b18565b96909336906124d8565b943691612500565b93369161255c565b92612818565b604051908152a160a0823603126122ab5760405193608085018581106001600160401b038211176123a15760405261393836846124d8565b8552356001600160401b0381116122ab57820136601f820112156122ab57613967903690602081359101612500565b602085015235906001600160401b0382116122ab570136601f820112156122ab5761399990369060208135910161255c565b91826040820152816060820152519160208351930151906040519283926020840195865260408401526060830160208351919301905f5b8181106139ed575050508152038082526131d990602001826123d0565b82516001600160a01b03168552869550602094850194909201916001016139d0565b60405162461bcd60e51b815260206004820152603260248201527f6c6f6f6b73206c696b652076616c696461746f727320666f72206e65787420656044820152711c9848185c9948185b1c9958591e481cd95d60721b6064820152608490fd5b60405162461bcd60e51b815260206004820152601b60248201527f656c656374696f6e206973206e6f7420796574207374617274656400000000006044820152606490fd5b60405162461bcd60e51b815260206004820152602a60248201527f636f6d6d69746d656e742065726120696e646578206973206e6f74206e657874604482015269040cae4c240d2dcc8caf60b31b6064820152608490fd5b60405162461bcd60e51b815260206004820152602560248201527f6e65772076616c696461746f7273206c697374206d757374206e6f7420626520604482015264656d70747960d81b6064820152608490fd5b60405162461bcd60e51b815260206004820152604360248201527f76616c696461746f727320636f6d6d69746d656e74206d75737420626520656d60448201527f707479206f7220636f6e7461696e73206f6e6c79206f6e6520636f6d6d69746d606482015262195b9d60ea1b608482015260a490fd5b909493919365ffffffffffff600283015460201c16613c0c613c17613c11613bfe8442612499565b6016870154938480926124ba565b612805565b83613312565b918284108080613f69575b15613ef757508310613eb257613c389083613312565b10613e6157613c48905b82613fa1565b94601960f81b5f523060601b60025260165260365f209360028110156122b55780613d5857505060018103613d13571561261357613c8981613c9092613781565b3691612500565b916060835103613cbe57826020613cbb9401516060604083015192015192600181549101549061402b565b90565b60405162461bcd60e51b815260206004820152602760248201527f46524f5354207369676e6174757265206c656e677468206d75737420626520396044820152663620627974657360c81b6064820152608490fd5b60405162461bcd60e51b815260206004820152601e60248201527f46524f5354207369676e6174757265206d7573742062652073696e676c6500006044820152606490fd5b919391600114613d6b5750505050505f90565b613d859061ffff6008600488979801549201541690613f7f565b925f9260035f9201915b86811015613e5657613dbe613db5613daf613c898460051b860186613781565b866142d4565b9092919261430e565b6001600160a01b0381165f9081526020859052604090205460ff16613de9575b506001905b01613d8f565b6001600160a01b03165f9081527ff02b465737fa6045c2ff53fb2df43c66916ac2166fa303264668fb2f6a1d8c0060205260409020805c15613e2e5750600190613de3565b946001613e3c92965d61278f565b93858514613e4a575f613dde565b50505050505050600190565b505050505050505f90565b60405162461bcd60e51b8152602060048201526024808201527f74696d657374616d70206973206f6c646572207468616e2070726576696f75736044820152632065726160e01b6064820152608490fd5b60405162461bcd60e51b815260206004820152601e60248201527f63616e6e6f742076616c6964617465206265666f72652067656e6573697300006044820152606490fd5b9392915050428211613f1a57613c4892613f12575b50613c42565b90505f613f0c565b60405162461bcd60e51b815260206004820152602160248201527f74696d657374616d702063616e6e6f7420626520696e207468652066757475726044820152606560f81b6064820152608490fd5b50613f78601887015485613312565b4210613c22565b61ffff613f8d921690612805565b61270f81018091116124a657612710900490565b90613fac90826141eb565b15613fb757600f0190565b60090190565b60ff5f5160206144545f395f51905f525460401c1615613fd957565b631afcd79f60e31b5f5260045ffd5b356001600160801b03811681036122ab5790565b35906001600160801b03821682036122ab57565b61401a42826141eb565b156140255760090190565b600f0190565b929391949061403a858761436e565b156141e15782156141e15770014551231950b75fc4402da1732fc9bebe198310156141e1576001169061010e6040519161012083018381106001600160401b038211176122ab5760405260883684376002600188160160888401538760898401526002840160a984015360aa830186905260ca8301527e300046524f53542d736563703235366b312d4b454343414b3235362d76316360ea8301526303430b6160e51b61010a830152812060cc820181815290600260ec84016001815360428420809318845253604270014551231950b75fc4402da1732fc9bebe19922060801c6001600160401b0360801b8260801b16179070014551231950b75fc4402da1732fc9bebe1990600160c01b9060401c09088015613e565784601b6080945f9660209870014551231950b75fc4402da1732fc9bebe19910970014551231950b75fc4402da1732fc9bebe19038552018684015280604084015270014551231950b75fc4402da1732fc9bebe19910970014551231950b75fc4402da1732fc9bebe1903606082015282805260015afa505f51915f5260205260018060a01b0360405f20161490565b5050505050505f90565b906014600e83015492015480831461429057818184109311918215911115918190614289575b15614226578261422057505090565b14919050565b60405162461bcd60e51b815260206004820152603560248201527f636f756c64206e6f74206964656e746966792076616c696461746f727320666f6044820152740722074686520676976656e2074696d657374616d7605c1b6064820152608490fd5b5081614211565b606460405162461bcd60e51b815260206004820152602060248201527f657261732074696d657374616d70206d757374206e6f7420626520657175616c6044820152fd5b8151919060418303614304576142fd9250602082015190606060408401519301515f1a90614391565b9192909190565b50505f9160029190565b60048110156122b55780614320575050565b600181036143375763f645eedf60e01b5f5260045ffd5b60028103614352575063fce698f760e01b5f5260045260245ffd5b60031461435c5750565b6335e2f38360e21b5f5260045260245ffd5b6401000003d01990600790829081818009900908906401000003d0199080091490565b91907f7fffffffffffffffffffffffffffffff5d576e7357a4501ddfe92f46681b20a08411614408579160209360809260ff5f9560405194855216868401526040830152606082015282805260015afa156122a0575f516001600160a01b038116156143fe57905f905f90565b505f906001905f90565b5050505f916003919056fe9016d09d72d40fdae2fd8ceac6b6234c7706214fd39c1cd1e609a0528c1993005c09ca1b9b8127a4fd9f3c384aac59b661441e820e17733753ff5f2e86e1e000f0c57e16840df040f15088dc2f81fe391c3923bec73e23a9662efc9c229c6a00f0c57e16840df040f15088dc2f81fe391c3923bec73e23a9662efc9c229c6a00","linkReferences":{}},"methodIdentifiers":{"areValidators(address[])":"8f381dbe","codeState(bytes32)":"c13911e8","codesStates(bytes32[])":"82bdeaad","commitBatch((bytes32,uint48,bytes32,((address,bytes32,bool,address,uint128,(bytes32,address,uint128)[],(bytes32,address,bytes,uint128,(bytes32,bytes4),bool)[])[],(bytes32,uint64,bytes32)[])[],(bytes32,bool)[],((uint256,bytes32),((address,uint256)[],uint256,address),uint48)[],((uint256,uint256),bytes,address[],uint256)[]),uint8,bytes[])":"aa28e0f2","computeSettings()":"84d22a4f","createProgram(bytes32,bytes32,address)":"3683c4d2","createProgramWithAbiInterface(bytes32,bytes32,address,address)":"0c18d277","genesisBlockHash()":"28e24b3d","genesisTimestamp()":"cacf66ab","initialize(address,address,address,address,uint256,uint256,uint256,(uint256,uint256),bytes,address[])":"53f7fd48","isValidator(address)":"facd743b","latestCommittedBatchHash()":"71a8cf2d","latestCommittedBatchTimestamp()":"d456fd51","lookupGenesisHash()":"8b1edf1e","mirrorImpl()":"e6fabc09","owner()":"8da5cb5b","programCodeId(address)":"9067088e","programsCodeIds(address[])":"baaf0201","programsCount()":"96a2ddfa","reinitialize()":"6c2eb350","renounceOwnership()":"715018a6","requestCodeValidation(bytes32)":"120e3f1e","setMirror(address)":"3d43b418","signingThresholdPercentage()":"efd81abc","timelines()":"9eb939a8","transferOwnership(address)":"f2fde38b","validatedCodesCount()":"007a32e7","validators()":"ca1e7819","validatorsAggregatedPublicKey()":"3bd109fa","validatorsCount()":"ed612f8c","validatorsThreshold()":"edc87225","validatorsVerifiableSecretSharingCommitment()":"a5d53a44","wrappedVara()":"88f50cf0"},"storageLayout":{"storage":[],"types":{}},"id":165}