{"abi":[{"type":"constructor","inputs":[],"stateMutability":"nonpayable"},{"type":"function","name":"areValidators","inputs":[{"name":"_validators","type":"address[]","internalType":"address[]"}],"outputs":[{"name":"","type":"bool","internalType":"bool"}],"stateMutability":"view"},{"type":"function","name":"codeState","inputs":[{"name":"_codeId","type":"bytes32","internalType":"bytes32"}],"outputs":[{"name":"","type":"uint8","internalType":"enum Gear.CodeState"}],"stateMutability":"view"},{"type":"function","name":"codesStates","inputs":[{"name":"_codesIds","type":"bytes32[]","internalType":"bytes32[]"}],"outputs":[{"name":"","type":"uint8[]","internalType":"enum Gear.CodeState[]"}],"stateMutability":"view"},{"type":"function","name":"commitBlocks","inputs":[{"name":"_blockCommitments","type":"tuple[]","internalType":"struct Gear.BlockCommitment[]","components":[{"name":"hash","type":"bytes32","internalType":"bytes32"},{"name":"timestamp","type":"uint48","internalType":"uint48"},{"name":"previousCommittedBlock","type":"bytes32","internalType":"bytes32"},{"name":"predecessorBlock","type":"bytes32","internalType":"bytes32"},{"name":"transitions","type":"tuple[]","internalType":"struct Gear.StateTransition[]","components":[{"name":"actorId","type":"address","internalType":"address"},{"name":"newStateHash","type":"bytes32","internalType":"bytes32"},{"name":"inheritor","type":"address","internalType":"address"},{"name":"valueToReceive","type":"uint128","internalType":"uint128"},{"name":"valueClaims","type":"tuple[]","internalType":"struct Gear.ValueClaim[]","components":[{"name":"messageId","type":"bytes32","internalType":"bytes32"},{"name":"destination","type":"address","internalType":"address"},{"name":"value","type":"uint128","internalType":"uint128"}]},{"name":"messages","type":"tuple[]","internalType":"struct Gear.Message[]","components":[{"name":"id","type":"bytes32","internalType":"bytes32"},{"name":"destination","type":"address","internalType":"address"},{"name":"payload","type":"bytes","internalType":"bytes"},{"name":"value","type":"uint128","internalType":"uint128"},{"name":"replyDetails","type":"tuple","internalType":"struct Gear.ReplyDetails","components":[{"name":"to","type":"bytes32","internalType":"bytes32"},{"name":"code","type":"bytes4","internalType":"bytes4"}]}]}]}]},{"name":"_signatures","type":"bytes[]","internalType":"bytes[]"}],"outputs":[],"stateMutability":"nonpayable"},{"type":"function","name":"commitCodes","inputs":[{"name":"_codeCommitments","type":"tuple[]","internalType":"struct Gear.CodeCommitment[]","components":[{"name":"id","type":"bytes32","internalType":"bytes32"},{"name":"valid","type":"bool","internalType":"bool"}]},{"name":"_signatures","type":"bytes[]","internalType":"bytes[]"}],"outputs":[],"stateMutability":"nonpayable"},{"type":"function","name":"commitValidators","inputs":[{"name":"commitment","type":"tuple","internalType":"struct Gear.ValidatorsCommitment","components":[{"name":"validators","type":"address[]","internalType":"address[]"},{"name":"eraIndex","type":"uint256","internalType":"uint256"}]},{"name":"signatures","type":"bytes[]","internalType":"bytes[]"}],"outputs":[],"stateMutability":"nonpayable"},{"type":"function","name":"computeSettings","inputs":[],"outputs":[{"name":"","type":"tuple","internalType":"struct Gear.ComputationSettings","components":[{"name":"threshold","type":"uint64","internalType":"uint64"},{"name":"wvaraPerSecond","type":"uint128","internalType":"uint128"}]}],"stateMutability":"view"},{"type":"function","name":"createProgram","inputs":[{"name":"_codeId","type":"bytes32","internalType":"bytes32"},{"name":"_salt","type":"bytes32","internalType":"bytes32"}],"outputs":[{"name":"","type":"address","internalType":"address"}],"stateMutability":"nonpayable"},{"type":"function","name":"createProgramWithDecoder","inputs":[{"name":"_decoderImpl","type":"address","internalType":"address"},{"name":"_codeId","type":"bytes32","internalType":"bytes32"},{"name":"_salt","type":"bytes32","internalType":"bytes32"}],"outputs":[{"name":"","type":"address","internalType":"address"}],"stateMutability":"nonpayable"},{"type":"function","name":"genesisBlockHash","inputs":[],"outputs":[{"name":"","type":"bytes32","internalType":"bytes32"}],"stateMutability":"view"},{"type":"function","name":"genesisTimestamp","inputs":[],"outputs":[{"name":"","type":"uint48","internalType":"uint48"}],"stateMutability":"view"},{"type":"function","name":"initialize","inputs":[{"name":"_owner","type":"address","internalType":"address"},{"name":"_mirror","type":"address","internalType":"address"},{"name":"_mirrorProxy","type":"address","internalType":"address"},{"name":"_wrappedVara","type":"address","internalType":"address"},{"name":"_eraDuration","type":"uint256","internalType":"uint256"},{"name":"_electionDuration","type":"uint256","internalType":"uint256"},{"name":"_validators","type":"address[]","internalType":"address[]"}],"outputs":[],"stateMutability":"nonpayable"},{"type":"function","name":"isValidator","inputs":[{"name":"_validator","type":"address","internalType":"address"}],"outputs":[{"name":"","type":"bool","internalType":"bool"}],"stateMutability":"view"},{"type":"function","name":"latestCommittedBlockHash","inputs":[],"outputs":[{"name":"","type":"bytes32","internalType":"bytes32"}],"stateMutability":"view"},{"type":"function","name":"lookupGenesisHash","inputs":[],"outputs":[],"stateMutability":"nonpayable"},{"type":"function","name":"mirrorImpl","inputs":[],"outputs":[{"name":"","type":"address","internalType":"address"}],"stateMutability":"view"},{"type":"function","name":"mirrorProxyImpl","inputs":[],"outputs":[{"name":"","type":"address","internalType":"address"}],"stateMutability":"view"},{"type":"function","name":"owner","inputs":[],"outputs":[{"name":"","type":"address","internalType":"address"}],"stateMutability":"view"},{"type":"function","name":"programCodeId","inputs":[{"name":"_programId","type":"address","internalType":"address"}],"outputs":[{"name":"","type":"bytes32","internalType":"bytes32"}],"stateMutability":"view"},{"type":"function","name":"programsCodeIds","inputs":[{"name":"_programsIds","type":"address[]","internalType":"address[]"}],"outputs":[{"name":"","type":"bytes32[]","internalType":"bytes32[]"}],"stateMutability":"view"},{"type":"function","name":"programsCount","inputs":[],"outputs":[{"name":"","type":"uint256","internalType":"uint256"}],"stateMutability":"view"},{"type":"function","name":"reinitialize","inputs":[],"outputs":[],"stateMutability":"nonpayable"},{"type":"function","name":"renounceOwnership","inputs":[],"outputs":[],"stateMutability":"nonpayable"},{"type":"function","name":"requestCodeValidation","inputs":[{"name":"_codeId","type":"bytes32","internalType":"bytes32"},{"name":"_blobTxHash","type":"bytes32","internalType":"bytes32"}],"outputs":[],"stateMutability":"nonpayable"},{"type":"function","name":"setMirror","inputs":[{"name":"newMirror","type":"address","internalType":"address"}],"outputs":[],"stateMutability":"nonpayable"},{"type":"function","name":"signingThresholdPercentage","inputs":[],"outputs":[{"name":"","type":"uint16","internalType":"uint16"}],"stateMutability":"view"},{"type":"function","name":"transferOwnership","inputs":[{"name":"newOwner","type":"address","internalType":"address"}],"outputs":[],"stateMutability":"nonpayable"},{"type":"function","name":"validatedCodesCount","inputs":[],"outputs":[{"name":"","type":"uint256","internalType":"uint256"}],"stateMutability":"view"},{"type":"function","name":"validators","inputs":[],"outputs":[{"name":"","type":"address[]","internalType":"address[]"}],"stateMutability":"view"},{"type":"function","name":"validatorsCount","inputs":[],"outputs":[{"name":"","type":"uint256","internalType":"uint256"}],"stateMutability":"view"},{"type":"function","name":"validatorsThreshold","inputs":[],"outputs":[{"name":"","type":"uint256","internalType":"uint256"}],"stateMutability":"view"},{"type":"function","name":"wrappedVara","inputs":[],"outputs":[{"name":"","type":"address","internalType":"address"}],"stateMutability":"view"},{"type":"event","name":"BlockCommitted","inputs":[{"name":"hash","type":"bytes32","indexed":false,"internalType":"bytes32"}],"anonymous":false},{"type":"event","name":"CodeGotValidated","inputs":[{"name":"codeId","type":"bytes32","indexed":false,"internalType":"bytes32"},{"name":"valid","type":"bool","indexed":true,"internalType":"bool"}],"anonymous":false},{"type":"event","name":"CodeValidationRequested","inputs":[{"name":"codeId","type":"bytes32","indexed":false,"internalType":"bytes32"},{"name":"blobTxHash","type":"bytes32","indexed":false,"internalType":"bytes32"}],"anonymous":false},{"type":"event","name":"ComputationSettingsChanged","inputs":[{"name":"threshold","type":"uint64","indexed":false,"internalType":"uint64"},{"name":"wvaraPerSecond","type":"uint128","indexed":false,"internalType":"uint128"}],"anonymous":false},{"type":"event","name":"Initialized","inputs":[{"name":"version","type":"uint64","indexed":false,"internalType":"uint64"}],"anonymous":false},{"type":"event","name":"NextEraValidatorsSet","inputs":[{"name":"startTimestamp","type":"uint256","indexed":false,"internalType":"uint256"}],"anonymous":false},{"type":"event","name":"OwnershipTransferred","inputs":[{"name":"previousOwner","type":"address","indexed":true,"internalType":"address"},{"name":"newOwner","type":"address","indexed":true,"internalType":"address"}],"anonymous":false},{"type":"event","name":"ProgramCreated","inputs":[{"name":"actorId","type":"address","indexed":false,"internalType":"address"},{"name":"codeId","type":"bytes32","indexed":true,"internalType":"bytes32"}],"anonymous":false},{"type":"event","name":"StorageSlotChanged","inputs":[],"anonymous":false},{"type":"event","name":"ValidatorsChanged","inputs":[],"anonymous":false},{"type":"error","name":"ECDSAInvalidSignature","inputs":[]},{"type":"error","name":"ECDSAInvalidSignatureLength","inputs":[{"name":"length","type":"uint256","internalType":"uint256"}]},{"type":"error","name":"ECDSAInvalidSignatureS","inputs":[{"name":"s","type":"bytes32","internalType":"bytes32"}]},{"type":"error","name":"FailedDeployment","inputs":[]},{"type":"error","name":"InsufficientBalance","inputs":[{"name":"balance","type":"uint256","internalType":"uint256"},{"name":"needed","type":"uint256","internalType":"uint256"}]},{"type":"error","name":"InvalidInitialization","inputs":[]},{"type":"error","name":"NotInitializing","inputs":[]},{"type":"error","name":"OwnableInvalidOwner","inputs":[{"name":"owner","type":"address","internalType":"address"}]},{"type":"error","name":"OwnableUnauthorizedAccount","inputs":[{"name":"account","type":"address","internalType":"address"}]},{"type":"error","name":"ReentrancyGuardReentrantCall","inputs":[]}],"bytecode":{"object":"0x6080806040523460aa575f516020612e635f395f51905f525460ff8160401c16609b576002600160401b03196001600160401b038216016049575b604051612db490816100af8239f35b6001600160401b0319166001600160401b039081175f516020612e635f395f51905f525581527fc7f505b2f371ae2175ee4913f4499e1f2633a7b5936321eed1cdaeb6115181d290602090a15f80603a565b63f92ee8a960e01b5f5260045ffd5b5f80fdfe6080806040526004361015610012575f80fd5b5f905f3560e01c9081627a32e7146120e65750806301b1d156146119a85780631c149d8a1461184f57806328e24b3d146118255780633d43b418146117d3578063527de0f91461175157806365ecfea2146117185780636c2eb35014611464578063715018a6146113fb57806382bdeaad146112e357806384d22a4f1461127a57806388f50cf0146112415780638b1edf1e1461117a5780638da5cb5b146111455780638f381dbe146110ff5780639067088e146110b657806396a2ddfa14611088578063aaf0fe6a14610d13578063b1669a3314610865578063baaf020114610768578063c13911e814610724578063c9f16a11146106f6578063ca1e781914610675578063cacf66ab1461063d578063e6fabc0914610604578063e7006a74146104e3578063e97d3eb3146102b0578063ed612f8c1461027a578063edc8722514610231578063efd81abc146101ff578063f2fde38b146101d25763facd743b1461017d575f80fd5b346101cf5760203660031901126101cf57610196612156565b6101ad5f516020612d3f5f395f51905f52546128e1565b9060018060a01b03165f52602052602060ff60405f2054166040519015158152f35b80fd5b50346101cf5760203660031901126101cf576101fc6101ef612156565b6101f7612735565b612557565b80f35b50346101cf57806003193601126101cf57602061ffff60075f516020612d3f5f395f51905f5254015416604051908152f35b50346101cf57806003193601126101cf5760206102725f516020612d3f5f395f51905f525461ffff60076001610266846128e1565b01549201541690612afb565b604051908152f35b50346101cf57806003193601126101cf57602060016102a65f516020612d3f5f395f51905f52546128e1565b0154604051908152f35b50346101cf5760403660031901126101cf57600435906001600160401b0382116101cf57366023830112156101cf578160040135916001600160401b0383116104df573660248460061b830101116104df576024356001600160401b0381116104db579061032384923690600401612110565b935f516020612d3f5f395f51905f5254926103408454151561218d565b6060958293600f8601975b878610156104be578560061b84016024810135918287528a60205260ff60408820541660038110156104aa57600103610447576001926103fa604461042794016103948161253c565b1561042f57828a528d60205260408a20600260ff1982541617905560128c016103bd8154612549565b90555b6103c98161253c565b15157f460119a8f69a33ed127de517d5ea464e958ce23ef19e4420a8b92bf780bbc2c96020604051868152a261253c565b6040519060208201928352151560f81b60408201526021815261041e604182612249565b5190209061226a565b95019461034b565b828a528d60205260408a2060ff1981541690556103c0565b60405162461bcd60e51b815260206004820152603560248201527f636f6465206d7573742062652072657175657374656420666f722076616c6964604482015274185d1a5bdb881d1bc818994818dbdb5b5a5d1d1959605a1b6064820152608490fd5b634e487b7160e01b88526021600452602488fd5b84926101fc92886104d69360208151910120906125db565b612299565b8280fd5b5080fd5b50346101cf5760603660031901126101cf576104fd612156565b60243590610545604435916105128385612768565b936040519360208501918252604085015260408452610532606085612249565b92519092206001600160a01b0392612c39565b16803b156104db5760405163189acdbd60e31b81526001600160a01b0390921660048301819052918390818160248183875af180156105f9576105e4575b5050813b156104db576040519063485cc95560e01b82523360048301526024820152828160448183865af180156105d9576105c4575b602082604051908152f35b6105cf838092612249565b6104df57816105b9565b6040513d85823e3d90fd5b816105ee91612249565b6104db57825f610583565b6040513d84823e3d90fd5b50346101cf57806003193601126101cf575f516020612d3f5f395f51905f5254600401546040516001600160a01b039091168152602090f35b50346101cf57806003193601126101cf57602065ffffffffffff60015f516020612d3f5f395f51905f52540154821c16604051908152f35b50346101cf57806003193601126101cf576106a860016106a25f516020612d3f5f395f51905f52546128e1565b016122e5565b90604051918291602083016020845282518091526020604085019301915b8181106106d4575050500390f35b82516001600160a01b03168452859450602093840193909201916001016106c6565b50346101cf57806003193601126101cf57602060025f516020612d3f5f395f51905f52540154604051908152f35b50346101cf5760203660031901126101cf5760ff6040602092600f5f516020612d3f5f395f51905f525401600435825284522054166107666040518092612180565bf35b50346101cf5760203660031901126101cf576004356001600160401b0381116104df57610799903690600401612110565b905f516020612d3f5f395f51905f5254906107b383612336565b916107c16040519384612249565b8383526107cd84612336565b602084019490601f19013686376010869201915b81811061082c57868587604051928392602084019060208552518091526040840192915b818110610813575050500390f35b8251845285945060209384019390920191600101610805565b8061084261083d600193858861234d565b61239d565b828060a01b03165f528360205260405f205461085e8288612371565b52016107e1565b50346101cf5760e03660031901126101cf5761087f612156565b6024356001600160a01b03811691908290036104db576044356001600160a01b0381169290839003610d0f576064356001600160a01b0381169190829003610d0b576084359160a43560c4356001600160401b038111610d07576108e7903690600401612110565b9490925f516020612d5f5f395f51905f52549660ff8860401c1615976001600160401b03811680159081610cff575b6001149081610cf5575b159081610cec575b50610cdd5767ffffffffffffffff1981166001175f516020612d5f5f395f51905f5255610967919089610cb1575b5061095f612b74565b6101f7612b74565b4215610c5b578215610c055782821115610ba457604097885161098a8a82612249565b6017815260208101907f726f757465722e73746f726167652e526f75746572563100000000000000000082526109be612735565b5190205f198101908111610b905792610b3697969592600895928b610b2f966109f4825192602084019283526020845283612249565b60ff19915190201697885f516020612d3f5f395f51905f52558c610a1661289c565b80518b5560018b019169ffffffffffff0000000063ffffffff60208401511691845493015160201b169169ffffffffffffffffffff191617179055828d8051610a5e8161222e565b8381526020810185905201526004890180546001600160a01b03199081166001600160a01b039384161790915560058a018054821693831693909317909255600689018054909216921691909117905560078601805461ffff1916611a0a179055610ac7612385565b506509184e72a00060208b51610adc816121ff565b639502f90081520152600e860180546001600160c01b0319166d09184e72a000000000009502f90017905589518290602090610b17816121ff565b838152015260138601556014850155429436916124b3565b91016128fb565b610b3e575080f35b60207fc7f505b2f371ae2175ee4913f4499e1f2633a7b5936321eed1cdaeb6115181d29160ff60401b195f516020612d5f5f395f51905f5254165f516020612d5f5f395f51905f52555160018152a180f35b634e487b7160e01b8b52601160045260248bfd5b60405162461bcd60e51b815260206004820152603360248201527f657261206475726174696f6e206d757374206265206772656174657220746861604482015272371032b632b1ba34b7b710323ab930ba34b7b760691b6064820152608490fd5b60405162461bcd60e51b815260206004820152602860248201527f656c656374696f6e206475726174696f6e206d75737420626520677265617465604482015267072207468616e20360c41b6064820152608490fd5b60405162461bcd60e51b815260206004820152602860248201527f63757272656e742074696d657374616d70206d75737420626520677265617465604482015267072207468616e20360c41b6064820152608490fd5b68ffffffffffffffffff191668010000000000000001175f516020612d5f5f395f51905f52555f610956565b63f92ee8a960e01b8b5260048bfd5b9050155f610928565b303b159150610920565b8a9150610916565b8780fd5b8480fd5b8380fd5b50346101cf5760403660031901126101cf57600435906001600160401b0382116101cf5781600401604060031984360301126104df576024356001600160401b0381116104db57610d68903690600401612110565b5f516020612d3f5f395f51905f52929192549165ffffffffffff600184015460201c1691610d968342612418565b9460138501549586156110745786900495602489013596600181018091116110605787036110085786610dc891612439565b8401809411610ff457610ddf601486015485612418565b4210610faf57610dee85612a14565b958615610f9b57610e0442600a8801541061244c565b60405198610e118a6121ff565b8435906001600160401b038211610f97570136602382011215610f93576020610e45839236906024600482013591016124b3565b9a8b8152015260405160208101918260208c51919c01908b5b818110610f745750505090610e846020828d610ea9989796958152038084520182612249565b5190206040516020810191825260208152610ea0604082612249565b519020866125db565b15610f1457816020937f507193860c08096ec81d58cae2deaaec35bed786c94e8719942bc9792efa9029955f14610efd576008610b2f610eec85610ef396612507565b36916124b3565b604051908152a180f35b600b610b2f610eec85610f0f96612507565b610ef3565b60405162461bcd60e51b815260206004820152603260248201527f6e657874206572612076616c696461746f7273207369676e6174757265732076604482015271195c9a599a58d85d1a5bdb8819985a5b195960721b6064820152608490fd5b82516001600160a01b03168e5260209d8e019d90920191600101610e5e565b8880fd5b8980fd5b610faa42600d8801541061244c565b610e04565b60405162461bcd60e51b815260206004820152601b60248201527f656c656374696f6e206973206e6f7420796574207374617274656400000000006044820152606490fd5b634e487b7160e01b87526011600452602487fd5b60405162461bcd60e51b815260206004820152602a60248201527f636f6d6d69746d656e742065726120696e646578206973206e6f74206e657874604482015269040cae4c240d2dcc8caf60b31b6064820152608490fd5b634e487b7160e01b89526011600452602489fd5b634e487b7160e01b88526012600452602488fd5b50346101cf57806003193601126101cf57602060115f516020612d3f5f395f51905f52540154604051908152f35b50346101cf5760203660031901126101cf576110d0612156565b60105f516020612d3f5f395f51905f5254019060018060a01b03165f52602052602060405f2054604051908152f35b50346101cf5760203660031901126101cf57600435906001600160401b0382116101cf57602061113b6111353660048601612110565b906123b1565b6040519015158152f35b50346101cf57806003193601126101cf575f516020612d1f5f395f51905f52546040516001600160a01b039091168152602090f35b50346101cf57806003193601126101cf575f516020612d3f5f395f51905f525480546111fc5763ffffffff600182015416409081156111b7575580f35b60405162461bcd60e51b815260206004820152601d60248201527f756e61626c6520746f206c6f6f6b75702067656e6573697320686173680000006044820152606490fd5b60405162461bcd60e51b815260206004820152601860248201527f67656e65736973206861736820616c72656164792073657400000000000000006044820152606490fd5b50346101cf57806003193601126101cf575f516020612d3f5f395f51905f5254600601546040516001600160a01b039091168152602090f35b50346101cf57806003193601126101cf57611293612385565b506040600e5f516020612d3f5f395f51905f5254016001600160801b038251916112bc836121ff565b548160206001600160401b038316948581520191851c168152835192835251166020820152f35b50346101cf5760203660031901126101cf576004356001600160401b0381116104df57611314903690600401612110565b905f516020612d3f5f395f51905f52549061132e83612336565b9161133c6040519384612249565b83835261134884612336565b602084019490601f1901368637600f869201915b8181106113b157868587604051928392602084019060208552518091526040840192915b81811061138e575050500390f35b91935091602080826113a36001948851612180565b019401910191849392611380565b6113bc81838661234d565b3587528260205260ff6040882054166113d58287612371565b60038210156113e7575260010161135c565b634e487b7160e01b89526021600452602489fd5b50346101cf57806003193601126101cf57611414612735565b5f516020612d1f5f395f51905f5280546001600160a01b0319811690915581906001600160a01b03167f8be0079c531659141344cd1fd0a4f28419497f9722a3daafe3b4186f6b6457e08280a380f35b50346101cf57806003193601126101cf5761147d612735565b5f516020612d5f5f395f51905f525460ff8160401c168015611704575b6116f557680100000000000000029068ffffffffffffffffff1916175f516020612d5f5f395f51905f52555f516020612d3f5f395f51905f525460409081516114e38382612249565b6017815260208101907f726f757465722e73746f726167652e526f7574657256320000000000000000008252611517612735565b5190205f1981019081116116e1579161161360209260016116057fc7f505b2f371ae2175ee4913f4499e1f2633a7b5936321eed1cdaeb6115181d2968551908782019081528782526115698783612249565b60ff19915190201692835f516020612d3f5f395f51905f525561158a61289c565b805185558385019063ffffffff898201511669ffffffffffff000000008984549301518b1b169169ffffffffffffffffffff19161717905561ffff600782015416600785019061ffff19825416179055600e8101600e85019080820361168f575b5050600481016004850190808203611641575b50506128e1565b01906008610b2f42936122e5565b60ff60401b195f516020612d5f5f395f51905f5254165f516020612d5f5f395f51905f52555160028152a180f35b5481546001600160a01b031990811660a087901b8790039283161790925560058381015490870180548416918316919091179055600680840154908701805490931691161790555f806115fe565b806001600160401b03806001600160801b03935416166001600160401b031984541617835554881c16600160401b600160c01b03825491891b1690600160401b600160c01b0319161790555f806115eb565b634e487b7160e01b84526011600452602484fd5b63f92ee8a960e01b8252600482fd5b5060026001600160401b038216101561149a565b50346101cf57806003193601126101cf575f516020612d3f5f395f51905f5254600501546040516001600160a01b039091168152602090f35b346117cf5761177161176236612140565b6001600160a01b039291612768565b16803b156117cf576040519063485cc95560e01b82523360048301525f60248301525f8260448183855af19182156117c4576020926117b4575b50604051908152f35b5f6117be91612249565b5f6117ab565b6040513d5f823e3d90fd5b5f80fd5b346117cf5760203660031901126117cf576117ec612156565b6117f4612735565b5f516020612d3f5f395f51905f525460040180546001600160a01b0319166001600160a01b03909216919091179055005b346117cf575f3660031901126117cf5760205f516020612d3f5f395f51905f525454604051908152f35b346117cf5761185d36612140565b90811580159061199e575b1561196357600f5f516020612d3f5f395f51905f525461188a8154151561218d565b0190805f528160205260ff60405f205416600381101561194f576118ee577f65672eaf4ff8b823ea29ae013fef437d1fa9ed431125263a7a1f0ac49eada39692604092825f52602052825f20600160ff1982541617905582519182526020820152a1005b60405162461bcd60e51b815260206004820152603360248201527f676976656e20636f646520696420697320616c7265616479206f6e2076616c6960448201527219185d1a5bdb881bdc881d985b1a59185d1959606a1b6064820152608490fd5b634e487b7160e01b5f52602160045260245ffd5b60405162461bcd60e51b8152602060048201526013602482015272189b1bd88818d85b89dd08189948199bdd5b99606a1b6044820152606490fd5b505f491515611868565b346117cf5760403660031901126117cf576004356001600160401b0381116117cf576119d8903690600401612110565b6024356001600160401b0381116117cf576119f7903690600401612110565b90927f9b779b17422d0df92223018b32b4d1fa46e071723d6817e2486d003becc55f005c6120d75760017f9b779b17422d0df92223018b32b4d1fa46e071723d6817e2486d003becc55f005d5f516020612d3f5f395f51905f525491611a5f8354151561218d565b60605f915b8583101561209b578260051b840135609e19853603018112156117cf57840190600286015460408301350361204857611aa06060830135612b1d565b15611ff457949396959291906020611ab98183016125c8565b65ffffffffffff60405191611acd836121ff565b843583521691829101528135600287015565ffffffffffff19600387015416176003860155611aff6080820182612507565b9690946060995f925b89841015611f51578360051b88013560be19893603018112156117cf5788019b611b318d61239d565b6001600160a01b03165f90815260108b01602052604090205415611ef45760068a01548d906001600160a01b03166060611b6a8361239d565b92019182356001600160801b0381168091036117cf5760405163a9059cbb60e01b81526001600160a01b039092166004830152602482015290602090829060449082905f905af180156117c457611ebe575b506001600160a01b03611bce8f61239d565b6040516309ed323560e41b8152602060048201529f9116918f919060e48301906001600160801b0390611c3b906001600160a01b03611c0c8661216c565b166024870152602085013560448701526001600160a01b03611c306040870161216c565b166064870152612b60565b16608484015236829003601e1901906080830135828112156117cf57830190602082359201946001600160401b0383116117cf5760608302360386136117cf57826101049260c060a4840152520193905f905b808210611e74575050509e9f939495969798999a9b9c9d9e60a0820135908112156117cf570190813560208301926001600160401b0382116117cf578160051b9182360385136117cf578684036023190160c48801528084528694928401602090810194908101925f923682900360de19019290915b828510611d7b575050505050505091815f8160209503925af19081156117c4575f91611d49575b50611d389060019261226a565b9b9a99989796959401929190611b08565b90506020813d8211611d73575b81611d6360209383612249565b810103126117cf57516001611d2b565b3d9150611d56565b9193959750919395601f198382030187528735858112156117cf57820160208101358252906001600160a01b03611db46040840161216c565b1660208201526060820135603e1936849003018112156117cf5782602091010191602083359301906001600160401b0384116117cf5783360382136117cf578360c092836040860152818486015260e08501375f60e085850101526001600160801b03611e2360808301612b60565b16606084015260a0810135608084015201359163ffffffff60e01b83168093036117cf5760e0826020939260019560a086950152601f80199101160101990197019501929091899796959492611d04565b90919460608060019288358152838060a01b03611e9360208b0161216c565b1660208201526001600160801b03611ead60408b01612b60565b166040820152019601920190611c8e565b6020813d8211611eec575b81611ed660209383612249565b810103126117cf57518015158114611bbc575f80fd5b3d9150611ec9565b60405162461bcd60e51b815260206004820152602f60248201527f636f756c646e277420706572666f726d207472616e736974696f6e20666f722060448201526e756e6b6e6f776e2070726f6772616d60881b6064820152608490fd5b9650969750979398600193915091611feb9260208151910120907fd756eca21e02cb0dbde1e44a4d9c6921b5c8aa4668cfa0752784b3dc855bce1e602060405183358152a1611fa2602082016125c8565b9160606040519260208401948135865265ffffffffffff60d01b9060d01b166040850152604081013560468501520135606683015260868201526086815261041e60a682612249565b91960191611a64565b60405162461bcd60e51b815260206004820152602660248201527f616c6c6f776564207072656465636573736f7220626c6f636b207761736e277460448201526508199bdd5b9960d21b6064820152608490fd5b60405162461bcd60e51b815260206004820152602560248201527f696e76616c69642070726576696f757320636f6d6d697474656420626c6f636b604482015264040d0c2e6d60db1b6064820152608490fd5b6104d69087866120b29460208151910120906125db565b5f7f9b779b17422d0df92223018b32b4d1fa46e071723d6817e2486d003becc55f005d005b633ee5aeb560e01b5f5260045ffd5b346117cf575f3660031901126117cf5760209060125f516020612d3f5f395f51905f525401548152f35b9181601f840112156117cf578235916001600160401b0383116117cf576020808501948460051b0101116117cf57565b60409060031901126117cf576004359060243590565b600435906001600160a01b03821682036117cf57565b35906001600160a01b03821682036117cf57565b90600382101561194f5752565b1561219457565b60405162461bcd60e51b815260206004820152603860248201527f726f757465722067656e65736973206973207a65726f3b2063616c6c20606c6f60448201527f6f6b757047656e657369734861736828296020666972737400000000000000006064820152608490fd5b604081019081106001600160401b0382111761221a57604052565b634e487b7160e01b5f52604160045260245ffd5b606081019081106001600160401b0382111761221a57604052565b90601f801991011681019081106001600160401b0382111761221a57604052565b602080612297928195946040519682889351918291018585015e8201908382015203018085520183612249565b565b156122a057565b60405162461bcd60e51b815260206004820152601e60248201527f7369676e61747572657320766572696669636174696f6e206661696c656400006044820152606490fd5b90604051918281549182825260208201905f5260205f20925f5b81811061231457505061229792500383612249565b84546001600160a01b03168352600194850194879450602090930192016122ff565b6001600160401b03811161221a5760051b60200190565b919081101561235d5760051b0190565b634e487b7160e01b5f52603260045260245ffd5b805182101561235d5760209160051b010190565b60405190612392826121ff565b5f6020838281520152565b356001600160a01b03811681036117cf5790565b6123c85f516020612d3f5f395f51905f52546128e1565b905f5b8381106123db5750505050600190565b6123e961083d82868561234d565b6001600160a01b03165f9081526020849052604090205460ff1615612410576001016123cb565b505050505f90565b9190820391821161242557565b634e487b7160e01b5f52601160045260245ffd5b8181029291811591840414171561242557565b1561245357565b60405162461bcd60e51b815260206004820152603260248201527f6c6f6f6b73206c696b652076616c696461746f727320666f72206e65787420656044820152711c9848185c9948185b1c9958591e481cd95d60721b6064820152608490fd5b9291906124bf81612336565b936124cd6040519586612249565b602085838152019160051b81019283116117cf57905b8282106124ef57505050565b602080916124fc8461216c565b8152019101906124e3565b903590601e19813603018212156117cf57018035906001600160401b0382116117cf57602001918160051b360383136117cf57565b3580151581036117cf5790565b5f1981146124255760010190565b6001600160a01b031680156125b5575f516020612d1f5f395f51905f5280546001600160a01b0319811683179091556001600160a01b03167f8be0079c531659141344cd1fd0a4f28419497f9722a3daafe3b4186f6b6457e05f80a3565b631e4fbdf760e01b5f525f60045260245ffd5b3565ffffffffffff811681036117cf5790565b9190916125ff6125ea826128e1565b9161ffff600760018501549201541690612afb565b9260405190602082019081526020825261261a604083612249565b612656603660405180936020820195601960f81b87523060601b60228401525180918484015e81015f838201520301601f198101835282612249565b5190205f925f5b8681101561272a578060051b820135601e19833603018112156117cf5782018035906001600160401b0382116117cf57602081019082360382136117cf57604051906126b3601f8501601f191660200183612249565b83825260208436920101116117cf575f6020846126e5956126dc95838601378301015285612b9f565b90929192612bd9565b6001600160a01b03165f9081526020859052604090205460ff1661270c575b60010161265d565b9361271690612549565b938585036127045750505050505050600190565b505050505050505f90565b5f516020612d1f5f395f51905f52546001600160a01b0316330361275557565b63118cdaa760e01b5f523360045260245ffd5b5f516020612d3f5f395f51905f5254916127848354151561218d565b815f52600f830160205260ff60405f205416600381101561194f57600203612840576127e260119160018060a01b036005860154169060405160208101918683526040820152604081526127d9606082612249565b51902090612c39565b9260018060a01b0384165f52601081016020528260405f2055016128068154612549565b90556040516001600160a01b03831681527f8008ec1d8798725ebfa0f2d128d52e8e717dcba6e0f786557eeee70614b02bf190602090a290565b60405162461bcd60e51b815260206004820152602e60248201527f636f6465206d7573742062652076616c696461746564206265666f726520707260448201526d37b3b930b69031b932b0ba34b7b760911b6064820152608490fd5b5f604080516128aa8161222e565b82815282602082015201526040516128c18161222e565b5f815263ffffffff4316602082015265ffffffffffff4216604082015290565b6128ea81612a14565b156128f557600b0190565b60080190565b905f5b6001830190815481101561293b575f91825260208083208201546001600160a01b031683528490526040909120805460ff191690556001016128fe565b50505f5b8151811015612980576001906001600160a01b0361295d8285612371565b5116828060a01b03165f528360205260405f208260ff198254161790550161293f565b50600182018151916001600160401b03831161221a5768010000000000000000831161221a5781548383558084106129ee575b50602001905f5260205f205f5b8381106129d1575050505060020155565b82516001600160a01b0316818301556020909201916001016129c0565b825f528360205f2091820191015b818110612a0957506129b3565b5f81556001016129fc565b600d600a820154910154808214612ab75780821091421090811590421015918190612ab0575b15612a4f5782612a4957505090565b14919050565b60405162461bcd60e51b815260206004820152603360248201527f636f756c64206e6f74206964656e746966792076616c696461746f727320666f6044820152720722063757272656e742074696d657374616d7606c1b6064820152608490fd5b5081612a3a565b606460405162461bcd60e51b815260206004820152602060248201527f657261732074696d657374616d70206d757374206e6f7420626520657175616c6044820152fd5b61ffff612b09921690612439565b61270f810180911161242557612710900490565b905f19430143811161242557805b612b36575b505f9150565b8040838103612b4757506001925050565b15612b5b578015612425575f190180612b2b565b612b30565b35906001600160801b03821682036117cf57565b60ff5f516020612d5f5f395f51905f525460401c1615612b9057565b631afcd79f60e31b5f5260045ffd5b8151919060418303612bcf57612bc89250602082015190606060408401519301515f1a90612c9c565b9192909190565b50505f9160029190565b600481101561194f5780612beb575050565b60018103612c025763f645eedf60e01b5f5260045ffd5b60028103612c1d575063fce698f760e01b5f5260045260245ffd5b600314612c275750565b6335e2f38360e21b5f5260045260245ffd5b6e5af43d82803e903d91602b57fd5bf390763d602d80600a3d3981f3363d3d373d3d3d363d7300000062ffffff8260881c16175f5260781b17602052603760095ff5906001600160a01b03821615612c8d57565b63b06ebf3d60e01b5f5260045ffd5b91907f7fffffffffffffffffffffffffffffff5d576e7357a4501ddfe92f46681b20a08411612d13579160209360809260ff5f9560405194855216868401526040830152606082015282805260015afa156117c4575f516001600160a01b03811615612d0957905f905f90565b505f906001905f90565b5050505f916003919056fe9016d09d72d40fdae2fd8ceac6b6234c7706214fd39c1cd1e609a0528c1993005c09ca1b9b8127a4fd9f3c384aac59b661441e820e17733753ff5f2e86e1e000f0c57e16840df040f15088dc2f81fe391c3923bec73e23a9662efc9c229c6a00a2646970667358221220ba781b13dd0a7d00bd75250b48154ff8a9d15c580f655fdc9ef38fe7f713648564736f6c634300081c0033f0c57e16840df040f15088dc2f81fe391c3923bec73e23a9662efc9c229c6a00","linkReferences":{}},"methodIdentifiers":{"areValidators(address[])":"8f381dbe","codeState(bytes32)":"c13911e8","codesStates(bytes32[])":"82bdeaad","commitBlocks((bytes32,uint48,bytes32,bytes32,(address,bytes32,address,uint128,(bytes32,address,uint128)[],(bytes32,address,bytes,uint128,(bytes32,bytes4))[])[])[],bytes[])":"01b1d156","commitCodes((bytes32,bool)[],bytes[])":"e97d3eb3","commitValidators((address[],uint256),bytes[])":"aaf0fe6a","computeSettings()":"84d22a4f","createProgram(bytes32,bytes32)":"527de0f9","createProgramWithDecoder(address,bytes32,bytes32)":"e7006a74","genesisBlockHash()":"28e24b3d","genesisTimestamp()":"cacf66ab","initialize(address,address,address,address,uint256,uint256,address[])":"b1669a33","isValidator(address)":"facd743b","latestCommittedBlockHash()":"c9f16a11","lookupGenesisHash()":"8b1edf1e","mirrorImpl()":"e6fabc09","mirrorProxyImpl()":"65ecfea2","owner()":"8da5cb5b","programCodeId(address)":"9067088e","programsCodeIds(address[])":"baaf0201","programsCount()":"96a2ddfa","reinitialize()":"6c2eb350","renounceOwnership()":"715018a6","requestCodeValidation(bytes32,bytes32)":"1c149d8a","setMirror(address)":"3d43b418","signingThresholdPercentage()":"efd81abc","transferOwnership(address)":"f2fde38b","validatedCodesCount()":"007a32e7","validators()":"ca1e7819","validatorsCount()":"ed612f8c","validatorsThreshold()":"edc87225","wrappedVara()":"88f50cf0"},"storageLayout":{"storage":[],"types":{}},"id":120}