{"abi":[{"type":"constructor","inputs":[],"stateMutability":"nonpayable"},{"type":"function","name":"areValidators","inputs":[{"name":"_validators","type":"address[]","internalType":"address[]"}],"outputs":[{"name":"","type":"bool","internalType":"bool"}],"stateMutability":"view"},{"type":"function","name":"codeState","inputs":[{"name":"_codeId","type":"bytes32","internalType":"bytes32"}],"outputs":[{"name":"","type":"uint8","internalType":"enum Gear.CodeState"}],"stateMutability":"view"},{"type":"function","name":"codesStates","inputs":[{"name":"_codesIds","type":"bytes32[]","internalType":"bytes32[]"}],"outputs":[{"name":"","type":"uint8[]","internalType":"enum Gear.CodeState[]"}],"stateMutability":"view"},{"type":"function","name":"commitBatch","inputs":[{"name":"_batchCommitment","type":"tuple","internalType":"struct Gear.BatchCommitment","components":[{"name":"codeCommitments","type":"tuple[]","internalType":"struct Gear.CodeCommitment[]","components":[{"name":"id","type":"bytes32","internalType":"bytes32"},{"name":"timestamp","type":"uint48","internalType":"uint48"},{"name":"valid","type":"bool","internalType":"bool"}]},{"name":"blockCommitments","type":"tuple[]","internalType":"struct Gear.BlockCommitment[]","components":[{"name":"hash","type":"bytes32","internalType":"bytes32"},{"name":"timestamp","type":"uint48","internalType":"uint48"},{"name":"previousCommittedBlock","type":"bytes32","internalType":"bytes32"},{"name":"predecessorBlock","type":"bytes32","internalType":"bytes32"},{"name":"transitions","type":"tuple[]","internalType":"struct Gear.StateTransition[]","components":[{"name":"actorId","type":"address","internalType":"address"},{"name":"newStateHash","type":"bytes32","internalType":"bytes32"},{"name":"inheritor","type":"address","internalType":"address"},{"name":"valueToReceive","type":"uint128","internalType":"uint128"},{"name":"valueClaims","type":"tuple[]","internalType":"struct Gear.ValueClaim[]","components":[{"name":"messageId","type":"bytes32","internalType":"bytes32"},{"name":"destination","type":"address","internalType":"address"},{"name":"value","type":"uint128","internalType":"uint128"}]},{"name":"messages","type":"tuple[]","internalType":"struct Gear.Message[]","components":[{"name":"id","type":"bytes32","internalType":"bytes32"},{"name":"destination","type":"address","internalType":"address"},{"name":"payload","type":"bytes","internalType":"bytes"},{"name":"value","type":"uint128","internalType":"uint128"},{"name":"replyDetails","type":"tuple","internalType":"struct Gear.ReplyDetails","components":[{"name":"to","type":"bytes32","internalType":"bytes32"},{"name":"code","type":"bytes4","internalType":"bytes4"}]}]}]}]},{"name":"rewardCommitments","type":"tuple[]","internalType":"struct Gear.RewardsCommitment[]","components":[{"name":"operators","type":"tuple","internalType":"struct Gear.OperatorRewardsCommitment","components":[{"name":"amount","type":"uint256","internalType":"uint256"},{"name":"root","type":"bytes32","internalType":"bytes32"}]},{"name":"stakers","type":"tuple","internalType":"struct Gear.StakerRewardsCommitment","components":[{"name":"distribution","type":"tuple[]","internalType":"struct Gear.StakerRewards[]","components":[{"name":"vault","type":"address","internalType":"address"},{"name":"amount","type":"uint256","internalType":"uint256"}]},{"name":"totalAmount","type":"uint256","internalType":"uint256"},{"name":"token","type":"address","internalType":"address"}]},{"name":"timestamp","type":"uint48","internalType":"uint48"}]}]},{"name":"_signatureType","type":"uint8","internalType":"enum Gear.SignatureType"},{"name":"_signatures","type":"bytes[]","internalType":"bytes[]"}],"outputs":[],"stateMutability":"nonpayable"},{"type":"function","name":"commitValidators","inputs":[{"name":"_validatorsCommitment","type":"tuple","internalType":"struct Gear.ValidatorsCommitment","components":[{"name":"aggregatedPublicKey","type":"tuple","internalType":"struct Gear.AggregatedPublicKey","components":[{"name":"x","type":"uint256","internalType":"uint256"},{"name":"y","type":"uint256","internalType":"uint256"}]},{"name":"verifiableSecretSharingCommitment","type":"bytes","internalType":"bytes"},{"name":"validators","type":"address[]","internalType":"address[]"},{"name":"eraIndex","type":"uint256","internalType":"uint256"}]},{"name":"_signatureType","type":"uint8","internalType":"enum Gear.SignatureType"},{"name":"_signatures","type":"bytes[]","internalType":"bytes[]"}],"outputs":[],"stateMutability":"nonpayable"},{"type":"function","name":"computeSettings","inputs":[],"outputs":[{"name":"","type":"tuple","internalType":"struct Gear.ComputationSettings","components":[{"name":"threshold","type":"uint64","internalType":"uint64"},{"name":"wvaraPerSecond","type":"uint128","internalType":"uint128"}]}],"stateMutability":"view"},{"type":"function","name":"createProgram","inputs":[{"name":"_codeId","type":"bytes32","internalType":"bytes32"},{"name":"_salt","type":"bytes32","internalType":"bytes32"}],"outputs":[{"name":"","type":"address","internalType":"address"}],"stateMutability":"nonpayable"},{"type":"function","name":"createProgramWithAbiInterface","inputs":[{"name":"_codeId","type":"bytes32","internalType":"bytes32"},{"name":"_salt","type":"bytes32","internalType":"bytes32"},{"name":"_abiInterface","type":"address","internalType":"address"}],"outputs":[{"name":"","type":"address","internalType":"address"}],"stateMutability":"nonpayable"},{"type":"function","name":"genesisBlockHash","inputs":[],"outputs":[{"name":"","type":"bytes32","internalType":"bytes32"}],"stateMutability":"view"},{"type":"function","name":"genesisTimestamp","inputs":[],"outputs":[{"name":"","type":"uint48","internalType":"uint48"}],"stateMutability":"view"},{"type":"function","name":"initialize","inputs":[{"name":"_owner","type":"address","internalType":"address"},{"name":"_mirror","type":"address","internalType":"address"},{"name":"_wrappedVara","type":"address","internalType":"address"},{"name":"_middleware","type":"address","internalType":"address"},{"name":"_eraDuration","type":"uint256","internalType":"uint256"},{"name":"_electionDuration","type":"uint256","internalType":"uint256"},{"name":"_validationDelay","type":"uint256","internalType":"uint256"},{"name":"_aggregatedPublicKey","type":"tuple","internalType":"struct Gear.AggregatedPublicKey","components":[{"name":"x","type":"uint256","internalType":"uint256"},{"name":"y","type":"uint256","internalType":"uint256"}]},{"name":"_verifiableSecretSharingCommitment","type":"bytes","internalType":"bytes"},{"name":"_validators","type":"address[]","internalType":"address[]"}],"outputs":[],"stateMutability":"nonpayable"},{"type":"function","name":"isValidator","inputs":[{"name":"_validator","type":"address","internalType":"address"}],"outputs":[{"name":"","type":"bool","internalType":"bool"}],"stateMutability":"view"},{"type":"function","name":"latestCommittedBlockHash","inputs":[],"outputs":[{"name":"","type":"bytes32","internalType":"bytes32"}],"stateMutability":"view"},{"type":"function","name":"lookupGenesisHash","inputs":[],"outputs":[],"stateMutability":"nonpayable"},{"type":"function","name":"mirrorImpl","inputs":[],"outputs":[{"name":"","type":"address","internalType":"address"}],"stateMutability":"view"},{"type":"function","name":"owner","inputs":[],"outputs":[{"name":"","type":"address","internalType":"address"}],"stateMutability":"view"},{"type":"function","name":"programCodeId","inputs":[{"name":"_programId","type":"address","internalType":"address"}],"outputs":[{"name":"","type":"bytes32","internalType":"bytes32"}],"stateMutability":"view"},{"type":"function","name":"programsCodeIds","inputs":[{"name":"_programsIds","type":"address[]","internalType":"address[]"}],"outputs":[{"name":"","type":"bytes32[]","internalType":"bytes32[]"}],"stateMutability":"view"},{"type":"function","name":"programsCount","inputs":[],"outputs":[{"name":"","type":"uint256","internalType":"uint256"}],"stateMutability":"view"},{"type":"function","name":"reinitialize","inputs":[],"outputs":[],"stateMutability":"nonpayable"},{"type":"function","name":"renounceOwnership","inputs":[],"outputs":[],"stateMutability":"nonpayable"},{"type":"function","name":"requestCodeValidation","inputs":[{"name":"_codeId","type":"bytes32","internalType":"bytes32"}],"outputs":[],"stateMutability":"nonpayable"},{"type":"function","name":"setMirror","inputs":[{"name":"newMirror","type":"address","internalType":"address"}],"outputs":[],"stateMutability":"nonpayable"},{"type":"function","name":"signingThresholdPercentage","inputs":[],"outputs":[{"name":"","type":"uint16","internalType":"uint16"}],"stateMutability":"view"},{"type":"function","name":"transferOwnership","inputs":[{"name":"newOwner","type":"address","internalType":"address"}],"outputs":[],"stateMutability":"nonpayable"},{"type":"function","name":"validatedCodesCount","inputs":[],"outputs":[{"name":"","type":"uint256","internalType":"uint256"}],"stateMutability":"view"},{"type":"function","name":"validators","inputs":[],"outputs":[{"name":"","type":"address[]","internalType":"address[]"}],"stateMutability":"view"},{"type":"function","name":"validatorsAggregatedPublicKey","inputs":[],"outputs":[{"name":"","type":"tuple","internalType":"struct Gear.AggregatedPublicKey","components":[{"name":"x","type":"uint256","internalType":"uint256"},{"name":"y","type":"uint256","internalType":"uint256"}]}],"stateMutability":"view"},{"type":"function","name":"validatorsCount","inputs":[],"outputs":[{"name":"","type":"uint256","internalType":"uint256"}],"stateMutability":"view"},{"type":"function","name":"validatorsThreshold","inputs":[],"outputs":[{"name":"","type":"uint256","internalType":"uint256"}],"stateMutability":"view"},{"type":"function","name":"validatorsVerifiableSecretSharingCommitment","inputs":[],"outputs":[{"name":"","type":"bytes","internalType":"bytes"}],"stateMutability":"view"},{"type":"function","name":"wrappedVara","inputs":[],"outputs":[{"name":"","type":"address","internalType":"address"}],"stateMutability":"view"},{"type":"event","name":"BlockCommitted","inputs":[{"name":"hash","type":"bytes32","indexed":false,"internalType":"bytes32"}],"anonymous":false},{"type":"event","name":"CodeGotValidated","inputs":[{"name":"codeId","type":"bytes32","indexed":false,"internalType":"bytes32"},{"name":"valid","type":"bool","indexed":true,"internalType":"bool"}],"anonymous":false},{"type":"event","name":"CodeValidationRequested","inputs":[{"name":"codeId","type":"bytes32","indexed":false,"internalType":"bytes32"}],"anonymous":false},{"type":"event","name":"ComputationSettingsChanged","inputs":[{"name":"threshold","type":"uint64","indexed":false,"internalType":"uint64"},{"name":"wvaraPerSecond","type":"uint128","indexed":false,"internalType":"uint128"}],"anonymous":false},{"type":"event","name":"Initialized","inputs":[{"name":"version","type":"uint64","indexed":false,"internalType":"uint64"}],"anonymous":false},{"type":"event","name":"NextEraValidatorsCommitted","inputs":[{"name":"startTimestamp","type":"uint256","indexed":false,"internalType":"uint256"}],"anonymous":false},{"type":"event","name":"OwnershipTransferred","inputs":[{"name":"previousOwner","type":"address","indexed":true,"internalType":"address"},{"name":"newOwner","type":"address","indexed":true,"internalType":"address"}],"anonymous":false},{"type":"event","name":"ProgramCreated","inputs":[{"name":"actorId","type":"address","indexed":false,"internalType":"address"},{"name":"codeId","type":"bytes32","indexed":true,"internalType":"bytes32"}],"anonymous":false},{"type":"event","name":"StorageSlotChanged","inputs":[],"anonymous":false},{"type":"error","name":"ECDSAInvalidSignature","inputs":[]},{"type":"error","name":"ECDSAInvalidSignatureLength","inputs":[{"name":"length","type":"uint256","internalType":"uint256"}]},{"type":"error","name":"ECDSAInvalidSignatureS","inputs":[{"name":"s","type":"bytes32","internalType":"bytes32"}]},{"type":"error","name":"InvalidInitialization","inputs":[]},{"type":"error","name":"NotInitializing","inputs":[]},{"type":"error","name":"OwnableInvalidOwner","inputs":[{"name":"owner","type":"address","internalType":"address"}]},{"type":"error","name":"OwnableUnauthorizedAccount","inputs":[{"name":"account","type":"address","internalType":"address"}]},{"type":"error","name":"ReentrancyGuardReentrantCall","inputs":[]}],"bytecode":{"object":"0x6080806040523460aa575f5160206141765f395f51905f525460ff8160401c16609b576002600160401b03196001600160401b038216016049575b6040516140c790816100af8239f35b6001600160401b0319166001600160401b039081175f5160206141765f395f51905f525581527fc7f505b2f371ae2175ee4913f4499e1f2633a7b5936321eed1cdaeb6115181d290602090a15f80603a565b63f92ee8a960e01b5f5260045ffd5b5f80fdfe6101e0806040526004361015610013575f80fd5b5f610160525f3560e01c9081627a32e714612a8057508063120e3f1e146128f557806328e24b3d146128c857806338f0efe51461282d5780633bd109fa146127dc5780633d43b41814612785578063527de0f9146126ff57806353f7fd481461218e5780636c2eb35014611e71578063715018a614611dff57806382bdeaad14611cee57806384d22a4f14611c8357806388f50cf014611c485780638b1edf1e14611b775780638da5cb5b14611b405780638f381dbe14611afb5780639067088e14611ab357806396a2ddfa14611a83578063a541b884146109ed578063a5d53a4414610979578063aa54494a14610540578063baaf02011461043f578063c13911e8146103f5578063c9f16a11146103c5578063ca1e78191461033e578063cacf66ab14610304578063e6fabc09146102c9578063ed612f8c1461028f578063edc8722514610243578063efd81abc1461020f578063f2fde38b146101df5763facd743b14610181575f80fd5b346101d85760203660031901126101d85761019a612ac0565b60036101b55f5160206140875f395f51905f52544290613bc7565b019060018060a01b03165f52602052602060ff60405f2054166040519015158152f35b6101605180fd5b346101d85760203660031901126101d8576102086101fb612ac0565b61020361341d565b612f19565b6101605180f35b346101d857610160513660031901126101d857602061ffff60085f5160206140875f395f51905f5254015416604051908152f35b346101d857610160513660031901126101d85760206102875f5160206140875f395f51905f525461ffff6008600461027b4285613bc7565b01549201541690613ba5565b604051908152f35b346101d857610160513660031901126101d857602060046102bf5f5160206140875f395f51905f52544290613bc7565b0154604051908152f35b346101d857610160513660031901126101d8575f5160206140875f395f51905f5254600501546040516001600160a01b039091168152602090f35b346101d857610160513660031901126101d857602065ffffffffffff60025f5160206140875f395f51905f52540154821c16604051908152f35b346101d857610160513660031901126101d857610375600461036f5f5160206140875f395f51905f52544290613bc7565b01612d29565b604051809160208201602083528151809152602060408401920190610160515b8181106103a3575050500390f35b82516001600160a01b0316845285945060209384019390920191600101610395565b346101d857610160513660031901126101d857602060035f5160206140875f395f51905f52540154604051908152f35b346101d85760203660031901126101d85760195f5160206140875f395f51905f5254016004356101605152602052602060ff60406101605120541661043d6040518092612b1a565bf35b346101d85760203660031901126101d8576004356001600160401b0381116101d85761046f903690600401612aea565b5f5160206140875f395f51905f52549161048882612bd7565b926104966040519485612b71565b8284526104a283612bd7565b602085019390601f1901368537601a610160519201915b81811061050757848660405191829160208301906020845251809152604083019190610160515b8181106104ee575050500390f35b82518452859450602093840193909201916001016104e0565b8061051d6105186001938588612d7c565b612db4565b828060a01b03165f528360205260405f20546105398289612da0565b52016104b9565b346101d85760603660031901126101d8576004356001600160401b0381116101d8576003198136030160a081126101d8576040519060808201908282106001600160401b0383111761095f576040918252126101d8576040516105a281612b56565b8260040135815260248301356020820152815260448201356001600160401b0381116101d8578201366023820112156101d8576105e9903690602460048201359101612b92565b6020820190815260648301356001600160401b0381116101d8578301366023820112156101d857610624903690602460048201359101612bee565b90604083019182526084606084019401358452600260243510156101d8576044356001600160401b0381116101d857610661903690600401612aea565b9190935f5160206140875f395f51905f525461068260018201541515612c42565b65ffffffffffff600282015460201c1661069c8142612cea565b906106ac60168401548093612d0b565b89516001820180921161094557036108ed576106cd6106d3928a5190612f06565b90612ef9565b936106e2601783015486612cea565b42106108a8576106f182613b8a565b9642600589015410156108485783516020815191015188519a51604051916020830193845260408301526060820160208d51919d0190610160515b818110610829575050506020828d610753936107809a9b9c9d9e9f52038084520182612b71565b51902092604051906020820194855260208252610771604083612b71565b42946024359251902090613785565b156107c9577f41e7f919bf726af8aa2ef36bd31905a693013e30c45c6284060e613d4941997b946020946107bb938593519051915192613495565b604051908152a16101605180f35b60405162461bcd60e51b815260206004820152603260248201527f6e657874206572612076616c696461746f7273207369676e6174757265732076604482015271195c9a599a58d85d1a5bdb8819985a5b195960721b6064820152608490fd5b82516001600160a01b03168f5260209e8f019e9092019160010161072c565b60405162461bcd60e51b815260206004820152603260248201527f6c6f6f6b73206c696b652076616c696461746f727320666f72206e65787420656044820152711c9848185c9948185b1c9958591e481cd95d60721b6064820152608490fd5b60405162461bcd60e51b815260206004820152601b60248201527f656c656374696f6e206973206e6f7420796574207374617274656400000000006044820152606490fd5b60405162461bcd60e51b815260206004820152602a60248201527f636f6d6d69746d656e742065726120696e646578206973206e6f74206e657874604482015269040cae4c240d2dcc8caf60b31b6064820152608490fd5b634e487b7160e01b61016051526011600452602461016051fd5b634e487b7160e01b61016051526041600452602461016051fd5b346101d857610160513660031901126101d857602060406109be5f5160206140875f395f51905f525460026109b660018060a01b03924290613bc7565b015416613729565b815192839181835280519182918282860152018484015e61016051828201840152601f01601f19168101030190f35b346101d85760603660031901126101d8576004356001600160401b0381116101d857606060031982360301126101d857600260243510156101d8576044356001600160401b0381116101d857610a47903690600401612aea565b90917f9b779b17422d0df92223018b32b4d1fa46e071723d6817e2486d003becc55f005c611a6e5760017f9b779b17422d0df92223018b32b4d1fa46e071723d6817e2486d003becc55f005d5f5160206140875f395f51905f525461014052610ab860016101405101541515612c42565b610ac56004820180612e34565b90501580611a55575b611a10576001610ae46044830183600401612e69565b9050116119a6576101605160c081905261014051601901939290919060605b610b106004840180612e34565b9050841015610d5357610b266004840180612e34565b851015610d39576060850201938435948561016051528760205260ff6040610160512054166003811015610d1f57600103610cbc576040810192610b6984612e9e565b15610c9e57610160805188905260208a90525160409020805460ff1916600217905561014051601c018054610b9d90612eab565b90555b610ba984612e9e565b15157f460119a8f69a33ed127de517d5ea464e958ce23ef19e4420a8b92bf780bbc2c960206040518a8152a26060823603126101d857602060405192610bee84612b27565b888452019687359465ffffffffffff861686036101d85785602085015235948515158087036101d8576001966040610c61960152604051916020830193845265ffffffffffff60d01b9060d01b16604083015260f81b604682015260278152610c58604782612b71565b51902090612eb9565b9460c05165ffffffffffff610c7583612ee6565b1611610c84575b500192610b03565b610c9465ffffffffffff91612ee6565b1660c05287610c7c565b866101605152886020526040610160512060ff198154169055610ba0565b60405162461bcd60e51b815260206004820152603560248201527f636f6465206d7573742062652072657175657374656420666f722076616c6964604482015274185d1a5bdb881d1bc818994818dbdb5b5a5d1d1959605a1b6064820152608490fd5b634e487b7160e01b61016051526021600452602461016051fd5b634e487b7160e01b61016051526032600452602461016051fd5b61016051606060a0526101205284935091905b610d766024830183600401612e69565b90506101205110156115c157610d926024830183600401612e69565b9061010052610120511015610d39576101205160051b61010051013560e052609e196101005136030160e05112156101d8576003610140510154604060e051610100510101350361156e57610140515415611502575b6020610dfc8160e051610100510101612ee6565b65ffffffffffff60405191610e1083612b56565b60e051610100510135835216918291015260e051610100510135600361014051015565ffffffffffff19600461014051015416176004610140510155610e67608060e05161010051010160e0516101005101612e69565b6101a0526101c0526101605160805260605b6101a05160805110156113e6576080516101c05160059190911b81013590360360be19018112156101d857610eb2816101c05101612db4565b6001600160a01b03165f90815261014051601a01602052604090205415611389576001600160801b03610eec6060836101c0510101613c4b565b166112de575b6101c0516001600160a01b0390610f0a908301612db4565b16604051610180526309ed323560e41b61018051526020600461018051015260018060a01b03610f3e836101c05101612ad6565b1660246101805101526020826101c051010135604461018051015260018060a01b03610f716040846101c0510101612ad6565b1660646101805101526001600160801b03610f936060846101c0510101613c5f565b1660846101805101526080826101c051010135601e19836101c051013603018112156101d857826101c0510101916001600160401b038335116101d8576060833502360360208401136101d85760c060a461018051015260e4610180515050823560e4610180510152610104610180510192602081019061016051905b803582106112945750506101c051820160a08101359291503603601e19018212156101d8576001600160401b03816101c05101830135116101d8576101c05181018201803560051b36036020909101136101d85791906023196101805185030160c4610180510152826101c051018101358452602084016020846101c0510183013560051b860101936020816101c051018401019561016051915b806101c05101850135831061114d57505050505060209250610180519161018051900390610180519061016051905af1801561113f576101605190611102575b6110f491612eb9565b608080516001019052610e79565b5060203d8111611138575b8061111d60209261018051612b71565b6101805190810103126111345761018051516110eb565b5f80fd5b503d61110d565b6040513d61016051823e3d90fd5b909192939495601f1983820301855287359060de19836101c0510188013603018212156101d8576101c08051840188018301602001358252516001600160a01b03906111a190850189018401604001612ad6565b1660208201526101c05160609084018801830190810135903603603e19018112156101d8576101c05184018801830101602001916001600160401b038335116101d8578235360360208401136101d85760c09081604084015283358284015283356020850160e08501376101605160e08535850101526001600160801b036112346080876101c051018c01840101613c5f565b16606084015260a0856101c051018a01820101356080840152846101c0510189010101359163ffffffff60e01b83168093036101d85760a08201929092526020988901989135601f01601f19160160e001969594019260010191906110ab565b90919460608060019288358152838060a01b036112b360208b01612ad6565b1660208201526001600160801b036112cd60408b01613c5f565b166040820152019601920190611010565b6001600160801b03602060018060a01b036006610140510154166044611308856101c05101612db4565b6113196060876101c0510101613c4b565b60405163a9059cbb60e01b81526001600160a01b0390921660048301529490941660248501526101605184928391905af1801561113f5761135b575b50610ef2565b61137b9060203d8111611382575b6113738183612b71565b81019061376d565b5086611355565b503d611369565b60405162461bcd60e51b815260206004820152602f60248201527f636f756c646e277420706572666f726d207472616e736974696f6e20666f722060448201526e756e6b6e6f776e2070726f6772616d60881b6064820152608490fd5b6114a5909491929394602081519101207fd756eca21e02cb0dbde1e44a4d9c6921b5c8aa4668cfa0752784b3dc855bce1e602060405160e0516101005101358152a161143b602060e051610100510101612ee6565b9060405190602082019260e051610100510135845265ffffffffffff60d01b9060d01b166040830152604060e051610100510101356046830152606060e05161010051010135606683015260868201526086815261149a60a682612b71565b51902060a051612eb9565b60a05260c05165ffffffffffff6114c5602060e051610100510101612ee6565b16116114df575b6001610120510161012052929190610d66565b65ffffffffffff6114f9602060e051610100510101612ee6565b1660c0526114cc565b611516606060e05161010051010135613c0e565b610de85760405162461bcd60e51b815260206004820152602660248201527f616c6c6f776564207072656465636573736f7220626c6f636b207761736e277460448201526508199bdd5b9960d21b6064820152608490fd5b60405162461bcd60e51b815260206004820152602560248201527f696e76616c69642070726576696f757320636f6d6d697474656420626c6f636b604482015264040d0c2e6d60db1b6064820152608490fd5b60609184906115d66044820160048301612e69565b90506116ac575b5083602061163595519101209260a05151602060a0510120906020815191012060405191602083019586526040830152606082015260608152611621608082612b71565b60c051936024359151902061014051613785565b1561166757610160517f9b779b17422d0df92223018b32b4d1fa46e071723d6817e2486d003becc55f005d6101605180f35b60405162461bcd60e51b815260206004820152601e60248201527f7369676e61747572657320766572696669636174696f6e206661696c656400006044820152606490fd5b8060446116bd920190600401612e69565b15610d3957803590607e19813603018212156101d85761014051600781015460069091018054939092018035979390926001600160a01b039283169260408501921660206117178161170f8689613758565b01358c612ef9565b60446040518094819363095ea7b360e01b8352896004840152602483015261016051905af1801561113f57611989575b5060018060a01b03905416976040519863394f179b60e11b8a5260048a015260248901526020830135604489015260208860648161016051865af197881561113f576101605198611953575b506117cb879161016051506117c5602080604051809d87518060808585015e820190838201520301808d52018b612b71565b84613758565b9201956117d787612ee6565b60405193637fbe95b560e01b85526040600486015260a485018135601e19833603018112156101d85782019060208201946001600160401b038335116101d857823560061b360386136101d85760448801528135905261016051869460c4860194939290915b8135811061191b57505050602081810135606486015294928492839265ffffffffffff91906001600160a01b039061187790604001612ad6565b166084850152166024830152039161016051905af190811561113f5761016051916118e7575b506118ab9061163596612eb9565b9360c05165ffffffffffff6118bf83612ee6565b16116118cd575b50936115dd565b6118dd65ffffffffffff91612ee6565b1660c052856118c6565b90506020813d602011611913575b8161190260209383612b71565b81010312611134575161163561189d565b3d91506118f5565b919550919293604080600192838060a01b036119368a612ad6565b16815260208901356020820152019601910191879594939261183d565b9097506020813d602011611981575b8161196f60209383612b71565b810103126111345751966117cb611793565b3d9150611962565b6119a19060203d602011611382576113738183612b71565b611747565b608460405162461bcd60e51b815260206004820152604060248201527f7265776172647320636f6d6d69746d656e74206d75737420626520656d70747960448201527f206f7220636f6e7461696e73206f6e6c79206f6e6520636f6d6d69746d656e746064820152fd5b60405162461bcd60e51b815260206004820152601860248201527f6e6f20636f6d6d69746d656e747320746f20636f6d6d697400000000000000006044820152606490fd5b50611a666024820182600401612e69565b905015610ace565b633ee5aeb560e01b6101605152600461016051fd5b346101d857610160513660031901126101d8576020601b5f5160206140875f395f51905f52540154604051908152f35b346101d85760203660031901126101d857611acc612ac0565b601a5f5160206140875f395f51905f5254019060018060a01b03165f52602052602060405f2054604051908152f35b346101d85760203660031901126101d8576004356001600160401b0381116101d857611b36611b306020923690600401612aea565b90612dc8565b6040519015158152f35b346101d857610160513660031901126101d8575f5160206140675f395f51905f52546040516001600160a01b039091168152602090f35b346101d857610160513660031901126101d8575f5160206140875f395f51905f525460018101908154611c03576002015463ffffffff1640908115611bbe57556101605180f35b60405162461bcd60e51b815260206004820152601d60248201527f756e61626c6520746f206c6f6f6b75702067656e6573697320686173680000006044820152606490fd5b60405162461bcd60e51b815260206004820152601860248201527f67656e65736973206861736820616c72656164792073657400000000000000006044820152606490fd5b346101d857610160513660031901126101d8575f5160206140875f395f51905f5254600601546040516001600160a01b039091168152602090f35b346101d857610160513660031901126101d857611c9e612cb4565b50604060155f5160206140875f395f51905f5254016001600160801b03825191611cc783612b56565b548160206001600160401b038316948581520191851c168152835192835251166020820152f35b346101d85760203660031901126101d8576004356001600160401b0381116101d857611d1e903690600401612aea565b5f5160206140875f395f51905f525491611d3782612bd7565b92611d456040519485612b71565b828452611d5183612bd7565b602085019390601f19013685376019610160519201915b818110611dc057848660405191829160208301906020845251809152604083019190610160515b818110611d9d575050500390f35b9193509160208082611db26001948851612b1a565b019401910191849392611d8f565b611dcb818386612d7c565b3561016051528260205260ff60406101605120541690611deb8188612da0565b916003811015610d1f576001925201611d68565b346101d857610160513660031901126101d857611e1a61341d565b5f5160206140675f395f51905f5280546001600160a01b0319811690915561016051906001600160a01b03167f8be0079c531659141344cd1fd0a4f28419497f9722a3daafe3b4186f6b6457e08280a36101605180f35b346101d857610160513660031901126101d857611e8c61341d565b5f5160206140a75f395f51905f525460ff8160401c16908115612179575b50612164575f5160206140a75f395f51905f52805468ffffffffffffffffff1916680100000000000000021790555f5160206140875f395f51905f525460408051611ef58282612b71565b6017815260208101907f726f757465722e73746f726167652e526f7574657256320000000000000000008252611f2961341d565b5190205f19810191908211610945577fc7f505b2f371ae2175ee4913f4499e1f2633a7b5936321eed1cdaeb6115181d292602092825190848201908152848252611f738483612b71565b60ff19915190201690815f5160206140875f395f51905f5255611f94613450565b80516001840155600283019063ffffffff868201511669ffffffffffff00000000868454930151881b169169ffffffffffffffffffff191617179055600581016005830190808203612116575b505061ffff600882015416600883019061ffff1982541617905561204a6120084283613bc7565b61201f6001600160a01b0360026109b64287613bc7565b612035600461202e4287613bc7565b0192612ccc565b906120404293612d29565b9160098701613495565b6015810160158301908082036120c4575b50506016810160168301918183036120a4575b5050505060ff60401b195f5160206140a75f395f51905f5254165f5160206140a75f395f51905f52555160028152a16101605180f35b60189283925490556017810154601785015501549101558380808061206e565b806001600160401b03806001600160801b03935416166001600160401b031984541617835554851c16600160401b600160c01b03825491861b1690600160401b600160c01b031916179055858061205b565b5481546001600160a01b03199081166001600160a01b039283161790925560068381015490850180548416918316919091179055600780840154908501805490931691161790558580611fe1565b63f92ee8a960e01b6101605152600461016051fd5b600291506001600160401b0316101581611eaa565b346101d8576101603660031901126101d8576121a8612ac0565b6024356001600160a01b03811691908290036101d8576121c6612aaa565b916064356001600160a01b038116908190036101d8576084359160a43560c43595604060e3193601126101d85761012435916001600160401b0383116101d857366023840112156101d8578260040135916001600160401b0383116101d85736602484860101116101d857610144356001600160401b0381116101d857612251903690600401612aea565b9690945f5160206140a75f395f51905f5254996001600160401b0360ff8c60401c16159b16801590816126f7575b60011490816126ed575b1590816126e4575b50612164576122db908b60016001600160401b03195f5160206140a75f395f51905f525416175f5160206140a75f395f51905f52556126b4575b6122d3613be3565b610203613be3565b6122e3613be3565b421561265e57831561260857838911156125a757600a612303858b612cea565b048b10156125625760409a8b5161231a8d82612b71565b6017815260208101907f726f757465722e73746f726167652e526f757465725631000000000000000000825261234e61341d565b5190205f19810195908611610945576125029a828e6124f1966124fb98600660099b84519060208201908152602082526123888683612b71565b60ff1991519020169e8f90815f5160206140875f395f51905f52556123ab613450565b80516001840155600283019063ffffffff60208201511669ffffffffffff0000000089845493015160201b169169ffffffffffffffffffff19161717905584868051956123f787612b27565b8387526001600160a01b039081166020880181905291909601919091526005830180549286166001600160a01b0319938416179055929091018054821690921790915560078f01805493909216921691909117905560088c018054611a0a61ffff19909116179055612467612cb4565b506509184e72a0006020825161247c81612b56565b639502f9008152015260158c0180546001600160c01b0319166d09184e72a000000000009502f90017905580516124b281612b27565b83815260208101859052015260168a0155601789015560188801558a51946124d986612b56565b60e43586526101043560208701526024369201612b92565b9342963691612bee565b9301613495565b61250d576101605180f35b60207fc7f505b2f371ae2175ee4913f4499e1f2633a7b5936321eed1cdaeb6115181d29160ff60401b195f5160206140a75f395f51905f5254165f5160206140a75f395f51905f52555160018152a180610208565b60405162461bcd60e51b815260206004820152601b60248201527f76616c69646174696f6e2064656c617920697320746f6f2062696700000000006044820152606490fd5b60405162461bcd60e51b815260206004820152603360248201527f657261206475726174696f6e206d757374206265206772656174657220746861604482015272371032b632b1ba34b7b710323ab930ba34b7b760691b6064820152608490fd5b60405162461bcd60e51b815260206004820152602860248201527f656c656374696f6e206475726174696f6e206d75737420626520677265617465604482015267072207468616e20360c41b6064820152608490fd5b60405162461bcd60e51b815260206004820152602860248201527f63757272656e742074696d657374616d70206d75737420626520677265617465604482015267072207468616e20360c41b6064820152608490fd5b600160401b60ff60401b195f5160206140a75f395f51905f525416175f5160206140a75f395f51905f52556122cb565b9050158d612291565b303b159150612289565b8c915061227f565b346101d85760403660031901126101d8576001600160a01b03612726602435600435612f8a565b16803b156101d85760405163485cc95560e01b815233600482015261016080516024830152518160448183865af1801561113f5761276a575b602082604051908152f35b6101605161277791612b71565b610160516101d8578161275f565b346101d85760203660031901126101d85761279e612ac0565b6127a661341d565b5f5160206140875f395f51905f525460050180546001600160a01b0319166001600160a01b039092169190911790556101605180f35b346101d857610160513660031901126101d8576127f7612cb4565b50604061281b6128165f5160206140875f395f51905f52544290613bc7565b612ccc565b60208251918051835201516020820152f35b3461113457606036600319011261113457612846612aaa565b6001600160a01b0361285c602435600435612f8a565b16803b156111345760405163485cc95560e01b81523360048201526001600160a01b0390921660248301525f8260448183855af19182156128bd576020926128a8575b50604051908152f35b5f6128b291612b71565b5f610160528261289f565b6040513d5f823e3d90fd5b34611134575f36600319011261113457602060015f5160206140875f395f51905f52540154604051908152f35b34611134576020366003190112611134576004355f4915612a045760195f5160206140875f395f51905f525461293060018201541515612c42565b01815f528060205260ff60405f20541660038110156129f05761298f57816020917f5c261a095dd5720475295dc06379921c003c22164ee6cae5cf83e76ce0a1b985935f52825260405f20600160ff19825416179055604051908152a1005b60405162461bcd60e51b815260206004820152603360248201527f676976656e20636f646520696420697320616c7265616479206f6e2076616c6960448201527219185d1a5bdb881bdc881d985b1a59185d1959606a1b6064820152608490fd5b634e487b7160e01b5f52602160045260245ffd5b60405162461bcd60e51b815260206004820152604860248201527f626c6f622063616e277420626520666f756e642c20726f75746572206578706560448201527f63746564204549502d34383434207472616e73616374696f6e2077697468205760648201526720a9a690313637b160c11b608482015260a490fd5b34611134575f36600319011261113457602090601c5f5160206140875f395f51905f525401548152f35b604435906001600160a01b038216820361113457565b600435906001600160a01b038216820361113457565b35906001600160a01b038216820361113457565b9181601f84011215611134578235916001600160401b038311611134576020808501948460051b01011161113457565b9060038210156129f05752565b606081019081106001600160401b03821117612b4257604052565b634e487b7160e01b5f52604160045260245ffd5b604081019081106001600160401b03821117612b4257604052565b90601f801991011681019081106001600160401b03821117612b4257604052565b9291926001600160401b038211612b425760405191612bbb601f8201601f191660200184612b71565b829481845281830111611134578281602093845f960137010152565b6001600160401b038111612b425760051b60200190565b929190612bfa81612bd7565b93612c086040519586612b71565b602085838152019160051b810192831161113457905b828210612c2a57505050565b60208091612c3784612ad6565b815201910190612c1e565b15612c4957565b60405162461bcd60e51b815260206004820152603860248201527f726f757465722067656e65736973206973207a65726f3b2063616c6c20606c6f60448201527f6f6b757047656e657369734861736828296020666972737400000000000000006064820152608490fd5b60405190612cc182612b56565b5f6020838281520152565b90604051612cd981612b56565b602060018294805484520154910152565b91908203918211612cf757565b634e487b7160e01b5f52601160045260245ffd5b8115612d15570490565b634e487b7160e01b5f52601260045260245ffd5b90604051918281549182825260208201905f5260205f20925f5b818110612d5a575050612d5892500383612b71565b565b84546001600160a01b0316835260019485019487945060209093019201612d43565b9190811015612d8c5760051b0190565b634e487b7160e01b5f52603260045260245ffd5b8051821015612d8c5760209160051b010190565b356001600160a01b03811681036111345790565b612de15f5160206140875f395f51905f52544290613bc7565b600301905f5b838110612df75750505050600190565b612e05610518828685612d7c565b6001600160a01b03165f9081526020849052604090205460ff1615612e2c57600101612de7565b505050505f90565b903590601e198136030182121561113457018035906001600160401b0382116111345760200191606082023603831361113457565b903590601e198136030182121561113457018035906001600160401b03821161113457602001918160051b3603831361113457565b3580151581036111345790565b5f198114612cf75760010190565b602080612d58928195946040519682889351918291018585015e8201908382015203018085520183612b71565b3565ffffffffffff811681036111345790565b91908201809211612cf757565b81810292918115918404141715612cf757565b6001600160a01b03168015612f77575f5160206140675f395f51905f5280546001600160a01b0319811683179091556001600160a01b03167f8be0079c531659141344cd1fd0a4f28419497f9722a3daafe3b4186f6b6457e05f80a3565b631e4fbdf760e01b5f525f60045260245ffd5b5f5160206140875f395f51905f525491612fa960018401541515612c42565b815f526019830160205260ff60405f20541660038110156129f0576002036133c1576040516020810191838352604082015260408152612fea606082612b71565b5190206040516102c08101908082106001600160401b03831117611134576102b4916040527f6080806040526102a290816100128239f3fe608060405260043610610258575f81527f3560e01c806329336f391461009b57806336a52a1814610096578063701da98e60208201527f14610091578063704ed5421461008c57806391d5a64c146100875780639ce11060408201527fd714610082578063affed0e01461007d578063d5624222146100785763e43f3460608201527f330361025857610243565b610208565b6101eb565b6101c3565b6101ad565b6160808201527f0194565b610177565b610150565b346100dc5760603660031901126100dc576060a08201527f243567ffffffffffffffff81116100dc576100cc9036906004016100e0565b5060c08201527f506100d661010e565b50610258565b5f80fd5b9181601f840112156100dc578260e08201527f359167ffffffffffffffff83116100dc57602083818601950101116100dc57566101008201527f5b604435906001600160801b03821682036100dc57565b6004359060016001606101208201527f801b03821682036100dc57565b602435906001600160801b03821682036100dc6101408201527f57565b346100dc575f3660031901126100dc575f546040516001600160a01b036101608201527f9091168152602090f35b346100dc575f3660031901126100dc576020600254606101808201527f4051908152f35b346100dc5760203660031901126100dc576100d6610124565b6101a08201527f346100dc57602036600319011215610258575f80fd5b346100dc575f366003196101c08201527f01126100dc576001546040516001600160a01b039091168152602090f35b34616101e08201527edc575f3660031901126100dc576020600354604051908152f35b346100dc576102008201527f60403660031901126100dc5760043567ffffffffffffffff81116100dc5761026102208201527f399036906004016100e0565b50506100d661013a565b346100dc575f3660031961024082015263ffffffff3060801c167f011215610258575f80fd5b63e6fabc0960e01b5f5260205f6004817300000000176102608201523060801b6f5afa156100dc575f8080513682803781176102808201527336915af43d5f803e1561029e573d5ff35b3d5ffd60601b6102a08201525ff5918215611134576001600160a01b0383165f908152601a820160205260409020829055601b01805461338790612eab565b90556040516001600160a01b03831681527f8008ec1d8798725ebfa0f2d128d52e8e717dcba6e0f786557eeee70614b02bf190602090a290565b60405162461bcd60e51b815260206004820152602e60248201527f636f6465206d7573742062652076616c696461746564206265666f726520707260448201526d37b3b930b69031b932b0ba34b7b760911b6064820152608490fd5b5f5160206140675f395f51905f52546001600160a01b0316330361343d57565b63118cdaa760e01b5f523360045260245ffd5b5f6040805161345e81612b27565b828152826020820152015260405161347581612b27565b5f815263ffffffff4316602082015265ffffffffffff4216604082015290565b9291908051906020810191825170014551231950b75fc4402da1732fc9bebe1982109182613718575b5050156136c457518455516001840155604051906135016021836020808201945f86528051918291018484015e81015f838201520301601f198101845283612b71565b61353e602b604051809360208201956a600b5981380380925939f360a81b87525180918484015e81015f838201520301601f198101835282612b71565b51905ff06001600160a01b0381161561368b576002830180546001600160a01b0319166001600160a01b039092169190911790555f5b6004830180548210156135b2575f90815260208082208301546001600160a01b0316825260038501905260409020805460ff19169055600101613574565b5050925f5b84518110156135fb576001906001600160a01b036135d58288612da0565b5116828060a01b03165f526003840160205260405f208260ff19825416179055016135b7565b5092600482018151916001600160401b038311612b4257600160401b8311612b42578154838355808410613665575b50602001905f5260205f205f5b838110613648575050505060050155565b82516001600160a01b031681830155602090920191600101613637565b825f528360205f2091820191015b818110613680575061362a565b5f8155600101613673565b60405162461bcd60e51b81526020600482015260116024820152701111541313d65351539517d19052531151607a1b6044820152606490fd5b60405162461bcd60e51b815260206004820152602660248201527f46524f53542061676772656761746564207075626c6963206b657920697320696044820152651b9d985b1a5960d21b6064820152608490fd5b6137229250613fc1565b5f806134be565b803b905f19820190828211612cf75760019060405193603e601f19910116840160405282845260208401903c90565b903590605e1981360301821215611134570190565b90816020910312611134575180151581036111345790565b909493919365ffffffffffff600283015460201c166137bb6137c66137c06137ad8442612cea565b601687015493848092612d0b565b612f06565b83612ef9565b918284108080613b74575b15613b0257508310613abd576137e79083612ef9565b10613a6c576137f7905b82613bc7565b94601960f81b5f523060601b60025260165260365f209360028110156129f0578061392d575050600181036138e85715612d8c57803590601e198136030182121561113457018035906001600160401b03821161113457602001813603811361113457613865913691612b92565b9160608351036138935782602061389094015160606040830151920151926001815491015490613c73565b90565b60405162461bcd60e51b815260206004820152602760248201527f46524f5354207369676e6174757265206c656e677468206d75737420626520396044820152663620627974657360c81b6064820152608490fd5b60405162461bcd60e51b815260206004820152601e60248201527f46524f5354207369676e6174757265206d7573742062652073696e676c6500006044820152606490fd5b9193916001146139405750505050505f90565b61395a9061ffff6008600488979801549201541690613ba5565b925f9260035f9201915b86811061397657505050505050505f90565b86811015612d8c578060051b820135601e19833603018112156111345782018035906001600160401b038211611134576020018136038113611134576139d4916139cb916139c5913691612b92565b86613f27565b90929192613f61565b6001600160a01b0381165f9081526020859052604090205460ff166139ff575b506001905b01613964565b6001600160a01b03165f9081527ff02b465737fa6045c2ff53fb2df43c66916ac2166fa303264668fb2f6a1d8c0060205260409020805c15613a4457506001906139f9565b946001613a5292965d612eab565b93858514613a60575f6139f4565b50505050505050600190565b60405162461bcd60e51b8152602060048201526024808201527f74696d657374616d70206973206f6c646572207468616e2070726576696f75736044820152632065726160e01b6064820152608490fd5b60405162461bcd60e51b815260206004820152601e60248201527f63616e6e6f742076616c6964617465206265666f72652067656e6573697300006044820152606490fd5b9392915050428211613b25576137f792613b1d575b506137f1565b90505f613b17565b60405162461bcd60e51b815260206004820152602160248201527f74696d657374616d702063616e6e6f7420626520696e207468652066757475726044820152606560f81b6064820152608490fd5b50613b83601887015485612ef9565b42106137d1565b613b944282613e3e565b15613b9f5760090190565b600f0190565b61ffff613bb3921690612f06565b61270f8101809111612cf757612710900490565b90613bd29082613e3e565b15613bdd57600f0190565b60090190565b60ff5f5160206140a75f395f51905f525460401c1615613bff57565b631afcd79f60e31b5f5260045ffd5b905f194301438111612cf757805b613c27575b505f9150565b8040838103613c3857506001925050565b15613c46575f190180613c1c565b613c21565b356001600160801b03811681036111345790565b35906001600160801b038216820361113457565b9293919490613c828587613fc1565b15613e34578215613e345770014551231950b75fc4402da1732fc9bebe19831015613e34576001169061010e6040519161012083018381106001600160401b038211176111345760405260883684376002600188160160888401538760898401526002840160a984015360aa830186905260ca8301527e300046524f53542d736563703235366b312d4b454343414b3235362d76316360ea8301526303430b6160e51b61010a830152812060cc820181815290600260ec84016001815360428420809318845253604270014551231950b75fc4402da1732fc9bebe19922060801c6001600160401b0360801b8260801b16179070014551231950b75fc4402da1732fc9bebe1990600160c01b9060401c09088015613e295784601b6080945f9660209870014551231950b75fc4402da1732fc9bebe19910970014551231950b75fc4402da1732fc9bebe19038552018684015280604084015270014551231950b75fc4402da1732fc9bebe19910970014551231950b75fc4402da1732fc9bebe1903606082015282805260015afa505f51915f5260205260018060a01b0360405f20161490565b505050505050505f90565b5050505050505f90565b906014600e830154920154808314613ee357818184109311918215911115918190613edc575b15613e795782613e7357505090565b14919050565b60405162461bcd60e51b815260206004820152603560248201527f636f756c64206e6f74206964656e746966792076616c696461746f727320666f6044820152740722074686520676976656e2074696d657374616d7605c1b6064820152608490fd5b5081613e64565b606460405162461bcd60e51b815260206004820152602060248201527f657261732074696d657374616d70206d757374206e6f7420626520657175616c6044820152fd5b8151919060418303613f5757613f509250602082015190606060408401519301515f1a90613fe4565b9192909190565b50505f9160029190565b60048110156129f05780613f73575050565b60018103613f8a5763f645eedf60e01b5f5260045ffd5b60028103613fa5575063fce698f760e01b5f5260045260245ffd5b600314613faf5750565b6335e2f38360e21b5f5260045260245ffd5b6401000003d01990600790829081818009900908906401000003d0199080091490565b91907f7fffffffffffffffffffffffffffffff5d576e7357a4501ddfe92f46681b20a0841161405b579160209360809260ff5f9560405194855216868401526040830152606082015282805260015afa156128bd575f516001600160a01b0381161561405157905f905f90565b505f906001905f90565b5050505f916003919056fe9016d09d72d40fdae2fd8ceac6b6234c7706214fd39c1cd1e609a0528c1993005c09ca1b9b8127a4fd9f3c384aac59b661441e820e17733753ff5f2e86e1e000f0c57e16840df040f15088dc2f81fe391c3923bec73e23a9662efc9c229c6a00f0c57e16840df040f15088dc2f81fe391c3923bec73e23a9662efc9c229c6a00","linkReferences":{}},"methodIdentifiers":{"areValidators(address[])":"8f381dbe","codeState(bytes32)":"c13911e8","codesStates(bytes32[])":"82bdeaad","commitBatch(((bytes32,uint48,bool)[],(bytes32,uint48,bytes32,bytes32,(address,bytes32,address,uint128,(bytes32,address,uint128)[],(bytes32,address,bytes,uint128,(bytes32,bytes4))[])[])[],((uint256,bytes32),((address,uint256)[],uint256,address),uint48)[]),uint8,bytes[])":"a541b884","commitValidators(((uint256,uint256),bytes,address[],uint256),uint8,bytes[])":"aa54494a","computeSettings()":"84d22a4f","createProgram(bytes32,bytes32)":"527de0f9","createProgramWithAbiInterface(bytes32,bytes32,address)":"38f0efe5","genesisBlockHash()":"28e24b3d","genesisTimestamp()":"cacf66ab","initialize(address,address,address,address,uint256,uint256,uint256,(uint256,uint256),bytes,address[])":"53f7fd48","isValidator(address)":"facd743b","latestCommittedBlockHash()":"c9f16a11","lookupGenesisHash()":"8b1edf1e","mirrorImpl()":"e6fabc09","owner()":"8da5cb5b","programCodeId(address)":"9067088e","programsCodeIds(address[])":"baaf0201","programsCount()":"96a2ddfa","reinitialize()":"6c2eb350","renounceOwnership()":"715018a6","requestCodeValidation(bytes32)":"120e3f1e","setMirror(address)":"3d43b418","signingThresholdPercentage()":"efd81abc","transferOwnership(address)":"f2fde38b","validatedCodesCount()":"007a32e7","validators()":"ca1e7819","validatorsAggregatedPublicKey()":"3bd109fa","validatorsCount()":"ed612f8c","validatorsThreshold()":"edc87225","validatorsVerifiableSecretSharingCommitment()":"a5d53a44","wrappedVara()":"88f50cf0"},"storageLayout":{"storage":[],"types":{}},"id":161}