{"abi":[{"type":"constructor","inputs":[],"stateMutability":"nonpayable"},{"type":"function","name":"areValidators","inputs":[{"name":"_validators","type":"address[]","internalType":"address[]"}],"outputs":[{"name":"","type":"bool","internalType":"bool"}],"stateMutability":"view"},{"type":"function","name":"codeState","inputs":[{"name":"_codeId","type":"bytes32","internalType":"bytes32"}],"outputs":[{"name":"","type":"uint8","internalType":"enum Gear.CodeState"}],"stateMutability":"view"},{"type":"function","name":"codesStates","inputs":[{"name":"_codesIds","type":"bytes32[]","internalType":"bytes32[]"}],"outputs":[{"name":"","type":"uint8[]","internalType":"enum Gear.CodeState[]"}],"stateMutability":"view"},{"type":"function","name":"commitBatch","inputs":[{"name":"_batchCommitment","type":"tuple","internalType":"struct Gear.BatchCommitment","components":[{"name":"codeCommitments","type":"tuple[]","internalType":"struct Gear.CodeCommitment[]","components":[{"name":"id","type":"bytes32","internalType":"bytes32"},{"name":"timestamp","type":"uint48","internalType":"uint48"},{"name":"valid","type":"bool","internalType":"bool"}]},{"name":"blockCommitments","type":"tuple[]","internalType":"struct Gear.BlockCommitment[]","components":[{"name":"hash","type":"bytes32","internalType":"bytes32"},{"name":"timestamp","type":"uint48","internalType":"uint48"},{"name":"previousCommittedBlock","type":"bytes32","internalType":"bytes32"},{"name":"predecessorBlock","type":"bytes32","internalType":"bytes32"},{"name":"transitions","type":"tuple[]","internalType":"struct Gear.StateTransition[]","components":[{"name":"actorId","type":"address","internalType":"address"},{"name":"newStateHash","type":"bytes32","internalType":"bytes32"},{"name":"exited","type":"bool","internalType":"bool"},{"name":"inheritor","type":"address","internalType":"address"},{"name":"valueToReceive","type":"uint128","internalType":"uint128"},{"name":"valueClaims","type":"tuple[]","internalType":"struct Gear.ValueClaim[]","components":[{"name":"messageId","type":"bytes32","internalType":"bytes32"},{"name":"destination","type":"address","internalType":"address"},{"name":"value","type":"uint128","internalType":"uint128"}]},{"name":"messages","type":"tuple[]","internalType":"struct Gear.Message[]","components":[{"name":"id","type":"bytes32","internalType":"bytes32"},{"name":"destination","type":"address","internalType":"address"},{"name":"payload","type":"bytes","internalType":"bytes"},{"name":"value","type":"uint128","internalType":"uint128"},{"name":"replyDetails","type":"tuple","internalType":"struct Gear.ReplyDetails","components":[{"name":"to","type":"bytes32","internalType":"bytes32"},{"name":"code","type":"bytes4","internalType":"bytes4"}]},{"name":"call","type":"bool","internalType":"bool"}]}]}]},{"name":"rewardCommitments","type":"tuple[]","internalType":"struct Gear.RewardsCommitment[]","components":[{"name":"operators","type":"tuple","internalType":"struct Gear.OperatorRewardsCommitment","components":[{"name":"amount","type":"uint256","internalType":"uint256"},{"name":"root","type":"bytes32","internalType":"bytes32"}]},{"name":"stakers","type":"tuple","internalType":"struct Gear.StakerRewardsCommitment","components":[{"name":"distribution","type":"tuple[]","internalType":"struct Gear.StakerRewards[]","components":[{"name":"vault","type":"address","internalType":"address"},{"name":"amount","type":"uint256","internalType":"uint256"}]},{"name":"totalAmount","type":"uint256","internalType":"uint256"},{"name":"token","type":"address","internalType":"address"}]},{"name":"timestamp","type":"uint48","internalType":"uint48"}]}]},{"name":"_signatureType","type":"uint8","internalType":"enum Gear.SignatureType"},{"name":"_signatures","type":"bytes[]","internalType":"bytes[]"}],"outputs":[],"stateMutability":"nonpayable"},{"type":"function","name":"commitValidators","inputs":[{"name":"_validatorsCommitment","type":"tuple","internalType":"struct Gear.ValidatorsCommitment","components":[{"name":"aggregatedPublicKey","type":"tuple","internalType":"struct Gear.AggregatedPublicKey","components":[{"name":"x","type":"uint256","internalType":"uint256"},{"name":"y","type":"uint256","internalType":"uint256"}]},{"name":"verifiableSecretSharingCommitment","type":"bytes","internalType":"bytes"},{"name":"validators","type":"address[]","internalType":"address[]"},{"name":"eraIndex","type":"uint256","internalType":"uint256"}]},{"name":"_signatureType","type":"uint8","internalType":"enum Gear.SignatureType"},{"name":"_signatures","type":"bytes[]","internalType":"bytes[]"}],"outputs":[],"stateMutability":"nonpayable"},{"type":"function","name":"computeSettings","inputs":[],"outputs":[{"name":"","type":"tuple","internalType":"struct Gear.ComputationSettings","components":[{"name":"threshold","type":"uint64","internalType":"uint64"},{"name":"wvaraPerSecond","type":"uint128","internalType":"uint128"}]}],"stateMutability":"view"},{"type":"function","name":"createProgram","inputs":[{"name":"_codeId","type":"bytes32","internalType":"bytes32"},{"name":"_salt","type":"bytes32","internalType":"bytes32"},{"name":"_overrideInitializer","type":"address","internalType":"address"}],"outputs":[{"name":"","type":"address","internalType":"address"}],"stateMutability":"nonpayable"},{"type":"function","name":"createProgramWithAbiInterface","inputs":[{"name":"_codeId","type":"bytes32","internalType":"bytes32"},{"name":"_salt","type":"bytes32","internalType":"bytes32"},{"name":"_overrideInitializer","type":"address","internalType":"address"},{"name":"_abiInterface","type":"address","internalType":"address"}],"outputs":[{"name":"","type":"address","internalType":"address"}],"stateMutability":"nonpayable"},{"type":"function","name":"genesisBlockHash","inputs":[],"outputs":[{"name":"","type":"bytes32","internalType":"bytes32"}],"stateMutability":"view"},{"type":"function","name":"genesisTimestamp","inputs":[],"outputs":[{"name":"","type":"uint48","internalType":"uint48"}],"stateMutability":"view"},{"type":"function","name":"initialize","inputs":[{"name":"_owner","type":"address","internalType":"address"},{"name":"_mirror","type":"address","internalType":"address"},{"name":"_wrappedVara","type":"address","internalType":"address"},{"name":"_middleware","type":"address","internalType":"address"},{"name":"_eraDuration","type":"uint256","internalType":"uint256"},{"name":"_electionDuration","type":"uint256","internalType":"uint256"},{"name":"_validationDelay","type":"uint256","internalType":"uint256"},{"name":"_aggregatedPublicKey","type":"tuple","internalType":"struct Gear.AggregatedPublicKey","components":[{"name":"x","type":"uint256","internalType":"uint256"},{"name":"y","type":"uint256","internalType":"uint256"}]},{"name":"_verifiableSecretSharingCommitment","type":"bytes","internalType":"bytes"},{"name":"_validators","type":"address[]","internalType":"address[]"}],"outputs":[],"stateMutability":"nonpayable"},{"type":"function","name":"isValidator","inputs":[{"name":"_validator","type":"address","internalType":"address"}],"outputs":[{"name":"","type":"bool","internalType":"bool"}],"stateMutability":"view"},{"type":"function","name":"latestCommittedBlockHash","inputs":[],"outputs":[{"name":"","type":"bytes32","internalType":"bytes32"}],"stateMutability":"view"},{"type":"function","name":"lookupGenesisHash","inputs":[],"outputs":[],"stateMutability":"nonpayable"},{"type":"function","name":"mirrorImpl","inputs":[],"outputs":[{"name":"","type":"address","internalType":"address"}],"stateMutability":"view"},{"type":"function","name":"owner","inputs":[],"outputs":[{"name":"","type":"address","internalType":"address"}],"stateMutability":"view"},{"type":"function","name":"programCodeId","inputs":[{"name":"_programId","type":"address","internalType":"address"}],"outputs":[{"name":"","type":"bytes32","internalType":"bytes32"}],"stateMutability":"view"},{"type":"function","name":"programsCodeIds","inputs":[{"name":"_programsIds","type":"address[]","internalType":"address[]"}],"outputs":[{"name":"","type":"bytes32[]","internalType":"bytes32[]"}],"stateMutability":"view"},{"type":"function","name":"programsCount","inputs":[],"outputs":[{"name":"","type":"uint256","internalType":"uint256"}],"stateMutability":"view"},{"type":"function","name":"reinitialize","inputs":[],"outputs":[],"stateMutability":"nonpayable"},{"type":"function","name":"renounceOwnership","inputs":[],"outputs":[],"stateMutability":"nonpayable"},{"type":"function","name":"requestCodeValidation","inputs":[{"name":"_codeId","type":"bytes32","internalType":"bytes32"}],"outputs":[],"stateMutability":"nonpayable"},{"type":"function","name":"setMirror","inputs":[{"name":"newMirror","type":"address","internalType":"address"}],"outputs":[],"stateMutability":"nonpayable"},{"type":"function","name":"signingThresholdPercentage","inputs":[],"outputs":[{"name":"","type":"uint16","internalType":"uint16"}],"stateMutability":"view"},{"type":"function","name":"transferOwnership","inputs":[{"name":"newOwner","type":"address","internalType":"address"}],"outputs":[],"stateMutability":"nonpayable"},{"type":"function","name":"validatedCodesCount","inputs":[],"outputs":[{"name":"","type":"uint256","internalType":"uint256"}],"stateMutability":"view"},{"type":"function","name":"validators","inputs":[],"outputs":[{"name":"","type":"address[]","internalType":"address[]"}],"stateMutability":"view"},{"type":"function","name":"validatorsAggregatedPublicKey","inputs":[],"outputs":[{"name":"","type":"tuple","internalType":"struct Gear.AggregatedPublicKey","components":[{"name":"x","type":"uint256","internalType":"uint256"},{"name":"y","type":"uint256","internalType":"uint256"}]}],"stateMutability":"view"},{"type":"function","name":"validatorsCount","inputs":[],"outputs":[{"name":"","type":"uint256","internalType":"uint256"}],"stateMutability":"view"},{"type":"function","name":"validatorsThreshold","inputs":[],"outputs":[{"name":"","type":"uint256","internalType":"uint256"}],"stateMutability":"view"},{"type":"function","name":"validatorsVerifiableSecretSharingCommitment","inputs":[],"outputs":[{"name":"","type":"bytes","internalType":"bytes"}],"stateMutability":"view"},{"type":"function","name":"wrappedVara","inputs":[],"outputs":[{"name":"","type":"address","internalType":"address"}],"stateMutability":"view"},{"type":"event","name":"BlockCommitted","inputs":[{"name":"hash","type":"bytes32","indexed":false,"internalType":"bytes32"}],"anonymous":false},{"type":"event","name":"CodeGotValidated","inputs":[{"name":"codeId","type":"bytes32","indexed":false,"internalType":"bytes32"},{"name":"valid","type":"bool","indexed":true,"internalType":"bool"}],"anonymous":false},{"type":"event","name":"CodeValidationRequested","inputs":[{"name":"codeId","type":"bytes32","indexed":false,"internalType":"bytes32"}],"anonymous":false},{"type":"event","name":"ComputationSettingsChanged","inputs":[{"name":"threshold","type":"uint64","indexed":false,"internalType":"uint64"},{"name":"wvaraPerSecond","type":"uint128","indexed":false,"internalType":"uint128"}],"anonymous":false},{"type":"event","name":"Initialized","inputs":[{"name":"version","type":"uint64","indexed":false,"internalType":"uint64"}],"anonymous":false},{"type":"event","name":"NextEraValidatorsCommitted","inputs":[{"name":"startTimestamp","type":"uint256","indexed":false,"internalType":"uint256"}],"anonymous":false},{"type":"event","name":"OwnershipTransferred","inputs":[{"name":"previousOwner","type":"address","indexed":true,"internalType":"address"},{"name":"newOwner","type":"address","indexed":true,"internalType":"address"}],"anonymous":false},{"type":"event","name":"ProgramCreated","inputs":[{"name":"actorId","type":"address","indexed":false,"internalType":"address"},{"name":"codeId","type":"bytes32","indexed":true,"internalType":"bytes32"}],"anonymous":false},{"type":"event","name":"StorageSlotChanged","inputs":[],"anonymous":false},{"type":"error","name":"ECDSAInvalidSignature","inputs":[]},{"type":"error","name":"ECDSAInvalidSignatureLength","inputs":[{"name":"length","type":"uint256","internalType":"uint256"}]},{"type":"error","name":"ECDSAInvalidSignatureS","inputs":[{"name":"s","type":"bytes32","internalType":"bytes32"}]},{"type":"error","name":"InvalidInitialization","inputs":[]},{"type":"error","name":"NotInitializing","inputs":[]},{"type":"error","name":"OwnableInvalidOwner","inputs":[{"name":"owner","type":"address","internalType":"address"}]},{"type":"error","name":"OwnableUnauthorizedAccount","inputs":[{"name":"account","type":"address","internalType":"address"}]},{"type":"error","name":"ReentrancyGuardReentrantCall","inputs":[]}],"bytecode":{"object":"0x6080806040523460aa575f5160206145675f395f51905f525460ff8160401c16609b576002600160401b03196001600160401b038216016049575b6040516144b890816100af8239f35b6001600160401b0319166001600160401b039081175f5160206145675f395f51905f525581527fc7f505b2f371ae2175ee4913f4499e1f2633a7b5936321eed1cdaeb6115181d290602090a15f80603a565b63f92ee8a960e01b5f5260045ffd5b5f80fdfe610200806040526004361015610013575f80fd5b5f610180525f3560e01c9081627a32e714613270575080630c18d27714612d69578063120e3f1e14612bde57806328e24b3d14612bae5780633683c4d21461293a5780633bd109fa146128e95780633d43b4181461289257806353f7fd48146123305780636c2eb35014612013578063715018a614611fa157806382bdeaad14611e9057806384d22a4f14611e2557806388f50cf014611dea5780638b1edf1e14611d195780638da5cb5b14611ce25780638f381dbe14611c9d5780639067088e14611c5557806396a2ddfa14611c25578063a5d53a4414611bb1578063aa54494a14611778578063baaf020114611677578063c13911e81461162d578063c9f16a11146115fd578063ca1e781914611576578063cacf66ab1461153c578063e6fabc0914611501578063ed612f8c146114c7578063edc872251461147b578063efd81abc14611447578063f2fde38b14611417578063facd743b146113c05763fc491f5d14610181575f80fd5b34610845576060366003190112610845576004356001600160401b03811161084557606060031982360301126108455760026024351015610845576044356001600160401b038111610845576101db9036906004016132f0565b91907f9b779b17422d0df92223018b32b4d1fa46e071723d6817e2486d003becc55f005c6113ab5760017f9b779b17422d0df92223018b32b4d1fa46e071723d6817e2486d003becc55f005d5f5160206144785f395f51905f52546101405261024c60016101405101541515613448565b61025960048301806136cb565b90501580611392575b61134d5791610285600161027c6044850185600401613700565b90501115613735565b61018051610100819052606060805260e0525b6102a86024830183600401613700565b905060e0511015610b8f576102c36024830183600401613700565b9060c05260e0511015610b755760e05160051b60c051013560a052609e1960c05136030160a0511215610845576003610140510154604060a05160c05101013503610b2257610140515415610ab7575b60206103268160a05160c05101016137d3565b65ffffffffffff6040519161033a8361335c565b60a05160c0510135835216918291015260a05160c0510135600361014051015565ffffffffffff1960046101405101541617600461014051015561038d608060a05160c051010160a05160c05101613700565b6101c05261016052610180519160605b6101c0518410156109a45761018051508360051b6101605101356101e05260de19610160513603016101e0511215610845576103e06101e05161016051016135ba565b6001600160a01b03165f90815261014051601a01602052604090205415610947576001600160801b0361041d60806101e051610160510101614125565b16610896575b6101e051610160516001600160a01b039161043e91016135ba565b166040516101a0526302c649c960e01b6101a05152602060046101a051015260018060a01b036104756101e05161016051016132dc565b1660246101a051015260206101e0516101605101013560446101a05101526104a760406101e051610160510101613801565b151560646101a051015260018060a01b036104cc60606101e0516101605101016132dc565b1660846101a05101526001600160801b036104f160806101e051610160510101614139565b1660a46101a051015260a06101e05161016051010135601e196101e0516101605101360301811215610845576101e051610160510101906001600160401b03823511610845576060823502360360208301136108455760e060c46101a05101526101046101a051505081356101046101a05101526101246101a0510191602081019061018051905b8035821061084c5750506101e051610160510160c08101359391503603601e1901831215610845576001600160401b036101e051610160510184013511610845576101e05161016051018301803560051b360360209091011361084557906023196101a05183030160e46101a05101526101e051610160510183013582526020820160206101e051610160510185013560051b8401019260206101e05161016051018601019461018051915b6101e051610160510182013583106106c65750505050602092506101a051916101a0519003906101a0519061018051905af180156106b857610180519061067b575b610673906001926137a6565b93019261039d565b5060203d81116106b1575b806106966020926101a051613377565b6101a05190810103126106ad576101a05151610667565b5f80fd5b503d610686565b6040513d61018051823e3d90fd5b9091929394601f19828203018552863560fe196101e051610160510185013603018112156108455760206101e0516101605101850182010135825260018060a01b0361072060406101e051610160510187018401016132dc565b1660208301526101e05161016051606091018501820190810135903603603e1901811215610845576101e05161016051018501820101602001906001600160401b03823511610845578135360360208301136108455760e06040840152813560e0840152813560208301610100850137610180516101008335850101526001600160801b036107bd60806101e05161016051018801840101614139565b16606084015260a06101e0516101605101860182010135608084015260c06101e051610160510186018201013563ffffffff60e01b8116809103610845578360209361082360e086956101009560a060019a01526101e05161016051018b010101613801565b151560c0830152601f8019913501160101980195019301919095949395610625565b6101805180fd5b90919360608060019287358152838060a01b0361086b60208a016132dc565b1660208201526001600160801b0361088560408a01614139565b166040820152019501920190610579565b6001600160801b03602060018060a01b0360066101405101541660446108c36101e05161016051016135ba565b6108d760806101e051610160510101614125565b60405163a9059cbb60e01b81526001600160a01b0390921660048301529490941660248501526101805184928391905af180156106b857610919575b50610423565b6109399060203d8111610940575b6109318183613377565b810190613b9b565b505f610913565b503d610927565b60405162461bcd60e51b815260206004820152602f60248201527f636f756c646e277420706572666f726d207472616e736974696f6e20666f722060448201526e756e6b6e6f776e2070726f6772616d60881b6064820152608490fd5b610a5e919350939193602081519101207fd756eca21e02cb0dbde1e44a4d9c6921b5c8aa4668cfa0752784b3dc855bce1e602060405160a05160c05101358152a16109f7602060a05160c05101016137d3565b9060405190602082019260a05160c0510135845265ffffffffffff60d01b9060d01b166040830152604060a05160c0510101356046830152606060a05160c0510101356066830152608682015260868152610a5360a682613377565b5190206080516137a6565b6080526101005165ffffffffffff610a7e602060a05160c05101016137d3565b1611610a94575b600160e0510160e05291610298565b65ffffffffffff610aad602060a05160c05101016137d3565b1661010052610a85565b610aca606060a05160c0510101356140e8565b6103135760405162461bcd60e51b815260206004820152602660248201527f616c6c6f776564207072656465636573736f7220626c6f636b207761736e277460448201526508199bdd5b9960d21b6064820152608490fd5b60405162461bcd60e51b815260206004820152602560248201527f696e76616c69642070726576696f757320636f6d6d697474656420626c6f636b604482015264040d0c2e6d60db1b6064820152608490fd5b634e487b7160e01b61018051526032600452602461018051fd5b610180516060939291905b610ba760048401806136cb565b9050811015610e1557610bbd60048401806136cb565b8291921015610b75576060810282013561018051526019610140510160205260ff6040610180512054166003811015610dfb57600103610d9857610c086040606083028401016137e6565b15610d6e5761018080516060830284013590526101405160198101602052905160409020805460ff19166002179055601c018054610c45906137f3565b90555b610c596040606083028401016137e6565b15157f460119a8f69a33ed127de517d5ea464e958ce23ef19e4420a8b92bf780bbc2c96020604051606085028601358152a26060808202830136031261084557604051610ca58161332d565b606082028301803582526020019687359365ffffffffffff8516850361084557846040846001976020610d30970152610ce48260608902860101613801565b9182910152604051916020830193606088020135845265ffffffffffff60d01b9060d01b166040830152151560f81b604682015260278152610d27604782613377565b519020906137a6565b956101005165ffffffffffff610d45836137d3565b1611610d53575b5001610b9a565b610d6365ffffffffffff916137d3565b16610100525f610d4c565b606081028201356101805152601961014051016020526040610180512060ff198154169055610c48565b60405162461bcd60e51b815260206004820152603560248201527f636f6465206d7573742062652072657175657374656420666f722076616c6964604482015274185d1a5bdb881d1bc818994818dbdb5b5a5d1d1959605a1b6064820152608490fd5b634e487b7160e01b61018051526021600452602461018051fd5b50606093929091610e2c6044820160048301613700565b9050610f03575b50610e8c9360805151602060805101209360208151910120906020815191012060405191602083019586526040830152606082015260608152610e77608082613377565b61010051936024359151902061014051613bb3565b15610ebe57610180517f9b779b17422d0df92223018b32b4d1fa46e071723d6817e2486d003becc55f005d6101805180f35b60405162461bcd60e51b815260206004820152601e60248201527f7369676e61747572657320766572696669636174696f6e206661696c656400006044820152606490fd5b80610f246001610f1c6044610f31950184600401613700565b905014613735565b6044810190600401613700565b15610b75578035607e19823603018112156108455785818301019165ffffffffffff610f5c846137d3565b16156112fc57610f6b836137d3565b65ffffffffffff429116101561129e576101405160078101546006909101548383018035946001600160a01b03938416949390921690602090610fc0908290610fb8906040810190613b86565b01358761363a565b60446040518094819363095ea7b360e01b8352896004840152602483015261018051905af180156106b857611281575b5060018060a01b03600661014051015416936040519463394f179b60e11b86526004860152602485015260208183010135604485015260208460648161018051875af19384156106b8576101805194611249575b5061105491016040810190613b86565b9061105e846137d3565b60408051610120818152637fbe95b560e01b9091525160040152823536849003601e19018112156108455783019260208401936001600160401b0381351161084557803560061b36038513610845578a604461012051015260a4610120515050803560a461012051015260c461012051019490610180515b81358110611219575050506020939291818565ffffffffffff930135606461012051015261110d604060018060a01b0392016132dc565b166084610120510152166024610120510152610120519161012051900390610120519061018051905af180156106b85761018051906111df575b610e8c96611154846137d3565b6040519260208401948552604084015265ffffffffffff60d01b9060d01b169082015260468152611186606682613377565b519020604051906020820152602081526111a1604082613377565b906101005165ffffffffffff6111b6836137d3565b16116111c4575b5093610e33565b6111d465ffffffffffff916137d3565b16610100525f6111bd565b5060203d602011611212575b806111fb60209261012051613377565b6101205190810103126106ad576101205151611147565b503d6111eb565b909195604080600192838060a01b036112318b6132dc565b16815260208a810135908201520197019291016110d6565b919093506020823d602011611279575b8161126660209383613377565b810103126106ad57905192611054611044565b3d9150611259565b6112999060203d602011610940576109318183613377565b610ff0565b60405162461bcd60e51b815260206004820152603060248201527f7265776172647320636f6d6d69746d656e742074696d657374616d70206d757360448201526f1d081899481a5b881d1a19481c185cdd60821b6064820152608490fd5b60405162461bcd60e51b8152602060048201526024808201527f7265776172647320636f6d6d69746d656e742074696d657374616d70206973206044820152637a65726f60e01b6064820152608490fd5b60405162461bcd60e51b815260206004820152601860248201527f6e6f20636f6d6d69746d656e747320746f20636f6d6d697400000000000000006044820152606490fd5b506113a36024830183600401613700565b905015610262565b633ee5aeb560e01b6101805152600461018051fd5b34610845576020366003190112610845576113d96132c6565b60036113f45f5160206144785f395f51905f52544290613fb8565b019060018060a01b03165f52602052602060ff60405f2054166040519015158152f35b34610845576020366003190112610845576114406114336132c6565b61143b61380e565b61365a565b6101805180f35b34610845576101805136600319011261084557602061ffff60085f5160206144785f395f51905f5254015416604051908152f35b3461084557610180513660031901126108455760206114bf5f5160206144785f395f51905f525461ffff600860046114b34285613fb8565b01549201541690613b64565b604051908152f35b34610845576101805136600319011261084557602060046114f75f5160206144785f395f51905f52544290613fb8565b0154604051908152f35b346108455761018051366003190112610845575f5160206144785f395f51905f5254600501546040516001600160a01b039091168152602090f35b34610845576101805136600319011261084557602065ffffffffffff60025f5160206144785f395f51905f52540154821c16604051908152f35b346108455761018051366003190112610845576115ad60046115a75f5160206144785f395f51905f52544290613fb8565b0161352f565b604051809160208201602083528151809152602060408401920190610180515b8181106115db575050500390f35b82516001600160a01b03168452859450602093840193909201916001016115cd565b34610845576101805136600319011261084557602060035f5160206144785f395f51905f52540154604051908152f35b346108455760203660031901126108455760195f5160206144785f395f51905f5254016004356101805152602052602060ff6040610180512054166116756040518092613320565bf35b34610845576020366003190112610845576004356001600160401b038111610845576116a79036906004016132f0565b5f5160206144785f395f51905f5254916116c0826133dd565b926116ce6040519485613377565b8284526116da836133dd565b602085019390601f1901368537601a610180519201915b81811061173f57848660405191829160208301906020845251809152604083019190610180515b818110611726575050500390f35b8251845285945060209384019390920191600101611718565b806117556117506001938588613582565b6135ba565b828060a01b03165f528360205260405f205461177182896135a6565b52016116f1565b34610845576060366003190112610845576004356001600160401b038111610845576003198136030160a08112610845576040519060808201908282106001600160401b03831117611b9757604091825212610845576040516117da8161335c565b8260040135815260248301356020820152815260448201356001600160401b0381116108455782013660238201121561084557611821903690602460048201359101613398565b6020820190815260648301356001600160401b038111610845578301366023820112156108455761185c9036906024600482013591016133f4565b9060408301918252608460608401940135845260026024351015610845576044356001600160401b038111610845576118999036906004016132f0565b9190935f5160206144785f395f51905f52546118ba60018201541515613448565b65ffffffffffff600282015460201c166118d481426134f0565b906118e460168401548093613511565b895160018201809211611b7d5703611b255761190561190b928a5190613647565b9061363a565b9361191a6017830154866134f0565b4210611ae05761192982613b49565b964260058901541015611a805783516020815191015188519a51604051916020830193845260408301526060820160208d51919d0190610180515b818110611a61575050506020828d61198b936119b89a9b9c9d9e9f52038084520182613377565b519020926040519060208201948552602082526119a9604083613377565b42946024359251902090613bb3565b15611a01577f41e7f919bf726af8aa2ef36bd31905a693013e30c45c6284060e613d4941997b946020946119f3938593519051915192613886565b604051908152a16101805180f35b60405162461bcd60e51b815260206004820152603260248201527f6e657874206572612076616c696461746f7273207369676e6174757265732076604482015271195c9a599a58d85d1a5bdb8819985a5b195960721b6064820152608490fd5b82516001600160a01b03168f5260209e8f019e90920191600101611964565b60405162461bcd60e51b815260206004820152603260248201527f6c6f6f6b73206c696b652076616c696461746f727320666f72206e65787420656044820152711c9848185c9948185b1c9958591e481cd95d60721b6064820152608490fd5b60405162461bcd60e51b815260206004820152601b60248201527f656c656374696f6e206973206e6f7420796574207374617274656400000000006044820152606490fd5b60405162461bcd60e51b815260206004820152602a60248201527f636f6d6d69746d656e742065726120696e646578206973206e6f74206e657874604482015269040cae4c240d2dcc8caf60b31b6064820152608490fd5b634e487b7160e01b61018051526011600452602461018051fd5b634e487b7160e01b61018051526041600452602461018051fd5b3461084557610180513660031901126108455760206040611bf65f5160206144785f395f51905f52546002611bee60018060a01b03924290613fb8565b015416613b1a565b815192839181835280519182918282860152018484015e61018051828201840152601f01601f19168101030190f35b346108455761018051366003190112610845576020601b5f5160206144785f395f51905f52540154604051908152f35b3461084557602036600319011261084557611c6e6132c6565b601a5f5160206144785f395f51905f5254019060018060a01b03165f52602052602060405f2054604051908152f35b34610845576020366003190112610845576004356001600160401b03811161084557611cd8611cd260209236906004016132f0565b906135ce565b6040519015158152f35b346108455761018051366003190112610845575f5160206144585f395f51905f52546040516001600160a01b039091168152602090f35b346108455761018051366003190112610845575f5160206144785f395f51905f525460018101908154611da5576002015463ffffffff1640908115611d6057556101805180f35b60405162461bcd60e51b815260206004820152601d60248201527f756e61626c6520746f206c6f6f6b75702067656e6573697320686173680000006044820152606490fd5b60405162461bcd60e51b815260206004820152601860248201527f67656e65736973206861736820616c72656164792073657400000000000000006044820152606490fd5b346108455761018051366003190112610845575f5160206144785f395f51905f5254600601546040516001600160a01b039091168152602090f35b34610845576101805136600319011261084557611e406134ba565b50604060155f5160206144785f395f51905f5254016001600160801b03825191611e698361335c565b548160206001600160401b038316948581520191851c168152835192835251166020820152f35b34610845576020366003190112610845576004356001600160401b03811161084557611ec09036906004016132f0565b5f5160206144785f395f51905f525491611ed9826133dd565b92611ee76040519485613377565b828452611ef3836133dd565b602085019390601f19013685376019610180519201915b818110611f6257848660405191829160208301906020845251809152604083019190610180515b818110611f3f575050500390f35b9193509160208082611f546001948851613320565b019401910191849392611f31565b611f6d818386613582565b3561018051528260205260ff60406101805120541690611f8d81886135a6565b916003811015610dfb576001925201611f0a565b34610845576101805136600319011261084557611fbc61380e565b5f5160206144585f395f51905f5280546001600160a01b0319811690915561018051906001600160a01b03167f8be0079c531659141344cd1fd0a4f28419497f9722a3daafe3b4186f6b6457e08280a36101805180f35b3461084557610180513660031901126108455761202e61380e565b5f5160206144985f395f51905f525460ff8160401c1690811561231b575b50612306575f5160206144985f395f51905f52805468ffffffffffffffffff1916680100000000000000021790555f5160206144785f395f51905f5254604080516120978282613377565b6017815260208101907f726f757465722e73746f726167652e526f75746572563200000000000000000082526120cb61380e565b5190205f19810191908211611b7d577fc7f505b2f371ae2175ee4913f4499e1f2633a7b5936321eed1cdaeb6115181d2926020928251908482019081528482526121158483613377565b60ff19915190201690815f5160206144785f395f51905f5255612136613841565b80516001840155600283019063ffffffff868201511669ffffffffffff00000000868454930151881b169169ffffffffffffffffffff1916171790556005810160058301908082036122b8575b505061ffff600882015416600883019061ffff198254161790556121ec6121aa4283613fb8565b6121c16001600160a01b036002611bee4287613fb8565b6121d760046121d04287613fb8565b01926134d2565b906121e2429361352f565b9160098701613886565b601581016015830190808203612266575b5050601681016016830191818303612246575b5050505060ff60401b195f5160206144985f395f51905f5254165f5160206144985f395f51905f52555160028152a16101805180f35b601892839254905560178101546017850155015491015583808080612210565b806001600160401b03806001600160801b03935416166001600160401b031984541617835554851c16600160401b600160c01b03825491861b1690600160401b600160c01b03191617905585806121fd565b5481546001600160a01b03199081166001600160a01b039283161790925560068381015490850180548416918316919091179055600780840154908501805490931691161790558580612183565b63f92ee8a960e01b6101805152600461018051fd5b600291506001600160401b031610158161204c565b34610845576101603660031901126108455761234a6132c6565b6024356001600160a01b03811691908290036108455761236861329a565b916123716132b0565b9260c43591608435919060a43560403660e31901126108455761012435946001600160401b0386116108455736602387011215610845578560040135916001600160401b03831161084557366024848901011161084557610144356001600160401b038111610845576123e89036906004016132f0565b9690945f5160206144985f395f51905f5254996001600160401b0360ff8c60401c16159b168015908161288a575b6001149081612880575b159081612877575b5061230657612472908b60016001600160401b03195f5160206144985f395f51905f525416175f5160206144985f395f51905f5255612847575b61246a613fd4565b61143b613fd4565b61247a613fd4565b42156127f157821561279b578282111561273a57600a61249a84846134f0565b048410156126f55760409a8b516124b18d82613377565b6017815260208101907f726f757465722e73746f726167652e526f75746572563100000000000000000082526124e561380e565b5190205f19810192908311611b7d578c51602080820194855281528d9361250c8583613377565b60ff19915190201698895f5160206144785f395f51905f525561252d613841565b805160018c015560028b0190602081015163ffffffff1686835492015160201b69ffffffffffff00000000169169ffffffffffffffffffff1916171790558351906125778261332d565b8282526001600160a01b03908116602083018190529381169490910184905260058a018054919092166001600160a01b0319918216179091556006890180548216909217909155600788018054909116909117905560088601805461ffff1916611a0a1790556125e56134ba565b5089516125f18161335c565b639502f90081526509184e72a0006020909101526015860180546001600160c01b0319166d09184e72a000000000009502f900179055895183908b906126368161332d565b83815260208101859052015260168601556017850155601884015586519461265d8661335c565b60e4358652610104356020870152612679913691602401613398565b9042933690612687926133f4565b916009019361269594613886565b6126a0576101805180f35b60207fc7f505b2f371ae2175ee4913f4499e1f2633a7b5936321eed1cdaeb6115181d29160ff60401b195f5160206144985f395f51905f5254165f5160206144985f395f51905f52555160018152a180611440565b60405162461bcd60e51b815260206004820152601b60248201527f76616c69646174696f6e2064656c617920697320746f6f2062696700000000006044820152606490fd5b60405162461bcd60e51b815260206004820152603360248201527f657261206475726174696f6e206d757374206265206772656174657220746861604482015272371032b632b1ba34b7b710323ab930ba34b7b760691b6064820152608490fd5b60405162461bcd60e51b815260206004820152602860248201527f656c656374696f6e206475726174696f6e206d75737420626520677265617465604482015267072207468616e20360c41b6064820152608490fd5b60405162461bcd60e51b815260206004820152602860248201527f63757272656e742074696d657374616d70206d75737420626520677265617465604482015267072207468616e20360c41b6064820152608490fd5b600160401b60ff60401b195f5160206144985f395f51905f525416175f5160206144985f395f51905f5255612462565b9050158d612428565b303b159150612420565b8c9150612416565b34610845576020366003190112610845576128ab6132c6565b6128b361380e565b5f5160206144785f395f51905f525460050180546001600160a01b0319166001600160a01b039092169190911790556101805180f35b346108455761018051366003190112610845576129046134ba565b5060406129286129235f5160206144785f395f51905f52544290613fb8565b6134d2565b60208251918051835201516020820152f35b346108455760603660031901126108455760043561295661329a565b5f5160206144785f395f51905f52546001810154612975901515613448565b8261018051526019810160205260ff6040610180512054166003811015610dfb57600203612b525760405160208101908482526024356040820152604081526129bf606082613377565b51902060405160608101906001600160401b0382118183101761084557605a916040527f3d605080600a3d3981f3608060405263e6fabc0960e01b5f5260205f6004817381523060601b6b5afa15604c575f80805136821760208201527f80378136915af43d5f803e156048573d5ff35b3d5ffd5b5f80fd000000000000604082015261018051f5908115610845576001600160a01b0382165f908152601a820160205260409020849055601b018054612a78906137f3565b90556040516001600160a01b03821680825293907f8008ec1d8798725ebfa0f2d128d52e8e717dcba6e0f786557eeee70614b02bf190602090a2506001600160a01b038116612b4d5750335b5f5160206144785f395f51905f5254600501546001600160a01b0316823b1561084557604051631c9776b560e31b81526001600160a01b039092166004830152602482015260016044820152610180518160648183865af180156106b857612b32575b602082604051908152f35b61018051612b3f91613377565b610180516108455781612b27565b612ac4565b60405162461bcd60e51b815260206004820152602e60248201527f636f6465206d7573742062652076616c696461746564206265666f726520707260448201526d37b3b930b69031b932b0ba34b7b760911b6064820152608490fd5b34610845576101805136600319011261084557602060015f5160206144785f395f51905f52540154604051908152f35b3461084557602036600319011261084557600435610180514915612ced5760195f5160206144785f395f51905f5254612c1c60018201541515613448565b018161018051528060205260ff6040610180512054166003811015610dfb57612c8c576101808051839052602091825251604090819020805460ff19166001179055519182527f5c261a095dd5720475295dc06379921c003c22164ee6cae5cf83e76ce0a1b98591a16101805180f35b60405162461bcd60e51b815260206004820152603360248201527f676976656e20636f646520696420697320616c7265616479206f6e2076616c6960448201527219185d1a5bdb881bdc881d985b1a59185d1959606a1b6064820152608490fd5b60405162461bcd60e51b815260206004820152604860248201527f626c6f622063616e277420626520666f756e642c20726f75746572206578706560448201527f63746564204549502d34383434207472616e73616374696f6e2077697468205760648201526720a9a690313637b160c11b608482015260a490fd5b346106ad5760803660031901126106ad57600435612d8561329a565b90612d8e6132b0565b915f5160206144785f395f51905f5254612dad60018201541515613448565b825f526019810160205260ff60405f205416600381101561325c57600203612b52576040516020810190848252602435604082015260408152612df1606082613377565b5190206040516102c08101908082106001600160401b038311176106ad576102b4916040527f6080806040526102b290816100128239f3fe608060405260043610610268575f81527f3560e01c806329336f391461009b5780632a68e35d1461009657806336a52a1860208201527f14610091578063701da98e1461008c578063704ed5421461008757806391d5a660408201527f4c146100825780639ce110d71461007d578063affed0e0146100785763e43f3460608201527f330361026857610253565b610236565b61020e565b6101f8565b6101df565b6160808201527f01c2565b61019b565b610150565b346100dc5760603660031901126100dc576060a08201527f243567ffffffffffffffff81116100dc576100cc9036906004016100e0565b5060c08201527f506100d661010e565b50610268565b5f80fd5b9181601f840112156100dc578260e08201527f359167ffffffffffffffff83116100dc57602083818601950101116100dc57566101008201527f5b604435906001600160801b03821682036100dc57565b6024359060016001606101208201527f801b03821682036100dc57565b600435906001600160801b03821682036100dc6101408201527f57565b346100dc5760603660031901126100dc5760043567ffffffffffffffff6101608201527f81116100dc576101819036906004016100e0565b505061018b610124565b50606101808201527f443580151514610268575f80fd5b346100dc575f3660031901126100dc575f546101a08201527f6040516001600160a01b039091168152602090f35b346100dc575f36600319016101c08201527f126100dc576020600254604051908152f35b346100dc576020366003190112616101e08201527edc576100d661013a565b346100dc57602036600319011215610268575f80fd6102008201527f5b346100dc575f3660031901126100dc576001546040516001600160a01b03906102208201527f91168152602090f35b346100dc575f3660031901126100dc57602060035460406102408201527f51908152f35b346100dc575f36600319011215610268575f80fd5b63e6fabc09610260820152306b60e01b5f5260205f6004817360a01b176102808201527f5afa156100dc575f808051368280378136915af43d5f803e156102ae573d5ff36102a0820152635b3d5ffd60e01b6102b08201525ff59081156106ad576001600160a01b0382165f908152601a820160205260409020849055601b018054613196906137f3565b90556040516001600160a01b03821680825293907f8008ec1d8798725ebfa0f2d128d52e8e717dcba6e0f786557eeee70614b02bf190602090a2506001600160a01b038116613256575033915b813b156106ad57604051631c9776b560e31b81526001600160a01b039384166004820152921660248301525f604483018190528260648183855af191821561324b57602092613236575b50604051908152f35b5f61324091613377565b5f610180528261322d565b6040513d5f823e3d90fd5b916131e3565b634e487b7160e01b5f52602160045260245ffd5b346106ad575f3660031901126106ad57602090601c5f5160206144785f395f51905f525401548152f35b604435906001600160a01b03821682036106ad57565b606435906001600160a01b03821682036106ad57565b600435906001600160a01b03821682036106ad57565b35906001600160a01b03821682036106ad57565b9181601f840112156106ad578235916001600160401b0383116106ad576020808501948460051b0101116106ad57565b90600382101561325c5752565b606081019081106001600160401b0382111761334857604052565b634e487b7160e01b5f52604160045260245ffd5b604081019081106001600160401b0382111761334857604052565b90601f801991011681019081106001600160401b0382111761334857604052565b9291926001600160401b03821161334857604051916133c1601f8201601f191660200184613377565b8294818452818301116106ad578281602093845f960137010152565b6001600160401b0381116133485760051b60200190565b929190613400816133dd565b9361340e6040519586613377565b602085838152019160051b81019283116106ad57905b82821061343057505050565b6020809161343d846132dc565b815201910190613424565b1561344f57565b60405162461bcd60e51b815260206004820152603860248201527f726f757465722067656e65736973206973207a65726f3b2063616c6c20606c6f60448201527f6f6b757047656e657369734861736828296020666972737400000000000000006064820152608490fd5b604051906134c78261335c565b5f6020838281520152565b906040516134df8161335c565b602060018294805484520154910152565b919082039182116134fd57565b634e487b7160e01b5f52601160045260245ffd5b811561351b570490565b634e487b7160e01b5f52601260045260245ffd5b90604051918281549182825260208201905f5260205f20925f5b81811061356057505061355e92500383613377565b565b84546001600160a01b0316835260019485019487945060209093019201613549565b91908110156135925760051b0190565b634e487b7160e01b5f52603260045260245ffd5b80518210156135925760209160051b010190565b356001600160a01b03811681036106ad5790565b6135e75f5160206144785f395f51905f52544290613fb8565b600301905f5b8381106135fd5750505050600190565b61360b611750828685613582565b6001600160a01b03165f9081526020849052604090205460ff1615613632576001016135ed565b505050505f90565b919082018092116134fd57565b818102929181159184041417156134fd57565b6001600160a01b031680156136b8575f5160206144585f395f51905f5280546001600160a01b0319811683179091556001600160a01b03167f8be0079c531659141344cd1fd0a4f28419497f9722a3daafe3b4186f6b6457e05f80a3565b631e4fbdf760e01b5f525f60045260245ffd5b903590601e19813603018212156106ad57018035906001600160401b0382116106ad576020019160608202360383136106ad57565b903590601e19813603018212156106ad57018035906001600160401b0382116106ad57602001918160051b360383136106ad57565b1561373c57565b608460405162461bcd60e51b815260206004820152604060248201527f7265776172647320636f6d6d69746d656e74206d75737420626520656d70747960448201527f206f7220636f6e7461696e73206f6e6c79206f6e6520636f6d6d69746d656e746064820152fd5b60208061355e928195946040519682889351918291018585015e8201908382015203018085520183613377565b3565ffffffffffff811681036106ad5790565b3580151581036106ad5790565b5f1981146134fd5760010190565b359081151582036106ad57565b5f5160206144585f395f51905f52546001600160a01b0316330361382e57565b63118cdaa760e01b5f523360045260245ffd5b5f6040805161384f8161332d565b82815282602082015201526040516138668161332d565b5f815263ffffffff4316602082015265ffffffffffff4216604082015290565b9291908051906020810191825170014551231950b75fc4402da1732fc9bebe1982109182613b09575b505015613ab557518455516001840155604051906138f26021836020808201945f86528051918291018484015e81015f838201520301601f198101845283613377565b61392f602b604051809360208201956a600b5981380380925939f360a81b87525180918484015e81015f838201520301601f198101835282613377565b51905ff06001600160a01b03811615613a7c576002830180546001600160a01b0319166001600160a01b039092169190911790555f5b6004830180548210156139a3575f90815260208082208301546001600160a01b0316825260038501905260409020805460ff19169055600101613965565b5050925f5b84518110156139ec576001906001600160a01b036139c682886135a6565b5116828060a01b03165f526003840160205260405f208260ff19825416179055016139a8565b5092600482018151916001600160401b03831161334857600160401b8311613348578154838355808410613a56575b50602001905f5260205f205f5b838110613a39575050505060050155565b82516001600160a01b031681830155602090920191600101613a28565b825f528360205f2091820191015b818110613a715750613a1b565b5f8155600101613a64565b60405162461bcd60e51b81526020600482015260116024820152701111541313d65351539517d19052531151607a1b6044820152606490fd5b60405162461bcd60e51b815260206004820152602660248201527f46524f53542061676772656761746564207075626c6963206b657920697320696044820152651b9d985b1a5960d21b6064820152608490fd5b613b1392506143b2565b5f806138af565b803b905f198201908282116134fd5760019060405193603e601f19910116840160405282845260208401903c90565b613b534282613fff565b15613b5e5760090190565b600f0190565b61ffff613b72921690613647565b61270f81018091116134fd57612710900490565b903590605e19813603018212156106ad570190565b908160209103126106ad575180151581036106ad5790565b909493919365ffffffffffff600283015460201c16613be9613bf4613bee613bdb84426134f0565b601687015493848092613511565b613647565b8361363a565b918284108080613fa2575b15613f3057508310613eeb57613c15908361363a565b10613e9a57613c25905b82613fb8565b94601960f81b5f523060601b60025260165260365f2093600281101561325c5780613d5b57505060018103613d16571561359257803590601e19813603018212156106ad57018035906001600160401b0382116106ad5760200181360381136106ad57613c93913691613398565b916060835103613cc157826020613cbe9401516060604083015192015192600181549101549061414d565b90565b60405162461bcd60e51b815260206004820152602760248201527f46524f5354207369676e6174757265206c656e677468206d75737420626520396044820152663620627974657360c81b6064820152608490fd5b60405162461bcd60e51b815260206004820152601e60248201527f46524f5354207369676e6174757265206d7573742062652073696e676c6500006044820152606490fd5b919391600114613d6e5750505050505f90565b613d889061ffff6008600488979801549201541690613b64565b925f9260035f9201915b868110613da457505050505050505f90565b86811015613592578060051b820135601e19833603018112156106ad5782018035906001600160401b0382116106ad5760200181360381136106ad57613e0291613df991613df3913691613398565b86614318565b90929192614352565b6001600160a01b0381165f9081526020859052604090205460ff16613e2d575b506001905b01613d92565b6001600160a01b03165f9081527ff02b465737fa6045c2ff53fb2df43c66916ac2166fa303264668fb2f6a1d8c0060205260409020805c15613e725750600190613e27565b946001613e8092965d6137f3565b93858514613e8e575f613e22565b50505050505050600190565b60405162461bcd60e51b8152602060048201526024808201527f74696d657374616d70206973206f6c646572207468616e2070726576696f75736044820152632065726160e01b6064820152608490fd5b60405162461bcd60e51b815260206004820152601e60248201527f63616e6e6f742076616c6964617465206265666f72652067656e6573697300006044820152606490fd5b9392915050428211613f5357613c2592613f4b575b50613c1f565b90505f613f45565b60405162461bcd60e51b815260206004820152602160248201527f74696d657374616d702063616e6e6f7420626520696e207468652066757475726044820152606560f81b6064820152608490fd5b50613fb160188701548561363a565b4210613bff565b90613fc39082613fff565b15613fce57600f0190565b60090190565b60ff5f5160206144985f395f51905f525460401c1615613ff057565b631afcd79f60e31b5f5260045ffd5b906014600e8301549201548083146140a45781818410931191821591111591819061409d575b1561403a578261403457505090565b14919050565b60405162461bcd60e51b815260206004820152603560248201527f636f756c64206e6f74206964656e746966792076616c696461746f727320666f6044820152740722074686520676976656e2074696d657374616d7605c1b6064820152608490fd5b5081614025565b606460405162461bcd60e51b815260206004820152602060248201527f657261732074696d657374616d70206d757374206e6f7420626520657175616c6044820152fd5b905f1943014381116134fd57805b614101575b505f9150565b804083810361411257506001925050565b15614120575f1901806140f6565b6140fb565b356001600160801b03811681036106ad5790565b35906001600160801b03821682036106ad57565b929391949061415c85876143b2565b1561430e57821561430e5770014551231950b75fc4402da1732fc9bebe1983101561430e576001169061010e6040519161012083018381106001600160401b038211176106ad5760405260883684376002600188160160888401538760898401526002840160a984015360aa830186905260ca8301527e300046524f53542d736563703235366b312d4b454343414b3235362d76316360ea8301526303430b6160e51b61010a830152812060cc820181815290600260ec84016001815360428420809318845253604270014551231950b75fc4402da1732fc9bebe19922060801c6001600160401b0360801b8260801b16179070014551231950b75fc4402da1732fc9bebe1990600160c01b9060401c090880156143035784601b6080945f9660209870014551231950b75fc4402da1732fc9bebe19910970014551231950b75fc4402da1732fc9bebe19038552018684015280604084015270014551231950b75fc4402da1732fc9bebe19910970014551231950b75fc4402da1732fc9bebe1903606082015282805260015afa505f51915f5260205260018060a01b0360405f20161490565b505050505050505f90565b5050505050505f90565b8151919060418303614348576143419250602082015190606060408401519301515f1a906143d5565b9192909190565b50505f9160029190565b600481101561325c5780614364575050565b6001810361437b5763f645eedf60e01b5f5260045ffd5b60028103614396575063fce698f760e01b5f5260045260245ffd5b6003146143a05750565b6335e2f38360e21b5f5260045260245ffd5b6401000003d01990600790829081818009900908906401000003d0199080091490565b91907f7fffffffffffffffffffffffffffffff5d576e7357a4501ddfe92f46681b20a0841161444c579160209360809260ff5f9560405194855216868401526040830152606082015282805260015afa1561324b575f516001600160a01b0381161561444257905f905f90565b505f906001905f90565b5050505f916003919056fe9016d09d72d40fdae2fd8ceac6b6234c7706214fd39c1cd1e609a0528c1993005c09ca1b9b8127a4fd9f3c384aac59b661441e820e17733753ff5f2e86e1e000f0c57e16840df040f15088dc2f81fe391c3923bec73e23a9662efc9c229c6a00f0c57e16840df040f15088dc2f81fe391c3923bec73e23a9662efc9c229c6a00","linkReferences":{}},"methodIdentifiers":{"areValidators(address[])":"8f381dbe","codeState(bytes32)":"c13911e8","codesStates(bytes32[])":"82bdeaad","commitBatch(((bytes32,uint48,bool)[],(bytes32,uint48,bytes32,bytes32,(address,bytes32,bool,address,uint128,(bytes32,address,uint128)[],(bytes32,address,bytes,uint128,(bytes32,bytes4),bool)[])[])[],((uint256,bytes32),((address,uint256)[],uint256,address),uint48)[]),uint8,bytes[])":"fc491f5d","commitValidators(((uint256,uint256),bytes,address[],uint256),uint8,bytes[])":"aa54494a","computeSettings()":"84d22a4f","createProgram(bytes32,bytes32,address)":"3683c4d2","createProgramWithAbiInterface(bytes32,bytes32,address,address)":"0c18d277","genesisBlockHash()":"28e24b3d","genesisTimestamp()":"cacf66ab","initialize(address,address,address,address,uint256,uint256,uint256,(uint256,uint256),bytes,address[])":"53f7fd48","isValidator(address)":"facd743b","latestCommittedBlockHash()":"c9f16a11","lookupGenesisHash()":"8b1edf1e","mirrorImpl()":"e6fabc09","owner()":"8da5cb5b","programCodeId(address)":"9067088e","programsCodeIds(address[])":"baaf0201","programsCount()":"96a2ddfa","reinitialize()":"6c2eb350","renounceOwnership()":"715018a6","requestCodeValidation(bytes32)":"120e3f1e","setMirror(address)":"3d43b418","signingThresholdPercentage()":"efd81abc","transferOwnership(address)":"f2fde38b","validatedCodesCount()":"007a32e7","validators()":"ca1e7819","validatorsAggregatedPublicKey()":"3bd109fa","validatorsCount()":"ed612f8c","validatorsThreshold()":"edc87225","validatorsVerifiableSecretSharingCommitment()":"a5d53a44","wrappedVara()":"88f50cf0"},"storageLayout":{"storage":[],"types":{}},"id":165}