{"abi":[{"type":"constructor","inputs":[],"stateMutability":"nonpayable"},{"type":"function","name":"baseFee","inputs":[],"outputs":[{"name":"","type":"uint128","internalType":"uint128"}],"stateMutability":"view"},{"type":"function","name":"baseWeight","inputs":[],"outputs":[{"name":"","type":"uint64","internalType":"uint64"}],"stateMutability":"view"},{"type":"function","name":"codeState","inputs":[{"name":"codeId","type":"bytes32","internalType":"bytes32"}],"outputs":[{"name":"","type":"uint8","internalType":"enum IRouter.CodeState"}],"stateMutability":"view"},{"type":"function","name":"commitBlocks","inputs":[{"name":"blockCommitmentsArray","type":"tuple[]","internalType":"struct IRouter.BlockCommitment[]","components":[{"name":"blockHash","type":"bytes32","internalType":"bytes32"},{"name":"blockTimestamp","type":"uint48","internalType":"uint48"},{"name":"prevCommitmentHash","type":"bytes32","internalType":"bytes32"},{"name":"predBlockHash","type":"bytes32","internalType":"bytes32"},{"name":"transitions","type":"tuple[]","internalType":"struct IRouter.StateTransition[]","components":[{"name":"actorId","type":"address","internalType":"address"},{"name":"newStateHash","type":"bytes32","internalType":"bytes32"},{"name":"inheritor","type":"address","internalType":"address"},{"name":"valueToReceive","type":"uint128","internalType":"uint128"},{"name":"valueClaims","type":"tuple[]","internalType":"struct IRouter.ValueClaim[]","components":[{"name":"messageId","type":"bytes32","internalType":"bytes32"},{"name":"destination","type":"address","internalType":"address"},{"name":"value","type":"uint128","internalType":"uint128"}]},{"name":"messages","type":"tuple[]","internalType":"struct IRouter.OutgoingMessage[]","components":[{"name":"id","type":"bytes32","internalType":"bytes32"},{"name":"destination","type":"address","internalType":"address"},{"name":"payload","type":"bytes","internalType":"bytes"},{"name":"value","type":"uint128","internalType":"uint128"},{"name":"replyDetails","type":"tuple","internalType":"struct IRouter.ReplyDetails","components":[{"name":"to","type":"bytes32","internalType":"bytes32"},{"name":"code","type":"bytes4","internalType":"bytes4"}]}]}]}]},{"name":"signatures","type":"bytes[]","internalType":"bytes[]"}],"outputs":[],"stateMutability":"nonpayable"},{"type":"function","name":"commitCodes","inputs":[{"name":"codeCommitmentsArray","type":"tuple[]","internalType":"struct IRouter.CodeCommitment[]","components":[{"name":"id","type":"bytes32","internalType":"bytes32"},{"name":"valid","type":"bool","internalType":"bool"}]},{"name":"signatures","type":"bytes[]","internalType":"bytes[]"}],"outputs":[],"stateMutability":"nonpayable"},{"type":"function","name":"createProgram","inputs":[{"name":"codeId","type":"bytes32","internalType":"bytes32"},{"name":"salt","type":"bytes32","internalType":"bytes32"},{"name":"payload","type":"bytes","internalType":"bytes"},{"name":"_value","type":"uint128","internalType":"uint128"}],"outputs":[{"name":"","type":"address","internalType":"address"}],"stateMutability":"payable"},{"type":"function","name":"createProgramWithDecoder","inputs":[{"name":"decoderImplementation","type":"address","internalType":"address"},{"name":"codeId","type":"bytes32","internalType":"bytes32"},{"name":"salt","type":"bytes32","internalType":"bytes32"},{"name":"payload","type":"bytes","internalType":"bytes"},{"name":"_value","type":"uint128","internalType":"uint128"}],"outputs":[{"name":"","type":"address","internalType":"address"}],"stateMutability":"payable"},{"type":"function","name":"genesisBlockHash","inputs":[],"outputs":[{"name":"","type":"bytes32","internalType":"bytes32"}],"stateMutability":"view"},{"type":"function","name":"getStorageSlot","inputs":[],"outputs":[{"name":"","type":"bytes32","internalType":"bytes32"}],"stateMutability":"view"},{"type":"function","name":"initialize","inputs":[{"name":"initialOwner","type":"address","internalType":"address"},{"name":"_mirror","type":"address","internalType":"address"},{"name":"_mirrorProxy","type":"address","internalType":"address"},{"name":"_wrappedVara","type":"address","internalType":"address"},{"name":"_validatorsKeys","type":"address[]","internalType":"address[]"}],"outputs":[],"stateMutability":"nonpayable"},{"type":"function","name":"lastBlockCommitmentHash","inputs":[],"outputs":[{"name":"","type":"bytes32","internalType":"bytes32"}],"stateMutability":"view"},{"type":"function","name":"lastBlockCommitmentTimestamp","inputs":[],"outputs":[{"name":"","type":"uint48","internalType":"uint48"}],"stateMutability":"view"},{"type":"function","name":"mirror","inputs":[],"outputs":[{"name":"","type":"address","internalType":"address"}],"stateMutability":"view"},{"type":"function","name":"mirrorProxy","inputs":[],"outputs":[{"name":"","type":"address","internalType":"address"}],"stateMutability":"view"},{"type":"function","name":"owner","inputs":[],"outputs":[{"name":"","type":"address","internalType":"address"}],"stateMutability":"view"},{"type":"function","name":"programCodeId","inputs":[{"name":"program","type":"address","internalType":"address"}],"outputs":[{"name":"","type":"bytes32","internalType":"bytes32"}],"stateMutability":"view"},{"type":"function","name":"programsCount","inputs":[],"outputs":[{"name":"","type":"uint256","internalType":"uint256"}],"stateMutability":"view"},{"type":"function","name":"reinitialize","inputs":[],"outputs":[],"stateMutability":"nonpayable"},{"type":"function","name":"renounceOwnership","inputs":[],"outputs":[],"stateMutability":"nonpayable"},{"type":"function","name":"requestCodeValidation","inputs":[{"name":"codeId","type":"bytes32","internalType":"bytes32"},{"name":"blobTxHash","type":"bytes32","internalType":"bytes32"}],"outputs":[],"stateMutability":"nonpayable"},{"type":"function","name":"setBaseWeight","inputs":[{"name":"_baseWeight","type":"uint64","internalType":"uint64"}],"outputs":[],"stateMutability":"nonpayable"},{"type":"function","name":"setMirror","inputs":[{"name":"_mirror","type":"address","internalType":"address"}],"outputs":[],"stateMutability":"nonpayable"},{"type":"function","name":"setStorageSlot","inputs":[{"name":"namespace","type":"string","internalType":"string"}],"outputs":[],"stateMutability":"nonpayable"},{"type":"function","name":"setValuePerWeight","inputs":[{"name":"_valuePerWeight","type":"uint128","internalType":"uint128"}],"outputs":[],"stateMutability":"nonpayable"},{"type":"function","name":"signingThresholdPercentage","inputs":[],"outputs":[{"name":"","type":"uint256","internalType":"uint256"}],"stateMutability":"view"},{"type":"function","name":"transferOwnership","inputs":[{"name":"newOwner","type":"address","internalType":"address"}],"outputs":[],"stateMutability":"nonpayable"},{"type":"function","name":"updateValidators","inputs":[{"name":"validatorsAddressArray","type":"address[]","internalType":"address[]"}],"outputs":[],"stateMutability":"nonpayable"},{"type":"function","name":"validatedCodesCount","inputs":[],"outputs":[{"name":"","type":"uint256","internalType":"uint256"}],"stateMutability":"view"},{"type":"function","name":"validatorExists","inputs":[{"name":"validator","type":"address","internalType":"address"}],"outputs":[{"name":"","type":"bool","internalType":"bool"}],"stateMutability":"view"},{"type":"function","name":"validators","inputs":[],"outputs":[{"name":"","type":"address[]","internalType":"address[]"}],"stateMutability":"view"},{"type":"function","name":"validatorsCount","inputs":[],"outputs":[{"name":"","type":"uint256","internalType":"uint256"}],"stateMutability":"view"},{"type":"function","name":"validatorsThreshold","inputs":[],"outputs":[{"name":"","type":"uint256","internalType":"uint256"}],"stateMutability":"view"},{"type":"function","name":"valuePerWeight","inputs":[],"outputs":[{"name":"","type":"uint128","internalType":"uint128"}],"stateMutability":"view"},{"type":"function","name":"wrappedVara","inputs":[],"outputs":[{"name":"","type":"address","internalType":"address"}],"stateMutability":"view"},{"type":"event","name":"BaseWeightChanged","inputs":[{"name":"baseWeight","type":"uint64","indexed":false,"internalType":"uint64"}],"anonymous":false},{"type":"event","name":"BlockCommitted","inputs":[{"name":"blockHash","type":"bytes32","indexed":false,"internalType":"bytes32"}],"anonymous":false},{"type":"event","name":"CodeGotValidated","inputs":[{"name":"id","type":"bytes32","indexed":false,"internalType":"bytes32"},{"name":"valid","type":"bool","indexed":true,"internalType":"bool"}],"anonymous":false},{"type":"event","name":"CodeValidationRequested","inputs":[{"name":"codeId","type":"bytes32","indexed":false,"internalType":"bytes32"},{"name":"blobTxHash","type":"bytes32","indexed":false,"internalType":"bytes32"}],"anonymous":false},{"type":"event","name":"Initialized","inputs":[{"name":"version","type":"uint64","indexed":false,"internalType":"uint64"}],"anonymous":false},{"type":"event","name":"OwnershipTransferred","inputs":[{"name":"previousOwner","type":"address","indexed":true,"internalType":"address"},{"name":"newOwner","type":"address","indexed":true,"internalType":"address"}],"anonymous":false},{"type":"event","name":"ProgramCreated","inputs":[{"name":"actorId","type":"address","indexed":false,"internalType":"address"},{"name":"codeId","type":"bytes32","indexed":true,"internalType":"bytes32"}],"anonymous":false},{"type":"event","name":"StorageSlotChanged","inputs":[],"anonymous":false},{"type":"event","name":"ValidatorsSetChanged","inputs":[],"anonymous":false},{"type":"event","name":"ValuePerWeightChanged","inputs":[{"name":"valuePerWeight","type":"uint128","indexed":false,"internalType":"uint128"}],"anonymous":false},{"type":"error","name":"ECDSAInvalidSignature","inputs":[]},{"type":"error","name":"ECDSAInvalidSignatureLength","inputs":[{"name":"length","type":"uint256","internalType":"uint256"}]},{"type":"error","name":"ECDSAInvalidSignatureS","inputs":[{"name":"s","type":"bytes32","internalType":"bytes32"}]},{"type":"error","name":"FailedDeployment","inputs":[]},{"type":"error","name":"InsufficientBalance","inputs":[{"name":"balance","type":"uint256","internalType":"uint256"},{"name":"needed","type":"uint256","internalType":"uint256"}]},{"type":"error","name":"InvalidInitialization","inputs":[]},{"type":"error","name":"NotInitializing","inputs":[]},{"type":"error","name":"OwnableInvalidOwner","inputs":[{"name":"owner","type":"address","internalType":"address"}]},{"type":"error","name":"OwnableUnauthorizedAccount","inputs":[{"name":"account","type":"address","internalType":"address"}]},{"type":"error","name":"ReentrancyGuardReentrantCall","inputs":[]}],"bytecode":{"object":"0x6080806040523460d0577ff0c57e16840df040f15088dc2f81fe391c3923bec73e23a9662efc9c229c6a005460ff8160401c1660c1576002600160401b03196001600160401b03821601605c575b60405161298890816100d58239f35b6001600160401b0319166001600160401b039081177ff0c57e16840df040f15088dc2f81fe391c3923bec73e23a9662efc9c229c6a005581527fc7f505b2f371ae2175ee4913f4499e1f2633a7b5936321eed1cdaeb6115181d290602090a15f80604d565b63f92ee8a960e01b5f5260045ffd5b5f80fdfe6080806040526004361015610012575f80fd5b5f3560e01c9081627a32e714611ce75750806301b1d156146113825780630834fecc1461134b5780631c149d8a1461120357806328e24b3d146111d95780632dacfb69146111ac5780633d43b4181461115a5780634083acec14611125578063444d9172146110ed5780635686cad51461103b578063666d124c14610f3f5780636c2eb35014610d375780636ef25c3a14610d0c578063715018a614610ca557806378ee5dec14610c6d5780638028861a14610bf05780638074b45514610b3157806388f50cf014610af95780638da5cb5b14610ac55780638febbd5914610a785780639067088e14610a305780639670822614610a0757806396a2ddfa146109da578063a6bbbe1c1461092f578063c13911e8146108e9578063ca1e781914610872578063d3fd63641461083c578063e71731e41461074f578063e97d3eb31461052a578063ed612f8c146104fd578063edc87225146104db578063efd81abc146104ae578063f2fde38b146104885763f8453e7c14610191575f80fd5b346104845760a0366003190112610484576101aa611d41565b602435906001600160a01b038216820361048457604435916001600160a01b038316830361048457606435926001600160a01b0384168403610484576084356001600160401b038111610484573660238201121561048457610216903690602481600401359101611dfe565b905f805160206129338339815191525460ff8160401c1615946001600160401b0382168015908161047c575b6001149081610472575b159081610469575b5061045a5767ffffffffffffffff1982166001175f8051602061293383398151915255610297918661042e575b5061028a6127ab565b6102926127ab565b611fda565b60409485516102a68782611d57565b6017815260208101907f726f757465722e73746f726167652e526f75746572563100000000000000000082526102da61226c565b5190205f19810190811161041a5786519060208201908152602082526103008883611d57565b60ff19915190201690815f80516020612913833981519152557f5aa0c6c9fb33211212ffe5bef7a4b5d511b82a611e6677052d984e2bcedeaccc5f80a15f1943019243841161041a57924082556001820180546001600160a01b03199081166001600160a01b03978816179091556002830180548216948716949094179093556003820180549093169416939093179055611a0a60068301556007919091018054680a000000009502f9006001600160c01b03199091161790556103c39061259d565b6103c957005b60207fc7f505b2f371ae2175ee4913f4499e1f2633a7b5936321eed1cdaeb6115181d29160ff60401b195f8051602061293383398151915254165f80516020612933833981519152555160018152a1005b634e487b7160e01b5f52601160045260245ffd5b68ffffffffffffffffff191668010000000000000001175f80516020612933833981519152555f610281565b63f92ee8a960e01b5f5260045ffd5b9050155f610254565b303b15915061024c565b879150610242565b5f80fd5b34610484576020366003190112610484576104ac6104a4611d41565b61029261226c565b005b34610484575f36600319011261048457602060065f80516020612913833981519152540154604051908152f35b34610484575f3660031901126104845760206104f5611f9c565b604051908152f35b34610484575f36600319011261048457602060095f80516020612913833981519152540154604051908152f35b34610484576040366003190112610484576004356001600160401b0381116104845736602382011215610484578060040135906001600160401b038211610484573660248360061b83010111610484576024356001600160401b0381116104845761059a83913690600401611d11565b90925f8051602061291383398151915254906060925f95600a8401945b8688101561073e578760061b840197610609604460248b01359a01926105dc84611f81565b60405160208101918d8352151560f81b604082015260218152610600604182611d57565b51902090611e62565b98805f528760205260ff60405f205416600381101561072a576001036106d557610634600193611f81565b15610692577f460119a8f69a33ed127de517d5ea464e958ce23ef19e4420a8b92bf780bbc2c960208285935f528a825260405f20600260ff19825416179055600b8a016106818154611f8e565b9055604051908152a25b01966105b7565b7f460119a8f69a33ed127de517d5ea464e958ce23ef19e4420a8b92bf780bbc2c96020825f9384528a825260408420805460ff19169055604051908152a261068b565b60405162461bcd60e51b815260206004820152602760248201527f636f64652073686f756c642062652072657175657374656420666f722076616c60448201526634b230ba34b7b760c91b6064820152608490fd5b634e487b7160e01b5f52602160045260245ffd5b6104ac9350602081519101206120e7565b34610484576020366003190112610484576004356001600160401b0381116104845761077f903690600401611d11565b61078761226c565b5f805160206129138339815191525460088101906009015f5b81548110156107d7575f82815260208082208301546001600160a01b0316825284905260409020805460ff191690556001016107a0565b5080545f825591508161081e575b6107f86107f3368587611dfe565b61259d565b7f144bbc027dc176e94c43b7c1bcff2a8aa58ab434029eec294743cd4ab2e54f515f80a1005b5f5260205f20908101905b818110156107e5575f8155600101610829565b34610484575f3660031901126104845760206001600160401b0360075f8051602061291383398151915254015416604051908152f35b34610484575f3660031901126104845761089c60095f805160206129138339815191525401611eee565b6040518091602082016020835281518091526020604084019201905f5b8181106108c7575050500390f35b82516001600160a01b03168452859450602093840193909201916001016108b9565b3461048457602036600319011261048457600a5f8051602061291383398151915254016004355f5260205260ff60405f205416604051600382101561072a576020918152f35b34610484576020366003190112610484576004356001600160801b03811690818103610484577f9f5e1796f1a0adf311f86170503308a06a16560a7679b7b6da35f4999200d7409160209161098261226c565b5f8051602061291383398151915254600701805477ffffffffffffffffffffffffffffffff00000000000000001916604092831b77ffffffffffffffffffffffffffffffff00000000000000001617905551908152a1005b34610484575f366003190112610484576020600d5f80516020612913833981519152540154604051908152f35b34610484575f3660031901126104845760205f8051602061291383398151915254604051908152f35b3461048457602036600319011261048457610a49611d41565b600c5f8051602061291383398151915254019060018060a01b03165f52602052602060405f2054604051908152f35b3461048457602036600319011261048457610a91611d41565b60085f8051602061291383398151915254019060018060a01b03165f52602052602060ff60405f2054166040519015158152f35b34610484575f366003190112610484575f805160206128f3833981519152546040516001600160a01b039091168152602090f35b34610484575f366003190112610484575f8051602061291383398151915254600301546040516001600160a01b039091168152602090f35b6080366003190112610484576044356001600160401b03811161048457610b5c903690600401611dd1565b90606435916001600160801b038316830361048457610b80836024356004356122bf565b6001600160a01b0390911692909190833b1561048457610bb75f9360405196879485946306f0ee9760e51b86523260048701611eb1565b038183855af1918215610be557602092610bd5575b50604051908152f35b5f610bdf91611d57565b82610bcc565b6040513d5f823e3d90fd5b34610484576020366003190112610484576004356001600160401b0381168091036104845760207f01326573cfc0bc40a2550923254394ebd7529e3e3301840dfa33cf786aead0c791610c4161226c565b5f8051602061291383398151915254600701805467ffffffffffffffff191682179055604051908152a1005b34610484575f366003190112610484575f8051602061291383398151915254600201546040516001600160a01b039091168152602090f35b34610484575f36600319011261048457610cbd61226c565b5f805160206128f383398151915280546001600160a01b031981169091555f906001600160a01b03167f8be0079c531659141344cd1fd0a4f28419497f9722a3daafe3b4186f6b6457e08280a3005b34610484575f366003190112610484576020610d26611f3f565b6001600160801b0360405191168152f35b34610484575f36600319011261048457610d4f61226c565b5f805160206129338339815191525460ff8160401c168015610f2b575b61045a5768ffffffffffffffffff191668010000000000000002175f80516020612933833981519152555f80516020612913833981519152546001810154600282015460038301546001600160a01b0390811693918116921690610dd290600901611eee565b906040918251610de28482611d57565b6017815260208101907f726f757465722e73746f726167652e526f7574657256320000000000000000008252610e1661226c565b5190205f19810190811161041a578351906020820190815260208252610e3c8583611d57565b60ff19915190201694855f80516020612913833981519152557f5aa0c6c9fb33211212ffe5bef7a4b5d511b82a611e6677052d984e2bcedeaccc5f80a15f19430143811161041a574086556001860180546001600160a01b03199081166001600160a01b03958616179091556002870180548216968516969096179095556003909501805490941694909116939093179091557fc7f505b2f371ae2175ee4913f4499e1f2633a7b5936321eed1cdaeb6115181d29160209190610efe9061259d565b60ff60401b195f8051602061293383398151915254165f80516020612933833981519152555160028152a1005b5060026001600160401b0382161015610d6c565b60a036600319011261048457610f53611d41565b6044356024356064356001600160401b03811161048457610f78903690600401611dd1565b90608435946001600160801b038616860361048457610f988686866122bf565b949060018060a01b0316956040519060208201928352604082015260408152610fc2606082611d57565b519020853b1561048457604051635b1b84f760e01b81526001600160a01b03909216600483015260248201525f8160448183895af18015610be55761102b575b50833b1561048457610bb75f9360405196879485946306f0ee9760e51b86523260048701611eb1565b5f61103591611d57565b85611002565b34610484576020366003190112610484576004356001600160401b03811161048457366023820112156104845761107c903690602481600401359101611d8c565b61108461226c565b602081519101205f19810190811161041a576040519060208201908152602082526110b0604083611d57565b9051902060ff19165f80516020612913833981519152557f5aa0c6c9fb33211212ffe5bef7a4b5d511b82a611e6677052d984e2bcedeaccc5f80a1005b34610484575f366003190112610484575f8051602061291383398151915254600101546040516001600160a01b039091168152602090f35b34610484575f36600319011261048457602065ffffffffffff60055f8051602061291383398151915254015416604051908152f35b3461048457602036600319011261048457611173611d41565b61117b61226c565b5f805160206129138339815191525460010180546001600160a01b0319166001600160a01b03909216919091179055005b34610484575f36600319011261048457602060045f80516020612913833981519152540154604051908152f35b34610484575f3660031901126104845760205f805160206129138339815191525454604051908152f35b34610484576040366003190112610484576024356004358115801590611341575b156112fc57600a5f80516020612913833981519152540190805f528160205260ff60405f205416600381101561072a5761129e577f65672eaf4ff8b823ea29ae013fef437d1fa9ed431125263a7a1f0ac49eada39692604092825f52602052825f20600160ff1982541617905582519182526020820152a1005b60405162461bcd60e51b815260206004820152603060248201527f636f64652077697468207375636820696420616c72656164792072657175657360448201526f1d1959081bdc881d985b1a59185d195960821b6064820152608490fd5b60405162461bcd60e51b815260206004820152601c60248201527f626c6f6254784861736820636f756c646e277420626520666f756e64000000006044820152606490fd5b505f491515611224565b34610484575f366003190112610484576020610d266001600160801b0360075f8051602061291383398151915254015460401c1690565b34610484576040366003190112610484576004356001600160401b038111610484576113b2903690600401611d11565b906024356001600160401b038111610484576113d2903690600401611d11565b7f9b779b17422d0df92223018b32b4d1fa46e071723d6817e2486d003becc55f009291925c611cd85760017f9b779b17422d0df92223018b32b4d1fa46e071723d6817e2486d003becc55f005d5f9060605b85831015611ca1578260051b84013595609e1985360301871215610484575f805160206129138339815191525460048101805460408a8901013503611c5d5761147260608a890101356126de565b15611c0c5788879995999894989693960135905565ffffffffffff600561149d6020878a010161204b565b9201911665ffffffffffff198254161790556060925f965b6114c5878301608081019061205e565b9050881015611b62576114e8886114e2898501608081019061205e565b90612093565b955f805160206129138339815191525461150188612721565b6001600160a01b03165f908152600c8201602052604090205415611b0557600301546001600160801b03906020906001600160a01b031660448a5f611551606061154a84612721565b9301612735565b60405163a9059cbb60e01b81526001600160a01b0390931660048401529590951660248201529384928391905af18015610be557611ad9575b506001600160a01b0361159c88612721565b16995f9160605b6115b060808b018b612761565b9050841015611716576115c660808b018b612761565b85919510156117025760206116708f93826115e781606087028b0101612721565b6115f86040606088028c0101612735565b6040519083820192606089028d013584526001600160601b03199060601b1660408301526001600160801b03199060801b1660548201526044815261163e606482611d57565b6040519584879551918291018587015e840190838201905f8252519283915e01015f815203601f198101835282611d57565b94611682602060608402830101612721565b611693604060608502840101612735565b933b15610484578f5f92836064926001600160801b0360405198899687956314503e5160e01b875260608b020135600487015260018060a01b031660248601521660448401525af1918215610be5576001926116f2575b5001926115a3565b5f6116fc91611d57565b8e6116ea565b634e487b7160e01b5f52603260045260245ffd5b9690919599939492509996996060915f5b61173460a08c018c61205e565b905081101561197157806117f58f92611755906114e28f60a081019061205e565b9561176260208801612721565b6060610600603460548b61178561177c60408301836120b5565b96909201612735565b8d608061179460a08301612796565b9188604051998a96602088019c8d853590526001600160601b03199060601b166040890152888801378501936001600160801b031990831b16868501520135606483015263ffffffff60e01b16608482015203016014810184520182611d57565b9460808101356118a85761180b60208201612721565b9261181960408301836120b5565b91909461182860608501612735565b823b15610484575f9485916001600160801b036118766040519a8b988997889663c2df600960e01b885235600488015260018060a01b03166024870152608060448701526084860191611e91565b9116606483015203925af1918215610be557600192611898575b505b01611727565b5f6118a291611d57565b8f611890565b916118b560208401612721565b906118c360408501856120b5565b6118d260608794939401612735565b956118df60a08201612796565b94833b156104845761192b975f96608088946001600160801b036040519c8d9a8b998a9863c78bde7760e01b8a5260018060a01b031660048a015260a060248a015260a4890191611e91565b94166044860152013560648401526001600160e01b031916608483015203925af1918215610be557600192611961575b50611892565b5f61196b91611d57565b8f61195b565b50959496929b939998909a91604082019160018060a01b0361199284612721565b16611a82575b602081013591863b15610484575f80976024604051809a8193638ea59e1d60e01b83528860048401525af1958615610be557600197611a6397611a72575b506119f560606119ee6119e886612721565b97612721565b9401612735565b90602081519101209160208151910120926040519460208601966001600160601b03199060601b16875260348601526001600160601b03199060601b1660548501526001600160801b03199060801b166068840152607883015260988201526098815261060060b882611d57565b940196929790979491946114b5565b5f611a7c91611d57565b5f6119d6565b611a8b83612721565b863b1561048457604051630959112b60e11b81526001600160a01b0390911660048201525f81602481838b5af18015610be557611ac9575b50611998565b5f611ad391611d57565b8e611ac3565b611af99060203d8111611afe575b611af18183611d57565b810190612749565b61158a565b503d611ae7565b60405162461bcd60e51b815260206004820152602f60248201527f636f756c646e277420706572666f726d207472616e736974696f6e20666f722060448201526e756e6b6e6f776e2070726f6772616d60881b6064820152608490fd5b90611c0292975093600193949895987fd756eca21e02cb0dbde1e44a4d9c6921b5c8aa4668cfa0752784b3dc855bce1e6020604051838b01358152a1611bac6020828a010161204b565b91602081519101206060604051926020840194818c0135865265ffffffffffff60d01b9060d01b1660408501526040818c01013560468501528a010135606683015260868201526086815261060060a682611d57565b9401919093611424565b60405162461bcd60e51b815260206004820152602360248201527f616c6c6f776564207072656465636573736f7220626c6f636b206e6f7420666f6044820152621d5b9960ea1b6064820152608490fd5b606460405162461bcd60e51b815260206004820152602060248201527f696e76616c69642070726576696f757320636f6d6d69746d656e7420686173686044820152fd5b9084611cb392602081519101206120e7565b5f7f9b779b17422d0df92223018b32b4d1fa46e071723d6817e2486d003becc55f005d005b633ee5aeb560e01b5f5260045ffd5b34610484575f36600319011261048457602090600b5f805160206129138339815191525401548152f35b9181601f84011215610484578235916001600160401b038311610484576020808501948460051b01011161048457565b600435906001600160a01b038216820361048457565b90601f801991011681019081106001600160401b03821117611d7857604052565b634e487b7160e01b5f52604160045260245ffd5b9291926001600160401b038211611d785760405191611db5601f8201601f191660200184611d57565b829481845281830111610484578281602093845f960137010152565b9181601f84011215610484578235916001600160401b038311610484576020838186019501011161048457565b9092916001600160401b038411611d78578360051b916020604051611e2582860182611d57565b809681520192810191821161048457915b818310611e4257505050565b82356001600160a01b038116810361048457815260209283019201611e36565b602080611e8f928195946040519682889351918291018585015e8201908382015203018085520183611d57565b565b908060209392818452848401375f828201840152601f01601f1916010190565b93959490611ee16001600160801b0393606095859360018060a01b03168852608060208901526080880191611e91565b9616604085015216910152565b90604051918281549182825260208201905f5260205f20925f5b818110611f1d575050611e8f92500383611d57565b84546001600160a01b0316835260019485019487945060209093019201611f08565b5f8051602061291383398151915254600701546001600160401b038116906001600160801b039060401c811616026001600160801b03811690810361041a5790565b3580151581036104845790565b5f19811461041a5760010190565b5f8051602061291383398151915254600660098201549101549081810291818304149015171561041a5761270f810180911161041a57612710900490565b6001600160a01b03168015612038575f805160206128f383398151915280546001600160a01b0319811683179091556001600160a01b03167f8be0079c531659141344cd1fd0a4f28419497f9722a3daafe3b4186f6b6457e05f80a3565b631e4fbdf760e01b5f525f60045260245ffd5b3565ffffffffffff811681036104845790565b903590601e198136030182121561048457018035906001600160401b03821161048457602001918160051b3603831361048457565b91908110156117025760051b8101359060be1981360301821215610484570190565b903590601e198136030182121561048457018035906001600160401b0382116104845760200191813603831361048457565b905f805160206129138339815191525490612100611f9c565b9260405190602082019081526020825261211b604083611d57565b612157603660405180936020820195601960f81b87523060601b60228401525180918484015e81015f838201520301601f198101835282611d57565b5190205f9260080191835b868510156122605761219861218f6121896121828860051b8601866120b5565b3691611d8c565b856127d6565b90929192612810565b6001600160a01b03165f9081526020859052604090205460ff1615612225576121c090611f8e565b938585146121d15760010193612162565b505050509091505b106121e057565b60405162461bcd60e51b815260206004820152601b60248201527f6e6f7420656e6f7567682076616c6964207369676e61747572657300000000006044820152606490fd5b60405162461bcd60e51b8152602060048201526013602482015272696e636f7272656374207369676e617475726560681b6044820152606490fd5b949550505050506121d9565b5f805160206128f3833981519152546001600160a01b0316330361228c57565b63118cdaa760e01b5f523360045260245ffd5b906001600160801b03809116911601906001600160801b03821161041a57565b9291925f805160206129138339815191525491815f52600a830160205260ff60405f205416600381101561072a57600203612541576122fc611f3f565b60038401805460405163313ce56760e01b81529297919290602090829060049082906001600160a01b03165afa8015610be5575f90612504575b60ff915016604d811161041a5760646123686020936123636001600160801b038095600a0a16809c61229f565b61229f565b93546040516323b872dd60e01b8152326004820152306024820152929094166044830152909283919082905f906001600160a01b03165af1908115610be5575f916124e5575b50156124a0576e5af43d82803e903d91602b57fd5bf360028401549160405160208101918583526040820152604081526123e9606082611d57565b51902091763d602d80600a3d3981f3363d3d373d3d3d363d7300000062ffffff8260881c16175f526effffffffffffffffffffffffffffff199060781b1617602052603760095ff5916001600160a01b038316908115612491577f8008ec1d8798725ebfa0f2d128d52e8e717dcba6e0f786557eeee70614b02bf191600d602092825f52600c810184528560405f2055016124848154611f8e565b9055604051908152a29190565b63b06ebf3d60e01b5f5260045ffd5b60405162461bcd60e51b815260206004820152601860248201527f6661696c656420746f20726574726965766520575661726100000000000000006044820152606490fd5b6124fe915060203d602011611afe57611af18183611d57565b5f6123ae565b506020813d602011612539575b8161251e60209383611d57565b81010312610484575160ff811681036104845760ff90612336565b3d9150612511565b60405162461bcd60e51b815260206004820152602e60248201527f636f6465206d7573742062652076616c696461746564206265666f726520707260448201526d37b3b930b69031b932b0ba34b7b760911b6064820152608490fd5b5f8051602061291383398151915254906009820190815461268d579091600801905f5b81518110156125ff57600581901b82016020908101516001600160a01b03165f9081529084905260409020805460ff19166001908117909155016125c0565b5080519291506001600160401b038311611d7857680100000000000000008311611d78578154838355808410612667575b50602001905f5260205f205f5b83811061264a5750505050565b82516001600160a01b03168183015560209092019160010161263d565b825f528360205f2091820191015b8181106126825750612630565b5f8155600101612675565b60405162461bcd60e51b815260206004820152602360248201527f70726576696f75732076616c696461746f727320776572656e27742072656d6f6044820152621d995960ea1b6064820152608490fd5b905f19430143811161041a57805b6126f7575b505f9150565b804083810361270857506001925050565b1561271c57801561041a575f1901806126ec565b6126f1565b356001600160a01b03811681036104845790565b356001600160801b03811681036104845790565b90816020910312610484575180151581036104845790565b903590601e198136030182121561048457018035906001600160401b0382116104845760200191606082023603831361048457565b356001600160e01b0319811681036104845790565b60ff5f805160206129338339815191525460401c16156127c757565b631afcd79f60e31b5f5260045ffd5b8151919060418303612806576127ff9250602082015190606060408401519301515f1a90612870565b9192909190565b50505f9160029190565b600481101561072a5780612822575050565b600181036128395763f645eedf60e01b5f5260045ffd5b60028103612854575063fce698f760e01b5f5260045260245ffd5b60031461285e5750565b6335e2f38360e21b5f5260045260245ffd5b91907f7fffffffffffffffffffffffffffffff5d576e7357a4501ddfe92f46681b20a084116128e7579160209360809260ff5f9560405194855216868401526040830152606082015282805260015afa15610be5575f516001600160a01b038116156128dd57905f905f90565b505f906001905f90565b5050505f916003919056fe9016d09d72d40fdae2fd8ceac6b6234c7706214fd39c1cd1e609a0528c1993005c09ca1b9b8127a4fd9f3c384aac59b661441e820e17733753ff5f2e86e1e000f0c57e16840df040f15088dc2f81fe391c3923bec73e23a9662efc9c229c6a00a26469706673582212205b21b15c839d0898ccc6206da2a4be14eda15d1a5e91a72c0e2b08ae2f9a2e3e64736f6c634300081a0033","linkReferences":{}},"methodIdentifiers":{"baseFee()":"6ef25c3a","baseWeight()":"d3fd6364","codeState(bytes32)":"c13911e8","commitBlocks((bytes32,uint48,bytes32,bytes32,(address,bytes32,address,uint128,(bytes32,address,uint128)[],(bytes32,address,bytes,uint128,(bytes32,bytes4))[])[])[],bytes[])":"01b1d156","commitCodes((bytes32,bool)[],bytes[])":"e97d3eb3","createProgram(bytes32,bytes32,bytes,uint128)":"8074b455","createProgramWithDecoder(address,bytes32,bytes32,bytes,uint128)":"666d124c","genesisBlockHash()":"28e24b3d","getStorageSlot()":"96708226","initialize(address,address,address,address,address[])":"f8453e7c","lastBlockCommitmentHash()":"2dacfb69","lastBlockCommitmentTimestamp()":"4083acec","mirror()":"444d9172","mirrorProxy()":"78ee5dec","owner()":"8da5cb5b","programCodeId(address)":"9067088e","programsCount()":"96a2ddfa","reinitialize()":"6c2eb350","renounceOwnership()":"715018a6","requestCodeValidation(bytes32,bytes32)":"1c149d8a","setBaseWeight(uint64)":"8028861a","setMirror(address)":"3d43b418","setStorageSlot(string)":"5686cad5","setValuePerWeight(uint128)":"a6bbbe1c","signingThresholdPercentage()":"efd81abc","transferOwnership(address)":"f2fde38b","updateValidators(address[])":"e71731e4","validatedCodesCount()":"007a32e7","validatorExists(address)":"8febbd59","validators()":"ca1e7819","validatorsCount()":"ed612f8c","validatorsThreshold()":"edc87225","valuePerWeight()":"0834fecc","wrappedVara()":"88f50cf0"},"storageLayout":{"storage":[],"types":{}},"id":159}