{"abi":[{"type":"constructor","inputs":[],"stateMutability":"nonpayable"},{"type":"function","name":"baseFee","inputs":[],"outputs":[{"name":"","type":"uint128","internalType":"uint128"}],"stateMutability":"view"},{"type":"function","name":"baseWeight","inputs":[],"outputs":[{"name":"","type":"uint64","internalType":"uint64"}],"stateMutability":"view"},{"type":"function","name":"codeState","inputs":[{"name":"codeId","type":"bytes32","internalType":"bytes32"}],"outputs":[{"name":"","type":"uint8","internalType":"enum IRouter.CodeState"}],"stateMutability":"view"},{"type":"function","name":"commitBlocks","inputs":[{"name":"blockCommitmentsArray","type":"tuple[]","internalType":"struct IRouter.BlockCommitment[]","components":[{"name":"blockHash","type":"bytes32","internalType":"bytes32"},{"name":"prevCommitmentHash","type":"bytes32","internalType":"bytes32"},{"name":"predBlockHash","type":"bytes32","internalType":"bytes32"},{"name":"transitions","type":"tuple[]","internalType":"struct IRouter.StateTransition[]","components":[{"name":"actorId","type":"address","internalType":"address"},{"name":"newStateHash","type":"bytes32","internalType":"bytes32"},{"name":"valueToReceive","type":"uint128","internalType":"uint128"},{"name":"valueClaims","type":"tuple[]","internalType":"struct IRouter.ValueClaim[]","components":[{"name":"messageId","type":"bytes32","internalType":"bytes32"},{"name":"destination","type":"address","internalType":"address"},{"name":"value","type":"uint128","internalType":"uint128"}]},{"name":"messages","type":"tuple[]","internalType":"struct IRouter.OutgoingMessage[]","components":[{"name":"id","type":"bytes32","internalType":"bytes32"},{"name":"destination","type":"address","internalType":"address"},{"name":"payload","type":"bytes","internalType":"bytes"},{"name":"value","type":"uint128","internalType":"uint128"},{"name":"replyDetails","type":"tuple","internalType":"struct IRouter.ReplyDetails","components":[{"name":"to","type":"bytes32","internalType":"bytes32"},{"name":"code","type":"bytes4","internalType":"bytes4"}]}]}]}]},{"name":"signatures","type":"bytes[]","internalType":"bytes[]"}],"outputs":[],"stateMutability":"nonpayable"},{"type":"function","name":"commitCodes","inputs":[{"name":"codeCommitmentsArray","type":"tuple[]","internalType":"struct IRouter.CodeCommitment[]","components":[{"name":"id","type":"bytes32","internalType":"bytes32"},{"name":"valid","type":"bool","internalType":"bool"}]},{"name":"signatures","type":"bytes[]","internalType":"bytes[]"}],"outputs":[],"stateMutability":"nonpayable"},{"type":"function","name":"createProgram","inputs":[{"name":"codeId","type":"bytes32","internalType":"bytes32"},{"name":"salt","type":"bytes32","internalType":"bytes32"},{"name":"payload","type":"bytes","internalType":"bytes"},{"name":"_value","type":"uint128","internalType":"uint128"}],"outputs":[{"name":"","type":"address","internalType":"address"}],"stateMutability":"payable"},{"type":"function","name":"genesisBlockHash","inputs":[],"outputs":[{"name":"","type":"bytes32","internalType":"bytes32"}],"stateMutability":"view"},{"type":"function","name":"getStorageSlot","inputs":[],"outputs":[{"name":"","type":"bytes32","internalType":"bytes32"}],"stateMutability":"view"},{"type":"function","name":"initialize","inputs":[{"name":"initialOwner","type":"address","internalType":"address"},{"name":"_mirror","type":"address","internalType":"address"},{"name":"_mirrorProxy","type":"address","internalType":"address"},{"name":"_wrappedVara","type":"address","internalType":"address"},{"name":"_validatorsKeys","type":"address[]","internalType":"address[]"}],"outputs":[],"stateMutability":"nonpayable"},{"type":"function","name":"lastBlockCommitmentHash","inputs":[],"outputs":[{"name":"","type":"bytes32","internalType":"bytes32"}],"stateMutability":"view"},{"type":"function","name":"mirror","inputs":[],"outputs":[{"name":"","type":"address","internalType":"address"}],"stateMutability":"view"},{"type":"function","name":"mirrorProxy","inputs":[],"outputs":[{"name":"","type":"address","internalType":"address"}],"stateMutability":"view"},{"type":"function","name":"owner","inputs":[],"outputs":[{"name":"","type":"address","internalType":"address"}],"stateMutability":"view"},{"type":"function","name":"programCodeId","inputs":[{"name":"program","type":"address","internalType":"address"}],"outputs":[{"name":"","type":"bytes32","internalType":"bytes32"}],"stateMutability":"view"},{"type":"function","name":"programsCount","inputs":[],"outputs":[{"name":"","type":"uint256","internalType":"uint256"}],"stateMutability":"view"},{"type":"function","name":"reinitialize","inputs":[],"outputs":[],"stateMutability":"nonpayable"},{"type":"function","name":"renounceOwnership","inputs":[],"outputs":[],"stateMutability":"nonpayable"},{"type":"function","name":"requestCodeValidation","inputs":[{"name":"codeId","type":"bytes32","internalType":"bytes32"},{"name":"blobTxHash","type":"bytes32","internalType":"bytes32"}],"outputs":[],"stateMutability":"nonpayable"},{"type":"function","name":"setBaseWeight","inputs":[{"name":"_baseWeight","type":"uint64","internalType":"uint64"}],"outputs":[],"stateMutability":"nonpayable"},{"type":"function","name":"setMirror","inputs":[{"name":"_mirror","type":"address","internalType":"address"}],"outputs":[],"stateMutability":"nonpayable"},{"type":"function","name":"setStorageSlot","inputs":[{"name":"namespace","type":"string","internalType":"string"}],"outputs":[],"stateMutability":"nonpayable"},{"type":"function","name":"setValuePerWeight","inputs":[{"name":"_valuePerWeight","type":"uint128","internalType":"uint128"}],"outputs":[],"stateMutability":"nonpayable"},{"type":"function","name":"signingThresholdPercentage","inputs":[],"outputs":[{"name":"","type":"uint256","internalType":"uint256"}],"stateMutability":"view"},{"type":"function","name":"transferOwnership","inputs":[{"name":"newOwner","type":"address","internalType":"address"}],"outputs":[],"stateMutability":"nonpayable"},{"type":"function","name":"updateValidators","inputs":[{"name":"validatorsAddressArray","type":"address[]","internalType":"address[]"}],"outputs":[],"stateMutability":"nonpayable"},{"type":"function","name":"validatedCodesCount","inputs":[],"outputs":[{"name":"","type":"uint256","internalType":"uint256"}],"stateMutability":"view"},{"type":"function","name":"validatorExists","inputs":[{"name":"validator","type":"address","internalType":"address"}],"outputs":[{"name":"","type":"bool","internalType":"bool"}],"stateMutability":"view"},{"type":"function","name":"validators","inputs":[],"outputs":[{"name":"","type":"address[]","internalType":"address[]"}],"stateMutability":"view"},{"type":"function","name":"validatorsCount","inputs":[],"outputs":[{"name":"","type":"uint256","internalType":"uint256"}],"stateMutability":"view"},{"type":"function","name":"validatorsThreshold","inputs":[],"outputs":[{"name":"","type":"uint256","internalType":"uint256"}],"stateMutability":"view"},{"type":"function","name":"valuePerWeight","inputs":[],"outputs":[{"name":"","type":"uint128","internalType":"uint128"}],"stateMutability":"view"},{"type":"function","name":"wrappedVara","inputs":[],"outputs":[{"name":"","type":"address","internalType":"address"}],"stateMutability":"view"},{"type":"event","name":"BaseWeightChanged","inputs":[{"name":"baseWeight","type":"uint64","indexed":false,"internalType":"uint64"}],"anonymous":false},{"type":"event","name":"BlockCommitted","inputs":[{"name":"blockHash","type":"bytes32","indexed":false,"internalType":"bytes32"}],"anonymous":false},{"type":"event","name":"CodeGotValidated","inputs":[{"name":"id","type":"bytes32","indexed":false,"internalType":"bytes32"},{"name":"valid","type":"bool","indexed":true,"internalType":"bool"}],"anonymous":false},{"type":"event","name":"CodeValidationRequested","inputs":[{"name":"codeId","type":"bytes32","indexed":false,"internalType":"bytes32"},{"name":"blobTxHash","type":"bytes32","indexed":false,"internalType":"bytes32"}],"anonymous":false},{"type":"event","name":"Initialized","inputs":[{"name":"version","type":"uint64","indexed":false,"internalType":"uint64"}],"anonymous":false},{"type":"event","name":"OwnershipTransferred","inputs":[{"name":"previousOwner","type":"address","indexed":true,"internalType":"address"},{"name":"newOwner","type":"address","indexed":true,"internalType":"address"}],"anonymous":false},{"type":"event","name":"ProgramCreated","inputs":[{"name":"actorId","type":"address","indexed":false,"internalType":"address"},{"name":"codeId","type":"bytes32","indexed":true,"internalType":"bytes32"}],"anonymous":false},{"type":"event","name":"StorageSlotChanged","inputs":[],"anonymous":false},{"type":"event","name":"ValidatorsSetChanged","inputs":[],"anonymous":false},{"type":"event","name":"ValuePerWeightChanged","inputs":[{"name":"valuePerWeight","type":"uint128","indexed":false,"internalType":"uint128"}],"anonymous":false},{"type":"error","name":"ECDSAInvalidSignature","inputs":[]},{"type":"error","name":"ECDSAInvalidSignatureLength","inputs":[{"name":"length","type":"uint256","internalType":"uint256"}]},{"type":"error","name":"ECDSAInvalidSignatureS","inputs":[{"name":"s","type":"bytes32","internalType":"bytes32"}]},{"type":"error","name":"FailedDeployment","inputs":[]},{"type":"error","name":"InsufficientBalance","inputs":[{"name":"balance","type":"uint256","internalType":"uint256"},{"name":"needed","type":"uint256","internalType":"uint256"}]},{"type":"error","name":"InvalidInitialization","inputs":[]},{"type":"error","name":"NotInitializing","inputs":[]},{"type":"error","name":"OwnableInvalidOwner","inputs":[{"name":"owner","type":"address","internalType":"address"}]},{"type":"error","name":"OwnableUnauthorizedAccount","inputs":[{"name":"account","type":"address","internalType":"address"}]},{"type":"error","name":"ReentrancyGuardReentrantCall","inputs":[]}],"bytecode":{"object":"0x6080604052348015600e575f80fd5b5060156019565b60c9565b7ff0c57e16840df040f15088dc2f81fe391c3923bec73e23a9662efc9c229c6a00805468010000000000000000900460ff161560685760405163f92ee8a960e01b815260040160405180910390fd5b80546001600160401b039081161460c65780546001600160401b0319166001600160401b0390811782556040519081527fc7f505b2f371ae2175ee4913f4499e1f2633a7b5936321eed1cdaeb6115181d29060200160405180910390a15b50565b612e8d806100d65f395ff3fe6080604052600436106101da575f3560e01c80638febbd59116100fd578063e71731e411610092578063efd81abc11610062578063efd81abc14610549578063f2fde38b1461055d578063f8453e7c1461057c578063fa97ed6d1461059b575f80fd5b8063e71731e4146104e3578063e97d3eb314610502578063ed612f8c14610521578063edc8722514610535575f80fd5b8063a6bbbe1c116100cd578063a6bbbe1c1461044b578063c13911e81461046a578063ca1e781914610496578063d3fd6364146104b7575f80fd5b80638febbd59146103b65780639067088e146103e5578063967082261461040457806396a2ddfa14610437575f80fd5b80636c2eb350116101735780638028861a116101435780638028861a146103345780638074b4551461035357806388f50cf0146103665780638da5cb5b1461037a575f80fd5b80636c2eb350146102e45780636ef25c3a146102f8578063715018a61461030c57806378ee5dec14610320575f80fd5b80632dacfb69116101ae5780632dacfb69146102665780633d43b4181461027a578063444d9172146102995780635686cad5146102c5575f80fd5b80627a32e7146101de5780630834fecc146102055780631c149d8a1461023157806328e24b3d14610252575b5f80fd5b3480156101e9575f80fd5b506101f26105ba565b6040519081526020015b60405180910390f35b348015610210575f80fd5b506102196105ce565b6040516001600160801b0390911681526020016101fc565b34801561023c575f80fd5b5061025061024b366004612509565b6105f2565b005b34801561025d575f80fd5b506101f2610740565b348015610271575f80fd5b506101f2610751565b348015610285575f80fd5b50610250610294366004612544565b610765565b3480156102a4575f80fd5b506102ad61079b565b6040516001600160a01b0390911681526020016101fc565b3480156102d0575f80fd5b506102506102df3660046125a1565b6107b8565b3480156102ef575f80fd5b50610250610855565b348015610303575f80fd5b50610219610a67565b348015610317575f80fd5b50610250610a90565b34801561032b575f80fd5b506102ad610aa3565b34801561033f575f80fd5b5061025061034e366004612633565b610ac0565b6102ad61036136600461266f565b610b25565b348015610371575f80fd5b506102ad610d1d565b348015610385575f80fd5b507f9016d09d72d40fdae2fd8ceac6b6234c7706214fd39c1cd1e609a0528c199300546001600160a01b03166102ad565b3480156103c1575f80fd5b506103d56103d0366004612544565b610d3a565b60405190151581526020016101fc565b3480156103f0575f80fd5b506101f26103ff366004612544565b610d68565b34801561040f575f80fd5b507f5c09ca1b9b8127a4fd9f3c384aac59b661441e820e17733753ff5f2e86e1e000546101f2565b348015610442575f80fd5b506101f2610d93565b348015610456575f80fd5b506102506104653660046126fe565b610da7565b348015610475575f80fd5b50610489610484366004612717565b610e25565b6040516101fc9190612742565b3480156104a1575f80fd5b506104aa610e46565b6040516101fc9190612768565b3480156104c2575f80fd5b506104cb610eaf565b6040516001600160401b0390911681526020016101fc565b3480156104ee575f80fd5b506102506104fd3660046127fa565b610ecc565b34801561050d575f80fd5b5061025061051c366004612838565b610f43565b34801561052c575f80fd5b506101f261111a565b348015610540575f80fd5b506101f261112e565b348015610554575f80fd5b506101f2611162565b348015610568575f80fd5b50610250610577366004612544565b611176565b348015610587575f80fd5b506102506105963660046128d0565b6111b3565b3480156105a6575f80fd5b506102506105b53660046129c0565b61138d565b5f806105c4611415565b600a015492915050565b5f806105d8611415565b60060154600160401b90046001600160801b031692915050565b8015158061060057505f4915155b6106515760405162461bcd60e51b815260206004820152601c60248201527f626c6f6254784861736820636f756c646e277420626520666f756e640000000060448201526064015b60405180910390fd5b5f61065a611415565b90505f8084815260098301602052604090205460ff1660028111156106815761068161272e565b146106e75760405162461bcd60e51b815260206004820152603060248201527f636f64652077697468207375636820696420616c72656164792072657175657360448201526f1d1959081bdc881d985b1a59185d195960821b6064820152608401610648565b5f838152600982016020908152604091829020805460ff1916600117905581518581529081018490527f65672eaf4ff8b823ea29ae013fef437d1fa9ed431125263a7a1f0ac49eada396910160405180910390a1505050565b5f8061074a611415565b5492915050565b5f8061075b611415565b6004015492915050565b61076d611445565b5f610776611415565b60010180546001600160a01b0319166001600160a01b03939093169290921790915550565b5f806107a5611415565b600101546001600160a01b031692915050565b6107c0611445565b805160208201205f9060ff19906107d990600190612a26565b6040516020016107eb91815260200190565b60408051601f198184030181529190528051602090910120169050807f5c09ca1b9b8127a4fd9f3c384aac59b661441e820e17733753ff5f2e86e1e000556040517f5aa0c6c9fb33211212ffe5bef7a4b5d511b82a611e6677052d984e2bcedeaccc905f90a15050565b61085d611445565b7ff0c57e16840df040f15088dc2f81fe391c3923bec73e23a9662efc9c229c6a00805460029190600160401b900460ff16806108a6575080546001600160401b03808416911610155b156108c45760405163f92ee8a960e01b815260040160405180910390fd5b805468ffffffffffffffffff19166001600160401b03831617600160401b1781555f6108ee611415565b600181015460028201546003830154600884018054604080516020808402820181019092528281529697506001600160a01b039586169694861695909316935f939092919083018282801561096a57602002820191905f5260205f20905b81546001600160a01b0316815260019091019060200180831161094c575b505050505090506109af6040518060400160405280601781526020017f726f757465722e73746f726167652e526f7574657256320000000000000000008152506107b8565b5f6109b8611415565b90506109c5600143612a26565b4081556001810180546001600160a01b038088166001600160a01b03199283161790925560028301805487841690831617905560038301805492861692909116919091179055610a14826114a0565b5050845460ff60401b1916855550506040516001600160401b03851681527fc7f505b2f371ae2175ee4913f4499e1f2633a7b5936321eed1cdaeb6115181d2925060200190505b60405180910390a15050565b5f610a706105ce565b610a78610eaf565b6001600160401b0316610a8b9190612a39565b905090565b610a98611445565b610aa15f611580565b565b5f80610aad611415565b600201546001600160a01b031692915050565b610ac8611445565b5f610ad1611415565b60068101805467ffffffffffffffff19166001600160401b0385169081179091556040519081529091507f01326573cfc0bc40a2550923254394ebd7529e3e3301840dfa33cf786aead0c790602001610a5b565b5f80610b2f611415565b905060025f88815260098301602052604090205460ff166002811115610b5757610b5761272e565b14610bbb5760405162461bcd60e51b815260206004820152602e60248201527f636f6465206d7573742062652076616c696461746564206265666f726520707260448201526d37b3b930b69031b932b0ba34b7b760911b6064820152608401610648565b5f610bc4610a67565b90505f610bd282600a612a39565b90505f85610be08385612a62565b610bea9190612a62565b9050610bf5816115f0565b600284015460408051602081018d90529081018b90525f91610c3b916001600160a01b0390911690606001604051602081830303815290604052805190602001206116cf565b6001600160a01b0381165f908152600b8701602052604081208d9055600c8701805492935090610c6a83612a81565b90915550506040516001600160a01b03821681528b907f8008ec1d8798725ebfa0f2d128d52e8e717dcba6e0f786557eeee70614b02bf19060200160405180910390a26040516306f0ee9760e51b81526001600160a01b0382169063de1dd2e090610ce19032908d908d908d908a90600401612ac1565b5f604051808303815f87803b158015610cf8575f80fd5b505af1158015610d0a573d5f803e3d5ffd5b50929d9c50505050505050505050505050565b5f80610d27611415565b600301546001600160a01b031692915050565b5f80610d44611415565b6001600160a01b039093165f90815260079093016020525050604090205460ff1690565b5f80610d72611415565b6001600160a01b039093165f908152600b9093016020525050604090205490565b5f80610d9d611415565b600c015492915050565b610daf611445565b5f610db8611415565b60068101805477ffffffffffffffffffffffffffffffff00000000000000001916600160401b6001600160801b038616908102919091179091556040519081529091507f9f5e1796f1a0adf311f86170503308a06a16560a7679b7b6da35f4999200d74090602001610a5b565b5f80610e2f611415565b5f9384526009016020525050604090205460ff1690565b60605f610e51611415565b60088101805460408051602080840282018101909252828152939450830182828015610ea457602002820191905f5260205f20905b81546001600160a01b03168152600190910190602001808311610e86575b505050505091505090565b5f80610eb9611415565b600601546001600160401b031692915050565b610ed4611445565b610edc6116e2565b610f178282808060200260200160405190810160405280939291908181526020018383602002808284375f920191909152506114a092505050565b6040517f144bbc027dc176e94c43b7c1bcff2a8aa58ab434029eec294743cd4ab2e54f51905f90a15050565b5f610f4c611415565b905060605f5b858110156110ff5736878783818110610f6d57610f6d612b07565b90506040020190505f610f7f82611752565b90508381604051602001610f94929190612b32565b60408051601f198184030181529190529350813560015f82815260098801602052604090205460ff166002811115610fce57610fce61272e565b1461102b5760405162461bcd60e51b815260206004820152602760248201527f636f64652073686f756c642062652072657175657374656420666f722076616c60448201526634b230ba34b7b760c91b6064820152608401610648565b61103b6040840160208501612b57565b156110aa575f8181526009870160205260408120805460ff19166002179055600a870180549161106a83612a81565b90915550506040518181526001907f460119a8f69a33ed127de517d5ea464e958ce23ef19e4420a8b92bf780bbc2c99060200160405180910390a26110f4565b5f8181526009870160209081526040808320805460ff19169055518381527f460119a8f69a33ed127de517d5ea464e958ce23ef19e4420a8b92bf780bbc2c9910160405180910390a25b505050600101610f52565b50611112818051906020012085856117a1565b505050505050565b5f80611124611415565b6008015492915050565b5f61271061113a611162565b61114261111a565b61114c9190612b72565b6111589061270f612b89565b610a8b9190612b9c565b5f8061116c611415565b6005015492915050565b61117e611445565b6001600160a01b0381166111a757604051631e4fbdf760e01b81525f6004820152602401610648565b6111b081611580565b50565b7ff0c57e16840df040f15088dc2f81fe391c3923bec73e23a9662efc9c229c6a008054600160401b810460ff1615906001600160401b03165f811580156111f75750825b90505f826001600160401b031660011480156112125750303b155b905081158015611220575080155b1561123e5760405163f92ee8a960e01b815260040160405180910390fd5b845467ffffffffffffffff19166001178555831561126857845460ff60401b1916600160401b1785555b6112718a611945565b6112af6040518060400160405280601781526020017f726f757465722e73746f726167652e526f7574657256310000000000000000008152506107b8565b5f6112b8611415565b90506112c5600143612a26565b4081556001810180546001600160a01b03199081166001600160a01b038d81169190911790925560028301805482168c8416179055600383018054909116918a16919091179055611a0a60058201556006810180546001600160c01b031916680a000000009502f90017905561133a876114a0565b50831561138157845460ff60401b19168555604051600181527fc7f505b2f371ae2175ee4913f4499e1f2633a7b5936321eed1cdaeb6115181d29060200160405180910390a15b50505050505050505050565b60605f5b848110156113fb57368686838181106113ac576113ac612b07565b90506020028101906113be9190612bbb565b90505f6113ca82611956565b905083816040516020016113df929190612b32565b60408051808303601f1901815291905293505050600101611391565b5061140e818051906020012084846117a1565b5050505050565b5f8061143f7f5c09ca1b9b8127a4fd9f3c384aac59b661441e820e17733753ff5f2e86e1e0005490565b92915050565b336114777f9016d09d72d40fdae2fd8ceac6b6234c7706214fd39c1cd1e609a0528c199300546001600160a01b031690565b6001600160a01b031614610aa15760405163118cdaa760e01b8152336004820152602401610648565b5f6114a9611415565b60088101549091501561150a5760405162461bcd60e51b815260206004820152602360248201527f70726576696f75732076616c696461746f727320776572656e27742072656d6f6044820152621d995960ea1b6064820152608401610648565b5f5b8251811015611565575f83828151811061152857611528612b07565b6020908102919091018101516001600160a01b03165f9081526007850190915260409020805460ff1916600190811790915591909101905061150c565b50815161157b906008830190602085019061247b565b505050565b7f9016d09d72d40fdae2fd8ceac6b6234c7706214fd39c1cd1e609a0528c19930080546001600160a01b031981166001600160a01b03848116918217845560405192169182907f8be0079c531659141344cd1fd0a4f28419497f9722a3daafe3b4186f6b6457e0905f90a3505050565b5f6115f9611415565b60038101546040516323b872dd60e01b81523260048201523060248201526001600160801b03851660448201529192505f916001600160a01b03909116906323b872dd906064016020604051808303815f875af115801561165c573d5f803e3d5ffd5b505050506040513d601f19601f820116820180604052508101906116809190612bd9565b90508061157b5760405162461bcd60e51b815260206004820152601860248201527f6661696c656420746f20726574726965766520575661726100000000000000006044820152606401610648565b5f6116db83835f611b2e565b9392505050565b5f6116eb611415565b90505f5b6008820154811015611744575f82600801828154811061171157611711612b07565b5f9182526020808320909101546001600160a01b0316825260078501905260409020805460ff19169055506001016116ef565b506111b0600882015f6124de565b5f81356117656040840160208501612b57565b604051602001611784929190918252151560f81b602082015260210190565b604051602081830303815290604052805190602001209050919050565b5f6117aa611415565b90505f6117b561112e565b90505f6117e5866040516020016117ce91815260200190565b60408051601f198184030181529190523090611bc3565b90505f805b858110156118eb57365f88888481811061180657611806612b07565b90506020028101906118189190612bf4565b915091505f61185e83838080601f0160208091040260200160405190810160405280939291908181526020018383808284375f920191909152508a93925050611bf59050565b6001600160a01b0381165f90815260078a01602052604090205490915060ff16156118a2578661188d86612a81565b9550850361189d575050506118eb565b6118e0565b60405162461bcd60e51b8152602060048201526013602482015272696e636f7272656374207369676e617475726560681b6044820152606401610648565b5050506001016117ea565b508281101561193c5760405162461bcd60e51b815260206004820152601b60248201527f6e6f7420656e6f7567682076616c6964207369676e61747572657300000000006044820152606401610648565b50505050505050565b61194d611c1d565b6111b081611c66565b5f80611960611415565b905082602001358160040154146119b95760405162461bcd60e51b815260206004820181905260248201527f696e76616c69642070726576696f757320636f6d6d69746d656e7420686173686044820152606401610648565b6119c68360400135611c6e565b611a1e5760405162461bcd60e51b815260206004820152602360248201527f616c6c6f776564207072656465636573736f7220626c6f636b206e6f7420666f6044820152621d5b9960ea1b6064820152608401610648565b60605f5b611a2f6060860186612c36565b9050811015611aa55736611a466060870187612c36565b83818110611a5657611a56612b07565b9050602002810190611a689190612c7b565b90505f611a7482611cc0565b90508381604051602001611a89929190612b32565b60408051808303601f1901815291905293505050600101611a22565b508335600483018190556040519081527fd756eca21e02cb0dbde1e44a4d9c6921b5c8aa4668cfa0752784b3dc855bce1e9060200160405180910390a180516020828101919091206040805187358185015283880135818301528188013560608201526080808201939093528151808203909301835260a001905280519101205b949350505050565b5f81471015611b595760405163cf47918160e01b815247600482015260248101839052604401610648565b763d602d80600a3d3981f3363d3d373d3d3d363d730000008460601b60e81c175f526e5af43d82803e903d91602b57fd5bf38460781b17602052826037600984f590506001600160a01b0381166116db5760405163b06ebf3d60e01b815260040160405180910390fd5b5f8282604051602001611bd7929190612c8f565b60405160208183030381529060405280519060200120905092915050565b5f805f80611c038686612253565b925092509250611c13828261229c565b5090949350505050565b7ff0c57e16840df040f15088dc2f81fe391c3923bec73e23a9662efc9c229c6a0054600160401b900460ff16610aa157604051631afcd79f60e31b815260040160405180910390fd5b61117e611c1d565b5f80611c7b600143612a26565b90505b8015611cb8578040838103611c97575060019392505050565b5f819003611ca55750611cb8565b5080611cb081612cb8565b915050611c7e565b505f92915050565b5f80611cca611415565b9050600b81015f611cde6020860186612544565b6001600160a01b03166001600160a01b031681526020019081526020015f20545f801b03611d665760405162461bcd60e51b815260206004820152602f60248201527f636f756c646e277420706572666f726d207472616e736974696f6e20666f722060448201526e756e6b6e6f776e2070726f6772616d60881b6064820152608401610648565b60038101546001600160a01b03168063a9059cbb611d876020870187612544565b611d9760608801604089016126fe565b6040516001600160e01b031960e085901b1681526001600160a01b0390921660048301526001600160801b031660248201526044016020604051808303815f875af1158015611de8573d5f803e3d5ffd5b505050506040513d601f19601f82011682018060405250810190611e0c9190612bd9565b505f611e1b6020860186612544565b905060605f5b611e2e6060880188612ccd565b9050811015611f9c5736611e456060890189612ccd565b83818110611e5557611e55612b07565b6060029190910191508390508135611e736040840160208501612544565b611e8360608501604086016126fe565b604051602001611ec09392919092835260609190911b6001600160601b031916602083015260801b6001600160801b031916603482015260440190565b60408051601f1981840301815290829052611ede9291602001612d11565b6040516020818303038152906040529250836001600160a01b03166314503e51825f0135836020016020810190611f159190612544565b611f2560608601604087016126fe565b6040516001600160e01b031960e086901b16815260048101939093526001600160a01b0390911660248301526001600160801b031660448201526064015f604051808303815f87803b158015611f79575f80fd5b505af1158015611f8b573d5f803e3d5ffd5b505060019093019250611e21915050565b5060605f5b611fae6080890189612c36565b905081101561215a5736611fc560808a018a612c36565b83818110611fd557611fd5612b07565b9050602002810190611fe79190612d25565b905082611ff382612358565b604051602001612004929190612b32565b60408051601f19818403018152919052925060808101355f036120b1576001600160a01b03851663c2df600982356120426040850160208601612544565b61204f6040860186612bf4565b61205f60808801606089016126fe565b6040518663ffffffff1660e01b815260040161207f959493929190612d39565b5f604051808303815f87803b158015612096575f80fd5b505af11580156120a8573d5f803e3d5ffd5b50505050612151565b6001600160a01b03851663c78bde776120d06040840160208501612544565b6120dd6040850185612bf4565b6120ed60808701606088016126fe565b608087013561210260c0890160a08a01612d7e565b6040518763ffffffff1660e01b815260040161212396959493929190612da5565b5f604051808303815f87803b15801561213a575f80fd5b505af115801561214c573d5f803e3d5ffd5b505050505b50600101611fa1565b50604051638ea59e1d60e01b8152602088013560048201526001600160a01b03841690638ea59e1d906024015f604051808303815f87803b15801561219d575f80fd5b505af11580156121af573d5f803e3d5ffd5b5061224892506121c59150506020890189612544565b60208901356121da60608b0160408c016126fe565b85516020808801919091208651878301206040805160609790971b6001600160601b03191687850152603487019590955260809390931b6001600160801b031916605486015260648501526084808501929092528251808503909201825260a4909301909152805191012090565b979650505050505050565b5f805f835160410361228a576020840151604085015160608601515f1a61227c888285856123b3565b955095509550505050612295565b505081515f91506002905b9250925092565b5f8260038111156122af576122af61272e565b036122b8575050565b60018260038111156122cc576122cc61272e565b036122ea5760405163f645eedf60e01b815260040160405180910390fd5b60028260038111156122fe576122fe61272e565b0361231f5760405163fce698f760e01b815260048101829052602401610648565b60038260038111156123335761233361272e565b03612354576040516335e2f38360e21b815260048101829052602401610648565b5050565b5f813561236b6040840160208501612544565b6123786040850185612bf4565b61238860808701606088016126fe565b608087013561239d60c0890160a08a01612d7e565b6040516020016117849796959493929190612dfa565b5f80807f7fffffffffffffffffffffffffffffff5d576e7357a4501ddfe92f46681b20a08411156123ec57505f91506003905082612471565b604080515f808252602082018084528a905260ff891692820192909252606081018790526080810186905260019060a0016020604051602081039080840390855afa15801561243d573d5f803e3d5ffd5b5050604051601f1901519150506001600160a01b03811661246857505f925060019150829050612471565b92505f91508190505b9450945094915050565b828054828255905f5260205f209081019282156124ce579160200282015b828111156124ce57825182546001600160a01b0319166001600160a01b03909116178255602090920191600190910190612499565b506124da9291506124f5565b5090565b5080545f8255905f5260205f20908101906111b091905b5b808211156124da575f81556001016124f6565b5f806040838503121561251a575f80fd5b50508035926020909101359150565b80356001600160a01b038116811461253f575f80fd5b919050565b5f60208284031215612554575f80fd5b6116db82612529565b634e487b7160e01b5f52604160045260245ffd5b604051601f8201601f191681016001600160401b03811182821017156125995761259961255d565b604052919050565b5f602082840312156125b1575f80fd5b81356001600160401b038111156125c6575f80fd5b8201601f810184136125d6575f80fd5b80356001600160401b038111156125ef576125ef61255d565b612602601f8201601f1916602001612571565b818152856020838501011115612616575f80fd5b816020840160208301375f91810160200191909152949350505050565b5f60208284031215612643575f80fd5b81356001600160401b03811681146116db575f80fd5b80356001600160801b038116811461253f575f80fd5b5f805f805f60808688031215612683575f80fd5b853594506020860135935060408601356001600160401b038111156126a6575f80fd5b8601601f810188136126b6575f80fd5b80356001600160401b038111156126cb575f80fd5b8860208284010111156126dc575f80fd5b602091909101935091506126f260608701612659565b90509295509295909350565b5f6020828403121561270e575f80fd5b6116db82612659565b5f60208284031215612727575f80fd5b5035919050565b634e487b7160e01b5f52602160045260245ffd5b602081016003831061276257634e487b7160e01b5f52602160045260245ffd5b91905290565b602080825282518282018190525f918401906040840190835b818110156127a85783516001600160a01b0316835260209384019390920191600101612781565b509095945050505050565b5f8083601f8401126127c3575f80fd5b5081356001600160401b038111156127d9575f80fd5b6020830191508360208260051b85010111156127f3575f80fd5b9250929050565b5f806020838503121561280b575f80fd5b82356001600160401b03811115612820575f80fd5b61282c858286016127b3565b90969095509350505050565b5f805f806040858703121561284b575f80fd5b84356001600160401b03811115612860575f80fd5b8501601f81018713612870575f80fd5b80356001600160401b03811115612885575f80fd5b8760208260061b8401011115612899575f80fd5b6020918201955093508501356001600160401b038111156128b8575f80fd5b6128c4878288016127b3565b95989497509550505050565b5f805f805f60a086880312156128e4575f80fd5b6128ed86612529565b94506128fb60208701612529565b935061290960408701612529565b925061291760608701612529565b915060808601356001600160401b03811115612931575f80fd5b8601601f81018813612941575f80fd5b80356001600160401b0381111561295a5761295a61255d565b8060051b61296a60208201612571565b9182526020818401810192908101908b841115612985575f80fd5b6020850194505b838510156129ae5761299d85612529565b82526020948501949091019061298c565b80955050505050509295509295909350565b5f805f80604085870312156129d3575f80fd5b84356001600160401b038111156129e8575f80fd5b6129f4878288016127b3565b90955093505060208501356001600160401b038111156128b8575f80fd5b634e487b7160e01b5f52601160045260245ffd5b8181038181111561143f5761143f612a12565b6001600160801b038181168382160290811690818114612a5b57612a5b612a12565b5092915050565b6001600160801b03818116838216019081111561143f5761143f612a12565b5f60018201612a9257612a92612a12565b5060010190565b81835281816020850137505f828201602090810191909152601f909101601f19169091010190565b6001600160a01b03861681526080602082018190525f90612ae59083018688612a99565b6001600160801b03948516604084015292909316606090910152949350505050565b634e487b7160e01b5f52603260045260245ffd5b5f81518060208401855e5f93019283525090919050565b5f612b3d8285612b1b565b9283525050602001919050565b80151581146111b0575f80fd5b5f60208284031215612b67575f80fd5b81356116db81612b4a565b808202811582820484141761143f5761143f612a12565b8082018082111561143f5761143f612a12565b5f82612bb657634e487b7160e01b5f52601260045260245ffd5b500490565b5f8235607e19833603018112612bcf575f80fd5b9190910192915050565b5f60208284031215612be9575f80fd5b81516116db81612b4a565b5f808335601e19843603018112612c09575f80fd5b8301803591506001600160401b03821115612c22575f80fd5b6020019150368190038213156127f3575f80fd5b5f808335601e19843603018112612c4b575f80fd5b8301803591506001600160401b03821115612c64575f80fd5b6020019150600581901b36038213156127f3575f80fd5b5f8235609e19833603018112612bcf575f80fd5b601960f81b8152606083901b6001600160601b03191660028201525f611b266016830184612b1b565b5f81612cc657612cc6612a12565b505f190190565b5f808335601e19843603018112612ce2575f80fd5b8301803591506001600160401b03821115612cfb575f80fd5b60200191506060810236038213156127f3575f80fd5b5f611b26612d1f8386612b1b565b84612b1b565b5f823560be19833603018112612bcf575f80fd5b8581526001600160a01b03851660208201526080604082018190525f90612d639083018587612a99565b90506001600160801b03831660608301529695505050505050565b5f60208284031215612d8e575f80fd5b81356001600160e01b0319811681146116db575f80fd5b6001600160a01b038716815260a0602082018190525f90612dc99083018789612a99565b6001600160801b039590951660408301525060608101929092526001600160e01b0319166080909101529392505050565b8781526bffffffffffffffffffffffff198760601b1660208201528486603483013760809390931b6001600160801b0319166034949093019384019290925260448301526001600160e01b0319166064820152606801939250505056fea2646970667358221220a90d9c3b528e6a7293a60bb98d70c1f265ac21b4f51ec75c32663f1695fffa4464736f6c634300081a0033","linkReferences":{}},"methodIdentifiers":{"baseFee()":"6ef25c3a","baseWeight()":"d3fd6364","codeState(bytes32)":"c13911e8","commitBlocks((bytes32,bytes32,bytes32,(address,bytes32,uint128,(bytes32,address,uint128)[],(bytes32,address,bytes,uint128,(bytes32,bytes4))[])[])[],bytes[])":"fa97ed6d","commitCodes((bytes32,bool)[],bytes[])":"e97d3eb3","createProgram(bytes32,bytes32,bytes,uint128)":"8074b455","genesisBlockHash()":"28e24b3d","getStorageSlot()":"96708226","initialize(address,address,address,address,address[])":"f8453e7c","lastBlockCommitmentHash()":"2dacfb69","mirror()":"444d9172","mirrorProxy()":"78ee5dec","owner()":"8da5cb5b","programCodeId(address)":"9067088e","programsCount()":"96a2ddfa","reinitialize()":"6c2eb350","renounceOwnership()":"715018a6","requestCodeValidation(bytes32,bytes32)":"1c149d8a","setBaseWeight(uint64)":"8028861a","setMirror(address)":"3d43b418","setStorageSlot(string)":"5686cad5","setValuePerWeight(uint128)":"a6bbbe1c","signingThresholdPercentage()":"efd81abc","transferOwnership(address)":"f2fde38b","updateValidators(address[])":"e71731e4","validatedCodesCount()":"007a32e7","validatorExists(address)":"8febbd59","validators()":"ca1e7819","validatorsCount()":"ed612f8c","validatorsThreshold()":"edc87225","valuePerWeight()":"0834fecc","wrappedVara()":"88f50cf0"},"storageLayout":{"storage":[],"types":{}},"id":81}