{"abi":[{"type":"constructor","inputs":[],"stateMutability":"nonpayable"},{"type":"function","name":"areValidators","inputs":[{"name":"_validators","type":"address[]","internalType":"address[]"}],"outputs":[{"name":"","type":"bool","internalType":"bool"}],"stateMutability":"view"},{"type":"function","name":"codeState","inputs":[{"name":"_codeId","type":"bytes32","internalType":"bytes32"}],"outputs":[{"name":"","type":"uint8","internalType":"enum Gear.CodeState"}],"stateMutability":"view"},{"type":"function","name":"codesStates","inputs":[{"name":"_codesIds","type":"bytes32[]","internalType":"bytes32[]"}],"outputs":[{"name":"","type":"uint8[]","internalType":"enum Gear.CodeState[]"}],"stateMutability":"view"},{"type":"function","name":"commitBlocks","inputs":[{"name":"_blockCommitments","type":"tuple[]","internalType":"struct Gear.BlockCommitment[]","components":[{"name":"hash","type":"bytes32","internalType":"bytes32"},{"name":"timestamp","type":"uint48","internalType":"uint48"},{"name":"previousCommittedBlock","type":"bytes32","internalType":"bytes32"},{"name":"predecessorBlock","type":"bytes32","internalType":"bytes32"},{"name":"transitions","type":"tuple[]","internalType":"struct Gear.StateTransition[]","components":[{"name":"actorId","type":"address","internalType":"address"},{"name":"newStateHash","type":"bytes32","internalType":"bytes32"},{"name":"inheritor","type":"address","internalType":"address"},{"name":"valueToReceive","type":"uint128","internalType":"uint128"},{"name":"valueClaims","type":"tuple[]","internalType":"struct Gear.ValueClaim[]","components":[{"name":"messageId","type":"bytes32","internalType":"bytes32"},{"name":"destination","type":"address","internalType":"address"},{"name":"value","type":"uint128","internalType":"uint128"}]},{"name":"messages","type":"tuple[]","internalType":"struct Gear.Message[]","components":[{"name":"id","type":"bytes32","internalType":"bytes32"},{"name":"destination","type":"address","internalType":"address"},{"name":"payload","type":"bytes","internalType":"bytes"},{"name":"value","type":"uint128","internalType":"uint128"},{"name":"replyDetails","type":"tuple","internalType":"struct Gear.ReplyDetails","components":[{"name":"to","type":"bytes32","internalType":"bytes32"},{"name":"code","type":"bytes4","internalType":"bytes4"}]}]}]}]},{"name":"_signatures","type":"bytes[]","internalType":"bytes[]"}],"outputs":[],"stateMutability":"nonpayable"},{"type":"function","name":"commitCodes","inputs":[{"name":"_codeCommitments","type":"tuple[]","internalType":"struct Gear.CodeCommitment[]","components":[{"name":"id","type":"bytes32","internalType":"bytes32"},{"name":"valid","type":"bool","internalType":"bool"}]},{"name":"_signatures","type":"bytes[]","internalType":"bytes[]"}],"outputs":[],"stateMutability":"nonpayable"},{"type":"function","name":"computeSettings","inputs":[],"outputs":[{"name":"","type":"tuple","internalType":"struct Gear.ComputationSettings","components":[{"name":"threshold","type":"uint64","internalType":"uint64"},{"name":"wvaraPerSecond","type":"uint128","internalType":"uint128"}]}],"stateMutability":"view"},{"type":"function","name":"createProgram","inputs":[{"name":"_codeId","type":"bytes32","internalType":"bytes32"},{"name":"_salt","type":"bytes32","internalType":"bytes32"},{"name":"_payload","type":"bytes","internalType":"bytes"},{"name":"_value","type":"uint128","internalType":"uint128"}],"outputs":[{"name":"","type":"address","internalType":"address"}],"stateMutability":"nonpayable"},{"type":"function","name":"createProgramWithDecoder","inputs":[{"name":"_decoderImpl","type":"address","internalType":"address"},{"name":"_codeId","type":"bytes32","internalType":"bytes32"},{"name":"_salt","type":"bytes32","internalType":"bytes32"},{"name":"_payload","type":"bytes","internalType":"bytes"},{"name":"_value","type":"uint128","internalType":"uint128"}],"outputs":[{"name":"","type":"address","internalType":"address"}],"stateMutability":"nonpayable"},{"type":"function","name":"genesisBlockHash","inputs":[],"outputs":[{"name":"","type":"bytes32","internalType":"bytes32"}],"stateMutability":"view"},{"type":"function","name":"initialize","inputs":[{"name":"_owner","type":"address","internalType":"address"},{"name":"_mirror","type":"address","internalType":"address"},{"name":"_mirrorProxy","type":"address","internalType":"address"},{"name":"_wrappedVara","type":"address","internalType":"address"},{"name":"_validatorsKeys","type":"address[]","internalType":"address[]"}],"outputs":[],"stateMutability":"nonpayable"},{"type":"function","name":"isValidator","inputs":[{"name":"_validator","type":"address","internalType":"address"}],"outputs":[{"name":"","type":"bool","internalType":"bool"}],"stateMutability":"view"},{"type":"function","name":"latestCommittedBlockHash","inputs":[],"outputs":[{"name":"","type":"bytes32","internalType":"bytes32"}],"stateMutability":"view"},{"type":"function","name":"lookupGenesisHash","inputs":[],"outputs":[],"stateMutability":"nonpayable"},{"type":"function","name":"mirrorImpl","inputs":[],"outputs":[{"name":"","type":"address","internalType":"address"}],"stateMutability":"view"},{"type":"function","name":"mirrorProxyImpl","inputs":[],"outputs":[{"name":"","type":"address","internalType":"address"}],"stateMutability":"view"},{"type":"function","name":"owner","inputs":[],"outputs":[{"name":"","type":"address","internalType":"address"}],"stateMutability":"view"},{"type":"function","name":"programCodeId","inputs":[{"name":"_programId","type":"address","internalType":"address"}],"outputs":[{"name":"","type":"bytes32","internalType":"bytes32"}],"stateMutability":"view"},{"type":"function","name":"programsCodeIds","inputs":[{"name":"_programsIds","type":"address[]","internalType":"address[]"}],"outputs":[{"name":"","type":"bytes32[]","internalType":"bytes32[]"}],"stateMutability":"view"},{"type":"function","name":"programsCount","inputs":[],"outputs":[{"name":"","type":"uint256","internalType":"uint256"}],"stateMutability":"view"},{"type":"function","name":"reinitialize","inputs":[],"outputs":[],"stateMutability":"nonpayable"},{"type":"function","name":"renounceOwnership","inputs":[],"outputs":[],"stateMutability":"nonpayable"},{"type":"function","name":"requestCodeValidation","inputs":[{"name":"_codeId","type":"bytes32","internalType":"bytes32"},{"name":"_blobTxHash","type":"bytes32","internalType":"bytes32"}],"outputs":[],"stateMutability":"nonpayable"},{"type":"function","name":"setMirror","inputs":[{"name":"newMirror","type":"address","internalType":"address"}],"outputs":[],"stateMutability":"nonpayable"},{"type":"function","name":"signingThresholdPercentage","inputs":[],"outputs":[{"name":"","type":"uint16","internalType":"uint16"}],"stateMutability":"view"},{"type":"function","name":"transferOwnership","inputs":[{"name":"newOwner","type":"address","internalType":"address"}],"outputs":[],"stateMutability":"nonpayable"},{"type":"function","name":"validatedCodesCount","inputs":[],"outputs":[{"name":"","type":"uint256","internalType":"uint256"}],"stateMutability":"view"},{"type":"function","name":"validatorsCount","inputs":[],"outputs":[{"name":"","type":"uint256","internalType":"uint256"}],"stateMutability":"view"},{"type":"function","name":"validatorsKeys","inputs":[],"outputs":[{"name":"","type":"address[]","internalType":"address[]"}],"stateMutability":"view"},{"type":"function","name":"validatorsThreshold","inputs":[],"outputs":[{"name":"","type":"uint256","internalType":"uint256"}],"stateMutability":"view"},{"type":"function","name":"wrappedVara","inputs":[],"outputs":[{"name":"","type":"address","internalType":"address"}],"stateMutability":"view"},{"type":"event","name":"BlockCommitted","inputs":[{"name":"hash","type":"bytes32","indexed":false,"internalType":"bytes32"}],"anonymous":false},{"type":"event","name":"CodeGotValidated","inputs":[{"name":"id","type":"bytes32","indexed":false,"internalType":"bytes32"},{"name":"valid","type":"bool","indexed":true,"internalType":"bool"}],"anonymous":false},{"type":"event","name":"CodeValidationRequested","inputs":[{"name":"id","type":"bytes32","indexed":false,"internalType":"bytes32"},{"name":"blobTxHash","type":"bytes32","indexed":false,"internalType":"bytes32"}],"anonymous":false},{"type":"event","name":"ComputationSettingsChanged","inputs":[{"name":"threshold","type":"uint64","indexed":false,"internalType":"uint64"},{"name":"wvaraPerSecond","type":"uint128","indexed":false,"internalType":"uint128"}],"anonymous":false},{"type":"event","name":"Initialized","inputs":[{"name":"version","type":"uint64","indexed":false,"internalType":"uint64"}],"anonymous":false},{"type":"event","name":"OwnershipTransferred","inputs":[{"name":"previousOwner","type":"address","indexed":true,"internalType":"address"},{"name":"newOwner","type":"address","indexed":true,"internalType":"address"}],"anonymous":false},{"type":"event","name":"ProgramCreated","inputs":[{"name":"actor","type":"address","indexed":false,"internalType":"address"},{"name":"codeId","type":"bytes32","indexed":true,"internalType":"bytes32"}],"anonymous":false},{"type":"event","name":"StorageSlotChanged","inputs":[],"anonymous":false},{"type":"event","name":"ValidatorsChanged","inputs":[],"anonymous":false},{"type":"error","name":"ECDSAInvalidSignature","inputs":[]},{"type":"error","name":"ECDSAInvalidSignatureLength","inputs":[{"name":"length","type":"uint256","internalType":"uint256"}]},{"type":"error","name":"ECDSAInvalidSignatureS","inputs":[{"name":"s","type":"bytes32","internalType":"bytes32"}]},{"type":"error","name":"FailedDeployment","inputs":[]},{"type":"error","name":"InsufficientBalance","inputs":[{"name":"balance","type":"uint256","internalType":"uint256"},{"name":"needed","type":"uint256","internalType":"uint256"}]},{"type":"error","name":"InvalidInitialization","inputs":[]},{"type":"error","name":"NotInitializing","inputs":[]},{"type":"error","name":"OwnableInvalidOwner","inputs":[{"name":"owner","type":"address","internalType":"address"}]},{"type":"error","name":"OwnableUnauthorizedAccount","inputs":[{"name":"account","type":"address","internalType":"address"}]},{"type":"error","name":"ReentrancyGuardReentrantCall","inputs":[]}],"bytecode":{"object":"0x6080806040523460d0577ff0c57e16840df040f15088dc2f81fe391c3923bec73e23a9662efc9c229c6a005460ff8160401c1660c1576002600160401b03196001600160401b03821601605c575b604051612b7590816100d58239f35b6001600160401b0319166001600160401b039081177ff0c57e16840df040f15088dc2f81fe391c3923bec73e23a9662efc9c229c6a005581527fc7f505b2f371ae2175ee4913f4499e1f2633a7b5936321eed1cdaeb6115181d290602090a15f80604d565b63f92ee8a960e01b5f5260045ffd5b5f80fdfe6080806040526004361015610012575f80fd5b5f3560e01c9081627a32e714611ec85750806301b1d156146114475780631c149d8a146112fa57806328e24b3d146112d05780633d43b4181461127e57806365ecfea214611246578063666d124c146111455780636c2eb35014610ebf5780636e61dd4914610e48578063715018a614610de15780638074b45514610d1d57806382bdeaad14610c1857806384d22a4f14610bb057806388f50cf014610b785780638b1edf1e14610ab35780638da5cb5b14610a7f5780638f381dbe14610a3a5780639067088e146109f257806396a2ddfa146109c5578063baaf0201146108ca578063c13911e814610886578063c9f16a1114610859578063e6fabc0914610821578063e97d3eb3146105fd578063ed612f8c146105d0578063edc872251461059c578063efd81abc1461056b578063f2fde38b14610545578063f8453e7c146101b65763facd743b14610165575f80fd5b346101b25760203660031901126101b25761017e611f22565b60085f80516020612b0083398151915254019060018060a01b03165f52602052602060ff60405f2054166040519015158152f35b5f80fd5b346101b25760a03660031901126101b2576101cf611f22565b6024356001600160a01b03811691908290036101b2576044356001600160a01b03811692908390036101b2576064356001600160a01b038116908190036101b2576084356001600160401b0381116101b25761022f903690600401611ef2565b915f80516020612b208339815191525460ff8160401c1615956001600160401b0382168015908161053d575b6001149081610533575b15908161052a575b5061051b5767ffffffffffffffff1982166001175f80516020612b20833981519152556102b091876104ef575b506102a3612998565b6102ab612998565b612270565b60409586516102bf8882612042565b6017815260208101907f726f757465722e73746f726167652e526f75746572563100000000000000000082526102f36124ba565b5190205f1981019081116104db5787519060208201908152602082526103198983612042565b60ff19915190201694855f80516020612b008339815191525561033a612758565b80518755600187019063ffffffff60208201511669ffffffffffff000000008b845493015160201b169169ffffffffffffffffffff1916171790558288805161038281612027565b8381526020810185905201526004860180546001600160a01b03199081166001600160a01b0393841617909155600587018054821693831693909317909255600686018054909216921691909117905560078301805461ffff1916611a0a1790556103ec8261218c565b916103f986519384612042565b808352602083019060051b8201913683116101b257905b8282106104c35750505090610427600a928261279d565b61042f6121c7565b506509184e72a000602085516104448161200c565b639502f900815201520180546001600160c01b0319166d09184e72a000000000009502f90017905561047257005b60207fc7f505b2f371ae2175ee4913f4499e1f2633a7b5936321eed1cdaeb6115181d29160ff60401b195f80516020612b2083398151915254165f80516020612b20833981519152555160018152a1005b602080916104d084611f38565b815201910190610410565b634e487b7160e01b5f52601160045260245ffd5b68ffffffffffffffffff191668010000000000000001175f80516020612b20833981519152558861029a565b63f92ee8a960e01b5f5260045ffd5b9050158961026d565b303b159150610265565b88915061025b565b346101b25760203660031901126101b257610569610561611f22565b6102ab6124ba565b005b346101b2575f3660031901126101b257602061ffff60075f80516020612b0083398151915254015416604051908152f35b346101b2575f3660031901126101b25760206105c860075f80516020612b0083398151915254016128c4565b604051908152f35b346101b2575f3660031901126101b257602060095f80516020612b00833981519152540154604051908152f35b346101b25760403660031901126101b2576004356001600160401b0381116101b257366023820112156101b25780600401356001600160401b0381116101b2573660248260061b840101116101b2576024356001600160401b0381116101b25761066b903690600401611ef2565b905f80516020612b00833981519152549361068885541515611f9a565b600b8501925f9260605b86851015610805578460061b8401602481013591825f528760205260ff60405f20541660038110156107f15760010361078e57600192610741604461076e94016106db81612255565b1561077657825f528a60205260405f20600260ff19825416179055600e8d016107048154612262565b90555b61071081612255565b15157f460119a8f69a33ed127de517d5ea464e958ce23ef19e4420a8b92bf780bbc2c96020604051868152a2612255565b6040519060208201928352151560f81b604082015260218152610765604182612042565b51902090612063565b940193610692565b825f528a60205260405f2060ff198154169055610707565b60405162461bcd60e51b815260206004820152603560248201527f636f6465206d7573742062652072657175657374656420666f722076616c6964604482015274185d1a5bdb881d1bc818994818dbdb5b5a5d1d1959605a1b6064820152608490fd5b634e487b7160e01b5f52602160045260245ffd5b9161081c91886105699460208151910120906123c2565b612092565b346101b2575f3660031901126101b2575f80516020612b0083398151915254600401546040516001600160a01b039091168152602090f35b346101b2575f3660031901126101b257602060025f80516020612b00833981519152540154604051908152f35b346101b25760203660031901126101b257600b5f80516020612b0083398151915254016004355f52602052602060ff60405f2054166108c86040518092611f8d565bf35b346101b25760203660031901126101b2576004356001600160401b0381116101b2576108fa903690600401611ef2565b5f80516020612b0083398151915254916109138261218c565b926109216040519485612042565b82845261092d8361218c565b602085019390601f1901368537600c5f9201915b81811061098c578486604051918291602083019060208452518091526040830191905f5b818110610973575050500390f35b8251845285945060209384019390920191600101610965565b806109a261099d60019385886121a3565b6121df565b828060a01b03165f528360205260405f20546109be82896121b3565b5201610941565b346101b2575f3660031901126101b2576020600d5f80516020612b00833981519152540154604051908152f35b346101b25760203660031901126101b257610a0b611f22565b600c5f80516020612b0083398151915254019060018060a01b03165f52602052602060405f2054604051908152f35b346101b25760203660031901126101b2576004356001600160401b0381116101b257610a75610a6f6020923690600401611ef2565b906121f3565b6040519015158152f35b346101b2575f3660031901126101b2575f80516020612ae0833981519152546040516001600160a01b039091168152602090f35b346101b2575f3660031901126101b2575f80516020612b00833981519152548054610b335763ffffffff60018201541640908115610aee5755005b60405162461bcd60e51b815260206004820152601d60248201527f756e61626c6520746f206c6f6f6b75702067656e6573697320686173680000006044820152606490fd5b60405162461bcd60e51b815260206004820152601860248201527f67656e65736973206861736820616c72656164792073657400000000000000006044820152606490fd5b346101b2575f3660031901126101b2575f80516020612b0083398151915254600601546040516001600160a01b039091168152602090f35b346101b2575f3660031901126101b257610bc86121c7565b506040600a5f80516020612b0083398151915254016001600160801b03825191610bf18361200c565b548160206001600160401b038316948581520191851c168152835192835251166020820152f35b346101b25760203660031901126101b2576004356001600160401b0381116101b257610c48903690600401611ef2565b5f80516020612b008339815191525491610c618261218c565b92610c6f6040519485612042565b828452610c7b8361218c565b602085019390601f1901368537600b5f9201915b818110610ce4578486604051918291602083019060208452518091526040830191905f5b818110610cc1575050500390f35b9193509160208082610cd66001948851611f8d565b019401910191849392610cb3565b610cef8183866121a3565b355f528260205260ff60405f20541690610d0981886121b3565b9160038110156107f1576001925201610c8f565b346101b25760803660031901126101b2576044356001600160401b0381116101b257610d4d903690600401611f4c565b90606435916001600160801b03831683036101b257610d71836024356004356124ed565b6001600160a01b0390911692909190833b156101b257610da85f9360405196879485946306f0ee9760e51b865233600487016120fe565b038183855af1918215610dd657602092610dc6575b50604051908152f35b5f610dd091612042565b82610dbd565b6040513d5f823e3d90fd5b346101b2575f3660031901126101b257610df96124ba565b5f80516020612ae083398151915280546001600160a01b031981169091555f906001600160a01b03167f8be0079c531659141344cd1fd0a4f28419497f9722a3daafe3b4186f6b6457e08280a3005b346101b2575f3660031901126101b257610e7260095f80516020612b00833981519152540161213b565b6040518091602082016020835281518091526020604084019201905f5b818110610e9d575050500390f35b82516001600160a01b0316845285945060209384019390920191600101610e8f565b346101b2575f3660031901126101b257610ed76124ba565b5f80516020612b208339815191525460ff8160401c168015611131575b61051b5768ffffffffffffffffff191668010000000000000002175f80516020612b20833981519152555f80516020612b008339815191525460408051610f3b8282612042565b6017815260208101907f726f757465722e73746f726167652e526f7574657256320000000000000000008252610f6f6124ba565b5190205f198101919082116104db577fc7f505b2f371ae2175ee4913f4499e1f2633a7b5936321eed1cdaeb6115181d292600a80602094845190868201908152868252610fbc8683612042565b60ff19915190201692835f80516020612b0083398151915255610fdd612758565b80518555600185019063ffffffff888201511669ffffffffffff000000008884549301518a1b169169ffffffffffffffffffff1916171790556004810160048501908082036110e3575b505061ffff600782015416600785019061ffff198254161790556110566110506009830161213b565b8561279d565b01910190808203611091575b505060ff60401b195f80516020612b2083398151915254165f80516020612b20833981519152555160028152a1005b806001600160401b03806001600160801b03935416166001600160401b031984541617835554831c16600160401b600160c01b03825491841b1690600160401b600160c01b0319161790558380611062565b5481546001600160a01b03199081166001600160a01b039283161790925560058381015490870180548416918316919091179055600680840154908701805490931691161790558780611027565b5060026001600160401b0382161015610ef4565b346101b25760a03660031901126101b25761115e611f22565b6044356024356064356001600160401b0381116101b257611183903690600401611f4c565b90608435946001600160801b03861686036101b2576111a38686866124ed565b949060018060a01b03169560405190602082019283526040820152604081526111cd606082612042565b519020853b156101b257604051635b1b84f760e01b81526001600160a01b03909216600483015260248201525f8160448183895af18015610dd657611236575b50833b156101b257610da85f9360405196879485946306f0ee9760e51b865233600487016120fe565b5f61124091612042565b8561120d565b346101b2575f3660031901126101b2575f80516020612b0083398151915254600501546040516001600160a01b039091168152602090f35b346101b25760203660031901126101b257611297611f22565b61129f6124ba565b5f80516020612b008339815191525460040180546001600160a01b0319166001600160a01b03909216919091179055005b346101b2575f3660031901126101b25760205f80516020612b008339815191525454604051908152f35b346101b25760403660031901126101b257602435600435811580159061143d575b1561140257600b5f80516020612b008339815191525461133d81541515611f9a565b0190805f528160205260ff60405f20541660038110156107f1576113a1577f65672eaf4ff8b823ea29ae013fef437d1fa9ed431125263a7a1f0ac49eada39692604092825f52602052825f20600160ff1982541617905582519182526020820152a1005b60405162461bcd60e51b815260206004820152603360248201527f676976656e20636f646520696420697320616c7265616479206f6e2076616c6960448201527219185d1a5bdb881bdc881d985b1a59185d1959606a1b6064820152608490fd5b60405162461bcd60e51b8152602060048201526013602482015272189b1bd88818d85b89dd08189948199bdd5b99606a1b6044820152606490fd5b505f49151561131b565b346101b25760403660031901126101b2576004356001600160401b0381116101b257611477903690600401611ef2565b906024356001600160401b0381116101b257611497903690600401611ef2565b9190927f9b779b17422d0df92223018b32b4d1fa46e071723d6817e2486d003becc55f005c611eb95792919060017f9b779b17422d0df92223018b32b4d1fa46e071723d6817e2486d003becc55f005d5f80516020612b00833981519152549161150383541515611f9a565b5f9160605b86841015611e7d578360051b82013594609e19833603018612156101b25760028101546040878501013503611e2a57611546606087850101356128f4565b15611dd65791929385840135602061156181898801016122e1565b65ffffffffffff604051916115758361200c565b84835216918291015281600286015565ffffffffffff196003860154161760038501556060945f985b6115ae828a0160808101906122f4565b90508a1015611d2e576115d18a6115cb848c0160808101906122f4565b90612329565b975f80516020612b00833981519152546115ea8a6121df565b6001600160a01b03165f908152600c8201602052604090205415611cd157600601546001600160801b03906020906001600160a01b031660448c5f61163a6060611633846121df565b9301612937565b60405163a9059cbb60e01b81526001600160a01b0390931660048401529590951660248201529384928391905af18015610dd657611ca5575b506001600160a01b036116858a6121df565b169b5f9260605b61169960808d018d612963565b9050851015611820576116af60808d018d612963565b86929192101561180c578f91606087020180359160208201936116d1856121df565b9260408101936116e085612937565b833b156101b2576040516314503e5160e01b8152600481018890526001600160a01b0390921660248301526001600160801b03166044820152915f908390606490829084905af1918215610dd6576060926117fc575b503603126101b257602080936117f493604060019761177061176583519261175d84612027565b868452611f38565b938487840152611f79565b91018190526040805185810194855260609390931b6bffffffffffffffffffffffff19169083015260801b6fffffffffffffffffffffffffffffffff19166054820152604481526117c2606482612042565b6040519584879551918291018587015e840190838201905f8252519283915e01015f815203601f198101835282612042565b94019361168c565b5f61180691612042565b5f611736565b634e487b7160e01b5f52603260045260245ffd5b98909192979b94959693509b989b6060925f935b61184160a08e018e6122f4565b9050851015611b36578f9061185f868f8060a06115cb9201906122f4565b9060808201359283155f14611a725761187a602084016121df565b611887604085018561234b565b909261189560608701612937565b92813b156101b2575f8781956001600160801b036118e4604051998a988997889663c2df600960e01b885235600488015260018060a01b031660248701526080604487015260848601916120de565b9116606483015203925af18015610dd657611a62575b505b8136039260c084126101b2576040519360a085018581106001600160401b03821117611a4e576040528335855261193560208501611f38565b916020860192835260408501356001600160401b0381116101b257850136601f820112156101b25761196e90369060208135910161237d565b9460408701958652604061198460608301611f79565b6060890190815293607f1901126101b25760a090604051926119a58461200c565b835201356001600160e01b0319811681036101b2576054611a46968360349360019a602061076597019182528260808201525197519251965191519063ffffffff60e01b9051169060206040519889958287019b8c526001600160601b03199060601b1660408701528051918291018787015e8401926001600160801b03199060801b16858401526064830152608482015203016014810184520182612042565b940193611834565b634e487b7160e01b5f52604160045260245ffd5b5f611a6c91612042565b5f6118fa565b611a7e602084016121df565b90611a8c604085018561234b565b91611a9960608701612937565b9260a087013563ffffffff60e01b81168091036101b257823b156101b25760405163c78bde7760e01b81526001600160a01b03909616600487015260a060248701525f9486948593879385939290916001600160801b0391611aff9160a48701916120de565b921660448401528b6064840152608483015203925af18015610dd657611b26575b506118fc565b5f611b3091612042565b5f611b20565b90969993509d939a90969d9c919c9b97949b604082019160018060a01b03611b5d846121df565b16611c4e575b602081013591863b156101b2575f80976024604051809a8193638ea59e1d60e01b83528860048401525af1958615610dd657600197611c2e97611c3e575b50611bc06060611bb9611bb3866121df565b976121df565b9401612937565b90602081519101209160208151910120926040519460208601966001600160601b03199060601b16875260348601526001600160601b03199060601b1660548501526001600160801b03199060801b166068840152607883015260988201526098815261076560b882612042565b960198999199969294909661159e565b5f611c4891612042565b5f611ba1565b611c57836121df565b863b156101b257604051630959112b60e11b81526001600160a01b0390911660048201525f81602481838b5af18015610dd657611c95575b50611b63565b5f611c9f91612042565b5f611c8f565b611cc59060203d8111611cca575b611cbd8183612042565b81019061294b565b611673565b503d611cb3565b60405162461bcd60e51b815260206004820152602f60248201527f636f756c646e277420706572666f726d207472616e736974696f6e20666f722060448201526e756e6b6e6f776e2070726f6772616d60881b6064820152608490fd5b9498509690611dc992999695600194927fd756eca21e02cb0dbde1e44a4d9c6921b5c8aa4668cfa0752784b3dc855bce1e6020604051858152a16060611d786020838d01016122e1565b926020815191012091604051936020850195865265ffffffffffff60d01b9060d01b1660408501526040818d01013560468501528b010135606683015260868201526086815261076560a682612042565b9601929594939094611508565b60405162461bcd60e51b815260206004820152602660248201527f616c6c6f776564207072656465636573736f7220626c6f636b207761736e277460448201526508199bdd5b9960d21b6064820152608490fd5b60405162461bcd60e51b815260206004820152602560248201527f696e76616c69642070726576696f757320636f6d6d697474656420626c6f636b604482015264040d0c2e6d60db1b6064820152608490fd5b61081c838787611e949460208151910120906123c2565b5f7f9b779b17422d0df92223018b32b4d1fa46e071723d6817e2486d003becc55f005d005b633ee5aeb560e01b5f5260045ffd5b346101b2575f3660031901126101b257602090600e5f80516020612b008339815191525401548152f35b9181601f840112156101b2578235916001600160401b0383116101b2576020808501948460051b0101116101b257565b600435906001600160a01b03821682036101b257565b35906001600160a01b03821682036101b257565b9181601f840112156101b2578235916001600160401b0383116101b257602083818601950101116101b257565b35906001600160801b03821682036101b257565b9060038210156107f15752565b15611fa157565b60405162461bcd60e51b815260206004820152603860248201527f726f757465722067656e65736973206973207a65726f3b2063616c6c20606c6f60448201527f6f6b757047656e657369734861736828296020666972737400000000000000006064820152608490fd5b604081019081106001600160401b03821117611a4e57604052565b606081019081106001600160401b03821117611a4e57604052565b90601f801991011681019081106001600160401b03821117611a4e57604052565b602080612090928195946040519682889351918291018585015e8201908382015203018085520183612042565b565b1561209957565b60405162461bcd60e51b815260206004820152601e60248201527f7369676e61747572657320766572696669636174696f6e206661696c656400006044820152606490fd5b908060209392818452848401375f828201840152601f01601f1916010190565b9395949061212e6001600160801b0393606095859360018060a01b031688526080602089015260808801916120de565b9616604085015216910152565b90604051918281549182825260208201905f5260205f20925f5b81811061216a57505061209092500383612042565b84546001600160a01b0316835260019485019487945060209093019201612155565b6001600160401b038111611a4e5760051b60200190565b919081101561180c5760051b0190565b805182101561180c5760209160051b010190565b604051906121d48261200c565b5f6020838281520152565b356001600160a01b03811681036101b25790565b5f80516020612b0083398151915254600801905f5b8381106122185750505050600190565b61222661099d8286856121a3565b6001600160a01b03165f9081526020849052604090205460ff161561224d57600101612208565b505050505f90565b3580151581036101b25790565b5f1981146104db5760010190565b6001600160a01b031680156122ce575f80516020612ae083398151915280546001600160a01b0319811683179091556001600160a01b03167f8be0079c531659141344cd1fd0a4f28419497f9722a3daafe3b4186f6b6457e05f80a3565b631e4fbdf760e01b5f525f60045260245ffd5b3565ffffffffffff811681036101b25790565b903590601e19813603018212156101b257018035906001600160401b0382116101b257602001918160051b360383136101b257565b919081101561180c5760051b8101359060be19813603018212156101b2570190565b903590601e19813603018212156101b257018035906001600160401b0382116101b2576020019181360383136101b257565b9291926001600160401b038211611a4e57604051916123a6601f8201601f191660200184612042565b8294818452818301116101b2578281602093845f960137010152565b9190916123d1600782016128c4565b926040519060208201908152602082526123ec604083612042565b612428603660405180936020820195601960f81b87523060601b60228401525180918484015e81015f838201520301601f198101835282612042565b5190205f9260085f9301925b868110156124af5761246a61246161245b6124548460051b86018661234b565b369161237d565b856129c3565b909291926129fd565b6001600160a01b03165f9081526020859052604090205460ff16612491575b600101612434565b9361249b90612262565b938585036124895750505050505050600190565b505050505050505f90565b5f80516020612ae0833981519152546001600160a01b031633036124da57565b63118cdaa760e01b5f523360045260245ffd5b905f80516020612b00833981519152549261250a84541515611f9a565b825f52600b840160205260ff60405f20541660038110156107f1576002036126fc576001600160801b03166509184e72a000016001600160801b0381116104db5760068401546040516323b872dd60e01b81523360048201523060248201526001600160801b03929092166044830152602090829060649082905f906001600160a01b03165af1908115610dd6575f916126dd575b5015612698576e5af43d82803e903d91602b57fd5bf360058401549160405160208101918583526040820152604081526125da606082612042565b51902091763d602d80600a3d3981f3363d3d373d3d3d363d7300000062ffffff8260881c16175f526effffffffffffffffffffffffffffff199060781b1617602052603760095ff5916001600160a01b038316908115612689577f8008ec1d8798725ebfa0f2d128d52e8e717dcba6e0f786557eeee70614b02bf191600d602092825f52600c810184528560405f2055016126758154612262565b9055604051908152a2906509184e72a00090565b63b06ebf3d60e01b5f5260045ffd5b60405162461bcd60e51b815260206004820152601860248201527f6661696c656420746f20726574726965766520575661726100000000000000006044820152606490fd5b6126f6915060203d602011611cca57611cbd8183612042565b5f61259f565b60405162461bcd60e51b815260206004820152602e60248201527f636f6465206d7573742062652076616c696461746564206265666f726520707260448201526d37b3b930b69031b932b0ba34b7b760911b6064820152608490fd5b5f6040805161276681612027565b828152826020820152015260405161277d81612027565b5f815263ffffffff4316602082015265ffffffffffff4216604082015290565b9060098201908154612880579091600801905f5b81518110156127f2576001906001600160a01b036127cf82856121b3565b5116828060a01b03165f528360205260405f208260ff19825416179055016127b1565b5080519291506001600160401b038311611a4e57680100000000000000008311611a4e57815483835580841061285a575b50602001905f5260205f205f5b83811061283d5750505050565b82516001600160a01b031681830155602090920191600101612830565b825f528360205f2091820191015b8181106128755750612823565b5f8155600101612868565b606460405162461bcd60e51b815260206004820152602060248201527f72656d6f76652070726576696f75732076616c696461746f72732066697273746044820152fd5b61ffff6002820154915416908181029181830414901517156104db5761270f81018091116104db57612710900490565b905f1943014381116104db57805b61290d575b505f9150565b804083810361291e57506001925050565b156129325780156104db575f190180612902565b612907565b356001600160801b03811681036101b25790565b908160209103126101b2575180151581036101b25790565b903590601e19813603018212156101b257018035906001600160401b0382116101b2576020019160608202360383136101b257565b60ff5f80516020612b208339815191525460401c16156129b457565b631afcd79f60e31b5f5260045ffd5b81519190604183036129f3576129ec9250602082015190606060408401519301515f1a90612a5d565b9192909190565b50505f9160029190565b60048110156107f15780612a0f575050565b60018103612a265763f645eedf60e01b5f5260045ffd5b60028103612a41575063fce698f760e01b5f5260045260245ffd5b600314612a4b5750565b6335e2f38360e21b5f5260045260245ffd5b91907f7fffffffffffffffffffffffffffffff5d576e7357a4501ddfe92f46681b20a08411612ad4579160209360809260ff5f9560405194855216868401526040830152606082015282805260015afa15610dd6575f516001600160a01b03811615612aca57905f905f90565b505f906001905f90565b5050505f916003919056fe9016d09d72d40fdae2fd8ceac6b6234c7706214fd39c1cd1e609a0528c1993005c09ca1b9b8127a4fd9f3c384aac59b661441e820e17733753ff5f2e86e1e000f0c57e16840df040f15088dc2f81fe391c3923bec73e23a9662efc9c229c6a00a264697066735822122078c1ad60695c1fc31d1d6562e88d3081b77fc44d6dd36e9c0413e682ad9fe35164736f6c634300081a0033","linkReferences":{}},"methodIdentifiers":{"areValidators(address[])":"8f381dbe","codeState(bytes32)":"c13911e8","codesStates(bytes32[])":"82bdeaad","commitBlocks((bytes32,uint48,bytes32,bytes32,(address,bytes32,address,uint128,(bytes32,address,uint128)[],(bytes32,address,bytes,uint128,(bytes32,bytes4))[])[])[],bytes[])":"01b1d156","commitCodes((bytes32,bool)[],bytes[])":"e97d3eb3","computeSettings()":"84d22a4f","createProgram(bytes32,bytes32,bytes,uint128)":"8074b455","createProgramWithDecoder(address,bytes32,bytes32,bytes,uint128)":"666d124c","genesisBlockHash()":"28e24b3d","initialize(address,address,address,address,address[])":"f8453e7c","isValidator(address)":"facd743b","latestCommittedBlockHash()":"c9f16a11","lookupGenesisHash()":"8b1edf1e","mirrorImpl()":"e6fabc09","mirrorProxyImpl()":"65ecfea2","owner()":"8da5cb5b","programCodeId(address)":"9067088e","programsCodeIds(address[])":"baaf0201","programsCount()":"96a2ddfa","reinitialize()":"6c2eb350","renounceOwnership()":"715018a6","requestCodeValidation(bytes32,bytes32)":"1c149d8a","setMirror(address)":"3d43b418","signingThresholdPercentage()":"efd81abc","transferOwnership(address)":"f2fde38b","validatedCodesCount()":"007a32e7","validatorsCount()":"ed612f8c","validatorsKeys()":"6e61dd49","validatorsThreshold()":"edc87225","wrappedVara()":"88f50cf0"},"storageLayout":{"storage":[],"types":{}},"id":159}