{"abi":[{"type":"constructor","inputs":[],"stateMutability":"nonpayable"},{"type":"function","name":"areValidators","inputs":[{"name":"_validators","type":"address[]","internalType":"address[]"}],"outputs":[{"name":"","type":"bool","internalType":"bool"}],"stateMutability":"view"},{"type":"function","name":"codeState","inputs":[{"name":"_codeId","type":"bytes32","internalType":"bytes32"}],"outputs":[{"name":"","type":"uint8","internalType":"enum Gear.CodeState"}],"stateMutability":"view"},{"type":"function","name":"codesStates","inputs":[{"name":"_codesIds","type":"bytes32[]","internalType":"bytes32[]"}],"outputs":[{"name":"","type":"uint8[]","internalType":"enum Gear.CodeState[]"}],"stateMutability":"view"},{"type":"function","name":"commitBatch","inputs":[{"name":"_batch","type":"tuple","internalType":"struct Gear.BatchCommitment","components":[{"name":"blockHash","type":"bytes32","internalType":"bytes32"},{"name":"blockTimestamp","type":"uint48","internalType":"uint48"},{"name":"previousCommittedBatchHash","type":"bytes32","internalType":"bytes32"},{"name":"chainCommitment","type":"tuple[]","internalType":"struct Gear.ChainCommitment[]","components":[{"name":"transitions","type":"tuple[]","internalType":"struct Gear.StateTransition[]","components":[{"name":"actorId","type":"address","internalType":"address"},{"name":"newStateHash","type":"bytes32","internalType":"bytes32"},{"name":"exited","type":"bool","internalType":"bool"},{"name":"inheritor","type":"address","internalType":"address"},{"name":"valueToReceive","type":"uint128","internalType":"uint128"},{"name":"valueClaims","type":"tuple[]","internalType":"struct Gear.ValueClaim[]","components":[{"name":"messageId","type":"bytes32","internalType":"bytes32"},{"name":"destination","type":"address","internalType":"address"},{"name":"value","type":"uint128","internalType":"uint128"}]},{"name":"messages","type":"tuple[]","internalType":"struct Gear.Message[]","components":[{"name":"id","type":"bytes32","internalType":"bytes32"},{"name":"destination","type":"address","internalType":"address"},{"name":"payload","type":"bytes","internalType":"bytes"},{"name":"value","type":"uint128","internalType":"uint128"},{"name":"replyDetails","type":"tuple","internalType":"struct Gear.ReplyDetails","components":[{"name":"to","type":"bytes32","internalType":"bytes32"},{"name":"code","type":"bytes4","internalType":"bytes4"}]},{"name":"call","type":"bool","internalType":"bool"}]}]},{"name":"head","type":"bytes32","internalType":"bytes32"}]},{"name":"codeCommitments","type":"tuple[]","internalType":"struct Gear.CodeCommitment[]","components":[{"name":"id","type":"bytes32","internalType":"bytes32"},{"name":"valid","type":"bool","internalType":"bool"}]},{"name":"rewardsCommitment","type":"tuple[]","internalType":"struct Gear.RewardsCommitment[]","components":[{"name":"operators","type":"tuple","internalType":"struct Gear.OperatorRewardsCommitment","components":[{"name":"amount","type":"uint256","internalType":"uint256"},{"name":"root","type":"bytes32","internalType":"bytes32"}]},{"name":"stakers","type":"tuple","internalType":"struct Gear.StakerRewardsCommitment","components":[{"name":"distribution","type":"tuple[]","internalType":"struct Gear.StakerRewards[]","components":[{"name":"vault","type":"address","internalType":"address"},{"name":"amount","type":"uint256","internalType":"uint256"}]},{"name":"totalAmount","type":"uint256","internalType":"uint256"},{"name":"token","type":"address","internalType":"address"}]},{"name":"timestamp","type":"uint48","internalType":"uint48"}]},{"name":"validatorsCommitment","type":"tuple[]","internalType":"struct Gear.ValidatorsCommitment[]","components":[{"name":"aggregatedPublicKey","type":"tuple","internalType":"struct Gear.AggregatedPublicKey","components":[{"name":"x","type":"uint256","internalType":"uint256"},{"name":"y","type":"uint256","internalType":"uint256"}]},{"name":"verifiableSecretSharingCommitment","type":"bytes","internalType":"bytes"},{"name":"validators","type":"address[]","internalType":"address[]"},{"name":"eraIndex","type":"uint256","internalType":"uint256"}]}]},{"name":"_signatureType","type":"uint8","internalType":"enum Gear.SignatureType"},{"name":"_signatures","type":"bytes[]","internalType":"bytes[]"}],"outputs":[],"stateMutability":"nonpayable"},{"type":"function","name":"computeSettings","inputs":[],"outputs":[{"name":"","type":"tuple","internalType":"struct Gear.ComputationSettings","components":[{"name":"threshold","type":"uint64","internalType":"uint64"},{"name":"wvaraPerSecond","type":"uint128","internalType":"uint128"}]}],"stateMutability":"view"},{"type":"function","name":"createProgram","inputs":[{"name":"_codeId","type":"bytes32","internalType":"bytes32"},{"name":"_salt","type":"bytes32","internalType":"bytes32"},{"name":"_overrideInitializer","type":"address","internalType":"address"}],"outputs":[{"name":"","type":"address","internalType":"address"}],"stateMutability":"nonpayable"},{"type":"function","name":"createProgramWithAbiInterface","inputs":[{"name":"_codeId","type":"bytes32","internalType":"bytes32"},{"name":"_salt","type":"bytes32","internalType":"bytes32"},{"name":"_overrideInitializer","type":"address","internalType":"address"},{"name":"_abiInterface","type":"address","internalType":"address"}],"outputs":[{"name":"","type":"address","internalType":"address"}],"stateMutability":"nonpayable"},{"type":"function","name":"genesisBlockHash","inputs":[],"outputs":[{"name":"","type":"bytes32","internalType":"bytes32"}],"stateMutability":"view"},{"type":"function","name":"genesisTimestamp","inputs":[],"outputs":[{"name":"","type":"uint48","internalType":"uint48"}],"stateMutability":"view"},{"type":"function","name":"initialize","inputs":[{"name":"_owner","type":"address","internalType":"address"},{"name":"_mirror","type":"address","internalType":"address"},{"name":"_wrappedVara","type":"address","internalType":"address"},{"name":"_middleware","type":"address","internalType":"address"},{"name":"_eraDuration","type":"uint48","internalType":"uint48"},{"name":"_electionDuration","type":"uint256","internalType":"uint256"},{"name":"_validationDelay","type":"uint256","internalType":"uint256"},{"name":"_aggregatedPublicKey","type":"tuple","internalType":"struct Gear.AggregatedPublicKey","components":[{"name":"x","type":"uint256","internalType":"uint256"},{"name":"y","type":"uint256","internalType":"uint256"}]},{"name":"_verifiableSecretSharingCommitment","type":"bytes","internalType":"bytes"},{"name":"_validators","type":"address[]","internalType":"address[]"}],"outputs":[],"stateMutability":"nonpayable"},{"type":"function","name":"isValidator","inputs":[{"name":"_validator","type":"address","internalType":"address"}],"outputs":[{"name":"","type":"bool","internalType":"bool"}],"stateMutability":"view"},{"type":"function","name":"latestCommittedBatchHash","inputs":[],"outputs":[{"name":"","type":"bytes32","internalType":"bytes32"}],"stateMutability":"view"},{"type":"function","name":"latestCommittedBatchTimestamp","inputs":[],"outputs":[{"name":"","type":"uint48","internalType":"uint48"}],"stateMutability":"view"},{"type":"function","name":"latestRewardedEraIndex","inputs":[],"outputs":[{"name":"","type":"uint48","internalType":"uint48"}],"stateMutability":"view"},{"type":"function","name":"lookupGenesisHash","inputs":[],"outputs":[],"stateMutability":"nonpayable"},{"type":"function","name":"mirrorImpl","inputs":[],"outputs":[{"name":"","type":"address","internalType":"address"}],"stateMutability":"view"},{"type":"function","name":"owner","inputs":[],"outputs":[{"name":"","type":"address","internalType":"address"}],"stateMutability":"view"},{"type":"function","name":"programCodeId","inputs":[{"name":"_programId","type":"address","internalType":"address"}],"outputs":[{"name":"","type":"bytes32","internalType":"bytes32"}],"stateMutability":"view"},{"type":"function","name":"programsCodeIds","inputs":[{"name":"_programsIds","type":"address[]","internalType":"address[]"}],"outputs":[{"name":"","type":"bytes32[]","internalType":"bytes32[]"}],"stateMutability":"view"},{"type":"function","name":"programsCount","inputs":[],"outputs":[{"name":"","type":"uint256","internalType":"uint256"}],"stateMutability":"view"},{"type":"function","name":"reinitialize","inputs":[],"outputs":[],"stateMutability":"nonpayable"},{"type":"function","name":"renounceOwnership","inputs":[],"outputs":[],"stateMutability":"nonpayable"},{"type":"function","name":"requestCodeValidation","inputs":[{"name":"_codeId","type":"bytes32","internalType":"bytes32"}],"outputs":[],"stateMutability":"nonpayable"},{"type":"function","name":"setMirror","inputs":[{"name":"newMirror","type":"address","internalType":"address"}],"outputs":[],"stateMutability":"nonpayable"},{"type":"function","name":"signingThresholdPercentage","inputs":[],"outputs":[{"name":"","type":"uint16","internalType":"uint16"}],"stateMutability":"view"},{"type":"function","name":"timelines","inputs":[],"outputs":[{"name":"","type":"tuple","internalType":"struct Gear.Timelines","components":[{"name":"era","type":"uint48","internalType":"uint48"},{"name":"election","type":"uint256","internalType":"uint256"},{"name":"validationDelay","type":"uint256","internalType":"uint256"}]}],"stateMutability":"view"},{"type":"function","name":"transferOwnership","inputs":[{"name":"newOwner","type":"address","internalType":"address"}],"outputs":[],"stateMutability":"nonpayable"},{"type":"function","name":"validatedCodesCount","inputs":[],"outputs":[{"name":"","type":"uint256","internalType":"uint256"}],"stateMutability":"view"},{"type":"function","name":"validators","inputs":[],"outputs":[{"name":"","type":"address[]","internalType":"address[]"}],"stateMutability":"view"},{"type":"function","name":"validatorsAggregatedPublicKey","inputs":[],"outputs":[{"name":"","type":"tuple","internalType":"struct Gear.AggregatedPublicKey","components":[{"name":"x","type":"uint256","internalType":"uint256"},{"name":"y","type":"uint256","internalType":"uint256"}]}],"stateMutability":"view"},{"type":"function","name":"validatorsCount","inputs":[],"outputs":[{"name":"","type":"uint256","internalType":"uint256"}],"stateMutability":"view"},{"type":"function","name":"validatorsThreshold","inputs":[],"outputs":[{"name":"","type":"uint256","internalType":"uint256"}],"stateMutability":"view"},{"type":"function","name":"validatorsVerifiableSecretSharingCommitment","inputs":[],"outputs":[{"name":"","type":"bytes","internalType":"bytes"}],"stateMutability":"view"},{"type":"function","name":"wrappedVara","inputs":[],"outputs":[{"name":"","type":"address","internalType":"address"}],"stateMutability":"view"},{"type":"event","name":"BatchCommitted","inputs":[{"name":"hash","type":"bytes32","indexed":false,"internalType":"bytes32"}],"anonymous":false},{"type":"event","name":"CodeGotValidated","inputs":[{"name":"codeId","type":"bytes32","indexed":false,"internalType":"bytes32"},{"name":"valid","type":"bool","indexed":true,"internalType":"bool"}],"anonymous":false},{"type":"event","name":"CodeValidationRequested","inputs":[{"name":"codeId","type":"bytes32","indexed":false,"internalType":"bytes32"}],"anonymous":false},{"type":"event","name":"ComputationSettingsChanged","inputs":[{"name":"threshold","type":"uint64","indexed":false,"internalType":"uint64"},{"name":"wvaraPerSecond","type":"uint128","indexed":false,"internalType":"uint128"}],"anonymous":false},{"type":"event","name":"HeadCommitted","inputs":[{"name":"head","type":"bytes32","indexed":false,"internalType":"bytes32"}],"anonymous":false},{"type":"event","name":"Initialized","inputs":[{"name":"version","type":"uint64","indexed":false,"internalType":"uint64"}],"anonymous":false},{"type":"event","name":"NextEraValidatorsCommitted","inputs":[{"name":"startTimestamp","type":"uint256","indexed":false,"internalType":"uint256"}],"anonymous":false},{"type":"event","name":"OwnershipTransferred","inputs":[{"name":"previousOwner","type":"address","indexed":true,"internalType":"address"},{"name":"newOwner","type":"address","indexed":true,"internalType":"address"}],"anonymous":false},{"type":"event","name":"ProgramCreated","inputs":[{"name":"actorId","type":"address","indexed":false,"internalType":"address"},{"name":"codeId","type":"bytes32","indexed":true,"internalType":"bytes32"}],"anonymous":false},{"type":"event","name":"RewardsDistributed","inputs":[{"name":"eraIndex","type":"uint48","indexed":false,"internalType":"uint48"}],"anonymous":false},{"type":"event","name":"StorageSlotChanged","inputs":[],"anonymous":false},{"type":"error","name":"ECDSAInvalidSignature","inputs":[]},{"type":"error","name":"ECDSAInvalidSignatureLength","inputs":[{"name":"length","type":"uint256","internalType":"uint256"}]},{"type":"error","name":"ECDSAInvalidSignatureS","inputs":[{"name":"s","type":"bytes32","internalType":"bytes32"}]},{"type":"error","name":"InvalidInitialization","inputs":[]},{"type":"error","name":"NotInitializing","inputs":[]},{"type":"error","name":"OwnableInvalidOwner","inputs":[{"name":"owner","type":"address","internalType":"address"}]},{"type":"error","name":"OwnableUnauthorizedAccount","inputs":[{"name":"account","type":"address","internalType":"address"}]},{"type":"error","name":"ReentrancyGuardReentrantCall","inputs":[]}],"bytecode":{"object":"0x6080806040523460aa575f51602061451d5f395f51905f525460ff8160401c16609b576002600160401b03196001600160401b038216016049575b60405161446e90816100af8239f35b6001600160401b0319166001600160401b039081175f51602061451d5f395f51905f525581527fc7f505b2f371ae2175ee4913f4499e1f2633a7b5936321eed1cdaeb6115181d290602090a15f80603a565b63f92ee8a960e01b5f5260045ffd5b5f80fdfe6080806040526004361015610012575f80fd5b5f905f3560e01c9081627a32e714612332575080630749fc7114611d495780630c18d27714611843578063120e3f1e146116b757806328e24b3d146116895780633683c4d2146113fc5780633bd109fa146113ad5780633d43b418146113595780636c2eb35014610ff9578063715018a614610f9057806371a8cf2d14610f6257806382bdeaad14610e4a57806384d22a4f14610de157806388f50cf014610da85780638961edeb146107ec5780638b1edf1e146107215780638da5cb5b146106ec5780638f381dbe146106a65780639067088e1461065d57806396a2ddfa1461062f5780639eb939a8146105f0578063a5d53a4414610582578063baaf020114610481578063bf34281f1461044b578063c13911e814610407578063ca1e781914610384578063cacf66ab1461033d578063d456fd5114610307578063e6fabc09146102ce578063ed612f8c14610296578063edc872251461024c578063efd81abc1461021a578063f2fde38b146101ed5763facd743b14610193575f80fd5b346101ea5760203660031901126101ea576101ac6123b8565b60036101c75f51602061442e5f395f51905f52544290613fde565b019060018060a01b03165f52602052602060ff60405f2054166040519015158152f35b80fd5b50346101ea5760203660031901126101ea5761021761020a6123b8565b610212613c4e565b61278b565b80f35b50346101ea57806003193601126101ea57602061ffff60085f51602061442e5f395f51905f5254015416604051908152f35b50346101ea57806003193601126101ea57602061028e5f51602061442e5f395f51905f525461ffff600860046102824285613fde565b01549201541690613f79565b604051908152f35b50346101ea57806003193601126101ea57602060046102c45f51602061442e5f395f51905f52544290613fde565b0154604051908152f35b50346101ea57806003193601126101ea575f51602061442e5f395f51905f5254600501546040516001600160a01b039091168152602090f35b50346101ea57806003193601126101ea57602065ffffffffffff60045f51602061442e5f395f51905f5254015416604051908152f35b50346101ea57806003193601126101ea57602061037465ffffffffffff60025f51602061442e5f395f51905f5254015460201c1690565b65ffffffffffff60405191168152f35b50346101ea57806003193601126101ea576103b960046103b35f51602061442e5f395f51905f52544290613fde565b01612515565b90604051918291602083016020845282518091526020604085019301915b8181106103e5575050500390f35b82516001600160a01b03168452859450602093840193909201916001016103d7565b50346101ea5760203660031901126101ea5760ff604060209260195f51602061442e5f395f51905f5254016004358252845220541661044960405180926123e2565bf35b50346101ea57806003193601126101ea57602065ffffffffffff601d5f51602061442e5f395f51905f5254015416604051908152f35b50346101ea5760203660031901126101ea576004356001600160401b03811161057e576104b290369060040161235c565b905f51602061442e5f395f51905f5254906104cc83612568565b916104da60405193846124be565b8383526104e684612568565b602084019490601f1901368637601a869201915b81811061054557868587604051928392602084019060208552518091526040840192915b81811061052c575050500390f35b825184528594506020938401939092019160010161051e565b8061055b610556600193858861257f565b6126a3565b828060a01b03165f528360205260405f2054610577828861258f565b52016104fa565b5080fd5b50346101ea57806003193601126101ea5760406105c35f51602061442e5f395f51905f525460026105bb60018060a01b03924290613fde565b015416613cb6565b6020825193849282845280519283918282870152018585015e828201840152601f01601f19168101030190f35b50346101ea57806003193601126101ea57606061060b612741565b604080519165ffffffffffff81511683526020810151602084015201516040820152f35b50346101ea57806003193601126101ea576020601b5f51602061442e5f395f51905f52540154604051908152f35b50346101ea5760203660031901126101ea576106776123b8565b601a5f51602061442e5f395f51905f5254019060018060a01b03165f52602052602060405f2054604051908152f35b50346101ea5760203660031901126101ea57600435906001600160401b0382116101ea5760206106e26106dc366004860161235c565b906126b7565b6040519015158152f35b50346101ea57806003193601126101ea575f51602061440e5f395f51905f52546040516001600160a01b039091168152602090f35b50346101ea57806003193601126101ea575f51602061442e5f395f51905f5254600181019081546107a7576002015463ffffffff1640908115610762575580f35b60405162461bcd60e51b815260206004820152601d60248201527f756e61626c6520746f206c6f6f6b75702067656e6573697320686173680000006044820152606490fd5b60405162461bcd60e51b815260206004820152601860248201527f67656e65736973206861736820616c72656164792073657400000000000000006044820152606490fd5b50346101ea576101603660031901126101ea576108076123b8565b6024356001600160a01b0381169190829003610da45761082561238c565b61082d6123a2565b906084359065ffffffffffff8216809203610da05760c4359260a43560403660e3190112610d9c5761012435946001600160401b038611610d985736602387011215610d98578560040135916001600160401b038311610d94573660248489010111610d9457610144356001600160401b038111610d90576108b390369060040161235c565b9690945f51602061444e5f395f51905f5254996001600160401b0360ff8c60401c16159b1680159081610d88575b6001149081610d7e575b159081610d75575b50610d665761093d908b60016001600160401b03195f51602061444e5f395f51905f525416175f51602061444e5f395f51905f5255610d36575b6109356141ba565b6102126141ba565b6109456141ba565b4215610ce0578215610c8a5782821115610c2957600a61096584846125a3565b04841015610be45760409a8b5161097c8d826124be565b6017815260208101907f726f757465722e73746f726167652e526f75746572563100000000000000000082526109b0613c4e565b5190205f198101908111610bd0578c51602080820192835281528d9392916109d885836124be565b60ff19915190201698895f51602061442e5f395f51905f52556109f9613c81565b805160018c015560028b0190602081015163ffffffff1686835492015160201b69ffffffffffff00000000169169ffffffffffffffffffff191617179055835190610a43826124a3565b8282526001600160a01b03908116602083018190529381169490910184905260058a018054919092166001600160a01b0319918216179091556006890180548216909217909155600788018054909116909117905560088601805461ffff1916611a0a179055610ab16124df565b508951610abd81612474565b639502f90081526509184e72a0006020909101526015860180546001600160c01b0319166d09184e72a000000000009502f900179055895183908b90610b02816124a3565b8381528460208201520152601686019065ffffffffffff1665ffffffffffff1982541617905560178501556018840155865194610b3e86612474565b60e4358652610104356020870152610b5a91369160240161260a565b9042933690610b689261264f565b9160090193610b7694613ce5565b610b7e575080f35b60207fc7f505b2f371ae2175ee4913f4499e1f2633a7b5936321eed1cdaeb6115181d29160ff60401b195f51602061444e5f395f51905f5254165f51602061444e5f395f51905f52555160018152a180f35b634e487b7160e01b8e52601160045260248efd5b60405162461bcd60e51b815260206004820152601b60248201527f76616c69646174696f6e2064656c617920697320746f6f2062696700000000006044820152606490fd5b60405162461bcd60e51b815260206004820152603360248201527f657261206475726174696f6e206d757374206265206772656174657220746861604482015272371032b632b1ba34b7b710323ab930ba34b7b760691b6064820152608490fd5b60405162461bcd60e51b815260206004820152602860248201527f656c656374696f6e206475726174696f6e206d75737420626520677265617465604482015267072207468616e20360c41b6064820152608490fd5b60405162461bcd60e51b815260206004820152602860248201527f63757272656e742074696d657374616d70206d75737420626520677265617465604482015267072207468616e20360c41b6064820152608490fd5b600160401b60ff60401b195f51602061444e5f395f51905f525416175f51602061444e5f395f51905f525561092d565b63f92ee8a960e01b8d5260048dfd5b9050155f6108f3565b303b1591506108eb565b8c91506108e1565b8a80fd5b8980fd5b8880fd5b8780fd5b8580fd5b8280fd5b50346101ea57806003193601126101ea575f51602061442e5f395f51905f5254600601546040516001600160a01b039091168152602090f35b50346101ea57806003193601126101ea57610dfa6124df565b50604060155f51602061442e5f395f51905f5254016001600160801b03825191610e2383612474565b548160206001600160401b038316948581520191851c168152835192835251166020820152f35b50346101ea5760203660031901126101ea576004356001600160401b03811161057e57610e7b90369060040161235c565b905f51602061442e5f395f51905f525490610e9583612568565b91610ea360405193846124be565b838352610eaf84612568565b602084019490601f19013686376019869201915b818110610f1857868587604051928392602084019060208552518091526040840192915b818110610ef5575050500390f35b9193509160208082610f0a60019488516123e2565b019401910191849392610ee7565b610f2381838661257f565b3587528260205260ff604088205416610f3c828761258f565b6003821015610f4e5752600101610ec3565b634e487b7160e01b89526021600452602489fd5b50346101ea57806003193601126101ea57602060035f51602061442e5f395f51905f52540154604051908152f35b50346101ea57806003193601126101ea57610fa9613c4e565b5f51602061440e5f395f51905f5280546001600160a01b0319811690915581906001600160a01b03167f8be0079c531659141344cd1fd0a4f28419497f9722a3daafe3b4186f6b6457e08280a380f35b50346101ea57806003193601126101ea57611012613c4e565b5f51602061444e5f395f51905f525460ff8160401c16908115611344575b50611335575f51602061444e5f395f51905f52805468ffffffffffffffffff1916680100000000000000021790555f51602061440e5f395f51905f5254611082906001600160a01b03166109356141ba565b5f51602061442e5f395f51905f525460409081516110a083826124be565b6017815260208101907f726f757465722e73746f726167652e526f75746572563200000000000000000082526110d4613c4e565b5190205f19810190811161132157916020917fc7f505b2f371ae2175ee4913f4499e1f2633a7b5936321eed1cdaeb6115181d29382519084820190815284825261111e84836124be565b60ff19915190201690815f51602061442e5f395f51905f525561113f613c81565b80516001840155600283019063ffffffff868201511669ffffffffffff00000000868454930151881b169169ffffffffffffffffffff1916171790556005810160058301908082036112d3575b505061ffff600882015416600883019061ffff198254161790556111f56111b34283613fde565b6111ca6001600160a01b0360026105bb4287613fde565b6111e060046111d94287613fde565b01926124f7565b906111eb4293612515565b9160098701613ce5565b601581016015830190808203611281575b505060168101601683019181830361124b575b5050505060ff60401b195f51602061444e5f395f51905f5254165f51602061444e5f395f51905f52555160028152a180f35b60189265ffffffffffff80859454161665ffffffffffff198254161790556017810154601785015501549101555f808080611219565b806001600160401b03806001600160801b03935416166001600160401b031984541617835554851c16600160401b600160c01b03825491861b1690600160401b600160c01b0319161790555f80611206565b5481546001600160a01b03199081166001600160a01b039283161790925560068381015490850180548416918316919091179055600780840154908501805490931691161790555f8061118c565b634e487b7160e01b84526011600452602484fd5b63f92ee8a960e01b8152600490fd5b600291506001600160401b031610155f611030565b50346101ea5760203660031901126101ea576113736123b8565b61137b613c4e565b5f51602061442e5f395f51905f525460050180546001600160a01b0319166001600160a01b0390921691909117905580f35b50346101ea57806003193601126101ea576113c66124df565b5060406113ea6113e55f51602061442e5f395f51905f52544290613fde565b6124f7565b60208251918051835201516020820152f35b50346101ea5760603660031901126101ea5760043561141961238c565b5f51602061442e5f395f51905f5254611437600182015415156123ef565b8284526019810160205260ff60408520541660038110156116755760020361161957604051602081019084825260243560408201526040815261147b6060826124be565b51902060405160608101908082106001600160401b0383111761161557605a916040527f3d605080600a3d3981f3608060405263e6fabc0960e01b5f5260205f6004817381523060601b6b5afa15604c575f80805136821760208201527f80378136915af43d5f803e156048573d5ff35b3d5ffd5b5f80fd000000000000604082015286f5908115611611576001600160a01b0382165f908152601a820160205260409020849055601b01805461153190612ead565b90556040516001600160a01b03821680825293907f8008ec1d8798725ebfa0f2d128d52e8e717dcba6e0f786557eeee70614b02bf190602090a2506001600160a01b03811661160c5750335b5f51602061442e5f395f51905f5254600501546001600160a01b0316823b1561160857604051631c9776b560e31b81526001600160a01b039092166004830152602482015260016044820152828160648183865af180156115fd576115e8575b602082604051908152f35b6115f38380926124be565b61057e57816115dd565b6040513d85823e3d90fd5b8380fd5b61157d565b8480fd5b8680fd5b60405162461bcd60e51b815260206004820152602e60248201527f636f6465206d7573742062652076616c696461746564206265666f726520707260448201526d37b3b930b69031b932b0ba34b7b760911b6064820152608490fd5b634e487b7160e01b85526021600452602485fd5b50346101ea57806003193601126101ea57602060015f51602061442e5f395f51905f52540154604051908152f35b50346101ea5760203660031901126101ea576004358149156117c75760195f51602061442e5f395f51905f52546116f3600182015415156123ef565b018183528060205260ff60408420541660038110156117b3576117525781835260209081526040808420805460ff19166001179055519182527f5c261a095dd5720475295dc06379921c003c22164ee6cae5cf83e76ce0a1b98591a180f35b60405162461bcd60e51b815260206004820152603360248201527f676976656e20636f646520696420697320616c7265616479206f6e2076616c6960448201527219185d1a5bdb881bdc881d985b1a59185d1959606a1b6064820152608490fd5b634e487b7160e01b84526021600452602484fd5b60405162461bcd60e51b815260206004820152604860248201527f626c6f622063616e277420626520666f756e642c20726f75746572206578706560448201527f63746564204549502d34383434207472616e73616374696f6e2077697468205760648201526720a9a690313637b160c11b608482015260a490fd5b34611d2b576080366003190112611d2b5760043561185f61238c565b906118686123a2565b915f51602061442e5f395f51905f5254611887600182015415156123ef565b825f526019810160205260ff60405f2054166003811015611d35576002036116195760405160208101908482526024356040820152604081526118cb6060826124be565b5190206040516102e08101908082106001600160401b03831117611d2b576102c4916040527f6080806040526102b290816100128239f3fe608060405260043610610268575f81527f3560e01c806329336f391461009b5780632a68e35d1461009657806336a52a1860208201527f14610091578063701da98e1461008c578063704ed5421461008757806391d5a660408201527f4c146100825780639ce110d71461007d578063affed0e0146100785763e43f3460608201527f330361026857610253565b610236565b61020e565b6101f8565b6101df565b6160808201527f01c2565b61019b565b610150565b346100dc5760603660031901126100dc576060a08201527f243567ffffffffffffffff81116100dc576100cc9036906004016100e0565b5060c08201527f506100d661010e565b50610268565b5f80fd5b9181601f840112156100dc578260e08201527f359167ffffffffffffffff83116100dc57602083818601950101116100dc57566101008201527f5b604435906001600160801b03821682036100dc57565b6024359060016001606101208201527f801b03821682036100dc57565b600435906001600160801b03821682036100dc6101408201527f57565b346100dc5760603660031901126100dc5760043567ffffffffffffffff6101608201527f81116100dc576101819036906004016100e0565b505061018b610124565b50606101808201527f443580151514610268575f80fd5b346100dc575f3660031901126100dc575f546101a08201527f6040516001600160a01b039091168152602090f35b346100dc575f36600319016101c08201527f126100dc576020600254604051908152f35b346100dc576020366003190112616101e08201527edc576100d661013a565b346100dc57602036600319011215610268575f80fd6102008201527f5b346100dc575f3660031901126100dc576001546040516001600160a01b03906102208201527f91168152602090f35b346100dc575f3660031901126100dc57602060035460406102408201527f51908152f35b346100dc575f36600319011215610268575f80fd5b63e6fabc09610260820152306b60e01b5f5260205f6004817360a01b176102808201527f5afa156100dc575f808051368280378136915af43d5f803e156102ae573d5ff36102a0820152635b3d5ffd60e01b6102c08201525ff5908115611d2b576001600160a01b0382165f908152601a820160205260409020849055601b018054611c7090612ead565b90556040516001600160a01b03821680825293907f8008ec1d8798725ebfa0f2d128d52e8e717dcba6e0f786557eeee70614b02bf190602090a2506001600160a01b038116611d2f575033915b813b15611d2b57604051631c9776b560e31b81526001600160a01b039384166004820152921660248301525f604483018190528260648183855af1918215611d2057602092611d10575b50604051908152f35b5f611d1a916124be565b5f611d07565b6040513d5f823e3d90fd5b5f80fd5b91611cbd565b634e487b7160e01b5f52602160045260245ffd5b34611d2b576060366003190112611d2b576004356001600160401b038111611d2b57806004019060e06003198236030112611d2b57602435916002831015611d2b576044356001600160401b038111611d2b57611daa90369060040161235c565b93907f9b779b17422d0df92223018b32b4d1fa46e071723d6817e2486d003becc55f005c6123235760017f9b779b17422d0df92223018b32b4d1fa46e071723d6817e2486d003becc55f005d5f51602061442e5f395f51905f525492611e15600185015415156123ef565b835415612255575b6003840195865492604487013580940361220257600486019465ffffffffffff86541698602489019965ffffffffffff611e568c612461565b161061218257611e6a85899b9a989b61286e565b9860609a60845f99019760198b019c5b611e848a8a612e6b565b90508b101561202d57611e978a8a612e6b565b8c9291921015612019578e918c60061b0190813592835f5260205260ff60405f2054166003811015611d3557600103611fb6578f828f939160206040930194611edf86612ea0565b15611f9f57601c91875f52602052835f20600260ff1982541617905501611f068154612ead565b90555b611f1284612ea0565b15157f460119a8f69a33ed127de517d5ea464e958ce23ef19e4420a8b92bf780bbc2c960208451888152a2360312611d2b576001926020611f9793611f6560405191611f5d83612474565b848352612ebb565b91829101526040519060208201928352151560f81b604082015260218152611f8e6041826124be565b51902090612ec8565b9a0199611e7a565b50855f52602052815f2060ff198154169055611f09565b60405162461bcd60e51b815260206004820152603560248201527f636f6465206d7573742062652072657175657374656420666f722076616c6964604482015274185d1a5bdb881d1bc818994818dbdb5b5a5d1d1959605a1b6064820152608490fd5b634e487b7160e01b5f52603260045260245ffd5b61211399509165ffffffffffff60208d9a8f948397958d61210c988581519101206120628561205c8185612f2f565b93613472565b9261206c8a612461565b9460405195888701973588528960d01b9060d01b16604087015260468601526066850152608684015260a683015260c682015260c681526120ae60e6826124be565b51902080976120bc86612461565b84604051916120ca83612474565b848352169384910152551684198254161790557f7ebe42360bcb182fe0a88148b081e4557c89d09aa6af8307635ac2f83e2aaa656020604051868152a1612461565b169461389d565b1561213d575f7f9b779b17422d0df92223018b32b4d1fa46e071723d6817e2486d003becc55f005d005b60405162461bcd60e51b815260206004820152601e60248201527f7369676e61747572657320766572696669636174696f6e206661696c656400006044820152606490fd5b60405162461bcd60e51b815260206004820152604c60248201527f62617463682074696d657374616d70206d75737420626520677265617465722060448201527f6f7220657175616c20746f206c617465737420636f6d6d69747465642062617460648201526b063682074696d657374616d760a41b608482015260a490fd5b60405162461bcd60e51b815260206004820152602560248201527f696e76616c69642070726576696f757320636f6d6d6974746564206261746368604482015264040d0c2e6d60db1b6064820152608490fd5b61225f81356127fc565b156122cf5765ffffffffffff61227760248701612461565b164211611e1d5760405162461bcd60e51b815260206004820152602360248201527f62617463682074696d657374616d70206d75737420626520696e207468652070604482015262185cdd60ea1b6064820152608490fd5b60405162461bcd60e51b815260206004820152602660248201527f616c6c6f776564207072656465636573736f7220626c6f636b207761736e277460448201526508199bdd5b9960d21b6064820152608490fd5b633ee5aeb560e01b5f5260045ffd5b34611d2b575f366003190112611d2b57602090601c5f51602061442e5f395f51905f525401548152f35b9181601f84011215611d2b578235916001600160401b038311611d2b576020808501948460051b010111611d2b57565b604435906001600160a01b0382168203611d2b57565b606435906001600160a01b0382168203611d2b57565b600435906001600160a01b0382168203611d2b57565b35906001600160a01b0382168203611d2b57565b906003821015611d355752565b156123f657565b60405162461bcd60e51b815260206004820152603860248201527f726f757465722067656e65736973206973207a65726f3b2063616c6c20606c6f60448201527f6f6b757047656e657369734861736828296020666972737400000000000000006064820152608490fd5b3565ffffffffffff81168103611d2b5790565b604081019081106001600160401b0382111761248f57604052565b634e487b7160e01b5f52604160045260245ffd5b606081019081106001600160401b0382111761248f57604052565b90601f801991011681019081106001600160401b0382111761248f57604052565b604051906124ec82612474565b5f6020838281520152565b9060405161250481612474565b602060018294805484520154910152565b90604051918281549182825260208201905f5260205f20925f5b818110612546575050612544925003836124be565b565b84546001600160a01b031683526001948501948794506020909301920161252f565b6001600160401b03811161248f5760051b60200190565b91908110156120195760051b0190565b80518210156120195760209160051b010190565b919082039182116125b057565b634e487b7160e01b5f52601160045260245ffd5b81156125ce570490565b634e487b7160e01b5f52601260045260245ffd5b9190826040910312611d2b576040516125fa81612474565b6020808294803584520135910152565b9291926001600160401b03821161248f5760405191612633601f8201601f1916602001846124be565b829481845281830111611d2b578281602093845f960137010152565b92919061265b81612568565b9361266960405195866124be565b602085838152019160051b8101928311611d2b57905b82821061268b57505050565b60208091612698846123ce565b81520191019061267f565b356001600160a01b0381168103611d2b5790565b6126d05f51602061442e5f395f51905f52544290613fde565b600301905f5b8381106126e65750505050600190565b6126f461055682868561257f565b6001600160a01b03165f9081526020849052604090205460ff161561271b576001016126d6565b505050505f90565b60405190612730826124a3565b5f6040838281528260208201520152565b612749612723565b505f51602061442e5f395f51905f5254601860405191612768836124a3565b65ffffffffffff6016820154168352601781015460208401520154604082015290565b6001600160a01b031680156127e9575f51602061440e5f395f51905f5280546001600160a01b0319811683179091556001600160a01b03167f8be0079c531659141344cd1fd0a4f28419497f9722a3daafe3b4186f6b6457e05f80a3565b631e4fbdf760e01b5f525f60045260245ffd5b905f1943014381116125b057805b612815575b505f9150565b804083810361282657506001925050565b15612834575f19018061280a565b61280f565b903590601e1981360301821215611d2b57018035906001600160401b038211611d2b57602001918160051b36038313611d2b57565b9190606081019060016128818383612839565b905011612e09576128928282612839565b905015612de257906128a391612839565b1561201957803590603e1981360301821215611d2b57929192016128c78180612839565b9290916060925f9560de198236030192601a8501955b87891015612d7e578860051b84013585811215611d2b5784016128ff816126a3565b6001600160a01b03165f9081526020899052604090205415612d2157608081016001600160801b0361293082613f9b565b16612c3e575b6001600160a01b03612947836126a3565b6040516302c649c960e01b81526020600482015293911691610104840191906001600160801b03906129c6906001600160a01b03612984856123ce565b166024880152602084013560448801526129a060408501612ebb565b151560648801526001600160a01b036129bb606086016123ce565b166084880152613faf565b1660a485015236819003601e190160a082013581811215611d2b578201602081359101936001600160401b038211611d2b576060820236038513611d2b57819060e060c489015252610124860193905f905b808210612bf45750505060c082013590811215611d2b5701803560208201926001600160401b038211611d2b578160051b908136038513611d2b57918694936023198685030160e487015281845260208085019385010194935f9160fe19813603015b848410612ae9575050505050505091815f8160209503925af1908115611d20575f91612ab7575b50612aaf90600192612ec8565b9801976128dd565b90506020813d8211612ae1575b81612ad1602093836124be565b81010312611d2b57516001612aa2565b3d9150612ac4565b9193959750919395601f19848203018752873582811215611d2b578301602081013582526001600160a01b03612b21604083016123ce565b1660208301526060810135603e193683900301811215611d2b578101602081013591906040016001600160401b038311611d2b578236038113611d2b57829060e060408601528160e08601526101008501375f61010083850101526001600160801b03612b9060808301613faf565b16606084015260a0810135608084015260c081013563ffffffff60e01b8116809103611d2b5783602093612bd260e086956101009560a060019a015201612ebb565b151560c0830152601f8019910116010199019701940191899796959391612a7b565b90919460608060019288358152838060a01b03612c1360208b016123ce565b1660208201526001600160801b03612c2d60408b01613faf565b166040820152019601920190612a18565b60068801546001600160801b03906020906001600160a01b03166044612c63866126a3565b5f612c6d87613f9b565b60405163a9059cbb60e01b81526001600160a01b0390931660048401529590951660248201529384928391905af1908115611d20575f91612cf3575b506129365760405162461bcd60e51b815260206004820152601860248201527f7472616e7366657220746f206163746f72206661696c656400000000000000006044820152606490fd5b612d14915060203d8111612d1a575b612d0c81836124be565b810190612f17565b5f612ca9565b503d612d02565b60405162461bcd60e51b815260206004820152602f60248201527f636f756c646e277420706572666f726d207472616e736974696f6e20666f722060448201526e756e6b6e6f776e2070726f6772616d60881b6064820152608490fd5b9450955095505050602091508181519101209101357f38794759339ea18f45f022c3722c082b6b71575c50afa212fea5d6d125a1655f6020604051838152a16040519060208201928352604082015260408152612ddc6060826124be565b51902090565b507fc5d2460186f7233c927e7db2dcc703c0e500b653ca82273b7bfad8045d85a470925050565b60405162461bcd60e51b815260206004820152603460248201527f636861696e436f6d6d69746d656e7420636f756c6420636f6e7461696e206174604482015273081b5bdcdd081bdb994818dbdb5b5a5d1b595b9d60621b6064820152608490fd5b903590601e1981360301821215611d2b57018035906001600160401b038211611d2b57602001918160061b36038313611d2b57565b358015158103611d2b5790565b5f1981146125b05760010190565b35908115158203611d2b57565b602080612544928195946040519682889351918291018585015e82019083820152030180855201836124be565b903590605e1981360301821215611d2b570190565b919082018092116125b057565b90816020910312611d2b57518015158103611d2b5790565b9060a081016001612f408284612839565b9050116133c357612f518183612839565b90501561339c57612f629082612839565b1561201957803590607e1981360301821215611d2b570191606083019165ffffffffffff612f8f84612461565b161561334b5765ffffffffffff80612fb26020612fab87612461565b9401612461565b16911610156132ec5760078101546006820180548535956001600160a01b039384169593604082019391925f91602091166044612ffb83612ff38989612ef5565b01358c612f0a565b604051948593849263095ea7b360e01b84528d600485015260248401525af18015611d20576132cf575b505460405163394f179b60e11b81526001600160a01b03909116600482015260248101969096526020818101356044880152866064815f895af1958615611d20575f96613297575b509061307891612ef5565b9261308282612461565b9360405194637fbe95b560e01b86526040600487015260a48601918035601e1982360301811215611d2b578101602081359101936001600160401b038211611d2b578160061b36038513611d2b57606060448a0152819052879360c485019392915f5b81811061325f57505050836020959365ffffffffffff829484895f960135606486015261311b604060018060a01b0392016123ce565b16608485015216602483015203925af1928315611d20575f9361322b575b5061314381612461565b65ffffffffffff8061316f65ffffffffffff60025f51602061442e5f395f51905f5254015460201c1690565b1691160365ffffffffffff81116125b05765ffffffffffff61318f612741565b511680156125ce576131f893601d60209265ffffffffffff7ff935fe8c271acfdb4cf3567c561afd0dbe04a88807e4e846d4533a2c77784099951604910165ffffffffffff821665ffffffffffff1982541617905565ffffffffffff60405191168152a1612461565b6040519160208301938452604083015265ffffffffffff60d01b9060d01b16606082015260468152612ddc6066826124be565b9092506020813d602011613257575b81613247602093836124be565b81010312611d2b5751915f613139565b3d915061323a565b919550919293604080600192838060a01b0361327a8a6123ce565b1681526020890135602082015201960191019189959493926130e5565b919095506020823d6020116132c7575b816132b4602093836124be565b81010312611d2b5790519461307861306d565b3d91506132a7565b6132e79060203d602011612d1a57612d0c81836124be565b613025565b60405162461bcd60e51b815260206004820152603160248201527f7265776172647320636f6d6d69746d656e742074696d657374616d70206d75736044820152701d08189948199bdc881d1a19481c185cdd607a1b6064820152608490fd5b60405162461bcd60e51b8152602060048201526024808201527f7265776172647320636f6d6d69746d656e742074696d657374616d70206973206044820152637a65726f60e01b6064820152608490fd5b5050507fc5d2460186f7233c927e7db2dcc703c0e500b653ca82273b7bfad8045d85a47090565b608460405162461bcd60e51b815260206004820152604060248201527f7265776172647320636f6d6d69746d656e74206d75737420626520656d70747960448201527f206f7220636f6e7461696e73206f6e6c79206f6e6520636f6d6d69746d656e746064820152fd5b818102929181159184041417156125b057565b903590601e1981360301821215611d2b57018035906001600160401b038211611d2b57602001918136038313611d2b57565b9060c0810160016134838284612839565b905011613826576134948183612839565b90501561339c576134a491612839565b1561201957803590609e1981360301821215611d2b570160608101906134ca8282612839565b9050156137d35765ffffffffffff600284015460201c16916134ec83426125a3565b61350365ffffffffffff60168701541680926125c4565b93608084013594600181018091116125b057850361377b576135288561352e9361342d565b90612f0a565b9361353d6017820154866125a3565b42106137365761354c90613fc3565b9342600586015410156136d6576020816135c77f41e7f919bf726af8aa2ef36bd31905a693013e30c45c6284060e613d4941997b9361359b986135b16135b96135c18a604081019d8e82613440565b93906135a78d84612839565b96909336906125e2565b94369161260a565b93369161264f565b92613ce5565b604051908152a160a082360312611d2b5760405193608085018581106001600160401b0382111761248f576040526135ff36846125e2565b8552356001600160401b038111611d2b57820136601f82011215611d2b5761362e90369060208135910161260a565b602085015235906001600160401b038211611d2b570136601f82011215611d2b5761366090369060208135910161264f565b91826040820152816060820152519160208351930151906040519283926020840195865260408401526060830160208351919301905f5b8181106136b457505050815203808252612ddc90602001826124be565b82516001600160a01b0316855286955060209485019490920191600101613697565b60405162461bcd60e51b815260206004820152603260248201527f6c6f6f6b73206c696b652076616c696461746f727320666f72206e65787420656044820152711c9848185c9948185b1c9958591e481cd95d60721b6064820152608490fd5b60405162461bcd60e51b815260206004820152601b60248201527f656c656374696f6e206973206e6f7420796574207374617274656400000000006044820152606490fd5b60405162461bcd60e51b815260206004820152602a60248201527f636f6d6d69746d656e742065726120696e646578206973206e6f74206e657874604482015269040cae4c240d2dcc8caf60b31b6064820152608490fd5b60405162461bcd60e51b815260206004820152602560248201527f6e65772076616c696461746f7273206c697374206d757374206e6f7420626520604482015264656d70747960d81b6064820152608490fd5b60405162461bcd60e51b815260206004820152604360248201527f76616c696461746f727320636f6d6d69746d656e74206d75737420626520656d60448201527f707479206f7220636f6e7461696e73206f6e6c79206f6e6520636f6d6d69746d606482015262195b9d60ea1b608482015260a490fd5b909493919365ffffffffffff600283015460201c166138db6138e66138e06138c584426125a3565b65ffffffffffff601688015416938480926125c4565b61342d565b83612f0a565b918284108080613c38575b15613bc657508310613b81576139079083612f0a565b10613b3057613917905b82613fde565b94601960f81b5f523060601b60025260165260365f20936002811015611d355780613a27575050600181036139e25715612019576139588161395f92613440565b369161260a565b91606083510361398d5782602061398a94015160606040830151920151926001815491015490613ffa565b90565b60405162461bcd60e51b815260206004820152602760248201527f46524f5354207369676e6174757265206c656e677468206d75737420626520396044820152663620627974657360c81b6064820152608490fd5b60405162461bcd60e51b815260206004820152601e60248201527f46524f5354207369676e6174757265206d7573742062652073696e676c6500006044820152606490fd5b919391600114613a3a5750505050505f90565b613a549061ffff6008600488979801549201541690613f79565b925f9260035f9201915b86811015613b2557613a8d613a84613a7e6139588460051b860186613440565b866142ce565b90929192614308565b6001600160a01b0381165f9081526020859052604090205460ff16613ab8575b506001905b01613a5e565b6001600160a01b03165f9081527ff02b465737fa6045c2ff53fb2df43c66916ac2166fa303264668fb2f6a1d8c0060205260409020805c15613afd5750600190613ab2565b946001613b0b92965d612ead565b93858514613b19575f613aad565b50505050505050600190565b505050505050505f90565b60405162461bcd60e51b8152602060048201526024808201527f74696d657374616d70206973206f6c646572207468616e2070726576696f75736044820152632065726160e01b6064820152608490fd5b60405162461bcd60e51b815260206004820152601e60248201527f63616e6e6f742076616c6964617465206265666f72652067656e6573697300006044820152606490fd5b9392915050428211613be95761391792613be1575b50613911565b90505f613bdb565b60405162461bcd60e51b815260206004820152602160248201527f74696d657374616d702063616e6e6f7420626520696e207468652066757475726044820152606560f81b6064820152608490fd5b50613c47601887015485612f0a565b42106138f1565b5f51602061440e5f395f51905f52546001600160a01b03163303613c6e57565b63118cdaa760e01b5f523360045260245ffd5b613c89612723565b50604051613c96816124a3565b5f815263ffffffff4316602082015265ffffffffffff4216604082015290565b803b905f198201908282116125b05760019060405193603e601f19910116840160405282845260208401903c90565b9291908051906020810191825170014551231950b75fc4402da1732fc9bebe1982109182613f68575b505015613f145751845551600184015560405190613d516021836020808201945f86528051918291018484015e81015f838201520301601f1981018452836124be565b613d8e602b604051809360208201956a600b5981380380925939f360a81b87525180918484015e81015f838201520301601f1981018352826124be565b51905ff06001600160a01b03811615613edb576002830180546001600160a01b0319166001600160a01b039092169190911790555f5b600483018054821015613e02575f90815260208082208301546001600160a01b0316825260038501905260409020805460ff19169055600101613dc4565b5050925f5b8451811015613e4b576001906001600160a01b03613e25828861258f565b5116828060a01b03165f526003840160205260405f208260ff1982541617905501613e07565b5092600482018151916001600160401b03831161248f57600160401b831161248f578154838355808410613eb5575b50602001905f5260205f205f5b838110613e98575050505060050155565b82516001600160a01b031681830155602090920191600101613e87565b825f528360205f2091820191015b818110613ed05750613e7a565b5f8155600101613ec3565b60405162461bcd60e51b81526020600482015260116024820152701111541313d65351539517d19052531151607a1b6044820152606490fd5b60405162461bcd60e51b815260206004820152602660248201527f46524f53542061676772656761746564207075626c6963206b657920697320696044820152651b9d985b1a5960d21b6064820152608490fd5b613f729250614368565b5f80613d0e565b61ffff613f8792169061342d565b61270f81018091116125b057612710900490565b356001600160801b0381168103611d2b5790565b35906001600160801b0382168203611d2b57565b613fcd42826141e5565b15613fd85760090190565b600f0190565b90613fe990826141e5565b15613ff457600f0190565b60090190565b92939194906140098587614368565b156141b05782156141b05770014551231950b75fc4402da1732fc9bebe198310156141b0576001169061010e6040519161012083018381106001600160401b03821117611d2b5760405260883684376002600188160160888401538760898401526002840160a984015360aa830186905260ca8301527e300046524f53542d736563703235366b312d4b454343414b3235362d76316360ea8301526303430b6160e51b61010a830152812060cc820181815290600260ec84016001815360428420809318845253604270014551231950b75fc4402da1732fc9bebe19922060801c6001600160401b0360801b8260801b16179070014551231950b75fc4402da1732fc9bebe1990600160c01b9060401c09088015613b255784601b6080945f9660209870014551231950b75fc4402da1732fc9bebe19910970014551231950b75fc4402da1732fc9bebe19038552018684015280604084015270014551231950b75fc4402da1732fc9bebe19910970014551231950b75fc4402da1732fc9bebe1903606082015282805260015afa505f51915f5260205260018060a01b0360405f20161490565b5050505050505f90565b60ff5f51602061444e5f395f51905f525460401c16156141d657565b631afcd79f60e31b5f5260045ffd5b906014600e83015492015480831461428a57818184109311918215911115918190614283575b15614220578261421a57505090565b14919050565b60405162461bcd60e51b815260206004820152603560248201527f636f756c64206e6f74206964656e746966792076616c696461746f727320666f6044820152740722074686520676976656e2074696d657374616d7605c1b6064820152608490fd5b508161420b565b606460405162461bcd60e51b815260206004820152602060248201527f657261732074696d657374616d70206d757374206e6f7420626520657175616c6044820152fd5b81519190604183036142fe576142f79250602082015190606060408401519301515f1a9061438b565b9192909190565b50505f9160029190565b6004811015611d35578061431a575050565b600181036143315763f645eedf60e01b5f5260045ffd5b6002810361434c575063fce698f760e01b5f5260045260245ffd5b6003146143565750565b6335e2f38360e21b5f5260045260245ffd5b6401000003d01990600790829081818009900908906401000003d0199080091490565b91907f7fffffffffffffffffffffffffffffff5d576e7357a4501ddfe92f46681b20a08411614402579160209360809260ff5f9560405194855216868401526040830152606082015282805260015afa15611d20575f516001600160a01b038116156143f857905f905f90565b505f906001905f90565b5050505f916003919056fe9016d09d72d40fdae2fd8ceac6b6234c7706214fd39c1cd1e609a0528c1993005c09ca1b9b8127a4fd9f3c384aac59b661441e820e17733753ff5f2e86e1e000f0c57e16840df040f15088dc2f81fe391c3923bec73e23a9662efc9c229c6a00f0c57e16840df040f15088dc2f81fe391c3923bec73e23a9662efc9c229c6a00","linkReferences":{}},"methodIdentifiers":{"areValidators(address[])":"8f381dbe","codeState(bytes32)":"c13911e8","codesStates(bytes32[])":"82bdeaad","commitBatch((bytes32,uint48,bytes32,((address,bytes32,bool,address,uint128,(bytes32,address,uint128)[],(bytes32,address,bytes,uint128,(bytes32,bytes4),bool)[])[],bytes32)[],(bytes32,bool)[],((uint256,bytes32),((address,uint256)[],uint256,address),uint48)[],((uint256,uint256),bytes,address[],uint256)[]),uint8,bytes[])":"0749fc71","computeSettings()":"84d22a4f","createProgram(bytes32,bytes32,address)":"3683c4d2","createProgramWithAbiInterface(bytes32,bytes32,address,address)":"0c18d277","genesisBlockHash()":"28e24b3d","genesisTimestamp()":"cacf66ab","initialize(address,address,address,address,uint48,uint256,uint256,(uint256,uint256),bytes,address[])":"8961edeb","isValidator(address)":"facd743b","latestCommittedBatchHash()":"71a8cf2d","latestCommittedBatchTimestamp()":"d456fd51","latestRewardedEraIndex()":"bf34281f","lookupGenesisHash()":"8b1edf1e","mirrorImpl()":"e6fabc09","owner()":"8da5cb5b","programCodeId(address)":"9067088e","programsCodeIds(address[])":"baaf0201","programsCount()":"96a2ddfa","reinitialize()":"6c2eb350","renounceOwnership()":"715018a6","requestCodeValidation(bytes32)":"120e3f1e","setMirror(address)":"3d43b418","signingThresholdPercentage()":"efd81abc","timelines()":"9eb939a8","transferOwnership(address)":"f2fde38b","validatedCodesCount()":"007a32e7","validators()":"ca1e7819","validatorsAggregatedPublicKey()":"3bd109fa","validatorsCount()":"ed612f8c","validatorsThreshold()":"edc87225","validatorsVerifiableSecretSharingCommitment()":"a5d53a44","wrappedVara()":"88f50cf0"},"storageLayout":{"storage":[],"types":{}},"id":150}