{"abi":[{"type":"constructor","inputs":[],"stateMutability":"nonpayable"},{"type":"receive","stateMutability":"payable"},{"type":"function","name":"areValidators","inputs":[{"name":"_validators","type":"address[]","internalType":"address[]"}],"outputs":[{"name":"","type":"bool","internalType":"bool"}],"stateMutability":"view"},{"type":"function","name":"codeState","inputs":[{"name":"_codeId","type":"bytes32","internalType":"bytes32"}],"outputs":[{"name":"","type":"uint8","internalType":"enum Gear.CodeState"}],"stateMutability":"view"},{"type":"function","name":"codesStates","inputs":[{"name":"_codesIds","type":"bytes32[]","internalType":"bytes32[]"}],"outputs":[{"name":"","type":"uint8[]","internalType":"enum Gear.CodeState[]"}],"stateMutability":"view"},{"type":"function","name":"commitBatch","inputs":[{"name":"_batch","type":"tuple","internalType":"struct Gear.BatchCommitment","components":[{"name":"blockHash","type":"bytes32","internalType":"bytes32"},{"name":"blockTimestamp","type":"uint48","internalType":"uint48"},{"name":"previousCommittedBatchHash","type":"bytes32","internalType":"bytes32"},{"name":"expiry","type":"uint8","internalType":"uint8"},{"name":"chainCommitment","type":"tuple[]","internalType":"struct Gear.ChainCommitment[]","components":[{"name":"transitions","type":"tuple[]","internalType":"struct Gear.StateTransition[]","components":[{"name":"actorId","type":"address","internalType":"address"},{"name":"newStateHash","type":"bytes32","internalType":"bytes32"},{"name":"exited","type":"bool","internalType":"bool"},{"name":"inheritor","type":"address","internalType":"address"},{"name":"valueToReceive","type":"uint128","internalType":"uint128"},{"name":"valueToReceiveNegativeSign","type":"bool","internalType":"bool"},{"name":"valueClaims","type":"tuple[]","internalType":"struct Gear.ValueClaim[]","components":[{"name":"messageId","type":"bytes32","internalType":"bytes32"},{"name":"destination","type":"address","internalType":"address"},{"name":"value","type":"uint128","internalType":"uint128"}]},{"name":"messages","type":"tuple[]","internalType":"struct Gear.Message[]","components":[{"name":"id","type":"bytes32","internalType":"bytes32"},{"name":"destination","type":"address","internalType":"address"},{"name":"payload","type":"bytes","internalType":"bytes"},{"name":"value","type":"uint128","internalType":"uint128"},{"name":"replyDetails","type":"tuple","internalType":"struct Gear.ReplyDetails","components":[{"name":"to","type":"bytes32","internalType":"bytes32"},{"name":"code","type":"bytes4","internalType":"bytes4"}]},{"name":"call","type":"bool","internalType":"bool"}]}]},{"name":"head","type":"bytes32","internalType":"bytes32"}]},{"name":"codeCommitments","type":"tuple[]","internalType":"struct Gear.CodeCommitment[]","components":[{"name":"id","type":"bytes32","internalType":"bytes32"},{"name":"valid","type":"bool","internalType":"bool"}]},{"name":"rewardsCommitment","type":"tuple[]","internalType":"struct Gear.RewardsCommitment[]","components":[{"name":"operators","type":"tuple","internalType":"struct Gear.OperatorRewardsCommitment","components":[{"name":"amount","type":"uint256","internalType":"uint256"},{"name":"root","type":"bytes32","internalType":"bytes32"}]},{"name":"stakers","type":"tuple","internalType":"struct Gear.StakerRewardsCommitment","components":[{"name":"distribution","type":"tuple[]","internalType":"struct Gear.StakerRewards[]","components":[{"name":"vault","type":"address","internalType":"address"},{"name":"amount","type":"uint256","internalType":"uint256"}]},{"name":"totalAmount","type":"uint256","internalType":"uint256"},{"name":"token","type":"address","internalType":"address"}]},{"name":"timestamp","type":"uint48","internalType":"uint48"}]},{"name":"validatorsCommitment","type":"tuple[]","internalType":"struct Gear.ValidatorsCommitment[]","components":[{"name":"aggregatedPublicKey","type":"tuple","internalType":"struct Gear.AggregatedPublicKey","components":[{"name":"x","type":"uint256","internalType":"uint256"},{"name":"y","type":"uint256","internalType":"uint256"}]},{"name":"verifiableSecretSharingCommitment","type":"bytes","internalType":"bytes"},{"name":"validators","type":"address[]","internalType":"address[]"},{"name":"eraIndex","type":"uint256","internalType":"uint256"}]}]},{"name":"_signatureType","type":"uint8","internalType":"enum Gear.SignatureType"},{"name":"_signatures","type":"bytes[]","internalType":"bytes[]"}],"outputs":[],"stateMutability":"nonpayable"},{"type":"function","name":"computeSettings","inputs":[],"outputs":[{"name":"","type":"tuple","internalType":"struct Gear.ComputationSettings","components":[{"name":"threshold","type":"uint64","internalType":"uint64"},{"name":"wvaraPerSecond","type":"uint128","internalType":"uint128"}]}],"stateMutability":"view"},{"type":"function","name":"createProgram","inputs":[{"name":"_codeId","type":"bytes32","internalType":"bytes32"},{"name":"_salt","type":"bytes32","internalType":"bytes32"},{"name":"_overrideInitializer","type":"address","internalType":"address"}],"outputs":[{"name":"","type":"address","internalType":"address"}],"stateMutability":"nonpayable"},{"type":"function","name":"createProgramWithAbiInterface","inputs":[{"name":"_codeId","type":"bytes32","internalType":"bytes32"},{"name":"_salt","type":"bytes32","internalType":"bytes32"},{"name":"_overrideInitializer","type":"address","internalType":"address"},{"name":"_abiInterface","type":"address","internalType":"address"}],"outputs":[{"name":"","type":"address","internalType":"address"}],"stateMutability":"nonpayable"},{"type":"function","name":"genesisBlockHash","inputs":[],"outputs":[{"name":"","type":"bytes32","internalType":"bytes32"}],"stateMutability":"view"},{"type":"function","name":"genesisTimestamp","inputs":[],"outputs":[{"name":"","type":"uint48","internalType":"uint48"}],"stateMutability":"view"},{"type":"function","name":"initialize","inputs":[{"name":"_owner","type":"address","internalType":"address"},{"name":"_mirror","type":"address","internalType":"address"},{"name":"_wrappedVara","type":"address","internalType":"address"},{"name":"_middleware","type":"address","internalType":"address"},{"name":"_eraDuration","type":"uint256","internalType":"uint256"},{"name":"_electionDuration","type":"uint256","internalType":"uint256"},{"name":"_validationDelay","type":"uint256","internalType":"uint256"},{"name":"_aggregatedPublicKey","type":"tuple","internalType":"struct Gear.AggregatedPublicKey","components":[{"name":"x","type":"uint256","internalType":"uint256"},{"name":"y","type":"uint256","internalType":"uint256"}]},{"name":"_verifiableSecretSharingCommitment","type":"bytes","internalType":"bytes"},{"name":"_validators","type":"address[]","internalType":"address[]"}],"outputs":[],"stateMutability":"nonpayable"},{"type":"function","name":"isValidator","inputs":[{"name":"_validator","type":"address","internalType":"address"}],"outputs":[{"name":"","type":"bool","internalType":"bool"}],"stateMutability":"view"},{"type":"function","name":"latestCommittedBatchHash","inputs":[],"outputs":[{"name":"","type":"bytes32","internalType":"bytes32"}],"stateMutability":"view"},{"type":"function","name":"latestCommittedBatchTimestamp","inputs":[],"outputs":[{"name":"","type":"uint48","internalType":"uint48"}],"stateMutability":"view"},{"type":"function","name":"lookupGenesisHash","inputs":[],"outputs":[],"stateMutability":"nonpayable"},{"type":"function","name":"middleware","inputs":[],"outputs":[{"name":"","type":"address","internalType":"address"}],"stateMutability":"view"},{"type":"function","name":"mirrorImpl","inputs":[],"outputs":[{"name":"","type":"address","internalType":"address"}],"stateMutability":"view"},{"type":"function","name":"owner","inputs":[],"outputs":[{"name":"","type":"address","internalType":"address"}],"stateMutability":"view"},{"type":"function","name":"programCodeId","inputs":[{"name":"_programId","type":"address","internalType":"address"}],"outputs":[{"name":"","type":"bytes32","internalType":"bytes32"}],"stateMutability":"view"},{"type":"function","name":"programsCodeIds","inputs":[{"name":"_programsIds","type":"address[]","internalType":"address[]"}],"outputs":[{"name":"","type":"bytes32[]","internalType":"bytes32[]"}],"stateMutability":"view"},{"type":"function","name":"programsCount","inputs":[],"outputs":[{"name":"","type":"uint256","internalType":"uint256"}],"stateMutability":"view"},{"type":"function","name":"reinitialize","inputs":[],"outputs":[],"stateMutability":"nonpayable"},{"type":"function","name":"renounceOwnership","inputs":[],"outputs":[],"stateMutability":"nonpayable"},{"type":"function","name":"requestCodeValidation","inputs":[{"name":"_codeId","type":"bytes32","internalType":"bytes32"}],"outputs":[],"stateMutability":"nonpayable"},{"type":"function","name":"setMirror","inputs":[{"name":"newMirror","type":"address","internalType":"address"}],"outputs":[],"stateMutability":"nonpayable"},{"type":"function","name":"signingThresholdFraction","inputs":[],"outputs":[{"name":"","type":"uint128","internalType":"uint128"},{"name":"","type":"uint128","internalType":"uint128"}],"stateMutability":"view"},{"type":"function","name":"storageView","inputs":[],"outputs":[{"name":"","type":"tuple","internalType":"struct IRouter.StorageView","components":[{"name":"genesisBlock","type":"tuple","internalType":"struct Gear.GenesisBlockInfo","components":[{"name":"hash","type":"bytes32","internalType":"bytes32"},{"name":"number","type":"uint32","internalType":"uint32"},{"name":"timestamp","type":"uint48","internalType":"uint48"}]},{"name":"latestCommittedBatch","type":"tuple","internalType":"struct Gear.CommittedBatchInfo","components":[{"name":"hash","type":"bytes32","internalType":"bytes32"},{"name":"timestamp","type":"uint48","internalType":"uint48"}]},{"name":"implAddresses","type":"tuple","internalType":"struct Gear.AddressBook","components":[{"name":"mirror","type":"address","internalType":"address"},{"name":"wrappedVara","type":"address","internalType":"address"},{"name":"middleware","type":"address","internalType":"address"}]},{"name":"validationSettings","type":"tuple","internalType":"struct Gear.ValidationSettingsView","components":[{"name":"thresholdNumerator","type":"uint128","internalType":"uint128"},{"name":"thresholdDenominator","type":"uint128","internalType":"uint128"},{"name":"validators0","type":"tuple","internalType":"struct Gear.ValidatorsView","components":[{"name":"aggregatedPublicKey","type":"tuple","internalType":"struct Gear.AggregatedPublicKey","components":[{"name":"x","type":"uint256","internalType":"uint256"},{"name":"y","type":"uint256","internalType":"uint256"}]},{"name":"verifiableSecretSharingCommitmentPointer","type":"address","internalType":"address"},{"name":"list","type":"address[]","internalType":"address[]"},{"name":"useFromTimestamp","type":"uint256","internalType":"uint256"}]},{"name":"validators1","type":"tuple","internalType":"struct Gear.ValidatorsView","components":[{"name":"aggregatedPublicKey","type":"tuple","internalType":"struct Gear.AggregatedPublicKey","components":[{"name":"x","type":"uint256","internalType":"uint256"},{"name":"y","type":"uint256","internalType":"uint256"}]},{"name":"verifiableSecretSharingCommitmentPointer","type":"address","internalType":"address"},{"name":"list","type":"address[]","internalType":"address[]"},{"name":"useFromTimestamp","type":"uint256","internalType":"uint256"}]}]},{"name":"computeSettings","type":"tuple","internalType":"struct Gear.ComputationSettings","components":[{"name":"threshold","type":"uint64","internalType":"uint64"},{"name":"wvaraPerSecond","type":"uint128","internalType":"uint128"}]},{"name":"timelines","type":"tuple","internalType":"struct Gear.Timelines","components":[{"name":"era","type":"uint256","internalType":"uint256"},{"name":"election","type":"uint256","internalType":"uint256"},{"name":"validationDelay","type":"uint256","internalType":"uint256"}]},{"name":"programsCount","type":"uint256","internalType":"uint256"},{"name":"validatedCodesCount","type":"uint256","internalType":"uint256"}]}],"stateMutability":"view"},{"type":"function","name":"timelines","inputs":[],"outputs":[{"name":"","type":"tuple","internalType":"struct Gear.Timelines","components":[{"name":"era","type":"uint256","internalType":"uint256"},{"name":"election","type":"uint256","internalType":"uint256"},{"name":"validationDelay","type":"uint256","internalType":"uint256"}]}],"stateMutability":"view"},{"type":"function","name":"transferOwnership","inputs":[{"name":"newOwner","type":"address","internalType":"address"}],"outputs":[],"stateMutability":"nonpayable"},{"type":"function","name":"validatedCodesCount","inputs":[],"outputs":[{"name":"","type":"uint256","internalType":"uint256"}],"stateMutability":"view"},{"type":"function","name":"validators","inputs":[],"outputs":[{"name":"","type":"address[]","internalType":"address[]"}],"stateMutability":"view"},{"type":"function","name":"validatorsAggregatedPublicKey","inputs":[],"outputs":[{"name":"","type":"tuple","internalType":"struct Gear.AggregatedPublicKey","components":[{"name":"x","type":"uint256","internalType":"uint256"},{"name":"y","type":"uint256","internalType":"uint256"}]}],"stateMutability":"view"},{"type":"function","name":"validatorsCount","inputs":[],"outputs":[{"name":"","type":"uint256","internalType":"uint256"}],"stateMutability":"view"},{"type":"function","name":"validatorsThreshold","inputs":[],"outputs":[{"name":"","type":"uint256","internalType":"uint256"}],"stateMutability":"view"},{"type":"function","name":"validatorsVerifiableSecretSharingCommitment","inputs":[],"outputs":[{"name":"","type":"bytes","internalType":"bytes"}],"stateMutability":"view"},{"type":"function","name":"wrappedVara","inputs":[],"outputs":[{"name":"","type":"address","internalType":"address"}],"stateMutability":"view"},{"type":"event","name":"AnnouncesCommitted","inputs":[{"name":"head","type":"bytes32","indexed":false,"internalType":"bytes32"}],"anonymous":false},{"type":"event","name":"BatchCommitted","inputs":[{"name":"hash","type":"bytes32","indexed":false,"internalType":"bytes32"}],"anonymous":false},{"type":"event","name":"CodeGotValidated","inputs":[{"name":"codeId","type":"bytes32","indexed":false,"internalType":"bytes32"},{"name":"valid","type":"bool","indexed":true,"internalType":"bool"}],"anonymous":false},{"type":"event","name":"CodeValidationRequested","inputs":[{"name":"codeId","type":"bytes32","indexed":false,"internalType":"bytes32"}],"anonymous":false},{"type":"event","name":"ComputationSettingsChanged","inputs":[{"name":"threshold","type":"uint64","indexed":false,"internalType":"uint64"},{"name":"wvaraPerSecond","type":"uint128","indexed":false,"internalType":"uint128"}],"anonymous":false},{"type":"event","name":"Initialized","inputs":[{"name":"version","type":"uint64","indexed":false,"internalType":"uint64"}],"anonymous":false},{"type":"event","name":"OwnershipTransferred","inputs":[{"name":"previousOwner","type":"address","indexed":true,"internalType":"address"},{"name":"newOwner","type":"address","indexed":true,"internalType":"address"}],"anonymous":false},{"type":"event","name":"ProgramCreated","inputs":[{"name":"actorId","type":"address","indexed":false,"internalType":"address"},{"name":"codeId","type":"bytes32","indexed":true,"internalType":"bytes32"}],"anonymous":false},{"type":"event","name":"StorageSlotChanged","inputs":[{"name":"slot","type":"bytes32","indexed":false,"internalType":"bytes32"}],"anonymous":false},{"type":"event","name":"ValidatorsCommittedForEra","inputs":[{"name":"eraIndex","type":"uint256","indexed":false,"internalType":"uint256"}],"anonymous":false},{"type":"error","name":"ECDSAInvalidSignature","inputs":[]},{"type":"error","name":"ECDSAInvalidSignatureLength","inputs":[{"name":"length","type":"uint256","internalType":"uint256"}]},{"type":"error","name":"ECDSAInvalidSignatureS","inputs":[{"name":"s","type":"bytes32","internalType":"bytes32"}]},{"type":"error","name":"InvalidInitialization","inputs":[]},{"type":"error","name":"NotInitializing","inputs":[]},{"type":"error","name":"OwnableInvalidOwner","inputs":[{"name":"owner","type":"address","internalType":"address"}]},{"type":"error","name":"OwnableUnauthorizedAccount","inputs":[{"name":"account","type":"address","internalType":"address"}]},{"type":"error","name":"ReentrancyGuardReentrantCall","inputs":[]}],"bytecode":{"object":"0x6080806040523460aa575f516020614b755f395f51905f525460ff8160401c16609b576002600160401b03196001600160401b038216016049575b604051614ac690816100af8239f35b6001600160401b0319166001600160401b039081175f516020614b755f395f51905f525581527fc7f505b2f371ae2175ee4913f4499e1f2633a7b5936321eed1cdaeb6115181d290602090a15f80603a565b63f92ee8a960e01b5f5260045ffd5b5f80fdfe608080604052600436101561010a575b50361561001a575f80fd5b5f516020614a865f395f51905f525461003860018201541515612a5b565b6001600160801b033416156100ba57335f908152601a9190910160205260409020541561006157005b60405162461bcd60e51b815260206004820152602b60248201527f636f756c646e277420726563656976652045746865722066726f6d20756e6b6e60448201526a6f776e2070726f6772616d60a81b6064820152608490fd5b60405162461bcd60e51b815260206004820152602260248201527f7a65726f2076616c7565207472616e73666572206973206e6f7420616c6c6f77604482015261195960f21b6064820152608490fd5b5f905f3560e01c9081627a32e714612879575080630c18d27714612381578063120e3f1e146121f557806328e24b3d146121c75780633683c4d214611f3a5780633bd109fa14611eeb5780633d43b41814611e9757806353f7fd48146118e25780636c2eb35014611550578063715018a6146114e757806371a8cf2d146114b957806382bdeaad146113a157806384d22a4f1461134357806388f50cf01461130a5780638b1edf1e1461123f5780638da5cb5b1461120a5780638f381dbe146111c45780639067088e1461117b57806396a2ddfa1461114d5780639eb939a8146110f6578063a5d53a4414611088578063b24fcac014610986578063baaf020114610885578063c13911e814610841578063c2eb812f14610515578063ca1e7819146104c5578063cacf66ab1461048d578063d456fd5114610457578063e3a6684f14610418578063e6fabc09146103df578063ed612f8c146103a7578063edc8722514610352578063f2fde38b14610325578063f4f20ac0146102ec5763facd743b0361000f57346102e95760203660031901126102e9576102ab6128cf565b60036102c65f516020614a865f395f51905f52544290614565565b019060018060a01b03165f52602052602060ff60405f2054166040519015158152f35b80fd5b50346102e957806003193601126102e9575f516020614a865f395f51905f5254600701546040516001600160a01b039091168152602090f35b50346102e95760203660031901126102e95761034f6103426128cf565b61034a612ea4565b612e25565b80f35b50346102e957806003193601126102e957602061039f5f516020614a865f395f51905f5254600860046103854284614565565b0154910154906001600160801b038260801c92169061453a565b604051908152f35b50346102e957806003193601126102e957602060046103d55f516020614a865f395f51905f52544290614565565b0154604051908152f35b50346102e957806003193601126102e9575f516020614a865f395f51905f5254600501546040516001600160a01b039091168152602090f35b50346102e957806003193601126102e957604060085f516020614a865f395f51905f525401548151906001600160801b038116825260801c6020820152f35b50346102e957806003193601126102e957602065ffffffffffff60045f516020614a865f395f51905f5254015416604051908152f35b50346102e957806003193601126102e957602065ffffffffffff60025f516020614a865f395f51905f52540154821c16604051908152f35b50346102e957806003193601126102e9576105116104fd60046104f75f516020614a865f395f51905f52544290614565565b01612c1a565b604051918291602083526020830190612936565b0390f35b50346102e957806003193601126102e95760405161053281612a03565b61053a612d53565b8152604051610548816129e8565b5f8152602081015f9052602082015261055f612d53565b604082015261056c612df2565b606082015260405161057d816129e8565b5f80825260208201526080820152610593612d53565b60a08201528160c082015260e001525f516020614a865f395f51905f52546105b9612df2565b506105c6600982016147e8565b906105d3600f82016147e8565b600882015492604051936105e685612a1f565b6001600160801b038116855260801c602085015260408401526060830152601b81015490601c8101546040519261061c84612a03565b604051610628816129b9565b60018401548152600284015463ffffffff8116602083015260201c65ffffffffffff16604082015284526040519461065f866129e8565b60038401548652600484015465ffffffffffff166020870152602085019586526040519061068c826129b9565b60058501546001600160a01b0390811683526006860154811660208401526007860154166040808401919091528601918252606086019081526106d160158601612ca5565b94608087019586526016016106e590612d71565b9160a0870192835260c0870193845260e087019485526040519788976020895251805160208a0152602081015163ffffffff1660408a01526040015165ffffffffffff16606089015251805160808901526020015165ffffffffffff1660a088015251600160a01b6001900381511660c0880152600160a01b6001900360208201511660e0880152600160a01b60019003906040015116610100870152516101208601610200905280516001600160801b031661022087015260208101516001600160801b031661024087015260408101516102608701608090526102a087016107ce91612972565b90606001519061021f19878203016102808801526107eb91612972565b935180516001600160401b0316610140870152602001516001600160801b031661016086015251805161018086015260208101516101a0860152604001516101c0850152516101e0840152516102008301520390f35b50346102e95760203660031901126102e95760ff604060209260195f516020614a865f395f51905f525401600435825284522054166108836040518092612929565bf35b50346102e95760203660031901126102e9576004356001600160401b038111610982576108b69036906004016128f9565b905f516020614a865f395f51905f5254906108d083612baf565b916108de6040519384612a3a565b8383526108ea84612baf565b602084019490601f1901368637601a869201915b81811061094957868587604051928392602084019060208552518091526040840192915b818110610930575050500390f35b8251845285945060209384019390920191600101610922565b8061095f61095a6001938588612c6d565b612cd3565b828060a01b03165f528360205260405f205461097b8288612c91565b52016108fe565b5080fd5b50346102e95760603660031901126102e9576001600160401b03600435116102e957610100600435360360031901126102e957600260243510156102e9576044356001600160401b038111610982576109e39036906004016128f9565b907f9b779b17422d0df92223018b32b4d1fa46e071723d6817e2486d003becc55f005c6110795760017f9b779b17422d0df92223018b32b4d1fa46e071723d6817e2486d003becc55f005d5f516020614a865f395f51905f525490610a4d60018301541515612a5b565b815415610f96575b60038201546044600435013503610f435765ffffffffffff60048301541665ffffffffffff610a88602460043501612da7565b1610610ec357610a9d6004356004018361327b565b91610ab260a4600435016004356004016137fc565b808096925060051b0460201485151715610eaf57610ad28560051b6145d4565b92869487955b610aec60a4600435016004356004016137fc565b9050871015610cfa57610b0960a4600435016004356004016137fc565b881015610ce6578760061b8101358a526019860160205260ff60408b2054166003811015610cd257600103610c6f5760208860061b820101610b4a81613831565b15610c4e578860061b8201358b526019870160205260408b20600260ff19825416179055601c8701610b7c8154612e96565b90555b610b8881613831565b15157f460119a8f69a33ed127de517d5ea464e958ce23ef19e4420a8b92bf780bbc2c960206040518c60061b8601358152a260408960061b8301360312610c4a57602090610bea60405191610bdc836129e8565b8b60061b850135835261383e565b91829101526040519060208201928a60061b01358352151560f81b604082015260218152610c19604182612a3a565b5190208187015260208101809111610c3657600190960195610ad8565b634e487b7160e01b89526011600452602489fd5b8a80fd5b8860061b8201358b526019870160205260408b2060ff198154169055610b7f565b60405162461bcd60e51b815260206004820152603560248201527f636f6465206d7573742062652072657175657374656420666f722076616c6964604482015274185d1a5bdb881d1bc818994818dbdb5b5a5d1d1959605a1b6064820152608490fd5b634e487b7160e01b8b52602160045260248bfd5b634e487b7160e01b8a52603260045260248afd5b50879550610e3f948760051b902090610d186004356004018661386d565b610d2760043560040187613d80565b90610d36602460043501612da7565b93610d45606460043501612d99565b9360405194602086019660043560040135885265ffffffffffff60d01b9060d01b16604087015260446004350135604687015260ff60f81b9060f81b1660668601526067850152608784015260a783015260c782015260c78152610daa60e782612a3a565b519020926020610dbe602460043501612da7565b65ffffffffffff60405191610dd2836129e8565b87835216918291015284600383015565ffffffffffff196004830154161760048201557f7ebe42360bcb182fe0a88148b081e4557c89d09aa6af8307635ac2f83e2aaa656020604051868152a165ffffffffffff610e34602460043501612da7565b169360243591614190565b15610e6a57807f9b779b17422d0df92223018b32b4d1fa46e071723d6817e2486d003becc55f005d80f35b60405162461bcd60e51b815260206004820152601e60248201527f7369676e61747572657320766572696669636174696f6e206661696c656400006044820152606490fd5b634e487b7160e01b86526011600452602486fd5b60405162461bcd60e51b815260206004820152604c60248201527f62617463682074696d657374616d70206d75737420626520677265617465722060448201527f6f7220657175616c20746f206c617465737420636f6d6d69747465642062617460648201526b063682074696d657374616d760a41b608482015260a490fd5b60405162461bcd60e51b815260206004820152602560248201527f696e76616c69642070726576696f757320636f6d6d6974746564206261746368604482015264040d0c2e6d60db1b6064820152608490fd5b610fb3610fa7606460043501612d99565b600435600401356131e6565b156110255765ffffffffffff610fcd602460043501612da7565b164211610a555760405162461bcd60e51b815260206004820152602360248201527f62617463682074696d657374616d70206d75737420626520696e207468652070604482015262185cdd60ea1b6064820152608490fd5b60405162461bcd60e51b815260206004820152602660248201527f616c6c6f776564207072656465636573736f7220626c6f636b207761736e277460448201526508199bdd5b9960d21b6064820152608490fd5b633ee5aeb560e01b8352600483fd5b50346102e957806003193601126102e95760406110c95f516020614a865f395f51905f525460026110c160018060a01b03924290614565565b0154166131b7565b6020825193849282845280519283918282870152018585015e828201840152601f01601f19168101030190f35b50346102e957806003193601126102e95761110f612d53565b50606061112c60165f516020614a865f395f51905f525401612d71565b61088360405180926040809180518452602081015160208501520151910152565b50346102e957806003193601126102e9576020601b5f516020614a865f395f51905f52540154604051908152f35b50346102e95760203660031901126102e9576111956128cf565b601a5f516020614a865f395f51905f5254019060018060a01b03165f52602052602060405f2054604051908152f35b50346102e95760203660031901126102e957600435906001600160401b0382116102e95760206112006111fa36600486016128f9565b90612ce7565b6040519015158152f35b50346102e957806003193601126102e9575f516020614a665f395f51905f52546040516001600160a01b039091168152602090f35b50346102e957806003193601126102e9575f516020614a865f395f51905f5254600181019081546112c5576002015463ffffffff1640908115611280575580f35b60405162461bcd60e51b815260206004820152601d60248201527f756e61626c6520746f206c6f6f6b75702067656e6573697320686173680000006044820152606490fd5b60405162461bcd60e51b815260206004820152601860248201527f67656e65736973206861736820616c72656164792073657400000000000000006044820152606490fd5b50346102e957806003193601126102e9575f516020614a865f395f51905f5254600601546040516001600160a01b039091168152602090f35b50346102e957806003193601126102e95761135c612acd565b50604061137960155f516020614a865f395f51905f525401612ca5565b610883825180926001600160801b03602080926001600160401b038151168552015116910152565b50346102e95760203660031901126102e9576004356001600160401b038111610982576113d29036906004016128f9565b905f516020614a865f395f51905f5254906113ec83612baf565b916113fa6040519384612a3a565b83835261140684612baf565b602084019490601f19013686376019869201915b81811061146f57868587604051928392602084019060208552518091526040840192915b81811061144c575050500390f35b91935091602080826114616001948851612929565b01940191019184939261143e565b61147a818386612c6d565b3587528260205260ff6040882054166114938287612c91565b60038210156114a5575260010161141a565b634e487b7160e01b89526021600452602489fd5b50346102e957806003193601126102e957602060035f516020614a865f395f51905f52540154604051908152f35b50346102e957806003193601126102e957611500612ea4565b5f516020614a665f395f51905f5280546001600160a01b0319811690915581906001600160a01b03167f8be0079c531659141344cd1fd0a4f28419497f9722a3daafe3b4186f6b6457e08280a380f35b50346102e957806003193601126102e9575f516020614aa65f395f51905f525460ff8160401c169081156118cd575b506118be575f516020614aa65f395f51905f52805468ffffffffffffffffff1916680100000000000000021790555f516020614a665f395f51905f52546115d9906001600160a01b03166115d1614581565b61034a614581565b5f516020614a865f395f51905f525460409081516115f78382612a3a565b6017815260208101907f726f757465722e73746f726167652e526f757465725632000000000000000000825261162b612ea4565b5190205f1981019081116118aa57916020917fc7f505b2f371ae2175ee4913f4499e1f2633a7b5936321eed1cdaeb6115181d2938251908482019081528482526116758483612a3a565b60ff19915190201690815f516020614a865f395f51905f52557f059eb9adf6e95b839d818142ed5bd5e498b6d95138e65c91525e93cc0f0339fc848451848152a16116be612ed7565b80516001840155600283019063ffffffff868201511669ffffffffffff00000000868454930151881b169169ffffffffffffffffffff19161717905560058101600583019080820361185c575b5050600881016001600160801b038154169060088401916001600160801b0319835416178255546001600160801b0382549181191691161790556117946117524283614565565b6117696001600160a01b0360026110c14287614565565b61177f60046117784287614565565b0192612ae5565b9061178a4293612c1a565b9160098701612f1f565b60158101601583019080820361180a575b50506016810160168301918183036117ea575b5050505060ff60401b195f516020614aa65f395f51905f5254165f516020614aa65f395f51905f52555160028152a180f35b60189283925490556017810154601785015501549101555f8080806117b8565b806001600160401b03806001600160801b03935416166001600160401b031984541617835554851c16600160401b600160c01b03825491861b1690600160401b600160c01b0319161790555f806117a5565b5481546001600160a01b03199081166001600160a01b039283161790925560068381015490850180548416918316919091179055600780840154908501805490931691161790555f8061170b565b634e487b7160e01b84526011600452602484fd5b63f92ee8a960e01b8152600490fd5b600291506001600160401b031610155f61157f565b50346102e9576101603660031901126102e9576118fd6128cf565b6024356001600160a01b0381169190829003611e935761191b6128a3565b6119236128b9565b60c435916084359160a43560403660e3190112611e8f5761012435946001600160401b038611611e8b5736602387011215611e8b578560040135916001600160401b038311611e87573660248489010111611e8757610144356001600160401b038111610c4a576119989036906004016128f9565b9690945f516020614aa65f395f51905f5254996001600160401b0360ff8c60401c16159b1680159081611e7f575b6001149081611e75575b159081611e6c575b50611e5d57611a1a908b60016001600160401b03195f516020614aa65f395f51905f525416175f516020614aa65f395f51905f5255611e2d575b6115d1614581565b611a22614581565b4215611dd7578215611d815782821115611d2057600a611a428484612b03565b04841015611cdb5760409a8b51611a598d82612a3a565b6017815260208101907f726f757465722e73746f726167652e526f7574657256310000000000000000008252611a8d612ea4565b5190205f198101908111611cc7578c51602080820192835281528d939291611ab58583612a3a565b60ff19915190201698895f516020614a865f395f51905f525583518a815260207f059eb9adf6e95b839d818142ed5bd5e498b6d95138e65c91525e93cc0f0339fc91a1611b00612ed7565b805160018c015560028b0190602081015163ffffffff1686835492015160201b69ffffffffffff00000000169169ffffffffffffffffffff191617179055835190611b4a826129b9565b8282526001600160a01b03908116602083018190529381169490910184905260058a018054919092166001600160a01b031991821617909155600689018054821690921790915560078801805490911690911790557003000000000000000000000000000000026008870155611bbe612acd565b508951611bca816129e8565b639502f90081526509184e72a0006020909101526015860180546001600160c01b0319166d09184e72a000000000009502f900179055895183908b90611c0f816129b9565b8381528460208201520152601686015560178501556018840155865194611c35866129e8565b60e4358652610104356020870152611c51913691602401612b6a565b9042933690611c5f92612bc6565b9160090193611c6d94612f1f565b611c75575080f35b60207fc7f505b2f371ae2175ee4913f4499e1f2633a7b5936321eed1cdaeb6115181d29160ff60401b195f516020614aa65f395f51905f5254165f516020614aa65f395f51905f52555160018152a180f35b634e487b7160e01b8e52601160045260248efd5b60405162461bcd60e51b815260206004820152601b60248201527f76616c69646174696f6e2064656c617920697320746f6f2062696700000000006044820152606490fd5b60405162461bcd60e51b815260206004820152603360248201527f657261206475726174696f6e206d757374206265206772656174657220746861604482015272371032b632b1ba34b7b710323ab930ba34b7b760691b6064820152608490fd5b60405162461bcd60e51b815260206004820152602860248201527f656c656374696f6e206475726174696f6e206d75737420626520677265617465604482015267072207468616e20360c41b6064820152608490fd5b60405162461bcd60e51b815260206004820152602860248201527f63757272656e742074696d657374616d70206d75737420626520677265617465604482015267072207468616e20360c41b6064820152608490fd5b600160401b60ff60401b195f516020614aa65f395f51905f525416175f516020614aa65f395f51905f5255611a12565b63f92ee8a960e01b8d5260048dfd5b9050155f6119d8565b303b1591506119d0565b8c91506119c6565b8980fd5b8880fd5b8780fd5b8280fd5b50346102e95760203660031901126102e957611eb16128cf565b611eb9612ea4565b5f516020614a865f395f51905f525460050180546001600160a01b0319166001600160a01b0390921691909117905580f35b50346102e957806003193601126102e957611f04612acd565b506040611f28611f235f516020614a865f395f51905f52544290614565565b612ae5565b60208251918051835201516020820152f35b50346102e95760603660031901126102e957600435611f576128a3565b5f516020614a865f395f51905f5254611f7560018201541515612a5b565b8284526019810160205260ff60408520541660038110156121b357600203612157576040516020810190848252602435604082015260408152611fb9606082612a3a565b51902060405160608101908082106001600160401b0383111761215357605a916040527f3d605080600a3d3981f3608060405263e6fabc0960e01b5f5260205f6004817381523060601b6b5afa15604c575f80805136821760208201527f80378136915af43d5f803e156048573d5ff35b3d5ffd5b5f80fd000000000000604082015286f590811561214f576001600160a01b0382165f908152601a820160205260409020849055601b01805461206f90612e96565b90556040516001600160a01b03821680825293907f8008ec1d8798725ebfa0f2d128d52e8e717dcba6e0f786557eeee70614b02bf190602090a2506001600160a01b03811661214a5750335b5f516020614a865f395f51905f5254600501546001600160a01b0316823b1561214657604051631c9776b560e31b81526001600160a01b039092166004830152602482015260016044820152828160648183865af1801561213b57612126575b602082604051908152f35b612131838092612a3a565b610982578161211b565b6040513d85823e3d90fd5b8380fd5b6120bb565b8480fd5b8680fd5b60405162461bcd60e51b815260206004820152602e60248201527f636f6465206d7573742062652076616c696461746564206265666f726520707260448201526d37b3b930b69031b932b0ba34b7b760911b6064820152608490fd5b634e487b7160e01b85526021600452602485fd5b50346102e957806003193601126102e957602060015f516020614a865f395f51905f52540154604051908152f35b50346102e95760203660031901126102e9576004358149156123055760195f516020614a865f395f51905f525461223160018201541515612a5b565b018183528060205260ff60408420541660038110156122f1576122905781835260209081526040808420805460ff19166001179055519182527f5c261a095dd5720475295dc06379921c003c22164ee6cae5cf83e76ce0a1b98591a180f35b60405162461bcd60e51b815260206004820152603360248201527f676976656e20636f646520696420697320616c7265616479206f6e2076616c6960448201527219185d1a5bdb881bdc881d985b1a59185d1959606a1b6064820152608490fd5b634e487b7160e01b84526021600452602484fd5b60405162461bcd60e51b815260206004820152604860248201527f626c6f622063616e277420626520666f756e642c20726f75746572206578706560448201527f63746564204549502d34383434207472616e73616374696f6e2077697468205760648201526720a9a690313637b160c11b608482015260a490fd5b3461285b57608036600319011261285b5760043561239d6128a3565b906123a66128b9565b915f516020614a865f395f51905f52546123c560018201541515612a5b565b825f526019810160205260ff60405f205416600381101561286557600203612157576040516020810190848252602435604082015260408152612409606082612a3a565b5190206040516102c08101908082106001600160401b0383111761285b576102b0916040527f60808060405261029e90816100128239f3fe608060405260043610610254575f81527f3560e01c806336a52a18146100ab57806342129d00146100a65780635ce6c32760208201527f146100a1578063701da98e1461009c578063704ed542146100975780637a8e0c60408201527fdd1461009257806391d5a64c1461008d5780639ce110d714610088578063affe60608201527fd0e0146100835763e43f3433036102545761023f565b610222565b6101fa565b60808201527f6101e4565b6101b1565b610181565b610165565b610143565b610106565b346160a08201527ed4575f3660031901126100d45760025460081c6001600160a01b031660809060c08201527f8152602090f35b5f80fd5b9181601f840112156100d45782359167ffffffffff60e08201527fffffff83116100d457602083818601950101116100d457565b604036600319016101008201527f126100d45760043567ffffffffffffffff81116100d4576101329036906004016101208201527f6100d8565b505060243580151514610254575f80fd5b346100d4575f366003196101408201527f01126100d457602060ff600254166040519015158152f35b346100d4575f36606101608201527f031901126100d45760205f54604051908152f35b346100d457602036600319016101808201527f126100d4576004356fffffffffffffffffffffffffffffffff811614610254576101a08201527f5f80fd5b60403660031901126100d45760243567ffffffffffffffff811161006101c08201527fd4576101dd9036906004016100d8565b5050610254565b346100d457602036606101e08201527f0319011215610254575f80fd5b346100d4575f3660031901126100d4576003546102008201527f6040516001600160a01b039091168152602090f35b346100d4575f36600319016102208201527f126100d4576020600154604051908152f35b346100d4575f36600319011215616102408201523060601c7f0254575f80fd5b63e6fabc0960e01b5f5260205f60048173000000000000000017610260820152735afa156100d4575f808051368280378136915af43060a01b176102808201526f3d5f803e1561029a573d5ff35b3d5ffd60801b6102a08201525ff590811561285b576001600160a01b0382165f908152601a820160205260409020849055601b0180546127a090612e96565b90556040516001600160a01b03821680825293907f8008ec1d8798725ebfa0f2d128d52e8e717dcba6e0f786557eeee70614b02bf190602090a2506001600160a01b03811661285f575033915b813b1561285b57604051631c9776b560e31b81526001600160a01b039384166004820152921660248301525f604483018190528260648183855af191821561285057602092612840575b50604051908152f35b5f61284a91612a3a565b5f612837565b6040513d5f823e3d90fd5b5f80fd5b916127ed565b634e487b7160e01b5f52602160045260245ffd5b3461285b575f36600319011261285b57602090601c5f516020614a865f395f51905f525401548152f35b604435906001600160a01b038216820361285b57565b606435906001600160a01b038216820361285b57565b600435906001600160a01b038216820361285b57565b35906001600160a01b038216820361285b57565b9181601f8401121561285b578235916001600160401b03831161285b576020808501948460051b01011161285b57565b9060038210156128655752565b90602080835192838152019201905f5b8181106129535750505090565b82516001600160a01b0316845260209384019390920191600101612946565b9060208251805183520151602082015260018060a01b036020830151166040820152608060606129b0604085015160a08386015260a0850190612936565b93015191015290565b606081019081106001600160401b038211176129d457604052565b634e487b7160e01b5f52604160045260245ffd5b604081019081106001600160401b038211176129d457604052565b61010081019081106001600160401b038211176129d457604052565b608081019081106001600160401b038211176129d457604052565b90601f801991011681019081106001600160401b038211176129d457604052565b15612a6257565b60405162461bcd60e51b815260206004820152603860248201527f726f757465722067656e65736973206973207a65726f3b2063616c6c20606c6f60448201527f6f6b757047656e657369734861736828296020666972737400000000000000006064820152608490fd5b60405190612ada826129e8565b5f6020838281520152565b90604051612af2816129e8565b602060018294805484520154910152565b91908203918211612b1057565b634e487b7160e01b5f52601160045260245ffd5b8115612b2e570490565b634e487b7160e01b5f52601260045260245ffd5b919082604091031261285b57604051612b5a816129e8565b6020808294803584520135910152565b9291926001600160401b0382116129d45760405191612b93601f8201601f191660200184612a3a565b82948184528183011161285b578281602093845f960137010152565b6001600160401b0381116129d45760051b60200190565b929190612bd281612baf565b93612be06040519586612a3a565b602085838152019160051b810192831161285b57905b828210612c0257505050565b60208091612c0f846128e5565b815201910190612bf6565b90604051918281549182825260208201905f5260205f20925f5b818110612c4b575050612c4992500383612a3a565b565b84546001600160a01b0316835260019485019487945060209093019201612c34565b9190811015612c7d5760051b0190565b634e487b7160e01b5f52603260045260245ffd5b8051821015612c7d5760209160051b010190565b90604051612cb2816129e8565b91546001600160401b038116835260401c6001600160801b03166020830152565b356001600160a01b038116810361285b5790565b612d005f516020614a865f395f51905f52544290614565565b600301905f5b838110612d165750505050600190565b612d2461095a828685612c6d565b6001600160a01b03165f9081526020849052604090205460ff1615612d4b57600101612d06565b505050505f90565b60405190612d60826129b9565b5f6040838281528260208201520152565b90604051612d7e816129b9565b60406002829480548452600181015460208501520154910152565b3560ff8116810361285b5790565b3565ffffffffffff8116810361285b5790565b60405190612dc782612a1f565b5f606083604051612dd7816129e8565b83815283602082015281528260208201528160408201520152565b60405190612dff82612a1f565b815f81525f6020820152612e11612dba565b60408201526060612e20612dba565b910152565b6001600160a01b03168015612e83575f516020614a665f395f51905f5280546001600160a01b0319811683179091556001600160a01b03167f8be0079c531659141344cd1fd0a4f28419497f9722a3daafe3b4186f6b6457e05f80a3565b631e4fbdf760e01b5f525f60045260245ffd5b5f198114612b105760010190565b5f516020614a665f395f51905f52546001600160a01b03163303612ec457565b63118cdaa760e01b5f523360045260245ffd5b612edf612d53565b50604051612eec816129b9565b5f815263ffffffff4316602082015265ffffffffffff4216604082015290565b81810292918115918404141715612b1057565b9291908051906020810191825170014551231950b75fc4402da1732fc9bebe19821091826131a6575b5050156131525751845551600184015560405190612f8b6021836020808201945f86528051918291018484015e81015f838201520301601f198101845283612a3a565b612fc8602b604051809360208201956a600b5981380380925939f360a81b87525180918484015e81015f838201520301601f198101835282612a3a565b51905ff06001600160a01b03811615613119576002830180546001600160a01b0319166001600160a01b039092169190911790555f5b60048301805482101561303c575f90815260208082208301546001600160a01b0316825260038501905260409020805460ff19169055600101612ffe565b5050925f5b8451811015613085576001906001600160a01b0361305f8288612c91565b5116828060a01b03165f526003840160205260405f208260ff1982541617905501613041565b5092600482018151916001600160401b0383116129d457600160401b83116129d45781548383558084106130ef575b50602001905f5260205f205f5b8381106130d2575050505060050155565b82516001600160a01b0316818301556020909201916001016130c1565b825f52838060205f20019103905f5b82811061310c5750506130b4565b5f828201556001016130fe565b60405162461bcd60e51b81526020600482015260116024820152701111541313d65351539517d19052531151607a1b6044820152606490fd5b60405162461bcd60e51b815260206004820152602660248201527f46524f53542061676772656761746564207075626c6963206b657920697320696044820152651b9d985b1a5960d21b6064820152608490fd5b6131b092506149c0565b5f80612f48565b803b905f19820190828211612b105760019060405193603e601f19910116840160405282845260208401903c90565b435f1981019392908411612b105760ff1643811061323657505f925b83811015613212575b505f925050565b80408281036132245750600193505050565b15613231575f1901613202565b61320b565b6132409043612b03565b92613202565b903590601e198136030182121561285b57018035906001600160401b03821161285b57602001918160051b3603831361285b57565b9060808101600161328c8284613246565b90501161379a5761329d8183613246565b905015613773576132ad91613246565b15612c7d57803590603e198136030182121561285b5701916132cf8380613246565b90928160051b9382850460201483151715612b10576132f0859693956145d4565b935f935f97601a60fe19853603019501955b888a1015613714578960051b8501358681121561285b57850161332481612cd3565b6001600160a01b03165f90815260208990526040902054156136b7575f608082016001600160801b03613356826145ac565b161515806136a4575b613693575b6001600160a01b0361337584612cd3565b604051630427a21d60e11b81526020600482015294911691610124850191906001600160801b03906133f4906001600160a01b036133b2856128e5565b166024890152602084013560448901526133ce6040850161383e565b151560648901526001600160a01b036133e9606086016128e5565b1660848901526145c0565b1660a486015261340660a0820161383e565b151560c486015236819003601e190160c08201358181121561285b578201602081359101936001600160401b03821161285b57606082023603851361285b57819061010060e48a015252610144870193905f905b8082106136495750505060e08201359081121561285b5701803560208201926001600160401b03821161285b578160051b90813603851361285b5791879594936023198785030161010488015281845260208085019385010194935f9160fe19813603015b84841061353c5750505050505050602093916001600160801b03848093039316905af1908115612850575f9161350b575b508189015260208101809111612b1057600190990198613302565b90506020813d8211613534575b8161352560209383612a3a565b8101031261285b57515f6134f0565b3d9150613518565b919395979850919395601f1984820301875287358281121561285b578301602081013582526001600160a01b03613575604083016128e5565b1660208301526060810135603e19368390030181121561285b578101602081013591906040016001600160401b03831161285b57823603811361285b57829060e060408601528160e08601526101008501375f61010083850101526001600160801b036135e4608083016145c0565b16606084015260a0810135608084015260c081013563ffffffff60e01b811680910361285b578360209361362660e086956101009560a060019a01520161383e565b151560c0830152601f80199101160101990197019401918a9897969593916134bf565b90919460608060019288358152838060a01b0361366860208b016128e5565b1660208201526001600160801b0361368260408b016145c0565b16604082015201960192019061345a565b905061369e816145ac565b90613364565b506136b160a08401613831565b1561335f565b60405162461bcd60e51b815260206004820152602f60248201527f636f756c646e277420706572666f726d207472616e736974696f6e20666f722060448201526e756e6b6e6f776e2070726f6772616d60881b6064820152608490fd5b509450955095505050602091209101357fd04cd9af813f6f0b56e9411a6ee6a84eb5ac35a96f0c33d2e3a07d65baa8f4186020604051838152a1604051906020820192835260408201526040815261376d606082612a3a565b51902090565b5050507fc5d2460186f7233c927e7db2dcc703c0e500b653ca82273b7bfad8045d85a47090565b60405162461bcd60e51b815260206004820152603460248201527f636861696e436f6d6d69746d656e7420636f756c6420636f6e7461696e206174604482015273081b5bdcdd081bdb994818dbdb5b5a5d1b595b9d60621b6064820152608490fd5b903590601e198136030182121561285b57018035906001600160401b03821161285b57602001918160061b3603831361285b57565b35801515810361285b5790565b3590811515820361285b57565b91908201809211612b1057565b903590605e198136030182121561285b570190565b60c08201600161387d8285613246565b905011613ce45761388e8184613246565b9050156137735761389f9083613246565b15612c7d57803590607e198136030182121561285b570191606083019060206138c783612da7565b91019065ffffffffffff806138db84612da7565b1691161015613c85576138ed82612da7565b65ffffffffffff80600286015460201c16911610613c2a5761393365ffffffffffff61392c6139268261391f87612da7565b16876145f9565b93612da7565b16846145f9565b1115613bd1576007820154600690920180548435946001600160a01b0394851694604082019391925f91602091166044613979836139718989613858565b01358b61384b565b604051948593849263095ea7b360e01b84528c600485015260248401525af1801561285057613b9a575b505460405163394f179b60e11b81526001600160a01b03909116600482015260248101959095526020818101356044870152856064815f885af1948515612850575f95613b62575b50906139f691613858565b91613a0082612da7565b9260405193637fbe95b560e01b85526040600486015260a48501918035601e198236030181121561285b578101602081359101936001600160401b03821161285b578160061b3603851361285b5760606044890152819052869360c485019392915f5b818110613b2a57505050836020959365ffffffffffff829484895f9601356064860152613a99604060018060a01b0392016128e5565b16608485015216602483015203925af1918215612850575f92613af4575b50613ac190612da7565b6040519160208301938452604083015265ffffffffffff60d01b9060d01b1660608201526046815261376d606682612a3a565b9091506020813d602011613b22575b81613b1060209383612a3a565b8101031261285b575190613ac1613ab7565b3d9150613b03565b919550919293604080600192838060a01b03613b458a6128e5565b168152602089013560208201520196019101918895949392613a63565b919094506020823d602011613b92575b81613b7f60209383612a3a565b8101031261285b579051936139f66139eb565b3d9150613b72565b6020813d602011613bc9575b81613bb360209383612a3a565b8101031261285b575180151581146139a3575f80fd5b3d9150613ba6565b60405162461bcd60e51b815260206004820152602b60248201527f7265776172647320636f6d6d69746d656e74206d75737420746172676574207060448201526a726576696f75732065726160a81b6064820152608490fd5b60405162461bcd60e51b815260206004820152602d60248201527f7265776172647320636f6d6d69746d656e742074696d657374616d702070726560448201526c64617465732067656e6573697360981b6064820152608490fd5b60405162461bcd60e51b815260206004820152603160248201527f7265776172647320636f6d6d69746d656e742074696d657374616d70206d75736044820152701d08189948199bdc881d1a19481c185cdd607a1b6064820152608490fd5b608460405162461bcd60e51b815260206004820152604060248201527f7265776172647320636f6d6d69746d656e74206d75737420626520656d70747960448201527f206f7220636f6e7461696e73206f6e6c79206f6e6520636f6d6d69746d656e746064820152fd5b903590601e198136030182121561285b57018035906001600160401b03821161285b5760200191813603831361285b57565b9060e081016001613d918284613246565b90501161411957613da28183613246565b90501561377357613db291613246565b15612c7d57803590609e198136030182121561285b57016060810190613dd88282613246565b9050156140c65765ffffffffffff600284015460201c1691613dfa8342612b03565b613e0960168601548092612b24565b9360808401359460018101809111612b1057850361406e57613e2e85613e3493612f0c565b9061384b565b93613e43601782015486612b03565b421061402957613e5290614621565b934260058601541015613fc957613ea7906040840195613e99613ea1613e788988613d4e565b9190613e84888a613246565b949091613e91368c612b42565b943691612b6a565b933691612bc6565b92612f1f565b7fa1a3b42179ad30022438a1ea333b38eaf4a7329beee5e2b8111c0dcd4e08821c6020604051858152a160a08236031261285b5760405193613ee885612a1f565b613ef23684612b42565b8552356001600160401b03811161285b57820136601f8201121561285b57613f21903690602081359101612b6a565b602085015235906001600160401b03821161285b570136601f8201121561285b57613f53903690602081359101612bc6565b91826040820152816060820152519160208351930151906040519283926020840195865260408401526060830160208351919301905f5b818110613fa75750505081520380825261376d9060200182612a3a565b82516001600160a01b0316855286955060209485019490920191600101613f8a565b60405162461bcd60e51b815260206004820152603260248201527f6c6f6f6b73206c696b652076616c696461746f727320666f72206e65787420656044820152711c9848185c9948185b1c9958591e481cd95d60721b6064820152608490fd5b60405162461bcd60e51b815260206004820152601b60248201527f656c656374696f6e206973206e6f7420796574207374617274656400000000006044820152606490fd5b60405162461bcd60e51b815260206004820152602a60248201527f636f6d6d69746d656e742065726120696e646578206973206e6f74206e657874604482015269040cae4c240d2dcc8caf60b31b6064820152608490fd5b60405162461bcd60e51b815260206004820152602560248201527f6e65772076616c696461746f7273206c697374206d757374206e6f7420626520604482015264656d70747960d81b6064820152608490fd5b60405162461bcd60e51b815260206004820152604360248201527f76616c696461746f727320636f6d6d69746d656e74206d75737420626520656d60448201527f707479206f7220636f6e7461696e73206f6e6c79206f6e6520636f6d6d69746d606482015262195b9d60ea1b608482015260a490fd5b909493919365ffffffffffff600283015460201c166141af42846145f9565b6141c76141c160168601548093612f0c565b8361384b565b918284108080614524575b156144b25750831061446d576141e8908361384b565b1061441c576141f8905b82614565565b94601960f81b5f523060601b60025260165260365f209360028110156128655780614308575050600181036142c35715612c7d576142398161424092613d4e565b3691612b6a565b91606083510361426e5782602061426b9401516060604083015192015192600181549101549061463c565b90565b60405162461bcd60e51b815260206004820152602760248201527f46524f5354207369676e6174757265206c656e677468206d75737420626520396044820152663620627974657360c81b6064820152608490fd5b60405162461bcd60e51b815260206004820152601e60248201527f46524f5354207369676e6174757265206d7573742062652073696e676c6500006044820152606490fd5b91939160011461431b5750505050505f90565b61434090600860048796970154910154906001600160801b038260801c92169061453a565b925f9260035f9201915b868110156144115761437961437061436a6142398460051b860186613d4e565b86614926565b90929192614960565b6001600160a01b0381165f9081526020859052604090205460ff166143a4575b506001905b0161434a565b6001600160a01b03165f9081527ff02b465737fa6045c2ff53fb2df43c66916ac2166fa303264668fb2f6a1d8c0060205260409020805c156143e9575060019061439e565b9460016143f792965d612e96565b93858514614405575f614399565b50505050505050600190565b505050505050505f90565b60405162461bcd60e51b8152602060048201526024808201527f74696d657374616d70206973206f6c646572207468616e2070726576696f75736044820152632065726160e01b6064820152608490fd5b60405162461bcd60e51b815260206004820152601e60248201527f63616e6e6f742076616c6964617465206265666f72652067656e6573697300006044820152606490fd5b93929150504282116144d5576141f8926144cd575b506141f2565b90505f6144c7565b60405162461bcd60e51b815260206004820152602160248201527f74696d657374616d702063616e6e6f7420626520696e207468652066757475726044820152606560f81b6064820152608490fd5b5061453360188701548561384b565b42106141d2565b6001600160801b038092160291166145528183612b24565b918115612b2e57061561426b5760010190565b90614570908261483d565b1561457b57600f0190565b60090190565b60ff5f516020614aa65f395f51905f525460401c161561459d57565b631afcd79f60e31b5f5260045ffd5b356001600160801b038116810361285b5790565b35906001600160801b038216820361285b57565b6040519190601f01601f191682016001600160401b0381118382101761285b57604052565b601661461861426b9365ffffffffffff600285015460201c1690612b03565b91015490612b24565b61462b428261483d565b156146365760090190565b600f0190565b929391949061464b85876149c0565b156147de5782156147de5770014551231950b75fc4402da1732fc9bebe198310156147de576001169061010e614680816145d4565b9160883684376002600188160160888401538760898401526002840160a984015360aa830186905260ca8301527e300046524f53542d736563703235366b312d4b454343414b3235362d76316360ea8301526303430b6160e51b61010a830152812060cc820181815290600260ec84016001815360428420809318845253604270014551231950b75fc4402da1732fc9bebe19922060801c6001600160401b0360801b8260801b16179070014551231950b75fc4402da1732fc9bebe1990600160c01b9060401c090880156144115784601b6080945f9660209870014551231950b75fc4402da1732fc9bebe19910970014551231950b75fc4402da1732fc9bebe19038552018684015280604084015270014551231950b75fc4402da1732fc9bebe19910970014551231950b75fc4402da1732fc9bebe1903606082015282805260015afa505f51915f5260205260018060a01b0360405f20161490565b5050505050505f90565b6147f0612dba565b5060028101546005820154604051929091614830916004916001600160a01b031661481a86612a1f565b61482382612ae5565b8652602086015201612c1a565b6040830152606082015290565b906014600e8301549201548083146148e2578181841093119182159111159181906148db575b15614878578261487257505090565b14919050565b60405162461bcd60e51b815260206004820152603560248201527f636f756c64206e6f74206964656e746966792076616c696461746f727320666f6044820152740722074686520676976656e2074696d657374616d7605c1b6064820152608490fd5b5081614863565b606460405162461bcd60e51b815260206004820152602060248201527f657261732074696d657374616d70206d757374206e6f7420626520657175616c6044820152fd5b81519190604183036149565761494f9250602082015190606060408401519301515f1a906149e3565b9192909190565b50505f9160029190565b60048110156128655780614972575050565b600181036149895763f645eedf60e01b5f5260045ffd5b600281036149a4575063fce698f760e01b5f5260045260245ffd5b6003146149ae5750565b6335e2f38360e21b5f5260045260245ffd5b6401000003d01990600790829081818009900908906401000003d0199080091490565b91907f7fffffffffffffffffffffffffffffff5d576e7357a4501ddfe92f46681b20a08411614a5a579160209360809260ff5f9560405194855216868401526040830152606082015282805260015afa15612850575f516001600160a01b03811615614a5057905f905f90565b505f906001905f90565b5050505f916003919056fe9016d09d72d40fdae2fd8ceac6b6234c7706214fd39c1cd1e609a0528c1993005c09ca1b9b8127a4fd9f3c384aac59b661441e820e17733753ff5f2e86e1e000f0c57e16840df040f15088dc2f81fe391c3923bec73e23a9662efc9c229c6a00f0c57e16840df040f15088dc2f81fe391c3923bec73e23a9662efc9c229c6a00","linkReferences":{}},"methodIdentifiers":{"areValidators(address[])":"8f381dbe","codeState(bytes32)":"c13911e8","codesStates(bytes32[])":"82bdeaad","commitBatch((bytes32,uint48,bytes32,uint8,((address,bytes32,bool,address,uint128,bool,(bytes32,address,uint128)[],(bytes32,address,bytes,uint128,(bytes32,bytes4),bool)[])[],bytes32)[],(bytes32,bool)[],((uint256,bytes32),((address,uint256)[],uint256,address),uint48)[],((uint256,uint256),bytes,address[],uint256)[]),uint8,bytes[])":"b24fcac0","computeSettings()":"84d22a4f","createProgram(bytes32,bytes32,address)":"3683c4d2","createProgramWithAbiInterface(bytes32,bytes32,address,address)":"0c18d277","genesisBlockHash()":"28e24b3d","genesisTimestamp()":"cacf66ab","initialize(address,address,address,address,uint256,uint256,uint256,(uint256,uint256),bytes,address[])":"53f7fd48","isValidator(address)":"facd743b","latestCommittedBatchHash()":"71a8cf2d","latestCommittedBatchTimestamp()":"d456fd51","lookupGenesisHash()":"8b1edf1e","middleware()":"f4f20ac0","mirrorImpl()":"e6fabc09","owner()":"8da5cb5b","programCodeId(address)":"9067088e","programsCodeIds(address[])":"baaf0201","programsCount()":"96a2ddfa","reinitialize()":"6c2eb350","renounceOwnership()":"715018a6","requestCodeValidation(bytes32)":"120e3f1e","setMirror(address)":"3d43b418","signingThresholdFraction()":"e3a6684f","storageView()":"c2eb812f","timelines()":"9eb939a8","transferOwnership(address)":"f2fde38b","validatedCodesCount()":"007a32e7","validators()":"ca1e7819","validatorsAggregatedPublicKey()":"3bd109fa","validatorsCount()":"ed612f8c","validatorsThreshold()":"edc87225","validatorsVerifiableSecretSharingCommitment()":"a5d53a44","wrappedVara()":"88f50cf0"},"storageLayout":{"storage":[],"types":{}},"id":157}