{"abi":[{"type":"constructor","inputs":[],"stateMutability":"nonpayable"},{"type":"receive","stateMutability":"payable"},{"type":"function","name":"areValidators","inputs":[{"name":"_validators","type":"address[]","internalType":"address[]"}],"outputs":[{"name":"","type":"bool","internalType":"bool"}],"stateMutability":"view"},{"type":"function","name":"codeState","inputs":[{"name":"_codeId","type":"bytes32","internalType":"bytes32"}],"outputs":[{"name":"","type":"uint8","internalType":"enum Gear.CodeState"}],"stateMutability":"view"},{"type":"function","name":"codesStates","inputs":[{"name":"_codesIds","type":"bytes32[]","internalType":"bytes32[]"}],"outputs":[{"name":"","type":"uint8[]","internalType":"enum Gear.CodeState[]"}],"stateMutability":"view"},{"type":"function","name":"commitBatch","inputs":[{"name":"_batch","type":"tuple","internalType":"struct Gear.BatchCommitment","components":[{"name":"blockHash","type":"bytes32","internalType":"bytes32"},{"name":"blockTimestamp","type":"uint48","internalType":"uint48"},{"name":"previousCommittedBatchHash","type":"bytes32","internalType":"bytes32"},{"name":"expiry","type":"uint8","internalType":"uint8"},{"name":"chainCommitment","type":"tuple[]","internalType":"struct Gear.ChainCommitment[]","components":[{"name":"transitions","type":"tuple[]","internalType":"struct Gear.StateTransition[]","components":[{"name":"actorId","type":"address","internalType":"address"},{"name":"newStateHash","type":"bytes32","internalType":"bytes32"},{"name":"exited","type":"bool","internalType":"bool"},{"name":"inheritor","type":"address","internalType":"address"},{"name":"valueToReceive","type":"uint128","internalType":"uint128"},{"name":"valueToReceiveNegativeSign","type":"bool","internalType":"bool"},{"name":"valueClaims","type":"tuple[]","internalType":"struct Gear.ValueClaim[]","components":[{"name":"messageId","type":"bytes32","internalType":"bytes32"},{"name":"destination","type":"address","internalType":"address"},{"name":"value","type":"uint128","internalType":"uint128"}]},{"name":"messages","type":"tuple[]","internalType":"struct Gear.Message[]","components":[{"name":"id","type":"bytes32","internalType":"bytes32"},{"name":"destination","type":"address","internalType":"address"},{"name":"payload","type":"bytes","internalType":"bytes"},{"name":"value","type":"uint128","internalType":"uint128"},{"name":"replyDetails","type":"tuple","internalType":"struct Gear.ReplyDetails","components":[{"name":"to","type":"bytes32","internalType":"bytes32"},{"name":"code","type":"bytes4","internalType":"bytes4"}]},{"name":"call","type":"bool","internalType":"bool"}]}]},{"name":"head","type":"bytes32","internalType":"bytes32"}]},{"name":"codeCommitments","type":"tuple[]","internalType":"struct Gear.CodeCommitment[]","components":[{"name":"id","type":"bytes32","internalType":"bytes32"},{"name":"valid","type":"bool","internalType":"bool"}]},{"name":"rewardsCommitment","type":"tuple[]","internalType":"struct Gear.RewardsCommitment[]","components":[{"name":"operators","type":"tuple","internalType":"struct Gear.OperatorRewardsCommitment","components":[{"name":"amount","type":"uint256","internalType":"uint256"},{"name":"root","type":"bytes32","internalType":"bytes32"}]},{"name":"stakers","type":"tuple","internalType":"struct Gear.StakerRewardsCommitment","components":[{"name":"distribution","type":"tuple[]","internalType":"struct Gear.StakerRewards[]","components":[{"name":"vault","type":"address","internalType":"address"},{"name":"amount","type":"uint256","internalType":"uint256"}]},{"name":"totalAmount","type":"uint256","internalType":"uint256"},{"name":"token","type":"address","internalType":"address"}]},{"name":"timestamp","type":"uint48","internalType":"uint48"}]},{"name":"validatorsCommitment","type":"tuple[]","internalType":"struct Gear.ValidatorsCommitment[]","components":[{"name":"aggregatedPublicKey","type":"tuple","internalType":"struct Gear.AggregatedPublicKey","components":[{"name":"x","type":"uint256","internalType":"uint256"},{"name":"y","type":"uint256","internalType":"uint256"}]},{"name":"verifiableSecretSharingCommitment","type":"bytes","internalType":"bytes"},{"name":"validators","type":"address[]","internalType":"address[]"},{"name":"eraIndex","type":"uint256","internalType":"uint256"}]}]},{"name":"_signatureType","type":"uint8","internalType":"enum Gear.SignatureType"},{"name":"_signatures","type":"bytes[]","internalType":"bytes[]"}],"outputs":[],"stateMutability":"nonpayable"},{"type":"function","name":"computeSettings","inputs":[],"outputs":[{"name":"","type":"tuple","internalType":"struct Gear.ComputationSettings","components":[{"name":"threshold","type":"uint64","internalType":"uint64"},{"name":"wvaraPerSecond","type":"uint128","internalType":"uint128"}]}],"stateMutability":"view"},{"type":"function","name":"createProgram","inputs":[{"name":"_codeId","type":"bytes32","internalType":"bytes32"},{"name":"_salt","type":"bytes32","internalType":"bytes32"},{"name":"_overrideInitializer","type":"address","internalType":"address"}],"outputs":[{"name":"","type":"address","internalType":"address"}],"stateMutability":"nonpayable"},{"type":"function","name":"createProgramWithAbiInterface","inputs":[{"name":"_codeId","type":"bytes32","internalType":"bytes32"},{"name":"_salt","type":"bytes32","internalType":"bytes32"},{"name":"_overrideInitializer","type":"address","internalType":"address"},{"name":"_abiInterface","type":"address","internalType":"address"}],"outputs":[{"name":"","type":"address","internalType":"address"}],"stateMutability":"nonpayable"},{"type":"function","name":"genesisBlockHash","inputs":[],"outputs":[{"name":"","type":"bytes32","internalType":"bytes32"}],"stateMutability":"view"},{"type":"function","name":"genesisTimestamp","inputs":[],"outputs":[{"name":"","type":"uint48","internalType":"uint48"}],"stateMutability":"view"},{"type":"function","name":"initialize","inputs":[{"name":"_owner","type":"address","internalType":"address"},{"name":"_mirror","type":"address","internalType":"address"},{"name":"_wrappedVara","type":"address","internalType":"address"},{"name":"_middleware","type":"address","internalType":"address"},{"name":"_eraDuration","type":"uint256","internalType":"uint256"},{"name":"_electionDuration","type":"uint256","internalType":"uint256"},{"name":"_validationDelay","type":"uint256","internalType":"uint256"},{"name":"_aggregatedPublicKey","type":"tuple","internalType":"struct Gear.AggregatedPublicKey","components":[{"name":"x","type":"uint256","internalType":"uint256"},{"name":"y","type":"uint256","internalType":"uint256"}]},{"name":"_verifiableSecretSharingCommitment","type":"bytes","internalType":"bytes"},{"name":"_validators","type":"address[]","internalType":"address[]"}],"outputs":[],"stateMutability":"nonpayable"},{"type":"function","name":"isValidator","inputs":[{"name":"_validator","type":"address","internalType":"address"}],"outputs":[{"name":"","type":"bool","internalType":"bool"}],"stateMutability":"view"},{"type":"function","name":"latestCommittedBatchHash","inputs":[],"outputs":[{"name":"","type":"bytes32","internalType":"bytes32"}],"stateMutability":"view"},{"type":"function","name":"latestCommittedBatchTimestamp","inputs":[],"outputs":[{"name":"","type":"uint48","internalType":"uint48"}],"stateMutability":"view"},{"type":"function","name":"lookupGenesisHash","inputs":[],"outputs":[],"stateMutability":"nonpayable"},{"type":"function","name":"middleware","inputs":[],"outputs":[{"name":"","type":"address","internalType":"address"}],"stateMutability":"view"},{"type":"function","name":"mirrorImpl","inputs":[],"outputs":[{"name":"","type":"address","internalType":"address"}],"stateMutability":"view"},{"type":"function","name":"owner","inputs":[],"outputs":[{"name":"","type":"address","internalType":"address"}],"stateMutability":"view"},{"type":"function","name":"programCodeId","inputs":[{"name":"_programId","type":"address","internalType":"address"}],"outputs":[{"name":"","type":"bytes32","internalType":"bytes32"}],"stateMutability":"view"},{"type":"function","name":"programsCodeIds","inputs":[{"name":"_programsIds","type":"address[]","internalType":"address[]"}],"outputs":[{"name":"","type":"bytes32[]","internalType":"bytes32[]"}],"stateMutability":"view"},{"type":"function","name":"programsCount","inputs":[],"outputs":[{"name":"","type":"uint256","internalType":"uint256"}],"stateMutability":"view"},{"type":"function","name":"reinitialize","inputs":[],"outputs":[],"stateMutability":"nonpayable"},{"type":"function","name":"renounceOwnership","inputs":[],"outputs":[],"stateMutability":"nonpayable"},{"type":"function","name":"requestCodeValidation","inputs":[{"name":"_codeId","type":"bytes32","internalType":"bytes32"}],"outputs":[],"stateMutability":"nonpayable"},{"type":"function","name":"setMirror","inputs":[{"name":"newMirror","type":"address","internalType":"address"}],"outputs":[],"stateMutability":"nonpayable"},{"type":"function","name":"signingThresholdFraction","inputs":[],"outputs":[{"name":"","type":"uint128","internalType":"uint128"},{"name":"","type":"uint128","internalType":"uint128"}],"stateMutability":"view"},{"type":"function","name":"storageView","inputs":[],"outputs":[{"name":"","type":"tuple","internalType":"struct Router.StorageView","components":[{"name":"genesisBlock","type":"tuple","internalType":"struct Gear.GenesisBlockInfo","components":[{"name":"hash","type":"bytes32","internalType":"bytes32"},{"name":"number","type":"uint32","internalType":"uint32"},{"name":"timestamp","type":"uint48","internalType":"uint48"}]},{"name":"latestCommittedBatch","type":"tuple","internalType":"struct Gear.CommittedBatchInfo","components":[{"name":"hash","type":"bytes32","internalType":"bytes32"},{"name":"timestamp","type":"uint48","internalType":"uint48"}]},{"name":"implAddresses","type":"tuple","internalType":"struct Gear.AddressBook","components":[{"name":"mirror","type":"address","internalType":"address"},{"name":"wrappedVara","type":"address","internalType":"address"},{"name":"middleware","type":"address","internalType":"address"}]},{"name":"validationSettings","type":"tuple","internalType":"struct Gear.ValidationSettingsView","components":[{"name":"thresholdNumerator","type":"uint128","internalType":"uint128"},{"name":"thresholdDenominator","type":"uint128","internalType":"uint128"},{"name":"validators0","type":"tuple","internalType":"struct Gear.ValidatorsView","components":[{"name":"aggregatedPublicKey","type":"tuple","internalType":"struct Gear.AggregatedPublicKey","components":[{"name":"x","type":"uint256","internalType":"uint256"},{"name":"y","type":"uint256","internalType":"uint256"}]},{"name":"verifiableSecretSharingCommitmentPointer","type":"address","internalType":"address"},{"name":"list","type":"address[]","internalType":"address[]"},{"name":"useFromTimestamp","type":"uint256","internalType":"uint256"}]},{"name":"validators1","type":"tuple","internalType":"struct Gear.ValidatorsView","components":[{"name":"aggregatedPublicKey","type":"tuple","internalType":"struct Gear.AggregatedPublicKey","components":[{"name":"x","type":"uint256","internalType":"uint256"},{"name":"y","type":"uint256","internalType":"uint256"}]},{"name":"verifiableSecretSharingCommitmentPointer","type":"address","internalType":"address"},{"name":"list","type":"address[]","internalType":"address[]"},{"name":"useFromTimestamp","type":"uint256","internalType":"uint256"}]}]},{"name":"computeSettings","type":"tuple","internalType":"struct Gear.ComputationSettings","components":[{"name":"threshold","type":"uint64","internalType":"uint64"},{"name":"wvaraPerSecond","type":"uint128","internalType":"uint128"}]},{"name":"timelines","type":"tuple","internalType":"struct Gear.Timelines","components":[{"name":"era","type":"uint256","internalType":"uint256"},{"name":"election","type":"uint256","internalType":"uint256"},{"name":"validationDelay","type":"uint256","internalType":"uint256"}]},{"name":"programsCount","type":"uint256","internalType":"uint256"},{"name":"validatedCodesCount","type":"uint256","internalType":"uint256"}]}],"stateMutability":"view"},{"type":"function","name":"timelines","inputs":[],"outputs":[{"name":"","type":"tuple","internalType":"struct Gear.Timelines","components":[{"name":"era","type":"uint256","internalType":"uint256"},{"name":"election","type":"uint256","internalType":"uint256"},{"name":"validationDelay","type":"uint256","internalType":"uint256"}]}],"stateMutability":"view"},{"type":"function","name":"transferOwnership","inputs":[{"name":"newOwner","type":"address","internalType":"address"}],"outputs":[],"stateMutability":"nonpayable"},{"type":"function","name":"validatedCodesCount","inputs":[],"outputs":[{"name":"","type":"uint256","internalType":"uint256"}],"stateMutability":"view"},{"type":"function","name":"validators","inputs":[],"outputs":[{"name":"","type":"address[]","internalType":"address[]"}],"stateMutability":"view"},{"type":"function","name":"validatorsAggregatedPublicKey","inputs":[],"outputs":[{"name":"","type":"tuple","internalType":"struct Gear.AggregatedPublicKey","components":[{"name":"x","type":"uint256","internalType":"uint256"},{"name":"y","type":"uint256","internalType":"uint256"}]}],"stateMutability":"view"},{"type":"function","name":"validatorsCount","inputs":[],"outputs":[{"name":"","type":"uint256","internalType":"uint256"}],"stateMutability":"view"},{"type":"function","name":"validatorsThreshold","inputs":[],"outputs":[{"name":"","type":"uint256","internalType":"uint256"}],"stateMutability":"view"},{"type":"function","name":"validatorsVerifiableSecretSharingCommitment","inputs":[],"outputs":[{"name":"","type":"bytes","internalType":"bytes"}],"stateMutability":"view"},{"type":"function","name":"validatorsVssCommitmentHash","inputs":[],"outputs":[{"name":"","type":"bytes32","internalType":"bytes32"}],"stateMutability":"view"},{"type":"function","name":"wrappedVara","inputs":[],"outputs":[{"name":"","type":"address","internalType":"address"}],"stateMutability":"view"},{"type":"event","name":"AnnouncesCommitted","inputs":[{"name":"head","type":"bytes32","indexed":false,"internalType":"bytes32"}],"anonymous":false},{"type":"event","name":"BatchCommitted","inputs":[{"name":"hash","type":"bytes32","indexed":false,"internalType":"bytes32"}],"anonymous":false},{"type":"event","name":"CodeGotValidated","inputs":[{"name":"codeId","type":"bytes32","indexed":false,"internalType":"bytes32"},{"name":"valid","type":"bool","indexed":true,"internalType":"bool"}],"anonymous":false},{"type":"event","name":"CodeValidationRequested","inputs":[{"name":"codeId","type":"bytes32","indexed":false,"internalType":"bytes32"}],"anonymous":false},{"type":"event","name":"ComputationSettingsChanged","inputs":[{"name":"threshold","type":"uint64","indexed":false,"internalType":"uint64"},{"name":"wvaraPerSecond","type":"uint128","indexed":false,"internalType":"uint128"}],"anonymous":false},{"type":"event","name":"Initialized","inputs":[{"name":"version","type":"uint64","indexed":false,"internalType":"uint64"}],"anonymous":false},{"type":"event","name":"OwnershipTransferred","inputs":[{"name":"previousOwner","type":"address","indexed":true,"internalType":"address"},{"name":"newOwner","type":"address","indexed":true,"internalType":"address"}],"anonymous":false},{"type":"event","name":"ProgramCreated","inputs":[{"name":"actorId","type":"address","indexed":false,"internalType":"address"},{"name":"codeId","type":"bytes32","indexed":true,"internalType":"bytes32"}],"anonymous":false},{"type":"event","name":"StorageSlotChanged","inputs":[],"anonymous":false},{"type":"event","name":"ValidatorsCommittedForEra","inputs":[{"name":"eraIndex","type":"uint256","indexed":false,"internalType":"uint256"}],"anonymous":false},{"type":"error","name":"ECDSAInvalidSignature","inputs":[]},{"type":"error","name":"ECDSAInvalidSignatureLength","inputs":[{"name":"length","type":"uint256","internalType":"uint256"}]},{"type":"error","name":"ECDSAInvalidSignatureS","inputs":[{"name":"s","type":"bytes32","internalType":"bytes32"}]},{"type":"error","name":"InvalidInitialization","inputs":[]},{"type":"error","name":"NotInitializing","inputs":[]},{"type":"error","name":"OwnableInvalidOwner","inputs":[{"name":"owner","type":"address","internalType":"address"}]},{"type":"error","name":"OwnableUnauthorizedAccount","inputs":[{"name":"account","type":"address","internalType":"address"}]},{"type":"error","name":"ReentrancyGuardReentrantCall","inputs":[]}],"bytecode":{"object":"0x6080806040523460aa575f516020614abe5f395f51905f525460ff8160401c16609b576002600160401b03196001600160401b038216016049575b604051614a0f90816100af8239f35b6001600160401b0319166001600160401b039081175f516020614abe5f395f51905f525581527fc7f505b2f371ae2175ee4913f4499e1f2633a7b5936321eed1cdaeb6115181d290602090a15f80603a565b63f92ee8a960e01b5f5260045ffd5b5f80fdfe608080604052600436101561010a575b50361561001a575f80fd5b5f5160206149cf5f395f51905f525461003860018201541515612996565b6001600160801b033416156100ba57335f908152601a9190910160205260409020541561006157005b60405162461bcd60e51b815260206004820152602b60248201527f636f756c646e277420726563656976652045746865722066726f6d20756e6b6e60448201526a6f776e2070726f6772616d60a81b6064820152608490fd5b60405162461bcd60e51b815260206004820152602260248201527f7a65726f2076616c7565207472616e73666572206973206e6f7420616c6c6f77604482015261195960f21b6064820152608490fd5b5f905f3560e01c9081627a32e7146127b4575080630c18d277146122bc578063120e3f1e1461213057806328e24b3d146121025780633683c4d214611e755780633b49d01114611e2e5780633bd109fa14611ddf5780633d43b41814611d8b57806353f7fd48146117fc5780636c2eb35014611492578063715018a61461142957806371a8cf2d146113fb57806382bdeaad146112e357806384d22a4f1461128557806388f50cf01461124c5780638b1edf1e146111815780638da5cb5b1461114c5780638f381dbe146111065780639067088e146110bd57806396a2ddfa1461108f5780639eb939a814611038578063a5d53a4414610fca578063b24fcac014610991578063baaf020114610890578063c13911e81461084c578063c2eb812f14610520578063ca1e7819146104d0578063cacf66ab14610498578063d456fd5114610462578063e3a6684f14610423578063e6fabc09146103ea578063ed612f8c146103b2578063edc872251461035d578063f2fde38b14610330578063f4f20ac0146102f75763facd743b0361000f57346102f45760203660031901126102f4576102b661280a565b60036102d15f5160206149cf5f395f51905f525442906144bf565b019060018060a01b03165f52602052602060ff60405f2054166040519015158152f35b80fd5b50346102f457806003193601126102f4575f5160206149cf5f395f51905f5254600701546040516001600160a01b039091168152602090f35b50346102f45760203660031901126102f45761035a61034d61280a565b610355612e0e565b612d60565b80f35b50346102f457806003193601126102f45760206103aa5f5160206149cf5f395f51905f52546008600461039042846144bf565b0154910154906001600160801b038260801c921690614494565b604051908152f35b50346102f457806003193601126102f457602060046103e05f5160206149cf5f395f51905f525442906144bf565b0154604051908152f35b50346102f457806003193601126102f4575f5160206149cf5f395f51905f5254600501546040516001600160a01b039091168152602090f35b50346102f457806003193601126102f457604060085f5160206149cf5f395f51905f525401548151906001600160801b038116825260801c6020820152f35b50346102f457806003193601126102f457602065ffffffffffff60045f5160206149cf5f395f51905f5254015416604051908152f35b50346102f457806003193601126102f457602065ffffffffffff60025f5160206149cf5f395f51905f52540154821c16604051908152f35b50346102f457806003193601126102f45761051c61050860046105025f5160206149cf5f395f51905f525442906144bf565b01612b55565b604051918291602083526020830190612871565b0390f35b50346102f457806003193601126102f45760405161053d8161293e565b610545612c8e565b815260405161055381612923565b5f8152602081015f9052602082015261056a612c8e565b6040820152610577612d2d565b606082015260405161058881612923565b5f8082526020820152608082015261059e612c8e565b60a08201528160c082015260e001525f5160206149cf5f395f51905f52546105c4612d2d565b506105d160098201614731565b906105de600f8201614731565b600882015492604051936105f18561295a565b6001600160801b038116855260801c602085015260408401526060830152601b81015490601c810154604051926106278461293e565b604051610633816128f4565b60018401548152600284015463ffffffff8116602083015260201c65ffffffffffff16604082015284526040519461066a86612923565b60038401548652600484015465ffffffffffff1660208701526020850195865260405190610697826128f4565b60058501546001600160a01b0390811683526006860154811660208401526007860154166040808401919091528601918252606086019081526106dc60158601612be0565b94608087019586526016016106f090612cac565b9160a0870192835260c0870193845260e087019485526040519788976020895251805160208a0152602081015163ffffffff1660408a01526040015165ffffffffffff16606089015251805160808901526020015165ffffffffffff1660a088015251600160a01b6001900381511660c0880152600160a01b6001900360208201511660e0880152600160a01b60019003906040015116610100870152516101208601610200905280516001600160801b031661022087015260208101516001600160801b031661024087015260408101516102608701608090526102a087016107d9916128ad565b90606001519061021f19878203016102808801526107f6916128ad565b935180516001600160401b0316610140870152602001516001600160801b031661016086015251805161018086015260208101516101a0860152604001516101c0850152516101e0840152516102008301520390f35b50346102f45760203660031901126102f45760ff604060209260195f5160206149cf5f395f51905f5254016004358252845220541661088e6040518092612864565bf35b50346102f45760203660031901126102f4576004356001600160401b03811161098d576108c1903690600401612834565b905f5160206149cf5f395f51905f5254906108db83612aea565b916108e96040519384612975565b8383526108f584612aea565b602084019490601f1901368637601a869201915b81811061095457868587604051928392602084019060208552518091526040840192915b81811061093b575050500390f35b825184528594506020938401939092019160010161092d565b8061096a6109656001938588612ba8565b612c0e565b828060a01b03165f528360205260405f20546109868288612bcc565b5201610909565b5080fd5b50346102f45760603660031901126102f4576004356001600160401b03811161098d57806004019161010060031983360301126102f457600260243510156102f4576044356001600160401b03811161098d576109f2903690600401612834565b9390917f9b779b17422d0df92223018b32b4d1fa46e071723d6817e2486d003becc55f005c610fbb5760017f9b779b17422d0df92223018b32b4d1fa46e071723d6817e2486d003becc55f005d5f5160206149cf5f395f51905f525491610a5e60018401541515612996565b825415610ee1575b60038301908154916044870135809303610e8e57600485019765ffffffffffff89541696602489019765ffffffffffff610a9f8a612ce2565b1610610e0e57610ab484889b96999a9b6131b2565b98606095879b8c9a60a482019860198c019c5b610ad18b8b613713565b9190501015610c99578e610ae58b8b613713565b90911015610c85578f60ff8f926040908f9360061b01928335948582526020522054166003811015610c7157600103610c0e5760408f918f928f936020830194610b2e86613748565b15610bf657601c928782526020528481209050600260ff1982541617905501610b578154612dd1565b90555b610b6383613748565b15157f460119a8f69a33ed127de517d5ea464e958ce23ef19e4420a8b92bf780bbc2c960208451878152a2360312610bf25791610be9916020600194610bb760405191610baf83612923565b848352613755565b91829101526040519060208201928352151560f81b604082015260218152610be0604182612975565b51902090613762565b9e019d8e610ac7565b8c80fd5b905083918682526020522060ff198154169055610b5a565b60405162461bcd60e51b815260206004820152603560248201527f636f6465206d7573742062652072657175657374656420666f722076616c6964604482015274185d1a5bdb881d1bc818994818dbdb5b5a5d1d1959605a1b6064820152608490fd5b634e487b7160e01b8e52602160045260248efd5b634e487b7160e01b8c52603260045260248cfd5b8a9950926020610d9e998f948e9794610d939665ffffffffffff98858151910120610cc4858c6137b1565b91610ccf868d613cc4565b93610ce56064610cde8c612ce2565b9701612cd4565b9060405196898801983589528d60d01b9060d01b166040880152604687015260ff60f81b9060f81b1660668601526067850152608784015260a783015260c782015260c78152610d3660e782612975565b5190208099610d4485612ce2565b8760405191610d5283612923565b8483521693849101525584198254161790557f7ebe42360bcb182fe0a88148b081e4557c89d09aa6af8307635ac2f83e2aaa656020604051898152a1612ce2565b1693602435916140ea565b15610dc957807f9b779b17422d0df92223018b32b4d1fa46e071723d6817e2486d003becc55f005d80f35b60405162461bcd60e51b815260206004820152601e60248201527f7369676e61747572657320766572696669636174696f6e206661696c656400006044820152606490fd5b60405162461bcd60e51b815260206004820152604c60248201527f62617463682074696d657374616d70206d75737420626520677265617465722060448201527f6f7220657175616c20746f206c617465737420636f6d6d69747465642062617460648201526b063682074696d657374616d760a41b608482015260a490fd5b60405162461bcd60e51b815260206004820152602560248201527f696e76616c69642070726576696f757320636f6d6d6974746564206261746368604482015264040d0c2e6d60db1b6064820152608490fd5b610ef7610ef060648701612cd4565b823561311d565b15610f675765ffffffffffff610f0f60248701612ce2565b164211610a665760405162461bcd60e51b815260206004820152602360248201527f62617463682074696d657374616d70206d75737420626520696e207468652070604482015262185cdd60ea1b6064820152608490fd5b60405162461bcd60e51b815260206004820152602660248201527f616c6c6f776564207072656465636573736f7220626c6f636b207761736e277460448201526508199bdd5b9960d21b6064820152608490fd5b633ee5aeb560e01b8152600490fd5b50346102f457806003193601126102f457604061100b5f5160206149cf5f395f51905f5254600261100360018060a01b039242906144bf565b015416612ddf565b6020825193849282845280519283918282870152018585015e828201840152601f01601f19168101030190f35b50346102f457806003193601126102f457611051612c8e565b50606061106e60165f5160206149cf5f395f51905f525401612cac565b61088e60405180926040809180518452602081015160208501520151910152565b50346102f457806003193601126102f4576020601b5f5160206149cf5f395f51905f52540154604051908152f35b50346102f45760203660031901126102f4576110d761280a565b601a5f5160206149cf5f395f51905f5254019060018060a01b03165f52602052602060405f2054604051908152f35b50346102f45760203660031901126102f457600435906001600160401b0382116102f457602061114261113c3660048601612834565b90612c22565b6040519015158152f35b50346102f457806003193601126102f4575f5160206149af5f395f51905f52546040516001600160a01b039091168152602090f35b50346102f457806003193601126102f4575f5160206149cf5f395f51905f525460018101908154611207576002015463ffffffff16409081156111c2575580f35b60405162461bcd60e51b815260206004820152601d60248201527f756e61626c6520746f206c6f6f6b75702067656e6573697320686173680000006044820152606490fd5b60405162461bcd60e51b815260206004820152601860248201527f67656e65736973206861736820616c72656164792073657400000000000000006044820152606490fd5b50346102f457806003193601126102f4575f5160206149cf5f395f51905f5254600601546040516001600160a01b039091168152602090f35b50346102f457806003193601126102f45761129e612a08565b5060406112bb60155f5160206149cf5f395f51905f525401612be0565b61088e825180926001600160801b03602080926001600160401b038151168552015116910152565b50346102f45760203660031901126102f4576004356001600160401b03811161098d57611314903690600401612834565b905f5160206149cf5f395f51905f52549061132e83612aea565b9161133c6040519384612975565b83835261134884612aea565b602084019490601f19013686376019869201915b8181106113b157868587604051928392602084019060208552518091526040840192915b81811061138e575050500390f35b91935091602080826113a36001948851612864565b019401910191849392611380565b6113bc818386612ba8565b3587528260205260ff6040882054166113d58287612bcc565b60038210156113e7575260010161135c565b634e487b7160e01b89526021600452602489fd5b50346102f457806003193601126102f457602060035f5160206149cf5f395f51905f52540154604051908152f35b50346102f457806003193601126102f457611442612e0e565b5f5160206149af5f395f51905f5280546001600160a01b0319811690915581906001600160a01b03167f8be0079c531659141344cd1fd0a4f28419497f9722a3daafe3b4186f6b6457e08280a380f35b50346102f457806003193601126102f4575f5160206149ef5f395f51905f525460ff8160401c169081156117e7575b506117d8575f5160206149ef5f395f51905f52805468ffffffffffffffffff1916680100000000000000021790555f5160206149af5f395f51905f525461151b906001600160a01b03166115136144db565b6103556144db565b5f5160206149cf5f395f51905f525460409081516115398382612975565b6017815260208101907f726f757465722e73746f726167652e526f757465725632000000000000000000825261156d612e0e565b5190205f1981019081116117c457916020917fc7f505b2f371ae2175ee4913f4499e1f2633a7b5936321eed1cdaeb6115181d2938251908482019081528482526115b78483612975565b60ff19915190201690815f5160206149cf5f395f51905f52556115d8612e41565b80516001840155600283019063ffffffff868201511669ffffffffffff00000000868454930151881b169169ffffffffffffffffffff191617179055600581016005830190808203611776575b5050600881016001600160801b038154169060088401916001600160801b0319835416178255546001600160801b0382549181191691161790556116ae61166c42836144bf565b6116836001600160a01b03600261100342876144bf565b611699600461169242876144bf565b0192612a20565b906116a44293612b55565b9160098701612e89565b601581016015830190808203611724575b5050601681016016830191818303611704575b5050505060ff60401b195f5160206149ef5f395f51905f5254165f5160206149ef5f395f51905f52555160028152a180f35b60189283925490556017810154601785015501549101555f8080806116d2565b806001600160401b03806001600160801b03935416166001600160401b031984541617835554851c16600160401b600160c01b03825491861b1690600160401b600160c01b0319161790555f806116bf565b5481546001600160a01b03199081166001600160a01b039283161790925560068381015490850180548416918316919091179055600780840154908501805490931691161790555f80611625565b634e487b7160e01b84526011600452602484fd5b63f92ee8a960e01b8152600490fd5b600291506001600160401b031610155f6114c1565b50346102f4576101603660031901126102f45761181761280a565b6024356001600160a01b0381169190829003611d87576118356127de565b61183d6127f4565b60c435916084359160a43560403660e3190112611d835761012435946001600160401b038611611d7f5736602387011215611d7f578560040135916001600160401b038311611d7b573660248489010111611d7b57610144356001600160401b038111611d77576118b2903690600401612834565b9690945f5160206149ef5f395f51905f5254996001600160401b0360ff8c60401c16159b1680159081611d6f575b6001149081611d65575b159081611d5c575b50611d4d57611934908b60016001600160401b03195f5160206149ef5f395f51905f525416175f5160206149ef5f395f51905f5255611d1d575b6115136144db565b61193c6144db565b4215611cc7578215611c715782821115611c1057600a61195c8484612a3e565b04841015611bcb5760409a8b516119738d82612975565b6017815260208101907f726f757465722e73746f726167652e526f75746572563100000000000000000082526119a7612e0e565b5190205f198101908111611bb7578c51602080820192835281528d9392916119cf8583612975565b60ff19915190201698895f5160206149cf5f395f51905f52556119f0612e41565b805160018c015560028b0190602081015163ffffffff1686835492015160201b69ffffffffffff00000000169169ffffffffffffffffffff191617179055835190611a3a826128f4565b8282526001600160a01b03908116602083018190529381169490910184905260058a018054919092166001600160a01b031991821617909155600689018054821690921790915560078801805490911690911790557003000000000000000000000000000000026008870155611aae612a08565b508951611aba81612923565b639502f90081526509184e72a0006020909101526015860180546001600160c01b0319166d09184e72a000000000009502f900179055895183908b90611aff816128f4565b8381528460208201520152601686015560178501556018840155865194611b2586612923565b60e4358652610104356020870152611b41913691602401612aa5565b9042933690611b4f92612b01565b9160090193611b5d94612e89565b611b65575080f35b60207fc7f505b2f371ae2175ee4913f4499e1f2633a7b5936321eed1cdaeb6115181d29160ff60401b195f5160206149ef5f395f51905f5254165f5160206149ef5f395f51905f52555160018152a180f35b634e487b7160e01b8e52601160045260248efd5b60405162461bcd60e51b815260206004820152601b60248201527f76616c69646174696f6e2064656c617920697320746f6f2062696700000000006044820152606490fd5b60405162461bcd60e51b815260206004820152603360248201527f657261206475726174696f6e206d757374206265206772656174657220746861604482015272371032b632b1ba34b7b710323ab930ba34b7b760691b6064820152608490fd5b60405162461bcd60e51b815260206004820152602860248201527f656c656374696f6e206475726174696f6e206d75737420626520677265617465604482015267072207468616e20360c41b6064820152608490fd5b60405162461bcd60e51b815260206004820152602860248201527f63757272656e742074696d657374616d70206d75737420626520677265617465604482015267072207468616e20360c41b6064820152608490fd5b600160401b60ff60401b195f5160206149ef5f395f51905f525416175f5160206149ef5f395f51905f525561192c565b63f92ee8a960e01b8d5260048dfd5b9050155f6118f2565b303b1591506118ea565b8c91506118e0565b8a80fd5b8980fd5b8880fd5b8780fd5b8280fd5b50346102f45760203660031901126102f457611da561280a565b611dad612e0e565b5f5160206149cf5f395f51905f525460050180546001600160a01b0319166001600160a01b0390921691909117905580f35b50346102f457806003193601126102f457611df8612a08565b506040611e1c611e175f5160206149cf5f395f51905f525442906144bf565b612a20565b60208251918051835201516020820152f35b50346102f457806003193601126102f4576020611e675f5160206149cf5f395f51905f5254600261100360018060a01b039242906144bf565b818151910120604051908152f35b50346102f45760603660031901126102f457600435611e926127de565b5f5160206149cf5f395f51905f5254611eb060018201541515612996565b8284526019810160205260ff60408520541660038110156120ee57600203612092576040516020810190848252602435604082015260408152611ef4606082612975565b51902060405160608101908082106001600160401b0383111761208e57605a916040527f3d605080600a3d3981f3608060405263e6fabc0960e01b5f5260205f6004817381523060601b6b5afa15604c575f80805136821760208201527f80378136915af43d5f803e156048573d5ff35b3d5ffd5b5f80fd000000000000604082015286f590811561208a576001600160a01b0382165f908152601a820160205260409020849055601b018054611faa90612dd1565b90556040516001600160a01b03821680825293907f8008ec1d8798725ebfa0f2d128d52e8e717dcba6e0f786557eeee70614b02bf190602090a2506001600160a01b0381166120855750335b5f5160206149cf5f395f51905f5254600501546001600160a01b0316823b1561208157604051631c9776b560e31b81526001600160a01b039092166004830152602482015260016044820152828160648183865af1801561207657612061575b602082604051908152f35b61206c838092612975565b61098d5781612056565b6040513d85823e3d90fd5b8380fd5b611ff6565b8480fd5b8680fd5b60405162461bcd60e51b815260206004820152602e60248201527f636f6465206d7573742062652076616c696461746564206265666f726520707260448201526d37b3b930b69031b932b0ba34b7b760911b6064820152608490fd5b634e487b7160e01b85526021600452602485fd5b50346102f457806003193601126102f457602060015f5160206149cf5f395f51905f52540154604051908152f35b50346102f45760203660031901126102f4576004358149156122405760195f5160206149cf5f395f51905f525461216c60018201541515612996565b018183528060205260ff604084205416600381101561222c576121cb5781835260209081526040808420805460ff19166001179055519182527f5c261a095dd5720475295dc06379921c003c22164ee6cae5cf83e76ce0a1b98591a180f35b60405162461bcd60e51b815260206004820152603360248201527f676976656e20636f646520696420697320616c7265616479206f6e2076616c6960448201527219185d1a5bdb881bdc881d985b1a59185d1959606a1b6064820152608490fd5b634e487b7160e01b84526021600452602484fd5b60405162461bcd60e51b815260206004820152604860248201527f626c6f622063616e277420626520666f756e642c20726f75746572206578706560448201527f63746564204549502d34383434207472616e73616374696f6e2077697468205760648201526720a9a690313637b160c11b608482015260a490fd5b34612796576080366003190112612796576004356122d86127de565b906122e16127f4565b915f5160206149cf5f395f51905f525461230060018201541515612996565b825f526019810160205260ff60405f20541660038110156127a057600203612092576040516020810190848252602435604082015260408152612344606082612975565b5190206040516102c08101908082106001600160401b03831117612796576102b0916040527f60808060405261029e90816100128239f3fe608060405260043610610254575f81527f3560e01c806336a52a18146100ab57806342129d00146100a65780635ce6c32760208201527f146100a1578063701da98e1461009c578063704ed542146100975780637a8e0c60408201527fdd1461009257806391d5a64c1461008d5780639ce110d714610088578063affe60608201527fd0e0146100835763e43f3433036102545761023f565b610222565b6101fa565b60808201527f6101e4565b6101b1565b610181565b610165565b610143565b610106565b346160a08201527ed4575f3660031901126100d45760025460081c6001600160a01b031660809060c08201527f8152602090f35b5f80fd5b9181601f840112156100d45782359167ffffffffff60e08201527fffffff83116100d457602083818601950101116100d457565b604036600319016101008201527f126100d45760043567ffffffffffffffff81116100d4576101329036906004016101208201527f6100d8565b505060243580151514610254575f80fd5b346100d4575f366003196101408201527f01126100d457602060ff600254166040519015158152f35b346100d4575f36606101608201527f031901126100d45760205f54604051908152f35b346100d457602036600319016101808201527f126100d4576004356fffffffffffffffffffffffffffffffff811614610254576101a08201527f5f80fd5b60403660031901126100d45760243567ffffffffffffffff811161006101c08201527fd4576101dd9036906004016100d8565b5050610254565b346100d457602036606101e08201527f0319011215610254575f80fd5b346100d4575f3660031901126100d4576003546102008201527f6040516001600160a01b039091168152602090f35b346100d4575f36600319016102208201527f126100d4576020600154604051908152f35b346100d4575f36600319011215616102408201523060601c7f0254575f80fd5b63e6fabc0960e01b5f5260205f60048173000000000000000017610260820152735afa156100d4575f808051368280378136915af43060a01b176102808201526f3d5f803e1561029a573d5ff35b3d5ffd60801b6102a08201525ff5908115612796576001600160a01b0382165f908152601a820160205260409020849055601b0180546126db90612dd1565b90556040516001600160a01b03821680825293907f8008ec1d8798725ebfa0f2d128d52e8e717dcba6e0f786557eeee70614b02bf190602090a2506001600160a01b03811661279a575033915b813b1561279657604051631c9776b560e31b81526001600160a01b039384166004820152921660248301525f604483018190528260648183855af191821561278b5760209261277b575b50604051908152f35b5f61278591612975565b5f612772565b6040513d5f823e3d90fd5b5f80fd5b91612728565b634e487b7160e01b5f52602160045260245ffd5b34612796575f36600319011261279657602090601c5f5160206149cf5f395f51905f525401548152f35b604435906001600160a01b038216820361279657565b606435906001600160a01b038216820361279657565b600435906001600160a01b038216820361279657565b35906001600160a01b038216820361279657565b9181601f84011215612796578235916001600160401b038311612796576020808501948460051b01011161279657565b9060038210156127a05752565b90602080835192838152019201905f5b81811061288e5750505090565b82516001600160a01b0316845260209384019390920191600101612881565b9060208251805183520151602082015260018060a01b036020830151166040820152608060606128eb604085015160a08386015260a0850190612871565b93015191015290565b606081019081106001600160401b0382111761290f57604052565b634e487b7160e01b5f52604160045260245ffd5b604081019081106001600160401b0382111761290f57604052565b61010081019081106001600160401b0382111761290f57604052565b608081019081106001600160401b0382111761290f57604052565b90601f801991011681019081106001600160401b0382111761290f57604052565b1561299d57565b60405162461bcd60e51b815260206004820152603860248201527f726f757465722067656e65736973206973207a65726f3b2063616c6c20606c6f60448201527f6f6b757047656e657369734861736828296020666972737400000000000000006064820152608490fd5b60405190612a1582612923565b5f6020838281520152565b90604051612a2d81612923565b602060018294805484520154910152565b91908203918211612a4b57565b634e487b7160e01b5f52601160045260245ffd5b8115612a69570490565b634e487b7160e01b5f52601260045260245ffd5b919082604091031261279657604051612a9581612923565b6020808294803584520135910152565b9291926001600160401b03821161290f5760405191612ace601f8201601f191660200184612975565b829481845281830111612796578281602093845f960137010152565b6001600160401b03811161290f5760051b60200190565b929190612b0d81612aea565b93612b1b6040519586612975565b602085838152019160051b810192831161279657905b828210612b3d57505050565b60208091612b4a84612820565b815201910190612b31565b90604051918281549182825260208201905f5260205f20925f5b818110612b86575050612b8492500383612975565b565b84546001600160a01b0316835260019485019487945060209093019201612b6f565b9190811015612bb85760051b0190565b634e487b7160e01b5f52603260045260245ffd5b8051821015612bb85760209160051b010190565b90604051612bed81612923565b91546001600160401b038116835260401c6001600160801b03166020830152565b356001600160a01b03811681036127965790565b612c3b5f5160206149cf5f395f51905f525442906144bf565b600301905f5b838110612c515750505050600190565b612c5f610965828685612ba8565b6001600160a01b03165f9081526020849052604090205460ff1615612c8657600101612c41565b505050505f90565b60405190612c9b826128f4565b5f6040838281528260208201520152565b90604051612cb9816128f4565b60406002829480548452600181015460208501520154910152565b3560ff811681036127965790565b3565ffffffffffff811681036127965790565b60405190612d028261295a565b5f606083604051612d1281612923565b83815283602082015281528260208201528160408201520152565b60405190612d3a8261295a565b815f81525f6020820152612d4c612cf5565b60408201526060612d5b612cf5565b910152565b6001600160a01b03168015612dbe575f5160206149af5f395f51905f5280546001600160a01b0319811683179091556001600160a01b03167f8be0079c531659141344cd1fd0a4f28419497f9722a3daafe3b4186f6b6457e05f80a3565b631e4fbdf760e01b5f525f60045260245ffd5b5f198114612a4b5760010190565b803b905f19820190828211612a4b5760019060405193603e601f19910116840160405282845260208401903c90565b5f5160206149af5f395f51905f52546001600160a01b03163303612e2e57565b63118cdaa760e01b5f523360045260245ffd5b612e49612c8e565b50604051612e56816128f4565b5f815263ffffffff4316602082015265ffffffffffff4216604082015290565b81810292918115918404141715612a4b57565b9291908051906020810191825170014551231950b75fc4402da1732fc9bebe198210918261310c575b5050156130b85751845551600184015560405190612ef56021836020808201945f86528051918291018484015e81015f838201520301601f198101845283612975565b612f32602b604051809360208201956a600b5981380380925939f360a81b87525180918484015e81015f838201520301601f198101835282612975565b51905ff06001600160a01b0381161561307f576002830180546001600160a01b0319166001600160a01b039092169190911790555f5b600483018054821015612fa6575f90815260208082208301546001600160a01b0316825260038501905260409020805460ff19169055600101612f68565b5050925f5b8451811015612fef576001906001600160a01b03612fc98288612bcc565b5116828060a01b03165f526003840160205260405f208260ff1982541617905501612fab565b5092600482018151916001600160401b03831161290f57600160401b831161290f578154838355808410613059575b50602001905f5260205f205f5b83811061303c575050505060050155565b82516001600160a01b03168183015560209092019160010161302b565b825f528360205f2091820191015b818110613074575061301e565b5f8155600101613067565b60405162461bcd60e51b81526020600482015260116024820152701111541313d65351539517d19052531151607a1b6044820152606490fd5b60405162461bcd60e51b815260206004820152602660248201527f46524f53542061676772656761746564207075626c6963206b657920697320696044820152651b9d985b1a5960d21b6064820152608490fd5b6131169250614909565b5f80612eb2565b435f1981019392908411612a4b5760ff1643811061316d57505f925b83811015613149575b505f925050565b804082810361315b5750600193505050565b15613168575f1901613139565b613142565b6131779043612a3e565b92613139565b903590601e198136030182121561279657018035906001600160401b03821161279657602001918160051b3603831361279657565b906080810160016131c3828461317d565b9050116136b1576131d4818361317d565b90501561368a576131e49161317d565b15612bb857803590603e1981360301821215612796570191613206838061317d565b92906060925f95601a60fe19843603019401945b86881015613627578760051b8401358581121561279657840161323c81612c0e565b6001600160a01b03165f90815260208890526040902054156135ca575f608082016001600160801b0361326e82614506565b161515806135b7575b6135a6575b6001600160a01b0361328d84612c0e565b604051630427a21d60e11b81526020600482015294911691610124850191906001600160801b039061330c906001600160a01b036132ca85612820565b166024890152602084013560448901526132e660408501613755565b151560648901526001600160a01b0361330160608601612820565b16608489015261451a565b1660a486015261331e60a08201613755565b151560c486015236819003601e190160c082013581811215612796578201602081359101936001600160401b03821161279657606082023603851361279657819061010060e48a015252610144870193905f905b80821061355c5750505060e0820135908112156127965701803560208201926001600160401b038211612796578160051b9081360385136127965791879594936023198785030161010488015281845260208085019385010194935f9160fe19813603015b84841061344f5750505050505050602093916001600160801b03848093039316905af190811561278b575f9161341d575b5061341590600192613762565b97019661321a565b90506020813d8211613447575b8161343760209383612975565b8101031261279657516001613408565b3d915061342a565b919395979850919395601f19848203018752873582811215612796578301602081013582526001600160a01b0361348860408301612820565b1660208301526060810135603e193683900301811215612796578101602081013591906040016001600160401b03831161279657823603811361279657829060e060408601528160e08601526101008501375f61010083850101526001600160801b036134f76080830161451a565b16606084015260a0810135608084015260c081013563ffffffff60e01b8116809103612796578360209361353960e086956101009560a060019a015201613755565b151560c0830152601f80199101160101990197019401918a9897969593916133d7565b90919460608060019288358152838060a01b0361357b60208b01612820565b1660208201526001600160801b0361359560408b0161451a565b166040820152019601920190613372565b90506135b181614506565b9061327c565b506135c460a08401613748565b15613277565b60405162461bcd60e51b815260206004820152602f60248201527f636f756c646e277420706572666f726d207472616e736974696f6e20666f722060448201526e756e6b6e6f776e2070726f6772616d60881b6064820152608490fd5b93509450945050602091508181519101209101357fd04cd9af813f6f0b56e9411a6ee6a84eb5ac35a96f0c33d2e3a07d65baa8f4186020604051838152a16040519060208201928352604082015260408152613684606082612975565b51902090565b5050507fc5d2460186f7233c927e7db2dcc703c0e500b653ca82273b7bfad8045d85a47090565b60405162461bcd60e51b815260206004820152603460248201527f636861696e436f6d6d69746d656e7420636f756c6420636f6e7461696e206174604482015273081b5bdcdd081bdb994818dbdb5b5a5d1b595b9d60621b6064820152608490fd5b903590601e198136030182121561279657018035906001600160401b03821161279657602001918160061b3603831361279657565b3580151581036127965790565b3590811515820361279657565b602080612b84928195946040519682889351918291018585015e8201908382015203018085520183612975565b903590605e1981360301821215612796570190565b91908201809211612a4b57565b60c0820160016137c1828561317d565b905011613c28576137d2818461317d565b90501561368a576137e3908361317d565b15612bb857803590607e19813603018212156127965701916060830190602061380b83612ce2565b91019065ffffffffffff8061381f84612ce2565b1691161015613bc95761383182612ce2565b65ffffffffffff80600286015460201c16911610613b6e5761387765ffffffffffff61387061386a8261386387612ce2565b168761452e565b93612ce2565b168461452e565b1115613b15576007820154600690920180548435946001600160a01b0394851694604082019391925f916020911660446138bd836138b5898961378f565b01358b6137a4565b604051948593849263095ea7b360e01b84528c600485015260248401525af1801561278b57613ade575b505460405163394f179b60e11b81526001600160a01b03909116600482015260248101959095526020818101356044870152856064815f885af194851561278b575f95613aa6575b509061393a9161378f565b9161394482612ce2565b9260405193637fbe95b560e01b85526040600486015260a48501918035601e1982360301811215612796578101602081359101936001600160401b038211612796578160061b360385136127965760606044890152819052869360c485019392915f5b818110613a6e57505050836020959365ffffffffffff829484895f96013560648601526139dd604060018060a01b039201612820565b16608485015216602483015203925af191821561278b575f92613a38575b50613a0590612ce2565b6040519160208301938452604083015265ffffffffffff60d01b9060d01b16606082015260468152613684606682612975565b9091506020813d602011613a66575b81613a5460209383612975565b81010312612796575190613a056139fb565b3d9150613a47565b919550919293604080600192838060a01b03613a898a612820565b1681526020890135602082015201960191019188959493926139a7565b919094506020823d602011613ad6575b81613ac360209383612975565b810103126127965790519361393a61392f565b3d9150613ab6565b6020813d602011613b0d575b81613af760209383612975565b81010312612796575180151581146138e7575f80fd5b3d9150613aea565b60405162461bcd60e51b815260206004820152602b60248201527f7265776172647320636f6d6d69746d656e74206d75737420746172676574207060448201526a726576696f75732065726160a81b6064820152608490fd5b60405162461bcd60e51b815260206004820152602d60248201527f7265776172647320636f6d6d69746d656e742074696d657374616d702070726560448201526c64617465732067656e6573697360981b6064820152608490fd5b60405162461bcd60e51b815260206004820152603160248201527f7265776172647320636f6d6d69746d656e742074696d657374616d70206d75736044820152701d08189948199bdc881d1a19481c185cdd607a1b6064820152608490fd5b608460405162461bcd60e51b815260206004820152604060248201527f7265776172647320636f6d6d69746d656e74206d75737420626520656d70747960448201527f206f7220636f6e7461696e73206f6e6c79206f6e6520636f6d6d69746d656e746064820152fd5b903590601e198136030182121561279657018035906001600160401b0382116127965760200191813603831361279657565b9060e081016001613cd5828461317d565b90501161407357613ce6818361317d565b90501561368a57613cf69161317d565b15612bb857803590609e19813603018212156127965701906060820190613d1d828461317d565b9050156140205765ffffffffffff600282015460201c1692613d3f8442612a3e565b613d4e60168401548092612a5f565b9460808301359560018101809111612a4b578603613fc857613d7386613d7993612e76565b906137a4565b91613d88601782015484612a3e565b4210613f8357613d9790614556565b914260058401541015613f2357613dec906040830193613dde613de6613dbd8787613c92565b9190613dc98a8961317d565b949091613dd6368b612a7d565b943691612aa5565b933691612b01565b92612e89565b7fa1a3b42179ad30022438a1ea333b38eaf4a7329beee5e2b8111c0dcd4e08821c6020604051868152a160a0813603126127965760405191613e2d8361295a565b613e373683612a7d565b8352356001600160401b03811161279657810136601f8201121561279657613e66903690602081359101612aa5565b926020830193845235906001600160401b038211612796570136601f8201121561279657613e9f90939291933690602081359101612b01565b928360408201528260608201525192602084519401519151602081519101209260405193849360208501968752604085015260608401526080830160208351919301905f5b818110613f01575050508152038082526136849060200182612975565b82516001600160a01b0316855286955060209485019490920191600101613ee4565b60405162461bcd60e51b815260206004820152603260248201527f6c6f6f6b73206c696b652076616c696461746f727320666f72206e65787420656044820152711c9848185c9948185b1c9958591e481cd95d60721b6064820152608490fd5b60405162461bcd60e51b815260206004820152601b60248201527f656c656374696f6e206973206e6f7420796574207374617274656400000000006044820152606490fd5b60405162461bcd60e51b815260206004820152602a60248201527f636f6d6d69746d656e742065726120696e646578206973206e6f74206e657874604482015269040cae4c240d2dcc8caf60b31b6064820152608490fd5b60405162461bcd60e51b815260206004820152602560248201527f6e65772076616c696461746f7273206c697374206d757374206e6f7420626520604482015264656d70747960d81b6064820152608490fd5b60405162461bcd60e51b815260206004820152604360248201527f76616c696461746f727320636f6d6d69746d656e74206d75737420626520656d60448201527f707479206f7220636f6e7461696e73206f6e6c79206f6e6520636f6d6d69746d606482015262195b9d60ea1b608482015260a490fd5b909493919365ffffffffffff600283015460201c16614109428461452e565b61412161411b60168601548093612e76565b836137a4565b91828410808061447e575b1561440c575083106143c75761414290836137a4565b1061437657614152905b826144bf565b94601960f81b5f523060601b60025260165260365f209360028110156127a057806142625750506001810361421d5715612bb8576141938161419a92613c92565b3691612aa5565b9160608351036141c8578260206141c594015160606040830151920151926001815491015490614571565b90565b60405162461bcd60e51b815260206004820152602760248201527f46524f5354207369676e6174757265206c656e677468206d75737420626520396044820152663620627974657360c81b6064820152608490fd5b60405162461bcd60e51b815260206004820152601e60248201527f46524f5354207369676e6174757265206d7573742062652073696e676c6500006044820152606490fd5b9193916001146142755750505050505f90565b61429a90600860048796970154910154906001600160801b038260801c921690614494565b925f9260035f9201915b8681101561436b576142d36142ca6142c46141938460051b860186613c92565b8661486f565b909291926148a9565b6001600160a01b0381165f9081526020859052604090205460ff166142fe575b506001905b016142a4565b6001600160a01b03165f9081527ff02b465737fa6045c2ff53fb2df43c66916ac2166fa303264668fb2f6a1d8c0060205260409020805c1561434357506001906142f8565b94600161435192965d612dd1565b9385851461435f575f6142f3565b50505050505050600190565b505050505050505f90565b60405162461bcd60e51b8152602060048201526024808201527f74696d657374616d70206973206f6c646572207468616e2070726576696f75736044820152632065726160e01b6064820152608490fd5b60405162461bcd60e51b815260206004820152601e60248201527f63616e6e6f742076616c6964617465206265666f72652067656e6573697300006044820152606490fd5b939291505042821161442f5761415292614427575b5061414c565b90505f614421565b60405162461bcd60e51b815260206004820152602160248201527f74696d657374616d702063616e6e6f7420626520696e207468652066757475726044820152606560f81b6064820152608490fd5b5061448d6018870154856137a4565b421061412c565b6001600160801b038092160291166144ac8183612a5f565b918115612a695706156141c55760010190565b906144ca9082614786565b156144d557600f0190565b60090190565b60ff5f5160206149ef5f395f51905f525460401c16156144f757565b631afcd79f60e31b5f5260045ffd5b356001600160801b03811681036127965790565b35906001600160801b038216820361279657565b601661454d6141c59365ffffffffffff600285015460201c1690612a3e565b91015490612a5f565b6145604282614786565b1561456b5760090190565b600f0190565b92939194906145808587614909565b156147275782156147275770014551231950b75fc4402da1732fc9bebe19831015614727576001169061010e6040519161012083018381106001600160401b038211176127965760405260883684376002600188160160888401538760898401526002840160a984015360aa830186905260ca8301527e300046524f53542d736563703235366b312d4b454343414b3235362d76316360ea8301526303430b6160e51b61010a830152812060cc820181815290600260ec84016001815360428420809318845253604270014551231950b75fc4402da1732fc9bebe19922060801c6001600160401b0360801b8260801b16179070014551231950b75fc4402da1732fc9bebe1990600160c01b9060401c0908801561436b5784601b6080945f9660209870014551231950b75fc4402da1732fc9bebe19910970014551231950b75fc4402da1732fc9bebe19038552018684015280604084015270014551231950b75fc4402da1732fc9bebe19910970014551231950b75fc4402da1732fc9bebe1903606082015282805260015afa505f51915f5260205260018060a01b0360405f20161490565b5050505050505f90565b614739612cf5565b5060028101546005820154604051929091614779916004916001600160a01b03166147638661295a565b61476c82612a20565b8652602086015201612b55565b6040830152606082015290565b906014600e83015492015480831461482b57818184109311918215911115918190614824575b156147c157826147bb57505090565b14919050565b60405162461bcd60e51b815260206004820152603560248201527f636f756c64206e6f74206964656e746966792076616c696461746f727320666f6044820152740722074686520676976656e2074696d657374616d7605c1b6064820152608490fd5b50816147ac565b606460405162461bcd60e51b815260206004820152602060248201527f657261732074696d657374616d70206d757374206e6f7420626520657175616c6044820152fd5b815191906041830361489f576148989250602082015190606060408401519301515f1a9061492c565b9192909190565b50505f9160029190565b60048110156127a057806148bb575050565b600181036148d25763f645eedf60e01b5f5260045ffd5b600281036148ed575063fce698f760e01b5f5260045260245ffd5b6003146148f75750565b6335e2f38360e21b5f5260045260245ffd5b6401000003d01990600790829081818009900908906401000003d0199080091490565b91907f7fffffffffffffffffffffffffffffff5d576e7357a4501ddfe92f46681b20a084116149a3579160209360809260ff5f9560405194855216868401526040830152606082015282805260015afa1561278b575f516001600160a01b0381161561499957905f905f90565b505f906001905f90565b5050505f916003919056fe9016d09d72d40fdae2fd8ceac6b6234c7706214fd39c1cd1e609a0528c1993005c09ca1b9b8127a4fd9f3c384aac59b661441e820e17733753ff5f2e86e1e000f0c57e16840df040f15088dc2f81fe391c3923bec73e23a9662efc9c229c6a00f0c57e16840df040f15088dc2f81fe391c3923bec73e23a9662efc9c229c6a00","linkReferences":{}},"methodIdentifiers":{"areValidators(address[])":"8f381dbe","codeState(bytes32)":"c13911e8","codesStates(bytes32[])":"82bdeaad","commitBatch((bytes32,uint48,bytes32,uint8,((address,bytes32,bool,address,uint128,bool,(bytes32,address,uint128)[],(bytes32,address,bytes,uint128,(bytes32,bytes4),bool)[])[],bytes32)[],(bytes32,bool)[],((uint256,bytes32),((address,uint256)[],uint256,address),uint48)[],((uint256,uint256),bytes,address[],uint256)[]),uint8,bytes[])":"b24fcac0","computeSettings()":"84d22a4f","createProgram(bytes32,bytes32,address)":"3683c4d2","createProgramWithAbiInterface(bytes32,bytes32,address,address)":"0c18d277","genesisBlockHash()":"28e24b3d","genesisTimestamp()":"cacf66ab","initialize(address,address,address,address,uint256,uint256,uint256,(uint256,uint256),bytes,address[])":"53f7fd48","isValidator(address)":"facd743b","latestCommittedBatchHash()":"71a8cf2d","latestCommittedBatchTimestamp()":"d456fd51","lookupGenesisHash()":"8b1edf1e","middleware()":"f4f20ac0","mirrorImpl()":"e6fabc09","owner()":"8da5cb5b","programCodeId(address)":"9067088e","programsCodeIds(address[])":"baaf0201","programsCount()":"96a2ddfa","reinitialize()":"6c2eb350","renounceOwnership()":"715018a6","requestCodeValidation(bytes32)":"120e3f1e","setMirror(address)":"3d43b418","signingThresholdFraction()":"e3a6684f","storageView()":"c2eb812f","timelines()":"9eb939a8","transferOwnership(address)":"f2fde38b","validatedCodesCount()":"007a32e7","validators()":"ca1e7819","validatorsAggregatedPublicKey()":"3bd109fa","validatorsCount()":"ed612f8c","validatorsThreshold()":"edc87225","validatorsVerifiableSecretSharingCommitment()":"a5d53a44","validatorsVssCommitmentHash()":"3b49d011","wrappedVara()":"88f50cf0"},"storageLayout":{"storage":[],"types":{}},"id":157}