{"abi":[{"type":"constructor","inputs":[],"stateMutability":"nonpayable"},{"type":"function","name":"areValidators","inputs":[{"name":"_validators","type":"address[]","internalType":"address[]"}],"outputs":[{"name":"","type":"bool","internalType":"bool"}],"stateMutability":"view"},{"type":"function","name":"codeState","inputs":[{"name":"_codeId","type":"bytes32","internalType":"bytes32"}],"outputs":[{"name":"","type":"uint8","internalType":"enum Gear.CodeState"}],"stateMutability":"view"},{"type":"function","name":"codesStates","inputs":[{"name":"_codesIds","type":"bytes32[]","internalType":"bytes32[]"}],"outputs":[{"name":"","type":"uint8[]","internalType":"enum Gear.CodeState[]"}],"stateMutability":"view"},{"type":"function","name":"commitBlocks","inputs":[{"name":"_blockCommitments","type":"tuple[]","internalType":"struct Gear.BlockCommitment[]","components":[{"name":"hash","type":"bytes32","internalType":"bytes32"},{"name":"timestamp","type":"uint48","internalType":"uint48"},{"name":"previousCommittedBlock","type":"bytes32","internalType":"bytes32"},{"name":"predecessorBlock","type":"bytes32","internalType":"bytes32"},{"name":"transitions","type":"tuple[]","internalType":"struct Gear.StateTransition[]","components":[{"name":"actorId","type":"address","internalType":"address"},{"name":"newStateHash","type":"bytes32","internalType":"bytes32"},{"name":"inheritor","type":"address","internalType":"address"},{"name":"valueToReceive","type":"uint128","internalType":"uint128"},{"name":"valueClaims","type":"tuple[]","internalType":"struct Gear.ValueClaim[]","components":[{"name":"messageId","type":"bytes32","internalType":"bytes32"},{"name":"destination","type":"address","internalType":"address"},{"name":"value","type":"uint128","internalType":"uint128"}]},{"name":"messages","type":"tuple[]","internalType":"struct Gear.Message[]","components":[{"name":"id","type":"bytes32","internalType":"bytes32"},{"name":"destination","type":"address","internalType":"address"},{"name":"payload","type":"bytes","internalType":"bytes"},{"name":"value","type":"uint128","internalType":"uint128"},{"name":"replyDetails","type":"tuple","internalType":"struct Gear.ReplyDetails","components":[{"name":"to","type":"bytes32","internalType":"bytes32"},{"name":"code","type":"bytes4","internalType":"bytes4"}]}]}]}]},{"name":"_signatures","type":"bytes[]","internalType":"bytes[]"}],"outputs":[],"stateMutability":"nonpayable"},{"type":"function","name":"commitCodes","inputs":[{"name":"_codeCommitments","type":"tuple[]","internalType":"struct Gear.CodeCommitment[]","components":[{"name":"id","type":"bytes32","internalType":"bytes32"},{"name":"valid","type":"bool","internalType":"bool"}]},{"name":"_signatures","type":"bytes[]","internalType":"bytes[]"}],"outputs":[],"stateMutability":"nonpayable"},{"type":"function","name":"commitValidators","inputs":[{"name":"commitment","type":"tuple","internalType":"struct Gear.ValidatorsCommitment","components":[{"name":"validators","type":"address[]","internalType":"address[]"},{"name":"eraIndex","type":"uint256","internalType":"uint256"}]},{"name":"signatures","type":"bytes[]","internalType":"bytes[]"}],"outputs":[],"stateMutability":"nonpayable"},{"type":"function","name":"computeSettings","inputs":[],"outputs":[{"name":"","type":"tuple","internalType":"struct Gear.ComputationSettings","components":[{"name":"threshold","type":"uint64","internalType":"uint64"},{"name":"wvaraPerSecond","type":"uint128","internalType":"uint128"}]}],"stateMutability":"view"},{"type":"function","name":"createProgram","inputs":[{"name":"_codeId","type":"bytes32","internalType":"bytes32"},{"name":"_salt","type":"bytes32","internalType":"bytes32"}],"outputs":[{"name":"","type":"address","internalType":"address"}],"stateMutability":"nonpayable"},{"type":"function","name":"createProgramWithDecoder","inputs":[{"name":"_decoderImpl","type":"address","internalType":"address"},{"name":"_codeId","type":"bytes32","internalType":"bytes32"},{"name":"_salt","type":"bytes32","internalType":"bytes32"}],"outputs":[{"name":"","type":"address","internalType":"address"}],"stateMutability":"nonpayable"},{"type":"function","name":"genesisBlockHash","inputs":[],"outputs":[{"name":"","type":"bytes32","internalType":"bytes32"}],"stateMutability":"view"},{"type":"function","name":"genesisTimestamp","inputs":[],"outputs":[{"name":"","type":"uint48","internalType":"uint48"}],"stateMutability":"view"},{"type":"function","name":"initialize","inputs":[{"name":"_owner","type":"address","internalType":"address"},{"name":"_mirror","type":"address","internalType":"address"},{"name":"_mirrorProxy","type":"address","internalType":"address"},{"name":"_wrappedVara","type":"address","internalType":"address"},{"name":"_eraDuration","type":"uint256","internalType":"uint256"},{"name":"_electionDuration","type":"uint256","internalType":"uint256"},{"name":"_validationDelay","type":"uint256","internalType":"uint256"},{"name":"_validators","type":"address[]","internalType":"address[]"}],"outputs":[],"stateMutability":"nonpayable"},{"type":"function","name":"isValidator","inputs":[{"name":"_validator","type":"address","internalType":"address"}],"outputs":[{"name":"","type":"bool","internalType":"bool"}],"stateMutability":"view"},{"type":"function","name":"latestCommittedBlockHash","inputs":[],"outputs":[{"name":"","type":"bytes32","internalType":"bytes32"}],"stateMutability":"view"},{"type":"function","name":"lookupGenesisHash","inputs":[],"outputs":[],"stateMutability":"nonpayable"},{"type":"function","name":"mirrorImpl","inputs":[],"outputs":[{"name":"","type":"address","internalType":"address"}],"stateMutability":"view"},{"type":"function","name":"mirrorProxyImpl","inputs":[],"outputs":[{"name":"","type":"address","internalType":"address"}],"stateMutability":"view"},{"type":"function","name":"owner","inputs":[],"outputs":[{"name":"","type":"address","internalType":"address"}],"stateMutability":"view"},{"type":"function","name":"programCodeId","inputs":[{"name":"_programId","type":"address","internalType":"address"}],"outputs":[{"name":"","type":"bytes32","internalType":"bytes32"}],"stateMutability":"view"},{"type":"function","name":"programsCodeIds","inputs":[{"name":"_programsIds","type":"address[]","internalType":"address[]"}],"outputs":[{"name":"","type":"bytes32[]","internalType":"bytes32[]"}],"stateMutability":"view"},{"type":"function","name":"programsCount","inputs":[],"outputs":[{"name":"","type":"uint256","internalType":"uint256"}],"stateMutability":"view"},{"type":"function","name":"reinitialize","inputs":[],"outputs":[],"stateMutability":"nonpayable"},{"type":"function","name":"renounceOwnership","inputs":[],"outputs":[],"stateMutability":"nonpayable"},{"type":"function","name":"requestCodeValidation","inputs":[{"name":"_codeId","type":"bytes32","internalType":"bytes32"},{"name":"_blobTxHash","type":"bytes32","internalType":"bytes32"}],"outputs":[],"stateMutability":"nonpayable"},{"type":"function","name":"setMirror","inputs":[{"name":"newMirror","type":"address","internalType":"address"}],"outputs":[],"stateMutability":"nonpayable"},{"type":"function","name":"signingThresholdPercentage","inputs":[],"outputs":[{"name":"","type":"uint16","internalType":"uint16"}],"stateMutability":"view"},{"type":"function","name":"transferOwnership","inputs":[{"name":"newOwner","type":"address","internalType":"address"}],"outputs":[],"stateMutability":"nonpayable"},{"type":"function","name":"validatedCodesCount","inputs":[],"outputs":[{"name":"","type":"uint256","internalType":"uint256"}],"stateMutability":"view"},{"type":"function","name":"validators","inputs":[],"outputs":[{"name":"","type":"address[]","internalType":"address[]"}],"stateMutability":"view"},{"type":"function","name":"validatorsCount","inputs":[],"outputs":[{"name":"","type":"uint256","internalType":"uint256"}],"stateMutability":"view"},{"type":"function","name":"validatorsThreshold","inputs":[],"outputs":[{"name":"","type":"uint256","internalType":"uint256"}],"stateMutability":"view"},{"type":"function","name":"wrappedVara","inputs":[],"outputs":[{"name":"","type":"address","internalType":"address"}],"stateMutability":"view"},{"type":"event","name":"BlockCommitted","inputs":[{"name":"hash","type":"bytes32","indexed":false,"internalType":"bytes32"}],"anonymous":false},{"type":"event","name":"CodeGotValidated","inputs":[{"name":"codeId","type":"bytes32","indexed":false,"internalType":"bytes32"},{"name":"valid","type":"bool","indexed":true,"internalType":"bool"}],"anonymous":false},{"type":"event","name":"CodeValidationRequested","inputs":[{"name":"codeId","type":"bytes32","indexed":false,"internalType":"bytes32"},{"name":"blobTxHash","type":"bytes32","indexed":false,"internalType":"bytes32"}],"anonymous":false},{"type":"event","name":"ComputationSettingsChanged","inputs":[{"name":"threshold","type":"uint64","indexed":false,"internalType":"uint64"},{"name":"wvaraPerSecond","type":"uint128","indexed":false,"internalType":"uint128"}],"anonymous":false},{"type":"event","name":"Initialized","inputs":[{"name":"version","type":"uint64","indexed":false,"internalType":"uint64"}],"anonymous":false},{"type":"event","name":"NextEraValidatorsCommitted","inputs":[{"name":"startTimestamp","type":"uint256","indexed":false,"internalType":"uint256"}],"anonymous":false},{"type":"event","name":"OwnershipTransferred","inputs":[{"name":"previousOwner","type":"address","indexed":true,"internalType":"address"},{"name":"newOwner","type":"address","indexed":true,"internalType":"address"}],"anonymous":false},{"type":"event","name":"ProgramCreated","inputs":[{"name":"actorId","type":"address","indexed":false,"internalType":"address"},{"name":"codeId","type":"bytes32","indexed":true,"internalType":"bytes32"}],"anonymous":false},{"type":"event","name":"StorageSlotChanged","inputs":[],"anonymous":false},{"type":"error","name":"ECDSAInvalidSignature","inputs":[]},{"type":"error","name":"ECDSAInvalidSignatureLength","inputs":[{"name":"length","type":"uint256","internalType":"uint256"}]},{"type":"error","name":"ECDSAInvalidSignatureS","inputs":[{"name":"s","type":"bytes32","internalType":"bytes32"}]},{"type":"error","name":"FailedDeployment","inputs":[]},{"type":"error","name":"InsufficientBalance","inputs":[{"name":"balance","type":"uint256","internalType":"uint256"},{"name":"needed","type":"uint256","internalType":"uint256"}]},{"type":"error","name":"InvalidInitialization","inputs":[]},{"type":"error","name":"NotInitializing","inputs":[]},{"type":"error","name":"OwnableInvalidOwner","inputs":[{"name":"owner","type":"address","internalType":"address"}]},{"type":"error","name":"OwnableUnauthorizedAccount","inputs":[{"name":"account","type":"address","internalType":"address"}]},{"type":"error","name":"ReentrancyGuardReentrantCall","inputs":[]}],"bytecode":{"object":"0x6080806040523460aa575f5160206130c75f395f51905f525460ff8160401c16609b576002600160401b03196001600160401b038216016049575b60405161301890816100af8239f35b6001600160401b0319166001600160401b039081175f5160206130c75f395f51905f525581527fc7f505b2f371ae2175ee4913f4499e1f2633a7b5936321eed1cdaeb6115181d290602090a15f80603a565b63f92ee8a960e01b5f5260045ffd5b5f80fdfe6080806040526004361015610012575f80fd5b5f905f3560e01c9081627a32e7146121f25750806301b1d15614611a4b5780631c149d8a146118f257806328e24b3d146118c85780633d43b41814611876578063527de0f9146117f457806365ecfea2146117bb5780636c2eb350146114d0578063715018a61461146757806382bdeaad1461134f57806384d22a4f146112e657806385a49eab14610dd757806388f50cf014610d9e5780638b1edf1e14610cd75780638da5cb5b14610ca25780638f381dbe14610c5c5780639067088e14610c1357806396a2ddfa14610be5578063aaf0fe6a1461086d578063baaf020114610770578063c13911e81461072c578063c9f16a11146106fe578063ca1e78191461067b578063cacf66ab14610643578063e6fabc091461060a578063e7006a74146104e9578063e97d3eb3146102b5578063ed612f8c1461027d578063edc8722514610233578063efd81abc14610201578063f2fde38b146101d45763facd743b1461017d575f80fd5b346101d15760203660031901126101d157610196612262565b6101af5f516020612fa35f395f51905f52544290612cd3565b9060018060a01b03165f52602052602060ff60405f2054166040519015158152f35b80fd5b50346101d15760203660031901126101d1576101fe6101f1612262565b6101f961297a565b61263c565b80f35b50346101d157806003193601126101d157602061ffff60075f516020612fa35f395f51905f5254015416604051908152f35b50346101d157806003193601126101d15760206102755f516020612fa35f395f51905f525461ffff600760016102694285612cd3565b01549201541690612c5a565b604051908152f35b50346101d157806003193601126101d157602060016102ab5f516020612fa35f395f51905f52544290612cd3565b0154604051908152f35b50346101d15760403660031901126101d157600435906001600160401b0382116101d157366023830112156101d1578160040135916001600160401b0383116104e5573660248460061b830101116104e5576024356001600160401b0381116104e157906103288492369060040161221c565b935f516020612fa35f395f51905f52549261034584541515612299565b606095829360128601975b878610156104c3578560061b84016024810135918287528a60205260ff60408820541660038110156104af5760010361044c576001926103ff604461042c940161039981612621565b1561043457828a528d60205260408a20600260ff1982541617905560158c016103c2815461262e565b90555b6103ce81612621565b15157f460119a8f69a33ed127de517d5ea464e958ce23ef19e4420a8b92bf780bbc2c96020604051868152a2612621565b6040519060208201928352151560f81b604082015260218152610423604182612355565b51902090612376565b950194610350565b828a528d60205260408a2060ff1981541690556103c5565b60405162461bcd60e51b815260206004820152603560248201527f636f6465206d7573742062652072657175657374656420666f722076616c6964604482015274185d1a5bdb881d1bc818994818dbdb5b5a5d1d1959605a1b6064820152608490fd5b634e487b7160e01b88526021600452602488fd5b8685936101fe936104dc936020815191012042936126ad565b6123b8565b8280fd5b5080fd5b50346101d15760603660031901126101d157610503612262565b6024359061054b6044359161051883856129ad565b936040519360208501918252604085015260408452610538606085612355565b92519092206001600160a01b0392612e9d565b16803b156104e15760405163189acdbd60e31b81526001600160a01b0390921660048301819052918390818160248183875af180156105ff576105ea575b5050813b156104e1576040519063485cc95560e01b82523360048301526024820152828160448183865af180156105df576105ca575b602082604051908152f35b6105d5838092612355565b6104e557816105bf565b6040513d85823e3d90fd5b816105f491612355565b6104e157825f610589565b6040513d84823e3d90fd5b50346101d157806003193601126101d1575f516020612fa35f395f51905f5254600401546040516001600160a01b039091168152602090f35b50346101d157806003193601126101d157602065ffffffffffff60015f516020612fa35f395f51905f52540154821c16604051908152f35b50346101d157806003193601126101d1576106b060016106aa5f516020612fa35f395f51905f52544290612cd3565b01612404565b90604051918291602083016020845282518091526020604085019301915b8181106106dc575050500390f35b82516001600160a01b03168452859450602093840193909201916001016106ce565b50346101d157806003193601126101d157602060025f516020612fa35f395f51905f52540154604051908152f35b50346101d15760203660031901126101d15760ff604060209260125f516020612fa35f395f51905f5254016004358252845220541661076e604051809261228c565bf35b50346101d15760203660031901126101d1576004356001600160401b0381116104e5576107a190369060040161221c565b905f516020612fa35f395f51905f5254906107bb83612455565b916107c96040519384612355565b8383526107d584612455565b602084019490601f19013686376013869201915b81811061083457868587604051928392602084019060208552518091526040840192915b81811061081b575050500390f35b825184528594506020938401939092019160010161080d565b8061084a610845600193858861246c565b61254f565b828060a01b03165f528360205260405f20546108668288612490565b52016107e9565b50346101d15760403660031901126101d157600435906001600160401b0382116101d15781600401604060031984360301126104e5576024356001600160401b0381116104e1576108c290369060040161221c565b91905f516020612fa35f395f51905f525465ffffffffffff600182015460201c16936108ee85426124bc565b6108fd600f84015480926124dd565b9560248901359660018101809111610bd1578703610b795761092287610928936125d9565b906125cc565b926109376010840154856124bc565b4210610b345761094683612c3f565b954260028801541015610ad457604051986109608a61230b565b8635906001600160401b038211610ad0570136602382011215610acc576020610994839236906024600482013591016124fb565b9a8b8152015260405160208101918260208c51919c01908b5b818110610aad575050506020828c6109d3936109fc9a9b9c9d9e52038084520182612355565b519020926040519360208501908152602085526109f1604086612355565b4294519020906126ad565b15610a4d57610a43817f41e7f919bf726af8aa2ef36bd31905a693013e30c45c6284060e613d4941997b94610a3d610a36866020976125ec565b36916124fb565b90612b26565b604051908152a180f35b60405162461bcd60e51b815260206004820152603260248201527f6e657874206572612076616c696461746f7273207369676e6174757265732076604482015271195c9a599a58d85d1a5bdb8819985a5b195960721b6064820152608490fd5b82516001600160a01b03168e5260209d8e019d909201916001016109ad565b8880fd5b8980fd5b60405162461bcd60e51b815260206004820152603260248201527f6c6f6f6b73206c696b652076616c696461746f727320666f72206e65787420656044820152711c9848185c9948185b1c9958591e481cd95d60721b6064820152608490fd5b60405162461bcd60e51b815260206004820152601b60248201527f656c656374696f6e206973206e6f7420796574207374617274656400000000006044820152606490fd5b60405162461bcd60e51b815260206004820152602a60248201527f636f6d6d69746d656e742065726120696e646578206973206e6f74206e657874604482015269040cae4c240d2dcc8caf60b31b6064820152608490fd5b634e487b7160e01b89526011600452602489fd5b50346101d157806003193601126101d157602060145f516020612fa35f395f51905f52540154604051908152f35b50346101d15760203660031901126101d157610c2d612262565b60135f516020612fa35f395f51905f5254019060018060a01b03165f52602052602060405f2054604051908152f35b50346101d15760203660031901126101d157600435906001600160401b0382116101d1576020610c98610c92366004860161221c565b90612563565b6040519015158152f35b50346101d157806003193601126101d1575f516020612f835f395f51905f52546040516001600160a01b039091168152602090f35b50346101d157806003193601126101d1575f516020612fa35f395f51905f52548054610d595763ffffffff60018201541640908115610d14575580f35b60405162461bcd60e51b815260206004820152601d60248201527f756e61626c6520746f206c6f6f6b75702067656e6573697320686173680000006044820152606490fd5b60405162461bcd60e51b815260206004820152601860248201527f67656e65736973206861736820616c72656164792073657400000000000000006044820152606490fd5b50346101d157806003193601126101d1575f516020612fa35f395f51905f5254600601546040516001600160a01b039091168152602090f35b50346101d1576101003660031901126101d157610df2612262565b6024356001600160a01b03811691908290036104e1576044356001600160a01b038116908190036112e2576064356001600160a01b03811691908290036112de5760c43560a43560843560e4356001600160401b038111610acc57610e5b90369060040161221c565b9590945f516020612fc35f395f51905f52549760ff8960401c1615986001600160401b038116801590816112d6575b60011490816112cc575b1590816112c3575b506112b45767ffffffffffffffff1981166001175f516020612fc35f395f51905f5255610edb91908a611288575b50610ed3612cef565b6101f9612cef565b42156112325783156111dc578383111561117b57600a610efb85856124bc565b04851015611136576040988951610f128b82612355565b6017815260208101907f726f757465722e73746f726167652e526f7574657256310000000000000000008252610f4661297a565b5190205f1981019081116111225793838b9793600897936110c89b9a966110c1988b51906020820190815260208252610f7f8d83612355565b60ff1991519020169a8b5f516020612fa35f395f51905f5255610fa0612ae1565b80518d5560018d019063ffffffff60208201511669ffffffffffff0000000084845493015160201b169169ffffffffffffffffffff1916171790558051610fe68161233a565b83815260208101859052015260048a0180546001600160a01b03199081166001600160a01b039384161790915560058b01805482169383169390931790925560068a018054909216921691909117905560078701805461ffff1916611a0a17905561104f6124a4565b506509184e72a00060208c516110648161230b565b639502f90081520152600e870180546001600160c01b0319166d09184e72a000000000009502f9001790558a5183908c9061109e8161233a565b8381528460208201520152600f87015560108601556011850155429436916124fb565b9101612b26565b6110d0575080f35b60207fc7f505b2f371ae2175ee4913f4499e1f2633a7b5936321eed1cdaeb6115181d29160ff60401b195f516020612fc35f395f51905f5254165f516020612fc35f395f51905f52555160018152a180f35b634e487b7160e01b8c52601160045260248cfd5b60405162461bcd60e51b815260206004820152601b60248201527f76616c69646174696f6e2064656c617920697320746f6f2062696700000000006044820152606490fd5b60405162461bcd60e51b815260206004820152603360248201527f657261206475726174696f6e206d757374206265206772656174657220746861604482015272371032b632b1ba34b7b710323ab930ba34b7b760691b6064820152608490fd5b60405162461bcd60e51b815260206004820152602860248201527f656c656374696f6e206475726174696f6e206d75737420626520677265617465604482015267072207468616e20360c41b6064820152608490fd5b60405162461bcd60e51b815260206004820152602860248201527f63757272656e742074696d657374616d70206d75737420626520677265617465604482015267072207468616e20360c41b6064820152608490fd5b68ffffffffffffffffff191668010000000000000001175f516020612fc35f395f51905f52555f610eca565b63f92ee8a960e01b8c5260048cfd5b9050155f610e9c565b303b159150610e94565b8b9150610e8a565b8480fd5b8380fd5b50346101d157806003193601126101d1576112ff6124a4565b506040600e5f516020612fa35f395f51905f5254016001600160801b038251916113288361230b565b548160206001600160401b038316948581520191851c168152835192835251166020820152f35b50346101d15760203660031901126101d1576004356001600160401b0381116104e55761138090369060040161221c565b905f516020612fa35f395f51905f52549061139a83612455565b916113a86040519384612355565b8383526113b484612455565b602084019490601f19013686376012869201915b81811061141d57868587604051928392602084019060208552518091526040840192915b8181106113fa575050500390f35b919350916020808261140f600194885161228c565b0194019101918493926113ec565b61142881838661246c565b3587528260205260ff6040882054166114418287612490565b600382101561145357526001016113c8565b634e487b7160e01b89526021600452602489fd5b50346101d157806003193601126101d15761148061297a565b5f516020612f835f395f51905f5280546001600160a01b0319811690915581906001600160a01b03167f8be0079c531659141344cd1fd0a4f28419497f9722a3daafe3b4186f6b6457e08280a380f35b50346101d157806003193601126101d1576114e961297a565b5f516020612fc35f395f51905f525460ff8160401c1680156117a7575b61179857680100000000000000029068ffffffffffffffffff1916175f516020612fc35f395f51905f52555f516020612fa35f395f51905f5254604090815161154f8382612355565b6017815260208101907f726f757465722e73746f726167652e526f757465725632000000000000000000825261158361297a565b5190205f19810190811161178457916020917fc7f505b2f371ae2175ee4913f4499e1f2633a7b5936321eed1cdaeb6115181d2938251908482019081528482526115cd8483612355565b60ff19915190201690815f516020612fa35f395f51905f52556115ee612ae1565b80518355600183019063ffffffff868201511669ffffffffffff00000000868454930151881b169169ffffffffffffffffffff191617179055600481016004830190808203611736575b505061ffff600782015416600783019061ffff1982541617905561166e4261166560016106aa4286612cd3565b60088501612b26565b600e8101600e8301908082036116e4575b5050600f8101600f8301918183036116c4575b5050505060ff60401b195f516020612fc35f395f51905f5254165f516020612fc35f395f51905f52555160028152a180f35b60119283925490556010810154601085015501549101555f808080611692565b806001600160401b03806001600160801b03935416166001600160401b031984541617835554851c16600160401b600160c01b03825491861b1690600160401b600160c01b0319161790555f8061167f565b5481546001600160a01b03199081166001600160a01b039283161790925560058381015490850180548416918316919091179055600680840154908501805490931691161790555f80611638565b634e487b7160e01b84526011600452602484fd5b63f92ee8a960e01b8252600482fd5b5060026001600160401b0382161015611506565b50346101d157806003193601126101d1575f516020612fa35f395f51905f5254600501546040516001600160a01b039091168152602090f35b34611872576118146118053661224c565b6001600160a01b0392916129ad565b16803b15611872576040519063485cc95560e01b82523360048301525f60248301525f8260448183855af191821561186757602092611857575b50604051908152f35b5f61186191612355565b5f61184e565b6040513d5f823e3d90fd5b5f80fd5b346118725760203660031901126118725761188f612262565b61189761297a565b5f516020612fa35f395f51905f525460040180546001600160a01b0319166001600160a01b03909216919091179055005b34611872575f3660031901126118725760205f516020612fa35f395f51905f525454604051908152f35b34611872576119003661224c565b908115801590611a41575b15611a065760125f516020612fa35f395f51905f525461192d81541515612299565b0190805f528160205260ff60405f20541660038110156119f257611991577f65672eaf4ff8b823ea29ae013fef437d1fa9ed431125263a7a1f0ac49eada39692604092825f52602052825f20600160ff1982541617905582519182526020820152a1005b60405162461bcd60e51b815260206004820152603360248201527f676976656e20636f646520696420697320616c7265616479206f6e2076616c6960448201527219185d1a5bdb881bdc881d985b1a59185d1959606a1b6064820152608490fd5b634e487b7160e01b5f52602160045260245ffd5b60405162461bcd60e51b8152602060048201526013602482015272189b1bd88818d85b89dd08189948199bdd5b99606a1b6044820152606490fd5b505f49151561190b565b34611872576040366003190112611872576004356001600160401b03811161187257611a7b90369060040161221c565b6024356001600160401b03811161187257611a9a90369060040161221c565b92907f9b779b17422d0df92223018b32b4d1fa46e071723d6817e2486d003becc55f005c6121e35760017f9b779b17422d0df92223018b32b4d1fa46e071723d6817e2486d003becc55f005d5f516020612fa35f395f51905f525491611b0283541515612299565b831561219e5790935f908160605b86841015612161578360051b850135609e198636030181121561187257850192600287015460408501350361210e57611b4c6060850135612c7c565b156120ba576020611b5e8186016123a5565b65ffffffffffff60405191611b728361230b565b873583521691829101528435600289015565ffffffffffff19600389015416176003880155611ba460808501856125ec565b9890965f9260605b8b851015611fd9578460051b8a013560be198b360301811215611872578a01611bd48161254f565b6001600160a01b03165f90815260138d01602052604090205415611f7c5760068c01546001600160a01b0316611c098261254f565b90606083019182356001600160801b0381168091036118725760405163a9059cbb60e01b81526001600160a01b039092166004830152602482015290602090829060449082905f905af1801561186757611f46575b506001600160a01b03611c708361254f565b6040516309ed323560e41b8152602060048201529391169160e4840191906001600160801b0390611cdb906001600160a01b03611cac85612278565b166024880152602084013560448801526001600160a01b03611cd060408601612278565b166064880152612cbf565b16608485015236819003601e1901608082013581811215611872578201602081359101936001600160401b03821161187257606082023603851361187257819060c060a489015252610104860193905f905b808210611efc5750505060a082013590811215611872570190813560208301926001600160401b038211611872578160051b918236038513611872578684036023190160c48801528084528694928401602090810194908101925f923682900360de19019290915b828510611e03575050505050505091815f8160209503925af1908115611867575f91611dd1575b50611dc990600192612376565b940193611bac565b90506020813d8211611dfb575b81611deb60209383612355565b8101031261187257516001611dbc565b3d9150611dde565b9193959750919395601f1983820301875287358581121561187257820160208101358252906001600160a01b03611e3c60408401612278565b1660208201526060820135603e1936849003018112156118725782602091010191602083359301906001600160401b038411611872578336038213611872578360c092836040860152818486015260e08501375f60e085850101526001600160801b03611eab60808301612cbf565b16606084015260a0810135608084015201359163ffffffff60e01b83168093036118725760e0826020939260019560a086950152601f80199101160101990197019501929091899796959492611d95565b90919460608060019288358152838060a01b03611f1b60208b01612278565b1660208201526001600160801b03611f3560408b01612cbf565b166040820152019601920190611d2d565b6020813d8211611f74575b81611f5e60209383612355565b8101031261187257518015158114611c5e575f80fd5b3d9150611f51565b60405162461bcd60e51b815260206004820152602f60248201527f636f756c646e277420706572666f726d207472616e736974696f6e20666f722060448201526e756e6b6e6f776e2070726f6772616d60881b6064820152608490fd5b919794929a50959a9497506120719250602081519101207fd756eca21e02cb0dbde1e44a4d9c6921b5c8aa4668cfa0752784b3dc855bce1e60206040518d358152a161202760208c016123a5565b906040519060208201928d35845265ffffffffffff60d01b9060d01b16604083015260408d0135604683015260608d0135606683015260868201526086815261042360a682612355565b978565ffffffffffff612086602084016123a5565b161161209a575b5060010192939096611b10565b60019195506120b2602065ffffffffffff92016123a5565b16949061208d565b60405162461bcd60e51b815260206004820152602660248201527f616c6c6f776564207072656465636573736f7220626c6f636b207761736e277460448201526508199bdd5b9960d21b6064820152608490fd5b60405162461bcd60e51b815260206004820152602560248201527f696e76616c69642070726576696f757320636f6d6d697474656420626c6f636b604482015264040d0c2e6d60db1b6064820152608490fd5b906121799288876104dc9460208151910120906126ad565b5f7f9b779b17422d0df92223018b32b4d1fa46e071723d6817e2486d003becc55f005d005b60405162461bcd60e51b815260206004820152601e60248201527f6e6f20626c6f636b20636f6d6d69746d656e747320746f20636f6d6d697400006044820152606490fd5b633ee5aeb560e01b5f5260045ffd5b34611872575f3660031901126118725760209060155f516020612fa35f395f51905f525401548152f35b9181601f84011215611872578235916001600160401b038311611872576020808501948460051b01011161187257565b6040906003190112611872576004359060243590565b600435906001600160a01b038216820361187257565b35906001600160a01b038216820361187257565b9060038210156119f25752565b156122a057565b60405162461bcd60e51b815260206004820152603860248201527f726f757465722067656e65736973206973207a65726f3b2063616c6c20606c6f60448201527f6f6b757047656e657369734861736828296020666972737400000000000000006064820152608490fd5b604081019081106001600160401b0382111761232657604052565b634e487b7160e01b5f52604160045260245ffd5b606081019081106001600160401b0382111761232657604052565b90601f801991011681019081106001600160401b0382111761232657604052565b6020806123a3928195946040519682889351918291018585015e8201908382015203018085520183612355565b565b3565ffffffffffff811681036118725790565b156123bf57565b60405162461bcd60e51b815260206004820152601e60248201527f7369676e61747572657320766572696669636174696f6e206661696c656400006044820152606490fd5b90604051918281549182825260208201905f5260205f20925f5b8181106124335750506123a392500383612355565b84546001600160a01b031683526001948501948794506020909301920161241e565b6001600160401b0381116123265760051b60200190565b919081101561247c5760051b0190565b634e487b7160e01b5f52603260045260245ffd5b805182101561247c5760209160051b010190565b604051906124b18261230b565b5f6020838281520152565b919082039182116124c957565b634e487b7160e01b5f52601160045260245ffd5b81156124e7570490565b634e487b7160e01b5f52601260045260245ffd5b92919061250781612455565b936125156040519586612355565b602085838152019160051b810192831161187257905b82821061253757505050565b6020809161254484612278565b81520191019061252b565b356001600160a01b03811681036118725790565b61257c5f516020612fa35f395f51905f52544290612cd3565b905f5b83811061258f5750505050600190565b61259d61084582868561246c565b6001600160a01b03165f9081526020849052604090205460ff16156125c45760010161257f565b505050505f90565b919082018092116124c957565b818102929181159184041417156124c957565b903590601e198136030182121561187257018035906001600160401b03821161187257602001918160051b3603831361187257565b3580151581036118725790565b5f1981146124c95760010190565b6001600160a01b0316801561269a575f516020612f835f395f51905f5280546001600160a01b0319811683179091556001600160a01b03167f8be0079c531659141344cd1fd0a4f28419497f9722a3daafe3b4186f6b6457e05f80a3565b631e4fbdf760e01b5f525f60045260245ffd5b90929365ffffffffffff600183015460201c166126e16126ec6126e66126d384426124bc565b600f870154938480926124dd565b6125d9565b836125cc565b9182841080612964575b156128ff5783106128ba5761270b90836125cc565b106128695761271e612733915b83612cd3565b9161ffff600760018501549201541690612c5a565b9260405190602082019081526020825261274e604083612355565b61278a603660405180936020820195601960f81b87523060601b60228401525180918484015e81015f838201520301601f198101835282612355565b5190205f925f5b8681101561285e578060051b820135601e19833603018112156118725782018035906001600160401b038211611872576020810190823603821361187257604051906127e7601f8501601f191660200183612355565b8382526020843692010111611872575f6020846128199561281095838601378301015285612e03565b90929192612e3d565b6001600160a01b03165f9081526020859052604090205460ff16612840575b600101612791565b9361284a9061262e565b938585036128385750505050505050600190565b505050505050505f90565b60405162461bcd60e51b8152602060048201526024808201527f74696d657374616d70206973206f6c646572207468616e2070726576696f75736044820152632065726160e01b6064820152608490fd5b60405162461bcd60e51b815260206004820152601e60248201527f63616e6e6f742076616c6964617465206265666f72652067656e6573697300006044820152606490fd5b5050504281116129155761271e61273391612718565b60405162461bcd60e51b815260206004820152602160248201527f74696d657374616d702063616e6e6f7420626520696e207468652066757475726044820152606560f81b6064820152608490fd5b506129736011860154846125cc565b42106126f6565b5f516020612f835f395f51905f52546001600160a01b0316330361299a57565b63118cdaa760e01b5f523360045260245ffd5b5f516020612fa35f395f51905f5254916129c983541515612299565b815f526012830160205260ff60405f20541660038110156119f257600203612a8557612a2760149160018060a01b03600586015416906040516020810191868352604082015260408152612a1e606082612355565b51902090612e9d565b9260018060a01b0384165f52601381016020528260405f205501612a4b815461262e565b90556040516001600160a01b03831681527f8008ec1d8798725ebfa0f2d128d52e8e717dcba6e0f786557eeee70614b02bf190602090a290565b60405162461bcd60e51b815260206004820152602e60248201527f636f6465206d7573742062652076616c696461746564206265666f726520707260448201526d37b3b930b69031b932b0ba34b7b760911b6064820152608490fd5b5f60408051612aef8161233a565b8281528260208201520152604051612b068161233a565b5f815263ffffffff4316602082015265ffffffffffff4216604082015290565b905f5b60018301908154811015612b66575f91825260208083208201546001600160a01b031683528490526040909120805460ff19169055600101612b29565b50505f5b8151811015612bab576001906001600160a01b03612b888285612490565b5116828060a01b03165f528360205260405f208260ff1982541617905501612b6a565b50600182018151916001600160401b03831161232657680100000000000000008311612326578154838355808410612c19575b50602001905f5260205f205f5b838110612bfc575050505060020155565b82516001600160a01b031681830155602090920191600101612beb565b825f528360205f2091820191015b818110612c345750612bde565b5f8155600101612c27565b612c494282612d1a565b15612c545760080190565b600b0190565b61ffff612c689216906125d9565b61270f81018091116124c957612710900490565b905f1943014381116124c957805b612c95575b505f9150565b8040838103612ca657506001925050565b15612cba5780156124c9575f190180612c8a565b612c8f565b35906001600160801b038216820361187257565b90612cde9082612d1a565b15612ce957600b0190565b60080190565b60ff5f516020612fc35f395f51905f525460401c1615612d0b57565b631afcd79f60e31b5f5260045ffd5b90600d600a830154920154808314612dbf57818184109311918215911115918190612db8575b15612d555782612d4f57505090565b14919050565b60405162461bcd60e51b815260206004820152603560248201527f636f756c64206e6f74206964656e746966792076616c696461746f727320666f6044820152740722074686520676976656e2074696d657374616d7605c1b6064820152608490fd5b5081612d40565b606460405162461bcd60e51b815260206004820152602060248201527f657261732074696d657374616d70206d757374206e6f7420626520657175616c6044820152fd5b8151919060418303612e3357612e2c9250602082015190606060408401519301515f1a90612f00565b9192909190565b50505f9160029190565b60048110156119f25780612e4f575050565b60018103612e665763f645eedf60e01b5f5260045ffd5b60028103612e81575063fce698f760e01b5f5260045260245ffd5b600314612e8b5750565b6335e2f38360e21b5f5260045260245ffd5b6e5af43d82803e903d91602b57fd5bf390763d602d80600a3d3981f3363d3d373d3d3d363d7300000062ffffff8260881c16175f5260781b17602052603760095ff5906001600160a01b03821615612ef157565b63b06ebf3d60e01b5f5260045ffd5b91907f7fffffffffffffffffffffffffffffff5d576e7357a4501ddfe92f46681b20a08411612f77579160209360809260ff5f9560405194855216868401526040830152606082015282805260015afa15611867575f516001600160a01b03811615612f6d57905f905f90565b505f906001905f90565b5050505f916003919056fe9016d09d72d40fdae2fd8ceac6b6234c7706214fd39c1cd1e609a0528c1993005c09ca1b9b8127a4fd9f3c384aac59b661441e820e17733753ff5f2e86e1e000f0c57e16840df040f15088dc2f81fe391c3923bec73e23a9662efc9c229c6a00a2646970667358221220671a8258c4b832493041707624c4c9302da0d5cd4890e67982ed2d2cf3cb379064736f6c634300081c0033f0c57e16840df040f15088dc2f81fe391c3923bec73e23a9662efc9c229c6a00","linkReferences":{}},"methodIdentifiers":{"areValidators(address[])":"8f381dbe","codeState(bytes32)":"c13911e8","codesStates(bytes32[])":"82bdeaad","commitBlocks((bytes32,uint48,bytes32,bytes32,(address,bytes32,address,uint128,(bytes32,address,uint128)[],(bytes32,address,bytes,uint128,(bytes32,bytes4))[])[])[],bytes[])":"01b1d156","commitCodes((bytes32,bool)[],bytes[])":"e97d3eb3","commitValidators((address[],uint256),bytes[])":"aaf0fe6a","computeSettings()":"84d22a4f","createProgram(bytes32,bytes32)":"527de0f9","createProgramWithDecoder(address,bytes32,bytes32)":"e7006a74","genesisBlockHash()":"28e24b3d","genesisTimestamp()":"cacf66ab","initialize(address,address,address,address,uint256,uint256,uint256,address[])":"85a49eab","isValidator(address)":"facd743b","latestCommittedBlockHash()":"c9f16a11","lookupGenesisHash()":"8b1edf1e","mirrorImpl()":"e6fabc09","mirrorProxyImpl()":"65ecfea2","owner()":"8da5cb5b","programCodeId(address)":"9067088e","programsCodeIds(address[])":"baaf0201","programsCount()":"96a2ddfa","reinitialize()":"6c2eb350","renounceOwnership()":"715018a6","requestCodeValidation(bytes32,bytes32)":"1c149d8a","setMirror(address)":"3d43b418","signingThresholdPercentage()":"efd81abc","transferOwnership(address)":"f2fde38b","validatedCodesCount()":"007a32e7","validators()":"ca1e7819","validatorsCount()":"ed612f8c","validatorsThreshold()":"edc87225","wrappedVara()":"88f50cf0"},"storageLayout":{"storage":[],"types":{}},"id":120}