{"abi":[{"type":"constructor","inputs":[],"stateMutability":"nonpayable"},{"type":"function","name":"areValidators","inputs":[{"name":"_validators","type":"address[]","internalType":"address[]"}],"outputs":[{"name":"","type":"bool","internalType":"bool"}],"stateMutability":"view"},{"type":"function","name":"codeState","inputs":[{"name":"_codeId","type":"bytes32","internalType":"bytes32"}],"outputs":[{"name":"","type":"uint8","internalType":"enum Gear.CodeState"}],"stateMutability":"view"},{"type":"function","name":"codesStates","inputs":[{"name":"_codesIds","type":"bytes32[]","internalType":"bytes32[]"}],"outputs":[{"name":"","type":"uint8[]","internalType":"enum Gear.CodeState[]"}],"stateMutability":"view"},{"type":"function","name":"commitBlocks","inputs":[{"name":"_blockCommitments","type":"tuple[]","internalType":"struct Gear.BlockCommitment[]","components":[{"name":"hash","type":"bytes32","internalType":"bytes32"},{"name":"timestamp","type":"uint48","internalType":"uint48"},{"name":"previousCommittedBlock","type":"bytes32","internalType":"bytes32"},{"name":"predecessorBlock","type":"bytes32","internalType":"bytes32"},{"name":"transitions","type":"tuple[]","internalType":"struct Gear.StateTransition[]","components":[{"name":"actorId","type":"address","internalType":"address"},{"name":"newStateHash","type":"bytes32","internalType":"bytes32"},{"name":"inheritor","type":"address","internalType":"address"},{"name":"valueToReceive","type":"uint128","internalType":"uint128"},{"name":"valueClaims","type":"tuple[]","internalType":"struct Gear.ValueClaim[]","components":[{"name":"messageId","type":"bytes32","internalType":"bytes32"},{"name":"destination","type":"address","internalType":"address"},{"name":"value","type":"uint128","internalType":"uint128"}]},{"name":"messages","type":"tuple[]","internalType":"struct Gear.Message[]","components":[{"name":"id","type":"bytes32","internalType":"bytes32"},{"name":"destination","type":"address","internalType":"address"},{"name":"payload","type":"bytes","internalType":"bytes"},{"name":"value","type":"uint128","internalType":"uint128"},{"name":"replyDetails","type":"tuple","internalType":"struct Gear.ReplyDetails","components":[{"name":"to","type":"bytes32","internalType":"bytes32"},{"name":"code","type":"bytes4","internalType":"bytes4"}]}]}]}]},{"name":"_signatures","type":"bytes[]","internalType":"bytes[]"}],"outputs":[],"stateMutability":"nonpayable"},{"type":"function","name":"commitCodes","inputs":[{"name":"_codeCommitments","type":"tuple[]","internalType":"struct Gear.CodeCommitment[]","components":[{"name":"id","type":"bytes32","internalType":"bytes32"},{"name":"valid","type":"bool","internalType":"bool"}]},{"name":"_signatures","type":"bytes[]","internalType":"bytes[]"}],"outputs":[],"stateMutability":"nonpayable"},{"type":"function","name":"commitValidators","inputs":[{"name":"commitment","type":"tuple","internalType":"struct Gear.ValidatorsCommitment","components":[{"name":"validators","type":"address[]","internalType":"address[]"},{"name":"eraIndex","type":"uint256","internalType":"uint256"}]},{"name":"signatures","type":"bytes[]","internalType":"bytes[]"}],"outputs":[],"stateMutability":"nonpayable"},{"type":"function","name":"computeSettings","inputs":[],"outputs":[{"name":"","type":"tuple","internalType":"struct Gear.ComputationSettings","components":[{"name":"threshold","type":"uint64","internalType":"uint64"},{"name":"wvaraPerSecond","type":"uint128","internalType":"uint128"}]}],"stateMutability":"view"},{"type":"function","name":"createProgram","inputs":[{"name":"_codeId","type":"bytes32","internalType":"bytes32"},{"name":"_salt","type":"bytes32","internalType":"bytes32"}],"outputs":[{"name":"","type":"address","internalType":"address"}],"stateMutability":"nonpayable"},{"type":"function","name":"createProgramWithDecoder","inputs":[{"name":"_decoderImpl","type":"address","internalType":"address"},{"name":"_codeId","type":"bytes32","internalType":"bytes32"},{"name":"_salt","type":"bytes32","internalType":"bytes32"}],"outputs":[{"name":"","type":"address","internalType":"address"}],"stateMutability":"nonpayable"},{"type":"function","name":"executeSlashCommitment","inputs":[{"name":"slashData","type":"tuple[]","internalType":"struct IMiddleware.SlashIdentifier[]","components":[{"name":"vault","type":"address","internalType":"address"},{"name":"index","type":"uint256","internalType":"uint256"}]}],"outputs":[],"stateMutability":"nonpayable"},{"type":"function","name":"genesisBlockHash","inputs":[],"outputs":[{"name":"","type":"bytes32","internalType":"bytes32"}],"stateMutability":"view"},{"type":"function","name":"genesisTimestamp","inputs":[],"outputs":[{"name":"","type":"uint48","internalType":"uint48"}],"stateMutability":"view"},{"type":"function","name":"initialize","inputs":[{"name":"_owner","type":"address","internalType":"address"},{"name":"_mirror","type":"address","internalType":"address"},{"name":"_mirrorProxy","type":"address","internalType":"address"},{"name":"_wrappedVara","type":"address","internalType":"address"},{"name":"_middleware","type":"address","internalType":"address"},{"name":"_eraDuration","type":"uint256","internalType":"uint256"},{"name":"_electionDuration","type":"uint256","internalType":"uint256"},{"name":"_validators","type":"address[]","internalType":"address[]"}],"outputs":[],"stateMutability":"nonpayable"},{"type":"function","name":"isValidator","inputs":[{"name":"_validator","type":"address","internalType":"address"}],"outputs":[{"name":"","type":"bool","internalType":"bool"}],"stateMutability":"view"},{"type":"function","name":"latestCommittedBlockHash","inputs":[],"outputs":[{"name":"","type":"bytes32","internalType":"bytes32"}],"stateMutability":"view"},{"type":"function","name":"lookupGenesisHash","inputs":[],"outputs":[],"stateMutability":"nonpayable"},{"type":"function","name":"middleware","inputs":[],"outputs":[{"name":"","type":"address","internalType":"address"}],"stateMutability":"view"},{"type":"function","name":"mirrorImpl","inputs":[],"outputs":[{"name":"","type":"address","internalType":"address"}],"stateMutability":"view"},{"type":"function","name":"mirrorProxyImpl","inputs":[],"outputs":[{"name":"","type":"address","internalType":"address"}],"stateMutability":"view"},{"type":"function","name":"owner","inputs":[],"outputs":[{"name":"","type":"address","internalType":"address"}],"stateMutability":"view"},{"type":"function","name":"programCodeId","inputs":[{"name":"_programId","type":"address","internalType":"address"}],"outputs":[{"name":"","type":"bytes32","internalType":"bytes32"}],"stateMutability":"view"},{"type":"function","name":"programsCodeIds","inputs":[{"name":"_programsIds","type":"address[]","internalType":"address[]"}],"outputs":[{"name":"","type":"bytes32[]","internalType":"bytes32[]"}],"stateMutability":"view"},{"type":"function","name":"programsCount","inputs":[],"outputs":[{"name":"","type":"uint256","internalType":"uint256"}],"stateMutability":"view"},{"type":"function","name":"reinitialize","inputs":[],"outputs":[],"stateMutability":"nonpayable"},{"type":"function","name":"renounceOwnership","inputs":[],"outputs":[],"stateMutability":"nonpayable"},{"type":"function","name":"requestCodeValidation","inputs":[{"name":"_codeId","type":"bytes32","internalType":"bytes32"},{"name":"_blobTxHash","type":"bytes32","internalType":"bytes32"}],"outputs":[],"stateMutability":"nonpayable"},{"type":"function","name":"requestSlashCommitment","inputs":[{"name":"slashData","type":"tuple[]","internalType":"struct IMiddleware.SlashData[]","components":[{"name":"operator","type":"address","internalType":"address"},{"name":"ts","type":"uint48","internalType":"uint48"},{"name":"vaults","type":"tuple[]","internalType":"struct IMiddleware.VaultSlashData[]","components":[{"name":"vault","type":"address","internalType":"address"},{"name":"amount","type":"uint256","internalType":"uint256"}]}]}],"outputs":[],"stateMutability":"nonpayable"},{"type":"function","name":"setMirror","inputs":[{"name":"newMirror","type":"address","internalType":"address"}],"outputs":[],"stateMutability":"nonpayable"},{"type":"function","name":"signingThresholdPercentage","inputs":[],"outputs":[{"name":"","type":"uint16","internalType":"uint16"}],"stateMutability":"view"},{"type":"function","name":"transferOwnership","inputs":[{"name":"newOwner","type":"address","internalType":"address"}],"outputs":[],"stateMutability":"nonpayable"},{"type":"function","name":"validatedCodesCount","inputs":[],"outputs":[{"name":"","type":"uint256","internalType":"uint256"}],"stateMutability":"view"},{"type":"function","name":"validators","inputs":[],"outputs":[{"name":"","type":"address[]","internalType":"address[]"}],"stateMutability":"view"},{"type":"function","name":"validatorsCount","inputs":[],"outputs":[{"name":"","type":"uint256","internalType":"uint256"}],"stateMutability":"view"},{"type":"function","name":"validatorsThreshold","inputs":[],"outputs":[{"name":"","type":"uint256","internalType":"uint256"}],"stateMutability":"view"},{"type":"function","name":"wrappedVara","inputs":[],"outputs":[{"name":"","type":"address","internalType":"address"}],"stateMutability":"view"},{"type":"event","name":"BlockCommitted","inputs":[{"name":"hash","type":"bytes32","indexed":false,"internalType":"bytes32"}],"anonymous":false},{"type":"event","name":"CodeGotValidated","inputs":[{"name":"codeId","type":"bytes32","indexed":false,"internalType":"bytes32"},{"name":"valid","type":"bool","indexed":true,"internalType":"bool"}],"anonymous":false},{"type":"event","name":"CodeValidationRequested","inputs":[{"name":"codeId","type":"bytes32","indexed":false,"internalType":"bytes32"},{"name":"blobTxHash","type":"bytes32","indexed":false,"internalType":"bytes32"}],"anonymous":false},{"type":"event","name":"ComputationSettingsChanged","inputs":[{"name":"threshold","type":"uint64","indexed":false,"internalType":"uint64"},{"name":"wvaraPerSecond","type":"uint128","indexed":false,"internalType":"uint128"}],"anonymous":false},{"type":"event","name":"Initialized","inputs":[{"name":"version","type":"uint64","indexed":false,"internalType":"uint64"}],"anonymous":false},{"type":"event","name":"NextEraValidatorsCommitted","inputs":[{"name":"startTimestamp","type":"uint256","indexed":false,"internalType":"uint256"}],"anonymous":false},{"type":"event","name":"OwnershipTransferred","inputs":[{"name":"previousOwner","type":"address","indexed":true,"internalType":"address"},{"name":"newOwner","type":"address","indexed":true,"internalType":"address"}],"anonymous":false},{"type":"event","name":"ProgramCreated","inputs":[{"name":"actorId","type":"address","indexed":false,"internalType":"address"},{"name":"codeId","type":"bytes32","indexed":true,"internalType":"bytes32"}],"anonymous":false},{"type":"event","name":"SlashRequestProcessed","inputs":[{"name":"middleware","type":"address","indexed":true,"internalType":"address"},{"name":"slashData","type":"tuple[]","indexed":false,"internalType":"struct IMiddleware.SlashData[]","components":[{"name":"operator","type":"address","internalType":"address"},{"name":"ts","type":"uint48","internalType":"uint48"},{"name":"vaults","type":"tuple[]","internalType":"struct IMiddleware.VaultSlashData[]","components":[{"name":"vault","type":"address","internalType":"address"},{"name":"amount","type":"uint256","internalType":"uint256"}]}]}],"anonymous":false},{"type":"event","name":"SlashRequestProcessed","inputs":[{"name":"middleware","type":"address","indexed":true,"internalType":"address"},{"name":"slashData","type":"tuple[]","indexed":false,"internalType":"struct IMiddleware.SlashIdentifier[]","components":[{"name":"vault","type":"address","internalType":"address"},{"name":"index","type":"uint256","internalType":"uint256"}]}],"anonymous":false},{"type":"event","name":"StorageSlotChanged","inputs":[],"anonymous":false},{"type":"error","name":"ECDSAInvalidSignature","inputs":[]},{"type":"error","name":"ECDSAInvalidSignatureLength","inputs":[{"name":"length","type":"uint256","internalType":"uint256"}]},{"type":"error","name":"ECDSAInvalidSignatureS","inputs":[{"name":"s","type":"bytes32","internalType":"bytes32"}]},{"type":"error","name":"FailedDeployment","inputs":[]},{"type":"error","name":"InsufficientBalance","inputs":[{"name":"balance","type":"uint256","internalType":"uint256"},{"name":"needed","type":"uint256","internalType":"uint256"}]},{"type":"error","name":"InvalidInitialization","inputs":[]},{"type":"error","name":"NotInitializing","inputs":[]},{"type":"error","name":"OwnableInvalidOwner","inputs":[{"name":"owner","type":"address","internalType":"address"}]},{"type":"error","name":"OwnableUnauthorizedAccount","inputs":[{"name":"account","type":"address","internalType":"address"}]},{"type":"error","name":"ReentrancyGuardReentrantCall","inputs":[]}],"bytecode":{"object":"0x6080806040523460aa575f5160206132bc5f395f51905f525460ff8160401c16609b576002600160401b03196001600160401b038216016049575b60405161320d90816100af8239f35b6001600160401b0319166001600160401b039081175f5160206132bc5f395f51905f525581527fc7f505b2f371ae2175ee4913f4499e1f2633a7b5936321eed1cdaeb6115181d290602090a15f80603a565b63f92ee8a960e01b5f5260045ffd5b5f80fdfe6080806040526004361015610012575f80fd5b5f905f3560e01c9081627a32e7146123a85750806301b1d15614611c6a5780631c149d8a14611b1157806328e24b3d14611ae75780632e63ea64146119de5780633d43b4181461198a578063527de0f91461192957806365ecfea2146118f05780636c2eb350146115f3578063715018a61461158a57806382bdeaad1461147257806384d22a4f14611409578063850958101461132957806388f50cf0146112f05780638b1edf1e146112295780638da5cb5b146111f45780638f381dbe146111ae5780639067088e1461116557806396a2ddfa14611137578063977179d514610c3a578063aaf0fe6a1461089d578063baaf0201146107a0578063c13911e81461075c578063c9f16a111461072e578063ca1e7819146106ad578063cacf66ab14610675578063e6fabc091461063c578063e7006a741461051b578063e97d3eb31461030a578063ed612f8c146102d4578063edc872251461028b578063efd81abc14610259578063f2fde38b1461022c578063f4f20ac0146101f35763facd743b1461019e575f80fd5b346101f05760203660031901126101f0576101b7612448565b6101ce5f5160206131985f395f51905f5254612d20565b9060018060a01b03165f52602052602060ff60405f2054166040519015158152f35b80fd5b50346101f057806003193601126101f0575f5160206131985f395f51905f5254600701546040516001600160a01b039091168152602090f35b50346101f05760203660031901126101f057610256610249612448565b610251612b74565b612996565b80f35b50346101f057806003193601126101f057602061ffff60085f5160206131985f395f51905f5254015416604051908152f35b50346101f057806003193601126101f05760206102cc5f5160206131985f395f51905f525461ffff600860016102c084612d20565b01549201541690612e6d565b604051908152f35b50346101f057806003193601126101f057602060016103005f5160206131985f395f51905f5254612d20565b0154604051908152f35b50346101f05760403660031901126101f0576004356001600160401b0381116105175761033b903690600401612418565b91906024356001600160401b038111610513579061035e849236906004016123d2565b935f5160206131985f395f51905f52549261037b8454151561247f565b606095829360128601975b878610156104f6578560061b84018035918287528a60205260ff60408820541660038110156104e25760010361047f57600192610432602061045f94016103cc8161297b565b1561046757828a528d60205260408a20600260ff1982541617905560158c016103f58154612988565b90555b6104018161297b565b15157f460119a8f69a33ed127de517d5ea464e958ce23ef19e4420a8b92bf780bbc2c96020604051868152a261297b565b6040519060208201928352151560f81b60408201526021815261045660418261253b565b5190209061255c565b950194610386565b828a528d60205260408a2060ff1981541690556103f8565b60405162461bcd60e51b815260206004820152603560248201527f636f6465206d7573742062652072657175657374656420666f722076616c6964604482015274185d1a5bdb881d1bc818994818dbdb5b5a5d1d1959605a1b6064820152608490fd5b634e487b7160e01b88526021600452602488fd5b8492610256928861050e936020815191012090612a1a565b61258b565b8280fd5b5080fd5b50346101f05760603660031901126101f057610535612448565b6024359061057d6044359161054a8385612ba7565b93604051936020850191825260408501526040845261056a60608561253b565b92519092206001600160a01b0392613092565b16803b156105135760405163189acdbd60e31b81526001600160a01b0390921660048301819052918390818160248183875af180156106315761061c575b5050813b15610513576040519063485cc95560e01b82523360048301526024820152828160448183865af18015610611576105fc575b602082604051908152f35b61060783809261253b565b61051757816105f1565b6040513d85823e3d90fd5b816106269161253b565b61051357825f6105bb565b6040513d84823e3d90fd5b50346101f057806003193601126101f0575f5160206131985f395f51905f5254600401546040516001600160a01b039091168152602090f35b50346101f057806003193601126101f057602065ffffffffffff60015f5160206131985f395f51905f52540154821c16604051908152f35b50346101f057806003193601126101f0576106e060016106da5f5160206131985f395f51905f5254612d20565b0161267e565b90604051918291602083016020845282518091526020604085019301915b81811061070c575050500390f35b82516001600160a01b03168452859450602093840193909201916001016106fe565b50346101f057806003193601126101f057602060025f5160206131985f395f51905f52540154604051908152f35b50346101f05760203660031901126101f05760ff604060209260125f5160206131985f395f51905f5254016004358252845220541661079e6040518092612472565bf35b50346101f05760203660031901126101f0576004356001600160401b038111610517576107d19036906004016123d2565b905f5160206131985f395f51905f5254906107eb836126cf565b916107f9604051938461253b565b838352610805846126cf565b602084019490601f19013686376013869201915b81811061086457868587604051928392602084019060208552518091526040840192915b81811061084b575050500390f35b825184528594506020938401939092019160010161083d565b8061087a61087560019385886126e6565b612843565b828060a01b03165f528360205260405f2054610896828861270a565b5201610819565b50346101f05760403660031901126101f057600435906001600160401b0382116101f0578160040160406003198436030112610517576024356001600160401b038111610513576108f29036906004016123d2565b91905f5160206131985f395f51905f52549265ffffffffffff600185015460201c169161091f8342612912565b946010810154958615610c26578690049560248901359660018101809111610c12578703610bba578661095191612933565b8401809411610ba657610968601182015485612912565b4210610b615761097781612e53565b954260028801541015610b0157604051986109918a6124f1565b8635906001600160401b038211610afd570136602382011215610af95760206109c5839236906024600482013591016128be565b9a8b8152015260405160208101918260208c51919c01908b5b818110610ada575050506020828c610a0493610a299a9b9c9d9e5203808452018261253b565b5190206040516020810191825260208152610a2060408261253b565b51902090612a1a565b15610a7a57610a70817f41e7f919bf726af8aa2ef36bd31905a693013e30c45c6284060e613d4941997b94610a6a610a6386602097612946565b36916128be565b90612d3a565b604051908152a180f35b60405162461bcd60e51b815260206004820152603260248201527f6e657874206572612076616c696461746f7273207369676e6174757265732076604482015271195c9a599a58d85d1a5bdb8819985a5b195960721b6064820152608490fd5b82516001600160a01b03168e5260209d8e019d909201916001016109de565b8880fd5b8980fd5b60405162461bcd60e51b815260206004820152603260248201527f6c6f6f6b73206c696b652076616c696461746f727320666f72206e65787420656044820152711c9848185c9948185b1c9958591e481cd95d60721b6064820152608490fd5b60405162461bcd60e51b815260206004820152601b60248201527f656c656374696f6e206973206e6f7420796574207374617274656400000000006044820152606490fd5b634e487b7160e01b87526011600452602487fd5b60405162461bcd60e51b815260206004820152602a60248201527f636f6d6d69746d656e742065726120696e646578206973206e6f74206e657874604482015269040cae4c240d2dcc8caf60b31b6064820152608490fd5b634e487b7160e01b89526011600452602489fd5b634e487b7160e01b88526012600452602488fd5b50346101f0576101003660031901126101f057610c55612448565b6024356001600160a01b0381169190829003610513576044356001600160a01b0381169290839003611133576064356001600160a01b038116919082900361112f576084356001600160a01b038116929083900361112b5760c43560a43560e4356001600160401b038111610af957610cd29036906004016123d2565b9590935f5160206131b85f395f51905f52549760ff8960401c1615986001600160401b03811680159081611123575b6001149081611119575b159081611110575b506111015767ffffffffffffffff1981166001175f5160206131b85f395f51905f5255610d5291908a6110d5575b50610d4a612fcd565b610251612fcd565b421561107f5783156110295783831115610fc8576040988951610d758b8261253b565b6017815260208101907f726f757465722e73746f726167652e526f7574657256310000000000000000008252610da9612b74565b5190205f198101908111610fb4578a51906020820190815260208252610dcf8c8361253b565b60ff19915190201696875f5160206131985f395f51905f5255610df0612cdb565b8051895560018901908c69ffffffffffff0000000063ffffffff60208401511691845493015160201b169169ffffffffffffffffffff1916171790558a51608081018181106001600160401b03821117610fa0578c5281815260208101839052808c018490526060018490526004880180546001600160a01b03199081166001600160a01b03938416179091556005890180548216938316939093179092556006880180548316938216939093179092556007870180549091169190921617905560088401805461ffff1916611a0a179055610f46949392600992610f3f92610ed761271e565b506509184e72a00060208b51610eec816124f1565b639502f90081520152600f860180546001600160c01b0319166d09184e72a000000000009502f90017905589518290602090610f27816124f1565b838152015260108601556011850155429436916128be565b9101612d3a565b610f4e575080f35b60207fc7f505b2f371ae2175ee4913f4499e1f2633a7b5936321eed1cdaeb6115181d29160ff60401b195f5160206131b85f395f51905f5254165f5160206131b85f395f51905f52555160018152a180f35b634e487b7160e01b8e52604160045260248efd5b634e487b7160e01b8c52601160045260248cfd5b60405162461bcd60e51b815260206004820152603360248201527f657261206475726174696f6e206d757374206265206772656174657220746861604482015272371032b632b1ba34b7b710323ab930ba34b7b760691b6064820152608490fd5b60405162461bcd60e51b815260206004820152602860248201527f656c656374696f6e206475726174696f6e206d75737420626520677265617465604482015267072207468616e20360c41b6064820152608490fd5b60405162461bcd60e51b815260206004820152602860248201527f63757272656e742074696d657374616d70206d75737420626520677265617465604482015267072207468616e20360c41b6064820152608490fd5b68ffffffffffffffffff191668010000000000000001175f5160206131b85f395f51905f52555f610d41565b63f92ee8a960e01b8c5260048cfd5b9050155f610d13565b303b159150610d0b565b8b9150610d01565b8580fd5b8480fd5b8380fd5b50346101f057806003193601126101f057602060145f5160206131985f395f51905f52540154604051908152f35b50346101f05760203660031901126101f05761117f612448565b60135f5160206131985f395f51905f5254019060018060a01b03165f52602052602060405f2054604051908152f35b50346101f05760203660031901126101f057600435906001600160401b0382116101f05760206111ea6111e436600486016123d2565b90612857565b6040519015158152f35b50346101f057806003193601126101f0575f5160206131785f395f51905f52546040516001600160a01b039091168152602090f35b50346101f057806003193601126101f0575f5160206131985f395f51905f525480546112ab5763ffffffff60018201541640908115611266575580f35b60405162461bcd60e51b815260206004820152601d60248201527f756e61626c6520746f206c6f6f6b75702067656e6573697320686173680000006044820152606490fd5b60405162461bcd60e51b815260206004820152601860248201527f67656e65736973206861736820616c72656164792073657400000000000000006044820152606490fd5b50346101f057806003193601126101f0575f5160206131985f395f51905f5254600601546040516001600160a01b039091168152602090f35b50346101f05760203660031901126101f0576004356001600160401b0381116105175761135a9036906004016123d2565b5f5160206131985f395f51905f5254600701546001600160a01b031691906113838315156125d7565b823b156111335760405163029c425360e21b815284908181806113aa868860048401612736565b038183895af18015610631576113f4575b50507f5740fbde93cfd45f0bb394e5a02ca533fd143698b75d8d4a2d7ce911beaab421916113ee60405192839283612736565b0390a280f35b816113fe9161253b565b61113357835f6113bb565b50346101f057806003193601126101f05761142261271e565b506040600f5f5160206131985f395f51905f5254016001600160801b0382519161144b836124f1565b548160206001600160401b038316948581520191851c168152835192835251166020820152f35b50346101f05760203660031901126101f0576004356001600160401b038111610517576114a39036906004016123d2565b905f5160206131985f395f51905f5254906114bd836126cf565b916114cb604051938461253b565b8383526114d7846126cf565b602084019490601f19013686376012869201915b81811061154057868587604051928392602084019060208552518091526040840192915b81811061151d575050500390f35b91935091602080826115326001948851612472565b01940191019184939261150f565b61154b8183866126e6565b3587528260205260ff604088205416611564828761270a565b600382101561157657526001016114eb565b634e487b7160e01b89526021600452602489fd5b50346101f057806003193601126101f0576115a3612b74565b5f5160206131785f395f51905f5280546001600160a01b0319811690915581906001600160a01b03167f8be0079c531659141344cd1fd0a4f28419497f9722a3daafe3b4186f6b6457e08280a380f35b50346101f057806003193601126101f05761160c612b74565b5f5160206131b85f395f51905f525460ff8160401c1680156118dc575b6118cd57680100000000000000029068ffffffffffffffffff1916175f5160206131b85f395f51905f52555f5160206131985f395f51905f52546040908151611672838261253b565b6017815260208101907f726f757465722e73746f726167652e526f75746572563200000000000000000082526116a6612b74565b5190205f1981019081116118b957916020917fc7f505b2f371ae2175ee4913f4499e1f2633a7b5936321eed1cdaeb6115181d2938251908482019081528482526116f0848361253b565b60ff19915190201690815f5160206131985f395f51905f5255611711612cdb565b80518355600183019063ffffffff868201511669ffffffffffff00000000868454930151881b169169ffffffffffffffffffff191617179055600481016004830190808203611855575b505061ffff600882015416600883019061ffff19825416179055611797600161178383612d20565b0161178e429161267e565b60098501612d3a565b600f8101600f830190808203611803575b50506010810160108301918183036117ed575b5050505060ff60401b195f5160206131b85f395f51905f5254165f5160206131b85f395f51905f52555160028152a180f35b601192839254905501549101555f8080806117bb565b806001600160401b03806001600160801b03935416166001600160401b031984541617835554851c16600160401b600160c01b03825491861b1690600160401b600160c01b0319161790555f806117a8565b5481546001600160a01b03199081166001600160a01b03928316179092556005838101549085018054841691831691909117905560068084015490850180548416918316919091179055600780840154908501805490931691161790555f8061175b565b634e487b7160e01b84526011600452602484fd5b63f92ee8a960e01b8252600482fd5b5060026001600160401b0382161015611629565b50346101f057806003193601126101f0575f5160206131985f395f51905f5254600501546040516001600160a01b039091168152602090f35b50346101f05761194a61193b36612402565b6001600160a01b039291612ba7565b16803b156105175760405163485cc95560e01b815233600482015260248101839052828160448183865af18015610611576105fc57602082604051908152f35b50346101f05760203660031901126101f0576119a4612448565b6119ac612b74565b5f5160206131985f395f51905f525460040180546001600160a01b0319166001600160a01b0390921691909117905580f35b5034611ae3576020366003190112611ae3576004356001600160401b038111611ae357611a0f903690600401612418565b5f5160206131985f395f51905f5254600701546001600160a01b031691611a378315156125d7565b823b15611ae35760405163af96299560e01b81525f8180611a5c868660048401612643565b038183885af18015611ad857611aa0575b50907fd8d979c970d979c571440ba9e5cf0a4aadf5410702fb65167657178c5c257167916113ee60405192839283612643565b7fd8d979c970d979c571440ba9e5cf0a4aadf5410702fb65167657178c5c257167929194505f611acf9161253b565b5f939091611a6d565b6040513d5f823e3d90fd5b5f80fd5b34611ae3575f366003190112611ae35760205f5160206131985f395f51905f525454604051908152f35b34611ae357611b1f36612402565b908115801590611c60575b15611c255760125f5160206131985f395f51905f5254611b4c8154151561247f565b0190805f528160205260ff60405f2054166003811015611c1157611bb0577f65672eaf4ff8b823ea29ae013fef437d1fa9ed431125263a7a1f0ac49eada39692604092825f52602052825f20600160ff1982541617905582519182526020820152a1005b60405162461bcd60e51b815260206004820152603360248201527f676976656e20636f646520696420697320616c7265616479206f6e2076616c6960448201527219185d1a5bdb881bdc881d985b1a59185d1959606a1b6064820152608490fd5b634e487b7160e01b5f52602160045260245ffd5b60405162461bcd60e51b8152602060048201526013602482015272189b1bd88818d85b89dd08189948199bdd5b99606a1b6044820152606490fd5b505f491515611b2a565b34611ae3576040366003190112611ae3576004356001600160401b038111611ae357611c9a9036906004016123d2565b6024356001600160401b038111611ae357611cb99036906004016123d2565b90927f9b779b17422d0df92223018b32b4d1fa46e071723d6817e2486d003becc55f005c6123995760017f9b779b17422d0df92223018b32b4d1fa46e071723d6817e2486d003becc55f005d5f5160206131985f395f51905f525491611d218354151561247f565b60605f915b8583101561235d578260051b840135609e1985360301811215611ae357840190600286015460408301350361230a57611d626060830135612e8f565b156122b657949396959291906020611d7b818301612a07565b65ffffffffffff60405191611d8f836124f1565b843583521691829101528135600287015565ffffffffffff19600387015416176003860155611dc16080820182612946565b9690946060995f925b89841015612213578360051b88013560be1989360301811215611ae35788019b611df38d612843565b6001600160a01b03165f90815260138b016020526040902054156121b65760068a01548d906001600160a01b03166060611e2c83612843565b92019182356001600160801b038116809103611ae35760405163a9059cbb60e01b81526001600160a01b039092166004830152602482015290602090829060449082905f905af18015611ad857612180575b506001600160a01b03611e908f612843565b6040516309ed323560e41b8152602060048201529f9116918f919060e48301906001600160801b0390611efd906001600160a01b03611ece8661245e565b166024870152602085013560448701526001600160a01b03611ef26040870161245e565b166064870152612ed2565b16608484015236829003601e190190608083013582811215611ae357830190602082359201946001600160401b038311611ae3576060830236038613611ae357826101049260c060a4840152520193905f905b808210612136575050509e9f939495969798999a9b9c9d9e60a082013590811215611ae3570190813560208301926001600160401b038211611ae3578160051b918236038513611ae3578684036023190160c48801528084528694928401602090810194908101925f923682900360de19019290915b82851061203d575050505050505091815f8160209503925af1908115611ad8575f9161200b575b50611ffa9060019261255c565b9b9a99989796959401929190611dca565b90506020813d8211612035575b816120256020938361253b565b81010312611ae357516001611fed565b3d9150612018565b9193959750919395601f19838203018752873585811215611ae357820160208101358252906001600160a01b036120766040840161245e565b1660208201526060820135603e193684900301811215611ae35782602091010191602083359301906001600160401b038411611ae3578336038213611ae3578360c092836040860152818486015260e08501375f60e085850101526001600160801b036120e560808301612ed2565b16606084015260a0810135608084015201359163ffffffff60e01b8316809303611ae35760e0826020939260019560a086950152601f80199101160101990197019501929091899796959492611fc6565b90919460608060019288358152838060a01b0361215560208b0161245e565b1660208201526001600160801b0361216f60408b01612ed2565b166040820152019601920190611f50565b6020813d82116121ae575b816121986020938361253b565b81010312611ae357518015158114611e7e575f80fd5b3d915061218b565b60405162461bcd60e51b815260206004820152602f60248201527f636f756c646e277420706572666f726d207472616e736974696f6e20666f722060448201526e756e6b6e6f776e2070726f6772616d60881b6064820152608490fd5b96509697509793986001939150916122ad9260208151910120907fd756eca21e02cb0dbde1e44a4d9c6921b5c8aa4668cfa0752784b3dc855bce1e602060405183358152a161226460208201612a07565b9160606040519260208401948135865265ffffffffffff60d01b9060d01b166040850152604081013560468501520135606683015260868201526086815261045660a68261253b565b91960191611d26565b60405162461bcd60e51b815260206004820152602660248201527f616c6c6f776564207072656465636573736f7220626c6f636b207761736e277460448201526508199bdd5b9960d21b6064820152608490fd5b60405162461bcd60e51b815260206004820152602560248201527f696e76616c69642070726576696f757320636f6d6d697474656420626c6f636b604482015264040d0c2e6d60db1b6064820152608490fd5b61050e908786612374946020815191012090612a1a565b5f7f9b779b17422d0df92223018b32b4d1fa46e071723d6817e2486d003becc55f005d005b633ee5aeb560e01b5f5260045ffd5b34611ae3575f366003190112611ae35760209060155f5160206131985f395f51905f525401548152f35b9181601f84011215611ae3578235916001600160401b038311611ae3576020808501948460051b010111611ae357565b6040906003190112611ae3576004359060243590565b9181601f84011215611ae3578235916001600160401b038311611ae3576020808501948460061b010111611ae357565b600435906001600160a01b0382168203611ae357565b35906001600160a01b0382168203611ae357565b906003821015611c115752565b1561248657565b60405162461bcd60e51b815260206004820152603860248201527f726f757465722067656e65736973206973207a65726f3b2063616c6c20606c6f60448201527f6f6b757047656e657369734861736828296020666972737400000000000000006064820152608490fd5b604081019081106001600160401b0382111761250c57604052565b634e487b7160e01b5f52604160045260245ffd5b606081019081106001600160401b0382111761250c57604052565b90601f801991011681019081106001600160401b0382111761250c57604052565b602080612589928195946040519682889351918291018585015e820190838201520301808552018361253b565b565b1561259257565b60405162461bcd60e51b815260206004820152601e60248201527f7369676e61747572657320766572696669636174696f6e206661696c656400006044820152606490fd5b156125de57565b60405162461bcd60e51b815260206004820152601a60248201527f4d6964646c65776172652061646472657373206e6f74207365740000000000006044820152606490fd5b60209081906001600160a01b036126398261245e565b1684520135910152565b60208082528101839052604001915f5b8181106126605750505090565b9091926040808261267360019488612623565b019401929101612653565b90604051918281549182825260208201905f5260205f20925f5b8181106126ad5750506125899250038361253b565b84546001600160a01b0316835260019485019487945060209093019201612698565b6001600160401b03811161250c5760051b60200190565b91908110156126f65760051b0190565b634e487b7160e01b5f52603260045260245ffd5b80518210156126f65760209160051b010190565b6040519061272b826124f1565b5f6020838281520152565b9180602084016020855252604083019260408260051b82010193835f92605e1982360301905b85851061276d575050505050505090565b90919293949596603f19828203018552873583811215611ae357606082019085016001600160a01b0361279f8261245e565b168352602081013565ffffffffffff8116809103611ae35760208401526040810135601e1982360301811215611ae3570190602082359201926001600160401b038311611ae3578260061b36038413611ae3578260809260606040840152520191905f905b8082106128255750505060208060019299019501950193959492919061275c565b9091926040808261283860019488612623565b019401920190612804565b356001600160a01b0381168103611ae35790565b61286e5f5160206131985f395f51905f5254612d20565b905f5b8381106128815750505050600190565b61288f6108758286856126e6565b6001600160a01b03165f9081526020849052604090205460ff16156128b657600101612871565b505050505f90565b9291906128ca816126cf565b936128d8604051958661253b565b602085838152019160051b8101928311611ae357905b8282106128fa57505050565b602080916129078461245e565b8152019101906128ee565b9190820391821161291f57565b634e487b7160e01b5f52601160045260245ffd5b8181029291811591840414171561291f57565b903590601e1981360301821215611ae357018035906001600160401b038211611ae357602001918160051b36038313611ae357565b358015158103611ae35790565b5f19811461291f5760010190565b6001600160a01b031680156129f4575f5160206131785f395f51905f5280546001600160a01b0319811683179091556001600160a01b03167f8be0079c531659141344cd1fd0a4f28419497f9722a3daafe3b4186f6b6457e05f80a3565b631e4fbdf760e01b5f525f60045260245ffd5b3565ffffffffffff81168103611ae35790565b919091612a3e612a2982612d20565b9161ffff600860018501549201541690612e6d565b92604051906020820190815260208252612a5960408361253b565b612a95603660405180936020820195601960f81b87523060601b60228401525180918484015e81015f838201520301601f19810183528261253b565b5190205f925f5b86811015612b69578060051b820135601e1983360301811215611ae35782018035906001600160401b038211611ae35760208101908236038213611ae35760405190612af2601f8501601f19166020018361253b565b8382526020843692010111611ae3575f602084612b2495612b1b95838601378301015285612ff8565b90929192613032565b6001600160a01b03165f9081526020859052604090205460ff16612b4b575b600101612a9c565b93612b5590612988565b93858503612b435750505050505050600190565b505050505050505f90565b5f5160206131785f395f51905f52546001600160a01b03163303612b9457565b63118cdaa760e01b5f523360045260245ffd5b5f5160206131985f395f51905f525491612bc38354151561247f565b815f526012830160205260ff60405f2054166003811015611c1157600203612c7f57612c2160149160018060a01b03600586015416906040516020810191868352604082015260408152612c1860608261253b565b51902090613092565b9260018060a01b0384165f52601381016020528260405f205501612c458154612988565b90556040516001600160a01b03831681527f8008ec1d8798725ebfa0f2d128d52e8e717dcba6e0f786557eeee70614b02bf190602090a290565b60405162461bcd60e51b815260206004820152602e60248201527f636f6465206d7573742062652076616c696461746564206265666f726520707260448201526d37b3b930b69031b932b0ba34b7b760911b6064820152608490fd5b5f60408051612ce981612520565b8281528260208201520152604051612d0081612520565b5f815263ffffffff4316602082015265ffffffffffff4216604082015290565b612d2981612ee6565b15612d3457600c0190565b60090190565b905f5b60018301908154811015612d7a575f91825260208083208201546001600160a01b031683528490526040909120805460ff19169055600101612d3d565b50505f5b8151811015612dbf576001906001600160a01b03612d9c828561270a565b5116828060a01b03165f528360205260405f208260ff1982541617905501612d7e565b50600182018151916001600160401b03831161250c5768010000000000000000831161250c578154838355808410612e2d575b50602001905f5260205f205f5b838110612e10575050505060020155565b82516001600160a01b031681830155602090920191600101612dff565b825f528360205f2091820191015b818110612e485750612df2565b5f8155600101612e3b565b612e5c81612ee6565b15612e675760090190565b600c0190565b61ffff612e7b921690612933565b61270f810180911161291f57612710900490565b905f19430143811161291f57805b612ea8575b505f9150565b8040838103612eb957506001925050565b15612ecd57801561291f575f190180612e9d565b612ea2565b35906001600160801b0382168203611ae357565b600e600b820154910154808214612f895780821091421090811590421015918190612f82575b15612f215782612f1b57505090565b14919050565b60405162461bcd60e51b815260206004820152603360248201527f636f756c64206e6f74206964656e746966792076616c696461746f727320666f6044820152720722063757272656e742074696d657374616d7606c1b6064820152608490fd5b5081612f0c565b606460405162461bcd60e51b815260206004820152602060248201527f657261732074696d657374616d70206d757374206e6f7420626520657175616c6044820152fd5b60ff5f5160206131b85f395f51905f525460401c1615612fe957565b631afcd79f60e31b5f5260045ffd5b8151919060418303613028576130219250602082015190606060408401519301515f1a906130f5565b9192909190565b50505f9160029190565b6004811015611c115780613044575050565b6001810361305b5763f645eedf60e01b5f5260045ffd5b60028103613076575063fce698f760e01b5f5260045260245ffd5b6003146130805750565b6335e2f38360e21b5f5260045260245ffd5b6e5af43d82803e903d91602b57fd5bf390763d602d80600a3d3981f3363d3d373d3d3d363d7300000062ffffff8260881c16175f5260781b17602052603760095ff5906001600160a01b038216156130e657565b63b06ebf3d60e01b5f5260045ffd5b91907f7fffffffffffffffffffffffffffffff5d576e7357a4501ddfe92f46681b20a0841161316c579160209360809260ff5f9560405194855216868401526040830152606082015282805260015afa15611ad8575f516001600160a01b0381161561316257905f905f90565b505f906001905f90565b5050505f916003919056fe9016d09d72d40fdae2fd8ceac6b6234c7706214fd39c1cd1e609a0528c1993005c09ca1b9b8127a4fd9f3c384aac59b661441e820e17733753ff5f2e86e1e000f0c57e16840df040f15088dc2f81fe391c3923bec73e23a9662efc9c229c6a00a264697066735822122047b6bb7c045c9f35f739f67bc05919bd377441c845dc13dd1f06bb9a30fd85bd64736f6c634300081c0033f0c57e16840df040f15088dc2f81fe391c3923bec73e23a9662efc9c229c6a00","linkReferences":{}},"methodIdentifiers":{"areValidators(address[])":"8f381dbe","codeState(bytes32)":"c13911e8","codesStates(bytes32[])":"82bdeaad","commitBlocks((bytes32,uint48,bytes32,bytes32,(address,bytes32,address,uint128,(bytes32,address,uint128)[],(bytes32,address,bytes,uint128,(bytes32,bytes4))[])[])[],bytes[])":"01b1d156","commitCodes((bytes32,bool)[],bytes[])":"e97d3eb3","commitValidators((address[],uint256),bytes[])":"aaf0fe6a","computeSettings()":"84d22a4f","createProgram(bytes32,bytes32)":"527de0f9","createProgramWithDecoder(address,bytes32,bytes32)":"e7006a74","executeSlashCommitment((address,uint256)[])":"2e63ea64","genesisBlockHash()":"28e24b3d","genesisTimestamp()":"cacf66ab","initialize(address,address,address,address,address,uint256,uint256,address[])":"977179d5","isValidator(address)":"facd743b","latestCommittedBlockHash()":"c9f16a11","lookupGenesisHash()":"8b1edf1e","middleware()":"f4f20ac0","mirrorImpl()":"e6fabc09","mirrorProxyImpl()":"65ecfea2","owner()":"8da5cb5b","programCodeId(address)":"9067088e","programsCodeIds(address[])":"baaf0201","programsCount()":"96a2ddfa","reinitialize()":"6c2eb350","renounceOwnership()":"715018a6","requestCodeValidation(bytes32,bytes32)":"1c149d8a","requestSlashCommitment((address,uint48,(address,uint256)[])[])":"85095810","setMirror(address)":"3d43b418","signingThresholdPercentage()":"efd81abc","transferOwnership(address)":"f2fde38b","validatedCodesCount()":"007a32e7","validators()":"ca1e7819","validatorsCount()":"ed612f8c","validatorsThreshold()":"edc87225","wrappedVara()":"88f50cf0"},"storageLayout":{"storage":[],"types":{}},"id":121}