{"abi":[{"type":"constructor","inputs":[],"stateMutability":"nonpayable"},{"type":"function","name":"areValidators","inputs":[{"name":"_validators","type":"address[]","internalType":"address[]"}],"outputs":[{"name":"","type":"bool","internalType":"bool"}],"stateMutability":"view"},{"type":"function","name":"codeState","inputs":[{"name":"_codeId","type":"bytes32","internalType":"bytes32"}],"outputs":[{"name":"","type":"uint8","internalType":"enum Gear.CodeState"}],"stateMutability":"view"},{"type":"function","name":"codesStates","inputs":[{"name":"_codesIds","type":"bytes32[]","internalType":"bytes32[]"}],"outputs":[{"name":"","type":"uint8[]","internalType":"enum Gear.CodeState[]"}],"stateMutability":"view"},{"type":"function","name":"commitBatch","inputs":[{"name":"_batch","type":"tuple","internalType":"struct Gear.BatchCommitment","components":[{"name":"blockHash","type":"bytes32","internalType":"bytes32"},{"name":"blockTimestamp","type":"uint48","internalType":"uint48"},{"name":"previousCommittedBatchHash","type":"bytes32","internalType":"bytes32"},{"name":"chainCommitment","type":"tuple[]","internalType":"struct Gear.ChainCommitment[]","components":[{"name":"transitions","type":"tuple[]","internalType":"struct Gear.StateTransition[]","components":[{"name":"actorId","type":"address","internalType":"address"},{"name":"newStateHash","type":"bytes32","internalType":"bytes32"},{"name":"exited","type":"bool","internalType":"bool"},{"name":"inheritor","type":"address","internalType":"address"},{"name":"valueToReceive","type":"uint128","internalType":"uint128"},{"name":"valueClaims","type":"tuple[]","internalType":"struct Gear.ValueClaim[]","components":[{"name":"messageId","type":"bytes32","internalType":"bytes32"},{"name":"destination","type":"address","internalType":"address"},{"name":"value","type":"uint128","internalType":"uint128"}]},{"name":"messages","type":"tuple[]","internalType":"struct Gear.Message[]","components":[{"name":"id","type":"bytes32","internalType":"bytes32"},{"name":"destination","type":"address","internalType":"address"},{"name":"payload","type":"bytes","internalType":"bytes"},{"name":"value","type":"uint128","internalType":"uint128"},{"name":"replyDetails","type":"tuple","internalType":"struct Gear.ReplyDetails","components":[{"name":"to","type":"bytes32","internalType":"bytes32"},{"name":"code","type":"bytes4","internalType":"bytes4"}]},{"name":"call","type":"bool","internalType":"bool"}]}]},{"name":"head","type":"bytes32","internalType":"bytes32"}]},{"name":"codeCommitments","type":"tuple[]","internalType":"struct Gear.CodeCommitment[]","components":[{"name":"id","type":"bytes32","internalType":"bytes32"},{"name":"valid","type":"bool","internalType":"bool"}]},{"name":"rewardsCommitment","type":"tuple[]","internalType":"struct Gear.RewardsCommitment[]","components":[{"name":"operators","type":"tuple","internalType":"struct Gear.OperatorRewardsCommitment","components":[{"name":"amount","type":"uint256","internalType":"uint256"},{"name":"root","type":"bytes32","internalType":"bytes32"}]},{"name":"stakers","type":"tuple","internalType":"struct Gear.StakerRewardsCommitment","components":[{"name":"distribution","type":"tuple[]","internalType":"struct Gear.StakerRewards[]","components":[{"name":"vault","type":"address","internalType":"address"},{"name":"amount","type":"uint256","internalType":"uint256"}]},{"name":"totalAmount","type":"uint256","internalType":"uint256"},{"name":"token","type":"address","internalType":"address"}]},{"name":"timestamp","type":"uint48","internalType":"uint48"}]},{"name":"validatorsCommitment","type":"tuple[]","internalType":"struct Gear.ValidatorsCommitment[]","components":[{"name":"aggregatedPublicKey","type":"tuple","internalType":"struct Gear.AggregatedPublicKey","components":[{"name":"x","type":"uint256","internalType":"uint256"},{"name":"y","type":"uint256","internalType":"uint256"}]},{"name":"verifiableSecretSharingCommitment","type":"bytes","internalType":"bytes"},{"name":"validators","type":"address[]","internalType":"address[]"},{"name":"eraIndex","type":"uint256","internalType":"uint256"}]}]},{"name":"_signatureType","type":"uint8","internalType":"enum Gear.SignatureType"},{"name":"_signatures","type":"bytes[]","internalType":"bytes[]"}],"outputs":[],"stateMutability":"nonpayable"},{"type":"function","name":"computeSettings","inputs":[],"outputs":[{"name":"","type":"tuple","internalType":"struct Gear.ComputationSettings","components":[{"name":"threshold","type":"uint64","internalType":"uint64"},{"name":"wvaraPerSecond","type":"uint128","internalType":"uint128"}]}],"stateMutability":"view"},{"type":"function","name":"createProgram","inputs":[{"name":"_codeId","type":"bytes32","internalType":"bytes32"},{"name":"_salt","type":"bytes32","internalType":"bytes32"},{"name":"_overrideInitializer","type":"address","internalType":"address"}],"outputs":[{"name":"","type":"address","internalType":"address"}],"stateMutability":"nonpayable"},{"type":"function","name":"createProgramWithAbiInterface","inputs":[{"name":"_codeId","type":"bytes32","internalType":"bytes32"},{"name":"_salt","type":"bytes32","internalType":"bytes32"},{"name":"_overrideInitializer","type":"address","internalType":"address"},{"name":"_abiInterface","type":"address","internalType":"address"}],"outputs":[{"name":"","type":"address","internalType":"address"}],"stateMutability":"nonpayable"},{"type":"function","name":"genesisBlockHash","inputs":[],"outputs":[{"name":"","type":"bytes32","internalType":"bytes32"}],"stateMutability":"view"},{"type":"function","name":"genesisTimestamp","inputs":[],"outputs":[{"name":"","type":"uint48","internalType":"uint48"}],"stateMutability":"view"},{"type":"function","name":"initialize","inputs":[{"name":"_owner","type":"address","internalType":"address"},{"name":"_mirror","type":"address","internalType":"address"},{"name":"_wrappedVara","type":"address","internalType":"address"},{"name":"_middleware","type":"address","internalType":"address"},{"name":"_eraDuration","type":"uint48","internalType":"uint48"},{"name":"_electionDuration","type":"uint256","internalType":"uint256"},{"name":"_validationDelay","type":"uint256","internalType":"uint256"},{"name":"_aggregatedPublicKey","type":"tuple","internalType":"struct Gear.AggregatedPublicKey","components":[{"name":"x","type":"uint256","internalType":"uint256"},{"name":"y","type":"uint256","internalType":"uint256"}]},{"name":"_verifiableSecretSharingCommitment","type":"bytes","internalType":"bytes"},{"name":"_validators","type":"address[]","internalType":"address[]"}],"outputs":[],"stateMutability":"nonpayable"},{"type":"function","name":"isValidator","inputs":[{"name":"_validator","type":"address","internalType":"address"}],"outputs":[{"name":"","type":"bool","internalType":"bool"}],"stateMutability":"view"},{"type":"function","name":"latestCommittedBatchHash","inputs":[],"outputs":[{"name":"","type":"bytes32","internalType":"bytes32"}],"stateMutability":"view"},{"type":"function","name":"latestCommittedBatchTimestamp","inputs":[],"outputs":[{"name":"","type":"uint48","internalType":"uint48"}],"stateMutability":"view"},{"type":"function","name":"latestRewardedEraIndex","inputs":[],"outputs":[{"name":"","type":"uint256","internalType":"uint256"}],"stateMutability":"view"},{"type":"function","name":"lookupGenesisHash","inputs":[],"outputs":[],"stateMutability":"nonpayable"},{"type":"function","name":"mirrorImpl","inputs":[],"outputs":[{"name":"","type":"address","internalType":"address"}],"stateMutability":"view"},{"type":"function","name":"owner","inputs":[],"outputs":[{"name":"","type":"address","internalType":"address"}],"stateMutability":"view"},{"type":"function","name":"programCodeId","inputs":[{"name":"_programId","type":"address","internalType":"address"}],"outputs":[{"name":"","type":"bytes32","internalType":"bytes32"}],"stateMutability":"view"},{"type":"function","name":"programsCodeIds","inputs":[{"name":"_programsIds","type":"address[]","internalType":"address[]"}],"outputs":[{"name":"","type":"bytes32[]","internalType":"bytes32[]"}],"stateMutability":"view"},{"type":"function","name":"programsCount","inputs":[],"outputs":[{"name":"","type":"uint256","internalType":"uint256"}],"stateMutability":"view"},{"type":"function","name":"reinitialize","inputs":[],"outputs":[],"stateMutability":"nonpayable"},{"type":"function","name":"renounceOwnership","inputs":[],"outputs":[],"stateMutability":"nonpayable"},{"type":"function","name":"requestCodeValidation","inputs":[{"name":"_codeId","type":"bytes32","internalType":"bytes32"}],"outputs":[],"stateMutability":"nonpayable"},{"type":"function","name":"setMirror","inputs":[{"name":"newMirror","type":"address","internalType":"address"}],"outputs":[],"stateMutability":"nonpayable"},{"type":"function","name":"signingThresholdPercentage","inputs":[],"outputs":[{"name":"","type":"uint16","internalType":"uint16"}],"stateMutability":"view"},{"type":"function","name":"timelines","inputs":[],"outputs":[{"name":"","type":"tuple","internalType":"struct Gear.Timelines","components":[{"name":"era","type":"uint48","internalType":"uint48"},{"name":"election","type":"uint256","internalType":"uint256"},{"name":"validationDelay","type":"uint256","internalType":"uint256"}]}],"stateMutability":"view"},{"type":"function","name":"transferOwnership","inputs":[{"name":"newOwner","type":"address","internalType":"address"}],"outputs":[],"stateMutability":"nonpayable"},{"type":"function","name":"validatedCodesCount","inputs":[],"outputs":[{"name":"","type":"uint256","internalType":"uint256"}],"stateMutability":"view"},{"type":"function","name":"validators","inputs":[],"outputs":[{"name":"","type":"address[]","internalType":"address[]"}],"stateMutability":"view"},{"type":"function","name":"validatorsAggregatedPublicKey","inputs":[],"outputs":[{"name":"","type":"tuple","internalType":"struct Gear.AggregatedPublicKey","components":[{"name":"x","type":"uint256","internalType":"uint256"},{"name":"y","type":"uint256","internalType":"uint256"}]}],"stateMutability":"view"},{"type":"function","name":"validatorsCount","inputs":[],"outputs":[{"name":"","type":"uint256","internalType":"uint256"}],"stateMutability":"view"},{"type":"function","name":"validatorsThreshold","inputs":[],"outputs":[{"name":"","type":"uint256","internalType":"uint256"}],"stateMutability":"view"},{"type":"function","name":"validatorsVerifiableSecretSharingCommitment","inputs":[],"outputs":[{"name":"","type":"bytes","internalType":"bytes"}],"stateMutability":"view"},{"type":"function","name":"wrappedVara","inputs":[],"outputs":[{"name":"","type":"address","internalType":"address"}],"stateMutability":"view"},{"type":"event","name":"BatchCommitted","inputs":[{"name":"hash","type":"bytes32","indexed":false,"internalType":"bytes32"}],"anonymous":false},{"type":"event","name":"CodeGotValidated","inputs":[{"name":"codeId","type":"bytes32","indexed":false,"internalType":"bytes32"},{"name":"valid","type":"bool","indexed":true,"internalType":"bool"}],"anonymous":false},{"type":"event","name":"CodeValidationRequested","inputs":[{"name":"codeId","type":"bytes32","indexed":false,"internalType":"bytes32"}],"anonymous":false},{"type":"event","name":"ComputationSettingsChanged","inputs":[{"name":"threshold","type":"uint64","indexed":false,"internalType":"uint64"},{"name":"wvaraPerSecond","type":"uint128","indexed":false,"internalType":"uint128"}],"anonymous":false},{"type":"event","name":"HeadCommitted","inputs":[{"name":"head","type":"bytes32","indexed":false,"internalType":"bytes32"}],"anonymous":false},{"type":"event","name":"Initialized","inputs":[{"name":"version","type":"uint64","indexed":false,"internalType":"uint64"}],"anonymous":false},{"type":"event","name":"NextEraValidatorsCommitted","inputs":[{"name":"startTimestamp","type":"uint256","indexed":false,"internalType":"uint256"}],"anonymous":false},{"type":"event","name":"OwnershipTransferred","inputs":[{"name":"previousOwner","type":"address","indexed":true,"internalType":"address"},{"name":"newOwner","type":"address","indexed":true,"internalType":"address"}],"anonymous":false},{"type":"event","name":"ProgramCreated","inputs":[{"name":"actorId","type":"address","indexed":false,"internalType":"address"},{"name":"codeId","type":"bytes32","indexed":true,"internalType":"bytes32"}],"anonymous":false},{"type":"event","name":"RewardsDistributed","inputs":[{"name":"eraIndex","type":"uint256","indexed":false,"internalType":"uint256"}],"anonymous":false},{"type":"event","name":"StorageSlotChanged","inputs":[],"anonymous":false},{"type":"error","name":"ECDSAInvalidSignature","inputs":[]},{"type":"error","name":"ECDSAInvalidSignatureLength","inputs":[{"name":"length","type":"uint256","internalType":"uint256"}]},{"type":"error","name":"ECDSAInvalidSignatureS","inputs":[{"name":"s","type":"bytes32","internalType":"bytes32"}]},{"type":"error","name":"InvalidInitialization","inputs":[]},{"type":"error","name":"NotInitializing","inputs":[]},{"type":"error","name":"OwnableInvalidOwner","inputs":[{"name":"owner","type":"address","internalType":"address"}]},{"type":"error","name":"OwnableUnauthorizedAccount","inputs":[{"name":"account","type":"address","internalType":"address"}]},{"type":"error","name":"ReentrancyGuardReentrantCall","inputs":[]}],"bytecode":{"object":"0x6080806040523460aa575f5160206143f65f395f51905f525460ff8160401c16609b576002600160401b03196001600160401b038216016049575b60405161434790816100af8239f35b6001600160401b0319166001600160401b039081175f5160206143f65f395f51905f525581527fc7f505b2f371ae2175ee4913f4499e1f2633a7b5936321eed1cdaeb6115181d290602090a15f80603a565b63f92ee8a960e01b5f5260045ffd5b5f80fdfe6080806040526004361015610012575f80fd5b5f905f3560e01c9081627a32e714612350575080630749fc7114611d675780630c18d27714611861578063120e3f1e146116d557806328e24b3d146116a75780633683c4d21461141a5780633bd109fa146113cb5780633d43b418146113775780636c2eb35014611017578063715018a614610fae57806371a8cf2d14610f8057806382bdeaad14610e6857806384d22a4f14610dff57806388f50cf014610dc65780638961edeb1461080a5780638b1edf1e1461073f5780638da5cb5b1461070a5780638f381dbe146106c45780639067088e1461067b57806396a2ddfa1461064d5780639eb939a8146105d9578063a5d53a441461056b578063baaf02011461046a578063bf34281f1461043c578063c13911e8146103f8578063ca1e781914610375578063cacf66ab1461033d578063d456fd5114610307578063e6fabc09146102ce578063ed612f8c14610296578063edc872251461024c578063efd81abc1461021a578063f2fde38b146101ed5763facd743b14610193575f80fd5b346101ea5760203660031901126101ea576101ac6123d6565b60036101c75f5160206143075f395f51905f52544290613eb7565b019060018060a01b03165f52602052602060ff60405f2054166040519015158152f35b80fd5b50346101ea5760203660031901126101ea5761021761020a6123d6565b610212613b27565b61275f565b80f35b50346101ea57806003193601126101ea57602061ffff60085f5160206143075f395f51905f5254015416604051908152f35b50346101ea57806003193601126101ea57602061028e5f5160206143075f395f51905f525461ffff600860046102824285613eb7565b01549201541690613e52565b604051908152f35b50346101ea57806003193601126101ea57602060046102c45f5160206143075f395f51905f52544290613eb7565b0154604051908152f35b50346101ea57806003193601126101ea575f5160206143075f395f51905f5254600501546040516001600160a01b039091168152602090f35b50346101ea57806003193601126101ea57602065ffffffffffff60045f5160206143075f395f51905f5254015416604051908152f35b50346101ea57806003193601126101ea57602065ffffffffffff60025f5160206143075f395f51905f52540154821c16604051908152f35b50346101ea57806003193601126101ea576103aa60046103a45f5160206143075f395f51905f52544290613eb7565b01612533565b90604051918291602083016020845282518091526020604085019301915b8181106103d6575050500390f35b82516001600160a01b03168452859450602093840193909201916001016103c8565b50346101ea5760203660031901126101ea5760ff604060209260195f5160206143075f395f51905f5254016004358252845220541661043a6040518092612400565bf35b50346101ea57806003193601126101ea576020601d5f5160206143075f395f51905f52540154604051908152f35b50346101ea5760203660031901126101ea576004356001600160401b0381116105675761049b90369060040161237a565b905f5160206143075f395f51905f5254906104b583612586565b916104c360405193846124dc565b8383526104cf84612586565b602084019490601f1901368637601a869201915b81811061052e57868587604051928392602084019060208552518091526040840192915b818110610515575050500390f35b8251845285945060209384019390920191600101610507565b8061054461053f600193858861259d565b6126c1565b828060a01b03165f528360205260405f205461056082886125ad565b52016104e3565b5080fd5b50346101ea57806003193601126101ea5760406105ac5f5160206143075f395f51905f525460026105a460018060a01b03924290613eb7565b015416613b8f565b6020825193849282845280519283918282870152018585015e828201840152601f01601f19168101030190f35b50346101ea57806003193601126101ea576105f2612741565b5060605f5160206143075f395f51905f5254604051610610816124c1565b65ffffffffffff60168301541691828252604060186017830154926020850193845201549201918252604051928352516020830152516040820152f35b50346101ea57806003193601126101ea576020601b5f5160206143075f395f51905f52540154604051908152f35b50346101ea5760203660031901126101ea576106956123d6565b601a5f5160206143075f395f51905f5254019060018060a01b03165f52602052602060405f2054604051908152f35b50346101ea5760203660031901126101ea57600435906001600160401b0382116101ea5760206107006106fa366004860161237a565b906126d5565b6040519015158152f35b50346101ea57806003193601126101ea575f5160206142e75f395f51905f52546040516001600160a01b039091168152602090f35b50346101ea57806003193601126101ea575f5160206143075f395f51905f5254600181019081546107c5576002015463ffffffff1640908115610780575580f35b60405162461bcd60e51b815260206004820152601d60248201527f756e61626c6520746f206c6f6f6b75702067656e6573697320686173680000006044820152606490fd5b60405162461bcd60e51b815260206004820152601860248201527f67656e65736973206861736820616c72656164792073657400000000000000006044820152606490fd5b50346101ea576101603660031901126101ea576108256123d6565b6024356001600160a01b0381169190829003610dc2576108436123aa565b61084b6123c0565b906084359065ffffffffffff8216809203610dbe5760c4359260a43560403660e3190112610dba5761012435946001600160401b038611610db65736602387011215610db6578560040135916001600160401b038311610db2573660248489010111610db257610144356001600160401b038111610dae576108d190369060040161237a565b9690945f5160206143275f395f51905f5254996001600160401b0360ff8c60401c16159b1680159081610da6575b6001149081610d9c575b159081610d93575b50610d845761095b908b60016001600160401b03195f5160206143275f395f51905f525416175f5160206143275f395f51905f5255610d54575b610953614093565b610212614093565b610963614093565b4215610cfe578215610ca85782821115610c4757600a61098384846125c1565b04841015610c025760409a8b5161099a8d826124dc565b6017815260208101907f726f757465722e73746f726167652e526f75746572563100000000000000000082526109ce613b27565b5190205f198101908111610bee578c51602080820192835281528d9392916109f685836124dc565b60ff19915190201698895f5160206143075f395f51905f5255610a17613b5a565b805160018c015560028b0190602081015163ffffffff1686835492015160201b69ffffffffffff00000000169169ffffffffffffffffffff191617179055835190610a61826124c1565b8282526001600160a01b03908116602083018190529381169490910184905260058a018054919092166001600160a01b0319918216179091556006890180548216909217909155600788018054909116909117905560088601805461ffff1916611a0a179055610acf6124fd565b508951610adb81612492565b639502f90081526509184e72a0006020909101526015860180546001600160c01b0319166d09184e72a000000000009502f900179055895183908b90610b20816124c1565b8381528460208201520152601686019065ffffffffffff1665ffffffffffff1982541617905560178501556018840155865194610b5c86612492565b60e4358652610104356020870152610b78913691602401612628565b9042933690610b869261266d565b9160090193610b9494613bbe565b610b9c575080f35b60207fc7f505b2f371ae2175ee4913f4499e1f2633a7b5936321eed1cdaeb6115181d29160ff60401b195f5160206143275f395f51905f5254165f5160206143275f395f51905f52555160018152a180f35b634e487b7160e01b8e52601160045260248efd5b60405162461bcd60e51b815260206004820152601b60248201527f76616c69646174696f6e2064656c617920697320746f6f2062696700000000006044820152606490fd5b60405162461bcd60e51b815260206004820152603360248201527f657261206475726174696f6e206d757374206265206772656174657220746861604482015272371032b632b1ba34b7b710323ab930ba34b7b760691b6064820152608490fd5b60405162461bcd60e51b815260206004820152602860248201527f656c656374696f6e206475726174696f6e206d75737420626520677265617465604482015267072207468616e20360c41b6064820152608490fd5b60405162461bcd60e51b815260206004820152602860248201527f63757272656e742074696d657374616d70206d75737420626520677265617465604482015267072207468616e20360c41b6064820152608490fd5b600160401b60ff60401b195f5160206143275f395f51905f525416175f5160206143275f395f51905f525561094b565b63f92ee8a960e01b8d5260048dfd5b9050155f610911565b303b159150610909565b8c91506108ff565b8a80fd5b8980fd5b8880fd5b8780fd5b8580fd5b8280fd5b50346101ea57806003193601126101ea575f5160206143075f395f51905f5254600601546040516001600160a01b039091168152602090f35b50346101ea57806003193601126101ea57610e186124fd565b50604060155f5160206143075f395f51905f5254016001600160801b03825191610e4183612492565b548160206001600160401b038316948581520191851c168152835192835251166020820152f35b50346101ea5760203660031901126101ea576004356001600160401b03811161056757610e9990369060040161237a565b905f5160206143075f395f51905f525490610eb383612586565b91610ec160405193846124dc565b838352610ecd84612586565b602084019490601f19013686376019869201915b818110610f3657868587604051928392602084019060208552518091526040840192915b818110610f13575050500390f35b9193509160208082610f286001948851612400565b019401910191849392610f05565b610f4181838661259d565b3587528260205260ff604088205416610f5a82876125ad565b6003821015610f6c5752600101610ee1565b634e487b7160e01b89526021600452602489fd5b50346101ea57806003193601126101ea57602060035f5160206143075f395f51905f52540154604051908152f35b50346101ea57806003193601126101ea57610fc7613b27565b5f5160206142e75f395f51905f5280546001600160a01b0319811690915581906001600160a01b03167f8be0079c531659141344cd1fd0a4f28419497f9722a3daafe3b4186f6b6457e08280a380f35b50346101ea57806003193601126101ea57611030613b27565b5f5160206143275f395f51905f525460ff8160401c16908115611362575b50611353575f5160206143275f395f51905f52805468ffffffffffffffffff1916680100000000000000021790555f5160206142e75f395f51905f52546110a0906001600160a01b0316610953614093565b5f5160206143075f395f51905f525460409081516110be83826124dc565b6017815260208101907f726f757465722e73746f726167652e526f75746572563200000000000000000082526110f2613b27565b5190205f19810190811161133f57916020917fc7f505b2f371ae2175ee4913f4499e1f2633a7b5936321eed1cdaeb6115181d29382519084820190815284825261113c84836124dc565b60ff19915190201690815f5160206143075f395f51905f525561115d613b5a565b80516001840155600283019063ffffffff868201511669ffffffffffff00000000868454930151881b169169ffffffffffffffffffff1916171790556005810160058301908082036112f1575b505061ffff600882015416600883019061ffff198254161790556112136111d14283613eb7565b6111e86001600160a01b0360026105a44287613eb7565b6111fe60046111f74287613eb7565b0192612515565b906112094293612533565b9160098701613bbe565b60158101601583019080820361129f575b5050601681016016830191818303611269575b5050505060ff60401b195f5160206143275f395f51905f5254165f5160206143275f395f51905f52555160028152a180f35b60189265ffffffffffff80859454161665ffffffffffff198254161790556017810154601785015501549101555f808080611237565b806001600160401b03806001600160801b03935416166001600160401b031984541617835554851c16600160401b600160c01b03825491861b1690600160401b600160c01b0319161790555f80611224565b5481546001600160a01b03199081166001600160a01b039283161790925560068381015490850180548416918316919091179055600780840154908501805490931691161790555f806111aa565b634e487b7160e01b84526011600452602484fd5b63f92ee8a960e01b8152600490fd5b600291506001600160401b031610155f61104e565b50346101ea5760203660031901126101ea576113916123d6565b611399613b27565b5f5160206143075f395f51905f525460050180546001600160a01b0319166001600160a01b0390921691909117905580f35b50346101ea57806003193601126101ea576113e46124fd565b5060406114086114035f5160206143075f395f51905f52544290613eb7565b612515565b60208251918051835201516020820152f35b50346101ea5760603660031901126101ea576004356114376123aa565b5f5160206143075f395f51905f52546114556001820154151561240d565b8284526019810160205260ff6040852054166003811015611693576002036116375760405160208101908482526024356040820152604081526114996060826124dc565b51902060405160608101908082106001600160401b0383111761163357605a916040527f3d605080600a3d3981f3608060405263e6fabc0960e01b5f5260205f6004817381523060601b6b5afa15604c575f80805136821760208201527f80378136915af43d5f803e156048573d5ff35b3d5ffd5b5f80fd000000000000604082015286f590811561162f576001600160a01b0382165f908152601a820160205260409020849055601b01805461154f90612e3a565b90556040516001600160a01b03821680825293907f8008ec1d8798725ebfa0f2d128d52e8e717dcba6e0f786557eeee70614b02bf190602090a2506001600160a01b03811661162a5750335b5f5160206143075f395f51905f5254600501546001600160a01b0316823b1561162657604051631c9776b560e31b81526001600160a01b039092166004830152602482015260016044820152828160648183865af1801561161b57611606575b602082604051908152f35b6116118380926124dc565b61056757816115fb565b6040513d85823e3d90fd5b8380fd5b61159b565b8480fd5b8680fd5b60405162461bcd60e51b815260206004820152602e60248201527f636f6465206d7573742062652076616c696461746564206265666f726520707260448201526d37b3b930b69031b932b0ba34b7b760911b6064820152608490fd5b634e487b7160e01b85526021600452602485fd5b50346101ea57806003193601126101ea57602060015f5160206143075f395f51905f52540154604051908152f35b50346101ea5760203660031901126101ea576004358149156117e55760195f5160206143075f395f51905f52546117116001820154151561240d565b018183528060205260ff60408420541660038110156117d1576117705781835260209081526040808420805460ff19166001179055519182527f5c261a095dd5720475295dc06379921c003c22164ee6cae5cf83e76ce0a1b98591a180f35b60405162461bcd60e51b815260206004820152603360248201527f676976656e20636f646520696420697320616c7265616479206f6e2076616c6960448201527219185d1a5bdb881bdc881d985b1a59185d1959606a1b6064820152608490fd5b634e487b7160e01b84526021600452602484fd5b60405162461bcd60e51b815260206004820152604860248201527f626c6f622063616e277420626520666f756e642c20726f75746572206578706560448201527f63746564204549502d34383434207472616e73616374696f6e2077697468205760648201526720a9a690313637b160c11b608482015260a490fd5b34611d49576080366003190112611d495760043561187d6123aa565b906118866123c0565b915f5160206143075f395f51905f52546118a56001820154151561240d565b825f526019810160205260ff60405f2054166003811015611d53576002036116375760405160208101908482526024356040820152604081526118e96060826124dc565b5190206040516102e08101908082106001600160401b03831117611d49576102c4916040527f6080806040526102b290816100128239f3fe608060405260043610610268575f81527f3560e01c806329336f391461009b5780632a68e35d1461009657806336a52a1860208201527f14610091578063701da98e1461008c578063704ed5421461008757806391d5a660408201527f4c146100825780639ce110d71461007d578063affed0e0146100785763e43f3460608201527f330361026857610253565b610236565b61020e565b6101f8565b6101df565b6160808201527f01c2565b61019b565b610150565b346100dc5760603660031901126100dc576060a08201527f243567ffffffffffffffff81116100dc576100cc9036906004016100e0565b5060c08201527f506100d661010e565b50610268565b5f80fd5b9181601f840112156100dc578260e08201527f359167ffffffffffffffff83116100dc57602083818601950101116100dc57566101008201527f5b604435906001600160801b03821682036100dc57565b6024359060016001606101208201527f801b03821682036100dc57565b600435906001600160801b03821682036100dc6101408201527f57565b346100dc5760603660031901126100dc5760043567ffffffffffffffff6101608201527f81116100dc576101819036906004016100e0565b505061018b610124565b50606101808201527f443580151514610268575f80fd5b346100dc575f3660031901126100dc575f546101a08201527f6040516001600160a01b039091168152602090f35b346100dc575f36600319016101c08201527f126100dc576020600254604051908152f35b346100dc576020366003190112616101e08201527edc576100d661013a565b346100dc57602036600319011215610268575f80fd6102008201527f5b346100dc575f3660031901126100dc576001546040516001600160a01b03906102208201527f91168152602090f35b346100dc575f3660031901126100dc57602060035460406102408201527f51908152f35b346100dc575f36600319011215610268575f80fd5b63e6fabc09610260820152306b60e01b5f5260205f6004817360a01b176102808201527f5afa156100dc575f808051368280378136915af43d5f803e156102ae573d5ff36102a0820152635b3d5ffd60e01b6102c08201525ff5908115611d49576001600160a01b0382165f908152601a820160205260409020849055601b018054611c8e90612e3a565b90556040516001600160a01b03821680825293907f8008ec1d8798725ebfa0f2d128d52e8e717dcba6e0f786557eeee70614b02bf190602090a2506001600160a01b038116611d4d575033915b813b15611d4957604051631c9776b560e31b81526001600160a01b039384166004820152921660248301525f604483018190528260648183855af1918215611d3e57602092611d2e575b50604051908152f35b5f611d38916124dc565b5f611d25565b6040513d5f823e3d90fd5b5f80fd5b91611cdb565b634e487b7160e01b5f52602160045260245ffd5b34611d49576060366003190112611d49576004356001600160401b038111611d4957806004019060e06003198236030112611d4957602435916002831015611d49576044356001600160401b038111611d4957611dc890369060040161237a565b93907f9b779b17422d0df92223018b32b4d1fa46e071723d6817e2486d003becc55f005c6123415760017f9b779b17422d0df92223018b32b4d1fa46e071723d6817e2486d003becc55f005d5f5160206143075f395f51905f525492611e336001850154151561240d565b835415612273575b6003840195865492604487013580940361222057600486019465ffffffffffff86541698602489019965ffffffffffff611e748c61247f565b16106121a057611e8885899b9a989b612842565b9860609a60845f99019760198b019c5b611ea28a8a612df8565b90508b101561204b57611eb58a8a612df8565b8c9291921015612037578e918c60061b0190813592835f5260205260ff60405f2054166003811015611d5357600103611fd4578f828f939160206040930194611efd86612e2d565b15611fbd57601c91875f52602052835f20600260ff1982541617905501611f248154612e3a565b90555b611f3084612e2d565b15157f460119a8f69a33ed127de517d5ea464e958ce23ef19e4420a8b92bf780bbc2c960208451888152a2360312611d49576001926020611fb593611f8360405191611f7b83612492565b848352612e48565b91829101526040519060208201928352151560f81b604082015260218152611fac6041826124dc565b51902090612e55565b9a0199611e98565b50855f52602052815f2060ff198154169055611f27565b60405162461bcd60e51b815260206004820152603560248201527f636f6465206d7573742062652072657175657374656420666f722076616c6964604482015274185d1a5bdb881d1bc818994818dbdb5b5a5d1d1959605a1b6064820152608490fd5b634e487b7160e01b5f52603260045260245ffd5b61213199509165ffffffffffff60208d9a8f948397958d61212a988581519101206120808561207a8185612ebc565b9361334b565b9261208a8a61247f565b9460405195888701973588528960d01b9060d01b16604087015260468601526066850152608684015260a683015260c682015260c681526120cc60e6826124dc565b51902080976120da8661247f565b84604051916120e883612492565b848352169384910152551684198254161790557f7ebe42360bcb182fe0a88148b081e4557c89d09aa6af8307635ac2f83e2aaa656020604051868152a161247f565b1694613776565b1561215b575f7f9b779b17422d0df92223018b32b4d1fa46e071723d6817e2486d003becc55f005d005b60405162461bcd60e51b815260206004820152601e60248201527f7369676e61747572657320766572696669636174696f6e206661696c656400006044820152606490fd5b60405162461bcd60e51b815260206004820152604c60248201527f62617463682074696d657374616d70206d75737420626520677265617465722060448201527f6f7220657175616c20746f206c617465737420636f6d6d69747465642062617460648201526b063682074696d657374616d760a41b608482015260a490fd5b60405162461bcd60e51b815260206004820152602560248201527f696e76616c69642070726576696f757320636f6d6d6974746564206261746368604482015264040d0c2e6d60db1b6064820152608490fd5b61227d81356127d0565b156122ed5765ffffffffffff6122956024870161247f565b164211611e3b5760405162461bcd60e51b815260206004820152602360248201527f62617463682074696d657374616d70206d75737420626520696e207468652070604482015262185cdd60ea1b6064820152608490fd5b60405162461bcd60e51b815260206004820152602660248201527f616c6c6f776564207072656465636573736f7220626c6f636b207761736e277460448201526508199bdd5b9960d21b6064820152608490fd5b633ee5aeb560e01b5f5260045ffd5b34611d49575f366003190112611d4957602090601c5f5160206143075f395f51905f525401548152f35b9181601f84011215611d49578235916001600160401b038311611d49576020808501948460051b010111611d4957565b604435906001600160a01b0382168203611d4957565b606435906001600160a01b0382168203611d4957565b600435906001600160a01b0382168203611d4957565b35906001600160a01b0382168203611d4957565b906003821015611d535752565b1561241457565b60405162461bcd60e51b815260206004820152603860248201527f726f757465722067656e65736973206973207a65726f3b2063616c6c20606c6f60448201527f6f6b757047656e657369734861736828296020666972737400000000000000006064820152608490fd5b3565ffffffffffff81168103611d495790565b604081019081106001600160401b038211176124ad57604052565b634e487b7160e01b5f52604160045260245ffd5b606081019081106001600160401b038211176124ad57604052565b90601f801991011681019081106001600160401b038211176124ad57604052565b6040519061250a82612492565b5f6020838281520152565b9060405161252281612492565b602060018294805484520154910152565b90604051918281549182825260208201905f5260205f20925f5b818110612564575050612562925003836124dc565b565b84546001600160a01b031683526001948501948794506020909301920161254d565b6001600160401b0381116124ad5760051b60200190565b91908110156120375760051b0190565b80518210156120375760209160051b010190565b919082039182116125ce57565b634e487b7160e01b5f52601160045260245ffd5b81156125ec570490565b634e487b7160e01b5f52601260045260245ffd5b9190826040910312611d495760405161261881612492565b6020808294803584520135910152565b9291926001600160401b0382116124ad5760405191612651601f8201601f1916602001846124dc565b829481845281830111611d49578281602093845f960137010152565b92919061267981612586565b9361268760405195866124dc565b602085838152019160051b8101928311611d4957905b8282106126a957505050565b602080916126b6846123ec565b81520191019061269d565b356001600160a01b0381168103611d495790565b6126ee5f5160206143075f395f51905f52544290613eb7565b600301905f5b8381106127045750505050600190565b61271261053f82868561259d565b6001600160a01b03165f9081526020849052604090205460ff1615612739576001016126f4565b505050505f90565b6040519061274e826124c1565b5f6040838281528260208201520152565b6001600160a01b031680156127bd575f5160206142e75f395f51905f5280546001600160a01b0319811683179091556001600160a01b03167f8be0079c531659141344cd1fd0a4f28419497f9722a3daafe3b4186f6b6457e05f80a3565b631e4fbdf760e01b5f525f60045260245ffd5b905f1943014381116125ce57805b6127e9575b505f9150565b80408381036127fa57506001925050565b15612808575f1901806127de565b6127e3565b903590601e1981360301821215611d4957018035906001600160401b038211611d4957602001918160051b36038313611d4957565b919060608101906001612855838361280d565b905011612d9657612866828261280d565b905015612d6f57906128779161280d565b1561203757803590603e1981360301821215611d49579291920161289b818061280d565b9290916060925f9560de198236030192601a8501955b87891015612d0b578860051b84013585811215611d495784016128d3816126c1565b6001600160a01b03165f9081526020899052604090205415612cae57608081016001600160801b0361290482613e74565b16612c12575b6001600160a01b0361291b836126c1565b6040516302c649c960e01b81526020600482015293911691610104840191906001600160801b039061299a906001600160a01b03612958856123ec565b1660248801526020840135604488015261297460408501612e48565b151560648801526001600160a01b0361298f606086016123ec565b166084880152613e88565b1660a485015236819003601e190160a082013581811215611d49578201602081359101936001600160401b038211611d49576060820236038513611d4957819060e060c489015252610124860193905f905b808210612bc85750505060c082013590811215611d495701803560208201926001600160401b038211611d49578160051b908136038513611d4957918694936023198685030160e487015281845260208085019385010194935f9160fe19813603015b848410612abd575050505050505091815f8160209503925af1908115611d3e575f91612a8b575b50612a8390600192612e55565b9801976128b1565b90506020813d8211612ab5575b81612aa5602093836124dc565b81010312611d4957516001612a76565b3d9150612a98565b9193959750919395601f19848203018752873582811215611d49578301602081013582526001600160a01b03612af5604083016123ec565b1660208301526060810135603e193683900301811215611d49578101602081013591906040016001600160401b038311611d49578236038113611d4957829060e060408601528160e08601526101008501375f61010083850101526001600160801b03612b6460808301613e88565b16606084015260a0810135608084015260c081013563ffffffff60e01b8116809103611d495783602093612ba660e086956101009560a060019a015201612e48565b151560c0830152601f8019910116010199019701940191899796959391612a4f565b90919460608060019288358152838060a01b03612be760208b016123ec565b1660208201526001600160801b03612c0160408b01613e88565b1660408201520196019201906129ec565b60068801546001600160801b03906020906001600160a01b03166044612c37866126c1565b5f612c4187613e74565b60405163a9059cbb60e01b81526001600160a01b0390931660048401529590951660248201529384928391905af18015611d3e57612c80575b5061290a565b612ca09060203d8111612ca7575b612c9881836124dc565b810190612ea4565b505f612c7a565b503d612c8e565b60405162461bcd60e51b815260206004820152602f60248201527f636f756c646e277420706572666f726d207472616e736974696f6e20666f722060448201526e756e6b6e6f776e2070726f6772616d60881b6064820152608490fd5b9450955095505050602091508181519101209101357f38794759339ea18f45f022c3722c082b6b71575c50afa212fea5d6d125a1655f6020604051838152a16040519060208201928352604082015260408152612d696060826124dc565b51902090565b507fc5d2460186f7233c927e7db2dcc703c0e500b653ca82273b7bfad8045d85a470925050565b60405162461bcd60e51b815260206004820152603460248201527f636861696e436f6d6d69746d656e7420636f756c6420636f6e7461696e206174604482015273081b5bdcdd081bdb994818dbdb5b5a5d1b595b9d60621b6064820152608490fd5b903590601e1981360301821215611d4957018035906001600160401b038211611d4957602001918160061b36038313611d4957565b358015158103611d495790565b5f1981146125ce5760010190565b35908115158203611d4957565b602080612562928195946040519682889351918291018585015e82019083820152030180855201836124dc565b903590605e1981360301821215611d49570190565b919082018092116125ce57565b90816020910312611d4957518015158103611d495790565b60a082016001612ecc828561280d565b90501161329c57612edd818461280d565b90501561327557612eee908361280d565b1561203757803590607e1981360301821215611d49570191606083019065ffffffffffff612f1b8361247f565b16156132245765ffffffffffff80612f3e6020612f378661247f565b940161247f565b16911610156131c5576007820154600690920180548435946001600160a01b0394851694604082019391925f91602091166044612f8783612f7f8989612e82565b01358b612e97565b604051948593849263095ea7b360e01b84528c600485015260248401525af18015611d3e576131a8575b505460405163394f179b60e11b81526001600160a01b03909116600482015260248101959095526020818101356044870152856064815f885af1948515611d3e575f95613170575b509061300491612e82565b9161300e8261247f565b9260405193637fbe95b560e01b85526040600486015260a48501918035601e1982360301811215611d49578101602081359101936001600160401b038211611d49578160061b36038513611d495760606044890152819052869360c485019392915f5b81811061313857505050836020959365ffffffffffff829484895f96013560648601526130a7604060018060a01b0392016123ec565b16608485015216602483015203925af1918215611d3e575f92613102575b506130cf9061247f565b6040519160208301938452604083015265ffffffffffff60d01b9060d01b16606082015260468152612d696066826124dc565b9091506020813d602011613130575b8161311e602093836124dc565b81010312611d495751906130cf6130c5565b3d9150613111565b919550919293604080600192838060a01b036131538a6123ec565b168152602089013560208201520196019101918895949392613071565b919094506020823d6020116131a0575b8161318d602093836124dc565b81010312611d4957905193613004612ff9565b3d9150613180565b6131c09060203d602011612ca757612c9881836124dc565b612fb1565b60405162461bcd60e51b815260206004820152603160248201527f7265776172647320636f6d6d69746d656e742074696d657374616d70206d75736044820152701d08189948199bdc881d1a19481c185cdd607a1b6064820152608490fd5b60405162461bcd60e51b8152602060048201526024808201527f7265776172647320636f6d6d69746d656e742074696d657374616d70206973206044820152637a65726f60e01b6064820152608490fd5b5050507fc5d2460186f7233c927e7db2dcc703c0e500b653ca82273b7bfad8045d85a47090565b608460405162461bcd60e51b815260206004820152604060248201527f7265776172647320636f6d6d69746d656e74206d75737420626520656d70747960448201527f206f7220636f6e7461696e73206f6e6c79206f6e6520636f6d6d69746d656e746064820152fd5b818102929181159184041417156125ce57565b903590601e1981360301821215611d4957018035906001600160401b038211611d4957602001918136038313611d4957565b9060c08101600161335c828461280d565b9050116136ff5761336d818361280d565b9050156132755761337d9161280d565b1561203757803590609e1981360301821215611d49570160608101906133a3828261280d565b9050156136ac5765ffffffffffff600284015460201c16916133c583426125c1565b6133dc65ffffffffffff60168701541680926125e2565b93608084013594600181018091116125ce578503613654576134018561340793613306565b90612e97565b936134166017820154866125c1565b421061360f5761342590613e9c565b9342600586015410156135af576020816134a07f41e7f919bf726af8aa2ef36bd31905a693013e30c45c6284060e613d4941997b936134749861348a61349261349a8a604081019d8e82613319565b93906134808d8461280d565b9690933690612600565b943691612628565b93369161266d565b92613bbe565b604051908152a160a082360312611d495760405193608085018581106001600160401b038211176124ad576040526134d83684612600565b8552356001600160401b038111611d4957820136601f82011215611d4957613507903690602081359101612628565b602085015235906001600160401b038211611d49570136601f82011215611d495761353990369060208135910161266d565b91826040820152816060820152519160208351930151906040519283926020840195865260408401526060830160208351919301905f5b81811061358d57505050815203808252612d6990602001826124dc565b82516001600160a01b0316855286955060209485019490920191600101613570565b60405162461bcd60e51b815260206004820152603260248201527f6c6f6f6b73206c696b652076616c696461746f727320666f72206e65787420656044820152711c9848185c9948185b1c9958591e481cd95d60721b6064820152608490fd5b60405162461bcd60e51b815260206004820152601b60248201527f656c656374696f6e206973206e6f7420796574207374617274656400000000006044820152606490fd5b60405162461bcd60e51b815260206004820152602a60248201527f636f6d6d69746d656e742065726120696e646578206973206e6f74206e657874604482015269040cae4c240d2dcc8caf60b31b6064820152608490fd5b60405162461bcd60e51b815260206004820152602560248201527f6e65772076616c696461746f7273206c697374206d757374206e6f7420626520604482015264656d70747960d81b6064820152608490fd5b60405162461bcd60e51b815260206004820152604360248201527f76616c696461746f727320636f6d6d69746d656e74206d75737420626520656d60448201527f707479206f7220636f6e7461696e73206f6e6c79206f6e6520636f6d6d69746d606482015262195b9d60ea1b608482015260a490fd5b909493919365ffffffffffff600283015460201c166137b46137bf6137b961379e84426125c1565b65ffffffffffff601688015416938480926125e2565b613306565b83612e97565b918284108080613b11575b15613a9f57508310613a5a576137e09083612e97565b10613a09576137f0905b82613eb7565b94601960f81b5f523060601b60025260165260365f20936002811015611d535780613900575050600181036138bb5715612037576138318161383892613319565b3691612628565b9160608351036138665782602061386394015160606040830151920151926001815491015490613ed3565b90565b60405162461bcd60e51b815260206004820152602760248201527f46524f5354207369676e6174757265206c656e677468206d75737420626520396044820152663620627974657360c81b6064820152608490fd5b60405162461bcd60e51b815260206004820152601e60248201527f46524f5354207369676e6174757265206d7573742062652073696e676c6500006044820152606490fd5b9193916001146139135750505050505f90565b61392d9061ffff6008600488979801549201541690613e52565b925f9260035f9201915b868110156139fe5761396661395d6139576138318460051b860186613319565b866141a7565b909291926141e1565b6001600160a01b0381165f9081526020859052604090205460ff16613991575b506001905b01613937565b6001600160a01b03165f9081527ff02b465737fa6045c2ff53fb2df43c66916ac2166fa303264668fb2f6a1d8c0060205260409020805c156139d6575060019061398b565b9460016139e492965d612e3a565b938585146139f2575f613986565b50505050505050600190565b505050505050505f90565b60405162461bcd60e51b8152602060048201526024808201527f74696d657374616d70206973206f6c646572207468616e2070726576696f75736044820152632065726160e01b6064820152608490fd5b60405162461bcd60e51b815260206004820152601e60248201527f63616e6e6f742076616c6964617465206265666f72652067656e6573697300006044820152606490fd5b9392915050428211613ac2576137f092613aba575b506137ea565b90505f613ab4565b60405162461bcd60e51b815260206004820152602160248201527f74696d657374616d702063616e6e6f7420626520696e207468652066757475726044820152606560f81b6064820152608490fd5b50613b20601887015485612e97565b42106137ca565b5f5160206142e75f395f51905f52546001600160a01b03163303613b4757565b63118cdaa760e01b5f523360045260245ffd5b613b62612741565b50604051613b6f816124c1565b5f815263ffffffff4316602082015265ffffffffffff4216604082015290565b803b905f198201908282116125ce5760019060405193603e601f19910116840160405282845260208401903c90565b9291908051906020810191825170014551231950b75fc4402da1732fc9bebe1982109182613e41575b505015613ded5751845551600184015560405190613c2a6021836020808201945f86528051918291018484015e81015f838201520301601f1981018452836124dc565b613c67602b604051809360208201956a600b5981380380925939f360a81b87525180918484015e81015f838201520301601f1981018352826124dc565b51905ff06001600160a01b03811615613db4576002830180546001600160a01b0319166001600160a01b039092169190911790555f5b600483018054821015613cdb575f90815260208082208301546001600160a01b0316825260038501905260409020805460ff19169055600101613c9d565b5050925f5b8451811015613d24576001906001600160a01b03613cfe82886125ad565b5116828060a01b03165f526003840160205260405f208260ff1982541617905501613ce0565b5092600482018151916001600160401b0383116124ad57600160401b83116124ad578154838355808410613d8e575b50602001905f5260205f205f5b838110613d71575050505060050155565b82516001600160a01b031681830155602090920191600101613d60565b825f528360205f2091820191015b818110613da95750613d53565b5f8155600101613d9c565b60405162461bcd60e51b81526020600482015260116024820152701111541313d65351539517d19052531151607a1b6044820152606490fd5b60405162461bcd60e51b815260206004820152602660248201527f46524f53542061676772656761746564207075626c6963206b657920697320696044820152651b9d985b1a5960d21b6064820152608490fd5b613e4b9250614241565b5f80613be7565b61ffff613e60921690613306565b61270f81018091116125ce57612710900490565b356001600160801b0381168103611d495790565b35906001600160801b0382168203611d4957565b613ea642826140be565b15613eb15760090190565b600f0190565b90613ec290826140be565b15613ecd57600f0190565b60090190565b9293919490613ee28587614241565b156140895782156140895770014551231950b75fc4402da1732fc9bebe19831015614089576001169061010e6040519161012083018381106001600160401b03821117611d495760405260883684376002600188160160888401538760898401526002840160a984015360aa830186905260ca8301527e300046524f53542d736563703235366b312d4b454343414b3235362d76316360ea8301526303430b6160e51b61010a830152812060cc820181815290600260ec84016001815360428420809318845253604270014551231950b75fc4402da1732fc9bebe19922060801c6001600160401b0360801b8260801b16179070014551231950b75fc4402da1732fc9bebe1990600160c01b9060401c090880156139fe5784601b6080945f9660209870014551231950b75fc4402da1732fc9bebe19910970014551231950b75fc4402da1732fc9bebe19038552018684015280604084015270014551231950b75fc4402da1732fc9bebe19910970014551231950b75fc4402da1732fc9bebe1903606082015282805260015afa505f51915f5260205260018060a01b0360405f20161490565b5050505050505f90565b60ff5f5160206143275f395f51905f525460401c16156140af57565b631afcd79f60e31b5f5260045ffd5b906014600e8301549201548083146141635781818410931191821591111591819061415c575b156140f957826140f357505090565b14919050565b60405162461bcd60e51b815260206004820152603560248201527f636f756c64206e6f74206964656e746966792076616c696461746f727320666f6044820152740722074686520676976656e2074696d657374616d7605c1b6064820152608490fd5b50816140e4565b606460405162461bcd60e51b815260206004820152602060248201527f657261732074696d657374616d70206d757374206e6f7420626520657175616c6044820152fd5b81519190604183036141d7576141d09250602082015190606060408401519301515f1a90614264565b9192909190565b50505f9160029190565b6004811015611d5357806141f3575050565b6001810361420a5763f645eedf60e01b5f5260045ffd5b60028103614225575063fce698f760e01b5f5260045260245ffd5b60031461422f5750565b6335e2f38360e21b5f5260045260245ffd5b6401000003d01990600790829081818009900908906401000003d0199080091490565b91907f7fffffffffffffffffffffffffffffff5d576e7357a4501ddfe92f46681b20a084116142db579160209360809260ff5f9560405194855216868401526040830152606082015282805260015afa15611d3e575f516001600160a01b038116156142d157905f905f90565b505f906001905f90565b5050505f916003919056fe9016d09d72d40fdae2fd8ceac6b6234c7706214fd39c1cd1e609a0528c1993005c09ca1b9b8127a4fd9f3c384aac59b661441e820e17733753ff5f2e86e1e000f0c57e16840df040f15088dc2f81fe391c3923bec73e23a9662efc9c229c6a00f0c57e16840df040f15088dc2f81fe391c3923bec73e23a9662efc9c229c6a00","linkReferences":{}},"methodIdentifiers":{"areValidators(address[])":"8f381dbe","codeState(bytes32)":"c13911e8","codesStates(bytes32[])":"82bdeaad","commitBatch((bytes32,uint48,bytes32,((address,bytes32,bool,address,uint128,(bytes32,address,uint128)[],(bytes32,address,bytes,uint128,(bytes32,bytes4),bool)[])[],bytes32)[],(bytes32,bool)[],((uint256,bytes32),((address,uint256)[],uint256,address),uint48)[],((uint256,uint256),bytes,address[],uint256)[]),uint8,bytes[])":"0749fc71","computeSettings()":"84d22a4f","createProgram(bytes32,bytes32,address)":"3683c4d2","createProgramWithAbiInterface(bytes32,bytes32,address,address)":"0c18d277","genesisBlockHash()":"28e24b3d","genesisTimestamp()":"cacf66ab","initialize(address,address,address,address,uint48,uint256,uint256,(uint256,uint256),bytes,address[])":"8961edeb","isValidator(address)":"facd743b","latestCommittedBatchHash()":"71a8cf2d","latestCommittedBatchTimestamp()":"d456fd51","latestRewardedEraIndex()":"bf34281f","lookupGenesisHash()":"8b1edf1e","mirrorImpl()":"e6fabc09","owner()":"8da5cb5b","programCodeId(address)":"9067088e","programsCodeIds(address[])":"baaf0201","programsCount()":"96a2ddfa","reinitialize()":"6c2eb350","renounceOwnership()":"715018a6","requestCodeValidation(bytes32)":"120e3f1e","setMirror(address)":"3d43b418","signingThresholdPercentage()":"efd81abc","timelines()":"9eb939a8","transferOwnership(address)":"f2fde38b","validatedCodesCount()":"007a32e7","validators()":"ca1e7819","validatorsAggregatedPublicKey()":"3bd109fa","validatorsCount()":"ed612f8c","validatorsThreshold()":"edc87225","validatorsVerifiableSecretSharingCommitment()":"a5d53a44","wrappedVara()":"88f50cf0"},"storageLayout":{"storage":[],"types":{}},"id":160}