{"abi":[{"type":"constructor","inputs":[],"stateMutability":"nonpayable"},{"type":"function","name":"COUNT_OF_VALIDATORS","inputs":[],"outputs":[{"name":"","type":"uint256","internalType":"uint256"}],"stateMutability":"view"},{"type":"function","name":"REQUIRED_SIGNATURES","inputs":[],"outputs":[{"name":"","type":"uint256","internalType":"uint256"}],"stateMutability":"view"},{"type":"function","name":"addValidators","inputs":[{"name":"validatorsArray","type":"address[]","internalType":"address[]"}],"outputs":[],"stateMutability":"nonpayable"},{"type":"function","name":"claimValue","inputs":[{"name":"messageId","type":"bytes32","internalType":"bytes32"}],"outputs":[],"stateMutability":"nonpayable"},{"type":"function","name":"codes","inputs":[{"name":"codeId","type":"bytes32","internalType":"bytes32"}],"outputs":[{"name":"","type":"uint8","internalType":"enum IRouter.CodeState"}],"stateMutability":"view"},{"type":"function","name":"commitBlocks","inputs":[{"name":"commitments","type":"tuple[]","internalType":"struct IRouter.BlockCommitment[]","components":[{"name":"blockHash","type":"bytes32","internalType":"bytes32"},{"name":"allowedPrevCommitmentHash","type":"bytes32","internalType":"bytes32"},{"name":"allowedPredBlockHash","type":"bytes32","internalType":"bytes32"},{"name":"transitions","type":"tuple[]","internalType":"struct IRouter.StateTransition[]","components":[{"name":"actorId","type":"address","internalType":"address"},{"name":"oldStateHash","type":"bytes32","internalType":"bytes32"},{"name":"newStateHash","type":"bytes32","internalType":"bytes32"},{"name":"outgoingMessages","type":"tuple[]","internalType":"struct IRouter.OutgoingMessage[]","components":[{"name":"messageId","type":"bytes32","internalType":"bytes32"},{"name":"destination","type":"address","internalType":"address"},{"name":"payload","type":"bytes","internalType":"bytes"},{"name":"value","type":"uint128","internalType":"uint128"},{"name":"replyDetails","type":"tuple","internalType":"struct IRouter.ReplyDetails","components":[{"name":"replyTo","type":"bytes32","internalType":"bytes32"},{"name":"replyCode","type":"bytes4","internalType":"bytes4"}]}]}]}]},{"name":"signatures","type":"bytes[]","internalType":"bytes[]"}],"outputs":[],"stateMutability":"nonpayable"},{"type":"function","name":"commitCodes","inputs":[{"name":"codeCommitmentsArray","type":"tuple[]","internalType":"struct IRouter.CodeCommitment[]","components":[{"name":"codeId","type":"bytes32","internalType":"bytes32"},{"name":"approved","type":"bool","internalType":"bool"}]},{"name":"signatures","type":"bytes[]","internalType":"bytes[]"}],"outputs":[],"stateMutability":"nonpayable"},{"type":"function","name":"countOfValidators","inputs":[],"outputs":[{"name":"","type":"uint256","internalType":"uint256"}],"stateMutability":"view"},{"type":"function","name":"createProgram","inputs":[{"name":"codeId","type":"bytes32","internalType":"bytes32"},{"name":"salt","type":"bytes32","internalType":"bytes32"},{"name":"initPayload","type":"bytes","internalType":"bytes"},{"name":"gasLimit","type":"uint64","internalType":"uint64"}],"outputs":[{"name":"","type":"address","internalType":"address"}],"stateMutability":"payable"},{"type":"function","name":"genesisBlockHash","inputs":[],"outputs":[{"name":"","type":"bytes32","internalType":"bytes32"}],"stateMutability":"view"},{"type":"function","name":"getStorageSlot","inputs":[],"outputs":[{"name":"","type":"bytes32","internalType":"bytes32"}],"stateMutability":"view"},{"type":"function","name":"initialize","inputs":[{"name":"initialOwner","type":"address","internalType":"address"},{"name":"_program","type":"address","internalType":"address"},{"name":"_minimalProgram","type":"address","internalType":"address"},{"name":"_wrappedVara","type":"address","internalType":"address"},{"name":"validatorsArray","type":"address[]","internalType":"address[]"}],"outputs":[],"stateMutability":"nonpayable"},{"type":"function","name":"lastBlockCommitmentHash","inputs":[],"outputs":[{"name":"","type":"bytes32","internalType":"bytes32"}],"stateMutability":"view"},{"type":"function","name":"minimalProgram","inputs":[],"outputs":[{"name":"","type":"address","internalType":"address"}],"stateMutability":"view"},{"type":"function","name":"owner","inputs":[],"outputs":[{"name":"","type":"address","internalType":"address"}],"stateMutability":"view"},{"type":"function","name":"program","inputs":[],"outputs":[{"name":"","type":"address","internalType":"address"}],"stateMutability":"view"},{"type":"function","name":"programs","inputs":[{"name":"_program","type":"address","internalType":"address"}],"outputs":[{"name":"","type":"bool","internalType":"bool"}],"stateMutability":"view"},{"type":"function","name":"removeValidators","inputs":[{"name":"validatorsArray","type":"address[]","internalType":"address[]"}],"outputs":[],"stateMutability":"nonpayable"},{"type":"function","name":"renounceOwnership","inputs":[],"outputs":[],"stateMutability":"nonpayable"},{"type":"function","name":"sendMessage","inputs":[{"name":"destination","type":"address","internalType":"address"},{"name":"payload","type":"bytes","internalType":"bytes"},{"name":"gasLimit","type":"uint64","internalType":"uint64"},{"name":"value","type":"uint128","internalType":"uint128"}],"outputs":[],"stateMutability":"nonpayable"},{"type":"function","name":"sendReply","inputs":[{"name":"replyToId","type":"bytes32","internalType":"bytes32"},{"name":"payload","type":"bytes","internalType":"bytes"},{"name":"gasLimit","type":"uint64","internalType":"uint64"},{"name":"value","type":"uint128","internalType":"uint128"}],"outputs":[],"stateMutability":"nonpayable"},{"type":"function","name":"setProgram","inputs":[{"name":"_program","type":"address","internalType":"address"}],"outputs":[],"stateMutability":"nonpayable"},{"type":"function","name":"setStorageSlot","inputs":[{"name":"namespace","type":"string","internalType":"string"}],"outputs":[],"stateMutability":"nonpayable"},{"type":"function","name":"transferOwnership","inputs":[{"name":"newOwner","type":"address","internalType":"address"}],"outputs":[],"stateMutability":"nonpayable"},{"type":"function","name":"uploadCode","inputs":[{"name":"codeId","type":"bytes32","internalType":"bytes32"},{"name":"blobTx","type":"bytes32","internalType":"bytes32"}],"outputs":[],"stateMutability":"nonpayable"},{"type":"function","name":"validators","inputs":[{"name":"validator","type":"address","internalType":"address"}],"outputs":[{"name":"","type":"bool","internalType":"bool"}],"stateMutability":"view"},{"type":"function","name":"wrappedVara","inputs":[],"outputs":[{"name":"","type":"address","internalType":"address"}],"stateMutability":"view"},{"type":"event","name":"BlockCommitted","inputs":[{"name":"blockHash","type":"bytes32","indexed":true,"internalType":"bytes32"}],"anonymous":false},{"type":"event","name":"ClaimValue","inputs":[{"name":"origin","type":"address","indexed":true,"internalType":"address"},{"name":"messageId","type":"bytes32","indexed":true,"internalType":"bytes32"}],"anonymous":false},{"type":"event","name":"CodeApproved","inputs":[{"name":"codeId","type":"bytes32","indexed":true,"internalType":"bytes32"}],"anonymous":false},{"type":"event","name":"CodeRejected","inputs":[{"name":"codeId","type":"bytes32","indexed":true,"internalType":"bytes32"}],"anonymous":false},{"type":"event","name":"CreateProgram","inputs":[{"name":"origin","type":"address","indexed":true,"internalType":"address"},{"name":"actorId","type":"address","indexed":true,"internalType":"address"},{"name":"codeId","type":"bytes32","indexed":true,"internalType":"bytes32"},{"name":"initPayload","type":"bytes","indexed":false,"internalType":"bytes"},{"name":"gasLimit","type":"uint64","indexed":false,"internalType":"uint64"},{"name":"value","type":"uint128","indexed":false,"internalType":"uint128"}],"anonymous":false},{"type":"event","name":"Initialized","inputs":[{"name":"version","type":"uint64","indexed":false,"internalType":"uint64"}],"anonymous":false},{"type":"event","name":"OwnershipTransferred","inputs":[{"name":"previousOwner","type":"address","indexed":true,"internalType":"address"},{"name":"newOwner","type":"address","indexed":true,"internalType":"address"}],"anonymous":false},{"type":"event","name":"SendMessage","inputs":[{"name":"origin","type":"address","indexed":true,"internalType":"address"},{"name":"destination","type":"address","indexed":true,"internalType":"address"},{"name":"payload","type":"bytes","indexed":false,"internalType":"bytes"},{"name":"gasLimit","type":"uint64","indexed":false,"internalType":"uint64"},{"name":"value","type":"uint128","indexed":false,"internalType":"uint128"}],"anonymous":false},{"type":"event","name":"SendReply","inputs":[{"name":"origin","type":"address","indexed":true,"internalType":"address"},{"name":"replyToId","type":"bytes32","indexed":true,"internalType":"bytes32"},{"name":"payload","type":"bytes","indexed":false,"internalType":"bytes"},{"name":"gasLimit","type":"uint64","indexed":false,"internalType":"uint64"},{"name":"value","type":"uint128","indexed":false,"internalType":"uint128"}],"anonymous":false},{"type":"event","name":"UpdatedProgram","inputs":[{"name":"actorId","type":"address","indexed":true,"internalType":"address"},{"name":"oldStateHash","type":"bytes32","indexed":false,"internalType":"bytes32"},{"name":"newStateHash","type":"bytes32","indexed":false,"internalType":"bytes32"}],"anonymous":false},{"type":"event","name":"UploadCode","inputs":[{"name":"origin","type":"address","indexed":true,"internalType":"address"},{"name":"codeId","type":"bytes32","indexed":true,"internalType":"bytes32"},{"name":"blobTx","type":"bytes32","indexed":true,"internalType":"bytes32"}],"anonymous":false},{"type":"event","name":"UserMessageSent","inputs":[{"name":"messageId","type":"bytes32","indexed":true,"internalType":"bytes32"},{"name":"destination","type":"address","indexed":true,"internalType":"address"},{"name":"payload","type":"bytes","indexed":false,"internalType":"bytes"},{"name":"value","type":"uint128","indexed":false,"internalType":"uint128"}],"anonymous":false},{"type":"event","name":"UserReplySent","inputs":[{"name":"messageId","type":"bytes32","indexed":true,"internalType":"bytes32"},{"name":"destination","type":"address","indexed":true,"internalType":"address"},{"name":"payload","type":"bytes","indexed":false,"internalType":"bytes"},{"name":"value","type":"uint128","indexed":false,"internalType":"uint128"},{"name":"replyTo","type":"bytes32","indexed":false,"internalType":"bytes32"},{"name":"replyCode","type":"bytes4","indexed":false,"internalType":"bytes4"}],"anonymous":false},{"type":"error","name":"ECDSAInvalidSignature","inputs":[]},{"type":"error","name":"ECDSAInvalidSignatureLength","inputs":[{"name":"length","type":"uint256","internalType":"uint256"}]},{"type":"error","name":"ECDSAInvalidSignatureS","inputs":[{"name":"s","type":"bytes32","internalType":"bytes32"}]},{"type":"error","name":"FailedDeployment","inputs":[]},{"type":"error","name":"InsufficientBalance","inputs":[{"name":"balance","type":"uint256","internalType":"uint256"},{"name":"needed","type":"uint256","internalType":"uint256"}]},{"type":"error","name":"InvalidInitialization","inputs":[]},{"type":"error","name":"NotInitializing","inputs":[]},{"type":"error","name":"OwnableInvalidOwner","inputs":[{"name":"owner","type":"address","internalType":"address"}]},{"type":"error","name":"OwnableUnauthorizedAccount","inputs":[{"name":"account","type":"address","internalType":"address"}]},{"type":"error","name":"ReentrancyGuardReentrantCall","inputs":[]}],"bytecode":{"object":"0x6080604052348015600e575f80fd5b5060156019565b60c9565b7ff0c57e16840df040f15088dc2f81fe391c3923bec73e23a9662efc9c229c6a00805468010000000000000000900460ff161560685760405163f92ee8a960e01b815260040160405180910390fd5b80546001600160401b039081161460c65780546001600160401b0319166001600160401b0390811782556040519081527fc7f505b2f371ae2175ee4913f4499e1f2633a7b5936321eed1cdaeb6115181d29060200160405180910390a15b50565b612702806100d65f395ff3fe608060405260043610610195575f3560e01c80638a3b2202116100e7578063c860ebc611610087578063f2fde38b11610062578063f2fde38b1461043d578063f79353e21461045c578063f8453e7c14610470578063fa52c7d81461048f575f80fd5b8063c860ebc6146103eb578063dcc82b30146103ff578063e97d3eb31461041e575f80fd5b806396708226116100c257806396708226146103785780639ac18b19146101ba578063a04a8836146103ab578063ad656510146103bf575f80fd5b80638a3b2202146103325780638da5cb5b1461034557806391d5a64c14610359575f80fd5b80635686cad511610152578063715018a61161012d578063715018a6146102a457806375e7e6dd146102b85780638405e41c146102d757806388f50cf014610306575f80fd5b80635686cad5146102475780635daa83bc146102665780637022395214610285575f80fd5b806312c89ee6146101995780631b76cd15146101ba5780631d40f0d8146101e157806328e24b3d146102005780632dacfb691461021457806332bc103a14610228575b5f80fd5b3480156101a4575f80fd5b506101b86101b3366004611dd5565b6104ae565b005b3480156101c5575f80fd5b506101ce600181565b6040519081526020015b60405180910390f35b3480156101ec575f80fd5b506101b86101fb366004611e3c565b6105c2565b34801561020b575f80fd5b506101ce610636565b34801561021f575f80fd5b506101ce61064a565b348015610233575f80fd5b506101b8610242366004611ee8565b61065e565b348015610252575f80fd5b506101b8610261366004611f95565b6106f3565b348015610271575f80fd5b506101b8610280366004612027565b610765565b348015610290575f80fd5b506101b861029f36600461212d565b6107eb565b3480156102af575f80fd5b506101b86108c5565b3480156102c3575f80fd5b506101b86102d2366004612166565b6108d8565b3480156102e2575f80fd5b506102f66102f136600461219d565b610966565b60405190151581526020016101d8565b348015610311575f80fd5b5061031a610994565b6040516001600160a01b0390911681526020016101d8565b61031a6103403660046121b6565b6109b1565b348015610350575f80fd5b5061031a610af9565b348015610364575f80fd5b506101b861037336600461220c565b610b2d565b348015610383575f80fd5b507f5c09ca1b9b8127a4fd9f3c384aac59b661441e820e17733753ff5f2e86e1e000546101ce565b3480156103b6575f80fd5b5061031a610b99565b3480156103ca575f80fd5b506103de6103d936600461220c565b610bb6565b6040516101d89190612237565b3480156103f6575f80fd5b5061031a610bd7565b34801561040a575f80fd5b506101b861041936600461219d565b610be1565b348015610429575f80fd5b506101b861043836600461225d565b610c14565b348015610448575f80fd5b506101b861045736600461219d565b610df4565b348015610467575f80fd5b506101ce610e31565b34801561047b575f80fd5b506101b861048a3660046122dd565b610e45565b34801561049a575f80fd5b506102f66104a936600461219d565b610ff1565b801515806104bc57505f4915155b6105035760405162461bcd60e51b815260206004820152601360248201527234b73b30b634b2103a3930b739b0b1ba34b7b760691b60448201526064015b60405180910390fd5b5f61050c61101f565b90505f8084815260078301602052604090205460ff16600281111561053357610533612223565b146105785760405162461bcd60e51b815260206004820152601560248201527418dbd91948185b1c9958591e481d5c1b1bd8591959605a1b60448201526064016104fa565b5f838152600782016020526040808220805460ff19166001179055518391859132917f89337fc1ee8ae60a973f7955a6f3b30f88e5410b1b8d0cb66f1ffe64f15b014791a4505050565b6105ca61104f565b5f6105d361101f565b90505f5b82811015610630575f8484838181106105f2576105f2612357565b9050602002016020810190610607919061219d565b6001600160a01b03165f9081526006840160205260409020805460ff19169055506001016105d7565b50505050565b5f8061064061101f565b6003015492915050565b5f8061065461101f565b6004015492915050565b5f61066761101f565b335f90815260088201602052604090205490915060ff1661069a5760405162461bcd60e51b81526004016104fa9061236b565b6106a383611081565b85326001600160a01b03167f204148dee25f04b18563a0acc7eb3e02efffc904f421ede0d4be0e346bb6f85b878787876040516106e394939291906123bc565b60405180910390a3505050505050565b6106fb61104f565b805160208201205f9060ff19906107149060019061240c565b60405160200161072691815260200190565b60408051808303601f190181529190528051602090910120167f5c09ca1b9b8127a4fd9f3c384aac59b661441e820e17733753ff5f2e86e1e000555050565b61076d6111d4565b60605f5b848110156107d6573686868381811061078c5761078c612357565b905060200281019061079e919061241f565b9050826107aa82611241565b6040516020016107bb929190612454565b60408051601f19818403018152919052925050600101610771565b506107e2818484611851565b506106306119bd565b6107f361104f565b5f6107fc61101f565b90505f82518260050154610810919061246c565b905060018111156108635760405162461bcd60e51b815260206004820152601860248201527f76616c696461746f7220736574206973206c696d69746564000000000000000060448201526064016104fa565b600582018190555f5b8351811015610630575f84828151811061088857610888612357565b6020908102919091018101516001600160a01b03165f9081526006860190915260409020805460ff1916600190811790915591909101905061086c565b6108cd61104f565b6108d65f6119e7565b565b5f6108e161101f565b335f90815260088201602052604090205490915060ff166109145760405162461bcd60e51b81526004016104fa9061236b565b61091d83611081565b856001600160a01b0316326001600160a01b03167fb105185d664b1ff6a130ce4b3c5bb34a3458975626080a0d7e96d8f762be6ac7878787876040516106e394939291906123bc565b5f8061097061101f565b6001600160a01b039093165f90815260089093016020525050604090205460ff1690565b5f8061099e61101f565b600201546001600160a01b031692915050565b5f806109bb61101f565b905060025f88815260078301602052604090205460ff1660028111156109e3576109e3612223565b14610a265760405162461bcd60e51b815260206004820152601360248201527218dbd919481a5cc81d5b98dbdb999a5c9b5959606a1b60448201526064016104fa565b600181015460408051602081018990529081018990525f91610a6d916001600160a01b03909116906060016040516020818303038152906040528051906020012034611a57565b6001600160a01b0381165f9081526008840160205260409020805460ff191660011790559050610a9c84611081565b87816001600160a01b0316326001600160a01b03167fb90c432f60141e2e722cf44fae355f53c753fb6aa0055830d923a97176a5466089898934604051610ae694939291906123bc565b60405180910390a4979650505050505050565b5f807f9016d09d72d40fdae2fd8ceac6b6234c7706214fd39c1cd1e609a0528c1993005b546001600160a01b031692915050565b5f610b3661101f565b335f90815260088201602052604090205490915060ff16610b695760405162461bcd60e51b81526004016104fa9061236b565b604051829032907f97a53fd72bd7027ca7db954b7f2e71b95fd2b53e28c71989eb471c5526638394905f90a35050565b5f80610ba361101f565b600101546001600160a01b031692915050565b5f80610bc061101f565b5f9384526007016020525050604090205460ff1690565b5f80610b1d61101f565b610be961104f565b5f610bf261101f565b80546001600160a01b0319166001600160a01b03939093169290921790915550565b5f610c1d61101f565b905060605f5b85811015610de05736878783818110610c3e57610c3e612357565b905060400201905082815f0135826020016020810190610c5e919061248c565b604051602001610c7d929190918252151560f81b602082015260210190565b60405160208183030381529060405280519060200120604051602001610ca4929190612454565b60408051601f198184030181529190529250803560015f82815260078701602052604090205460ff166002811115610cde57610cde612223565b14610d3c5760405162461bcd60e51b815260206004820152602860248201527f636f64652073686f756c642062652075706c6f616465642c2062757420756e636044820152671bdb999a5c9b595960c21b60648201526084016104fa565b610d4c604083016020840161248c565b15610d97575f818152600786016020526040808220805460ff191660021790555182917fcc0d34eaf410bb52e4f095d02c879447f1f71fc835be3a77e777b2dc819b6d0c91a2610dd6565b5f818152600786016020526040808220805460ff191690555182917fd59273cb2f7b30bcc4aadd78bde6cb5e36efe7c78138c48e07d72c12b770101391a25b5050600101610c23565b50610dec818585611851565b505050505050565b610dfc61104f565b6001600160a01b038116610e2557604051631e4fbdf760e01b81525f60048201526024016104fa565b610e2e816119e7565b50565b5f80610e3b61101f565b6005015492915050565b7ff0c57e16840df040f15088dc2f81fe391c3923bec73e23a9662efc9c229c6a008054600160401b810460ff1615906001600160401b03165f81158015610e895750825b90505f826001600160401b03166001148015610ea45750303b155b905081158015610eb2575080155b15610ed05760405163f92ee8a960e01b815260040160405180910390fd5b845467ffffffffffffffff191660011785558315610efa57845460ff60401b1916600160401b1785555b610f038a611af3565b610f39604051806040016040528060158152602001743937baba32b91739ba37b930b3b2972937baba32b960591b8152506106f3565b5f610f4261101f565b80546001600160a01b03808d166001600160a01b0319928316178355600180840180548e8416908516179055600284018054928d169290931691909117909155909150610f8f904361240c565b406003820155610f9e876107eb565b508315610fe557845460ff60401b19168555604051600181527fc7f505b2f371ae2175ee4913f4499e1f2633a7b5936321eed1cdaeb6115181d29060200160405180910390a15b50505050505050505050565b5f80610ffb61101f565b6001600160a01b039093165f90815260069093016020525050604090205460ff1690565b5f806110497f5c09ca1b9b8127a4fd9f3c384aac59b661441e820e17733753ff5f2e86e1e0005490565b92915050565b33611058610af9565b6001600160a01b0316146108d65760405163118cdaa760e01b81523360048201526024016104fa565b5f61108a61101f565b60028101546040516334e6ced760e21b81526001600160401b03851660048201529192506001600160a01b0316905f9082906323b872dd9032903090849063d39b3b5c90602401602060405180830381865afa1580156110ec573d5f803e3d5ffd5b505050506040513d601f19601f8201168201806040525081019061111091906124a7565b6040516001600160e01b031960e086901b1681526001600160a01b03938416600482015292909116602483015260448201526064016020604051808303815f875af1158015611161573d5f803e3d5ffd5b505050506040513d601f19601f8201168201806040525081019061118591906124be565b9050806106305760405162461bcd60e51b815260206004820152601960248201527f6661696c656420746f207472616e7366657220746f6b656e730000000000000060448201526064016104fa565b7f9b779b17422d0df92223018b32b4d1fa46e071723d6817e2486d003becc55f005c1561121457604051633ee5aeb560e01b815260040160405180910390fd5b6108d660017f9b779b17422d0df92223018b32b4d1fa46e071723d6817e2486d003becc55f005b90611b04565b5f8061124b61101f565b905082602001358160040154146112a45760405162461bcd60e51b815260206004820152601e60248201527f696e76616c6964207072656465636573736f7220636f6d6d69746d656e74000060448201526064016104fa565b6112b18360400135611b0b565b6112fd5760405162461bcd60e51b815260206004820152601d60248201527f616c6c6f776564207072656465636573736f72206e6f7420666f756e6400000060448201526064016104fa565b8235600482018190556040517fd756eca21e02cb0dbde1e44a4d9c6921b5c8aa4668cfa0752784b3dc855bce1e905f90a260605f5b61133f60608601866124d9565b9050811015611800573661135660608701876124d9565b8381811061136657611366612357565b9050602002810190611378919061241f565b9050600884015f61138c602084018461219d565b6001600160a01b0316815260208101919091526040015f205460ff166113c45760405162461bcd60e51b81526004016104fa9061236b565b5f6113d2602083018361219d565b905060605f5b6113e560608501856124d9565b905081101561169957366113fc60608601866124d9565b8381811061140c5761140c612357565b905060200281019061141e919061251e565b9050828135611433604084016020850161219d565b6114406040850185612532565b6114506080870160608801612574565b608087013561146560c0890160a08a0161258d565b60405160200161147b97969594939291906125b4565b604051602081830303815290604052805190602001206040516020016114a2929190612454565b60408051601f1981840301815291905292505f6114c56080830160608401612574565b6001600160801b03161115611566576001600160a01b038416639336255f6114f3604084016020850161219d565b6115036080850160608601612574565b6040516001600160e01b031960e085901b1681526001600160a01b0390921660048301526001600160801b031660248201526044015f604051808303815f87803b15801561154f575f80fd5b505af1158015611561573d5f803e3d5ffd5b505050505b6080810180351580156115905750611584604082016020830161258d565b6001600160e01b031916155b1561160a576115a5604083016020840161219d565b6001600160a01b031682357ff28a6516a269f24dd85b12b0430f263e020c6da15f78cfd7e405dd26d7c92b2c6115de6040860186612532565b6115ee6080880160608901612574565b6040516115fd9392919061261a565b60405180910390a361168f565b61161a604083016020840161219d565b6001600160a01b031682357f938c4eb9e98fe77361e074d847c72bb8f4d973ccf7fc127ebe8de12f25a26d246116536040860186612532565b6116636080880160608901612574565b86356116756040890160208a0161258d565b604051611686959493929190612646565b60405180910390a35b50506001016113d8565b50846116a8602085018561219d565b82516020808501919091206040805160609490941b6bffffffffffffffffffffffff191684840152918701356034840152908601356054830152607482015260940160405160208183030381529060405280519060200120604051602001611711929190612454565b604051602081830303815290604052945082604001358360200135146117f5576040805163e9e2d09960e01b8152602085013560048201529084013560248201526001600160a01b0383169063e9e2d099906044015f604051808303815f87803b15801561177d575f80fd5b505af115801561178f573d5f803e3d5ffd5b506117a192505050602084018461219d565b6001600160a01b03167f5e7f42f8499cb41931ca69fd6e8ada438ba8641bbeb31905bffc25d4de4e9a0a846020013585604001356040516117ec929190918252602082015260400190565b60405180910390a25b505050600101611332565b508051602082810191909120604080518735818501528188013591810191909152918601356060830152608082015260a0016040516020818303038152906040528051906020012092505050919050565b5f61185a61101f565b90505f611891858051906020012060405160200161187a91815260200190565b60408051601f198184030181529190523090611b5d565b90505f5b8381101561197457365f8686848181106118b1576118b1612357565b90506020028101906118c39190612532565b915091505f61190983838080601f0160208091040260200160405190810160405280939291908181526020018383808284375f920191909152508993925050611b8f9050565b6001600160a01b0381165f90815260068801602052604090205490915060ff166119695760405162461bcd60e51b8152602060048201526011602482015270756e6b6e6f776e207369676e617475726560781b60448201526064016104fa565b505050600101611895565b6001811015610dec5760405162461bcd60e51b81526020600482015260156024820152746e6f7420656e6f756768207369676e61747572657360581b60448201526064016104fa565b6108d65f7f9b779b17422d0df92223018b32b4d1fa46e071723d6817e2486d003becc55f0061123b565b7f9016d09d72d40fdae2fd8ceac6b6234c7706214fd39c1cd1e609a0528c19930080546001600160a01b031981166001600160a01b03848116918217845560405192169182907f8be0079c531659141344cd1fd0a4f28419497f9722a3daafe3b4186f6b6457e0905f90a3505050565b5f81471015611a825760405163cf47918160e01b8152476004820152602481018390526044016104fa565b763d602d80600a3d3981f3363d3d373d3d3d363d730000008460601b60e81c175f526e5af43d82803e903d91602b57fd5bf38460781b17602052826037600984f590506001600160a01b038116611aec5760405163b06ebf3d60e01b815260040160405180910390fd5b9392505050565b611afb611bb7565b610e2e81611c00565b80825d5050565b5f80611b1860014361240c565b90505b8015611b55578040838103611b34575060019392505050565b5f819003611b425750611b55565b5080611b4d81612689565b915050611b1b565b505f92915050565b5f8282604051602001611b7192919061269e565b60405160208183030381529060405280519060200120905092915050565b5f805f80611b9d8686611c08565b925092509250611bad8282611c51565b5090949350505050565b7ff0c57e16840df040f15088dc2f81fe391c3923bec73e23a9662efc9c229c6a0054600160401b900460ff166108d657604051631afcd79f60e31b815260040160405180910390fd5b610dfc611bb7565b5f805f8351604103611c3f576020840151604085015160608601515f1a611c3188828585611d0d565b955095509550505050611c4a565b505081515f91506002905b9250925092565b5f826003811115611c6457611c64612223565b03611c6d575050565b6001826003811115611c8157611c81612223565b03611c9f5760405163f645eedf60e01b815260040160405180910390fd5b6002826003811115611cb357611cb3612223565b03611cd45760405163fce698f760e01b8152600481018290526024016104fa565b6003826003811115611ce857611ce8612223565b03611d09576040516335e2f38360e21b8152600481018290526024016104fa565b5050565b5f80807f7fffffffffffffffffffffffffffffff5d576e7357a4501ddfe92f46681b20a0841115611d4657505f91506003905082611dcb565b604080515f808252602082018084528a905260ff891692820192909252606081018790526080810186905260019060a0016020604051602081039080840390855afa158015611d97573d5f803e3d5ffd5b5050604051601f1901519150506001600160a01b038116611dc257505f925060019150829050611dcb565b92505f91508190505b9450945094915050565b5f8060408385031215611de6575f80fd5b50508035926020909101359150565b5f8083601f840112611e05575f80fd5b5081356001600160401b03811115611e1b575f80fd5b6020830191508360208260051b8501011115611e35575f80fd5b9250929050565b5f8060208385031215611e4d575f80fd5b82356001600160401b03811115611e62575f80fd5b611e6e85828601611df5565b90969095509350505050565b5f8083601f840112611e8a575f80fd5b5081356001600160401b03811115611ea0575f80fd5b602083019150836020828501011115611e35575f80fd5b80356001600160401b0381168114611ecd575f80fd5b919050565b80356001600160801b0381168114611ecd575f80fd5b5f805f805f60808688031215611efc575f80fd5b8535945060208601356001600160401b03811115611f18575f80fd5b611f2488828901611e7a565b9095509350611f37905060408701611eb7565b9150611f4560608701611ed2565b90509295509295909350565b634e487b7160e01b5f52604160045260245ffd5b604051601f8201601f191681016001600160401b0381118282101715611f8d57611f8d611f51565b604052919050565b5f60208284031215611fa5575f80fd5b81356001600160401b03811115611fba575f80fd5b8201601f81018413611fca575f80fd5b80356001600160401b03811115611fe357611fe3611f51565b611ff6601f8201601f1916602001611f65565b81815285602083850101111561200a575f80fd5b816020840160208301375f91810160200191909152949350505050565b5f805f806040858703121561203a575f80fd5b84356001600160401b0381111561204f575f80fd5b61205b87828801611df5565b90955093505060208501356001600160401b03811115612079575f80fd5b61208587828801611df5565b95989497509550505050565b80356001600160a01b0381168114611ecd575f80fd5b5f82601f8301126120b6575f80fd5b81356001600160401b038111156120cf576120cf611f51565b8060051b6120df60208201611f65565b918252602081850181019290810190868411156120fa575f80fd5b6020860192505b838310156121235761211283612091565b825260209283019290910190612101565b9695505050505050565b5f6020828403121561213d575f80fd5b81356001600160401b03811115612152575f80fd5b61215e848285016120a7565b949350505050565b5f805f805f6080868803121561217a575f80fd5b61218386612091565b945060208601356001600160401b03811115611f18575f80fd5b5f602082840312156121ad575f80fd5b611aec82612091565b5f805f805f608086880312156121ca575f80fd5b853594506020860135935060408601356001600160401b038111156121ed575f80fd5b6121f988828901611e7a565b9094509250611f45905060608701611eb7565b5f6020828403121561221c575f80fd5b5035919050565b634e487b7160e01b5f52602160045260245ffd5b602081016003831061225757634e487b7160e01b5f52602160045260245ffd5b91905290565b5f805f8060408587031215612270575f80fd5b84356001600160401b03811115612285575f80fd5b8501601f81018713612295575f80fd5b80356001600160401b038111156122aa575f80fd5b8760208260061b84010111156122be575f80fd5b6020918201955093508501356001600160401b03811115612079575f80fd5b5f805f805f60a086880312156122f1575f80fd5b6122fa86612091565b945061230860208701612091565b935061231660408701612091565b925061232460608701612091565b915060808601356001600160401b0381111561233e575f80fd5b61234a888289016120a7565b9150509295509295909350565b634e487b7160e01b5f52603260045260245ffd5b6020808252600f908201526e756e6b6e6f776e2070726f6772616d60881b604082015260600190565b81835281816020850137505f828201602090810191909152601f909101601f19169091010190565b606081525f6123cf606083018688612394565b90506001600160401b03841660208301526001600160801b038316604083015295945050505050565b634e487b7160e01b5f52601160045260245ffd5b81810381811115611049576110496123f8565b5f8235607e19833603018112612433575f80fd5b9190910192915050565b5f81518060208401855e5f93019283525090919050565b5f61245f828561243d565b9283525050602001919050565b80820180821115611049576110496123f8565b8015158114610e2e575f80fd5b5f6020828403121561249c575f80fd5b8135611aec8161247f565b5f602082840312156124b7575f80fd5b5051919050565b5f602082840312156124ce575f80fd5b8151611aec8161247f565b5f808335601e198436030181126124ee575f80fd5b8301803591506001600160401b03821115612507575f80fd5b6020019150600581901b3603821315611e35575f80fd5b5f823560be19833603018112612433575f80fd5b5f808335601e19843603018112612547575f80fd5b8301803591506001600160401b03821115612560575f80fd5b602001915036819003821315611e35575f80fd5b5f60208284031215612584575f80fd5b611aec82611ed2565b5f6020828403121561259d575f80fd5b81356001600160e01b031981168114611aec575f80fd5b8781526bffffffffffffffffffffffff198760601b1660208201528486603483013760809390931b6fffffffffffffffffffffffffffffffff19166034949093019384019290925260448301526001600160e01b03191660648201526068019392505050565b604081525f61262d604083018587612394565b90506001600160801b0383166020830152949350505050565b608081525f612659608083018789612394565b6001600160801b039590951660208301525060408101929092526001600160e01b03191660609091015292915050565b5f81612697576126976123f8565b505f190190565b601960f81b8152606083901b6bffffffffffffffffffffffff191660028201525f61215e601683018461243d56fea2646970667358221220370712ff7074b2a727892158e1526e69254d49e82244ff929a644f5df46bab1764736f6c634300081a0033","linkReferences":{}},"methodIdentifiers":{"COUNT_OF_VALIDATORS()":"1b76cd15","REQUIRED_SIGNATURES()":"9ac18b19","addValidators(address[])":"70223952","claimValue(bytes32)":"91d5a64c","codes(bytes32)":"ad656510","commitBlocks((bytes32,bytes32,bytes32,(address,bytes32,bytes32,(bytes32,address,bytes,uint128,(bytes32,bytes4))[])[])[],bytes[])":"5daa83bc","commitCodes((bytes32,bool)[],bytes[])":"e97d3eb3","countOfValidators()":"f79353e2","createProgram(bytes32,bytes32,bytes,uint64)":"8a3b2202","genesisBlockHash()":"28e24b3d","getStorageSlot()":"96708226","initialize(address,address,address,address,address[])":"f8453e7c","lastBlockCommitmentHash()":"2dacfb69","minimalProgram()":"a04a8836","owner()":"8da5cb5b","program()":"c860ebc6","programs(address)":"8405e41c","removeValidators(address[])":"1d40f0d8","renounceOwnership()":"715018a6","sendMessage(address,bytes,uint64,uint128)":"75e7e6dd","sendReply(bytes32,bytes,uint64,uint128)":"32bc103a","setProgram(address)":"dcc82b30","setStorageSlot(string)":"5686cad5","transferOwnership(address)":"f2fde38b","uploadCode(bytes32,bytes32)":"12c89ee6","validators(address)":"fa52c7d8","wrappedVara()":"88f50cf0"},"storageLayout":{"storage":[],"types":{}},"id":81}