{"abi":[{"type":"constructor","inputs":[],"stateMutability":"nonpayable"},{"type":"function","name":"areValidators","inputs":[{"name":"_validators","type":"address[]","internalType":"address[]"}],"outputs":[{"name":"","type":"bool","internalType":"bool"}],"stateMutability":"view"},{"type":"function","name":"codeState","inputs":[{"name":"_codeId","type":"bytes32","internalType":"bytes32"}],"outputs":[{"name":"","type":"uint8","internalType":"enum Gear.CodeState"}],"stateMutability":"view"},{"type":"function","name":"codesStates","inputs":[{"name":"_codesIds","type":"bytes32[]","internalType":"bytes32[]"}],"outputs":[{"name":"","type":"uint8[]","internalType":"enum Gear.CodeState[]"}],"stateMutability":"view"},{"type":"function","name":"commitBatch","inputs":[{"name":"_batchCommitment","type":"tuple","internalType":"struct Gear.BatchCommitment","components":[{"name":"codeCommitments","type":"tuple[]","internalType":"struct Gear.CodeCommitment[]","components":[{"name":"id","type":"bytes32","internalType":"bytes32"},{"name":"timestamp","type":"uint48","internalType":"uint48"},{"name":"valid","type":"bool","internalType":"bool"}]},{"name":"blockCommitments","type":"tuple[]","internalType":"struct Gear.BlockCommitment[]","components":[{"name":"hash","type":"bytes32","internalType":"bytes32"},{"name":"timestamp","type":"uint48","internalType":"uint48"},{"name":"previousCommittedBlock","type":"bytes32","internalType":"bytes32"},{"name":"predecessorBlock","type":"bytes32","internalType":"bytes32"},{"name":"transitions","type":"tuple[]","internalType":"struct Gear.StateTransition[]","components":[{"name":"actorId","type":"address","internalType":"address"},{"name":"newStateHash","type":"bytes32","internalType":"bytes32"},{"name":"inheritor","type":"address","internalType":"address"},{"name":"valueToReceive","type":"uint128","internalType":"uint128"},{"name":"valueClaims","type":"tuple[]","internalType":"struct Gear.ValueClaim[]","components":[{"name":"messageId","type":"bytes32","internalType":"bytes32"},{"name":"destination","type":"address","internalType":"address"},{"name":"value","type":"uint128","internalType":"uint128"}]},{"name":"messages","type":"tuple[]","internalType":"struct Gear.Message[]","components":[{"name":"id","type":"bytes32","internalType":"bytes32"},{"name":"destination","type":"address","internalType":"address"},{"name":"payload","type":"bytes","internalType":"bytes"},{"name":"value","type":"uint128","internalType":"uint128"},{"name":"replyDetails","type":"tuple","internalType":"struct Gear.ReplyDetails","components":[{"name":"to","type":"bytes32","internalType":"bytes32"},{"name":"code","type":"bytes4","internalType":"bytes4"}]}]}]}]}]},{"name":"_signatureType","type":"uint8","internalType":"enum Gear.SignatureType"},{"name":"_signatures","type":"bytes[]","internalType":"bytes[]"}],"outputs":[],"stateMutability":"nonpayable"},{"type":"function","name":"commitValidators","inputs":[{"name":"_validatorsCommitment","type":"tuple","internalType":"struct Gear.ValidatorsCommitment","components":[{"name":"aggregatedPublicKey","type":"tuple","internalType":"struct Gear.AggregatedPublicKey","components":[{"name":"x","type":"uint256","internalType":"uint256"},{"name":"y","type":"uint256","internalType":"uint256"}]},{"name":"verifiableSecretSharingCommitment","type":"bytes","internalType":"bytes"},{"name":"validators","type":"address[]","internalType":"address[]"},{"name":"eraIndex","type":"uint256","internalType":"uint256"}]},{"name":"_signatureType","type":"uint8","internalType":"enum Gear.SignatureType"},{"name":"_signatures","type":"bytes[]","internalType":"bytes[]"}],"outputs":[],"stateMutability":"nonpayable"},{"type":"function","name":"computeSettings","inputs":[],"outputs":[{"name":"","type":"tuple","internalType":"struct Gear.ComputationSettings","components":[{"name":"threshold","type":"uint64","internalType":"uint64"},{"name":"wvaraPerSecond","type":"uint128","internalType":"uint128"}]}],"stateMutability":"view"},{"type":"function","name":"createProgram","inputs":[{"name":"_codeId","type":"bytes32","internalType":"bytes32"},{"name":"_salt","type":"bytes32","internalType":"bytes32"}],"outputs":[{"name":"","type":"address","internalType":"address"}],"stateMutability":"nonpayable"},{"type":"function","name":"createProgramWithAbiInterface","inputs":[{"name":"_codeId","type":"bytes32","internalType":"bytes32"},{"name":"_abiInterface","type":"address","internalType":"address"},{"name":"_salt","type":"bytes32","internalType":"bytes32"}],"outputs":[{"name":"","type":"address","internalType":"address"}],"stateMutability":"nonpayable"},{"type":"function","name":"genesisBlockHash","inputs":[],"outputs":[{"name":"","type":"bytes32","internalType":"bytes32"}],"stateMutability":"view"},{"type":"function","name":"genesisTimestamp","inputs":[],"outputs":[{"name":"","type":"uint48","internalType":"uint48"}],"stateMutability":"view"},{"type":"function","name":"initialize","inputs":[{"name":"_owner","type":"address","internalType":"address"},{"name":"_mirror","type":"address","internalType":"address"},{"name":"_wrappedVara","type":"address","internalType":"address"},{"name":"_eraDuration","type":"uint256","internalType":"uint256"},{"name":"_electionDuration","type":"uint256","internalType":"uint256"},{"name":"_validationDelay","type":"uint256","internalType":"uint256"},{"name":"_aggregatedPublicKey","type":"tuple","internalType":"struct Gear.AggregatedPublicKey","components":[{"name":"x","type":"uint256","internalType":"uint256"},{"name":"y","type":"uint256","internalType":"uint256"}]},{"name":"_verifiableSecretSharingCommitment","type":"bytes","internalType":"bytes"},{"name":"_validators","type":"address[]","internalType":"address[]"}],"outputs":[],"stateMutability":"nonpayable"},{"type":"function","name":"isValidator","inputs":[{"name":"_validator","type":"address","internalType":"address"}],"outputs":[{"name":"","type":"bool","internalType":"bool"}],"stateMutability":"view"},{"type":"function","name":"latestCommittedBlockHash","inputs":[],"outputs":[{"name":"","type":"bytes32","internalType":"bytes32"}],"stateMutability":"view"},{"type":"function","name":"lookupGenesisHash","inputs":[],"outputs":[],"stateMutability":"nonpayable"},{"type":"function","name":"mirrorImpl","inputs":[],"outputs":[{"name":"","type":"address","internalType":"address"}],"stateMutability":"view"},{"type":"function","name":"owner","inputs":[],"outputs":[{"name":"","type":"address","internalType":"address"}],"stateMutability":"view"},{"type":"function","name":"programCodeId","inputs":[{"name":"_programId","type":"address","internalType":"address"}],"outputs":[{"name":"","type":"bytes32","internalType":"bytes32"}],"stateMutability":"view"},{"type":"function","name":"programsCodeIds","inputs":[{"name":"_programsIds","type":"address[]","internalType":"address[]"}],"outputs":[{"name":"","type":"bytes32[]","internalType":"bytes32[]"}],"stateMutability":"view"},{"type":"function","name":"programsCount","inputs":[],"outputs":[{"name":"","type":"uint256","internalType":"uint256"}],"stateMutability":"view"},{"type":"function","name":"reinitialize","inputs":[],"outputs":[],"stateMutability":"nonpayable"},{"type":"function","name":"renounceOwnership","inputs":[],"outputs":[],"stateMutability":"nonpayable"},{"type":"function","name":"requestCodeValidation","inputs":[{"name":"_codeId","type":"bytes32","internalType":"bytes32"}],"outputs":[],"stateMutability":"nonpayable"},{"type":"function","name":"setMirror","inputs":[{"name":"newMirror","type":"address","internalType":"address"}],"outputs":[],"stateMutability":"nonpayable"},{"type":"function","name":"signingThresholdPercentage","inputs":[],"outputs":[{"name":"","type":"uint16","internalType":"uint16"}],"stateMutability":"view"},{"type":"function","name":"transferOwnership","inputs":[{"name":"newOwner","type":"address","internalType":"address"}],"outputs":[],"stateMutability":"nonpayable"},{"type":"function","name":"validatedCodesCount","inputs":[],"outputs":[{"name":"","type":"uint256","internalType":"uint256"}],"stateMutability":"view"},{"type":"function","name":"validators","inputs":[],"outputs":[{"name":"","type":"address[]","internalType":"address[]"}],"stateMutability":"view"},{"type":"function","name":"validatorsAggregatedPublicKey","inputs":[],"outputs":[{"name":"","type":"tuple","internalType":"struct Gear.AggregatedPublicKey","components":[{"name":"x","type":"uint256","internalType":"uint256"},{"name":"y","type":"uint256","internalType":"uint256"}]}],"stateMutability":"view"},{"type":"function","name":"validatorsCount","inputs":[],"outputs":[{"name":"","type":"uint256","internalType":"uint256"}],"stateMutability":"view"},{"type":"function","name":"validatorsThreshold","inputs":[],"outputs":[{"name":"","type":"uint256","internalType":"uint256"}],"stateMutability":"view"},{"type":"function","name":"validatorsVerifiableSecretSharingCommitment","inputs":[],"outputs":[{"name":"","type":"bytes","internalType":"bytes"}],"stateMutability":"view"},{"type":"function","name":"wrappedVara","inputs":[],"outputs":[{"name":"","type":"address","internalType":"address"}],"stateMutability":"view"},{"type":"event","name":"BlockCommitted","inputs":[{"name":"hash","type":"bytes32","indexed":false,"internalType":"bytes32"}],"anonymous":false},{"type":"event","name":"CodeGotValidated","inputs":[{"name":"codeId","type":"bytes32","indexed":false,"internalType":"bytes32"},{"name":"valid","type":"bool","indexed":true,"internalType":"bool"}],"anonymous":false},{"type":"event","name":"CodeValidationRequested","inputs":[{"name":"codeId","type":"bytes32","indexed":false,"internalType":"bytes32"}],"anonymous":false},{"type":"event","name":"ComputationSettingsChanged","inputs":[{"name":"threshold","type":"uint64","indexed":false,"internalType":"uint64"},{"name":"wvaraPerSecond","type":"uint128","indexed":false,"internalType":"uint128"}],"anonymous":false},{"type":"event","name":"Initialized","inputs":[{"name":"version","type":"uint64","indexed":false,"internalType":"uint64"}],"anonymous":false},{"type":"event","name":"NextEraValidatorsCommitted","inputs":[{"name":"startTimestamp","type":"uint256","indexed":false,"internalType":"uint256"}],"anonymous":false},{"type":"event","name":"OwnershipTransferred","inputs":[{"name":"previousOwner","type":"address","indexed":true,"internalType":"address"},{"name":"newOwner","type":"address","indexed":true,"internalType":"address"}],"anonymous":false},{"type":"event","name":"ProgramCreated","inputs":[{"name":"actorId","type":"address","indexed":false,"internalType":"address"},{"name":"codeId","type":"bytes32","indexed":true,"internalType":"bytes32"}],"anonymous":false},{"type":"event","name":"StorageSlotChanged","inputs":[],"anonymous":false},{"type":"error","name":"ECDSAInvalidSignature","inputs":[]},{"type":"error","name":"ECDSAInvalidSignatureLength","inputs":[{"name":"length","type":"uint256","internalType":"uint256"}]},{"type":"error","name":"ECDSAInvalidSignatureS","inputs":[{"name":"s","type":"bytes32","internalType":"bytes32"}]},{"type":"error","name":"InvalidInitialization","inputs":[]},{"type":"error","name":"NotInitializing","inputs":[]},{"type":"error","name":"OwnableInvalidOwner","inputs":[{"name":"owner","type":"address","internalType":"address"}]},{"type":"error","name":"OwnableUnauthorizedAccount","inputs":[{"name":"account","type":"address","internalType":"address"}]},{"type":"error","name":"ReentrancyGuardReentrantCall","inputs":[]}],"bytecode":{"object":"0x6080806040523460aa575f516020613d765f395f51905f525460ff8160401c16609b576002600160401b03196001600160401b038216016049575b604051613cc790816100af8239f35b6001600160401b0319166001600160401b039081175f516020613d765f395f51905f525581527fc7f505b2f371ae2175ee4913f4499e1f2633a7b5936321eed1cdaeb6115181d290602090a15f80603a565b63f92ee8a960e01b5f5260045ffd5b5f80fdfe6101a0806040526004361015610013575f80fd5b5f610180525f3560e01c9081627a32e71461271757508063120e3f1e1461258c57806328e24b3d1461255f5780633bd109fa146125115780633d43b418146124bf578063527de0f9146124315780636c2eb35014612145578063715018a6146120d357806382bdeaad14611fc257806384d22a4f14611f5757806388f50cf014611f1c5780638b1edf1e14611e4b5780638da5cb5b14611e145780638f381dbe14611dcf5780639067088e14611d8757806396a2ddfa14611d57578063a5d53a4414611ce3578063aa54494a146118c4578063baaf0201146117c3578063c13911e814611779578063c9f16a1114611749578063ca1e7819146116c2578063cacf66ab14611688578063d31d68211461112d578063dc360d92146103aa578063e514bcda14610304578063e6fabc09146102c9578063ed612f8c1461028f578063edc8722514610243578063efd81abc1461020f578063f2fde38b146101df5763facd743b14610181575f80fd5b346101d85760203660031901126101d85761019a612741565b60036101b55f516020613c875f395f51905f525442906137e2565b019060018060a01b03165f52602052602060ff60405f2054166040519015158152f35b6101805180fd5b346101d85760203660031901126101d8576102086101fb612741565b610203612c21565b612bb0565b6101805180f35b346101d857610180513660031901126101d857602061ffff60075f516020613c875f395f51905f5254015416604051908152f35b346101d857610180513660031901126101d85760206102875f516020613c875f395f51905f525461ffff6007600461027b42856137e2565b015492015416906137c0565b604051908152f35b346101d857610180513660031901126101d857602060046102bf5f516020613c875f395f51905f525442906137e2565b0154604051908152f35b346101d857610180513660031901126101d8575f516020613c875f395f51905f5254600501546040516001600160a01b039091168152602090f35b346101d85760603660031901126101d85761031d612757565b6001600160a01b03610333604435600435612c54565b1690813b156101d85760405163485cc95560e01b81523360048201526001600160a01b039091166024820152610180518160448183865af1801561039c57610381575b602082604051908152f35b6101805161038e91612808565b610180516101d85781610376565b6040513d61018051823e3d90fd5b346101d85760603660031901126101d8576004356001600160401b0381116101d857604060031982360301126101d857600260243510156101d8576044356001600160401b0381116101d857610404903690600401612781565b917f9b779b17422d0df92223018b32b4d1fa46e071723d6817e2486d003becc55f005c6111185760017f9b779b17422d0df92223018b32b4d1fa46e071723d6817e2486d003becc55f005d5f516020613c875f395f51905f525461014052610474600161014051015415156128d9565b6104816004820180612aeb565b905015806110ff575b6110ba576101805160c081905261014051601801939290919060605b6104b36004840180612aeb565b90508410156106f6576104c96004840180612aeb565b8510156106dc576060850201938435948561018051528760205260ff60406101805120541660038110156106c25760010361065f57604081019261050c84612b55565b1561064157610180805188905260208a90525160409020805460ff1916600217905561014051601b01805461054090612b62565b90555b61054c84612b55565b15157f460119a8f69a33ed127de517d5ea464e958ce23ef19e4420a8b92bf780bbc2c960206040518a8152a26060823603126101d857602060405192610591846127ed565b888452019687359465ffffffffffff861686036101d85785602085015235948515158087036101d8576001966040610604960152604051916020830193845265ffffffffffff60d01b9060d01b16604083015260f81b6046820152602781526105fb604782612808565b51902090612b70565b9460c05165ffffffffffff61061883612b9d565b1611610627575b5001926104a6565b61063765ffffffffffff91612b9d565b1660c0528761061f565b866101805152886020526040610180512060ff198154169055610543565b60405162461bcd60e51b815260206004820152603560248201527f636f6465206d7573742062652072657175657374656420666f722076616c6964604482015274185d1a5bdb881d1bc818994818dbdb5b5a5d1d1959605a1b6064820152608490fd5b634e487b7160e01b61018051526021600452602461018051fd5b634e487b7160e01b61018051526032600452602461018051fd5b61018051606060a05261012052849290915b6107186024830183600401612b20565b9050610120511015610ff7576107346024830183600401612b20565b90610100526101205110156106dc576101205160051b61010051013560e052609e196101005136030160e05112156101d8576003610140510154604060e0516101005101013503610fa457610140515415610f38575b602061079e8160e051610100510101612b9d565b65ffffffffffff604051916107b2836127be565b60e051610100510135835216918291015260e051610100510135600361014051015565ffffffffffff19600461014051015416176004610140510155610809608060e05161010051010160e0516101005101612b20565b61016091909152610180516080529360605b856080511015610e1a57610180515060be196101605136030160805160051b61016051013512156101d85761085f60805160051b6101605101356101605101612a0c565b6001600160a01b03165f90815261014051601901602052604090205415610dbd5760018060a01b036006610140510154166108a960805160051b6101605101356101605101612a0c565b606060805160051b610160510135610160510101356001600160801b03811681036101d85760405163a9059cbb60e01b81526001600160a01b0390921660048301526001600160801b03166024820152610180519091602091839160449183915af1801561039c57610d84575b5060018060a01b0361093760805160051b6101605101356101605101612a0c565b1690604051916309ed323560e41b83526020600484015260e4830160018060a01b0361097260805160051b610160510135610160510161276d565b166024850152608080516101608051600592831b81013501602001356044880152915191516001600160a01b03926109b1921b8101350160400161276d565b1660648501526001600160801b036109db606060805160051b61016051013561016051010161394f565b166084850152608080516101605160059190911b8101350190810135903603601e19018112156101d85760805160051b61016051013561016051010160208101916001600160401b038235116101d8576060823502360383136101d85760c060a48701528135905261018051610104860192915b80358210610d3a5750506080516101605160059190911b8101350160a08101359291503603601e19018212156101d8576001600160401b0360805160051b6101605101356101605101830135116101d85760805161016051600591821b810135018301803590911b90368290036020909101136101d8579185926023198484030160c485015260805160051b6101605101356101605101820135835260208084019184010192602060805160051b61016051013561016051018401019261018051915b60805160051b61016051013561016051018201358310610b9e575050505050918180602094039161018051905af190811561039c576101805191610b69575b610b5b9250612b70565b60808051600101905261081b565b90506020823d8211610b96575b81610b8360209383612808565b810103126101d857610b5b915190610b51565b3d9150610b76565b919395509193601f1982820301855285359060de1960805160051b610160510135610160510185013603018212156101d857608080516101608051600592831b8101350187018501602001358452915191516001600160a01b0392610c0e921b810135018601840160400161276d565b16602082015260805161016051606060059290921b810135018501830190810135903603603e19018112156101d85760209060805160051b6101605101356101605101860184010101916001600160401b038335116101d8578235360360208401136101d85760c09081604084015283358284015283356020850160e08501376101805160e08535850101526001600160801b03610cc16080805160051b6101605101356101605101890184010161394f565b16606084015260a060805160051b6101605101356101605101870182010135608084015260805160051b610160510135610160510186010101359163ffffffff60e01b83168093036101d85760a082019290925289969135601f01601f19160160e0019460209182019491019260019190910191610b12565b90919260608060019286358152838060a01b03610d596020890161276d565b1660208201526001600160801b03610d736040890161394f565b166040820152019401920190610a4f565b6020813d8211610db5575b81610d9c60209383612808565b810103126101d857518015158114610916576101805180fd5b3d9150610d8f565b60405162461bcd60e51b815260206004820152602f60248201527f636f756c646e277420706572666f726d207472616e736974696f6e20666f722060448201526e756e6b6e6f776e2070726f6772616d60881b6064820152608490fd5b610eda91939550939193602081519101207fd756eca21e02cb0dbde1e44a4d9c6921b5c8aa4668cfa0752784b3dc855bce1e602060405160e0516101005101358152a1610e70602060e051610100510101612b9d565b9060405190602082019260e051610100510135845265ffffffffffff60d01b9060d01b166040830152604060e051610100510101356046830152606060e051610100510101356066830152608682015260868152610ecf60a682612808565b51902060a051612b70565b60a05260c05165ffffffffffff610efa602060e051610100510101612b9d565b1611610f15575b600161012051016101205291929092610708565b65ffffffffffff610f2f602060e051610100510101612b9d565b1660c052610f01565b610f4c606060e05161010051010135613912565b61078a5760405162461bcd60e51b815260206004820152602660248201527f616c6c6f776564207072656465636573736f7220626c6f636b207761736e277460448201526508199bdd5b9960d21b6064820152608490fd5b60405162461bcd60e51b815260206004820152602560248201527f696e76616c69642070726576696f757320636f6d6d697474656420626c6f636b604482015264040d0c2e6d60db1b6064820152608490fd5b611043908484602081519101209160a05151602060a0510120604051906020820194855260408201526040815261102f606082612808565b60c05193602435915190206101405161339b565b1561107557610180517f9b779b17422d0df92223018b32b4d1fa46e071723d6817e2486d003becc55f005d6101805180f35b60405162461bcd60e51b815260206004820152601e60248201527f7369676e61747572657320766572696669636174696f6e206661696c656400006044820152606490fd5b60405162461bcd60e51b815260206004820152601860248201527f6e6f20636f6d6d69746d656e747320746f20636f6d6d697400000000000000006044820152606490fd5b506111106024820182600401612b20565b90501561048a565b633ee5aeb560e01b6101805152600461018051fd5b346101d8576101403660031901126101d857611147612741565b61114f612757565b6044356001600160a01b0381169291908390036101d857606435906084359160a43594604060c3193601126101d85761010435956001600160401b0387116101d857366023880112156101d8578660040135906001600160401b0382116101d857366024838a0101116101d857610124356001600160401b0381116101d8576111dc903690600401612781565b9590935f516020613ca75f395f51905f525460ff8160401c1615996001600160401b03821680159081611680575b6001149081611676575b15908161166d575b506116585767ffffffffffffffff1982166001175f516020613ca75f395f51905f525561125a918b61162c575b506112526138e7565b6102036138e7565b42156115d6578715611580578786111561151f57600a61127a8988612a8c565b048310156114da576040998a516112918c82612808565b6017815260208101907f726f757465722e73746f726167652e526f75746572563100000000000000000082526112c5612c21565b5190205f198101949085116114c05761146099600598828e61144f966114599860089a83519060208201908152602082526113008583612808565b60ff1991519020169d8e805f516020613c875f395f51905f5255611322613069565b80516001830155600282019063ffffffff60208201511669ffffffffffff0000000088845493015160201b169169ffffffffffffffffffff19161717905583602086519461136f866127be565b6001600160a01b039081168087529190950191909152910180546001600160a01b0319908116909217905560068f0180549091169290911691909117905560078c01805461ffff1916611a0a1790556113c661294b565b506509184e72a000602082516113db816127be565b639502f9008152015260148c0180546001600160c01b0319166d09184e72a000000000009502f9001790558051611411816127ed565b83815260208101859052015260158a0155601689015560178801558a5194611438866127be565b60c435865260e43560208701526024369201612829565b9342963691612885565b9301613138565b61146b576101805180f35b60207fc7f505b2f371ae2175ee4913f4499e1f2633a7b5936321eed1cdaeb6115181d29160ff60401b195f516020613ca75f395f51905f5254165f516020613ca75f395f51905f52555160018152a180610208565b634e487b7160e01b61018051526011600452602461018051fd5b60405162461bcd60e51b815260206004820152601b60248201527f76616c69646174696f6e2064656c617920697320746f6f2062696700000000006044820152606490fd5b60405162461bcd60e51b815260206004820152603360248201527f657261206475726174696f6e206d757374206265206772656174657220746861604482015272371032b632b1ba34b7b710323ab930ba34b7b760691b6064820152608490fd5b60405162461bcd60e51b815260206004820152602860248201527f656c656374696f6e206475726174696f6e206d75737420626520677265617465604482015267072207468616e20360c41b6064820152608490fd5b60405162461bcd60e51b815260206004820152602860248201527f63757272656e742074696d657374616d70206d75737420626520677265617465604482015267072207468616e20360c41b6064820152608490fd5b68ffffffffffffffffff191668010000000000000001175f516020613ca75f395f51905f52558c611249565b63f92ee8a960e01b6101805152600461018051fd5b9050158d61121c565b303b159150611214565b8c915061120a565b346101d857610180513660031901126101d857602065ffffffffffff60025f516020613c875f395f51905f52540154821c16604051908152f35b346101d857610180513660031901126101d8576116f960046116f35f516020613c875f395f51905f525442906137e2565b01612981565b604051809160208201602083528151809152602060408401920190610180515b818110611727575050500390f35b82516001600160a01b0316845285945060209384019390920191600101611719565b346101d857610180513660031901126101d857602060035f516020613c875f395f51905f52540154604051908152f35b346101d85760203660031901126101d85760185f516020613c875f395f51905f5254016004356101805152602052602060ff6040610180512054166117c160405180926127b1565bf35b346101d85760203660031901126101d8576004356001600160401b0381116101d8576117f3903690600401612781565b5f516020613c875f395f51905f52549161180c8261286e565b9261181a6040519485612808565b8284526118268361286e565b602085019390601f19013685376019610180519201915b81811061188b57848660405191829160208301906020845251809152604083019190610180515b818110611872575050500390f35b8251845285945060209384019390920191600101611864565b806118a161189c60019385886129d4565b612a0c565b828060a01b03165f528360205260405f20546118bd82896129f8565b520161183d565b346101d85760603660031901126101d8576004356001600160401b0381116101d8576003198136030160a081126101d8576040519060808201908282106001600160401b03831117611cc9576040918252126101d857604051611926816127be565b8260040135815260248301356020820152815260448201356001600160401b0381116101d8578201366023820112156101d85761196d903690602460048201359101612829565b6020820190815260648301356001600160401b0381116101d8578301366023820112156101d8576119a8903690602460048201359101612885565b90604083019182526084606084019401358452600260243510156101d8576044356001600160401b0381116101d8576119e5903690600401612781565b9190935f516020613c875f395f51905f5254611a06600182015415156128d9565b65ffffffffffff600282015460201c16611a208142612a8c565b90611a3060158401548093612aad565b8951600182018092116114c05703611c7157611a51611a57928a5190612ad8565b90612acb565b93611a66601683015486612a8c565b4210611c2c57611a7582613380565b964260058901541015611bcc5783516020815191015188519a51604051916020830193845260408301526060820160208d51919d0190610180515b818110611bad575050506020828d611ad793611b049a9b9c9d9e9f52038084520182612808565b51902092604051906020820194855260208252611af5604083612808565b4294602435925190209061339b565b15611b4d577f41e7f919bf726af8aa2ef36bd31905a693013e30c45c6284060e613d4941997b94602094611b3f938593519051915192613138565b604051908152a16101805180f35b60405162461bcd60e51b815260206004820152603260248201527f6e657874206572612076616c696461746f7273207369676e6174757265732076604482015271195c9a599a58d85d1a5bdb8819985a5b195960721b6064820152608490fd5b82516001600160a01b03168f5260209e8f019e90920191600101611ab0565b60405162461bcd60e51b815260206004820152603260248201527f6c6f6f6b73206c696b652076616c696461746f727320666f72206e65787420656044820152711c9848185c9948185b1c9958591e481cd95d60721b6064820152608490fd5b60405162461bcd60e51b815260206004820152601b60248201527f656c656374696f6e206973206e6f7420796574207374617274656400000000006044820152606490fd5b60405162461bcd60e51b815260206004820152602a60248201527f636f6d6d69746d656e742065726120696e646578206973206e6f74206e657874604482015269040cae4c240d2dcc8caf60b31b6064820152608490fd5b634e487b7160e01b61018051526041600452602461018051fd5b346101d857610180513660031901126101d85760206040611d285f516020613c875f395f51905f52546002611d2060018060a01b039242906137e2565b0154166130ae565b815192839181835280519182918282860152018484015e61018051828201840152601f01601f19168101030190f35b346101d857610180513660031901126101d8576020601a5f516020613c875f395f51905f52540154604051908152f35b346101d85760203660031901126101d857611da0612741565b60195f516020613c875f395f51905f5254019060018060a01b03165f52602052602060405f2054604051908152f35b346101d85760203660031901126101d8576004356001600160401b0381116101d857611e0a611e046020923690600401612781565b90612a20565b6040519015158152f35b346101d857610180513660031901126101d8575f516020613c675f395f51905f52546040516001600160a01b039091168152602090f35b346101d857610180513660031901126101d8575f516020613c875f395f51905f525460018101908154611ed7576002015463ffffffff1640908115611e9257556101805180f35b60405162461bcd60e51b815260206004820152601d60248201527f756e61626c6520746f206c6f6f6b75702067656e6573697320686173680000006044820152606490fd5b60405162461bcd60e51b815260206004820152601860248201527f67656e65736973206861736820616c72656164792073657400000000000000006044820152606490fd5b346101d857610180513660031901126101d8575f516020613c875f395f51905f5254600601546040516001600160a01b039091168152602090f35b346101d857610180513660031901126101d857611f7261294b565b50604060145f516020613c875f395f51905f5254016001600160801b03825191611f9b836127be565b548160206001600160401b038316948581520191851c168152835192835251166020820152f35b346101d85760203660031901126101d8576004356001600160401b0381116101d857611ff2903690600401612781565b5f516020613c875f395f51905f52549161200b8261286e565b926120196040519485612808565b8284526120258361286e565b602085019390601f19013685376018610180519201915b81811061209457848660405191829160208301906020845251809152604083019190610180515b818110612071575050500390f35b919350916020808261208660019488516127b1565b019401910191849392612063565b61209f8183866129d4565b3561018051528260205260ff604061018051205416906120bf81886129f8565b9160038110156106c257600192520161203c565b346101d857610180513660031901126101d8576120ee612c21565b5f516020613c675f395f51905f5280546001600160a01b0319811690915561018051906001600160a01b03167f8be0079c531659141344cd1fd0a4f28419497f9722a3daafe3b4186f6b6457e08280a36101805180f35b346101d857610180513660031901126101d857612160612c21565b5f516020613ca75f395f51905f525460ff8160401c16801561241d575b6116585768ffffffffffffffffff191668010000000000000002175f516020613ca75f395f51905f52555f516020613c875f395f51905f5254604080516121c48282612808565b6017815260208101907f726f757465722e73746f726167652e526f75746572563200000000000000000082526121f8612c21565b5190205f198101919082116114c0577fc7f505b2f371ae2175ee4913f4499e1f2633a7b5936321eed1cdaeb6115181d2926020928251908482019081528482526122428483612808565b60ff19915190201690815f516020613c875f395f51905f5255612263613069565b80516001840155600283019063ffffffff868201511669ffffffffffff00000000868454930151881b169169ffffffffffffffffffff1916171790556005810160058301908082036123e5575b505061ffff600782015416600783019061ffff198254161790556123196122d742836137e2565b6122ee6001600160a01b036002611d2042876137e2565b61230460046122fd42876137e2565b0192612963565b9061230f4293612981565b9160088701613138565b601481016014830190808203612393575b5050601581016015830191818303612373575b5050505060ff60401b195f516020613ca75f395f51905f5254165f516020613ca75f395f51905f52555160028152a16101805180f35b60179283925490556016810154601685015501549101558380808061233d565b806001600160401b03806001600160801b03935416166001600160401b031984541617835554851c16600160401b600160c01b03825491861b1690600160401b600160c01b031916179055858061232a565b5481546001600160a01b03199081166001600160a01b03928316179092556006838101549085018054909316911617905585806122b0565b5060026001600160401b038216101561217d565b346124bb5760403660031901126124bb576001600160a01b03612458602435600435612c54565b16803b156124bb576040519063485cc95560e01b82523360048301525f60248301525f8260448183855af19182156124b05760209261249b575b50604051908152f35b5f6124a591612808565b5f6101805282612492565b6040513d5f823e3d90fd5b5f80fd5b346124bb5760203660031901126124bb576124d8612741565b6124e0612c21565b5f516020613c875f395f51905f525460050180546001600160a01b0319166001600160a01b03909216919091179055005b346124bb575f3660031901126124bb5761252961294b565b50604061254d6125485f516020613c875f395f51905f525442906137e2565b612963565b60208251918051835201516020820152f35b346124bb575f3660031901126124bb57602060015f516020613c875f395f51905f52540154604051908152f35b346124bb5760203660031901126124bb576004355f491561269b5760185f516020613c875f395f51905f52546125c7600182015415156128d9565b01815f528060205260ff60405f20541660038110156126875761262657816020917f5c261a095dd5720475295dc06379921c003c22164ee6cae5cf83e76ce0a1b985935f52825260405f20600160ff19825416179055604051908152a1005b60405162461bcd60e51b815260206004820152603360248201527f676976656e20636f646520696420697320616c7265616479206f6e2076616c6960448201527219185d1a5bdb881bdc881d985b1a59185d1959606a1b6064820152608490fd5b634e487b7160e01b5f52602160045260245ffd5b60405162461bcd60e51b815260206004820152604860248201527f626c6f622063616e277420626520666f756e642c20726f75746572206578706560448201527f63746564204549502d34383434207472616e73616374696f6e2077697468205760648201526720a9a690313637b160c11b608482015260a490fd5b346124bb575f3660031901126124bb57602090601b5f516020613c875f395f51905f525401548152f35b600435906001600160a01b03821682036124bb57565b602435906001600160a01b03821682036124bb57565b35906001600160a01b03821682036124bb57565b9181601f840112156124bb578235916001600160401b0383116124bb576020808501948460051b0101116124bb57565b9060038210156126875752565b604081019081106001600160401b038211176127d957604052565b634e487b7160e01b5f52604160045260245ffd5b606081019081106001600160401b038211176127d957604052565b90601f801991011681019081106001600160401b038211176127d957604052565b9291926001600160401b0382116127d95760405191612852601f8201601f191660200184612808565b8294818452818301116124bb578281602093845f960137010152565b6001600160401b0381116127d95760051b60200190565b9291906128918161286e565b9361289f6040519586612808565b602085838152019160051b81019283116124bb57905b8282106128c157505050565b602080916128ce8461276d565b8152019101906128b5565b156128e057565b60405162461bcd60e51b815260206004820152603860248201527f726f757465722067656e65736973206973207a65726f3b2063616c6c20606c6f60448201527f6f6b757047656e657369734861736828296020666972737400000000000000006064820152608490fd5b60405190612958826127be565b5f6020838281520152565b90604051612970816127be565b602060018294805484520154910152565b90604051918281549182825260208201905f5260205f20925f5b8181106129b25750506129b092500383612808565b565b84546001600160a01b031683526001948501948794506020909301920161299b565b91908110156129e45760051b0190565b634e487b7160e01b5f52603260045260245ffd5b80518210156129e45760209160051b010190565b356001600160a01b03811681036124bb5790565b612a395f516020613c875f395f51905f525442906137e2565b600301905f5b838110612a4f5750505050600190565b612a5d61189c8286856129d4565b6001600160a01b03165f9081526020849052604090205460ff1615612a8457600101612a3f565b505050505f90565b91908203918211612a9957565b634e487b7160e01b5f52601160045260245ffd5b8115612ab7570490565b634e487b7160e01b5f52601260045260245ffd5b91908201809211612a9957565b81810292918115918404141715612a9957565b903590601e19813603018212156124bb57018035906001600160401b0382116124bb576020019160608202360383136124bb57565b903590601e19813603018212156124bb57018035906001600160401b0382116124bb57602001918160051b360383136124bb57565b3580151581036124bb5790565b5f198114612a995760010190565b6020806129b0928195946040519682889351918291018585015e8201908382015203018085520183612808565b3565ffffffffffff811681036124bb5790565b6001600160a01b03168015612c0e575f516020613c675f395f51905f5280546001600160a01b0319811683179091556001600160a01b03167f8be0079c531659141344cd1fd0a4f28419497f9722a3daafe3b4186f6b6457e05f80a3565b631e4fbdf760e01b5f525f60045260245ffd5b5f516020613c675f395f51905f52546001600160a01b03163303612c4157565b63118cdaa760e01b5f523360045260245ffd5b5f516020613c875f395f51905f525491612c73600184015415156128d9565b6040516020810191838352604082015260408152612c92606082612808565b5190206040516102c08101908082106001600160401b038311176124bb576102b4916040527f6080806040526102a290816100128239f3fe608060405260043610610258575f81527f3560e01c806329336f391461009b57806336a52a1814610096578063701da98e60208201527f14610091578063704ed5421461008c57806391d5a64c146100875780639ce11060408201527fd714610082578063affed0e01461007d578063d5624222146100785763e43f3460608201527f330361025857610243565b610208565b6101eb565b6101c3565b6101ad565b6160808201527f0194565b610177565b610150565b346100dc5760603660031901126100dc576060a08201527f243567ffffffffffffffff81116100dc576100cc9036906004016100e0565b5060c08201527f506100d661010e565b50610258565b5f80fd5b9181601f840112156100dc578260e08201527f359167ffffffffffffffff83116100dc57602083818601950101116100dc57566101008201527f5b604435906001600160801b03821682036100dc57565b6004359060016001606101208201527f801b03821682036100dc57565b602435906001600160801b03821682036100dc6101408201527f57565b346100dc575f3660031901126100dc575f546040516001600160a01b036101608201527f9091168152602090f35b346100dc575f3660031901126100dc576020600254606101808201527f4051908152f35b346100dc5760203660031901126100dc576100d6610124565b6101a08201527f346100dc57602036600319011215610258575f80fd5b346100dc575f366003196101c08201527f01126100dc576001546040516001600160a01b039091168152602090f35b34616101e08201527edc575f3660031901126100dc576020600354604051908152f35b346100dc576102008201527f60403660031901126100dc5760043567ffffffffffffffff81116100dc5761026102208201527f399036906004016100e0565b50506100d661013a565b346100dc575f3660031961024082015263ffffffff3060801c167f011215610258575f80fd5b63e6fabc0960e01b5f5260205f6004817300000000176102608201523060801b6f5afa156100dc575f8080513682803781176102808201527336915af43d5f803e1561029e573d5ff35b3d5ffd60601b6102a08201525ff59182156124bb576001600160a01b0383165f9081526019820160205260409020829055601a01805461302f90612b62565b90556040516001600160a01b03831681527f8008ec1d8798725ebfa0f2d128d52e8e717dcba6e0f786557eeee70614b02bf190602090a290565b5f60408051613077816127ed565b828152826020820152015260405161308e816127ed565b5f815263ffffffff4316602082015265ffffffffffff4216604082015290565b803b905f19820190828211612a995760019060405193603e601f19910116840160405282845260208401903c90565b156130e457565b60405162461bcd60e51b815260206004820152602660248201527f46524f53542061676772656761746564207075626c6963206b657920697320696044820152651b9d985b1a5960d21b6064820152608490fd5b92919080519061316b6020820192835170014551231950b75fc4402da1732fc9bebe198210918261336f575b50506130dd565b518455516001840155604051906131a76021836020808201945f86528051918291018484015e81015f838201520301601f198101845283612808565b6131e4602b604051809360208201956a600b5981380380925939f360a81b87525180918484015e81015f838201520301601f198101835282612808565b51905ff06001600160a01b03811615613336576002830180546001600160a01b0319166001600160a01b039092169190911790555f5b600483018054821015613258575f90815260208082208301546001600160a01b0316825260038501905260409020805460ff1916905560010161321a565b5050925f5b84518110156132a1576001906001600160a01b0361327b82886129f8565b5116828060a01b03165f526003840160205260405f208260ff198254161790550161325d565b5092600482018151916001600160401b0383116127d9576801000000000000000083116127d9578154838355808410613310575b50602001905f5260205f205f5b8381106132f3575050505060050155565b82516001600160a01b0316818301556020909201916001016132e2565b825f528360205f2091820191015b81811061332b57506132d5565b5f815560010161331e565b60405162461bcd60e51b81526020600482015260116024820152701111541313d65351539517d19052531151607a1b6044820152606490fd5b6133799250613bc1565b5f80613164565b61338a42826137fe565b156133955760080190565b600e0190565b909493919365ffffffffffff600283015460201c166133d16133dc6133d66133c38442612a8c565b601587015493848092612aad565b612ad8565b83612acb565b9182841080806137aa575b15613738575083106136f3576133fd9083612acb565b106136a25761340d905b826137e2565b94604051906020820190815260208252613428604083612808565b613464603660405180936020820195601960f81b87523060601b60228401525180918484015e81015f838201520301601f198101835282612808565b51902093600281101561268757806135c05750506001810361357b57156129e457803590601e19813603018212156124bb57018035906001600160401b0382116124bb5760200181360381136124bb576134bf913691612829565b9160608351036135265782602061350e9401516060604083015192015192600181549101549070014551231950b75fc4402da1732fc9bebe19811080613511575b613509906130dd565b613963565b90565b5061350961351f8383613bc1565b9050613500565b60405162461bcd60e51b815260206004820152602760248201527f46524f5354207369676e6174757265206c656e677468206d75737420626520396044820152663620627974657360c81b6064820152608490fd5b60405162461bcd60e51b815260206004820152601e60248201527f46524f5354207369676e6174757265206d7573742062652073696e676c6500006044820152606490fd5b6001146135d05750505050505f90565b6135ea9061ffff60076004889598015492015416906137c0565b925f9260035f9301925b86811015613697578060051b820135601e19833603018112156124bb5782018035906001600160401b0382116124bb5760200181360381136124bb576136529161364991613643913691612829565b85613b27565b90929192613b61565b6001600160a01b03165f9081526020859052604090205460ff16613679575b6001016135f4565b9361368390612b62565b938585036136715750505050505050600190565b505050505050505f90565b60405162461bcd60e51b8152602060048201526024808201527f74696d657374616d70206973206f6c646572207468616e2070726576696f75736044820152632065726160e01b6064820152608490fd5b60405162461bcd60e51b815260206004820152601e60248201527f63616e6e6f742076616c6964617465206265666f72652067656e6573697300006044820152606490fd5b939291505042821161375b5761340d92613753575b50613407565b90505f61374d565b60405162461bcd60e51b815260206004820152602160248201527f74696d657374616d702063616e6e6f7420626520696e207468652066757475726044820152606560f81b6064820152608490fd5b506137b9601787015485612acb565b42106133e7565b61ffff6137ce921690612ad8565b61270f8101809111612a9957612710900490565b906137ed90826137fe565b156137f857600e0190565b60080190565b906013600d8301549201548083146138a35781818410931191821591111591819061389c575b15613839578261383357505090565b14919050565b60405162461bcd60e51b815260206004820152603560248201527f636f756c64206e6f74206964656e746966792076616c696461746f727320666f6044820152740722074686520676976656e2074696d657374616d7605c1b6064820152608490fd5b5081613824565b606460405162461bcd60e51b815260206004820152602060248201527f657261732074696d657374616d70206d757374206e6f7420626520657175616c6044820152fd5b60ff5f516020613ca75f395f51905f525460401c161561390357565b631afcd79f60e31b5f5260045ffd5b905f194301438111612a9957805b61392b575b505f9150565b804083810361393c57506001925050565b1561394a575f190180613920565b613925565b35906001600160801b03821682036124bb57565b92939194906139728587613bc1565b15613b1d578215613b1d5770014551231950b75fc4402da1732fc9bebe19831015613b1d576001169061010e6040519161012083018381106001600160401b038211176124bb5760405260883684376002600188160160888401538760898401526002840160a984015360aa830186905260ca8301527e300046524f53542d736563703235366b312d4b454343414b3235362d76316360ea8301526303430b6160e51b61010a830152812060cc820181815290600260ec84016001815360428420809318845253604270014551231950b75fc4402da1732fc9bebe19922060801c6001600160401b0360801b8260801b16179070014551231950b75fc4402da1732fc9bebe1990600160c01b9060401c090880156136975784601b6080945f9660209870014551231950b75fc4402da1732fc9bebe19910970014551231950b75fc4402da1732fc9bebe19038552018684015280604084015270014551231950b75fc4402da1732fc9bebe19910970014551231950b75fc4402da1732fc9bebe1903606082015282805260015afa156124bb575f51915f5260205260018060a01b0360405f20161490565b5050505050505f90565b8151919060418303613b5757613b509250602082015190606060408401519301515f1a90613be4565b9192909190565b50505f9160029190565b60048110156126875780613b73575050565b60018103613b8a5763f645eedf60e01b5f5260045ffd5b60028103613ba5575063fce698f760e01b5f5260045260245ffd5b600314613baf5750565b6335e2f38360e21b5f5260045260245ffd5b6401000003d01990600790829081818009900908906401000003d0199080091490565b91907f7fffffffffffffffffffffffffffffff5d576e7357a4501ddfe92f46681b20a08411613c5b579160209360809260ff5f9560405194855216868401526040830152606082015282805260015afa156124b0575f516001600160a01b03811615613c5157905f905f90565b505f906001905f90565b5050505f916003919056fe9016d09d72d40fdae2fd8ceac6b6234c7706214fd39c1cd1e609a0528c1993005c09ca1b9b8127a4fd9f3c384aac59b661441e820e17733753ff5f2e86e1e000f0c57e16840df040f15088dc2f81fe391c3923bec73e23a9662efc9c229c6a00f0c57e16840df040f15088dc2f81fe391c3923bec73e23a9662efc9c229c6a00","linkReferences":{}},"methodIdentifiers":{"areValidators(address[])":"8f381dbe","codeState(bytes32)":"c13911e8","codesStates(bytes32[])":"82bdeaad","commitBatch(((bytes32,uint48,bool)[],(bytes32,uint48,bytes32,bytes32,(address,bytes32,address,uint128,(bytes32,address,uint128)[],(bytes32,address,bytes,uint128,(bytes32,bytes4))[])[])[]),uint8,bytes[])":"dc360d92","commitValidators(((uint256,uint256),bytes,address[],uint256),uint8,bytes[])":"aa54494a","computeSettings()":"84d22a4f","createProgram(bytes32,bytes32)":"527de0f9","createProgramWithAbiInterface(bytes32,address,bytes32)":"e514bcda","genesisBlockHash()":"28e24b3d","genesisTimestamp()":"cacf66ab","initialize(address,address,address,uint256,uint256,uint256,(uint256,uint256),bytes,address[])":"d31d6821","isValidator(address)":"facd743b","latestCommittedBlockHash()":"c9f16a11","lookupGenesisHash()":"8b1edf1e","mirrorImpl()":"e6fabc09","owner()":"8da5cb5b","programCodeId(address)":"9067088e","programsCodeIds(address[])":"baaf0201","programsCount()":"96a2ddfa","reinitialize()":"6c2eb350","renounceOwnership()":"715018a6","requestCodeValidation(bytes32)":"120e3f1e","setMirror(address)":"3d43b418","signingThresholdPercentage()":"efd81abc","transferOwnership(address)":"f2fde38b","validatedCodesCount()":"007a32e7","validators()":"ca1e7819","validatorsAggregatedPublicKey()":"3bd109fa","validatorsCount()":"ed612f8c","validatorsThreshold()":"edc87225","validatorsVerifiableSecretSharingCommitment()":"a5d53a44","wrappedVara()":"88f50cf0"},"storageLayout":{"storage":[],"types":{}},"id":129}