{"abi":[{"type":"constructor","inputs":[],"stateMutability":"nonpayable"},{"type":"function","name":"areValidators","inputs":[{"name":"_validators","type":"address[]","internalType":"address[]"}],"outputs":[{"name":"","type":"bool","internalType":"bool"}],"stateMutability":"view"},{"type":"function","name":"codeState","inputs":[{"name":"_codeId","type":"bytes32","internalType":"bytes32"}],"outputs":[{"name":"","type":"uint8","internalType":"enum Gear.CodeState"}],"stateMutability":"view"},{"type":"function","name":"codesStates","inputs":[{"name":"_codesIds","type":"bytes32[]","internalType":"bytes32[]"}],"outputs":[{"name":"","type":"uint8[]","internalType":"enum Gear.CodeState[]"}],"stateMutability":"view"},{"type":"function","name":"commitBlocks","inputs":[{"name":"_blockCommitments","type":"tuple[]","internalType":"struct Gear.BlockCommitment[]","components":[{"name":"hash","type":"bytes32","internalType":"bytes32"},{"name":"timestamp","type":"uint48","internalType":"uint48"},{"name":"previousCommittedBlock","type":"bytes32","internalType":"bytes32"},{"name":"predecessorBlock","type":"bytes32","internalType":"bytes32"},{"name":"transitions","type":"tuple[]","internalType":"struct Gear.StateTransition[]","components":[{"name":"actorId","type":"address","internalType":"address"},{"name":"newStateHash","type":"bytes32","internalType":"bytes32"},{"name":"inheritor","type":"address","internalType":"address"},{"name":"valueToReceive","type":"uint128","internalType":"uint128"},{"name":"valueClaims","type":"tuple[]","internalType":"struct Gear.ValueClaim[]","components":[{"name":"messageId","type":"bytes32","internalType":"bytes32"},{"name":"destination","type":"address","internalType":"address"},{"name":"value","type":"uint128","internalType":"uint128"}]},{"name":"messages","type":"tuple[]","internalType":"struct Gear.Message[]","components":[{"name":"id","type":"bytes32","internalType":"bytes32"},{"name":"destination","type":"address","internalType":"address"},{"name":"payload","type":"bytes","internalType":"bytes"},{"name":"value","type":"uint128","internalType":"uint128"},{"name":"replyDetails","type":"tuple","internalType":"struct Gear.ReplyDetails","components":[{"name":"to","type":"bytes32","internalType":"bytes32"},{"name":"code","type":"bytes4","internalType":"bytes4"}]}]}]}]},{"name":"_signatureType","type":"uint8","internalType":"enum Gear.SignatureType"},{"name":"_signatures","type":"bytes[]","internalType":"bytes[]"}],"outputs":[],"stateMutability":"nonpayable"},{"type":"function","name":"commitCodes","inputs":[{"name":"_codeCommitments","type":"tuple[]","internalType":"struct Gear.CodeCommitment[]","components":[{"name":"id","type":"bytes32","internalType":"bytes32"},{"name":"valid","type":"bool","internalType":"bool"}]},{"name":"_signatureType","type":"uint8","internalType":"enum Gear.SignatureType"},{"name":"_signatures","type":"bytes[]","internalType":"bytes[]"}],"outputs":[],"stateMutability":"nonpayable"},{"type":"function","name":"commitValidators","inputs":[{"name":"_validatorsCommitment","type":"tuple","internalType":"struct Gear.ValidatorsCommitment","components":[{"name":"aggregatedPublicKey","type":"tuple","internalType":"struct Gear.AggregatedPublicKey","components":[{"name":"x","type":"uint256","internalType":"uint256"},{"name":"y","type":"uint256","internalType":"uint256"}]},{"name":"validators","type":"address[]","internalType":"address[]"},{"name":"eraIndex","type":"uint256","internalType":"uint256"}]},{"name":"_signatureType","type":"uint8","internalType":"enum Gear.SignatureType"},{"name":"_signatures","type":"bytes[]","internalType":"bytes[]"}],"outputs":[],"stateMutability":"nonpayable"},{"type":"function","name":"computeSettings","inputs":[],"outputs":[{"name":"","type":"tuple","internalType":"struct Gear.ComputationSettings","components":[{"name":"threshold","type":"uint64","internalType":"uint64"},{"name":"wvaraPerSecond","type":"uint128","internalType":"uint128"}]}],"stateMutability":"view"},{"type":"function","name":"createProgram","inputs":[{"name":"_codeId","type":"bytes32","internalType":"bytes32"},{"name":"_salt","type":"bytes32","internalType":"bytes32"}],"outputs":[{"name":"","type":"address","internalType":"address"}],"stateMutability":"nonpayable"},{"type":"function","name":"createProgramWithDecoder","inputs":[{"name":"_decoderImpl","type":"address","internalType":"address"},{"name":"_codeId","type":"bytes32","internalType":"bytes32"},{"name":"_salt","type":"bytes32","internalType":"bytes32"}],"outputs":[{"name":"","type":"address","internalType":"address"}],"stateMutability":"nonpayable"},{"type":"function","name":"genesisBlockHash","inputs":[],"outputs":[{"name":"","type":"bytes32","internalType":"bytes32"}],"stateMutability":"view"},{"type":"function","name":"genesisTimestamp","inputs":[],"outputs":[{"name":"","type":"uint48","internalType":"uint48"}],"stateMutability":"view"},{"type":"function","name":"initialize","inputs":[{"name":"_owner","type":"address","internalType":"address"},{"name":"_mirror","type":"address","internalType":"address"},{"name":"_mirrorProxy","type":"address","internalType":"address"},{"name":"_wrappedVara","type":"address","internalType":"address"},{"name":"_eraDuration","type":"uint256","internalType":"uint256"},{"name":"_electionDuration","type":"uint256","internalType":"uint256"},{"name":"_validationDelay","type":"uint256","internalType":"uint256"},{"name":"_aggregatedPublicKey","type":"tuple","internalType":"struct Gear.AggregatedPublicKey","components":[{"name":"x","type":"uint256","internalType":"uint256"},{"name":"y","type":"uint256","internalType":"uint256"}]},{"name":"_validators","type":"address[]","internalType":"address[]"}],"outputs":[],"stateMutability":"nonpayable"},{"type":"function","name":"isValidator","inputs":[{"name":"_validator","type":"address","internalType":"address"}],"outputs":[{"name":"","type":"bool","internalType":"bool"}],"stateMutability":"view"},{"type":"function","name":"latestCommittedBlockHash","inputs":[],"outputs":[{"name":"","type":"bytes32","internalType":"bytes32"}],"stateMutability":"view"},{"type":"function","name":"lookupGenesisHash","inputs":[],"outputs":[],"stateMutability":"nonpayable"},{"type":"function","name":"mirrorImpl","inputs":[],"outputs":[{"name":"","type":"address","internalType":"address"}],"stateMutability":"view"},{"type":"function","name":"mirrorProxyImpl","inputs":[],"outputs":[{"name":"","type":"address","internalType":"address"}],"stateMutability":"view"},{"type":"function","name":"owner","inputs":[],"outputs":[{"name":"","type":"address","internalType":"address"}],"stateMutability":"view"},{"type":"function","name":"programCodeId","inputs":[{"name":"_programId","type":"address","internalType":"address"}],"outputs":[{"name":"","type":"bytes32","internalType":"bytes32"}],"stateMutability":"view"},{"type":"function","name":"programsCodeIds","inputs":[{"name":"_programsIds","type":"address[]","internalType":"address[]"}],"outputs":[{"name":"","type":"bytes32[]","internalType":"bytes32[]"}],"stateMutability":"view"},{"type":"function","name":"programsCount","inputs":[],"outputs":[{"name":"","type":"uint256","internalType":"uint256"}],"stateMutability":"view"},{"type":"function","name":"reinitialize","inputs":[],"outputs":[],"stateMutability":"nonpayable"},{"type":"function","name":"renounceOwnership","inputs":[],"outputs":[],"stateMutability":"nonpayable"},{"type":"function","name":"requestCodeValidation","inputs":[{"name":"_codeId","type":"bytes32","internalType":"bytes32"},{"name":"_blobTxHash","type":"bytes32","internalType":"bytes32"}],"outputs":[],"stateMutability":"nonpayable"},{"type":"function","name":"setMirror","inputs":[{"name":"newMirror","type":"address","internalType":"address"}],"outputs":[],"stateMutability":"nonpayable"},{"type":"function","name":"signingThresholdPercentage","inputs":[],"outputs":[{"name":"","type":"uint16","internalType":"uint16"}],"stateMutability":"view"},{"type":"function","name":"transferOwnership","inputs":[{"name":"newOwner","type":"address","internalType":"address"}],"outputs":[],"stateMutability":"nonpayable"},{"type":"function","name":"validatedCodesCount","inputs":[],"outputs":[{"name":"","type":"uint256","internalType":"uint256"}],"stateMutability":"view"},{"type":"function","name":"validators","inputs":[],"outputs":[{"name":"","type":"address[]","internalType":"address[]"}],"stateMutability":"view"},{"type":"function","name":"validatorsCount","inputs":[],"outputs":[{"name":"","type":"uint256","internalType":"uint256"}],"stateMutability":"view"},{"type":"function","name":"validatorsThreshold","inputs":[],"outputs":[{"name":"","type":"uint256","internalType":"uint256"}],"stateMutability":"view"},{"type":"function","name":"wrappedVara","inputs":[],"outputs":[{"name":"","type":"address","internalType":"address"}],"stateMutability":"view"},{"type":"event","name":"BlockCommitted","inputs":[{"name":"hash","type":"bytes32","indexed":false,"internalType":"bytes32"}],"anonymous":false},{"type":"event","name":"CodeGotValidated","inputs":[{"name":"codeId","type":"bytes32","indexed":false,"internalType":"bytes32"},{"name":"valid","type":"bool","indexed":true,"internalType":"bool"}],"anonymous":false},{"type":"event","name":"CodeValidationRequested","inputs":[{"name":"codeId","type":"bytes32","indexed":false,"internalType":"bytes32"},{"name":"blobTxHash","type":"bytes32","indexed":false,"internalType":"bytes32"}],"anonymous":false},{"type":"event","name":"ComputationSettingsChanged","inputs":[{"name":"threshold","type":"uint64","indexed":false,"internalType":"uint64"},{"name":"wvaraPerSecond","type":"uint128","indexed":false,"internalType":"uint128"}],"anonymous":false},{"type":"event","name":"Initialized","inputs":[{"name":"version","type":"uint64","indexed":false,"internalType":"uint64"}],"anonymous":false},{"type":"event","name":"NextEraValidatorsCommitted","inputs":[{"name":"startTimestamp","type":"uint256","indexed":false,"internalType":"uint256"}],"anonymous":false},{"type":"event","name":"OwnershipTransferred","inputs":[{"name":"previousOwner","type":"address","indexed":true,"internalType":"address"},{"name":"newOwner","type":"address","indexed":true,"internalType":"address"}],"anonymous":false},{"type":"event","name":"ProgramCreated","inputs":[{"name":"actorId","type":"address","indexed":false,"internalType":"address"},{"name":"codeId","type":"bytes32","indexed":true,"internalType":"bytes32"}],"anonymous":false},{"type":"event","name":"StorageSlotChanged","inputs":[],"anonymous":false},{"type":"error","name":"ECDSAInvalidSignature","inputs":[]},{"type":"error","name":"ECDSAInvalidSignatureLength","inputs":[{"name":"length","type":"uint256","internalType":"uint256"}]},{"type":"error","name":"ECDSAInvalidSignatureS","inputs":[{"name":"s","type":"bytes32","internalType":"bytes32"}]},{"type":"error","name":"FailedDeployment","inputs":[]},{"type":"error","name":"InsufficientBalance","inputs":[{"name":"balance","type":"uint256","internalType":"uint256"},{"name":"needed","type":"uint256","internalType":"uint256"}]},{"type":"error","name":"InvalidInitialization","inputs":[]},{"type":"error","name":"NotInitializing","inputs":[]},{"type":"error","name":"OwnableInvalidOwner","inputs":[{"name":"owner","type":"address","internalType":"address"}]},{"type":"error","name":"OwnableUnauthorizedAccount","inputs":[{"name":"account","type":"address","internalType":"address"}]},{"type":"error","name":"ReentrancyGuardReentrantCall","inputs":[]}],"bytecode":{"object":"0x6080806040523460aa575f51602061384f5f395f51905f525460ff8160401c16609b576002600160401b03196001600160401b038216016049575b6040516137a090816100af8239f35b6001600160401b0319166001600160401b039081175f51602061384f5f395f51905f525581527fc7f505b2f371ae2175ee4913f4499e1f2633a7b5936321eed1cdaeb6115181d290602090a15f80603a565b63f92ee8a960e01b5f5260045ffd5b5f80fdfe6101a0806040526004361015610013575f80fd5b5f610140525f3560e01c9081627a32e71461251d575080631c149d8a146123d857806328e24b3d146123ae5780633d43b4181461235c57806344d5ec1f14612130578063527de0f9146120a957806365ecfea21461206e5780636c2eb35014611d77578063715018a614611d0557806382bdeaad14611bda57806384d22a4f14611b6f57806388f50cf014611b345780638b1edf1e14611a675780638da5cb5b14611a305780638f381dbe146119eb5780639067088e146119a357806395f35ac01461148257806396a2ddfa14611452578063b44b2aaf14611092578063b6a496801461066b578063baaf02011461056a578063c13911e814610520578063c9f16a11146104f0578063ca1e781914610469578063cacf66ab1461042f578063e6fabc09146103f4578063e7006a74146102c9578063ed612f8c1461028f578063edc8722514610243578063efd81abc1461020f578063f2fde38b146101df5763facd743b14610181575f80fd5b346101d85760203660031901126101d85761019a61255d565b60026101b55f51602061372b5f395f51905f5254429061321d565b019060018060a01b03165f52602052602060ff60405f2054166040519015158152f35b6101405180fd5b346101d85760203660031901126101d8576102086101fb61255d565b610203612a03565b612992565b6101405180f35b346101d857610140513660031901126101d857602061ffff60075f51602061372b5f395f51905f5254015416604051908152f35b346101d857610140513660031901126101d85760206102875f51602061372b5f395f51905f525461ffff6007600361027b428561321d565b015492015416906131fb565b604051908152f35b346101d857610140513660031901126101d857602060036102bf5f51602061372b5f395f51905f5254429061321d565b0154604051908152f35b346101d85760603660031901126101d8576102e261255d565b6024359061032a604435916102f78385612a36565b9360405193602085019182526040850152604084526103176060856126af565b92519092206001600160a01b0392613568565b16803b156101d85760405163189acdbd60e31b81526001600160a01b0390921660048301819052610140519092908160248183865af180156103cb576103d9575b50813b156101d85760405163485cc95560e01b81523360048201526024810191909152610140518160448183865af180156103cb576103b0575b602082604051908152f35b610140516103bd916126af565b610140516101d857816103a5565b6040513d61014051823e3d90fd5b610140516103e6916126af565b610140516101d8578261036b565b346101d857610140513660031901126101d8575f51602061372b5f395f51905f5254600401546040516001600160a01b039091168152602090f35b346101d857610140513660031901126101d857602065ffffffffffff60015f51602061372b5f395f51905f52540154821c16604051908152f35b346101d857610140513660031901126101d8576104a0600361049a5f51602061372b5f395f51905f5254429061321d565b0161274b565b604051809160208201602083528151809152602060408401920190610140515b8181106104ce575050500390f35b82516001600160a01b03168452859450602093840193909201916001016104c0565b346101d857610140513660031901126101d857602060025f51602061372b5f395f51905f52540154604051908152f35b346101d85760203660031901126101d85760165f51602061372b5f395f51905f5254016004356101405152602052602060ff60406101405120541661056860405180926125b7565bf35b346101d85760203660031901126101d8576004356001600160401b0381116101d85761059a903690600401612587565b5f51602061372b5f395f51905f5254916105b38261279c565b926105c160405194856126af565b8284526105cd8361279c565b602085019390601f19013685376017610140519201915b81811061063257848660405191829160208301906020845251809152604083019190610140515b818110610619575050500390f35b825184528594506020938401939092019160010161060b565b8061064861064360019385886127b3565b612803565b828060a01b03165f528360205260405f205461066482896127d7565b52016105e4565b346101d85760603660031901126101d8576004356001600160401b0381116101d85761069b903690600401612587565b9060c052600260243510156101d8576044356001600160401b0381116101d8576106c9903690600401612587565b907f9b779b17422d0df92223018b32b4d1fa46e071723d6817e2486d003becc55f005c61107d5760017f9b779b17422d0df92223018b32b4d1fa46e071723d6817e2486d003becc55f005d5f51602061372b5f395f51905f525461010052610736610100515415156125c4565b82156110385761014051608081905260e05291606091905b8060e0511015610fe557610140515060e05160051b60c051013560a052609e1960c05136030160a05112156101d8576002610100510154604060a05160c05101013503610f92576107a8606060a05160c05101013561334d565b15610f3e5760206107c08160a05160c051010161297f565b65ffffffffffff604051916107d483612665565b60a05160c0510135835216918291015260a05160c0510135600261010051015565ffffffffffff19600361010051015416176003610100510155610827608060a05160c051010160a05160c0510161294a565b6101605261012052610140519160605b61016051841015610e2d57610120513681900360be1901600586901b9091013512156101d8576108748460051b6101205101356101205101612803565b6001600160a01b03165f90815261010051601701602052604090205415610dd05760018060a01b036006610100510154166108bc8560051b6101205101356101205101612803565b60608660051b610120510135610120510101356001600160801b03811681036101d85760405163a9059cbb60e01b81526001600160a01b0390921660048301526001600160801b03166024820152610140519091602091839160449183915af180156103cb57610d97575b50610120516001600160a01b039061094790600587901b81013501612803565b16604051610180526309ed323560e41b61018051526020600461018051015260e461018051019060018060a01b0361098c8760051b6101205101356101205101612573565b16602461018051015260208660051b61012051013561012051010135604461018051015260018060a01b036109d160408860051b610120510135610120510101612573565b1660646101805101526001600160801b036109fc60608860051b610120510135610120510101613390565b6101805191166084919091015261012051600587901b810135016080810135903603601e19018112156101d8578660051b610120510135610120510101916001600160401b038335116101d8576060833502360360208401136101d85760c060a461018051015282359052610104610180510191602081019061014051905b80358210610d4d57505061012051600588901b8101350160a08101359391503603601e19018312156101d8576001600160401b038760051b6101205101356101205101840135116101d85761012051600588811b8201359091018401803590911b36036020909101136101d857610180518082036023190160c4909101526101208051600589811b82810135909201860135845291516101405191810135018501602081810196913590931b840183019493928301925b8a60051b61012051013561012051018201358310610bc7575050505060209250610180519161018051900390610180519061014051905af180156103cb576101405190610b8e575b610b86906001926126d0565b930192610837565b5060203d8111610bc0575b80610ba9602092610180516126af565b6101805190810103126101d8576101805151610b7a565b503d610b99565b9091929394601f1982820301855286359060de198c60051b610120510135610120510185013603018212156101d857610120805160058e901b818101359091018601840160200135835290516001600160a01b0391610c3191908101350186018401604001612573565b1660208201526101205160058d901b8101350184018201606081013590603e193691909103018112156101d8576101205160058e901b810135018501830101602001916001600160401b038335116101d8578235360360208401136101d85760c09060a08e83604086015285358486015285356020870160e08701376101405160e08735870101526001600160801b03610cdf60808360051b61012051013561012051018b01860101613390565b16606086015260051b610120510135610120510187018201013560808401528d60051b610120510135610120510186010101359163ffffffff60e01b83168093036101d85760a08201929092526020978801979135601f01601f19160160e001959401926001019190610b32565b90919360608060019287358152838060a01b03610d6c60208a01612573565b1660208201526001600160801b03610d8660408a01613390565b166040820152019501920190610a7b565b6020813d8211610dc8575b81610daf602093836126af565b810103126101d857518015158114610927576101405180fd5b3d9150610da2565b60405162461bcd60e51b815260206004820152602f60248201527f636f756c646e277420706572666f726d207472616e736974696f6e20666f722060448201526e756e6b6e6f776e2070726f6772616d60881b6064820152608490fd5b610ee692959350939093602081519101207fd756eca21e02cb0dbde1e44a4d9c6921b5c8aa4668cfa0752784b3dc855bce1e602060405160a05160c05101358152a1610e81602060a05160c051010161297f565b9060405190602082019260a05160c0510135845265ffffffffffff60d01b9060d01b166040830152604060a05160c0510101356046830152606060a05160c0510101356066830152608682015260868152610edd60a6826126af565b519020906126d0565b9260805165ffffffffffff610f03602060a05160c051010161297f565b1611610f1c575b600160e0510160e0529291909261074e565b65ffffffffffff610f35602060a05160c051010161297f565b16608052610f0a565b60405162461bcd60e51b815260206004820152602660248201527f616c6c6f776564207072656465636573736f7220626c6f636b207761736e277460448201526508199bdd5b9960d21b6064820152608490fd5b60405162461bcd60e51b815260206004820152602560248201527f696e76616c69642070726576696f757320636f6d6d697474656420626c6f636b604482015264040d0c2e6d60db1b6064820152608490fd5b61100b61100684848760805192602435906020815191012061010051612dd4565b6126ff565b610140517f9b779b17422d0df92223018b32b4d1fa46e071723d6817e2486d003becc55f005d6101405180f35b60405162461bcd60e51b815260206004820152601e60248201527f6e6f20626c6f636b20636f6d6d69746d656e747320746f20636f6d6d697400006044820152606490fd5b633ee5aeb560e01b6101405152600461014051fd5b346101d85760603660031901126101d8576004356001600160401b0381116101d8578060040190608060031982360301126101d85760243560028110156101d8576044356001600160401b0381116101d8576110f2903690600401612587565b935f51602061372b5f395f51905f525465ffffffffffff600182015460201c169561111d8742612883565b61112c60138401548092612890565b97606488013598600181018091116114385789036113e0576111518961115793612937565b9061292a565b93611166601484015486612883565b421061139b5761117583612d74565b95426004880154101561133b576040519861118f8a612694565b61119936876128ae565b8a5260448901988935906001600160401b0382116101d85701366023820112156101d8576111d19036906024600482013591016128d6565b998a602082015281604082015251906020825192015190604051916020830193845260408301526060820160208d51919d0190610140515b81811061131c575050506020828d61122f936112589b9c9d9e9f520380845201826126af565b5190209360405194602086019081526020865261124d6040876126af565b429551902090612dd4565b156112bc57816020936112a06112a8846112967f41e7f919bf726af8aa2ef36bd31905a693013e30c45c6284060e613d4941997b996112ae9761294a565b93909136906128ae565b9236916128d6565b91612c0a565b604051908152a16101405180f35b60405162461bcd60e51b815260206004820152603260248201527f6e657874206572612076616c696461746f7273207369676e6174757265732076604482015271195c9a599a58d85d1a5bdb8819985a5b195960721b6064820152608490fd5b82516001600160a01b03168f5260209e8f019e90920191600101611209565b60405162461bcd60e51b815260206004820152603260248201527f6c6f6f6b73206c696b652076616c696461746f727320666f72206e65787420656044820152711c9848185c9948185b1c9958591e481cd95d60721b6064820152608490fd5b60405162461bcd60e51b815260206004820152601b60248201527f656c656374696f6e206973206e6f7420796574207374617274656400000000006044820152606490fd5b60405162461bcd60e51b815260206004820152602a60248201527f636f6d6d69746d656e742065726120696e646578206973206e6f74206e657874604482015269040cae4c240d2dcc8caf60b31b6064820152608490fd5b634e487b7160e01b61014051526011600452602461014051fd5b346101d857610140513660031901126101d857602060185f51602061372b5f395f51905f52540154604051908152f35b346101d8576101403660031901126101d85761149c61255d565b6024356001600160a01b03811691908290036101d8576044356001600160a01b038116908190036101d8576064356001600160a01b03811693908490036101d85760a4359060843560c43560403660e31901126101d857610124356001600160401b0381116101d857611513903690600401612587565b9490925f51602061374b5f395f51905f525460ff8160401c1615986001600160401b0382168015908161199b575b6001149081611991575b159081611988575b506119735767ffffffffffffffff1982166001175f51602061374b5f395f51905f5255611591918a611947575b50611589613239565b610203613239565b42156118f157811561189b578181111561183a57600a6115b18383612883565b048310156117f55760409889516115c88b826126af565b6017815260208101907f726f757465722e73746f726167652e526f75746572563100000000000000000082526115fc612a03565b5190205f19810198908911611438578a5160208082019a8b528152611795996116258d836126af565b60ff19915190201696875f51602061372b5f395f51905f5255611646612b6a565b8051895560018901908d69ffffffffffff0000000063ffffffff60208401511691845493015160201b169169ffffffffffffffffffff191617179055828c805161168f81612694565b8381526020810185905201526004880180546001600160a01b03199081166001600160a01b0393841617909155600589018054821693831693909317909255600688018054909216921691909117905560078501805461ffff1916611a0a1790556116f86127eb565b506509184e72a00060208a5161170d81612665565b639502f900815201526012850180546001600160c01b0319166d09184e72a000000000009502f900179055885183908a9061174781612694565b83815284602082015201526013850155601484015560158301556101405150600861178e87519261177784612665565b60e4358452610104356020850152429536916128d6565b9201612c0a565b6117a0576101405180f35b60207fc7f505b2f371ae2175ee4913f4499e1f2633a7b5936321eed1cdaeb6115181d29160ff60401b195f51602061374b5f395f51905f5254165f51602061374b5f395f51905f52555160018152a180610208565b60405162461bcd60e51b815260206004820152601b60248201527f76616c69646174696f6e2064656c617920697320746f6f2062696700000000006044820152606490fd5b60405162461bcd60e51b815260206004820152603360248201527f657261206475726174696f6e206d757374206265206772656174657220746861604482015272371032b632b1ba34b7b710323ab930ba34b7b760691b6064820152608490fd5b60405162461bcd60e51b815260206004820152602860248201527f656c656374696f6e206475726174696f6e206d75737420626520677265617465604482015267072207468616e20360c41b6064820152608490fd5b60405162461bcd60e51b815260206004820152602860248201527f63757272656e742074696d657374616d70206d75737420626520677265617465604482015267072207468616e20360c41b6064820152608490fd5b68ffffffffffffffffff191668010000000000000001175f51602061374b5f395f51905f52558b611580565b63f92ee8a960e01b6101405152600461014051fd5b9050158c611553565b303b15915061154b565b8b9150611541565b346101d85760203660031901126101d8576119bc61255d565b60175f51602061372b5f395f51905f5254019060018060a01b03165f52602052602060405f2054604051908152f35b346101d85760203660031901126101d8576004356001600160401b0381116101d857611a26611a206020923690600401612587565b90612817565b6040519015158152f35b346101d857610140513660031901126101d8575f51602061370b5f395f51905f52546040516001600160a01b039091168152602090f35b346101d857610140513660031901126101d8575f51602061372b5f395f51905f52548054611aef5763ffffffff60018201541640908115611aaa57556101405180f35b60405162461bcd60e51b815260206004820152601d60248201527f756e61626c6520746f206c6f6f6b75702067656e6573697320686173680000006044820152606490fd5b60405162461bcd60e51b815260206004820152601860248201527f67656e65736973206861736820616c72656164792073657400000000000000006044820152606490fd5b346101d857610140513660031901126101d8575f51602061372b5f395f51905f5254600601546040516001600160a01b039091168152602090f35b346101d857610140513660031901126101d857611b8a6127eb565b50604060125f51602061372b5f395f51905f5254016001600160801b03825191611bb383612665565b548160206001600160401b038316948581520191851c168152835192835251166020820152f35b346101d85760203660031901126101d8576004356001600160401b0381116101d857611c0a903690600401612587565b5f51602061372b5f395f51905f525491611c238261279c565b92611c3160405194856126af565b828452611c3d8361279c565b602085019390601f19013685376016610140519201915b818110611cac57848660405191829160208301906020845251809152604083019190610140515b818110611c89575050500390f35b9193509160208082611c9e60019488516125b7565b019401910191849392611c7b565b611cb78183866127b3565b3561014051528260205260ff60406101405120541690611cd781886127d7565b916003811015611ceb576001925201611c54565b634e487b7160e01b61014051526021600452602461014051fd5b346101d857610140513660031901126101d857611d20612a03565b5f51602061370b5f395f51905f5280546001600160a01b0319811690915561014051906001600160a01b03167f8be0079c531659141344cd1fd0a4f28419497f9722a3daafe3b4186f6b6457e08280a36101405180f35b346101d857610140513660031901126101d857611d92612a03565b5f51602061374b5f395f51905f525460ff8160401c16801561205a575b6119735768ffffffffffffffffff191668010000000000000002175f51602061374b5f395f51905f52555f51602061372b5f395f51905f525460408051611df682826126af565b6017815260208101907f726f757465722e73746f726167652e526f7574657256320000000000000000008252611e2a612a03565b5190205f19810191908211611438577fc7f505b2f371ae2175ee4913f4499e1f2633a7b5936321eed1cdaeb6115181d292602092825190848201908152848252611e7484836126af565b60ff19915190201690815f51602061372b5f395f51905f5255611e95612b6a565b80518355600183019063ffffffff868201511669ffffffffffff00000000868454930151881b169169ffffffffffffffffffff19161717905560048101600483019080820361200c575b505061ffff600782015416600783019061ffff19825416179055611f40611f06428361321d565b6003611f12428561321d565b01906001865191611f2283612665565b80548352015487820152611f36429261274b565b9060088501612c0a565b601281016012830190808203611fba575b5050601381016013830191818303611f9a575b5050505060ff60401b195f51602061374b5f395f51905f5254165f51602061374b5f395f51905f52555160028152a16101405180f35b601592839254905560148101546014850155015491015583808080611f64565b806001600160401b03806001600160801b03935416166001600160401b031984541617835554851c16600160401b600160c01b03825491861b1690600160401b600160c01b0319161790558580611f51565b5481546001600160a01b03199081166001600160a01b039283161790925560058381015490850180548416918316919091179055600680840154908501805490931691161790558580611edf565b5060026001600160401b0382161015611daf565b346101d857610140513660031901126101d8575f51602061372b5f395f51905f5254600501546040516001600160a01b039091168152602090f35b3461212c576120c96120ba36612547565b6001600160a01b039291612a36565b16803b1561212c576040519063485cc95560e01b82523360048301525f60248301525f8260448183855af19182156121215760209261210c575b50604051908152f35b5f612116916126af565b5f6101405282612103565b6040513d5f823e3d90fd5b5f80fd5b3461212c57606036600319011261212c576004356001600160401b03811161212c573660238201121561212c5780600401356001600160401b03811161212c573660248260061b8401011161212c5760243590600282101561212c576044356001600160401b03811161212c576121ac84913690600401612587565b9390915f51602061372b5f395f51905f5254946121cb865415156125c4565b60168601935f9360605b87861015612341578560061b8501602481013591825f528860205260ff60405f205416600381101561232d576001036122ca5760019261228560446122a994018d61221f82612636565b156122b157601990845f528d60205260405f20600260ff19825416179055016122488154612643565b90555b61225481612636565b15157f460119a8f69a33ed127de517d5ea464e958ce23ef19e4420a8b92bf780bbc2c96020604051868152a2612636565b6040519060208201928352151560f81b604082015260218152610edd6041826126af565b9501946121d5565b50825f528b60205260405f2060ff19815416905561224b565b60405162461bcd60e51b815260206004820152603560248201527f636f6465206d7573742062652072657175657374656420666f722076616c6964604482015274185d1a5bdb881d1bc818994818dbdb5b5a5d1d1959605a1b6064820152608490fd5b634e487b7160e01b5f52602160045260245ffd5b9261100692899261235a95602081519101204294612dd4565b005b3461212c57602036600319011261212c5761237561255d565b61237d612a03565b5f51602061372b5f395f51905f525460040180546001600160a01b0319166001600160a01b03909216919091179055005b3461212c575f36600319011261212c5760205f51602061372b5f395f51905f525454604051908152f35b3461212c576123e636612547565b908115801590612513575b156124d85760165f51602061372b5f395f51905f5254612413815415156125c4565b0190805f528160205260ff60405f205416600381101561232d57612477577f65672eaf4ff8b823ea29ae013fef437d1fa9ed431125263a7a1f0ac49eada39692604092825f52602052825f20600160ff1982541617905582519182526020820152a1005b60405162461bcd60e51b815260206004820152603360248201527f676976656e20636f646520696420697320616c7265616479206f6e2076616c6960448201527219185d1a5bdb881bdc881d985b1a59185d1959606a1b6064820152608490fd5b60405162461bcd60e51b8152602060048201526013602482015272189b1bd88818d85b89dd08189948199bdd5b99606a1b6044820152606490fd5b505f4915156123f1565b3461212c575f36600319011261212c5760209060195f51602061372b5f395f51905f525401548152f35b604090600319011261212c576004359060243590565b600435906001600160a01b038216820361212c57565b35906001600160a01b038216820361212c57565b9181601f8401121561212c578235916001600160401b03831161212c576020808501948460051b01011161212c57565b90600382101561232d5752565b156125cb57565b60405162461bcd60e51b815260206004820152603860248201527f726f757465722067656e65736973206973207a65726f3b2063616c6c20606c6f60448201527f6f6b757047656e657369734861736828296020666972737400000000000000006064820152608490fd5b35801515810361212c5790565b5f1981146126515760010190565b634e487b7160e01b5f52601160045260245ffd5b604081019081106001600160401b0382111761268057604052565b634e487b7160e01b5f52604160045260245ffd5b606081019081106001600160401b0382111761268057604052565b90601f801991011681019081106001600160401b0382111761268057604052565b6020806126fd928195946040519682889351918291018585015e82019083820152030180855201836126af565b565b1561270657565b60405162461bcd60e51b815260206004820152601e60248201527f7369676e61747572657320766572696669636174696f6e206661696c656400006044820152606490fd5b90604051918281549182825260208201905f5260205f20925f5b81811061277a5750506126fd925003836126af565b84546001600160a01b0316835260019485019487945060209093019201612765565b6001600160401b0381116126805760051b60200190565b91908110156127c35760051b0190565b634e487b7160e01b5f52603260045260245ffd5b80518210156127c35760209160051b010190565b604051906127f882612665565b5f6020838281520152565b356001600160a01b038116810361212c5790565b6128305f51602061372b5f395f51905f5254429061321d565b600201905f5b8381106128465750505050600190565b6128546106438286856127b3565b6001600160a01b03165f9081526020849052604090205460ff161561287b57600101612836565b505050505f90565b9190820391821161265157565b811561289a570490565b634e487b7160e01b5f52601260045260245ffd5b919082604091031261212c576040516128c681612665565b6020808294803584520135910152565b9291906128e28161279c565b936128f060405195866126af565b602085838152019160051b810192831161212c57905b82821061291257505050565b6020809161291f84612573565b815201910190612906565b9190820180921161265157565b8181029291811591840414171561265157565b903590601e198136030182121561212c57018035906001600160401b03821161212c57602001918160051b3603831361212c57565b3565ffffffffffff8116810361212c5790565b6001600160a01b031680156129f0575f51602061370b5f395f51905f5280546001600160a01b0319811683179091556001600160a01b03167f8be0079c531659141344cd1fd0a4f28419497f9722a3daafe3b4186f6b6457e05f80a3565b631e4fbdf760e01b5f525f60045260245ffd5b5f51602061370b5f395f51905f52546001600160a01b03163303612a2357565b63118cdaa760e01b5f523360045260245ffd5b5f51602061372b5f395f51905f525491612a52835415156125c4565b815f526016830160205260ff60405f205416600381101561232d57600203612b0e57612ab060189160018060a01b03600586015416906040516020810191868352604082015260408152612aa76060826126af565b51902090613568565b9260018060a01b0384165f52601781016020528260405f205501612ad48154612643565b90556040516001600160a01b03831681527f8008ec1d8798725ebfa0f2d128d52e8e717dcba6e0f786557eeee70614b02bf190602090a290565b60405162461bcd60e51b815260206004820152602e60248201527f636f6465206d7573742062652076616c696461746564206265666f726520707260448201526d37b3b930b69031b932b0ba34b7b760911b6064820152608490fd5b5f60408051612b7881612694565b8281528260208201520152604051612b8f81612694565b5f815263ffffffff4316602082015265ffffffffffff4216604082015290565b15612bb657565b60405162461bcd60e51b815260206004820152602660248201527f46524f53542061676772656761746564207075626c6963206b657920697320696044820152651b9d985b1a5960d21b6064820152608490fd5b9190805190612c3c6020820192835170014551231950b75fc4402da1732fc9bebe1982109182612d63575b5050612baf565b5183555160018301555f5b600383018054821015612c85575f90815260208082208301546001600160a01b0316825260028501905260409020805460ff19169055600101612c47565b5050925f5b8451811015612cce576001906001600160a01b03612ca882886127d7565b5116828060a01b03165f526002840160205260405f208260ff1982541617905501612c8a565b5092600382018151916001600160401b03831161268057680100000000000000008311612680578154838355808410612d3d575b50602001905f5260205f205f5b838110612d20575050505060040155565b82516001600160a01b031681830155602090920191600101612d0f565b825f528360205f2091820191015b818110612d585750612d02565b5f8155600101612d4b565b612d6d9250613665565b5f80612c35565b612d7e4282613264565b15612d895760080190565b600d0190565b9291926001600160401b0382116126805760405191612db8601f8201601f1916602001846126af565b82948184528183011161212c578281602093845f960137010152565b909493919365ffffffffffff600183015460201c16612e0a612e15612e0f612dfc8442612883565b601387015493848092612890565b612937565b8361292a565b9182841080806131e5575b156131735750831061312e57612e36908361292a565b106130dd57612e46905b8261321d565b94604051906020820190815260208252612e616040836126af565b612e9d603660405180936020820195601960f81b87523060601b60228401525180918484015e81015f838201520301601f1981018352826126af565b51902093600281101561232d5780612ffb57505060018103612fb657156127c357803590601e198136030182121561212c57018035906001600160401b03821161212c57602001813603811361212c57612ef8913691612d8f565b916060835103612f6157826020612f49940151606060408301519201515f1a92600181549101549070014551231950b75fc4402da1732fc9bebe19811080612f4c575b612f4490612baf565b6133a4565b90565b50612f44612f5a8383613665565b9050612f3b565b60405162461bcd60e51b815260206004820152602760248201527f46524f5354207369676e6174757265206c656e677468206d75737420626520396044820152663620627974657360c81b6064820152608490fd5b60405162461bcd60e51b815260206004820152601e60248201527f46524f5354207369676e6174757265206d7573742062652073696e676c6500006044820152606490fd5b60011461300b5750505050505f90565b6130259061ffff60076003889598015492015416906131fb565b925f9260025f9301925b868110156130d2578060051b820135601e198336030181121561212c5782018035906001600160401b03821161212c57602001813603811361212c5761308d916130849161307e913691612d8f565b856135cb565b90929192613605565b6001600160a01b03165f9081526020859052604090205460ff166130b4575b60010161302f565b936130be90612643565b938585036130ac5750505050505050600190565b505050505050505f90565b60405162461bcd60e51b8152602060048201526024808201527f74696d657374616d70206973206f6c646572207468616e2070726576696f75736044820152632065726160e01b6064820152608490fd5b60405162461bcd60e51b815260206004820152601e60248201527f63616e6e6f742076616c6964617465206265666f72652067656e6573697300006044820152606490fd5b939291505042821161319657612e469261318e575b50612e40565b90505f613188565b60405162461bcd60e51b815260206004820152602160248201527f74696d657374616d702063616e6e6f7420626520696e207468652066757475726044820152606560f81b6064820152608490fd5b506131f460158701548561292a565b4210612e20565b61ffff613209921690612937565b61270f810180911161265157612710900490565b906132289082613264565b1561323357600d0190565b60080190565b60ff5f51602061374b5f395f51905f525460401c161561325557565b631afcd79f60e31b5f5260045ffd5b906011600c83015492015480831461330957818184109311918215911115918190613302575b1561329f578261329957505090565b14919050565b60405162461bcd60e51b815260206004820152603560248201527f636f756c64206e6f74206964656e746966792076616c696461746f727320666f6044820152740722074686520676976656e2074696d657374616d7605c1b6064820152608490fd5b508161328a565b606460405162461bcd60e51b815260206004820152602060248201527f657261732074696d657374616d70206d757374206e6f7420626520657175616c6044820152fd5b905f19430143811161265157805b613366575b505f9150565b804083810361337757506001925050565b1561338b578015612651575f19018061335b565b613360565b35906001600160801b038216820361212c57565b92939194906133b38587613665565b1561355e57821561355e5770014551231950b75fc4402da1732fc9bebe1983101561355e576001169061010e6040519161012083018381106001600160401b0382111761212c5760405260883684376002600188160160888401538760898401526002840160a984015360aa830186905260ca8301527e300046524f53542d736563703235366b312d4b454343414b3235362d76316360ea8301526303430b6160e51b61010a830152812060cc820181815290600260ec84016001815360428420809318845253604270014551231950b75fc4402da1732fc9bebe19922060801c6001600160401b0360801b8260801b16179070014551231950b75fc4402da1732fc9bebe1990600160c01b9060401c090880156130d25784601b6080945f9660209870014551231950b75fc4402da1732fc9bebe19910970014551231950b75fc4402da1732fc9bebe19038552018684015280604084015270014551231950b75fc4402da1732fc9bebe19910970014551231950b75fc4402da1732fc9bebe1903606082015282805260015afa1561212c575f51915f5260205260018060a01b0360405f20161490565b5050505050505f90565b6e5af43d82803e903d91602b57fd5bf390763d602d80600a3d3981f3363d3d373d3d3d363d7300000062ffffff8260881c16175f5260781b17602052603760095ff5906001600160a01b038216156135bc57565b63b06ebf3d60e01b5f5260045ffd5b81519190604183036135fb576135f49250602082015190606060408401519301515f1a90613688565b9192909190565b50505f9160029190565b600481101561232d5780613617575050565b6001810361362e5763f645eedf60e01b5f5260045ffd5b60028103613649575063fce698f760e01b5f5260045260245ffd5b6003146136535750565b6335e2f38360e21b5f5260045260245ffd5b6401000003d01990600790829081818009900908906401000003d0199080091490565b91907f7fffffffffffffffffffffffffffffff5d576e7357a4501ddfe92f46681b20a084116136ff579160209360809260ff5f9560405194855216868401526040830152606082015282805260015afa15612121575f516001600160a01b038116156136f557905f905f90565b505f906001905f90565b5050505f916003919056fe9016d09d72d40fdae2fd8ceac6b6234c7706214fd39c1cd1e609a0528c1993005c09ca1b9b8127a4fd9f3c384aac59b661441e820e17733753ff5f2e86e1e000f0c57e16840df040f15088dc2f81fe391c3923bec73e23a9662efc9c229c6a00a2646970667358221220b0a5d82d593401038feb4db2881fbbe5dc21b8263f50490afc5d0469e02872bc64736f6c634300081c0033f0c57e16840df040f15088dc2f81fe391c3923bec73e23a9662efc9c229c6a00","linkReferences":{}},"methodIdentifiers":{"areValidators(address[])":"8f381dbe","codeState(bytes32)":"c13911e8","codesStates(bytes32[])":"82bdeaad","commitBlocks((bytes32,uint48,bytes32,bytes32,(address,bytes32,address,uint128,(bytes32,address,uint128)[],(bytes32,address,bytes,uint128,(bytes32,bytes4))[])[])[],uint8,bytes[])":"b6a49680","commitCodes((bytes32,bool)[],uint8,bytes[])":"44d5ec1f","commitValidators(((uint256,uint256),address[],uint256),uint8,bytes[])":"b44b2aaf","computeSettings()":"84d22a4f","createProgram(bytes32,bytes32)":"527de0f9","createProgramWithDecoder(address,bytes32,bytes32)":"e7006a74","genesisBlockHash()":"28e24b3d","genesisTimestamp()":"cacf66ab","initialize(address,address,address,address,uint256,uint256,uint256,(uint256,uint256),address[])":"95f35ac0","isValidator(address)":"facd743b","latestCommittedBlockHash()":"c9f16a11","lookupGenesisHash()":"8b1edf1e","mirrorImpl()":"e6fabc09","mirrorProxyImpl()":"65ecfea2","owner()":"8da5cb5b","programCodeId(address)":"9067088e","programsCodeIds(address[])":"baaf0201","programsCount()":"96a2ddfa","reinitialize()":"6c2eb350","renounceOwnership()":"715018a6","requestCodeValidation(bytes32,bytes32)":"1c149d8a","setMirror(address)":"3d43b418","signingThresholdPercentage()":"efd81abc","transferOwnership(address)":"f2fde38b","validatedCodesCount()":"007a32e7","validators()":"ca1e7819","validatorsCount()":"ed612f8c","validatorsThreshold()":"edc87225","wrappedVara()":"88f50cf0"},"storageLayout":{"storage":[],"types":{}},"id":126}