{"abi":[{"type":"constructor","inputs":[],"stateMutability":"nonpayable"},{"type":"function","name":"areValidators","inputs":[{"name":"_validators","type":"address[]","internalType":"address[]"}],"outputs":[{"name":"","type":"bool","internalType":"bool"}],"stateMutability":"view"},{"type":"function","name":"codeState","inputs":[{"name":"_codeId","type":"bytes32","internalType":"bytes32"}],"outputs":[{"name":"","type":"uint8","internalType":"enum Gear.CodeState"}],"stateMutability":"view"},{"type":"function","name":"codesStates","inputs":[{"name":"_codesIds","type":"bytes32[]","internalType":"bytes32[]"}],"outputs":[{"name":"","type":"uint8[]","internalType":"enum Gear.CodeState[]"}],"stateMutability":"view"},{"type":"function","name":"commitBatch","inputs":[{"name":"_batch","type":"tuple","internalType":"struct Gear.BatchCommitment","components":[{"name":"blockHash","type":"bytes32","internalType":"bytes32"},{"name":"blockTimestamp","type":"uint48","internalType":"uint48"},{"name":"previousCommittedBatchHash","type":"bytes32","internalType":"bytes32"},{"name":"chainCommitment","type":"tuple[]","internalType":"struct Gear.ChainCommitment[]","components":[{"name":"transitions","type":"tuple[]","internalType":"struct Gear.StateTransition[]","components":[{"name":"actorId","type":"address","internalType":"address"},{"name":"newStateHash","type":"bytes32","internalType":"bytes32"},{"name":"exited","type":"bool","internalType":"bool"},{"name":"inheritor","type":"address","internalType":"address"},{"name":"valueToReceive","type":"uint128","internalType":"uint128"},{"name":"valueClaims","type":"tuple[]","internalType":"struct Gear.ValueClaim[]","components":[{"name":"messageId","type":"bytes32","internalType":"bytes32"},{"name":"destination","type":"address","internalType":"address"},{"name":"value","type":"uint128","internalType":"uint128"}]},{"name":"messages","type":"tuple[]","internalType":"struct Gear.Message[]","components":[{"name":"id","type":"bytes32","internalType":"bytes32"},{"name":"destination","type":"address","internalType":"address"},{"name":"payload","type":"bytes","internalType":"bytes"},{"name":"value","type":"uint128","internalType":"uint128"},{"name":"replyDetails","type":"tuple","internalType":"struct Gear.ReplyDetails","components":[{"name":"to","type":"bytes32","internalType":"bytes32"},{"name":"code","type":"bytes4","internalType":"bytes4"}]},{"name":"call","type":"bool","internalType":"bool"}]}]},{"name":"blocks","type":"tuple[]","internalType":"struct Gear.GearBlock[]","components":[{"name":"hash","type":"bytes32","internalType":"bytes32"},{"name":"gasAllowance","type":"uint64","internalType":"uint64"},{"name":"offchainTransactionsHash","type":"bytes32","internalType":"bytes32"}]}]},{"name":"codeCommitments","type":"tuple[]","internalType":"struct Gear.CodeCommitment[]","components":[{"name":"id","type":"bytes32","internalType":"bytes32"},{"name":"valid","type":"bool","internalType":"bool"}]},{"name":"rewardsCommitment","type":"tuple[]","internalType":"struct Gear.RewardsCommitment[]","components":[{"name":"operators","type":"tuple","internalType":"struct Gear.OperatorRewardsCommitment","components":[{"name":"amount","type":"uint256","internalType":"uint256"},{"name":"root","type":"bytes32","internalType":"bytes32"}]},{"name":"stakers","type":"tuple","internalType":"struct Gear.StakerRewardsCommitment","components":[{"name":"distribution","type":"tuple[]","internalType":"struct Gear.StakerRewards[]","components":[{"name":"vault","type":"address","internalType":"address"},{"name":"amount","type":"uint256","internalType":"uint256"}]},{"name":"totalAmount","type":"uint256","internalType":"uint256"},{"name":"token","type":"address","internalType":"address"}]},{"name":"timestamp","type":"uint48","internalType":"uint48"}]},{"name":"validatorsCommitment","type":"tuple[]","internalType":"struct Gear.ValidatorsCommitment[]","components":[{"name":"aggregatedPublicKey","type":"tuple","internalType":"struct Gear.AggregatedPublicKey","components":[{"name":"x","type":"uint256","internalType":"uint256"},{"name":"y","type":"uint256","internalType":"uint256"}]},{"name":"verifiableSecretSharingCommitment","type":"bytes","internalType":"bytes"},{"name":"validators","type":"address[]","internalType":"address[]"},{"name":"eraIndex","type":"uint256","internalType":"uint256"}]}]},{"name":"_signatureType","type":"uint8","internalType":"enum Gear.SignatureType"},{"name":"_signatures","type":"bytes[]","internalType":"bytes[]"}],"outputs":[],"stateMutability":"nonpayable"},{"type":"function","name":"computeSettings","inputs":[],"outputs":[{"name":"","type":"tuple","internalType":"struct Gear.ComputationSettings","components":[{"name":"threshold","type":"uint64","internalType":"uint64"},{"name":"wvaraPerSecond","type":"uint128","internalType":"uint128"}]}],"stateMutability":"view"},{"type":"function","name":"createProgram","inputs":[{"name":"_codeId","type":"bytes32","internalType":"bytes32"},{"name":"_salt","type":"bytes32","internalType":"bytes32"},{"name":"_overrideInitializer","type":"address","internalType":"address"}],"outputs":[{"name":"","type":"address","internalType":"address"}],"stateMutability":"nonpayable"},{"type":"function","name":"createProgramWithAbiInterface","inputs":[{"name":"_codeId","type":"bytes32","internalType":"bytes32"},{"name":"_salt","type":"bytes32","internalType":"bytes32"},{"name":"_overrideInitializer","type":"address","internalType":"address"},{"name":"_abiInterface","type":"address","internalType":"address"}],"outputs":[{"name":"","type":"address","internalType":"address"}],"stateMutability":"nonpayable"},{"type":"function","name":"genesisBlockHash","inputs":[],"outputs":[{"name":"","type":"bytes32","internalType":"bytes32"}],"stateMutability":"view"},{"type":"function","name":"genesisTimestamp","inputs":[],"outputs":[{"name":"","type":"uint48","internalType":"uint48"}],"stateMutability":"view"},{"type":"function","name":"initialize","inputs":[{"name":"_owner","type":"address","internalType":"address"},{"name":"_mirror","type":"address","internalType":"address"},{"name":"_wrappedVara","type":"address","internalType":"address"},{"name":"_middleware","type":"address","internalType":"address"},{"name":"_eraDuration","type":"uint256","internalType":"uint256"},{"name":"_electionDuration","type":"uint256","internalType":"uint256"},{"name":"_validationDelay","type":"uint256","internalType":"uint256"},{"name":"_aggregatedPublicKey","type":"tuple","internalType":"struct Gear.AggregatedPublicKey","components":[{"name":"x","type":"uint256","internalType":"uint256"},{"name":"y","type":"uint256","internalType":"uint256"}]},{"name":"_verifiableSecretSharingCommitment","type":"bytes","internalType":"bytes"},{"name":"_validators","type":"address[]","internalType":"address[]"}],"outputs":[],"stateMutability":"nonpayable"},{"type":"function","name":"isValidator","inputs":[{"name":"_validator","type":"address","internalType":"address"}],"outputs":[{"name":"","type":"bool","internalType":"bool"}],"stateMutability":"view"},{"type":"function","name":"latestCommittedBatchHash","inputs":[],"outputs":[{"name":"","type":"bytes32","internalType":"bytes32"}],"stateMutability":"view"},{"type":"function","name":"latestCommittedBatchTimestamp","inputs":[],"outputs":[{"name":"","type":"uint48","internalType":"uint48"}],"stateMutability":"view"},{"type":"function","name":"lookupGenesisHash","inputs":[],"outputs":[],"stateMutability":"nonpayable"},{"type":"function","name":"mirrorImpl","inputs":[],"outputs":[{"name":"","type":"address","internalType":"address"}],"stateMutability":"view"},{"type":"function","name":"owner","inputs":[],"outputs":[{"name":"","type":"address","internalType":"address"}],"stateMutability":"view"},{"type":"function","name":"programCodeId","inputs":[{"name":"_programId","type":"address","internalType":"address"}],"outputs":[{"name":"","type":"bytes32","internalType":"bytes32"}],"stateMutability":"view"},{"type":"function","name":"programsCodeIds","inputs":[{"name":"_programsIds","type":"address[]","internalType":"address[]"}],"outputs":[{"name":"","type":"bytes32[]","internalType":"bytes32[]"}],"stateMutability":"view"},{"type":"function","name":"programsCount","inputs":[],"outputs":[{"name":"","type":"uint256","internalType":"uint256"}],"stateMutability":"view"},{"type":"function","name":"reinitialize","inputs":[],"outputs":[],"stateMutability":"nonpayable"},{"type":"function","name":"renounceOwnership","inputs":[],"outputs":[],"stateMutability":"nonpayable"},{"type":"function","name":"requestCodeValidation","inputs":[{"name":"_codeId","type":"bytes32","internalType":"bytes32"}],"outputs":[],"stateMutability":"nonpayable"},{"type":"function","name":"setMirror","inputs":[{"name":"newMirror","type":"address","internalType":"address"}],"outputs":[],"stateMutability":"nonpayable"},{"type":"function","name":"signingThresholdPercentage","inputs":[],"outputs":[{"name":"","type":"uint16","internalType":"uint16"}],"stateMutability":"view"},{"type":"function","name":"transferOwnership","inputs":[{"name":"newOwner","type":"address","internalType":"address"}],"outputs":[],"stateMutability":"nonpayable"},{"type":"function","name":"validatedCodesCount","inputs":[],"outputs":[{"name":"","type":"uint256","internalType":"uint256"}],"stateMutability":"view"},{"type":"function","name":"validators","inputs":[],"outputs":[{"name":"","type":"address[]","internalType":"address[]"}],"stateMutability":"view"},{"type":"function","name":"validatorsAggregatedPublicKey","inputs":[],"outputs":[{"name":"","type":"tuple","internalType":"struct Gear.AggregatedPublicKey","components":[{"name":"x","type":"uint256","internalType":"uint256"},{"name":"y","type":"uint256","internalType":"uint256"}]}],"stateMutability":"view"},{"type":"function","name":"validatorsCount","inputs":[],"outputs":[{"name":"","type":"uint256","internalType":"uint256"}],"stateMutability":"view"},{"type":"function","name":"validatorsThreshold","inputs":[],"outputs":[{"name":"","type":"uint256","internalType":"uint256"}],"stateMutability":"view"},{"type":"function","name":"validatorsVerifiableSecretSharingCommitment","inputs":[],"outputs":[{"name":"","type":"bytes","internalType":"bytes"}],"stateMutability":"view"},{"type":"function","name":"wrappedVara","inputs":[],"outputs":[{"name":"","type":"address","internalType":"address"}],"stateMutability":"view"},{"type":"event","name":"BatchCommitted","inputs":[{"name":"hash","type":"bytes32","indexed":false,"internalType":"bytes32"}],"anonymous":false},{"type":"event","name":"CodeGotValidated","inputs":[{"name":"codeId","type":"bytes32","indexed":false,"internalType":"bytes32"},{"name":"valid","type":"bool","indexed":true,"internalType":"bool"}],"anonymous":false},{"type":"event","name":"CodeValidationRequested","inputs":[{"name":"codeId","type":"bytes32","indexed":false,"internalType":"bytes32"}],"anonymous":false},{"type":"event","name":"ComputationSettingsChanged","inputs":[{"name":"threshold","type":"uint64","indexed":false,"internalType":"uint64"},{"name":"wvaraPerSecond","type":"uint128","indexed":false,"internalType":"uint128"}],"anonymous":false},{"type":"event","name":"GearBlockCommitted","inputs":[{"name":"block","type":"tuple","indexed":false,"internalType":"struct Gear.GearBlock","components":[{"name":"hash","type":"bytes32","internalType":"bytes32"},{"name":"gasAllowance","type":"uint64","internalType":"uint64"},{"name":"offchainTransactionsHash","type":"bytes32","internalType":"bytes32"}]}],"anonymous":false},{"type":"event","name":"Initialized","inputs":[{"name":"version","type":"uint64","indexed":false,"internalType":"uint64"}],"anonymous":false},{"type":"event","name":"NextEraValidatorsCommitted","inputs":[{"name":"startTimestamp","type":"uint256","indexed":false,"internalType":"uint256"}],"anonymous":false},{"type":"event","name":"OwnershipTransferred","inputs":[{"name":"previousOwner","type":"address","indexed":true,"internalType":"address"},{"name":"newOwner","type":"address","indexed":true,"internalType":"address"}],"anonymous":false},{"type":"event","name":"ProgramCreated","inputs":[{"name":"actorId","type":"address","indexed":false,"internalType":"address"},{"name":"codeId","type":"bytes32","indexed":true,"internalType":"bytes32"}],"anonymous":false},{"type":"event","name":"StorageSlotChanged","inputs":[],"anonymous":false},{"type":"error","name":"ECDSAInvalidSignature","inputs":[]},{"type":"error","name":"ECDSAInvalidSignatureLength","inputs":[{"name":"length","type":"uint256","internalType":"uint256"}]},{"type":"error","name":"ECDSAInvalidSignatureS","inputs":[{"name":"s","type":"bytes32","internalType":"bytes32"}]},{"type":"error","name":"InvalidInitialization","inputs":[]},{"type":"error","name":"NotInitializing","inputs":[]},{"type":"error","name":"OwnableInvalidOwner","inputs":[{"name":"owner","type":"address","internalType":"address"}]},{"type":"error","name":"OwnableUnauthorizedAccount","inputs":[{"name":"account","type":"address","internalType":"address"}]},{"type":"error","name":"ReentrancyGuardReentrantCall","inputs":[]}],"bytecode":{"object":"0x6080806040523460aa575f51602061443a5f395f51905f525460ff8160401c16609b576002600160401b03196001600160401b038216016049575b60405161438b90816100af8239f35b6001600160401b0319166001600160401b039081175f51602061443a5f395f51905f525581527fc7f505b2f371ae2175ee4913f4499e1f2633a7b5936321eed1cdaeb6115181d290602090a15f80603a565b63f92ee8a960e01b5f5260045ffd5b5f80fdfe6080806040526004361015610012575f80fd5b5f905f3560e01c9081627a32e714612252575080630c18d27714611d4c578063120e3f1e14611bc057806328e24b3d14611b925780633683c4d2146119055780633bd109fa146118b65780633d43b4181461186257806353f7fd48146112dd5780636c2eb35014610f8b578063715018a614610f2257806371a8cf2d14610ef457806382bdeaad14610ddc57806384d22a4f14610d7357806388f50cf014610d3a5780638b1edf1e14610c6f5780638da5cb5b14610c3a5780638f381dbe14610bf45780639067088e14610bab57806396a2ddfa14610b7d578063a5d53a4414610b0f578063aa28e0f214610502578063baaf020114610426578063c13911e8146103e2578063ca1e78191461035f578063cacf66ab14610327578063d456fd51146102f1578063e6fabc09146102b8578063ed612f8c14610280578063edc8722514610236578063efd81abc14610204578063f2fde38b146101d75763facd743b1461017d575f80fd5b346101d45760203660031901126101d4576101966122a8565b60036101b15f51602061434b5f395f51905f52544290613eb8565b019060018060a01b03165f52602052602060ff60405f2054166040519015158152f35b80fd5b50346101d45760203660031901126101d4576102016101f46122a8565b6101fc612708565b612689565b80f35b50346101d457806003193601126101d457602061ffff60085f51602061434b5f395f51905f5254015416604051908152f35b50346101d457806003193601126101d45760206102785f51602061434b5f395f51905f525461ffff6008600461026c4285613eb8565b01549201541690613e96565b604051908152f35b50346101d457806003193601126101d457602060046102ae5f51602061434b5f395f51905f52544290613eb8565b0154604051908152f35b50346101d457806003193601126101d4575f51602061434b5f395f51905f5254600501546040516001600160a01b039091168152602090f35b50346101d457806003193601126101d457602065ffffffffffff60045f51602061434b5f395f51905f5254015416604051908152f35b50346101d457806003193601126101d457602065ffffffffffff60025f51602061434b5f395f51905f52540154821c16604051908152f35b50346101d457806003193601126101d457610394600461038e5f51602061434b5f395f51905f52544290613eb8565b01612539565b90604051918291602083016020845282518091526020604085019301915b8181106103c0575050500390f35b82516001600160a01b03168452859450602093840193909201916001016103b2565b50346101d45760203660031901126101d45760ff604060209260195f51602061434b5f395f51905f525401600435825284522054166104246040518092612302565bf35b50346101d45760203660031901126101d4576004356001600160401b0381116104fe576104579036906004016122d2565b905f51602061434b5f395f51905f525461047083612657565b92601a859201915b8181106104c5578486604051918291602083016020845282518091526020604085019301915b8181106104ac575050500390f35b825184528594506020938401939092019160010161049e565b806104db6104d6600193858861258c565b6125c4565b828060a01b03165f528360205260405f20546104f782886125b0565b5201610478565b5080fd5b50346101d45760603660031901126101d4576004356001600160401b0381116104fe57806004019160e060031983360301126101d4576024359260028410156104fe576044356001600160401b038111610b0b576105649036906004016122d2565b92907f9b779b17422d0df92223018b32b4d1fa46e071723d6817e2486d003becc55f005c610afc5760017f9b779b17422d0df92223018b32b4d1fa46e071723d6817e2486d003becc55f005d5f51602061434b5f395f51905f5254926105cf6001850154151561237a565b835415610a2e575b600384019485549260448801358094036109db57600486019865ffffffffffff8a54169760248a019865ffffffffffff6106108b612644565b161061095b5760849a9998610625868a612b11565b9a606097899d8e9c019860198c019c5b61063f8b8b6131fc565b9190501015610807578e6106538b8b6131fc565b909110156107f3578f60ff8f926040908f9360061b019283359485825260205220541660038110156107df5760010361077c5760408f918f928f93602083019461069c86613231565b1561076457601c928782526020528481209050600260ff19825416179055016106c581546126fa565b90555b6106d183613231565b15157f460119a8f69a33ed127de517d5ea464e958ce23ef19e4420a8b92bf780bbc2c960208451878152a236031261076057916107579160206001946107256040519161071d8361233e565b84835261323e565b91829101526040519060208201928352151560f81b60408201526021815261074e604182612359565b5190209061324b565b9e019d8e610635565b8c80fd5b905083918682526020522060ff1981541690556106c8565b60405162461bcd60e51b815260206004820152603560248201527f636f6465206d7573742062652072657175657374656420666f722076616c6964604482015274185d1a5bdb881d1bc818994818dbdb5b5a5d1d1959605a1b6064820152608490fd5b634e487b7160e01b8e52602160045260248efd5b634e487b7160e01b8c52603260045260248cfd5b6108eb99509160208c998f9365ffffffffffff96948c6108e49785815191012061083b8561083581856132b2565b9361372e565b9261084589612644565b9460405195888701973588528c60d01b9060d01b16604087015260468601526066850152608684015260a683015260c682015260c6815261088760e682612359565b519020809661089585612644565b87604051916108a38361233e565b8483521693849101525584198254161790557f7ebe42360bcb182fe0a88148b081e4557c89d09aa6af8307635ac2f83e2aaa656020604051868152a1612644565b1694613aed565b1561091657807f9b779b17422d0df92223018b32b4d1fa46e071723d6817e2486d003becc55f005d80f35b60405162461bcd60e51b815260206004820152601e60248201527f7369676e61747572657320766572696669636174696f6e206661696c656400006044820152606490fd5b60405162461bcd60e51b815260206004820152604c60248201527f62617463682074696d657374616d70206d75737420626520677265617465722060448201527f6f7220657175616c20746f206c617465737420636f6d6d69747465642062617460648201526b063682074696d657374616d760a41b608482015260a490fd5b60405162461bcd60e51b815260206004820152602560248201527f696e76616c69642070726576696f757320636f6d6d6974746564206261746368604482015264040d0c2e6d60db1b6064820152608490fd5b610a388135612a56565b15610aa85765ffffffffffff610a5060248801612644565b1642116105d75760405162461bcd60e51b815260206004820152602360248201527f62617463682074696d657374616d70206d75737420626520696e207468652070604482015262185cdd60ea1b6064820152608490fd5b60405162461bcd60e51b815260206004820152602660248201527f616c6c6f776564207072656465636573736f7220626c6f636b207761736e277460448201526508199bdd5b9960d21b6064820152608490fd5b633ee5aeb560e01b8252600482fd5b8280fd5b50346101d457806003193601126101d4576040610b505f51602061434b5f395f51905f52546002610b4860018060a01b03924290613eb8565b015416612a27565b6020825193849282845280519283918282870152018585015e828201840152601f01601f19168101030190f35b50346101d457806003193601126101d4576020601b5f51602061434b5f395f51905f52540154604051908152f35b50346101d45760203660031901126101d457610bc56122a8565b601a5f51602061434b5f395f51905f5254019060018060a01b03165f52602052602060405f2054604051908152f35b50346101d45760203660031901126101d457600435906001600160401b0382116101d4576020610c30610c2a36600486016122d2565b906125d8565b6040519015158152f35b50346101d457806003193601126101d4575f51602061432b5f395f51905f52546040516001600160a01b039091168152602090f35b50346101d457806003193601126101d4575f51602061434b5f395f51905f525460018101908154610cf5576002015463ffffffff1640908115610cb0575580f35b60405162461bcd60e51b815260206004820152601d60248201527f756e61626c6520746f206c6f6f6b75702067656e6573697320686173680000006044820152606490fd5b60405162461bcd60e51b815260206004820152601860248201527f67656e65736973206861736820616c72656164792073657400000000000000006044820152606490fd5b50346101d457806003193601126101d4575f51602061434b5f395f51905f5254600601546040516001600160a01b039091168152602090f35b50346101d457806003193601126101d457610d8c6123ec565b50604060155f51602061434b5f395f51905f5254016001600160801b03825191610db58361233e565b548160206001600160401b038316948581520191851c168152835192835251166020820152f35b50346101d45760203660031901126101d4576004356001600160401b0381116104fe57610e0d9036906004016122d2565b905f51602061434b5f395f51905f525490610e27836124ce565b91610e356040519384612359565b838352610e41846124ce565b602084019490601f19013686376019869201915b818110610eaa57868587604051928392602084019060208552518091526040840192915b818110610e87575050500390f35b9193509160208082610e9c6001948851612302565b019401910191849392610e79565b610eb581838661258c565b3587528260205260ff604088205416610ece82876125b0565b6003821015610ee05752600101610e55565b634e487b7160e01b89526021600452602489fd5b50346101d457806003193601126101d457602060035f51602061434b5f395f51905f52540154604051908152f35b50346101d457806003193601126101d457610f3b612708565b5f51602061432b5f395f51905f5280546001600160a01b0319811690915581906001600160a01b03167f8be0079c531659141344cd1fd0a4f28419497f9722a3daafe3b4186f6b6457e08280a380f35b50346101d457806003193601126101d457610fa4612708565b5f51602061436b5f395f51905f525460ff8160401c169081156112c8575b506112b9575f51602061436b5f395f51905f52805468ffffffffffffffffff1916680100000000000000021790555f51602061432b5f395f51905f525461101c906001600160a01b0316611014613ed4565b6101fc613ed4565b5f51602061434b5f395f51905f5254604090815161103a8382612359565b6017815260208101907f726f757465722e73746f726167652e526f757465725632000000000000000000825261106e612708565b5190205f1981019081116112a557916020917fc7f505b2f371ae2175ee4913f4499e1f2633a7b5936321eed1cdaeb6115181d2938251908482019081528482526110b88483612359565b60ff19915190201690815f51602061434b5f395f51905f52556110d961273b565b80516001840155600283019063ffffffff868201511669ffffffffffff00000000868454930151881b169169ffffffffffffffffffff191617179055600581016005830190808203611257575b505061ffff600882015416600883019061ffff1982541617905561118f61114d4283613eb8565b6111646001600160a01b036002610b484287613eb8565b61117a60046111734287613eb8565b0192612404565b906111854293612539565b9160098701612793565b601581016015830190808203611205575b50506016810160168301918183036111e5575b5050505060ff60401b195f51602061436b5f395f51905f5254165f51602061436b5f395f51905f52555160028152a180f35b60189283925490556017810154601785015501549101555f8080806111b3565b806001600160401b03806001600160801b03935416166001600160401b031984541617835554851c16600160401b600160c01b03825491861b1690600160401b600160c01b0319161790555f806111a0565b5481546001600160a01b03199081166001600160a01b039283161790925560068381015490850180548416918316919091179055600780840154908501805490931691161790555f80611126565b634e487b7160e01b84526011600452602484fd5b63f92ee8a960e01b8152600490fd5b600291506001600160401b031610155f610fc2565b50346101d4576101603660031901126101d4576112f86122a8565b6024356001600160a01b0381169190829003610b0b5761131661227c565b61131e612292565b60c435916084359160a43560403660e319011261185e5761012435946001600160401b03861161185a573660238701121561185a578560040135916001600160401b03831161185657366024848901011161185657610144356001600160401b038111611852576113939036906004016122d2565b9690945f51602061436b5f395f51905f5254996001600160401b0360ff8c60401c16159b168015908161184a575b6001149081611840575b159081611837575b5061182857611415908b60016001600160401b03195f51602061436b5f395f51905f525416175f51602061436b5f395f51905f52556117f8575b611014613ed4565b61141d613ed4565b42156117a257821561174c57828211156116eb57600a61143d8484612422565b048410156116a65760409a8b516114548d82612359565b6017815260208101907f726f757465722e73746f726167652e526f7574657256310000000000000000008252611488612708565b5190205f198101908111611692578c51602080820192835281528d9392916114b08583612359565b60ff19915190201698895f51602061434b5f395f51905f52556114d161273b565b805160018c015560028b0190602081015163ffffffff1686835492015160201b69ffffffffffff00000000169169ffffffffffffffffffff19161717905583519061151b8261230f565b8282526001600160a01b03908116602083018190529381169490910184905260058a018054919092166001600160a01b0319918216179091556006890180548216909217909155600788018054909116909117905560088601805461ffff1916611a0a1790556115896123ec565b5089516115958161233e565b639502f90081526509184e72a0006020909101526015860180546001600160c01b0319166d09184e72a000000000009502f900179055895183908b906115da8161230f565b83815284602082015201526016860155601785015560188401558651946116008661233e565b60e435865261010435602087015261161c913691602401612489565b904293369061162a926124e5565b916009019361163894612793565b611640575080f35b60207fc7f505b2f371ae2175ee4913f4499e1f2633a7b5936321eed1cdaeb6115181d29160ff60401b195f51602061436b5f395f51905f5254165f51602061436b5f395f51905f52555160018152a180f35b634e487b7160e01b8e52601160045260248efd5b60405162461bcd60e51b815260206004820152601b60248201527f76616c69646174696f6e2064656c617920697320746f6f2062696700000000006044820152606490fd5b60405162461bcd60e51b815260206004820152603360248201527f657261206475726174696f6e206d757374206265206772656174657220746861604482015272371032b632b1ba34b7b710323ab930ba34b7b760691b6064820152608490fd5b60405162461bcd60e51b815260206004820152602860248201527f656c656374696f6e206475726174696f6e206d75737420626520677265617465604482015267072207468616e20360c41b6064820152608490fd5b60405162461bcd60e51b815260206004820152602860248201527f63757272656e742074696d657374616d70206d75737420626520677265617465604482015267072207468616e20360c41b6064820152608490fd5b600160401b60ff60401b195f51602061436b5f395f51905f525416175f51602061436b5f395f51905f525561140d565b63f92ee8a960e01b8d5260048dfd5b9050155f6113d3565b303b1591506113cb565b8c91506113c1565b8a80fd5b8980fd5b8880fd5b8780fd5b50346101d45760203660031901126101d45761187c6122a8565b611884612708565b5f51602061434b5f395f51905f525460050180546001600160a01b0319166001600160a01b0390921691909117905580f35b50346101d457806003193601126101d4576118cf6123ec565b5060406118f36118ee5f51602061434b5f395f51905f52544290613eb8565b612404565b60208251918051835201516020820152f35b50346101d45760603660031901126101d45760043561192261227c565b5f51602061434b5f395f51905f52546119406001820154151561237a565b8284526019810160205260ff6040852054166003811015611b7e57600203611b22576040516020810190848252602435604082015260408152611984606082612359565b51902060405160608101908082106001600160401b03831117611b1e57605a916040527f3d605080600a3d3981f3608060405263e6fabc0960e01b5f5260205f6004817381523060601b6b5afa15604c575f80805136821760208201527f80378136915af43d5f803e156048573d5ff35b3d5ffd5b5f80fd000000000000604082015286f5908115611b1a576001600160a01b0382165f908152601a820160205260409020849055601b018054611a3a906126fa565b90556040516001600160a01b03821680825293907f8008ec1d8798725ebfa0f2d128d52e8e717dcba6e0f786557eeee70614b02bf190602090a2506001600160a01b038116611b155750335b5f51602061434b5f395f51905f5254600501546001600160a01b0316823b15611b1157604051631c9776b560e31b81526001600160a01b039092166004830152602482015260016044820152828160648183865af18015611b0657611af1575b602082604051908152f35b611afc838092612359565b6104fe5781611ae6565b6040513d85823e3d90fd5b8380fd5b611a86565b8480fd5b8680fd5b60405162461bcd60e51b815260206004820152602e60248201527f636f6465206d7573742062652076616c696461746564206265666f726520707260448201526d37b3b930b69031b932b0ba34b7b760911b6064820152608490fd5b634e487b7160e01b85526021600452602485fd5b50346101d457806003193601126101d457602060015f51602061434b5f395f51905f52540154604051908152f35b50346101d45760203660031901126101d457600435814915611cd05760195f51602061434b5f395f51905f5254611bfc6001820154151561237a565b018183528060205260ff6040842054166003811015611cbc57611c5b5781835260209081526040808420805460ff19166001179055519182527f5c261a095dd5720475295dc06379921c003c22164ee6cae5cf83e76ce0a1b98591a180f35b60405162461bcd60e51b815260206004820152603360248201527f676976656e20636f646520696420697320616c7265616479206f6e2076616c6960448201527219185d1a5bdb881bdc881d985b1a59185d1959606a1b6064820152608490fd5b634e487b7160e01b84526021600452602484fd5b60405162461bcd60e51b815260206004820152604860248201527f626c6f622063616e277420626520666f756e642c20726f75746572206578706560448201527f63746564204549502d34383434207472616e73616374696f6e2077697468205760648201526720a9a690313637b160c11b608482015260a490fd5b3461223457608036600319011261223457600435611d6861227c565b90611d71612292565b915f51602061434b5f395f51905f5254611d906001820154151561237a565b825f526019810160205260ff60405f205416600381101561223e57600203611b22576040516020810190848252602435604082015260408152611dd4606082612359565b5190206040516102c08101908082106001600160401b03831117612234576102b4916040527f6080806040526102b290816100128239f3fe608060405260043610610268575f81527f3560e01c806329336f391461009b5780632a68e35d1461009657806336a52a1860208201527f14610091578063701da98e1461008c578063704ed5421461008757806391d5a660408201527f4c146100825780639ce110d71461007d578063affed0e0146100785763e43f3460608201527f330361026857610253565b610236565b61020e565b6101f8565b6101df565b6160808201527f01c2565b61019b565b610150565b346100dc5760603660031901126100dc576060a08201527f243567ffffffffffffffff81116100dc576100cc9036906004016100e0565b5060c08201527f506100d661010e565b50610268565b5f80fd5b9181601f840112156100dc578260e08201527f359167ffffffffffffffff83116100dc57602083818601950101116100dc57566101008201527f5b604435906001600160801b03821682036100dc57565b6024359060016001606101208201527f801b03821682036100dc57565b600435906001600160801b03821682036100dc6101408201527f57565b346100dc5760603660031901126100dc5760043567ffffffffffffffff6101608201527f81116100dc576101819036906004016100e0565b505061018b610124565b50606101808201527f443580151514610268575f80fd5b346100dc575f3660031901126100dc575f546101a08201527f6040516001600160a01b039091168152602090f35b346100dc575f36600319016101c08201527f126100dc576020600254604051908152f35b346100dc576020366003190112616101e08201527edc576100d661013a565b346100dc57602036600319011215610268575f80fd6102008201527f5b346100dc575f3660031901126100dc576001546040516001600160a01b03906102208201527f91168152602090f35b346100dc575f3660031901126100dc57602060035460406102408201527f51908152f35b346100dc575f36600319011215610268575f80fd5b63e6fabc09610260820152306b60e01b5f5260205f6004817360a01b176102808201527f5afa156100dc575f808051368280378136915af43d5f803e156102ae573d5ff36102a0820152635b3d5ffd60e01b6102b08201525ff5908115612234576001600160a01b0382165f908152601a820160205260409020849055601b018054612179906126fa565b90556040516001600160a01b03821680825293907f8008ec1d8798725ebfa0f2d128d52e8e717dcba6e0f786557eeee70614b02bf190602090a2506001600160a01b038116612238575033915b813b1561223457604051631c9776b560e31b81526001600160a01b039384166004820152921660248301525f604483018190528260648183855af191821561222957602092612219575b50604051908152f35b5f61222391612359565b5f612210565b6040513d5f823e3d90fd5b5f80fd5b916121c6565b634e487b7160e01b5f52602160045260245ffd5b34612234575f36600319011261223457602090601c5f51602061434b5f395f51905f525401548152f35b604435906001600160a01b038216820361223457565b606435906001600160a01b038216820361223457565b600435906001600160a01b038216820361223457565b35906001600160a01b038216820361223457565b9181601f84011215612234578235916001600160401b038311612234576020808501948460051b01011161223457565b90600382101561223e5752565b606081019081106001600160401b0382111761232a57604052565b634e487b7160e01b5f52604160045260245ffd5b604081019081106001600160401b0382111761232a57604052565b90601f801991011681019081106001600160401b0382111761232a57604052565b1561238157565b60405162461bcd60e51b815260206004820152603860248201527f726f757465722067656e65736973206973207a65726f3b2063616c6c20606c6f60448201527f6f6b757047656e657369734861736828296020666972737400000000000000006064820152608490fd5b604051906123f98261233e565b5f6020838281520152565b906040516124118161233e565b602060018294805484520154910152565b9190820391821161242f57565b634e487b7160e01b5f52601160045260245ffd5b811561244d570490565b634e487b7160e01b5f52601260045260245ffd5b9190826040910312612234576040516124798161233e565b6020808294803584520135910152565b9291926001600160401b03821161232a57604051916124b2601f8201601f191660200184612359565b829481845281830111612234578281602093845f960137010152565b6001600160401b03811161232a5760051b60200190565b9291906124f1816124ce565b936124ff6040519586612359565b602085838152019160051b810192831161223457905b82821061252157505050565b6020809161252e846122be565b815201910190612515565b90604051918281549182825260208201905f5260205f20925f5b81811061256a57505061256892500383612359565b565b84546001600160a01b0316835260019485019487945060209093019201612553565b919081101561259c5760051b0190565b634e487b7160e01b5f52603260045260245ffd5b805182101561259c5760209160051b010190565b356001600160a01b03811681036122345790565b6125f15f51602061434b5f395f51905f52544290613eb8565b600301905f5b8381106126075750505050600190565b6126156104d682868561258c565b6001600160a01b03165f9081526020849052604090205460ff161561263c576001016125f7565b505050505f90565b3565ffffffffffff811681036122345790565b90612661826124ce565b61266e6040519182612359565b828152809261267f601f19916124ce565b0190602036910137565b6001600160a01b031680156126e7575f51602061432b5f395f51905f5280546001600160a01b0319811683179091556001600160a01b03167f8be0079c531659141344cd1fd0a4f28419497f9722a3daafe3b4186f6b6457e05f80a3565b631e4fbdf760e01b5f525f60045260245ffd5b5f19811461242f5760010190565b5f51602061432b5f395f51905f52546001600160a01b0316330361272857565b63118cdaa760e01b5f523360045260245ffd5b5f604080516127498161230f565b82815282602082015201526040516127608161230f565b5f815263ffffffff4316602082015265ffffffffffff4216604082015290565b8181029291811591840414171561242f57565b9291908051906020810191825170014551231950b75fc4402da1732fc9bebe1982109182612a16575b5050156129c257518455516001840155604051906127ff6021836020808201945f86528051918291018484015e81015f838201520301601f198101845283612359565b61283c602b604051809360208201956a600b5981380380925939f360a81b87525180918484015e81015f838201520301601f198101835282612359565b51905ff06001600160a01b03811615612989576002830180546001600160a01b0319166001600160a01b039092169190911790555f5b6004830180548210156128b0575f90815260208082208301546001600160a01b0316825260038501905260409020805460ff19169055600101612872565b5050925f5b84518110156128f9576001906001600160a01b036128d382886125b0565b5116828060a01b03165f526003840160205260405f208260ff19825416179055016128b5565b5092600482018151916001600160401b03831161232a57600160401b831161232a578154838355808410612963575b50602001905f5260205f205f5b838110612946575050505060050155565b82516001600160a01b031681830155602090920191600101612935565b825f528360205f2091820191015b81811061297e5750612928565b5f8155600101612971565b60405162461bcd60e51b81526020600482015260116024820152701111541313d65351539517d19052531151607a1b6044820152606490fd5b60405162461bcd60e51b815260206004820152602660248201527f46524f53542061676772656761746564207075626c6963206b657920697320696044820152651b9d985b1a5960d21b6064820152608490fd5b612a209250614285565b5f806127bc565b803b905f1982019082821161242f5760019060405193603e601f19910116840160405282845260208401903c90565b905f19430143811161242f57805b612a6f575b505f9150565b8040838103612a8057506001925050565b15612a8e575f190180612a64565b612a69565b903590601e198136030182121561223457018035906001600160401b03821161223457602001918160051b3603831361223457565b903590601e198136030182121561223457018035906001600160401b0382116122345760200191606082023603831361223457565b35906001600160401b038216820361223457565b919060608101906001612b248383612a93565b90501161319a57612b358282612a93565b9050156131735790612b4691612a93565b1561259c57803590603e19813603018212156122345792919201612b6a8180612a93565b9290916060925f9560de198236030192601a8501955b87891015612fda578860051b84013585811215612234578401612ba2816125c4565b6001600160a01b03165f9081526020899052604090205415612f7d57608081016001600160801b03612bd382613eff565b16612ee1575b6001600160a01b03612bea836125c4565b6040516302c649c960e01b81526020600482015293911691610104840191906001600160801b0390612c69906001600160a01b03612c27856122be565b16602488015260208401356044880152612c436040850161323e565b151560648801526001600160a01b03612c5e606086016122be565b166084880152613f13565b1660a485015236819003601e190160a082013581811215612234578201602081359101936001600160401b03821161223457606082023603851361223457819060e060c489015252610124860193905f905b808210612e975750505060c0820135908112156122345701803560208201926001600160401b038211612234578160051b90813603851361223457918694936023198685030160e487015281845260208085019385010194935f9160fe19813603015b848410612d8c575050505050505091815f8160209503925af1908115612229575f91612d5a575b50612d529060019261324b565b980197612b80565b90506020813d8211612d84575b81612d7460209383612359565b8101031261223457516001612d45565b3d9150612d67565b9193959750919395601f19848203018752873582811215612234578301602081013582526001600160a01b03612dc4604083016122be565b1660208301526060810135603e193683900301811215612234578101602081013591906040016001600160401b03831161223457823603811361223457829060e060408601528160e08601526101008501375f61010083850101526001600160801b03612e3360808301613f13565b16606084015260a0810135608084015260c081013563ffffffff60e01b81168091036122345783602093612e7560e086956101009560a060019a01520161323e565b151560c0830152601f8019910116010199019701940191899796959391612d1e565b90919460608060019288358152838060a01b03612eb660208b016122be565b1660208201526001600160801b03612ed060408b01613f13565b166040820152019601920190612cbb565b60068801546001600160801b03906020906001600160a01b03166044612f06866125c4565b5f612f1087613eff565b60405163a9059cbb60e01b81526001600160a01b0390931660048401529590951660248201529384928391905af1801561222957612f4f575b50612bd9565b612f6f9060203d8111612f76575b612f678183612359565b81019061329a565b505f612f49565b503d612f5d565b60405162461bcd60e51b815260206004820152602f60248201527f636f756c646e277420706572666f726d207472616e736974696f6e20666f722060448201526e756e6b6e6f776e2070726f6772616d60881b6064820152608490fd5b95509550955050505060208151910120906020810190613004612ffd8383612ac8565b9050612657565b935f5b6130118484612ac8565b90508110156130fd576130248484612ac8565b82101561259c5760608202019060405191803590818452606060208201916001600160401b0361305384612afd565b1660208701527fd8306a982f73c7ab90175899ff21dfdf55173bc8f7838be37e55a4e6f37b9fba82604083013597886040820152a1360312612234578360019460406130ac8151946130a48661230f565b868652612afd565b93846020820152015260405191602083019384526001600160401b0360c01b9060c01b1660408301526048820152604881526130e9606882612359565b5190206130f682896125b0565b5201613007565b50939150506040516020810181819360208151939101925f5b81811061315a575050613132925003601f198101835282612359565b5190206040519060208201928352604082015260408152613154606082612359565b51902090565b8451835260209485019486945090920191600101613116565b507fc5d2460186f7233c927e7db2dcc703c0e500b653ca82273b7bfad8045d85a470925050565b60405162461bcd60e51b815260206004820152603460248201527f636861696e436f6d6d69746d656e7420636f756c6420636f6e7461696e206174604482015273081b5bdcdd081bdb994818dbdb5b5a5d1b595b9d60621b6064820152608490fd5b903590601e198136030182121561223457018035906001600160401b03821161223457602001918160061b3603831361223457565b3580151581036122345790565b3590811515820361223457565b602080612568928195946040519682889351918291018585015e8201908382015203018085520183612359565b903590605e1981360301821215612234570190565b9190820180921161242f57565b90816020910312612234575180151581036122345790565b60a0820160016132c28285612a93565b905011613692576132d38184612a93565b90501561366b576132e49083612a93565b1561259c57803590607e1981360301821215612234570191606083019065ffffffffffff61331183612644565b161561361a5765ffffffffffff80613334602061332d86612644565b9401612644565b16911610156135bb576007820154600690920180548435946001600160a01b0394851694604082019391925f9160209116604461337d836133758989613278565b01358b61328d565b604051948593849263095ea7b360e01b84528c600485015260248401525af180156122295761359e575b505460405163394f179b60e11b81526001600160a01b03909116600482015260248101959095526020818101356044870152856064815f885af1948515612229575f95613566575b50906133fa91613278565b9161340482612644565b9260405193637fbe95b560e01b85526040600486015260a48501918035601e1982360301811215612234578101602081359101936001600160401b038211612234578160061b360385136122345760606044890152819052869360c485019392915f5b81811061352e57505050836020959365ffffffffffff829484895f960135606486015261349d604060018060a01b0392016122be565b16608485015216602483015203925af1918215612229575f926134f8575b506134c590612644565b6040519160208301938452604083015265ffffffffffff60d01b9060d01b16606082015260468152613154606682612359565b9091506020813d602011613526575b8161351460209383612359565b810103126122345751906134c56134bb565b3d9150613507565b919550919293604080600192838060a01b036135498a6122be565b168152602089013560208201520196019101918895949392613467565b919094506020823d602011613596575b8161358360209383612359565b81010312612234579051936133fa6133ef565b3d9150613576565b6135b69060203d602011612f7657612f678183612359565b6133a7565b60405162461bcd60e51b815260206004820152603160248201527f7265776172647320636f6d6d69746d656e742074696d657374616d70206d75736044820152701d08189948199bdc881d1a19481c185cdd607a1b6064820152608490fd5b60405162461bcd60e51b8152602060048201526024808201527f7265776172647320636f6d6d69746d656e742074696d657374616d70206973206044820152637a65726f60e01b6064820152608490fd5b5050507fc5d2460186f7233c927e7db2dcc703c0e500b653ca82273b7bfad8045d85a47090565b608460405162461bcd60e51b815260206004820152604060248201527f7265776172647320636f6d6d69746d656e74206d75737420626520656d70747960448201527f206f7220636f6e7461696e73206f6e6c79206f6e6520636f6d6d69746d656e746064820152fd5b903590601e198136030182121561223457018035906001600160401b0382116122345760200191813603831361223457565b9060c08101600161373f8284612a93565b905011613a76576137508183612a93565b90501561366b5761376091612a93565b1561259c57803590609e1981360301821215612234570165ffffffffffff600283015460201c16906137928242612422565b6137a160168501548092612443565b926080830135936001810180911161242f578403613a1e576137c6846137cc93612780565b9061328d565b926137db601782015485612422565b42106139d9576137ea90613f27565b924260058501541015613979577f41e7f919bf726af8aa2ef36bd31905a693013e30c45c6284060e613d4941997b60208261386a6138549460408701986138318a896136fc565b6138648a61385c6060829c959c019b61384a8d84612a93565b9690933690612461565b943691612489565b9336916124e5565b92612793565b604051908152a160a0823603126122345760405193608085018581106001600160401b0382111761232a576040526138a23684612461565b8552356001600160401b03811161223457820136601f82011215612234576138d1903690602081359101612489565b602085015235906001600160401b038211612234570136601f82011215612234576139039036906020813591016124e5565b91826040820152816060820152519160208351930151906040519283926020840195865260408401526060830160208351919301905f5b818110613957575050508152038082526131549060200182612359565b82516001600160a01b031685528695506020948501949092019160010161393a565b60405162461bcd60e51b815260206004820152603260248201527f6c6f6f6b73206c696b652076616c696461746f727320666f72206e65787420656044820152711c9848185c9948185b1c9958591e481cd95d60721b6064820152608490fd5b60405162461bcd60e51b815260206004820152601b60248201527f656c656374696f6e206973206e6f7420796574207374617274656400000000006044820152606490fd5b60405162461bcd60e51b815260206004820152602a60248201527f636f6d6d69746d656e742065726120696e646578206973206e6f74206e657874604482015269040cae4c240d2dcc8caf60b31b6064820152608490fd5b60405162461bcd60e51b815260206004820152604360248201527f76616c696461746f727320636f6d6d69746d656e74206d75737420626520656d60448201527f707479206f7220636f6e7461696e73206f6e6c79206f6e6520636f6d6d69746d606482015262195b9d60ea1b608482015260a490fd5b909493919365ffffffffffff600283015460201c16613b23613b2e613b28613b158442612422565b601687015493848092612443565b612780565b8361328d565b918284108080613e80575b15613e0e57508310613dc957613b4f908361328d565b10613d7857613b5f905b82613eb8565b94601960f81b5f523060601b60025260165260365f2093600281101561223e5780613c6f57505060018103613c2a571561259c57613ba081613ba7926136fc565b3691612489565b916060835103613bd557826020613bd294015160606040830151920151926001815491015490613f42565b90565b60405162461bcd60e51b815260206004820152602760248201527f46524f5354207369676e6174757265206c656e677468206d75737420626520396044820152663620627974657360c81b6064820152608490fd5b60405162461bcd60e51b815260206004820152601e60248201527f46524f5354207369676e6174757265206d7573742062652073696e676c6500006044820152606490fd5b919391600114613c825750505050505f90565b613c9c9061ffff6008600488979801549201541690613e96565b925f9260035f9201915b86811015613d6d57613cd5613ccc613cc6613ba08460051b8601866136fc565b866141eb565b90929192614225565b6001600160a01b0381165f9081526020859052604090205460ff16613d00575b506001905b01613ca6565b6001600160a01b03165f9081527ff02b465737fa6045c2ff53fb2df43c66916ac2166fa303264668fb2f6a1d8c0060205260409020805c15613d455750600190613cfa565b946001613d5392965d6126fa565b93858514613d61575f613cf5565b50505050505050600190565b505050505050505f90565b60405162461bcd60e51b8152602060048201526024808201527f74696d657374616d70206973206f6c646572207468616e2070726576696f75736044820152632065726160e01b6064820152608490fd5b60405162461bcd60e51b815260206004820152601e60248201527f63616e6e6f742076616c6964617465206265666f72652067656e6573697300006044820152606490fd5b9392915050428211613e3157613b5f92613e29575b50613b59565b90505f613e23565b60405162461bcd60e51b815260206004820152602160248201527f74696d657374616d702063616e6e6f7420626520696e207468652066757475726044820152606560f81b6064820152608490fd5b50613e8f60188701548561328d565b4210613b39565b61ffff613ea4921690612780565b61270f810180911161242f57612710900490565b90613ec39082614102565b15613ece57600f0190565b60090190565b60ff5f51602061436b5f395f51905f525460401c1615613ef057565b631afcd79f60e31b5f5260045ffd5b356001600160801b03811681036122345790565b35906001600160801b038216820361223457565b613f314282614102565b15613f3c5760090190565b600f0190565b9293919490613f518587614285565b156140f85782156140f85770014551231950b75fc4402da1732fc9bebe198310156140f8576001169061010e6040519161012083018381106001600160401b038211176122345760405260883684376002600188160160888401538760898401526002840160a984015360aa830186905260ca8301527e300046524f53542d736563703235366b312d4b454343414b3235362d76316360ea8301526303430b6160e51b61010a830152812060cc820181815290600260ec84016001815360428420809318845253604270014551231950b75fc4402da1732fc9bebe19922060801c6001600160401b0360801b8260801b16179070014551231950b75fc4402da1732fc9bebe1990600160c01b9060401c09088015613d6d5784601b6080945f9660209870014551231950b75fc4402da1732fc9bebe19910970014551231950b75fc4402da1732fc9bebe19038552018684015280604084015270014551231950b75fc4402da1732fc9bebe19910970014551231950b75fc4402da1732fc9bebe1903606082015282805260015afa505f51915f5260205260018060a01b0360405f20161490565b5050505050505f90565b906014600e8301549201548083146141a7578181841093119182159111159181906141a0575b1561413d578261413757505090565b14919050565b60405162461bcd60e51b815260206004820152603560248201527f636f756c64206e6f74206964656e746966792076616c696461746f727320666f6044820152740722074686520676976656e2074696d657374616d7605c1b6064820152608490fd5b5081614128565b606460405162461bcd60e51b815260206004820152602060248201527f657261732074696d657374616d70206d757374206e6f7420626520657175616c6044820152fd5b815191906041830361421b576142149250602082015190606060408401519301515f1a906142a8565b9192909190565b50505f9160029190565b600481101561223e5780614237575050565b6001810361424e5763f645eedf60e01b5f5260045ffd5b60028103614269575063fce698f760e01b5f5260045260245ffd5b6003146142735750565b6335e2f38360e21b5f5260045260245ffd5b6401000003d01990600790829081818009900908906401000003d0199080091490565b91907f7fffffffffffffffffffffffffffffff5d576e7357a4501ddfe92f46681b20a0841161431f579160209360809260ff5f9560405194855216868401526040830152606082015282805260015afa15612229575f516001600160a01b0381161561431557905f905f90565b505f906001905f90565b5050505f916003919056fe9016d09d72d40fdae2fd8ceac6b6234c7706214fd39c1cd1e609a0528c1993005c09ca1b9b8127a4fd9f3c384aac59b661441e820e17733753ff5f2e86e1e000f0c57e16840df040f15088dc2f81fe391c3923bec73e23a9662efc9c229c6a00f0c57e16840df040f15088dc2f81fe391c3923bec73e23a9662efc9c229c6a00","linkReferences":{}},"methodIdentifiers":{"areValidators(address[])":"8f381dbe","codeState(bytes32)":"c13911e8","codesStates(bytes32[])":"82bdeaad","commitBatch((bytes32,uint48,bytes32,((address,bytes32,bool,address,uint128,(bytes32,address,uint128)[],(bytes32,address,bytes,uint128,(bytes32,bytes4),bool)[])[],(bytes32,uint64,bytes32)[])[],(bytes32,bool)[],((uint256,bytes32),((address,uint256)[],uint256,address),uint48)[],((uint256,uint256),bytes,address[],uint256)[]),uint8,bytes[])":"aa28e0f2","computeSettings()":"84d22a4f","createProgram(bytes32,bytes32,address)":"3683c4d2","createProgramWithAbiInterface(bytes32,bytes32,address,address)":"0c18d277","genesisBlockHash()":"28e24b3d","genesisTimestamp()":"cacf66ab","initialize(address,address,address,address,uint256,uint256,uint256,(uint256,uint256),bytes,address[])":"53f7fd48","isValidator(address)":"facd743b","latestCommittedBatchHash()":"71a8cf2d","latestCommittedBatchTimestamp()":"d456fd51","lookupGenesisHash()":"8b1edf1e","mirrorImpl()":"e6fabc09","owner()":"8da5cb5b","programCodeId(address)":"9067088e","programsCodeIds(address[])":"baaf0201","programsCount()":"96a2ddfa","reinitialize()":"6c2eb350","renounceOwnership()":"715018a6","requestCodeValidation(bytes32)":"120e3f1e","setMirror(address)":"3d43b418","signingThresholdPercentage()":"efd81abc","transferOwnership(address)":"f2fde38b","validatedCodesCount()":"007a32e7","validators()":"ca1e7819","validatorsAggregatedPublicKey()":"3bd109fa","validatorsCount()":"ed612f8c","validatorsThreshold()":"edc87225","validatorsVerifiableSecretSharingCommitment()":"a5d53a44","wrappedVara()":"88f50cf0"},"storageLayout":{"storage":[],"types":{}},"id":165}