{"abi":[{"type":"constructor","inputs":[],"stateMutability":"nonpayable"},{"type":"receive","stateMutability":"payable"},{"type":"function","name":"areValidators","inputs":[{"name":"_validators","type":"address[]","internalType":"address[]"}],"outputs":[{"name":"","type":"bool","internalType":"bool"}],"stateMutability":"view"},{"type":"function","name":"codeState","inputs":[{"name":"_codeId","type":"bytes32","internalType":"bytes32"}],"outputs":[{"name":"","type":"uint8","internalType":"enum Gear.CodeState"}],"stateMutability":"view"},{"type":"function","name":"codesStates","inputs":[{"name":"_codesIds","type":"bytes32[]","internalType":"bytes32[]"}],"outputs":[{"name":"","type":"uint8[]","internalType":"enum Gear.CodeState[]"}],"stateMutability":"view"},{"type":"function","name":"commitBatch","inputs":[{"name":"_batch","type":"tuple","internalType":"struct Gear.BatchCommitment","components":[{"name":"blockHash","type":"bytes32","internalType":"bytes32"},{"name":"blockTimestamp","type":"uint48","internalType":"uint48"},{"name":"previousCommittedBatchHash","type":"bytes32","internalType":"bytes32"},{"name":"expiry","type":"uint8","internalType":"uint8"},{"name":"chainCommitment","type":"tuple[]","internalType":"struct Gear.ChainCommitment[]","components":[{"name":"transitions","type":"tuple[]","internalType":"struct Gear.StateTransition[]","components":[{"name":"actorId","type":"address","internalType":"address"},{"name":"newStateHash","type":"bytes32","internalType":"bytes32"},{"name":"exited","type":"bool","internalType":"bool"},{"name":"inheritor","type":"address","internalType":"address"},{"name":"valueToReceive","type":"uint128","internalType":"uint128"},{"name":"valueToReceiveNegativeSign","type":"bool","internalType":"bool"},{"name":"valueClaims","type":"tuple[]","internalType":"struct Gear.ValueClaim[]","components":[{"name":"messageId","type":"bytes32","internalType":"bytes32"},{"name":"destination","type":"address","internalType":"address"},{"name":"value","type":"uint128","internalType":"uint128"}]},{"name":"messages","type":"tuple[]","internalType":"struct Gear.Message[]","components":[{"name":"id","type":"bytes32","internalType":"bytes32"},{"name":"destination","type":"address","internalType":"address"},{"name":"payload","type":"bytes","internalType":"bytes"},{"name":"value","type":"uint128","internalType":"uint128"},{"name":"replyDetails","type":"tuple","internalType":"struct Gear.ReplyDetails","components":[{"name":"to","type":"bytes32","internalType":"bytes32"},{"name":"code","type":"bytes4","internalType":"bytes4"}]},{"name":"call","type":"bool","internalType":"bool"}]}]},{"name":"head","type":"bytes32","internalType":"bytes32"}]},{"name":"codeCommitments","type":"tuple[]","internalType":"struct Gear.CodeCommitment[]","components":[{"name":"id","type":"bytes32","internalType":"bytes32"},{"name":"valid","type":"bool","internalType":"bool"}]},{"name":"rewardsCommitment","type":"tuple[]","internalType":"struct Gear.RewardsCommitment[]","components":[{"name":"operators","type":"tuple","internalType":"struct Gear.OperatorRewardsCommitment","components":[{"name":"amount","type":"uint256","internalType":"uint256"},{"name":"root","type":"bytes32","internalType":"bytes32"}]},{"name":"stakers","type":"tuple","internalType":"struct Gear.StakerRewardsCommitment","components":[{"name":"distribution","type":"tuple[]","internalType":"struct Gear.StakerRewards[]","components":[{"name":"vault","type":"address","internalType":"address"},{"name":"amount","type":"uint256","internalType":"uint256"}]},{"name":"totalAmount","type":"uint256","internalType":"uint256"},{"name":"token","type":"address","internalType":"address"}]},{"name":"timestamp","type":"uint48","internalType":"uint48"}]},{"name":"validatorsCommitment","type":"tuple[]","internalType":"struct Gear.ValidatorsCommitment[]","components":[{"name":"aggregatedPublicKey","type":"tuple","internalType":"struct Gear.AggregatedPublicKey","components":[{"name":"x","type":"uint256","internalType":"uint256"},{"name":"y","type":"uint256","internalType":"uint256"}]},{"name":"verifiableSecretSharingCommitment","type":"bytes","internalType":"bytes"},{"name":"validators","type":"address[]","internalType":"address[]"},{"name":"eraIndex","type":"uint256","internalType":"uint256"}]}]},{"name":"_signatureType","type":"uint8","internalType":"enum Gear.SignatureType"},{"name":"_signatures","type":"bytes[]","internalType":"bytes[]"}],"outputs":[],"stateMutability":"nonpayable"},{"type":"function","name":"computeSettings","inputs":[],"outputs":[{"name":"","type":"tuple","internalType":"struct Gear.ComputationSettings","components":[{"name":"threshold","type":"uint64","internalType":"uint64"},{"name":"wvaraPerSecond","type":"uint128","internalType":"uint128"}]}],"stateMutability":"view"},{"type":"function","name":"createProgram","inputs":[{"name":"_codeId","type":"bytes32","internalType":"bytes32"},{"name":"_salt","type":"bytes32","internalType":"bytes32"},{"name":"_overrideInitializer","type":"address","internalType":"address"}],"outputs":[{"name":"","type":"address","internalType":"address"}],"stateMutability":"nonpayable"},{"type":"function","name":"createProgramWithAbiInterface","inputs":[{"name":"_codeId","type":"bytes32","internalType":"bytes32"},{"name":"_salt","type":"bytes32","internalType":"bytes32"},{"name":"_overrideInitializer","type":"address","internalType":"address"},{"name":"_abiInterface","type":"address","internalType":"address"}],"outputs":[{"name":"","type":"address","internalType":"address"}],"stateMutability":"nonpayable"},{"type":"function","name":"genesisBlockHash","inputs":[],"outputs":[{"name":"","type":"bytes32","internalType":"bytes32"}],"stateMutability":"view"},{"type":"function","name":"genesisTimestamp","inputs":[],"outputs":[{"name":"","type":"uint48","internalType":"uint48"}],"stateMutability":"view"},{"type":"function","name":"initialize","inputs":[{"name":"_owner","type":"address","internalType":"address"},{"name":"_mirror","type":"address","internalType":"address"},{"name":"_wrappedVara","type":"address","internalType":"address"},{"name":"_middleware","type":"address","internalType":"address"},{"name":"_eraDuration","type":"uint256","internalType":"uint256"},{"name":"_electionDuration","type":"uint256","internalType":"uint256"},{"name":"_validationDelay","type":"uint256","internalType":"uint256"},{"name":"_aggregatedPublicKey","type":"tuple","internalType":"struct Gear.AggregatedPublicKey","components":[{"name":"x","type":"uint256","internalType":"uint256"},{"name":"y","type":"uint256","internalType":"uint256"}]},{"name":"_verifiableSecretSharingCommitment","type":"bytes","internalType":"bytes"},{"name":"_validators","type":"address[]","internalType":"address[]"}],"outputs":[],"stateMutability":"nonpayable"},{"type":"function","name":"isValidator","inputs":[{"name":"_validator","type":"address","internalType":"address"}],"outputs":[{"name":"","type":"bool","internalType":"bool"}],"stateMutability":"view"},{"type":"function","name":"latestCommittedBatchHash","inputs":[],"outputs":[{"name":"","type":"bytes32","internalType":"bytes32"}],"stateMutability":"view"},{"type":"function","name":"latestCommittedBatchTimestamp","inputs":[],"outputs":[{"name":"","type":"uint48","internalType":"uint48"}],"stateMutability":"view"},{"type":"function","name":"lookupGenesisHash","inputs":[],"outputs":[],"stateMutability":"nonpayable"},{"type":"function","name":"middleware","inputs":[],"outputs":[{"name":"","type":"address","internalType":"address"}],"stateMutability":"view"},{"type":"function","name":"mirrorImpl","inputs":[],"outputs":[{"name":"","type":"address","internalType":"address"}],"stateMutability":"view"},{"type":"function","name":"owner","inputs":[],"outputs":[{"name":"","type":"address","internalType":"address"}],"stateMutability":"view"},{"type":"function","name":"programCodeId","inputs":[{"name":"_programId","type":"address","internalType":"address"}],"outputs":[{"name":"","type":"bytes32","internalType":"bytes32"}],"stateMutability":"view"},{"type":"function","name":"programsCodeIds","inputs":[{"name":"_programsIds","type":"address[]","internalType":"address[]"}],"outputs":[{"name":"","type":"bytes32[]","internalType":"bytes32[]"}],"stateMutability":"view"},{"type":"function","name":"programsCount","inputs":[],"outputs":[{"name":"","type":"uint256","internalType":"uint256"}],"stateMutability":"view"},{"type":"function","name":"reinitialize","inputs":[],"outputs":[],"stateMutability":"nonpayable"},{"type":"function","name":"renounceOwnership","inputs":[],"outputs":[],"stateMutability":"nonpayable"},{"type":"function","name":"requestCodeValidation","inputs":[{"name":"_codeId","type":"bytes32","internalType":"bytes32"}],"outputs":[],"stateMutability":"nonpayable"},{"type":"function","name":"setMirror","inputs":[{"name":"newMirror","type":"address","internalType":"address"}],"outputs":[],"stateMutability":"nonpayable"},{"type":"function","name":"signingThresholdFraction","inputs":[],"outputs":[{"name":"","type":"uint128","internalType":"uint128"},{"name":"","type":"uint128","internalType":"uint128"}],"stateMutability":"view"},{"type":"function","name":"timelines","inputs":[],"outputs":[{"name":"","type":"tuple","internalType":"struct Gear.Timelines","components":[{"name":"era","type":"uint256","internalType":"uint256"},{"name":"election","type":"uint256","internalType":"uint256"},{"name":"validationDelay","type":"uint256","internalType":"uint256"}]}],"stateMutability":"view"},{"type":"function","name":"transferOwnership","inputs":[{"name":"newOwner","type":"address","internalType":"address"}],"outputs":[],"stateMutability":"nonpayable"},{"type":"function","name":"validatedCodesCount","inputs":[],"outputs":[{"name":"","type":"uint256","internalType":"uint256"}],"stateMutability":"view"},{"type":"function","name":"validators","inputs":[],"outputs":[{"name":"","type":"address[]","internalType":"address[]"}],"stateMutability":"view"},{"type":"function","name":"validatorsAggregatedPublicKey","inputs":[],"outputs":[{"name":"","type":"tuple","internalType":"struct Gear.AggregatedPublicKey","components":[{"name":"x","type":"uint256","internalType":"uint256"},{"name":"y","type":"uint256","internalType":"uint256"}]}],"stateMutability":"view"},{"type":"function","name":"validatorsCount","inputs":[],"outputs":[{"name":"","type":"uint256","internalType":"uint256"}],"stateMutability":"view"},{"type":"function","name":"validatorsThreshold","inputs":[],"outputs":[{"name":"","type":"uint256","internalType":"uint256"}],"stateMutability":"view"},{"type":"function","name":"validatorsVerifiableSecretSharingCommitment","inputs":[],"outputs":[{"name":"","type":"bytes","internalType":"bytes"}],"stateMutability":"view"},{"type":"function","name":"wrappedVara","inputs":[],"outputs":[{"name":"","type":"address","internalType":"address"}],"stateMutability":"view"},{"type":"event","name":"AnnouncesCommitted","inputs":[{"name":"head","type":"bytes32","indexed":false,"internalType":"bytes32"}],"anonymous":false},{"type":"event","name":"BatchCommitted","inputs":[{"name":"hash","type":"bytes32","indexed":false,"internalType":"bytes32"}],"anonymous":false},{"type":"event","name":"CodeGotValidated","inputs":[{"name":"codeId","type":"bytes32","indexed":false,"internalType":"bytes32"},{"name":"valid","type":"bool","indexed":true,"internalType":"bool"}],"anonymous":false},{"type":"event","name":"CodeValidationRequested","inputs":[{"name":"codeId","type":"bytes32","indexed":false,"internalType":"bytes32"}],"anonymous":false},{"type":"event","name":"ComputationSettingsChanged","inputs":[{"name":"threshold","type":"uint64","indexed":false,"internalType":"uint64"},{"name":"wvaraPerSecond","type":"uint128","indexed":false,"internalType":"uint128"}],"anonymous":false},{"type":"event","name":"Initialized","inputs":[{"name":"version","type":"uint64","indexed":false,"internalType":"uint64"}],"anonymous":false},{"type":"event","name":"OwnershipTransferred","inputs":[{"name":"previousOwner","type":"address","indexed":true,"internalType":"address"},{"name":"newOwner","type":"address","indexed":true,"internalType":"address"}],"anonymous":false},{"type":"event","name":"ProgramCreated","inputs":[{"name":"actorId","type":"address","indexed":false,"internalType":"address"},{"name":"codeId","type":"bytes32","indexed":true,"internalType":"bytes32"}],"anonymous":false},{"type":"event","name":"StorageSlotChanged","inputs":[],"anonymous":false},{"type":"event","name":"ValidatorsCommittedForEra","inputs":[{"name":"eraIndex","type":"uint256","indexed":false,"internalType":"uint256"}],"anonymous":false},{"type":"error","name":"ECDSAInvalidSignature","inputs":[]},{"type":"error","name":"ECDSAInvalidSignatureLength","inputs":[{"name":"length","type":"uint256","internalType":"uint256"}]},{"type":"error","name":"ECDSAInvalidSignatureS","inputs":[{"name":"s","type":"bytes32","internalType":"bytes32"}]},{"type":"error","name":"InvalidInitialization","inputs":[]},{"type":"error","name":"NotInitializing","inputs":[]},{"type":"error","name":"OwnableInvalidOwner","inputs":[{"name":"owner","type":"address","internalType":"address"}]},{"type":"error","name":"OwnableUnauthorizedAccount","inputs":[{"name":"account","type":"address","internalType":"address"}]},{"type":"error","name":"ReentrancyGuardReentrantCall","inputs":[]}],"bytecode":{"object":"0x6080806040523460aa575f5160206145ba5f395f51905f525460ff8160401c16609b576002600160401b03196001600160401b038216016049575b60405161450b90816100af8239f35b6001600160401b0319166001600160401b039081175f5160206145ba5f395f51905f525581527fc7f505b2f371ae2175ee4913f4499e1f2633a7b5936321eed1cdaeb6115181d290602090a15f80603a565b63f92ee8a960e01b5f5260045ffd5b5f80fdfe608080604052600436101561010a575b50361561001a575f80fd5b5f5160206144cb5f395f51905f5254610038600182015415156125ae565b6001600160801b033416156100ba57335f908152601a9190910160205260409020541561006157005b60405162461bcd60e51b815260206004820152602b60248201527f636f756c646e277420726563656976652045746865722066726f6d20756e6b6e60448201526a6f776e2070726f6772616d60a81b6064820152608490fd5b60405162461bcd60e51b815260206004820152602260248201527f7a65726f2076616c7565207472616e73666572206973206e6f7420616c6c6f77604482015261195960f21b6064820152608490fd5b5f905f3560e01c9081627a32e714612486575080630c18d27714611f8e578063120e3f1e14611e0257806328e24b3d14611dd45780633683c4d214611b475780633bd109fa14611af85780633d43b41814611aa457806353f7fd48146115155780636c2eb350146111a3578063715018a61461113a57806371a8cf2d1461110c57806382bdeaad14610ff457806384d22a4f14610f8b57806388f50cf014610f525780638b1edf1e14610e875780638da5cb5b14610e525780638f381dbe14610e0c5780639067088e14610dc357806396a2ddfa14610d955780639eb939a814610d29578063a5d53a4414610cbb578063b24fcac014610682578063baaf020114610581578063c13911e81461053d578063ca1e7819146104ba578063cacf66ab14610482578063d456fd511461044c578063e3a6684f1461040d578063e6fabc09146103d4578063ed612f8c1461039c578063edc8722514610347578063f2fde38b1461031a578063f4f20ac0146102e15763facd743b0361000f57346102de5760203660031901126102de576102a06124dc565b60036102bb5f5160206144cb5f395f51905f52544290614010565b019060018060a01b03165f52602052602060ff60405f2054166040519015158152f35b80fd5b50346102de57806003193601126102de575f5160206144cb5f395f51905f5254600701546040516001600160a01b039091168152602090f35b50346102de5760203660031901126102de576103446103376124dc565b61033f612936565b6128b7565b80f35b50346102de57806003193601126102de5760206103945f5160206144cb5f395f51905f52546008600461037a4284614010565b0154910154906001600160801b038260801c921690613fe5565b604051908152f35b50346102de57806003193601126102de57602060046103ca5f5160206144cb5f395f51905f52544290614010565b0154604051908152f35b50346102de57806003193601126102de575f5160206144cb5f395f51905f5254600501546040516001600160a01b039091168152602090f35b50346102de57806003193601126102de57604060085f5160206144cb5f395f51905f525401548151906001600160801b038116825260801c6020820152f35b50346102de57806003193601126102de57602065ffffffffffff60045f5160206144cb5f395f51905f5254015416604051908152f35b50346102de57806003193601126102de57602065ffffffffffff60025f5160206144cb5f395f51905f52540154821c16604051908152f35b50346102de57806003193601126102de576104ef60046104e95f5160206144cb5f395f51905f52544290614010565b0161276d565b90604051918291602083016020845282518091526020604085019301915b81811061051b575050500390f35b82516001600160a01b031684528594506020938401939092019160010161050d565b50346102de5760203660031901126102de5760ff604060209260195f5160206144cb5f395f51905f5254016004358252845220541661057f6040518092612536565bf35b50346102de5760203660031901126102de576004356001600160401b03811161067e576105b2903690600401612506565b905f5160206144cb5f395f51905f5254906105cc83612702565b916105da604051938461258d565b8383526105e684612702565b602084019490601f1901368637601a869201915b81811061064557868587604051928392602084019060208552518091526040840192915b81811061062c575050500390f35b825184528594506020938401939092019160010161061e565b8061065b61065660019385886127c0565b6127f8565b828060a01b03165f528360205260405f205461067782886127e4565b52016105fa565b5080fd5b50346102de5760603660031901126102de576004356001600160401b03811161067e57806004019161010060031983360301126102de57600260243510156102de576044356001600160401b03811161067e576106e3903690600401612506565b9390917f9b779b17422d0df92223018b32b4d1fa46e071723d6817e2486d003becc55f005c610cac5760017f9b779b17422d0df92223018b32b4d1fa46e071723d6817e2486d003becc55f005d5f5160206144cb5f395f51905f52549161074f600184015415156125ae565b825415610bd2575b60038301908154916044870135809303610b7f57600485019765ffffffffffff89541696602489019765ffffffffffff6107908a6128a4565b1610610aff576107a584889b96999a9b612d09565b98606095879b8c9a60a482019860198c019c5b6107c28b8b61326a565b919050101561098a578e6107d68b8b61326a565b90911015610976578f60ff8f926040908f9360061b01928335948582526020522054166003811015610962576001036108ff5760408f918f928f93602083019461081f8661329f565b156108e757601c928782526020528481209050600260ff19825416179055016108488154612928565b90555b6108548361329f565b15157f460119a8f69a33ed127de517d5ea464e958ce23ef19e4420a8b92bf780bbc2c960208451878152a23603126108e357916108da9160206001946108a8604051916108a083612572565b8483526132ac565b91829101526040519060208201928352151560f81b6040820152602181526108d160418261258d565b519020906132b9565b9e019d8e6107b8565b8c80fd5b905083918682526020522060ff19815416905561084b565b60405162461bcd60e51b815260206004820152603560248201527f636f6465206d7573742062652072657175657374656420666f722076616c6964604482015274185d1a5bdb881d1bc818994818dbdb5b5a5d1d1959605a1b6064820152608490fd5b634e487b7160e01b8e52602160045260248efd5b634e487b7160e01b8c52603260045260248cfd5b8a9950926020610a8f998f948e9794610a849665ffffffffffff988581519101206109b5858c613308565b916109c0868d61381b565b936109d660646109cf8c6128a4565b9701612896565b9060405196898801983589528d60d01b9060d01b166040880152604687015260ff60f81b9060f81b1660668601526067850152608784015260a783015260c782015260c78152610a2760e78261258d565b5190208099610a35856128a4565b8760405191610a4383612572565b8483521693849101525584198254161790557f7ebe42360bcb182fe0a88148b081e4557c89d09aa6af8307635ac2f83e2aaa656020604051898152a16128a4565b169360243591613c3b565b15610aba57807f9b779b17422d0df92223018b32b4d1fa46e071723d6817e2486d003becc55f005d80f35b60405162461bcd60e51b815260206004820152601e60248201527f7369676e61747572657320766572696669636174696f6e206661696c656400006044820152606490fd5b60405162461bcd60e51b815260206004820152604c60248201527f62617463682074696d657374616d70206d75737420626520677265617465722060448201527f6f7220657175616c20746f206c617465737420636f6d6d69747465642062617460648201526b063682074696d657374616d760a41b608482015260a490fd5b60405162461bcd60e51b815260206004820152602560248201527f696e76616c69642070726576696f757320636f6d6d6974746564206261746368604482015264040d0c2e6d60db1b6064820152608490fd5b610be8610be160648701612896565b8235612c74565b15610c585765ffffffffffff610c00602487016128a4565b1642116107575760405162461bcd60e51b815260206004820152602360248201527f62617463682074696d657374616d70206d75737420626520696e207468652070604482015262185cdd60ea1b6064820152608490fd5b60405162461bcd60e51b815260206004820152602660248201527f616c6c6f776564207072656465636573736f7220626c6f636b207761736e277460448201526508199bdd5b9960d21b6064820152608490fd5b633ee5aeb560e01b8152600490fd5b50346102de57806003193601126102de576040610cfc5f5160206144cb5f395f51905f52546002610cf460018060a01b03924290614010565b015416612c45565b6020825193849282845280519283918282870152018585015e828201840152601f01601f19168101030190f35b50346102de57806003193601126102de57610d42612878565b5060605f5160206144cb5f395f51905f5254604051610d6081612543565b601682015491828252604060186017830154926020850193845201549201918252604051928352516020830152516040820152f35b50346102de57806003193601126102de576020601b5f5160206144cb5f395f51905f52540154604051908152f35b50346102de5760203660031901126102de57610ddd6124dc565b601a5f5160206144cb5f395f51905f5254019060018060a01b03165f52602052602060405f2054604051908152f35b50346102de5760203660031901126102de57600435906001600160401b0382116102de576020610e48610e423660048601612506565b9061280c565b6040519015158152f35b50346102de57806003193601126102de575f5160206144ab5f395f51905f52546040516001600160a01b039091168152602090f35b50346102de57806003193601126102de575f5160206144cb5f395f51905f525460018101908154610f0d576002015463ffffffff1640908115610ec8575580f35b60405162461bcd60e51b815260206004820152601d60248201527f756e61626c6520746f206c6f6f6b75702067656e6573697320686173680000006044820152606490fd5b60405162461bcd60e51b815260206004820152601860248201527f67656e65736973206861736820616c72656164792073657400000000000000006044820152606490fd5b50346102de57806003193601126102de575f5160206144cb5f395f51905f5254600601546040516001600160a01b039091168152602090f35b50346102de57806003193601126102de57610fa4612620565b50604060155f5160206144cb5f395f51905f5254016001600160801b03825191610fcd83612572565b548160206001600160401b038316948581520191851c168152835192835251166020820152f35b50346102de5760203660031901126102de576004356001600160401b03811161067e57611025903690600401612506565b905f5160206144cb5f395f51905f52549061103f83612702565b9161104d604051938461258d565b83835261105984612702565b602084019490601f19013686376019869201915b8181106110c257868587604051928392602084019060208552518091526040840192915b81811061109f575050500390f35b91935091602080826110b46001948851612536565b019401910191849392611091565b6110cd8183866127c0565b3587528260205260ff6040882054166110e682876127e4565b60038210156110f8575260010161106d565b634e487b7160e01b89526021600452602489fd5b50346102de57806003193601126102de57602060035f5160206144cb5f395f51905f52540154604051908152f35b50346102de57806003193601126102de57611153612936565b5f5160206144ab5f395f51905f5280546001600160a01b0319811690915581906001600160a01b03167f8be0079c531659141344cd1fd0a4f28419497f9722a3daafe3b4186f6b6457e08280a380f35b50346102de57806003193601126102de576111bc612936565b5f5160206144eb5f395f51905f525460ff8160401c16908115611500575b506114f1575f5160206144eb5f395f51905f52805468ffffffffffffffffff1916680100000000000000021790555f5160206144ab5f395f51905f5254611234906001600160a01b031661122c61402c565b61033f61402c565b5f5160206144cb5f395f51905f52546040908151611252838261258d565b6017815260208101907f726f757465722e73746f726167652e526f7574657256320000000000000000008252611286612936565b5190205f1981019081116114dd57916020917fc7f505b2f371ae2175ee4913f4499e1f2633a7b5936321eed1cdaeb6115181d2938251908482019081528482526112d0848361258d565b60ff19915190201690815f5160206144cb5f395f51905f52556112f1612969565b80516001840155600283019063ffffffff868201511669ffffffffffff00000000868454930151881b169169ffffffffffffffffffff19161717905560058101600583019080820361148f575b5050600881016001600160801b038154169060088401916001600160801b0319835416178255546001600160801b0382549181191691161790556113c76113854283614010565b61139c6001600160a01b036002610cf44287614010565b6113b260046113ab4287614010565b0192612638565b906113bd429361276d565b91600987016129b1565b60158101601583019080820361143d575b505060168101601683019181830361141d575b5050505060ff60401b195f5160206144eb5f395f51905f5254165f5160206144eb5f395f51905f52555160028152a180f35b60189283925490556017810154601785015501549101555f8080806113eb565b806001600160401b03806001600160801b03935416166001600160401b031984541617835554851c16600160401b600160c01b03825491861b1690600160401b600160c01b0319161790555f806113d8565b5481546001600160a01b03199081166001600160a01b039283161790925560068381015490850180548416918316919091179055600780840154908501805490931691161790555f8061133e565b634e487b7160e01b84526011600452602484fd5b63f92ee8a960e01b8152600490fd5b600291506001600160401b031610155f6111da565b50346102de576101603660031901126102de576115306124dc565b6024356001600160a01b0381169190829003611aa05761154e6124b0565b6115566124c6565b60c435916084359160a43560403660e3190112611a9c5761012435946001600160401b038611611a985736602387011215611a98578560040135916001600160401b038311611a94573660248489010111611a9457610144356001600160401b038111611a90576115cb903690600401612506565b9690945f5160206144eb5f395f51905f5254996001600160401b0360ff8c60401c16159b1680159081611a88575b6001149081611a7e575b159081611a75575b50611a665761164d908b60016001600160401b03195f5160206144eb5f395f51905f525416175f5160206144eb5f395f51905f5255611a36575b61122c61402c565b61165561402c565b42156119e057821561198a578282111561192957600a6116758484612656565b048410156118e45760409a8b5161168c8d8261258d565b6017815260208101907f726f757465722e73746f726167652e526f75746572563100000000000000000082526116c0612936565b5190205f1981019081116118d0578c51602080820192835281528d9392916116e8858361258d565b60ff19915190201698895f5160206144cb5f395f51905f5255611709612969565b805160018c015560028b0190602081015163ffffffff1686835492015160201b69ffffffffffff00000000169169ffffffffffffffffffff19161717905583519061175382612543565b8282526001600160a01b03908116602083018190529381169490910184905260058a018054919092166001600160a01b0319918216179091556006890180548216909217909155600788018054909116909117905570030000000000000000000000000000000260088701556117c7612620565b5089516117d381612572565b639502f90081526509184e72a0006020909101526015860180546001600160c01b0319166d09184e72a000000000009502f900179055895183908b9061181881612543565b838152846020820152015260168601556017850155601884015586519461183e86612572565b60e435865261010435602087015261185a9136916024016126bd565b904293369061186892612719565b9160090193611876946129b1565b61187e575080f35b60207fc7f505b2f371ae2175ee4913f4499e1f2633a7b5936321eed1cdaeb6115181d29160ff60401b195f5160206144eb5f395f51905f5254165f5160206144eb5f395f51905f52555160018152a180f35b634e487b7160e01b8e52601160045260248efd5b60405162461bcd60e51b815260206004820152601b60248201527f76616c69646174696f6e2064656c617920697320746f6f2062696700000000006044820152606490fd5b60405162461bcd60e51b815260206004820152603360248201527f657261206475726174696f6e206d757374206265206772656174657220746861604482015272371032b632b1ba34b7b710323ab930ba34b7b760691b6064820152608490fd5b60405162461bcd60e51b815260206004820152602860248201527f656c656374696f6e206475726174696f6e206d75737420626520677265617465604482015267072207468616e20360c41b6064820152608490fd5b60405162461bcd60e51b815260206004820152602860248201527f63757272656e742074696d657374616d70206d75737420626520677265617465604482015267072207468616e20360c41b6064820152608490fd5b600160401b60ff60401b195f5160206144eb5f395f51905f525416175f5160206144eb5f395f51905f5255611645565b63f92ee8a960e01b8d5260048dfd5b9050155f61160b565b303b159150611603565b8c91506115f9565b8a80fd5b8980fd5b8880fd5b8780fd5b8280fd5b50346102de5760203660031901126102de57611abe6124dc565b611ac6612936565b5f5160206144cb5f395f51905f525460050180546001600160a01b0319166001600160a01b0390921691909117905580f35b50346102de57806003193601126102de57611b11612620565b506040611b35611b305f5160206144cb5f395f51905f52544290614010565b612638565b60208251918051835201516020820152f35b50346102de5760603660031901126102de57600435611b646124b0565b5f5160206144cb5f395f51905f5254611b82600182015415156125ae565b8284526019810160205260ff6040852054166003811015611dc057600203611d64576040516020810190848252602435604082015260408152611bc660608261258d565b51902060405160608101908082106001600160401b03831117611d6057605a916040527f3d605080600a3d3981f3608060405263e6fabc0960e01b5f5260205f6004817381523060601b6b5afa15604c575f80805136821760208201527f80378136915af43d5f803e156048573d5ff35b3d5ffd5b5f80fd000000000000604082015286f5908115611d5c576001600160a01b0382165f908152601a820160205260409020849055601b018054611c7c90612928565b90556040516001600160a01b03821680825293907f8008ec1d8798725ebfa0f2d128d52e8e717dcba6e0f786557eeee70614b02bf190602090a2506001600160a01b038116611d575750335b5f5160206144cb5f395f51905f5254600501546001600160a01b0316823b15611d5357604051631c9776b560e31b81526001600160a01b039092166004830152602482015260016044820152828160648183865af18015611d4857611d33575b602082604051908152f35b611d3e83809261258d565b61067e5781611d28565b6040513d85823e3d90fd5b8380fd5b611cc8565b8480fd5b8680fd5b60405162461bcd60e51b815260206004820152602e60248201527f636f6465206d7573742062652076616c696461746564206265666f726520707260448201526d37b3b930b69031b932b0ba34b7b760911b6064820152608490fd5b634e487b7160e01b85526021600452602485fd5b50346102de57806003193601126102de57602060015f5160206144cb5f395f51905f52540154604051908152f35b50346102de5760203660031901126102de57600435814915611f125760195f5160206144cb5f395f51905f5254611e3e600182015415156125ae565b018183528060205260ff6040842054166003811015611efe57611e9d5781835260209081526040808420805460ff19166001179055519182527f5c261a095dd5720475295dc06379921c003c22164ee6cae5cf83e76ce0a1b98591a180f35b60405162461bcd60e51b815260206004820152603360248201527f676976656e20636f646520696420697320616c7265616479206f6e2076616c6960448201527219185d1a5bdb881bdc881d985b1a59185d1959606a1b6064820152608490fd5b634e487b7160e01b84526021600452602484fd5b60405162461bcd60e51b815260206004820152604860248201527f626c6f622063616e277420626520666f756e642c20726f75746572206578706560448201527f63746564204549502d34383434207472616e73616374696f6e2077697468205760648201526720a9a690313637b160c11b608482015260a490fd5b3461246857608036600319011261246857600435611faa6124b0565b90611fb36124c6565b915f5160206144cb5f395f51905f5254611fd2600182015415156125ae565b825f526019810160205260ff60405f205416600381101561247257600203611d6457604051602081019084825260243560408201526040815261201660608261258d565b5190206040516102c08101908082106001600160401b03831117612468576102b0916040527f60808060405261029e90816100128239f3fe608060405260043610610254575f81527f3560e01c806336a52a18146100ab57806342129d00146100a65780635ce6c32760208201527f146100a1578063701da98e1461009c578063704ed542146100975780637a8e0c60408201527fdd1461009257806391d5a64c1461008d5780639ce110d714610088578063affe60608201527fd0e0146100835763e43f3433036102545761023f565b610222565b6101fa565b60808201527f6101e4565b6101b1565b610181565b610165565b610143565b610106565b346160a08201527ed4575f3660031901126100d45760025460081c6001600160a01b031660809060c08201527f8152602090f35b5f80fd5b9181601f840112156100d45782359167ffffffffff60e08201527fffffff83116100d457602083818601950101116100d457565b604036600319016101008201527f126100d45760043567ffffffffffffffff81116100d4576101329036906004016101208201527f6100d8565b505060243580151514610254575f80fd5b346100d4575f366003196101408201527f01126100d457602060ff600254166040519015158152f35b346100d4575f36606101608201527f031901126100d45760205f54604051908152f35b346100d457602036600319016101808201527f126100d4576004356fffffffffffffffffffffffffffffffff811614610254576101a08201527f5f80fd5b60403660031901126100d45760243567ffffffffffffffff811161006101c08201527fd4576101dd9036906004016100d8565b5050610254565b346100d457602036606101e08201527f0319011215610254575f80fd5b346100d4575f3660031901126100d4576003546102008201527f6040516001600160a01b039091168152602090f35b346100d4575f36600319016102208201527f126100d4576020600154604051908152f35b346100d4575f36600319011215616102408201523060601c7f0254575f80fd5b63e6fabc0960e01b5f5260205f60048173000000000000000017610260820152735afa156100d4575f808051368280378136915af43060a01b176102808201526f3d5f803e1561029a573d5ff35b3d5ffd60801b6102a08201525ff5908115612468576001600160a01b0382165f908152601a820160205260409020849055601b0180546123ad90612928565b90556040516001600160a01b03821680825293907f8008ec1d8798725ebfa0f2d128d52e8e717dcba6e0f786557eeee70614b02bf190602090a2506001600160a01b03811661246c575033915b813b1561246857604051631c9776b560e31b81526001600160a01b039384166004820152921660248301525f604483018190528260648183855af191821561245d5760209261244d575b50604051908152f35b5f6124579161258d565b5f612444565b6040513d5f823e3d90fd5b5f80fd5b916123fa565b634e487b7160e01b5f52602160045260245ffd5b34612468575f36600319011261246857602090601c5f5160206144cb5f395f51905f525401548152f35b604435906001600160a01b038216820361246857565b606435906001600160a01b038216820361246857565b600435906001600160a01b038216820361246857565b35906001600160a01b038216820361246857565b9181601f84011215612468578235916001600160401b038311612468576020808501948460051b01011161246857565b9060038210156124725752565b606081019081106001600160401b0382111761255e57604052565b634e487b7160e01b5f52604160045260245ffd5b604081019081106001600160401b0382111761255e57604052565b90601f801991011681019081106001600160401b0382111761255e57604052565b156125b557565b60405162461bcd60e51b815260206004820152603860248201527f726f757465722067656e65736973206973207a65726f3b2063616c6c20606c6f60448201527f6f6b757047656e657369734861736828296020666972737400000000000000006064820152608490fd5b6040519061262d82612572565b5f6020838281520152565b9060405161264581612572565b602060018294805484520154910152565b9190820391821161266357565b634e487b7160e01b5f52601160045260245ffd5b8115612681570490565b634e487b7160e01b5f52601260045260245ffd5b9190826040910312612468576040516126ad81612572565b6020808294803584520135910152565b9291926001600160401b03821161255e57604051916126e6601f8201601f19166020018461258d565b829481845281830111612468578281602093845f960137010152565b6001600160401b03811161255e5760051b60200190565b92919061272581612702565b93612733604051958661258d565b602085838152019160051b810192831161246857905b82821061275557505050565b60208091612762846124f2565b815201910190612749565b90604051918281549182825260208201905f5260205f20925f5b81811061279e57505061279c9250038361258d565b565b84546001600160a01b0316835260019485019487945060209093019201612787565b91908110156127d05760051b0190565b634e487b7160e01b5f52603260045260245ffd5b80518210156127d05760209160051b010190565b356001600160a01b03811681036124685790565b6128255f5160206144cb5f395f51905f52544290614010565b600301905f5b83811061283b5750505050600190565b6128496106568286856127c0565b6001600160a01b03165f9081526020849052604090205460ff16156128705760010161282b565b505050505f90565b6040519061288582612543565b5f6040838281528260208201520152565b3560ff811681036124685790565b3565ffffffffffff811681036124685790565b6001600160a01b03168015612915575f5160206144ab5f395f51905f5280546001600160a01b0319811683179091556001600160a01b03167f8be0079c531659141344cd1fd0a4f28419497f9722a3daafe3b4186f6b6457e05f80a3565b631e4fbdf760e01b5f525f60045260245ffd5b5f1981146126635760010190565b5f5160206144ab5f395f51905f52546001600160a01b0316330361295657565b63118cdaa760e01b5f523360045260245ffd5b612971612878565b5060405161297e81612543565b5f815263ffffffff4316602082015265ffffffffffff4216604082015290565b8181029291811591840414171561266357565b9291908051906020810191825170014551231950b75fc4402da1732fc9bebe1982109182612c34575b505015612be05751845551600184015560405190612a1d6021836020808201945f86528051918291018484015e81015f838201520301601f19810184528361258d565b612a5a602b604051809360208201956a600b5981380380925939f360a81b87525180918484015e81015f838201520301601f19810183528261258d565b51905ff06001600160a01b03811615612ba7576002830180546001600160a01b0319166001600160a01b039092169190911790555f5b600483018054821015612ace575f90815260208082208301546001600160a01b0316825260038501905260409020805460ff19169055600101612a90565b5050925f5b8451811015612b17576001906001600160a01b03612af182886127e4565b5116828060a01b03165f526003840160205260405f208260ff1982541617905501612ad3565b5092600482018151916001600160401b03831161255e57600160401b831161255e578154838355808410612b81575b50602001905f5260205f205f5b838110612b64575050505060050155565b82516001600160a01b031681830155602090920191600101612b53565b825f528360205f2091820191015b818110612b9c5750612b46565b5f8155600101612b8f565b60405162461bcd60e51b81526020600482015260116024820152701111541313d65351539517d19052531151607a1b6044820152606490fd5b60405162461bcd60e51b815260206004820152602660248201527f46524f53542061676772656761746564207075626c6963206b657920697320696044820152651b9d985b1a5960d21b6064820152608490fd5b612c3e9250614405565b5f806129da565b803b905f198201908282116126635760019060405193603e601f19910116840160405282845260208401903c90565b435f19810193929084116126635760ff16438110612cc457505f925b83811015612ca0575b505f925050565b8040828103612cb25750600193505050565b15612cbf575f1901612c90565b612c99565b612cce9043612656565b92612c90565b903590601e198136030182121561246857018035906001600160401b03821161246857602001918160051b3603831361246857565b90608081016001612d1a8284612cd4565b90501161320857612d2b8183612cd4565b9050156131e157612d3b91612cd4565b156127d057803590603e1981360301821215612468570191612d5d8380612cd4565b92906060925f95601a60fe19843603019401945b8688101561317e578760051b84013585811215612468578401612d93816127f8565b6001600160a01b03165f9081526020889052604090205415613121575f608082016001600160801b03612dc582614057565b1615158061310e575b6130fd575b6001600160a01b03612de4846127f8565b604051630427a21d60e11b81526020600482015294911691610124850191906001600160801b0390612e63906001600160a01b03612e21856124f2565b16602489015260208401356044890152612e3d604085016132ac565b151560648901526001600160a01b03612e58606086016124f2565b16608489015261406b565b1660a4860152612e7560a082016132ac565b151560c486015236819003601e190160c082013581811215612468578201602081359101936001600160401b03821161246857606082023603851361246857819061010060e48a015252610144870193905f905b8082106130b35750505060e0820135908112156124685701803560208201926001600160401b038211612468578160051b9081360385136124685791879594936023198785030161010488015281845260208085019385010194935f9160fe19813603015b848410612fa65750505050505050602093916001600160801b03848093039316905af190811561245d575f91612f74575b50612f6c906001926132b9565b970196612d71565b90506020813d8211612f9e575b81612f8e6020938361258d565b8101031261246857516001612f5f565b3d9150612f81565b919395979850919395601f19848203018752873582811215612468578301602081013582526001600160a01b03612fdf604083016124f2565b1660208301526060810135603e193683900301811215612468578101602081013591906040016001600160401b03831161246857823603811361246857829060e060408601528160e08601526101008501375f61010083850101526001600160801b0361304e6080830161406b565b16606084015260a0810135608084015260c081013563ffffffff60e01b8116809103612468578360209361309060e086956101009560a060019a0152016132ac565b151560c0830152601f80199101160101990197019401918a989796959391612f2e565b90919460608060019288358152838060a01b036130d260208b016124f2565b1660208201526001600160801b036130ec60408b0161406b565b166040820152019601920190612ec9565b905061310881614057565b90612dd3565b5061311b60a0840161329f565b15612dce565b60405162461bcd60e51b815260206004820152602f60248201527f636f756c646e277420706572666f726d207472616e736974696f6e20666f722060448201526e756e6b6e6f776e2070726f6772616d60881b6064820152608490fd5b93509450945050602091508181519101209101357fd04cd9af813f6f0b56e9411a6ee6a84eb5ac35a96f0c33d2e3a07d65baa8f4186020604051838152a160405190602082019283526040820152604081526131db60608261258d565b51902090565b5050507fc5d2460186f7233c927e7db2dcc703c0e500b653ca82273b7bfad8045d85a47090565b60405162461bcd60e51b815260206004820152603460248201527f636861696e436f6d6d69746d656e7420636f756c6420636f6e7461696e206174604482015273081b5bdcdd081bdb994818dbdb5b5a5d1b595b9d60621b6064820152608490fd5b903590601e198136030182121561246857018035906001600160401b03821161246857602001918160061b3603831361246857565b3580151581036124685790565b3590811515820361246857565b60208061279c928195946040519682889351918291018585015e820190838201520301808552018361258d565b903590605e1981360301821215612468570190565b9190820180921161266357565b60c0820160016133188285612cd4565b90501161377f576133298184612cd4565b9050156131e15761333a9083612cd4565b156127d057803590607e198136030182121561246857019160608301906020613362836128a4565b91019065ffffffffffff80613376846128a4565b169116101561372057613388826128a4565b65ffffffffffff80600286015460201c169116106136c5576133ce65ffffffffffff6133c76133c1826133ba876128a4565b168761407f565b936128a4565b168461407f565b111561366c576007820154600690920180548435946001600160a01b0394851694604082019391925f916020911660446134148361340c89896132e6565b01358b6132fb565b604051948593849263095ea7b360e01b84528c600485015260248401525af1801561245d57613635575b505460405163394f179b60e11b81526001600160a01b03909116600482015260248101959095526020818101356044870152856064815f885af194851561245d575f956135fd575b5090613491916132e6565b9161349b826128a4565b9260405193637fbe95b560e01b85526040600486015260a48501918035601e1982360301811215612468578101602081359101936001600160401b038211612468578160061b360385136124685760606044890152819052869360c485019392915f5b8181106135c557505050836020959365ffffffffffff829484895f9601356064860152613534604060018060a01b0392016124f2565b16608485015216602483015203925af191821561245d575f9261358f575b5061355c906128a4565b6040519160208301938452604083015265ffffffffffff60d01b9060d01b166060820152604681526131db60668261258d565b9091506020813d6020116135bd575b816135ab6020938361258d565b8101031261246857519061355c613552565b3d915061359e565b919550919293604080600192838060a01b036135e08a6124f2565b1681526020890135602082015201960191019188959493926134fe565b919094506020823d60201161362d575b8161361a6020938361258d565b8101031261246857905193613491613486565b3d915061360d565b6020813d602011613664575b8161364e6020938361258d565b810103126124685751801515811461343e575f80fd5b3d9150613641565b60405162461bcd60e51b815260206004820152602b60248201527f7265776172647320636f6d6d69746d656e74206d75737420746172676574207060448201526a726576696f75732065726160a81b6064820152608490fd5b60405162461bcd60e51b815260206004820152602d60248201527f7265776172647320636f6d6d69746d656e742074696d657374616d702070726560448201526c64617465732067656e6573697360981b6064820152608490fd5b60405162461bcd60e51b815260206004820152603160248201527f7265776172647320636f6d6d69746d656e742074696d657374616d70206d75736044820152701d08189948199bdc881d1a19481c185cdd607a1b6064820152608490fd5b608460405162461bcd60e51b815260206004820152604060248201527f7265776172647320636f6d6d69746d656e74206d75737420626520656d70747960448201527f206f7220636f6e7461696e73206f6e6c79206f6e6520636f6d6d69746d656e746064820152fd5b903590601e198136030182121561246857018035906001600160401b0382116124685760200191813603831361246857565b9060e08101600161382c8284612cd4565b905011613bc45761383d8183612cd4565b9050156131e15761384d91612cd4565b156127d057803590609e1981360301821215612468570160608101906138738282612cd4565b905015613b715765ffffffffffff600284015460201c16916138958342612656565b6138a460168601548092612677565b9360808401359460018101809111612663578503613b19576138c9856138cf9361299e565b906132fb565b936138de601782015486612656565b4210613ad4576138ed906140a7565b934260058601541015613a745761394290604084019561393461393c61391389886137e9565b919061391f888a612cd4565b94909161392c368c612695565b9436916126bd565b933691612719565b926129b1565b7fa1a3b42179ad30022438a1ea333b38eaf4a7329beee5e2b8111c0dcd4e08821c6020604051858152a160a0823603126124685760405193608085018581106001600160401b0382111761255e5760405261399d3684612695565b8552356001600160401b03811161246857820136601f82011215612468576139cc9036906020813591016126bd565b602085015235906001600160401b038211612468570136601f82011215612468576139fe903690602081359101612719565b91826040820152816060820152519160208351930151906040519283926020840195865260408401526060830160208351919301905f5b818110613a52575050508152038082526131db906020018261258d565b82516001600160a01b0316855286955060209485019490920191600101613a35565b60405162461bcd60e51b815260206004820152603260248201527f6c6f6f6b73206c696b652076616c696461746f727320666f72206e65787420656044820152711c9848185c9948185b1c9958591e481cd95d60721b6064820152608490fd5b60405162461bcd60e51b815260206004820152601b60248201527f656c656374696f6e206973206e6f7420796574207374617274656400000000006044820152606490fd5b60405162461bcd60e51b815260206004820152602a60248201527f636f6d6d69746d656e742065726120696e646578206973206e6f74206e657874604482015269040cae4c240d2dcc8caf60b31b6064820152608490fd5b60405162461bcd60e51b815260206004820152602560248201527f6e65772076616c696461746f7273206c697374206d757374206e6f7420626520604482015264656d70747960d81b6064820152608490fd5b60405162461bcd60e51b815260206004820152604360248201527f76616c696461746f727320636f6d6d69746d656e74206d75737420626520656d60448201527f707479206f7220636f6e7461696e73206f6e6c79206f6e6520636f6d6d69746d606482015262195b9d60ea1b608482015260a490fd5b909493919365ffffffffffff600283015460201c16613c5a428461407f565b613c72613c6c6016860154809361299e565b836132fb565b918284108080613fcf575b15613f5d57508310613f1857613c9390836132fb565b10613ec757613ca3905b82614010565b94601960f81b5f523060601b60025260165260365f209360028110156124725780613db357505060018103613d6e57156127d057613ce481613ceb926137e9565b36916126bd565b916060835103613d1957826020613d16940151606060408301519201519260018154910154906140c2565b90565b60405162461bcd60e51b815260206004820152602760248201527f46524f5354207369676e6174757265206c656e677468206d75737420626520396044820152663620627974657360c81b6064820152608490fd5b60405162461bcd60e51b815260206004820152601e60248201527f46524f5354207369676e6174757265206d7573742062652073696e676c6500006044820152606490fd5b919391600114613dc65750505050505f90565b613deb90600860048796970154910154906001600160801b038260801c921690613fe5565b925f9260035f9201915b86811015613ebc57613e24613e1b613e15613ce48460051b8601866137e9565b8661436b565b909291926143a5565b6001600160a01b0381165f9081526020859052604090205460ff16613e4f575b506001905b01613df5565b6001600160a01b03165f9081527ff02b465737fa6045c2ff53fb2df43c66916ac2166fa303264668fb2f6a1d8c0060205260409020805c15613e945750600190613e49565b946001613ea292965d612928565b93858514613eb0575f613e44565b50505050505050600190565b505050505050505f90565b60405162461bcd60e51b8152602060048201526024808201527f74696d657374616d70206973206f6c646572207468616e2070726576696f75736044820152632065726160e01b6064820152608490fd5b60405162461bcd60e51b815260206004820152601e60248201527f63616e6e6f742076616c6964617465206265666f72652067656e6573697300006044820152606490fd5b9392915050428211613f8057613ca392613f78575b50613c9d565b90505f613f72565b60405162461bcd60e51b815260206004820152602160248201527f74696d657374616d702063616e6e6f7420626520696e207468652066757475726044820152606560f81b6064820152608490fd5b50613fde6018870154856132fb565b4210613c7d565b6001600160801b03809216029116613ffd8183612677565b918115612681570615613d165760010190565b9061401b9082614282565b1561402657600f0190565b60090190565b60ff5f5160206144eb5f395f51905f525460401c161561404857565b631afcd79f60e31b5f5260045ffd5b356001600160801b03811681036124685790565b35906001600160801b038216820361246857565b601661409e613d169365ffffffffffff600285015460201c1690612656565b91015490612677565b6140b14282614282565b156140bc5760090190565b600f0190565b92939194906140d18587614405565b156142785782156142785770014551231950b75fc4402da1732fc9bebe19831015614278576001169061010e6040519161012083018381106001600160401b038211176124685760405260883684376002600188160160888401538760898401526002840160a984015360aa830186905260ca8301527e300046524f53542d736563703235366b312d4b454343414b3235362d76316360ea8301526303430b6160e51b61010a830152812060cc820181815290600260ec84016001815360428420809318845253604270014551231950b75fc4402da1732fc9bebe19922060801c6001600160401b0360801b8260801b16179070014551231950b75fc4402da1732fc9bebe1990600160c01b9060401c09088015613ebc5784601b6080945f9660209870014551231950b75fc4402da1732fc9bebe19910970014551231950b75fc4402da1732fc9bebe19038552018684015280604084015270014551231950b75fc4402da1732fc9bebe19910970014551231950b75fc4402da1732fc9bebe1903606082015282805260015afa505f51915f5260205260018060a01b0360405f20161490565b5050505050505f90565b906014600e83015492015480831461432757818184109311918215911115918190614320575b156142bd57826142b757505090565b14919050565b60405162461bcd60e51b815260206004820152603560248201527f636f756c64206e6f74206964656e746966792076616c696461746f727320666f6044820152740722074686520676976656e2074696d657374616d7605c1b6064820152608490fd5b50816142a8565b606460405162461bcd60e51b815260206004820152602060248201527f657261732074696d657374616d70206d757374206e6f7420626520657175616c6044820152fd5b815191906041830361439b576143949250602082015190606060408401519301515f1a90614428565b9192909190565b50505f9160029190565b600481101561247257806143b7575050565b600181036143ce5763f645eedf60e01b5f5260045ffd5b600281036143e9575063fce698f760e01b5f5260045260245ffd5b6003146143f35750565b6335e2f38360e21b5f5260045260245ffd5b6401000003d01990600790829081818009900908906401000003d0199080091490565b91907f7fffffffffffffffffffffffffffffff5d576e7357a4501ddfe92f46681b20a0841161449f579160209360809260ff5f9560405194855216868401526040830152606082015282805260015afa1561245d575f516001600160a01b0381161561449557905f905f90565b505f906001905f90565b5050505f916003919056fe9016d09d72d40fdae2fd8ceac6b6234c7706214fd39c1cd1e609a0528c1993005c09ca1b9b8127a4fd9f3c384aac59b661441e820e17733753ff5f2e86e1e000f0c57e16840df040f15088dc2f81fe391c3923bec73e23a9662efc9c229c6a00f0c57e16840df040f15088dc2f81fe391c3923bec73e23a9662efc9c229c6a00","linkReferences":{}},"methodIdentifiers":{"areValidators(address[])":"8f381dbe","codeState(bytes32)":"c13911e8","codesStates(bytes32[])":"82bdeaad","commitBatch((bytes32,uint48,bytes32,uint8,((address,bytes32,bool,address,uint128,bool,(bytes32,address,uint128)[],(bytes32,address,bytes,uint128,(bytes32,bytes4),bool)[])[],bytes32)[],(bytes32,bool)[],((uint256,bytes32),((address,uint256)[],uint256,address),uint48)[],((uint256,uint256),bytes,address[],uint256)[]),uint8,bytes[])":"b24fcac0","computeSettings()":"84d22a4f","createProgram(bytes32,bytes32,address)":"3683c4d2","createProgramWithAbiInterface(bytes32,bytes32,address,address)":"0c18d277","genesisBlockHash()":"28e24b3d","genesisTimestamp()":"cacf66ab","initialize(address,address,address,address,uint256,uint256,uint256,(uint256,uint256),bytes,address[])":"53f7fd48","isValidator(address)":"facd743b","latestCommittedBatchHash()":"71a8cf2d","latestCommittedBatchTimestamp()":"d456fd51","lookupGenesisHash()":"8b1edf1e","middleware()":"f4f20ac0","mirrorImpl()":"e6fabc09","owner()":"8da5cb5b","programCodeId(address)":"9067088e","programsCodeIds(address[])":"baaf0201","programsCount()":"96a2ddfa","reinitialize()":"6c2eb350","renounceOwnership()":"715018a6","requestCodeValidation(bytes32)":"120e3f1e","setMirror(address)":"3d43b418","signingThresholdFraction()":"e3a6684f","timelines()":"9eb939a8","transferOwnership(address)":"f2fde38b","validatedCodesCount()":"007a32e7","validators()":"ca1e7819","validatorsAggregatedPublicKey()":"3bd109fa","validatorsCount()":"ed612f8c","validatorsThreshold()":"edc87225","validatorsVerifiableSecretSharingCommitment()":"a5d53a44","wrappedVara()":"88f50cf0"},"storageLayout":{"storage":[],"types":{}},"id":155}