{"abi":[{"type":"constructor","inputs":[],"stateMutability":"nonpayable"},{"type":"function","name":"baseFee","inputs":[],"outputs":[{"name":"","type":"uint128","internalType":"uint128"}],"stateMutability":"view"},{"type":"function","name":"baseWeight","inputs":[],"outputs":[{"name":"","type":"uint64","internalType":"uint64"}],"stateMutability":"view"},{"type":"function","name":"codeState","inputs":[{"name":"codeId","type":"bytes32","internalType":"bytes32"}],"outputs":[{"name":"","type":"uint8","internalType":"enum IRouter.CodeState"}],"stateMutability":"view"},{"type":"function","name":"commitBlocks","inputs":[{"name":"blockCommitmentsArray","type":"tuple[]","internalType":"struct IRouter.BlockCommitment[]","components":[{"name":"blockHash","type":"bytes32","internalType":"bytes32"},{"name":"prevCommitmentHash","type":"bytes32","internalType":"bytes32"},{"name":"predBlockHash","type":"bytes32","internalType":"bytes32"},{"name":"transitions","type":"tuple[]","internalType":"struct IRouter.StateTransition[]","components":[{"name":"actorId","type":"address","internalType":"address"},{"name":"newStateHash","type":"bytes32","internalType":"bytes32"},{"name":"valueToReceive","type":"uint128","internalType":"uint128"},{"name":"valueClaims","type":"tuple[]","internalType":"struct IRouter.ValueClaim[]","components":[{"name":"messageId","type":"bytes32","internalType":"bytes32"},{"name":"destination","type":"address","internalType":"address"},{"name":"value","type":"uint128","internalType":"uint128"}]},{"name":"messages","type":"tuple[]","internalType":"struct IRouter.OutgoingMessage[]","components":[{"name":"id","type":"bytes32","internalType":"bytes32"},{"name":"destination","type":"address","internalType":"address"},{"name":"payload","type":"bytes","internalType":"bytes"},{"name":"value","type":"uint128","internalType":"uint128"},{"name":"replyDetails","type":"tuple","internalType":"struct IRouter.ReplyDetails","components":[{"name":"to","type":"bytes32","internalType":"bytes32"},{"name":"code","type":"bytes4","internalType":"bytes4"}]}]}]}]},{"name":"signatures","type":"bytes[]","internalType":"bytes[]"}],"outputs":[],"stateMutability":"nonpayable"},{"type":"function","name":"commitCodes","inputs":[{"name":"codeCommitmentsArray","type":"tuple[]","internalType":"struct IRouter.CodeCommitment[]","components":[{"name":"id","type":"bytes32","internalType":"bytes32"},{"name":"valid","type":"bool","internalType":"bool"}]},{"name":"signatures","type":"bytes[]","internalType":"bytes[]"}],"outputs":[],"stateMutability":"nonpayable"},{"type":"function","name":"createProgram","inputs":[{"name":"codeId","type":"bytes32","internalType":"bytes32"},{"name":"salt","type":"bytes32","internalType":"bytes32"},{"name":"payload","type":"bytes","internalType":"bytes"},{"name":"_value","type":"uint128","internalType":"uint128"}],"outputs":[{"name":"","type":"address","internalType":"address"}],"stateMutability":"payable"},{"type":"function","name":"genesisBlockHash","inputs":[],"outputs":[{"name":"","type":"bytes32","internalType":"bytes32"}],"stateMutability":"view"},{"type":"function","name":"getStorageSlot","inputs":[],"outputs":[{"name":"","type":"bytes32","internalType":"bytes32"}],"stateMutability":"view"},{"type":"function","name":"initialize","inputs":[{"name":"initialOwner","type":"address","internalType":"address"},{"name":"_mirror","type":"address","internalType":"address"},{"name":"_mirrorProxy","type":"address","internalType":"address"},{"name":"_wrappedVara","type":"address","internalType":"address"},{"name":"_validatorsKeys","type":"address[]","internalType":"address[]"}],"outputs":[],"stateMutability":"nonpayable"},{"type":"function","name":"lastBlockCommitmentHash","inputs":[],"outputs":[{"name":"","type":"bytes32","internalType":"bytes32"}],"stateMutability":"view"},{"type":"function","name":"mirror","inputs":[],"outputs":[{"name":"","type":"address","internalType":"address"}],"stateMutability":"view"},{"type":"function","name":"mirrorProxy","inputs":[],"outputs":[{"name":"","type":"address","internalType":"address"}],"stateMutability":"view"},{"type":"function","name":"owner","inputs":[],"outputs":[{"name":"","type":"address","internalType":"address"}],"stateMutability":"view"},{"type":"function","name":"programCodeId","inputs":[{"name":"program","type":"address","internalType":"address"}],"outputs":[{"name":"","type":"bytes32","internalType":"bytes32"}],"stateMutability":"view"},{"type":"function","name":"programsCount","inputs":[],"outputs":[{"name":"","type":"uint256","internalType":"uint256"}],"stateMutability":"view"},{"type":"function","name":"reinitialize","inputs":[],"outputs":[],"stateMutability":"nonpayable"},{"type":"function","name":"renounceOwnership","inputs":[],"outputs":[],"stateMutability":"nonpayable"},{"type":"function","name":"requestCodeValidation","inputs":[{"name":"codeId","type":"bytes32","internalType":"bytes32"},{"name":"blobTxHash","type":"bytes32","internalType":"bytes32"}],"outputs":[],"stateMutability":"nonpayable"},{"type":"function","name":"setBaseWeight","inputs":[{"name":"_baseWeight","type":"uint64","internalType":"uint64"}],"outputs":[],"stateMutability":"nonpayable"},{"type":"function","name":"setMirror","inputs":[{"name":"_mirror","type":"address","internalType":"address"}],"outputs":[],"stateMutability":"nonpayable"},{"type":"function","name":"setStorageSlot","inputs":[{"name":"namespace","type":"string","internalType":"string"}],"outputs":[],"stateMutability":"nonpayable"},{"type":"function","name":"setValuePerWeight","inputs":[{"name":"_valuePerWeight","type":"uint128","internalType":"uint128"}],"outputs":[],"stateMutability":"nonpayable"},{"type":"function","name":"signingThresholdPercentage","inputs":[],"outputs":[{"name":"","type":"uint256","internalType":"uint256"}],"stateMutability":"view"},{"type":"function","name":"transferOwnership","inputs":[{"name":"newOwner","type":"address","internalType":"address"}],"outputs":[],"stateMutability":"nonpayable"},{"type":"function","name":"updateValidators","inputs":[{"name":"validatorsAddressArray","type":"address[]","internalType":"address[]"}],"outputs":[],"stateMutability":"nonpayable"},{"type":"function","name":"validatedCodesCount","inputs":[],"outputs":[{"name":"","type":"uint256","internalType":"uint256"}],"stateMutability":"view"},{"type":"function","name":"validatorExists","inputs":[{"name":"validator","type":"address","internalType":"address"}],"outputs":[{"name":"","type":"bool","internalType":"bool"}],"stateMutability":"view"},{"type":"function","name":"validators","inputs":[],"outputs":[{"name":"","type":"address[]","internalType":"address[]"}],"stateMutability":"view"},{"type":"function","name":"validatorsCount","inputs":[],"outputs":[{"name":"","type":"uint256","internalType":"uint256"}],"stateMutability":"view"},{"type":"function","name":"validatorsThreshold","inputs":[],"outputs":[{"name":"","type":"uint256","internalType":"uint256"}],"stateMutability":"view"},{"type":"function","name":"valuePerWeight","inputs":[],"outputs":[{"name":"","type":"uint128","internalType":"uint128"}],"stateMutability":"view"},{"type":"function","name":"wrappedVara","inputs":[],"outputs":[{"name":"","type":"address","internalType":"address"}],"stateMutability":"view"},{"type":"event","name":"BaseWeightChanged","inputs":[{"name":"baseWeight","type":"uint64","indexed":false,"internalType":"uint64"}],"anonymous":false},{"type":"event","name":"BlockCommitted","inputs":[{"name":"blockHash","type":"bytes32","indexed":false,"internalType":"bytes32"}],"anonymous":false},{"type":"event","name":"CodeGotValidated","inputs":[{"name":"id","type":"bytes32","indexed":false,"internalType":"bytes32"},{"name":"valid","type":"bool","indexed":true,"internalType":"bool"}],"anonymous":false},{"type":"event","name":"CodeValidationRequested","inputs":[{"name":"codeId","type":"bytes32","indexed":false,"internalType":"bytes32"},{"name":"blobTxHash","type":"bytes32","indexed":false,"internalType":"bytes32"}],"anonymous":false},{"type":"event","name":"Initialized","inputs":[{"name":"version","type":"uint64","indexed":false,"internalType":"uint64"}],"anonymous":false},{"type":"event","name":"OwnershipTransferred","inputs":[{"name":"previousOwner","type":"address","indexed":true,"internalType":"address"},{"name":"newOwner","type":"address","indexed":true,"internalType":"address"}],"anonymous":false},{"type":"event","name":"ProgramCreated","inputs":[{"name":"actorId","type":"address","indexed":false,"internalType":"address"},{"name":"codeId","type":"bytes32","indexed":true,"internalType":"bytes32"}],"anonymous":false},{"type":"event","name":"StorageSlotChanged","inputs":[],"anonymous":false},{"type":"event","name":"ValidatorsSetChanged","inputs":[],"anonymous":false},{"type":"event","name":"ValuePerWeightChanged","inputs":[{"name":"valuePerWeight","type":"uint128","indexed":false,"internalType":"uint128"}],"anonymous":false},{"type":"error","name":"ECDSAInvalidSignature","inputs":[]},{"type":"error","name":"ECDSAInvalidSignatureLength","inputs":[{"name":"length","type":"uint256","internalType":"uint256"}]},{"type":"error","name":"ECDSAInvalidSignatureS","inputs":[{"name":"s","type":"bytes32","internalType":"bytes32"}]},{"type":"error","name":"FailedDeployment","inputs":[]},{"type":"error","name":"InsufficientBalance","inputs":[{"name":"balance","type":"uint256","internalType":"uint256"},{"name":"needed","type":"uint256","internalType":"uint256"}]},{"type":"error","name":"InvalidInitialization","inputs":[]},{"type":"error","name":"NotInitializing","inputs":[]},{"type":"error","name":"OwnableInvalidOwner","inputs":[{"name":"owner","type":"address","internalType":"address"}]},{"type":"error","name":"OwnableUnauthorizedAccount","inputs":[{"name":"account","type":"address","internalType":"address"}]},{"type":"error","name":"ReentrancyGuardReentrantCall","inputs":[]}],"bytecode":{"object":"0x6080806040523460d0577ff0c57e16840df040f15088dc2f81fe391c3923bec73e23a9662efc9c229c6a005460ff8160401c1660c1576002600160401b03196001600160401b03821601605c575b60405161289590816100d58239f35b6001600160401b0319166001600160401b039081177ff0c57e16840df040f15088dc2f81fe391c3923bec73e23a9662efc9c229c6a005581527fc7f505b2f371ae2175ee4913f4499e1f2633a7b5936321eed1cdaeb6115181d290602090a15f80604d565b63f92ee8a960e01b5f5260045ffd5b5f80fdfe610200806040526004361015610013575f80fd5b5f6101e0525f3560e01c9081627a32e714611f71575080630834fecc14611f3a5780631c149d8a14611df257806328e24b3d14611dc85780632dacfb6914611d9b5780633d43b41814611d49578063444d917214611d115780635686cad514611c5f5780636c2eb35014611a485780636ef25c3a14611a1d578063715018a6146119b657806378ee5dec1461197e5780638028861a146119015780638074b4551461158557806388f50cf01461154a5780638da5cb5b146115135780638febbd59146114c65780639067088e1461147e578063967082261461145257806396a2ddfa14611422578063a6bbbe1c14611372578063c13911e814611326578063ca1e7819146112a9578063d3fd636414611270578063e71731e41461115e578063e97d3eb314610f0f578063ed612f8c14610edf578063edc8722514610eba578063efd81abc14610e8a578063f2fde38b14610e66578063f8453e7c14610b585763fa97ed6d14610181575f80fd5b34610521576040366003190112610521576004356001600160401b038111610521576101b190369060040161202b565b906024356001600160401b038111610521576101d190369060040161202b565b6101e051606060a052909391925b82821015610b3c57600582901b8101359236829003607e19018412156105215760045f805160206128208339815191525401608052608051546020858401013503610af8576102336040858401013561262e565b15610aa7576101e0516101c0526060958285018701955b610256878786016125ce565b90506101c0511015610a125761026e878786016125ce565b9060e0526101c0511015610536576101c05160051b60e051013560c052609e1960e05136030160c0511215610521575f80516020612820833981519152546102bb60c05160e05101612671565b6001600160a01b03165f908152600b82016020526040902054156109b55760206001600160801b0391600360018060a01b0391015416604461030260c05160e05101612671565b610314604060c05160e0510101612685565b60405163a9059cbb60e01b81526001600160a01b0390921660048301529490941660248501526101e05184928391905af1801561052857610989575b5060c05160e0516001600160a01b039161036a9101612671565b166101a0526101e051606061016081905260c05160e0510101610140525b61039b6101405160c05160e05101612699565b9050811015610550576103b76101405160c05160e05101612699565b9061018052811015610536576103d7602060608302610180510101612671565b6040606083026101805101019061047a6103f083612685565b6040519060208201936060870261018051013585526001600160601b03199060601b1660408301526001600160801b03199060801b1660548201526044815261043a606482611fb1565b60206040519384926101605151808461016051018587015e840190838201906101e0518252519283915e01016101e051815203601f198101835282611fb1565b6101605261049b610495602060608502610180510101612671565b91612685565b6101a0513b15610521576040516314503e5160e01b81526101805160608502013560048201526001600160a01b0390921660248301526001600160801b031660448201526101e0516101a0518290606490829084905af1801561052857610506575b50600101610388565b6101e05161051391611fb1565b6101e051610521575f6104fd565b6101e05180fd5b6040513d6101e051823e3d90fd5b634e487b7160e01b6101e05152603260045260246101e051fd5b50909195929394956101e051610100526060610100526101e0515b60c05160e051610580910160808101906125ce565b90508110156108715760c05160e05161059e910160808101906125ce565b821015610536578160051b8101356101205260be1981360301610120511215610521576106906105d5602061012051840101612671565b605461068460346105f3604061012051880101610120518801612417565b93906106066060610120518a0101612685565b61061760a0610120518b01016126ce565b86604051978894602086019a8d6101205101358c526001600160601b03199060601b166040870152868601378301916001600160801b03199060801b16848301526080610120518b010135606483015263ffffffff60e01b16608482015203016014810184520182611fb1565b519020610100516121a2565b6101005261012051810160800135610779576106b3602061012051830101612671565b610120516106c79083016040810190612417565b90916106da606061012051860101612685565b926101a0513b156105215760405163c2df600960e01b8152610120519095013560048601526001600160a01b039091166024850152608060448501526001600160801b039161072e91608486019190612182565b9116606483015281806101e0519203816101e0516101a0515af180156105285761075e575b506001905b0161056b565b6101e05161076b91611fb1565b6101e051610521575f610753565b61078a602061012051830101612671565b906107a2604061012051830101610120518301612417565b6107b3606061012051850101612685565b926107c560a0610120518301016126ce565b926101a0513b156105215760405163c78bde7760e01b81526001600160a01b03909616600487015260a060248701526080926001600160801b039161080e9160a4890191612182565b9416604486015261012051010135606484015263ffffffff60e01b16608483015281806101e0519203816101e0516101a0515af1801561052857610856575b50600190610758565b6101e05161086391611fb1565b6101e051610521575f61084d565b5091909695949392956101a0513b1561052157604051638ea59e1d60e01b8152602060c05160e05101013560048201526101e051816024816101e0516101a0515af180156105285761096e575b5061095d906108d260c05160e05101612671565b6108e4604060c05160e0510101612685565b6101605151602061016051012061010051516020610100510120906040519260208401946001600160601b03199060601b168552602060c05160e05101013560348501526001600160801b03199060801b166054840152606483015260848201526084815261095460a482611fb1565b519020906121a2565b9660016101c051016101c05261024a565b6101e05161097b91611fb1565b6101e051610521575f6108be565b6109a99060203d81116109ae575b6109a18183611fb1565b8101906123ff565b610350565b503d610997565b60405162461bcd60e51b815260206004820152602f60248201527f636f756c646e277420706572666f726d207472616e736974696f6e20666f722060448201526e756e6b6e6f776e2070726f6772616d60881b6064820152608490fd5b9391966001939650610a999195808801359182608051557fd756eca21e02cb0dbde1e44a4d9c6921b5c8aa4668cfa0752784b3dc855bce1e6020604051858152a1602081519101206040805192602084019485526020818c010135828501528a0101356060830152608082015260808152610a8e60a082611fb1565b51902060a0516121a2565b60a0520190929391936101df565b60405162461bcd60e51b815260206004820152602360248201527f616c6c6f776564207072656465636573736f7220626c6f636b206e6f7420666f6044820152621d5b9960ea1b6064820152608490fd5b606460405162461bcd60e51b815260206004820152602060248201527f696e76616c69642070726576696f757320636f6d6d69746d656e7420686173686044820152fd5b610b51858560a05151602060a0510120612449565b6101e05180f35b346105215760a036600319011261052157610b71611f9b565b602435906001600160a01b038216820361052157604435916001600160a01b038316830361052157606435926001600160a01b0384168403610521576084356001600160401b038111610521573660238201121561052157610bdd90369060248160040135910161205b565b905f805160206128408339815191525460ff8160401c1615946001600160401b03821680159081610e5e575b6001149081610e54575b159081610e4b575b50610e365767ffffffffffffffff1982166001175f8051602061284083398151915255610c5e9186610e0a575b50610c51612603565b610c59612603565b61221a565b6040948551610c6d8782611fb1565b6017815260208101907f726f757465722e73746f726167652e526f7574657256310000000000000000008252610ca161228b565b5190205f198101908111610df0578651906020820190815260208252610cc78883611fb1565b60ff19915190201690815f80516020612820833981519152557f5aa0c6c9fb33211212ffe5bef7a4b5d511b82a611e6677052d984e2bcedeaccc6101e0516101e051a15f19430192438411610df057924082556001820180546001600160a01b03199081166001600160a01b03978816179091556002830180548216948716949094179093556003820180549093169416939093179055611a0a60058301556006919091018054680a000000009502f9006001600160c01b0319909116179055610d90906122be565b610d9b576101e05180f35b60207fc7f505b2f371ae2175ee4913f4499e1f2633a7b5936321eed1cdaeb6115181d29160ff60401b195f8051602061284083398151915254165f80516020612840833981519152555160018152a180610b51565b634e487b7160e01b6101e05152601160045260246101e051fd5b68ffffffffffffffffff191668010000000000000001175f805160206128408339815191525587610c48565b63f92ee8a960e01b6101e0515260046101e051fd5b90501588610c1b565b303b159150610c13565b879150610c09565b3461052157602036600319011261052157610b51610e82611f9b565b610c5961228b565b34610521576101e05136600319011261052157602060055f80516020612820833981519152540154604051908152f35b34610521576101e051366003190112610521576020610ed76121dc565b604051908152f35b34610521576101e05136600319011261052157602060085f80516020612820833981519152540154604051908152f35b34610521576040366003190112610521576004356001600160401b0381116105215736602382011215610521578060040135906001600160401b038211610521573660248360061b83010111610521576024356001600160401b03811161052157610f7f8391369060040161202b565b5f80516020612820833981519152546101e0519460098201939192909160605b8688101561114d576101e051508760061b840197610fed604460248b01359a0192610fc9846121cf565b60405160208101918d8352151560f81b604082015260218152610954604182611fb1565b98806101e051528760205260ff60406101e0512054166003811015611133576001036110de5761101e6001936121cf565b1561108c577f460119a8f69a33ed127de517d5ea464e958ce23ef19e4420a8b92bf780bbc2c960208285936101e051528a825260406101e051206101e051506101e05150600260ff19825416179055600a8a0161107b8154612174565b9055604051908152a25b0196610f9f565b806101e051528760205260406101e0512080546101e0515060ff191690556040519081527f460119a8f69a33ed127de517d5ea464e958ce23ef19e4420a8b92bf780bbc2c960206101e05192a2611085565b60405162461bcd60e51b815260206004820152602760248201527f636f64652073686f756c642062652072657175657374656420666f722076616c60448201526634b230ba34b7b760c91b6064820152608490fd5b634e487b7160e01b6101e05152602160045260246101e051fd5b610b51935060208151910120612449565b34610521576020366003190112610521576004356001600160401b0381116105215761118e90369060040161202b565b61119661228b565b5f80516020612820833981519152546101e0516007820191600801905b81548110156111f3576101e08051839052516020908190208201546001600160a01b03165f9081529084905260409020805460ff191690556001016111b3565b506101e0518154908255915081611249575b61121861121336858761205b565b6122be565b7f144bbc027dc176e94c43b7c1bcff2a8aa58ab434029eec294743cd4ab2e54f516101e0516101e051a16101e05180f35b6101e0515260206101e05120908101905b81811015611205576101e051815560010161125a565b34610521576101e0513660031901126105215760206001600160401b0360065f8051602061282083398151915254015416604051908152f35b34610521576101e051366003190112610521576112d660085f8051602061282083398151915254016120bf565b6040518091602082016020835281518091526020604084019201906101e0515b818110611304575050500390f35b82516001600160a01b03168452859450602093840193909201916001016112f6565b346105215760203660031901126105215760095f8051602061282083398151915254016004356101e0515260205260ff60406101e0512054166040516003821015611133576020918152f35b34610521576020366003190112610521576004356001600160801b03811690818103610521577f9f5e1796f1a0adf311f86170503308a06a16560a7679b7b6da35f4999200d740916020916113c561228b565b5f8051602061282083398151915254600601805477ffffffffffffffffffffffffffffffff00000000000000001916604092831b77ffffffffffffffffffffffffffffffff00000000000000001617905551908152a16101e05180f35b34610521576101e051366003190112610521576020600c5f80516020612820833981519152540154604051908152f35b34610521576101e0513660031901126105215760205f8051602061282083398151915254604051908152f35b3461052157602036600319011261052157611497611f9b565b600b5f8051602061282083398151915254019060018060a01b03165f52602052602060405f2054604051908152f35b34610521576020366003190112610521576114df611f9b565b60075f8051602061282083398151915254019060018060a01b03165f52602052602060ff60405f2054166040519015158152f35b34610521576101e051366003190112610521575f80516020612800833981519152546040516001600160a01b039091168152602090f35b34610521576101e051366003190112610521575f8051602061282083398151915254600301546040516001600160a01b039091168152602090f35b6080366003190112611806576044356004356001600160401b0382116118065736602383011215611806578160040135916001600160401b03831161180657366024848301011161180657606435906001600160801b03821693848303611806575f805160206128208339815191525493805f526009850160205260ff60405f20541660038110156118ed5760020361189157611620612112565b600a6001600160801b03821602946001600160801b03861695860361187d5761164c8661165193612154565b612154565b60038601546040516323b872dd60e01b81523260048201523060248201526001600160801b03929092166044830152602090829060649082905f906001600160a01b03165af19081156117fb575f9161185e575b50156118195760028501546e5af43d82803e903d91602b57fd5bf360405160208101908482526024356040820152604081526116e2606082611fb1565b51902091763d602d80600a3d3981f3363d3d373d3d3d363d7300000062ffffff8260881c16175f526effffffffffffffffffffffffffffff199060781b161760205260018060a01b0390603760095ff51694851561180a57600c90865f52600b81016020528260405f2055016117588154612174565b90557f8008ec1d8798725ebfa0f2d128d52e8e717dcba6e0f786557eeee70614b02bf16020604051878152a2833b15611806576117bd945f9360405196879485946306f0ee9760e51b8652326004870152608060248701526024608487019201612182565b9160448401526064830152038183855af19182156117fb576020926117e6575b50604051908152f35b5f6117f091611fb1565b5f6101e052826117dd565b6040513d5f823e3d90fd5b5f80fd5b63b06ebf3d60e01b5f5260045ffd5b60405162461bcd60e51b815260206004820152601860248201527f6661696c656420746f20726574726965766520575661726100000000000000006044820152606490fd5b611877915060203d6020116109ae576109a18183611fb1565b876116a5565b634e487b7160e01b5f52601160045260245ffd5b60405162461bcd60e51b815260206004820152602e60248201527f636f6465206d7573742062652076616c696461746564206265666f726520707260448201526d37b3b930b69031b932b0ba34b7b760911b6064820152608490fd5b634e487b7160e01b5f52602160045260245ffd5b34611806576020366003190112611806576004356001600160401b0381168091036118065760207f01326573cfc0bc40a2550923254394ebd7529e3e3301840dfa33cf786aead0c79161195261228b565b5f8051602061282083398151915254600601805467ffffffffffffffff191682179055604051908152a1005b34611806575f366003190112611806575f8051602061282083398151915254600201546040516001600160a01b039091168152602090f35b34611806575f366003190112611806576119ce61228b565b5f8051602061280083398151915280546001600160a01b031981169091555f906001600160a01b03167f8be0079c531659141344cd1fd0a4f28419497f9722a3daafe3b4186f6b6457e08280a3005b34611806575f366003190112611806576020611a37612112565b6001600160801b0360405191168152f35b34611806575f36600319011261180657611a6061228b565b5f805160206128408339815191525460ff8160401c168015611c4b575b611c3c5768ffffffffffffffffff191668010000000000000002175f80516020612840833981519152555f80516020612820833981519152546001810154600282015460038301546001600160a01b0390811693918116921690611ae3906008016120bf565b906040918251611af38482611fb1565b6017815260208101907f726f757465722e73746f726167652e526f7574657256320000000000000000008252611b2761228b565b5190205f19810190811161187d578351906020820190815260208252611b4d8583611fb1565b60ff19915190201694855f80516020612820833981519152557f5aa0c6c9fb33211212ffe5bef7a4b5d511b82a611e6677052d984e2bcedeaccc5f80a15f19430143811161187d574086556001860180546001600160a01b03199081166001600160a01b03958616179091556002870180548216968516969096179095556003909501805490941694909116939093179091557fc7f505b2f371ae2175ee4913f4499e1f2633a7b5936321eed1cdaeb6115181d29160209190611c0f906122be565b60ff60401b195f8051602061284083398151915254165f80516020612840833981519152555160028152a1005b63f92ee8a960e01b5f5260045ffd5b5060026001600160401b0382161015611a7d565b34611806576020366003190112611806576004356001600160401b038111611806573660238201121561180657611ca0903690602481600401359101611fe6565b611ca861228b565b602081519101205f19810190811161187d57604051906020820190815260208252611cd4604083611fb1565b9051902060ff19165f80516020612820833981519152557f5aa0c6c9fb33211212ffe5bef7a4b5d511b82a611e6677052d984e2bcedeaccc5f80a1005b34611806575f366003190112611806575f8051602061282083398151915254600101546040516001600160a01b039091168152602090f35b3461180657602036600319011261180657611d62611f9b565b611d6a61228b565b5f805160206128208339815191525460010180546001600160a01b0319166001600160a01b03909216919091179055005b34611806575f36600319011261180657602060045f80516020612820833981519152540154604051908152f35b34611806575f3660031901126118065760205f805160206128208339815191525454604051908152f35b34611806576040366003190112611806576024356004358115801590611f30575b15611eeb5760095f80516020612820833981519152540190805f528160205260ff60405f20541660038110156118ed57611e8d577f65672eaf4ff8b823ea29ae013fef437d1fa9ed431125263a7a1f0ac49eada39692604092825f52602052825f20600160ff1982541617905582519182526020820152a1005b60405162461bcd60e51b815260206004820152603060248201527f636f64652077697468207375636820696420616c72656164792072657175657360448201526f1d1959081bdc881d985b1a59185d195960821b6064820152608490fd5b60405162461bcd60e51b815260206004820152601c60248201527f626c6f6254784861736820636f756c646e277420626520666f756e64000000006044820152606490fd5b505f491515611e13565b34611806575f366003190112611806576020611a376001600160801b0360065f8051602061282083398151915254015460401c1690565b34611806575f36600319011261180657602090600a5f805160206128208339815191525401548152f35b600435906001600160a01b038216820361180657565b90601f801991011681019081106001600160401b03821117611fd257604052565b634e487b7160e01b5f52604160045260245ffd5b9291926001600160401b038211611fd2576040519161200f601f8201601f191660200184611fb1565b829481845281830111611806578281602093845f960137010152565b9181601f84011215611806578235916001600160401b038311611806576020808501948460051b01011161180657565b9092916001600160401b038411611fd2578360051b91602060405161208282860182611fb1565b809681520192810191821161180657915b81831061209f57505050565b82356001600160a01b038116810361180657815260209283019201612093565b90604051918281549182825260208201905f5260205f20925f5b8181106120f05750506120ee92500383611fb1565b565b84546001600160a01b03168352600194850194879450602090930192016120d9565b5f8051602061282083398151915254600601546001600160401b038116906001600160801b039060401c811616026001600160801b03811690810361187d5790565b906001600160801b03809116911601906001600160801b03821161187d57565b5f19811461187d5760010190565b908060209392818452848401375f828201840152601f01601f1916010190565b6020806120ee928195946040519682889351918291018585015e8201908382015203018085520183611fb1565b3580151581036118065790565b5f8051602061282083398151915254600560088201549101549081810291818304149015171561187d5761270f810180911161187d57612710900490565b6001600160a01b03168015612278575f8051602061280083398151915280546001600160a01b0319811683179091556001600160a01b03167f8be0079c531659141344cd1fd0a4f28419497f9722a3daafe3b4186f6b6457e05f80a3565b631e4fbdf760e01b5f525f60045260245ffd5b5f80516020612800833981519152546001600160a01b031633036122ab57565b63118cdaa760e01b5f523360045260245ffd5b5f805160206128208339815191525490600882019081546123ae579091600701905f5b815181101561232057600581901b82016020908101516001600160a01b03165f9081529084905260409020805460ff19166001908117909155016122e1565b5080519291506001600160401b038311611fd257680100000000000000008311611fd2578154838355808410612388575b50602001905f5260205f205f5b83811061236b5750505050565b82516001600160a01b03168183015560209092019160010161235e565b825f528360205f2091820191015b8181106123a35750612351565b5f8155600101612396565b60405162461bcd60e51b815260206004820152602360248201527f70726576696f75732076616c696461746f727320776572656e27742072656d6f6044820152621d995960ea1b6064820152608490fd5b90816020910312611806575180151581036118065790565b903590601e198136030182121561180657018035906001600160401b0382116118065760200191813603831361180657565b905f8051602061282083398151915254906124626121dc565b9260405190602082019081526020825261247d604083611fb1565b6124b9603660405180936020820195601960f81b87523060601b60228401525180918484015e81015f838201520301601f198101835282611fb1565b5190205f9260070191835b868510156125c2576124fa6124f16124eb6124e48860051b860186612417565b3691611fe6565b856126e3565b9092919261271d565b6001600160a01b03165f9081526020859052604090205460ff16156125875761252290612174565b9385851461253357600101936124c4565b505050509091505b1061254257565b60405162461bcd60e51b815260206004820152601b60248201527f6e6f7420656e6f7567682076616c6964207369676e61747572657300000000006044820152606490fd5b60405162461bcd60e51b8152602060048201526013602482015272696e636f7272656374207369676e617475726560681b6044820152606490fd5b9495505050505061253b565b903590601e198136030182121561180657018035906001600160401b03821161180657602001918160051b3603831361180657565b60ff5f805160206128408339815191525460401c161561261f57565b631afcd79f60e31b5f5260045ffd5b905f19430143811161187d57805b612647575b505f9150565b804083810361265857506001925050565b1561266c57801561187d575f19018061263c565b612641565b356001600160a01b03811681036118065790565b356001600160801b03811681036118065790565b903590601e198136030182121561180657018035906001600160401b0382116118065760200191606082023603831361180657565b356001600160e01b0319811681036118065790565b81519190604183036127135761270c9250602082015190606060408401519301515f1a9061277d565b9192909190565b50505f9160029190565b60048110156118ed578061272f575050565b600181036127465763f645eedf60e01b5f5260045ffd5b60028103612761575063fce698f760e01b5f5260045260245ffd5b60031461276b5750565b6335e2f38360e21b5f5260045260245ffd5b91907f7fffffffffffffffffffffffffffffff5d576e7357a4501ddfe92f46681b20a084116127f4579160209360809260ff5f9560405194855216868401526040830152606082015282805260015afa156117fb575f516001600160a01b038116156127ea57905f905f90565b505f906001905f90565b5050505f916003919056fe9016d09d72d40fdae2fd8ceac6b6234c7706214fd39c1cd1e609a0528c1993005c09ca1b9b8127a4fd9f3c384aac59b661441e820e17733753ff5f2e86e1e000f0c57e16840df040f15088dc2f81fe391c3923bec73e23a9662efc9c229c6a00a26469706673582212202cea2b458f29799a50b104403a01fafe093b579eb3c99aba1f0e4d9e9661aff164736f6c634300081a0033","linkReferences":{}},"methodIdentifiers":{"baseFee()":"6ef25c3a","baseWeight()":"d3fd6364","codeState(bytes32)":"c13911e8","commitBlocks((bytes32,bytes32,bytes32,(address,bytes32,uint128,(bytes32,address,uint128)[],(bytes32,address,bytes,uint128,(bytes32,bytes4))[])[])[],bytes[])":"fa97ed6d","commitCodes((bytes32,bool)[],bytes[])":"e97d3eb3","createProgram(bytes32,bytes32,bytes,uint128)":"8074b455","genesisBlockHash()":"28e24b3d","getStorageSlot()":"96708226","initialize(address,address,address,address,address[])":"f8453e7c","lastBlockCommitmentHash()":"2dacfb69","mirror()":"444d9172","mirrorProxy()":"78ee5dec","owner()":"8da5cb5b","programCodeId(address)":"9067088e","programsCount()":"96a2ddfa","reinitialize()":"6c2eb350","renounceOwnership()":"715018a6","requestCodeValidation(bytes32,bytes32)":"1c149d8a","setBaseWeight(uint64)":"8028861a","setMirror(address)":"3d43b418","setStorageSlot(string)":"5686cad5","setValuePerWeight(uint128)":"a6bbbe1c","signingThresholdPercentage()":"efd81abc","transferOwnership(address)":"f2fde38b","updateValidators(address[])":"e71731e4","validatedCodesCount()":"007a32e7","validatorExists(address)":"8febbd59","validators()":"ca1e7819","validatorsCount()":"ed612f8c","validatorsThreshold()":"edc87225","valuePerWeight()":"0834fecc","wrappedVara()":"88f50cf0"},"storageLayout":{"storage":[],"types":{}},"id":81}