{"abi":[{"type":"constructor","inputs":[],"stateMutability":"nonpayable"},{"type":"function","name":"areValidators","inputs":[{"name":"_validators","type":"address[]","internalType":"address[]"}],"outputs":[{"name":"","type":"bool","internalType":"bool"}],"stateMutability":"view"},{"type":"function","name":"codeState","inputs":[{"name":"_codeId","type":"bytes32","internalType":"bytes32"}],"outputs":[{"name":"","type":"uint8","internalType":"enum Gear.CodeState"}],"stateMutability":"view"},{"type":"function","name":"codesStates","inputs":[{"name":"_codesIds","type":"bytes32[]","internalType":"bytes32[]"}],"outputs":[{"name":"","type":"uint8[]","internalType":"enum Gear.CodeState[]"}],"stateMutability":"view"},{"type":"function","name":"commitBlocks","inputs":[{"name":"_blockCommitments","type":"tuple[]","internalType":"struct Gear.BlockCommitment[]","components":[{"name":"hash","type":"bytes32","internalType":"bytes32"},{"name":"timestamp","type":"uint48","internalType":"uint48"},{"name":"previousCommittedBlock","type":"bytes32","internalType":"bytes32"},{"name":"predecessorBlock","type":"bytes32","internalType":"bytes32"},{"name":"transitions","type":"tuple[]","internalType":"struct Gear.StateTransition[]","components":[{"name":"actorId","type":"address","internalType":"address"},{"name":"newStateHash","type":"bytes32","internalType":"bytes32"},{"name":"inheritor","type":"address","internalType":"address"},{"name":"valueToReceive","type":"uint128","internalType":"uint128"},{"name":"valueClaims","type":"tuple[]","internalType":"struct Gear.ValueClaim[]","components":[{"name":"messageId","type":"bytes32","internalType":"bytes32"},{"name":"destination","type":"address","internalType":"address"},{"name":"value","type":"uint128","internalType":"uint128"}]},{"name":"messages","type":"tuple[]","internalType":"struct Gear.Message[]","components":[{"name":"id","type":"bytes32","internalType":"bytes32"},{"name":"destination","type":"address","internalType":"address"},{"name":"payload","type":"bytes","internalType":"bytes"},{"name":"value","type":"uint128","internalType":"uint128"},{"name":"replyDetails","type":"tuple","internalType":"struct Gear.ReplyDetails","components":[{"name":"to","type":"bytes32","internalType":"bytes32"},{"name":"code","type":"bytes4","internalType":"bytes4"}]}]}]}]},{"name":"_signatures","type":"bytes[]","internalType":"bytes[]"}],"outputs":[],"stateMutability":"nonpayable"},{"type":"function","name":"commitCodes","inputs":[{"name":"_codeCommitments","type":"tuple[]","internalType":"struct Gear.CodeCommitment[]","components":[{"name":"id","type":"bytes32","internalType":"bytes32"},{"name":"valid","type":"bool","internalType":"bool"}]},{"name":"_signatures","type":"bytes[]","internalType":"bytes[]"}],"outputs":[],"stateMutability":"nonpayable"},{"type":"function","name":"commitValidators","inputs":[{"name":"commitment","type":"tuple","internalType":"struct Gear.ValidatorsCommitment","components":[{"name":"validators","type":"address[]","internalType":"address[]"},{"name":"eraIndex","type":"uint256","internalType":"uint256"}]},{"name":"signatures","type":"bytes[]","internalType":"bytes[]"}],"outputs":[],"stateMutability":"nonpayable"},{"type":"function","name":"computeSettings","inputs":[],"outputs":[{"name":"","type":"tuple","internalType":"struct Gear.ComputationSettings","components":[{"name":"threshold","type":"uint64","internalType":"uint64"},{"name":"wvaraPerSecond","type":"uint128","internalType":"uint128"}]}],"stateMutability":"view"},{"type":"function","name":"createProgram","inputs":[{"name":"_codeId","type":"bytes32","internalType":"bytes32"},{"name":"_salt","type":"bytes32","internalType":"bytes32"}],"outputs":[{"name":"","type":"address","internalType":"address"}],"stateMutability":"nonpayable"},{"type":"function","name":"createProgramWithDecoder","inputs":[{"name":"_decoderImpl","type":"address","internalType":"address"},{"name":"_codeId","type":"bytes32","internalType":"bytes32"},{"name":"_salt","type":"bytes32","internalType":"bytes32"}],"outputs":[{"name":"","type":"address","internalType":"address"}],"stateMutability":"nonpayable"},{"type":"function","name":"genesisBlockHash","inputs":[],"outputs":[{"name":"","type":"bytes32","internalType":"bytes32"}],"stateMutability":"view"},{"type":"function","name":"genesisTimestamp","inputs":[],"outputs":[{"name":"","type":"uint48","internalType":"uint48"}],"stateMutability":"view"},{"type":"function","name":"initialize","inputs":[{"name":"_owner","type":"address","internalType":"address"},{"name":"_mirror","type":"address","internalType":"address"},{"name":"_mirrorProxy","type":"address","internalType":"address"},{"name":"_wrappedVara","type":"address","internalType":"address"},{"name":"_eraDuration","type":"uint256","internalType":"uint256"},{"name":"_electionDuration","type":"uint256","internalType":"uint256"},{"name":"_validators","type":"address[]","internalType":"address[]"}],"outputs":[],"stateMutability":"nonpayable"},{"type":"function","name":"isValidator","inputs":[{"name":"_validator","type":"address","internalType":"address"}],"outputs":[{"name":"","type":"bool","internalType":"bool"}],"stateMutability":"view"},{"type":"function","name":"latestCommittedBlockHash","inputs":[],"outputs":[{"name":"","type":"bytes32","internalType":"bytes32"}],"stateMutability":"view"},{"type":"function","name":"lookupGenesisHash","inputs":[],"outputs":[],"stateMutability":"nonpayable"},{"type":"function","name":"mirrorImpl","inputs":[],"outputs":[{"name":"","type":"address","internalType":"address"}],"stateMutability":"view"},{"type":"function","name":"mirrorProxyImpl","inputs":[],"outputs":[{"name":"","type":"address","internalType":"address"}],"stateMutability":"view"},{"type":"function","name":"owner","inputs":[],"outputs":[{"name":"","type":"address","internalType":"address"}],"stateMutability":"view"},{"type":"function","name":"programCodeId","inputs":[{"name":"_programId","type":"address","internalType":"address"}],"outputs":[{"name":"","type":"bytes32","internalType":"bytes32"}],"stateMutability":"view"},{"type":"function","name":"programsCodeIds","inputs":[{"name":"_programsIds","type":"address[]","internalType":"address[]"}],"outputs":[{"name":"","type":"bytes32[]","internalType":"bytes32[]"}],"stateMutability":"view"},{"type":"function","name":"programsCount","inputs":[],"outputs":[{"name":"","type":"uint256","internalType":"uint256"}],"stateMutability":"view"},{"type":"function","name":"reinitialize","inputs":[],"outputs":[],"stateMutability":"nonpayable"},{"type":"function","name":"renounceOwnership","inputs":[],"outputs":[],"stateMutability":"nonpayable"},{"type":"function","name":"requestCodeValidation","inputs":[{"name":"_codeId","type":"bytes32","internalType":"bytes32"},{"name":"_blobTxHash","type":"bytes32","internalType":"bytes32"}],"outputs":[],"stateMutability":"nonpayable"},{"type":"function","name":"setMirror","inputs":[{"name":"newMirror","type":"address","internalType":"address"}],"outputs":[],"stateMutability":"nonpayable"},{"type":"function","name":"signingThresholdPercentage","inputs":[],"outputs":[{"name":"","type":"uint16","internalType":"uint16"}],"stateMutability":"view"},{"type":"function","name":"transferOwnership","inputs":[{"name":"newOwner","type":"address","internalType":"address"}],"outputs":[],"stateMutability":"nonpayable"},{"type":"function","name":"validatedCodesCount","inputs":[],"outputs":[{"name":"","type":"uint256","internalType":"uint256"}],"stateMutability":"view"},{"type":"function","name":"validators","inputs":[],"outputs":[{"name":"","type":"address[]","internalType":"address[]"}],"stateMutability":"view"},{"type":"function","name":"validatorsCount","inputs":[],"outputs":[{"name":"","type":"uint256","internalType":"uint256"}],"stateMutability":"view"},{"type":"function","name":"validatorsThreshold","inputs":[],"outputs":[{"name":"","type":"uint256","internalType":"uint256"}],"stateMutability":"view"},{"type":"function","name":"wrappedVara","inputs":[],"outputs":[{"name":"","type":"address","internalType":"address"}],"stateMutability":"view"},{"type":"event","name":"BlockCommitted","inputs":[{"name":"hash","type":"bytes32","indexed":false,"internalType":"bytes32"}],"anonymous":false},{"type":"event","name":"CodeGotValidated","inputs":[{"name":"codeId","type":"bytes32","indexed":false,"internalType":"bytes32"},{"name":"valid","type":"bool","indexed":true,"internalType":"bool"}],"anonymous":false},{"type":"event","name":"CodeValidationRequested","inputs":[{"name":"codeId","type":"bytes32","indexed":false,"internalType":"bytes32"},{"name":"blobTxHash","type":"bytes32","indexed":false,"internalType":"bytes32"}],"anonymous":false},{"type":"event","name":"ComputationSettingsChanged","inputs":[{"name":"threshold","type":"uint64","indexed":false,"internalType":"uint64"},{"name":"wvaraPerSecond","type":"uint128","indexed":false,"internalType":"uint128"}],"anonymous":false},{"type":"event","name":"Initialized","inputs":[{"name":"version","type":"uint64","indexed":false,"internalType":"uint64"}],"anonymous":false},{"type":"event","name":"NextEraValidatorsCommitted","inputs":[{"name":"startTimestamp","type":"uint256","indexed":false,"internalType":"uint256"}],"anonymous":false},{"type":"event","name":"OwnershipTransferred","inputs":[{"name":"previousOwner","type":"address","indexed":true,"internalType":"address"},{"name":"newOwner","type":"address","indexed":true,"internalType":"address"}],"anonymous":false},{"type":"event","name":"ProgramCreated","inputs":[{"name":"actorId","type":"address","indexed":false,"internalType":"address"},{"name":"codeId","type":"bytes32","indexed":true,"internalType":"bytes32"}],"anonymous":false},{"type":"event","name":"StorageSlotChanged","inputs":[],"anonymous":false},{"type":"error","name":"ECDSAInvalidSignature","inputs":[]},{"type":"error","name":"ECDSAInvalidSignatureLength","inputs":[{"name":"length","type":"uint256","internalType":"uint256"}]},{"type":"error","name":"ECDSAInvalidSignatureS","inputs":[{"name":"s","type":"bytes32","internalType":"bytes32"}]},{"type":"error","name":"FailedDeployment","inputs":[]},{"type":"error","name":"InsufficientBalance","inputs":[{"name":"balance","type":"uint256","internalType":"uint256"},{"name":"needed","type":"uint256","internalType":"uint256"}]},{"type":"error","name":"InvalidInitialization","inputs":[]},{"type":"error","name":"NotInitializing","inputs":[]},{"type":"error","name":"OwnableInvalidOwner","inputs":[{"name":"owner","type":"address","internalType":"address"}]},{"type":"error","name":"OwnableUnauthorizedAccount","inputs":[{"name":"account","type":"address","internalType":"address"}]},{"type":"error","name":"ReentrancyGuardReentrantCall","inputs":[]}],"bytecode":{"object":"0x6080806040523460aa575f5160206130735f395f51905f525460ff8160401c16609b576002600160401b03196001600160401b038216016049575b604051612fc490816100af8239f35b6001600160401b0319166001600160401b039081175f5160206130735f395f51905f525581527fc7f505b2f371ae2175ee4913f4499e1f2633a7b5936321eed1cdaeb6115181d290602090a15f80603a565b63f92ee8a960e01b5f5260045ffd5b5f80fdfe6080806040526004361015610012575f80fd5b5f905f3560e01c9081627a32e71461219e5750806301b1d156146119f75780631c149d8a1461189e57806328e24b3d146118745780633d43b41814611822578063527de0f9146117a057806365ecfea2146117675780636c2eb3501461147c578063715018a61461141357806382bdeaad146112fb57806384d22a4f1461129257806388f50cf0146112595780638b1edf1e146111925780638da5cb5b1461115d5780638f381dbe146111175780639067088e146110ce57806396a2ddfa146110a0578063aaf0fe6a14610d28578063b1669a331461086d578063baaf020114610770578063c13911e81461072c578063c9f16a11146106fe578063ca1e78191461067b578063cacf66ab14610643578063e6fabc091461060a578063e7006a74146104e9578063e97d3eb3146102b5578063ed612f8c1461027d578063edc8722514610233578063efd81abc14610201578063f2fde38b146101d45763facd743b1461017d575f80fd5b346101d15760203660031901126101d15761019661220e565b6101af5f516020612f4f5f395f51905f52544290612c7f565b9060018060a01b03165f52602052602060ff60405f2054166040519015158152f35b80fd5b50346101d15760203660031901126101d1576101fe6101f161220e565b6101f9612926565b6125e8565b80f35b50346101d157806003193601126101d157602061ffff60075f516020612f4f5f395f51905f5254015416604051908152f35b50346101d157806003193601126101d15760206102755f516020612f4f5f395f51905f525461ffff600760016102694285612c7f565b01549201541690612c06565b604051908152f35b50346101d157806003193601126101d157602060016102ab5f516020612f4f5f395f51905f52544290612c7f565b0154604051908152f35b50346101d15760403660031901126101d157600435906001600160401b0382116101d157366023830112156101d1578160040135916001600160401b0383116104e5573660248460061b830101116104e5576024356001600160401b0381116104e15790610328849236906004016121c8565b935f516020612f4f5f395f51905f52549261034584541515612245565b606095829360128601975b878610156104c3578560061b84016024810135918287528a60205260ff60408820541660038110156104af5760010361044c576001926103ff604461042c9401610399816125cd565b1561043457828a528d60205260408a20600260ff1982541617905560158c016103c281546125da565b90555b6103ce816125cd565b15157f460119a8f69a33ed127de517d5ea464e958ce23ef19e4420a8b92bf780bbc2c96020604051868152a26125cd565b6040519060208201928352151560f81b604082015260218152610423604182612301565b51902090612322565b950194610350565b828a528d60205260408a2060ff1981541690556103c5565b60405162461bcd60e51b815260206004820152603560248201527f636f6465206d7573742062652072657175657374656420666f722076616c6964604482015274185d1a5bdb881d1bc818994818dbdb5b5a5d1d1959605a1b6064820152608490fd5b634e487b7160e01b88526021600452602488fd5b8685936101fe936104dc93602081519101204293612659565b612364565b8280fd5b5080fd5b50346101d15760603660031901126101d15761050361220e565b6024359061054b604435916105188385612959565b936040519360208501918252604085015260408452610538606085612301565b92519092206001600160a01b0392612e49565b16803b156104e15760405163189acdbd60e31b81526001600160a01b0390921660048301819052918390818160248183875af180156105ff576105ea575b5050813b156104e1576040519063485cc95560e01b82523360048301526024820152828160448183865af180156105df576105ca575b602082604051908152f35b6105d5838092612301565b6104e557816105bf565b6040513d85823e3d90fd5b816105f491612301565b6104e157825f610589565b6040513d84823e3d90fd5b50346101d157806003193601126101d1575f516020612f4f5f395f51905f5254600401546040516001600160a01b039091168152602090f35b50346101d157806003193601126101d157602065ffffffffffff60015f516020612f4f5f395f51905f52540154821c16604051908152f35b50346101d157806003193601126101d1576106b060016106aa5f516020612f4f5f395f51905f52544290612c7f565b016123b0565b90604051918291602083016020845282518091526020604085019301915b8181106106dc575050500390f35b82516001600160a01b03168452859450602093840193909201916001016106ce565b50346101d157806003193601126101d157602060025f516020612f4f5f395f51905f52540154604051908152f35b50346101d15760203660031901126101d15760ff604060209260125f516020612f4f5f395f51905f5254016004358252845220541661076e6040518092612238565bf35b50346101d15760203660031901126101d1576004356001600160401b0381116104e5576107a19036906004016121c8565b905f516020612f4f5f395f51905f5254906107bb83612401565b916107c96040519384612301565b8383526107d584612401565b602084019490601f19013686376013869201915b81811061083457868587604051928392602084019060208552518091526040840192915b81811061081b575050500390f35b825184528594506020938401939092019160010161080d565b8061084a6108456001938588612418565b612468565b828060a01b03165f528360205260405f2054610866828861243c565b52016107e9565b50346101d15760e03660031901126101d15761088761220e565b6024356001600160a01b03811691908290036104e1576044356001600160a01b0381169290839003610d24576064356001600160a01b0381169190829003610d20576084359160a43560c4356001600160401b038111610d1c576108ef9036906004016121c8565b9490925f516020612f6f5f395f51905f52549660ff8860401c1615976001600160401b03811680159081610d14575b6001149081610d0a575b159081610d01575b50610cf25767ffffffffffffffff1981166001175f516020612f6f5f395f51905f525561096f919089610cc6575b50610967612d84565b6101f9612d84565b4215610c70578215610c1a5782821115610bb95760409788516109928a82612301565b6017815260208101907f726f757465722e73746f726167652e526f75746572563100000000000000000082526109c6612926565b5190205f198101908111610ba55792610b4b97969592600895928b610b44966109fc825192602084019283526020845283612301565b60ff19915190201697885f516020612f4f5f395f51905f52558c610a1e612a8d565b80518b5560018b019169ffffffffffff0000000063ffffffff60208401511691845493015160201b169169ffffffffffffffffffff191617179055828d8051610a66816122e6565b8381526020810185905201526004890180546001600160a01b03199081166001600160a01b039384161790915560058a018054821693831693909317909255600689018054909216921691909117905560078601805461ffff1916611a0a179055610acf612450565b506509184e72a00060208b51610ae4816122b7565b639502f90081520152600e860180546001600160c01b0319166d09184e72a000000000009502f90017905589516064908b90610b1f816122e6565b8381528460208201520152600f86015560108501556064601185015542943691612544565b9101612ad2565b610b53575080f35b60207fc7f505b2f371ae2175ee4913f4499e1f2633a7b5936321eed1cdaeb6115181d29160ff60401b195f516020612f6f5f395f51905f5254165f516020612f6f5f395f51905f52555160018152a180f35b634e487b7160e01b8b52601160045260248bfd5b60405162461bcd60e51b815260206004820152603360248201527f657261206475726174696f6e206d757374206265206772656174657220746861604482015272371032b632b1ba34b7b710323ab930ba34b7b760691b6064820152608490fd5b60405162461bcd60e51b815260206004820152602860248201527f656c656374696f6e206475726174696f6e206d75737420626520677265617465604482015267072207468616e20360c41b6064820152608490fd5b60405162461bcd60e51b815260206004820152602860248201527f63757272656e742074696d657374616d70206d75737420626520677265617465604482015267072207468616e20360c41b6064820152608490fd5b68ffffffffffffffffff191668010000000000000001175f516020612f6f5f395f51905f52555f61095e565b63f92ee8a960e01b8b5260048bfd5b9050155f610930565b303b159150610928565b8a915061091e565b8780fd5b8480fd5b8380fd5b50346101d15760403660031901126101d157600435906001600160401b0382116101d15781600401604060031984360301126104e5576024356001600160401b0381116104e157610d7d9036906004016121c8565b91905f516020612f4f5f395f51905f525465ffffffffffff600182015460201c1693610da985426124e5565b610db8600f8401548092612506565b956024890135966001810180911161108c57870361103457610ddd87610de393612531565b90612524565b92610df26010840154856124e5565b4210610fef57610e0183612beb565b954260028801541015610f8f5760405198610e1b8a6122b7565b8635906001600160401b038211610f8b570136602382011215610f87576020610e4f83923690602460048201359101612544565b9a8b8152015260405160208101918260208c51919c01908b5b818110610f68575050506020828c610e8e93610eb79a9b9c9d9e52038084520182612301565b51902092604051936020850190815260208552610eac604086612301565b429451902090612659565b15610f0857610efe817f41e7f919bf726af8aa2ef36bd31905a693013e30c45c6284060e613d4941997b94610ef8610ef186602097612598565b3691612544565b90612ad2565b604051908152a180f35b60405162461bcd60e51b815260206004820152603260248201527f6e657874206572612076616c696461746f7273207369676e6174757265732076604482015271195c9a599a58d85d1a5bdb8819985a5b195960721b6064820152608490fd5b82516001600160a01b03168e5260209d8e019d90920191600101610e68565b8880fd5b8980fd5b60405162461bcd60e51b815260206004820152603260248201527f6c6f6f6b73206c696b652076616c696461746f727320666f72206e65787420656044820152711c9848185c9948185b1c9958591e481cd95d60721b6064820152608490fd5b60405162461bcd60e51b815260206004820152601b60248201527f656c656374696f6e206973206e6f7420796574207374617274656400000000006044820152606490fd5b60405162461bcd60e51b815260206004820152602a60248201527f636f6d6d69746d656e742065726120696e646578206973206e6f74206e657874604482015269040cae4c240d2dcc8caf60b31b6064820152608490fd5b634e487b7160e01b89526011600452602489fd5b50346101d157806003193601126101d157602060145f516020612f4f5f395f51905f52540154604051908152f35b50346101d15760203660031901126101d1576110e861220e565b60135f516020612f4f5f395f51905f5254019060018060a01b03165f52602052602060405f2054604051908152f35b50346101d15760203660031901126101d157600435906001600160401b0382116101d157602061115361114d36600486016121c8565b9061247c565b6040519015158152f35b50346101d157806003193601126101d1575f516020612f2f5f395f51905f52546040516001600160a01b039091168152602090f35b50346101d157806003193601126101d1575f516020612f4f5f395f51905f525480546112145763ffffffff600182015416409081156111cf575580f35b60405162461bcd60e51b815260206004820152601d60248201527f756e61626c6520746f206c6f6f6b75702067656e6573697320686173680000006044820152606490fd5b60405162461bcd60e51b815260206004820152601860248201527f67656e65736973206861736820616c72656164792073657400000000000000006044820152606490fd5b50346101d157806003193601126101d1575f516020612f4f5f395f51905f5254600601546040516001600160a01b039091168152602090f35b50346101d157806003193601126101d1576112ab612450565b506040600e5f516020612f4f5f395f51905f5254016001600160801b038251916112d4836122b7565b548160206001600160401b038316948581520191851c168152835192835251166020820152f35b50346101d15760203660031901126101d1576004356001600160401b0381116104e55761132c9036906004016121c8565b905f516020612f4f5f395f51905f52549061134683612401565b916113546040519384612301565b83835261136084612401565b602084019490601f19013686376012869201915b8181106113c957868587604051928392602084019060208552518091526040840192915b8181106113a6575050500390f35b91935091602080826113bb6001948851612238565b019401910191849392611398565b6113d4818386612418565b3587528260205260ff6040882054166113ed828761243c565b60038210156113ff5752600101611374565b634e487b7160e01b89526021600452602489fd5b50346101d157806003193601126101d15761142c612926565b5f516020612f2f5f395f51905f5280546001600160a01b0319811690915581906001600160a01b03167f8be0079c531659141344cd1fd0a4f28419497f9722a3daafe3b4186f6b6457e08280a380f35b50346101d157806003193601126101d157611495612926565b5f516020612f6f5f395f51905f525460ff8160401c168015611753575b61174457680100000000000000029068ffffffffffffffffff1916175f516020612f6f5f395f51905f52555f516020612f4f5f395f51905f525460409081516114fb8382612301565b6017815260208101907f726f757465722e73746f726167652e526f757465725632000000000000000000825261152f612926565b5190205f19810190811161173057916020917fc7f505b2f371ae2175ee4913f4499e1f2633a7b5936321eed1cdaeb6115181d2938251908482019081528482526115798483612301565b60ff19915190201690815f516020612f4f5f395f51905f525561159a612a8d565b80518355600183019063ffffffff868201511669ffffffffffff00000000868454930151881b169169ffffffffffffffffffff1916171790556004810160048301908082036116e2575b505061ffff600782015416600783019061ffff1982541617905561161a4261161160016106aa4286612c7f565b60088501612ad2565b600e8101600e830190808203611690575b5050600f8101600f830191818303611670575b5050505060ff60401b195f516020612f6f5f395f51905f5254165f516020612f6f5f395f51905f52555160028152a180f35b60119283925490556010810154601085015501549101555f80808061163e565b806001600160401b03806001600160801b03935416166001600160401b031984541617835554851c16600160401b600160c01b03825491861b1690600160401b600160c01b0319161790555f8061162b565b5481546001600160a01b03199081166001600160a01b039283161790925560058381015490850180548416918316919091179055600680840154908501805490931691161790555f806115e4565b634e487b7160e01b84526011600452602484fd5b63f92ee8a960e01b8252600482fd5b5060026001600160401b03821610156114b2565b50346101d157806003193601126101d1575f516020612f4f5f395f51905f5254600501546040516001600160a01b039091168152602090f35b3461181e576117c06117b1366121f8565b6001600160a01b039291612959565b16803b1561181e576040519063485cc95560e01b82523360048301525f60248301525f8260448183855af191821561181357602092611803575b50604051908152f35b5f61180d91612301565b5f6117fa565b6040513d5f823e3d90fd5b5f80fd5b3461181e57602036600319011261181e5761183b61220e565b611843612926565b5f516020612f4f5f395f51905f525460040180546001600160a01b0319166001600160a01b03909216919091179055005b3461181e575f36600319011261181e5760205f516020612f4f5f395f51905f525454604051908152f35b3461181e576118ac366121f8565b9081158015906119ed575b156119b25760125f516020612f4f5f395f51905f52546118d981541515612245565b0190805f528160205260ff60405f205416600381101561199e5761193d577f65672eaf4ff8b823ea29ae013fef437d1fa9ed431125263a7a1f0ac49eada39692604092825f52602052825f20600160ff1982541617905582519182526020820152a1005b60405162461bcd60e51b815260206004820152603360248201527f676976656e20636f646520696420697320616c7265616479206f6e2076616c6960448201527219185d1a5bdb881bdc881d985b1a59185d1959606a1b6064820152608490fd5b634e487b7160e01b5f52602160045260245ffd5b60405162461bcd60e51b8152602060048201526013602482015272189b1bd88818d85b89dd08189948199bdd5b99606a1b6044820152606490fd5b505f4915156118b7565b3461181e57604036600319011261181e576004356001600160401b03811161181e57611a279036906004016121c8565b6024356001600160401b03811161181e57611a469036906004016121c8565b92907f9b779b17422d0df92223018b32b4d1fa46e071723d6817e2486d003becc55f005c61218f5760017f9b779b17422d0df92223018b32b4d1fa46e071723d6817e2486d003becc55f005d5f516020612f4f5f395f51905f525491611aae83541515612245565b831561214a5790935f908160605b8684101561210d578360051b850135609e198636030181121561181e5785019260028701546040850135036120ba57611af86060850135612c28565b15612066576020611b0a818601612351565b65ffffffffffff60405191611b1e836122b7565b873583521691829101528435600289015565ffffffffffff19600389015416176003880155611b506080850185612598565b9890965f9260605b8b851015611f85578460051b8a013560be198b36030181121561181e578a01611b8081612468565b6001600160a01b03165f90815260138d01602052604090205415611f285760068c01546001600160a01b0316611bb582612468565b90606083019182356001600160801b03811680910361181e5760405163a9059cbb60e01b81526001600160a01b039092166004830152602482015290602090829060449082905f905af1801561181357611ef2575b506001600160a01b03611c1c83612468565b6040516309ed323560e41b8152602060048201529391169160e4840191906001600160801b0390611c87906001600160a01b03611c5885612224565b166024880152602084013560448801526001600160a01b03611c7c60408601612224565b166064880152612c6b565b16608485015236819003601e190160808201358181121561181e578201602081359101936001600160401b03821161181e57606082023603851361181e57819060c060a489015252610104860193905f905b808210611ea85750505060a08201359081121561181e570190813560208301926001600160401b03821161181e578160051b91823603851361181e578684036023190160c48801528084528694928401602090810194908101925f923682900360de19019290915b828510611daf575050505050505091815f8160209503925af1908115611813575f91611d7d575b50611d7590600192612322565b940193611b58565b90506020813d8211611da7575b81611d9760209383612301565b8101031261181e57516001611d68565b3d9150611d8a565b9193959750919395601f1983820301875287358581121561181e57820160208101358252906001600160a01b03611de860408401612224565b1660208201526060820135603e19368490030181121561181e5782602091010191602083359301906001600160401b03841161181e57833603821361181e578360c092836040860152818486015260e08501375f60e085850101526001600160801b03611e5760808301612c6b565b16606084015260a0810135608084015201359163ffffffff60e01b831680930361181e5760e0826020939260019560a086950152601f80199101160101990197019501929091899796959492611d41565b90919460608060019288358152838060a01b03611ec760208b01612224565b1660208201526001600160801b03611ee160408b01612c6b565b166040820152019601920190611cd9565b6020813d8211611f20575b81611f0a60209383612301565b8101031261181e57518015158114611c0a575f80fd5b3d9150611efd565b60405162461bcd60e51b815260206004820152602f60248201527f636f756c646e277420706572666f726d207472616e736974696f6e20666f722060448201526e756e6b6e6f776e2070726f6772616d60881b6064820152608490fd5b919794929a50959a94975061201d9250602081519101207fd756eca21e02cb0dbde1e44a4d9c6921b5c8aa4668cfa0752784b3dc855bce1e60206040518d358152a1611fd360208c01612351565b906040519060208201928d35845265ffffffffffff60d01b9060d01b16604083015260408d0135604683015260608d0135606683015260868201526086815261042360a682612301565b978565ffffffffffff61203260208401612351565b1611612046575b5060010192939096611abc565b600191955061205e602065ffffffffffff9201612351565b169490612039565b60405162461bcd60e51b815260206004820152602660248201527f616c6c6f776564207072656465636573736f7220626c6f636b207761736e277460448201526508199bdd5b9960d21b6064820152608490fd5b60405162461bcd60e51b815260206004820152602560248201527f696e76616c69642070726576696f757320636f6d6d697474656420626c6f636b604482015264040d0c2e6d60db1b6064820152608490fd5b906121259288876104dc946020815191012090612659565b5f7f9b779b17422d0df92223018b32b4d1fa46e071723d6817e2486d003becc55f005d005b60405162461bcd60e51b815260206004820152601e60248201527f6e6f20626c6f636b20636f6d6d69746d656e747320746f20636f6d6d697400006044820152606490fd5b633ee5aeb560e01b5f5260045ffd5b3461181e575f36600319011261181e5760209060155f516020612f4f5f395f51905f525401548152f35b9181601f8401121561181e578235916001600160401b03831161181e576020808501948460051b01011161181e57565b604090600319011261181e576004359060243590565b600435906001600160a01b038216820361181e57565b35906001600160a01b038216820361181e57565b90600382101561199e5752565b1561224c57565b60405162461bcd60e51b815260206004820152603860248201527f726f757465722067656e65736973206973207a65726f3b2063616c6c20606c6f60448201527f6f6b757047656e657369734861736828296020666972737400000000000000006064820152608490fd5b604081019081106001600160401b038211176122d257604052565b634e487b7160e01b5f52604160045260245ffd5b606081019081106001600160401b038211176122d257604052565b90601f801991011681019081106001600160401b038211176122d257604052565b60208061234f928195946040519682889351918291018585015e8201908382015203018085520183612301565b565b3565ffffffffffff8116810361181e5790565b1561236b57565b60405162461bcd60e51b815260206004820152601e60248201527f7369676e61747572657320766572696669636174696f6e206661696c656400006044820152606490fd5b90604051918281549182825260208201905f5260205f20925f5b8181106123df57505061234f92500383612301565b84546001600160a01b03168352600194850194879450602090930192016123ca565b6001600160401b0381116122d25760051b60200190565b91908110156124285760051b0190565b634e487b7160e01b5f52603260045260245ffd5b80518210156124285760209160051b010190565b6040519061245d826122b7565b5f6020838281520152565b356001600160a01b038116810361181e5790565b6124955f516020612f4f5f395f51905f52544290612c7f565b905f5b8381106124a85750505050600190565b6124b6610845828685612418565b6001600160a01b03165f9081526020849052604090205460ff16156124dd57600101612498565b505050505f90565b919082039182116124f257565b634e487b7160e01b5f52601160045260245ffd5b8115612510570490565b634e487b7160e01b5f52601260045260245ffd5b919082018092116124f257565b818102929181159184041417156124f257565b92919061255081612401565b9361255e6040519586612301565b602085838152019160051b810192831161181e57905b82821061258057505050565b6020809161258d84612224565b815201910190612574565b903590601e198136030182121561181e57018035906001600160401b03821161181e57602001918160051b3603831361181e57565b35801515810361181e5790565b5f1981146124f25760010190565b6001600160a01b03168015612646575f516020612f2f5f395f51905f5280546001600160a01b0319811683179091556001600160a01b03167f8be0079c531659141344cd1fd0a4f28419497f9722a3daafe3b4186f6b6457e05f80a3565b631e4fbdf760e01b5f525f60045260245ffd5b90929365ffffffffffff600183015460201c1661268d61269861269261267f84426124e5565b600f87015493848092612506565b612531565b83612524565b9182841080612910575b156128ab578310612866576126b79083612524565b10612815576126ca6126df915b83612c7f565b9161ffff600760018501549201541690612c06565b926040519060208201908152602082526126fa604083612301565b612736603660405180936020820195601960f81b87523060601b60228401525180918484015e81015f838201520301601f198101835282612301565b5190205f925f5b8681101561280a578060051b820135601e198336030181121561181e5782018035906001600160401b03821161181e576020810190823603821361181e5760405190612793601f8501601f191660200183612301565b838252602084369201011161181e575f6020846127c5956127bc95838601378301015285612daf565b90929192612de9565b6001600160a01b03165f9081526020859052604090205460ff166127ec575b60010161273d565b936127f6906125da565b938585036127e45750505050505050600190565b505050505050505f90565b60405162461bcd60e51b8152602060048201526024808201527f74696d657374616d70206973206f6c646572207468616e2070726576696f75736044820152632065726160e01b6064820152608490fd5b60405162461bcd60e51b815260206004820152601e60248201527f63616e6e6f742076616c6964617465206265666f72652067656e6573697300006044820152606490fd5b5050504281116128c1576126ca6126df916126c4565b60405162461bcd60e51b815260206004820152602160248201527f74696d657374616d702063616e6e6f7420626520696e207468652066757475726044820152606560f81b6064820152608490fd5b5061291f601186015484612524565b42106126a2565b5f516020612f2f5f395f51905f52546001600160a01b0316330361294657565b63118cdaa760e01b5f523360045260245ffd5b5f516020612f4f5f395f51905f52549161297583541515612245565b815f526012830160205260ff60405f205416600381101561199e57600203612a31576129d360149160018060a01b036005860154169060405160208101918683526040820152604081526129ca606082612301565b51902090612e49565b9260018060a01b0384165f52601381016020528260405f2055016129f781546125da565b90556040516001600160a01b03831681527f8008ec1d8798725ebfa0f2d128d52e8e717dcba6e0f786557eeee70614b02bf190602090a290565b60405162461bcd60e51b815260206004820152602e60248201527f636f6465206d7573742062652076616c696461746564206265666f726520707260448201526d37b3b930b69031b932b0ba34b7b760911b6064820152608490fd5b5f60408051612a9b816122e6565b8281528260208201520152604051612ab2816122e6565b5f815263ffffffff4316602082015265ffffffffffff4216604082015290565b905f5b60018301908154811015612b12575f91825260208083208201546001600160a01b031683528490526040909120805460ff19169055600101612ad5565b50505f5b8151811015612b57576001906001600160a01b03612b34828561243c565b5116828060a01b03165f528360205260405f208260ff1982541617905501612b16565b50600182018151916001600160401b0383116122d2576801000000000000000083116122d2578154838355808410612bc5575b50602001905f5260205f205f5b838110612ba8575050505060020155565b82516001600160a01b031681830155602090920191600101612b97565b825f528360205f2091820191015b818110612be05750612b8a565b5f8155600101612bd3565b612bf54282612c9b565b15612c005760080190565b600b0190565b61ffff612c14921690612531565b61270f81018091116124f257612710900490565b905f1943014381116124f257805b612c41575b505f9150565b8040838103612c5257506001925050565b15612c665780156124f2575f190180612c36565b612c3b565b35906001600160801b038216820361181e57565b90612c8a9082612c9b565b15612c9557600b0190565b60080190565b90600d600a830154920154808314612d4057818184109311918215911115918190612d39575b15612cd65782612cd057505090565b14919050565b60405162461bcd60e51b815260206004820152603560248201527f636f756c64206e6f74206964656e746966792076616c696461746f727320666f6044820152740722074686520676976656e2074696d657374616d7605c1b6064820152608490fd5b5081612cc1565b606460405162461bcd60e51b815260206004820152602060248201527f657261732074696d657374616d70206d757374206e6f7420626520657175616c6044820152fd5b60ff5f516020612f6f5f395f51905f525460401c1615612da057565b631afcd79f60e31b5f5260045ffd5b8151919060418303612ddf57612dd89250602082015190606060408401519301515f1a90612eac565b9192909190565b50505f9160029190565b600481101561199e5780612dfb575050565b60018103612e125763f645eedf60e01b5f5260045ffd5b60028103612e2d575063fce698f760e01b5f5260045260245ffd5b600314612e375750565b6335e2f38360e21b5f5260045260245ffd5b6e5af43d82803e903d91602b57fd5bf390763d602d80600a3d3981f3363d3d373d3d3d363d7300000062ffffff8260881c16175f5260781b17602052603760095ff5906001600160a01b03821615612e9d57565b63b06ebf3d60e01b5f5260045ffd5b91907f7fffffffffffffffffffffffffffffff5d576e7357a4501ddfe92f46681b20a08411612f23579160209360809260ff5f9560405194855216868401526040830152606082015282805260015afa15611813575f516001600160a01b03811615612f1957905f905f90565b505f906001905f90565b5050505f916003919056fe9016d09d72d40fdae2fd8ceac6b6234c7706214fd39c1cd1e609a0528c1993005c09ca1b9b8127a4fd9f3c384aac59b661441e820e17733753ff5f2e86e1e000f0c57e16840df040f15088dc2f81fe391c3923bec73e23a9662efc9c229c6a00a264697066735822122047770aa8624e12feebd9696638d6e625d50d627e7c2ed33507368e740a81f5a064736f6c634300081c0033f0c57e16840df040f15088dc2f81fe391c3923bec73e23a9662efc9c229c6a00","linkReferences":{}},"methodIdentifiers":{"areValidators(address[])":"8f381dbe","codeState(bytes32)":"c13911e8","codesStates(bytes32[])":"82bdeaad","commitBlocks((bytes32,uint48,bytes32,bytes32,(address,bytes32,address,uint128,(bytes32,address,uint128)[],(bytes32,address,bytes,uint128,(bytes32,bytes4))[])[])[],bytes[])":"01b1d156","commitCodes((bytes32,bool)[],bytes[])":"e97d3eb3","commitValidators((address[],uint256),bytes[])":"aaf0fe6a","computeSettings()":"84d22a4f","createProgram(bytes32,bytes32)":"527de0f9","createProgramWithDecoder(address,bytes32,bytes32)":"e7006a74","genesisBlockHash()":"28e24b3d","genesisTimestamp()":"cacf66ab","initialize(address,address,address,address,uint256,uint256,address[])":"b1669a33","isValidator(address)":"facd743b","latestCommittedBlockHash()":"c9f16a11","lookupGenesisHash()":"8b1edf1e","mirrorImpl()":"e6fabc09","mirrorProxyImpl()":"65ecfea2","owner()":"8da5cb5b","programCodeId(address)":"9067088e","programsCodeIds(address[])":"baaf0201","programsCount()":"96a2ddfa","reinitialize()":"6c2eb350","renounceOwnership()":"715018a6","requestCodeValidation(bytes32,bytes32)":"1c149d8a","setMirror(address)":"3d43b418","signingThresholdPercentage()":"efd81abc","transferOwnership(address)":"f2fde38b","validatedCodesCount()":"007a32e7","validators()":"ca1e7819","validatorsCount()":"ed612f8c","validatorsThreshold()":"edc87225","wrappedVara()":"88f50cf0"},"storageLayout":{"storage":[],"types":{}},"id":120}