{"abi":[{"type":"constructor","inputs":[],"stateMutability":"nonpayable"},{"type":"receive","stateMutability":"payable"},{"type":"function","name":"areValidators","inputs":[{"name":"_validators","type":"address[]","internalType":"address[]"}],"outputs":[{"name":"","type":"bool","internalType":"bool"}],"stateMutability":"view"},{"type":"function","name":"codeState","inputs":[{"name":"_codeId","type":"bytes32","internalType":"bytes32"}],"outputs":[{"name":"","type":"uint8","internalType":"enum Gear.CodeState"}],"stateMutability":"view"},{"type":"function","name":"codesStates","inputs":[{"name":"_codesIds","type":"bytes32[]","internalType":"bytes32[]"}],"outputs":[{"name":"","type":"uint8[]","internalType":"enum Gear.CodeState[]"}],"stateMutability":"view"},{"type":"function","name":"commitBatch","inputs":[{"name":"_batch","type":"tuple","internalType":"struct Gear.BatchCommitment","components":[{"name":"blockHash","type":"bytes32","internalType":"bytes32"},{"name":"blockTimestamp","type":"uint48","internalType":"uint48"},{"name":"previousCommittedBatchHash","type":"bytes32","internalType":"bytes32"},{"name":"expiry","type":"uint8","internalType":"uint8"},{"name":"chainCommitment","type":"tuple[]","internalType":"struct Gear.ChainCommitment[]","components":[{"name":"transitions","type":"tuple[]","internalType":"struct Gear.StateTransition[]","components":[{"name":"actorId","type":"address","internalType":"address"},{"name":"newStateHash","type":"bytes32","internalType":"bytes32"},{"name":"exited","type":"bool","internalType":"bool"},{"name":"inheritor","type":"address","internalType":"address"},{"name":"valueToReceive","type":"uint128","internalType":"uint128"},{"name":"valueToReceiveNegativeSign","type":"bool","internalType":"bool"},{"name":"valueClaims","type":"tuple[]","internalType":"struct Gear.ValueClaim[]","components":[{"name":"messageId","type":"bytes32","internalType":"bytes32"},{"name":"destination","type":"address","internalType":"address"},{"name":"value","type":"uint128","internalType":"uint128"}]},{"name":"messages","type":"tuple[]","internalType":"struct Gear.Message[]","components":[{"name":"id","type":"bytes32","internalType":"bytes32"},{"name":"destination","type":"address","internalType":"address"},{"name":"payload","type":"bytes","internalType":"bytes"},{"name":"value","type":"uint128","internalType":"uint128"},{"name":"replyDetails","type":"tuple","internalType":"struct Gear.ReplyDetails","components":[{"name":"to","type":"bytes32","internalType":"bytes32"},{"name":"code","type":"bytes4","internalType":"bytes4"}]},{"name":"call","type":"bool","internalType":"bool"}]}]},{"name":"head","type":"bytes32","internalType":"bytes32"}]},{"name":"codeCommitments","type":"tuple[]","internalType":"struct Gear.CodeCommitment[]","components":[{"name":"id","type":"bytes32","internalType":"bytes32"},{"name":"valid","type":"bool","internalType":"bool"}]},{"name":"rewardsCommitment","type":"tuple[]","internalType":"struct Gear.RewardsCommitment[]","components":[{"name":"operators","type":"tuple","internalType":"struct Gear.OperatorRewardsCommitment","components":[{"name":"amount","type":"uint256","internalType":"uint256"},{"name":"root","type":"bytes32","internalType":"bytes32"}]},{"name":"stakers","type":"tuple","internalType":"struct Gear.StakerRewardsCommitment","components":[{"name":"distribution","type":"tuple[]","internalType":"struct Gear.StakerRewards[]","components":[{"name":"vault","type":"address","internalType":"address"},{"name":"amount","type":"uint256","internalType":"uint256"}]},{"name":"totalAmount","type":"uint256","internalType":"uint256"},{"name":"token","type":"address","internalType":"address"}]},{"name":"timestamp","type":"uint48","internalType":"uint48"}]},{"name":"validatorsCommitment","type":"tuple[]","internalType":"struct Gear.ValidatorsCommitment[]","components":[{"name":"aggregatedPublicKey","type":"tuple","internalType":"struct Gear.AggregatedPublicKey","components":[{"name":"x","type":"uint256","internalType":"uint256"},{"name":"y","type":"uint256","internalType":"uint256"}]},{"name":"verifiableSecretSharingCommitment","type":"bytes","internalType":"bytes"},{"name":"validators","type":"address[]","internalType":"address[]"},{"name":"eraIndex","type":"uint256","internalType":"uint256"}]}]},{"name":"_signatureType","type":"uint8","internalType":"enum Gear.SignatureType"},{"name":"_signatures","type":"bytes[]","internalType":"bytes[]"}],"outputs":[],"stateMutability":"nonpayable"},{"type":"function","name":"computeSettings","inputs":[],"outputs":[{"name":"","type":"tuple","internalType":"struct Gear.ComputationSettings","components":[{"name":"threshold","type":"uint64","internalType":"uint64"},{"name":"wvaraPerSecond","type":"uint128","internalType":"uint128"}]}],"stateMutability":"view"},{"type":"function","name":"createProgram","inputs":[{"name":"_codeId","type":"bytes32","internalType":"bytes32"},{"name":"_salt","type":"bytes32","internalType":"bytes32"},{"name":"_overrideInitializer","type":"address","internalType":"address"}],"outputs":[{"name":"","type":"address","internalType":"address"}],"stateMutability":"nonpayable"},{"type":"function","name":"createProgramWithAbiInterface","inputs":[{"name":"_codeId","type":"bytes32","internalType":"bytes32"},{"name":"_salt","type":"bytes32","internalType":"bytes32"},{"name":"_overrideInitializer","type":"address","internalType":"address"},{"name":"_abiInterface","type":"address","internalType":"address"}],"outputs":[{"name":"","type":"address","internalType":"address"}],"stateMutability":"nonpayable"},{"type":"function","name":"genesisBlockHash","inputs":[],"outputs":[{"name":"","type":"bytes32","internalType":"bytes32"}],"stateMutability":"view"},{"type":"function","name":"genesisTimestamp","inputs":[],"outputs":[{"name":"","type":"uint48","internalType":"uint48"}],"stateMutability":"view"},{"type":"function","name":"initialize","inputs":[{"name":"_owner","type":"address","internalType":"address"},{"name":"_mirror","type":"address","internalType":"address"},{"name":"_wrappedVara","type":"address","internalType":"address"},{"name":"_middleware","type":"address","internalType":"address"},{"name":"_eraDuration","type":"uint256","internalType":"uint256"},{"name":"_electionDuration","type":"uint256","internalType":"uint256"},{"name":"_validationDelay","type":"uint256","internalType":"uint256"},{"name":"_aggregatedPublicKey","type":"tuple","internalType":"struct Gear.AggregatedPublicKey","components":[{"name":"x","type":"uint256","internalType":"uint256"},{"name":"y","type":"uint256","internalType":"uint256"}]},{"name":"_verifiableSecretSharingCommitment","type":"bytes","internalType":"bytes"},{"name":"_validators","type":"address[]","internalType":"address[]"}],"outputs":[],"stateMutability":"nonpayable"},{"type":"function","name":"isValidator","inputs":[{"name":"_validator","type":"address","internalType":"address"}],"outputs":[{"name":"","type":"bool","internalType":"bool"}],"stateMutability":"view"},{"type":"function","name":"latestCommittedBatchHash","inputs":[],"outputs":[{"name":"","type":"bytes32","internalType":"bytes32"}],"stateMutability":"view"},{"type":"function","name":"latestCommittedBatchTimestamp","inputs":[],"outputs":[{"name":"","type":"uint48","internalType":"uint48"}],"stateMutability":"view"},{"type":"function","name":"lookupGenesisHash","inputs":[],"outputs":[],"stateMutability":"nonpayable"},{"type":"function","name":"middleware","inputs":[],"outputs":[{"name":"","type":"address","internalType":"address"}],"stateMutability":"view"},{"type":"function","name":"mirrorImpl","inputs":[],"outputs":[{"name":"","type":"address","internalType":"address"}],"stateMutability":"view"},{"type":"function","name":"owner","inputs":[],"outputs":[{"name":"","type":"address","internalType":"address"}],"stateMutability":"view"},{"type":"function","name":"programCodeId","inputs":[{"name":"_programId","type":"address","internalType":"address"}],"outputs":[{"name":"","type":"bytes32","internalType":"bytes32"}],"stateMutability":"view"},{"type":"function","name":"programsCodeIds","inputs":[{"name":"_programsIds","type":"address[]","internalType":"address[]"}],"outputs":[{"name":"","type":"bytes32[]","internalType":"bytes32[]"}],"stateMutability":"view"},{"type":"function","name":"programsCount","inputs":[],"outputs":[{"name":"","type":"uint256","internalType":"uint256"}],"stateMutability":"view"},{"type":"function","name":"reinitialize","inputs":[],"outputs":[],"stateMutability":"nonpayable"},{"type":"function","name":"renounceOwnership","inputs":[],"outputs":[],"stateMutability":"nonpayable"},{"type":"function","name":"requestCodeValidation","inputs":[{"name":"_codeId","type":"bytes32","internalType":"bytes32"}],"outputs":[],"stateMutability":"nonpayable"},{"type":"function","name":"setMirror","inputs":[{"name":"newMirror","type":"address","internalType":"address"}],"outputs":[],"stateMutability":"nonpayable"},{"type":"function","name":"signingThresholdPercentage","inputs":[],"outputs":[{"name":"","type":"uint16","internalType":"uint16"}],"stateMutability":"view"},{"type":"function","name":"storageView","inputs":[],"outputs":[{"name":"","type":"tuple","internalType":"struct Router.StorageView","components":[{"name":"genesisBlock","type":"tuple","internalType":"struct Gear.GenesisBlockInfo","components":[{"name":"hash","type":"bytes32","internalType":"bytes32"},{"name":"number","type":"uint32","internalType":"uint32"},{"name":"timestamp","type":"uint48","internalType":"uint48"}]},{"name":"latestCommittedBatch","type":"tuple","internalType":"struct Gear.CommittedBatchInfo","components":[{"name":"hash","type":"bytes32","internalType":"bytes32"},{"name":"timestamp","type":"uint48","internalType":"uint48"}]},{"name":"implAddresses","type":"tuple","internalType":"struct Gear.AddressBook","components":[{"name":"mirror","type":"address","internalType":"address"},{"name":"wrappedVara","type":"address","internalType":"address"},{"name":"middleware","type":"address","internalType":"address"}]},{"name":"validationSettings","type":"tuple","internalType":"struct Gear.ValidationSettingsView","components":[{"name":"signingThresholdPercentage","type":"uint16","internalType":"uint16"},{"name":"validators0","type":"tuple","internalType":"struct Gear.ValidatorsView","components":[{"name":"aggregatedPublicKey","type":"tuple","internalType":"struct Gear.AggregatedPublicKey","components":[{"name":"x","type":"uint256","internalType":"uint256"},{"name":"y","type":"uint256","internalType":"uint256"}]},{"name":"verifiableSecretSharingCommitmentPointer","type":"address","internalType":"address"},{"name":"list","type":"address[]","internalType":"address[]"},{"name":"useFromTimestamp","type":"uint256","internalType":"uint256"}]},{"name":"validators1","type":"tuple","internalType":"struct Gear.ValidatorsView","components":[{"name":"aggregatedPublicKey","type":"tuple","internalType":"struct Gear.AggregatedPublicKey","components":[{"name":"x","type":"uint256","internalType":"uint256"},{"name":"y","type":"uint256","internalType":"uint256"}]},{"name":"verifiableSecretSharingCommitmentPointer","type":"address","internalType":"address"},{"name":"list","type":"address[]","internalType":"address[]"},{"name":"useFromTimestamp","type":"uint256","internalType":"uint256"}]}]},{"name":"computeSettings","type":"tuple","internalType":"struct Gear.ComputationSettings","components":[{"name":"threshold","type":"uint64","internalType":"uint64"},{"name":"wvaraPerSecond","type":"uint128","internalType":"uint128"}]},{"name":"timelines","type":"tuple","internalType":"struct Gear.Timelines","components":[{"name":"era","type":"uint256","internalType":"uint256"},{"name":"election","type":"uint256","internalType":"uint256"},{"name":"validationDelay","type":"uint256","internalType":"uint256"}]},{"name":"programsCount","type":"uint256","internalType":"uint256"},{"name":"validatedCodesCount","type":"uint256","internalType":"uint256"}]}],"stateMutability":"view"},{"type":"function","name":"timelines","inputs":[],"outputs":[{"name":"","type":"tuple","internalType":"struct Gear.Timelines","components":[{"name":"era","type":"uint256","internalType":"uint256"},{"name":"election","type":"uint256","internalType":"uint256"},{"name":"validationDelay","type":"uint256","internalType":"uint256"}]}],"stateMutability":"view"},{"type":"function","name":"transferOwnership","inputs":[{"name":"newOwner","type":"address","internalType":"address"}],"outputs":[],"stateMutability":"nonpayable"},{"type":"function","name":"validatedCodesCount","inputs":[],"outputs":[{"name":"","type":"uint256","internalType":"uint256"}],"stateMutability":"view"},{"type":"function","name":"validators","inputs":[],"outputs":[{"name":"","type":"address[]","internalType":"address[]"}],"stateMutability":"view"},{"type":"function","name":"validatorsAggregatedPublicKey","inputs":[],"outputs":[{"name":"","type":"tuple","internalType":"struct Gear.AggregatedPublicKey","components":[{"name":"x","type":"uint256","internalType":"uint256"},{"name":"y","type":"uint256","internalType":"uint256"}]}],"stateMutability":"view"},{"type":"function","name":"validatorsCount","inputs":[],"outputs":[{"name":"","type":"uint256","internalType":"uint256"}],"stateMutability":"view"},{"type":"function","name":"validatorsThreshold","inputs":[],"outputs":[{"name":"","type":"uint256","internalType":"uint256"}],"stateMutability":"view"},{"type":"function","name":"validatorsVerifiableSecretSharingCommitment","inputs":[],"outputs":[{"name":"","type":"bytes","internalType":"bytes"}],"stateMutability":"view"},{"type":"function","name":"wrappedVara","inputs":[],"outputs":[{"name":"","type":"address","internalType":"address"}],"stateMutability":"view"},{"type":"event","name":"AnnouncesCommitted","inputs":[{"name":"head","type":"bytes32","indexed":false,"internalType":"bytes32"}],"anonymous":false},{"type":"event","name":"BatchCommitted","inputs":[{"name":"hash","type":"bytes32","indexed":false,"internalType":"bytes32"}],"anonymous":false},{"type":"event","name":"CodeGotValidated","inputs":[{"name":"codeId","type":"bytes32","indexed":false,"internalType":"bytes32"},{"name":"valid","type":"bool","indexed":true,"internalType":"bool"}],"anonymous":false},{"type":"event","name":"CodeValidationRequested","inputs":[{"name":"codeId","type":"bytes32","indexed":false,"internalType":"bytes32"}],"anonymous":false},{"type":"event","name":"ComputationSettingsChanged","inputs":[{"name":"threshold","type":"uint64","indexed":false,"internalType":"uint64"},{"name":"wvaraPerSecond","type":"uint128","indexed":false,"internalType":"uint128"}],"anonymous":false},{"type":"event","name":"Initialized","inputs":[{"name":"version","type":"uint64","indexed":false,"internalType":"uint64"}],"anonymous":false},{"type":"event","name":"OwnershipTransferred","inputs":[{"name":"previousOwner","type":"address","indexed":true,"internalType":"address"},{"name":"newOwner","type":"address","indexed":true,"internalType":"address"}],"anonymous":false},{"type":"event","name":"ProgramCreated","inputs":[{"name":"actorId","type":"address","indexed":false,"internalType":"address"},{"name":"codeId","type":"bytes32","indexed":true,"internalType":"bytes32"}],"anonymous":false},{"type":"event","name":"StorageSlotChanged","inputs":[],"anonymous":false},{"type":"event","name":"ValidatorsCommittedForEra","inputs":[{"name":"eraIndex","type":"uint256","indexed":false,"internalType":"uint256"}],"anonymous":false},{"type":"error","name":"ECDSAInvalidSignature","inputs":[]},{"type":"error","name":"ECDSAInvalidSignatureLength","inputs":[{"name":"length","type":"uint256","internalType":"uint256"}]},{"type":"error","name":"ECDSAInvalidSignatureS","inputs":[{"name":"s","type":"bytes32","internalType":"bytes32"}]},{"type":"error","name":"InvalidInitialization","inputs":[]},{"type":"error","name":"NotInitializing","inputs":[]},{"type":"error","name":"OwnableInvalidOwner","inputs":[{"name":"owner","type":"address","internalType":"address"}]},{"type":"error","name":"OwnableUnauthorizedAccount","inputs":[{"name":"account","type":"address","internalType":"address"}]},{"type":"error","name":"ReentrancyGuardReentrantCall","inputs":[]}],"bytecode":{"object":"0x6080806040523460aa575f5160206147855f395f51905f525460ff8160401c16609b576002600160401b03196001600160401b038216016049575b6040516146d690816100af8239f35b6001600160401b0319166001600160401b039081175f5160206147855f395f51905f525581527fc7f505b2f371ae2175ee4913f4499e1f2633a7b5936321eed1cdaeb6115181d290602090a15f80603a565b63f92ee8a960e01b5f5260045ffd5b5f80fdfe608080604052600436101561010a575b50361561001a575f80fd5b5f5160206146965f395f51905f5254610038600182015415156126f1565b6001600160801b033416156100ba57335f908152601a9190910160205260409020541561006157005b60405162461bcd60e51b815260206004820152602b60248201527f636f756c646e277420726563656976652045746865722066726f6d20756e6b6e60448201526a6f776e2070726f6772616d60a81b6064820152608490fd5b60405162461bcd60e51b815260206004820152602260248201527f7a65726f2076616c7565207472616e73666572206973206e6f7420616c6c6f77604482015261195960f21b6064820152608490fd5b5f905f3560e01c9081627a32e71461250f575080630c18d27714612017578063120e3f1e14611e8b57806328e24b3d14611e5d5780633683c4d214611bd05780633bd109fa14611b815780633d43b41814611b2d57806353f7fd48146115805780636c2eb35014611480578063715018a61461141757806371a8cf2d146113e957806382bdeaad146112d157806384d22a4f1461127357806388f50cf01461123a5780638b1edf1e1461116f5780638da5cb5b1461113a5780638f381dbe146110f45780639067088e146110ab57806396a2ddfa1461107d5780639eb939a814611026578063a5d53a4414610f80578063b24fcac014610947578063baaf020114610846578063c13911e814610802578063c2eb812f146104fd578063ca1e7819146104ad578063cacf66ab14610475578063d456fd511461043f578063e6fabc0914610406578063ed612f8c146103ce578063edc8722514610384578063efd81abc14610352578063f2fde38b14610325578063f4f20ac0146102ec5763facd743b0361000f57346102e95760203660031901126102e9576102ab612565565b60036102c65f5160206146965f395f51905f52544290614186565b019060018060a01b03165f52602052602060ff60405f2054166040519015158152f35b80fd5b50346102e957806003193601126102e9575f5160206146965f395f51905f5254600701546040516001600160a01b039091168152602090f35b50346102e95760203660031901126102e95761034f610342612565565b61034a612b34565b612ab5565b80f35b50346102e957806003193601126102e957602061ffff60085f5160206146965f395f51905f5254015416604051908152f35b50346102e957806003193601126102e95760206103c65f5160206146965f395f51905f525461ffff600860046103ba4285614186565b01549201541690614164565b604051908152f35b50346102e957806003193601126102e957602060046103fc5f5160206146965f395f51905f52544290614186565b0154604051908152f35b50346102e957806003193601126102e9575f5160206146965f395f51905f5254600501546040516001600160a01b039091168152602090f35b50346102e957806003193601126102e957602065ffffffffffff60045f5160206146965f395f51905f5254015416604051908152f35b50346102e957806003193601126102e957602065ffffffffffff60025f5160206146965f395f51905f52540154821c16604051908152f35b50346102e957806003193601126102e9576104f96104e560046104df5f5160206146965f395f51905f52544290614186565b01612a62565b6040519182916020835260208301906125cc565b0390f35b50346102e957806003193601126102e95760405161051a81612699565b610522612996565b81526040516105308161267e565b5f8152602081015f90526020820152610547612996565b6040820152610554612a35565b60608201526040516105658161267e565b5f8082526020820152608082015261057b612996565b60a08201528160c082015260e001525f5160206146965f395f51905f52546105a1612a35565b506105ae600982016143f8565b906105bb600f82016143f8565b600882015461ffff1692604051936105d28561264f565b845260208401526040830152601b81015490601c810154604051926105f684612699565b6040516106028161264f565b60018401548152600284015463ffffffff8116602083015260201c65ffffffffffff1660408201528452604051946106398661267e565b60038401548652600484015465ffffffffffff16602087015260208501958652604051906106668261264f565b60058501546001600160a01b0390811683526006860154811660208401526007860154166040808401919091528601918252606086019081526106ab601586016128e8565b94608087019586526016016106bf906129b4565b9160a0870192835260c0870193845260e087019485526040519788976020895251805160208a0152602081015163ffffffff1660408a01526040015165ffffffffffff16606089015251805160808901526020015165ffffffffffff1660a088015251600160a01b6001900381511660c0880152600160a01b6001900360208201511660e0880152600160a01b600190039060400151166101008701525161012086016102009052805161ffff166102208701526020810151610240870160609052610280870161078f91612608565b90604001519061021f19878203016102608801526107ac91612608565b935180516001600160401b0316610140870152602001516001600160801b031661016086015251805161018086015260208101516101a0860152604001516101c0850152516101e0840152516102008301520390f35b50346102e95760203660031901126102e95760ff604060209260195f5160206146965f395f51905f5254016004358252845220541661084460405180926125bf565bf35b50346102e95760203660031901126102e9576004356001600160401b0381116109435761087790369060040161258f565b905f5160206146965f395f51905f52549061089183612845565b9161089f60405193846126d0565b8383526108ab84612845565b602084019490601f1901368637601a869201915b81811061090a57868587604051928392602084019060208552518091526040840192915b8181106108f1575050500390f35b82518452859450602093840193909201916001016108e3565b8061092061091b60019385886128b0565b612916565b828060a01b03165f528360205260405f205461093c82886128d4565b52016108bf565b5080fd5b50346102e95760603660031901126102e9576004356001600160401b03811161094357806004019161010060031983360301126102e957600260243510156102e9576044356001600160401b038111610943576109a890369060040161258f565b9390917f9b779b17422d0df92223018b32b4d1fa46e071723d6817e2486d003becc55f005c610f715760017f9b779b17422d0df92223018b32b4d1fa46e071723d6817e2486d003becc55f005d5f5160206146965f395f51905f525491610a14600184015415156126f1565b825415610e97575b60038301908154916044870135809303610e4457600485019765ffffffffffff89541696602489019765ffffffffffff610a558a6129ea565b1610610dc457610a6a84889b96999a9b612ea3565b98606095879b8c9a60a482019860198c019c5b610a878b8b613404565b9190501015610c4f578e610a9b8b8b613404565b90911015610c3b578f60ff8f926040908f9360061b01928335948582526020522054166003811015610c2757600103610bc45760408f918f928f936020830194610ae486613439565b15610bac57601c928782526020528481209050600260ff1982541617905501610b0d8154612b26565b90555b610b1983613439565b15157f460119a8f69a33ed127de517d5ea464e958ce23ef19e4420a8b92bf780bbc2c960208451878152a2360312610ba85791610b9f916020600194610b6d60405191610b658361267e565b848352613446565b91829101526040519060208201928352151560f81b604082015260218152610b966041826126d0565b51902090613453565b9e019d8e610a7d565b8c80fd5b905083918682526020522060ff198154169055610b10565b60405162461bcd60e51b815260206004820152603560248201527f636f6465206d7573742062652072657175657374656420666f722076616c6964604482015274185d1a5bdb881d1bc818994818dbdb5b5a5d1d1959605a1b6064820152608490fd5b634e487b7160e01b8e52602160045260248efd5b634e487b7160e01b8c52603260045260248cfd5b8a9950926020610d54998f948e9794610d499665ffffffffffff98858151910120610c7a858c6134a2565b91610c85868d6139b5565b93610c9b6064610c948c6129ea565b97016129dc565b9060405196898801983589528d60d01b9060d01b166040880152604687015260ff60f81b9060f81b1660668601526067850152608784015260a783015260c782015260c78152610cec60e7826126d0565b5190208099610cfa856129ea565b8760405191610d088361267e565b8483521693849101525584198254161790557f7ebe42360bcb182fe0a88148b081e4557c89d09aa6af8307635ac2f83e2aaa656020604051898152a16129ea565b169360243591613dc5565b15610d7f57807f9b779b17422d0df92223018b32b4d1fa46e071723d6817e2486d003becc55f005d80f35b60405162461bcd60e51b815260206004820152601e60248201527f7369676e61747572657320766572696669636174696f6e206661696c656400006044820152606490fd5b60405162461bcd60e51b815260206004820152604c60248201527f62617463682074696d657374616d70206d75737420626520677265617465722060448201527f6f7220657175616c20746f206c617465737420636f6d6d69747465642062617460648201526b063682074696d657374616d760a41b608482015260a490fd5b60405162461bcd60e51b815260206004820152602560248201527f696e76616c69642070726576696f757320636f6d6d6974746564206261746368604482015264040d0c2e6d60db1b6064820152608490fd5b610ead610ea6606487016129dc565b8235612e0e565b15610f1d5765ffffffffffff610ec5602487016129ea565b164211610a1c5760405162461bcd60e51b815260206004820152602360248201527f62617463682074696d657374616d70206d75737420626520696e207468652070604482015262185cdd60ea1b6064820152608490fd5b60405162461bcd60e51b815260206004820152602660248201527f616c6c6f776564207072656465636573736f7220626c6f636b207761736e277460448201526508199bdd5b9960d21b6064820152608490fd5b633ee5aeb560e01b8152600490fd5b50346102e957806003193601126102e9575f5160206146965f395f51905f52546001600160a01b0390600290610fb7904290614186565b01541690813b5f198101928184116110125760409293835192603e601f199101168301845280835260016020840180933c8251938492602084525180928160208601528585015e828201840152601f01601f19168101030190f35b634e487b7160e01b83526011600452602483fd5b50346102e957806003193601126102e95761103f612996565b50606061105c60165f5160206146965f395f51905f5254016129b4565b61084460405180926040809180518452602081015160208501520151910152565b50346102e957806003193601126102e9576020601b5f5160206146965f395f51905f52540154604051908152f35b50346102e95760203660031901126102e9576110c5612565565b601a5f5160206146965f395f51905f5254019060018060a01b03165f52602052602060405f2054604051908152f35b50346102e95760203660031901126102e957600435906001600160401b0382116102e957602061113061112a366004860161258f565b9061292a565b6040519015158152f35b50346102e957806003193601126102e9575f5160206146765f395f51905f52546040516001600160a01b039091168152602090f35b50346102e957806003193601126102e9575f5160206146965f395f51905f5254600181019081546111f5576002015463ffffffff16409081156111b0575580f35b60405162461bcd60e51b815260206004820152601d60248201527f756e61626c6520746f206c6f6f6b75702067656e6573697320686173680000006044820152606490fd5b60405162461bcd60e51b815260206004820152601860248201527f67656e65736973206861736820616c72656164792073657400000000000000006044820152606490fd5b50346102e957806003193601126102e9575f5160206146965f395f51905f5254600601546040516001600160a01b039091168152602090f35b50346102e957806003193601126102e95761128c612763565b5060406112a960155f5160206146965f395f51905f5254016128e8565b610844825180926001600160801b03602080926001600160401b038151168552015116910152565b50346102e95760203660031901126102e9576004356001600160401b0381116109435761130290369060040161258f565b905f5160206146965f395f51905f52549061131c83612845565b9161132a60405193846126d0565b83835261133684612845565b602084019490601f19013686376019869201915b81811061139f57868587604051928392602084019060208552518091526040840192915b81811061137c575050500390f35b919350916020808261139160019488516125bf565b01940191019184939261136e565b6113aa8183866128b0565b3587528260205260ff6040882054166113c382876128d4565b60038210156113d5575260010161134a565b634e487b7160e01b89526021600452602489fd5b50346102e957806003193601126102e957602060035f5160206146965f395f51905f52540154604051908152f35b50346102e957806003193601126102e957611430612b34565b5f5160206146765f395f51905f5280546001600160a01b0319811690915581906001600160a01b03167f8be0079c531659141344cd1fd0a4f28419497f9722a3daafe3b4186f6b6457e08280a380f35b50346102e957806003193601126102e9575f5160206146b65f395f51905f525460ff8160401c1690811561156b575b5061155c575f5160206146b65f395f51905f52805468ffffffffffffffffff1916680100000000000000021790555f5160206146765f395f51905f5254611509906001600160a01b03166115016141a2565b61034a6141a2565b60ff60401b195f5160206146b65f395f51905f5254165f5160206146b65f395f51905f52557fc7f505b2f371ae2175ee4913f4499e1f2633a7b5936321eed1cdaeb6115181d2602060405160028152a180f35b63f92ee8a960e01b8152600490fd5b600291506001600160401b031610155f6114af565b50346102e9576101603660031901126102e95761159b612565565b6024356001600160a01b0381169190829003611b29576115b9612539565b916115c261254f565b60a4359160843560c43560403660e3190112611b255761012435946001600160401b038611611b215736602387011215611b21578560040135926001600160401b038411611b1d573660248589010111611b1d57610144356001600160401b038111611b195761163690369060040161258f565b9690955f5160206146b65f395f51905f5254996001600160401b0360ff8c60401c16159b1680159081611b11575b6001149081611b07575b159081611afe575b50611aef576116b8908b60016001600160401b03195f5160206146b65f395f51905f525416175f5160206146b65f395f51905f5255611abf575b6115016141a2565b6116c06141a2565b4215611a69578315611a1357838311156119b257600a6116e08585612799565b0485101561196d5760409a8b516116f78d826126d0565b6017815260208101907f726f757465722e73746f726167652e526f757465725631000000000000000000825261172b612b34565b5190205f19810190811161195957918d989796959493918d93845190602082019081526020825261175c86836126d0565b60ff199151902016998a5f5160206146965f395f51905f525561177d612996565b504363ffffffff169085516117918161264f565b818152826020820152864265ffffffffffff1691015260018c015560028b01908154904260201b69ffffffffffff00000000169169ffffffffffffffffffff1916171790558351906117e28261264f565b8282526001600160a01b03908116602083018190529381169490910184905260058a018054919092166001600160a01b0319918216179091556006890180548216909217909155600788018054909116909117905560088601805461ffff1916611a0a179055611850612763565b50895161185c8161267e565b639502f90081526509184e72a0006020909101526015860180546001600160c01b0319166d09184e72a000000000009502f900179055895183908b906118a18161264f565b83815284602082015201526016860155601785015560188401558651946118c78661267e565b60e43586526101043560208701526118e3913691602401612800565b90429336906118f19261285c565b91600901936118ff94612b7a565b611907575080f35b60207fc7f505b2f371ae2175ee4913f4499e1f2633a7b5936321eed1cdaeb6115181d29160ff60401b195f5160206146b65f395f51905f5254165f5160206146b65f395f51905f52555160018152a180f35b634e487b7160e01b8e52601160045260248efd5b60405162461bcd60e51b815260206004820152601b60248201527f76616c69646174696f6e2064656c617920697320746f6f2062696700000000006044820152606490fd5b60405162461bcd60e51b815260206004820152603360248201527f657261206475726174696f6e206d757374206265206772656174657220746861604482015272371032b632b1ba34b7b710323ab930ba34b7b760691b6064820152608490fd5b60405162461bcd60e51b815260206004820152602860248201527f656c656374696f6e206475726174696f6e206d75737420626520677265617465604482015267072207468616e20360c41b6064820152608490fd5b60405162461bcd60e51b815260206004820152602860248201527f63757272656e742074696d657374616d70206d75737420626520677265617465604482015267072207468616e20360c41b6064820152608490fd5b600160401b60ff60401b195f5160206146b65f395f51905f525416175f5160206146b65f395f51905f52556116b0565b63f92ee8a960e01b8d5260048dfd5b9050155f611676565b303b15915061166e565b8c9150611664565b8a80fd5b8980fd5b8880fd5b8780fd5b8280fd5b50346102e95760203660031901126102e957611b47612565565b611b4f612b34565b5f5160206146965f395f51905f525460050180546001600160a01b0319166001600160a01b0390921691909117905580f35b50346102e957806003193601126102e957611b9a612763565b506040611bbe611bb95f5160206146965f395f51905f52544290614186565b61277b565b60208251918051835201516020820152f35b50346102e95760603660031901126102e957600435611bed612539565b5f5160206146965f395f51905f5254611c0b600182015415156126f1565b8284526019810160205260ff6040852054166003811015611e4957600203611ded576040516020810190848252602435604082015260408152611c4f6060826126d0565b51902060405160608101908082106001600160401b03831117611de957605a916040527f3d605080600a3d3981f3608060405263e6fabc0960e01b5f5260205f6004817381523060601b6b5afa15604c575f80805136821760208201527f80378136915af43d5f803e156048573d5ff35b3d5ffd5b5f80fd000000000000604082015286f5908115611de5576001600160a01b0382165f908152601a820160205260409020849055601b018054611d0590612b26565b90556040516001600160a01b03821680825293907f8008ec1d8798725ebfa0f2d128d52e8e717dcba6e0f786557eeee70614b02bf190602090a2506001600160a01b038116611de05750335b5f5160206146965f395f51905f5254600501546001600160a01b0316823b15611ddc57604051631c9776b560e31b81526001600160a01b039092166004830152602482015260016044820152828160648183865af18015611dd157611dbc575b602082604051908152f35b611dc78380926126d0565b6109435781611db1565b6040513d85823e3d90fd5b8380fd5b611d51565b8480fd5b8680fd5b60405162461bcd60e51b815260206004820152602e60248201527f636f6465206d7573742062652076616c696461746564206265666f726520707260448201526d37b3b930b69031b932b0ba34b7b760911b6064820152608490fd5b634e487b7160e01b85526021600452602485fd5b50346102e957806003193601126102e957602060015f5160206146965f395f51905f52540154604051908152f35b50346102e95760203660031901126102e957600435814915611f9b5760195f5160206146965f395f51905f5254611ec7600182015415156126f1565b018183528060205260ff6040842054166003811015611f8757611f265781835260209081526040808420805460ff19166001179055519182527f5c261a095dd5720475295dc06379921c003c22164ee6cae5cf83e76ce0a1b98591a180f35b60405162461bcd60e51b815260206004820152603360248201527f676976656e20636f646520696420697320616c7265616479206f6e2076616c6960448201527219185d1a5bdb881bdc881d985b1a59185d1959606a1b6064820152608490fd5b634e487b7160e01b84526021600452602484fd5b60405162461bcd60e51b815260206004820152604860248201527f626c6f622063616e277420626520666f756e642c20726f75746572206578706560448201527f63746564204549502d34383434207472616e73616374696f6e2077697468205760648201526720a9a690313637b160c11b608482015260a490fd5b346124f15760803660031901126124f157600435612033612539565b9061203c61254f565b915f5160206146965f395f51905f525461205b600182015415156126f1565b825f526019810160205260ff60405f20541660038110156124fb57600203611ded57604051602081019084825260243560408201526040815261209f6060826126d0565b5190206040516102c08101908082106001600160401b038311176124f1576102b0916040527f60808060405261029e90816100128239f3fe608060405260043610610254575f81527f3560e01c806336a52a18146100ab57806342129d00146100a65780635ce6c32760208201527f146100a1578063701da98e1461009c578063704ed542146100975780637a8e0c60408201527fdd1461009257806391d5a64c1461008d5780639ce110d714610088578063affe60608201527fd0e0146100835763e43f3433036102545761023f565b610222565b6101fa565b60808201527f6101e4565b6101b1565b610181565b610165565b610143565b610106565b346160a08201527ed4575f3660031901126100d45760025460081c6001600160a01b031660809060c08201527f8152602090f35b5f80fd5b9181601f840112156100d45782359167ffffffffff60e08201527fffffff83116100d457602083818601950101116100d457565b604036600319016101008201527f126100d45760043567ffffffffffffffff81116100d4576101329036906004016101208201527f6100d8565b505060243580151514610254575f80fd5b346100d4575f366003196101408201527f01126100d457602060ff600254166040519015158152f35b346100d4575f36606101608201527f031901126100d45760205f54604051908152f35b346100d457602036600319016101808201527f126100d4576004356fffffffffffffffffffffffffffffffff811614610254576101a08201527f5f80fd5b60403660031901126100d45760243567ffffffffffffffff811161006101c08201527fd4576101dd9036906004016100d8565b5050610254565b346100d457602036606101e08201527f0319011215610254575f80fd5b346100d4575f3660031901126100d4576003546102008201527f6040516001600160a01b039091168152602090f35b346100d4575f36600319016102208201527f126100d4576020600154604051908152f35b346100d4575f36600319011215616102408201523060601c7f0254575f80fd5b63e6fabc0960e01b5f5260205f60048173000000000000000017610260820152735afa156100d4575f808051368280378136915af43060a01b176102808201526f3d5f803e1561029a573d5ff35b3d5ffd60801b6102a08201525ff59081156124f1576001600160a01b0382165f908152601a820160205260409020849055601b01805461243690612b26565b90556040516001600160a01b03821680825293907f8008ec1d8798725ebfa0f2d128d52e8e717dcba6e0f786557eeee70614b02bf190602090a2506001600160a01b0381166124f5575033915b813b156124f157604051631c9776b560e31b81526001600160a01b039384166004820152921660248301525f604483018190528260648183855af19182156124e6576020926124d6575b50604051908152f35b5f6124e0916126d0565b5f6124cd565b6040513d5f823e3d90fd5b5f80fd5b91612483565b634e487b7160e01b5f52602160045260245ffd5b346124f1575f3660031901126124f157602090601c5f5160206146965f395f51905f525401548152f35b604435906001600160a01b03821682036124f157565b606435906001600160a01b03821682036124f157565b600435906001600160a01b03821682036124f157565b35906001600160a01b03821682036124f157565b9181601f840112156124f1578235916001600160401b0383116124f1576020808501948460051b0101116124f157565b9060038210156124fb5752565b90602080835192838152019201905f5b8181106125e95750505090565b82516001600160a01b03168452602093840193909201916001016125dc565b9060208251805183520151602082015260018060a01b03602083015116604082015260806060612646604085015160a08386015260a08501906125cc565b93015191015290565b606081019081106001600160401b0382111761266a57604052565b634e487b7160e01b5f52604160045260245ffd5b604081019081106001600160401b0382111761266a57604052565b61010081019081106001600160401b0382111761266a57604052565b608081019081106001600160401b0382111761266a57604052565b90601f801991011681019081106001600160401b0382111761266a57604052565b156126f857565b60405162461bcd60e51b815260206004820152603860248201527f726f757465722067656e65736973206973207a65726f3b2063616c6c20606c6f60448201527f6f6b757047656e657369734861736828296020666972737400000000000000006064820152608490fd5b604051906127708261267e565b5f6020838281520152565b906040516127888161267e565b602060018294805484520154910152565b919082039182116127a657565b634e487b7160e01b5f52601160045260245ffd5b81156127c4570490565b634e487b7160e01b5f52601260045260245ffd5b91908260409103126124f1576040516127f08161267e565b6020808294803584520135910152565b9291926001600160401b03821161266a5760405191612829601f8201601f1916602001846126d0565b8294818452818301116124f1578281602093845f960137010152565b6001600160401b03811161266a5760051b60200190565b92919061286881612845565b9361287660405195866126d0565b602085838152019160051b81019283116124f157905b82821061289857505050565b602080916128a58461257b565b81520191019061288c565b91908110156128c05760051b0190565b634e487b7160e01b5f52603260045260245ffd5b80518210156128c05760209160051b010190565b906040516128f58161267e565b91546001600160401b038116835260401c6001600160801b03166020830152565b356001600160a01b03811681036124f15790565b6129435f5160206146965f395f51905f52544290614186565b600301905f5b8381106129595750505050600190565b61296761091b8286856128b0565b6001600160a01b03165f9081526020849052604090205460ff161561298e57600101612949565b505050505f90565b604051906129a38261264f565b5f6040838281528260208201520152565b906040516129c18161264f565b60406002829480548452600181015460208501520154910152565b3560ff811681036124f15790565b3565ffffffffffff811681036124f15790565b60405190612a0a826126b5565b5f606083604051612a1a8161267e565b83815283602082015281528260208201528160408201520152565b60405190612a428261264f565b815f8152612a4e6129fd565b60208201526040612a5d6129fd565b910152565b90604051918281549182825260208201905f5260205f20925f5b818110612a93575050612a91925003836126d0565b565b84546001600160a01b0316835260019485019487945060209093019201612a7c565b6001600160a01b03168015612b13575f5160206146765f395f51905f5280546001600160a01b0319811683179091556001600160a01b03167f8be0079c531659141344cd1fd0a4f28419497f9722a3daafe3b4186f6b6457e05f80a3565b631e4fbdf760e01b5f525f60045260245ffd5b5f1981146127a65760010190565b5f5160206146765f395f51905f52546001600160a01b03163303612b5457565b63118cdaa760e01b5f523360045260245ffd5b818102929181159184041417156127a657565b9291908051906020810191825170014551231950b75fc4402da1732fc9bebe1982109182612dfd575b505015612da95751845551600184015560405190612be66021836020808201945f86528051918291018484015e81015f838201520301601f1981018452836126d0565b612c23602b604051809360208201956a600b5981380380925939f360a81b87525180918484015e81015f838201520301601f1981018352826126d0565b51905ff06001600160a01b03811615612d70576002830180546001600160a01b0319166001600160a01b039092169190911790555f5b600483018054821015612c97575f90815260208082208301546001600160a01b0316825260038501905260409020805460ff19169055600101612c59565b5050925f5b8451811015612ce0576001906001600160a01b03612cba82886128d4565b5116828060a01b03165f526003840160205260405f208260ff1982541617905501612c9c565b5092600482018151916001600160401b03831161266a57600160401b831161266a578154838355808410612d4a575b50602001905f5260205f205f5b838110612d2d575050505060050155565b82516001600160a01b031681830155602090920191600101612d1c565b825f528360205f2091820191015b818110612d655750612d0f565b5f8155600101612d58565b60405162461bcd60e51b81526020600482015260116024820152701111541313d65351539517d19052531151607a1b6044820152606490fd5b60405162461bcd60e51b815260206004820152602660248201527f46524f53542061676772656761746564207075626c6963206b657920697320696044820152651b9d985b1a5960d21b6064820152608490fd5b612e0792506145d0565b5f80612ba3565b435f19810193929084116127a65760ff16438110612e5e57505f925b83811015612e3a575b505f925050565b8040828103612e4c5750600193505050565b15612e59575f1901612e2a565b612e33565b612e689043612799565b92612e2a565b903590601e19813603018212156124f157018035906001600160401b0382116124f157602001918160051b360383136124f157565b90608081016001612eb48284612e6e565b9050116133a257612ec58183612e6e565b90501561337b57612ed591612e6e565b156128c057803590603e19813603018212156124f1570191612ef78380612e6e565b92906060925f95601a60fe19843603019401945b86881015613318578760051b840135858112156124f1578401612f2d81612916565b6001600160a01b03165f90815260208890526040902054156132bb575f608082016001600160801b03612f5f826141cd565b161515806132a8575b613297575b6001600160a01b03612f7e84612916565b604051630427a21d60e11b81526020600482015294911691610124850191906001600160801b0390612ffd906001600160a01b03612fbb8561257b565b16602489015260208401356044890152612fd760408501613446565b151560648901526001600160a01b03612ff26060860161257b565b1660848901526141e1565b1660a486015261300f60a08201613446565b151560c486015236819003601e190160c0820135818112156124f1578201602081359101936001600160401b0382116124f15760608202360385136124f157819061010060e48a015252610144870193905f905b80821061324d5750505060e0820135908112156124f15701803560208201926001600160401b0382116124f1578160051b9081360385136124f15791879594936023198785030161010488015281845260208085019385010194935f9160fe19813603015b8484106131405750505050505050602093916001600160801b03848093039316905af19081156124e6575f9161310e575b5061310690600192613453565b970196612f0b565b90506020813d8211613138575b81613128602093836126d0565b810103126124f1575160016130f9565b3d915061311b565b919395979850919395601f198482030187528735828112156124f1578301602081013582526001600160a01b036131796040830161257b565b1660208301526060810135603e1936839003018112156124f1578101602081013591906040016001600160401b0383116124f15782360381136124f157829060e060408601528160e08601526101008501375f61010083850101526001600160801b036131e8608083016141e1565b16606084015260a0810135608084015260c081013563ffffffff60e01b81168091036124f1578360209361322a60e086956101009560a060019a015201613446565b151560c0830152601f80199101160101990197019401918a9897969593916130c8565b90919460608060019288358152838060a01b0361326c60208b0161257b565b1660208201526001600160801b0361328660408b016141e1565b166040820152019601920190613063565b90506132a2816141cd565b90612f6d565b506132b560a08401613439565b15612f68565b60405162461bcd60e51b815260206004820152602f60248201527f636f756c646e277420706572666f726d207472616e736974696f6e20666f722060448201526e756e6b6e6f776e2070726f6772616d60881b6064820152608490fd5b93509450945050602091508181519101209101357fd04cd9af813f6f0b56e9411a6ee6a84eb5ac35a96f0c33d2e3a07d65baa8f4186020604051838152a160405190602082019283526040820152604081526133756060826126d0565b51902090565b5050507fc5d2460186f7233c927e7db2dcc703c0e500b653ca82273b7bfad8045d85a47090565b60405162461bcd60e51b815260206004820152603460248201527f636861696e436f6d6d69746d656e7420636f756c6420636f6e7461696e206174604482015273081b5bdcdd081bdb994818dbdb5b5a5d1b595b9d60621b6064820152608490fd5b903590601e19813603018212156124f157018035906001600160401b0382116124f157602001918160061b360383136124f157565b3580151581036124f15790565b359081151582036124f157565b602080612a91928195946040519682889351918291018585015e82019083820152030180855201836126d0565b903590605e19813603018212156124f1570190565b919082018092116127a657565b60c0820160016134b28285612e6e565b905011613919576134c38184612e6e565b90501561337b576134d49083612e6e565b156128c057803590607e19813603018212156124f1570191606083019060206134fc836129ea565b91019065ffffffffffff80613510846129ea565b16911610156138ba57613522826129ea565b65ffffffffffff80600286015460201c1691161061385f5761356865ffffffffffff61356161355b82613554876129ea565b16876141f5565b936129ea565b16846141f5565b1115613806576007820154600690920180548435946001600160a01b0394851694604082019391925f916020911660446135ae836135a68989613480565b01358b613495565b604051948593849263095ea7b360e01b84528c600485015260248401525af180156124e6576137cf575b505460405163394f179b60e11b81526001600160a01b03909116600482015260248101959095526020818101356044870152856064815f885af19485156124e6575f95613797575b509061362b91613480565b91613635826129ea565b9260405193637fbe95b560e01b85526040600486015260a48501918035601e19823603018112156124f1578101602081359101936001600160401b0382116124f1578160061b360385136124f15760606044890152819052869360c485019392915f5b81811061375f57505050836020959365ffffffffffff829484895f96013560648601526136ce604060018060a01b03920161257b565b16608485015216602483015203925af19182156124e6575f92613729575b506136f6906129ea565b6040519160208301938452604083015265ffffffffffff60d01b9060d01b166060820152604681526133756066826126d0565b9091506020813d602011613757575b81613745602093836126d0565b810103126124f15751906136f66136ec565b3d9150613738565b919550919293604080600192838060a01b0361377a8a61257b565b168152602089013560208201520196019101918895949392613698565b919094506020823d6020116137c7575b816137b4602093836126d0565b810103126124f15790519361362b613620565b3d91506137a7565b6020813d6020116137fe575b816137e8602093836126d0565b810103126124f1575180151581146135d8575f80fd5b3d91506137db565b60405162461bcd60e51b815260206004820152602b60248201527f7265776172647320636f6d6d69746d656e74206d75737420746172676574207060448201526a726576696f75732065726160a81b6064820152608490fd5b60405162461bcd60e51b815260206004820152602d60248201527f7265776172647320636f6d6d69746d656e742074696d657374616d702070726560448201526c64617465732067656e6573697360981b6064820152608490fd5b60405162461bcd60e51b815260206004820152603160248201527f7265776172647320636f6d6d69746d656e742074696d657374616d70206d75736044820152701d08189948199bdc881d1a19481c185cdd607a1b6064820152608490fd5b608460405162461bcd60e51b815260206004820152604060248201527f7265776172647320636f6d6d69746d656e74206d75737420626520656d70747960448201527f206f7220636f6e7461696e73206f6e6c79206f6e6520636f6d6d69746d656e746064820152fd5b903590601e19813603018212156124f157018035906001600160401b0382116124f1576020019181360383136124f157565b9060e0810160016139c68284612e6e565b905011613d4e576139d78183612e6e565b90501561337b576139e791612e6e565b156128c057803590609e19813603018212156124f157016060810190613a0d8282612e6e565b905015613cfb5765ffffffffffff600284015460201c1691613a2f8342612799565b613a3e601686015480926127ba565b93608084013594600181018091116127a6578503613ca357613a6385613a6993612b67565b90613495565b93613a78601782015486612799565b4210613c5e57613a879061421d565b934260058601541015613bfe57613adc906040840195613ace613ad6613aad8988613983565b9190613ab9888a612e6e565b949091613ac6368c6127d8565b943691612800565b93369161285c565b92612b7a565b7fa1a3b42179ad30022438a1ea333b38eaf4a7329beee5e2b8111c0dcd4e08821c6020604051858152a160a0823603126124f15760405193613b1d856126b5565b613b2736846127d8565b8552356001600160401b0381116124f157820136601f820112156124f157613b56903690602081359101612800565b602085015235906001600160401b0382116124f1570136601f820112156124f157613b8890369060208135910161285c565b91826040820152816060820152519160208351930151906040519283926020840195865260408401526060830160208351919301905f5b818110613bdc5750505081520380825261337590602001826126d0565b82516001600160a01b0316855286955060209485019490920191600101613bbf565b60405162461bcd60e51b815260206004820152603260248201527f6c6f6f6b73206c696b652076616c696461746f727320666f72206e65787420656044820152711c9848185c9948185b1c9958591e481cd95d60721b6064820152608490fd5b60405162461bcd60e51b815260206004820152601b60248201527f656c656374696f6e206973206e6f7420796574207374617274656400000000006044820152606490fd5b60405162461bcd60e51b815260206004820152602a60248201527f636f6d6d69746d656e742065726120696e646578206973206e6f74206e657874604482015269040cae4c240d2dcc8caf60b31b6064820152608490fd5b60405162461bcd60e51b815260206004820152602560248201527f6e65772076616c696461746f7273206c697374206d757374206e6f7420626520604482015264656d70747960d81b6064820152608490fd5b60405162461bcd60e51b815260206004820152604360248201527f76616c696461746f727320636f6d6d69746d656e74206d75737420626520656d60448201527f707479206f7220636f6e7461696e73206f6e6c79206f6e6520636f6d6d69746d606482015262195b9d60ea1b608482015260a490fd5b909493919365ffffffffffff600283015460201c16613de442846141f5565b613dfc613df660168601548093612b67565b83613495565b91828410808061414e575b156140dc5750831061409757613e1d9083613495565b1061404657613e2d905b82614186565b94601960f81b5f523060601b60025260165260365f209360028110156124fb5780613f3d57505060018103613ef857156128c057613e6e81613e7592613983565b3691612800565b916060835103613ea357826020613ea094015160606040830151920151926001815491015490614238565b90565b60405162461bcd60e51b815260206004820152602760248201527f46524f5354207369676e6174757265206c656e677468206d75737420626520396044820152663620627974657360c81b6064820152608490fd5b60405162461bcd60e51b815260206004820152601e60248201527f46524f5354207369676e6174757265206d7573742062652073696e676c6500006044820152606490fd5b919391600114613f505750505050505f90565b613f6a9061ffff6008600488979801549201541690614164565b925f9260035f9201915b8681101561403b57613fa3613f9a613f94613e6e8460051b860186613983565b86614536565b90929192614570565b6001600160a01b0381165f9081526020859052604090205460ff16613fce575b506001905b01613f74565b6001600160a01b03165f9081527ff02b465737fa6045c2ff53fb2df43c66916ac2166fa303264668fb2f6a1d8c0060205260409020805c156140135750600190613fc8565b94600161402192965d612b26565b9385851461402f575f613fc3565b50505050505050600190565b505050505050505f90565b60405162461bcd60e51b8152602060048201526024808201527f74696d657374616d70206973206f6c646572207468616e2070726576696f75736044820152632065726160e01b6064820152608490fd5b60405162461bcd60e51b815260206004820152601e60248201527f63616e6e6f742076616c6964617465206265666f72652067656e6573697300006044820152606490fd5b93929150504282116140ff57613e2d926140f7575b50613e27565b90505f6140f1565b60405162461bcd60e51b815260206004820152602160248201527f74696d657374616d702063616e6e6f7420626520696e207468652066757475726044820152606560f81b6064820152608490fd5b5061415d601887015485613495565b4210613e07565b61ffff614172921690612b67565b61270f81018091116127a657612710900490565b90614191908261444d565b1561419c57600f0190565b60090190565b60ff5f5160206146b65f395f51905f525460401c16156141be57565b631afcd79f60e31b5f5260045ffd5b356001600160801b03811681036124f15790565b35906001600160801b03821682036124f157565b6016614214613ea09365ffffffffffff600285015460201c1690612799565b910154906127ba565b614227428261444d565b156142325760090190565b600f0190565b929391949061424785876145d0565b156143ee5782156143ee5770014551231950b75fc4402da1732fc9bebe198310156143ee576001169061010e6040519161012083018381106001600160401b038211176124f15760405260883684376002600188160160888401538760898401526002840160a984015360aa830186905260ca8301527e300046524f53542d736563703235366b312d4b454343414b3235362d76316360ea8301526303430b6160e51b61010a830152812060cc820181815290600260ec84016001815360428420809318845253604270014551231950b75fc4402da1732fc9bebe19922060801c6001600160401b0360801b8260801b16179070014551231950b75fc4402da1732fc9bebe1990600160c01b9060401c0908801561403b5784601b6080945f9660209870014551231950b75fc4402da1732fc9bebe19910970014551231950b75fc4402da1732fc9bebe19038552018684015280604084015270014551231950b75fc4402da1732fc9bebe19910970014551231950b75fc4402da1732fc9bebe1903606082015282805260015afa505f51915f5260205260018060a01b0360405f20161490565b5050505050505f90565b6144006129fd565b5060028101546005820154604051929091614440916004916001600160a01b031661442a866126b5565b6144338261277b565b8652602086015201612a62565b6040830152606082015290565b906014600e8301549201548083146144f2578181841093119182159111159181906144eb575b15614488578261448257505090565b14919050565b60405162461bcd60e51b815260206004820152603560248201527f636f756c64206e6f74206964656e746966792076616c696461746f727320666f6044820152740722074686520676976656e2074696d657374616d7605c1b6064820152608490fd5b5081614473565b606460405162461bcd60e51b815260206004820152602060248201527f657261732074696d657374616d70206d757374206e6f7420626520657175616c6044820152fd5b81519190604183036145665761455f9250602082015190606060408401519301515f1a906145f3565b9192909190565b50505f9160029190565b60048110156124fb5780614582575050565b600181036145995763f645eedf60e01b5f5260045ffd5b600281036145b4575063fce698f760e01b5f5260045260245ffd5b6003146145be5750565b6335e2f38360e21b5f5260045260245ffd5b6401000003d01990600790829081818009900908906401000003d0199080091490565b91907f7fffffffffffffffffffffffffffffff5d576e7357a4501ddfe92f46681b20a0841161466a579160209360809260ff5f9560405194855216868401526040830152606082015282805260015afa156124e6575f516001600160a01b0381161561466057905f905f90565b505f906001905f90565b5050505f916003919056fe9016d09d72d40fdae2fd8ceac6b6234c7706214fd39c1cd1e609a0528c1993005c09ca1b9b8127a4fd9f3c384aac59b661441e820e17733753ff5f2e86e1e000f0c57e16840df040f15088dc2f81fe391c3923bec73e23a9662efc9c229c6a00f0c57e16840df040f15088dc2f81fe391c3923bec73e23a9662efc9c229c6a00","linkReferences":{}},"methodIdentifiers":{"areValidators(address[])":"8f381dbe","codeState(bytes32)":"c13911e8","codesStates(bytes32[])":"82bdeaad","commitBatch((bytes32,uint48,bytes32,uint8,((address,bytes32,bool,address,uint128,bool,(bytes32,address,uint128)[],(bytes32,address,bytes,uint128,(bytes32,bytes4),bool)[])[],bytes32)[],(bytes32,bool)[],((uint256,bytes32),((address,uint256)[],uint256,address),uint48)[],((uint256,uint256),bytes,address[],uint256)[]),uint8,bytes[])":"b24fcac0","computeSettings()":"84d22a4f","createProgram(bytes32,bytes32,address)":"3683c4d2","createProgramWithAbiInterface(bytes32,bytes32,address,address)":"0c18d277","genesisBlockHash()":"28e24b3d","genesisTimestamp()":"cacf66ab","initialize(address,address,address,address,uint256,uint256,uint256,(uint256,uint256),bytes,address[])":"53f7fd48","isValidator(address)":"facd743b","latestCommittedBatchHash()":"71a8cf2d","latestCommittedBatchTimestamp()":"d456fd51","lookupGenesisHash()":"8b1edf1e","middleware()":"f4f20ac0","mirrorImpl()":"e6fabc09","owner()":"8da5cb5b","programCodeId(address)":"9067088e","programsCodeIds(address[])":"baaf0201","programsCount()":"96a2ddfa","reinitialize()":"6c2eb350","renounceOwnership()":"715018a6","requestCodeValidation(bytes32)":"120e3f1e","setMirror(address)":"3d43b418","signingThresholdPercentage()":"efd81abc","storageView()":"c2eb812f","timelines()":"9eb939a8","transferOwnership(address)":"f2fde38b","validatedCodesCount()":"007a32e7","validators()":"ca1e7819","validatorsAggregatedPublicKey()":"3bd109fa","validatorsCount()":"ed612f8c","validatorsThreshold()":"edc87225","validatorsVerifiableSecretSharingCommitment()":"a5d53a44","wrappedVara()":"88f50cf0"},"storageLayout":{"storage":[],"types":{}},"id":157}