{"abi":[{"type":"constructor","inputs":[],"stateMutability":"nonpayable"},{"type":"function","name":"areValidators","inputs":[{"name":"_validators","type":"address[]","internalType":"address[]"}],"outputs":[{"name":"","type":"bool","internalType":"bool"}],"stateMutability":"view"},{"type":"function","name":"codeState","inputs":[{"name":"_codeId","type":"bytes32","internalType":"bytes32"}],"outputs":[{"name":"","type":"uint8","internalType":"enum Gear.CodeState"}],"stateMutability":"view"},{"type":"function","name":"codesStates","inputs":[{"name":"_codesIds","type":"bytes32[]","internalType":"bytes32[]"}],"outputs":[{"name":"","type":"uint8[]","internalType":"enum Gear.CodeState[]"}],"stateMutability":"view"},{"type":"function","name":"commitBatch","inputs":[{"name":"_batchCommitment","type":"tuple","internalType":"struct Gear.BatchCommitment","components":[{"name":"codeCommitments","type":"tuple[]","internalType":"struct Gear.CodeCommitment[]","components":[{"name":"id","type":"bytes32","internalType":"bytes32"},{"name":"timestamp","type":"uint48","internalType":"uint48"},{"name":"valid","type":"bool","internalType":"bool"}]},{"name":"blockCommitments","type":"tuple[]","internalType":"struct Gear.BlockCommitment[]","components":[{"name":"hash","type":"bytes32","internalType":"bytes32"},{"name":"timestamp","type":"uint48","internalType":"uint48"},{"name":"previousCommittedBlock","type":"bytes32","internalType":"bytes32"},{"name":"predecessorBlock","type":"bytes32","internalType":"bytes32"},{"name":"transitions","type":"tuple[]","internalType":"struct Gear.StateTransition[]","components":[{"name":"actorId","type":"address","internalType":"address"},{"name":"newStateHash","type":"bytes32","internalType":"bytes32"},{"name":"inheritor","type":"address","internalType":"address"},{"name":"valueToReceive","type":"uint128","internalType":"uint128"},{"name":"valueClaims","type":"tuple[]","internalType":"struct Gear.ValueClaim[]","components":[{"name":"messageId","type":"bytes32","internalType":"bytes32"},{"name":"destination","type":"address","internalType":"address"},{"name":"value","type":"uint128","internalType":"uint128"}]},{"name":"messages","type":"tuple[]","internalType":"struct Gear.Message[]","components":[{"name":"id","type":"bytes32","internalType":"bytes32"},{"name":"destination","type":"address","internalType":"address"},{"name":"payload","type":"bytes","internalType":"bytes"},{"name":"value","type":"uint128","internalType":"uint128"},{"name":"replyDetails","type":"tuple","internalType":"struct Gear.ReplyDetails","components":[{"name":"to","type":"bytes32","internalType":"bytes32"},{"name":"code","type":"bytes4","internalType":"bytes4"}]}]}]}]}]},{"name":"_signatureType","type":"uint8","internalType":"enum Gear.SignatureType"},{"name":"_signatures","type":"bytes[]","internalType":"bytes[]"}],"outputs":[],"stateMutability":"nonpayable"},{"type":"function","name":"commitBlocks","inputs":[{"name":"_blockCommitments","type":"tuple[]","internalType":"struct Gear.BlockCommitment[]","components":[{"name":"hash","type":"bytes32","internalType":"bytes32"},{"name":"timestamp","type":"uint48","internalType":"uint48"},{"name":"previousCommittedBlock","type":"bytes32","internalType":"bytes32"},{"name":"predecessorBlock","type":"bytes32","internalType":"bytes32"},{"name":"transitions","type":"tuple[]","internalType":"struct Gear.StateTransition[]","components":[{"name":"actorId","type":"address","internalType":"address"},{"name":"newStateHash","type":"bytes32","internalType":"bytes32"},{"name":"inheritor","type":"address","internalType":"address"},{"name":"valueToReceive","type":"uint128","internalType":"uint128"},{"name":"valueClaims","type":"tuple[]","internalType":"struct Gear.ValueClaim[]","components":[{"name":"messageId","type":"bytes32","internalType":"bytes32"},{"name":"destination","type":"address","internalType":"address"},{"name":"value","type":"uint128","internalType":"uint128"}]},{"name":"messages","type":"tuple[]","internalType":"struct Gear.Message[]","components":[{"name":"id","type":"bytes32","internalType":"bytes32"},{"name":"destination","type":"address","internalType":"address"},{"name":"payload","type":"bytes","internalType":"bytes"},{"name":"value","type":"uint128","internalType":"uint128"},{"name":"replyDetails","type":"tuple","internalType":"struct Gear.ReplyDetails","components":[{"name":"to","type":"bytes32","internalType":"bytes32"},{"name":"code","type":"bytes4","internalType":"bytes4"}]}]}]}]},{"name":"_signatureType","type":"uint8","internalType":"enum Gear.SignatureType"},{"name":"_signatures","type":"bytes[]","internalType":"bytes[]"}],"outputs":[],"stateMutability":"nonpayable"},{"type":"function","name":"commitCodes","inputs":[{"name":"_codeCommitments","type":"tuple[]","internalType":"struct Gear.CodeCommitment[]","components":[{"name":"id","type":"bytes32","internalType":"bytes32"},{"name":"timestamp","type":"uint48","internalType":"uint48"},{"name":"valid","type":"bool","internalType":"bool"}]},{"name":"_signatureType","type":"uint8","internalType":"enum Gear.SignatureType"},{"name":"_signatures","type":"bytes[]","internalType":"bytes[]"}],"outputs":[],"stateMutability":"nonpayable"},{"type":"function","name":"commitValidators","inputs":[{"name":"_validatorsCommitment","type":"tuple","internalType":"struct Gear.ValidatorsCommitment","components":[{"name":"aggregatedPublicKey","type":"tuple","internalType":"struct Gear.AggregatedPublicKey","components":[{"name":"x","type":"uint256","internalType":"uint256"},{"name":"y","type":"uint256","internalType":"uint256"}]},{"name":"verifyingShares","type":"tuple[]","internalType":"struct Gear.VerifyingShare[]","components":[{"name":"x","type":"uint256","internalType":"uint256"},{"name":"y","type":"uint256","internalType":"uint256"}]},{"name":"validators","type":"address[]","internalType":"address[]"},{"name":"eraIndex","type":"uint256","internalType":"uint256"}]},{"name":"_signatureType","type":"uint8","internalType":"enum Gear.SignatureType"},{"name":"_signatures","type":"bytes[]","internalType":"bytes[]"}],"outputs":[],"stateMutability":"nonpayable"},{"type":"function","name":"computeSettings","inputs":[],"outputs":[{"name":"","type":"tuple","internalType":"struct Gear.ComputationSettings","components":[{"name":"threshold","type":"uint64","internalType":"uint64"},{"name":"wvaraPerSecond","type":"uint128","internalType":"uint128"}]}],"stateMutability":"view"},{"type":"function","name":"createProgram","inputs":[{"name":"_codeId","type":"bytes32","internalType":"bytes32"},{"name":"_salt","type":"bytes32","internalType":"bytes32"}],"outputs":[{"name":"","type":"address","internalType":"address"}],"stateMutability":"nonpayable"},{"type":"function","name":"createProgramWithDecoder","inputs":[{"name":"_decoderImpl","type":"address","internalType":"address"},{"name":"_codeId","type":"bytes32","internalType":"bytes32"},{"name":"_salt","type":"bytes32","internalType":"bytes32"}],"outputs":[{"name":"","type":"address","internalType":"address"}],"stateMutability":"nonpayable"},{"type":"function","name":"genesisBlockHash","inputs":[],"outputs":[{"name":"","type":"bytes32","internalType":"bytes32"}],"stateMutability":"view"},{"type":"function","name":"genesisTimestamp","inputs":[],"outputs":[{"name":"","type":"uint48","internalType":"uint48"}],"stateMutability":"view"},{"type":"function","name":"initialize","inputs":[{"name":"_owner","type":"address","internalType":"address"},{"name":"_mirror","type":"address","internalType":"address"},{"name":"_mirrorProxy","type":"address","internalType":"address"},{"name":"_wrappedVara","type":"address","internalType":"address"},{"name":"_eraDuration","type":"uint256","internalType":"uint256"},{"name":"_electionDuration","type":"uint256","internalType":"uint256"},{"name":"_validationDelay","type":"uint256","internalType":"uint256"},{"name":"_aggregatedPublicKey","type":"tuple","internalType":"struct Gear.AggregatedPublicKey","components":[{"name":"x","type":"uint256","internalType":"uint256"},{"name":"y","type":"uint256","internalType":"uint256"}]},{"name":"_verifyingShares","type":"tuple[]","internalType":"struct Gear.VerifyingShare[]","components":[{"name":"x","type":"uint256","internalType":"uint256"},{"name":"y","type":"uint256","internalType":"uint256"}]},{"name":"_validators","type":"address[]","internalType":"address[]"}],"outputs":[],"stateMutability":"nonpayable"},{"type":"function","name":"isValidator","inputs":[{"name":"_validator","type":"address","internalType":"address"}],"outputs":[{"name":"","type":"bool","internalType":"bool"}],"stateMutability":"view"},{"type":"function","name":"latestCommittedBlockHash","inputs":[],"outputs":[{"name":"","type":"bytes32","internalType":"bytes32"}],"stateMutability":"view"},{"type":"function","name":"lookupGenesisHash","inputs":[],"outputs":[],"stateMutability":"nonpayable"},{"type":"function","name":"mirrorImpl","inputs":[],"outputs":[{"name":"","type":"address","internalType":"address"}],"stateMutability":"view"},{"type":"function","name":"mirrorProxyImpl","inputs":[],"outputs":[{"name":"","type":"address","internalType":"address"}],"stateMutability":"view"},{"type":"function","name":"owner","inputs":[],"outputs":[{"name":"","type":"address","internalType":"address"}],"stateMutability":"view"},{"type":"function","name":"programCodeId","inputs":[{"name":"_programId","type":"address","internalType":"address"}],"outputs":[{"name":"","type":"bytes32","internalType":"bytes32"}],"stateMutability":"view"},{"type":"function","name":"programsCodeIds","inputs":[{"name":"_programsIds","type":"address[]","internalType":"address[]"}],"outputs":[{"name":"","type":"bytes32[]","internalType":"bytes32[]"}],"stateMutability":"view"},{"type":"function","name":"programsCount","inputs":[],"outputs":[{"name":"","type":"uint256","internalType":"uint256"}],"stateMutability":"view"},{"type":"function","name":"reinitialize","inputs":[],"outputs":[],"stateMutability":"nonpayable"},{"type":"function","name":"renounceOwnership","inputs":[],"outputs":[],"stateMutability":"nonpayable"},{"type":"function","name":"requestCodeValidation","inputs":[{"name":"_codeId","type":"bytes32","internalType":"bytes32"}],"outputs":[],"stateMutability":"nonpayable"},{"type":"function","name":"setMirror","inputs":[{"name":"newMirror","type":"address","internalType":"address"}],"outputs":[],"stateMutability":"nonpayable"},{"type":"function","name":"signingThresholdPercentage","inputs":[],"outputs":[{"name":"","type":"uint16","internalType":"uint16"}],"stateMutability":"view"},{"type":"function","name":"transferOwnership","inputs":[{"name":"newOwner","type":"address","internalType":"address"}],"outputs":[],"stateMutability":"nonpayable"},{"type":"function","name":"validatedCodesCount","inputs":[],"outputs":[{"name":"","type":"uint256","internalType":"uint256"}],"stateMutability":"view"},{"type":"function","name":"validators","inputs":[],"outputs":[{"name":"","type":"address[]","internalType":"address[]"}],"stateMutability":"view"},{"type":"function","name":"validatorsAggregatedPublicKey","inputs":[],"outputs":[{"name":"","type":"tuple","internalType":"struct Gear.AggregatedPublicKey","components":[{"name":"x","type":"uint256","internalType":"uint256"},{"name":"y","type":"uint256","internalType":"uint256"}]}],"stateMutability":"view"},{"type":"function","name":"validatorsCount","inputs":[],"outputs":[{"name":"","type":"uint256","internalType":"uint256"}],"stateMutability":"view"},{"type":"function","name":"validatorsThreshold","inputs":[],"outputs":[{"name":"","type":"uint256","internalType":"uint256"}],"stateMutability":"view"},{"type":"function","name":"validatorsVerifyingShares","inputs":[],"outputs":[{"name":"","type":"tuple[]","internalType":"struct Gear.VerifyingShare[]","components":[{"name":"x","type":"uint256","internalType":"uint256"},{"name":"y","type":"uint256","internalType":"uint256"}]}],"stateMutability":"view"},{"type":"function","name":"wrappedVara","inputs":[],"outputs":[{"name":"","type":"address","internalType":"address"}],"stateMutability":"view"},{"type":"event","name":"BlockCommitted","inputs":[{"name":"hash","type":"bytes32","indexed":false,"internalType":"bytes32"}],"anonymous":false},{"type":"event","name":"CodeGotValidated","inputs":[{"name":"codeId","type":"bytes32","indexed":false,"internalType":"bytes32"},{"name":"valid","type":"bool","indexed":true,"internalType":"bool"}],"anonymous":false},{"type":"event","name":"CodeValidationRequested","inputs":[{"name":"codeId","type":"bytes32","indexed":false,"internalType":"bytes32"}],"anonymous":false},{"type":"event","name":"ComputationSettingsChanged","inputs":[{"name":"threshold","type":"uint64","indexed":false,"internalType":"uint64"},{"name":"wvaraPerSecond","type":"uint128","indexed":false,"internalType":"uint128"}],"anonymous":false},{"type":"event","name":"Initialized","inputs":[{"name":"version","type":"uint64","indexed":false,"internalType":"uint64"}],"anonymous":false},{"type":"event","name":"NextEraValidatorsCommitted","inputs":[{"name":"startTimestamp","type":"uint256","indexed":false,"internalType":"uint256"}],"anonymous":false},{"type":"event","name":"OwnershipTransferred","inputs":[{"name":"previousOwner","type":"address","indexed":true,"internalType":"address"},{"name":"newOwner","type":"address","indexed":true,"internalType":"address"}],"anonymous":false},{"type":"event","name":"ProgramCreated","inputs":[{"name":"actorId","type":"address","indexed":false,"internalType":"address"},{"name":"codeId","type":"bytes32","indexed":true,"internalType":"bytes32"}],"anonymous":false},{"type":"event","name":"StorageSlotChanged","inputs":[],"anonymous":false},{"type":"error","name":"ECDSAInvalidSignature","inputs":[]},{"type":"error","name":"ECDSAInvalidSignatureLength","inputs":[{"name":"length","type":"uint256","internalType":"uint256"}]},{"type":"error","name":"ECDSAInvalidSignatureS","inputs":[{"name":"s","type":"bytes32","internalType":"bytes32"}]},{"type":"error","name":"FailedDeployment","inputs":[]},{"type":"error","name":"InsufficientBalance","inputs":[{"name":"balance","type":"uint256","internalType":"uint256"},{"name":"needed","type":"uint256","internalType":"uint256"}]},{"type":"error","name":"InvalidInitialization","inputs":[]},{"type":"error","name":"NotInitializing","inputs":[]},{"type":"error","name":"OwnableInvalidOwner","inputs":[{"name":"owner","type":"address","internalType":"address"}]},{"type":"error","name":"OwnableUnauthorizedAccount","inputs":[{"name":"account","type":"address","internalType":"address"}]},{"type":"error","name":"ReentrancyGuardReentrantCall","inputs":[]}],"bytecode":{"object":"0x6080806040523460aa575f516020613e0c5f395f51905f525460ff8160401c16609b576002600160401b03196001600160401b038216016049575b604051613d5d90816100af8239f35b6001600160401b0319166001600160401b039081175f516020613e0c5f395f51905f525581527fc7f505b2f371ae2175ee4913f4499e1f2633a7b5936321eed1cdaeb6115181d290602090a15f80603a565b63f92ee8a960e01b5f5260045ffd5b5f80fdfe6080806040526004361015610012575f80fd5b5f905f3560e01c9081627a32e7146120fd575080630d9078b114611cb9578063120e3f1e14611b3157806328e24b3d14611b07578063389e75791461158e5780633bd109fa146115405780633d43b418146114ee578063527de0f91461146557806365ecfea21461142c5780636c2eb35014611110578063715018a6146110a75780637b4dda971461102157806382bdeaad14610f0957806384d22a4f14610ea057806388f50cf014610e675780638b1edf1e14610da05780638da5cb5b14610d6b5780638f381dbe14610d255780639067088e14610cdc57806396a2ddfa14610cae578063b6a4968014610ba7578063baaf020114610aaa578063c13911e814610a66578063c9f16a1114610a38578063ca1e7819146109b5578063cacf66ab1461097d578063dc360d9214610647578063e6fabc091461060e578063e7006a74146104ed578063ea89096d146102d9578063ed612f8c146102a1578063edc8722514610257578063efd81abc14610225578063f2fde38b146101f85763facd743b1461019e575f80fd5b346101f55760203660031901126101f5576101b7612157565b60036101d25f516020613ce85f395f51905f52544290613917565b019060018060a01b03165f52602052602060ff60405f2054166040519015158152f35b80fd5b50346101f55760203660031901126101f557610222610215612157565b61021d612b61565b61271f565b80f35b50346101f557806003193601126101f557602061ffff60075f516020613ce85f395f51905f5254015416604051908152f35b50346101f557806003193601126101f55760206102995f516020613ce85f395f51905f525461ffff6007600461028d4285613917565b015492015416906137be565b604051908152f35b50346101f557806003193601126101f557602060046102cf5f516020613ce85f395f51905f52544290613917565b0154604051908152f35b50346101f55760603660031901126101f5576004356001600160401b0381116104e957366023820112156104e95780600401356001600160401b0381116104e557602482019160243691606084020101116104e5576024359160028310156104e1576044356001600160401b0381116104dd5761035d909291923690600401612127565b9390915f516020613ce85f395f51905f52549061037c8254151561218e565b86946060916018840190875b8181106103ae578a6102226103a98b8d8c8c8c8c6020815191012090613354565b6125bc565b6103b981838661263d565b948b60ff60408835928381528760205220541660038110156104c95791610470917f460119a8f69a33ed127de517d5ea464e958ce23ef19e4420a8b92bf780bbc2c98f61044e8c6020979260408e61041460018c971461264d565b01918c610420846126b7565b156104b0578260409189601b9552875220600260ff198254161790550161044781546126c4565b90556126b7565b151592604051908152a261046a610465368a6126d2565b613779565b9061257c565b95018965ffffffffffff610483836125a9565b1611610493575b50600101610388565b60019199506104a865ffffffffffff916125a9565b16989061048a565b50508581528b845260409020805460ff191690556126b7565b634e487b7160e01b8e52602160045260248efd5b8480fd5b8380fd5b8280fd5b5080fd5b50346101f55760603660031901126101f557610507612157565b6024359061054f6044359161051c8385612b94565b93604051936020850191825260408501526040845261053c606085612281565b92519092206001600160a01b0392613b48565b16803b156104e55760405163189acdbd60e31b81526001600160a01b0390921660048301819052918390818160248183875af18015610603576105ee575b5050813b156104e5576040519063485cc95560e01b82523360048301526024820152828160448183865af180156105e3576105ce575b602082604051908152f35b6105d9838092612281565b6104e957816105c3565b6040513d85823e3d90fd5b816105f891612281565b6104e557825f61058d565b6040513d84823e3d90fd5b50346101f557806003193601126101f5575f516020613ce85f395f51905f5254600401546040516001600160a01b039091168152602090f35b50346101f55760603660031901126101f5576004356001600160401b0381116104e9578060040190604060031982360301126104e5576024359160028310156104e1576044356001600160401b0381116104dd576106a9903690600401612127565b916106b2612cc8565b5f516020613ce85f395f51905f5254906106ce8254151561218e565b6106d88180612608565b9050151580610966575b15610921578695939594606093889560188501965b6107018580612608565b905081101561081b5761071e816107188780612608565b9061263d565b968b60ff60408a35928381528c60205220541660038110156104c957916107c4917f460119a8f69a33ed127de517d5ea464e958ce23ef19e4420a8b92bf780bbc2c98f6107ad8e8d8f93604060209a9561077b60018d981461264d565b0192610786846126b7565b1561080457878252855260409020805460ff19166002179055601b018054610447906126c4565b151592604051908152a261046a610465368c6126d2565b97018965ffffffffffff6107d7836125a9565b16116107e7575b506001016106f7565b60019199506107fc65ffffffffffff916125a9565b1698906107de565b878252855260409020805460ff19169055506126b7565b5097909498919395506060946024839501945b610838868661238e565b90508110156108a557602061086561085a836108548a8a61238e565b9061255a565b9861046a8a8c612d23565b97018965ffffffffffff610878836125a9565b1611610888575b5060010161082e565b600191995061089d65ffffffffffff916125a9565b16989061087f565b50876108fb926103a9928b8a8a8f6108f28a9160208060405194859382808601988051918291018a5e850191838301908152815193849201905e01018c815203601f198101835282612281565b51902090613354565b807f9b779b17422d0df92223018b32b4d1fa46e071723d6817e2486d003becc55f005d80f35b60405162461bcd60e51b815260206004820152601860248201527f6e6f20636f6d6d69746d656e747320746f20636f6d6d697400000000000000006044820152606490fd5b50610974602486018261238e565b905015156106e2565b50346101f557806003193601126101f557602065ffffffffffff60015f516020613ce85f395f51905f52540154821c16604051908152f35b50346101f557806003193601126101f5576109ea60046109e45f516020613ce85f395f51905f52544290613917565b0161244f565b90604051918291602083016020845282518091526020604085019301915b818110610a16575050500390f35b82516001600160a01b0316845285945060209384019390920191600101610a08565b50346101f557806003193601126101f557602060025f516020613ce85f395f51905f52540154604051908152f35b50346101f55760203660031901126101f55760ff604060209260185f516020613ce85f395f51905f52540160043582528452205416610aa86040518092612181565bf35b50346101f55760203660031901126101f5576004356001600160401b0381116104e957610adb903690600401612127565b905f516020613ce85f395f51905f525490610af5836122ca565b91610b036040519384612281565b838352610b0f846122ca565b602084019490601f19013686376019869201915b818110610b6e57868587604051928392602084019060208552518091526040840192915b818110610b55575050500390f35b8251845285945060209384019390920191600101610b47565b80610b84610b7f60019385886124a2565b6124da565b828060a01b03165f528360205260405f2054610ba082886124c6565b5201610b23565b50346101f55760603660031901126101f5576004356001600160401b0381116104e957610bd8903690600401612127565b6024359060028210156104e1576044356001600160401b0381116104dd57610c04903690600401612127565b929091610c0f612cc8565b5f516020613ce85f395f51905f525490610c2b8254151561218e565b8695606091885b818110610c5357896108fb6103a98b8b8b8b8b8b6020815191012090613354565b6020610c6e610c6383858761255a565b9561046a8789612d23565b94018965ffffffffffff610c81836125a9565b1611610c91575b50600101610c32565b6001919950610ca665ffffffffffff916125a9565b169890610c88565b50346101f557806003193601126101f5576020601a5f516020613ce85f395f51905f52540154604051908152f35b50346101f55760203660031901126101f557610cf6612157565b60195f516020613ce85f395f51905f5254019060018060a01b03165f52602052602060405f2054604051908152f35b50346101f55760203660031901126101f557600435906001600160401b0382116101f5576020610d61610d5b3660048601612127565b906124ee565b6040519015158152f35b50346101f557806003193601126101f5575f516020613cc85f395f51905f52546040516001600160a01b039091168152602090f35b50346101f557806003193601126101f5575f516020613ce85f395f51905f52548054610e225763ffffffff60018201541640908115610ddd575580f35b60405162461bcd60e51b815260206004820152601d60248201527f756e61626c6520746f206c6f6f6b75702067656e6573697320686173680000006044820152606490fd5b60405162461bcd60e51b815260206004820152601860248201527f67656e65736973206861736820616c72656164792073657400000000000000006044820152606490fd5b50346101f557806003193601126101f5575f516020613ce85f395f51905f5254600601546040516001600160a01b039091168152602090f35b50346101f557806003193601126101f557610eb96123c3565b50604060145f516020613ce85f395f51905f5254016001600160801b03825191610ee283612266565b548160206001600160401b038316948581520191851c168152835192835251166020820152f35b50346101f55760203660031901126101f5576004356001600160401b0381116104e957610f3a903690600401612127565b905f516020613ce85f395f51905f525490610f54836122ca565b91610f626040519384612281565b838352610f6e846122ca565b602084019490601f19013686376018869201915b818110610fd757868587604051928392602084019060208552518091526040840192915b818110610fb4575050500390f35b9193509160208082610fc96001948851612181565b019401910191849392610fa6565b610fe28183866124a2565b3587528260205260ff604088205416610ffb82876124c6565b600382101561100d5752600101610f82565b634e487b7160e01b89526021600452602489fd5b50346101f557806003193601126101f55761105660026110505f516020613ce85f395f51905f52544290613917565b016123f9565b90604051918291602083016020845282518091526020604085019301915b818110611082575050500390f35b8251805185526020908101518186015286955060409094019390920191600101611074565b50346101f557806003193601126101f5576110c0612b61565b5f516020613cc85f395f51905f5280546001600160a01b0319811690915581906001600160a01b03167f8be0079c531659141344cd1fd0a4f28419497f9722a3daafe3b4186f6b6457e08280a380f35b50346101f557806003193601126101f557611129612b61565b5f516020613d085f395f51905f525460ff8160401c168015611418575b61140957680100000000000000029068ffffffffffffffffff1916175f516020613d085f395f51905f52555f516020613ce85f395f51905f5254604090815161118f8382612281565b6017815260208101907f726f757465722e73746f726167652e526f75746572563200000000000000000082526111c3612b61565b5190205f1981019081116113f557916020917fc7f505b2f371ae2175ee4913f4499e1f2633a7b5936321eed1cdaeb6115181d29382519084820190815284825261120d8483612281565b60ff19915190201690815f516020613ce85f395f51905f525561122e612b1c565b80518355600183019063ffffffff868201511669ffffffffffff00000000868454930151881b169169ffffffffffffffffffff1916171790556004810160048301908082036113a7575b505061ffff600782015416600783019061ffff198254161790556112df61129f4283613917565b60026112ab4285613917565b016112cb6112c560046112be4288613917565b01936123db565b916123f9565b6112d5429361244f565b9160088601612806565b601481016014830190808203611355575b5050601581016015830191818303611335575b5050505060ff60401b195f516020613d085f395f51905f5254165f516020613d085f395f51905f52555160028152a180f35b60179283925490556016810154601685015501549101555f808080611303565b806001600160401b03806001600160801b03935416166001600160401b031984541617835554851c16600160401b600160c01b03825491861b1690600160401b600160c01b0319161790555f806112f0565b5481546001600160a01b03199081166001600160a01b039283161790925560058381015490850180548416918316919091179055600680840154908501805490931691161790555f80611278565b634e487b7160e01b84526011600452602484fd5b63f92ee8a960e01b8252600482fd5b5060026001600160401b0382161015611146565b50346101f557806003193601126101f5575f516020613ce85f395f51905f5254600501546040516001600160a01b039091168152602090f35b346114ea5760403660031901126114ea576001600160a01b0361148c602435600435612b94565b16803b156114ea576040519063485cc95560e01b82523360048301525f60248301525f8260448183855af19182156114df576020926114cf575b50604051908152f35b5f6114d991612281565b5f6114c6565b6040513d5f823e3d90fd5b5f80fd5b346114ea5760203660031901126114ea57611507612157565b61150f612b61565b5f516020613ce85f395f51905f525460040180546001600160a01b0319166001600160a01b03909216919091179055005b346114ea575f3660031901126114ea576115586123c3565b50604061157c6115775f516020613ce85f395f51905f52544290613917565b6123db565b60208251918051835201516020820152f35b346114ea576101603660031901126114ea576115a8612157565b6024356001600160a01b03811691908290036114ea576044356001600160a01b03811692908390036114ea576064356001600160a01b038116908190036114ea576084359160a43560c43595604060e3193601126114ea5761012435916001600160401b0383116114ea57366023840112156114ea578260040135916001600160401b0383116114ea573660248460061b860101116114ea57610144356001600160401b0381116114ea57611661903690600401612127565b9690945f516020613d085f395f51905f525460ff8160401c16159a6001600160401b03821680159081611aff575b6001149081611af5575b159081611aec575b50611add5767ffffffffffffffff1982166001175f516020613d085f395f51905f52556116df918c611ab1575b506116d76138ec565b61021d6138ec565b4215611a5b578315611a0557838911156119a457600a6116ff858b612200565b048b101561195f5760409a8b516117168d82612281565b6017815260208101907f726f757465722e73746f726167652e526f757465725631000000000000000000825261174a612b61565b5190205f1981019590861161194b576118f49a828e6118e3966118ed98600560089b84519060208201908152602082526117848683612281565b60ff1991519020169e8f90815f516020613ce85f395f51905f52556117a7612b1c565b80518355600183019063ffffffff60208201511669ffffffffffff0000000089845493015160201b169169ffffffffffffffffffff191617179055848680516117ef8161224b565b8381526020810187905201526004820180546001600160a01b03199081166001600160a01b039384161790915592909101805483169382169390931790925560068f0180549091169290911691909117905560078c01805461ffff1916611a0a17905561185a6123c3565b506509184e72a0006020825161186f81612266565b639502f9008152015260148c0180546001600160c01b0319166d09184e72a000000000009502f90017905580516118a58161224b565b838152846020820152015260158a0155601689015560178801558a51946118cb86612266565b60e435865261010435602087015260243692016122e1565b934296369161233a565b9301612806565b6118fa57005b60207fc7f505b2f371ae2175ee4913f4499e1f2633a7b5936321eed1cdaeb6115181d29160ff60401b195f516020613d085f395f51905f5254165f516020613d085f395f51905f52555160018152a1005b634e487b7160e01b5f52601160045260245ffd5b60405162461bcd60e51b815260206004820152601b60248201527f76616c69646174696f6e2064656c617920697320746f6f2062696700000000006044820152606490fd5b60405162461bcd60e51b815260206004820152603360248201527f657261206475726174696f6e206d757374206265206772656174657220746861604482015272371032b632b1ba34b7b710323ab930ba34b7b760691b6064820152608490fd5b60405162461bcd60e51b815260206004820152602860248201527f656c656374696f6e206475726174696f6e206d75737420626520677265617465604482015267072207468616e20360c41b6064820152608490fd5b60405162461bcd60e51b815260206004820152602860248201527f63757272656e742074696d657374616d70206d75737420626520677265617465604482015267072207468616e20360c41b6064820152608490fd5b68ffffffffffffffffff191668010000000000000001175f516020613d085f395f51905f52558d6116ce565b63f92ee8a960e01b5f5260045ffd5b9050158e6116a1565b303b159150611699565b8d915061168f565b346114ea575f3660031901126114ea5760205f516020613ce85f395f51905f525454604051908152f35b346114ea5760203660031901126114ea576004355f4915611c3d5760185f516020613ce85f395f51905f5254611b698154151561218e565b01815f528060205260ff60405f2054166003811015611c2957611bc857816020917f5c261a095dd5720475295dc06379921c003c22164ee6cae5cf83e76ce0a1b985935f52825260405f20600160ff19825416179055604051908152a1005b60405162461bcd60e51b815260206004820152603360248201527f676976656e20636f646520696420697320616c7265616479206f6e2076616c6960448201527219185d1a5bdb881bdc881d985b1a59185d1959606a1b6064820152608490fd5b634e487b7160e01b5f52602160045260245ffd5b60405162461bcd60e51b815260206004820152604860248201527f626c6f622063616e277420626520666f756e642c20726f75746572206578706560448201527f63746564204549502d34383434207472616e73616374696f6e2077697468205760648201526720a9a690313637b160c11b608482015260a490fd5b346114ea5760603660031901126114ea576004356001600160401b0381116114ea57368190036004820160a06003198301126114ea576024359060028210156114ea576044356001600160401b0381116114ea57611d1b903690600401612127565b5f516020613ce85f395f51905f529291925493611d3a8554151561218e565b65ffffffffffff600186015460201c1695611d558742612200565b611d646015880154809261220d565b9760848a0135986001810180911161194b5789036120a557611d8989611d8f93612238565b9061222b565b95611d9e601682015488612200565b421061206057611dad81612790565b9342600586015410156120005760405196608088018881106001600160401b03821117611fec57604052611de136886122a2565b885260448b0135946001600160401b0386116114ea57858c01983660238b0112156114ea5760048a01359b6024909a01998d611e1e368f8e6122e1565b60208401526064019d8e35906001600160401b0382116114ea5701366023820112156114ea57611e5890369060246004820135910161233a565b9182604082015281606082015251916020835193015191604051926020840194855260408401526060830160208351919301905f5b818110611fcd5750505060208383611eb593611ede9b9a999897969552038084520182612281565b51902093604051946020860190815260208652611ed3604087612281565b429551902090613354565b15611f6d576022190113156114ea576001600160401b0385116114ea578460061b360383136114ea57611f4e602095611f5e84611f56611f6497611f447f41e7f919bf726af8aa2ef36bd31905a693013e30c45c6284060e613d4941997b9c8b9961238e565b96909336906122a2565b9436916122e1565b93369161233a565b92612806565b604051908152a1005b60405162461bcd60e51b815260206004820152603260248201527f6e657874206572612076616c696461746f7273207369676e6174757265732076604482015271195c9a599a58d85d1a5bdb8819985a5b195960721b6064820152608490fd5b82516001600160a01b0316855260209485019490920191600101611e8d565b634e487b7160e01b5f52604160045260245ffd5b60405162461bcd60e51b815260206004820152603260248201527f6c6f6f6b73206c696b652076616c696461746f727320666f72206e65787420656044820152711c9848185c9948185b1c9958591e481cd95d60721b6064820152608490fd5b60405162461bcd60e51b815260206004820152601b60248201527f656c656374696f6e206973206e6f7420796574207374617274656400000000006044820152606490fd5b60405162461bcd60e51b815260206004820152602a60248201527f636f6d6d69746d656e742065726120696e646578206973206e6f74206e657874604482015269040cae4c240d2dcc8caf60b31b6064820152608490fd5b346114ea575f3660031901126114ea57602090601b5f516020613ce85f395f51905f525401548152f35b9181601f840112156114ea578235916001600160401b0383116114ea576020808501948460051b0101116114ea57565b600435906001600160a01b03821682036114ea57565b35906001600160a01b03821682036114ea57565b906003821015611c295752565b1561219557565b60405162461bcd60e51b815260206004820152603860248201527f726f757465722067656e65736973206973207a65726f3b2063616c6c20606c6f60448201527f6f6b757047656e657369734861736828296020666972737400000000000000006064820152608490fd5b9190820391821161194b57565b8115612217570490565b634e487b7160e01b5f52601260045260245ffd5b9190820180921161194b57565b8181029291811591840414171561194b57565b606081019081106001600160401b03821117611fec57604052565b604081019081106001600160401b03821117611fec57604052565b90601f801991011681019081106001600160401b03821117611fec57604052565b91908260409103126114ea576040516122ba81612266565b6020808294803584520135910152565b6001600160401b038111611fec5760051b60200190565b909291926122ee816122ca565b936122fc6040519586612281565b602085838152019160061b8301928184116114ea57915b8383106123205750505050565b602060409161232f84866122a2565b815201920191612313565b929190612346816122ca565b936123546040519586612281565b602085838152019160051b81019283116114ea57905b82821061237657505050565b602080916123838461216d565b81520191019061236a565b903590601e19813603018212156114ea57018035906001600160401b0382116114ea57602001918160051b360383136114ea57565b604051906123d082612266565b5f6020838281520152565b906040516123e881612266565b602060018294805484520154910152565b908154612405816122ca565b926124136040519485612281565b81845260208401905f5260205f205f915b8383106124315750505050565b60026020600192612441856123db565b815201920192019190612424565b90604051918281549182825260208201905f5260205f20925f5b81811061248057505061247e92500383612281565b565b84546001600160a01b0316835260019485019487945060209093019201612469565b91908110156124b25760051b0190565b634e487b7160e01b5f52603260045260245ffd5b80518210156124b25760209160051b010190565b356001600160a01b03811681036114ea5790565b6125075f516020613ce85f395f51905f52544290613917565b600301905f5b83811061251d5750505050600190565b61252b610b7f8286856124a2565b6001600160a01b03165f9081526020849052604090205460ff16156125525760010161250d565b505050505f90565b91908110156124b25760051b81013590609e19813603018212156114ea570190565b60208061247e928195946040519682889351918291018585015e8201908382015203018085520183612281565b3565ffffffffffff811681036114ea5790565b156125c357565b60405162461bcd60e51b815260206004820152601e60248201527f7369676e61747572657320766572696669636174696f6e206661696c656400006044820152606490fd5b903590601e19813603018212156114ea57018035906001600160401b0382116114ea576020019160608202360383136114ea57565b91908110156124b2576060020190565b1561265457565b60405162461bcd60e51b815260206004820152603560248201527f636f6465206d7573742062652072657175657374656420666f722076616c6964604482015274185d1a5bdb881d1bc818994818dbdb5b5a5d1d1959605a1b6064820152608490fd5b3580151581036114ea5790565b5f19811461194b5760010190565b91908260609103126114ea576040516126ea8161224b565b80928035825260208101359065ffffffffffff821682036114ea57604091602084015201359081151582036114ea5760400152565b6001600160a01b0316801561277d575f516020613cc85f395f51905f5280546001600160a01b0319811683179091556001600160a01b03167f8be0079c531659141344cd1fd0a4f28419497f9722a3daafe3b4186f6b6457e05f80a3565b631e4fbdf760e01b5f525f60045260245ffd5b61279a42826137e0565b156127a55760080190565b600e0190565b156127b257565b60405162461bcd60e51b815260206004820152602660248201527f46524f53542061676772656761746564207075626c6963206b657920697320696044820152651b9d985b1a5960d21b6064820152608490fd5b9061284d9095939594929461283e8151602083015170014551231950b75fc4402da1732fc9bebe1982109182612b0b575b50506127ab565b80518355602001516001830155565b8351855103612aa0575f5b84518110156128ce5761287c61286e82876124c6565b5160208151910151906138c9565b1561288957600101612858565b60405162461bcd60e51b815260206004820152601f60248201527f766572696679696e67207368617265206973206e6f74206f6e206375727665006044820152606490fd5b509193909260028301815191600160401b8311611fec578154838355808410612a4e575b50602001905f5260205f205f915b838310612a2457505050505f5b60048301805482101561294b575f90815260208082208301546001600160a01b0316825260038501905260409020805460ff1916905560010161290d565b5050925f5b8451811015612994576001906001600160a01b0361296e82886124c6565b5116828060a01b03165f526003840160205260405f208260ff1982541617905501612950565b5092600482018151916001600160401b038311611fec57600160401b8311611fec5781548383558084106129fe575b50602001905f5260205f205f5b8381106129e1575050505060050155565b82516001600160a01b0316818301556020909201916001016129d0565b825f528360205f2091820191015b818110612a1957506129c3565b5f8155600101612a0c565b6002602082612a426001945186906020600191805184550151910155565b01920192019190612900565b6001600160ff1b038116810361194b576001600160ff1b038416840361194b57825f5260205f209060011b8101908460011b015b818110612a8f57506128f2565b5f8082556001820155600201612a82565b60405162461bcd60e51b815260206004820152603860248201527f766572696679696e672073686172657320636f756e74206d757374206265206560448201527f7175616c20746f2076616c696461746f727320636f756e7400000000000000006064820152608490fd5b612b1592506138c9565b5f80612837565b5f60408051612b2a8161224b565b8281528260208201520152604051612b418161224b565b5f815263ffffffff4316602082015265ffffffffffff4216604082015290565b5f516020613cc85f395f51905f52546001600160a01b03163303612b8157565b63118cdaa760e01b5f523360045260245ffd5b5f516020613ce85f395f51905f525491612bb08354151561218e565b815f526018830160205260ff60405f2054166003811015611c2957600203612c6c57612c0e601a9160018060a01b03600586015416906040516020810191868352604082015260408152612c05606082612281565b51902090613b48565b9260018060a01b0384165f52601981016020528260405f205501612c3281546126c4565b90556040516001600160a01b03831681527f8008ec1d8798725ebfa0f2d128d52e8e717dcba6e0f786557eeee70614b02bf190602090a290565b60405162461bcd60e51b815260206004820152602e60248201527f636f6465206d7573742062652076616c696461746564206265666f726520707260448201526d37b3b930b69031b932b0ba34b7b760911b6064820152608490fd5b7f9b779b17422d0df92223018b32b4d1fa46e071723d6817e2486d003becc55f005c612d145760017f9b779b17422d0df92223018b32b4d1fa46e071723d6817e2486d003becc55f005d565b633ee5aeb560e01b5f5260045ffd5b9091600282019182549360408101358095036132bc57606081013590612d4882613933565b1561326857612da28196949596359160208381830199612d678b6125a9565b65ffffffffffff60405191612d7b83612266565b84835216938491015255600386019065ffffffffffff19825416179055608081019061238e565b9590916060955f9860be1985360301956019600689019801985b8a8c10156131dd578b60051b870135888112156114ea578701612dde816124da565b6001600160a01b03165f90815260208c90526040902054156131805789546001600160a01b0316612e0e826124da565b90606083019182356001600160801b0381168091036114ea5760405163a9059cbb60e01b81526001600160a01b039092166004830152602482015290602090829060449082905f905af180156114df5761314a575b506001600160a01b03612e75836124da565b6040516309ed323560e41b8152602060048201529391169160e4840191906001600160801b0390612ee0906001600160a01b03612eb18561216d565b166024880152602084013560448801526001600160a01b03612ed56040860161216d565b166064880152613970565b16608485015236819003601e19016080820135818112156114ea578201602081359101936001600160401b0382116114ea5760608202360385136114ea57819060c060a489015252610104860193905f905b8082106131005750505060a0820135908112156114ea570180359160208201926001600160401b0381116114ea578060051b9182360385136114ea578681036023190160c48801528181528694928101602090810194908201925f9290913681900360de19015b838510613007575050505050505091815f8160209503925af19081156114df575f91612fd5575b50612fcd9060019261257c565b9b019a612dbc565b90506020813d8211612fff575b81612fef60209383612281565b810103126114ea57516001612fc0565b3d9150612fe2565b9193959750919395601f198482030187528735828112156114ea57830160208101358252906001600160a01b036130406040840161216d565b1660208201526060820135603e1936849003018112156114ea5782602091010191602083359301906001600160401b0384116114ea5783360382136114ea578360c092836040860152818486015260e08501375f60e085850101526001600160801b036130af60808301613970565b16606084015260a0810135608084015201359163ffffffff60e01b83168093036114ea5760e0826020939260019560a086950152601f80199101160101990197019501929091899796959492612f99565b90919460608060019288358152838060a01b0361311f60208b0161216d565b1660208201526001600160801b0361313960408b01613970565b166040820152019601920190612f32565b6020813d8211613178575b8161316260209383612281565b810103126114ea57518015158114612e63575f80fd5b3d9150613155565b60405162461bcd60e51b815260206004820152602f60248201527f636f756c646e277420706572666f726d207472616e736974696f6e20666f722060448201526e756e6b6e6f776e2070726f6772616d60881b6064820152608490fd5b949a509550955095509550613224915060208151910120927fd756eca21e02cb0dbde1e44a4d9c6921b5c8aa4668cfa0752784b3dc855bce1e6020604051888152a16125a9565b92604051936020850195865265ffffffffffff60d01b9060d01b1660408501526046840152606683015260868201526086815261326260a682612281565b51902090565b60405162461bcd60e51b815260206004820152602660248201527f616c6c6f776564207072656465636573736f7220626c6f636b207761736e277460448201526508199bdd5b9960d21b6064820152608490fd5b60405162461bcd60e51b815260206004820152602560248201527f696e76616c69642070726576696f757320636f6d6d697474656420626c6f636b604482015264040d0c2e6d60db1b6064820152608490fd5b9291926001600160401b038211611fec5760405191613338601f8201601f191660200184612281565b8294818452818301116114ea578281602093845f960137010152565b909493919365ffffffffffff600183015460201c1661338a61339561338f61337c8442612200565b60158701549384809261220d565b612238565b8361222b565b918284108080613763575b156136f1575083106136ac576133b6908361222b565b1061365b576133c6905b82613917565b946040519060208201908152602082526133e1604083612281565b61341d603660405180936020820195601960f81b87523060601b60228401525180918484015e81015f838201520301601f198101835282612281565b519020936002811015611c2957806135795750506001810361353457156124b257803590601e19813603018212156114ea57018035906001600160401b0382116114ea5760200181360381136114ea5761347891369161330f565b9160608351036134df578260206134c79401516060604083015192015192600181549101549070014551231950b75fc4402da1732fc9bebe198110806134ca575b6134c2906127ab565b613984565b90565b506134c26134d883836138c9565b90506134b9565b60405162461bcd60e51b815260206004820152602760248201527f46524f5354207369676e6174757265206c656e677468206d75737420626520396044820152663620627974657360c81b6064820152608490fd5b60405162461bcd60e51b815260206004820152601e60248201527f46524f5354207369676e6174757265206d7573742062652073696e676c6500006044820152606490fd5b6001146135895750505050505f90565b6135a39061ffff60076004889598015492015416906137be565b925f9260035f9301925b86811015613650578060051b820135601e19833603018112156114ea5782018035906001600160401b0382116114ea5760200181360381136114ea5761360b91613602916135fc91369161330f565b85613bab565b90929192613be5565b6001600160a01b03165f9081526020859052604090205460ff16613632575b6001016135ad565b9361363c906126c4565b9385850361362a5750505050505050600190565b505050505050505f90565b60405162461bcd60e51b8152602060048201526024808201527f74696d657374616d70206973206f6c646572207468616e2070726576696f75736044820152632065726160e01b6064820152608490fd5b60405162461bcd60e51b815260206004820152601e60248201527f63616e6e6f742076616c6964617465206265666f72652067656e6573697300006044820152606490fd5b9392915050428211613714576133c69261370c575b506133c0565b90505f613706565b60405162461bcd60e51b815260206004820152602160248201527f74696d657374616d702063616e6e6f7420626520696e207468652066757475726044820152606560f81b6064820152608490fd5b5061377260178701548561222b565b42106133a0565b805190604060208201519101511515604051916020830193845265ffffffffffff60d01b9060d01b16604083015260f81b604682015260278152613262604782612281565b61ffff6137cc921690612238565b61270f810180911161194b57612710900490565b906013600d8301549201548083146138855781818410931191821591111591819061387e575b1561381b578261381557505090565b14919050565b60405162461bcd60e51b815260206004820152603560248201527f636f756c64206e6f74206964656e746966792076616c696461746f727320666f6044820152740722074686520676976656e2074696d657374616d7605c1b6064820152608490fd5b5081613806565b606460405162461bcd60e51b815260206004820152602060248201527f657261732074696d657374616d70206d757374206e6f7420626520657175616c6044820152fd5b6401000003d01990600790829081818009900908906401000003d0199080091490565b60ff5f516020613d085f395f51905f525460401c161561390857565b631afcd79f60e31b5f5260045ffd5b9061392290826137e0565b1561392d57600e0190565b60080190565b905f19430143811161194b57805b61394c575b505f9150565b804083810361395d57506001925050565b1561396b575f190180613941565b613946565b35906001600160801b03821682036114ea57565b929391949061399385876138c9565b15613b3e578215613b3e5770014551231950b75fc4402da1732fc9bebe19831015613b3e576001169061010e6040519161012083018381106001600160401b038211176114ea5760405260883684376002600188160160888401538760898401526002840160a984015360aa830186905260ca8301527e300046524f53542d736563703235366b312d4b454343414b3235362d76316360ea8301526303430b6160e51b61010a830152812060cc820181815290600260ec84016001815360428420809318845253604270014551231950b75fc4402da1732fc9bebe19922060801c6001600160401b0360801b8260801b16179070014551231950b75fc4402da1732fc9bebe1990600160c01b9060401c090880156136505784601b6080945f9660209870014551231950b75fc4402da1732fc9bebe19910970014551231950b75fc4402da1732fc9bebe19038552018684015280604084015270014551231950b75fc4402da1732fc9bebe19910970014551231950b75fc4402da1732fc9bebe1903606082015282805260015afa156114ea575f51915f5260205260018060a01b0360405f20161490565b5050505050505f90565b6e5af43d82803e903d91602b57fd5bf390763d602d80600a3d3981f3363d3d373d3d3d363d7300000062ffffff8260881c16175f5260781b17602052603760095ff5906001600160a01b03821615613b9c57565b63b06ebf3d60e01b5f5260045ffd5b8151919060418303613bdb57613bd49250602082015190606060408401519301515f1a90613c45565b9192909190565b50505f9160029190565b6004811015611c295780613bf7575050565b60018103613c0e5763f645eedf60e01b5f5260045ffd5b60028103613c29575063fce698f760e01b5f5260045260245ffd5b600314613c335750565b6335e2f38360e21b5f5260045260245ffd5b91907f7fffffffffffffffffffffffffffffff5d576e7357a4501ddfe92f46681b20a08411613cbc579160209360809260ff5f9560405194855216868401526040830152606082015282805260015afa156114df575f516001600160a01b03811615613cb257905f905f90565b505f906001905f90565b5050505f916003919056fe9016d09d72d40fdae2fd8ceac6b6234c7706214fd39c1cd1e609a0528c1993005c09ca1b9b8127a4fd9f3c384aac59b661441e820e17733753ff5f2e86e1e000f0c57e16840df040f15088dc2f81fe391c3923bec73e23a9662efc9c229c6a00a2646970667358221220af8bd347115b84287a60b245debbc9ea82a1c7054635018786ea71f096e8cc1c64736f6c634300081c0033f0c57e16840df040f15088dc2f81fe391c3923bec73e23a9662efc9c229c6a00","linkReferences":{}},"methodIdentifiers":{"areValidators(address[])":"8f381dbe","codeState(bytes32)":"c13911e8","codesStates(bytes32[])":"82bdeaad","commitBatch(((bytes32,uint48,bool)[],(bytes32,uint48,bytes32,bytes32,(address,bytes32,address,uint128,(bytes32,address,uint128)[],(bytes32,address,bytes,uint128,(bytes32,bytes4))[])[])[]),uint8,bytes[])":"dc360d92","commitBlocks((bytes32,uint48,bytes32,bytes32,(address,bytes32,address,uint128,(bytes32,address,uint128)[],(bytes32,address,bytes,uint128,(bytes32,bytes4))[])[])[],uint8,bytes[])":"b6a49680","commitCodes((bytes32,uint48,bool)[],uint8,bytes[])":"ea89096d","commitValidators(((uint256,uint256),(uint256,uint256)[],address[],uint256),uint8,bytes[])":"0d9078b1","computeSettings()":"84d22a4f","createProgram(bytes32,bytes32)":"527de0f9","createProgramWithDecoder(address,bytes32,bytes32)":"e7006a74","genesisBlockHash()":"28e24b3d","genesisTimestamp()":"cacf66ab","initialize(address,address,address,address,uint256,uint256,uint256,(uint256,uint256),(uint256,uint256)[],address[])":"389e7579","isValidator(address)":"facd743b","latestCommittedBlockHash()":"c9f16a11","lookupGenesisHash()":"8b1edf1e","mirrorImpl()":"e6fabc09","mirrorProxyImpl()":"65ecfea2","owner()":"8da5cb5b","programCodeId(address)":"9067088e","programsCodeIds(address[])":"baaf0201","programsCount()":"96a2ddfa","reinitialize()":"6c2eb350","renounceOwnership()":"715018a6","requestCodeValidation(bytes32)":"120e3f1e","setMirror(address)":"3d43b418","signingThresholdPercentage()":"efd81abc","transferOwnership(address)":"f2fde38b","validatedCodesCount()":"007a32e7","validators()":"ca1e7819","validatorsAggregatedPublicKey()":"3bd109fa","validatorsCount()":"ed612f8c","validatorsThreshold()":"edc87225","validatorsVerifyingShares()":"7b4dda97","wrappedVara()":"88f50cf0"},"storageLayout":{"storage":[],"types":{}},"id":130}