{"abi":[{"type":"constructor","inputs":[],"stateMutability":"nonpayable"},{"type":"function","name":"areValidators","inputs":[{"name":"_validators","type":"address[]","internalType":"address[]"}],"outputs":[{"name":"","type":"bool","internalType":"bool"}],"stateMutability":"view"},{"type":"function","name":"codeState","inputs":[{"name":"_codeId","type":"bytes32","internalType":"bytes32"}],"outputs":[{"name":"","type":"uint8","internalType":"enum Gear.CodeState"}],"stateMutability":"view"},{"type":"function","name":"codesStates","inputs":[{"name":"_codesIds","type":"bytes32[]","internalType":"bytes32[]"}],"outputs":[{"name":"","type":"uint8[]","internalType":"enum Gear.CodeState[]"}],"stateMutability":"view"},{"type":"function","name":"commitBatch","inputs":[{"name":"_batchCommitment","type":"tuple","internalType":"struct Gear.BatchCommitment","components":[{"name":"codeCommitments","type":"tuple[]","internalType":"struct Gear.CodeCommitment[]","components":[{"name":"id","type":"bytes32","internalType":"bytes32"},{"name":"timestamp","type":"uint48","internalType":"uint48"},{"name":"valid","type":"bool","internalType":"bool"}]},{"name":"blockCommitments","type":"tuple[]","internalType":"struct Gear.BlockCommitment[]","components":[{"name":"hash","type":"bytes32","internalType":"bytes32"},{"name":"timestamp","type":"uint48","internalType":"uint48"},{"name":"previousCommittedBlock","type":"bytes32","internalType":"bytes32"},{"name":"predecessorBlock","type":"bytes32","internalType":"bytes32"},{"name":"transitions","type":"tuple[]","internalType":"struct Gear.StateTransition[]","components":[{"name":"actorId","type":"address","internalType":"address"},{"name":"newStateHash","type":"bytes32","internalType":"bytes32"},{"name":"exited","type":"bool","internalType":"bool"},{"name":"inheritor","type":"address","internalType":"address"},{"name":"valueToReceive","type":"uint128","internalType":"uint128"},{"name":"valueClaims","type":"tuple[]","internalType":"struct Gear.ValueClaim[]","components":[{"name":"messageId","type":"bytes32","internalType":"bytes32"},{"name":"destination","type":"address","internalType":"address"},{"name":"value","type":"uint128","internalType":"uint128"}]},{"name":"messages","type":"tuple[]","internalType":"struct Gear.Message[]","components":[{"name":"id","type":"bytes32","internalType":"bytes32"},{"name":"destination","type":"address","internalType":"address"},{"name":"payload","type":"bytes","internalType":"bytes"},{"name":"value","type":"uint128","internalType":"uint128"},{"name":"replyDetails","type":"tuple","internalType":"struct Gear.ReplyDetails","components":[{"name":"to","type":"bytes32","internalType":"bytes32"},{"name":"code","type":"bytes4","internalType":"bytes4"}]},{"name":"call","type":"bool","internalType":"bool"}]}]}]},{"name":"rewardCommitments","type":"tuple[]","internalType":"struct Gear.RewardsCommitment[]","components":[{"name":"operators","type":"tuple","internalType":"struct Gear.OperatorRewardsCommitment","components":[{"name":"amount","type":"uint256","internalType":"uint256"},{"name":"root","type":"bytes32","internalType":"bytes32"}]},{"name":"stakers","type":"tuple","internalType":"struct Gear.StakerRewardsCommitment","components":[{"name":"distribution","type":"tuple[]","internalType":"struct Gear.StakerRewards[]","components":[{"name":"vault","type":"address","internalType":"address"},{"name":"amount","type":"uint256","internalType":"uint256"}]},{"name":"totalAmount","type":"uint256","internalType":"uint256"},{"name":"token","type":"address","internalType":"address"}]},{"name":"timestamp","type":"uint48","internalType":"uint48"}]}]},{"name":"_signatureType","type":"uint8","internalType":"enum Gear.SignatureType"},{"name":"_signatures","type":"bytes[]","internalType":"bytes[]"}],"outputs":[],"stateMutability":"nonpayable"},{"type":"function","name":"commitValidators","inputs":[{"name":"_validatorsCommitment","type":"tuple","internalType":"struct Gear.ValidatorsCommitment","components":[{"name":"aggregatedPublicKey","type":"tuple","internalType":"struct Gear.AggregatedPublicKey","components":[{"name":"x","type":"uint256","internalType":"uint256"},{"name":"y","type":"uint256","internalType":"uint256"}]},{"name":"verifiableSecretSharingCommitment","type":"bytes","internalType":"bytes"},{"name":"validators","type":"address[]","internalType":"address[]"},{"name":"eraIndex","type":"uint256","internalType":"uint256"}]},{"name":"_signatureType","type":"uint8","internalType":"enum Gear.SignatureType"},{"name":"_signatures","type":"bytes[]","internalType":"bytes[]"}],"outputs":[],"stateMutability":"nonpayable"},{"type":"function","name":"computeSettings","inputs":[],"outputs":[{"name":"","type":"tuple","internalType":"struct Gear.ComputationSettings","components":[{"name":"threshold","type":"uint64","internalType":"uint64"},{"name":"wvaraPerSecond","type":"uint128","internalType":"uint128"}]}],"stateMutability":"view"},{"type":"function","name":"createProgram","inputs":[{"name":"_codeId","type":"bytes32","internalType":"bytes32"},{"name":"_salt","type":"bytes32","internalType":"bytes32"},{"name":"_overrideInitializer","type":"address","internalType":"address"}],"outputs":[{"name":"","type":"address","internalType":"address"}],"stateMutability":"nonpayable"},{"type":"function","name":"createProgramWithAbiInterface","inputs":[{"name":"_codeId","type":"bytes32","internalType":"bytes32"},{"name":"_salt","type":"bytes32","internalType":"bytes32"},{"name":"_overrideInitializer","type":"address","internalType":"address"},{"name":"_abiInterface","type":"address","internalType":"address"}],"outputs":[{"name":"","type":"address","internalType":"address"}],"stateMutability":"nonpayable"},{"type":"function","name":"genesisBlockHash","inputs":[],"outputs":[{"name":"","type":"bytes32","internalType":"bytes32"}],"stateMutability":"view"},{"type":"function","name":"genesisTimestamp","inputs":[],"outputs":[{"name":"","type":"uint48","internalType":"uint48"}],"stateMutability":"view"},{"type":"function","name":"initialize","inputs":[{"name":"_owner","type":"address","internalType":"address"},{"name":"_mirror","type":"address","internalType":"address"},{"name":"_wrappedVara","type":"address","internalType":"address"},{"name":"_middleware","type":"address","internalType":"address"},{"name":"_eraDuration","type":"uint256","internalType":"uint256"},{"name":"_electionDuration","type":"uint256","internalType":"uint256"},{"name":"_validationDelay","type":"uint256","internalType":"uint256"},{"name":"_aggregatedPublicKey","type":"tuple","internalType":"struct Gear.AggregatedPublicKey","components":[{"name":"x","type":"uint256","internalType":"uint256"},{"name":"y","type":"uint256","internalType":"uint256"}]},{"name":"_verifiableSecretSharingCommitment","type":"bytes","internalType":"bytes"},{"name":"_validators","type":"address[]","internalType":"address[]"}],"outputs":[],"stateMutability":"nonpayable"},{"type":"function","name":"isValidator","inputs":[{"name":"_validator","type":"address","internalType":"address"}],"outputs":[{"name":"","type":"bool","internalType":"bool"}],"stateMutability":"view"},{"type":"function","name":"latestCommittedBlockHash","inputs":[],"outputs":[{"name":"","type":"bytes32","internalType":"bytes32"}],"stateMutability":"view"},{"type":"function","name":"lookupGenesisHash","inputs":[],"outputs":[],"stateMutability":"nonpayable"},{"type":"function","name":"mirrorImpl","inputs":[],"outputs":[{"name":"","type":"address","internalType":"address"}],"stateMutability":"view"},{"type":"function","name":"owner","inputs":[],"outputs":[{"name":"","type":"address","internalType":"address"}],"stateMutability":"view"},{"type":"function","name":"programCodeId","inputs":[{"name":"_programId","type":"address","internalType":"address"}],"outputs":[{"name":"","type":"bytes32","internalType":"bytes32"}],"stateMutability":"view"},{"type":"function","name":"programsCodeIds","inputs":[{"name":"_programsIds","type":"address[]","internalType":"address[]"}],"outputs":[{"name":"","type":"bytes32[]","internalType":"bytes32[]"}],"stateMutability":"view"},{"type":"function","name":"programsCount","inputs":[],"outputs":[{"name":"","type":"uint256","internalType":"uint256"}],"stateMutability":"view"},{"type":"function","name":"reinitialize","inputs":[],"outputs":[],"stateMutability":"nonpayable"},{"type":"function","name":"renounceOwnership","inputs":[],"outputs":[],"stateMutability":"nonpayable"},{"type":"function","name":"requestCodeValidation","inputs":[{"name":"_codeId","type":"bytes32","internalType":"bytes32"}],"outputs":[],"stateMutability":"nonpayable"},{"type":"function","name":"setMirror","inputs":[{"name":"newMirror","type":"address","internalType":"address"}],"outputs":[],"stateMutability":"nonpayable"},{"type":"function","name":"signingThresholdPercentage","inputs":[],"outputs":[{"name":"","type":"uint16","internalType":"uint16"}],"stateMutability":"view"},{"type":"function","name":"transferOwnership","inputs":[{"name":"newOwner","type":"address","internalType":"address"}],"outputs":[],"stateMutability":"nonpayable"},{"type":"function","name":"validatedCodesCount","inputs":[],"outputs":[{"name":"","type":"uint256","internalType":"uint256"}],"stateMutability":"view"},{"type":"function","name":"validators","inputs":[],"outputs":[{"name":"","type":"address[]","internalType":"address[]"}],"stateMutability":"view"},{"type":"function","name":"validatorsAggregatedPublicKey","inputs":[],"outputs":[{"name":"","type":"tuple","internalType":"struct Gear.AggregatedPublicKey","components":[{"name":"x","type":"uint256","internalType":"uint256"},{"name":"y","type":"uint256","internalType":"uint256"}]}],"stateMutability":"view"},{"type":"function","name":"validatorsCount","inputs":[],"outputs":[{"name":"","type":"uint256","internalType":"uint256"}],"stateMutability":"view"},{"type":"function","name":"validatorsThreshold","inputs":[],"outputs":[{"name":"","type":"uint256","internalType":"uint256"}],"stateMutability":"view"},{"type":"function","name":"validatorsVerifiableSecretSharingCommitment","inputs":[],"outputs":[{"name":"","type":"bytes","internalType":"bytes"}],"stateMutability":"view"},{"type":"function","name":"wrappedVara","inputs":[],"outputs":[{"name":"","type":"address","internalType":"address"}],"stateMutability":"view"},{"type":"event","name":"BlockCommitted","inputs":[{"name":"hash","type":"bytes32","indexed":false,"internalType":"bytes32"}],"anonymous":false},{"type":"event","name":"CodeGotValidated","inputs":[{"name":"codeId","type":"bytes32","indexed":false,"internalType":"bytes32"},{"name":"valid","type":"bool","indexed":true,"internalType":"bool"}],"anonymous":false},{"type":"event","name":"CodeValidationRequested","inputs":[{"name":"codeId","type":"bytes32","indexed":false,"internalType":"bytes32"}],"anonymous":false},{"type":"event","name":"ComputationSettingsChanged","inputs":[{"name":"threshold","type":"uint64","indexed":false,"internalType":"uint64"},{"name":"wvaraPerSecond","type":"uint128","indexed":false,"internalType":"uint128"}],"anonymous":false},{"type":"event","name":"Initialized","inputs":[{"name":"version","type":"uint64","indexed":false,"internalType":"uint64"}],"anonymous":false},{"type":"event","name":"NextEraValidatorsCommitted","inputs":[{"name":"startTimestamp","type":"uint256","indexed":false,"internalType":"uint256"}],"anonymous":false},{"type":"event","name":"OwnershipTransferred","inputs":[{"name":"previousOwner","type":"address","indexed":true,"internalType":"address"},{"name":"newOwner","type":"address","indexed":true,"internalType":"address"}],"anonymous":false},{"type":"event","name":"ProgramCreated","inputs":[{"name":"actorId","type":"address","indexed":false,"internalType":"address"},{"name":"codeId","type":"bytes32","indexed":true,"internalType":"bytes32"}],"anonymous":false},{"type":"event","name":"StorageSlotChanged","inputs":[],"anonymous":false},{"type":"error","name":"ECDSAInvalidSignature","inputs":[]},{"type":"error","name":"ECDSAInvalidSignatureLength","inputs":[{"name":"length","type":"uint256","internalType":"uint256"}]},{"type":"error","name":"ECDSAInvalidSignatureS","inputs":[{"name":"s","type":"bytes32","internalType":"bytes32"}]},{"type":"error","name":"InvalidInitialization","inputs":[]},{"type":"error","name":"NotInitializing","inputs":[]},{"type":"error","name":"OwnableInvalidOwner","inputs":[{"name":"owner","type":"address","internalType":"address"}]},{"type":"error","name":"OwnableUnauthorizedAccount","inputs":[{"name":"account","type":"address","internalType":"address"}]},{"type":"error","name":"ReentrancyGuardReentrantCall","inputs":[]}],"bytecode":{"object":"0x6080806040523460aa575f51602061440b5f395f51905f525460ff8160401c16609b576002600160401b03196001600160401b038216016049575b60405161435c90816100af8239f35b6001600160401b0319166001600160401b039081175f51602061440b5f395f51905f525581527fc7f505b2f371ae2175ee4913f4499e1f2633a7b5936321eed1cdaeb6115181d290602090a15f80603a565b63f92ee8a960e01b5f5260045ffd5b5f80fdfe6101e0806040526004361015610013575f80fd5b5f610160525f3560e01c9081627a32e714613185575080630c18d27714612c7e578063120e3f1e14612af357806328e24b3d14612ac35780633683c4d21461284f5780633bd109fa146127fe5780633d43b418146127a757806353f7fd48146122455780636c2eb35014611f28578063715018a614611eb657806382bdeaad14611da557806384d22a4f14611d3a57806388f50cf014611cff5780638b1edf1e14611c2e5780638da5cb5b14611bf75780638f381dbe14611bb25780639067088e14611b6a57806396a2ddfa14611b3a578063a5d53a4414611ac6578063aa54494a1461168d578063baaf02011461158c578063c13911e814611542578063c9f16a1114611512578063ca1e78191461148b578063cacf66ab14611451578063e6fabc0914611416578063ed612f8c146113dc578063edc8722514611390578063efd81abc1461135c578063f2fde38b1461132c578063facd743b146112d55763fc491f5d14610181575f80fd5b34610843576060366003190112610843576004356001600160401b03811161084357606060031982360301126108435760026024351015610843576044356001600160401b038111610843576101db903690600401613205565b91907f9b779b17422d0df92223018b32b4d1fa46e071723d6817e2486d003becc55f005c6112c05760017f9b779b17422d0df92223018b32b4d1fa46e071723d6817e2486d003becc55f005d5f51602061431c5f395f51905f52546101205261024c6001610120510154151561335d565b61025960048301806135e0565b905015806112a7575b6112625760016102786044840184600401613615565b9050116111f8576101605160a0819052606060805261010052915b6102a36024830183600401613615565b9050610100511015610b8d576102bf6024830183600401613615565b9060e052610100511015610b73576101005160051b60e051013560c052609e1960e05136030160c0511215610843576003610120510154604060c05160e05101013503610b2057610120515415610ab5575b60206103248160c05160e0510101613677565b65ffffffffffff6040519161033883613271565b60c05160e0510135835216918291015260c05160e0510135600361012051015565ffffffffffff1960046101205101541617600461012051015561038b608060c05160e051010160c05160e05101613615565b6101a05261014052610160519160605b6101a0518410156109a25761016051508360051b6101405101356101c05260de19610140513603016101c0511215610843576103de6101c05161014051016134cf565b6001600160a01b03165f90815261012051601a01602052604090205415610945576001600160801b0361041b60806101c051610140510101613fc9565b16610894575b6101c051610140516001600160a01b039161043c91016134cf565b16604051610180526302c649c960e01b61018051526020600461018051015260018060a01b036104736101c05161014051016131f1565b16602461018051015260206101c0516101405101013560446101805101526104a560406101c0516101405101016136a5565b1515606461018051015260018060a01b036104ca60606101c0516101405101016131f1565b1660846101805101526001600160801b036104ef60806101c051610140510101613fdd565b1660a461018051015260a06101c05161014051010135601e196101c0516101405101360301811215610843576101c051610140510101906001600160401b03823511610843576060823502360360208301136108435760e060c46101805101526101046101805150508135610104610180510152610124610180510191602081019061016051905b8035821061084a5750506101c051610140510160c08101359391503603601e1901831215610843576001600160401b036101c051610140510184013511610843576101c05161014051018301803560051b360360209091011361084357906023196101805183030160e46101805101526101c051610140510183013582526020820160206101c051610140510185013560051b8401019260206101c05161014051018601019461016051915b6101c051610140510182013583106106c4575050505060209250610180519161018051900390610180519061016051905af180156106b6576101605190610679575b6106719060019261364a565b93019261039b565b5060203d81116106af575b806106946020926101805161328c565b6101805190810103126106ab576101805151610665565b5f80fd5b503d610684565b6040513d61016051823e3d90fd5b9091929394601f19828203018552863560fe196101c051610140510185013603018112156108435760206101c0516101405101850182010135825260018060a01b0361071e60406101c051610140510187018401016131f1565b1660208301526101c05161014051606091018501820190810135903603603e1901811215610843576101c05161014051018501820101602001906001600160401b03823511610843578135360360208301136108435760e06040840152813560e0840152813560208301610100850137610160516101008335850101526001600160801b036107bb60806101c05161014051018801840101613fdd565b16606084015260a06101c0516101405101860182010135608084015260c06101c051610140510186018201013563ffffffff60e01b8116809103610843578360209361082160e086956101009560a060019a01526101c05161014051018b0101016136a5565b151560c0830152601f8019913501160101980195019301919095949395610623565b6101605180fd5b90919360608060019287358152838060a01b0361086960208a016131f1565b1660208201526001600160801b0361088360408a01613fdd565b166040820152019501920190610577565b6001600160801b03602060018060a01b0360066101205101541660446108c16101c05161014051016134cf565b6108d560806101c051610140510101613fc9565b60405163a9059cbb60e01b81526001600160a01b0390921660048301529490941660248501526101605184928391905af180156106b657610917575b50610421565b6109379060203d811161093e575b61092f818361328c565b810190613a3f565b505f610911565b503d610925565b60405162461bcd60e51b815260206004820152602f60248201527f636f756c646e277420706572666f726d207472616e736974696f6e20666f722060448201526e756e6b6e6f776e2070726f6772616d60881b6064820152608490fd5b610a5c919350939193602081519101207fd756eca21e02cb0dbde1e44a4d9c6921b5c8aa4668cfa0752784b3dc855bce1e602060405160c05160e05101358152a16109f5602060c05160e0510101613677565b9060405190602082019260c05160e0510135845265ffffffffffff60d01b9060d01b166040830152604060c05160e0510101356046830152606060c05160e0510101356066830152608682015260868152610a5160a68261328c565b51902060805161364a565b60805260a05165ffffffffffff610a7b602060c05160e0510101613677565b1611610a93575b600161010051016101005291610293565b65ffffffffffff610aac602060c05160e0510101613677565b1660a052610a82565b610ac8606060c05160e051010135613f8c565b6103115760405162461bcd60e51b815260206004820152602660248201527f616c6c6f776564207072656465636573736f7220626c6f636b207761736e277460448201526508199bdd5b9960d21b6064820152608490fd5b60405162461bcd60e51b815260206004820152602560248201527f696e76616c69642070726576696f757320636f6d6d697474656420626c6f636b604482015264040d0c2e6d60db1b6064820152608490fd5b634e487b7160e01b61016051526032600452602461016051fd5b610160516060939291905b610ba560048401806135e0565b9050811015610e1157610bbb60048401806135e0565b8291921015610b73576060810282013561016051526019610120510160205260ff6040610160512054166003811015610df757600103610d9457610c0660406060830284010161368a565b15610d6a5761016080516060830284013590526101205160198101602052905160409020805460ff19166002179055601c018054610c4390613697565b90555b610c5760406060830284010161368a565b15157f460119a8f69a33ed127de517d5ea464e958ce23ef19e4420a8b92bf780bbc2c96020604051606085028601358152a26060808202830136031261084357604051610ca381613242565b606082028301803582526020019687359365ffffffffffff8516850361084357846040846001976020610d2e970152610ce282606089028601016136a5565b9182910152604051916020830193606088020135845265ffffffffffff60d01b9060d01b166040830152151560f81b604682015260278152610d2560478261328c565b5190209061364a565b9560a05165ffffffffffff610d4283613677565b1611610d50575b5001610b98565b610d6065ffffffffffff91613677565b1660a0525f610d49565b606081028201356101605152601961012051016020526040610160512060ff198154169055610c46565b60405162461bcd60e51b815260206004820152603560248201527f636f6465206d7573742062652072657175657374656420666f722076616c6964604482015274185d1a5bdb881d1bc818994818dbdb5b5a5d1d1959605a1b6064820152608490fd5b634e487b7160e01b61016051526021600452602461016051fd5b50606093929091610e286044820160048301613615565b9050610efe575b50610e879360805151602060805101209360208151910120906020815191012060405191602083019586526040830152606082015260608152610e7360808261328c565b60a051936024359151902061012051613a57565b15610eb957610160517f9b779b17422d0df92223018b32b4d1fa46e071723d6817e2486d003becc55f005d6101605180f35b60405162461bcd60e51b815260206004820152601e60248201527f7369676e61747572657320766572696669636174696f6e206661696c656400006044820152606490fd5b806044610f0f920190600401613615565b15610b7357803590607e19813603018212156108435761012051600781015460069091018054939092018035979390926001600160a01b03928316926040850192166020610f6981610f618689613a2a565b01358c61354f565b60446040518094819363095ea7b360e01b8352896004840152602483015261016051905af180156106b6576111db575b5060018060a01b03905416976040519863394f179b60e11b8a5260048a015260248901526020830135604489015260208860648161016051865af19788156106b65761016051986111a5575b5061101d84916101605150611017602080604051809d87518060808585015e820190838201520301808d52018b61328c565b84613a2a565b92019261102984613677565b60405193637fbe95b560e01b85526040600486015260a485018135601e19833603018112156108435782019060208201946001600160401b0383351161084357823560061b360386136108435760448801528135905261016051869460c4860194939290915b8135811061116d57505050602081810135606486015294928492839265ffffffffffff91906001600160a01b03906110c9906040016131f1565b166084850152166024830152039161016051905af19081156106b6576101605191611139575b506110fd90610e879661364a565b9060a05165ffffffffffff61111183613677565b161161111f575b5093610e2f565b61112f65ffffffffffff91613677565b1660a0525f611118565b90506020813d602011611165575b816111546020938361328c565b810103126106ab5751610e876110ef565b3d9150611147565b919550919293604080600192838060a01b036111888a6131f1565b16815260208901356020820152019601910191879594939261108f565b9097506020813d6020116111d3575b816111c16020938361328c565b810103126106ab57519661101d610fe5565b3d91506111b4565b6111f39060203d60201161093e5761092f818361328c565b610f99565b608460405162461bcd60e51b815260206004820152604060248201527f7265776172647320636f6d6d69746d656e74206d75737420626520656d70747960448201527f206f7220636f6e7461696e73206f6e6c79206f6e6520636f6d6d69746d656e746064820152fd5b60405162461bcd60e51b815260206004820152601860248201527f6e6f20636f6d6d69746d656e747320746f20636f6d6d697400000000000000006044820152606490fd5b506112b86024830183600401613615565b905015610262565b633ee5aeb560e01b6101605152600461016051fd5b34610843576020366003190112610843576112ee6131db565b60036113095f51602061431c5f395f51905f52544290613e5c565b019060018060a01b03165f52602052602060ff60405f2054166040519015158152f35b34610843576020366003190112610843576113556113486131db565b6113506136b2565b61356f565b6101605180f35b34610843576101605136600319011261084357602061ffff60085f51602061431c5f395f51905f5254015416604051908152f35b3461084357610160513660031901126108435760206113d45f51602061431c5f395f51905f525461ffff600860046113c84285613e5c565b01549201541690613a08565b604051908152f35b346108435761016051366003190112610843576020600461140c5f51602061431c5f395f51905f52544290613e5c565b0154604051908152f35b346108435761016051366003190112610843575f51602061431c5f395f51905f5254600501546040516001600160a01b039091168152602090f35b34610843576101605136600319011261084357602065ffffffffffff60025f51602061431c5f395f51905f52540154821c16604051908152f35b346108435761016051366003190112610843576114c260046114bc5f51602061431c5f395f51905f52544290613e5c565b01613444565b604051809160208201602083528151809152602060408401920190610160515b8181106114f0575050500390f35b82516001600160a01b03168452859450602093840193909201916001016114e2565b34610843576101605136600319011261084357602060035f51602061431c5f395f51905f52540154604051908152f35b346108435760203660031901126108435760195f51602061431c5f395f51905f5254016004356101605152602052602060ff60406101605120541661158a6040518092613235565bf35b34610843576020366003190112610843576004356001600160401b038111610843576115bc903690600401613205565b5f51602061431c5f395f51905f5254916115d5826132f2565b926115e3604051948561328c565b8284526115ef836132f2565b602085019390601f1901368537601a610160519201915b81811061165457848660405191829160208301906020845251809152604083019190610160515b81811061163b575050500390f35b825184528594506020938401939092019160010161162d565b8061166a6116656001938588613497565b6134cf565b828060a01b03165f528360205260405f205461168682896134bb565b5201611606565b34610843576060366003190112610843576004356001600160401b038111610843576003198136030160a08112610843576040519060808201908282106001600160401b03831117611aac57604091825212610843576040516116ef81613271565b8260040135815260248301356020820152815260448201356001600160401b03811161084357820136602382011215610843576117369036906024600482013591016132ad565b6020820190815260648301356001600160401b0381116108435783013660238201121561084357611771903690602460048201359101613309565b9060408301918252608460608401940135845260026024351015610843576044356001600160401b038111610843576117ae903690600401613205565b9190935f51602061431c5f395f51905f52546117cf6001820154151561335d565b65ffffffffffff600282015460201c166117e98142613405565b906117f960168401548093613426565b895160018201809211611a925703611a3a5761181a611820928a519061355c565b9061354f565b9361182f601783015486613405565b42106119f55761183e826139ed565b9642600589015410156119955783516020815191015188519a51604051916020830193845260408301526060820160208d51919d0190610160515b818110611976575050506020828d6118a0936118cd9a9b9c9d9e9f5203808452018261328c565b519020926040519060208201948552602082526118be60408361328c565b42946024359251902090613a57565b15611916577f41e7f919bf726af8aa2ef36bd31905a693013e30c45c6284060e613d4941997b9460209461190893859351905191519261372a565b604051908152a16101605180f35b60405162461bcd60e51b815260206004820152603260248201527f6e657874206572612076616c696461746f7273207369676e6174757265732076604482015271195c9a599a58d85d1a5bdb8819985a5b195960721b6064820152608490fd5b82516001600160a01b03168f5260209e8f019e90920191600101611879565b60405162461bcd60e51b815260206004820152603260248201527f6c6f6f6b73206c696b652076616c696461746f727320666f72206e65787420656044820152711c9848185c9948185b1c9958591e481cd95d60721b6064820152608490fd5b60405162461bcd60e51b815260206004820152601b60248201527f656c656374696f6e206973206e6f7420796574207374617274656400000000006044820152606490fd5b60405162461bcd60e51b815260206004820152602a60248201527f636f6d6d69746d656e742065726120696e646578206973206e6f74206e657874604482015269040cae4c240d2dcc8caf60b31b6064820152608490fd5b634e487b7160e01b61016051526011600452602461016051fd5b634e487b7160e01b61016051526041600452602461016051fd5b3461084357610160513660031901126108435760206040611b0b5f51602061431c5f395f51905f52546002611b0360018060a01b03924290613e5c565b0154166139be565b815192839181835280519182918282860152018484015e61016051828201840152601f01601f19168101030190f35b346108435761016051366003190112610843576020601b5f51602061431c5f395f51905f52540154604051908152f35b3461084357602036600319011261084357611b836131db565b601a5f51602061431c5f395f51905f5254019060018060a01b03165f52602052602060405f2054604051908152f35b34610843576020366003190112610843576004356001600160401b03811161084357611bed611be76020923690600401613205565b906134e3565b6040519015158152f35b346108435761016051366003190112610843575f5160206142fc5f395f51905f52546040516001600160a01b039091168152602090f35b346108435761016051366003190112610843575f51602061431c5f395f51905f525460018101908154611cba576002015463ffffffff1640908115611c7557556101605180f35b60405162461bcd60e51b815260206004820152601d60248201527f756e61626c6520746f206c6f6f6b75702067656e6573697320686173680000006044820152606490fd5b60405162461bcd60e51b815260206004820152601860248201527f67656e65736973206861736820616c72656164792073657400000000000000006044820152606490fd5b346108435761016051366003190112610843575f51602061431c5f395f51905f5254600601546040516001600160a01b039091168152602090f35b34610843576101605136600319011261084357611d556133cf565b50604060155f51602061431c5f395f51905f5254016001600160801b03825191611d7e83613271565b548160206001600160401b038316948581520191851c168152835192835251166020820152f35b34610843576020366003190112610843576004356001600160401b03811161084357611dd5903690600401613205565b5f51602061431c5f395f51905f525491611dee826132f2565b92611dfc604051948561328c565b828452611e08836132f2565b602085019390601f19013685376019610160519201915b818110611e7757848660405191829160208301906020845251809152604083019190610160515b818110611e54575050500390f35b9193509160208082611e696001948851613235565b019401910191849392611e46565b611e82818386613497565b3561016051528260205260ff60406101605120541690611ea281886134bb565b916003811015610df7576001925201611e1f565b34610843576101605136600319011261084357611ed16136b2565b5f5160206142fc5f395f51905f5280546001600160a01b0319811690915561016051906001600160a01b03167f8be0079c531659141344cd1fd0a4f28419497f9722a3daafe3b4186f6b6457e08280a36101605180f35b34610843576101605136600319011261084357611f436136b2565b5f51602061433c5f395f51905f525460ff8160401c16908115612230575b5061221b575f51602061433c5f395f51905f52805468ffffffffffffffffff1916680100000000000000021790555f51602061431c5f395f51905f525460408051611fac828261328c565b6017815260208101907f726f757465722e73746f726167652e526f7574657256320000000000000000008252611fe06136b2565b5190205f19810191908211611a92577fc7f505b2f371ae2175ee4913f4499e1f2633a7b5936321eed1cdaeb6115181d29260209282519084820190815284825261202a848361328c565b60ff19915190201690815f51602061431c5f395f51905f525561204b6136e5565b80516001840155600283019063ffffffff868201511669ffffffffffff00000000868454930151881b169169ffffffffffffffffffff1916171790556005810160058301908082036121cd575b505061ffff600882015416600883019061ffff198254161790556121016120bf4283613e5c565b6120d66001600160a01b036002611b034287613e5c565b6120ec60046120e54287613e5c565b01926133e7565b906120f74293613444565b916009870161372a565b60158101601583019080820361217b575b505060168101601683019181830361215b575b5050505060ff60401b195f51602061433c5f395f51905f5254165f51602061433c5f395f51905f52555160028152a16101605180f35b601892839254905560178101546017850155015491015583808080612125565b806001600160401b03806001600160801b03935416166001600160401b031984541617835554851c16600160401b600160c01b03825491861b1690600160401b600160c01b0319161790558580612112565b5481546001600160a01b03199081166001600160a01b039283161790925560068381015490850180548416918316919091179055600780840154908501805490931691161790558580612098565b63f92ee8a960e01b6101605152600461016051fd5b600291506001600160401b0316101581611f61565b34610843576101603660031901126108435761225f6131db565b6024356001600160a01b03811691908290036108435761227d6131af565b916122866131c5565b9260c43591608435919060a43560403660e31901126108435761012435946001600160401b0386116108435736602387011215610843578560040135916001600160401b03831161084357366024848901011161084357610144356001600160401b038111610843576122fd903690600401613205565b9690945f51602061433c5f395f51905f5254996001600160401b0360ff8c60401c16159b168015908161279f575b6001149081612795575b15908161278c575b5061221b57612387908b60016001600160401b03195f51602061433c5f395f51905f525416175f51602061433c5f395f51905f525561275c575b61237f613e78565b611350613e78565b61238f613e78565b42156127065782156126b0578282111561264f57600a6123af8484613405565b0484101561260a5760409a8b516123c68d8261328c565b6017815260208101907f726f757465722e73746f726167652e526f75746572563100000000000000000082526123fa6136b2565b5190205f19810192908311611a92578c51602080820194855281528d93612421858361328c565b60ff19915190201698895f51602061431c5f395f51905f52556124426136e5565b805160018c015560028b0190602081015163ffffffff1686835492015160201b69ffffffffffff00000000169169ffffffffffffffffffff19161717905583519061248c82613242565b8282526001600160a01b03908116602083018190529381169490910184905260058a018054919092166001600160a01b0319918216179091556006890180548216909217909155600788018054909116909117905560088601805461ffff1916611a0a1790556124fa6133cf565b50895161250681613271565b639502f90081526509184e72a0006020909101526015860180546001600160c01b0319166d09184e72a000000000009502f900179055895183908b9061254b81613242565b83815260208101859052015260168601556017850155601884015586519461257286613271565b60e435865261010435602087015261258e9136916024016132ad565b904293369061259c92613309565b91600901936125aa9461372a565b6125b5576101605180f35b60207fc7f505b2f371ae2175ee4913f4499e1f2633a7b5936321eed1cdaeb6115181d29160ff60401b195f51602061433c5f395f51905f5254165f51602061433c5f395f51905f52555160018152a180611355565b60405162461bcd60e51b815260206004820152601b60248201527f76616c69646174696f6e2064656c617920697320746f6f2062696700000000006044820152606490fd5b60405162461bcd60e51b815260206004820152603360248201527f657261206475726174696f6e206d757374206265206772656174657220746861604482015272371032b632b1ba34b7b710323ab930ba34b7b760691b6064820152608490fd5b60405162461bcd60e51b815260206004820152602860248201527f656c656374696f6e206475726174696f6e206d75737420626520677265617465604482015267072207468616e20360c41b6064820152608490fd5b60405162461bcd60e51b815260206004820152602860248201527f63757272656e742074696d657374616d70206d75737420626520677265617465604482015267072207468616e20360c41b6064820152608490fd5b600160401b60ff60401b195f51602061433c5f395f51905f525416175f51602061433c5f395f51905f5255612377565b9050158d61233d565b303b159150612335565b8c915061232b565b34610843576020366003190112610843576127c06131db565b6127c86136b2565b5f51602061431c5f395f51905f525460050180546001600160a01b0319166001600160a01b039092169190911790556101605180f35b346108435761016051366003190112610843576128196133cf565b50604061283d6128385f51602061431c5f395f51905f52544290613e5c565b6133e7565b60208251918051835201516020820152f35b346108435760603660031901126108435760043561286b6131af565b5f51602061431c5f395f51905f5254600181015461288a90151561335d565b8261016051526019810160205260ff6040610160512054166003811015610df757600203612a675760405160208101908482526024356040820152604081526128d460608261328c565b51902060405160608101906001600160401b0382118183101761084357605a916040527f3d605080600a3d3981f3608060405263e6fabc0960e01b5f5260205f6004817381523060601b6b5afa15604c575f80805136821760208201527f80378136915af43d5f803e156048573d5ff35b3d5ffd5b5f80fd000000000000604082015261016051f5908115610843576001600160a01b0382165f908152601a820160205260409020849055601b01805461298d90613697565b90556040516001600160a01b03821680825293907f8008ec1d8798725ebfa0f2d128d52e8e717dcba6e0f786557eeee70614b02bf190602090a2506001600160a01b038116612a625750335b5f51602061431c5f395f51905f5254600501546001600160a01b0316823b1561084357604051631c9776b560e31b81526001600160a01b039092166004830152602482015260016044820152610160518160648183865af180156106b657612a47575b602082604051908152f35b61016051612a549161328c565b610160516108435781612a3c565b6129d9565b60405162461bcd60e51b815260206004820152602e60248201527f636f6465206d7573742062652076616c696461746564206265666f726520707260448201526d37b3b930b69031b932b0ba34b7b760911b6064820152608490fd5b34610843576101605136600319011261084357602060015f51602061431c5f395f51905f52540154604051908152f35b3461084357602036600319011261084357600435610160514915612c025760195f51602061431c5f395f51905f5254612b316001820154151561335d565b018161016051528060205260ff6040610160512054166003811015610df757612ba1576101608051839052602091825251604090819020805460ff19166001179055519182527f5c261a095dd5720475295dc06379921c003c22164ee6cae5cf83e76ce0a1b98591a16101605180f35b60405162461bcd60e51b815260206004820152603360248201527f676976656e20636f646520696420697320616c7265616479206f6e2076616c6960448201527219185d1a5bdb881bdc881d985b1a59185d1959606a1b6064820152608490fd5b60405162461bcd60e51b815260206004820152604860248201527f626c6f622063616e277420626520666f756e642c20726f75746572206578706560448201527f63746564204549502d34383434207472616e73616374696f6e2077697468205760648201526720a9a690313637b160c11b608482015260a490fd5b346106ab5760803660031901126106ab57600435612c9a6131af565b90612ca36131c5565b915f51602061431c5f395f51905f5254612cc26001820154151561335d565b825f526019810160205260ff60405f205416600381101561317157600203612a67576040516020810190848252602435604082015260408152612d0660608261328c565b5190206040516102c08101908082106001600160401b038311176106ab576102b4916040527f6080806040526102b290816100128239f3fe608060405260043610610268575f81527f3560e01c806329336f391461009b5780632a68e35d1461009657806336a52a1860208201527f14610091578063701da98e1461008c578063704ed5421461008757806391d5a660408201527f4c146100825780639ce110d71461007d578063affed0e0146100785763e43f3460608201527f330361026857610253565b610236565b61020e565b6101f8565b6101df565b6160808201527f01c2565b61019b565b610150565b346100dc5760603660031901126100dc576060a08201527f243567ffffffffffffffff81116100dc576100cc9036906004016100e0565b5060c08201527f506100d661010e565b50610268565b5f80fd5b9181601f840112156100dc578260e08201527f359167ffffffffffffffff83116100dc57602083818601950101116100dc57566101008201527f5b604435906001600160801b03821682036100dc57565b6024359060016001606101208201527f801b03821682036100dc57565b600435906001600160801b03821682036100dc6101408201527f57565b346100dc5760603660031901126100dc5760043567ffffffffffffffff6101608201527f81116100dc576101819036906004016100e0565b505061018b610124565b50606101808201527f443580151514610268575f80fd5b346100dc575f3660031901126100dc575f546101a08201527f6040516001600160a01b039091168152602090f35b346100dc575f36600319016101c08201527f126100dc576020600254604051908152f35b346100dc576020366003190112616101e08201527edc576100d661013a565b346100dc57602036600319011215610268575f80fd6102008201527f5b346100dc575f3660031901126100dc576001546040516001600160a01b03906102208201527f91168152602090f35b346100dc575f3660031901126100dc57602060035460406102408201527f51908152f35b346100dc575f36600319011215610268575f80fd5b63e6fabc09610260820152306b60e01b5f5260205f6004817360a01b176102808201527f5afa156100dc575f808051368280378136915af43d5f803e156102ae573d5ff36102a0820152635b3d5ffd60e01b6102b08201525ff59081156106ab576001600160a01b0382165f908152601a820160205260409020849055601b0180546130ab90613697565b90556040516001600160a01b03821680825293907f8008ec1d8798725ebfa0f2d128d52e8e717dcba6e0f786557eeee70614b02bf190602090a2506001600160a01b03811661316b575033915b813b156106ab57604051631c9776b560e31b81526001600160a01b039384166004820152921660248301525f604483018190528260648183855af19182156131605760209261314b575b50604051908152f35b5f6131559161328c565b5f6101605282613142565b6040513d5f823e3d90fd5b916130f8565b634e487b7160e01b5f52602160045260245ffd5b346106ab575f3660031901126106ab57602090601c5f51602061431c5f395f51905f525401548152f35b604435906001600160a01b03821682036106ab57565b606435906001600160a01b03821682036106ab57565b600435906001600160a01b03821682036106ab57565b35906001600160a01b03821682036106ab57565b9181601f840112156106ab578235916001600160401b0383116106ab576020808501948460051b0101116106ab57565b9060038210156131715752565b606081019081106001600160401b0382111761325d57604052565b634e487b7160e01b5f52604160045260245ffd5b604081019081106001600160401b0382111761325d57604052565b90601f801991011681019081106001600160401b0382111761325d57604052565b9291926001600160401b03821161325d57604051916132d6601f8201601f19166020018461328c565b8294818452818301116106ab578281602093845f960137010152565b6001600160401b03811161325d5760051b60200190565b929190613315816132f2565b93613323604051958661328c565b602085838152019160051b81019283116106ab57905b82821061334557505050565b60208091613352846131f1565b815201910190613339565b1561336457565b60405162461bcd60e51b815260206004820152603860248201527f726f757465722067656e65736973206973207a65726f3b2063616c6c20606c6f60448201527f6f6b757047656e657369734861736828296020666972737400000000000000006064820152608490fd5b604051906133dc82613271565b5f6020838281520152565b906040516133f481613271565b602060018294805484520154910152565b9190820391821161341257565b634e487b7160e01b5f52601160045260245ffd5b8115613430570490565b634e487b7160e01b5f52601260045260245ffd5b90604051918281549182825260208201905f5260205f20925f5b8181106134755750506134739250038361328c565b565b84546001600160a01b031683526001948501948794506020909301920161345e565b91908110156134a75760051b0190565b634e487b7160e01b5f52603260045260245ffd5b80518210156134a75760209160051b010190565b356001600160a01b03811681036106ab5790565b6134fc5f51602061431c5f395f51905f52544290613e5c565b600301905f5b8381106135125750505050600190565b613520611665828685613497565b6001600160a01b03165f9081526020849052604090205460ff161561354757600101613502565b505050505f90565b9190820180921161341257565b8181029291811591840414171561341257565b6001600160a01b031680156135cd575f5160206142fc5f395f51905f5280546001600160a01b0319811683179091556001600160a01b03167f8be0079c531659141344cd1fd0a4f28419497f9722a3daafe3b4186f6b6457e05f80a3565b631e4fbdf760e01b5f525f60045260245ffd5b903590601e19813603018212156106ab57018035906001600160401b0382116106ab576020019160608202360383136106ab57565b903590601e19813603018212156106ab57018035906001600160401b0382116106ab57602001918160051b360383136106ab57565b602080613473928195946040519682889351918291018585015e820190838201520301808552018361328c565b3565ffffffffffff811681036106ab5790565b3580151581036106ab5790565b5f1981146134125760010190565b359081151582036106ab57565b5f5160206142fc5f395f51905f52546001600160a01b031633036136d257565b63118cdaa760e01b5f523360045260245ffd5b5f604080516136f381613242565b828152826020820152015260405161370a81613242565b5f815263ffffffff4316602082015265ffffffffffff4216604082015290565b9291908051906020810191825170014551231950b75fc4402da1732fc9bebe19821091826139ad575b50501561395957518455516001840155604051906137966021836020808201945f86528051918291018484015e81015f838201520301601f19810184528361328c565b6137d3602b604051809360208201956a600b5981380380925939f360a81b87525180918484015e81015f838201520301601f19810183528261328c565b51905ff06001600160a01b03811615613920576002830180546001600160a01b0319166001600160a01b039092169190911790555f5b600483018054821015613847575f90815260208082208301546001600160a01b0316825260038501905260409020805460ff19169055600101613809565b5050925f5b8451811015613890576001906001600160a01b0361386a82886134bb565b5116828060a01b03165f526003840160205260405f208260ff198254161790550161384c565b5092600482018151916001600160401b03831161325d57600160401b831161325d5781548383558084106138fa575b50602001905f5260205f205f5b8381106138dd575050505060050155565b82516001600160a01b0316818301556020909201916001016138cc565b825f528360205f2091820191015b81811061391557506138bf565b5f8155600101613908565b60405162461bcd60e51b81526020600482015260116024820152701111541313d65351539517d19052531151607a1b6044820152606490fd5b60405162461bcd60e51b815260206004820152602660248201527f46524f53542061676772656761746564207075626c6963206b657920697320696044820152651b9d985b1a5960d21b6064820152608490fd5b6139b79250614256565b5f80613753565b803b905f198201908282116134125760019060405193603e601f19910116840160405282845260208401903c90565b6139f74282613ea3565b15613a025760090190565b600f0190565b61ffff613a1692169061355c565b61270f810180911161341257612710900490565b903590605e19813603018212156106ab570190565b908160209103126106ab575180151581036106ab5790565b909493919365ffffffffffff600283015460201c16613a8d613a98613a92613a7f8442613405565b601687015493848092613426565b61355c565b8361354f565b918284108080613e46575b15613dd457508310613d8f57613ab9908361354f565b10613d3e57613ac9905b82613e5c565b94601960f81b5f523060601b60025260165260365f209360028110156131715780613bff57505060018103613bba57156134a757803590601e19813603018212156106ab57018035906001600160401b0382116106ab5760200181360381136106ab57613b379136916132ad565b916060835103613b6557826020613b6294015160606040830151920151926001815491015490613ff1565b90565b60405162461bcd60e51b815260206004820152602760248201527f46524f5354207369676e6174757265206c656e677468206d75737420626520396044820152663620627974657360c81b6064820152608490fd5b60405162461bcd60e51b815260206004820152601e60248201527f46524f5354207369676e6174757265206d7573742062652073696e676c6500006044820152606490fd5b919391600114613c125750505050505f90565b613c2c9061ffff6008600488979801549201541690613a08565b925f9260035f9201915b868110613c4857505050505050505f90565b868110156134a7578060051b820135601e19833603018112156106ab5782018035906001600160401b0382116106ab5760200181360381136106ab57613ca691613c9d91613c979136916132ad565b866141bc565b909291926141f6565b6001600160a01b0381165f9081526020859052604090205460ff16613cd1575b506001905b01613c36565b6001600160a01b03165f9081527ff02b465737fa6045c2ff53fb2df43c66916ac2166fa303264668fb2f6a1d8c0060205260409020805c15613d165750600190613ccb565b946001613d2492965d613697565b93858514613d32575f613cc6565b50505050505050600190565b60405162461bcd60e51b8152602060048201526024808201527f74696d657374616d70206973206f6c646572207468616e2070726576696f75736044820152632065726160e01b6064820152608490fd5b60405162461bcd60e51b815260206004820152601e60248201527f63616e6e6f742076616c6964617465206265666f72652067656e6573697300006044820152606490fd5b9392915050428211613df757613ac992613def575b50613ac3565b90505f613de9565b60405162461bcd60e51b815260206004820152602160248201527f74696d657374616d702063616e6e6f7420626520696e207468652066757475726044820152606560f81b6064820152608490fd5b50613e5560188701548561354f565b4210613aa3565b90613e679082613ea3565b15613e7257600f0190565b60090190565b60ff5f51602061433c5f395f51905f525460401c1615613e9457565b631afcd79f60e31b5f5260045ffd5b906014600e830154920154808314613f4857818184109311918215911115918190613f41575b15613ede5782613ed857505090565b14919050565b60405162461bcd60e51b815260206004820152603560248201527f636f756c64206e6f74206964656e746966792076616c696461746f727320666f6044820152740722074686520676976656e2074696d657374616d7605c1b6064820152608490fd5b5081613ec9565b606460405162461bcd60e51b815260206004820152602060248201527f657261732074696d657374616d70206d757374206e6f7420626520657175616c6044820152fd5b905f19430143811161341257805b613fa5575b505f9150565b8040838103613fb657506001925050565b15613fc4575f190180613f9a565b613f9f565b356001600160801b03811681036106ab5790565b35906001600160801b03821682036106ab57565b92939194906140008587614256565b156141b25782156141b25770014551231950b75fc4402da1732fc9bebe198310156141b2576001169061010e6040519161012083018381106001600160401b038211176106ab5760405260883684376002600188160160888401538760898401526002840160a984015360aa830186905260ca8301527e300046524f53542d736563703235366b312d4b454343414b3235362d76316360ea8301526303430b6160e51b61010a830152812060cc820181815290600260ec84016001815360428420809318845253604270014551231950b75fc4402da1732fc9bebe19922060801c6001600160401b0360801b8260801b16179070014551231950b75fc4402da1732fc9bebe1990600160c01b9060401c090880156141a75784601b6080945f9660209870014551231950b75fc4402da1732fc9bebe19910970014551231950b75fc4402da1732fc9bebe19038552018684015280604084015270014551231950b75fc4402da1732fc9bebe19910970014551231950b75fc4402da1732fc9bebe1903606082015282805260015afa505f51915f5260205260018060a01b0360405f20161490565b505050505050505f90565b5050505050505f90565b81519190604183036141ec576141e59250602082015190606060408401519301515f1a90614279565b9192909190565b50505f9160029190565b60048110156131715780614208575050565b6001810361421f5763f645eedf60e01b5f5260045ffd5b6002810361423a575063fce698f760e01b5f5260045260245ffd5b6003146142445750565b6335e2f38360e21b5f5260045260245ffd5b6401000003d01990600790829081818009900908906401000003d0199080091490565b91907f7fffffffffffffffffffffffffffffff5d576e7357a4501ddfe92f46681b20a084116142f0579160209360809260ff5f9560405194855216868401526040830152606082015282805260015afa15613160575f516001600160a01b038116156142e657905f905f90565b505f906001905f90565b5050505f916003919056fe9016d09d72d40fdae2fd8ceac6b6234c7706214fd39c1cd1e609a0528c1993005c09ca1b9b8127a4fd9f3c384aac59b661441e820e17733753ff5f2e86e1e000f0c57e16840df040f15088dc2f81fe391c3923bec73e23a9662efc9c229c6a00f0c57e16840df040f15088dc2f81fe391c3923bec73e23a9662efc9c229c6a00","linkReferences":{}},"methodIdentifiers":{"areValidators(address[])":"8f381dbe","codeState(bytes32)":"c13911e8","codesStates(bytes32[])":"82bdeaad","commitBatch(((bytes32,uint48,bool)[],(bytes32,uint48,bytes32,bytes32,(address,bytes32,bool,address,uint128,(bytes32,address,uint128)[],(bytes32,address,bytes,uint128,(bytes32,bytes4),bool)[])[])[],((uint256,bytes32),((address,uint256)[],uint256,address),uint48)[]),uint8,bytes[])":"fc491f5d","commitValidators(((uint256,uint256),bytes,address[],uint256),uint8,bytes[])":"aa54494a","computeSettings()":"84d22a4f","createProgram(bytes32,bytes32,address)":"3683c4d2","createProgramWithAbiInterface(bytes32,bytes32,address,address)":"0c18d277","genesisBlockHash()":"28e24b3d","genesisTimestamp()":"cacf66ab","initialize(address,address,address,address,uint256,uint256,uint256,(uint256,uint256),bytes,address[])":"53f7fd48","isValidator(address)":"facd743b","latestCommittedBlockHash()":"c9f16a11","lookupGenesisHash()":"8b1edf1e","mirrorImpl()":"e6fabc09","owner()":"8da5cb5b","programCodeId(address)":"9067088e","programsCodeIds(address[])":"baaf0201","programsCount()":"96a2ddfa","reinitialize()":"6c2eb350","renounceOwnership()":"715018a6","requestCodeValidation(bytes32)":"120e3f1e","setMirror(address)":"3d43b418","signingThresholdPercentage()":"efd81abc","transferOwnership(address)":"f2fde38b","validatedCodesCount()":"007a32e7","validators()":"ca1e7819","validatorsAggregatedPublicKey()":"3bd109fa","validatorsCount()":"ed612f8c","validatorsThreshold()":"edc87225","validatorsVerifiableSecretSharingCommitment()":"a5d53a44","wrappedVara()":"88f50cf0"},"storageLayout":{"storage":[],"types":{}},"id":165}