{"abi":[{"type":"constructor","inputs":[],"stateMutability":"nonpayable"},{"type":"function","name":"baseFee","inputs":[],"outputs":[{"name":"","type":"uint128","internalType":"uint128"}],"stateMutability":"view"},{"type":"function","name":"baseWeight","inputs":[],"outputs":[{"name":"","type":"uint64","internalType":"uint64"}],"stateMutability":"view"},{"type":"function","name":"codeState","inputs":[{"name":"codeId","type":"bytes32","internalType":"bytes32"}],"outputs":[{"name":"","type":"uint8","internalType":"enum IRouter.CodeState"}],"stateMutability":"view"},{"type":"function","name":"commitBlocks","inputs":[{"name":"blockCommitmentsArray","type":"tuple[]","internalType":"struct IRouter.BlockCommitment[]","components":[{"name":"blockHash","type":"bytes32","internalType":"bytes32"},{"name":"prevCommitmentHash","type":"bytes32","internalType":"bytes32"},{"name":"predBlockHash","type":"bytes32","internalType":"bytes32"},{"name":"transitions","type":"tuple[]","internalType":"struct IRouter.StateTransition[]","components":[{"name":"actorId","type":"address","internalType":"address"},{"name":"newStateHash","type":"bytes32","internalType":"bytes32"},{"name":"inheritor","type":"address","internalType":"address"},{"name":"valueToReceive","type":"uint128","internalType":"uint128"},{"name":"valueClaims","type":"tuple[]","internalType":"struct IRouter.ValueClaim[]","components":[{"name":"messageId","type":"bytes32","internalType":"bytes32"},{"name":"destination","type":"address","internalType":"address"},{"name":"value","type":"uint128","internalType":"uint128"}]},{"name":"messages","type":"tuple[]","internalType":"struct IRouter.OutgoingMessage[]","components":[{"name":"id","type":"bytes32","internalType":"bytes32"},{"name":"destination","type":"address","internalType":"address"},{"name":"payload","type":"bytes","internalType":"bytes"},{"name":"value","type":"uint128","internalType":"uint128"},{"name":"replyDetails","type":"tuple","internalType":"struct IRouter.ReplyDetails","components":[{"name":"to","type":"bytes32","internalType":"bytes32"},{"name":"code","type":"bytes4","internalType":"bytes4"}]}]}]}]},{"name":"signatures","type":"bytes[]","internalType":"bytes[]"}],"outputs":[],"stateMutability":"nonpayable"},{"type":"function","name":"commitCodes","inputs":[{"name":"codeCommitmentsArray","type":"tuple[]","internalType":"struct IRouter.CodeCommitment[]","components":[{"name":"id","type":"bytes32","internalType":"bytes32"},{"name":"valid","type":"bool","internalType":"bool"}]},{"name":"signatures","type":"bytes[]","internalType":"bytes[]"}],"outputs":[],"stateMutability":"nonpayable"},{"type":"function","name":"createProgram","inputs":[{"name":"codeId","type":"bytes32","internalType":"bytes32"},{"name":"salt","type":"bytes32","internalType":"bytes32"},{"name":"payload","type":"bytes","internalType":"bytes"},{"name":"_value","type":"uint128","internalType":"uint128"}],"outputs":[{"name":"","type":"address","internalType":"address"}],"stateMutability":"payable"},{"type":"function","name":"createProgramWithDecoder","inputs":[{"name":"decoderImplementation","type":"address","internalType":"address"},{"name":"codeId","type":"bytes32","internalType":"bytes32"},{"name":"salt","type":"bytes32","internalType":"bytes32"},{"name":"payload","type":"bytes","internalType":"bytes"},{"name":"_value","type":"uint128","internalType":"uint128"}],"outputs":[{"name":"","type":"address","internalType":"address"}],"stateMutability":"payable"},{"type":"function","name":"genesisBlockHash","inputs":[],"outputs":[{"name":"","type":"bytes32","internalType":"bytes32"}],"stateMutability":"view"},{"type":"function","name":"getStorageSlot","inputs":[],"outputs":[{"name":"","type":"bytes32","internalType":"bytes32"}],"stateMutability":"view"},{"type":"function","name":"initialize","inputs":[{"name":"initialOwner","type":"address","internalType":"address"},{"name":"_mirror","type":"address","internalType":"address"},{"name":"_mirrorProxy","type":"address","internalType":"address"},{"name":"_wrappedVara","type":"address","internalType":"address"},{"name":"_validatorsKeys","type":"address[]","internalType":"address[]"}],"outputs":[],"stateMutability":"nonpayable"},{"type":"function","name":"lastBlockCommitmentHash","inputs":[],"outputs":[{"name":"","type":"bytes32","internalType":"bytes32"}],"stateMutability":"view"},{"type":"function","name":"mirror","inputs":[],"outputs":[{"name":"","type":"address","internalType":"address"}],"stateMutability":"view"},{"type":"function","name":"mirrorProxy","inputs":[],"outputs":[{"name":"","type":"address","internalType":"address"}],"stateMutability":"view"},{"type":"function","name":"owner","inputs":[],"outputs":[{"name":"","type":"address","internalType":"address"}],"stateMutability":"view"},{"type":"function","name":"programCodeId","inputs":[{"name":"program","type":"address","internalType":"address"}],"outputs":[{"name":"","type":"bytes32","internalType":"bytes32"}],"stateMutability":"view"},{"type":"function","name":"programsCount","inputs":[],"outputs":[{"name":"","type":"uint256","internalType":"uint256"}],"stateMutability":"view"},{"type":"function","name":"reinitialize","inputs":[],"outputs":[],"stateMutability":"nonpayable"},{"type":"function","name":"renounceOwnership","inputs":[],"outputs":[],"stateMutability":"nonpayable"},{"type":"function","name":"requestCodeValidation","inputs":[{"name":"codeId","type":"bytes32","internalType":"bytes32"},{"name":"blobTxHash","type":"bytes32","internalType":"bytes32"}],"outputs":[],"stateMutability":"nonpayable"},{"type":"function","name":"setBaseWeight","inputs":[{"name":"_baseWeight","type":"uint64","internalType":"uint64"}],"outputs":[],"stateMutability":"nonpayable"},{"type":"function","name":"setMirror","inputs":[{"name":"_mirror","type":"address","internalType":"address"}],"outputs":[],"stateMutability":"nonpayable"},{"type":"function","name":"setStorageSlot","inputs":[{"name":"namespace","type":"string","internalType":"string"}],"outputs":[],"stateMutability":"nonpayable"},{"type":"function","name":"setValuePerWeight","inputs":[{"name":"_valuePerWeight","type":"uint128","internalType":"uint128"}],"outputs":[],"stateMutability":"nonpayable"},{"type":"function","name":"signingThresholdPercentage","inputs":[],"outputs":[{"name":"","type":"uint256","internalType":"uint256"}],"stateMutability":"view"},{"type":"function","name":"transferOwnership","inputs":[{"name":"newOwner","type":"address","internalType":"address"}],"outputs":[],"stateMutability":"nonpayable"},{"type":"function","name":"updateValidators","inputs":[{"name":"validatorsAddressArray","type":"address[]","internalType":"address[]"}],"outputs":[],"stateMutability":"nonpayable"},{"type":"function","name":"validatedCodesCount","inputs":[],"outputs":[{"name":"","type":"uint256","internalType":"uint256"}],"stateMutability":"view"},{"type":"function","name":"validatorExists","inputs":[{"name":"validator","type":"address","internalType":"address"}],"outputs":[{"name":"","type":"bool","internalType":"bool"}],"stateMutability":"view"},{"type":"function","name":"validators","inputs":[],"outputs":[{"name":"","type":"address[]","internalType":"address[]"}],"stateMutability":"view"},{"type":"function","name":"validatorsCount","inputs":[],"outputs":[{"name":"","type":"uint256","internalType":"uint256"}],"stateMutability":"view"},{"type":"function","name":"validatorsThreshold","inputs":[],"outputs":[{"name":"","type":"uint256","internalType":"uint256"}],"stateMutability":"view"},{"type":"function","name":"valuePerWeight","inputs":[],"outputs":[{"name":"","type":"uint128","internalType":"uint128"}],"stateMutability":"view"},{"type":"function","name":"wrappedVara","inputs":[],"outputs":[{"name":"","type":"address","internalType":"address"}],"stateMutability":"view"},{"type":"event","name":"BaseWeightChanged","inputs":[{"name":"baseWeight","type":"uint64","indexed":false,"internalType":"uint64"}],"anonymous":false},{"type":"event","name":"BlockCommitted","inputs":[{"name":"blockHash","type":"bytes32","indexed":false,"internalType":"bytes32"}],"anonymous":false},{"type":"event","name":"CodeGotValidated","inputs":[{"name":"id","type":"bytes32","indexed":false,"internalType":"bytes32"},{"name":"valid","type":"bool","indexed":true,"internalType":"bool"}],"anonymous":false},{"type":"event","name":"CodeValidationRequested","inputs":[{"name":"codeId","type":"bytes32","indexed":false,"internalType":"bytes32"},{"name":"blobTxHash","type":"bytes32","indexed":false,"internalType":"bytes32"}],"anonymous":false},{"type":"event","name":"Initialized","inputs":[{"name":"version","type":"uint64","indexed":false,"internalType":"uint64"}],"anonymous":false},{"type":"event","name":"OwnershipTransferred","inputs":[{"name":"previousOwner","type":"address","indexed":true,"internalType":"address"},{"name":"newOwner","type":"address","indexed":true,"internalType":"address"}],"anonymous":false},{"type":"event","name":"ProgramCreated","inputs":[{"name":"actorId","type":"address","indexed":false,"internalType":"address"},{"name":"codeId","type":"bytes32","indexed":true,"internalType":"bytes32"}],"anonymous":false},{"type":"event","name":"StorageSlotChanged","inputs":[],"anonymous":false},{"type":"event","name":"ValidatorsSetChanged","inputs":[],"anonymous":false},{"type":"event","name":"ValuePerWeightChanged","inputs":[{"name":"valuePerWeight","type":"uint128","indexed":false,"internalType":"uint128"}],"anonymous":false},{"type":"error","name":"ECDSAInvalidSignature","inputs":[]},{"type":"error","name":"ECDSAInvalidSignatureLength","inputs":[{"name":"length","type":"uint256","internalType":"uint256"}]},{"type":"error","name":"ECDSAInvalidSignatureS","inputs":[{"name":"s","type":"bytes32","internalType":"bytes32"}]},{"type":"error","name":"FailedDeployment","inputs":[]},{"type":"error","name":"InsufficientBalance","inputs":[{"name":"balance","type":"uint256","internalType":"uint256"},{"name":"needed","type":"uint256","internalType":"uint256"}]},{"type":"error","name":"InvalidInitialization","inputs":[]},{"type":"error","name":"NotInitializing","inputs":[]},{"type":"error","name":"OwnableInvalidOwner","inputs":[{"name":"owner","type":"address","internalType":"address"}]},{"type":"error","name":"OwnableUnauthorizedAccount","inputs":[{"name":"account","type":"address","internalType":"address"}]},{"type":"error","name":"ReentrancyGuardReentrantCall","inputs":[]}],"bytecode":{"object":"0x6080806040523460d0577ff0c57e16840df040f15088dc2f81fe391c3923bec73e23a9662efc9c229c6a005460ff8160401c1660c1576002600160401b03196001600160401b03821601605c575b6040516128fc90816100d58239f35b6001600160401b0319166001600160401b039081177ff0c57e16840df040f15088dc2f81fe391c3923bec73e23a9662efc9c229c6a005581527fc7f505b2f371ae2175ee4913f4499e1f2633a7b5936321eed1cdaeb6115181d290602090a15f80604d565b63f92ee8a960e01b5f5260045ffd5b5f80fdfe6080806040526004361015610012575f80fd5b5f3560e01c9081627a32e714611c6e575080630834fecc14611c375780631c149d8a14611aef57806326637f6d146111c357806328e24b3d146111995780632dacfb691461116c5780633d43b4181461111a578063444d9172146110e25780635686cad514611030578063666d124c14610f345780636c2eb35014610d2c5780636ef25c3a14610d01578063715018a614610c9a57806378ee5dec14610c625780638028861a14610be55780638074b45514610b2657806388f50cf014610aee5780638da5cb5b14610aba5780638febbd5914610a6d5780639067088e14610a2557806396708226146109fc57806396a2ddfa146109cf578063a6bbbe1c14610924578063c13911e8146108de578063ca1e781914610867578063d3fd636414610831578063e71731e414610744578063e97d3eb31461051f578063ed612f8c146104f2578063edc87225146104d0578063efd81abc146104a3578063f2fde38b1461047d5763f8453e7c14610186575f80fd5b346104795760a03660031901126104795761019f611cc8565b602435906001600160a01b038216820361047957604435916001600160a01b038316830361047957606435926001600160a01b0384168403610479576084356001600160401b03811161047957366023820112156104795761020b903690602481600401359101611d85565b905f805160206128a78339815191525460ff8160401c1615946001600160401b03821680159081610471575b6001149081610467575b15908161045e575b5061044f5767ffffffffffffffff1982166001175f805160206128a78339815191525561028c9186610423575b5061027f61271f565b61028761271f565b611f61565b604094855161029b8782611cde565b6017815260208101907f726f757465722e73746f726167652e526f75746572563100000000000000000082526102cf6121e0565b5190205f19810190811161040f5786519060208201908152602082526102f58883611cde565b60ff19915190201690815f80516020612887833981519152557f5aa0c6c9fb33211212ffe5bef7a4b5d511b82a611e6677052d984e2bcedeaccc5f80a15f1943019243841161040f57924082556001820180546001600160a01b03199081166001600160a01b03978816179091556002830180548216948716949094179093556003820180549093169416939093179055611a0a60058301556006919091018054680a000000009502f9006001600160c01b03199091161790556103b890612511565b6103be57005b60207fc7f505b2f371ae2175ee4913f4499e1f2633a7b5936321eed1cdaeb6115181d29160ff60401b195f805160206128a783398151915254165f805160206128a7833981519152555160018152a1005b634e487b7160e01b5f52601160045260245ffd5b68ffffffffffffffffff191668010000000000000001175f805160206128a7833981519152555f610276565b63f92ee8a960e01b5f5260045ffd5b9050155f610249565b303b159150610241565b879150610237565b5f80fd5b34610479576020366003190112610479576104a1610499611cc8565b6102876121e0565b005b34610479575f36600319011261047957602060055f80516020612887833981519152540154604051908152f35b34610479575f3660031901126104795760206104ea611f23565b604051908152f35b34610479575f36600319011261047957602060085f80516020612887833981519152540154604051908152f35b34610479576040366003190112610479576004356001600160401b0381116104795736602382011215610479578060040135906001600160401b038211610479573660248360061b83010111610479576024356001600160401b0381116104795761058f83913690600401611c98565b90925f8051602061288783398151915254906060925f9560098401945b86881015610733578760061b8401976105fe604460248b01359a01926105d184611f08565b60405160208101918d8352151560f81b6040820152602181526105f5604182611cde565b51902090611de9565b98805f528760205260ff60405f205416600381101561071f576001036106ca57610629600193611f08565b15610687577f460119a8f69a33ed127de517d5ea464e958ce23ef19e4420a8b92bf780bbc2c960208285935f528a825260405f20600260ff19825416179055600a8a016106768154611f15565b9055604051908152a25b01966105ac565b7f460119a8f69a33ed127de517d5ea464e958ce23ef19e4420a8b92bf780bbc2c96020825f9384528a825260408420805460ff19169055604051908152a2610680565b60405162461bcd60e51b815260206004820152602760248201527f636f64652073686f756c642062652072657175657374656420666f722076616c60448201526634b230ba34b7b760c91b6064820152608490fd5b634e487b7160e01b5f52602160045260245ffd5b6104a193506020815191012061205b565b34610479576020366003190112610479576004356001600160401b03811161047957610774903690600401611c98565b61077c6121e0565b5f805160206128878339815191525460078101906008015f5b81548110156107cc575f82815260208082208301546001600160a01b0316825284905260409020805460ff19169055600101610795565b5080545f8255915081610813575b6107ed6107e8368587611d85565b612511565b7f144bbc027dc176e94c43b7c1bcff2a8aa58ab434029eec294743cd4ab2e54f515f80a1005b5f5260205f20908101905b818110156107da575f815560010161081e565b34610479575f3660031901126104795760206001600160401b0360065f8051602061288783398151915254015416604051908152f35b34610479575f3660031901126104795761089160085f805160206128878339815191525401611e75565b6040518091602082016020835281518091526020604084019201905f5b8181106108bc575050500390f35b82516001600160a01b03168452859450602093840193909201916001016108ae565b346104795760203660031901126104795760095f8051602061288783398151915254016004355f5260205260ff60405f205416604051600382101561071f576020918152f35b34610479576020366003190112610479576004356001600160801b03811690818103610479577f9f5e1796f1a0adf311f86170503308a06a16560a7679b7b6da35f4999200d740916020916109776121e0565b5f8051602061288783398151915254600601805477ffffffffffffffffffffffffffffffff00000000000000001916604092831b77ffffffffffffffffffffffffffffffff00000000000000001617905551908152a1005b34610479575f366003190112610479576020600c5f80516020612887833981519152540154604051908152f35b34610479575f3660031901126104795760205f8051602061288783398151915254604051908152f35b3461047957602036600319011261047957610a3e611cc8565b600b5f8051602061288783398151915254019060018060a01b03165f52602052602060405f2054604051908152f35b3461047957602036600319011261047957610a86611cc8565b60075f8051602061288783398151915254019060018060a01b03165f52602052602060ff60405f2054166040519015158152f35b34610479575f366003190112610479575f80516020612867833981519152546040516001600160a01b039091168152602090f35b34610479575f366003190112610479575f8051602061288783398151915254600301546040516001600160a01b039091168152602090f35b6080366003190112610479576044356001600160401b03811161047957610b51903690600401611d58565b90606435916001600160801b038316830361047957610b7583602435600435612233565b6001600160a01b0390911692909190833b1561047957610bac5f9360405196879485946306f0ee9760e51b86523260048701611e38565b038183855af1918215610bda57602092610bca575b50604051908152f35b5f610bd491611cde565b82610bc1565b6040513d5f823e3d90fd5b34610479576020366003190112610479576004356001600160401b0381168091036104795760207f01326573cfc0bc40a2550923254394ebd7529e3e3301840dfa33cf786aead0c791610c366121e0565b5f8051602061288783398151915254600601805467ffffffffffffffff191682179055604051908152a1005b34610479575f366003190112610479575f8051602061288783398151915254600201546040516001600160a01b039091168152602090f35b34610479575f36600319011261047957610cb26121e0565b5f8051602061286783398151915280546001600160a01b031981169091555f906001600160a01b03167f8be0079c531659141344cd1fd0a4f28419497f9722a3daafe3b4186f6b6457e08280a3005b34610479575f366003190112610479576020610d1b611ec6565b6001600160801b0360405191168152f35b34610479575f36600319011261047957610d446121e0565b5f805160206128a78339815191525460ff8160401c168015610f20575b61044f5768ffffffffffffffffff191668010000000000000002175f805160206128a7833981519152555f80516020612887833981519152546001810154600282015460038301546001600160a01b0390811693918116921690610dc790600801611e75565b906040918251610dd78482611cde565b6017815260208101907f726f757465722e73746f726167652e526f7574657256320000000000000000008252610e0b6121e0565b5190205f19810190811161040f578351906020820190815260208252610e318583611cde565b60ff19915190201694855f80516020612887833981519152557f5aa0c6c9fb33211212ffe5bef7a4b5d511b82a611e6677052d984e2bcedeaccc5f80a15f19430143811161040f574086556001860180546001600160a01b03199081166001600160a01b03958616179091556002870180548216968516969096179095556003909501805490941694909116939093179091557fc7f505b2f371ae2175ee4913f4499e1f2633a7b5936321eed1cdaeb6115181d29160209190610ef390612511565b60ff60401b195f805160206128a783398151915254165f805160206128a7833981519152555160028152a1005b5060026001600160401b0382161015610d61565b60a036600319011261047957610f48611cc8565b6044356024356064356001600160401b03811161047957610f6d903690600401611d58565b90608435946001600160801b038616860361047957610f8d868686612233565b949060018060a01b0316956040519060208201928352604082015260408152610fb7606082611cde565b519020853b1561047957604051635b1b84f760e01b81526001600160a01b03909216600483015260248201525f8160448183895af18015610bda57611020575b50833b1561047957610bac5f9360405196879485946306f0ee9760e51b86523260048701611e38565b5f61102a91611cde565b85610ff7565b34610479576020366003190112610479576004356001600160401b038111610479573660238201121561047957611071903690602481600401359101611d13565b6110796121e0565b602081519101205f19810190811161040f576040519060208201908152602082526110a5604083611cde565b9051902060ff19165f80516020612887833981519152557f5aa0c6c9fb33211212ffe5bef7a4b5d511b82a611e6677052d984e2bcedeaccc5f80a1005b34610479575f366003190112610479575f8051602061288783398151915254600101546040516001600160a01b039091168152602090f35b3461047957602036600319011261047957611133611cc8565b61113b6121e0565b5f805160206128878339815191525460010180546001600160a01b0319166001600160a01b03909216919091179055005b34610479575f36600319011261047957602060045f80516020612887833981519152540154604051908152f35b34610479575f3660031901126104795760205f805160206128878339815191525454604051908152f35b34610479576040366003190112610479576004356001600160401b038111610479576111f3903690600401611c98565b906024356001600160401b03811161047957611213903690600401611c98565b7f9b779b17422d0df92223018b32b4d1fa46e071723d6817e2486d003becc55f009291925c611ae057919260017f9b779b17422d0df92223018b32b4d1fa46e071723d6817e2486d003becc55f005d5f9060605b81831015611aa9578260051b84013590607e19853603018212156104795760045f8051602061288783398151915254019384546020848801013503611a655760408387010135946112b786612652565b15611a1457838799949899969596013590556060935f978581890101905b6112e182828b01611fd2565b90508a1015611991576113008a6112fa84848d01611fd2565b90612007565b975f80516020612887833981519152546113198a612695565b6001600160a01b03165f908152600b820160205260409020541561193457600301546001600160801b03906020906001600160a01b031660448c5f611369606061136284612695565b93016126a9565b60405163a9059cbb60e01b81526001600160a01b0390931660048401529590951660248201529384928391905af18015610bda57611908575b506001600160a01b036113b48a612695565b169b5f9160605b6113c860808d018d6126d5565b905084101561152f576113de60808d018d6126d5565b859195101561151b578f916114896020918261140081606087028b0101612695565b6114116040606088028c01016126a9565b6040519083820192606089028d013584526001600160601b03199060601b1660408301526001600160801b03199060801b16605482015260448152611457606482611cde565b6040519584879551918291018587015e840190838201905f8252519283915e01015f815203601f198101835282611cde565b9461149b602060608402830101612695565b6114ac6040606085028401016126a9565b93803b15610479575f92836064926001600160801b0360405198899687956314503e5160e01b875260608b020135600487015260018060a01b031660248601521660448401525af1918215610bda5760019261150b575b5001926113bb565b5f61151591611cde565b5f611503565b634e487b7160e01b5f52603260045260245ffd5b9891979d9b9394959692509b989b60605f5b61154e60a08e018e611fd2565b905081101561179b5790818e9493928e60a0810161156b91611fd2565b6115759291612007565b602081019561158387612695565b9660408301946115938685612029565b9099906115a2606087016126a9565b9a60a087019b6115b18d61270a565b8360405194859460208601978c3589526001600160601b03199060601b16604087015260548601378301916001600160801b03199060801b1660548301526080890135606483015263ffffffff60e01b1660848201520360540160148101825260340161161e9082611cde565b51902061162a91611de9565b9760808401356116db575061164161164891612695565b9483612029565b919094611657606085016126a9565b823b15610479575f9485916001600160801b036116a56040519a8b988997889663c2df600960e01b885235600488015260018060a01b03166024870152608060448701526084860191611e18565b9116606483015203925af1918215610bda576001926116cb575b505b0192909192611541565b5f6116d591611cde565b5f6116bf565b949291906116eb6116f291612695565b9383612029565b9092611709611703606083016126a9565b9761270a565b94833b1561047957611755975f96608088946001600160801b036040519c8d9a8b998a9863c78bde7760e01b8a5260018060a01b031660048a015260a060248a015260a4890191611e18565b94166044860152013560648401526001600160e01b031916608483015203925af1918215610bda5760019261178b575b506116c1565b5f61179591611cde565b5f611785565b509d97949892969a90959d9c919c9b939b604082019160018060a01b036117c184612695565b166118b1575b602081013591863b15610479575f80976024604051809a8193638ea59e1d60e01b83528860048401525af1958615610bda57600197611892976118a1575b50611824606061181d61181786612695565b97612695565b94016126a9565b90602081519101209160208151910120926040519460208601966001600160601b03199060601b16875260348601526001600160601b03199060601b1660548501526001600160801b03199060801b16606884015260788301526098820152609881526105f560b882611cde565b960198949990999691966112d5565b5f6118ab91611cde565b5f611805565b6118ba83612695565b863b1561047957604051630959112b60e11b81526001600160a01b0390911660048201525f81602481838b5af18015610bda576118f8575b506117c7565b5f61190291611cde565b5f6118f2565b6119289060203d811161192d575b6119208183611cde565b8101906126bd565b6113a2565b503d611916565b60405162461bcd60e51b815260206004820152602f60248201527f636f756c646e277420706572666f726d207472616e736974696f6e20666f722060448201526e756e6b6e6f776e2070726f6772616d60881b6064820152608490fd5b919050611a0893929850600194959996997fd756eca21e02cb0dbde1e44a4d9c6921b5c8aa4668cfa0752784b3dc855bce1e6020604051858c01358152a16020815191012060405191602080840194808c013586528b010135604084015260608301526080820152608081526105f560a082611cde565b94019193949094611267565b60405162461bcd60e51b815260206004820152602360248201527f616c6c6f776564207072656465636573736f7220626c6f636b206e6f7420666f6044820152621d5b9960ea1b6064820152608490fd5b606460405162461bcd60e51b815260206004820152602060248201527f696e76616c69642070726576696f757320636f6d6d69746d656e7420686173686044820152fd5b8486611abb926020815191012061205b565b5f7f9b779b17422d0df92223018b32b4d1fa46e071723d6817e2486d003becc55f005d005b633ee5aeb560e01b5f5260045ffd5b34610479576040366003190112610479576024356004358115801590611c2d575b15611be85760095f80516020612887833981519152540190805f528160205260ff60405f205416600381101561071f57611b8a577f65672eaf4ff8b823ea29ae013fef437d1fa9ed431125263a7a1f0ac49eada39692604092825f52602052825f20600160ff1982541617905582519182526020820152a1005b60405162461bcd60e51b815260206004820152603060248201527f636f64652077697468207375636820696420616c72656164792072657175657360448201526f1d1959081bdc881d985b1a59185d195960821b6064820152608490fd5b60405162461bcd60e51b815260206004820152601c60248201527f626c6f6254784861736820636f756c646e277420626520666f756e64000000006044820152606490fd5b505f491515611b10565b34610479575f366003190112610479576020610d1b6001600160801b0360065f8051602061288783398151915254015460401c1690565b34610479575f36600319011261047957602090600a5f805160206128878339815191525401548152f35b9181601f84011215610479578235916001600160401b038311610479576020808501948460051b01011161047957565b600435906001600160a01b038216820361047957565b90601f801991011681019081106001600160401b03821117611cff57604052565b634e487b7160e01b5f52604160045260245ffd5b9291926001600160401b038211611cff5760405191611d3c601f8201601f191660200184611cde565b829481845281830111610479578281602093845f960137010152565b9181601f84011215610479578235916001600160401b038311610479576020838186019501011161047957565b9092916001600160401b038411611cff578360051b916020604051611dac82860182611cde565b809681520192810191821161047957915b818310611dc957505050565b82356001600160a01b038116810361047957815260209283019201611dbd565b602080611e16928195946040519682889351918291018585015e8201908382015203018085520183611cde565b565b908060209392818452848401375f828201840152601f01601f1916010190565b93959490611e686001600160801b0393606095859360018060a01b03168852608060208901526080880191611e18565b9616604085015216910152565b90604051918281549182825260208201905f5260205f20925f5b818110611ea4575050611e1692500383611cde565b84546001600160a01b0316835260019485019487945060209093019201611e8f565b5f8051602061288783398151915254600601546001600160401b038116906001600160801b039060401c811616026001600160801b03811690810361040f5790565b3580151581036104795790565b5f19811461040f5760010190565b5f8051602061288783398151915254600560088201549101549081810291818304149015171561040f5761270f810180911161040f57612710900490565b6001600160a01b03168015611fbf575f8051602061286783398151915280546001600160a01b0319811683179091556001600160a01b03167f8be0079c531659141344cd1fd0a4f28419497f9722a3daafe3b4186f6b6457e05f80a3565b631e4fbdf760e01b5f525f60045260245ffd5b903590601e198136030182121561047957018035906001600160401b03821161047957602001918160051b3603831361047957565b919081101561151b5760051b8101359060be1981360301821215610479570190565b903590601e198136030182121561047957018035906001600160401b0382116104795760200191813603831361047957565b905f805160206128878339815191525490612074611f23565b9260405190602082019081526020825261208f604083611cde565b6120cb603660405180936020820195601960f81b87523060601b60228401525180918484015e81015f838201520301601f198101835282611cde565b5190205f9260070191835b868510156121d45761210c6121036120fd6120f68860051b860186612029565b3691611d13565b8561274a565b90929192612784565b6001600160a01b03165f9081526020859052604090205460ff16156121995761213490611f15565b9385851461214557600101936120d6565b505050509091505b1061215457565b60405162461bcd60e51b815260206004820152601b60248201527f6e6f7420656e6f7567682076616c6964207369676e61747572657300000000006044820152606490fd5b60405162461bcd60e51b8152602060048201526013602482015272696e636f7272656374207369676e617475726560681b6044820152606490fd5b9495505050505061214d565b5f80516020612867833981519152546001600160a01b0316330361220057565b63118cdaa760e01b5f523360045260245ffd5b906001600160801b03809116911601906001600160801b03821161040f57565b9291925f805160206128878339815191525491815f526009830160205260ff60405f205416600381101561071f576002036124b557612270611ec6565b60038401805460405163313ce56760e01b81529297919290602090829060049082906001600160a01b03165afa8015610bda575f90612478575b60ff915016604d811161040f5760646122dc6020936122d76001600160801b038095600a0a16809c612213565b612213565b93546040516323b872dd60e01b8152326004820152306024820152929094166044830152909283919082905f906001600160a01b03165af1908115610bda575f91612459575b5015612414576e5af43d82803e903d91602b57fd5bf3600284015491604051602081019185835260408201526040815261235d606082611cde565b51902091763d602d80600a3d3981f3363d3d373d3d3d363d7300000062ffffff8260881c16175f526effffffffffffffffffffffffffffff199060781b1617602052603760095ff5916001600160a01b038316908115612405577f8008ec1d8798725ebfa0f2d128d52e8e717dcba6e0f786557eeee70614b02bf191600c602092825f52600b810184528560405f2055016123f88154611f15565b9055604051908152a29190565b63b06ebf3d60e01b5f5260045ffd5b60405162461bcd60e51b815260206004820152601860248201527f6661696c656420746f20726574726965766520575661726100000000000000006044820152606490fd5b612472915060203d60201161192d576119208183611cde565b5f612322565b506020813d6020116124ad575b8161249260209383611cde565b81010312610479575160ff811681036104795760ff906122aa565b3d9150612485565b60405162461bcd60e51b815260206004820152602e60248201527f636f6465206d7573742062652076616c696461746564206265666f726520707260448201526d37b3b930b69031b932b0ba34b7b760911b6064820152608490fd5b5f80516020612887833981519152549060088201908154612601579091600701905f5b815181101561257357600581901b82016020908101516001600160a01b03165f9081529084905260409020805460ff1916600190811790915501612534565b5080519291506001600160401b038311611cff57680100000000000000008311611cff5781548383558084106125db575b50602001905f5260205f205f5b8381106125be5750505050565b82516001600160a01b0316818301556020909201916001016125b1565b825f528360205f2091820191015b8181106125f657506125a4565b5f81556001016125e9565b60405162461bcd60e51b815260206004820152602360248201527f70726576696f75732076616c696461746f727320776572656e27742072656d6f6044820152621d995960ea1b6064820152608490fd5b905f19430143811161040f57805b61266b575b505f9150565b804083810361267c57506001925050565b1561269057801561040f575f190180612660565b612665565b356001600160a01b03811681036104795790565b356001600160801b03811681036104795790565b90816020910312610479575180151581036104795790565b903590601e198136030182121561047957018035906001600160401b0382116104795760200191606082023603831361047957565b356001600160e01b0319811681036104795790565b60ff5f805160206128a78339815191525460401c161561273b57565b631afcd79f60e31b5f5260045ffd5b815191906041830361277a576127739250602082015190606060408401519301515f1a906127e4565b9192909190565b50505f9160029190565b600481101561071f5780612796575050565b600181036127ad5763f645eedf60e01b5f5260045ffd5b600281036127c8575063fce698f760e01b5f5260045260245ffd5b6003146127d25750565b6335e2f38360e21b5f5260045260245ffd5b91907f7fffffffffffffffffffffffffffffff5d576e7357a4501ddfe92f46681b20a0841161285b579160209360809260ff5f9560405194855216868401526040830152606082015282805260015afa15610bda575f516001600160a01b0381161561285157905f905f90565b505f906001905f90565b5050505f916003919056fe9016d09d72d40fdae2fd8ceac6b6234c7706214fd39c1cd1e609a0528c1993005c09ca1b9b8127a4fd9f3c384aac59b661441e820e17733753ff5f2e86e1e000f0c57e16840df040f15088dc2f81fe391c3923bec73e23a9662efc9c229c6a00a264697066735822122095075a25b321ba5d29bf9fdbf62ca8eccc18c6b0e2055878b956ed840959c3b364736f6c634300081a0033","linkReferences":{}},"methodIdentifiers":{"baseFee()":"6ef25c3a","baseWeight()":"d3fd6364","codeState(bytes32)":"c13911e8","commitBlocks((bytes32,bytes32,bytes32,(address,bytes32,address,uint128,(bytes32,address,uint128)[],(bytes32,address,bytes,uint128,(bytes32,bytes4))[])[])[],bytes[])":"26637f6d","commitCodes((bytes32,bool)[],bytes[])":"e97d3eb3","createProgram(bytes32,bytes32,bytes,uint128)":"8074b455","createProgramWithDecoder(address,bytes32,bytes32,bytes,uint128)":"666d124c","genesisBlockHash()":"28e24b3d","getStorageSlot()":"96708226","initialize(address,address,address,address,address[])":"f8453e7c","lastBlockCommitmentHash()":"2dacfb69","mirror()":"444d9172","mirrorProxy()":"78ee5dec","owner()":"8da5cb5b","programCodeId(address)":"9067088e","programsCount()":"96a2ddfa","reinitialize()":"6c2eb350","renounceOwnership()":"715018a6","requestCodeValidation(bytes32,bytes32)":"1c149d8a","setBaseWeight(uint64)":"8028861a","setMirror(address)":"3d43b418","setStorageSlot(string)":"5686cad5","setValuePerWeight(uint128)":"a6bbbe1c","signingThresholdPercentage()":"efd81abc","transferOwnership(address)":"f2fde38b","updateValidators(address[])":"e71731e4","validatedCodesCount()":"007a32e7","validatorExists(address)":"8febbd59","validators()":"ca1e7819","validatorsCount()":"ed612f8c","validatorsThreshold()":"edc87225","valuePerWeight()":"0834fecc","wrappedVara()":"88f50cf0"},"storageLayout":{"storage":[],"types":{}},"id":82}