{"abi":[{"type":"constructor","inputs":[],"stateMutability":"nonpayable"},{"type":"function","name":"areValidators","inputs":[{"name":"_validators","type":"address[]","internalType":"address[]"}],"outputs":[{"name":"","type":"bool","internalType":"bool"}],"stateMutability":"view"},{"type":"function","name":"codeState","inputs":[{"name":"_codeId","type":"bytes32","internalType":"bytes32"}],"outputs":[{"name":"","type":"uint8","internalType":"enum Gear.CodeState"}],"stateMutability":"view"},{"type":"function","name":"codesStates","inputs":[{"name":"_codesIds","type":"bytes32[]","internalType":"bytes32[]"}],"outputs":[{"name":"","type":"uint8[]","internalType":"enum Gear.CodeState[]"}],"stateMutability":"view"},{"type":"function","name":"commitBatch","inputs":[{"name":"_batchCommitment","type":"tuple","internalType":"struct Gear.BatchCommitment","components":[{"name":"codeCommitments","type":"tuple[]","internalType":"struct Gear.CodeCommitment[]","components":[{"name":"id","type":"bytes32","internalType":"bytes32"},{"name":"timestamp","type":"uint48","internalType":"uint48"},{"name":"valid","type":"bool","internalType":"bool"}]},{"name":"blockCommitments","type":"tuple[]","internalType":"struct Gear.BlockCommitment[]","components":[{"name":"hash","type":"bytes32","internalType":"bytes32"},{"name":"timestamp","type":"uint48","internalType":"uint48"},{"name":"previousCommittedBlock","type":"bytes32","internalType":"bytes32"},{"name":"predecessorBlock","type":"bytes32","internalType":"bytes32"},{"name":"transitions","type":"tuple[]","internalType":"struct Gear.StateTransition[]","components":[{"name":"actorId","type":"address","internalType":"address"},{"name":"newStateHash","type":"bytes32","internalType":"bytes32"},{"name":"inheritor","type":"address","internalType":"address"},{"name":"valueToReceive","type":"uint128","internalType":"uint128"},{"name":"valueClaims","type":"tuple[]","internalType":"struct Gear.ValueClaim[]","components":[{"name":"messageId","type":"bytes32","internalType":"bytes32"},{"name":"destination","type":"address","internalType":"address"},{"name":"value","type":"uint128","internalType":"uint128"}]},{"name":"messages","type":"tuple[]","internalType":"struct Gear.Message[]","components":[{"name":"id","type":"bytes32","internalType":"bytes32"},{"name":"destination","type":"address","internalType":"address"},{"name":"payload","type":"bytes","internalType":"bytes"},{"name":"value","type":"uint128","internalType":"uint128"},{"name":"replyDetails","type":"tuple","internalType":"struct Gear.ReplyDetails","components":[{"name":"to","type":"bytes32","internalType":"bytes32"},{"name":"code","type":"bytes4","internalType":"bytes4"}]}]}]}]}]},{"name":"_signatureType","type":"uint8","internalType":"enum Gear.SignatureType"},{"name":"_signatures","type":"bytes[]","internalType":"bytes[]"}],"outputs":[],"stateMutability":"nonpayable"},{"type":"function","name":"commitValidators","inputs":[{"name":"_validatorsCommitment","type":"tuple","internalType":"struct Gear.ValidatorsCommitment","components":[{"name":"aggregatedPublicKey","type":"tuple","internalType":"struct Gear.AggregatedPublicKey","components":[{"name":"x","type":"uint256","internalType":"uint256"},{"name":"y","type":"uint256","internalType":"uint256"}]},{"name":"verifiableSecretSharingCommitment","type":"bytes","internalType":"bytes"},{"name":"validators","type":"address[]","internalType":"address[]"},{"name":"eraIndex","type":"uint256","internalType":"uint256"}]},{"name":"_signatureType","type":"uint8","internalType":"enum Gear.SignatureType"},{"name":"_signatures","type":"bytes[]","internalType":"bytes[]"}],"outputs":[],"stateMutability":"nonpayable"},{"type":"function","name":"computeSettings","inputs":[],"outputs":[{"name":"","type":"tuple","internalType":"struct Gear.ComputationSettings","components":[{"name":"threshold","type":"uint64","internalType":"uint64"},{"name":"wvaraPerSecond","type":"uint128","internalType":"uint128"}]}],"stateMutability":"view"},{"type":"function","name":"createProgram","inputs":[{"name":"_codeId","type":"bytes32","internalType":"bytes32"},{"name":"_salt","type":"bytes32","internalType":"bytes32"}],"outputs":[{"name":"","type":"address","internalType":"address"}],"stateMutability":"nonpayable"},{"type":"function","name":"createProgramWithAbiInterface","inputs":[{"name":"_codeId","type":"bytes32","internalType":"bytes32"},{"name":"_salt","type":"bytes32","internalType":"bytes32"},{"name":"_abiInterface","type":"address","internalType":"address"}],"outputs":[{"name":"","type":"address","internalType":"address"}],"stateMutability":"nonpayable"},{"type":"function","name":"genesisBlockHash","inputs":[],"outputs":[{"name":"","type":"bytes32","internalType":"bytes32"}],"stateMutability":"view"},{"type":"function","name":"genesisTimestamp","inputs":[],"outputs":[{"name":"","type":"uint48","internalType":"uint48"}],"stateMutability":"view"},{"type":"function","name":"initialize","inputs":[{"name":"_owner","type":"address","internalType":"address"},{"name":"_mirror","type":"address","internalType":"address"},{"name":"_wrappedVara","type":"address","internalType":"address"},{"name":"_eraDuration","type":"uint256","internalType":"uint256"},{"name":"_electionDuration","type":"uint256","internalType":"uint256"},{"name":"_validationDelay","type":"uint256","internalType":"uint256"},{"name":"_aggregatedPublicKey","type":"tuple","internalType":"struct Gear.AggregatedPublicKey","components":[{"name":"x","type":"uint256","internalType":"uint256"},{"name":"y","type":"uint256","internalType":"uint256"}]},{"name":"_verifiableSecretSharingCommitment","type":"bytes","internalType":"bytes"},{"name":"_validators","type":"address[]","internalType":"address[]"}],"outputs":[],"stateMutability":"nonpayable"},{"type":"function","name":"isValidator","inputs":[{"name":"_validator","type":"address","internalType":"address"}],"outputs":[{"name":"","type":"bool","internalType":"bool"}],"stateMutability":"view"},{"type":"function","name":"latestCommittedBlockHash","inputs":[],"outputs":[{"name":"","type":"bytes32","internalType":"bytes32"}],"stateMutability":"view"},{"type":"function","name":"lookupGenesisHash","inputs":[],"outputs":[],"stateMutability":"nonpayable"},{"type":"function","name":"mirrorImpl","inputs":[],"outputs":[{"name":"","type":"address","internalType":"address"}],"stateMutability":"view"},{"type":"function","name":"owner","inputs":[],"outputs":[{"name":"","type":"address","internalType":"address"}],"stateMutability":"view"},{"type":"function","name":"programCodeId","inputs":[{"name":"_programId","type":"address","internalType":"address"}],"outputs":[{"name":"","type":"bytes32","internalType":"bytes32"}],"stateMutability":"view"},{"type":"function","name":"programsCodeIds","inputs":[{"name":"_programsIds","type":"address[]","internalType":"address[]"}],"outputs":[{"name":"","type":"bytes32[]","internalType":"bytes32[]"}],"stateMutability":"view"},{"type":"function","name":"programsCount","inputs":[],"outputs":[{"name":"","type":"uint256","internalType":"uint256"}],"stateMutability":"view"},{"type":"function","name":"reinitialize","inputs":[],"outputs":[],"stateMutability":"nonpayable"},{"type":"function","name":"renounceOwnership","inputs":[],"outputs":[],"stateMutability":"nonpayable"},{"type":"function","name":"requestCodeValidation","inputs":[{"name":"_codeId","type":"bytes32","internalType":"bytes32"}],"outputs":[],"stateMutability":"nonpayable"},{"type":"function","name":"setMirror","inputs":[{"name":"newMirror","type":"address","internalType":"address"}],"outputs":[],"stateMutability":"nonpayable"},{"type":"function","name":"signingThresholdPercentage","inputs":[],"outputs":[{"name":"","type":"uint16","internalType":"uint16"}],"stateMutability":"view"},{"type":"function","name":"transferOwnership","inputs":[{"name":"newOwner","type":"address","internalType":"address"}],"outputs":[],"stateMutability":"nonpayable"},{"type":"function","name":"validatedCodesCount","inputs":[],"outputs":[{"name":"","type":"uint256","internalType":"uint256"}],"stateMutability":"view"},{"type":"function","name":"validators","inputs":[],"outputs":[{"name":"","type":"address[]","internalType":"address[]"}],"stateMutability":"view"},{"type":"function","name":"validatorsAggregatedPublicKey","inputs":[],"outputs":[{"name":"","type":"tuple","internalType":"struct Gear.AggregatedPublicKey","components":[{"name":"x","type":"uint256","internalType":"uint256"},{"name":"y","type":"uint256","internalType":"uint256"}]}],"stateMutability":"view"},{"type":"function","name":"validatorsCount","inputs":[],"outputs":[{"name":"","type":"uint256","internalType":"uint256"}],"stateMutability":"view"},{"type":"function","name":"validatorsThreshold","inputs":[],"outputs":[{"name":"","type":"uint256","internalType":"uint256"}],"stateMutability":"view"},{"type":"function","name":"validatorsVerifiableSecretSharingCommitment","inputs":[],"outputs":[{"name":"","type":"bytes","internalType":"bytes"}],"stateMutability":"view"},{"type":"function","name":"wrappedVara","inputs":[],"outputs":[{"name":"","type":"address","internalType":"address"}],"stateMutability":"view"},{"type":"event","name":"BlockCommitted","inputs":[{"name":"hash","type":"bytes32","indexed":false,"internalType":"bytes32"}],"anonymous":false},{"type":"event","name":"CodeGotValidated","inputs":[{"name":"codeId","type":"bytes32","indexed":false,"internalType":"bytes32"},{"name":"valid","type":"bool","indexed":true,"internalType":"bool"}],"anonymous":false},{"type":"event","name":"CodeValidationRequested","inputs":[{"name":"codeId","type":"bytes32","indexed":false,"internalType":"bytes32"}],"anonymous":false},{"type":"event","name":"ComputationSettingsChanged","inputs":[{"name":"threshold","type":"uint64","indexed":false,"internalType":"uint64"},{"name":"wvaraPerSecond","type":"uint128","indexed":false,"internalType":"uint128"}],"anonymous":false},{"type":"event","name":"Initialized","inputs":[{"name":"version","type":"uint64","indexed":false,"internalType":"uint64"}],"anonymous":false},{"type":"event","name":"NextEraValidatorsCommitted","inputs":[{"name":"startTimestamp","type":"uint256","indexed":false,"internalType":"uint256"}],"anonymous":false},{"type":"event","name":"OwnershipTransferred","inputs":[{"name":"previousOwner","type":"address","indexed":true,"internalType":"address"},{"name":"newOwner","type":"address","indexed":true,"internalType":"address"}],"anonymous":false},{"type":"event","name":"ProgramCreated","inputs":[{"name":"actorId","type":"address","indexed":false,"internalType":"address"},{"name":"codeId","type":"bytes32","indexed":true,"internalType":"bytes32"}],"anonymous":false},{"type":"event","name":"StorageSlotChanged","inputs":[],"anonymous":false},{"type":"error","name":"ECDSAInvalidSignature","inputs":[]},{"type":"error","name":"ECDSAInvalidSignatureLength","inputs":[{"name":"length","type":"uint256","internalType":"uint256"}]},{"type":"error","name":"ECDSAInvalidSignatureS","inputs":[{"name":"s","type":"bytes32","internalType":"bytes32"}]},{"type":"error","name":"InvalidInitialization","inputs":[]},{"type":"error","name":"NotInitializing","inputs":[]},{"type":"error","name":"OwnableInvalidOwner","inputs":[{"name":"owner","type":"address","internalType":"address"}]},{"type":"error","name":"OwnableUnauthorizedAccount","inputs":[{"name":"account","type":"address","internalType":"address"}]},{"type":"error","name":"ReentrancyGuardReentrantCall","inputs":[]}],"bytecode":{"object":"0x6080806040523460aa575f516020613df45f395f51905f525460ff8160401c16609b576002600160401b03196001600160401b038216016049575b604051613d4590816100af8239f35b6001600160401b0319166001600160401b039081175f516020613df45f395f51905f525581527fc7f505b2f371ae2175ee4913f4499e1f2633a7b5936321eed1cdaeb6115181d290602090a15f80603a565b63f92ee8a960e01b5f5260045ffd5b5f80fdfe6101a0806040526004361015610013575f80fd5b5f610180525f3560e01c9081627a32e71461271757508063120e3f1e1461258c57806328e24b3d1461255f57806338f0efe5146124c05780633bd109fa1461246f5780633d43b41814612418578063527de0f9146123925780636c2eb350146120a6578063715018a61461203457806382bdeaad14611f2357806384d22a4f14611eb857806388f50cf014611e7d5780638b1edf1e14611dac5780638da5cb5b14611d755780638f381dbe14611d305780639067088e14611ce857806396a2ddfa14611cb8578063a5d53a4414611c44578063aa54494a14611825578063baaf020114611724578063c13911e8146116da578063c9f16a11146116aa578063ca1e781914611623578063cacf66ab146115e9578063d31d682114611095578063dc360d9214610304578063e6fabc09146102c9578063ed612f8c1461028f578063edc8722514610243578063efd81abc1461020f578063f2fde38b146101df5763facd743b14610181575f80fd5b346101d85760203660031901126101d85761019a612757565b60036101b55f516020613d055f395f51905f52544290613860565b019060018060a01b03165f52602052602060ff60405f2054166040519015158152f35b6101805180fd5b346101d85760203660031901126101d8576102086101fb612757565b6102036130b4565b612bb0565b6101805180f35b346101d857610180513660031901126101d857602061ffff60075f516020613d055f395f51905f5254015416604051908152f35b346101d857610180513660031901126101d85760206102875f516020613d055f395f51905f525461ffff6007600461027b4285613860565b0154920154169061383e565b604051908152f35b346101d857610180513660031901126101d857602060046102bf5f516020613d055f395f51905f52544290613860565b0154604051908152f35b346101d857610180513660031901126101d8575f516020613d055f395f51905f5254600501546040516001600160a01b039091168152602090f35b346101d85760603660031901126101d8576004356001600160401b0381116101d857604060031982360301126101d857600260243510156101d8576044356001600160401b0381116101d85761035e903690600401612781565b917f9b779b17422d0df92223018b32b4d1fa46e071723d6817e2486d003becc55f005c6110805760017f9b779b17422d0df92223018b32b4d1fa46e071723d6817e2486d003becc55f005d5f516020613d055f395f51905f5254610140526103ce600161014051015415156128d9565b6103db6004820180612aeb565b90501580611067575b611022576101805160c081905261014051601801939290919060605b61040d6004840180612aeb565b9050841015610650576104236004840180612aeb565b851015610636576060850201938435948561018051528760205260ff604061018051205416600381101561061c576001036105b957604081019261046684612b55565b1561059b57610180805188905260208a90525160409020805460ff1916600217905561014051601b01805461049a90612b62565b90555b6104a684612b55565b15157f460119a8f69a33ed127de517d5ea464e958ce23ef19e4420a8b92bf780bbc2c960206040518a8152a26060823603126101d8576020604051926104eb846127ed565b888452019687359465ffffffffffff861686036101d85785602085015235948515158087036101d857600196604061055e960152604051916020830193845265ffffffffffff60d01b9060d01b16604083015260f81b604682015260278152610555604782612808565b51902090612b70565b9460c05165ffffffffffff61057283612b9d565b1611610581575b500192610400565b61059165ffffffffffff91612b9d565b1660c05287610579565b866101805152886020526040610180512060ff19815416905561049d565b60405162461bcd60e51b815260206004820152603560248201527f636f6465206d7573742062652072657175657374656420666f722076616c6964604482015274185d1a5bdb881d1bc818994818dbdb5b5a5d1d1959605a1b6064820152608490fd5b634e487b7160e01b61018051526021600452602461018051fd5b634e487b7160e01b61018051526032600452602461018051fd5b61018051606060a05261012052849290915b6106726024830183600401612b20565b9050610120511015610f5f5761068e6024830183600401612b20565b9061010052610120511015610636576101205160051b61010051013560e052609e196101005136030160e05112156101d8576003610140510154604060e0516101005101013503610f0c57610140515415610ea0575b60206106f88160e051610100510101612b9d565b65ffffffffffff6040519161070c836127be565b60e051610100510135835216918291015260e051610100510135600361014051015565ffffffffffff19600461014051015416176004610140510155610763608060e05161010051010160e0516101005101612b20565b61016091909152610180516080529360605b856080511015610d8257610180515060be196101605136030160805160051b61016051013512156101d8576107b960805160051b6101605101356101605101612a0c565b6001600160a01b03165f90815261014051601901602052604090205415610d255760018060a01b0360066101405101541661080360805160051b6101605101356101605101612a0c565b606060805160051b610160510135610160510101356001600160801b03811681036101d85760405163a9059cbb60e01b81526001600160a01b0390921660048301526001600160801b03166024820152610180519091602091839160449183915af18015610af857610cec575b5060018060a01b0361089160805160051b6101605101356101605101612a0c565b1690604051916309ed323560e41b83526020600484015260e4830160018060a01b036108cc60805160051b610160510135610160510161276d565b166024850152608080516101608051600592831b81013501602001356044880152915191516001600160a01b039261090b921b8101350160400161276d565b1660648501526001600160801b03610935606060805160051b6101605101356101605101016139cd565b166084850152608080516101605160059190911b8101350190810135903603601e19018112156101d85760805160051b61016051013561016051010160208101916001600160401b038235116101d8576060823502360383136101d85760c060a48701528135905261018051610104860192915b80358210610ca25750506080516101605160059190911b8101350160a08101359291503603601e19018212156101d8576001600160401b0360805160051b6101605101356101605101830135116101d85760805161016051600591821b810135018301803590911b90368290036020909101136101d8579185926023198484030160c485015260805160051b6101605101356101605101820135835260208084019184010192602060805160051b61016051013561016051018401019261018051915b60805160051b61016051013561016051018201358310610b06575050505050918180602094039161018051905af1908115610af8576101805191610ac3575b610ab59250612b70565b608080516001019052610775565b90506020823d8211610af0575b81610add60209383612808565b810103126101d857610ab5915190610aab565b3d9150610ad0565b6040513d61018051823e3d90fd5b919395509193601f1982820301855285359060de1960805160051b610160510135610160510185013603018212156101d857608080516101608051600592831b8101350187018501602001358452915191516001600160a01b0392610b76921b810135018601840160400161276d565b16602082015260805161016051606060059290921b810135018501830190810135903603603e19018112156101d85760209060805160051b6101605101356101605101860184010101916001600160401b038335116101d8578235360360208401136101d85760c09081604084015283358284015283356020850160e08501376101805160e08535850101526001600160801b03610c296080805160051b610160510135610160510189018401016139cd565b16606084015260a060805160051b6101605101356101605101870182010135608084015260805160051b610160510135610160510186010101359163ffffffff60e01b83168093036101d85760a082019290925289969135601f01601f19160160e0019460209182019491019260019190910191610a6c565b90919260608060019286358152838060a01b03610cc16020890161276d565b1660208201526001600160801b03610cdb604089016139cd565b1660408201520194019201906109a9565b6020813d8211610d1d575b81610d0460209383612808565b810103126101d857518015158114610870576101805180fd5b3d9150610cf7565b60405162461bcd60e51b815260206004820152602f60248201527f636f756c646e277420706572666f726d207472616e736974696f6e20666f722060448201526e756e6b6e6f776e2070726f6772616d60881b6064820152608490fd5b610e4291939550939193602081519101207fd756eca21e02cb0dbde1e44a4d9c6921b5c8aa4668cfa0752784b3dc855bce1e602060405160e0516101005101358152a1610dd8602060e051610100510101612b9d565b9060405190602082019260e051610100510135845265ffffffffffff60d01b9060d01b166040830152604060e051610100510101356046830152606060e051610100510101356066830152608682015260868152610e3760a682612808565b51902060a051612b70565b60a05260c05165ffffffffffff610e62602060e051610100510101612b9d565b1611610e7d575b600161012051016101205291929092610662565b65ffffffffffff610e97602060e051610100510101612b9d565b1660c052610e69565b610eb4606060e05161010051010135613990565b6106e45760405162461bcd60e51b815260206004820152602660248201527f616c6c6f776564207072656465636573736f7220626c6f636b207761736e277460448201526508199bdd5b9960d21b6064820152608490fd5b60405162461bcd60e51b815260206004820152602560248201527f696e76616c69642070726576696f757320636f6d6d697474656420626c6f636b604482015264040d0c2e6d60db1b6064820152608490fd5b610fab908484602081519101209160a05151602060a05101206040519060208201948552604082015260408152610f97606082612808565b60c051936024359151902061014051613419565b15610fdd57610180517f9b779b17422d0df92223018b32b4d1fa46e071723d6817e2486d003becc55f005d6101805180f35b60405162461bcd60e51b815260206004820152601e60248201527f7369676e61747572657320766572696669636174696f6e206661696c656400006044820152606490fd5b60405162461bcd60e51b815260206004820152601860248201527f6e6f20636f6d6d69746d656e747320746f20636f6d6d697400000000000000006044820152606490fd5b506110786024820182600401612b20565b9050156103e4565b633ee5aeb560e01b6101805152600461018051fd5b346101d8576101403660031901126101d8576110af612757565b6024356001600160a01b03811691908290036101d8576110cd612741565b606435926084359160a4359160403660c31901126101d85761010435956001600160401b0387116101d857366023880112156101d8578660040135906001600160401b0382116101d857366024838a0101116101d857610124356001600160401b0381116101d857611143903690600401612781565b9590935f516020613d255f395f51905f525460ff8160401c1615996001600160401b038216801590816115e1575b60011490816115d7575b1590816115ce575b506115b95767ffffffffffffffff1982166001175f516020613d255f395f51905f52556111c1918b61158d575b506111b9613965565b610203613965565b42156115375787156114e1578783111561148057600a6111e18985612a8c565b0482101561143b576040998a516111f88c82612808565b6017815260208101907f726f757465722e73746f726167652e526f757465725631000000000000000000825261122c6130b4565b5190205f19810193908411611421576113c199600895828e60206113b09760056113ba9a8451908482019081528482526112668683612808565b60ff1991519020169e8f90815f516020613d055f395f51905f52556112896130e7565b80516001840155600283019063ffffffff878201511669ffffffffffff00000000898454930151891b169169ffffffffffffffffffff1916171790558551906112d1826127be565b8482526001600160a01b0390811695909101859052910180546001600160a01b03199081169290931691909117905560068e018054909116909117905560078c01805461ffff1916611a0a17905561132761294b565b506509184e72a0006020825161133c816127be565b639502f9008152015260148c0180546001600160c01b0319166d09184e72a000000000009502f9001790558051611372816127ed565b83815260208101859052015260158a0155601689015560178801558a5194611399866127be565b60c435865260e43560208701526024369201612829565b9342963691612885565b93016131b6565b6113cc576101805180f35b60207fc7f505b2f371ae2175ee4913f4499e1f2633a7b5936321eed1cdaeb6115181d29160ff60401b195f516020613d255f395f51905f5254165f516020613d255f395f51905f52555160018152a180610208565b634e487b7160e01b61018051526011600452602461018051fd5b60405162461bcd60e51b815260206004820152601b60248201527f76616c69646174696f6e2064656c617920697320746f6f2062696700000000006044820152606490fd5b60405162461bcd60e51b815260206004820152603360248201527f657261206475726174696f6e206d757374206265206772656174657220746861604482015272371032b632b1ba34b7b710323ab930ba34b7b760691b6064820152608490fd5b60405162461bcd60e51b815260206004820152602860248201527f656c656374696f6e206475726174696f6e206d75737420626520677265617465604482015267072207468616e20360c41b6064820152608490fd5b60405162461bcd60e51b815260206004820152602860248201527f63757272656e742074696d657374616d70206d75737420626520677265617465604482015267072207468616e20360c41b6064820152608490fd5b68ffffffffffffffffff191668010000000000000001175f516020613d255f395f51905f52558c6111b0565b63f92ee8a960e01b6101805152600461018051fd5b9050158d611183565b303b15915061117b565b8c9150611171565b346101d857610180513660031901126101d857602065ffffffffffff60025f516020613d055f395f51905f52540154821c16604051908152f35b346101d857610180513660031901126101d85761165a60046116545f516020613d055f395f51905f52544290613860565b01612981565b604051809160208201602083528151809152602060408401920190610180515b818110611688575050500390f35b82516001600160a01b031684528594506020938401939092019160010161167a565b346101d857610180513660031901126101d857602060035f516020613d055f395f51905f52540154604051908152f35b346101d85760203660031901126101d85760185f516020613d055f395f51905f5254016004356101805152602052602060ff60406101805120541661172260405180926127b1565bf35b346101d85760203660031901126101d8576004356001600160401b0381116101d857611754903690600401612781565b5f516020613d055f395f51905f52549161176d8261286e565b9261177b6040519485612808565b8284526117878361286e565b602085019390601f19013685376019610180519201915b8181106117ec57848660405191829160208301906020845251809152604083019190610180515b8181106117d3575050500390f35b82518452859450602093840193909201916001016117c5565b806118026117fd60019385886129d4565b612a0c565b828060a01b03165f528360205260405f205461181e82896129f8565b520161179e565b346101d85760603660031901126101d8576004356001600160401b0381116101d8576003198136030160a081126101d8576040519060808201908282106001600160401b03831117611c2a576040918252126101d857604051611887816127be565b8260040135815260248301356020820152815260448201356001600160401b0381116101d8578201366023820112156101d8576118ce903690602460048201359101612829565b6020820190815260648301356001600160401b0381116101d8578301366023820112156101d857611909903690602460048201359101612885565b90604083019182526084606084019401358452600260243510156101d8576044356001600160401b0381116101d857611946903690600401612781565b9190935f516020613d055f395f51905f5254611967600182015415156128d9565b65ffffffffffff600282015460201c166119818142612a8c565b9061199160158401548093612aad565b8951600182018092116114215703611bd2576119b26119b8928a5190612ad8565b90612acb565b936119c7601683015486612a8c565b4210611b8d576119d6826133fe565b964260058901541015611b2d5783516020815191015188519a51604051916020830193845260408301526060820160208d51919d0190610180515b818110611b0e575050506020828d611a3893611a659a9b9c9d9e9f52038084520182612808565b51902092604051906020820194855260208252611a56604083612808565b42946024359251902090613419565b15611aae577f41e7f919bf726af8aa2ef36bd31905a693013e30c45c6284060e613d4941997b94602094611aa09385935190519151926131b6565b604051908152a16101805180f35b60405162461bcd60e51b815260206004820152603260248201527f6e657874206572612076616c696461746f7273207369676e6174757265732076604482015271195c9a599a58d85d1a5bdb8819985a5b195960721b6064820152608490fd5b82516001600160a01b03168f5260209e8f019e90920191600101611a11565b60405162461bcd60e51b815260206004820152603260248201527f6c6f6f6b73206c696b652076616c696461746f727320666f72206e65787420656044820152711c9848185c9948185b1c9958591e481cd95d60721b6064820152608490fd5b60405162461bcd60e51b815260206004820152601b60248201527f656c656374696f6e206973206e6f7420796574207374617274656400000000006044820152606490fd5b60405162461bcd60e51b815260206004820152602a60248201527f636f6d6d69746d656e742065726120696e646578206973206e6f74206e657874604482015269040cae4c240d2dcc8caf60b31b6064820152608490fd5b634e487b7160e01b61018051526041600452602461018051fd5b346101d857610180513660031901126101d85760206040611c895f516020613d055f395f51905f52546002611c8160018060a01b03924290613860565b01541661312c565b815192839181835280519182918282860152018484015e61018051828201840152601f01601f19168101030190f35b346101d857610180513660031901126101d8576020601a5f516020613d055f395f51905f52540154604051908152f35b346101d85760203660031901126101d857611d01612757565b60195f516020613d055f395f51905f5254019060018060a01b03165f52602052602060405f2054604051908152f35b346101d85760203660031901126101d8576004356001600160401b0381116101d857611d6b611d656020923690600401612781565b90612a20565b6040519015158152f35b346101d857610180513660031901126101d8575f516020613ce55f395f51905f52546040516001600160a01b039091168152602090f35b346101d857610180513660031901126101d8575f516020613d055f395f51905f525460018101908154611e38576002015463ffffffff1640908115611df357556101805180f35b60405162461bcd60e51b815260206004820152601d60248201527f756e61626c6520746f206c6f6f6b75702067656e6573697320686173680000006044820152606490fd5b60405162461bcd60e51b815260206004820152601860248201527f67656e65736973206861736820616c72656164792073657400000000000000006044820152606490fd5b346101d857610180513660031901126101d8575f516020613d055f395f51905f5254600601546040516001600160a01b039091168152602090f35b346101d857610180513660031901126101d857611ed361294b565b50604060145f516020613d055f395f51905f5254016001600160801b03825191611efc836127be565b548160206001600160401b038316948581520191851c168152835192835251166020820152f35b346101d85760203660031901126101d8576004356001600160401b0381116101d857611f53903690600401612781565b5f516020613d055f395f51905f525491611f6c8261286e565b92611f7a6040519485612808565b828452611f868361286e565b602085019390601f19013685376018610180519201915b818110611ff557848660405191829160208301906020845251809152604083019190610180515b818110611fd2575050500390f35b9193509160208082611fe760019488516127b1565b019401910191849392611fc4565b6120008183866129d4565b3561018051528260205260ff6040610180512054169061202081886129f8565b91600381101561061c576001925201611f9d565b346101d857610180513660031901126101d85761204f6130b4565b5f516020613ce55f395f51905f5280546001600160a01b0319811690915561018051906001600160a01b03167f8be0079c531659141344cd1fd0a4f28419497f9722a3daafe3b4186f6b6457e08280a36101805180f35b346101d857610180513660031901126101d8576120c16130b4565b5f516020613d255f395f51905f525460ff8160401c16801561237e575b6115b95768ffffffffffffffffff191668010000000000000002175f516020613d255f395f51905f52555f516020613d055f395f51905f5254604080516121258282612808565b6017815260208101907f726f757465722e73746f726167652e526f75746572563200000000000000000082526121596130b4565b5190205f19810191908211611421577fc7f505b2f371ae2175ee4913f4499e1f2633a7b5936321eed1cdaeb6115181d2926020928251908482019081528482526121a38483612808565b60ff19915190201690815f516020613d055f395f51905f52556121c46130e7565b80516001840155600283019063ffffffff868201511669ffffffffffff00000000868454930151881b169169ffffffffffffffffffff191617179055600581016005830190808203612346575b505061ffff600782015416600783019061ffff1982541617905561227a6122384283613860565b61224f6001600160a01b036002611c814287613860565b612265600461225e4287613860565b0192612963565b906122704293612981565b91600887016131b6565b6014810160148301908082036122f4575b50506015810160158301918183036122d4575b5050505060ff60401b195f516020613d255f395f51905f5254165f516020613d255f395f51905f52555160028152a16101805180f35b60179283925490556016810154601685015501549101558380808061229e565b806001600160401b03806001600160801b03935416166001600160401b031984541617835554851c16600160401b600160c01b03825491861b1690600160401b600160c01b031916179055858061228b565b5481546001600160a01b03199081166001600160a01b0392831617909255600683810154908501805490931691161790558580612211565b5060026001600160401b03821610156120de565b346101d85760403660031901126101d8576001600160a01b036123b9602435600435612c21565b16803b156101d85760405163485cc95560e01b815233600482015261018080516024830152518160448183865af18015610af8576123fd575b602082604051908152f35b6101805161240a91612808565b610180516101d857816123f2565b346101d85760203660031901126101d857612431612757565b6124396130b4565b5f516020613d055f395f51905f525460050180546001600160a01b0319166001600160a01b039092169190911790556101805180f35b346101d857610180513660031901126101d85761248a61294b565b5060406124ae6124a95f516020613d055f395f51905f52544290613860565b612963565b60208251918051835201516020820152f35b3461255b57606036600319011261255b576124d9612741565b6001600160a01b036124ef602435600435612c21565b16803b1561255b5760405163485cc95560e01b81523360048201526001600160a01b0390921660248301525f8260448183855af19182156125505760209261253b575b50604051908152f35b5f61254591612808565b5f6101805282612532565b6040513d5f823e3d90fd5b5f80fd5b3461255b575f36600319011261255b57602060015f516020613d055f395f51905f52540154604051908152f35b3461255b57602036600319011261255b576004355f491561269b5760185f516020613d055f395f51905f52546125c7600182015415156128d9565b01815f528060205260ff60405f20541660038110156126875761262657816020917f5c261a095dd5720475295dc06379921c003c22164ee6cae5cf83e76ce0a1b985935f52825260405f20600160ff19825416179055604051908152a1005b60405162461bcd60e51b815260206004820152603360248201527f676976656e20636f646520696420697320616c7265616479206f6e2076616c6960448201527219185d1a5bdb881bdc881d985b1a59185d1959606a1b6064820152608490fd5b634e487b7160e01b5f52602160045260245ffd5b60405162461bcd60e51b815260206004820152604860248201527f626c6f622063616e277420626520666f756e642c20726f75746572206578706560448201527f63746564204549502d34383434207472616e73616374696f6e2077697468205760648201526720a9a690313637b160c11b608482015260a490fd5b3461255b575f36600319011261255b57602090601b5f516020613d055f395f51905f525401548152f35b604435906001600160a01b038216820361255b57565b600435906001600160a01b038216820361255b57565b35906001600160a01b038216820361255b57565b9181601f8401121561255b578235916001600160401b03831161255b576020808501948460051b01011161255b57565b9060038210156126875752565b604081019081106001600160401b038211176127d957604052565b634e487b7160e01b5f52604160045260245ffd5b606081019081106001600160401b038211176127d957604052565b90601f801991011681019081106001600160401b038211176127d957604052565b9291926001600160401b0382116127d95760405191612852601f8201601f191660200184612808565b82948184528183011161255b578281602093845f960137010152565b6001600160401b0381116127d95760051b60200190565b9291906128918161286e565b9361289f6040519586612808565b602085838152019160051b810192831161255b57905b8282106128c157505050565b602080916128ce8461276d565b8152019101906128b5565b156128e057565b60405162461bcd60e51b815260206004820152603860248201527f726f757465722067656e65736973206973207a65726f3b2063616c6c20606c6f60448201527f6f6b757047656e657369734861736828296020666972737400000000000000006064820152608490fd5b60405190612958826127be565b5f6020838281520152565b90604051612970816127be565b602060018294805484520154910152565b90604051918281549182825260208201905f5260205f20925f5b8181106129b25750506129b092500383612808565b565b84546001600160a01b031683526001948501948794506020909301920161299b565b91908110156129e45760051b0190565b634e487b7160e01b5f52603260045260245ffd5b80518210156129e45760209160051b010190565b356001600160a01b038116810361255b5790565b612a395f516020613d055f395f51905f52544290613860565b600301905f5b838110612a4f5750505050600190565b612a5d6117fd8286856129d4565b6001600160a01b03165f9081526020849052604090205460ff1615612a8457600101612a3f565b505050505f90565b91908203918211612a9957565b634e487b7160e01b5f52601160045260245ffd5b8115612ab7570490565b634e487b7160e01b5f52601260045260245ffd5b91908201809211612a9957565b81810292918115918404141715612a9957565b903590601e198136030182121561255b57018035906001600160401b03821161255b5760200191606082023603831361255b57565b903590601e198136030182121561255b57018035906001600160401b03821161255b57602001918160051b3603831361255b57565b35801515810361255b5790565b5f198114612a995760010190565b6020806129b0928195946040519682889351918291018585015e8201908382015203018085520183612808565b3565ffffffffffff8116810361255b5790565b6001600160a01b03168015612c0e575f516020613ce55f395f51905f5280546001600160a01b0319811683179091556001600160a01b03167f8be0079c531659141344cd1fd0a4f28419497f9722a3daafe3b4186f6b6457e05f80a3565b631e4fbdf760e01b5f525f60045260245ffd5b5f516020613d055f395f51905f525491612c40600184015415156128d9565b815f526018830160205260ff60405f205416600381101561268757600203613058576040516020810191838352604082015260408152612c81606082612808565b5190206040516102c08101908082106001600160401b0383111761255b576102b4916040527f6080806040526102a290816100128239f3fe608060405260043610610258575f81527f3560e01c806329336f391461009b57806336a52a1814610096578063701da98e60208201527f14610091578063704ed5421461008c57806391d5a64c146100875780639ce11060408201527fd714610082578063affed0e01461007d578063d5624222146100785763e43f3460608201527f330361025857610243565b610208565b6101eb565b6101c3565b6101ad565b6160808201527f0194565b610177565b610150565b346100dc5760603660031901126100dc576060a08201527f243567ffffffffffffffff81116100dc576100cc9036906004016100e0565b5060c08201527f506100d661010e565b50610258565b5f80fd5b9181601f840112156100dc578260e08201527f359167ffffffffffffffff83116100dc57602083818601950101116100dc57566101008201527f5b604435906001600160801b03821682036100dc57565b6004359060016001606101208201527f801b03821682036100dc57565b602435906001600160801b03821682036100dc6101408201527f57565b346100dc575f3660031901126100dc575f546040516001600160a01b036101608201527f9091168152602090f35b346100dc575f3660031901126100dc576020600254606101808201527f4051908152f35b346100dc5760203660031901126100dc576100d6610124565b6101a08201527f346100dc57602036600319011215610258575f80fd5b346100dc575f366003196101c08201527f01126100dc576001546040516001600160a01b039091168152602090f35b34616101e08201527edc575f3660031901126100dc576020600354604051908152f35b346100dc576102008201527f60403660031901126100dc5760043567ffffffffffffffff81116100dc5761026102208201527f399036906004016100e0565b50506100d661013a565b346100dc575f3660031961024082015263ffffffff3060801c167f011215610258575f80fd5b63e6fabc0960e01b5f5260205f6004817300000000176102608201523060801b6f5afa156100dc575f8080513682803781176102808201527336915af43d5f803e1561029e573d5ff35b3d5ffd60601b6102a08201525ff591821561255b576001600160a01b0383165f9081526019820160205260409020829055601a01805461301e90612b62565b90556040516001600160a01b03831681527f8008ec1d8798725ebfa0f2d128d52e8e717dcba6e0f786557eeee70614b02bf190602090a290565b60405162461bcd60e51b815260206004820152602e60248201527f636f6465206d7573742062652076616c696461746564206265666f726520707260448201526d37b3b930b69031b932b0ba34b7b760911b6064820152608490fd5b5f516020613ce55f395f51905f52546001600160a01b031633036130d457565b63118cdaa760e01b5f523360045260245ffd5b5f604080516130f5816127ed565b828152826020820152015260405161310c816127ed565b5f815263ffffffff4316602082015265ffffffffffff4216604082015290565b803b905f19820190828211612a995760019060405193603e601f19910116840160405282845260208401903c90565b1561316257565b60405162461bcd60e51b815260206004820152602660248201527f46524f53542061676772656761746564207075626c6963206b657920697320696044820152651b9d985b1a5960d21b6064820152608490fd5b9291908051906131e96020820192835170014551231950b75fc4402da1732fc9bebe19821091826133ed575b505061315b565b518455516001840155604051906132256021836020808201945f86528051918291018484015e81015f838201520301601f198101845283612808565b613262602b604051809360208201956a600b5981380380925939f360a81b87525180918484015e81015f838201520301601f198101835282612808565b51905ff06001600160a01b038116156133b4576002830180546001600160a01b0319166001600160a01b039092169190911790555f5b6004830180548210156132d6575f90815260208082208301546001600160a01b0316825260038501905260409020805460ff19169055600101613298565b5050925f5b845181101561331f576001906001600160a01b036132f982886129f8565b5116828060a01b03165f526003840160205260405f208260ff19825416179055016132db565b5092600482018151916001600160401b0383116127d9576801000000000000000083116127d957815483835580841061338e575b50602001905f5260205f205f5b838110613371575050505060050155565b82516001600160a01b031681830155602090920191600101613360565b825f528360205f2091820191015b8181106133a95750613353565b5f815560010161339c565b60405162461bcd60e51b81526020600482015260116024820152701111541313d65351539517d19052531151607a1b6044820152606490fd5b6133f79250613c3f565b5f806131e2565b613408428261387c565b156134135760080190565b600e0190565b909493919365ffffffffffff600283015460201c1661344f61345a6134546134418442612a8c565b601587015493848092612aad565b612ad8565b83612acb565b918284108080613828575b156137b6575083106137715761347b9083612acb565b106137205761348b905b82613860565b946040519060208201908152602082526134a6604083612808565b6134e2603660405180936020820195601960f81b87523060601b60228401525180918484015e81015f838201520301601f198101835282612808565b519020936002811015612687578061363e575050600181036135f957156129e457803590601e198136030182121561255b57018035906001600160401b03821161255b57602001813603811361255b5761353d913691612829565b9160608351036135a45782602061358c9401516060604083015192015192600181549101549070014551231950b75fc4402da1732fc9bebe1981108061358f575b6135879061315b565b6139e1565b90565b5061358761359d8383613c3f565b905061357e565b60405162461bcd60e51b815260206004820152602760248201527f46524f5354207369676e6174757265206c656e677468206d75737420626520396044820152663620627974657360c81b6064820152608490fd5b60405162461bcd60e51b815260206004820152601e60248201527f46524f5354207369676e6174757265206d7573742062652073696e676c6500006044820152606490fd5b60011461364e5750505050505f90565b6136689061ffff600760048895980154920154169061383e565b925f9260035f9301925b86811015613715578060051b820135601e198336030181121561255b5782018035906001600160401b03821161255b57602001813603811361255b576136d0916136c7916136c1913691612829565b85613ba5565b90929192613bdf565b6001600160a01b03165f9081526020859052604090205460ff166136f7575b600101613672565b9361370190612b62565b938585036136ef5750505050505050600190565b505050505050505f90565b60405162461bcd60e51b8152602060048201526024808201527f74696d657374616d70206973206f6c646572207468616e2070726576696f75736044820152632065726160e01b6064820152608490fd5b60405162461bcd60e51b815260206004820152601e60248201527f63616e6e6f742076616c6964617465206265666f72652067656e6573697300006044820152606490fd5b93929150504282116137d95761348b926137d1575b50613485565b90505f6137cb565b60405162461bcd60e51b815260206004820152602160248201527f74696d657374616d702063616e6e6f7420626520696e207468652066757475726044820152606560f81b6064820152608490fd5b50613837601787015485612acb565b4210613465565b61ffff61384c921690612ad8565b61270f8101809111612a9957612710900490565b9061386b908261387c565b1561387657600e0190565b60080190565b906013600d8301549201548083146139215781818410931191821591111591819061391a575b156138b757826138b157505090565b14919050565b60405162461bcd60e51b815260206004820152603560248201527f636f756c64206e6f74206964656e746966792076616c696461746f727320666f6044820152740722074686520676976656e2074696d657374616d7605c1b6064820152608490fd5b50816138a2565b606460405162461bcd60e51b815260206004820152602060248201527f657261732074696d657374616d70206d757374206e6f7420626520657175616c6044820152fd5b60ff5f516020613d255f395f51905f525460401c161561398157565b631afcd79f60e31b5f5260045ffd5b905f194301438111612a9957805b6139a9575b505f9150565b80408381036139ba57506001925050565b156139c8575f19018061399e565b6139a3565b35906001600160801b038216820361255b57565b92939194906139f08587613c3f565b15613b9b578215613b9b5770014551231950b75fc4402da1732fc9bebe19831015613b9b576001169061010e6040519161012083018381106001600160401b0382111761255b5760405260883684376002600188160160888401538760898401526002840160a984015360aa830186905260ca8301527e300046524f53542d736563703235366b312d4b454343414b3235362d76316360ea8301526303430b6160e51b61010a830152812060cc820181815290600260ec84016001815360428420809318845253604270014551231950b75fc4402da1732fc9bebe19922060801c6001600160401b0360801b8260801b16179070014551231950b75fc4402da1732fc9bebe1990600160c01b9060401c090880156137155784601b6080945f9660209870014551231950b75fc4402da1732fc9bebe19910970014551231950b75fc4402da1732fc9bebe19038552018684015280604084015270014551231950b75fc4402da1732fc9bebe19910970014551231950b75fc4402da1732fc9bebe1903606082015282805260015afa1561255b575f51915f5260205260018060a01b0360405f20161490565b5050505050505f90565b8151919060418303613bd557613bce9250602082015190606060408401519301515f1a90613c62565b9192909190565b50505f9160029190565b60048110156126875780613bf1575050565b60018103613c085763f645eedf60e01b5f5260045ffd5b60028103613c23575063fce698f760e01b5f5260045260245ffd5b600314613c2d5750565b6335e2f38360e21b5f5260045260245ffd5b6401000003d01990600790829081818009900908906401000003d0199080091490565b91907f7fffffffffffffffffffffffffffffff5d576e7357a4501ddfe92f46681b20a08411613cd9579160209360809260ff5f9560405194855216868401526040830152606082015282805260015afa15612550575f516001600160a01b03811615613ccf57905f905f90565b505f906001905f90565b5050505f916003919056fe9016d09d72d40fdae2fd8ceac6b6234c7706214fd39c1cd1e609a0528c1993005c09ca1b9b8127a4fd9f3c384aac59b661441e820e17733753ff5f2e86e1e000f0c57e16840df040f15088dc2f81fe391c3923bec73e23a9662efc9c229c6a00f0c57e16840df040f15088dc2f81fe391c3923bec73e23a9662efc9c229c6a00","linkReferences":{}},"methodIdentifiers":{"areValidators(address[])":"8f381dbe","codeState(bytes32)":"c13911e8","codesStates(bytes32[])":"82bdeaad","commitBatch(((bytes32,uint48,bool)[],(bytes32,uint48,bytes32,bytes32,(address,bytes32,address,uint128,(bytes32,address,uint128)[],(bytes32,address,bytes,uint128,(bytes32,bytes4))[])[])[]),uint8,bytes[])":"dc360d92","commitValidators(((uint256,uint256),bytes,address[],uint256),uint8,bytes[])":"aa54494a","computeSettings()":"84d22a4f","createProgram(bytes32,bytes32)":"527de0f9","createProgramWithAbiInterface(bytes32,bytes32,address)":"38f0efe5","genesisBlockHash()":"28e24b3d","genesisTimestamp()":"cacf66ab","initialize(address,address,address,uint256,uint256,uint256,(uint256,uint256),bytes,address[])":"d31d6821","isValidator(address)":"facd743b","latestCommittedBlockHash()":"c9f16a11","lookupGenesisHash()":"8b1edf1e","mirrorImpl()":"e6fabc09","owner()":"8da5cb5b","programCodeId(address)":"9067088e","programsCodeIds(address[])":"baaf0201","programsCount()":"96a2ddfa","reinitialize()":"6c2eb350","renounceOwnership()":"715018a6","requestCodeValidation(bytes32)":"120e3f1e","setMirror(address)":"3d43b418","signingThresholdPercentage()":"efd81abc","transferOwnership(address)":"f2fde38b","validatedCodesCount()":"007a32e7","validators()":"ca1e7819","validatorsAggregatedPublicKey()":"3bd109fa","validatorsCount()":"ed612f8c","validatorsThreshold()":"edc87225","validatorsVerifiableSecretSharingCommitment()":"a5d53a44","wrappedVara()":"88f50cf0"},"storageLayout":{"storage":[],"types":{}},"id":127}