{"abi":[{"type":"constructor","inputs":[],"stateMutability":"nonpayable"},{"type":"function","name":"baseFee","inputs":[],"outputs":[{"name":"","type":"uint128","internalType":"uint128"}],"stateMutability":"view"},{"type":"function","name":"baseWeight","inputs":[],"outputs":[{"name":"","type":"uint64","internalType":"uint64"}],"stateMutability":"view"},{"type":"function","name":"codeState","inputs":[{"name":"codeId","type":"bytes32","internalType":"bytes32"}],"outputs":[{"name":"","type":"uint8","internalType":"enum IRouter.CodeState"}],"stateMutability":"view"},{"type":"function","name":"commitBlocks","inputs":[{"name":"blockCommitmentsArray","type":"tuple[]","internalType":"struct IRouter.BlockCommitment[]","components":[{"name":"blockHash","type":"bytes32","internalType":"bytes32"},{"name":"prevCommitmentHash","type":"bytes32","internalType":"bytes32"},{"name":"predBlockHash","type":"bytes32","internalType":"bytes32"},{"name":"transitions","type":"tuple[]","internalType":"struct IRouter.StateTransition[]","components":[{"name":"actorId","type":"address","internalType":"address"},{"name":"prevStateHash","type":"bytes32","internalType":"bytes32"},{"name":"newStateHash","type":"bytes32","internalType":"bytes32"},{"name":"valueToReceive","type":"uint128","internalType":"uint128"},{"name":"valueClaims","type":"tuple[]","internalType":"struct IRouter.ValueClaim[]","components":[{"name":"messageId","type":"bytes32","internalType":"bytes32"},{"name":"destination","type":"address","internalType":"address"},{"name":"value","type":"uint128","internalType":"uint128"}]},{"name":"messages","type":"tuple[]","internalType":"struct IRouter.OutgoingMessage[]","components":[{"name":"id","type":"bytes32","internalType":"bytes32"},{"name":"destination","type":"address","internalType":"address"},{"name":"payload","type":"bytes","internalType":"bytes"},{"name":"value","type":"uint128","internalType":"uint128"},{"name":"replyDetails","type":"tuple","internalType":"struct IRouter.ReplyDetails","components":[{"name":"to","type":"bytes32","internalType":"bytes32"},{"name":"code","type":"bytes4","internalType":"bytes4"}]}]}]}]},{"name":"signatures","type":"bytes[]","internalType":"bytes[]"}],"outputs":[],"stateMutability":"nonpayable"},{"type":"function","name":"commitCodes","inputs":[{"name":"codeCommitmentsArray","type":"tuple[]","internalType":"struct IRouter.CodeCommitment[]","components":[{"name":"id","type":"bytes32","internalType":"bytes32"},{"name":"valid","type":"bool","internalType":"bool"}]},{"name":"signatures","type":"bytes[]","internalType":"bytes[]"}],"outputs":[],"stateMutability":"nonpayable"},{"type":"function","name":"createProgram","inputs":[{"name":"codeId","type":"bytes32","internalType":"bytes32"},{"name":"salt","type":"bytes32","internalType":"bytes32"},{"name":"payload","type":"bytes","internalType":"bytes"},{"name":"_value","type":"uint128","internalType":"uint128"}],"outputs":[{"name":"","type":"address","internalType":"address"}],"stateMutability":"payable"},{"type":"function","name":"genesisBlockHash","inputs":[],"outputs":[{"name":"","type":"bytes32","internalType":"bytes32"}],"stateMutability":"view"},{"type":"function","name":"getStorageSlot","inputs":[],"outputs":[{"name":"","type":"bytes32","internalType":"bytes32"}],"stateMutability":"view"},{"type":"function","name":"initialize","inputs":[{"name":"initialOwner","type":"address","internalType":"address"},{"name":"_mirror","type":"address","internalType":"address"},{"name":"_mirrorProxy","type":"address","internalType":"address"},{"name":"_wrappedVara","type":"address","internalType":"address"},{"name":"_validatorAddressArray","type":"address[]","internalType":"address[]"}],"outputs":[],"stateMutability":"nonpayable"},{"type":"function","name":"lastBlockCommitmentHash","inputs":[],"outputs":[{"name":"","type":"bytes32","internalType":"bytes32"}],"stateMutability":"view"},{"type":"function","name":"mirror","inputs":[],"outputs":[{"name":"","type":"address","internalType":"address"}],"stateMutability":"view"},{"type":"function","name":"mirrorProxy","inputs":[],"outputs":[{"name":"","type":"address","internalType":"address"}],"stateMutability":"view"},{"type":"function","name":"owner","inputs":[],"outputs":[{"name":"","type":"address","internalType":"address"}],"stateMutability":"view"},{"type":"function","name":"programExists","inputs":[{"name":"program","type":"address","internalType":"address"}],"outputs":[{"name":"","type":"bool","internalType":"bool"}],"stateMutability":"view"},{"type":"function","name":"programsCount","inputs":[],"outputs":[{"name":"","type":"uint256","internalType":"uint256"}],"stateMutability":"view"},{"type":"function","name":"renounceOwnership","inputs":[],"outputs":[],"stateMutability":"nonpayable"},{"type":"function","name":"requestCodeValidation","inputs":[{"name":"codeId","type":"bytes32","internalType":"bytes32"},{"name":"blobTxHash","type":"bytes32","internalType":"bytes32"}],"outputs":[],"stateMutability":"nonpayable"},{"type":"function","name":"setBaseWeight","inputs":[{"name":"_baseWeight","type":"uint64","internalType":"uint64"}],"outputs":[],"stateMutability":"nonpayable"},{"type":"function","name":"setMirror","inputs":[{"name":"_mirror","type":"address","internalType":"address"}],"outputs":[],"stateMutability":"nonpayable"},{"type":"function","name":"setStorageSlot","inputs":[{"name":"namespace","type":"string","internalType":"string"}],"outputs":[],"stateMutability":"nonpayable"},{"type":"function","name":"setValuePerWeight","inputs":[{"name":"_valuePerWeight","type":"uint128","internalType":"uint128"}],"outputs":[],"stateMutability":"nonpayable"},{"type":"function","name":"signingThresholdPercentage","inputs":[],"outputs":[{"name":"","type":"uint256","internalType":"uint256"}],"stateMutability":"view"},{"type":"function","name":"transferOwnership","inputs":[{"name":"newOwner","type":"address","internalType":"address"}],"outputs":[],"stateMutability":"nonpayable"},{"type":"function","name":"updateValidators","inputs":[{"name":"validatorsAddressArray","type":"address[]","internalType":"address[]"}],"outputs":[],"stateMutability":"nonpayable"},{"type":"function","name":"validatedCodesCount","inputs":[],"outputs":[{"name":"","type":"uint256","internalType":"uint256"}],"stateMutability":"view"},{"type":"function","name":"validatorExists","inputs":[{"name":"validator","type":"address","internalType":"address"}],"outputs":[{"name":"","type":"bool","internalType":"bool"}],"stateMutability":"view"},{"type":"function","name":"validators","inputs":[],"outputs":[{"name":"","type":"address[]","internalType":"address[]"}],"stateMutability":"view"},{"type":"function","name":"validatorsCount","inputs":[],"outputs":[{"name":"","type":"uint256","internalType":"uint256"}],"stateMutability":"view"},{"type":"function","name":"validatorsThreshold","inputs":[],"outputs":[{"name":"","type":"uint256","internalType":"uint256"}],"stateMutability":"view"},{"type":"function","name":"valuePerWeight","inputs":[],"outputs":[{"name":"","type":"uint128","internalType":"uint128"}],"stateMutability":"view"},{"type":"function","name":"wrappedVara","inputs":[],"outputs":[{"name":"","type":"address","internalType":"address"}],"stateMutability":"view"},{"type":"event","name":"BaseWeightChanged","inputs":[{"name":"baseWeight","type":"uint64","indexed":false,"internalType":"uint64"}],"anonymous":false},{"type":"event","name":"BlockCommitted","inputs":[{"name":"blockHash","type":"bytes32","indexed":false,"internalType":"bytes32"}],"anonymous":false},{"type":"event","name":"CodeFailedValidation","inputs":[{"name":"codeId","type":"bytes32","indexed":false,"internalType":"bytes32"}],"anonymous":false},{"type":"event","name":"CodeGotValidated","inputs":[{"name":"codeId","type":"bytes32","indexed":false,"internalType":"bytes32"}],"anonymous":false},{"type":"event","name":"CodeValidationRequested","inputs":[{"name":"codeId","type":"bytes32","indexed":false,"internalType":"bytes32"},{"name":"blobTxHash","type":"bytes32","indexed":false,"internalType":"bytes32"}],"anonymous":false},{"type":"event","name":"Initialized","inputs":[{"name":"version","type":"uint64","indexed":false,"internalType":"uint64"}],"anonymous":false},{"type":"event","name":"OwnershipTransferred","inputs":[{"name":"previousOwner","type":"address","indexed":true,"internalType":"address"},{"name":"newOwner","type":"address","indexed":true,"internalType":"address"}],"anonymous":false},{"type":"event","name":"ProgramCreated","inputs":[{"name":"actorId","type":"address","indexed":false,"internalType":"address"},{"name":"codeId","type":"bytes32","indexed":true,"internalType":"bytes32"}],"anonymous":false},{"type":"event","name":"StorageSlotChanged","inputs":[],"anonymous":false},{"type":"event","name":"ValidatorsSetChanged","inputs":[],"anonymous":false},{"type":"event","name":"ValuePerWeightChanged","inputs":[{"name":"valuePerWeight","type":"uint128","indexed":false,"internalType":"uint128"}],"anonymous":false},{"type":"error","name":"ECDSAInvalidSignature","inputs":[]},{"type":"error","name":"ECDSAInvalidSignatureLength","inputs":[{"name":"length","type":"uint256","internalType":"uint256"}]},{"type":"error","name":"ECDSAInvalidSignatureS","inputs":[{"name":"s","type":"bytes32","internalType":"bytes32"}]},{"type":"error","name":"FailedDeployment","inputs":[]},{"type":"error","name":"InsufficientBalance","inputs":[{"name":"balance","type":"uint256","internalType":"uint256"},{"name":"needed","type":"uint256","internalType":"uint256"}]},{"type":"error","name":"InvalidInitialization","inputs":[]},{"type":"error","name":"NotInitializing","inputs":[]},{"type":"error","name":"OwnableInvalidOwner","inputs":[{"name":"owner","type":"address","internalType":"address"}]},{"type":"error","name":"OwnableUnauthorizedAccount","inputs":[{"name":"account","type":"address","internalType":"address"}]},{"type":"error","name":"ReentrancyGuardReentrantCall","inputs":[]}],"bytecode":{"object":"0x6080604052348015600e575f80fd5b5060156019565b60c9565b7ff0c57e16840df040f15088dc2f81fe391c3923bec73e23a9662efc9c229c6a00805468010000000000000000900460ff161560685760405163f92ee8a960e01b815260040160405180910390fd5b80546001600160401b039081161460c65780546001600160401b0319166001600160401b0390811782556040519081527fc7f505b2f371ae2175ee4913f4499e1f2633a7b5936321eed1cdaeb6115181d29060200160405180910390a15b50565b612c6e806100d65f395ff3fe6080604052600436106101cf575f3560e01c806388f50cf0116100fd578063d3fd636411610092578063edc8722511610062578063edc8722514610535578063efd81abc14610549578063f2fde38b1461055d578063f8453e7c1461057c575f80fd5b8063d3fd6364146104b7578063e71731e4146104e3578063e97d3eb314610502578063ed612f8c14610521575f80fd5b806396a2ddfa116100cd57806396a2ddfa14610437578063a6bbbe1c1461044b578063c13911e81461046a578063ca1e781914610496575f80fd5b806388f50cf0146103955780638da5cb5b146103a95780638febbd59146103e55780639670822614610404575f80fd5b8063444d917211610173578063715018a611610143578063715018a61461033b57806378ee5dec1461034f5780638028861a146103635780638074b45514610382575f80fd5b8063444d9172146102bd5780635686cad5146102e957806362281979146103085780636ef25c3a14610327575f80fd5b80631c149d8a116101ae5780631c149d8a1461025557806328e24b3d146102765780632dacfb691461028a5780633d43b4181461029e575f80fd5b80627a32e7146101d357806302e55897146101fa5780630834fecc14610229575b5f80fd5b3480156101de575f80fd5b506101e761059b565b6040519081526020015b60405180910390f35b348015610205575f80fd5b50610219610214366004612319565b6105af565b60405190151581526020016101f1565b348015610234575f80fd5b5061023d6105dd565b6040516001600160801b0390911681526020016101f1565b348015610260575f80fd5b5061027461026f366004612332565b610601565b005b348015610281575f80fd5b506101e761074f565b348015610295575f80fd5b506101e7610760565b3480156102a9575f80fd5b506102746102b8366004612319565b610774565b3480156102c8575f80fd5b506102d16107aa565b6040516001600160a01b0390911681526020016101f1565b3480156102f4575f80fd5b50610274610303366004612396565b6107c7565b348015610313575f80fd5b5061027461032236600461246f565b610864565b348015610332575f80fd5b5061023d6108ec565b348015610346575f80fd5b50610274610915565b34801561035a575f80fd5b506102d1610928565b34801561036e575f80fd5b5061027461037d3660046124d9565b610945565b6102d1610390366004612515565b6109b2565b3480156103a0575f80fd5b506102d1610bb2565b3480156103b4575f80fd5b507f9016d09d72d40fdae2fd8ceac6b6234c7706214fd39c1cd1e609a0528c199300546001600160a01b03166102d1565b3480156103f0575f80fd5b506102196103ff366004612319565b610bcf565b34801561040f575f80fd5b507f5c09ca1b9b8127a4fd9f3c384aac59b661441e820e17733753ff5f2e86e1e000546101e7565b348015610442575f80fd5b506101e7610bfd565b348015610456575f80fd5b506102746104653660046125a4565b610c11565b348015610475575f80fd5b506104896104843660046125bd565b610c8f565b6040516101f191906125e8565b3480156104a1575f80fd5b506104aa610cb0565b6040516101f1919061260e565b3480156104c2575f80fd5b506104cb610d19565b6040516001600160401b0390911681526020016101f1565b3480156104ee575f80fd5b506102746104fd366004612659565b610d36565b34801561050d575f80fd5b5061027461051c366004612697565b610dad565b34801561052c575f80fd5b506101e7610f89565b348015610540575f80fd5b506101e7610f9d565b348015610554575f80fd5b506101e7610fd1565b348015610568575f80fd5b50610274610577366004612319565b610fe5565b348015610587575f80fd5b50610274610596366004612717565b611022565b5f806105a56111f4565b600a015492915050565b5f806105b96111f4565b6001600160a01b039093165f908152600b9093016020525050604090205460ff1690565b5f806105e76111f4565b60060154600160401b90046001600160801b031692915050565b8015158061060f57505f4915155b6106605760405162461bcd60e51b815260206004820152601c60248201527f626c6f6254784861736820636f756c646e277420626520666f756e640000000060448201526064015b60405180910390fd5b5f6106696111f4565b90505f8084815260098301602052604090205460ff166002811115610690576106906125d4565b146106f65760405162461bcd60e51b815260206004820152603060248201527f636f64652077697468207375636820696420616c72656164792072657175657360448201526f1d1959081bdc881d985b1a59185d195960821b6064820152608401610657565b5f838152600982016020908152604091829020805460ff1916600117905581518581529081018490527f65672eaf4ff8b823ea29ae013fef437d1fa9ed431125263a7a1f0ac49eada396910160405180910390a1505050565b5f806107596111f4565b5492915050565b5f8061076a6111f4565b6004015492915050565b61077c611224565b5f6107856111f4565b60010180546001600160a01b0319166001600160a01b03939093169290921790915550565b5f806107b46111f4565b600101546001600160a01b031692915050565b6107cf611224565b805160208201205f9060ff19906107e89060019061281b565b6040516020016107fa91815260200190565b60408051601f198184030181529190528051602090910120169050807f5c09ca1b9b8127a4fd9f3c384aac59b661441e820e17733753ff5f2e86e1e000556040517f5aa0c6c9fb33211212ffe5bef7a4b5d511b82a611e6677052d984e2bcedeaccc905f90a15050565b60605f5b848110156108d257368686838181106108835761088361282e565b90506020028101906108959190612842565b90505f6108a18261127f565b905083816040516020016108b6929190612877565b60408051808303601f1901815291905293505050600101610868565b506108e581805190602001208484611457565b5050505050565b5f6108f56105dd565b6108fd610d19565b6001600160401b0316610910919061288f565b905090565b61091d611224565b6109265f6115fb565b565b5f806109326111f4565b600201546001600160a01b031692915050565b61094d611224565b5f6109566111f4565b60068101805467ffffffffffffffff19166001600160401b0385169081179091556040519081529091507f01326573cfc0bc40a2550923254394ebd7529e3e3301840dfa33cf786aead0c7906020015b60405180910390a15050565b5f806109bc6111f4565b905060025f88815260098301602052604090205460ff1660028111156109e4576109e46125d4565b14610a485760405162461bcd60e51b815260206004820152602e60248201527f636f6465206d7573742062652076616c696461746564206265666f726520707260448201526d37b3b930b69031b932b0ba34b7b760911b6064820152608401610657565b5f610a516108ec565b90505f610a5f82600a61288f565b90505f85610a6d83856128b8565b610a7791906128b8565b9050610a828161166b565b600284015460408051602081018d90529081018b90525f91610ac8916001600160a01b03909116906060016040516020818303038152906040528051906020012061174f565b6001600160a01b0381165f908152600b870160205260408120805460ff19166001179055600c8701805492935090610aff836128d7565b90915550506040516001600160a01b03821681528b907f8008ec1d8798725ebfa0f2d128d52e8e717dcba6e0f786557eeee70614b02bf19060200160405180910390a26040516306f0ee9760e51b81526001600160a01b0382169063de1dd2e090610b769032908d908d908d908a90600401612917565b5f604051808303815f87803b158015610b8d575f80fd5b505af1158015610b9f573d5f803e3d5ffd5b50929d9c50505050505050505050505050565b5f80610bbc6111f4565b600301546001600160a01b031692915050565b5f80610bd96111f4565b6001600160a01b039093165f90815260079093016020525050604090205460ff1690565b5f80610c076111f4565b600c015492915050565b610c19611224565b5f610c226111f4565b60068101805477ffffffffffffffffffffffffffffffff00000000000000001916600160401b6001600160801b038616908102919091179091556040519081529091507f9f5e1796f1a0adf311f86170503308a06a16560a7679b7b6da35f4999200d740906020016109a6565b5f80610c996111f4565b5f9384526009016020525050604090205460ff1690565b60605f610cbb6111f4565b60088101805460408051602080840282018101909252828152939450830182828015610d0e57602002820191905f5260205f20905b81546001600160a01b03168152600190910190602001808311610cf0575b505050505091505090565b5f80610d236111f4565b600601546001600160401b031692915050565b610d3e611224565b610d46611762565b610d818282808060200260200160405190810160405280939291908181526020018383602002808284375f920191909152506117d292505050565b6040517f144bbc027dc176e94c43b7c1bcff2a8aa58ab434029eec294743cd4ab2e54f51905f90a15050565b5f610db66111f4565b905060605f5b85811015610f6e5736878783818110610dd757610dd761282e565b90506040020190505f610de9826118ad565b90508381604051602001610dfe929190612877565b60408051601f198184030181529190529350813560015f82815260098801602052604090205460ff166002811115610e3857610e386125d4565b14610e955760405162461bcd60e51b815260206004820152602760248201527f636f64652073686f756c642062652072657175657374656420666f722076616c60448201526634b230ba34b7b760c91b6064820152608401610657565b610ea5604084016020850161296a565b15610f11575f8181526009870160205260408120805460ff19166002179055600a8701805491610ed4836128d7565b90915550506040518181527f4825ce3dfe386ce63991e050a642a03b001ebd26648d8cac6e7d3af5fc04cb149060200160405180910390a1610f63565b5f81815260098701602052604090819020805460ff19169055517f66f217d41ffea390a2e216f366d35762b0f0fe48554994562cf1878723f74a4290610f5a9083815260200190565b60405180910390a15b505050600101610dbc565b50610f8181805190602001208585611457565b505050505050565b5f80610f936111f4565b6008015492915050565b5f612710610fa9610fd1565b610fb1610f89565b610fbb9190612985565b610fc79061270f61299c565b61091091906129af565b5f80610fdb6111f4565b6005015492915050565b610fed611224565b6001600160a01b03811661101657604051631e4fbdf760e01b81525f6004820152602401610657565b61101f816115fb565b50565b7ff0c57e16840df040f15088dc2f81fe391c3923bec73e23a9662efc9c229c6a008054600160401b810460ff1615906001600160401b03165f811580156110665750825b90505f826001600160401b031660011480156110815750303b155b90508115801561108f575080155b156110ad5760405163f92ee8a960e01b815260040160405180910390fd5b845467ffffffffffffffff1916600117855583156110d757845460ff60401b1916600160401b1785555b6110e08a6118fc565b611116604051806040016040528060158152602001743937baba32b91739ba37b930b3b2972937baba32b960591b8152506107c7565b5f61111f6111f4565b905061112c60014361281b565b4081556001810180546001600160a01b03199081166001600160a01b038d81169190911790925560028301805482168c8416179055600383018054909116918a16919091179055611a0a60058201556006810180546001600160c01b031916680a000000009502f9001790556111a1876117d2565b5083156111e857845460ff60401b19168555604051600181527fc7f505b2f371ae2175ee4913f4499e1f2633a7b5936321eed1cdaeb6115181d29060200160405180910390a15b50505050505050505050565b5f8061121e7f5c09ca1b9b8127a4fd9f3c384aac59b661441e820e17733753ff5f2e86e1e0005490565b92915050565b336112567f9016d09d72d40fdae2fd8ceac6b6234c7706214fd39c1cd1e609a0528c199300546001600160a01b031690565b6001600160a01b0316146109265760405163118cdaa760e01b8152336004820152602401610657565b5f806112896111f4565b905082602001358160040154146112e25760405162461bcd60e51b815260206004820181905260248201527f696e76616c69642070726576696f757320636f6d6d69746d656e7420686173686044820152606401610657565b6112ef836040013561190d565b6113475760405162461bcd60e51b815260206004820152602360248201527f616c6c6f776564207072656465636573736f7220626c6f636b206e6f7420666f6044820152621d5b9960ea1b6064820152608401610657565b60605f5b61135860608601866129ce565b90508110156113ce573661136f60608701876129ce565b8381811061137f5761137f61282e565b90506020028101906113919190612a13565b90505f61139d8261195f565b905083816040516020016113b2929190612877565b60408051808303601f190181529190529350505060010161134b565b508335600483018190556040519081527fd756eca21e02cb0dbde1e44a4d9c6921b5c8aa4668cfa0752784b3dc855bce1e9060200160405180910390a180516020828101919091206040805187358185015283880135818301528188013560608201526080808201939093528151808203909301835260a001905280519101205b949350505050565b5f6114606111f4565b90505f61146b610f9d565b90505f61149b8660405160200161148491815260200190565b60408051601f198184030181529190523090611f04565b90505f805b858110156115a157365f8888848181106114bc576114bc61282e565b90506020028101906114ce9190612a27565b915091505f61151483838080601f0160208091040260200160405190810160405280939291908181526020018383808284375f920191909152508a93925050611f369050565b6001600160a01b0381165f90815260078a01602052604090205490915060ff16156115585786611543866128d7565b95508503611553575050506115a1565b611596565b60405162461bcd60e51b8152602060048201526013602482015272696e636f7272656374207369676e617475726560681b6044820152606401610657565b5050506001016114a0565b50828110156115f25760405162461bcd60e51b815260206004820152601b60248201527f6e6f7420656e6f7567682076616c6964207369676e61747572657300000000006044820152606401610657565b50505050505050565b7f9016d09d72d40fdae2fd8ceac6b6234c7706214fd39c1cd1e609a0528c19930080546001600160a01b031981166001600160a01b03848116918217845560405192169182907f8be0079c531659141344cd1fd0a4f28419497f9722a3daafe3b4186f6b6457e0905f90a3505050565b5f6116746111f4565b60038101546040516323b872dd60e01b81523260048201523060248201526001600160801b03851660448201529192505f916001600160a01b03909116906323b872dd906064016020604051808303815f875af11580156116d7573d5f803e3d5ffd5b505050506040513d601f19601f820116820180604052508101906116fb9190612a69565b90508061174a5760405162461bcd60e51b815260206004820152601860248201527f6661696c656420746f20726574726965766520575661726100000000000000006044820152606401610657565b505050565b5f61175b83835f611f5e565b9392505050565b5f61176b6111f4565b90505f5b60088201548110156117c4575f8260080182815481106117915761179161282e565b5f9182526020808320909101546001600160a01b0316825260078501905260409020805460ff191690555060010161176f565b5061101f600882015f61226c565b5f6117db6111f4565b60088101549091501561183c5760405162461bcd60e51b815260206004820152602360248201527f70726576696f75732076616c696461746f727320776572656e27742072656d6f6044820152621d995960ea1b6064820152608401610657565b5f5b8251811015611897575f83828151811061185a5761185a61282e565b6020908102919091018101516001600160a01b03165f9081526007850190915260409020805460ff1916600190811790915591909101905061183e565b50815161174a9060088301906020850190612287565b5f81356118c0604084016020850161296a565b6040516020016118df929190918252151560f81b602082015260210190565b604051602081830303815290604052805190602001209050919050565b611904611ff3565b61101f8161203c565b5f8061191a60014361281b565b90505b8015611957578040838103611936575060019392505050565b5f8190036119445750611957565b508061194f81612a84565b91505061191d565b505f92915050565b5f806119696111f4565b9050600b81015f61197d6020860186612319565b6001600160a01b0316815260208101919091526040015f205460ff166119fd5760405162461bcd60e51b815260206004820152602f60248201527f636f756c646e277420706572666f726d207472616e736974696f6e20666f722060448201526e756e6b6e6f776e2070726f6772616d60881b6064820152608401610657565b60038101546001600160a01b03168063a9059cbb611a1e6020870187612319565b611a2e60808801606089016125a4565b6040516001600160e01b031960e085901b1681526001600160a01b0390921660048301526001600160801b031660248201526044016020604051808303815f875af1158015611a7f573d5f803e3d5ffd5b505050506040513d601f19601f82011682018060405250810190611aa39190612a69565b505f611ab26020860186612319565b905060605f5b611ac56080880188612a99565b9050811015611c335736611adc6080890189612a99565b83818110611aec57611aec61282e565b6060029190910191508390508135611b0a6040840160208501612319565b611b1a60608501604086016125a4565b604051602001611b579392919092835260609190911b6001600160601b031916602083015260801b6001600160801b031916603482015260440190565b60408051601f1981840301815290829052611b759291602001612add565b6040516020818303038152906040529250836001600160a01b03166314503e51825f0135836020016020810190611bac9190612319565b611bbc60608601604087016125a4565b6040516001600160e01b031960e086901b16815260048101939093526001600160a01b0390911660248301526001600160801b031660448201526064015f604051808303815f87803b158015611c10575f80fd5b505af1158015611c22573d5f803e3d5ffd5b505060019093019250611ab8915050565b5060605f5b611c4560a08901896129ce565b9050811015611df15736611c5c60a08a018a6129ce565b83818110611c6c57611c6c61282e565b9050602002810190611c7e9190612a13565b905082611c8a82612044565b604051602001611c9b929190612877565b60408051601f19818403018152919052925060808101355f03611d48576001600160a01b03851663c2df60098235611cd96040850160208601612319565b611ce66040860186612a27565b611cf660808801606089016125a4565b6040518663ffffffff1660e01b8152600401611d16959493929190612af1565b5f604051808303815f87803b158015611d2d575f80fd5b505af1158015611d3f573d5f803e3d5ffd5b50505050611de8565b6001600160a01b03851663c78bde77611d676040840160208501612319565b611d746040850185612a27565b611d8460808701606088016125a4565b6080870135611d9960c0890160a08a01612b36565b6040518763ffffffff1660e01b8152600401611dba96959493929190612b5d565b5f604051808303815f87803b158015611dd1575f80fd5b505af1158015611de3573d5f803e3d5ffd5b505050505b50600101611c38565b506040805163773919fb60e01b8152602089013560048201529088013560248201526001600160a01b0384169063773919fb906044015f604051808303815f87803b158015611e3e575f80fd5b505af1158015611e50573d5f803e3d5ffd5b50611ef99250611e669150506020890189612319565b602089013560408a0135611e8060808c0160608d016125a4565b868051906020012086805190602001206040805160609790971b6001600160601b0319166020808901919091526034880196909652605487019490945260809290921b6001600160801b0319166074860152608485015260a4808501919091528151808503909101815260c49093019052815191012090565b979650505050505050565b5f8282604051602001611f18929190612bb2565b60405160208183030381529060405280519060200120905092915050565b5f805f80611f44868661209f565b925092509250611f5482826120e8565b5090949350505050565b5f81471015611f895760405163cf47918160e01b815247600482015260248101839052604401610657565b763d602d80600a3d3981f3363d3d373d3d3d363d730000008460601b60e81c175f526e5af43d82803e903d91602b57fd5bf38460781b17602052826037600984f590506001600160a01b03811661175b5760405163b06ebf3d60e01b815260040160405180910390fd5b7ff0c57e16840df040f15088dc2f81fe391c3923bec73e23a9662efc9c229c6a0054600160401b900460ff1661092657604051631afcd79f60e31b815260040160405180910390fd5b610fed611ff3565b5f81356120576040840160208501612319565b6120646040850185612a27565b61207460808701606088016125a4565b608087013561208960c0890160a08a01612b36565b6040516020016118df9796959493929190612bdb565b5f805f83516041036120d6576020840151604085015160608601515f1a6120c8888285856121a4565b9550955095505050506120e1565b505081515f91506002905b9250925092565b5f8260038111156120fb576120fb6125d4565b03612104575050565b6001826003811115612118576121186125d4565b036121365760405163f645eedf60e01b815260040160405180910390fd5b600282600381111561214a5761214a6125d4565b0361216b5760405163fce698f760e01b815260048101829052602401610657565b600382600381111561217f5761217f6125d4565b036121a0576040516335e2f38360e21b815260048101829052602401610657565b5050565b5f80807f7fffffffffffffffffffffffffffffff5d576e7357a4501ddfe92f46681b20a08411156121dd57505f91506003905082612262565b604080515f808252602082018084528a905260ff891692820192909252606081018790526080810186905260019060a0016020604051602081039080840390855afa15801561222e573d5f803e3d5ffd5b5050604051601f1901519150506001600160a01b03811661225957505f925060019150829050612262565b92505f91508190505b9450945094915050565b5080545f8255905f5260205f209081019061101f91906122ea565b828054828255905f5260205f209081019282156122da579160200282015b828111156122da57825182546001600160a01b0319166001600160a01b039091161782556020909201916001909101906122a5565b506122e69291506122ea565b5090565b5b808211156122e6575f81556001016122eb565b80356001600160a01b0381168114612314575f80fd5b919050565b5f60208284031215612329575f80fd5b61175b826122fe565b5f8060408385031215612343575f80fd5b50508035926020909101359150565b634e487b7160e01b5f52604160045260245ffd5b604051601f8201601f191681016001600160401b038111828210171561238e5761238e612352565b604052919050565b5f602082840312156123a6575f80fd5b81356001600160401b038111156123bb575f80fd5b8201601f810184136123cb575f80fd5b80356001600160401b038111156123e4576123e4612352565b6123f7601f8201601f1916602001612366565b81815285602083850101111561240b575f80fd5b816020840160208301375f91810160200191909152949350505050565b5f8083601f840112612438575f80fd5b5081356001600160401b0381111561244e575f80fd5b6020830191508360208260051b8501011115612468575f80fd5b9250929050565b5f805f8060408587031215612482575f80fd5b84356001600160401b03811115612497575f80fd5b6124a387828801612428565b90955093505060208501356001600160401b038111156124c1575f80fd5b6124cd87828801612428565b95989497509550505050565b5f602082840312156124e9575f80fd5b81356001600160401b038116811461175b575f80fd5b80356001600160801b0381168114612314575f80fd5b5f805f805f60808688031215612529575f80fd5b853594506020860135935060408601356001600160401b0381111561254c575f80fd5b8601601f8101881361255c575f80fd5b80356001600160401b03811115612571575f80fd5b886020828401011115612582575f80fd5b60209190910193509150612598606087016124ff565b90509295509295909350565b5f602082840312156125b4575f80fd5b61175b826124ff565b5f602082840312156125cd575f80fd5b5035919050565b634e487b7160e01b5f52602160045260245ffd5b602081016003831061260857634e487b7160e01b5f52602160045260245ffd5b91905290565b602080825282518282018190525f918401906040840190835b8181101561264e5783516001600160a01b0316835260209384019390920191600101612627565b509095945050505050565b5f806020838503121561266a575f80fd5b82356001600160401b0381111561267f575f80fd5b61268b85828601612428565b90969095509350505050565b5f805f80604085870312156126aa575f80fd5b84356001600160401b038111156126bf575f80fd5b8501601f810187136126cf575f80fd5b80356001600160401b038111156126e4575f80fd5b8760208260061b84010111156126f8575f80fd5b6020918201955093508501356001600160401b038111156124c1575f80fd5b5f805f805f60a0868803121561272b575f80fd5b612734866122fe565b9450612742602087016122fe565b9350612750604087016122fe565b925061275e606087016122fe565b915060808601356001600160401b03811115612778575f80fd5b8601601f81018813612788575f80fd5b80356001600160401b038111156127a1576127a1612352565b8060051b6127b160208201612366565b9182526020818401810192908101908b8411156127cc575f80fd5b6020850194505b838510156127f5576127e4856122fe565b8252602094850194909101906127d3565b80955050505050509295509295909350565b634e487b7160e01b5f52601160045260245ffd5b8181038181111561121e5761121e612807565b634e487b7160e01b5f52603260045260245ffd5b5f8235607e19833603018112612856575f80fd5b9190910192915050565b5f81518060208401855e5f93019283525090919050565b5f6128828285612860565b9283525050602001919050565b6001600160801b0381811683821602908116908181146128b1576128b1612807565b5092915050565b6001600160801b03818116838216019081111561121e5761121e612807565b5f600182016128e8576128e8612807565b5060010190565b81835281816020850137505f828201602090810191909152601f909101601f19169091010190565b6001600160a01b03861681526080602082018190525f9061293b90830186886128ef565b6001600160801b03948516604084015292909316606090910152949350505050565b801515811461101f575f80fd5b5f6020828403121561297a575f80fd5b813561175b8161295d565b808202811582820484141761121e5761121e612807565b8082018082111561121e5761121e612807565b5f826129c957634e487b7160e01b5f52601260045260245ffd5b500490565b5f808335601e198436030181126129e3575f80fd5b8301803591506001600160401b038211156129fc575f80fd5b6020019150600581901b3603821315612468575f80fd5b5f823560be19833603018112612856575f80fd5b5f808335601e19843603018112612a3c575f80fd5b8301803591506001600160401b03821115612a55575f80fd5b602001915036819003821315612468575f80fd5b5f60208284031215612a79575f80fd5b815161175b8161295d565b5f81612a9257612a92612807565b505f190190565b5f808335601e19843603018112612aae575f80fd5b8301803591506001600160401b03821115612ac7575f80fd5b6020019150606081023603821315612468575f80fd5b5f61144f612aeb8386612860565b84612860565b8581526001600160a01b03851660208201526080604082018190525f90612b1b90830185876128ef565b90506001600160801b03831660608301529695505050505050565b5f60208284031215612b46575f80fd5b81356001600160e01b03198116811461175b575f80fd5b6001600160a01b038716815260a0602082018190525f90612b8190830187896128ef565b6001600160801b039590951660408301525060608101929092526001600160e01b0319166080909101529392505050565b601960f81b8152606083901b6001600160601b03191660028201525f61144f6016830184612860565b8781526bffffffffffffffffffffffff198760601b1660208201528486603483013760809390931b6001600160801b0319166034949093019384019290925260448301526001600160e01b0319166064820152606801939250505056fea2646970667358221220c34d59445776c773c2cd012131068cbc7cd7c42b90ac1cfd23368df9e40c16d364736f6c634300081a0033","linkReferences":{}},"methodIdentifiers":{"baseFee()":"6ef25c3a","baseWeight()":"d3fd6364","codeState(bytes32)":"c13911e8","commitBlocks((bytes32,bytes32,bytes32,(address,bytes32,bytes32,uint128,(bytes32,address,uint128)[],(bytes32,address,bytes,uint128,(bytes32,bytes4))[])[])[],bytes[])":"62281979","commitCodes((bytes32,bool)[],bytes[])":"e97d3eb3","createProgram(bytes32,bytes32,bytes,uint128)":"8074b455","genesisBlockHash()":"28e24b3d","getStorageSlot()":"96708226","initialize(address,address,address,address,address[])":"f8453e7c","lastBlockCommitmentHash()":"2dacfb69","mirror()":"444d9172","mirrorProxy()":"78ee5dec","owner()":"8da5cb5b","programExists(address)":"02e55897","programsCount()":"96a2ddfa","renounceOwnership()":"715018a6","requestCodeValidation(bytes32,bytes32)":"1c149d8a","setBaseWeight(uint64)":"8028861a","setMirror(address)":"3d43b418","setStorageSlot(string)":"5686cad5","setValuePerWeight(uint128)":"a6bbbe1c","signingThresholdPercentage()":"efd81abc","transferOwnership(address)":"f2fde38b","updateValidators(address[])":"e71731e4","validatedCodesCount()":"007a32e7","validatorExists(address)":"8febbd59","validators()":"ca1e7819","validatorsCount()":"ed612f8c","validatorsThreshold()":"edc87225","valuePerWeight()":"0834fecc","wrappedVara()":"88f50cf0"},"storageLayout":{"storage":[],"types":{}},"id":78}