{"abi":[{"type":"constructor","inputs":[],"stateMutability":"nonpayable"},{"type":"receive","stateMutability":"payable"},{"type":"function","name":"areValidators","inputs":[{"name":"_validators","type":"address[]","internalType":"address[]"}],"outputs":[{"name":"","type":"bool","internalType":"bool"}],"stateMutability":"view"},{"type":"function","name":"codeState","inputs":[{"name":"_codeId","type":"bytes32","internalType":"bytes32"}],"outputs":[{"name":"","type":"uint8","internalType":"enum Gear.CodeState"}],"stateMutability":"view"},{"type":"function","name":"codesStates","inputs":[{"name":"_codesIds","type":"bytes32[]","internalType":"bytes32[]"}],"outputs":[{"name":"","type":"uint8[]","internalType":"enum Gear.CodeState[]"}],"stateMutability":"view"},{"type":"function","name":"commitBatch","inputs":[{"name":"_batch","type":"tuple","internalType":"struct Gear.BatchCommitment","components":[{"name":"blockHash","type":"bytes32","internalType":"bytes32"},{"name":"blockTimestamp","type":"uint48","internalType":"uint48"},{"name":"previousCommittedBatchHash","type":"bytes32","internalType":"bytes32"},{"name":"chainCommitment","type":"tuple[]","internalType":"struct Gear.ChainCommitment[]","components":[{"name":"transitions","type":"tuple[]","internalType":"struct Gear.StateTransition[]","components":[{"name":"actorId","type":"address","internalType":"address"},{"name":"newStateHash","type":"bytes32","internalType":"bytes32"},{"name":"exited","type":"bool","internalType":"bool"},{"name":"inheritor","type":"address","internalType":"address"},{"name":"valueToReceive","type":"uint128","internalType":"uint128"},{"name":"valueToReceiveNegativeSign","type":"bool","internalType":"bool"},{"name":"valueClaims","type":"tuple[]","internalType":"struct Gear.ValueClaim[]","components":[{"name":"messageId","type":"bytes32","internalType":"bytes32"},{"name":"destination","type":"address","internalType":"address"},{"name":"value","type":"uint128","internalType":"uint128"}]},{"name":"messages","type":"tuple[]","internalType":"struct Gear.Message[]","components":[{"name":"id","type":"bytes32","internalType":"bytes32"},{"name":"destination","type":"address","internalType":"address"},{"name":"payload","type":"bytes","internalType":"bytes"},{"name":"value","type":"uint128","internalType":"uint128"},{"name":"replyDetails","type":"tuple","internalType":"struct Gear.ReplyDetails","components":[{"name":"to","type":"bytes32","internalType":"bytes32"},{"name":"code","type":"bytes4","internalType":"bytes4"}]},{"name":"call","type":"bool","internalType":"bool"}]}]},{"name":"head","type":"bytes32","internalType":"bytes32"}]},{"name":"codeCommitments","type":"tuple[]","internalType":"struct Gear.CodeCommitment[]","components":[{"name":"id","type":"bytes32","internalType":"bytes32"},{"name":"valid","type":"bool","internalType":"bool"}]},{"name":"rewardsCommitment","type":"tuple[]","internalType":"struct Gear.RewardsCommitment[]","components":[{"name":"operators","type":"tuple","internalType":"struct Gear.OperatorRewardsCommitment","components":[{"name":"amount","type":"uint256","internalType":"uint256"},{"name":"root","type":"bytes32","internalType":"bytes32"}]},{"name":"stakers","type":"tuple","internalType":"struct Gear.StakerRewardsCommitment","components":[{"name":"distribution","type":"tuple[]","internalType":"struct Gear.StakerRewards[]","components":[{"name":"vault","type":"address","internalType":"address"},{"name":"amount","type":"uint256","internalType":"uint256"}]},{"name":"totalAmount","type":"uint256","internalType":"uint256"},{"name":"token","type":"address","internalType":"address"}]},{"name":"timestamp","type":"uint48","internalType":"uint48"}]},{"name":"validatorsCommitment","type":"tuple[]","internalType":"struct Gear.ValidatorsCommitment[]","components":[{"name":"aggregatedPublicKey","type":"tuple","internalType":"struct Gear.AggregatedPublicKey","components":[{"name":"x","type":"uint256","internalType":"uint256"},{"name":"y","type":"uint256","internalType":"uint256"}]},{"name":"verifiableSecretSharingCommitment","type":"bytes","internalType":"bytes"},{"name":"validators","type":"address[]","internalType":"address[]"},{"name":"eraIndex","type":"uint256","internalType":"uint256"}]}]},{"name":"_signatureType","type":"uint8","internalType":"enum Gear.SignatureType"},{"name":"_signatures","type":"bytes[]","internalType":"bytes[]"}],"outputs":[],"stateMutability":"nonpayable"},{"type":"function","name":"computeSettings","inputs":[],"outputs":[{"name":"","type":"tuple","internalType":"struct Gear.ComputationSettings","components":[{"name":"threshold","type":"uint64","internalType":"uint64"},{"name":"wvaraPerSecond","type":"uint128","internalType":"uint128"}]}],"stateMutability":"view"},{"type":"function","name":"createProgram","inputs":[{"name":"_codeId","type":"bytes32","internalType":"bytes32"},{"name":"_salt","type":"bytes32","internalType":"bytes32"},{"name":"_overrideInitializer","type":"address","internalType":"address"}],"outputs":[{"name":"","type":"address","internalType":"address"}],"stateMutability":"nonpayable"},{"type":"function","name":"createProgramWithAbiInterface","inputs":[{"name":"_codeId","type":"bytes32","internalType":"bytes32"},{"name":"_salt","type":"bytes32","internalType":"bytes32"},{"name":"_overrideInitializer","type":"address","internalType":"address"},{"name":"_abiInterface","type":"address","internalType":"address"}],"outputs":[{"name":"","type":"address","internalType":"address"}],"stateMutability":"nonpayable"},{"type":"function","name":"genesisBlockHash","inputs":[],"outputs":[{"name":"","type":"bytes32","internalType":"bytes32"}],"stateMutability":"view"},{"type":"function","name":"genesisTimestamp","inputs":[],"outputs":[{"name":"","type":"uint48","internalType":"uint48"}],"stateMutability":"view"},{"type":"function","name":"initialize","inputs":[{"name":"_owner","type":"address","internalType":"address"},{"name":"_mirror","type":"address","internalType":"address"},{"name":"_wrappedVara","type":"address","internalType":"address"},{"name":"_middleware","type":"address","internalType":"address"},{"name":"_eraDuration","type":"uint256","internalType":"uint256"},{"name":"_electionDuration","type":"uint256","internalType":"uint256"},{"name":"_validationDelay","type":"uint256","internalType":"uint256"},{"name":"_aggregatedPublicKey","type":"tuple","internalType":"struct Gear.AggregatedPublicKey","components":[{"name":"x","type":"uint256","internalType":"uint256"},{"name":"y","type":"uint256","internalType":"uint256"}]},{"name":"_verifiableSecretSharingCommitment","type":"bytes","internalType":"bytes"},{"name":"_validators","type":"address[]","internalType":"address[]"}],"outputs":[],"stateMutability":"nonpayable"},{"type":"function","name":"isValidator","inputs":[{"name":"_validator","type":"address","internalType":"address"}],"outputs":[{"name":"","type":"bool","internalType":"bool"}],"stateMutability":"view"},{"type":"function","name":"latestCommittedBatchHash","inputs":[],"outputs":[{"name":"","type":"bytes32","internalType":"bytes32"}],"stateMutability":"view"},{"type":"function","name":"latestCommittedBatchTimestamp","inputs":[],"outputs":[{"name":"","type":"uint48","internalType":"uint48"}],"stateMutability":"view"},{"type":"function","name":"lookupGenesisHash","inputs":[],"outputs":[],"stateMutability":"nonpayable"},{"type":"function","name":"middleware","inputs":[],"outputs":[{"name":"","type":"address","internalType":"address"}],"stateMutability":"view"},{"type":"function","name":"mirrorImpl","inputs":[],"outputs":[{"name":"","type":"address","internalType":"address"}],"stateMutability":"view"},{"type":"function","name":"owner","inputs":[],"outputs":[{"name":"","type":"address","internalType":"address"}],"stateMutability":"view"},{"type":"function","name":"programCodeId","inputs":[{"name":"_programId","type":"address","internalType":"address"}],"outputs":[{"name":"","type":"bytes32","internalType":"bytes32"}],"stateMutability":"view"},{"type":"function","name":"programsCodeIds","inputs":[{"name":"_programsIds","type":"address[]","internalType":"address[]"}],"outputs":[{"name":"","type":"bytes32[]","internalType":"bytes32[]"}],"stateMutability":"view"},{"type":"function","name":"programsCount","inputs":[],"outputs":[{"name":"","type":"uint256","internalType":"uint256"}],"stateMutability":"view"},{"type":"function","name":"reinitialize","inputs":[],"outputs":[],"stateMutability":"nonpayable"},{"type":"function","name":"renounceOwnership","inputs":[],"outputs":[],"stateMutability":"nonpayable"},{"type":"function","name":"requestCodeValidation","inputs":[{"name":"_codeId","type":"bytes32","internalType":"bytes32"}],"outputs":[],"stateMutability":"nonpayable"},{"type":"function","name":"setMirror","inputs":[{"name":"newMirror","type":"address","internalType":"address"}],"outputs":[],"stateMutability":"nonpayable"},{"type":"function","name":"signingThresholdPercentage","inputs":[],"outputs":[{"name":"","type":"uint16","internalType":"uint16"}],"stateMutability":"view"},{"type":"function","name":"timelines","inputs":[],"outputs":[{"name":"","type":"tuple","internalType":"struct Gear.Timelines","components":[{"name":"era","type":"uint256","internalType":"uint256"},{"name":"election","type":"uint256","internalType":"uint256"},{"name":"validationDelay","type":"uint256","internalType":"uint256"}]}],"stateMutability":"view"},{"type":"function","name":"transferOwnership","inputs":[{"name":"newOwner","type":"address","internalType":"address"}],"outputs":[],"stateMutability":"nonpayable"},{"type":"function","name":"validatedCodesCount","inputs":[],"outputs":[{"name":"","type":"uint256","internalType":"uint256"}],"stateMutability":"view"},{"type":"function","name":"validators","inputs":[],"outputs":[{"name":"","type":"address[]","internalType":"address[]"}],"stateMutability":"view"},{"type":"function","name":"validatorsAggregatedPublicKey","inputs":[],"outputs":[{"name":"","type":"tuple","internalType":"struct Gear.AggregatedPublicKey","components":[{"name":"x","type":"uint256","internalType":"uint256"},{"name":"y","type":"uint256","internalType":"uint256"}]}],"stateMutability":"view"},{"type":"function","name":"validatorsCount","inputs":[],"outputs":[{"name":"","type":"uint256","internalType":"uint256"}],"stateMutability":"view"},{"type":"function","name":"validatorsThreshold","inputs":[],"outputs":[{"name":"","type":"uint256","internalType":"uint256"}],"stateMutability":"view"},{"type":"function","name":"validatorsVerifiableSecretSharingCommitment","inputs":[],"outputs":[{"name":"","type":"bytes","internalType":"bytes"}],"stateMutability":"view"},{"type":"function","name":"wrappedVara","inputs":[],"outputs":[{"name":"","type":"address","internalType":"address"}],"stateMutability":"view"},{"type":"event","name":"AnnouncesCommitted","inputs":[{"name":"head","type":"bytes32","indexed":false,"internalType":"bytes32"}],"anonymous":false},{"type":"event","name":"BatchCommitted","inputs":[{"name":"hash","type":"bytes32","indexed":false,"internalType":"bytes32"}],"anonymous":false},{"type":"event","name":"CodeGotValidated","inputs":[{"name":"codeId","type":"bytes32","indexed":false,"internalType":"bytes32"},{"name":"valid","type":"bool","indexed":true,"internalType":"bool"}],"anonymous":false},{"type":"event","name":"CodeValidationRequested","inputs":[{"name":"codeId","type":"bytes32","indexed":false,"internalType":"bytes32"}],"anonymous":false},{"type":"event","name":"ComputationSettingsChanged","inputs":[{"name":"threshold","type":"uint64","indexed":false,"internalType":"uint64"},{"name":"wvaraPerSecond","type":"uint128","indexed":false,"internalType":"uint128"}],"anonymous":false},{"type":"event","name":"Initialized","inputs":[{"name":"version","type":"uint64","indexed":false,"internalType":"uint64"}],"anonymous":false},{"type":"event","name":"OwnershipTransferred","inputs":[{"name":"previousOwner","type":"address","indexed":true,"internalType":"address"},{"name":"newOwner","type":"address","indexed":true,"internalType":"address"}],"anonymous":false},{"type":"event","name":"ProgramCreated","inputs":[{"name":"actorId","type":"address","indexed":false,"internalType":"address"},{"name":"codeId","type":"bytes32","indexed":true,"internalType":"bytes32"}],"anonymous":false},{"type":"event","name":"StorageSlotChanged","inputs":[],"anonymous":false},{"type":"event","name":"ValidatorsCommittedForEra","inputs":[{"name":"eraIndex","type":"uint256","indexed":false,"internalType":"uint256"}],"anonymous":false},{"type":"error","name":"ECDSAInvalidSignature","inputs":[]},{"type":"error","name":"ECDSAInvalidSignatureLength","inputs":[{"name":"length","type":"uint256","internalType":"uint256"}]},{"type":"error","name":"ECDSAInvalidSignatureS","inputs":[{"name":"s","type":"bytes32","internalType":"bytes32"}]},{"type":"error","name":"InvalidInitialization","inputs":[]},{"type":"error","name":"NotInitializing","inputs":[]},{"type":"error","name":"OwnableInvalidOwner","inputs":[{"name":"owner","type":"address","internalType":"address"}]},{"type":"error","name":"OwnableUnauthorizedAccount","inputs":[{"name":"account","type":"address","internalType":"address"}]},{"type":"error","name":"ReentrancyGuardReentrantCall","inputs":[]}],"bytecode":{"object":"0x6080806040523460aa575f5160206145075f395f51905f525460ff8160401c16609b576002600160401b03196001600160401b038216016049575b60405161445890816100af8239f35b6001600160401b0319166001600160401b039081175f5160206145075f395f51905f525581527fc7f505b2f371ae2175ee4913f4499e1f2633a7b5936321eed1cdaeb6115181d290602090a15f80603a565b63f92ee8a960e01b5f5260045ffd5b5f80fdfe608080604052600436101561010a575b50361561001a575f80fd5b5f5160206144185f395f51905f525461003860018201541515612540565b6001600160801b033416156100ba57335f908152601a9190910160205260409020541561006157005b60405162461bcd60e51b815260206004820152602b60248201527f636f756c646e277420726563656976652045746865722066726f6d20756e6b6e60448201526a6f776e2070726f6772616d60a81b6064820152608490fd5b60405162461bcd60e51b815260206004820152602260248201527f7a65726f2076616c7565207472616e73666572206973206e6f7420616c6c6f77604482015261195960f21b6064820152608490fd5b5f905f3560e01c9081627a32e714612418575080630c18d27714611f20578063120e3f1e14611d9457806328e24b3d14611d665780633683c4d214611ad95780633bd109fa14611a8a5780633d43b41814611a3657806353f7fd48146114b15780636c2eb3501461115f578063715018a6146110f657806371a8cf2d146110c857806382bdeaad14610fb057806384d22a4f14610f4757806388f50cf014610f0e5780638b1edf1e14610e435780638da5cb5b14610e0e5780638f381dbe14610dc85780639067088e14610d7f57806396a2ddfa14610d515780639eb939a814610ce5578063a5d53a4414610c77578063af947bf81461066a578063baaf020114610569578063c13911e814610525578063ca1e7819146104a2578063cacf66ab1461046a578063d456fd5114610434578063e6fabc09146103fb578063ed612f8c146103c3578063edc8722514610379578063efd81abc14610347578063f2fde38b1461031a578063f4f20ac0146102e15763facd743b0361000f57346102de5760203660031901126102de576102a061246e565b60036102bb5f5160206144185f395f51905f52544290613f5d565b019060018060a01b03165f52602052602060ff60405f2054166040519015158152f35b80fd5b50346102de57806003193601126102de575f5160206144185f395f51905f5254600701546040516001600160a01b039091168152602090f35b50346102de5760203660031901126102de5761034461033761246e565b61033f6128ba565b61283b565b80f35b50346102de57806003193601126102de57602061ffff60085f5160206144185f395f51905f5254015416604051908152f35b50346102de57806003193601126102de5760206103bb5f5160206144185f395f51905f525461ffff600860046103af4285613f5d565b01549201541690613f3b565b604051908152f35b50346102de57806003193601126102de57602060046103f15f5160206144185f395f51905f52544290613f5d565b0154604051908152f35b50346102de57806003193601126102de575f5160206144185f395f51905f5254600501546040516001600160a01b039091168152602090f35b50346102de57806003193601126102de57602065ffffffffffff60045f5160206144185f395f51905f5254015416604051908152f35b50346102de57806003193601126102de57602065ffffffffffff60025f5160206144185f395f51905f52540154821c16604051908152f35b50346102de57806003193601126102de576104d760046104d15f5160206144185f395f51905f52544290613f5d565b016126ff565b90604051918291602083016020845282518091526020604085019301915b818110610503575050500390f35b82516001600160a01b03168452859450602093840193909201916001016104f5565b50346102de5760203660031901126102de5760ff604060209260195f5160206144185f395f51905f5254016004358252845220541661056760405180926124c8565bf35b50346102de5760203660031901126102de576004356001600160401b0381116106665761059a903690600401612498565b905f5160206144185f395f51905f5254906105b483612694565b916105c2604051938461251f565b8383526105ce84612694565b602084019490601f1901368637601a869201915b81811061062d57868587604051928392602084019060208552518091526040840192915b818110610614575050500390f35b8251845285945060209384019390920191600101610606565b8061064361063e6001938588612752565b61278a565b828060a01b03165f528360205260405f205461065f8288612776565b52016105e2565b5080fd5b50346102de5760603660031901126102de576004356001600160401b03811161066657806004019160e060031983360301126102de57602435926002841015610666576044356001600160401b038111610c73576106cc903690600401612498565b92907f9b779b17422d0df92223018b32b4d1fa46e071723d6817e2486d003becc55f005c610c645760017f9b779b17422d0df92223018b32b4d1fa46e071723d6817e2486d003becc55f005d5f5160206144185f395f51905f52549261073760018501541515612540565b835415610b96575b60038401948554926044880135809403610b4357600486019865ffffffffffff8a54169760248a019865ffffffffffff6107788b612828565b1610610ac35760849a999861078d868a612c6a565b9a606097899d8e9c019860198c019c5b6107a78b8b6131cb565b919050101561096f578e6107bb8b8b6131cb565b9091101561095b578f60ff8f926040908f9360061b01928335948582526020522054166003811015610947576001036108e45760408f918f928f93602083019461080486613200565b156108cc57601c928782526020528481209050600260ff198254161790550161082d81546128ac565b90555b61083983613200565b15157f460119a8f69a33ed127de517d5ea464e958ce23ef19e4420a8b92bf780bbc2c960208451878152a23603126108c857916108bf91602060019461088d6040519161088583612504565b84835261320d565b91829101526040519060208201928352151560f81b6040820152602181526108b660418261251f565b5190209061321a565b9e019d8e61079d565b8c80fd5b905083918682526020522060ff198154169055610830565b60405162461bcd60e51b815260206004820152603560248201527f636f6465206d7573742062652072657175657374656420666f722076616c6964604482015274185d1a5bdb881d1bc818994818dbdb5b5a5d1d1959605a1b6064820152608490fd5b634e487b7160e01b8e52602160045260248efd5b634e487b7160e01b8c52603260045260248cfd5b610a5399509160208c998f9365ffffffffffff96948c610a4c978581519101206109a38561099d8185613269565b9361377c565b926109ad89612828565b9460405195888701973588528c60d01b9060d01b16604087015260468601526066850152608684015260a683015260c682015260c681526109ef60e68261251f565b51902080966109fd85612828565b8760405191610a0b83612504565b8483521693849101525584198254161790557f7ebe42360bcb182fe0a88148b081e4557c89d09aa6af8307635ac2f83e2aaa656020604051868152a1612828565b1694613b9c565b15610a7e57807f9b779b17422d0df92223018b32b4d1fa46e071723d6817e2486d003becc55f005d80f35b60405162461bcd60e51b815260206004820152601e60248201527f7369676e61747572657320766572696669636174696f6e206661696c656400006044820152606490fd5b60405162461bcd60e51b815260206004820152604c60248201527f62617463682074696d657374616d70206d75737420626520677265617465722060448201527f6f7220657175616c20746f206c617465737420636f6d6d69747465642062617460648201526b063682074696d657374616d760a41b608482015260a490fd5b60405162461bcd60e51b815260206004820152602560248201527f696e76616c69642070726576696f757320636f6d6d6974746564206261746368604482015264040d0c2e6d60db1b6064820152608490fd5b610ba08135612bf8565b15610c105765ffffffffffff610bb860248801612828565b16421161073f5760405162461bcd60e51b815260206004820152602360248201527f62617463682074696d657374616d70206d75737420626520696e207468652070604482015262185cdd60ea1b6064820152608490fd5b60405162461bcd60e51b815260206004820152602660248201527f616c6c6f776564207072656465636573736f7220626c6f636b207761736e277460448201526508199bdd5b9960d21b6064820152608490fd5b633ee5aeb560e01b8252600482fd5b8280fd5b50346102de57806003193601126102de576040610cb85f5160206144185f395f51905f52546002610cb060018060a01b03924290613f5d565b015416612bc9565b6020825193849282845280519283918282870152018585015e828201840152601f01601f19168101030190f35b50346102de57806003193601126102de57610cfe61280a565b5060605f5160206144185f395f51905f5254604051610d1c816124d5565b601682015491828252604060186017830154926020850193845201549201918252604051928352516020830152516040820152f35b50346102de57806003193601126102de576020601b5f5160206144185f395f51905f52540154604051908152f35b50346102de5760203660031901126102de57610d9961246e565b601a5f5160206144185f395f51905f5254019060018060a01b03165f52602052602060405f2054604051908152f35b50346102de5760203660031901126102de57600435906001600160401b0382116102de576020610e04610dfe3660048601612498565b9061279e565b6040519015158152f35b50346102de57806003193601126102de575f5160206143f85f395f51905f52546040516001600160a01b039091168152602090f35b50346102de57806003193601126102de575f5160206144185f395f51905f525460018101908154610ec9576002015463ffffffff1640908115610e84575580f35b60405162461bcd60e51b815260206004820152601d60248201527f756e61626c6520746f206c6f6f6b75702067656e6573697320686173680000006044820152606490fd5b60405162461bcd60e51b815260206004820152601860248201527f67656e65736973206861736820616c72656164792073657400000000000000006044820152606490fd5b50346102de57806003193601126102de575f5160206144185f395f51905f5254600601546040516001600160a01b039091168152602090f35b50346102de57806003193601126102de57610f606125b2565b50604060155f5160206144185f395f51905f5254016001600160801b03825191610f8983612504565b548160206001600160401b038316948581520191851c168152835192835251166020820152f35b50346102de5760203660031901126102de576004356001600160401b03811161066657610fe1903690600401612498565b905f5160206144185f395f51905f525490610ffb83612694565b91611009604051938461251f565b83835261101584612694565b602084019490601f19013686376019869201915b81811061107e57868587604051928392602084019060208552518091526040840192915b81811061105b575050500390f35b919350916020808261107060019488516124c8565b01940191019184939261104d565b611089818386612752565b3587528260205260ff6040882054166110a28287612776565b60038210156110b45752600101611029565b634e487b7160e01b89526021600452602489fd5b50346102de57806003193601126102de57602060035f5160206144185f395f51905f52540154604051908152f35b50346102de57806003193601126102de5761110f6128ba565b5f5160206143f85f395f51905f5280546001600160a01b0319811690915581906001600160a01b03167f8be0079c531659141344cd1fd0a4f28419497f9722a3daafe3b4186f6b6457e08280a380f35b50346102de57806003193601126102de576111786128ba565b5f5160206144385f395f51905f525460ff8160401c1690811561149c575b5061148d575f5160206144385f395f51905f52805468ffffffffffffffffff1916680100000000000000021790555f5160206143f85f395f51905f52546111f0906001600160a01b03166111e8613f79565b61033f613f79565b5f5160206144185f395f51905f5254604090815161120e838261251f565b6017815260208101907f726f757465722e73746f726167652e526f75746572563200000000000000000082526112426128ba565b5190205f19810190811161147957916020917fc7f505b2f371ae2175ee4913f4499e1f2633a7b5936321eed1cdaeb6115181d29382519084820190815284825261128c848361251f565b60ff19915190201690815f5160206144185f395f51905f52556112ad6128ed565b80516001840155600283019063ffffffff868201511669ffffffffffff00000000868454930151881b169169ffffffffffffffffffff19161717905560058101600583019080820361142b575b505061ffff600882015416600883019061ffff198254161790556113636113214283613f5d565b6113386001600160a01b036002610cb04287613f5d565b61134e60046113474287613f5d565b01926125ca565b9061135942936126ff565b9160098701612935565b6015810160158301908082036113d9575b50506016810160168301918183036113b9575b5050505060ff60401b195f5160206144385f395f51905f5254165f5160206144385f395f51905f52555160028152a180f35b60189283925490556017810154601785015501549101555f808080611387565b806001600160401b03806001600160801b03935416166001600160401b031984541617835554851c16600160401b600160c01b03825491861b1690600160401b600160c01b0319161790555f80611374565b5481546001600160a01b03199081166001600160a01b039283161790925560068381015490850180548416918316919091179055600780840154908501805490931691161790555f806112fa565b634e487b7160e01b84526011600452602484fd5b63f92ee8a960e01b8152600490fd5b600291506001600160401b031610155f611196565b50346102de576101603660031901126102de576114cc61246e565b6024356001600160a01b0381169190829003610c73576114ea612442565b6114f2612458565b60c435916084359160a43560403660e3190112611a325761012435946001600160401b038611611a2e5736602387011215611a2e578560040135916001600160401b038311611a2a573660248489010111611a2a57610144356001600160401b038111611a2657611567903690600401612498565b9690945f5160206144385f395f51905f5254996001600160401b0360ff8c60401c16159b1680159081611a1e575b6001149081611a14575b159081611a0b575b506119fc576115e9908b60016001600160401b03195f5160206144385f395f51905f525416175f5160206144385f395f51905f52556119cc575b6111e8613f79565b6115f1613f79565b421561197657821561192057828211156118bf57600a61161184846125e8565b0484101561187a5760409a8b516116288d8261251f565b6017815260208101907f726f757465722e73746f726167652e526f757465725631000000000000000000825261165c6128ba565b5190205f198101908111611866578c51602080820192835281528d939291611684858361251f565b60ff19915190201698895f5160206144185f395f51905f52556116a56128ed565b805160018c015560028b0190602081015163ffffffff1686835492015160201b69ffffffffffff00000000169169ffffffffffffffffffff1916171790558351906116ef826124d5565b8282526001600160a01b03908116602083018190529381169490910184905260058a018054919092166001600160a01b0319918216179091556006890180548216909217909155600788018054909116909117905560088601805461ffff1916611a0a17905561175d6125b2565b50895161176981612504565b639502f90081526509184e72a0006020909101526015860180546001600160c01b0319166d09184e72a000000000009502f900179055895183908b906117ae816124d5565b83815284602082015201526016860155601785015560188401558651946117d486612504565b60e43586526101043560208701526117f091369160240161264f565b90429336906117fe926126ab565b916009019361180c94612935565b611814575080f35b60207fc7f505b2f371ae2175ee4913f4499e1f2633a7b5936321eed1cdaeb6115181d29160ff60401b195f5160206144385f395f51905f5254165f5160206144385f395f51905f52555160018152a180f35b634e487b7160e01b8e52601160045260248efd5b60405162461bcd60e51b815260206004820152601b60248201527f76616c69646174696f6e2064656c617920697320746f6f2062696700000000006044820152606490fd5b60405162461bcd60e51b815260206004820152603360248201527f657261206475726174696f6e206d757374206265206772656174657220746861604482015272371032b632b1ba34b7b710323ab930ba34b7b760691b6064820152608490fd5b60405162461bcd60e51b815260206004820152602860248201527f656c656374696f6e206475726174696f6e206d75737420626520677265617465604482015267072207468616e20360c41b6064820152608490fd5b60405162461bcd60e51b815260206004820152602860248201527f63757272656e742074696d657374616d70206d75737420626520677265617465604482015267072207468616e20360c41b6064820152608490fd5b600160401b60ff60401b195f5160206144385f395f51905f525416175f5160206144385f395f51905f52556115e1565b63f92ee8a960e01b8d5260048dfd5b9050155f6115a7565b303b15915061159f565b8c9150611595565b8a80fd5b8980fd5b8880fd5b8780fd5b50346102de5760203660031901126102de57611a5061246e565b611a586128ba565b5f5160206144185f395f51905f525460050180546001600160a01b0319166001600160a01b0390921691909117905580f35b50346102de57806003193601126102de57611aa36125b2565b506040611ac7611ac25f5160206144185f395f51905f52544290613f5d565b6125ca565b60208251918051835201516020820152f35b50346102de5760603660031901126102de57600435611af6612442565b5f5160206144185f395f51905f5254611b1460018201541515612540565b8284526019810160205260ff6040852054166003811015611d5257600203611cf6576040516020810190848252602435604082015260408152611b5860608261251f565b51902060405160608101908082106001600160401b03831117611cf257605a916040527f3d605080600a3d3981f3608060405263e6fabc0960e01b5f5260205f6004817381523060601b6b5afa15604c575f80805136821760208201527f80378136915af43d5f803e156048573d5ff35b3d5ffd5b5f80fd000000000000604082015286f5908115611cee576001600160a01b0382165f908152601a820160205260409020849055601b018054611c0e906128ac565b90556040516001600160a01b03821680825293907f8008ec1d8798725ebfa0f2d128d52e8e717dcba6e0f786557eeee70614b02bf190602090a2506001600160a01b038116611ce95750335b5f5160206144185f395f51905f5254600501546001600160a01b0316823b15611ce557604051631c9776b560e31b81526001600160a01b039092166004830152602482015260016044820152828160648183865af18015611cda57611cc5575b602082604051908152f35b611cd083809261251f565b6106665781611cba565b6040513d85823e3d90fd5b8380fd5b611c5a565b8480fd5b8680fd5b60405162461bcd60e51b815260206004820152602e60248201527f636f6465206d7573742062652076616c696461746564206265666f726520707260448201526d37b3b930b69031b932b0ba34b7b760911b6064820152608490fd5b634e487b7160e01b85526021600452602485fd5b50346102de57806003193601126102de57602060015f5160206144185f395f51905f52540154604051908152f35b50346102de5760203660031901126102de57600435814915611ea45760195f5160206144185f395f51905f5254611dd060018201541515612540565b018183528060205260ff6040842054166003811015611e9057611e2f5781835260209081526040808420805460ff19166001179055519182527f5c261a095dd5720475295dc06379921c003c22164ee6cae5cf83e76ce0a1b98591a180f35b60405162461bcd60e51b815260206004820152603360248201527f676976656e20636f646520696420697320616c7265616479206f6e2076616c6960448201527219185d1a5bdb881bdc881d985b1a59185d1959606a1b6064820152608490fd5b634e487b7160e01b84526021600452602484fd5b60405162461bcd60e51b815260206004820152604860248201527f626c6f622063616e277420626520666f756e642c20726f75746572206578706560448201527f63746564204549502d34383434207472616e73616374696f6e2077697468205760648201526720a9a690313637b160c11b608482015260a490fd5b346123fa5760803660031901126123fa57600435611f3c612442565b90611f45612458565b915f5160206144185f395f51905f5254611f6460018201541515612540565b825f526019810160205260ff60405f205416600381101561240457600203611cf6576040516020810190848252602435604082015260408152611fa860608261251f565b5190206040516102c08101908082106001600160401b038311176123fa576102b0916040527f60808060405261029e90816100128239f3fe608060405260043610610254575f81527f3560e01c806336a52a18146100ab57806342129d00146100a65780635ce6c32760208201527f146100a1578063701da98e1461009c578063704ed542146100975780637a8e0c60408201527fdd1461009257806391d5a64c1461008d5780639ce110d714610088578063affe60608201527fd0e0146100835763e43f3433036102545761023f565b610222565b6101fa565b60808201527f6101e4565b6101b1565b610181565b610165565b610143565b610106565b346160a08201527ed4575f3660031901126100d45760025460081c6001600160a01b031660809060c08201527f8152602090f35b5f80fd5b9181601f840112156100d45782359167ffffffffff60e08201527fffffff83116100d457602083818601950101116100d457565b604036600319016101008201527f126100d45760043567ffffffffffffffff81116100d4576101329036906004016101208201527f6100d8565b505060243580151514610254575f80fd5b346100d4575f366003196101408201527f01126100d457602060ff600254166040519015158152f35b346100d4575f36606101608201527f031901126100d45760205f54604051908152f35b346100d457602036600319016101808201527f126100d4576004356fffffffffffffffffffffffffffffffff811614610254576101a08201527f5f80fd5b60403660031901126100d45760243567ffffffffffffffff811161006101c08201527fd4576101dd9036906004016100d8565b5050610254565b346100d457602036606101e08201527f0319011215610254575f80fd5b346100d4575f3660031901126100d4576003546102008201527f6040516001600160a01b039091168152602090f35b346100d4575f36600319016102208201527f126100d4576020600154604051908152f35b346100d4575f36600319011215616102408201523060601c7f0254575f80fd5b63e6fabc0960e01b5f5260205f60048173000000000000000017610260820152735afa156100d4575f808051368280378136915af43060a01b176102808201526f3d5f803e1561029a573d5ff35b3d5ffd60801b6102a08201525ff59081156123fa576001600160a01b0382165f908152601a820160205260409020849055601b01805461233f906128ac565b90556040516001600160a01b03821680825293907f8008ec1d8798725ebfa0f2d128d52e8e717dcba6e0f786557eeee70614b02bf190602090a2506001600160a01b0381166123fe575033915b813b156123fa57604051631c9776b560e31b81526001600160a01b039384166004820152921660248301525f604483018190528260648183855af19182156123ef576020926123df575b50604051908152f35b5f6123e99161251f565b5f6123d6565b6040513d5f823e3d90fd5b5f80fd5b9161238c565b634e487b7160e01b5f52602160045260245ffd5b346123fa575f3660031901126123fa57602090601c5f5160206144185f395f51905f525401548152f35b604435906001600160a01b03821682036123fa57565b606435906001600160a01b03821682036123fa57565b600435906001600160a01b03821682036123fa57565b35906001600160a01b03821682036123fa57565b9181601f840112156123fa578235916001600160401b0383116123fa576020808501948460051b0101116123fa57565b9060038210156124045752565b606081019081106001600160401b038211176124f057604052565b634e487b7160e01b5f52604160045260245ffd5b604081019081106001600160401b038211176124f057604052565b90601f801991011681019081106001600160401b038211176124f057604052565b1561254757565b60405162461bcd60e51b815260206004820152603860248201527f726f757465722067656e65736973206973207a65726f3b2063616c6c20606c6f60448201527f6f6b757047656e657369734861736828296020666972737400000000000000006064820152608490fd5b604051906125bf82612504565b5f6020838281520152565b906040516125d781612504565b602060018294805484520154910152565b919082039182116125f557565b634e487b7160e01b5f52601160045260245ffd5b8115612613570490565b634e487b7160e01b5f52601260045260245ffd5b91908260409103126123fa5760405161263f81612504565b6020808294803584520135910152565b9291926001600160401b0382116124f05760405191612678601f8201601f19166020018461251f565b8294818452818301116123fa578281602093845f960137010152565b6001600160401b0381116124f05760051b60200190565b9291906126b781612694565b936126c5604051958661251f565b602085838152019160051b81019283116123fa57905b8282106126e757505050565b602080916126f484612484565b8152019101906126db565b90604051918281549182825260208201905f5260205f20925f5b81811061273057505061272e9250038361251f565b565b84546001600160a01b0316835260019485019487945060209093019201612719565b91908110156127625760051b0190565b634e487b7160e01b5f52603260045260245ffd5b80518210156127625760209160051b010190565b356001600160a01b03811681036123fa5790565b6127b75f5160206144185f395f51905f52544290613f5d565b600301905f5b8381106127cd5750505050600190565b6127db61063e828685612752565b6001600160a01b03165f9081526020849052604090205460ff1615612802576001016127bd565b505050505f90565b60405190612817826124d5565b5f6040838281528260208201520152565b3565ffffffffffff811681036123fa5790565b6001600160a01b03168015612899575f5160206143f85f395f51905f5280546001600160a01b0319811683179091556001600160a01b03167f8be0079c531659141344cd1fd0a4f28419497f9722a3daafe3b4186f6b6457e05f80a3565b631e4fbdf760e01b5f525f60045260245ffd5b5f1981146125f55760010190565b5f5160206143f85f395f51905f52546001600160a01b031633036128da57565b63118cdaa760e01b5f523360045260245ffd5b6128f561280a565b50604051612902816124d5565b5f815263ffffffff4316602082015265ffffffffffff4216604082015290565b818102929181159184041417156125f557565b9291908051906020810191825170014551231950b75fc4402da1732fc9bebe1982109182612bb8575b505015612b6457518455516001840155604051906129a16021836020808201945f86528051918291018484015e81015f838201520301601f19810184528361251f565b6129de602b604051809360208201956a600b5981380380925939f360a81b87525180918484015e81015f838201520301601f19810183528261251f565b51905ff06001600160a01b03811615612b2b576002830180546001600160a01b0319166001600160a01b039092169190911790555f5b600483018054821015612a52575f90815260208082208301546001600160a01b0316825260038501905260409020805460ff19169055600101612a14565b5050925f5b8451811015612a9b576001906001600160a01b03612a758288612776565b5116828060a01b03165f526003840160205260405f208260ff1982541617905501612a57565b5092600482018151916001600160401b0383116124f057600160401b83116124f0578154838355808410612b05575b50602001905f5260205f205f5b838110612ae8575050505060050155565b82516001600160a01b031681830155602090920191600101612ad7565b825f528360205f2091820191015b818110612b205750612aca565b5f8155600101612b13565b60405162461bcd60e51b81526020600482015260116024820152701111541313d65351539517d19052531151607a1b6044820152606490fd5b60405162461bcd60e51b815260206004820152602660248201527f46524f53542061676772656761746564207075626c6963206b657920697320696044820152651b9d985b1a5960d21b6064820152608490fd5b612bc29250614352565b5f8061295e565b803b905f198201908282116125f55760019060405193603e601f19910116840160405282845260208401903c90565b905f1943014381116125f557805b612c11575b505f9150565b8040838103612c2257506001925050565b15612c30575f190180612c06565b612c0b565b903590601e19813603018212156123fa57018035906001600160401b0382116123fa57602001918160051b360383136123fa57565b90606081016001612c7b8284612c35565b90501161316957612c8c8183612c35565b90501561314257612c9c91612c35565b1561276257803590603e19813603018212156123fa570191612cbe8380612c35565b92906060925f95601a60fe19843603019401945b868810156130df578760051b840135858112156123fa578401612cf48161278a565b6001600160a01b03165f9081526020889052604090205415613082575f608082016001600160801b03612d2682613fa4565b1615158061306f575b61305e575b6001600160a01b03612d458461278a565b604051630427a21d60e11b81526020600482015294911691610124850191906001600160801b0390612dc4906001600160a01b03612d8285612484565b16602489015260208401356044890152612d9e6040850161320d565b151560648901526001600160a01b03612db960608601612484565b166084890152613fb8565b1660a4860152612dd660a0820161320d565b151560c486015236819003601e190160c0820135818112156123fa578201602081359101936001600160401b0382116123fa5760608202360385136123fa57819061010060e48a015252610144870193905f905b8082106130145750505060e0820135908112156123fa5701803560208201926001600160401b0382116123fa578160051b9081360385136123fa5791879594936023198785030161010488015281845260208085019385010194935f9160fe19813603015b848410612f075750505050505050602093916001600160801b03848093039316905af19081156123ef575f91612ed5575b50612ecd9060019261321a565b970196612cd2565b90506020813d8211612eff575b81612eef6020938361251f565b810103126123fa57516001612ec0565b3d9150612ee2565b919395979850919395601f198482030187528735828112156123fa578301602081013582526001600160a01b03612f4060408301612484565b1660208301526060810135603e1936839003018112156123fa578101602081013591906040016001600160401b0383116123fa5782360381136123fa57829060e060408601528160e08601526101008501375f61010083850101526001600160801b03612faf60808301613fb8565b16606084015260a0810135608084015260c081013563ffffffff60e01b81168091036123fa5783602093612ff160e086956101009560a060019a01520161320d565b151560c0830152601f80199101160101990197019401918a989796959391612e8f565b90919460608060019288358152838060a01b0361303360208b01612484565b1660208201526001600160801b0361304d60408b01613fb8565b166040820152019601920190612e2a565b905061306981613fa4565b90612d34565b5061307c60a08401613200565b15612d2f565b60405162461bcd60e51b815260206004820152602f60248201527f636f756c646e277420706572666f726d207472616e736974696f6e20666f722060448201526e756e6b6e6f776e2070726f6772616d60881b6064820152608490fd5b93509450945050602091508181519101209101357fd04cd9af813f6f0b56e9411a6ee6a84eb5ac35a96f0c33d2e3a07d65baa8f4186020604051838152a1604051906020820192835260408201526040815261313c60608261251f565b51902090565b5050507fc5d2460186f7233c927e7db2dcc703c0e500b653ca82273b7bfad8045d85a47090565b60405162461bcd60e51b815260206004820152603460248201527f636861696e436f6d6d69746d656e7420636f756c6420636f6e7461696e206174604482015273081b5bdcdd081bdb994818dbdb5b5a5d1b595b9d60621b6064820152608490fd5b903590601e19813603018212156123fa57018035906001600160401b0382116123fa57602001918160061b360383136123fa57565b3580151581036123fa5790565b359081151582036123fa57565b60208061272e928195946040519682889351918291018585015e820190838201520301808552018361251f565b903590605e19813603018212156123fa570190565b919082018092116125f557565b60a0820160016132798285612c35565b9050116136e05761328a8184612c35565b9050156131425761329b9083612c35565b1561276257803590607e19813603018212156123fa570191606083019060206132c383612828565b91019065ffffffffffff806132d784612828565b1691161015613681576132e982612828565b65ffffffffffff80600286015460201c169116106136265761332f65ffffffffffff6133286133228261331b87612828565b1687613fcc565b93612828565b1684613fcc565b11156135cd576007820154600690920180548435946001600160a01b0394851694604082019391925f916020911660446133758361336d8989613247565b01358b61325c565b604051948593849263095ea7b360e01b84528c600485015260248401525af180156123ef57613596575b505460405163394f179b60e11b81526001600160a01b03909116600482015260248101959095526020818101356044870152856064815f885af19485156123ef575f9561355e575b50906133f291613247565b916133fc82612828565b9260405193637fbe95b560e01b85526040600486015260a48501918035601e19823603018112156123fa578101602081359101936001600160401b0382116123fa578160061b360385136123fa5760606044890152819052869360c485019392915f5b81811061352657505050836020959365ffffffffffff829484895f9601356064860152613495604060018060a01b039201612484565b16608485015216602483015203925af19182156123ef575f926134f0575b506134bd90612828565b6040519160208301938452604083015265ffffffffffff60d01b9060d01b1660608201526046815261313c60668261251f565b9091506020813d60201161351e575b8161350c6020938361251f565b810103126123fa5751906134bd6134b3565b3d91506134ff565b919550919293604080600192838060a01b036135418a612484565b16815260208901356020820152019601910191889594939261345f565b919094506020823d60201161358e575b8161357b6020938361251f565b810103126123fa579051936133f26133e7565b3d915061356e565b6020813d6020116135c5575b816135af6020938361251f565b810103126123fa5751801515811461339f575f80fd5b3d91506135a2565b60405162461bcd60e51b815260206004820152602b60248201527f7265776172647320636f6d6d69746d656e74206d75737420746172676574207060448201526a726576696f75732065726160a81b6064820152608490fd5b60405162461bcd60e51b815260206004820152602d60248201527f7265776172647320636f6d6d69746d656e742074696d657374616d702070726560448201526c64617465732067656e6573697360981b6064820152608490fd5b60405162461bcd60e51b815260206004820152603160248201527f7265776172647320636f6d6d69746d656e742074696d657374616d70206d75736044820152701d08189948199bdc881d1a19481c185cdd607a1b6064820152608490fd5b608460405162461bcd60e51b815260206004820152604060248201527f7265776172647320636f6d6d69746d656e74206d75737420626520656d70747960448201527f206f7220636f6e7461696e73206f6e6c79206f6e6520636f6d6d69746d656e746064820152fd5b903590601e19813603018212156123fa57018035906001600160401b0382116123fa576020019181360383136123fa57565b9060c08101600161378d8284612c35565b905011613b255761379e8183612c35565b905015613142576137ae91612c35565b1561276257803590609e19813603018212156123fa570160608101906137d48282612c35565b905015613ad25765ffffffffffff600284015460201c16916137f683426125e8565b61380560168601548092612609565b93608084013594600181018091116125f5578503613a7a5761382a8561383093612922565b9061325c565b9361383f6017820154866125e8565b4210613a355761384e90613ff4565b9342600586015410156139d5576138a390604084019561389561389d613874898861374a565b9190613880888a612c35565b94909161388d368c612627565b94369161264f565b9336916126ab565b92612935565b7fa1a3b42179ad30022438a1ea333b38eaf4a7329beee5e2b8111c0dcd4e08821c6020604051858152a160a0823603126123fa5760405193608085018581106001600160401b038211176124f0576040526138fe3684612627565b8552356001600160401b0381116123fa57820136601f820112156123fa5761392d90369060208135910161264f565b602085015235906001600160401b0382116123fa570136601f820112156123fa5761395f9036906020813591016126ab565b91826040820152816060820152519160208351930151906040519283926020840195865260408401526060830160208351919301905f5b8181106139b35750505081520380825261313c906020018261251f565b82516001600160a01b0316855286955060209485019490920191600101613996565b60405162461bcd60e51b815260206004820152603260248201527f6c6f6f6b73206c696b652076616c696461746f727320666f72206e65787420656044820152711c9848185c9948185b1c9958591e481cd95d60721b6064820152608490fd5b60405162461bcd60e51b815260206004820152601b60248201527f656c656374696f6e206973206e6f7420796574207374617274656400000000006044820152606490fd5b60405162461bcd60e51b815260206004820152602a60248201527f636f6d6d69746d656e742065726120696e646578206973206e6f74206e657874604482015269040cae4c240d2dcc8caf60b31b6064820152608490fd5b60405162461bcd60e51b815260206004820152602560248201527f6e65772076616c696461746f7273206c697374206d757374206e6f7420626520604482015264656d70747960d81b6064820152608490fd5b60405162461bcd60e51b815260206004820152604360248201527f76616c696461746f727320636f6d6d69746d656e74206d75737420626520656d60448201527f707479206f7220636f6e7461696e73206f6e6c79206f6e6520636f6d6d69746d606482015262195b9d60ea1b608482015260a490fd5b909493919365ffffffffffff600283015460201c16613bbb4284613fcc565b613bd3613bcd60168601548093612922565b8361325c565b918284108080613f25575b15613eb357508310613e6e57613bf4908361325c565b10613e1d57613c04905b82613f5d565b94601960f81b5f523060601b60025260165260365f209360028110156124045780613d1457505060018103613ccf571561276257613c4581613c4c9261374a565b369161264f565b916060835103613c7a57826020613c779401516060604083015192015192600181549101549061400f565b90565b60405162461bcd60e51b815260206004820152602760248201527f46524f5354207369676e6174757265206c656e677468206d75737420626520396044820152663620627974657360c81b6064820152608490fd5b60405162461bcd60e51b815260206004820152601e60248201527f46524f5354207369676e6174757265206d7573742062652073696e676c6500006044820152606490fd5b919391600114613d275750505050505f90565b613d419061ffff6008600488979801549201541690613f3b565b925f9260035f9201915b86811015613e1257613d7a613d71613d6b613c458460051b86018661374a565b866142b8565b909291926142f2565b6001600160a01b0381165f9081526020859052604090205460ff16613da5575b506001905b01613d4b565b6001600160a01b03165f9081527ff02b465737fa6045c2ff53fb2df43c66916ac2166fa303264668fb2f6a1d8c0060205260409020805c15613dea5750600190613d9f565b946001613df892965d6128ac565b93858514613e06575f613d9a565b50505050505050600190565b505050505050505f90565b60405162461bcd60e51b8152602060048201526024808201527f74696d657374616d70206973206f6c646572207468616e2070726576696f75736044820152632065726160e01b6064820152608490fd5b60405162461bcd60e51b815260206004820152601e60248201527f63616e6e6f742076616c6964617465206265666f72652067656e6573697300006044820152606490fd5b9392915050428211613ed657613c0492613ece575b50613bfe565b90505f613ec8565b60405162461bcd60e51b815260206004820152602160248201527f74696d657374616d702063616e6e6f7420626520696e207468652066757475726044820152606560f81b6064820152608490fd5b50613f3460188701548561325c565b4210613bde565b61ffff613f49921690612922565b61270f81018091116125f557612710900490565b90613f6890826141cf565b15613f7357600f0190565b60090190565b60ff5f5160206144385f395f51905f525460401c1615613f9557565b631afcd79f60e31b5f5260045ffd5b356001600160801b03811681036123fa5790565b35906001600160801b03821682036123fa57565b6016613feb613c779365ffffffffffff600285015460201c16906125e8565b91015490612609565b613ffe42826141cf565b156140095760090190565b600f0190565b929391949061401e8587614352565b156141c55782156141c55770014551231950b75fc4402da1732fc9bebe198310156141c5576001169061010e6040519161012083018381106001600160401b038211176123fa5760405260883684376002600188160160888401538760898401526002840160a984015360aa830186905260ca8301527e300046524f53542d736563703235366b312d4b454343414b3235362d76316360ea8301526303430b6160e51b61010a830152812060cc820181815290600260ec84016001815360428420809318845253604270014551231950b75fc4402da1732fc9bebe19922060801c6001600160401b0360801b8260801b16179070014551231950b75fc4402da1732fc9bebe1990600160c01b9060401c09088015613e125784601b6080945f9660209870014551231950b75fc4402da1732fc9bebe19910970014551231950b75fc4402da1732fc9bebe19038552018684015280604084015270014551231950b75fc4402da1732fc9bebe19910970014551231950b75fc4402da1732fc9bebe1903606082015282805260015afa505f51915f5260205260018060a01b0360405f20161490565b5050505050505f90565b906014600e8301549201548083146142745781818410931191821591111591819061426d575b1561420a578261420457505090565b14919050565b60405162461bcd60e51b815260206004820152603560248201527f636f756c64206e6f74206964656e746966792076616c696461746f727320666f6044820152740722074686520676976656e2074696d657374616d7605c1b6064820152608490fd5b50816141f5565b606460405162461bcd60e51b815260206004820152602060248201527f657261732074696d657374616d70206d757374206e6f7420626520657175616c6044820152fd5b81519190604183036142e8576142e19250602082015190606060408401519301515f1a90614375565b9192909190565b50505f9160029190565b60048110156124045780614304575050565b6001810361431b5763f645eedf60e01b5f5260045ffd5b60028103614336575063fce698f760e01b5f5260045260245ffd5b6003146143405750565b6335e2f38360e21b5f5260045260245ffd5b6401000003d01990600790829081818009900908906401000003d0199080091490565b91907f7fffffffffffffffffffffffffffffff5d576e7357a4501ddfe92f46681b20a084116143ec579160209360809260ff5f9560405194855216868401526040830152606082015282805260015afa156123ef575f516001600160a01b038116156143e257905f905f90565b505f906001905f90565b5050505f916003919056fe9016d09d72d40fdae2fd8ceac6b6234c7706214fd39c1cd1e609a0528c1993005c09ca1b9b8127a4fd9f3c384aac59b661441e820e17733753ff5f2e86e1e000f0c57e16840df040f15088dc2f81fe391c3923bec73e23a9662efc9c229c6a00f0c57e16840df040f15088dc2f81fe391c3923bec73e23a9662efc9c229c6a00","linkReferences":{}},"methodIdentifiers":{"areValidators(address[])":"8f381dbe","codeState(bytes32)":"c13911e8","codesStates(bytes32[])":"82bdeaad","commitBatch((bytes32,uint48,bytes32,((address,bytes32,bool,address,uint128,bool,(bytes32,address,uint128)[],(bytes32,address,bytes,uint128,(bytes32,bytes4),bool)[])[],bytes32)[],(bytes32,bool)[],((uint256,bytes32),((address,uint256)[],uint256,address),uint48)[],((uint256,uint256),bytes,address[],uint256)[]),uint8,bytes[])":"af947bf8","computeSettings()":"84d22a4f","createProgram(bytes32,bytes32,address)":"3683c4d2","createProgramWithAbiInterface(bytes32,bytes32,address,address)":"0c18d277","genesisBlockHash()":"28e24b3d","genesisTimestamp()":"cacf66ab","initialize(address,address,address,address,uint256,uint256,uint256,(uint256,uint256),bytes,address[])":"53f7fd48","isValidator(address)":"facd743b","latestCommittedBatchHash()":"71a8cf2d","latestCommittedBatchTimestamp()":"d456fd51","lookupGenesisHash()":"8b1edf1e","middleware()":"f4f20ac0","mirrorImpl()":"e6fabc09","owner()":"8da5cb5b","programCodeId(address)":"9067088e","programsCodeIds(address[])":"baaf0201","programsCount()":"96a2ddfa","reinitialize()":"6c2eb350","renounceOwnership()":"715018a6","requestCodeValidation(bytes32)":"120e3f1e","setMirror(address)":"3d43b418","signingThresholdPercentage()":"efd81abc","timelines()":"9eb939a8","transferOwnership(address)":"f2fde38b","validatedCodesCount()":"007a32e7","validators()":"ca1e7819","validatorsAggregatedPublicKey()":"3bd109fa","validatorsCount()":"ed612f8c","validatorsThreshold()":"edc87225","validatorsVerifiableSecretSharingCommitment()":"a5d53a44","wrappedVara()":"88f50cf0"},"storageLayout":{"storage":[],"types":{}},"id":155}