{"abi":[{"type":"constructor","inputs":[],"stateMutability":"nonpayable"},{"type":"receive","stateMutability":"payable"},{"type":"function","name":"areValidators","inputs":[{"name":"_validators","type":"address[]","internalType":"address[]"}],"outputs":[{"name":"","type":"bool","internalType":"bool"}],"stateMutability":"view"},{"type":"function","name":"codeState","inputs":[{"name":"_codeId","type":"bytes32","internalType":"bytes32"}],"outputs":[{"name":"","type":"uint8","internalType":"enum Gear.CodeState"}],"stateMutability":"view"},{"type":"function","name":"codesStates","inputs":[{"name":"_codesIds","type":"bytes32[]","internalType":"bytes32[]"}],"outputs":[{"name":"","type":"uint8[]","internalType":"enum Gear.CodeState[]"}],"stateMutability":"view"},{"type":"function","name":"commitBatch","inputs":[{"name":"_batch","type":"tuple","internalType":"struct Gear.BatchCommitment","components":[{"name":"blockHash","type":"bytes32","internalType":"bytes32"},{"name":"blockTimestamp","type":"uint48","internalType":"uint48"},{"name":"previousCommittedBatchHash","type":"bytes32","internalType":"bytes32"},{"name":"expiry","type":"uint8","internalType":"uint8"},{"name":"chainCommitment","type":"tuple[]","internalType":"struct Gear.ChainCommitment[]","components":[{"name":"transitions","type":"tuple[]","internalType":"struct Gear.StateTransition[]","components":[{"name":"actorId","type":"address","internalType":"address"},{"name":"newStateHash","type":"bytes32","internalType":"bytes32"},{"name":"exited","type":"bool","internalType":"bool"},{"name":"inheritor","type":"address","internalType":"address"},{"name":"valueToReceive","type":"uint128","internalType":"uint128"},{"name":"valueToReceiveNegativeSign","type":"bool","internalType":"bool"},{"name":"valueClaims","type":"tuple[]","internalType":"struct Gear.ValueClaim[]","components":[{"name":"messageId","type":"bytes32","internalType":"bytes32"},{"name":"destination","type":"address","internalType":"address"},{"name":"value","type":"uint128","internalType":"uint128"}]},{"name":"messages","type":"tuple[]","internalType":"struct Gear.Message[]","components":[{"name":"id","type":"bytes32","internalType":"bytes32"},{"name":"destination","type":"address","internalType":"address"},{"name":"payload","type":"bytes","internalType":"bytes"},{"name":"value","type":"uint128","internalType":"uint128"},{"name":"replyDetails","type":"tuple","internalType":"struct Gear.ReplyDetails","components":[{"name":"to","type":"bytes32","internalType":"bytes32"},{"name":"code","type":"bytes4","internalType":"bytes4"}]},{"name":"call","type":"bool","internalType":"bool"}]}]},{"name":"head","type":"bytes32","internalType":"bytes32"}]},{"name":"codeCommitments","type":"tuple[]","internalType":"struct Gear.CodeCommitment[]","components":[{"name":"id","type":"bytes32","internalType":"bytes32"},{"name":"valid","type":"bool","internalType":"bool"}]},{"name":"rewardsCommitment","type":"tuple[]","internalType":"struct Gear.RewardsCommitment[]","components":[{"name":"operators","type":"tuple","internalType":"struct Gear.OperatorRewardsCommitment","components":[{"name":"amount","type":"uint256","internalType":"uint256"},{"name":"root","type":"bytes32","internalType":"bytes32"}]},{"name":"stakers","type":"tuple","internalType":"struct Gear.StakerRewardsCommitment","components":[{"name":"distribution","type":"tuple[]","internalType":"struct Gear.StakerRewards[]","components":[{"name":"vault","type":"address","internalType":"address"},{"name":"amount","type":"uint256","internalType":"uint256"}]},{"name":"totalAmount","type":"uint256","internalType":"uint256"},{"name":"token","type":"address","internalType":"address"}]},{"name":"timestamp","type":"uint48","internalType":"uint48"}]},{"name":"validatorsCommitment","type":"tuple[]","internalType":"struct Gear.ValidatorsCommitment[]","components":[{"name":"aggregatedPublicKey","type":"tuple","internalType":"struct Gear.AggregatedPublicKey","components":[{"name":"x","type":"uint256","internalType":"uint256"},{"name":"y","type":"uint256","internalType":"uint256"}]},{"name":"verifiableSecretSharingCommitment","type":"bytes","internalType":"bytes"},{"name":"validators","type":"address[]","internalType":"address[]"},{"name":"eraIndex","type":"uint256","internalType":"uint256"}]}]},{"name":"_signatureType","type":"uint8","internalType":"enum Gear.SignatureType"},{"name":"_signatures","type":"bytes[]","internalType":"bytes[]"}],"outputs":[],"stateMutability":"nonpayable"},{"type":"function","name":"computeSettings","inputs":[],"outputs":[{"name":"","type":"tuple","internalType":"struct Gear.ComputationSettings","components":[{"name":"threshold","type":"uint64","internalType":"uint64"},{"name":"wvaraPerSecond","type":"uint128","internalType":"uint128"}]}],"stateMutability":"view"},{"type":"function","name":"createProgram","inputs":[{"name":"_codeId","type":"bytes32","internalType":"bytes32"},{"name":"_salt","type":"bytes32","internalType":"bytes32"},{"name":"_overrideInitializer","type":"address","internalType":"address"}],"outputs":[{"name":"","type":"address","internalType":"address"}],"stateMutability":"nonpayable"},{"type":"function","name":"createProgramWithAbiInterface","inputs":[{"name":"_codeId","type":"bytes32","internalType":"bytes32"},{"name":"_salt","type":"bytes32","internalType":"bytes32"},{"name":"_overrideInitializer","type":"address","internalType":"address"},{"name":"_abiInterface","type":"address","internalType":"address"}],"outputs":[{"name":"","type":"address","internalType":"address"}],"stateMutability":"nonpayable"},{"type":"function","name":"genesisBlockHash","inputs":[],"outputs":[{"name":"","type":"bytes32","internalType":"bytes32"}],"stateMutability":"view"},{"type":"function","name":"genesisTimestamp","inputs":[],"outputs":[{"name":"","type":"uint48","internalType":"uint48"}],"stateMutability":"view"},{"type":"function","name":"initialize","inputs":[{"name":"_owner","type":"address","internalType":"address"},{"name":"_mirror","type":"address","internalType":"address"},{"name":"_wrappedVara","type":"address","internalType":"address"},{"name":"_middleware","type":"address","internalType":"address"},{"name":"_eraDuration","type":"uint256","internalType":"uint256"},{"name":"_electionDuration","type":"uint256","internalType":"uint256"},{"name":"_validationDelay","type":"uint256","internalType":"uint256"},{"name":"_aggregatedPublicKey","type":"tuple","internalType":"struct Gear.AggregatedPublicKey","components":[{"name":"x","type":"uint256","internalType":"uint256"},{"name":"y","type":"uint256","internalType":"uint256"}]},{"name":"_verifiableSecretSharingCommitment","type":"bytes","internalType":"bytes"},{"name":"_validators","type":"address[]","internalType":"address[]"}],"outputs":[],"stateMutability":"nonpayable"},{"type":"function","name":"isValidator","inputs":[{"name":"_validator","type":"address","internalType":"address"}],"outputs":[{"name":"","type":"bool","internalType":"bool"}],"stateMutability":"view"},{"type":"function","name":"latestCommittedBatchHash","inputs":[],"outputs":[{"name":"","type":"bytes32","internalType":"bytes32"}],"stateMutability":"view"},{"type":"function","name":"latestCommittedBatchTimestamp","inputs":[],"outputs":[{"name":"","type":"uint48","internalType":"uint48"}],"stateMutability":"view"},{"type":"function","name":"lookupGenesisHash","inputs":[],"outputs":[],"stateMutability":"nonpayable"},{"type":"function","name":"middleware","inputs":[],"outputs":[{"name":"","type":"address","internalType":"address"}],"stateMutability":"view"},{"type":"function","name":"mirrorImpl","inputs":[],"outputs":[{"name":"","type":"address","internalType":"address"}],"stateMutability":"view"},{"type":"function","name":"owner","inputs":[],"outputs":[{"name":"","type":"address","internalType":"address"}],"stateMutability":"view"},{"type":"function","name":"programCodeId","inputs":[{"name":"_programId","type":"address","internalType":"address"}],"outputs":[{"name":"","type":"bytes32","internalType":"bytes32"}],"stateMutability":"view"},{"type":"function","name":"programsCodeIds","inputs":[{"name":"_programsIds","type":"address[]","internalType":"address[]"}],"outputs":[{"name":"","type":"bytes32[]","internalType":"bytes32[]"}],"stateMutability":"view"},{"type":"function","name":"programsCount","inputs":[],"outputs":[{"name":"","type":"uint256","internalType":"uint256"}],"stateMutability":"view"},{"type":"function","name":"reinitialize","inputs":[],"outputs":[],"stateMutability":"nonpayable"},{"type":"function","name":"renounceOwnership","inputs":[],"outputs":[],"stateMutability":"nonpayable"},{"type":"function","name":"requestCodeValidation","inputs":[{"name":"_codeId","type":"bytes32","internalType":"bytes32"}],"outputs":[],"stateMutability":"nonpayable"},{"type":"function","name":"setMirror","inputs":[{"name":"newMirror","type":"address","internalType":"address"}],"outputs":[],"stateMutability":"nonpayable"},{"type":"function","name":"signingThresholdFraction","inputs":[],"outputs":[{"name":"","type":"uint128","internalType":"uint128"},{"name":"","type":"uint128","internalType":"uint128"}],"stateMutability":"view"},{"type":"function","name":"storageView","inputs":[],"outputs":[{"name":"","type":"tuple","internalType":"struct IRouter.StorageView","components":[{"name":"genesisBlock","type":"tuple","internalType":"struct Gear.GenesisBlockInfo","components":[{"name":"hash","type":"bytes32","internalType":"bytes32"},{"name":"number","type":"uint32","internalType":"uint32"},{"name":"timestamp","type":"uint48","internalType":"uint48"}]},{"name":"latestCommittedBatch","type":"tuple","internalType":"struct Gear.CommittedBatchInfo","components":[{"name":"hash","type":"bytes32","internalType":"bytes32"},{"name":"timestamp","type":"uint48","internalType":"uint48"}]},{"name":"implAddresses","type":"tuple","internalType":"struct Gear.AddressBook","components":[{"name":"mirror","type":"address","internalType":"address"},{"name":"wrappedVara","type":"address","internalType":"address"},{"name":"middleware","type":"address","internalType":"address"}]},{"name":"validationSettings","type":"tuple","internalType":"struct Gear.ValidationSettingsView","components":[{"name":"thresholdNumerator","type":"uint128","internalType":"uint128"},{"name":"thresholdDenominator","type":"uint128","internalType":"uint128"},{"name":"validators0","type":"tuple","internalType":"struct Gear.ValidatorsView","components":[{"name":"aggregatedPublicKey","type":"tuple","internalType":"struct Gear.AggregatedPublicKey","components":[{"name":"x","type":"uint256","internalType":"uint256"},{"name":"y","type":"uint256","internalType":"uint256"}]},{"name":"verifiableSecretSharingCommitmentPointer","type":"address","internalType":"address"},{"name":"list","type":"address[]","internalType":"address[]"},{"name":"useFromTimestamp","type":"uint256","internalType":"uint256"}]},{"name":"validators1","type":"tuple","internalType":"struct Gear.ValidatorsView","components":[{"name":"aggregatedPublicKey","type":"tuple","internalType":"struct Gear.AggregatedPublicKey","components":[{"name":"x","type":"uint256","internalType":"uint256"},{"name":"y","type":"uint256","internalType":"uint256"}]},{"name":"verifiableSecretSharingCommitmentPointer","type":"address","internalType":"address"},{"name":"list","type":"address[]","internalType":"address[]"},{"name":"useFromTimestamp","type":"uint256","internalType":"uint256"}]}]},{"name":"computeSettings","type":"tuple","internalType":"struct Gear.ComputationSettings","components":[{"name":"threshold","type":"uint64","internalType":"uint64"},{"name":"wvaraPerSecond","type":"uint128","internalType":"uint128"}]},{"name":"timelines","type":"tuple","internalType":"struct Gear.Timelines","components":[{"name":"era","type":"uint256","internalType":"uint256"},{"name":"election","type":"uint256","internalType":"uint256"},{"name":"validationDelay","type":"uint256","internalType":"uint256"}]},{"name":"programsCount","type":"uint256","internalType":"uint256"},{"name":"validatedCodesCount","type":"uint256","internalType":"uint256"}]}],"stateMutability":"view"},{"type":"function","name":"timelines","inputs":[],"outputs":[{"name":"","type":"tuple","internalType":"struct Gear.Timelines","components":[{"name":"era","type":"uint256","internalType":"uint256"},{"name":"election","type":"uint256","internalType":"uint256"},{"name":"validationDelay","type":"uint256","internalType":"uint256"}]}],"stateMutability":"view"},{"type":"function","name":"transferOwnership","inputs":[{"name":"newOwner","type":"address","internalType":"address"}],"outputs":[],"stateMutability":"nonpayable"},{"type":"function","name":"validatedCodesCount","inputs":[],"outputs":[{"name":"","type":"uint256","internalType":"uint256"}],"stateMutability":"view"},{"type":"function","name":"validators","inputs":[],"outputs":[{"name":"","type":"address[]","internalType":"address[]"}],"stateMutability":"view"},{"type":"function","name":"validatorsAggregatedPublicKey","inputs":[],"outputs":[{"name":"","type":"tuple","internalType":"struct Gear.AggregatedPublicKey","components":[{"name":"x","type":"uint256","internalType":"uint256"},{"name":"y","type":"uint256","internalType":"uint256"}]}],"stateMutability":"view"},{"type":"function","name":"validatorsCount","inputs":[],"outputs":[{"name":"","type":"uint256","internalType":"uint256"}],"stateMutability":"view"},{"type":"function","name":"validatorsThreshold","inputs":[],"outputs":[{"name":"","type":"uint256","internalType":"uint256"}],"stateMutability":"view"},{"type":"function","name":"validatorsVerifiableSecretSharingCommitment","inputs":[],"outputs":[{"name":"","type":"bytes","internalType":"bytes"}],"stateMutability":"view"},{"type":"function","name":"wrappedVara","inputs":[],"outputs":[{"name":"","type":"address","internalType":"address"}],"stateMutability":"view"},{"type":"event","name":"AnnouncesCommitted","inputs":[{"name":"head","type":"bytes32","indexed":false,"internalType":"bytes32"}],"anonymous":false},{"type":"event","name":"BatchCommitted","inputs":[{"name":"hash","type":"bytes32","indexed":false,"internalType":"bytes32"}],"anonymous":false},{"type":"event","name":"CodeGotValidated","inputs":[{"name":"codeId","type":"bytes32","indexed":false,"internalType":"bytes32"},{"name":"valid","type":"bool","indexed":true,"internalType":"bool"}],"anonymous":false},{"type":"event","name":"CodeValidationRequested","inputs":[{"name":"codeId","type":"bytes32","indexed":false,"internalType":"bytes32"}],"anonymous":false},{"type":"event","name":"ComputationSettingsChanged","inputs":[{"name":"threshold","type":"uint64","indexed":false,"internalType":"uint64"},{"name":"wvaraPerSecond","type":"uint128","indexed":false,"internalType":"uint128"}],"anonymous":false},{"type":"event","name":"DebugEvent","inputs":[{"name":"topic0","type":"uint256","indexed":true,"internalType":"uint256"}],"anonymous":true},{"type":"event","name":"Initialized","inputs":[{"name":"version","type":"uint64","indexed":false,"internalType":"uint64"}],"anonymous":false},{"type":"event","name":"OwnershipTransferred","inputs":[{"name":"previousOwner","type":"address","indexed":true,"internalType":"address"},{"name":"newOwner","type":"address","indexed":true,"internalType":"address"}],"anonymous":false},{"type":"event","name":"ProgramCreated","inputs":[{"name":"actorId","type":"address","indexed":false,"internalType":"address"},{"name":"codeId","type":"bytes32","indexed":true,"internalType":"bytes32"}],"anonymous":false},{"type":"event","name":"StorageSlotChanged","inputs":[{"name":"slot","type":"bytes32","indexed":false,"internalType":"bytes32"}],"anonymous":false},{"type":"event","name":"ValidatorsCommittedForEra","inputs":[{"name":"eraIndex","type":"uint256","indexed":false,"internalType":"uint256"}],"anonymous":false},{"type":"error","name":"ApproveERC20Failed","inputs":[]},{"type":"error","name":"BatchTimestampNotInPast","inputs":[]},{"type":"error","name":"BatchTimestampTooEarly","inputs":[]},{"type":"error","name":"BlobNotFound","inputs":[]},{"type":"error","name":"CodeAlreadyOnValidationOrValidated","inputs":[]},{"type":"error","name":"CodeNotValidated","inputs":[]},{"type":"error","name":"CodeValidationNotRequested","inputs":[]},{"type":"error","name":"CommitmentEraNotNext","inputs":[]},{"type":"error","name":"DeploymentFailed","inputs":[]},{"type":"error","name":"ECDSAInvalidSignature","inputs":[]},{"type":"error","name":"ECDSAInvalidSignatureLength","inputs":[{"name":"length","type":"uint256","internalType":"uint256"}]},{"type":"error","name":"ECDSAInvalidSignatureS","inputs":[{"name":"s","type":"bytes32","internalType":"bytes32"}]},{"type":"error","name":"ElectionNotStarted","inputs":[]},{"type":"error","name":"EmptyValidatorsList","inputs":[]},{"type":"error","name":"EraDurationTooShort","inputs":[]},{"type":"error","name":"ErasTimestampMustNotBeEqual","inputs":[]},{"type":"error","name":"GenesisHashAlreadySet","inputs":[]},{"type":"error","name":"GenesisHashNotFound","inputs":[]},{"type":"error","name":"InvalidElectionDuration","inputs":[]},{"type":"error","name":"InvalidFROSTAggregatedPublicKey","inputs":[]},{"type":"error","name":"InvalidFrostSignatureCount","inputs":[]},{"type":"error","name":"InvalidFrostSignatureLength","inputs":[]},{"type":"error","name":"InvalidInitialization","inputs":[]},{"type":"error","name":"InvalidPreviousCommittedBatchHash","inputs":[]},{"type":"error","name":"InvalidTimestamp","inputs":[]},{"type":"error","name":"NotInitializing","inputs":[]},{"type":"error","name":"OwnableInvalidOwner","inputs":[{"name":"owner","type":"address","internalType":"address"}]},{"type":"error","name":"OwnableUnauthorizedAccount","inputs":[{"name":"account","type":"address","internalType":"address"}]},{"type":"error","name":"PredecessorBlockNotFound","inputs":[]},{"type":"error","name":"ReentrancyGuardReentrantCall","inputs":[]},{"type":"error","name":"RewardsCommitmentEraNotPrevious","inputs":[]},{"type":"error","name":"RewardsCommitmentPredatesGenesis","inputs":[]},{"type":"error","name":"RewardsCommitmentTimestampNotInPast","inputs":[]},{"type":"error","name":"RouterGenesisHashNotInitialized","inputs":[]},{"type":"error","name":"SignatureVerificationFailed","inputs":[]},{"type":"error","name":"TimestampInFuture","inputs":[]},{"type":"error","name":"TimestampOlderThanPreviousEra","inputs":[]},{"type":"error","name":"TooManyChainCommitments","inputs":[]},{"type":"error","name":"TooManyRewardsCommitments","inputs":[]},{"type":"error","name":"TooManyValidatorsCommitments","inputs":[]},{"type":"error","name":"UnknownProgram","inputs":[]},{"type":"error","name":"ValidationBeforeGenesis","inputs":[]},{"type":"error","name":"ValidationDelayTooBig","inputs":[]},{"type":"error","name":"ValidatorsAlreadyScheduled","inputs":[]},{"type":"error","name":"ValidatorsNotFoundForTimestamp","inputs":[]},{"type":"error","name":"ZeroValueTransfer","inputs":[]}],"bytecode":{"object":"0x6080806040523460aa575f516020613f895f395f51905f525460ff8160401c16609b576002600160401b03196001600160401b038216016049575b604051613eda90816100af8239f35b6001600160401b0319166001600160401b039081175f516020613f895f395f51905f525581527fc7f505b2f371ae2175ee4913f4499e1f2633a7b5936321eed1cdaeb6115181d290602090a15f80603a565b63f92ee8a960e01b5f5260045ffd5b5f80fdfe6080806040526004361015610089575b50361561001a575f80fd5b5f516020613e9a5f395f51905f525460018101541561007a576001600160801b0334161561006b57335f908152601a9190910160205260409020541561005c57005b63821a62f560e01b5f5260045ffd5b63a1a7c6eb60e01b5f5260045ffd5b63580683f360e01b5f5260045ffd5b5f905f3560e01c9081627a32e714612294575080630c18d27714611daa578063120e3f1e14611cd357806328e24b3d14611ca55780633683c4d214611a825780633bd109fa14611a335780633d43b418146119df57806353f7fd48146115685780636c2eb3501461120b578063715018a6146111a257806371a8cf2d1461117457806382bdeaad1461105c57806384d22a4f14610ffe57806388f50cf014610fc55780638b1edf1e14610f665780638da5cb5b14610f315780638f381dbe14610eeb5780639067088e14610ea257806396a2ddfa14610e745780639eb939a814610e1d578063a5d53a4414610daf578063b24fcac014610905578063baaf020114610804578063c13911e8146107c0578063c2eb812f14610494578063ca1e781914610444578063cacf66ab1461040c578063d456fd51146103d6578063e3a6684f14610397578063e6fabc091461035e578063ed612f8c14610326578063edc87225146102d1578063f2fde38b146102a4578063f4f20ac01461026b5763facd743b0361000f57346102685760203660031901126102685761022a6122ea565b60036102455f516020613e9a5f395f51905f525442906139f5565b019060018060a01b03165f52602052602060ff60405f2054166040519015158152f35b80fd5b50346102685780600319360112610268575f516020613e9a5f395f51905f5254600701546040516001600160a01b039091168152602090f35b5034610268576020366003190112610268576102ce6102c16122ea565b6102c961284d565b6127ce565b80f35b5034610268578060031936011261026857602061031e5f516020613e9a5f395f51905f52546008600461030442846139f5565b0154910154906001600160801b038260801c9216906139ca565b604051908152f35b5034610268578060031936011261026857602060046103545f516020613e9a5f395f51905f525442906139f5565b0154604051908152f35b50346102685780600319360112610268575f516020613e9a5f395f51905f5254600501546040516001600160a01b039091168152602090f35b5034610268578060031936011261026857604060085f516020613e9a5f395f51905f525401548151906001600160801b038116825260801c6020820152f35b5034610268578060031936011261026857602065ffffffffffff60045f516020613e9a5f395f51905f5254015416604051908152f35b5034610268578060031936011261026857602065ffffffffffff60025f516020613e9a5f395f51905f52540154821c16604051908152f35b503461026857806003193601126102685761049061047c60046104765f516020613e9a5f395f51905f525442906139f5565b016125c3565b604051918291602083526020830190612351565b0390f35b50346102685780600319360112610268576040516104b18161241e565b6104b96126fc565b81526040516104c781612403565b5f8152602081015f905260208201526104de6126fc565b60408201526104eb61279b565b60608201526040516104fc81612403565b5f808252602082015260808201526105126126fc565b60a08201528160c082015260e001525f516020613e9a5f395f51905f525461053861279b565b5061054560098201613c85565b90610552600f8201613c85565b600882015492604051936105658561243a565b6001600160801b038116855260801c602085015260408401526060830152601b81015490601c8101546040519261059b8461241e565b6040516105a7816123d4565b60018401548152600284015463ffffffff8116602083015260201c65ffffffffffff1660408201528452604051946105de86612403565b60038401548652600484015465ffffffffffff166020870152602085019586526040519061060b826123d4565b60058501546001600160a01b0390811683526006860154811660208401526007860154166040808401919091528601918252606086019081526106506015860161264e565b94608087019586526016016106649061271a565b9160a0870192835260c0870193845260e087019485526040519788976020895251805160208a0152602081015163ffffffff1660408a01526040015165ffffffffffff16606089015251805160808901526020015165ffffffffffff1660a088015251600160a01b6001900381511660c0880152600160a01b6001900360208201511660e0880152600160a01b60019003906040015116610100870152516101208601610200905280516001600160801b031661022087015260208101516001600160801b031661024087015260408101516102608701608090526102a0870161074d9161238d565b90606001519061021f198782030161028088015261076a9161238d565b935180516001600160401b0316610140870152602001516001600160801b031661016086015251805161018086015260208101516101a0860152604001516101c0850152516101e0840152516102008301520390f35b50346102685760203660031901126102685760ff604060209260195f516020613e9a5f395f51905f525401600435825284522054166108026040518092612344565bf35b5034610268576020366003190112610268576004356001600160401b03811161090157610835903690600401612314565b905f516020613e9a5f395f51905f52549061084f83612558565b9161085d6040519384612455565b83835261086984612558565b602084019490601f1901368637601a869201915b8181106108c857868587604051928392602084019060208552518091526040840192915b8181106108af575050500390f35b82518452859450602093840193909201916001016108a1565b806108de6108d96001938588612616565b61267c565b828060a01b03165f528360205260405f20546108fa828861263a565b520161087d565b5080fd5b5034610268576060366003190112610268576001600160401b036004351161026857610100600435360360031901126102685760026024351015610268576044356001600160401b03811161090157610962903690600401612314565b7f9b779b17422d0df92223018b32b4d1fa46e071723d6817e2486d003becc55f005c610da05760017f9b779b17422d0df92223018b32b4d1fa46e071723d6817e2486d003becc55f005d5f516020613e9a5f395f51905f525490600182015415610d9157815415610d35575b60038201546044600435013503610d265765ffffffffffff60048301541665ffffffffffff610a01602460043501612750565b1610610d1857610a1660043560040183612bb5565b92610a2b60a46004350160043560040161306a565b808096925060051b0460201485151715610d0457610a4b8560051b613a71565b8695865b818810610bbb5750610b81965060051b902090610a71600435600401866130ce565b610a80600435600401876134c1565b90610a8f602460043501612750565b93610a9e606460043501612742565b9360405194602086019660043560040135885265ffffffffffff60d01b9060d01b16604087015260446004350135604687015260ff60f81b9060f81b1660668601526067850152608784015260a783015260c782015260c78152610b0360e782612455565b5190209283600382015565ffffffffffff610b22602460043501612750565b1665ffffffffffff196004830154161760048201557f7ebe42360bcb182fe0a88148b081e4557c89d09aa6af8307635ac2f83e2aaa656020604051868152a165ffffffffffff610b76602460043501612750565b169360243591613755565b15610bac57807f9b779b17422d0df92223018b32b4d1fa46e071723d6817e2486d003becc55f005d80f35b63729d0f6b60e01b8152600490fd5b610bcf60a46004350160043560040161306a565b891015610cf0578860061b8101358a526019880160205260ff60408b2054166003811015610cdc57600103610ccd57600191602091610c928b8b8e868360061b86010192610c1c8461309f565b15610cae5760061b85013590525060198c01855260408e20805460ff19166002179055601c8c018054610c4e9061283f565b90555b8c7f460119a8f69a33ed127de517d5ea464e958ce23ef19e4420a8b92bf780bbc2c986610c7d8461309f565b1515926040519060061b8701358152a261309f565b908b60061b01358c52825360218b208186015201970196610a4f565b60409260199160061b87013583520187522060ff198154169055610c51565b636e83084760e11b8a5260048afd5b634e487b7160e01b8b52602160045260248bfd5b634e487b7160e01b8a52603260045260248afd5b634e487b7160e01b86526011600452602486fd5b620725b160ea1b8452600484fd5b63164b6fc360e01b8452600484fd5b610d52610d46606460043501612742565b60043560040135612b20565b15610d825765ffffffffffff610d6c602460043501612750565b1642116109ce57631ad8809560e31b8452600484fd5b637b8cb35960e01b8452600484fd5b63580683f360e01b8452600484fd5b633ee5aeb560e01b8352600483fd5b50346102685780600319360112610268576040610df05f516020613e9a5f395f51905f52546002610de860018060a01b039242906139f5565b015416612af1565b6020825193849282845280519283918282870152018585015e828201840152601f01601f19168101030190f35b5034610268578060031936011261026857610e366126fc565b506060610e5360165f516020613e9a5f395f51905f52540161271a565b61080260405180926040809180518452602081015160208501520151910152565b50346102685780600319360112610268576020601b5f516020613e9a5f395f51905f52540154604051908152f35b503461026857602036600319011261026857610ebc6122ea565b601a5f516020613e9a5f395f51905f5254019060018060a01b03165f52602052602060405f2054604051908152f35b503461026857602036600319011261026857600435906001600160401b038211610268576020610f27610f213660048601612314565b90612690565b6040519015158152f35b50346102685780600319360112610268575f516020613e7a5f395f51905f52546040516001600160a01b039091168152602090f35b50346102685780600319360112610268575f516020613e9a5f395f51905f525460018101908154610fb6576002015463ffffffff1640908115610fa7575580f35b63f7bac7b560e01b8352600483fd5b6309476b0360e41b8352600483fd5b50346102685780600319360112610268575f516020613e9a5f395f51905f5254600601546040516001600160a01b039091168152602090f35b5034610268578060031936011261026857611017612476565b50604061103460155f516020613e9a5f395f51905f52540161264e565b610802825180926001600160801b03602080926001600160401b038151168552015116910152565b5034610268576020366003190112610268576004356001600160401b0381116109015761108d903690600401612314565b905f516020613e9a5f395f51905f5254906110a783612558565b916110b56040519384612455565b8383526110c184612558565b602084019490601f19013686376019869201915b81811061112a57868587604051928392602084019060208552518091526040840192915b818110611107575050500390f35b919350916020808261111c6001948851612344565b0194019101918493926110f9565b611135818386612616565b3587528260205260ff60408820541661114e828761263a565b600382101561116057526001016110d5565b634e487b7160e01b89526021600452602489fd5b5034610268578060031936011261026857602060035f516020613e9a5f395f51905f52540154604051908152f35b50346102685780600319360112610268576111bb61284d565b5f516020613e7a5f395f51905f5280546001600160a01b0319811690915581906001600160a01b03167f8be0079c531659141344cd1fd0a4f28419497f9722a3daafe3b4186f6b6457e08280a380f35b50346102685780600319360112610268575f516020613eba5f395f51905f525460ff8160401c16908115611553575b50611544575f516020613eba5f395f51905f52805468ffffffffffffffffff1916680100000000000000021790555f516020613e7a5f395f51905f5254611294906001600160a01b031661128c613a11565b6102c9613a11565b7fc7f505b2f371ae2175ee4913f4499e1f2633a7b5936321eed1cdaeb6115181d260205f516020613e9a5f395f51905f525460409081516112d58382612455565b601781528381017f726f757465722e73746f726167652e526f757465725632000000000000000000815261130761284d565b5f199151902001855260ff198386201690815f516020613e9a5f395f51905f52557f059eb9adf6e95b839d818142ed5bd5e498b6d95138e65c91525e93cc0f0339fc848451848152a1611358612880565b80516001840155600283019063ffffffff868201511669ffffffffffff00000000868454930151881b169169ffffffffffffffffffff1916171790556005810160058301908082036114f6575b5050600881016001600160801b038154169060088401916001600160801b0319835416178255546001600160801b03825491811916911617905561142e6113ec42836139f5565b6114036001600160a01b036002610de842876139f5565b611419600461141242876139f5565b019261248e565b9061142442936125c3565b91600987016128c8565b6015810160158301908082036114a4575b5050601681016016830191818303611484575b5050505060ff60401b195f516020613eba5f395f51905f5254165f516020613eba5f395f51905f52555160028152a180f35b60189283925490556017810154601785015501549101555f808080611452565b806001600160401b03806001600160801b03935416166001600160401b031984541617835554851c16600160401b600160c01b03825491861b1690600160401b600160c01b0319161790555f8061143f565b5481546001600160a01b03199081166001600160a01b039283161790925560068381015490850180548416918316919091179055600780840154908501805490931691161790555f806113a5565b63f92ee8a960e01b8152600490fd5b600291506001600160401b031610155f61123a565b503461026857610160366003190112610268576115836122ea565b6024356001600160a01b03811691908290036119db576115a16122be565b916115aa6122d4565b9260c43591608435919060a43560403660e31901126119d75761012435946001600160401b0386116119d357366023870112156119d3578560040135916001600160401b0383116119cf5736602484890101116119cf57610144356001600160401b0381116119cb57611621903690600401612314565b9690945f516020613eba5f395f51905f5254996001600160401b0360ff8c60401c16159b16801590816119c3575b60011490816119b9575b1590816119b0575b506119a1576116a3908b60016001600160401b03195f516020613eba5f395f51905f525416175f516020613eba5f395f51905f5255611971575b61128c613a11565b6116ab613a11565b4215611962578215611953578282111561194457600a6116cb84846124ac565b048410156119355760409a8b918d83516116e58582612455565b60178152602081017f726f757465722e73746f726167652e526f757465725631000000000000000000815261171861284d565b905190205f190190526020808f2060ff19165f516020613e9a5f395f51905f528190558451818152909a917f059eb9adf6e95b839d818142ed5bd5e498b6d95138e65c91525e93cc0f0339fc91a161176e612880565b805160018c015560028b0190602081015163ffffffff1686835492015160201b69ffffffffffff00000000169169ffffffffffffffffffff1916171790558351906117b8826123d4565b8282526001600160a01b03908116602083018190529381169490910184905260058a018054919092166001600160a01b03199182161790915560068901805482169092179091556007880180549091169091179055700300000000000000000000000000000002600887015561182c612476565b50895161183881612403565b639502f90081526509184e72a0006020909101526015860180546001600160c01b0319166d09184e72a000000000009502f900179055895183908b9061187d816123d4565b83815284602082015201526016860155601785015560188401558651946118a386612403565b60e43586526101043560208701526118bf913691602401612513565b90429336906118cd9261256f565b91600901936118db946128c8565b6118e3575080f35b60207fc7f505b2f371ae2175ee4913f4499e1f2633a7b5936321eed1cdaeb6115181d29160ff60401b195f516020613eba5f395f51905f5254165f516020613eba5f395f51905f52555160018152a180f35b63145e348f60e01b8c5260048cfd5b6353b2bbed60e01b8c5260048cfd5b63f7ba6bdb60e01b8c5260048cfd5b63b7d0949760e01b8c5260048cfd5b600160401b60ff60401b195f516020613eba5f395f51905f525416175f516020613eba5f395f51905f525561169b565b63f92ee8a960e01b8d5260048dfd5b9050155f611661565b303b159150611659565b8c915061164f565b8a80fd5b8980fd5b8880fd5b8780fd5b8280fd5b5034610268576020366003190112610268576119f96122ea565b611a0161284d565b5f516020613e9a5f395f51905f525460050180546001600160a01b0319166001600160a01b0390921691909117905580f35b5034610268578060031936011261026857611a4c612476565b506040611a70611a6b5f516020613e9a5f395f51905f525442906139f5565b61248e565b60208251918051835201516020820152f35b503461026857606036600319011261026857600435611a9f6122be565b5f516020613e9a5f395f51905f5254600181015415610d91578284526019810160205260ff6040852054166003811015611c9157600203611c82578284526024356020526040842060405160608101908082106001600160401b03831117611c7e57605a916040527f3d605080600a3d3981f3608060405263e6fabc0960e01b5f5260205f6004817381523060601b6b5afa15604c575f80805136821760208201527f80378136915af43d5f803e156048573d5ff35b3d5ffd5b5f80fd000000000000604082015286f5908115611c7a576001600160a01b0382165f908152601a820160205260409020849055601b018054611b9a9061283f565b90556040516001600160a01b03821680825293907f8008ec1d8798725ebfa0f2d128d52e8e717dcba6e0f786557eeee70614b02bf190602090a2506001600160a01b038116611c755750335b5f516020613e9a5f395f51905f5254600501546001600160a01b0316823b15611c7157604051631c9776b560e31b81526001600160a01b039092166004830152602482015260016044820152828160648183865af18015611c6657611c51575b602082604051908152f35b611c5c838092612455565b6109015781611c46565b6040513d85823e3d90fd5b8380fd5b611be6565b8480fd5b8680fd5b630e2637d160e01b8452600484fd5b634e487b7160e01b85526021600452602485fd5b5034610268578060031936011261026857602060015f516020613e9a5f395f51905f52540154604051908152f35b503461026857602036600319011261026857600435814915611d9b575f516020613e9a5f395f51905f5254600181015415611d8c576019018183528060205260ff6040842054166003811015611d7857611d695781835260209081526040808420805460ff19166001179055519182527f5c261a095dd5720475295dc06379921c003c22164ee6cae5cf83e76ce0a1b98591a180f35b6304c51a3360e31b8352600483fd5b634e487b7160e01b84526021600452602484fd5b63580683f360e01b8352600483fd5b637bb2fa2f60e11b8252600482fd5b3461226757608036600319011261226757600435611dc66122be565b90611dcf6122d4565b915f516020613e9a5f395f51905f525460018101541561007a57825f526019810160205260ff60405f20541660038110156122805760020361227157825f5260243560205260405f206040516102c08101908082106001600160401b03831117612267576102b0916040527f60808060405261029e90816100128239f3fe608060405260043610610254575f81527f3560e01c806336a52a18146100ab57806342129d00146100a65780635ce6c32760208201527f146100a1578063701da98e1461009c578063704ed542146100975780637a8e0c60408201527fdd1461009257806391d5a64c1461008d5780639ce110d714610088578063affe60608201527fd0e0146100835763e43f3433036102545761023f565b610222565b6101fa565b60808201527f6101e4565b6101b1565b610181565b610165565b610143565b610106565b346160a08201527ed4575f3660031901126100d45760025460081c6001600160a01b031660809060c08201527f8152602090f35b5f80fd5b9181601f840112156100d45782359167ffffffffff60e08201527fffffff83116100d457602083818601950101116100d457565b604036600319016101008201527f126100d45760043567ffffffffffffffff81116100d4576101329036906004016101208201527f6100d8565b505060243580151514610254575f80fd5b346100d4575f366003196101408201527f01126100d457602060ff600254166040519015158152f35b346100d4575f36606101608201527f031901126100d45760205f54604051908152f35b346100d457602036600319016101808201527f126100d4576004356fffffffffffffffffffffffffffffffff811614610254576101a08201527f5f80fd5b60403660031901126100d45760243567ffffffffffffffff811161006101c08201527fd4576101dd9036906004016100d8565b5050610254565b346100d457602036606101e08201527f0319011215610254575f80fd5b346100d4575f3660031901126100d4576003546102008201527f6040516001600160a01b039091168152602090f35b346100d4575f36600319016102208201527f126100d4576020600154604051908152f35b346100d4575f36600319011215616102408201523060601c7f0254575f80fd5b63e6fabc0960e01b5f5260205f60048173000000000000000017610260820152735afa156100d4575f808051368280378136915af43060a01b176102808201526f3d5f803e1561029a573d5ff35b3d5ffd60801b6102a08201525ff5908115612267576001600160a01b0382165f908152601a820160205260409020849055601b0180546121ac9061283f565b90556040516001600160a01b03821680825293907f8008ec1d8798725ebfa0f2d128d52e8e717dcba6e0f786557eeee70614b02bf190602090a2506001600160a01b03811661226b575033915b813b1561226757604051631c9776b560e31b81526001600160a01b039384166004820152921660248301525f604483018190528260648183855af191821561225c5760209261224c575b50604051908152f35b5f61225691612455565b5f612243565b6040513d5f823e3d90fd5b5f80fd5b916121f9565b630e2637d160e01b5f5260045ffd5b634e487b7160e01b5f52602160045260245ffd5b34612267575f36600319011261226757602090601c5f516020613e9a5f395f51905f525401548152f35b604435906001600160a01b038216820361226757565b606435906001600160a01b038216820361226757565b600435906001600160a01b038216820361226757565b35906001600160a01b038216820361226757565b9181601f84011215612267578235916001600160401b038311612267576020808501948460051b01011161226757565b9060038210156122805752565b90602080835192838152019201905f5b81811061236e5750505090565b82516001600160a01b0316845260209384019390920191600101612361565b9060208251805183520151602082015260018060a01b036020830151166040820152608060606123cb604085015160a08386015260a0850190612351565b93015191015290565b606081019081106001600160401b038211176123ef57604052565b634e487b7160e01b5f52604160045260245ffd5b604081019081106001600160401b038211176123ef57604052565b61010081019081106001600160401b038211176123ef57604052565b608081019081106001600160401b038211176123ef57604052565b90601f801991011681019081106001600160401b038211176123ef57604052565b6040519061248382612403565b5f6020838281520152565b9060405161249b81612403565b602060018294805484520154910152565b919082039182116124b957565b634e487b7160e01b5f52601160045260245ffd5b81156124d7570490565b634e487b7160e01b5f52601260045260245ffd5b91908260409103126122675760405161250381612403565b6020808294803584520135910152565b9291926001600160401b0382116123ef576040519161253c601f8201601f191660200184612455565b829481845281830111612267578281602093845f960137010152565b6001600160401b0381116123ef5760051b60200190565b92919061257b81612558565b936125896040519586612455565b602085838152019160051b810192831161226757905b8282106125ab57505050565b602080916125b884612300565b81520191019061259f565b90604051918281549182825260208201905f5260205f20925f5b8181106125f45750506125f292500383612455565b565b84546001600160a01b03168352600194850194879450602090930192016125dd565b91908110156126265760051b0190565b634e487b7160e01b5f52603260045260245ffd5b80518210156126265760209160051b010190565b9060405161265b81612403565b91546001600160401b038116835260401c6001600160801b03166020830152565b356001600160a01b03811681036122675790565b6126a95f516020613e9a5f395f51905f525442906139f5565b600301905f5b8381106126bf5750505050600190565b6126cd6108d9828685612616565b6001600160a01b03165f9081526020849052604090205460ff16156126f4576001016126af565b505050505f90565b60405190612709826123d4565b5f6040838281528260208201520152565b90604051612727816123d4565b60406002829480548452600181015460208501520154910152565b3560ff811681036122675790565b3565ffffffffffff811681036122675790565b604051906127708261243a565b5f60608360405161278081612403565b83815283602082015281528260208201528160408201520152565b604051906127a88261243a565b815f81525f60208201526127ba612763565b604082015260606127c9612763565b910152565b6001600160a01b0316801561282c575f516020613e7a5f395f51905f5280546001600160a01b0319811683179091556001600160a01b03167f8be0079c531659141344cd1fd0a4f28419497f9722a3daafe3b4186f6b6457e05f80a3565b631e4fbdf760e01b5f525f60045260245ffd5b5f1981146124b95760010190565b5f516020613e7a5f395f51905f52546001600160a01b0316330361286d57565b63118cdaa760e01b5f523360045260245ffd5b6128886126fc565b50604051612895816123d4565b5f815263ffffffff4316602082015265ffffffffffff4216604082015290565b818102929181159184041417156124b957565b9291908051906020810191825170014551231950b75fc4402da1732fc9bebe1982109182612ae0575b505015612ad157518455516001840155604051906129346021836020808201945f86528051918291018484015e81015f838201520301601f198101845283612455565b612971602b604051809360208201956a600b5981380380925939f360a81b87525180918484015e81015f838201520301601f198101835282612455565b51905ff06001600160a01b03811615612ac2576002830180546001600160a01b0319166001600160a01b039092169190911790555f5b6004830180548210156129e5575f90815260208082208301546001600160a01b0316825260038501905260409020805460ff191690556001016129a7565b5050925f5b8451811015612a2e576001906001600160a01b03612a08828861263a565b5116828060a01b03165f526003840160205260405f208260ff19825416179055016129ea565b5092600482018151916001600160401b0383116123ef57600160401b83116123ef578154838355808410612a98575b50602001905f5260205f205f5b838110612a7b575050505060050155565b82516001600160a01b031681830155602090920191600101612a6a565b825f52838060205f20019103905f5b828110612ab5575050612a5d565b5f82820155600101612aa7565b633011642560e01b5f5260045ffd5b63375f0aab60e11b5f5260045ffd5b612aea9250613dd4565b5f806128f1565b803b905f198201908282116124b95760019060405193603e601f19910116840160405282845260208401903c90565b435f19810193929084116124b95760ff16438110612b7057505f925b83811015612b4c575b505f925050565b8040828103612b5e5750600193505050565b15612b6b575f1901612b3c565b612b45565b612b7a90436124ac565b92612b3c565b903590601e198136030182121561226757018035906001600160401b03821161226757602001918160051b3603831361226757565b90608081016001612bc68284612b80565b90501161305b57612bd78183612b80565b90501561303457612be791612b80565b1561262657803590603e1981360301821215612267570191612c098380612b80565b9190928260051b93838504602014841517156124b957612c2b85969495613a71565b925f945f97601a60fe19853603019501965b888a1015612fec578960051b85013586811215612267578501612c5f8161267c565b6001600160a01b03165f90815260208a905260409020541561005c575f608082016001600160801b03612c9182613a3c565b16151580612fd9575b612fc8575b6001600160a01b03612cb08461267c565b604051630427a21d60e11b81526020600482015294911691610124850191906001600160801b0390612d2f906001600160a01b03612ced85612300565b16602489015260208401356044890152612d0960408501613a50565b151560648901526001600160a01b03612d2460608601612300565b166084890152613a5d565b1660a4860152612d4160a08201613a50565b151560c486015236819003601e190160c082013581811215612267578201602081359101936001600160401b03821161226757606082023603851361226757819061010060e48a015252610144870193905f905b808210612f7e5750505060e0820135908112156122675701803560208201926001600160401b038211612267578160051b9081360385136122675791879594936023198785030161010488015281845260208085019385010194935f9160fe19813603015b848410612e715750505050505050602093916001600160801b03848093039316905af190811561225c575f91612e3f575b50816020916001938a015201990198612c3d565b90506020813d8211612e69575b81612e5960209383612455565b8101031261226757516001612e2b565b3d9150612e4c565b919395979850919395601f19848203018752873582811215612267578301602081013582526001600160a01b03612eaa60408301612300565b1660208301526060810135603e193683900301811215612267578101602081013591906040016001600160401b03831161226757823603811361226757829060e060408601528160e08601526101008501375f61010083850101526001600160801b03612f1960808301613a5d565b16606084015260a0810135608084015260c081013563ffffffff60e01b81168091036122675783602093612f5b60e086956101009560a060019a015201613a50565b151560c0830152601f80199101160101990197019401918a989796959391612dfa565b90919460608060019288358152838060a01b03612f9d60208b01612300565b1660208201526001600160801b03612fb760408b01613a5d565b166040820152019601920190612d95565b9050612fd381613a3c565b90612c9f565b50612fe660a0840161309f565b15612c9a565b5094935095509550506020925020910135907fd04cd9af813f6f0b56e9411a6ee6a84eb5ac35a96f0c33d2e3a07d65baa8f4186020604051848152a15f5260205260405f2090565b5050507fc5d2460186f7233c927e7db2dcc703c0e500b653ca82273b7bfad8045d85a47090565b6306d6c38360e01b5f5260045ffd5b903590601e198136030182121561226757018035906001600160401b03821161226757602001918160061b3603831361226757565b3580151581036122675790565b903590605e1981360301821215612267570190565b919082018092116124b957565b60c0820160016130de8285612b80565b905011613480576130ef8184612b80565b905015613034576131009083612b80565b1561262657803590607e19813603018212156122675701916060830190602061312883612750565b91019065ffffffffffff8061313c84612750565b16911610156134715761314e82612750565b65ffffffffffff80600286015460201c169116106134625761319465ffffffffffff61318d6131878261318087612750565b1687613a96565b93612750565b1684613a96565b1115613453576007820154600690920180548435946001600160a01b0394851694604082019391925f916020911660446131da836131d289896130ac565b01358b6130c1565b604051948593849263095ea7b360e01b84528c600485015260248401525af190811561225c575f91613418575b5015613409575460405163394f179b60e11b81526001600160a01b03909116600482015260248101959095526020818101356044870152856064815f885af194851561225c575f956133d1575b509061325f916130ac565b9161326982612750565b9260405193637fbe95b560e01b85526040600486015260a48501918035601e1982360301811215612267578101602081359101936001600160401b038211612267578160061b360385136122675760606044890152819052869360c485019392915f5b81811061339957505050836020959365ffffffffffff829484895f9601356064860152613302604060018060a01b039201612300565b16608485015216602483015203925af191821561225c575f92613363575b5061332a90612750565b6040519160208301938452604083015265ffffffffffff60d01b9060d01b1660608201526046815261335d606682612455565b51902090565b9091506020813d602011613391575b8161337f60209383612455565b8101031261226757519061332a613320565b3d9150613372565b919550919293604080600192838060a01b036133b48a612300565b1681526020890135602082015201960191019188959493926132cc565b919094506020823d602011613401575b816133ee60209383612455565b810103126122675790519361325f613254565b3d91506133e1565b6367b9145160e01b5f5260045ffd5b90506020813d60201161344b575b8161343360209383612455565b8101031261226757518015158103612267575f613207565b3d9150613426565b6308027f7760e31b5f5260045ffd5b637bde91e760e11b5f5260045ffd5b63087a19ab60e41b5f5260045ffd5b633249ceed60e11b5f5260045ffd5b903590601e198136030182121561226757018035906001600160401b0382116122675760200191813603831361226757565b9060e0810160016134d28284612b80565b905011613746576134e38183612b80565b905015613034576134f391612b80565b1561262657803590609e1981360301821215612267570160608101906135198282612b80565b9050156137375765ffffffffffff600284015460201c169161353b83426124ac565b61354a601686015480926124cd565b93608084013594600181018091116124b95785036137285761356f85613575936128b5565b906130c1565b936135846017820154866124ac565b42106137195761359390613abe565b93426005860154101561370a576135e89060408401956135da6135e26135b9898861348f565b91906135c5888a612b80565b9490916135d2368c6124eb565b943691612513565b93369161256f565b926128c8565b7fa1a3b42179ad30022438a1ea333b38eaf4a7329beee5e2b8111c0dcd4e08821c6020604051858152a160a08236031261226757604051936136298561243a565b61363336846124eb565b8552356001600160401b03811161226757820136601f8201121561226757613662903690602081359101612513565b602085015235906001600160401b038211612267570136601f820112156122675761369490369060208135910161256f565b91826040820152816060820152519160208351930151906040519283926020840195865260408401526060830160208351919301905f5b8181106136e85750505081520380825261335d9060200182612455565b82516001600160a01b03168552869550602094850194909201916001016136cb565b6333fc8f5160e21b5f5260045ffd5b6372a84ce560e11b5f5260045ffd5b6343d3f5bf60e01b5f5260045ffd5b636c2bf3db60e01b5f5260045ffd5b631d3fc6bf60e21b5f5260045ffd5b909493919365ffffffffffff600283015460201c166137744284613a96565b61378c613786601686015480936128b5565b836130c1565b9182841080806139b4575b1561398257508310613974576137ad90836130c1565b10613965576137bd905b826139f5565b94601960f81b5f523060601b60025260165260365f209360028110156122805780613851575050600181036138425715612626576137fe816138059261348f565b3691612513565b9160608351036138335782602061383094015160606040830151920151926001815491015490613ad9565b90565b632ce466bf60e01b5f5260045ffd5b6360a1ea7760e01b5f5260045ffd5b9193916001146138645750505050505f90565b61388990600860048796970154910154906001600160801b038260801c9216906139ca565b925f9260035f9201915b8681101561395a576138c26138b96138b36137fe8460051b86018661348f565b86613d3a565b90929192613d74565b6001600160a01b0381165f9081526020859052604090205460ff166138ed575b506001905b01613893565b6001600160a01b03165f9081527ff02b465737fa6045c2ff53fb2df43c66916ac2166fa303264668fb2f6a1d8c0060205260409020805c1561393257506001906138e7565b94600161394092965d61283f565b9385851461394e575f6138e2565b50505050505050600190565b505050505050505f90565b63046bb1e560e51b5f5260045ffd5b62f4462b60e01b5f5260045ffd5b93929150504282116139a5576137bd9261399d575b506137b7565b90505f613997565b6347860b9760e01b5f5260045ffd5b506139c36018870154856130c1565b4210613797565b6001600160801b038092160291166139e281836124cd565b9181156124d75706156138305760010190565b90613a009082613cda565b15613a0b57600f0190565b60090190565b60ff5f516020613eba5f395f51905f525460401c1615613a2d57565b631afcd79f60e31b5f5260045ffd5b356001600160801b03811681036122675790565b3590811515820361226757565b35906001600160801b038216820361226757565b6040519190601f01601f191682016001600160401b0381118382101761226757604052565b6016613ab56138309365ffffffffffff600285015460201c16906124ac565b910154906124cd565b613ac84282613cda565b15613ad35760090190565b600f0190565b9293919490613ae88587613dd4565b15613c7b578215613c7b5770014551231950b75fc4402da1732fc9bebe19831015613c7b576001169061010e613b1d81613a71565b9160883684376002600188160160888401538760898401526002840160a984015360aa830186905260ca8301527e300046524f53542d736563703235366b312d4b454343414b3235362d76316360ea8301526303430b6160e51b61010a830152812060cc820181815290600260ec84016001815360428420809318845253604270014551231950b75fc4402da1732fc9bebe19922060801c6001600160401b0360801b8260801b16179070014551231950b75fc4402da1732fc9bebe1990600160c01b9060401c0908801561395a5784601b6080945f9660209870014551231950b75fc4402da1732fc9bebe19910970014551231950b75fc4402da1732fc9bebe19038552018684015280604084015270014551231950b75fc4402da1732fc9bebe19910970014551231950b75fc4402da1732fc9bebe1903606082015282805260015afa505f51915f5260205260018060a01b0360405f20161490565b5050505050505f90565b613c8d612763565b5060028101546005820154604051929091613ccd916004916001600160a01b0316613cb78661243a565b613cc08261248e565b86526020860152016125c3565b6040830152606082015290565b906014600e830154920154808314613d2b57818184109311918215911115918190613d24575b15613d155782613d0f57505090565b14919050565b634c38ae9560e11b5f5260045ffd5b5081613d00565b63f26224af60e01b5f5260045ffd5b8151919060418303613d6a57613d639250602082015190606060408401519301515f1a90613df7565b9192909190565b50505f9160029190565b60048110156122805780613d86575050565b60018103613d9d5763f645eedf60e01b5f5260045ffd5b60028103613db8575063fce698f760e01b5f5260045260245ffd5b600314613dc25750565b6335e2f38360e21b5f5260045260245ffd5b6401000003d01990600790829081818009900908906401000003d0199080091490565b91907f7fffffffffffffffffffffffffffffff5d576e7357a4501ddfe92f46681b20a08411613e6e579160209360809260ff5f9560405194855216868401526040830152606082015282805260015afa1561225c575f516001600160a01b03811615613e6457905f905f90565b505f906001905f90565b5050505f916003919056fe9016d09d72d40fdae2fd8ceac6b6234c7706214fd39c1cd1e609a0528c1993005c09ca1b9b8127a4fd9f3c384aac59b661441e820e17733753ff5f2e86e1e000f0c57e16840df040f15088dc2f81fe391c3923bec73e23a9662efc9c229c6a00f0c57e16840df040f15088dc2f81fe391c3923bec73e23a9662efc9c229c6a00","linkReferences":{}},"methodIdentifiers":{"areValidators(address[])":"8f381dbe","codeState(bytes32)":"c13911e8","codesStates(bytes32[])":"82bdeaad","commitBatch((bytes32,uint48,bytes32,uint8,((address,bytes32,bool,address,uint128,bool,(bytes32,address,uint128)[],(bytes32,address,bytes,uint128,(bytes32,bytes4),bool)[])[],bytes32)[],(bytes32,bool)[],((uint256,bytes32),((address,uint256)[],uint256,address),uint48)[],((uint256,uint256),bytes,address[],uint256)[]),uint8,bytes[])":"b24fcac0","computeSettings()":"84d22a4f","createProgram(bytes32,bytes32,address)":"3683c4d2","createProgramWithAbiInterface(bytes32,bytes32,address,address)":"0c18d277","genesisBlockHash()":"28e24b3d","genesisTimestamp()":"cacf66ab","initialize(address,address,address,address,uint256,uint256,uint256,(uint256,uint256),bytes,address[])":"53f7fd48","isValidator(address)":"facd743b","latestCommittedBatchHash()":"71a8cf2d","latestCommittedBatchTimestamp()":"d456fd51","lookupGenesisHash()":"8b1edf1e","middleware()":"f4f20ac0","mirrorImpl()":"e6fabc09","owner()":"8da5cb5b","programCodeId(address)":"9067088e","programsCodeIds(address[])":"baaf0201","programsCount()":"96a2ddfa","reinitialize()":"6c2eb350","renounceOwnership()":"715018a6","requestCodeValidation(bytes32)":"120e3f1e","setMirror(address)":"3d43b418","signingThresholdFraction()":"e3a6684f","storageView()":"c2eb812f","timelines()":"9eb939a8","transferOwnership(address)":"f2fde38b","validatedCodesCount()":"007a32e7","validators()":"ca1e7819","validatorsAggregatedPublicKey()":"3bd109fa","validatorsCount()":"ed612f8c","validatorsThreshold()":"edc87225","validatorsVerifiableSecretSharingCommitment()":"a5d53a44","wrappedVara()":"88f50cf0"},"storageLayout":{"storage":[],"types":{}},"id":157}