{"abi":[{"type":"constructor","inputs":[],"stateMutability":"nonpayable"},{"type":"function","name":"DOMAIN_SEPARATOR","inputs":[],"outputs":[{"name":"","type":"bytes32","internalType":"bytes32"}],"stateMutability":"view"},{"type":"function","name":"allowance","inputs":[{"name":"owner","type":"address","internalType":"address"},{"name":"spender","type":"address","internalType":"address"}],"outputs":[{"name":"","type":"uint256","internalType":"uint256"}],"stateMutability":"view"},{"type":"function","name":"approve","inputs":[{"name":"spender","type":"address","internalType":"address"},{"name":"value","type":"uint256","internalType":"uint256"}],"outputs":[{"name":"","type":"bool","internalType":"bool"}],"stateMutability":"nonpayable"},{"type":"function","name":"balanceOf","inputs":[{"name":"account","type":"address","internalType":"address"}],"outputs":[{"name":"","type":"uint256","internalType":"uint256"}],"stateMutability":"view"},{"type":"function","name":"burn","inputs":[{"name":"value","type":"uint256","internalType":"uint256"}],"outputs":[],"stateMutability":"nonpayable"},{"type":"function","name":"burnFrom","inputs":[{"name":"account","type":"address","internalType":"address"},{"name":"value","type":"uint256","internalType":"uint256"}],"outputs":[],"stateMutability":"nonpayable"},{"type":"function","name":"decimals","inputs":[],"outputs":[{"name":"","type":"uint8","internalType":"uint8"}],"stateMutability":"view"},{"type":"function","name":"eip712Domain","inputs":[],"outputs":[{"name":"fields","type":"bytes1","internalType":"bytes1"},{"name":"name","type":"string","internalType":"string"},{"name":"version","type":"string","internalType":"string"},{"name":"chainId","type":"uint256","internalType":"uint256"},{"name":"verifyingContract","type":"address","internalType":"address"},{"name":"salt","type":"bytes32","internalType":"bytes32"},{"name":"extensions","type":"uint256[]","internalType":"uint256[]"}],"stateMutability":"view"},{"type":"function","name":"initialize","inputs":[{"name":"initialOwner","type":"address","internalType":"address"}],"outputs":[],"stateMutability":"nonpayable"},{"type":"function","name":"mint","inputs":[{"name":"to","type":"address","internalType":"address"},{"name":"amount","type":"uint256","internalType":"uint256"}],"outputs":[],"stateMutability":"nonpayable"},{"type":"function","name":"name","inputs":[],"outputs":[{"name":"","type":"string","internalType":"string"}],"stateMutability":"view"},{"type":"function","name":"nonces","inputs":[{"name":"owner","type":"address","internalType":"address"}],"outputs":[{"name":"","type":"uint256","internalType":"uint256"}],"stateMutability":"view"},{"type":"function","name":"owner","inputs":[],"outputs":[{"name":"","type":"address","internalType":"address"}],"stateMutability":"view"},{"type":"function","name":"permit","inputs":[{"name":"owner","type":"address","internalType":"address"},{"name":"spender","type":"address","internalType":"address"},{"name":"value","type":"uint256","internalType":"uint256"},{"name":"deadline","type":"uint256","internalType":"uint256"},{"name":"v","type":"uint8","internalType":"uint8"},{"name":"r","type":"bytes32","internalType":"bytes32"},{"name":"s","type":"bytes32","internalType":"bytes32"}],"outputs":[],"stateMutability":"nonpayable"},{"type":"function","name":"renounceOwnership","inputs":[],"outputs":[],"stateMutability":"nonpayable"},{"type":"function","name":"symbol","inputs":[],"outputs":[{"name":"","type":"string","internalType":"string"}],"stateMutability":"view"},{"type":"function","name":"totalSupply","inputs":[],"outputs":[{"name":"","type":"uint256","internalType":"uint256"}],"stateMutability":"view"},{"type":"function","name":"transfer","inputs":[{"name":"to","type":"address","internalType":"address"},{"name":"value","type":"uint256","internalType":"uint256"}],"outputs":[{"name":"","type":"bool","internalType":"bool"}],"stateMutability":"nonpayable"},{"type":"function","name":"transferFrom","inputs":[{"name":"from","type":"address","internalType":"address"},{"name":"to","type":"address","internalType":"address"},{"name":"value","type":"uint256","internalType":"uint256"}],"outputs":[{"name":"","type":"bool","internalType":"bool"}],"stateMutability":"nonpayable"},{"type":"function","name":"transferOwnership","inputs":[{"name":"newOwner","type":"address","internalType":"address"}],"outputs":[],"stateMutability":"nonpayable"},{"type":"event","name":"Approval","inputs":[{"name":"owner","type":"address","indexed":true,"internalType":"address"},{"name":"spender","type":"address","indexed":true,"internalType":"address"},{"name":"value","type":"uint256","indexed":false,"internalType":"uint256"}],"anonymous":false},{"type":"event","name":"EIP712DomainChanged","inputs":[],"anonymous":false},{"type":"event","name":"Initialized","inputs":[{"name":"version","type":"uint64","indexed":false,"internalType":"uint64"}],"anonymous":false},{"type":"event","name":"OwnershipTransferred","inputs":[{"name":"previousOwner","type":"address","indexed":true,"internalType":"address"},{"name":"newOwner","type":"address","indexed":true,"internalType":"address"}],"anonymous":false},{"type":"event","name":"Transfer","inputs":[{"name":"from","type":"address","indexed":true,"internalType":"address"},{"name":"to","type":"address","indexed":true,"internalType":"address"},{"name":"value","type":"uint256","indexed":false,"internalType":"uint256"}],"anonymous":false},{"type":"error","name":"ECDSAInvalidSignature","inputs":[]},{"type":"error","name":"ECDSAInvalidSignatureLength","inputs":[{"name":"length","type":"uint256","internalType":"uint256"}]},{"type":"error","name":"ECDSAInvalidSignatureS","inputs":[{"name":"s","type":"bytes32","internalType":"bytes32"}]},{"type":"error","name":"ERC20InsufficientAllowance","inputs":[{"name":"spender","type":"address","internalType":"address"},{"name":"allowance","type":"uint256","internalType":"uint256"},{"name":"needed","type":"uint256","internalType":"uint256"}]},{"type":"error","name":"ERC20InsufficientBalance","inputs":[{"name":"sender","type":"address","internalType":"address"},{"name":"balance","type":"uint256","internalType":"uint256"},{"name":"needed","type":"uint256","internalType":"uint256"}]},{"type":"error","name":"ERC20InvalidApprover","inputs":[{"name":"approver","type":"address","internalType":"address"}]},{"type":"error","name":"ERC20InvalidReceiver","inputs":[{"name":"receiver","type":"address","internalType":"address"}]},{"type":"error","name":"ERC20InvalidSender","inputs":[{"name":"sender","type":"address","internalType":"address"}]},{"type":"error","name":"ERC20InvalidSpender","inputs":[{"name":"spender","type":"address","internalType":"address"}]},{"type":"error","name":"ERC2612ExpiredSignature","inputs":[{"name":"deadline","type":"uint256","internalType":"uint256"}]},{"type":"error","name":"ERC2612InvalidSigner","inputs":[{"name":"signer","type":"address","internalType":"address"},{"name":"owner","type":"address","internalType":"address"}]},{"type":"error","name":"InvalidAccountNonce","inputs":[{"name":"account","type":"address","internalType":"address"},{"name":"currentNonce","type":"uint256","internalType":"uint256"}]},{"type":"error","name":"InvalidInitialization","inputs":[]},{"type":"error","name":"NotInitializing","inputs":[]},{"type":"error","name":"OwnableInvalidOwner","inputs":[{"name":"owner","type":"address","internalType":"address"}]},{"type":"error","name":"OwnableUnauthorizedAccount","inputs":[{"name":"account","type":"address","internalType":"address"}]}],"bytecode":{"object":"0x6080604052348015600e575f80fd5b5060156019565b60c9565b7ff0c57e16840df040f15088dc2f81fe391c3923bec73e23a9662efc9c229c6a00805468010000000000000000900460ff161560685760405163f92ee8a960e01b815260040160405180910390fd5b80546001600160401b039081161460c65780546001600160401b0319166001600160401b0390811782556040519081527fc7f505b2f371ae2175ee4913f4499e1f2633a7b5936321eed1cdaeb6115181d29060200160405180910390a15b50565b6116ff806100d65f395ff3fe608060405234801561000f575f80fd5b5060043610610127575f3560e01c806379cc6790116100a9578063a9059cbb1161006e578063a9059cbb1461028d578063c4d66de8146102a0578063d505accf146102b3578063dd62ed3e146102c6578063f2fde38b146102d9575f80fd5b806379cc67901461020a5780637ecebe001461021d57806384b0196e146102305780638da5cb5b1461024b57806395d89b4114610285575f80fd5b80633644e515116100ef5780633644e515146101bf57806340c10f19146101c757806342966c68146101dc57806370a08231146101ef578063715018a614610202575f80fd5b806306fdde031461012b578063095ea7b31461014957806318160ddd1461016c57806323b872dd1461019d578063313ce567146101b0575b5f80fd5b6101336102ec565b6040516101409190611201565b60405180910390f35b61015c610157366004611235565b610391565b6040519015158152602001610140565b7f52c63247e1f47db19d5ce0460030c497f067ca4cebf71ba98eeadabe20bace02545b604051908152602001610140565b61015c6101ab36600461125d565b6103aa565b60405160128152602001610140565b61018f6103cd565b6101da6101d5366004611235565b6103db565b005b6101da6101ea366004611297565b6103f1565b61018f6101fd3660046112ae565b6103fe565b6101da61042e565b6101da610218366004611235565b610441565b61018f61022b3660046112ae565b610456565b610238610460565b60405161014097969594939291906112c7565b7f9016d09d72d40fdae2fd8ceac6b6234c7706214fd39c1cd1e609a0528c199300546040516001600160a01b039091168152602001610140565b61013361050e565b61015c61029b366004611235565b61054c565b6101da6102ae3660046112ae565b610559565b6101da6102c136600461135d565b610709565b61018f6102d43660046113ca565b61085e565b6101da6102e73660046112ae565b6108a7565b60605f5f8051602061168a8339815191525b905080600301805461030f906113fb565b80601f016020809104026020016040519081016040528092919081815260200182805461033b906113fb565b80156103865780601f1061035d57610100808354040283529160200191610386565b820191905f5260205f20905b81548152906001019060200180831161036957829003601f168201915b505050505091505090565b5f3361039e8185856108e1565b60019150505b92915050565b5f336103b78582856108f3565b6103c2858585610956565b506001949350505050565b5f6103d66109b3565b905090565b6103e36109bc565b6103ed8282610a17565b5050565b6103fb3382610a4b565b50565b5f805f8051602061168a8339815191525b6001600160a01b039093165f9081526020939093525050604090205490565b6104366109bc565b61043f5f610a7f565b565b61044c8233836108f3565b6103ed8282610a4b565b5f6103a482610aef565b5f60608082808083815f805160206116aa833981519152805490915015801561048b57506001810154155b6104d45760405162461bcd60e51b81526020600482015260156024820152741152540dcc4c8e88155b9a5b9a5d1a585b1a5e9959605a1b60448201526064015b60405180910390fd5b6104dc610b17565b6104e4610b55565b604080515f80825260208201909252600f60f81b9c939b5091995046985030975095509350915050565b7f52c63247e1f47db19d5ce0460030c497f067ca4cebf71ba98eeadabe20bace0480546060915f8051602061168a8339815191529161030f906113fb565b5f3361039e818585610956565b7ff0c57e16840df040f15088dc2f81fe391c3923bec73e23a9662efc9c229c6a008054600160401b810460ff16159067ffffffffffffffff165f8115801561059e5750825b90505f8267ffffffffffffffff1660011480156105ba5750303b155b9050811580156105c8575080155b156105e65760405163f92ee8a960e01b815260040160405180910390fd5b845467ffffffffffffffff19166001178555831561061057845460ff60401b1916600160401b1785555b61065b6040518060400160405280600c81526020016b57726170706564205661726160a01b81525060405180604001604052806005815260200164575641524160d81b815250610b6b565b610663610b7d565b61066c86610b85565b6106996040518060400160405280600c81526020016b57726170706564205661726160a01b815250610b96565b6106bb866106a96012600a61153e565b6106b690620f424061154c565b610a17565b831561070157845460ff60401b19168555604051600181527fc7f505b2f371ae2175ee4913f4499e1f2633a7b5936321eed1cdaeb6115181d29060200160405180910390a15b505050505050565b8342111561072d5760405163313c898160e11b8152600481018590526024016104cb565b5f7f6e71edae12b1b97f4d1f60370fef10105fa2faae0126114a169c64845d6126c98888886107978c6001600160a01b03165f9081527f5ab42ced628888259c08ac98db1eb0cf702fc1501344311d8b100cd1bfe4bb006020526040902080546001810190915590565b6040805160208101969096526001600160a01b0394851690860152929091166060840152608083015260a082015260c0810186905260e0016040516020818303038152906040528051906020012090505f6107f182610bc1565b90505f61080082878787610bed565b9050896001600160a01b0316816001600160a01b031614610847576040516325c0072360e11b81526001600160a01b0380831660048301528b1660248201526044016104cb565b6108528a8a8a6108e1565b50505050505050505050565b6001600160a01b039182165f9081527f52c63247e1f47db19d5ce0460030c497f067ca4cebf71ba98eeadabe20bace016020908152604080832093909416825291909152205490565b6108af6109bc565b6001600160a01b0381166108d857604051631e4fbdf760e01b81525f60048201526024016104cb565b6103fb81610a7f565b6108ee8383836001610c19565b505050565b5f6108fe848461085e565b90505f198114610950578181101561094257604051637dc7a0d960e11b81526001600160a01b038416600482015260248101829052604481018390526064016104cb565b61095084848484035f610c19565b50505050565b6001600160a01b03831661097f57604051634b637e8f60e11b81525f60048201526024016104cb565b6001600160a01b0382166109a85760405163ec442f0560e01b81525f60048201526024016104cb565b6108ee838383610cfd565b5f6103d6610e36565b336109ee7f9016d09d72d40fdae2fd8ceac6b6234c7706214fd39c1cd1e609a0528c199300546001600160a01b031690565b6001600160a01b03161461043f5760405163118cdaa760e01b81523360048201526024016104cb565b6001600160a01b038216610a405760405163ec442f0560e01b81525f60048201526024016104cb565b6103ed5f8383610cfd565b6001600160a01b038216610a7457604051634b637e8f60e11b81525f60048201526024016104cb565b6103ed825f83610cfd565b7f9016d09d72d40fdae2fd8ceac6b6234c7706214fd39c1cd1e609a0528c19930080546001600160a01b031981166001600160a01b03848116918217845560405192169182907f8be0079c531659141344cd1fd0a4f28419497f9722a3daafe3b4186f6b6457e0905f90a3505050565b5f807f5ab42ced628888259c08ac98db1eb0cf702fc1501344311d8b100cd1bfe4bb0061040f565b7fa16a46d94261c7517cc8ff89f61c0ce93598e3c849801011dee649a6a557d10280546060915f805160206116aa8339815191529161030f906113fb565b60605f5f805160206116aa8339815191526102fe565b610b73610ea9565b6103ed8282610ef2565b61043f610ea9565b610b8d610ea9565b6103fb81610f42565b610b9e610ea9565b6103fb81604051806040016040528060018152602001603160f81b815250610f4a565b5f6103a4610bcd6109b3565b8360405161190160f01b8152600281019290925260228201526042902090565b5f805f80610bfd88888888610fa9565b925092509250610c0d8282611071565b50909695505050505050565b5f8051602061168a8339815191526001600160a01b038516610c505760405163e602df0560e01b81525f60048201526024016104cb565b6001600160a01b038416610c7957604051634a1406b160e11b81525f60048201526024016104cb565b6001600160a01b038086165f90815260018301602090815260408083209388168352929052208390558115610cf657836001600160a01b0316856001600160a01b03167f8c5be1e5ebec7d5bd14f71427d1e84f3dd0314c0f7b2291e5b200ac8c7c3b92585604051610ced91815260200190565b60405180910390a35b5050505050565b5f8051602061168a8339815191526001600160a01b038416610d375781816002015f828254610d2c9190611563565b90915550610da79050565b6001600160a01b0384165f9081526020829052604090205482811015610d895760405163391434e360e21b81526001600160a01b038616600482015260248101829052604481018490526064016104cb565b6001600160a01b0385165f9081526020839052604090209083900390555b6001600160a01b038316610dc5576002810180548390039055610de3565b6001600160a01b0383165f9081526020829052604090208054830190555b826001600160a01b0316846001600160a01b03167fddf252ad1be2c89b69c2b068fc378daa952ba7f163c4a11628f55a4df523b3ef84604051610e2891815260200190565b60405180910390a350505050565b5f7f8b73c3c69bb8fe3d512ecc4cf759cc79239f7b179b0ffacaa9a75d522b39400f610e60611129565b610e68611191565b60408051602081019490945283019190915260608201524660808201523060a082015260c00160405160208183030381529060405280519060200120905090565b7ff0c57e16840df040f15088dc2f81fe391c3923bec73e23a9662efc9c229c6a0054600160401b900460ff1661043f57604051631afcd79f60e31b815260040160405180910390fd5b610efa610ea9565b5f8051602061168a8339815191527f52c63247e1f47db19d5ce0460030c497f067ca4cebf71ba98eeadabe20bace03610f3384826115ba565b506004810161095083826115ba565b6108af610ea9565b610f52610ea9565b5f805160206116aa8339815191527fa16a46d94261c7517cc8ff89f61c0ce93598e3c849801011dee649a6a557d102610f8b84826115ba565b5060038101610f9a83826115ba565b505f8082556001909101555050565b5f80807f7fffffffffffffffffffffffffffffff5d576e7357a4501ddfe92f46681b20a0841115610fe257505f91506003905082611067565b604080515f808252602082018084528a905260ff891692820192909252606081018790526080810186905260019060a0016020604051602081039080840390855afa158015611033573d5f803e3d5ffd5b5050604051601f1901519150506001600160a01b03811661105e57505f925060019150829050611067565b92505f91508190505b9450945094915050565b5f82600381111561108457611084611675565b0361108d575050565b60018260038111156110a1576110a1611675565b036110bf5760405163f645eedf60e01b815260040160405180910390fd5b60028260038111156110d3576110d3611675565b036110f45760405163fce698f760e01b8152600481018290526024016104cb565b600382600381111561110857611108611675565b036103ed576040516335e2f38360e21b8152600481018290526024016104cb565b5f5f805160206116aa83398151915281611141610b17565b80519091501561115957805160209091012092915050565b81548015611168579392505050565b7fc5d2460186f7233c927e7db2dcc703c0e500b653ca82273b7bfad8045d85a470935050505090565b5f5f805160206116aa833981519152816111a9610b55565b8051909150156111c157805160209091012092915050565b60018201548015611168579392505050565b5f81518084528060208401602086015e5f602082860101526020601f19601f83011685010191505092915050565b602081525f61121360208301846111d3565b9392505050565b80356001600160a01b0381168114611230575f80fd5b919050565b5f8060408385031215611246575f80fd5b61124f8361121a565b946020939093013593505050565b5f805f6060848603121561126f575f80fd5b6112788461121a565b92506112866020850161121a565b929592945050506040919091013590565b5f602082840312156112a7575f80fd5b5035919050565b5f602082840312156112be575f80fd5b6112138261121a565b60ff60f81b8816815260e060208201525f6112e560e08301896111d3565b82810360408401526112f781896111d3565b606084018890526001600160a01b038716608085015260a0840186905283810360c0850152845180825260208087019350909101905f5b8181101561134c57835183526020938401939092019160010161132e565b50909b9a5050505050505050505050565b5f805f805f805f60e0888a031215611373575f80fd5b61137c8861121a565b965061138a6020890161121a565b95506040880135945060608801359350608088013560ff811681146113ad575f80fd5b9699959850939692959460a0840135945060c09093013592915050565b5f80604083850312156113db575f80fd5b6113e48361121a565b91506113f26020840161121a565b90509250929050565b600181811c9082168061140f57607f821691505b60208210810361142d57634e487b7160e01b5f52602260045260245ffd5b50919050565b634e487b7160e01b5f52604160045260245ffd5b634e487b7160e01b5f52601160045260245ffd5b6001815b60018411156114965780850481111561147a5761147a611447565b600184161561148857908102905b60019390931c92800261145f565b935093915050565b5f826114ac575060016103a4565b816114b857505f6103a4565b81600181146114ce57600281146114d8576114f4565b60019150506103a4565b60ff8411156114e9576114e9611447565b50506001821b6103a4565b5060208310610133831016604e8410600b8410161715611517575081810a6103a4565b6115235f19848461145b565b805f190482111561153657611536611447565b029392505050565b5f61121360ff84168361149e565b80820281158282048414176103a4576103a4611447565b808201808211156103a4576103a4611447565b601f8211156108ee57805f5260205f20601f840160051c8101602085101561159b5750805b601f840160051c820191505b81811015610cf6575f81556001016115a7565b815167ffffffffffffffff8111156115d4576115d4611433565b6115e8816115e284546113fb565b84611576565b6020601f82116001811461161a575f83156116035750848201515b5f19600385901b1c1916600184901b178455610cf6565b5f84815260208120601f198516915b828110156116495787850151825560209485019460019092019101611629565b508482101561166657868401515f19600387901b60f8161c191681555b50505050600190811b01905550565b634e487b7160e01b5f52602160045260245ffdfe52c63247e1f47db19d5ce0460030c497f067ca4cebf71ba98eeadabe20bace00a16a46d94261c7517cc8ff89f61c0ce93598e3c849801011dee649a6a557d100a2646970667358221220dc30e15eefd78819cd3c4f7e10c7b2889fc0940716f07eec221c499a7359ec4a64736f6c634300081a0033","linkReferences":{}},"methodIdentifiers":{"DOMAIN_SEPARATOR()":"3644e515","allowance(address,address)":"dd62ed3e","approve(address,uint256)":"095ea7b3","balanceOf(address)":"70a08231","burn(uint256)":"42966c68","burnFrom(address,uint256)":"79cc6790","decimals()":"313ce567","eip712Domain()":"84b0196e","initialize(address)":"c4d66de8","mint(address,uint256)":"40c10f19","name()":"06fdde03","nonces(address)":"7ecebe00","owner()":"8da5cb5b","permit(address,address,uint256,uint256,uint8,bytes32,bytes32)":"d505accf","renounceOwnership()":"715018a6","symbol()":"95d89b41","totalSupply()":"18160ddd","transfer(address,uint256)":"a9059cbb","transferFrom(address,address,uint256)":"23b872dd","transferOwnership(address)":"f2fde38b"},"storageLayout":{"storage":[],"types":{}},"id":79}