{"abi":[{"type":"constructor","inputs":[],"stateMutability":"nonpayable"},{"type":"function","name":"DOMAIN_SEPARATOR","inputs":[],"outputs":[{"name":"","type":"bytes32","internalType":"bytes32"}],"stateMutability":"view"},{"type":"function","name":"allowance","inputs":[{"name":"owner","type":"address","internalType":"address"},{"name":"spender","type":"address","internalType":"address"}],"outputs":[{"name":"","type":"uint256","internalType":"uint256"}],"stateMutability":"view"},{"type":"function","name":"approve","inputs":[{"name":"spender","type":"address","internalType":"address"},{"name":"value","type":"uint256","internalType":"uint256"}],"outputs":[{"name":"","type":"bool","internalType":"bool"}],"stateMutability":"nonpayable"},{"type":"function","name":"balanceOf","inputs":[{"name":"account","type":"address","internalType":"address"}],"outputs":[{"name":"","type":"uint256","internalType":"uint256"}],"stateMutability":"view"},{"type":"function","name":"burn","inputs":[{"name":"value","type":"uint256","internalType":"uint256"}],"outputs":[],"stateMutability":"nonpayable"},{"type":"function","name":"burnFrom","inputs":[{"name":"account","type":"address","internalType":"address"},{"name":"value","type":"uint256","internalType":"uint256"}],"outputs":[],"stateMutability":"nonpayable"},{"type":"function","name":"decimals","inputs":[],"outputs":[{"name":"","type":"uint8","internalType":"uint8"}],"stateMutability":"view"},{"type":"function","name":"eip712Domain","inputs":[],"outputs":[{"name":"fields","type":"bytes1","internalType":"bytes1"},{"name":"name","type":"string","internalType":"string"},{"name":"version","type":"string","internalType":"string"},{"name":"chainId","type":"uint256","internalType":"uint256"},{"name":"verifyingContract","type":"address","internalType":"address"},{"name":"salt","type":"bytes32","internalType":"bytes32"},{"name":"extensions","type":"uint256[]","internalType":"uint256[]"}],"stateMutability":"view"},{"type":"function","name":"gasToValue","inputs":[{"name":"gas","type":"uint64","internalType":"uint64"}],"outputs":[{"name":"","type":"uint256","internalType":"uint256"}],"stateMutability":"view"},{"type":"function","name":"initialize","inputs":[{"name":"initialOwner","type":"address","internalType":"address"},{"name":"_valuePerGas","type":"uint128","internalType":"uint128"}],"outputs":[],"stateMutability":"nonpayable"},{"type":"function","name":"mint","inputs":[{"name":"to","type":"address","internalType":"address"},{"name":"amount","type":"uint256","internalType":"uint256"}],"outputs":[],"stateMutability":"nonpayable"},{"type":"function","name":"name","inputs":[],"outputs":[{"name":"","type":"string","internalType":"string"}],"stateMutability":"view"},{"type":"function","name":"nonces","inputs":[{"name":"owner","type":"address","internalType":"address"}],"outputs":[{"name":"","type":"uint256","internalType":"uint256"}],"stateMutability":"view"},{"type":"function","name":"owner","inputs":[],"outputs":[{"name":"","type":"address","internalType":"address"}],"stateMutability":"view"},{"type":"function","name":"permit","inputs":[{"name":"owner","type":"address","internalType":"address"},{"name":"spender","type":"address","internalType":"address"},{"name":"value","type":"uint256","internalType":"uint256"},{"name":"deadline","type":"uint256","internalType":"uint256"},{"name":"v","type":"uint8","internalType":"uint8"},{"name":"r","type":"bytes32","internalType":"bytes32"},{"name":"s","type":"bytes32","internalType":"bytes32"}],"outputs":[],"stateMutability":"nonpayable"},{"type":"function","name":"reinitialize","inputs":[],"outputs":[],"stateMutability":"nonpayable"},{"type":"function","name":"renounceOwnership","inputs":[],"outputs":[],"stateMutability":"nonpayable"},{"type":"function","name":"setValuePerGas","inputs":[{"name":"_valuePerGas","type":"uint128","internalType":"uint128"}],"outputs":[],"stateMutability":"nonpayable"},{"type":"function","name":"symbol","inputs":[],"outputs":[{"name":"","type":"string","internalType":"string"}],"stateMutability":"view"},{"type":"function","name":"totalSupply","inputs":[],"outputs":[{"name":"","type":"uint256","internalType":"uint256"}],"stateMutability":"view"},{"type":"function","name":"transfer","inputs":[{"name":"to","type":"address","internalType":"address"},{"name":"value","type":"uint256","internalType":"uint256"}],"outputs":[{"name":"","type":"bool","internalType":"bool"}],"stateMutability":"nonpayable"},{"type":"function","name":"transferFrom","inputs":[{"name":"from","type":"address","internalType":"address"},{"name":"to","type":"address","internalType":"address"},{"name":"value","type":"uint256","internalType":"uint256"}],"outputs":[{"name":"","type":"bool","internalType":"bool"}],"stateMutability":"nonpayable"},{"type":"function","name":"transferOwnership","inputs":[{"name":"newOwner","type":"address","internalType":"address"}],"outputs":[],"stateMutability":"nonpayable"},{"type":"function","name":"valuePerGas","inputs":[],"outputs":[{"name":"","type":"uint128","internalType":"uint128"}],"stateMutability":"view"},{"type":"event","name":"Approval","inputs":[{"name":"owner","type":"address","indexed":true,"internalType":"address"},{"name":"spender","type":"address","indexed":true,"internalType":"address"},{"name":"value","type":"uint256","indexed":false,"internalType":"uint256"}],"anonymous":false},{"type":"event","name":"EIP712DomainChanged","inputs":[],"anonymous":false},{"type":"event","name":"Initialized","inputs":[{"name":"version","type":"uint64","indexed":false,"internalType":"uint64"}],"anonymous":false},{"type":"event","name":"OwnershipTransferred","inputs":[{"name":"previousOwner","type":"address","indexed":true,"internalType":"address"},{"name":"newOwner","type":"address","indexed":true,"internalType":"address"}],"anonymous":false},{"type":"event","name":"Transfer","inputs":[{"name":"from","type":"address","indexed":true,"internalType":"address"},{"name":"to","type":"address","indexed":true,"internalType":"address"},{"name":"value","type":"uint256","indexed":false,"internalType":"uint256"}],"anonymous":false},{"type":"error","name":"ECDSAInvalidSignature","inputs":[]},{"type":"error","name":"ECDSAInvalidSignatureLength","inputs":[{"name":"length","type":"uint256","internalType":"uint256"}]},{"type":"error","name":"ECDSAInvalidSignatureS","inputs":[{"name":"s","type":"bytes32","internalType":"bytes32"}]},{"type":"error","name":"ERC20InsufficientAllowance","inputs":[{"name":"spender","type":"address","internalType":"address"},{"name":"allowance","type":"uint256","internalType":"uint256"},{"name":"needed","type":"uint256","internalType":"uint256"}]},{"type":"error","name":"ERC20InsufficientBalance","inputs":[{"name":"sender","type":"address","internalType":"address"},{"name":"balance","type":"uint256","internalType":"uint256"},{"name":"needed","type":"uint256","internalType":"uint256"}]},{"type":"error","name":"ERC20InvalidApprover","inputs":[{"name":"approver","type":"address","internalType":"address"}]},{"type":"error","name":"ERC20InvalidReceiver","inputs":[{"name":"receiver","type":"address","internalType":"address"}]},{"type":"error","name":"ERC20InvalidSender","inputs":[{"name":"sender","type":"address","internalType":"address"}]},{"type":"error","name":"ERC20InvalidSpender","inputs":[{"name":"spender","type":"address","internalType":"address"}]},{"type":"error","name":"ERC2612ExpiredSignature","inputs":[{"name":"deadline","type":"uint256","internalType":"uint256"}]},{"type":"error","name":"ERC2612InvalidSigner","inputs":[{"name":"signer","type":"address","internalType":"address"},{"name":"owner","type":"address","internalType":"address"}]},{"type":"error","name":"InvalidAccountNonce","inputs":[{"name":"account","type":"address","internalType":"address"},{"name":"currentNonce","type":"uint256","internalType":"uint256"}]},{"type":"error","name":"InvalidInitialization","inputs":[]},{"type":"error","name":"NotInitializing","inputs":[]},{"type":"error","name":"OwnableInvalidOwner","inputs":[{"name":"owner","type":"address","internalType":"address"}]},{"type":"error","name":"OwnableUnauthorizedAccount","inputs":[{"name":"account","type":"address","internalType":"address"}]}],"bytecode":{"object":"0x6080604052348015600e575f80fd5b5060156019565b60c9565b7ff0c57e16840df040f15088dc2f81fe391c3923bec73e23a9662efc9c229c6a00805468010000000000000000900460ff161560685760405163f92ee8a960e01b815260040160405180910390fd5b80546001600160401b039081161460c65780546001600160401b0319166001600160401b0390811782556040519081527fc7f505b2f371ae2175ee4913f4499e1f2633a7b5936321eed1cdaeb6115181d29060200160405180910390a15b50565b6119cd806100d65f395ff3fe608060405234801561000f575f80fd5b5060043610610153575f3560e01c80637ecebe00116100bf578063a9059cbb11610079578063a9059cbb146102e7578063d39b3b5c146102fa578063d505accf1461030d578063dd62ed3e14610320578063f2fde38b14610333578063f54675e014610346575f80fd5b80637ecebe001461025157806384684c9c1461026457806384b0196e146102775780638da5cb5b1461029257806395d89b41146102cc5780639f0d1b5a146102d4575f80fd5b806340c10f191161011057806340c10f19146101f357806342966c68146102085780636c2eb3501461021b57806370a0823114610223578063715018a61461023657806379cc67901461023e575f80fd5b806306fdde0314610157578063095ea7b31461017557806318160ddd1461019857806323b872dd146101c9578063313ce567146101dc5780633644e515146101eb575b5f80fd5b61015f610370565b60405161016c9190611428565b60405180910390f35b61018861018336600461145c565b610415565b604051901515815260200161016c565b7f52c63247e1f47db19d5ce0460030c497f067ca4cebf71ba98eeadabe20bace02545b60405190815260200161016c565b6101886101d7366004611484565b61042e565b604051600c815260200161016c565b6101bb610451565b61020661020136600461145c565b61045f565b005b6102066102163660046114be565b610475565b610206610482565b6101bb6102313660046114d5565b610554565b610206610584565b61020661024c36600461145c565b610597565b6101bb61025f3660046114d5565b6105ac565b610206610272366004611504565b6105b6565b61027f610770565b60405161016c9796959493929190611535565b7f9016d09d72d40fdae2fd8ceac6b6234c7706214fd39c1cd1e609a0528c199300546040516001600160a01b03909116815260200161016c565b61015f61081e565b6102066102e23660046115cb565b61085c565b6101886102f536600461145c565b6108f4565b6101bb6103083660046115e4565b610901565b61020661031b36600461160b565b610930565b6101bb61032e366004611678565b610a85565b6102066103413660046114d5565b610ace565b5f54610358906001600160801b031681565b6040516001600160801b03909116815260200161016c565b60605f5f805160206119588339815191525b9050806003018054610393906116a0565b80601f01602080910402602001604051908101604052809291908181526020018280546103bf906116a0565b801561040a5780601f106103e15761010080835404028352916020019161040a565b820191905f5260205f20905b8154815290600101906020018083116103ed57829003601f168201915b505050505091505090565b5f33610422818585610b08565b60019150505b92915050565b5f3361043b858285610b1a565b610446858585610b7d565b506001949350505050565b5f61045a610bda565b905090565b610467610be3565b6104718282610c3e565b5050565b61047f3382610c72565b50565b61048a610be3565b7ff0c57e16840df040f15088dc2f81fe391c3923bec73e23a9662efc9c229c6a00805460029190600160401b900460ff16806104d45750805467ffffffffffffffff808416911610155b156104f25760405163f92ee8a960e01b815260040160405180910390fd5b805468ffffffffffffffffff191667ffffffffffffffff8316908117600160401b1760ff60401b191682556040519081527fc7f505b2f371ae2175ee4913f4499e1f2633a7b5936321eed1cdaeb6115181d29060200160405180910390a15050565b5f805f805160206119588339815191525b6001600160a01b039093165f9081526020939093525050604090205490565b61058c610be3565b6105955f610ca6565b565b6105a2823383610b1a565b6104718282610c72565b5f61042882610d16565b7ff0c57e16840df040f15088dc2f81fe391c3923bec73e23a9662efc9c229c6a008054600160401b810460ff16159067ffffffffffffffff165f811580156105fb5750825b90505f8267ffffffffffffffff1660011480156106175750303b155b905081158015610625575080155b156106435760405163f92ee8a960e01b815260040160405180910390fd5b845467ffffffffffffffff19166001178555831561066d57845460ff60401b1916600160401b1785555b6106b86040518060400160405280600c81526020016b57726170706564205661726160a01b81525060405180604001604052806005815260200164575641524160d81b815250610d3e565b6106c0610d50565b6106c987610d58565b6106f66040518060400160405280600c81526020016b57726170706564205661726160a01b815250610d69565b61071887610706600c600a6117cf565b61071390620f42406117dd565b610c3e565b6107218661085c565b831561076757845460ff60401b19168555604051600181527fc7f505b2f371ae2175ee4913f4499e1f2633a7b5936321eed1cdaeb6115181d29060200160405180910390a15b50505050505050565b5f60608082808083815f80516020611978833981519152805490915015801561079b57506001810154155b6107e45760405162461bcd60e51b81526020600482015260156024820152741152540dcc4c8e88155b9a5b9a5d1a585b1a5e9959605a1b60448201526064015b60405180910390fd5b6107ec610d94565b6107f4610dd2565b604080515f80825260208201909252600f60f81b9c939b5091995046985030975095509350915050565b7f52c63247e1f47db19d5ce0460030c497f067ca4cebf71ba98eeadabe20bace0480546060915f8051602061195883398151915291610393906116a0565b610864610be3565b5f816001600160801b0316116108ca5760405162461bcd60e51b815260206004820152602560248201527f76616c7565506572476173206d7573742062652067726561746572207468616e604482015264207a65726f60d81b60648201526084016107db565b5f80546fffffffffffffffffffffffffffffffff19166001600160801b0392909216919091179055565b5f33610422818585610b7d565b5f8054610921906001600160801b031667ffffffffffffffff8416611808565b6001600160801b031692915050565b834211156109545760405163313c898160e11b8152600481018590526024016107db565b5f7f6e71edae12b1b97f4d1f60370fef10105fa2faae0126114a169c64845d6126c98888886109be8c6001600160a01b03165f9081527f5ab42ced628888259c08ac98db1eb0cf702fc1501344311d8b100cd1bfe4bb006020526040902080546001810190915590565b6040805160208101969096526001600160a01b0394851690860152929091166060840152608083015260a082015260c0810186905260e0016040516020818303038152906040528051906020012090505f610a1882610de8565b90505f610a2782878787610e14565b9050896001600160a01b0316816001600160a01b031614610a6e576040516325c0072360e11b81526001600160a01b0380831660048301528b1660248201526044016107db565b610a798a8a8a610b08565b50505050505050505050565b6001600160a01b039182165f9081527f52c63247e1f47db19d5ce0460030c497f067ca4cebf71ba98eeadabe20bace016020908152604080832093909416825291909152205490565b610ad6610be3565b6001600160a01b038116610aff57604051631e4fbdf760e01b81525f60048201526024016107db565b61047f81610ca6565b610b158383836001610e40565b505050565b5f610b258484610a85565b90505f198114610b775781811015610b6957604051637dc7a0d960e11b81526001600160a01b038416600482015260248101829052604481018390526064016107db565b610b7784848484035f610e40565b50505050565b6001600160a01b038316610ba657604051634b637e8f60e11b81525f60048201526024016107db565b6001600160a01b038216610bcf5760405163ec442f0560e01b81525f60048201526024016107db565b610b15838383610f24565b5f61045a61105d565b33610c157f9016d09d72d40fdae2fd8ceac6b6234c7706214fd39c1cd1e609a0528c199300546001600160a01b031690565b6001600160a01b0316146105955760405163118cdaa760e01b81523360048201526024016107db565b6001600160a01b038216610c675760405163ec442f0560e01b81525f60048201526024016107db565b6104715f8383610f24565b6001600160a01b038216610c9b57604051634b637e8f60e11b81525f60048201526024016107db565b610471825f83610f24565b7f9016d09d72d40fdae2fd8ceac6b6234c7706214fd39c1cd1e609a0528c19930080546001600160a01b031981166001600160a01b03848116918217845560405192169182907f8be0079c531659141344cd1fd0a4f28419497f9722a3daafe3b4186f6b6457e0905f90a3505050565b5f807f5ab42ced628888259c08ac98db1eb0cf702fc1501344311d8b100cd1bfe4bb00610565565b610d466110d0565b6104718282611119565b6105956110d0565b610d606110d0565b61047f81611169565b610d716110d0565b61047f81604051806040016040528060018152602001603160f81b815250611171565b7fa16a46d94261c7517cc8ff89f61c0ce93598e3c849801011dee649a6a557d10280546060915f8051602061197883398151915291610393906116a0565b60605f5f80516020611978833981519152610382565b5f610428610df4610bda565b8360405161190160f01b8152600281019290925260228201526042902090565b5f805f80610e24888888886111d0565b925092509250610e348282611298565b50909695505050505050565b5f805160206119588339815191526001600160a01b038516610e775760405163e602df0560e01b81525f60048201526024016107db565b6001600160a01b038416610ea057604051634a1406b160e11b81525f60048201526024016107db565b6001600160a01b038086165f90815260018301602090815260408083209388168352929052208390558115610f1d57836001600160a01b0316856001600160a01b03167f8c5be1e5ebec7d5bd14f71427d1e84f3dd0314c0f7b2291e5b200ac8c7c3b92585604051610f1491815260200190565b60405180910390a35b5050505050565b5f805160206119588339815191526001600160a01b038416610f5e5781816002015f828254610f539190611831565b90915550610fce9050565b6001600160a01b0384165f9081526020829052604090205482811015610fb05760405163391434e360e21b81526001600160a01b038616600482015260248101829052604481018490526064016107db565b6001600160a01b0385165f9081526020839052604090209083900390555b6001600160a01b038316610fec57600281018054839003905561100a565b6001600160a01b0383165f9081526020829052604090208054830190555b826001600160a01b0316846001600160a01b03167fddf252ad1be2c89b69c2b068fc378daa952ba7f163c4a11628f55a4df523b3ef8460405161104f91815260200190565b60405180910390a350505050565b5f7f8b73c3c69bb8fe3d512ecc4cf759cc79239f7b179b0ffacaa9a75d522b39400f611087611350565b61108f6113b8565b60408051602081019490945283019190915260608201524660808201523060a082015260c00160405160208183030381529060405280519060200120905090565b7ff0c57e16840df040f15088dc2f81fe391c3923bec73e23a9662efc9c229c6a0054600160401b900460ff1661059557604051631afcd79f60e31b815260040160405180910390fd5b6111216110d0565b5f805160206119588339815191527f52c63247e1f47db19d5ce0460030c497f067ca4cebf71ba98eeadabe20bace0361115a8482611888565b5060048101610b778382611888565b610ad66110d0565b6111796110d0565b5f805160206119788339815191527fa16a46d94261c7517cc8ff89f61c0ce93598e3c849801011dee649a6a557d1026111b28482611888565b50600381016111c18382611888565b505f8082556001909101555050565b5f80807f7fffffffffffffffffffffffffffffff5d576e7357a4501ddfe92f46681b20a084111561120957505f9150600390508261128e565b604080515f808252602082018084528a905260ff891692820192909252606081018790526080810186905260019060a0016020604051602081039080840390855afa15801561125a573d5f803e3d5ffd5b5050604051601f1901519150506001600160a01b03811661128557505f92506001915082905061128e565b92505f91508190505b9450945094915050565b5f8260038111156112ab576112ab611943565b036112b4575050565b60018260038111156112c8576112c8611943565b036112e65760405163f645eedf60e01b815260040160405180910390fd5b60028260038111156112fa576112fa611943565b0361131b5760405163fce698f760e01b8152600481018290526024016107db565b600382600381111561132f5761132f611943565b03610471576040516335e2f38360e21b8152600481018290526024016107db565b5f5f8051602061197883398151915281611368610d94565b80519091501561138057805160209091012092915050565b8154801561138f579392505050565b7fc5d2460186f7233c927e7db2dcc703c0e500b653ca82273b7bfad8045d85a470935050505090565b5f5f80516020611978833981519152816113d0610dd2565b8051909150156113e857805160209091012092915050565b6001820154801561138f579392505050565b5f81518084528060208401602086015e5f602082860101526020601f19601f83011685010191505092915050565b602081525f61143a60208301846113fa565b9392505050565b80356001600160a01b0381168114611457575f80fd5b919050565b5f806040838503121561146d575f80fd5b61147683611441565b946020939093013593505050565b5f805f60608486031215611496575f80fd5b61149f84611441565b92506114ad60208501611441565b929592945050506040919091013590565b5f602082840312156114ce575f80fd5b5035919050565b5f602082840312156114e5575f80fd5b61143a82611441565b80356001600160801b0381168114611457575f80fd5b5f8060408385031215611515575f80fd5b61151e83611441565b915061152c602084016114ee565b90509250929050565b60ff60f81b8816815260e060208201525f61155360e08301896113fa565b828103604084015261156581896113fa565b606084018890526001600160a01b038716608085015260a0840186905283810360c0850152845180825260208087019350909101905f5b818110156115ba57835183526020938401939092019160010161159c565b50909b9a5050505050505050505050565b5f602082840312156115db575f80fd5b61143a826114ee565b5f602082840312156115f4575f80fd5b813567ffffffffffffffff8116811461143a575f80fd5b5f805f805f805f60e0888a031215611621575f80fd5b61162a88611441565b965061163860208901611441565b95506040880135945060608801359350608088013560ff8116811461165b575f80fd5b9699959850939692959460a0840135945060c09093013592915050565b5f8060408385031215611689575f80fd5b61169283611441565b915061152c60208401611441565b600181811c908216806116b457607f821691505b6020821081036116d257634e487b7160e01b5f52602260045260245ffd5b50919050565b634e487b7160e01b5f52601160045260245ffd5b6001815b60018411156117275780850481111561170b5761170b6116d8565b600184161561171957908102905b60019390931c9280026116f0565b935093915050565b5f8261173d57506001610428565b8161174957505f610428565b816001811461175f576002811461176957611785565b6001915050610428565b60ff84111561177a5761177a6116d8565b50506001821b610428565b5060208310610133831016604e8410600b84101617156117a8575081810a610428565b6117b45f1984846116ec565b805f19048211156117c7576117c76116d8565b029392505050565b5f61143a60ff84168361172f565b8082028115828204841417610428576104286116d8565b634e487b7160e01b5f52604160045260245ffd5b6001600160801b03818116838216029081169081811461182a5761182a6116d8565b5092915050565b80820180821115610428576104286116d8565b601f821115610b1557805f5260205f20601f840160051c810160208510156118695750805b601f840160051c820191505b81811015610f1d575f8155600101611875565b815167ffffffffffffffff8111156118a2576118a26117f4565b6118b6816118b084546116a0565b84611844565b6020601f8211600181146118e8575f83156118d15750848201515b5f19600385901b1c1916600184901b178455610f1d565b5f84815260208120601f198516915b8281101561191757878501518255602094850194600190920191016118f7565b508482101561193457868401515f19600387901b60f8161c191681555b50505050600190811b01905550565b634e487b7160e01b5f52602160045260245ffdfe52c63247e1f47db19d5ce0460030c497f067ca4cebf71ba98eeadabe20bace00a16a46d94261c7517cc8ff89f61c0ce93598e3c849801011dee649a6a557d100a26469706673582212203791fcfd47cf7ebc5a92b14123f9af961c43fccc0d3af5a938be17b029e7909c64736f6c634300081a0033","linkReferences":{}},"methodIdentifiers":{"DOMAIN_SEPARATOR()":"3644e515","allowance(address,address)":"dd62ed3e","approve(address,uint256)":"095ea7b3","balanceOf(address)":"70a08231","burn(uint256)":"42966c68","burnFrom(address,uint256)":"79cc6790","decimals()":"313ce567","eip712Domain()":"84b0196e","gasToValue(uint64)":"d39b3b5c","initialize(address,uint128)":"84684c9c","mint(address,uint256)":"40c10f19","name()":"06fdde03","nonces(address)":"7ecebe00","owner()":"8da5cb5b","permit(address,address,uint256,uint256,uint8,bytes32,bytes32)":"d505accf","reinitialize()":"6c2eb350","renounceOwnership()":"715018a6","setValuePerGas(uint128)":"9f0d1b5a","symbol()":"95d89b41","totalSupply()":"18160ddd","transfer(address,uint256)":"a9059cbb","transferFrom(address,address,uint256)":"23b872dd","transferOwnership(address)":"f2fde38b","valuePerGas()":"f54675e0"},"storageLayout":{"storage":[{"astId":55419,"contract":"src/WrappedVara.sol:WrappedVara","label":"valuePerGas","offset":0,"slot":"0","type":"t_uint128"}],"types":{"t_uint128":{"encoding":"inplace","label":"uint128","numberOfBytes":"16"}}},"id":82}