{"abi":[{"type":"constructor","inputs":[],"stateMutability":"nonpayable"},{"type":"function","name":"DOMAIN_SEPARATOR","inputs":[],"outputs":[{"name":"","type":"bytes32","internalType":"bytes32"}],"stateMutability":"view"},{"type":"function","name":"allowance","inputs":[{"name":"owner","type":"address","internalType":"address"},{"name":"spender","type":"address","internalType":"address"}],"outputs":[{"name":"","type":"uint256","internalType":"uint256"}],"stateMutability":"view"},{"type":"function","name":"approve","inputs":[{"name":"spender","type":"address","internalType":"address"},{"name":"value","type":"uint256","internalType":"uint256"}],"outputs":[{"name":"","type":"bool","internalType":"bool"}],"stateMutability":"nonpayable"},{"type":"function","name":"balanceOf","inputs":[{"name":"account","type":"address","internalType":"address"}],"outputs":[{"name":"","type":"uint256","internalType":"uint256"}],"stateMutability":"view"},{"type":"function","name":"burn","inputs":[{"name":"value","type":"uint256","internalType":"uint256"}],"outputs":[],"stateMutability":"nonpayable"},{"type":"function","name":"burnFrom","inputs":[{"name":"account","type":"address","internalType":"address"},{"name":"value","type":"uint256","internalType":"uint256"}],"outputs":[],"stateMutability":"nonpayable"},{"type":"function","name":"decimals","inputs":[],"outputs":[{"name":"","type":"uint8","internalType":"uint8"}],"stateMutability":"view"},{"type":"function","name":"eip712Domain","inputs":[],"outputs":[{"name":"fields","type":"bytes1","internalType":"bytes1"},{"name":"name","type":"string","internalType":"string"},{"name":"version","type":"string","internalType":"string"},{"name":"chainId","type":"uint256","internalType":"uint256"},{"name":"verifyingContract","type":"address","internalType":"address"},{"name":"salt","type":"bytes32","internalType":"bytes32"},{"name":"extensions","type":"uint256[]","internalType":"uint256[]"}],"stateMutability":"view"},{"type":"function","name":"gasToValue","inputs":[{"name":"gas","type":"uint64","internalType":"uint64"}],"outputs":[{"name":"","type":"uint256","internalType":"uint256"}],"stateMutability":"view"},{"type":"function","name":"initialize","inputs":[{"name":"initialOwner","type":"address","internalType":"address"},{"name":"_valuePerGas","type":"uint128","internalType":"uint128"}],"outputs":[],"stateMutability":"nonpayable"},{"type":"function","name":"mint","inputs":[{"name":"to","type":"address","internalType":"address"},{"name":"amount","type":"uint256","internalType":"uint256"}],"outputs":[],"stateMutability":"nonpayable"},{"type":"function","name":"name","inputs":[],"outputs":[{"name":"","type":"string","internalType":"string"}],"stateMutability":"view"},{"type":"function","name":"nonces","inputs":[{"name":"owner","type":"address","internalType":"address"}],"outputs":[{"name":"","type":"uint256","internalType":"uint256"}],"stateMutability":"view"},{"type":"function","name":"owner","inputs":[],"outputs":[{"name":"","type":"address","internalType":"address"}],"stateMutability":"view"},{"type":"function","name":"permit","inputs":[{"name":"owner","type":"address","internalType":"address"},{"name":"spender","type":"address","internalType":"address"},{"name":"value","type":"uint256","internalType":"uint256"},{"name":"deadline","type":"uint256","internalType":"uint256"},{"name":"v","type":"uint8","internalType":"uint8"},{"name":"r","type":"bytes32","internalType":"bytes32"},{"name":"s","type":"bytes32","internalType":"bytes32"}],"outputs":[],"stateMutability":"nonpayable"},{"type":"function","name":"renounceOwnership","inputs":[],"outputs":[],"stateMutability":"nonpayable"},{"type":"function","name":"setValuePerGas","inputs":[{"name":"_valuePerGas","type":"uint128","internalType":"uint128"}],"outputs":[],"stateMutability":"nonpayable"},{"type":"function","name":"symbol","inputs":[],"outputs":[{"name":"","type":"string","internalType":"string"}],"stateMutability":"view"},{"type":"function","name":"totalSupply","inputs":[],"outputs":[{"name":"","type":"uint256","internalType":"uint256"}],"stateMutability":"view"},{"type":"function","name":"transfer","inputs":[{"name":"to","type":"address","internalType":"address"},{"name":"value","type":"uint256","internalType":"uint256"}],"outputs":[{"name":"","type":"bool","internalType":"bool"}],"stateMutability":"nonpayable"},{"type":"function","name":"transferFrom","inputs":[{"name":"from","type":"address","internalType":"address"},{"name":"to","type":"address","internalType":"address"},{"name":"value","type":"uint256","internalType":"uint256"}],"outputs":[{"name":"","type":"bool","internalType":"bool"}],"stateMutability":"nonpayable"},{"type":"function","name":"transferOwnership","inputs":[{"name":"newOwner","type":"address","internalType":"address"}],"outputs":[],"stateMutability":"nonpayable"},{"type":"function","name":"valuePerGas","inputs":[],"outputs":[{"name":"","type":"uint128","internalType":"uint128"}],"stateMutability":"view"},{"type":"event","name":"Approval","inputs":[{"name":"owner","type":"address","indexed":true,"internalType":"address"},{"name":"spender","type":"address","indexed":true,"internalType":"address"},{"name":"value","type":"uint256","indexed":false,"internalType":"uint256"}],"anonymous":false},{"type":"event","name":"EIP712DomainChanged","inputs":[],"anonymous":false},{"type":"event","name":"Initialized","inputs":[{"name":"version","type":"uint64","indexed":false,"internalType":"uint64"}],"anonymous":false},{"type":"event","name":"OwnershipTransferred","inputs":[{"name":"previousOwner","type":"address","indexed":true,"internalType":"address"},{"name":"newOwner","type":"address","indexed":true,"internalType":"address"}],"anonymous":false},{"type":"event","name":"Transfer","inputs":[{"name":"from","type":"address","indexed":true,"internalType":"address"},{"name":"to","type":"address","indexed":true,"internalType":"address"},{"name":"value","type":"uint256","indexed":false,"internalType":"uint256"}],"anonymous":false},{"type":"error","name":"ECDSAInvalidSignature","inputs":[]},{"type":"error","name":"ECDSAInvalidSignatureLength","inputs":[{"name":"length","type":"uint256","internalType":"uint256"}]},{"type":"error","name":"ECDSAInvalidSignatureS","inputs":[{"name":"s","type":"bytes32","internalType":"bytes32"}]},{"type":"error","name":"ERC20InsufficientAllowance","inputs":[{"name":"spender","type":"address","internalType":"address"},{"name":"allowance","type":"uint256","internalType":"uint256"},{"name":"needed","type":"uint256","internalType":"uint256"}]},{"type":"error","name":"ERC20InsufficientBalance","inputs":[{"name":"sender","type":"address","internalType":"address"},{"name":"balance","type":"uint256","internalType":"uint256"},{"name":"needed","type":"uint256","internalType":"uint256"}]},{"type":"error","name":"ERC20InvalidApprover","inputs":[{"name":"approver","type":"address","internalType":"address"}]},{"type":"error","name":"ERC20InvalidReceiver","inputs":[{"name":"receiver","type":"address","internalType":"address"}]},{"type":"error","name":"ERC20InvalidSender","inputs":[{"name":"sender","type":"address","internalType":"address"}]},{"type":"error","name":"ERC20InvalidSpender","inputs":[{"name":"spender","type":"address","internalType":"address"}]},{"type":"error","name":"ERC2612ExpiredSignature","inputs":[{"name":"deadline","type":"uint256","internalType":"uint256"}]},{"type":"error","name":"ERC2612InvalidSigner","inputs":[{"name":"signer","type":"address","internalType":"address"},{"name":"owner","type":"address","internalType":"address"}]},{"type":"error","name":"InvalidAccountNonce","inputs":[{"name":"account","type":"address","internalType":"address"},{"name":"currentNonce","type":"uint256","internalType":"uint256"}]},{"type":"error","name":"InvalidInitialization","inputs":[]},{"type":"error","name":"NotInitializing","inputs":[]},{"type":"error","name":"OwnableInvalidOwner","inputs":[{"name":"owner","type":"address","internalType":"address"}]},{"type":"error","name":"OwnableUnauthorizedAccount","inputs":[{"name":"account","type":"address","internalType":"address"}]}],"bytecode":{"object":"0x6080604052348015600e575f80fd5b5060156019565b60c9565b7ff0c57e16840df040f15088dc2f81fe391c3923bec73e23a9662efc9c229c6a00805468010000000000000000900460ff161560685760405163f92ee8a960e01b815260040160405180910390fd5b80546001600160401b039081161460c65780546001600160401b0319166001600160401b0390811782556040519081527fc7f505b2f371ae2175ee4913f4499e1f2633a7b5936321eed1cdaeb6115181d29060200160405180910390a15b50565b6118e8806100d65f395ff3fe608060405234801561000f575f80fd5b5060043610610148575f3560e01c80637ecebe00116100bf578063a9059cbb11610079578063a9059cbb146102d4578063d39b3b5c146102e7578063d505accf146102fa578063dd62ed3e1461030d578063f2fde38b14610320578063f54675e014610333575f80fd5b80637ecebe001461023e57806384684c9c1461025157806384b0196e146102645780638da5cb5b1461027f57806395d89b41146102b95780639f0d1b5a146102c1575f80fd5b80633644e515116101105780633644e515146101e057806340c10f19146101e857806342966c68146101fd57806370a0823114610210578063715018a61461022357806379cc67901461022b575f80fd5b806306fdde031461014c578063095ea7b31461016a57806318160ddd1461018d57806323b872dd146101be578063313ce567146101d1575b5f80fd5b61015461035d565b6040516101619190611343565b60405180910390f35b61017d610178366004611377565b610402565b6040519015158152602001610161565b7f52c63247e1f47db19d5ce0460030c497f067ca4cebf71ba98eeadabe20bace02545b604051908152602001610161565b61017d6101cc36600461139f565b61041b565b604051600c8152602001610161565b6101b061043e565b6101fb6101f6366004611377565b61044c565b005b6101fb61020b3660046113d9565b610462565b6101b061021e3660046113f0565b61046f565b6101fb61049f565b6101fb610239366004611377565b6104b2565b6101b061024c3660046113f0565b6104c7565b6101fb61025f36600461141f565b6104d1565b61026c61068b565b6040516101619796959493929190611450565b7f9016d09d72d40fdae2fd8ceac6b6234c7706214fd39c1cd1e609a0528c199300546040516001600160a01b039091168152602001610161565b610154610739565b6101fb6102cf3660046114e6565b610777565b61017d6102e2366004611377565b61080f565b6101b06102f53660046114ff565b61081c565b6101fb610308366004611526565b61084b565b6101b061031b366004611593565b6109a0565b6101fb61032e3660046113f0565b6109e9565b5f54610345906001600160801b031681565b6040516001600160801b039091168152602001610161565b60605f5f805160206118738339815191525b9050806003018054610380906115bb565b80601f01602080910402602001604051908101604052809291908181526020018280546103ac906115bb565b80156103f75780601f106103ce576101008083540402835291602001916103f7565b820191905f5260205f20905b8154815290600101906020018083116103da57829003601f168201915b505050505091505090565b5f3361040f818585610a23565b60019150505b92915050565b5f33610428858285610a35565b610433858585610a98565b506001949350505050565b5f610447610af5565b905090565b610454610afe565b61045e8282610b59565b5050565b61046c3382610b8d565b50565b5f805f805160206118738339815191525b6001600160a01b039093165f9081526020939093525050604090205490565b6104a7610afe565b6104b05f610bc1565b565b6104bd823383610a35565b61045e8282610b8d565b5f61041582610c31565b7ff0c57e16840df040f15088dc2f81fe391c3923bec73e23a9662efc9c229c6a008054600160401b810460ff16159067ffffffffffffffff165f811580156105165750825b90505f8267ffffffffffffffff1660011480156105325750303b155b905081158015610540575080155b1561055e5760405163f92ee8a960e01b815260040160405180910390fd5b845467ffffffffffffffff19166001178555831561058857845460ff60401b1916600160401b1785555b6105d36040518060400160405280600c81526020016b57726170706564205661726160a01b81525060405180604001604052806005815260200164575641524160d81b815250610c59565b6105db610c6b565b6105e487610c73565b6106116040518060400160405280600c81526020016b57726170706564205661726160a01b815250610c84565b61063387610621600c600a6116ea565b61062e90620f42406116f8565b610b59565b61063c86610777565b831561068257845460ff60401b19168555604051600181527fc7f505b2f371ae2175ee4913f4499e1f2633a7b5936321eed1cdaeb6115181d29060200160405180910390a15b50505050505050565b5f60608082808083815f8051602061189383398151915280549091501580156106b657506001810154155b6106ff5760405162461bcd60e51b81526020600482015260156024820152741152540dcc4c8e88155b9a5b9a5d1a585b1a5e9959605a1b60448201526064015b60405180910390fd5b610707610caf565b61070f610ced565b604080515f80825260208201909252600f60f81b9c939b5091995046985030975095509350915050565b7f52c63247e1f47db19d5ce0460030c497f067ca4cebf71ba98eeadabe20bace0480546060915f8051602061187383398151915291610380906115bb565b61077f610afe565b5f816001600160801b0316116107e55760405162461bcd60e51b815260206004820152602560248201527f76616c7565506572476173206d7573742062652067726561746572207468616e604482015264207a65726f60d81b60648201526084016106f6565b5f80546fffffffffffffffffffffffffffffffff19166001600160801b0392909216919091179055565b5f3361040f818585610a98565b5f805461083c906001600160801b031667ffffffffffffffff8416611723565b6001600160801b031692915050565b8342111561086f5760405163313c898160e11b8152600481018590526024016106f6565b5f7f6e71edae12b1b97f4d1f60370fef10105fa2faae0126114a169c64845d6126c98888886108d98c6001600160a01b03165f9081527f5ab42ced628888259c08ac98db1eb0cf702fc1501344311d8b100cd1bfe4bb006020526040902080546001810190915590565b6040805160208101969096526001600160a01b0394851690860152929091166060840152608083015260a082015260c0810186905260e0016040516020818303038152906040528051906020012090505f61093382610d03565b90505f61094282878787610d2f565b9050896001600160a01b0316816001600160a01b031614610989576040516325c0072360e11b81526001600160a01b0380831660048301528b1660248201526044016106f6565b6109948a8a8a610a23565b50505050505050505050565b6001600160a01b039182165f9081527f52c63247e1f47db19d5ce0460030c497f067ca4cebf71ba98eeadabe20bace016020908152604080832093909416825291909152205490565b6109f1610afe565b6001600160a01b038116610a1a57604051631e4fbdf760e01b81525f60048201526024016106f6565b61046c81610bc1565b610a308383836001610d5b565b505050565b5f610a4084846109a0565b90505f198114610a925781811015610a8457604051637dc7a0d960e11b81526001600160a01b038416600482015260248101829052604481018390526064016106f6565b610a9284848484035f610d5b565b50505050565b6001600160a01b038316610ac157604051634b637e8f60e11b81525f60048201526024016106f6565b6001600160a01b038216610aea5760405163ec442f0560e01b81525f60048201526024016106f6565b610a30838383610e3f565b5f610447610f78565b33610b307f9016d09d72d40fdae2fd8ceac6b6234c7706214fd39c1cd1e609a0528c199300546001600160a01b031690565b6001600160a01b0316146104b05760405163118cdaa760e01b81523360048201526024016106f6565b6001600160a01b038216610b825760405163ec442f0560e01b81525f60048201526024016106f6565b61045e5f8383610e3f565b6001600160a01b038216610bb657604051634b637e8f60e11b81525f60048201526024016106f6565b61045e825f83610e3f565b7f9016d09d72d40fdae2fd8ceac6b6234c7706214fd39c1cd1e609a0528c19930080546001600160a01b031981166001600160a01b03848116918217845560405192169182907f8be0079c531659141344cd1fd0a4f28419497f9722a3daafe3b4186f6b6457e0905f90a3505050565b5f807f5ab42ced628888259c08ac98db1eb0cf702fc1501344311d8b100cd1bfe4bb00610480565b610c61610feb565b61045e8282611034565b6104b0610feb565b610c7b610feb565b61046c81611084565b610c8c610feb565b61046c81604051806040016040528060018152602001603160f81b81525061108c565b7fa16a46d94261c7517cc8ff89f61c0ce93598e3c849801011dee649a6a557d10280546060915f8051602061189383398151915291610380906115bb565b60605f5f8051602061189383398151915261036f565b5f610415610d0f610af5565b8360405161190160f01b8152600281019290925260228201526042902090565b5f805f80610d3f888888886110eb565b925092509250610d4f82826111b3565b50909695505050505050565b5f805160206118738339815191526001600160a01b038516610d925760405163e602df0560e01b81525f60048201526024016106f6565b6001600160a01b038416610dbb57604051634a1406b160e11b81525f60048201526024016106f6565b6001600160a01b038086165f90815260018301602090815260408083209388168352929052208390558115610e3857836001600160a01b0316856001600160a01b03167f8c5be1e5ebec7d5bd14f71427d1e84f3dd0314c0f7b2291e5b200ac8c7c3b92585604051610e2f91815260200190565b60405180910390a35b5050505050565b5f805160206118738339815191526001600160a01b038416610e795781816002015f828254610e6e919061174c565b90915550610ee99050565b6001600160a01b0384165f9081526020829052604090205482811015610ecb5760405163391434e360e21b81526001600160a01b038616600482015260248101829052604481018490526064016106f6565b6001600160a01b0385165f9081526020839052604090209083900390555b6001600160a01b038316610f07576002810180548390039055610f25565b6001600160a01b0383165f9081526020829052604090208054830190555b826001600160a01b0316846001600160a01b03167fddf252ad1be2c89b69c2b068fc378daa952ba7f163c4a11628f55a4df523b3ef84604051610f6a91815260200190565b60405180910390a350505050565b5f7f8b73c3c69bb8fe3d512ecc4cf759cc79239f7b179b0ffacaa9a75d522b39400f610fa261126b565b610faa6112d3565b60408051602081019490945283019190915260608201524660808201523060a082015260c00160405160208183030381529060405280519060200120905090565b7ff0c57e16840df040f15088dc2f81fe391c3923bec73e23a9662efc9c229c6a0054600160401b900460ff166104b057604051631afcd79f60e31b815260040160405180910390fd5b61103c610feb565b5f805160206118738339815191527f52c63247e1f47db19d5ce0460030c497f067ca4cebf71ba98eeadabe20bace0361107584826117a3565b5060048101610a9283826117a3565b6109f1610feb565b611094610feb565b5f805160206118938339815191527fa16a46d94261c7517cc8ff89f61c0ce93598e3c849801011dee649a6a557d1026110cd84826117a3565b50600381016110dc83826117a3565b505f8082556001909101555050565b5f80807f7fffffffffffffffffffffffffffffff5d576e7357a4501ddfe92f46681b20a084111561112457505f915060039050826111a9565b604080515f808252602082018084528a905260ff891692820192909252606081018790526080810186905260019060a0016020604051602081039080840390855afa158015611175573d5f803e3d5ffd5b5050604051601f1901519150506001600160a01b0381166111a057505f9250600191508290506111a9565b92505f91508190505b9450945094915050565b5f8260038111156111c6576111c661185e565b036111cf575050565b60018260038111156111e3576111e361185e565b036112015760405163f645eedf60e01b815260040160405180910390fd5b60028260038111156112155761121561185e565b036112365760405163fce698f760e01b8152600481018290526024016106f6565b600382600381111561124a5761124a61185e565b0361045e576040516335e2f38360e21b8152600481018290526024016106f6565b5f5f8051602061189383398151915281611283610caf565b80519091501561129b57805160209091012092915050565b815480156112aa579392505050565b7fc5d2460186f7233c927e7db2dcc703c0e500b653ca82273b7bfad8045d85a470935050505090565b5f5f80516020611893833981519152816112eb610ced565b80519091501561130357805160209091012092915050565b600182015480156112aa579392505050565b5f81518084528060208401602086015e5f602082860101526020601f19601f83011685010191505092915050565b602081525f6113556020830184611315565b9392505050565b80356001600160a01b0381168114611372575f80fd5b919050565b5f8060408385031215611388575f80fd5b6113918361135c565b946020939093013593505050565b5f805f606084860312156113b1575f80fd5b6113ba8461135c565b92506113c86020850161135c565b929592945050506040919091013590565b5f602082840312156113e9575f80fd5b5035919050565b5f60208284031215611400575f80fd5b6113558261135c565b80356001600160801b0381168114611372575f80fd5b5f8060408385031215611430575f80fd5b6114398361135c565b915061144760208401611409565b90509250929050565b60ff60f81b8816815260e060208201525f61146e60e0830189611315565b82810360408401526114808189611315565b606084018890526001600160a01b038716608085015260a0840186905283810360c0850152845180825260208087019350909101905f5b818110156114d55783518352602093840193909201916001016114b7565b50909b9a5050505050505050505050565b5f602082840312156114f6575f80fd5b61135582611409565b5f6020828403121561150f575f80fd5b813567ffffffffffffffff81168114611355575f80fd5b5f805f805f805f60e0888a03121561153c575f80fd5b6115458861135c565b96506115536020890161135c565b95506040880135945060608801359350608088013560ff81168114611576575f80fd5b9699959850939692959460a0840135945060c09093013592915050565b5f80604083850312156115a4575f80fd5b6115ad8361135c565b91506114476020840161135c565b600181811c908216806115cf57607f821691505b6020821081036115ed57634e487b7160e01b5f52602260045260245ffd5b50919050565b634e487b7160e01b5f52601160045260245ffd5b6001815b600184111561164257808504811115611626576116266115f3565b600184161561163457908102905b60019390931c92800261160b565b935093915050565b5f8261165857506001610415565b8161166457505f610415565b816001811461167a5760028114611684576116a0565b6001915050610415565b60ff841115611695576116956115f3565b50506001821b610415565b5060208310610133831016604e8410600b84101617156116c3575081810a610415565b6116cf5f198484611607565b805f19048211156116e2576116e26115f3565b029392505050565b5f61135560ff84168361164a565b8082028115828204841417610415576104156115f3565b634e487b7160e01b5f52604160045260245ffd5b6001600160801b038181168382160290811690818114611745576117456115f3565b5092915050565b80820180821115610415576104156115f3565b601f821115610a3057805f5260205f20601f840160051c810160208510156117845750805b601f840160051c820191505b81811015610e38575f8155600101611790565b815167ffffffffffffffff8111156117bd576117bd61170f565b6117d1816117cb84546115bb565b8461175f565b6020601f821160018114611803575f83156117ec5750848201515b5f19600385901b1c1916600184901b178455610e38565b5f84815260208120601f198516915b828110156118325787850151825560209485019460019092019101611812565b508482101561184f57868401515f19600387901b60f8161c191681555b50505050600190811b01905550565b634e487b7160e01b5f52602160045260245ffdfe52c63247e1f47db19d5ce0460030c497f067ca4cebf71ba98eeadabe20bace00a16a46d94261c7517cc8ff89f61c0ce93598e3c849801011dee649a6a557d100a26469706673582212204ad15d214893fd15a18e7549c2691fd9153e34dc3ec8a2024ba912415fef6aba64736f6c634300081a0033","linkReferences":{}},"methodIdentifiers":{"DOMAIN_SEPARATOR()":"3644e515","allowance(address,address)":"dd62ed3e","approve(address,uint256)":"095ea7b3","balanceOf(address)":"70a08231","burn(uint256)":"42966c68","burnFrom(address,uint256)":"79cc6790","decimals()":"313ce567","eip712Domain()":"84b0196e","gasToValue(uint64)":"d39b3b5c","initialize(address,uint128)":"84684c9c","mint(address,uint256)":"40c10f19","name()":"06fdde03","nonces(address)":"7ecebe00","owner()":"8da5cb5b","permit(address,address,uint256,uint256,uint8,bytes32,bytes32)":"d505accf","renounceOwnership()":"715018a6","setValuePerGas(uint128)":"9f0d1b5a","symbol()":"95d89b41","totalSupply()":"18160ddd","transfer(address,uint256)":"a9059cbb","transferFrom(address,address,uint256)":"23b872dd","transferOwnership(address)":"f2fde38b","valuePerGas()":"f54675e0"},"storageLayout":{"storage":[{"astId":55290,"contract":"src/WrappedVara.sol:WrappedVara","label":"valuePerGas","offset":0,"slot":"0","type":"t_uint128"}],"types":{"t_uint128":{"encoding":"inplace","label":"uint128","numberOfBytes":"16"}}},"id":82}