{"abi":[{"type":"constructor","inputs":[],"stateMutability":"nonpayable"},{"type":"function","name":"DOMAIN_SEPARATOR","inputs":[],"outputs":[{"name":"","type":"bytes32","internalType":"bytes32"}],"stateMutability":"view"},{"type":"function","name":"allowance","inputs":[{"name":"owner","type":"address","internalType":"address"},{"name":"spender","type":"address","internalType":"address"}],"outputs":[{"name":"","type":"uint256","internalType":"uint256"}],"stateMutability":"view"},{"type":"function","name":"approve","inputs":[{"name":"spender","type":"address","internalType":"address"},{"name":"value","type":"uint256","internalType":"uint256"}],"outputs":[{"name":"","type":"bool","internalType":"bool"}],"stateMutability":"nonpayable"},{"type":"function","name":"balanceOf","inputs":[{"name":"account","type":"address","internalType":"address"}],"outputs":[{"name":"","type":"uint256","internalType":"uint256"}],"stateMutability":"view"},{"type":"function","name":"burn","inputs":[{"name":"value","type":"uint256","internalType":"uint256"}],"outputs":[],"stateMutability":"nonpayable"},{"type":"function","name":"burnFrom","inputs":[{"name":"account","type":"address","internalType":"address"},{"name":"value","type":"uint256","internalType":"uint256"}],"outputs":[],"stateMutability":"nonpayable"},{"type":"function","name":"decimals","inputs":[],"outputs":[{"name":"","type":"uint8","internalType":"uint8"}],"stateMutability":"pure"},{"type":"function","name":"eip712Domain","inputs":[],"outputs":[{"name":"fields","type":"bytes1","internalType":"bytes1"},{"name":"name","type":"string","internalType":"string"},{"name":"version","type":"string","internalType":"string"},{"name":"chainId","type":"uint256","internalType":"uint256"},{"name":"verifyingContract","type":"address","internalType":"address"},{"name":"salt","type":"bytes32","internalType":"bytes32"},{"name":"extensions","type":"uint256[]","internalType":"uint256[]"}],"stateMutability":"view"},{"type":"function","name":"initialize","inputs":[{"name":"initialOwner","type":"address","internalType":"address"}],"outputs":[],"stateMutability":"nonpayable"},{"type":"function","name":"mint","inputs":[{"name":"to","type":"address","internalType":"address"},{"name":"amount","type":"uint256","internalType":"uint256"}],"outputs":[],"stateMutability":"nonpayable"},{"type":"function","name":"name","inputs":[],"outputs":[{"name":"","type":"string","internalType":"string"}],"stateMutability":"view"},{"type":"function","name":"nonces","inputs":[{"name":"owner","type":"address","internalType":"address"}],"outputs":[{"name":"","type":"uint256","internalType":"uint256"}],"stateMutability":"view"},{"type":"function","name":"owner","inputs":[],"outputs":[{"name":"","type":"address","internalType":"address"}],"stateMutability":"view"},{"type":"function","name":"permit","inputs":[{"name":"owner","type":"address","internalType":"address"},{"name":"spender","type":"address","internalType":"address"},{"name":"value","type":"uint256","internalType":"uint256"},{"name":"deadline","type":"uint256","internalType":"uint256"},{"name":"v","type":"uint8","internalType":"uint8"},{"name":"r","type":"bytes32","internalType":"bytes32"},{"name":"s","type":"bytes32","internalType":"bytes32"}],"outputs":[],"stateMutability":"nonpayable"},{"type":"function","name":"reinitialize","inputs":[],"outputs":[],"stateMutability":"nonpayable"},{"type":"function","name":"renounceOwnership","inputs":[],"outputs":[],"stateMutability":"nonpayable"},{"type":"function","name":"symbol","inputs":[],"outputs":[{"name":"","type":"string","internalType":"string"}],"stateMutability":"view"},{"type":"function","name":"totalSupply","inputs":[],"outputs":[{"name":"","type":"uint256","internalType":"uint256"}],"stateMutability":"view"},{"type":"function","name":"transfer","inputs":[{"name":"to","type":"address","internalType":"address"},{"name":"value","type":"uint256","internalType":"uint256"}],"outputs":[{"name":"","type":"bool","internalType":"bool"}],"stateMutability":"nonpayable"},{"type":"function","name":"transferFrom","inputs":[{"name":"from","type":"address","internalType":"address"},{"name":"to","type":"address","internalType":"address"},{"name":"value","type":"uint256","internalType":"uint256"}],"outputs":[{"name":"","type":"bool","internalType":"bool"}],"stateMutability":"nonpayable"},{"type":"function","name":"transferOwnership","inputs":[{"name":"newOwner","type":"address","internalType":"address"}],"outputs":[],"stateMutability":"nonpayable"},{"type":"event","name":"Approval","inputs":[{"name":"owner","type":"address","indexed":true,"internalType":"address"},{"name":"spender","type":"address","indexed":true,"internalType":"address"},{"name":"value","type":"uint256","indexed":false,"internalType":"uint256"}],"anonymous":false},{"type":"event","name":"EIP712DomainChanged","inputs":[],"anonymous":false},{"type":"event","name":"Initialized","inputs":[{"name":"version","type":"uint64","indexed":false,"internalType":"uint64"}],"anonymous":false},{"type":"event","name":"OwnershipTransferred","inputs":[{"name":"previousOwner","type":"address","indexed":true,"internalType":"address"},{"name":"newOwner","type":"address","indexed":true,"internalType":"address"}],"anonymous":false},{"type":"event","name":"Transfer","inputs":[{"name":"from","type":"address","indexed":true,"internalType":"address"},{"name":"to","type":"address","indexed":true,"internalType":"address"},{"name":"value","type":"uint256","indexed":false,"internalType":"uint256"}],"anonymous":false},{"type":"error","name":"ECDSAInvalidSignature","inputs":[]},{"type":"error","name":"ECDSAInvalidSignatureLength","inputs":[{"name":"length","type":"uint256","internalType":"uint256"}]},{"type":"error","name":"ECDSAInvalidSignatureS","inputs":[{"name":"s","type":"bytes32","internalType":"bytes32"}]},{"type":"error","name":"ERC20InsufficientAllowance","inputs":[{"name":"spender","type":"address","internalType":"address"},{"name":"allowance","type":"uint256","internalType":"uint256"},{"name":"needed","type":"uint256","internalType":"uint256"}]},{"type":"error","name":"ERC20InsufficientBalance","inputs":[{"name":"sender","type":"address","internalType":"address"},{"name":"balance","type":"uint256","internalType":"uint256"},{"name":"needed","type":"uint256","internalType":"uint256"}]},{"type":"error","name":"ERC20InvalidApprover","inputs":[{"name":"approver","type":"address","internalType":"address"}]},{"type":"error","name":"ERC20InvalidReceiver","inputs":[{"name":"receiver","type":"address","internalType":"address"}]},{"type":"error","name":"ERC20InvalidSender","inputs":[{"name":"sender","type":"address","internalType":"address"}]},{"type":"error","name":"ERC20InvalidSpender","inputs":[{"name":"spender","type":"address","internalType":"address"}]},{"type":"error","name":"ERC2612ExpiredSignature","inputs":[{"name":"deadline","type":"uint256","internalType":"uint256"}]},{"type":"error","name":"ERC2612InvalidSigner","inputs":[{"name":"signer","type":"address","internalType":"address"},{"name":"owner","type":"address","internalType":"address"}]},{"type":"error","name":"InvalidAccountNonce","inputs":[{"name":"account","type":"address","internalType":"address"},{"name":"currentNonce","type":"uint256","internalType":"uint256"}]},{"type":"error","name":"InvalidInitialization","inputs":[]},{"type":"error","name":"NotInitializing","inputs":[]},{"type":"error","name":"OwnableInvalidOwner","inputs":[{"name":"owner","type":"address","internalType":"address"}]},{"type":"error","name":"OwnableUnauthorizedAccount","inputs":[{"name":"account","type":"address","internalType":"address"}]}],"bytecode":{"object":"0x6080806040523460aa575f5160206122835f395f51905f525460ff8160401c16609b576002600160401b03196001600160401b038216016049575b6040516121d490816100af8239f35b6001600160401b0319166001600160401b039081175f5160206122835f395f51905f525581527fc7f505b2f371ae2175ee4913f4499e1f2633a7b5936321eed1cdaeb6115181d290602090a15f80603a565b63f92ee8a960e01b5f5260045ffd5b5f80fdfe60806040526004361015610011575f80fd5b5f3560e01c806306fdde0314611748578063095ea7b31461172257806318160ddd146116f957806323b872dd146116c1578063313ce567146116a65780633644e5151461168457806340c10f191461164757806342966c681461162a5780636c2eb35014610ebb57806370a0823114610e77578063715018a614610e1057806379cc679014610de05780637ecebe0014610d8a57806384b0196e14610c665780638da5cb5b14610c3257806395d89b4114610b38578063a9059cbb14610b07578063c4d66de8146102d8578063d505accf14610176578063dd62ed3e1461012f5763f2fde38b14610100575f80fd5b3461012b57602036600319011261012b5761012961011c611829565b610124611c69565b611a63565b005b5f80fd5b3461012b57604036600319011261012b57610148611829565b61015961015361183f565b91611a2b565b9060018060a01b03165f52602052602060405f2054604051908152f35b3461012b5760e036600319011261012b5761018f611829565b61019761183f565b604435906064359260843560ff8116810361012b578442116102c55761028a6102939160018060a01b03841696875f527f5ab42ced628888259c08ac98db1eb0cf702fc1501344311d8b100cd1bfe4bb0060205260405f20908154916001830190556040519060208201927f6e71edae12b1b97f4d1f60370fef10105fa2faae0126114a169c64845d6126c984528a604084015260018060a01b038916606084015289608084015260a083015260c082015260c0815261025860e08261188d565b519020610263611e77565b906040519161190160f01b83526002830152602282015260c43591604260a4359220611f09565b90929192611f96565b6001600160a01b03168481036102ae57506101299350611d52565b84906325c0072360e11b5f5260045260245260445ffd5b8463313c898160e11b5f5260045260245ffd5b3461012b57602036600319011261012b576102f1611829565b5f5160206121945f395f51905f52549067ffffffffffffffff60ff8360401c1615921680159081610aff575b6001149081610af5575b159081610aec575b50610add5781600167ffffffffffffffff195f5160206121945f395f51905f525416175f5160206121945f395f51905f5255610aa8575b6040519161037560408461188d565b600c83526b57726170706564205661726160a01b60208401526040519161039d60408461188d565b6005835264575641524160d81b60208401526103b7611ede565b6103bf611ede565b835167ffffffffffffffff8111610794576103e75f5160206120945f395f51905f5254611855565b601f8111610a2e575b50602094601f82116001146109b3579481929394955f926109a8575b50508160011b915f199060031b1c1916175f5160206120945f395f51905f52555b825167ffffffffffffffff8111610794576104555f5160206120f45f395f51905f5254611855565b601f811161092e575b506020601f82116001146108b357819293945f926108a8575b50508160011b915f199060031b1c1916175f5160206120f45f395f51905f52555b6104a0611ede565b6104a8611ede565b6104b0611ede565b6104b981611a63565b604051916104c860408461188d565b600c83526b57726170706564205661726160a01b60208401526104e9611ede565b604051916104f860408461188d565b60018352603160f81b602084015261050e611ede565b835167ffffffffffffffff8111610794576105365f5160206120d45f395f51905f5254611855565b601f811161082e575b50602094601f82116001146107b3579481929394955f926107a8575b50508160011b915f199060031b1c1916175f5160206120d45f395f51905f52555b825167ffffffffffffffff8111610794576105a45f5160206121545f395f51905f5254611855565b601f811161071a575b506020601f821160011461069f57819293945f92610694575b50508160011b915f199060031b1c1916175f5160206121545f395f51905f52555b5f5f5160206121745f395f51905f528190555f5160206121b45f395f51905f52556001600160a01b0381161561068157670de0b6b3a764000061062991611db5565b61062f57005b60ff60401b195f5160206121945f395f51905f5254165f5160206121945f395f51905f52557fc7f505b2f371ae2175ee4913f4499e1f2633a7b5936321eed1cdaeb6115181d2602060405160018152a1005b63ec442f0560e01b5f525f60045260245ffd5b0151905084806105c6565b601f198216905f5160206121545f395f51905f525f52805f20915f5b818110610702575095836001959697106106ea575b505050811b015f5160206121545f395f51905f52556105e7565b01515f1960f88460031b161c191690558480806106d0565b9192602060018192868b0151815501940192016106bb565b818111156105ad575f5160206121545f395f51905f525f52601f820160051c7f5f9ce34815f8e11431c7bb75a8e6886a91478f7ffc1dbb0a98dc240fddd76b756020841061078c575b81601f9101920160051c03905f5b82811061077f5750506105ad565b5f82820155600101610771565b5f9150610763565b634e487b7160e01b5f52604160045260245ffd5b01519050858061055b565b601f198216955f5160206120d45f395f51905f525f52805f20915f5b888110610816575083600195969798106107fe575b505050811b015f5160206120d45f395f51905f525561057c565b01515f1960f88460031b161c191690558580806107e4565b919260206001819286850151815501940192016107cf565b8181111561053f575f5160206120d45f395f51905f525f52601f820160051c7f42ad5d3e1f2e6e70edcf6d991b8a3023d3fca8047a131592f9edb9fd9b89d57d602084106108a0575b81601f9101920160051c03905f5b82811061089357505061053f565b5f82820155600101610885565b5f9150610877565b015190508480610477565b601f198216905f5160206120f45f395f51905f525f52805f20915f5b818110610916575095836001959697106108fe575b505050811b015f5160206120f45f395f51905f5255610498565b01515f1960f88460031b161c191690558480806108e4565b9192602060018192868b0151815501940192016108cf565b8181111561045e575f5160206120f45f395f51905f525f52601f820160051c7f46a2803e59a4de4e7a4c574b1243f25977ac4c77d5a1a4a609b5394cebb4a2aa602084106109a0575b81601f9101920160051c03905f5b82811061099357505061045e565b5f82820155600101610985565b5f9150610977565b01519050858061040c565b601f198216955f5160206120945f395f51905f525f52805f20915f5b888110610a16575083600195969798106109fe575b505050811b015f5160206120945f395f51905f525561042d565b01515f1960f88460031b161c191690558580806109e4565b919260206001819286850151815501940192016109cf565b818111156103f0575f5160206120945f395f51905f525f52601f820160051c7f2ae08a8e29253f69ac5d979a101956ab8f8d9d7ded63fa7a83b16fc47648eab060208410610aa0575b81601f9101920160051c03905f5b828110610a935750506103f0565b5f82820155600101610a85565b5f9150610a77565b6801000000000000000060ff60401b195f5160206121945f395f51905f525416175f5160206121945f395f51905f5255610366565b63f92ee8a960e01b5f5260045ffd5b9050158361032f565b303b159150610327565b83915061031d565b3461012b57604036600319011261012b57610b2d610b23611829565b6024359033611b98565b602060405160018152f35b3461012b575f36600319011261012b576040515f5f5160206120f45f395f51905f5254610b6481611855565b8084529060018116908115610c0e5750600114610ba4575b610ba083610b8c8185038261188d565b604051918291602083526020830190611805565b0390f35b5f5160206120f45f395f51905f525f9081527f46a2803e59a4de4e7a4c574b1243f25977ac4c77d5a1a4a609b5394cebb4a2aa939250905b808210610bf457509091508101602001610b8c610b7c565b919260018160209254838588010152019101909291610bdc565b60ff191660208086019190915291151560051b84019091019150610b8c9050610b7c565b3461012b575f36600319011261012b575f5160206121145f395f51905f52546040516001600160a01b039091168152602090f35b3461012b575f36600319011261012b575f5160206121745f395f51905f52541580610d74575b15610d3757610cdb610c9c6118af565b610ca461197e565b6020610ce960405192610cb7838561188d565b5f84525f368137604051958695600f60f81b875260e08588015260e0870190611805565b908582036040870152611805565b4660608501523060808501525f60a085015283810360c08501528180845192838152019301915f5b828110610d2057505050500390f35b835185528695509381019392810192600101610d11565b60405162461bcd60e51b81526020600482015260156024820152741152540dcc4c8e88155b9a5b9a5d1a585b1a5e9959605a1b6044820152606490fd5b505f5160206121b45f395f51905f525415610c8c565b3461012b57602036600319011261012b57610da3611829565b60018060a01b03165f527f5ab42ced628888259c08ac98db1eb0cf702fc1501344311d8b100cd1bfe4bb00602052602060405f2054604051908152f35b3461012b57604036600319011261012b57610129610dfc611829565b60243590610e0b823383611ad4565b611c9c565b3461012b575f36600319011261012b57610e28611c69565b5f5160206121145f395f51905f5280546001600160a01b031981169091555f906001600160a01b03167f8be0079c531659141344cd1fd0a4f28419497f9722a3daafe3b4186f6b6457e08280a3005b3461012b57602036600319011261012b576001600160a01b03610e98611829565b165f525f5160206120b45f395f51905f52602052602060405f2054604051908152f35b3461012b575f36600319011261012b57610ed3611c69565b5f5160206121945f395f51905f525460ff8160401c16908115611614575b50610add575f5160206121945f395f51905f52805468ffffffffffffffffff1916680100000000000000021790556040805190610f2e908261188d565b600c81526b57726170706564205661726160a01b6020820152604051610f5560408261188d565b6005815264575641524160d81b6020820152610f6f611ede565b610f77611ede565b815167ffffffffffffffff811161079457610f9f5f5160206120945f395f51905f5254611855565b601f811161159a575b50602092601f821160011461152157928192935f92611516575b50508160011b915f199060031b1c1916175f5160206120945f395f51905f52555b805167ffffffffffffffff81116107945761100b5f5160206120f45f395f51905f5254611855565b601f811161149c575b50602091601f8211600114611424579181925f92611419575b50508160011b915f199060031b1c1916175f5160206120f45f395f51905f52555b611056611ede565b5f5160206121145f395f51905f5254611082906001600160a01b031661107a611ede565b610124611ede565b60405161109060408261188d565b600c81526b57726170706564205661726160a01b60208201526110b1611ede565b6040516110bf60408261188d565b60018152603160f81b60208201526110d5611ede565b815167ffffffffffffffff8111610794576110fd5f5160206120d45f395f51905f5254611855565b601f811161139f575b50602092601f821160011461132657928192935f9261131b575b50508160011b915f199060031b1c1916175f5160206120d45f395f51905f52555b805167ffffffffffffffff8111610794576111695f5160206121545f395f51905f5254611855565b601f81116112a1575b50602091601f8211600114611229579181925f9261121e575b50508160011b915f199060031b1c1916175f5160206121545f395f51905f52555b5f5f5160206121745f395f51905f52555f5f5160206121b45f395f51905f525560ff60401b195f5160206121945f395f51905f5254165f5160206121945f395f51905f52557fc7f505b2f371ae2175ee4913f4499e1f2633a7b5936321eed1cdaeb6115181d2602060405160028152a1005b01519050828061118b565b601f198216925f5160206121545f395f51905f525f52805f20915f5b85811061128957508360019510611271575b505050811b015f5160206121545f395f51905f52556111ac565b01515f1960f88460031b161c19169055828080611257565b91926020600181928685015181550194019201611245565b81811115611172575f5160206121545f395f51905f525f52601f820160051c7f5f9ce34815f8e11431c7bb75a8e6886a91478f7ffc1dbb0a98dc240fddd76b7560208410611313575b81601f9101920160051c03905f5b828110611306575050611172565b5f828201556001016112f8565b5f91506112ea565b015190508380611120565b601f198216935f5160206120d45f395f51905f525f52805f20915f5b868110611387575083600195961061136f575b505050811b015f5160206120d45f395f51905f5255611141565b01515f1960f88460031b161c19169055838080611355565b91926020600181928685015181550194019201611342565b81811115611106575f5160206120d45f395f51905f525f52601f820160051c7f42ad5d3e1f2e6e70edcf6d991b8a3023d3fca8047a131592f9edb9fd9b89d57d60208410611411575b81601f9101920160051c03905f5b828110611404575050611106565b5f828201556001016113f6565b5f91506113e8565b01519050828061102d565b601f198216925f5160206120f45f395f51905f525f52805f20915f5b8581106114845750836001951061146c575b505050811b015f5160206120f45f395f51905f525561104e565b01515f1960f88460031b161c19169055828080611452565b91926020600181928685015181550194019201611440565b81811115611014575f5160206120f45f395f51905f525f52601f820160051c7f46a2803e59a4de4e7a4c574b1243f25977ac4c77d5a1a4a609b5394cebb4a2aa6020841061150e575b81601f9101920160051c03905f5b828110611501575050611014565b5f828201556001016114f3565b5f91506114e5565b015190508380610fc2565b601f198216935f5160206120945f395f51905f525f52805f20915f5b868110611582575083600195961061156a575b505050811b015f5160206120945f395f51905f5255610fe3565b01515f1960f88460031b161c19169055838080611550565b9192602060018192868501518155019401920161153d565b81811115610fa8575f5160206120945f395f51905f525f52601f820160051c7f2ae08a8e29253f69ac5d979a101956ab8f8d9d7ded63fa7a83b16fc47648eab06020841061160c575b81601f9101920160051c03905f5b8281106115ff575050610fa8565b5f828201556001016115f1565b5f91506115e3565b6002915067ffffffffffffffff16101581610ef1565b3461012b57602036600319011261012b5761012960043533611c9c565b3461012b57604036600319011261012b57611660611829565b611668611c69565b6001600160a01b03811615610681576101299060243590611db5565b3461012b575f36600319011261012b57602061169e611e77565b604051908152f35b3461012b575f36600319011261012b576020604051600c8152f35b3461012b57606036600319011261012b57610b2d6116dd611829565b6116e561183f565b604435916116f4833383611ad4565b611b98565b3461012b575f36600319011261012b5760205f5160206121345f395f51905f5254604051908152f35b3461012b57604036600319011261012b57610b2d61173e611829565b6024359033611d52565b3461012b575f36600319011261012b576040515f5f5160206120945f395f51905f525461177481611855565b8084529060018116908115610c0e575060011461179b57610ba083610b8c8185038261188d565b5f5160206120945f395f51905f525f9081527f2ae08a8e29253f69ac5d979a101956ab8f8d9d7ded63fa7a83b16fc47648eab0939250905b8082106117eb57509091508101602001610b8c610b7c565b9192600181602092548385880101520191019092916117d3565b805180835260209291819084018484015e5f828201840152601f01601f1916010190565b600435906001600160a01b038216820361012b57565b602435906001600160a01b038216820361012b57565b90600182811c92168015611883575b602083101461186f57565b634e487b7160e01b5f52602260045260245ffd5b91607f1691611864565b90601f8019910116810190811067ffffffffffffffff82111761079457604052565b604051905f825f5160206120d45f395f51905f5254916118ce83611855565b808352926001811690811561195f57506001146118f4575b6118f29250038361188d565b565b505f5160206120d45f395f51905f525f90815290917f42ad5d3e1f2e6e70edcf6d991b8a3023d3fca8047a131592f9edb9fd9b89d57d5b8183106119435750509060206118f2928201016118e6565b602091935080600191548385890101520191019091849261192b565b602092506118f294915060ff191682840152151560051b8201016118e6565b604051905f825f5160206121545f395f51905f52549161199d83611855565b808352926001811690811561195f57506001146119c0576118f29250038361188d565b505f5160206121545f395f51905f525f90815290917f5f9ce34815f8e11431c7bb75a8e6886a91478f7ffc1dbb0a98dc240fddd76b755b818310611a0f5750509060206118f2928201016118e6565b60209193508060019154838589010152019101909184926119f7565b6001600160a01b03165f9081527f52c63247e1f47db19d5ce0460030c497f067ca4cebf71ba98eeadabe20bace016020526040902090565b6001600160a01b03168015611ac1575f5160206121145f395f51905f5280546001600160a01b0319811683179091556001600160a01b03167f8be0079c531659141344cd1fd0a4f28419497f9722a3daafe3b4186f6b6457e05f80a3565b631e4fbdf760e01b5f525f60045260245ffd5b9190611adf83611a2b565b60018060a01b0382165f5260205260405f2054925f198410611b02575b50505050565b828410611b75576001600160a01b03811615611b62576001600160a01b03821615611b4f57611b3090611a2b565b9060018060a01b03165f5260205260405f20910390555f808080611afc565b634a1406b160e11b5f525f60045260245ffd5b63e602df0560e01b5f525f60045260245ffd5b508290637dc7a0d960e11b5f5260018060a01b031660045260245260445260645ffd5b6001600160a01b0316908115611c56576001600160a01b031691821561068157815f525f5160206120b45f395f51905f5260205260405f2054818110611c3d57817fddf252ad1be2c89b69c2b068fc378daa952ba7f163c4a11628f55a4df523b3ef92602092855f525f5160206120b45f395f51905f5284520360405f2055845f525f5160206120b45f395f51905f52825260405f20818154019055604051908152a3565b8263391434e360e21b5f5260045260245260445260645ffd5b634b637e8f60e11b5f525f60045260245ffd5b5f5160206121145f395f51905f52546001600160a01b03163303611c8957565b63118cdaa760e01b5f523360045260245ffd5b9091906001600160a01b03168015611c5657805f525f5160206120b45f395f51905f5260205260405f2054838110611d38576020845f94957fddf252ad1be2c89b69c2b068fc378daa952ba7f163c4a11628f55a4df523b3ef938587525f5160206120b45f395f51905f528452036040862055805f5160206121345f395f51905f5254035f5160206121345f395f51905f5255604051908152a3565b915063391434e360e21b5f5260045260245260445260645ffd5b916001600160a01b038316918215611b62576001600160a01b0316928315611b4f577f8c5be1e5ebec7d5bd14f71427d1e84f3dd0314c0f7b2291e5b200ac8c7c3b92591611da1602092611a2b565b855f5282528060405f2055604051908152a3565b5f5160206121345f395f51905f525490828201809211611e63575f5160206121345f395f51905f52919091556001600160a01b0316905f907fddf252ad1be2c89b69c2b068fc378daa952ba7f163c4a11628f55a4df523b3ef9060209084611e4157805f5160206121345f395f51905f5254035f5160206121345f395f51905f52555b604051908152a3565b8484525f5160206120b45f395f51905f52825260408420818154019055611e38565b634e487b7160e01b5f52601160045260245ffd5b611e7f61200a565b611e87612061565b6040519060208201927f8b73c3c69bb8fe3d512ecc4cf759cc79239f7b179b0ffacaa9a75d522b39400f8452604083015260608201524660808201523060a082015260a08152611ed860c08261188d565b51902090565b60ff5f5160206121945f395f51905f525460401c1615611efa57565b631afcd79f60e31b5f5260045ffd5b91907f7fffffffffffffffffffffffffffffff5d576e7357a4501ddfe92f46681b20a08411611f8b579160209360809260ff5f9560405194855216868401526040830152606082015282805260015afa15611f80575f516001600160a01b03811615611f7657905f905f90565b505f906001905f90565b6040513d5f823e3d90fd5b5050505f9160039190565b6004811015611ff65780611fa8575050565b60018103611fbf5763f645eedf60e01b5f5260045ffd5b60028103611fda575063fce698f760e01b5f5260045260245ffd5b600314611fe45750565b6335e2f38360e21b5f5260045260245ffd5b634e487b7160e01b5f52602160045260245ffd5b6120126118af565b8051908115612022576020012090565b50505f5160206121745f395f51905f5254801561203c5790565b507fc5d2460186f7233c927e7db2dcc703c0e500b653ca82273b7bfad8045d85a47090565b61206961197e565b8051908115612079576020012090565b50505f5160206121b45f395f51905f5254801561203c579056fe52c63247e1f47db19d5ce0460030c497f067ca4cebf71ba98eeadabe20bace0352c63247e1f47db19d5ce0460030c497f067ca4cebf71ba98eeadabe20bace00a16a46d94261c7517cc8ff89f61c0ce93598e3c849801011dee649a6a557d10252c63247e1f47db19d5ce0460030c497f067ca4cebf71ba98eeadabe20bace049016d09d72d40fdae2fd8ceac6b6234c7706214fd39c1cd1e609a0528c19930052c63247e1f47db19d5ce0460030c497f067ca4cebf71ba98eeadabe20bace02a16a46d94261c7517cc8ff89f61c0ce93598e3c849801011dee649a6a557d103a16a46d94261c7517cc8ff89f61c0ce93598e3c849801011dee649a6a557d100f0c57e16840df040f15088dc2f81fe391c3923bec73e23a9662efc9c229c6a00a16a46d94261c7517cc8ff89f61c0ce93598e3c849801011dee649a6a557d101f0c57e16840df040f15088dc2f81fe391c3923bec73e23a9662efc9c229c6a00","linkReferences":{}},"methodIdentifiers":{"DOMAIN_SEPARATOR()":"3644e515","allowance(address,address)":"dd62ed3e","approve(address,uint256)":"095ea7b3","balanceOf(address)":"70a08231","burn(uint256)":"42966c68","burnFrom(address,uint256)":"79cc6790","decimals()":"313ce567","eip712Domain()":"84b0196e","initialize(address)":"c4d66de8","mint(address,uint256)":"40c10f19","name()":"06fdde03","nonces(address)":"7ecebe00","owner()":"8da5cb5b","permit(address,address,uint256,uint256,uint8,bytes32,bytes32)":"d505accf","reinitialize()":"6c2eb350","renounceOwnership()":"715018a6","symbol()":"95d89b41","totalSupply()":"18160ddd","transfer(address,uint256)":"a9059cbb","transferFrom(address,address,uint256)":"23b872dd","transferOwnership(address)":"f2fde38b"},"storageLayout":{"storage":[],"types":{}},"id":150}