{"abi":[{"type":"constructor","inputs":[],"stateMutability":"nonpayable"},{"type":"function","name":"DOMAIN_SEPARATOR","inputs":[],"outputs":[{"name":"","type":"bytes32","internalType":"bytes32"}],"stateMutability":"view"},{"type":"function","name":"allowance","inputs":[{"name":"owner","type":"address","internalType":"address"},{"name":"spender","type":"address","internalType":"address"}],"outputs":[{"name":"","type":"uint256","internalType":"uint256"}],"stateMutability":"view"},{"type":"function","name":"approve","inputs":[{"name":"spender","type":"address","internalType":"address"},{"name":"value","type":"uint256","internalType":"uint256"}],"outputs":[{"name":"","type":"bool","internalType":"bool"}],"stateMutability":"nonpayable"},{"type":"function","name":"balanceOf","inputs":[{"name":"account","type":"address","internalType":"address"}],"outputs":[{"name":"","type":"uint256","internalType":"uint256"}],"stateMutability":"view"},{"type":"function","name":"burn","inputs":[{"name":"value","type":"uint256","internalType":"uint256"}],"outputs":[],"stateMutability":"nonpayable"},{"type":"function","name":"burnFrom","inputs":[{"name":"account","type":"address","internalType":"address"},{"name":"value","type":"uint256","internalType":"uint256"}],"outputs":[],"stateMutability":"nonpayable"},{"type":"function","name":"decimals","inputs":[],"outputs":[{"name":"","type":"uint8","internalType":"uint8"}],"stateMutability":"pure"},{"type":"function","name":"eip712Domain","inputs":[],"outputs":[{"name":"fields","type":"bytes1","internalType":"bytes1"},{"name":"name","type":"string","internalType":"string"},{"name":"version","type":"string","internalType":"string"},{"name":"chainId","type":"uint256","internalType":"uint256"},{"name":"verifyingContract","type":"address","internalType":"address"},{"name":"salt","type":"bytes32","internalType":"bytes32"},{"name":"extensions","type":"uint256[]","internalType":"uint256[]"}],"stateMutability":"view"},{"type":"function","name":"initialize","inputs":[{"name":"initialOwner","type":"address","internalType":"address"}],"outputs":[],"stateMutability":"nonpayable"},{"type":"function","name":"mint","inputs":[{"name":"to","type":"address","internalType":"address"},{"name":"amount","type":"uint256","internalType":"uint256"}],"outputs":[],"stateMutability":"nonpayable"},{"type":"function","name":"name","inputs":[],"outputs":[{"name":"","type":"string","internalType":"string"}],"stateMutability":"view"},{"type":"function","name":"nonces","inputs":[{"name":"owner","type":"address","internalType":"address"}],"outputs":[{"name":"","type":"uint256","internalType":"uint256"}],"stateMutability":"view"},{"type":"function","name":"owner","inputs":[],"outputs":[{"name":"","type":"address","internalType":"address"}],"stateMutability":"view"},{"type":"function","name":"permit","inputs":[{"name":"owner","type":"address","internalType":"address"},{"name":"spender","type":"address","internalType":"address"},{"name":"value","type":"uint256","internalType":"uint256"},{"name":"deadline","type":"uint256","internalType":"uint256"},{"name":"v","type":"uint8","internalType":"uint8"},{"name":"r","type":"bytes32","internalType":"bytes32"},{"name":"s","type":"bytes32","internalType":"bytes32"}],"outputs":[],"stateMutability":"nonpayable"},{"type":"function","name":"reinitialize","inputs":[],"outputs":[],"stateMutability":"nonpayable"},{"type":"function","name":"renounceOwnership","inputs":[],"outputs":[],"stateMutability":"nonpayable"},{"type":"function","name":"symbol","inputs":[],"outputs":[{"name":"","type":"string","internalType":"string"}],"stateMutability":"view"},{"type":"function","name":"totalSupply","inputs":[],"outputs":[{"name":"","type":"uint256","internalType":"uint256"}],"stateMutability":"view"},{"type":"function","name":"transfer","inputs":[{"name":"to","type":"address","internalType":"address"},{"name":"value","type":"uint256","internalType":"uint256"}],"outputs":[{"name":"","type":"bool","internalType":"bool"}],"stateMutability":"nonpayable"},{"type":"function","name":"transferFrom","inputs":[{"name":"from","type":"address","internalType":"address"},{"name":"to","type":"address","internalType":"address"},{"name":"value","type":"uint256","internalType":"uint256"}],"outputs":[{"name":"","type":"bool","internalType":"bool"}],"stateMutability":"nonpayable"},{"type":"function","name":"transferOwnership","inputs":[{"name":"newOwner","type":"address","internalType":"address"}],"outputs":[],"stateMutability":"nonpayable"},{"type":"event","name":"Approval","inputs":[{"name":"owner","type":"address","indexed":true,"internalType":"address"},{"name":"spender","type":"address","indexed":true,"internalType":"address"},{"name":"value","type":"uint256","indexed":false,"internalType":"uint256"}],"anonymous":false},{"type":"event","name":"EIP712DomainChanged","inputs":[],"anonymous":false},{"type":"event","name":"Initialized","inputs":[{"name":"version","type":"uint64","indexed":false,"internalType":"uint64"}],"anonymous":false},{"type":"event","name":"OwnershipTransferred","inputs":[{"name":"previousOwner","type":"address","indexed":true,"internalType":"address"},{"name":"newOwner","type":"address","indexed":true,"internalType":"address"}],"anonymous":false},{"type":"event","name":"Transfer","inputs":[{"name":"from","type":"address","indexed":true,"internalType":"address"},{"name":"to","type":"address","indexed":true,"internalType":"address"},{"name":"value","type":"uint256","indexed":false,"internalType":"uint256"}],"anonymous":false},{"type":"error","name":"ECDSAInvalidSignature","inputs":[]},{"type":"error","name":"ECDSAInvalidSignatureLength","inputs":[{"name":"length","type":"uint256","internalType":"uint256"}]},{"type":"error","name":"ECDSAInvalidSignatureS","inputs":[{"name":"s","type":"bytes32","internalType":"bytes32"}]},{"type":"error","name":"ERC20InsufficientAllowance","inputs":[{"name":"spender","type":"address","internalType":"address"},{"name":"allowance","type":"uint256","internalType":"uint256"},{"name":"needed","type":"uint256","internalType":"uint256"}]},{"type":"error","name":"ERC20InsufficientBalance","inputs":[{"name":"sender","type":"address","internalType":"address"},{"name":"balance","type":"uint256","internalType":"uint256"},{"name":"needed","type":"uint256","internalType":"uint256"}]},{"type":"error","name":"ERC20InvalidApprover","inputs":[{"name":"approver","type":"address","internalType":"address"}]},{"type":"error","name":"ERC20InvalidReceiver","inputs":[{"name":"receiver","type":"address","internalType":"address"}]},{"type":"error","name":"ERC20InvalidSender","inputs":[{"name":"sender","type":"address","internalType":"address"}]},{"type":"error","name":"ERC20InvalidSpender","inputs":[{"name":"spender","type":"address","internalType":"address"}]},{"type":"error","name":"ERC2612ExpiredSignature","inputs":[{"name":"deadline","type":"uint256","internalType":"uint256"}]},{"type":"error","name":"ERC2612InvalidSigner","inputs":[{"name":"signer","type":"address","internalType":"address"},{"name":"owner","type":"address","internalType":"address"}]},{"type":"error","name":"InvalidAccountNonce","inputs":[{"name":"account","type":"address","internalType":"address"},{"name":"currentNonce","type":"uint256","internalType":"uint256"}]},{"type":"error","name":"InvalidInitialization","inputs":[]},{"type":"error","name":"NotInitializing","inputs":[]},{"type":"error","name":"OwnableInvalidOwner","inputs":[{"name":"owner","type":"address","internalType":"address"}]},{"type":"error","name":"OwnableUnauthorizedAccount","inputs":[{"name":"account","type":"address","internalType":"address"}]}],"bytecode":{"object":"0x6080806040523460aa575f516020611d6d5f395f51905f525460ff8160401c16609b576002600160401b03196001600160401b038216016049575b604051611cbe90816100af8239f35b6001600160401b0319166001600160401b039081175f516020611d6d5f395f51905f525581527fc7f505b2f371ae2175ee4913f4499e1f2633a7b5936321eed1cdaeb6115181d290602090a15f80603a565b63f92ee8a960e01b5f5260045ffd5b5f80fdfe60806040526004361015610011575f80fd5b5f3560e01c806306fdde031461120d578063095ea7b3146111e757806318160ddd146111be57806323b872dd14611186578063313ce5671461116b5780633644e5151461114957806340c10f191461110c57806342966c68146110ef5780636c2eb3501461105557806370a0823114611011578063715018a614610faa57806379cc679014610f7a5780637ecebe0014610f2457806384b0196e14610c505780638da5cb5b14610c1c57806395d89b4114610b22578063a9059cbb14610af1578063c4d66de8146102d8578063d505accf14610176578063dd62ed3e1461012f5763f2fde38b14610100575f80fd5b3461012b57602036600319011261012b5761012961011c6112ee565b6101246115b2565b6113ac565b005b5f80fd5b3461012b57604036600319011261012b576101486112ee565b610159610153611304565b91611374565b9060018060a01b03165f52602052602060405f2054604051908152f35b3461012b5760e036600319011261012b5761018f6112ee565b610197611304565b604435906064359260843560ff8116810361012b578442116102c55761028a6102939160018060a01b03841696875f527f5ab42ced628888259c08ac98db1eb0cf702fc1501344311d8b100cd1bfe4bb0060205260405f20908154916001830190556040519060208201927f6e71edae12b1b97f4d1f60370fef10105fa2faae0126114a169c64845d6126c984528a604084015260018060a01b038916606084015289608084015260a083015260c082015260c0815261025860e082611352565b5190206102636117c0565b906040519161190160f01b83526002830152602282015260c43591604260a4359220611852565b909291926118df565b6001600160a01b03168481036102ae5750610129935061169b565b84906325c0072360e11b5f5260045260245260445ffd5b8463313c898160e11b5f5260045260245ffd5b3461012b57602036600319011261012b576102f16112ee565b5f516020611c695f395f51905f52549060ff8260401c16159167ffffffffffffffff811680159081610ae9575b6001149081610adf575b159081610ad6575b50610ac75767ffffffffffffffff1981166001175f516020611c695f395f51905f525582610a9b575b5060405191610369604084611352565b600c83526b57726170706564205661726160a01b602084015260405191610391604084611352565b6005835264575641524160d81b60208401526103ab611827565b6103b3611827565b835167ffffffffffffffff81116107a8576103db5f516020611b895f395f51905f525461131a565b601f8111610a2c575b50602094601f82116001146109b1579481929394955f926109a6575b50508160011b915f199060031b1c1916175f516020611b895f395f51905f52555b825167ffffffffffffffff81116107a8576104495f516020611be95f395f51905f525461131a565b601f8111610937575b506020601f82116001146108bc57819293945f926108b1575b50508160011b915f199060031b1c1916175f516020611be95f395f51905f52555b610494611827565b61049c611827565b6104a4611827565b6104ad816113ac565b604051916104bc604084611352565b600c83526b57726170706564205661726160a01b60208401526104dd611827565b604051916104ec604084611352565b60018352603160f81b6020840152610502611827565b835167ffffffffffffffff81116107a85761052a5f516020611bc95f395f51905f525461131a565b601f8111610842575b50602094601f82116001146107c7579481929394955f926107bc575b50508160011b915f199060031b1c1916175f516020611bc95f395f51905f52555b825167ffffffffffffffff81116107a8576105985f516020611c495f395f51905f525461131a565b601f8111610739575b506020601f82116001146106be57819293945f926106b3575b50508160011b915f199060031b1c1916175f516020611c495f395f51905f52555b5f7fa16a46d94261c7517cc8ff89f61c0ce93598e3c849801011dee649a6a557d1008190557fa16a46d94261c7517cc8ff89f61c0ce93598e3c849801011dee649a6a557d101556001600160a01b038116156106a057670de0b6b3a7640000610643916116fe565b61064957005b68ff0000000000000000195f516020611c695f395f51905f5254165f516020611c695f395f51905f52557fc7f505b2f371ae2175ee4913f4499e1f2633a7b5936321eed1cdaeb6115181d2602060405160018152a1005b63ec442f0560e01b5f525f60045260245ffd5b0151905084806105ba565b601f198216905f516020611c495f395f51905f525f52805f20915f5b81811061072157509583600195969710610709575b505050811b015f516020611c495f395f51905f52556105db565b01515f1960f88460031b161c191690558480806106ef565b9192602060018192868b0151815501940192016106da565b5f516020611c495f395f51905f525f527f5f9ce34815f8e11431c7bb75a8e6886a91478f7ffc1dbb0a98dc240fddd76b75601f830160051c8101916020841061079e575b601f0160051c01905b81811061079357506105a1565b5f8155600101610786565b909150819061077d565b634e487b7160e01b5f52604160045260245ffd5b01519050858061054f565b601f198216955f516020611bc95f395f51905f525f52805f20915f5b88811061082a57508360019596979810610812575b505050811b015f516020611bc95f395f51905f5255610570565b01515f1960f88460031b161c191690558580806107f8565b919260206001819286850151815501940192016107e3565b5f516020611bc95f395f51905f525f527f42ad5d3e1f2e6e70edcf6d991b8a3023d3fca8047a131592f9edb9fd9b89d57d601f830160051c810191602084106108a7575b601f0160051c01905b81811061089c5750610533565b5f815560010161088f565b9091508190610886565b01519050848061046b565b601f198216905f516020611be95f395f51905f525f52805f20915f5b81811061091f57509583600195969710610907575b505050811b015f516020611be95f395f51905f525561048c565b01515f1960f88460031b161c191690558480806108ed565b9192602060018192868b0151815501940192016108d8565b5f516020611be95f395f51905f525f527f46a2803e59a4de4e7a4c574b1243f25977ac4c77d5a1a4a609b5394cebb4a2aa601f830160051c8101916020841061099c575b601f0160051c01905b8181106109915750610452565b5f8155600101610984565b909150819061097b565b015190508580610400565b601f198216955f516020611b895f395f51905f525f52805f20915f5b888110610a14575083600195969798106109fc575b505050811b015f516020611b895f395f51905f5255610421565b01515f1960f88460031b161c191690558580806109e2565b919260206001819286850151815501940192016109cd565b5f516020611b895f395f51905f525f527f2ae08a8e29253f69ac5d979a101956ab8f8d9d7ded63fa7a83b16fc47648eab0601f830160051c81019160208410610a91575b601f0160051c01905b818110610a8657506103e4565b5f8155600101610a79565b9091508190610a70565b68ffffffffffffffffff191668010000000000000001175f516020611c695f395f51905f525582610359565b63f92ee8a960e01b5f5260045ffd5b90501584610330565b303b159150610328565b84915061031e565b3461012b57604036600319011261012b57610b17610b0d6112ee565b60243590336114e1565b602060405160018152f35b3461012b575f36600319011261012b576040515f5f516020611be95f395f51905f5254610b4e8161131a565b8084529060018116908115610bf85750600114610b8e575b610b8a83610b7681850382611352565b6040519182916020835260208301906112ca565b0390f35b5f516020611be95f395f51905f525f9081527f46a2803e59a4de4e7a4c574b1243f25977ac4c77d5a1a4a609b5394cebb4a2aa939250905b808210610bde57509091508101602001610b76610b66565b919260018160209254838588010152019101909291610bc6565b60ff191660208086019190915291151560051b84019091019150610b769050610b66565b3461012b575f36600319011261012b575f516020611c095f395f51905f52546040516001600160a01b039091168152602090f35b3461012b575f36600319011261012b577fa16a46d94261c7517cc8ff89f61c0ce93598e3c849801011dee649a6a557d100541580610efb575b15610ebe576040515f516020611bc95f395f51905f5254815f610cab8361131a565b8083529260018116908115610e9f5750600114610e34575b610ccf92500382611352565b6040515f516020611c495f395f51905f5254815f610cec8361131a565b8083529260018116908115610e155750600114610daa575b610d1791925092610d4e94930382611352565b6020610d5c60405192610d2a8385611352565b5f84525f368137604051958695600f60f81b875260e08588015260e08701906112ca565b9085820360408701526112ca565b4660608501523060808501525f60a085015283810360c08501528180845192838152019301915f5b828110610d9357505050500390f35b835185528695509381019392810192600101610d84565b505f516020611c495f395f51905f525f90815290917f5f9ce34815f8e11431c7bb75a8e6886a91478f7ffc1dbb0a98dc240fddd76b755b818310610df9575050906020610d1792820101610d04565b6020919350806001915483858801015201910190918392610de1565b60209250610d1794915060ff191682840152151560051b820101610d04565b505f516020611bc95f395f51905f525f90815290917f42ad5d3e1f2e6e70edcf6d991b8a3023d3fca8047a131592f9edb9fd9b89d57d5b818310610e83575050906020610ccf92820101610cc3565b6020919350806001915483858801015201910190918392610e6b565b60209250610ccf94915060ff191682840152151560051b820101610cc3565b60405162461bcd60e51b81526020600482015260156024820152741152540dcc4c8e88155b9a5b9a5d1a585b1a5e9959605a1b6044820152606490fd5b507fa16a46d94261c7517cc8ff89f61c0ce93598e3c849801011dee649a6a557d1015415610c89565b3461012b57602036600319011261012b57610f3d6112ee565b60018060a01b03165f527f5ab42ced628888259c08ac98db1eb0cf702fc1501344311d8b100cd1bfe4bb00602052602060405f2054604051908152f35b3461012b57604036600319011261012b57610129610f966112ee565b60243590610fa582338361141d565b6115e5565b3461012b575f36600319011261012b57610fc26115b2565b5f516020611c095f395f51905f5280546001600160a01b031981169091555f906001600160a01b03167f8be0079c531659141344cd1fd0a4f28419497f9722a3daafe3b4186f6b6457e08280a3005b3461012b57602036600319011261012b576001600160a01b036110326112ee565b165f525f516020611ba95f395f51905f52602052602060405f2054604051908152f35b3461012b575f36600319011261012b5761106d6115b2565b5f516020611c695f395f51905f525460ff8160401c1680156110da575b610ac75760029068ffffffffffffffffff1916175f516020611c695f395f51905f52557fc7f505b2f371ae2175ee4913f4499e1f2633a7b5936321eed1cdaeb6115181d2602060405160028152a1005b50600267ffffffffffffffff8216101561108a565b3461012b57602036600319011261012b57610129600435336115e5565b3461012b57604036600319011261012b576111256112ee565b61112d6115b2565b6001600160a01b038116156106a05761012990602435906116fe565b3461012b575f36600319011261012b5760206111636117c0565b604051908152f35b3461012b575f36600319011261012b576020604051600c8152f35b3461012b57606036600319011261012b57610b176111a26112ee565b6111aa611304565b604435916111b983338361141d565b6114e1565b3461012b575f36600319011261012b5760205f516020611c295f395f51905f5254604051908152f35b3461012b57604036600319011261012b57610b176112036112ee565b602435903361169b565b3461012b575f36600319011261012b576040515f5f516020611b895f395f51905f52546112398161131a565b8084529060018116908115610bf8575060011461126057610b8a83610b7681850382611352565b5f516020611b895f395f51905f525f9081527f2ae08a8e29253f69ac5d979a101956ab8f8d9d7ded63fa7a83b16fc47648eab0939250905b8082106112b057509091508101602001610b76610b66565b919260018160209254838588010152019101909291611298565b805180835260209291819084018484015e5f828201840152601f01601f1916010190565b600435906001600160a01b038216820361012b57565b602435906001600160a01b038216820361012b57565b90600182811c92168015611348575b602083101461133457565b634e487b7160e01b5f52602260045260245ffd5b91607f1691611329565b90601f8019910116810190811067ffffffffffffffff8211176107a857604052565b6001600160a01b03165f9081527f52c63247e1f47db19d5ce0460030c497f067ca4cebf71ba98eeadabe20bace016020526040902090565b6001600160a01b0316801561140a575f516020611c095f395f51905f5280546001600160a01b0319811683179091556001600160a01b03167f8be0079c531659141344cd1fd0a4f28419497f9722a3daafe3b4186f6b6457e05f80a3565b631e4fbdf760e01b5f525f60045260245ffd5b919061142883611374565b60018060a01b0382165f5260205260405f2054925f19840361144b575b50505050565b8284106114be576001600160a01b038116156114ab576001600160a01b038216156114985761147990611374565b9060018060a01b03165f5260205260405f20910390555f808080611445565b634a1406b160e11b5f525f60045260245ffd5b63e602df0560e01b5f525f60045260245ffd5b508290637dc7a0d960e11b5f5260018060a01b031660045260245260445260645ffd5b6001600160a01b031690811561159f576001600160a01b03169182156106a057815f525f516020611ba95f395f51905f5260205260405f205481811061158657817fddf252ad1be2c89b69c2b068fc378daa952ba7f163c4a11628f55a4df523b3ef92602092855f525f516020611ba95f395f51905f5284520360405f2055845f525f516020611ba95f395f51905f52825260405f20818154019055604051908152a3565b8263391434e360e21b5f5260045260245260445260645ffd5b634b637e8f60e11b5f525f60045260245ffd5b5f516020611c095f395f51905f52546001600160a01b031633036115d257565b63118cdaa760e01b5f523360045260245ffd5b9091906001600160a01b0316801561159f57805f525f516020611ba95f395f51905f5260205260405f2054838110611681576020845f94957fddf252ad1be2c89b69c2b068fc378daa952ba7f163c4a11628f55a4df523b3ef938587525f516020611ba95f395f51905f528452036040862055805f516020611c295f395f51905f5254035f516020611c295f395f51905f5255604051908152a3565b915063391434e360e21b5f5260045260245260445260645ffd5b916001600160a01b0383169182156114ab576001600160a01b0316928315611498577f8c5be1e5ebec7d5bd14f71427d1e84f3dd0314c0f7b2291e5b200ac8c7c3b925916116ea602092611374565b855f5282528060405f2055604051908152a3565b5f516020611c295f395f51905f5254908282018092116117ac575f516020611c295f395f51905f52919091556001600160a01b0316905f907fddf252ad1be2c89b69c2b068fc378daa952ba7f163c4a11628f55a4df523b3ef906020908461178a57805f516020611c295f395f51905f5254035f516020611c295f395f51905f52555b604051908152a3565b8484525f516020611ba95f395f51905f52825260408420818154019055611781565b634e487b7160e01b5f52601160045260245ffd5b6117c8611953565b6117d0611a80565b6040519060208201927f8b73c3c69bb8fe3d512ecc4cf759cc79239f7b179b0ffacaa9a75d522b39400f8452604083015260608201524660808201523060a082015260a0815261182160c082611352565b51902090565b60ff5f516020611c695f395f51905f525460401c161561184357565b631afcd79f60e31b5f5260045ffd5b91907f7fffffffffffffffffffffffffffffff5d576e7357a4501ddfe92f46681b20a084116118d4579160209360809260ff5f9560405194855216868401526040830152606082015282805260015afa156118c9575f516001600160a01b038116156118bf57905f905f90565b505f906001905f90565b6040513d5f823e3d90fd5b5050505f9160039190565b600481101561193f57806118f1575050565b600181036119085763f645eedf60e01b5f5260045ffd5b60028103611923575063fce698f760e01b5f5260045260245ffd5b60031461192d5750565b6335e2f38360e21b5f5260045260245ffd5b634e487b7160e01b5f52602160045260245ffd5b6040515f516020611bc95f395f51905f5254905f816119718461131a565b9182825260208201946001811690815f14611a6457506001146119f9575b61199b92500382611352565b519081156119a7572090565b50507fa16a46d94261c7517cc8ff89f61c0ce93598e3c849801011dee649a6a557d1005480156119d45790565b507fc5d2460186f7233c927e7db2dcc703c0e500b653ca82273b7bfad8045d85a47090565b505f516020611bc95f395f51905f525f90815290917f42ad5d3e1f2e6e70edcf6d991b8a3023d3fca8047a131592f9edb9fd9b89d57d5b818310611a4857505090602061199b9282010161198f565b6020919350806001915483858801015201910190918392611a30565b60ff191686525061199b92151560051b8201602001905061198f565b6040515f516020611c495f395f51905f5254905f81611a9e8461131a565b9182825260208201946001811690815f14611b6c5750600114611b01575b611ac892500382611352565b51908115611ad4572090565b50507fa16a46d94261c7517cc8ff89f61c0ce93598e3c849801011dee649a6a557d1015480156119d45790565b505f516020611c495f395f51905f525f90815290917f5f9ce34815f8e11431c7bb75a8e6886a91478f7ffc1dbb0a98dc240fddd76b755b818310611b50575050906020611ac892820101611abc565b6020919350806001915483858801015201910190918392611b38565b60ff1916865250611ac892151560051b82016020019050611abc56fe52c63247e1f47db19d5ce0460030c497f067ca4cebf71ba98eeadabe20bace0352c63247e1f47db19d5ce0460030c497f067ca4cebf71ba98eeadabe20bace00a16a46d94261c7517cc8ff89f61c0ce93598e3c849801011dee649a6a557d10252c63247e1f47db19d5ce0460030c497f067ca4cebf71ba98eeadabe20bace049016d09d72d40fdae2fd8ceac6b6234c7706214fd39c1cd1e609a0528c19930052c63247e1f47db19d5ce0460030c497f067ca4cebf71ba98eeadabe20bace02a16a46d94261c7517cc8ff89f61c0ce93598e3c849801011dee649a6a557d103f0c57e16840df040f15088dc2f81fe391c3923bec73e23a9662efc9c229c6a00a26469706673582212203ce164046c34e3abbf805b23e3f25930a1466a485bfda7a2369c75651fa3cfbd64736f6c634300081c0033f0c57e16840df040f15088dc2f81fe391c3923bec73e23a9662efc9c229c6a00","linkReferences":{}},"methodIdentifiers":{"DOMAIN_SEPARATOR()":"3644e515","allowance(address,address)":"dd62ed3e","approve(address,uint256)":"095ea7b3","balanceOf(address)":"70a08231","burn(uint256)":"42966c68","burnFrom(address,uint256)":"79cc6790","decimals()":"313ce567","eip712Domain()":"84b0196e","initialize(address)":"c4d66de8","mint(address,uint256)":"40c10f19","name()":"06fdde03","nonces(address)":"7ecebe00","owner()":"8da5cb5b","permit(address,address,uint256,uint256,uint8,bytes32,bytes32)":"d505accf","reinitialize()":"6c2eb350","renounceOwnership()":"715018a6","symbol()":"95d89b41","totalSupply()":"18160ddd","transfer(address,uint256)":"a9059cbb","transferFrom(address,address,uint256)":"23b872dd","transferOwnership(address)":"f2fde38b"},"storageLayout":{"storage":[],"types":{}},"id":160}