{"abi":[{"type":"constructor","inputs":[{"name":"_router","type":"address","internalType":"address"}],"stateMutability":"nonpayable"},{"type":"function","name":"claimValue","inputs":[{"name":"messageId","type":"bytes32","internalType":"bytes32"}],"outputs":[],"stateMutability":"nonpayable"},{"type":"function","name":"performPayout","inputs":[{"name":"actorId","type":"address","internalType":"address"},{"name":"value","type":"uint128","internalType":"uint128"}],"outputs":[],"stateMutability":"nonpayable"},{"type":"function","name":"performStateTransition","inputs":[{"name":"oldStateHash","type":"bytes32","internalType":"bytes32"},{"name":"newStateHash","type":"bytes32","internalType":"bytes32"}],"outputs":[],"stateMutability":"nonpayable"},{"type":"function","name":"router","inputs":[],"outputs":[{"name":"","type":"address","internalType":"address"}],"stateMutability":"view"},{"type":"function","name":"sendMessage","inputs":[{"name":"payload","type":"bytes","internalType":"bytes"},{"name":"gasLimit","type":"uint64","internalType":"uint64"}],"outputs":[],"stateMutability":"payable"},{"type":"function","name":"sendReply","inputs":[{"name":"replyToId","type":"bytes32","internalType":"bytes32"},{"name":"payload","type":"bytes","internalType":"bytes"},{"name":"gasLimit","type":"uint64","internalType":"uint64"}],"outputs":[],"stateMutability":"payable"},{"type":"function","name":"stateHash","inputs":[],"outputs":[{"name":"","type":"bytes32","internalType":"bytes32"}],"stateMutability":"view"}],"bytecode":{"object":"0x60a0604052348015600e575f80fd5b506040516107ac3803806107ac833981016040819052602b91603b565b6001600160a01b03166080526066565b5f60208284031215604a575f80fd5b81516001600160a01b0381168114605f575f80fd5b9392505050565b60805161070b6100a15f395f818161012f0152818161017f015281816101ec015281816103060152818161038c0152610407015261070b5ff3fe60806040526004361061006e575f3560e01c8063ab6fd6b61161004c578063ab6fd6b6146100d9578063d8897e87146100ec578063e9e2d099146100ff578063f887ea401461011e575f80fd5b8063701da98e1461007257806391d5a64c146100995780639336255f146100ba575b5f80fd5b34801561007d575f80fd5b506100865f5481565b6040519081526020015b60405180910390f35b3480156100a4575f80fd5b506100b86100b33660046104b6565b610169565b005b3480156100c5575f80fd5b506100b86100d43660046104cd565b6101e1565b6100b86100e736600461057b565b6102ef565b6100b86100fa3660046105cb565b610375565b34801561010a575f80fd5b506100b8610119366004610625565b6103fc565b348015610129575f80fd5b506101517f000000000000000000000000000000000000000000000000000000000000000081565b6040516001600160a01b039091168152602001610090565b604051632475699360e21b8152600481018290527f00000000000000000000000000000000000000000000000000000000000000006001600160a01b0316906391d5a64c906024015f604051808303815f87803b1580156101c8575f80fd5b505af11580156101da573d5f803e3d5ffd5b5050505050565b336001600160a01b037f0000000000000000000000000000000000000000000000000000000000000000161461024b5760405162461bcd60e51b815260206004820152600a6024820152693737ba103937baba32b960b11b60448201526064015b60405180910390fd5b5f826001600160a01b0316826001600160801b03166040515f6040518083038185875af1925050503d805f811461029d576040519150601f19603f3d011682016040523d82523d5f602084013e6102a2565b606091505b50509050806102ea5760405162461bcd60e51b81526020600482015260146024820152736661696c656420746f2073656e642076616c756560601b6044820152606401610242565b505050565b6040516375e7e6dd60e01b81526001600160a01b037f000000000000000000000000000000000000000000000000000000000000000016906375e7e6dd90610343903090879087908790349060040161066d565b5f604051808303815f87803b15801561035a575f80fd5b505af115801561036c573d5f803e3d5ffd5b50505050505050565b60405163195e081d60e11b81526001600160a01b037f000000000000000000000000000000000000000000000000000000000000000016906332bc103a906103c990879087908790879034906004016106bc565b5f604051808303815f87803b1580156103e0575f80fd5b505af11580156103f2573d5f803e3d5ffd5b5050505050505050565b336001600160a01b037f000000000000000000000000000000000000000000000000000000000000000016146104615760405162461bcd60e51b815260206004820152600a6024820152693737ba103937baba32b960b11b6044820152606401610242565b815f54146104b15760405162461bcd60e51b815260206004820152601860248201527f696e76616c6964207374617465207472616e736974696f6e00000000000000006044820152606401610242565b5f5550565b5f602082840312156104c6575f80fd5b5035919050565b5f80604083850312156104de575f80fd5b82356001600160a01b03811681146104f4575f80fd5b915060208301356001600160801b038116811461050f575f80fd5b809150509250929050565b5f8083601f84011261052a575f80fd5b50813567ffffffffffffffff811115610541575f80fd5b602083019150836020828501011115610558575f80fd5b9250929050565b803567ffffffffffffffff81168114610576575f80fd5b919050565b5f805f6040848603121561058d575f80fd5b833567ffffffffffffffff8111156105a3575f80fd5b6105af8682870161051a565b90945092506105c290506020850161055f565b90509250925092565b5f805f80606085870312156105de575f80fd5b84359350602085013567ffffffffffffffff8111156105fb575f80fd5b6106078782880161051a565b909450925061061a90506040860161055f565b905092959194509250565b5f8060408385031215610636575f80fd5b50508035926020909101359150565b81835281816020850137505f828201602090810191909152601f909101601f19169091010190565b6001600160a01b03861681526080602082018190525f906106919083018688610645565b905067ffffffffffffffff841660408301526001600160801b03831660608301529695505050505050565b858152608060208201525f61069160808301868861064556fea264697066735822122008be53bf6924c7a2fdba28505b8f41c4a4f0fd78d03aabfd77f358d0f4420c1e64736f6c634300081a0033","linkReferences":{}},"methodIdentifiers":{"claimValue(bytes32)":"91d5a64c","performPayout(address,uint128)":"9336255f","performStateTransition(bytes32,bytes32)":"e9e2d099","router()":"f887ea40","sendMessage(bytes,uint64)":"ab6fd6b6","sendReply(bytes32,bytes,uint64)":"d8897e87","stateHash()":"701da98e"},"id":46}