{"abi":[{"type":"constructor","inputs":[{"name":"initialOwner","type":"address","internalType":"address"},{"name":"_program","type":"address","internalType":"address"},{"name":"_wrappedVara","type":"address","internalType":"address"},{"name":"validatorsArray","type":"address[]","internalType":"address[]"}],"stateMutability":"nonpayable"},{"type":"function","name":"COUNT_OF_VALIDATORS","inputs":[],"outputs":[{"name":"","type":"uint256","internalType":"uint256"}],"stateMutability":"view"},{"type":"function","name":"REQUIRED_SIGNATURES","inputs":[],"outputs":[{"name":"","type":"uint256","internalType":"uint256"}],"stateMutability":"view"},{"type":"function","name":"addValidators","inputs":[{"name":"validatorsArray","type":"address[]","internalType":"address[]"}],"outputs":[],"stateMutability":"nonpayable"},{"type":"function","name":"claimValue","inputs":[{"name":"messageId","type":"bytes32","internalType":"bytes32"}],"outputs":[],"stateMutability":"nonpayable"},{"type":"function","name":"codes","inputs":[{"name":"","type":"bytes32","internalType":"bytes32"}],"outputs":[{"name":"","type":"uint8","internalType":"enum IRouter.CodeState"}],"stateMutability":"view"},{"type":"function","name":"commitCodes","inputs":[{"name":"codeCommitmentsArray","type":"tuple[]","internalType":"struct IRouter.CodeCommitment[]","components":[{"name":"codeId","type":"bytes32","internalType":"bytes32"},{"name":"approved","type":"bool","internalType":"bool"}]},{"name":"signatures","type":"bytes[]","internalType":"bytes[]"}],"outputs":[],"stateMutability":"nonpayable"},{"type":"function","name":"commitTransitions","inputs":[{"name":"transitionsCommitmentsArray","type":"tuple[]","internalType":"struct IRouter.TransitionCommitment[]","components":[{"name":"actorId","type":"address","internalType":"address"},{"name":"oldStateHash","type":"bytes32","internalType":"bytes32"},{"name":"newStateHash","type":"bytes32","internalType":"bytes32"},{"name":"outgoingMessages","type":"tuple[]","internalType":"struct IRouter.OutgoingMessage[]","components":[{"name":"destination","type":"address","internalType":"address"},{"name":"payload","type":"bytes","internalType":"bytes"},{"name":"value","type":"uint128","internalType":"uint128"},{"name":"replyDetails","type":"tuple","internalType":"struct IRouter.ReplyDetails","components":[{"name":"replyTo","type":"bytes32","internalType":"bytes32"},{"name":"replyCode","type":"bytes4","internalType":"bytes4"}]}]}]},{"name":"signatures","type":"bytes[]","internalType":"bytes[]"}],"outputs":[],"stateMutability":"nonpayable"},{"type":"function","name":"countOfValidators","inputs":[],"outputs":[{"name":"","type":"uint256","internalType":"uint256"}],"stateMutability":"view"},{"type":"function","name":"createProgram","inputs":[{"name":"codeId","type":"bytes32","internalType":"bytes32"},{"name":"salt","type":"bytes32","internalType":"bytes32"},{"name":"initPayload","type":"bytes","internalType":"bytes"},{"name":"gasLimit","type":"uint64","internalType":"uint64"}],"outputs":[{"name":"","type":"address","internalType":"address"}],"stateMutability":"payable"},{"type":"function","name":"owner","inputs":[],"outputs":[{"name":"","type":"address","internalType":"address"}],"stateMutability":"view"},{"type":"function","name":"program","inputs":[],"outputs":[{"name":"","type":"address","internalType":"address"}],"stateMutability":"view"},{"type":"function","name":"programs","inputs":[{"name":"","type":"address","internalType":"address"}],"outputs":[{"name":"","type":"bool","internalType":"bool"}],"stateMutability":"view"},{"type":"function","name":"removeValidators","inputs":[{"name":"validatorsArray","type":"address[]","internalType":"address[]"}],"outputs":[],"stateMutability":"nonpayable"},{"type":"function","name":"renounceOwnership","inputs":[],"outputs":[],"stateMutability":"nonpayable"},{"type":"function","name":"sendMessage","inputs":[{"name":"destination","type":"address","internalType":"address"},{"name":"payload","type":"bytes","internalType":"bytes"},{"name":"gasLimit","type":"uint64","internalType":"uint64"},{"name":"value","type":"uint128","internalType":"uint128"}],"outputs":[],"stateMutability":"nonpayable"},{"type":"function","name":"sendReply","inputs":[{"name":"replyToId","type":"bytes32","internalType":"bytes32"},{"name":"payload","type":"bytes","internalType":"bytes"},{"name":"gasLimit","type":"uint64","internalType":"uint64"},{"name":"value","type":"uint128","internalType":"uint128"}],"outputs":[],"stateMutability":"nonpayable"},{"type":"function","name":"transferOwnership","inputs":[{"name":"newOwner","type":"address","internalType":"address"}],"outputs":[],"stateMutability":"nonpayable"},{"type":"function","name":"uploadCode","inputs":[{"name":"codeId","type":"bytes32","internalType":"bytes32"},{"name":"blobTx","type":"bytes32","internalType":"bytes32"}],"outputs":[],"stateMutability":"nonpayable"},{"type":"function","name":"validators","inputs":[{"name":"","type":"address","internalType":"address"}],"outputs":[{"name":"","type":"bool","internalType":"bool"}],"stateMutability":"view"},{"type":"function","name":"wrappedVara","inputs":[],"outputs":[{"name":"","type":"address","internalType":"address"}],"stateMutability":"view"},{"type":"event","name":"ClaimValue","inputs":[{"name":"origin","type":"address","indexed":true,"internalType":"address"},{"name":"messageId","type":"bytes32","indexed":true,"internalType":"bytes32"}],"anonymous":false},{"type":"event","name":"CodeApproved","inputs":[{"name":"codeId","type":"bytes32","indexed":true,"internalType":"bytes32"}],"anonymous":false},{"type":"event","name":"CodeRejected","inputs":[{"name":"codeId","type":"bytes32","indexed":true,"internalType":"bytes32"}],"anonymous":false},{"type":"event","name":"CreateProgram","inputs":[{"name":"origin","type":"address","indexed":true,"internalType":"address"},{"name":"actorId","type":"address","indexed":true,"internalType":"address"},{"name":"codeId","type":"bytes32","indexed":true,"internalType":"bytes32"},{"name":"initPayload","type":"bytes","indexed":false,"internalType":"bytes"},{"name":"gasLimit","type":"uint64","indexed":false,"internalType":"uint64"},{"name":"value","type":"uint128","indexed":false,"internalType":"uint128"}],"anonymous":false},{"type":"event","name":"OwnershipTransferred","inputs":[{"name":"previousOwner","type":"address","indexed":true,"internalType":"address"},{"name":"newOwner","type":"address","indexed":true,"internalType":"address"}],"anonymous":false},{"type":"event","name":"SendMessage","inputs":[{"name":"origin","type":"address","indexed":true,"internalType":"address"},{"name":"destination","type":"address","indexed":true,"internalType":"address"},{"name":"payload","type":"bytes","indexed":false,"internalType":"bytes"},{"name":"gasLimit","type":"uint64","indexed":false,"internalType":"uint64"},{"name":"value","type":"uint128","indexed":false,"internalType":"uint128"}],"anonymous":false},{"type":"event","name":"SendReply","inputs":[{"name":"origin","type":"address","indexed":true,"internalType":"address"},{"name":"replyToId","type":"bytes32","indexed":true,"internalType":"bytes32"},{"name":"payload","type":"bytes","indexed":false,"internalType":"bytes"},{"name":"gasLimit","type":"uint64","indexed":false,"internalType":"uint64"},{"name":"value","type":"uint128","indexed":false,"internalType":"uint128"}],"anonymous":false},{"type":"event","name":"UpdatedProgram","inputs":[{"name":"actorId","type":"address","indexed":true,"internalType":"address"},{"name":"oldStateHash","type":"bytes32","indexed":false,"internalType":"bytes32"},{"name":"newStateHash","type":"bytes32","indexed":false,"internalType":"bytes32"}],"anonymous":false},{"type":"event","name":"UploadCode","inputs":[{"name":"origin","type":"address","indexed":true,"internalType":"address"},{"name":"codeId","type":"bytes32","indexed":true,"internalType":"bytes32"},{"name":"blobTx","type":"bytes32","indexed":true,"internalType":"bytes32"}],"anonymous":false},{"type":"event","name":"UserMessageSent","inputs":[{"name":"destination","type":"address","indexed":true,"internalType":"address"},{"name":"payload","type":"bytes","indexed":false,"internalType":"bytes"},{"name":"value","type":"uint128","indexed":false,"internalType":"uint128"}],"anonymous":false},{"type":"event","name":"UserReplySent","inputs":[{"name":"destination","type":"address","indexed":true,"internalType":"address"},{"name":"payload","type":"bytes","indexed":false,"internalType":"bytes"},{"name":"value","type":"uint128","indexed":false,"internalType":"uint128"},{"name":"replyTo","type":"bytes32","indexed":false,"internalType":"bytes32"},{"name":"replyCode","type":"bytes4","indexed":false,"internalType":"bytes4"}],"anonymous":false},{"type":"error","name":"ECDSAInvalidSignature","inputs":[]},{"type":"error","name":"ECDSAInvalidSignatureLength","inputs":[{"name":"length","type":"uint256","internalType":"uint256"}]},{"type":"error","name":"ECDSAInvalidSignatureS","inputs":[{"name":"s","type":"bytes32","internalType":"bytes32"}]},{"type":"error","name":"FailedDeployment","inputs":[]},{"type":"error","name":"InsufficientBalance","inputs":[{"name":"balance","type":"uint256","internalType":"uint256"},{"name":"needed","type":"uint256","internalType":"uint256"}]},{"type":"error","name":"OwnableInvalidOwner","inputs":[{"name":"owner","type":"address","internalType":"address"}]},{"type":"error","name":"OwnableUnauthorizedAccount","inputs":[{"name":"account","type":"address","internalType":"address"}]},{"type":"error","name":"ReentrancyGuardReentrantCall","inputs":[]}],"bytecode":{"object":"0x60c060405234801561000f575f80fd5b5060405161216338038061216383398101604081905261002e91610206565b836001600160a01b03811661005d57604051631e4fbdf760e01b81525f60048201526024015b60405180910390fd5b6100668161008c565b506001600160a01b03808416608052821660a052610083816100db565b5050505061033b565b5f80546001600160a01b038381166001600160a01b0319831681178455604051919092169283917f8be0079c531659141344cd1fd0a4f28419497f9722a3daafe3b4186f6b6457e09190a35050565b6100e36101a9565b5f81516001546100f39190610302565b905060018111156101465760405162461bcd60e51b815260206004820152601860248201527f76616c696461746f7220736574206973206c696d6974656400000000000000006044820152606401610054565b60018190555f5b82518110156101a4575f83828151811061016957610169610327565b6020908102919091018101516001600160a01b03165f908152600290915260409020805460ff1916600190811790915591909101905061014d565b505050565b5f546001600160a01b031633146101d55760405163118cdaa760e01b8152336004820152602401610054565b565b80516001600160a01b03811681146101ed575f80fd5b919050565b634e487b7160e01b5f52604160045260245ffd5b5f805f8060808587031215610219575f80fd5b610222856101d7565b9350610230602086016101d7565b925061023e604086016101d7565b60608601519092506001600160401b03811115610259575f80fd5b8501601f81018713610269575f80fd5b80516001600160401b03811115610282576102826101f2565b604051600582901b90603f8201601f191681016001600160401b03811182821017156102b0576102b06101f2565b60405291825260208184018101929081018a8411156102cd575f80fd5b6020850194505b838510156102f3576102e5856101d7565b8152602094850194016102d4565b50969995985093965050505050565b8082018082111561032157634e487b7160e01b5f52601160045260245ffd5b92915050565b634e487b7160e01b5f52603260045260245ffd5b60805160a051611df961036a5f395f81816102650152610fdd01525f81816103390152610c4b0152611df95ff3fe60806040526004361061011b575f3560e01c80638a3b22021161009d578063c860ebc611610062578063c860ebc614610328578063e97d3eb31461035b578063f2fde38b1461037a578063f79353e214610399578063fa52c7d8146103ae575f80fd5b80638a3b22021461029f5780638da5cb5b146102b257806391d5a64c146102ce5780639ac18b1914610140578063ad656510146102ed575f80fd5b806370223952116100e357806370223952146101c4578063715018a6146101e357806375e7e6dd146101f75780638405e41c1461021657806388f50cf014610254575f80fd5b806312c89ee61461011f5780631b76cd15146101405780631d40f0d81461016757806332bc103a1461018657806365f1ed8b146101a5575b5f80fd5b34801561012a575f80fd5b5061013e61013936600461162e565b6103dc565b005b34801561014b575f80fd5b50610154600181565b6040519081526020015b60405180910390f35b348015610172575f80fd5b5061013e610181366004611695565b6104df565b348015610191575f80fd5b5061013e6101a0366004611741565b610545565b3480156101b0575f80fd5b5061013e6101bf3660046117aa565b6105cb565b3480156101cf575f80fd5b5061013e6101de36600461183e565b610a81565b3480156101ee575f80fd5b5061013e610b4a565b348015610202575f80fd5b5061013e610211366004611906565b610b5d565b348015610221575f80fd5b5061024461023036600461193d565b60046020525f908152604090205460ff1681565b604051901515815260200161015e565b34801561025f575f80fd5b506102877f000000000000000000000000000000000000000000000000000000000000000081565b6040516001600160a01b03909116815260200161015e565b6102876102ad366004611956565b610bdd565b3480156102bd575f80fd5b505f546001600160a01b0316610287565b3480156102d9575f80fd5b5061013e6102e83660046119ac565b610d2b565b3480156102f8575f80fd5b5061031b6103073660046119ac565b60036020525f908152604090205460ff1681565b60405161015e91906119d7565b348015610333575f80fd5b506102877f000000000000000000000000000000000000000000000000000000000000000081565b348015610366575f80fd5b5061013e6103753660046119fd565b610d88565b348015610385575f80fd5b5061013e61039436600461193d565b610f56565b3480156103a4575f80fd5b5061015460015481565b3480156103b9575f80fd5b506102446103c836600461193d565b60026020525f908152604090205460ff1681565b801515806103ea57505f4915155b6104315760405162461bcd60e51b815260206004820152601360248201527234b73b30b634b2103a3930b739b0b1ba34b7b760691b60448201526064015b60405180910390fd5b5f8281526003602052604081205460ff166002811115610453576104536119c3565b146104985760405162461bcd60e51b815260206004820152601560248201527418dbd91948185b1c9958591e481d5c1b1bd8591959605a1b6044820152606401610428565b5f82815260036020526040808220805460ff19166001179055518291849132917f89337fc1ee8ae60a973f7955a6f3b30f88e5410b1b8d0cb66f1ffe64f15b014791a45050565b6104e7610f93565b5f5b81811015610540575f83838381811061050457610504611a7d565b9050602002016020810190610519919061193d565b6001600160a01b03165f908152600260205260409020805460ff19169055506001016104e9565b505050565b335f9081526004602052604090205460ff166105735760405162461bcd60e51b815260040161042890611a91565b61057c82610fbf565b84326001600160a01b03167f204148dee25f04b18563a0acc7eb3e02efffc904f421ede0d4be0e346bb6f85b868686866040516105bc9493929190611ae2565b60405180910390a35050505050565b6105d3611122565b60605f5b84811015610a6657368686838181106105f2576105f2611a7d565b90506020028101906106049190611b1e565b905060045f610616602084018461193d565b6001600160a01b0316815260208101919091526040015f205460ff1661064e5760405162461bcd60e51b815260040161042890611a91565b60605f61065e602084018461193d565b90505f5b61066f6060850185611b3c565b905081101561091257366106866060860186611b3c565b8381811061069657610696611a7d565b90506020028101906106a89190611b81565b9050836106b8602083018361193d565b6106c56020840184611b95565b6106d56060860160408701611bd7565b60608601356106ea60a0880160808901611bf0565b6040516020016106ff96959493929190611c17565b60405160208183030381529060405280519060200120604051602001610726929190611c8d565b60405160208183030381529060405293505f81604001602081019061074b9190611bd7565b6001600160801b031611156107e9576001600160a01b038316639336255f610776602084018461193d565b6107866060850160408601611bd7565b6040516001600160e01b031960e085901b1681526001600160a01b0390921660048301526001600160801b031660248201526044015f604051808303815f87803b1580156107d2575f80fd5b505af11580156107e4573d5f803e3d5ffd5b505050505b60608101803515801561081357506108076040820160208301611bf0565b6001600160e01b031916155b1561088857610825602083018361193d565b6001600160a01b03167ff37dc71fbc17e593f661c4e1d6f7a0653f8b6c21bdc252824838c9336ace9bd461085c6020850185611b95565b61086c6060870160408801611bd7565b60405161087b93929190611ca5565b60405180910390a2610908565b610895602083018361193d565b6001600160a01b03167fb85f0909476ae6b35920c3a911dcfdce8a882eafa58ed8e9950b66f39114f2d26108cc6020850185611b95565b6108dc6060870160408801611bd7565b85356108ee6040880160208901611bf0565b6040516108ff959493929190611cd1565b60405180910390a25b5050600101610662565b5084610921602085018561193d565b83516020808601919091206040805160609490941b6bffffffffffffffffffffffff19168484015291870135603484015290860135605483015260748201526094016040516020818303038152906040528051906020012060405160200161098a929190611c8d565b60408051808303601f1901815282825263e9e2d09960e01b83526020860135600484015290850135602483015295506001600160a01b0382169063e9e2d099906044015f604051808303815f87803b1580156109e4575f80fd5b505af11580156109f6573d5f803e3d5ffd5b50610a0892505050602084018461193d565b6001600160a01b03167f5e7f42f8499cb41931ca69fd6e8ada438ba8641bbeb31905bffc25d4de4e9a0a84602001358560400135604051610a53929190918252602082015260400190565b60405180910390a25050506001016105d7565b50610a7281848461118f565b50610a7b6112ee565b50505050565b610a89610f93565b5f8151600154610a999190611d14565b90506001811115610aec5760405162461bcd60e51b815260206004820152601860248201527f76616c696461746f7220736574206973206c696d6974656400000000000000006044820152606401610428565b60018190555f5b8251811015610540575f838281518110610b0f57610b0f611a7d565b6020908102919091018101516001600160a01b03165f908152600290915260409020805460ff19166001908117909155919091019050610af3565b610b52610f93565b610b5b5f611318565b565b335f9081526004602052604090205460ff16610b8b5760405162461bcd60e51b815260040161042890611a91565b610b9482610fbf565b846001600160a01b0316326001600160a01b03167fb105185d664b1ff6a130ce4b3c5bb34a3458975626080a0d7e96d8f762be6ac7868686866040516105bc9493929190611ae2565b5f60025f8781526003602052604090205460ff166002811115610c0257610c026119c3565b14610c455760405162461bcd60e51b815260206004820152601360248201527218dbd919481a5cc81d5b98dbdb999a5c9b5959606a1b6044820152606401610428565b5f610ca27f00000000000000000000000000000000000000000000000000000000000000008789604051602001610c86929190918252602082015260400190565b6040516020818303038152906040528051906020012034611367565b6001600160a01b0381165f908152600460205260409020805460ff191660011790559050610ccf83610fbf565b86816001600160a01b0316326001600160a01b03167fb90c432f60141e2e722cf44fae355f53c753fb6aa0055830d923a97176a5466088888834604051610d199493929190611ae2565b60405180910390a49695505050505050565b335f9081526004602052604090205460ff16610d595760405162461bcd60e51b815260040161042890611a91565b604051819032907f97a53fd72bd7027ca7db954b7f2e71b95fd2b53e28c71989eb471c5526638394905f90a350565b60605f5b84811015610f435736868683818110610da757610da7611a7d565b905060400201905082815f0135826020016020810190610dc79190611d40565b604051602001610de6929190918252151560f81b602082015260210190565b60405160208183030381529060405280519060200120604051602001610e0d929190611c8d565b60408051601f198184030181529190529250803560015f8281526003602052604090205460ff166002811115610e4557610e456119c3565b14610ea35760405162461bcd60e51b815260206004820152602860248201527f636f64652073686f756c642062652075706c6f616465642c2062757420756e636044820152671bdb999a5c9b595960c21b6064820152608401610428565b610eb36040830160208401611d40565b15610efc575f81815260036020526040808220805460ff191660021790555182917fcc0d34eaf410bb52e4f095d02c879447f1f71fc835be3a77e777b2dc819b6d0c91a2610f39565b5f81815260036020526040808220805460ff191690555182917fd59273cb2f7b30bcc4aadd78bde6cb5e36efe7c78138c48e07d72c12b770101391a25b5050600101610d8c565b50610f4f81848461118f565b5050505050565b610f5e610f93565b6001600160a01b038116610f8757604051631e4fbdf760e01b81525f6004820152602401610428565b610f9081611318565b50565b5f546001600160a01b03163314610b5b5760405163118cdaa760e01b8152336004820152602401610428565b6040516334e6ced760e21b81526001600160401b03821660048201527f0000000000000000000000000000000000000000000000000000000000000000905f906001600160a01b038316906323b872dd9032903090849063d39b3b5c90602401602060405180830381865afa15801561103a573d5f803e3d5ffd5b505050506040513d601f19601f8201168201806040525081019061105e9190611d5b565b6040516001600160e01b031960e086901b1681526001600160a01b03938416600482015292909116602483015260448201526064016020604051808303815f875af11580156110af573d5f803e3d5ffd5b505050506040513d601f19601f820116820180604052508101906110d39190611d72565b9050806105405760405162461bcd60e51b815260206004820152601960248201527f6661696c656420746f207472616e7366657220746f6b656e73000000000000006044820152606401610428565b7f9b779b17422d0df92223018b32b4d1fa46e071723d6817e2486d003becc55f005c1561116257604051633ee5aeb560e01b815260040160405180910390fd5b610b5b60017f9b779b17422d0df92223018b32b4d1fa46e071723d6817e2486d003becc55f005b906113ff565b5f6111c484805190602001206040516020016111ad91815260200190565b60408051601f198184030181529190523090611406565b90505f5b828110156112a557365f8585848181106111e4576111e4611a7d565b90506020028101906111f69190611b95565b915091505f61123c83838080601f0160208091040260200160405190810160405280939291908181526020018383808284375f9201919091525089939250506114399050565b6001600160a01b0381165f9081526002602052604090205490915060ff1661129a5760405162461bcd60e51b8152602060048201526011602482015270756e6b6e6f776e207369676e617475726560781b6044820152606401610428565b5050506001016111c8565b6001811015610f4f5760405162461bcd60e51b81526020600482015260156024820152746e6f7420656e6f756768207369676e61747572657360581b6044820152606401610428565b610b5b5f7f9b779b17422d0df92223018b32b4d1fa46e071723d6817e2486d003becc55f00611189565b5f80546001600160a01b038381166001600160a01b0319831681178455604051919092169283917f8be0079c531659141344cd1fd0a4f28419497f9722a3daafe3b4186f6b6457e09190a35050565b5f814710156113925760405163cf47918160e01b815247600482015260248101839052604401610428565b6e5af43d82803e903d91602b57fd5bf360205283601152763d602d80600a3d3981f3363d3d373d3d3d363d730000008460881c175f52826037600984f590506001600160a01b0381166113f85760405163b06ebf3d60e01b815260040160405180910390fd5b9392505050565b80825d5050565b5f828260405160200161141a929190611d8d565b6040516020818303038152906040528051906020012090505b92915050565b5f805f806114478686611461565b92509250925061145782826114aa565b5090949350505050565b5f805f8351604103611498576020840151604085015160608601515f1a61148a88828585611566565b9550955095505050506114a3565b505081515f91506002905b9250925092565b5f8260038111156114bd576114bd6119c3565b036114c6575050565b60018260038111156114da576114da6119c3565b036114f85760405163f645eedf60e01b815260040160405180910390fd5b600282600381111561150c5761150c6119c3565b0361152d5760405163fce698f760e01b815260048101829052602401610428565b6003826003811115611541576115416119c3565b03611562576040516335e2f38360e21b815260048101829052602401610428565b5050565b5f80807f7fffffffffffffffffffffffffffffff5d576e7357a4501ddfe92f46681b20a084111561159f57505f91506003905082611624565b604080515f808252602082018084528a905260ff891692820192909252606081018790526080810186905260019060a0016020604051602081039080840390855afa1580156115f0573d5f803e3d5ffd5b5050604051601f1901519150506001600160a01b03811661161b57505f925060019150829050611624565b92505f91508190505b9450945094915050565b5f806040838503121561163f575f80fd5b50508035926020909101359150565b5f8083601f84011261165e575f80fd5b5081356001600160401b03811115611674575f80fd5b6020830191508360208260051b850101111561168e575f80fd5b9250929050565b5f80602083850312156116a6575f80fd5b82356001600160401b038111156116bb575f80fd5b6116c78582860161164e565b90969095509350505050565b5f8083601f8401126116e3575f80fd5b5081356001600160401b038111156116f9575f80fd5b60208301915083602082850101111561168e575f80fd5b80356001600160401b0381168114611726575f80fd5b919050565b80356001600160801b0381168114611726575f80fd5b5f805f805f60808688031215611755575f80fd5b8535945060208601356001600160401b03811115611771575f80fd5b61177d888289016116d3565b9095509350611790905060408701611710565b915061179e6060870161172b565b90509295509295909350565b5f805f80604085870312156117bd575f80fd5b84356001600160401b038111156117d2575f80fd5b6117de8782880161164e565b90955093505060208501356001600160401b038111156117fc575f80fd5b6118088782880161164e565b95989497509550505050565b634e487b7160e01b5f52604160045260245ffd5b80356001600160a01b0381168114611726575f80fd5b5f6020828403121561184e575f80fd5b81356001600160401b03811115611863575f80fd5b8201601f81018413611873575f80fd5b80356001600160401b0381111561188c5761188c611814565b8060051b604051601f19603f83011681018181106001600160401b03821117156118b8576118b8611814565b6040529182526020818401810192908101878411156118d5575f80fd5b6020850194505b838510156118fb576118ed85611828565b8152602094850194016118dc565b509695505050505050565b5f805f805f6080868803121561191a575f80fd5b61192386611828565b945060208601356001600160401b03811115611771575f80fd5b5f6020828403121561194d575f80fd5b6113f882611828565b5f805f805f6080868803121561196a575f80fd5b853594506020860135935060408601356001600160401b0381111561198d575f80fd5b611999888289016116d3565b909450925061179e905060608701611710565b5f602082840312156119bc575f80fd5b5035919050565b634e487b7160e01b5f52602160045260245ffd5b60208101600383106119f757634e487b7160e01b5f52602160045260245ffd5b91905290565b5f805f8060408587031215611a10575f80fd5b84356001600160401b03811115611a25575f80fd5b8501601f81018713611a35575f80fd5b80356001600160401b03811115611a4a575f80fd5b8760208260061b8401011115611a5e575f80fd5b6020918201955093508501356001600160401b038111156117fc575f80fd5b634e487b7160e01b5f52603260045260245ffd5b6020808252600f908201526e756e6b6e6f776e2070726f6772616d60881b604082015260600190565b81835281816020850137505f828201602090810191909152601f909101601f19169091010190565b606081525f611af5606083018688611aba565b90506001600160401b03841660208301526001600160801b038316604083015295945050505050565b5f8235607e19833603018112611b32575f80fd5b9190910192915050565b5f808335601e19843603018112611b51575f80fd5b8301803591506001600160401b03821115611b6a575f80fd5b6020019150600581901b360382131561168e575f80fd5b5f8235609e19833603018112611b32575f80fd5b5f808335601e19843603018112611baa575f80fd5b8301803591506001600160401b03821115611bc3575f80fd5b60200191503681900382131561168e575f80fd5b5f60208284031215611be7575f80fd5b6113f88261172b565b5f60208284031215611c00575f80fd5b81356001600160e01b0319811681146113f8575f80fd5b6bffffffffffffffffffffffff198760601b1681528486601483013760809390931b6fffffffffffffffffffffffffffffffff19166014949093019384019290925260248301526001600160e01b031916604482015260480192915050565b5f81518060208401855e5f93019283525090919050565b5f611c988285611c76565b9283525050602001919050565b604081525f611cb8604083018587611aba565b90506001600160801b0383166020830152949350505050565b608081525f611ce4608083018789611aba565b6001600160801b039590951660208301525060408101929092526001600160e01b03191660609091015292915050565b8082018082111561143357634e487b7160e01b5f52601160045260245ffd5b8015158114610f90575f80fd5b5f60208284031215611d50575f80fd5b81356113f881611d33565b5f60208284031215611d6b575f80fd5b5051919050565b5f60208284031215611d82575f80fd5b81516113f881611d33565b601960f81b8152606083901b6bffffffffffffffffffffffff191660028201525f611dbb6016830184611c76565b94935050505056fea26469706673582212201742ecce9fa44d6c0652a41a657c3ccd56dbc0ad53825ad4a37ce07953da30d164736f6c634300081a0033","linkReferences":{}},"methodIdentifiers":{"COUNT_OF_VALIDATORS()":"1b76cd15","REQUIRED_SIGNATURES()":"9ac18b19","addValidators(address[])":"70223952","claimValue(bytes32)":"91d5a64c","codes(bytes32)":"ad656510","commitCodes((bytes32,bool)[],bytes[])":"e97d3eb3","commitTransitions((address,bytes32,bytes32,(address,bytes,uint128,(bytes32,bytes4))[])[],bytes[])":"65f1ed8b","countOfValidators()":"f79353e2","createProgram(bytes32,bytes32,bytes,uint64)":"8a3b2202","owner()":"8da5cb5b","program()":"c860ebc6","programs(address)":"8405e41c","removeValidators(address[])":"1d40f0d8","renounceOwnership()":"715018a6","sendMessage(address,bytes,uint64,uint128)":"75e7e6dd","sendReply(bytes32,bytes,uint64,uint128)":"32bc103a","transferOwnership(address)":"f2fde38b","uploadCode(bytes32,bytes32)":"12c89ee6","validators(address)":"fa52c7d8","wrappedVara()":"88f50cf0"},"id":47}