{"abi":[{"type":"constructor","inputs":[{"name":"initialOwner","type":"address","internalType":"address"},{"name":"_program","type":"address","internalType":"address"},{"name":"_wrappedVara","type":"address","internalType":"address"},{"name":"validatorsArray","type":"address[]","internalType":"address[]"}],"stateMutability":"nonpayable"},{"type":"function","name":"COUNT_OF_VALIDATORS","inputs":[],"outputs":[{"name":"","type":"uint256","internalType":"uint256"}],"stateMutability":"view"},{"type":"function","name":"REQUIRED_SIGNATURES","inputs":[],"outputs":[{"name":"","type":"uint256","internalType":"uint256"}],"stateMutability":"view"},{"type":"function","name":"addValidators","inputs":[{"name":"validatorsArray","type":"address[]","internalType":"address[]"}],"outputs":[],"stateMutability":"nonpayable"},{"type":"function","name":"claimValue","inputs":[{"name":"messageId","type":"bytes32","internalType":"bytes32"}],"outputs":[],"stateMutability":"nonpayable"},{"type":"function","name":"codes","inputs":[{"name":"","type":"bytes32","internalType":"bytes32"}],"outputs":[{"name":"","type":"uint8","internalType":"enum IRouter.CodeState"}],"stateMutability":"view"},{"type":"function","name":"commitBlocks","inputs":[{"name":"commitments","type":"tuple[]","internalType":"struct IRouter.BlockCommitment[]","components":[{"name":"blockHash","type":"bytes32","internalType":"bytes32"},{"name":"allowedPrevCommitmentHash","type":"bytes32","internalType":"bytes32"},{"name":"allowedPredBlockHash","type":"bytes32","internalType":"bytes32"},{"name":"transitions","type":"tuple[]","internalType":"struct IRouter.StateTransition[]","components":[{"name":"actorId","type":"address","internalType":"address"},{"name":"oldStateHash","type":"bytes32","internalType":"bytes32"},{"name":"newStateHash","type":"bytes32","internalType":"bytes32"},{"name":"outgoingMessages","type":"tuple[]","internalType":"struct IRouter.OutgoingMessage[]","components":[{"name":"destination","type":"address","internalType":"address"},{"name":"payload","type":"bytes","internalType":"bytes"},{"name":"value","type":"uint128","internalType":"uint128"},{"name":"replyDetails","type":"tuple","internalType":"struct IRouter.ReplyDetails","components":[{"name":"replyTo","type":"bytes32","internalType":"bytes32"},{"name":"replyCode","type":"bytes4","internalType":"bytes4"}]}]}]}]},{"name":"signatures","type":"bytes[]","internalType":"bytes[]"}],"outputs":[],"stateMutability":"nonpayable"},{"type":"function","name":"commitCodes","inputs":[{"name":"codeCommitmentsArray","type":"tuple[]","internalType":"struct IRouter.CodeCommitment[]","components":[{"name":"codeId","type":"bytes32","internalType":"bytes32"},{"name":"approved","type":"bool","internalType":"bool"}]},{"name":"signatures","type":"bytes[]","internalType":"bytes[]"}],"outputs":[],"stateMutability":"nonpayable"},{"type":"function","name":"countOfValidators","inputs":[],"outputs":[{"name":"","type":"uint256","internalType":"uint256"}],"stateMutability":"view"},{"type":"function","name":"createProgram","inputs":[{"name":"codeId","type":"bytes32","internalType":"bytes32"},{"name":"salt","type":"bytes32","internalType":"bytes32"},{"name":"initPayload","type":"bytes","internalType":"bytes"},{"name":"gasLimit","type":"uint64","internalType":"uint64"}],"outputs":[{"name":"","type":"address","internalType":"address"}],"stateMutability":"payable"},{"type":"function","name":"genesisBlockHash","inputs":[],"outputs":[{"name":"","type":"bytes32","internalType":"bytes32"}],"stateMutability":"view"},{"type":"function","name":"lastBlockCommitmentHash","inputs":[],"outputs":[{"name":"","type":"bytes32","internalType":"bytes32"}],"stateMutability":"view"},{"type":"function","name":"owner","inputs":[],"outputs":[{"name":"","type":"address","internalType":"address"}],"stateMutability":"view"},{"type":"function","name":"program","inputs":[],"outputs":[{"name":"","type":"address","internalType":"address"}],"stateMutability":"view"},{"type":"function","name":"programs","inputs":[{"name":"","type":"address","internalType":"address"}],"outputs":[{"name":"","type":"bool","internalType":"bool"}],"stateMutability":"view"},{"type":"function","name":"removeValidators","inputs":[{"name":"validatorsArray","type":"address[]","internalType":"address[]"}],"outputs":[],"stateMutability":"nonpayable"},{"type":"function","name":"renounceOwnership","inputs":[],"outputs":[],"stateMutability":"nonpayable"},{"type":"function","name":"sendMessage","inputs":[{"name":"destination","type":"address","internalType":"address"},{"name":"payload","type":"bytes","internalType":"bytes"},{"name":"gasLimit","type":"uint64","internalType":"uint64"},{"name":"value","type":"uint128","internalType":"uint128"}],"outputs":[],"stateMutability":"nonpayable"},{"type":"function","name":"sendReply","inputs":[{"name":"replyToId","type":"bytes32","internalType":"bytes32"},{"name":"payload","type":"bytes","internalType":"bytes"},{"name":"gasLimit","type":"uint64","internalType":"uint64"},{"name":"value","type":"uint128","internalType":"uint128"}],"outputs":[],"stateMutability":"nonpayable"},{"type":"function","name":"transferOwnership","inputs":[{"name":"newOwner","type":"address","internalType":"address"}],"outputs":[],"stateMutability":"nonpayable"},{"type":"function","name":"uploadCode","inputs":[{"name":"codeId","type":"bytes32","internalType":"bytes32"},{"name":"blobTx","type":"bytes32","internalType":"bytes32"}],"outputs":[],"stateMutability":"nonpayable"},{"type":"function","name":"validators","inputs":[{"name":"","type":"address","internalType":"address"}],"outputs":[{"name":"","type":"bool","internalType":"bool"}],"stateMutability":"view"},{"type":"function","name":"wrappedVara","inputs":[],"outputs":[{"name":"","type":"address","internalType":"address"}],"stateMutability":"view"},{"type":"event","name":"BlockCommitted","inputs":[{"name":"blockHash","type":"bytes32","indexed":true,"internalType":"bytes32"}],"anonymous":false},{"type":"event","name":"ClaimValue","inputs":[{"name":"origin","type":"address","indexed":true,"internalType":"address"},{"name":"messageId","type":"bytes32","indexed":true,"internalType":"bytes32"}],"anonymous":false},{"type":"event","name":"CodeApproved","inputs":[{"name":"codeId","type":"bytes32","indexed":true,"internalType":"bytes32"}],"anonymous":false},{"type":"event","name":"CodeRejected","inputs":[{"name":"codeId","type":"bytes32","indexed":true,"internalType":"bytes32"}],"anonymous":false},{"type":"event","name":"CreateProgram","inputs":[{"name":"origin","type":"address","indexed":true,"internalType":"address"},{"name":"actorId","type":"address","indexed":true,"internalType":"address"},{"name":"codeId","type":"bytes32","indexed":true,"internalType":"bytes32"},{"name":"initPayload","type":"bytes","indexed":false,"internalType":"bytes"},{"name":"gasLimit","type":"uint64","indexed":false,"internalType":"uint64"},{"name":"value","type":"uint128","indexed":false,"internalType":"uint128"}],"anonymous":false},{"type":"event","name":"OwnershipTransferred","inputs":[{"name":"previousOwner","type":"address","indexed":true,"internalType":"address"},{"name":"newOwner","type":"address","indexed":true,"internalType":"address"}],"anonymous":false},{"type":"event","name":"SendMessage","inputs":[{"name":"origin","type":"address","indexed":true,"internalType":"address"},{"name":"destination","type":"address","indexed":true,"internalType":"address"},{"name":"payload","type":"bytes","indexed":false,"internalType":"bytes"},{"name":"gasLimit","type":"uint64","indexed":false,"internalType":"uint64"},{"name":"value","type":"uint128","indexed":false,"internalType":"uint128"}],"anonymous":false},{"type":"event","name":"SendReply","inputs":[{"name":"origin","type":"address","indexed":true,"internalType":"address"},{"name":"replyToId","type":"bytes32","indexed":true,"internalType":"bytes32"},{"name":"payload","type":"bytes","indexed":false,"internalType":"bytes"},{"name":"gasLimit","type":"uint64","indexed":false,"internalType":"uint64"},{"name":"value","type":"uint128","indexed":false,"internalType":"uint128"}],"anonymous":false},{"type":"event","name":"UpdatedProgram","inputs":[{"name":"actorId","type":"address","indexed":true,"internalType":"address"},{"name":"oldStateHash","type":"bytes32","indexed":false,"internalType":"bytes32"},{"name":"newStateHash","type":"bytes32","indexed":false,"internalType":"bytes32"}],"anonymous":false},{"type":"event","name":"UploadCode","inputs":[{"name":"origin","type":"address","indexed":true,"internalType":"address"},{"name":"codeId","type":"bytes32","indexed":true,"internalType":"bytes32"},{"name":"blobTx","type":"bytes32","indexed":true,"internalType":"bytes32"}],"anonymous":false},{"type":"event","name":"UserMessageSent","inputs":[{"name":"destination","type":"address","indexed":true,"internalType":"address"},{"name":"payload","type":"bytes","indexed":false,"internalType":"bytes"},{"name":"value","type":"uint128","indexed":false,"internalType":"uint128"}],"anonymous":false},{"type":"event","name":"UserReplySent","inputs":[{"name":"destination","type":"address","indexed":true,"internalType":"address"},{"name":"payload","type":"bytes","indexed":false,"internalType":"bytes"},{"name":"value","type":"uint128","indexed":false,"internalType":"uint128"},{"name":"replyTo","type":"bytes32","indexed":false,"internalType":"bytes32"},{"name":"replyCode","type":"bytes4","indexed":false,"internalType":"bytes4"}],"anonymous":false},{"type":"error","name":"ECDSAInvalidSignature","inputs":[]},{"type":"error","name":"ECDSAInvalidSignatureLength","inputs":[{"name":"length","type":"uint256","internalType":"uint256"}]},{"type":"error","name":"ECDSAInvalidSignatureS","inputs":[{"name":"s","type":"bytes32","internalType":"bytes32"}]},{"type":"error","name":"FailedDeployment","inputs":[]},{"type":"error","name":"InsufficientBalance","inputs":[{"name":"balance","type":"uint256","internalType":"uint256"},{"name":"needed","type":"uint256","internalType":"uint256"}]},{"type":"error","name":"OwnableInvalidOwner","inputs":[{"name":"owner","type":"address","internalType":"address"}]},{"type":"error","name":"OwnableUnauthorizedAccount","inputs":[{"name":"account","type":"address","internalType":"address"}]},{"type":"error","name":"ReentrancyGuardReentrantCall","inputs":[]}],"bytecode":{"object":"0x60e060405234801561000f575f80fd5b5060405161243b38038061243b83398101604081905261002e91610215565b836001600160a01b03811661005d57604051631e4fbdf760e01b81525f60048201526024015b60405180910390fd5b6100668161009b565b506001600160a01b03808416608052821660a052610085600143610325565b4060c052610092816100ea565b50505050610365565b5f80546001600160a01b038381166001600160a01b0319831681178455604051919092169283917f8be0079c531659141344cd1fd0a4f28419497f9722a3daafe3b4186f6b6457e09190a35050565b6100f26101b8565b5f8151600154610102919061033e565b905060018111156101555760405162461bcd60e51b815260206004820152601860248201527f76616c696461746f7220736574206973206c696d6974656400000000000000006044820152606401610054565b60018190555f5b82518110156101b3575f83828151811061017857610178610351565b6020908102919091018101516001600160a01b03165f908152600390915260409020805460ff1916600190811790915591909101905061015c565b505050565b5f546001600160a01b031633146101e45760405163118cdaa760e01b8152336004820152602401610054565b565b80516001600160a01b03811681146101fc575f80fd5b919050565b634e487b7160e01b5f52604160045260245ffd5b5f805f8060808587031215610228575f80fd5b610231856101e6565b935061023f602086016101e6565b925061024d604086016101e6565b60608601519092506001600160401b03811115610268575f80fd5b8501601f81018713610278575f80fd5b80516001600160401b0381111561029157610291610201565b604051600582901b90603f8201601f191681016001600160401b03811182821017156102bf576102bf610201565b60405291825260208184018101929081018a8411156102dc575f80fd5b6020850194505b83851015610302576102f4856101e6565b8152602094850194016102e3565b50969995985093965050505050565b634e487b7160e01b5f52601160045260245ffd5b8181038181111561033857610338610311565b92915050565b8082018082111561033857610338610311565b634e487b7160e01b5f52603260045260245ffd5b60805160a05160c05161209e61039d5f395f6101ad01525f81816102a40152610c1101525f818161039701526107f3015261209e5ff3fe608060405260043610610131575f3560e01c80638a3b2202116100a8578063bbc080d51161006d578063bbc080d514610367578063c860ebc614610386578063e97d3eb3146103b9578063f2fde38b146103d8578063f79353e2146103f7578063fa52c7d81461040c575f80fd5b80638a3b2202146102de5780638da5cb5b146102f157806391d5a64c1461030d5780639ac18b1914610156578063ad6565101461032c575f80fd5b806332bc103a116100f957806332bc103a146101e45780637022395214610203578063715018a61461022257806375e7e6dd146102365780638405e41c1461025557806388f50cf014610293575f80fd5b806312c89ee6146101355780631b76cd15146101565780631d40f0d81461017d57806328e24b3d1461019c5780632dacfb69146101cf575b5f80fd5b348015610140575f80fd5b5061015461014f3660046118a3565b61043a565b005b348015610161575f80fd5b5061016a600181565b6040519081526020015b60405180910390f35b348015610188575f80fd5b5061015461019736600461190a565b61053d565b3480156101a7575f80fd5b5061016a7f000000000000000000000000000000000000000000000000000000000000000081565b3480156101da575f80fd5b5061016a60025481565b3480156101ef575f80fd5b506101546101fe3660046119b6565b6105a3565b34801561020e575f80fd5b5061015461021d366004611a49565b610629565b34801561022d575f80fd5b506101546106f2565b348015610241575f80fd5b50610154610250366004611b11565b610705565b348015610260575f80fd5b5061028361026f366004611b48565b60056020525f908152604090205460ff1681565b6040519015158152602001610174565b34801561029e575f80fd5b506102c67f000000000000000000000000000000000000000000000000000000000000000081565b6040516001600160a01b039091168152602001610174565b6102c66102ec366004611b61565b610785565b3480156102fc575f80fd5b505f546001600160a01b03166102c6565b348015610318575f80fd5b50610154610327366004611bb7565b6108d3565b348015610337575f80fd5b5061035a610346366004611bb7565b60046020525f908152604090205460ff1681565b6040516101749190611be2565b348015610372575f80fd5b50610154610381366004611c08565b610930565b348015610391575f80fd5b506102c67f000000000000000000000000000000000000000000000000000000000000000081565b3480156103c4575f80fd5b506101546103d3366004611c72565b6109bc565b3480156103e3575f80fd5b506101546103f2366004611b48565b610b8a565b348015610402575f80fd5b5061016a60015481565b348015610417575f80fd5b50610283610426366004611b48565b60036020525f908152604090205460ff1681565b8015158061044857505f4915155b61048f5760405162461bcd60e51b815260206004820152601360248201527234b73b30b634b2103a3930b739b0b1ba34b7b760691b60448201526064015b60405180910390fd5b5f8281526004602052604081205460ff1660028111156104b1576104b1611bce565b146104f65760405162461bcd60e51b815260206004820152601560248201527418dbd91948185b1c9958591e481d5c1b1bd8591959605a1b6044820152606401610486565b5f82815260046020526040808220805460ff19166001179055518291849132917f89337fc1ee8ae60a973f7955a6f3b30f88e5410b1b8d0cb66f1ffe64f15b014791a45050565b610545610bc7565b5f5b8181101561059e575f83838381811061056257610562611cf2565b90506020020160208101906105779190611b48565b6001600160a01b03165f908152600360205260409020805460ff1916905550600101610547565b505050565b335f9081526005602052604090205460ff166105d15760405162461bcd60e51b815260040161048690611d06565b6105da82610bf3565b84326001600160a01b03167f204148dee25f04b18563a0acc7eb3e02efffc904f421ede0d4be0e346bb6f85b8686868660405161061a9493929190611d57565b60405180910390a35050505050565b610631610bc7565b5f81516001546106419190611da7565b905060018111156106945760405162461bcd60e51b815260206004820152601860248201527f76616c696461746f7220736574206973206c696d6974656400000000000000006044820152606401610486565b60018190555f5b825181101561059e575f8382815181106106b7576106b7611cf2565b6020908102919091018101516001600160a01b03165f908152600390915260409020805460ff1916600190811790915591909101905061069b565b6106fa610bc7565b6107035f610d56565b565b335f9081526005602052604090205460ff166107335760405162461bcd60e51b815260040161048690611d06565b61073c82610bf3565b846001600160a01b0316326001600160a01b03167fb105185d664b1ff6a130ce4b3c5bb34a3458975626080a0d7e96d8f762be6ac78686868660405161061a9493929190611d57565b5f60025f8781526004602052604090205460ff1660028111156107aa576107aa611bce565b146107ed5760405162461bcd60e51b815260206004820152601360248201527218dbd919481a5cc81d5b98dbdb999a5c9b5959606a1b6044820152606401610486565b5f61084a7f0000000000000000000000000000000000000000000000000000000000000000878960405160200161082e929190918252602082015260400190565b6040516020818303038152906040528051906020012034610da5565b6001600160a01b0381165f908152600560205260409020805460ff19166001179055905061087783610bf3565b86816001600160a01b0316326001600160a01b03167fb90c432f60141e2e722cf44fae355f53c753fb6aa0055830d923a97176a54660888888346040516108c19493929190611d57565b60405180910390a49695505050505050565b335f9081526005602052604090205460ff166109015760405162461bcd60e51b815260040161048690611d06565b604051819032907f97a53fd72bd7027ca7db954b7f2e71b95fd2b53e28c71989eb471c5526638394905f90a350565b610938610e3d565b60605f5b848110156109a1573686868381811061095757610957611cf2565b90506020028101906109699190611dba565b90508261097582610eaa565b604051602001610986929190611def565b60408051601f1981840301815291905292505060010161093c565b506109ad818484611497565b506109b66115f6565b50505050565b60605f5b84811015610b7757368686838181106109db576109db611cf2565b905060400201905082815f01358260200160208101906109fb9190611e14565b604051602001610a1a929190918252151560f81b602082015260210190565b60405160208183030381529060405280519060200120604051602001610a41929190611def565b60408051601f198184030181529190529250803560015f8281526004602052604090205460ff166002811115610a7957610a79611bce565b14610ad75760405162461bcd60e51b815260206004820152602860248201527f636f64652073686f756c642062652075706c6f616465642c2062757420756e636044820152671bdb999a5c9b595960c21b6064820152608401610486565b610ae76040830160208401611e14565b15610b30575f81815260046020526040808220805460ff191660021790555182917fcc0d34eaf410bb52e4f095d02c879447f1f71fc835be3a77e777b2dc819b6d0c91a2610b6d565b5f81815260046020526040808220805460ff191690555182917fd59273cb2f7b30bcc4aadd78bde6cb5e36efe7c78138c48e07d72c12b770101391a25b50506001016109c0565b50610b83818484611497565b5050505050565b610b92610bc7565b6001600160a01b038116610bbb57604051631e4fbdf760e01b81525f6004820152602401610486565b610bc481610d56565b50565b5f546001600160a01b031633146107035760405163118cdaa760e01b8152336004820152602401610486565b6040516334e6ced760e21b81526001600160401b03821660048201527f0000000000000000000000000000000000000000000000000000000000000000905f906001600160a01b038316906323b872dd9032903090849063d39b3b5c90602401602060405180830381865afa158015610c6e573d5f803e3d5ffd5b505050506040513d601f19601f82011682018060405250810190610c929190611e2f565b6040516001600160e01b031960e086901b1681526001600160a01b03938416600482015292909116602483015260448201526064016020604051808303815f875af1158015610ce3573d5f803e3d5ffd5b505050506040513d601f19601f82011682018060405250810190610d079190611e46565b90508061059e5760405162461bcd60e51b815260206004820152601960248201527f6661696c656420746f207472616e7366657220746f6b656e73000000000000006044820152606401610486565b5f80546001600160a01b038381166001600160a01b0319831681178455604051919092169283917f8be0079c531659141344cd1fd0a4f28419497f9722a3daafe3b4186f6b6457e09190a35050565b5f81471015610dd05760405163cf47918160e01b815247600482015260248101839052604401610486565b6e5af43d82803e903d91602b57fd5bf360205283601152763d602d80600a3d3981f3363d3d373d3d3d363d730000008460881c175f52826037600984f590506001600160a01b038116610e365760405163b06ebf3d60e01b815260040160405180910390fd5b9392505050565b7f9b779b17422d0df92223018b32b4d1fa46e071723d6817e2486d003becc55f005c15610e7d57604051633ee5aeb560e01b815260040160405180910390fd5b61070360017f9b779b17422d0df92223018b32b4d1fa46e071723d6817e2486d003becc55f005b90611620565b5f816020013560025414610f005760405162461bcd60e51b815260206004820152601e60248201527f496e76616c6964207072656465636573736f7220636f6d6d69746d656e7400006044820152606401610486565b610f0d8260400135611627565b610f595760405162461bcd60e51b815260206004820152601d60248201527f416c6c6f776564207072656465636573736f72206e6f7420666f756e640000006044820152606401610486565b813560028190556040517fd756eca21e02cb0dbde1e44a4d9c6921b5c8aa4668cfa0752784b3dc855bce1e905f90a260605f5b610f996060850185611e61565b90508110156114475736610fb06060860186611e61565b83818110610fc057610fc0611cf2565b9050602002810190610fd29190611dba565b905060055f610fe46020840184611b48565b6001600160a01b0316815260208101919091526040015f205460ff1661101c5760405162461bcd60e51b815260040161048690611d06565b5f61102a6020830183611b48565b905060605f5b61103d6060850185611e61565b90508110156112e057366110546060860186611e61565b8381811061106457611064611cf2565b90506020028101906110769190611ea6565b9050826110866020830183611b48565b6110936020840184611eba565b6110a36060860160408701611efc565b60608601356110b860a0880160808901611f15565b6040516020016110cd96959493929190611f3c565b604051602081830303815290604052805190602001206040516020016110f4929190611def565b60405160208183030381529060405292505f8160400160208101906111199190611efc565b6001600160801b031611156111b7576001600160a01b038416639336255f6111446020840184611b48565b6111546060850160408601611efc565b6040516001600160e01b031960e085901b1681526001600160a01b0390921660048301526001600160801b031660248201526044015f604051808303815f87803b1580156111a0575f80fd5b505af11580156111b2573d5f803e3d5ffd5b505050505b6060810180351580156111e157506111d56040820160208301611f15565b6001600160e01b031916155b15611256576111f36020830183611b48565b6001600160a01b03167ff37dc71fbc17e593f661c4e1d6f7a0653f8b6c21bdc252824838c9336ace9bd461122a6020850185611eba565b61123a6060870160408801611efc565b60405161124993929190611f9b565b60405180910390a26112d6565b6112636020830183611b48565b6001600160a01b03167fb85f0909476ae6b35920c3a911dcfdce8a882eafa58ed8e9950b66f39114f2d261129a6020850185611eba565b6112aa6060870160408801611efc565b85356112bc6040880160208901611f15565b6040516112cd959493929190611fc7565b60405180910390a25b5050600101611030565b50846112ef6020850185611b48565b82516020808501919091206040805160609490941b6bffffffffffffffffffffffff191684840152918701356034840152908601356054830152607482015260940160405160208183030381529060405280519060200120604051602001611358929190611def565b6040516020818303038152906040529450826040013583602001351461143c576040805163e9e2d09960e01b8152602085013560048201529084013560248201526001600160a01b0383169063e9e2d099906044015f604051808303815f87803b1580156113c4575f80fd5b505af11580156113d6573d5f803e3d5ffd5b506113e8925050506020840184611b48565b6001600160a01b03167f5e7f42f8499cb41931ca69fd6e8ada438ba8641bbeb31905bffc25d4de4e9a0a84602001358560400135604051611433929190918252602082015260400190565b60405180910390a25b505050600101610f8c565b508051602082810191909120604080518635818501528187013591810191909152918501356060830152608082015260a00160405160208183030381529060405280519060200120915050919050565b5f6114cc84805190602001206040516020016114b591815260200190565b60408051601f19818403018152919052309061167b565b90505f5b828110156115ad57365f8585848181106114ec576114ec611cf2565b90506020028101906114fe9190611eba565b915091505f61154483838080601f0160208091040260200160405190810160405280939291908181526020018383808284375f9201919091525089939250506116ae9050565b6001600160a01b0381165f9081526003602052604090205490915060ff166115a25760405162461bcd60e51b8152602060048201526011602482015270756e6b6e6f776e207369676e617475726560781b6044820152606401610486565b5050506001016114d0565b6001811015610b835760405162461bcd60e51b81526020600482015260156024820152746e6f7420656e6f756768207369676e61747572657360581b6044820152606401610486565b6107035f7f9b779b17422d0df92223018b32b4d1fa46e071723d6817e2486d003becc55f00610ea4565b80825d5050565b5f8061163460014361200a565b90505b8015611673578281400361164e5750600192915050565b61010061165b824361200a565b1015611673578061166b8161201d565b915050611637565b505f92915050565b5f828260405160200161168f929190612032565b6040516020818303038152906040528051906020012090505b92915050565b5f805f806116bc86866116d6565b9250925092506116cc828261171f565b5090949350505050565b5f805f835160410361170d576020840151604085015160608601515f1a6116ff888285856117db565b955095509550505050611718565b505081515f91506002905b9250925092565b5f82600381111561173257611732611bce565b0361173b575050565b600182600381111561174f5761174f611bce565b0361176d5760405163f645eedf60e01b815260040160405180910390fd5b600282600381111561178157611781611bce565b036117a25760405163fce698f760e01b815260048101829052602401610486565b60038260038111156117b6576117b6611bce565b036117d7576040516335e2f38360e21b815260048101829052602401610486565b5050565b5f80807f7fffffffffffffffffffffffffffffff5d576e7357a4501ddfe92f46681b20a084111561181457505f91506003905082611899565b604080515f808252602082018084528a905260ff891692820192909252606081018790526080810186905260019060a0016020604051602081039080840390855afa158015611865573d5f803e3d5ffd5b5050604051601f1901519150506001600160a01b03811661189057505f925060019150829050611899565b92505f91508190505b9450945094915050565b5f80604083850312156118b4575f80fd5b50508035926020909101359150565b5f8083601f8401126118d3575f80fd5b5081356001600160401b038111156118e9575f80fd5b6020830191508360208260051b8501011115611903575f80fd5b9250929050565b5f806020838503121561191b575f80fd5b82356001600160401b03811115611930575f80fd5b61193c858286016118c3565b90969095509350505050565b5f8083601f840112611958575f80fd5b5081356001600160401b0381111561196e575f80fd5b602083019150836020828501011115611903575f80fd5b80356001600160401b038116811461199b575f80fd5b919050565b80356001600160801b038116811461199b575f80fd5b5f805f805f608086880312156119ca575f80fd5b8535945060208601356001600160401b038111156119e6575f80fd5b6119f288828901611948565b9095509350611a05905060408701611985565b9150611a13606087016119a0565b90509295509295909350565b634e487b7160e01b5f52604160045260245ffd5b80356001600160a01b038116811461199b575f80fd5b5f60208284031215611a59575f80fd5b81356001600160401b03811115611a6e575f80fd5b8201601f81018413611a7e575f80fd5b80356001600160401b03811115611a9757611a97611a1f565b8060051b604051601f19603f83011681018181106001600160401b0382111715611ac357611ac3611a1f565b604052918252602081840181019290810187841115611ae0575f80fd5b6020850194505b83851015611b0657611af885611a33565b815260209485019401611ae7565b509695505050505050565b5f805f805f60808688031215611b25575f80fd5b611b2e86611a33565b945060208601356001600160401b038111156119e6575f80fd5b5f60208284031215611b58575f80fd5b610e3682611a33565b5f805f805f60808688031215611b75575f80fd5b853594506020860135935060408601356001600160401b03811115611b98575f80fd5b611ba488828901611948565b9094509250611a13905060608701611985565b5f60208284031215611bc7575f80fd5b5035919050565b634e487b7160e01b5f52602160045260245ffd5b6020810160038310611c0257634e487b7160e01b5f52602160045260245ffd5b91905290565b5f805f8060408587031215611c1b575f80fd5b84356001600160401b03811115611c30575f80fd5b611c3c878288016118c3565b90955093505060208501356001600160401b03811115611c5a575f80fd5b611c66878288016118c3565b95989497509550505050565b5f805f8060408587031215611c85575f80fd5b84356001600160401b03811115611c9a575f80fd5b8501601f81018713611caa575f80fd5b80356001600160401b03811115611cbf575f80fd5b8760208260061b8401011115611cd3575f80fd5b6020918201955093508501356001600160401b03811115611c5a575f80fd5b634e487b7160e01b5f52603260045260245ffd5b6020808252600f908201526e756e6b6e6f776e2070726f6772616d60881b604082015260600190565b81835281816020850137505f828201602090810191909152601f909101601f19169091010190565b606081525f611d6a606083018688611d2f565b90506001600160401b03841660208301526001600160801b038316604083015295945050505050565b634e487b7160e01b5f52601160045260245ffd5b808201808211156116a8576116a8611d93565b5f8235607e19833603018112611dce575f80fd5b9190910192915050565b5f81518060208401855e5f93019283525090919050565b5f611dfa8285611dd8565b9283525050602001919050565b8015158114610bc4575f80fd5b5f60208284031215611e24575f80fd5b8135610e3681611e07565b5f60208284031215611e3f575f80fd5b5051919050565b5f60208284031215611e56575f80fd5b8151610e3681611e07565b5f808335601e19843603018112611e76575f80fd5b8301803591506001600160401b03821115611e8f575f80fd5b6020019150600581901b3603821315611903575f80fd5b5f8235609e19833603018112611dce575f80fd5b5f808335601e19843603018112611ecf575f80fd5b8301803591506001600160401b03821115611ee8575f80fd5b602001915036819003821315611903575f80fd5b5f60208284031215611f0c575f80fd5b610e36826119a0565b5f60208284031215611f25575f80fd5b81356001600160e01b031981168114610e36575f80fd5b6bffffffffffffffffffffffff198760601b1681528486601483013760809390931b6fffffffffffffffffffffffffffffffff19166014949093019384019290925260248301526001600160e01b031916604482015260480192915050565b604081525f611fae604083018587611d2f565b90506001600160801b0383166020830152949350505050565b608081525f611fda608083018789611d2f565b6001600160801b039590951660208301525060408101929092526001600160e01b03191660609091015292915050565b818103818111156116a8576116a8611d93565b5f8161202b5761202b611d93565b505f190190565b601960f81b8152606083901b6bffffffffffffffffffffffff191660028201525f6120606016830184611dd8565b94935050505056fea26469706673582212200d18bf27261544747f62a16ad76609aa74350411f6cb6295364433fd774034ef64736f6c634300081a0033","linkReferences":{}},"methodIdentifiers":{"COUNT_OF_VALIDATORS()":"1b76cd15","REQUIRED_SIGNATURES()":"9ac18b19","addValidators(address[])":"70223952","claimValue(bytes32)":"91d5a64c","codes(bytes32)":"ad656510","commitBlocks((bytes32,bytes32,bytes32,(address,bytes32,bytes32,(address,bytes,uint128,(bytes32,bytes4))[])[])[],bytes[])":"bbc080d5","commitCodes((bytes32,bool)[],bytes[])":"e97d3eb3","countOfValidators()":"f79353e2","createProgram(bytes32,bytes32,bytes,uint64)":"8a3b2202","genesisBlockHash()":"28e24b3d","lastBlockCommitmentHash()":"2dacfb69","owner()":"8da5cb5b","program()":"c860ebc6","programs(address)":"8405e41c","removeValidators(address[])":"1d40f0d8","renounceOwnership()":"715018a6","sendMessage(address,bytes,uint64,uint128)":"75e7e6dd","sendReply(bytes32,bytes,uint64,uint128)":"32bc103a","transferOwnership(address)":"f2fde38b","uploadCode(bytes32,bytes32)":"12c89ee6","validators(address)":"fa52c7d8","wrappedVara()":"88f50cf0"},"id":45}