{"abi":[{"type":"constructor","inputs":[{"name":"initialOwner","type":"address","internalType":"address"},{"name":"_valuePerGas","type":"uint128","internalType":"uint128"}],"stateMutability":"nonpayable"},{"type":"function","name":"INITIAL_SUPPLY","inputs":[],"outputs":[{"name":"","type":"uint256","internalType":"uint256"}],"stateMutability":"view"},{"type":"function","name":"allowance","inputs":[{"name":"owner","type":"address","internalType":"address"},{"name":"spender","type":"address","internalType":"address"}],"outputs":[{"name":"","type":"uint256","internalType":"uint256"}],"stateMutability":"view"},{"type":"function","name":"approve","inputs":[{"name":"spender","type":"address","internalType":"address"},{"name":"value","type":"uint256","internalType":"uint256"}],"outputs":[{"name":"","type":"bool","internalType":"bool"}],"stateMutability":"nonpayable"},{"type":"function","name":"balanceOf","inputs":[{"name":"account","type":"address","internalType":"address"}],"outputs":[{"name":"","type":"uint256","internalType":"uint256"}],"stateMutability":"view"},{"type":"function","name":"burn","inputs":[{"name":"value","type":"uint256","internalType":"uint256"}],"outputs":[],"stateMutability":"nonpayable"},{"type":"function","name":"burnFrom","inputs":[{"name":"account","type":"address","internalType":"address"},{"name":"value","type":"uint256","internalType":"uint256"}],"outputs":[],"stateMutability":"nonpayable"},{"type":"function","name":"decimals","inputs":[],"outputs":[{"name":"","type":"uint8","internalType":"uint8"}],"stateMutability":"view"},{"type":"function","name":"gasToValue","inputs":[{"name":"gas","type":"uint64","internalType":"uint64"}],"outputs":[{"name":"","type":"uint256","internalType":"uint256"}],"stateMutability":"view"},{"type":"function","name":"mint","inputs":[{"name":"to","type":"address","internalType":"address"},{"name":"amount","type":"uint256","internalType":"uint256"}],"outputs":[],"stateMutability":"nonpayable"},{"type":"function","name":"name","inputs":[],"outputs":[{"name":"","type":"string","internalType":"string"}],"stateMutability":"view"},{"type":"function","name":"owner","inputs":[],"outputs":[{"name":"","type":"address","internalType":"address"}],"stateMutability":"view"},{"type":"function","name":"renounceOwnership","inputs":[],"outputs":[],"stateMutability":"nonpayable"},{"type":"function","name":"setValuePerGas","inputs":[{"name":"_valuePerGas","type":"uint128","internalType":"uint128"}],"outputs":[],"stateMutability":"nonpayable"},{"type":"function","name":"symbol","inputs":[],"outputs":[{"name":"","type":"string","internalType":"string"}],"stateMutability":"view"},{"type":"function","name":"totalSupply","inputs":[],"outputs":[{"name":"","type":"uint256","internalType":"uint256"}],"stateMutability":"view"},{"type":"function","name":"transfer","inputs":[{"name":"to","type":"address","internalType":"address"},{"name":"value","type":"uint256","internalType":"uint256"}],"outputs":[{"name":"","type":"bool","internalType":"bool"}],"stateMutability":"nonpayable"},{"type":"function","name":"transferFrom","inputs":[{"name":"from","type":"address","internalType":"address"},{"name":"to","type":"address","internalType":"address"},{"name":"value","type":"uint256","internalType":"uint256"}],"outputs":[{"name":"","type":"bool","internalType":"bool"}],"stateMutability":"nonpayable"},{"type":"function","name":"transferOwnership","inputs":[{"name":"newOwner","type":"address","internalType":"address"}],"outputs":[],"stateMutability":"nonpayable"},{"type":"function","name":"valuePerGas","inputs":[],"outputs":[{"name":"","type":"uint128","internalType":"uint128"}],"stateMutability":"view"},{"type":"event","name":"Approval","inputs":[{"name":"owner","type":"address","indexed":true,"internalType":"address"},{"name":"spender","type":"address","indexed":true,"internalType":"address"},{"name":"value","type":"uint256","indexed":false,"internalType":"uint256"}],"anonymous":false},{"type":"event","name":"OwnershipTransferred","inputs":[{"name":"previousOwner","type":"address","indexed":true,"internalType":"address"},{"name":"newOwner","type":"address","indexed":true,"internalType":"address"}],"anonymous":false},{"type":"event","name":"Transfer","inputs":[{"name":"from","type":"address","indexed":true,"internalType":"address"},{"name":"to","type":"address","indexed":true,"internalType":"address"},{"name":"value","type":"uint256","indexed":false,"internalType":"uint256"}],"anonymous":false},{"type":"error","name":"ERC20InsufficientAllowance","inputs":[{"name":"spender","type":"address","internalType":"address"},{"name":"allowance","type":"uint256","internalType":"uint256"},{"name":"needed","type":"uint256","internalType":"uint256"}]},{"type":"error","name":"ERC20InsufficientBalance","inputs":[{"name":"sender","type":"address","internalType":"address"},{"name":"balance","type":"uint256","internalType":"uint256"},{"name":"needed","type":"uint256","internalType":"uint256"}]},{"type":"error","name":"ERC20InvalidApprover","inputs":[{"name":"approver","type":"address","internalType":"address"}]},{"type":"error","name":"ERC20InvalidReceiver","inputs":[{"name":"receiver","type":"address","internalType":"address"}]},{"type":"error","name":"ERC20InvalidSender","inputs":[{"name":"sender","type":"address","internalType":"address"}]},{"type":"error","name":"ERC20InvalidSpender","inputs":[{"name":"spender","type":"address","internalType":"address"}]},{"type":"error","name":"OwnableInvalidOwner","inputs":[{"name":"owner","type":"address","internalType":"address"}]},{"type":"error","name":"OwnableUnauthorizedAccount","inputs":[{"name":"account","type":"address","internalType":"address"}]}],"bytecode":{"object":"0x608060405234801561000f575f80fd5b5060405161115338038061115383398101604081905261002e91610369565b816040518060400160405280600c81526020016b57726170706564205661726160a01b81525060405180604001604052806005815260200164575641524160d81b8152508160039081610081919061044f565b50600461008e828261044f565b5050506001600160a01b0381166100bf57604051631e4fbdf760e01b81525f60048201526024015b60405180910390fd5b6100c8816100fb565b506100eb826100d9600c600a610602565b6100e690620f4240610617565b61014c565b6100f481610184565b5050610641565b600580546001600160a01b038381166001600160a01b0319831681179093556040519116919082907f8be0079c531659141344cd1fd0a4f28419497f9722a3daafe3b4186f6b6457e0905f90a35050565b6001600160a01b0382166101755760405163ec442f0560e01b81525f60048201526024016100b6565b6101805f8383610214565b5050565b61018c61033a565b5f816001600160801b0316116101f25760405162461bcd60e51b815260206004820152602560248201527f76616c7565506572476173206d7573742062652067726561746572207468616e604482015264207a65726f60d81b60648201526084016100b6565b600680546001600160801b0319166001600160801b0392909216919091179055565b6001600160a01b03831661023e578060025f828254610233919061062e565b909155506102ae9050565b6001600160a01b0383165f90815260208190526040902054818110156102905760405163391434e360e21b81526001600160a01b038516600482015260248101829052604481018390526064016100b6565b6001600160a01b0384165f9081526020819052604090209082900390555b6001600160a01b0382166102ca576002805482900390556102e8565b6001600160a01b0382165f9081526020819052604090208054820190555b816001600160a01b0316836001600160a01b03167fddf252ad1be2c89b69c2b068fc378daa952ba7f163c4a11628f55a4df523b3ef8360405161032d91815260200190565b60405180910390a3505050565b6005546001600160a01b031633146103675760405163118cdaa760e01b81523360048201526024016100b6565b565b5f806040838503121561037a575f80fd5b82516001600160a01b0381168114610390575f80fd5b60208401519092506001600160801b03811681146103ac575f80fd5b809150509250929050565b634e487b7160e01b5f52604160045260245ffd5b600181811c908216806103df57607f821691505b6020821081036103fd57634e487b7160e01b5f52602260045260245ffd5b50919050565b601f82111561044a57805f5260205f20601f840160051c810160208510156104285750805b601f840160051c820191505b81811015610447575f8155600101610434565b50505b505050565b81516001600160401b03811115610468576104686103b7565b61047c8161047684546103cb565b84610403565b6020601f8211600181146104ae575f83156104975750848201515b5f19600385901b1c1916600184901b178455610447565b5f84815260208120601f198516915b828110156104dd57878501518255602094850194600190920191016104bd565b50848210156104fa57868401515f19600387901b60f8161c191681555b50505050600190811b01905550565b634e487b7160e01b5f52601160045260245ffd5b6001815b60018411156105585780850481111561053c5761053c610509565b600184161561054a57908102905b60019390931c928002610521565b935093915050565b5f8261056e575060016105fc565b8161057a57505f6105fc565b8160018114610590576002811461059a576105b6565b60019150506105fc565b60ff8411156105ab576105ab610509565b50506001821b6105fc565b5060208310610133831016604e8410600b84101617156105d9575081810a6105fc565b6105e55f19848461051d565b805f19048211156105f8576105f8610509565b0290505b92915050565b5f61061060ff841683610560565b9392505050565b80820281158282048414176105fc576105fc610509565b808201808211156105fc576105fc610509565b610b058061064e5f395ff3fe608060405234801561000f575f80fd5b506004361061011c575f3560e01c8063715018a6116100a9578063a9059cbb1161006e578063a9059cbb14610240578063d39b3b5c14610253578063dd62ed3e14610266578063f2fde38b1461029e578063f54675e0146102b1575f80fd5b8063715018a6146101ef57806379cc6790146101f75780638da5cb5b1461020a57806395d89b41146102255780639f0d1b5a1461022d575f80fd5b80632ff2e9dc116100ef5780632ff2e9dc14610186578063313ce5671461019057806340c10f191461019f57806342966c68146101b457806370a08231146101c7575f80fd5b806306fdde0314610120578063095ea7b31461013e57806318160ddd1461016157806323b872dd14610173575b5f80fd5b6101286102dc565b60405161013591906108e0565b60405180910390f35b61015161014c366004610930565b61036c565b6040519015158152602001610135565b6002545b604051908152602001610135565b610151610181366004610958565b610385565b610165620f424081565b604051600c8152602001610135565b6101b26101ad366004610930565b6103a8565b005b6101b26101c2366004610992565b6103be565b6101656101d53660046109a9565b6001600160a01b03165f9081526020819052604090205490565b6101b26103cb565b6101b2610205366004610930565b6103de565b6005546040516001600160a01b039091168152602001610135565b6101286103f3565b6101b261023b3660046109c9565b610402565b61015161024e366004610930565b6104a0565b6101656102613660046109ef565b6104ad565b610165610274366004610a16565b6001600160a01b039182165f90815260016020908152604080832093909416825291909152205490565b6101b26102ac3660046109a9565b6104de565b6006546102c4906001600160801b031681565b6040516001600160801b039091168152602001610135565b6060600380546102eb90610a47565b80601f016020809104026020016040519081016040528092919081815260200182805461031790610a47565b80156103625780601f1061033957610100808354040283529160200191610362565b820191905f5260205f20905b81548152906001019060200180831161034557829003601f168201915b5050505050905090565b5f33610379818585610518565b60019150505b92915050565b5f3361039285828561052a565b61039d8585856105a5565b506001949350505050565b6103b0610602565b6103ba828261062f565b5050565b6103c83382610663565b50565b6103d3610602565b6103dc5f610697565b565b6103e982338361052a565b6103ba8282610663565b6060600480546102eb90610a47565b61040a610602565b5f816001600160801b0316116104755760405162461bcd60e51b815260206004820152602560248201527f76616c7565506572476173206d7573742062652067726561746572207468616e604482015264207a65726f60d81b60648201526084015b60405180910390fd5b600680546fffffffffffffffffffffffffffffffff19166001600160801b0392909216919091179055565b5f336103798185856105a5565b6006545f906104cf906001600160801b031667ffffffffffffffff8416610a93565b6001600160801b031692915050565b6104e6610602565b6001600160a01b03811661050f57604051631e4fbdf760e01b81525f600482015260240161046c565b6103c881610697565b61052583838360016106e8565b505050565b6001600160a01b038381165f908152600160209081526040808320938616835292905220545f19811461059f578181101561059157604051637dc7a0d960e11b81526001600160a01b0384166004820152602481018290526044810183905260640161046c565b61059f84848484035f6106e8565b50505050565b6001600160a01b0383166105ce57604051634b637e8f60e11b81525f600482015260240161046c565b6001600160a01b0382166105f75760405163ec442f0560e01b81525f600482015260240161046c565b6105258383836107ba565b6005546001600160a01b031633146103dc5760405163118cdaa760e01b815233600482015260240161046c565b6001600160a01b0382166106585760405163ec442f0560e01b81525f600482015260240161046c565b6103ba5f83836107ba565b6001600160a01b03821661068c57604051634b637e8f60e11b81525f600482015260240161046c565b6103ba825f836107ba565b600580546001600160a01b038381166001600160a01b0319831681179093556040519116919082907f8be0079c531659141344cd1fd0a4f28419497f9722a3daafe3b4186f6b6457e0905f90a35050565b6001600160a01b0384166107115760405163e602df0560e01b81525f600482015260240161046c565b6001600160a01b03831661073a57604051634a1406b160e11b81525f600482015260240161046c565b6001600160a01b038085165f908152600160209081526040808320938716835292905220829055801561059f57826001600160a01b0316846001600160a01b03167f8c5be1e5ebec7d5bd14f71427d1e84f3dd0314c0f7b2291e5b200ac8c7c3b925846040516107ac91815260200190565b60405180910390a350505050565b6001600160a01b0383166107e4578060025f8282546107d99190610abc565b909155506108549050565b6001600160a01b0383165f90815260208190526040902054818110156108365760405163391434e360e21b81526001600160a01b0385166004820152602481018290526044810183905260640161046c565b6001600160a01b0384165f9081526020819052604090209082900390555b6001600160a01b0382166108705760028054829003905561088e565b6001600160a01b0382165f9081526020819052604090208054820190555b816001600160a01b0316836001600160a01b03167fddf252ad1be2c89b69c2b068fc378daa952ba7f163c4a11628f55a4df523b3ef836040516108d391815260200190565b60405180910390a3505050565b602081525f82518060208401528060208501604085015e5f604082850101526040601f19601f83011684010191505092915050565b80356001600160a01b038116811461092b575f80fd5b919050565b5f8060408385031215610941575f80fd5b61094a83610915565b946020939093013593505050565b5f805f6060848603121561096a575f80fd5b61097384610915565b925061098160208501610915565b929592945050506040919091013590565b5f602082840312156109a2575f80fd5b5035919050565b5f602082840312156109b9575f80fd5b6109c282610915565b9392505050565b5f602082840312156109d9575f80fd5b81356001600160801b03811681146109c2575f80fd5b5f602082840312156109ff575f80fd5b813567ffffffffffffffff811681146109c2575f80fd5b5f8060408385031215610a27575f80fd5b610a3083610915565b9150610a3e60208401610915565b90509250929050565b600181811c90821680610a5b57607f821691505b602082108103610a7957634e487b7160e01b5f52602260045260245ffd5b50919050565b634e487b7160e01b5f52601160045260245ffd5b6001600160801b038181168382160290811690818114610ab557610ab5610a7f565b5092915050565b8082018082111561037f5761037f610a7f56fea26469706673582212203a73115a9e33bfa0a2e4367c4f15c376ea6820048afb893b7887e3f97fe5190464736f6c634300081a0033","linkReferences":{}},"methodIdentifiers":{"INITIAL_SUPPLY()":"2ff2e9dc","allowance(address,address)":"dd62ed3e","approve(address,uint256)":"095ea7b3","balanceOf(address)":"70a08231","burn(uint256)":"42966c68","burnFrom(address,uint256)":"79cc6790","decimals()":"313ce567","gasToValue(uint64)":"d39b3b5c","mint(address,uint256)":"40c10f19","name()":"06fdde03","owner()":"8da5cb5b","renounceOwnership()":"715018a6","setValuePerGas(uint128)":"9f0d1b5a","symbol()":"95d89b41","totalSupply()":"18160ddd","transfer(address,uint256)":"a9059cbb","transferFrom(address,address,uint256)":"23b872dd","transferOwnership(address)":"f2fde38b","valuePerGas()":"f54675e0"},"id":43}