{
  "_format": "hh-sol-artifact-1",
  "contractName": "EthBridge",
  "sourceName": "contracts/EthBridge.sol",
  "abi": [
    {
      "inputs": [
        {
          "internalType": "uint256",
          "name": "_bridgeId",
          "type": "uint256"
        },
        {
          "internalType": "uint8",
          "name": "_signaturesThreshold",
          "type": "uint8"
        },
        {
          "internalType": "uint256",
          "name": "_minAmount",
          "type": "uint256"
        },
        {
          "internalType": "uint256",
          "name": "_fee",
          "type": "uint256"
        },
        {
          "components": [
            {
              "internalType": "uint256",
              "name": "x",
              "type": "uint256"
            },
            {
              "internalType": "uint256",
              "name": "y",
              "type": "uint256"
            }
          ],
          "internalType": "struct LibSecp256k1.Point[]",
          "name": "_configAuthorityKeys",
          "type": "tuple[]"
        },
        {
          "internalType": "address[]",
          "name": "_emergencyAdmins",
          "type": "address[]"
        },
        {
          "internalType": "address[]",
          "name": "_validatorPublicKeys",
          "type": "address[]"
        },
        {
          "internalType": "uint8",
          "name": "_minValidatorsRequired",
          "type": "uint8"
        },
        {
          "internalType": "bool",
          "name": "_requireMigration",
          "type": "bool"
        }
      ],
      "stateMutability": "nonpayable",
      "type": "constructor"
    },
    {
      "inputs": [],
      "name": "AccessControlBadConfirmation",
      "type": "error"
    },
    {
      "inputs": [
        {
          "internalType": "address",
          "name": "account",
          "type": "address"
        },
        {
          "internalType": "bytes32",
          "name": "neededRole",
          "type": "bytes32"
        }
      ],
      "name": "AccessControlUnauthorizedAccount",
      "type": "error"
    },
    {
      "inputs": [
        {
          "internalType": "uint256",
          "name": "feeBalance",
          "type": "uint256"
        },
        {
          "internalType": "uint256",
          "name": "amount",
          "type": "uint256"
        }
      ],
      "name": "AmountExceedsAvailableFeeBalance",
      "type": "error"
    },
    {
      "inputs": [],
      "name": "AuthorityKeyAlreadyExists",
      "type": "error"
    },
    {
      "inputs": [],
      "name": "ContractAlreadyInEmergencyMode",
      "type": "error"
    },
    {
      "inputs": [],
      "name": "ContractInMigration",
      "type": "error"
    },
    {
      "inputs": [],
      "name": "DuplicatePublicKeyIDs",
      "type": "error"
    },
    {
      "inputs": [],
      "name": "DuplicateSignaturesDetected",
      "type": "error"
    },
    {
      "inputs": [],
      "name": "ECDSAInvalidSignature",
      "type": "error"
    },
    {
      "inputs": [
        {
          "internalType": "uint256",
          "name": "length",
          "type": "uint256"
        }
      ],
      "name": "ECDSAInvalidSignatureLength",
      "type": "error"
    },
    {
      "inputs": [
        {
          "internalType": "bytes32",
          "name": "s",
          "type": "bytes32"
        }
      ],
      "name": "ECDSAInvalidSignatureS",
      "type": "error"
    },
    {
      "inputs": [],
      "name": "EmergencyStopActive",
      "type": "error"
    },
    {
      "inputs": [],
      "name": "ErrorDuringMigration",
      "type": "error"
    },
    {
      "inputs": [
        {
          "internalType": "address",
          "name": "to",
          "type": "address"
        }
      ],
      "name": "EtherSendFailure",
      "type": "error"
    },
    {
      "inputs": [],
      "name": "IndexOutOfBounds",
      "type": "error"
    },
    {
      "inputs": [
        {
          "internalType": "uint256",
          "name": "provided",
          "type": "uint256"
        },
        {
          "internalType": "uint256",
          "name": "required",
          "type": "uint256"
        }
      ],
      "name": "InsufficientFee",
      "type": "error"
    },
    {
      "inputs": [
        {
          "internalType": "uint256",
          "name": "required",
          "type": "uint256"
        }
      ],
      "name": "InsufficientSigners",
      "type": "error"
    },
    {
      "inputs": [
        {
          "internalType": "uint8",
          "name": "threshold",
          "type": "uint8"
        },
        {
          "internalType": "uint256",
          "name": "signersAmount",
          "type": "uint256"
        }
      ],
      "name": "InsufficientSignersError",
      "type": "error"
    },
    {
      "inputs": [
        {
          "internalType": "uint256",
          "name": "from",
          "type": "uint256"
        },
        {
          "internalType": "uint256",
          "name": "to",
          "type": "uint256"
        }
      ],
      "name": "InvalidIndexRange",
      "type": "error"
    },
    {
      "inputs": [],
      "name": "MigrationNotActive",
      "type": "error"
    },
    {
      "inputs": [],
      "name": "MigrationOfNullElements",
      "type": "error"
    },
    {
      "inputs": [
        {
          "internalType": "address",
          "name": "",
          "type": "address"
        }
      ],
      "name": "NonAuthorisedValidator",
      "type": "error"
    },
    {
      "inputs": [],
      "name": "NonSequentialNonceArray",
      "type": "error"
    },
    {
      "inputs": [
        {
          "internalType": "address",
          "name": "caller",
          "type": "address"
        }
      ],
      "name": "NotAuthority",
      "type": "error"
    },
    {
      "inputs": [
        {
          "internalType": "address",
          "name": "",
          "type": "address"
        }
      ],
      "name": "NotEmerencyAdmin",
      "type": "error"
    },
    {
      "inputs": [
        {
          "internalType": "address",
          "name": "caller",
          "type": "address"
        }
      ],
      "name": "NotEmergencyAdmin",
      "type": "error"
    },
    {
      "inputs": [
        {
          "internalType": "uint256",
          "name": "amount",
          "type": "uint256"
        },
        {
          "internalType": "uint256",
          "name": "balance",
          "type": "uint256"
        }
      ],
      "name": "NotEnoughBalance",
      "type": "error"
    },
    {
      "inputs": [],
      "name": "NotInEmergencyStop",
      "type": "error"
    },
    {
      "inputs": [],
      "name": "PointNotOnCurve",
      "type": "error"
    },
    {
      "inputs": [],
      "name": "ReentrancyGuardReentrantCall",
      "type": "error"
    },
    {
      "inputs": [
        {
          "internalType": "address",
          "name": "expected",
          "type": "address"
        },
        {
          "internalType": "address",
          "name": "provided",
          "type": "address"
        }
      ],
      "name": "SignatureMismatch",
      "type": "error"
    },
    {
      "inputs": [
        {
          "internalType": "uint256",
          "name": "",
          "type": "uint256"
        }
      ],
      "name": "SignersReducedBelowThreshold",
      "type": "error"
    },
    {
      "inputs": [
        {
          "internalType": "uint256",
          "name": "",
          "type": "uint256"
        }
      ],
      "name": "ThresholdExceedsSignerCount",
      "type": "error"
    },
    {
      "inputs": [
        {
          "internalType": "uint256",
          "name": "amount",
          "type": "uint256"
        },
        {
          "internalType": "uint256",
          "name": "minAmount",
          "type": "uint256"
        }
      ],
      "name": "TooLowAmount",
      "type": "error"
    },
    {
      "inputs": [],
      "name": "TransfersArrayEmpty",
      "type": "error"
    },
    {
      "inputs": [],
      "name": "TryingToMigrateNullElement",
      "type": "error"
    },
    {
      "inputs": [
        {
          "internalType": "address",
          "name": "expectedPreviousContract",
          "type": "address"
        },
        {
          "internalType": "address",
          "name": "attemptedFrom",
          "type": "address"
        }
      ],
      "name": "UnauthorizedMigration",
      "type": "error"
    },
    {
      "inputs": [
        {
          "internalType": "address",
          "name": "",
          "type": "address"
        }
      ],
      "name": "ValidatorExists",
      "type": "error"
    },
    {
      "inputs": [
        {
          "internalType": "uint256",
          "name": "validatorsRequired",
          "type": "uint256"
        }
      ],
      "name": "ValidatorsNotReached",
      "type": "error"
    },
    {
      "inputs": [
        {
          "internalType": "string",
          "name": "",
          "type": "string"
        }
      ],
      "name": "VaraAddressNotValid",
      "type": "error"
    },
    {
      "inputs": [
        {
          "internalType": "string",
          "name": "",
          "type": "string"
        }
      ],
      "name": "VerificationFailed",
      "type": "error"
    },
    {
      "inputs": [
        {
          "internalType": "uint256",
          "name": "expected",
          "type": "uint256"
        },
        {
          "internalType": "uint256",
          "name": "provided",
          "type": "uint256"
        }
      ],
      "name": "WrongMinNonceId",
      "type": "error"
    },
    {
      "inputs": [],
      "name": "ZeroAmount",
      "type": "error"
    },
    {
      "inputs": [],
      "name": "ZeroSignatureThreshold",
      "type": "error"
    },
    {
      "inputs": [],
      "name": "ZeroThreshold",
      "type": "error"
    },
    {
      "anonymous": false,
      "inputs": [
        {
          "indexed": false,
          "internalType": "address",
          "name": "sender",
          "type": "address"
        },
        {
          "indexed": false,
          "internalType": "string",
          "name": "recipient",
          "type": "string"
        },
        {
          "indexed": false,
          "internalType": "uint256",
          "name": "amount",
          "type": "uint256"
        },
        {
          "indexed": false,
          "internalType": "uint256",
          "name": "nonceId",
          "type": "uint256"
        }
      ],
      "name": "EthToVaraTransferEvent",
      "type": "event"
    },
    {
      "anonymous": false,
      "inputs": [
        {
          "indexed": true,
          "internalType": "address",
          "name": "to",
          "type": "address"
        },
        {
          "indexed": false,
          "internalType": "uint256",
          "name": "amount",
          "type": "uint256"
        }
      ],
      "name": "EtherWithdrawn",
      "type": "event"
    },
    {
      "anonymous": false,
      "inputs": [
        {
          "indexed": false,
          "internalType": "uint256",
          "name": "newFee",
          "type": "uint256"
        }
      ],
      "name": "FeeUpdated",
      "type": "event"
    },
    {
      "anonymous": false,
      "inputs": [
        {
          "indexed": true,
          "internalType": "address",
          "name": "sender",
          "type": "address"
        },
        {
          "indexed": false,
          "internalType": "uint256",
          "name": "amount",
          "type": "uint256"
        }
      ],
      "name": "Received",
      "type": "event"
    },
    {
      "anonymous": false,
      "inputs": [
        {
          "indexed": true,
          "internalType": "bytes32",
          "name": "role",
          "type": "bytes32"
        },
        {
          "indexed": true,
          "internalType": "bytes32",
          "name": "previousAdminRole",
          "type": "bytes32"
        },
        {
          "indexed": true,
          "internalType": "bytes32",
          "name": "newAdminRole",
          "type": "bytes32"
        }
      ],
      "name": "RoleAdminChanged",
      "type": "event"
    },
    {
      "anonymous": false,
      "inputs": [
        {
          "indexed": true,
          "internalType": "bytes32",
          "name": "role",
          "type": "bytes32"
        },
        {
          "indexed": true,
          "internalType": "address",
          "name": "account",
          "type": "address"
        },
        {
          "indexed": true,
          "internalType": "address",
          "name": "sender",
          "type": "address"
        }
      ],
      "name": "RoleGranted",
      "type": "event"
    },
    {
      "anonymous": false,
      "inputs": [
        {
          "indexed": true,
          "internalType": "bytes32",
          "name": "role",
          "type": "bytes32"
        },
        {
          "indexed": true,
          "internalType": "address",
          "name": "account",
          "type": "address"
        },
        {
          "indexed": true,
          "internalType": "address",
          "name": "sender",
          "type": "address"
        }
      ],
      "name": "RoleRevoked",
      "type": "event"
    },
    {
      "anonymous": false,
      "inputs": [
        {
          "components": [
            {
              "internalType": "string",
              "name": "sender",
              "type": "string"
            },
            {
              "internalType": "address payable",
              "name": "recipient",
              "type": "address"
            },
            {
              "internalType": "uint256",
              "name": "amount",
              "type": "uint256"
            },
            {
              "internalType": "uint256",
              "name": "nonceId",
              "type": "uint256"
            }
          ],
          "indexed": false,
          "internalType": "struct Bridge.VaraToEthTransfer[]",
          "name": "varaToEthTransfers",
          "type": "tuple[]"
        }
      ],
      "name": "VaraToEthTransferEvent",
      "type": "event"
    },
    {
      "inputs": [],
      "name": "DEFAULT_ADMIN_ROLE",
      "outputs": [
        {
          "internalType": "bytes32",
          "name": "",
          "type": "bytes32"
        }
      ],
      "stateMutability": "view",
      "type": "function"
    },
    {
      "inputs": [],
      "name": "EMERGENCY_ADMIN_ROLE",
      "outputs": [
        {
          "internalType": "bytes32",
          "name": "",
          "type": "bytes32"
        }
      ],
      "stateMutability": "view",
      "type": "function"
    },
    {
      "inputs": [
        {
          "internalType": "bytes32",
          "name": "signature",
          "type": "bytes32"
        },
        {
          "internalType": "bytes20",
          "name": "commitmentAggregated",
          "type": "bytes20"
        },
        {
          "internalType": "bytes20",
          "name": "commitmentSigners",
          "type": "bytes20"
        },
        {
          "internalType": "uint256[]",
          "name": "pubKeysIds",
          "type": "uint256[]"
        }
      ],
      "name": "activateEmergencyStopByConfigAuthority",
      "outputs": [],
      "stateMutability": "nonpayable",
      "type": "function"
    },
    {
      "inputs": [],
      "name": "activeEmergencyStopByEmergencyAdmin",
      "outputs": [],
      "stateMutability": "nonpayable",
      "type": "function"
    },
    {
      "inputs": [
        {
          "internalType": "bytes32",
          "name": "signature",
          "type": "bytes32"
        },
        {
          "internalType": "bytes20",
          "name": "commitmentAggregated",
          "type": "bytes20"
        },
        {
          "internalType": "bytes20",
          "name": "commitmentSigners",
          "type": "bytes20"
        },
        {
          "internalType": "uint256[]",
          "name": "pubKeysIds",
          "type": "uint256[]"
        },
        {
          "components": [
            {
              "internalType": "uint256",
              "name": "x",
              "type": "uint256"
            },
            {
              "internalType": "uint256",
              "name": "y",
              "type": "uint256"
            }
          ],
          "internalType": "struct LibSecp256k1.Point",
          "name": "_configAuthorityKey",
          "type": "tuple"
        }
      ],
      "name": "addConfigAuthorityKey",
      "outputs": [],
      "stateMutability": "nonpayable",
      "type": "function"
    },
    {
      "inputs": [
        {
          "internalType": "bytes32",
          "name": "signature",
          "type": "bytes32"
        },
        {
          "internalType": "bytes20",
          "name": "commitmentAggregated",
          "type": "bytes20"
        },
        {
          "internalType": "bytes20",
          "name": "commitmentSigners",
          "type": "bytes20"
        },
        {
          "internalType": "uint256[]",
          "name": "pubKeysIds",
          "type": "uint256[]"
        },
        {
          "internalType": "address",
          "name": "newValidatorAddress",
          "type": "address"
        }
      ],
      "name": "addValidator",
      "outputs": [],
      "stateMutability": "nonpayable",
      "type": "function"
    },
    {
      "inputs": [],
      "name": "authorityNonce",
      "outputs": [
        {
          "internalType": "uint256",
          "name": "",
          "type": "uint256"
        }
      ],
      "stateMutability": "view",
      "type": "function"
    },
    {
      "inputs": [],
      "name": "bridgeId",
      "outputs": [
        {
          "internalType": "uint256",
          "name": "",
          "type": "uint256"
        }
      ],
      "stateMutability": "view",
      "type": "function"
    },
    {
      "inputs": [
        {
          "internalType": "bytes[]",
          "name": "signatures",
          "type": "bytes[]"
        }
      ],
      "name": "checkUniqueness",
      "outputs": [
        {
          "internalType": "bool",
          "name": "",
          "type": "bool"
        }
      ],
      "stateMutability": "nonpayable",
      "type": "function"
    },
    {
      "inputs": [
        {
          "internalType": "uint256",
          "name": "",
          "type": "uint256"
        }
      ],
      "name": "configAuthorityKeys",
      "outputs": [
        {
          "internalType": "uint256",
          "name": "x",
          "type": "uint256"
        },
        {
          "internalType": "uint256",
          "name": "y",
          "type": "uint256"
        }
      ],
      "stateMutability": "view",
      "type": "function"
    },
    {
      "inputs": [
        {
          "internalType": "bytes32",
          "name": "signature",
          "type": "bytes32"
        },
        {
          "internalType": "bytes20",
          "name": "commitmentAggregated",
          "type": "bytes20"
        },
        {
          "internalType": "bytes20",
          "name": "commitmentSigners",
          "type": "bytes20"
        },
        {
          "internalType": "uint256[]",
          "name": "pubKeysIds",
          "type": "uint256[]"
        }
      ],
      "name": "deactivateEmergencyStop",
      "outputs": [],
      "stateMutability": "nonpayable",
      "type": "function"
    },
    {
      "inputs": [],
      "name": "emergencyStopped",
      "outputs": [
        {
          "internalType": "bool",
          "name": "",
          "type": "bool"
        }
      ],
      "stateMutability": "view",
      "type": "function"
    },
    {
      "inputs": [
        {
          "internalType": "bytes32",
          "name": "signature",
          "type": "bytes32"
        },
        {
          "internalType": "bytes20",
          "name": "commitmentAggregated",
          "type": "bytes20"
        },
        {
          "internalType": "bytes20",
          "name": "commitmentSigners",
          "type": "bytes20"
        },
        {
          "internalType": "uint256[]",
          "name": "pubKeysIds",
          "type": "uint256[]"
        }
      ],
      "name": "endMigration",
      "outputs": [],
      "stateMutability": "nonpayable",
      "type": "function"
    },
    {
      "inputs": [],
      "name": "ethBalance",
      "outputs": [
        {
          "internalType": "uint256",
          "name": "",
          "type": "uint256"
        }
      ],
      "stateMutability": "view",
      "type": "function"
    },
    {
      "inputs": [],
      "name": "ethToVaraNonce",
      "outputs": [
        {
          "internalType": "uint256",
          "name": "",
          "type": "uint256"
        }
      ],
      "stateMutability": "view",
      "type": "function"
    },
    {
      "inputs": [
        {
          "internalType": "uint256",
          "name": "",
          "type": "uint256"
        }
      ],
      "name": "ethToVaraTransfers",
      "outputs": [
        {
          "internalType": "address",
          "name": "sender",
          "type": "address"
        },
        {
          "internalType": "string",
          "name": "recipient",
          "type": "string"
        },
        {
          "internalType": "uint256",
          "name": "amount",
          "type": "uint256"
        },
        {
          "internalType": "uint256",
          "name": "nonceId",
          "type": "uint256"
        }
      ],
      "stateMutability": "view",
      "type": "function"
    },
    {
      "inputs": [],
      "name": "fee",
      "outputs": [
        {
          "internalType": "uint256",
          "name": "",
          "type": "uint256"
        }
      ],
      "stateMutability": "view",
      "type": "function"
    },
    {
      "inputs": [],
      "name": "feeBalance",
      "outputs": [
        {
          "internalType": "uint256",
          "name": "",
          "type": "uint256"
        }
      ],
      "stateMutability": "view",
      "type": "function"
    },
    {
      "inputs": [],
      "name": "getAllValidatorPublicKeys",
      "outputs": [
        {
          "internalType": "address[]",
          "name": "",
          "type": "address[]"
        }
      ],
      "stateMutability": "view",
      "type": "function"
    },
    {
      "inputs": [],
      "name": "getAuthorityEthAddresses",
      "outputs": [
        {
          "internalType": "address[]",
          "name": "",
          "type": "address[]"
        }
      ],
      "stateMutability": "view",
      "type": "function"
    },
    {
      "inputs": [],
      "name": "getConfigAuthorityKeys",
      "outputs": [
        {
          "components": [
            {
              "internalType": "uint256",
              "name": "x",
              "type": "uint256"
            },
            {
              "internalType": "uint256",
              "name": "y",
              "type": "uint256"
            }
          ],
          "internalType": "struct LibSecp256k1.Point[]",
          "name": "",
          "type": "tuple[]"
        }
      ],
      "stateMutability": "view",
      "type": "function"
    },
    {
      "inputs": [
        {
          "internalType": "uint256",
          "name": "fromIndex",
          "type": "uint256"
        },
        {
          "internalType": "uint256",
          "name": "toIndex",
          "type": "uint256"
        }
      ],
      "name": "getEthToVaraTransfersInRange",
      "outputs": [
        {
          "components": [
            {
              "internalType": "address",
              "name": "sender",
              "type": "address"
            },
            {
              "internalType": "string",
              "name": "recipient",
              "type": "string"
            },
            {
              "internalType": "uint256",
              "name": "amount",
              "type": "uint256"
            },
            {
              "internalType": "uint256",
              "name": "nonceId",
              "type": "uint256"
            }
          ],
          "internalType": "struct Bridge.EthToVaraTransfer[]",
          "name": "",
          "type": "tuple[]"
        },
        {
          "internalType": "uint256",
          "name": "",
          "type": "uint256"
        }
      ],
      "stateMutability": "view",
      "type": "function"
    },
    {
      "inputs": [],
      "name": "getLastEthToVaraNonce",
      "outputs": [
        {
          "internalType": "uint256",
          "name": "",
          "type": "uint256"
        }
      ],
      "stateMutability": "view",
      "type": "function"
    },
    {
      "inputs": [],
      "name": "getLastVaraToEthNonce",
      "outputs": [
        {
          "internalType": "uint256",
          "name": "",
          "type": "uint256"
        }
      ],
      "stateMutability": "view",
      "type": "function"
    },
    {
      "inputs": [
        {
          "internalType": "bytes32",
          "name": "role",
          "type": "bytes32"
        }
      ],
      "name": "getRoleAdmin",
      "outputs": [
        {
          "internalType": "bytes32",
          "name": "",
          "type": "bytes32"
        }
      ],
      "stateMutability": "view",
      "type": "function"
    },
    {
      "inputs": [
        {
          "internalType": "bytes32",
          "name": "signature",
          "type": "bytes32"
        },
        {
          "internalType": "bytes20",
          "name": "commitmentAggregated",
          "type": "bytes20"
        },
        {
          "internalType": "bytes20",
          "name": "commitmentSigners",
          "type": "bytes20"
        },
        {
          "internalType": "uint256[]",
          "name": "pubKeysIds",
          "type": "uint256[]"
        },
        {
          "internalType": "address",
          "name": "newEmergencyAdmin",
          "type": "address"
        }
      ],
      "name": "grantEmergencyAdminRole",
      "outputs": [],
      "stateMutability": "nonpayable",
      "type": "function"
    },
    {
      "inputs": [
        {
          "internalType": "bytes32",
          "name": "role",
          "type": "bytes32"
        },
        {
          "internalType": "address",
          "name": "account",
          "type": "address"
        }
      ],
      "name": "grantRole",
      "outputs": [],
      "stateMutability": "nonpayable",
      "type": "function"
    },
    {
      "inputs": [
        {
          "internalType": "bytes32",
          "name": "role",
          "type": "bytes32"
        },
        {
          "internalType": "address",
          "name": "account",
          "type": "address"
        }
      ],
      "name": "hasRole",
      "outputs": [
        {
          "internalType": "bool",
          "name": "",
          "type": "bool"
        }
      ],
      "stateMutability": "view",
      "type": "function"
    },
    {
      "inputs": [],
      "name": "inMigration",
      "outputs": [
        {
          "internalType": "bool",
          "name": "",
          "type": "bool"
        }
      ],
      "stateMutability": "view",
      "type": "function"
    },
    {
      "inputs": [
        {
          "components": [
            {
              "internalType": "uint256",
              "name": "x",
              "type": "uint256"
            },
            {
              "internalType": "uint256",
              "name": "y",
              "type": "uint256"
            }
          ],
          "internalType": "struct LibSecp256k1.Point",
          "name": "_configAuthorityKey",
          "type": "tuple"
        }
      ],
      "name": "isKeyNotPresent",
      "outputs": [
        {
          "internalType": "bool",
          "name": "",
          "type": "bool"
        }
      ],
      "stateMutability": "view",
      "type": "function"
    },
    {
      "inputs": [
        {
          "internalType": "string",
          "name": "_addr",
          "type": "string"
        }
      ],
      "name": "isValidVaraAddress",
      "outputs": [
        {
          "internalType": "bool",
          "name": "",
          "type": "bool"
        }
      ],
      "stateMutability": "pure",
      "type": "function"
    },
    {
      "inputs": [
        {
          "internalType": "address",
          "name": "_validator",
          "type": "address"
        }
      ],
      "name": "isValidator",
      "outputs": [
        {
          "internalType": "bool",
          "name": "",
          "type": "bool"
        }
      ],
      "stateMutability": "view",
      "type": "function"
    },
    {
      "inputs": [
        {
          "internalType": "uint256",
          "name": "authorityKeyId",
          "type": "uint256"
        },
        {
          "internalType": "address payable",
          "name": "newContract",
          "type": "address"
        }
      ],
      "name": "migrateEthBalance",
      "outputs": [],
      "stateMutability": "nonpayable",
      "type": "function"
    },
    {
      "inputs": [
        {
          "internalType": "uint256",
          "name": "authorityKeyId",
          "type": "uint256"
        },
        {
          "internalType": "address",
          "name": "newContract",
          "type": "address"
        },
        {
          "internalType": "uint256",
          "name": "start",
          "type": "uint256"
        },
        {
          "internalType": "uint256",
          "name": "count",
          "type": "uint256"
        }
      ],
      "name": "migrateEthToVaraTransfers",
      "outputs": [],
      "stateMutability": "nonpayable",
      "type": "function"
    },
    {
      "inputs": [
        {
          "internalType": "uint256",
          "name": "authorityKeyId",
          "type": "uint256"
        },
        {
          "internalType": "address",
          "name": "newContract",
          "type": "address"
        }
      ],
      "name": "migrateNonces",
      "outputs": [],
      "stateMutability": "nonpayable",
      "type": "function"
    },
    {
      "inputs": [],
      "name": "minAmount",
      "outputs": [
        {
          "internalType": "uint256",
          "name": "",
          "type": "uint256"
        }
      ],
      "stateMutability": "view",
      "type": "function"
    },
    {
      "inputs": [],
      "name": "minValidatorsRequired",
      "outputs": [
        {
          "internalType": "uint256",
          "name": "",
          "type": "uint256"
        }
      ],
      "stateMutability": "view",
      "type": "function"
    },
    {
      "inputs": [],
      "name": "previousContract",
      "outputs": [
        {
          "internalType": "address",
          "name": "",
          "type": "address"
        }
      ],
      "stateMutability": "view",
      "type": "function"
    },
    {
      "inputs": [
        {
          "components": [
            {
              "internalType": "address",
              "name": "sender",
              "type": "address"
            },
            {
              "internalType": "string",
              "name": "recipient",
              "type": "string"
            },
            {
              "internalType": "uint256",
              "name": "amount",
              "type": "uint256"
            },
            {
              "internalType": "uint256",
              "name": "nonceId",
              "type": "uint256"
            }
          ],
          "internalType": "struct Bridge.EthToVaraTransfer[]",
          "name": "transfers",
          "type": "tuple[]"
        }
      ],
      "name": "receiveEthToVaraTransfers",
      "outputs": [],
      "stateMutability": "nonpayable",
      "type": "function"
    },
    {
      "inputs": [
        {
          "internalType": "bytes32",
          "name": "signature",
          "type": "bytes32"
        },
        {
          "internalType": "bytes20",
          "name": "commitmentAggregated",
          "type": "bytes20"
        },
        {
          "internalType": "bytes20",
          "name": "commitmentSigners",
          "type": "bytes20"
        },
        {
          "internalType": "uint256[]",
          "name": "pubKeysIds",
          "type": "uint256[]"
        },
        {
          "internalType": "uint256",
          "name": "_configAuthorityKeyId",
          "type": "uint256"
        }
      ],
      "name": "removeConfigAuthorityKey",
      "outputs": [],
      "stateMutability": "nonpayable",
      "type": "function"
    },
    {
      "inputs": [
        {
          "internalType": "bytes32",
          "name": "signature",
          "type": "bytes32"
        },
        {
          "internalType": "bytes20",
          "name": "commitmentAggregated",
          "type": "bytes20"
        },
        {
          "internalType": "bytes20",
          "name": "commitmentSigners",
          "type": "bytes20"
        },
        {
          "internalType": "uint256[]",
          "name": "pubKeysIds",
          "type": "uint256[]"
        },
        {
          "internalType": "address",
          "name": "validatorAddress",
          "type": "address"
        }
      ],
      "name": "removeValidator",
      "outputs": [],
      "stateMutability": "nonpayable",
      "type": "function"
    },
    {
      "inputs": [
        {
          "internalType": "bytes32",
          "name": "role",
          "type": "bytes32"
        },
        {
          "internalType": "address",
          "name": "callerConfirmation",
          "type": "address"
        }
      ],
      "name": "renounceRole",
      "outputs": [],
      "stateMutability": "nonpayable",
      "type": "function"
    },
    {
      "inputs": [
        {
          "internalType": "bytes32",
          "name": "signature",
          "type": "bytes32"
        },
        {
          "internalType": "bytes20",
          "name": "commitmentAggregated",
          "type": "bytes20"
        },
        {
          "internalType": "bytes20",
          "name": "commitmentSigners",
          "type": "bytes20"
        },
        {
          "internalType": "uint256[]",
          "name": "pubKeysIds",
          "type": "uint256[]"
        },
        {
          "internalType": "address",
          "name": "emergencyAdmin",
          "type": "address"
        }
      ],
      "name": "revokeEmergencyAdminRole",
      "outputs": [],
      "stateMutability": "nonpayable",
      "type": "function"
    },
    {
      "inputs": [
        {
          "internalType": "bytes32",
          "name": "role",
          "type": "bytes32"
        },
        {
          "internalType": "address",
          "name": "account",
          "type": "address"
        }
      ],
      "name": "revokeRole",
      "outputs": [],
      "stateMutability": "nonpayable",
      "type": "function"
    },
    {
      "inputs": [
        {
          "internalType": "uint256",
          "name": "_ethToVaraNonce",
          "type": "uint256"
        },
        {
          "internalType": "uint256",
          "name": "_varaToEthNonce",
          "type": "uint256"
        }
      ],
      "name": "setNonces",
      "outputs": [],
      "stateMutability": "nonpayable",
      "type": "function"
    },
    {
      "inputs": [
        {
          "internalType": "bytes32",
          "name": "signature",
          "type": "bytes32"
        },
        {
          "internalType": "bytes20",
          "name": "commitmentAggregated",
          "type": "bytes20"
        },
        {
          "internalType": "bytes20",
          "name": "commitmentSigners",
          "type": "bytes20"
        },
        {
          "internalType": "uint256[]",
          "name": "pubKeysIds",
          "type": "uint256[]"
        },
        {
          "internalType": "address",
          "name": "_previousContract",
          "type": "address"
        }
      ],
      "name": "setPreviousContract",
      "outputs": [],
      "stateMutability": "nonpayable",
      "type": "function"
    },
    {
      "inputs": [],
      "name": "signaturesThreshold",
      "outputs": [
        {
          "internalType": "uint8",
          "name": "",
          "type": "uint8"
        }
      ],
      "stateMutability": "view",
      "type": "function"
    },
    {
      "inputs": [
        {
          "components": [
            {
              "internalType": "address",
              "name": "sender",
              "type": "address"
            },
            {
              "internalType": "string",
              "name": "recipient",
              "type": "string"
            },
            {
              "internalType": "uint256",
              "name": "amount",
              "type": "uint256"
            },
            {
              "internalType": "uint256",
              "name": "nonceId",
              "type": "uint256"
            }
          ],
          "internalType": "struct Bridge.EthToVaraTransfer[]",
          "name": "transfers",
          "type": "tuple[]"
        }
      ],
      "name": "sortTransactionNonces",
      "outputs": [
        {
          "internalType": "uint256[]",
          "name": "",
          "type": "uint256[]"
        }
      ],
      "stateMutability": "pure",
      "type": "function"
    },
    {
      "inputs": [
        {
          "components": [
            {
              "internalType": "string",
              "name": "sender",
              "type": "string"
            },
            {
              "internalType": "address payable",
              "name": "recipient",
              "type": "address"
            },
            {
              "internalType": "uint256",
              "name": "amount",
              "type": "uint256"
            },
            {
              "internalType": "uint256",
              "name": "nonceId",
              "type": "uint256"
            }
          ],
          "internalType": "struct Bridge.VaraToEthTransfer[]",
          "name": "transfers",
          "type": "tuple[]"
        }
      ],
      "name": "sortTransactionNonces",
      "outputs": [
        {
          "internalType": "uint256[]",
          "name": "",
          "type": "uint256[]"
        }
      ],
      "stateMutability": "pure",
      "type": "function"
    },
    {
      "inputs": [
        {
          "internalType": "bytes32",
          "name": "signature",
          "type": "bytes32"
        },
        {
          "internalType": "bytes20",
          "name": "commitmentAggregated",
          "type": "bytes20"
        },
        {
          "internalType": "bytes20",
          "name": "commitmentSigners",
          "type": "bytes20"
        },
        {
          "internalType": "uint256[]",
          "name": "pubKeysIds",
          "type": "uint256[]"
        }
      ],
      "name": "startMigration",
      "outputs": [],
      "stateMutability": "nonpayable",
      "type": "function"
    },
    {
      "inputs": [
        {
          "internalType": "bytes4",
          "name": "interfaceId",
          "type": "bytes4"
        }
      ],
      "name": "supportsInterface",
      "outputs": [
        {
          "internalType": "bool",
          "name": "",
          "type": "bool"
        }
      ],
      "stateMutability": "view",
      "type": "function"
    },
    {
      "inputs": [
        {
          "internalType": "string",
          "name": "_recipient",
          "type": "string"
        },
        {
          "internalType": "uint256",
          "name": "_amount",
          "type": "uint256"
        }
      ],
      "name": "transitEthToVara",
      "outputs": [],
      "stateMutability": "payable",
      "type": "function"
    },
    {
      "inputs": [
        {
          "components": [
            {
              "internalType": "string",
              "name": "sender",
              "type": "string"
            },
            {
              "internalType": "address payable",
              "name": "recipient",
              "type": "address"
            },
            {
              "internalType": "uint256",
              "name": "amount",
              "type": "uint256"
            },
            {
              "internalType": "uint256",
              "name": "nonceId",
              "type": "uint256"
            }
          ],
          "internalType": "struct Bridge.VaraToEthTransfer[]",
          "name": "_varaToEthTransfers",
          "type": "tuple[]"
        },
        {
          "internalType": "bytes[]",
          "name": "signatures",
          "type": "bytes[]"
        },
        {
          "components": [
            {
              "internalType": "address",
              "name": "previousValidatorAddress",
              "type": "address"
            },
            {
              "internalType": "address",
              "name": "newValidatorAddress",
              "type": "address"
            },
            {
              "internalType": "bytes",
              "name": "signature",
              "type": "bytes"
            }
          ],
          "internalType": "struct Bridge.ValidatorKeyUpdate[]",
          "name": "validatorKeyUpdate",
          "type": "tuple[]"
        },
        {
          "internalType": "uint256",
          "name": "lastExecutedVaraNonceId",
          "type": "uint256"
        }
      ],
      "name": "transitVaraToEthBatch",
      "outputs": [],
      "stateMutability": "payable",
      "type": "function"
    },
    {
      "inputs": [
        {
          "internalType": "bytes32",
          "name": "signature",
          "type": "bytes32"
        },
        {
          "internalType": "bytes20",
          "name": "commitmentAggregated",
          "type": "bytes20"
        },
        {
          "internalType": "bytes20",
          "name": "commitmentSigners",
          "type": "bytes20"
        },
        {
          "internalType": "uint256[]",
          "name": "pubKeysIds",
          "type": "uint256[]"
        },
        {
          "internalType": "uint256",
          "name": "newFee",
          "type": "uint256"
        }
      ],
      "name": "updateFee",
      "outputs": [],
      "stateMutability": "nonpayable",
      "type": "function"
    },
    {
      "inputs": [
        {
          "internalType": "bytes32",
          "name": "signature",
          "type": "bytes32"
        },
        {
          "internalType": "bytes20",
          "name": "commitmentAggregated",
          "type": "bytes20"
        },
        {
          "internalType": "bytes20",
          "name": "commitmentSigners",
          "type": "bytes20"
        },
        {
          "internalType": "uint256[]",
          "name": "pubKeysIds",
          "type": "uint256[]"
        },
        {
          "internalType": "uint256",
          "name": "_minAmount",
          "type": "uint256"
        }
      ],
      "name": "updateMinAmount",
      "outputs": [],
      "stateMutability": "nonpayable",
      "type": "function"
    },
    {
      "inputs": [
        {
          "internalType": "bytes32",
          "name": "signature",
          "type": "bytes32"
        },
        {
          "internalType": "bytes20",
          "name": "commitmentAggregated",
          "type": "bytes20"
        },
        {
          "internalType": "bytes20",
          "name": "commitmentSigners",
          "type": "bytes20"
        },
        {
          "internalType": "uint256[]",
          "name": "pubKeysIds",
          "type": "uint256[]"
        },
        {
          "internalType": "uint8",
          "name": "_minValidatorsRequired",
          "type": "uint8"
        }
      ],
      "name": "updateMinValidatorsRequired",
      "outputs": [],
      "stateMutability": "nonpayable",
      "type": "function"
    },
    {
      "inputs": [
        {
          "internalType": "bytes32",
          "name": "signature",
          "type": "bytes32"
        },
        {
          "internalType": "bytes20",
          "name": "commitmentAggregated",
          "type": "bytes20"
        },
        {
          "internalType": "bytes20",
          "name": "commitmentSigners",
          "type": "bytes20"
        },
        {
          "internalType": "uint256[]",
          "name": "pubKeysIds",
          "type": "uint256[]"
        },
        {
          "internalType": "uint8",
          "name": "_newThreshold",
          "type": "uint8"
        }
      ],
      "name": "updateSignaturesThreshold",
      "outputs": [],
      "stateMutability": "nonpayable",
      "type": "function"
    },
    {
      "inputs": [
        {
          "internalType": "bytes32",
          "name": "signature",
          "type": "bytes32"
        },
        {
          "internalType": "bytes20",
          "name": "commitmentAggregated",
          "type": "bytes20"
        },
        {
          "internalType": "bytes20",
          "name": "commitmentSigners",
          "type": "bytes20"
        },
        {
          "internalType": "uint256[]",
          "name": "pubKeysIds",
          "type": "uint256[]"
        },
        {
          "components": [
            {
              "internalType": "address",
              "name": "previousValidatorAddress",
              "type": "address"
            },
            {
              "internalType": "address",
              "name": "newValidatorAddress",
              "type": "address"
            }
          ],
          "internalType": "struct Bridge.ValidatorKeyUpdateByAutority[]",
          "name": "validatorKeyUpdate",
          "type": "tuple[]"
        }
      ],
      "name": "updateValidatorKeysByAuthority",
      "outputs": [],
      "stateMutability": "nonpayable",
      "type": "function"
    },
    {
      "inputs": [
        {
          "internalType": "address",
          "name": "",
          "type": "address"
        }
      ],
      "name": "validatorIndices",
      "outputs": [
        {
          "internalType": "uint256",
          "name": "",
          "type": "uint256"
        }
      ],
      "stateMutability": "view",
      "type": "function"
    },
    {
      "inputs": [
        {
          "internalType": "uint256",
          "name": "",
          "type": "uint256"
        }
      ],
      "name": "validatorPublicKeysArray",
      "outputs": [
        {
          "internalType": "address",
          "name": "",
          "type": "address"
        }
      ],
      "stateMutability": "view",
      "type": "function"
    },
    {
      "inputs": [],
      "name": "varaToEthNonce",
      "outputs": [
        {
          "internalType": "uint256",
          "name": "",
          "type": "uint256"
        }
      ],
      "stateMutability": "view",
      "type": "function"
    },
    {
      "inputs": [
        {
          "internalType": "address payable",
          "name": "_to",
          "type": "address"
        },
        {
          "internalType": "uint256",
          "name": "_amount",
          "type": "uint256"
        },
        {
          "internalType": "bytes32",
          "name": "signature",
          "type": "bytes32"
        },
        {
          "internalType": "bytes20",
          "name": "commitmentAggregated",
          "type": "bytes20"
        },
        {
          "internalType": "bytes20",
          "name": "commitmentSigners",
          "type": "bytes20"
        },
        {
          "internalType": "uint256[]",
          "name": "pubKeysIds",
          "type": "uint256[]"
        }
      ],
      "name": "withdrawEther",
      "outputs": [],
      "stateMutability": "nonpayable",
      "type": "function"
    },
    {
      "stateMutability": "payable",
      "type": "receive"
    }
  ],
  "bytecode": "0x60406080815234620003c357620051a3803803806200001e816200041a565b92833981019061012081830312620003c35780516020916200004283820162000440565b858201519260608301519460808401519660018060401b0397888111620003c35785019781601f8a011215620003c3578851986200008a620000848b6200044f565b6200041a565b9984808c838152019160061b83010191848311620003c3578501905b828210620003c85750505060a0860151818111620003c35782620000cc91880162000467565b9160c0870151918211620003c357620000e791870162000467565b90610100620000f960e0880162000440565b96015198891515809a03620003c3576001958680556002549060ff81168015620003b257835181811062000395575050918793929161ff00859360081b169061ffff1916176002556000915b620002d0575b505060049485556000825b62000295575b50506000905b620001a1575b505050505060ff16600e55600f5560075560ff1960ff81600954169216809217600955600254161760025551614adf9081620006c48239f35b81518110156200028f576001600160a01b03620001cc81620001c48486620004d6565b5116620005f0565b6200026a5780620001de8385620004d6565b511690600d90815468010000000000000000811015620002555780896200020892018455620005d4565b819291549060031b9185831b921b19161790555490600019820191821162000240576000908152600c85528b90205584018462000162565b601186634e487b7160e01b6000525260246000fd5b604188634e487b7160e01b6000525260246000fd5b8a906200027b8693602495620004d6565b5116905191634c97322f60e11b8352820152fd5b62000168565b8151811015620002ca578290620002c16001600160a01b03620002b98386620004d6565b511662000521565b50018262000156565b6200015c565b90919281518310156200038d5750620002f5620002ee8383620004d6565b5162000650565b156200037c57620003078282620004d6565b51600580546801000000000000000081101562000366576200032e918a8201905562000501565b9390936200035057889384888482955184550151910155019082939262000145565b634e487b7160e01b600052600060045260246000fd5b634e487b7160e01b600052604160045260246000fd5b8b51630183440360e51b8152600490fd5b92916200014b565b604492508e51916340bc829560e01b835260048301526024820152fd5b8d5163f5502a4560e01b8152600490fd5b600080fd5b8c82860312620003c3578c868192620003e0620003fa565b8551815282860151838201528152019201919050620000a6565b60408051919082016001600160401b038111838210176200036657604052565b6040519190601f01601f191682016001600160401b038111838210176200036657604052565b519060ff82168203620003c357565b6001600160401b038111620003665760051b60200190565b9080601f83011215620003c3578151906020916200048962000084826200044f565b9360208086848152019260051b820101928311620003c357602001905b828210620004b5575050505090565b81516001600160a01b0381168103620003c3578152908301908301620004a6565b8051821015620004eb5760209160051b010190565b634e487b7160e01b600052603260045260246000fd5b600554811015620004eb57600560005260206000209060011b0190600090565b6001600160a01b031660008181527f329977736520969c9868a184f64244da927a0462c6cb802bad0ae0d6d568ac8260205260408120549091907f5358bcfd81d1ef3da152b1755e1c3c6739686fa7e83dbcad0071568cc4b73a639060ff16620005cf57808352826020526040832082845260205260408320600160ff198254161790557f2f8788117e7eff1d82e926ec794901d17c78024a50270940304540a733656f0d339380a4600190565b505090565b600d54811015620004eb57600d60005260206000200190600090565b600d5490811562000649576001600160a01b039081166000818152600c6020526040902054928310929091908362000629575b50505090565b6200063791929350620005d4565b90549060031b1c161438808062000623565b5050600090565b60008091600554925b8381106200066a5750505050600190565b620006758162000501565b5062000680620003fa565b906001815491828452015490816020809401528451149182620006b5575b5050620006ae5760010162000659565b5050905090565b84015114905038806200069e56fe6080806040526004361015610059575b50361561001b57600080fd5b610028601254349061388d565b6012556040513481527f88a5966d370b9919b20f3e2c13ff65706f196a4e32cc2c12bf57088f8852587460203392a2005b60003560e01c90816301ffc9a714612efc57508063088304f214612df457806309266f3f14612d6a5780630e2bfe4614612d30578063107981c614612d1c5780631513f238146129f157806315c5a10014612324578063248a9ca3146122f55780632f2ff15d146122b65780632f3f16d71461224757806336568abe1461220057806339ce73c7146121dc5780633af589a1146120705780633eb27d8314611f4d57806341dfe81b14611c805780634460032d14611ab15780634871a02d14611a775780634e6630b014611a595780635b4d90b0146119c557806360b71d4e146119a757806360dda9a21461191257806363fd9d16146114125780636b476d53146118d55780636e76fc8f146118ac578063773f27d31461186a57806378308bae146116cf57806378954b3b146116a25780637987df171461166a5780637aed6113146114e65780638ccc5c73146114305780638e9246441461141257806391ce0ee6146113cb57806391d148541461137e578063932a780a146112cc57806397198e50146111d45780639a5bd5a7146111a15780639b2cb5d8146111835780639cef2828146111655780639d8bf8e114610fcf578063a217fddf14610fb3578063a4b532c114610f09578063a569cca214610ecf578063aa2565c614610dd2578063b1ec697a14610e13578063b9ea04c714610df0578063be347c4d14610dd2578063c78386ff14610cfd578063cc5858da14610c6b578063d0b556d014610ba0578063d535475114610ae9578063d547741f14610aaa578063d6a20772146109d6578063db33c1ad14610910578063ddca3f43146108f2578063dfaff18f146108d4578063e2749c96146108b1578063e88fc4ee146107a4578063eca530fb1461067c578063f12909e9146103d7578063f570bb36146103b9578063f9c7fac4146103425763facd743b14610310573861000f565b3461033d57602036600319011261033d57602061033361032e61311e565b613d8e565b6040519015158152f35b600080fd5b3461033d57600036600319011261033d5760025460ff81166103a757336000908152600080516020614a6a833981519152602052604090205460ff161561038f5760ff1916600117600255005b60405163dcd2f7d960e01b8152336004820152602490fd5b604051630dac66fb60e21b8152600490fd5b3461033d57600036600319011261033d576020600454604051908152f35b3461033d576103e5366131cb565b60095460ff81161561066a5760081c6001600160a01b031633819003610647575080511561063557610416816137e2565b60015b81518110156104855761042c81836137c1565b51600019820182811161046f5761044390846137c1565b51906001820180921161046f570361045d57600101610419565b60405163285609df60e21b8152600490fd5b634e487b7160e01b600052601160045260246000fd5b8260005b81518110156106335761049c81836137c1565b5160606104a983856137c1565b5101516000908152601160209081526040909120825181546001600160a01b0319166001600160a01b0391909116178155908201518051919291906001600160401b03821161061d576104ff6001850154613447565b90601f918281116105e0575b50602091831160011461056a579261054583600394606094600199989760009261055f575b50508160011b916000199060031b1c19161790565b868501555b60408101516002850155015191015501610489565b015190508a80610530565b906001850160005260206000209160005b601f19851681106105c85750836060936001989796938993600397601f198116106105b0575b505050811b018685015561054a565b015160001983881b60f8161c191690558980806105a1565b9192602060018192868501518155019401920161057b565b61060e90600187016000526020600020600585808801821c83019360208910610614575b01901c019061389a565b8761050b565b93508293610604565b634e487b7160e01b600052604160045260246000fd5b005b604051637364795760e01b8152600490fd5b604051637c560e0d60e01b815290819061066690339060048401613b0a565b0390fd5b604051631e8a0cbf60e11b8152600490fd5b3461033d5761068a36613723565b92939160025460ff8116156107925760ff83519160081c1680911061077a57506106b382613de2565b156107685760ff8416948515610756576106fc93600354956106e66106f46004546040519283918b602084019687613d75565b03601f198101835282612fe9565b5190206143aa565b156107125761070a90613787565b600355600e55005b60405163fafcac4560e01b815260206004820152601b60248201527a1d5c19185d19535a5b95985b1a59185d1bdc9cd4995c5d5a5c9959602a1b6044820152606490fd5b604051631f2a200560e01b8152600490fd5b60405163b3c0a9b960e01b8152600490fd5b60249060405190632136f15560e21b82526004820152fd5b6040516373f3887560e11b8152600490fd5b3461033d576107b236613723565b92939160025460ff8116156107925760ff83519160081c1680911061077a57506107db82613de2565b156107685760ff841694851561089f5760055480961161088657906108199291600354946004546040516106f4816106e660208201948b8d87613d75565b156108445761082790613787565b60035561ff006002549160081b169061ff00191617600255600080f35b60405163fafcac4560e01b81526020600482015260196024820152781d5c19185d1954da59db985d1d5c995cd51a1c995cda1bdb19603a1b6044820152606490fd5b60405163271bdf8160e21b815260048101879052602490fd5b60405163831761d760e01b8152600490fd5b3461033d57600036600319011261033d57602060ff600254166040519015158152f35b3461033d57600036600319011261033d576020600354604051908152f35b3461033d57600036600319011261033d576020600754604051908152f35b3461033d5761091e36613083565b8093929193516002549060ff8260081c1680911061077a575060ff16156107925761094881613de2565b15610768576009549360ff85161561066a5761099b92600354946004546040516106f48160208101936060855261098160808301613d56565b908b6040840152606083015203601f198101835282612fe9565b156109b5576109a990613787565b60035560ff1916600955005b60405163fafcac4560e01b8152602060048201528061066660248201613d56565b3461033d576109e436613083565b809291925160ff60025460081c1680911061077a5750610a0381613de2565b15610768576002549260ff8416610a9857610a5592600354956004546040516106f481602081019360608552610a3b60808301613d2e565b908c6040840152606083015203601f198101835282612fe9565b15610a77576001820180921161046f5760039190915560ff1916600117600255005b60405163fafcac4560e01b8152602060048201528061066660248201613d2e565b604051630eff07c160e21b8152600490fd5b3461033d57604036600319011261033d57610633600435610ac9613134565b90806000526000602052610ae46001604060002001546141ab565b614347565b3461033d57610af73661356e565b929160025460ff8116156107925760ff83519160081c1680911061077a5750610b1f82613de2565b1561076857610b4692600354956004546040516106f4816106e660208201948c8c876139db565b15610b5f57610b5761063392613787565b6003556142d2565b60405163fafcac4560e01b81526020600482015260186024820152777265766f6b65456d657267656e637941646d696e526f6c6560401b6044820152606490fd5b3461033d57604036600319011261033d57610bb9613134565b610bc46004356135d8565b506001600160a01b0390604090610bda90613796565b20163303610c535760ff60025416156107925760ff600954161561066a5760008091600b5482600a54604051906020820193637987df1760e01b85526024830152604482015260448152610c2d81612f7d565b51925af1610c396139ab565b5015610c4157005b604051637b26f61560e01b8152600490fd5b604051639e066db160e01b8152336004820152602490fd5b3461033d57600036600319011261033d57604051600d80548083526000918252602080840193927fd7b6990105719101dabeb77144f2a3385c8033acd3af97e9423a695e81ad1eb592915b828210610cdd57610cd985610ccd81890382612fe9565b604051918291826130d9565b0390f35b83546001600160a01b031686529485019460019384019390910190610cb6565b3461033d57610d0b3661356e565b92819492915160ff60025460081c1680911061077a5750610d2b85613de2565b15610768576009549460ff86161561066a57610d6b92610d659260035495876106e66106f46004546040519283918c6020840196876139db565b91613787565b60035515610d9657610100600160a81b031990911660089190911b610100600160a81b031617600955005b60405163fafcac4560e01b81526020600482015260136024820152721cd95d141c995d9a5bdd5cd0dbdb9d1c9858dd606a1b6044820152606490fd5b3461033d57600036600319011261033d576020600a54604051908152f35b3461033d57600036600319011261033d57602060ff600954166040519015158152f35b3461033d57610e213661363e565b939291815160ff60025460081c1680911061077a5750610e4082613de2565b1561076857610e6c92600354946004546040516106f481602081019360608552610981608083016145c1565b15610eae577f8c4d35e54a3f2ef1134138fd8ea3daee6a3c89e10d2665996babdf70261e2c7691610e9e602092613787565b60035580600755604051908152a1005b60405163fafcac4560e01b81526020600482015280610666602482016145c1565b3461033d57602036600319011261033d576004356001600160401b03811161033d57610333610f0460209236906004016131b0565b613b98565b3461033d57600036600319011261033d57600554610f268161300c565b610f336040519182612fe9565b81815260209081810192836005600052836000206000915b838310610f965760408051878152865181890181905289928201908960005b828110610f775784840385f35b8551805185528201518483015294810194604090930192600101610f6a565b600286600192610fa585613796565b815201920192019190610f4b565b3461033d57600036600319011261033d57602060405160008152f35b3461033d57610fdd3661363e565b919060025460ff8116156107925760ff82519160081c1680911061077a575061100581613de2565b1561076857600554600019948582019391841161046f578385116111535760ff60025460081c169687851061113a57906110599392916003546106e66106f460045460405192839160208301958d87613b24565b156110f95761106a611071916135d8565b50916135d8565b9190916110b9578082036110e5575b505061108d600354613787565b60035560055480156110cf57016110a3816135d8565b6110b95760018160008093550155600555600080f35b634e487b7160e01b600052600060045260246000fd5b634e487b7160e01b600052603160045260246000fd5b600181819254845501549101558180611080565b60405163fafcac4560e01b815260206004820152601860248201527772656d6f7665436f6e666967417574686f726974794b657960401b6044820152606490fd5b6040516301ebd43b60e01b815260048101899052602490fd5b604051634e23d03560e01b8152600490fd5b3461033d57600036600319011261033d576020600e54604051908152f35b3461033d57600036600319011261033d576020600f54604051908152f35b3461033d57604036600319011261033d5760206103336040516111c381612fb3565b600435815260243583820152613b3a565b3461033d576111e236613628565b8181106112ad57816111f3916137d5565b906001916001810180911161046f5761120b8161393c565b9160005b82811061123b5761123184600a54604051928392604084526040840190613698565b9060208301520390f35b8061124786928461388d565b600052602060118152600360406000206040519261126484612f7d565b81546001600160a01b0316845261127c868301613481565b90840152600281015460408401520154606082015261129b82876137c1565b526112a681866137c1565b500161120f565b6040516325a4ff8960e21b815260048101929092526024820152604490fd5b3461033d576112da3661363e565b93929160025460ff8116156107925760ff83519160081c1680911061077a575061130382613de2565b156107685784156107565761133092600354946004546040516106f4816106e660208201948b8d87613b24565b156113465761133e90613787565b600355600f55005b60405163fafcac4560e01b815260206004820152600f60248201526e1d5c19185d19535a5b905b5bdd5b9d608a1b6044820152606490fd5b3461033d57604036600319011261033d57611397613134565b600435600052600060205260406000209060018060a01b0316600052602052602060ff604060002054166040519015158152f35b3461033d57602036600319011261033d576004356001600160401b03811161033d57611406611401610cd99236906004016132f7565b6137e2565b604051918291826132bb565b3461033d57600036600319011261033d576020600b54604051908152f35b3461033d5761143e3661356e565b929160025460ff8116156107925760ff83519160081c1680911061077a575061146682613de2565b156107685761148d92600354956004546040516106f4816106e660208201948c8c876139db565b156114a65761149e61063392613787565b6003556141ef565b60405163fafcac4560e01b81526020600482015260176024820152766772616e74456d657267656e637941646d696e526f6c6560481b6044820152606490fd5b3461033d576114f43661356e565b939260029291925460ff8116156107925760ff84519160081c1680911061077a575061151f83613de2565b156107685761152d85613d8e565b1561164a57906115569291600354946004546040516106f4816106e660208201948b8d876139db565b156116125761156490613787565b6003556001600160a01b039081166000818152600c6020526040902054600d5460001992919083810190811161046f5761159e859161360d565b90549060031b1c166115d1816115b38461360d565b90919060018060a01b038084549260031b9316831b921b1916179055565b600052600c60205260406000205560005260006040812055600d5480156110cf5701906115fd8261360d565b909182549160031b1b19169055600d55600080f35b60405163fafcac4560e01b815260206004820152600f60248201526e3932b6b7bb32ab30b634b230ba37b960891b6044820152606490fd5b604051624f1c9d60e41b81526001600160a01b0386166004820152602490fd5b3461033d5761167836613628565b9060095460ff81161561066a5760081c6001600160a01b0316338190036106475750600b55600a55005b3461033d57600036600319011261033d5760095460405160089190911c6001600160a01b03168152602090f35b3461033d5760c036600319011261033d576116e8612f4f565b6116f0612f66565b6064356001600160401b03811161033d5761170f903690600401613023565b91604036608319011261033d576040519161172983612fb3565b6084358352602083019360a435855260025460ff8116156107925760ff82519160081c1680911061077a575061175e81613de2565b156107685761176c84613b3a565b156118585761177a8461459f565b15611846576117c2916003549360045460405190602082019088518252895160408401528760608401526080830152608082526117b682612fce565b600435915190206143aa565b15611808576117d090613787565b600355600554600160401b81101561061d578060016117f292016005556135d8565b9290926110b95760019151835551910155600080f35b60405163fafcac4560e01b8152602060048201526015602482015274616464436f6e666967417574686f726974794b657960581b6044820152606490fd5b60405163a3d28e1360e01b8152600490fd5b604051630183440360e51b8152600490fd5b3461033d57602036600319011261033d57600435600d5481101561033d5761189360209161360d565b905460405160039290921b1c6001600160a01b03168152f35b3461033d57600036600319011261033d576020604051600080516020614a8a8339815191528152f35b3461033d57602036600319011261033d5760043560055481101561033d576118fe6040916135d8565b506001815491015482519182526020820152f35b3461033d5761192036613083565b90815160ff60025460081c1680911061077a575061193d82613de2565b156107685761196992600354946004546040516106f48160208101936060855261098160808301613ae0565b156119865761197790613787565b6003556002805460ff19169055005b60405163fafcac4560e01b8152602060048201528061066660248201613ae0565b3461033d57600036600319011261033d576020600854604051908152f35b3461033d57604036600319011261033d57611a096119e1613134565b6119e9614025565b6119f46004356135d8565b506001600160a01b0392839160409190613796565b20163303610c535760ff600954161561066a57166000808080601254855af1611a306139ab565b5015611a4157600060125560018055005b602490604051906307b84a4f60e21b82526004820152fd5b3461033d57600036600319011261033d576020601254604051908152f35b3461033d57602036600319011261033d576004356001600160401b03811161033d57610333611aac60209236906004016133c8565b6139f9565b3461033d5760c036600319011261033d57611aca61311e565b6024356064356001600160601b0319808216820361033d57608435908116810361033d5760a4356001600160401b03811161033d57611b0d903690600401613023565b9060ff60095416611c6e57815160ff60025460081c1680911061077a5750611b3482613de2565b1561076857600854808511611c50575090611b9091600354936004549660405190602082019060018060a01b031698898252886040840152876060840152608083015260808252611b8482612fce565b604435915190206143aa565b15611c1a57611b9e90613787565b600355600081838115611c10575b600092839283928392f115611bf757602081611beb7f06097061aeda806b5e9cb4133d9899f332ff0913956567fc0f7ea15e3d19947c936008546137d5565b600855604051908152a2005b6040516307b84a4f60e21b815260048101839052602490fd5b6108fc9250611bac565b60405163fafcac4560e01b815260206004820152600d60248201526c2bb4ba34323930bba2ba3432b960991b6044820152606490fd5b604490856040519163ac43566760e01b835260048301526024820152fd5b604051638e31308160e01b8152600490fd5b3461033d5760a036600319011261033d57611c99612f4f565b611ca1612f66565b6001600160401b0360643581811161033d57611cc1903690600401613023565b9060843590811161033d573660238201121561033d578060040135602494611ce88261300c565b93611cf66040519586612fe9565b8285526020938486019088829560061b8201019036821161033d578901915b818310611f0f5750505060ff60095416611c6e5760025460ff8116156107925760ff82519160081c16809110611ef85750611d4f81613de2565b156107685760005b8551811015611dd7576001600160a01b0380611d7383896137c1565b515116611d7f81613d8e565b15611dc1575085611d9083896137c1565b51015116611d9d81613d8e565b611daa5750600101611d57565b889060405190634c97322f60e11b82526004820152fd5b899060405190624f1c9d60e41b82526004820152fd5b50600354600454604051606087820190815288516080830181905260a083019a94978c97949160005b818110611eca575050508288999a9b6117b692611e30999a6040840152606083015203601f198101845283612fe9565b15611e865750611e3f90613787565b60035560005b825181101561063357600190611e806001600160a01b0380611e6784886137c1565b5151169085611e7685896137c1565b510151169061455c565b01611e45565b82601e6064926040519263fafcac4560e01b845260048401528201527f75706461746556616c696461746f724b6579734279417574686f7269747900006044820152fd5b90919c8b60408f926001935183858060a01b039182815116845201511683820152019e019101919091611e00565b879060405190632136f15560e21b82526004820152fd5b60408336031261033d57866040918251611f2881612fb3565b611f318661314a565b8152611f3e83870161314a565b83820152815201920191611d15565b3461033d57611f5b3661356e565b939260029291925460ff8116156107925760ff84519160081c1680911061077a5750611f8683613de2565b1561076857611f9485613d8e565b61204f5790611fbc9291600354946004546040516106f4816106e660208201948b8d876139db565b1561201a57611fca90613787565b600355600d54600160401b81101561061d57816115b3826001611ff09401600d5561360d565b600d5460001981019190821161046f576001600160a01b03166000908152600c6020526040902055005b60405163fafcac4560e01b815260206004820152600c60248201526b30b2322b30b634b230ba37b960a11b6044820152606490fd5b604051634c97322f60e11b81526001600160a01b0386166004820152602490fd5b3461033d57608036600319011261033d576120b261208c613134565b60443560643561209d6004356135d8565b506001600160a01b0394859160409190613796565b20163303610c535760ff600954161561066a5780156121ca576120de6120d8828461388d565b9161393c565b9160005b82821061211957600080868682604051610c2d816106e6602082019563f12909e960e01b8752602060248401526044830190613698565b816000526011906020908282526040600020916002928984820154159182156121be575b50506121ac5760036121a4936001958760005283526040600020906040519361216585612f7d565b8c8354168552612176888401613481565b9085015281015460408401520154606082015261219382886137c1565b5261219e81876137c1565b50613787565b9101906120e2565b60405163c704880760e01b8152600490fd5b5416159050898b61213d565b6040516301d71e9560e31b8152600490fd5b3461033d57600036600319011261033d57602060ff60025460081c16604051908152f35b3461033d57604036600319011261033d57612219613134565b336001600160a01b038216036122355761063390600435614347565b60405163334bd91960e11b8152600490fd5b3461033d57602036600319011261033d57600435600090815260116020526040902080546001600160a01b031661228060018301613481565b91600360028201549101546122a76040519485948552608060208601526080850190613549565b91604084015260608301520390f35b3461033d57604036600319011261033d576106336004356122d5613134565b908060005260006020526122f06001604060002001546141ab565b61426b565b3461033d57602036600319011261033d5760043560005260006020526020600160406000200154604051908152f35b608036600319011261033d576001600160401b0360043581811161033d576123509036906004016132f7565b90602490813581811161033d5761236b9036906004016133c8565b6044359282841161033d573660238501121561033d578360040135936123908561300c565b9461239e6040519687612fe9565b808652602094838688019260051b8401019236841161033d57848101925b84841061297f575050505050606435906123d4614025565b600260ff60025416610a985760ff60095416611c6e576123f3846139f9565b1561296d578692856124986124a7603c60045460405190612440828781019261242660609d6060865260808401906138b1565b908a6040840152606083015203601f198101845283612fe9565b61244a8251614048565b91604051958693612489898601997b0ca2ba3432b932bab69029b4b3b732b21026b2b9b9b0b3b29d05199960211b8b5282519283918989019101613526565b84019151809386840190613526565b0103601c810184520182612fe9565b5190209760009660005b87518110156124ff576124de61032e6124d58d6124ce858d6137c1565b51906145dd565b90929192614619565b6124eb575b6001016124b1565b976124f7600191613787565b9890506124e3565b508888600e54809110612956575080519060005b82811061280f575050508151156106355761252d826137e2565b9360015b855181101561258a5761254481876137c1565b5160001982018281116125755761255b90886137c1565b519060018201809211612575570361045d57600101612531565b88634e487b7160e01b60005260116004526000fd5b50868695612597816137b4565b5192815191600019928381019081116127fa576125b3916137c1565b5196600a94600a546125c48161387f565b82116127d457505060005b87518110156126c857846125e3828a6137c1565b5101518654106125f6575b6001016125cf565b6040612602828a6137c1565b510151601290815480911161269c5761262a906040612621858d6137c1565b510151906137d5565b90558660008080808c60406126568860018060a01b03809961264c83876137c1565b51015116936137c1565b51015190828215612693575bf11561266e57506125ee565b8761267a8c938b6137c1565b5101516040516307b84a4f60e21b815291166004820152fd5b506108fc612662565b8b60449160406126ac868e6137c1565b5101519160405192634787a10360e11b84526004840152820152fd5b5086868a928a600a5481116127cb575b505b600081815260118352604090208581018054156127ae5781600060039281809555600183016127098154613447565b9081612771575b5050550155801561273d5780156127285785016126da565b83634e487b7160e01b60005260116004526000fd5b5091509150600080516020614a0a83398151915292505b6127686040519282849384528301906138b1565b0390a160018055005b8391601f80821160011461278a575050555b8b80612710565b916127a78492938284528c8420940160051c84016001850161389a565b5555612783565b50505091509150600080516020614a0a8339815191529250612754565b600a55866126d8565b6044916127e18c9261387f565b91604051926388ae73e960e01b84526004840152820152fd5b89634e487b7160e01b60005260116004526000fd5b6001600160a01b038061282283856137c1565b515116818661283185876137c1565b510151169161283f82613d8e565b1561293f5761284d83613d8e565b61292757816128ef916128e66040518a81018781528b825261286e82612fb3565b6128ce8c61287c8451614048565b936040519384916128bf84840197790ca2ba3432b932bab69029b4b3b732b21026b2b9b9b0b3b29d0560311b8952612489603a9682519283918989019101613526565b0103601a810184520182612fe9565b51902060406128dd898b6137c1565b510151906145dd565b90949194614619565b82160361290a5750600192916129049161455c565b01612513565b604051638a2b940560e01b81529182916106669160048401613b0a565b604051634c97322f60e11b8152600481018490528b90fd5b604051624f1c9d60e41b8152600481018390528b90fd5b869060405190635c53597d60e01b82526004820152fd5b60405163dd5ca74b60e01b8152600490fd5b833583811161033d5782016060602319823603011261033d57604051916129a583612f98565b6129b088830161314a565b83526129be6044830161314a565b8a84015260648201359285841161033d576129e18b94938a8695369201016131b0565b60408201528152019301926123bc565b604036600319011261033d576001600160401b0360043581811161033d573660238201121561033d578181600401351161033d576024368183600401358401011161033d5760ff60025416610a985760ff60095416611c6e57612a5e610f04368460040135848601613179565b15612cf157600f5480823510612cd35750600754612a7d82358261388d565b3403612cab57612a8f9060085461388d565b600855612a9d600b54613787565b80600b55604051612aad81612f7d565b338152612ac1368560040135858701613179565b90602081019182528335604082015282606082015282600052601160205260406000209160018060a01b0382511660018060a01b031984541617835551958651908111612c9657612b156001840154613447565b601f8111612c56575b506020601f8211600114612bcd57612bb19695949392612b6a83600394606094600080516020614a2a8339815191529c600092612bc25750508160011b916000199060031b1c19161790565b60018501555b604081015160028501550151910155612b8c823560125461388d565b601255604051938493338552608060208601526080850190848160040135910161385e565b9135604084015260608301520390a1005b015190508c80610530565b6001840160005260206000209760005b601f1984168110612c3e575092600183600080516020614a2a8339815191529a606094612bb19b9a999897600397601f19811610612c26575b505050811b016001850155612b70565b015160001983881b60f8161c191690558b8080612c16565b828201518a5560019099019860209283019201612bdd565b612c8690600185016000526020600020601f840160051c81019160208510612c8c575b601f0160051c019061389a565b87612b1e565b9091508190612c79565b84634e487b7160e01b60005260416004526000fd5b90612cba60449282359061388d565b60405163a458261b60e01b815234600482015291820152fd5b60405163022d9c0560e11b8152823560048201529182015260449150fd5b90610666604051928392638965a38960e01b845260206004850152818401918160040135910161385e565b3461033d57610cd9611406611401366131cb565b3461033d57602036600319011261033d576001600160a01b03612d5161311e565b16600052600c6020526020604060002054604051908152f35b3461033d57600036600319011261033d57600554612d878161300c565b90612d956040519283612fe9565b808252601f19612da48261300c565b0136602084013760005b818110612dc35760405180610cd985826130d9565b80612dcf6001926135d8565b506040612de1848060a01b0392613796565b2016612ded82866137c1565b5201612dae565b3461033d57612e0236613083565b9060ff60099493945416611c6e5760025460ff8116156107925760ff83519160081c1680911061077a5750612e3682613de2565b1561076857600354936004549360405194602086019060608252600f60808801526e1b5a59dc985d1950dbdb9d1c9858dd608a1b60a0880152876040880152606087015260a0865260c086019580871060018060401b0388111761061d57612ea3966040525190206143aa565b15612ec357612eb190613787565b6003556009805460ff19166001179055005b60405163fafcac4560e01b815260206004820152601060248201526f135a59dc985d194818dbdb9d1c9858dd60821b6044820152606490fd5b3461033d57602036600319011261033d576004359063ffffffff60e01b821680920361033d57602091637965db0b60e01b8114908115612f3e575b5015158152f35b6301ffc9a760e01b14905083612f37565b602435906001600160601b03198216820361033d57565b604435906001600160601b03198216820361033d57565b608081019081106001600160401b0382111761061d57604052565b606081019081106001600160401b0382111761061d57604052565b604081019081106001600160401b0382111761061d57604052565b60a081019081106001600160401b0382111761061d57604052565b601f909101601f19168101906001600160401b0382119082101761061d57604052565b6001600160401b03811161061d5760051b60200190565b9080601f8301121561033d57602090823561303d8161300c565b9361304b6040519586612fe9565b81855260208086019260051b82010192831161033d57602001905b828210613074575050505090565b81358152908301908301613066565b90608060031983011261033d57600435916001600160601b031991602435838116810361033d5792604435908116810361033d5791606435906001600160401b03821161033d576130d691600401613023565b90565b602090602060408183019282815285518094520193019160005b828110613101575050505090565b83516001600160a01b0316855293810193928101926001016130f3565b600435906001600160a01b038216820361033d57565b602435906001600160a01b038216820361033d57565b35906001600160a01b038216820361033d57565b6001600160401b03811161061d57601f01601f191660200190565b9291926131858261315e565b916131936040519384612fe9565b82948184528183011161033d578281602093846000960137010152565b9080601f8301121561033d578160206130d693359101613179565b60208060031983011261033d576001600160401b03916004359083821161033d578060238301121561033d5781600401356024946132088261300c565b9560406132186040519889612fe9565b8388526024602089019460051b8701019585871161033d5760248101945b8786106132495750505050505050505090565b853585811161033d5782016080818903602319011261033d5783519161326e83612f7d565b61327986830161314a565b835260448201359287841161033d5760848361329c8c8f978b90899801016131b0565b8584015260648101358884015201356060820152815201950194613236565b602090602060408183019282815285518094520193019160005b8281106132e3575050505090565b8351855293810193928101926001016132d5565b9080601f8301121561033d578135916020916133128461300c565b936040926133236040519687612fe9565b818652848087019260051b8201019383851161033d57858201925b85841061334f575050505050505090565b6001600160401b03843581811161033d5784019160809283601f19828a03011261033d5784519061337f82612f7d565b8a81013593841161033d578a9461339b8a8780978501016131b0565b83526133a887830161314a565b85840152606091828101358885015201359082015281520193019261333e565b81601f8201121561033d578035916020916133e28461300c565b936133f06040519586612fe9565b808552838086019160051b8301019280841161033d57848301915b84831061341b5750505050505090565b82356001600160401b03811161033d57869161343c848480948901016131b0565b81520192019161340b565b90600182811c92168015613477575b602083101461346157565b634e487b7160e01b600052602260045260246000fd5b91607f1691613456565b9060405191826000825461349481613447565b9081845260209460019160018116908160001461350457506001146134c5575b5050506134c392500383612fe9565b565b600090815285812095935091905b8183106134ec5750506134c393508201013880806134b4565b855488840185015294850194879450918301916134d3565b925050506134c394925060ff191682840152151560051b8201013880806134b4565b60005b8381106135395750506000910152565b8181015183820152602001613529565b9060209161356281518092818552858086019101613526565b601f01601f1916010190565b9060a060031983011261033d57600435916001600160601b031991602435838116810361033d5792604435908116810361033d5791606435906001600160401b03821161033d576135c191600401613023565b906084356001600160a01b038116810361033d5790565b6005548110156135f757600560005260206000209060011b0190600090565b634e487b7160e01b600052603260045260246000fd5b600d548110156135f757600d60005260206000200190600090565b604090600319011261033d576004359060243590565b9060a060031983011261033d57600435916001600160601b031991602435838116810361033d5792604435908116810361033d5791606435906001600160401b03821161033d5761369191600401613023565b9060843590565b908082519081815260208091019281808460051b8301019501936000915b8483106136c65750505050505090565b9091929394958480600192601f198582030186528951906136ff6080868060a01b03845116835284840151908086850152830190613549565b916040808201519083015260608091015191015298019301930191949392906136b6565b9060a060031983011261033d57600435916001600160601b031991602435838116810361033d5792604435908116810361033d5791606435906001600160401b03821161033d5761377691600401613023565b9060843560ff8116810361033d5790565b600019811461046f5760010190565b906040516137a381612fb3565b602060018294805484520154910152565b8051156135f75760200190565b80518210156135f75760209160051b010190565b9190820391821161046f57565b9081516137ee8161300c565b906137fc6040519283612fe9565b808252601f1961380b8261300c565b0136602084013760005b81811061383b5750508091925051600019810190811161046f576130d690600083613f13565b80606061384a600193886137c1565b51015161385782866137c1565b5201613815565b908060209392818452848401376000828201840152601f01601f1916010190565b906001820180921161046f57565b9190820180921161046f57565b8181106138a5575050565b6000815560010161389a565b908082519081815260208091019281808460051b8301019501936000915b8483106138df5750505050505090565b9091929394958480600192601f198582030186528951906139096080835190808452830190613549565b91858060a01b038482015116848301526040808201519083015260608091015191015298019301930191949392906138cf565b906139468261300c565b6040906139566040519182612fe9565b8381528093613967601f199161300c565b019160009160005b84811061397d575050505050565b602090835161398b81612f7d565b85815260608684918083850152818885015283015282850101520161396f565b3d156139d6573d906139bc8261315e565b916139ca6040519384612fe9565b82523d6000602084013e565b606090565b604091949392606082019560018060a01b0316825260208201520152565b6000905b8051821015613a9b57613a1082826137c1565b5191825160208094012080600052601080855260409160ff836000205416613a4f579460019495600052526000208260ff1982541617905501906139fd565b509193909260005b85811115613a6a57505050505050600090565b80613a78613a9692846137c1565b518481519101206000528484528560002060ff198154169055613787565b613a57565b91905060005b8251811015613ad957806010613ab9600193866137c1565b51805160208092012060005252604060002060ff19815416905501613aa1565b5060019150565b6017815276064656163746976617465456d657267656e637953746f7604c1b602082015260400190565b6001600160a01b0391821681529116602082015260400190565b6040919493926060820195825260208201520152565b60008091600554925b838110613b535750505050600190565b613b65613b5f826135d8565b50613796565b80518351149081613b85575b50613b7e57600101613b43565b5050905090565b9050602080910151908301511438613b71565b80516031811490811591613d0b575b508015613ce5575b613cdf5760025b8151811015613cd85760ff60f81b6020828401015116603160f81b8110159081613cc9575b8115613ca5575b8115613c81575b8115613c5d575b8115613c39575b8115613c13575b5015613c0c57600101613bb6565b5050600090565b606d60f81b811015915081613c2a575b5038613bfe565b603d60f91b1015905038613c23565b9050606160f81b81101580613c4f575b90613bf7565b50606b60f81b811115613c49565b9050600560fc1b81101580613c73575b90613bf0565b50602d60f91b811115613c6d565b9050602560f91b81101580613c97575b90613be9565b50602760f91b811115613c91565b9050604160f81b81101580613cbb575b90613be2565b50600960fb1b811115613cb5565b603960f81b8111159150613bdb565b5050600190565b50600090565b508051600110156135f75760218101516001600160f81b031916604760f81b1415613baf565b9050156135f75760208101516001600160f81b031916606b60f81b141538613ba7565b601581527406163746976617465456d657267656e637953746f7605c1b602082015260400190565b600c81526b32b73226b4b3b930ba34b7b760a11b602082015260400190565b60409194939260ff606083019616825260208201520152565b600d54908115613c0c576001600160a01b039081166000818152600c60205260409020549283109290919083613dc5575b50505090565b613dd19192935061360d565b90549060031b1c1614388080613dbf565b9060005b8251811015613e8257613df981846137c1565b51600052600660209080825260409160ff836000205416613e3c5790839291613e24600195886137c1565b51600052526000208260ff1982541617905501613de6565b909192939460005b85811115613e5757505050505050600090565b80613e65613e7d92846137c1565b516000528484528560002060ff198154169055613787565b613e44565b5060005b8251811015613ad95780613e9c600192856137c1565b516000526006602052604060002060ff19815416905501613e86565b8181039291600013801582851316918412161761046f57565b9190916000838201938412911290801582169115161761046f57565b6001600160ff1b03811461046f5760010190565b600160ff1b811461046f576000190190565b9190808283821461401e57613f44613f3e613f38613f318588613eb8565b6002900590565b84613ed1565b866137c1565b515b81841315613f7f5750808212613f6e575b5050818112613f6557505050565b6134c392613f13565b613f789185613f13565b3880613f57565b959192949390945b86613f9282876137c1565b511015613fa757613fa290613eed565b613f87565b95945b613fb481866137c1565b51861015613fca57613fc590613f01565b613faa565b90939495929195818413613f4657909261401261401891613feb86896137c1565b51613ff6828a6137c1565b51614001888b6137c1565b5261400c828a6137c1565b52613eed565b93613f01565b90613f46565b5050505050565b600260015414614036576002600155565b604051633ee5aeb560e01b8152600490fd5b6000908072184f03e93ff9f4daa797ed6e38ed64bf6a1f0160401b8082101561419d575b506904ee2d6d415b85acef8160201b8083101561418e575b50662386f26fc100008083101561417f575b506305f5e10080831015614170575b5061271080831015614161575b506064821015614151575b600a80921015614147575b60019081602160018601956140dc8761315e565b966140ea6040519889612fe9565b8088526140f9601f199161315e565b01366020890137860101905b614111575b5050505090565b600019019083906f181899199a1a9b1b9c1cb0b131b232b360811b8282061a83530491821561414257919082614105565b61410a565b91600101916140c8565b91906064600291049101916140bd565b600491939204910191386140b2565b600891939204910191386140a5565b60109193920491019138614096565b60209193920491019138614084565b60409350810491503861406c565b80600052600060205260406000203360005260205260ff60406000205416156141d15750565b6044906040519063e2517d3f60e01b82523360048301526024820152fd5b6001600160a01b03166000818152600080516020614a6a8339815191526020526040812054909190600080516020614a8a8339815191529060ff1661426657808352826020526040832082845260205260408320600160ff198254161790556000805160206149ea833981519152339380a4600190565b505090565b9060009180835282602052604083209160018060a01b03169182845260205260ff6040842054161560001461426657808352826020526040832082845260205260408320600160ff198254161790556000805160206149ea833981519152339380a4600190565b6001600160a01b03166000818152600080516020614a6a8339815191526020526040812054909190600080516020614a8a8339815191529060ff16156142665780835282602052604083208284526020526040832060ff198154169055600080516020614a4a833981519152339380a4600190565b9060009180835282602052604083209160018060a01b03169182845260205260ff6040842054166000146142665780835282602052604083208284526020526040832060ff198154169055600080516020614a4a833981519152339380a4600190565b9091939492604093604051956143bf87612fb3565b600096878152876020809201528851966143d88861300c565b976143e6604051998a612fe9565b8089526143f5601f199161300c565b0190895b82811061453b5750505050865b88518110156144445780614428613b5f6144226001948d6137c1565b516135d8565b614432828a6137c1565b5261443d81896137c1565b5001614406565b509193965091948451156145385761446461445e866137b4565b5161469e565b9660015b865181101561448e57806144886144816001938a6137c1565b518b6146dd565b01614468565b509295919450929561449f9061477c565b60055493841561452457600590526144de6144d97f036b6384b5eca791c62761152d0c79bb0604c104a5fb6f4eb0703f3154bb3db0613796565b61469e565b9360015b8181106145065750506145006130d6969760601c9560601c9461477c565b90614846565b8061451e614518613b5f6001946135d8565b886146dd565b016144e2565b634e487b7160e01b81526032600452602490fd5b80fd5b8390825161454881612fb3565b8c81528c8382015282828d010152016143f9565b6001600160a01b039081166000818152600c6020526040812054909391929091614589816115b38561360d565b168352600c602052604083205581526040812055565b60076020820151916401000003d0199182809251818180099009089180091490565b600981526875706461746546656560b81b602082015260400190565b815191906041830361460e5761460792506020820151906060604084015193015160001a9061496c565b9192909190565b505060009160029190565b6004811015614688578061462b575050565b600181036146455760405163f645eedf60e01b8152600490fd5b600281036146665760405163fce698f760e01b815260048101839052602490fd5b6003146146705750565b602490604051906335e2f38360e21b82526004820152fd5b634e487b7160e01b600052602160045260246000fd5b6000604080516146ad81612f98565b828152826020820152015260208151910151604051916146cc83612f98565b825260208201526001604082015290565b9081519160208101928351602060408401928351938487836401000003d019809a818581809c9a81809c9a818581809e9b819e82809e819209809c510990820390089e8f93838b818080898009928180856004099a8b990893820390820308918009089052099c09970151918c820394099009086002099582808087600209810384820308818980090880995209600209820394820390089009089052565b6000602060405161478c81612fb3565b82815201526040519061479e82612fb3565b600082526020820190600082526040810151600090600190806401000003d019915b6147fc5750505060206401000003d019828009926401000003d0198482510986520151906401000003d019926401000003d01991099009905290565b91929091808304916401000003d01990818685096401000003d01903900892909182029003806147c0565b9094939260ff6060936080840197845216602083015260408201520152565b939290918115801561495b575b801561494a575b61493f576148678561459f565b1561493f5770014551231950b75fc4402da1732fc9bebe1980831015614933576020958185614905946000988a80995193015191604051928a8401948552600160f81b9060f81b166040840152604183015260018060601b03199060601b166061820152605581526148d881612f7d565b5190200693601b600183519788940151160192808360ff826040519a8b9a09830396169309900385614827565b838052039060015afa15614927576000516001600160a01b0391821691161490565b6040513d6000823e3d90fd5b50505050505050600090565b505050505050600090565b506001600160a01b0386161561485a565b506001600160a01b03841615614853565b9291906fa2a8918ca85bafe22016d0b997e4df60600160ff1b0383116149dd579161499e916020936040519586614827565b826000938492838052039060015afa156149d15780516001600160a01b038116156149c857918190565b50809160019190565b604051903d90823e3d90fd5b5060009360039350905056fe2f8788117e7eff1d82e926ec794901d17c78024a50270940304540a733656f0d89286a612921e39140a73fa930a2498d878c1b158f9dd8a620212af8b8417d4d1b5127dd9c06bbed58e3d1d0a2233ba10858472baa54723c3ba965508855ffe6f6391f5c32d9c69d2a47ea670b442974b53935d1edc7fd64eb21e047a839171b329977736520969c9868a184f64244da927a0462c6cb802bad0ae0d6d568ac825358bcfd81d1ef3da152b1755e1c3c6739686fa7e83dbcad0071568cc4b73a63a26469706673582212209503ca4b1f313893d306f28bde981c4fc3b1988889f94923ff824cc29c8c866664736f6c63430008180033",
  "linkReferences": {},
  "deployedLinkReferences": {}
}